{
  "_format": "hh-sol-artifact-1",
  "contractName": "Bribes",
  "sourceName": "contracts/protocol/Bribes.sol",
  "abi": [
    {
      "inputs": [],
      "stateMutability": "nonpayable",
      "type": "constructor"
    },
    {
      "anonymous": false,
      "inputs": [
        {
          "indexed": false,
          "internalType": "uint8",
          "name": "version",
          "type": "uint8"
        }
      ],
      "name": "Initialized",
      "type": "event"
    },
    {
      "anonymous": false,
      "inputs": [
        {
          "indexed": true,
          "internalType": "address",
          "name": "previousOwner",
          "type": "address"
        },
        {
          "indexed": true,
          "internalType": "address",
          "name": "newOwner",
          "type": "address"
        }
      ],
      "name": "OwnershipTransferred",
      "type": "event"
    },
    {
      "inputs": [
        {
          "internalType": "address",
          "name": "token",
          "type": "address"
        },
        {
          "internalType": "address",
          "name": "gauge",
          "type": "address"
        },
        {
          "internalType": "uint256",
          "name": "tokenId",
          "type": "uint256"
        }
      ],
      "name": "claim",
      "outputs": [
        {
          "internalType": "uint256",
          "name": "",
          "type": "uint256"
        }
      ],
      "stateMutability": "nonpayable",
      "type": "function"
    },
    {
      "inputs": [
        {
          "internalType": "address",
          "name": "briber",
          "type": "address"
        },
        {
          "internalType": "address",
          "name": "token",
          "type": "address"
        },
        {
          "internalType": "address",
          "name": "gauge",
          "type": "address"
        },
        {
          "internalType": "uint256",
          "name": "amount",
          "type": "uint256"
        }
      ],
      "name": "depositBribe",
      "outputs": [],
      "stateMutability": "nonpayable",
      "type": "function"
    },
    {
      "inputs": [
        {
          "internalType": "address",
          "name": "token",
          "type": "address"
        },
        {
          "internalType": "address",
          "name": "gauge",
          "type": "address"
        },
        {
          "internalType": "uint256",
          "name": "epoch",
          "type": "uint256"
        }
      ],
      "name": "getGaugeBribes",
      "outputs": [
        {
          "internalType": "uint256",
          "name": "",
          "type": "uint256"
        }
      ],
      "stateMutability": "view",
      "type": "function"
    },
    {
      "inputs": [
        {
          "internalType": "address",
          "name": "token",
          "type": "address"
        },
        {
          "internalType": "address",
          "name": "gauge",
          "type": "address"
        },
        {
          "internalType": "uint256",
          "name": "epoch",
          "type": "uint256"
        },
        {
          "internalType": "address",
          "name": "user",
          "type": "address"
        }
      ],
      "name": "getUserBribes",
      "outputs": [
        {
          "internalType": "uint256",
          "name": "",
          "type": "uint256"
        }
      ],
      "stateMutability": "view",
      "type": "function"
    },
    {
      "inputs": [
        {
          "internalType": "contract IAddressesProvider",
          "name": "addressProvider",
          "type": "address"
        }
      ],
      "name": "initialize",
      "outputs": [],
      "stateMutability": "nonpayable",
      "type": "function"
    },
    {
      "inputs": [],
      "name": "owner",
      "outputs": [
        {
          "internalType": "address",
          "name": "",
          "type": "address"
        }
      ],
      "stateMutability": "view",
      "type": "function"
    },
    {
      "inputs": [],
      "name": "renounceOwnership",
      "outputs": [],
      "stateMutability": "nonpayable",
      "type": "function"
    },
    {
      "inputs": [
        {
          "internalType": "address",
          "name": "token",
          "type": "address"
        },
        {
          "internalType": "address",
          "name": "gauge",
          "type": "address"
        },
        {
          "internalType": "uint256",
          "name": "epoch",
          "type": "uint256"
        }
      ],
      "name": "salvageBribes",
      "outputs": [],
      "stateMutability": "nonpayable",
      "type": "function"
    },
    {
      "inputs": [
        {
          "internalType": "address",
          "name": "newOwner",
          "type": "address"
        }
      ],
      "name": "transferOwnership",
      "outputs": [],
      "stateMutability": "nonpayable",
      "type": "function"
    },
    {
      "inputs": [
        {
          "internalType": "address",
          "name": "receiver",
          "type": "address"
        },
        {
          "internalType": "address",
          "name": "token",
          "type": "address"
        },
        {
          "internalType": "address",
          "name": "gauge",
          "type": "address"
        },
        {
          "internalType": "uint256",
          "name": "amount",
          "type": "uint256"
        }
      ],
      "name": "withdrawBribe",
      "outputs": [],
      "stateMutability": "nonpayable",
      "type": "function"
    }
  ],
  "bytecode": "0x608080604052346100c1576000549060ff8260081c1661006f575060ff80821610610034575b60405161158d90816100c78239f35b60ff90811916176000557f7f26b83ff96e1f2b6a682f133852f6798a09c465da95921460cefb3847402498602060405160ff8152a138610025565b62461bcd60e51b815260206004820152602760248201527f496e697469616c697a61626c653a20636f6e747261637420697320696e697469604482015266616c697a696e6760c81b6064820152608490fd5b600080fdfe608060408181526004918236101561001657600080fd5b600092833560e01c918263363394cd146108f557508163715018a6146108955781638da5cb5b1461086c57816394f2522f146106b9578163996cba68146106895781639c1a8e14146104b2578163ae0935ca146102cf578163c4d66de81461016c578163f2fde38b146100d6575063f69b384a1461009357600080fd5b346100d257806020926100a5366109bc565b6001600160a01b039283168452609887528484209190921683528552828220908252845220549051908152f35b5080fd5b905034610168576020366003190112610168576100f1610960565b916100fa6109f1565b6001600160a01b03831615610116578361011384610a49565b80f35b906020608492519162461bcd60e51b8352820152602660248201527f4f776e61626c653a206e6577206f776e657220697320746865207a65726f206160448201526564647265737360d01b6064820152fd5b8280fd5b9050346101685760203660031901126101685780356001600160a01b038116908190036102cb57835460ff8160081c1615928380946102be575b80156102a7575b1561024d575060ff19811660011785558261023c575b506101dd60ff855460081c166101d881610a92565b610a92565b6101e633610a49565b6bffffffffffffffffffffffff60a01b6097541617609755610206575080f35b60207f7f26b83ff96e1f2b6a682f133852f6798a09c465da95921460cefb38474024989161ff001984541684555160018152a180f35b61ffff1916610101178455386101c3565b608490602086519162461bcd60e51b8352820152602e60248201527f496e697469616c697a61626c653a20636f6e747261637420697320616c72656160448201526d191e481a5b9a5d1a585b1a5e995960921b6064820152fd5b50303b1580156101ad5750600160ff8316146101ad565b50600160ff8316106101a6565b8380fd5b839150346100d2576102e03661097b565b93916102ed969196610b6c565b60018060a01b039283609754169183518093630458184560e11b8252818460209687935afa90811561047b578693929185918b91610485575b506024875180968193635487c57760e01b83524288840152165afa92831561047b578993610448575b506001830180931161043557851694858952609984528489209916988989528352838820828952835283882033895283528684892054106103f257508697846103ea985260988352838920818a528352838920828a5283528389206103b5888254610ddb565b90558489526099835283892090895282528288209088528152818720903388525285206103e3848254610ddb565b9055610de8565b600160655580f35b835162461bcd60e51b8152908101839052601c60248201527f4e6f7420656e6f7567682066756e647320746f207769746864726177000000006044820152606490fd5b634e487b7160e01b895260118252602489fd5b9092508381813d8311610474575b6104608183610af2565b810103126104705751918a61034f565b8880fd5b503d610456565b85513d8b823e3d90fd5b6104a59150823d84116104ab575b61049d8183610af2565b810190610b2a565b8c610326565b503d610493565b839150346100d2576104c3366109bc565b6104cf95929195610b6c565b60018060a01b039384609754169284518094632c6f4d6f60e11b8252818460209788935afa908115610662578461053f9287928b9161066c575b508851631d2884c960e21b81526001600160a01b038d16878201908152602081019390935293849283918d918d91849160400190565b0393165af1908115610662578891610631575b506105ee578516948587526099845284872097169687875283528386208287528352838620338752835283862054156105b557508495846103ea965260998352838720908752825282862090865281528185209033865252832054903390610de8565b835162461bcd60e51b815290810183905260136024820152724e6f2066756e647320746f2073616c7661676560681b6044820152606490fd5b845162461bcd60e51b8152808301859052601d60248201527f4272696265732061726520636c61696d61626c652062792075736572730000006044820152606490fd5b90508481813d831161065b575b6106488183610af2565b81010312610657575189610552565b8780fd5b503d61063e565b86513d8a823e3d90fd5b6106839150833d85116104ab5761049d8183610af2565b8c610509565b5050346100d2576020906106ad61069f366109bc565b916106a8610b6c565b610e4d565b90600160655551908152f35b8383346100d2576106c93661097b565b90926106d6949294610b6c565b6097548351630458184560e11b81526020966001600160a01b0392909190889082908c90829087165afa9081156108455783929189918b9161084f575b508751635487c57760e01b815242818e01529384916024918391165afa918215610845578992610816575b5060018201809211610803578216958689526098885282868a20911690818a528852858920828a528852858920610776868254610b49565b905586895260998852858920908952875284882090885286528387209116865284528185206107a6828254610b49565b90558151936323b872dd60e01b9085015233602485015230604485015260648401526064835260a083019083821067ffffffffffffffff8311176107f0576103ea94955052610bc2565b634e487b7160e01b855260418652602485fd5b634e487b7160e01b895260118a52602489fd5b9091508781813d831161083e575b61082e8183610af2565b810103126104705751908a61073e565b503d610824565b86513d8b823e3d90fd5b6108669150823d84116104ab5761049d8183610af2565b8c610713565b5050346100d257816003193601126100d25760335490516001600160a01b039091168152602090f35b83346108f257806003193601126108f2576108ae6109f1565b603380546001600160a01b0319811690915581906001600160a01b03167f8be0079c531659141344cd1fd0a4f28419497f9722a3daafe3b4186f6b6457e08280a380f35b80fd5b8490843461016857608036600319011261016857610911610960565b926001600160a01b036024358181169081900361016857606435918083168093036102cb5760209616835260998652838320908352855282822060443583528552828220908252845220548152f35b600435906001600160a01b038216820361097657565b600080fd5b6080906003190112610976576001600160a01b0360043581811681036109765791602435828116810361097657916044359081168103610976579060643590565b6060906003190112610976576001600160a01b0390600435828116810361097657916024359081168103610976579060443590565b6033546001600160a01b03163303610a0557565b606460405162461bcd60e51b815260206004820152602060248201527f4f776e61626c653a2063616c6c6572206973206e6f7420746865206f776e65726044820152fd5b603380546001600160a01b039283166001600160a01b0319821681179092559091167f8be0079c531659141344cd1fd0a4f28419497f9722a3daafe3b4186f6b6457e0600080a3565b15610a9957565b60405162461bcd60e51b815260206004820152602b60248201527f496e697469616c697a61626c653a20636f6e7472616374206973206e6f74206960448201526a6e697469616c697a696e6760a81b6064820152608490fd5b90601f8019910116810190811067ffffffffffffffff821117610b1457604052565b634e487b7160e01b600052604160045260246000fd5b9081602091031261097657516001600160a01b03811681036109765790565b91908201809211610b5657565b634e487b7160e01b600052601160045260246000fd5b600260655414610b7d576002606555565b60405162461bcd60e51b815260206004820152601f60248201527f5265656e7472616e637947756172643a207265656e7472616e742063616c6c006044820152606490fd5b60018060a01b0316906040516040810167ffffffffffffffff9082811082821117610b14576040526020938483527f5361666545524332303a206c6f772d6c6576656c2063616c6c206661696c6564858401526000808587829751910182855af1903d15610cfc573d928311610ce85790610c5d93929160405192610c5088601f19601f8401160185610af2565b83523d868885013e610d07565b805180610c6b575b50505050565b818491810103126100d257820151908115918215036108f25750610c9157808080610c65565b6084906040519062461bcd60e51b82526004820152602a60248201527f5361666545524332303a204552433230206f7065726174696f6e20646964206e6044820152691bdd081cdd58d8d9595960b21b6064820152fd5b634e487b7160e01b85526041600452602485fd5b90610c5d9392506060915b91929015610d695750815115610d1b575090565b3b15610d245790565b60405162461bcd60e51b815260206004820152601d60248201527f416464726573733a2063616c6c20746f206e6f6e2d636f6e74726163740000006044820152606490fd5b825190915015610d7c5750805190602001fd5b6040519062461bcd60e51b82528160208060048301528251908160248401526000935b828510610dc2575050604492506000838284010152601f80199101168101030190fd5b8481018201518686016044015293810193859350610d9f565b91908203918211610b5657565b60405163a9059cbb60e01b60208201526001600160a01b03929092166024830152604480830193909352918152610e2991610e24606483610af2565b610bc2565b565b6000198114610b565760010190565b81810292918115918404141715610b5657565b909160018060a01b0360975416604051630458184560e11b8152602081600481855afa9081156112bc5760249160209160009161153a575b506040516331a9108f60e11b81526004810186905292839182906001600160a01b03165afa9081156112bc5760009161151b575b50336001600160a01b03909116036114ca57604051632c6f4d6f60e11b815291602083600481855afa9283156112bc576044936060916000916114ab575b50604051636040b3b760e01b8152600481018490526001600160a01b0388811660248301529095869290918391165afa9283156112bc5760009361142d575b5082511561142357604051630458184560e11b815291602083600481845afa9283156112bc57602493602091600091611406575b50604051635487c57760e01b815242600482015294859182906001600160a01b03165afa9283156112bc576000936113d1575b50602060049160405192838092630458184560e11b82525afa9081156112bc576000916113b2575b5060206040850151602460405180948193635487c57760e01b8352600483015260018060a01b03165afa9081156112bc57600091611380575b506001600160a01b038581166000908152609a60209081526040808320938a16835292815282822085835290522054811015611341575b5093919060009485935b60328510611068575b50611065948694503393506001600160a01b03169150610de89050565b90565b909192939560018060a01b038616600052609a602052604060002060018060a01b03831660005260205260406000208360005260205260406000205484811161133a57609754604051630458184560e11b815290602090829060049082906001600160a01b03165afa9081156112bc57600091602091839161131d575b5060405163196d044f60e11b81526004810185905292839160249183916001600160a01b03165af19081156112bc576000916112e9575b509061114b6004939261114589519161113f60208c01519160408d015190610ddb565b90610e3a565b90610ddb565b609754604051632c6f4d6f60e11b81529491929160209186919082906001600160a01b03165afa9384156112bc576000946112c8575b50604051631d2884c960e21b81526001600160a01b03868116600483015260248201839052909460209186916044918391600091165af19384156112bc57600094611286575b50906112099160018060a01b038a166000526098602052604060002060018060a01b038716600052602052604060002090600052602052604060002054610e3a565b908215611270576112679261121f920490610b49565b9660018060a01b038716600052609a602052604060002060018060a01b03841660005260205260406000208460005260205260406000206112608154610e2b565b9055610e2b565b9392919061103f565b634e487b7160e01b600052601260045260246000fd5b90936020823d6020116112b4575b816112a160209383610af2565b810103126108f2575051926112096111c7565b3d9150611294565b6040513d6000823e3d90fd5b6112e291945060203d6020116104ab5761049d8183610af2565b9238611181565b906020823d602011611315575b8161130360209383610af2565b810103126108f257505161114b61111c565b3d91506112f6565b6113349150823d84116104ab5761049d8183610af2565b386110e5565b5095611048565b60018101809111610b56576001600160a01b038581166000908152609a60209081526040808320938a1683529281528282208583529052205538611035565b906020823d6020116113aa575b8161139a60209383610af2565b810103126108f257505138610ffe565b3d915061138d565b6113cb915060203d6020116104ab5761049d8183610af2565b38610fc5565b90926020823d6020116113fe575b816113ec60209383610af2565b810103126108f2575051916020610f9d565b3d91506113df565b61141d9150823d84116104ab5761049d8183610af2565b38610f6a565b5050505050600090565b6060939193813d82116114a3575b8161144860609383610af2565b810103126100d25760405191606083019083821067ffffffffffffffff83111761148f57509060409182528051835260208101516020840152015160408201529138610f36565b634e487b7160e01b81526041600452602490fd5b3d915061143b565b6114c4915060203d6020116104ab5761049d8183610af2565b38610ef7565b60405162461bcd60e51b8152602060048201526024808201527f43616c6c6572206973206e6f7420746865206f776e6572206f6620746865207460448201526337b5b2b760e11b6064820152608490fd5b611534915060203d6020116104ab5761049d8183610af2565b38610eb9565b6115519150823d84116104ab5761049d8183610af2565b38610e8556fea264697066735822122052e5a51d3099831a5861d0f326cef3dbaa797cb4d61e9985d494d2553c8737aa64736f6c63430008130033",
  "linkReferences": {},
  "deployedLinkReferences": {}
}