{
  "_format": "hh-sol-artifact-1",
  "contractName": "Bribes",
  "sourceName": "contracts/protocol/Bribes.sol",
  "abi": [
    {
      "inputs": [],
      "stateMutability": "nonpayable",
      "type": "constructor"
    },
    {
      "anonymous": false,
      "inputs": [
        {
          "indexed": false,
          "internalType": "uint8",
          "name": "version",
          "type": "uint8"
        }
      ],
      "name": "Initialized",
      "type": "event"
    },
    {
      "anonymous": false,
      "inputs": [
        {
          "indexed": true,
          "internalType": "address",
          "name": "previousOwner",
          "type": "address"
        },
        {
          "indexed": true,
          "internalType": "address",
          "name": "newOwner",
          "type": "address"
        }
      ],
      "name": "OwnershipTransferred",
      "type": "event"
    },
    {
      "inputs": [
        {
          "internalType": "address",
          "name": "token",
          "type": "address"
        },
        {
          "internalType": "address",
          "name": "gauge",
          "type": "address"
        },
        {
          "internalType": "uint256",
          "name": "tokenId",
          "type": "uint256"
        }
      ],
      "name": "claim",
      "outputs": [
        {
          "internalType": "uint256",
          "name": "",
          "type": "uint256"
        }
      ],
      "stateMutability": "nonpayable",
      "type": "function"
    },
    {
      "inputs": [
        {
          "internalType": "address",
          "name": "briber",
          "type": "address"
        },
        {
          "internalType": "address",
          "name": "token",
          "type": "address"
        },
        {
          "internalType": "address",
          "name": "gauge",
          "type": "address"
        },
        {
          "internalType": "uint256",
          "name": "amount",
          "type": "uint256"
        }
      ],
      "name": "depositBribe",
      "outputs": [],
      "stateMutability": "nonpayable",
      "type": "function"
    },
    {
      "inputs": [
        {
          "internalType": "address",
          "name": "token",
          "type": "address"
        },
        {
          "internalType": "address",
          "name": "gauge",
          "type": "address"
        },
        {
          "internalType": "uint256",
          "name": "epoch",
          "type": "uint256"
        }
      ],
      "name": "getGaugeBribes",
      "outputs": [
        {
          "internalType": "uint256",
          "name": "",
          "type": "uint256"
        }
      ],
      "stateMutability": "view",
      "type": "function"
    },
    {
      "inputs": [
        {
          "internalType": "address",
          "name": "token",
          "type": "address"
        },
        {
          "internalType": "address",
          "name": "gauge",
          "type": "address"
        },
        {
          "internalType": "uint256",
          "name": "epoch",
          "type": "uint256"
        },
        {
          "internalType": "address",
          "name": "user",
          "type": "address"
        }
      ],
      "name": "getUserBribes",
      "outputs": [
        {
          "internalType": "uint256",
          "name": "",
          "type": "uint256"
        }
      ],
      "stateMutability": "view",
      "type": "function"
    },
    {
      "inputs": [
        {
          "internalType": "contract IAddressesProvider",
          "name": "addressProvider",
          "type": "address"
        }
      ],
      "name": "initialize",
      "outputs": [],
      "stateMutability": "nonpayable",
      "type": "function"
    },
    {
      "inputs": [],
      "name": "owner",
      "outputs": [
        {
          "internalType": "address",
          "name": "",
          "type": "address"
        }
      ],
      "stateMutability": "view",
      "type": "function"
    },
    {
      "inputs": [],
      "name": "renounceOwnership",
      "outputs": [],
      "stateMutability": "nonpayable",
      "type": "function"
    },
    {
      "inputs": [
        {
          "internalType": "address",
          "name": "token",
          "type": "address"
        },
        {
          "internalType": "address",
          "name": "gauge",
          "type": "address"
        },
        {
          "internalType": "uint256",
          "name": "epoch",
          "type": "uint256"
        }
      ],
      "name": "salvageBribes",
      "outputs": [],
      "stateMutability": "nonpayable",
      "type": "function"
    },
    {
      "inputs": [
        {
          "internalType": "address",
          "name": "newOwner",
          "type": "address"
        }
      ],
      "name": "transferOwnership",
      "outputs": [],
      "stateMutability": "nonpayable",
      "type": "function"
    }
  ],
  "bytecode": "0x608080604052346100c1576000549060ff8260081c1661006f575060ff80821610610034575b60405161137a90816100c78239f35b60ff90811916176000557f7f26b83ff96e1f2b6a682f133852f6798a09c465da95921460cefb3847402498602060405160ff8152a138610025565b62461bcd60e51b815260206004820152602760248201527f496e697469616c697a61626c653a20636f6e747261637420697320696e697469604482015266616c697a696e6760c81b6064820152608490fd5b600080fdfe608080604052600436101561001357600080fd5b60003560e01c908163363394cd14610e3957508063715018a614610ddc5780638da5cb5b14610db357806394f2522f14610c07578063996cba68146104cd5780639c1a8e14146102c4578063c4d66de814610160578063f2fde38b146100d15763f69b384a1461008257600080fd5b346100cc5761009036610ed8565b9160018060a01b038091166000526098602052604060002091166000526020526040600020906000526020526020604060002054604051908152f35b600080fd5b346100cc5760203660031901126100cc576100ea610eac565b6100f2610f0d565b6001600160a01b0381161561010c5761010a90610f65565b005b60405162461bcd60e51b815260206004820152602660248201527f4f776e61626c653a206e6577206f776e657220697320746865207a65726f206160448201526564647265737360d01b6064820152608490fd5b346100cc5760203660031901126100cc576004356001600160a01b038116908190036100cc576000549060ff8260081c1615918280936102b7575b80156102a0575b156102445760ff19811660011760005582610232575b506101d360ff60005460081c166101ce81610fae565b610fae565b6101dc33610f65565b6bffffffffffffffffffffffff60a01b60975416176097556101fa57005b61ff0019600054166000557f7f26b83ff96e1f2b6a682f133852f6798a09c465da95921460cefb3847402498602060405160018152a1005b61ffff191661010117600055826101b8565b60405162461bcd60e51b815260206004820152602e60248201527f496e697469616c697a61626c653a20636f6e747261637420697320616c72656160448201526d191e481a5b9a5d1a585b1a5e995960921b6064820152608490fd5b50303b1580156101a25750600160ff8216146101a2565b50600160ff82161061019b565b346100cc576102d236610ed8565b90916102dc61105c565b60018060a01b03918260975416916040518093632c6f4d6f60e11b825281600460209687935afa801561049457838591610352936000916104a0575b50604051631d2884c960e21b81526001600160a01b038a1660048201526024810192909252909283919082906000908a9083906044820190565b0393165af190811561049457600091610467575b50610422578316928360005260998352604060002094169384600052825260406000208160005282526040600020336000528252604060002054156103e7576103e09383600052609983526040600020906000528252604060002090600052815260406000209033600052526040600020549033906112d2565b6001606555005b60405162461bcd60e51b81526004810183905260136024820152724e6f2066756e647320746f2073616c7661676560681b6044820152606490fd5b60405162461bcd60e51b815260048101849052601d60248201527f4272696265732061726520636c61696d61626c652062792075736572730000006044820152606490fd5b90508381813d831161048d575b61047e818361100e565b810103126100cc575186610366565b503d610474565b6040513d6000823e3d90fd5b6104c09150833d85116104c6575b6104b8818361100e565b810190611030565b89610318565b503d6104ae565b346100cc576104db36610ed8565b6104e692919261105c565b609754604051630458184560e11b81526001600160a01b039091169190602081600481865afa90811561049457602491602091600091610bea575b506040516331a9108f60e11b81526004810185905292839182906001600160a01b03165afa90811561049457600091610bcb575b50336001600160a01b0390911603610b7a57604051630458184560e11b815290602082600481865afa91821561049457602492602091600091610b5d575b50604051635487c57760e01b815242600482015293849182906001600160a01b03165afa91821561049457600092610b29575b50604051632c6f4d6f60e11b815292602084600481845afa93841561049457604494606091600091610b0a575b50604051636040b3b760e01b8152600481018590526001600160a01b0389811660248301529096879290918391165afa93841561049457600094610a83575b50602060049160405192838092630458184560e11b82525afa90811561049457600091610a64575b5060206040850151602460405180948193635487c57760e01b8352600483015260018060a01b03165afa90811561049457600091610a32575b506001600160a01b038581166000908152609a60209081526040808320938a168352928152828220858352905220548110156109d3575b509391906000946000935b60328510610702575b6020876106f581336001600160a01b038b166112d2565b6001606555604051908152f35b909192939560018060a01b038616600052609a602052604060002060018060a01b0383166000526020526040600020836000526020526040600020548481116109cc57609754604051630458184560e11b8152929190602090849060049082906001600160a01b03165afa9283156104945760009360209185916109af575b5060405163196d044f60e11b81526004810184905294859160249183916001600160a01b03165af192831561049457600093610979575b506107e56004936107df8951916107d960208c01519160408d015190611324565b90611331565b90611324565b609754604051632c6f4d6f60e11b81529491929160209186919082906001600160a01b03165afa93841561049457600094610958575b50604051631d2884c960e21b81526001600160a01b03868116600483015260248201839052909460209186916044918391600091165af193841561049457600094610920575b50906108a39160018060a01b038a166000526098602052604060002060018060a01b038716600052602052604060002090600052602052604060002054611331565b90821561090a57610901926108b992049061104f565b9660018060a01b038716600052609a602052604060002060018060a01b03841660005260205260406000208460005260205260406000206108fa8154611315565b9055611315565b939291906106d5565b634e487b7160e01b600052601260045260246000fd5b919093506020823d602011610950575b8161093d6020938361100e565b810103126100cc579051926108a3610861565b3d9150610930565b61097291945060203d6020116104c6576104b8818361100e565b928a61081b565b92506020833d6020116109a7575b816109946020938361100e565b810103126100cc579151916107e56107b8565b3d9150610987565b6109c69150823d84116104c6576104b8818361100e565b8b610781565b50956106de565b600181018111610a1c57600190818060a01b038616600052609a6020526040600020828060a01b03881660005260205260406000208360005260205201604060002055856106ca565b634e487b7160e01b600052601160045260246000fd5b90506020813d602011610a5c575b81610a4d6020938361100e565b810103126100cc575186610693565b3d9150610a40565b610a7d915060203d6020116104c6576104b8818361100e565b8661065a565b9093506060813d8211610b02575b81610a9e6060938361100e565b810103126100cc576040519081606081011067ffffffffffffffff606084011117610aec57816040602092606060049501825280518352838101518484015201516040820152949150610632565b634e487b7160e01b600052604160045260246000fd5b3d9150610a91565b610b23915060203d6020116104c6576104b8818361100e565b886105f3565b9091506020813d602011610b55575b81610b456020938361100e565b810103126100cc575190856105c6565b3d9150610b38565b610b749150823d84116104c6576104b8818361100e565b87610593565b60405162461bcd60e51b8152602060048201526024808201527f43616c6c6572206973206e6f7420746865206f776e6572206f6620746865207460448201526337b5b2b760e11b6064820152608490fd5b610be4915060203d6020116104c6576104b8818361100e565b85610555565b610c019150823d84116104c6576104b8818361100e565b87610521565b346100cc5760803660031901126100cc57610c20610eac565b610c28610ec2565b6001600160a01b0360443581811693908490036100cc5760643591610c4b61105c565b8060975416936040518095630458184560e11b825281600460209889935afa9081156104945783918791600091610d96575b50602460405180948193635487c57760e01b8352426004840152165afa918215610494578391600093610d63575b5016958660005260988652604060002081600052865260406000208260005286526040600020610cdc86825461104f565b90558660005260998652604060002090600052855260406000209060005284526040600020911660005282526040600020610d1882825461104f565b9055604051916323b872dd60e01b9083015233602483015230604483015260648201526064815260a081019181831067ffffffffffffffff841117610aec576103e0926040526110b2565b87809294508193503d8311610d8f575b610d7d818361100e565b810103126100cc578290519188610cab565b503d610d73565b610dad9150823d84116104c6576104b8818361100e565b89610c7d565b346100cc5760003660031901126100cc576033546040516001600160a01b039091168152602090f35b346100cc5760003660031901126100cc57610df5610f0d565b603380546001600160a01b031981169091556000906001600160a01b03167f8be0079c531659141344cd1fd0a4f28419497f9722a3daafe3b4186f6b6457e08280a3005b346100cc5760803660031901126100cc57610e52610eac565b90610e5b610ec2565b6064356001600160a01b0381811692918390036100cc578060209516600052609985526040600020911660005283526040600020604435600052835260406000209060005282526040600020548152f35b600435906001600160a01b03821682036100cc57565b602435906001600160a01b03821682036100cc57565b60609060031901126100cc576001600160a01b039060043582811681036100cc579160243590811681036100cc579060443590565b6033546001600160a01b03163303610f2157565b606460405162461bcd60e51b815260206004820152602060248201527f4f776e61626c653a2063616c6c6572206973206e6f7420746865206f776e65726044820152fd5b603380546001600160a01b039283166001600160a01b0319821681179092559091167f8be0079c531659141344cd1fd0a4f28419497f9722a3daafe3b4186f6b6457e0600080a3565b15610fb557565b60405162461bcd60e51b815260206004820152602b60248201527f496e697469616c697a61626c653a20636f6e7472616374206973206e6f74206960448201526a6e697469616c697a696e6760a81b6064820152608490fd5b90601f8019910116810190811067ffffffffffffffff821117610aec57604052565b908160209103126100cc57516001600160a01b03811681036100cc5790565b91908201809211610a1c57565b60026065541461106d576002606555565b60405162461bcd60e51b815260206004820152601f60248201527f5265656e7472616e637947756172643a207265656e7472616e742063616c6c006044820152606490fd5b60018060a01b0316906040516040810167ffffffffffffffff9082811082821117610aec576040526020938483527f5361666545524332303a206c6f772d6c6576656c2063616c6c206661696c6564858401526000808587829751910182855af1903d156111f3573d9283116111df579061114d9392916040519261114088601f19601f840116018561100e565b83523d868885013e6111fe565b80518061115b575b50505050565b818491810103126111db57820151908115918215036111d8575061118157808080611155565b6084906040519062461bcd60e51b82526004820152602a60248201527f5361666545524332303a204552433230206f7065726174696f6e20646964206e6044820152691bdd081cdd58d8d9595960b21b6064820152fd5b80fd5b5080fd5b634e487b7160e01b85526041600452602485fd5b9061114d9392506060915b919290156112605750815115611212575090565b3b1561121b5790565b60405162461bcd60e51b815260206004820152601d60248201527f416464726573733a2063616c6c20746f206e6f6e2d636f6e74726163740000006044820152606490fd5b8251909150156112735750805190602001fd5b6040519062461bcd60e51b82528160208060048301528251908160248401526000935b8285106112b9575050604492506000838284010152601f80199101168101030190fd5b8481018201518686016044015293810193859350611296565b60405163a9059cbb60e01b60208201526001600160a01b039290921660248301526044808301939093529181526113139161130e60648361100e565b6110b2565b565b6000198114610a1c5760010190565b91908203918211610a1c57565b81810292918115918404141715610a1c5756fea26469706673582212201622d1306f330bfeb625f22b1c2efc8d629df940155e9b95f140ab5f148746bd64736f6c63430008130033",
  "linkReferences": {},
  "deployedLinkReferences": {}
}