{
  "_format": "hh-sol-artifact-1",
  "contractName": "Bribes",
  "sourceName": "contracts/protocol/Bribes.sol",
  "abi": [
    {
      "inputs": [],
      "stateMutability": "nonpayable",
      "type": "constructor"
    },
    {
      "anonymous": false,
      "inputs": [
        {
          "indexed": false,
          "internalType": "uint8",
          "name": "version",
          "type": "uint8"
        }
      ],
      "name": "Initialized",
      "type": "event"
    },
    {
      "anonymous": false,
      "inputs": [
        {
          "indexed": true,
          "internalType": "address",
          "name": "previousOwner",
          "type": "address"
        },
        {
          "indexed": true,
          "internalType": "address",
          "name": "newOwner",
          "type": "address"
        }
      ],
      "name": "OwnershipTransferred",
      "type": "event"
    },
    {
      "inputs": [
        {
          "internalType": "address",
          "name": "token",
          "type": "address"
        },
        {
          "internalType": "address",
          "name": "gauge",
          "type": "address"
        },
        {
          "internalType": "uint256",
          "name": "tokenId",
          "type": "uint256"
        }
      ],
      "name": "claim",
      "outputs": [
        {
          "internalType": "uint256",
          "name": "amountToClaim",
          "type": "uint256"
        }
      ],
      "stateMutability": "nonpayable",
      "type": "function"
    },
    {
      "inputs": [
        {
          "internalType": "address",
          "name": "briber",
          "type": "address"
        },
        {
          "internalType": "address",
          "name": "token",
          "type": "address"
        },
        {
          "internalType": "address",
          "name": "gauge",
          "type": "address"
        },
        {
          "internalType": "uint256",
          "name": "amount",
          "type": "uint256"
        }
      ],
      "name": "depositBribe",
      "outputs": [],
      "stateMutability": "nonpayable",
      "type": "function"
    },
    {
      "inputs": [
        {
          "internalType": "address",
          "name": "token",
          "type": "address"
        },
        {
          "internalType": "address",
          "name": "gauge",
          "type": "address"
        },
        {
          "internalType": "uint256",
          "name": "epoch",
          "type": "uint256"
        }
      ],
      "name": "getGaugeBribes",
      "outputs": [
        {
          "internalType": "uint256",
          "name": "",
          "type": "uint256"
        }
      ],
      "stateMutability": "view",
      "type": "function"
    },
    {
      "inputs": [
        {
          "internalType": "address",
          "name": "token",
          "type": "address"
        },
        {
          "internalType": "address",
          "name": "gauge",
          "type": "address"
        },
        {
          "internalType": "uint256",
          "name": "epoch",
          "type": "uint256"
        },
        {
          "internalType": "address",
          "name": "user",
          "type": "address"
        }
      ],
      "name": "getUserBribes",
      "outputs": [
        {
          "internalType": "uint256",
          "name": "",
          "type": "uint256"
        }
      ],
      "stateMutability": "view",
      "type": "function"
    },
    {
      "inputs": [
        {
          "internalType": "contract IAddressesProvider",
          "name": "addressProvider",
          "type": "address"
        }
      ],
      "name": "initialize",
      "outputs": [],
      "stateMutability": "nonpayable",
      "type": "function"
    },
    {
      "inputs": [],
      "name": "owner",
      "outputs": [
        {
          "internalType": "address",
          "name": "",
          "type": "address"
        }
      ],
      "stateMutability": "view",
      "type": "function"
    },
    {
      "inputs": [],
      "name": "renounceOwnership",
      "outputs": [],
      "stateMutability": "nonpayable",
      "type": "function"
    },
    {
      "inputs": [
        {
          "internalType": "address",
          "name": "token",
          "type": "address"
        },
        {
          "internalType": "address",
          "name": "gauge",
          "type": "address"
        },
        {
          "internalType": "uint256",
          "name": "epoch",
          "type": "uint256"
        }
      ],
      "name": "salvageBribes",
      "outputs": [],
      "stateMutability": "nonpayable",
      "type": "function"
    },
    {
      "inputs": [
        {
          "internalType": "address",
          "name": "newOwner",
          "type": "address"
        }
      ],
      "name": "transferOwnership",
      "outputs": [],
      "stateMutability": "nonpayable",
      "type": "function"
    },
    {
      "inputs": [
        {
          "internalType": "address",
          "name": "receiver",
          "type": "address"
        },
        {
          "internalType": "address",
          "name": "token",
          "type": "address"
        },
        {
          "internalType": "address",
          "name": "gauge",
          "type": "address"
        },
        {
          "internalType": "uint256",
          "name": "amount",
          "type": "uint256"
        }
      ],
      "name": "withdrawBribe",
      "outputs": [],
      "stateMutability": "nonpayable",
      "type": "function"
    }
  ],
  "bytecode": "0x608060405234801561001057600080fd5b5061001961001e565b6100de565b600054610100900460ff161561008a5760405162461bcd60e51b815260206004820152602760248201527f496e697469616c697a61626c653a20636f6e747261637420697320696e697469604482015266616c697a696e6760c81b606482015260840160405180910390fd5b60005460ff90811610156100dc576000805460ff191660ff9081179091556040519081527f7f26b83ff96e1f2b6a682f133852f6798a09c465da95921460cefb38474024989060200160405180910390a15b565b611b01806100ed6000396000f3fe608060405234801561001057600080fd5b506004361061009e5760003560e01c80639c1a8e14116100665780639c1a8e1414610114578063ae0935ca14610127578063c4d66de81461013a578063f2fde38b1461014d578063f69b384a1461016057600080fd5b8063363394cd146100a3578063715018a6146100c95780638da5cb5b146100d357806394f2522f146100ee578063996cba6814610101575b600080fd5b6100b66100b13660046117ae565b610173565b6040519081526020015b60405180910390f35b6100d16101bf565b005b6033546040516001600160a01b0390911681526020016100c0565b6100d16100fc366004611801565b6101d3565b6100b661010f366004611852565b610387565b6100d1610122366004611852565b610a01565b6100d1610135366004611801565b610c5c565b6100d1610148366004611893565b610e76565b6100d161015b366004611893565b610fb3565b6100b661016e366004611852565b61102c565b60008361017f8161106c565b50506001600160a01b0393841660009081526099602090815260408083209587168352948152848220938252928352838120919094168452905290205490565b6101c761118d565b6101d160006111e7565b565b816101dd8161106c565b6101e5611239565b60975460408051630458184560e11b815290516000926001600160a01b0316916308b0308a9160048083019260209291908290030181865afa15801561022f573d6000803e3d6000fd5b505050506040513d601f19601f8201168201806040525081019061025391906118b7565b604051635e05e35d60e11b81524260048201526001600160a01b03919091169063bc0bc6ba90602401602060405180830381865afa158015610299573d6000803e3d6000fd5b505050506040513d601f19601f820116820180604052508101906102bd91906118d4565b6102c8906001611903565b6001600160a01b038087166000908152609860209081526040808320938916835292815282822084835290529081208054929350859290919061030c908490611903565b90915550506001600160a01b038086166000908152609960209081526040808320888516845282528083208584528252808320938a168352929052908120805485929061035a908490611903565b9091555061037590506001600160a01b038616333086611292565b506103806001606555565b5050505050565b6000826103938161106c565b61039b611239565b60975460408051630458184560e11b815290516000926001600160a01b0316916308b0308a9160048083019260209291908290030181865afa1580156103e5573d6000803e3d6000fd5b505050506040513d601f19601f8201168201806040525081019061040991906118b7565b9050336040516331a9108f60e11b8152600481018690526001600160a01b0391821691831690636352211e90602401602060405180830381865afa158015610455573d6000803e3d6000fd5b505050506040513d601f19601f8201168201806040525081019061047991906118b7565b6001600160a01b0316146104c45760405162461bcd60e51b815260206004820152600d60248201526c211d219d2727aa2fa7aba722a960991b60448201526064015b60405180910390fd5b60975460408051632c6f4d6f60e11b815290516000926001600160a01b0316916358de9ade9160048083019260209291908290030181865afa15801561050e573d6000803e3d6000fd5b505050506040513d601f19601f8201168201806040525081019061053291906118b7565b60405162bb60f760e31b8152600481018790526001600160a01b0388811660248301529192506000918316906305db07b890604401606060405180830381865afa158015610584573d6000803e3d6000fd5b505050506040513d601f19601f820116820180604052508101906105a8919061191c565b80519091506000036105c057600094505050506109ef565b604051635e05e35d60e11b81524260048201526000906001600160a01b0385169063bc0bc6ba90602401602060405180830381865afa158015610607573d6000803e3d6000fd5b505050506040513d601f19601f8201168201806040525081019061062b91906118d4565b6040808401519051635e05e35d60e11b81529192506001600160a01b0386169163bc0bc6ba916106619160040190815260200190565b602060405180830381865afa15801561067e573d6000803e3d6000fd5b505050506040513d601f19601f820116820180604052508101906106a291906118d4565b6001600160a01b03808b166000908152609a60209081526040808320938d1683529281528282208b8352905220541161077e576040828101519051635e05e35d60e11b815260048101919091526001600160a01b0385169063bc0bc6ba90602401602060405180830381865afa158015610720573d6000803e3d6000fd5b505050506040513d601f19601f8201168201806040525081019061074491906118d4565b61074f906001611903565b6001600160a01b03808b166000908152609a60209081526040808320938d1683529281528282208b8352905220555b60008060005b60328110156109cd576001600160a01b03808d166000908152609a60209081526040808320938f1683529281528282208d83529052205491508382116109cd57604085810151905163b291824f60e01b8152600481018490526001600160a01b0389169063b291824f906024016020604051808303816000875af1158015610810573d6000803e3d6000fd5b505050506040513d601f19601f8201168201806040525081019061083491906118d4565b61083e9190611986565b856020015161084d9190611999565b85516108599190611986565b604051631d2884c960e21b81526001600160a01b038d8116600483015260248201859052919450908716906374a21324906044016020604051808303816000875af11580156108ac573d6000803e3d6000fd5b505050506040513d601f19601f820116820180604052508101906108d091906118d4565b83609860008f6001600160a01b03166001600160a01b0316815260200190815260200160002060008e6001600160a01b03166001600160a01b031681526020019081526020016000206000858152602001908152602001600020546109359190611999565b61093f91906119b0565b610949908a611903565b9850609a60008d6001600160a01b03166001600160a01b0316815260200190815260200160002060008c6001600160a01b03166001600160a01b0316815260200190815260200160002060008b815260200190815260200160002060008154809291906109b5906119d2565b919050555080806109c5906119d2565b915050610784565b5087156109e8576109e86001600160a01b038c16338a61130a565b5050505050505b6109f96001606555565b509392505050565b610a09611239565b81610a138161106c565b81610a1d8161133a565b60975460408051632c6f4d6f60e11b815290516000926001600160a01b0316916358de9ade9160048083019260209291908290030181865afa158015610a67573d6000803e3d6000fd5b505050506040513d601f19601f82011682018060405250810190610a8b91906118b7565b604051631d2884c960e21b81526001600160a01b03878116600483015260248201879052919250908216906374a21324906044016020604051808303816000875af1158015610ade573d6000803e3d6000fd5b505050506040513d601f19601f82011682018060405250810190610b0291906118d4565b15610b465760405162461bcd60e51b8152602060048201526014602482015273423a53423a46554e44535f434c41494d41424c4560601b60448201526064016104bb565b6001600160a01b038681166000908152609960209081526040808320938916835292815282822087835281528282203383529052205480610bb95760405162461bcd60e51b815260206004820152600d60248201526c423a53423a4e4f5f46554e445360981b60448201526064016104bb565b610bcd6001600160a01b038816338361130a565b6001600160a01b038088166000908152609860209081526040808320938a16835292815282822088835290529081208054839290610c0c908490611986565b909155505050506001600160a01b0385811660009081526099602090815260408083209388168352928152828220868352815282822033835290529081205550506001606555505050565b505050565b81610c668161106c565b610c6e611239565b60975460408051630458184560e11b815290516000926001600160a01b0316916308b0308a9160048083019260209291908290030181865afa158015610cb8573d6000803e3d6000fd5b505050506040513d601f19601f82011682018060405250810190610cdc91906118b7565b604051635e05e35d60e11b81524260048201526001600160a01b03919091169063bc0bc6ba90602401602060405180830381865afa158015610d22573d6000803e3d6000fd5b505050506040513d601f19601f82011682018060405250810190610d4691906118d4565b610d51906001611903565b6001600160a01b0386811660009081526099602090815260408083209389168352928152828220848352815282822033835290522054909150831115610dd15760405162461bcd60e51b8152602060048201526015602482015274423a57423a4e4f545f454e4f5547485f46554e445360581b60448201526064016104bb565b6001600160a01b038086166000908152609860209081526040808320938816835292815282822084835290529081208054859290610e10908490611986565b90915550506001600160a01b0385811660009081526099602090815260408083209388168352928152828220848352815282822033835290529081208054859290610e5c908490611986565b9091555061037590506001600160a01b038616878561130a565b600054610100900460ff1615808015610e965750600054600160ff909116105b80610eb05750303b158015610eb0575060005460ff166001145b610f135760405162461bcd60e51b815260206004820152602e60248201527f496e697469616c697a61626c653a20636f6e747261637420697320616c72656160448201526d191e481a5b9a5d1a585b1a5e995960921b60648201526084016104bb565b6000805460ff191660011790558015610f36576000805461ff0019166101001790555b610f3e61145b565b610f4661148a565b610f4e6114b9565b609780546001600160a01b0319166001600160a01b0384161790558015610faf576000805461ff0019169055604051600181527f7f26b83ff96e1f2b6a682f133852f6798a09c465da95921460cefb38474024989060200160405180910390a15b5050565b610fbb61118d565b6001600160a01b0381166110205760405162461bcd60e51b815260206004820152602660248201527f4f776e61626c653a206e6577206f776e657220697320746865207a65726f206160448201526564647265737360d01b60648201526084016104bb565b611029816111e7565b50565b6000826110388161106c565b50506001600160a01b0392831660009081526098602090815260408083209490951682529283528381209181529152205490565b609760009054906101000a90046001600160a01b03166001600160a01b03166358de9ade6040518163ffffffff1660e01b8152600401602060405180830381865afa1580156110bf573d6000803e3d6000fd5b505050506040513d601f19601f820116820180604052508101906110e391906118b7565b60405163aa79979b60e01b81526001600160a01b038381166004830152919091169063aa79979b90602401602060405180830381865afa15801561112b573d6000803e3d6000fd5b505050506040513d601f19601f8201168201806040525081019061114f91906119eb565b6110295760405162461bcd60e51b815260206004820152600f60248201526e423a494e56414c49445f474155474560881b60448201526064016104bb565b6033546001600160a01b031633146101d15760405162461bcd60e51b815260206004820181905260248201527f4f776e61626c653a2063616c6c6572206973206e6f7420746865206f776e657260448201526064016104bb565b603380546001600160a01b038381166001600160a01b0319831681179093556040519116919082907f8be0079c531659141344cd1fd0a4f28419497f9722a3daafe3b4186f6b6457e090600090a35050565b60026065540361128b5760405162461bcd60e51b815260206004820152601f60248201527f5265656e7472616e637947756172643a207265656e7472616e742063616c6c0060448201526064016104bb565b6002606555565b6040516001600160a01b03808516602483015283166044820152606481018290526112fd9085906323b872dd60e01b906084015b60408051601f198184030181529190526020810180516001600160e01b03166001600160e01b0319909316929092179091526114e0565b50505050565b6001606555565b6040516001600160a01b038316602482015260448101829052610c5790849063a9059cbb60e01b906064016112c6565b609760009054906101000a90046001600160a01b03166001600160a01b03166308b0308a6040518163ffffffff1660e01b8152600401602060405180830381865afa15801561138d573d6000803e3d6000fd5b505050506040513d601f19601f820116820180604052508101906113b191906118b7565b604051635e05e35d60e11b81524260048201526001600160a01b03919091169063bc0bc6ba90602401602060405180830381865afa1580156113f7573d6000803e3d6000fd5b505050506040513d601f19601f8201168201806040525081019061141b91906118d4565b8111156110295760405162461bcd60e51b815260206004820152600e60248201526d084748caaa8aaa48abe8aa09e86960931b60448201526064016104bb565b600054610100900460ff166114825760405162461bcd60e51b81526004016104bb90611a0d565b6101d16115b2565b600054610100900460ff166114b15760405162461bcd60e51b81526004016104bb90611a0d565b6101d16115e2565b600054610100900460ff166101d15760405162461bcd60e51b81526004016104bb90611a0d565b6000611535826040518060400160405280602081526020017f5361666545524332303a206c6f772d6c6576656c2063616c6c206661696c6564815250856001600160a01b03166116099092919063ffffffff16565b805190915015610c57578080602001905181019061155391906119eb565b610c575760405162461bcd60e51b815260206004820152602a60248201527f5361666545524332303a204552433230206f7065726174696f6e20646964206e6044820152691bdd081cdd58d8d9595960b21b60648201526084016104bb565b600054610100900460ff166115d95760405162461bcd60e51b81526004016104bb90611a0d565b6101d1336111e7565b600054610100900460ff166113035760405162461bcd60e51b81526004016104bb90611a0d565b60606116188484600085611620565b949350505050565b6060824710156116815760405162461bcd60e51b815260206004820152602660248201527f416464726573733a20696e73756666696369656e742062616c616e636520666f6044820152651c8818d85b1b60d21b60648201526084016104bb565b600080866001600160a01b0316858760405161169d9190611a7c565b60006040518083038185875af1925050503d80600081146116da576040519150601f19603f3d011682016040523d82523d6000602084013e6116df565b606091505b50915091506116f0878383876116fb565b979650505050505050565b6060831561176a578251600003611763576001600160a01b0385163b6117635760405162461bcd60e51b815260206004820152601d60248201527f416464726573733a2063616c6c20746f206e6f6e2d636f6e747261637400000060448201526064016104bb565b5081611618565b611618838381511561177f5781518083602001fd5b8060405162461bcd60e51b81526004016104bb9190611a98565b6001600160a01b038116811461102957600080fd5b600080600080608085870312156117c457600080fd5b84356117cf81611799565b935060208501356117df81611799565b92506040850135915060608501356117f681611799565b939692955090935050565b6000806000806080858703121561181757600080fd5b843561182281611799565b9350602085013561183281611799565b9250604085013561184281611799565b9396929550929360600135925050565b60008060006060848603121561186757600080fd5b833561187281611799565b9250602084013561188281611799565b929592945050506040919091013590565b6000602082840312156118a557600080fd5b81356118b081611799565b9392505050565b6000602082840312156118c957600080fd5b81516118b081611799565b6000602082840312156118e657600080fd5b5051919050565b634e487b7160e01b600052601160045260246000fd5b80820180821115611916576119166118ed565b92915050565b60006060828403121561192e57600080fd5b6040516060810181811067ffffffffffffffff8211171561195f57634e487b7160e01b600052604160045260246000fd5b80604052508251815260208301516020820152604083015160408201528091505092915050565b81810381811115611916576119166118ed565b8082028115828204841417611916576119166118ed565b6000826119cd57634e487b7160e01b600052601260045260246000fd5b500490565b6000600182016119e4576119e46118ed565b5060010190565b6000602082840312156119fd57600080fd5b815180151581146118b057600080fd5b6020808252602b908201527f496e697469616c697a61626c653a20636f6e7472616374206973206e6f74206960408201526a6e697469616c697a696e6760a81b606082015260800190565b60005b83811015611a73578181015183820152602001611a5b565b50506000910152565b60008251611a8e818460208701611a58565b9190910192915050565b6020815260008251806020840152611ab7816040850160208701611a58565b601f01601f1916919091016040019291505056fea2646970667358221220d6e2937b847c79127acaf9e13d5a52050d4032094d580e81ac29ca7920c843b064736f6c63430008130033",
  "linkReferences": {},
  "deployedLinkReferences": {}
}