{
  "_format": "hh-sol-artifact-1",
  "contractName": "DebtToken",
  "sourceName": "contracts/protocol/DebtToken.sol",
  "abi": [
    {
      "anonymous": false,
      "inputs": [
        {
          "indexed": true,
          "internalType": "address",
          "name": "owner",
          "type": "address"
        },
        {
          "indexed": true,
          "internalType": "address",
          "name": "approved",
          "type": "address"
        },
        {
          "indexed": true,
          "internalType": "uint256",
          "name": "tokenId",
          "type": "uint256"
        }
      ],
      "name": "Approval",
      "type": "event"
    },
    {
      "anonymous": false,
      "inputs": [
        {
          "indexed": true,
          "internalType": "address",
          "name": "owner",
          "type": "address"
        },
        {
          "indexed": true,
          "internalType": "address",
          "name": "operator",
          "type": "address"
        },
        {
          "indexed": false,
          "internalType": "bool",
          "name": "approved",
          "type": "bool"
        }
      ],
      "name": "ApprovalForAll",
      "type": "event"
    },
    {
      "anonymous": false,
      "inputs": [
        {
          "indexed": false,
          "internalType": "uint256",
          "name": "loanId",
          "type": "uint256"
        }
      ],
      "name": "Burn",
      "type": "event"
    },
    {
      "anonymous": false,
      "inputs": [
        {
          "indexed": false,
          "internalType": "uint8",
          "name": "version",
          "type": "uint8"
        }
      ],
      "name": "Initialized",
      "type": "event"
    },
    {
      "anonymous": false,
      "inputs": [
        {
          "indexed": false,
          "internalType": "address",
          "name": "to",
          "type": "address"
        },
        {
          "indexed": false,
          "internalType": "uint256",
          "name": "loanId",
          "type": "uint256"
        }
      ],
      "name": "Mint",
      "type": "event"
    },
    {
      "anonymous": false,
      "inputs": [
        {
          "indexed": true,
          "internalType": "address",
          "name": "from",
          "type": "address"
        },
        {
          "indexed": true,
          "internalType": "address",
          "name": "to",
          "type": "address"
        },
        {
          "indexed": true,
          "internalType": "uint256",
          "name": "tokenId",
          "type": "uint256"
        }
      ],
      "name": "Transfer",
      "type": "event"
    },
    {
      "inputs": [
        {
          "internalType": "address",
          "name": "to",
          "type": "address"
        },
        {
          "internalType": "uint256",
          "name": "tokenId",
          "type": "uint256"
        }
      ],
      "name": "approve",
      "outputs": [],
      "stateMutability": "nonpayable",
      "type": "function"
    },
    {
      "inputs": [
        {
          "internalType": "address",
          "name": "owner",
          "type": "address"
        }
      ],
      "name": "balanceOf",
      "outputs": [
        {
          "internalType": "uint256",
          "name": "",
          "type": "uint256"
        }
      ],
      "stateMutability": "view",
      "type": "function"
    },
    {
      "inputs": [
        {
          "internalType": "uint256",
          "name": "loanId",
          "type": "uint256"
        }
      ],
      "name": "burn",
      "outputs": [],
      "stateMutability": "nonpayable",
      "type": "function"
    },
    {
      "inputs": [
        {
          "internalType": "uint256",
          "name": "tokenId",
          "type": "uint256"
        }
      ],
      "name": "getApproved",
      "outputs": [
        {
          "internalType": "address",
          "name": "",
          "type": "address"
        }
      ],
      "stateMutability": "view",
      "type": "function"
    },
    {
      "inputs": [
        {
          "internalType": "contract IMarketAddressesProvider",
          "name": "addressesProvider",
          "type": "address"
        },
        {
          "internalType": "string",
          "name": "name",
          "type": "string"
        },
        {
          "internalType": "string",
          "name": "symbol",
          "type": "string"
        }
      ],
      "name": "initialize",
      "outputs": [],
      "stateMutability": "nonpayable",
      "type": "function"
    },
    {
      "inputs": [
        {
          "internalType": "address",
          "name": "owner",
          "type": "address"
        },
        {
          "internalType": "address",
          "name": "operator",
          "type": "address"
        }
      ],
      "name": "isApprovedForAll",
      "outputs": [
        {
          "internalType": "bool",
          "name": "",
          "type": "bool"
        }
      ],
      "stateMutability": "view",
      "type": "function"
    },
    {
      "inputs": [
        {
          "internalType": "address",
          "name": "to",
          "type": "address"
        },
        {
          "internalType": "uint256",
          "name": "loanId",
          "type": "uint256"
        }
      ],
      "name": "mint",
      "outputs": [],
      "stateMutability": "nonpayable",
      "type": "function"
    },
    {
      "inputs": [],
      "name": "name",
      "outputs": [
        {
          "internalType": "string",
          "name": "",
          "type": "string"
        }
      ],
      "stateMutability": "view",
      "type": "function"
    },
    {
      "inputs": [
        {
          "internalType": "uint256",
          "name": "tokenId",
          "type": "uint256"
        }
      ],
      "name": "ownerOf",
      "outputs": [
        {
          "internalType": "address",
          "name": "",
          "type": "address"
        }
      ],
      "stateMutability": "view",
      "type": "function"
    },
    {
      "inputs": [
        {
          "internalType": "address",
          "name": "from",
          "type": "address"
        },
        {
          "internalType": "address",
          "name": "to",
          "type": "address"
        },
        {
          "internalType": "uint256",
          "name": "tokenId",
          "type": "uint256"
        }
      ],
      "name": "safeTransferFrom",
      "outputs": [],
      "stateMutability": "nonpayable",
      "type": "function"
    },
    {
      "inputs": [
        {
          "internalType": "address",
          "name": "from",
          "type": "address"
        },
        {
          "internalType": "address",
          "name": "to",
          "type": "address"
        },
        {
          "internalType": "uint256",
          "name": "tokenId",
          "type": "uint256"
        },
        {
          "internalType": "bytes",
          "name": "_data",
          "type": "bytes"
        }
      ],
      "name": "safeTransferFrom",
      "outputs": [],
      "stateMutability": "nonpayable",
      "type": "function"
    },
    {
      "inputs": [
        {
          "internalType": "address",
          "name": "operator",
          "type": "address"
        },
        {
          "internalType": "bool",
          "name": "approved",
          "type": "bool"
        }
      ],
      "name": "setApprovalForAll",
      "outputs": [],
      "stateMutability": "nonpayable",
      "type": "function"
    },
    {
      "inputs": [
        {
          "internalType": "bytes4",
          "name": "interfaceId",
          "type": "bytes4"
        }
      ],
      "name": "supportsInterface",
      "outputs": [
        {
          "internalType": "bool",
          "name": "",
          "type": "bool"
        }
      ],
      "stateMutability": "view",
      "type": "function"
    },
    {
      "inputs": [],
      "name": "symbol",
      "outputs": [
        {
          "internalType": "string",
          "name": "",
          "type": "string"
        }
      ],
      "stateMutability": "view",
      "type": "function"
    },
    {
      "inputs": [
        {
          "internalType": "uint256",
          "name": "index",
          "type": "uint256"
        }
      ],
      "name": "tokenByIndex",
      "outputs": [
        {
          "internalType": "uint256",
          "name": "",
          "type": "uint256"
        }
      ],
      "stateMutability": "view",
      "type": "function"
    },
    {
      "inputs": [
        {
          "internalType": "address",
          "name": "owner",
          "type": "address"
        },
        {
          "internalType": "uint256",
          "name": "index",
          "type": "uint256"
        }
      ],
      "name": "tokenOfOwnerByIndex",
      "outputs": [
        {
          "internalType": "uint256",
          "name": "",
          "type": "uint256"
        }
      ],
      "stateMutability": "view",
      "type": "function"
    },
    {
      "inputs": [
        {
          "internalType": "uint256",
          "name": "tokenId",
          "type": "uint256"
        }
      ],
      "name": "tokenURI",
      "outputs": [
        {
          "internalType": "string",
          "name": "",
          "type": "string"
        }
      ],
      "stateMutability": "view",
      "type": "function"
    },
    {
      "inputs": [],
      "name": "totalSupply",
      "outputs": [
        {
          "internalType": "uint256",
          "name": "",
          "type": "uint256"
        }
      ],
      "stateMutability": "view",
      "type": "function"
    },
    {
      "inputs": [
        {
          "internalType": "address",
          "name": "from",
          "type": "address"
        },
        {
          "internalType": "address",
          "name": "to",
          "type": "address"
        },
        {
          "internalType": "uint256",
          "name": "tokenId",
          "type": "uint256"
        }
      ],
      "name": "transferFrom",
      "outputs": [],
      "stateMutability": "nonpayable",
      "type": "function"
    }
  ],
  "bytecode": "0x608060405234801561001057600080fd5b50613bdf806100206000396000f3fe608060405234801561001057600080fd5b50600436106101215760003560e01c806342966c68116100ad57806395d89b411161007157806395d89b411461032a578063a22cb46514610348578063b88d4fde14610364578063c87b56dd14610380578063e985e9c5146103b057610121565b806342966c68146102625780634f6ccce71461027e5780636352211e146102ae57806370a08231146102de578063906571471461030e57610121565b806318160ddd116100f457806318160ddd146101c057806323b872dd146101de5780632f745c59146101fa57806340c10f191461022a57806342842e0e1461024657610121565b806301ffc9a71461012657806306fdde0314610156578063081812fc14610174578063095ea7b3146101a4575b600080fd5b610140600480360381019061013b91906123cb565b6103e0565b60405161014d9190612413565b60405180910390f35b61015e6103f2565b60405161016b91906124c7565b60405180910390f35b61018e6004803603810190610189919061251f565b610484565b60405161019b919061258d565b60405180910390f35b6101be60048036038101906101b991906125d4565b610509565b005b6101c8610620565b6040516101d59190612623565b60405180910390f35b6101f860048036038101906101f3919061263e565b61062d565b005b610214600480360381019061020f91906125d4565b61068d565b6040516102219190612623565b60405180910390f35b610244600480360381019061023f91906125d4565b610732565b005b610260600480360381019061025b919061263e565b61087e565b005b61027c6004803603810190610277919061251f565b61089e565b005b6102986004803603810190610293919061251f565b6109e6565b6040516102a59190612623565b60405180910390f35b6102c860048036038101906102c3919061251f565b610a57565b6040516102d5919061258d565b60405180910390f35b6102f860048036038101906102f39190612691565b610b08565b6040516103059190612623565b60405180910390f35b61032860048036038101906103239190612831565b610bbf565b005b610332610c99565b60405161033f91906124c7565b60405180910390f35b610362600480360381019061035d91906128e8565b610d2b565b005b61037e600480360381019061037991906129c9565b610d41565b005b61039a6004803603810190610395919061251f565b610da3565b6040516103a791906124c7565b60405180910390f35b6103ca60048036038101906103c59190612a4c565b610e4a565b6040516103d79190612413565b60405180910390f35b60006103eb82610ede565b9050919050565b60606065805461040190612abb565b80601f016020809104026020016040519081016040528092919081815260200182805461042d90612abb565b801561047a5780601f1061044f5761010080835404028352916020019161047a565b820191906000526020600020905b81548152906001019060200180831161045d57829003601f168201915b5050505050905090565b600061048f82610f58565b6104ce576040517f08c379a00000000000000000000000000000000000000000000000000000000081526004016104c590612b5e565b60405180910390fd5b6069600083815260200190815260200160002060009054906101000a900473ffffffffffffffffffffffffffffffffffffffff169050919050565b600061051482610a57565b90508073ffffffffffffffffffffffffffffffffffffffff168373ffffffffffffffffffffffffffffffffffffffff1603610584576040517f08c379a000000000000000000000000000000000000000000000000000000000815260040161057b90612bf0565b60405180910390fd5b8073ffffffffffffffffffffffffffffffffffffffff166105a3610fc4565b73ffffffffffffffffffffffffffffffffffffffff1614806105d257506105d1816105cc610fc4565b610e4a565b5b610611576040517f08c379a000000000000000000000000000000000000000000000000000000000815260040161060890612c82565b60405180910390fd5b61061b8383610fcc565b505050565b6000609980549050905090565b61063e610638610fc4565b82611085565b61067d576040517f08c379a000000000000000000000000000000000000000000000000000000000815260040161067490612d14565b60405180910390fd5b610688838383611163565b505050565b600061069883610b08565b82106106d9576040517f08c379a00000000000000000000000000000000000000000000000000000000081526004016106d090612da6565b60405180910390fd5b609760008473ffffffffffffffffffffffffffffffffffffffff1673ffffffffffffffffffffffffffffffffffffffff168152602001908152602001600020600083815260200190815260200160002054905092915050565b60c960009054906101000a900473ffffffffffffffffffffffffffffffffffffffff1673ffffffffffffffffffffffffffffffffffffffff1663e7334fe56040518163ffffffff1660e01b8152600401602060405180830381865afa15801561079f573d6000803e3d6000fd5b505050506040513d601f19601f820116820180604052508101906107c39190612ddb565b73ffffffffffffffffffffffffffffffffffffffff166107e1610fc4565b73ffffffffffffffffffffffffffffffffffffffff1614610837576040517f08c379a000000000000000000000000000000000000000000000000000000000815260040161082e90612e54565b60405180910390fd5b61084182826113c9565b7f0f6798a560793a54c3bcfe86a93cde1e73087d944c0ea20544137d41213968858282604051610872929190612e74565b60405180910390a15050565b61089983838360405180602001604052806000815250610d41565b505050565b60c960009054906101000a900473ffffffffffffffffffffffffffffffffffffffff1673ffffffffffffffffffffffffffffffffffffffff1663e7334fe56040518163ffffffff1660e01b8152600401602060405180830381865afa15801561090b573d6000803e3d6000fd5b505050506040513d601f19601f8201168201806040525081019061092f9190612ddb565b73ffffffffffffffffffffffffffffffffffffffff1661094d610fc4565b73ffffffffffffffffffffffffffffffffffffffff16146109a3576040517f08c379a000000000000000000000000000000000000000000000000000000000815260040161099a90612e54565b60405180910390fd5b6109ac816113e7565b7fb90306ad06b2a6ff86ddc9327db583062895ef6540e62dc50add009db5b356eb816040516109db9190612623565b60405180910390a150565b60006109f0610620565b8210610a31576040517f08c379a0000000000000000000000000000000000000000000000000000000008152600401610a2890612f0f565b60405180910390fd5b60998281548110610a4557610a44612f2f565b5b90600052602060002001549050919050565b6000806067600084815260200190815260200160002060009054906101000a900473ffffffffffffffffffffffffffffffffffffffff169050600073ffffffffffffffffffffffffffffffffffffffff168173ffffffffffffffffffffffffffffffffffffffff1603610aff576040517f08c379a0000000000000000000000000000000000000000000000000000000008152600401610af690612fd0565b60405180910390fd5b80915050919050565b60008073ffffffffffffffffffffffffffffffffffffffff168273ffffffffffffffffffffffffffffffffffffffff1603610b78576040517f08c379a0000000000000000000000000000000000000000000000000000000008152600401610b6f90613062565b60405180910390fd5b606860008373ffffffffffffffffffffffffffffffffffffffff1673ffffffffffffffffffffffffffffffffffffffff168152602001908152602001600020549050919050565b6000610bcb6001611504565b90508015610bef576001600060016101000a81548160ff0219169083151502179055505b610bf983836115f4565b8360c960006101000a81548173ffffffffffffffffffffffffffffffffffffffff021916908373ffffffffffffffffffffffffffffffffffffffff1602179055508015610c935760008060016101000a81548160ff0219169083151502179055507f7f26b83ff96e1f2b6a682f133852f6798a09c465da95921460cefb38474024986001604051610c8a91906130d4565b60405180910390a15b50505050565b606060668054610ca890612abb565b80601f0160208091040260200160405190810160405280929190818152602001828054610cd490612abb565b8015610d215780601f10610cf657610100808354040283529160200191610d21565b820191906000526020600020905b815481529060010190602001808311610d0457829003601f168201915b5050505050905090565b610d3d610d36610fc4565b8383611651565b5050565b610d52610d4c610fc4565b83611085565b610d91576040517f08c379a0000000000000000000000000000000000000000000000000000000008152600401610d8890612d14565b60405180910390fd5b610d9d848484846117bd565b50505050565b6060610dae82610f58565b610ded576040517f08c379a0000000000000000000000000000000000000000000000000000000008152600401610de490613161565b60405180910390fd5b6000610df7611819565b90506000815111610e175760405180602001604052806000815250610e42565b80610e2184611830565b604051602001610e329291906131bd565b6040516020818303038152906040525b915050919050565b6000606a60008473ffffffffffffffffffffffffffffffffffffffff1673ffffffffffffffffffffffffffffffffffffffff16815260200190815260200160002060008373ffffffffffffffffffffffffffffffffffffffff1673ffffffffffffffffffffffffffffffffffffffff16815260200190815260200160002060009054906101000a900460ff16905092915050565b60007f780e9d63000000000000000000000000000000000000000000000000000000007bffffffffffffffffffffffffffffffffffffffffffffffffffffffff1916827bffffffffffffffffffffffffffffffffffffffffffffffffffffffff19161480610f515750610f5082611990565b5b9050919050565b60008073ffffffffffffffffffffffffffffffffffffffff166067600084815260200190815260200160002060009054906101000a900473ffffffffffffffffffffffffffffffffffffffff1673ffffffffffffffffffffffffffffffffffffffff1614159050919050565b600033905090565b816069600083815260200190815260200160002060006101000a81548173ffffffffffffffffffffffffffffffffffffffff021916908373ffffffffffffffffffffffffffffffffffffffff160217905550808273ffffffffffffffffffffffffffffffffffffffff1661103f83610a57565b73ffffffffffffffffffffffffffffffffffffffff167f8c5be1e5ebec7d5bd14f71427d1e84f3dd0314c0f7b2291e5b200ac8c7c3b92560405160405180910390a45050565b600061109082610f58565b6110cf576040517f08c379a00000000000000000000000000000000000000000000000000000000081526004016110c690613253565b60405180910390fd5b60006110da83610a57565b90508073ffffffffffffffffffffffffffffffffffffffff168473ffffffffffffffffffffffffffffffffffffffff16148061111c575061111b8185610e4a565b5b8061115a57508373ffffffffffffffffffffffffffffffffffffffff1661114284610484565b73ffffffffffffffffffffffffffffffffffffffff16145b91505092915050565b8273ffffffffffffffffffffffffffffffffffffffff1661118382610a57565b73ffffffffffffffffffffffffffffffffffffffff16146111d9576040517f08c379a00000000000000000000000000000000000000000000000000000000081526004016111d0906132e5565b60405180910390fd5b600073ffffffffffffffffffffffffffffffffffffffff168273ffffffffffffffffffffffffffffffffffffffff1603611248576040517f08c379a000000000000000000000000000000000000000000000000000000000815260040161123f90613377565b60405180910390fd5b611253838383611a72565b61125e600082610fcc565b6001606860008573ffffffffffffffffffffffffffffffffffffffff1673ffffffffffffffffffffffffffffffffffffffff16815260200190815260200160002060008282546112ae91906133c6565b925050819055506001606860008473ffffffffffffffffffffffffffffffffffffffff1673ffffffffffffffffffffffffffffffffffffffff168152602001908152602001600020600082825461130591906133fa565b92505081905550816067600083815260200190815260200160002060006101000a81548173ffffffffffffffffffffffffffffffffffffffff021916908373ffffffffffffffffffffffffffffffffffffffff160217905550808273ffffffffffffffffffffffffffffffffffffffff168473ffffffffffffffffffffffffffffffffffffffff167fddf252ad1be2c89b69c2b068fc378daa952ba7f163c4a11628f55a4df523b3ef60405160405180910390a46113c4838383611a82565b505050565b6113e3828260405180602001604052806000815250611a87565b5050565b60006113f282610a57565b905061140081600084611a72565b61140b600083610fcc565b6001606860008373ffffffffffffffffffffffffffffffffffffffff1673ffffffffffffffffffffffffffffffffffffffff168152602001908152602001600020600082825461145b91906133c6565b925050819055506067600083815260200190815260200160002060006101000a81549073ffffffffffffffffffffffffffffffffffffffff021916905581600073ffffffffffffffffffffffffffffffffffffffff168273ffffffffffffffffffffffffffffffffffffffff167fddf252ad1be2c89b69c2b068fc378daa952ba7f163c4a11628f55a4df523b3ef60405160405180910390a461150081600084611a82565b5050565b60008060019054906101000a900460ff161561157b5760018260ff16148015611533575061153130611ae2565b155b611572576040517f08c379a0000000000000000000000000000000000000000000000000000000008152600401611569906134c2565b60405180910390fd5b600090506115ef565b8160ff1660008054906101000a900460ff1660ff16106115d0576040517f08c379a00000000000000000000000000000000000000000000000000000000081526004016115c7906134c2565b60405180910390fd5b816000806101000a81548160ff021916908360ff160217905550600190505b919050565b600060019054906101000a900460ff16611643576040517f08c379a000000000000000000000000000000000000000000000000000000000815260040161163a90613554565b60405180910390fd5b61164d8282611b05565b5050565b8173ffffffffffffffffffffffffffffffffffffffff168373ffffffffffffffffffffffffffffffffffffffff16036116bf576040517f08c379a00000000000000000000000000000000000000000000000000000000081526004016116b6906135c0565b60405180910390fd5b80606a60008573ffffffffffffffffffffffffffffffffffffffff1673ffffffffffffffffffffffffffffffffffffffff16815260200190815260200160002060008473ffffffffffffffffffffffffffffffffffffffff1673ffffffffffffffffffffffffffffffffffffffff16815260200190815260200160002060006101000a81548160ff0219169083151502179055508173ffffffffffffffffffffffffffffffffffffffff168373ffffffffffffffffffffffffffffffffffffffff167f17307eab39ab6107e8899845ad3d59bd9653f200f220920489ca2b5937696c31836040516117b09190612413565b60405180910390a3505050565b6117c8848484611163565b6117d484848484611b78565b611813576040517f08c379a000000000000000000000000000000000000000000000000000000000815260040161180a90613652565b60405180910390fd5b50505050565b606060405180602001604052806000815250905090565b606060008203611877576040518060400160405280600181526020017f3000000000000000000000000000000000000000000000000000000000000000815250905061198b565b600082905060005b600082146118a957808061189290613672565b915050600a826118a291906136e9565b915061187f565b60008167ffffffffffffffff8111156118c5576118c4612706565b5b6040519080825280601f01601f1916602001820160405280156118f75781602001600182028036833780820191505090505b5090505b600085146119845760018261191091906133c6565b9150600a8561191f919061371a565b603061192b91906133fa565b60f81b81838151811061194157611940612f2f565b5b60200101907effffffffffffffffffffffffffffffffffffffffffffffffffffffffffffff1916908160001a905350600a8561197d91906136e9565b94506118fb565b8093505050505b919050565b60007f80ac58cd000000000000000000000000000000000000000000000000000000007bffffffffffffffffffffffffffffffffffffffffffffffffffffffff1916827bffffffffffffffffffffffffffffffffffffffffffffffffffffffff19161480611a5b57507f5b5e139f000000000000000000000000000000000000000000000000000000007bffffffffffffffffffffffffffffffffffffffffffffffffffffffff1916827bffffffffffffffffffffffffffffffffffffffffffffffffffffffff1916145b80611a6b5750611a6a82611cff565b5b9050919050565b611a7d838383611d69565b505050565b505050565b611a918383611e7b565b611a9e6000848484611b78565b611add576040517f08c379a0000000000000000000000000000000000000000000000000000000008152600401611ad490613652565b60405180910390fd5b505050565b6000808273ffffffffffffffffffffffffffffffffffffffff163b119050919050565b600060019054906101000a900460ff16611b54576040517f08c379a0000000000000000000000000000000000000000000000000000000008152600401611b4b90613554565b60405180910390fd5b8160659081611b6391906138ed565b508060669081611b7391906138ed565b505050565b6000611b998473ffffffffffffffffffffffffffffffffffffffff16611ae2565b15611cf2578373ffffffffffffffffffffffffffffffffffffffff1663150b7a02611bc2610fc4565b8786866040518563ffffffff1660e01b8152600401611be49493929190613a14565b6020604051808303816000875af1925050508015611c2057506040513d601f19601f82011682018060405250810190611c1d9190613a75565b60015b611ca2573d8060008114611c50576040519150601f19603f3d011682016040523d82523d6000602084013e611c55565b606091505b506000815103611c9a576040517f08c379a0000000000000000000000000000000000000000000000000000000008152600401611c9190613652565b60405180910390fd5b805181602001fd5b63150b7a0260e01b7bffffffffffffffffffffffffffffffffffffffffffffffffffffffff1916817bffffffffffffffffffffffffffffffffffffffffffffffffffffffff191614915050611cf7565b600190505b949350505050565b60007f01ffc9a7000000000000000000000000000000000000000000000000000000007bffffffffffffffffffffffffffffffffffffffffffffffffffffffff1916827bffffffffffffffffffffffffffffffffffffffffffffffffffffffff1916149050919050565b611d74838383612054565b600073ffffffffffffffffffffffffffffffffffffffff168373ffffffffffffffffffffffffffffffffffffffff1603611db657611db181612059565b611df5565b8173ffffffffffffffffffffffffffffffffffffffff168373ffffffffffffffffffffffffffffffffffffffff1614611df457611df383826120a2565b5b5b600073ffffffffffffffffffffffffffffffffffffffff168273ffffffffffffffffffffffffffffffffffffffff1603611e3757611e328161220f565b611e76565b8273ffffffffffffffffffffffffffffffffffffffff168273ffffffffffffffffffffffffffffffffffffffff1614611e7557611e7482826122e0565b5b5b505050565b600073ffffffffffffffffffffffffffffffffffffffff168273ffffffffffffffffffffffffffffffffffffffff1603611eea576040517f08c379a0000000000000000000000000000000000000000000000000000000008152600401611ee190613aee565b60405180910390fd5b611ef381610f58565b15611f33576040517f08c379a0000000000000000000000000000000000000000000000000000000008152600401611f2a90613b5a565b60405180910390fd5b611f3f60008383611a72565b6001606860008473ffffffffffffffffffffffffffffffffffffffff1673ffffffffffffffffffffffffffffffffffffffff1681526020019081526020016000206000828254611f8f91906133fa565b92505081905550816067600083815260200190815260200160002060006101000a81548173ffffffffffffffffffffffffffffffffffffffff021916908373ffffffffffffffffffffffffffffffffffffffff160217905550808273ffffffffffffffffffffffffffffffffffffffff16600073ffffffffffffffffffffffffffffffffffffffff167fddf252ad1be2c89b69c2b068fc378daa952ba7f163c4a11628f55a4df523b3ef60405160405180910390a461205060008383611a82565b5050565b505050565b609980549050609a600083815260200190815260200160002081905550609981908060018154018082558091505060019003906000526020600020016000909190919091505550565b600060016120af84610b08565b6120b991906133c6565b905060006098600084815260200190815260200160002054905081811461219e576000609760008673ffffffffffffffffffffffffffffffffffffffff1673ffffffffffffffffffffffffffffffffffffffff168152602001908152602001600020600084815260200190815260200160002054905080609760008773ffffffffffffffffffffffffffffffffffffffff1673ffffffffffffffffffffffffffffffffffffffff168152602001908152602001600020600084815260200190815260200160002081905550816098600083815260200190815260200160002081905550505b6098600084815260200190815260200160002060009055609760008573ffffffffffffffffffffffffffffffffffffffff1673ffffffffffffffffffffffffffffffffffffffff16815260200190815260200160002060008381526020019081526020016000206000905550505050565b6000600160998054905061222391906133c6565b90506000609a600084815260200190815260200160002054905060006099838154811061225357612252612f2f565b5b90600052602060002001549050806099838154811061227557612274612f2f565b5b906000526020600020018190555081609a600083815260200190815260200160002081905550609a60008581526020019081526020016000206000905560998054806122c4576122c3613b7a565b5b6001900381819060005260206000200160009055905550505050565b60006122eb83610b08565b905081609760008573ffffffffffffffffffffffffffffffffffffffff1673ffffffffffffffffffffffffffffffffffffffff168152602001908152602001600020600083815260200190815260200160002081905550806098600084815260200190815260200160002081905550505050565b6000604051905090565b600080fd5b600080fd5b60007fffffffff0000000000000000000000000000000000000000000000000000000082169050919050565b6123a881612373565b81146123b357600080fd5b50565b6000813590506123c58161239f565b92915050565b6000602082840312156123e1576123e0612369565b5b60006123ef848285016123b6565b91505092915050565b60008115159050919050565b61240d816123f8565b82525050565b60006020820190506124286000830184612404565b92915050565b600081519050919050565b600082825260208201905092915050565b60005b8381101561246857808201518184015260208101905061244d565b83811115612477576000848401525b50505050565b6000601f19601f8301169050919050565b60006124998261242e565b6124a38185612439565b93506124b381856020860161244a565b6124bc8161247d565b840191505092915050565b600060208201905081810360008301526124e1818461248e565b905092915050565b6000819050919050565b6124fc816124e9565b811461250757600080fd5b50565b600081359050612519816124f3565b92915050565b60006020828403121561253557612534612369565b5b60006125438482850161250a565b91505092915050565b600073ffffffffffffffffffffffffffffffffffffffff82169050919050565b60006125778261254c565b9050919050565b6125878161256c565b82525050565b60006020820190506125a2600083018461257e565b92915050565b6125b18161256c565b81146125bc57600080fd5b50565b6000813590506125ce816125a8565b92915050565b600080604083850312156125eb576125ea612369565b5b60006125f9858286016125bf565b925050602061260a8582860161250a565b9150509250929050565b61261d816124e9565b82525050565b60006020820190506126386000830184612614565b92915050565b60008060006060848603121561265757612656612369565b5b6000612665868287016125bf565b9350506020612676868287016125bf565b92505060406126878682870161250a565b9150509250925092565b6000602082840312156126a7576126a6612369565b5b60006126b5848285016125bf565b91505092915050565b60006126c98261256c565b9050919050565b6126d9816126be565b81146126e457600080fd5b50565b6000813590506126f6816126d0565b92915050565b600080fd5b600080fd5b7f4e487b7100000000000000000000000000000000000000000000000000000000600052604160045260246000fd5b61273e8261247d565b810181811067ffffffffffffffff8211171561275d5761275c612706565b5b80604052505050565b600061277061235f565b905061277c8282612735565b919050565b600067ffffffffffffffff82111561279c5761279b612706565b5b6127a58261247d565b9050602081019050919050565b82818337600083830152505050565b60006127d46127cf84612781565b612766565b9050828152602081018484840111156127f0576127ef612701565b5b6127fb8482856127b2565b509392505050565b600082601f830112612818576128176126fc565b5b81356128288482602086016127c1565b91505092915050565b60008060006060848603121561284a57612849612369565b5b6000612858868287016126e7565b935050602084013567ffffffffffffffff8111156128795761287861236e565b5b61288586828701612803565b925050604084013567ffffffffffffffff8111156128a6576128a561236e565b5b6128b286828701612803565b9150509250925092565b6128c5816123f8565b81146128d057600080fd5b50565b6000813590506128e2816128bc565b92915050565b600080604083850312156128ff576128fe612369565b5b600061290d858286016125bf565b925050602061291e858286016128d3565b9150509250929050565b600067ffffffffffffffff82111561294357612942612706565b5b61294c8261247d565b9050602081019050919050565b600061296c61296784612928565b612766565b90508281526020810184848401111561298857612987612701565b5b6129938482856127b2565b509392505050565b600082601f8301126129b0576129af6126fc565b5b81356129c0848260208601612959565b91505092915050565b600080600080608085870312156129e3576129e2612369565b5b60006129f1878288016125bf565b9450506020612a02878288016125bf565b9350506040612a138782880161250a565b925050606085013567ffffffffffffffff811115612a3457612a3361236e565b5b612a408782880161299b565b91505092959194509250565b60008060408385031215612a6357612a62612369565b5b6000612a71858286016125bf565b9250506020612a82858286016125bf565b9150509250929050565b7f4e487b7100000000000000000000000000000000000000000000000000000000600052602260045260246000fd5b60006002820490506001821680612ad357607f821691505b602082108103612ae657612ae5612a8c565b5b50919050565b7f4552433732313a20617070726f76656420717565727920666f72206e6f6e657860008201527f697374656e7420746f6b656e0000000000000000000000000000000000000000602082015250565b6000612b48602c83612439565b9150612b5382612aec565b604082019050919050565b60006020820190508181036000830152612b7781612b3b565b9050919050565b7f4552433732313a20617070726f76616c20746f2063757272656e74206f776e6560008201527f7200000000000000000000000000000000000000000000000000000000000000602082015250565b6000612bda602183612439565b9150612be582612b7e565b604082019050919050565b60006020820190508181036000830152612c0981612bcd565b9050919050565b7f4552433732313a20617070726f76652063616c6c6572206973206e6f74206f7760008201527f6e6572206e6f7220617070726f76656420666f7220616c6c0000000000000000602082015250565b6000612c6c603883612439565b9150612c7782612c10565b604082019050919050565b60006020820190508181036000830152612c9b81612c5f565b9050919050565b7f4552433732313a207472616e736665722063616c6c6572206973206e6f74206f60008201527f776e6572206e6f7220617070726f766564000000000000000000000000000000602082015250565b6000612cfe603183612439565b9150612d0982612ca2565b604082019050919050565b60006020820190508181036000830152612d2d81612cf1565b9050919050565b7f455243373231456e756d657261626c653a206f776e657220696e646578206f7560008201527f74206f6620626f756e6473000000000000000000000000000000000000000000602082015250565b6000612d90602b83612439565b9150612d9b82612d34565b604082019050919050565b60006020820190508181036000830152612dbf81612d83565b9050919050565b600081519050612dd5816125a8565b92915050565b600060208284031215612df157612df0612369565b5b6000612dff84828501612dc6565b91505092915050565b7f43616c6c6572206d757374206265204d61726b657420636f6e74726163740000600082015250565b6000612e3e601e83612439565b9150612e4982612e08565b602082019050919050565b60006020820190508181036000830152612e6d81612e31565b9050919050565b6000604082019050612e89600083018561257e565b612e966020830184612614565b9392505050565b7f455243373231456e756d657261626c653a20676c6f62616c20696e646578206f60008201527f7574206f6620626f756e64730000000000000000000000000000000000000000602082015250565b6000612ef9602c83612439565b9150612f0482612e9d565b604082019050919050565b60006020820190508181036000830152612f2881612eec565b9050919050565b7f4e487b7100000000000000000000000000000000000000000000000000000000600052603260045260246000fd5b7f4552433732313a206f776e657220717565727920666f72206e6f6e657869737460008201527f656e7420746f6b656e0000000000000000000000000000000000000000000000602082015250565b6000612fba602983612439565b9150612fc582612f5e565b604082019050919050565b60006020820190508181036000830152612fe981612fad565b9050919050565b7f4552433732313a2062616c616e636520717565727920666f7220746865207a6560008201527f726f206164647265737300000000000000000000000000000000000000000000602082015250565b600061304c602a83612439565b915061305782612ff0565b604082019050919050565b6000602082019050818103600083015261307b8161303f565b9050919050565b6000819050919050565b600060ff82169050919050565b6000819050919050565b60006130be6130b96130b484613082565b613099565b61308c565b9050919050565b6130ce816130a3565b82525050565b60006020820190506130e960008301846130c5565b92915050565b7f4552433732314d657461646174613a2055524920717565727920666f72206e6f60008201527f6e6578697374656e7420746f6b656e0000000000000000000000000000000000602082015250565b600061314b602f83612439565b9150613156826130ef565b604082019050919050565b6000602082019050818103600083015261317a8161313e565b9050919050565b600081905092915050565b60006131978261242e565b6131a18185613181565b93506131b181856020860161244a565b80840191505092915050565b60006131c9828561318c565b91506131d5828461318c565b91508190509392505050565b7f4552433732313a206f70657261746f7220717565727920666f72206e6f6e657860008201527f697374656e7420746f6b656e0000000000000000000000000000000000000000602082015250565b600061323d602c83612439565b9150613248826131e1565b604082019050919050565b6000602082019050818103600083015261326c81613230565b9050919050565b7f4552433732313a207472616e736665722066726f6d20696e636f72726563742060008201527f6f776e6572000000000000000000000000000000000000000000000000000000602082015250565b60006132cf602583612439565b91506132da82613273565b604082019050919050565b600060208201905081810360008301526132fe816132c2565b9050919050565b7f4552433732313a207472616e7366657220746f20746865207a65726f2061646460008201527f7265737300000000000000000000000000000000000000000000000000000000602082015250565b6000613361602483612439565b915061336c82613305565b604082019050919050565b6000602082019050818103600083015261339081613354565b9050919050565b7f4e487b7100000000000000000000000000000000000000000000000000000000600052601160045260246000fd5b60006133d1826124e9565b91506133dc836124e9565b9250828210156133ef576133ee613397565b5b828203905092915050565b6000613405826124e9565b9150613410836124e9565b9250827fffffffffffffffffffffffffffffffffffffffffffffffffffffffffffffffff0382111561344557613444613397565b5b828201905092915050565b7f496e697469616c697a61626c653a20636f6e747261637420697320616c72656160008201527f647920696e697469616c697a6564000000000000000000000000000000000000602082015250565b60006134ac602e83612439565b91506134b782613450565b604082019050919050565b600060208201905081810360008301526134db8161349f565b9050919050565b7f496e697469616c697a61626c653a20636f6e7472616374206973206e6f74206960008201527f6e697469616c697a696e67000000000000000000000000000000000000000000602082015250565b600061353e602b83612439565b9150613549826134e2565b604082019050919050565b6000602082019050818103600083015261356d81613531565b9050919050565b7f4552433732313a20617070726f766520746f2063616c6c657200000000000000600082015250565b60006135aa601983612439565b91506135b582613574565b602082019050919050565b600060208201905081810360008301526135d98161359d565b9050919050565b7f4552433732313a207472616e7366657220746f206e6f6e20455243373231526560008201527f63656976657220696d706c656d656e7465720000000000000000000000000000602082015250565b600061363c603283612439565b9150613647826135e0565b604082019050919050565b6000602082019050818103600083015261366b8161362f565b9050919050565b600061367d826124e9565b91507fffffffffffffffffffffffffffffffffffffffffffffffffffffffffffffffff82036136af576136ae613397565b5b600182019050919050565b7f4e487b7100000000000000000000000000000000000000000000000000000000600052601260045260246000fd5b60006136f4826124e9565b91506136ff836124e9565b92508261370f5761370e6136ba565b5b828204905092915050565b6000613725826124e9565b9150613730836124e9565b9250826137405761373f6136ba565b5b828206905092915050565b60008190508160005260206000209050919050565b60006020601f8301049050919050565b600082821b905092915050565b6000600883026137ad7fffffffffffffffffffffffffffffffffffffffffffffffffffffffffffffffff82613770565b6137b78683613770565b95508019841693508086168417925050509392505050565b60006137ea6137e56137e0846124e9565b613099565b6124e9565b9050919050565b6000819050919050565b613804836137cf565b613818613810826137f1565b84845461377d565b825550505050565b600090565b61382d613820565b6138388184846137fb565b505050565b5b8181101561385c57613851600082613825565b60018101905061383e565b5050565b601f8211156138a1576138728161374b565b61387b84613760565b8101602085101561388a578190505b61389e61389685613760565b83018261383d565b50505b505050565b600082821c905092915050565b60006138c4600019846008026138a6565b1980831691505092915050565b60006138dd83836138b3565b9150826002028217905092915050565b6138f68261242e565b67ffffffffffffffff81111561390f5761390e612706565b5b6139198254612abb565b613924828285613860565b600060209050601f8311600181146139575760008415613945578287015190505b61394f85826138d1565b8655506139b7565b601f1984166139658661374b565b60005b8281101561398d57848901518255600182019150602085019450602081019050613968565b868310156139aa57848901516139a6601f8916826138b3565b8355505b6001600288020188555050505b505050505050565b600081519050919050565b600082825260208201905092915050565b60006139e6826139bf565b6139f081856139ca565b9350613a0081856020860161244a565b613a098161247d565b840191505092915050565b6000608082019050613a29600083018761257e565b613a36602083018661257e565b613a436040830185612614565b8181036060830152613a5581846139db565b905095945050505050565b600081519050613a6f8161239f565b92915050565b600060208284031215613a8b57613a8a612369565b5b6000613a9984828501613a60565b91505092915050565b7f4552433732313a206d696e7420746f20746865207a65726f2061646472657373600082015250565b6000613ad8602083612439565b9150613ae382613aa2565b602082019050919050565b60006020820190508181036000830152613b0781613acb565b9050919050565b7f4552433732313a20746f6b656e20616c7265616479206d696e74656400000000600082015250565b6000613b44601c83612439565b9150613b4f82613b0e565b602082019050919050565b60006020820190508181036000830152613b7381613b37565b9050919050565b7f4e487b7100000000000000000000000000000000000000000000000000000000600052603160045260246000fdfea2646970667358221220237af15bc16f5e6538d855861e64708272434382dd8ead40003ff023a3bf6ce964736f6c634300080f0033",
  "linkReferences": {},
  "deployedLinkReferences": {}
}