{
  "_format": "hh-sol-artifact-1",
  "contractName": "FeeDistributor",
  "sourceName": "contracts/protocol/FeeDistributor.sol",
  "abi": [
    {
      "inputs": [],
      "stateMutability": "nonpayable",
      "type": "constructor"
    },
    {
      "anonymous": false,
      "inputs": [
        {
          "indexed": false,
          "internalType": "uint8",
          "name": "version",
          "type": "uint8"
        }
      ],
      "name": "Initialized",
      "type": "event"
    },
    {
      "anonymous": false,
      "inputs": [
        {
          "indexed": true,
          "internalType": "address",
          "name": "previousOwner",
          "type": "address"
        },
        {
          "indexed": true,
          "internalType": "address",
          "name": "newOwner",
          "type": "address"
        }
      ],
      "name": "OwnershipTransferred",
      "type": "event"
    },
    {
      "inputs": [
        {
          "internalType": "address",
          "name": "token",
          "type": "address"
        }
      ],
      "name": "checkpoint",
      "outputs": [],
      "stateMutability": "nonpayable",
      "type": "function"
    },
    {
      "inputs": [
        {
          "internalType": "address",
          "name": "token",
          "type": "address"
        },
        {
          "internalType": "uint256",
          "name": "tokenId",
          "type": "uint256"
        }
      ],
      "name": "claim",
      "outputs": [
        {
          "internalType": "uint256",
          "name": "",
          "type": "uint256"
        }
      ],
      "stateMutability": "nonpayable",
      "type": "function"
    },
    {
      "inputs": [
        {
          "internalType": "contract IAddressesProvider",
          "name": "addressProvider",
          "type": "address"
        }
      ],
      "name": "initialize",
      "outputs": [],
      "stateMutability": "nonpayable",
      "type": "function"
    },
    {
      "inputs": [
        {
          "internalType": "address",
          "name": "token",
          "type": "address"
        },
        {
          "internalType": "uint256",
          "name": "tokenId",
          "type": "uint256"
        }
      ],
      "name": "lockNextClaimableEpoch",
      "outputs": [
        {
          "internalType": "uint256",
          "name": "",
          "type": "uint256"
        }
      ],
      "stateMutability": "view",
      "type": "function"
    },
    {
      "inputs": [],
      "name": "owner",
      "outputs": [
        {
          "internalType": "address",
          "name": "",
          "type": "address"
        }
      ],
      "stateMutability": "view",
      "type": "function"
    },
    {
      "inputs": [],
      "name": "renounceOwnership",
      "outputs": [],
      "stateMutability": "nonpayable",
      "type": "function"
    },
    {
      "inputs": [
        {
          "internalType": "address",
          "name": "token",
          "type": "address"
        },
        {
          "internalType": "uint256",
          "name": "epoch",
          "type": "uint256"
        }
      ],
      "name": "salvageRewards",
      "outputs": [],
      "stateMutability": "nonpayable",
      "type": "function"
    },
    {
      "inputs": [
        {
          "internalType": "address",
          "name": "token",
          "type": "address"
        },
        {
          "internalType": "uint256",
          "name": "epoch",
          "type": "uint256"
        }
      ],
      "name": "totalFeesAt",
      "outputs": [
        {
          "internalType": "uint256",
          "name": "",
          "type": "uint256"
        }
      ],
      "stateMutability": "view",
      "type": "function"
    },
    {
      "inputs": [
        {
          "internalType": "address",
          "name": "newOwner",
          "type": "address"
        }
      ],
      "name": "transferOwnership",
      "outputs": [],
      "stateMutability": "nonpayable",
      "type": "function"
    }
  ],
  "bytecode": "0x608080604052346100c1576000549060ff8260081c1661006f575060ff80821610610034575b60405161174790816100c78239f35b60ff90811916176000557f7f26b83ff96e1f2b6a682f133852f6798a09c465da95921460cefb3847402498602060405160ff8152a138610025565b62461bcd60e51b815260206004820152602760248201527f496e697469616c697a61626c653a20636f6e747261637420697320696e697469604482015266616c697a696e6760c81b6064820152608490fd5b600080fdfe6080604052600436101561001257600080fd5b6000803560e01c9081635c774aef146100aa57508063715018a6146100a55780638da5cb5b146100a05780639009f08c1461009b578063a972985e14610096578063aad3ec9614610091578063c4d66de81461008c578063e73a0707146100875763f2fde38b1461008257600080fd5b6106de565b6106a3565b6105b6565b61053a565b6103a6565b61019e565b610175565b610117565b346100df576040906100bb366100f8565b9060018060a01b031682526099602052828220908252602052205460805260206080f35b80fd5b6001600160a01b038116036100f357565b600080fd5b60409060031901126100f357600435610110816100e2565b9060243590565b346100f3576000806003193601126100df57610131610771565b603380546001600160a01b0319811690915581906001600160a01b03167f8be0079c531659141344cd1fd0a4f28419497f9722a3daafe3b4186f6b6457e08280a380f35b346100f35760003660031901126100f3576033546040516001600160a01b039091168152602090f35b346100f3576101ac366100f8565b6097549091906101cc906001600160a01b03165b6001600160a01b031690565b916040518093630458184560e11b825281600460209687935afa90811561035757600091610379575b506040516353be568d60e01b8152600481018390526001600160a01b03919091169084816024816000865af180156103575761023a9160009161035c575b5015610a30565b61027461026c8361025d8660018060a01b03166000526099602052604060002090565b90600052602052604060002090565b541515610a7c565b6001600160a01b038316600090815260996020526040908190209051635487c57760e01b8152426004820152909390918590839060249082905afa948515610357576000956103259561025d946102dd938993610328575b505090600052602052604060002090565b546103096103018561025d8560018060a01b03166000526099602052604060002090565b918254610a23565b90556001600160a01b0316600090815260996020526040902090565b55005b610348929350803d10610350575b6103408183610989565b8101906109cf565b9038806102cc565b503d610336565b6109c3565b6103739150863d8811610350576103408183610989565b38610233565b6103999150843d861161039f575b6103918183610989565b8101906109ab565b386101f5565b503d610387565b346100f3576020806003193601126100f35760049081356103c6816100e2565b60975482906103dd906001600160a01b03166101c0565b604051630458184560e11b815294859182905afa9283156103575760009361051b575b50604051635487c57760e01b8152426004820152926001600160a01b039083908590602490829085165afa938415610357576000946104fc575b506040516370a0823160e01b81523060048201529083908290602490829086165afa928315610357576000936104d9575b8361032584876104bd61030161049d6104968560018060a01b0316600052609b602052604060002090565b5487610a08565b6001600160a01b038516600090815260996020526040902090939061025d565b90556001600160a01b03166000908152609b6020526040902090565b610325935090816104f592903d10610350576103408183610989565b913861046b565b610514919450833d8511610350576103408183610989565b923861043a565b610533919350823d841161039f576103918183610989565b9138610400565b346100f357610548366100f8565b9060026065541461057157602091610564916002606555610bbb565b6001606555604051908152f35b60405162461bcd60e51b815260206004820152601f60248201527f5265656e7472616e637947756172643a207265656e7472616e742063616c6c006044820152606490fd5b346100f35760203660031901126100f3576004356105d3816100e2565b610617600054916105fb60ff8460081c161580948195610695575b8115610675575b50610812565b8261060e600160ff196000541617600055565b61065c57610875565b61061d57005b61062d61ff001960005416600055565b604051600181527f7f26b83ff96e1f2b6a682f133852f6798a09c465da95921460cefb384740249890602090a1005b61067061010061ff00196000541617600055565b610875565b303b15915081610687575b50386105f5565b6001915060ff161438610680565b600160ff82161091506105ee565b346100f3576106b1366100f8565b9060018060a01b0316600052609a6020526040600020906000526020526020604060002054604051908152f35b346100f35760203660031901126100f3576004356106fb816100e2565b610703610771565b6001600160a01b0381161561071d5761071b906107c9565b005b60405162461bcd60e51b815260206004820152602660248201527f4f776e61626c653a206e6577206f776e657220697320746865207a65726f206160448201526564647265737360d01b6064820152608490fd5b6033546001600160a01b0316330361078557565b606460405162461bcd60e51b815260206004820152602060248201527f4f776e61626c653a2063616c6c6572206973206e6f7420746865206f776e65726044820152fd5b603380546001600160a01b039283166001600160a01b0319821681179092559091167f8be0079c531659141344cd1fd0a4f28419497f9722a3daafe3b4186f6b6457e0600080a3565b1561081957565b60405162461bcd60e51b815260206004820152602e60248201527f496e697469616c697a61626c653a20636f6e747261637420697320616c72656160448201526d191e481a5b9a5d1a585b1a5e995960921b6064820152608490fd5b61088f60ff60005460081c1661088a816108ba565b6108ba565b610898336107c9565b60018060a01b03166bffffffffffffffffffffffff60a01b6097541617609755565b156108c157565b60405162461bcd60e51b815260206004820152602b60248201527f496e697469616c697a61626c653a20636f6e7472616374206973206e6f74206960448201526a6e697469616c697a696e6760a81b6064820152608490fd5b634e487b7160e01b600052604160045260246000fd5b6060810190811067ffffffffffffffff82111761094c57604052565b61091a565b6040810190811067ffffffffffffffff82111761094c57604052565b6080810190811067ffffffffffffffff82111761094c57604052565b90601f8019910116810190811067ffffffffffffffff82111761094c57604052565b908160209103126100f357516109c0816100e2565b90565b6040513d6000823e3d90fd5b908160209103126100f3575190565b634e487b7160e01b600052601160045260246000fd5b600019810191908211610a0357565b6109de565b91908203918211610a0357565b9060018201809211610a0357565b91908201809211610a0357565b15610a3757565b60405162461bcd60e51b815260206004820152601c60248201527f46756e64732061726520636c61696d61626c65206279207573657273000000006044820152606490fd5b15610a8357565b60405162461bcd60e51b81526020600482015260136024820152724e6f2066756e647320746f2073616c7661676560681b6044820152606490fd5b908160609103126100f3576040805191610ad783610930565b80518352602081015160208401520151604082015290565b60405190610afc82610930565b60006040838281528260208201520152565b67ffffffffffffffff811161094c57601f01601f191660200190565b60405190610b3782610951565b60058252640cae0dec6d60db1b6020830152565b6000198114610a035760010190565b60405190610b6782610951565b60128252710dccaf0e886d8c2d2dac2c4d8ca8ae0dec6d60731b6020830152565b81810292918115918404141715610a0357565b8115610ba5570490565b634e487b7160e01b600052601260045260246000fd5b609754600490602090610bd6906001600160a01b03166101c0565b604051630458184560e11b815292839182905afa9081156103575760009161146e575b50604051633a210a4360e11b80825260048201859052916001600160a01b03916020816024818686165afa9081156103575760009161144f575b5015611445576001600160a01b0384166000908152609a60205260409020610c5c90869061025d565b5415611361575b600094610c6e610aef565b50604051635487c57760e01b8152426004820152936020856024818688165afa948515610357578795610cb7918791611342575b5090919750610cb2969596610b2a565b6116b9565b84955b60328710610cd7575b505050829350906109c0929133911661148d565b6001600160a01b0385166000908152609a60205260409020610cfa90839061025d565b54610d0781610cb2610b5a565b604051635487c57760e01b8152426004820152602081602481888a165afa90811561035757600091611323575b508110610d415750610cc3565b6001600160a01b0386166000908152609860205260409020610d6490849061025d565b546040516364a1b95b60e01b808252600482018690526024820192909252909190606080826044818a8c165afa91821561035757600092611304575b5060405163196d044f60e11b8152600481018490529360208560248160008c8e165af1948515610357578789888d8d9460009a6112ce575b50918391610e01610e1c9561025d60209660018060a01b03166000526098602052604060002090565b54956040518096819582948352600483019190602083019252565b0392165afa801561035757610e39916000916112af575b506109f4565b03610fac5750506040516353be568d60e01b80825260048201849052939060208160248160008c8e165af190811561035757600091610f8d575b50610ec0575b50505050610eb68697610ea48461025d899a9960018060a01b0316600052609a602052604060002090565b610eae8154610b4b565b90555b610b4b565b9650949394610cba565b91610f18602092610f0c8b9c95610f12610f319f9d8661025d610ef59260018060a01b03166000526099602052604060002090565b5493610f0c81519360408a84015193015190610a08565b90610b88565b90610a08565b936040519b8c9283928352600483019190602083019252565b038160008a8a165af198891561035757610eb699610f6193610f5b92600092610f6c575b50610b9b565b90610a23565b959496388080610e79565b610f8691925060203d602011610350576103408183610989565b9038610f55565b610fa6915060203d602011610350576103408183610989565b38610e73565b81610ffe91610fe0610fda959e979496958a61025d8f60018060a01b03166000526098602052604060002090565b54610a15565b604051918252600482018a9052602482015291829081906044820190565b03818c8c165afa9384156103575761104194602092604092600092611282575b5050015160405180958192635487c57760e01b8352600483019190602083019252565b03818b8b165afa92831561035757600093611261575b5060408b8101519051635487c57760e01b815260048101919091526020816024818b8d165afa90811561035757600091611242575b5083036110bf57505050869750610eb690610ea48461025d899a9960018060a01b03166000526098602052604060002090565b6040516353be568d60e01b81526004810183905260208160248160008c8e165af190811561035757600091611223575b50611181575b505087985090611135610eb6926111248661025d8b9c9b60018060a01b0316600052609a602052604060002090565b61112e8154610b4b565b9055610a15565b6001600160a01b0389166000908152609a6020526040902061115890869061025d565b5403610eb1576001600160a01b0388166000908152609860205260409020610ea490859061025d565b6111cd6111ed9b610f0c602093610f126111b68e9f99989e61025d899160018060a01b03166000526099602052604060002090565b5493610f0c81519360408984015193015190610a08565b91604051809c81926353be568d60e01b8352600483019190602083019252565b038160008b8b165af192831561035757610f5b610eb694611219936111359d600092610f6c5750610b9b565b97969091386110f5565b61123c915060203d602011610350576103408183610989565b386110ef565b61125b915060203d602011610350576103408183610989565b3861108c565b61127b91935060203d602011610350576103408183610989565b9138611057565b6112a19250803d106112a8575b6112998183610989565b810190610abe565b388061101e565b503d61128f565b6112c8915060203d602011610350576103408183610989565b38610e33565b602093919a5091610e018561025d6112f6610e1c9896883d8a11610350576103408183610989565b9d9496505050509193610dd8565b8161131c9293503d84116112a8576112998183610989565b9038610da0565b61133c915060203d602011610350576103408183610989565b38610d34565b61135b915060203d602011610350576103408183610989565b38610ca2565b6040516364a1b95b60e01b815260048101869052600060248201526060816044818587165afa80156103575760406020916113c093600091611427575b50015160405180938192635487c57760e01b8352600483019190602083019252565b03818686165afa8015610357576113df91600091611408575b50610a15565b6001600160a01b0385166000908152609a6020526040902061140290879061025d565b55610c63565b611421915060203d602011610350576103408183610989565b386113d9565b61143f915060603d81116112a8576112998183610989565b3861139e565b5050505050600090565b611468915060203d602011610350576103408183610989565b38610c33565b611487915060203d60201161039f576103918183610989565b38610bf9565b919061153691600080604051936020968786019463a9059cbb60e01b865260018060a01b0380931660248801526044870152604486526114cc8661096d565b1692604051946114db86610951565b8786527f5361666545524332303a206c6f772d6c6576656c2063616c6c206661696c656488870152519082855af13d1561155d573d9161151a83610b0e565b926115286040519485610989565b83523d60008785013e6115dc565b8051908161154357505050565b8261155b93611556938301019101611565565b61157d565b565b6060916115dc565b908160209103126100f3575180151581036100f35790565b1561158457565b60405162461bcd60e51b815260206004820152602a60248201527f5361666545524332303a204552433230206f7065726174696f6e20646964206e6044820152691bdd081cdd58d8d9595960b21b6064820152608490fd5b9192901561163e57508151156115f0575090565b3b156115f95790565b60405162461bcd60e51b815260206004820152601d60248201527f416464726573733a2063616c6c20746f206e6f6e2d636f6e74726163740000006044820152606490fd5b8251909150156116515750805190602001fd5b60405162461bcd60e51b815260206004820152908190611675906024830190611679565b0390fd5b919082519283825260005b8481106116a5575050826000602080949584010152601f8019910116010190565b602081830181015184830182015201611684565b6000919082916116fe60405180926116ea6020830195632d839cb360e21b8752604060248501526064840190611679565b90604483015203601f198101835282610989565b51906a636f6e736f6c652e6c6f675afa5056fea2646970667358221220c56414b7caef8679f0a6e03231c22d4b4806de21a4bc3e5cfdf465de50f4d40264736f6c63430008130033",
  "linkReferences": {},
  "deployedLinkReferences": {}
}