{
  "_format": "hh-sol-artifact-1",
  "contractName": "FeeDistributor",
  "sourceName": "contracts/protocol/FeeDistributor.sol",
  "abi": [
    {
      "inputs": [],
      "stateMutability": "nonpayable",
      "type": "constructor"
    },
    {
      "anonymous": false,
      "inputs": [
        {
          "indexed": false,
          "internalType": "uint8",
          "name": "version",
          "type": "uint8"
        }
      ],
      "name": "Initialized",
      "type": "event"
    },
    {
      "anonymous": false,
      "inputs": [
        {
          "indexed": true,
          "internalType": "address",
          "name": "previousOwner",
          "type": "address"
        },
        {
          "indexed": true,
          "internalType": "address",
          "name": "newOwner",
          "type": "address"
        }
      ],
      "name": "OwnershipTransferred",
      "type": "event"
    },
    {
      "inputs": [
        {
          "internalType": "address",
          "name": "token",
          "type": "address"
        }
      ],
      "name": "checkpoint",
      "outputs": [],
      "stateMutability": "nonpayable",
      "type": "function"
    },
    {
      "inputs": [
        {
          "internalType": "address",
          "name": "token",
          "type": "address"
        },
        {
          "internalType": "uint256",
          "name": "tokenId",
          "type": "uint256"
        }
      ],
      "name": "claim",
      "outputs": [
        {
          "internalType": "uint256",
          "name": "amountToClaim",
          "type": "uint256"
        }
      ],
      "stateMutability": "nonpayable",
      "type": "function"
    },
    {
      "inputs": [
        {
          "internalType": "address",
          "name": "token",
          "type": "address"
        },
        {
          "internalType": "uint256[]",
          "name": "tokensIds",
          "type": "uint256[]"
        }
      ],
      "name": "claimBatch",
      "outputs": [
        {
          "internalType": "uint256",
          "name": "amountToClaim",
          "type": "uint256"
        }
      ],
      "stateMutability": "nonpayable",
      "type": "function"
    },
    {
      "inputs": [
        {
          "internalType": "address",
          "name": "token",
          "type": "address"
        },
        {
          "internalType": "uint256",
          "name": "tokenId",
          "type": "uint256"
        }
      ],
      "name": "getLockNextClaimableEpoch",
      "outputs": [
        {
          "internalType": "uint256",
          "name": "",
          "type": "uint256"
        }
      ],
      "stateMutability": "view",
      "type": "function"
    },
    {
      "inputs": [
        {
          "internalType": "contract IAddressesProvider",
          "name": "addressProvider",
          "type": "address"
        }
      ],
      "name": "initialize",
      "outputs": [],
      "stateMutability": "nonpayable",
      "type": "function"
    },
    {
      "inputs": [],
      "name": "owner",
      "outputs": [
        {
          "internalType": "address",
          "name": "",
          "type": "address"
        }
      ],
      "stateMutability": "view",
      "type": "function"
    },
    {
      "inputs": [],
      "name": "renounceOwnership",
      "outputs": [],
      "stateMutability": "nonpayable",
      "type": "function"
    },
    {
      "inputs": [
        {
          "internalType": "address",
          "name": "token",
          "type": "address"
        },
        {
          "internalType": "uint256",
          "name": "epoch",
          "type": "uint256"
        }
      ],
      "name": "salvageRewards",
      "outputs": [],
      "stateMutability": "nonpayable",
      "type": "function"
    },
    {
      "inputs": [
        {
          "internalType": "address",
          "name": "token",
          "type": "address"
        },
        {
          "internalType": "uint256",
          "name": "epoch",
          "type": "uint256"
        }
      ],
      "name": "totalFeesAt",
      "outputs": [
        {
          "internalType": "uint256",
          "name": "",
          "type": "uint256"
        }
      ],
      "stateMutability": "view",
      "type": "function"
    },
    {
      "inputs": [
        {
          "internalType": "address",
          "name": "newOwner",
          "type": "address"
        }
      ],
      "name": "transferOwnership",
      "outputs": [],
      "stateMutability": "nonpayable",
      "type": "function"
    }
  ],
  "bytecode": "0x608060405234801561001057600080fd5b5061001961001e565b6100de565b600054610100900460ff161561008a5760405162461bcd60e51b815260206004820152602760248201527f496e697469616c697a61626c653a20636f6e747261637420697320696e697469604482015266616c697a696e6760c81b606482015260840160405180910390fd5b60005460ff90811610156100dc576000805460ff191660ff9081179091556040519081527f7f26b83ff96e1f2b6a682f133852f6798a09c465da95921460cefb38474024989060200160405180910390a15b565b611a24806100ed6000396000f3fe608060405234801561001057600080fd5b506004361061009e5760003560e01c80639009f08c116100665780639009f08c14610137578063a972985e1461014a578063aad3ec961461015d578063c4d66de814610170578063f2fde38b1461018357600080fd5b806353f2c5f1146100a35780635c774aef146100c9578063715018a6146100ff5780637c04c80a146101095780638da5cb5b1461011c575b600080fd5b6100b66100b13660046116f2565b610196565b6040519081526020015b60405180910390f35b6100b66100d73660046116f2565b6001600160a01b03919091166000908152609960209081526040808320938352929052205490565b6101076101c1565b005b6100b661011736600461171e565b6101d5565b6033546040516001600160a01b0390911681526020016100c0565b6101076101453660046116f2565b610229565b6101076101583660046117a6565b61048b565b6100b661016b3660046116f2565b61064f565b61010761017e3660046117a6565b6110ad565b6101076101913660046117a6565b6111ea565b6001600160a01b0382166000908152609a602090815260408083208484529091529020545b92915050565b6101c9611263565b6101d360006112bd565b565b6000805b8281101561022157610203858585848181106101f7576101f76117ca565b9050602002013561064f565b61020d90836117f6565b91508061021981611809565b9150506101d9565b509392505050565b60975460408051630458184560e11b815290516000926001600160a01b0316916308b0308a9160048083019260209291908290030181865afa158015610273573d6000803e3d6000fd5b505050506040513d601f19601f820116820180604052508101906102979190611822565b6040516353be568d60e01b8152600481018490529091506001600160a01b038216906353be568d906024016020604051808303816000875af11580156102e1573d6000803e3d6000fd5b505050506040513d601f19601f82011682018060405250810190610305919061183f565b1561034f5760405162461bcd60e51b815260206004820152601560248201527446443a53563a46554e44535f434c41494d41424c4560581b60448201526064015b60405180910390fd5b6001600160a01b03831660009081526099602090815260408083208584529091529020546103b05760405162461bcd60e51b815260206004820152600e60248201526d46443a53563a4e4f5f46554e445360901b6044820152606401610346565b6001600160a01b038381166000818152609960208181526040808420888552808352818520549585529290915251635487c57760e01b81524260048201529293909290851690635487c57790602401602060405180830381865afa15801561041c573d6000803e3d6000fd5b505050506040513d601f19601f82011682018060405250810190610440919061183f565b8152602001908152602001600020600082825461045d91906117f6565b9091555050506001600160a01b03909116600090815260996020908152604080832093835292905290812055565b60975460408051630458184560e11b815290516000926001600160a01b0316916308b0308a9160048083019260209291908290030181865afa1580156104d5573d6000803e3d6000fd5b505050506040513d601f19601f820116820180604052508101906104f99190611822565b604051635487c57760e01b81524260048201526001600160a01b039190911690635487c57790602401602060405180830381865afa15801561053f573d6000803e3d6000fd5b505050506040513d601f19601f82011682018060405250810190610563919061183f565b6040516370a0823160e01b81523060048201529091506000906001600160a01b038416906370a0823190602401602060405180830381865afa1580156105ad573d6000803e3d6000fd5b505050506040513d601f19601f820116820180604052508101906105d1919061183f565b6001600160a01b0384166000908152609b60205260409020549091506105f79082611858565b6001600160a01b03841660009081526099602090815260408083208684529091528120805490919061062a9084906117f6565b90915550506001600160a01b039092166000908152609b602052604090209190915550565b600061065961130f565b60975460408051630458184560e11b815290516000926001600160a01b0316916308b0308a9160048083019260209291908290030181865afa1580156106a3573d6000803e3d6000fd5b505050506040513d601f19601f820116820180604052508101906106c79190611822565b604051633a210a4360e11b8152600481018590529091506001600160a01b03821690637442148690602401602060405180830381865afa15801561070f573d6000803e3d6000fd5b505050506040513d601f19601f82011682018060405250810190610733919061183f565b6000036107445760009150506110a3565b6001600160a01b0384166000908152609a602090815260408083208684529091528120549003610879576040516364a1b95b60e01b815260048101849052600060248201526001600160a01b03821690635487c5779082906364a1b95b90604401606060405180830381865afa1580156107c2573d6000803e3d6000fd5b505050506040513d601f19601f820116820180604052508101906107e6919061186b565b604001516040518263ffffffff1660e01b815260040161080891815260200190565b602060405180830381865afa158015610825573d6000803e3d6000fd5b505050506040513d601f19601f82011682018060405250810190610849919061183f565b6108549060016117f6565b6001600160a01b0385166000908152609a602090815260408083208784529091529020555b61089d60405180606001604052806000815260200160008152602001600081525090565b60008060008060005b6032811015610fac576001600160a01b038a81166000908152609a602090815260408083208d845290915290819020549051635487c57760e01b815242600482015290955090881690635487c57790602401602060405180830381865afa158015610915573d6000803e3d6000fd5b505050506040513d601f19601f82011682018060405250810190610939919061183f565b841015610fac576001600160a01b038a811660009081526098602090815260408083208d8452909152908190205490516364a1b95b60e01b8152600481018c905260248101829052909650908816906364a1b95b90604401606060405180830381865afa1580156109ae573d6000803e3d6000fd5b505050506040513d601f19601f820116820180604052508101906109d2919061186b565b60405163196d044f60e11b8152600481018690529096506001600160a01b038816906332da089e906024016020604051808303816000875af1158015610a1c573d6000803e3d6000fd5b505050506040513d601f19601f82011682018060405250810190610a40919061183f565b604051633a210a4360e11b8152600481018b90529093506001906001600160a01b03891690637442148690602401602060405180830381865afa158015610a8b573d6000803e3d6000fd5b505050506040513d601f19601f82011682018060405250810190610aaf919061183f565b610ab99190611858565b8503610c46576040516353be568d60e01b8152600481018590526000906001600160a01b038916906353be568d906024016020604051808303816000875af1158015610b09573d6000803e3d6000fd5b505050506040513d601f19601f82011682018060405250810190610b2d919061183f565b1115610c0d576040516353be568d60e01b8152600481018590526001600160a01b038816906353be568d906024016020604051808303816000875af1158015610b7a573d6000803e3d6000fd5b505050506040513d601f19601f82011682018060405250810190610b9e919061183f565b6040870151610bad9085611858565b8760200151610bbc91906118d5565b8751610bc89190611858565b6001600160a01b038c166000908152609960209081526040808320898452909152902054610bf691906118d5565b610c0091906118ec565b610c0a90896117f6565b97505b6001600160a01b038a166000908152609a602090815260408083208c84529091528120805491610c3c83611809565b9190505550610f9a565b6001600160a01b038716635487c577816364a1b95b8c610c678a60016117f6565b6040516001600160e01b031960e085901b16815260048101929092526024820152604401606060405180830381865afa158015610ca8573d6000803e3d6000fd5b505050506040513d601f19601f82011682018060405250810190610ccc919061186b565b604001516040518263ffffffff1660e01b8152600401610cee91815260200190565b602060405180830381865afa158015610d0b573d6000803e3d6000fd5b505050506040513d601f19601f82011682018060405250810190610d2f919061183f565b6040808801519051635487c57760e01b81529193506001600160a01b03891691635487c57791610d659160040190815260200190565b602060405180830381865afa158015610d82573d6000803e3d6000fd5b505050506040513d601f19601f82011682018060405250810190610da6919061183f565b8203610ddb576001600160a01b038a1660009081526098602090815260408083208c84529091528120805491610c3c83611809565b6040516353be568d60e01b8152600481018590526000906001600160a01b038916906353be568d906024016020604051808303816000875af1158015610e25573d6000803e3d6000fd5b505050506040513d601f19601f82011682018060405250810190610e49919061183f565b1115610f29576040516353be568d60e01b8152600481018590526001600160a01b038816906353be568d906024016020604051808303816000875af1158015610e96573d6000803e3d6000fd5b505050506040513d601f19601f82011682018060405250810190610eba919061183f565b6040870151610ec99085611858565b8760200151610ed891906118d5565b8751610ee49190611858565b6001600160a01b038c166000908152609960209081526040808320898452909152902054610f1291906118d5565b610f1c91906118ec565b610f2690896117f6565b97505b838203610f65576001600160a01b038a1660009081526098602090815260408083208c84529091528120805491610f5f83611809565b91905055505b6001600160a01b038a166000908152609a602090815260408083208c84529091528120805491610f9483611809565b91905055505b80610fa481611809565b9150506108a6565b505060975460408051630458184560e11b815290516110a196506001600160a01b0390921694506308b0308a935060048082019350602092918290030181865afa158015610ffe573d6000803e3d6000fd5b505050506040513d601f19601f820116820180604052508101906110229190611822565b6001600160a01b0316636352211e856040518263ffffffff1660e01b815260040161104f91815260200190565b602060405180830381865afa15801561106c573d6000803e3d6000fd5b505050506040513d601f19601f820116820180604052508101906110909190611822565b6001600160a01b0386169084611368565b505b6101bb6001606555565b600054610100900460ff16158080156110cd5750600054600160ff909116105b806110e75750303b1580156110e7575060005460ff166001145b61114a5760405162461bcd60e51b815260206004820152602e60248201527f496e697469616c697a61626c653a20636f6e747261637420697320616c72656160448201526d191e481a5b9a5d1a585b1a5e995960921b6064820152608401610346565b6000805460ff19166001179055801561116d576000805461ff0019166101001790555b6111756113c6565b61117d6113f5565b6111856113c6565b609780546001600160a01b0319166001600160a01b03841617905580156111e6576000805461ff0019169055604051600181527f7f26b83ff96e1f2b6a682f133852f6798a09c465da95921460cefb38474024989060200160405180910390a15b5050565b6111f2611263565b6001600160a01b0381166112575760405162461bcd60e51b815260206004820152602660248201527f4f776e61626c653a206e6577206f776e657220697320746865207a65726f206160448201526564647265737360d01b6064820152608401610346565b611260816112bd565b50565b6033546001600160a01b031633146101d35760405162461bcd60e51b815260206004820181905260248201527f4f776e61626c653a2063616c6c6572206973206e6f7420746865206f776e65726044820152606401610346565b603380546001600160a01b038381166001600160a01b0319831681179093556040519116919082907f8be0079c531659141344cd1fd0a4f28419497f9722a3daafe3b4186f6b6457e090600090a35050565b6002606554036113615760405162461bcd60e51b815260206004820152601f60248201527f5265656e7472616e637947756172643a207265656e7472616e742063616c6c006044820152606401610346565b6002606555565b604080516001600160a01b038416602482015260448082018490528251808303909101815260649091019091526020810180516001600160e01b031663a9059cbb60e01b1790526113ba908490611424565b505050565b6001606555565b600054610100900460ff166113ed5760405162461bcd60e51b81526004016103469061190e565b6101d36114f6565b600054610100900460ff1661141c5760405162461bcd60e51b81526004016103469061190e565b6101d3611526565b6000611479826040518060400160405280602081526020017f5361666545524332303a206c6f772d6c6576656c2063616c6c206661696c6564815250856001600160a01b031661154d9092919063ffffffff16565b8051909150156113ba57808060200190518101906114979190611959565b6113ba5760405162461bcd60e51b815260206004820152602a60248201527f5361666545524332303a204552433230206f7065726174696f6e20646964206e6044820152691bdd081cdd58d8d9595960b21b6064820152608401610346565b600054610100900460ff1661151d5760405162461bcd60e51b81526004016103469061190e565b6101d3336112bd565b600054610100900460ff166113bf5760405162461bcd60e51b81526004016103469061190e565b606061155c8484600085611564565b949350505050565b6060824710156115c55760405162461bcd60e51b815260206004820152602660248201527f416464726573733a20696e73756666696369656e742062616c616e636520666f6044820152651c8818d85b1b60d21b6064820152608401610346565b600080866001600160a01b031685876040516115e1919061199f565b60006040518083038185875af1925050503d806000811461161e576040519150601f19603f3d011682016040523d82523d6000602084013e611623565b606091505b50915091506116348783838761163f565b979650505050505050565b606083156116ae5782516000036116a7576001600160a01b0385163b6116a75760405162461bcd60e51b815260206004820152601d60248201527f416464726573733a2063616c6c20746f206e6f6e2d636f6e74726163740000006044820152606401610346565b508161155c565b61155c83838151156116c35781518083602001fd5b8060405162461bcd60e51b815260040161034691906119bb565b6001600160a01b038116811461126057600080fd5b6000806040838503121561170557600080fd5b8235611710816116dd565b946020939093013593505050565b60008060006040848603121561173357600080fd5b833561173e816116dd565b9250602084013567ffffffffffffffff8082111561175b57600080fd5b818601915086601f83011261176f57600080fd5b81358181111561177e57600080fd5b8760208260051b850101111561179357600080fd5b6020830194508093505050509250925092565b6000602082840312156117b857600080fd5b81356117c3816116dd565b9392505050565b634e487b7160e01b600052603260045260246000fd5b634e487b7160e01b600052601160045260246000fd5b808201808211156101bb576101bb6117e0565b60006001820161181b5761181b6117e0565b5060010190565b60006020828403121561183457600080fd5b81516117c3816116dd565b60006020828403121561185157600080fd5b5051919050565b818103818111156101bb576101bb6117e0565b60006060828403121561187d57600080fd5b6040516060810181811067ffffffffffffffff821117156118ae57634e487b7160e01b600052604160045260246000fd5b80604052508251815260208301516020820152604083015160408201528091505092915050565b80820281158282048414176101bb576101bb6117e0565b60008261190957634e487b7160e01b600052601260045260246000fd5b500490565b6020808252602b908201527f496e697469616c697a61626c653a20636f6e7472616374206973206e6f74206960408201526a6e697469616c697a696e6760a81b606082015260800190565b60006020828403121561196b57600080fd5b815180151581146117c357600080fd5b60005b8381101561199657818101518382015260200161197e565b50506000910152565b600082516119b181846020870161197b565b9190910192915050565b60208152600082518060208401526119da81604085016020870161197b565b601f01601f1916919091016040019291505056fea2646970667358221220f7a12db18a4f6371c5ecf78196a3d4820e64c5aaad40906f2811ffcab801393164736f6c63430008130033",
  "linkReferences": {},
  "deployedLinkReferences": {}
}