{
  "_format": "hh-sol-artifact-1",
  "contractName": "FeeDistributor",
  "sourceName": "contracts/protocol/FeeDistributor.sol",
  "abi": [
    {
      "inputs": [],
      "stateMutability": "nonpayable",
      "type": "constructor"
    },
    {
      "anonymous": false,
      "inputs": [
        {
          "indexed": false,
          "internalType": "uint8",
          "name": "version",
          "type": "uint8"
        }
      ],
      "name": "Initialized",
      "type": "event"
    },
    {
      "anonymous": false,
      "inputs": [
        {
          "indexed": true,
          "internalType": "address",
          "name": "previousOwner",
          "type": "address"
        },
        {
          "indexed": true,
          "internalType": "address",
          "name": "newOwner",
          "type": "address"
        }
      ],
      "name": "OwnershipTransferred",
      "type": "event"
    },
    {
      "inputs": [
        {
          "internalType": "address",
          "name": "token",
          "type": "address"
        }
      ],
      "name": "checkpoint",
      "outputs": [],
      "stateMutability": "nonpayable",
      "type": "function"
    },
    {
      "inputs": [
        {
          "internalType": "address",
          "name": "token",
          "type": "address"
        }
      ],
      "name": "claim",
      "outputs": [
        {
          "internalType": "uint256",
          "name": "",
          "type": "uint256"
        }
      ],
      "stateMutability": "nonpayable",
      "type": "function"
    },
    {
      "inputs": [
        {
          "internalType": "contract IAddressesProvider",
          "name": "addressProvider",
          "type": "address"
        }
      ],
      "name": "initialize",
      "outputs": [],
      "stateMutability": "nonpayable",
      "type": "function"
    },
    {
      "inputs": [],
      "name": "owner",
      "outputs": [
        {
          "internalType": "address",
          "name": "",
          "type": "address"
        }
      ],
      "stateMutability": "view",
      "type": "function"
    },
    {
      "inputs": [],
      "name": "renounceOwnership",
      "outputs": [],
      "stateMutability": "nonpayable",
      "type": "function"
    },
    {
      "inputs": [
        {
          "internalType": "address",
          "name": "token",
          "type": "address"
        },
        {
          "internalType": "uint256",
          "name": "epoch",
          "type": "uint256"
        }
      ],
      "name": "salvageRewards",
      "outputs": [],
      "stateMutability": "nonpayable",
      "type": "function"
    },
    {
      "inputs": [
        {
          "internalType": "address",
          "name": "token",
          "type": "address"
        },
        {
          "internalType": "uint256",
          "name": "epoch",
          "type": "uint256"
        }
      ],
      "name": "totalFeesAt",
      "outputs": [
        {
          "internalType": "uint256",
          "name": "",
          "type": "uint256"
        }
      ],
      "stateMutability": "view",
      "type": "function"
    },
    {
      "inputs": [
        {
          "internalType": "address",
          "name": "newOwner",
          "type": "address"
        }
      ],
      "name": "transferOwnership",
      "outputs": [],
      "stateMutability": "nonpayable",
      "type": "function"
    }
  ],
  "bytecode": "0x608060405234801561001057600080fd5b5061001961001e565b6100de565b600054610100900460ff161561008a5760405162461bcd60e51b815260206004820152602760248201527f496e697469616c697a61626c653a20636f6e747261637420697320696e697469604482015266616c697a696e6760c81b606482015260840160405180910390fd5b60005460ff90811610156100dc576000805460ff191660ff9081179091556040519081527f7f26b83ff96e1f2b6a682f133852f6798a09c465da95921460cefb38474024989060200160405180910390a15b565b6117c0806100ed6000396000f3fe608060405234801561001057600080fd5b50600436106100885760003560e01c80639009f08c1161005b5780639009f08c146100eb578063a972985e146100fe578063c4d66de814610111578063f2fde38b1461012457600080fd5b80631e83409a1461008d5780635c774aef146100b3578063715018a6146100c65780638da5cb5b146100d0575b600080fd5b6100a061009b36600461152c565b610137565b6040519081526020015b60405180910390f35b6100a06100c1366004611550565b610b21565b6100ce610b4c565b005b6033546040516001600160a01b0390911681526020016100aa565b6100ce6100f9366004611550565b610b60565b6100ce61010c36600461152c565b610de9565b6100ce61011f36600461152c565b610fad565b6100ce61013236600461152c565b6110da565b600080606560009054906101000a90046001600160a01b03166001600160a01b03166308b0308a6040518163ffffffff1660e01b8152600401602060405180830381865afa15801561018d573d6000803e3d6000fd5b505050506040513d601f19601f820116820180604052508101906101b1919061157c565b6040516304a9617360e41b81523360048201529091506001600160a01b03821690634a96173090602401602060405180830381865afa1580156101f8573d6000803e3d6000fd5b505050506040513d601f19601f8201168201806040525081019061021c9190611599565b60000361022c5750600092915050565b6001600160a01b038316600090815260686020908152604080832033845290915281205490036103605760405163d7c6eaaf60e01b8152336004820152600060248201526001600160a01b03821690635487c57790829063d7c6eaaf90604401606060405180830381865afa1580156102a9573d6000803e3d6000fd5b505050506040513d601f19601f820116820180604052508101906102cd91906115b2565b604001516040518263ffffffff1660e01b81526004016102ef91815260200190565b602060405180830381865afa15801561030c573d6000803e3d6000fd5b505050506040513d601f19601f820116820180604052508101906103309190611599565b61033b906001611632565b6001600160a01b03841660009081526068602090815260408083203384529091529020555b600061038660405180606001604052806000815260200160008152602001600081525090565b60008080805b6032811015610b00576001600160a01b03898116600090815260686020908152604080832033845290915290819020549051635487c57760e01b815242600482015290955090881690635487c57790602401602060405180830381865afa1580156103fb573d6000803e3d6000fd5b505050506040513d601f19601f8201168201806040525081019061041f9190611599565b841015610b00576001600160a01b0389811660009081526066602090815260408083203380855292529182902054915163d7c6eaaf60e01b8152600481019190915260248101919091529088169063d7c6eaaf90604401606060405180830381865afa158015610493573d6000803e3d6000fd5b505050506040513d601f19601f820116820180604052508101906104b791906115b2565b60405163196d044f60e11b8152600481018690529095506001600160a01b038816906332da089e906024016020604051808303816000875af1158015610501573d6000803e3d6000fd5b505050506040513d601f19601f820116820180604052508101906105259190611599565b6040516304a9617360e41b81523360048201529093506001906001600160a01b03891690634a96173090602401602060405180830381865afa15801561056f573d6000803e3d6000fd5b505050506040513d601f19601f820116820180604052508101906105939190611599565b61059d9190611645565b6001600160a01b038a1660009081526066602090815260408083203384529091529020540361074d57604051630981b24d60e41b8152600481018590526000906001600160a01b0389169063981b24d0906024016020604051808303816000875af1158015610610573d6000803e3d6000fd5b505050506040513d601f19601f820116820180604052508101906106349190611599565b111561071457604051630981b24d60e41b8152600481018590526001600160a01b0388169063981b24d0906024016020604051808303816000875af1158015610681573d6000803e3d6000fd5b505050506040513d601f19601f820116820180604052508101906106a59190611599565b60408601516106b49085611645565b86602001516106c39190611658565b86516106cf9190611645565b6001600160a01b038b1660009081526067602090815260408083208984529091529020546106fd9190611658565b610707919061166f565b6107119087611632565b95505b6001600160a01b0389166000908152606860209081526040808320338452909152812080549161074383611691565b9190505550610aee565b6001600160a01b0389811660009081526066602090815260408083203380855292529091205491891691635487c57791839163d7c6eaaf9190610791906001611632565b6040516001600160e01b031960e085901b1681526001600160a01b0390921660048301526024820152604401606060405180830381865afa1580156107da573d6000803e3d6000fd5b505050506040513d601f19601f820116820180604052508101906107fe91906115b2565b604001516040518263ffffffff1660e01b815260040161082091815260200190565b602060405180830381865afa15801561083d573d6000803e3d6000fd5b505050506040513d601f19601f820116820180604052508101906108619190611599565b6040808701519051635487c57760e01b81529193506001600160a01b03891691635487c577916108979160040190815260200190565b602060405180830381865afa1580156108b4573d6000803e3d6000fd5b505050506040513d601f19601f820116820180604052508101906108d89190611599565b820361090d576001600160a01b0389166000908152606660209081526040808320338452909152812080549161074383611691565b604051630981b24d60e41b8152600481018590526000906001600160a01b0389169063981b24d0906024016020604051808303816000875af1158015610957573d6000803e3d6000fd5b505050506040513d601f19601f8201168201806040525081019061097b9190611599565b1115610a5b57604051630981b24d60e41b8152600481018590526001600160a01b0388169063981b24d0906024016020604051808303816000875af11580156109c8573d6000803e3d6000fd5b505050506040513d601f19601f820116820180604052508101906109ec9190611599565b60408601516109fb9085611645565b8660200151610a0a9190611658565b8651610a169190611645565b6001600160a01b038b166000908152606760209081526040808320898452909152902054610a449190611658565b610a4e919061166f565b610a589087611632565b95505b6001600160a01b03891660009081526068602090815260408083203384529091528120805491610a8a83611691565b90915550506001600160a01b03891660009081526068602090815260408083203384529091529020548203610aee576001600160a01b03891660009081526066602090815260408083203384529091528120805491610ae883611691565b91905055505b80610af881611691565b91505061038c565b50610b156001600160a01b0389163387611153565b50929695505050505050565b6001600160a01b03821660009081526067602090815260408083208484529091529020545b92915050565b610b546111aa565b610b5e6000611204565b565b60655460408051630458184560e11b815290516000926001600160a01b0316916308b0308a9160048083019260209291908290030181865afa158015610baa573d6000803e3d6000fd5b505050506040513d601f19601f82011682018060405250810190610bce919061157c565b604051630981b24d60e41b8152600481018490529091506001600160a01b0382169063981b24d0906024016020604051808303816000875af1158015610c18573d6000803e3d6000fd5b505050506040513d601f19601f82011682018060405250810190610c3c9190611599565b15610c8e5760405162461bcd60e51b815260206004820152601c60248201527f46756e64732061726520636c61696d61626c652062792075736572730000000060448201526064015b60405180910390fd5b6001600160a01b0383166000908152606760209081526040808320858452909152902054610cfe5760405162461bcd60e51b815260206004820152601860248201527f4e6f2066756e6473206c65667420746f2073616c7661676500000000000000006044820152606401610c85565b6001600160a01b038381166000908152606760205260408082209051635487c57760e01b81524260048201529092841690635487c57790602401602060405180830381865afa158015610d55573d6000803e3d6000fd5b505050506040513d601f19601f82011682018060405250810190610d799190611599565b815260208082019290925260409081016000908120546001600160a01b0387168252606784528282208683529093529081208054909190610dbb908490611632565b9091555050506001600160a01b03909116600090815260676020908152604080832093835292905290812055565b60655460408051630458184560e11b815290516000926001600160a01b0316916308b0308a9160048083019260209291908290030181865afa158015610e33573d6000803e3d6000fd5b505050506040513d601f19601f82011682018060405250810190610e57919061157c565b604051635487c57760e01b81524260048201526001600160a01b039190911690635487c57790602401602060405180830381865afa158015610e9d573d6000803e3d6000fd5b505050506040513d601f19601f82011682018060405250810190610ec19190611599565b6040516370a0823160e01b81523060048201529091506000906001600160a01b038416906370a0823190602401602060405180830381865afa158015610f0b573d6000803e3d6000fd5b505050506040513d601f19601f82011682018060405250810190610f2f9190611599565b6001600160a01b038416600090815260696020526040902054909150610f559082611645565b6001600160a01b038416600090815260676020908152604080832086845290915281208054909190610f88908490611632565b90915550506001600160a01b0390921660009081526069602052604090209190915550565b600054610100900460ff1615808015610fcd5750600054600160ff909116105b80610fe75750303b158015610fe7575060005460ff166001145b61104a5760405162461bcd60e51b815260206004820152602e60248201527f496e697469616c697a61626c653a20636f6e747261637420697320616c72656160448201526d191e481a5b9a5d1a585b1a5e995960921b6064820152608401610c85565b6000805460ff19166001179055801561106d576000805461ff0019166101001790555b611075611256565b606580546001600160a01b0319166001600160a01b03841617905580156110d6576000805461ff0019169055604051600181527f7f26b83ff96e1f2b6a682f133852f6798a09c465da95921460cefb38474024989060200160405180910390a15b5050565b6110e26111aa565b6001600160a01b0381166111475760405162461bcd60e51b815260206004820152602660248201527f4f776e61626c653a206e6577206f776e657220697320746865207a65726f206160448201526564647265737360d01b6064820152608401610c85565b61115081611204565b50565b604080516001600160a01b038416602482015260448082018490528251808303909101815260649091019091526020810180516001600160e01b031663a9059cbb60e01b1790526111a5908490611285565b505050565b6033546001600160a01b03163314610b5e5760405162461bcd60e51b815260206004820181905260248201527f4f776e61626c653a2063616c6c6572206973206e6f7420746865206f776e65726044820152606401610c85565b603380546001600160a01b038381166001600160a01b0319831681179093556040519116919082907f8be0079c531659141344cd1fd0a4f28419497f9722a3daafe3b4186f6b6457e090600090a35050565b600054610100900460ff1661127d5760405162461bcd60e51b8152600401610c85906116aa565b610b5e611357565b60006112da826040518060400160405280602081526020017f5361666545524332303a206c6f772d6c6576656c2063616c6c206661696c6564815250856001600160a01b03166113879092919063ffffffff16565b8051909150156111a557808060200190518101906112f891906116f5565b6111a55760405162461bcd60e51b815260206004820152602a60248201527f5361666545524332303a204552433230206f7065726174696f6e20646964206e6044820152691bdd081cdd58d8d9595960b21b6064820152608401610c85565b600054610100900460ff1661137e5760405162461bcd60e51b8152600401610c85906116aa565b610b5e33611204565b6060611396848460008561139e565b949350505050565b6060824710156113ff5760405162461bcd60e51b815260206004820152602660248201527f416464726573733a20696e73756666696369656e742062616c616e636520666f6044820152651c8818d85b1b60d21b6064820152608401610c85565b600080866001600160a01b0316858760405161141b919061173b565b60006040518083038185875af1925050503d8060008114611458576040519150601f19603f3d011682016040523d82523d6000602084013e61145d565b606091505b509150915061146e87838387611479565b979650505050505050565b606083156114e85782516000036114e1576001600160a01b0385163b6114e15760405162461bcd60e51b815260206004820152601d60248201527f416464726573733a2063616c6c20746f206e6f6e2d636f6e74726163740000006044820152606401610c85565b5081611396565b61139683838151156114fd5781518083602001fd5b8060405162461bcd60e51b8152600401610c859190611757565b6001600160a01b038116811461115057600080fd5b60006020828403121561153e57600080fd5b813561154981611517565b9392505050565b6000806040838503121561156357600080fd5b823561156e81611517565b946020939093013593505050565b60006020828403121561158e57600080fd5b815161154981611517565b6000602082840312156115ab57600080fd5b5051919050565b6000606082840312156115c457600080fd5b6040516060810181811067ffffffffffffffff821117156115f557634e487b7160e01b600052604160045260246000fd5b80604052508251815260208301516020820152604083015160408201528091505092915050565b634e487b7160e01b600052601160045260246000fd5b80820180821115610b4657610b4661161c565b81810381811115610b4657610b4661161c565b8082028115828204841417610b4657610b4661161c565b60008261168c57634e487b7160e01b600052601260045260246000fd5b500490565b6000600182016116a3576116a361161c565b5060010190565b6020808252602b908201527f496e697469616c697a61626c653a20636f6e7472616374206973206e6f74206960408201526a6e697469616c697a696e6760a81b606082015260800190565b60006020828403121561170757600080fd5b8151801515811461154957600080fd5b60005b8381101561173257818101518382015260200161171a565b50506000910152565b6000825161174d818460208701611717565b9190910192915050565b6020815260008251806020840152611776816040850160208701611717565b601f01601f1916919091016040019291505056fea26469706673582212208177fc9ab11a32d7f76e5e9ae211090d5a671112d188ccf988456d86b1da55d564736f6c63430008110033",
  "linkReferences": {},
  "deployedLinkReferences": {}
}