{
  "_format": "hh-sol-artifact-1",
  "contractName": "FeeDistributor",
  "sourceName": "contracts/protocol/FeeDistributor.sol",
  "abi": [
    {
      "anonymous": false,
      "inputs": [
        {
          "indexed": false,
          "internalType": "uint8",
          "name": "version",
          "type": "uint8"
        }
      ],
      "name": "Initialized",
      "type": "event"
    },
    {
      "anonymous": false,
      "inputs": [
        {
          "indexed": true,
          "internalType": "address",
          "name": "previousOwner",
          "type": "address"
        },
        {
          "indexed": true,
          "internalType": "address",
          "name": "newOwner",
          "type": "address"
        }
      ],
      "name": "OwnershipTransferred",
      "type": "event"
    },
    {
      "inputs": [
        {
          "internalType": "address",
          "name": "token",
          "type": "address"
        }
      ],
      "name": "claim",
      "outputs": [
        {
          "internalType": "uint256",
          "name": "",
          "type": "uint256"
        }
      ],
      "stateMutability": "nonpayable",
      "type": "function"
    },
    {
      "inputs": [
        {
          "internalType": "address",
          "name": "token",
          "type": "address"
        }
      ],
      "name": "feesCheckpoint",
      "outputs": [],
      "stateMutability": "nonpayable",
      "type": "function"
    },
    {
      "inputs": [
        {
          "internalType": "contract IAddressesProvider",
          "name": "addressProvider",
          "type": "address"
        }
      ],
      "name": "initialize",
      "outputs": [],
      "stateMutability": "nonpayable",
      "type": "function"
    },
    {
      "inputs": [],
      "name": "owner",
      "outputs": [
        {
          "internalType": "address",
          "name": "",
          "type": "address"
        }
      ],
      "stateMutability": "view",
      "type": "function"
    },
    {
      "inputs": [],
      "name": "renounceOwnership",
      "outputs": [],
      "stateMutability": "nonpayable",
      "type": "function"
    },
    {
      "inputs": [
        {
          "internalType": "address",
          "name": "newOwner",
          "type": "address"
        }
      ],
      "name": "transferOwnership",
      "outputs": [],
      "stateMutability": "nonpayable",
      "type": "function"
    }
  ],
  "bytecode": "0x608060405234801561001057600080fd5b506112a2806100206000396000f3fe608060405234801561001057600080fd5b50600436106100625760003560e01c806318f86aa6146100675780631e83409a1461007c578063715018a6146100a25780638da5cb5b146100aa578063c4d66de8146100c5578063f2fde38b146100d8575b600080fd5b61007a610075366004611034565b6100eb565b005b61008f61008a366004611034565b6102af565b6040519081526020015b60405180910390f35b61007a610a9c565b6033546040516001600160a01b039091168152602001610099565b61007a6100d3366004611034565b610ab0565b61007a6100e6366004611034565b610be2565b60655460408051630458184560e11b815290516000926001600160a01b0316916308b0308a9160048083019260209291908290030181865afa158015610135573d6000803e3d6000fd5b505050506040513d601f19601f820116820180604052508101906101599190611058565b604051635487c57760e01b81524260048201526001600160a01b039190911690635487c57790602401602060405180830381865afa15801561019f573d6000803e3d6000fd5b505050506040513d601f19601f820116820180604052508101906101c39190611075565b6040516370a0823160e01b81523060048201529091506000906001600160a01b038416906370a0823190602401602060405180830381865afa15801561020d573d6000803e3d6000fd5b505050506040513d601f19601f820116820180604052508101906102319190611075565b6001600160a01b03841660009081526069602052604090205490915061025790826110a4565b6001600160a01b03841660009081526067602090815260408083208684529091528120805490919061028a9084906110bd565b90915550506001600160a01b0390921660009081526069602052604090209190915550565b600080606560009054906101000a90046001600160a01b03166001600160a01b03166308b0308a6040518163ffffffff1660e01b8152600401602060405180830381865afa158015610305573d6000803e3d6000fd5b505050506040513d601f19601f820116820180604052508101906103299190611058565b6040516304a9617360e41b81523360048201529091506001600160a01b03821690634a96173090602401602060405180830381865afa158015610370573d6000803e3d6000fd5b505050506040513d601f19601f820116820180604052508101906103949190611075565b6000036103a45750600092915050565b60006103ca60405180606001604052806000815260200160008152602001600081525090565b60008080805b6032811015610a7b57604051635487c57760e01b81524260048201526001906001600160a01b03891690635487c57790602401602060405180830381865afa158015610420573d6000803e3d6000fd5b505050506040513d601f19601f820116820180604052508101906104449190611075565b61044e91906110a4565b6001600160a01b038a16600090815260686020908152604080832033845290915290205414610a7b576001600160a01b0389811660009081526066602090815260408083203380855292529182902054915163d7c6eaaf60e01b8152600481019190915260248101919091529088169063d7c6eaaf90604401606060405180830381865afa1580156104e4573d6000803e3d6000fd5b505050506040513d601f19601f8201168201806040525081019061050891906110d0565b6001600160a01b038a16600090815260686020908152604080832033845290915290205490955061053a9060016110bd565b6001600160a01b038a811660009081526068602090815260408083203384529091529020549195508816906332da089e906105769060016110bd565b6040518263ffffffff1660e01b815260040161059491815260200190565b6020604051808303816000875af11580156105b3573d6000803e3d6000fd5b505050506040513d601f19601f820116820180604052508101906105d79190611075565b6040516304a9617360e41b81523360048201529093506001906001600160a01b03891690634a96173090602401602060405180830381865afa158015610621573d6000803e3d6000fd5b505050506040513d601f19601f820116820180604052508101906106459190611075565b61064f91906110a4565b6001600160a01b038a1660009081526066602090815260408083203384529091529020540361077c57604051630981b24d60e41b8152600481018590526001600160a01b0388169063981b24d0906024016020604051808303816000875af11580156106bf573d6000803e3d6000fd5b505050506040513d601f19601f820116820180604052508101906106e39190611075565b60408601516106f290856110a4565b8660200151610701919061113a565b865161070d91906110a4565b6001600160a01b038b16600090815260676020908152604080832089845290915290205461073b919061113a565b6107459190611151565b61074f90876110bd565b6001600160a01b038a16600090815260686020908152604080832033845290915290208590559550610a69565b6001600160a01b0389811660009081526066602090815260408083203380855292529182902054915163d7c6eaaf60e01b81526004810191909152602481019190915290881690635487c57790829063d7c6eaaf90604401606060405180830381865afa1580156107f1573d6000803e3d6000fd5b505050506040513d601f19601f8201168201806040525081019061081591906110d0565b604001516040518263ffffffff1660e01b815260040161083791815260200190565b602060405180830381865afa158015610854573d6000803e3d6000fd5b505050506040513d601f19601f820116820180604052508101906108789190611075565b6040808701519051635487c57760e01b81529193506001600160a01b03891691635487c577916108ae9160040190815260200190565b602060405180830381865afa1580156108cb573d6000803e3d6000fd5b505050506040513d601f19601f820116820180604052508101906108ef9190611075565b820361092e576001600160a01b0389166000908152606660209081526040808320338452909152812080549161092483611173565b9190505550610a69565b604051630981b24d60e41b8152600481018590526001600160a01b0388169063981b24d0906024016020604051808303816000875af1158015610975573d6000803e3d6000fd5b505050506040513d601f19601f820116820180604052508101906109999190611075565b60408601516109a890856110a4565b86602001516109b7919061113a565b86516109c391906110a4565b6001600160a01b038b1660009081526067602090815260408083208984529091529020546109f1919061113a565b6109fb9190611151565b610a0590876110bd565b6001600160a01b038a16600090815260686020908152604080832033845290915290208590559550838203610a69576001600160a01b03891660009081526066602090815260408083203384529091528120805491610a6383611173565b91905055505b80610a7381611173565b9150506103d0565b50610a906001600160a01b0389163387610c5b565b50929695505050505050565b610aa4610cb2565b610aae6000610d0c565b565b600054610100900460ff1615808015610ad05750600054600160ff909116105b80610aea5750303b158015610aea575060005460ff166001145b610b525760405162461bcd60e51b815260206004820152602e60248201527f496e697469616c697a61626c653a20636f6e747261637420697320616c72656160448201526d191e481a5b9a5d1a585b1a5e995960921b60648201526084015b60405180910390fd5b6000805460ff191660011790558015610b75576000805461ff0019166101001790555b610b7d610d5e565b606580546001600160a01b0319166001600160a01b0384161790558015610bde576000805461ff0019169055604051600181527f7f26b83ff96e1f2b6a682f133852f6798a09c465da95921460cefb38474024989060200160405180910390a15b5050565b610bea610cb2565b6001600160a01b038116610c4f5760405162461bcd60e51b815260206004820152602660248201527f4f776e61626c653a206e6577206f776e657220697320746865207a65726f206160448201526564647265737360d01b6064820152608401610b49565b610c5881610d0c565b50565b604080516001600160a01b038416602482015260448082018490528251808303909101815260649091019091526020810180516001600160e01b031663a9059cbb60e01b179052610cad908490610d8d565b505050565b6033546001600160a01b03163314610aae5760405162461bcd60e51b815260206004820181905260248201527f4f776e61626c653a2063616c6c6572206973206e6f7420746865206f776e65726044820152606401610b49565b603380546001600160a01b038381166001600160a01b0319831681179093556040519116919082907f8be0079c531659141344cd1fd0a4f28419497f9722a3daafe3b4186f6b6457e090600090a35050565b600054610100900460ff16610d855760405162461bcd60e51b8152600401610b499061118c565b610aae610e5f565b6000610de2826040518060400160405280602081526020017f5361666545524332303a206c6f772d6c6576656c2063616c6c206661696c6564815250856001600160a01b0316610e8f9092919063ffffffff16565b805190915015610cad5780806020019051810190610e0091906111d7565b610cad5760405162461bcd60e51b815260206004820152602a60248201527f5361666545524332303a204552433230206f7065726174696f6e20646964206e6044820152691bdd081cdd58d8d9595960b21b6064820152608401610b49565b600054610100900460ff16610e865760405162461bcd60e51b8152600401610b499061118c565b610aae33610d0c565b6060610e9e8484600085610ea6565b949350505050565b606082471015610f075760405162461bcd60e51b815260206004820152602660248201527f416464726573733a20696e73756666696369656e742062616c616e636520666f6044820152651c8818d85b1b60d21b6064820152608401610b49565b600080866001600160a01b03168587604051610f23919061121d565b60006040518083038185875af1925050503d8060008114610f60576040519150601f19603f3d011682016040523d82523d6000602084013e610f65565b606091505b5091509150610f7687838387610f81565b979650505050505050565b60608315610ff0578251600003610fe9576001600160a01b0385163b610fe95760405162461bcd60e51b815260206004820152601d60248201527f416464726573733a2063616c6c20746f206e6f6e2d636f6e74726163740000006044820152606401610b49565b5081610e9e565b610e9e83838151156110055781518083602001fd5b8060405162461bcd60e51b8152600401610b499190611239565b6001600160a01b0381168114610c5857600080fd5b60006020828403121561104657600080fd5b81356110518161101f565b9392505050565b60006020828403121561106a57600080fd5b81516110518161101f565b60006020828403121561108757600080fd5b5051919050565b634e487b7160e01b600052601160045260246000fd5b818103818111156110b7576110b761108e565b92915050565b808201808211156110b7576110b761108e565b6000606082840312156110e257600080fd5b6040516060810181811067ffffffffffffffff8211171561111357634e487b7160e01b600052604160045260246000fd5b80604052508251815260208301516020820152604083015160408201528091505092915050565b80820281158282048414176110b7576110b761108e565b60008261116e57634e487b7160e01b600052601260045260246000fd5b500490565b6000600182016111855761118561108e565b5060010190565b6020808252602b908201527f496e697469616c697a61626c653a20636f6e7472616374206973206e6f74206960408201526a6e697469616c697a696e6760a81b606082015260800190565b6000602082840312156111e957600080fd5b8151801515811461105157600080fd5b60005b838110156112145781810151838201526020016111fc565b50506000910152565b6000825161122f8184602087016111f9565b9190910192915050565b60208152600082518060208401526112588160408501602087016111f9565b601f01601f1916919091016040019291505056fea26469706673582212203e8e974abb4ab7760d716f35a3d086bac035bfcddf32739fd7406edaac8f19ae64736f6c63430008110033",
  "linkReferences": {},
  "deployedLinkReferences": {}
}