{
  "_format": "hh-sol-artifact-1",
  "contractName": "FeeDistributor",
  "sourceName": "contracts/protocol/FeeDistributor.sol",
  "abi": [
    {
      "inputs": [],
      "stateMutability": "nonpayable",
      "type": "constructor"
    },
    {
      "anonymous": false,
      "inputs": [
        {
          "indexed": false,
          "internalType": "uint8",
          "name": "version",
          "type": "uint8"
        }
      ],
      "name": "Initialized",
      "type": "event"
    },
    {
      "anonymous": false,
      "inputs": [
        {
          "indexed": true,
          "internalType": "address",
          "name": "previousOwner",
          "type": "address"
        },
        {
          "indexed": true,
          "internalType": "address",
          "name": "newOwner",
          "type": "address"
        }
      ],
      "name": "OwnershipTransferred",
      "type": "event"
    },
    {
      "inputs": [
        {
          "internalType": "address",
          "name": "token",
          "type": "address"
        }
      ],
      "name": "checkpoint",
      "outputs": [],
      "stateMutability": "nonpayable",
      "type": "function"
    },
    {
      "inputs": [
        {
          "internalType": "address",
          "name": "token",
          "type": "address"
        },
        {
          "internalType": "uint256",
          "name": "tokenId",
          "type": "uint256"
        }
      ],
      "name": "claim",
      "outputs": [
        {
          "internalType": "uint256",
          "name": "amountToClaim",
          "type": "uint256"
        }
      ],
      "stateMutability": "nonpayable",
      "type": "function"
    },
    {
      "inputs": [
        {
          "internalType": "address",
          "name": "token",
          "type": "address"
        },
        {
          "internalType": "uint256[]",
          "name": "tokensIds",
          "type": "uint256[]"
        }
      ],
      "name": "claimBatch",
      "outputs": [
        {
          "internalType": "uint256",
          "name": "amountToClaim",
          "type": "uint256"
        }
      ],
      "stateMutability": "nonpayable",
      "type": "function"
    },
    {
      "inputs": [
        {
          "internalType": "address",
          "name": "token",
          "type": "address"
        },
        {
          "internalType": "uint256",
          "name": "epoch",
          "type": "uint256"
        }
      ],
      "name": "getTotalFeesAt",
      "outputs": [
        {
          "internalType": "uint256",
          "name": "",
          "type": "uint256"
        }
      ],
      "stateMutability": "view",
      "type": "function"
    },
    {
      "inputs": [
        {
          "internalType": "contract IAddressProvider",
          "name": "AddressProvider",
          "type": "address"
        }
      ],
      "name": "initialize",
      "outputs": [],
      "stateMutability": "nonpayable",
      "type": "function"
    },
    {
      "inputs": [],
      "name": "owner",
      "outputs": [
        {
          "internalType": "address",
          "name": "",
          "type": "address"
        }
      ],
      "stateMutability": "view",
      "type": "function"
    },
    {
      "inputs": [],
      "name": "renounceOwnership",
      "outputs": [],
      "stateMutability": "nonpayable",
      "type": "function"
    },
    {
      "inputs": [
        {
          "internalType": "address",
          "name": "token",
          "type": "address"
        },
        {
          "internalType": "uint256",
          "name": "epoch",
          "type": "uint256"
        }
      ],
      "name": "salvageFees",
      "outputs": [],
      "stateMutability": "nonpayable",
      "type": "function"
    },
    {
      "inputs": [
        {
          "internalType": "address",
          "name": "newOwner",
          "type": "address"
        }
      ],
      "name": "transferOwnership",
      "outputs": [],
      "stateMutability": "nonpayable",
      "type": "function"
    }
  ],
  "bytecode": "0x608060405234801561001057600080fd5b5061001961001e565b6100de565b600054610100900460ff161561008a5760405162461bcd60e51b815260206004820152602760248201527f496e697469616c697a61626c653a20636f6e747261637420697320696e697469604482015266616c697a696e6760c81b606482015260840160405180910390fd5b60005460ff90811610156100dc576000805460ff191660ff9081179091556040519081527f7f26b83ff96e1f2b6a682f133852f6798a09c465da95921460cefb38474024989060200160405180910390a15b565b611c05806100ed6000396000f3fe608060405234801561001057600080fd5b50600436106100935760003560e01c80638da5cb5b116100665780638da5cb5b146100ee578063a972985e14610109578063aad3ec961461011c578063c4d66de81461012f578063f2fde38b1461014257600080fd5b80630893f4b31461009857806323418009146100be578063715018a6146100d35780637c04c80a146100db575b600080fd5b6100ab6100a63660046118d3565b610155565b6040519081526020015b60405180910390f35b6100d16100cc3660046118d3565b6102a4565b005b6100d1610544565b6100ab6100e93660046118ff565b610558565b6033546040516001600160a01b0390911681526020016100b5565b6100d1610117366004611987565b6105ac565b6100ab61012a3660046118d3565b610770565b6100d161013d366004611987565b61128e565b6100d1610150366004611987565b6113cb565b60975460408051630458184560e11b815290516000926001600160a01b0316916308b0308a9160048083019260209291908290030181865afa15801561019f573d6000803e3d6000fd5b505050506040513d601f19601f820116820180604052508101906101c391906119ab565b604051635e05e35d60e11b81524260048201526001600160a01b03919091169063bc0bc6ba90602401602060405180830381865afa158015610209573d6000803e3d6000fd5b505050506040513d601f19601f8201168201806040525081019061022d91906119c8565b8211156102785760405162461bcd60e51b815260206004820152601460248201527308c88748ea88c82748caaa8aaa48abe8aa09e86960631b60448201526064015b60405180910390fd5b506001600160a01b03821660009081526099602090815260408083208484529091529020545b92915050565b60975460408051630458184560e11b815290516000926001600160a01b0316916308b0308a9160048083019260209291908290030181865afa1580156102ee573d6000803e3d6000fd5b505050506040513d601f19601f8201168201806040525081019061031291906119ab565b604051635e05e35d60e11b81524260048201529091506000906001600160a01b0383169063bc0bc6ba90602401602060405180830381865afa15801561035c573d6000803e3d6000fd5b505050506040513d601f19601f8201168201806040525081019061038091906119c8565b90508083106103c85760405162461bcd60e51b815260206004820152601460248201527308c8874a6ac749c9ea8bea082a6a8be8aa09e86960631b604482015260640161026f565b6040516350735f6f60e01b8152600481018490526001600160a01b038316906350735f6f906024016020604051808303816000875af115801561040f573d6000803e3d6000fd5b505050506040513d601f19601f8201168201806040525081019061043391906119c8565b156104785760405162461bcd60e51b815260206004820152601560248201527446443a53563a434c41494d41424c455f46554e445360581b604482015260640161026f565b6001600160a01b03841660009081526099602090815260408083208684529091529020546104d95760405162461bcd60e51b815260206004820152600e60248201526d46443a53563a4e4f5f46554e445360901b604482015260640161026f565b6001600160a01b0384166000908152609960209081526040808320868452909152808220548383529082208054919290916105159084906119f7565b9091555050506001600160a01b0390921660009081526099602090815260408083209383529290529081205550565b61054c611444565b610556600061149e565b565b6000805b828110156105a4576105868585858481811061057a5761057a611a0a565b90506020020135610770565b61059090836119f7565b91508061059c81611a20565b91505061055c565b509392505050565b60975460408051630458184560e11b815290516000926001600160a01b0316916308b0308a9160048083019260209291908290030181865afa1580156105f6573d6000803e3d6000fd5b505050506040513d601f19601f8201168201806040525081019061061a91906119ab565b604051635e05e35d60e11b81524260048201526001600160a01b03919091169063bc0bc6ba90602401602060405180830381865afa158015610660573d6000803e3d6000fd5b505050506040513d601f19601f8201168201806040525081019061068491906119c8565b6040516370a0823160e01b81523060048201529091506000906001600160a01b038416906370a0823190602401602060405180830381865afa1580156106ce573d6000803e3d6000fd5b505050506040513d601f19601f820116820180604052508101906106f291906119c8565b6001600160a01b0384166000908152609b60205260409020549091506107189082611a39565b6001600160a01b03841660009081526099602090815260408083208684529091528120805490919061074b9084906119f7565b90915550506001600160a01b039092166000908152609b602052604090209190915550565b600061077a6114f0565b60975460408051630458184560e11b815290516000926001600160a01b0316916308b0308a9160048083019260209291908290030181865afa1580156107c4573d6000803e3d6000fd5b505050506040513d601f19601f820116820180604052508101906107e891906119ab565b6040516331a9108f60e11b8152600481018590529091506000906001600160a01b03831690636352211e90602401602060405180830381865afa158015610833573d6000803e3d6000fd5b505050506040513d601f19601f8201168201806040525081019061085791906119ab565b6001600160a01b0316036108a35760405162461bcd60e51b815260206004820152601360248201527211910e90ce9313d0d2d7d393d517d193d55391606a1b604482015260640161026f565b60405163435ba4eb60e11b8152600481018490526001600160a01b038216906386b749d690602401602060405180830381865afa1580156108e8573d6000803e3d6000fd5b505050506040513d601f19601f8201168201806040525081019061090c91906119c8565b60000361091d576000915050611284565b6001600160a01b0384166000908152609a602090815260408083208684529091528120549003610a52576040516364a1b95b60e01b815260048101849052600060248201526001600160a01b0382169063bc0bc6ba9082906364a1b95b90604401606060405180830381865afa15801561099b573d6000803e3d6000fd5b505050506040513d601f19601f820116820180604052508101906109bf9190611a4c565b604001516040518263ffffffff1660e01b81526004016109e191815260200190565b602060405180830381865afa1580156109fe573d6000803e3d6000fd5b505050506040513d601f19601f82011682018060405250810190610a2291906119c8565b610a2d9060016119f7565b6001600160a01b0385166000908152609a602090815260408083208784529091529020555b610a7660405180606001604052806000815260200160008152602001600081525090565b60008060008060005b6032811015611185576001600160a01b038a81166000908152609a602090815260408083208d845290915290819020549051635e05e35d60e11b81524260048201529095509088169063bc0bc6ba90602401602060405180830381865afa158015610aee573d6000803e3d6000fd5b505050506040513d601f19601f82011682018060405250810190610b1291906119c8565b841015611185576001600160a01b038a811660009081526098602090815260408083208d8452909152908190205490516364a1b95b60e01b8152600481018c905260248101829052909650908816906364a1b95b90604401606060405180830381865afa158015610b87573d6000803e3d6000fd5b505050506040513d601f19601f82011682018060405250810190610bab9190611a4c565b60405163b291824f60e01b8152600481018690529096506001600160a01b0388169063b291824f906024016020604051808303816000875af1158015610bf5573d6000803e3d6000fd5b505050506040513d601f19601f82011682018060405250810190610c1991906119c8565b60405163435ba4eb60e11b8152600481018b90529093506001906001600160a01b038916906386b749d690602401602060405180830381865afa158015610c64573d6000803e3d6000fd5b505050506040513d601f19601f82011682018060405250810190610c8891906119c8565b610c929190611a39565b8503610e1f576040516350735f6f60e01b8152600481018590526000906001600160a01b038916906350735f6f906024016020604051808303816000875af1158015610ce2573d6000803e3d6000fd5b505050506040513d601f19601f82011682018060405250810190610d0691906119c8565b1115610de6576040516350735f6f60e01b8152600481018590526001600160a01b038816906350735f6f906024016020604051808303816000875af1158015610d53573d6000803e3d6000fd5b505050506040513d601f19601f82011682018060405250810190610d7791906119c8565b6040870151610d869085611a39565b8760200151610d959190611ab6565b8751610da19190611a39565b6001600160a01b038c166000908152609960209081526040808320898452909152902054610dcf9190611ab6565b610dd99190611acd565b610de390896119f7565b97505b6001600160a01b038a166000908152609a602090815260408083208c84529091528120805491610e1583611a20565b9190505550611173565b6001600160a01b03871663bc0bc6ba816364a1b95b8c610e408a60016119f7565b6040516001600160e01b031960e085901b16815260048101929092526024820152604401606060405180830381865afa158015610e81573d6000803e3d6000fd5b505050506040513d601f19601f82011682018060405250810190610ea59190611a4c565b604001516040518263ffffffff1660e01b8152600401610ec791815260200190565b602060405180830381865afa158015610ee4573d6000803e3d6000fd5b505050506040513d601f19601f82011682018060405250810190610f0891906119c8565b6040808801519051635e05e35d60e11b81529193506001600160a01b0389169163bc0bc6ba91610f3e9160040190815260200190565b602060405180830381865afa158015610f5b573d6000803e3d6000fd5b505050506040513d601f19601f82011682018060405250810190610f7f91906119c8565b8203610fb4576001600160a01b038a1660009081526098602090815260408083208c84529091528120805491610e1583611a20565b6040516350735f6f60e01b8152600481018590526000906001600160a01b038916906350735f6f906024016020604051808303816000875af1158015610ffe573d6000803e3d6000fd5b505050506040513d601f19601f8201168201806040525081019061102291906119c8565b1115611102576040516350735f6f60e01b8152600481018590526001600160a01b038816906350735f6f906024016020604051808303816000875af115801561106f573d6000803e3d6000fd5b505050506040513d601f19601f8201168201806040525081019061109391906119c8565b60408701516110a29085611a39565b87602001516110b19190611ab6565b87516110bd9190611a39565b6001600160a01b038c1660009081526099602090815260408083208984529091529020546110eb9190611ab6565b6110f59190611acd565b6110ff90896119f7565b97505b83820361113e576001600160a01b038a1660009081526098602090815260408083208c8452909152812080549161113883611a20565b91905055505b6001600160a01b038a166000908152609a602090815260408083208c8452909152812080549161116d83611a20565b91905055505b8061117d81611a20565b915050610a7f565b50505050505060008211156112825760975460408051630458184560e11b81529051611282926001600160a01b0316916308b0308a9160048083019260209291908290030181865afa1580156111df573d6000803e3d6000fd5b505050506040513d601f19601f8201168201806040525081019061120391906119ab565b6001600160a01b0316636352211e856040518263ffffffff1660e01b815260040161123091815260200190565b602060405180830381865afa15801561124d573d6000803e3d6000fd5b505050506040513d601f19601f8201168201806040525081019061127191906119ab565b6001600160a01b0386169084611549565b505b61029e6001606555565b600054610100900460ff16158080156112ae5750600054600160ff909116105b806112c85750303b1580156112c8575060005460ff166001145b61132b5760405162461bcd60e51b815260206004820152602e60248201527f496e697469616c697a61626c653a20636f6e747261637420697320616c72656160448201526d191e481a5b9a5d1a585b1a5e995960921b606482015260840161026f565b6000805460ff19166001179055801561134e576000805461ff0019166101001790555b6113566115a7565b61135e6115d6565b6113666115a7565b609780546001600160a01b0319166001600160a01b03841617905580156113c7576000805461ff0019169055604051600181527f7f26b83ff96e1f2b6a682f133852f6798a09c465da95921460cefb38474024989060200160405180910390a15b5050565b6113d3611444565b6001600160a01b0381166114385760405162461bcd60e51b815260206004820152602660248201527f4f776e61626c653a206e6577206f776e657220697320746865207a65726f206160448201526564647265737360d01b606482015260840161026f565b6114418161149e565b50565b6033546001600160a01b031633146105565760405162461bcd60e51b815260206004820181905260248201527f4f776e61626c653a2063616c6c6572206973206e6f7420746865206f776e6572604482015260640161026f565b603380546001600160a01b038381166001600160a01b0319831681179093556040519116919082907f8be0079c531659141344cd1fd0a4f28419497f9722a3daafe3b4186f6b6457e090600090a35050565b6002606554036115425760405162461bcd60e51b815260206004820152601f60248201527f5265656e7472616e637947756172643a207265656e7472616e742063616c6c00604482015260640161026f565b6002606555565b604080516001600160a01b038416602482015260448082018490528251808303909101815260649091019091526020810180516001600160e01b031663a9059cbb60e01b17905261159b908490611605565b505050565b6001606555565b600054610100900460ff166115ce5760405162461bcd60e51b815260040161026f90611aef565b6105566116d7565b600054610100900460ff166115fd5760405162461bcd60e51b815260040161026f90611aef565b610556611707565b600061165a826040518060400160405280602081526020017f5361666545524332303a206c6f772d6c6576656c2063616c6c206661696c6564815250856001600160a01b031661172e9092919063ffffffff16565b80519091501561159b57808060200190518101906116789190611b3a565b61159b5760405162461bcd60e51b815260206004820152602a60248201527f5361666545524332303a204552433230206f7065726174696f6e20646964206e6044820152691bdd081cdd58d8d9595960b21b606482015260840161026f565b600054610100900460ff166116fe5760405162461bcd60e51b815260040161026f90611aef565b6105563361149e565b600054610100900460ff166115a05760405162461bcd60e51b815260040161026f90611aef565b606061173d8484600085611745565b949350505050565b6060824710156117a65760405162461bcd60e51b815260206004820152602660248201527f416464726573733a20696e73756666696369656e742062616c616e636520666f6044820152651c8818d85b1b60d21b606482015260840161026f565b600080866001600160a01b031685876040516117c29190611b80565b60006040518083038185875af1925050503d80600081146117ff576040519150601f19603f3d011682016040523d82523d6000602084013e611804565b606091505b509150915061181587838387611820565b979650505050505050565b6060831561188f578251600003611888576001600160a01b0385163b6118885760405162461bcd60e51b815260206004820152601d60248201527f416464726573733a2063616c6c20746f206e6f6e2d636f6e7472616374000000604482015260640161026f565b508161173d565b61173d83838151156118a45781518083602001fd5b8060405162461bcd60e51b815260040161026f9190611b9c565b6001600160a01b038116811461144157600080fd5b600080604083850312156118e657600080fd5b82356118f1816118be565b946020939093013593505050565b60008060006040848603121561191457600080fd5b833561191f816118be565b9250602084013567ffffffffffffffff8082111561193c57600080fd5b818601915086601f83011261195057600080fd5b81358181111561195f57600080fd5b8760208260051b850101111561197457600080fd5b6020830194508093505050509250925092565b60006020828403121561199957600080fd5b81356119a4816118be565b9392505050565b6000602082840312156119bd57600080fd5b81516119a4816118be565b6000602082840312156119da57600080fd5b5051919050565b634e487b7160e01b600052601160045260246000fd5b8082018082111561029e5761029e6119e1565b634e487b7160e01b600052603260045260246000fd5b600060018201611a3257611a326119e1565b5060010190565b8181038181111561029e5761029e6119e1565b600060608284031215611a5e57600080fd5b6040516060810181811067ffffffffffffffff82111715611a8f57634e487b7160e01b600052604160045260246000fd5b80604052508251815260208301516020820152604083015160408201528091505092915050565b808202811582820484141761029e5761029e6119e1565b600082611aea57634e487b7160e01b600052601260045260246000fd5b500490565b6020808252602b908201527f496e697469616c697a61626c653a20636f6e7472616374206973206e6f74206960408201526a6e697469616c697a696e6760a81b606082015260800190565b600060208284031215611b4c57600080fd5b815180151581146119a457600080fd5b60005b83811015611b77578181015183820152602001611b5f565b50506000910152565b60008251611b92818460208701611b5c565b9190910192915050565b6020815260008251806020840152611bbb816040850160208701611b5c565b601f01601f1916919091016040019291505056fea2646970667358221220e1e3f72cf756d2134e11d696f3476c4f122e805ec509e5bb149f45940adc891864736f6c63430008130033",
  "linkReferences": {},
  "deployedLinkReferences": {}
}