{
  "_format": "hh-sol-artifact-1",
  "contractName": "GaugeController",
  "sourceName": "contracts/protocol/Gauges/GaugeController.sol",
  "abi": [
    {
      "anonymous": false,
      "inputs": [
        {
          "indexed": true,
          "internalType": "address",
          "name": "gauge",
          "type": "address"
        },
        {
          "indexed": true,
          "internalType": "address",
          "name": "liquidityPool",
          "type": "address"
        }
      ],
      "name": "AddGauge",
      "type": "event"
    },
    {
      "anonymous": false,
      "inputs": [
        {
          "indexed": false,
          "internalType": "uint8",
          "name": "version",
          "type": "uint8"
        }
      ],
      "name": "Initialized",
      "type": "event"
    },
    {
      "anonymous": false,
      "inputs": [
        {
          "indexed": true,
          "internalType": "address",
          "name": "previousOwner",
          "type": "address"
        },
        {
          "indexed": true,
          "internalType": "address",
          "name": "newOwner",
          "type": "address"
        }
      ],
      "name": "OwnershipTransferred",
      "type": "event"
    },
    {
      "anonymous": false,
      "inputs": [
        {
          "indexed": true,
          "internalType": "address",
          "name": "gauge",
          "type": "address"
        },
        {
          "indexed": true,
          "internalType": "address",
          "name": "liquidityPool",
          "type": "address"
        }
      ],
      "name": "RemoveGauge",
      "type": "event"
    },
    {
      "anonymous": false,
      "inputs": [
        {
          "indexed": true,
          "internalType": "address",
          "name": "user",
          "type": "address"
        },
        {
          "indexed": true,
          "internalType": "address",
          "name": "gauge",
          "type": "address"
        },
        {
          "indexed": false,
          "internalType": "uint256",
          "name": "weight",
          "type": "uint256"
        }
      ],
      "name": "Vote",
      "type": "event"
    },
    {
      "inputs": [
        {
          "internalType": "address",
          "name": "gauge",
          "type": "address"
        }
      ],
      "name": "addGauge",
      "outputs": [],
      "stateMutability": "nonpayable",
      "type": "function"
    },
    {
      "inputs": [
        {
          "internalType": "address",
          "name": "liquidityPool",
          "type": "address"
        }
      ],
      "name": "getGauge",
      "outputs": [
        {
          "internalType": "address",
          "name": "",
          "type": "address"
        }
      ],
      "stateMutability": "view",
      "type": "function"
    },
    {
      "inputs": [
        {
          "internalType": "address",
          "name": "gauge",
          "type": "address"
        }
      ],
      "name": "getGaugeWeight",
      "outputs": [
        {
          "internalType": "uint256",
          "name": "",
          "type": "uint256"
        }
      ],
      "stateMutability": "view",
      "type": "function"
    },
    {
      "inputs": [
        {
          "internalType": "address",
          "name": "gauge",
          "type": "address"
        },
        {
          "internalType": "uint256",
          "name": "epoch",
          "type": "uint256"
        }
      ],
      "name": "getGaugeWeightAt",
      "outputs": [
        {
          "internalType": "uint256",
          "name": "",
          "type": "uint256"
        }
      ],
      "stateMutability": "nonpayable",
      "type": "function"
    },
    {
      "inputs": [],
      "name": "getTotalWeight",
      "outputs": [
        {
          "internalType": "uint256",
          "name": "",
          "type": "uint256"
        }
      ],
      "stateMutability": "view",
      "type": "function"
    },
    {
      "inputs": [
        {
          "internalType": "uint256",
          "name": "epoch",
          "type": "uint256"
        }
      ],
      "name": "getTotalWeightAt",
      "outputs": [
        {
          "internalType": "uint256",
          "name": "",
          "type": "uint256"
        }
      ],
      "stateMutability": "nonpayable",
      "type": "function"
    },
    {
      "inputs": [
        {
          "internalType": "contract IAddressesProvider",
          "name": "addressProvider",
          "type": "address"
        }
      ],
      "name": "initialize",
      "outputs": [],
      "stateMutability": "nonpayable",
      "type": "function"
    },
    {
      "inputs": [
        {
          "internalType": "address",
          "name": "gauge",
          "type": "address"
        }
      ],
      "name": "isGauge",
      "outputs": [
        {
          "internalType": "bool",
          "name": "",
          "type": "bool"
        }
      ],
      "stateMutability": "view",
      "type": "function"
    },
    {
      "inputs": [],
      "name": "owner",
      "outputs": [
        {
          "internalType": "address",
          "name": "",
          "type": "address"
        }
      ],
      "stateMutability": "view",
      "type": "function"
    },
    {
      "inputs": [
        {
          "internalType": "address",
          "name": "gauge",
          "type": "address"
        }
      ],
      "name": "removeGauge",
      "outputs": [],
      "stateMutability": "nonpayable",
      "type": "function"
    },
    {
      "inputs": [],
      "name": "renounceOwnership",
      "outputs": [],
      "stateMutability": "nonpayable",
      "type": "function"
    },
    {
      "inputs": [
        {
          "internalType": "address",
          "name": "newOwner",
          "type": "address"
        }
      ],
      "name": "transferOwnership",
      "outputs": [],
      "stateMutability": "nonpayable",
      "type": "function"
    },
    {
      "inputs": [
        {
          "internalType": "address",
          "name": "user",
          "type": "address"
        }
      ],
      "name": "userVoteRatio",
      "outputs": [
        {
          "internalType": "uint256",
          "name": "",
          "type": "uint256"
        }
      ],
      "stateMutability": "view",
      "type": "function"
    },
    {
      "inputs": [
        {
          "internalType": "address",
          "name": "user",
          "type": "address"
        },
        {
          "internalType": "address",
          "name": "gauge",
          "type": "address"
        }
      ],
      "name": "userVoteRatioForGauge",
      "outputs": [
        {
          "internalType": "uint256",
          "name": "",
          "type": "uint256"
        }
      ],
      "stateMutability": "view",
      "type": "function"
    },
    {
      "inputs": [
        {
          "internalType": "address",
          "name": "user",
          "type": "address"
        },
        {
          "internalType": "address",
          "name": "gauge",
          "type": "address"
        }
      ],
      "name": "userVoteWeightForGauge",
      "outputs": [
        {
          "internalType": "uint256",
          "name": "",
          "type": "uint256"
        }
      ],
      "stateMutability": "view",
      "type": "function"
    },
    {
      "inputs": [
        {
          "internalType": "address",
          "name": "gauge",
          "type": "address"
        },
        {
          "internalType": "uint256",
          "name": "ratio",
          "type": "uint256"
        }
      ],
      "name": "vote",
      "outputs": [],
      "stateMutability": "nonpayable",
      "type": "function"
    },
    {
      "inputs": [
        {
          "internalType": "address",
          "name": "gauge",
          "type": "address"
        }
      ],
      "name": "writeGaugeWeightHistory",
      "outputs": [],
      "stateMutability": "nonpayable",
      "type": "function"
    },
    {
      "inputs": [],
      "name": "writeTotalWeightHistory",
      "outputs": [],
      "stateMutability": "nonpayable",
      "type": "function"
    }
  ],
  "bytecode": "0x608060405234801561001057600080fd5b50611ae2806100206000396000f3fe608060405234801561001057600080fd5b50600436106101165760003560e01c806374a21324116100a2578063aa79979b11610071578063aa79979b1461022e578063b1c6f0e91461026a578063c341eea214610296578063c4d66de8146102a9578063f2fde38b146102bc57600080fd5b806374a21324146101db57806387da75ef146101ee5780638da5cb5b146101f65780639da882ac1461021b57600080fd5b806350735f6f116100e957806350735f6f146101715780635e1cfd30146101845780635f74bbde146101ad578063715018a6146101c057806372be5276146101c857600080fd5b80630327cbe71461011b57806306aba0e1146101415780632e8769f2146101495780633a0451451461015c575b600080fd5b61012e6101293660046117ee565b6102cf565b6040519081526020015b60405180910390f35b61012e61033e565b61012e6101573660046117ee565b610396565b61016f61016a366004611827565b61046b565b005b61012e61017f366004611844565b61057e565b61012e610192366004611827565b6001600160a01b03166000908152606e602052604090205490565b61016f6101bb36600461185d565b6105ad565b61016f610d3f565b61012e6101d6366004611827565b610d53565b61012e6101e936600461185d565b610e1e565b61016f610e9c565b6033546001600160a01b03165b6040516001600160a01b039091168152602001610138565b61016f610229366004611827565b611056565b61025a61023c366004611827565b6001600160a01b031660009081526071602052604090205460ff1690565b6040519015158152602001610138565b610203610278366004611827565b6001600160a01b039081166000908152607260205260409020541690565b61016f6102a4366004611827565b611136565b61016f6102b7366004611827565b6114d2565b61016f6102ca366004611827565b61165a565b6001600160a01b03811660009081526071602052604081205460ff166103105760405162461bcd60e51b815260040161030790611889565b60405180910390fd5b506001600160a01b038083166000908152606f60209081526040808320938516835292905220545b92915050565b606c5460009061034e90426118d6565b606b5461035b91906118e9565b606a54101561036a5750600090565b606c5461037790426118d6565b606b5461038491906118e9565b606a5461039191906118d6565b905090565b6001600160a01b03811660009081526071602052604081205460ff166103ce5760405162461bcd60e51b815260040161030790611889565b6001600160a01b0380841660009081526070602090815260408083209386168352929052206002015461040190426118d6565b6001600160a01b0380851660009081526070602090815260408083209387168352929052206001015461043491906118e9565b6001600160a01b0380851660009081526070602090815260408083209387168352929052205461046491906118d6565b9392505050565b6104736116d3565b6001600160a01b03811660009081526071602052604090205460ff166104ab5760405162461bcd60e51b815260040161030790611889565b6000816001600160a01b0316635fcbd2856040518163ffffffff1660e01b8152600401602060405180830381865afa1580156104eb573d6000803e3d6000fd5b505050506040513d601f19601f8201168201806040525081019061050f9190611900565b6001600160a01b03808216600081815260726020908152604080832080546001600160a01b03191690559387168083526071909152838220805460ff19169055925193945090927fd0a8f460dc5355ab99f1304f75d5222692bf3d8d855d956b42e24c2639e8cae99190a35050565b6000610588610e9c565b6069828154811061059b5761059b61191d565b90600052602060002001549050919050565b60655460408051630458184560e11b815290516000926001600160a01b0316916308b0308a9160048083019260209291908290030181865afa1580156105f7573d6000803e3d6000fd5b505050506040513d601f19601f8201168201806040525081019061061b9190611900565b60405163cbf9fe5f60e01b81523360048201529091506000906001600160a01b0383169063cbf9fe5f906024016040805180830381865afa158015610664573d6000803e3d6000fd5b505050506040513d601f19601f820116820180604052508101906106889190611933565b9050600083116106da5760405162461bcd60e51b815260206004820181905260248201527f566f746520726174696f206d75737420626520686967686572207468616e20306044820152606401610307565b336000818152606f602090815260408083206001600160a01b0389168452825280832054938352606e90915290205461271091906107189086611990565b61072291906118d6565b11156107835760405162461bcd60e51b815260206004820152602a60248201527f546f74616c20766f746520726174696f206d75737420626520736d616c6c6572604482015269207468616e203130302560b01b6064820152608401610307565b428160200151116107e85760405162461bcd60e51b815260206004820152602960248201527f4d757374206861766520616e2061637469766520766f746520696e206f7264656044820152687220746f20766f746560b81b6064820152608401610307565b805161084d5760405162461bcd60e51b815260206004820152602e60248201527f4d7573742068617665206c6f636b65642062616c616e6365206269676765722060448201526d7468616e203020746f20766f746560901b6064820152608401610307565b6001600160a01b03841660009081526071602052604090205460ff166108855760405162461bcd60e51b815260040161030790611889565b61088d610e9c565b61089684611136565b6040516304a9617360e41b815233600482018190526000916001600160a01b0385169163d7c6eaaf916001908490634a96173090602401602060405180830381865afa1580156108ea573d6000803e3d6000fd5b505050506040513d601f19601f8201168201806040525081019061090e91906119a3565b61091891906118d6565b6040516001600160e01b031960e085901b1681526001600160a01b0390921660048301526024820152604401606060405180830381865afa158015610961573d6000803e3d6000fd5b505050506040513d601f19601f8201168201806040525081019061098591906119bc565b90506109ab60405180606001604052806000815260200160008152602001600081525090565b60006127108684600001516109c091906118e9565b6109ca9190611a26565b905060006127108785602001516109e191906118e9565b6109eb9190611a26565b336000908152606f602090815260408083206001600160a01b038d16845290915290205490915015801590610a235750846020015142105b15610b0b573360009081526070602090815260408083206001600160a01b038c168452825280832060010154606883528184208984015185529092528220805491929091610a729084906118d6565b90915550503360009081526070602090815260408083206001600160a01b038c168452825280832060010154888301518452606d9092528220805491929091610abc9084906118d6565b90915550503360009081526070602090815260408083206001600160a01b038c168452825291829020825160608101845281548152600182015492810192909252600201549181019190915292505b6001600160a01b038816600090815260686020908152604080832088830151845290915281208054839290610b41908490611990565b90915550506020808601516000908152606d909152604081208054839290610b6a908490611990565b90915550508251610b7b90836118d6565b6001600160a01b03891660009081526067602052604081208054909190610ba3908490611990565b909155505060208084015190850151610bbc91906118d6565b6001600160a01b03891660009081526067602052604081206001018054909190610be7908490611990565b90915550506001600160a01b0388166000908152606760205260409020426002909101558251610c1790836118d6565b606a5560208084015190850151610c2e91906118d6565b606b8054600090610c40908490611990565b909155505042606c55336000818152606f602090815260408083206001600160a01b038d168452825280832054938352606e9091529020548891610c83916118d6565b610c8d9190611990565b336000818152606e6020908152604080832094909455606f81528382206001600160a01b038d168084529082528483208c905584516060810186528781528083018781528a8701518288019081528686526070855287862084875285529487902091518255516001820155925160029093019290925592518a815290927f66a9138482c99e9baf08860110ef332cc0c23b4a199a53593d8db0fc8f96fbfc910160405180910390a35050505050505050565b610d476116d3565b610d51600061172d565b565b6001600160a01b03811660009081526071602052604081205460ff16610d8b5760405162461bcd60e51b815260040161030790611889565b6001600160a01b0382166000908152606760209081526040918290208251606081018452815481526001820154928101929092526002015491810182905290610dd490426118d6565b8160200151610de391906118e9565b81511015610df45750600092915050565b6040810151610e0390426118d6565b8160200151610e1291906118e9565b815161046491906118d6565b6001600160a01b03821660009081526071602052604081205460ff16610e565760405162461bcd60e51b815260040161030790611889565b610e5f83611136565b6001600160a01b0383166000908152606660205260409020805483908110610e8957610e8961191d565b9060005260206000200154905092915050565b60655460408051630458184560e11b815290516000926001600160a01b0316916308b0308a9160048083019260209291908290030181865afa158015610ee6573d6000803e3d6000fd5b505050506040513d601f19601f82011682018060405250810190610f0a9190611900565b60695460405163196d044f60e11b81526001600160a01b0392909216916332da089e91610f3d9160040190815260200190565b6020604051808303816000875af1158015610f5c573d6000803e3d6000fd5b505050506040513d601f19601f82011682018060405250810190610f8091906119a3565b905060005b60808110156110395742821161103957606c54600090610fa590846118d6565b606b54610fb291906118e9565b606a54610fbf91906118d6565b60698054600181019091557f7fb4302e8e91f9110a6554c2c0a24601252c2a42c2220ca988efcfe39991430801819055606a819055606c8490556000848152606d6020526040812054606b8054939450909290919061101f9084906118d6565b90915550829150611031905081611a48565b915050610f85565b506110486201518060076118e9565b6110529082611990565b5050565b61105e6116d3565b6000816001600160a01b0316635fcbd2856040518163ffffffff1660e01b8152600401602060405180830381865afa15801561109e573d6000803e3d6000fd5b505050506040513d601f19601f820116820180604052508101906110c29190611900565b6001600160a01b03818116600081815260726020908152604080832080546001600160a01b03191695891695861790558483526071909152808220805460ff191660011790555193945090927f82ec1cbe428cca584a7a3ab0a9506a3c8583f7a8d14e3b81184c5c632e83420e9190a35050565b6001600160a01b03811660009081526071602052604090205460ff1661116e5760405162461bcd60e51b815260040161030790611889565b6001600160a01b03811660009081526066602052604081205490036112d5576001600160a01b0380821660009081526066602090815260408083208054600181018255908452828420018390558051606081018252838152808301939093526065548151630458184560e11b8152825194959286019491909216926308b0308a92600480820193918290030181865afa15801561120f573d6000803e3d6000fd5b505050506040513d601f19601f820116820180604052508101906112339190611900565b60405163196d044f60e11b8152600060048201526001600160a01b0391909116906332da089e906024016020604051808303816000875af115801561127c573d6000803e3d6000fd5b505050506040513d601f19601f820116820180604052508101906112a091906119a3565b90526001600160a01b038216600090815260676020908152604091829020835181559083015160018201559101516002909101555b60655460408051630458184560e11b815290516000926001600160a01b0316916308b0308a9160048083019260209291908290030181865afa15801561131f573d6000803e3d6000fd5b505050506040513d601f19601f820116820180604052508101906113439190611900565b6001600160a01b038381166000908152606660205260409081902054905163196d044f60e11b815260048101919091529116906332da089e906024016020604051808303816000875af115801561139e573d6000803e3d6000fd5b505050506040513d601f19601f820116820180604052508101906113c291906119a3565b905060005b60808110156114cd574282116114cd576001600160a01b0383166000908152606760205260408120600201546113fd90846118d6565b606b5461140a91906118e9565b6001600160a01b03851660009081526067602052604090205461142d91906118d6565b6001600160a01b0385166000818152606660209081526040808320805460018181018355918552838520018690558484526067808452828520878155600281018b9055606885528386208b875285529285205495855290925201805493945091926114999084906118d6565b909155506114ad90506201518060076118e9565b6114b79084611990565b92505080806114c590611a48565b9150506113c7565b505050565b600054610100900460ff16158080156114f25750600054600160ff909116105b8061150c5750303b15801561150c575060005460ff166001145b61156f5760405162461bcd60e51b815260206004820152602e60248201527f496e697469616c697a61626c653a20636f6e747261637420697320616c72656160448201526d191e481a5b9a5d1a585b1a5e995960921b6064820152608401610307565b6000805460ff191660011790558015611592576000805461ff0019166101001790555b61159a61177f565b606580546001600160a01b0319166001600160a01b0384161790556069805460018101825560009182527f7fb4302e8e91f9110a6554c2c0a24601252c2a42c2220ca988efcfe399914308018190556040805160608101825282815260208101839052429101819052606a829055606b91909155606c558015611052576000805461ff0019169055604051600181527f7f26b83ff96e1f2b6a682f133852f6798a09c465da95921460cefb38474024989060200160405180910390a15050565b6116626116d3565b6001600160a01b0381166116c75760405162461bcd60e51b815260206004820152602660248201527f4f776e61626c653a206e6577206f776e657220697320746865207a65726f206160448201526564647265737360d01b6064820152608401610307565b6116d08161172d565b50565b6033546001600160a01b03163314610d515760405162461bcd60e51b815260206004820181905260248201527f4f776e61626c653a2063616c6c6572206973206e6f7420746865206f776e65726044820152606401610307565b603380546001600160a01b038381166001600160a01b0319831681179093556040519116919082907f8be0079c531659141344cd1fd0a4f28419497f9722a3daafe3b4186f6b6457e090600090a35050565b600054610100900460ff166117a65760405162461bcd60e51b815260040161030790611a61565b610d51600054610100900460ff166117d05760405162461bcd60e51b815260040161030790611a61565b610d513361172d565b6001600160a01b03811681146116d057600080fd5b6000806040838503121561180157600080fd5b823561180c816117d9565b9150602083013561181c816117d9565b809150509250929050565b60006020828403121561183957600080fd5b8135610464816117d9565b60006020828403121561185657600080fd5b5035919050565b6000806040838503121561187057600080fd5b823561187b816117d9565b946020939093013593505050565b6020808252601e908201527f4761756765206973206e6f74206f6e20746865206761756765206c6973740000604082015260600190565b634e487b7160e01b600052601160045260246000fd5b81810381811115610338576103386118c0565b8082028115828204841417610338576103386118c0565b60006020828403121561191257600080fd5b8151610464816117d9565b634e487b7160e01b600052603260045260246000fd5b60006040828403121561194557600080fd5b6040516040810181811067ffffffffffffffff8211171561197657634e487b7160e01b600052604160045260246000fd5b604052825181526020928301519281019290925250919050565b80820180821115610338576103386118c0565b6000602082840312156119b557600080fd5b5051919050565b6000606082840312156119ce57600080fd5b6040516060810181811067ffffffffffffffff821117156119ff57634e487b7160e01b600052604160045260246000fd5b80604052508251815260208301516020820152604083015160408201528091505092915050565b600082611a4357634e487b7160e01b600052601260045260246000fd5b500490565b600060018201611a5a57611a5a6118c0565b5060010190565b6020808252602b908201527f496e697469616c697a61626c653a20636f6e7472616374206973206e6f74206960408201526a6e697469616c697a696e6760a81b60608201526080019056fea26469706673582212200fce85458e0aaff34034fe09e580a552489836efe7e0196c7f4f974ad952dd3064736f6c63430008110033",
  "linkReferences": {},
  "deployedLinkReferences": {}
}