{
  "_format": "hh-sol-artifact-1",
  "contractName": "GaugeController",
  "sourceName": "contracts/protocol/Gauges/GaugeControler.sol",
  "abi": [
    {
      "anonymous": false,
      "inputs": [
        {
          "indexed": true,
          "internalType": "address",
          "name": "reserve",
          "type": "address"
        },
        {
          "indexed": true,
          "internalType": "address",
          "name": "gauge",
          "type": "address"
        }
      ],
      "name": "AddGauge",
      "type": "event"
    },
    {
      "anonymous": false,
      "inputs": [
        {
          "indexed": false,
          "internalType": "uint8",
          "name": "version",
          "type": "uint8"
        }
      ],
      "name": "Initialized",
      "type": "event"
    },
    {
      "anonymous": false,
      "inputs": [
        {
          "indexed": true,
          "internalType": "address",
          "name": "previousOwner",
          "type": "address"
        },
        {
          "indexed": true,
          "internalType": "address",
          "name": "newOwner",
          "type": "address"
        }
      ],
      "name": "OwnershipTransferred",
      "type": "event"
    },
    {
      "anonymous": false,
      "inputs": [
        {
          "indexed": true,
          "internalType": "address",
          "name": "reserve",
          "type": "address"
        },
        {
          "indexed": true,
          "internalType": "address",
          "name": "gauge",
          "type": "address"
        }
      ],
      "name": "RemoveGauge",
      "type": "event"
    },
    {
      "anonymous": false,
      "inputs": [
        {
          "indexed": true,
          "internalType": "address",
          "name": "user",
          "type": "address"
        },
        {
          "indexed": true,
          "internalType": "address",
          "name": "gauge",
          "type": "address"
        },
        {
          "indexed": false,
          "internalType": "uint256",
          "name": "weight",
          "type": "uint256"
        }
      ],
      "name": "Vote",
      "type": "event"
    },
    {
      "inputs": [
        {
          "internalType": "address",
          "name": "reserve",
          "type": "address"
        },
        {
          "internalType": "address",
          "name": "gauge",
          "type": "address"
        }
      ],
      "name": "addGauge",
      "outputs": [],
      "stateMutability": "nonpayable",
      "type": "function"
    },
    {
      "inputs": [
        {
          "internalType": "address",
          "name": "reserve",
          "type": "address"
        }
      ],
      "name": "getGauge",
      "outputs": [
        {
          "internalType": "address",
          "name": "",
          "type": "address"
        }
      ],
      "stateMutability": "view",
      "type": "function"
    },
    {
      "inputs": [
        {
          "internalType": "address",
          "name": "gauge",
          "type": "address"
        }
      ],
      "name": "getGaugeWeight",
      "outputs": [
        {
          "internalType": "uint256",
          "name": "",
          "type": "uint256"
        }
      ],
      "stateMutability": "view",
      "type": "function"
    },
    {
      "inputs": [
        {
          "internalType": "address",
          "name": "gauge",
          "type": "address"
        },
        {
          "internalType": "uint256",
          "name": "epoch",
          "type": "uint256"
        }
      ],
      "name": "getGaugeWeightAt",
      "outputs": [
        {
          "internalType": "uint256",
          "name": "",
          "type": "uint256"
        }
      ],
      "stateMutability": "view",
      "type": "function"
    },
    {
      "inputs": [],
      "name": "getTotalWeight",
      "outputs": [
        {
          "internalType": "uint256",
          "name": "",
          "type": "uint256"
        }
      ],
      "stateMutability": "view",
      "type": "function"
    },
    {
      "inputs": [
        {
          "internalType": "uint256",
          "name": "epoch",
          "type": "uint256"
        }
      ],
      "name": "getTotalWeightAt",
      "outputs": [
        {
          "internalType": "uint256",
          "name": "",
          "type": "uint256"
        }
      ],
      "stateMutability": "view",
      "type": "function"
    },
    {
      "inputs": [
        {
          "internalType": "contract IAddressesProvider",
          "name": "addressProvider",
          "type": "address"
        }
      ],
      "name": "initialize",
      "outputs": [],
      "stateMutability": "nonpayable",
      "type": "function"
    },
    {
      "inputs": [
        {
          "internalType": "address",
          "name": "gauge",
          "type": "address"
        }
      ],
      "name": "isGauge",
      "outputs": [
        {
          "internalType": "bool",
          "name": "",
          "type": "bool"
        }
      ],
      "stateMutability": "view",
      "type": "function"
    },
    {
      "inputs": [],
      "name": "owner",
      "outputs": [
        {
          "internalType": "address",
          "name": "",
          "type": "address"
        }
      ],
      "stateMutability": "view",
      "type": "function"
    },
    {
      "inputs": [
        {
          "internalType": "address",
          "name": "reserve",
          "type": "address"
        },
        {
          "internalType": "address",
          "name": "gauge",
          "type": "address"
        }
      ],
      "name": "removeGauge",
      "outputs": [],
      "stateMutability": "nonpayable",
      "type": "function"
    },
    {
      "inputs": [],
      "name": "renounceOwnership",
      "outputs": [],
      "stateMutability": "nonpayable",
      "type": "function"
    },
    {
      "inputs": [
        {
          "internalType": "address",
          "name": "newOwner",
          "type": "address"
        }
      ],
      "name": "transferOwnership",
      "outputs": [],
      "stateMutability": "nonpayable",
      "type": "function"
    },
    {
      "inputs": [
        {
          "internalType": "address",
          "name": "user",
          "type": "address"
        },
        {
          "internalType": "address",
          "name": "gauge",
          "type": "address"
        }
      ],
      "name": "userGaugeVoteWeight",
      "outputs": [
        {
          "internalType": "uint256",
          "name": "",
          "type": "uint256"
        }
      ],
      "stateMutability": "view",
      "type": "function"
    },
    {
      "inputs": [
        {
          "internalType": "address",
          "name": "gauge",
          "type": "address"
        },
        {
          "internalType": "uint256",
          "name": "weight",
          "type": "uint256"
        }
      ],
      "name": "vote",
      "outputs": [],
      "stateMutability": "nonpayable",
      "type": "function"
    },
    {
      "inputs": [
        {
          "internalType": "address",
          "name": "user",
          "type": "address"
        }
      ],
      "name": "voteUserPower",
      "outputs": [
        {
          "internalType": "uint256",
          "name": "",
          "type": "uint256"
        }
      ],
      "stateMutability": "view",
      "type": "function"
    },
    {
      "inputs": [
        {
          "internalType": "address",
          "name": "gauge",
          "type": "address"
        }
      ],
      "name": "writeGaugeWeightHistory",
      "outputs": [],
      "stateMutability": "nonpayable",
      "type": "function"
    },
    {
      "inputs": [],
      "name": "writeTotalWeightHistory",
      "outputs": [],
      "stateMutability": "nonpayable",
      "type": "function"
    }
  ],
  "bytecode": "0x608060405234801561001057600080fd5b50611392806100206000396000f3fe608060405234801561001057600080fd5b506004361061010b5760003560e01c806387da75ef116100a2578063b1c6f0e911610071578063b1c6f0e914610249578063c341eea214610275578063c4d66de814610288578063ec73d9061461029b578063f2fde38b146102c457600080fd5b806387da75ef146101a75780638da5cb5b146101af5780639eeb4007146101d4578063aa79979b1461020d57600080fd5b8063715018a6116100de578063715018a61461016657806372be52761461016e57806374a2132414610181578063821ea9281461019457600080fd5b806306aba0e114610110578063162091651461012b57806350735f6f146101405780635f74bbde14610153575b600080fd5b6101186102d7565b6040519081526020015b60405180910390f35b61013e6101393660046110d5565b610306565b005b61011861014e36600461110e565b61037d565b61013e610161366004611127565b6103a4565b61013e610ab3565b61011861017c366004611153565b610ac7565b61011861018f366004611127565b610b30565b61013e6101a23660046110d5565b610b6e565b61013e610be0565b6033546001600160a01b03165b6040516001600160a01b039091168152602001610122565b6101186101e23660046110d5565b6001600160a01b039182166000908152606f6020908152604080832093909416825291909152205490565b61023961021b366004611153565b6001600160a01b031660009081526071602052604090205460ff1690565b6040519015158152602001610122565b6101bc610257366004611153565b6001600160a01b039081166000908152607060205260409020541690565b61013e610283366004611153565b610cc2565b61013e610296366004611153565b610e15565b6101186102a9366004611153565b6001600160a01b03166000908152606e602052604090205490565b61013e6102d2366004611153565b610f41565b606c546000906102e79042611186565b606b546102f49190611199565b606a546103019190611186565b905090565b61030e610fba565b6001600160a01b03828116600081815260706020908152604080832080546001600160a01b03191695871695861790558483526071909152808220805460ff19166001179055517f82ec1cbe428cca584a7a3ab0a9506a3c8583f7a8d14e3b81184c5c632e83420e9190a35050565b600060698281548110610392576103926111b0565b90600052602060002001549050919050565b60655460408051630458184560e11b815290516000926001600160a01b0316916308b0308a9160048083019260209291908290030181865afa1580156103ee573d6000803e3d6000fd5b505050506040513d601f19601f8201168201806040525081019061041291906111c6565b60405163cbf9fe5f60e01b81523360048201529091506000906001600160a01b0383169063cbf9fe5f906024016040805180830381865afa15801561045b573d6000803e3d6000fd5b505050506040513d601f19601f8201168201806040525081019061047f91906111e3565b9050600083118015610492575061271083105b6104f15760405162461bcd60e51b815260206004820152602560248201527f566f746520776569676874206d7573742062656c6f6e6720746f205b302c2031604482015264303030305d60d81b60648201526084015b60405180910390fd5b6001600160a01b0384166000908152606f60209081526040808320338452825280832054606e90925290912054612710919061052d9086611240565b6105379190611186565b111561057c5760405162461bcd60e51b8152602060048201526014602482015273566f746520706f776572206f766572203130302560601b60448201526064016104e8565b428160200151116105e15760405162461bcd60e51b815260206004820152602960248201527f4d757374206861766520616e2061637469766520766f746520696e206f7264656044820152687220746f20766f746560b81b60648201526084016104e8565b80516106465760405162461bcd60e51b815260206004820152602e60248201527f4d7573742068617665206c6f636b65642062616c616e6365206269676765722060448201526d7468616e203020746f20766f746560901b60648201526084016104e8565b61064e610be0565b61065784610cc2565b6040516304a9617360e41b815233600482018190526000916001600160a01b0385169163d7c6eaaf916001908490634a96173090602401602060405180830381865afa1580156106ab573d6000803e3d6000fd5b505050506040513d601f19601f820116820180604052508101906106cf9190611253565b6106d99190611186565b6040516001600160e01b031960e085901b1681526001600160a01b0390921660048301526024820152604401606060405180830381865afa158015610722573d6000803e3d6000fd5b505050506040513d601f19601f82011682018060405250810190610746919061126c565b6001600160a01b0386166000908152606f6020908152604080832033845290915290205490915015610814576001600160a01b0385166000818152606f6020908152604080832033845282528083206001810154948452606883528184206002909101548452909152812080549091906107c1908490611186565b90915550506001600160a01b0385166000908152606f60209081526040808320338452825280832060018101546002909101548452606d909252822080549192909161080e908490611186565b90915550505b6020808201516001600160a01b038716600090815260688352604080822086850151835290935291822080549192909161084f908490611240565b925050819055508060200151606d60008460200151815260200190815260200160002060008282546108819190611240565b90915550506001600160a01b0385166000908152606f602090815260408083203384529091529020546108b49085611186565b6001600160a01b038616600090815260676020526040812080549091906108dc908490611240565b90915550506001600160a01b0385166000908152606f60209081526040808320338452825290912060010154908201516109169190611186565b6001600160a01b03861660009081526067602052604081206001018054909190610941908490611240565b90915550506001600160a01b038516600090815260676020908152604080832042600290910155606f82528083203384529091529020546109829085611186565b606a556001600160a01b0385166000908152606f60209081526040808320338452825290912060010154908201516109ba9190611186565b606b80546000906109cc908490611240565b909155505042606c556001600160a01b0385166000908152606f60209081526040808320338452825280832054606e90925290912054610a0c9086611240565b610a169190611186565b336000818152606e6020908152604080832094909455835160608101855288815285820151818301908152878301518287019081526001600160a01b038c16808652606f8552878620878752855294879020925183559051600183015551600290910155925187815290927f66a9138482c99e9baf08860110ef332cc0c23b4a199a53593d8db0fc8f96fbfc910160405180910390a35050505050565b610abb610fba565b610ac56000611014565b565b6001600160a01b038116600090815260676020908152604080832081516060810183528154815260018201549381019390935260020154908201819052610b0e9042611186565b8160200151610b1d9190611199565b8151610b299190611186565b9392505050565b6001600160a01b0382166000908152606660205260408120805483908110610b5a57610b5a6111b0565b906000526020600020015490505b92915050565b610b76610fba565b6001600160a01b03808316600081815260706020908152604080832080546001600160a01b03191690559385168083526071909152838220805460ff1916905592517fd0a8f460dc5355ab99f1304f75d5222692bf3d8d855d956b42e24c2639e8cae99190a35050565b6000610bf0620151806007611199565b610bfe620151806007611199565b606c54610c0b91906112d6565b610c159190611199565b905060005b6080811015610cbe57610c31620151806007611199565b610c3b9083611240565b9150428211610cbe57606c54606990610c549042611186565b606b54610c619190611199565b606a54610c6e9190611186565b81546001810183556000928352602080842090910191909155838252606d90526040812054606b805491929091610ca6908490611240565b90915550819050610cb6816112f8565b915050610c1a565b5050565b6000610cd2620151806007611199565b610ce0620151806007611199565b6001600160a01b038416600090815260676020526040902060020154610d0691906112d6565b610d109190611199565b905060005b6080811015610e1057610d2c620151806007611199565b610d369083611240565b9150428211610e10576001600160a01b0383166000908152606660209081526040808320606790925290912060020154610d709042611186565b606b54610d7d9190611199565b6001600160a01b038516600090815260676020526040902054610da09190611186565b81546001818101845560009384526020808520909201929092556001600160a01b0386168084526068825260408085208786528352808520549185526067909252908320909101805491929091610df8908490611240565b90915550819050610e08816112f8565b915050610d15565b505050565b600054610100900460ff1615808015610e355750600054600160ff909116105b80610e4f5750303b158015610e4f575060005460ff166001145b610eb25760405162461bcd60e51b815260206004820152602e60248201527f496e697469616c697a61626c653a20636f6e747261637420697320616c72656160448201526d191e481a5b9a5d1a585b1a5e995960921b60648201526084016104e8565b6000805460ff191660011790558015610ed5576000805461ff0019166101001790555b610edd611066565b606580546001600160a01b0319166001600160a01b0384161790558015610cbe576000805461ff0019169055604051600181527f7f26b83ff96e1f2b6a682f133852f6798a09c465da95921460cefb38474024989060200160405180910390a15050565b610f49610fba565b6001600160a01b038116610fae5760405162461bcd60e51b815260206004820152602660248201527f4f776e61626c653a206e6577206f776e657220697320746865207a65726f206160448201526564647265737360d01b60648201526084016104e8565b610fb781611014565b50565b6033546001600160a01b03163314610ac55760405162461bcd60e51b815260206004820181905260248201527f4f776e61626c653a2063616c6c6572206973206e6f7420746865206f776e657260448201526064016104e8565b603380546001600160a01b038381166001600160a01b0319831681179093556040519116919082907f8be0079c531659141344cd1fd0a4f28419497f9722a3daafe3b4186f6b6457e090600090a35050565b600054610100900460ff1661108d5760405162461bcd60e51b81526004016104e890611311565b610ac5600054610100900460ff166110b75760405162461bcd60e51b81526004016104e890611311565b610ac533611014565b6001600160a01b0381168114610fb757600080fd5b600080604083850312156110e857600080fd5b82356110f3816110c0565b91506020830135611103816110c0565b809150509250929050565b60006020828403121561112057600080fd5b5035919050565b6000806040838503121561113a57600080fd5b8235611145816110c0565b946020939093013593505050565b60006020828403121561116557600080fd5b8135610b29816110c0565b634e487b7160e01b600052601160045260246000fd5b81810381811115610b6857610b68611170565b8082028115828204841417610b6857610b68611170565b634e487b7160e01b600052603260045260246000fd5b6000602082840312156111d857600080fd5b8151610b29816110c0565b6000604082840312156111f557600080fd5b6040516040810181811067ffffffffffffffff8211171561122657634e487b7160e01b600052604160045260246000fd5b604052825181526020928301519281019290925250919050565b80820180821115610b6857610b68611170565b60006020828403121561126557600080fd5b5051919050565b60006060828403121561127e57600080fd5b6040516060810181811067ffffffffffffffff821117156112af57634e487b7160e01b600052604160045260246000fd5b80604052508251815260208301516020820152604083015160408201528091505092915050565b6000826112f357634e487b7160e01b600052601260045260246000fd5b500490565b60006001820161130a5761130a611170565b5060010190565b6020808252602b908201527f496e697469616c697a61626c653a20636f6e7472616374206973206e6f74206960408201526a6e697469616c697a696e6760a81b60608201526080019056fea264697066735822122067cd9d735d6ba23ebc26feb7b5921754aebb85b0e802950ae3a56854a09e95fb64736f6c63430008110033",
  "linkReferences": {},
  "deployedLinkReferences": {}
}