{
  "_format": "hh-sol-artifact-1",
  "contractName": "GaugeController",
  "sourceName": "contracts/protocol/Gauges/GaugeController.sol",
  "abi": [
    {
      "inputs": [],
      "stateMutability": "nonpayable",
      "type": "constructor"
    },
    {
      "anonymous": false,
      "inputs": [
        {
          "indexed": true,
          "internalType": "address",
          "name": "gauge",
          "type": "address"
        },
        {
          "indexed": true,
          "internalType": "address",
          "name": "liquidityPool",
          "type": "address"
        }
      ],
      "name": "AddGauge",
      "type": "event"
    },
    {
      "anonymous": false,
      "inputs": [
        {
          "indexed": false,
          "internalType": "uint8",
          "name": "version",
          "type": "uint8"
        }
      ],
      "name": "Initialized",
      "type": "event"
    },
    {
      "anonymous": false,
      "inputs": [
        {
          "indexed": true,
          "internalType": "address",
          "name": "previousOwner",
          "type": "address"
        },
        {
          "indexed": true,
          "internalType": "address",
          "name": "newOwner",
          "type": "address"
        }
      ],
      "name": "OwnershipTransferred",
      "type": "event"
    },
    {
      "anonymous": false,
      "inputs": [
        {
          "indexed": true,
          "internalType": "address",
          "name": "gauge",
          "type": "address"
        },
        {
          "indexed": true,
          "internalType": "address",
          "name": "liquidityPool",
          "type": "address"
        }
      ],
      "name": "RemoveGauge",
      "type": "event"
    },
    {
      "anonymous": false,
      "inputs": [
        {
          "indexed": true,
          "internalType": "address",
          "name": "user",
          "type": "address"
        },
        {
          "indexed": true,
          "internalType": "uint256",
          "name": "tokenId",
          "type": "uint256"
        },
        {
          "indexed": true,
          "internalType": "address",
          "name": "gauge",
          "type": "address"
        },
        {
          "indexed": false,
          "internalType": "uint256",
          "name": "weight",
          "type": "uint256"
        }
      ],
      "name": "Vote",
      "type": "event"
    },
    {
      "inputs": [],
      "name": "INFLATION_PERIOD",
      "outputs": [
        {
          "internalType": "uint256",
          "name": "",
          "type": "uint256"
        }
      ],
      "stateMutability": "view",
      "type": "function"
    },
    {
      "inputs": [],
      "name": "LOADING_PERIOD",
      "outputs": [
        {
          "internalType": "uint256",
          "name": "",
          "type": "uint256"
        }
      ],
      "stateMutability": "view",
      "type": "function"
    },
    {
      "inputs": [],
      "name": "MAX_INFLATION_PERIODS",
      "outputs": [
        {
          "internalType": "uint256",
          "name": "",
          "type": "uint256"
        }
      ],
      "stateMutability": "view",
      "type": "function"
    },
    {
      "inputs": [
        {
          "internalType": "address",
          "name": "gauge",
          "type": "address"
        }
      ],
      "name": "addGauge",
      "outputs": [],
      "stateMutability": "nonpayable",
      "type": "function"
    },
    {
      "inputs": [
        {
          "internalType": "uint256",
          "name": "epoch",
          "type": "uint256"
        }
      ],
      "name": "getEpochRewards",
      "outputs": [
        {
          "internalType": "uint256",
          "name": "",
          "type": "uint256"
        }
      ],
      "stateMutability": "nonpayable",
      "type": "function"
    },
    {
      "inputs": [
        {
          "internalType": "address",
          "name": "liquidityPool",
          "type": "address"
        }
      ],
      "name": "getGauge",
      "outputs": [
        {
          "internalType": "address",
          "name": "",
          "type": "address"
        }
      ],
      "stateMutability": "view",
      "type": "function"
    },
    {
      "inputs": [
        {
          "internalType": "address",
          "name": "gauge",
          "type": "address"
        },
        {
          "internalType": "uint256",
          "name": "epoch",
          "type": "uint256"
        }
      ],
      "name": "getGaugeRewards",
      "outputs": [
        {
          "internalType": "uint256",
          "name": "rewards",
          "type": "uint256"
        }
      ],
      "stateMutability": "nonpayable",
      "type": "function"
    },
    {
      "inputs": [
        {
          "internalType": "address",
          "name": "gauge",
          "type": "address"
        }
      ],
      "name": "getGaugeWeight",
      "outputs": [
        {
          "internalType": "uint256",
          "name": "",
          "type": "uint256"
        }
      ],
      "stateMutability": "view",
      "type": "function"
    },
    {
      "inputs": [
        {
          "internalType": "address",
          "name": "gauge",
          "type": "address"
        },
        {
          "internalType": "uint256",
          "name": "epoch",
          "type": "uint256"
        }
      ],
      "name": "getGaugeWeightAt",
      "outputs": [
        {
          "internalType": "uint256",
          "name": "",
          "type": "uint256"
        }
      ],
      "stateMutability": "nonpayable",
      "type": "function"
    },
    {
      "inputs": [],
      "name": "getLPMaturityPeriod",
      "outputs": [
        {
          "internalType": "uint256",
          "name": "",
          "type": "uint256"
        }
      ],
      "stateMutability": "view",
      "type": "function"
    },
    {
      "inputs": [
        {
          "internalType": "uint256",
          "name": "epoch",
          "type": "uint256"
        }
      ],
      "name": "getRewardsCeiling",
      "outputs": [
        {
          "internalType": "uint256",
          "name": "",
          "type": "uint256"
        }
      ],
      "stateMutability": "view",
      "type": "function"
    },
    {
      "inputs": [],
      "name": "getTotalWeight",
      "outputs": [
        {
          "internalType": "uint256",
          "name": "",
          "type": "uint256"
        }
      ],
      "stateMutability": "view",
      "type": "function"
    },
    {
      "inputs": [
        {
          "internalType": "uint256",
          "name": "epoch",
          "type": "uint256"
        }
      ],
      "name": "getTotalWeightAt",
      "outputs": [
        {
          "internalType": "uint256",
          "name": "",
          "type": "uint256"
        }
      ],
      "stateMutability": "nonpayable",
      "type": "function"
    },
    {
      "inputs": [
        {
          "internalType": "contract IAddressesProvider",
          "name": "addressProvider",
          "type": "address"
        },
        {
          "internalType": "uint256",
          "name": "initialRewards",
          "type": "uint256"
        },
        {
          "internalType": "uint256",
          "name": "lpMaturityPeriod",
          "type": "uint256"
        }
      ],
      "name": "initialize",
      "outputs": [],
      "stateMutability": "nonpayable",
      "type": "function"
    },
    {
      "inputs": [
        {
          "internalType": "address",
          "name": "gauge",
          "type": "address"
        }
      ],
      "name": "isGauge",
      "outputs": [
        {
          "internalType": "bool",
          "name": "",
          "type": "bool"
        }
      ],
      "stateMutability": "view",
      "type": "function"
    },
    {
      "inputs": [
        {
          "internalType": "uint256",
          "name": "tokenId",
          "type": "uint256"
        },
        {
          "internalType": "address",
          "name": "gauge",
          "type": "address"
        }
      ],
      "name": "lockVotePointForGauge",
      "outputs": [
        {
          "components": [
            {
              "internalType": "uint256",
              "name": "bias",
              "type": "uint256"
            },
            {
              "internalType": "uint256",
              "name": "slope",
              "type": "uint256"
            },
            {
              "internalType": "uint256",
              "name": "timestamp",
              "type": "uint256"
            }
          ],
          "internalType": "struct DataTypes.Point",
          "name": "",
          "type": "tuple"
        }
      ],
      "stateMutability": "view",
      "type": "function"
    },
    {
      "inputs": [
        {
          "internalType": "uint256",
          "name": "tokenId",
          "type": "uint256"
        }
      ],
      "name": "lockVoteRatio",
      "outputs": [
        {
          "internalType": "uint256",
          "name": "",
          "type": "uint256"
        }
      ],
      "stateMutability": "view",
      "type": "function"
    },
    {
      "inputs": [
        {
          "internalType": "uint256",
          "name": "tokenId",
          "type": "uint256"
        },
        {
          "internalType": "address",
          "name": "gauge",
          "type": "address"
        }
      ],
      "name": "lockVoteRatioForGauge",
      "outputs": [
        {
          "internalType": "uint256",
          "name": "",
          "type": "uint256"
        }
      ],
      "stateMutability": "view",
      "type": "function"
    },
    {
      "inputs": [
        {
          "internalType": "uint256",
          "name": "tokenId",
          "type": "uint256"
        },
        {
          "internalType": "address",
          "name": "gauge",
          "type": "address"
        }
      ],
      "name": "lockVoteWeightForGauge",
      "outputs": [
        {
          "internalType": "uint256",
          "name": "",
          "type": "uint256"
        }
      ],
      "stateMutability": "view",
      "type": "function"
    },
    {
      "inputs": [],
      "name": "owner",
      "outputs": [
        {
          "internalType": "address",
          "name": "",
          "type": "address"
        }
      ],
      "stateMutability": "view",
      "type": "function"
    },
    {
      "inputs": [
        {
          "internalType": "address",
          "name": "gauge",
          "type": "address"
        }
      ],
      "name": "removeGauge",
      "outputs": [],
      "stateMutability": "nonpayable",
      "type": "function"
    },
    {
      "inputs": [],
      "name": "renounceOwnership",
      "outputs": [],
      "stateMutability": "nonpayable",
      "type": "function"
    },
    {
      "inputs": [
        {
          "internalType": "uint256",
          "name": "maturityPeriod",
          "type": "uint256"
        }
      ],
      "name": "setLPMaturityPeriod",
      "outputs": [],
      "stateMutability": "nonpayable",
      "type": "function"
    },
    {
      "inputs": [
        {
          "internalType": "address",
          "name": "newOwner",
          "type": "address"
        }
      ],
      "name": "transferOwnership",
      "outputs": [],
      "stateMutability": "nonpayable",
      "type": "function"
    },
    {
      "inputs": [
        {
          "internalType": "uint256",
          "name": "tokenId",
          "type": "uint256"
        },
        {
          "internalType": "address",
          "name": "gauge",
          "type": "address"
        },
        {
          "internalType": "uint256",
          "name": "ratio",
          "type": "uint256"
        }
      ],
      "name": "vote",
      "outputs": [],
      "stateMutability": "nonpayable",
      "type": "function"
    },
    {
      "inputs": [
        {
          "internalType": "address",
          "name": "gauge",
          "type": "address"
        }
      ],
      "name": "writeGaugeWeightHistory",
      "outputs": [],
      "stateMutability": "nonpayable",
      "type": "function"
    },
    {
      "inputs": [],
      "name": "writeTotalWeightHistory",
      "outputs": [],
      "stateMutability": "nonpayable",
      "type": "function"
    }
  ],
  "bytecode": "0x60806040523480156200001157600080fd5b506200001c62000022565b620000e4565b600054610100900460ff16156200008f5760405162461bcd60e51b815260206004820152602760248201527f496e697469616c697a61626c653a20636f6e747261637420697320696e697469604482015266616c697a696e6760c81b606482015260840160405180910390fd5b60005460ff9081161015620000e2576000805460ff191660ff9081179091556040519081527f7f26b83ff96e1f2b6a682f133852f6798a09c465da95921460cefb38474024989060200160405180910390a15b565b61285380620000f46000396000f3fe608060405234801561001057600080fd5b50600436106101a95760003560e01c80637db9ddb7116100f9578063ad43a91811610097578063c341eea211610071578063c341eea2146103b9578063c947755a146103cc578063d31e99bf146103d4578063f2fde38b146103e757600080fd5b8063ad43a91814610372578063b1c6f0e914610385578063c057beee146103b157600080fd5b806387da75ef116100d357806387da75ef146102f65780638da5cb5b146102fe5780639da882ac14610323578063aa79979b1461033657600080fd5b80637db9ddb7146102b0578063827344e8146102c3578063832cab78146102d657600080fd5b80636040b3b71161016657806372be52761161014057806372be52761461026f57806374a21324146102825780637a1ac61e146102955780637be27d79146102a857600080fd5b80636040b3b71461022a57806362bdcef01461025f578063715018a61461026757600080fd5b806304422e0c146101ae57806306aba0e1146101c35780633a045145146101de5780634de8737c146101f157806350735f6f146102045780635f0c0f2b14610217575b600080fd5b6101c16101bc36600461241e565b6103fa565b005b6101cb61045c565b6040519081526020015b60405180910390f35b6101c16101ec36600461244c565b6104b4565b6101c16101ff366004612469565b61061b565b6101cb61021236600461241e565b610ecf565b6101cb61022536600461241e565b61101b565b61023d6102383660046124a1565b61128c565b60408051825181526020808401519082015291810151908201526060016101d5565b6101cb600881565b6101c161135b565b6101cb61027d36600461244c565b61136f565b6101cb6102903660046124d1565b611468565b6101c16102a33660046124fd565b611636565b6101cb601881565b6101cb6102be3660046124a1565b6117cb565b6101cb6102d13660046124a1565b611855565b6101cb6102e436600461241e565b6000908152606e602052604090205490565b6101c16119b5565b6033546001600160a01b03165b6040516001600160a01b0390911681526020016101d5565b6101c161033136600461244c565b611bc3565b61036261034436600461244c565b6001600160a01b031660009081526071602052604090205460ff1690565b60405190151581526020016101d5565b6101cb6103803660046124d1565b611ca3565b61030b61039336600461244c565b6001600160a01b039081166000908152607260205260409020541690565b6074546101cb565b6101c16103c736600461244c565b611e71565b6101cb603481565b6101cb6103e236600461241e565b612246565b6101c16103f536600461244c565b61229f565b610402612318565b600081116104575760405162461bcd60e51b815260206004820181905260248201527f47433a534c504d503a494e56414c49445f4d415455524954595f504552494f4460448201526064015b60405180910390fd5b607455565b606c5460009061046c9042612548565b606b54610479919061255b565b606a5410156104885750600090565b606c546104959042612548565b606b546104a2919061255b565b606a546104af9190612548565b905090565b6104bc612318565b6001600160a01b03811660009081526071602052604090205460ff1661051a5760405162461bcd60e51b815260206004820152601360248201527247433a52473a494e56414c49445f474155474560681b604482015260640161044e565b6000816001600160a01b0316635fcbd2856040518163ffffffff1660e01b8152600401602060405180830381865afa15801561055a573d6000803e3d6000fd5b505050506040513d601f19601f8201168201806040525081019061057e9190612572565b6001600160a01b038082166000908152607260205260409020549192508084169116036105cc576001600160a01b038116600090815260726020526040902080546001600160a01b03191690555b6001600160a01b03808316600081815260716020526040808220805460ff1916905551928416927fd0a8f460dc5355ab99f1304f75d5222692bf3d8d855d956b42e24c2639e8cae99190a35050565b60655460408051630458184560e11b815290516000926001600160a01b0316916308b0308a9160048083019260209291908290030181865afa158015610665573d6000803e3d6000fd5b505050506040513d601f19601f820116820180604052508101906106899190612572565b6040516331a9108f60e11b81526004810186905290915033906001600160a01b03831690636352211e90602401602060405180830381865afa1580156106d3573d6000803e3d6000fd5b505050506040513d601f19601f820116820180604052508101906106f79190612572565b6001600160a01b0316146107435760405162461bcd60e51b815260206004820152601360248201527223a19d2b1d2727aa2fa627a1a5afa7aba722a960691b604482015260640161044e565b604051635a2d1e0760e11b8152600481018590526000906001600160a01b0383169063b45a3c0e906024016040805180830381865afa15801561078a573d6000803e3d6000fd5b505050506040513d601f19601f820116820180604052508101906107ae919061258f565b6000868152606f602090815260408083206001600160a01b0389168452825280832054898452606e90925290912054919250612710916107ee90866125ec565b6107f89190612548565b111561083b5760405162461bcd60e51b815260206004820152601260248201527147433a563a494e56414c49445f524154494f60701b604482015260640161044e565b428160200151118061084b575082155b61088b5760405162461bcd60e51b815260206004820152601160248201527011d0ce958e9313d0d2d7d1561412549151607a1b604482015260640161044e565b80516108d95760405162461bcd60e51b815260206004820152601860248201527f47433a563a4c4f434b45445f42414c414e43455f5a45524f0000000000000000604482015260640161044e565b6001600160a01b03841660009081526071602052604090205460ff166109365760405162461bcd60e51b815260206004820152601260248201527147433a563a494e56414c49445f474155474560701b604482015260640161044e565b61093e6119b5565b61094784611e71565b6000826001600160a01b03166364a1b95b876001866001600160a01b031663744214868b6040518263ffffffff1660e01b815260040161098991815260200190565b602060405180830381865afa1580156109a6573d6000803e3d6000fd5b505050506040513d601f19601f820116820180604052508101906109ca91906125ff565b6109d49190612548565b6040516001600160e01b031960e085901b16815260048101929092526024820152604401606060405180830381865afa158015610a15573d6000803e3d6000fd5b505050506040513d601f19601f82011682018060405250810190610a399190612618565b9050610a5f60405180606001604052806000815260200160008152602001600081525090565b610a8360405180606001604052806000815260200160008152602001600081525090565b61271086846040015142610a979190612548565b8560200151610aa6919061255b565b8551610ab29190612548565b610abc919061255b565b610ac69190612682565b8152602083015161271090610adc90889061255b565b610ae69190612682565b6020808301919091524260408084019190915260008a8152606f83528181206001600160a01b038b16825290925290205415801590610b285750836020015142105b15610c205760008881526070602090815260408083206001600160a01b038b168452909152902060020154610b5d9042612548565b60008981526070602090815260408083206001600160a01b038c168452909152902060010154610b8d919061255b565b825260008881526070602090815260408083206001600160a01b038b16808552908352818420600101548387018190524283880152908452606883528184208884015185529092528220805491929091610be8908490612548565b925050819055508160200151606d6000866020015181526020019081526020016000206000828254610c1a9190612548565b90915550505b6020808201516001600160a01b0389166000908152606883526040808220888501518352909352918220805491929091610c5b9084906125ec565b925050819055508060200151606d6000866020015181526020019081526020016000206000828254610c8d91906125ec565b9091555050815181516001600160a01b038916600090815260676020526040902060020154610cbc9042612548565b6001600160a01b038a16600090815260676020526040902060010154610ce2919061255b565b6001600160a01b038a16600090815260676020526040902054610d059190612548565b610d0f91906125ec565b610d199190612548565b6001600160a01b038816600090815260676020908152604090912091825583810151908301516001909201549091610d50916125ec565b610d5a9190612548565b6001600160a01b0388166000908152606760205260409020600181019190915542600290910181905582518251606c5491929091610d9791612548565b606b54610da4919061255b565b606a54610db19190612548565b610dbb91906125ec565b610dc59190612548565b606a5560208083015190820151606b54610ddf91906125ec565b610de99190612548565b606b5542606c556000888152606f602090815260408083206001600160a01b038b1684528252808320548b8452606e90925290912054610e2990886125ec565b610e339190612548565b6000898152606e6020908152604080832093909355606f81528282206001600160a01b038b168084529082528383208a90558b8352607082528383208184528252918390208451815584820151600182015584840151600290910155915188815290918a9133917f26d331fe2c57870421b3b095caa4314147214aba97e799945d1579ebfe5e08ad910160405180910390a45050505050505050565b60655460408051630458184560e11b815290516000926001600160a01b0316916308b0308a9160048083019260209291908290030181865afa158015610f19573d6000803e3d6000fd5b505050506040513d601f19601f82011682018060405250810190610f3d9190612572565b604051635487c57760e01b81524260048201526001600160a01b039190911690635487c57790602401602060405180830381865afa158015610f83573d6000803e3d6000fd5b505050506040513d601f19601f82011682018060405250810190610fa791906125ff565b821115610fee5760405162461bcd60e51b815260206004820152601560248201527408e86748ea8ae8274929cac82989288be8aa09e869605b1b604482015260640161044e565b610ff66119b5565b60698281548110611009576110096126a4565b90600052602060002001549050919050565b60655460408051630458184560e11b815290516000926001600160a01b0316916308b0308a9160048083019260209291908290030181865afa158015611065573d6000803e3d6000fd5b505050506040513d601f19601f820116820180604052508101906110899190612572565b604051635487c57760e01b81524260048201526001600160a01b039190911690635487c57790602401602060405180830381865afa1580156110cf573d6000803e3d6000fd5b505050506040513d601f19601f820116820180604052508101906110f391906125ff565b8211156111395760405162461bcd60e51b815260206004820152601460248201527308e86748e8aa474929cac82989288be8aa09e86960631b604482015260640161044e565b61114282610ecf565b60000361115157506000919050565b61115e600361271061279e565b61116783612246565b60036005606560009054906101000a90046001600160a01b03166001600160a01b03166308b0308a6040518163ffffffff1660e01b8152600401602060405180830381865afa1580156111be573d6000803e3d6000fd5b505050506040513d601f19601f820116820180604052508101906111e29190612572565b6001600160a01b031663b263bb3b876040518263ffffffff1660e01b815260040161120f91815260200190565b6020604051808303816000875af115801561122e573d6000803e3d6000fd5b505050506040513d601f19601f8201168201806040525081019061125291906125ff565b61125c9190612682565b61126890612710612548565b611272919061279e565b61127c919061255b565b6112869190612682565b92915050565b6112b060405180606001604052806000815260200160008152602001600081525090565b6001600160a01b03821660009081526071602052604090205460ff166113115760405162461bcd60e51b815260206004820152601660248201527547433a4c565046473a494e56414c49445f474155474560501b604482015260640161044e565b5060009182526070602090815260408084206001600160a01b0393909316845291815291819020815160608101835281548152600182015493810193909352600201549082015290565b611363612318565b61136d6000612372565b565b6001600160a01b03811660009081526071602052604081205460ff166113ce5760405162461bcd60e51b815260206004820152601460248201527347433a4747573a494e56414c49445f474155474560601b604482015260640161044e565b6001600160a01b03821660009081526067602090815260409182902082516060810184528154815260018201549281019290925260020154918101829052906114179042612548565b8160200151611426919061255b565b815110156114375750600092915050565b60408101516114469042612548565b8160200151611455919061255b565b81516114619190612548565b9392505050565b6001600160a01b03821660009081526071602052604081205460ff166114c85760405162461bcd60e51b815260206004820152601560248201527447433a474757413a494e56414c49445f474155474560581b604482015260640161044e565b606560009054906101000a90046001600160a01b03166001600160a01b03166308b0308a6040518163ffffffff1660e01b8152600401602060405180830381865afa15801561151b573d6000803e3d6000fd5b505050506040513d601f19601f8201168201806040525081019061153f9190612572565b604051635487c57760e01b81524260048201526001600160a01b039190911690635487c57790602401602060405180830381865afa158015611585573d6000803e3d6000fd5b505050506040513d601f19601f820116820180604052508101906115a991906125ff565b8211156115f05760405162461bcd60e51b815260206004820152601560248201527408e86748e8eae8274929cac82989288be8aa09e869605b1b604482015260640161044e565b6115f983611e71565b6001600160a01b0383166000908152606660205260409020805483908110611623576116236126a4565b9060005260206000200154905092915050565b600054610100900460ff16158080156116565750600054600160ff909116105b806116705750303b158015611670575060005460ff166001145b6116d35760405162461bcd60e51b815260206004820152602e60248201527f496e697469616c697a61626c653a20636f6e747261637420697320616c72656160448201526d191e481a5b9a5d1a585b1a5e995960921b606482015260840161044e565b6000805460ff1916600117905580156116f6576000805461ff0019166101001790555b6116fe6123c4565b606580546001600160a01b0319166001600160a01b038616179055607383905560748290556069805460018101825560009182527f7fb4302e8e91f9110a6554c2c0a24601252c2a42c2220ca988efcfe399914308018190556040805160608101825282815260208101839052429101819052606a829055606b91909155606c5580156117c5576000805461ff0019169055604051600181527f7f26b83ff96e1f2b6a682f133852f6798a09c465da95921460cefb38474024989060200160405180910390a15b50505050565b6001600160a01b03811660009081526071602052604081205460ff1661182c5760405162461bcd60e51b815260206004820152601660248201527547433a4c565246473a494e56414c49445f474155474560501b604482015260640161044e565b506000918252606f602090815260408084206001600160a01b0393909316845291905290205490565b6001600160a01b03811660009081526071602052604081205460ff166118b65760405162461bcd60e51b815260206004820152601660248201527547433a4c565746473a494e56414c49445f474155474560501b604482015260640161044e565b60008381526070602090815260408083206001600160a01b0386168452909152902080546002909101546118ea9042612548565b60008581526070602090815260408083206001600160a01b038816845290915290206001015461191a919061255b565b111561192857506000611286565b60008381526070602090815260408083206001600160a01b03861684529091529020600201546119589042612548565b60008481526070602090815260408083206001600160a01b0387168452909152902060010154611988919061255b565b60008481526070602090815260408083206001600160a01b03871684529091529020546114619190612548565b60655460408051630458184560e11b815290516000926001600160a01b0316916308b0308a9160048083019260209291908290030181865afa1580156119ff573d6000803e3d6000fd5b505050506040513d601f19601f82011682018060405250810190611a239190612572565b60695460405163196d044f60e11b815260048101919091529091506000906001600160a01b038316906332da089e906024016020604051808303816000875af1158015611a74573d6000803e3d6000fd5b505050506040513d601f19601f82011682018060405250810190611a9891906125ff565b90506000826001600160a01b031663b5b7a1846040518163ffffffff1660e01b8152600401602060405180830381865afa158015611ada573d6000803e3d6000fd5b505050506040513d601f19601f82011682018060405250810190611afe91906125ff565b905060005b60808110156117c5574283116117c557606c54600090611b239085612548565b606b54611b30919061255b565b606a54611b3d9190612548565b60698054600181019091557f7fb4302e8e91f9110a6554c2c0a24601252c2a42c2220ca988efcfe39991430801819055606a819055606c8590556000858152606d6020526040812054606b80549394509092909190611b9d908490612548565b90915550611bad905083856125ec565b9350508080611bbb906127ad565b915050611b03565b611bcb612318565b6000816001600160a01b0316635fcbd2856040518163ffffffff1660e01b8152600401602060405180830381865afa158015611c0b573d6000803e3d6000fd5b505050506040513d601f19601f82011682018060405250810190611c2f9190612572565b6001600160a01b03818116600081815260726020908152604080832080546001600160a01b03191695891695861790558483526071909152808220805460ff191660011790555193945090927f82ec1cbe428cca584a7a3ab0a9506a3c8583f7a8d14e3b81184c5c632e83420e9190a35050565b6001600160a01b03821660009081526071602052604081205460ff16611d025760405162461bcd60e51b815260206004820152601460248201527347433a4747523a494e56414c49445f474155474560601b604482015260640161044e565b606560009054906101000a90046001600160a01b03166001600160a01b03166308b0308a6040518163ffffffff1660e01b8152600401602060405180830381865afa158015611d55573d6000803e3d6000fd5b505050506040513d601f19601f82011682018060405250810190611d799190612572565b604051635487c57760e01b81524260048201526001600160a01b039190911690635487c57790602401602060405180830381865afa158015611dbf573d6000803e3d6000fd5b505050506040513d601f19601f82011682018060405250810190611de391906125ff565b821115611e295760405162461bcd60e51b815260206004820152601460248201527308e86748e8ea474929cac82989288be8aa09e86960631b604482015260640161044e565b611e3282610ecf565b600003611e4157506000611286565b611e4a82610ecf565b611e548484611468565b611e5d8461101b565b611e67919061255b565b6114619190612682565b6001600160a01b03811660009081526071602052604090205460ff16611ed05760405162461bcd60e51b815260206004820152601460248201527347433a5747573a494e56414c49445f474155474560601b604482015260640161044e565b60655460408051630458184560e11b815290516000926001600160a01b0316916308b0308a9160048083019260209291908290030181865afa158015611f1a573d6000803e3d6000fd5b505050506040513d601f19601f82011682018060405250810190611f3e9190612572565b6001600160a01b03831660009081526066602052604081205491925003612042576001600160a01b0380831660009081526066602090815260408083208054600181018255908452828420018390558051606081018252838152918201839052805163196d044f60e11b8152919390840192908516916332da089e91611fca9160040190815260200190565b6020604051808303816000875af1158015611fe9573d6000803e3d6000fd5b505050506040513d601f19601f8201168201806040525081019061200d91906125ff565b90526001600160a01b038316600090815260676020908152604091829020835181559083015160018201559101516002909101555b6000816001600160a01b031663b5b7a1846040518163ffffffff1660e01b8152600401602060405180830381865afa158015612082573d6000803e3d6000fd5b505050506040513d601f19601f820116820180604052508101906120a691906125ff565b6001600160a01b0384811660009081526066602052604080822054905163196d044f60e11b8152600481019190915292935091908416906332da089e906024016020604051808303816000875af1158015612105573d6000803e3d6000fd5b505050506040513d601f19601f8201168201806040525081019061212991906125ff565b905060005b608081101561223f5742821161223f576001600160a01b0385166000908152606760205260408120600201546121649084612548565b6001600160a01b03871660009081526067602052604090206001015461218a919061255b565b6001600160a01b0387166000908152606760205260409020546121ad9190612548565b6001600160a01b0387166000818152606660209081526040808320805460018181018355918552838520018690558484526067808452828520878155600281018b9055606885528386208b87528552928520549585529092520180549394509192612219908490612548565b90915550612229905084846125ec565b9250508080612237906127ad565b91505061212e565b5050505050565b600080612254603484612682565b9050601883101561226f57601883607354611e67919061255b565b600881111561227c575060085b6122878160046127c6565b6122928260036127c6565b607354611e67919061255b565b6122a7612318565b6001600160a01b03811661230c5760405162461bcd60e51b815260206004820152602660248201527f4f776e61626c653a206e6577206f776e657220697320746865207a65726f206160448201526564647265737360d01b606482015260840161044e565b61231581612372565b50565b6033546001600160a01b0316331461136d5760405162461bcd60e51b815260206004820181905260248201527f4f776e61626c653a2063616c6c6572206973206e6f7420746865206f776e6572604482015260640161044e565b603380546001600160a01b038381166001600160a01b0319831681179093556040519116919082907f8be0079c531659141344cd1fd0a4f28419497f9722a3daafe3b4186f6b6457e090600090a35050565b600054610100900460ff166123eb5760405162461bcd60e51b815260040161044e906127d2565b61136d600054610100900460ff166124155760405162461bcd60e51b815260040161044e906127d2565b61136d33612372565b60006020828403121561243057600080fd5b5035919050565b6001600160a01b038116811461231557600080fd5b60006020828403121561245e57600080fd5b813561146181612437565b60008060006060848603121561247e57600080fd5b83359250602084013561249081612437565b929592945050506040919091013590565b600080604083850312156124b457600080fd5b8235915060208301356124c681612437565b809150509250929050565b600080604083850312156124e457600080fd5b82356124ef81612437565b946020939093013593505050565b60008060006060848603121561251257600080fd5b833561251d81612437565b95602085013595506040909401359392505050565b634e487b7160e01b600052601160045260246000fd5b8181038181111561128657611286612532565b808202811582820484141761128657611286612532565b60006020828403121561258457600080fd5b815161146181612437565b6000604082840312156125a157600080fd5b6040516040810181811067ffffffffffffffff821117156125d257634e487b7160e01b600052604160045260246000fd5b604052825181526020928301519281019290925250919050565b8082018082111561128657611286612532565b60006020828403121561261157600080fd5b5051919050565b60006060828403121561262a57600080fd5b6040516060810181811067ffffffffffffffff8211171561265b57634e487b7160e01b600052604160045260246000fd5b80604052508251815260208301516020820152604083015160408201528091505092915050565b60008261269f57634e487b7160e01b600052601260045260246000fd5b500490565b634e487b7160e01b600052603260045260246000fd5b600181815b808511156126f55781600019048211156126db576126db612532565b808516156126e857918102915b93841c93908002906126bf565b509250929050565b60008261270c57506001611286565b8161271957506000611286565b816001811461272f576002811461273957612755565b6001915050611286565b60ff84111561274a5761274a612532565b50506001821b611286565b5060208310610133831016604e8410600b8410161715612778575081810a611286565b61278283836126ba565b806000190482111561279657612796612532565b029392505050565b600061146160ff8416836126fd565b6000600182016127bf576127bf612532565b5060010190565b600061146183836126fd565b6020808252602b908201527f496e697469616c697a61626c653a20636f6e7472616374206973206e6f74206960408201526a6e697469616c697a696e6760a81b60608201526080019056fea264697066735822122053ab19305d0a2e6f69bb62b939682138b20801fb836dcd130c61b7e20b13fe4064736f6c63430008130033",
  "linkReferences": {},
  "deployedLinkReferences": {}
}