{
  "_format": "hh-sol-artifact-1",
  "contractName": "GaugeController",
  "sourceName": "contracts/protocol/Gauges/GaugeController.sol",
  "abi": [
    {
      "inputs": [],
      "stateMutability": "nonpayable",
      "type": "constructor"
    },
    {
      "anonymous": false,
      "inputs": [
        {
          "indexed": true,
          "internalType": "address",
          "name": "gauge",
          "type": "address"
        },
        {
          "indexed": true,
          "internalType": "address",
          "name": "liquidityPool",
          "type": "address"
        }
      ],
      "name": "AddGauge",
      "type": "event"
    },
    {
      "anonymous": false,
      "inputs": [
        {
          "indexed": false,
          "internalType": "uint8",
          "name": "version",
          "type": "uint8"
        }
      ],
      "name": "Initialized",
      "type": "event"
    },
    {
      "anonymous": false,
      "inputs": [
        {
          "indexed": true,
          "internalType": "address",
          "name": "previousOwner",
          "type": "address"
        },
        {
          "indexed": true,
          "internalType": "address",
          "name": "newOwner",
          "type": "address"
        }
      ],
      "name": "OwnershipTransferred",
      "type": "event"
    },
    {
      "anonymous": false,
      "inputs": [
        {
          "indexed": true,
          "internalType": "address",
          "name": "gauge",
          "type": "address"
        },
        {
          "indexed": true,
          "internalType": "address",
          "name": "liquidityPool",
          "type": "address"
        }
      ],
      "name": "RemoveGauge",
      "type": "event"
    },
    {
      "anonymous": false,
      "inputs": [
        {
          "indexed": true,
          "internalType": "address",
          "name": "user",
          "type": "address"
        },
        {
          "indexed": true,
          "internalType": "address",
          "name": "gauge",
          "type": "address"
        },
        {
          "indexed": false,
          "internalType": "uint256",
          "name": "weight",
          "type": "uint256"
        }
      ],
      "name": "Vote",
      "type": "event"
    },
    {
      "inputs": [
        {
          "internalType": "address",
          "name": "gauge",
          "type": "address"
        }
      ],
      "name": "addGauge",
      "outputs": [],
      "stateMutability": "nonpayable",
      "type": "function"
    },
    {
      "inputs": [
        {
          "internalType": "address",
          "name": "liquidityPool",
          "type": "address"
        }
      ],
      "name": "getGauge",
      "outputs": [
        {
          "internalType": "address",
          "name": "",
          "type": "address"
        }
      ],
      "stateMutability": "view",
      "type": "function"
    },
    {
      "inputs": [
        {
          "internalType": "address",
          "name": "gauge",
          "type": "address"
        },
        {
          "internalType": "uint256",
          "name": "epoch",
          "type": "uint256"
        }
      ],
      "name": "getGaugeRewards",
      "outputs": [
        {
          "internalType": "uint256",
          "name": "rewards",
          "type": "uint256"
        }
      ],
      "stateMutability": "nonpayable",
      "type": "function"
    },
    {
      "inputs": [
        {
          "internalType": "address",
          "name": "gauge",
          "type": "address"
        }
      ],
      "name": "getGaugeWeight",
      "outputs": [
        {
          "internalType": "uint256",
          "name": "",
          "type": "uint256"
        }
      ],
      "stateMutability": "view",
      "type": "function"
    },
    {
      "inputs": [
        {
          "internalType": "address",
          "name": "gauge",
          "type": "address"
        },
        {
          "internalType": "uint256",
          "name": "epoch",
          "type": "uint256"
        }
      ],
      "name": "getGaugeWeightAt",
      "outputs": [
        {
          "internalType": "uint256",
          "name": "",
          "type": "uint256"
        }
      ],
      "stateMutability": "nonpayable",
      "type": "function"
    },
    {
      "inputs": [],
      "name": "getTotalWeight",
      "outputs": [
        {
          "internalType": "uint256",
          "name": "",
          "type": "uint256"
        }
      ],
      "stateMutability": "view",
      "type": "function"
    },
    {
      "inputs": [
        {
          "internalType": "uint256",
          "name": "epoch",
          "type": "uint256"
        }
      ],
      "name": "getTotalWeightAt",
      "outputs": [
        {
          "internalType": "uint256",
          "name": "",
          "type": "uint256"
        }
      ],
      "stateMutability": "nonpayable",
      "type": "function"
    },
    {
      "inputs": [
        {
          "internalType": "contract IAddressesProvider",
          "name": "addressProvider",
          "type": "address"
        }
      ],
      "name": "initialize",
      "outputs": [],
      "stateMutability": "nonpayable",
      "type": "function"
    },
    {
      "inputs": [
        {
          "internalType": "address",
          "name": "gauge",
          "type": "address"
        }
      ],
      "name": "isGauge",
      "outputs": [
        {
          "internalType": "bool",
          "name": "",
          "type": "bool"
        }
      ],
      "stateMutability": "view",
      "type": "function"
    },
    {
      "inputs": [],
      "name": "owner",
      "outputs": [
        {
          "internalType": "address",
          "name": "",
          "type": "address"
        }
      ],
      "stateMutability": "view",
      "type": "function"
    },
    {
      "inputs": [
        {
          "internalType": "address",
          "name": "gauge",
          "type": "address"
        }
      ],
      "name": "removeGauge",
      "outputs": [],
      "stateMutability": "nonpayable",
      "type": "function"
    },
    {
      "inputs": [],
      "name": "renounceOwnership",
      "outputs": [],
      "stateMutability": "nonpayable",
      "type": "function"
    },
    {
      "inputs": [
        {
          "internalType": "address",
          "name": "newOwner",
          "type": "address"
        }
      ],
      "name": "transferOwnership",
      "outputs": [],
      "stateMutability": "nonpayable",
      "type": "function"
    },
    {
      "inputs": [
        {
          "internalType": "address",
          "name": "user",
          "type": "address"
        }
      ],
      "name": "userVoteRatio",
      "outputs": [
        {
          "internalType": "uint256",
          "name": "",
          "type": "uint256"
        }
      ],
      "stateMutability": "view",
      "type": "function"
    },
    {
      "inputs": [
        {
          "internalType": "address",
          "name": "user",
          "type": "address"
        },
        {
          "internalType": "address",
          "name": "gauge",
          "type": "address"
        }
      ],
      "name": "userVoteRatioForGauge",
      "outputs": [
        {
          "internalType": "uint256",
          "name": "",
          "type": "uint256"
        }
      ],
      "stateMutability": "view",
      "type": "function"
    },
    {
      "inputs": [
        {
          "internalType": "address",
          "name": "user",
          "type": "address"
        },
        {
          "internalType": "address",
          "name": "gauge",
          "type": "address"
        }
      ],
      "name": "userVoteWeightForGauge",
      "outputs": [
        {
          "internalType": "uint256",
          "name": "",
          "type": "uint256"
        }
      ],
      "stateMutability": "view",
      "type": "function"
    },
    {
      "inputs": [
        {
          "internalType": "address",
          "name": "gauge",
          "type": "address"
        },
        {
          "internalType": "uint256",
          "name": "ratio",
          "type": "uint256"
        }
      ],
      "name": "vote",
      "outputs": [],
      "stateMutability": "nonpayable",
      "type": "function"
    },
    {
      "inputs": [
        {
          "internalType": "address",
          "name": "gauge",
          "type": "address"
        }
      ],
      "name": "writeGaugeWeightHistory",
      "outputs": [],
      "stateMutability": "nonpayable",
      "type": "function"
    },
    {
      "inputs": [],
      "name": "writeTotalWeightHistory",
      "outputs": [],
      "stateMutability": "nonpayable",
      "type": "function"
    }
  ],
  "bytecode": "0x608060405234801561001057600080fd5b5061001961001e565b6100de565b600054610100900460ff161561008a5760405162461bcd60e51b815260206004820152602760248201527f496e697469616c697a61626c653a20636f6e747261637420697320696e697469604482015266616c697a696e6760c81b606482015260840160405180910390fd5b60005460ff90811610156100dc576000805460ff191660ff9081179091556040519081527f7f26b83ff96e1f2b6a682f133852f6798a09c465da95921460cefb38474024989060200160405180910390a15b565b611dfa806100ed6000396000f3fe608060405234801561001057600080fd5b50600436106101215760003560e01c806374a21324116100ad578063ad43a91811610071578063ad43a91814610275578063b1c6f0e914610288578063c341eea2146102b4578063c4d66de8146102c7578063f2fde38b146102da57600080fd5b806374a21324146101e657806387da75ef146101f95780638da5cb5b146102015780639da882ac14610226578063aa79979b1461023957600080fd5b806350735f6f116100f457806350735f6f1461017c5780635e1cfd301461018f5780635f74bbde146101b8578063715018a6146101cb57806372be5276146101d357600080fd5b80630327cbe71461012657806306aba0e11461014c5780632e8769f2146101545780633a04514514610167575b600080fd5b610139610134366004611b06565b6102ed565b6040519081526020015b60405180910390f35b61013961035c565b610139610162366004611b06565b6103b4565b61017a610175366004611b3f565b610501565b005b61013961018a366004611b5c565b610614565b61013961019d366004611b3f565b6001600160a01b03166000908152606e602052604090205490565b61017a6101c6366004611b75565b610643565b61017a610efb565b6101396101e1366004611b3f565b610f0f565b6101396101f4366004611b75565b610fda565b61017a611058565b6033546001600160a01b03165b6040516001600160a01b039091168152602001610143565b61017a610234366004611b3f565b611212565b610265610247366004611b3f565b6001600160a01b031660009081526071602052604090205460ff1690565b6040519015158152602001610143565b610139610283366004611b75565b6112f2565b61020e610296366004611b3f565b6001600160a01b039081166000908152607260205260409020541690565b61017a6102c2366004611b3f565b61144e565b61017a6102d5366004611b3f565b6117ea565b61017a6102e8366004611b3f565b611972565b6001600160a01b03811660009081526071602052604081205460ff1661032e5760405162461bcd60e51b815260040161032590611ba1565b60405180910390fd5b506001600160a01b038083166000908152606f60209081526040808320938516835292905220545b92915050565b606c5460009061036c9042611bee565b606b546103799190611c01565b606a5410156103885750600090565b606c546103959042611bee565b606b546103a29190611c01565b606a546103af9190611bee565b905090565b6001600160a01b03811660009081526071602052604081205460ff166103ec5760405162461bcd60e51b815260040161032590611ba1565b6001600160a01b03838116600090815260706020908152604080832093861683529290522080546002909101546104239042611bee565b6001600160a01b038086166000908152607060209081526040808320938816835292905220600101546104569190611c01565b111561046457506000610356565b6001600160a01b038084166000908152607060209081526040808320938616835292905220600201546104979042611bee565b6001600160a01b038085166000908152607060209081526040808320938716835292905220600101546104ca9190611c01565b6001600160a01b038085166000908152607060209081526040808320938716835292905220546104fa9190611bee565b9392505050565b6105096119eb565b6001600160a01b03811660009081526071602052604090205460ff166105415760405162461bcd60e51b815260040161032590611ba1565b6000816001600160a01b0316635fcbd2856040518163ffffffff1660e01b8152600401602060405180830381865afa158015610581573d6000803e3d6000fd5b505050506040513d601f19601f820116820180604052508101906105a59190611c18565b6001600160a01b03808216600081815260726020908152604080832080546001600160a01b03191690559387168083526071909152838220805460ff19169055925193945090927fd0a8f460dc5355ab99f1304f75d5222692bf3d8d855d956b42e24c2639e8cae99190a35050565b600061061e611058565b6069828154811061063157610631611c35565b90600052602060002001549050919050565b60655460408051630458184560e11b815290516000926001600160a01b0316916308b0308a9160048083019260209291908290030181865afa15801561068d573d6000803e3d6000fd5b505050506040513d601f19601f820116820180604052508101906106b19190611c18565b60405163cbf9fe5f60e01b81523360048201529091506000906001600160a01b0383169063cbf9fe5f906024016040805180830381865afa1580156106fa573d6000803e3d6000fd5b505050506040513d601f19601f8201168201806040525081019061071e9190611c4b565b9050600083116107705760405162461bcd60e51b815260206004820181905260248201527f566f746520726174696f206d75737420626520686967686572207468616e20306044820152606401610325565b336000818152606f602090815260408083206001600160a01b0389168452825280832054938352606e90915290205461271091906107ae9086611ca8565b6107b89190611bee565b11156108195760405162461bcd60e51b815260206004820152602a60248201527f546f74616c20766f746520726174696f206d75737420626520736d616c6c6572604482015269207468616e203130302560b01b6064820152608401610325565b4281602001511180610829575082155b6108a95760405162461bcd60e51b8152602060048201526044602482018190527f4d757374206861766520616e20616374697665206c6f636b20696e206f726465908201527f7220746f20766f746520756e6c65737320697427732065726173696e67206120606482015263766f746560e01b608482015260a401610325565b805161090e5760405162461bcd60e51b815260206004820152602e60248201527f4d7573742068617665206c6f636b65642062616c616e6365206269676765722060448201526d7468616e203020746f20766f746560901b6064820152608401610325565b6001600160a01b03841660009081526071602052604090205460ff166109465760405162461bcd60e51b815260040161032590611ba1565b61094e611058565b6109578461144e565b6040516304a9617360e41b815233600482018190526000916001600160a01b0385169163d7c6eaaf916001908490634a96173090602401602060405180830381865afa1580156109ab573d6000803e3d6000fd5b505050506040513d601f19601f820116820180604052508101906109cf9190611cbb565b6109d99190611bee565b6040516001600160e01b031960e085901b1681526001600160a01b0390921660048301526024820152604401606060405180830381865afa158015610a22573d6000803e3d6000fd5b505050506040513d601f19601f82011682018060405250810190610a469190611cd4565b9050610a6c60405180606001604052806000815260200160008152602001600081525090565b610a9060405180606001604052806000815260200160008152602001600081525090565b61271086846040015142610aa49190611bee565b8560200151610ab39190611c01565b610abd9190611c01565b8451610ac99190611bee565b610ad39190611d3e565b8152602083015161271090610ae9908890611c01565b610af39190611d3e565b60208083019190915242604080840191909152336000908152606f83528181206001600160a01b038b16825290925290205415801590610b365750836020015142105b15610c31573360009081526070602090815260408083206001600160a01b038b168452909152902060020154610b6c9042611bee565b3360009081526070602090815260408083206001600160a01b038c168452909152902060010154610b9d9190611c01565b82523360009081526070602090815260408083206001600160a01b038b16808552908352818420600101548387018190524283880152908452606883528184208884015185529092528220805491929091610bf9908490611bee565b925050819055508160200151606d6000866020015181526020019081526020016000206000828254610c2b9190611bee565b90915550505b6020808201516001600160a01b0389166000908152606883526040808220888501518352909352918220805491929091610c6c908490611ca8565b925050819055508060200151606d6000866020015181526020019081526020016000206000828254610c9e9190611ca8565b9091555050815181516001600160a01b038916600090815260676020526040902060020154610ccd9042611bee565b6001600160a01b038a16600090815260676020526040902060010154610cf39190611c01565b6001600160a01b038a16600090815260676020526040902054610d169190611bee565b610d209190611ca8565b610d2a9190611bee565b6001600160a01b0388166000908152606760209081526040909120919091558281015190820151610d5b9190611bee565b6001600160a01b03881660009081526067602052604081206001018054909190610d86908490611ca8565b90915550506001600160a01b038716600090815260676020526040902042600290910181905582518251606c5491929091610dc091611bee565b606b54610dcd9190611c01565b606a54610dda9190611bee565b610de49190611ca8565b610dee9190611bee565b606a5560208083015190820151610e059190611bee565b606b8054600090610e17908490611ca8565b909155505042606c55336000818152606f602090815260408083206001600160a01b038c168452825280832054938352606e909152902054610e599088611ca8565b610e639190611bee565b336000818152606e6020908152604080832094909455606f81528382206001600160a01b038c168084529082528483208b9055838352607082528483208184528252918490208551815585820151600182015585850151600290910155925189815290927f66a9138482c99e9baf08860110ef332cc0c23b4a199a53593d8db0fc8f96fbfc910160405180910390a350505050505050565b610f036119eb565b610f0d6000611a45565b565b6001600160a01b03811660009081526071602052604081205460ff16610f475760405162461bcd60e51b815260040161032590611ba1565b6001600160a01b0382166000908152606760209081526040918290208251606081018452815481526001820154928101929092526002015491810182905290610f909042611bee565b8160200151610f9f9190611c01565b81511015610fb05750600092915050565b6040810151610fbf9042611bee565b8160200151610fce9190611c01565b81516104fa9190611bee565b6001600160a01b03821660009081526071602052604081205460ff166110125760405162461bcd60e51b815260040161032590611ba1565b61101b8361144e565b6001600160a01b038316600090815260666020526040902080548390811061104557611045611c35565b9060005260206000200154905092915050565b60655460408051630458184560e11b815290516000926001600160a01b0316916308b0308a9160048083019260209291908290030181865afa1580156110a2573d6000803e3d6000fd5b505050506040513d601f19601f820116820180604052508101906110c69190611c18565b60695460405163196d044f60e11b81526001600160a01b0392909216916332da089e916110f99160040190815260200190565b6020604051808303816000875af1158015611118573d6000803e3d6000fd5b505050506040513d601f19601f8201168201806040525081019061113c9190611cbb565b905060005b60808110156111f5574282116111f557606c546000906111619084611bee565b606b5461116e9190611c01565b606a5461117b9190611bee565b60698054600181019091557f7fb4302e8e91f9110a6554c2c0a24601252c2a42c2220ca988efcfe39991430801819055606a819055606c8490556000848152606d6020526040812054606b805493945090929091906111db908490611bee565b909155508291506111ed905081611d60565b915050611141565b50611204620151806007611c01565b61120e9082611ca8565b5050565b61121a6119eb565b6000816001600160a01b0316635fcbd2856040518163ffffffff1660e01b8152600401602060405180830381865afa15801561125a573d6000803e3d6000fd5b505050506040513d601f19601f8201168201806040525081019061127e9190611c18565b6001600160a01b03818116600081815260726020908152604080832080546001600160a01b03191695891695861790558483526071909152808220805460ff191660011790555193945090927f82ec1cbe428cca584a7a3ab0a9506a3c8583f7a8d14e3b81184c5c632e83420e9190a35050565b6001600160a01b03821660009081526071602052604081205460ff1661132a5760405162461bcd60e51b815260040161032590611ba1565b61133382610614565b60000361134257506000610356565b61134b82610614565b6113558484610fda565b606560009054906101000a90046001600160a01b03166001600160a01b03166315b9ba5d6040518163ffffffff1660e01b8152600401602060405180830381865afa1580156113a8573d6000803e3d6000fd5b505050506040513d601f19601f820116820180604052508101906113cc9190611c18565b6001600160a01b0316635f0c0f2b856040518263ffffffff1660e01b81526004016113f991815260200190565b602060405180830381865afa158015611416573d6000803e3d6000fd5b505050506040513d601f19601f8201168201806040525081019061143a9190611cbb565b6114449190611c01565b6104fa9190611d3e565b6001600160a01b03811660009081526071602052604090205460ff166114865760405162461bcd60e51b815260040161032590611ba1565b6001600160a01b03811660009081526066602052604081205490036115ed576001600160a01b0380821660009081526066602090815260408083208054600181018255908452828420018390558051606081018252838152808301939093526065548151630458184560e11b8152825194959286019491909216926308b0308a92600480820193918290030181865afa158015611527573d6000803e3d6000fd5b505050506040513d601f19601f8201168201806040525081019061154b9190611c18565b60405163196d044f60e11b8152600060048201526001600160a01b0391909116906332da089e906024016020604051808303816000875af1158015611594573d6000803e3d6000fd5b505050506040513d601f19601f820116820180604052508101906115b89190611cbb565b90526001600160a01b038216600090815260676020908152604091829020835181559083015160018201559101516002909101555b60655460408051630458184560e11b815290516000926001600160a01b0316916308b0308a9160048083019260209291908290030181865afa158015611637573d6000803e3d6000fd5b505050506040513d601f19601f8201168201806040525081019061165b9190611c18565b6001600160a01b038381166000908152606660205260409081902054905163196d044f60e11b815260048101919091529116906332da089e906024016020604051808303816000875af11580156116b6573d6000803e3d6000fd5b505050506040513d601f19601f820116820180604052508101906116da9190611cbb565b905060005b60808110156117e5574282116117e5576001600160a01b0383166000908152606760205260408120600201546117159084611bee565b606b546117229190611c01565b6001600160a01b0385166000908152606760205260409020546117459190611bee565b6001600160a01b0385166000818152606660209081526040808320805460018181018355918552838520018690558484526067808452828520878155600281018b9055606885528386208b875285529285205495855290925201805493945091926117b1908490611bee565b909155506117c59050620151806007611c01565b6117cf9084611ca8565b92505080806117dd90611d60565b9150506116df565b505050565b600054610100900460ff161580801561180a5750600054600160ff909116105b806118245750303b158015611824575060005460ff166001145b6118875760405162461bcd60e51b815260206004820152602e60248201527f496e697469616c697a61626c653a20636f6e747261637420697320616c72656160448201526d191e481a5b9a5d1a585b1a5e995960921b6064820152608401610325565b6000805460ff1916600117905580156118aa576000805461ff0019166101001790555b6118b2611a97565b606580546001600160a01b0319166001600160a01b0384161790556069805460018101825560009182527f7fb4302e8e91f9110a6554c2c0a24601252c2a42c2220ca988efcfe399914308018190556040805160608101825282815260208101839052429101819052606a829055606b91909155606c55801561120e576000805461ff0019169055604051600181527f7f26b83ff96e1f2b6a682f133852f6798a09c465da95921460cefb38474024989060200160405180910390a15050565b61197a6119eb565b6001600160a01b0381166119df5760405162461bcd60e51b815260206004820152602660248201527f4f776e61626c653a206e6577206f776e657220697320746865207a65726f206160448201526564647265737360d01b6064820152608401610325565b6119e881611a45565b50565b6033546001600160a01b03163314610f0d5760405162461bcd60e51b815260206004820181905260248201527f4f776e61626c653a2063616c6c6572206973206e6f7420746865206f776e65726044820152606401610325565b603380546001600160a01b038381166001600160a01b0319831681179093556040519116919082907f8be0079c531659141344cd1fd0a4f28419497f9722a3daafe3b4186f6b6457e090600090a35050565b600054610100900460ff16611abe5760405162461bcd60e51b815260040161032590611d79565b610f0d600054610100900460ff16611ae85760405162461bcd60e51b815260040161032590611d79565b610f0d33611a45565b6001600160a01b03811681146119e857600080fd5b60008060408385031215611b1957600080fd5b8235611b2481611af1565b91506020830135611b3481611af1565b809150509250929050565b600060208284031215611b5157600080fd5b81356104fa81611af1565b600060208284031215611b6e57600080fd5b5035919050565b60008060408385031215611b8857600080fd5b8235611b9381611af1565b946020939093013593505050565b6020808252601e908201527f4761756765206973206e6f74206f6e20746865206761756765206c6973740000604082015260600190565b634e487b7160e01b600052601160045260246000fd5b8181038181111561035657610356611bd8565b808202811582820484141761035657610356611bd8565b600060208284031215611c2a57600080fd5b81516104fa81611af1565b634e487b7160e01b600052603260045260246000fd5b600060408284031215611c5d57600080fd5b6040516040810181811067ffffffffffffffff82111715611c8e57634e487b7160e01b600052604160045260246000fd5b604052825181526020928301519281019290925250919050565b8082018082111561035657610356611bd8565b600060208284031215611ccd57600080fd5b5051919050565b600060608284031215611ce657600080fd5b6040516060810181811067ffffffffffffffff82111715611d1757634e487b7160e01b600052604160045260246000fd5b80604052508251815260208301516020820152604083015160408201528091505092915050565b600082611d5b57634e487b7160e01b600052601260045260246000fd5b500490565b600060018201611d7257611d72611bd8565b5060010190565b6020808252602b908201527f496e697469616c697a61626c653a20636f6e7472616374206973206e6f74206960408201526a6e697469616c697a696e6760a81b60608201526080019056fea26469706673582212201374624fd2b89c0e224e98cc4bbe1ae0aa36b82a43d9830463457b16dda8054964736f6c63430008110033",
  "linkReferences": {},
  "deployedLinkReferences": {}
}