{
  "_format": "hh-sol-artifact-1",
  "contractName": "GaugeController",
  "sourceName": "contracts/protocol/Gauges/GaugeController.sol",
  "abi": [
    {
      "inputs": [],
      "stateMutability": "nonpayable",
      "type": "constructor"
    },
    {
      "anonymous": false,
      "inputs": [
        {
          "indexed": true,
          "internalType": "address",
          "name": "gauge",
          "type": "address"
        },
        {
          "indexed": true,
          "internalType": "address",
          "name": "liquidityPool",
          "type": "address"
        }
      ],
      "name": "AddGauge",
      "type": "event"
    },
    {
      "anonymous": false,
      "inputs": [
        {
          "indexed": false,
          "internalType": "uint8",
          "name": "version",
          "type": "uint8"
        }
      ],
      "name": "Initialized",
      "type": "event"
    },
    {
      "anonymous": false,
      "inputs": [
        {
          "indexed": true,
          "internalType": "address",
          "name": "previousOwner",
          "type": "address"
        },
        {
          "indexed": true,
          "internalType": "address",
          "name": "newOwner",
          "type": "address"
        }
      ],
      "name": "OwnershipTransferred",
      "type": "event"
    },
    {
      "anonymous": false,
      "inputs": [
        {
          "indexed": true,
          "internalType": "address",
          "name": "gauge",
          "type": "address"
        },
        {
          "indexed": true,
          "internalType": "address",
          "name": "liquidityPool",
          "type": "address"
        }
      ],
      "name": "RemoveGauge",
      "type": "event"
    },
    {
      "anonymous": false,
      "inputs": [
        {
          "indexed": true,
          "internalType": "address",
          "name": "user",
          "type": "address"
        },
        {
          "indexed": true,
          "internalType": "uint256",
          "name": "tokenId",
          "type": "uint256"
        },
        {
          "indexed": true,
          "internalType": "address",
          "name": "gauge",
          "type": "address"
        },
        {
          "indexed": false,
          "internalType": "uint256",
          "name": "weight",
          "type": "uint256"
        }
      ],
      "name": "Vote",
      "type": "event"
    },
    {
      "inputs": [],
      "name": "INFLATION_PERIOD",
      "outputs": [
        {
          "internalType": "uint256",
          "name": "",
          "type": "uint256"
        }
      ],
      "stateMutability": "view",
      "type": "function"
    },
    {
      "inputs": [],
      "name": "LOADING_PERIOD",
      "outputs": [
        {
          "internalType": "uint256",
          "name": "",
          "type": "uint256"
        }
      ],
      "stateMutability": "view",
      "type": "function"
    },
    {
      "inputs": [],
      "name": "MAX_INFLATION_PERIOD",
      "outputs": [
        {
          "internalType": "uint256",
          "name": "",
          "type": "uint256"
        }
      ],
      "stateMutability": "view",
      "type": "function"
    },
    {
      "inputs": [
        {
          "internalType": "address",
          "name": "gauge",
          "type": "address"
        }
      ],
      "name": "addGauge",
      "outputs": [],
      "stateMutability": "nonpayable",
      "type": "function"
    },
    {
      "inputs": [
        {
          "internalType": "uint256",
          "name": "epoch",
          "type": "uint256"
        }
      ],
      "name": "getEpochRewards",
      "outputs": [
        {
          "internalType": "uint256",
          "name": "",
          "type": "uint256"
        }
      ],
      "stateMutability": "nonpayable",
      "type": "function"
    },
    {
      "inputs": [
        {
          "internalType": "address",
          "name": "liquidityPool",
          "type": "address"
        }
      ],
      "name": "getGauge",
      "outputs": [
        {
          "internalType": "address",
          "name": "",
          "type": "address"
        }
      ],
      "stateMutability": "view",
      "type": "function"
    },
    {
      "inputs": [
        {
          "internalType": "address",
          "name": "gauge",
          "type": "address"
        },
        {
          "internalType": "uint256",
          "name": "epoch",
          "type": "uint256"
        }
      ],
      "name": "getGaugeRewards",
      "outputs": [
        {
          "internalType": "uint256",
          "name": "rewards",
          "type": "uint256"
        }
      ],
      "stateMutability": "nonpayable",
      "type": "function"
    },
    {
      "inputs": [
        {
          "internalType": "address",
          "name": "gauge",
          "type": "address"
        }
      ],
      "name": "getGaugeWeight",
      "outputs": [
        {
          "internalType": "uint256",
          "name": "",
          "type": "uint256"
        }
      ],
      "stateMutability": "view",
      "type": "function"
    },
    {
      "inputs": [
        {
          "internalType": "address",
          "name": "gauge",
          "type": "address"
        },
        {
          "internalType": "uint256",
          "name": "epoch",
          "type": "uint256"
        }
      ],
      "name": "getGaugeWeightAt",
      "outputs": [
        {
          "internalType": "uint256",
          "name": "",
          "type": "uint256"
        }
      ],
      "stateMutability": "nonpayable",
      "type": "function"
    },
    {
      "inputs": [
        {
          "internalType": "uint256",
          "name": "epoch",
          "type": "uint256"
        }
      ],
      "name": "getRewardsCeiling",
      "outputs": [
        {
          "internalType": "uint256",
          "name": "",
          "type": "uint256"
        }
      ],
      "stateMutability": "view",
      "type": "function"
    },
    {
      "inputs": [],
      "name": "getTotalWeight",
      "outputs": [
        {
          "internalType": "uint256",
          "name": "",
          "type": "uint256"
        }
      ],
      "stateMutability": "view",
      "type": "function"
    },
    {
      "inputs": [
        {
          "internalType": "uint256",
          "name": "epoch",
          "type": "uint256"
        }
      ],
      "name": "getTotalWeightAt",
      "outputs": [
        {
          "internalType": "uint256",
          "name": "",
          "type": "uint256"
        }
      ],
      "stateMutability": "nonpayable",
      "type": "function"
    },
    {
      "inputs": [
        {
          "internalType": "contract IAddressesProvider",
          "name": "addressProvider",
          "type": "address"
        },
        {
          "internalType": "uint256",
          "name": "initialRewards",
          "type": "uint256"
        }
      ],
      "name": "initialize",
      "outputs": [],
      "stateMutability": "nonpayable",
      "type": "function"
    },
    {
      "inputs": [
        {
          "internalType": "address",
          "name": "gauge",
          "type": "address"
        }
      ],
      "name": "isGauge",
      "outputs": [
        {
          "internalType": "bool",
          "name": "",
          "type": "bool"
        }
      ],
      "stateMutability": "view",
      "type": "function"
    },
    {
      "inputs": [
        {
          "internalType": "uint256",
          "name": "tokenId",
          "type": "uint256"
        },
        {
          "internalType": "address",
          "name": "gauge",
          "type": "address"
        }
      ],
      "name": "lockVotePointForGauge",
      "outputs": [
        {
          "components": [
            {
              "internalType": "uint256",
              "name": "bias",
              "type": "uint256"
            },
            {
              "internalType": "uint256",
              "name": "slope",
              "type": "uint256"
            },
            {
              "internalType": "uint256",
              "name": "timestamp",
              "type": "uint256"
            }
          ],
          "internalType": "struct DataTypes.Point",
          "name": "",
          "type": "tuple"
        }
      ],
      "stateMutability": "view",
      "type": "function"
    },
    {
      "inputs": [
        {
          "internalType": "uint256",
          "name": "tokenId",
          "type": "uint256"
        }
      ],
      "name": "lockVoteRatio",
      "outputs": [
        {
          "internalType": "uint256",
          "name": "",
          "type": "uint256"
        }
      ],
      "stateMutability": "view",
      "type": "function"
    },
    {
      "inputs": [
        {
          "internalType": "uint256",
          "name": "tokenId",
          "type": "uint256"
        },
        {
          "internalType": "address",
          "name": "gauge",
          "type": "address"
        }
      ],
      "name": "lockVoteRatioForGauge",
      "outputs": [
        {
          "internalType": "uint256",
          "name": "",
          "type": "uint256"
        }
      ],
      "stateMutability": "view",
      "type": "function"
    },
    {
      "inputs": [
        {
          "internalType": "uint256",
          "name": "tokenId",
          "type": "uint256"
        },
        {
          "internalType": "address",
          "name": "gauge",
          "type": "address"
        }
      ],
      "name": "lockVoteWeightForGauge",
      "outputs": [
        {
          "internalType": "uint256",
          "name": "",
          "type": "uint256"
        }
      ],
      "stateMutability": "view",
      "type": "function"
    },
    {
      "inputs": [],
      "name": "owner",
      "outputs": [
        {
          "internalType": "address",
          "name": "",
          "type": "address"
        }
      ],
      "stateMutability": "view",
      "type": "function"
    },
    {
      "inputs": [
        {
          "internalType": "address",
          "name": "gauge",
          "type": "address"
        }
      ],
      "name": "removeGauge",
      "outputs": [],
      "stateMutability": "nonpayable",
      "type": "function"
    },
    {
      "inputs": [],
      "name": "renounceOwnership",
      "outputs": [],
      "stateMutability": "nonpayable",
      "type": "function"
    },
    {
      "inputs": [
        {
          "internalType": "address",
          "name": "newOwner",
          "type": "address"
        }
      ],
      "name": "transferOwnership",
      "outputs": [],
      "stateMutability": "nonpayable",
      "type": "function"
    },
    {
      "inputs": [
        {
          "internalType": "uint256",
          "name": "tokenId",
          "type": "uint256"
        },
        {
          "internalType": "address",
          "name": "gauge",
          "type": "address"
        },
        {
          "internalType": "uint256",
          "name": "ratio",
          "type": "uint256"
        }
      ],
      "name": "vote",
      "outputs": [],
      "stateMutability": "nonpayable",
      "type": "function"
    },
    {
      "inputs": [
        {
          "internalType": "address",
          "name": "gauge",
          "type": "address"
        }
      ],
      "name": "writeGaugeWeightHistory",
      "outputs": [],
      "stateMutability": "nonpayable",
      "type": "function"
    },
    {
      "inputs": [],
      "name": "writeTotalWeightHistory",
      "outputs": [],
      "stateMutability": "nonpayable",
      "type": "function"
    }
  ],
  "bytecode": "0x608080604052346100c1576000549060ff8260081c1661006f575060ff80821610610034575b60405161205490816100c78239f35b60ff90811916176000557f7f26b83ff96e1f2b6a682f133852f6798a09c465da95921460cefb3847402498602060405160ff8152a138610025565b62461bcd60e51b815260206004820152602760248201527f496e697469616c697a61626c653a20636f6e747261637420697320696e697469604482015266616c697a696e6760c81b6064820152608490fd5b600080fdfe608060405260048036101561001357600080fd5b60003560e01c806306aba0e1146111375780633a045145146110535780634de8737c1461085557806350735f6f146108215780635f0c0f2b146108035780636040b3b714610763578063643b281914610747578063715018a6146106ea57806372be5276146106c757806374a21324146106a05780637be27d79146106845780637db9ddb714610621578063827344e8146105fa578063832cab78146105cf57806387da75ef146105b65780638da5cb5b1461058d5780639da882ac1461049d578063aa79979b1461045e578063ad43a91814610437578063b1c6f0e9146103fc578063c341eea2146103db578063c947755a146103bf578063cd6dc687146101ea578063d31e99bf146101c45763f2fde38b1461013057600080fd5b346101bf5760203660031901126101bf57610149611152565b9061015261117e565b6001600160a01b0382161561016c5761016a826111d6565b005b60849060206040519162461bcd60e51b8352820152602660248201527f4f776e61626c653a206e6577206f776e657220697320746865207a65726f206160448201526564647265737360d01b6064820152fd5b600080fd5b50346101bf5760203660031901126101bf576101e260209135611b1b565b604051908152f35b50346101bf5760403660031901126101bf5780356001600160a01b03811691908290036101bf576000549160ff8360081c1615928380946103b2575b801561039b575b156103405760ff1981166001176000558361032e575b5061025e60ff60005460081c16610259816112d8565b6112d8565b610267336111d6565b6001600160601b0360a01b606554161760655560243560735560695490600160401b82101561031957508060016102a1920160695561121f565b8154906000199060031b1b191690556040516102bc81611284565b60008152600060208201526040429101526000606a556000606b5542606c556102e157005b61ff0019600054166000557f7f26b83ff96e1f2b6a682f133852f6798a09c465da95921460cefb3847402498602060405160018152a1005b604190634e487b7160e01b6000525260246000fd5b61ffff19166101011760005538610243565b60405162461bcd60e51b8152602081850152602e60248201527f496e697469616c697a61626c653a20636f6e747261637420697320616c72656160448201526d191e481a5b9a5d1a585b1a5e995960921b6064820152608490fd5b50303b15801561022d5750600160ff82161461022d565b50600160ff821610610226565b346101bf5760003660031901126101bf57602060405160348152f35b346101bf5760203660031901126101bf5761016a6103f7611152565b6117d6565b346101bf5760203660031901126101bf5760206001600160a01b0380610420611152565b166000526072825260406000205416604051908152f35b346101bf5760403660031901126101bf5760206101e2610455611152565b60243590611ed0565b346101bf5760203660031901126101bf576001600160a01b0361047f611152565b166000526071602052602060ff604060002054166040519015158152f35b50346101bf57602090816003193601126101bf576104b9611152565b906104c261117e565b604051635fcbd28560e01b81526001600160a01b039283169290918490839081865afa801561058157607192600091610554575b50169283600052607281526040600020836001600160601b0360a01b82541617905582600052526040600020600160ff198254161790557f82ec1cbe428cca584a7a3ab0a9506a3c8583f7a8d14e3b81184c5c632e83420e600080a3005b6105749150853d871161057a575b61056c81836112b6565b810190611338565b386104f6565b503d610562565b6040513d6000823e3d90fd5b346101bf5760003660031901126101bf576033546040516001600160a01b039091168152602090f35b346101bf5760003660031901126101bf5761016a6115f0565b50346101bf5760203660031901126101bf5735600052606e6020526020604060002054604051908152f35b50346101bf5760403660031901126101bf576101e260209161061a611168565b9035611507565b50346101bf5760403660031901126101bf576001600160a01b03610643611168565b169081600052607160205261065f60ff60406000205416611357565b35600052606f6020526040600020906000526020526020604060002054604051908152f35b346101bf5760003660031901126101bf57602060405160188152f35b346101bf5760403660031901126101bf5760206101e26106be611152565b6024359061146a565b346101bf5760203660031901126101bf5760206101e26106e5611152565b6113d9565b346101bf5760003660031901126101bf5761070361117e565b603380546001600160a01b031981169091556000906001600160a01b03167f8be0079c531659141344cd1fd0a4f28419497f9722a3daafe3b4186f6b6457e08280a3005b346101bf5760003660031901126101bf57602060405160088152f35b50346101bf5760403660031901126101bf5761077d611168565b6107856114e8565b5060018060a01b0316908160005260716020526107a960ff60406000205416611357565b356000526070602052604060002090600052602052606060406000206040516107d181611284565b815491828252604060026001830154926020850193845201549201918252604051928352516020830152516040820152f35b50346101bf5760203660031901126101bf576101e260209135611c83565b50346101bf5760203660031901126101bf576108476020916108416115f0565b3561121f565b90546040519160031b1c8152f35b50346101bf5760603660031901126101bf5761086f611168565b606554604051630458184560e11b81526001600160a01b039160209082908690829086165afa8015610581578291600091611034575b501691604051926331a9108f60e11b84528435858501526024936020818681855afa90811561058157600091611015575b508333911603610fba5760408051635a2d1e0760e11b815286358782015290818681855afa90811561058157600091610f48575b508535600052606e6020526040600020549461271061095361092f60449889356115e3565b8935600052606f6020526040600020888816600052602052604060002054906113a3565b11610ef357602082015142108015610eea575b15610e7557815115610e1c57848416600052607160205261098e60ff60406000205416611357565b6109966115f0565b61099f846117d6565b604051633a210a4360e11b8152873588820152906020828281875afa91821561058157600092610de8575b506000198201918211610dd557908660609260405195869384926364a1b95b60e01b84528c358d8501528301525afa91821561058157600092610d7c575b50610bc490610a156114e8565b90612710610a668882610a5a610a296114e8565b98610a558151610a4f6020840196610a49604089519235960151426113a3565b906113c6565b906113a3565b6113c6565b048752893590516113c6565b0460208501524260408501528735600052606f6020526040600020868616600052602052604060002054151580610d6f575b610c9e575b6020840151868616600052606860205260406000206020830151600052602052610acd60406000209182546115e3565b9055602080850151910151600052606d602052610af060406000209182546115e3565b90558484166000526067602052610bae610b5b6001610b3b610b33610b2b6040600020610a4f815491610a49600288830154920154426113a3565b8851906115e3565b8551906113a3565b8888166000526067602052604060002090815501546020860151906115e3565b91610b6c60208201938451906113a3565b87871660005260676020526040600020906001820155600242910155610bb6606a5491610bae610b2b606b5494610a4f610ba8606c54426113a3565b876113c6565b9051906113a3565b606a556020850151906115e3565b606b5542606c558435600052606e602052610c0c610be860406000205486356115e3565b8635600052606f6020526040600020858516600052602052604060002054906113a3565b8535600052606e602052604060002055606f602052604060002083831660005260205283356040600020558435600052607060205260406000208383166000526020526002604080600020928051845560208101516001850155015191015560405192358352169135907f26d331fe2c57870421b3b095caa4314147214aba97e799945d1579ebfe5e08ad60203392a4005b873560005260706020526040600020868616600052602052610cec600160406000200154893560005260706020526040600020888816600052602052610a49600260406000200154426113a3565b82528735600052607060205260406000208686166000526020526001604060002001546020830190808252426040850152878716600052606860205260406000206020840151600052602052610d4860406000209182546113a3565b9055516020820151600052606d602052610d6860406000209182546113a3565b9055610a9d565b5060208101514210610a98565b9091506060813d8211610dcd575b81610d97606093836112b6565b810103126101bf57610bc4906040805191610db183611284565b8051835260208101516020840152015160408201529190610a08565b3d9150610d8a565b634e487b7160e01b600090815260118952fd5b9091506020813d602011610e14575b81610e04602093836112b6565b810103126101bf575190386109ca565b3d9150610df7565b867f4d7573742068617665206c6f636b65642062616c616e6365206269676765722087602e60849460206040519562461bcd60e51b87528601528401528201526d7468616e203020746f20766f746560901b6064820152fd5b60405162461bcd60e51b81526020818901529081018690527f4d757374206861766520616e20616374697665206c6f636b20696e206f726465818701527f7220746f20766f746520756e6c65737320697427732065726173696e67206120606482015263766f746560e01b608482015260a490fd5b50853515610966565b867f546f74616c20766f746520726174696f206d75737420626520736d616c6c657287602a60849460206040519562461bcd60e51b875286015284015282015269207468616e203130302560b01b6064820152fd5b90506040813d604011610fb2575b81610f63604093836112b6565b810103126101bf57604051906040820182811067ffffffffffffffff821117610f9e579060209160405280518352015160208201523861090a565b86604189634e487b7160e01b600052526000fd5b3d9150610f56565b60405162461bcd60e51b8152602081870152602f818601527f4d75737420626520746865206f776e6572206f6620746865206c6f636b20746f60448201526e2075736520697420746f20766f746560881b6064820152608490fd5b61102e915060203d60201161057a5761056c81836112b6565b386108d6565b61104d915060203d60201161057a5761056c81836112b6565b386108a5565b50346101bf57602090816003193601126101bf5761106f611152565b9061107861117e565b60018060a01b0380921691826000526071845261109c60ff60406000205416611357565b836040518093635fcbd28560e01b825281865afa80156105815760719260009161111a575b501692836000526072815260406000206001600160601b0360a01b81541690558260005252604060002060ff1981541690557fd0a8f460dc5355ab99f1304f75d5222692bf3d8d855d956b42e24c2639e8cae9600080a3005b6111319150853d871161057a5761056c81836112b6565b386110c1565b346101bf5760003660031901126101bf5760206101e26114b4565b600435906001600160a01b03821682036101bf57565b602435906001600160a01b03821682036101bf57565b6033546001600160a01b0316330361119257565b606460405162461bcd60e51b815260206004820152602060248201527f4f776e61626c653a2063616c6c6572206973206e6f7420746865206f776e65726044820152fd5b603380546001600160a01b039283166001600160a01b0319821681179092559091167f8be0079c531659141344cd1fd0a4f28419497f9722a3daafe3b4186f6b6457e0600080a3565b6069548110156112565760696000527f7fb4302e8e91f9110a6554c2c0a24601252c2a42c2220ca988efcfe3999143080190600090565b634e487b7160e01b600052603260045260246000fd5b80548210156112565760005260206000200190600090565b6060810190811067ffffffffffffffff8211176112a057604052565b634e487b7160e01b600052604160045260246000fd5b90601f8019910116810190811067ffffffffffffffff8211176112a057604052565b156112df57565b60405162461bcd60e51b815260206004820152602b60248201527f496e697469616c697a61626c653a20636f6e7472616374206973206e6f74206960448201526a6e697469616c697a696e6760a81b6064820152608490fd5b908160209103126101bf57516001600160a01b03811681036101bf5790565b1561135e57565b60405162461bcd60e51b815260206004820152601e60248201527f4761756765206973206e6f74206f6e20746865206761756765206c69737400006044820152606490fd5b919082039182116113b057565b634e487b7160e01b600052601160045260246000fd5b818102929181159184041417156113b057565b6001600160a01b03166000818152607160205260409020546113fd9060ff16611357565b600052606760205260406000206040519061141782611284565b80549182815260018201549261144460026020840194868652015494610a496040850196808852426113a3565b116114625761145f92610a49610a4f925193519151426113a3565b90565b505050600090565b6001600160a01b0381166000818152607160205260409020546114aa9392611498916103f79060ff16611357565b6000526066602052604060002061126c565b90549060031b1c90565b606a54606b5490606c546114d16114cb82426113a3565b846113c6565b82106114625761145f92610a49610a4f92426113a3565b604051906114f582611284565b60006040838281528260208201520152565b9060018060a01b03166000918183526020916071835260409061152f60ff8387205416611357565b8285526070938481528286208287528152611568600184882001548588528683528488208489528352610a496002868a200154426113a3565b848752858252838720838852825283872054106115cc57839286610a4993600293610a4f9761145f9a5288815283832082845281528383205498878452808252848420838552825260018585200154978452815283832091835252200154426113a3565b505050505090565b60001981146113b05760010190565b919082018092116113b057565b60655460408051630458184560e11b8152600492602092916001600160a01b0391849082908790829086165afa90811561177d576000916117b9575b50169060699081549381519463196d044f60e11b865286860152602494818187816000895af190811561177d5787918391600091611788575b5095845198898092632d6de86160e21b82525afa96871561177d5760009761174b575b506000945b608086106116a0575b5050505050505050565b42811161174657606a8054606b916116c5835492610a4f606c94610a498654896113a3565b908854600160401b81101561173257948c93819361172696936116f1898e600161172c9c01905561121f565b81549060031b9084821b91600019901b1916179055555581600052606d875261171f886000205482546113a3565b90556115e3565b956115d4565b9461168d565b8b604188634e487b7160e01b600052526000fd5b611696565b90968282813d8311611776575b61176281836112b6565b810103126117735750519538611688565b80fd5b503d611758565b83513d6000823e3d90fd5b92509082813d81116117b2575b61179f81836112b6565b8101031261177357508187915138611665565b503d611795565b6117d09150843d861161057a5761056c81836112b6565b3861162c565b60018060a01b03809116600081815260209182916071835260409461180060ff8784205416611357565b8060655416865195868092630458184560e11b825260049889915afa908115611af1578391611ad4575b50169482825260668085528183208054908115611a04575b50508151632d6de86160e21b81529685888881845afa9788156119f75784986119c4575b509083918583528187528684842054855192839163196d044f60e11b83528b8301528160249889925af19081156119ba578391611989575b509582965b608088106118b8575b50505050505050505050565b4281116119845786845260678083528585208054906118e9600192610a4f84840154610a49600280960154896113a3565b8a8852868652888820805490600160401b82101561197257938f9496809461196697948f6119228661196c9c8761171f9901815561126c565b81549060031b9084821b91600019901b19161790558d52858b528d8d209081550155606888528a8a20848b5288528a8a2054928d8b5288528a8a20019182546113a3565b976115d4565b966118a3565b634e487b7160e01b8a5260418f528b8afd5b6118ac565b90508681813d83116119b3575b6119a081836112b6565b810103126119af57513861189e565b8280fd5b503d611996565b84513d85823e3d90fd5b9097508581813d83116119f0575b6119dc81836112b6565b810103126119ec57519683611866565b8380fd5b503d6119d2565b50505051903d90823e3d90fd5b600160401b821015611ac15790611a209160018201815561126c565b8154906000199060031b1b19169055815163196d044f60e11b815283878201528581602481878c5af19081156119f7578491611a94575b506002835191611a6683611284565b8583528783018681528584019182528787526067895285872093518455516001840155519101553880611842565b90508581813d8311611aba575b611aab81836112b6565b810103126119ec575138611a57565b503d611aa1565b634e487b7160e01b855260418852602485fd5b611aeb9150853d871161057a5761056c81836112b6565b3861182a565b87513d85823e3d90fd5b8115611b05570490565b634e487b7160e01b600052601260045260246000fd5b603481046018821015611b3b5750611b376018916073546113c6565b0490565b905060088111611b74575b60735460a182116113b057611b5f908260030a906113c6565b607f82116113b05761145f9160040a90611afb565b506008611b46565b15611b8357565b60405162461bcd60e51b815260206004820152601660248201527545706f636820697320696e207468652066757475726560501b6044820152606490fd5b6000908015611c7f578080600114611c7757600214611c6f576001918261013383101683600b84101617611c5f5760038392935b808211611c2257505082600019048211611c0e57500290565b634e487b7160e01b81526011600452602490fd5b909380600019048111611c4b57818516611c42575b800293811c90611bf5565b80930292611c37565b634e487b7160e01b83526011600452602483fd5b929150600383910a92611c0e5750565b509060089150565b505050600190565b5090565b60655460408051630458184560e11b8082526001600160a01b039594929360049392602092918816919083818781865afa908115611ec5579089939291600091611ea8575b508488518092635487c57760e01b8252428a8301528160249d8e92165afa908115611e9d5790859291600091611e6b575b50611d0690871115611b7c565b8688518094819382525afa908115611e60579188849392600095938691611e43575b50885163b263bb3b60e01b81528881018890529586938492165af1948515611e395750600094611e08575b5050612710928303838111611df45790610a49611d72611d7893611bc1565b91611b1b565b91906001906003825b808211611db757505082600019048211611da3575061145f9394500290611afb565b60118691634e487b7160e01b600052526000fd5b909380600019048111611de057818516611dd7575b800293811c90611d81565b80930292611dcc565b87601184634e487b7160e01b600052526000fd5b85601184634e487b7160e01b600052526000fd5b8181959293953d8311611e32575b611e2081836112b6565b81010312611773575051913880611d53565b503d611e16565b513d6000823e3d90fd5b611e5a9150843d861161057a5761056c81836112b6565b38611d28565b86513d6000823e3d90fd5b919282813d8311611e96575b611e8181836112b6565b81010312611773575051849190611d06611cf9565b503d611e77565b88513d6000823e3d90fd5b611ebf9150853d871161057a5761056c81836112b6565b38611cc8565b87513d6000823e3d90fd5b9060018060a01b036000908084168252602060718152611ef660ff604085205416611357565b600481836065541660405192838092630458184560e11b82525afa908115612013579082918591611ff6575b50602460405180958193635487c57760e01b8352426004840152165afa908115611feb578391611fb7575b50611f5b9150831115611b7c565b611f636115f0565b611f6c8261121f565b90549060031b1c15611fb15750611fa4611f9661145f93610a4984611f9081611c83565b9261146a565b91611f9f6115f0565b61121f565b90549060031b1c90611afb565b91505090565b905081813d8311611fe4575b611fcd81836112b6565b81010312611fe057611f5b905138611f4d565b5080fd5b503d611fc3565b6040513d85823e3d90fd5b61200d9150823d841161057a5761056c81836112b6565b38611f22565b6040513d86823e3d90fdfea2646970667358221220a3c2e6ac53e26aa7acbfe35f175f73ad616f0fd006cd5cef04595f1efec8799a64736f6c63430008130033",
  "linkReferences": {},
  "deployedLinkReferences": {}
}