{
  "_format": "hh-sol-artifact-1",
  "contractName": "GaugeController",
  "sourceName": "contracts/protocol/Gauges/GaugeController.sol",
  "abi": [
    {
      "inputs": [],
      "stateMutability": "nonpayable",
      "type": "constructor"
    },
    {
      "anonymous": false,
      "inputs": [
        {
          "indexed": true,
          "internalType": "address",
          "name": "gauge",
          "type": "address"
        },
        {
          "indexed": true,
          "internalType": "address",
          "name": "liquidityPool",
          "type": "address"
        }
      ],
      "name": "AddGauge",
      "type": "event"
    },
    {
      "anonymous": false,
      "inputs": [
        {
          "indexed": false,
          "internalType": "uint8",
          "name": "version",
          "type": "uint8"
        }
      ],
      "name": "Initialized",
      "type": "event"
    },
    {
      "anonymous": false,
      "inputs": [
        {
          "indexed": true,
          "internalType": "address",
          "name": "previousOwner",
          "type": "address"
        },
        {
          "indexed": true,
          "internalType": "address",
          "name": "newOwner",
          "type": "address"
        }
      ],
      "name": "OwnershipTransferred",
      "type": "event"
    },
    {
      "anonymous": false,
      "inputs": [
        {
          "indexed": true,
          "internalType": "address",
          "name": "gauge",
          "type": "address"
        },
        {
          "indexed": true,
          "internalType": "address",
          "name": "liquidityPool",
          "type": "address"
        }
      ],
      "name": "RemoveGauge",
      "type": "event"
    },
    {
      "anonymous": false,
      "inputs": [
        {
          "indexed": true,
          "internalType": "address",
          "name": "user",
          "type": "address"
        },
        {
          "indexed": true,
          "internalType": "uint256",
          "name": "tokenId",
          "type": "uint256"
        },
        {
          "indexed": true,
          "internalType": "address",
          "name": "gauge",
          "type": "address"
        },
        {
          "indexed": false,
          "internalType": "uint256",
          "name": "weight",
          "type": "uint256"
        }
      ],
      "name": "Vote",
      "type": "event"
    },
    {
      "inputs": [],
      "name": "INFLATION_PERIOD",
      "outputs": [
        {
          "internalType": "uint256",
          "name": "",
          "type": "uint256"
        }
      ],
      "stateMutability": "view",
      "type": "function"
    },
    {
      "inputs": [],
      "name": "LOADING_PERIOD",
      "outputs": [
        {
          "internalType": "uint256",
          "name": "",
          "type": "uint256"
        }
      ],
      "stateMutability": "view",
      "type": "function"
    },
    {
      "inputs": [],
      "name": "MAX_INFLATION_PERIODS",
      "outputs": [
        {
          "internalType": "uint256",
          "name": "",
          "type": "uint256"
        }
      ],
      "stateMutability": "view",
      "type": "function"
    },
    {
      "inputs": [
        {
          "internalType": "address",
          "name": "gauge",
          "type": "address"
        }
      ],
      "name": "addGauge",
      "outputs": [],
      "stateMutability": "nonpayable",
      "type": "function"
    },
    {
      "inputs": [
        {
          "internalType": "uint256",
          "name": "epoch",
          "type": "uint256"
        }
      ],
      "name": "getEpochRewards",
      "outputs": [
        {
          "internalType": "uint256",
          "name": "",
          "type": "uint256"
        }
      ],
      "stateMutability": "nonpayable",
      "type": "function"
    },
    {
      "inputs": [
        {
          "internalType": "address",
          "name": "liquidityPool",
          "type": "address"
        }
      ],
      "name": "getGauge",
      "outputs": [
        {
          "internalType": "address",
          "name": "",
          "type": "address"
        }
      ],
      "stateMutability": "view",
      "type": "function"
    },
    {
      "inputs": [
        {
          "internalType": "address",
          "name": "gauge",
          "type": "address"
        },
        {
          "internalType": "uint256",
          "name": "epoch",
          "type": "uint256"
        }
      ],
      "name": "getGaugeRewards",
      "outputs": [
        {
          "internalType": "uint256",
          "name": "rewards",
          "type": "uint256"
        }
      ],
      "stateMutability": "nonpayable",
      "type": "function"
    },
    {
      "inputs": [
        {
          "internalType": "address",
          "name": "gauge",
          "type": "address"
        }
      ],
      "name": "getGaugeWeight",
      "outputs": [
        {
          "internalType": "uint256",
          "name": "",
          "type": "uint256"
        }
      ],
      "stateMutability": "view",
      "type": "function"
    },
    {
      "inputs": [
        {
          "internalType": "address",
          "name": "gauge",
          "type": "address"
        },
        {
          "internalType": "uint256",
          "name": "epoch",
          "type": "uint256"
        }
      ],
      "name": "getGaugeWeightAt",
      "outputs": [
        {
          "internalType": "uint256",
          "name": "",
          "type": "uint256"
        }
      ],
      "stateMutability": "nonpayable",
      "type": "function"
    },
    {
      "inputs": [],
      "name": "getLPMaturityPeriod",
      "outputs": [
        {
          "internalType": "uint256",
          "name": "",
          "type": "uint256"
        }
      ],
      "stateMutability": "view",
      "type": "function"
    },
    {
      "inputs": [
        {
          "internalType": "uint256",
          "name": "tokenId",
          "type": "uint256"
        },
        {
          "internalType": "address",
          "name": "gauge",
          "type": "address"
        }
      ],
      "name": "getLockVotePointForGauge",
      "outputs": [
        {
          "components": [
            {
              "internalType": "uint256",
              "name": "bias",
              "type": "uint256"
            },
            {
              "internalType": "uint256",
              "name": "slope",
              "type": "uint256"
            },
            {
              "internalType": "uint256",
              "name": "timestamp",
              "type": "uint256"
            }
          ],
          "internalType": "struct DataTypes.Point",
          "name": "",
          "type": "tuple"
        }
      ],
      "stateMutability": "view",
      "type": "function"
    },
    {
      "inputs": [
        {
          "internalType": "uint256",
          "name": "tokenId",
          "type": "uint256"
        }
      ],
      "name": "getLockVoteRatio",
      "outputs": [
        {
          "internalType": "uint256",
          "name": "",
          "type": "uint256"
        }
      ],
      "stateMutability": "view",
      "type": "function"
    },
    {
      "inputs": [
        {
          "internalType": "uint256",
          "name": "tokenId",
          "type": "uint256"
        },
        {
          "internalType": "address",
          "name": "gauge",
          "type": "address"
        }
      ],
      "name": "getLockVoteRatioForGauge",
      "outputs": [
        {
          "internalType": "uint256",
          "name": "",
          "type": "uint256"
        }
      ],
      "stateMutability": "view",
      "type": "function"
    },
    {
      "inputs": [
        {
          "internalType": "uint256",
          "name": "tokenId",
          "type": "uint256"
        },
        {
          "internalType": "address",
          "name": "gauge",
          "type": "address"
        }
      ],
      "name": "getLockVoteWeightForGauge",
      "outputs": [
        {
          "internalType": "uint256",
          "name": "",
          "type": "uint256"
        }
      ],
      "stateMutability": "view",
      "type": "function"
    },
    {
      "inputs": [
        {
          "internalType": "uint256",
          "name": "epoch",
          "type": "uint256"
        }
      ],
      "name": "getRewardsCeiling",
      "outputs": [
        {
          "internalType": "uint256",
          "name": "",
          "type": "uint256"
        }
      ],
      "stateMutability": "view",
      "type": "function"
    },
    {
      "inputs": [],
      "name": "getTotalWeight",
      "outputs": [
        {
          "internalType": "uint256",
          "name": "",
          "type": "uint256"
        }
      ],
      "stateMutability": "view",
      "type": "function"
    },
    {
      "inputs": [
        {
          "internalType": "uint256",
          "name": "epoch",
          "type": "uint256"
        }
      ],
      "name": "getTotalWeightAt",
      "outputs": [
        {
          "internalType": "uint256",
          "name": "",
          "type": "uint256"
        }
      ],
      "stateMutability": "nonpayable",
      "type": "function"
    },
    {
      "inputs": [
        {
          "internalType": "contract IAddressProvider",
          "name": "addressProvider",
          "type": "address"
        },
        {
          "internalType": "uint256",
          "name": "initialRewards",
          "type": "uint256"
        },
        {
          "internalType": "uint256",
          "name": "lpMaturityPeriod",
          "type": "uint256"
        }
      ],
      "name": "initialize",
      "outputs": [],
      "stateMutability": "nonpayable",
      "type": "function"
    },
    {
      "inputs": [
        {
          "internalType": "address",
          "name": "gauge",
          "type": "address"
        }
      ],
      "name": "isGauge",
      "outputs": [
        {
          "internalType": "bool",
          "name": "",
          "type": "bool"
        }
      ],
      "stateMutability": "view",
      "type": "function"
    },
    {
      "inputs": [],
      "name": "owner",
      "outputs": [
        {
          "internalType": "address",
          "name": "",
          "type": "address"
        }
      ],
      "stateMutability": "view",
      "type": "function"
    },
    {
      "inputs": [
        {
          "internalType": "address",
          "name": "gauge",
          "type": "address"
        }
      ],
      "name": "removeGauge",
      "outputs": [],
      "stateMutability": "nonpayable",
      "type": "function"
    },
    {
      "inputs": [],
      "name": "renounceOwnership",
      "outputs": [],
      "stateMutability": "nonpayable",
      "type": "function"
    },
    {
      "inputs": [
        {
          "internalType": "uint256",
          "name": "maturityPeriod",
          "type": "uint256"
        }
      ],
      "name": "setLPMaturityPeriod",
      "outputs": [],
      "stateMutability": "nonpayable",
      "type": "function"
    },
    {
      "inputs": [
        {
          "internalType": "address",
          "name": "newOwner",
          "type": "address"
        }
      ],
      "name": "transferOwnership",
      "outputs": [],
      "stateMutability": "nonpayable",
      "type": "function"
    },
    {
      "inputs": [
        {
          "internalType": "uint256",
          "name": "tokenId",
          "type": "uint256"
        },
        {
          "internalType": "address",
          "name": "gauge",
          "type": "address"
        },
        {
          "internalType": "uint256",
          "name": "ratio",
          "type": "uint256"
        }
      ],
      "name": "vote",
      "outputs": [],
      "stateMutability": "nonpayable",
      "type": "function"
    },
    {
      "inputs": [
        {
          "internalType": "address",
          "name": "gauge",
          "type": "address"
        }
      ],
      "name": "writeGaugeWeightHistory",
      "outputs": [],
      "stateMutability": "nonpayable",
      "type": "function"
    },
    {
      "inputs": [],
      "name": "writeTotalWeightHistory",
      "outputs": [],
      "stateMutability": "nonpayable",
      "type": "function"
    }
  ],
  "bytecode": "0x60806040523480156200001157600080fd5b506200001c62000022565b620000e4565b600054610100900460ff16156200008f5760405162461bcd60e51b815260206004820152602760248201527f496e697469616c697a61626c653a20636f6e747261637420697320696e697469604482015266616c697a696e6760c81b606482015260840160405180910390fd5b60005460ff9081161015620000e2576000805460ff191660ff9081179091556040519081527f7f26b83ff96e1f2b6a682f133852f6798a09c465da95921460cefb38474024989060200160405180910390a15b565b61260f80620000f46000396000f3fe608060405234801561001057600080fd5b50600436106101a95760003560e01c80637a1ac61e116100f9578063b1c6f0e911610097578063c341eea211610071578063c341eea2146103ac578063c947755a146103bf578063d31e99bf146103c7578063f2fde38b146103da57600080fd5b8063b1c6f0e914610365578063bebb417114610391578063c057beee146103a457600080fd5b80638da5cb5b116100d35780638da5cb5b146102de5780639da882ac14610303578063aa79979b14610316578063ad43a9181461035257600080fd5b80637a1ac61e146102bb5780637be27d79146102ce57806387da75ef146102d657600080fd5b806350735f6f1161016657806362bdcef01161014057806362bdcef014610285578063715018a61461028d57806372be52761461029557806374a21324146102a857600080fd5b806350735f6f1461024c57806353f713c01461025f5780635f0c0f2b1461027257600080fd5b806304422e0c146101ae57806305db07b8146101c357806306aba0e1146101fd57806333bd9441146102135780633a045145146102265780634de8737c14610239575b600080fd5b6101c16101bc3660046121da565b6103ed565b005b6101d66101d1366004612208565b61044f565b60408051825181526020808401519082015291810151908201526060015b60405180910390f35b6102056104d8565b6040519081526020016101f4565b610205610221366004612208565b610530565b6101c1610234366004612238565b61064f565b6101c1610247366004612255565b610763565b61020561025a3660046121da565b61100f565b61020561026d366004612208565b61104a565b6102056102803660046121da565b61108b565b610205600881565b6101c16111ec565b6102056102a3366004612238565b611200565b6102056102b636600461228d565b6112a8565b6101c16102c93660046122b9565b611306565b610205601881565b6101c161149b565b6033546001600160a01b03165b6040516001600160a01b0390911681526020016101f4565b6101c1610311366004612238565b6116a9565b610342610324366004612238565b6001600160a01b031660009081526071602052604090205460ff1690565b60405190151581526020016101f4565b61020561036036600461228d565b61184e565b6102eb610373366004612238565b6001600160a01b039081166000908152607260205260409020541690565b61020561039f3660046121da565b6118ad565b607454610205565b6101c16103ba366004612238565b6118cd565b610205603481565b6102056103d53660046121da565b611c4e565b6101c16103e8366004612238565b611cac565b6103f5611d25565b6000811161044a5760405162461bcd60e51b815260206004820181905260248201527f47433a534c504d503a494e56414c49445f4d415455524954595f504552494f4460448201526064015b60405180910390fd5b607455565b61047360405180606001604052806000815260200160008152602001600081525090565b8161047d81611d7f565b8361048781611dda565b60008581526070602090815260408083206001600160a01b0388168452825291829020825160608101845281548152600182015492810192909252600201549181019190915292505b505092915050565b606c546000906104e89042612304565b606b546104f59190612317565b606a5410156105045750600090565b606c546105119042612304565b606b5461051e9190612317565b606a5461052b9190612304565b905090565b60008161053c81611d7f565b8361054681611dda565b60008581526070602090815260408083206001600160a01b03881684529091529020805460029091015461057a9042612304565b60008781526070602090815260408083206001600160a01b038a1684529091529020600101546105aa9190612317565b11156105b957600092506104d0565b60008581526070602090815260408083206001600160a01b03881684529091529020600201546105e99042612304565b60008681526070602090815260408083206001600160a01b03891684529091529020600101546106199190612317565b60008681526070602090815260408083206001600160a01b03891684529091529020546106469190612304565b95945050505050565b610657611d25565b8061066181611d7f565b6000826001600160a01b0316633c1aa9256040518163ffffffff1660e01b8152600401602060405180830381865afa1580156106a1573d6000803e3d6000fd5b505050506040513d601f19601f820116820180604052508101906106c5919061232e565b6001600160a01b03808216600090815260726020526040902054919250808516911603610713576001600160a01b038116600090815260726020526040902080546001600160a01b03191690555b6001600160a01b03808416600081815260716020526040808220805460ff1916905551928416927fd0a8f460dc5355ab99f1304f75d5222692bf3d8d855d956b42e24c2639e8cae99190a3505050565b8261076d81611dda565b8261077781611d7f565b60655460408051630458184560e11b815290516000926001600160a01b0316916308b0308a9160048083019260209291908290030181865afa1580156107c1573d6000803e3d6000fd5b505050506040513d601f19601f820116820180604052508101906107e5919061232e565b6040516331a9108f60e11b81526004810188905290915033906001600160a01b03831690636352211e90602401602060405180830381865afa15801561082f573d6000803e3d6000fd5b505050506040513d601f19601f82011682018060405250810190610853919061232e565b6001600160a01b03161461089f5760405162461bcd60e51b815260206004820152601360248201527223a19d2b1d2727aa2fa627a1a5afa7aba722a960691b6044820152606401610441565b60405163d68f4dd160e01b8152600481018790526000906001600160a01b0383169063d68f4dd1906024016040805180830381865afa1580156108e6573d6000803e3d6000fd5b505050506040513d601f19601f8201168201806040525081019061090a919061234b565b6000888152606f602090815260408083206001600160a01b038b1684528252808320548b8452606e909252909120549192506127109161094a90886123a8565b6109549190612304565b11156109975760405162461bcd60e51b815260206004820152601260248201527147433a563a494e56414c49445f524154494f60701b6044820152606401610441565b42816020015111806109a7575084155b6109e75760405162461bcd60e51b815260206004820152601160248201527011d0ce958e9313d0d2d7d1561412549151607a1b6044820152606401610441565b8051610a355760405162461bcd60e51b815260206004820152601860248201527f47433a563a4c4f434b45445f42414c414e43455f5a45524f00000000000000006044820152606401610441565b6001600160a01b03861660009081526071602052604090205460ff16610a925760405162461bcd60e51b815260206004820152601260248201527147433a563a494e56414c49445f474155474560701b6044820152606401610441565b610a9a61149b565b610aa3866118cd565b6000826001600160a01b03166364a1b95b896001866001600160a01b03166386b749d68d6040518263ffffffff1660e01b8152600401610ae591815260200190565b602060405180830381865afa158015610b02573d6000803e3d6000fd5b505050506040513d601f19601f82011682018060405250810190610b2691906123bb565b610b309190612304565b6040516001600160e01b031960e085901b16815260048101929092526024820152604401606060405180830381865afa158015610b71573d6000803e3d6000fd5b505050506040513d601f19601f82011682018060405250810190610b9591906123d4565b9050610bbb60405180606001604052806000815260200160008152602001600081525090565b610bdf60405180606001604052806000815260200160008152602001600081525090565b610c13836040015142610bf29190612304565b8460200151610c019190612317565b8451610c0d9190612304565b89611f00565b81526020830151610c249089611f00565b6020808301919091524260408084019190915260008c8152606f83528181206001600160a01b038d16825290925290205415801590610c665750836020015142105b15610d5e5760008a81526070602090815260408083206001600160a01b038d168452909152902060020154610c9b9042612304565b60008b81526070602090815260408083206001600160a01b038e168452909152902060010154610ccb9190612317565b825260008a81526070602090815260408083206001600160a01b038d16808552908352818420600101548387018190524283880152908452606883528184208884015185529092528220805491929091610d26908490612304565b925050819055508160200151606d6000866020015181526020019081526020016000206000828254610d589190612304565b90915550505b6020808201516001600160a01b038b166000908152606883526040808220888501518352909352918220805491929091610d999084906123a8565b925050819055508060200151606d6000866020015181526020019081526020016000206000828254610dcb91906123a8565b9091555050815181516001600160a01b038b16600090815260676020526040902060020154610dfa9042612304565b6001600160a01b038c16600090815260676020526040902060010154610e209190612317565b6001600160a01b038c16600090815260676020526040902054610e439190612304565b610e4d91906123a8565b610e579190612304565b6001600160a01b038a16600090815260676020908152604090912091825583810151908301516001909201549091610e8e916123a8565b610e989190612304565b6001600160a01b038a166000908152606760205260409020600181019190915542600290910181905582518251606c5491929091610ed591612304565b606b54610ee29190612317565b606a54610eef9190612304565b610ef991906123a8565b610f039190612304565b606a5560208083015190820151606b54610f1d91906123a8565b610f279190612304565b606b5542606c5560008a8152606f602090815260408083206001600160a01b038d1684528252808320548d8452606e90925290912054610f67908a6123a8565b610f719190612304565b60008b8152606e6020908152604080832093909355606f81528282206001600160a01b038d168084529082528383208c90558d835260708252838320818452825291839020845181558482015160018201558484015160029091015591518a815290918c9133917f26d331fe2c57870421b3b095caa4314147214aba97e799945d1579ebfe5e08ad910160405180910390a450505050505050505050565b60008161101b81611f26565b61102361149b565b606983815481106110365761103661243e565b906000526020600020015491505b50919050565b60008161105681611d7f565b8361106081611dda565b5050506000918252606f602090815260408084206001600160a01b0393909316845291905290205490565b60008161109781611f26565b6110a08361100f565b6000036110b05760009150611044565b6110bd6003612710612538565b6110c684611c4e565b60036005606560009054906101000a90046001600160a01b03166001600160a01b03166308b0308a6040518163ffffffff1660e01b8152600401602060405180830381865afa15801561111d573d6000803e3d6000fd5b505050506040513d601f19601f82011682018060405250810190611141919061232e565b6001600160a01b031663b263bb3b886040518263ffffffff1660e01b815260040161116e91815260200190565b6020604051808303816000875af115801561118d573d6000803e3d6000fd5b505050506040513d601f19601f820116820180604052508101906111b191906123bb565b6111bb9190612547565b6111c790612710612304565b6111d19190612538565b6111db9190612317565b6111e59190612547565b9392505050565b6111f4611d25565b6111fe6000612048565b565b60008161120c81611d7f565b6001600160a01b03831660009081526067602090815260409182902082516060810184528154815260018201549281019290925260020154918101829052906112559042612304565b81602001516112649190612317565b81511015611276576000925050611044565b60408101516112859042612304565b81602001516112949190612317565b81516112a09190612304565b949350505050565b6000816112b481611f26565b836112be81611d7f565b6112c7856118cd565b6001600160a01b03851660009081526066602052604090208054859081106112f1576112f161243e565b90600052602060002001549250505092915050565b600054610100900460ff16158080156113265750600054600160ff909116105b806113405750303b158015611340575060005460ff166001145b6113a35760405162461bcd60e51b815260206004820152602e60248201527f496e697469616c697a61626c653a20636f6e747261637420697320616c72656160448201526d191e481a5b9a5d1a585b1a5e995960921b6064820152608401610441565b6000805460ff1916600117905580156113c6576000805461ff0019166101001790555b6113ce61209a565b606580546001600160a01b0319166001600160a01b038616179055607383905560748290556069805460018101825560009182527f7fb4302e8e91f9110a6554c2c0a24601252c2a42c2220ca988efcfe399914308018190556040805160608101825282815260208101839052429101819052606a829055606b91909155606c558015611495576000805461ff0019169055604051600181527f7f26b83ff96e1f2b6a682f133852f6798a09c465da95921460cefb38474024989060200160405180910390a15b50505050565b60655460408051630458184560e11b815290516000926001600160a01b0316916308b0308a9160048083019260209291908290030181865afa1580156114e5573d6000803e3d6000fd5b505050506040513d601f19601f82011682018060405250810190611509919061232e565b60695460405163b291824f60e01b815260048101919091529091506000906001600160a01b0383169063b291824f906024016020604051808303816000875af115801561155a573d6000803e3d6000fd5b505050506040513d601f19601f8201168201806040525081019061157e91906123bb565b90506000826001600160a01b031663dfb1a4d26040518163ffffffff1660e01b8152600401602060405180830381865afa1580156115c0573d6000803e3d6000fd5b505050506040513d601f19601f820116820180604052508101906115e491906123bb565b905060005b60808110156114955742831161149557606c546000906116099085612304565b606b546116169190612317565b606a546116239190612304565b60698054600181019091557f7fb4302e8e91f9110a6554c2c0a24601252c2a42c2220ca988efcfe39991430801819055606a819055606c8590556000858152606d6020526040812054606b80549394509092909190611683908490612304565b90915550611693905083856123a8565b93505080806116a190612569565b9150506115e9565b6116b1611d25565b6001600160a01b03811660009081526071602052604090205460ff161561171a5760405162461bcd60e51b815260206004820152601960248201527f47433a41473a47415547455f414c52454144595f4144444544000000000000006044820152606401610441565b6117346001600160a01b038216633c1aa92560e01b6120c9565b6117765760405162461bcd60e51b815260206004820152601360248201527247433a41473a494e56414c49445f474155474560681b6044820152606401610441565b6000816001600160a01b0316633c1aa9256040518163ffffffff1660e01b8152600401602060405180830381865afa1580156117b6573d6000803e3d6000fd5b505050506040513d601f19601f820116820180604052508101906117da919061232e565b6001600160a01b03818116600081815260726020908152604080832080546001600160a01b03191695891695861790558483526071909152808220805460ff191660011790555193945090927f82ec1cbe428cca584a7a3ab0a9506a3c8583f7a8d14e3b81184c5c632e83420e9190a35050565b60008261185a81611d7f565b8261186481611f26565b61186d8461100f565b60000361187d57600092506104d0565b6118868461100f565b61189086866112a8565b6118998661108b565b6118a39190612317565b6106469190612547565b6000816118b981611dda565b50506000908152606e602052604090205490565b806118d781611d7f565b60655460408051630458184560e11b815290516000926001600160a01b0316916308b0308a9160048083019260209291908290030181865afa158015611921573d6000803e3d6000fd5b505050506040513d601f19601f82011682018060405250810190611945919061232e565b6001600160a01b03841660009081526066602052604081205491925003611a49576001600160a01b0380841660009081526066602090815260408083208054600181018255908452828420018390558051606081018252838152918201839052805163b291824f60e01b81529193908401929085169163b291824f916119d19160040190815260200190565b6020604051808303816000875af11580156119f0573d6000803e3d6000fd5b505050506040513d601f19601f82011682018060405250810190611a1491906123bb565b90526001600160a01b038416600090815260676020908152604091829020835181559083015160018201559101516002909101555b6000816001600160a01b031663dfb1a4d26040518163ffffffff1660e01b8152600401602060405180830381865afa158015611a89573d6000803e3d6000fd5b505050506040513d601f19601f82011682018060405250810190611aad91906123bb565b6001600160a01b0385811660009081526066602052604080822054905163b291824f60e01b81526004810191909152929350919084169063b291824f906024016020604051808303816000875af1158015611b0c573d6000803e3d6000fd5b505050506040513d601f19601f82011682018060405250810190611b3091906123bb565b905060005b6080811015611c4657428211611c46576001600160a01b038616600090815260676020526040812060020154611b6b9084612304565b6001600160a01b038816600090815260676020526040902060010154611b919190612317565b6001600160a01b038816600090815260676020526040902054611bb49190612304565b6001600160a01b0388166000818152606660209081526040808320805460018181018355918552838520018690558484526067808452828520878155600281018b9055606885528386208b87528552928520549585529092520180549394509192611c20908490612304565b90915550611c30905084846123a8565b9250508080611c3e90612569565b915050611b35565b505050505050565b6000806018831015611c6a576018836073546111db9190612317565b6008811115611c7b57506008611c89565b611c86603484612547565b90505b611c94816004612582565b611c9f826003612582565b6073546111db9190612317565b611cb4611d25565b6001600160a01b038116611d195760405162461bcd60e51b815260206004820152602660248201527f4f776e61626c653a206e6577206f776e657220697320746865207a65726f206160448201526564647265737360d01b6064820152608401610441565b611d2281612048565b50565b6033546001600160a01b031633146111fe5760405162461bcd60e51b815260206004820181905260248201527f4f776e61626c653a2063616c6c6572206973206e6f7420746865206f776e65726044820152606401610441565b6001600160a01b03811660009081526071602052604090205460ff16611d225760405162461bcd60e51b815260206004820152601060248201526f47433a494e56414c49445f474155474560801b6044820152606401610441565b60655460408051630458184560e11b815290516000926001600160a01b0316916308b0308a9160048083019260209291908290030181865afa158015611e24573d6000803e3d6000fd5b505050506040513d601f19601f82011682018060405250810190611e48919061232e565b6001600160a01b0316636352211e836040518263ffffffff1660e01b8152600401611e7591815260200190565b602060405180830381865afa158015611e92573d6000803e3d6000fd5b505050506040513d601f19601f82011682018060405250810190611eb6919061232e565b6001600160a01b031603611d225760405162461bcd60e51b815260206004820152601160248201527011d0ce9313d0d2d7d393d517d193d55391607a1b6044820152606401610441565b600081156113881983900484111517611f1857600080fd5b506127109102611388010490565b606560009054906101000a90046001600160a01b03166001600160a01b03166308b0308a6040518163ffffffff1660e01b8152600401602060405180830381865afa158015611f79573d6000803e3d6000fd5b505050506040513d601f19601f82011682018060405250810190611f9d919061232e565b604051635e05e35d60e11b81524260048201526001600160a01b03919091169063bc0bc6ba90602401602060405180830381865afa158015611fe3573d6000803e3d6000fd5b505050506040513d601f19601f8201168201806040525081019061200791906123bb565b811115611d225760405162461bcd60e51b815260206004820152600f60248201526e08e86748caaa8aaa48abe8aa09e869608b1b6044820152606401610441565b603380546001600160a01b038381166001600160a01b0319831681179093556040519116919082907f8be0079c531659141344cd1fd0a4f28419497f9722a3daafe3b4186f6b6457e090600090a35050565b600054610100900460ff166120c15760405162461bcd60e51b81526004016104419061258e565b6111fe6120ee565b60006120d48361211e565b80156120e557506120e58383612151565b90505b92915050565b600054610100900460ff166121155760405162461bcd60e51b81526004016104419061258e565b6111fe33612048565b6000612131826301ffc9a760e01b612151565b80156120e8575061214a826001600160e01b0319612151565b1592915050565b604080516001600160e01b03198316602480830191909152825180830390910181526044909101909152602080820180516001600160e01b03166301ffc9a760e01b178152825160009392849283928392918391908a617530fa92503d915060005190508280156121c3575060208210155b80156121cf5750600081115b979650505050505050565b6000602082840312156121ec57600080fd5b5035919050565b6001600160a01b0381168114611d2257600080fd5b6000806040838503121561221b57600080fd5b82359150602083013561222d816121f3565b809150509250929050565b60006020828403121561224a57600080fd5b81356111e5816121f3565b60008060006060848603121561226a57600080fd5b83359250602084013561227c816121f3565b929592945050506040919091013590565b600080604083850312156122a057600080fd5b82356122ab816121f3565b946020939093013593505050565b6000806000606084860312156122ce57600080fd5b83356122d9816121f3565b95602085013595506040909401359392505050565b634e487b7160e01b600052601160045260246000fd5b818103818111156120e8576120e86122ee565b80820281158282048414176120e8576120e86122ee565b60006020828403121561234057600080fd5b81516111e5816121f3565b60006040828403121561235d57600080fd5b6040516040810181811067ffffffffffffffff8211171561238e57634e487b7160e01b600052604160045260246000fd5b604052825181526020928301519281019290925250919050565b808201808211156120e8576120e86122ee565b6000602082840312156123cd57600080fd5b5051919050565b6000606082840312156123e657600080fd5b6040516060810181811067ffffffffffffffff8211171561241757634e487b7160e01b600052604160045260246000fd5b80604052508251815260208301516020820152604083015160408201528091505092915050565b634e487b7160e01b600052603260045260246000fd5b600181815b8085111561248f578160001904821115612475576124756122ee565b8085161561248257918102915b93841c9390800290612459565b509250929050565b6000826124a6575060016120e8565b816124b3575060006120e8565b81600181146124c957600281146124d3576124ef565b60019150506120e8565b60ff8411156124e4576124e46122ee565b50506001821b6120e8565b5060208310610133831016604e8410600b8410161715612512575081810a6120e8565b61251c8383612454565b8060001904821115612530576125306122ee565b029392505050565b60006120e560ff841683612497565b60008261256457634e487b7160e01b600052601260045260246000fd5b500490565b60006001820161257b5761257b6122ee565b5060010190565b60006120e58383612497565b6020808252602b908201527f496e697469616c697a61626c653a20636f6e7472616374206973206e6f74206960408201526a6e697469616c697a696e6760a81b60608201526080019056fea2646970667358221220ae39c60786b9e0eecb4d9bac575aafd58ebf8e2fadc2d27a98399581f00ad60464736f6c63430008130033",
  "linkReferences": {},
  "deployedLinkReferences": {}
}