{
  "_format": "hh-sol-artifact-1",
  "contractName": "GaugeController",
  "sourceName": "contracts/protocol/Gauges/GaugeControler.sol",
  "abi": [
    {
      "anonymous": false,
      "inputs": [
        {
          "indexed": false,
          "internalType": "uint8",
          "name": "version",
          "type": "uint8"
        }
      ],
      "name": "Initialized",
      "type": "event"
    },
    {
      "anonymous": false,
      "inputs": [
        {
          "indexed": true,
          "internalType": "address",
          "name": "previousOwner",
          "type": "address"
        },
        {
          "indexed": true,
          "internalType": "address",
          "name": "newOwner",
          "type": "address"
        }
      ],
      "name": "OwnershipTransferred",
      "type": "event"
    },
    {
      "inputs": [
        {
          "internalType": "address",
          "name": "reserve",
          "type": "address"
        },
        {
          "internalType": "address",
          "name": "gauge",
          "type": "address"
        }
      ],
      "name": "addGauge",
      "outputs": [],
      "stateMutability": "nonpayable",
      "type": "function"
    },
    {
      "inputs": [
        {
          "internalType": "address",
          "name": "reserve",
          "type": "address"
        }
      ],
      "name": "getGauge",
      "outputs": [
        {
          "internalType": "address",
          "name": "",
          "type": "address"
        }
      ],
      "stateMutability": "view",
      "type": "function"
    },
    {
      "inputs": [
        {
          "internalType": "address",
          "name": "gauge",
          "type": "address"
        }
      ],
      "name": "getGaugeWeight",
      "outputs": [
        {
          "internalType": "uint256",
          "name": "",
          "type": "uint256"
        }
      ],
      "stateMutability": "view",
      "type": "function"
    },
    {
      "inputs": [
        {
          "internalType": "address",
          "name": "gauge",
          "type": "address"
        },
        {
          "internalType": "uint256",
          "name": "epoch",
          "type": "uint256"
        }
      ],
      "name": "getGaugeWeightAt",
      "outputs": [
        {
          "internalType": "uint256",
          "name": "",
          "type": "uint256"
        }
      ],
      "stateMutability": "view",
      "type": "function"
    },
    {
      "inputs": [],
      "name": "getTotalWeight",
      "outputs": [
        {
          "internalType": "uint256",
          "name": "",
          "type": "uint256"
        }
      ],
      "stateMutability": "view",
      "type": "function"
    },
    {
      "inputs": [
        {
          "internalType": "uint256",
          "name": "epoch",
          "type": "uint256"
        }
      ],
      "name": "getTotalWeightAt",
      "outputs": [
        {
          "internalType": "uint256",
          "name": "",
          "type": "uint256"
        }
      ],
      "stateMutability": "view",
      "type": "function"
    },
    {
      "inputs": [
        {
          "internalType": "contract IAddressesProvider",
          "name": "addressProvider",
          "type": "address"
        }
      ],
      "name": "initialize",
      "outputs": [],
      "stateMutability": "nonpayable",
      "type": "function"
    },
    {
      "inputs": [
        {
          "internalType": "address",
          "name": "gauge",
          "type": "address"
        }
      ],
      "name": "isGauge",
      "outputs": [
        {
          "internalType": "bool",
          "name": "",
          "type": "bool"
        }
      ],
      "stateMutability": "view",
      "type": "function"
    },
    {
      "inputs": [],
      "name": "owner",
      "outputs": [
        {
          "internalType": "address",
          "name": "",
          "type": "address"
        }
      ],
      "stateMutability": "view",
      "type": "function"
    },
    {
      "inputs": [],
      "name": "renounceOwnership",
      "outputs": [],
      "stateMutability": "nonpayable",
      "type": "function"
    },
    {
      "inputs": [
        {
          "internalType": "address",
          "name": "newOwner",
          "type": "address"
        }
      ],
      "name": "transferOwnership",
      "outputs": [],
      "stateMutability": "nonpayable",
      "type": "function"
    },
    {
      "inputs": [
        {
          "internalType": "address",
          "name": "gauge",
          "type": "address"
        },
        {
          "internalType": "uint256",
          "name": "weight",
          "type": "uint256"
        }
      ],
      "name": "vote",
      "outputs": [],
      "stateMutability": "nonpayable",
      "type": "function"
    },
    {
      "inputs": [
        {
          "internalType": "address",
          "name": "user",
          "type": "address"
        }
      ],
      "name": "voteUserPower",
      "outputs": [
        {
          "internalType": "uint256",
          "name": "",
          "type": "uint256"
        }
      ],
      "stateMutability": "view",
      "type": "function"
    },
    {
      "inputs": [
        {
          "internalType": "address",
          "name": "gauge",
          "type": "address"
        }
      ],
      "name": "writeGaugeWeightHistory",
      "outputs": [],
      "stateMutability": "nonpayable",
      "type": "function"
    },
    {
      "inputs": [],
      "name": "writeTotalWeightHistory",
      "outputs": [],
      "stateMutability": "nonpayable",
      "type": "function"
    }
  ],
  "bytecode": "0x608060405234801561001057600080fd5b50611253806100206000396000f3fe608060405234801561001057600080fd5b50600436106100f55760003560e01c806387da75ef11610097578063c341eea211610066578063c341eea214610256578063c4d66de814610269578063ec73d9061461027c578063f2fde38b146102a557600080fd5b806387da75ef146101c15780638da5cb5b146101c9578063aa79979b146101ee578063b1c6f0e91461022a57600080fd5b80635f74bbde116100d35780635f74bbde14610180578063715018a61461019357806372be52761461019b57806374a21324146101ae57600080fd5b806306aba0e1146100fa578063162091651461011557806350735f6f1461016d575b600080fd5b6101026102b8565b6040519081526020015b60405180910390f35b61016b610123366004610f96565b6001600160a01b03918216600090815260706020908152604080832080546001600160a01b03191694909516938417909455918152607190915220805460ff19166001179055565b005b61010261017b366004610fcf565b6102e7565b61016b61018e366004610fe8565b61030e565b61016b6109e6565b6101026101a9366004611014565b6109fa565b6101026101bc366004610fe8565b610a63565b61016b610aa1565b6033546001600160a01b03165b6040516001600160a01b03909116815260200161010c565b61021a6101fc366004611014565b6001600160a01b031660009081526071602052604090205460ff1690565b604051901515815260200161010c565b6101d6610238366004611014565b6001600160a01b039081166000908152607060205260409020541690565b61016b610264366004611014565b610b83565b61016b610277366004611014565b610cd6565b61010261028a366004611014565b6001600160a01b03166000908152606e602052604090205490565b61016b6102b3366004611014565b610e02565b606c546000906102c89042611047565b606b546102d5919061105a565b606a546102e29190611047565b905090565b6000606982815481106102fc576102fc611071565b90600052602060002001549050919050565b60655460408051630458184560e11b815290516000926001600160a01b0316916308b0308a9160048083019260209291908290030181865afa158015610358573d6000803e3d6000fd5b505050506040513d601f19601f8201168201806040525081019061037c9190611087565b60405163cbf9fe5f60e01b81523360048201529091506000906001600160a01b0383169063cbf9fe5f906024016040805180830381865afa1580156103c5573d6000803e3d6000fd5b505050506040513d601f19601f820116820180604052508101906103e991906110a4565b90506000831180156103fc575061271083105b61045b5760405162461bcd60e51b815260206004820152602560248201527f566f746520776569676874206d7573742062656c6f6e6720746f205b302c2031604482015264303030305d60d81b60648201526084015b60405180910390fd5b6001600160a01b0384166000908152606f60209081526040808320338452825280832054606e9092529091205461271091906104979086611101565b6104a19190611047565b11156104e65760405162461bcd60e51b8152602060048201526014602482015273566f746520706f776572206f766572203130302560601b6044820152606401610452565b4281602001511161054b5760405162461bcd60e51b815260206004820152602960248201527f4d757374206861766520616e2061637469766520766f746520696e206f7264656044820152687220746f20766f746560b81b6064820152608401610452565b80516105b05760405162461bcd60e51b815260206004820152602e60248201527f4d7573742068617665206c6f636b65642062616c616e6365206269676765722060448201526d7468616e203020746f20766f746560901b6064820152608401610452565b6105b8610aa1565b6105c184610b83565b6040516304a9617360e41b815233600482018190526000916001600160a01b0385169163d7c6eaaf916001908490634a96173090602401602060405180830381865afa158015610615573d6000803e3d6000fd5b505050506040513d601f19601f820116820180604052508101906106399190611114565b6106439190611047565b6040516001600160e01b031960e085901b1681526001600160a01b0390921660048301526024820152604401606060405180830381865afa15801561068c573d6000803e3d6000fd5b505050506040513d601f19601f820116820180604052508101906106b0919061112d565b6001600160a01b0386166000908152606f602090815260408083203384529091529020549091501561077e576001600160a01b0385166000818152606f60209081526040808320338452825280832060018101549484526068835281842060029091015484529091528120805490919061072b908490611047565b90915550506001600160a01b0385166000908152606f60209081526040808320338452825280832060018101546002909101548452606d9092528220805491929091610778908490611047565b90915550505b6020808201516001600160a01b03871660009081526068835260408082208685015183529093529182208054919290916107b9908490611101565b925050819055508060200151606d60008460200151815260200190815260200160002060008282546107eb9190611101565b90915550506001600160a01b0385166000908152606f6020908152604080832033845290915290205461081e9085611047565b6001600160a01b03861660009081526067602052604081208054909190610846908490611101565b90915550506001600160a01b0385166000908152606f60209081526040808320338452825290912060010154908201516108809190611047565b6001600160a01b038616600090815260676020526040812060010180549091906108ab908490611101565b90915550506001600160a01b038516600090815260676020908152604080832042600290910155606f82528083203384529091529020546108ec9085611047565b606a556001600160a01b0385166000908152606f60209081526040808320338452825290912060010154908201516109249190611047565b606b8054600090610936908490611101565b909155505042606c556001600160a01b0385166000908152606f60209081526040808320338452825280832054606e909252909120546109769086611101565b6109809190611047565b336000818152606e6020908152604080832094909455835160608101855297885293840151878501908152948401518784019081526001600160a01b03989098168152606f84528281209181529252902092518355516001830155509051600290910155565b6109ee610e7b565b6109f86000610ed5565b565b6001600160a01b038116600090815260676020908152604080832081516060810183528154815260018201549381019390935260020154908201819052610a419042611047565b8160200151610a50919061105a565b8151610a5c9190611047565b9392505050565b6001600160a01b0382166000908152606660205260408120805483908110610a8d57610a8d611071565b906000526020600020015490505b92915050565b6000610ab162015180600761105a565b610abf62015180600761105a565b606c54610acc9190611197565b610ad6919061105a565b905060005b6080811015610b7f57610af262015180600761105a565b610afc9083611101565b9150428211610b7f57606c54606990610b159042611047565b606b54610b22919061105a565b606a54610b2f9190611047565b81546001810183556000928352602080842090910191909155838252606d90526040812054606b805491929091610b67908490611101565b90915550819050610b77816111b9565b915050610adb565b5050565b6000610b9362015180600761105a565b610ba162015180600761105a565b6001600160a01b038416600090815260676020526040902060020154610bc79190611197565b610bd1919061105a565b905060005b6080811015610cd157610bed62015180600761105a565b610bf79083611101565b9150428211610cd1576001600160a01b0383166000908152606660209081526040808320606790925290912060020154610c319042611047565b606b54610c3e919061105a565b6001600160a01b038516600090815260676020526040902054610c619190611047565b81546001818101845560009384526020808520909201929092556001600160a01b0386168084526068825260408085208786528352808520549185526067909252908320909101805491929091610cb9908490611101565b90915550819050610cc9816111b9565b915050610bd6565b505050565b600054610100900460ff1615808015610cf65750600054600160ff909116105b80610d105750303b158015610d10575060005460ff166001145b610d735760405162461bcd60e51b815260206004820152602e60248201527f496e697469616c697a61626c653a20636f6e747261637420697320616c72656160448201526d191e481a5b9a5d1a585b1a5e995960921b6064820152608401610452565b6000805460ff191660011790558015610d96576000805461ff0019166101001790555b610d9e610f27565b606580546001600160a01b0319166001600160a01b0384161790558015610b7f576000805461ff0019169055604051600181527f7f26b83ff96e1f2b6a682f133852f6798a09c465da95921460cefb38474024989060200160405180910390a15050565b610e0a610e7b565b6001600160a01b038116610e6f5760405162461bcd60e51b815260206004820152602660248201527f4f776e61626c653a206e6577206f776e657220697320746865207a65726f206160448201526564647265737360d01b6064820152608401610452565b610e7881610ed5565b50565b6033546001600160a01b031633146109f85760405162461bcd60e51b815260206004820181905260248201527f4f776e61626c653a2063616c6c6572206973206e6f7420746865206f776e65726044820152606401610452565b603380546001600160a01b038381166001600160a01b0319831681179093556040519116919082907f8be0079c531659141344cd1fd0a4f28419497f9722a3daafe3b4186f6b6457e090600090a35050565b600054610100900460ff16610f4e5760405162461bcd60e51b8152600401610452906111d2565b6109f8600054610100900460ff16610f785760405162461bcd60e51b8152600401610452906111d2565b6109f833610ed5565b6001600160a01b0381168114610e7857600080fd5b60008060408385031215610fa957600080fd5b8235610fb481610f81565b91506020830135610fc481610f81565b809150509250929050565b600060208284031215610fe157600080fd5b5035919050565b60008060408385031215610ffb57600080fd5b823561100681610f81565b946020939093013593505050565b60006020828403121561102657600080fd5b8135610a5c81610f81565b634e487b7160e01b600052601160045260246000fd5b81810381811115610a9b57610a9b611031565b8082028115828204841417610a9b57610a9b611031565b634e487b7160e01b600052603260045260246000fd5b60006020828403121561109957600080fd5b8151610a5c81610f81565b6000604082840312156110b657600080fd5b6040516040810181811067ffffffffffffffff821117156110e757634e487b7160e01b600052604160045260246000fd5b604052825181526020928301519281019290925250919050565b80820180821115610a9b57610a9b611031565b60006020828403121561112657600080fd5b5051919050565b60006060828403121561113f57600080fd5b6040516060810181811067ffffffffffffffff8211171561117057634e487b7160e01b600052604160045260246000fd5b80604052508251815260208301516020820152604083015160408201528091505092915050565b6000826111b457634e487b7160e01b600052601260045260246000fd5b500490565b6000600182016111cb576111cb611031565b5060010190565b6020808252602b908201527f496e697469616c697a61626c653a20636f6e7472616374206973206e6f74206960408201526a6e697469616c697a696e6760a81b60608201526080019056fea264697066735822122016294cb4b9559b21a8841d3020528d6bf43f660f8fff28afe3df107784a91d1f64736f6c63430008110033",
  "linkReferences": {},
  "deployedLinkReferences": {}
}