{
  "_format": "hh-sol-artifact-1",
  "contractName": "GaugeController",
  "sourceName": "contracts/protocol/Gauges/GaugeController.sol",
  "abi": [
    {
      "anonymous": false,
      "inputs": [
        {
          "indexed": true,
          "internalType": "address",
          "name": "gauge",
          "type": "address"
        },
        {
          "indexed": true,
          "internalType": "address",
          "name": "liquidityPool",
          "type": "address"
        }
      ],
      "name": "AddGauge",
      "type": "event"
    },
    {
      "anonymous": false,
      "inputs": [
        {
          "indexed": false,
          "internalType": "uint8",
          "name": "version",
          "type": "uint8"
        }
      ],
      "name": "Initialized",
      "type": "event"
    },
    {
      "anonymous": false,
      "inputs": [
        {
          "indexed": true,
          "internalType": "address",
          "name": "previousOwner",
          "type": "address"
        },
        {
          "indexed": true,
          "internalType": "address",
          "name": "newOwner",
          "type": "address"
        }
      ],
      "name": "OwnershipTransferred",
      "type": "event"
    },
    {
      "anonymous": false,
      "inputs": [
        {
          "indexed": true,
          "internalType": "address",
          "name": "gauge",
          "type": "address"
        },
        {
          "indexed": true,
          "internalType": "address",
          "name": "liquidityPool",
          "type": "address"
        }
      ],
      "name": "RemoveGauge",
      "type": "event"
    },
    {
      "anonymous": false,
      "inputs": [
        {
          "indexed": true,
          "internalType": "address",
          "name": "user",
          "type": "address"
        },
        {
          "indexed": true,
          "internalType": "address",
          "name": "gauge",
          "type": "address"
        },
        {
          "indexed": false,
          "internalType": "uint256",
          "name": "weight",
          "type": "uint256"
        }
      ],
      "name": "Vote",
      "type": "event"
    },
    {
      "inputs": [
        {
          "internalType": "address",
          "name": "gauge",
          "type": "address"
        }
      ],
      "name": "addGauge",
      "outputs": [],
      "stateMutability": "nonpayable",
      "type": "function"
    },
    {
      "inputs": [
        {
          "internalType": "address",
          "name": "liquidityPool",
          "type": "address"
        }
      ],
      "name": "getGauge",
      "outputs": [
        {
          "internalType": "address",
          "name": "",
          "type": "address"
        }
      ],
      "stateMutability": "view",
      "type": "function"
    },
    {
      "inputs": [
        {
          "internalType": "address",
          "name": "gauge",
          "type": "address"
        }
      ],
      "name": "getGaugeWeight",
      "outputs": [
        {
          "internalType": "uint256",
          "name": "",
          "type": "uint256"
        }
      ],
      "stateMutability": "view",
      "type": "function"
    },
    {
      "inputs": [
        {
          "internalType": "address",
          "name": "gauge",
          "type": "address"
        },
        {
          "internalType": "uint256",
          "name": "epoch",
          "type": "uint256"
        }
      ],
      "name": "getGaugeWeightAt",
      "outputs": [
        {
          "internalType": "uint256",
          "name": "",
          "type": "uint256"
        }
      ],
      "stateMutability": "nonpayable",
      "type": "function"
    },
    {
      "inputs": [],
      "name": "getTotalWeight",
      "outputs": [
        {
          "internalType": "uint256",
          "name": "",
          "type": "uint256"
        }
      ],
      "stateMutability": "view",
      "type": "function"
    },
    {
      "inputs": [
        {
          "internalType": "uint256",
          "name": "epoch",
          "type": "uint256"
        }
      ],
      "name": "getTotalWeightAt",
      "outputs": [
        {
          "internalType": "uint256",
          "name": "",
          "type": "uint256"
        }
      ],
      "stateMutability": "nonpayable",
      "type": "function"
    },
    {
      "inputs": [
        {
          "internalType": "contract IAddressesProvider",
          "name": "addressProvider",
          "type": "address"
        }
      ],
      "name": "initialize",
      "outputs": [],
      "stateMutability": "nonpayable",
      "type": "function"
    },
    {
      "inputs": [
        {
          "internalType": "address",
          "name": "gauge",
          "type": "address"
        }
      ],
      "name": "isGauge",
      "outputs": [
        {
          "internalType": "bool",
          "name": "",
          "type": "bool"
        }
      ],
      "stateMutability": "view",
      "type": "function"
    },
    {
      "inputs": [],
      "name": "owner",
      "outputs": [
        {
          "internalType": "address",
          "name": "",
          "type": "address"
        }
      ],
      "stateMutability": "view",
      "type": "function"
    },
    {
      "inputs": [
        {
          "internalType": "address",
          "name": "gauge",
          "type": "address"
        }
      ],
      "name": "removeGauge",
      "outputs": [],
      "stateMutability": "nonpayable",
      "type": "function"
    },
    {
      "inputs": [],
      "name": "renounceOwnership",
      "outputs": [],
      "stateMutability": "nonpayable",
      "type": "function"
    },
    {
      "inputs": [
        {
          "internalType": "address",
          "name": "newOwner",
          "type": "address"
        }
      ],
      "name": "transferOwnership",
      "outputs": [],
      "stateMutability": "nonpayable",
      "type": "function"
    },
    {
      "inputs": [
        {
          "internalType": "address",
          "name": "user",
          "type": "address"
        }
      ],
      "name": "userVoteWeight",
      "outputs": [
        {
          "internalType": "uint256",
          "name": "",
          "type": "uint256"
        }
      ],
      "stateMutability": "view",
      "type": "function"
    },
    {
      "inputs": [
        {
          "internalType": "address",
          "name": "user",
          "type": "address"
        },
        {
          "internalType": "address",
          "name": "gauge",
          "type": "address"
        }
      ],
      "name": "userVoteWeightForGauge",
      "outputs": [
        {
          "internalType": "uint256",
          "name": "",
          "type": "uint256"
        }
      ],
      "stateMutability": "view",
      "type": "function"
    },
    {
      "inputs": [
        {
          "internalType": "address",
          "name": "gauge",
          "type": "address"
        },
        {
          "internalType": "uint256",
          "name": "weight",
          "type": "uint256"
        }
      ],
      "name": "vote",
      "outputs": [],
      "stateMutability": "nonpayable",
      "type": "function"
    },
    {
      "inputs": [
        {
          "internalType": "address",
          "name": "gauge",
          "type": "address"
        }
      ],
      "name": "writeGaugeWeightHistory",
      "outputs": [],
      "stateMutability": "nonpayable",
      "type": "function"
    },
    {
      "inputs": [],
      "name": "writeTotalWeightHistory",
      "outputs": [],
      "stateMutability": "nonpayable",
      "type": "function"
    }
  ],
  "bytecode": "0x608060405234801561001057600080fd5b50611c18806100206000396000f3fe608060405234801561001057600080fd5b506004361061010b5760003560e01c806374a21324116100a2578063aa79979b11610071578063aa79979b146101fa578063b1c6f0e914610236578063c341eea214610262578063c4d66de814610275578063f2fde38b1461028857600080fd5b806374a21324146101a757806387da75ef146101ba5780638da5cb5b146101c25780639da882ac146101e757600080fd5b80635f74bbde116100de5780635f74bbde146101665780636b96d76514610179578063715018a61461018c57806372be52761461019457600080fd5b806306aba0e1146101105780632e8769f21461012b5780633a0451451461013e57806350735f6f14610153575b600080fd5b61011861029b565b6040519081526020015b60405180910390f35b610118610139366004611946565b6102f3565b61015161014c36600461197f565b6104c6565b005b61011861016136600461199c565b6105d9565b6101516101743660046119b5565b610608565b61011861018736600461197f565b610d37565b610151610e90565b6101186101a236600461197f565b610ea4565b6101186101b53660046119b5565b610f76565b610151610ff4565b6033546001600160a01b03165b6040516001600160a01b039091168152602001610122565b6101516101f536600461197f565b6111ae565b61022661020836600461197f565b6001600160a01b031660009081526070602052604090205460ff1690565b6040519015158152602001610122565b6101cf61024436600461197f565b6001600160a01b039081166000908152607160205260409020541690565b61015161027036600461197f565b61128e565b61015161028336600461197f565b61162a565b61015161029636600461197f565b6117b2565b606c546000906102ab90426119f7565b606b546102b89190611a0a565b606a5410156102c75750600090565b606c546102d490426119f7565b606b546102e19190611a0a565b606a546102ee91906119f7565b905090565b6001600160a01b03811660009081526070602052604081205460ff166103345760405162461bcd60e51b815260040161032b90611a21565b60405180910390fd5b606560009054906101000a90046001600160a01b03166001600160a01b03166308b0308a6040518163ffffffff1660e01b8152600401602060405180830381865afa158015610387573d6000803e3d6000fd5b505050506040513d601f19601f820116820180604052508101906103ab9190611a58565b60405163cbf9fe5f60e01b81523360048201526001600160a01b03919091169063cbf9fe5f906024016040805180830381865afa1580156103f0573d6000803e3d6000fd5b505050506040513d601f19601f820116820180604052508101906104149190611a75565b60200151421115610427575060006104c0565b6001600160a01b038084166000908152606f602090815260408083209386168352929052206002015461045a90426119f7565b6001600160a01b038085166000908152606f602090815260408083209387168352929052206001015461048d9190611a0a565b6001600160a01b038085166000908152606f60209081526040808320938716835292905220546104bd91906119f7565b90505b92915050565b6104ce61182b565b6001600160a01b03811660009081526070602052604090205460ff166105065760405162461bcd60e51b815260040161032b90611a21565b6000816001600160a01b0316635fcbd2856040518163ffffffff1660e01b8152600401602060405180830381865afa158015610546573d6000803e3d6000fd5b505050506040513d601f19601f8201168201806040525081019061056a9190611a58565b6001600160a01b03808216600081815260716020908152604080832080546001600160a01b03191690559387168083526070909152838220805460ff19169055925193945090927fd0a8f460dc5355ab99f1304f75d5222692bf3d8d855d956b42e24c2639e8cae99190a35050565b60006105e3610ff4565b606982815481106105f6576105f6611ad2565b90600052602060002001549050919050565b60655460408051630458184560e11b815290516000926001600160a01b0316916308b0308a9160048083019260209291908290030181865afa158015610652573d6000803e3d6000fd5b505050506040513d601f19601f820116820180604052508101906106769190611a58565b60405163cbf9fe5f60e01b81523360048201529091506000906001600160a01b0383169063cbf9fe5f906024016040805180830381865afa1580156106bf573d6000803e3d6000fd5b505050506040513d601f19601f820116820180604052508101906106e39190611a75565b90506000831161073f5760405162461bcd60e51b815260206004820152602160248201527f566f746520776569676874206d75737420626520686967686572207468616e206044820152600360fc1b606482015260840161032b565b6040516370a0823160e01b81523360048201526001600160a01b038316906370a0823190602401602060405180830381865afa158015610783573d6000803e3d6000fd5b505050506040513d601f19601f820116820180604052508101906107a79190611ae8565b6107b033610d37565b6107ba9085611b01565b11156108255760405162461bcd60e51b815260206004820152603460248201527f546f74616c20766f746520776569676874206d75737420626520736d616c6c656044820152731c881d1a185b881b1bd8dad959081dd95a59da1d60621b606482015260840161032b565b4281602001511161088a5760405162461bcd60e51b815260206004820152602960248201527f4d757374206861766520616e2061637469766520766f746520696e206f7264656044820152687220746f20766f746560b81b606482015260840161032b565b80516108ef5760405162461bcd60e51b815260206004820152602e60248201527f4d7573742068617665206c6f636b65642062616c616e6365206269676765722060448201526d7468616e203020746f20766f746560901b606482015260840161032b565b6001600160a01b03841660009081526070602052604090205460ff166109275760405162461bcd60e51b815260040161032b90611a21565b61092f610ff4565b6109388461128e565b6040516304a9617360e41b815233600482018190526000916001600160a01b0385169163d7c6eaaf916001908490634a96173090602401602060405180830381865afa15801561098c573d6000803e3d6000fd5b505050506040513d601f19601f820116820180604052508101906109b09190611ae8565b6109ba91906119f7565b6040516001600160e01b031960e085901b1681526001600160a01b0390921660048301526024820152604401606060405180830381865afa158015610a03573d6000803e3d6000fd5b505050506040513d601f19601f82011682018060405250810190610a279190611b14565b9050610a3333866102f3565b15801590610a445750816020015142105b15610ae357336000908152606f602090815260408083206001600160a01b0389168452825280832060010154606883528184208684015185529092528220805491929091610a939084906119f7565b9091555050336000908152606f602090815260408083206001600160a01b0389168452825280832060010154858301518452606d9092528220805491929091610add9084906119f7565b90915550505b6020808201516001600160a01b0387166000908152606883526040808220868501518352909352918220805491929091610b1e908490611b01565b925050819055508060200151606d6000846020015181526020019081526020016000206000828254610b509190611b01565b9091555050336000908152606f602090815260408083206001600160a01b0389168452909152902054610b8390856119f7565b6001600160a01b03861660009081526067602052604081208054909190610bab908490611b01565b9091555050336000908152606f602090815260408083206001600160a01b038916845282529091206001015490820151610be591906119f7565b6001600160a01b03861660009081526067602052604081206001018054909190610c10908490611b01565b90915550506001600160a01b038516600081815260676020908152604080832042600290910155338352606f82528083209383529290522054610c5390856119f7565b606a55336000908152606f602090815260408083206001600160a01b038916845282529091206001015490820151610c8b91906119f7565b606b8054600090610c9d908490611b01565b909155505042606c556040805160608101825285815260208381015181830190815284840151838501908152336000818152606f85528681206001600160a01b038d16808352908652908790209551865592516001860155905160029094019390935592518781527f66a9138482c99e9baf08860110ef332cc0c23b4a199a53593d8db0fc8f96fbfc910160405180910390a35050505050565b60655460408051630458184560e11b815290516000926001600160a01b0316916308b0308a9160048083019260209291908290030181865afa158015610d81573d6000803e3d6000fd5b505050506040513d601f19601f82011682018060405250810190610da59190611a58565b60405163cbf9fe5f60e01b81523360048201526001600160a01b03919091169063cbf9fe5f906024016040805180830381865afa158015610dea573d6000803e3d6000fd5b505050506040513d601f19601f82011682018060405250810190610e0e9190611a75565b60200151421115610e2157506000919050565b6001600160a01b0382166000908152606e6020526040902060020154610e4790426119f7565b6001600160a01b0383166000908152606e6020526040902060010154610e6d9190611a0a565b6001600160a01b0383166000908152606e60205260409020546104c091906119f7565b610e9861182b565b610ea26000611885565b565b6001600160a01b03811660009081526070602052604081205460ff16610edc5760405162461bcd60e51b815260040161032b90611a21565b6001600160a01b0382166000908152606760209081526040918290208251606081018452815481526001820154928101929092526002015491810182905290610f2590426119f7565b8160200151610f349190611a0a565b81511015610f455750600092915050565b6040810151610f5490426119f7565b8160200151610f639190611a0a565b8151610f6f91906119f7565b9392505050565b6001600160a01b03821660009081526070602052604081205460ff16610fae5760405162461bcd60e51b815260040161032b90611a21565b610fb78361128e565b6001600160a01b0383166000908152606660205260409020805483908110610fe157610fe1611ad2565b9060005260206000200154905092915050565b60655460408051630458184560e11b815290516000926001600160a01b0316916308b0308a9160048083019260209291908290030181865afa15801561103e573d6000803e3d6000fd5b505050506040513d601f19601f820116820180604052508101906110629190611a58565b60695460405163196d044f60e11b81526001600160a01b0392909216916332da089e916110959160040190815260200190565b6020604051808303816000875af11580156110b4573d6000803e3d6000fd5b505050506040513d601f19601f820116820180604052508101906110d89190611ae8565b905060005b60808110156111915742821161119157606c546000906110fd90846119f7565b606b5461110a9190611a0a565b606a5461111791906119f7565b60698054600181019091557f7fb4302e8e91f9110a6554c2c0a24601252c2a42c2220ca988efcfe39991430801819055606a819055606c8490556000848152606d6020526040812054606b80549394509092909190611177908490611b01565b90915550829150611189905081611b7e565b9150506110dd565b506111a0620151806007611a0a565b6111aa9082611b01565b5050565b6111b661182b565b6000816001600160a01b0316635fcbd2856040518163ffffffff1660e01b8152600401602060405180830381865afa1580156111f6573d6000803e3d6000fd5b505050506040513d601f19601f8201168201806040525081019061121a9190611a58565b6001600160a01b03818116600081815260716020908152604080832080546001600160a01b03191695891695861790558483526070909152808220805460ff191660011790555193945090927f82ec1cbe428cca584a7a3ab0a9506a3c8583f7a8d14e3b81184c5c632e83420e9190a35050565b6001600160a01b03811660009081526070602052604090205460ff166112c65760405162461bcd60e51b815260040161032b90611a21565b6001600160a01b038116600090815260666020526040812054900361142d576001600160a01b0380821660009081526066602090815260408083208054600181018255908452828420018390558051606081018252838152808301939093526065548151630458184560e11b8152825194959286019491909216926308b0308a92600480820193918290030181865afa158015611367573d6000803e3d6000fd5b505050506040513d601f19601f8201168201806040525081019061138b9190611a58565b60405163196d044f60e11b8152600060048201526001600160a01b0391909116906332da089e906024016020604051808303816000875af11580156113d4573d6000803e3d6000fd5b505050506040513d601f19601f820116820180604052508101906113f89190611ae8565b90526001600160a01b038216600090815260676020908152604091829020835181559083015160018201559101516002909101555b60655460408051630458184560e11b815290516000926001600160a01b0316916308b0308a9160048083019260209291908290030181865afa158015611477573d6000803e3d6000fd5b505050506040513d601f19601f8201168201806040525081019061149b9190611a58565b6001600160a01b038381166000908152606660205260409081902054905163196d044f60e11b815260048101919091529116906332da089e906024016020604051808303816000875af11580156114f6573d6000803e3d6000fd5b505050506040513d601f19601f8201168201806040525081019061151a9190611ae8565b905060005b608081101561162557428211611625576001600160a01b03831660009081526067602052604081206002015461155590846119f7565b606b546115629190611a0a565b6001600160a01b03851660009081526067602052604090205461158591906119f7565b6001600160a01b0385166000818152606660209081526040808320805460018181018355918552838520018690558484526067808452828520878155600281018b9055606885528386208b875285529285205495855290925201805493945091926115f1908490611b01565b909155506116059050620151806007611a0a565b61160f9084611b01565b925050808061161d90611b7e565b91505061151f565b505050565b600054610100900460ff161580801561164a5750600054600160ff909116105b806116645750303b158015611664575060005460ff166001145b6116c75760405162461bcd60e51b815260206004820152602e60248201527f496e697469616c697a61626c653a20636f6e747261637420697320616c72656160448201526d191e481a5b9a5d1a585b1a5e995960921b606482015260840161032b565b6000805460ff1916600117905580156116ea576000805461ff0019166101001790555b6116f26118d7565b606580546001600160a01b0319166001600160a01b0384161790556069805460018101825560009182527f7fb4302e8e91f9110a6554c2c0a24601252c2a42c2220ca988efcfe399914308018190556040805160608101825282815260208101839052429101819052606a829055606b91909155606c5580156111aa576000805461ff0019169055604051600181527f7f26b83ff96e1f2b6a682f133852f6798a09c465da95921460cefb38474024989060200160405180910390a15050565b6117ba61182b565b6001600160a01b03811661181f5760405162461bcd60e51b815260206004820152602660248201527f4f776e61626c653a206e6577206f776e657220697320746865207a65726f206160448201526564647265737360d01b606482015260840161032b565b61182881611885565b50565b6033546001600160a01b03163314610ea25760405162461bcd60e51b815260206004820181905260248201527f4f776e61626c653a2063616c6c6572206973206e6f7420746865206f776e6572604482015260640161032b565b603380546001600160a01b038381166001600160a01b0319831681179093556040519116919082907f8be0079c531659141344cd1fd0a4f28419497f9722a3daafe3b4186f6b6457e090600090a35050565b600054610100900460ff166118fe5760405162461bcd60e51b815260040161032b90611b97565b610ea2600054610100900460ff166119285760405162461bcd60e51b815260040161032b90611b97565b610ea233611885565b6001600160a01b038116811461182857600080fd5b6000806040838503121561195957600080fd5b823561196481611931565b9150602083013561197481611931565b809150509250929050565b60006020828403121561199157600080fd5b8135610f6f81611931565b6000602082840312156119ae57600080fd5b5035919050565b600080604083850312156119c857600080fd5b82356119d381611931565b946020939093013593505050565b634e487b7160e01b600052601160045260246000fd5b818103818111156104c0576104c06119e1565b80820281158282048414176104c0576104c06119e1565b6020808252601e908201527f4761756765206973206e6f74206f6e20746865206761756765206c6973740000604082015260600190565b600060208284031215611a6a57600080fd5b8151610f6f81611931565b600060408284031215611a8757600080fd5b6040516040810181811067ffffffffffffffff82111715611ab857634e487b7160e01b600052604160045260246000fd5b604052825181526020928301519281019290925250919050565b634e487b7160e01b600052603260045260246000fd5b600060208284031215611afa57600080fd5b5051919050565b808201808211156104c0576104c06119e1565b600060608284031215611b2657600080fd5b6040516060810181811067ffffffffffffffff82111715611b5757634e487b7160e01b600052604160045260246000fd5b80604052508251815260208301516020820152604083015160408201528091505092915050565b600060018201611b9057611b906119e1565b5060010190565b6020808252602b908201527f496e697469616c697a61626c653a20636f6e7472616374206973206e6f74206960408201526a6e697469616c697a696e6760a81b60608201526080019056fea2646970667358221220794e43cdf6bdfd2fb561b89e9c266ed87d1bed9a231e1e88a0d5f28af33f08b164736f6c63430008110033",
  "linkReferences": {},
  "deployedLinkReferences": {}
}