{
  "_format": "hh-sol-artifact-1",
  "contractName": "GaugeController",
  "sourceName": "contracts/protocol/Gauges/GaugeController.sol",
  "abi": [
    {
      "inputs": [],
      "stateMutability": "nonpayable",
      "type": "constructor"
    },
    {
      "anonymous": false,
      "inputs": [
        {
          "indexed": true,
          "internalType": "address",
          "name": "gauge",
          "type": "address"
        },
        {
          "indexed": true,
          "internalType": "address",
          "name": "liquidityPool",
          "type": "address"
        }
      ],
      "name": "AddGauge",
      "type": "event"
    },
    {
      "anonymous": false,
      "inputs": [
        {
          "indexed": false,
          "internalType": "uint8",
          "name": "version",
          "type": "uint8"
        }
      ],
      "name": "Initialized",
      "type": "event"
    },
    {
      "anonymous": false,
      "inputs": [
        {
          "indexed": true,
          "internalType": "address",
          "name": "previousOwner",
          "type": "address"
        },
        {
          "indexed": true,
          "internalType": "address",
          "name": "newOwner",
          "type": "address"
        }
      ],
      "name": "OwnershipTransferred",
      "type": "event"
    },
    {
      "anonymous": false,
      "inputs": [
        {
          "indexed": true,
          "internalType": "address",
          "name": "gauge",
          "type": "address"
        },
        {
          "indexed": true,
          "internalType": "address",
          "name": "liquidityPool",
          "type": "address"
        }
      ],
      "name": "RemoveGauge",
      "type": "event"
    },
    {
      "anonymous": false,
      "inputs": [
        {
          "indexed": true,
          "internalType": "address",
          "name": "user",
          "type": "address"
        },
        {
          "indexed": true,
          "internalType": "address",
          "name": "gauge",
          "type": "address"
        },
        {
          "indexed": false,
          "internalType": "uint256",
          "name": "weight",
          "type": "uint256"
        }
      ],
      "name": "Vote",
      "type": "event"
    },
    {
      "inputs": [
        {
          "internalType": "address",
          "name": "gauge",
          "type": "address"
        }
      ],
      "name": "addGauge",
      "outputs": [],
      "stateMutability": "nonpayable",
      "type": "function"
    },
    {
      "inputs": [
        {
          "internalType": "address",
          "name": "liquidityPool",
          "type": "address"
        }
      ],
      "name": "getGauge",
      "outputs": [
        {
          "internalType": "address",
          "name": "",
          "type": "address"
        }
      ],
      "stateMutability": "view",
      "type": "function"
    },
    {
      "inputs": [
        {
          "internalType": "address",
          "name": "gauge",
          "type": "address"
        },
        {
          "internalType": "uint256",
          "name": "epoch",
          "type": "uint256"
        }
      ],
      "name": "getGaugeRewards",
      "outputs": [
        {
          "internalType": "uint256",
          "name": "rewards",
          "type": "uint256"
        }
      ],
      "stateMutability": "nonpayable",
      "type": "function"
    },
    {
      "inputs": [
        {
          "internalType": "address",
          "name": "gauge",
          "type": "address"
        }
      ],
      "name": "getGaugeWeight",
      "outputs": [
        {
          "internalType": "uint256",
          "name": "",
          "type": "uint256"
        }
      ],
      "stateMutability": "view",
      "type": "function"
    },
    {
      "inputs": [
        {
          "internalType": "address",
          "name": "gauge",
          "type": "address"
        },
        {
          "internalType": "uint256",
          "name": "epoch",
          "type": "uint256"
        }
      ],
      "name": "getGaugeWeightAt",
      "outputs": [
        {
          "internalType": "uint256",
          "name": "",
          "type": "uint256"
        }
      ],
      "stateMutability": "nonpayable",
      "type": "function"
    },
    {
      "inputs": [],
      "name": "getTotalWeight",
      "outputs": [
        {
          "internalType": "uint256",
          "name": "",
          "type": "uint256"
        }
      ],
      "stateMutability": "view",
      "type": "function"
    },
    {
      "inputs": [
        {
          "internalType": "uint256",
          "name": "epoch",
          "type": "uint256"
        }
      ],
      "name": "getTotalWeightAt",
      "outputs": [
        {
          "internalType": "uint256",
          "name": "",
          "type": "uint256"
        }
      ],
      "stateMutability": "nonpayable",
      "type": "function"
    },
    {
      "inputs": [
        {
          "internalType": "contract IAddressesProvider",
          "name": "addressProvider",
          "type": "address"
        }
      ],
      "name": "initialize",
      "outputs": [],
      "stateMutability": "nonpayable",
      "type": "function"
    },
    {
      "inputs": [
        {
          "internalType": "address",
          "name": "gauge",
          "type": "address"
        }
      ],
      "name": "isGauge",
      "outputs": [
        {
          "internalType": "bool",
          "name": "",
          "type": "bool"
        }
      ],
      "stateMutability": "view",
      "type": "function"
    },
    {
      "inputs": [],
      "name": "owner",
      "outputs": [
        {
          "internalType": "address",
          "name": "",
          "type": "address"
        }
      ],
      "stateMutability": "view",
      "type": "function"
    },
    {
      "inputs": [
        {
          "internalType": "address",
          "name": "gauge",
          "type": "address"
        }
      ],
      "name": "removeGauge",
      "outputs": [],
      "stateMutability": "nonpayable",
      "type": "function"
    },
    {
      "inputs": [],
      "name": "renounceOwnership",
      "outputs": [],
      "stateMutability": "nonpayable",
      "type": "function"
    },
    {
      "inputs": [
        {
          "internalType": "address",
          "name": "newOwner",
          "type": "address"
        }
      ],
      "name": "transferOwnership",
      "outputs": [],
      "stateMutability": "nonpayable",
      "type": "function"
    },
    {
      "inputs": [
        {
          "internalType": "address",
          "name": "user",
          "type": "address"
        }
      ],
      "name": "userVoteRatio",
      "outputs": [
        {
          "internalType": "uint256",
          "name": "",
          "type": "uint256"
        }
      ],
      "stateMutability": "view",
      "type": "function"
    },
    {
      "inputs": [
        {
          "internalType": "address",
          "name": "user",
          "type": "address"
        },
        {
          "internalType": "address",
          "name": "gauge",
          "type": "address"
        }
      ],
      "name": "userVoteRatioForGauge",
      "outputs": [
        {
          "internalType": "uint256",
          "name": "",
          "type": "uint256"
        }
      ],
      "stateMutability": "view",
      "type": "function"
    },
    {
      "inputs": [
        {
          "internalType": "address",
          "name": "user",
          "type": "address"
        },
        {
          "internalType": "address",
          "name": "gauge",
          "type": "address"
        }
      ],
      "name": "userVoteWeightForGauge",
      "outputs": [
        {
          "internalType": "uint256",
          "name": "",
          "type": "uint256"
        }
      ],
      "stateMutability": "view",
      "type": "function"
    },
    {
      "inputs": [
        {
          "internalType": "address",
          "name": "gauge",
          "type": "address"
        },
        {
          "internalType": "uint256",
          "name": "ratio",
          "type": "uint256"
        }
      ],
      "name": "vote",
      "outputs": [],
      "stateMutability": "nonpayable",
      "type": "function"
    },
    {
      "inputs": [
        {
          "internalType": "address",
          "name": "gauge",
          "type": "address"
        }
      ],
      "name": "writeGaugeWeightHistory",
      "outputs": [],
      "stateMutability": "nonpayable",
      "type": "function"
    },
    {
      "inputs": [],
      "name": "writeTotalWeightHistory",
      "outputs": [],
      "stateMutability": "nonpayable",
      "type": "function"
    }
  ],
  "bytecode": "0x608060405234801561001057600080fd5b5061001961001e565b6100de565b600054610100900460ff161561008a5760405162461bcd60e51b815260206004820152602760248201527f496e697469616c697a61626c653a20636f6e747261637420697320696e697469604482015266616c697a696e6760c81b606482015260840160405180910390fd5b60005460ff90811610156100dc576000805460ff191660ff9081179091556040519081527f7f26b83ff96e1f2b6a682f133852f6798a09c465da95921460cefb38474024989060200160405180910390a15b565b611ff6806100ed6000396000f3fe608060405234801561001057600080fd5b50600436106101215760003560e01c806374a21324116100ad578063ad43a91811610071578063ad43a91814610275578063b1c6f0e914610288578063c341eea2146102b4578063c4d66de8146102c7578063f2fde38b146102da57600080fd5b806374a21324146101e657806387da75ef146101f95780638da5cb5b146102015780639da882ac14610226578063aa79979b1461023957600080fd5b806350735f6f116100f457806350735f6f1461017c5780635e1cfd301461018f5780635f74bbde146101b8578063715018a6146101cb57806372be5276146101d357600080fd5b80630327cbe71461012657806306aba0e11461014c5780632e8769f2146101545780633a04514514610167575b600080fd5b610139610134366004611cad565b6102ed565b6040519081526020015b60405180910390f35b61013961035c565b610139610162366004611cad565b6103b4565b61017a610175366004611ce6565b610501565b005b61013961018a366004611d03565b610614565b61013961019d366004611ce6565b6001600160a01b03166000908152606e602052604090205490565b61017a6101c6366004611d1c565b610643565b61017a610efb565b6101396101e1366004611ce6565b610f0f565b6101396101f4366004611d1c565b610fda565b61017a611058565b6033546001600160a01b03165b6040516001600160a01b039091168152602001610143565b61017a610234366004611ce6565b611212565b610265610247366004611ce6565b6001600160a01b031660009081526071602052604090205460ff1690565b6040519015158152602001610143565b610139610283366004611d1c565b6112f2565b61020e610296366004611ce6565b6001600160a01b039081166000908152607260205260409020541690565b61017a6102c2366004611ce6565b61158a565b61017a6102d5366004611ce6565b611926565b61017a6102e8366004611ce6565b611aae565b6001600160a01b03811660009081526071602052604081205460ff1661032e5760405162461bcd60e51b815260040161032590611d48565b60405180910390fd5b506001600160a01b038083166000908152606f60209081526040808320938516835292905220545b92915050565b606c5460009061036c9042611d95565b606b546103799190611da8565b606a5410156103885750600090565b606c546103959042611d95565b606b546103a29190611da8565b606a546103af9190611d95565b905090565b6001600160a01b03811660009081526071602052604081205460ff166103ec5760405162461bcd60e51b815260040161032590611d48565b6001600160a01b03838116600090815260706020908152604080832093861683529290522080546002909101546104239042611d95565b6001600160a01b038086166000908152607060209081526040808320938816835292905220600101546104569190611da8565b111561046457506000610356565b6001600160a01b038084166000908152607060209081526040808320938616835292905220600201546104979042611d95565b6001600160a01b038085166000908152607060209081526040808320938716835292905220600101546104ca9190611da8565b6001600160a01b038085166000908152607060209081526040808320938716835292905220546104fa9190611d95565b9392505050565b610509611b27565b6001600160a01b03811660009081526071602052604090205460ff166105415760405162461bcd60e51b815260040161032590611d48565b6000816001600160a01b0316635fcbd2856040518163ffffffff1660e01b8152600401602060405180830381865afa158015610581573d6000803e3d6000fd5b505050506040513d601f19601f820116820180604052508101906105a59190611dbf565b6001600160a01b03808216600081815260726020908152604080832080546001600160a01b03191690559387168083526071909152838220805460ff19169055925193945090927fd0a8f460dc5355ab99f1304f75d5222692bf3d8d855d956b42e24c2639e8cae99190a35050565b600061061e611058565b6069828154811061063157610631611ddc565b90600052602060002001549050919050565b60655460408051630458184560e11b815290516000926001600160a01b0316916308b0308a9160048083019260209291908290030181865afa15801561068d573d6000803e3d6000fd5b505050506040513d601f19601f820116820180604052508101906106b19190611dbf565b60405163cbf9fe5f60e01b81523360048201529091506000906001600160a01b0383169063cbf9fe5f906024016040805180830381865afa1580156106fa573d6000803e3d6000fd5b505050506040513d601f19601f8201168201806040525081019061071e9190611df2565b9050600083116107705760405162461bcd60e51b815260206004820181905260248201527f566f746520726174696f206d75737420626520686967686572207468616e20306044820152606401610325565b336000818152606f602090815260408083206001600160a01b0389168452825280832054938352606e90915290205461271091906107ae9086611e4f565b6107b89190611d95565b11156108195760405162461bcd60e51b815260206004820152602a60248201527f546f74616c20766f746520726174696f206d75737420626520736d616c6c6572604482015269207468616e203130302560b01b6064820152608401610325565b4281602001511180610829575082155b6108a95760405162461bcd60e51b8152602060048201526044602482018190527f4d757374206861766520616e20616374697665206c6f636b20696e206f726465908201527f7220746f20766f746520756e6c65737320697427732065726173696e67206120606482015263766f746560e01b608482015260a401610325565b805161090e5760405162461bcd60e51b815260206004820152602e60248201527f4d7573742068617665206c6f636b65642062616c616e6365206269676765722060448201526d7468616e203020746f20766f746560901b6064820152608401610325565b6001600160a01b03841660009081526071602052604090205460ff166109465760405162461bcd60e51b815260040161032590611d48565b61094e611058565b6109578461158a565b6040516304a9617360e41b815233600482018190526000916001600160a01b0385169163d7c6eaaf916001908490634a96173090602401602060405180830381865afa1580156109ab573d6000803e3d6000fd5b505050506040513d601f19601f820116820180604052508101906109cf9190611e62565b6109d99190611d95565b6040516001600160e01b031960e085901b1681526001600160a01b0390921660048301526024820152604401606060405180830381865afa158015610a22573d6000803e3d6000fd5b505050506040513d601f19601f82011682018060405250810190610a469190611e7b565b9050610a6c60405180606001604052806000815260200160008152602001600081525090565b610a9060405180606001604052806000815260200160008152602001600081525090565b61271086846040015142610aa49190611d95565b8560200151610ab39190611da8565b610abd9190611da8565b8451610ac99190611d95565b610ad39190611ee5565b8152602083015161271090610ae9908890611da8565b610af39190611ee5565b60208083019190915242604080840191909152336000908152606f83528181206001600160a01b038b16825290925290205415801590610b365750836020015142105b15610c31573360009081526070602090815260408083206001600160a01b038b168452909152902060020154610b6c9042611d95565b3360009081526070602090815260408083206001600160a01b038c168452909152902060010154610b9d9190611da8565b82523360009081526070602090815260408083206001600160a01b038b16808552908352818420600101548387018190524283880152908452606883528184208884015185529092528220805491929091610bf9908490611d95565b925050819055508160200151606d6000866020015181526020019081526020016000206000828254610c2b9190611d95565b90915550505b6020808201516001600160a01b0389166000908152606883526040808220888501518352909352918220805491929091610c6c908490611e4f565b925050819055508060200151606d6000866020015181526020019081526020016000206000828254610c9e9190611e4f565b9091555050815181516001600160a01b038916600090815260676020526040902060020154610ccd9042611d95565b6001600160a01b038a16600090815260676020526040902060010154610cf39190611da8565b6001600160a01b038a16600090815260676020526040902054610d169190611d95565b610d209190611e4f565b610d2a9190611d95565b6001600160a01b0388166000908152606760209081526040909120919091558281015190820151610d5b9190611d95565b6001600160a01b03881660009081526067602052604081206001018054909190610d86908490611e4f565b90915550506001600160a01b038716600090815260676020526040902042600290910181905582518251606c5491929091610dc091611d95565b606b54610dcd9190611da8565b606a54610dda9190611d95565b610de49190611e4f565b610dee9190611d95565b606a5560208083015190820151610e059190611d95565b606b8054600090610e17908490611e4f565b909155505042606c55336000818152606f602090815260408083206001600160a01b038c168452825280832054938352606e909152902054610e599088611e4f565b610e639190611d95565b336000818152606e6020908152604080832094909455606f81528382206001600160a01b038c168084529082528483208b9055838352607082528483208184528252918490208551815585820151600182015585850151600290910155925189815290927f66a9138482c99e9baf08860110ef332cc0c23b4a199a53593d8db0fc8f96fbfc910160405180910390a350505050505050565b610f03611b27565b610f0d6000611b81565b565b6001600160a01b03811660009081526071602052604081205460ff16610f475760405162461bcd60e51b815260040161032590611d48565b6001600160a01b0382166000908152606760209081526040918290208251606081018452815481526001820154928101929092526002015491810182905290610f909042611d95565b8160200151610f9f9190611da8565b81511015610fb05750600092915050565b6040810151610fbf9042611d95565b8160200151610fce9190611da8565b81516104fa9190611d95565b6001600160a01b03821660009081526071602052604081205460ff166110125760405162461bcd60e51b815260040161032590611d48565b61101b8361158a565b6001600160a01b038316600090815260666020526040902080548390811061104557611045611ddc565b9060005260206000200154905092915050565b60655460408051630458184560e11b815290516000926001600160a01b0316916308b0308a9160048083019260209291908290030181865afa1580156110a2573d6000803e3d6000fd5b505050506040513d601f19601f820116820180604052508101906110c69190611dbf565b60695460405163196d044f60e11b81526001600160a01b0392909216916332da089e916110f99160040190815260200190565b6020604051808303816000875af1158015611118573d6000803e3d6000fd5b505050506040513d601f19601f8201168201806040525081019061113c9190611e62565b905060005b60808110156111f5574282116111f557606c546000906111619084611d95565b606b5461116e9190611da8565b606a5461117b9190611d95565b60698054600181019091557f7fb4302e8e91f9110a6554c2c0a24601252c2a42c2220ca988efcfe39991430801819055606a819055606c8490556000848152606d6020526040812054606b805493945090929091906111db908490611d95565b909155508291506111ed905081611f07565b915050611141565b50611204620151806007611da8565b61120e9082611e4f565b5050565b61121a611b27565b6000816001600160a01b0316635fcbd2856040518163ffffffff1660e01b8152600401602060405180830381865afa15801561125a573d6000803e3d6000fd5b505050506040513d601f19601f8201168201806040525081019061127e9190611dbf565b6001600160a01b03818116600081815260726020908152604080832080546001600160a01b03191695891695861790558483526071909152808220805460ff191660011790555193945090927f82ec1cbe428cca584a7a3ab0a9506a3c8583f7a8d14e3b81184c5c632e83420e9190a35050565b6001600160a01b03821660009081526071602052604081205460ff1661132a5760405162461bcd60e51b815260040161032590611d48565b604080518082018252600f81526e67657445706f63685265776172647360881b60208083019190915260655483516315b9ba5d60e01b81529351611431946001600160a01b03909216926315b9ba5d92600480820193918290030181865afa15801561139a573d6000803e3d6000fd5b505050506040513d601f19601f820116820180604052508101906113be9190611dbf565b6001600160a01b0316635f0c0f2b856040518263ffffffff1660e01b81526004016113eb91815260200190565b602060405180830381865afa158015611408573d6000803e3d6000fd5b505050506040513d601f19601f8201168201806040525081019061142c9190611e62565b611bd3565b6114666040518060400160405280601081526020016f19d95d151bdd185b15d95a59da1d105d60821b81525061142c84610614565b61146f82610614565b60000361147e57506000610356565b61148782610614565b6114918484610fda565b606560009054906101000a90046001600160a01b03166001600160a01b03166315b9ba5d6040518163ffffffff1660e01b8152600401602060405180830381865afa1580156114e4573d6000803e3d6000fd5b505050506040513d601f19601f820116820180604052508101906115089190611dbf565b6001600160a01b0316635f0c0f2b856040518263ffffffff1660e01b815260040161153591815260200190565b602060405180830381865afa158015611552573d6000803e3d6000fd5b505050506040513d601f19601f820116820180604052508101906115769190611e62565b6115809190611da8565b6104fa9190611ee5565b6001600160a01b03811660009081526071602052604090205460ff166115c25760405162461bcd60e51b815260040161032590611d48565b6001600160a01b0381166000908152606660205260408120549003611729576001600160a01b0380821660009081526066602090815260408083208054600181018255908452828420018390558051606081018252838152808301939093526065548151630458184560e11b8152825194959286019491909216926308b0308a92600480820193918290030181865afa158015611663573d6000803e3d6000fd5b505050506040513d601f19601f820116820180604052508101906116879190611dbf565b60405163196d044f60e11b8152600060048201526001600160a01b0391909116906332da089e906024016020604051808303816000875af11580156116d0573d6000803e3d6000fd5b505050506040513d601f19601f820116820180604052508101906116f49190611e62565b90526001600160a01b038216600090815260676020908152604091829020835181559083015160018201559101516002909101555b60655460408051630458184560e11b815290516000926001600160a01b0316916308b0308a9160048083019260209291908290030181865afa158015611773573d6000803e3d6000fd5b505050506040513d601f19601f820116820180604052508101906117979190611dbf565b6001600160a01b038381166000908152606660205260409081902054905163196d044f60e11b815260048101919091529116906332da089e906024016020604051808303816000875af11580156117f2573d6000803e3d6000fd5b505050506040513d601f19601f820116820180604052508101906118169190611e62565b905060005b608081101561192157428211611921576001600160a01b0383166000908152606760205260408120600201546118519084611d95565b606b5461185e9190611da8565b6001600160a01b0385166000908152606760205260409020546118819190611d95565b6001600160a01b0385166000818152606660209081526040808320805460018181018355918552838520018690558484526067808452828520878155600281018b9055606885528386208b875285529285205495855290925201805493945091926118ed908490611d95565b909155506119019050620151806007611da8565b61190b9084611e4f565b925050808061191990611f07565b91505061181b565b505050565b600054610100900460ff16158080156119465750600054600160ff909116105b806119605750303b158015611960575060005460ff166001145b6119c35760405162461bcd60e51b815260206004820152602e60248201527f496e697469616c697a61626c653a20636f6e747261637420697320616c72656160448201526d191e481a5b9a5d1a585b1a5e995960921b6064820152608401610325565b6000805460ff1916600117905580156119e6576000805461ff0019166101001790555b6119ee611c18565b606580546001600160a01b0319166001600160a01b0384161790556069805460018101825560009182527f7fb4302e8e91f9110a6554c2c0a24601252c2a42c2220ca988efcfe399914308018190556040805160608101825282815260208101839052429101819052606a829055606b91909155606c55801561120e576000805461ff0019169055604051600181527f7f26b83ff96e1f2b6a682f133852f6798a09c465da95921460cefb38474024989060200160405180910390a15050565b611ab6611b27565b6001600160a01b038116611b1b5760405162461bcd60e51b815260206004820152602660248201527f4f776e61626c653a206e6577206f776e657220697320746865207a65726f206160448201526564647265737360d01b6064820152608401610325565b611b2481611b81565b50565b6033546001600160a01b03163314610f0d5760405162461bcd60e51b815260206004820181905260248201527f4f776e61626c653a2063616c6c6572206973206e6f7420746865206f776e65726044820152606401610325565b603380546001600160a01b038381166001600160a01b0319831681179093556040519116919082907f8be0079c531659141344cd1fd0a4f28419497f9722a3daafe3b4186f6b6457e090600090a35050565b61120e8282604051602401611be9929190611f20565b60408051601f198184030181529190526020810180516001600160e01b0316632d839cb360e21b179052611c47565b600054610100900460ff16611c3f5760405162461bcd60e51b815260040161032590611f75565b610f0d611c68565b80516a636f6e736f6c652e6c6f67602083016000808483855afa5050505050565b600054610100900460ff16611c8f5760405162461bcd60e51b815260040161032590611f75565b610f0d33611b81565b6001600160a01b0381168114611b2457600080fd5b60008060408385031215611cc057600080fd5b8235611ccb81611c98565b91506020830135611cdb81611c98565b809150509250929050565b600060208284031215611cf857600080fd5b81356104fa81611c98565b600060208284031215611d1557600080fd5b5035919050565b60008060408385031215611d2f57600080fd5b8235611d3a81611c98565b946020939093013593505050565b6020808252601e908201527f4761756765206973206e6f74206f6e20746865206761756765206c6973740000604082015260600190565b634e487b7160e01b600052601160045260246000fd5b8181038181111561035657610356611d7f565b808202811582820484141761035657610356611d7f565b600060208284031215611dd157600080fd5b81516104fa81611c98565b634e487b7160e01b600052603260045260246000fd5b600060408284031215611e0457600080fd5b6040516040810181811067ffffffffffffffff82111715611e3557634e487b7160e01b600052604160045260246000fd5b604052825181526020928301519281019290925250919050565b8082018082111561035657610356611d7f565b600060208284031215611e7457600080fd5b5051919050565b600060608284031215611e8d57600080fd5b6040516060810181811067ffffffffffffffff82111715611ebe57634e487b7160e01b600052604160045260246000fd5b80604052508251815260208301516020820152604083015160408201528091505092915050565b600082611f0257634e487b7160e01b600052601260045260246000fd5b500490565b600060018201611f1957611f19611d7f565b5060010190565b604081526000835180604084015260005b81811015611f4e5760208187018101516060868401015201611f31565b506000606082850101526060601f19601f8301168401019150508260208301529392505050565b6020808252602b908201527f496e697469616c697a61626c653a20636f6e7472616374206973206e6f74206960408201526a6e697469616c697a696e6760a81b60608201526080019056fea2646970667358221220a3e5ce6f3a02380314934f056a57f4a3045c2bf7684cc97723b8d1bb0492f7d964736f6c63430008110033",
  "linkReferences": {},
  "deployedLinkReferences": {}
}