{
  "_format": "hh-sol-artifact-1",
  "contractName": "GaugeController",
  "sourceName": "contracts/protocol/Gauges/GaugeController.sol",
  "abi": [
    {
      "inputs": [],
      "stateMutability": "nonpayable",
      "type": "constructor"
    },
    {
      "anonymous": false,
      "inputs": [
        {
          "indexed": true,
          "internalType": "address",
          "name": "gauge",
          "type": "address"
        },
        {
          "indexed": true,
          "internalType": "address",
          "name": "liquidityPool",
          "type": "address"
        }
      ],
      "name": "AddGauge",
      "type": "event"
    },
    {
      "anonymous": false,
      "inputs": [
        {
          "indexed": false,
          "internalType": "uint8",
          "name": "version",
          "type": "uint8"
        }
      ],
      "name": "Initialized",
      "type": "event"
    },
    {
      "anonymous": false,
      "inputs": [
        {
          "indexed": true,
          "internalType": "address",
          "name": "previousOwner",
          "type": "address"
        },
        {
          "indexed": true,
          "internalType": "address",
          "name": "newOwner",
          "type": "address"
        }
      ],
      "name": "OwnershipTransferred",
      "type": "event"
    },
    {
      "anonymous": false,
      "inputs": [
        {
          "indexed": true,
          "internalType": "address",
          "name": "gauge",
          "type": "address"
        },
        {
          "indexed": true,
          "internalType": "address",
          "name": "liquidityPool",
          "type": "address"
        }
      ],
      "name": "RemoveGauge",
      "type": "event"
    },
    {
      "anonymous": false,
      "inputs": [
        {
          "indexed": true,
          "internalType": "address",
          "name": "user",
          "type": "address"
        },
        {
          "indexed": true,
          "internalType": "uint256",
          "name": "tokenId",
          "type": "uint256"
        },
        {
          "indexed": true,
          "internalType": "address",
          "name": "gauge",
          "type": "address"
        },
        {
          "indexed": false,
          "internalType": "uint256",
          "name": "weight",
          "type": "uint256"
        }
      ],
      "name": "Vote",
      "type": "event"
    },
    {
      "inputs": [],
      "name": "INFLATION_PERIOD",
      "outputs": [
        {
          "internalType": "uint256",
          "name": "",
          "type": "uint256"
        }
      ],
      "stateMutability": "view",
      "type": "function"
    },
    {
      "inputs": [],
      "name": "LOADING_PERIOD",
      "outputs": [
        {
          "internalType": "uint256",
          "name": "",
          "type": "uint256"
        }
      ],
      "stateMutability": "view",
      "type": "function"
    },
    {
      "inputs": [],
      "name": "MAX_INFLATION_PERIODS",
      "outputs": [
        {
          "internalType": "uint256",
          "name": "",
          "type": "uint256"
        }
      ],
      "stateMutability": "view",
      "type": "function"
    },
    {
      "inputs": [
        {
          "internalType": "address",
          "name": "gauge",
          "type": "address"
        }
      ],
      "name": "addGauge",
      "outputs": [],
      "stateMutability": "nonpayable",
      "type": "function"
    },
    {
      "inputs": [
        {
          "internalType": "uint256",
          "name": "epoch",
          "type": "uint256"
        }
      ],
      "name": "getEpochRewards",
      "outputs": [
        {
          "internalType": "uint256",
          "name": "",
          "type": "uint256"
        }
      ],
      "stateMutability": "nonpayable",
      "type": "function"
    },
    {
      "inputs": [
        {
          "internalType": "address",
          "name": "liquidityPool",
          "type": "address"
        }
      ],
      "name": "getGauge",
      "outputs": [
        {
          "internalType": "address",
          "name": "",
          "type": "address"
        }
      ],
      "stateMutability": "view",
      "type": "function"
    },
    {
      "inputs": [
        {
          "internalType": "address",
          "name": "gauge",
          "type": "address"
        },
        {
          "internalType": "uint256",
          "name": "epoch",
          "type": "uint256"
        }
      ],
      "name": "getGaugeRewards",
      "outputs": [
        {
          "internalType": "uint256",
          "name": "rewards",
          "type": "uint256"
        }
      ],
      "stateMutability": "nonpayable",
      "type": "function"
    },
    {
      "inputs": [
        {
          "internalType": "address",
          "name": "gauge",
          "type": "address"
        }
      ],
      "name": "getGaugeWeight",
      "outputs": [
        {
          "internalType": "uint256",
          "name": "",
          "type": "uint256"
        }
      ],
      "stateMutability": "view",
      "type": "function"
    },
    {
      "inputs": [
        {
          "internalType": "address",
          "name": "gauge",
          "type": "address"
        },
        {
          "internalType": "uint256",
          "name": "epoch",
          "type": "uint256"
        }
      ],
      "name": "getGaugeWeightAt",
      "outputs": [
        {
          "internalType": "uint256",
          "name": "",
          "type": "uint256"
        }
      ],
      "stateMutability": "nonpayable",
      "type": "function"
    },
    {
      "inputs": [],
      "name": "getLPMaturityPeriod",
      "outputs": [
        {
          "internalType": "uint256",
          "name": "",
          "type": "uint256"
        }
      ],
      "stateMutability": "view",
      "type": "function"
    },
    {
      "inputs": [
        {
          "internalType": "uint256",
          "name": "tokenId",
          "type": "uint256"
        },
        {
          "internalType": "address",
          "name": "gauge",
          "type": "address"
        }
      ],
      "name": "getLockVotePointForGauge",
      "outputs": [
        {
          "components": [
            {
              "internalType": "uint256",
              "name": "bias",
              "type": "uint256"
            },
            {
              "internalType": "uint256",
              "name": "slope",
              "type": "uint256"
            },
            {
              "internalType": "uint256",
              "name": "timestamp",
              "type": "uint256"
            }
          ],
          "internalType": "struct DataTypes.Point",
          "name": "",
          "type": "tuple"
        }
      ],
      "stateMutability": "view",
      "type": "function"
    },
    {
      "inputs": [
        {
          "internalType": "uint256",
          "name": "tokenId",
          "type": "uint256"
        }
      ],
      "name": "getLockVoteRatio",
      "outputs": [
        {
          "internalType": "uint256",
          "name": "",
          "type": "uint256"
        }
      ],
      "stateMutability": "view",
      "type": "function"
    },
    {
      "inputs": [
        {
          "internalType": "uint256",
          "name": "tokenId",
          "type": "uint256"
        },
        {
          "internalType": "address",
          "name": "gauge",
          "type": "address"
        }
      ],
      "name": "getLockVoteRatioForGauge",
      "outputs": [
        {
          "internalType": "uint256",
          "name": "",
          "type": "uint256"
        }
      ],
      "stateMutability": "view",
      "type": "function"
    },
    {
      "inputs": [
        {
          "internalType": "uint256",
          "name": "tokenId",
          "type": "uint256"
        },
        {
          "internalType": "address",
          "name": "gauge",
          "type": "address"
        }
      ],
      "name": "getLockVoteWeightForGauge",
      "outputs": [
        {
          "internalType": "uint256",
          "name": "",
          "type": "uint256"
        }
      ],
      "stateMutability": "view",
      "type": "function"
    },
    {
      "inputs": [
        {
          "internalType": "uint256",
          "name": "epoch",
          "type": "uint256"
        }
      ],
      "name": "getRewardsCeiling",
      "outputs": [
        {
          "internalType": "uint256",
          "name": "",
          "type": "uint256"
        }
      ],
      "stateMutability": "view",
      "type": "function"
    },
    {
      "inputs": [],
      "name": "getTotalWeight",
      "outputs": [
        {
          "internalType": "uint256",
          "name": "",
          "type": "uint256"
        }
      ],
      "stateMutability": "view",
      "type": "function"
    },
    {
      "inputs": [
        {
          "internalType": "uint256",
          "name": "epoch",
          "type": "uint256"
        }
      ],
      "name": "getTotalWeightAt",
      "outputs": [
        {
          "internalType": "uint256",
          "name": "",
          "type": "uint256"
        }
      ],
      "stateMutability": "nonpayable",
      "type": "function"
    },
    {
      "inputs": [
        {
          "internalType": "contract IAddressesProvider",
          "name": "addressProvider",
          "type": "address"
        },
        {
          "internalType": "uint256",
          "name": "initialRewards",
          "type": "uint256"
        },
        {
          "internalType": "uint256",
          "name": "lpMaturityPeriod",
          "type": "uint256"
        }
      ],
      "name": "initialize",
      "outputs": [],
      "stateMutability": "nonpayable",
      "type": "function"
    },
    {
      "inputs": [
        {
          "internalType": "address",
          "name": "gauge",
          "type": "address"
        }
      ],
      "name": "isGauge",
      "outputs": [
        {
          "internalType": "bool",
          "name": "",
          "type": "bool"
        }
      ],
      "stateMutability": "view",
      "type": "function"
    },
    {
      "inputs": [],
      "name": "owner",
      "outputs": [
        {
          "internalType": "address",
          "name": "",
          "type": "address"
        }
      ],
      "stateMutability": "view",
      "type": "function"
    },
    {
      "inputs": [
        {
          "internalType": "address",
          "name": "gauge",
          "type": "address"
        }
      ],
      "name": "removeGauge",
      "outputs": [],
      "stateMutability": "nonpayable",
      "type": "function"
    },
    {
      "inputs": [],
      "name": "renounceOwnership",
      "outputs": [],
      "stateMutability": "nonpayable",
      "type": "function"
    },
    {
      "inputs": [
        {
          "internalType": "uint256",
          "name": "maturityPeriod",
          "type": "uint256"
        }
      ],
      "name": "setLPMaturityPeriod",
      "outputs": [],
      "stateMutability": "nonpayable",
      "type": "function"
    },
    {
      "inputs": [
        {
          "internalType": "address",
          "name": "newOwner",
          "type": "address"
        }
      ],
      "name": "transferOwnership",
      "outputs": [],
      "stateMutability": "nonpayable",
      "type": "function"
    },
    {
      "inputs": [
        {
          "internalType": "uint256",
          "name": "tokenId",
          "type": "uint256"
        },
        {
          "internalType": "address",
          "name": "gauge",
          "type": "address"
        },
        {
          "internalType": "uint256",
          "name": "ratio",
          "type": "uint256"
        }
      ],
      "name": "vote",
      "outputs": [],
      "stateMutability": "nonpayable",
      "type": "function"
    },
    {
      "inputs": [
        {
          "internalType": "address",
          "name": "gauge",
          "type": "address"
        }
      ],
      "name": "writeGaugeWeightHistory",
      "outputs": [],
      "stateMutability": "nonpayable",
      "type": "function"
    },
    {
      "inputs": [],
      "name": "writeTotalWeightHistory",
      "outputs": [],
      "stateMutability": "nonpayable",
      "type": "function"
    }
  ],
  "bytecode": "0x60806040523480156200001157600080fd5b506200001c62000022565b620000e4565b600054610100900460ff16156200008f5760405162461bcd60e51b815260206004820152602760248201527f496e697469616c697a61626c653a20636f6e747261637420697320696e697469604482015266616c697a696e6760c81b606482015260840160405180910390fd5b60005460ff9081161015620000e2576000805460ff191660ff9081179091556040519081527f7f26b83ff96e1f2b6a682f133852f6798a09c465da95921460cefb38474024989060200160405180910390a15b565b61260280620000f46000396000f3fe608060405234801561001057600080fd5b50600436106101a95760003560e01c80637a1ac61e116100f9578063b1c6f0e911610097578063c341eea211610071578063c341eea2146103ac578063c947755a146103bf578063d31e99bf146103c7578063f2fde38b146103da57600080fd5b8063b1c6f0e914610365578063bebb417114610391578063c057beee146103a457600080fd5b80638da5cb5b116100d35780638da5cb5b146102de5780639da882ac14610303578063aa79979b14610316578063ad43a9181461035257600080fd5b80637a1ac61e146102bb5780637be27d79146102ce57806387da75ef146102d657600080fd5b806350735f6f1161016657806362bdcef01161014057806362bdcef014610285578063715018a61461028d57806372be52761461029557806374a21324146102a857600080fd5b806350735f6f1461024c57806353f713c01461025f5780635f0c0f2b1461027257600080fd5b806304422e0c146101ae57806305db07b8146101c357806306aba0e1146101fd57806333bd9441146102135780633a045145146102265780634de8737c14610239575b600080fd5b6101c16101bc3660046121cd565b6103ed565b005b6101d66101d13660046121fb565b61044f565b60408051825181526020808401519082015291810151908201526060015b60405180910390f35b6102056104d8565b6040519081526020016101f4565b6102056102213660046121fb565b610530565b6101c161023436600461222b565b61064f565b6101c1610247366004612248565b610763565b61020561025a3660046121cd565b61102d565b61020561026d3660046121fb565b611068565b6102056102803660046121cd565b6110a9565b610205600881565b6101c161120a565b6102056102a336600461222b565b61121e565b6102056102b6366004612280565b6112c6565b6101c16102c93660046122ac565b611324565b610205601881565b6101c16114b9565b6033546001600160a01b03165b6040516001600160a01b0390911681526020016101f4565b6101c161031136600461222b565b6116c7565b61034261032436600461222b565b6001600160a01b031660009081526071602052604090205460ff1690565b60405190151581526020016101f4565b610205610360366004612280565b61186c565b6102eb61037336600461222b565b6001600160a01b039081166000908152607260205260409020541690565b61020561039f3660046121cd565b6118cb565b607454610205565b6101c16103ba36600461222b565b6118eb565b610205603481565b6102056103d53660046121cd565b611c6c565b6101c16103e836600461222b565b611cc5565b6103f5611d3e565b6000811161044a5760405162461bcd60e51b815260206004820181905260248201527f47433a534c504d503a494e56414c49445f4d415455524954595f504552494f4460448201526064015b60405180910390fd5b607455565b61047360405180606001604052806000815260200160008152602001600081525090565b8161047d81611d98565b8361048781611df3565b60008581526070602090815260408083206001600160a01b0388168452825291829020825160608101845281548152600182015492810192909252600201549181019190915292505b505092915050565b606c546000906104e890426122f7565b606b546104f5919061230a565b606a5410156105045750600090565b606c5461051190426122f7565b606b5461051e919061230a565b606a5461052b91906122f7565b905090565b60008161053c81611d98565b8361054681611df3565b60008581526070602090815260408083206001600160a01b03881684529091529020805460029091015461057a90426122f7565b60008781526070602090815260408083206001600160a01b038a1684529091529020600101546105aa919061230a565b11156105b957600092506104d0565b60008581526070602090815260408083206001600160a01b03881684529091529020600201546105e990426122f7565b60008681526070602090815260408083206001600160a01b0389168452909152902060010154610619919061230a565b60008681526070602090815260408083206001600160a01b038916845290915290205461064691906122f7565b95945050505050565b610657611d3e565b8061066181611d98565b6000826001600160a01b0316635fcbd2856040518163ffffffff1660e01b8152600401602060405180830381865afa1580156106a1573d6000803e3d6000fd5b505050506040513d601f19601f820116820180604052508101906106c59190612321565b6001600160a01b03808216600090815260726020526040902054919250808516911603610713576001600160a01b038116600090815260726020526040902080546001600160a01b03191690555b6001600160a01b03808416600081815260716020526040808220805460ff1916905551928416927fd0a8f460dc5355ab99f1304f75d5222692bf3d8d855d956b42e24c2639e8cae99190a3505050565b8261076d81611df3565b8261077781611d98565b60655460408051630458184560e11b815290516000926001600160a01b0316916308b0308a9160048083019260209291908290030181865afa1580156107c1573d6000803e3d6000fd5b505050506040513d601f19601f820116820180604052508101906107e59190612321565b6040516331a9108f60e11b81526004810188905290915033906001600160a01b03831690636352211e90602401602060405180830381865afa15801561082f573d6000803e3d6000fd5b505050506040513d601f19601f820116820180604052508101906108539190612321565b6001600160a01b03161461089f5760405162461bcd60e51b815260206004820152601360248201527223a19d2b1d2727aa2fa627a1a5afa7aba722a960691b6044820152606401610441565b60405163d68f4dd160e01b8152600481018790526000906001600160a01b0383169063d68f4dd1906024016040805180830381865afa1580156108e6573d6000803e3d6000fd5b505050506040513d601f19601f8201168201806040525081019061090a919061233e565b6000888152606f602090815260408083206001600160a01b038b1684528252808320548b8452606e909252909120549192506127109161094a908861239b565b61095491906122f7565b11156109975760405162461bcd60e51b815260206004820152601260248201527147433a563a494e56414c49445f524154494f60701b6044820152606401610441565b42816020015111806109a7575084155b6109e75760405162461bcd60e51b815260206004820152601160248201527011d0ce958e9313d0d2d7d1561412549151607a1b6044820152606401610441565b8051610a355760405162461bcd60e51b815260206004820152601860248201527f47433a563a4c4f434b45445f42414c414e43455f5a45524f00000000000000006044820152606401610441565b6001600160a01b03861660009081526071602052604090205460ff16610a925760405162461bcd60e51b815260206004820152601260248201527147433a563a494e56414c49445f474155474560701b6044820152606401610441565b610a9a6114b9565b610aa3866118eb565b6000826001600160a01b03166364a1b95b896001866001600160a01b03166386b749d68d6040518263ffffffff1660e01b8152600401610ae591815260200190565b602060405180830381865afa158015610b02573d6000803e3d6000fd5b505050506040513d601f19601f82011682018060405250810190610b2691906123ae565b610b3091906122f7565b6040516001600160e01b031960e085901b16815260048101929092526024820152604401606060405180830381865afa158015610b71573d6000803e3d6000fd5b505050506040513d601f19601f82011682018060405250810190610b9591906123c7565b9050610bbb60405180606001604052806000815260200160008152602001600081525090565b610bdf60405180606001604052806000815260200160008152602001600081525090565b61271088846040015142610bf391906122f7565b8560200151610c02919061230a565b8551610c0e91906122f7565b610c18919061230a565b610c229190612431565b8152602083015161271090610c38908a9061230a565b610c429190612431565b6020808301919091524260408084019190915260008c8152606f83528181206001600160a01b038d16825290925290205415801590610c845750836020015142105b15610d7c5760008a81526070602090815260408083206001600160a01b038d168452909152902060020154610cb990426122f7565b60008b81526070602090815260408083206001600160a01b038e168452909152902060010154610ce9919061230a565b825260008a81526070602090815260408083206001600160a01b038d16808552908352818420600101548387018190524283880152908452606883528184208884015185529092528220805491929091610d449084906122f7565b925050819055508160200151606d6000866020015181526020019081526020016000206000828254610d7691906122f7565b90915550505b6020808201516001600160a01b038b166000908152606883526040808220888501518352909352918220805491929091610db790849061239b565b925050819055508060200151606d6000866020015181526020019081526020016000206000828254610de9919061239b565b9091555050815181516001600160a01b038b16600090815260676020526040902060020154610e1890426122f7565b6001600160a01b038c16600090815260676020526040902060010154610e3e919061230a565b6001600160a01b038c16600090815260676020526040902054610e6191906122f7565b610e6b919061239b565b610e7591906122f7565b6001600160a01b038a16600090815260676020908152604090912091825583810151908301516001909201549091610eac9161239b565b610eb691906122f7565b6001600160a01b038a166000908152606760205260409020600181019190915542600290910181905582518251606c5491929091610ef3916122f7565b606b54610f00919061230a565b606a54610f0d91906122f7565b610f17919061239b565b610f2191906122f7565b606a5560208083015190820151606b54610f3b919061239b565b610f4591906122f7565b606b5542606c5560008a8152606f602090815260408083206001600160a01b038d1684528252808320548d8452606e90925290912054610f85908a61239b565b610f8f91906122f7565b60008b8152606e6020908152604080832093909355606f81528282206001600160a01b038d168084529082528383208c90558d835260708252838320818452825291839020845181558482015160018201558484015160029091015591518a815290918c9133917f26d331fe2c57870421b3b095caa4314147214aba97e799945d1579ebfe5e08ad910160405180910390a450505050505050505050565b60008161103981611f19565b6110416114b9565b6069838154811061105457611054612453565b906000526020600020015491505b50919050565b60008161107481611d98565b8361107e81611df3565b5050506000918252606f602090815260408084206001600160a01b0393909316845291905290205490565b6000816110b581611f19565b6110be8361102d565b6000036110ce5760009150611062565b6110db600361271061254d565b6110e484611c6c565b60036005606560009054906101000a90046001600160a01b03166001600160a01b03166308b0308a6040518163ffffffff1660e01b8152600401602060405180830381865afa15801561113b573d6000803e3d6000fd5b505050506040513d601f19601f8201168201806040525081019061115f9190612321565b6001600160a01b031663b263bb3b886040518263ffffffff1660e01b815260040161118c91815260200190565b6020604051808303816000875af11580156111ab573d6000803e3d6000fd5b505050506040513d601f19601f820116820180604052508101906111cf91906123ae565b6111d99190612431565b6111e5906127106122f7565b6111ef919061254d565b6111f9919061230a565b6112039190612431565b9392505050565b611212611d3e565b61121c600061203b565b565b60008161122a81611d98565b6001600160a01b038316600090815260676020908152604091829020825160608101845281548152600182015492810192909252600201549181018290529061127390426122f7565b8160200151611282919061230a565b81511015611294576000925050611062565b60408101516112a390426122f7565b81602001516112b2919061230a565b81516112be91906122f7565b949350505050565b6000816112d281611f19565b836112dc81611d98565b6112e5856118eb565b6001600160a01b038516600090815260666020526040902080548590811061130f5761130f612453565b90600052602060002001549250505092915050565b600054610100900460ff16158080156113445750600054600160ff909116105b8061135e5750303b15801561135e575060005460ff166001145b6113c15760405162461bcd60e51b815260206004820152602e60248201527f496e697469616c697a61626c653a20636f6e747261637420697320616c72656160448201526d191e481a5b9a5d1a585b1a5e995960921b6064820152608401610441565b6000805460ff1916600117905580156113e4576000805461ff0019166101001790555b6113ec61208d565b606580546001600160a01b0319166001600160a01b038616179055607383905560748290556069805460018101825560009182527f7fb4302e8e91f9110a6554c2c0a24601252c2a42c2220ca988efcfe399914308018190556040805160608101825282815260208101839052429101819052606a829055606b91909155606c5580156114b3576000805461ff0019169055604051600181527f7f26b83ff96e1f2b6a682f133852f6798a09c465da95921460cefb38474024989060200160405180910390a15b50505050565b60655460408051630458184560e11b815290516000926001600160a01b0316916308b0308a9160048083019260209291908290030181865afa158015611503573d6000803e3d6000fd5b505050506040513d601f19601f820116820180604052508101906115279190612321565b60695460405163b291824f60e01b815260048101919091529091506000906001600160a01b0383169063b291824f906024016020604051808303816000875af1158015611578573d6000803e3d6000fd5b505050506040513d601f19601f8201168201806040525081019061159c91906123ae565b90506000826001600160a01b031663dfb1a4d26040518163ffffffff1660e01b8152600401602060405180830381865afa1580156115de573d6000803e3d6000fd5b505050506040513d601f19601f8201168201806040525081019061160291906123ae565b905060005b60808110156114b3574283116114b357606c5460009061162790856122f7565b606b54611634919061230a565b606a5461164191906122f7565b60698054600181019091557f7fb4302e8e91f9110a6554c2c0a24601252c2a42c2220ca988efcfe39991430801819055606a819055606c8590556000858152606d6020526040812054606b805493945090929091906116a19084906122f7565b909155506116b19050838561239b565b93505080806116bf9061255c565b915050611607565b6116cf611d3e565b6001600160a01b03811660009081526071602052604090205460ff16156117385760405162461bcd60e51b815260206004820152601960248201527f47433a41473a47415547455f414c52454144595f4144444544000000000000006044820152606401610441565b6117526001600160a01b038216635fcbd28560e01b6120bc565b6117945760405162461bcd60e51b815260206004820152601360248201527247433a41473a494e56414c49445f474155474560681b6044820152606401610441565b6000816001600160a01b0316635fcbd2856040518163ffffffff1660e01b8152600401602060405180830381865afa1580156117d4573d6000803e3d6000fd5b505050506040513d601f19601f820116820180604052508101906117f89190612321565b6001600160a01b03818116600081815260726020908152604080832080546001600160a01b03191695891695861790558483526071909152808220805460ff191660011790555193945090927f82ec1cbe428cca584a7a3ab0a9506a3c8583f7a8d14e3b81184c5c632e83420e9190a35050565b60008261187881611d98565b8261188281611f19565b61188b8461102d565b60000361189b57600092506104d0565b6118a48461102d565b6118ae86866112c6565b6118b7866110a9565b6118c1919061230a565b6106469190612431565b6000816118d781611df3565b50506000908152606e602052604090205490565b806118f581611d98565b60655460408051630458184560e11b815290516000926001600160a01b0316916308b0308a9160048083019260209291908290030181865afa15801561193f573d6000803e3d6000fd5b505050506040513d601f19601f820116820180604052508101906119639190612321565b6001600160a01b03841660009081526066602052604081205491925003611a67576001600160a01b0380841660009081526066602090815260408083208054600181018255908452828420018390558051606081018252838152918201839052805163b291824f60e01b81529193908401929085169163b291824f916119ef9160040190815260200190565b6020604051808303816000875af1158015611a0e573d6000803e3d6000fd5b505050506040513d601f19601f82011682018060405250810190611a3291906123ae565b90526001600160a01b038416600090815260676020908152604091829020835181559083015160018201559101516002909101555b6000816001600160a01b031663dfb1a4d26040518163ffffffff1660e01b8152600401602060405180830381865afa158015611aa7573d6000803e3d6000fd5b505050506040513d601f19601f82011682018060405250810190611acb91906123ae565b6001600160a01b0385811660009081526066602052604080822054905163b291824f60e01b81526004810191909152929350919084169063b291824f906024016020604051808303816000875af1158015611b2a573d6000803e3d6000fd5b505050506040513d601f19601f82011682018060405250810190611b4e91906123ae565b905060005b6080811015611c6457428211611c64576001600160a01b038616600090815260676020526040812060020154611b8990846122f7565b6001600160a01b038816600090815260676020526040902060010154611baf919061230a565b6001600160a01b038816600090815260676020526040902054611bd291906122f7565b6001600160a01b0388166000818152606660209081526040808320805460018181018355918552838520018690558484526067808452828520878155600281018b9055606885528386208b87528552928520549585529092520180549394509192611c3e9084906122f7565b90915550611c4e9050848461239b565b9250508080611c5c9061255c565b915050611b53565b505050505050565b600080611c7a603484612431565b90506018831015611c95576018836073546111f9919061230a565b6008811115611ca2575060085b611cad816004612575565b611cb8826003612575565b6073546111f9919061230a565b611ccd611d3e565b6001600160a01b038116611d325760405162461bcd60e51b815260206004820152602660248201527f4f776e61626c653a206e6577206f776e657220697320746865207a65726f206160448201526564647265737360d01b6064820152608401610441565b611d3b8161203b565b50565b6033546001600160a01b0316331461121c5760405162461bcd60e51b815260206004820181905260248201527f4f776e61626c653a2063616c6c6572206973206e6f7420746865206f776e65726044820152606401610441565b6001600160a01b03811660009081526071602052604090205460ff16611d3b5760405162461bcd60e51b815260206004820152601060248201526f47433a494e56414c49445f474155474560801b6044820152606401610441565b60655460408051630458184560e11b815290516000926001600160a01b0316916308b0308a9160048083019260209291908290030181865afa158015611e3d573d6000803e3d6000fd5b505050506040513d601f19601f82011682018060405250810190611e619190612321565b6001600160a01b0316636352211e836040518263ffffffff1660e01b8152600401611e8e91815260200190565b602060405180830381865afa158015611eab573d6000803e3d6000fd5b505050506040513d601f19601f82011682018060405250810190611ecf9190612321565b6001600160a01b031603611d3b5760405162461bcd60e51b815260206004820152601160248201527011d0ce9313d0d2d7d393d517d193d55391607a1b6044820152606401610441565b606560009054906101000a90046001600160a01b03166001600160a01b03166308b0308a6040518163ffffffff1660e01b8152600401602060405180830381865afa158015611f6c573d6000803e3d6000fd5b505050506040513d601f19601f82011682018060405250810190611f909190612321565b604051635e05e35d60e11b81524260048201526001600160a01b03919091169063bc0bc6ba90602401602060405180830381865afa158015611fd6573d6000803e3d6000fd5b505050506040513d601f19601f82011682018060405250810190611ffa91906123ae565b811115611d3b5760405162461bcd60e51b815260206004820152600f60248201526e08e86748caaa8aaa48abe8aa09e869608b1b6044820152606401610441565b603380546001600160a01b038381166001600160a01b0319831681179093556040519116919082907f8be0079c531659141344cd1fd0a4f28419497f9722a3daafe3b4186f6b6457e090600090a35050565b600054610100900460ff166120b45760405162461bcd60e51b815260040161044190612581565b61121c6120e1565b60006120c783612111565b80156120d857506120d88383612144565b90505b92915050565b600054610100900460ff166121085760405162461bcd60e51b815260040161044190612581565b61121c3361203b565b6000612124826301ffc9a760e01b612144565b80156120db575061213d826001600160e01b0319612144565b1592915050565b604080516001600160e01b03198316602480830191909152825180830390910181526044909101909152602080820180516001600160e01b03166301ffc9a760e01b178152825160009392849283928392918391908a617530fa92503d915060005190508280156121b6575060208210155b80156121c25750600081115b979650505050505050565b6000602082840312156121df57600080fd5b5035919050565b6001600160a01b0381168114611d3b57600080fd5b6000806040838503121561220e57600080fd5b823591506020830135612220816121e6565b809150509250929050565b60006020828403121561223d57600080fd5b8135611203816121e6565b60008060006060848603121561225d57600080fd5b83359250602084013561226f816121e6565b929592945050506040919091013590565b6000806040838503121561229357600080fd5b823561229e816121e6565b946020939093013593505050565b6000806000606084860312156122c157600080fd5b83356122cc816121e6565b95602085013595506040909401359392505050565b634e487b7160e01b600052601160045260246000fd5b818103818111156120db576120db6122e1565b80820281158282048414176120db576120db6122e1565b60006020828403121561233357600080fd5b8151611203816121e6565b60006040828403121561235057600080fd5b6040516040810181811067ffffffffffffffff8211171561238157634e487b7160e01b600052604160045260246000fd5b604052825181526020928301519281019290925250919050565b808201808211156120db576120db6122e1565b6000602082840312156123c057600080fd5b5051919050565b6000606082840312156123d957600080fd5b6040516060810181811067ffffffffffffffff8211171561240a57634e487b7160e01b600052604160045260246000fd5b80604052508251815260208301516020820152604083015160408201528091505092915050565b60008261244e57634e487b7160e01b600052601260045260246000fd5b500490565b634e487b7160e01b600052603260045260246000fd5b600181815b808511156124a457816000190482111561248a5761248a6122e1565b8085161561249757918102915b93841c939080029061246e565b509250929050565b6000826124bb575060016120db565b816124c8575060006120db565b81600181146124de57600281146124e857612504565b60019150506120db565b60ff8411156124f9576124f96122e1565b50506001821b6120db565b5060208310610133831016604e8410600b8410161715612527575081810a6120db565b6125318383612469565b8060001904821115612545576125456122e1565b029392505050565b60006120d860ff8416836124ac565b60006001820161256e5761256e6122e1565b5060010190565b60006120d883836124ac565b6020808252602b908201527f496e697469616c697a61626c653a20636f6e7472616374206973206e6f74206960408201526a6e697469616c697a696e6760a81b60608201526080019056fea264697066735822122068e52c1e3a705fa91d3703ad07889e88e7314dbebd10dde36809858e5bd790b564736f6c63430008130033",
  "linkReferences": {},
  "deployedLinkReferences": {}
}