{
  "_format": "hh-sol-artifact-1",
  "contractName": "GaugeController",
  "sourceName": "contracts/protocol/Gauges/GaugeController.sol",
  "abi": [
    {
      "inputs": [],
      "stateMutability": "nonpayable",
      "type": "constructor"
    },
    {
      "anonymous": false,
      "inputs": [
        {
          "indexed": true,
          "internalType": "address",
          "name": "gauge",
          "type": "address"
        },
        {
          "indexed": true,
          "internalType": "address",
          "name": "liquidityPool",
          "type": "address"
        }
      ],
      "name": "AddGauge",
      "type": "event"
    },
    {
      "anonymous": false,
      "inputs": [
        {
          "indexed": false,
          "internalType": "uint8",
          "name": "version",
          "type": "uint8"
        }
      ],
      "name": "Initialized",
      "type": "event"
    },
    {
      "anonymous": false,
      "inputs": [
        {
          "indexed": true,
          "internalType": "address",
          "name": "previousOwner",
          "type": "address"
        },
        {
          "indexed": true,
          "internalType": "address",
          "name": "newOwner",
          "type": "address"
        }
      ],
      "name": "OwnershipTransferred",
      "type": "event"
    },
    {
      "anonymous": false,
      "inputs": [
        {
          "indexed": true,
          "internalType": "address",
          "name": "gauge",
          "type": "address"
        },
        {
          "indexed": true,
          "internalType": "address",
          "name": "liquidityPool",
          "type": "address"
        }
      ],
      "name": "RemoveGauge",
      "type": "event"
    },
    {
      "anonymous": false,
      "inputs": [
        {
          "indexed": true,
          "internalType": "address",
          "name": "user",
          "type": "address"
        },
        {
          "indexed": true,
          "internalType": "uint256",
          "name": "tokenId",
          "type": "uint256"
        },
        {
          "indexed": true,
          "internalType": "address",
          "name": "gauge",
          "type": "address"
        },
        {
          "indexed": false,
          "internalType": "uint256",
          "name": "weight",
          "type": "uint256"
        }
      ],
      "name": "Vote",
      "type": "event"
    },
    {
      "inputs": [],
      "name": "INFLATION_PERIOD",
      "outputs": [
        {
          "internalType": "uint256",
          "name": "",
          "type": "uint256"
        }
      ],
      "stateMutability": "view",
      "type": "function"
    },
    {
      "inputs": [],
      "name": "LOADING_PERIOD",
      "outputs": [
        {
          "internalType": "uint256",
          "name": "",
          "type": "uint256"
        }
      ],
      "stateMutability": "view",
      "type": "function"
    },
    {
      "inputs": [],
      "name": "MAX_INFLATION_PERIOD",
      "outputs": [
        {
          "internalType": "uint256",
          "name": "",
          "type": "uint256"
        }
      ],
      "stateMutability": "view",
      "type": "function"
    },
    {
      "inputs": [
        {
          "internalType": "address",
          "name": "gauge",
          "type": "address"
        }
      ],
      "name": "addGauge",
      "outputs": [],
      "stateMutability": "nonpayable",
      "type": "function"
    },
    {
      "inputs": [
        {
          "internalType": "uint256",
          "name": "epoch",
          "type": "uint256"
        }
      ],
      "name": "getEpochRewards",
      "outputs": [
        {
          "internalType": "uint256",
          "name": "",
          "type": "uint256"
        }
      ],
      "stateMutability": "nonpayable",
      "type": "function"
    },
    {
      "inputs": [
        {
          "internalType": "address",
          "name": "liquidityPool",
          "type": "address"
        }
      ],
      "name": "getGauge",
      "outputs": [
        {
          "internalType": "address",
          "name": "",
          "type": "address"
        }
      ],
      "stateMutability": "view",
      "type": "function"
    },
    {
      "inputs": [
        {
          "internalType": "address",
          "name": "gauge",
          "type": "address"
        },
        {
          "internalType": "uint256",
          "name": "epoch",
          "type": "uint256"
        }
      ],
      "name": "getGaugeRewards",
      "outputs": [
        {
          "internalType": "uint256",
          "name": "rewards",
          "type": "uint256"
        }
      ],
      "stateMutability": "nonpayable",
      "type": "function"
    },
    {
      "inputs": [
        {
          "internalType": "address",
          "name": "gauge",
          "type": "address"
        }
      ],
      "name": "getGaugeWeight",
      "outputs": [
        {
          "internalType": "uint256",
          "name": "",
          "type": "uint256"
        }
      ],
      "stateMutability": "view",
      "type": "function"
    },
    {
      "inputs": [
        {
          "internalType": "address",
          "name": "gauge",
          "type": "address"
        },
        {
          "internalType": "uint256",
          "name": "epoch",
          "type": "uint256"
        }
      ],
      "name": "getGaugeWeightAt",
      "outputs": [
        {
          "internalType": "uint256",
          "name": "",
          "type": "uint256"
        }
      ],
      "stateMutability": "nonpayable",
      "type": "function"
    },
    {
      "inputs": [
        {
          "internalType": "uint256",
          "name": "epoch",
          "type": "uint256"
        }
      ],
      "name": "getRewardsCeiling",
      "outputs": [
        {
          "internalType": "uint256",
          "name": "",
          "type": "uint256"
        }
      ],
      "stateMutability": "view",
      "type": "function"
    },
    {
      "inputs": [],
      "name": "getTotalWeight",
      "outputs": [
        {
          "internalType": "uint256",
          "name": "",
          "type": "uint256"
        }
      ],
      "stateMutability": "view",
      "type": "function"
    },
    {
      "inputs": [
        {
          "internalType": "uint256",
          "name": "epoch",
          "type": "uint256"
        }
      ],
      "name": "getTotalWeightAt",
      "outputs": [
        {
          "internalType": "uint256",
          "name": "",
          "type": "uint256"
        }
      ],
      "stateMutability": "nonpayable",
      "type": "function"
    },
    {
      "inputs": [
        {
          "internalType": "contract IAddressesProvider",
          "name": "addressProvider",
          "type": "address"
        },
        {
          "internalType": "uint256",
          "name": "initialRewards",
          "type": "uint256"
        }
      ],
      "name": "initialize",
      "outputs": [],
      "stateMutability": "nonpayable",
      "type": "function"
    },
    {
      "inputs": [
        {
          "internalType": "address",
          "name": "gauge",
          "type": "address"
        }
      ],
      "name": "isGauge",
      "outputs": [
        {
          "internalType": "bool",
          "name": "",
          "type": "bool"
        }
      ],
      "stateMutability": "view",
      "type": "function"
    },
    {
      "inputs": [
        {
          "internalType": "uint256",
          "name": "tokenId",
          "type": "uint256"
        },
        {
          "internalType": "address",
          "name": "gauge",
          "type": "address"
        }
      ],
      "name": "lockVotePointForGauge",
      "outputs": [
        {
          "components": [
            {
              "internalType": "uint256",
              "name": "bias",
              "type": "uint256"
            },
            {
              "internalType": "uint256",
              "name": "slope",
              "type": "uint256"
            },
            {
              "internalType": "uint256",
              "name": "timestamp",
              "type": "uint256"
            }
          ],
          "internalType": "struct DataTypes.Point",
          "name": "",
          "type": "tuple"
        }
      ],
      "stateMutability": "view",
      "type": "function"
    },
    {
      "inputs": [
        {
          "internalType": "uint256",
          "name": "tokenId",
          "type": "uint256"
        }
      ],
      "name": "lockVoteRatio",
      "outputs": [
        {
          "internalType": "uint256",
          "name": "",
          "type": "uint256"
        }
      ],
      "stateMutability": "view",
      "type": "function"
    },
    {
      "inputs": [
        {
          "internalType": "uint256",
          "name": "tokenId",
          "type": "uint256"
        },
        {
          "internalType": "address",
          "name": "gauge",
          "type": "address"
        }
      ],
      "name": "lockVoteRatioForGauge",
      "outputs": [
        {
          "internalType": "uint256",
          "name": "",
          "type": "uint256"
        }
      ],
      "stateMutability": "view",
      "type": "function"
    },
    {
      "inputs": [
        {
          "internalType": "uint256",
          "name": "tokenId",
          "type": "uint256"
        },
        {
          "internalType": "address",
          "name": "gauge",
          "type": "address"
        }
      ],
      "name": "lockVoteWeightForGauge",
      "outputs": [
        {
          "internalType": "uint256",
          "name": "",
          "type": "uint256"
        }
      ],
      "stateMutability": "view",
      "type": "function"
    },
    {
      "inputs": [],
      "name": "owner",
      "outputs": [
        {
          "internalType": "address",
          "name": "",
          "type": "address"
        }
      ],
      "stateMutability": "view",
      "type": "function"
    },
    {
      "inputs": [
        {
          "internalType": "address",
          "name": "gauge",
          "type": "address"
        }
      ],
      "name": "removeGauge",
      "outputs": [],
      "stateMutability": "nonpayable",
      "type": "function"
    },
    {
      "inputs": [],
      "name": "renounceOwnership",
      "outputs": [],
      "stateMutability": "nonpayable",
      "type": "function"
    },
    {
      "inputs": [
        {
          "internalType": "address",
          "name": "newOwner",
          "type": "address"
        }
      ],
      "name": "transferOwnership",
      "outputs": [],
      "stateMutability": "nonpayable",
      "type": "function"
    },
    {
      "inputs": [
        {
          "internalType": "uint256",
          "name": "tokenId",
          "type": "uint256"
        },
        {
          "internalType": "address",
          "name": "gauge",
          "type": "address"
        },
        {
          "internalType": "uint256",
          "name": "ratio",
          "type": "uint256"
        }
      ],
      "name": "vote",
      "outputs": [],
      "stateMutability": "nonpayable",
      "type": "function"
    },
    {
      "inputs": [
        {
          "internalType": "address",
          "name": "gauge",
          "type": "address"
        }
      ],
      "name": "writeGaugeWeightHistory",
      "outputs": [],
      "stateMutability": "nonpayable",
      "type": "function"
    },
    {
      "inputs": [],
      "name": "writeTotalWeightHistory",
      "outputs": [],
      "stateMutability": "nonpayable",
      "type": "function"
    }
  ],
  "bytecode": "0x608080604052346100c1576000549060ff8260081c1661006f575060ff80821610610034575b6040516121e890816100c78239f35b60ff90811916176000557f7f26b83ff96e1f2b6a682f133852f6798a09c465da95921460cefb3847402498602060405160ff8152a138610025565b62461bcd60e51b815260206004820152602760248201527f496e697469616c697a61626c653a20636f6e747261637420697320696e697469604482015266616c697a696e6760c81b6064820152608490fd5b600080fdfe608060405260048036101561001357600080fd5b60003560e01c806306aba0e1146111215780633a0451451461103d5780634de8737c1461083f57806350735f6f146108215780635f0c0f2b146108035780636040b3b714610763578063643b281914610747578063715018a6146106ea57806372be5276146106c757806374a21324146106a05780637be27d79146106845780637db9ddb714610621578063827344e8146105fa578063832cab78146105cf57806387da75ef146105b65780638da5cb5b1461058d5780639da882ac1461049d578063aa79979b1461045e578063ad43a91814610437578063b1c6f0e9146103fc578063c341eea2146103db578063c947755a146103bf578063cd6dc687146101ea578063d31e99bf146101c45763f2fde38b1461013057600080fd5b346101bf5760203660031901126101bf5761014961113c565b90610152611168565b6001600160a01b0382161561016c5761016a826111c0565b005b60849060206040519162461bcd60e51b8352820152602660248201527f4f776e61626c653a206e6577206f776e657220697320746865207a65726f206160448201526564647265737360d01b6064820152fd5b600080fd5b50346101bf5760203660031901126101bf576101e260209135611d0f565b604051908152f35b50346101bf5760403660031901126101bf5780356001600160a01b03811691908290036101bf576000549160ff8360081c1615928380946103b2575b801561039b575b156103405760ff1981166001176000558361032e575b5061025e60ff60005460081c16610259816112c2565b6112c2565b610267336111c0565b6001600160601b0360a01b606554161760655560243560735560695490600160401b82101561031957508060016102a19201606955611209565b8154906000199060031b1b191690556040516102bc8161126e565b60008152600060208201526040429101526000606a556000606b5542606c556102e157005b61ff0019600054166000557f7f26b83ff96e1f2b6a682f133852f6798a09c465da95921460cefb3847402498602060405160018152a1005b604190634e487b7160e01b6000525260246000fd5b61ffff19166101011760005538610243565b60405162461bcd60e51b8152602081850152602e60248201527f496e697469616c697a61626c653a20636f6e747261637420697320616c72656160448201526d191e481a5b9a5d1a585b1a5e995960921b6064820152608490fd5b50303b15801561022d5750600160ff82161461022d565b50600160ff821610610226565b346101bf5760003660031901126101bf57602060405160348152f35b346101bf5760203660031901126101bf5761016a6103f761113c565b6119ca565b346101bf5760203660031901126101bf5760206001600160a01b038061042061113c565b166000526072825260406000205416604051908152f35b346101bf5760403660031901126101bf5760206101e261045561113c565b60243590612082565b346101bf5760203660031901126101bf576001600160a01b0361047f61113c565b166000526071602052602060ff604060002054166040519015158152f35b50346101bf57602090816003193601126101bf576104b961113c565b906104c2611168565b604051635fcbd28560e01b81526001600160a01b039283169290918490839081865afa801561058157607192600091610554575b50169283600052607281526040600020836001600160601b0360a01b82541617905582600052526040600020600160ff198254161790557f82ec1cbe428cca584a7a3ab0a9506a3c8583f7a8d14e3b81184c5c632e83420e600080a3005b6105749150853d871161057a575b61056c81836112a0565b810190611322565b386104f6565b503d610562565b6040513d6000823e3d90fd5b346101bf5760003660031901126101bf576033546040516001600160a01b039091168152602090f35b346101bf5760003660031901126101bf5761016a6117e7565b50346101bf5760203660031901126101bf5735600052606e6020526020604060002054604051908152f35b50346101bf5760403660031901126101bf576101e260209161061a611152565b90356116fe565b50346101bf5760403660031901126101bf576001600160a01b03610643611152565b169081600052607160205261065f60ff60406000205416611341565b35600052606f6020526040600020906000526020526020604060002054604051908152f35b346101bf5760003660031901126101bf57602060405160188152f35b346101bf5760403660031901126101bf5760206101e26106be61113c565b60243590611499565b346101bf5760203660031901126101bf5760206101e26106e561113c565b6113c3565b346101bf5760003660031901126101bf57610703611168565b603380546001600160a01b031981169091556000906001600160a01b03167f8be0079c531659141344cd1fd0a4f28419497f9722a3daafe3b4186f6b6457e08280a3005b346101bf5760003660031901126101bf57602060405160088152f35b50346101bf5760403660031901126101bf5761077d611152565b6107856116df565b5060018060a01b0316908160005260716020526107a960ff60406000205416611341565b356000526070602052604060002090600052602052606060406000206040516107d18161126e565b815491828252604060026001830154926020850193845201549201918252604051928352516020830152516040820152f35b50346101bf5760203660031901126101bf576101e260209135611e32565b50346101bf5760203660031901126101bf576101e2602091356115df565b50346101bf5760603660031901126101bf57610859611152565b606554604051630458184560e11b81526001600160a01b039160209082908690829086165afa801561058157829160009161101e575b501691604051926331a9108f60e11b84528435858501526024936020818681855afa90811561058157600091610fff575b508333911603610fa45760408051635a2d1e0760e11b815286358782015290818681855afa90811561058157600091610f32575b508535600052606e6020526040600020549461271061093d61091960449889356117da565b8935600052606f60205260406000208888166000526020526040600020549061138d565b11610edd57602082015142108015610ed4575b15610e5f57815115610e0657848416600052607160205261097860ff60406000205416611341565b6109806117e7565b610989846119ca565b604051633a210a4360e11b8152873588820152906020828281875afa91821561058157600092610dd2575b506000198201918211610dbf57908660609260405195869384926364a1b95b60e01b84528c358d8501528301525afa91821561058157600092610d66575b50610bae906109ff6116df565b90612710610a508882610a44610a136116df565b98610a3f8151610a396020840196610a336040895192359601514261138d565b906113b0565b9061138d565b6113b0565b048752893590516113b0565b0460208501524260408501528735600052606f6020526040600020868616600052602052604060002054151580610d59575b610c88575b6020840151868616600052606860205260406000206020830151600052602052610ab760406000209182546117da565b9055602080850151910151600052606d602052610ada60406000209182546117da565b90558484166000526067602052610b98610b456001610b25610b1d610b156040600020610a39815491610a336002888301549201544261138d565b8851906117da565b85519061138d565b8888166000526067602052604060002090815501546020860151906117da565b91610b56602082019384519061138d565b87871660005260676020526040600020906001820155600242910155610ba0606a5491610b98610b15606b5494610a39610b92606c544261138d565b876113b0565b90519061138d565b606a556020850151906117da565b606b5542606c558435600052606e602052610bf6610bd260406000205486356117da565b8635600052606f60205260406000208585166000526020526040600020549061138d565b8535600052606e602052604060002055606f602052604060002083831660005260205283356040600020558435600052607060205260406000208383166000526020526002604080600020928051845560208101516001850155015191015560405192358352169135907f26d331fe2c57870421b3b095caa4314147214aba97e799945d1579ebfe5e08ad60203392a4005b873560005260706020526040600020868616600052602052610cd6600160406000200154893560005260706020526040600020888816600052602052610a336002604060002001544261138d565b82528735600052607060205260406000208686166000526020526001604060002001546020830190808252426040850152878716600052606860205260406000206020840151600052602052610d32604060002091825461138d565b9055516020820151600052606d602052610d52604060002091825461138d565b9055610a87565b5060208101514210610a82565b9091506060813d8211610db7575b81610d81606093836112a0565b810103126101bf57610bae906040805191610d9b8361126e565b80518352602081015160208401520151604082015291906109f2565b3d9150610d74565b634e487b7160e01b600090815260118952fd5b9091506020813d602011610dfe575b81610dee602093836112a0565b810103126101bf575190386109b4565b3d9150610de1565b867f4d7573742068617665206c6f636b65642062616c616e6365206269676765722087602e60849460206040519562461bcd60e51b87528601528401528201526d7468616e203020746f20766f746560901b6064820152fd5b60405162461bcd60e51b81526020818901529081018690527f4d757374206861766520616e20616374697665206c6f636b20696e206f726465818701527f7220746f20766f746520756e6c65737320697427732065726173696e67206120606482015263766f746560e01b608482015260a490fd5b50853515610950565b867f546f74616c20766f746520726174696f206d75737420626520736d616c6c657287602a60849460206040519562461bcd60e51b875286015284015282015269207468616e203130302560b01b6064820152fd5b90506040813d604011610f9c575b81610f4d604093836112a0565b810103126101bf57604051906040820182811067ffffffffffffffff821117610f8857906020916040528051835201516020820152386108f4565b86604189634e487b7160e01b600052526000fd5b3d9150610f40565b60405162461bcd60e51b8152602081870152602f818601527f4d75737420626520746865206f776e6572206f6620746865206c6f636b20746f60448201526e2075736520697420746f20766f746560881b6064820152608490fd5b611018915060203d60201161057a5761056c81836112a0565b386108c0565b611037915060203d60201161057a5761056c81836112a0565b3861088f565b50346101bf57602090816003193601126101bf5761105961113c565b90611062611168565b60018060a01b0380921691826000526071845261108660ff60406000205416611341565b836040518093635fcbd28560e01b825281865afa801561058157607192600091611104575b501692836000526072815260406000206001600160601b0360a01b81541690558260005252604060002060ff1981541690557fd0a8f460dc5355ab99f1304f75d5222692bf3d8d855d956b42e24c2639e8cae9600080a3005b61111b9150853d871161057a5761056c81836112a0565b386110ab565b346101bf5760003660031901126101bf5760206101e26115ab565b600435906001600160a01b03821682036101bf57565b602435906001600160a01b03821682036101bf57565b6033546001600160a01b0316330361117c57565b606460405162461bcd60e51b815260206004820152602060248201527f4f776e61626c653a2063616c6c6572206973206e6f7420746865206f776e65726044820152fd5b603380546001600160a01b039283166001600160a01b0319821681179092559091167f8be0079c531659141344cd1fd0a4f28419497f9722a3daafe3b4186f6b6457e0600080a3565b6069548110156112405760696000527f7fb4302e8e91f9110a6554c2c0a24601252c2a42c2220ca988efcfe3999143080190600090565b634e487b7160e01b600052603260045260246000fd5b80548210156112405760005260206000200190600090565b6060810190811067ffffffffffffffff82111761128a57604052565b634e487b7160e01b600052604160045260246000fd5b90601f8019910116810190811067ffffffffffffffff82111761128a57604052565b156112c957565b60405162461bcd60e51b815260206004820152602b60248201527f496e697469616c697a61626c653a20636f6e7472616374206973206e6f74206960448201526a6e697469616c697a696e6760a81b6064820152608490fd5b908160209103126101bf57516001600160a01b03811681036101bf5790565b1561134857565b60405162461bcd60e51b815260206004820152601e60248201527f4761756765206973206e6f74206f6e20746865206761756765206c69737400006044820152606490fd5b9190820391821161139a57565b634e487b7160e01b600052601160045260246000fd5b8181029291811591840414171561139a57565b6001600160a01b03166000818152607160205260409020546113e79060ff16611341565b60005260676020526040600020604051906114018261126e565b80549182815260018201549261142e60026020840194868652015494610a3360408501968088524261138d565b1161144c5761144992610a33610a399251935191514261138d565b90565b505050600090565b1561145b57565b60405162461bcd60e51b815260206004820152601660248201527545706f636820697320696e207468652066757475726560501b6044820152606490fd5b919060018060a01b0380841693600094808652602091607183526040936114c560ff868a205416611341565b6004848260655416875192838092630458184560e11b82525afa9081156115a1579085918a91611584575b506024875180948193635487c57760e01b8352426004840152165afa90811561157a578891611547575b509161153461153d979894926103f7606695891115611454565b83525220611256565b90549060031b1c90565b90508381813d8311611573575b61155e81836112a0565b8101031261156f575161153461151a565b8780fd5b503d611554565b85513d8a823e3d90fd5b61159b9150823d841161057a5761056c81836112a0565b386114f0565b86513d8b823e3d90fd5b606a54606b5490606c546115c86115c2824261138d565b846113b0565b821061144c5761144992610a33610a39924261138d565b606554604051630458184560e11b81526001600160a01b03916020919082908290600490829087165afa80156105815782916000916116c2575b50602460405180958193635487c57760e01b8352426004840152165afa90811561058157600091611690575b506116539150821115611454565b61165b6117e7565b6069548110156112405760696000527f7fb4302e8e91f9110a6554c2c0a24601252c2a42c2220ca988efcfe399914308015490565b82813d83116116bb575b6116a481836112a0565b810103126116b85750611653905138611645565b80fd5b503d61169a565b6116d99150823d841161057a5761056c81836112a0565b38611619565b604051906116ec8261126e565b60006040838281528260208201520152565b9060018060a01b03166000918183526020916071835260409061172660ff8387205416611341565b828552607093848152828620828752815261175f600184882001548588528683528488208489528352610a336002868a2001544261138d565b848752858252838720838852825283872054106117c357839286610a3393600293610a39976114499a52888152838320828452815283832054988784528082528484208385528252600185852001549784528152838320918352522001544261138d565b505050505090565b600019811461139a5760010190565b9190820180921161139a57565b60655460408051630458184560e11b8152600492602092916001600160a01b0391849082908790829086165afa908115611971576000916119ad575b50169060699081549381519463196d044f60e11b865286860152602494818187816000895af1908115611971578791839160009161197c575b5095845198898092632d6de86160e21b82525afa96871561197157600097611942575b506000945b60808610611897575b5050505050505050565b42811161193d57606a8054606b916118bc835492610a39606c94610a3386548961138d565b908854600160401b81101561192957948c93819361191d96936118e8898e60016119239c019055611209565b81549060031b9084821b91600019901b1916179055555581600052606d87526119168860002054825461138d565b90556117da565b956117cb565b94611884565b8b604188634e487b7160e01b600052526000fd5b61188d565b90968282813d831161196a575b61195981836112a0565b810103126116b8575051953861187f565b503d61194f565b83513d6000823e3d90fd5b92509082813d81116119a6575b61199381836112a0565b810103126116b85750818791513861185c565b503d611989565b6119c49150843d861161057a5761056c81836112a0565b38611823565b60018060a01b0380911660008181526020918291607183526040946119f460ff8784205416611341565b8060655416865195868092630458184560e11b825260049889915afa908115611ce5578391611cc8575b50169482825260668085528183208054908115611bf8575b50508151632d6de86160e21b81529685888881845afa978815611beb578498611bb8575b509083918583528187528684842054855192839163196d044f60e11b83528b8301528160249889925af1908115611bae578391611b7d575b509582965b60808810611aac575b50505050505050505050565b428111611b78578684526067808352858520805490611add600192610a3984840154610a336002809601548961138d565b8a8852868652888820805490600160401b821015611b6657938f94968094611b5a97948f611b1686611b609c8761191699018155611256565b81549060031b9084821b91600019901b19161790558d52858b528d8d209081550155606888528a8a20848b5288528a8a2054928d8b5288528a8a200191825461138d565b976117cb565b96611a97565b634e487b7160e01b8a5260418f528b8afd5b611aa0565b90508681813d8311611ba7575b611b9481836112a0565b81010312611ba3575138611a92565b8280fd5b503d611b8a565b84513d85823e3d90fd5b9097508581813d8311611be4575b611bd081836112a0565b81010312611be057519683611a5a565b8380fd5b503d611bc6565b50505051903d90823e3d90fd5b600160401b821015611cb55790611c1491600182018155611256565b8154906000199060031b1b19169055815163196d044f60e11b815283878201528581602481878c5af1908115611beb578491611c88575b506002835191611c5a8361126e565b8583528783018681528584019182528787526067895285872093518455516001840155519101553880611a36565b90508581813d8311611cae575b611c9f81836112a0565b81010312611be0575138611c4b565b503d611c95565b634e487b7160e01b855260418852602485fd5b611cdf9150853d871161057a5761056c81836112a0565b38611a1e565b87513d85823e3d90fd5b8115611cf9570490565b634e487b7160e01b600052601260045260246000fd5b603481046018821015611d2f5750611d2b6018916073546113b0565b0490565b905060088111611d68575b60735460a1821161139a57611d53908260030a906113b0565b607f821161139a576114499160040a90611cef565b506008611d3a565b6000908015611e2e578080600114611e2657600214611e1e576001918261013383101683600b84101617611e0e5760038392935b808211611dd157505082600019048211611dbd57500290565b634e487b7160e01b81526011600452602490fd5b909380600019048111611dfa57818516611df1575b800293811c90611da4565b80930292611de6565b634e487b7160e01b83526011600452602483fd5b929150600383910a92611dbd5750565b509060089150565b505050600190565b5090565b60655460408051630458184560e11b8082526001600160a01b039594929360049392602092918816919083818781865afa90811561207757908993929160009161205a575b508488518092635487c57760e01b8252428a8301528160249d8e92165afa90811561204f579085929160009161201d575b50611eb590871115611454565b8688518094819382525afa908115612012579188849392600095938691611ff5575b50885163b263bb3b60e01b81528881018890529586938492165af1948515611feb5750600094611fba575b5050600561271093048303838111611fa65790610a33611f24611f2a93611d70565b91611d0f565b91906001906003825b808211611f6957505082600019048211611f5557506114499394500290611cef565b60118691634e487b7160e01b600052526000fd5b909380600019048111611f9257818516611f89575b800293811c90611f33565b80930292611f7e565b87601184634e487b7160e01b600052526000fd5b85601184634e487b7160e01b600052526000fd5b8181959293953d8311611fe4575b611fd281836112a0565b810103126116b8575051913880611f02565b503d611fc8565b513d6000823e3d90fd5b61200c9150843d861161057a5761056c81836112a0565b38611ed7565b86513d6000823e3d90fd5b919282813d8311612048575b61203381836112a0565b810103126116b8575051849190611eb5611ea8565b503d612029565b88513d6000823e3d90fd5b6120719150853d871161057a5761056c81836112a0565b38611e77565b87513d6000823e3d90fd5b9060018060a01b0360009080841682526020607181526120a860ff604085205416611341565b600481836065541660405192838092630458184560e11b82525afa9081156121a757908291859161218a575b50602460405180958193635487c57760e01b8352426004840152165afa90811561217f57839161214b575b5061210d9150831115611454565b612116826115df565b15612145575061213f61213961144993610a338461213381611e32565b92611499565b916115df565b90611cef565b91505090565b905081813d8311612178575b61216181836112a0565b810103126121745761210d9051386120ff565b5080fd5b503d612157565b6040513d85823e3d90fd5b6121a19150823d841161057a5761056c81836112a0565b386120d4565b6040513d86823e3d90fdfea26469706673582212200d7b2ed4b5ddbc93bd3c605a8342a6b7fe35c857a41497cc2fa4d3fc384adf5e64736f6c63430008130033",
  "linkReferences": {},
  "deployedLinkReferences": {}
}