{
  "_format": "hh-sol-artifact-1",
  "contractName": "GenesisNFT",
  "sourceName": "contracts/protocol/GenesisNFT.sol",
  "abi": [
    {
      "inputs": [],
      "stateMutability": "nonpayable",
      "type": "constructor"
    },
    {
      "anonymous": false,
      "inputs": [
        {
          "indexed": true,
          "internalType": "address",
          "name": "owner",
          "type": "address"
        },
        {
          "indexed": true,
          "internalType": "address",
          "name": "approved",
          "type": "address"
        },
        {
          "indexed": true,
          "internalType": "uint256",
          "name": "tokenId",
          "type": "uint256"
        }
      ],
      "name": "Approval",
      "type": "event"
    },
    {
      "anonymous": false,
      "inputs": [
        {
          "indexed": true,
          "internalType": "address",
          "name": "owner",
          "type": "address"
        },
        {
          "indexed": true,
          "internalType": "address",
          "name": "operator",
          "type": "address"
        },
        {
          "indexed": false,
          "internalType": "bool",
          "name": "approved",
          "type": "bool"
        }
      ],
      "name": "ApprovalForAll",
      "type": "event"
    },
    {
      "anonymous": false,
      "inputs": [
        {
          "indexed": false,
          "internalType": "uint256",
          "name": "tokenId",
          "type": "uint256"
        }
      ],
      "name": "Burn",
      "type": "event"
    },
    {
      "anonymous": false,
      "inputs": [
        {
          "indexed": false,
          "internalType": "uint8",
          "name": "version",
          "type": "uint8"
        }
      ],
      "name": "Initialized",
      "type": "event"
    },
    {
      "anonymous": false,
      "inputs": [
        {
          "indexed": false,
          "internalType": "address",
          "name": "owner",
          "type": "address"
        },
        {
          "indexed": false,
          "internalType": "uint256",
          "name": "tokenId",
          "type": "uint256"
        }
      ],
      "name": "Mint",
      "type": "event"
    },
    {
      "anonymous": false,
      "inputs": [
        {
          "indexed": true,
          "internalType": "address",
          "name": "previousOwner",
          "type": "address"
        },
        {
          "indexed": true,
          "internalType": "address",
          "name": "newOwner",
          "type": "address"
        }
      ],
      "name": "OwnershipTransferred",
      "type": "event"
    },
    {
      "anonymous": false,
      "inputs": [
        {
          "indexed": true,
          "internalType": "address",
          "name": "from",
          "type": "address"
        },
        {
          "indexed": true,
          "internalType": "address",
          "name": "to",
          "type": "address"
        },
        {
          "indexed": true,
          "internalType": "uint256",
          "name": "tokenId",
          "type": "uint256"
        }
      ],
      "name": "Transfer",
      "type": "event"
    },
    {
      "inputs": [
        {
          "internalType": "address",
          "name": "to",
          "type": "address"
        },
        {
          "internalType": "uint256",
          "name": "tokenId",
          "type": "uint256"
        }
      ],
      "name": "approve",
      "outputs": [],
      "stateMutability": "nonpayable",
      "type": "function"
    },
    {
      "inputs": [
        {
          "internalType": "address",
          "name": "owner",
          "type": "address"
        }
      ],
      "name": "balanceOf",
      "outputs": [
        {
          "internalType": "uint256",
          "name": "",
          "type": "uint256"
        }
      ],
      "stateMutability": "view",
      "type": "function"
    },
    {
      "inputs": [
        {
          "internalType": "uint256[]",
          "name": "tokenIds",
          "type": "uint256[]"
        }
      ],
      "name": "burn",
      "outputs": [],
      "stateMutability": "nonpayable",
      "type": "function"
    },
    {
      "inputs": [
        {
          "internalType": "uint256",
          "name": "tokenId",
          "type": "uint256"
        }
      ],
      "name": "getActiveState",
      "outputs": [
        {
          "internalType": "bool",
          "name": "",
          "type": "bool"
        }
      ],
      "stateMutability": "view",
      "type": "function"
    },
    {
      "inputs": [
        {
          "internalType": "uint256",
          "name": "tokenId",
          "type": "uint256"
        }
      ],
      "name": "getApproved",
      "outputs": [
        {
          "internalType": "address",
          "name": "",
          "type": "address"
        }
      ],
      "stateMutability": "view",
      "type": "function"
    },
    {
      "inputs": [],
      "name": "getCap",
      "outputs": [
        {
          "internalType": "uint256",
          "name": "",
          "type": "uint256"
        }
      ],
      "stateMutability": "view",
      "type": "function"
    },
    {
      "inputs": [
        {
          "internalType": "uint256[]",
          "name": "tokenIds",
          "type": "uint256[]"
        }
      ],
      "name": "getLPValue",
      "outputs": [
        {
          "internalType": "uint256",
          "name": "",
          "type": "uint256"
        }
      ],
      "stateMutability": "view",
      "type": "function"
    },
    {
      "inputs": [],
      "name": "getLTVBoost",
      "outputs": [
        {
          "internalType": "uint256",
          "name": "",
          "type": "uint256"
        }
      ],
      "stateMutability": "view",
      "type": "function"
    },
    {
      "inputs": [
        {
          "internalType": "uint256",
          "name": "amount",
          "type": "uint256"
        },
        {
          "internalType": "uint256",
          "name": "locktime",
          "type": "uint256"
        }
      ],
      "name": "getNativeTokenReward",
      "outputs": [
        {
          "internalType": "uint256",
          "name": "",
          "type": "uint256"
        }
      ],
      "stateMutability": "view",
      "type": "function"
    },
    {
      "inputs": [],
      "name": "getPrice",
      "outputs": [
        {
          "internalType": "uint256",
          "name": "",
          "type": "uint256"
        }
      ],
      "stateMutability": "view",
      "type": "function"
    },
    {
      "inputs": [
        {
          "internalType": "uint256",
          "name": "tokenId",
          "type": "uint256"
        }
      ],
      "name": "getUnlockTimestamp",
      "outputs": [
        {
          "internalType": "uint256",
          "name": "",
          "type": "uint256"
        }
      ],
      "stateMutability": "view",
      "type": "function"
    },
    {
      "inputs": [
        {
          "internalType": "contract IAddressesProvider",
          "name": "addressProvider",
          "type": "address"
        },
        {
          "internalType": "string",
          "name": "name",
          "type": "string"
        },
        {
          "internalType": "string",
          "name": "symbol",
          "type": "string"
        },
        {
          "internalType": "uint256",
          "name": "cap",
          "type": "uint256"
        },
        {
          "internalType": "uint256",
          "name": "price",
          "type": "uint256"
        },
        {
          "internalType": "uint256",
          "name": "ltvBoost",
          "type": "uint256"
        },
        {
          "internalType": "uint256",
          "name": "nativeTokenFactor",
          "type": "uint256"
        },
        {
          "internalType": "uint256",
          "name": "maxLocktime",
          "type": "uint256"
        },
        {
          "internalType": "uint256",
          "name": "minLocktime",
          "type": "uint256"
        },
        {
          "internalType": "address payable",
          "name": "devAddress",
          "type": "address"
        }
      ],
      "name": "initialize",
      "outputs": [],
      "stateMutability": "nonpayable",
      "type": "function"
    },
    {
      "inputs": [
        {
          "internalType": "address",
          "name": "owner",
          "type": "address"
        },
        {
          "internalType": "address",
          "name": "operator",
          "type": "address"
        }
      ],
      "name": "isApprovedForAll",
      "outputs": [
        {
          "internalType": "bool",
          "name": "",
          "type": "bool"
        }
      ],
      "stateMutability": "view",
      "type": "function"
    },
    {
      "inputs": [
        {
          "internalType": "uint256",
          "name": "locktime",
          "type": "uint256"
        },
        {
          "internalType": "string[]",
          "name": "uris",
          "type": "string[]"
        }
      ],
      "name": "mint",
      "outputs": [],
      "stateMutability": "payable",
      "type": "function"
    },
    {
      "inputs": [],
      "name": "mintCount",
      "outputs": [
        {
          "internalType": "uint256",
          "name": "",
          "type": "uint256"
        }
      ],
      "stateMutability": "view",
      "type": "function"
    },
    {
      "inputs": [],
      "name": "name",
      "outputs": [
        {
          "internalType": "string",
          "name": "",
          "type": "string"
        }
      ],
      "stateMutability": "view",
      "type": "function"
    },
    {
      "inputs": [],
      "name": "owner",
      "outputs": [
        {
          "internalType": "address",
          "name": "",
          "type": "address"
        }
      ],
      "stateMutability": "view",
      "type": "function"
    },
    {
      "inputs": [
        {
          "internalType": "uint256",
          "name": "tokenId",
          "type": "uint256"
        }
      ],
      "name": "ownerOf",
      "outputs": [
        {
          "internalType": "address",
          "name": "",
          "type": "address"
        }
      ],
      "stateMutability": "view",
      "type": "function"
    },
    {
      "inputs": [],
      "name": "renounceOwnership",
      "outputs": [],
      "stateMutability": "nonpayable",
      "type": "function"
    },
    {
      "inputs": [
        {
          "internalType": "address",
          "name": "from",
          "type": "address"
        },
        {
          "internalType": "address",
          "name": "to",
          "type": "address"
        },
        {
          "internalType": "uint256",
          "name": "tokenId",
          "type": "uint256"
        }
      ],
      "name": "safeTransferFrom",
      "outputs": [],
      "stateMutability": "nonpayable",
      "type": "function"
    },
    {
      "inputs": [
        {
          "internalType": "address",
          "name": "from",
          "type": "address"
        },
        {
          "internalType": "address",
          "name": "to",
          "type": "address"
        },
        {
          "internalType": "uint256",
          "name": "tokenId",
          "type": "uint256"
        },
        {
          "internalType": "bytes",
          "name": "data",
          "type": "bytes"
        }
      ],
      "name": "safeTransferFrom",
      "outputs": [],
      "stateMutability": "nonpayable",
      "type": "function"
    },
    {
      "inputs": [
        {
          "internalType": "uint256",
          "name": "tokenId",
          "type": "uint256"
        },
        {
          "internalType": "bool",
          "name": "newState",
          "type": "bool"
        }
      ],
      "name": "setActiveState",
      "outputs": [],
      "stateMutability": "nonpayable",
      "type": "function"
    },
    {
      "inputs": [
        {
          "internalType": "address",
          "name": "operator",
          "type": "address"
        },
        {
          "internalType": "bool",
          "name": "approved",
          "type": "bool"
        }
      ],
      "name": "setApprovalForAll",
      "outputs": [],
      "stateMutability": "nonpayable",
      "type": "function"
    },
    {
      "inputs": [
        {
          "internalType": "uint256",
          "name": "newLTVBoost",
          "type": "uint256"
        }
      ],
      "name": "setLTVBoost",
      "outputs": [],
      "stateMutability": "nonpayable",
      "type": "function"
    },
    {
      "inputs": [
        {
          "internalType": "address",
          "name": "pool",
          "type": "address"
        }
      ],
      "name": "setTradingPool",
      "outputs": [],
      "stateMutability": "nonpayable",
      "type": "function"
    },
    {
      "inputs": [
        {
          "internalType": "bytes4",
          "name": "interfaceId",
          "type": "bytes4"
        }
      ],
      "name": "supportsInterface",
      "outputs": [
        {
          "internalType": "bool",
          "name": "",
          "type": "bool"
        }
      ],
      "stateMutability": "view",
      "type": "function"
    },
    {
      "inputs": [],
      "name": "symbol",
      "outputs": [
        {
          "internalType": "string",
          "name": "",
          "type": "string"
        }
      ],
      "stateMutability": "view",
      "type": "function"
    },
    {
      "inputs": [
        {
          "internalType": "uint256",
          "name": "index",
          "type": "uint256"
        }
      ],
      "name": "tokenByIndex",
      "outputs": [
        {
          "internalType": "uint256",
          "name": "",
          "type": "uint256"
        }
      ],
      "stateMutability": "view",
      "type": "function"
    },
    {
      "inputs": [
        {
          "internalType": "address",
          "name": "owner",
          "type": "address"
        },
        {
          "internalType": "uint256",
          "name": "index",
          "type": "uint256"
        }
      ],
      "name": "tokenOfOwnerByIndex",
      "outputs": [
        {
          "internalType": "uint256",
          "name": "",
          "type": "uint256"
        }
      ],
      "stateMutability": "view",
      "type": "function"
    },
    {
      "inputs": [
        {
          "internalType": "uint256",
          "name": "tokenId",
          "type": "uint256"
        }
      ],
      "name": "tokenURI",
      "outputs": [
        {
          "internalType": "string",
          "name": "",
          "type": "string"
        }
      ],
      "stateMutability": "view",
      "type": "function"
    },
    {
      "inputs": [],
      "name": "totalSupply",
      "outputs": [
        {
          "internalType": "uint256",
          "name": "",
          "type": "uint256"
        }
      ],
      "stateMutability": "view",
      "type": "function"
    },
    {
      "inputs": [
        {
          "internalType": "address",
          "name": "from",
          "type": "address"
        },
        {
          "internalType": "address",
          "name": "to",
          "type": "address"
        },
        {
          "internalType": "uint256",
          "name": "tokenId",
          "type": "uint256"
        }
      ],
      "name": "transferFrom",
      "outputs": [],
      "stateMutability": "nonpayable",
      "type": "function"
    },
    {
      "inputs": [
        {
          "internalType": "address",
          "name": "newOwner",
          "type": "address"
        }
      ],
      "name": "transferOwnership",
      "outputs": [],
      "stateMutability": "nonpayable",
      "type": "function"
    },
    {
      "stateMutability": "payable",
      "type": "receive"
    }
  ],
  "bytecode": "0x60806040523480156200001157600080fd5b506200001c62000022565b620000e4565b600054610100900460ff16156200008f5760405162461bcd60e51b815260206004820152602760248201527f496e697469616c697a61626c653a20636f6e747261637420697320696e697469604482015266616c697a696e6760c81b606482015260840160405180910390fd5b60005460ff9081161015620000e2576000805460ff191660ff9081179091556040519081527f7f26b83ff96e1f2b6a682f133852f6798a09c465da95921460cefb38474024989060200160405180910390a15b565b613c7d80620000f46000396000f3fe6080604052600436106101f25760003560e01c806370a082311161010d57806398d5fdca116100a0578063c87b56dd1161006f578063c87b56dd14610571578063d482ef9b14610591578063e985e9c5146105b1578063ec399a27146105fa578063f2fde38b1461061a57600080fd5b806398d5fdca146104fb578063a22cb46514610511578063b80f55c914610531578063b88d4fde1461055157600080fd5b80638a34711d116100dc5780638a34711d146104935780638da5cb5b146104b357806395d89b41146104d15780639659867e146104e657600080fd5b806370a082311461042b57806370cda01a1461044b578063715018a61461046b5780638a1bbf861461048057600080fd5b80632f745c5911610185578063554d578d11610154578063554d578d146103ae5780635ca67d9b146103c45780636352211e146103da5780636de010a4146103fa57600080fd5b80632f745c591461032e578063310842f11461034e57806342842e0e1461036e5780634f6ccce71461038e57600080fd5b806318160ddd116101c157806318160ddd146102af57806323b872dd146102ce57806329d474e2146102ee57806329e558981461030e57600080fd5b806301ffc9a7146101fe57806306fdde0314610233578063081812fc14610255578063095ea7b31461028d57600080fd5b366101f957005b600080fd5b34801561020a57600080fd5b5061021e610219366004613169565b61063a565b60405190151581526020015b60405180910390f35b34801561023f57600080fd5b5061024861064b565b60405161022a91906131d6565b34801561026157600080fd5b506102756102703660046131e9565b6106dd565b6040516001600160a01b03909116815260200161022a565b34801561029957600080fd5b506102ad6102a8366004613217565b610704565b005b3480156102bb57600080fd5b506099545b60405190815260200161022a565b3480156102da57600080fd5b506102ad6102e9366004613243565b61081e565b3480156102fa57600080fd5b506102c06103093660046132ef565b61084f565b34801561031a57600080fd5b506102ad610329366004613393565b610935565b34801561033a57600080fd5b506102c0610349366004613217565b610a2e565b34801561035a57600080fd5b506102c06103693660046133c3565b610ac4565b34801561037a57600080fd5b506102ad610389366004613243565b610b3a565b34801561039a57600080fd5b506102c06103a93660046131e9565b610b55565b3480156103ba57600080fd5b50610160546102c0565b3480156103d057600080fd5b50610167546102c0565b3480156103e657600080fd5b506102756103f53660046131e9565b610be8565b34801561040657600080fd5b5061021e6104153660046131e9565b6000908152610169602052604090205460ff1690565b34801561043757600080fd5b506102c06104463660046133e5565b610c48565b34801561045757600080fd5b506102ad6104663660046133e5565b610cce565b34801561047757600080fd5b506102ad610cf9565b6102ad61048e36600461345a565b610d0d565b34801561049f57600080fd5b506102c06104ae3660046131e9565b6116be565b3480156104bf57600080fd5b5060fb546001600160a01b0316610275565b3480156104dd57600080fd5b506102486116de565b3480156104f257600080fd5b506102c06116ed565b34801561050757600080fd5b50610161546102c0565b34801561051d57600080fd5b506102ad61052c36600461352d565b61170a565b34801561053d57600080fd5b506102ad61054c3660046132ef565b611715565b34801561055d57600080fd5b506102ad61056c36600461355b565b611bd6565b34801561057d57600080fd5b5061024861058c3660046131e9565b611c0e565b34801561059d57600080fd5b506102ad6105ac366004613634565b611c19565b3480156105bd57600080fd5b5061021e6105cc366004613708565b6001600160a01b039182166000908152606a6020908152604080832093909416825291909152205460ff1690565b34801561060657600080fd5b506102ad6106153660046131e9565b611e51565b34801561062657600080fd5b506102ad6106353660046133e5565b611e5f565b600061064582611ed5565b92915050565b60606065805461065a90613736565b80601f016020809104026020016040519081016040528092919081815260200182805461068690613736565b80156106d35780601f106106a8576101008083540402835291602001916106d3565b820191906000526020600020905b8154815290600101906020018083116106b657829003601f168201915b5050505050905090565b60006106e882611efa565b506000908152606960205260409020546001600160a01b031690565b600061070f82610be8565b9050806001600160a01b0316836001600160a01b0316036107815760405162461bcd60e51b815260206004820152602160248201527f4552433732313a20617070726f76616c20746f2063757272656e74206f776e656044820152603960f91b60648201526084015b60405180910390fd5b336001600160a01b038216148061079d575061079d81336105cc565b61080f5760405162461bcd60e51b815260206004820152603d60248201527f4552433732313a20617070726f76652063616c6c6572206973206e6f7420746f60448201527f6b656e206f776e6572206f7220617070726f76656420666f7220616c6c0000006064820152608401610778565b6108198383611f59565b505050565b6108283382611fc7565b6108445760405162461bcd60e51b815260040161077890613770565b610819838383612046565b600080805b83518110156108ad5761016a6000858381518110610874576108746137bd565b60200260200101518152602001908152602001600020600201548261089991906137e9565b9150806108a5816137fc565b915050610854565b506101655460405163cc2b27d760e01b815260048101839052600160248201526002916001600160a01b03169063cc2b27d790604401602060405180830381865afa158015610900573d6000803e3d6000fd5b505050506040513d601f19601f820116820180604052508101906109249190613815565b61092e919061382e565b9392505050565b61015f60009054906101000a90046001600160a01b03166001600160a01b03166304d21cee6040518163ffffffff1660e01b8152600401602060405180830381865afa158015610989573d6000803e3d6000fd5b505050506040513d601f19601f820116820180604052508101906109ad9190613850565b6001600160a01b0316336001600160a01b031614610a0d5760405162461bcd60e51b815260206004820152601e60248201527f43616c6c6572206d757374206265204d61726b657420636f6e747261637400006044820152606401610778565b60009182526101696020526040909120805460ff1916911515919091179055565b6000610a3983610c48565b8210610a9b5760405162461bcd60e51b815260206004820152602b60248201527f455243373231456e756d657261626c653a206f776e657220696e646578206f7560448201526a74206f6620626f756e647360a81b6064820152608401610778565b506001600160a01b03919091166000908152609760209081526040808320938352929052205490565b600061016054610ad46101685490565b1115610ae257506000610645565b610164546002610af26101685490565b610afc919061382e565b61016054610b0a919061386d565b610b148486613880565b610b1e9190613880565b610b28919061382e565b61092e90670de0b6b3a7640000613880565b61081983838360405180602001604052806000815250611bd6565b6000610b6060995490565b8210610bc35760405162461bcd60e51b815260206004820152602c60248201527f455243373231456e756d657261626c653a20676c6f62616c20696e646578206f60448201526b7574206f6620626f756e647360a01b6064820152608401610778565b60998281548110610bd657610bd66137bd565b90600052602060002001549050919050565b6000818152606760205260408120546001600160a01b0316806106455760405162461bcd60e51b8152602060048201526018602482015277115490cdcc8c4e881a5b9d985b1a59081d1bdad95b88125160421b6044820152606401610778565b60006001600160a01b038216610cb25760405162461bcd60e51b815260206004820152602960248201527f4552433732313a2061646472657373207a65726f206973206e6f7420612076616044820152683634b21037bbb732b960b91b6064820152608401610778565b506001600160a01b031660009081526068602052604090205490565b610cd66121b7565b61016580546001600160a01b0319166001600160a01b0392909216919091179055565b610d016121b7565b610d0b6000612211565b565b610d15612263565b61016354821015610d685760405162461bcd60e51b815260206004820181905260248201527f4c6f636b74696d65206973206c6f776572207468616e207468726573686f6c646044820152606401610778565b61016254821115610dbb5760405162461bcd60e51b815260206004820152601d60248201527f4c6f636b74696d6520697320686967686572207468616e206c696d69740000006044820152606401610778565b610165546001600160a01b0316610e145760405162461bcd60e51b815260206004820152601d60248201527f496e63656e746976697a656420706f6f6c206973206e6f74207365742e0000006044820152606401610778565b61016054815161016854610e2891906137e9565b1115610e6d5760405162461bcd60e51b815260206004820152601460248201527313585e1a5b5d5b4818d85c08195e18d95959195960621b6044820152606401610778565b6000815161016154610e7f9190613880565b9050803414610ed05760405162461bcd60e51b815260206004820152601e60248201527f54782076616c7565206973206e6f7420657175616c20746f20707269636500006044820152606401610778565b60006003610edf836002613880565b610ee9919061382e565b9050600061016560009054906101000a90046001600160a01b03166001600160a01b03166314f059796040518163ffffffff1660e01b81526004016040805180830381865afa158015610f40573d6000803e3d6000fd5b505050506040513d601f19601f82011682018060405250810190610f649190613897565b80519091506000908103610f8557610f7e83613a98613880565b9050610fa3565b81516020830151610f969085613880565b610fa0919061382e565b90505b6000610fb0865188610ac4565b905061015f60009054906101000a90046001600160a01b03166001600160a01b03166315b9ba5d6040518163ffffffff1660e01b8152600401602060405180830381865afa158015611006573d6000803e3d6000fd5b505050506040513d601f19601f8201168201806040525081019061102a9190613850565b6001600160a01b0316630a8514c461104283856137e9565b6040518263ffffffff1660e01b815260040161106091815260200190565b600060405180830381600087803b15801561107a57600080fd5b505af115801561108e573d6000803e3d6000fd5b5050505061015f60009054906101000a90046001600160a01b03166001600160a01b03166315b9ba5d6040518163ffffffff1660e01b8152600401602060405180830381865afa1580156110e6573d6000803e3d6000fd5b505050506040513d601f19601f8201168201806040525081019061110a9190613850565b6101655460405163095ea7b360e01b81526001600160a01b0391821660048201526024810185905291169063095ea7b3906044016020604051808303816000875af115801561115d573d6000803e3d6000fd5b505050506040513d601f19601f820116820180604052508101906111819190613917565b5061016554604080518082018252868152602081018590529051630b4c7e4d60e01b81526000926001600160a01b031691630b4c7e4d9188916111c8918690600401613934565b60206040518083038185885af11580156111e6573d6000803e3d6000fd5b50505050506040513d601f19601f8201168201806040525081019061120b9190613815565b905061123c6040518060400160405280600d81526020016c4c5020616d6f756e743a20257360981b815250826122be565b61126e6040518060400160405280601081526020016f546f6b656e20616d6f756e743a20257360801b815250846122be565b61129e6040518060400160405280600e81526020016d45746820616d6f756e743a20257360901b815250866122be565b61015f60009054906101000a90046001600160a01b03166001600160a01b03166315b9ba5d6040518163ffffffff1660e01b8152600401602060405180830381865afa1580156112f2573d6000803e3d6000fd5b505050506040513d601f19601f820116820180604052508101906113169190613850565b6001600160a01b031663095ea7b361015f60009054906101000a90046001600160a01b03166001600160a01b03166308b0308a6040518163ffffffff1660e01b8152600401602060405180830381865afa158015611378573d6000803e3d6000fd5b505050506040513d601f19601f8201168201806040525081019061139c9190613850565b6040516001600160e01b031960e084901b1681526001600160a01b039091166004820152602481018590526044016020604051808303816000875af11580156113e9573d6000803e3d6000fd5b505050506040513d601f19601f8201168201806040525081019061140d9190613917565b5061015f60009054906101000a90046001600160a01b03166001600160a01b03166308b0308a6040518163ffffffff1660e01b8152600401602060405180830381865afa158015611462573d6000803e3d6000fd5b505050506040513d601f19601f820116820180604052508101906114869190613850565b6001600160a01b031663650e150533846114a08c426137e9565b6040516001600160e01b031960e086901b1681526001600160a01b03909316600484015260248301919091526044820152606401600060405180830381600087803b1580156114ee57600080fd5b505af1158015611502573d6000803e3d6000fd5b505061016654600092506001600160a01b03169050611521878961386d565b604051600081818185875af1925050503d806000811461155d576040519150601f19603f3d011682016040523d82523d6000602084013e611562565b606091505b50509050806115b35760405162461bcd60e51b815260206004820181905260248201527f4661696c656420746f2073656e6420457468657220746f206465762066756e646044820152606401610778565b6000805b89518110156116a6576101685491506115d03383612303565b6115f3828b83815181106115e6576115e66137bd565b602002602001015161231d565b60405180606001604052804281526020018c81526020018b5186611617919061382e565b9052600083815261016a60209081526040918290208351815590830151600182015591015160029091015561165161016880546001019055565b7f0f6798a560793a54c3bcfe86a93cde1e73087d944c0ea20544137d412139688533604080516001600160a01b039092168252602082018590520160405180910390a18061169e816137fc565b9150506115b7565b5050505050505050506116ba600161012d55565b5050565b600081815261016a602052604081206001810154905461064591906137e9565b60606066805461065a90613736565b600060016116fb6101685490565b611705919061386d565b905090565b6116ba3383836123b0565b61171d612263565b6000805b82518110156118ca5761174c83828151811061173f5761173f6137bd565b6020026020010151610be8565b6001600160a01b0316336001600160a01b03161461179d5760405162461bcd60e51b815260206004820152600e60248201526d26bab9ba1037bbb7103a37b5b2b760911b6044820152606401610778565b6117bf8382815181106117b2576117b26137bd565b60200260200101516116be565b4210156118065760405162461bcd60e51b8152602060048201526015602482015274151bdad95b881a5cc81cdd1a5b1b081b1bd8dad959605a1b6044820152606401610778565b61016a600084838151811061181d5761181d6137bd565b60200260200101518152602001908152602001600020600201548261184291906137e9565b9150611866838281518110611859576118596137bd565b602002602001015161247e565b7fb90306ad06b2a6ff86ddc9327db583062895ef6540e62dc50add009db5b356eb838281518110611899576118996137bd565b60200260200101516040516118b091815260200190565b60405180910390a1806118c2816137fc565b915050611721565b5060408051808201909152600c81526b17dd1c98591a5b99d41bdbdb60a21b60208201526101655461190591906001600160a01b0316612487565b6119326040518060400160405280600b81526020016a6c70416d6f756e7453756d60a81b815250826122be565b61016554604051630d2680e960e11b81526004810183905260016024820152600060448201819052916001600160a01b031690631a4d01d2906064016020604051808303816000875af115801561198d573d6000803e3d6000fd5b505050506040513d601f19601f820116820180604052508101906119b19190613815565b90506119e36040518060400160405280600e81526020016d1dda5d1a191c985dd05b5bdd5b9d60921b815250826122be565b61015f60009054906101000a90046001600160a01b03166001600160a01b03166315b9ba5d6040518163ffffffff1660e01b8152600401602060405180830381865afa158015611a37573d6000803e3d6000fd5b505050506040513d601f19601f82011682018060405250810190611a5b9190613850565b6001600160a01b03166350666e31611a7460028461382e565b6040518263ffffffff1660e01b8152600401611a9291815260200190565b600060405180830381600087803b158015611aac57600080fd5b505af1158015611ac0573d6000803e3d6000fd5b5050505061015f60009054906101000a90046001600160a01b03166001600160a01b03166315b9ba5d6040518163ffffffff1660e01b8152600401602060405180830381865afa158015611b18573d6000803e3d6000fd5b505050506040513d601f19601f82011682018060405250810190611b3c9190613850565b6001600160a01b031663a9059cbb33611b5660028561382e565b6040516001600160e01b031960e085901b1681526001600160a01b03909216600483015260248201526044016020604051808303816000875af1158015611ba1573d6000803e3d6000fd5b505050506040513d601f19601f82011682018060405250810190611bc59190613917565b505050611bd3600161012d55565b50565b611be03383611fc7565b611bfc5760405162461bcd60e51b815260040161077890613770565b611c08848484846124cc565b50505050565b6060610645826124ff565b600054610100900460ff1615808015611c395750600054600160ff909116105b80611c535750303b158015611c53575060005460ff166001145b611cb65760405162461bcd60e51b815260206004820152602e60248201527f496e697469616c697a61626c653a20636f6e747261637420697320616c72656160448201526d191e481a5b9a5d1a585b1a5e995960921b6064820152608401610778565b6000805460ff191660011790558015611cd9576000805461ff0019166101001790555b611ce1612616565b611ce961263d565b611d6d8c8c8080601f016020809104026020016040519081016040528093929190818152602001838380828437600081840152601f19601f820116905080830192505050505050508b8b8080601f01602080910402602001604051908101604052809392919081815260200183838082843760009201919091525061266c92505050565b8c61015f60006101000a8154816001600160a01b0302191690836001600160a01b031602179055508761016081905550866101618190555085610167819055508461016481905550836101628190555082610163819055508161016660006101000a8154816001600160a01b0302191690836001600160a01b03160217905550611dfc61016880546001019055565b8015611e42576000805461ff0019169055604051600181527f7f26b83ff96e1f2b6a682f133852f6798a09c465da95921460cefb38474024989060200160405180910390a15b50505050505050505050505050565b611e596121b7565b61016755565b611e676121b7565b6001600160a01b038116611ecc5760405162461bcd60e51b815260206004820152602660248201527f4f776e61626c653a206e6577206f776e657220697320746865207a65726f206160448201526564647265737360d01b6064820152608401610778565b611bd381612211565b60006001600160e01b0319821663780e9d6360e01b148061064557506106458261269d565b6000818152606760205260409020546001600160a01b0316611bd35760405162461bcd60e51b8152602060048201526018602482015277115490cdcc8c4e881a5b9d985b1a59081d1bdad95b88125160421b6044820152606401610778565b600081815260696020526040902080546001600160a01b0319166001600160a01b0384169081179091558190611f8e82610be8565b6001600160a01b03167f8c5be1e5ebec7d5bd14f71427d1e84f3dd0314c0f7b2291e5b200ac8c7c3b92560405160405180910390a45050565b600080611fd383610be8565b9050806001600160a01b0316846001600160a01b0316148061201a57506001600160a01b038082166000908152606a602090815260408083209388168352929052205460ff165b8061203e5750836001600160a01b0316612033846106dd565b6001600160a01b0316145b949350505050565b826001600160a01b031661205982610be8565b6001600160a01b03161461207f5760405162461bcd60e51b81526004016107789061396c565b6001600160a01b0382166120e15760405162461bcd60e51b8152602060048201526024808201527f4552433732313a207472616e7366657220746f20746865207a65726f206164646044820152637265737360e01b6064820152608401610778565b6120ee83838360016126ed565b826001600160a01b031661210182610be8565b6001600160a01b0316146121275760405162461bcd60e51b81526004016107789061396c565b600081815260696020908152604080832080546001600160a01b03199081169091556001600160a01b0387811680865260688552838620805460001901905590871680865283862080546001019055868652606790945282852080549092168417909155905184937fddf252ad1be2c89b69c2b068fc378daa952ba7f163c4a11628f55a4df523b3ef91a4505050565b60fb546001600160a01b03163314610d0b5760405162461bcd60e51b815260206004820181905260248201527f4f776e61626c653a2063616c6c6572206973206e6f7420746865206f776e65726044820152606401610778565b60fb80546001600160a01b038381166001600160a01b0319831681179093556040519116919082907f8be0079c531659141344cd1fd0a4f28419497f9722a3daafe3b4186f6b6457e090600090a35050565b600261012d54036122b65760405162461bcd60e51b815260206004820152601f60248201527f5265656e7472616e637947756172643a207265656e7472616e742063616c6c006044820152606401610778565b600261012d55565b6116ba82826040516024016122d49291906139b1565b60408051601f198184030181529190526020810180516001600160e01b0316632d839cb360e21b17905261277f565b6116ba8282604051806020016040528060008152506127a0565b6000828152606760205260409020546001600160a01b03166123985760405162461bcd60e51b815260206004820152602e60248201527f45524337323155524953746f726167653a2055524920736574206f66206e6f6e60448201526d32bc34b9ba32b73a103a37b5b2b760911b6064820152608401610778565b600082815260c9602052604090206108198282613a21565b816001600160a01b0316836001600160a01b0316036124115760405162461bcd60e51b815260206004820152601960248201527f4552433732313a20617070726f766520746f2063616c6c6572000000000000006044820152606401610778565b6001600160a01b038381166000818152606a6020908152604080832094871680845294825291829020805460ff191686151590811790915591519182527f17307eab39ab6107e8899845ad3d59bd9653f200f220920489ca2b5937696c31910160405180910390a3505050565b611bd3816127d3565b6116ba828260405160240161249d929190613ae1565b60408051601f198184030181529190526020810180516001600160e01b031663319af33360e01b17905261277f565b6124d7848484612046565b6124e384848484612813565b611c085760405162461bcd60e51b815260040161077890613b0b565b606061250a82611efa565b600082815260c960205260408120805461252390613736565b80601f016020809104026020016040519081016040528092919081815260200182805461254f90613736565b801561259c5780601f106125715761010080835404028352916020019161259c565b820191906000526020600020905b81548152906001019060200180831161257f57829003601f168201915b5050505050905060006125c9604080518082019091526007815266697066733a2f2f60c81b602082015290565b905080516000036125db575092915050565b81511561260d5780826040516020016125f5929190613b5d565b60405160208183030381529060405292505050919050565b61203e84612914565b600054610100900460ff16610d0b5760405162461bcd60e51b815260040161077890613b8c565b600054610100900460ff166126645760405162461bcd60e51b815260040161077890613b8c565b610d0b612996565b600054610100900460ff166126935760405162461bcd60e51b815260040161077890613b8c565b6116ba82826129c6565b60006001600160e01b031982166380ac58cd60e01b14806126ce57506001600160e01b03198216635b5e139f60e01b145b8061064557506301ffc9a760e01b6001600160e01b0319831614610645565b6000828152610169602052604090205460ff16156127735760405162461bcd60e51b815260206004820152603a60248201527f43616e6e6f74207472616e7366657220746f6b656e202d2063757272656e746c60448201527f79206c6f636b656420696e20616e20616374697665206c6f616e0000000000006064820152608401610778565b611c0884848484612a06565b80516a636f6e736f6c652e6c6f67602083016000808483855afa5050505050565b6127aa8383612b46565b6127b76000848484612813565b6108195760405162461bcd60e51b815260040161077890613b0b565b6127dc81612cdf565b600081815260c96020526040902080546127f590613736565b159050611bd357600081815260c960205260408120611bd391613105565b60006001600160a01b0384163b1561290957604051630a85bd0160e11b81526001600160a01b0385169063150b7a0290612857903390899088908890600401613bd7565b6020604051808303816000875af1925050508015612892575060408051601f3d908101601f1916820190925261288f91810190613c14565b60015b6128ef573d8080156128c0576040519150601f19603f3d011682016040523d82523d6000602084013e6128c5565b606091505b5080516000036128e75760405162461bcd60e51b815260040161077890613b0b565b805181602001fd5b6001600160e01b031916630a85bd0160e11b14905061203e565b506001949350505050565b606061291f82611efa565b6000612945604080518082019091526007815266697066733a2f2f60c81b602082015290565b90506000815111612965576040518060200160405280600081525061092e565b8061296f84612d82565b604051602001612980929190613b5d565b6040516020818303038152906040529392505050565b600054610100900460ff166129bd5760405162461bcd60e51b815260040161077890613b8c565b610d0b33612211565b600054610100900460ff166129ed5760405162461bcd60e51b815260040161077890613b8c565b60656129f98382613a21565b5060666108198282613a21565b612a1284848484612e15565b6001811115612a815760405162461bcd60e51b815260206004820152603560248201527f455243373231456e756d657261626c653a20636f6e7365637574697665207472604482015274185b9cd9995c9cc81b9bdd081cdd5c1c1bdc9d1959605a1b6064820152608401610778565b816001600160a01b038516612add57612ad881609980546000838152609a60205260408120829055600182018355919091527f72a152ddfb8e864297c917af52ea6c1c68aead0fee1a62673fcc7e0c94979d000155565b612b00565b836001600160a01b0316856001600160a01b031614612b0057612b008582612e9d565b6001600160a01b038416612b1c57612b1781612f3a565b612b3f565b846001600160a01b0316846001600160a01b031614612b3f57612b3f8482612fe9565b5050505050565b6001600160a01b038216612b9c5760405162461bcd60e51b815260206004820181905260248201527f4552433732313a206d696e7420746f20746865207a65726f20616464726573736044820152606401610778565b6000818152606760205260409020546001600160a01b031615612c015760405162461bcd60e51b815260206004820152601c60248201527f4552433732313a20746f6b656e20616c7265616479206d696e746564000000006044820152606401610778565b612c0f6000838360016126ed565b6000818152606760205260409020546001600160a01b031615612c745760405162461bcd60e51b815260206004820152601c60248201527f4552433732313a20746f6b656e20616c7265616479206d696e746564000000006044820152606401610778565b6001600160a01b038216600081815260686020908152604080832080546001019055848352606790915280822080546001600160a01b0319168417905551839291907fddf252ad1be2c89b69c2b068fc378daa952ba7f163c4a11628f55a4df523b3ef908290a45050565b6000612cea82610be8565b9050612cfa8160008460016126ed565b612d0382610be8565b600083815260696020908152604080832080546001600160a01b03199081169091556001600160a01b0385168085526068845282852080546000190190558785526067909352818420805490911690555192935084927fddf252ad1be2c89b69c2b068fc378daa952ba7f163c4a11628f55a4df523b3ef908390a45050565b60606000612d8f8361302d565b600101905060008167ffffffffffffffff811115612daf57612daf613284565b6040519080825280601f01601f191660200182016040528015612dd9576020820181803683370190505b5090508181016020015b600019016f181899199a1a9b1b9c1cb0b131b232b360811b600a86061a8153600a8504945084612de357509392505050565b6001811115611c08576001600160a01b03841615612e5b576001600160a01b03841660009081526068602052604081208054839290612e5590849061386d565b90915550505b6001600160a01b03831615611c08576001600160a01b03831660009081526068602052604081208054839290612e929084906137e9565b909155505050505050565b60006001612eaa84610c48565b612eb4919061386d565b600083815260986020526040902054909150808214612f07576001600160a01b03841660009081526097602090815260408083208584528252808320548484528184208190558352609890915290208190555b5060009182526098602090815260408084208490556001600160a01b039094168352609781528383209183525290812055565b609954600090612f4c9060019061386d565b6000838152609a602052604081205460998054939450909284908110612f7457612f746137bd565b906000526020600020015490508060998381548110612f9557612f956137bd565b6000918252602080832090910192909255828152609a90915260408082208490558582528120556099805480612fcd57612fcd613c31565b6001900381819060005260206000200160009055905550505050565b6000612ff483610c48565b6001600160a01b039093166000908152609760209081526040808320868452825280832085905593825260989052919091209190915550565b60008072184f03e93ff9f4daa797ed6e38ed64bf6a1f0160401b831061306c5772184f03e93ff9f4daa797ed6e38ed64bf6a1f0160401b830492506040015b6d04ee2d6d415b85acef81000000008310613098576d04ee2d6d415b85acef8100000000830492506020015b662386f26fc1000083106130b657662386f26fc10000830492506010015b6305f5e10083106130ce576305f5e100830492506008015b61271083106130e257612710830492506004015b606483106130f4576064830492506002015b600a83106106455760010192915050565b50805461311190613736565b6000825580601f10613121575050565b601f016020900490600052602060002090810190611bd391905b8082111561314f576000815560010161313b565b5090565b6001600160e01b031981168114611bd357600080fd5b60006020828403121561317b57600080fd5b813561092e81613153565b60005b838110156131a1578181015183820152602001613189565b50506000910152565b600081518084526131c2816020860160208601613186565b601f01601f19169290920160200192915050565b60208152600061092e60208301846131aa565b6000602082840312156131fb57600080fd5b5035919050565b6001600160a01b0381168114611bd357600080fd5b6000806040838503121561322a57600080fd5b823561323581613202565b946020939093013593505050565b60008060006060848603121561325857600080fd5b833561326381613202565b9250602084013561327381613202565b929592945050506040919091013590565b634e487b7160e01b600052604160045260246000fd5b604051601f8201601f1916810167ffffffffffffffff811182821017156132c3576132c3613284565b604052919050565b600067ffffffffffffffff8211156132e5576132e5613284565b5060051b60200190565b6000602080838503121561330257600080fd5b823567ffffffffffffffff81111561331957600080fd5b8301601f8101851361332a57600080fd5b803561333d613338826132cb565b61329a565b81815260059190911b8201830190838101908783111561335c57600080fd5b928401925b8284101561337a57833582529284019290840190613361565b979650505050505050565b8015158114611bd357600080fd5b600080604083850312156133a657600080fd5b8235915060208301356133b881613385565b809150509250929050565b600080604083850312156133d657600080fd5b50508035926020909101359150565b6000602082840312156133f757600080fd5b813561092e81613202565b600067ffffffffffffffff83111561341c5761341c613284565b61342f601f8401601f191660200161329a565b905082815283838301111561344357600080fd5b828260208301376000602084830101529392505050565b600080604080848603121561346e57600080fd5b8335925060208085013567ffffffffffffffff8082111561348e57600080fd5b818701915087601f8301126134a257600080fd5b81356134b0613338826132cb565b81815260059190911b8301840190848101908a8311156134cf57600080fd5b8585015b8381101561351b578035858111156134eb5760008081fd5b8601603f81018d136134fd5760008081fd5b61350d8d898301358b8401613402565b8452509186019186016134d3565b50809750505050505050509250929050565b6000806040838503121561354057600080fd5b823561354b81613202565b915060208301356133b881613385565b6000806000806080858703121561357157600080fd5b843561357c81613202565b9350602085013561358c81613202565b925060408501359150606085013567ffffffffffffffff8111156135af57600080fd5b8501601f810187136135c057600080fd5b6135cf87823560208401613402565b91505092959194509250565b80356135e681613202565b919050565b60008083601f8401126135fd57600080fd5b50813567ffffffffffffffff81111561361557600080fd5b60208301915083602082850101111561362d57600080fd5b9250929050565b6000806000806000806000806000806000806101408d8f03121561365757600080fd5b6136608d6135db565b9b5067ffffffffffffffff60208e0135111561367b57600080fd5b61368b8e60208f01358f016135eb565b909b50995067ffffffffffffffff60408e013511156136a957600080fd5b6136b98e60408f01358f016135eb565b909950975060608d0135965060808d0135955060a08d0135945060c08d0135935060e08d013592506101008d013591506136f66101208e016135db565b90509295989b509295989b509295989b565b6000806040838503121561371b57600080fd5b823561372681613202565b915060208301356133b881613202565b600181811c9082168061374a57607f821691505b60208210810361376a57634e487b7160e01b600052602260045260246000fd5b50919050565b6020808252602d908201527f4552433732313a2063616c6c6572206973206e6f7420746f6b656e206f776e6560408201526c1c881bdc88185c1c1c9bdd9959609a1b606082015260800190565b634e487b7160e01b600052603260045260246000fd5b634e487b7160e01b600052601160045260246000fd5b80820180821115610645576106456137d3565b60006001820161380e5761380e6137d3565b5060010190565b60006020828403121561382757600080fd5b5051919050565b60008261384b57634e487b7160e01b600052601260045260246000fd5b500490565b60006020828403121561386257600080fd5b815161092e81613202565b81810381811115610645576106456137d3565b8082028115828204841417610645576106456137d3565b6000604082840312156138a957600080fd5b82601f8301126138b857600080fd5b6040516040810181811067ffffffffffffffff821117156138db576138db613284565b80604052508060408401858111156138f257600080fd5b845b8181101561390c5780518352602092830192016138f4565b509195945050505050565b60006020828403121561392957600080fd5b815161092e81613385565b60608101818460005b600281101561395c57815183526020928301929091019060010161393d565b5050508260408301529392505050565b60208082526025908201527f4552433732313a207472616e736665722066726f6d20696e636f72726563742060408201526437bbb732b960d91b606082015260800190565b6040815260006139c460408301856131aa565b90508260208301529392505050565b601f82111561081957600081815260208120601f850160051c810160208610156139fa5750805b601f850160051c820191505b81811015613a1957828155600101613a06565b505050505050565b815167ffffffffffffffff811115613a3b57613a3b613284565b613a4f81613a498454613736565b846139d3565b602080601f831160018114613a845760008415613a6c5750858301515b600019600386901b1c1916600185901b178555613a19565b600085815260208120601f198616915b82811015613ab357888601518255948401946001909101908401613a94565b5085821015613ad15787850151600019600388901b60f8161c191681555b5050505050600190811b01905550565b604081526000613af460408301856131aa565b905060018060a01b03831660208301529392505050565b60208082526032908201527f4552433732313a207472616e7366657220746f206e6f6e20455243373231526560408201527131b2b4bb32b91034b6b83632b6b2b73a32b960711b606082015260800190565b60008351613b6f818460208801613186565b835190830190613b83818360208801613186565b01949350505050565b6020808252602b908201527f496e697469616c697a61626c653a20636f6e7472616374206973206e6f74206960408201526a6e697469616c697a696e6760a81b606082015260800190565b6001600160a01b0385811682528416602082015260408101839052608060608201819052600090613c0a908301846131aa565b9695505050505050565b600060208284031215613c2657600080fd5b815161092e81613153565b634e487b7160e01b600052603160045260246000fdfea2646970667358221220fc200c259196ed4ce50cd9d456e0d9f1e24cf035363bd05ecbf1c777c2c5afc064736f6c63430008110033",
  "linkReferences": {},
  "deployedLinkReferences": {}
}