{
  "_format": "hh-sol-artifact-1",
  "contractName": "GenesisNFT",
  "sourceName": "contracts/protocol/GenesisNFT.sol",
  "abi": [
    {
      "inputs": [],
      "stateMutability": "nonpayable",
      "type": "constructor"
    },
    {
      "anonymous": false,
      "inputs": [
        {
          "indexed": true,
          "internalType": "address",
          "name": "owner",
          "type": "address"
        },
        {
          "indexed": true,
          "internalType": "address",
          "name": "approved",
          "type": "address"
        },
        {
          "indexed": true,
          "internalType": "uint256",
          "name": "tokenId",
          "type": "uint256"
        }
      ],
      "name": "Approval",
      "type": "event"
    },
    {
      "anonymous": false,
      "inputs": [
        {
          "indexed": true,
          "internalType": "address",
          "name": "owner",
          "type": "address"
        },
        {
          "indexed": true,
          "internalType": "address",
          "name": "operator",
          "type": "address"
        },
        {
          "indexed": false,
          "internalType": "bool",
          "name": "approved",
          "type": "bool"
        }
      ],
      "name": "ApprovalForAll",
      "type": "event"
    },
    {
      "anonymous": false,
      "inputs": [
        {
          "indexed": false,
          "internalType": "uint256",
          "name": "tokenId",
          "type": "uint256"
        }
      ],
      "name": "Burn",
      "type": "event"
    },
    {
      "anonymous": false,
      "inputs": [
        {
          "indexed": false,
          "internalType": "uint8",
          "name": "version",
          "type": "uint8"
        }
      ],
      "name": "Initialized",
      "type": "event"
    },
    {
      "anonymous": false,
      "inputs": [
        {
          "indexed": false,
          "internalType": "address",
          "name": "owner",
          "type": "address"
        },
        {
          "indexed": false,
          "internalType": "uint256",
          "name": "tokenId",
          "type": "uint256"
        }
      ],
      "name": "Mint",
      "type": "event"
    },
    {
      "anonymous": false,
      "inputs": [
        {
          "indexed": true,
          "internalType": "address",
          "name": "previousOwner",
          "type": "address"
        },
        {
          "indexed": true,
          "internalType": "address",
          "name": "newOwner",
          "type": "address"
        }
      ],
      "name": "OwnershipTransferred",
      "type": "event"
    },
    {
      "anonymous": false,
      "inputs": [
        {
          "indexed": true,
          "internalType": "address",
          "name": "from",
          "type": "address"
        },
        {
          "indexed": true,
          "internalType": "address",
          "name": "to",
          "type": "address"
        },
        {
          "indexed": true,
          "internalType": "uint256",
          "name": "tokenId",
          "type": "uint256"
        }
      ],
      "name": "Transfer",
      "type": "event"
    },
    {
      "inputs": [
        {
          "internalType": "address",
          "name": "to",
          "type": "address"
        },
        {
          "internalType": "uint256",
          "name": "tokenId",
          "type": "uint256"
        }
      ],
      "name": "approve",
      "outputs": [],
      "stateMutability": "nonpayable",
      "type": "function"
    },
    {
      "inputs": [
        {
          "internalType": "address",
          "name": "owner",
          "type": "address"
        }
      ],
      "name": "balanceOf",
      "outputs": [
        {
          "internalType": "uint256",
          "name": "",
          "type": "uint256"
        }
      ],
      "stateMutability": "view",
      "type": "function"
    },
    {
      "inputs": [
        {
          "internalType": "uint256[]",
          "name": "tokenIds",
          "type": "uint256[]"
        }
      ],
      "name": "burn",
      "outputs": [],
      "stateMutability": "nonpayable",
      "type": "function"
    },
    {
      "inputs": [
        {
          "internalType": "uint256",
          "name": "tokenId",
          "type": "uint256"
        }
      ],
      "name": "getApproved",
      "outputs": [
        {
          "internalType": "address",
          "name": "",
          "type": "address"
        }
      ],
      "stateMutability": "view",
      "type": "function"
    },
    {
      "inputs": [],
      "name": "getCap",
      "outputs": [
        {
          "internalType": "uint256",
          "name": "",
          "type": "uint256"
        }
      ],
      "stateMutability": "view",
      "type": "function"
    },
    {
      "inputs": [
        {
          "internalType": "uint256",
          "name": "amount",
          "type": "uint256"
        },
        {
          "internalType": "uint256",
          "name": "locktime",
          "type": "uint256"
        }
      ],
      "name": "getCurrentLEReward",
      "outputs": [
        {
          "internalType": "uint256",
          "name": "",
          "type": "uint256"
        }
      ],
      "stateMutability": "view",
      "type": "function"
    },
    {
      "inputs": [
        {
          "internalType": "uint256[]",
          "name": "tokenIds",
          "type": "uint256[]"
        }
      ],
      "name": "getLPValueInLE",
      "outputs": [
        {
          "internalType": "uint256",
          "name": "",
          "type": "uint256"
        }
      ],
      "stateMutability": "nonpayable",
      "type": "function"
    },
    {
      "inputs": [
        {
          "internalType": "uint256",
          "name": "tokenId",
          "type": "uint256"
        }
      ],
      "name": "getLockedState",
      "outputs": [
        {
          "internalType": "bool",
          "name": "",
          "type": "bool"
        }
      ],
      "stateMutability": "view",
      "type": "function"
    },
    {
      "inputs": [],
      "name": "getMaxLTVBoost",
      "outputs": [
        {
          "internalType": "uint256",
          "name": "",
          "type": "uint256"
        }
      ],
      "stateMutability": "view",
      "type": "function"
    },
    {
      "inputs": [],
      "name": "getPrice",
      "outputs": [
        {
          "internalType": "uint256",
          "name": "",
          "type": "uint256"
        }
      ],
      "stateMutability": "view",
      "type": "function"
    },
    {
      "inputs": [
        {
          "internalType": "uint256",
          "name": "tokenId",
          "type": "uint256"
        }
      ],
      "name": "getUnlockTimestamp",
      "outputs": [
        {
          "internalType": "uint256",
          "name": "",
          "type": "uint256"
        }
      ],
      "stateMutability": "view",
      "type": "function"
    },
    {
      "inputs": [
        {
          "internalType": "contract IAddressProvider",
          "name": "AddressProvider",
          "type": "address"
        },
        {
          "internalType": "string",
          "name": "name",
          "type": "string"
        },
        {
          "internalType": "string",
          "name": "symbol",
          "type": "string"
        },
        {
          "internalType": "uint256",
          "name": "cap",
          "type": "uint256"
        },
        {
          "internalType": "uint256",
          "name": "price",
          "type": "uint256"
        },
        {
          "internalType": "uint256",
          "name": "maxLTVBoost",
          "type": "uint256"
        },
        {
          "internalType": "uint256",
          "name": "nativeTokenFactor",
          "type": "uint256"
        },
        {
          "internalType": "uint256",
          "name": "maxLocktime",
          "type": "uint256"
        },
        {
          "internalType": "uint256",
          "name": "minLocktime",
          "type": "uint256"
        },
        {
          "internalType": "address payable",
          "name": "devAddress",
          "type": "address"
        }
      ],
      "name": "initialize",
      "outputs": [],
      "stateMutability": "nonpayable",
      "type": "function"
    },
    {
      "inputs": [
        {
          "internalType": "address",
          "name": "owner",
          "type": "address"
        },
        {
          "internalType": "address",
          "name": "operator",
          "type": "address"
        }
      ],
      "name": "isApprovedForAll",
      "outputs": [
        {
          "internalType": "bool",
          "name": "",
          "type": "bool"
        }
      ],
      "stateMutability": "view",
      "type": "function"
    },
    {
      "inputs": [
        {
          "internalType": "address",
          "name": "owner",
          "type": "address"
        },
        {
          "internalType": "address",
          "name": "operator",
          "type": "address"
        }
      ],
      "name": "isLoanOperatorApproved",
      "outputs": [
        {
          "internalType": "bool",
          "name": "",
          "type": "bool"
        }
      ],
      "stateMutability": "view",
      "type": "function"
    },
    {
      "inputs": [
        {
          "internalType": "uint256",
          "name": "locktime",
          "type": "uint256"
        },
        {
          "internalType": "uint256",
          "name": "amount",
          "type": "uint256"
        }
      ],
      "name": "mint",
      "outputs": [],
      "stateMutability": "payable",
      "type": "function"
    },
    {
      "inputs": [],
      "name": "mintCount",
      "outputs": [
        {
          "internalType": "uint256",
          "name": "",
          "type": "uint256"
        }
      ],
      "stateMutability": "view",
      "type": "function"
    },
    {
      "inputs": [],
      "name": "name",
      "outputs": [
        {
          "internalType": "string",
          "name": "",
          "type": "string"
        }
      ],
      "stateMutability": "view",
      "type": "function"
    },
    {
      "inputs": [],
      "name": "owner",
      "outputs": [
        {
          "internalType": "address",
          "name": "",
          "type": "address"
        }
      ],
      "stateMutability": "view",
      "type": "function"
    },
    {
      "inputs": [
        {
          "internalType": "uint256",
          "name": "tokenId",
          "type": "uint256"
        }
      ],
      "name": "ownerOf",
      "outputs": [
        {
          "internalType": "address",
          "name": "",
          "type": "address"
        }
      ],
      "stateMutability": "view",
      "type": "function"
    },
    {
      "inputs": [],
      "name": "renounceOwnership",
      "outputs": [],
      "stateMutability": "nonpayable",
      "type": "function"
    },
    {
      "inputs": [
        {
          "internalType": "address",
          "name": "from",
          "type": "address"
        },
        {
          "internalType": "address",
          "name": "to",
          "type": "address"
        },
        {
          "internalType": "uint256",
          "name": "tokenId",
          "type": "uint256"
        }
      ],
      "name": "safeTransferFrom",
      "outputs": [],
      "stateMutability": "nonpayable",
      "type": "function"
    },
    {
      "inputs": [
        {
          "internalType": "address",
          "name": "from",
          "type": "address"
        },
        {
          "internalType": "address",
          "name": "to",
          "type": "address"
        },
        {
          "internalType": "uint256",
          "name": "tokenId",
          "type": "uint256"
        },
        {
          "internalType": "bytes",
          "name": "data",
          "type": "bytes"
        }
      ],
      "name": "safeTransferFrom",
      "outputs": [],
      "stateMutability": "nonpayable",
      "type": "function"
    },
    {
      "inputs": [
        {
          "internalType": "address",
          "name": "operator",
          "type": "address"
        },
        {
          "internalType": "bool",
          "name": "approved",
          "type": "bool"
        }
      ],
      "name": "setApprovalForAll",
      "outputs": [],
      "stateMutability": "nonpayable",
      "type": "function"
    },
    {
      "inputs": [
        {
          "components": [
            {
              "internalType": "bytes32",
              "name": "poolId",
              "type": "bytes32"
            },
            {
              "internalType": "address",
              "name": "pool",
              "type": "address"
            },
            {
              "internalType": "address",
              "name": "vault",
              "type": "address"
            },
            {
              "internalType": "address",
              "name": "queries",
              "type": "address"
            }
          ],
          "internalType": "struct DataTypes.BalancerDetails",
          "name": "balancerDetails",
          "type": "tuple"
        }
      ],
      "name": "setBalancerDetails",
      "outputs": [],
      "stateMutability": "nonpayable",
      "type": "function"
    },
    {
      "inputs": [
        {
          "internalType": "address",
          "name": "operator",
          "type": "address"
        },
        {
          "internalType": "bool",
          "name": "approved",
          "type": "bool"
        }
      ],
      "name": "setLoanOperatorApproval",
      "outputs": [],
      "stateMutability": "nonpayable",
      "type": "function"
    },
    {
      "inputs": [
        {
          "internalType": "uint256",
          "name": "tokenId",
          "type": "uint256"
        },
        {
          "internalType": "bool",
          "name": "newState",
          "type": "bool"
        }
      ],
      "name": "setLockedState",
      "outputs": [],
      "stateMutability": "nonpayable",
      "type": "function"
    },
    {
      "inputs": [
        {
          "internalType": "uint256",
          "name": "newMaxLTVBoost",
          "type": "uint256"
        }
      ],
      "name": "setMaxLTVBoost",
      "outputs": [],
      "stateMutability": "nonpayable",
      "type": "function"
    },
    {
      "inputs": [
        {
          "internalType": "bytes4",
          "name": "interfaceId",
          "type": "bytes4"
        }
      ],
      "name": "supportsInterface",
      "outputs": [
        {
          "internalType": "bool",
          "name": "",
          "type": "bool"
        }
      ],
      "stateMutability": "view",
      "type": "function"
    },
    {
      "inputs": [
        {
          "internalType": "uint256",
          "name": "tokenId",
          "type": "uint256"
        }
      ],
      "name": "svg",
      "outputs": [
        {
          "internalType": "bytes",
          "name": "_svg",
          "type": "bytes"
        }
      ],
      "stateMutability": "view",
      "type": "function"
    },
    {
      "inputs": [],
      "name": "symbol",
      "outputs": [
        {
          "internalType": "string",
          "name": "",
          "type": "string"
        }
      ],
      "stateMutability": "view",
      "type": "function"
    },
    {
      "inputs": [
        {
          "internalType": "uint256",
          "name": "index",
          "type": "uint256"
        }
      ],
      "name": "tokenByIndex",
      "outputs": [
        {
          "internalType": "uint256",
          "name": "",
          "type": "uint256"
        }
      ],
      "stateMutability": "view",
      "type": "function"
    },
    {
      "inputs": [
        {
          "internalType": "address",
          "name": "owner",
          "type": "address"
        },
        {
          "internalType": "uint256",
          "name": "index",
          "type": "uint256"
        }
      ],
      "name": "tokenOfOwnerByIndex",
      "outputs": [
        {
          "internalType": "uint256",
          "name": "",
          "type": "uint256"
        }
      ],
      "stateMutability": "view",
      "type": "function"
    },
    {
      "inputs": [
        {
          "internalType": "uint256",
          "name": "tokenId",
          "type": "uint256"
        }
      ],
      "name": "tokenURI",
      "outputs": [
        {
          "internalType": "string",
          "name": "",
          "type": "string"
        }
      ],
      "stateMutability": "view",
      "type": "function"
    },
    {
      "inputs": [],
      "name": "totalSupply",
      "outputs": [
        {
          "internalType": "uint256",
          "name": "",
          "type": "uint256"
        }
      ],
      "stateMutability": "view",
      "type": "function"
    },
    {
      "inputs": [
        {
          "internalType": "address",
          "name": "from",
          "type": "address"
        },
        {
          "internalType": "address",
          "name": "to",
          "type": "address"
        },
        {
          "internalType": "uint256",
          "name": "tokenId",
          "type": "uint256"
        }
      ],
      "name": "transferFrom",
      "outputs": [],
      "stateMutability": "nonpayable",
      "type": "function"
    },
    {
      "inputs": [
        {
          "internalType": "address",
          "name": "newOwner",
          "type": "address"
        }
      ],
      "name": "transferOwnership",
      "outputs": [],
      "stateMutability": "nonpayable",
      "type": "function"
    },
    {
      "stateMutability": "payable",
      "type": "receive"
    }
  ],
  "bytecode": "0x60806040523480156200001157600080fd5b506200001c62000022565b620000e4565b600054610100900460ff16156200008f5760405162461bcd60e51b815260206004820152602760248201527f496e697469616c697a61626c653a20636f6e747261637420697320696e697469604482015266616c697a696e6760c81b606482015260840160405180910390fd5b60005460ff9081161015620000e2576000805460ff191660ff9081179091556040519081527f7f26b83ff96e1f2b6a682f133852f6798a09c465da95921460cefb38474024989060200160405180910390a15b565b6153d680620000f46000396000f3fe6080604052600436106102135760003560e01c806376af6cbd11610118578063a22cb465116100a0578063c241d0781161006f578063c241d07814610682578063c87b56dd146106a2578063d482ef9b146106c2578063e985e9c5146106e2578063f2fde38b1461072b57600080fd5b8063a22cb46514610602578063aa74c98814610622578063b80f55c914610642578063b88d4fde1461066257600080fd5b806395d89b41116100e757806395d89b411461054e5780639659867e1461056357806398d5fdca1461057857806399e1dacd1461058e578063a13b5f7e146105e257600080fd5b806376af6cbd146104a65780637aa57d7e146104c65780638a34711d146105105780638da5cb5b1461053057600080fd5b80632f745c591161019b5780634f6ccce71161016a5780634f6ccce71461041b578063554d578d1461043b5780636352211e1461045157806370a0823114610471578063715018a61461049157600080fd5b80632f745c591461039b57806332dba7db146103bb57806342842e0e146103db57806344b285db146103fb57600080fd5b8063095ea7b3116101e2578063095ea7b31461031357806318160ddd146103335780631b2ef1ca1461035257806323b872dd146103655780632c773df41461038557600080fd5b806301ffc9a71461026257806306508ccf1461029757806306fdde03146102b9578063081812fc146102db57600080fd5b3661025d5760405162461bcd60e51b815260206004820152601560248201527411ce949150d152559157d393d517d0531313d5d151605a1b60448201526064015b60405180910390fd5b600080fd5b34801561026e57600080fd5b5061028261027d366004613da4565b61074b565b60405190151581526020015b60405180910390f35b3480156102a357600080fd5b506102b76102b2366004613dc1565b61076b565b005b3480156102c557600080fd5b506102ce610779565b60405161028e9190613e2a565b3480156102e757600080fd5b506102fb6102f6366004613dc1565b61080b565b6040516001600160a01b03909116815260200161028e565b34801561031f57600080fd5b506102b761032e366004613e52565b610832565b34801561033f57600080fd5b506099545b60405190815260200161028e565b6102b7610360366004613e7e565b610947565b34801561037157600080fd5b506102b7610380366004613ea0565b6115d4565b34801561039157600080fd5b5061013954610344565b3480156103a757600080fd5b506103446103b6366004613e52565b611605565b3480156103c757600080fd5b506102b76103d6366004613ee1565b61169b565b3480156103e757600080fd5b506102b76103f6366004613ea0565b6116b1565b34801561040757600080fd5b506102ce610416366004613dc1565b6116cc565b34801561042757600080fd5b50610344610436366004613dc1565b611798565b34801561044757600080fd5b5061012e54610344565b34801561045d57600080fd5b506102fb61046c366004613dc1565b61182b565b34801561047d57600080fd5b5061034461048c366004613ef3565b61188b565b34801561049d57600080fd5b506102b7611911565b3480156104b257600080fd5b506103446104c1366004613e7e565b611925565b3480156104d257600080fd5b506102826104e1366004613f10565b6001600160a01b03918216600090815261013b6020908152604080832093909416825291909152205460ff1690565b34801561051c57600080fd5b5061034461052b366004613dc1565b611a7b565b34801561053c57600080fd5b5060c9546001600160a01b03166102fb565b34801561055a57600080fd5b506102ce611ab0565b34801561056f57600080fd5b50610344611abf565b34801561058457600080fd5b5061012f54610344565b34801561059a57600080fd5b506102b76105a9366004613f57565b33600090815261013b602090815260408083206001600160a01b0395909516835293905291909120805460ff1916911515919091179055565b3480156105ee57600080fd5b506102b76105fd366004613f85565b611adc565b34801561060e57600080fd5b506102b761061d366004613f57565b611b10565b34801561062e57600080fd5b5061028261063d366004613dc1565b611b1b565b34801561064e57600080fd5b506102b761065d366004613faa565b611b3f565b34801561066e57600080fd5b506102b761067d366004614066565b612112565b34801561068e57600080fd5b5061034461069d366004613faa565b61214a565b3480156106ae57600080fd5b506102ce6106bd366004613dc1565b612470565b3480156106ce57600080fd5b506102b76106dd366004614183565b6125c0565b3480156106ee57600080fd5b506102826106fd366004613f10565b6001600160a01b039182166000908152606a6020908152604080832093909416825291909152205460ff1690565b34801561073757600080fd5b506102b7610746366004613ef3565b61285c565b6000610756826128d5565b806107655750610765826128fa565b92915050565b610773612910565b61013955565b60606065805461078890614257565b80601f01602080910402602001604051908101604052809291908181526020018280546107b490614257565b80156108015780601f106107d657610100808354040283529160200191610801565b820191906000526020600020905b8154815290600101906020018083116107e457829003601f168201915b5050505050905090565b60006108168261296a565b506000908152606960205260409020546001600160a01b031690565b600061083d8261182b565b9050806001600160a01b0316836001600160a01b0316036108aa5760405162461bcd60e51b815260206004820152602160248201527f4552433732313a20617070726f76616c20746f2063757272656e74206f776e656044820152603960f91b6064820152608401610254565b336001600160a01b03821614806108c657506108c681336106fd565b6109385760405162461bcd60e51b815260206004820152603d60248201527f4552433732313a20617070726f76652063616c6c6572206973206e6f7420746f60448201527f6b656e206f776e6572206f7220617070726f76656420666f7220616c6c0000006064820152608401610254565b61094283836129ba565b505050565b61094f612a28565b610957612a81565b600081116109965760405162461bcd60e51b815260206004820152600c60248201526b0473a4d3a414d4f554e545f360a41b6044820152606401610254565b610131548210156109e05760405162461bcd60e51b8152602060048201526014602482015273473a4d3a4c4f434b54494d455f544f4f5f4c4f5760601b6044820152606401610254565b61013054821115610a2b5760405162461bcd60e51b815260206004820152601560248201527408e749a74989e8696a8929a8abea89e9ebe90928e9605b1b6044820152606401610254565b61012e5481610a3a61013a5490565b610a4491906142a1565b1115610a855760405162461bcd60e51b815260206004820152601060248201526f11ce934e90d05417d15610d15151115160821b6044820152606401610254565b61012d54604080516315b9ba5d60e01b815290516000926001600160a01b0316916315b9ba5d9160048083019260209291908290030181865afa158015610ad0573d6000803e3d6000fd5b505050506040513d601f19601f82011682018060405250810190610af491906142b4565b90508161012f54610b0591906142d1565b3414610b4a5760405162461bcd60e51b815260206004820152601460248201527308e749a74929ca6aa8c8c9286928a9ca8be8aa8960631b6044820152606401610254565b6000610b5e836702c68af0bb1400006142d1565b90506000610b76846901b1ae4d6e2ef50000006142d1565b90506000610b848587611925565b90506001600160a01b038416630a8514c4610b9f83856142a1565b6040518263ffffffff1660e01b8152600401610bbd91815260200190565b600060405180830381600087803b158015610bd757600080fd5b505af1158015610beb573d6000803e3d6000fd5b5050505061012d60009054906101000a90046001600160a01b03166001600160a01b031663cae5f11e6040518163ffffffff1660e01b8152600401602060405180830381865afa158015610c43573d6000803e3d6000fd5b505050506040513d601f19601f82011682018060405250810190610c6791906142b4565b6001600160a01b031663d0e30db0846040518263ffffffff1660e01b81526004016000604051808303818588803b158015610ca157600080fd5b505af1158015610cb5573d6000803e3d6000fd5b50506101355460405163095ea7b360e01b81526001600160a01b03918216600482015260248101879052908816935063095ea7b3925060440190506020604051808303816000875af1158015610d0f573d6000803e3d6000fd5b505050506040513d601f19601f82011682018060405250810190610d3391906142e8565b5061012d60009054906101000a90046001600160a01b03166001600160a01b031663cae5f11e6040518163ffffffff1660e01b8152600401602060405180830381865afa158015610d88573d6000803e3d6000fd5b505050506040513d601f19601f82011682018060405250810190610dac91906142b4565b6101355460405163095ea7b360e01b81526001600160a01b0391821660048201526024810186905291169063095ea7b3906044016020604051808303816000875af1158015610dff573d6000803e3d6000fd5b505050506040513d601f19601f82011682018060405250810190610e2391906142e8565b50610134546040516370a0823160e01b81523060048201526000916001600160a01b0316906370a0823190602401602060405180830381865afa158015610e6e573d6000803e3d6000fd5b505050506040513d601f19601f82011682018060405250810190610e929190614305565b6101355461013354604051631f29a8cd60e31b81529293506000926001600160a01b039092169163f94d466891610ecf9160040190815260200190565b600060405180830381865afa158015610eec573d6000803e3d6000fd5b505050506040513d6000823e601f3d908101601f19168201604052610f1491908101906143ad565b505060408051600280825260608201835292935060009290916020830190803683375050604080516002808252606082018352939450600093909250906020830190803683370190505090508581610f6c858b612d59565b81518110610f7c57610f7c61447b565b602002602001018181525050868161100b8561012d60009054906101000a90046001600160a01b03166001600160a01b031663cae5f11e6040518163ffffffff1660e01b8152600401602060405180830381865afa158015610fe2573d6000803e3d6000fd5b505050506040513d601f19601f8201168201806040525081019061100691906142b4565b612d59565b8151811061101b5761101b61447b565b6020026020010181815250506000198260008151811061103d5761103d61447b565b6020026020010181815250506000198260018151811061105f5761105f61447b565b60209081029190910181019190915261013454604080516318160ddd60e01b815290516060936001600160a01b03909316926318160ddd92600480820193918290030181865afa1580156110b7573d6000803e3d6000fd5b505050506040513d601f19601f820116820180604052508101906110db9190614305565b60000361110c576000826040516020016110f69291906144f6565b6040516020818303038152906040529050611132565b600182604051602001611120929190614516565b60405160208183030381529060405290505b6101355461013354604080516080810182528781526020810187905280820185905260006060820152905163172b958560e31b81526001600160a01b039093169263b95cac289261118b929091309182916004016145e7565b600060405180830381600087803b1580156111a557600080fd5b505af11580156111b9573d6000803e3d6000fd5b5050610134546040516370a0823160e01b8152306004820152600093508892506001600160a01b03909116906370a0823190602401602060405180830381865afa15801561120b573d6000803e3d6000fd5b505050506040513d601f19601f8201168201806040525081019061122f9190614305565b6112399190614623565b9050896001600160a01b031663095ea7b361012d60009054906101000a90046001600160a01b03166001600160a01b03166308b0308a6040518163ffffffff1660e01b8152600401602060405180830381865afa15801561129e573d6000803e3d6000fd5b505050506040513d601f19601f820116820180604052508101906112c291906142b4565b6040516001600160e01b031960e084901b1681526001600160a01b039091166004820152602481018a90526044016020604051808303816000875af115801561130f573d6000803e3d6000fd5b505050506040513d601f19601f8201168201806040525081019061133391906142e8565b5061012d60009054906101000a90046001600160a01b03166001600160a01b03166308b0308a6040518163ffffffff1660e01b8152600401602060405180830381865afa158015611388573d6000803e3d6000fd5b505050506040513d601f19601f820116820180604052508101906113ac91906142b4565b6001600160a01b031663650e150533898f426113c891906142a1565b6040516001600160e01b031960e086901b1681526001600160a01b03909316600484015260248301919091526044820152606401600060405180830381600087803b15801561141657600080fd5b505af115801561142a573d6000803e3d6000fd5b50506101385461012f54600093506001600160a01b0390911691508b90611452908f906142d1565b61145c9190614623565b604051600081818185875af1925050503d8060008114611498576040519150601f19603f3d011682016040523d82523d6000602084013e61149d565b606091505b50509050806114e65760405162461bcd60e51b815260206004820152601560248201527411ce934e91551217d514905394d1915497d1905253605a1b6044820152606401610254565b60005b8c8110156115ba576114fe3361013a54612dc8565b60405180606001604052804281526020018f81526020018e856115219190614636565b905261013d600061153261013a5490565b81526020808201929092526040908101600020835181558383015160018201559281015160029093019290925561013a5482513381529182015281517f0f6798a560793a54c3bcfe86a93cde1e73087d944c0ea20544137d4121396885929181900390910190a16115a861013a80546001019055565b806115b281614658565b9150506114e9565b5050505050505050505050506115d0600160fb55565b5050565b6115de3382612de9565b6115fa5760405162461bcd60e51b815260040161025490614671565b610942838383612e68565b60006116108361188b565b82106116725760405162461bcd60e51b815260206004820152602b60248201527f455243373231456e756d657261626c653a206f776e657220696e646578206f7560448201526a74206f6620626f756e647360a81b6064820152608401610254565b506001600160a01b03919091166000908152609760209081526040808320938352929052205490565b6116a3612910565b8061013361094282826146de565b61094283838360405180602001604052806000815250612112565b6060816116d881612fd9565b6116e183613022565b6117245760405162461bcd60e51b815260206004820152601460248201527311ce94ce9253959053125117d513d2d15397d25160621b6044820152606401610254565b60405160200161173390614735565b60405160208183030381529060405291508161174e8461303f565b60405160200161175f929190614a8a565b6040516020818303038152906040529150816040516020016117819190614d7c565b604051602081830303815290604052915050919050565b60006117a360995490565b82106118065760405162461bcd60e51b815260206004820152602c60248201527f455243373231456e756d657261626c653a20676c6f62616c20696e646578206f60448201526b7574206f6620626f756e647360a01b6064820152608401610254565b609982815481106118195761181961447b565b90600052602060002001549050919050565b6000818152606760205260408120546001600160a01b0316806107655760405162461bcd60e51b8152602060048201526018602482015277115490cdcc8c4e881a5b9d985b1a59081d1bdad95b88125160421b6044820152606401610254565b60006001600160a01b0382166118f55760405162461bcd60e51b815260206004820152602960248201527f4552433732313a2061646472657373207a65726f206973206e6f7420612076616044820152683634b21037bbb732b960b91b6064820152608401610254565b506001600160a01b031660009081526068602052604090205490565b611919612910565b61192360006130d3565b565b600061012e5461193561013a5490565b11156119765760405162461bcd60e51b815260206004820152601060248201526f239d23a72a291d26a4a72a2fa7ab22a960811b6044820152606401610254565b610131548210156119c95760405162461bcd60e51b815260206004820152601760248201527f473a474e54523a4c4f434b54494d455f544f4f5f4c4f570000000000000000006044820152606401610254565b61013054821115611a1c5760405162461bcd60e51b815260206004820152601860248201527f473a474e54523a4c4f434b54494d455f544f4f5f4849474800000000000000006044820152606401610254565b610132546002611a2c61013a5490565b611a369190614636565b61012e54611a449190614623565b611a4e84866142d1565b611a5891906142d1565b611a629190614636565b611a7490670de0b6b3a76400006142d1565b9392505050565b600081611a8781612fd9565b600083815261013d6020526040902060018101549054611aa791906142a1565b91505b50919050565b60606066805461078890614257565b60006001611acd61013a5490565b611ad79190614623565b905090565b81611ae681612fd9565b611aee613125565b50600091825261013c6020526040909120805460ff1916911515919091179055565b6115d03383836131ec565b600081611b2781612fd9565b5050600090815261013c602052604090205460ff1690565b611b47612a81565b611b4f612a28565b80611b8b5760405162461bcd60e51b815260206004820152600c60248201526b473a423a305f544f4b454e5360a01b6044820152606401610254565b6000805b82811015611d2c57611bb8848483818110611bac57611bac61447b565b9050602002013561182b565b6001600160a01b0316336001600160a01b031614611c085760405162461bcd60e51b815260206004820152600d60248201526c239d211d2727aa2fa7aba722a960991b6044820152606401610254565b611c29848483818110611c1d57611c1d61447b565b90506020020135611a7b565b421015611c6b5760405162461bcd60e51b815260206004820152601060248201526f11ce908e9393d517d5539313d0d2d15160821b6044820152606401610254565b61013d6000858584818110611c8257611c8261447b565b9050602002013581526020019081526020016000206002015482611ca691906142a1565b9150611cc9848483818110611cbd57611cbd61447b565b905060200201356132ba565b7fb90306ad06b2a6ff86ddc9327db583062895ef6540e62dc50add009db5b356eb848483818110611cfc57611cfc61447b565b90506020020135604051611d1291815260200190565b60405180910390a180611d2481614658565b915050611b8f565b5061012d54604080516315b9ba5d60e01b815290516000926001600160a01b0316916315b9ba5d9160048083019260209291908290030181865afa158015611d78573d6000803e3d6000fd5b505050506040513d601f19601f82011682018060405250810190611d9c91906142b4565b6101355461013354604051631f29a8cd60e31b81529293506000926001600160a01b039092169163f94d466891611dd99160040190815260200190565b600060405180830381865afa158015611df6573d6000803e3d6000fd5b505050506040513d6000823e601f3d908101601f19168201604052611e1e91908101906143ad565b50506040516370a0823160e01b81523060048201529091506000906001600160a01b038416906370a0823190602401602060405180830381865afa158015611e6a573d6000803e3d6000fd5b505050506040513d601f19601f82011682018060405250810190611e8e9190614305565b60408051600280825260608201835292935060009290916020830190803683375050610135546101335460408051608081018252888152602081018690529495506001600160a01b0390921693638bdb39139350909130918291810160008c611ef78c8e612d59565b604051602001611f0993929190614e11565b6040516020818303038152906040528152602001600015158152506040518563ffffffff1660e01b8152600401611f4394939291906145e7565b600060405180830381600087803b158015611f5d57600080fd5b505af1158015611f71573d6000803e3d6000fd5b50506040516370a0823160e01b8152306004820152600092508491506001600160a01b038716906370a0823190602401602060405180830381865afa158015611fbe573d6000803e3d6000fd5b505050506040513d601f19601f82011682018060405250810190611fe29190614305565b611fec9190614623565b90506000612004886901b1ae4d6e2ef50000006142d1565b90508082111561209d576001600160a01b03861663a9059cbb336120288486614623565b6040516001600160e01b031960e085901b1681526001600160a01b03909216600483015260248201526044016020604051808303816000875af1158015612073573d6000803e3d6000fd5b505050506040513d601f19601f8201168201806040525081019061209791906142e8565b506120a0565b50805b8015612101576040516350666e3160e01b8152600481018290526001600160a01b038716906350666e3190602401600060405180830381600087803b1580156120e857600080fd5b505af11580156120fc573d6000803e3d6000fd5b505050505b505050505050506115d0600160fb55565b61211c3383612de9565b6121385760405162461bcd60e51b815260040161025490614671565b6121448484848461335d565b50505050565b6000612154612a81565b610135546000906001600160a01b0316815b8481101561221f5761218f8686838181106121835761218361447b565b90506020020135613022565b6121d05760405162461bcd60e51b815260206004820152601260248201527111ce91d3141593114e9393d517d193d5539160721b6044820152606401610254565b61013d60008787848181106121e7576121e761447b565b905060200201358152602001908152602001600020600201548361220b91906142a1565b92508061221781614658565b915050612166565b5061013354604051631f29a8cd60e31b81526000916001600160a01b0384169163f94d4668916122559160040190815260200190565b600060405180830381865afa158015612272573d6000803e3d6000fd5b505050506040513d6000823e601f3d908101601f1916820160405261229a91908101906143ad565b50506040805160028082526060820183529293506000929091602083019080368337019050509050600061231c8361012d60009054906101000a90046001600160a01b03166001600160a01b03166315b9ba5d6040518163ffffffff1660e01b8152600401602060405180830381865afa158015610fe2573d6000803e3d6000fd5b610136546101335460408051608081019091529293506000926001600160a01b039092169163c7b2c52c919030908190808a815260200189815260200160008d8a60405160200161236f93929190614e11565b6040516020818303038152906040528152602001600015158152506040518563ffffffff1660e01b81526004016123a994939291906145e7565b6000604051808303816000875af11580156123c8573d6000803e3d6000fd5b505050506040513d6000823e601f3d908101601f191682016040526123f09190810190614e39565b91506000905061240a896901b1ae4d6e2ef50000006142d1565b90508082848151811061241f5761241f61447b565b6020026020010151111561246057808284815181106124405761244061447b565b60200260200101516124529190614623565b975050505050505050610765565b5060009998505050505050505050565b60608161247c81612fd9565b61248583613022565b6124c95760405162461bcd60e51b815260206004820152601560248201527411ce95154e9253959053125117d513d2d15397d251605a1b6044820152606401610254565b6125b06124d58461303f565b6124e66124e1866116cc565b613390565b600086815261013c602052604090205460ff16612520576040518060400160405280600581526020016466616c736560d81b81525061253e565b604051806040016040528060048152602001637472756560e01b8152505b61254f61254a88611a7b565b61303f565b600088815261013d602052604090206002015461256b9061303f565b60405160200161257d93929190614e80565b60408051601f198184030181529082905261259c939291602001614f9c565b604051602081830303815290604052613390565b60405160200161178191906150c5565b600054610100900460ff16158080156125e05750600054600160ff909116105b806125fa5750303b1580156125fa575060005460ff166001145b61265d5760405162461bcd60e51b815260206004820152602e60248201527f496e697469616c697a61626c653a20636f6e747261637420697320616c72656160448201526d191e481a5b9a5d1a585b1a5e995960921b6064820152608401610254565b6000805460ff191660011790558015612680576000805461ff0019166101001790555b6702c68af0bb1400008710156126cc5760405162461bcd60e51b8152602060048201526011602482015270473a493a50524943455f544f4f5f4c4f5760781b6044820152606401610254565b6127508c8c8080601f016020809104026020016040519081016040528093929190818152602001838380828437600081840152601f19601f820116905080830192505050505050508b8b8080601f0160208091040260200160405190810160405280939291908181526020018383808284376000920191909152506134e392505050565b612758613514565b612760613514565b61276861353b565b61277061356a565b612778613514565b8c61012d60006101000a8154816001600160a01b0302191690836001600160a01b031602179055508761012e819055508661012f8190555085610139819055508461013281905550836101308190555082610131819055508161013860006101000a8154816001600160a01b0302191690836001600160a01b0316021790555061280761013a80546001019055565b801561284d576000805461ff0019169055604051600181527f7f26b83ff96e1f2b6a682f133852f6798a09c465da95921460cefb38474024989060200160405180910390a15b50505050505050505050505050565b612864612910565b6001600160a01b0381166128c95760405162461bcd60e51b815260206004820152602660248201527f4f776e61626c653a206e6577206f776e657220697320746865207a65726f206160448201526564647265737360d01b6064820152608401610254565b6128d2816130d3565b50565b60006001600160e01b0319821663780e9d6360e01b1480610765575061076582613599565b6001600160e01b0319166301ffc9a760e01b1490565b60c9546001600160a01b031633146119235760405162461bcd60e51b815260206004820181905260248201527f4f776e61626c653a2063616c6c6572206973206e6f7420746865206f776e65726044820152606401610254565b61297381613022565b6128d25760405162461bcd60e51b8152602060048201526018602482015277115490cdcc8c4e881a5b9d985b1a59081d1bdad95b88125160421b6044820152606401610254565b600081815260696020526040902080546001600160a01b0319166001600160a01b03841690811790915581906129ef8261182b565b6001600160a01b03167f8c5be1e5ebec7d5bd14f71427d1e84f3dd0314c0f7b2291e5b200ac8c7c3b92560405160405180910390a45050565b600260fb5403612a7a5760405162461bcd60e51b815260206004820152601f60248201527f5265656e7472616e637947756172643a207265656e7472616e742063616c6c006044820152606401610254565b600260fb55565b610134546001600160a01b0316612ad15760405162461bcd60e51b815260206004820152601460248201527311ce934e909053105390d15497d393d517d4d15560621b6044820152606401610254565b6101355461013354604051631f29a8cd60e31b815260048101919091526000916001600160a01b03169063f94d466890602401600060405180830381865afa158015612b21573d6000803e3d6000fd5b505050506040513d6000823e601f3d908101601f19168201604052612b4991908101906143ad565b505090508051600214612b9e5760405162461bcd60e51b815260206004820152601760248201527f473a4d3a494e56414c49445f504f4f4c5f4c454e4754480000000000000000006044820152606401610254565b60005b81518110156115d05761012d60009054906101000a90046001600160a01b03166001600160a01b03166315b9ba5d6040518163ffffffff1660e01b8152600401602060405180830381865afa158015612bfe573d6000803e3d6000fd5b505050506040513d601f19601f82011682018060405250810190612c2291906142b4565b6001600160a01b0316828281518110612c3d57612c3d61447b565b60200260200101516001600160a01b03161480612cfb575061012d60009054906101000a90046001600160a01b03166001600160a01b031663cae5f11e6040518163ffffffff1660e01b8152600401602060405180830381865afa158015612ca9573d6000803e3d6000fd5b505050506040513d601f19601f82011682018060405250810190612ccd91906142b4565b6001600160a01b0316828281518110612ce857612ce861447b565b60200260200101516001600160a01b0316145b612d475760405162461bcd60e51b815260206004820152601760248201527f473a423a494e56414c49445f504f4f4c5f544f4b454e530000000000000000006044820152606401610254565b80612d5181614658565b915050612ba1565b8151600090815b81811015612db557836001600160a01b0316858281518110612d8457612d8461447b565b60200260200101516001600160a01b031603612da35791506107659050565b80612dad81614658565b915050612d60565b50612dc16101356135d8565b5092915050565b6115d08282604051806020016040528060008152506135e8565b600160fb55565b600080612df58361182b565b9050806001600160a01b0316846001600160a01b03161480612e3c57506001600160a01b038082166000908152606a602090815260408083209388168352929052205460ff165b80612e605750836001600160a01b0316612e558461080b565b6001600160a01b0316145b949350505050565b826001600160a01b0316612e7b8261182b565b6001600160a01b031614612ea15760405162461bcd60e51b81526004016102549061510a565b6001600160a01b038216612f035760405162461bcd60e51b8152602060048201526024808201527f4552433732313a207472616e7366657220746f20746865207a65726f206164646044820152637265737360e01b6064820152608401610254565b612f10838383600161361b565b826001600160a01b0316612f238261182b565b6001600160a01b031614612f495760405162461bcd60e51b81526004016102549061510a565b600081815260696020908152604080832080546001600160a01b03199081169091556001600160a01b0387811680865260688552838620805460001901905590871680865283862080546001019055868652606790945282852080549092168417909155905184937fddf252ad1be2c89b69c2b068fc378daa952ba7f163c4a11628f55a4df523b3ef91a4505050565b612fe281613022565b6128d25760405162461bcd60e51b815260206004820152601160248201527011ce9513d2d15397d393d517d193d55391607a1b6044820152606401610254565b6000908152606760205260409020546001600160a01b0316151590565b6060600061304c8361367c565b600101905060008167ffffffffffffffff81111561306c5761306c61401f565b6040519080825280601f01601f191660200182016040528015613096576020820181803683370190505b5090508181016020015b600019016f181899199a1a9b1b9c1cb0b131b232b360811b600a86061a8153600a85049450846130a0575b509392505050565b60c980546001600160a01b038381166001600160a01b0319831681179093556040519116919082907f8be0079c531659141344cd1fd0a4f28419497f9722a3daafe3b4186f6b6457e090600090a35050565b61012d60009054906101000a90046001600160a01b03166001600160a01b03166304d21cee6040518163ffffffff1660e01b8152600401602060405180830381865afa158015613179573d6000803e3d6000fd5b505050506040513d601f19601f8201168201806040525081019061319d91906142b4565b6001600160a01b0316336001600160a01b0316146119235760405162461bcd60e51b815260206004820152600c60248201526b11ce9393d517d3505492d15560a21b6044820152606401610254565b816001600160a01b0316836001600160a01b03160361324d5760405162461bcd60e51b815260206004820152601960248201527f4552433732313a20617070726f766520746f2063616c6c6572000000000000006044820152606401610254565b6001600160a01b038381166000818152606a6020908152604080832094871680845294825291829020805460ff191686151590811790915591519182527f17307eab39ab6107e8899845ad3d59bd9653f200f220920489ca2b5937696c31910160405180910390a3505050565b60006132c58261182b565b90506132d581600084600161361b565b6132de8261182b565b600083815260696020908152604080832080546001600160a01b03199081169091556001600160a01b0385168085526068845282852080546000190190558785526067909352818420805490911690555192935084927fddf252ad1be2c89b69c2b068fc378daa952ba7f163c4a11628f55a4df523b3ef908390a45050565b613368848484612e68565b61337484848484613754565b6121445760405162461bcd60e51b81526004016102549061514f565b606081516000036133af57505060408051602081019091526000815290565b600060405180606001604052806040815260200161536160409139905060006003845160026133de91906142a1565b6133e89190614636565b6133f39060046142d1565b67ffffffffffffffff81111561340b5761340b61401f565b6040519080825280601f01601f191660200182016040528015613435576020820181803683370190505b509050600182016020820185865187015b808210156134a1576003820191508151603f8160121c168501518453600184019350603f81600c1c168501518453600184019350603f8160061c168501518453600184019350603f8116850151845350600183019250613446565b50506003865106600181146134bd57600281146134d0576134d8565b603d6001830353603d60028303536134d8565b603d60018303535b509195945050505050565b600054610100900460ff1661350a5760405162461bcd60e51b8152600401610254906151a1565b6115d08282613855565b600054610100900460ff166119235760405162461bcd60e51b8152600401610254906151a1565b600054610100900460ff166135625760405162461bcd60e51b8152600401610254906151a1565b611923613895565b600054610100900460ff166135915760405162461bcd60e51b8152600401610254906151a1565b6119236138c5565b60006001600160e01b031982166380ac58cd60e01b148061075657506001600160e01b03198216635b5e139f60e01b14806107655750610765826128fa565b6128d2816210905360ea1b6138ec565b6135f2838361394f565b6135ff6000848484613754565b6109425760405162461bcd60e51b81526004016102549061514f565b600082815261013c602052604090205460ff16156136705760405162461bcd60e51b815260206004820152601260248201527111ce9095150e9513d2d15397d313d0d2d15160721b6044820152606401610254565b61214484848484613aca565b60008072184f03e93ff9f4daa797ed6e38ed64bf6a1f0160401b83106136bb5772184f03e93ff9f4daa797ed6e38ed64bf6a1f0160401b830492506040015b6d04ee2d6d415b85acef810000000083106136e7576d04ee2d6d415b85acef8100000000830492506020015b662386f26fc10000831061370557662386f26fc10000830492506010015b6305f5e100831061371d576305f5e100830492506008015b612710831061373157612710830492506004015b60648310613743576064830492506002015b600a83106107655760010192915050565b60006001600160a01b0384163b1561384a57604051630a85bd0160e11b81526001600160a01b0385169063150b7a02906137989033908990889088906004016151ec565b6020604051808303816000875af19250505080156137d3575060408051601f3d908101601f191682019092526137d09181019061521f565b60015b613830573d808015613801576040519150601f19603f3d011682016040523d82523d6000602084013e613806565b606091505b5080516000036138285760405162461bcd60e51b81526004016102549061514f565b805181602001fd5b6001600160e01b031916630a85bd0160e11b149050612e60565b506001949350505050565b600054610100900460ff1661387c5760405162461bcd60e51b8152600401610254906151a1565b6065613888838261528a565b506066610942828261528a565b600054610100900460ff166138bc5760405162461bcd60e51b8152600401610254906151a1565b611923336130d3565b600054610100900460ff16612de25760405162461bcd60e51b8152600401610254906151a1565b62461bcd60e51b600090815260206004526007602452600a808404818106603090810160081b958390069590950190829004918206850160101b01602363ffffff0060e086901c160160181b0190930160c81b604481905260e883901c91606490fd5b6001600160a01b0382166139a55760405162461bcd60e51b815260206004820181905260248201527f4552433732313a206d696e7420746f20746865207a65726f20616464726573736044820152606401610254565b6139ae81613022565b156139fb5760405162461bcd60e51b815260206004820152601c60248201527f4552433732313a20746f6b656e20616c7265616479206d696e746564000000006044820152606401610254565b613a0960008383600161361b565b613a1281613022565b15613a5f5760405162461bcd60e51b815260206004820152601c60248201527f4552433732313a20746f6b656e20616c7265616479206d696e746564000000006044820152606401610254565b6001600160a01b038216600081815260686020908152604080832080546001019055848352606790915280822080546001600160a01b0319168417905551839291907fddf252ad1be2c89b69c2b068fc378daa952ba7f163c4a11628f55a4df523b3ef908290a45050565b6001811115613b395760405162461bcd60e51b815260206004820152603560248201527f455243373231456e756d657261626c653a20636f6e7365637574697665207472604482015274185b9cd9995c9cc81b9bdd081cdd5c1c1bdc9d1959605a1b6064820152608401610254565b816001600160a01b038516613b9557613b9081609980546000838152609a60205260408120829055600182018355919091527f72a152ddfb8e864297c917af52ea6c1c68aead0fee1a62673fcc7e0c94979d000155565b613bb8565b836001600160a01b0316856001600160a01b031614613bb857613bb88582613bfe565b6001600160a01b038416613bd457613bcf81613c9b565b613bf7565b846001600160a01b0316846001600160a01b031614613bf757613bf78482613d4a565b5050505050565b60006001613c0b8461188b565b613c159190614623565b600083815260986020526040902054909150808214613c68576001600160a01b03841660009081526097602090815260408083208584528252808320548484528184208190558352609890915290208190555b5060009182526098602090815260408084208490556001600160a01b039094168352609781528383209183525290812055565b609954600090613cad90600190614623565b6000838152609a602052604081205460998054939450909284908110613cd557613cd561447b565b906000526020600020015490508060998381548110613cf657613cf661447b565b6000918252602080832090910192909255828152609a90915260408082208490558582528120556099805480613d2e57613d2e61534a565b6001900381819060005260206000200160009055905550505050565b6000613d558361188b565b6001600160a01b039093166000908152609760209081526040808320868452825280832085905593825260989052919091209190915550565b6001600160e01b0319811681146128d257600080fd5b600060208284031215613db657600080fd5b8135611a7481613d8e565b600060208284031215613dd357600080fd5b5035919050565b60005b83811015613df5578181015183820152602001613ddd565b50506000910152565b60008151808452613e16816020860160208601613dda565b601f01601f19169290920160200192915050565b602081526000611a746020830184613dfe565b6001600160a01b03811681146128d257600080fd5b60008060408385031215613e6557600080fd5b8235613e7081613e3d565b946020939093013593505050565b60008060408385031215613e9157600080fd5b50508035926020909101359150565b600080600060608486031215613eb557600080fd5b8335613ec081613e3d565b92506020840135613ed081613e3d565b929592945050506040919091013590565b600060808284031215611aaa57600080fd5b600060208284031215613f0557600080fd5b8135611a7481613e3d565b60008060408385031215613f2357600080fd5b8235613f2e81613e3d565b91506020830135613f3e81613e3d565b809150509250929050565b80151581146128d257600080fd5b60008060408385031215613f6a57600080fd5b8235613f7581613e3d565b91506020830135613f3e81613f49565b60008060408385031215613f9857600080fd5b823591506020830135613f3e81613f49565b60008060208385031215613fbd57600080fd5b823567ffffffffffffffff80821115613fd557600080fd5b818501915085601f830112613fe957600080fd5b813581811115613ff857600080fd5b8660208260051b850101111561400d57600080fd5b60209290920196919550909350505050565b634e487b7160e01b600052604160045260246000fd5b604051601f8201601f1916810167ffffffffffffffff8111828210171561405e5761405e61401f565b604052919050565b6000806000806080858703121561407c57600080fd5b843561408781613e3d565b935060208581013561409881613e3d565b935060408601359250606086013567ffffffffffffffff808211156140bc57600080fd5b818801915088601f8301126140d057600080fd5b8135818111156140e2576140e261401f565b6140f4601f8201601f19168501614035565b9150808252898482850101111561410a57600080fd5b808484018584013760008482840101525080935050505092959194509250565b803561413581613e3d565b919050565b60008083601f84011261414c57600080fd5b50813567ffffffffffffffff81111561416457600080fd5b60208301915083602082850101111561417c57600080fd5b9250929050565b6000806000806000806000806000806000806101408d8f0312156141a657600080fd5b6141af8d61412a565b9b5067ffffffffffffffff60208e013511156141ca57600080fd5b6141da8e60208f01358f0161413a565b909b50995067ffffffffffffffff60408e013511156141f857600080fd5b6142088e60408f01358f0161413a565b909950975060608d0135965060808d0135955060a08d0135945060c08d0135935060e08d013592506101008d013591506142456101208e0161412a565b90509295989b509295989b509295989b565b600181811c9082168061426b57607f821691505b602082108103611aaa57634e487b7160e01b600052602260045260246000fd5b634e487b7160e01b600052601160045260246000fd5b808201808211156107655761076561428b565b6000602082840312156142c657600080fd5b8151611a7481613e3d565b80820281158282048414176107655761076561428b565b6000602082840312156142fa57600080fd5b8151611a7481613f49565b60006020828403121561431757600080fd5b5051919050565b600067ffffffffffffffff8211156143385761433861401f565b5060051b60200190565b600082601f83011261435357600080fd5b815160206143686143638361431e565b614035565b82815260059290921b8401810191818101908684111561438757600080fd5b8286015b848110156143a2578051835291830191830161438b565b509695505050505050565b6000806000606084860312156143c257600080fd5b835167ffffffffffffffff808211156143da57600080fd5b818601915086601f8301126143ee57600080fd5b815160206143fe6143638361431e565b82815260059290921b8401810191818101908a84111561441d57600080fd5b948201945b8386101561444457855161443581613e3d565b82529482019490820190614422565b9189015191975090935050508082111561445d57600080fd5b5061446a86828701614342565b925050604084015190509250925092565b634e487b7160e01b600052603260045260246000fd5b634e487b7160e01b600052602160045260246000fd5b600481106144b7576144b7614491565b9052565b600081518084526020808501945080840160005b838110156144eb578151875295820195908201906001016144cf565b509495945050505050565b61450081846144a7565b604060208201526000612e6060408301846144bb565b61452081846144a7565b60606020820152600061453660608301846144bb565b82810360409384015260018152600360fc1b6020820152919091019392505050565b8051608080845281519084018190526000916020919082019060a0860190845b8181101561459d5783516001600160a01b031683529284019291840191600101614578565b5050828501519150858103838701526145b681836144bb565b92505050604083015184820360408601526145d18282613dfe565b91505060608301516130cb606086018215159052565b8481526001600160a01b0384811660208301528316604082015260806060820181905260009061461990830184614558565b9695505050505050565b818103818111156107655761076561428b565b60008261465357634e487b7160e01b600052601260045260246000fd5b500490565b60006001820161466a5761466a61428b565b5060010190565b6020808252602d908201527f4552433732313a2063616c6c6572206973206e6f7420746f6b656e206f776e6560408201526c1c881bdc88185c1c1c9bdd9959609a1b606082015260800190565b80546001600160a01b0319166001600160a01b0392909216919091179055565b8135815560208201356146f081613e3d565b6146fd81600184016146be565b50604082013561470c81613e3d565b61471981600284016146be565b50606082013561472881613e3d565b61094281600384016146be565b7f3c73766720786d6c6e733d22687474703a2f2f7777772e77332e6f72672f323081527f30302f737667222076696577426f783d2230203020343030203430302220737460208201527f796c653d2277696474683a313030253b6261636b67726f756e643a236638663160408201527f66313b66696c6c3a233030303b666f6e742d66616d696c793a6d6f6e6f73706160608201526331b2911f60e11b6080820152651e3232b3399f60d11b60848201526e1e3334b63a32b91034b21e9130911f60891b608a8201527f3c6665476175737369616e426c757220696e3d22536f7572636547726170686960998201527f632220737464446576696174696f6e3d22322220726573756c743d22626c757260b98201526211179f60e91b60d9820152681e3332a6b2b933b29f60b91b60dc8201527f3c66654d657267654e6f646520696e3d22626c7572222f3e000000000000000060e58201527f3c66654d657267654e6f646520696e3d22536f7572636547726170686963222f60fd820152601f60f91b61011d820152691e17b332a6b2b933b29f60b11b61011e820152681e17b334b63a32b91f60b91b610128820152661e17b232b3399f60c91b6101318201527f3c7465787420783d223530252220793d223330252220746578742d616e63686f6101388201527f723d226d6964646c652220666f6e742d73697a653d22313822206c65747465726101588201526c16b9b830b1b4b7339e9119111f60991b6101788201527f3c747370616e2064793d2230223e6c654e46543c2f747370616e3e00000000006101858201527f3c616e696d617465206174747269627574654e616d653d22746578744c656e676101a08201527f7468222066726f6d3d22302220746f3d2234302522206475723d22312e3873226101c08201526f103334b6361e91333932b2bd3291179f60811b6101e08201527f3c616e696d617465206174747269627574654e616d653d226c656e67746841646101f08201527f6a7573742220746f3d2273706163696e6722206475723d22312e3473222066696102108201526c36361e91333932b2bd3291179f60991b610230820152600061076561023d83015b661e17ba32bc3a1f60c91b815260070190565b60008151614a80818560208601613dda565b9290920192915050565b60008351614a9c818460208801613dda565b80830190507f3c636972636c652063783d22353025222063793d223630252220723d2235302281527f2066696c6c3d226e6f6e6522207374726f6b653d222330303022207374726f6b60208201527f652d77696474683d2232222066696c7465723d2275726c28236129222f3e000060408201527f3c7465787420783d223530252220746578742d616e63686f723d226d6964646c605e820152713291103337b73a16b9b4bd329e91191c111f60711b607e8201526f1e3a39b830b710323c9e91189c18111f60811b60908201528351614b7d8160a0840160208801613dda565b671e17ba39b830b71f60c11b910160a08101919091527f3c616e696d617465206174747269627574654e616d653d2279222076616c756560a88201527f733d222d3130303b37303b36353b373022206b657954696d65733d22303b302e60c88201527f383b302e393b3122206475723d223173222066696c6c3d22667265657a65222f60e8820152601f60f91b610108820152661e17ba32bc3a1f60c91b610109820152614d73614a5b614d5c614ce7614cd4614c9d61011087017f3c7465787420666f6e742d73697a653d22313222206c65747465722d7370616381527f696e673d22342220726f746174653d223138302031383020313830203138302060208201526c189c1810189c1810189c18111f60991b6040820152604d0190565b7f3c746578745061746820687265663d222362222073746172744f66667365743d815264111812911f60d91b602082015260250190565b66534953454e454760c81b815260070190565b7f3c616e696d617465206174747269627574654e616d653d2273746172744f666681527f736574222066726f6d3d22313030252220746f3d22302522206475723d22313560208201527f732220726570656174436f756e743d22696e646566696e697465222f3e0000006040820152605d0190565b6a1e17ba32bc3a2830ba341f60a91b8152600b0190565b95945050505050565b60008251614d8e818460208701613dda565b651e3232b3399f60d11b9201918252507f3c706174682069643d22622220643d224d31343020323430613630203630203060068201527f203120302031323020302036302036302030203120302d3132302030222f3e006026820152661e17b232b3399f60c91b6045820152651e17b9bb339f60d11b604c820152605201919050565b6060810160038510614e2557614e25614491565b938152602081019290925260409091015290565b60008060408385031215614e4c57600080fd5b82519150602083015167ffffffffffffffff811115614e6a57600080fd5b614e7685828601614342565b9150509250929050565b7f7b202274726169745f74797065223a20226c6f636b6564222c202276616c7565815263111d101160e11b602082015260008451614ec5816024850160208901613dda565b6308881f4b60e21b60249184019182018190527f7b202274726169745f74797065223a2022756e6c6f636b5f74696d657374616d60288301526d38111610113b30b63ab2911d101160911b60488301528551614f28816056850160208a01613dda565b60569201918201527f7b202274726169745f74797065223a20226c705f616d6f756e74222c20227661605a82015266363ab2911d101160c91b607a8201528351614f79816081840160208801613dda565b614f916081828401016222207d60e81b815260030190565b979650505050505050565b607b60f81b815275226e616d65223a202247656e65736973204e4654202360501b60018201528351600090614fd8816017850160208901613dda565b61088b60f21b60179184019182018190527f226465736372697074696f6e223a20226c654e46542047656e6573697320436f60198301526e1b1b1958dd1a5bdb881391950b888b608a1b60398301526801134b6b0b3b2911d160bd1b60488301527f22646174613a696d6167652f7376672b786d6c3b6261736536342c00000000006051830152855161507281606c850160208a01613dda565b606c9201918201526146196150b86150ab6150a5606e85016e2261747472696275746573223a205b60881b8152600f0190565b87614a6e565b605d60f81b815260010190565b607d60f81b815260010190565b7f646174613a6170706c69636174696f6e2f6a736f6e3b6261736536342c0000008152600082516150fd81601d850160208701613dda565b91909101601d0192915050565b60208082526025908201527f4552433732313a207472616e736665722066726f6d20696e636f72726563742060408201526437bbb732b960d91b606082015260800190565b60208082526032908201527f4552433732313a207472616e7366657220746f206e6f6e20455243373231526560408201527131b2b4bb32b91034b6b83632b6b2b73a32b960711b606082015260800190565b6020808252602b908201527f496e697469616c697a61626c653a20636f6e7472616374206973206e6f74206960408201526a6e697469616c697a696e6760a81b606082015260800190565b6001600160a01b038581168252841660208201526040810183905260806060820181905260009061461990830184613dfe565b60006020828403121561523157600080fd5b8151611a7481613d8e565b601f82111561094257600081815260208120601f850160051c810160208610156152635750805b601f850160051c820191505b818110156152825782815560010161526f565b505050505050565b815167ffffffffffffffff8111156152a4576152a461401f565b6152b8816152b28454614257565b8461523c565b602080601f8311600181146152ed57600084156152d55750858301515b600019600386901b1c1916600185901b178555615282565b600085815260208120601f198616915b8281101561531c578886015182559484019460019091019084016152fd565b508582101561533a5787850151600019600388901b60f8161c191681555b5050505050600190811b01905550565b634e487b7160e01b600052603160045260246000fdfe4142434445464748494a4b4c4d4e4f505152535455565758595a6162636465666768696a6b6c6d6e6f707172737475767778797a303132333435363738392b2fa2646970667358221220637e7032f7b066d9006eda2805d928a5d1dcd7a5d5297277ceebe5372b9d70a464736f6c63430008130033",
  "linkReferences": {},
  "deployedLinkReferences": {}
}