{
  "_format": "hh-sol-artifact-1",
  "contractName": "GenesisNFT",
  "sourceName": "contracts/protocol/GenesisNFT.sol",
  "abi": [
    {
      "anonymous": false,
      "inputs": [
        {
          "indexed": true,
          "internalType": "address",
          "name": "owner",
          "type": "address"
        },
        {
          "indexed": true,
          "internalType": "address",
          "name": "approved",
          "type": "address"
        },
        {
          "indexed": true,
          "internalType": "uint256",
          "name": "tokenId",
          "type": "uint256"
        }
      ],
      "name": "Approval",
      "type": "event"
    },
    {
      "anonymous": false,
      "inputs": [
        {
          "indexed": true,
          "internalType": "address",
          "name": "owner",
          "type": "address"
        },
        {
          "indexed": true,
          "internalType": "address",
          "name": "operator",
          "type": "address"
        },
        {
          "indexed": false,
          "internalType": "bool",
          "name": "approved",
          "type": "bool"
        }
      ],
      "name": "ApprovalForAll",
      "type": "event"
    },
    {
      "anonymous": false,
      "inputs": [
        {
          "indexed": false,
          "internalType": "uint256",
          "name": "tokenId",
          "type": "uint256"
        }
      ],
      "name": "Burn",
      "type": "event"
    },
    {
      "anonymous": false,
      "inputs": [
        {
          "indexed": false,
          "internalType": "uint8",
          "name": "version",
          "type": "uint8"
        }
      ],
      "name": "Initialized",
      "type": "event"
    },
    {
      "anonymous": false,
      "inputs": [
        {
          "indexed": false,
          "internalType": "address",
          "name": "owner",
          "type": "address"
        },
        {
          "indexed": false,
          "internalType": "uint256",
          "name": "tokenId",
          "type": "uint256"
        }
      ],
      "name": "Mint",
      "type": "event"
    },
    {
      "anonymous": false,
      "inputs": [
        {
          "indexed": true,
          "internalType": "address",
          "name": "previousOwner",
          "type": "address"
        },
        {
          "indexed": true,
          "internalType": "address",
          "name": "newOwner",
          "type": "address"
        }
      ],
      "name": "OwnershipTransferred",
      "type": "event"
    },
    {
      "anonymous": false,
      "inputs": [
        {
          "indexed": true,
          "internalType": "address",
          "name": "from",
          "type": "address"
        },
        {
          "indexed": true,
          "internalType": "address",
          "name": "to",
          "type": "address"
        },
        {
          "indexed": true,
          "internalType": "uint256",
          "name": "tokenId",
          "type": "uint256"
        }
      ],
      "name": "Transfer",
      "type": "event"
    },
    {
      "inputs": [
        {
          "internalType": "address",
          "name": "to",
          "type": "address"
        },
        {
          "internalType": "uint256",
          "name": "tokenId",
          "type": "uint256"
        }
      ],
      "name": "approve",
      "outputs": [],
      "stateMutability": "nonpayable",
      "type": "function"
    },
    {
      "inputs": [
        {
          "internalType": "address",
          "name": "owner",
          "type": "address"
        }
      ],
      "name": "balanceOf",
      "outputs": [
        {
          "internalType": "uint256",
          "name": "",
          "type": "uint256"
        }
      ],
      "stateMutability": "view",
      "type": "function"
    },
    {
      "inputs": [
        {
          "internalType": "uint256",
          "name": "tokenId",
          "type": "uint256"
        }
      ],
      "name": "burn",
      "outputs": [],
      "stateMutability": "nonpayable",
      "type": "function"
    },
    {
      "inputs": [
        {
          "internalType": "uint256",
          "name": "tokenId",
          "type": "uint256"
        }
      ],
      "name": "getActiveState",
      "outputs": [
        {
          "internalType": "bool",
          "name": "",
          "type": "bool"
        }
      ],
      "stateMutability": "view",
      "type": "function"
    },
    {
      "inputs": [
        {
          "internalType": "uint256",
          "name": "tokenId",
          "type": "uint256"
        }
      ],
      "name": "getApproved",
      "outputs": [
        {
          "internalType": "address",
          "name": "",
          "type": "address"
        }
      ],
      "stateMutability": "view",
      "type": "function"
    },
    {
      "inputs": [],
      "name": "getCap",
      "outputs": [
        {
          "internalType": "uint256",
          "name": "",
          "type": "uint256"
        }
      ],
      "stateMutability": "view",
      "type": "function"
    },
    {
      "inputs": [
        {
          "internalType": "uint256",
          "name": "locktime",
          "type": "uint256"
        }
      ],
      "name": "getGenesisNativeTokens",
      "outputs": [
        {
          "internalType": "uint256",
          "name": "",
          "type": "uint256"
        }
      ],
      "stateMutability": "view",
      "type": "function"
    },
    {
      "inputs": [],
      "name": "getLTVBoost",
      "outputs": [
        {
          "internalType": "uint256",
          "name": "",
          "type": "uint256"
        }
      ],
      "stateMutability": "view",
      "type": "function"
    },
    {
      "inputs": [],
      "name": "getSupply",
      "outputs": [
        {
          "internalType": "uint256",
          "name": "",
          "type": "uint256"
        }
      ],
      "stateMutability": "view",
      "type": "function"
    },
    {
      "inputs": [
        {
          "internalType": "contract IAddressesProvider",
          "name": "addressProvider",
          "type": "address"
        },
        {
          "internalType": "string",
          "name": "name",
          "type": "string"
        },
        {
          "internalType": "string",
          "name": "symbol",
          "type": "string"
        },
        {
          "internalType": "uint256",
          "name": "cap",
          "type": "uint256"
        },
        {
          "internalType": "uint256",
          "name": "price",
          "type": "uint256"
        },
        {
          "internalType": "uint256",
          "name": "ltvBoost",
          "type": "uint256"
        },
        {
          "internalType": "uint256",
          "name": "nativeTokenFactor",
          "type": "uint256"
        },
        {
          "internalType": "uint256",
          "name": "maxLocktime",
          "type": "uint256"
        },
        {
          "internalType": "uint256",
          "name": "minLocktime",
          "type": "uint256"
        },
        {
          "internalType": "address payable",
          "name": "devAddress",
          "type": "address"
        }
      ],
      "name": "initialize",
      "outputs": [],
      "stateMutability": "nonpayable",
      "type": "function"
    },
    {
      "inputs": [
        {
          "internalType": "address",
          "name": "owner",
          "type": "address"
        },
        {
          "internalType": "address",
          "name": "operator",
          "type": "address"
        }
      ],
      "name": "isApprovedForAll",
      "outputs": [
        {
          "internalType": "bool",
          "name": "",
          "type": "bool"
        }
      ],
      "stateMutability": "view",
      "type": "function"
    },
    {
      "inputs": [
        {
          "internalType": "uint256",
          "name": "locktime",
          "type": "uint256"
        }
      ],
      "name": "mint",
      "outputs": [
        {
          "internalType": "uint256",
          "name": "",
          "type": "uint256"
        }
      ],
      "stateMutability": "payable",
      "type": "function"
    },
    {
      "inputs": [],
      "name": "name",
      "outputs": [
        {
          "internalType": "string",
          "name": "",
          "type": "string"
        }
      ],
      "stateMutability": "view",
      "type": "function"
    },
    {
      "inputs": [],
      "name": "owner",
      "outputs": [
        {
          "internalType": "address",
          "name": "",
          "type": "address"
        }
      ],
      "stateMutability": "view",
      "type": "function"
    },
    {
      "inputs": [
        {
          "internalType": "uint256",
          "name": "tokenId",
          "type": "uint256"
        }
      ],
      "name": "ownerOf",
      "outputs": [
        {
          "internalType": "address",
          "name": "",
          "type": "address"
        }
      ],
      "stateMutability": "view",
      "type": "function"
    },
    {
      "inputs": [],
      "name": "renounceOwnership",
      "outputs": [],
      "stateMutability": "nonpayable",
      "type": "function"
    },
    {
      "inputs": [
        {
          "internalType": "address",
          "name": "from",
          "type": "address"
        },
        {
          "internalType": "address",
          "name": "to",
          "type": "address"
        },
        {
          "internalType": "uint256",
          "name": "tokenId",
          "type": "uint256"
        }
      ],
      "name": "safeTransferFrom",
      "outputs": [],
      "stateMutability": "nonpayable",
      "type": "function"
    },
    {
      "inputs": [
        {
          "internalType": "address",
          "name": "from",
          "type": "address"
        },
        {
          "internalType": "address",
          "name": "to",
          "type": "address"
        },
        {
          "internalType": "uint256",
          "name": "tokenId",
          "type": "uint256"
        },
        {
          "internalType": "bytes",
          "name": "data",
          "type": "bytes"
        }
      ],
      "name": "safeTransferFrom",
      "outputs": [],
      "stateMutability": "nonpayable",
      "type": "function"
    },
    {
      "inputs": [
        {
          "internalType": "uint256",
          "name": "tokenId",
          "type": "uint256"
        },
        {
          "internalType": "bool",
          "name": "newState",
          "type": "bool"
        }
      ],
      "name": "setActiveState",
      "outputs": [],
      "stateMutability": "nonpayable",
      "type": "function"
    },
    {
      "inputs": [
        {
          "internalType": "address",
          "name": "operator",
          "type": "address"
        },
        {
          "internalType": "bool",
          "name": "approved",
          "type": "bool"
        }
      ],
      "name": "setApprovalForAll",
      "outputs": [],
      "stateMutability": "nonpayable",
      "type": "function"
    },
    {
      "inputs": [
        {
          "internalType": "uint256",
          "name": "newLTVBoost",
          "type": "uint256"
        }
      ],
      "name": "setLTVBoost",
      "outputs": [],
      "stateMutability": "nonpayable",
      "type": "function"
    },
    {
      "inputs": [
        {
          "internalType": "uint256",
          "name": "newFactor",
          "type": "uint256"
        }
      ],
      "name": "setNativeTokenFactor",
      "outputs": [],
      "stateMutability": "nonpayable",
      "type": "function"
    },
    {
      "inputs": [
        {
          "internalType": "bytes4",
          "name": "interfaceId",
          "type": "bytes4"
        }
      ],
      "name": "supportsInterface",
      "outputs": [
        {
          "internalType": "bool",
          "name": "",
          "type": "bool"
        }
      ],
      "stateMutability": "view",
      "type": "function"
    },
    {
      "inputs": [],
      "name": "symbol",
      "outputs": [
        {
          "internalType": "string",
          "name": "",
          "type": "string"
        }
      ],
      "stateMutability": "view",
      "type": "function"
    },
    {
      "inputs": [
        {
          "internalType": "uint256",
          "name": "tokenId",
          "type": "uint256"
        }
      ],
      "name": "tokenURI",
      "outputs": [
        {
          "internalType": "string",
          "name": "",
          "type": "string"
        }
      ],
      "stateMutability": "view",
      "type": "function"
    },
    {
      "inputs": [
        {
          "internalType": "address",
          "name": "from",
          "type": "address"
        },
        {
          "internalType": "address",
          "name": "to",
          "type": "address"
        },
        {
          "internalType": "uint256",
          "name": "tokenId",
          "type": "uint256"
        }
      ],
      "name": "transferFrom",
      "outputs": [],
      "stateMutability": "nonpayable",
      "type": "function"
    },
    {
      "inputs": [
        {
          "internalType": "address",
          "name": "newOwner",
          "type": "address"
        }
      ],
      "name": "transferOwnership",
      "outputs": [],
      "stateMutability": "nonpayable",
      "type": "function"
    }
  ],
  "bytecode": "0x6080806040523461001657612306908161001c8239f35b600080fdfe608060408181526004918236101561001657600080fd5b600090813560e01c90816301ffc9a7146117b55750806306fdde031461170b578063081812fc146116ec578063095ea7b31461157a57806323b872dd1461155457806329e558981461147957806342842e0e1461141c57806342966c68146111c9578063554d578d146111aa5780635ca67d9b1461118a5780636352211e1461115a5780636c9c2faf1461113b5780636de010a41461110d57806370a0823114611078578063715018a61461101757806388ca4b6914610ff45780638da5cb5b14610fcb57806395d89b4114610ee6578063a0712d6814610973578063a22cb4651461089f578063b88d4fde14610818578063c87b56dd1461074e578063d482ef9b14610282578063e985e9c51461022e578063ec399a271461020b578063f2fde38b146101755763f54502041461014d57600080fd5b34610172576020366003190112610172575061016b60209235612226565b9051908152f35b80fd5b5091346102075760203660031901126102075761019061187b565b906101996119d9565b6001600160a01b038216156101b557506101b290611a31565b51f35b608490602084519162461bcd60e51b8352820152602660248201527f4f776e61626c653a206e6577206f776e657220697320746865207a65726f206160448201526564647265737360d01b6064820152fd5b8280fd5b509134610207576020366003190112610207576102266119d9565b356101035551f35b50903461027e578060031936011261027e5760209161024b61187b565b82610254611896565b9260018060a01b038093168152606a8652209116600052825260ff81600020541690519015158152f35b5080fd5b50913461020757610140366003190112610207576001600160a01b039080358281169081900361074a5767ffffffffffffffff92602435848111610746576102cd90369085016119ab565b949093604435828111610742576102e790369083016119ab565b91906101243594851680950361073e57895460ff8160081c161597888099610731575b801561071a575b156106c057908b929160019a8a8c60ff19851617865560ff6103669661035e9561034e936106af575b505460081c1661034981612190565b612190565b61035733611a31565b3691611974565b933691611974565b9061037b60ff8b5460081c1661034981612190565b825184811161069c5780610390606554611aee565b94601f9586811161062b575b506020908d8784116001146105ac57926105a1575b5050600019600383901b1c191690891b176065555b815193841161058e57509082916103de606654611aee565b82811161051e575b50602091831160011461049f578992610494575b5050600019600383901b1c191690851b176066555b6001600160601b0360a01b918260fb54161760fb5560643560fc5560843560fe5560a4356101035560c4356101015560e43560ff5561010435610100556101029182541617905561045e575051f35b60207f7f26b83ff96e1f2b6a682f133852f6798a09c465da95921460cefb38474024989161ff001985541685558351908152a151f35b0151905038806103fa565b60668a528793507f46501879b8ca8525e8c2fd519e2fbfcfa2ebea26501294aa02cbfcfb12e943549190601f1984168b5b818110610506575084116104ed575b505050811b0160665561040f565b015160001960f88460031b161c191690553880806104df565b8284015185558a9690940193602093840193016104d0565b9091925060668a527f46501879b8ca8525e8c2fd519e2fbfcfa2ebea26501294aa02cbfcfb12e943548380860160051c82019260208710610585575b9186958b929594930160051c01915b8281106105775750506103e6565b8c81558695508a9101610569565b9250819261055a565b634e487b7160e01b8a5260419052602489fd5b0151905038806103b1565b91908c9450601f198416606584527f8ff97419363ffd7000167f130ef7168fbea05faf9251824ca5043f113cc6a7c7935b818110610613575084116105fa575b505050811b016065556103c6565b015160001960f88460031b161c191690553880806105ec565b8284015185558e9690940193602093840193016105dd565b90915060658d527f8ff97419363ffd7000167f130ef7168fbea05faf9251824ca5043f113cc6a7c78680850160051c82019260208610610693575b859493910160051c909101908c908f5b8382106106855750505061039c565b81558594508d91018f610676565b92508192610666565b634e487b7160e01b8b526041825260248bfd5b61ffff19166101011781553861033a565b8a5162461bcd60e51b8152602081860152602e60248201527f496e697469616c697a61626c653a20636f6e747261637420697320616c72656160448201526d191e481a5b9a5d1a585b1a5e995960921b6064820152608490fd5b50303b1580156103115750600160ff831614610311565b50600160ff83161061030a565b8980fd5b8880fd5b8680fd5b8480fd5b50829034610172576020918260031936011261027e57356000818152606760205260409020548392919061078c906001600160a01b03161515611a7c565b8451916107988361191a565b808352156107fd576107f9926107b06107e8926120a2565b92865193816107c88693518092868087019101611821565b82016107dc82518093868085019101611821565b01038084520182611936565b925b51928284938452830190611856565b0390f35b5050506107f9825161080e8161191a565b60008152926107ea565b5091346102075760803660031901126102075761083361187b565b9061083c611896565b916044356064359367ffffffffffffffff851161074657366023860112156107465761087761089a948660246101b298369301359101611974565b9261088a6108858433611c40565b611b66565b610895838383611ccf565b612027565b611c1c565b5091346102075781600319360112610207576108b961187b565b6108c16118e1565b6001600160a01b03909116913383146109305750338452606a6020528284208260005260205261090081846000209060ff801983541691151516179055565b825190151581527f17307eab39ab6107e8899845ad3d59bd9653f200f220920489ca2b5937696c3160203392a351f35b606490602085519162461bcd60e51b8352820152601960248201527f4552433732313a20617070726f766520746f2063616c6c6572000000000000006044820152fd5b50916020928360031936011261017257813590610995600260c9541415612284565b600260c95560fd5460011990818111610d3757600160fc54910111610ea35761010054831115610e625760ff54831015610e1f5760fe54803403610207576109de60039161220f565b0460018060a01b039085888360fb541689519283809263e7334fe560e01b82525afa908115610df8579083918691610e02575b5016803b1561074a57848291888a518094819363f6326fb360e01b83525af18015610df857908591610de4575b50808092610a548561010254169160fe54611cae565b8a51915af1610a61611f03565b5015610da35784878260fb54168851928380926315b9ba5d60e01b82525afa908115610d99578491610d6c575b5016610a9984612226565b813b15610d68578651636a953c1d60e01b815233878201908152602081019290925291849183919082908490829060400103925af18015610d5e57908391610d4a575b505060fd54818111610d37576001018060fd55855191610afb8361191a565b8383523315610cf6576000828152606760205260409020546001600160a01b0316610cb357818452610104885260ff8785205416610c4d5733845260688852868420908154908111610c3a5791610ba09391600161089a9401905580855260678952878520336001600160601b0360a01b8254161790558033867fddf252ad1be2c89b69c2b068fc378daa952ba7f163c4a11628f55a4df523b3ef818c51a433611f33565b8351928484019084821067ffffffffffffffff831117610c255750845242835284830191825260fd80548252610105865290849020925183559051600190920191909155548151338152602081018290529091907f0f6798a560793a54c3bcfe86a93cde1e73087d944c0ea20544137d412139688590604090a1600160c95551908152f35b604190634e487b7160e01b6000525260246000fd5b634e487b7160e01b855260118752602485fd5b865162461bcd60e51b8152808701899052603a60248201527f43616e6e6f74207472616e7366657220746f6b656e202d2063757272656e746c6044820152793c903637b1b5b2b21034b71030b71030b1ba34bb32903637b0b760311b6064820152608490fd5b865162461bcd60e51b8152808701899052601c60248201527f4552433732313a20746f6b656e20616c7265616479206d696e746564000000006044820152606490fd5b60648689808a519262461bcd60e51b845283015260248201527f4552433732313a206d696e7420746f20746865207a65726f20616464726573736044820152fd5b634e487b7160e01b835260118552602483fd5b610d53906118f0565b61027e578138610adc565b86513d85823e3d90fd5b8380fd5b610d8c9150883d8a11610d92575b610d848183611936565b8101906121f0565b38610a8e565b503d610d7a565b87513d86823e3d90fd5b606485888089519262461bcd60e51b845283015260248201527f4661696c656420746f2073656e6420457468657220746f206465762066756e646044820152fd5b610ded906118f0565b610d68578338610a3e565b88513d87823e3d90fd5b610e1991508a3d8c11610d9257610d848183611936565b38610a11565b845162461bcd60e51b8152808501879052601d60248201527f4c6f636b74696d6520697320686967686572207468616e206c696d69740000006044820152606490fd5b606484878088519262461bcd60e51b845283015260248201527f4c6f636b74696d65206973206c6f776572207468616e207468726573686f6c646044820152fd5b845162461bcd60e51b8152808501879052601960248201527f416c6c204e4654732068617665206265656e206d696e746564000000000000006044820152606490fd5b50903461027e578160031936011261027e5780519082606654610f0881611aee565b80855291600191808316908115610fa35750600114610f46575b505050610f34826107f9940383611936565b51918291602083526020830190611856565b9450606685527f46501879b8ca8525e8c2fd519e2fbfcfa2ebea26501294aa02cbfcfb12e943545b828610610f8b57505050610f348260206107f99582010194610f22565b80546020878701810191909152909501948101610f6e565b6107f9975086935060209250610f3494915060ff191682840152151560051b82010194610f22565b50903461027e578160031936011261027e5760975490516001600160a01b039091168152602090f35b5091346102075760203660031901126102075761100f6119d9565b356101015551f35b50903461027e578160031936011261027e576110316119d9565b609780546001600160a01b031981169091559051906000906001600160a01b03167f8be0079c531659141344cd1fd0a4f28419497f9722a3daafe3b4186f6b6457e08284a3f35b50823461027e57602036600319011261027e576001600160a01b0361109b61187b565b169081156110b85760208480858581526068845220549051908152f35b608490602085519162461bcd60e51b8352820152602960248201527f4552433732313a2061646472657373207a65726f206973206e6f7420612076616044820152683634b21037bbb732b960b91b6064820152fd5b509134610207576020366003190112610207578160209360ff92358152610104855220541690519015158152f35b50903461027e578160031936011261027e5760209060fd549051908152f35b5034610172576020366003190112610172575061117960209235611ac8565b90516001600160a01b039091168152f35b50903461027e578160031936011261027e57602090610103549051908152f35b50903461027e578160031936011261027e5760209060fc549051908152f35b50903461027e576020806003193601126102075783356111ee600260c9541415612284565b600260c9556001600160a01b038061120583611ac8565b1633036113e857600361121960fe5461220f565b0486848360fb541687519283809263e7334fe560e01b82525afa9081156113de5790839188916113c1575b501690813b1561074657869160248392885194859384926378a1085360e11b84528d8401525af180156113b7576113a4575b5061128082611ac8565b828652610104845260ff858720541661133e5761129c83611ead565b16908185526068835283852080546001811061132b577fb90306ad06b2a6ff86ddc9327db583062895ef6540e62dc50add009db5b356eb95969750600019019055808652606783528486206001600160601b0360a01b815416905580868651937fddf252ad1be2c89b69c2b068fc378daa952ba7f163c4a11628f55a4df523b3ef8286a48152a1600160c95551f35b634e487b7160e01b875260118852602487fd5b845162461bcd60e51b8152808801859052603a60248201527f43616e6e6f74207472616e7366657220746f6b656e202d2063757272656e746c6044820152793c903637b1b5b2b21034b71030b71030b1ba34bb32903637b0b760311b6064820152608490fd5b6113b0909591956118f0565b9338611276565b85513d88823e3d90fd5b6113d89150863d8811610d9257610d848183611936565b38611244565b86513d89823e3d90fd5b835162461bcd60e51b8152808701849052600e60248201526d26bab9ba1037bbb7103a37b5b2b760911b6044820152606490fd5b5091346102075761142c366118ac565b91845193602085019085821067ffffffffffffffff83111761146657509161089a93916101b29593875287845261088a6108858433611c40565b634e487b7160e01b885260419052602487fd5b5091346102075781600319360112610207576114936118e1565b60fb54835163e7334fe560e01b81529192916001600160a01b039160209082908590829086165afa9081156113b7578691611536575b501633036114f357906101b2913584526101046020528284209060ff801983541691151516179055565b606490602084519162461bcd60e51b8352820152601e60248201527f43616c6c6572206d757374206265204d61726b657420636f6e747261637400006044820152fd5b61154e915060203d8111610d9257610d848183611936565b386114c9565b50903461027e576101b2611567366118ac565b916115756108858433611c40565b611ccf565b50913461020757816003193601126102075761159461187b565b602435916001600160a01b039081806115ac86611ac8565b1693169280841461169f57803314908115611680575b50156116175750828552606960205283852080546001600160a01b031916831790556115ed83611ac8565b169251927f8c5be1e5ebec7d5bd14f71427d1e84f3dd0314c0f7b2291e5b200ac8c7c3b9258585a4f35b608490602086519162461bcd60e51b8352820152603e60248201527f4552433732313a20617070726f76652063616c6c6572206973206e6f7420746f60448201527f6b656e206f776e6572206e6f7220617070726f76656420666f7220616c6c00006064820152fd5b90508652606a60205284862033875260205260ff8587205416386115c2565b855162461bcd60e51b8152602081840152602160248201527f4552433732313a20617070726f76616c20746f2063757272656e74206f776e656044820152603960f91b6064820152608490fd5b5034610172576020366003190112610172575061117960209235611b28565b50903461027e578160031936011261027e578051908260655461172d81611aee565b80855291600191808316908115610fa3575060011461175857505050610f34826107f9940383611936565b9450606585527f8ff97419363ffd7000167f130ef7168fbea05faf9251824ca5043f113cc6a7c75b82861061179d57505050610f348260206107f99582010194610f22565b80546020878701810191909152909501948101611780565b90508334610207576020366003190112610207573563ffffffff60e01b811680910361020757602092506380ac58cd60e01b8114908115611810575b81156117ff575b5015158152f35b6301ffc9a760e01b149050836117f8565b635b5e139f60e01b811491506117f1565b918091926000905b82821061184157501161183a575050565b6000910152565b91508060209183015181860152018291611829565b9060209161186f81518092818552858086019101611821565b601f01601f1916010190565b600435906001600160a01b038216820361189157565b600080fd5b602435906001600160a01b038216820361189157565b6060906003190112611891576001600160a01b0390600435828116810361189157916024359081168103611891579060443590565b60243590811515820361189157565b67ffffffffffffffff811161190457604052565b634e487b7160e01b600052604160045260246000fd5b6020810190811067ffffffffffffffff82111761190457604052565b90601f8019910116810190811067ffffffffffffffff82111761190457604052565b67ffffffffffffffff811161190457601f01601f191660200190565b92919261198082611958565b9161198e6040519384611936565b829481845281830111611891578281602093846000960137010152565b9181601f840112156118915782359167ffffffffffffffff8311611891576020838186019501011161189157565b6097546001600160a01b031633036119ed57565b606460405162461bcd60e51b815260206004820152602060248201527f4f776e61626c653a2063616c6c6572206973206e6f7420746865206f776e65726044820152fd5b6097549060018060a01b0380911691826001600160601b0360a01b821617609755167f8be0079c531659141344cd1fd0a4f28419497f9722a3daafe3b4186f6b6457e06000604051a3565b15611a8357565b60405162461bcd60e51b815260206004820152601860248201527f4552433732313a20696e76616c696420746f6b656e20494400000000000000006044820152606490fd5b6000908152606760205260409020546001600160a01b0316611aeb811515611a7c565b90565b90600182811c92168015611b1e575b6020831014611b0857565b634e487b7160e01b600052602260045260246000fd5b91607f1691611afd565b600081815260676020526040902054611b4b906001600160a01b03161515611a7c565b6000908152606960205260409020546001600160a01b031690565b15611b6d57565b60405162461bcd60e51b815260206004820152602e60248201527f4552433732313a2063616c6c6572206973206e6f7420746f6b656e206f776e6560448201526d1c881b9bdc88185c1c1c9bdd995960921b6064820152608490fd5b60809060208152603260208201527f4552433732313a207472616e7366657220746f206e6f6e20455243373231526560408201527131b2b4bb32b91034b6b83632b6b2b73a32b960711b60608201520190565b15611c2357565b60405162461bcd60e51b815280611c3c60048201611bc9565b0390fd5b906001600160a01b038080611c5484611ac8565b16931691838314938415611c87575b508315611c71575b50505090565b611c7d91929350611b28565b1614388080611c6b565b909350600052606a60205260406000208260005260205260ff604060002054169238611c63565b818110611cb9570390565b634e487b7160e01b600052601160045260246000fd5b611cd883611ac8565b6001600160a01b0391821692908216839003611e5a5716908115611e09576000838152610104602052604060ff8183205416611da357611d1785611ead565b8282526068602052808220805460018110611d8f57600019019055838252606860205280822080546001198111611d8f576001019055848252606760205280822080546001600160a01b03191685179055517fddf252ad1be2c89b69c2b068fc378daa952ba7f163c4a11628f55a4df523b3ef9190a4565b634e487b7160e01b84526011600452602484fd5b5162461bcd60e51b815260206004820152603a60248201527f43616e6e6f74207472616e7366657220746f6b656e202d2063757272656e746c6044820152793c903637b1b5b2b21034b71030b71030b1ba34bb32903637b0b760311b6064820152608490fd5b60405162461bcd60e51b8152602060048201526024808201527f4552433732313a207472616e7366657220746f20746865207a65726f206164646044820152637265737360e01b6064820152608490fd5b60405162461bcd60e51b815260206004820152602560248201527f4552433732313a207472616e736665722066726f6d20696e636f72726563742060448201526437bbb732b960d91b6064820152608490fd5b600081815260696020526040812080546001600160a01b03191690556001600160a01b03611eda83611ac8565b167f8c5be1e5ebec7d5bd14f71427d1e84f3dd0314c0f7b2291e5b200ac8c7c3b92582604051a4565b3d15611f2e573d90611f1482611958565b91611f226040519384611936565b82523d6000602084013e565b606090565b9091600091803b1561201e57611f7e6020918493604051948580948193630a85bd0160e11b9a8b84523360048501528460248501526044840152608060648401526084830190611856565b03926001600160a01b03165af190829082611fd6575b5050611fc857611fa2611f03565b80519081611fc35760405162461bcd60e51b815280611c3c60048201611bc9565b602001fd5b6001600160e01b0319161490565b909192506020813d8211612016575b81611ff260209383611936565b8101031261027e5751906001600160e01b0319821682036101725750903880611f94565b3d9150611fe5565b50505050600190565b91926000929190813b156120985760209161207d9185604051958680958194630a85bd0160e11b9b8c845233600485015260018060a01b0380951660248501526044840152608060648401526084830190611856565b0393165af190829082611fd6575050611fc857611fa2611f03565b5050505050600190565b801561216157600081805b61214957506120bb81611958565b906120c96040519283611936565b808252601f196120d882611958565b013660208401375b8083156121425760018110611cb9576000190192600a91828206603081198111611cb957855187101561212c570160f81b6001600160f81b03191660001a908401601f015304916120e0565b634e487b7160e01b600052603260045260246000fd5b5050905090565b906000198114611cb9576001600a91019104806120ad565b506040516040810181811067ffffffffffffffff8211176119045760405260018152600360fc1b602082015290565b1561219757565b60405162461bcd60e51b815260206004820152602b60248201527f496e697469616c697a61626c653a20636f6e7472616374206973206e6f74206960448201526a6e697469616c697a696e6760a81b6064820152608490fd5b9081602091031261189157516001600160a01b03811681036118915790565b6001600160ff1b038111600116611cb95760011b90565b61223560fc5460fd5490611cae565b6000199190811515828404821116611cb9576101015491821561226e57020480670de0b6b3a76400009204821181151516611cb9570290565b634e487b7160e01b600052601260045260246000fd5b1561228b57565b60405162461bcd60e51b815260206004820152601f60248201527f5265656e7472616e637947756172643a207265656e7472616e742063616c6c006044820152606490fdfea26469706673582212201e24bba08eb6fd5e1f92bcdba538bb710fde9cefab9f5a8a28c1784428b4f39864736f6c634300080f0033",
  "linkReferences": {},
  "deployedLinkReferences": {}
}