{
  "_format": "hh-sol-artifact-1",
  "contractName": "GenesisNFT",
  "sourceName": "contracts/protocol/GenesisNFT.sol",
  "abi": [
    {
      "inputs": [],
      "stateMutability": "nonpayable",
      "type": "constructor"
    },
    {
      "anonymous": false,
      "inputs": [
        {
          "indexed": true,
          "internalType": "address",
          "name": "owner",
          "type": "address"
        },
        {
          "indexed": true,
          "internalType": "address",
          "name": "approved",
          "type": "address"
        },
        {
          "indexed": true,
          "internalType": "uint256",
          "name": "tokenId",
          "type": "uint256"
        }
      ],
      "name": "Approval",
      "type": "event"
    },
    {
      "anonymous": false,
      "inputs": [
        {
          "indexed": true,
          "internalType": "address",
          "name": "owner",
          "type": "address"
        },
        {
          "indexed": true,
          "internalType": "address",
          "name": "operator",
          "type": "address"
        },
        {
          "indexed": false,
          "internalType": "bool",
          "name": "approved",
          "type": "bool"
        }
      ],
      "name": "ApprovalForAll",
      "type": "event"
    },
    {
      "anonymous": false,
      "inputs": [
        {
          "indexed": false,
          "internalType": "uint256",
          "name": "tokenId",
          "type": "uint256"
        }
      ],
      "name": "Burn",
      "type": "event"
    },
    {
      "anonymous": false,
      "inputs": [
        {
          "indexed": false,
          "internalType": "uint8",
          "name": "version",
          "type": "uint8"
        }
      ],
      "name": "Initialized",
      "type": "event"
    },
    {
      "anonymous": false,
      "inputs": [
        {
          "indexed": false,
          "internalType": "address",
          "name": "owner",
          "type": "address"
        },
        {
          "indexed": false,
          "internalType": "uint256",
          "name": "tokenId",
          "type": "uint256"
        }
      ],
      "name": "Mint",
      "type": "event"
    },
    {
      "anonymous": false,
      "inputs": [
        {
          "indexed": true,
          "internalType": "address",
          "name": "previousOwner",
          "type": "address"
        },
        {
          "indexed": true,
          "internalType": "address",
          "name": "newOwner",
          "type": "address"
        }
      ],
      "name": "OwnershipTransferred",
      "type": "event"
    },
    {
      "anonymous": false,
      "inputs": [
        {
          "indexed": true,
          "internalType": "address",
          "name": "from",
          "type": "address"
        },
        {
          "indexed": true,
          "internalType": "address",
          "name": "to",
          "type": "address"
        },
        {
          "indexed": true,
          "internalType": "uint256",
          "name": "tokenId",
          "type": "uint256"
        }
      ],
      "name": "Transfer",
      "type": "event"
    },
    {
      "inputs": [
        {
          "internalType": "address",
          "name": "to",
          "type": "address"
        },
        {
          "internalType": "uint256",
          "name": "tokenId",
          "type": "uint256"
        }
      ],
      "name": "approve",
      "outputs": [],
      "stateMutability": "nonpayable",
      "type": "function"
    },
    {
      "inputs": [
        {
          "internalType": "address",
          "name": "owner",
          "type": "address"
        }
      ],
      "name": "balanceOf",
      "outputs": [
        {
          "internalType": "uint256",
          "name": "",
          "type": "uint256"
        }
      ],
      "stateMutability": "view",
      "type": "function"
    },
    {
      "inputs": [
        {
          "internalType": "uint256",
          "name": "tokenId",
          "type": "uint256"
        }
      ],
      "name": "burn",
      "outputs": [],
      "stateMutability": "nonpayable",
      "type": "function"
    },
    {
      "inputs": [
        {
          "internalType": "uint256",
          "name": "tokenId",
          "type": "uint256"
        }
      ],
      "name": "getActiveState",
      "outputs": [
        {
          "internalType": "bool",
          "name": "",
          "type": "bool"
        }
      ],
      "stateMutability": "view",
      "type": "function"
    },
    {
      "inputs": [
        {
          "internalType": "uint256",
          "name": "tokenId",
          "type": "uint256"
        }
      ],
      "name": "getApproved",
      "outputs": [
        {
          "internalType": "address",
          "name": "",
          "type": "address"
        }
      ],
      "stateMutability": "view",
      "type": "function"
    },
    {
      "inputs": [],
      "name": "getCap",
      "outputs": [
        {
          "internalType": "uint256",
          "name": "",
          "type": "uint256"
        }
      ],
      "stateMutability": "view",
      "type": "function"
    },
    {
      "inputs": [],
      "name": "getETHPrice",
      "outputs": [
        {
          "internalType": "uint256",
          "name": "",
          "type": "uint256"
        }
      ],
      "stateMutability": "view",
      "type": "function"
    },
    {
      "inputs": [],
      "name": "getLTVBoost",
      "outputs": [
        {
          "internalType": "uint256",
          "name": "",
          "type": "uint256"
        }
      ],
      "stateMutability": "view",
      "type": "function"
    },
    {
      "inputs": [],
      "name": "getMintDepositReserve",
      "outputs": [
        {
          "internalType": "address",
          "name": "",
          "type": "address"
        }
      ],
      "stateMutability": "view",
      "type": "function"
    },
    {
      "inputs": [
        {
          "internalType": "uint256",
          "name": "locktime",
          "type": "uint256"
        }
      ],
      "name": "getNativeTokensReward",
      "outputs": [
        {
          "internalType": "uint256",
          "name": "",
          "type": "uint256"
        }
      ],
      "stateMutability": "view",
      "type": "function"
    },
    {
      "inputs": [
        {
          "internalType": "uint256",
          "name": "tokenId",
          "type": "uint256"
        }
      ],
      "name": "getUnlockTimestamp",
      "outputs": [
        {
          "internalType": "uint256",
          "name": "",
          "type": "uint256"
        }
      ],
      "stateMutability": "view",
      "type": "function"
    },
    {
      "inputs": [
        {
          "internalType": "contract IAddressesProvider",
          "name": "addressProvider",
          "type": "address"
        },
        {
          "internalType": "string",
          "name": "name",
          "type": "string"
        },
        {
          "internalType": "string",
          "name": "symbol",
          "type": "string"
        },
        {
          "internalType": "uint256",
          "name": "cap",
          "type": "uint256"
        },
        {
          "internalType": "uint256",
          "name": "price",
          "type": "uint256"
        },
        {
          "internalType": "uint256",
          "name": "ltvBoost",
          "type": "uint256"
        },
        {
          "internalType": "uint256",
          "name": "nativeTokenFactor",
          "type": "uint256"
        },
        {
          "internalType": "uint256",
          "name": "maxLocktime",
          "type": "uint256"
        },
        {
          "internalType": "uint256",
          "name": "minLocktime",
          "type": "uint256"
        },
        {
          "internalType": "address payable",
          "name": "devAddress",
          "type": "address"
        }
      ],
      "name": "initialize",
      "outputs": [],
      "stateMutability": "nonpayable",
      "type": "function"
    },
    {
      "inputs": [
        {
          "internalType": "address",
          "name": "owner",
          "type": "address"
        },
        {
          "internalType": "address",
          "name": "operator",
          "type": "address"
        }
      ],
      "name": "isApprovedForAll",
      "outputs": [
        {
          "internalType": "bool",
          "name": "",
          "type": "bool"
        }
      ],
      "stateMutability": "view",
      "type": "function"
    },
    {
      "inputs": [
        {
          "internalType": "uint256",
          "name": "locktime",
          "type": "uint256"
        },
        {
          "internalType": "string",
          "name": "uri",
          "type": "string"
        }
      ],
      "name": "mint",
      "outputs": [
        {
          "internalType": "uint256",
          "name": "",
          "type": "uint256"
        }
      ],
      "stateMutability": "payable",
      "type": "function"
    },
    {
      "inputs": [],
      "name": "name",
      "outputs": [
        {
          "internalType": "string",
          "name": "",
          "type": "string"
        }
      ],
      "stateMutability": "view",
      "type": "function"
    },
    {
      "inputs": [],
      "name": "owner",
      "outputs": [
        {
          "internalType": "address",
          "name": "",
          "type": "address"
        }
      ],
      "stateMutability": "view",
      "type": "function"
    },
    {
      "inputs": [
        {
          "internalType": "uint256",
          "name": "tokenId",
          "type": "uint256"
        }
      ],
      "name": "ownerOf",
      "outputs": [
        {
          "internalType": "address",
          "name": "",
          "type": "address"
        }
      ],
      "stateMutability": "view",
      "type": "function"
    },
    {
      "inputs": [],
      "name": "renounceOwnership",
      "outputs": [],
      "stateMutability": "nonpayable",
      "type": "function"
    },
    {
      "inputs": [
        {
          "internalType": "address",
          "name": "from",
          "type": "address"
        },
        {
          "internalType": "address",
          "name": "to",
          "type": "address"
        },
        {
          "internalType": "uint256",
          "name": "tokenId",
          "type": "uint256"
        }
      ],
      "name": "safeTransferFrom",
      "outputs": [],
      "stateMutability": "nonpayable",
      "type": "function"
    },
    {
      "inputs": [
        {
          "internalType": "address",
          "name": "from",
          "type": "address"
        },
        {
          "internalType": "address",
          "name": "to",
          "type": "address"
        },
        {
          "internalType": "uint256",
          "name": "tokenId",
          "type": "uint256"
        },
        {
          "internalType": "bytes",
          "name": "data",
          "type": "bytes"
        }
      ],
      "name": "safeTransferFrom",
      "outputs": [],
      "stateMutability": "nonpayable",
      "type": "function"
    },
    {
      "inputs": [
        {
          "internalType": "uint256",
          "name": "tokenId",
          "type": "uint256"
        },
        {
          "internalType": "bool",
          "name": "newState",
          "type": "bool"
        }
      ],
      "name": "setActiveState",
      "outputs": [],
      "stateMutability": "nonpayable",
      "type": "function"
    },
    {
      "inputs": [
        {
          "internalType": "address",
          "name": "operator",
          "type": "address"
        },
        {
          "internalType": "bool",
          "name": "approved",
          "type": "bool"
        }
      ],
      "name": "setApprovalForAll",
      "outputs": [],
      "stateMutability": "nonpayable",
      "type": "function"
    },
    {
      "inputs": [
        {
          "internalType": "uint256",
          "name": "newLTVBoost",
          "type": "uint256"
        }
      ],
      "name": "setLTVBoost",
      "outputs": [],
      "stateMutability": "nonpayable",
      "type": "function"
    },
    {
      "inputs": [
        {
          "internalType": "address",
          "name": "mintDepositReserve",
          "type": "address"
        }
      ],
      "name": "setMintDepositReserve",
      "outputs": [],
      "stateMutability": "nonpayable",
      "type": "function"
    },
    {
      "inputs": [
        {
          "internalType": "uint256",
          "name": "newFactor",
          "type": "uint256"
        }
      ],
      "name": "setNativeTokenFactor",
      "outputs": [],
      "stateMutability": "nonpayable",
      "type": "function"
    },
    {
      "inputs": [
        {
          "internalType": "bytes4",
          "name": "interfaceId",
          "type": "bytes4"
        }
      ],
      "name": "supportsInterface",
      "outputs": [
        {
          "internalType": "bool",
          "name": "",
          "type": "bool"
        }
      ],
      "stateMutability": "view",
      "type": "function"
    },
    {
      "inputs": [],
      "name": "symbol",
      "outputs": [
        {
          "internalType": "string",
          "name": "",
          "type": "string"
        }
      ],
      "stateMutability": "view",
      "type": "function"
    },
    {
      "inputs": [
        {
          "internalType": "uint256",
          "name": "index",
          "type": "uint256"
        }
      ],
      "name": "tokenByIndex",
      "outputs": [
        {
          "internalType": "uint256",
          "name": "",
          "type": "uint256"
        }
      ],
      "stateMutability": "view",
      "type": "function"
    },
    {
      "inputs": [
        {
          "internalType": "address",
          "name": "owner",
          "type": "address"
        },
        {
          "internalType": "uint256",
          "name": "index",
          "type": "uint256"
        }
      ],
      "name": "tokenOfOwnerByIndex",
      "outputs": [
        {
          "internalType": "uint256",
          "name": "",
          "type": "uint256"
        }
      ],
      "stateMutability": "view",
      "type": "function"
    },
    {
      "inputs": [
        {
          "internalType": "uint256",
          "name": "tokenId",
          "type": "uint256"
        }
      ],
      "name": "tokenURI",
      "outputs": [
        {
          "internalType": "string",
          "name": "",
          "type": "string"
        }
      ],
      "stateMutability": "view",
      "type": "function"
    },
    {
      "inputs": [],
      "name": "totalSupply",
      "outputs": [
        {
          "internalType": "uint256",
          "name": "",
          "type": "uint256"
        }
      ],
      "stateMutability": "view",
      "type": "function"
    },
    {
      "inputs": [
        {
          "internalType": "address",
          "name": "from",
          "type": "address"
        },
        {
          "internalType": "address",
          "name": "to",
          "type": "address"
        },
        {
          "internalType": "uint256",
          "name": "tokenId",
          "type": "uint256"
        }
      ],
      "name": "transferFrom",
      "outputs": [],
      "stateMutability": "nonpayable",
      "type": "function"
    },
    {
      "inputs": [
        {
          "internalType": "address",
          "name": "newOwner",
          "type": "address"
        }
      ],
      "name": "transferOwnership",
      "outputs": [],
      "stateMutability": "nonpayable",
      "type": "function"
    },
    {
      "stateMutability": "payable",
      "type": "receive"
    }
  ],
  "bytecode": "0x608080604052346100c2576000549060ff8260081c16610070575060ff80821610610035575b604051612f569081620000c88239f35b60ff90811916176000557f7f26b83ff96e1f2b6a682f133852f6798a09c465da95921460cefb3847402498602060405160ff8152a138610025565b62461bcd60e51b815260206004820152602760248201527f496e697469616c697a61626c653a20636f6e747261637420697320696e697469604482015266616c697a696e6760c81b6064820152608490fd5b600080fdfe608080604052600436101561001d575b50361561001b57600080fd5b005b600090813560e01c90816301ffc9a7146120695750806306fdde0314611fc3578063081812fc14611fa4578063095ea7b314611e2f57806318160ddd14611e1157806323b872dd14611dec578063296d8c4014611dcd57806329e5589814611cee5780632f745c5914611c4157806342842e0e14611be557806342966c681461161f5780634f6ccce71461158d578063554d578d1461156e5780635ca67d9b1461154f5780635fe7b08b1461150a5780636352211e146114d95780636de010a4146114a957806370a0823114611485578063715018a61461142657806377097fc814610a6b57806388ca4b6914610a475780638a34711d14610a205780638da5cb5b146109f657806395d89b4114610925578063a22cb4651461084d578063a607a8d91461082e578063b88d4fde146107a8578063c87b56dd14610770578063d482ef9b146102c6578063d5efe6d71461029c578063e985e9c514610248578063ec399a27146102245763f2fde38b0361000f5734610221576020366003190112610221576101aa612138565b6101b261227b565b6001600160a01b038116156101cd576101ca906122d4565b80f35b60405162461bcd60e51b815260206004820152602660248201527f4f776e61626c653a206e6577206f776e657220697320746865207a65726f206160448201526564647265737360d01b6064820152608490fd5b80fd5b50346102215760203660031901126102215761023e61227b565b6004356101985580f35b503461022157604036600319011261022157610262612138565b604061026c612153565b9260018060a01b038093168152606a602052209116600052602052602060ff604060002054166040519015158152f35b503461022157806003193601126102215761019a546040516001600160a01b039091168152602090f35b503461022157610140366003190112610221576004356001600160a01b038181169182900361076c576001600160401b03916024358381116107685761031090369060040161224e565b9290936044358181116107645761032b90369060040161224e565b9095610124359384168094036107605787549660ff8860081c161596878098610753575b801561073c575b156106e0576103ba926103b29160019a8a8d8d60ff1984161790556106cf575b506103a260ff8d5460081c1661038b81612af4565b61039481612af4565b61039d81612af4565b612af4565b6103ab336122d4565b3691612217565b923691612217565b6103ce60ff895460081c1661039d81612af4565b81518381116106bb57806103e3606554612407565b93601f9485811161066f575b506020908583116001146105f0578b926105e5575b5050600019600383901b1c191690881b176065555b80519283116105d157908291610430606654612407565b82811161057b575b5060209183116001146104fc5788926104f1575b5050600019600383901b1c191690851b176066555b6bffffffffffffffffffffffff60a01b916101919083825416179055606435610192556084356101935560a4356101985560c4356101965560e435610194556101043561019555610197918254161790556104ba575080f35b60207f7f26b83ff96e1f2b6a682f133852f6798a09c465da95921460cefb38474024989161ff00198454168455604051908152a180f35b01519050388061044c565b606689528793507f46501879b8ca8525e8c2fd519e2fbfcfa2ebea26501294aa02cbfcfb12e943549190601f1984168a5b8181106105635750841161054a575b505050811b01606655610461565b015160001960f88460031b161c1916905538808061053c565b8284015185558a96909401936020938401930161052d565b6105c29060668b527f46501879b8ca8525e8c2fd519e2fbfcfa2ebea26501294aa02cbfcfb12e943548480870160051c820192602088106105c8575b0160051c0190612b54565b38610438565b925081926105b7565b634e487b7160e01b88526041600452602488fd5b015190503880610404565b60658c528a93507f8ff97419363ffd7000167f130ef7168fbea05faf9251824ca5043f113cc6a7c79190601f1984168d5b8181106106575750841161063e575b505050811b01606555610419565b015160001960f88460031b161c19169055388080610630565b8284015185558d969094019360209384019301610621565b6106b59060658d527f8ff97419363ffd7000167f130ef7168fbea05faf9251824ca5043f113cc6a7c78780860160051c820192602087106105c8570160051c0190612b54565b386103ef565b634e487b7160e01b89526041600452602489fd5b61ffff1916610101178c5538610376565b60405162461bcd60e51b815260206004820152602e60248201527f496e697469616c697a61626c653a20636f6e747261637420697320616c72656160448201526d191e481a5b9a5d1a585b1a5e995960921b6064820152608490fd5b50303b1580156103565750600160ff8a1614610356565b50600160ff8a161061034f565b8780fd5b8680fd5b8480fd5b8280fd5b5034610221576020366003190112610221576107a4610790600435612b6b565b604051918291602083526020830190612113565b0390f35b5034610221576080366003190112610221576107c2612138565b6107ca612153565b90606435906044356001600160401b0383116107685736602384011215610768576101ca93610806610829943690602481600401359101612217565b92610819610814843361255e565b612484565b6108248383836125d9565b612a2c565b61253a565b5034610221578060031936011261022157602061019354604051908152f35b503461022157604036600319011261022157610867612138565b61086f61219e565b6001600160a01b03909116903382146108e057338352606a60205260408320826000526020526108af8160406000209060ff801983541691151516179055565b60405190151581527f17307eab39ab6107e8899845ad3d59bd9653f200f220920489ca2b5937696c3160203392a380f35b60405162461bcd60e51b815260206004820152601960248201527f4552433732313a20617070726f766520746f2063616c6c6572000000000000006044820152606490fd5b5034610221578060031936011261022157604051908060665461094781612407565b808552916001918083169081156109cc5750600114610971575b6107a485610790818703826121db565b9250606683527f46501879b8ca8525e8c2fd519e2fbfcfa2ebea26501294aa02cbfcfb12e943545b8284106109b4575050508101602001610790826107a4610961565b80546020858701810191909152909301928101610999565b8695506107a49693506020925061079094915060ff191682840152151560051b8201019293610961565b503461022157806003193601126102215761012d546040516001600160a01b039091168152602090f35b5034610221576020366003190112610221576020610a3f600435612efc565b604051908152f35b503461022157602036600319011261022157610a6161227b565b6004356101965580f35b506040366003190112610221576024356001600160401b038111611175573660238201121561117557610aa8903690602481600401359101612217565b90610ab9600261015f541415612e98565b600261015f5561019a546001600160a01b031680156113d05761019954906101925482101561138b5761019554600435106113475761019454600435116113025761019354908134036112bd576001600160ff1b03821682036112a95761019154604051636572f88f60e11b815291906001600160a01b0316602083600481845afa92831561127c579060049392918793611287575b506020906040519485809263e7334fe560e01b82525afa92831561127c57908692918394611254575b5060405163095ea7b360e01b81526001600160a01b0390911660048201526003600186901b046024820152916020918391829081604481015b03926001600160a01b03165af180156112495761121a575b5061019a546001600160a01b039182169116813b15610768578490602460405180948193631696d40360e11b8352600483015260038760011b04905af1801561120f579084916111fb575b5080808093610c38600360018060a01b0361019754169260011b04610193546125cc565b905af1610c43612908565b50156111b757610191546040516315b9ba5d60e01b815290602090829060049082906001600160a01b03165afa908115611179578391611188575b506001600160a01b0316610c93600435612e37565b813b1561118457604051636a953c1d60e01b815233600482015260248101919091529083908290604490829084905af1801561117957908391611161575b50506001610199540161019955604051602081018181106001600160401b03821117610f2d57604052828152331561111d576000828152606760205260409020546001600160a01b03166110d8578160005261019b60205260ff604060002054166110705760995482600052609a60205280604060002055600160401b811015610f2d5782610d69826001610d849401609955612aa7565b90919082549060031b600019811b9283911b16911916179055565b610d8d3361231e565b336000526097602052604060002081600052602052826040600020558260005260986020526040600020553383526068602052604083208054906001820180921161105c579161082991610e2d9355838552606760205260408520336bffffffffffffffffffffffff60a01b8254161790558333867fddf252ad1be2c89b69c2b068fc378daa952ba7f163c4a11628f55a4df523b3ef8180a48333612938565b6000818152606760205260409020546001600160a01b0316156110005780825260fb6020526040822083516001600160401b038111610fec57610e708254612407565b601f8111610fb1575b50602094601f8211600114610f4e579484958293949592610f43575b50508160011b916000199060031b1c19161790555b604051604081018181106001600160401b03821117610f2d576040908152428252600435602080840191825284865261019c815294829020925183555160019092019190915580513381528084018390527f0f6798a560793a54c3bcfe86a93cde1e73087d944c0ea20544137d41213968859190a1600161015f55604051908152f35b634e487b7160e01b600052604160045260246000fd5b015190503880610e95565b601f198216958386526020862091865b888110610f9957508360019596979810610f80575b505050811b019055610eaa565b015160001960f88460031b161c19169055388080610f73565b91926020600181928685015181550194019201610f5e565b610fdc9083865260208620601f840160051c81019160208510610fe2575b601f0160051c0190612b54565b38610e79565b9091508190610fcf565b634e487b7160e01b84526041600452602484fd5b60405162461bcd60e51b815260206004820152602e60248201527f45524337323155524953746f726167653a2055524920736574206f66206e6f6e60448201526d32bc34b9ba32b73a103a37b5b2b760911b6064820152608490fd5b634e487b7160e01b85526011600452602485fd5b60405162461bcd60e51b815260206004820152603a60248201527f43616e6e6f74207472616e7366657220746f6b656e202d2063757272656e746c6044820152793c903637b1b5b2b21034b71030b71030b1ba34bb32903637b0b760311b6064820152608490fd5b60405162461bcd60e51b815260206004820152601c60248201527f4552433732313a20746f6b656e20616c7265616479206d696e746564000000006044820152606490fd5b606460405162461bcd60e51b815260206004820152602060248201527f4552433732313a206d696e7420746f20746865207a65726f20616464726573736044820152fd5b61116a906121ad565b611175578138610cd1565b5080fd5b6040513d85823e3d90fd5b8380fd5b6111aa915060203d6020116111b0575b6111a281836121db565b810190612e18565b38610c7e565b503d611198565b606460405162461bcd60e51b815260206004820152602060248201527f4661696c656420746f2073656e6420457468657220746f206465762066756e646044820152fd5b611204906121ad565b61076c578238610c14565b6040513d86823e3d90fd5b61123b9060203d602011611242575b61123381836121db565b810190612ee4565b5038610bc9565b503d611229565b6040513d87823e3d90fd5b610bb191945091611273602093843d86116111b0576111a281836121db565b94915091610b78565b6040513d88823e3d90fd5b60209193506112a290823d84116111b0576111a281836121db565b9290610b4f565b634e487b7160e01b84526011600452602484fd5b60405162461bcd60e51b815260206004820152601e60248201527f54782076616c7565206973206e6f7420657175616c20746f20707269636500006044820152606490fd5b60405162461bcd60e51b815260206004820152601d60248201527f4c6f636b74696d6520697320686967686572207468616e206c696d69740000006044820152606490fd5b606460405162461bcd60e51b815260206004820152602060248201527f4c6f636b74696d65206973206c6f776572207468616e207468726573686f6c646044820152fd5b60405162461bcd60e51b815260206004820152601960248201527f416c6c204e4654732068617665206265656e206d696e746564000000000000006044820152606490fd5b60405162461bcd60e51b815260206004820152602860248201527f47656e65736973206d696e74206465706f7369742072657365727665206973206044820152673737ba1039b2ba1760c11b6064820152608490fd5b503461022157806003193601126102215761143f61227b565b61012d80546001600160a01b031981169091556000906001600160a01b03167f8be0079c531659141344cd1fd0a4f28419497f9722a3daafe3b4186f6b6457e08280a380f35b5034610221576020366003190112610221576020610a3f6114a4612138565b61231e565b50346102215760203660031901126102215760ff6040602092600435815261019b84522054166040519015158152f35b50346102215760203660031901126102215760206114f86004356123e1565b6040516001600160a01b039091168152f35b503461022157602036600319011261022157611524612138565b61152c61227b565b61019a80546001600160a01b0319166001600160a01b0390921691909117905580f35b5034610221578060031936011261022157602061019854604051908152f35b5034610221578060031936011261022157602061019254604051908152f35b5034610221576020366003190112610221576004356099548110156115c5576115b7602091612aa7565b90546040519160031b1c8152f35b60405162461bcd60e51b815260206004820152602c60248201527f455243373231456e756d657261626c653a20676c6f62616c20696e646578206f60448201526b7574206f6620626f756e647360a01b6064820152608490fd5b503461022157602080600319360112611175576004359061015f91611648600284541415612e98565b6002835561165581612efc565b4210611ba857610193546001600160ff1b038116810361105c576101918054604051636572f88f60e11b81526001600160a01b0393600360019190911b0492918416918682600481865afa918215611b56578992611b89575b50604051878160048163e7334fe560e01b978882525afa908115611b7e5761171593899287928d91611b61575b5060405163095ea7b360e01b81526001600160a01b0390911660048201526024810192909252909384919082908d908a9083906044820190565b0393165af1908115611b565787928692611b39575b5054169160046040518094819382525afa8015611b115783918891611b1c575b5016803b1561076457604051634782f77960e01b8152306004820152602481018390529087908290604490829084905af18015611b1157611afe575b508580808093335af1611797612908565b5015611ac2576117a6826123e1565b908260005261019b845260ff60406000205416611a5a57811690816119be575060995482600052609a845280604060002055600160401b811015610f2d5782610d698260016117f89401609955612aa7565b609954600019908181019081116119a85783600052609a855261182060406000205491612aa7565b90549060031b1c61183481610d6984612aa7565b600052609a85526040600020558260005260006040812055609954801561199257810161186081612aa7565b8382549160031b1b19169055609955611878836128b4565b8186526068845260408620805491820191821161197e5755818552606783526040852080546001600160a01b0319169055600193927fb90306ad06b2a6ff86ddc9327db583062895ef6540e62dc50add009db5b356eb929091819087907fddf252ad1be2c89b69c2b068fc378daa952ba7f163c4a11628f55a4df523b3ef8280a460fb825261190a6040872054612407565b61191a575b604051908152a15580f35b80865260fb825285604081206119308154612407565b8061193e575b50505061190f565b601f81118814611957575060009150555b853880611936565b81835284832061197191601f0160051c8101908901612b54565b600084832091555561194f565b634e487b7160e01b87526011600452602487fd5b634e487b7160e01b600052603160045260246000fd5b634e487b7160e01b600052601160045260246000fd5b6119c79061231e565b60001981019081116119a8578260005260988452604060002054818103611a14575b50826000526000604081205581600052609784526040600020906000528352600060408120556117f8565b82600052609785526040600020826000528552604060002054836000526097865260406000208260005286528060406000205560005260988552604060002055386119e9565b60405162461bcd60e51b815260048101859052603a60248201527f43616e6e6f74207472616e7366657220746f6b656e202d2063757272656e746c6044820152793c903637b1b5b2b21034b71030b71030b1ba34bb32903637b0b760311b6064820152608490fd5b60405162461bcd60e51b81526004810184905260146024820152732330b4b632b2103a379039b2b7321022ba3432b960611b6044820152606490fd5b611b0a909691966121ad565b9438611786565b6040513d89823e3d90fd5b611b339150863d88116111b0576111a281836121db565b3861174a565b611b4f90843d86116112425761123381836121db565b503861172a565b6040513d8b823e3d90fd5b611b789150843d86116111b0576111a281836121db565b386116db565b6040513d8c823e3d90fd5b611ba1919250873d89116111b0576111a281836121db565b90386116ae565b60405162461bcd60e51b8152600481018390526015602482015274151bdad95b881a5cc81cdd1a5b1b081b1bd8dad959605a1b6044820152606490fd5b503461022157611bf436612169565b9060405192602084018481106001600160401b03821117611c2d579161082993916101ca9593604052868452610819610814843361255e565b634e487b7160e01b86526041600452602486fd5b503461022157604036600319011261022157611c5b612138565b60243591611c688261231e565b831015611c955760209260409260018060a01b031682526097845282822090825283522054604051908152f35b60405162461bcd60e51b815260206004820152602b60248201527f455243373231456e756d657261626c653a206f776e657220696e646578206f7560448201526a74206f6620626f756e647360a81b6064820152608490fd5b503461022157604036600319011261022157611d0861219e565b6101915460405163e7334fe560e01b81526001600160a01b03916020908290600490829086165afa90811561120f578491611daf575b50163303611d6a576101ca90600435835261019b602052604083209060ff801983541691151516179055565b60405162461bcd60e51b815260206004820152601e60248201527f43616c6c6572206d757374206265204d61726b657420636f6e747261637400006044820152606490fd5b611dc7915060203d81116111b0576111a281836121db565b38611d3e565b5034610221576020366003190112610221576020610a3f600435612e37565b5034610221576101ca611dfe36612169565b91611e0c610814843361255e565b6125d9565b50346102215780600319360112610221576020609954604051908152f35b503461022157604036600319011261022157611e49612138565b602435906001600160a01b038080611e60856123e1565b16921691808314611f5557803314908115611f34575b5015611ec95782845260696020526040842080546001600160a01b03191683179055611ea1836123e1565b167f8c5be1e5ebec7d5bd14f71427d1e84f3dd0314c0f7b2291e5b200ac8c7c3b9258480a480f35b60405162461bcd60e51b815260206004820152603e60248201527f4552433732313a20617070726f76652063616c6c6572206973206e6f7420746f60448201527f6b656e206f776e6572206e6f7220617070726f76656420666f7220616c6c00006064820152608490fd5b90508452606a6020526040842033855260205260ff60408520541638611e76565b60405162461bcd60e51b815260206004820152602160248201527f4552433732313a20617070726f76616c20746f2063757272656e74206f776e656044820152603960f91b6064820152608490fd5b50346102215760203660031901126102215760206114f8600435612441565b50346102215780600319360112610221576040519080606554611fe581612407565b808552916001918083169081156109cc575060011461200e576107a485610790818703826121db565b9250606583527f8ff97419363ffd7000167f130ef7168fbea05faf9251824ca5043f113cc6a7c75b828410612051575050508101602001610790826107a4610961565b80546020858701810191909152909301928101612036565b9050346111755760203660031901126111755760043563ffffffff60e01b811680910361076c576020925063780e9d6360e01b81149081156120ad575b5015158152f35b6380ac58cd60e01b8114915081156120df575b81156120ce575b50386120a6565b6301ffc9a760e01b149050386120c7565b635b5e139f60e01b811491506120c0565b60005b8381106121035750506000910152565b81810151838201526020016120f3565b9060209161212c815180928185528580860191016120f0565b601f01601f1916010190565b600435906001600160a01b038216820361214e57565b600080fd5b602435906001600160a01b038216820361214e57565b606090600319011261214e576001600160a01b0390600435828116810361214e5791602435908116810361214e579060443590565b60243590811515820361214e57565b6001600160401b038111610f2d57604052565b604081019081106001600160401b03821117610f2d57604052565b90601f801991011681019081106001600160401b03821117610f2d57604052565b6001600160401b038111610f2d57601f01601f191660200190565b929192612223826121fc565b9161223160405193846121db565b82948184528183011161214e578281602093846000960137010152565b9181601f8401121561214e578235916001600160401b03831161214e576020838186019501011161214e57565b61012d546001600160a01b0316330361229057565b606460405162461bcd60e51b815260206004820152602060248201527f4f776e61626c653a2063616c6c6572206973206e6f7420746865206f776e65726044820152fd5b61012d80546001600160a01b039283166001600160a01b0319821681179092559091167f8be0079c531659141344cd1fd0a4f28419497f9722a3daafe3b4186f6b6457e0600080a3565b6001600160a01b0316801561233e57600052606860205260406000205490565b60405162461bcd60e51b815260206004820152602960248201527f4552433732313a2061646472657373207a65726f206973206e6f7420612076616044820152683634b21037bbb732b960b91b6064820152608490fd5b1561239c57565b60405162461bcd60e51b815260206004820152601860248201527f4552433732313a20696e76616c696420746f6b656e20494400000000000000006044820152606490fd5b6000908152606760205260409020546001600160a01b0316612404811515612395565b90565b90600182811c92168015612437575b602083101461242157565b634e487b7160e01b600052602260045260246000fd5b91607f1691612416565b600081815260676020526040902054612469906001600160a01b03161515612395565b612395565b6000908152606960205260409020546001600160a01b031690565b1561248b57565b60405162461bcd60e51b815260206004820152602e60248201527f4552433732313a2063616c6c6572206973206e6f7420746f6b656e206f776e6560448201526d1c881b9bdc88185c1c1c9bdd995960921b6064820152608490fd5b60809060208152603260208201527f4552433732313a207472616e7366657220746f206e6f6e20455243373231526560408201527131b2b4bb32b91034b6b83632b6b2b73a32b960711b60608201520190565b1561254157565b60405162461bcd60e51b81528061255a600482016124e7565b0390fd5b906001600160a01b038080612572846123e1565b169316918383149384156125a5575b50831561258f575b50505090565b61259b91929350612441565b1614388080612589565b909350600052606a60205260406000208260005260205260ff604060002054169238612581565b919082039182116119a857565b906125e3836123e1565b6001600160a01b03838116929181168390036128615781169283156128105760009185835260209061019b825260409260ff84862054166127a957856127195750609954878552609a83528084862055600160401b8110156127055787610d698260016126539401609955612aa7565b8486036126d7575b50612665866128b4565b83835260688152818320805460001981019190821161105c5755848352606881528183208054906001820180921161105c575585835260679052812080546001600160a01b031916841790557fddf252ad1be2c89b69c2b068fc378daa952ba7f163c4a11628f55a4df523b3ef9080a4565b6126e09061231e565b858452609782528284208185528252868385205586845260988252828420553861265b565b634e487b7160e01b85526041600452602485fd5b868603612727575b50612653565b6127309061231e565b600019810190811161105c578785526098835283852054818103612772575b508785528484812055858552609783528385209085528252838381205538612721565b868652609784528486208287528452848620548787526097855285872082885285528086882055865260988452848620553861274f565b835162461bcd60e51b815260048101849052603a60248201527f43616e6e6f74207472616e7366657220746f6b656e202d2063757272656e746c6044820152793c903637b1b5b2b21034b71030b71030b1ba34bb32903637b0b760311b6064820152608490fd5b60405162461bcd60e51b8152602060048201526024808201527f4552433732313a207472616e7366657220746f20746865207a65726f206164646044820152637265737360e01b6064820152608490fd5b60405162461bcd60e51b815260206004820152602560248201527f4552433732313a207472616e736665722066726f6d20696e636f72726563742060448201526437bbb732b960d91b6064820152608490fd5b600081815260696020526040812080546001600160a01b03191690556001600160a01b036128e1836123e1565b167f8c5be1e5ebec7d5bd14f71427d1e84f3dd0314c0f7b2291e5b200ac8c7c3b9258280a4565b3d15612933573d90612919826121fc565b9161292760405193846121db565b82523d6000602084013e565b606090565b9091600091803b15612a23576129836020918493604051948580948193630a85bd0160e11b9a8b84523360048501528460248501526044840152608060648401526084830190612113565b03926001600160a01b03165af1908290826129db575b50506129cd576129a7612908565b805190816129c85760405162461bcd60e51b81528061255a600482016124e7565b602001fd5b6001600160e01b0319161490565b909192506020813d8211612a1b575b816129f7602093836121db565b810103126111755751906001600160e01b0319821682036102215750903880612999565b3d91506129ea565b50505050600190565b91926000929190813b15612a9d57602091612a829185604051958680958194630a85bd0160e11b9b8c845233600485015260018060a01b0380951660248501526044840152608060648401526084830190612113565b0393165af1908290826129db5750506129cd576129a7612908565b5050505050600190565b609954811015612ade5760996000527f72a152ddfb8e864297c917af52ea6c1c68aead0fee1a62673fcc7e0c94979d000190600090565b634e487b7160e01b600052603260045260246000fd5b15612afb57565b60405162461bcd60e51b815260206004820152602b60248201527f496e697469616c697a61626c653a20636f6e7472616374206973206e6f74206960448201526a6e697469616c697a696e6760a81b6064820152608490fd5b818110612b5f575050565b60008155600101612b54565b600081815260676020526040902054612b8e906001600160a01b03161515612395565b60009080825260209160fb8352604090818120928251918083865491612bb383612407565b92838352898301986001918b8382169182600014612d1e575050600114612ce2575b5050612be3925003846121db565b835190612bef826121c0565b60079586835266697066733a2f2f60c81b9485898501528051612c8a5750505050916124049391612c5984612c40612464612c6a9997600052606760205260018060a01b0360406000205416151590565b835194612c4c866121c0565b8552858501928352612d3e565b9151958693518092868601906120f0565b8201612c7e825180938680850191016120f0565b010380845201826121db565b9295919450925051958694845b878110612ccc5750505091612cbd849261240496946027809701938452519283916120f0565b810103908101845201826121db565b8181018301518982018401528896508201612c97565b8a925085528185209085915b858310612d06575050612be393508201013880612bd5565b8054838a018501528894508b93909201918101612cee565b9250935050612be394915060ff19168952151560051b8201013880612bd5565b8015612dea5780816000925b612dd05750612d58826121fc565b91612d6660405193846121db565b80835281601f19612d76836121fc565b013660208601375b612d8757505090565b906000198201908282116119a8578192600a9260309084840682018092116119a85786511115612ade5760f81b6001600160f81b03191660001a908501601f0153049081612d7e565b909160001981146119a8576001019190600a900480612d4a565b50604051604081018181106001600160401b03821117610f2d5760405260018152600360fc1b602082015290565b9081602091031261214e57516001600160a01b038116810361214e5790565b612e486101925461019954906125cc565b908181029181830414901517156119a85761019654908115612e825704670de0b6b3a7640000908181029181830414901517156119a85790565b634e487b7160e01b600052601260045260246000fd5b15612e9f57565b60405162461bcd60e51b815260206004820152601f60248201527f5265656e7472616e637947756172643a207265656e7472616e742063616c6c006044820152606490fd5b9081602091031261214e5751801515810361214e5790565b60005261019c60205260406000205460016040600020015481018091116119a8579056fea264697066735822122079362af26eadda9a97f47874df88636c95d54e096794db5a9eb7e82f33736e5464736f6c63430008110033",
  "linkReferences": {},
  "deployedLinkReferences": {}
}