{
  "_format": "hh-sol-artifact-1",
  "contractName": "GenesisNFT",
  "sourceName": "contracts/protocol/GenesisNFT.sol",
  "abi": [
    {
      "anonymous": false,
      "inputs": [
        {
          "indexed": true,
          "internalType": "address",
          "name": "owner",
          "type": "address"
        },
        {
          "indexed": true,
          "internalType": "address",
          "name": "approved",
          "type": "address"
        },
        {
          "indexed": true,
          "internalType": "uint256",
          "name": "tokenId",
          "type": "uint256"
        }
      ],
      "name": "Approval",
      "type": "event"
    },
    {
      "anonymous": false,
      "inputs": [
        {
          "indexed": true,
          "internalType": "address",
          "name": "owner",
          "type": "address"
        },
        {
          "indexed": true,
          "internalType": "address",
          "name": "operator",
          "type": "address"
        },
        {
          "indexed": false,
          "internalType": "bool",
          "name": "approved",
          "type": "bool"
        }
      ],
      "name": "ApprovalForAll",
      "type": "event"
    },
    {
      "anonymous": false,
      "inputs": [
        {
          "indexed": false,
          "internalType": "uint256",
          "name": "tokenId",
          "type": "uint256"
        }
      ],
      "name": "Burn",
      "type": "event"
    },
    {
      "anonymous": false,
      "inputs": [
        {
          "indexed": false,
          "internalType": "uint8",
          "name": "version",
          "type": "uint8"
        }
      ],
      "name": "Initialized",
      "type": "event"
    },
    {
      "anonymous": false,
      "inputs": [
        {
          "indexed": false,
          "internalType": "address",
          "name": "owner",
          "type": "address"
        },
        {
          "indexed": false,
          "internalType": "uint256",
          "name": "tokenId",
          "type": "uint256"
        }
      ],
      "name": "Mint",
      "type": "event"
    },
    {
      "anonymous": false,
      "inputs": [
        {
          "indexed": true,
          "internalType": "address",
          "name": "previousOwner",
          "type": "address"
        },
        {
          "indexed": true,
          "internalType": "address",
          "name": "newOwner",
          "type": "address"
        }
      ],
      "name": "OwnershipTransferred",
      "type": "event"
    },
    {
      "anonymous": false,
      "inputs": [
        {
          "indexed": true,
          "internalType": "address",
          "name": "from",
          "type": "address"
        },
        {
          "indexed": true,
          "internalType": "address",
          "name": "to",
          "type": "address"
        },
        {
          "indexed": true,
          "internalType": "uint256",
          "name": "tokenId",
          "type": "uint256"
        }
      ],
      "name": "Transfer",
      "type": "event"
    },
    {
      "inputs": [
        {
          "internalType": "address",
          "name": "to",
          "type": "address"
        },
        {
          "internalType": "uint256",
          "name": "tokenId",
          "type": "uint256"
        }
      ],
      "name": "approve",
      "outputs": [],
      "stateMutability": "nonpayable",
      "type": "function"
    },
    {
      "inputs": [
        {
          "internalType": "address",
          "name": "owner",
          "type": "address"
        }
      ],
      "name": "balanceOf",
      "outputs": [
        {
          "internalType": "uint256",
          "name": "",
          "type": "uint256"
        }
      ],
      "stateMutability": "view",
      "type": "function"
    },
    {
      "inputs": [
        {
          "internalType": "uint256",
          "name": "tokenId",
          "type": "uint256"
        }
      ],
      "name": "burn",
      "outputs": [],
      "stateMutability": "nonpayable",
      "type": "function"
    },
    {
      "inputs": [
        {
          "internalType": "uint256",
          "name": "tokenId",
          "type": "uint256"
        }
      ],
      "name": "getActiveState",
      "outputs": [
        {
          "internalType": "bool",
          "name": "",
          "type": "bool"
        }
      ],
      "stateMutability": "view",
      "type": "function"
    },
    {
      "inputs": [
        {
          "internalType": "uint256",
          "name": "tokenId",
          "type": "uint256"
        }
      ],
      "name": "getApproved",
      "outputs": [
        {
          "internalType": "address",
          "name": "",
          "type": "address"
        }
      ],
      "stateMutability": "view",
      "type": "function"
    },
    {
      "inputs": [],
      "name": "getCap",
      "outputs": [
        {
          "internalType": "uint256",
          "name": "",
          "type": "uint256"
        }
      ],
      "stateMutability": "view",
      "type": "function"
    },
    {
      "inputs": [],
      "name": "getLTVBoost",
      "outputs": [
        {
          "internalType": "uint256",
          "name": "",
          "type": "uint256"
        }
      ],
      "stateMutability": "view",
      "type": "function"
    },
    {
      "inputs": [
        {
          "internalType": "uint256",
          "name": "locktime",
          "type": "uint256"
        }
      ],
      "name": "getNativeTokenReward",
      "outputs": [
        {
          "internalType": "uint256",
          "name": "",
          "type": "uint256"
        }
      ],
      "stateMutability": "view",
      "type": "function"
    },
    {
      "inputs": [],
      "name": "getPrice",
      "outputs": [
        {
          "internalType": "uint256",
          "name": "",
          "type": "uint256"
        }
      ],
      "stateMutability": "view",
      "type": "function"
    },
    {
      "inputs": [
        {
          "internalType": "uint256",
          "name": "tokenId",
          "type": "uint256"
        }
      ],
      "name": "getUnlockTimestamp",
      "outputs": [
        {
          "internalType": "uint256",
          "name": "",
          "type": "uint256"
        }
      ],
      "stateMutability": "view",
      "type": "function"
    },
    {
      "inputs": [
        {
          "internalType": "contract IAddressesProvider",
          "name": "addressProvider",
          "type": "address"
        },
        {
          "internalType": "string",
          "name": "name",
          "type": "string"
        },
        {
          "internalType": "string",
          "name": "symbol",
          "type": "string"
        },
        {
          "internalType": "uint256",
          "name": "cap",
          "type": "uint256"
        },
        {
          "internalType": "uint256",
          "name": "price",
          "type": "uint256"
        },
        {
          "internalType": "uint256",
          "name": "ltvBoost",
          "type": "uint256"
        },
        {
          "internalType": "uint256",
          "name": "nativeTokenFactor",
          "type": "uint256"
        },
        {
          "internalType": "uint256",
          "name": "maxLocktime",
          "type": "uint256"
        },
        {
          "internalType": "uint256",
          "name": "minLocktime",
          "type": "uint256"
        },
        {
          "internalType": "address payable",
          "name": "devAddress",
          "type": "address"
        }
      ],
      "name": "initialize",
      "outputs": [],
      "stateMutability": "nonpayable",
      "type": "function"
    },
    {
      "inputs": [
        {
          "internalType": "address",
          "name": "owner",
          "type": "address"
        },
        {
          "internalType": "address",
          "name": "operator",
          "type": "address"
        }
      ],
      "name": "isApprovedForAll",
      "outputs": [
        {
          "internalType": "bool",
          "name": "",
          "type": "bool"
        }
      ],
      "stateMutability": "view",
      "type": "function"
    },
    {
      "inputs": [
        {
          "internalType": "uint256",
          "name": "locktime",
          "type": "uint256"
        },
        {
          "internalType": "string",
          "name": "uri",
          "type": "string"
        }
      ],
      "name": "mint",
      "outputs": [
        {
          "internalType": "uint256",
          "name": "",
          "type": "uint256"
        }
      ],
      "stateMutability": "payable",
      "type": "function"
    },
    {
      "inputs": [],
      "name": "mintCount",
      "outputs": [
        {
          "internalType": "uint256",
          "name": "",
          "type": "uint256"
        }
      ],
      "stateMutability": "view",
      "type": "function"
    },
    {
      "inputs": [],
      "name": "name",
      "outputs": [
        {
          "internalType": "string",
          "name": "",
          "type": "string"
        }
      ],
      "stateMutability": "view",
      "type": "function"
    },
    {
      "inputs": [],
      "name": "owner",
      "outputs": [
        {
          "internalType": "address",
          "name": "",
          "type": "address"
        }
      ],
      "stateMutability": "view",
      "type": "function"
    },
    {
      "inputs": [
        {
          "internalType": "uint256",
          "name": "tokenId",
          "type": "uint256"
        }
      ],
      "name": "ownerOf",
      "outputs": [
        {
          "internalType": "address",
          "name": "",
          "type": "address"
        }
      ],
      "stateMutability": "view",
      "type": "function"
    },
    {
      "inputs": [],
      "name": "renounceOwnership",
      "outputs": [],
      "stateMutability": "nonpayable",
      "type": "function"
    },
    {
      "inputs": [
        {
          "internalType": "address",
          "name": "from",
          "type": "address"
        },
        {
          "internalType": "address",
          "name": "to",
          "type": "address"
        },
        {
          "internalType": "uint256",
          "name": "tokenId",
          "type": "uint256"
        }
      ],
      "name": "safeTransferFrom",
      "outputs": [],
      "stateMutability": "nonpayable",
      "type": "function"
    },
    {
      "inputs": [
        {
          "internalType": "address",
          "name": "from",
          "type": "address"
        },
        {
          "internalType": "address",
          "name": "to",
          "type": "address"
        },
        {
          "internalType": "uint256",
          "name": "tokenId",
          "type": "uint256"
        },
        {
          "internalType": "bytes",
          "name": "data",
          "type": "bytes"
        }
      ],
      "name": "safeTransferFrom",
      "outputs": [],
      "stateMutability": "nonpayable",
      "type": "function"
    },
    {
      "inputs": [
        {
          "internalType": "uint256",
          "name": "tokenId",
          "type": "uint256"
        },
        {
          "internalType": "bool",
          "name": "newState",
          "type": "bool"
        }
      ],
      "name": "setActiveState",
      "outputs": [],
      "stateMutability": "nonpayable",
      "type": "function"
    },
    {
      "inputs": [
        {
          "internalType": "address",
          "name": "operator",
          "type": "address"
        },
        {
          "internalType": "bool",
          "name": "approved",
          "type": "bool"
        }
      ],
      "name": "setApprovalForAll",
      "outputs": [],
      "stateMutability": "nonpayable",
      "type": "function"
    },
    {
      "inputs": [
        {
          "internalType": "uint256",
          "name": "newLTVBoost",
          "type": "uint256"
        }
      ],
      "name": "setLTVBoost",
      "outputs": [],
      "stateMutability": "nonpayable",
      "type": "function"
    },
    {
      "inputs": [
        {
          "internalType": "address",
          "name": "pool",
          "type": "address"
        }
      ],
      "name": "setTradingPool",
      "outputs": [],
      "stateMutability": "nonpayable",
      "type": "function"
    },
    {
      "inputs": [
        {
          "internalType": "bytes4",
          "name": "interfaceId",
          "type": "bytes4"
        }
      ],
      "name": "supportsInterface",
      "outputs": [
        {
          "internalType": "bool",
          "name": "",
          "type": "bool"
        }
      ],
      "stateMutability": "view",
      "type": "function"
    },
    {
      "inputs": [],
      "name": "symbol",
      "outputs": [
        {
          "internalType": "string",
          "name": "",
          "type": "string"
        }
      ],
      "stateMutability": "view",
      "type": "function"
    },
    {
      "inputs": [
        {
          "internalType": "uint256",
          "name": "index",
          "type": "uint256"
        }
      ],
      "name": "tokenByIndex",
      "outputs": [
        {
          "internalType": "uint256",
          "name": "",
          "type": "uint256"
        }
      ],
      "stateMutability": "view",
      "type": "function"
    },
    {
      "inputs": [
        {
          "internalType": "address",
          "name": "owner",
          "type": "address"
        },
        {
          "internalType": "uint256",
          "name": "index",
          "type": "uint256"
        }
      ],
      "name": "tokenOfOwnerByIndex",
      "outputs": [
        {
          "internalType": "uint256",
          "name": "",
          "type": "uint256"
        }
      ],
      "stateMutability": "view",
      "type": "function"
    },
    {
      "inputs": [
        {
          "internalType": "uint256",
          "name": "tokenId",
          "type": "uint256"
        }
      ],
      "name": "tokenURI",
      "outputs": [
        {
          "internalType": "string",
          "name": "",
          "type": "string"
        }
      ],
      "stateMutability": "view",
      "type": "function"
    },
    {
      "inputs": [],
      "name": "totalSupply",
      "outputs": [
        {
          "internalType": "uint256",
          "name": "",
          "type": "uint256"
        }
      ],
      "stateMutability": "view",
      "type": "function"
    },
    {
      "inputs": [
        {
          "internalType": "address",
          "name": "from",
          "type": "address"
        },
        {
          "internalType": "address",
          "name": "to",
          "type": "address"
        },
        {
          "internalType": "uint256",
          "name": "tokenId",
          "type": "uint256"
        }
      ],
      "name": "transferFrom",
      "outputs": [],
      "stateMutability": "nonpayable",
      "type": "function"
    },
    {
      "inputs": [
        {
          "internalType": "address",
          "name": "newOwner",
          "type": "address"
        }
      ],
      "name": "transferOwnership",
      "outputs": [],
      "stateMutability": "nonpayable",
      "type": "function"
    },
    {
      "stateMutability": "payable",
      "type": "receive"
    }
  ],
  "bytecode": "0x6080806040523461001657613261908161001c8239f35b600080fdfe608080604052600436101561001d575b50361561001b57600080fd5b005b600090813560e01c90816301ffc9a71461213f5750806306fdde0314612099578063081812fc1461207a578063095ea7b314611f0557806318160ddd14611ee757806323b872dd14611ec257806329e5589814611dd85780632f745c5914611d2b57806342842e0e14611cce57806342966c681461162b5780634f6ccce714611599578063554d578d1461157a5780635ca67d9b1461155b5780635e726b981461153c5780636352211e1461150b5780636de010a4146114db57806370a08231146114b757806370cda01a14611472578063715018a61461141357806377097fc814610a595780638a34711d14610a325780638da5cb5b14610a0857806395d89b41146109375780639659867e146108f657806398d5fdca146108d7578063a22cb465146107ff578063b88d4fde14610778578063c87b56dd14610740578063d482ef9b14610291578063e985e9c51461023d578063ec399a27146102195763f2fde38b0361000f57346102165760203660031901126102165761019f61220e565b6101a7612356565b6001600160a01b038116156101c2576101bf906123af565b80f35b60405162461bcd60e51b815260206004820152602660248201527f4f776e61626c653a206e6577206f776e657220697320746865207a65726f206160448201526564647265737360d01b6064820152608490fd5b80fd5b503461021657602036600319011261021657610233612356565b6004356101995580f35b50346102165760403660031901126102165761025761220e565b6040610261612229565b9260018060a01b038093168152606a602052209116600052602052602060ff604060002054166040519015158152f35b503461021657610140366003190112610216576004356001600160a01b038181169182900361073c5767ffffffffffffffff91602435838111610738576102dc903690600401612328565b929093604435818111610734576102f7903690600401612328565b9095610124359384168094036107305787549660ff8860081c161596878098610723575b801561070c575b156106b0576103869261037e9160019a8a8d8d60ff19841617905561069f575b5061036e60ff8d5460081c1661035781612bbd565b61036081612bbd565b61036981612bbd565b612bbd565b610377336123af565b36916122f1565b9236916122f1565b61039a60ff895460081c1661036981612bbd565b815183811161068b57806103af6065546124e2565b93601f9485811161063f575b506020908583116001146105c0578b926105b5575b5050600019600383901b1c191690881b176065555b80519283116105a1579082916103fc6066546124e2565b82811161054b575b5060209183116001146104cc5788926104c1575b5050600019600383901b1c191690851b176066555b6001600160601b0360a01b916101919083825416179055606435610192556084356101935560a4356101995560c4356101965560e4356101945561010435610195556101989182541617905561019a82815401905561048a575080f35b60207f7f26b83ff96e1f2b6a682f133852f6798a09c465da95921460cefb38474024989161ff00198454168455604051908152a180f35b015190503880610418565b606689528793507f46501879b8ca8525e8c2fd519e2fbfcfa2ebea26501294aa02cbfcfb12e943549190601f1984168a5b8181106105335750841161051a575b505050811b0160665561042d565b015160001960f88460031b161c1916905538808061050c565b8284015185558a9690940193602093840193016104fd565b6105929060668b527f46501879b8ca8525e8c2fd519e2fbfcfa2ebea26501294aa02cbfcfb12e943548480870160051c82019260208810610598575b0160051c0190612c1d565b38610404565b92508192610587565b634e487b7160e01b88526041600452602488fd5b0151905038806103d0565b60658c528a93507f8ff97419363ffd7000167f130ef7168fbea05faf9251824ca5043f113cc6a7c79190601f1984168d5b8181106106275750841161060e575b505050811b016065556103e5565b015160001960f88460031b161c19169055388080610600565b8284015185558d9690940193602093840193016105f1565b6106859060658d527f8ff97419363ffd7000167f130ef7168fbea05faf9251824ca5043f113cc6a7c78780860160051c82019260208710610598570160051c0190612c1d565b386103bb565b634e487b7160e01b89526041600452602489fd5b61ffff1916610101178c5538610342565b60405162461bcd60e51b815260206004820152602e60248201527f496e697469616c697a61626c653a20636f6e747261637420697320616c72656160448201526d191e481a5b9a5d1a585b1a5e995960921b6064820152608490fd5b50303b1580156103225750600160ff8a1614610322565b50600160ff8a161061031b565b8780fd5b8680fd5b8480fd5b8280fd5b503461021657602036600319011261021657610774610760600435612c34565b6040519182916020835260208301906121e9565b0390f35b50346102165760803660031901126102165761079261220e565b61079a612229565b906064359060443567ffffffffffffffff83116107385736602384011215610738576101bf936107d76107fa9436906024816004013591016122f1565b926107ea6107e58433612633565b61255a565b6107f58383836126fb565b612af5565b61260f565b50346102165760403660031901126102165761081961220e565b610821612274565b6001600160a01b039091169033821461089257338352606a60205260408320826000526020526108618160406000209060ff801983541691151516179055565b60405190151581527f17307eab39ab6107e8899845ad3d59bd9653f200f220920489ca2b5937696c3160203392a380f35b60405162461bcd60e51b815260206004820152601960248201527f4552433732313a20617070726f766520746f2063616c6c6572000000000000006044820152606490fd5b5034610216578060031936011261021657602061019354604051908152f35b503461021657806003193601126102165761019a5460001981019190821161092357602082604051908152f35b634e487b7160e01b81526011600452602490fd5b50346102165780600319360112610216576040519080606654610959816124e2565b808552916001918083169081156109de5750600114610983575b61077485610760818703826122b3565b9250606683527f46501879b8ca8525e8c2fd519e2fbfcfa2ebea26501294aa02cbfcfb12e943545b8284106109c657505050810160200161076082610774610973565b805460208587018101919091529093019281016109ab565b8695506107749693506020925061076094915060ff191682840152151560051b8201019293610973565b503461021657806003193601126102165761012d546040516001600160a01b039091168152602090f35b5034610216576020366003190112610216576020610a5160043561314e565b604051908152f35b5060403660031901126102165760243567ffffffffffffffff8111611196573660238201121561119657610a979036906024816004013591016122f1565b610a9f6130ab565b610197546001600160a01b031680156113ce5761019a54916101925483116113895761019554600435106113455761019454600435116113005761019354918234036112bb576001600160ff1b038316830361124757604080516314f0597960e01b815291829060049082905afa9081156112b0578591611281575b50805161125b575060038260011b04613a989081810291818304149015171561124757905b610191546040516315b9ba5d60e01b81528691602090829060049082906001600160a01b03165afa9081156111a2578291611228575b506001600160a01b0381163b15611196576040516302a1453160e21b8152600481018590529082908290602490829084906001600160a01b03165af180156111a257611214575b5050610191546040516315b9ba5d60e01b815290602090829060049082906001600160a01b03165afa80156111dc5783602091610c379389916111e7575b506101975460405163095ea7b360e01b81526001600160a01b0390911660048201526024810192909252909283919082908a9082906044820190565b03926001600160a01b03165af180156111dc576111ad575b508460018060a01b036101975416926020610c9e6064604051610c7181612283565b60036001998a1b049485825284820152846040519889948593630b4c7e4d60e01b85526004850190613083565b8760448401525af19384156111a257829461116a575b5081808092610cd260018060a01b0361019854169161019354612fa1565b905af1610cdd6129d1565b5015611126576040516020810181811067ffffffffffffffff821117610f4e5760405285815233156110e257600085815260676020526040902054610d2e906001600160a01b031615155b15613102565b8460005261019b60205260ff6040600020541661107a5760995485600052609a60205280604060002055600160401b811015610f4e57610e3b91610d9987610d7e84896107fa9601609955612b70565b90919082549060031b600019811b9283911b16911916179055565b610da2336123f9565b33600052609760205260406000208160005260205287604060002055876000526098602052604060002055610def610d2888600052606760205260018060a01b0360406000205416151590565b338852606860205260408820868154019055868852606760205260408820336001600160601b0360a01b82541617905586338960008051602061320c8339815191528180a48633612a01565b6000848152606760205260409020546001600160a01b03161561101e5783855260fb602052604085209080519067ffffffffffffffff821161100a578190610e8384546124e2565b601f8111610fcf575b50602090601f8311600114610f6f578892610f64575b5050600019600383901b1c191690841b1790555b60405190606082019082821067ffffffffffffffff831117610f4e576040918252428352600435602080850191825284840192835286885261019c8152968390209351845551848401555160029092019190915561019a80548301905580513381528085018490527f0f6798a560793a54c3bcfe86a93cde1e73087d944c0ea20544137d41213968859190a161015f55604051908152f35b634e487b7160e01b600052604160045260246000fd5b015190503880610ea2565b848952602089208794509190601f1984168a5b818110610fb757508411610f9e575b505050811b019055610eb6565b015160001960f88460031b161c19169055388080610f91565b82840151855589969094019360209384019301610f82565b610ffa90858a5260208a20601f850160051c81019160208610611000575b601f0160051c0190612c1d565b38610e8c565b9091508190610fed565b634e487b7160e01b87526041600452602487fd5b60405162461bcd60e51b815260206004820152602e60248201527f45524337323155524953746f726167653a2055524920736574206f66206e6f6e60448201526d32bc34b9ba32b73a103a37b5b2b760911b6064820152608490fd5b60405162461bcd60e51b815260206004820152603a60248201527f43616e6e6f74207472616e7366657220746f6b656e202d2063757272656e746c6044820152793c903637b1b5b2b21034b71030b71030b1ba34bb32903637b0b760311b6064820152608490fd5b606460405162461bcd60e51b815260206004820152602060248201527f4552433732313a206d696e7420746f20746865207a65726f20616464726573736044820152fd5b606460405162461bcd60e51b815260206004820152602060248201527f4661696c656420746f2073656e6420457468657220746f206465762066756e646044820152fd5b9093506020813d60201161119a575b81611186602093836122b3565b8101031261119657519281610cb4565b5080fd5b3d9150611179565b6040513d84823e3d90fd5b6111ce9060203d6020116111d5575b6111c681836122b3565b81019061306b565b5038610c4f565b503d6111bc565b6040513d88823e3d90fd5b6112079150833d851161120d575b6111ff81836122b3565b810190612f82565b38610bfb565b503d6111f5565b61121d9061229f565b610738578438610bbd565b611241915060203d60201161120d576111ff81836122b3565b38610b76565b634e487b7160e01b85526011600452602485fd5b80611273602061127b93015160038660011b04612fc4565b905190612f62565b90610b40565b6112a3915060403d6040116112a9575b61129b81836122b3565b81019061301c565b38610b1b565b503d611291565b6040513d87823e3d90fd5b60405162461bcd60e51b815260206004820152601e60248201527f54782076616c7565206973206e6f7420657175616c20746f20707269636500006044820152606490fd5b60405162461bcd60e51b815260206004820152601d60248201527f4c6f636b74696d6520697320686967686572207468616e206c696d69740000006044820152606490fd5b606460405162461bcd60e51b815260206004820152602060248201527f4c6f636b74696d65206973206c6f776572207468616e207468726573686f6c646044820152fd5b60405162461bcd60e51b815260206004820152601960248201527f416c6c204e4654732068617665206265656e206d696e746564000000000000006044820152606490fd5b60405162461bcd60e51b815260206004820152601d60248201527f496e63656e746976697a656420706f6f6c206973206e6f74207365742e0000006044820152606490fd5b503461021657806003193601126102165761142c612356565b61012d80546001600160a01b031981169091556000906001600160a01b03167f8be0079c531659141344cd1fd0a4f28419497f9722a3daafe3b4186f6b6457e08280a380f35b50346102165760203660031901126102165761148c61220e565b611494612356565b61019780546001600160a01b0319166001600160a01b0390921691909117905580f35b5034610216576020366003190112610216576020610a516114d661220e565b6123f9565b50346102165760203660031901126102165760ff6040602092600435815261019b84522054166040519015158152f35b503461021657602036600319011261021657602061152a6004356124bc565b6040516001600160a01b039091168152f35b5034610216576020366003190112610216576020610a51600435612fd7565b5034610216578060031936011261021657602061019954604051908152f35b5034610216578060031936011261021657602061019254604051908152f35b5034610216576020366003190112610216576004356099548110156115d1576115c3602091612b70565b90546040519160031b1c8152f35b60405162461bcd60e51b815260206004820152602c60248201527f455243373231456e756d657261626c653a20676c6f62616c20696e646578206f60448201526b7574206f6620626f756e647360a01b6064820152608490fd5b50346102165760209081600319360112610216576004359161164b6130ab565b6001600160a01b03928361165e826124bc565b163303611c985761166e8161314e565b4210611c5b578361019754169381845261019c8084528460406002818320015497608482519961169d8b612283565b848b5284898c015283519485938492633eb1719f60e01b845260048401526116ca60249d8e850190613083565b3360648401525af180156111dc57611c3c575b50610191828154169060405186816004816315b9ba5d60e01b968782525afa908115611c10579085918991611c1f575b5016858852838752611725600160408a200154612fd7565b813b15611c1b5788918a839260405194859384926302a1453160e21b845260048401525af18015611c1057611bfb575b5083869154169160046040518094819382525afa9081156111dc5791836117ca92611821948991611bde575b50169085885286528680896117d861179f6001604085200154612fd7565b6040805163a9059cbb60e01b8d82019081523395820195865260208601939093529791938892910190565b03601f1981018752866122b3565b604051946117e586612283565b8986527f5361666545524332303a206c6f772d6c6576656c2063616c6c206661696c65648a870152519082855af161181b6129d1565b91613172565b8051908482611b6b575b505050611837826124bc565b8260005261019b845260ff60406000205416611b04578082169081611a5357505060995482600052609a845280604060002055600160401b811015611a3e5782610d7e82600161188a9401609955612b70565b6099546000199590868101908111611a295783600052609a85526118b360406000205491612b70565b90549060031b1c6118c781610d7e84612b70565b600052609a85526040600020558260005260006040812055609954908115611a1557509385839282977fb90306ad06b2a6ff86ddc9327db583062895ef6540e62dc50add009db5b356eb970161191c81612b70565b8482549160031b1b19169055609955611934846124bc565b908484526069875260408420916001600160601b0360a01b9283815416905516918284526068875260408420908154019055838352606786526040832090815416905560008051602061320c8339815191528280a460fb825261199a60408520546124e2565b6119af575b604051908152a1600161015f5580f35b80845260fb825283604081206119c581546124e2565b806119d3575b50505061199f565b601f81116001146119ed575060009150555b8338806119cb565b818352848320611a0891601f0160051c810190600101612c1d565b60008483209155556119e5565b634e487b7160e01b60009081526031600452fd5b50634e487b7160e01b60009081526011600452fd5b85634e487b7160e01b60005260416004526000fd5b611a5c906123f9565b600019810191908211611aef578360005260988552604060002054828103611aa9575b5083600052600060408120556000526097845260406000209060005283526000604081205561188a565b8160005260978652604060002083600052865260406000205482600052609787526040600020826000528752806040600020556000526098865260406000205538611a7f565b86634e487b7160e01b60005260116004526000fd5b60405162461bcd60e51b815260048101859052603a818801527f43616e6e6f74207472616e7366657220746f6b656e202d2063757272656e746c6044820152793c903637b1b5b2b21034b71030b71030b1ba34bb32903637b0b760311b6064820152608490fd5b80611b7a93830101910161306b565b15611b875738808461182b565b60405162461bcd60e51b815260048101849052602a818701527f5361666545524332303a204552433230206f7065726174696f6e20646964206e6044820152691bdd081cdd58d8d9595960b21b6064820152608490fd5b611bf59150883d8a1161120d576111ff81836122b3565b38611781565b869197611c08869261229f565b979150611755565b6040513d8a823e3d90fd5b8880fd5b611c369150883d8a1161120d576111ff81836122b3565b3861170d565b611c549060403d6040116112a95761129b81836122b3565b50386116dd565b60405162461bcd60e51b8152600481018390526015602482015274151bdad95b881a5cc81cdd1a5b1b081b1bd8dad959605a1b6044820152606490fd5b60405162461bcd60e51b815260048101839052600e60248201526d26bab9ba1037bbb7103a37b5b2b760911b6044820152606490fd5b503461021657611cdd3661223f565b90604051926020840184811067ffffffffffffffff821117611d1757916107fa93916101bf95936040528684526107ea6107e58433612633565b634e487b7160e01b86526041600452602486fd5b503461021657604036600319011261021657611d4561220e565b60243591611d52826123f9565b831015611d7f5760209260409260018060a01b031682526097845282822090825283522054604051908152f35b60405162461bcd60e51b815260206004820152602b60248201527f455243373231456e756d657261626c653a206f776e657220696e646578206f7560448201526a74206f6620626f756e647360a81b6064820152608490fd5b503461021657604036600319011261021657611df2612274565b610191546040516302690e7760e11b81526001600160a01b03916020908290600490829086165afa908115611eb7578491611e99575b50163303611e54576101bf90600435835261019b602052604083209060ff801983541691151516179055565b60405162461bcd60e51b815260206004820152601e60248201527f43616c6c6572206d757374206265204d61726b657420636f6e747261637400006044820152606490fd5b611eb1915060203d811161120d576111ff81836122b3565b38611e28565b6040513d86823e3d90fd5b5034610216576101bf611ed43661223f565b91611ee26107e58433612633565b6126fb565b50346102165780600319360112610216576020609954604051908152f35b503461021657604036600319011261021657611f1f61220e565b602435906001600160a01b038080611f36856124bc565b1692169180831461202b5780331490811561200a575b5015611f9f5782845260696020526040842080546001600160a01b03191683179055611f77836124bc565b167f8c5be1e5ebec7d5bd14f71427d1e84f3dd0314c0f7b2291e5b200ac8c7c3b9258480a480f35b60405162461bcd60e51b815260206004820152603d60248201527f4552433732313a20617070726f76652063616c6c6572206973206e6f7420746f60448201527f6b656e206f776e6572206f7220617070726f76656420666f7220616c6c0000006064820152608490fd5b90508452606a6020526040842033855260205260ff60408520541638611f4c565b60405162461bcd60e51b815260206004820152602160248201527f4552433732313a20617070726f76616c20746f2063757272656e74206f776e656044820152603960f91b6064820152608490fd5b503461021657602036600319011261021657602061152a60043561251c565b503461021657806003193601126102165760405190806065546120bb816124e2565b808552916001918083169081156109de57506001146120e45761077485610760818703826122b3565b9250606583527f8ff97419363ffd7000167f130ef7168fbea05faf9251824ca5043f113cc6a7c75b82841061212757505050810160200161076082610774610973565b8054602085870181019190915290930192810161210c565b9050346111965760203660031901126111965760043563ffffffff60e01b811680910361073c576020925063780e9d6360e01b8114908115612183575b5015158152f35b6380ac58cd60e01b8114915081156121b5575b81156121a4575b503861217c565b6301ffc9a760e01b1490503861219d565b635b5e139f60e01b81149150612196565b60005b8381106121d95750506000910152565b81810151838201526020016121c9565b90602091612202815180928185528580860191016121c6565b601f01601f1916010190565b600435906001600160a01b038216820361222457565b600080fd5b602435906001600160a01b038216820361222457565b6060906003190112612224576001600160a01b0390600435828116810361222457916024359081168103612224579060443590565b60243590811515820361222457565b6040810190811067ffffffffffffffff821117610f4e57604052565b67ffffffffffffffff8111610f4e57604052565b90601f8019910116810190811067ffffffffffffffff821117610f4e57604052565b67ffffffffffffffff8111610f4e57601f01601f191660200190565b9291926122fd826122d5565b9161230b60405193846122b3565b829481845281830111612224578281602093846000960137010152565b9181601f840112156122245782359167ffffffffffffffff8311612224576020838186019501011161222457565b61012d546001600160a01b0316330361236b57565b606460405162461bcd60e51b815260206004820152602060248201527f4f776e61626c653a2063616c6c6572206973206e6f7420746865206f776e65726044820152fd5b61012d80546001600160a01b039283166001600160a01b0319821681179092559091167f8be0079c531659141344cd1fd0a4f28419497f9722a3daafe3b4186f6b6457e0600080a3565b6001600160a01b0316801561241957600052606860205260406000205490565b60405162461bcd60e51b815260206004820152602960248201527f4552433732313a2061646472657373207a65726f206973206e6f7420612076616044820152683634b21037bbb732b960b91b6064820152608490fd5b1561247757565b60405162461bcd60e51b815260206004820152601860248201527f4552433732313a20696e76616c696420746f6b656e20494400000000000000006044820152606490fd5b6000908152606760205260409020546001600160a01b03166124df811515612470565b90565b90600182811c92168015612512575b60208310146124fc57565b634e487b7160e01b600052602260045260246000fd5b91607f16916124f1565b60008181526067602052604090205461253f906001600160a01b03161515612470565b6000908152606960205260409020546001600160a01b031690565b1561256157565b60405162461bcd60e51b815260206004820152602d60248201527f4552433732313a2063616c6c6572206973206e6f7420746f6b656e206f776e6560448201526c1c881bdc88185c1c1c9bdd9959609a1b6064820152608490fd5b60809060208152603260208201527f4552433732313a207472616e7366657220746f206e6f6e20455243373231526560408201527131b2b4bb32b91034b6b83632b6b2b73a32b960711b60608201520190565b1561261657565b60405162461bcd60e51b81528061262f600482016125bc565b0390fd5b906001600160a01b038080612647846124bc565b1693169183831493841561267a575b508315612664575b50505090565b6126709192935061251c565b161438808061265e565b909350600052606a60205260406000208260005260205260ff604060002054169238612656565b156126a857565b60405162461bcd60e51b815260206004820152602560248201527f4552433732313a207472616e736665722066726f6d20696e636f72726563742060448201526437bbb732b960d91b6064820152608490fd5b9061272190612709846124bc565b6001600160a01b0384811693909291831684146126a1565b8181169384156129805760009286845260209261019b845260409260ff848720541661291957878791821560001461283457505050609954888652609a85528084872055600160401b811015611d175786889360008051602061320c8339815191529796959361279e8c610d7e8660016127b79801609955612b70565b828603612806575b506127b08b6124bc565b16146126a1565b878452606983526067818520936001600160601b0360a01b94858154169055878652606881528286206000198154019055838652828620600181540190558986525283209182541617905580a4565b61280f906123f9565b8588526097875284882081895287528b858920558b88526098875284882055386127a6565b8183989796949295930361285e575b50956127b79160008051602061320c8339815191529761279e565b90929495965061286f9193506123f9565b600019810190811161290557868893879695936127b7938c60008051602061320c8339815191529a5260988852858920548181036128ce575b508c89528886812055838952609788528589209089528752878581205591975091612843565b848a5260978952868a20828b528952868a2054858b5260978a52878b20828c528a5280888c20558a5260988952868a2055386128a8565b634e487b7160e01b86526011600452602486fd5b835162461bcd60e51b815260048101869052603a60248201527f43616e6e6f74207472616e7366657220746f6b656e202d2063757272656e746c6044820152793c903637b1b5b2b21034b71030b71030b1ba34bb32903637b0b760311b6064820152608490fd5b60405162461bcd60e51b8152602060048201526024808201527f4552433732313a207472616e7366657220746f20746865207a65726f206164646044820152637265737360e01b6064820152608490fd5b3d156129fc573d906129e2826122d5565b916129f060405193846122b3565b82523d6000602084013e565b606090565b9091600091803b15612aec57612a4c6020918493604051948580948193630a85bd0160e11b9a8b845233600485015284602485015260448401526080606484015260848301906121e9565b03926001600160a01b03165af190829082612aa4575b5050612a9657612a706129d1565b80519081612a915760405162461bcd60e51b81528061262f600482016125bc565b602001fd5b6001600160e01b0319161490565b909192506020813d8211612ae4575b81612ac0602093836122b3565b810103126111965751906001600160e01b0319821682036102165750903880612a62565b3d9150612ab3565b50505050600190565b91926000929190813b15612b6657602091612b4b9185604051958680958194630a85bd0160e11b9b8c845233600485015260018060a01b03809516602485015260448401526080606484015260848301906121e9565b0393165af190829082612aa4575050612a9657612a706129d1565b5050505050600190565b609954811015612ba75760996000527f72a152ddfb8e864297c917af52ea6c1c68aead0fee1a62673fcc7e0c94979d000190600090565b634e487b7160e01b600052603260045260246000fd5b15612bc457565b60405162461bcd60e51b815260206004820152602b60248201527f496e697469616c697a61626c653a20636f6e7472616374206973206e6f74206960448201526a6e697469616c697a696e6760a81b6064820152608490fd5b818110612c28575050565b60008155600101612c1d565b600081815260676020526040902054612c57906001600160a01b03161515612470565b60009080825260209060fb82526040928381209184518284549082612c7b836124e2565b91828252888201976001948a8682169182600014612f44575050600114612f06575b50612caa925003836122b3565b8651612cb581612283565b60079586825266697066733a2f2f60c81b9384898401528051612eac57505050600083815260676020526040902054612cf8906001600160a01b03161515612470565b865194612d0486612283565b855285850191825282839185947a184f03e93ff9f4daa797ed6e38ed64bf6a1f0100000000000000009081811015612e9f575b5050876d04ee2d6d415b85acef810000000080851015612e91575b5050662386f26fc1000080841015612e82575b506305f5e10080841015612e73575b5061271080841015612e64575b506064831015612e54575b600a80931015612e4b575b9081602186612dc0838d9901612db8612daf826122d5565b9a519a8b6122b3565b808a526122d5565b888c019990601f1901368b3750870101905b612e15575b5050505090612e096124df95949392612dfa9751978895518092888801906121c6565b840191518093868401906121c6565b010380845201826122b3565b600019019083906f181899199a1a9b1b9c1cb0b131b232b360811b8282061a835304918215612e4657919082612dd2565b612dd7565b80940193612d97565b9391606460029104920193612d8c565b60049195930492019338612d81565b60089195930492019338612d74565b60109195930492019338612d65565b950194909204918738612d52565b8a96500492503880612d37565b93509350949596905051958694845b878110612ef05750505091612ee184926124df96946027809701938452519283916121c6565b810103908101845201826122b3565b8181018301518982018401528896508201612ebb565b915050855282878087208488915b858310612f2b575050612caa935082010138612c9d565b8091929450548385890101520191018890848693612f14565b60ff19168b52612caa95151560051b8501019250389150612c9d9050565b8115612f6c570490565b634e487b7160e01b600052601260045260246000fd5b9081602091031261222457516001600160a01b03811681036122245790565b91908203918211612fae57565b634e487b7160e01b600052601160045260246000fd5b81810292918115918404141715612fae57565b612ff5612fff91612fef6101925461019a5490612fa1565b90612fc4565b6101965490612f62565b670de0b6b3a764000090818102918183041490151715612fae5790565b906040828203126122245780601f83011215612224576040519161303f83612283565b82906040810192831161222457905b82821061305b5750505090565b815181526020918201910161304e565b90816020910312612224575180151581036122245790565b6000915b6002831061309457505050565b600190825181526020809101920192019190613087565b61015f60028154146130bd5760029055565b60405162461bcd60e51b815260206004820152601f60248201527f5265656e7472616e637947756172643a207265656e7472616e742063616c6c006044820152606490fd5b1561310957565b60405162461bcd60e51b815260206004820152601c60248201527f4552433732313a20746f6b656e20616c7265616479206d696e746564000000006044820152606490fd5b60005261019c6020526040600020546001604060002001548101809111612fae5790565b919290156131d45750815115613186575090565b3b1561318f5790565b60405162461bcd60e51b815260206004820152601d60248201527f416464726573733a2063616c6c20746f206e6f6e2d636f6e74726163740000006044820152606490fd5b8251909150156131e75750805190602001fd5b60405162461bcd60e51b81526020600482015290819061262f9060248301906121e956feddf252ad1be2c89b69c2b068fc378daa952ba7f163c4a11628f55a4df523b3efa264697066735822122033c5e6648a261bbe5dab29a13059fadcfcc60869d862a5f75f552c90ab065fe464736f6c63430008110033",
  "linkReferences": {},
  "deployedLinkReferences": {}
}