{
  "_format": "hh-sol-artifact-1",
  "contractName": "GenesisNFT",
  "sourceName": "contracts/protocol/GenesisNFT.sol",
  "abi": [
    {
      "inputs": [],
      "stateMutability": "nonpayable",
      "type": "constructor"
    },
    {
      "anonymous": false,
      "inputs": [
        {
          "indexed": true,
          "internalType": "address",
          "name": "owner",
          "type": "address"
        },
        {
          "indexed": true,
          "internalType": "address",
          "name": "approved",
          "type": "address"
        },
        {
          "indexed": true,
          "internalType": "uint256",
          "name": "tokenId",
          "type": "uint256"
        }
      ],
      "name": "Approval",
      "type": "event"
    },
    {
      "anonymous": false,
      "inputs": [
        {
          "indexed": true,
          "internalType": "address",
          "name": "owner",
          "type": "address"
        },
        {
          "indexed": true,
          "internalType": "address",
          "name": "operator",
          "type": "address"
        },
        {
          "indexed": false,
          "internalType": "bool",
          "name": "approved",
          "type": "bool"
        }
      ],
      "name": "ApprovalForAll",
      "type": "event"
    },
    {
      "anonymous": false,
      "inputs": [
        {
          "indexed": false,
          "internalType": "uint256",
          "name": "tokenId",
          "type": "uint256"
        }
      ],
      "name": "Burn",
      "type": "event"
    },
    {
      "anonymous": false,
      "inputs": [
        {
          "indexed": false,
          "internalType": "uint8",
          "name": "version",
          "type": "uint8"
        }
      ],
      "name": "Initialized",
      "type": "event"
    },
    {
      "anonymous": false,
      "inputs": [
        {
          "indexed": false,
          "internalType": "address",
          "name": "owner",
          "type": "address"
        },
        {
          "indexed": false,
          "internalType": "uint256",
          "name": "tokenId",
          "type": "uint256"
        }
      ],
      "name": "Mint",
      "type": "event"
    },
    {
      "anonymous": false,
      "inputs": [
        {
          "indexed": true,
          "internalType": "address",
          "name": "previousOwner",
          "type": "address"
        },
        {
          "indexed": true,
          "internalType": "address",
          "name": "newOwner",
          "type": "address"
        }
      ],
      "name": "OwnershipTransferred",
      "type": "event"
    },
    {
      "anonymous": false,
      "inputs": [
        {
          "indexed": true,
          "internalType": "address",
          "name": "from",
          "type": "address"
        },
        {
          "indexed": true,
          "internalType": "address",
          "name": "to",
          "type": "address"
        },
        {
          "indexed": true,
          "internalType": "uint256",
          "name": "tokenId",
          "type": "uint256"
        }
      ],
      "name": "Transfer",
      "type": "event"
    },
    {
      "inputs": [
        {
          "internalType": "address",
          "name": "to",
          "type": "address"
        },
        {
          "internalType": "uint256",
          "name": "tokenId",
          "type": "uint256"
        }
      ],
      "name": "approve",
      "outputs": [],
      "stateMutability": "nonpayable",
      "type": "function"
    },
    {
      "inputs": [
        {
          "internalType": "address",
          "name": "owner",
          "type": "address"
        }
      ],
      "name": "balanceOf",
      "outputs": [
        {
          "internalType": "uint256",
          "name": "",
          "type": "uint256"
        }
      ],
      "stateMutability": "view",
      "type": "function"
    },
    {
      "inputs": [
        {
          "internalType": "uint256",
          "name": "tokenId",
          "type": "uint256"
        }
      ],
      "name": "burn",
      "outputs": [],
      "stateMutability": "nonpayable",
      "type": "function"
    },
    {
      "inputs": [
        {
          "internalType": "uint256",
          "name": "tokenId",
          "type": "uint256"
        }
      ],
      "name": "getActiveState",
      "outputs": [
        {
          "internalType": "bool",
          "name": "",
          "type": "bool"
        }
      ],
      "stateMutability": "view",
      "type": "function"
    },
    {
      "inputs": [
        {
          "internalType": "uint256",
          "name": "tokenId",
          "type": "uint256"
        }
      ],
      "name": "getApproved",
      "outputs": [
        {
          "internalType": "address",
          "name": "",
          "type": "address"
        }
      ],
      "stateMutability": "view",
      "type": "function"
    },
    {
      "inputs": [],
      "name": "getCap",
      "outputs": [
        {
          "internalType": "uint256",
          "name": "",
          "type": "uint256"
        }
      ],
      "stateMutability": "view",
      "type": "function"
    },
    {
      "inputs": [],
      "name": "getETHPrice",
      "outputs": [
        {
          "internalType": "uint256",
          "name": "",
          "type": "uint256"
        }
      ],
      "stateMutability": "view",
      "type": "function"
    },
    {
      "inputs": [
        {
          "internalType": "uint256",
          "name": "locktime",
          "type": "uint256"
        }
      ],
      "name": "getGenesisNativeTokens",
      "outputs": [
        {
          "internalType": "uint256",
          "name": "",
          "type": "uint256"
        }
      ],
      "stateMutability": "view",
      "type": "function"
    },
    {
      "inputs": [],
      "name": "getLTVBoost",
      "outputs": [
        {
          "internalType": "uint256",
          "name": "",
          "type": "uint256"
        }
      ],
      "stateMutability": "view",
      "type": "function"
    },
    {
      "inputs": [
        {
          "internalType": "uint256",
          "name": "tokenId",
          "type": "uint256"
        }
      ],
      "name": "getUnlockTimestamp",
      "outputs": [
        {
          "internalType": "uint256",
          "name": "",
          "type": "uint256"
        }
      ],
      "stateMutability": "view",
      "type": "function"
    },
    {
      "inputs": [
        {
          "internalType": "contract IAddressesProvider",
          "name": "addressProvider",
          "type": "address"
        },
        {
          "internalType": "string",
          "name": "name",
          "type": "string"
        },
        {
          "internalType": "string",
          "name": "symbol",
          "type": "string"
        },
        {
          "internalType": "uint256",
          "name": "cap",
          "type": "uint256"
        },
        {
          "internalType": "uint256",
          "name": "price",
          "type": "uint256"
        },
        {
          "internalType": "uint256",
          "name": "ltvBoost",
          "type": "uint256"
        },
        {
          "internalType": "uint256",
          "name": "nativeTokenFactor",
          "type": "uint256"
        },
        {
          "internalType": "uint256",
          "name": "maxLocktime",
          "type": "uint256"
        },
        {
          "internalType": "uint256",
          "name": "minLocktime",
          "type": "uint256"
        },
        {
          "internalType": "address payable",
          "name": "devAddress",
          "type": "address"
        }
      ],
      "name": "initialize",
      "outputs": [],
      "stateMutability": "nonpayable",
      "type": "function"
    },
    {
      "inputs": [
        {
          "internalType": "address",
          "name": "owner",
          "type": "address"
        },
        {
          "internalType": "address",
          "name": "operator",
          "type": "address"
        }
      ],
      "name": "isApprovedForAll",
      "outputs": [
        {
          "internalType": "bool",
          "name": "",
          "type": "bool"
        }
      ],
      "stateMutability": "view",
      "type": "function"
    },
    {
      "inputs": [
        {
          "internalType": "uint256",
          "name": "locktime",
          "type": "uint256"
        },
        {
          "internalType": "string",
          "name": "uri",
          "type": "string"
        }
      ],
      "name": "mint",
      "outputs": [
        {
          "internalType": "uint256",
          "name": "",
          "type": "uint256"
        }
      ],
      "stateMutability": "payable",
      "type": "function"
    },
    {
      "inputs": [],
      "name": "name",
      "outputs": [
        {
          "internalType": "string",
          "name": "",
          "type": "string"
        }
      ],
      "stateMutability": "view",
      "type": "function"
    },
    {
      "inputs": [],
      "name": "owner",
      "outputs": [
        {
          "internalType": "address",
          "name": "",
          "type": "address"
        }
      ],
      "stateMutability": "view",
      "type": "function"
    },
    {
      "inputs": [
        {
          "internalType": "uint256",
          "name": "tokenId",
          "type": "uint256"
        }
      ],
      "name": "ownerOf",
      "outputs": [
        {
          "internalType": "address",
          "name": "",
          "type": "address"
        }
      ],
      "stateMutability": "view",
      "type": "function"
    },
    {
      "inputs": [],
      "name": "renounceOwnership",
      "outputs": [],
      "stateMutability": "nonpayable",
      "type": "function"
    },
    {
      "inputs": [
        {
          "internalType": "address",
          "name": "from",
          "type": "address"
        },
        {
          "internalType": "address",
          "name": "to",
          "type": "address"
        },
        {
          "internalType": "uint256",
          "name": "tokenId",
          "type": "uint256"
        }
      ],
      "name": "safeTransferFrom",
      "outputs": [],
      "stateMutability": "nonpayable",
      "type": "function"
    },
    {
      "inputs": [
        {
          "internalType": "address",
          "name": "from",
          "type": "address"
        },
        {
          "internalType": "address",
          "name": "to",
          "type": "address"
        },
        {
          "internalType": "uint256",
          "name": "tokenId",
          "type": "uint256"
        },
        {
          "internalType": "bytes",
          "name": "data",
          "type": "bytes"
        }
      ],
      "name": "safeTransferFrom",
      "outputs": [],
      "stateMutability": "nonpayable",
      "type": "function"
    },
    {
      "inputs": [
        {
          "internalType": "uint256",
          "name": "tokenId",
          "type": "uint256"
        },
        {
          "internalType": "bool",
          "name": "newState",
          "type": "bool"
        }
      ],
      "name": "setActiveState",
      "outputs": [],
      "stateMutability": "nonpayable",
      "type": "function"
    },
    {
      "inputs": [
        {
          "internalType": "address",
          "name": "operator",
          "type": "address"
        },
        {
          "internalType": "bool",
          "name": "approved",
          "type": "bool"
        }
      ],
      "name": "setApprovalForAll",
      "outputs": [],
      "stateMutability": "nonpayable",
      "type": "function"
    },
    {
      "inputs": [
        {
          "internalType": "uint256",
          "name": "newLTVBoost",
          "type": "uint256"
        }
      ],
      "name": "setLTVBoost",
      "outputs": [],
      "stateMutability": "nonpayable",
      "type": "function"
    },
    {
      "inputs": [
        {
          "internalType": "uint256",
          "name": "newFactor",
          "type": "uint256"
        }
      ],
      "name": "setNativeTokenFactor",
      "outputs": [],
      "stateMutability": "nonpayable",
      "type": "function"
    },
    {
      "inputs": [
        {
          "internalType": "bytes4",
          "name": "interfaceId",
          "type": "bytes4"
        }
      ],
      "name": "supportsInterface",
      "outputs": [
        {
          "internalType": "bool",
          "name": "",
          "type": "bool"
        }
      ],
      "stateMutability": "view",
      "type": "function"
    },
    {
      "inputs": [],
      "name": "symbol",
      "outputs": [
        {
          "internalType": "string",
          "name": "",
          "type": "string"
        }
      ],
      "stateMutability": "view",
      "type": "function"
    },
    {
      "inputs": [
        {
          "internalType": "uint256",
          "name": "index",
          "type": "uint256"
        }
      ],
      "name": "tokenByIndex",
      "outputs": [
        {
          "internalType": "uint256",
          "name": "",
          "type": "uint256"
        }
      ],
      "stateMutability": "view",
      "type": "function"
    },
    {
      "inputs": [
        {
          "internalType": "address",
          "name": "owner",
          "type": "address"
        },
        {
          "internalType": "uint256",
          "name": "index",
          "type": "uint256"
        }
      ],
      "name": "tokenOfOwnerByIndex",
      "outputs": [
        {
          "internalType": "uint256",
          "name": "",
          "type": "uint256"
        }
      ],
      "stateMutability": "view",
      "type": "function"
    },
    {
      "inputs": [
        {
          "internalType": "uint256",
          "name": "tokenId",
          "type": "uint256"
        }
      ],
      "name": "tokenURI",
      "outputs": [
        {
          "internalType": "string",
          "name": "",
          "type": "string"
        }
      ],
      "stateMutability": "view",
      "type": "function"
    },
    {
      "inputs": [],
      "name": "totalSupply",
      "outputs": [
        {
          "internalType": "uint256",
          "name": "",
          "type": "uint256"
        }
      ],
      "stateMutability": "view",
      "type": "function"
    },
    {
      "inputs": [
        {
          "internalType": "address",
          "name": "from",
          "type": "address"
        },
        {
          "internalType": "address",
          "name": "to",
          "type": "address"
        },
        {
          "internalType": "uint256",
          "name": "tokenId",
          "type": "uint256"
        }
      ],
      "name": "transferFrom",
      "outputs": [],
      "stateMutability": "nonpayable",
      "type": "function"
    },
    {
      "inputs": [
        {
          "internalType": "address",
          "name": "newOwner",
          "type": "address"
        }
      ],
      "name": "transferOwnership",
      "outputs": [],
      "stateMutability": "nonpayable",
      "type": "function"
    },
    {
      "stateMutability": "payable",
      "type": "receive"
    }
  ],
  "bytecode": "0x608080604052346100c2576000549060ff8260081c16610070575060ff80821610610035575b604051612b329081620000c88239f35b60ff90811916176000557f7f26b83ff96e1f2b6a682f133852f6798a09c465da95921460cefb3847402498602060405160ff8152a138610025565b62461bcd60e51b815260206004820152602760248201527f496e697469616c697a61626c653a20636f6e747261637420697320696e697469604482015266616c697a696e6760c81b6064820152608490fd5b600080fdfe608080604052600436101561001d575b50361561001b57600080fd5b005b600090813560e01c90816301ffc9a714611ddd5750806306fdde0314611d37578063081812fc14611d18578063095ea7b314611ba357806318160ddd14611b8557806323b872dd14611b6057806329e5589814611a815780632f745c59146119d457806342842e0e1461197857806342966c68146115385780634f6ccce71461148e578063554d578d1461146f5780635ca67d9b146114505780636352211e1461141f5780636de010a4146113ef57806370a08231146113cb578063715018a61461136c57806377097fc814610a4a57806388ca4b6914610a265780638a34711d14610a075780638da5cb5b146109dd57806395d89b411461090c578063a22cb46514610834578063a607a8d914610815578063b88d4fde1461078f578063c87b56dd14610757578063d482ef9b146102ad578063e985e9c514610259578063ec399a2714610235578063f2fde38b146101a45763f54502040361000f57346101a15760203660031901126101a1576020610199600435612a13565b604051908152f35b80fd5b50346101a15760203660031901126101a1576101be611eac565b6101c6611fef565b6001600160a01b038116156101e1576101de90612048565b80f35b60405162461bcd60e51b815260206004820152602660248201527f4f776e61626c653a206e6577206f776e657220697320746865207a65726f206160448201526564647265737360d01b6064820152608490fd5b50346101a15760203660031901126101a15761024f611fef565b6004356101985580f35b50346101a15760403660031901126101a157610273611eac565b604061027d611ec7565b9260018060a01b038093168152606a602052209116600052602052602060ff604060002054166040519015158152f35b50346101a1576101403660031901126101a1576004356001600160a01b0381811691829003610753576001600160401b039160243583811161074f576102f7903690600401611fc2565b92909360443581811161074b57610312903690600401611fc2565b9095610124359384168094036107475787549660ff8860081c16159687809861073a575b8015610723575b156106c7576103a1926103999160019a8a8d8d60ff1984161790556106b6575b5061038960ff8d5460081c16610372816126ba565b61037b816126ba565b610384816126ba565b6126ba565b61039233612048565b3691611f8b565b923691611f8b565b6103b560ff895460081c16610384816126ba565b81518381116106a257806103ca60655461217b565b93601f94858111610656575b506020908583116001146105d7578b926105cc575b5050600019600383901b1c191690881b176065555b80519283116105b85790829161041760665461217b565b828111610562575b5060209183116001146104e35788926104d8575b5050600019600383901b1c191690851b176066555b6bffffffffffffffffffffffff60a01b916101919083825416179055606435610192556084356101935560a4356101985560c4356101965560e435610194556101043561019555610197918254161790556104a1575080f35b60207f7f26b83ff96e1f2b6a682f133852f6798a09c465da95921460cefb38474024989161ff00198454168455604051908152a180f35b015190503880610433565b606689528793507f46501879b8ca8525e8c2fd519e2fbfcfa2ebea26501294aa02cbfcfb12e943549190601f1984168a5b81811061054a57508411610531575b505050811b01606655610448565b015160001960f88460031b161c19169055388080610523565b8284015185558a969094019360209384019301610514565b6105a99060668b527f46501879b8ca8525e8c2fd519e2fbfcfa2ebea26501294aa02cbfcfb12e943548480870160051c820192602088106105af575b0160051c019061271a565b3861041f565b9250819261059e565b634e487b7160e01b88526041600452602488fd5b0151905038806103eb565b60658c528a93507f8ff97419363ffd7000167f130ef7168fbea05faf9251824ca5043f113cc6a7c79190601f1984168d5b81811061063e57508411610625575b505050811b01606555610400565b015160001960f88460031b161c19169055388080610617565b8284015185558d969094019360209384019301610608565b61069c9060658d527f8ff97419363ffd7000167f130ef7168fbea05faf9251824ca5043f113cc6a7c78780860160051c820192602087106105af570160051c019061271a565b386103d6565b634e487b7160e01b89526041600452602489fd5b61ffff1916610101178c553861035d565b60405162461bcd60e51b815260206004820152602e60248201527f496e697469616c697a61626c653a20636f6e747261637420697320616c72656160448201526d191e481a5b9a5d1a585b1a5e995960921b6064820152608490fd5b50303b15801561033d5750600160ff8a161461033d565b50600160ff8a1610610336565b8780fd5b8680fd5b8480fd5b8280fd5b50346101a15760203660031901126101a15761078b610777600435612731565b604051918291602083526020830190611e87565b0390f35b50346101a15760803660031901126101a1576107a9611eac565b6107b1611ec7565b90606435906044356001600160401b03831161074f573660238401121561074f576101de936107ed610810943690602481600401359101611f8b565b926108006107fb84336122d2565b6121f8565b61080b838383612363565b61263f565b6122ae565b50346101a157806003193601126101a157602061019354604051908152f35b50346101a15760403660031901126101a15761084e611eac565b610856611f12565b6001600160a01b03909116903382146108c757338352606a60205260408320826000526020526108968160406000209060ff801983541691151516179055565b60405190151581527f17307eab39ab6107e8899845ad3d59bd9653f200f220920489ca2b5937696c3160203392a380f35b60405162461bcd60e51b815260206004820152601960248201527f4552433732313a20617070726f766520746f2063616c6c6572000000000000006044820152606490fd5b50346101a157806003193601126101a157604051908060665461092e8161217b565b808552916001918083169081156109b35750600114610958575b61078b8561077781870382611f4f565b9250606683527f46501879b8ca8525e8c2fd519e2fbfcfa2ebea26501294aa02cbfcfb12e943545b82841061099b5750505081016020016107778261078b610948565b80546020858701810191909152909301928101610980565b86955061078b9693506020925061077794915060ff191682840152151560051b8201019293610948565b50346101a157806003193601126101a15761012d546040516001600160a01b039091168152602090f35b50346101a15760203660031901126101a1576020610199600435612ad8565b50346101a15760203660031901126101a157610a40611fef565b6004356101965580f35b5060403660031901126101a1576024356001600160401b0381116110f857366023820112156110f857610a87903690602481600401359101611f8b565b90610a98600261015f541415612a74565b600261015f5561019954610192548110156113275761019554600435106112e357610194546004351161129e576101935480340361125a576001600160ff1b03811681036112465761019154604051636572f88f60e11b8152906001600160a01b0316602082600481845afa9182156112195790600492918692611224575b506020906040519384809263e7334fe560e01b82525afa9182156112195785926111f8575b5060405163cbc3ab5360e01b81523060048201526001600160a01b0380831660248301529091906020908390604490829087165afa9182156111cc5786926111d7575b5060405163095ea7b360e01b81526001600160a01b0383811660048301526003600187901b0460248301529091602091839160449183918b91165af180156111cc5761119d575b506001600160a01b0382163b1561074f57604051631696d40360e11b81526001600160a01b039182166004820152918591839160249183916003600189901b0491165af180156111925790849161117e575b5080808093610c3c600360018060a01b0361019754169260011b0461019354612340565b905af1610c4761251b565b501561113a57610191546040516315b9ba5d60e01b815290602090829060049082906001600160a01b03165afa9081156110fc57839161110b575b506001600160a01b0316610c97600435612a13565b813b1561110757604051636a953c1d60e01b815233600482015260248101919091529083908290604490829084905af180156110fc579083916110e4575b50506001610199540161019955604051602081018181106001600160401b03821117610ead5760405282815233156110a0576000828152606760205260409020546001600160a01b031661105b5781835261019a60205260ff604084205416610ff05733835260686020526040832080549060018201809211610fdc579161081091610dad9355838552606760205260408520336bffffffffffffffffffffffff60a01b8254161790558333867fddf252ad1be2c89b69c2b068fc378daa952ba7f163c4a11628f55a4df523b3ef8180a4833361254b565b6000818152606760205260409020546001600160a01b031615610f805780825260fb6020526040822083516001600160401b038111610f6c57610df0825461217b565b601f8111610f31575b50602094601f8211600114610ece579484958293949592610ec3575b50508160011b916000199060031b1c19161790555b604051604081018181106001600160401b03821117610ead576040908152428252600435602080840191825284865261019b815294829020925183555160019092019190915580513381528084018390527f0f6798a560793a54c3bcfe86a93cde1e73087d944c0ea20544137d41213968859190a1600161015f55604051908152f35b634e487b7160e01b600052604160045260246000fd5b015190503880610e15565b601f198216958386526020862091865b888110610f1957508360019596979810610f00575b505050811b019055610e2a565b015160001960f88460031b161c19169055388080610ef3565b91926020600181928685015181550194019201610ede565b610f5c9083865260208620601f840160051c81019160208510610f62575b601f0160051c019061271a565b38610df9565b9091508190610f4f565b634e487b7160e01b84526041600452602484fd5b60405162461bcd60e51b815260206004820152602e60248201527f45524337323155524953746f726167653a2055524920736574206f66206e6f6e60448201526d32bc34b9ba32b73a103a37b5b2b760911b6064820152608490fd5b634e487b7160e01b85526011600452602485fd5b60405162461bcd60e51b815260206004820152603a60248201527f43616e6e6f74207472616e7366657220746f6b656e202d2063757272656e746c60448201527f79206c6f636b656420696e20616e20616374697665206c6f616e0000000000006064820152608490fd5b60405162461bcd60e51b815260206004820152601c60248201527f4552433732313a20746f6b656e20616c7265616479206d696e746564000000006044820152606490fd5b606460405162461bcd60e51b815260206004820152602060248201527f4552433732313a206d696e7420746f20746865207a65726f20616464726573736044820152fd5b6110ed90611f21565b6110f8578138610cd5565b5080fd5b6040513d85823e3d90fd5b8380fd5b61112d915060203d602011611133575b6111258183611f4f565b8101906129f4565b38610c82565b503d61111b565b606460405162461bcd60e51b815260206004820152602060248201527f4661696c656420746f2073656e6420457468657220746f206465762066756e646044820152fd5b61118790611f21565b610753578238610c18565b6040513d86823e3d90fd5b6111be9060203d6020116111c5575b6111b68183611f4f565b810190612ac0565b5038610bc6565b503d6111ac565b6040513d88823e3d90fd5b6111f191925060203d602011611133576111258183611f4f565b9038610b7f565b61121291925060203d602011611133576111258183611f4f565b9038610b3c565b6040513d87823e3d90fd5b602091925061123f90823d8411611133576111258183611f4f565b9190610b17565b634e487b7160e01b83526011600452602483fd5b606460405162461bcd60e51b815260206004820152602060248201527f53656e742076616c7565206973206e6f7420657175616c20746f2070726963656044820152fd5b60405162461bcd60e51b815260206004820152601d60248201527f4c6f636b74696d6520697320686967686572207468616e206c696d69740000006044820152606490fd5b606460405162461bcd60e51b815260206004820152602060248201527f4c6f636b74696d65206973206c6f776572207468616e207468726573686f6c646044820152fd5b60405162461bcd60e51b815260206004820152601960248201527f416c6c204e4654732068617665206265656e206d696e746564000000000000006044820152606490fd5b50346101a157806003193601126101a157611385611fef565b61012d80546001600160a01b031981169091556000906001600160a01b03167f8be0079c531659141344cd1fd0a4f28419497f9722a3daafe3b4186f6b6457e08280a380f35b50346101a15760203660031901126101a15760206101996113ea611eac565b612092565b50346101a15760203660031901126101a15760ff6040602092600435815261019a84522054166040519015158152f35b50346101a15760203660031901126101a157602061143e600435612155565b6040516001600160a01b039091168152f35b50346101a157806003193601126101a157602061019854604051908152f35b50346101a157806003193601126101a157602061019254604051908152f35b50346101a15760203660031901126101a1576004356099548110156114de576099602092527f72a152ddfb8e864297c917af52ea6c1c68aead0fee1a62673fcc7e0c94979d000154604051908152f35b60405162461bcd60e51b815260206004820152602c60248201527f455243373231456e756d657261626c653a20676c6f62616c20696e646578206f60448201526b7574206f6620626f756e647360a01b6064820152608490fd5b50346101a1576020806003193601126110f8576004359061015f91611561600284541415612a74565b6002835561156e81612ad8565b421061193b5761157d81612155565b9080855261019a835260ff6040862054166118d05761159b816124c7565b6001600160a01b03918216808652606884526040862080546000198101919082116118bc5755818652606784526040862080546001600160a01b03191690557fb90306ad06b2a6ff86ddc9327db583062895ef6540e62dc50add009db5b356eb918491819088907fddf252ad1be2c89b69c2b068fc378daa952ba7f163c4a11628f55a4df523b3ef8280a460fb8252611637604088205461217b565b61185b575b604051908152a1610193546001600160ff1b0381168103610fdc5760039060011b0490610191818154169060405190636572f88f60e11b82528582600481865afa91821561180957889261183c575b50604051868160048163e7334fe560e01b978882525afa908115611831576116f293889288928c91611814575b5060405163095ea7b360e01b81526001600160a01b0390911660048201526024810192909252909384919082908c90899083906044820190565b0393165af190811561180957869285926117ec575b5054169160046040518094819382525afa9081156111cc5786916117cf575b5016803b1561074f57604051634782f77960e01b8152306004820152602481018390529085908290604490829084905af18015611219576117bc575b508380808093335af161177361251b565b501561178157506001905580f35b6064906040519062461bcd60e51b8252600482015260146024820152732330b4b632b2103a379039b2b7321022ba3432b960611b6044820152fd5b6117c890949194611f21565b9238611762565b6117e69150843d8611611133576111258183611f4f565b38611726565b61180290843d86116111c5576111b68183611f4f565b5038611707565b6040513d8a823e3d90fd5b61182b9150843d8611611133576111258183611f4f565b386116b8565b6040513d8b823e3d90fd5b611854919250863d8811611133576111258183611f4f565b903861168b565b80875260fb82528660408120611871815461217b565b8061187f575b50505061163c565b601f81116001146118955750555b863880611877565b8183528483206118b091601f0160051c81019060010161271a565b8184812091555561188d565b634e487b7160e01b88526011600452602488fd5b60405162461bcd60e51b815260048101849052603a60248201527f43616e6e6f74207472616e7366657220746f6b656e202d2063757272656e746c60448201527f79206c6f636b656420696e20616e20616374697665206c6f616e0000000000006064820152608490fd5b60405162461bcd60e51b8152600481018390526015602482015274151bdad95b881a5cc81cdd1a5b1b081b1bd8dad959605a1b6044820152606490fd5b50346101a15761198736611edd565b9060405192602084018481106001600160401b038211176119c0579161081093916101de95936040528684526108006107fb84336122d2565b634e487b7160e01b86526041600452602486fd5b50346101a15760403660031901126101a1576119ee611eac565b602435916119fb82612092565b831015611a285760209260409260018060a01b031682526097845282822090825283522054604051908152f35b60405162461bcd60e51b815260206004820152602b60248201527f455243373231456e756d657261626c653a206f776e657220696e646578206f7560448201526a74206f6620626f756e647360a81b6064820152608490fd5b50346101a15760403660031901126101a157611a9b611f12565b6101915460405163e7334fe560e01b81526001600160a01b03916020908290600490829086165afa908115611192578491611b42575b50163303611afd576101de90600435835261019a602052604083209060ff801983541691151516179055565b60405162461bcd60e51b815260206004820152601e60248201527f43616c6c6572206d757374206265204d61726b657420636f6e747261637400006044820152606490fd5b611b5a915060203d8111611133576111258183611f4f565b38611ad1565b50346101a1576101de611b7236611edd565b91611b806107fb84336122d2565b612363565b50346101a157806003193601126101a1576020609954604051908152f35b50346101a15760403660031901126101a157611bbd611eac565b602435906001600160a01b038080611bd485612155565b16921691808314611cc957803314908115611ca8575b5015611c3d5782845260696020526040842080546001600160a01b03191683179055611c1583612155565b167f8c5be1e5ebec7d5bd14f71427d1e84f3dd0314c0f7b2291e5b200ac8c7c3b9258480a480f35b60405162461bcd60e51b815260206004820152603e60248201527f4552433732313a20617070726f76652063616c6c6572206973206e6f7420746f60448201527f6b656e206f776e6572206e6f7220617070726f76656420666f7220616c6c00006064820152608490fd5b90508452606a6020526040842033855260205260ff60408520541638611bea565b60405162461bcd60e51b815260206004820152602160248201527f4552433732313a20617070726f76616c20746f2063757272656e74206f776e656044820152603960f91b6064820152608490fd5b50346101a15760203660031901126101a157602061143e6004356121b5565b50346101a157806003193601126101a1576040519080606554611d598161217b565b808552916001918083169081156109b35750600114611d825761078b8561077781870382611f4f565b9250606583527f8ff97419363ffd7000167f130ef7168fbea05faf9251824ca5043f113cc6a7c75b828410611dc55750505081016020016107778261078b610948565b80546020858701810191909152909301928101611daa565b9050346110f85760203660031901126110f85760043563ffffffff60e01b8116809103610753576020925063780e9d6360e01b8114908115611e21575b5015158152f35b6380ac58cd60e01b811491508115611e53575b8115611e42575b5038611e1a565b6301ffc9a760e01b14905038611e3b565b635b5e139f60e01b81149150611e34565b60005b838110611e775750506000910152565b8181015183820152602001611e67565b90602091611ea081518092818552858086019101611e64565b601f01601f1916010190565b600435906001600160a01b0382168203611ec257565b600080fd5b602435906001600160a01b0382168203611ec257565b6060906003190112611ec2576001600160a01b03906004358281168103611ec257916024359081168103611ec2579060443590565b602435908115158203611ec257565b6001600160401b038111610ead57604052565b604081019081106001600160401b03821117610ead57604052565b90601f801991011681019081106001600160401b03821117610ead57604052565b6001600160401b038111610ead57601f01601f191660200190565b929192611f9782611f70565b91611fa56040519384611f4f565b829481845281830111611ec2578281602093846000960137010152565b9181601f84011215611ec2578235916001600160401b038311611ec25760208381860195010111611ec257565b61012d546001600160a01b0316330361200457565b606460405162461bcd60e51b815260206004820152602060248201527f4f776e61626c653a2063616c6c6572206973206e6f7420746865206f776e65726044820152fd5b61012d80546001600160a01b039283166001600160a01b0319821681179092559091167f8be0079c531659141344cd1fd0a4f28419497f9722a3daafe3b4186f6b6457e0600080a3565b6001600160a01b031680156120b257600052606860205260406000205490565b60405162461bcd60e51b815260206004820152602960248201527f4552433732313a2061646472657373207a65726f206973206e6f7420612076616044820152683634b21037bbb732b960b91b6064820152608490fd5b1561211057565b60405162461bcd60e51b815260206004820152601860248201527f4552433732313a20696e76616c696420746f6b656e20494400000000000000006044820152606490fd5b6000908152606760205260409020546001600160a01b0316612178811515612109565b90565b90600182811c921680156121ab575b602083101461219557565b634e487b7160e01b600052602260045260246000fd5b91607f169161218a565b6000818152606760205260409020546121dd906001600160a01b03161515612109565b612109565b6000908152606960205260409020546001600160a01b031690565b156121ff57565b60405162461bcd60e51b815260206004820152602e60248201527f4552433732313a2063616c6c6572206973206e6f7420746f6b656e206f776e6560448201526d1c881b9bdc88185c1c1c9bdd995960921b6064820152608490fd5b60809060208152603260208201527f4552433732313a207472616e7366657220746f206e6f6e20455243373231526560408201527131b2b4bb32b91034b6b83632b6b2b73a32b960711b60608201520190565b156122b557565b60405162461bcd60e51b8152806122ce6004820161225b565b0390fd5b906001600160a01b0380806122e684612155565b16931691838314938415612319575b508315612303575b50505090565b61230f919293506121b5565b16143880806122fd565b909350600052606a60205260406000208260005260205260ff6040600020541692386122f5565b9190820391821161234d57565b634e487b7160e01b600052601160045260246000fd5b61236c83612155565b6001600160a01b0391821692908216839003612474571690811561242357600083815261019a60205260ff604082205416610ff0576123aa846124c7565b8181526068602052604081208054600019810191908211611246575582815260686020526040812080549060018201809211611246575583815260676020526040812080546001600160a01b031916841790557fddf252ad1be2c89b69c2b068fc378daa952ba7f163c4a11628f55a4df523b3ef9080a4565b60405162461bcd60e51b8152602060048201526024808201527f4552433732313a207472616e7366657220746f20746865207a65726f206164646044820152637265737360e01b6064820152608490fd5b60405162461bcd60e51b815260206004820152602560248201527f4552433732313a207472616e736665722066726f6d20696e636f72726563742060448201526437bbb732b960d91b6064820152608490fd5b600081815260696020526040812080546001600160a01b03191690556001600160a01b036124f483612155565b167f8c5be1e5ebec7d5bd14f71427d1e84f3dd0314c0f7b2291e5b200ac8c7c3b9258280a4565b3d15612546573d9061252c82611f70565b9161253a6040519384611f4f565b82523d6000602084013e565b606090565b9091600091803b15612636576125966020918493604051948580948193630a85bd0160e11b9a8b84523360048501528460248501526044840152608060648401526084830190611e87565b03926001600160a01b03165af1908290826125ee575b50506125e0576125ba61251b565b805190816125db5760405162461bcd60e51b8152806122ce6004820161225b565b602001fd5b6001600160e01b0319161490565b909192506020813d821161262e575b8161260a60209383611f4f565b810103126110f85751906001600160e01b0319821682036101a157509038806125ac565b3d91506125fd565b50505050600190565b91926000929190813b156126b0576020916126959185604051958680958194630a85bd0160e11b9b8c845233600485015260018060a01b0380951660248501526044840152608060648401526084830190611e87565b0393165af1908290826125ee5750506125e0576125ba61251b565b5050505050600190565b156126c157565b60405162461bcd60e51b815260206004820152602b60248201527f496e697469616c697a61626c653a20636f6e7472616374206973206e6f74206960448201526a6e697469616c697a696e6760a81b6064820152608490fd5b818110612725575050565b6000815560010161271a565b600081815260676020526040902054612754906001600160a01b03161515612109565b60009080825260209160fb83526040908181209282519180838654916127798361217b565b92838352898301986001918b83821691826000146128e45750506001146128a8575b50506127a992500384611f4f565b8351906127b582611f34565b60079586835266697066733a2f2f60c81b9485898501528051612850575050505091612178939161281f846128066121d86128309997600052606760205260018060a01b0360406000205416151590565b83519461281286611f34565b8552858501928352612904565b915195869351809286860190611e64565b820161284482518093868085019101611e64565b01038084520182611f4f565b9295919450925051958694845b878110612892575050509161288384926121789694602780970193845251928391611e64565b81010390810184520182611f4f565b818101830151898201840152889650820161285d565b8a925085528185209085915b8583106128cc5750506127a99350820101388061279b565b8054838a018501528894508b939092019181016128b4565b92509350506127a994915060ff19168952151560051b820101388061279b565b80156129c65780816000925b6129ac575061291e82611f70565b9161292c6040519384611f4f565b80835281601f1961293c83611f70565b013660208601375b61294d57505090565b9060001982019082821161234d578192600a92603090848406820180921161234d57865111156129965760f81b6001600160f81b03191660001a908501601f0153049081612944565b634e487b7160e01b600052603260045260246000fd5b9091600019811461234d576001019190600a900480612910565b50604051604081018181106001600160401b03821117610ead5760405260018152600360fc1b602082015290565b90816020910312611ec257516001600160a01b0381168103611ec25790565b612a24610192546101995490612340565b9081810291818304149015171561234d5761019654908115612a5e5704670de0b6b3a76400009081810291818304149015171561234d5790565b634e487b7160e01b600052601260045260246000fd5b15612a7b57565b60405162461bcd60e51b815260206004820152601f60248201527f5265656e7472616e637947756172643a207265656e7472616e742063616c6c006044820152606490fd5b90816020910312611ec257518015158103611ec25790565b60005261019b602052604060002054600160406000200154810180911161234d579056fea2646970667358221220031e080e76d0a52049467f4cd3b9bf10587c417661a3a9d442736b205443e72164736f6c63430008110033",
  "linkReferences": {},
  "deployedLinkReferences": {}
}