{
  "_format": "hh-sol-artifact-1",
  "contractName": "GenesisNFT",
  "sourceName": "contracts/protocol/GenesisNFT.sol",
  "abi": [
    {
      "anonymous": false,
      "inputs": [
        {
          "indexed": true,
          "internalType": "address",
          "name": "owner",
          "type": "address"
        },
        {
          "indexed": true,
          "internalType": "address",
          "name": "approved",
          "type": "address"
        },
        {
          "indexed": true,
          "internalType": "uint256",
          "name": "tokenId",
          "type": "uint256"
        }
      ],
      "name": "Approval",
      "type": "event"
    },
    {
      "anonymous": false,
      "inputs": [
        {
          "indexed": true,
          "internalType": "address",
          "name": "owner",
          "type": "address"
        },
        {
          "indexed": true,
          "internalType": "address",
          "name": "operator",
          "type": "address"
        },
        {
          "indexed": false,
          "internalType": "bool",
          "name": "approved",
          "type": "bool"
        }
      ],
      "name": "ApprovalForAll",
      "type": "event"
    },
    {
      "anonymous": false,
      "inputs": [
        {
          "indexed": false,
          "internalType": "uint256",
          "name": "tokenId",
          "type": "uint256"
        }
      ],
      "name": "Burn",
      "type": "event"
    },
    {
      "anonymous": false,
      "inputs": [
        {
          "indexed": false,
          "internalType": "uint8",
          "name": "version",
          "type": "uint8"
        }
      ],
      "name": "Initialized",
      "type": "event"
    },
    {
      "anonymous": false,
      "inputs": [
        {
          "indexed": false,
          "internalType": "address",
          "name": "owner",
          "type": "address"
        },
        {
          "indexed": false,
          "internalType": "uint256",
          "name": "tokenId",
          "type": "uint256"
        }
      ],
      "name": "Mint",
      "type": "event"
    },
    {
      "anonymous": false,
      "inputs": [
        {
          "indexed": true,
          "internalType": "address",
          "name": "previousOwner",
          "type": "address"
        },
        {
          "indexed": true,
          "internalType": "address",
          "name": "newOwner",
          "type": "address"
        }
      ],
      "name": "OwnershipTransferred",
      "type": "event"
    },
    {
      "anonymous": false,
      "inputs": [
        {
          "indexed": true,
          "internalType": "address",
          "name": "from",
          "type": "address"
        },
        {
          "indexed": true,
          "internalType": "address",
          "name": "to",
          "type": "address"
        },
        {
          "indexed": true,
          "internalType": "uint256",
          "name": "tokenId",
          "type": "uint256"
        }
      ],
      "name": "Transfer",
      "type": "event"
    },
    {
      "inputs": [
        {
          "internalType": "address",
          "name": "to",
          "type": "address"
        },
        {
          "internalType": "uint256",
          "name": "tokenId",
          "type": "uint256"
        }
      ],
      "name": "approve",
      "outputs": [],
      "stateMutability": "nonpayable",
      "type": "function"
    },
    {
      "inputs": [
        {
          "internalType": "address",
          "name": "owner",
          "type": "address"
        }
      ],
      "name": "balanceOf",
      "outputs": [
        {
          "internalType": "uint256",
          "name": "",
          "type": "uint256"
        }
      ],
      "stateMutability": "view",
      "type": "function"
    },
    {
      "inputs": [
        {
          "internalType": "uint256",
          "name": "tokenId",
          "type": "uint256"
        }
      ],
      "name": "burn",
      "outputs": [],
      "stateMutability": "nonpayable",
      "type": "function"
    },
    {
      "inputs": [
        {
          "internalType": "uint256",
          "name": "tokenId",
          "type": "uint256"
        }
      ],
      "name": "getActiveState",
      "outputs": [
        {
          "internalType": "bool",
          "name": "",
          "type": "bool"
        }
      ],
      "stateMutability": "view",
      "type": "function"
    },
    {
      "inputs": [
        {
          "internalType": "uint256",
          "name": "tokenId",
          "type": "uint256"
        }
      ],
      "name": "getApproved",
      "outputs": [
        {
          "internalType": "address",
          "name": "",
          "type": "address"
        }
      ],
      "stateMutability": "view",
      "type": "function"
    },
    {
      "inputs": [],
      "name": "getCap",
      "outputs": [
        {
          "internalType": "uint256",
          "name": "",
          "type": "uint256"
        }
      ],
      "stateMutability": "view",
      "type": "function"
    },
    {
      "inputs": [
        {
          "internalType": "uint256",
          "name": "locktime",
          "type": "uint256"
        }
      ],
      "name": "getGenesisNativeTokens",
      "outputs": [
        {
          "internalType": "uint256",
          "name": "",
          "type": "uint256"
        }
      ],
      "stateMutability": "view",
      "type": "function"
    },
    {
      "inputs": [],
      "name": "getLTVBoost",
      "outputs": [
        {
          "internalType": "uint256",
          "name": "",
          "type": "uint256"
        }
      ],
      "stateMutability": "view",
      "type": "function"
    },
    {
      "inputs": [],
      "name": "getPrice",
      "outputs": [
        {
          "internalType": "uint256",
          "name": "",
          "type": "uint256"
        }
      ],
      "stateMutability": "view",
      "type": "function"
    },
    {
      "inputs": [],
      "name": "getSupply",
      "outputs": [
        {
          "internalType": "uint256",
          "name": "",
          "type": "uint256"
        }
      ],
      "stateMutability": "view",
      "type": "function"
    },
    {
      "inputs": [
        {
          "internalType": "uint256",
          "name": "tokenId",
          "type": "uint256"
        }
      ],
      "name": "getUnlockTimestamp",
      "outputs": [
        {
          "internalType": "uint256",
          "name": "",
          "type": "uint256"
        }
      ],
      "stateMutability": "view",
      "type": "function"
    },
    {
      "inputs": [
        {
          "internalType": "contract IAddressesProvider",
          "name": "addressProvider",
          "type": "address"
        },
        {
          "internalType": "string",
          "name": "name",
          "type": "string"
        },
        {
          "internalType": "string",
          "name": "symbol",
          "type": "string"
        },
        {
          "internalType": "uint256",
          "name": "cap",
          "type": "uint256"
        },
        {
          "internalType": "uint256",
          "name": "price",
          "type": "uint256"
        },
        {
          "internalType": "uint256",
          "name": "ltvBoost",
          "type": "uint256"
        },
        {
          "internalType": "uint256",
          "name": "nativeTokenFactor",
          "type": "uint256"
        },
        {
          "internalType": "uint256",
          "name": "maxLocktime",
          "type": "uint256"
        },
        {
          "internalType": "uint256",
          "name": "minLocktime",
          "type": "uint256"
        },
        {
          "internalType": "address payable",
          "name": "devAddress",
          "type": "address"
        }
      ],
      "name": "initialize",
      "outputs": [],
      "stateMutability": "nonpayable",
      "type": "function"
    },
    {
      "inputs": [
        {
          "internalType": "address",
          "name": "owner",
          "type": "address"
        },
        {
          "internalType": "address",
          "name": "operator",
          "type": "address"
        }
      ],
      "name": "isApprovedForAll",
      "outputs": [
        {
          "internalType": "bool",
          "name": "",
          "type": "bool"
        }
      ],
      "stateMutability": "view",
      "type": "function"
    },
    {
      "inputs": [
        {
          "internalType": "uint256",
          "name": "locktime",
          "type": "uint256"
        }
      ],
      "name": "mint",
      "outputs": [
        {
          "internalType": "uint256",
          "name": "",
          "type": "uint256"
        }
      ],
      "stateMutability": "payable",
      "type": "function"
    },
    {
      "inputs": [],
      "name": "name",
      "outputs": [
        {
          "internalType": "string",
          "name": "",
          "type": "string"
        }
      ],
      "stateMutability": "view",
      "type": "function"
    },
    {
      "inputs": [],
      "name": "owner",
      "outputs": [
        {
          "internalType": "address",
          "name": "",
          "type": "address"
        }
      ],
      "stateMutability": "view",
      "type": "function"
    },
    {
      "inputs": [
        {
          "internalType": "uint256",
          "name": "tokenId",
          "type": "uint256"
        }
      ],
      "name": "ownerOf",
      "outputs": [
        {
          "internalType": "address",
          "name": "",
          "type": "address"
        }
      ],
      "stateMutability": "view",
      "type": "function"
    },
    {
      "inputs": [],
      "name": "renounceOwnership",
      "outputs": [],
      "stateMutability": "nonpayable",
      "type": "function"
    },
    {
      "inputs": [
        {
          "internalType": "address",
          "name": "from",
          "type": "address"
        },
        {
          "internalType": "address",
          "name": "to",
          "type": "address"
        },
        {
          "internalType": "uint256",
          "name": "tokenId",
          "type": "uint256"
        }
      ],
      "name": "safeTransferFrom",
      "outputs": [],
      "stateMutability": "nonpayable",
      "type": "function"
    },
    {
      "inputs": [
        {
          "internalType": "address",
          "name": "from",
          "type": "address"
        },
        {
          "internalType": "address",
          "name": "to",
          "type": "address"
        },
        {
          "internalType": "uint256",
          "name": "tokenId",
          "type": "uint256"
        },
        {
          "internalType": "bytes",
          "name": "data",
          "type": "bytes"
        }
      ],
      "name": "safeTransferFrom",
      "outputs": [],
      "stateMutability": "nonpayable",
      "type": "function"
    },
    {
      "inputs": [
        {
          "internalType": "uint256",
          "name": "tokenId",
          "type": "uint256"
        },
        {
          "internalType": "bool",
          "name": "newState",
          "type": "bool"
        }
      ],
      "name": "setActiveState",
      "outputs": [],
      "stateMutability": "nonpayable",
      "type": "function"
    },
    {
      "inputs": [
        {
          "internalType": "address",
          "name": "operator",
          "type": "address"
        },
        {
          "internalType": "bool",
          "name": "approved",
          "type": "bool"
        }
      ],
      "name": "setApprovalForAll",
      "outputs": [],
      "stateMutability": "nonpayable",
      "type": "function"
    },
    {
      "inputs": [
        {
          "internalType": "uint256",
          "name": "newLTVBoost",
          "type": "uint256"
        }
      ],
      "name": "setLTVBoost",
      "outputs": [],
      "stateMutability": "nonpayable",
      "type": "function"
    },
    {
      "inputs": [
        {
          "internalType": "uint256",
          "name": "newFactor",
          "type": "uint256"
        }
      ],
      "name": "setNativeTokenFactor",
      "outputs": [],
      "stateMutability": "nonpayable",
      "type": "function"
    },
    {
      "inputs": [
        {
          "internalType": "bytes4",
          "name": "interfaceId",
          "type": "bytes4"
        }
      ],
      "name": "supportsInterface",
      "outputs": [
        {
          "internalType": "bool",
          "name": "",
          "type": "bool"
        }
      ],
      "stateMutability": "view",
      "type": "function"
    },
    {
      "inputs": [],
      "name": "symbol",
      "outputs": [
        {
          "internalType": "string",
          "name": "",
          "type": "string"
        }
      ],
      "stateMutability": "view",
      "type": "function"
    },
    {
      "inputs": [
        {
          "internalType": "uint256",
          "name": "tokenId",
          "type": "uint256"
        }
      ],
      "name": "tokenURI",
      "outputs": [
        {
          "internalType": "string",
          "name": "",
          "type": "string"
        }
      ],
      "stateMutability": "view",
      "type": "function"
    },
    {
      "inputs": [
        {
          "internalType": "address",
          "name": "from",
          "type": "address"
        },
        {
          "internalType": "address",
          "name": "to",
          "type": "address"
        },
        {
          "internalType": "uint256",
          "name": "tokenId",
          "type": "uint256"
        }
      ],
      "name": "transferFrom",
      "outputs": [],
      "stateMutability": "nonpayable",
      "type": "function"
    },
    {
      "inputs": [
        {
          "internalType": "address",
          "name": "newOwner",
          "type": "address"
        }
      ],
      "name": "transferOwnership",
      "outputs": [],
      "stateMutability": "nonpayable",
      "type": "function"
    }
  ],
  "bytecode": "0x6080806040523461001657612505908161001c8239f35b600080fdfe608060408181526004918236101561001657600080fd5b600090813560e01c90816301ffc9a7146119b45750806306fdde031461190a578063081812fc146118eb578063095ea7b31461177957806323b872dd1461175357806329e558981461167857806342842e0e1461161b57806342966c68146113c8578063554d578d146113a95780635ca67d9b146113895780636352211e146113595780636c9c2faf1461133a5780636de010a41461130c57806370a0823114611277578063715018a61461121657806388ca4b69146111f35780638a34711d146111a65780638da5cb5b1461117d57806395d89b411461109857806398d5fdca14611079578063a0712d6814610989578063a22cb465146108b5578063b88d4fde1461082e578063c87b56dd14610764578063d482ef9b14610298578063e985e9c514610244578063ec399a2714610221578063f2fde38b1461018b5763f54502041461016357600080fd5b34610188576020366003190112610188575061018160209235612425565b9051908152f35b80fd5b50913461021d57602036600319011261021d576101a6611a7a565b906101af611bd8565b6001600160a01b038216156101cb57506101c890611c30565b51f35b608490602084519162461bcd60e51b8352820152602660248201527f4f776e61626c653a206e6577206f776e657220697320746865207a65726f206160448201526564647265737360d01b6064820152fd5b8280fd5b50913461021d57602036600319011261021d5761023c611bd8565b356101035551f35b509034610294578060031936011261029457602091610261611a7a565b8261026a611a95565b9260018060a01b038093168152606a8652209116600052825260ff81600020541690519015158152f35b5080fd5b50913461021d5761014036600319011261021d576001600160a01b03908035828116908190036107605767ffffffffffffffff9260243584811161075c576102e39036908501611baa565b949093604435828111610758576102fd9036908301611baa565b91906101243594851680950361075457895460ff8160081c161597888099610747575b8015610730575b156106d657908b929160019a8a8c60ff19851617865560ff61037c9661037495610364936106c5575b505460081c1661035f8161238f565b61238f565b61036d33611c30565b3691611b73565b933691611b73565b9061039160ff8b5460081c1661035f8161238f565b82518481116106b257806103a6606554611ced565b94601f95868111610641575b506020908d8784116001146105c257926105b7575b5050600019600383901b1c191690891b176065555b81519384116105a457509082916103f4606654611ced565b828111610534575b5060209183116001146104b55789926104aa575b5050600019600383901b1c191690851b176066555b6001600160601b0360a01b918260fb54161760fb5560643560fc5560843560fe5560a4356101035560c4356101015560e43560ff55610104356101005561010291825416179055610474575051f35b60207f7f26b83ff96e1f2b6a682f133852f6798a09c465da95921460cefb38474024989161ff001985541685558351908152a151f35b015190503880610410565b60668a528793507f46501879b8ca8525e8c2fd519e2fbfcfa2ebea26501294aa02cbfcfb12e943549190601f1984168b5b81811061051c57508411610503575b505050811b01606655610425565b015160001960f88460031b161c191690553880806104f5565b8284015185558a9690940193602093840193016104e6565b9091925060668a527f46501879b8ca8525e8c2fd519e2fbfcfa2ebea26501294aa02cbfcfb12e943548380860160051c8201926020871061059b575b9186958b929594930160051c01915b82811061058d5750506103fc565b8c81558695508a910161057f565b92508192610570565b634e487b7160e01b8a5260419052602489fd5b0151905038806103c7565b91908c9450601f198416606584527f8ff97419363ffd7000167f130ef7168fbea05faf9251824ca5043f113cc6a7c7935b81811061062957508411610610575b505050811b016065556103dc565b015160001960f88460031b161c19169055388080610602565b8284015185558e9690940193602093840193016105f3565b90915060658d527f8ff97419363ffd7000167f130ef7168fbea05faf9251824ca5043f113cc6a7c78680850160051c820192602086106106a9575b859493910160051c909101908c908f5b83821061069b575050506103b2565b81558594508d91018f61068c565b9250819261067c565b634e487b7160e01b8b526041825260248bfd5b61ffff191661010117815538610350565b8a5162461bcd60e51b8152602081860152602e60248201527f496e697469616c697a61626c653a20636f6e747261637420697320616c72656160448201526d191e481a5b9a5d1a585b1a5e995960921b6064820152608490fd5b50303b1580156103275750600160ff831614610327565b50600160ff831610610320565b8980fd5b8880fd5b8680fd5b8480fd5b5082903461018857602091826003193601126102945735600081815260676020526040902054839291906107a2906001600160a01b03161515611c7b565b8451916107ae83611b19565b808352156108135761080f926107c66107fe926122a1565b92865193816107de8693518092868087019101611a20565b82016107f282518093868085019101611a20565b01038084520182611b35565b925b51928284938452830190611a55565b0390f35b50505061080f825161082481611b19565b6000815292610800565b50913461021d57608036600319011261021d57610849611a7a565b90610852611a95565b916044356064359367ffffffffffffffff851161075c573660238601121561075c5761088d6108b0948660246101c898369301359101611b73565b926108a061089b8433611e3f565b611d65565b6108ab838383611ece565b612226565b611e1b565b50913461021d578160031936011261021d576108cf611a7a565b6108d7611ae0565b6001600160a01b03909116913383146109465750338452606a6020528284208260005260205261091681846000209060ff801983541691151516179055565b825190151581527f17307eab39ab6107e8899845ad3d59bd9653f200f220920489ca2b5937696c3160203392a351f35b606490602085519162461bcd60e51b8352820152601960248201527f4552433732313a20617070726f766520746f2063616c6c6572000000000000006044820152fd5b509160209283600319360112610188578135906109ab600260c9541415612483565b600260c95560fd54600119939084811161106657600160fc549101116110235761010054831115610fe25760ff54831015610f9f5760fe54803403610f5e576109f560039161240e565b60fb548751636572f88f60e11b815296926001600160a01b03920490821689888681845afa978815610eaa57908a918799610f3b575b50895163e7334fe560e01b815291908290879082905afa908115610eaa579083918791610f1e575b5016828951986351e8b7fb60e01b8a521680868a01526024988b818b81865afa908115610f1457610ac0928d928a8a8f89958394610ef5575b505163095ea7b360e01b81526001600160a01b03909316908301908152602081019490945290948593849291839160400190565b03925af18015610eeb57610eb8575b50803b15610eb457858291868b518094819363f6326fb360e01b83525af18015610eaa57908691610e96575b50808092610b118561010254169160fe54611ead565b8b51915af1610b1e612102565b5015610e565782888260fb54168951928380926315b9ba5d60e01b82525afa908115610e4c578591610e1f575b5016610b5685612425565b813b15610760578751636a953c1d60e01b815233858201908152602081019290925291859183919082908490829060400103925af18015610e1557908491610e01575b505060fd54818111610def576001018060fd55865191610bb883611b19565b8483523315610daf576000828152606760205260409020546001600160a01b0316610d6d57818552610104895260ff8886205416610d085733855260688952878520908154908111610cf65791610c5d939160016108b09401905580865260678a52888620336001600160601b0360a01b8254161790558033877fddf252ad1be2c89b69c2b068fc378daa952ba7f163c4a11628f55a4df523b3ef818d51a433612132565b8451938585019185831067ffffffffffffffff841117610ce3575050845242835284830191825260fd80548252610105865290849020925183559051600190920191909155548151338152602081018290529091907f0f6798a560793a54c3bcfe86a93cde1e73087d944c0ea20544137d412139688590604090a1600160c95551908152f35b604190634e487b7160e01b600052526000fd5b634e487b7160e01b8652601185528786fd5b875162461bcd60e51b81528085018a9052603a818901527f43616e6e6f74207472616e7366657220746f6b656e202d2063757272656e746c6044820152793c903637b1b5b2b21034b71030b71030b1ba34bb32903637b0b760311b6064820152608490fd5b875162461bcd60e51b81528085018a9052601c818901527f4552433732313a20746f6b656e20616c7265616479206d696e746564000000006044820152606490fd5b6064848a89818c519362461bcd60e51b85528401528201527f4552433732313a206d696e7420746f20746865207a65726f20616464726573736044820152fd5b634e487b7160e01b8452601183528584fd5b610e0a90611aef565b61021d578238610b99565b87513d86823e3d90fd5b610e3f9150893d8b11610e45575b610e378183611b35565b8101906123ef565b38610b4b565b503d610e2d565b88513d87823e3d90fd5b6064838988818b519362461bcd60e51b85528401528201527f4661696c656420746f2073656e6420457468657220746f206465762066756e646044820152fd5b610e9f90611aef565b610760578438610afb565b89513d88823e3d90fd5b8580fd5b8a81813d8311610ee4575b610ecd8183611b35565b8101031261075c575180151503610eb45738610acf565b503d610ec3565b8a513d89823e3d90fd5b610f0d919450873d8911610e4557610e378183611b35565b9238610a8c565b8b513d8a823e3d90fd5b610f3591508b3d8d11610e4557610e378183611b35565b38610a53565b82919950610f569087933d8411610e4557610e378183611b35565b989091610a2b565b606482888089519262461bcd60e51b845283015260248201527f53656e742076616c7565206973206e6f7420657175616c20746f2070726963656044820152fd5b845162461bcd60e51b8152908101869052601d60248201527f4c6f636b74696d6520697320686967686572207468616e206c696d69740000006044820152606490fd5b606490868087519262461bcd60e51b845283015260248201527f4c6f636b74696d65206973206c6f776572207468616e207468726573686f6c646044820152fd5b845162461bcd60e51b8152908101869052601960248201527f416c6c204e4654732068617665206265656e206d696e746564000000000000006044820152606490fd5b634e487b7160e01b835260118252602483fd5b50903461029457816003193601126102945760209060fe549051908152f35b509034610294578160031936011261029457805190826066546110ba81611ced565b8085529160019180831690811561115557506001146110f8575b5050506110e68261080f940383611b35565b51918291602083526020830190611a55565b9450606685527f46501879b8ca8525e8c2fd519e2fbfcfa2ebea26501294aa02cbfcfb12e943545b82861061113d575050506110e682602061080f95820101946110d4565b80546020878701810191909152909501948101611120565b61080f9750869350602092506110e694915060ff191682840152151560051b820101946110d4565b50903461029457816003193601126102945760975490516001600160a01b039091168152602090f35b50903461029457602036600319011261029457823582526101056020529081902054908190811982116111de57602093505191018152f35b601184634e487b7160e01b6000525260246000fd5b50913461021d57602036600319011261021d5761120e611bd8565b356101015551f35b509034610294578160031936011261029457611230611bd8565b609780546001600160a01b031981169091559051906000906001600160a01b03167f8be0079c531659141344cd1fd0a4f28419497f9722a3daafe3b4186f6b6457e08284a3f35b508234610294576020366003190112610294576001600160a01b0361129a611a7a565b169081156112b75760208480858581526068845220549051908152f35b608490602085519162461bcd60e51b8352820152602960248201527f4552433732313a2061646472657373207a65726f206973206e6f7420612076616044820152683634b21037bbb732b960b91b6064820152fd5b50913461021d57602036600319011261021d578160209360ff92358152610104855220541690519015158152f35b50903461029457816003193601126102945760209060fd549051908152f35b5034610188576020366003190112610188575061137860209235611cc7565b90516001600160a01b039091168152f35b509034610294578160031936011261029457602090610103549051908152f35b50903461029457816003193601126102945760209060fc549051908152f35b5090346102945760208060031936011261021d5783356113ed600260c9541415612483565b600260c9556001600160a01b038061140483611cc7565b1633036115e757600361141860fe5461240e565b0486848360fb541687519283809263e7334fe560e01b82525afa9081156115dd5790839188916115c0575b501690813b1561075c57869160248392885194859384926378a1085360e11b84528d8401525af180156115b6576115a3575b5061147f82611cc7565b828652610104845260ff858720541661153d5761149b836120ac565b16908185526068835283852080546001811061152a577fb90306ad06b2a6ff86ddc9327db583062895ef6540e62dc50add009db5b356eb95969750600019019055808652606783528486206001600160601b0360a01b815416905580868651937fddf252ad1be2c89b69c2b068fc378daa952ba7f163c4a11628f55a4df523b3ef8286a48152a1600160c95551f35b634e487b7160e01b875260118852602487fd5b845162461bcd60e51b8152808801859052603a60248201527f43616e6e6f74207472616e7366657220746f6b656e202d2063757272656e746c6044820152793c903637b1b5b2b21034b71030b71030b1ba34bb32903637b0b760311b6064820152608490fd5b6115af90959195611aef565b9338611475565b85513d88823e3d90fd5b6115d79150863d8811610e4557610e378183611b35565b38611443565b86513d89823e3d90fd5b835162461bcd60e51b8152808701849052600e60248201526d26bab9ba1037bbb7103a37b5b2b760911b6044820152606490fd5b50913461021d5761162b36611aab565b91845193602085019085821067ffffffffffffffff8311176116655750916108b093916101c8959387528784526108a061089b8433611e3f565b634e487b7160e01b885260419052602487fd5b50913461021d578160031936011261021d57611692611ae0565b60fb54835163e7334fe560e01b81529192916001600160a01b039160209082908590829086165afa9081156115b6578691611735575b501633036116f257906101c8913584526101046020528284209060ff801983541691151516179055565b606490602084519162461bcd60e51b8352820152601e60248201527f43616c6c6572206d757374206265204d61726b657420636f6e747261637400006044820152fd5b61174d915060203d8111610e4557610e378183611b35565b386116c8565b509034610294576101c861176636611aab565b9161177461089b8433611e3f565b611ece565b50913461021d578160031936011261021d57611793611a7a565b602435916001600160a01b039081806117ab86611cc7565b1693169280841461189e5780331490811561187f575b50156118165750828552606960205283852080546001600160a01b031916831790556117ec83611cc7565b169251927f8c5be1e5ebec7d5bd14f71427d1e84f3dd0314c0f7b2291e5b200ac8c7c3b9258585a4f35b608490602086519162461bcd60e51b8352820152603e60248201527f4552433732313a20617070726f76652063616c6c6572206973206e6f7420746f60448201527f6b656e206f776e6572206e6f7220617070726f76656420666f7220616c6c00006064820152fd5b90508652606a60205284862033875260205260ff8587205416386117c1565b855162461bcd60e51b8152602081840152602160248201527f4552433732313a20617070726f76616c20746f2063757272656e74206f776e656044820152603960f91b6064820152608490fd5b5034610188576020366003190112610188575061137860209235611d27565b5090346102945781600319360112610294578051908260655461192c81611ced565b808552916001918083169081156111555750600114611957575050506110e68261080f940383611b35565b9450606585527f8ff97419363ffd7000167f130ef7168fbea05faf9251824ca5043f113cc6a7c75b82861061199c575050506110e682602061080f95820101946110d4565b8054602087870181019190915290950194810161197f565b9050833461021d57602036600319011261021d573563ffffffff60e01b811680910361021d57602092506380ac58cd60e01b8114908115611a0f575b81156119fe575b5015158152f35b6301ffc9a760e01b149050836119f7565b635b5e139f60e01b811491506119f0565b918091926000905b828210611a40575011611a39575050565b6000910152565b91508060209183015181860152018291611a28565b90602091611a6e81518092818552858086019101611a20565b601f01601f1916010190565b600435906001600160a01b0382168203611a9057565b600080fd5b602435906001600160a01b0382168203611a9057565b6060906003190112611a90576001600160a01b03906004358281168103611a9057916024359081168103611a90579060443590565b602435908115158203611a9057565b67ffffffffffffffff8111611b0357604052565b634e487b7160e01b600052604160045260246000fd5b6020810190811067ffffffffffffffff821117611b0357604052565b90601f8019910116810190811067ffffffffffffffff821117611b0357604052565b67ffffffffffffffff8111611b0357601f01601f191660200190565b929192611b7f82611b57565b91611b8d6040519384611b35565b829481845281830111611a90578281602093846000960137010152565b9181601f84011215611a905782359167ffffffffffffffff8311611a905760208381860195010111611a9057565b6097546001600160a01b03163303611bec57565b606460405162461bcd60e51b815260206004820152602060248201527f4f776e61626c653a2063616c6c6572206973206e6f7420746865206f776e65726044820152fd5b6097549060018060a01b0380911691826001600160601b0360a01b821617609755167f8be0079c531659141344cd1fd0a4f28419497f9722a3daafe3b4186f6b6457e06000604051a3565b15611c8257565b60405162461bcd60e51b815260206004820152601860248201527f4552433732313a20696e76616c696420746f6b656e20494400000000000000006044820152606490fd5b6000908152606760205260409020546001600160a01b0316611cea811515611c7b565b90565b90600182811c92168015611d1d575b6020831014611d0757565b634e487b7160e01b600052602260045260246000fd5b91607f1691611cfc565b600081815260676020526040902054611d4a906001600160a01b03161515611c7b565b6000908152606960205260409020546001600160a01b031690565b15611d6c57565b60405162461bcd60e51b815260206004820152602e60248201527f4552433732313a2063616c6c6572206973206e6f7420746f6b656e206f776e6560448201526d1c881b9bdc88185c1c1c9bdd995960921b6064820152608490fd5b60809060208152603260208201527f4552433732313a207472616e7366657220746f206e6f6e20455243373231526560408201527131b2b4bb32b91034b6b83632b6b2b73a32b960711b60608201520190565b15611e2257565b60405162461bcd60e51b815280611e3b60048201611dc8565b0390fd5b906001600160a01b038080611e5384611cc7565b16931691838314938415611e86575b508315611e70575b50505090565b611e7c91929350611d27565b1614388080611e6a565b909350600052606a60205260406000208260005260205260ff604060002054169238611e62565b818110611eb8570390565b634e487b7160e01b600052601160045260246000fd5b611ed783611cc7565b6001600160a01b03918216929082168390036120595716908115612008576000838152610104602052604060ff8183205416611fa257611f16856120ac565b8282526068602052808220805460018110611f8e57600019019055838252606860205280822080546001198111611f8e576001019055848252606760205280822080546001600160a01b03191685179055517fddf252ad1be2c89b69c2b068fc378daa952ba7f163c4a11628f55a4df523b3ef9190a4565b634e487b7160e01b84526011600452602484fd5b5162461bcd60e51b815260206004820152603a60248201527f43616e6e6f74207472616e7366657220746f6b656e202d2063757272656e746c6044820152793c903637b1b5b2b21034b71030b71030b1ba34bb32903637b0b760311b6064820152608490fd5b60405162461bcd60e51b8152602060048201526024808201527f4552433732313a207472616e7366657220746f20746865207a65726f206164646044820152637265737360e01b6064820152608490fd5b60405162461bcd60e51b815260206004820152602560248201527f4552433732313a207472616e736665722066726f6d20696e636f72726563742060448201526437bbb732b960d91b6064820152608490fd5b600081815260696020526040812080546001600160a01b03191690556001600160a01b036120d983611cc7565b167f8c5be1e5ebec7d5bd14f71427d1e84f3dd0314c0f7b2291e5b200ac8c7c3b92582604051a4565b3d1561212d573d9061211382611b57565b916121216040519384611b35565b82523d6000602084013e565b606090565b9091600091803b1561221d5761217d6020918493604051948580948193630a85bd0160e11b9a8b84523360048501528460248501526044840152608060648401526084830190611a55565b03926001600160a01b03165af1908290826121d5575b50506121c7576121a1612102565b805190816121c25760405162461bcd60e51b815280611e3b60048201611dc8565b602001fd5b6001600160e01b0319161490565b909192506020813d8211612215575b816121f160209383611b35565b810103126102945751906001600160e01b0319821682036101885750903880612193565b3d91506121e4565b50505050600190565b91926000929190813b156122975760209161227c9185604051958680958194630a85bd0160e11b9b8c845233600485015260018060a01b0380951660248501526044840152608060648401526084830190611a55565b0393165af1908290826121d55750506121c7576121a1612102565b5050505050600190565b801561236057600081805b61234857506122ba81611b57565b906122c86040519283611b35565b808252601f196122d782611b57565b013660208401375b8083156123415760018110611eb8576000190192600a91828206603081198111611eb857855187101561232b570160f81b6001600160f81b03191660001a908401601f015304916122df565b634e487b7160e01b600052603260045260246000fd5b5050905090565b906000198114611eb8576001600a91019104806122ac565b506040516040810181811067ffffffffffffffff821117611b035760405260018152600360fc1b602082015290565b1561239657565b60405162461bcd60e51b815260206004820152602b60248201527f496e697469616c697a61626c653a20636f6e7472616374206973206e6f74206960448201526a6e697469616c697a696e6760a81b6064820152608490fd5b90816020910312611a9057516001600160a01b0381168103611a905790565b6001600160ff1b038111600116611eb85760011b90565b61243460fc5460fd5490611ead565b6000199190811515828404821116611eb8576101015491821561246d57020480670de0b6b3a76400009204821181151516611eb8570290565b634e487b7160e01b600052601260045260246000fd5b1561248a57565b60405162461bcd60e51b815260206004820152601f60248201527f5265656e7472616e637947756172643a207265656e7472616e742063616c6c006044820152606490fdfea2646970667358221220bff3f35dec872d1953e3aaa6df077ce2a16b2e98a5217d216416f758cda5dcec64736f6c634300080f0033",
  "linkReferences": {},
  "deployedLinkReferences": {}
}