{
  "_format": "hh-sol-artifact-1",
  "contractName": "GenesisNFT",
  "sourceName": "contracts/protocol/GenesisNFT.sol",
  "abi": [
    {
      "inputs": [],
      "stateMutability": "nonpayable",
      "type": "constructor"
    },
    {
      "anonymous": false,
      "inputs": [
        {
          "indexed": true,
          "internalType": "address",
          "name": "owner",
          "type": "address"
        },
        {
          "indexed": true,
          "internalType": "address",
          "name": "approved",
          "type": "address"
        },
        {
          "indexed": true,
          "internalType": "uint256",
          "name": "tokenId",
          "type": "uint256"
        }
      ],
      "name": "Approval",
      "type": "event"
    },
    {
      "anonymous": false,
      "inputs": [
        {
          "indexed": true,
          "internalType": "address",
          "name": "owner",
          "type": "address"
        },
        {
          "indexed": true,
          "internalType": "address",
          "name": "operator",
          "type": "address"
        },
        {
          "indexed": false,
          "internalType": "bool",
          "name": "approved",
          "type": "bool"
        }
      ],
      "name": "ApprovalForAll",
      "type": "event"
    },
    {
      "anonymous": false,
      "inputs": [
        {
          "indexed": false,
          "internalType": "uint256",
          "name": "tokenId",
          "type": "uint256"
        }
      ],
      "name": "Burn",
      "type": "event"
    },
    {
      "anonymous": false,
      "inputs": [
        {
          "indexed": false,
          "internalType": "uint8",
          "name": "version",
          "type": "uint8"
        }
      ],
      "name": "Initialized",
      "type": "event"
    },
    {
      "anonymous": false,
      "inputs": [
        {
          "indexed": false,
          "internalType": "address",
          "name": "owner",
          "type": "address"
        },
        {
          "indexed": false,
          "internalType": "uint256",
          "name": "tokenId",
          "type": "uint256"
        }
      ],
      "name": "Mint",
      "type": "event"
    },
    {
      "anonymous": false,
      "inputs": [
        {
          "indexed": true,
          "internalType": "address",
          "name": "previousOwner",
          "type": "address"
        },
        {
          "indexed": true,
          "internalType": "address",
          "name": "newOwner",
          "type": "address"
        }
      ],
      "name": "OwnershipTransferred",
      "type": "event"
    },
    {
      "anonymous": false,
      "inputs": [
        {
          "indexed": true,
          "internalType": "address",
          "name": "from",
          "type": "address"
        },
        {
          "indexed": true,
          "internalType": "address",
          "name": "to",
          "type": "address"
        },
        {
          "indexed": true,
          "internalType": "uint256",
          "name": "tokenId",
          "type": "uint256"
        }
      ],
      "name": "Transfer",
      "type": "event"
    },
    {
      "inputs": [
        {
          "internalType": "address",
          "name": "to",
          "type": "address"
        },
        {
          "internalType": "uint256",
          "name": "tokenId",
          "type": "uint256"
        }
      ],
      "name": "approve",
      "outputs": [],
      "stateMutability": "nonpayable",
      "type": "function"
    },
    {
      "inputs": [
        {
          "internalType": "address",
          "name": "owner",
          "type": "address"
        }
      ],
      "name": "balanceOf",
      "outputs": [
        {
          "internalType": "uint256",
          "name": "",
          "type": "uint256"
        }
      ],
      "stateMutability": "view",
      "type": "function"
    },
    {
      "inputs": [
        {
          "internalType": "uint256[]",
          "name": "tokenIds",
          "type": "uint256[]"
        }
      ],
      "name": "burn",
      "outputs": [],
      "stateMutability": "nonpayable",
      "type": "function"
    },
    {
      "inputs": [
        {
          "internalType": "uint256",
          "name": "tokenId",
          "type": "uint256"
        }
      ],
      "name": "getActiveState",
      "outputs": [
        {
          "internalType": "bool",
          "name": "",
          "type": "bool"
        }
      ],
      "stateMutability": "view",
      "type": "function"
    },
    {
      "inputs": [
        {
          "internalType": "uint256",
          "name": "tokenId",
          "type": "uint256"
        }
      ],
      "name": "getApproved",
      "outputs": [
        {
          "internalType": "address",
          "name": "",
          "type": "address"
        }
      ],
      "stateMutability": "view",
      "type": "function"
    },
    {
      "inputs": [],
      "name": "getCap",
      "outputs": [
        {
          "internalType": "uint256",
          "name": "",
          "type": "uint256"
        }
      ],
      "stateMutability": "view",
      "type": "function"
    },
    {
      "inputs": [],
      "name": "getLTVBoost",
      "outputs": [
        {
          "internalType": "uint256",
          "name": "",
          "type": "uint256"
        }
      ],
      "stateMutability": "view",
      "type": "function"
    },
    {
      "inputs": [
        {
          "internalType": "uint256",
          "name": "locktime",
          "type": "uint256"
        }
      ],
      "name": "getNativeTokenReward",
      "outputs": [
        {
          "internalType": "uint256",
          "name": "",
          "type": "uint256"
        }
      ],
      "stateMutability": "view",
      "type": "function"
    },
    {
      "inputs": [],
      "name": "getPrice",
      "outputs": [
        {
          "internalType": "uint256",
          "name": "",
          "type": "uint256"
        }
      ],
      "stateMutability": "view",
      "type": "function"
    },
    {
      "inputs": [
        {
          "internalType": "uint256",
          "name": "tokenId",
          "type": "uint256"
        }
      ],
      "name": "getUnlockTimestamp",
      "outputs": [
        {
          "internalType": "uint256",
          "name": "",
          "type": "uint256"
        }
      ],
      "stateMutability": "view",
      "type": "function"
    },
    {
      "inputs": [
        {
          "internalType": "contract IAddressesProvider",
          "name": "addressProvider",
          "type": "address"
        },
        {
          "internalType": "string",
          "name": "name",
          "type": "string"
        },
        {
          "internalType": "string",
          "name": "symbol",
          "type": "string"
        },
        {
          "internalType": "uint256",
          "name": "cap",
          "type": "uint256"
        },
        {
          "internalType": "uint256",
          "name": "price",
          "type": "uint256"
        },
        {
          "internalType": "uint256",
          "name": "ltvBoost",
          "type": "uint256"
        },
        {
          "internalType": "uint256",
          "name": "nativeTokenFactor",
          "type": "uint256"
        },
        {
          "internalType": "uint256",
          "name": "maxLocktime",
          "type": "uint256"
        },
        {
          "internalType": "uint256",
          "name": "minLocktime",
          "type": "uint256"
        },
        {
          "internalType": "address payable",
          "name": "devAddress",
          "type": "address"
        }
      ],
      "name": "initialize",
      "outputs": [],
      "stateMutability": "nonpayable",
      "type": "function"
    },
    {
      "inputs": [
        {
          "internalType": "address",
          "name": "owner",
          "type": "address"
        },
        {
          "internalType": "address",
          "name": "operator",
          "type": "address"
        }
      ],
      "name": "isApprovedForAll",
      "outputs": [
        {
          "internalType": "bool",
          "name": "",
          "type": "bool"
        }
      ],
      "stateMutability": "view",
      "type": "function"
    },
    {
      "inputs": [
        {
          "internalType": "uint256[]",
          "name": "locktimes",
          "type": "uint256[]"
        },
        {
          "internalType": "string[]",
          "name": "uris",
          "type": "string[]"
        }
      ],
      "name": "mint",
      "outputs": [],
      "stateMutability": "payable",
      "type": "function"
    },
    {
      "inputs": [],
      "name": "mintCount",
      "outputs": [
        {
          "internalType": "uint256",
          "name": "",
          "type": "uint256"
        }
      ],
      "stateMutability": "view",
      "type": "function"
    },
    {
      "inputs": [
        {
          "internalType": "uint256[]",
          "name": "tokenIds",
          "type": "uint256[]"
        }
      ],
      "name": "mintRewards",
      "outputs": [],
      "stateMutability": "nonpayable",
      "type": "function"
    },
    {
      "inputs": [
        {
          "internalType": "uint256",
          "name": "tokenId",
          "type": "uint256"
        }
      ],
      "name": "mintedRewards",
      "outputs": [
        {
          "internalType": "bool",
          "name": "",
          "type": "bool"
        }
      ],
      "stateMutability": "view",
      "type": "function"
    },
    {
      "inputs": [],
      "name": "name",
      "outputs": [
        {
          "internalType": "string",
          "name": "",
          "type": "string"
        }
      ],
      "stateMutability": "view",
      "type": "function"
    },
    {
      "inputs": [],
      "name": "owner",
      "outputs": [
        {
          "internalType": "address",
          "name": "",
          "type": "address"
        }
      ],
      "stateMutability": "view",
      "type": "function"
    },
    {
      "inputs": [
        {
          "internalType": "uint256",
          "name": "tokenId",
          "type": "uint256"
        }
      ],
      "name": "ownerOf",
      "outputs": [
        {
          "internalType": "address",
          "name": "",
          "type": "address"
        }
      ],
      "stateMutability": "view",
      "type": "function"
    },
    {
      "inputs": [],
      "name": "renounceOwnership",
      "outputs": [],
      "stateMutability": "nonpayable",
      "type": "function"
    },
    {
      "inputs": [
        {
          "internalType": "address",
          "name": "from",
          "type": "address"
        },
        {
          "internalType": "address",
          "name": "to",
          "type": "address"
        },
        {
          "internalType": "uint256",
          "name": "tokenId",
          "type": "uint256"
        }
      ],
      "name": "safeTransferFrom",
      "outputs": [],
      "stateMutability": "nonpayable",
      "type": "function"
    },
    {
      "inputs": [
        {
          "internalType": "address",
          "name": "from",
          "type": "address"
        },
        {
          "internalType": "address",
          "name": "to",
          "type": "address"
        },
        {
          "internalType": "uint256",
          "name": "tokenId",
          "type": "uint256"
        },
        {
          "internalType": "bytes",
          "name": "data",
          "type": "bytes"
        }
      ],
      "name": "safeTransferFrom",
      "outputs": [],
      "stateMutability": "nonpayable",
      "type": "function"
    },
    {
      "inputs": [
        {
          "internalType": "uint256",
          "name": "tokenId",
          "type": "uint256"
        },
        {
          "internalType": "bool",
          "name": "newState",
          "type": "bool"
        }
      ],
      "name": "setActiveState",
      "outputs": [],
      "stateMutability": "nonpayable",
      "type": "function"
    },
    {
      "inputs": [
        {
          "internalType": "address",
          "name": "operator",
          "type": "address"
        },
        {
          "internalType": "bool",
          "name": "approved",
          "type": "bool"
        }
      ],
      "name": "setApprovalForAll",
      "outputs": [],
      "stateMutability": "nonpayable",
      "type": "function"
    },
    {
      "inputs": [
        {
          "internalType": "uint256",
          "name": "newLTVBoost",
          "type": "uint256"
        }
      ],
      "name": "setLTVBoost",
      "outputs": [],
      "stateMutability": "nonpayable",
      "type": "function"
    },
    {
      "inputs": [
        {
          "internalType": "address",
          "name": "pool",
          "type": "address"
        }
      ],
      "name": "setTradingPool",
      "outputs": [],
      "stateMutability": "nonpayable",
      "type": "function"
    },
    {
      "inputs": [
        {
          "internalType": "bytes4",
          "name": "interfaceId",
          "type": "bytes4"
        }
      ],
      "name": "supportsInterface",
      "outputs": [
        {
          "internalType": "bool",
          "name": "",
          "type": "bool"
        }
      ],
      "stateMutability": "view",
      "type": "function"
    },
    {
      "inputs": [],
      "name": "symbol",
      "outputs": [
        {
          "internalType": "string",
          "name": "",
          "type": "string"
        }
      ],
      "stateMutability": "view",
      "type": "function"
    },
    {
      "inputs": [
        {
          "internalType": "uint256",
          "name": "index",
          "type": "uint256"
        }
      ],
      "name": "tokenByIndex",
      "outputs": [
        {
          "internalType": "uint256",
          "name": "",
          "type": "uint256"
        }
      ],
      "stateMutability": "view",
      "type": "function"
    },
    {
      "inputs": [
        {
          "internalType": "address",
          "name": "owner",
          "type": "address"
        },
        {
          "internalType": "uint256",
          "name": "index",
          "type": "uint256"
        }
      ],
      "name": "tokenOfOwnerByIndex",
      "outputs": [
        {
          "internalType": "uint256",
          "name": "",
          "type": "uint256"
        }
      ],
      "stateMutability": "view",
      "type": "function"
    },
    {
      "inputs": [
        {
          "internalType": "uint256",
          "name": "tokenId",
          "type": "uint256"
        }
      ],
      "name": "tokenURI",
      "outputs": [
        {
          "internalType": "string",
          "name": "",
          "type": "string"
        }
      ],
      "stateMutability": "view",
      "type": "function"
    },
    {
      "inputs": [],
      "name": "totalSupply",
      "outputs": [
        {
          "internalType": "uint256",
          "name": "",
          "type": "uint256"
        }
      ],
      "stateMutability": "view",
      "type": "function"
    },
    {
      "inputs": [
        {
          "internalType": "address",
          "name": "from",
          "type": "address"
        },
        {
          "internalType": "address",
          "name": "to",
          "type": "address"
        },
        {
          "internalType": "uint256",
          "name": "tokenId",
          "type": "uint256"
        }
      ],
      "name": "transferFrom",
      "outputs": [],
      "stateMutability": "nonpayable",
      "type": "function"
    },
    {
      "inputs": [
        {
          "internalType": "address",
          "name": "newOwner",
          "type": "address"
        }
      ],
      "name": "transferOwnership",
      "outputs": [],
      "stateMutability": "nonpayable",
      "type": "function"
    },
    {
      "stateMutability": "payable",
      "type": "receive"
    }
  ],
  "bytecode": "0x60806040523480156200001157600080fd5b506200001c62000022565b620000e4565b600054610100900460ff16156200008f5760405162461bcd60e51b815260206004820152602760248201527f496e697469616c697a61626c653a20636f6e747261637420697320696e697469604482015266616c697a696e6760c81b606482015260840160405180910390fd5b60005460ff9081161015620000e2576000805460ff191660ff9081179091556040519081527f7f26b83ff96e1f2b6a682f133852f6798a09c465da95921460cefb38474024989060200160405180910390a15b565b6139fc80620000f46000396000f3fe6080604052600436106101fd5760003560e01c806370cda01a1161010d578063a22cb465116100a0578063ca5144eb1161006f578063ca5144eb146105b0578063d482ef9b146105d0578063e985e9c5146105f0578063ec399a2714610639578063f2fde38b1461065957600080fd5b8063a22cb46514610530578063b80f55c914610550578063b88d4fde14610570578063c87b56dd1461059057600080fd5b80638da5cb5b116100dc5780638da5cb5b146104d257806395d89b41146104f05780639659867e1461050557806398d5fdca1461051a57600080fd5b806370cda01a1461046a578063715018a61461048a57806377830dca1461049f5780638a34711d146104b257600080fd5b80632f745c59116101905780635ca67d9b1161015f5780635ca67d9b146103c35780635e726b98146103d95780636352211e146103f95780636de010a41461041957806370a082311461044a57600080fd5b80632f745c591461034d57806342842e0e1461036d5780634f6ccce71461038d578063554d578d146103ad57600080fd5b80630cfb5659116101cc5780630cfb5659146102ba57806318160ddd146102ee57806323b872dd1461030d57806329e558981461032d57600080fd5b806301ffc9a71461020957806306fdde031461023e578063081812fc14610260578063095ea7b31461029857600080fd5b3661020457005b600080fd5b34801561021557600080fd5b50610229610224366004612f01565b610679565b60405190151581526020015b60405180910390f35b34801561024a57600080fd5b5061025361068a565b6040516102359190612f6e565b34801561026c57600080fd5b5061028061027b366004612f81565b61071c565b6040516001600160a01b039091168152602001610235565b3480156102a457600080fd5b506102b86102b3366004612faf565b610743565b005b3480156102c657600080fd5b506102296102d5366004612f81565b600090815261016a602052604090206003015460ff1690565b3480156102fa57600080fd5b506099545b604051908152602001610235565b34801561031957600080fd5b506102b8610328366004612fdb565b61085d565b34801561033957600080fd5b506102b861034836600461302a565b61088e565b34801561035957600080fd5b506102ff610368366004612faf565b610987565b34801561037957600080fd5b506102b8610388366004612fdb565b610a1d565b34801561039957600080fd5b506102ff6103a8366004612f81565b610a38565b3480156103b957600080fd5b50610160546102ff565b3480156103cf57600080fd5b50610167546102ff565b3480156103e557600080fd5b506102ff6103f4366004612f81565b610acb565b34801561040557600080fd5b50610280610414366004612f81565b610b0f565b34801561042557600080fd5b50610229610434366004612f81565b6000908152610169602052604090205460ff1690565b34801561045657600080fd5b506102ff61046536600461305a565b610b6f565b34801561047657600080fd5b506102b861048536600461305a565b610bf5565b34801561049657600080fd5b506102b8610c20565b6102b86104ad3660046131a5565b610c34565b3480156104be57600080fd5b506102ff6104cd366004612f81565b611398565b3480156104de57600080fd5b5060fb546001600160a01b0316610280565b3480156104fc57600080fd5b506102536113b8565b34801561051157600080fd5b506102ff6113c7565b34801561052657600080fd5b50610161546102ff565b34801561053c57600080fd5b506102b861054b366004613290565b6113e4565b34801561055c57600080fd5b506102b861056b3660046132be565b6113ef565b34801561057c57600080fd5b506102b861058b3660046132f3565b611691565b34801561059c57600080fd5b506102536105ab366004612f81565b6116c9565b3480156105bc57600080fd5b506102b86105cb3660046132be565b6116d4565b3480156105dc57600080fd5b506102b86105eb3660046133cc565b6117d2565b3480156105fc57600080fd5b5061022961060b3660046134a0565b6001600160a01b039182166000908152606a6020908152604080832093909416825291909152205460ff1690565b34801561064557600080fd5b506102b8610654366004612f81565b611a0a565b34801561066557600080fd5b506102b861067436600461305a565b611a18565b600061068482611a8e565b92915050565b606060658054610699906134ce565b80601f01602080910402602001604051908101604052809291908181526020018280546106c5906134ce565b80156107125780601f106106e757610100808354040283529160200191610712565b820191906000526020600020905b8154815290600101906020018083116106f557829003601f168201915b5050505050905090565b600061072782611ab3565b506000908152606960205260409020546001600160a01b031690565b600061074e82610b0f565b9050806001600160a01b0316836001600160a01b0316036107c05760405162461bcd60e51b815260206004820152602160248201527f4552433732313a20617070726f76616c20746f2063757272656e74206f776e656044820152603960f91b60648201526084015b60405180910390fd5b336001600160a01b03821614806107dc57506107dc813361060b565b61084e5760405162461bcd60e51b815260206004820152603d60248201527f4552433732313a20617070726f76652063616c6c6572206973206e6f7420746f60448201527f6b656e206f776e6572206f7220617070726f76656420666f7220616c6c00000060648201526084016107b7565b6108588383611b12565b505050565b6108673382611b80565b6108835760405162461bcd60e51b81526004016107b790613508565b610858838383611bff565b61015f60009054906101000a90046001600160a01b03166001600160a01b03166304d21cee6040518163ffffffff1660e01b8152600401602060405180830381865afa1580156108e2573d6000803e3d6000fd5b505050506040513d601f19601f820116820180604052508101906109069190613555565b6001600160a01b0316336001600160a01b0316146109665760405162461bcd60e51b815260206004820152601e60248201527f43616c6c6572206d757374206265204d61726b657420636f6e7472616374000060448201526064016107b7565b60009182526101696020526040909120805460ff1916911515919091179055565b600061099283610b6f565b82106109f45760405162461bcd60e51b815260206004820152602b60248201527f455243373231456e756d657261626c653a206f776e657220696e646578206f7560448201526a74206f6620626f756e647360a81b60648201526084016107b7565b506001600160a01b03919091166000908152609760209081526040808320938352929052205490565b61085883838360405180602001604052806000815250611691565b6000610a4360995490565b8210610aa65760405162461bcd60e51b815260206004820152602c60248201527f455243373231456e756d657261626c653a20676c6f62616c20696e646578206f60448201526b7574206f6620626f756e647360a01b60648201526084016107b7565b60998281548110610ab957610ab9613572565b90600052602060002001549050919050565b600061016454610adb6101685490565b61016054610ae9919061359e565b610af390846135b1565b610afd91906135c8565b61068490670de0b6b3a76400006135b1565b6000818152606760205260408120546001600160a01b0316806106845760405162461bcd60e51b8152602060048201526018602482015277115490cdcc8c4e881a5b9d985b1a59081d1bdad95b88125160421b60448201526064016107b7565b60006001600160a01b038216610bd95760405162461bcd60e51b815260206004820152602960248201527f4552433732313a2061646472657373207a65726f206973206e6f7420612076616044820152683634b21037bbb732b960b91b60648201526084016107b7565b506001600160a01b031660009081526068602052604090205490565b610bfd611d70565b61016580546001600160a01b0319166001600160a01b0392909216919091179055565b610c28611d70565b610c326000611dca565b565b610c3c611e1c565b8051825114610c8d5760405162461bcd60e51b815260206004820152601860248201527f4172726179206c656e67746873206d757374206d61746368000000000000000060448201526064016107b7565b610165546001600160a01b0316610ce65760405162461bcd60e51b815260206004820152601d60248201527f496e63656e746976697a656420706f6f6c206973206e6f74207365742e00000060448201526064016107b7565b6000610cf26101685490565b9050610cfe6101605490565b8351610d0a90836135ea565b1115610d4f5760405162461bcd60e51b815260206004820152601460248201527313585e1a5b5d5b4818d85c08195e18d95959195960621b60448201526064016107b7565b6000835161016154610d6191906135b1565b9050803414610db25760405162461bcd60e51b815260206004820152601e60248201527f54782076616c7565206973206e6f7420657175616c20746f207072696365000060448201526064016107b7565b60006003610dc18360026135b1565b610dcb91906135c8565b9050600061016560009054906101000a90046001600160a01b03166001600160a01b03166314f059796040518163ffffffff1660e01b81526004016040805180830381865afa158015610e22573d6000803e3d6000fd5b505050506040513d601f19601f82011682018060405250810190610e4691906135fd565b80519091506000908103610e6757610e6083613a986135b1565b9050610e85565b81516020830151610e7890856135b1565b610e8291906135c8565b90505b61015f60009054906101000a90046001600160a01b03166001600160a01b03166315b9ba5d6040518163ffffffff1660e01b8152600401602060405180830381865afa158015610ed9573d6000803e3d6000fd5b505050506040513d601f19601f82011682018060405250810190610efd9190613555565b6001600160a01b0316630a8514c4826040518263ffffffff1660e01b8152600401610f2a91815260200190565b600060405180830381600087803b158015610f4457600080fd5b505af1158015610f58573d6000803e3d6000fd5b5050505061015f60009054906101000a90046001600160a01b03166001600160a01b03166315b9ba5d6040518163ffffffff1660e01b8152600401602060405180830381865afa158015610fb0573d6000803e3d6000fd5b505050506040513d601f19601f82011682018060405250810190610fd49190613555565b6101655460405163095ea7b360e01b81526001600160a01b0391821660048201526024810184905291169063095ea7b3906044016020604051808303816000875af1158015611027573d6000803e3d6000fd5b505050506040513d601f19601f8201168201806040525081019061104b919061367d565b5061016554604080518082018252858152602081018490529051630b4c7e4d60e01b81526000926001600160a01b031691630b4c7e4d9187916110929186906004016136bd565b60206040518083038185885af11580156110b0573d6000803e3d6000fd5b50505050506040513d601f19601f820116820180604052508101906110d591906136d8565b610166549091506000906001600160a01b03166110f2868861359e565b604051600081818185875af1925050503d806000811461112e576040519150601f19603f3d011682016040523d82523d6000602084013e611133565b606091505b50509050806111845760405162461bcd60e51b815260206004820181905260248201527f4661696c656420746f2073656e6420457468657220746f206465762066756e6460448201526064016107b7565b60005b895181101561138157610163548a82815181106111a6576111a6613572565b602002602001015110156111fc5760405162461bcd60e51b815260206004820181905260248201527f4c6f636b74696d65206973206c6f776572207468616e207468726573686f6c6460448201526064016107b7565b610162548a828151811061121257611212613572565b602002602001015111156112685760405162461bcd60e51b815260206004820152601d60248201527f4c6f636b74696d6520697320686967686572207468616e206c696d697400000060448201526064016107b7565b6112723389611e77565b611295888a838151811061128857611288613572565b6020026020010151611e91565b60405180608001604052804281526020018b83815181106112b8576112b8613572565b602002602001015181526020018b51856112d291906135c8565b8152600060209182018190528a815261016a82526040908190208351815591830151600183015582015160028201556060909101516003909101805491151560ff1990921691909117905561132c61016880546001019055565b7f0f6798a560793a54c3bcfe86a93cde1e73087d944c0ea20544137d412139688533604080516001600160a01b039092168252602082018b90520160405180910390a180611379816136f1565b915050611187565b5050505050505050611394600161012d55565b5050565b600081815261016a602052604081206001810154905461068491906135ea565b606060668054610699906134ce565b600060016113d56101685490565b6113df919061359e565b905090565b611394338383611f24565b6113f7611e1c565b6000805b82518110156115f85761142683828151811061141957611419613572565b6020026020010151610b0f565b6001600160a01b0316336001600160a01b0316146114775760405162461bcd60e51b815260206004820152600e60248201526d26bab9ba1037bbb7103a37b5b2b760911b60448201526064016107b7565b61149983828151811061148c5761148c613572565b6020026020010151611398565b4210156114e05760405162461bcd60e51b8152602060048201526015602482015274151bdad95b881a5cc81cdd1a5b1b081b1bd8dad959605a1b60448201526064016107b7565b61016a60008483815181106114f7576114f7613572565b60209081029190910181015182528101919091526040016000206003015460ff1661153f5761153f3384838151811061153257611532613572565b6020026020010151611ff2565b61016a600084838151811061155657611556613572565b6020026020010151815260200190815260200160002060020154915061159483828151811061158757611587613572565b602002602001015161227b565b7fb90306ad06b2a6ff86ddc9327db583062895ef6540e62dc50add009db5b356eb8382815181106115c7576115c7613572565b60200260200101516040516115de91815260200190565b60405180910390a1806115f0816136f1565b9150506113fb565b5061016554604080518082018252600080825260208201529051633eb1719f60e01b81526001600160a01b0390921691633eb1719f9161163f91859190339060040161370a565b60408051808303816000875af115801561165d573d6000803e3d6000fd5b505050506040513d601f19601f8201168201806040525081019061168191906135fd565b505061168e600161012d55565b50565b61169b3383611b80565b6116b75760405162461bcd60e51b81526004016107b790613508565b6116c384848484612284565b50505050565b6060610684826122b7565b60005b8151811015611394576116f582828151811061141957611419613572565b6001600160a01b0316336001600160a01b0316146117465760405162461bcd60e51b815260206004820152600e60248201526d26bab9ba1037bbb7103a37b5b2b760911b60448201526064016107b7565b61175b82828151811061148c5761148c613572565b4210156117aa5760405162461bcd60e51b815260206004820152601760248201527f546f6b656e7320617265207374696c6c206c6f636b656400000000000000000060448201526064016107b7565b6117c03383838151811061153257611532613572565b806117ca816136f1565b9150506116d7565b600054610100900460ff16158080156117f25750600054600160ff909116105b8061180c5750303b15801561180c575060005460ff166001145b61186f5760405162461bcd60e51b815260206004820152602e60248201527f496e697469616c697a61626c653a20636f6e747261637420697320616c72656160448201526d191e481a5b9a5d1a585b1a5e995960921b60648201526084016107b7565b6000805460ff191660011790558015611892576000805461ff0019166101001790555b61189a6123ce565b6118a26123f5565b6119268c8c8080601f016020809104026020016040519081016040528093929190818152602001838380828437600081840152601f19601f820116905080830192505050505050508b8b8080601f01602080910402602001604051908101604052809392919081815260200183838082843760009201919091525061242492505050565b8c61015f60006101000a8154816001600160a01b0302191690836001600160a01b031602179055508761016081905550866101618190555085610167819055508461016481905550836101628190555082610163819055508161016660006101000a8154816001600160a01b0302191690836001600160a01b031602179055506119b561016880546001019055565b80156119fb576000805461ff0019169055604051600181527f7f26b83ff96e1f2b6a682f133852f6798a09c465da95921460cefb38474024989060200160405180910390a15b50505050505050505050505050565b611a12611d70565b61016755565b611a20611d70565b6001600160a01b038116611a855760405162461bcd60e51b815260206004820152602660248201527f4f776e61626c653a206e6577206f776e657220697320746865207a65726f206160448201526564647265737360d01b60648201526084016107b7565b61168e81611dca565b60006001600160e01b0319821663780e9d6360e01b1480610684575061068482612455565b6000818152606760205260409020546001600160a01b031661168e5760405162461bcd60e51b8152602060048201526018602482015277115490cdcc8c4e881a5b9d985b1a59081d1bdad95b88125160421b60448201526064016107b7565b600081815260696020526040902080546001600160a01b0319166001600160a01b0384169081179091558190611b4782610b0f565b6001600160a01b03167f8c5be1e5ebec7d5bd14f71427d1e84f3dd0314c0f7b2291e5b200ac8c7c3b92560405160405180910390a45050565b600080611b8c83610b0f565b9050806001600160a01b0316846001600160a01b03161480611bd357506001600160a01b038082166000908152606a602090815260408083209388168352929052205460ff165b80611bf75750836001600160a01b0316611bec8461071c565b6001600160a01b0316145b949350505050565b826001600160a01b0316611c1282610b0f565b6001600160a01b031614611c385760405162461bcd60e51b81526004016107b790613737565b6001600160a01b038216611c9a5760405162461bcd60e51b8152602060048201526024808201527f4552433732313a207472616e7366657220746f20746865207a65726f206164646044820152637265737360e01b60648201526084016107b7565b611ca783838360016124a5565b826001600160a01b0316611cba82610b0f565b6001600160a01b031614611ce05760405162461bcd60e51b81526004016107b790613737565b600081815260696020908152604080832080546001600160a01b03199081169091556001600160a01b0387811680865260688552838620805460001901905590871680865283862080546001019055868652606790945282852080549092168417909155905184937fddf252ad1be2c89b69c2b068fc378daa952ba7f163c4a11628f55a4df523b3ef91a4505050565b60fb546001600160a01b03163314610c325760405162461bcd60e51b815260206004820181905260248201527f4f776e61626c653a2063616c6c6572206973206e6f7420746865206f776e657260448201526064016107b7565b60fb80546001600160a01b038381166001600160a01b0319831681179093556040519116919082907f8be0079c531659141344cd1fd0a4f28419497f9722a3daafe3b4186f6b6457e090600090a35050565b600261012d5403611e6f5760405162461bcd60e51b815260206004820152601f60248201527f5265656e7472616e637947756172643a207265656e7472616e742063616c6c0060448201526064016107b7565b600261012d55565b611394828260405180602001604052806000815250612537565b6000828152606760205260409020546001600160a01b0316611f0c5760405162461bcd60e51b815260206004820152602e60248201527f45524337323155524953746f726167653a2055524920736574206f66206e6f6e60448201526d32bc34b9ba32b73a103a37b5b2b760911b60648201526084016107b7565b600082815260c96020526040902061085882826137ca565b816001600160a01b0316836001600160a01b031603611f855760405162461bcd60e51b815260206004820152601960248201527f4552433732313a20617070726f766520746f2063616c6c65720000000000000060448201526064016107b7565b6001600160a01b038381166000818152606a6020908152604080832094871680845294825291829020805460ff191686151590811790915591519182527f17307eab39ab6107e8899845ad3d59bd9653f200f220920489ca2b5937696c31910160405180910390a3505050565b600081815261016a602052604090206003015460ff161561204e5760405162461bcd60e51b815260206004820152601660248201527514995dd85c991cc8185b1c9958591e481b5a5b9d195960521b60448201526064016107b7565b61015f60009054906101000a90046001600160a01b03166001600160a01b03166315b9ba5d6040518163ffffffff1660e01b8152600401602060405180830381865afa1580156120a2573d6000803e3d6000fd5b505050506040513d601f19601f820116820180604052508101906120c69190613555565b6001600160a01b0316630a8514c46120f461016a600085815260200190815260200160002060010154610acb565b6040518263ffffffff1660e01b815260040161211291815260200190565b600060405180830381600087803b15801561212c57600080fd5b505af1158015612140573d6000803e3d6000fd5b5050505061015f60009054906101000a90046001600160a01b03166001600160a01b03166315b9ba5d6040518163ffffffff1660e01b8152600401602060405180830381865afa158015612198573d6000803e3d6000fd5b505050506040513d601f19601f820116820180604052508101906121bc9190613555565b6001600160a01b031663a9059cbb836121eb61016a600086815260200190815260200160002060010154610acb565b6040516001600160e01b031960e085901b1681526001600160a01b03909216600483015260248201526044016020604051808303816000875af1158015612236573d6000803e3d6000fd5b505050506040513d601f19601f8201168201806040525081019061225a919061367d565b50600090815261016a60205260409020600301805460ff1916600117905550565b61168e8161256a565b61228f848484611bff565b61229b848484846125aa565b6116c35760405162461bcd60e51b81526004016107b79061388a565b60606122c282611ab3565b600082815260c96020526040812080546122db906134ce565b80601f0160208091040260200160405190810160405280929190818152602001828054612307906134ce565b80156123545780601f1061232957610100808354040283529160200191612354565b820191906000526020600020905b81548152906001019060200180831161233757829003601f168201915b505050505090506000612381604080518082019091526007815266697066733a2f2f60c81b602082015290565b90508051600003612393575092915050565b8151156123c55780826040516020016123ad9291906138dc565b60405160208183030381529060405292505050919050565b611bf7846126ab565b600054610100900460ff16610c325760405162461bcd60e51b81526004016107b79061390b565b600054610100900460ff1661241c5760405162461bcd60e51b81526004016107b79061390b565b610c3261272e565b600054610100900460ff1661244b5760405162461bcd60e51b81526004016107b79061390b565b611394828261275e565b60006001600160e01b031982166380ac58cd60e01b148061248657506001600160e01b03198216635b5e139f60e01b145b8061068457506301ffc9a760e01b6001600160e01b0319831614610684565b6000828152610169602052604090205460ff161561252b5760405162461bcd60e51b815260206004820152603a60248201527f43616e6e6f74207472616e7366657220746f6b656e202d2063757272656e746c60448201527f79206c6f636b656420696e20616e20616374697665206c6f616e00000000000060648201526084016107b7565b6116c38484848461279e565b61254183836128de565b61254e60008484846125aa565b6108585760405162461bcd60e51b81526004016107b79061388a565b61257381612a77565b600081815260c960205260409020805461258c906134ce565b15905061168e57600081815260c96020526040812061168e91612e9d565b60006001600160a01b0384163b156126a057604051630a85bd0160e11b81526001600160a01b0385169063150b7a02906125ee903390899088908890600401613956565b6020604051808303816000875af1925050508015612629575060408051601f3d908101601f1916820190925261262691810190613993565b60015b612686573d808015612657576040519150601f19603f3d011682016040523d82523d6000602084013e61265c565b606091505b50805160000361267e5760405162461bcd60e51b81526004016107b79061388a565b805181602001fd5b6001600160e01b031916630a85bd0160e11b149050611bf7565b506001949350505050565b60606126b682611ab3565b60006126dc604080518082019091526007815266697066733a2f2f60c81b602082015290565b905060008151116126fc5760405180602001604052806000815250612727565b8061270684612b1a565b6040516020016127179291906138dc565b6040516020818303038152906040525b9392505050565b600054610100900460ff166127555760405162461bcd60e51b81526004016107b79061390b565b610c3233611dca565b600054610100900460ff166127855760405162461bcd60e51b81526004016107b79061390b565b606561279183826137ca565b50606661085882826137ca565b6127aa84848484612bad565b60018111156128195760405162461bcd60e51b815260206004820152603560248201527f455243373231456e756d657261626c653a20636f6e7365637574697665207472604482015274185b9cd9995c9cc81b9bdd081cdd5c1c1bdc9d1959605a1b60648201526084016107b7565b816001600160a01b0385166128755761287081609980546000838152609a60205260408120829055600182018355919091527f72a152ddfb8e864297c917af52ea6c1c68aead0fee1a62673fcc7e0c94979d000155565b612898565b836001600160a01b0316856001600160a01b031614612898576128988582612c35565b6001600160a01b0384166128b4576128af81612cd2565b6128d7565b846001600160a01b0316846001600160a01b0316146128d7576128d78482612d81565b5050505050565b6001600160a01b0382166129345760405162461bcd60e51b815260206004820181905260248201527f4552433732313a206d696e7420746f20746865207a65726f206164647265737360448201526064016107b7565b6000818152606760205260409020546001600160a01b0316156129995760405162461bcd60e51b815260206004820152601c60248201527f4552433732313a20746f6b656e20616c7265616479206d696e7465640000000060448201526064016107b7565b6129a76000838360016124a5565b6000818152606760205260409020546001600160a01b031615612a0c5760405162461bcd60e51b815260206004820152601c60248201527f4552433732313a20746f6b656e20616c7265616479206d696e7465640000000060448201526064016107b7565b6001600160a01b038216600081815260686020908152604080832080546001019055848352606790915280822080546001600160a01b0319168417905551839291907fddf252ad1be2c89b69c2b068fc378daa952ba7f163c4a11628f55a4df523b3ef908290a45050565b6000612a8282610b0f565b9050612a928160008460016124a5565b612a9b82610b0f565b600083815260696020908152604080832080546001600160a01b03199081169091556001600160a01b0385168085526068845282852080546000190190558785526067909352818420805490911690555192935084927fddf252ad1be2c89b69c2b068fc378daa952ba7f163c4a11628f55a4df523b3ef908390a45050565b60606000612b2783612dc5565b600101905060008167ffffffffffffffff811115612b4757612b47613077565b6040519080825280601f01601f191660200182016040528015612b71576020820181803683370190505b5090508181016020015b600019016f181899199a1a9b1b9c1cb0b131b232b360811b600a86061a8153600a8504945084612b7b57509392505050565b60018111156116c3576001600160a01b03841615612bf3576001600160a01b03841660009081526068602052604081208054839290612bed90849061359e565b90915550505b6001600160a01b038316156116c3576001600160a01b03831660009081526068602052604081208054839290612c2a9084906135ea565b909155505050505050565b60006001612c4284610b6f565b612c4c919061359e565b600083815260986020526040902054909150808214612c9f576001600160a01b03841660009081526097602090815260408083208584528252808320548484528184208190558352609890915290208190555b5060009182526098602090815260408084208490556001600160a01b039094168352609781528383209183525290812055565b609954600090612ce49060019061359e565b6000838152609a602052604081205460998054939450909284908110612d0c57612d0c613572565b906000526020600020015490508060998381548110612d2d57612d2d613572565b6000918252602080832090910192909255828152609a90915260408082208490558582528120556099805480612d6557612d656139b0565b6001900381819060005260206000200160009055905550505050565b6000612d8c83610b6f565b6001600160a01b039093166000908152609760209081526040808320868452825280832085905593825260989052919091209190915550565b60008072184f03e93ff9f4daa797ed6e38ed64bf6a1f0160401b8310612e045772184f03e93ff9f4daa797ed6e38ed64bf6a1f0160401b830492506040015b6d04ee2d6d415b85acef81000000008310612e30576d04ee2d6d415b85acef8100000000830492506020015b662386f26fc100008310612e4e57662386f26fc10000830492506010015b6305f5e1008310612e66576305f5e100830492506008015b6127108310612e7a57612710830492506004015b60648310612e8c576064830492506002015b600a83106106845760010192915050565b508054612ea9906134ce565b6000825580601f10612eb9575050565b601f01602090049060005260206000209081019061168e91905b80821115612ee75760008155600101612ed3565b5090565b6001600160e01b03198116811461168e57600080fd5b600060208284031215612f1357600080fd5b813561272781612eeb565b60005b83811015612f39578181015183820152602001612f21565b50506000910152565b60008151808452612f5a816020860160208601612f1e565b601f01601f19169290920160200192915050565b6020815260006127276020830184612f42565b600060208284031215612f9357600080fd5b5035919050565b6001600160a01b038116811461168e57600080fd5b60008060408385031215612fc257600080fd5b8235612fcd81612f9a565b946020939093013593505050565b600080600060608486031215612ff057600080fd5b8335612ffb81612f9a565b9250602084013561300b81612f9a565b929592945050506040919091013590565b801515811461168e57600080fd5b6000806040838503121561303d57600080fd5b82359150602083013561304f8161301c565b809150509250929050565b60006020828403121561306c57600080fd5b813561272781612f9a565b634e487b7160e01b600052604160045260246000fd5b604051601f8201601f1916810167ffffffffffffffff811182821017156130b6576130b6613077565b604052919050565b600067ffffffffffffffff8211156130d8576130d8613077565b5060051b60200190565b600082601f8301126130f357600080fd5b81356020613108613103836130be565b61308d565b82815260059290921b8401810191818101908684111561312757600080fd5b8286015b84811015613142578035835291830191830161312b565b509695505050505050565b600067ffffffffffffffff83111561316757613167613077565b61317a601f8401601f191660200161308d565b905082815283838301111561318e57600080fd5b828260208301376000602084830101529392505050565b60008060408084860312156131b957600080fd5b833567ffffffffffffffff808211156131d157600080fd5b6131dd878388016130e2565b94506020915081860135818111156131f457600080fd5b8601601f8101881361320557600080fd5b8035613213613103826130be565b81815260059190911b8201840190848101908a83111561323257600080fd5b8584015b8381101561327e5780358681111561324e5760008081fd5b8501603f81018d136132605760008081fd5b6132708d898301358b840161314d565b845250918601918601613236565b50809750505050505050509250929050565b600080604083850312156132a357600080fd5b82356132ae81612f9a565b9150602083013561304f8161301c565b6000602082840312156132d057600080fd5b813567ffffffffffffffff8111156132e757600080fd5b611bf7848285016130e2565b6000806000806080858703121561330957600080fd5b843561331481612f9a565b9350602085013561332481612f9a565b925060408501359150606085013567ffffffffffffffff81111561334757600080fd5b8501601f8101871361335857600080fd5b6133678782356020840161314d565b91505092959194509250565b803561337e81612f9a565b919050565b60008083601f84011261339557600080fd5b50813567ffffffffffffffff8111156133ad57600080fd5b6020830191508360208285010111156133c557600080fd5b9250929050565b6000806000806000806000806000806000806101408d8f0312156133ef57600080fd5b6133f88d613373565b9b5067ffffffffffffffff60208e0135111561341357600080fd5b6134238e60208f01358f01613383565b909b50995067ffffffffffffffff60408e0135111561344157600080fd5b6134518e60408f01358f01613383565b909950975060608d0135965060808d0135955060a08d0135945060c08d0135935060e08d013592506101008d0135915061348e6101208e01613373565b90509295989b509295989b509295989b565b600080604083850312156134b357600080fd5b82356134be81612f9a565b9150602083013561304f81612f9a565b600181811c908216806134e257607f821691505b60208210810361350257634e487b7160e01b600052602260045260246000fd5b50919050565b6020808252602d908201527f4552433732313a2063616c6c6572206973206e6f7420746f6b656e206f776e6560408201526c1c881bdc88185c1c1c9bdd9959609a1b606082015260800190565b60006020828403121561356757600080fd5b815161272781612f9a565b634e487b7160e01b600052603260045260246000fd5b634e487b7160e01b600052601160045260246000fd5b8181038181111561068457610684613588565b808202811582820484141761068457610684613588565b6000826135e557634e487b7160e01b600052601260045260246000fd5b500490565b8082018082111561068457610684613588565b60006040828403121561360f57600080fd5b82601f83011261361e57600080fd5b6040516040810181811067ffffffffffffffff8211171561364157613641613077565b806040525080604084018581111561365857600080fd5b845b8181101561367257805183526020928301920161365a565b509195945050505050565b60006020828403121561368f57600080fd5b81516127278161301c565b8060005b60028110156116c357815184526020938401939091019060010161369e565b606081016136cb828561369a565b8260408301529392505050565b6000602082840312156136ea57600080fd5b5051919050565b60006001820161370357613703613588565b5060010190565b8381526080810161371e602083018561369a565b6001600160a01b03929092166060919091015292915050565b60208082526025908201527f4552433732313a207472616e736665722066726f6d20696e636f72726563742060408201526437bbb732b960d91b606082015260800190565b601f82111561085857600081815260208120601f850160051c810160208610156137a35750805b601f850160051c820191505b818110156137c2578281556001016137af565b505050505050565b815167ffffffffffffffff8111156137e4576137e4613077565b6137f8816137f284546134ce565b8461377c565b602080601f83116001811461382d57600084156138155750858301515b600019600386901b1c1916600185901b1785556137c2565b600085815260208120601f198616915b8281101561385c5788860151825594840194600190910190840161383d565b508582101561387a5787850151600019600388901b60f8161c191681555b5050505050600190811b01905550565b60208082526032908201527f4552433732313a207472616e7366657220746f206e6f6e20455243373231526560408201527131b2b4bb32b91034b6b83632b6b2b73a32b960711b606082015260800190565b600083516138ee818460208801612f1e565b835190830190613902818360208801612f1e565b01949350505050565b6020808252602b908201527f496e697469616c697a61626c653a20636f6e7472616374206973206e6f74206960408201526a6e697469616c697a696e6760a81b606082015260800190565b6001600160a01b038581168252841660208201526040810183905260806060820181905260009061398990830184612f42565b9695505050505050565b6000602082840312156139a557600080fd5b815161272781612eeb565b634e487b7160e01b600052603160045260246000fdfea2646970667358221220e25c1b525adb0d0a9c0cd793e2fc587403d051c4d24cf976a09b879d4cc08b1f64736f6c63430008110033",
  "linkReferences": {},
  "deployedLinkReferences": {}
}