{
  "_format": "hh-sol-artifact-1",
  "contractName": "GenesisNFT",
  "sourceName": "contracts/protocol/GenesisNFT.sol",
  "abi": [
    {
      "anonymous": false,
      "inputs": [
        {
          "indexed": true,
          "internalType": "address",
          "name": "owner",
          "type": "address"
        },
        {
          "indexed": true,
          "internalType": "address",
          "name": "approved",
          "type": "address"
        },
        {
          "indexed": true,
          "internalType": "uint256",
          "name": "tokenId",
          "type": "uint256"
        }
      ],
      "name": "Approval",
      "type": "event"
    },
    {
      "anonymous": false,
      "inputs": [
        {
          "indexed": true,
          "internalType": "address",
          "name": "owner",
          "type": "address"
        },
        {
          "indexed": true,
          "internalType": "address",
          "name": "operator",
          "type": "address"
        },
        {
          "indexed": false,
          "internalType": "bool",
          "name": "approved",
          "type": "bool"
        }
      ],
      "name": "ApprovalForAll",
      "type": "event"
    },
    {
      "anonymous": false,
      "inputs": [
        {
          "indexed": false,
          "internalType": "uint256",
          "name": "tokenId",
          "type": "uint256"
        }
      ],
      "name": "Burn",
      "type": "event"
    },
    {
      "anonymous": false,
      "inputs": [
        {
          "indexed": false,
          "internalType": "uint8",
          "name": "version",
          "type": "uint8"
        }
      ],
      "name": "Initialized",
      "type": "event"
    },
    {
      "anonymous": false,
      "inputs": [
        {
          "indexed": false,
          "internalType": "address",
          "name": "owner",
          "type": "address"
        },
        {
          "indexed": false,
          "internalType": "uint256",
          "name": "tokenId",
          "type": "uint256"
        }
      ],
      "name": "Mint",
      "type": "event"
    },
    {
      "anonymous": false,
      "inputs": [
        {
          "indexed": true,
          "internalType": "address",
          "name": "previousOwner",
          "type": "address"
        },
        {
          "indexed": true,
          "internalType": "address",
          "name": "newOwner",
          "type": "address"
        }
      ],
      "name": "OwnershipTransferred",
      "type": "event"
    },
    {
      "anonymous": false,
      "inputs": [
        {
          "indexed": true,
          "internalType": "address",
          "name": "from",
          "type": "address"
        },
        {
          "indexed": true,
          "internalType": "address",
          "name": "to",
          "type": "address"
        },
        {
          "indexed": true,
          "internalType": "uint256",
          "name": "tokenId",
          "type": "uint256"
        }
      ],
      "name": "Transfer",
      "type": "event"
    },
    {
      "inputs": [
        {
          "internalType": "address",
          "name": "to",
          "type": "address"
        },
        {
          "internalType": "uint256",
          "name": "tokenId",
          "type": "uint256"
        }
      ],
      "name": "approve",
      "outputs": [],
      "stateMutability": "nonpayable",
      "type": "function"
    },
    {
      "inputs": [
        {
          "internalType": "address",
          "name": "owner",
          "type": "address"
        }
      ],
      "name": "balanceOf",
      "outputs": [
        {
          "internalType": "uint256",
          "name": "",
          "type": "uint256"
        }
      ],
      "stateMutability": "view",
      "type": "function"
    },
    {
      "inputs": [
        {
          "internalType": "uint256",
          "name": "tokenId",
          "type": "uint256"
        }
      ],
      "name": "burn",
      "outputs": [],
      "stateMutability": "nonpayable",
      "type": "function"
    },
    {
      "inputs": [
        {
          "internalType": "uint256",
          "name": "tokenId",
          "type": "uint256"
        }
      ],
      "name": "getActiveState",
      "outputs": [
        {
          "internalType": "bool",
          "name": "",
          "type": "bool"
        }
      ],
      "stateMutability": "view",
      "type": "function"
    },
    {
      "inputs": [
        {
          "internalType": "uint256",
          "name": "tokenId",
          "type": "uint256"
        }
      ],
      "name": "getApproved",
      "outputs": [
        {
          "internalType": "address",
          "name": "",
          "type": "address"
        }
      ],
      "stateMutability": "view",
      "type": "function"
    },
    {
      "inputs": [],
      "name": "getCap",
      "outputs": [
        {
          "internalType": "uint256",
          "name": "",
          "type": "uint256"
        }
      ],
      "stateMutability": "view",
      "type": "function"
    },
    {
      "inputs": [
        {
          "internalType": "uint256",
          "name": "locktime",
          "type": "uint256"
        }
      ],
      "name": "getGenesisNativeTokens",
      "outputs": [
        {
          "internalType": "uint256",
          "name": "",
          "type": "uint256"
        }
      ],
      "stateMutability": "view",
      "type": "function"
    },
    {
      "inputs": [],
      "name": "getLTVBoost",
      "outputs": [
        {
          "internalType": "uint256",
          "name": "",
          "type": "uint256"
        }
      ],
      "stateMutability": "view",
      "type": "function"
    },
    {
      "inputs": [],
      "name": "getMintCount",
      "outputs": [
        {
          "internalType": "uint256",
          "name": "",
          "type": "uint256"
        }
      ],
      "stateMutability": "view",
      "type": "function"
    },
    {
      "inputs": [],
      "name": "getPrice",
      "outputs": [
        {
          "internalType": "uint256",
          "name": "",
          "type": "uint256"
        }
      ],
      "stateMutability": "view",
      "type": "function"
    },
    {
      "inputs": [
        {
          "internalType": "uint256",
          "name": "tokenId",
          "type": "uint256"
        }
      ],
      "name": "getUnlockTimestamp",
      "outputs": [
        {
          "internalType": "uint256",
          "name": "",
          "type": "uint256"
        }
      ],
      "stateMutability": "view",
      "type": "function"
    },
    {
      "inputs": [
        {
          "internalType": "contract IAddressesProvider",
          "name": "addressProvider",
          "type": "address"
        },
        {
          "internalType": "string",
          "name": "name",
          "type": "string"
        },
        {
          "internalType": "string",
          "name": "symbol",
          "type": "string"
        },
        {
          "internalType": "uint256",
          "name": "cap",
          "type": "uint256"
        },
        {
          "internalType": "uint256",
          "name": "price",
          "type": "uint256"
        },
        {
          "internalType": "uint256",
          "name": "ltvBoost",
          "type": "uint256"
        },
        {
          "internalType": "uint256",
          "name": "nativeTokenFactor",
          "type": "uint256"
        },
        {
          "internalType": "uint256",
          "name": "maxLocktime",
          "type": "uint256"
        },
        {
          "internalType": "uint256",
          "name": "minLocktime",
          "type": "uint256"
        },
        {
          "internalType": "address payable",
          "name": "devAddress",
          "type": "address"
        }
      ],
      "name": "initialize",
      "outputs": [],
      "stateMutability": "nonpayable",
      "type": "function"
    },
    {
      "inputs": [
        {
          "internalType": "address",
          "name": "owner",
          "type": "address"
        },
        {
          "internalType": "address",
          "name": "operator",
          "type": "address"
        }
      ],
      "name": "isApprovedForAll",
      "outputs": [
        {
          "internalType": "bool",
          "name": "",
          "type": "bool"
        }
      ],
      "stateMutability": "view",
      "type": "function"
    },
    {
      "inputs": [
        {
          "internalType": "uint256",
          "name": "locktime",
          "type": "uint256"
        }
      ],
      "name": "mint",
      "outputs": [
        {
          "internalType": "uint256",
          "name": "",
          "type": "uint256"
        }
      ],
      "stateMutability": "payable",
      "type": "function"
    },
    {
      "inputs": [],
      "name": "name",
      "outputs": [
        {
          "internalType": "string",
          "name": "",
          "type": "string"
        }
      ],
      "stateMutability": "view",
      "type": "function"
    },
    {
      "inputs": [],
      "name": "owner",
      "outputs": [
        {
          "internalType": "address",
          "name": "",
          "type": "address"
        }
      ],
      "stateMutability": "view",
      "type": "function"
    },
    {
      "inputs": [
        {
          "internalType": "uint256",
          "name": "tokenId",
          "type": "uint256"
        }
      ],
      "name": "ownerOf",
      "outputs": [
        {
          "internalType": "address",
          "name": "",
          "type": "address"
        }
      ],
      "stateMutability": "view",
      "type": "function"
    },
    {
      "inputs": [],
      "name": "renounceOwnership",
      "outputs": [],
      "stateMutability": "nonpayable",
      "type": "function"
    },
    {
      "inputs": [
        {
          "internalType": "address",
          "name": "from",
          "type": "address"
        },
        {
          "internalType": "address",
          "name": "to",
          "type": "address"
        },
        {
          "internalType": "uint256",
          "name": "tokenId",
          "type": "uint256"
        }
      ],
      "name": "safeTransferFrom",
      "outputs": [],
      "stateMutability": "nonpayable",
      "type": "function"
    },
    {
      "inputs": [
        {
          "internalType": "address",
          "name": "from",
          "type": "address"
        },
        {
          "internalType": "address",
          "name": "to",
          "type": "address"
        },
        {
          "internalType": "uint256",
          "name": "tokenId",
          "type": "uint256"
        },
        {
          "internalType": "bytes",
          "name": "data",
          "type": "bytes"
        }
      ],
      "name": "safeTransferFrom",
      "outputs": [],
      "stateMutability": "nonpayable",
      "type": "function"
    },
    {
      "inputs": [
        {
          "internalType": "uint256",
          "name": "tokenId",
          "type": "uint256"
        },
        {
          "internalType": "bool",
          "name": "newState",
          "type": "bool"
        }
      ],
      "name": "setActiveState",
      "outputs": [],
      "stateMutability": "nonpayable",
      "type": "function"
    },
    {
      "inputs": [
        {
          "internalType": "address",
          "name": "operator",
          "type": "address"
        },
        {
          "internalType": "bool",
          "name": "approved",
          "type": "bool"
        }
      ],
      "name": "setApprovalForAll",
      "outputs": [],
      "stateMutability": "nonpayable",
      "type": "function"
    },
    {
      "inputs": [
        {
          "internalType": "uint256",
          "name": "newLTVBoost",
          "type": "uint256"
        }
      ],
      "name": "setLTVBoost",
      "outputs": [],
      "stateMutability": "nonpayable",
      "type": "function"
    },
    {
      "inputs": [
        {
          "internalType": "uint256",
          "name": "newFactor",
          "type": "uint256"
        }
      ],
      "name": "setNativeTokenFactor",
      "outputs": [],
      "stateMutability": "nonpayable",
      "type": "function"
    },
    {
      "inputs": [
        {
          "internalType": "bytes4",
          "name": "interfaceId",
          "type": "bytes4"
        }
      ],
      "name": "supportsInterface",
      "outputs": [
        {
          "internalType": "bool",
          "name": "",
          "type": "bool"
        }
      ],
      "stateMutability": "view",
      "type": "function"
    },
    {
      "inputs": [],
      "name": "symbol",
      "outputs": [
        {
          "internalType": "string",
          "name": "",
          "type": "string"
        }
      ],
      "stateMutability": "view",
      "type": "function"
    },
    {
      "inputs": [
        {
          "internalType": "uint256",
          "name": "tokenId",
          "type": "uint256"
        }
      ],
      "name": "tokenURI",
      "outputs": [
        {
          "internalType": "string",
          "name": "",
          "type": "string"
        }
      ],
      "stateMutability": "view",
      "type": "function"
    },
    {
      "inputs": [
        {
          "internalType": "address",
          "name": "from",
          "type": "address"
        },
        {
          "internalType": "address",
          "name": "to",
          "type": "address"
        },
        {
          "internalType": "uint256",
          "name": "tokenId",
          "type": "uint256"
        }
      ],
      "name": "transferFrom",
      "outputs": [],
      "stateMutability": "nonpayable",
      "type": "function"
    },
    {
      "inputs": [
        {
          "internalType": "address",
          "name": "newOwner",
          "type": "address"
        }
      ],
      "name": "transferOwnership",
      "outputs": [],
      "stateMutability": "nonpayable",
      "type": "function"
    },
    {
      "stateMutability": "payable",
      "type": "receive"
    }
  ],
  "bytecode": "0x60808060405234610016576126ad908161001c8239f35b600080fdfe6080604081815260049182361015610022575b505050361561002057600080fd5b005b600090813560e01c90816301ffc9a714611b1f5750806306fdde0314611a75578063081812fc14611a56578063095ea7b3146118e457806323b872dd146118be57806329e55898146117d957806342842e0e1461177c57806342966c6814611399578063554d578d1461137a5780635ca67d9b1461135a5780636352211e1461132a5780636de010a4146112fc57806370a0823114611267578063715018a61461120657806388ca4b69146111e35780638a34711d146111c45780638da5cb5b1461119b5780638fc3b5491461117c57806395d89b411461109757806398d5fdca14611078578063a0712d6814610990578063a22cb465146108bc578063b88d4fde14610835578063c87b56dd1461076b578063d482ef9b1461029f578063e985e9c51461024b578063ec399a2714610228578063f2fde38b146101925763f545020403610012573461018f57602036600319011261018f575061018860209235612590565b9051908152f35b80fd5b509134610224576020366003190112610224576101ad611be5565b906101b6611d43565b6001600160a01b038216156101d257506101cf90611d9b565b51f35b608490602084519162461bcd60e51b8352820152602660248201527f4f776e61626c653a206e6577206f776e657220697320746865207a65726f206160448201526564647265737360d01b6064820152fd5b8280fd5b50913461022457602036600319011261022457610243611d43565b356101035551f35b50903461029b578060031936011261029b57602091610268611be5565b82610271611c00565b9260018060a01b038093168152606a8652209116600052825260ff81600020541690519015158152f35b5080fd5b50913461022457610140366003190112610224576001600160a01b03908035828116908190036107675767ffffffffffffffff92602435848111610763576102ea9036908501611d15565b94909360443582811161075f576103049036908301611d15565b91906101243594851680950361075b57895460ff8160081c16159788809961074e575b8015610737575b156106dd57908b929160019a8a8c60ff19851617865560ff6103839661037b9561036b936106cc575b505460081c16610366816124fa565b6124fa565b61037433611d9b565b3691611cde565b933691611cde565b9061039860ff8b5460081c16610366816124fa565b82518481116106b957806103ad606554611e58565b94601f95868111610648575b506020908d8784116001146105c957926105be575b5050600019600383901b1c191690891b176065555b81519384116105ab57509082916103fb606654611e58565b82811161053b575b5060209183116001146104bc5789926104b1575b5050600019600383901b1c191690851b176066555b6001600160601b0360a01b918260fb54161760fb5560643560fc5560843560fe5560a4356101035560c4356101015560e43560ff5561010435610100556101029182541617905561047b575051f35b60207f7f26b83ff96e1f2b6a682f133852f6798a09c465da95921460cefb38474024989161ff001985541685558351908152a151f35b015190503880610417565b60668a528793507f46501879b8ca8525e8c2fd519e2fbfcfa2ebea26501294aa02cbfcfb12e943549190601f1984168b5b8181106105235750841161050a575b505050811b0160665561042c565b015160001960f88460031b161c191690553880806104fc565b8284015185558a9690940193602093840193016104ed565b9091925060668a527f46501879b8ca8525e8c2fd519e2fbfcfa2ebea26501294aa02cbfcfb12e943548380860160051c820192602087106105a2575b9186958b929594930160051c01915b828110610594575050610403565b8c81558695508a9101610586565b92508192610577565b634e487b7160e01b8a5260419052602489fd5b0151905038806103ce565b91908c9450601f198416606584527f8ff97419363ffd7000167f130ef7168fbea05faf9251824ca5043f113cc6a7c7935b81811061063057508411610617575b505050811b016065556103e3565b015160001960f88460031b161c19169055388080610609565b8284015185558e9690940193602093840193016105fa565b90915060658d527f8ff97419363ffd7000167f130ef7168fbea05faf9251824ca5043f113cc6a7c78680850160051c820192602086106106b0575b859493910160051c909101908c908f5b8382106106a2575050506103b9565b81558594508d91018f610693565b92508192610683565b634e487b7160e01b8b526041825260248bfd5b61ffff191661010117815538610357565b8a5162461bcd60e51b8152602081860152602e60248201527f496e697469616c697a61626c653a20636f6e747261637420697320616c72656160448201526d191e481a5b9a5d1a585b1a5e995960921b6064820152608490fd5b50303b15801561032e5750600160ff83161461032e565b50600160ff831610610327565b8980fd5b8880fd5b8680fd5b8480fd5b5082903461018f576020918260031936011261029b5735600081815260676020526040902054839291906107a9906001600160a01b03161515611de6565b8451916107b583611c84565b8083521561081a57610816926107cd6108059261240c565b92865193816107e58693518092868087019101611b8b565b82016107f982518093868085019101611b8b565b01038084520182611ca0565b925b51928284938452830190611bc0565b0390f35b505050610816825161082b81611c84565b6000815292610807565b50913461022457608036600319011261022457610850611be5565b90610859611c00565b916044356064359367ffffffffffffffff85116107635736602386011215610763576108946108b7948660246101cf98369301359101611cde565b926108a76108a28433611faa565b611ed0565b6108b2838383612039565b612391565b611f86565b5091346102245781600319360112610224576108d6611be5565b6108de611c4b565b6001600160a01b039091169133831461094d5750338452606a6020528284208260005260205261091d81846000209060ff801983541691151516179055565b825190151581527f17307eab39ab6107e8899845ad3d59bd9653f200f220920489ca2b5937696c3160203392a351f35b606490602085519162461bcd60e51b8352820152601960248201527f4552433732313a20617070726f766520746f2063616c6c6572000000000000006044820152fd5b50916020928360031936011261018f578135906109b2600260c95414156125ee565b600260c95560fd54600119939084811161106557600160fc5491011161102257610100548310610fe15760ff548311610f9e5760fe54803403610f5d576109fa600391612579565b60fb548751636572f88f60e11b815296926001600160a01b03920490821689888681845afa978815610eaf57908a918799610f3a575b50895163e7334fe560e01b815291908290879082905afa908115610eaf579083918791610f1d575b5016828951986351e8b7fb60e01b8a521680868a01526024988b818b81865afa908115610f1357610ac5928d928a8a8f89958394610ef4575b505163095ea7b360e01b81526001600160a01b03909316908301908152602081019490945290948593849291839160400190565b03925af18015610eea57610ebd575b50803b15610eb957858291868b518094819363f6326fb360e01b83525af18015610eaf57908691610e9b575b50808092610b168561010254169160fe54612018565b8b51915af1610b2361226d565b5015610e5b5782888260fb54168951928380926315b9ba5d60e01b82525afa908115610e51578591610e24575b5016610b5b85612590565b813b15610767578751636a953c1d60e01b815233858201908152602081019290925291859183919082908490829060400103925af18015610e1a57908491610e06575b505060fd54818111610df4576001018060fd55865191610bbd83611c84565b8483523315610db4576000828152606760205260409020546001600160a01b0316610d7257818552610104895260ff8886205416610d0d5733855260688952878520908154908111610cfb5791610c62939160016108b79401905580865260678a52888620336001600160601b0360a01b8254161790558033877fddf252ad1be2c89b69c2b068fc378daa952ba7f163c4a11628f55a4df523b3ef818d51a43361229d565b8451938585019185831067ffffffffffffffff841117610ce8575050845242835284830191825260fd80548252610105865290849020925183559051600190920191909155548151338152602081018290529091907f0f6798a560793a54c3bcfe86a93cde1e73087d944c0ea20544137d412139688590604090a1600160c95551908152f35b604190634e487b7160e01b600052526000fd5b634e487b7160e01b8652601185528786fd5b875162461bcd60e51b81528085018a9052603a818901527f43616e6e6f74207472616e7366657220746f6b656e202d2063757272656e746c6044820152793c903637b1b5b2b21034b71030b71030b1ba34bb32903637b0b760311b6064820152608490fd5b875162461bcd60e51b81528085018a9052601c818901527f4552433732313a20746f6b656e20616c7265616479206d696e746564000000006044820152606490fd5b6064848a89818c519362461bcd60e51b85528401528201527f4552433732313a206d696e7420746f20746865207a65726f20616464726573736044820152fd5b634e487b7160e01b8452601183528584fd5b610e0f90611c5a565b610224578238610b9e565b87513d86823e3d90fd5b610e449150893d8b11610e4a575b610e3c8183611ca0565b81019061255a565b38610b50565b503d610e32565b88513d87823e3d90fd5b6064838988818b519362461bcd60e51b85528401528201527f4661696c656420746f2073656e6420457468657220746f206465762066756e646044820152fd5b610ea490611c5a565b610767578438610b00565b89513d88823e3d90fd5b8580fd5b610edc908b3d8d11610ee3575b610ed48183611ca0565b81019061263a565b5038610ad4565b503d610eca565b8a513d89823e3d90fd5b610f0c919450873d8911610e4a57610e3c8183611ca0565b9238610a91565b8b513d8a823e3d90fd5b610f3491508b3d8d11610e4a57610e3c8183611ca0565b38610a58565b82919950610f559087933d8411610e4a57610e3c8183611ca0565b989091610a30565b606482888089519262461bcd60e51b845283015260248201527f53656e742076616c7565206973206e6f7420657175616c20746f2070726963656044820152fd5b845162461bcd60e51b8152908101869052601d60248201527f4c6f636b74696d6520697320686967686572207468616e206c696d69740000006044820152606490fd5b606490868087519262461bcd60e51b845283015260248201527f4c6f636b74696d65206973206c6f776572207468616e207468726573686f6c646044820152fd5b845162461bcd60e51b8152908101869052601960248201527f416c6c204e4654732068617665206265656e206d696e746564000000000000006044820152606490fd5b634e487b7160e01b835260118252602483fd5b50903461029b578160031936011261029b5760209060fe549051908152f35b50903461029b578160031936011261029b57805190826066546110b981611e58565b8085529160019180831690811561115457506001146110f7575b5050506110e582610816940383611ca0565b51918291602083526020830190611bc0565b9450606685527f46501879b8ca8525e8c2fd519e2fbfcfa2ebea26501294aa02cbfcfb12e943545b82861061113c575050506110e582602061081695820101946110d3565b8054602087870181019190915290950194810161111f565b6108169750869350602092506110e594915060ff191682840152151560051b820101946110d3565b50903461029b578160031936011261029b5760209060fd549051908152f35b50903461029b578160031936011261029b5760975490516001600160a01b039091168152602090f35b503461018f57602036600319011261018f575061018860209235612652565b509134610224576020366003190112610224576111fe611d43565b356101015551f35b50903461029b578160031936011261029b57611220611d43565b609780546001600160a01b031981169091559051906000906001600160a01b03167f8be0079c531659141344cd1fd0a4f28419497f9722a3daafe3b4186f6b6457e08284a3f35b50823461029b57602036600319011261029b576001600160a01b0361128a611be5565b169081156112a75760208480858581526068845220549051908152f35b608490602085519162461bcd60e51b8352820152602960248201527f4552433732313a2061646472657373207a65726f206973206e6f7420612076616044820152683634b21037bbb732b960b91b6064820152fd5b509134610224576020366003190112610224578160209360ff92358152610104855220541690519015158152f35b503461018f57602036600319011261018f575061134960209235611e32565b90516001600160a01b039091168152f35b50903461029b578160031936011261029b57602090610103549051908152f35b50903461029b578160031936011261029b5760209060fc549051908152f35b50903461029b576020806003193601126102245783356113be600260c95414156125ee565b600260c9556001600160a01b03806113d583611e32565b163303611748576113e582612652565b421061170d5760036113f860fe54612579565b048160fb54168551636572f88f60e11b815285818a81855afa9081156116bd5788916116f0575b50865186818b8163e7334fe560e01b968782525afa9081156116e6576114829288928b888e899583946116c7575b508d5163095ea7b360e01b81526001600160a01b03909416908401908152602081019590955291958694859391849160400190565b0393165af180156116bd576116a0575b50848360fb5416918988518094819382525afa908115611679579083918891611683575b5016803b1561076357868260248a838a5195869485936378a1085360e11b85528401525af1801561167957611666575b5085808092875190335af16114f961226d565b501561162c5761150882611e32565b828652610104845260ff85872054166115c65761152483612217565b1690818552606883528385208054600181106115b3577fb90306ad06b2a6ff86ddc9327db583062895ef6540e62dc50add009db5b356eb95969750600019019055808652606783528486206001600160601b0360a01b815416905580868651937fddf252ad1be2c89b69c2b068fc378daa952ba7f163c4a11628f55a4df523b3ef8286a48152a1600160c95551f35b634e487b7160e01b875260118852602487fd5b845162461bcd60e51b8152808801859052603a60248201527f43616e6e6f74207472616e7366657220746f6b656e202d2063757272656e746c6044820152793c903637b1b5b2b21034b71030b71030b1ba34bb32903637b0b760311b6064820152608490fd5b835162461bcd60e51b815280870184905260146024820152732330b4b632b2103a379039b2b7321022ba3432b960611b6044820152606490fd5b61167290969196611c5a565b94386114e6565b86513d89823e3d90fd5b61169a9150863d8811610e4a57610e3c8183611ca0565b386114b6565b6116b690863d8811610ee357610ed48183611ca0565b5038611492565b87513d8a823e3d90fd5b6116df919450873d8911610e4a57610e3c8183611ca0565b923861144d565b88513d8b823e3d90fd5b6117079150863d8811610e4a57610e3c8183611ca0565b3861141f565b835162461bcd60e51b81528087018490526015602482015274151bdad95b881a5cc81cdd1a5b1b081b1bd8dad959605a1b6044820152606490fd5b835162461bcd60e51b8152808701849052600e60248201526d26bab9ba1037bbb7103a37b5b2b760911b6044820152606490fd5b5091346102245761178c36611c16565b91845193602085019085821067ffffffffffffffff8311176117c65750916108b793916101cf959387528784526108a76108a28433611faa565b634e487b7160e01b885260419052602487fd5b5091346102245781600319360112610224576117f3611c4b565b60fb54835163e7334fe560e01b81529192916001600160a01b039160209082908590829086165afa9081156118b4578691611896575b5016330361185357906101cf913584526101046020528284209060ff801983541691151516179055565b606490602084519162461bcd60e51b8352820152601e60248201527f43616c6c6572206d757374206265204d61726b657420636f6e747261637400006044820152fd5b6118ae915060203d8111610e4a57610e3c8183611ca0565b38611829565b85513d88823e3d90fd5b50903461029b576101cf6118d136611c16565b916118df6108a28433611faa565b612039565b5091346102245781600319360112610224576118fe611be5565b602435916001600160a01b0390818061191686611e32565b16931692808414611a09578033149081156119ea575b50156119815750828552606960205283852080546001600160a01b0319168317905561195783611e32565b169251927f8c5be1e5ebec7d5bd14f71427d1e84f3dd0314c0f7b2291e5b200ac8c7c3b9258585a4f35b608490602086519162461bcd60e51b8352820152603e60248201527f4552433732313a20617070726f76652063616c6c6572206973206e6f7420746f60448201527f6b656e206f776e6572206e6f7220617070726f76656420666f7220616c6c00006064820152fd5b90508652606a60205284862033875260205260ff85872054163861192c565b855162461bcd60e51b8152602081840152602160248201527f4552433732313a20617070726f76616c20746f2063757272656e74206f776e656044820152603960f91b6064820152608490fd5b503461018f57602036600319011261018f575061134960209235611e92565b50903461029b578160031936011261029b5780519082606554611a9781611e58565b808552916001918083169081156111545750600114611ac2575050506110e582610816940383611ca0565b9450606585527f8ff97419363ffd7000167f130ef7168fbea05faf9251824ca5043f113cc6a7c75b828610611b07575050506110e582602061081695820101946110d3565b80546020878701810191909152909501948101611aea565b90508334610224576020366003190112610224573563ffffffff60e01b811680910361022457602092506380ac58cd60e01b8114908115611b7a575b8115611b69575b5015158152f35b6301ffc9a760e01b14905083611b62565b635b5e139f60e01b81149150611b5b565b918091926000905b828210611bab575011611ba4575050565b6000910152565b91508060209183015181860152018291611b93565b90602091611bd981518092818552858086019101611b8b565b601f01601f1916010190565b600435906001600160a01b0382168203611bfb57565b600080fd5b602435906001600160a01b0382168203611bfb57565b6060906003190112611bfb576001600160a01b03906004358281168103611bfb57916024359081168103611bfb579060443590565b602435908115158203611bfb57565b67ffffffffffffffff8111611c6e57604052565b634e487b7160e01b600052604160045260246000fd5b6020810190811067ffffffffffffffff821117611c6e57604052565b90601f8019910116810190811067ffffffffffffffff821117611c6e57604052565b67ffffffffffffffff8111611c6e57601f01601f191660200190565b929192611cea82611cc2565b91611cf86040519384611ca0565b829481845281830111611bfb578281602093846000960137010152565b9181601f84011215611bfb5782359167ffffffffffffffff8311611bfb5760208381860195010111611bfb57565b6097546001600160a01b03163303611d5757565b606460405162461bcd60e51b815260206004820152602060248201527f4f776e61626c653a2063616c6c6572206973206e6f7420746865206f776e65726044820152fd5b6097549060018060a01b0380911691826001600160601b0360a01b821617609755167f8be0079c531659141344cd1fd0a4f28419497f9722a3daafe3b4186f6b6457e06000604051a3565b15611ded57565b60405162461bcd60e51b815260206004820152601860248201527f4552433732313a20696e76616c696420746f6b656e20494400000000000000006044820152606490fd5b6000908152606760205260409020546001600160a01b0316611e55811515611de6565b90565b90600182811c92168015611e88575b6020831014611e7257565b634e487b7160e01b600052602260045260246000fd5b91607f1691611e67565b600081815260676020526040902054611eb5906001600160a01b03161515611de6565b6000908152606960205260409020546001600160a01b031690565b15611ed757565b60405162461bcd60e51b815260206004820152602e60248201527f4552433732313a2063616c6c6572206973206e6f7420746f6b656e206f776e6560448201526d1c881b9bdc88185c1c1c9bdd995960921b6064820152608490fd5b60809060208152603260208201527f4552433732313a207472616e7366657220746f206e6f6e20455243373231526560408201527131b2b4bb32b91034b6b83632b6b2b73a32b960711b60608201520190565b15611f8d57565b60405162461bcd60e51b815280611fa660048201611f33565b0390fd5b906001600160a01b038080611fbe84611e32565b16931691838314938415611ff1575b508315611fdb575b50505090565b611fe791929350611e92565b1614388080611fd5565b909350600052606a60205260406000208260005260205260ff604060002054169238611fcd565b818110612023570390565b634e487b7160e01b600052601160045260246000fd5b61204283611e32565b6001600160a01b03918216929082168390036121c45716908115612173576000838152610104602052604060ff818320541661210d5761208185612217565b82825260686020528082208054600181106120f9576000190190558382526068602052808220805460011981116120f9576001019055848252606760205280822080546001600160a01b03191685179055517fddf252ad1be2c89b69c2b068fc378daa952ba7f163c4a11628f55a4df523b3ef9190a4565b634e487b7160e01b84526011600452602484fd5b5162461bcd60e51b815260206004820152603a60248201527f43616e6e6f74207472616e7366657220746f6b656e202d2063757272656e746c6044820152793c903637b1b5b2b21034b71030b71030b1ba34bb32903637b0b760311b6064820152608490fd5b60405162461bcd60e51b8152602060048201526024808201527f4552433732313a207472616e7366657220746f20746865207a65726f206164646044820152637265737360e01b6064820152608490fd5b60405162461bcd60e51b815260206004820152602560248201527f4552433732313a207472616e736665722066726f6d20696e636f72726563742060448201526437bbb732b960d91b6064820152608490fd5b600081815260696020526040812080546001600160a01b03191690556001600160a01b0361224483611e32565b167f8c5be1e5ebec7d5bd14f71427d1e84f3dd0314c0f7b2291e5b200ac8c7c3b92582604051a4565b3d15612298573d9061227e82611cc2565b9161228c6040519384611ca0565b82523d6000602084013e565b606090565b9091600091803b15612388576122e86020918493604051948580948193630a85bd0160e11b9a8b84523360048501528460248501526044840152608060648401526084830190611bc0565b03926001600160a01b03165af190829082612340575b50506123325761230c61226d565b8051908161232d5760405162461bcd60e51b815280611fa660048201611f33565b602001fd5b6001600160e01b0319161490565b909192506020813d8211612380575b8161235c60209383611ca0565b8101031261029b5751906001600160e01b03198216820361018f57509038806122fe565b3d915061234f565b50505050600190565b91926000929190813b15612402576020916123e79185604051958680958194630a85bd0160e11b9b8c845233600485015260018060a01b0380951660248501526044840152608060648401526084830190611bc0565b0393165af1908290826123405750506123325761230c61226d565b5050505050600190565b80156124cb57600081805b6124b3575061242581611cc2565b906124336040519283611ca0565b808252601f1961244282611cc2565b013660208401375b8083156124ac5760018110612023576000190192600a91828206603081198111612023578551871015612496570160f81b6001600160f81b03191660001a908401601f0153049161244a565b634e487b7160e01b600052603260045260246000fd5b5050905090565b906000198114612023576001600a9101910480612417565b506040516040810181811067ffffffffffffffff821117611c6e5760405260018152600360fc1b602082015290565b1561250157565b60405162461bcd60e51b815260206004820152602b60248201527f496e697469616c697a61626c653a20636f6e7472616374206973206e6f74206960448201526a6e697469616c697a696e6760a81b6064820152608490fd5b90816020910312611bfb57516001600160a01b0381168103611bfb5790565b6001600160ff1b0381116001166120235760011b90565b61259f60fc5460fd5490612018565b600019919081151582840482111661202357610101549182156125d857020480670de0b6b3a76400009204821181151516612023570290565b634e487b7160e01b600052601260045260246000fd5b156125f557565b60405162461bcd60e51b815260206004820152601f60248201527f5265656e7472616e637947756172643a207265656e7472616e742063616c6c006044820152606490fd5b90816020910312611bfb57518015158103611bfb5790565b600052610105602052604060002054600160406000200154908119811161202357019056fea264697066735822122082e6731a348fcbef87ce18cef8345bcea3ae237d6a3e6426dcf08cacf7a17c4964736f6c634300080f0033",
  "linkReferences": {},
  "deployedLinkReferences": {}
}