{
  "_format": "hh-sol-artifact-1",
  "contractName": "GenesisNFT",
  "sourceName": "contracts/protocol/GenesisNFT.sol",
  "abi": [
    {
      "anonymous": false,
      "inputs": [
        {
          "indexed": true,
          "internalType": "address",
          "name": "owner",
          "type": "address"
        },
        {
          "indexed": true,
          "internalType": "address",
          "name": "approved",
          "type": "address"
        },
        {
          "indexed": true,
          "internalType": "uint256",
          "name": "tokenId",
          "type": "uint256"
        }
      ],
      "name": "Approval",
      "type": "event"
    },
    {
      "anonymous": false,
      "inputs": [
        {
          "indexed": true,
          "internalType": "address",
          "name": "owner",
          "type": "address"
        },
        {
          "indexed": true,
          "internalType": "address",
          "name": "operator",
          "type": "address"
        },
        {
          "indexed": false,
          "internalType": "bool",
          "name": "approved",
          "type": "bool"
        }
      ],
      "name": "ApprovalForAll",
      "type": "event"
    },
    {
      "anonymous": false,
      "inputs": [
        {
          "indexed": false,
          "internalType": "uint256",
          "name": "tokenId",
          "type": "uint256"
        }
      ],
      "name": "Burn",
      "type": "event"
    },
    {
      "anonymous": false,
      "inputs": [
        {
          "indexed": false,
          "internalType": "uint8",
          "name": "version",
          "type": "uint8"
        }
      ],
      "name": "Initialized",
      "type": "event"
    },
    {
      "anonymous": false,
      "inputs": [
        {
          "indexed": false,
          "internalType": "address",
          "name": "owner",
          "type": "address"
        },
        {
          "indexed": false,
          "internalType": "uint256",
          "name": "tokenId",
          "type": "uint256"
        }
      ],
      "name": "Mint",
      "type": "event"
    },
    {
      "anonymous": false,
      "inputs": [
        {
          "indexed": true,
          "internalType": "address",
          "name": "previousOwner",
          "type": "address"
        },
        {
          "indexed": true,
          "internalType": "address",
          "name": "newOwner",
          "type": "address"
        }
      ],
      "name": "OwnershipTransferred",
      "type": "event"
    },
    {
      "anonymous": false,
      "inputs": [
        {
          "indexed": true,
          "internalType": "address",
          "name": "from",
          "type": "address"
        },
        {
          "indexed": true,
          "internalType": "address",
          "name": "to",
          "type": "address"
        },
        {
          "indexed": true,
          "internalType": "uint256",
          "name": "tokenId",
          "type": "uint256"
        }
      ],
      "name": "Transfer",
      "type": "event"
    },
    {
      "inputs": [
        {
          "internalType": "address",
          "name": "to",
          "type": "address"
        },
        {
          "internalType": "uint256",
          "name": "tokenId",
          "type": "uint256"
        }
      ],
      "name": "approve",
      "outputs": [],
      "stateMutability": "nonpayable",
      "type": "function"
    },
    {
      "inputs": [
        {
          "internalType": "address",
          "name": "owner",
          "type": "address"
        }
      ],
      "name": "balanceOf",
      "outputs": [
        {
          "internalType": "uint256",
          "name": "",
          "type": "uint256"
        }
      ],
      "stateMutability": "view",
      "type": "function"
    },
    {
      "inputs": [
        {
          "internalType": "uint256",
          "name": "tokenId",
          "type": "uint256"
        }
      ],
      "name": "burn",
      "outputs": [],
      "stateMutability": "nonpayable",
      "type": "function"
    },
    {
      "inputs": [
        {
          "internalType": "uint256",
          "name": "tokenId",
          "type": "uint256"
        }
      ],
      "name": "getActiveState",
      "outputs": [
        {
          "internalType": "bool",
          "name": "",
          "type": "bool"
        }
      ],
      "stateMutability": "view",
      "type": "function"
    },
    {
      "inputs": [
        {
          "internalType": "uint256",
          "name": "tokenId",
          "type": "uint256"
        }
      ],
      "name": "getApproved",
      "outputs": [
        {
          "internalType": "address",
          "name": "",
          "type": "address"
        }
      ],
      "stateMutability": "view",
      "type": "function"
    },
    {
      "inputs": [],
      "name": "getCap",
      "outputs": [
        {
          "internalType": "uint256",
          "name": "",
          "type": "uint256"
        }
      ],
      "stateMutability": "view",
      "type": "function"
    },
    {
      "inputs": [],
      "name": "getLTVBoost",
      "outputs": [
        {
          "internalType": "uint256",
          "name": "",
          "type": "uint256"
        }
      ],
      "stateMutability": "view",
      "type": "function"
    },
    {
      "inputs": [
        {
          "internalType": "uint256",
          "name": "locktime",
          "type": "uint256"
        }
      ],
      "name": "getNativeTokensReward",
      "outputs": [
        {
          "internalType": "uint256",
          "name": "",
          "type": "uint256"
        }
      ],
      "stateMutability": "view",
      "type": "function"
    },
    {
      "inputs": [],
      "name": "getPrice",
      "outputs": [
        {
          "internalType": "uint256",
          "name": "",
          "type": "uint256"
        }
      ],
      "stateMutability": "view",
      "type": "function"
    },
    {
      "inputs": [
        {
          "internalType": "uint256",
          "name": "tokenId",
          "type": "uint256"
        }
      ],
      "name": "getUnlockTimestamp",
      "outputs": [
        {
          "internalType": "uint256",
          "name": "",
          "type": "uint256"
        }
      ],
      "stateMutability": "view",
      "type": "function"
    },
    {
      "inputs": [
        {
          "internalType": "contract IAddressesProvider",
          "name": "addressProvider",
          "type": "address"
        },
        {
          "internalType": "string",
          "name": "name",
          "type": "string"
        },
        {
          "internalType": "string",
          "name": "symbol",
          "type": "string"
        },
        {
          "internalType": "uint256",
          "name": "cap",
          "type": "uint256"
        },
        {
          "internalType": "uint256",
          "name": "price",
          "type": "uint256"
        },
        {
          "internalType": "uint256",
          "name": "ltvBoost",
          "type": "uint256"
        },
        {
          "internalType": "uint256",
          "name": "nativeTokenFactor",
          "type": "uint256"
        },
        {
          "internalType": "uint256",
          "name": "maxLocktime",
          "type": "uint256"
        },
        {
          "internalType": "uint256",
          "name": "minLocktime",
          "type": "uint256"
        },
        {
          "internalType": "address payable",
          "name": "devAddress",
          "type": "address"
        }
      ],
      "name": "initialize",
      "outputs": [],
      "stateMutability": "nonpayable",
      "type": "function"
    },
    {
      "inputs": [
        {
          "internalType": "address",
          "name": "owner",
          "type": "address"
        },
        {
          "internalType": "address",
          "name": "operator",
          "type": "address"
        }
      ],
      "name": "isApprovedForAll",
      "outputs": [
        {
          "internalType": "bool",
          "name": "",
          "type": "bool"
        }
      ],
      "stateMutability": "view",
      "type": "function"
    },
    {
      "inputs": [
        {
          "internalType": "uint256",
          "name": "locktime",
          "type": "uint256"
        },
        {
          "internalType": "string",
          "name": "uri",
          "type": "string"
        }
      ],
      "name": "mint",
      "outputs": [
        {
          "internalType": "uint256",
          "name": "",
          "type": "uint256"
        }
      ],
      "stateMutability": "payable",
      "type": "function"
    },
    {
      "inputs": [],
      "name": "mintCount",
      "outputs": [
        {
          "internalType": "uint256",
          "name": "",
          "type": "uint256"
        }
      ],
      "stateMutability": "view",
      "type": "function"
    },
    {
      "inputs": [],
      "name": "name",
      "outputs": [
        {
          "internalType": "string",
          "name": "",
          "type": "string"
        }
      ],
      "stateMutability": "view",
      "type": "function"
    },
    {
      "inputs": [],
      "name": "owner",
      "outputs": [
        {
          "internalType": "address",
          "name": "",
          "type": "address"
        }
      ],
      "stateMutability": "view",
      "type": "function"
    },
    {
      "inputs": [
        {
          "internalType": "uint256",
          "name": "tokenId",
          "type": "uint256"
        }
      ],
      "name": "ownerOf",
      "outputs": [
        {
          "internalType": "address",
          "name": "",
          "type": "address"
        }
      ],
      "stateMutability": "view",
      "type": "function"
    },
    {
      "inputs": [],
      "name": "renounceOwnership",
      "outputs": [],
      "stateMutability": "nonpayable",
      "type": "function"
    },
    {
      "inputs": [
        {
          "internalType": "address",
          "name": "from",
          "type": "address"
        },
        {
          "internalType": "address",
          "name": "to",
          "type": "address"
        },
        {
          "internalType": "uint256",
          "name": "tokenId",
          "type": "uint256"
        }
      ],
      "name": "safeTransferFrom",
      "outputs": [],
      "stateMutability": "nonpayable",
      "type": "function"
    },
    {
      "inputs": [
        {
          "internalType": "address",
          "name": "from",
          "type": "address"
        },
        {
          "internalType": "address",
          "name": "to",
          "type": "address"
        },
        {
          "internalType": "uint256",
          "name": "tokenId",
          "type": "uint256"
        },
        {
          "internalType": "bytes",
          "name": "data",
          "type": "bytes"
        }
      ],
      "name": "safeTransferFrom",
      "outputs": [],
      "stateMutability": "nonpayable",
      "type": "function"
    },
    {
      "inputs": [
        {
          "internalType": "uint256",
          "name": "tokenId",
          "type": "uint256"
        },
        {
          "internalType": "bool",
          "name": "newState",
          "type": "bool"
        }
      ],
      "name": "setActiveState",
      "outputs": [],
      "stateMutability": "nonpayable",
      "type": "function"
    },
    {
      "inputs": [
        {
          "internalType": "address",
          "name": "operator",
          "type": "address"
        },
        {
          "internalType": "bool",
          "name": "approved",
          "type": "bool"
        }
      ],
      "name": "setApprovalForAll",
      "outputs": [],
      "stateMutability": "nonpayable",
      "type": "function"
    },
    {
      "inputs": [
        {
          "internalType": "uint256",
          "name": "newLTVBoost",
          "type": "uint256"
        }
      ],
      "name": "setLTVBoost",
      "outputs": [],
      "stateMutability": "nonpayable",
      "type": "function"
    },
    {
      "inputs": [
        {
          "internalType": "address",
          "name": "pool",
          "type": "address"
        }
      ],
      "name": "setTradingPool",
      "outputs": [],
      "stateMutability": "nonpayable",
      "type": "function"
    },
    {
      "inputs": [
        {
          "internalType": "bytes4",
          "name": "interfaceId",
          "type": "bytes4"
        }
      ],
      "name": "supportsInterface",
      "outputs": [
        {
          "internalType": "bool",
          "name": "",
          "type": "bool"
        }
      ],
      "stateMutability": "view",
      "type": "function"
    },
    {
      "inputs": [],
      "name": "symbol",
      "outputs": [
        {
          "internalType": "string",
          "name": "",
          "type": "string"
        }
      ],
      "stateMutability": "view",
      "type": "function"
    },
    {
      "inputs": [
        {
          "internalType": "uint256",
          "name": "index",
          "type": "uint256"
        }
      ],
      "name": "tokenByIndex",
      "outputs": [
        {
          "internalType": "uint256",
          "name": "",
          "type": "uint256"
        }
      ],
      "stateMutability": "view",
      "type": "function"
    },
    {
      "inputs": [
        {
          "internalType": "address",
          "name": "owner",
          "type": "address"
        },
        {
          "internalType": "uint256",
          "name": "index",
          "type": "uint256"
        }
      ],
      "name": "tokenOfOwnerByIndex",
      "outputs": [
        {
          "internalType": "uint256",
          "name": "",
          "type": "uint256"
        }
      ],
      "stateMutability": "view",
      "type": "function"
    },
    {
      "inputs": [
        {
          "internalType": "uint256",
          "name": "tokenId",
          "type": "uint256"
        }
      ],
      "name": "tokenURI",
      "outputs": [
        {
          "internalType": "string",
          "name": "",
          "type": "string"
        }
      ],
      "stateMutability": "view",
      "type": "function"
    },
    {
      "inputs": [],
      "name": "totalSupply",
      "outputs": [
        {
          "internalType": "uint256",
          "name": "",
          "type": "uint256"
        }
      ],
      "stateMutability": "view",
      "type": "function"
    },
    {
      "inputs": [
        {
          "internalType": "address",
          "name": "from",
          "type": "address"
        },
        {
          "internalType": "address",
          "name": "to",
          "type": "address"
        },
        {
          "internalType": "uint256",
          "name": "tokenId",
          "type": "uint256"
        }
      ],
      "name": "transferFrom",
      "outputs": [],
      "stateMutability": "nonpayable",
      "type": "function"
    },
    {
      "inputs": [
        {
          "internalType": "address",
          "name": "newOwner",
          "type": "address"
        }
      ],
      "name": "transferOwnership",
      "outputs": [],
      "stateMutability": "nonpayable",
      "type": "function"
    },
    {
      "stateMutability": "payable",
      "type": "receive"
    }
  ],
  "bytecode": "0x60808060405234610016576131c5908161001c8239f35b600080fdfe608080604052600436101561001d575b50361561001b57600080fd5b005b600090813560e01c90816301ffc9a7146120ad5750806306fdde0314612007578063081812fc14611fe8578063095ea7b314611e7357806318160ddd14611e5557806323b872dd14611e30578063296d8c4014611e1157806329e5589814611d275780632f745c5914611c7a57806342842e0e14611c3157806342966c68146117d95780634f6ccce714611747578063554d578d146117285780635ca67d9b146117095780636352211e146116d85780636de010a4146116a857806370a082311461168457806370cda01a1461163f578063715018a6146115e157806377097fc814610a595780638a34711d14610a325780638da5cb5b14610a0857806395d89b41146109375780639659867e146108f657806398d5fdca146108d7578063a22cb465146107ff578063b88d4fde14610778578063c87b56dd14610740578063d482ef9b14610291578063e985e9c51461023d578063ec399a27146102195763f2fde38b0361000f57346102165760203660031901126102165761019f61217c565b6101a76122b0565b6001600160a01b038116156101c2576101bf90612309565b80f35b60405162461bcd60e51b815260206004820152602660248201527f4f776e61626c653a206e6577206f776e657220697320746865207a65726f206160448201526564647265737360d01b6064820152608490fd5b80fd5b5034610216576020366003190112610216576102336122b0565b6004356101995580f35b50346102165760403660031901126102165761025761217c565b6040610261612197565b9260018060a01b038093168152606a602052209116600052602052602060ff604060002054166040519015158152f35b503461021657610140366003190112610216576004356001600160a01b038181169182900361073c5767ffffffffffffffff91602435838111610738576102dc903690600401612282565b929093604435818111610734576102f7903690600401612282565b9095610124359384168094036107305787549660ff8860081c161596878098610723575b801561070c575b156106b0576103869261037e9160019a8a8d8d60ff19841617905561069f575b5061036e60ff8d5460081c1661035781612b17565b61036081612b17565b61036981612b17565b612b17565b61037733612309565b369161224b565b92369161224b565b61039a60ff895460081c1661036981612b17565b815183811161068b57806103af60655461243c565b93601f9485811161063f575b506020908583116001146105c0578b926105b5575b5050600019600383901b1c191690881b176065555b80519283116105a1579082916103fc60665461243c565b82811161054b575b5060209183116001146104cc5788926104c1575b5050600019600383901b1c191690851b176066555b6001600160601b0360a01b916101919083825416179055606435610192556084356101935560a4356101995560c4356101965560e4356101945561010435610195556101989182541617905561019a82815401905561048a575080f35b60207f7f26b83ff96e1f2b6a682f133852f6798a09c465da95921460cefb38474024989161ff00198454168455604051908152a180f35b015190503880610418565b606689528793507f46501879b8ca8525e8c2fd519e2fbfcfa2ebea26501294aa02cbfcfb12e943549190601f1984168a5b8181106105335750841161051a575b505050811b0160665561042d565b015160001960f88460031b161c1916905538808061050c565b8284015185558a9690940193602093840193016104fd565b6105929060668b527f46501879b8ca8525e8c2fd519e2fbfcfa2ebea26501294aa02cbfcfb12e943548480870160051c82019260208810610598575b0160051c0190612b77565b38610404565b92508192610587565b634e487b7160e01b88526041600452602488fd5b0151905038806103d0565b60658c528a93507f8ff97419363ffd7000167f130ef7168fbea05faf9251824ca5043f113cc6a7c79190601f1984168d5b8181106106275750841161060e575b505050811b016065556103e5565b015160001960f88460031b161c19169055388080610600565b8284015185558d9690940193602093840193016105f1565b6106859060658d527f8ff97419363ffd7000167f130ef7168fbea05faf9251824ca5043f113cc6a7c78780860160051c82019260208710610598570160051c0190612b77565b386103bb565b634e487b7160e01b89526041600452602489fd5b61ffff1916610101178c5538610342565b60405162461bcd60e51b815260206004820152602e60248201527f496e697469616c697a61626c653a20636f6e747261637420697320616c72656160448201526d191e481a5b9a5d1a585b1a5e995960921b6064820152608490fd5b50303b1580156103225750600160ff8a1614610322565b50600160ff8a161061031b565b8780fd5b8680fd5b8480fd5b8280fd5b503461021657602036600319011261021657610774610760600435612b8e565b604051918291602083526020830190612157565b0390f35b50346102165760803660031901126102165761079261217c565b61079a612197565b906064359060443567ffffffffffffffff83116107385736602384011215610738576101bf936107d76107fa94369060248160040135910161224b565b926107ea6107e5843361258d565b6124b4565b6107f5838383612655565b612a4f565b612569565b50346102165760403660031901126102165761081961217c565b6108216121e2565b6001600160a01b039091169033821461089257338352606a60205260408320826000526020526108618160406000209060ff801983541691151516179055565b60405190151581527f17307eab39ab6107e8899845ad3d59bd9653f200f220920489ca2b5937696c3160203392a380f35b60405162461bcd60e51b815260206004820152601960248201527f4552433732313a20617070726f766520746f2063616c6c6572000000000000006044820152606490fd5b5034610216578060031936011261021657602061019354604051908152f35b503461021657806003193601126102165761019a5460001981019190821161092357602082604051908152f35b634e487b7160e01b81526011600452602490fd5b503461021657806003193601126102165760405190806066546109598161243c565b808552916001918083169081156109de5750600114610983575b610774856107608187038261220d565b9250606683527f46501879b8ca8525e8c2fd519e2fbfcfa2ebea26501294aa02cbfcfb12e943545b8284106109c657505050810160200161076082610774610973565b805460208587018101919091529093019281016109ab565b8695506107749693506020925061076094915060ff191682840152151560051b8201019293610973565b503461021657806003193601126102165761012d546040516001600160a01b039091168152602090f35b5034610216576020366003190112610216576020610a5160043561314e565b604051908152f35b5060403660031901126102165760243567ffffffffffffffff8111611358573660238201121561135857610a9790369060248160040135910161224b565b610a9f613012565b610197546001600160a01b0316801561159c5761019a54916101925483116115575761019554600435106115135761019454600435116114ce576101935491823403611489576001600160ff1b038316830361142057604080516314f0597960e01b815291829060049082905afa9081156112dd57859161145a575b508051611434575060038260011b04613a989081810291818304149015171561142057915b610191546040516315b9ba5d60e01b81528691602090829060049082906001600160a01b03165afa908115611364578291611401575b50610b8b610b85600435612f31565b86612fc5565b906001600160a01b0381163b1561073c576024839260405194859384926302a1453160e21b8452600484015260018060a01b03165af180156113f6576113c6575b50610191546040516315b9ba5d60e01b8152869291602090829060049082906001600160a01b03165afa801561139e5785602091610c479386916113a9575b506101975460405163095ea7b360e01b81526001600160a01b039091166004820152602481019290925290928391908290879082906044820190565b03926001600160a01b03165af1801561139e5761136f575b506020610cab606460018060a01b0361019754169660405190610c81826121f1565b6003600187901b04825284820152604051630b4c7e4d60e01b815297889384926004840190612fea565b86604483015260038660011b04905af193841561136457829461132c575b5081808092610ced600360018060a01b0361019854169260011b0461019354612efb565b905af1610cf861292b565b50156112e857610191546040516315b9ba5d60e01b815290602090829060049082906001600160a01b03165afa80156112dd57610dcb9186916112ae575b506001600160a01b0316610d4b600435612f31565b60405163a9059cbb60e01b60208201908152336024830152604480830193909352918152919087908190610d8060648661220d565b60405194610d8d866121f1565b602086527f5361666545524332303a206c6f772d6c6576656c2063616c6c206661696c65646020870152519082855af1610dc561292b565b916130b5565b80519081611239575b50506040516020810181811067ffffffffffffffff82111761105d5760405284815233156111f557600084815260676020526040902054610e21906001600160a01b031615155b15613069565b8360005261019b60205260ff6040600020541661118d5760995484600052609a60205280604060002055600160401b81101561105d57610f3091610e8d86610e728460016107fa9601609955612aca565b90919082549060031b600019811b9283911b16911916179055565b610e9633612353565b33600052609760205260406000208160005260205286604060002055866000526098602052604060002055610ee3610e1b87600052606760205260018060a01b0360406000205416151590565b33875260686020526040872060018154019055858752606760205260408720336001600160601b0360a01b8254161790558533886000805160206131708339815191528180a4853361295b565b6000838152606760205260409020546001600160a01b0316156111315782845260fb602052604084209080519067ffffffffffffffff821161111d578190610f78845461243c565b601f81116110e2575b50602090601f831160011461107e578792611073575b50508160011b916000199060031b1c19161790555b60405190606082019082821067ffffffffffffffff83111761105d57602094600292604052428452604086850191600435835281860193845286815261019c8852209351845551600184015551910155600161019a540161019a557f0f6798a560793a54c3bcfe86a93cde1e73087d944c0ea20544137d41213968856040518061104c84338360209093929193604081019460018060a01b031681520152565b0390a1600161015f55604051908152f35b634e487b7160e01b600052604160045260246000fd5b015190503880610f97565b848852602088209250601f198416885b8181106110ca57509084600195949392106110b1575b505050811b019055610fac565b015160001960f88460031b161c191690553880806110a4565b9293602060018192878601518155019501930161108e565b61110d9085895260208920601f850160051c81019160208610611113575b601f0160051c0190612b77565b38610f81565b9091508190611100565b634e487b7160e01b86526041600452602486fd5b60405162461bcd60e51b815260206004820152602e60248201527f45524337323155524953746f726167653a2055524920736574206f66206e6f6e60448201526d32bc34b9ba32b73a103a37b5b2b760911b6064820152608490fd5b60405162461bcd60e51b815260206004820152603a60248201527f43616e6e6f74207472616e7366657220746f6b656e202d2063757272656e746c6044820152793c903637b1b5b2b21034b71030b71030b1ba34bb32903637b0b760311b6064820152608490fd5b606460405162461bcd60e51b815260206004820152602060248201527f4552433732313a206d696e7420746f20746865207a65726f20616464726573736044820152fd5b60208061124a938301019101612fd2565b15611256573880610dd4565b60405162461bcd60e51b815260206004820152602a60248201527f5361666545524332303a204552433230206f7065726174696f6e20646964206e6044820152691bdd081cdd58d8d9595960b21b6064820152608490fd5b6112d0915060203d6020116112d6575b6112c8818361220d565b810190612edc565b38610d36565b503d6112be565b6040513d87823e3d90fd5b606460405162461bcd60e51b815260206004820152602060248201527f4661696c656420746f2073656e6420457468657220746f206465762066756e646044820152fd5b9093506020813d60201161135c575b816113486020938361220d565b8101031261135857519281610cc9565b5080fd5b3d915061133b565b6040513d84823e3d90fd5b6113909060203d602011611397575b611388818361220d565b810190612fd2565b5038610c5f565b503d61137e565b6040513d85823e3d90fd5b6113c09150833d85116112d6576112c8818361220d565b38610c0b565b67ffffffffffffffff81969296116113e2576040529338610bcc565b634e487b7160e01b82526041600452602482fd5b6040513d88823e3d90fd5b61141a915060203d6020116112d6576112c8818361220d565b38610b76565b634e487b7160e01b85526011600452602485fd5b8061144c602061145493015160038660011b04612f1e565b905190612ebc565b91610b40565b61147c915060403d604011611482575b611474818361220d565b810190612f76565b38610b1b565b503d61146a565b60405162461bcd60e51b815260206004820152601e60248201527f54782076616c7565206973206e6f7420657175616c20746f20707269636500006044820152606490fd5b60405162461bcd60e51b815260206004820152601d60248201527f4c6f636b74696d6520697320686967686572207468616e206c696d69740000006044820152606490fd5b606460405162461bcd60e51b815260206004820152602060248201527f4c6f636b74696d65206973206c6f776572207468616e207468726573686f6c646044820152fd5b60405162461bcd60e51b815260206004820152601960248201527f416c6c204e4654732068617665206265656e206d696e746564000000000000006044820152606490fd5b60405162461bcd60e51b815260206004820152601d60248201527f496e63656e746976697a656420706f6f6c206973206e6f74207365742e0000006044820152606490fd5b50346102165780600319360112610216576115fa6122b0565b61012d80546001600160a01b0319811690915581906001600160a01b03167f8be0079c531659141344cd1fd0a4f28419497f9722a3daafe3b4186f6b6457e08280a380f35b50346102165760203660031901126102165761165961217c565b6116616122b0565b61019780546001600160a01b0319166001600160a01b0390921691909117905580f35b5034610216576020366003190112610216576020610a516116a361217c565b612353565b50346102165760203660031901126102165760ff6040602092600435815261019b84522054166040519015158152f35b50346102165760203660031901126102165760206116f7600435612416565b6040516001600160a01b039091168152f35b5034610216578060031936011261021657602061019954604051908152f35b5034610216578060031936011261021657602061019254604051908152f35b50346102165760203660031901126102165760043560995481101561177f57611771602091612aca565b90546040519160031b1c8152f35b60405162461bcd60e51b815260206004820152602c60248201527f455243373231456e756d657261626c653a20676c6f62616c20696e646578206f60448201526b7574206f6620626f756e647360a01b6064820152608490fd5b5034610216576020908160031936011261021657600435916117f9613012565b6001600160a01b03928361180c82612416565b163303611bfb5761181c8161314e565b4210611bbe578361019754169381845261019c83528360406002818320015496608482519861184a8a6121f1565b848a5284888b015283519485938492633eb1719f60e01b8452600484015261187760249c8d850190612fea565b3360648401525af180156112dd57611b9f575b5061189482612416565b82855261019b845260ff604086205416611b38578082169081611a9b575050609954828552609a8452806040862055600160401b811015611a885782610e728260016118e39401609955612aca565b6099546000199590868101908111611a7557838652609a855261190a604087205491612aca565b90549060031b1c61191e81610e7284612aca565b8652609a85526040862055828552846040812055609954908115611a6357509385839282977fb90306ad06b2a6ff86ddc9327db583062895ef6540e62dc50add009db5b356eb970161196f81612aca565b8482549160031b1b1916905560995561198784612416565b908484526069875260408420916001600160601b0360a01b928381541690551691828452606887526040842090815401905583835260678652604083209081541690556000805160206131708339815191528280a460fb82526119ed604085205461243c565b611a02575b604051908152a1600161015f5580f35b80845260fb82528360408120611a18815461243c565b80611a26575b5050506119f2565b601f8111600114611a3c5750555b833880611a1e565b818352848320611a5791601f0160051c810190600101612b77565b81848120915555611a34565b634e487b7160e01b8652603160045285fd5b50634e487b7160e01b8552601160045284fd5b634e487b7160e01b855260416004528585fd5b611aa490612353565b600019810191908211611b2557838652609885526040862054828103611ae9575b508386528560408120558552609784526040852090855283528360408120556118e3565b81875260978652604087208388528652604087205482885260978752604088208289528752806040892055875260988652604087205538611ac5565b634e487b7160e01b865260116004528686fd5b60405162461bcd60e51b815260048101859052603a818801527f43616e6e6f74207472616e7366657220746f6b656e202d2063757272656e746c6044820152793c903637b1b5b2b21034b71030b71030b1ba34bb32903637b0b760311b6064820152608490fd5b611bb79060403d60401161148257611474818361220d565b503861188a565b60405162461bcd60e51b8152600481018390526015602482015274151bdad95b881a5cc81cdd1a5b1b081b1bd8dad959605a1b6044820152606490fd5b60405162461bcd60e51b815260048101839052600e60248201526d26bab9ba1037bbb7103a37b5b2b760911b6044820152606490fd5b503461021657611c40366121ad565b90604051926020840184811067ffffffffffffffff82111761111d57916107fa93916101bf95936040528684526107ea6107e5843361258d565b503461021657604036600319011261021657611c9461217c565b60243591611ca182612353565b831015611cce5760209260409260018060a01b031682526097845282822090825283522054604051908152f35b60405162461bcd60e51b815260206004820152602b60248201527f455243373231456e756d657261626c653a206f776e657220696e646578206f7560448201526a74206f6620626f756e647360a81b6064820152608490fd5b503461021657604036600319011261021657611d416121e2565b610191546040516302690e7760e11b81526001600160a01b03916020908290600490829086165afa908115611e06578491611de8575b50163303611da3576101bf90600435835261019b602052604083209060ff801983541691151516179055565b60405162461bcd60e51b815260206004820152601e60248201527f43616c6c6572206d757374206265204d61726b657420636f6e747261637400006044820152606490fd5b611e00915060203d81116112d6576112c8818361220d565b38611d77565b6040513d86823e3d90fd5b5034610216576020366003190112610216576020610a51600435612f31565b5034610216576101bf611e42366121ad565b91611e506107e5843361258d565b612655565b50346102165780600319360112610216576020609954604051908152f35b503461021657604036600319011261021657611e8d61217c565b602435906001600160a01b038080611ea485612416565b16921691808314611f9957803314908115611f78575b5015611f0d5782845260696020526040842080546001600160a01b03191683179055611ee583612416565b167f8c5be1e5ebec7d5bd14f71427d1e84f3dd0314c0f7b2291e5b200ac8c7c3b9258480a480f35b60405162461bcd60e51b815260206004820152603d60248201527f4552433732313a20617070726f76652063616c6c6572206973206e6f7420746f60448201527f6b656e206f776e6572206f7220617070726f76656420666f7220616c6c0000006064820152608490fd5b90508452606a6020526040842033855260205260ff60408520541638611eba565b60405162461bcd60e51b815260206004820152602160248201527f4552433732313a20617070726f76616c20746f2063757272656e74206f776e656044820152603960f91b6064820152608490fd5b50346102165760203660031901126102165760206116f7600435612476565b503461021657806003193601126102165760405190806065546120298161243c565b808552916001918083169081156109de575060011461205257610774856107608187038261220d565b9250606583527f8ff97419363ffd7000167f130ef7168fbea05faf9251824ca5043f113cc6a7c75b82841061209557505050810160200161076082610774610973565b8054602085870181019190915290930192810161207a565b9050346113585760203660031901126113585760043563ffffffff60e01b811680910361073c576020925063780e9d6360e01b81149081156120f1575b5015158152f35b6380ac58cd60e01b811491508115612123575b8115612112575b50386120ea565b6301ffc9a760e01b1490503861210b565b635b5e139f60e01b81149150612104565b60005b8381106121475750506000910152565b8181015183820152602001612137565b9060209161217081518092818552858086019101612134565b601f01601f1916010190565b600435906001600160a01b038216820361219257565b600080fd5b602435906001600160a01b038216820361219257565b6060906003190112612192576001600160a01b0390600435828116810361219257916024359081168103612192579060443590565b60243590811515820361219257565b6040810190811067ffffffffffffffff82111761105d57604052565b90601f8019910116810190811067ffffffffffffffff82111761105d57604052565b67ffffffffffffffff811161105d57601f01601f191660200190565b9291926122578261222f565b91612265604051938461220d565b829481845281830111612192578281602093846000960137010152565b9181601f840112156121925782359167ffffffffffffffff8311612192576020838186019501011161219257565b61012d546001600160a01b031633036122c557565b606460405162461bcd60e51b815260206004820152602060248201527f4f776e61626c653a2063616c6c6572206973206e6f7420746865206f776e65726044820152fd5b61012d80546001600160a01b039283166001600160a01b0319821681179092559091167f8be0079c531659141344cd1fd0a4f28419497f9722a3daafe3b4186f6b6457e0600080a3565b6001600160a01b0316801561237357600052606860205260406000205490565b60405162461bcd60e51b815260206004820152602960248201527f4552433732313a2061646472657373207a65726f206973206e6f7420612076616044820152683634b21037bbb732b960b91b6064820152608490fd5b156123d157565b60405162461bcd60e51b815260206004820152601860248201527f4552433732313a20696e76616c696420746f6b656e20494400000000000000006044820152606490fd5b6000908152606760205260409020546001600160a01b03166124398115156123ca565b90565b90600182811c9216801561246c575b602083101461245657565b634e487b7160e01b600052602260045260246000fd5b91607f169161244b565b600081815260676020526040902054612499906001600160a01b031615156123ca565b6000908152606960205260409020546001600160a01b031690565b156124bb57565b60405162461bcd60e51b815260206004820152602d60248201527f4552433732313a2063616c6c6572206973206e6f7420746f6b656e206f776e6560448201526c1c881bdc88185c1c1c9bdd9959609a1b6064820152608490fd5b60809060208152603260208201527f4552433732313a207472616e7366657220746f206e6f6e20455243373231526560408201527131b2b4bb32b91034b6b83632b6b2b73a32b960711b60608201520190565b1561257057565b60405162461bcd60e51b81528061258960048201612516565b0390fd5b906001600160a01b0380806125a184612416565b169316918383149384156125d4575b5083156125be575b50505090565b6125ca91929350612476565b16143880806125b8565b909350600052606a60205260406000208260005260205260ff6040600020541692386125b0565b1561260257565b60405162461bcd60e51b815260206004820152602560248201527f4552433732313a207472616e736665722066726f6d20696e636f72726563742060448201526437bbb732b960d91b6064820152608490fd5b9061267b9061266384612416565b6001600160a01b0384811693909291831684146125fb565b8181169384156128da5760009286845260209261019b845260409260ff848720541661287357878791821560001461278e57505050609954888652609a85528084872055600160401b81101561111d57868893600080516020613170833981519152979695936126f88c610e728660016127119801609955612aca565b828603612760575b5061270a8b612416565b16146125fb565b878452606983526067818520936001600160601b0360a01b94858154169055878652606881528286206000198154019055838652828620600181540190558986525283209182541617905580a4565b61276990612353565b8588526097875284882081895287528b858920558b8852609887528488205538612700565b818398979694929593036127b8575b509561271191600080516020613170833981519152976126f8565b9092949596506127c9919350612353565b600019810190811161285f5786889387969593612711938c6000805160206131708339815191529a526098885285892054818103612828575b508c8952888681205583895260978852858920908952875287858120559197509161279d565b848a5260978952868a20828b528952868a2054858b5260978a52878b20828c528a5280888c20558a5260988952868a205538612802565b634e487b7160e01b86526011600452602486fd5b835162461bcd60e51b815260048101869052603a60248201527f43616e6e6f74207472616e7366657220746f6b656e202d2063757272656e746c6044820152793c903637b1b5b2b21034b71030b71030b1ba34bb32903637b0b760311b6064820152608490fd5b60405162461bcd60e51b8152602060048201526024808201527f4552433732313a207472616e7366657220746f20746865207a65726f206164646044820152637265737360e01b6064820152608490fd5b3d15612956573d9061293c8261222f565b9161294a604051938461220d565b82523d6000602084013e565b606090565b9091600091803b15612a46576129a66020918493604051948580948193630a85bd0160e11b9a8b84523360048501528460248501526044840152608060648401526084830190612157565b03926001600160a01b03165af1908290826129fe575b50506129f0576129ca61292b565b805190816129eb5760405162461bcd60e51b81528061258960048201612516565b602001fd5b6001600160e01b0319161490565b909192506020813d8211612a3e575b81612a1a6020938361220d565b810103126113585751906001600160e01b03198216820361021657509038806129bc565b3d9150612a0d565b50505050600190565b91926000929190813b15612ac057602091612aa59185604051958680958194630a85bd0160e11b9b8c845233600485015260018060a01b0380951660248501526044840152608060648401526084830190612157565b0393165af1908290826129fe5750506129f0576129ca61292b565b5050505050600190565b609954811015612b015760996000527f72a152ddfb8e864297c917af52ea6c1c68aead0fee1a62673fcc7e0c94979d000190600090565b634e487b7160e01b600052603260045260246000fd5b15612b1e57565b60405162461bcd60e51b815260206004820152602b60248201527f496e697469616c697a61626c653a20636f6e7472616374206973206e6f74206960448201526a6e697469616c697a696e6760a81b6064820152608490fd5b818110612b82575050565b60008155600101612b77565b600081815260676020526040902054612bb1906001600160a01b031615156123ca565b60009080825260209060fb82526040928381209184518284549082612bd58361243c565b91828252888201976001948a8682169182600014612e9e575050600114612e60575b50612c049250038361220d565b8651612c0f816121f1565b60079586825266697066733a2f2f60c81b9384898401528051612e0657505050600083815260676020526040902054612c52906001600160a01b031615156123ca565b865194612c5e866121f1565b855285850191825282839185947a184f03e93ff9f4daa797ed6e38ed64bf6a1f0100000000000000009081811015612df9575b5050876d04ee2d6d415b85acef810000000080851015612deb575b5050662386f26fc1000080841015612ddc575b506305f5e10080841015612dcd575b5061271080841015612dbe575b506064831015612dae575b600a80931015612da5575b9081602186612d1a838d9901612d12612d098261222f565b9a519a8b61220d565b808a5261222f565b888c019990601f1901368b3750870101905b612d6f575b5050505090612d6361243995949392612d54975197889551809288880190612134565b84019151809386840190612134565b0103808452018261220d565b600019019083906f181899199a1a9b1b9c1cb0b131b232b360811b8282061a835304918215612da057919082612d2c565b612d31565b80940193612cf1565b9391606460029104920193612ce6565b60049195930492019338612cdb565b60089195930492019338612cce565b60109195930492019338612cbf565b950194909204918738612cac565b8a96500492503880612c91565b93509350949596905051958694845b878110612e4a5750505091612e3b84926124399694602780970193845251928391612134565b8101039081018452018261220d565b8181018301518982018401528896508201612e15565b915050855282878087208488915b858310612e85575050612c04935082010138612bf7565b8091929450548385890101520191018890848693612e6e565b60ff19168b52612c0495151560051b8501019250389150612bf79050565b8115612ec6570490565b634e487b7160e01b600052601260045260246000fd5b9081602091031261219257516001600160a01b03811681036121925790565b91908203918211612f0857565b634e487b7160e01b600052601160045260246000fd5b81810292918115918404141715612f0857565b612f4f612f5991612f496101925461019a5490612efb565b90612f1e565b6101965490612ebc565b670de0b6b3a764000090818102918183041490151715612f085790565b906040828203126121925780601f830112156121925760405191612f99836121f1565b82906040810192831161219257905b828210612fb55750505090565b8151815260209182019101612fa8565b91908201809211612f0857565b90816020910312612192575180151581036121925790565b6000915b60028310612ffb57505050565b600190825181526020809101920192019190612fee565b61015f60028154146130245760029055565b60405162461bcd60e51b815260206004820152601f60248201527f5265656e7472616e637947756172643a207265656e7472616e742063616c6c006044820152606490fd5b1561307057565b60405162461bcd60e51b815260206004820152601c60248201527f4552433732313a20746f6b656e20616c7265616479206d696e746564000000006044820152606490fd5b9192901561311757508151156130c9575090565b3b156130d25790565b60405162461bcd60e51b815260206004820152601d60248201527f416464726573733a2063616c6c20746f206e6f6e2d636f6e74726163740000006044820152606490fd5b82519091501561312a5750805190602001fd5b60405162461bcd60e51b815260206004820152908190612589906024830190612157565b60005261019c60205261243960406000205460016040600020015490612fc556feddf252ad1be2c89b69c2b068fc378daa952ba7f163c4a11628f55a4df523b3efa2646970667358221220099526ae5b17493dc348de990e7181cb03d3ffc8122a0b4439376cb13e34ad8264736f6c63430008110033",
  "linkReferences": {},
  "deployedLinkReferences": {}
}