{
  "_format": "hh-sol-artifact-1",
  "contractName": "GenesisNFT",
  "sourceName": "contracts/protocol/GenesisNFT.sol",
  "abi": [
    {
      "anonymous": false,
      "inputs": [
        {
          "indexed": true,
          "internalType": "address",
          "name": "owner",
          "type": "address"
        },
        {
          "indexed": true,
          "internalType": "address",
          "name": "approved",
          "type": "address"
        },
        {
          "indexed": true,
          "internalType": "uint256",
          "name": "tokenId",
          "type": "uint256"
        }
      ],
      "name": "Approval",
      "type": "event"
    },
    {
      "anonymous": false,
      "inputs": [
        {
          "indexed": true,
          "internalType": "address",
          "name": "owner",
          "type": "address"
        },
        {
          "indexed": true,
          "internalType": "address",
          "name": "operator",
          "type": "address"
        },
        {
          "indexed": false,
          "internalType": "bool",
          "name": "approved",
          "type": "bool"
        }
      ],
      "name": "ApprovalForAll",
      "type": "event"
    },
    {
      "anonymous": false,
      "inputs": [
        {
          "indexed": false,
          "internalType": "uint256",
          "name": "tokenId",
          "type": "uint256"
        }
      ],
      "name": "Burn",
      "type": "event"
    },
    {
      "anonymous": false,
      "inputs": [
        {
          "indexed": false,
          "internalType": "uint8",
          "name": "version",
          "type": "uint8"
        }
      ],
      "name": "Initialized",
      "type": "event"
    },
    {
      "anonymous": false,
      "inputs": [
        {
          "indexed": false,
          "internalType": "address",
          "name": "owner",
          "type": "address"
        },
        {
          "indexed": false,
          "internalType": "uint256",
          "name": "tokenId",
          "type": "uint256"
        }
      ],
      "name": "Mint",
      "type": "event"
    },
    {
      "anonymous": false,
      "inputs": [
        {
          "indexed": true,
          "internalType": "address",
          "name": "previousOwner",
          "type": "address"
        },
        {
          "indexed": true,
          "internalType": "address",
          "name": "newOwner",
          "type": "address"
        }
      ],
      "name": "OwnershipTransferred",
      "type": "event"
    },
    {
      "anonymous": false,
      "inputs": [
        {
          "indexed": true,
          "internalType": "address",
          "name": "from",
          "type": "address"
        },
        {
          "indexed": true,
          "internalType": "address",
          "name": "to",
          "type": "address"
        },
        {
          "indexed": true,
          "internalType": "uint256",
          "name": "tokenId",
          "type": "uint256"
        }
      ],
      "name": "Transfer",
      "type": "event"
    },
    {
      "inputs": [
        {
          "internalType": "address",
          "name": "to",
          "type": "address"
        },
        {
          "internalType": "uint256",
          "name": "tokenId",
          "type": "uint256"
        }
      ],
      "name": "approve",
      "outputs": [],
      "stateMutability": "nonpayable",
      "type": "function"
    },
    {
      "inputs": [
        {
          "internalType": "address",
          "name": "owner",
          "type": "address"
        }
      ],
      "name": "balanceOf",
      "outputs": [
        {
          "internalType": "uint256",
          "name": "",
          "type": "uint256"
        }
      ],
      "stateMutability": "view",
      "type": "function"
    },
    {
      "inputs": [
        {
          "internalType": "uint256",
          "name": "tokenId",
          "type": "uint256"
        }
      ],
      "name": "burn",
      "outputs": [],
      "stateMutability": "nonpayable",
      "type": "function"
    },
    {
      "inputs": [
        {
          "internalType": "uint256",
          "name": "tokenId",
          "type": "uint256"
        }
      ],
      "name": "getActiveState",
      "outputs": [
        {
          "internalType": "bool",
          "name": "",
          "type": "bool"
        }
      ],
      "stateMutability": "view",
      "type": "function"
    },
    {
      "inputs": [
        {
          "internalType": "uint256",
          "name": "tokenId",
          "type": "uint256"
        }
      ],
      "name": "getApproved",
      "outputs": [
        {
          "internalType": "address",
          "name": "",
          "type": "address"
        }
      ],
      "stateMutability": "view",
      "type": "function"
    },
    {
      "inputs": [],
      "name": "getCap",
      "outputs": [
        {
          "internalType": "uint256",
          "name": "",
          "type": "uint256"
        }
      ],
      "stateMutability": "view",
      "type": "function"
    },
    {
      "inputs": [],
      "name": "getLTVBoost",
      "outputs": [
        {
          "internalType": "uint256",
          "name": "",
          "type": "uint256"
        }
      ],
      "stateMutability": "view",
      "type": "function"
    },
    {
      "inputs": [],
      "name": "getSupply",
      "outputs": [
        {
          "internalType": "uint256",
          "name": "",
          "type": "uint256"
        }
      ],
      "stateMutability": "view",
      "type": "function"
    },
    {
      "inputs": [
        {
          "internalType": "contract IAddressesProvider",
          "name": "addressProvider",
          "type": "address"
        },
        {
          "internalType": "string",
          "name": "name",
          "type": "string"
        },
        {
          "internalType": "string",
          "name": "symbol",
          "type": "string"
        },
        {
          "internalType": "uint256",
          "name": "cap",
          "type": "uint256"
        },
        {
          "internalType": "uint256",
          "name": "price",
          "type": "uint256"
        },
        {
          "internalType": "address",
          "name": "weth",
          "type": "address"
        },
        {
          "internalType": "uint256",
          "name": "ltvBoost",
          "type": "uint256"
        },
        {
          "internalType": "address payable",
          "name": "devAddress",
          "type": "address"
        }
      ],
      "name": "initialize",
      "outputs": [],
      "stateMutability": "nonpayable",
      "type": "function"
    },
    {
      "inputs": [
        {
          "internalType": "address",
          "name": "owner",
          "type": "address"
        },
        {
          "internalType": "address",
          "name": "operator",
          "type": "address"
        }
      ],
      "name": "isApprovedForAll",
      "outputs": [
        {
          "internalType": "bool",
          "name": "",
          "type": "bool"
        }
      ],
      "stateMutability": "view",
      "type": "function"
    },
    {
      "inputs": [
        {
          "internalType": "uint256",
          "name": "locktime",
          "type": "uint256"
        }
      ],
      "name": "mint",
      "outputs": [
        {
          "internalType": "uint256",
          "name": "",
          "type": "uint256"
        }
      ],
      "stateMutability": "payable",
      "type": "function"
    },
    {
      "inputs": [],
      "name": "name",
      "outputs": [
        {
          "internalType": "string",
          "name": "",
          "type": "string"
        }
      ],
      "stateMutability": "view",
      "type": "function"
    },
    {
      "inputs": [],
      "name": "owner",
      "outputs": [
        {
          "internalType": "address",
          "name": "",
          "type": "address"
        }
      ],
      "stateMutability": "view",
      "type": "function"
    },
    {
      "inputs": [
        {
          "internalType": "uint256",
          "name": "tokenId",
          "type": "uint256"
        }
      ],
      "name": "ownerOf",
      "outputs": [
        {
          "internalType": "address",
          "name": "",
          "type": "address"
        }
      ],
      "stateMutability": "view",
      "type": "function"
    },
    {
      "inputs": [],
      "name": "renounceOwnership",
      "outputs": [],
      "stateMutability": "nonpayable",
      "type": "function"
    },
    {
      "inputs": [
        {
          "internalType": "address",
          "name": "from",
          "type": "address"
        },
        {
          "internalType": "address",
          "name": "to",
          "type": "address"
        },
        {
          "internalType": "uint256",
          "name": "tokenId",
          "type": "uint256"
        }
      ],
      "name": "safeTransferFrom",
      "outputs": [],
      "stateMutability": "nonpayable",
      "type": "function"
    },
    {
      "inputs": [
        {
          "internalType": "address",
          "name": "from",
          "type": "address"
        },
        {
          "internalType": "address",
          "name": "to",
          "type": "address"
        },
        {
          "internalType": "uint256",
          "name": "tokenId",
          "type": "uint256"
        },
        {
          "internalType": "bytes",
          "name": "data",
          "type": "bytes"
        }
      ],
      "name": "safeTransferFrom",
      "outputs": [],
      "stateMutability": "nonpayable",
      "type": "function"
    },
    {
      "inputs": [
        {
          "internalType": "uint256",
          "name": "tokenId",
          "type": "uint256"
        },
        {
          "internalType": "bool",
          "name": "newState",
          "type": "bool"
        }
      ],
      "name": "setActiveState",
      "outputs": [],
      "stateMutability": "nonpayable",
      "type": "function"
    },
    {
      "inputs": [
        {
          "internalType": "address",
          "name": "operator",
          "type": "address"
        },
        {
          "internalType": "bool",
          "name": "approved",
          "type": "bool"
        }
      ],
      "name": "setApprovalForAll",
      "outputs": [],
      "stateMutability": "nonpayable",
      "type": "function"
    },
    {
      "inputs": [
        {
          "internalType": "uint256",
          "name": "newLTVBoost",
          "type": "uint256"
        }
      ],
      "name": "setLTVBoost",
      "outputs": [],
      "stateMutability": "nonpayable",
      "type": "function"
    },
    {
      "inputs": [
        {
          "internalType": "bytes4",
          "name": "interfaceId",
          "type": "bytes4"
        }
      ],
      "name": "supportsInterface",
      "outputs": [
        {
          "internalType": "bool",
          "name": "",
          "type": "bool"
        }
      ],
      "stateMutability": "view",
      "type": "function"
    },
    {
      "inputs": [],
      "name": "symbol",
      "outputs": [
        {
          "internalType": "string",
          "name": "",
          "type": "string"
        }
      ],
      "stateMutability": "view",
      "type": "function"
    },
    {
      "inputs": [
        {
          "internalType": "uint256",
          "name": "tokenId",
          "type": "uint256"
        }
      ],
      "name": "tokenURI",
      "outputs": [
        {
          "internalType": "string",
          "name": "",
          "type": "string"
        }
      ],
      "stateMutability": "view",
      "type": "function"
    },
    {
      "inputs": [
        {
          "internalType": "address",
          "name": "from",
          "type": "address"
        },
        {
          "internalType": "address",
          "name": "to",
          "type": "address"
        },
        {
          "internalType": "uint256",
          "name": "tokenId",
          "type": "uint256"
        }
      ],
      "name": "transferFrom",
      "outputs": [],
      "stateMutability": "nonpayable",
      "type": "function"
    },
    {
      "inputs": [
        {
          "internalType": "address",
          "name": "newOwner",
          "type": "address"
        }
      ],
      "name": "transferOwnership",
      "outputs": [],
      "stateMutability": "nonpayable",
      "type": "function"
    }
  ],
  "bytecode": "0x60808060405234610016576122a7908161001c8239f35b600080fdfe608080604052600436101561001357600080fd5b600090813560e01c90816301ffc9a7146117805750806306fdde03146116ec578063081812fc146116cd578063095ea7b314611555578063187d9c491461106d57806323b872dd1461104857806329e5589814610fbd57806342842e0e14610f6157806342966c6814610c68578063554d578d14610c4a5780635ca67d9b14610c2b5780636352211e14610bfa5780636c9c2faf14610bdc5780636de010a414610bac57806370a0823114610b16578063715018a614610ab55780638da5cb5b14610a8c57806395d89b41146109a7578063a0712d68146104e2578063a22cb46514610408578063b88d4fde1461037e578063c87b56dd146102b6578063e985e9c514610262578063ec399a27146101c95763f2fde38b1461013457600080fd5b346101c65760203660031901126101c65761014d61184b565b61015561198e565b6001600160a01b038116156101725761016d906119e6565b604051f35b60405162461bcd60e51b815260206004820152602660248201527f4f776e61626c653a206e6577206f776e657220697320746865207a65726f206160448201526564647265737360d01b6064820152608490fd5b80fd5b50346101c65760203660031901126101c65760fb5460405163e7334fe560e01b8152906001600160a01b03906020908390600490829085165afa80156102575761021d928491610229575b501633146121a2565b60043561010155604051f35b61024a915060203d8111610250575b610242818361191b565b810190612183565b38610214565b503d610238565b6040513d85823e3d90fd5b50346101c65760403660031901126101c65761027c61184b565b6040610286611866565b9260018060a01b038093168152606a602052209116600052602052602060ff604060002054166040519015158152f35b50346101c657602090816003193601126101c6576004356000818152606760205260409020546102f0906001600160a01b03161515611a31565b82604051926102fe84611900565b808452156103655761031261034b92612036565b92604051938161032b86935180928680870191016117f1565b820161033f825180938680850191016117f1565b0103808452018261191b565b905b610361604051928284938452830190611826565b0390f35b50505060405161037481611900565b600081529061034d565b50346101c65760803660031901126101c65761039861184b565b6103a0611866565b90606435906044356001600160401b03831161040457366023840112156104045761016d936103dc6103ff943690602481600401359101611957565b926103ef6103ea8433611bf5565b611b1b565b6103fa838383611c63565b611fbb565b611bd1565b8480fd5b50346101c65760403660031901126101c65761042261184b565b61042a6118de565b6001600160a01b039091169033821461049d57338352606a602052604083208260005260205261046a8160406000209060ff801983541691151516179055565b60405190151581527f17307eab39ab6107e8899845ad3d59bd9653f200f220920489ca2b5937696c3160203392a3604051f35b60405162461bcd60e51b815260206004820152601960248201527f4552433732313a20617070726f766520746f2063616c6c6572000000000000006044820152606490fd5b50602090816003193601126101c657610500600260c95414156121ee565b600260c95560fd546001199081811161089957600160fc549101116109625760fe5480340361095e5760ff546001600160a01b03908116916003906105449061223a565b0491803b1561040457848391600460405180948193630d0e30db60e41b83525af1801561091e5790859161094a575b50506004858260fb54166040519283809263e7334fe560e01b82525afa90811561091e57908291869161092d575b50168160ff5416813b15610929576040516311f9fbc960e21b81526001600160a01b03919091166004820152602481018490529085908290604490829084905af1801561091e57908591610906575b5050610100541660fe54918083106108f0578492839283926040519203905af1610618611e97565b50156108ad5760fd54818111610899576001018060fd556040519161063c83611900565b8383523315610856576000828152606760205260409020546001600160a01b031661081157818452610102855260ff6040852054166107a957338452606885526040842090815490811161079557916106e5939160016103ff940190558085526067865260408520336001600160601b0360a01b8254161790558033867fddf252ad1be2c89b69c2b068fc378daa952ba7f163c4a11628f55a4df523b3ef81604051a433611ec7565b6040519060408201908282106001600160401b0383111761077f57600191604052428352604084840191600435835260fd548152610103865220925183555191015560fd547f0f6798a560793a54c3bcfe86a93cde1e73087d944c0ea20544137d41213968856040518061076f84338360209093929193604081019460018060a01b031681520152565b0390a1600160c955604051908152f35b634e487b7160e01b600052604160045260246000fd5b634e487b7160e01b85526011600452602485fd5b60405162461bcd60e51b815260048101869052603a60248201527f43616e6e6f74207472616e7366657220746f6b656e202d2063757272656e746c6044820152793c903637b1b5b2b21034b71030b71030b1ba34bb32903637b0b760311b6064820152608490fd5b60405162461bcd60e51b815260048101869052601c60248201527f4552433732313a20746f6b656e20616c7265616479206d696e746564000000006044820152606490fd5b6064856040519062461bcd60e51b825280600483015260248201527f4552433732313a206d696e7420746f20746865207a65726f20616464726573736044820152fd5b634e487b7160e01b83526011600452602483fd5b6064836040519062461bcd60e51b825280600483015260248201527f4661696c656420746f2073656e6420457468657220746f206465762066756e646044820152fd5b634e487b7160e01b600052601160045260246000fd5b61090f906118ed565b61091a5783386105f0565b8380fd5b6040513d87823e3d90fd5b8580fd5b6109449150873d891161025057610242818361191b565b386105a1565b610953906118ed565b61091a578338610573565b8280fd5b60405162461bcd60e51b815260048101849052601960248201527f416c6c204e4654732068617665206265656e206d696e746564000000000000006044820152606490fd5b50346101c657806003193601126101c65760405190806066546109c981611aa3565b80855291600191808316908115610a625750600114610a07575b610361856109f38187038261191b565b604051918291602083526020830190611826565b9250606683527f46501879b8ca8525e8c2fd519e2fbfcfa2ebea26501294aa02cbfcfb12e943545b828410610a4a5750505081016020016109f3826103616109e3565b80546020858701810191909152909301928101610a2f565b869550610361969350602092506109f394915060ff191682840152151560051b82010192936109e3565b50346101c657806003193601126101c6576097546040516001600160a01b039091168152602090f35b50346101c657806003193601126101c657610ace61198e565b609780546001600160a01b03198116909155604051906000906001600160a01b03167f8be0079c531659141344cd1fd0a4f28419497f9722a3daafe3b4186f6b6457e08284a3f35b50346101c65760203660031901126101c6576001600160a01b03610b3861184b565b168015610b55578160409160209352606883522054604051908152f35b60405162461bcd60e51b815260206004820152602960248201527f4552433732313a2061646472657373207a65726f206973206e6f7420612076616044820152683634b21037bbb732b960b91b6064820152608490fd5b50346101c65760203660031901126101c65760ff6040602092600435815261010284522054166040519015158152f35b50346101c657806003193601126101c657602060fd54604051908152f35b50346101c65760203660031901126101c6576020610c19600435611a7d565b6040516001600160a01b039091168152f35b50346101c657806003193601126101c657602061010154604051908152f35b50346101c657806003193601126101c657602060fc54604051908152f35b50346101c657602090816003193601126101c65760043591610c8f600260c95414156121ee565b600260c9556001600160a01b0380610ca685611a7d565b163303610f2b578060ff54166003610cbf60fe5461223a565b04906004848460fb54166040519283809263e7334fe560e01b82525afa908115610f03579084918791610f0e575b5016803b156109295760405163f3fef3a360e01b81526001600160a01b0383166004820152602481018490529086908290604490829084905af18015610f0357610ef0575b50803b1561040457848091602460405180948193632e1a7d4d60e01b83528760048401525af1801561091e57908591610edc575b5080809260405190335af1610d79611e97565b5015610ea057610d8884611a7d565b848452610102835260ff604085205416610e3857610da585611e41565b1680835260688252604083209384549460018610610795577fb90306ad06b2a6ff86ddc9327db583062895ef6540e62dc50add009db5b356eb949560001901905580855260678352604085206001600160601b0360a01b81541690558085604051937fddf252ad1be2c89b69c2b068fc378daa952ba7f163c4a11628f55a4df523b3ef8286a48152a1600160c955604051f35b60405162461bcd60e51b815260048101849052603a60248201527f43616e6e6f74207472616e7366657220746f6b656e202d2063757272656e746c6044820152793c903637b1b5b2b21034b71030b71030b1ba34bb32903637b0b760311b6064820152608490fd5b60405162461bcd60e51b81526004810183905260146024820152732330b4b632b2103a379039b2b7321022ba3432b960611b6044820152606490fd5b610ee5906118ed565b61091a578338610d66565b610efc909591956118ed565b9338610d32565b6040513d88823e3d90fd5b610f259150863d881161025057610242818361191b565b38610ced565b60405162461bcd60e51b815260048101839052600e60248201526d26bab9ba1037bbb7103a37b5b2b760911b6044820152606490fd5b50346101c657610f70366118a9565b9060405192602084018481106001600160401b03821117610fa957916103ff939161016d95936040528684526103ef6103ea8433611bf5565b634e487b7160e01b86526041600452602486fd5b50346101c65760403660031901126101c657610fd76118de565b60fb5460405163e7334fe560e01b81526001600160a01b0392916020908290600490829087165afa92831561103d5761016d9361101d92869161022957501633146121a2565b6004358352610102602052604083209060ff801983541691151516179055565b6040513d86823e3d90fd5b50346101c65761016d61105a366118a9565b916110686103ea8433611bf5565b611c63565b50346101c6576101003660031901126101c6576001600160a01b03600435818116810361095e576024356001600160401b03811161091a576110b390369060040161187c565b6044939193356001600160401b038111610929576110d590369060040161187c565b60a4929192359184831683036115515760e43593858516850361154d57885460ff8160081c16159889809a611540575b8015611529575b156114cd5760ff1982166001178b5561115b93611153928b6114bc575b5061114360ff8d5460081c1661113e81612123565b612123565b61114c336119e6565b3691611957565b923691611957565b9061117060ff895460081c1661113e81612123565b8051906001600160401b0382116114a857819061118e606554611aa3565b601f8111611436575b50602090601f83116001146113c0578a926113b5575b50508160011b916000199060031b1c1916176065555b8051906001600160401b0382116113a157908492916111e3606654611aa3565b601f811161132f575b50602090601f83116001146112a7578991908361129c575b50508160011b916000199060031b1c1916176066555b816001600160601b0360a01b95168560fb54161760fb5560643560fc5560843560fe55168360ff54161760ff5560c4356101015516906101005416176101005561126357604051f35b61ff001981541681557f7f26b83ff96e1f2b6a682f133852f6798a09c465da95921460cefb3847402498602060405160018152a1604051f35b015190503880611204565b60668a52939291907f46501879b8ca8525e8c2fd519e2fbfcfa2ebea26501294aa02cbfcfb12e9435490601f1983168b5b818110611314575095836001959697106112fb575b505050811b0160665561121a565b015160001960f88460031b161c191690553880806112ed565b878301518455899650600190930192602092830192016112d8565b9091929350606689527f46501879b8ca8525e8c2fd519e2fbfcfa2ebea26501294aa02cbfcfb12e94354601f840160051c81019160208510611397575b90601f8896959493920160051c01905b81811061138957506111ec565b8a815587955060010161137c565b909150819061136c565b634e487b7160e01b88526041600452602488fd5b0151905038806111ad565b925060658a52600080516020612252833981519152908a935b601f198416851061141b576001945083601f19811610611402575b505050811b016065556111c3565b015160001960f88460031b161c191690553880806113f4565b818101518355602094850194600190930192909101906113d9565b90915060658a52601f830160051c6000805160206122528339815191520160208410611493575b908392915b601f820160051c6000805160206122528339815191520181106114855750611197565b8b8155849350600101611462565b5060008051602061225283398151915261145d565b634e487b7160e01b89526041600452602489fd5b61ffff1916610101178c5538611129565b60405162461bcd60e51b815260206004820152602e60248201527f496e697469616c697a61626c653a20636f6e747261637420697320616c72656160448201526d191e481a5b9a5d1a585b1a5e995960921b6064820152608490fd5b50303b15801561110c5750600160ff83161461110c565b50600160ff831610611105565b8880fd5b8780fd5b50346101c65760403660031901126101c65761156f61184b565b6024356001600160a01b03808061158584611a7d565b1693169280841461167e5780331490811561165d575b50156115f25781845260696020526040842080546001600160a01b031916841790556115c682611a7d565b1691604051927f8c5be1e5ebec7d5bd14f71427d1e84f3dd0314c0f7b2291e5b200ac8c7c3b9258585a4f35b60405162461bcd60e51b815260206004820152603e60248201527f4552433732313a20617070726f76652063616c6c6572206973206e6f7420746f60448201527f6b656e206f776e6572206e6f7220617070726f76656420666f7220616c6c00006064820152608490fd5b90508452606a6020526040842033855260205260ff6040852054163861159b565b60405162461bcd60e51b815260206004820152602160248201527f4552433732313a20617070726f76616c20746f2063757272656e74206f776e656044820152603960f91b6064820152608490fd5b50346101c65760203660031901126101c6576020610c19600435611add565b50346101c657806003193601126101c657604051908060655461170e81611aa3565b80855291600191808316908115610a62575060011461173757610361856109f38187038261191b565b9250606583526000805160206122528339815191525b8284106117685750505081016020016109f3826103616109e3565b8054602085870181019190915290930192810161174d565b9050346117ed5760203660031901126117ed5760043563ffffffff60e01b811680910361095e57602092506380ac58cd60e01b81149081156117dc575b81156117cb575b5015158152f35b6301ffc9a760e01b149050386117c4565b635b5e139f60e01b811491506117bd565b5080fd5b918091926000905b82821061181157501161180a575050565b6000910152565b915080602091830151818601520182916117f9565b9060209161183f815180928185528580860191016117f1565b601f01601f1916010190565b600435906001600160a01b038216820361186157565b600080fd5b602435906001600160a01b038216820361186157565b9181601f84011215611861578235916001600160401b038311611861576020838186019501011161186157565b6060906003190112611861576001600160a01b0390600435828116810361186157916024359081168103611861579060443590565b60243590811515820361186157565b6001600160401b03811161077f57604052565b602081019081106001600160401b0382111761077f57604052565b90601f801991011681019081106001600160401b0382111761077f57604052565b6001600160401b03811161077f57601f01601f191660200190565b9291926119638261193c565b91611971604051938461191b565b829481845281830111611861578281602093846000960137010152565b6097546001600160a01b031633036119a257565b606460405162461bcd60e51b815260206004820152602060248201527f4f776e61626c653a2063616c6c6572206973206e6f7420746865206f776e65726044820152fd5b6097549060018060a01b0380911691826001600160601b0360a01b821617609755167f8be0079c531659141344cd1fd0a4f28419497f9722a3daafe3b4186f6b6457e06000604051a3565b15611a3857565b60405162461bcd60e51b815260206004820152601860248201527f4552433732313a20696e76616c696420746f6b656e20494400000000000000006044820152606490fd5b6000908152606760205260409020546001600160a01b0316611aa0811515611a31565b90565b90600182811c92168015611ad3575b6020831014611abd57565b634e487b7160e01b600052602260045260246000fd5b91607f1691611ab2565b600081815260676020526040902054611b00906001600160a01b03161515611a31565b6000908152606960205260409020546001600160a01b031690565b15611b2257565b60405162461bcd60e51b815260206004820152602e60248201527f4552433732313a2063616c6c6572206973206e6f7420746f6b656e206f776e6560448201526d1c881b9bdc88185c1c1c9bdd995960921b6064820152608490fd5b60809060208152603260208201527f4552433732313a207472616e7366657220746f206e6f6e20455243373231526560408201527131b2b4bb32b91034b6b83632b6b2b73a32b960711b60608201520190565b15611bd857565b60405162461bcd60e51b815280611bf160048201611b7e565b0390fd5b906001600160a01b038080611c0984611a7d565b16931691838314938415611c3c575b508315611c26575b50505090565b611c3291929350611add565b1614388080611c20565b909350600052606a60205260406000208260005260205260ff604060002054169238611c18565b611c6c83611a7d565b6001600160a01b0391821692908216839003611dee5716908115611d9d576000838152610102602052604060ff8183205416611d3757611cab85611e41565b8282526068602052808220805460018110611d2357600019019055838252606860205280822080546001198111611d23576001019055848252606760205280822080546001600160a01b03191685179055517fddf252ad1be2c89b69c2b068fc378daa952ba7f163c4a11628f55a4df523b3ef9190a4565b634e487b7160e01b84526011600452602484fd5b5162461bcd60e51b815260206004820152603a60248201527f43616e6e6f74207472616e7366657220746f6b656e202d2063757272656e746c6044820152793c903637b1b5b2b21034b71030b71030b1ba34bb32903637b0b760311b6064820152608490fd5b60405162461bcd60e51b8152602060048201526024808201527f4552433732313a207472616e7366657220746f20746865207a65726f206164646044820152637265737360e01b6064820152608490fd5b60405162461bcd60e51b815260206004820152602560248201527f4552433732313a207472616e736665722066726f6d20696e636f72726563742060448201526437bbb732b960d91b6064820152608490fd5b600081815260696020526040812080546001600160a01b03191690556001600160a01b03611e6e83611a7d565b167f8c5be1e5ebec7d5bd14f71427d1e84f3dd0314c0f7b2291e5b200ac8c7c3b92582604051a4565b3d15611ec2573d90611ea88261193c565b91611eb6604051938461191b565b82523d6000602084013e565b606090565b9091600091803b15611fb257611f126020918493604051948580948193630a85bd0160e11b9a8b84523360048501528460248501526044840152608060648401526084830190611826565b03926001600160a01b03165af190829082611f6a575b5050611f5c57611f36611e97565b80519081611f575760405162461bcd60e51b815280611bf160048201611b7e565b602001fd5b6001600160e01b0319161490565b909192506020813d8211611faa575b81611f866020938361191b565b810103126117ed5751906001600160e01b0319821682036101c65750903880611f28565b3d9150611f79565b50505050600190565b91926000929190813b1561202c576020916120119185604051958680958194630a85bd0160e11b9b8c845233600485015260018060a01b0380951660248501526044840152608060648401526084830190611826565b0393165af190829082611f6a575050611f5c57611f36611e97565b5050505050600190565b80156120f557600081805b6120dd575061204f8161193c565b9061205d604051928361191b565b808252601f1961206c8261193c565b013660208401375b8083156120d657600181106108f0576000190192600a918282066030811981116108f05785518710156120c0570160f81b6001600160f81b03191660001a908401601f01530491612074565b634e487b7160e01b600052603260045260246000fd5b5050905090565b9060001981146108f0576001600a9101910480612041565b50604051604081018181106001600160401b0382111761077f5760405260018152600360fc1b602082015290565b1561212a57565b60405162461bcd60e51b815260206004820152602b60248201527f496e697469616c697a61626c653a20636f6e7472616374206973206e6f74206960448201526a6e697469616c697a696e6760a81b6064820152608490fd5b9081602091031261186157516001600160a01b03811681036118615790565b156121a957565b60405162461bcd60e51b815260206004820152601e60248201527f43616c6c6572206d757374206265204d61726b657420636f6e747261637400006044820152606490fd5b156121f557565b60405162461bcd60e51b815260206004820152601f60248201527f5265656e7472616e637947756172643a207265656e7472616e742063616c6c006044820152606490fd5b6001600160ff1b0381116001166108f05760011b9056fe8ff97419363ffd7000167f130ef7168fbea05faf9251824ca5043f113cc6a7c7a2646970667358221220024f42d949f92e7899e04297fd7b2bb41835bdc5e7277651ece7a139b569089c64736f6c634300080f0033",
  "linkReferences": {},
  "deployedLinkReferences": {}
}