{
  "_format": "hh-sol-artifact-1",
  "contractName": "GenesisNFT",
  "sourceName": "contracts/protocol/GenesisNFT.sol",
  "abi": [
    {
      "anonymous": false,
      "inputs": [
        {
          "indexed": true,
          "internalType": "address",
          "name": "owner",
          "type": "address"
        },
        {
          "indexed": true,
          "internalType": "address",
          "name": "approved",
          "type": "address"
        },
        {
          "indexed": true,
          "internalType": "uint256",
          "name": "tokenId",
          "type": "uint256"
        }
      ],
      "name": "Approval",
      "type": "event"
    },
    {
      "anonymous": false,
      "inputs": [
        {
          "indexed": true,
          "internalType": "address",
          "name": "owner",
          "type": "address"
        },
        {
          "indexed": true,
          "internalType": "address",
          "name": "operator",
          "type": "address"
        },
        {
          "indexed": false,
          "internalType": "bool",
          "name": "approved",
          "type": "bool"
        }
      ],
      "name": "ApprovalForAll",
      "type": "event"
    },
    {
      "anonymous": false,
      "inputs": [
        {
          "indexed": false,
          "internalType": "uint256",
          "name": "tokenId",
          "type": "uint256"
        }
      ],
      "name": "Burn",
      "type": "event"
    },
    {
      "anonymous": false,
      "inputs": [
        {
          "indexed": false,
          "internalType": "uint8",
          "name": "version",
          "type": "uint8"
        }
      ],
      "name": "Initialized",
      "type": "event"
    },
    {
      "anonymous": false,
      "inputs": [
        {
          "indexed": false,
          "internalType": "address",
          "name": "owner",
          "type": "address"
        },
        {
          "indexed": false,
          "internalType": "uint256",
          "name": "tokenId",
          "type": "uint256"
        }
      ],
      "name": "Mint",
      "type": "event"
    },
    {
      "anonymous": false,
      "inputs": [
        {
          "indexed": true,
          "internalType": "address",
          "name": "previousOwner",
          "type": "address"
        },
        {
          "indexed": true,
          "internalType": "address",
          "name": "newOwner",
          "type": "address"
        }
      ],
      "name": "OwnershipTransferred",
      "type": "event"
    },
    {
      "anonymous": false,
      "inputs": [
        {
          "indexed": true,
          "internalType": "address",
          "name": "from",
          "type": "address"
        },
        {
          "indexed": true,
          "internalType": "address",
          "name": "to",
          "type": "address"
        },
        {
          "indexed": true,
          "internalType": "uint256",
          "name": "tokenId",
          "type": "uint256"
        }
      ],
      "name": "Transfer",
      "type": "event"
    },
    {
      "inputs": [
        {
          "internalType": "address",
          "name": "to",
          "type": "address"
        },
        {
          "internalType": "uint256",
          "name": "tokenId",
          "type": "uint256"
        }
      ],
      "name": "approve",
      "outputs": [],
      "stateMutability": "nonpayable",
      "type": "function"
    },
    {
      "inputs": [
        {
          "internalType": "address",
          "name": "owner",
          "type": "address"
        }
      ],
      "name": "balanceOf",
      "outputs": [
        {
          "internalType": "uint256",
          "name": "",
          "type": "uint256"
        }
      ],
      "stateMutability": "view",
      "type": "function"
    },
    {
      "inputs": [
        {
          "internalType": "uint256",
          "name": "tokenId",
          "type": "uint256"
        }
      ],
      "name": "burn",
      "outputs": [],
      "stateMutability": "nonpayable",
      "type": "function"
    },
    {
      "inputs": [
        {
          "internalType": "uint256",
          "name": "tokenId",
          "type": "uint256"
        }
      ],
      "name": "getActiveState",
      "outputs": [
        {
          "internalType": "bool",
          "name": "",
          "type": "bool"
        }
      ],
      "stateMutability": "view",
      "type": "function"
    },
    {
      "inputs": [
        {
          "internalType": "uint256",
          "name": "tokenId",
          "type": "uint256"
        }
      ],
      "name": "getApproved",
      "outputs": [
        {
          "internalType": "address",
          "name": "",
          "type": "address"
        }
      ],
      "stateMutability": "view",
      "type": "function"
    },
    {
      "inputs": [],
      "name": "getCap",
      "outputs": [
        {
          "internalType": "uint256",
          "name": "",
          "type": "uint256"
        }
      ],
      "stateMutability": "view",
      "type": "function"
    },
    {
      "inputs": [],
      "name": "getETHPrice",
      "outputs": [
        {
          "internalType": "uint256",
          "name": "",
          "type": "uint256"
        }
      ],
      "stateMutability": "view",
      "type": "function"
    },
    {
      "inputs": [],
      "name": "getLTVBoost",
      "outputs": [
        {
          "internalType": "uint256",
          "name": "",
          "type": "uint256"
        }
      ],
      "stateMutability": "view",
      "type": "function"
    },
    {
      "inputs": [],
      "name": "getMintReserve",
      "outputs": [
        {
          "internalType": "address",
          "name": "",
          "type": "address"
        }
      ],
      "stateMutability": "view",
      "type": "function"
    },
    {
      "inputs": [
        {
          "internalType": "uint256",
          "name": "locktime",
          "type": "uint256"
        }
      ],
      "name": "getNativeTokensReward",
      "outputs": [
        {
          "internalType": "uint256",
          "name": "",
          "type": "uint256"
        }
      ],
      "stateMutability": "view",
      "type": "function"
    },
    {
      "inputs": [
        {
          "internalType": "uint256",
          "name": "tokenId",
          "type": "uint256"
        }
      ],
      "name": "getUnlockTimestamp",
      "outputs": [
        {
          "internalType": "uint256",
          "name": "",
          "type": "uint256"
        }
      ],
      "stateMutability": "view",
      "type": "function"
    },
    {
      "inputs": [
        {
          "internalType": "contract IAddressesProvider",
          "name": "addressProvider",
          "type": "address"
        },
        {
          "internalType": "string",
          "name": "name",
          "type": "string"
        },
        {
          "internalType": "string",
          "name": "symbol",
          "type": "string"
        },
        {
          "internalType": "uint256",
          "name": "cap",
          "type": "uint256"
        },
        {
          "internalType": "uint256",
          "name": "price",
          "type": "uint256"
        },
        {
          "internalType": "uint256",
          "name": "ltvBoost",
          "type": "uint256"
        },
        {
          "internalType": "uint256",
          "name": "nativeTokenFactor",
          "type": "uint256"
        },
        {
          "internalType": "uint256",
          "name": "maxLocktime",
          "type": "uint256"
        },
        {
          "internalType": "uint256",
          "name": "minLocktime",
          "type": "uint256"
        },
        {
          "internalType": "address payable",
          "name": "devAddress",
          "type": "address"
        }
      ],
      "name": "initialize",
      "outputs": [],
      "stateMutability": "nonpayable",
      "type": "function"
    },
    {
      "inputs": [
        {
          "internalType": "address",
          "name": "owner",
          "type": "address"
        },
        {
          "internalType": "address",
          "name": "operator",
          "type": "address"
        }
      ],
      "name": "isApprovedForAll",
      "outputs": [
        {
          "internalType": "bool",
          "name": "",
          "type": "bool"
        }
      ],
      "stateMutability": "view",
      "type": "function"
    },
    {
      "inputs": [
        {
          "internalType": "uint256",
          "name": "locktime",
          "type": "uint256"
        },
        {
          "internalType": "string",
          "name": "uri",
          "type": "string"
        }
      ],
      "name": "mint",
      "outputs": [
        {
          "internalType": "uint256",
          "name": "",
          "type": "uint256"
        }
      ],
      "stateMutability": "payable",
      "type": "function"
    },
    {
      "inputs": [],
      "name": "mintCount",
      "outputs": [
        {
          "internalType": "uint256",
          "name": "",
          "type": "uint256"
        }
      ],
      "stateMutability": "view",
      "type": "function"
    },
    {
      "inputs": [],
      "name": "name",
      "outputs": [
        {
          "internalType": "string",
          "name": "",
          "type": "string"
        }
      ],
      "stateMutability": "view",
      "type": "function"
    },
    {
      "inputs": [],
      "name": "owner",
      "outputs": [
        {
          "internalType": "address",
          "name": "",
          "type": "address"
        }
      ],
      "stateMutability": "view",
      "type": "function"
    },
    {
      "inputs": [
        {
          "internalType": "uint256",
          "name": "tokenId",
          "type": "uint256"
        }
      ],
      "name": "ownerOf",
      "outputs": [
        {
          "internalType": "address",
          "name": "",
          "type": "address"
        }
      ],
      "stateMutability": "view",
      "type": "function"
    },
    {
      "inputs": [],
      "name": "renounceOwnership",
      "outputs": [],
      "stateMutability": "nonpayable",
      "type": "function"
    },
    {
      "inputs": [
        {
          "internalType": "address",
          "name": "from",
          "type": "address"
        },
        {
          "internalType": "address",
          "name": "to",
          "type": "address"
        },
        {
          "internalType": "uint256",
          "name": "tokenId",
          "type": "uint256"
        }
      ],
      "name": "safeTransferFrom",
      "outputs": [],
      "stateMutability": "nonpayable",
      "type": "function"
    },
    {
      "inputs": [
        {
          "internalType": "address",
          "name": "from",
          "type": "address"
        },
        {
          "internalType": "address",
          "name": "to",
          "type": "address"
        },
        {
          "internalType": "uint256",
          "name": "tokenId",
          "type": "uint256"
        },
        {
          "internalType": "bytes",
          "name": "data",
          "type": "bytes"
        }
      ],
      "name": "safeTransferFrom",
      "outputs": [],
      "stateMutability": "nonpayable",
      "type": "function"
    },
    {
      "inputs": [
        {
          "internalType": "uint256",
          "name": "tokenId",
          "type": "uint256"
        },
        {
          "internalType": "bool",
          "name": "newState",
          "type": "bool"
        }
      ],
      "name": "setActiveState",
      "outputs": [],
      "stateMutability": "nonpayable",
      "type": "function"
    },
    {
      "inputs": [
        {
          "internalType": "address",
          "name": "operator",
          "type": "address"
        },
        {
          "internalType": "bool",
          "name": "approved",
          "type": "bool"
        }
      ],
      "name": "setApprovalForAll",
      "outputs": [],
      "stateMutability": "nonpayable",
      "type": "function"
    },
    {
      "inputs": [
        {
          "internalType": "uint256",
          "name": "newLTVBoost",
          "type": "uint256"
        }
      ],
      "name": "setLTVBoost",
      "outputs": [],
      "stateMutability": "nonpayable",
      "type": "function"
    },
    {
      "inputs": [
        {
          "internalType": "address",
          "name": "mintReserve",
          "type": "address"
        }
      ],
      "name": "setMintReserve",
      "outputs": [],
      "stateMutability": "nonpayable",
      "type": "function"
    },
    {
      "inputs": [
        {
          "internalType": "bytes4",
          "name": "interfaceId",
          "type": "bytes4"
        }
      ],
      "name": "supportsInterface",
      "outputs": [
        {
          "internalType": "bool",
          "name": "",
          "type": "bool"
        }
      ],
      "stateMutability": "view",
      "type": "function"
    },
    {
      "inputs": [],
      "name": "symbol",
      "outputs": [
        {
          "internalType": "string",
          "name": "",
          "type": "string"
        }
      ],
      "stateMutability": "view",
      "type": "function"
    },
    {
      "inputs": [
        {
          "internalType": "uint256",
          "name": "index",
          "type": "uint256"
        }
      ],
      "name": "tokenByIndex",
      "outputs": [
        {
          "internalType": "uint256",
          "name": "",
          "type": "uint256"
        }
      ],
      "stateMutability": "view",
      "type": "function"
    },
    {
      "inputs": [
        {
          "internalType": "address",
          "name": "owner",
          "type": "address"
        },
        {
          "internalType": "uint256",
          "name": "index",
          "type": "uint256"
        }
      ],
      "name": "tokenOfOwnerByIndex",
      "outputs": [
        {
          "internalType": "uint256",
          "name": "",
          "type": "uint256"
        }
      ],
      "stateMutability": "view",
      "type": "function"
    },
    {
      "inputs": [
        {
          "internalType": "uint256",
          "name": "tokenId",
          "type": "uint256"
        }
      ],
      "name": "tokenURI",
      "outputs": [
        {
          "internalType": "string",
          "name": "",
          "type": "string"
        }
      ],
      "stateMutability": "view",
      "type": "function"
    },
    {
      "inputs": [],
      "name": "totalSupply",
      "outputs": [
        {
          "internalType": "uint256",
          "name": "",
          "type": "uint256"
        }
      ],
      "stateMutability": "view",
      "type": "function"
    },
    {
      "inputs": [
        {
          "internalType": "address",
          "name": "from",
          "type": "address"
        },
        {
          "internalType": "address",
          "name": "to",
          "type": "address"
        },
        {
          "internalType": "uint256",
          "name": "tokenId",
          "type": "uint256"
        }
      ],
      "name": "transferFrom",
      "outputs": [],
      "stateMutability": "nonpayable",
      "type": "function"
    },
    {
      "inputs": [
        {
          "internalType": "address",
          "name": "newOwner",
          "type": "address"
        }
      ],
      "name": "transferOwnership",
      "outputs": [],
      "stateMutability": "nonpayable",
      "type": "function"
    },
    {
      "stateMutability": "payable",
      "type": "receive"
    }
  ],
  "bytecode": "0x608060405234801561001057600080fd5b506132e3806100206000396000f3fe6080604052600436106101f25760003560e01c80636de010a41161010d578063a22cb465116100a0578063d326cc3c1161006f578063d326cc3c14610571578063d482ef9b14610591578063e985e9c5146105b1578063ec399a27146105fa578063f2fde38b1461061a57600080fd5b8063a22cb465146104fb578063a607a8d91461051b578063b88d4fde14610531578063c87b56dd1461055157600080fd5b80638a34711d116100dc5780638a34711d146104925780638da5cb5b146104b257806395d89b41146104d15780639659867e146104e657600080fd5b80636de010a41461041957806370a082311461044a578063715018a61461046a57806377097fc81461047f57600080fd5b80632f745c59116101855780634f6ccce7116101545780634f6ccce7146103ad578063554d578d146103cd5780635ca67d9b146103e35780636352211e146103f957600080fd5b80632f745c591461032e57806340f57b7c1461034e57806342842e0e1461036d57806342966c681461038d57600080fd5b806318160ddd116101c157806318160ddd146102af57806323b872dd146102ce578063296d8c40146102ee57806329e558981461030e57600080fd5b806301ffc9a7146101fe57806306fdde0314610233578063081812fc14610255578063095ea7b31461028d57600080fd5b366101f957005b600080fd5b34801561020a57600080fd5b5061021e610219366004612a53565b61063a565b60405190151581526020015b60405180910390f35b34801561023f57600080fd5b5061024861064b565b60405161022a9190612ac0565b34801561026157600080fd5b50610275610270366004612ad3565b6106dd565b6040516001600160a01b03909116815260200161022a565b34801561029957600080fd5b506102ad6102a8366004612b01565b610704565b005b3480156102bb57600080fd5b506099545b60405190815260200161022a565b3480156102da57600080fd5b506102ad6102e9366004612b2d565b61081e565b3480156102fa57600080fd5b506102c0610309366004612ad3565b61084f565b34801561031a57600080fd5b506102ad610329366004612b7c565b610893565b34801561033a57600080fd5b506102c0610349366004612b01565b61098c565b34801561035a57600080fd5b5061019a546001600160a01b0316610275565b34801561037957600080fd5b506102ad610388366004612b2d565b610a22565b34801561039957600080fd5b506102ad6103a8366004612ad3565b610a3d565b3480156103b957600080fd5b506102c06103c8366004612ad3565b610d4f565b3480156103d957600080fd5b50610192546102c0565b3480156103ef57600080fd5b50610198546102c0565b34801561040557600080fd5b50610275610414366004612ad3565b610de2565b34801561042557600080fd5b5061021e610434366004612ad3565b600090815261019b602052604090205460ff1690565b34801561045657600080fd5b506102c0610465366004612bac565b610e42565b34801561047657600080fd5b506102ad610ec8565b6102c061048d366004612c55565b610edc565b34801561049e57600080fd5b506102c06104ad366004612ad3565b6114da565b3480156104be57600080fd5b5061012d546001600160a01b0316610275565b3480156104dd57600080fd5b506102486114fa565b3480156104f257600080fd5b506102c0611509565b34801561050757600080fd5b506102ad610516366004612cb0565b611526565b34801561052757600080fd5b50610193546102c0565b34801561053d57600080fd5b506102ad61054c366004612cde565b611535565b34801561055d57600080fd5b5061024861056c366004612ad3565b61156d565b34801561057d57600080fd5b506102ad61058c366004612bac565b611578565b34801561059d57600080fd5b506102ad6105ac366004612db7565b6115a3565b3480156105bd57600080fd5b5061021e6105cc366004612e8b565b6001600160a01b039182166000908152606a6020908152604080832093909416825291909152205460ff1690565b34801561060657600080fd5b506102ad610615366004612ad3565b6117e3565b34801561062657600080fd5b506102ad610635366004612bac565b6117f1565b600061064582611867565b92915050565b60606065805461065a90612eb9565b80601f016020809104026020016040519081016040528092919081815260200182805461068690612eb9565b80156106d35780601f106106a8576101008083540402835291602001916106d3565b820191906000526020600020905b8154815290600101906020018083116106b657829003601f168201915b5050505050905090565b60006106e88261188c565b506000908152606960205260409020546001600160a01b031690565b600061070f82610de2565b9050806001600160a01b0316836001600160a01b0316036107815760405162461bcd60e51b815260206004820152602160248201527f4552433732313a20617070726f76616c20746f2063757272656e74206f776e656044820152603960f91b60648201526084015b60405180910390fd5b336001600160a01b038216148061079d575061079d81336105cc565b61080f5760405162461bcd60e51b815260206004820152603d60248201527f4552433732313a20617070726f76652063616c6c6572206973206e6f7420746f60448201527f6b656e206f776e6572206f7220617070726f76656420666f7220616c6c0000006064820152608401610778565b61081983836118eb565b505050565b6108283382611959565b6108445760405162461bcd60e51b815260040161077890612ef3565b6108198383836119d8565b60006101965461085f6101995490565b6101925461086d9190612f56565b6108779084612f69565b6108819190612f80565b61064590670de0b6b3a7640000612f69565b61019160009054906101000a90046001600160a01b03166001600160a01b031663f1be16796040518163ffffffff1660e01b8152600401602060405180830381865afa1580156108e7573d6000803e3d6000fd5b505050506040513d601f19601f8201168201806040525081019061090b9190612fa2565b6001600160a01b0316336001600160a01b03161461096b5760405162461bcd60e51b815260206004820152601e60248201527f43616c6c6572206d757374206265204d61726b657420636f6e747261637400006044820152606401610778565b600091825261019b6020526040909120805460ff1916911515919091179055565b600061099783610e42565b82106109f95760405162461bcd60e51b815260206004820152602b60248201527f455243373231456e756d657261626c653a206f776e657220696e646578206f7560448201526a74206f6620626f756e647360a81b6064820152608401610778565b506001600160a01b03919091166000908152609760209081526040808320938352929052205490565b61081983838360405180602001604052806000815250611535565b610a45611b49565b610a4e81610de2565b6001600160a01b0316336001600160a01b031614610a9f5760405162461bcd60e51b815260206004820152600e60248201526d26bab9ba1037bbb7103a37b5b2b760911b6044820152606401610778565b610aa8816114da565b421015610aef5760405162461bcd60e51b8152602060048201526015602482015274151bdad95b881a5cc81cdd1a5b1b081b1bd8dad959605a1b6044820152606401610778565b60006003610193546002610b039190612f69565b610b0d9190612f80565b9050600061019160009054906101000a90046001600160a01b03166001600160a01b031663cae5f11e6040518163ffffffff1660e01b8152600401602060405180830381865afa158015610b65573d6000803e3d6000fd5b505050506040513d601f19601f82011682018060405250810190610b899190612fa2565b61019a54604051632d182be560e21b815260048101859052306024820181905260448201529192506001600160a01b03169063b460af94906064016020604051808303816000875af1158015610be3573d6000803e3d6000fd5b505050506040513d601f19601f82011682018060405250810190610c079190612fbf565b50604051632e1a7d4d60e01b8152600481018390526001600160a01b03821690632e1a7d4d90602401600060405180830381600087803b158015610c4a57600080fd5b505af1158015610c5e573d6000803e3d6000fd5b505050506000610c6b3390565b6001600160a01b03168360405160006040518083038185875af1925050503d8060008114610cb5576040519150601f19603f3d011682016040523d82523d6000602084013e610cba565b606091505b5050905080610d025760405162461bcd60e51b81526020600482015260146024820152732330b4b632b2103a379039b2b7321022ba3432b960611b6044820152606401610778565b610d0b84611ba4565b6040518481527fb90306ad06b2a6ff86ddc9327db583062895ef6540e62dc50add009db5b356eb9060200160405180910390a1505050610d4c600161015f55565b50565b6000610d5a60995490565b8210610dbd5760405162461bcd60e51b815260206004820152602c60248201527f455243373231456e756d657261626c653a20676c6f62616c20696e646578206f60448201526b7574206f6620626f756e647360a01b6064820152608401610778565b60998281548110610dd057610dd0612fd8565b90600052602060002001549050919050565b6000818152606760205260408120546001600160a01b0316806106455760405162461bcd60e51b8152602060048201526018602482015277115490cdcc8c4e881a5b9d985b1a59081d1bdad95b88125160421b6044820152606401610778565b60006001600160a01b038216610eac5760405162461bcd60e51b815260206004820152602960248201527f4552433732313a2061646472657373207a65726f206973206e6f7420612076616044820152683634b21037bbb732b960b91b6064820152608401610778565b506001600160a01b031660009081526068602052604090205490565b610ed0611bad565b610eda6000611c08565b565b6000610ee6611b49565b61019a546001600160a01b0316610f505760405162461bcd60e51b815260206004820152602860248201527f47656e65736973206d696e74206465706f7369742072657365727665206973206044820152673737ba1039b2ba1760c11b6064820152608401610778565b6000610f5c6101995490565b9050610f686101925490565b811115610fb75760405162461bcd60e51b815260206004820152601960248201527f416c6c204e4654732068617665206265656e206d696e746564000000000000006044820152606401610778565b6101955484101561100a5760405162461bcd60e51b815260206004820181905260248201527f4c6f636b74696d65206973206c6f776572207468616e207468726573686f6c646044820152606401610778565b6101945484111561105d5760405162461bcd60e51b815260206004820152601d60248201527f4c6f636b74696d6520697320686967686572207468616e206c696d69740000006044820152606401610778565b6101935434146110af5760405162461bcd60e51b815260206004820152601e60248201527f54782076616c7565206973206e6f7420657175616c20746f20707269636500006044820152606401610778565b600060036101935460026110c39190612f69565b6110cd9190612f80565b9050600061019160009054906101000a90046001600160a01b03166001600160a01b031663cae5f11e6040518163ffffffff1660e01b8152600401602060405180830381865afa158015611125573d6000803e3d6000fd5b505050506040513d601f19601f820116820180604052508101906111499190612fa2565b9050806001600160a01b031663d0e30db0836040518263ffffffff1660e01b81526004016000604051808303818588803b15801561118657600080fd5b505af115801561119a573d6000803e3d6000fd5b505061019a5460405163095ea7b360e01b81526001600160a01b03918216600482015260248101879052908516935063095ea7b3925060440190506020604051808303816000875af11580156111f4573d6000803e3d6000fd5b505050506040513d601f19601f820116820180604052508101906112189190612fee565b5061019a54604051636e553f6560e01b8152600481018490523060248201526001600160a01b0390911690636e553f65906044016020604051808303816000875af115801561126b573d6000803e3d6000fd5b505050506040513d601f19601f8201168201806040525081019061128f9190612fbf565b5061019754610193546000916001600160a01b0316906112b0908590612f56565b604051600081818185875af1925050503d80600081146112ec576040519150601f19603f3d011682016040523d82523d6000602084013e6112f1565b606091505b50509050806113425760405162461bcd60e51b815260206004820181905260248201527f4661696c656420746f2073656e6420457468657220746f206465762066756e646044820152606401610778565b61019160009054906101000a90046001600160a01b03166001600160a01b03166315b9ba5d6040518163ffffffff1660e01b8152600401602060405180830381865afa158015611396573d6000803e3d6000fd5b505050506040513d601f19601f820116820180604052508101906113ba9190612fa2565b6001600160a01b0316636a953c1d336113d28a61084f565b6040516001600160e01b031960e085901b1681526001600160a01b0390921660048301526024820152604401600060405180830381600087803b15801561141857600080fd5b505af115801561142c573d6000803e3d6000fd5b5050505061144061143a3390565b85611c5b565b61144a8487611c75565b60408051808201825242815260208082018a8152600088815261019c90925292902090518155905160019091015561148761019980546001019055565b7f0f6798a560793a54c3bcfe86a93cde1e73087d944c0ea20544137d412139688533604080516001600160a01b039092168252602082018790520160405180910390a15050600161015f55509050610645565b600081815261019c6020526040812060018101549054610645919061300b565b60606066805461065a90612eb9565b600060016115176101995490565b6115219190612f56565b905090565b611531338383611d08565b5050565b61153f3383611959565b61155b5760405162461bcd60e51b815260040161077890612ef3565b61156784848484611dd6565b50505050565b606061064582611e09565b611580611bad565b61019a80546001600160a01b0319166001600160a01b0392909216919091179055565b600054610100900460ff16158080156115c35750600054600160ff909116105b806115dd5750303b1580156115dd575060005460ff166001145b6116405760405162461bcd60e51b815260206004820152602e60248201527f496e697469616c697a61626c653a20636f6e747261637420697320616c72656160448201526d191e481a5b9a5d1a585b1a5e995960921b6064820152608401610778565b6000805460ff191660011790558015611663576000805461ff0019166101001790555b61166b611f20565b611673611f20565b61167b611f47565b6116ff8c8c8080601f016020809104026020016040519081016040528093929190818152602001838380828437600081840152601f19601f820116905080830192505050505050508b8b8080601f016020809104026020016040519081016040528093929190818152602001838380828437600092019190915250611f7692505050565b8c61019160006101000a8154816001600160a01b0302191690836001600160a01b031602179055508761019281905550866101938190555085610198819055508461019681905550836101948190555082610195819055508161019760006101000a8154816001600160a01b0302191690836001600160a01b0316021790555061178e61019980546001019055565b80156117d4576000805461ff0019169055604051600181527f7f26b83ff96e1f2b6a682f133852f6798a09c465da95921460cefb38474024989060200160405180910390a15b50505050505050505050505050565b6117eb611bad565b61019855565b6117f9611bad565b6001600160a01b03811661185e5760405162461bcd60e51b815260206004820152602660248201527f4f776e61626c653a206e6577206f776e657220697320746865207a65726f206160448201526564647265737360d01b6064820152608401610778565b610d4c81611c08565b60006001600160e01b0319821663780e9d6360e01b1480610645575061064582611fa7565b6000818152606760205260409020546001600160a01b0316610d4c5760405162461bcd60e51b8152602060048201526018602482015277115490cdcc8c4e881a5b9d985b1a59081d1bdad95b88125160421b6044820152606401610778565b600081815260696020526040902080546001600160a01b0319166001600160a01b038416908117909155819061192082610de2565b6001600160a01b03167f8c5be1e5ebec7d5bd14f71427d1e84f3dd0314c0f7b2291e5b200ac8c7c3b92560405160405180910390a45050565b60008061196583610de2565b9050806001600160a01b0316846001600160a01b031614806119ac57506001600160a01b038082166000908152606a602090815260408083209388168352929052205460ff165b806119d05750836001600160a01b03166119c5846106dd565b6001600160a01b0316145b949350505050565b826001600160a01b03166119eb82610de2565b6001600160a01b031614611a115760405162461bcd60e51b81526004016107789061301e565b6001600160a01b038216611a735760405162461bcd60e51b8152602060048201526024808201527f4552433732313a207472616e7366657220746f20746865207a65726f206164646044820152637265737360e01b6064820152608401610778565b611a808383836001611ff7565b826001600160a01b0316611a9382610de2565b6001600160a01b031614611ab95760405162461bcd60e51b81526004016107789061301e565b600081815260696020908152604080832080546001600160a01b03199081169091556001600160a01b0387811680865260688552838620805460001901905590871680865283862080546001019055868652606790945282852080549092168417909155905184937fddf252ad1be2c89b69c2b068fc378daa952ba7f163c4a11628f55a4df523b3ef91a4505050565b600261015f5403611b9c5760405162461bcd60e51b815260206004820152601f60248201527f5265656e7472616e637947756172643a207265656e7472616e742063616c6c006044820152606401610778565b600261015f55565b610d4c81612089565b61012d546001600160a01b03163314610eda5760405162461bcd60e51b815260206004820181905260248201527f4f776e61626c653a2063616c6c6572206973206e6f7420746865206f776e65726044820152606401610778565b61012d80546001600160a01b038381166001600160a01b0319831681179093556040519116919082907f8be0079c531659141344cd1fd0a4f28419497f9722a3daafe3b4186f6b6457e090600090a35050565b6115318282604051806020016040528060008152506120c9565b6000828152606760205260409020546001600160a01b0316611cf05760405162461bcd60e51b815260206004820152602e60248201527f45524337323155524953746f726167653a2055524920736574206f66206e6f6e60448201526d32bc34b9ba32b73a103a37b5b2b760911b6064820152608401610778565b600082815260fb6020526040902061081982826130b1565b816001600160a01b0316836001600160a01b031603611d695760405162461bcd60e51b815260206004820152601960248201527f4552433732313a20617070726f766520746f2063616c6c6572000000000000006044820152606401610778565b6001600160a01b038381166000818152606a6020908152604080832094871680845294825291829020805460ff191686151590811790915591519182527f17307eab39ab6107e8899845ad3d59bd9653f200f220920489ca2b5937696c31910160405180910390a3505050565b611de18484846119d8565b611ded848484846120fc565b6115675760405162461bcd60e51b815260040161077890613171565b6060611e148261188c565b600082815260fb602052604081208054611e2d90612eb9565b80601f0160208091040260200160405190810160405280929190818152602001828054611e5990612eb9565b8015611ea65780601f10611e7b57610100808354040283529160200191611ea6565b820191906000526020600020905b815481529060010190602001808311611e8957829003601f168201915b505050505090506000611ed3604080518082019091526007815266697066733a2f2f60c81b602082015290565b90508051600003611ee5575092915050565b815115611f17578082604051602001611eff9291906131c3565b60405160208183030381529060405292505050919050565b6119d0846121fd565b600054610100900460ff16610eda5760405162461bcd60e51b8152600401610778906131f2565b600054610100900460ff16611f6e5760405162461bcd60e51b8152600401610778906131f2565b610eda612280565b600054610100900460ff16611f9d5760405162461bcd60e51b8152600401610778906131f2565b61153182826122b0565b60006001600160e01b031982166380ac58cd60e01b1480611fd857506001600160e01b03198216635b5e139f60e01b145b8061064557506301ffc9a760e01b6001600160e01b0319831614610645565b600082815261019b602052604090205460ff161561207d5760405162461bcd60e51b815260206004820152603a60248201527f43616e6e6f74207472616e7366657220746f6b656e202d2063757272656e746c60448201527f79206c6f636b656420696e20616e20616374697665206c6f616e0000000000006064820152608401610778565b611567848484846122f0565b61209281612430565b600081815260fb6020526040902080546120ab90612eb9565b159050610d4c57600081815260fb60205260408120610d4c916129ef565b6120d383836124d3565b6120e060008484846120fc565b6108195760405162461bcd60e51b815260040161077890613171565b60006001600160a01b0384163b156121f257604051630a85bd0160e11b81526001600160a01b0385169063150b7a029061214090339089908890889060040161323d565b6020604051808303816000875af192505050801561217b575060408051601f3d908101601f191682019092526121789181019061327a565b60015b6121d8573d8080156121a9576040519150601f19603f3d011682016040523d82523d6000602084013e6121ae565b606091505b5080516000036121d05760405162461bcd60e51b815260040161077890613171565b805181602001fd5b6001600160e01b031916630a85bd0160e11b1490506119d0565b506001949350505050565b60606122088261188c565b600061222e604080518082019091526007815266697066733a2f2f60c81b602082015290565b9050600081511161224e5760405180602001604052806000815250612279565b806122588461266c565b6040516020016122699291906131c3565b6040516020818303038152906040525b9392505050565b600054610100900460ff166122a75760405162461bcd60e51b8152600401610778906131f2565b610eda33611c08565b600054610100900460ff166122d75760405162461bcd60e51b8152600401610778906131f2565b60656122e383826130b1565b50606661081982826130b1565b6122fc848484846126ff565b600181111561236b5760405162461bcd60e51b815260206004820152603560248201527f455243373231456e756d657261626c653a20636f6e7365637574697665207472604482015274185b9cd9995c9cc81b9bdd081cdd5c1c1bdc9d1959605a1b6064820152608401610778565b816001600160a01b0385166123c7576123c281609980546000838152609a60205260408120829055600182018355919091527f72a152ddfb8e864297c917af52ea6c1c68aead0fee1a62673fcc7e0c94979d000155565b6123ea565b836001600160a01b0316856001600160a01b0316146123ea576123ea8582612787565b6001600160a01b0384166124065761240181612824565b612429565b846001600160a01b0316846001600160a01b0316146124295761242984826128d3565b5050505050565b600061243b82610de2565b905061244b816000846001611ff7565b61245482610de2565b600083815260696020908152604080832080546001600160a01b03199081169091556001600160a01b0385168085526068845282852080546000190190558785526067909352818420805490911690555192935084927fddf252ad1be2c89b69c2b068fc378daa952ba7f163c4a11628f55a4df523b3ef908390a45050565b6001600160a01b0382166125295760405162461bcd60e51b815260206004820181905260248201527f4552433732313a206d696e7420746f20746865207a65726f20616464726573736044820152606401610778565b6000818152606760205260409020546001600160a01b03161561258e5760405162461bcd60e51b815260206004820152601c60248201527f4552433732313a20746f6b656e20616c7265616479206d696e746564000000006044820152606401610778565b61259c600083836001611ff7565b6000818152606760205260409020546001600160a01b0316156126015760405162461bcd60e51b815260206004820152601c60248201527f4552433732313a20746f6b656e20616c7265616479206d696e746564000000006044820152606401610778565b6001600160a01b038216600081815260686020908152604080832080546001019055848352606790915280822080546001600160a01b0319168417905551839291907fddf252ad1be2c89b69c2b068fc378daa952ba7f163c4a11628f55a4df523b3ef908290a45050565b6060600061267983612917565b600101905060008167ffffffffffffffff81111561269957612699612bc9565b6040519080825280601f01601f1916602001820160405280156126c3576020820181803683370190505b5090508181016020015b600019016f181899199a1a9b1b9c1cb0b131b232b360811b600a86061a8153600a85049450846126cd57509392505050565b6001811115611567576001600160a01b03841615612745576001600160a01b0384166000908152606860205260408120805483929061273f908490612f56565b90915550505b6001600160a01b03831615611567576001600160a01b0383166000908152606860205260408120805483929061277c90849061300b565b909155505050505050565b6000600161279484610e42565b61279e9190612f56565b6000838152609860205260409020549091508082146127f1576001600160a01b03841660009081526097602090815260408083208584528252808320548484528184208190558352609890915290208190555b5060009182526098602090815260408084208490556001600160a01b039094168352609781528383209183525290812055565b60995460009061283690600190612f56565b6000838152609a60205260408120546099805493945090928490811061285e5761285e612fd8565b90600052602060002001549050806099838154811061287f5761287f612fd8565b6000918252602080832090910192909255828152609a909152604080822084905585825281205560998054806128b7576128b7613297565b6001900381819060005260206000200160009055905550505050565b60006128de83610e42565b6001600160a01b039093166000908152609760209081526040808320868452825280832085905593825260989052919091209190915550565b60008072184f03e93ff9f4daa797ed6e38ed64bf6a1f0160401b83106129565772184f03e93ff9f4daa797ed6e38ed64bf6a1f0160401b830492506040015b6d04ee2d6d415b85acef81000000008310612982576d04ee2d6d415b85acef8100000000830492506020015b662386f26fc1000083106129a057662386f26fc10000830492506010015b6305f5e10083106129b8576305f5e100830492506008015b61271083106129cc57612710830492506004015b606483106129de576064830492506002015b600a83106106455760010192915050565b5080546129fb90612eb9565b6000825580601f10612a0b575050565b601f016020900490600052602060002090810190610d4c91905b80821115612a395760008155600101612a25565b5090565b6001600160e01b031981168114610d4c57600080fd5b600060208284031215612a6557600080fd5b813561227981612a3d565b60005b83811015612a8b578181015183820152602001612a73565b50506000910152565b60008151808452612aac816020860160208601612a70565b601f01601f19169290920160200192915050565b6020815260006122796020830184612a94565b600060208284031215612ae557600080fd5b5035919050565b6001600160a01b0381168114610d4c57600080fd5b60008060408385031215612b1457600080fd5b8235612b1f81612aec565b946020939093013593505050565b600080600060608486031215612b4257600080fd5b8335612b4d81612aec565b92506020840135612b5d81612aec565b929592945050506040919091013590565b8015158114610d4c57600080fd5b60008060408385031215612b8f57600080fd5b823591506020830135612ba181612b6e565b809150509250929050565b600060208284031215612bbe57600080fd5b813561227981612aec565b634e487b7160e01b600052604160045260246000fd5b600067ffffffffffffffff80841115612bfa57612bfa612bc9565b604051601f8501601f19908116603f01168101908282118183101715612c2257612c22612bc9565b81604052809350858152868686011115612c3b57600080fd5b858560208301376000602087830101525050509392505050565b60008060408385031215612c6857600080fd5b82359150602083013567ffffffffffffffff811115612c8657600080fd5b8301601f81018513612c9757600080fd5b612ca685823560208401612bdf565b9150509250929050565b60008060408385031215612cc357600080fd5b8235612cce81612aec565b91506020830135612ba181612b6e565b60008060008060808587031215612cf457600080fd5b8435612cff81612aec565b93506020850135612d0f81612aec565b925060408501359150606085013567ffffffffffffffff811115612d3257600080fd5b8501601f81018713612d4357600080fd5b612d5287823560208401612bdf565b91505092959194509250565b8035612d6981612aec565b919050565b60008083601f840112612d8057600080fd5b50813567ffffffffffffffff811115612d9857600080fd5b602083019150836020828501011115612db057600080fd5b9250929050565b6000806000806000806000806000806000806101408d8f031215612dda57600080fd5b612de38d612d5e565b9b5067ffffffffffffffff60208e01351115612dfe57600080fd5b612e0e8e60208f01358f01612d6e565b909b50995067ffffffffffffffff60408e01351115612e2c57600080fd5b612e3c8e60408f01358f01612d6e565b909950975060608d0135965060808d0135955060a08d0135945060c08d0135935060e08d013592506101008d01359150612e796101208e01612d5e565b90509295989b509295989b509295989b565b60008060408385031215612e9e57600080fd5b8235612ea981612aec565b91506020830135612ba181612aec565b600181811c90821680612ecd57607f821691505b602082108103612eed57634e487b7160e01b600052602260045260246000fd5b50919050565b6020808252602d908201527f4552433732313a2063616c6c6572206973206e6f7420746f6b656e206f776e6560408201526c1c881bdc88185c1c1c9bdd9959609a1b606082015260800190565b634e487b7160e01b600052601160045260246000fd5b8181038181111561064557610645612f40565b808202811582820484141761064557610645612f40565b600082612f9d57634e487b7160e01b600052601260045260246000fd5b500490565b600060208284031215612fb457600080fd5b815161227981612aec565b600060208284031215612fd157600080fd5b5051919050565b634e487b7160e01b600052603260045260246000fd5b60006020828403121561300057600080fd5b815161227981612b6e565b8082018082111561064557610645612f40565b60208082526025908201527f4552433732313a207472616e736665722066726f6d20696e636f72726563742060408201526437bbb732b960d91b606082015260800190565b601f82111561081957600081815260208120601f850160051c8101602086101561308a5750805b601f850160051c820191505b818110156130a957828155600101613096565b505050505050565b815167ffffffffffffffff8111156130cb576130cb612bc9565b6130df816130d98454612eb9565b84613063565b602080601f83116001811461311457600084156130fc5750858301515b600019600386901b1c1916600185901b1785556130a9565b600085815260208120601f198616915b8281101561314357888601518255948401946001909101908401613124565b50858210156131615787850151600019600388901b60f8161c191681555b5050505050600190811b01905550565b60208082526032908201527f4552433732313a207472616e7366657220746f206e6f6e20455243373231526560408201527131b2b4bb32b91034b6b83632b6b2b73a32b960711b606082015260800190565b600083516131d5818460208801612a70565b8351908301906131e9818360208801612a70565b01949350505050565b6020808252602b908201527f496e697469616c697a61626c653a20636f6e7472616374206973206e6f74206960408201526a6e697469616c697a696e6760a81b606082015260800190565b6001600160a01b038581168252841660208201526040810183905260806060820181905260009061327090830184612a94565b9695505050505050565b60006020828403121561328c57600080fd5b815161227981612a3d565b634e487b7160e01b600052603160045260246000fdfea2646970667358221220719c6f4dac353c9e4f82bf65ea7c897b187407018bbeeaae4f50232046ab0ce964736f6c63430008110033",
  "linkReferences": {},
  "deployedLinkReferences": {}
}