{
  "_format": "hh-sol-artifact-1",
  "contractName": "GenesisNFT",
  "sourceName": "contracts/protocol/GenesisNFT.sol",
  "abi": [
    {
      "inputs": [],
      "stateMutability": "nonpayable",
      "type": "constructor"
    },
    {
      "anonymous": false,
      "inputs": [
        {
          "indexed": true,
          "internalType": "address",
          "name": "owner",
          "type": "address"
        },
        {
          "indexed": true,
          "internalType": "address",
          "name": "approved",
          "type": "address"
        },
        {
          "indexed": true,
          "internalType": "uint256",
          "name": "tokenId",
          "type": "uint256"
        }
      ],
      "name": "Approval",
      "type": "event"
    },
    {
      "anonymous": false,
      "inputs": [
        {
          "indexed": true,
          "internalType": "address",
          "name": "owner",
          "type": "address"
        },
        {
          "indexed": true,
          "internalType": "address",
          "name": "operator",
          "type": "address"
        },
        {
          "indexed": false,
          "internalType": "bool",
          "name": "approved",
          "type": "bool"
        }
      ],
      "name": "ApprovalForAll",
      "type": "event"
    },
    {
      "anonymous": false,
      "inputs": [
        {
          "indexed": false,
          "internalType": "uint256",
          "name": "tokenId",
          "type": "uint256"
        }
      ],
      "name": "Burn",
      "type": "event"
    },
    {
      "anonymous": false,
      "inputs": [
        {
          "indexed": false,
          "internalType": "uint8",
          "name": "version",
          "type": "uint8"
        }
      ],
      "name": "Initialized",
      "type": "event"
    },
    {
      "anonymous": false,
      "inputs": [
        {
          "indexed": false,
          "internalType": "address",
          "name": "owner",
          "type": "address"
        },
        {
          "indexed": false,
          "internalType": "uint256",
          "name": "tokenId",
          "type": "uint256"
        }
      ],
      "name": "Mint",
      "type": "event"
    },
    {
      "anonymous": false,
      "inputs": [
        {
          "indexed": true,
          "internalType": "address",
          "name": "previousOwner",
          "type": "address"
        },
        {
          "indexed": true,
          "internalType": "address",
          "name": "newOwner",
          "type": "address"
        }
      ],
      "name": "OwnershipTransferred",
      "type": "event"
    },
    {
      "anonymous": false,
      "inputs": [
        {
          "indexed": true,
          "internalType": "address",
          "name": "from",
          "type": "address"
        },
        {
          "indexed": true,
          "internalType": "address",
          "name": "to",
          "type": "address"
        },
        {
          "indexed": true,
          "internalType": "uint256",
          "name": "tokenId",
          "type": "uint256"
        }
      ],
      "name": "Transfer",
      "type": "event"
    },
    {
      "inputs": [
        {
          "internalType": "address",
          "name": "to",
          "type": "address"
        },
        {
          "internalType": "uint256",
          "name": "tokenId",
          "type": "uint256"
        }
      ],
      "name": "approve",
      "outputs": [],
      "stateMutability": "nonpayable",
      "type": "function"
    },
    {
      "inputs": [
        {
          "internalType": "address",
          "name": "owner",
          "type": "address"
        }
      ],
      "name": "balanceOf",
      "outputs": [
        {
          "internalType": "uint256",
          "name": "",
          "type": "uint256"
        }
      ],
      "stateMutability": "view",
      "type": "function"
    },
    {
      "inputs": [
        {
          "internalType": "uint256[]",
          "name": "tokenIds",
          "type": "uint256[]"
        }
      ],
      "name": "burn",
      "outputs": [],
      "stateMutability": "nonpayable",
      "type": "function"
    },
    {
      "inputs": [
        {
          "internalType": "uint256",
          "name": "tokenId",
          "type": "uint256"
        }
      ],
      "name": "getApproved",
      "outputs": [
        {
          "internalType": "address",
          "name": "",
          "type": "address"
        }
      ],
      "stateMutability": "view",
      "type": "function"
    },
    {
      "inputs": [],
      "name": "getCap",
      "outputs": [
        {
          "internalType": "uint256",
          "name": "",
          "type": "uint256"
        }
      ],
      "stateMutability": "view",
      "type": "function"
    },
    {
      "inputs": [
        {
          "internalType": "uint256[]",
          "name": "tokenIds",
          "type": "uint256[]"
        }
      ],
      "name": "getLPValueInLE",
      "outputs": [
        {
          "internalType": "uint256",
          "name": "",
          "type": "uint256"
        }
      ],
      "stateMutability": "nonpayable",
      "type": "function"
    },
    {
      "inputs": [
        {
          "internalType": "uint256",
          "name": "tokenId",
          "type": "uint256"
        }
      ],
      "name": "getLockedState",
      "outputs": [
        {
          "internalType": "bool",
          "name": "",
          "type": "bool"
        }
      ],
      "stateMutability": "view",
      "type": "function"
    },
    {
      "inputs": [],
      "name": "getMaxLTVBoost",
      "outputs": [
        {
          "internalType": "uint256",
          "name": "",
          "type": "uint256"
        }
      ],
      "stateMutability": "view",
      "type": "function"
    },
    {
      "inputs": [
        {
          "internalType": "uint256",
          "name": "amount",
          "type": "uint256"
        },
        {
          "internalType": "uint256",
          "name": "locktime",
          "type": "uint256"
        }
      ],
      "name": "getNativeTokenReward",
      "outputs": [
        {
          "internalType": "uint256",
          "name": "",
          "type": "uint256"
        }
      ],
      "stateMutability": "view",
      "type": "function"
    },
    {
      "inputs": [],
      "name": "getPrice",
      "outputs": [
        {
          "internalType": "uint256",
          "name": "",
          "type": "uint256"
        }
      ],
      "stateMutability": "view",
      "type": "function"
    },
    {
      "inputs": [
        {
          "internalType": "uint256",
          "name": "tokenId",
          "type": "uint256"
        }
      ],
      "name": "getUnlockTimestamp",
      "outputs": [
        {
          "internalType": "uint256",
          "name": "",
          "type": "uint256"
        }
      ],
      "stateMutability": "view",
      "type": "function"
    },
    {
      "inputs": [
        {
          "internalType": "contract IAddressesProvider",
          "name": "addressProvider",
          "type": "address"
        },
        {
          "internalType": "string",
          "name": "name",
          "type": "string"
        },
        {
          "internalType": "string",
          "name": "symbol",
          "type": "string"
        },
        {
          "internalType": "uint256",
          "name": "cap",
          "type": "uint256"
        },
        {
          "internalType": "uint256",
          "name": "price",
          "type": "uint256"
        },
        {
          "internalType": "uint256",
          "name": "maxLTVBoost",
          "type": "uint256"
        },
        {
          "internalType": "uint256",
          "name": "nativeTokenFactor",
          "type": "uint256"
        },
        {
          "internalType": "uint256",
          "name": "maxLocktime",
          "type": "uint256"
        },
        {
          "internalType": "uint256",
          "name": "minLocktime",
          "type": "uint256"
        },
        {
          "internalType": "address payable",
          "name": "devAddress",
          "type": "address"
        }
      ],
      "name": "initialize",
      "outputs": [],
      "stateMutability": "nonpayable",
      "type": "function"
    },
    {
      "inputs": [
        {
          "internalType": "address",
          "name": "owner",
          "type": "address"
        },
        {
          "internalType": "address",
          "name": "operator",
          "type": "address"
        }
      ],
      "name": "isApprovedForAll",
      "outputs": [
        {
          "internalType": "bool",
          "name": "",
          "type": "bool"
        }
      ],
      "stateMutability": "view",
      "type": "function"
    },
    {
      "inputs": [
        {
          "internalType": "address",
          "name": "owner",
          "type": "address"
        },
        {
          "internalType": "address",
          "name": "operator",
          "type": "address"
        }
      ],
      "name": "isLoanOperatorApproved",
      "outputs": [
        {
          "internalType": "bool",
          "name": "",
          "type": "bool"
        }
      ],
      "stateMutability": "view",
      "type": "function"
    },
    {
      "inputs": [
        {
          "internalType": "uint256",
          "name": "locktime",
          "type": "uint256"
        },
        {
          "internalType": "uint256",
          "name": "amount",
          "type": "uint256"
        }
      ],
      "name": "mint",
      "outputs": [],
      "stateMutability": "payable",
      "type": "function"
    },
    {
      "inputs": [],
      "name": "mintCount",
      "outputs": [
        {
          "internalType": "uint256",
          "name": "",
          "type": "uint256"
        }
      ],
      "stateMutability": "view",
      "type": "function"
    },
    {
      "inputs": [],
      "name": "name",
      "outputs": [
        {
          "internalType": "string",
          "name": "",
          "type": "string"
        }
      ],
      "stateMutability": "view",
      "type": "function"
    },
    {
      "inputs": [],
      "name": "owner",
      "outputs": [
        {
          "internalType": "address",
          "name": "",
          "type": "address"
        }
      ],
      "stateMutability": "view",
      "type": "function"
    },
    {
      "inputs": [
        {
          "internalType": "uint256",
          "name": "tokenId",
          "type": "uint256"
        }
      ],
      "name": "ownerOf",
      "outputs": [
        {
          "internalType": "address",
          "name": "",
          "type": "address"
        }
      ],
      "stateMutability": "view",
      "type": "function"
    },
    {
      "inputs": [],
      "name": "renounceOwnership",
      "outputs": [],
      "stateMutability": "nonpayable",
      "type": "function"
    },
    {
      "inputs": [
        {
          "internalType": "address",
          "name": "from",
          "type": "address"
        },
        {
          "internalType": "address",
          "name": "to",
          "type": "address"
        },
        {
          "internalType": "uint256",
          "name": "tokenId",
          "type": "uint256"
        }
      ],
      "name": "safeTransferFrom",
      "outputs": [],
      "stateMutability": "nonpayable",
      "type": "function"
    },
    {
      "inputs": [
        {
          "internalType": "address",
          "name": "from",
          "type": "address"
        },
        {
          "internalType": "address",
          "name": "to",
          "type": "address"
        },
        {
          "internalType": "uint256",
          "name": "tokenId",
          "type": "uint256"
        },
        {
          "internalType": "bytes",
          "name": "data",
          "type": "bytes"
        }
      ],
      "name": "safeTransferFrom",
      "outputs": [],
      "stateMutability": "nonpayable",
      "type": "function"
    },
    {
      "inputs": [
        {
          "internalType": "address",
          "name": "operator",
          "type": "address"
        },
        {
          "internalType": "bool",
          "name": "approved",
          "type": "bool"
        }
      ],
      "name": "setApprovalForAll",
      "outputs": [],
      "stateMutability": "nonpayable",
      "type": "function"
    },
    {
      "inputs": [
        {
          "components": [
            {
              "internalType": "bytes32",
              "name": "poolId",
              "type": "bytes32"
            },
            {
              "internalType": "address",
              "name": "pool",
              "type": "address"
            },
            {
              "internalType": "address",
              "name": "vault",
              "type": "address"
            },
            {
              "internalType": "address",
              "name": "queries",
              "type": "address"
            }
          ],
          "internalType": "struct DataTypes.BalancerDetails",
          "name": "balancerDetails",
          "type": "tuple"
        }
      ],
      "name": "setBalancerDetails",
      "outputs": [],
      "stateMutability": "nonpayable",
      "type": "function"
    },
    {
      "inputs": [
        {
          "internalType": "address",
          "name": "operator",
          "type": "address"
        },
        {
          "internalType": "bool",
          "name": "approved",
          "type": "bool"
        }
      ],
      "name": "setLoanOperatorApproval",
      "outputs": [],
      "stateMutability": "nonpayable",
      "type": "function"
    },
    {
      "inputs": [
        {
          "internalType": "uint256",
          "name": "tokenId",
          "type": "uint256"
        },
        {
          "internalType": "bool",
          "name": "newState",
          "type": "bool"
        }
      ],
      "name": "setLockedState",
      "outputs": [],
      "stateMutability": "nonpayable",
      "type": "function"
    },
    {
      "inputs": [
        {
          "internalType": "uint256",
          "name": "newMaxLTVBoost",
          "type": "uint256"
        }
      ],
      "name": "setMaxLTVBoost",
      "outputs": [],
      "stateMutability": "nonpayable",
      "type": "function"
    },
    {
      "inputs": [
        {
          "internalType": "bytes4",
          "name": "interfaceId",
          "type": "bytes4"
        }
      ],
      "name": "supportsInterface",
      "outputs": [
        {
          "internalType": "bool",
          "name": "",
          "type": "bool"
        }
      ],
      "stateMutability": "view",
      "type": "function"
    },
    {
      "inputs": [],
      "name": "symbol",
      "outputs": [
        {
          "internalType": "string",
          "name": "",
          "type": "string"
        }
      ],
      "stateMutability": "view",
      "type": "function"
    },
    {
      "inputs": [
        {
          "internalType": "uint256",
          "name": "index",
          "type": "uint256"
        }
      ],
      "name": "tokenByIndex",
      "outputs": [
        {
          "internalType": "uint256",
          "name": "",
          "type": "uint256"
        }
      ],
      "stateMutability": "view",
      "type": "function"
    },
    {
      "inputs": [
        {
          "internalType": "address",
          "name": "owner",
          "type": "address"
        },
        {
          "internalType": "uint256",
          "name": "index",
          "type": "uint256"
        }
      ],
      "name": "tokenOfOwnerByIndex",
      "outputs": [
        {
          "internalType": "uint256",
          "name": "",
          "type": "uint256"
        }
      ],
      "stateMutability": "view",
      "type": "function"
    },
    {
      "inputs": [
        {
          "internalType": "uint256",
          "name": "tokenId",
          "type": "uint256"
        }
      ],
      "name": "tokenURI",
      "outputs": [
        {
          "internalType": "string",
          "name": "",
          "type": "string"
        }
      ],
      "stateMutability": "view",
      "type": "function"
    },
    {
      "inputs": [],
      "name": "totalSupply",
      "outputs": [
        {
          "internalType": "uint256",
          "name": "",
          "type": "uint256"
        }
      ],
      "stateMutability": "view",
      "type": "function"
    },
    {
      "inputs": [
        {
          "internalType": "address",
          "name": "from",
          "type": "address"
        },
        {
          "internalType": "address",
          "name": "to",
          "type": "address"
        },
        {
          "internalType": "uint256",
          "name": "tokenId",
          "type": "uint256"
        }
      ],
      "name": "transferFrom",
      "outputs": [],
      "stateMutability": "nonpayable",
      "type": "function"
    },
    {
      "inputs": [
        {
          "internalType": "address",
          "name": "newOwner",
          "type": "address"
        }
      ],
      "name": "transferOwnership",
      "outputs": [],
      "stateMutability": "nonpayable",
      "type": "function"
    },
    {
      "stateMutability": "payable",
      "type": "receive"
    }
  ],
  "bytecode": "0x60808060405234620000c6576000549060ff8260081c1662000074575060ff8082161062000038575b60405161434a9081620000cc8239f35b60ff90811916176000557f7f26b83ff96e1f2b6a682f133852f6798a09c465da95921460cefb3847402498602060405160ff8152a13862000028565b62461bcd60e51b815260206004820152602760248201527f496e697469616c697a61626c653a20636f6e747261637420697320696e697469604482015266616c697a696e6760c81b6064820152608490fd5b600080fdfe6080604052600436101561001b575b361561001957600080fd5b005b60003560e01c806301ffc9a71461024b57806306508ccf1461024657806306fdde0314610241578063081812fc1461023c578063095ea7b31461023757806318160ddd146102325780631b2ef1ca1461022d57806323b872dd146102285780632c773df4146102235780632f745c591461021e578063310842f11461021957806332dba7db1461021457806342842e0e1461020f5780634f6ccce71461020a578063554d578d146102055780636352211e1461020057806370a08231146101fb578063715018a6146101f65780637aa57d7e146101f15780638a34711d146101ec5780638da5cb5b146101e757806395d89b41146101e25780639659867e146101dd57806398d5fdca146101d857806399e1dacd146101d3578063a13b5f7e146101ce578063a22cb465146101c9578063aa74c988146101c4578063b80f55c9146101bf578063b88d4fde146101ba578063c241d078146101b5578063c87b56dd146101b0578063d482ef9b146101ab578063e985e9c5146101a65763f2fde38b0361000e57612240565b612202565b612181565b611c57565b611c3e565b611bd7565b6116b3565b611635565b611573565b6114a8565b61145b565b61140d565b6113dc565b611335565b61130c565b6112ee565b6112a3565b611220565b6111f9565b6111db565b6111bc565b611111565b6110e9565b611066565b61103d565b610f86565b610f67565b610f3e565b6105b0565b610592565b6104b3565b610472565b61038d565b610304565b610267565b6001600160e01b031981160361026257565b600080fd5b3461026257602036600319011261026257602060043561028681610250565b63ffffffff60e01b1663780e9d6360e01b81149081156102c4575b81156102b3575b506040519015158152f35b6301ffc9a760e01b149050386102a8565b90506380ac58cd60e01b811480156102f4575b80156102e4575b906102a1565b506301ffc9a760e01b81146102de565b50635b5e139f60e01b81146102d7565b346102625760203660031901126102625761031d6122d1565b60043561013955005b600091031261026257565b60005b8381106103445750506000910152565b8181015183820152602001610334565b9060209161036d81518092818552858086019101610331565b601f01601f1916010190565b90602061038a928181520190610354565b90565b346102625760008060031936011261046f5760405190806065546103b081612458565b8085529160019180831690811561044557506001146103ea575b6103e6856103da81870382611b36565b60405191829182610379565b0390f35b9250606583527f8ff97419363ffd7000167f130ef7168fbea05faf9251824ca5043f113cc6a7c75b82841061042d5750505081016020016103da826103e66103ca565b80546020858701810191909152909301928101610412565b8695506103e6969350602092506103da94915060ff191682840152151560051b82010192936103ca565b80fd5b34610262576020366003190112610262576020610490600435612504565b6040516001600160a01b039091168152f35b6001600160a01b0381160361026257565b34610262576040366003190112610262576004356104d0816104a2565b6024356104dc81612435565b916001600160a01b038084169082168114610543576100199361050991331490811561050e575b50612492565b612894565b6001600160a01b03166000908152606a60209081526040808320338452909152902061053d91505b5460ff1690565b38610503565b60405162461bcd60e51b815260206004820152602160248201527f4552433732313a20617070726f76616c20746f2063757272656e74206f776e656044820152603960f91b6064820152608490fd5b34610262576000366003190112610262576020609954604051908152f35b6040366003190112610262576105c46139eb565b6105d56101315460043510156134b9565b6105e6610130546004351115613504565b61013354151580610efd575b6105fb906135df565b61061861060d60243561013a546131bc565b61012e54101561362b565b61012d5460049060209061063c906001600160a01b03165b6001600160a01b031690565b6040516315b9ba5d60e01b815292839182905afa908115610cdc57600091610ede575b5061066f60243561012f54613232565b61067a813414613683565b6106856024356131e9565b90610691602435613201565b916106a060043560243561355d565b926106ab84826131bc565b6001600160a01b0386163b15610262576040516302a1453160e21b81526004810191909152600081602481836001600160a01b038b165af18015610cdc57610ecb575b5061012d5460049060209061070b906001600160a01b0316610630565b604051636572f88f60e11b815292839182905afa908115610cdc57600091610eac575b506001600160a01b0316803b156102625760008391600460405180948193630d0e30db60e41b83525af18015610cdc57610e99575b506101355460405163095ea7b360e01b81526001600160a01b039091166004820152602481018290526020818060448101038160006001600160a01b038b165af18015610cdc57610e7a575b5061012d546004906020906107cc906001600160a01b0316610630565b604051636572f88f60e11b815292839182905afa8015610cdc578360209161083393600091610e5d575b506101355460405163095ea7b360e01b81526001600160a01b03909116600482015260248101929092529092839190829060009082906044820190565b03926001600160a01b03165af18015610cdc57610e3e575b506101345461086490610630906001600160a01b031681565b6040516370a0823160e01b81523060048201529190602083602481845afa928315610cdc57600093610e1d575b50610135546108aa90610630906001600160a01b031681565b61013354604051631f29a8cd60e31b8152600481018290529193909290600083602481885afa928315610cdc57600093610df8575b506108e8613810565b916108f1613810565b9161090e6109086001600160a01b038e1687613c34565b8461384d565b5261012d5460049060209061092b906001600160a01b0316610630565b604051636572f88f60e11b815292839182905afa8015610cdc57610908610966918b93600091610dd9575b506001600160a01b031687613c34565b52600019806109748561382b565b5261097e8461383d565b5260046020600092604051928380926318160ddd60e01b82525afa918215610cdc5791610dba575b50610d9e576109cf6109c191604051928391602083016138ca565b03601f198101835282611b36565b905b6109d9611b57565b9283526020830152604082015260006060820152823b1561026257610a1c926000928360405180968195829463172b958560e31b845230903090600486016138e2565b03925af18015610cdc57610d8b575b5061013454610a4490610630906001600160a01b031681565b6040516370a0823160e01b81523060048201529190602090839060249082905afa8015610cdc57610a7d92600091610d5c575b50613550565b9360046020610a9761063061012d5460018060a01b031690565b604051630458184560e11b815292839182905afa908115610cdc57610afc926020928792600091610d3f575b5060405163095ea7b360e01b81526001600160a01b03909116600482015260248101929092529092839190829060009082906044820190565b03926001600160a01b03165af18015610cdc57610d10575b5061012d54600490602090610b31906001600160a01b0316610630565b604051630458184560e11b815292839182905afa908115610cdc57600091610ce1575b506001600160a01b031692610b6b600435426131bc565b843b156102625760405163650e150560e01b815233600482015260248101929092526044820152926000908490606490829084905af1908115610cdc5760008093610bda829493610beb978495610cc3575b5061013854610bd4906001600160a01b0316610630565b92613550565b905af1610be5612975565b50613991565b60005b6024358110610c0157610019600160fb55565b610cbe907f0f6798a560793a54c3bcfe86a93cde1e73087d944c0ea20544137d4121396885610cb661013a54610c378133613a41565b610c8f610c46602435886131c9565b610c4e611b76565b9042825260043560208301526040820152610c748360005261013d602052604060002090565b90604060029180518455602081015160018501550151910155565b610c9e61013a60018154019055565b60408051338152602081019290925290918291820190565b0390a16139dc565b610bee565b80610cd0610cd692611acd565b80610326565b38610bbd565b612969565b610d03915060203d602011610d09575b610cfb8183611b36565b81019061366e565b38610b54565b503d610cf1565b610d319060203d602011610d38575b610d298183611b36565b8101906136cf565b5038610b14565b503d610d1f565b610d569150843d8611610d0957610cfb8183611b36565b38610ac3565b610d7e915060203d602011610d84575b610d768183611b36565b8101906136e4565b38610a77565b503d610d6c565b80610cd0610d9892611acd565b38610a2b565b610db46109c19160405192839160208301613895565b906109d1565b610dd3915060203d602011610d8457610d768183611b36565b386109a6565b610df2915060203d602011610d0957610cfb8183611b36565b38610956565b610e1491933d8091833e610e0c8183611b36565b810190613768565b505091386108df565b610e3791935060203d602011610d8457610d768183611b36565b9138610891565b610e569060203d602011610d3857610d298183611b36565b503861084b565b610e749150833d8511610d0957610cfb8183611b36565b386107f6565b610e929060203d602011610d3857610d298183611b36565b50386107af565b80610cd0610ea692611acd565b38610763565b610ec5915060203d602011610d0957610cfb8183611b36565b3861072e565b80610cd0610ed892611acd565b386106ee565b610ef7915060203d602011610d0957610cfb8183611b36565b3861065f565b50610134546001600160a01b031615156105f2565b606090600319011261026257600435610f2a816104a2565b90602435610f37816104a2565b9060443590565b3461026257610019610f4f36610f12565b91610f62610f5d843361265a565b612542565b61272c565b3461026257600036600319011261026257602061013954604051908152f35b3461026257604036600319011261026257600435610fa3816104a2565b60243590610fb081612372565b821015610fe4576001600160a01b031660009081526097602090815260408083209383529281529082902054915191825290f35b60405162461bcd60e51b815260206004820152602b60248201527f455243373231456e756d657261626c653a206f776e657220696e646578206f7560448201526a74206f6620626f756e647360a81b6064820152608490fd5b3461026257604036600319011261026257602061105e60243560043561355d565b604051908152f35b346102625760803660031901126102625761107f6122d1565b60043561013355602435611092816104a2565b61013480546001600160a01b03199081166001600160a01b03938416179091556044356110be816104a2565b82610135911682825416179055606435916110d8836104a2565b610136921690825416179055600080f35b34610262576100196110fa36610f12565b906040519261110884611ae5565b600084526125b7565b34610262576020366003190112610262576004356099548110156111625760996000527f72a152ddfb8e864297c917af52ea6c1c68aead0fee1a62673fcc7e0c94979d000154604051908152602090f35b60405162461bcd60e51b815260206004820152602c60248201527f455243373231456e756d657261626c653a20676c6f62616c20696e646578206f60448201526b7574206f6620626f756e647360a01b6064820152608490fd5b3461026257600036600319011261026257602061012e54604051908152f35b34610262576020366003190112610262576020610490600435612435565b3461026257602036600319011261026257602061105e60043561121b816104a2565b612372565b346102625760008060031936011261046f5761123a6122d1565b60c980546001600160a01b0319811690915581906001600160a01b03167f8be0079c531659141344cd1fd0a4f28419497f9722a3daafe3b4186f6b6457e08280a380f35b604090600319011261026257600435611296816104a2565b9060243561038a816104a2565b3461026257602060ff6112e26112b83661127e565b6001600160a01b03918216600090815261013b865260408082209290931681526020919091522090565b54166040519015158152f35b3461026257602036600319011261026257602061105e600435613c9d565b346102625760003660031901126102625760c9546040516001600160a01b039091168152602090f35b346102625760008060031936011261046f57604051908060665461135881612458565b808552916001918083169081156104455750600114611381576103e6856103da81870382611b36565b9250606683527f46501879b8ca8525e8c2fd519e2fbfcfa2ebea26501294aa02cbfcfb12e943545b8284106113c45750505081016020016103da826103e66103ca565b805460208587018101919091529093019281016113a9565b346102625760003660031901126102625761013a54600019810190811161140857602090604051908152f35b613198565b3461026257600036600319011261026257602061012f54604051908152f35b8015150361026257565b60409060031901126102625760043561144e816104a2565b9060243561038a8161142c565b346102625761001961149761146f36611436565b91903360005261013b60205260406000209060018060a01b0316600052602052604060002090565b9060ff801983541691151516179055565b34610262576040366003190112610262576024356114c58161142c565b61012d546040516302690e7760e11b81526001600160a01b03916020908290600490829086165afa908115610cdc57600091611555575b501633036115105761001990600435613495565b60405162461bcd60e51b815260206004820152601e60248201527f43616c6c6572206d757374206265204d61726b657420636f6e747261637400006044820152606490fd5b61156d915060203d8111610d0957610cfb8183611b36565b386114fc565b346102625761158136611436565b6001600160a01b038216913383146115f057816114976115c09233600052606a60205260406000209060018060a01b0316600052602052604060002090565b60405190151581527f17307eab39ab6107e8899845ad3d59bd9653f200f220920489ca2b5937696c3160203392a3005b60405162461bcd60e51b815260206004820152601960248201527f4552433732313a20617070726f766520746f2063616c6c6572000000000000006044820152606490fd5b346102625760203660031901126102625760043560005261013c602052602060ff604060002054166040519015158152f35b906020600319830112610262576004356001600160401b039283821161026257806023830112156102625781600401359384116102625760248460051b83010111610262576024019190565b34610262576116c136611667565b6116c96139eb565b60009182905b8282106119e957505061012d546116ee906001600160a01b0316610630565b906040918251809481926315b9ba5d60e01b8352602092839160049889915afa928315610cdc576000936119ca575b506101355461173690610630906001600160a01b031681565b6101335490865191631f29a8cd60e31b83526000838061175d848d83019190602083019252565b0381855afa958615610cdc5789936000976119ad575b5088516370a0823160e01b808252309582019586526001600160a01b0392909216979095919490919087908790819060200103818b5afa958615610cdc5760009661198e575b506117c2613810565b6118026117cf8a85613c34565b926117f48d519485928c84016040909392919360608101946000825260208201520152565b03601f198101845283611b36565b61180a611b57565b928352878301528982015260006060820152823b156102625761184a92600092838c8c5196879586948593638bdb391360e01b85523091309186016138e2565b03925af18015610cdc5761197b575b508551908152308782019081528390829081906020010381875afa918215610cdc5761189692611890926000916119645750613550565b93613201565b928381111561195b57816118ad856118d593613550565b865163a9059cbb60e01b81523389820190815260208101929092529283918291604090910190565b03816000875af18015610cdc5761193d575b50505b803b156102625791516350666e3160e01b8152928301908152600091839182908490829060200103925af18015610cdc5761192a575b610019600160fb55565b80610cd061193792611acd565b38611920565b8161195392903d10610d3857610d298183611b36565b5038806118e7565b92506118ea9050565b610d7e9150853d8711610d8457610d768183611b36565b80610cd061198892611acd565b38611859565b6119a6919650873d8911610d8457610d768183611b36565b94386117b9565b6119c191973d8091833e610e0c8183611b36565b50509538611773565b6119e2919350823d8411610d0957610cfb8183611b36565b913861171d565b9092611a5c611ab191611a13611a0c610630611a06898989613cbe565b35612435565b3314613cce565b611a32611a2a611a24888888613cbe565b35613c9d565b421015613d0b565b6002611a54611a42888888613cbe565b3560005261013d602052604060002090565b0154906131bc565b93611a71611a6b828686613cbe565b35613d4f565b7fb90306ad06b2a6ff86ddc9327db583062895ef6540e62dc50add009db5b356eb610cb6611aa0838787613cbe565b604051903581529081906020820190565b906116cf565b634e487b7160e01b600052604160045260246000fd5b6001600160401b038111611ae057604052565b611ab7565b602081019081106001600160401b03821117611ae057604052565b606081019081106001600160401b03821117611ae057604052565b604081019081106001600160401b03821117611ae057604052565b90601f801991011681019081106001600160401b03821117611ae057604052565b60405190608082018281106001600160401b03821117611ae057604052565b60405190611b8382611b00565b565b6001600160401b038111611ae057601f01601f191660200190565b929192611bac82611b85565b91611bba6040519384611b36565b829481845281830111610262578281602093846000960137010152565b3461026257608036600319011261026257600435611bf4816104a2565b602435611c00816104a2565b606435916001600160401b038311610262573660238401121561026257611c34610019933690602481600401359101611ba0565b91604435916125b7565b3461026257602061105e611c5136611667565b90613e2a565b3461026257602036600319011261026257611db6600435611c7781613352565b611e56611c8383613352565b611e3d611e2b604051968793611e25611e18611dc9611db6611d9d611d4e60208b016084907f3c73766720786d6c6e733d22687474703a2f2f7777772e77332e6f72672f323081527f30302f737667222076696577426f783d2230203020343030203430302220737460208201527f796c653d2277696474683a313030253b6261636b67726f756e643a236638663160408201527f66313b66696c6c3a233030303b666f6e742d66616d696c793a6d6f6e6f73706160608201526331b2911f60e11b60808201520190565b7f3c7465787420783d223530252220793d223330252220746578742d616e63686f81527f723d226d6964646c652220666f6e742d73697a653d223138223e0000000000006020820152603a0190565b6c6c654e46542047656e6573697360981b8152600d0190565b661e17ba32bc3a1f60c91b815260070190565b7f3c7465787420783d223530252220793d223535252220746578742d616e63686f81527f723d226d6964646c652220666f6e742d73697a653d223238223e0000000000006020820152603a0190565b602360f81b815260010190565b906130e1565b651e17b9bb339f60d11b815260060190565b0393611e51601f1995868101835282611b36565b613277565b91611e6f6105368260005261013c602052604060002090565b1561212c57611e7c613119565b611e8582613c9d565b611e8e90613352565b91611ea49060005261013d602052604060002090565b60020154611eb190613352565b604080517f7b202274726169745f74797065223a20226c6f636b6564222c202276616c7565602082015263111d101160e11b9181019190915292839260448401611efa916130e1565b6308881f4b60e21b81526004017f7b202274726169745f74797065223a2022756e6c6f636b5f74696d657374616d81526d38111610113b30b63ab2911d101160911b6020820152602e01611f4d916130e1565b6308881f4b60e21b81526004017f7b202274726169745f74797065223a20226c705f616d6f756e74222c20227661815266363ab2911d101160c91b6020820152602701611f99916130e1565b6222207d60e81b8152600301038481018252611fb59082611b36565b604051607b60f81b60208201529283926021840175226e616d65223a202247656e65736973204e4654202360501b8152601601611ff1916130e1565b61088b60f21b81526002017f226465736372697074696f6e223a20226c654e46542047656e6573697320436f81526e1b1b1958dd1a5bdb881391950b888b608a1b6020820152602f016801134b6b0b3b2911d160bd1b81526009017f22646174613a696d6167652f7376672b786d6c3b6261736536342c00000000008152601b0161207b916130e1565b61088b60f21b81526002016e2261747472696275746573223a205b60881b8152600f016120a7916130e1565b605d60f81b8152600101607d60f81b81526001010382810182526120cb9082611b36565b6120d490613277565b6040517f646174613a6170706c69636174696f6e2f6a736f6e3b6261736536342c000000602082015291908290603d820161210e916130e1565b03908101825261211e9082611b36565b6040516103e6819282610379565b6121346130f8565b611e7c565b60043590611b83826104a2565b9181601f84011215610262578235916001600160401b038311610262576020838186019501011161026257565b6101243590611b83826104a2565b34610262576101403660031901126102625761219b612139565b6001600160401b0390602435828111610262576121bc903690600401612146565b604492919235938411610262576121da610019943690600401612146565b916121e3612173565b94610104359460e4359460c4359460a435946084359460643594612ab8565b3461026257602060ff6112e26122173661127e565b6001600160a01b039182166000908152606a865260408082209290931681526020919091522090565b346102625760203660031901126102625760043561225d816104a2565b6122656122d1565b6001600160a01b0381161561227d5761001990612329565b60405162461bcd60e51b815260206004820152602660248201527f4f776e61626c653a206e6577206f776e657220697320746865207a65726f206160448201526564647265737360d01b6064820152608490fd5b60c9546001600160a01b031633036122e557565b606460405162461bcd60e51b815260206004820152602060248201527f4f776e61626c653a2063616c6c6572206973206e6f7420746865206f776e65726044820152fd5b60c980546001600160a01b039283166001600160a01b0319821681179092559091167f8be0079c531659141344cd1fd0a4f28419497f9722a3daafe3b4186f6b6457e0600080a3565b6001600160a01b0316801561239257600052606860205260406000205490565b60405162461bcd60e51b815260206004820152602960248201527f4552433732313a2061646472657373207a65726f206973206e6f7420612076616044820152683634b21037bbb732b960b91b6064820152608490fd5b156123f057565b60405162461bcd60e51b815260206004820152601860248201527f4552433732313a20696e76616c696420746f6b656e20494400000000000000006044820152606490fd5b6000908152606760205260409020546001600160a01b031661038a8115156123e9565b90600182811c92168015612488575b602083101461247257565b634e487b7160e01b600052602260045260246000fd5b91607f1691612467565b1561249957565b60405162461bcd60e51b815260206004820152603d60248201527f4552433732313a20617070726f76652063616c6c6572206973206e6f7420746f60448201527f6b656e206f776e6572206f7220617070726f76656420666f7220616c6c0000006064820152608490fd5b600081815260676020526040902054612527906001600160a01b031615156123e9565b6000908152606960205260409020546001600160a01b031690565b1561254957565b60405162461bcd60e51b815260206004820152602d60248201527f4552433732313a2063616c6c6572206973206e6f7420746f6b656e206f776e6560448201526c1c881bdc88185c1c1c9bdd9959609a1b6064820152608490fd5b604051906125b182611ae5565b60008252565b91611b8393916125de936125ce610f5d843361265a565b6125d983838361272c565b612a66565b612636565b60809060208152603260208201527f4552433732313a207472616e7366657220746f206e6f6e20455243373231526560408201527131b2b4bb32b91034b6b83632b6b2b73a32b960711b60608201520190565b1561263d57565b60405162461bcd60e51b815280612656600482016125e3565b0390fd5b6001600160a01b038061266c84612435565b1692818316928484149485156126a2575b5050831561268c575b50505090565b61269891929350612504565b1614388080612686565b6000908152606a602090815260408083206001600160a01b03949094168352929052205460ff169350388061267d565b156126d957565b60405162461bcd60e51b815260206004820152602560248201527f4552433732313a207472616e736665722066726f6d20696e636f72726563742060448201526437bbb732b960d91b6064820152608490fd5b6127509061273984612435565b6001600160a01b03828116939091821684146126d2565b8316928315612843576127c28261276b878461281c9661403f565b6127818561277b6106308a612435565b146126d2565b6127a8612798886000526069602052604060002090565b80546001600160a01b0319169055565b6001600160a01b0316600090815260686020526040902090565b80546000190190556001600160a01b0381166000908152606860205260409020600181540190556127fd856000526067602052604060002090565b80546001600160a01b0319166001600160a01b03909216919091179055565b7fddf252ad1be2c89b69c2b068fc378daa952ba7f163c4a11628f55a4df523b3ef600080a4565b60405162461bcd60e51b8152602060048201526024808201527f4552433732313a207472616e7366657220746f20746865207a65726f206164646044820152637265737360e01b6064820152608490fd5b600082815260696020526040902080546001600160a01b0319166001600160a01b0383161790556001600160a01b03806128cd84612435565b169116907f8c5be1e5ebec7d5bd14f71427d1e84f3dd0314c0f7b2291e5b200ac8c7c3b925600080a4565b90816020910312610262575161038a81610250565b61038a939260809260018060a01b031682526000602083015260408201528160608201520190610354565b6001600160a01b03918216815291166020820152604081019190915260806060820181905261038a92910190610354565b6040513d6000823e3d90fd5b3d156129a0573d9061298682611b85565b916129946040519384611b36565b82523d6000602084013e565b606090565b909190803b15612a5e576129d7602091600093604051948580948193630a85bd0160e11b998a8452336004850161290d565b03926001600160a01b03165af160009181612a2e575b50612a20576129fa612975565b80519081612a1b5760405162461bcd60e51b815280612656600482016125e3565b602001fd5b6001600160e01b0319161490565b612a5091925060203d8111612a57575b612a488183611b36565b8101906128f8565b90386129ed565b503d612a3e565b505050600190565b92909190823b15612a99576129d7926020926000604051809681958294630a85bd0160e11b9a8b85523360048601612938565b50505050600190565b634e487b7160e01b600052603260045260246000fd5b99979593919a98969492909a6000549b60ff8d60081c1615809d819e612be0575b8115612bc0575b5015612b6457612b069b8d612afd600160ff196000541617600055565b612b4b57612bee565b612b0c57565b612b1c61ff001960005416600055565b604051600181527f7f26b83ff96e1f2b6a682f133852f6798a09c465da95921460cefb384740249890602090a1565b612b5f61010061ff00196000541617600055565b612bee565b60405162461bcd60e51b815260206004820152602e60248201527f496e697469616c697a61626c653a20636f6e747261637420697320616c72656160448201526d191e481a5b9a5d1a585b1a5e995960921b6064820152608490fd5b303b15915081612bd2575b5038612ae0565b6001915060ff161438612bcb565b600160ff8216109150612ad9565b9b9a999897969594939290916702c68af0bb1400008610612e0e57612c2092612c18913691611ba0565b923691611ba0565b90612c3b60ff60005460081c16612c3681612e6b565b612e6b565b8051906001600160401b038211611ae057612c6082612c5b606554612458565b612f05565b602090601f8311600114612d625794612d08612d209895612d02612d489e9f612cb8612d1498612d269f9e9c9880612d0e99612d1a9e600092612d57575b50508160011b916000199060031b1c191617606555612fe7565b612cc06130d0565b612cc86130d0565b612cd0612ecb565b612cd8612ee9565b612ce06130d0565b61012d80546001600160a01b0319166001600160a01b03909216919091179055565b61012e55565b61012f55565b61013955565b61013255565b61013055565b61013155565b61013880546001600160a01b0319166001600160a01b03909216919091179055565b611b8361013a60018154019055565b015190503880612c9e565b6065600052601f19831691907f8ff97419363ffd7000167f130ef7168fbea05faf9251824ca5043f113cc6a7c79260005b818110612df6575095612d02612d489e9f612cb8612d1498612d269f9e9c9880612d209f9c99612d1a9e99612d0899600194612d0e9d10612ddd575b505050811b01606555612fe7565b015160001960f88460031b161c19169055388080612dcf565b92936020600181928786015181550195019301612d93565b60405162461bcd60e51b815260206004820152602f60248201527f5072696365206d7573742062652067726561746572206f7220657175616c207460448201526e1bc813140811551208105353d55395608a1b6064820152608490fd5b15612e7257565b60405162461bcd60e51b815260206004820152602b60248201527f496e697469616c697a61626c653a20636f6e7472616374206973206e6f74206960448201526a6e697469616c697a696e6760a81b6064820152608490fd5b612ee060ff60005460081c16612c3681612e6b565b611b8333612329565b612efe60ff60005460081c16612c3681612e6b565b600160fb55565b601f8111612f11575050565b600090606582527f8ff97419363ffd7000167f130ef7168fbea05faf9251824ca5043f113cc6a7c7906020601f850160051c83019410612f6c575b601f0160051c01915b828110612f6157505050565b818155600101612f55565b9092508290612f4c565b601f8111612f82575050565b600090606682527f46501879b8ca8525e8c2fd519e2fbfcfa2ebea26501294aa02cbfcfb12e94354906020601f850160051c83019410612fdd575b601f0160051c01915b828110612fd257505050565b818155600101612fc6565b9092508290612fbd565b9081516001600160401b038111611ae05761300c81613007606654612458565b612f76565b602080601f8311600114613048575081929360009261303d575b50508160011b916000199060031b1c191617606655565b015190503880613026565b90601f1983169461307b60666000527f46501879b8ca8525e8c2fd519e2fbfcfa2ebea26501294aa02cbfcfb12e9435490565b926000905b8782106130b857505083600195961061309f575b505050811b01606655565b015160001960f88460031b161c19169055388080613094565b80600185968294968601518155019501930190613080565b611b8360ff60005460081c16612e6b565b906130f460209282815194859201610331565b0190565b6040519061310582611b1b565b600582526466616c736560d81b6020830152565b6040519061312682611b1b565b60048252637472756560e01b6020830152565b6040519061314682611b00565b604082527f6768696a6b6c6d6e6f707172737475767778797a303132333435363738392b2f6040837f4142434445464748494a4b4c4d4e4f505152535455565758595a61626364656660208201520152565b634e487b7160e01b600052601160045260246000fd5b906002820180921161140857565b9190820180921161140857565b81156131d3570490565b634e487b7160e01b600052601260045260246000fd5b906702c68af0bb140000918083029283040361140857565b90683635c9adc5dea00000918083029283040361140857565b600281901b91906001600160fe1b0381160361140857565b8181029291811591840414171561140857565b9061324f82611b85565b61325c6040519182611b36565b828152809261326d601f1991611b85565b0190602036910137565b80511561334957613286613139565b6132aa6132a56132a061329985516131ae565b6003900490565b61321a565b613245565b9160208301918182518301915b8282106132f7575050506003905106806001146132e4576002146132d9575090565b603d90600019015390565b50603d9081600019820153600119015390565b9091936004906003809401938451600190603f9082828260121c16880101518553828282600c1c16880101518386015382828260061c16880101516002860153168501015190820153019391906132b7565b5061038a6125a4565b806000917a184f03e93ff9f4daa797ed6e38ed64bf6a1f01000000000000000080821015613487575b506d04ee2d6d415b85acef810000000080831015613478575b50662386f26fc1000080831015613469575b506305f5e1008083101561345a575b506127108083101561344b575b50606482101561343b575b600a80921015613431575b6001908160216133e9828701613245565b95860101905b6133fb575b5050505090565b600019019083906f181899199a1a9b1b9c1cb0b131b232b360811b8282061a83530491821561342c579190826133ef565b6133f4565b91600101916133d8565b91906064600291049101916133cd565b600491939204910191386133c2565b600891939204910191386133b5565b601091939204910191386133a6565b60209193920491019138613394565b60409350810491503861337b565b90611b839160005261013c60205260406000209060ff801983541691151516179055565b156134c057565b606460405162461bcd60e51b815260206004820152602060248201527f4c6f636b74696d65206973206c6f776572207468616e207468726573686f6c646044820152fd5b1561350b57565b60405162461bcd60e51b815260206004820152601d60248201527f4c6f636b74696d6520697320686967686572207468616e206c696d69740000006044820152606490fd5b9190820391821161140857565b61356c610131548310156134b9565b61357b61013054831115613504565b61013a549061012e54928383116135d65761359591613232565b9060011c8203918211611408576135b9916135af91613232565b61013254906131c9565b670de0b6b3a7640000908181029181830414901517156114085790565b50505050600090565b156135e657565b60405162461bcd60e51b815260206004820152601960248201527f42616c616e6365722044657461696c73206e6f74207365742e000000000000006044820152606490fd5b1561363257565b60405162461bcd60e51b815260206004820152601460248201527313585e1a5b5d5b4818d85c08195e18d95959195960621b6044820152606490fd5b90816020910312610262575161038a816104a2565b1561368a57565b60405162461bcd60e51b815260206004820152601e60248201527f54782076616c7565206973206e6f7420657175616c20746f20707269636500006044820152606490fd5b90816020910312610262575161038a8161142c565b90816020910312610262575190565b6001600160401b038111611ae05760051b60200190565b81601f8201121561026257805191613721836136f3565b9261372f6040519485611b36565b808452602092838086019260051b820101928311610262578301905b828210613759575050505090565b8151815290830190830161374b565b9091606082840312610262578151926001600160401b03938481116102625783019381601f860112156102625784516137a0816136f3565b906137ae6040519283611b36565b808252602096878084019260051b820101918583116102625788809201905b8382106137f7575050505094840151908111610262576040916137f191850161370a565b92015190565b8280918351613805816104a2565b8152019101906137cd565b6040519061381d82611b00565b600282526040366020840137565b8051156138385760200190565b612aa2565b8051600110156138385760400190565b80518210156138385760209160051b010190565b90815180825260208080930193019160005b828110613881575050505090565b835185529381019392810192600101613873565b6138b060409260018352606060208401526060830190613861565b908281830391015260018152600360fc1b60208201520190565b90604061038a92600081528160208201520190613861565b929190835260018060a01b0380928160209316838601521660408401526080606084015261010083019184519260808086015283518091528261012086019401916000905b8282106139785750505050606061396e61038a949361395960e09488015191607f1992838883030160a0890152613861565b906040880151908683030160c0870152610354565b9401511515910152565b8351811686529484019492840192600190910190613927565b1561399857565b606460405162461bcd60e51b815260206004820152602060248201527f4661696c656420746f2073656e6420457468657220746f206465762066756e646044820152fd5b60001981146114085760010190565b600260fb54146139fc57600260fb55565b60405162461bcd60e51b815260206004820152601f60248201527f5265656e7472616e637947756172643a207265656e7472616e742063616c6c006044820152606490fd5b604051613a4d81611ae5565b6000808252926001600160a01b038316928315613ba457600082815260676020526040902054613a86906001600160a01b031615613be8565b81855261013c60205260ff604086205416613b3957816125de94611b8396613aad8361411f565b613ab783856140e7565b600083815260676020526040902054613ad9906001600160a01b031615613be8565b6001600160a01b038416600090815260686020526040902060018154019055613b10846127fd856000526067602052604060002090565b7fddf252ad1be2c89b69c2b068fc378daa952ba7f163c4a11628f55a4df523b3ef8180a46129a5565b60405162461bcd60e51b815260206004820152603a60248201527f43616e6e6f74207472616e7366657220746f6b656e202d2063757272656e746c60448201527f79206c6f636b656420696e20616e20616374697665206c6f616e0000000000006064820152608490fd5b606460405162461bcd60e51b815260206004820152602060248201527f4552433732313a206d696e7420746f20746865207a65726f20616464726573736044820152fd5b15613bef57565b60405162461bcd60e51b815260206004820152601c60248201527f4552433732313a20746f6b656e20616c7265616479206d696e746564000000006044820152606490fd5b9081519160005b838110613c6b5762461bcd60e51b6000908152602060045260076024526642414c2333303960c81b604452606490fd5b6001600160a01b0380613c7e838561384d565b511690841614613c9657613c91906139dc565b613c3b565b9250505090565b60005261013d60205260406000206001815491015481018091116114085790565b91908110156138385760051b0190565b15613cd557565b60405162461bcd60e51b815260206004820152600e60248201526d26bab9ba1037bbb7103a37b5b2b760911b6044820152606490fd5b15613d1257565b60405162461bcd60e51b8152602060048201526015602482015274151bdad95b881a5cc81cdd1a5b1b081b1bd8dad959605a1b6044820152606490fd5b613d5881612435565b60009082825261013c60205260ff604083205416613b395782613d7a916140bb565b613d8382612435565b8282526069602052604082206bffffffffffffffffffffffff60a01b815416905560018060a01b03168082526068602052604082206000198154019055613dd7612798846000526067602052604060002090565b7fddf252ad1be2c89b69c2b068fc378daa952ba7f163c4a11628f55a4df523b3ef8280a4565b9190916040818403126102625780519260208201516001600160401b0381116102625761038a920161370a565b6101355460009290613e44906001600160a01b0316610630565b9183905b82821061401a57505061013354604051631f29a8cd60e31b81526004810182905290936001600160a01b03936000908390602490829088165afa908115610cdc57600492600092613ffd575b5061012d54602090613eae906001600160a01b0316610630565b6040516315b9ba5d60e01b815294859182905afa928315610cdc57613f6c95600094613ee3928691613fdf575b501683613c34565b9586613eed613810565b61013654613f3090613f0990610630906001600160a01b031681565b946117f4604051948592602084016040909392919360608101946000825260208201520152565b613f38611b57565b94855260208501526040840152836060840152836040518097819582946331ecb14b60e21b845230903090600486016138e2565b03925af1918215610cdc57600092613fb6575b50613f8990613201565b9081613f95848361384d565b5111613fa357505050600090565b61038a92613fb09161384d565b51613550565b613fd690613f8992933d8091833e613fce8183611b36565b810190613dfd565b90509190613f7f565b613ff7915060203d8111610d0957610cfb8183611b36565b38613edb565b61401191923d8091833e610e0c8183611b36565b50509038613e94565b9093614033614039916002611a54611a42898888613cbe565b946139dc565b90613e48565b9190918160005261013c60205260ff60406000205416613b39576001600160a01b03818116918261409957506140748361411f565b831680614087575050611b839150614236565b03614090575050565b611b83916140e7565b8382861684036140ab575b5050614074565b6140b49161417c565b38836140a4565b611b839190816001600160a01b0382166140de576140d9915061411f565b614236565b6140d99161417c565b6040906140f381612372565b9260009160018060a01b0316825260976020528282208483526020528083832055815260986020522055565b60995481600052609a6020528060406000205568010000000000000000811015611ae05760018101806099558110156138385760996000527f72a152ddfb8e864297c917af52ea6c1c68aead0fee1a62673fcc7e0c94979d000155565b9061418682612372565b600019810191908211611408576141c6926141e1916000948186928352609860205260408320548681036141ee575b506000526098602052604060002090565b556001600160a01b0316600090815260976020526040902090565b9082526020526040812055565b6001600160a01b0385168085526097602081815260408088208b89528252808820546000948552928252808420858952825280882083905591835260989052902055386141b5565b609980546000199283820182811161140857600092828452609a602052806040852054921015613838578484527f72a152ddfb8e864297c917af52ea6c1c68aead0fee1a62673fcc7e0c94979cff9283820154918310156138385784926142d26142e39388865280837f72a152ddfb8e864297c917af52ea6c1c68aead0fee1a62673fcc7e0c94979d000155600052609a602052604060002090565b55600052609a602052604060002090565b558254938415614300578401938085101561383857838352015555565b634e487b7160e01b83526031600452602483fdfea264697066735822122025f8ae863cdac7b66bbb30823cefd6c56a599162c55bec4cca60d5969d09653464736f6c63430008130033",
  "linkReferences": {},
  "deployedLinkReferences": {}
}