{
  "_format": "hh-sol-artifact-1",
  "contractName": "GenesisNFT",
  "sourceName": "contracts/protocol/GenesisNFT.sol",
  "abi": [
    {
      "inputs": [],
      "stateMutability": "nonpayable",
      "type": "constructor"
    },
    {
      "anonymous": false,
      "inputs": [
        {
          "indexed": true,
          "internalType": "address",
          "name": "owner",
          "type": "address"
        },
        {
          "indexed": true,
          "internalType": "address",
          "name": "approved",
          "type": "address"
        },
        {
          "indexed": true,
          "internalType": "uint256",
          "name": "tokenId",
          "type": "uint256"
        }
      ],
      "name": "Approval",
      "type": "event"
    },
    {
      "anonymous": false,
      "inputs": [
        {
          "indexed": true,
          "internalType": "address",
          "name": "owner",
          "type": "address"
        },
        {
          "indexed": true,
          "internalType": "address",
          "name": "operator",
          "type": "address"
        },
        {
          "indexed": false,
          "internalType": "bool",
          "name": "approved",
          "type": "bool"
        }
      ],
      "name": "ApprovalForAll",
      "type": "event"
    },
    {
      "anonymous": false,
      "inputs": [
        {
          "indexed": false,
          "internalType": "uint256",
          "name": "tokenId",
          "type": "uint256"
        }
      ],
      "name": "Burn",
      "type": "event"
    },
    {
      "anonymous": false,
      "inputs": [
        {
          "indexed": false,
          "internalType": "uint8",
          "name": "version",
          "type": "uint8"
        }
      ],
      "name": "Initialized",
      "type": "event"
    },
    {
      "anonymous": false,
      "inputs": [
        {
          "indexed": false,
          "internalType": "address",
          "name": "owner",
          "type": "address"
        },
        {
          "indexed": false,
          "internalType": "uint256",
          "name": "tokenId",
          "type": "uint256"
        }
      ],
      "name": "Mint",
      "type": "event"
    },
    {
      "anonymous": false,
      "inputs": [
        {
          "indexed": true,
          "internalType": "address",
          "name": "previousOwner",
          "type": "address"
        },
        {
          "indexed": true,
          "internalType": "address",
          "name": "newOwner",
          "type": "address"
        }
      ],
      "name": "OwnershipTransferred",
      "type": "event"
    },
    {
      "anonymous": false,
      "inputs": [
        {
          "indexed": true,
          "internalType": "address",
          "name": "from",
          "type": "address"
        },
        {
          "indexed": true,
          "internalType": "address",
          "name": "to",
          "type": "address"
        },
        {
          "indexed": true,
          "internalType": "uint256",
          "name": "tokenId",
          "type": "uint256"
        }
      ],
      "name": "Transfer",
      "type": "event"
    },
    {
      "inputs": [
        {
          "internalType": "address",
          "name": "to",
          "type": "address"
        },
        {
          "internalType": "uint256",
          "name": "tokenId",
          "type": "uint256"
        }
      ],
      "name": "approve",
      "outputs": [],
      "stateMutability": "nonpayable",
      "type": "function"
    },
    {
      "inputs": [
        {
          "internalType": "address",
          "name": "owner",
          "type": "address"
        }
      ],
      "name": "balanceOf",
      "outputs": [
        {
          "internalType": "uint256",
          "name": "",
          "type": "uint256"
        }
      ],
      "stateMutability": "view",
      "type": "function"
    },
    {
      "inputs": [
        {
          "internalType": "uint256",
          "name": "tokenId",
          "type": "uint256"
        }
      ],
      "name": "burn",
      "outputs": [],
      "stateMutability": "nonpayable",
      "type": "function"
    },
    {
      "inputs": [
        {
          "internalType": "uint256",
          "name": "tokenId",
          "type": "uint256"
        }
      ],
      "name": "getActiveState",
      "outputs": [
        {
          "internalType": "bool",
          "name": "",
          "type": "bool"
        }
      ],
      "stateMutability": "view",
      "type": "function"
    },
    {
      "inputs": [
        {
          "internalType": "uint256",
          "name": "tokenId",
          "type": "uint256"
        }
      ],
      "name": "getApproved",
      "outputs": [
        {
          "internalType": "address",
          "name": "",
          "type": "address"
        }
      ],
      "stateMutability": "view",
      "type": "function"
    },
    {
      "inputs": [],
      "name": "getCap",
      "outputs": [
        {
          "internalType": "uint256",
          "name": "",
          "type": "uint256"
        }
      ],
      "stateMutability": "view",
      "type": "function"
    },
    {
      "inputs": [],
      "name": "getLTVBoost",
      "outputs": [
        {
          "internalType": "uint256",
          "name": "",
          "type": "uint256"
        }
      ],
      "stateMutability": "view",
      "type": "function"
    },
    {
      "inputs": [
        {
          "internalType": "uint256",
          "name": "locktime",
          "type": "uint256"
        }
      ],
      "name": "getNativeTokenReward",
      "outputs": [
        {
          "internalType": "uint256",
          "name": "",
          "type": "uint256"
        }
      ],
      "stateMutability": "view",
      "type": "function"
    },
    {
      "inputs": [],
      "name": "getPrice",
      "outputs": [
        {
          "internalType": "uint256",
          "name": "",
          "type": "uint256"
        }
      ],
      "stateMutability": "view",
      "type": "function"
    },
    {
      "inputs": [
        {
          "internalType": "uint256",
          "name": "tokenId",
          "type": "uint256"
        }
      ],
      "name": "getUnlockTimestamp",
      "outputs": [
        {
          "internalType": "uint256",
          "name": "",
          "type": "uint256"
        }
      ],
      "stateMutability": "view",
      "type": "function"
    },
    {
      "inputs": [
        {
          "internalType": "contract IAddressesProvider",
          "name": "addressProvider",
          "type": "address"
        },
        {
          "internalType": "string",
          "name": "name",
          "type": "string"
        },
        {
          "internalType": "string",
          "name": "symbol",
          "type": "string"
        },
        {
          "internalType": "uint256",
          "name": "cap",
          "type": "uint256"
        },
        {
          "internalType": "uint256",
          "name": "price",
          "type": "uint256"
        },
        {
          "internalType": "uint256",
          "name": "ltvBoost",
          "type": "uint256"
        },
        {
          "internalType": "uint256",
          "name": "nativeTokenFactor",
          "type": "uint256"
        },
        {
          "internalType": "uint256",
          "name": "maxLocktime",
          "type": "uint256"
        },
        {
          "internalType": "uint256",
          "name": "minLocktime",
          "type": "uint256"
        },
        {
          "internalType": "address payable",
          "name": "devAddress",
          "type": "address"
        }
      ],
      "name": "initialize",
      "outputs": [],
      "stateMutability": "nonpayable",
      "type": "function"
    },
    {
      "inputs": [
        {
          "internalType": "address",
          "name": "owner",
          "type": "address"
        },
        {
          "internalType": "address",
          "name": "operator",
          "type": "address"
        }
      ],
      "name": "isApprovedForAll",
      "outputs": [
        {
          "internalType": "bool",
          "name": "",
          "type": "bool"
        }
      ],
      "stateMutability": "view",
      "type": "function"
    },
    {
      "inputs": [
        {
          "internalType": "uint256",
          "name": "locktime",
          "type": "uint256"
        },
        {
          "internalType": "string",
          "name": "uri",
          "type": "string"
        }
      ],
      "name": "mint",
      "outputs": [
        {
          "internalType": "uint256",
          "name": "",
          "type": "uint256"
        }
      ],
      "stateMutability": "payable",
      "type": "function"
    },
    {
      "inputs": [],
      "name": "mintCount",
      "outputs": [
        {
          "internalType": "uint256",
          "name": "",
          "type": "uint256"
        }
      ],
      "stateMutability": "view",
      "type": "function"
    },
    {
      "inputs": [
        {
          "internalType": "uint256",
          "name": "tokenId",
          "type": "uint256"
        }
      ],
      "name": "mintRewards",
      "outputs": [],
      "stateMutability": "nonpayable",
      "type": "function"
    },
    {
      "inputs": [
        {
          "internalType": "uint256",
          "name": "tokenId",
          "type": "uint256"
        }
      ],
      "name": "mintedRewards",
      "outputs": [
        {
          "internalType": "bool",
          "name": "",
          "type": "bool"
        }
      ],
      "stateMutability": "view",
      "type": "function"
    },
    {
      "inputs": [],
      "name": "name",
      "outputs": [
        {
          "internalType": "string",
          "name": "",
          "type": "string"
        }
      ],
      "stateMutability": "view",
      "type": "function"
    },
    {
      "inputs": [],
      "name": "owner",
      "outputs": [
        {
          "internalType": "address",
          "name": "",
          "type": "address"
        }
      ],
      "stateMutability": "view",
      "type": "function"
    },
    {
      "inputs": [
        {
          "internalType": "uint256",
          "name": "tokenId",
          "type": "uint256"
        }
      ],
      "name": "ownerOf",
      "outputs": [
        {
          "internalType": "address",
          "name": "",
          "type": "address"
        }
      ],
      "stateMutability": "view",
      "type": "function"
    },
    {
      "inputs": [],
      "name": "renounceOwnership",
      "outputs": [],
      "stateMutability": "nonpayable",
      "type": "function"
    },
    {
      "inputs": [
        {
          "internalType": "address",
          "name": "from",
          "type": "address"
        },
        {
          "internalType": "address",
          "name": "to",
          "type": "address"
        },
        {
          "internalType": "uint256",
          "name": "tokenId",
          "type": "uint256"
        }
      ],
      "name": "safeTransferFrom",
      "outputs": [],
      "stateMutability": "nonpayable",
      "type": "function"
    },
    {
      "inputs": [
        {
          "internalType": "address",
          "name": "from",
          "type": "address"
        },
        {
          "internalType": "address",
          "name": "to",
          "type": "address"
        },
        {
          "internalType": "uint256",
          "name": "tokenId",
          "type": "uint256"
        },
        {
          "internalType": "bytes",
          "name": "data",
          "type": "bytes"
        }
      ],
      "name": "safeTransferFrom",
      "outputs": [],
      "stateMutability": "nonpayable",
      "type": "function"
    },
    {
      "inputs": [
        {
          "internalType": "uint256",
          "name": "tokenId",
          "type": "uint256"
        },
        {
          "internalType": "bool",
          "name": "newState",
          "type": "bool"
        }
      ],
      "name": "setActiveState",
      "outputs": [],
      "stateMutability": "nonpayable",
      "type": "function"
    },
    {
      "inputs": [
        {
          "internalType": "address",
          "name": "operator",
          "type": "address"
        },
        {
          "internalType": "bool",
          "name": "approved",
          "type": "bool"
        }
      ],
      "name": "setApprovalForAll",
      "outputs": [],
      "stateMutability": "nonpayable",
      "type": "function"
    },
    {
      "inputs": [
        {
          "internalType": "uint256",
          "name": "newLTVBoost",
          "type": "uint256"
        }
      ],
      "name": "setLTVBoost",
      "outputs": [],
      "stateMutability": "nonpayable",
      "type": "function"
    },
    {
      "inputs": [
        {
          "internalType": "address",
          "name": "pool",
          "type": "address"
        }
      ],
      "name": "setTradingPool",
      "outputs": [],
      "stateMutability": "nonpayable",
      "type": "function"
    },
    {
      "inputs": [
        {
          "internalType": "bytes4",
          "name": "interfaceId",
          "type": "bytes4"
        }
      ],
      "name": "supportsInterface",
      "outputs": [
        {
          "internalType": "bool",
          "name": "",
          "type": "bool"
        }
      ],
      "stateMutability": "view",
      "type": "function"
    },
    {
      "inputs": [],
      "name": "symbol",
      "outputs": [
        {
          "internalType": "string",
          "name": "",
          "type": "string"
        }
      ],
      "stateMutability": "view",
      "type": "function"
    },
    {
      "inputs": [
        {
          "internalType": "uint256",
          "name": "index",
          "type": "uint256"
        }
      ],
      "name": "tokenByIndex",
      "outputs": [
        {
          "internalType": "uint256",
          "name": "",
          "type": "uint256"
        }
      ],
      "stateMutability": "view",
      "type": "function"
    },
    {
      "inputs": [
        {
          "internalType": "address",
          "name": "owner",
          "type": "address"
        },
        {
          "internalType": "uint256",
          "name": "index",
          "type": "uint256"
        }
      ],
      "name": "tokenOfOwnerByIndex",
      "outputs": [
        {
          "internalType": "uint256",
          "name": "",
          "type": "uint256"
        }
      ],
      "stateMutability": "view",
      "type": "function"
    },
    {
      "inputs": [
        {
          "internalType": "uint256",
          "name": "tokenId",
          "type": "uint256"
        }
      ],
      "name": "tokenURI",
      "outputs": [
        {
          "internalType": "string",
          "name": "",
          "type": "string"
        }
      ],
      "stateMutability": "view",
      "type": "function"
    },
    {
      "inputs": [],
      "name": "totalSupply",
      "outputs": [
        {
          "internalType": "uint256",
          "name": "",
          "type": "uint256"
        }
      ],
      "stateMutability": "view",
      "type": "function"
    },
    {
      "inputs": [
        {
          "internalType": "address",
          "name": "from",
          "type": "address"
        },
        {
          "internalType": "address",
          "name": "to",
          "type": "address"
        },
        {
          "internalType": "uint256",
          "name": "tokenId",
          "type": "uint256"
        }
      ],
      "name": "transferFrom",
      "outputs": [],
      "stateMutability": "nonpayable",
      "type": "function"
    },
    {
      "inputs": [
        {
          "internalType": "address",
          "name": "newOwner",
          "type": "address"
        }
      ],
      "name": "transferOwnership",
      "outputs": [],
      "stateMutability": "nonpayable",
      "type": "function"
    },
    {
      "stateMutability": "payable",
      "type": "receive"
    }
  ],
  "bytecode": "0x60806040523480156200001157600080fd5b506200001c62000022565b620000e4565b600054610100900460ff16156200008f5760405162461bcd60e51b815260206004820152602760248201527f496e697469616c697a61626c653a20636f6e747261637420697320696e697469604482015266616c697a696e6760c81b606482015260840160405180910390fd5b60005460ff9081161015620000e2576000805460ff191660ff9081179091556040519081527f7f26b83ff96e1f2b6a682f133852f6798a09c465da95921460cefb38474024989060200160405180910390a15b565b61367280620000f46000396000f3fe6080604052600436106101fd5760003560e01c80636de010a41161010d5780639659867e116100a0578063c87b56dd1161006f578063c87b56dd146105b1578063d482ef9b146105d1578063e985e9c5146105f1578063ec399a271461063a578063f2fde38b1461065a57600080fd5b80639659867e1461054657806398d5fdca1461055b578063a22cb46514610571578063b88d4fde1461059157600080fd5b806377097fc8116100dc57806377097fc8146104df5780638a34711d146104f25780638da5cb5b1461051257806395d89b411461053157600080fd5b80636de010a41461045957806370a082311461048a57806370cda01a146104aa578063715018a6146104ca57600080fd5b80632f745c59116101905780634f6ccce71161015f5780634f6ccce7146103cd578063554d578d146103ed5780635ca67d9b146104035780635e726b98146104195780636352211e1461043957600080fd5b80632f745c591461034d57806342842e0e1461036d57806342966c681461038d5780634828ced9146103ad57600080fd5b80630cfb5659116101cc5780630cfb5659146102ba57806318160ddd146102ee57806323b872dd1461030d57806329e558981461032d57600080fd5b806301ffc9a71461020957806306fdde031461023e578063081812fc14610260578063095ea7b31461029857600080fd5b3661020457005b600080fd5b34801561021557600080fd5b50610229610224366004612cf7565b61067a565b60405190151581526020015b60405180910390f35b34801561024a57600080fd5b5061025361068b565b6040516102359190612d64565b34801561026c57600080fd5b5061028061027b366004612d77565b61071d565b6040516001600160a01b039091168152602001610235565b3480156102a457600080fd5b506102b86102b3366004612da5565b610744565b005b3480156102c657600080fd5b506102296102d5366004612d77565b600090815261019c602052604090206003015460ff1690565b3480156102fa57600080fd5b506099545b604051908152602001610235565b34801561031957600080fd5b506102b8610328366004612dd1565b61085e565b34801561033957600080fd5b506102b8610348366004612e20565b61088f565b34801561035957600080fd5b506102ff610368366004612da5565b610988565b34801561037957600080fd5b506102b8610388366004612dd1565b610a1e565b34801561039957600080fd5b506102b86103a8366004612d77565b610a39565b3480156103b957600080fd5b506102b86103c8366004612d77565b610bf5565b3480156103d957600080fd5b506102ff6103e8366004612d77565b610cb0565b3480156103f957600080fd5b50610192546102ff565b34801561040f57600080fd5b50610199546102ff565b34801561042557600080fd5b506102ff610434366004612d77565b610d43565b34801561044557600080fd5b50610280610454366004612d77565b610d87565b34801561046557600080fd5b50610229610474366004612d77565b600090815261019b602052604090205460ff1690565b34801561049657600080fd5b506102ff6104a5366004612e50565b610de7565b3480156104b657600080fd5b506102b86104c5366004612e50565b610e6d565b3480156104d657600080fd5b506102b8610e98565b6102ff6104ed366004612ef9565b610eac565b3480156104fe57600080fd5b506102ff61050d366004612d77565b611520565b34801561051e57600080fd5b5061012d546001600160a01b0316610280565b34801561053d57600080fd5b50610253611540565b34801561055257600080fd5b506102ff61154f565b34801561056757600080fd5b50610193546102ff565b34801561057d57600080fd5b506102b861058c366004612f54565b61156c565b34801561059d57600080fd5b506102b86105ac366004612f82565b61157b565b3480156105bd57600080fd5b506102536105cc366004612d77565b6115b3565b3480156105dd57600080fd5b506102b86105ec36600461305b565b6115be565b3480156105fd57600080fd5b5061022961060c36600461312f565b6001600160a01b039182166000908152606a6020908152604080832093909416825291909152205460ff1690565b34801561064657600080fd5b506102b8610655366004612d77565b6117fe565b34801561066657600080fd5b506102b8610675366004612e50565b61180c565b600061068582611882565b92915050565b60606065805461069a9061315d565b80601f01602080910402602001604051908101604052809291908181526020018280546106c69061315d565b80156107135780601f106106e857610100808354040283529160200191610713565b820191906000526020600020905b8154815290600101906020018083116106f657829003601f168201915b5050505050905090565b6000610728826118a7565b506000908152606960205260409020546001600160a01b031690565b600061074f82610d87565b9050806001600160a01b0316836001600160a01b0316036107c15760405162461bcd60e51b815260206004820152602160248201527f4552433732313a20617070726f76616c20746f2063757272656e74206f776e656044820152603960f91b60648201526084015b60405180910390fd5b336001600160a01b03821614806107dd57506107dd813361060c565b61084f5760405162461bcd60e51b815260206004820152603d60248201527f4552433732313a20617070726f76652063616c6c6572206973206e6f7420746f60448201527f6b656e206f776e6572206f7220617070726f76656420666f7220616c6c00000060648201526084016107b8565b6108598383611906565b505050565b6108683382611974565b6108845760405162461bcd60e51b81526004016107b890613197565b6108598383836119f3565b61019160009054906101000a90046001600160a01b03166001600160a01b03166304d21cee6040518163ffffffff1660e01b8152600401602060405180830381865afa1580156108e3573d6000803e3d6000fd5b505050506040513d601f19601f8201168201806040525081019061090791906131e4565b6001600160a01b0316336001600160a01b0316146109675760405162461bcd60e51b815260206004820152601e60248201527f43616c6c6572206d757374206265204d61726b657420636f6e7472616374000060448201526064016107b8565b600091825261019b6020526040909120805460ff1916911515919091179055565b600061099383610de7565b82106109f55760405162461bcd60e51b815260206004820152602b60248201527f455243373231456e756d657261626c653a206f776e657220696e646578206f7560448201526a74206f6620626f756e647360a81b60648201526084016107b8565b506001600160a01b03919091166000908152609760209081526040808320938352929052205490565b6108598383836040518060200160405280600081525061157b565b610a41611b64565b610a4a81610d87565b6001600160a01b0316336001600160a01b031614610a9b5760405162461bcd60e51b815260206004820152600e60248201526d26bab9ba1037bbb7103a37b5b2b760911b60448201526064016107b8565b610aa481611520565b421015610aeb5760405162461bcd60e51b8152602060048201526015602482015274151bdad95b881a5cc81cdd1a5b1b081b1bd8dad959605a1b60448201526064016107b8565b61019754600082815261019c6020908152604080832060020154815180830183528481529283019390935251633eb1719f60e01b81526001600160a01b0390931692633eb1719f92610b439290913390600401613224565b60408051808303816000875af1158015610b61573d6000803e3d6000fd5b505050506040513d601f19601f82011682018060405250810190610b859190613251565b50600081815261019c602052604090206003015460ff16610bab57610bab335b82611bbf565b610bb481611e48565b6040518181527fb90306ad06b2a6ff86ddc9327db583062895ef6540e62dc50add009db5b356eb9060200160405180910390a1610bf2600161015f55565b50565b610bfe81610d87565b6001600160a01b0316336001600160a01b031614610c4f5760405162461bcd60e51b815260206004820152600e60248201526d26bab9ba1037bbb7103a37b5b2b760911b60448201526064016107b8565b610c5881611520565b421015610ca75760405162461bcd60e51b815260206004820152601760248201527f546f6b656e7320617265207374696c6c206c6f636b656400000000000000000060448201526064016107b8565b610bf233610ba5565b6000610cbb60995490565b8210610d1e5760405162461bcd60e51b815260206004820152602c60248201527f455243373231456e756d657261626c653a20676c6f62616c20696e646578206f60448201526b7574206f6620626f756e647360a01b60648201526084016107b8565b60998281548110610d3157610d316132d1565b90600052602060002001549050919050565b600061019654610d5361019a5490565b61019254610d6191906132fd565b610d6b9084613310565b610d759190613327565b61068590670de0b6b3a7640000613310565b6000818152606760205260408120546001600160a01b0316806106855760405162461bcd60e51b8152602060048201526018602482015277115490cdcc8c4e881a5b9d985b1a59081d1bdad95b88125160421b60448201526064016107b8565b60006001600160a01b038216610e515760405162461bcd60e51b815260206004820152602960248201527f4552433732313a2061646472657373207a65726f206973206e6f7420612076616044820152683634b21037bbb732b960b91b60648201526084016107b8565b506001600160a01b031660009081526068602052604090205490565b610e75611e51565b61019780546001600160a01b0319166001600160a01b0392909216919091179055565b610ea0611e51565b610eaa6000611eac565b565b6000610eb6611b64565b610197546001600160a01b0316610f0f5760405162461bcd60e51b815260206004820152601d60248201527f496e63656e746976697a656420706f6f6c206973206e6f74207365742e00000060448201526064016107b8565b6000610f1b61019a5490565b9050610f276101925490565b811115610f765760405162461bcd60e51b815260206004820152601960248201527f416c6c204e4654732068617665206265656e206d696e7465640000000000000060448201526064016107b8565b61019554841015610fc95760405162461bcd60e51b815260206004820181905260248201527f4c6f636b74696d65206973206c6f776572207468616e207468726573686f6c6460448201526064016107b8565b6101945484111561101c5760405162461bcd60e51b815260206004820152601d60248201527f4c6f636b74696d6520697320686967686572207468616e206c696d697400000060448201526064016107b8565b61019354341461106e5760405162461bcd60e51b815260206004820152601e60248201527f54782076616c7565206973206e6f7420657175616c20746f207072696365000060448201526064016107b8565b600060036101935460026110829190613310565b61108c9190613327565b9050600061019760009054906101000a90046001600160a01b03166001600160a01b03166314f059796040518163ffffffff1660e01b81526004016040805180830381865afa1580156110e3573d6000803e3d6000fd5b505050506040513d601f19601f820116820180604052508101906111079190613251565b805190915060009081036111285761112183613a98613310565b9050611146565b815160208301516111399085613310565b6111439190613327565b90505b61019160009054906101000a90046001600160a01b03166001600160a01b03166315b9ba5d6040518163ffffffff1660e01b8152600401602060405180830381865afa15801561119a573d6000803e3d6000fd5b505050506040513d601f19601f820116820180604052508101906111be91906131e4565b6001600160a01b0316630a8514c4826040518263ffffffff1660e01b81526004016111eb91815260200190565b600060405180830381600087803b15801561120557600080fd5b505af1158015611219573d6000803e3d6000fd5b5050505061019160009054906101000a90046001600160a01b03166001600160a01b03166315b9ba5d6040518163ffffffff1660e01b8152600401602060405180830381865afa158015611271573d6000803e3d6000fd5b505050506040513d601f19601f8201168201806040525081019061129591906131e4565b6101975460405163095ea7b360e01b81526001600160a01b0391821660048201526024810184905291169063095ea7b3906044016020604051808303816000875af11580156112e8573d6000803e3d6000fd5b505050506040513d601f19601f8201168201806040525081019061130c9190613349565b5061019754604080518082018252858152602081018490529051630b4c7e4d60e01b81526000926001600160a01b031691630b4c7e4d918791611353918690600401613366565b60206040518083038185885af1158015611371573d6000803e3d6000fd5b50505050506040513d601f19601f820116820180604052508101906113969190613381565b61019854610193549192506000916001600160a01b03909116906113bb9087906132fd565b604051600081818185875af1925050503d80600081146113f7576040519150601f19603f3d011682016040523d82523d6000602084013e6113fc565b606091505b505090508061144d5760405162461bcd60e51b815260206004820181905260248201527f4661696c656420746f2073656e6420457468657220746f206465762066756e6460448201526064016107b8565b6114573387611eff565b6114618689611f19565b6040805160808101825242815260208082018c81528284018681526000606085018181528c825261019c90945294909420925183555160018301559151600282015590516003909101805491151560ff199092169190911790556114ca61019a80546001019055565b7f0f6798a560793a54c3bcfe86a93cde1e73087d944c0ea20544137d412139688533604080516001600160a01b039092168252602082018990520160405180910390a15093945050505050610685600161015f55565b600081815261019c6020526040812060018101549054610685919061339a565b60606066805461069a9061315d565b6000600161155d61019a5490565b61156791906132fd565b905090565b611577338383611fac565b5050565b6115853383611974565b6115a15760405162461bcd60e51b81526004016107b890613197565b6115ad8484848461207a565b50505050565b6060610685826120ad565b600054610100900460ff16158080156115de5750600054600160ff909116105b806115f85750303b1580156115f8575060005460ff166001145b61165b5760405162461bcd60e51b815260206004820152602e60248201527f496e697469616c697a61626c653a20636f6e747261637420697320616c72656160448201526d191e481a5b9a5d1a585b1a5e995960921b60648201526084016107b8565b6000805460ff19166001179055801561167e576000805461ff0019166101001790555b6116866121c4565b61168e6121c4565b6116966121eb565b61171a8c8c8080601f016020809104026020016040519081016040528093929190818152602001838380828437600081840152601f19601f820116905080830192505050505050508b8b8080601f01602080910402602001604051908101604052809392919081815260200183838082843760009201919091525061221a92505050565b8c61019160006101000a8154816001600160a01b0302191690836001600160a01b031602179055508761019281905550866101938190555085610199819055508461019681905550836101948190555082610195819055508161019860006101000a8154816001600160a01b0302191690836001600160a01b031602179055506117a961019a80546001019055565b80156117ef576000805461ff0019169055604051600181527f7f26b83ff96e1f2b6a682f133852f6798a09c465da95921460cefb38474024989060200160405180910390a15b50505050505050505050505050565b611806611e51565b61019955565b611814611e51565b6001600160a01b0381166118795760405162461bcd60e51b815260206004820152602660248201527f4f776e61626c653a206e6577206f776e657220697320746865207a65726f206160448201526564647265737360d01b60648201526084016107b8565b610bf281611eac565b60006001600160e01b0319821663780e9d6360e01b148061068557506106858261224b565b6000818152606760205260409020546001600160a01b0316610bf25760405162461bcd60e51b8152602060048201526018602482015277115490cdcc8c4e881a5b9d985b1a59081d1bdad95b88125160421b60448201526064016107b8565b600081815260696020526040902080546001600160a01b0319166001600160a01b038416908117909155819061193b82610d87565b6001600160a01b03167f8c5be1e5ebec7d5bd14f71427d1e84f3dd0314c0f7b2291e5b200ac8c7c3b92560405160405180910390a45050565b60008061198083610d87565b9050806001600160a01b0316846001600160a01b031614806119c757506001600160a01b038082166000908152606a602090815260408083209388168352929052205460ff165b806119eb5750836001600160a01b03166119e08461071d565b6001600160a01b0316145b949350505050565b826001600160a01b0316611a0682610d87565b6001600160a01b031614611a2c5760405162461bcd60e51b81526004016107b8906133ad565b6001600160a01b038216611a8e5760405162461bcd60e51b8152602060048201526024808201527f4552433732313a207472616e7366657220746f20746865207a65726f206164646044820152637265737360e01b60648201526084016107b8565b611a9b838383600161229b565b826001600160a01b0316611aae82610d87565b6001600160a01b031614611ad45760405162461bcd60e51b81526004016107b8906133ad565b600081815260696020908152604080832080546001600160a01b03199081169091556001600160a01b0387811680865260688552838620805460001901905590871680865283862080546001019055868652606790945282852080549092168417909155905184937fddf252ad1be2c89b69c2b068fc378daa952ba7f163c4a11628f55a4df523b3ef91a4505050565b600261015f5403611bb75760405162461bcd60e51b815260206004820152601f60248201527f5265656e7472616e637947756172643a207265656e7472616e742063616c6c0060448201526064016107b8565b600261015f55565b600081815261019c602052604090206003015460ff1615611c1b5760405162461bcd60e51b815260206004820152601660248201527514995dd85c991cc8185b1c9958591e481b5a5b9d195960521b60448201526064016107b8565b61019160009054906101000a90046001600160a01b03166001600160a01b03166315b9ba5d6040518163ffffffff1660e01b8152600401602060405180830381865afa158015611c6f573d6000803e3d6000fd5b505050506040513d601f19601f82011682018060405250810190611c9391906131e4565b6001600160a01b0316630a8514c4611cc161019c600085815260200190815260200160002060010154610d43565b6040518263ffffffff1660e01b8152600401611cdf91815260200190565b600060405180830381600087803b158015611cf957600080fd5b505af1158015611d0d573d6000803e3d6000fd5b5050505061019160009054906101000a90046001600160a01b03166001600160a01b03166315b9ba5d6040518163ffffffff1660e01b8152600401602060405180830381865afa158015611d65573d6000803e3d6000fd5b505050506040513d601f19601f82011682018060405250810190611d8991906131e4565b6001600160a01b031663a9059cbb83611db861019c600086815260200190815260200160002060010154610d43565b6040516001600160e01b031960e085901b1681526001600160a01b03909216600483015260248201526044016020604051808303816000875af1158015611e03573d6000803e3d6000fd5b505050506040513d601f19601f82011682018060405250810190611e279190613349565b50600090815261019c60205260409020600301805460ff1916600117905550565b610bf28161232d565b61012d546001600160a01b03163314610eaa5760405162461bcd60e51b815260206004820181905260248201527f4f776e61626c653a2063616c6c6572206973206e6f7420746865206f776e657260448201526064016107b8565b61012d80546001600160a01b038381166001600160a01b0319831681179093556040519116919082907f8be0079c531659141344cd1fd0a4f28419497f9722a3daafe3b4186f6b6457e090600090a35050565b61157782826040518060200160405280600081525061236d565b6000828152606760205260409020546001600160a01b0316611f945760405162461bcd60e51b815260206004820152602e60248201527f45524337323155524953746f726167653a2055524920736574206f66206e6f6e60448201526d32bc34b9ba32b73a103a37b5b2b760911b60648201526084016107b8565b600082815260fb602052604090206108598282613440565b816001600160a01b0316836001600160a01b03160361200d5760405162461bcd60e51b815260206004820152601960248201527f4552433732313a20617070726f766520746f2063616c6c65720000000000000060448201526064016107b8565b6001600160a01b038381166000818152606a6020908152604080832094871680845294825291829020805460ff191686151590811790915591519182527f17307eab39ab6107e8899845ad3d59bd9653f200f220920489ca2b5937696c31910160405180910390a3505050565b6120858484846119f3565b612091848484846123a0565b6115ad5760405162461bcd60e51b81526004016107b890613500565b60606120b8826118a7565b600082815260fb6020526040812080546120d19061315d565b80601f01602080910402602001604051908101604052809291908181526020018280546120fd9061315d565b801561214a5780601f1061211f5761010080835404028352916020019161214a565b820191906000526020600020905b81548152906001019060200180831161212d57829003601f168201915b505050505090506000612177604080518082019091526007815266697066733a2f2f60c81b602082015290565b90508051600003612189575092915050565b8151156121bb5780826040516020016121a3929190613552565b60405160208183030381529060405292505050919050565b6119eb846124a1565b600054610100900460ff16610eaa5760405162461bcd60e51b81526004016107b890613581565b600054610100900460ff166122125760405162461bcd60e51b81526004016107b890613581565b610eaa612524565b600054610100900460ff166122415760405162461bcd60e51b81526004016107b890613581565b6115778282612554565b60006001600160e01b031982166380ac58cd60e01b148061227c57506001600160e01b03198216635b5e139f60e01b145b8061068557506301ffc9a760e01b6001600160e01b0319831614610685565b600082815261019b602052604090205460ff16156123215760405162461bcd60e51b815260206004820152603a60248201527f43616e6e6f74207472616e7366657220746f6b656e202d2063757272656e746c60448201527f79206c6f636b656420696e20616e20616374697665206c6f616e00000000000060648201526084016107b8565b6115ad84848484612594565b612336816126d4565b600081815260fb60205260409020805461234f9061315d565b159050610bf257600081815260fb60205260408120610bf291612c93565b6123778383612777565b61238460008484846123a0565b6108595760405162461bcd60e51b81526004016107b890613500565b60006001600160a01b0384163b1561249657604051630a85bd0160e11b81526001600160a01b0385169063150b7a02906123e49033908990889088906004016135cc565b6020604051808303816000875af192505050801561241f575060408051601f3d908101601f1916820190925261241c91810190613609565b60015b61247c573d80801561244d576040519150601f19603f3d011682016040523d82523d6000602084013e612452565b606091505b5080516000036124745760405162461bcd60e51b81526004016107b890613500565b805181602001fd5b6001600160e01b031916630a85bd0160e11b1490506119eb565b506001949350505050565b60606124ac826118a7565b60006124d2604080518082019091526007815266697066733a2f2f60c81b602082015290565b905060008151116124f2576040518060200160405280600081525061251d565b806124fc84612910565b60405160200161250d929190613552565b6040516020818303038152906040525b9392505050565b600054610100900460ff1661254b5760405162461bcd60e51b81526004016107b890613581565b610eaa33611eac565b600054610100900460ff1661257b5760405162461bcd60e51b81526004016107b890613581565b60656125878382613440565b5060666108598282613440565b6125a0848484846129a3565b600181111561260f5760405162461bcd60e51b815260206004820152603560248201527f455243373231456e756d657261626c653a20636f6e7365637574697665207472604482015274185b9cd9995c9cc81b9bdd081cdd5c1c1bdc9d1959605a1b60648201526084016107b8565b816001600160a01b03851661266b5761266681609980546000838152609a60205260408120829055600182018355919091527f72a152ddfb8e864297c917af52ea6c1c68aead0fee1a62673fcc7e0c94979d000155565b61268e565b836001600160a01b0316856001600160a01b03161461268e5761268e8582612a2b565b6001600160a01b0384166126aa576126a581612ac8565b6126cd565b846001600160a01b0316846001600160a01b0316146126cd576126cd8482612b77565b5050505050565b60006126df82610d87565b90506126ef81600084600161229b565b6126f882610d87565b600083815260696020908152604080832080546001600160a01b03199081169091556001600160a01b0385168085526068845282852080546000190190558785526067909352818420805490911690555192935084927fddf252ad1be2c89b69c2b068fc378daa952ba7f163c4a11628f55a4df523b3ef908390a45050565b6001600160a01b0382166127cd5760405162461bcd60e51b815260206004820181905260248201527f4552433732313a206d696e7420746f20746865207a65726f206164647265737360448201526064016107b8565b6000818152606760205260409020546001600160a01b0316156128325760405162461bcd60e51b815260206004820152601c60248201527f4552433732313a20746f6b656e20616c7265616479206d696e7465640000000060448201526064016107b8565b61284060008383600161229b565b6000818152606760205260409020546001600160a01b0316156128a55760405162461bcd60e51b815260206004820152601c60248201527f4552433732313a20746f6b656e20616c7265616479206d696e7465640000000060448201526064016107b8565b6001600160a01b038216600081815260686020908152604080832080546001019055848352606790915280822080546001600160a01b0319168417905551839291907fddf252ad1be2c89b69c2b068fc378daa952ba7f163c4a11628f55a4df523b3ef908290a45050565b6060600061291d83612bbb565b600101905060008167ffffffffffffffff81111561293d5761293d612e6d565b6040519080825280601f01601f191660200182016040528015612967576020820181803683370190505b5090508181016020015b600019016f181899199a1a9b1b9c1cb0b131b232b360811b600a86061a8153600a850494508461297157509392505050565b60018111156115ad576001600160a01b038416156129e9576001600160a01b038416600090815260686020526040812080548392906129e39084906132fd565b90915550505b6001600160a01b038316156115ad576001600160a01b03831660009081526068602052604081208054839290612a2090849061339a565b909155505050505050565b60006001612a3884610de7565b612a4291906132fd565b600083815260986020526040902054909150808214612a95576001600160a01b03841660009081526097602090815260408083208584528252808320548484528184208190558352609890915290208190555b5060009182526098602090815260408084208490556001600160a01b039094168352609781528383209183525290812055565b609954600090612ada906001906132fd565b6000838152609a602052604081205460998054939450909284908110612b0257612b026132d1565b906000526020600020015490508060998381548110612b2357612b236132d1565b6000918252602080832090910192909255828152609a90915260408082208490558582528120556099805480612b5b57612b5b613626565b6001900381819060005260206000200160009055905550505050565b6000612b8283610de7565b6001600160a01b039093166000908152609760209081526040808320868452825280832085905593825260989052919091209190915550565b60008072184f03e93ff9f4daa797ed6e38ed64bf6a1f0160401b8310612bfa5772184f03e93ff9f4daa797ed6e38ed64bf6a1f0160401b830492506040015b6d04ee2d6d415b85acef81000000008310612c26576d04ee2d6d415b85acef8100000000830492506020015b662386f26fc100008310612c4457662386f26fc10000830492506010015b6305f5e1008310612c5c576305f5e100830492506008015b6127108310612c7057612710830492506004015b60648310612c82576064830492506002015b600a83106106855760010192915050565b508054612c9f9061315d565b6000825580601f10612caf575050565b601f016020900490600052602060002090810190610bf291905b80821115612cdd5760008155600101612cc9565b5090565b6001600160e01b031981168114610bf257600080fd5b600060208284031215612d0957600080fd5b813561251d81612ce1565b60005b83811015612d2f578181015183820152602001612d17565b50506000910152565b60008151808452612d50816020860160208601612d14565b601f01601f19169290920160200192915050565b60208152600061251d6020830184612d38565b600060208284031215612d8957600080fd5b5035919050565b6001600160a01b0381168114610bf257600080fd5b60008060408385031215612db857600080fd5b8235612dc381612d90565b946020939093013593505050565b600080600060608486031215612de657600080fd5b8335612df181612d90565b92506020840135612e0181612d90565b929592945050506040919091013590565b8015158114610bf257600080fd5b60008060408385031215612e3357600080fd5b823591506020830135612e4581612e12565b809150509250929050565b600060208284031215612e6257600080fd5b813561251d81612d90565b634e487b7160e01b600052604160045260246000fd5b600067ffffffffffffffff80841115612e9e57612e9e612e6d565b604051601f8501601f19908116603f01168101908282118183101715612ec657612ec6612e6d565b81604052809350858152868686011115612edf57600080fd5b858560208301376000602087830101525050509392505050565b60008060408385031215612f0c57600080fd5b82359150602083013567ffffffffffffffff811115612f2a57600080fd5b8301601f81018513612f3b57600080fd5b612f4a85823560208401612e83565b9150509250929050565b60008060408385031215612f6757600080fd5b8235612f7281612d90565b91506020830135612e4581612e12565b60008060008060808587031215612f9857600080fd5b8435612fa381612d90565b93506020850135612fb381612d90565b925060408501359150606085013567ffffffffffffffff811115612fd657600080fd5b8501601f81018713612fe757600080fd5b612ff687823560208401612e83565b91505092959194509250565b803561300d81612d90565b919050565b60008083601f84011261302457600080fd5b50813567ffffffffffffffff81111561303c57600080fd5b60208301915083602082850101111561305457600080fd5b9250929050565b6000806000806000806000806000806000806101408d8f03121561307e57600080fd5b6130878d613002565b9b5067ffffffffffffffff60208e013511156130a257600080fd5b6130b28e60208f01358f01613012565b909b50995067ffffffffffffffff60408e013511156130d057600080fd5b6130e08e60408f01358f01613012565b909950975060608d0135965060808d0135955060a08d0135945060c08d0135935060e08d013592506101008d0135915061311d6101208e01613002565b90509295989b509295989b509295989b565b6000806040838503121561314257600080fd5b823561314d81612d90565b91506020830135612e4581612d90565b600181811c9082168061317157607f821691505b60208210810361319157634e487b7160e01b600052602260045260246000fd5b50919050565b6020808252602d908201527f4552433732313a2063616c6c6572206973206e6f7420746f6b656e206f776e6560408201526c1c881bdc88185c1c1c9bdd9959609a1b606082015260800190565b6000602082840312156131f657600080fd5b815161251d81612d90565b8060005b60028110156115ad578151845260209384019390910190600101613205565b838152608081016132386020830185613201565b6001600160a01b03929092166060919091015292915050565b60006040828403121561326357600080fd5b82601f83011261327257600080fd5b6040516040810181811067ffffffffffffffff8211171561329557613295612e6d565b80604052508060408401858111156132ac57600080fd5b845b818110156132c65780518352602092830192016132ae565b509195945050505050565b634e487b7160e01b600052603260045260246000fd5b634e487b7160e01b600052601160045260246000fd5b81810381811115610685576106856132e7565b8082028115828204841417610685576106856132e7565b60008261334457634e487b7160e01b600052601260045260246000fd5b500490565b60006020828403121561335b57600080fd5b815161251d81612e12565b606081016133748285613201565b8260408301529392505050565b60006020828403121561339357600080fd5b5051919050565b80820180821115610685576106856132e7565b60208082526025908201527f4552433732313a207472616e736665722066726f6d20696e636f72726563742060408201526437bbb732b960d91b606082015260800190565b601f82111561085957600081815260208120601f850160051c810160208610156134195750805b601f850160051c820191505b8181101561343857828155600101613425565b505050505050565b815167ffffffffffffffff81111561345a5761345a612e6d565b61346e81613468845461315d565b846133f2565b602080601f8311600181146134a3576000841561348b5750858301515b600019600386901b1c1916600185901b178555613438565b600085815260208120601f198616915b828110156134d2578886015182559484019460019091019084016134b3565b50858210156134f05787850151600019600388901b60f8161c191681555b5050505050600190811b01905550565b60208082526032908201527f4552433732313a207472616e7366657220746f206e6f6e20455243373231526560408201527131b2b4bb32b91034b6b83632b6b2b73a32b960711b606082015260800190565b60008351613564818460208801612d14565b835190830190613578818360208801612d14565b01949350505050565b6020808252602b908201527f496e697469616c697a61626c653a20636f6e7472616374206973206e6f74206960408201526a6e697469616c697a696e6760a81b606082015260800190565b6001600160a01b03858116825284166020820152604081018390526080606082018190526000906135ff90830184612d38565b9695505050505050565b60006020828403121561361b57600080fd5b815161251d81612ce1565b634e487b7160e01b600052603160045260246000fdfea2646970667358221220dc3564f6dc18c4c6351aaba19638fb74fb86c89a452cf4af7d97344c45da218e64736f6c63430008110033",
  "linkReferences": {},
  "deployedLinkReferences": {}
}