{
  "_format": "hh-sol-artifact-1",
  "contractName": "GenesisNFT",
  "sourceName": "contracts/protocol/GenesisNFT.sol",
  "abi": [
    {
      "inputs": [],
      "stateMutability": "nonpayable",
      "type": "constructor"
    },
    {
      "anonymous": false,
      "inputs": [
        {
          "indexed": true,
          "internalType": "address",
          "name": "owner",
          "type": "address"
        },
        {
          "indexed": true,
          "internalType": "address",
          "name": "approved",
          "type": "address"
        },
        {
          "indexed": true,
          "internalType": "uint256",
          "name": "tokenId",
          "type": "uint256"
        }
      ],
      "name": "Approval",
      "type": "event"
    },
    {
      "anonymous": false,
      "inputs": [
        {
          "indexed": true,
          "internalType": "address",
          "name": "owner",
          "type": "address"
        },
        {
          "indexed": true,
          "internalType": "address",
          "name": "operator",
          "type": "address"
        },
        {
          "indexed": false,
          "internalType": "bool",
          "name": "approved",
          "type": "bool"
        }
      ],
      "name": "ApprovalForAll",
      "type": "event"
    },
    {
      "anonymous": false,
      "inputs": [
        {
          "indexed": false,
          "internalType": "uint256",
          "name": "tokenId",
          "type": "uint256"
        }
      ],
      "name": "Burn",
      "type": "event"
    },
    {
      "anonymous": false,
      "inputs": [
        {
          "indexed": false,
          "internalType": "uint8",
          "name": "version",
          "type": "uint8"
        }
      ],
      "name": "Initialized",
      "type": "event"
    },
    {
      "anonymous": false,
      "inputs": [
        {
          "indexed": false,
          "internalType": "address",
          "name": "owner",
          "type": "address"
        },
        {
          "indexed": false,
          "internalType": "uint256",
          "name": "tokenId",
          "type": "uint256"
        }
      ],
      "name": "Mint",
      "type": "event"
    },
    {
      "anonymous": false,
      "inputs": [
        {
          "indexed": true,
          "internalType": "address",
          "name": "previousOwner",
          "type": "address"
        },
        {
          "indexed": true,
          "internalType": "address",
          "name": "newOwner",
          "type": "address"
        }
      ],
      "name": "OwnershipTransferred",
      "type": "event"
    },
    {
      "anonymous": false,
      "inputs": [
        {
          "indexed": true,
          "internalType": "address",
          "name": "from",
          "type": "address"
        },
        {
          "indexed": true,
          "internalType": "address",
          "name": "to",
          "type": "address"
        },
        {
          "indexed": true,
          "internalType": "uint256",
          "name": "tokenId",
          "type": "uint256"
        }
      ],
      "name": "Transfer",
      "type": "event"
    },
    {
      "inputs": [
        {
          "internalType": "address",
          "name": "to",
          "type": "address"
        },
        {
          "internalType": "uint256",
          "name": "tokenId",
          "type": "uint256"
        }
      ],
      "name": "approve",
      "outputs": [],
      "stateMutability": "nonpayable",
      "type": "function"
    },
    {
      "inputs": [
        {
          "internalType": "address",
          "name": "owner",
          "type": "address"
        }
      ],
      "name": "balanceOf",
      "outputs": [
        {
          "internalType": "uint256",
          "name": "",
          "type": "uint256"
        }
      ],
      "stateMutability": "view",
      "type": "function"
    },
    {
      "inputs": [
        {
          "internalType": "uint256[]",
          "name": "tokenIds",
          "type": "uint256[]"
        }
      ],
      "name": "burn",
      "outputs": [],
      "stateMutability": "nonpayable",
      "type": "function"
    },
    {
      "inputs": [
        {
          "internalType": "uint256",
          "name": "tokenId",
          "type": "uint256"
        }
      ],
      "name": "getActiveState",
      "outputs": [
        {
          "internalType": "bool",
          "name": "",
          "type": "bool"
        }
      ],
      "stateMutability": "view",
      "type": "function"
    },
    {
      "inputs": [
        {
          "internalType": "uint256",
          "name": "tokenId",
          "type": "uint256"
        }
      ],
      "name": "getApproved",
      "outputs": [
        {
          "internalType": "address",
          "name": "",
          "type": "address"
        }
      ],
      "stateMutability": "view",
      "type": "function"
    },
    {
      "inputs": [],
      "name": "getCap",
      "outputs": [
        {
          "internalType": "uint256",
          "name": "",
          "type": "uint256"
        }
      ],
      "stateMutability": "view",
      "type": "function"
    },
    {
      "inputs": [],
      "name": "getLTVBoost",
      "outputs": [
        {
          "internalType": "uint256",
          "name": "",
          "type": "uint256"
        }
      ],
      "stateMutability": "view",
      "type": "function"
    },
    {
      "inputs": [
        {
          "internalType": "uint256",
          "name": "locktime",
          "type": "uint256"
        }
      ],
      "name": "getNativeTokenReward",
      "outputs": [
        {
          "internalType": "uint256",
          "name": "",
          "type": "uint256"
        }
      ],
      "stateMutability": "view",
      "type": "function"
    },
    {
      "inputs": [],
      "name": "getPrice",
      "outputs": [
        {
          "internalType": "uint256",
          "name": "",
          "type": "uint256"
        }
      ],
      "stateMutability": "view",
      "type": "function"
    },
    {
      "inputs": [
        {
          "internalType": "uint256",
          "name": "tokenId",
          "type": "uint256"
        }
      ],
      "name": "getRewards",
      "outputs": [
        {
          "internalType": "uint256",
          "name": "",
          "type": "uint256"
        }
      ],
      "stateMutability": "view",
      "type": "function"
    },
    {
      "inputs": [
        {
          "internalType": "uint256",
          "name": "tokenId",
          "type": "uint256"
        }
      ],
      "name": "getUnlockTimestamp",
      "outputs": [
        {
          "internalType": "uint256",
          "name": "",
          "type": "uint256"
        }
      ],
      "stateMutability": "view",
      "type": "function"
    },
    {
      "inputs": [
        {
          "internalType": "contract IAddressesProvider",
          "name": "addressProvider",
          "type": "address"
        },
        {
          "internalType": "string",
          "name": "name",
          "type": "string"
        },
        {
          "internalType": "string",
          "name": "symbol",
          "type": "string"
        },
        {
          "internalType": "uint256",
          "name": "cap",
          "type": "uint256"
        },
        {
          "internalType": "uint256",
          "name": "price",
          "type": "uint256"
        },
        {
          "internalType": "uint256",
          "name": "ltvBoost",
          "type": "uint256"
        },
        {
          "internalType": "uint256",
          "name": "nativeTokenFactor",
          "type": "uint256"
        },
        {
          "internalType": "uint256",
          "name": "maxLocktime",
          "type": "uint256"
        },
        {
          "internalType": "uint256",
          "name": "minLocktime",
          "type": "uint256"
        },
        {
          "internalType": "address payable",
          "name": "devAddress",
          "type": "address"
        }
      ],
      "name": "initialize",
      "outputs": [],
      "stateMutability": "nonpayable",
      "type": "function"
    },
    {
      "inputs": [
        {
          "internalType": "address",
          "name": "owner",
          "type": "address"
        },
        {
          "internalType": "address",
          "name": "operator",
          "type": "address"
        }
      ],
      "name": "isApprovedForAll",
      "outputs": [
        {
          "internalType": "bool",
          "name": "",
          "type": "bool"
        }
      ],
      "stateMutability": "view",
      "type": "function"
    },
    {
      "inputs": [
        {
          "internalType": "uint256[]",
          "name": "locktimes",
          "type": "uint256[]"
        },
        {
          "internalType": "string[]",
          "name": "uris",
          "type": "string[]"
        }
      ],
      "name": "mint",
      "outputs": [],
      "stateMutability": "payable",
      "type": "function"
    },
    {
      "inputs": [],
      "name": "mintCount",
      "outputs": [
        {
          "internalType": "uint256",
          "name": "",
          "type": "uint256"
        }
      ],
      "stateMutability": "view",
      "type": "function"
    },
    {
      "inputs": [
        {
          "internalType": "uint256[]",
          "name": "tokenIds",
          "type": "uint256[]"
        }
      ],
      "name": "mintRewards",
      "outputs": [],
      "stateMutability": "nonpayable",
      "type": "function"
    },
    {
      "inputs": [
        {
          "internalType": "uint256",
          "name": "tokenId",
          "type": "uint256"
        }
      ],
      "name": "mintedRewards",
      "outputs": [
        {
          "internalType": "bool",
          "name": "",
          "type": "bool"
        }
      ],
      "stateMutability": "view",
      "type": "function"
    },
    {
      "inputs": [],
      "name": "name",
      "outputs": [
        {
          "internalType": "string",
          "name": "",
          "type": "string"
        }
      ],
      "stateMutability": "view",
      "type": "function"
    },
    {
      "inputs": [],
      "name": "owner",
      "outputs": [
        {
          "internalType": "address",
          "name": "",
          "type": "address"
        }
      ],
      "stateMutability": "view",
      "type": "function"
    },
    {
      "inputs": [
        {
          "internalType": "uint256",
          "name": "tokenId",
          "type": "uint256"
        }
      ],
      "name": "ownerOf",
      "outputs": [
        {
          "internalType": "address",
          "name": "",
          "type": "address"
        }
      ],
      "stateMutability": "view",
      "type": "function"
    },
    {
      "inputs": [],
      "name": "renounceOwnership",
      "outputs": [],
      "stateMutability": "nonpayable",
      "type": "function"
    },
    {
      "inputs": [
        {
          "internalType": "address",
          "name": "from",
          "type": "address"
        },
        {
          "internalType": "address",
          "name": "to",
          "type": "address"
        },
        {
          "internalType": "uint256",
          "name": "tokenId",
          "type": "uint256"
        }
      ],
      "name": "safeTransferFrom",
      "outputs": [],
      "stateMutability": "nonpayable",
      "type": "function"
    },
    {
      "inputs": [
        {
          "internalType": "address",
          "name": "from",
          "type": "address"
        },
        {
          "internalType": "address",
          "name": "to",
          "type": "address"
        },
        {
          "internalType": "uint256",
          "name": "tokenId",
          "type": "uint256"
        },
        {
          "internalType": "bytes",
          "name": "data",
          "type": "bytes"
        }
      ],
      "name": "safeTransferFrom",
      "outputs": [],
      "stateMutability": "nonpayable",
      "type": "function"
    },
    {
      "inputs": [
        {
          "internalType": "uint256",
          "name": "tokenId",
          "type": "uint256"
        },
        {
          "internalType": "bool",
          "name": "newState",
          "type": "bool"
        }
      ],
      "name": "setActiveState",
      "outputs": [],
      "stateMutability": "nonpayable",
      "type": "function"
    },
    {
      "inputs": [
        {
          "internalType": "address",
          "name": "operator",
          "type": "address"
        },
        {
          "internalType": "bool",
          "name": "approved",
          "type": "bool"
        }
      ],
      "name": "setApprovalForAll",
      "outputs": [],
      "stateMutability": "nonpayable",
      "type": "function"
    },
    {
      "inputs": [
        {
          "internalType": "uint256",
          "name": "newLTVBoost",
          "type": "uint256"
        }
      ],
      "name": "setLTVBoost",
      "outputs": [],
      "stateMutability": "nonpayable",
      "type": "function"
    },
    {
      "inputs": [
        {
          "internalType": "address",
          "name": "pool",
          "type": "address"
        }
      ],
      "name": "setTradingPool",
      "outputs": [],
      "stateMutability": "nonpayable",
      "type": "function"
    },
    {
      "inputs": [
        {
          "internalType": "bytes4",
          "name": "interfaceId",
          "type": "bytes4"
        }
      ],
      "name": "supportsInterface",
      "outputs": [
        {
          "internalType": "bool",
          "name": "",
          "type": "bool"
        }
      ],
      "stateMutability": "view",
      "type": "function"
    },
    {
      "inputs": [],
      "name": "symbol",
      "outputs": [
        {
          "internalType": "string",
          "name": "",
          "type": "string"
        }
      ],
      "stateMutability": "view",
      "type": "function"
    },
    {
      "inputs": [
        {
          "internalType": "uint256",
          "name": "index",
          "type": "uint256"
        }
      ],
      "name": "tokenByIndex",
      "outputs": [
        {
          "internalType": "uint256",
          "name": "",
          "type": "uint256"
        }
      ],
      "stateMutability": "view",
      "type": "function"
    },
    {
      "inputs": [
        {
          "internalType": "address",
          "name": "owner",
          "type": "address"
        },
        {
          "internalType": "uint256",
          "name": "index",
          "type": "uint256"
        }
      ],
      "name": "tokenOfOwnerByIndex",
      "outputs": [
        {
          "internalType": "uint256",
          "name": "",
          "type": "uint256"
        }
      ],
      "stateMutability": "view",
      "type": "function"
    },
    {
      "inputs": [
        {
          "internalType": "uint256",
          "name": "tokenId",
          "type": "uint256"
        }
      ],
      "name": "tokenURI",
      "outputs": [
        {
          "internalType": "string",
          "name": "",
          "type": "string"
        }
      ],
      "stateMutability": "view",
      "type": "function"
    },
    {
      "inputs": [],
      "name": "totalSupply",
      "outputs": [
        {
          "internalType": "uint256",
          "name": "",
          "type": "uint256"
        }
      ],
      "stateMutability": "view",
      "type": "function"
    },
    {
      "inputs": [
        {
          "internalType": "address",
          "name": "from",
          "type": "address"
        },
        {
          "internalType": "address",
          "name": "to",
          "type": "address"
        },
        {
          "internalType": "uint256",
          "name": "tokenId",
          "type": "uint256"
        }
      ],
      "name": "transferFrom",
      "outputs": [],
      "stateMutability": "nonpayable",
      "type": "function"
    },
    {
      "inputs": [
        {
          "internalType": "address",
          "name": "newOwner",
          "type": "address"
        }
      ],
      "name": "transferOwnership",
      "outputs": [],
      "stateMutability": "nonpayable",
      "type": "function"
    },
    {
      "stateMutability": "payable",
      "type": "receive"
    }
  ],
  "bytecode": "0x60806040523480156200001157600080fd5b506200001c62000022565b620000e4565b600054610100900460ff16156200008f5760405162461bcd60e51b815260206004820152602760248201527f496e697469616c697a61626c653a20636f6e747261637420697320696e697469604482015266616c697a696e6760c81b606482015260840160405180910390fd5b60005460ff9081161015620000e2576000805460ff191660ff9081179091556040519081527f7f26b83ff96e1f2b6a682f133852f6798a09c465da95921460cefb38474024989060200160405180910390a15b565b613a3a80620000f46000396000f3fe6080604052600436106102085760003560e01c806370cda01a11610118578063b80f55c9116100a0578063ca5144eb1161006f578063ca5144eb146105db578063d482ef9b146105fb578063e985e9c51461061b578063ec399a2714610664578063f2fde38b1461068457600080fd5b8063b80f55c91461055b578063b88d4fde1461057b578063c0d8012c1461059b578063c87b56dd146105bb57600080fd5b80638da5cb5b116100e75780638da5cb5b146104dd57806395d89b41146104fb5780639659867e1461051057806398d5fdca14610525578063a22cb4651461053b57600080fd5b806370cda01a14610475578063715018a61461049557806377830dca146104aa5780638a34711d146104bd57600080fd5b80632f745c591161019b5780635ca67d9b1161016a5780635ca67d9b146103ce5780635e726b98146103e45780636352211e146104045780636de010a41461042457806370a082311461045557600080fd5b80632f745c591461035857806342842e0e146103785780634f6ccce714610398578063554d578d146103b857600080fd5b80630cfb5659116101d75780630cfb5659146102c557806318160ddd146102f957806323b872dd1461031857806329e558981461033857600080fd5b806301ffc9a71461021457806306fdde0314610249578063081812fc1461026b578063095ea7b3146102a357600080fd5b3661020f57005b600080fd5b34801561022057600080fd5b5061023461022f366004612f3f565b6106a4565b60405190151581526020015b60405180910390f35b34801561025557600080fd5b5061025e6106b5565b6040516102409190612fac565b34801561027757600080fd5b5061028b610286366004612fbf565b610747565b6040516001600160a01b039091168152602001610240565b3480156102af57600080fd5b506102c36102be366004612fed565b61076e565b005b3480156102d157600080fd5b506102346102e0366004612fbf565b600090815261016a602052604090206003015460ff1690565b34801561030557600080fd5b506099545b604051908152602001610240565b34801561032457600080fd5b506102c3610333366004613019565b610888565b34801561034457600080fd5b506102c3610353366004613068565b6108b9565b34801561036457600080fd5b5061030a610373366004612fed565b6109b2565b34801561038457600080fd5b506102c3610393366004613019565b610a48565b3480156103a457600080fd5b5061030a6103b3366004612fbf565b610a63565b3480156103c457600080fd5b506101605461030a565b3480156103da57600080fd5b506101675461030a565b3480156103f057600080fd5b5061030a6103ff366004612fbf565b610af6565b34801561041057600080fd5b5061028b61041f366004612fbf565b610b3a565b34801561043057600080fd5b5061023461043f366004612fbf565b6000908152610169602052604090205460ff1690565b34801561046157600080fd5b5061030a610470366004613098565b610b9a565b34801561048157600080fd5b506102c3610490366004613098565b610c20565b3480156104a157600080fd5b506102c3610c4b565b6102c36104b83660046131e3565b610c5f565b3480156104c957600080fd5b5061030a6104d8366004612fbf565b6113ba565b3480156104e957600080fd5b5060fb546001600160a01b031661028b565b34801561050757600080fd5b5061025e6113da565b34801561051c57600080fd5b5061030a6113e9565b34801561053157600080fd5b506101615461030a565b34801561054757600080fd5b506102c36105563660046132ce565b611406565b34801561056757600080fd5b506102c36105763660046132fc565b611411565b34801561058757600080fd5b506102c3610596366004613331565b6116b3565b3480156105a757600080fd5b5061030a6105b6366004612fbf565b6116eb565b3480156105c757600080fd5b5061025e6105d6366004612fbf565b611707565b3480156105e757600080fd5b506102c36105f63660046132fc565b611712565b34801561060757600080fd5b506102c361061636600461340a565b611810565b34801561062757600080fd5b506102346106363660046134de565b6001600160a01b039182166000908152606a6020908152604080832093909416825291909152205460ff1690565b34801561067057600080fd5b506102c361067f366004612fbf565b611a48565b34801561069057600080fd5b506102c361069f366004613098565b611a56565b60006106af82611acc565b92915050565b6060606580546106c49061350c565b80601f01602080910402602001604051908101604052809291908181526020018280546106f09061350c565b801561073d5780601f106107125761010080835404028352916020019161073d565b820191906000526020600020905b81548152906001019060200180831161072057829003601f168201915b5050505050905090565b600061075282611af1565b506000908152606960205260409020546001600160a01b031690565b600061077982610b3a565b9050806001600160a01b0316836001600160a01b0316036107eb5760405162461bcd60e51b815260206004820152602160248201527f4552433732313a20617070726f76616c20746f2063757272656e74206f776e656044820152603960f91b60648201526084015b60405180910390fd5b336001600160a01b038216148061080757506108078133610636565b6108795760405162461bcd60e51b815260206004820152603d60248201527f4552433732313a20617070726f76652063616c6c6572206973206e6f7420746f60448201527f6b656e206f776e6572206f7220617070726f76656420666f7220616c6c00000060648201526084016107e2565b6108838383611b50565b505050565b6108923382611bbe565b6108ae5760405162461bcd60e51b81526004016107e290613546565b610883838383611c3d565b61015f60009054906101000a90046001600160a01b03166001600160a01b03166304d21cee6040518163ffffffff1660e01b8152600401602060405180830381865afa15801561090d573d6000803e3d6000fd5b505050506040513d601f19601f820116820180604052508101906109319190613593565b6001600160a01b0316336001600160a01b0316146109915760405162461bcd60e51b815260206004820152601e60248201527f43616c6c6572206d757374206265204d61726b657420636f6e7472616374000060448201526064016107e2565b60009182526101696020526040909120805460ff1916911515919091179055565b60006109bd83610b9a565b8210610a1f5760405162461bcd60e51b815260206004820152602b60248201527f455243373231456e756d657261626c653a206f776e657220696e646578206f7560448201526a74206f6620626f756e647360a81b60648201526084016107e2565b506001600160a01b03919091166000908152609760209081526040808320938352929052205490565b610883838383604051806020016040528060008152506116b3565b6000610a6e60995490565b8210610ad15760405162461bcd60e51b815260206004820152602c60248201527f455243373231456e756d657261626c653a20676c6f62616c20696e646578206f60448201526b7574206f6620626f756e647360a01b60648201526084016107e2565b60998281548110610ae457610ae46135b0565b90600052602060002001549050919050565b600061016454610b066101685490565b61016054610b1491906135dc565b610b1e90846135ef565b610b289190613606565b6106af90670de0b6b3a76400006135ef565b6000818152606760205260408120546001600160a01b0316806106af5760405162461bcd60e51b8152602060048201526018602482015277115490cdcc8c4e881a5b9d985b1a59081d1bdad95b88125160421b60448201526064016107e2565b60006001600160a01b038216610c045760405162461bcd60e51b815260206004820152602960248201527f4552433732313a2061646472657373207a65726f206973206e6f7420612076616044820152683634b21037bbb732b960b91b60648201526084016107e2565b506001600160a01b031660009081526068602052604090205490565b610c28611dae565b61016580546001600160a01b0319166001600160a01b0392909216919091179055565b610c53611dae565b610c5d6000611e08565b565b610c67611e5a565b8051825114610cb85760405162461bcd60e51b815260206004820152601860248201527f4172726179206c656e67746873206d757374206d61746368000000000000000060448201526064016107e2565b610165546001600160a01b0316610d115760405162461bcd60e51b815260206004820152601d60248201527f496e63656e746976697a656420706f6f6c206973206e6f74207365742e00000060448201526064016107e2565b61016054825161016854610d259190613628565b1115610d6a5760405162461bcd60e51b815260206004820152601460248201527313585e1a5b5d5b4818d85c08195e18d95959195960621b60448201526064016107e2565b6000825161016154610d7c91906135ef565b9050803414610dcd5760405162461bcd60e51b815260206004820152601e60248201527f54782076616c7565206973206e6f7420657175616c20746f207072696365000060448201526064016107e2565b60006003610ddc8360026135ef565b610de69190613606565b9050600061016560009054906101000a90046001600160a01b03166001600160a01b03166314f059796040518163ffffffff1660e01b81526004016040805180830381865afa158015610e3d573d6000803e3d6000fd5b505050506040513d601f19601f82011682018060405250810190610e61919061363b565b80519091506000908103610e8257610e7b83613a986135ef565b9050610ea0565b81516020830151610e9390856135ef565b610e9d9190613606565b90505b61015f60009054906101000a90046001600160a01b03166001600160a01b03166315b9ba5d6040518163ffffffff1660e01b8152600401602060405180830381865afa158015610ef4573d6000803e3d6000fd5b505050506040513d601f19601f82011682018060405250810190610f189190613593565b6001600160a01b0316630a8514c4826040518263ffffffff1660e01b8152600401610f4591815260200190565b600060405180830381600087803b158015610f5f57600080fd5b505af1158015610f73573d6000803e3d6000fd5b5050505061015f60009054906101000a90046001600160a01b03166001600160a01b03166315b9ba5d6040518163ffffffff1660e01b8152600401602060405180830381865afa158015610fcb573d6000803e3d6000fd5b505050506040513d601f19601f82011682018060405250810190610fef9190613593565b6101655460405163095ea7b360e01b81526001600160a01b0391821660048201526024810184905291169063095ea7b3906044016020604051808303816000875af1158015611042573d6000803e3d6000fd5b505050506040513d601f19601f8201168201806040525081019061106691906136bb565b5061016554604080518082018252858152602081018490529051630b4c7e4d60e01b81526000926001600160a01b031691630b4c7e4d9187916110ad9186906004016136fb565b60206040518083038185885af11580156110cb573d6000803e3d6000fd5b50505050506040513d601f19601f820116820180604052508101906110f09190613716565b610166549091506000906001600160a01b031661110d86886135dc565b604051600081818185875af1925050503d8060008114611149576040519150601f19603f3d011682016040523d82523d6000602084013e61114e565b606091505b505090508061119f5760405162461bcd60e51b815260206004820181905260248201527f4661696c656420746f2073656e6420457468657220746f206465762066756e6460448201526064016107e2565b6000805b89518110156113a357610163548a82815181106111c2576111c26135b0565b602002602001015110156112185760405162461bcd60e51b815260206004820181905260248201527f4c6f636b74696d65206973206c6f776572207468616e207468726573686f6c6460448201526064016107e2565b610162548a828151811061122e5761122e6135b0565b602002602001015111156112845760405162461bcd60e51b815260206004820152601d60248201527f4c6f636b74696d6520697320686967686572207468616e206c696d697400000060448201526064016107e2565b6101685491506112943383611eb5565b6112b7828a83815181106112aa576112aa6135b0565b6020026020010151611ecf565b60405180608001604052804281526020018b83815181106112da576112da6135b0565b602002602001015181526020018b51866112f49190613606565b81526000602091820181905284815261016a82526040908190208351815591830151600183015582015160028201556060909101516003909101805491151560ff1990921691909117905561134e61016880546001019055565b7f0f6798a560793a54c3bcfe86a93cde1e73087d944c0ea20544137d412139688533604080516001600160a01b039092168252602082018590520160405180910390a18061139b8161372f565b9150506111a3565b50505050505050506113b6600161012d55565b5050565b600081815261016a60205260408120600181015490546106af9190613628565b6060606680546106c49061350c565b600060016113f76101685490565b61140191906135dc565b905090565b6113b6338383611f62565b611419611e5a565b6000805b825181101561161a5761144883828151811061143b5761143b6135b0565b6020026020010151610b3a565b6001600160a01b0316336001600160a01b0316146114995760405162461bcd60e51b815260206004820152600e60248201526d26bab9ba1037bbb7103a37b5b2b760911b60448201526064016107e2565b6114bb8382815181106114ae576114ae6135b0565b60200260200101516113ba565b4210156115025760405162461bcd60e51b8152602060048201526015602482015274151bdad95b881a5cc81cdd1a5b1b081b1bd8dad959605a1b60448201526064016107e2565b61016a6000848381518110611519576115196135b0565b60209081029190910181015182528101919091526040016000206003015460ff166115615761156133848381518110611554576115546135b0565b6020026020010151612030565b61016a6000848381518110611578576115786135b0565b602002602001015181526020019081526020016000206002015491506115b68382815181106115a9576115a96135b0565b60200260200101516122b9565b7fb90306ad06b2a6ff86ddc9327db583062895ef6540e62dc50add009db5b356eb8382815181106115e9576115e96135b0565b602002602001015160405161160091815260200190565b60405180910390a1806116128161372f565b91505061141d565b5061016554604080518082018252600080825260208201529051633eb1719f60e01b81526001600160a01b0390921691633eb1719f91611661918591903390600401613748565b60408051808303816000875af115801561167f573d6000803e3d6000fd5b505050506040513d601f19601f820116820180604052508101906116a3919061363b565b50506116b0600161012d55565b50565b6116bd3383611bbe565b6116d95760405162461bcd60e51b81526004016107e290613546565b6116e5848484846122c2565b50505050565b600081815261016a60205260408120600101546106af90610af6565b60606106af826122f5565b60005b81518110156113b65761173382828151811061143b5761143b6135b0565b6001600160a01b0316336001600160a01b0316146117845760405162461bcd60e51b815260206004820152600e60248201526d26bab9ba1037bbb7103a37b5b2b760911b60448201526064016107e2565b6117998282815181106114ae576114ae6135b0565b4210156117e85760405162461bcd60e51b815260206004820152601760248201527f546f6b656e7320617265207374696c6c206c6f636b656400000000000000000060448201526064016107e2565b6117fe33838381518110611554576115546135b0565b806118088161372f565b915050611715565b600054610100900460ff16158080156118305750600054600160ff909116105b8061184a5750303b15801561184a575060005460ff166001145b6118ad5760405162461bcd60e51b815260206004820152602e60248201527f496e697469616c697a61626c653a20636f6e747261637420697320616c72656160448201526d191e481a5b9a5d1a585b1a5e995960921b60648201526084016107e2565b6000805460ff1916600117905580156118d0576000805461ff0019166101001790555b6118d861240c565b6118e0612433565b6119648c8c8080601f016020809104026020016040519081016040528093929190818152602001838380828437600081840152601f19601f820116905080830192505050505050508b8b8080601f01602080910402602001604051908101604052809392919081815260200183838082843760009201919091525061246292505050565b8c61015f60006101000a8154816001600160a01b0302191690836001600160a01b031602179055508761016081905550866101618190555085610167819055508461016481905550836101628190555082610163819055508161016660006101000a8154816001600160a01b0302191690836001600160a01b031602179055506119f361016880546001019055565b8015611a39576000805461ff0019169055604051600181527f7f26b83ff96e1f2b6a682f133852f6798a09c465da95921460cefb38474024989060200160405180910390a15b50505050505050505050505050565b611a50611dae565b61016755565b611a5e611dae565b6001600160a01b038116611ac35760405162461bcd60e51b815260206004820152602660248201527f4f776e61626c653a206e6577206f776e657220697320746865207a65726f206160448201526564647265737360d01b60648201526084016107e2565b6116b081611e08565b60006001600160e01b0319821663780e9d6360e01b14806106af57506106af82612493565b6000818152606760205260409020546001600160a01b03166116b05760405162461bcd60e51b8152602060048201526018602482015277115490cdcc8c4e881a5b9d985b1a59081d1bdad95b88125160421b60448201526064016107e2565b600081815260696020526040902080546001600160a01b0319166001600160a01b0384169081179091558190611b8582610b3a565b6001600160a01b03167f8c5be1e5ebec7d5bd14f71427d1e84f3dd0314c0f7b2291e5b200ac8c7c3b92560405160405180910390a45050565b600080611bca83610b3a565b9050806001600160a01b0316846001600160a01b03161480611c1157506001600160a01b038082166000908152606a602090815260408083209388168352929052205460ff165b80611c355750836001600160a01b0316611c2a84610747565b6001600160a01b0316145b949350505050565b826001600160a01b0316611c5082610b3a565b6001600160a01b031614611c765760405162461bcd60e51b81526004016107e290613775565b6001600160a01b038216611cd85760405162461bcd60e51b8152602060048201526024808201527f4552433732313a207472616e7366657220746f20746865207a65726f206164646044820152637265737360e01b60648201526084016107e2565b611ce583838360016124e3565b826001600160a01b0316611cf882610b3a565b6001600160a01b031614611d1e5760405162461bcd60e51b81526004016107e290613775565b600081815260696020908152604080832080546001600160a01b03199081169091556001600160a01b0387811680865260688552838620805460001901905590871680865283862080546001019055868652606790945282852080549092168417909155905184937fddf252ad1be2c89b69c2b068fc378daa952ba7f163c4a11628f55a4df523b3ef91a4505050565b60fb546001600160a01b03163314610c5d5760405162461bcd60e51b815260206004820181905260248201527f4f776e61626c653a2063616c6c6572206973206e6f7420746865206f776e657260448201526064016107e2565b60fb80546001600160a01b038381166001600160a01b0319831681179093556040519116919082907f8be0079c531659141344cd1fd0a4f28419497f9722a3daafe3b4186f6b6457e090600090a35050565b600261012d5403611ead5760405162461bcd60e51b815260206004820152601f60248201527f5265656e7472616e637947756172643a207265656e7472616e742063616c6c0060448201526064016107e2565b600261012d55565b6113b6828260405180602001604052806000815250612575565b6000828152606760205260409020546001600160a01b0316611f4a5760405162461bcd60e51b815260206004820152602e60248201527f45524337323155524953746f726167653a2055524920736574206f66206e6f6e60448201526d32bc34b9ba32b73a103a37b5b2b760911b60648201526084016107e2565b600082815260c9602052604090206108838282613808565b816001600160a01b0316836001600160a01b031603611fc35760405162461bcd60e51b815260206004820152601960248201527f4552433732313a20617070726f766520746f2063616c6c65720000000000000060448201526064016107e2565b6001600160a01b038381166000818152606a6020908152604080832094871680845294825291829020805460ff191686151590811790915591519182527f17307eab39ab6107e8899845ad3d59bd9653f200f220920489ca2b5937696c31910160405180910390a3505050565b600081815261016a602052604090206003015460ff161561208c5760405162461bcd60e51b815260206004820152601660248201527514995dd85c991cc8185b1c9958591e481b5a5b9d195960521b60448201526064016107e2565b61015f60009054906101000a90046001600160a01b03166001600160a01b03166315b9ba5d6040518163ffffffff1660e01b8152600401602060405180830381865afa1580156120e0573d6000803e3d6000fd5b505050506040513d601f19601f820116820180604052508101906121049190613593565b6001600160a01b0316630a8514c461213261016a600085815260200190815260200160002060010154610af6565b6040518263ffffffff1660e01b815260040161215091815260200190565b600060405180830381600087803b15801561216a57600080fd5b505af115801561217e573d6000803e3d6000fd5b5050505061015f60009054906101000a90046001600160a01b03166001600160a01b03166315b9ba5d6040518163ffffffff1660e01b8152600401602060405180830381865afa1580156121d6573d6000803e3d6000fd5b505050506040513d601f19601f820116820180604052508101906121fa9190613593565b6001600160a01b031663a9059cbb8361222961016a600086815260200190815260200160002060010154610af6565b6040516001600160e01b031960e085901b1681526001600160a01b03909216600483015260248201526044016020604051808303816000875af1158015612274573d6000803e3d6000fd5b505050506040513d601f19601f8201168201806040525081019061229891906136bb565b50600090815261016a60205260409020600301805460ff1916600117905550565b6116b0816125a8565b6122cd848484611c3d565b6122d9848484846125e8565b6116e55760405162461bcd60e51b81526004016107e2906138c8565b606061230082611af1565b600082815260c96020526040812080546123199061350c565b80601f01602080910402602001604051908101604052809291908181526020018280546123459061350c565b80156123925780601f1061236757610100808354040283529160200191612392565b820191906000526020600020905b81548152906001019060200180831161237557829003601f168201915b5050505050905060006123bf604080518082019091526007815266697066733a2f2f60c81b602082015290565b905080516000036123d1575092915050565b8151156124035780826040516020016123eb92919061391a565b60405160208183030381529060405292505050919050565b611c35846126e9565b600054610100900460ff16610c5d5760405162461bcd60e51b81526004016107e290613949565b600054610100900460ff1661245a5760405162461bcd60e51b81526004016107e290613949565b610c5d61276c565b600054610100900460ff166124895760405162461bcd60e51b81526004016107e290613949565b6113b6828261279c565b60006001600160e01b031982166380ac58cd60e01b14806124c457506001600160e01b03198216635b5e139f60e01b145b806106af57506301ffc9a760e01b6001600160e01b03198316146106af565b6000828152610169602052604090205460ff16156125695760405162461bcd60e51b815260206004820152603a60248201527f43616e6e6f74207472616e7366657220746f6b656e202d2063757272656e746c60448201527f79206c6f636b656420696e20616e20616374697665206c6f616e00000000000060648201526084016107e2565b6116e5848484846127dc565b61257f838361291c565b61258c60008484846125e8565b6108835760405162461bcd60e51b81526004016107e2906138c8565b6125b181612ab5565b600081815260c96020526040902080546125ca9061350c565b1590506116b057600081815260c9602052604081206116b091612edb565b60006001600160a01b0384163b156126de57604051630a85bd0160e11b81526001600160a01b0385169063150b7a029061262c903390899088908890600401613994565b6020604051808303816000875af1925050508015612667575060408051601f3d908101601f19168201909252612664918101906139d1565b60015b6126c4573d808015612695576040519150601f19603f3d011682016040523d82523d6000602084013e61269a565b606091505b5080516000036126bc5760405162461bcd60e51b81526004016107e2906138c8565b805181602001fd5b6001600160e01b031916630a85bd0160e11b149050611c35565b506001949350505050565b60606126f482611af1565b600061271a604080518082019091526007815266697066733a2f2f60c81b602082015290565b9050600081511161273a5760405180602001604052806000815250612765565b8061274484612b58565b60405160200161275592919061391a565b6040516020818303038152906040525b9392505050565b600054610100900460ff166127935760405162461bcd60e51b81526004016107e290613949565b610c5d33611e08565b600054610100900460ff166127c35760405162461bcd60e51b81526004016107e290613949565b60656127cf8382613808565b5060666108838282613808565b6127e884848484612beb565b60018111156128575760405162461bcd60e51b815260206004820152603560248201527f455243373231456e756d657261626c653a20636f6e7365637574697665207472604482015274185b9cd9995c9cc81b9bdd081cdd5c1c1bdc9d1959605a1b60648201526084016107e2565b816001600160a01b0385166128b3576128ae81609980546000838152609a60205260408120829055600182018355919091527f72a152ddfb8e864297c917af52ea6c1c68aead0fee1a62673fcc7e0c94979d000155565b6128d6565b836001600160a01b0316856001600160a01b0316146128d6576128d68582612c73565b6001600160a01b0384166128f2576128ed81612d10565b612915565b846001600160a01b0316846001600160a01b031614612915576129158482612dbf565b5050505050565b6001600160a01b0382166129725760405162461bcd60e51b815260206004820181905260248201527f4552433732313a206d696e7420746f20746865207a65726f206164647265737360448201526064016107e2565b6000818152606760205260409020546001600160a01b0316156129d75760405162461bcd60e51b815260206004820152601c60248201527f4552433732313a20746f6b656e20616c7265616479206d696e7465640000000060448201526064016107e2565b6129e56000838360016124e3565b6000818152606760205260409020546001600160a01b031615612a4a5760405162461bcd60e51b815260206004820152601c60248201527f4552433732313a20746f6b656e20616c7265616479206d696e7465640000000060448201526064016107e2565b6001600160a01b038216600081815260686020908152604080832080546001019055848352606790915280822080546001600160a01b0319168417905551839291907fddf252ad1be2c89b69c2b068fc378daa952ba7f163c4a11628f55a4df523b3ef908290a45050565b6000612ac082610b3a565b9050612ad08160008460016124e3565b612ad982610b3a565b600083815260696020908152604080832080546001600160a01b03199081169091556001600160a01b0385168085526068845282852080546000190190558785526067909352818420805490911690555192935084927fddf252ad1be2c89b69c2b068fc378daa952ba7f163c4a11628f55a4df523b3ef908390a45050565b60606000612b6583612e03565b600101905060008167ffffffffffffffff811115612b8557612b856130b5565b6040519080825280601f01601f191660200182016040528015612baf576020820181803683370190505b5090508181016020015b600019016f181899199a1a9b1b9c1cb0b131b232b360811b600a86061a8153600a8504945084612bb957509392505050565b60018111156116e5576001600160a01b03841615612c31576001600160a01b03841660009081526068602052604081208054839290612c2b9084906135dc565b90915550505b6001600160a01b038316156116e5576001600160a01b03831660009081526068602052604081208054839290612c68908490613628565b909155505050505050565b60006001612c8084610b9a565b612c8a91906135dc565b600083815260986020526040902054909150808214612cdd576001600160a01b03841660009081526097602090815260408083208584528252808320548484528184208190558352609890915290208190555b5060009182526098602090815260408084208490556001600160a01b039094168352609781528383209183525290812055565b609954600090612d22906001906135dc565b6000838152609a602052604081205460998054939450909284908110612d4a57612d4a6135b0565b906000526020600020015490508060998381548110612d6b57612d6b6135b0565b6000918252602080832090910192909255828152609a90915260408082208490558582528120556099805480612da357612da36139ee565b6001900381819060005260206000200160009055905550505050565b6000612dca83610b9a565b6001600160a01b039093166000908152609760209081526040808320868452825280832085905593825260989052919091209190915550565b60008072184f03e93ff9f4daa797ed6e38ed64bf6a1f0160401b8310612e425772184f03e93ff9f4daa797ed6e38ed64bf6a1f0160401b830492506040015b6d04ee2d6d415b85acef81000000008310612e6e576d04ee2d6d415b85acef8100000000830492506020015b662386f26fc100008310612e8c57662386f26fc10000830492506010015b6305f5e1008310612ea4576305f5e100830492506008015b6127108310612eb857612710830492506004015b60648310612eca576064830492506002015b600a83106106af5760010192915050565b508054612ee79061350c565b6000825580601f10612ef7575050565b601f0160209004906000526020600020908101906116b091905b80821115612f255760008155600101612f11565b5090565b6001600160e01b0319811681146116b057600080fd5b600060208284031215612f5157600080fd5b813561276581612f29565b60005b83811015612f77578181015183820152602001612f5f565b50506000910152565b60008151808452612f98816020860160208601612f5c565b601f01601f19169290920160200192915050565b6020815260006127656020830184612f80565b600060208284031215612fd157600080fd5b5035919050565b6001600160a01b03811681146116b057600080fd5b6000806040838503121561300057600080fd5b823561300b81612fd8565b946020939093013593505050565b60008060006060848603121561302e57600080fd5b833561303981612fd8565b9250602084013561304981612fd8565b929592945050506040919091013590565b80151581146116b057600080fd5b6000806040838503121561307b57600080fd5b82359150602083013561308d8161305a565b809150509250929050565b6000602082840312156130aa57600080fd5b813561276581612fd8565b634e487b7160e01b600052604160045260246000fd5b604051601f8201601f1916810167ffffffffffffffff811182821017156130f4576130f46130b5565b604052919050565b600067ffffffffffffffff821115613116576131166130b5565b5060051b60200190565b600082601f83011261313157600080fd5b81356020613146613141836130fc565b6130cb565b82815260059290921b8401810191818101908684111561316557600080fd5b8286015b848110156131805780358352918301918301613169565b509695505050505050565b600067ffffffffffffffff8311156131a5576131a56130b5565b6131b8601f8401601f19166020016130cb565b90508281528383830111156131cc57600080fd5b828260208301376000602084830101529392505050565b60008060408084860312156131f757600080fd5b833567ffffffffffffffff8082111561320f57600080fd5b61321b87838801613120565b945060209150818601358181111561323257600080fd5b8601601f8101881361324357600080fd5b8035613251613141826130fc565b81815260059190911b8201840190848101908a83111561327057600080fd5b8584015b838110156132bc5780358681111561328c5760008081fd5b8501603f81018d1361329e5760008081fd5b6132ae8d898301358b840161318b565b845250918601918601613274565b50809750505050505050509250929050565b600080604083850312156132e157600080fd5b82356132ec81612fd8565b9150602083013561308d8161305a565b60006020828403121561330e57600080fd5b813567ffffffffffffffff81111561332557600080fd5b611c3584828501613120565b6000806000806080858703121561334757600080fd5b843561335281612fd8565b9350602085013561336281612fd8565b925060408501359150606085013567ffffffffffffffff81111561338557600080fd5b8501601f8101871361339657600080fd5b6133a58782356020840161318b565b91505092959194509250565b80356133bc81612fd8565b919050565b60008083601f8401126133d357600080fd5b50813567ffffffffffffffff8111156133eb57600080fd5b60208301915083602082850101111561340357600080fd5b9250929050565b6000806000806000806000806000806000806101408d8f03121561342d57600080fd5b6134368d6133b1565b9b5067ffffffffffffffff60208e0135111561345157600080fd5b6134618e60208f01358f016133c1565b909b50995067ffffffffffffffff60408e0135111561347f57600080fd5b61348f8e60408f01358f016133c1565b909950975060608d0135965060808d0135955060a08d0135945060c08d0135935060e08d013592506101008d013591506134cc6101208e016133b1565b90509295989b509295989b509295989b565b600080604083850312156134f157600080fd5b82356134fc81612fd8565b9150602083013561308d81612fd8565b600181811c9082168061352057607f821691505b60208210810361354057634e487b7160e01b600052602260045260246000fd5b50919050565b6020808252602d908201527f4552433732313a2063616c6c6572206973206e6f7420746f6b656e206f776e6560408201526c1c881bdc88185c1c1c9bdd9959609a1b606082015260800190565b6000602082840312156135a557600080fd5b815161276581612fd8565b634e487b7160e01b600052603260045260246000fd5b634e487b7160e01b600052601160045260246000fd5b818103818111156106af576106af6135c6565b80820281158282048414176106af576106af6135c6565b60008261362357634e487b7160e01b600052601260045260246000fd5b500490565b808201808211156106af576106af6135c6565b60006040828403121561364d57600080fd5b82601f83011261365c57600080fd5b6040516040810181811067ffffffffffffffff8211171561367f5761367f6130b5565b806040525080604084018581111561369657600080fd5b845b818110156136b0578051835260209283019201613698565b509195945050505050565b6000602082840312156136cd57600080fd5b81516127658161305a565b8060005b60028110156116e55781518452602093840193909101906001016136dc565b6060810161370982856136d8565b8260408301529392505050565b60006020828403121561372857600080fd5b5051919050565b600060018201613741576137416135c6565b5060010190565b8381526080810161375c60208301856136d8565b6001600160a01b03929092166060919091015292915050565b60208082526025908201527f4552433732313a207472616e736665722066726f6d20696e636f72726563742060408201526437bbb732b960d91b606082015260800190565b601f82111561088357600081815260208120601f850160051c810160208610156137e15750805b601f850160051c820191505b81811015613800578281556001016137ed565b505050505050565b815167ffffffffffffffff811115613822576138226130b5565b61383681613830845461350c565b846137ba565b602080601f83116001811461386b57600084156138535750858301515b600019600386901b1c1916600185901b178555613800565b600085815260208120601f198616915b8281101561389a5788860151825594840194600190910190840161387b565b50858210156138b85787850151600019600388901b60f8161c191681555b5050505050600190811b01905550565b60208082526032908201527f4552433732313a207472616e7366657220746f206e6f6e20455243373231526560408201527131b2b4bb32b91034b6b83632b6b2b73a32b960711b606082015260800190565b6000835161392c818460208801612f5c565b835190830190613940818360208801612f5c565b01949350505050565b6020808252602b908201527f496e697469616c697a61626c653a20636f6e7472616374206973206e6f74206960408201526a6e697469616c697a696e6760a81b606082015260800190565b6001600160a01b03858116825284166020820152604081018390526080606082018190526000906139c790830184612f80565b9695505050505050565b6000602082840312156139e357600080fd5b815161276581612f29565b634e487b7160e01b600052603160045260246000fdfea264697066735822122069a9c3b4c86251a4459e9d6a1e633eb24ba770c131c8a2cf824a7cee1843aa9b64736f6c63430008110033",
  "linkReferences": {},
  "deployedLinkReferences": {}
}