{
  "_format": "hh-sol-artifact-1",
  "contractName": "GenesisNFT",
  "sourceName": "contracts/protocol/GenesisNFT.sol",
  "abi": [
    {
      "inputs": [],
      "stateMutability": "nonpayable",
      "type": "constructor"
    },
    {
      "anonymous": false,
      "inputs": [
        {
          "indexed": true,
          "internalType": "address",
          "name": "owner",
          "type": "address"
        },
        {
          "indexed": true,
          "internalType": "address",
          "name": "approved",
          "type": "address"
        },
        {
          "indexed": true,
          "internalType": "uint256",
          "name": "tokenId",
          "type": "uint256"
        }
      ],
      "name": "Approval",
      "type": "event"
    },
    {
      "anonymous": false,
      "inputs": [
        {
          "indexed": true,
          "internalType": "address",
          "name": "owner",
          "type": "address"
        },
        {
          "indexed": true,
          "internalType": "address",
          "name": "operator",
          "type": "address"
        },
        {
          "indexed": false,
          "internalType": "bool",
          "name": "approved",
          "type": "bool"
        }
      ],
      "name": "ApprovalForAll",
      "type": "event"
    },
    {
      "anonymous": false,
      "inputs": [
        {
          "indexed": false,
          "internalType": "uint256",
          "name": "tokenId",
          "type": "uint256"
        }
      ],
      "name": "Burn",
      "type": "event"
    },
    {
      "anonymous": false,
      "inputs": [
        {
          "indexed": false,
          "internalType": "uint8",
          "name": "version",
          "type": "uint8"
        }
      ],
      "name": "Initialized",
      "type": "event"
    },
    {
      "anonymous": false,
      "inputs": [
        {
          "indexed": false,
          "internalType": "address",
          "name": "owner",
          "type": "address"
        },
        {
          "indexed": false,
          "internalType": "uint256",
          "name": "tokenId",
          "type": "uint256"
        }
      ],
      "name": "Mint",
      "type": "event"
    },
    {
      "anonymous": false,
      "inputs": [
        {
          "indexed": true,
          "internalType": "address",
          "name": "previousOwner",
          "type": "address"
        },
        {
          "indexed": true,
          "internalType": "address",
          "name": "newOwner",
          "type": "address"
        }
      ],
      "name": "OwnershipTransferred",
      "type": "event"
    },
    {
      "anonymous": false,
      "inputs": [
        {
          "indexed": true,
          "internalType": "address",
          "name": "from",
          "type": "address"
        },
        {
          "indexed": true,
          "internalType": "address",
          "name": "to",
          "type": "address"
        },
        {
          "indexed": true,
          "internalType": "uint256",
          "name": "tokenId",
          "type": "uint256"
        }
      ],
      "name": "Transfer",
      "type": "event"
    },
    {
      "inputs": [
        {
          "internalType": "address",
          "name": "to",
          "type": "address"
        },
        {
          "internalType": "uint256",
          "name": "tokenId",
          "type": "uint256"
        }
      ],
      "name": "approve",
      "outputs": [],
      "stateMutability": "nonpayable",
      "type": "function"
    },
    {
      "inputs": [
        {
          "internalType": "address",
          "name": "owner",
          "type": "address"
        }
      ],
      "name": "balanceOf",
      "outputs": [
        {
          "internalType": "uint256",
          "name": "",
          "type": "uint256"
        }
      ],
      "stateMutability": "view",
      "type": "function"
    },
    {
      "inputs": [
        {
          "internalType": "uint256[]",
          "name": "tokenIds",
          "type": "uint256[]"
        }
      ],
      "name": "burn",
      "outputs": [],
      "stateMutability": "nonpayable",
      "type": "function"
    },
    {
      "inputs": [
        {
          "internalType": "uint256",
          "name": "tokenId",
          "type": "uint256"
        }
      ],
      "name": "getActiveState",
      "outputs": [
        {
          "internalType": "bool",
          "name": "",
          "type": "bool"
        }
      ],
      "stateMutability": "view",
      "type": "function"
    },
    {
      "inputs": [
        {
          "internalType": "uint256",
          "name": "tokenId",
          "type": "uint256"
        }
      ],
      "name": "getApproved",
      "outputs": [
        {
          "internalType": "address",
          "name": "",
          "type": "address"
        }
      ],
      "stateMutability": "view",
      "type": "function"
    },
    {
      "inputs": [],
      "name": "getCap",
      "outputs": [
        {
          "internalType": "uint256",
          "name": "",
          "type": "uint256"
        }
      ],
      "stateMutability": "view",
      "type": "function"
    },
    {
      "inputs": [],
      "name": "getLTVBoost",
      "outputs": [
        {
          "internalType": "uint256",
          "name": "",
          "type": "uint256"
        }
      ],
      "stateMutability": "view",
      "type": "function"
    },
    {
      "inputs": [
        {
          "internalType": "uint256",
          "name": "amount",
          "type": "uint256"
        },
        {
          "internalType": "uint256",
          "name": "locktime",
          "type": "uint256"
        }
      ],
      "name": "getNativeTokenReward",
      "outputs": [
        {
          "internalType": "uint256",
          "name": "",
          "type": "uint256"
        }
      ],
      "stateMutability": "view",
      "type": "function"
    },
    {
      "inputs": [],
      "name": "getPrice",
      "outputs": [
        {
          "internalType": "uint256",
          "name": "",
          "type": "uint256"
        }
      ],
      "stateMutability": "view",
      "type": "function"
    },
    {
      "inputs": [
        {
          "internalType": "uint256",
          "name": "tokenId",
          "type": "uint256"
        }
      ],
      "name": "getUnlockTimestamp",
      "outputs": [
        {
          "internalType": "uint256",
          "name": "",
          "type": "uint256"
        }
      ],
      "stateMutability": "view",
      "type": "function"
    },
    {
      "inputs": [
        {
          "internalType": "contract IAddressesProvider",
          "name": "addressProvider",
          "type": "address"
        },
        {
          "internalType": "string",
          "name": "name",
          "type": "string"
        },
        {
          "internalType": "string",
          "name": "symbol",
          "type": "string"
        },
        {
          "internalType": "uint256",
          "name": "cap",
          "type": "uint256"
        },
        {
          "internalType": "uint256",
          "name": "price",
          "type": "uint256"
        },
        {
          "internalType": "uint256",
          "name": "ltvBoost",
          "type": "uint256"
        },
        {
          "internalType": "uint256",
          "name": "nativeTokenFactor",
          "type": "uint256"
        },
        {
          "internalType": "uint256",
          "name": "maxLocktime",
          "type": "uint256"
        },
        {
          "internalType": "uint256",
          "name": "minLocktime",
          "type": "uint256"
        },
        {
          "internalType": "address payable",
          "name": "devAddress",
          "type": "address"
        }
      ],
      "name": "initialize",
      "outputs": [],
      "stateMutability": "nonpayable",
      "type": "function"
    },
    {
      "inputs": [
        {
          "internalType": "address",
          "name": "owner",
          "type": "address"
        },
        {
          "internalType": "address",
          "name": "operator",
          "type": "address"
        }
      ],
      "name": "isApprovedForAll",
      "outputs": [
        {
          "internalType": "bool",
          "name": "",
          "type": "bool"
        }
      ],
      "stateMutability": "view",
      "type": "function"
    },
    {
      "inputs": [
        {
          "internalType": "uint256",
          "name": "locktime",
          "type": "uint256"
        },
        {
          "internalType": "string[]",
          "name": "uris",
          "type": "string[]"
        }
      ],
      "name": "mint",
      "outputs": [],
      "stateMutability": "payable",
      "type": "function"
    },
    {
      "inputs": [],
      "name": "mintCount",
      "outputs": [
        {
          "internalType": "uint256",
          "name": "",
          "type": "uint256"
        }
      ],
      "stateMutability": "view",
      "type": "function"
    },
    {
      "inputs": [],
      "name": "name",
      "outputs": [
        {
          "internalType": "string",
          "name": "",
          "type": "string"
        }
      ],
      "stateMutability": "view",
      "type": "function"
    },
    {
      "inputs": [],
      "name": "owner",
      "outputs": [
        {
          "internalType": "address",
          "name": "",
          "type": "address"
        }
      ],
      "stateMutability": "view",
      "type": "function"
    },
    {
      "inputs": [
        {
          "internalType": "uint256",
          "name": "tokenId",
          "type": "uint256"
        }
      ],
      "name": "ownerOf",
      "outputs": [
        {
          "internalType": "address",
          "name": "",
          "type": "address"
        }
      ],
      "stateMutability": "view",
      "type": "function"
    },
    {
      "inputs": [],
      "name": "renounceOwnership",
      "outputs": [],
      "stateMutability": "nonpayable",
      "type": "function"
    },
    {
      "inputs": [
        {
          "internalType": "address",
          "name": "from",
          "type": "address"
        },
        {
          "internalType": "address",
          "name": "to",
          "type": "address"
        },
        {
          "internalType": "uint256",
          "name": "tokenId",
          "type": "uint256"
        }
      ],
      "name": "safeTransferFrom",
      "outputs": [],
      "stateMutability": "nonpayable",
      "type": "function"
    },
    {
      "inputs": [
        {
          "internalType": "address",
          "name": "from",
          "type": "address"
        },
        {
          "internalType": "address",
          "name": "to",
          "type": "address"
        },
        {
          "internalType": "uint256",
          "name": "tokenId",
          "type": "uint256"
        },
        {
          "internalType": "bytes",
          "name": "data",
          "type": "bytes"
        }
      ],
      "name": "safeTransferFrom",
      "outputs": [],
      "stateMutability": "nonpayable",
      "type": "function"
    },
    {
      "inputs": [
        {
          "internalType": "uint256",
          "name": "tokenId",
          "type": "uint256"
        },
        {
          "internalType": "bool",
          "name": "newState",
          "type": "bool"
        }
      ],
      "name": "setActiveState",
      "outputs": [],
      "stateMutability": "nonpayable",
      "type": "function"
    },
    {
      "inputs": [
        {
          "internalType": "address",
          "name": "operator",
          "type": "address"
        },
        {
          "internalType": "bool",
          "name": "approved",
          "type": "bool"
        }
      ],
      "name": "setApprovalForAll",
      "outputs": [],
      "stateMutability": "nonpayable",
      "type": "function"
    },
    {
      "inputs": [
        {
          "internalType": "uint256",
          "name": "newLTVBoost",
          "type": "uint256"
        }
      ],
      "name": "setLTVBoost",
      "outputs": [],
      "stateMutability": "nonpayable",
      "type": "function"
    },
    {
      "inputs": [
        {
          "internalType": "address",
          "name": "pool",
          "type": "address"
        }
      ],
      "name": "setTradingPool",
      "outputs": [],
      "stateMutability": "nonpayable",
      "type": "function"
    },
    {
      "inputs": [
        {
          "internalType": "bytes4",
          "name": "interfaceId",
          "type": "bytes4"
        }
      ],
      "name": "supportsInterface",
      "outputs": [
        {
          "internalType": "bool",
          "name": "",
          "type": "bool"
        }
      ],
      "stateMutability": "view",
      "type": "function"
    },
    {
      "inputs": [],
      "name": "symbol",
      "outputs": [
        {
          "internalType": "string",
          "name": "",
          "type": "string"
        }
      ],
      "stateMutability": "view",
      "type": "function"
    },
    {
      "inputs": [
        {
          "internalType": "uint256",
          "name": "index",
          "type": "uint256"
        }
      ],
      "name": "tokenByIndex",
      "outputs": [
        {
          "internalType": "uint256",
          "name": "",
          "type": "uint256"
        }
      ],
      "stateMutability": "view",
      "type": "function"
    },
    {
      "inputs": [
        {
          "internalType": "address",
          "name": "owner",
          "type": "address"
        },
        {
          "internalType": "uint256",
          "name": "index",
          "type": "uint256"
        }
      ],
      "name": "tokenOfOwnerByIndex",
      "outputs": [
        {
          "internalType": "uint256",
          "name": "",
          "type": "uint256"
        }
      ],
      "stateMutability": "view",
      "type": "function"
    },
    {
      "inputs": [
        {
          "internalType": "uint256",
          "name": "tokenId",
          "type": "uint256"
        }
      ],
      "name": "tokenURI",
      "outputs": [
        {
          "internalType": "string",
          "name": "",
          "type": "string"
        }
      ],
      "stateMutability": "view",
      "type": "function"
    },
    {
      "inputs": [],
      "name": "totalSupply",
      "outputs": [
        {
          "internalType": "uint256",
          "name": "",
          "type": "uint256"
        }
      ],
      "stateMutability": "view",
      "type": "function"
    },
    {
      "inputs": [
        {
          "internalType": "address",
          "name": "from",
          "type": "address"
        },
        {
          "internalType": "address",
          "name": "to",
          "type": "address"
        },
        {
          "internalType": "uint256",
          "name": "tokenId",
          "type": "uint256"
        }
      ],
      "name": "transferFrom",
      "outputs": [],
      "stateMutability": "nonpayable",
      "type": "function"
    },
    {
      "inputs": [
        {
          "internalType": "address",
          "name": "newOwner",
          "type": "address"
        }
      ],
      "name": "transferOwnership",
      "outputs": [],
      "stateMutability": "nonpayable",
      "type": "function"
    },
    {
      "stateMutability": "payable",
      "type": "receive"
    }
  ],
  "bytecode": "0x60806040523480156200001157600080fd5b506200001c62000022565b620000e4565b600054610100900460ff16156200008f5760405162461bcd60e51b815260206004820152602760248201527f496e697469616c697a61626c653a20636f6e747261637420697320696e697469604482015266616c697a696e6760c81b606482015260840160405180910390fd5b60005460ff9081161015620000e2576000805460ff191660ff9081179091556040519081527f7f26b83ff96e1f2b6a682f133852f6798a09c465da95921460cefb38474024989060200160405180910390a15b565b61392180620000f46000396000f3fe6080604052600436106101e75760003560e01c806370cda01a11610102578063a22cb46511610095578063d482ef9b11610064578063d482ef9b14610566578063e985e9c514610586578063ec399a27146105cf578063f2fde38b146105ef57600080fd5b8063a22cb465146104e6578063b80f55c914610506578063b88d4fde14610526578063c87b56dd1461054657600080fd5b80638da5cb5b116100d15780638da5cb5b1461048857806395d89b41146104a65780639659867e146104bb57806398d5fdca146104d057600080fd5b806370cda01a14610420578063715018a6146104405780638a1bbf86146104555780638a34711d1461046857600080fd5b8063310842f11161017a5780635ca67d9b116101495780635ca67d9b146103995780636352211e146103af5780636de010a4146103cf57806370a082311461040057600080fd5b8063310842f11461032357806342842e0e146103435780634f6ccce714610363578063554d578d1461038357600080fd5b806318160ddd116101b657806318160ddd146102a457806323b872dd146102c357806329e55898146102e35780632f745c591461030357600080fd5b806301ffc9a7146101f357806306fdde0314610228578063081812fc1461024a578063095ea7b31461028257600080fd5b366101ee57005b600080fd5b3480156101ff57600080fd5b5061021361020e366004612e59565b61060f565b60405190151581526020015b60405180910390f35b34801561023457600080fd5b5061023d610620565b60405161021f9190612ec6565b34801561025657600080fd5b5061026a610265366004612ed9565b6106b2565b6040516001600160a01b03909116815260200161021f565b34801561028e57600080fd5b506102a261029d366004612f07565b6106d9565b005b3480156102b057600080fd5b506099545b60405190815260200161021f565b3480156102cf57600080fd5b506102a26102de366004612f33565b6107f3565b3480156102ef57600080fd5b506102a26102fe366004612f82565b610824565b34801561030f57600080fd5b506102b561031e366004612f07565b61091d565b34801561032f57600080fd5b506102b561033e366004612fb2565b6109b3565b34801561034f57600080fd5b506102a261035e366004612f33565b610a08565b34801561036f57600080fd5b506102b561037e366004612ed9565b610a23565b34801561038f57600080fd5b50610160546102b5565b3480156103a557600080fd5b50610167546102b5565b3480156103bb57600080fd5b5061026a6103ca366004612ed9565b610ab6565b3480156103db57600080fd5b506102136103ea366004612ed9565b6000908152610169602052604090205460ff1690565b34801561040c57600080fd5b506102b561041b366004612fd4565b610b16565b34801561042c57600080fd5b506102a261043b366004612fd4565b610b9c565b34801561044c57600080fd5b506102a2610bc7565b6102a26104633660046130b4565b610bdb565b34801561047457600080fd5b506102b5610483366004612ed9565b6114fb565b34801561049457600080fd5b5060fb546001600160a01b031661026a565b3480156104b257600080fd5b5061023d61151b565b3480156104c757600080fd5b506102b561152a565b3480156104dc57600080fd5b50610161546102b5565b3480156104f257600080fd5b506102a261050136600461318c565b611547565b34801561051257600080fd5b506102a26105213660046131ba565b611552565b34801561053257600080fd5b506102a261054136600461324b565b611971565b34801561055257600080fd5b5061023d610561366004612ed9565b6119a9565b34801561057257600080fd5b506102a2610581366004613324565b6119b4565b34801561059257600080fd5b506102136105a13660046133f8565b6001600160a01b039182166000908152606a6020908152604080832093909416825291909152205460ff1690565b3480156105db57600080fd5b506102a26105ea366004612ed9565b611bec565b3480156105fb57600080fd5b506102a261060a366004612fd4565b611bfa565b600061061a82611c70565b92915050565b60606065805461062f90613426565b80601f016020809104026020016040519081016040528092919081815260200182805461065b90613426565b80156106a85780601f1061067d576101008083540402835291602001916106a8565b820191906000526020600020905b81548152906001019060200180831161068b57829003601f168201915b5050505050905090565b60006106bd82611c95565b506000908152606960205260409020546001600160a01b031690565b60006106e482610ab6565b9050806001600160a01b0316836001600160a01b0316036107565760405162461bcd60e51b815260206004820152602160248201527f4552433732313a20617070726f76616c20746f2063757272656e74206f776e656044820152603960f91b60648201526084015b60405180910390fd5b336001600160a01b0382161480610772575061077281336105a1565b6107e45760405162461bcd60e51b815260206004820152603d60248201527f4552433732313a20617070726f76652063616c6c6572206973206e6f7420746f60448201527f6b656e206f776e6572206f7220617070726f76656420666f7220616c6c000000606482015260840161074d565b6107ee8383611cf4565b505050565b6107fd3382611d62565b6108195760405162461bcd60e51b815260040161074d90613460565b6107ee838383611de1565b61015f60009054906101000a90046001600160a01b03166001600160a01b03166304d21cee6040518163ffffffff1660e01b8152600401602060405180830381865afa158015610878573d6000803e3d6000fd5b505050506040513d601f19601f8201168201806040525081019061089c91906134ad565b6001600160a01b0316336001600160a01b0316146108fc5760405162461bcd60e51b815260206004820152601e60248201527f43616c6c6572206d757374206265204d61726b657420636f6e74726163740000604482015260640161074d565b60009182526101696020526040909120805460ff1916911515919091179055565b600061092883610b16565b821061098a5760405162461bcd60e51b815260206004820152602b60248201527f455243373231456e756d657261626c653a206f776e657220696e646578206f7560448201526a74206f6620626f756e647360a81b606482015260840161074d565b506001600160a01b03919091166000908152609760209081526040808320938352929052205490565b6000610164546109c36101685490565b610160546109d191906134e0565b6109db84866134f3565b6109e591906134f3565b6109ef919061350a565b610a0190670de0b6b3a76400006134f3565b9392505050565b6107ee83838360405180602001604052806000815250611971565b6000610a2e60995490565b8210610a915760405162461bcd60e51b815260206004820152602c60248201527f455243373231456e756d657261626c653a20676c6f62616c20696e646578206f60448201526b7574206f6620626f756e647360a01b606482015260840161074d565b60998281548110610aa457610aa461352c565b90600052602060002001549050919050565b6000818152606760205260408120546001600160a01b03168061061a5760405162461bcd60e51b8152602060048201526018602482015277115490cdcc8c4e881a5b9d985b1a59081d1bdad95b88125160421b604482015260640161074d565b60006001600160a01b038216610b805760405162461bcd60e51b815260206004820152602960248201527f4552433732313a2061646472657373207a65726f206973206e6f7420612076616044820152683634b21037bbb732b960b91b606482015260840161074d565b506001600160a01b031660009081526068602052604090205490565b610ba4611f52565b61016580546001600160a01b0319166001600160a01b0392909216919091179055565b610bcf611f52565b610bd96000611fac565b565b610be3611ffe565b61016354821015610c365760405162461bcd60e51b815260206004820181905260248201527f4c6f636b74696d65206973206c6f776572207468616e207468726573686f6c64604482015260640161074d565b61016254821115610c895760405162461bcd60e51b815260206004820152601d60248201527f4c6f636b74696d6520697320686967686572207468616e206c696d6974000000604482015260640161074d565b610165546001600160a01b0316610ce25760405162461bcd60e51b815260206004820152601d60248201527f496e63656e746976697a656420706f6f6c206973206e6f74207365742e000000604482015260640161074d565b61016054815161016854610cf69190613542565b1115610d3b5760405162461bcd60e51b815260206004820152601460248201527313585e1a5b5d5b4818d85c08195e18d95959195960621b604482015260640161074d565b6000815161016154610d4d91906134f3565b9050803414610d9e5760405162461bcd60e51b815260206004820152601e60248201527f54782076616c7565206973206e6f7420657175616c20746f2070726963650000604482015260640161074d565b60006003610dad8360026134f3565b610db7919061350a565b9050600061016560009054906101000a90046001600160a01b03166001600160a01b03166314f059796040518163ffffffff1660e01b81526004016040805180830381865afa158015610e0e573d6000803e3d6000fd5b505050506040513d601f19601f82011682018060405250810190610e329190613555565b80519091506000908103610e5357610e4c83613a986134f3565b9050610e71565b81516020830151610e6490856134f3565b610e6e919061350a565b90505b6000610e7e8651886109b3565b905061015f60009054906101000a90046001600160a01b03166001600160a01b03166315b9ba5d6040518163ffffffff1660e01b8152600401602060405180830381865afa158015610ed4573d6000803e3d6000fd5b505050506040513d601f19601f82011682018060405250810190610ef891906134ad565b6001600160a01b0316630a8514c4610f108385613542565b6040518263ffffffff1660e01b8152600401610f2e91815260200190565b600060405180830381600087803b158015610f4857600080fd5b505af1158015610f5c573d6000803e3d6000fd5b5050505061015f60009054906101000a90046001600160a01b03166001600160a01b03166315b9ba5d6040518163ffffffff1660e01b8152600401602060405180830381865afa158015610fb4573d6000803e3d6000fd5b505050506040513d601f19601f82011682018060405250810190610fd891906134ad565b6101655460405163095ea7b360e01b81526001600160a01b0391821660048201526024810185905291169063095ea7b3906044016020604051808303816000875af115801561102b573d6000803e3d6000fd5b505050506040513d601f19601f8201168201806040525081019061104f91906135d5565b5061016554604080518082018252868152602081018590529051630b4c7e4d60e01b81526000926001600160a01b031691630b4c7e4d9188916110969186906004016135f2565b60206040518083038185885af11580156110b4573d6000803e3d6000fd5b50505050506040513d601f19601f820116820180604052508101906110d9919061362a565b905061015f60009054906101000a90046001600160a01b03166001600160a01b03166315b9ba5d6040518163ffffffff1660e01b8152600401602060405180830381865afa15801561112f573d6000803e3d6000fd5b505050506040513d601f19601f8201168201806040525081019061115391906134ad565b6001600160a01b031663095ea7b361015f60009054906101000a90046001600160a01b03166001600160a01b03166308b0308a6040518163ffffffff1660e01b8152600401602060405180830381865afa1580156111b5573d6000803e3d6000fd5b505050506040513d601f19601f820116820180604052508101906111d991906134ad565b6040516001600160e01b031960e084901b1681526001600160a01b039091166004820152602481018590526044016020604051808303816000875af1158015611226573d6000803e3d6000fd5b505050506040513d601f19601f8201168201806040525081019061124a91906135d5565b5061015f60009054906101000a90046001600160a01b03166001600160a01b03166308b0308a6040518163ffffffff1660e01b8152600401602060405180830381865afa15801561129f573d6000803e3d6000fd5b505050506040513d601f19601f820116820180604052508101906112c391906134ad565b6001600160a01b031663650e150533846112dd8c42613542565b6040516001600160e01b031960e086901b1681526001600160a01b03909316600484015260248301919091526044820152606401600060405180830381600087803b15801561132b57600080fd5b505af115801561133f573d6000803e3d6000fd5b505061016654600092506001600160a01b0316905061135e87896134e0565b604051600081818185875af1925050503d806000811461139a576040519150601f19603f3d011682016040523d82523d6000602084013e61139f565b606091505b50509050806113f05760405162461bcd60e51b815260206004820181905260248201527f4661696c656420746f2073656e6420457468657220746f206465762066756e64604482015260640161074d565b6000805b89518110156114e35761016854915061140d3383612059565b611430828b83815181106114235761142361352c565b6020026020010151612073565b60405180606001604052804281526020018c81526020018b5186611454919061350a565b9052600083815261016a60209081526040918290208351815590830151600182015591015160029091015561148e61016880546001019055565b7f0f6798a560793a54c3bcfe86a93cde1e73087d944c0ea20544137d412139688533604080516001600160a01b039092168252602082018590520160405180910390a1806114db81613643565b9150506113f4565b5050505050505050506114f7600161012d55565b5050565b600081815261016a602052604081206001810154905461061a9190613542565b60606066805461062f90613426565b600060016115386101685490565b61154291906134e0565b905090565b6114f7338383612106565b61155a611ffe565b6000805b82518110156116fc5761158983828151811061157c5761157c61352c565b6020026020010151610ab6565b6001600160a01b0316336001600160a01b0316146115da5760405162461bcd60e51b815260206004820152600e60248201526d26bab9ba1037bbb7103a37b5b2b760911b604482015260640161074d565b6115fc8382815181106115ef576115ef61352c565b60200260200101516114fb565b4210156116435760405162461bcd60e51b8152602060048201526015602482015274151bdad95b881a5cc81cdd1a5b1b081b1bd8dad959605a1b604482015260640161074d565b61016a600084838151811061165a5761165a61352c565b6020026020010151815260200190815260200160002060020154915061169883828151811061168b5761168b61352c565b60200260200101516121d4565b7fb90306ad06b2a6ff86ddc9327db583062895ef6540e62dc50add009db5b356eb8382815181106116cb576116cb61352c565b60200260200101516040516116e291815260200190565b60405180910390a1806116f481613643565b91505061155e565b5061016554604051638ba78f9b60e01b81526004810183905260016024820152600060448201819052916001600160a01b031690638ba78f9b906064016020604051808303816000875af1158015611758573d6000803e3d6000fd5b505050506040513d601f19601f8201168201806040525081019061177c919061362a565b905061015f60009054906101000a90046001600160a01b03166001600160a01b03166315b9ba5d6040518163ffffffff1660e01b8152600401602060405180830381865afa1580156117d2573d6000803e3d6000fd5b505050506040513d601f19601f820116820180604052508101906117f691906134ad565b6001600160a01b03166350666e3161180f60028461350a565b6040518263ffffffff1660e01b815260040161182d91815260200190565b600060405180830381600087803b15801561184757600080fd5b505af115801561185b573d6000803e3d6000fd5b5050505061015f60009054906101000a90046001600160a01b03166001600160a01b03166315b9ba5d6040518163ffffffff1660e01b8152600401602060405180830381865afa1580156118b3573d6000803e3d6000fd5b505050506040513d601f19601f820116820180604052508101906118d791906134ad565b6001600160a01b031663a9059cbb336118f160028561350a565b6040516001600160e01b031960e085901b1681526001600160a01b03909216600483015260248201526044016020604051808303816000875af115801561193c573d6000803e3d6000fd5b505050506040513d601f19601f8201168201806040525081019061196091906135d5565b50505061196e600161012d55565b50565b61197b3383611d62565b6119975760405162461bcd60e51b815260040161074d90613460565b6119a3848484846121dd565b50505050565b606061061a82612210565b600054610100900460ff16158080156119d45750600054600160ff909116105b806119ee5750303b1580156119ee575060005460ff166001145b611a515760405162461bcd60e51b815260206004820152602e60248201527f496e697469616c697a61626c653a20636f6e747261637420697320616c72656160448201526d191e481a5b9a5d1a585b1a5e995960921b606482015260840161074d565b6000805460ff191660011790558015611a74576000805461ff0019166101001790555b611a7c612327565b611a8461234e565b611b088c8c8080601f016020809104026020016040519081016040528093929190818152602001838380828437600081840152601f19601f820116905080830192505050505050508b8b8080601f01602080910402602001604051908101604052809392919081815260200183838082843760009201919091525061237d92505050565b8c61015f60006101000a8154816001600160a01b0302191690836001600160a01b031602179055508761016081905550866101618190555085610167819055508461016481905550836101628190555082610163819055508161016660006101000a8154816001600160a01b0302191690836001600160a01b03160217905550611b9761016880546001019055565b8015611bdd576000805461ff0019169055604051600181527f7f26b83ff96e1f2b6a682f133852f6798a09c465da95921460cefb38474024989060200160405180910390a15b50505050505050505050505050565b611bf4611f52565b61016755565b611c02611f52565b6001600160a01b038116611c675760405162461bcd60e51b815260206004820152602660248201527f4f776e61626c653a206e6577206f776e657220697320746865207a65726f206160448201526564647265737360d01b606482015260840161074d565b61196e81611fac565b60006001600160e01b0319821663780e9d6360e01b148061061a575061061a826123ae565b6000818152606760205260409020546001600160a01b031661196e5760405162461bcd60e51b8152602060048201526018602482015277115490cdcc8c4e881a5b9d985b1a59081d1bdad95b88125160421b604482015260640161074d565b600081815260696020526040902080546001600160a01b0319166001600160a01b0384169081179091558190611d2982610ab6565b6001600160a01b03167f8c5be1e5ebec7d5bd14f71427d1e84f3dd0314c0f7b2291e5b200ac8c7c3b92560405160405180910390a45050565b600080611d6e83610ab6565b9050806001600160a01b0316846001600160a01b03161480611db557506001600160a01b038082166000908152606a602090815260408083209388168352929052205460ff165b80611dd95750836001600160a01b0316611dce846106b2565b6001600160a01b0316145b949350505050565b826001600160a01b0316611df482610ab6565b6001600160a01b031614611e1a5760405162461bcd60e51b815260040161074d9061365c565b6001600160a01b038216611e7c5760405162461bcd60e51b8152602060048201526024808201527f4552433732313a207472616e7366657220746f20746865207a65726f206164646044820152637265737360e01b606482015260840161074d565b611e8983838360016123fe565b826001600160a01b0316611e9c82610ab6565b6001600160a01b031614611ec25760405162461bcd60e51b815260040161074d9061365c565b600081815260696020908152604080832080546001600160a01b03199081169091556001600160a01b0387811680865260688552838620805460001901905590871680865283862080546001019055868652606790945282852080549092168417909155905184937fddf252ad1be2c89b69c2b068fc378daa952ba7f163c4a11628f55a4df523b3ef91a4505050565b60fb546001600160a01b03163314610bd95760405162461bcd60e51b815260206004820181905260248201527f4f776e61626c653a2063616c6c6572206973206e6f7420746865206f776e6572604482015260640161074d565b60fb80546001600160a01b038381166001600160a01b0319831681179093556040519116919082907f8be0079c531659141344cd1fd0a4f28419497f9722a3daafe3b4186f6b6457e090600090a35050565b600261012d54036120515760405162461bcd60e51b815260206004820152601f60248201527f5265656e7472616e637947756172643a207265656e7472616e742063616c6c00604482015260640161074d565b600261012d55565b6114f7828260405180602001604052806000815250612490565b6000828152606760205260409020546001600160a01b03166120ee5760405162461bcd60e51b815260206004820152602e60248201527f45524337323155524953746f726167653a2055524920736574206f66206e6f6e60448201526d32bc34b9ba32b73a103a37b5b2b760911b606482015260840161074d565b600082815260c9602052604090206107ee82826136ef565b816001600160a01b0316836001600160a01b0316036121675760405162461bcd60e51b815260206004820152601960248201527f4552433732313a20617070726f766520746f2063616c6c657200000000000000604482015260640161074d565b6001600160a01b038381166000818152606a6020908152604080832094871680845294825291829020805460ff191686151590811790915591519182527f17307eab39ab6107e8899845ad3d59bd9653f200f220920489ca2b5937696c31910160405180910390a3505050565b61196e816124c3565b6121e8848484611de1565b6121f484848484612503565b6119a35760405162461bcd60e51b815260040161074d906137af565b606061221b82611c95565b600082815260c960205260408120805461223490613426565b80601f016020809104026020016040519081016040528092919081815260200182805461226090613426565b80156122ad5780601f10612282576101008083540402835291602001916122ad565b820191906000526020600020905b81548152906001019060200180831161229057829003601f168201915b5050505050905060006122da604080518082019091526007815266697066733a2f2f60c81b602082015290565b905080516000036122ec575092915050565b81511561231e578082604051602001612306929190613801565b60405160208183030381529060405292505050919050565b611dd984612604565b600054610100900460ff16610bd95760405162461bcd60e51b815260040161074d90613830565b600054610100900460ff166123755760405162461bcd60e51b815260040161074d90613830565b610bd9612686565b600054610100900460ff166123a45760405162461bcd60e51b815260040161074d90613830565b6114f782826126b6565b60006001600160e01b031982166380ac58cd60e01b14806123df57506001600160e01b03198216635b5e139f60e01b145b8061061a57506301ffc9a760e01b6001600160e01b031983161461061a565b6000828152610169602052604090205460ff16156124845760405162461bcd60e51b815260206004820152603a60248201527f43616e6e6f74207472616e7366657220746f6b656e202d2063757272656e746c60448201527f79206c6f636b656420696e20616e20616374697665206c6f616e000000000000606482015260840161074d565b6119a3848484846126f6565b61249a8383612836565b6124a76000848484612503565b6107ee5760405162461bcd60e51b815260040161074d906137af565b6124cc816129cf565b600081815260c96020526040902080546124e590613426565b15905061196e57600081815260c96020526040812061196e91612df5565b60006001600160a01b0384163b156125f957604051630a85bd0160e11b81526001600160a01b0385169063150b7a029061254790339089908890889060040161387b565b6020604051808303816000875af1925050508015612582575060408051601f3d908101601f1916820190925261257f918101906138b8565b60015b6125df573d8080156125b0576040519150601f19603f3d011682016040523d82523d6000602084013e6125b5565b606091505b5080516000036125d75760405162461bcd60e51b815260040161074d906137af565b805181602001fd5b6001600160e01b031916630a85bd0160e11b149050611dd9565b506001949350505050565b606061260f82611c95565b6000612635604080518082019091526007815266697066733a2f2f60c81b602082015290565b905060008151116126555760405180602001604052806000815250610a01565b8061265f84612a72565b604051602001612670929190613801565b6040516020818303038152906040529392505050565b600054610100900460ff166126ad5760405162461bcd60e51b815260040161074d90613830565b610bd933611fac565b600054610100900460ff166126dd5760405162461bcd60e51b815260040161074d90613830565b60656126e983826136ef565b5060666107ee82826136ef565b61270284848484612b05565b60018111156127715760405162461bcd60e51b815260206004820152603560248201527f455243373231456e756d657261626c653a20636f6e7365637574697665207472604482015274185b9cd9995c9cc81b9bdd081cdd5c1c1bdc9d1959605a1b606482015260840161074d565b816001600160a01b0385166127cd576127c881609980546000838152609a60205260408120829055600182018355919091527f72a152ddfb8e864297c917af52ea6c1c68aead0fee1a62673fcc7e0c94979d000155565b6127f0565b836001600160a01b0316856001600160a01b0316146127f0576127f08582612b8d565b6001600160a01b03841661280c5761280781612c2a565b61282f565b846001600160a01b0316846001600160a01b03161461282f5761282f8482612cd9565b5050505050565b6001600160a01b03821661288c5760405162461bcd60e51b815260206004820181905260248201527f4552433732313a206d696e7420746f20746865207a65726f2061646472657373604482015260640161074d565b6000818152606760205260409020546001600160a01b0316156128f15760405162461bcd60e51b815260206004820152601c60248201527f4552433732313a20746f6b656e20616c7265616479206d696e74656400000000604482015260640161074d565b6128ff6000838360016123fe565b6000818152606760205260409020546001600160a01b0316156129645760405162461bcd60e51b815260206004820152601c60248201527f4552433732313a20746f6b656e20616c7265616479206d696e74656400000000604482015260640161074d565b6001600160a01b038216600081815260686020908152604080832080546001019055848352606790915280822080546001600160a01b0319168417905551839291907fddf252ad1be2c89b69c2b068fc378daa952ba7f163c4a11628f55a4df523b3ef908290a45050565b60006129da82610ab6565b90506129ea8160008460016123fe565b6129f382610ab6565b600083815260696020908152604080832080546001600160a01b03199081169091556001600160a01b0385168085526068845282852080546000190190558785526067909352818420805490911690555192935084927fddf252ad1be2c89b69c2b068fc378daa952ba7f163c4a11628f55a4df523b3ef908390a45050565b60606000612a7f83612d1d565b600101905060008167ffffffffffffffff811115612a9f57612a9f612ff1565b6040519080825280601f01601f191660200182016040528015612ac9576020820181803683370190505b5090508181016020015b600019016f181899199a1a9b1b9c1cb0b131b232b360811b600a86061a8153600a8504945084612ad357509392505050565b60018111156119a3576001600160a01b03841615612b4b576001600160a01b03841660009081526068602052604081208054839290612b459084906134e0565b90915550505b6001600160a01b038316156119a3576001600160a01b03831660009081526068602052604081208054839290612b82908490613542565b909155505050505050565b60006001612b9a84610b16565b612ba491906134e0565b600083815260986020526040902054909150808214612bf7576001600160a01b03841660009081526097602090815260408083208584528252808320548484528184208190558352609890915290208190555b5060009182526098602090815260408084208490556001600160a01b039094168352609781528383209183525290812055565b609954600090612c3c906001906134e0565b6000838152609a602052604081205460998054939450909284908110612c6457612c6461352c565b906000526020600020015490508060998381548110612c8557612c8561352c565b6000918252602080832090910192909255828152609a90915260408082208490558582528120556099805480612cbd57612cbd6138d5565b6001900381819060005260206000200160009055905550505050565b6000612ce483610b16565b6001600160a01b039093166000908152609760209081526040808320868452825280832085905593825260989052919091209190915550565b60008072184f03e93ff9f4daa797ed6e38ed64bf6a1f0160401b8310612d5c5772184f03e93ff9f4daa797ed6e38ed64bf6a1f0160401b830492506040015b6d04ee2d6d415b85acef81000000008310612d88576d04ee2d6d415b85acef8100000000830492506020015b662386f26fc100008310612da657662386f26fc10000830492506010015b6305f5e1008310612dbe576305f5e100830492506008015b6127108310612dd257612710830492506004015b60648310612de4576064830492506002015b600a831061061a5760010192915050565b508054612e0190613426565b6000825580601f10612e11575050565b601f01602090049060005260206000209081019061196e91905b80821115612e3f5760008155600101612e2b565b5090565b6001600160e01b03198116811461196e57600080fd5b600060208284031215612e6b57600080fd5b8135610a0181612e43565b60005b83811015612e91578181015183820152602001612e79565b50506000910152565b60008151808452612eb2816020860160208601612e76565b601f01601f19169290920160200192915050565b602081526000610a016020830184612e9a565b600060208284031215612eeb57600080fd5b5035919050565b6001600160a01b038116811461196e57600080fd5b60008060408385031215612f1a57600080fd5b8235612f2581612ef2565b946020939093013593505050565b600080600060608486031215612f4857600080fd5b8335612f5381612ef2565b92506020840135612f6381612ef2565b929592945050506040919091013590565b801515811461196e57600080fd5b60008060408385031215612f9557600080fd5b823591506020830135612fa781612f74565b809150509250929050565b60008060408385031215612fc557600080fd5b50508035926020909101359150565b600060208284031215612fe657600080fd5b8135610a0181612ef2565b634e487b7160e01b600052604160045260246000fd5b604051601f8201601f1916810167ffffffffffffffff8111828210171561303057613030612ff1565b604052919050565b600067ffffffffffffffff82111561305257613052612ff1565b5060051b60200190565b600067ffffffffffffffff83111561307657613076612ff1565b613089601f8401601f1916602001613007565b905082815283838301111561309d57600080fd5b828260208301376000602084830101529392505050565b60008060408084860312156130c857600080fd5b8335925060208085013567ffffffffffffffff808211156130e857600080fd5b818701915087601f8301126130fc57600080fd5b813561310f61310a82613038565b613007565b81815260059190911b8301840190848101908a83111561312e57600080fd5b8585015b8381101561317a5780358581111561314a5760008081fd5b8601603f81018d1361315c5760008081fd5b61316c8d898301358b840161305c565b845250918601918601613132565b50809750505050505050509250929050565b6000806040838503121561319f57600080fd5b82356131aa81612ef2565b91506020830135612fa781612f74565b600060208083850312156131cd57600080fd5b823567ffffffffffffffff8111156131e457600080fd5b8301601f810185136131f557600080fd5b803561320361310a82613038565b81815260059190911b8201830190838101908783111561322257600080fd5b928401925b8284101561324057833582529284019290840190613227565b979650505050505050565b6000806000806080858703121561326157600080fd5b843561326c81612ef2565b9350602085013561327c81612ef2565b925060408501359150606085013567ffffffffffffffff81111561329f57600080fd5b8501601f810187136132b057600080fd5b6132bf8782356020840161305c565b91505092959194509250565b80356132d681612ef2565b919050565b60008083601f8401126132ed57600080fd5b50813567ffffffffffffffff81111561330557600080fd5b60208301915083602082850101111561331d57600080fd5b9250929050565b6000806000806000806000806000806000806101408d8f03121561334757600080fd5b6133508d6132cb565b9b5067ffffffffffffffff60208e0135111561336b57600080fd5b61337b8e60208f01358f016132db565b909b50995067ffffffffffffffff60408e0135111561339957600080fd5b6133a98e60408f01358f016132db565b909950975060608d0135965060808d0135955060a08d0135945060c08d0135935060e08d013592506101008d013591506133e66101208e016132cb565b90509295989b509295989b509295989b565b6000806040838503121561340b57600080fd5b823561341681612ef2565b91506020830135612fa781612ef2565b600181811c9082168061343a57607f821691505b60208210810361345a57634e487b7160e01b600052602260045260246000fd5b50919050565b6020808252602d908201527f4552433732313a2063616c6c6572206973206e6f7420746f6b656e206f776e6560408201526c1c881bdc88185c1c1c9bdd9959609a1b606082015260800190565b6000602082840312156134bf57600080fd5b8151610a0181612ef2565b634e487b7160e01b600052601160045260246000fd5b8181038181111561061a5761061a6134ca565b808202811582820484141761061a5761061a6134ca565b60008261352757634e487b7160e01b600052601260045260246000fd5b500490565b634e487b7160e01b600052603260045260246000fd5b8082018082111561061a5761061a6134ca565b60006040828403121561356757600080fd5b82601f83011261357657600080fd5b6040516040810181811067ffffffffffffffff8211171561359957613599612ff1565b80604052508060408401858111156135b057600080fd5b845b818110156135ca5780518352602092830192016135b2565b509195945050505050565b6000602082840312156135e757600080fd5b8151610a0181612f74565b60608101818460005b600281101561361a5781518352602092830192909101906001016135fb565b5050508260408301529392505050565b60006020828403121561363c57600080fd5b5051919050565b600060018201613655576136556134ca565b5060010190565b60208082526025908201527f4552433732313a207472616e736665722066726f6d20696e636f72726563742060408201526437bbb732b960d91b606082015260800190565b601f8211156107ee57600081815260208120601f850160051c810160208610156136c85750805b601f850160051c820191505b818110156136e7578281556001016136d4565b505050505050565b815167ffffffffffffffff81111561370957613709612ff1565b61371d816137178454613426565b846136a1565b602080601f831160018114613752576000841561373a5750858301515b600019600386901b1c1916600185901b1785556136e7565b600085815260208120601f198616915b8281101561378157888601518255948401946001909101908401613762565b508582101561379f5787850151600019600388901b60f8161c191681555b5050505050600190811b01905550565b60208082526032908201527f4552433732313a207472616e7366657220746f206e6f6e20455243373231526560408201527131b2b4bb32b91034b6b83632b6b2b73a32b960711b606082015260800190565b60008351613813818460208801612e76565b835190830190613827818360208801612e76565b01949350505050565b6020808252602b908201527f496e697469616c697a61626c653a20636f6e7472616374206973206e6f74206960408201526a6e697469616c697a696e6760a81b606082015260800190565b6001600160a01b03858116825284166020820152604081018390526080606082018190526000906138ae90830184612e9a565b9695505050505050565b6000602082840312156138ca57600080fd5b8151610a0181612e43565b634e487b7160e01b600052603160045260246000fdfea2646970667358221220152a3cd40d01cf14e6badf0ed75fbc22a0d7c7347def011dff6e0db34539521664736f6c63430008110033",
  "linkReferences": {},
  "deployedLinkReferences": {}
}