{
  "_format": "hh-sol-artifact-1",
  "contractName": "InterestRate",
  "sourceName": "contracts/protocol/Lending/InterestRate.sol",
  "abi": [
    {
      "anonymous": false,
      "inputs": [
        {
          "indexed": true,
          "internalType": "address",
          "name": "previousOwner",
          "type": "address"
        },
        {
          "indexed": true,
          "internalType": "address",
          "name": "newOwner",
          "type": "address"
        }
      ],
      "name": "OwnershipTransferred",
      "type": "event"
    },
    {
      "inputs": [
        {
          "internalType": "address",
          "name": "token",
          "type": "address"
        },
        {
          "components": [
            {
              "internalType": "uint256",
              "name": "optimalUtilizationRate",
              "type": "uint256"
            },
            {
              "internalType": "uint256",
              "name": "baseBorrowRate",
              "type": "uint256"
            },
            {
              "internalType": "uint256",
              "name": "lowSlope",
              "type": "uint256"
            },
            {
              "internalType": "uint256",
              "name": "highSlope",
              "type": "uint256"
            }
          ],
          "internalType": "struct ConfigTypes.InterestRateConfig",
          "name": "interestRateConfig",
          "type": "tuple"
        }
      ],
      "name": "addToken",
      "outputs": [],
      "stateMutability": "nonpayable",
      "type": "function"
    },
    {
      "inputs": [
        {
          "internalType": "address",
          "name": "token",
          "type": "address"
        },
        {
          "internalType": "uint256",
          "name": "assets",
          "type": "uint256"
        },
        {
          "internalType": "uint256",
          "name": "debt",
          "type": "uint256"
        }
      ],
      "name": "calculateBorrowRate",
      "outputs": [
        {
          "internalType": "uint256",
          "name": "",
          "type": "uint256"
        }
      ],
      "stateMutability": "view",
      "type": "function"
    },
    {
      "inputs": [
        {
          "internalType": "address",
          "name": "token",
          "type": "address"
        },
        {
          "internalType": "uint256",
          "name": "assets",
          "type": "uint256"
        },
        {
          "internalType": "uint256",
          "name": "debt",
          "type": "uint256"
        }
      ],
      "name": "calculateUtilizationRate",
      "outputs": [
        {
          "internalType": "uint256",
          "name": "",
          "type": "uint256"
        }
      ],
      "stateMutability": "view",
      "type": "function"
    },
    {
      "inputs": [
        {
          "internalType": "address",
          "name": "token",
          "type": "address"
        }
      ],
      "name": "getInterestRateConfig",
      "outputs": [
        {
          "components": [
            {
              "internalType": "uint256",
              "name": "optimalUtilizationRate",
              "type": "uint256"
            },
            {
              "internalType": "uint256",
              "name": "baseBorrowRate",
              "type": "uint256"
            },
            {
              "internalType": "uint256",
              "name": "lowSlope",
              "type": "uint256"
            },
            {
              "internalType": "uint256",
              "name": "highSlope",
              "type": "uint256"
            }
          ],
          "internalType": "struct ConfigTypes.InterestRateConfig",
          "name": "",
          "type": "tuple"
        }
      ],
      "stateMutability": "view",
      "type": "function"
    },
    {
      "inputs": [
        {
          "internalType": "address",
          "name": "token",
          "type": "address"
        }
      ],
      "name": "getOptimalBorrowRate",
      "outputs": [
        {
          "internalType": "uint256",
          "name": "",
          "type": "uint256"
        }
      ],
      "stateMutability": "view",
      "type": "function"
    },
    {
      "inputs": [
        {
          "internalType": "address",
          "name": "token",
          "type": "address"
        }
      ],
      "name": "isTokenSupported",
      "outputs": [
        {
          "internalType": "bool",
          "name": "",
          "type": "bool"
        }
      ],
      "stateMutability": "view",
      "type": "function"
    },
    {
      "inputs": [],
      "name": "owner",
      "outputs": [
        {
          "internalType": "address",
          "name": "",
          "type": "address"
        }
      ],
      "stateMutability": "view",
      "type": "function"
    },
    {
      "inputs": [
        {
          "internalType": "address",
          "name": "token",
          "type": "address"
        }
      ],
      "name": "removeToken",
      "outputs": [],
      "stateMutability": "nonpayable",
      "type": "function"
    },
    {
      "inputs": [],
      "name": "renounceOwnership",
      "outputs": [],
      "stateMutability": "nonpayable",
      "type": "function"
    },
    {
      "inputs": [
        {
          "internalType": "address",
          "name": "newOwner",
          "type": "address"
        }
      ],
      "name": "transferOwnership",
      "outputs": [],
      "stateMutability": "nonpayable",
      "type": "function"
    }
  ],
  "bytecode": "0x608060405234801561001057600080fd5b5061001a3361001f565b61006f565b600080546001600160a01b038381166001600160a01b0319831681178455604051919092169283917f8be0079c531659141344cd1fd0a4f28419497f9722a3daafe3b4186f6b6457e09190a35050565b6108158061007e6000396000f3fe608060405234801561001057600080fd5b506004361061009e5760003560e01c80638da5cb5b116100665780638da5cb5b146101685780638f6e4d6114610183578063b44ee73a14610196578063f2fde38b146101a9578063fb4ffce1146101bc57600080fd5b80635669ef63146100a35780635cab98b8146100c95780635fa7b5841461010f578063715018a61461012457806375151b631461012c575b600080fd5b6100b66100b1366004610684565b6101cf565b6040519081526020015b60405180910390f35b6100dc6100d7366004610684565b61021d565b6040516100c091908151815260208083015190820152604080830151908201526060918201519181019190915260800190565b61012261011d366004610684565b61029e565b005b6101226102ef565b61015861013a366004610684565b6001600160a01b031660009081526001602052604090205460ff1690565b60405190151581526020016100c0565b6000546040516001600160a01b0390911681526020016100c0565b61012261019136600461069f565b610303565b6100b66101a4366004610737565b610362565b6101226101b7366004610684565b610456565b6100b66101ca366004610737565b6104d4565b6000816101db816104f3565b6001600160a01b038316600090815260026020819052604090912060018101548154919092015461020c9190610554565b6102169190610780565b9392505050565b6102486040518060800160405280600081526020016000815260200160008152602001600081525090565b81610252816104f3565b50506001600160a01b0316600090815260026020818152604092839020835160808101855281548152600182015492810192909252918201549281019290925260030154606082015290565b806102a8816104f3565b6102b061057a565b506001600160a01b03166000908152600160208181526040808420805460ff191690556002918290528320838155918201839055810182905560030155565b6102f761057a565b61030160006105d4565b565b61030b61057a565b6001600160a01b039091166000908152600160208181526040808420805460ff1916841790556002808352938190208551815591850151928201929092559083015191810191909155606090910151600390910155565b60008361036e816104f3565b600061037a8585610624565b6001600160a01b0387166000908152600260205260409020549091508110156103f3576001600160a01b038616600090815260026020819052604090912001546103c5908290610554565b6001600160a01b0387166000908152600260205260409020600101546103eb9190610780565b92505061044e565b6001600160a01b03861660009081526002602052604090205461043b9061041a9083610793565b6001600160a01b038816600090815260026020526040902060030154610554565b610444876101cf565b6103eb9190610780565b509392505050565b61045e61057a565b6001600160a01b0381166104c85760405162461bcd60e51b815260206004820152602660248201527f4f776e61626c653a206e6577206f776e657220697320746865207a65726f206160448201526564647265737360d01b60648201526084015b60405180910390fd5b6104d1816105d4565b50565b6000836104e0816104f3565b6104ea8484610624565b95945050505050565b6001600160a01b03811660009081526001602052604090205460ff166104d15760405162461bcd60e51b815260206004820152601660248201527512548e9513d2d15397d393d517d4d5541413d495115160521b60448201526064016104bf565b60008115611388198390048411151761056c57600080fd5b506127109102611388010490565b6000546001600160a01b031633146103015760405162461bcd60e51b815260206004820181905260248201527f4f776e61626c653a2063616c6c6572206973206e6f7420746865206f776e657260448201526064016104bf565b600080546001600160a01b038381166001600160a01b0319831681178455604051919092169283917f8be0079c531659141344cd1fd0a4f28419497f9722a3daafe3b4186f6b6457e09190a35050565b60006106308284610780565b60000361063f57506000610662565b6106498284610780565b610655836127106107a6565b61065f91906107bd565b90505b92915050565b80356001600160a01b038116811461067f57600080fd5b919050565b60006020828403121561069657600080fd5b61021682610668565b60008082840360a08112156106b357600080fd5b6106bc84610668565b92506080601f19820112156106d057600080fd5b506040516080810181811067ffffffffffffffff8211171561070257634e487b7160e01b600052604160045260246000fd5b806040525060208401358152604084013560208201526060840135604082015260808401356060820152809150509250929050565b60008060006060848603121561074c57600080fd5b61075584610668565b95602085013595506040909401359392505050565b634e487b7160e01b600052601160045260246000fd5b808201808211156106625761066261076a565b818103818111156106625761066261076a565b80820281158282048414176106625761066261076a565b6000826107da57634e487b7160e01b600052601260045260246000fd5b50049056fea2646970667358221220f7abb5f670ffdd4e2ecde772c5b6d475afc2e1565979c7ca3cc85f8beeb7dba164736f6c63430008130033",
  "linkReferences": {},
  "deployedLinkReferences": {}
}