{
  "_format": "hh-sol-artifact-1",
  "contractName": "LendingMarket",
  "sourceName": "contracts/protocol/Lending/LendingMarket.sol",
  "abi": [
    {
      "anonymous": false,
      "inputs": [
        {
          "indexed": true,
          "internalType": "address",
          "name": "user",
          "type": "address"
        },
        {
          "indexed": true,
          "internalType": "address",
          "name": "asset",
          "type": "address"
        },
        {
          "indexed": true,
          "internalType": "address",
          "name": "nftAddress",
          "type": "address"
        },
        {
          "indexed": false,
          "internalType": "uint256",
          "name": "nftTokenID",
          "type": "uint256"
        },
        {
          "indexed": false,
          "internalType": "uint256",
          "name": "amount",
          "type": "uint256"
        }
      ],
      "name": "Borrow",
      "type": "event"
    },
    {
      "anonymous": false,
      "inputs": [
        {
          "indexed": true,
          "internalType": "address",
          "name": "lendingPool",
          "type": "address"
        }
      ],
      "name": "CreateLendingPool",
      "type": "event"
    },
    {
      "anonymous": false,
      "inputs": [
        {
          "indexed": false,
          "internalType": "uint8",
          "name": "version",
          "type": "uint8"
        }
      ],
      "name": "Initialized",
      "type": "event"
    },
    {
      "anonymous": false,
      "inputs": [
        {
          "indexed": true,
          "internalType": "address",
          "name": "user",
          "type": "address"
        },
        {
          "indexed": true,
          "internalType": "uint256",
          "name": "loanId",
          "type": "uint256"
        }
      ],
      "name": "Liquidate",
      "type": "event"
    },
    {
      "anonymous": false,
      "inputs": [
        {
          "indexed": true,
          "internalType": "address",
          "name": "previousOwner",
          "type": "address"
        },
        {
          "indexed": true,
          "internalType": "address",
          "name": "newOwner",
          "type": "address"
        }
      ],
      "name": "OwnershipTransferred",
      "type": "event"
    },
    {
      "anonymous": false,
      "inputs": [
        {
          "indexed": true,
          "internalType": "address",
          "name": "user",
          "type": "address"
        },
        {
          "indexed": true,
          "internalType": "uint256",
          "name": "loanId",
          "type": "uint256"
        }
      ],
      "name": "Repay",
      "type": "event"
    },
    {
      "anonymous": false,
      "inputs": [
        {
          "indexed": true,
          "internalType": "address",
          "name": "collection",
          "type": "address"
        },
        {
          "indexed": true,
          "internalType": "address",
          "name": "asset",
          "type": "address"
        },
        {
          "indexed": true,
          "internalType": "address",
          "name": "lendingPool",
          "type": "address"
        }
      ],
      "name": "SetLendingPool",
      "type": "event"
    },
    {
      "inputs": [
        {
          "internalType": "address",
          "name": "onBehalfOf",
          "type": "address"
        },
        {
          "internalType": "address",
          "name": "asset",
          "type": "address"
        },
        {
          "internalType": "uint256",
          "name": "amount",
          "type": "uint256"
        },
        {
          "internalType": "address",
          "name": "nftAddress",
          "type": "address"
        },
        {
          "internalType": "uint256",
          "name": "nftTokenId",
          "type": "uint256"
        },
        {
          "internalType": "uint256",
          "name": "genesisNFTId",
          "type": "uint256"
        },
        {
          "internalType": "bytes32",
          "name": "request",
          "type": "bytes32"
        },
        {
          "components": [
            {
              "internalType": "uint8",
              "name": "v",
              "type": "uint8"
            },
            {
              "internalType": "bytes32",
              "name": "r",
              "type": "bytes32"
            },
            {
              "internalType": "bytes32",
              "name": "s",
              "type": "bytes32"
            },
            {
              "internalType": "bytes32",
              "name": "request",
              "type": "bytes32"
            },
            {
              "internalType": "uint256",
              "name": "deadline",
              "type": "uint256"
            },
            {
              "internalType": "bytes",
              "name": "payload",
              "type": "bytes"
            }
          ],
          "internalType": "struct Trustus.TrustusPacket",
          "name": "packet",
          "type": "tuple"
        }
      ],
      "name": "borrow",
      "outputs": [],
      "stateMutability": "nonpayable",
      "type": "function"
    },
    {
      "inputs": [
        {
          "internalType": "address",
          "name": "collection",
          "type": "address"
        },
        {
          "internalType": "address",
          "name": "asset",
          "type": "address"
        }
      ],
      "name": "createLendingPool",
      "outputs": [],
      "stateMutability": "nonpayable",
      "type": "function"
    },
    {
      "inputs": [],
      "name": "getDefaultLiquidationFee",
      "outputs": [
        {
          "internalType": "uint256",
          "name": "",
          "type": "uint256"
        }
      ],
      "stateMutability": "view",
      "type": "function"
    },
    {
      "inputs": [],
      "name": "getDefaultLiquidationPenalty",
      "outputs": [
        {
          "internalType": "uint256",
          "name": "",
          "type": "uint256"
        }
      ],
      "stateMutability": "view",
      "type": "function"
    },
    {
      "inputs": [],
      "name": "getDefaultMaximumUtilizationRate",
      "outputs": [
        {
          "internalType": "uint256",
          "name": "",
          "type": "uint256"
        }
      ],
      "stateMutability": "view",
      "type": "function"
    },
    {
      "inputs": [],
      "name": "getDefaultTVLSafeguard",
      "outputs": [
        {
          "internalType": "uint256",
          "name": "",
          "type": "uint256"
        }
      ],
      "stateMutability": "view",
      "type": "function"
    },
    {
      "inputs": [
        {
          "internalType": "address",
          "name": "collection",
          "type": "address"
        },
        {
          "internalType": "address",
          "name": "asset",
          "type": "address"
        }
      ],
      "name": "getLendingPool",
      "outputs": [
        {
          "internalType": "address",
          "name": "",
          "type": "address"
        }
      ],
      "stateMutability": "view",
      "type": "function"
    },
    {
      "inputs": [
        {
          "internalType": "contract IAddressesProvider",
          "name": "addressesProvider",
          "type": "address"
        },
        {
          "components": [
            {
              "internalType": "uint256",
              "name": "liquidationPenalty",
              "type": "uint256"
            },
            {
              "internalType": "uint256",
              "name": "liquidationFee",
              "type": "uint256"
            },
            {
              "internalType": "uint256",
              "name": "maximumUtilizationRate",
              "type": "uint256"
            },
            {
              "internalType": "uint256",
              "name": "tvlSafeguard",
              "type": "uint256"
            }
          ],
          "internalType": "struct ConfigTypes.LendingPoolConfig",
          "name": "defaultLendingPoolConfig",
          "type": "tuple"
        }
      ],
      "name": "initialize",
      "outputs": [],
      "stateMutability": "nonpayable",
      "type": "function"
    },
    {
      "inputs": [
        {
          "internalType": "uint256",
          "name": "loanId",
          "type": "uint256"
        },
        {
          "internalType": "bytes32",
          "name": "request",
          "type": "bytes32"
        },
        {
          "components": [
            {
              "internalType": "uint8",
              "name": "v",
              "type": "uint8"
            },
            {
              "internalType": "bytes32",
              "name": "r",
              "type": "bytes32"
            },
            {
              "internalType": "bytes32",
              "name": "s",
              "type": "bytes32"
            },
            {
              "internalType": "bytes32",
              "name": "request",
              "type": "bytes32"
            },
            {
              "internalType": "uint256",
              "name": "deadline",
              "type": "uint256"
            },
            {
              "internalType": "bytes",
              "name": "payload",
              "type": "bytes"
            }
          ],
          "internalType": "struct Trustus.TrustusPacket",
          "name": "packet",
          "type": "tuple"
        }
      ],
      "name": "liquidate",
      "outputs": [],
      "stateMutability": "nonpayable",
      "type": "function"
    },
    {
      "inputs": [],
      "name": "owner",
      "outputs": [
        {
          "internalType": "address",
          "name": "",
          "type": "address"
        }
      ],
      "stateMutability": "view",
      "type": "function"
    },
    {
      "inputs": [],
      "name": "renounceOwnership",
      "outputs": [],
      "stateMutability": "nonpayable",
      "type": "function"
    },
    {
      "inputs": [
        {
          "internalType": "uint256",
          "name": "loanId",
          "type": "uint256"
        },
        {
          "internalType": "uint256",
          "name": "amount",
          "type": "uint256"
        }
      ],
      "name": "repay",
      "outputs": [],
      "stateMutability": "nonpayable",
      "type": "function"
    },
    {
      "inputs": [
        {
          "internalType": "address",
          "name": "collection",
          "type": "address"
        },
        {
          "internalType": "address",
          "name": "asset",
          "type": "address"
        },
        {
          "internalType": "address",
          "name": "reserve",
          "type": "address"
        }
      ],
      "name": "setCollectionLendingPool",
      "outputs": [],
      "stateMutability": "nonpayable",
      "type": "function"
    },
    {
      "inputs": [
        {
          "internalType": "uint256",
          "name": "liquidationFee",
          "type": "uint256"
        }
      ],
      "name": "setDefaultLiquidationFee",
      "outputs": [],
      "stateMutability": "nonpayable",
      "type": "function"
    },
    {
      "inputs": [
        {
          "internalType": "uint256",
          "name": "liquidationPenalty",
          "type": "uint256"
        }
      ],
      "name": "setDefaultLiquidationPenalty",
      "outputs": [],
      "stateMutability": "nonpayable",
      "type": "function"
    },
    {
      "inputs": [
        {
          "internalType": "uint256",
          "name": "maximumUtilizationRate",
          "type": "uint256"
        }
      ],
      "name": "setDefaultMaximumUtilizationRate",
      "outputs": [],
      "stateMutability": "nonpayable",
      "type": "function"
    },
    {
      "inputs": [
        {
          "internalType": "uint256",
          "name": "tvlSafeguard",
          "type": "uint256"
        }
      ],
      "name": "setDefaultTVLSafeguard",
      "outputs": [],
      "stateMutability": "nonpayable",
      "type": "function"
    },
    {
      "inputs": [
        {
          "internalType": "address",
          "name": "newOwner",
          "type": "address"
        }
      ],
      "name": "transferOwnership",
      "outputs": [],
      "stateMutability": "nonpayable",
      "type": "function"
    }
  ],
  "bytecode": "0x60808060405234610016576144f7908161001c8239f35b600080fdfe6080604052600436101562000014575b600080fd5b60003560e01c80630541da8e14620001b05780630586abad14620001a5578063186fb825146200019a5780631f7a92b2146200018f5780634470afa4146200018457806344fd4e371462000179578063715018a6146200016e5780637785c63014620001635780638926af0714620001585780638da5cb5b146200014d578063adeb468b1462000142578063b63ec9741462000137578063bdc1c709146200012c578063d8aed1451462000121578063ed4a376e1462000116578063f2fde38b146200010b578063f3b3132514620001005763fa4494e914620000f657600080fd5b6200000f62000fda565b506200000f62000dfb565b506200000f62000d60565b506200000f62000d3a565b506200000f62000c27565b506200000f62000c06565b506200000f62000bbb565b506200000f62000b9a565b506200000f62000b6e565b506200000f62000b48565b506200000f62000576565b506200000f620004e3565b506200000f62000490565b506200000f6200046a565b506200000f6200035b565b506200000f62000328565b506200000f620001e5565b50346200000f5760203660031901126200000f57620001ce62000ffb565b600435609d55005b908160c09103126200000f5790565b50346200000f5760603660031901126200000f5760043560443567ffffffffffffffff81116200000f576200021f903690600401620001d6565b620002296200150c565b60995473__$965b9be9fc5ba89821c2195a8bf360e455$__91906001600160a01b031690620002756200025b6200125d565b33815291856020840152602435604084015236906200132d565b6060820152823b156200000f5760405163122fd0c160e11b815292600092849283918291620002a8916004840162001563565b03915af480156200030c575b620002ee575b50337f08813a3631e12129135cc9440d3fea50eec346f1673b20b994b0456d5d46ccb9600080a3620002ec6001606555565b005b80620002fe6200030592620011dc565b806200031c565b38620002ba565b62000316620014ff565b620002b4565b60009103126200000f57565b50346200000f5760003660031901126200000f576020609b54604051908152f35b6001600160a01b038116036200000f57565b50346200000f5760a03660031901126200000f576004356200037d8162000349565b60803660231901126200000f57620003d660005491620003b760ff8460081c1615809481956200045b575b811562000438575b506200109d565b82620003cb600160ff196000541617600055565b6200041d5762001101565b620003dd57005b620003ee61ff001960005416600055565b604051600181527f7f26b83ff96e1f2b6a682f133852f6798a09c465da95921460cefb384740249890602090a1005b6200043261010061ff00196000541617600055565b62001101565b303b159150816200044c575b5038620003b0565b6001915060ff16143862000444565b600160ff8216109150620003a8565b50346200000f5760203660031901126200000f576200048862000ffb565b600435609a55005b50346200000f5760603660031901126200000f57620002ec600435620004b68162000349565b602435620004c48162000349565b60443591620004d38362000349565b620004dd62000ffb565b62001b90565b50346200000f5760008060031936011262000546576200050262000ffb565b603380546001600160a01b0319811690915581906001600160a01b03167f8be0079c531659141344cd1fd0a4f28419497f9722a3daafe3b4186f6b6457e08280a380f35b80fd5b60409060031901126200000f57600435620005648162000349565b90602435620005738162000349565b90565b50346200000f57620005883662000549565b906200059e620005988262001a42565b620015ae565b6099546040805163cfeed18160e01b8152602094926001600160a01b039081169291600491906200062c9088818581895afa90811562000b38575b60009162000b16575b5084516375151b6360e01b81526001600160a01b03881685820190815290918a9183919082900360200190829087165afa90811562000b06575b60009162000ae4575b5062001641565b62000683816200067b6200066e88620006578b60018060a01b03166000526097602052604060002090565b9060018060a01b0316600052602052604060002090565b546001600160a01b031690565b161562001698565b60335481906001600160a01b031681871695620007708562000741896000620006f88d8c519083826395d89b4160e01b9889825281885afa91821562000ad4575b849262000aab575b506001600160a01b03166000908152609860205260409020620006f1905b54620018eb565b906200174e565b938a8c518094819382525afa90811562000a9b575b60009162000a75575b506001600160a01b038c1660009081526098602052604090206200073a90620006ea565b90620017bd565b908989519586956128cc8088019088821067ffffffffffffffff83111762000a65575b62001bf6893962001820565b03906000f0801562000a55575b16968794818551809263095ea7b360e01b825281600081620007b88c8b8301919091604081019260018060a01b031681526020600019910152565b03925af1801562000a45575b62000a23575b506099546001600160a01b031684516200083a83868b6314d888d960e21b94858152838184818a5afa90811562000a13575b600091620009f1575b508a5163e985e9c560e01b81526001600160a01b0390911692810192835230602084015293849283918a918391604090910190565b0392165afa908115620009e1575b600091620009ad575b5015620008bb575b8662000886896200086c83828e62001b90565b6001600160a01b0316600090815260986020526040902090565b6200089281546200188e565b90557f2542f32ffb9d7022dcce911f06a04e1e188ce008c7842cbc0c6d00a6cb80389f600080a2005b8596508483949596939293518094819382525afa9182156200099d575b60009262000969575b50501691823b156200000f5751631578b62760e11b81526001600160a01b03851691810191825262000886946200086c93879386939160009183919082908490829060200103925af1801562000959575b62000942575b8196849562000859565b80620002fe6200095292620011dc565b3862000938565b62000963620014ff565b62000932565b6200098d9250803d1062000995575b6200098481836200123a565b8101906200160f565b3880620008e1565b503d62000978565b620009a7620014ff565b620008d8565b620009d29150843d8611620009d9575b620009c981836200123a565b81019062001627565b3862000851565b503d620009bd565b620009eb620014ff565b62000848565b62000a0c9150843d861162000995576200098481836200123a565b3862000805565b62000a1d620014ff565b620007fc565b62000a3d90823d8411620009d957620009c981836200123a565b5038620007ca565b62000a4f620014ff565b620007c4565b62000a5f620014ff565b6200077d565b62000a6f620011c5565b62000764565b62000a94913d8091833e62000a8b81836200123a565b810190620016e5565b3862000716565b62000aa5620014ff565b6200070d565b62000acb620006ea91620006f193943d8091833e62000a8b81836200123a565b929150620006cc565b62000ade620014ff565b620006c4565b62000aff9150893d8b11620009d957620009c981836200123a565b3862000625565b62000b10620014ff565b6200061c565b62000b319150893d8b1162000995576200098481836200123a565b38620005e2565b62000b42620014ff565b620005d9565b50346200000f5760203660031901126200000f5762000b6662000ffb565b600435609b55005b50346200000f5760003660031901126200000f576033546040516001600160a01b039091168152602090f35b50346200000f5760003660031901126200000f576020609d54604051908152f35b50346200000f57602062000bfc62000bd33662000549565b6001600160a01b0391821660009081526097855260408082209284168252602092909252209091565b5416604051908152f35b50346200000f5760003660031901126200000f576020609c54604051908152f35b50346200000f5760403660031901126200000f5760043562000c486200150c565b60995473__$77c5a84c43428e206d5bf08427df63fefa$__906001600160a01b031662000c746200127e565b3381528360208201526024356040820152823b156200000f5760408051634e0be51f60e11b81526001600160a01b03938416600482015282519093166024840152602082015160448401520151606482015290600090829060849082905af4801562000d2a575b62000d13575b50337f5c16de4f8b59bd9caf0f49a545f25819a895ed223294290b408242e72a594231600080a3620002ec6001606555565b80620002fe62000d2392620011dc565b3862000ce1565b62000d34620014ff565b62000cdb565b50346200000f5760203660031901126200000f5762000d5862000ffb565b600435609c55005b50346200000f5760203660031901126200000f5760043562000d828162000349565b62000d8c62000ffb565b6001600160a01b0381161562000da757620002ec9062001054565b60405162461bcd60e51b815260206004820152602660248201527f4f776e61626c653a206e6577206f776e657220697320746865207a65726f206160448201526564647265737360d01b6064820152608490fd5b50346200000f57610100806003193601126200000f576004359062000e208262000349565b6024359162000e2f8362000349565b604435916064359162000e428362000349565b6084359260e4359267ffffffffffffffff84116200000f57602062000f879362000f389262000e977f96558a334f4759f0e7c423d68c84721860bd8fbf94ddc4e55158ecb125ad04b5973690600401620001d6565b9062000ea26200150c565b60995462000f18906001600160a01b03169262000ed562000ec26200128f565b338152956001600160a01b031686880152565b6001600160a01b038d166040860152606085018c90526001600160a01b03881660808601528a60a086015260a43560c086015260c43560e086015236906200132d565b9083015260405163a6b290dd60e01b815293849283926004840162001452565b038173__$77c5a84c43428e206d5bf08427df63fefa$__5af4801562000fca575b62000f95575b506040805194855260208501959095526001600160a01b039081169516933393918291820190565b0390a4620002ec6001606555565b62000fba9060203d811162000fc2575b62000fb181836200123a565b810190620013ac565b503862000f5f565b503d62000fa5565b62000fd4620014ff565b62000f59565b50346200000f5760003660031901126200000f576020609a54604051908152f35b6033546001600160a01b031633036200101057565b606460405162461bcd60e51b815260206004820152602060248201527f4f776e61626c653a2063616c6c6572206973206e6f7420746865206f776e65726044820152fd5b603380546001600160a01b039283166001600160a01b0319821681179092559091167f8be0079c531659141344cd1fd0a4f28419497f9722a3daafe3b4186f6b6457e0600080a3565b15620010a557565b60405162461bcd60e51b815260206004820152602e60248201527f496e697469616c697a61626c653a20636f6e747261637420697320616c72656160448201526d191e481a5b9a5d1a585b1a5e995960921b6064820152608490fd5b6200111f60ff60005460081c16620011198162001164565b62001164565b6200112a3362001054565b60018060a01b03166bffffffffffffffffffffffff60a01b6099541617609955602435609a55604435609b55606435609c55608435609d55565b156200116c57565b60405162461bcd60e51b815260206004820152602b60248201527f496e697469616c697a61626c653a20636f6e7472616374206973206e6f74206960448201526a6e697469616c697a696e6760a81b6064820152608490fd5b50634e487b7160e01b600052604160045260246000fd5b67ffffffffffffffff8111620011f157604052565b620011fb620011c5565b604052565b60c0810190811067ffffffffffffffff821117620011f157604052565b6060810190811067ffffffffffffffff821117620011f157604052565b90601f8019910116810190811067ffffffffffffffff821117620011f157604052565b604051906080820182811067ffffffffffffffff821117620011f157604052565b604051906200128d826200121d565b565b60405190610120820182811067ffffffffffffffff821117620011f157604052565b60209067ffffffffffffffff8111620012d0575b601f01601f19160190565b620012da620011c5565b620012c5565b81601f820112156200000f57803590620012fa82620012b1565b926200130a60405194856200123a565b828452602083830101116200000f57816000926020809301838601378301015290565b919060c0838203126200000f5760405190620013498262001200565b8193803560ff811681036200000f5783526020810135602084015260408101356040840152606081013560608401526080810135608084015260a08101359167ffffffffffffffff83116200000f5760a092620013a79201620012e0565b910152565b908160209103126200000f575190565b60005b838110620013d05750506000910152565b8181015183820152602001620013bf565b90602091620013fc81518092818552858086019101620013bc565b601f01601f1916010190565b9060c060a0620005739360ff8151168452602081015160208501526040810151604085015260608101516060850152608081015160808501520151918160a08201520190620013e1565b6001600160a01b039182168152609760208201526060604082018190528351909216918101919091526200057391906101809060208301516001600160a01b0316608082015260408301516001600160a01b031660a0820152606083015160c082015260808301516001600160a01b031660e082015260a0830151610100908183015260c084015193610120948584015260e0810151610140840152015192610160820152019062001408565b506040513d6000823e3d90fd5b6002606554146200151e576002606555565b60405162461bcd60e51b815260206004820152601f60248201527f5265656e7472616e637947756172643a207265656e7472616e742063616c6c006044820152606490fd5b906060620005739360c09260018060a01b03809116855260406020860152815116604085015260208101518285015260408101516080850152015191608060a0820152019062001408565b15620015b657565b60405162461bcd60e51b815260206004820152602b60248201527f436f6c6c656374696f6e2061646472657373206973206e6f742045524337323160448201526a1031b7b6b83634b0b73a1760a91b6064820152608490fd5b908160209103126200000f5751620005738162000349565b908160209103126200000f575180151581036200000f5790565b156200164957565b60405162461bcd60e51b815260206004820152602160248201527f556e6465726c79696e67204173736574206973206e6f7420737570706f7274656044820152601960fa1b6064820152608490fd5b15620016a057565b60405162461bcd60e51b815260206004820152601b60248201527f4c656e64696e6720506f6f6c20616c72656164792065786973747300000000006044820152606490fd5b6020818303126200000f5780519067ffffffffffffffff82116200000f570181601f820112156200000f5780516200171d81620012b1565b926200172d60405194856200123a565b818452602082840101116200000f57620005739160208085019101620013bc565b60306200128d919392936040519485916503632a7232a160d51b602084015262001783815180926020602687019101620013bc565b820169204c656e64696e67202360b01b6026820152620017ad8251809360208785019101620013bc565b010360108101855201836200123a565b60246200128d91939293604051948591621b195360ea1b6020840152620017ef815180926020602387019101620013bc565b8201602d60f81b6023820152620018108251809360208785019101620013bc565b010360048101855201836200123a565b959492916200185b926200186a959260018060a01b0392838092168a52166020890152166040870152610120806060880152860190620013e1565b908482036080860152620013e1565b91609a5460a0820152609b5460c0820152609c5460e0820152610100609d54910152565b90600182018092116200189d57565b634e487b7160e01b600052601160045260246000fd5b90620018bf82620012b1565b620018ce60405191826200123a565b8281528092620018e1601f1991620012b1565b0190602036910137565b806000917a184f03e93ff9f4daa797ed6e38ed64bf6a1f0100000000000000008082101562001a33575b506d04ee2d6d415b85acef81000000008083101562001a23575b50662386f26fc100008083101562001a13575b506305f5e1008083101562001a03575b5061271080831015620019f3575b506064821015620019e2575b600a80921015620019d7575b6001908160216200198b828701620018b3565b95860101905b6200199e575b5050505090565b600019019083906f181899199a1a9b1b9c1cb0b131b232b360811b8282061a835304918215620019d15791908262001991565b62001997565b916001019162001978565b91906064600291049101916200196c565b6004919392049101913862001960565b6008919392049101913862001952565b6010919392049101913862001942565b602091939204910191386200192f565b60409350810491503862001915565b6040519060208083018160006301ffc9a760e01b958684528660248201526024815262001a6f816200121d565b51617530938685fa933d600051908662001b22575b508562001b17575b508462001aad575b5050508162001aa1575090565b62000573915062001b2e565b83945090600091839460405185810192835263ffffffff60e01b60248201526024815262001adb816200121d565b5192fa60005190913d8362001b0b575b50508162001b00575b50159038808062001a94565b905015153862001af4565b10159150388062001aeb565b151594503862001a8c565b84111595503862001a84565b6000602091604051838101906301ffc9a760e01b82526380ac58cd60e01b60248201526024815262001b60816200121d565b5191617530fa6000513d8262001b83575b508162001b7c575090565b9050151590565b6020111591503862001b71565b6001600160a01b03908116600081815260976020908152604080832095851680845295909152812080546001600160a01b03191695909316948517909255907f288817cea49f022db2036521d5e78e3cd16416913cf6a781d645930143dc31a49080a456fe60c080604052346200073a57620028cc80380380916200002082856200073f565b833981018181039061012082126200073a578251926001600160a01b03841684036200073a57620000546020820162000763565b6040820151909390926001600160a01b03841684036200073a5760608301516001600160401b0381116200073a57816200009091850162000794565b60808401519091906001600160401b0381116200073a57608091620000b791860162000794565b92609f1901126200073a576040519260808401906001600160401b0382118583101762000610576101009160405260a0810151855260c0810151602086015260e081015160408601520151606084015280519060018060401b038211620006105760035490600182811c921680156200072f575b6020831014620005ef5781601f849311620006bd575b50602090601f8311600114620006325760009262000626575b50508160011b916000199060031b1c1916176003555b8051906001600160401b038211620006105760045490600182811c9216801562000605575b6020831014620005ef5781601f8493116200057d575b50602090601f8311600114620004f257600092620004e6575b50508160011b916000199060031b1c1916176004555b620001e58262000847565b9015620004dd575b60a05281608052620001ff33620007fe565b6040516302690e7760e11b81526020816004816001600160a01b0389165afa908115620003b6576000916200049b575b506001600160a01b031633036200044757600680546001600160a01b039586166001600160a01b031991821681179092556007805496851696909116959095179094558051600c55602080820151600d55604080830151600e55606090920151600f55905163292bdab360e11b815293849060049082905afa928315620003b657600093620003fe575b506040516370a0823160e01b815230600482015290602090829060249082906001600160a01b03165afa8015620003b657600090620003c2575b600854604051633362bee560e11b8152600481019290925260248201529260209150839060449082906001600160a01b03165afa918215620003b65760009262000377575b506200034791600955620007fe565b604051611fc290816200090a8239608051818181610e160152818161183f0152611c9d015260a05181610e5f0152f35b6020813d602011620003ad575b8162000393602093836200073f565b81010312620003a9575191506200034762000338565b8280fd5b3d915062000384565b6040513d6000823e3d90fd5b6020823d602011620003f5575b81620003de602093836200073f565b81010312620003f2575060209051620002f3565b80fd5b3d9150620003cf565b90926020823d6020116200043e575b816200041c602093836200073f565b81010312620003f2575060206200043560249262000763565b939150620002b9565b3d91506200040d565b60405162461bcd60e51b815260206004820152602660248201527f52657365727665206d7573742062652063726561746564207468726f756768206044820152651b585c9ad95d60d21b6064820152608490fd5b906020823d602011620004d4575b81620004b8602093836200073f565b81010312620003f25750620004cd9062000763565b386200022f565b3d9150620004a9565b506012620001ed565b015190503880620001c4565b600460009081527f8a35acfbc15ff81a39ae7d344fd709f28e8600b4aa8c65c6b64bfe7fe36bd19b9350601f198516905b8181106200056457509084600195949392106200054a575b505050811b01600455620001da565b015160001960f88460031b161c191690553880806200053b565b9293602060018192878601518155019501930162000523565b60046000529091507f8a35acfbc15ff81a39ae7d344fd709f28e8600b4aa8c65c6b64bfe7fe36bd19b601f840160051c810160208510620005e7575b90849392915b601f830160051c82018110620005d7575050620001ab565b60008155859450600101620005bf565b5080620005b9565b634e487b7160e01b600052602260045260246000fd5b91607f169162000195565b634e487b7160e01b600052604160045260246000fd5b0151905038806200015a565b600360009081527fc2575a0e9e593c00f959f8c92f12db2869c3395a3b0502d05e2516446f71f85b9350601f198516905b818110620006a457509084600195949392106200068a575b505050811b0160035562000170565b015160001960f88460031b161c191690553880806200067b565b9293602060018192878601518155019501930162000663565b60036000529091507fc2575a0e9e593c00f959f8c92f12db2869c3395a3b0502d05e2516446f71f85b601f840160051c81016020851062000727575b90849392915b601f830160051c820181106200071757505062000141565b60008155859450600101620006ff565b5080620006f9565b91607f16916200012b565b600080fd5b601f909101601f19168101906001600160401b038211908210176200061057604052565b51906001600160a01b03821682036200073a57565b6001600160401b0381116200061057601f01601f191660200190565b919080601f840112156200073a57825190620007b08262000778565b91620007c060405193846200073f565b8083526020918282870101116200073a5760005b818110620007ea57508260009394955001015290565b8581018301518482018401528201620007d4565b600580546001600160a01b039283166001600160a01b0319821681179092559091167f8be0079c531659141344cd1fd0a4f28419497f9722a3daafe3b4186f6b6457e0600080a3565b6040805163313ce56760e01b60208201908152600482529293929181016001600160401b0381118282101762000610576040525160009384928392916001600160a01b03165afa3d1562000900573d90620008a28262000778565b91620008b260405193846200073f565b82523d84602084013e5b80620008f3575b620008ce575b508190565b602081805181010312620003a9576020015160ff8111620008c9576001925060ff1690565b50602081511015620008c3565b606090620008bc56fe604060808152600480361015610015575b600080fd5b600091823560e01c90816301e1d1141461107e57816306fdde0314610f8a57816307a2d13a14610c83578163095ea7b314610f605781630a28a47714610f3f57816314a6bf0f14610f2057816318160ddd14610f015781631e522b2914610ee257816323b872dd14610ea55781632806a74314610e83578163313ce56714610e4557816338d52e0f14610e015781633950935114610db1578163402d267d14610d8a5781634a417a5314610c8f5781634cdad50614610c83578163545039c614610bfe57816365ec417614610bdc5781636e553f6514610b5257816370a08231146103aa578163715018a614610af557816384bdc9a814610a9a5781638da5cb5b14610a7157816394bf804d14610a1a57816395d89b4114610916578163a225869414610855578163a457c2d7146107b1578163a4b84e0a14610792578163a663f830146106bd578163a880e68b1461069e578163a9059cbb1461066d578163b3d7f6b91461062a578163b460af9414610578578163ba087652146104c8578163ba1c5e80146104a9578163bedb86fb14610472578163c63d75b61461044b578163c6e6f59214610331578163ce96cb77146103e6578163d905777e146103aa578163dd62ed3e14610361578163e2c674391461033d578163ef8b30f714610331578163f2fde38b14610260578163fbf4198414610241575063fef0bec81461021d57600080fd5b3461023d57602036600319011261023d576102366111dc565b35600d5580f35b5080fd5b83903461023d578160031936011261023d57602090600d549051908152f35b9190503461032d57602036600319011261032d5761027c61112e565b906102856111dc565b6001600160a01b039182169283156102db575050600554826bffffffffffffffffffffffff60a01b821617600555167f8be0079c531659141344cd1fd0a4f28419497f9722a3daafe3b4186f6b6457e08380a380f35b906020608492519162461bcd60e51b8352820152602660248201527f4f776e61626c653a206e6577206f776e657220697320746865207a65726f206160448201526564647265737360d01b6064820152fd5b8280fd5b505050506100106111bd565b83903461023d578160031936011261023d5760209061035a611717565b9051908152f35b83903461023d578060031936011261023d578060209261037f61112e565b610387611144565b6001600160a01b0391821683526001865283832091168252845220549051908152f35b83903461023d57602036600319011261023d5760209061035a6103cb61112e565b6001600160a01b031660009081526020819052604090205490565b83903461023d57602036600319011261023d576020916001600160a01b0361040c61112e565b16815280835281902054600254806104275750905b51908152f35b6104459161043f600854610439611717565b90611280565b90611694565b90610421565b83903461023d57602036600319011261023d5760209061046961112e565b50516000198152f35b50503461023d57602036600319011261023d573580151580910361023d576104986111dc565b60ff8019600b5416911617600b5580f35b83903461023d578160031936011261023d576020906009549051908152f35b83833461023d576104d836611188565b9390919260018060a01b03851682528160205285822054841161053557505060025460209492610421929091806105155750819485915b33611b8d565b61052d90610527600854610439611717565b84611694565b94859161050f565b606490602087519162461bcd60e51b8352820152601d60248201527f455243343632363a2072656465656d206d6f7265207468616e206d61780000006044820152fd5b8284346106275761058836611188565b6001600160a01b038116845260208490529285902054600254939491938061061057505b82116105cd575060209391816105c4610421936115de565b94859233611b8d565b606490602086519162461bcd60e51b8352820152601f60248201527f455243343632363a207769746864726177206d6f7265207468616e206d6178006044820152fd5b6106229161043f600854610439611717565b6105ac565b80fd5b9190503461032d57602036600319011261032d57600254602093509035908061065557509051908152f35b61044591610667600854610439611717565b9061164a565b83903461023d578060031936011261023d5760209061069761068d61112e565b60243590336112a3565b5160018152f35b83903461023d578160031936011261023d57602090600f549051908152f35b9190503461032d576106ce3661115a565b60065486516302690e7760e11b8152929691959394936001600160a01b0393916020918391829087165afa9182156107895750928261072461073f94610745979461074d9a978c9161075b575b50163314611e05565b61073360ff600b54161561178f565b6007541690309161195f565b82611f3d565b600854611e51565b600855610758611e5e565b80f35b61077c915060203d8111610782575b610774818361125e565b810190611de6565b3861071b565b503d61076a565b513d89823e3d90fd5b83903461023d578160031936011261023d57602090600e549051908152f35b8284346106275782600319360112610627576107cb61112e565b918360243592338152600160205281812060018060a01b0386168252602052205490828210610804576020856106978585038733611411565b608490602086519162461bcd60e51b8352820152602560248201527f45524332303a2064656372656173656420616c6c6f77616e63652062656c6f77604482015264207a65726f60d81b6064820152fd5b90503461032d57606036600319011261032d5761087061112e565b916024359160018060a01b0391602083600654168351928380926302690e7760e11b82525afa91821561090d575093826108bc6108d494869461074d988a9161075b5750163314611e05565b6108cb60ff600b54161561178f565b60075416611da5565b6008546109056108f56108e9600a5484611f2a565b61043960443586611f2a565b6108ff8484611280565b9061168a565b600a55611280565b513d87823e3d90fd5b8391503461023d578160031936011261023d57805191809380549160019083821c92828516948515610a10575b60209586861081146109fd578589529081156109d95750600114610981575b61097d8787610973828c038361125e565b51918291826110a1565b0390f35b81529295507f8a35acfbc15ff81a39ae7d344fd709f28e8600b4aa8c65c6b64bfe7fe36bd19b5b8284106109c6575050508261097d9461097392820101948680610962565b80548685018801529286019281016109a8565b60ff19168887015250505050151560051b83010192506109738261097d8680610962565b634e487b7160e01b845260228352602484fd5b93607f1693610943565b8391503461023d578060031936011261023d5761042160209335610a3c611144565b60025490945080610a5257508080945b336117cf565b610a6a90610a64600854610439611717565b8361164a565b8094610a4c565b83903461023d578160031936011261023d5760055490516001600160a01b039091168152602090f35b83903461023d578160031936011261023d5760209190600854610ac4610abe611717565b82611280565b610ad0575b5051908152f35b610aee9192506108ff610ae582600a54611f2a565b91610439611717565b9083610ac9565b8334610627578060031936011261062757610b0e6111dc565b600580546001600160a01b0319811690915581906001600160a01b03167f8be0079c531659141344cd1fd0a4f28419497f9722a3daafe3b4186f6b6457e08280a380f35b82843461062757826003193601126106275750803590610b70611144565b90610b796115ab565b8311610b99575091610421602093610b9084611614565b938491336117cf565b606490602085519162461bcd60e51b8352820152601e60248201527f455243343632363a206465706f736974206d6f7265207468616e206d617800006044820152fd5b50503461023d57602036600319011261023d57610bf76111dc565b35600f5580f35b9190503461032d57610c0f3661115a565b9193909460018060a01b0391602083600654168351928380926302690e7760e11b82525afa918215610789575092610c7b83610c6161073f95610745989561074d9b988d9161075b5750163314611e05565b610c7060ff600b54161561178f565b600754169187611280565b91309161195f565b505050506100106110ea565b8391503461023d578160031936011261023d57600654815163292bdab360e11b815260209490916001600160a01b039190869084908390829086165afa928315610d8057908692918694610d5e575b50604490610cea611717565b9260085495875196879586946342e4b18360e11b86528501526024840152165afa928315610d53578093610d21575b505051908152f35b909192508382813d8311610d4c575b610d3a818361125e565b81010312610627575051908380610d19565b503d610d30565b8251903d90823e3d90fd5b6044919450610d7990843d861161078257610774818361125e565b9390610cde565b84513d87823e3d90fd5b83903461023d57602036600319011261023d57602090610da861112e565b5061035a6115ab565b83903461023d578060031936011261023d57610697602092610dfa610dd461112e565b338352600186528483206001600160a01b03821684528652918490205460243590611280565b9033611411565b83903461023d578160031936011261023d57517f00000000000000000000000000000000000000000000000000000000000000006001600160a01b03168152602090f35b83903461023d578160031936011261023d576020905160ff7f0000000000000000000000000000000000000000000000000000000000000000168152f35b50503461023d57602036600319011261023d57610e9e6111dc565b35600c5580f35b83903461023d57606036600319011261023d57602090610697610ec661112e565b610ece611144565b60443591610edd833383611513565b6112a3565b83903461023d578160031936011261023d57602090600c549051908152f35b83903461023d578160031936011261023d576020906002549051908152f35b83903461023d578160031936011261023d576020906008549051908152f35b90508234610627576020366003190112610627575061035a602092356115de565b83903461023d578060031936011261023d57602090610697610f8061112e565b6024359033611411565b90503461032d578260031936011261032d57805191836003549060019082821c928281168015611074575b6020958686108214611061575084885290811561103f5750600114610fe6575b61097d8686610973828b038361125e565b929550600383527fc2575a0e9e593c00f959f8c92f12db2869c3395a3b0502d05e2516446f71f85b5b82841061102c575050508261097d94610973928201019438610fd5565b805486850188015292860192810161100f565b60ff191687860152505050151560051b83010192506109738261097d38610fd5565b634e487b7160e01b845260229052602483fd5b93607f1693610fb5565b83903461023d578160031936011261023d5760209061035a600854610439611717565b6020808252825181830181905290939260005b8281106110d657505060409293506000838284010152601f8019910116010190565b8181018601518482016040015285016110b4565b5034610010576020366003190112610010576020600435600254801560001461111757505b604051908152f35b6111299161043f600854610439611717565b61110f565b600435906001600160a01b038216820361001057565b602435906001600160a01b038216820361001057565b6080906003190112610010576004356001600160a01b03811681036100105790602435906044359060643590565b606090600319011261001057600435906001600160a01b03906024358281168103610010579160443590811681036100105790565b503461001057602036600319011261001057602061110f600435611614565b6005546001600160a01b031633036111f057565b606460405162461bcd60e51b815260206004820152602060248201527f4f776e61626c653a2063616c6c6572206973206e6f7420746865206f776e65726044820152fd5b67ffffffffffffffff811161124857604052565b634e487b7160e01b600052604160045260246000fd5b90601f8019910116810190811067ffffffffffffffff82111761124857604052565b9190820180921161128d57565b634e487b7160e01b600052601160045260246000fd5b6001600160a01b039081169182156113be571691821561136d5760008281528060205260408120549180831061131957604082827fddf252ad1be2c89b69c2b068fc378daa952ba7f163c4a11628f55a4df523b3ef958760209652828652038282205586815220818154019055604051908152a3565b60405162461bcd60e51b815260206004820152602660248201527f45524332303a207472616e7366657220616d6f756e7420657863656564732062604482015265616c616e636560d01b6064820152608490fd5b60405162461bcd60e51b815260206004820152602360248201527f45524332303a207472616e7366657220746f20746865207a65726f206164647260448201526265737360e81b6064820152608490fd5b60405162461bcd60e51b815260206004820152602560248201527f45524332303a207472616e736665722066726f6d20746865207a65726f206164604482015264647265737360d81b6064820152608490fd5b6001600160a01b039081169182156114c257169182156114725760207f8c5be1e5ebec7d5bd14f71427d1e84f3dd0314c0f7b2291e5b200ac8c7c3b925918360005260018252604060002085600052825280604060002055604051908152a3565b60405162461bcd60e51b815260206004820152602260248201527f45524332303a20617070726f766520746f20746865207a65726f206164647265604482015261737360f01b6064820152608490fd5b60405162461bcd60e51b8152602060048201526024808201527f45524332303a20617070726f76652066726f6d20746865207a65726f206164646044820152637265737360e01b6064820152608490fd5b9060018060a01b038083166000526001602052604060002090821660005260205260406000205492600019840361154b575b50505050565b8084106115665761155d930391611411565b38808080611545565b60405162461bcd60e51b815260206004820152601d60248201527f45524332303a20696e73756666696369656e7420616c6c6f77616e63650000006044820152606490fd5b6115b9600854610439611717565b158015906115d4575b600090156115d1575060001990565b90565b50600254156115c2565b6002548115801561160c575b156115f3575090565b906115d191611606600854610439611717565b9161164a565b5080156115ea565b60025481158015611642575b15611629575090565b906115d19161163c600854610439611717565b91611694565b508015611620565b9190611657828285611694565b92821561167457096116665790565b6001810180911161128d5790565b634e487b7160e01b600052601260045260246000fd5b8115611674570490565b91600019828409928281029283808610950394808603951461170a5784831115610010578291096001821901821680920460028082600302188083028203028083028203028083028203028083028203028083028203028092029003029360018380600003040190848311900302920304170290565b5050906115d1925061168a565b6007546040516370a0823160e01b815230600482015290602090829060249082906001600160a01b03165afa90811561178357600091611755575090565b906020823d821161177b575b8161176e6020938361125e565b8101031261062757505190565b3d9150611761565b6040513d6000823e3d90fd5b1561179657565b60405162461bcd60e51b815260206004820152601160248201527014995cd95c9d99481a5cc81c185d5cd959607a1b6044820152606490fd5b600b54600095949392906117e69060ff161561178f565b73__$5201a97c05ba6aa659e2f36a933dd51801$__91823b1561195b576040805163521f866b60e11b81523060048201526024810186905290938890829060449082905af480156119515761193e575b506118638430837f000000000000000000000000000000000000000000000000000000000000000061195f565b6001600160a01b039182169485156118fa57857fdcbc1c05240f31ff3ad067ef1ee35ce4997762752e3a095284754544f4c709d7959697986118a783600254611280565b600255818152806020528581208381540190557fddf252ad1be2c89b69c2b068fc378daa952ba7f163c4a11628f55a4df523b3ef60208751858152a3835195865260208601521692a36118f8611e5e565b565b835162461bcd60e51b815260206004820152601f60248201527f45524332303a206d696e7420746f20746865207a65726f2061646472657373006044820152606490fd5b61194a90979197611234565b9538611836565b84513d8a823e3d90fd5b8680fd5b6040516323b872dd60e01b60208201526001600160a01b03928316602482015292909116604483015260648083019390935291815260a081019181831067ffffffffffffffff841117611248576118f8926040525b60018060a01b0316906040516040810167ffffffffffffffff9082811082821117611248576040526020938483527f5361666545524332303a206c6f772d6c6576656c2063616c6c206661696c6564858401526000808587829751910182855af1903d15611aed573d928311611ad95790611a4f93929160405192611a4288601f19601f840116018561125e565b83523d868885013e611af8565b805180611a5c5750505050565b8184918101031261023d57820151908115918215036106275750611a8257808080611545565b6084906040519062461bcd60e51b82526004820152602a60248201527f5361666545524332303a204552433230206f7065726174696f6e20646964206e6044820152691bdd081cdd58d8d9595960b21b6064820152fd5b634e487b7160e01b85526041600452602485fd5b90611a4f9392506060915b91929015611b5a5750815115611b0c575090565b3b15611b155790565b60405162461bcd60e51b815260206004820152601d60248201527f416464726573733a2063616c6c20746f206e6f6e2d636f6e74726163740000006044820152606490fd5b825190915015611b6d5750805190602001fd5b60405162461bcd60e51b8152908190611b8990600483016110a1565b0390fd5b90949394929192600b5495611ba760ff600098161561178f565b73__$5201a97c05ba6aa659e2f36a933dd51801$__91823b15611da1576040805163521f866b60e11b81523060048201526024810187905290938990829060449082905af48015611d9757611d84575b506001600160a01b0386811696858216959193918290898803611d73575b5050508615611d2557868952886020528389205498818a10611cd6578188999a7ffbde797d201c681b91056529119e0b02407c7bb96a4a2c75c01fc9667232c8db97989983528260205203858220558160025403600255887fddf252ad1be2c89b69c2b068fc378daa952ba7f163c4a11628f55a4df523b3ef60208751858152a3611cc187837f0000000000000000000000000000000000000000000000000000000000000000611da5565b835196875260208701521693a46118f8611e5e565b845162461bcd60e51b815260206004820152602260248201527f45524332303a206275726e20616d6f756e7420657863656564732062616c616e604482015261636560f01b6064820152608490fd5b835162461bcd60e51b815260206004820152602160248201527f45524332303a206275726e2066726f6d20746865207a65726f206164647265736044820152607360f81b6064820152608490fd5b611d7c92611513565b388181611c15565b611d9090989198611234565b9638611bf7565b84513d8b823e3d90fd5b8780fd5b60405163a9059cbb60e01b60208201526001600160a01b039290921660248301526044808301939093529181526118f891611de160648361125e565b6119b4565b9081602091031261001057516001600160a01b03811681036100105790565b15611e0c57565b60405162461bcd60e51b815260206004820152601f60248201527f43616c6c657273206d757374206265204d61726b657420636f6e7472616374006044820152606490fd5b9190820391821161128d57565b60065460405163292bdab360e11b8152906020906001600160a01b039082908490600490829085165afa92831561178357600093611f09575b5081906044611ea4611717565b600854926040519687948593633362bee560e11b855260048501526024840152165afa90811561178357600091611edd575b5060095550565b82813d8311611f02575b611ef1818361125e565b810103126106275750518038611ed6565b503d611ee7565b82919350611f2390823d841161078257610774818361125e565b9290611e97565b8181029291811591840414171561128d57565b9060085490611f4c8383611e51565b611f5a575050506000600a55565b611f8792611f816108ff92611f7b611f74600a5487611f2a565b9184611f2a565b90611e51565b92611e51565b600a5556fea2646970667358221220ac7d7b8196b309db7ecc4426c090efc6926887b21f60b840ffb9950f3baaf27764736f6c63430008110033a2646970667358221220b15f7dd5c8bb81afa4c7ceee0f33f7436f617c7fc30189881a11421ec27e501464736f6c63430008110033",
  "linkReferences": {
    "contracts/libraries/logic/BorrowLogic.sol": {
      "BorrowLogic": [
        {
          "length": 20,
          "start": 3177
        },
        {
          "length": 20,
          "start": 3928
        }
      ]
    },
    "contracts/libraries/logic/LiquidationLogic.sol": {
      "LiquidationLogic": [
        {
          "length": 20,
          "start": 586
        }
      ]
    },
    "contracts/libraries/logic/ValidationLogic.sol": {
      "ValidationLogic": [
        {
          "length": 20,
          "start": 15620
        },
        {
          "length": 20,
          "start": 16581
        }
      ]
    }
  },
  "deployedLinkReferences": {
    "contracts/libraries/logic/BorrowLogic.sol": {
      "BorrowLogic": [
        {
          "length": 20,
          "start": 3149
        },
        {
          "length": 20,
          "start": 3900
        }
      ]
    },
    "contracts/libraries/logic/LiquidationLogic.sol": {
      "LiquidationLogic": [
        {
          "length": 20,
          "start": 558
        }
      ]
    },
    "contracts/libraries/logic/ValidationLogic.sol": {
      "ValidationLogic": [
        {
          "length": 20,
          "start": 15592
        },
        {
          "length": 20,
          "start": 16553
        }
      ]
    }
  }
}