{
  "_format": "hh-sol-artifact-1",
  "contractName": "LendingGauge",
  "sourceName": "contracts/protocol/Gauges/LendingGauge.sol",
  "abi": [
    {
      "inputs": [
        {
          "internalType": "contract IAddressesProvider",
          "name": "addressProvider",
          "type": "address"
        },
        {
          "internalType": "address",
          "name": "lpToken_",
          "type": "address"
        }
      ],
      "stateMutability": "nonpayable",
      "type": "constructor"
    },
    {
      "inputs": [
        {
          "internalType": "address",
          "name": "user",
          "type": "address"
        }
      ],
      "name": "balanceOf",
      "outputs": [
        {
          "internalType": "uint256",
          "name": "",
          "type": "uint256"
        }
      ],
      "stateMutability": "view",
      "type": "function"
    },
    {
      "inputs": [],
      "name": "claim",
      "outputs": [
        {
          "internalType": "uint256",
          "name": "amountToClaim",
          "type": "uint256"
        }
      ],
      "stateMutability": "nonpayable",
      "type": "function"
    },
    {
      "inputs": [
        {
          "internalType": "uint256",
          "name": "amount",
          "type": "uint256"
        }
      ],
      "name": "deposit",
      "outputs": [],
      "stateMutability": "nonpayable",
      "type": "function"
    },
    {
      "inputs": [
        {
          "internalType": "uint256",
          "name": "tokenId",
          "type": "uint256"
        }
      ],
      "name": "kick",
      "outputs": [],
      "stateMutability": "nonpayable",
      "type": "function"
    },
    {
      "inputs": [],
      "name": "lpToken",
      "outputs": [
        {
          "internalType": "address",
          "name": "",
          "type": "address"
        }
      ],
      "stateMutability": "view",
      "type": "function"
    },
    {
      "inputs": [
        {
          "internalType": "bytes4",
          "name": "interfaceId",
          "type": "bytes4"
        }
      ],
      "name": "supportsInterface",
      "outputs": [
        {
          "internalType": "bool",
          "name": "",
          "type": "bool"
        }
      ],
      "stateMutability": "view",
      "type": "function"
    },
    {
      "inputs": [],
      "name": "totalSupply",
      "outputs": [
        {
          "internalType": "uint256",
          "name": "",
          "type": "uint256"
        }
      ],
      "stateMutability": "view",
      "type": "function"
    },
    {
      "inputs": [
        {
          "internalType": "address",
          "name": "user",
          "type": "address"
        }
      ],
      "name": "userBoost",
      "outputs": [
        {
          "internalType": "uint256",
          "name": "",
          "type": "uint256"
        }
      ],
      "stateMutability": "view",
      "type": "function"
    },
    {
      "inputs": [
        {
          "internalType": "address",
          "name": "user",
          "type": "address"
        }
      ],
      "name": "userMaturityMultiplier",
      "outputs": [
        {
          "internalType": "uint256",
          "name": "",
          "type": "uint256"
        }
      ],
      "stateMutability": "view",
      "type": "function"
    },
    {
      "inputs": [
        {
          "internalType": "uint256",
          "name": "amount",
          "type": "uint256"
        }
      ],
      "name": "withdraw",
      "outputs": [],
      "stateMutability": "nonpayable",
      "type": "function"
    },
    {
      "inputs": [],
      "name": "writeTotalWeightHistory",
      "outputs": [],
      "stateMutability": "nonpayable",
      "type": "function"
    }
  ],
  "bytecode": "0x60806040523480156200001157600080fd5b5060405162001d6f38038062001d6f83398101604081905262000034916200010c565b600080546001600160a01b038085166001600160a01b0319928316178355600780549185169190921617905560408051602081019091529081526200007e90600690600162000087565b5050506200014b565b828054828255906000526020600020908101928215620000ca579160200282015b82811115620000ca578251829060ff16905591602001919060010190620000a8565b50620000d8929150620000dc565b5090565b5b80821115620000d85760008155600101620000dd565b6001600160a01b03811681146200010957600080fd5b50565b600080604083850312156200012057600080fd5b82516200012d81620000f3565b60208401519092506200014081620000f3565b809150509250929050565b611c14806200015b6000396000f3fe608060405234801561001057600080fd5b50600436106100a95760003560e01c80635fcbd285116100715780635fcbd2851461011c57806370a082311461013757806387da75ef14610160578063b6b55f2514610168578063ce0cf1a51461017b578063d02a2bee1461018e57600080fd5b806301ffc9a7146100ae57806318160ddd146100d65780632e1a7d4d146100ec5780633a631ed8146101015780634e71d92d14610114575b600080fd5b6100c16100bc36600461199d565b6101a1565b60405190151581526020015b60405180910390f35b6100de6101d8565b6040519081526020016100cd565b6100ff6100fa3660046119c7565b61024a565b005b6100de61010f3660046119f5565b6102f5565b6100de61037e565b6007546040516001600160a01b0390911681526020016100cd565b6100de6101453660046119f5565b6001600160a01b031660009081526001602052604090205490565b6100ff610d25565b6100ff6101763660046119c7565b610e6b565b6100ff6101893660046119c7565b610eea565b6100de61019c3660046119f5565b611055565b60006001600160e01b03198216635fcbd28560e01b14806101d257506301ffc9a760e01b6001600160e01b03198316145b92915050565b6007546040516370a0823160e01b81523060048201526000916001600160a01b0316906370a0823190602401602060405180830381865afa158015610221573d6000803e3d6000fd5b505050506040513d601f19601f820116820180604052508101906102459190611a12565b905090565b336000908152600160205260409020548111156102ae5760405162461bcd60e51b815260206004820152601b60248201527f4c473a573a414d4f554e545f455843454544535f42414c414e4345000000000060448201526064015b60405180910390fd5b33600090815260016020526040812080548392906102cd908490611a41565b90915550506007546102e9906001600160a01b031633836110f1565b6102f233611154565b50565b6001600160a01b03811660009081526002602052604081205480820361031e5750600092915050565b6001600160a01b038316600090815260026020526040902061037790610345600184611a41565b8154811061035557610355611a54565b906000526020600020906003020160020154426103729190611a41565b61150d565b9392505050565b600061038933611154565b60008060009054906101000a90046001600160a01b03166001600160a01b03166308b0308a6040518163ffffffff1660e01b8152600401602060405180830381865afa1580156103dd573d6000803e3d6000fd5b505050506040513d601f19601f820116820180604052508101906104019190611a6a565b905060008060009054906101000a90046001600160a01b03166001600160a01b03166358de9ade6040518163ffffffff1660e01b8152600401602060405180830381865afa158015610457573d6000803e3d6000fd5b505050506040513d601f19601f8201168201806040525081019061047b9190611a6a565b3360009081526002602052604081205491925081900361049f576000935050505090565b3360009081526004602052604081205490036105715733600090815260026020526040812080546001600160a01b0386169263bc0bc6ba92916104e4576104e4611a54565b9060005260206000209060030201600201546040518263ffffffff1660e01b815260040161051491815260200190565b602060405180830381865afa158015610531573d6000803e3d6000fd5b505050506040513d601f19601f820116820180604052508101906105559190611a12565b610560906001611a87565b336000908152600460205260409020555b6000805b6032811015610c3f5733600090815260046020819052604091829020549151635e05e35d60e11b81529193506001600160a01b0387169163bc0bc6ba916105c29142910190815260200190565b602060405180830381865afa1580156105df573d6000803e3d6000fd5b505050506040513d601f19601f820116820180604052508101906106039190611a12565b821015610c3f5733600090815260026020908152604080832060039092528220548154811061063457610634611a54565b90600052602060002090600302016040518060600160405290816000820154815260200160018201548152602001600282015481525050905060018461067a9190611a41565b33600090815260036020526040902054036107b9576000600684815481106106a4576106a4611a54565b9060005260206000200154111561079457612710600684815481106106cb576106cb611a54565b90600052602060002001546106e09190611a9a565b6106f38260400151426103729190611a41565b60208301516040516315a8752360e31b8152306004820152602481018790526001600160a01b0389169063ad43a918906044016020604051808303816000875af1158015610745573d6000803e3d6000fd5b505050506040513d601f19601f820116820180604052508101906107699190611a12565b6107739190611a9a565b61077d9190611a9a565b6107879190611ab1565b6107919088611a87565b96505b3360009081526004602052604081208054916107af83611ad3565b9190505550610c2c565b33600090815260026020908152604080832060039092528220546107de906001611a87565b815481106107ee576107ee611a54565b906000526020600020906003020160405180606001604052908160008201548152602001600182015481526020016002820154815250509050866001600160a01b031663bc0bc6ba83604001516040518263ffffffff1660e01b815260040161085991815260200190565b602060405180830381865afa158015610876573d6000803e3d6000fd5b505050506040513d601f19601f8201168201806040525081019061089a9190611a12565b6040828101519051635e05e35d60e11b815260048101919091526001600160a01b0389169063bc0bc6ba90602401602060405180830381865afa1580156108e5573d6000803e3d6000fd5b505050506040513d601f19601f820116820180604052508101906109099190611a12565b036109335733600090815260036020526040812080549161092983611ad3565b9190505550610c2a565b6040808201519051635e05e35d60e11b815285916001600160a01b038a169163bc0bc6ba916109689160040190815260200190565b602060405180830381865afa158015610985573d6000803e3d6000fd5b505050506040513d601f19601f820116820180604052508101906109a99190611a12565b03610b00576000600685815481106109c3576109c3611a54565b90600052602060002001541180156109dd57508051825111155b15610ac557612710600685815481106109f8576109f8611a54565b9060005260206000200154610a0d9190611a9a565b8260200151610a29846040015184604001516103729190611a41565b6040516315a8752360e31b8152306004820152602481018890526001600160a01b038a169063ad43a918906044016020604051808303816000875af1158015610a76573d6000803e3d6000fd5b505050506040513d601f19601f82011682018060405250810190610a9a9190611a12565b610aa49190611a9a565b610aae9190611a9a565b610ab89190611ab1565b610ac29089611a87565b97505b336000908152600360205260408120805491610ae083611ad3565b909155505033600090815260046020526040812080549161092983611ad3565b600060068581548110610b1557610b15611a54565b90600052602060002001541115610c095761271060068581548110610b3c57610b3c611a54565b9060005260206000200154610b519190611a9a565b8260200151610b6d846040015184604001516103729190611a41565b6040516315a8752360e31b8152306004820152602481018890526001600160a01b038a169063ad43a918906044016020604051808303816000875af1158015610bba573d6000803e3d6000fd5b505050506040513d601f19601f82011682018060405250810190610bde9190611a12565b610be89190611a9a565b610bf29190611a9a565b610bfc9190611ab1565b610c069089611a87565b97505b336000908152600460205260408120805491610c2483611ad3565b91905055505b505b5080610c3781611ad3565b915050610575565b508415610d1e5760008054906101000a90046001600160a01b03166001600160a01b03166315b9ba5d6040518163ffffffff1660e01b8152600401602060405180830381865afa158015610c97573d6000803e3d6000fd5b505050506040513d601f19601f82011682018060405250810190610cbb9190611a6a565b604051631ec9887760e11b8152336004820152602481018790526001600160a01b039190911690633d9310ee90604401600060405180830381600087803b158015610d0557600080fd5b505af1158015610d19573d6000803e3d6000fd5b505050505b5050505090565b60008060009054906101000a90046001600160a01b03166001600160a01b03166308b0308a6040518163ffffffff1660e01b8152600401602060405180830381865afa158015610d79573d6000803e3d6000fd5b505050506040513d601f19601f82011682018060405250810190610d9d9190611a6a565b604051635e05e35d60e11b81524260048201526001600160a01b03919091169063bc0bc6ba90602401602060405180830381865afa158015610de3573d6000803e3d6000fd5b505050506040513d601f19601f82011682018060405250810190610e079190611a12565b905060005b6080811015610e6757600654821115610e6757600554600680546001810182556000919091527ff652222313e28459528d920b65115c16c04f3efc82aaedc97be59f3f377c0d3f015580610e5f81611ad3565b915050610e0c565b5050565b60008111610eae5760405162461bcd60e51b815260206004820152601060248201526f4c473a443a414d4f554e545f5a45524f60801b60448201526064016102a5565b3360009081526001602052604081208054839290610ecd908490611a87565b90915550506007546102e9906001600160a01b03163330846116e7565b60008060009054906101000a90046001600160a01b03166001600160a01b03166308b0308a6040518163ffffffff1660e01b8152600401602060405180830381865afa158015610f3e573d6000803e3d6000fd5b505050506040513d601f19601f82011682018060405250810190610f629190611a6a565b60405163d68f4dd160e01b8152600481018490529091506000906001600160a01b0383169063d68f4dd1906024016040805180830381865afa158015610fac573d6000803e3d6000fd5b505050506040513d601f19601f82011682018060405250810190610fd09190611aec565b60200151905042811015611050576040516331a9108f60e11b815260048101849052611050906001600160a01b03841690636352211e90602401602060405180830381865afa158015611027573d6000803e3d6000fd5b505050506040513d601f19601f8201168201806040525081019061104b9190611a6a565b611154565b505050565b6001600160a01b038116600090815260016020526040812054810361107c57506000919050565b6001600160a01b03821660009081526001602081815260408084205460029092529092208054612710926110af91611a41565b815481106110bf576110bf611a54565b90600052602060002090600302016001015460026110dd9190611a9a565b6110e79190611a9a565b6101d29190611ab1565b6040516001600160a01b03831660248201526044810182905261105090849063a9059cbb60e01b906064015b60408051601f198184030181529190526020810180516001600160e01b03166001600160e01b031990931692909217909152611725565b60008060009054906101000a90046001600160a01b03166001600160a01b03166308b0308a6040518163ffffffff1660e01b8152600401602060405180830381865afa1580156111a8573d6000803e3d6000fd5b505050506040513d601f19601f820116820180604052508101906111cc9190611a6a565b9050806001600160a01b03166387da75ef6040518163ffffffff1660e01b8152600401600060405180830381600087803b15801561120957600080fd5b505af115801561121d573d6000803e3d6000fd5b50506040516301924b8d60e71b81526001600160a01b038581166004830152600093508416915063c925c68090602401602060405180830381865afa15801561126a573d6000803e3d6000fd5b505050506040513d601f19601f8201168201806040525081019061128e9190611a12565b90506000826001600160a01b03166306aba0e16040518163ffffffff1660e01b81526004016020604051808303816000875af11580156112d2573d6000803e3d6000fd5b505050506040513d601f19601f820116820180604052508101906112f69190611a12565b90506000611302610d25565b8160000361132957506001600160a01b0384166000908152600160205260409020546113b3565b6001600160a01b0385166000908152600160205260409020546113b090612710846113526101d8565b61135e88611388611a9a565b6113689190611a9a565b6113729190611ab1565b6001600160a01b03891660009081526001602052604090205461139790611388611a9a565b6113a19190611a87565b6113ab9190611ab1565b6117f7565b90505b6113d760405180606001604052806000815260200160008152602001600081525090565b6001600160a01b03861660009081526002602052604090205415611465576001600160a01b0386166000908152600260205260409020805461141b90600190611a41565b8154811061142b5761142b611a54565b9060005260206000209060030201604051806060016040529081600082015481526020016001820154815260200160028201548152505090505b604080516060810182526001600160a01b038816600090815260016020908152908390205482528082018590524292820192909252908201516005546114ac908590611a87565b6114b69190611a41565b6005556001600160a01b039096166000908152600260208181526040808420805460018181018355918652948390208b51600390960201948555918a01519184019190915597909701519601959095555050505050565b6000805460408051630458184560e11b8152905183926001600160a01b0316916308b0308a9160048083019260209291908290030181865afa158015611557573d6000803e3d6000fd5b505050506040513d601f19601f8201168201806040525081019061157b9190611a6a565b6001600160a01b031663dfb1a4d26040518163ffffffff1660e01b8152600401602060405180830381865afa1580156115b8573d6000803e3d6000fd5b505050506040513d601f19601f820116820180604052508101906115dc9190611a12565b60008054906101000a90046001600160a01b03166001600160a01b03166358de9ade6040518163ffffffff1660e01b8152600401602060405180830381865afa15801561162d573d6000803e3d6000fd5b505050506040513d601f19601f820116820180604052508101906116519190611a6a565b6001600160a01b031663c057beee6040518163ffffffff1660e01b8152600401602060405180830381865afa15801561168e573d6000803e3d6000fd5b505050506040513d601f19601f820116820180604052508101906116b29190611a12565b6116bc9190611a9a565b9050808311156116d0575061271092915050565b806116dd84612710611a9a565b6103779190611ab1565b6040516001600160a01b038085166024830152831660448201526064810182905261171f9085906323b872dd60e01b9060840161111d565b50505050565b600061177a826040518060400160405280602081526020017f5361666545524332303a206c6f772d6c6576656c2063616c6c206661696c6564815250856001600160a01b031661180d9092919063ffffffff16565b80519091501561105057808060200190518101906117989190611b49565b6110505760405162461bcd60e51b815260206004820152602a60248201527f5361666545524332303a204552433230206f7065726174696f6e20646964206e6044820152691bdd081cdd58d8d9595960b21b60648201526084016102a5565b60008183106118065781610377565b5090919050565b606061181c8484600085611824565b949350505050565b6060824710156118855760405162461bcd60e51b815260206004820152602660248201527f416464726573733a20696e73756666696369656e742062616c616e636520666f6044820152651c8818d85b1b60d21b60648201526084016102a5565b600080866001600160a01b031685876040516118a19190611b8f565b60006040518083038185875af1925050503d80600081146118de576040519150601f19603f3d011682016040523d82523d6000602084013e6118e3565b606091505b50915091506118f4878383876118ff565b979650505050505050565b6060831561196e578251600003611967576001600160a01b0385163b6119675760405162461bcd60e51b815260206004820152601d60248201527f416464726573733a2063616c6c20746f206e6f6e2d636f6e747261637400000060448201526064016102a5565b508161181c565b61181c83838151156119835781518083602001fd5b8060405162461bcd60e51b81526004016102a59190611bab565b6000602082840312156119af57600080fd5b81356001600160e01b03198116811461037757600080fd5b6000602082840312156119d957600080fd5b5035919050565b6001600160a01b03811681146102f257600080fd5b600060208284031215611a0757600080fd5b8135610377816119e0565b600060208284031215611a2457600080fd5b5051919050565b634e487b7160e01b600052601160045260246000fd5b818103818111156101d2576101d2611a2b565b634e487b7160e01b600052603260045260246000fd5b600060208284031215611a7c57600080fd5b8151610377816119e0565b808201808211156101d2576101d2611a2b565b80820281158282048414176101d2576101d2611a2b565b600082611ace57634e487b7160e01b600052601260045260246000fd5b500490565b600060018201611ae557611ae5611a2b565b5060010190565b600060408284031215611afe57600080fd5b6040516040810181811067ffffffffffffffff82111715611b2f57634e487b7160e01b600052604160045260246000fd5b604052825181526020928301519281019290925250919050565b600060208284031215611b5b57600080fd5b8151801515811461037757600080fd5b60005b83811015611b86578181015183820152602001611b6e565b50506000910152565b60008251611ba1818460208701611b6b565b9190910192915050565b6020815260008251806020840152611bca816040850160208701611b6b565b601f01601f1916919091016040019291505056fea264697066735822122076923d9cfaf50d06eb97b4c3dfa423cedd1a19c5b1ec6427d6a41d12ad699a9c64736f6c63430008130033",
  "linkReferences": {},
  "deployedLinkReferences": {}
}