{
  "_format": "hh-sol-artifact-1",
  "contractName": "LendingMarket",
  "sourceName": "contracts/protocol/Lending/LendingMarket.sol",
  "abi": [
    {
      "inputs": [],
      "stateMutability": "nonpayable",
      "type": "constructor"
    },
    {
      "anonymous": false,
      "inputs": [
        {
          "indexed": true,
          "internalType": "address",
          "name": "user",
          "type": "address"
        },
        {
          "indexed": true,
          "internalType": "address",
          "name": "asset",
          "type": "address"
        },
        {
          "indexed": true,
          "internalType": "address",
          "name": "nftAddress",
          "type": "address"
        },
        {
          "indexed": false,
          "internalType": "uint256[]",
          "name": "nftTokenIds",
          "type": "uint256[]"
        },
        {
          "indexed": false,
          "internalType": "uint256",
          "name": "amount",
          "type": "uint256"
        }
      ],
      "name": "Borrow",
      "type": "event"
    },
    {
      "anonymous": false,
      "inputs": [
        {
          "indexed": true,
          "internalType": "address",
          "name": "lendingPool",
          "type": "address"
        }
      ],
      "name": "CreateLendingPool",
      "type": "event"
    },
    {
      "anonymous": false,
      "inputs": [
        {
          "indexed": false,
          "internalType": "uint8",
          "name": "version",
          "type": "uint8"
        }
      ],
      "name": "Initialized",
      "type": "event"
    },
    {
      "anonymous": false,
      "inputs": [
        {
          "indexed": true,
          "internalType": "address",
          "name": "user",
          "type": "address"
        },
        {
          "indexed": true,
          "internalType": "uint256",
          "name": "loanId",
          "type": "uint256"
        }
      ],
      "name": "Liquidate",
      "type": "event"
    },
    {
      "anonymous": false,
      "inputs": [
        {
          "indexed": true,
          "internalType": "address",
          "name": "previousOwner",
          "type": "address"
        },
        {
          "indexed": true,
          "internalType": "address",
          "name": "newOwner",
          "type": "address"
        }
      ],
      "name": "OwnershipTransferred",
      "type": "event"
    },
    {
      "anonymous": false,
      "inputs": [
        {
          "indexed": true,
          "internalType": "address",
          "name": "user",
          "type": "address"
        },
        {
          "indexed": true,
          "internalType": "uint256",
          "name": "loanId",
          "type": "uint256"
        }
      ],
      "name": "Repay",
      "type": "event"
    },
    {
      "anonymous": false,
      "inputs": [
        {
          "indexed": true,
          "internalType": "address",
          "name": "collection",
          "type": "address"
        },
        {
          "indexed": true,
          "internalType": "address",
          "name": "asset",
          "type": "address"
        },
        {
          "indexed": true,
          "internalType": "address",
          "name": "lendingPool",
          "type": "address"
        }
      ],
      "name": "SetLendingPool",
      "type": "event"
    },
    {
      "inputs": [
        {
          "internalType": "address",
          "name": "onBehalfOf",
          "type": "address"
        },
        {
          "internalType": "address",
          "name": "asset",
          "type": "address"
        },
        {
          "internalType": "uint256",
          "name": "amount",
          "type": "uint256"
        },
        {
          "internalType": "address",
          "name": "nftAddress",
          "type": "address"
        },
        {
          "internalType": "uint256[]",
          "name": "nftTokenIds",
          "type": "uint256[]"
        },
        {
          "internalType": "uint256",
          "name": "genesisNFTId",
          "type": "uint256"
        },
        {
          "internalType": "bytes32",
          "name": "request",
          "type": "bytes32"
        },
        {
          "components": [
            {
              "internalType": "uint8",
              "name": "v",
              "type": "uint8"
            },
            {
              "internalType": "bytes32",
              "name": "r",
              "type": "bytes32"
            },
            {
              "internalType": "bytes32",
              "name": "s",
              "type": "bytes32"
            },
            {
              "internalType": "bytes32",
              "name": "request",
              "type": "bytes32"
            },
            {
              "internalType": "uint256",
              "name": "deadline",
              "type": "uint256"
            },
            {
              "internalType": "bytes",
              "name": "payload",
              "type": "bytes"
            }
          ],
          "internalType": "struct Trustus.TrustusPacket",
          "name": "packet",
          "type": "tuple"
        }
      ],
      "name": "borrow",
      "outputs": [],
      "stateMutability": "nonpayable",
      "type": "function"
    },
    {
      "inputs": [
        {
          "internalType": "address",
          "name": "collection",
          "type": "address"
        },
        {
          "internalType": "address",
          "name": "asset",
          "type": "address"
        }
      ],
      "name": "createLendingPool",
      "outputs": [
        {
          "internalType": "address",
          "name": "",
          "type": "address"
        }
      ],
      "stateMutability": "nonpayable",
      "type": "function"
    },
    {
      "inputs": [],
      "name": "getDefaultPoolConfig",
      "outputs": [
        {
          "components": [
            {
              "internalType": "uint256",
              "name": "liquidationPenalty",
              "type": "uint256"
            },
            {
              "internalType": "uint256",
              "name": "liquidationFee",
              "type": "uint256"
            },
            {
              "internalType": "uint256",
              "name": "maximumUtilizationRate",
              "type": "uint256"
            }
          ],
          "internalType": "struct ConfigTypes.LendingPoolConfig",
          "name": "",
          "type": "tuple"
        }
      ],
      "stateMutability": "view",
      "type": "function"
    },
    {
      "inputs": [
        {
          "internalType": "address",
          "name": "collection",
          "type": "address"
        },
        {
          "internalType": "address",
          "name": "asset",
          "type": "address"
        }
      ],
      "name": "getLendingPool",
      "outputs": [
        {
          "internalType": "address",
          "name": "",
          "type": "address"
        }
      ],
      "stateMutability": "view",
      "type": "function"
    },
    {
      "inputs": [],
      "name": "getTVLSafeguard",
      "outputs": [
        {
          "internalType": "uint256",
          "name": "",
          "type": "uint256"
        }
      ],
      "stateMutability": "view",
      "type": "function"
    },
    {
      "inputs": [
        {
          "internalType": "contract IAddressesProvider",
          "name": "addressesProvider",
          "type": "address"
        },
        {
          "internalType": "uint256",
          "name": "tvlSafeguard",
          "type": "uint256"
        },
        {
          "components": [
            {
              "internalType": "uint256",
              "name": "liquidationPenalty",
              "type": "uint256"
            },
            {
              "internalType": "uint256",
              "name": "liquidationFee",
              "type": "uint256"
            },
            {
              "internalType": "uint256",
              "name": "maximumUtilizationRate",
              "type": "uint256"
            }
          ],
          "internalType": "struct ConfigTypes.LendingPoolConfig",
          "name": "defaultLendingPoolConfig",
          "type": "tuple"
        }
      ],
      "name": "initialize",
      "outputs": [],
      "stateMutability": "nonpayable",
      "type": "function"
    },
    {
      "inputs": [
        {
          "internalType": "uint256",
          "name": "loanId",
          "type": "uint256"
        },
        {
          "internalType": "bytes32",
          "name": "request",
          "type": "bytes32"
        },
        {
          "components": [
            {
              "internalType": "uint8",
              "name": "v",
              "type": "uint8"
            },
            {
              "internalType": "bytes32",
              "name": "r",
              "type": "bytes32"
            },
            {
              "internalType": "bytes32",
              "name": "s",
              "type": "bytes32"
            },
            {
              "internalType": "bytes32",
              "name": "request",
              "type": "bytes32"
            },
            {
              "internalType": "uint256",
              "name": "deadline",
              "type": "uint256"
            },
            {
              "internalType": "bytes",
              "name": "payload",
              "type": "bytes"
            }
          ],
          "internalType": "struct Trustus.TrustusPacket",
          "name": "packet",
          "type": "tuple"
        }
      ],
      "name": "liquidate",
      "outputs": [],
      "stateMutability": "nonpayable",
      "type": "function"
    },
    {
      "inputs": [],
      "name": "owner",
      "outputs": [
        {
          "internalType": "address",
          "name": "",
          "type": "address"
        }
      ],
      "stateMutability": "view",
      "type": "function"
    },
    {
      "inputs": [],
      "name": "renounceOwnership",
      "outputs": [],
      "stateMutability": "nonpayable",
      "type": "function"
    },
    {
      "inputs": [
        {
          "internalType": "uint256",
          "name": "loanId",
          "type": "uint256"
        },
        {
          "internalType": "uint256",
          "name": "amount",
          "type": "uint256"
        }
      ],
      "name": "repay",
      "outputs": [],
      "stateMutability": "nonpayable",
      "type": "function"
    },
    {
      "inputs": [
        {
          "internalType": "address",
          "name": "collection",
          "type": "address"
        },
        {
          "internalType": "address",
          "name": "asset",
          "type": "address"
        },
        {
          "internalType": "address",
          "name": "pool",
          "type": "address"
        }
      ],
      "name": "setCollectionLendingPool",
      "outputs": [],
      "stateMutability": "nonpayable",
      "type": "function"
    },
    {
      "inputs": [
        {
          "components": [
            {
              "internalType": "uint256",
              "name": "liquidationPenalty",
              "type": "uint256"
            },
            {
              "internalType": "uint256",
              "name": "liquidationFee",
              "type": "uint256"
            },
            {
              "internalType": "uint256",
              "name": "maximumUtilizationRate",
              "type": "uint256"
            }
          ],
          "internalType": "struct ConfigTypes.LendingPoolConfig",
          "name": "poolConfig",
          "type": "tuple"
        }
      ],
      "name": "setDefaultPoolConfig",
      "outputs": [],
      "stateMutability": "nonpayable",
      "type": "function"
    },
    {
      "inputs": [
        {
          "internalType": "uint256",
          "name": "tvlSafeguard",
          "type": "uint256"
        }
      ],
      "name": "setTVLSafeguard",
      "outputs": [],
      "stateMutability": "nonpayable",
      "type": "function"
    },
    {
      "inputs": [
        {
          "internalType": "address",
          "name": "newOwner",
          "type": "address"
        }
      ],
      "name": "transferOwnership",
      "outputs": [],
      "stateMutability": "nonpayable",
      "type": "function"
    }
  ],
  "bytecode": "0x608080604052346100c1576000549060ff8260081c1661006f575060ff80821610610034575b60405161464f90816100c78239f35b60ff90811916176000557f7f26b83ff96e1f2b6a682f133852f6798a09c465da95921460cefb3847402498602060405160ff8152a138610025565b62461bcd60e51b815260206004820152602760248201527f496e697469616c697a61626c653a20636f6e747261637420697320696e697469604482015266616c697a696e6760c81b6064820152608490fd5b600080fdfe6080604052600436101562000014575b600080fd5b60003560e01c80630586abad146200015457806324db9d5f14620001495780633d339325146200013e57806344fd4e37146200013357806365ec417614620001285780636c6911b7146200011d578063715018a614620001125780637785c63014620001075780638da5cb5b14620000fc578063934a8ed414620000f1578063a880e68b14620000e6578063b63ec97414620000db578063d8aed14514620000d05763f2fde38b14620000c657600080fd5b6200000f62000f3f565b506200000f62000e2c565b506200000f62000de1565b506200000f62000dc0565b506200000f62000d52565b506200000f62000d26565b506200000f6200072f565b506200000f6200069c565b506200000f620005f9565b506200000f62000555565b506200000f62000502565b506200000f620003ee565b506200000f6200038a565b506200000f6200016e565b908160c09103126200000f5790565b50346200000f5760603660031901126200000f576004356044356001600160401b0381116200000f57620001a79036906004016200015f565b620001b1620015f3565b609a5473__$965b9be9fc5ba89821c2195a8bf360e455$__91906001600160a01b031690620001fd620001e362000338565b338152918560208401526024356040840152369062001388565b6060820152823b156200000f5760405163122fd0c160e11b8152926000928492839182916200023091600484016200164a565b03915af4801562000294575b62000276575b50337f08813a3631e12129135cc9440d3fea50eec346f1673b20b994b0456d5d46ccb9600080a3620002746001606555565b005b80620002866200028d92620002bb565b8062000690565b3862000242565b6200029e620015a1565b6200023c565b50634e487b7160e01b600052604160045260246000fd5b6001600160401b038111620002cf57604052565b620002d9620002a4565b604052565b606081019081106001600160401b03821117620002cf57604052565b60c081019081106001600160401b03821117620002cf57604052565b90601f801991011681019081106001600160401b03821117620002cf57604052565b60405190608082018281106001600160401b03821117620002cf57604052565b604051906200036782620002de565b565b6040519061012082018281106001600160401b03821117620002cf57604052565b50346200000f5760603660031901126200000f57604051620003ac81620002de565b600435815260208101602435815260408201916044358352620003ce62000fda565b51609b5551609c5551609d55005b6001600160a01b038116036200000f57565b50346200000f5760a03660031901126200000f576004356200041081620003dc565b60603660431901126200000f576200046e600054916200044a60ff8460081c161580948195620004f3575b8115620004d0575b506200107c565b826200045e600160ff196000541617600055565b620004b5575b60243590620010e0565b6200047557005b6200048661ff001960005416600055565b604051600181527f7f26b83ff96e1f2b6a682f133852f6798a09c465da95921460cefb384740249890602090a1005b620004ca61010061ff00196000541617600055565b62000464565b303b15915081620004e4575b503862000443565b6001915060ff161438620004dc565b600160ff82161091506200043b565b50346200000f5760603660031901126200000f57620002746004356200052881620003dc565b6024356200053681620003dc565b604435916200054583620003dc565b6200054f62000fda565b62001c6d565b50346200000f5760203660031901126200000f576200057362000fda565b600435609955005b9080601f830112156200000f578135906001600160401b038211620005e9575b8160051b60405193602093620005b48584018762000316565b855283808601928201019283116200000f578301905b828210620005d9575050505090565b81358152908301908301620005ca565b620005f3620002a4565b6200059b565b50346200000f576101003660031901126200000f576004356200061c81620003dc565b602435906200062b82620003dc565b606435906200063a82620003dc565b6001600160401b03926084358481116200000f576200065e9036906004016200057b565b60e4359485116200000f576200067d620002749536906004016200015f565b9360c4359360a4359360443591620011a1565b60009103126200000f57565b50346200000f57600080600319360112620006ff57620006bb62000fda565b603380546001600160a01b0319811690915581906001600160a01b03167f8be0079c531659141344cd1fd0a4f28419497f9722a3daafe3b4186f6b6457e08280a380f35b80fd5b60409060031901126200000f576004356200071d81620003dc565b906024356200072c81620003dc565b90565b50346200000f57620007413662000702565b9062000757620007518262001b1f565b62001695565b609a546040805163cfeed18160e01b81526001600160a01b03928316939192600491602090620007ee9083908390620007d090828189818e5afa90811562000d16575b60009162000cf4575b5089516375151b6360e01b81526001600160a01b038d168982019081529094859384928391602090910190565b0392165afa90811562000ce4575b60009162000cc2575b5062001728565b62000845826200083d620008308a620008198960018060a01b03166000526097602052604060002090565b9060018060a01b0316600052602052604060002090565b546001600160a01b031690565b16156200177f565b60335482906001600160a01b0316818916976200093088620009028b8d600084518c620008bc6395d89b4160e01b92838152848184818a5afa90811562000cb2575b859162000c95575b506001600160a01b0386166000908152609860205260409020620008b5905b54620019c8565b9062001834565b96518095819382525afa91821562000c85575b60009262000c53575b506001600160a01b03166000908152609860205260409020620008fb90620008ae565b90620018a3565b908b8b51958695612947808801908882106001600160401b0383111762000c43575b62001cd3893962001906565b03906000f0801562000c33575b1695818651809263095ea7b360e01b825281600081620009768d8b8301919091604081019260018060a01b031681526020600019910152565b03925af1801562000c23575b62000c01575b50609a546001600160a01b03168551620009f3836314d888d960e21b9283815281818981885afa90811562000bf1575b60009162000bcf575b50895163e985e9c560e01b81526001600160a01b03909116888201908152306020820152909283918291604090910190565b0381888b165afa90811562000bbf575b60009162000b8b575b501562000a94575b62000a90888862000a468c62000a2c84828d62001c6d565b6001600160a01b0316600090815260986020526040902090565b62000a5281546200196b565b905551918183927f2542f32ffb9d7022dcce911f06a04e1e188ce008c7842cbc0c6d00a6cb80389f600080a26001600160a01b031682526020820190565b0390f35b829085889a969a518094819382525afa91821562000b7b575b60009262000b47575b50501691823b156200000f578351631578b62760e11b81526001600160a01b03821696810196875262000a909662000a469462000a2c938893869391929091600091839182908490829060200103925af1801562000b37575b62000b20575b509481985062000a14565b806200028662000b3092620002bb565b3862000b15565b62000b41620015a1565b62000b0f565b62000b6b9250803d1062000b73575b62000b62818362000316565b810190620016f6565b388062000ab6565b503d62000b56565b62000b85620015a1565b62000aad565b62000bb09150843d861162000bb7575b62000ba7818362000316565b8101906200170e565b3862000a0c565b503d62000b9b565b62000bc9620015a1565b62000a03565b62000bea9150823d841162000b735762000b62818362000316565b38620009c1565b62000bfb620015a1565b620009b8565b62000c1b90823d841162000bb75762000ba7818362000316565b503862000988565b62000c2d620015a1565b62000982565b62000c3d620015a1565b6200093d565b62000c4d620002a4565b62000924565b62000c7c620008ae91620008fb93943d8091833e62000c73818362000316565b810190620017cc565b929150620008d8565b62000c8f620015a1565b620008cf565b62000cab913d8091833e62000c73818362000316565b386200088f565b62000cbc620015a1565b62000887565b62000cdd9150833d851162000bb75762000ba7818362000316565b38620007e7565b62000cee620015a1565b620007de565b62000d0f9150833d851162000b735762000b62818362000316565b38620007a3565b62000d20620015a1565b6200079a565b50346200000f5760003660031901126200000f576033546040516001600160a01b039091168152602090f35b50346200000f57600080600319360112620006ff5760609060409081805162000d7b81620002de565b828152826020820152015280519062000d9482620002de565b609b5491828152609c546020820190815282609d54920191825282519384525160208401525190820152f35b50346200000f5760003660031901126200000f576020609954604051908152f35b50346200000f57602062000e2262000df93662000702565b6001600160a01b0391821660009081526097855260408082209284168252602092909252209091565b5416604051908152f35b50346200000f5760403660031901126200000f5760043562000e4d620015f3565b609a5473__$77c5a84c43428e206d5bf08427df63fefa$__906001600160a01b031662000e7962000358565b3381528360208201526024356040820152823b156200000f5760408051634e0be51f60e11b81526001600160a01b03938416600482015282519093166024840152602082015160448401520151606482015290600090829060849082905af4801562000f2f575b62000f18575b50337f5c16de4f8b59bd9caf0f49a545f25819a895ed223294290b408242e72a594231600080a3620002746001606555565b806200028662000f2892620002bb565b3862000ee6565b62000f39620015a1565b62000ee0565b50346200000f5760203660031901126200000f5760043562000f6181620003dc565b62000f6b62000fda565b6001600160a01b0381161562000f8657620002749062001033565b60405162461bcd60e51b815260206004820152602660248201527f4f776e61626c653a206e6577206f776e657220697320746865207a65726f206160448201526564647265737360d01b6064820152608490fd5b6033546001600160a01b0316330362000fef57565b606460405162461bcd60e51b815260206004820152602060248201527f4f776e61626c653a2063616c6c6572206973206e6f7420746865206f776e65726044820152fd5b603380546001600160a01b039283166001600160a01b0319821681179092559091167f8be0079c531659141344cd1fd0a4f28419497f9722a3daafe3b4186f6b6457e0600080a3565b156200108457565b60405162461bcd60e51b815260206004820152602e60248201527f496e697469616c697a61626c653a20636f6e747261637420697320616c72656160448201526d191e481a5b9a5d1a585b1a5e995960921b6064820152608490fd5b620010fe60ff60005460081c16620010f88162001140565b62001140565b620011093362001033565b60018060a01b03166bffffffffffffffffffffffff60a01b609a541617609a55609955604435609b55606435609c55608435609d55565b156200114857565b60405162461bcd60e51b815260206004820152602b60248201527f496e697469616c697a61626c653a20636f6e7472616374206973206e6f74206960448201526a6e697469616c697a696e6760a81b6064820152608490fd5b602090826200125462001276949a620012ba97969a7f5ad24af809b91037141dded9f0cdecfdda4acdd07a3724c10e0af52071842ee4999a620011e3620015f3565b609a5462001226906001600160a01b031695620012166200120362000369565b338152986001600160a01b0316898b0152565b6001600160a01b03166040880152565b606086018d90526001600160a01b03891660808701528b60a087015260c086015260e0850152369062001388565b61010083015260405163a6b290dd60e01b8152938492839260048401620014e2565b038173__$77c5a84c43428e206d5bf08427df63fefa$__5af48015620012fd575b620012c8575b5060405191829160018060a01b03809116971695339583620015ae565b0390a4620003676001606555565b620012ed9060203d8111620012f5575b620012e4818362000316565b81019062001406565b50386200129d565b503d620012d8565b62001307620015a1565b62001297565b6020906001600160401b0381116200132b575b601f01601f19160190565b62001335620002a4565b62001320565b81601f820112156200000f5780359062001355826200130d565b9262001365604051948562000316565b828452602083830101116200000f57816000926020809301838601378301015290565b919060c0838203126200000f5760405190620013a482620002fa565b8193803560ff811681036200000f5783526020810135602084015260408101356040840152606081013560608401526080810135608084015260a0810135916001600160401b0383116200000f5760a0926200140192016200133b565b910152565b908160209103126200000f575190565b90815180825260208080930193019160005b82811062001437575050505090565b83518552938101939281019260010162001428565b60005b838110620014605750506000910152565b81810151838201526020016200144f565b906020916200148c815180928185528580860191016200144c565b601f01601f1916010190565b9060c060a06200072c9360ff8151168452602081015160208501526040810151604085015260608101516060850152608081015160808501520151918160a0820152019062001471565b6001600160a01b039182168152609760208201526060604082018190528351909216918101919091526200072c919060208201516001600160a01b0316608082015260408201516001600160a01b031660a0820152606082015160c082015260808201516001600160a01b031660e082015260a0820151610120926200157661010092858486015261018085019062001416565b9360c08201519084015260e0810151610140840152015190610160605f198285030191015262001498565b506040513d6000823e3d90fd5b92919060408401604085528151809152606085019060208093019060005b84828210620015de5750505050930152565b835185529384019390920191600101620015cc565b60026065541462001605576002606555565b60405162461bcd60e51b815260206004820152601f60248201527f5265656e7472616e637947756172643a207265656e7472616e742063616c6c006044820152606490fd5b9060606200072c9360c09260018060a01b03809116855260406020860152815116604085015260208101518285015260408101516080850152015191608060a0820152019062001498565b156200169d57565b60405162461bcd60e51b815260206004820152602b60248201527f436f6c6c656374696f6e2061646472657373206973206e6f742045524337323160448201526a1031b7b6b83634b0b73a1760a91b6064820152608490fd5b908160209103126200000f57516200072c81620003dc565b908160209103126200000f575180151581036200000f5790565b156200173057565b60405162461bcd60e51b815260206004820152602160248201527f556e6465726c79696e67204173736574206973206e6f7420737570706f7274656044820152601960fa1b6064820152608490fd5b156200178757565b60405162461bcd60e51b815260206004820152601b60248201527f4c656e64696e6720506f6f6c20616c72656164792065786973747300000000006044820152606490fd5b6020818303126200000f578051906001600160401b0382116200000f570181601f820112156200000f57805162001803816200130d565b9262001813604051948562000316565b818452602082840101116200000f576200072c91602080850191016200144c565b603062000367919392936040519485916503632a7232a160d51b6020840152620018698151809260206026870191016200144c565b820169204c656e64696e67202360b01b60268201526200189382518093602087850191016200144c565b0103601081018552018362000316565b60246200036791939293604051948591621b195360ea1b6020840152620018d58151809260206023870191016200144c565b8201602d60f81b6023820152620018f682518093602087850191016200144c565b0103600481018552018362000316565b95949291620019419262001950959260018060a01b0392838092168a5216602089015216604087015261010080606088015286019062001471565b90848203608086015262001471565b91609b5460a0820152609c5460c082015260e0609d54910152565b90600182018092116200197a57565b634e487b7160e01b600052601160045260246000fd5b906200199c826200130d565b620019ab604051918262000316565b8281528092620019be601f19916200130d565b0190602036910137565b806000917a184f03e93ff9f4daa797ed6e38ed64bf6a1f0100000000000000008082101562001b10575b506d04ee2d6d415b85acef81000000008083101562001b00575b50662386f26fc100008083101562001af0575b506305f5e1008083101562001ae0575b506127108083101562001ad0575b50606482101562001abf575b600a8092101562001ab4575b60019081602162001a6882870162001990565b95860101905b62001a7b575b5050505090565b600019019083906f181899199a1a9b1b9c1cb0b131b232b360811b8282061a83530491821562001aae5791908262001a6e565b62001a74565b916001019162001a55565b919060646002910491019162001a49565b6004919392049101913862001a3d565b6008919392049101913862001a2f565b6010919392049101913862001a1f565b6020919392049101913862001a0c565b604093508104915038620019f2565b6040519060208083018160006301ffc9a760e01b958684528660248201526024815262001b4c81620002de565b51617530938685fa933d600051908662001bff575b508562001bf4575b508462001b8a575b5050508162001b7e575090565b6200072c915062001c0b565b83945090600091839460405185810192835263ffffffff60e01b60248201526024815262001bb881620002de565b5192fa60005190913d8362001be8575b50508162001bdd575b50159038808062001b71565b905015153862001bd1565b10159150388062001bc8565b151594503862001b69565b84111595503862001b61565b6000602091604051838101906301ffc9a760e01b82526380ac58cd60e01b60248201526024815262001c3d81620002de565b5191617530fa6000513d8262001c60575b508162001c59575090565b9050151590565b6020111591503862001c4e565b6001600160a01b03908116600081815260976020908152604080832095851680845295909152812080546001600160a01b03191695909316948517909255907f288817cea49f022db2036521d5e78e3cd16416913cf6a781d645930143dc31a49080a456fe60c06040908082523462000787576200294780380380916200002282856200078c565b8339810181810391610100831262000787578051906001600160a01b038216820362000787576200005660208201620007b0565b81860151909490936001600160a01b0385168503620007875760608301516001600160401b03811162000787578162000091918501620007e1565b60808401519091906001600160401b0381116200078757606091620000b8918601620007e1565b92609f190112620007875786519260608401906001600160401b03821185831017620006595790885260a0810151845260c0810151602085015260e00151838801528051906001600160401b038211620006595760035490600182811c921680156200077c575b6020831014620006385781601f8493116200070a575b50602090601f83116001146200067b576000926200066f575b50508160011b916000199060031b1c1916176003555b8051906001600160401b038211620006595760045490600182811c921680156200064e575b6020831014620006385781601f849311620005c3575b50602090601f8311600114620005345760009262000528575b50508160011b916000199060031b1c1916176004555b620001d98362000894565b90156200051f575b60a05282608052620001f3336200084b565b84516302690e7760e11b81526020816004816001600160a01b0387165afa9081156200051457600091620004d2575b506001600160a01b031633036200047a57600680546001600160a01b03199081166001600160a01b0394851690811790925560078054909116938516939093179092558051600c55602081810151600d5590850151600e55845163292bdab360e11b81529291839060049082905afa918215620004265760009262000431575b5083516370a0823160e01b815230600482015290602090829060249082906001600160a01b03165afa80156200042657600090620003ed575b6008548551633362bee560e11b8152600481019290925260248201529160209150829060449082906001600160a01b03165afa908115620003e25760009162000387575b50907fa4ecc9c1ce63bce38b008f9aa955334b99fa741c1dee15bf34ad19a4c1c9e16960208362000359946009558551908152a16200084b565b51611fec90816200095b8239608051818181610de6015281816118080152611c6c015260a05181610e2f0152f35b906020823d602011620003d9575b81620003a4602093836200078c565b81010312620003d65750517fa4ecc9c1ce63bce38b008f9aa955334b99fa741c1dee15bf34ad19a4c1c9e1696200031f565b80fd5b3d915062000395565b83513d6000823e3d90fd5b6020823d6020116200041d575b8162000409602093836200078c565b81010312620003d6575060209051620002db565b3d9150620003fa565b84513d6000823e3d90fd5b90916020823d60201162000471575b816200044f602093836200078c565b81010312620003d65750602062000468602492620007b0565b929150620002a2565b3d915062000440565b845162461bcd60e51b815260206004820152602b60248201527f4c656e64696e6720506f6f6c206d75737420626520637265617465642074687260448201526a1bdd59da081b585c9ad95d60aa1b6064820152608490fd5b906020823d6020116200050b575b81620004ef602093836200078c565b81010312620003d657506200050490620007b0565b3862000222565b3d9150620004e0565b86513d6000823e3d90fd5b506012620001e1565b015190503880620001b8565b6004600090815293507f8a35acfbc15ff81a39ae7d344fd709f28e8600b4aa8c65c6b64bfe7fe36bd19b91905b601f1984168510620005a7576001945083601f198116106200058d575b505050811b01600455620001ce565b015160001960f88460031b161c191690553880806200057e565b8181015183556020948501946001909301929091019062000561565b60046000529091507f8a35acfbc15ff81a39ae7d344fd709f28e8600b4aa8c65c6b64bfe7fe36bd19b601f840160051c810191602085106200062d575b90601f859493920160051c01905b8181106200061d57506200019f565b600081558493506001016200060e565b909150819062000600565b634e487b7160e01b600052602260045260246000fd5b91607f169162000189565b634e487b7160e01b600052604160045260246000fd5b0151905038806200014e565b6003600090815293507fc2575a0e9e593c00f959f8c92f12db2869c3395a3b0502d05e2516446f71f85b91905b601f1984168510620006ee576001945083601f19811610620006d4575b505050811b0160035562000164565b015160001960f88460031b161c19169055388080620006c5565b81810151835560209485019460019093019290910190620006a8565b60036000529091507fc2575a0e9e593c00f959f8c92f12db2869c3395a3b0502d05e2516446f71f85b601f840160051c81016020851062000774575b90849392915b601f830160051c820181106200076457505062000135565b600081558594506001016200074c565b508062000746565b91607f16916200011f565b600080fd5b601f909101601f19168101906001600160401b038211908210176200065957604052565b51906001600160a01b03821682036200078757565b6001600160401b0381116200065957601f01601f191660200190565b919080601f840112156200078757825190620007fd82620007c5565b916200080d60405193846200078c565b808352602091828287010111620007875760005b8181106200083757508260009394955001015290565b858101830151848201840152820162000821565b600580546001600160a01b039283166001600160a01b0319821681179092559091167f8be0079c531659141344cd1fd0a4f28419497f9722a3daafe3b4186f6b6457e0600080a3565b6040805163313ce56760e01b60208201908152600482529293929181016001600160401b0381118282101762000659576040525160009384928392916001600160a01b03165afa3d1562000951573d90620008ef82620007c5565b91620008ff60405193846200078c565b82523d84602084013e5b8062000944575b6200091b575b508190565b60208180518101031262000940576020015160ff811162000916576001925060ff1690565b8280fd5b5060208151101562000910565b6060906200090956fe6040608081526004908136101561001557600080fd5b600091823560e01c806301e1d1141461100c57806306fdde0314610f1857806307a2d13a14610c53578063095ea7b314610eee5780630a28a47714610ece57806314a6bf0f14610eaf57806318160ddd14610e9057806323b872dd14610e53578063313ce56714610e1557806338d52e0f14610dd15780633950935114610d81578063402d267d14610d5a5780634a417a5314610c5f5780634cdad50614610c53578063545039c614610bd05780636e553f6514610b4657806370a082311461037b578063715018a614610ae957806384bdc9a814610a8e5780638da5cb5b14610a6557806394bf804d14610a0e57806395d89b411461090a578063a225869414610849578063a457c2d7146107a5578063a663f830146106d2578063a9059cbb146106a1578063b0d965801461063d578063b3d7f6b9146105fc578063b460af941461054a578063ba08765214610499578063ba1c5e801461047a578063bedb86fb14610443578063c63d75b61461041c578063c6e6f592146102b3578063ce96cb77146103b7578063d905777e1461037b578063db4968f714610330578063dd62ed3e146102e7578063e2c67439146102bf578063ef8b30f7146102b35763f2fde38b146101e5575b600080fd5b346102af5760203660031901126102af576101fe6110bc565b906102076111d2565b6001600160a01b0391821692831561025d575050600554826bffffffffffffffffffffffff60a01b821617600555167f8be0079c531659141344cd1fd0a4f28419497f9722a3daafe3b4186f6b6457e08380a380f35b906020608492519162461bcd60e51b8352820152602660248201527f4f776e61626c653a206e6577206f776e657220697320746865207a65726f206160448201526564647265737360d01b6064820152fd5b8280fd5b505050506101e061114b565b5050346102e357816003193601126102e3576020906102dc6116c1565b9051908152f35b5080fd5b5050346102e357806003193601126102e357806020926103056110bc565b61030d6110d2565b6001600160a01b0391821683526001865283832091168252845220549051908152f35b5090346102af5760603660031901126102af5780519161034f8361116a565b35825260208201906024358252820191604435835261036c6111d2565b51600c5551600d5551600e5580f35b5050346102e35760203660031901126102e3576020906102dc61039c6110bc565b6001600160a01b031660009081526020819052604090205490565b5050346102e35760203660031901126102e3576020916001600160a01b036103dd6110bc565b16815280835281902054600254806103f85750905b51908152f35b6104169161041060085461040a6116c1565b9061122a565b9061163e565b906103f2565b5050346102e35760203660031901126102e35760209061043a6110bc565b50516000198152f35b8382346102e35760203660031901126102e357358015158091036102e3576104696111d2565b60ff8019600b5416911617600b5580f35b5050346102e357816003193601126102e3576020906009549051908152f35b508290346102e3576104aa36611116565b9390919260018060a01b038516825281602052858220548411610507575050600254602094926103f2929091806104e75750819485915b33611b48565b6104ff906104f960085461040a6116c1565b8461163e565b9485916104e1565b606490602087519162461bcd60e51b8352820152601d60248201527f455243343632363a2072656465656d206d6f7265207468616e206d61780000006044820152fd5b5082346105f95761055a36611116565b6001600160a01b03811684526020849052928590205460025493949193806105e257505b821161059f575060209391816105966103f293611588565b94859233611b48565b606490602086519162461bcd60e51b8352820152601f60248201527f455243343632363a207769746864726177206d6f7265207468616e206d6178006044820152fd5b6105f49161041060085461040a6116c1565b61057e565b80fd5b50346102af5760203660031901126102af57600254602093509035908061062557509051908152f35b6104169161063760085461040a6116c1565b906115f4565b5050346102e357816003193601126102e35760609181805161065e8161116a565b82815282602082015201528051906106758261116a565b600c5491828152600d546020820190815282600e54920191825282519384525160208401525190820152f35b5050346102e357806003193601126102e3576020906106cb6106c16110bc565b602435903361124d565b5160018152f35b50346102af576106e1366110e8565b60065486516302690e7760e11b8152929691959394936001600160a01b0393916020918391829087165afa91821561079c575092826107376107529461075897946107609a978c9161076e575b50163314611ddf565b61074660ff600b541615611739565b6007541690309161191a565b82611f67565b600854611e2b565b60085561076b611e38565b80f35b61078f915060203d8111610795575b61078781836111b0565b810190611dc0565b3861072e565b503d61077d565b513d89823e3d90fd5b5082346105f957826003193601126105f9576107bf6110bc565b918360243592338152600160205281812060018060a01b03861682526020522054908282106107f8576020856106cb85850387336113bb565b608490602086519162461bcd60e51b8352820152602560248201527f45524332303a2064656372656173656420616c6c6f77616e63652062656c6f77604482015264207a65726f60d81b6064820152fd5b5090346102af5760603660031901126102af576108646110bc565b916024359160018060a01b0391602083600654168351928380926302690e7760e11b82525afa918215610901575093826108b06108c8948694610760988a9161076e5750163314611ddf565b6108bf60ff600b541615611739565b60075416611d70565b6008546108f96108e96108dd600a5484611f54565b61040a60443586611f54565b6108f3848461122a565b90611634565b600a5561122a565b513d87823e3d90fd5b509190346102e357816003193601126102e357805191809380549160019083821c92828516948515610a04575b60209586861081146109f1578589529081156109cd5750600114610975575b6109718787610967828c03836111b0565b519182918261102f565b0390f35b81529295507f8a35acfbc15ff81a39ae7d344fd709f28e8600b4aa8c65c6b64bfe7fe36bd19b5b8284106109ba57505050826109719461096792820101943880610956565b805486850188015292860192810161099c565b60ff19168887015250505050151560051b8301019250610967826109713880610956565b634e487b7160e01b845260228352602484fd5b93607f1693610937565b509190346102e357806003193601126102e3576103f260209335610a306110d2565b60025490945080610a4657508080945b33611776565b610a5e90610a5860085461040a6116c1565b836115f4565b8094610a40565b5050346102e357816003193601126102e35760055490516001600160a01b039091168152602090f35b5050346102e357816003193601126102e35760209190600854610ab8610ab26116c1565b8261122a565b610ac4575b5051908152f35b610ae29192506108f3610ad982600a54611f54565b9161040a6116c1565b9038610abd565b83346105f957806003193601126105f957610b026111d2565b600580546001600160a01b0319811690915581906001600160a01b03167f8be0079c531659141344cd1fd0a4f28419497f9722a3daafe3b4186f6b6457e08280a380f35b5082346105f957826003193601126105f95750803590610b646110d2565b90610b6d611555565b8311610b8d5750916103f2602093610b84846115be565b93849133611776565b606490602085519162461bcd60e51b8352820152601e60248201527f455243343632363a206465706f736974206d6f7265207468616e206d617800006044820152fd5b50346102af57610bdf366110e8565b9193909460018060a01b0391602083600654168351928380926302690e7760e11b82525afa91821561079c575092610c4b83610c316107529561075898956107609b988d9161076e5750163314611ddf565b610c4060ff600b541615611739565b60075416918761122a565b91309161191a565b505050506101e0611078565b509190346102e357816003193601126102e357600654815163292bdab360e11b815260209490916001600160a01b039190869084908390829086165afa928315610d5057908692918694610d2e575b50604490610cba6116c1565b9260085495875196879586946342e4b18360e11b86528501526024840152165afa928315610d23578093610cf1575b505051908152f35b909192508382813d8311610d1c575b610d0a81836111b0565b810103126105f9575051903880610ce9565b503d610d00565b8251903d90823e3d90fd5b6044919450610d4990843d86116107955761078781836111b0565b9390610cae565b84513d87823e3d90fd5b5050346102e35760203660031901126102e357602090610d786110bc565b506102dc611555565b5050346102e357806003193601126102e3576106cb602092610dca610da46110bc565b338352600186528483206001600160a01b0382168452865291849020546024359061122a565b90336113bb565b5050346102e357816003193601126102e357517f00000000000000000000000000000000000000000000000000000000000000006001600160a01b03168152602090f35b5050346102e357816003193601126102e3576020905160ff7f0000000000000000000000000000000000000000000000000000000000000000168152f35b5050346102e35760603660031901126102e3576020906106cb610e746110bc565b610e7c6110d2565b60443591610e8b8333836114bd565b61124d565b5050346102e357816003193601126102e3576020906002549051908152f35b5050346102e357816003193601126102e3576020906008549051908152f35b5091346105f95760203660031901126105f957506102dc60209235611588565b5050346102e357806003193601126102e3576020906106cb610f0e6110bc565b60243590336113bb565b5090346102af57826003193601126102af57805191836003549060019082821c928281168015611002575b6020958686108214610fef5750848852908115610fcd5750600114610f74575b6109718686610967828b03836111b0565b929550600383527fc2575a0e9e593c00f959f8c92f12db2869c3395a3b0502d05e2516446f71f85b5b828410610fba575050508261097194610967928201019438610f63565b8054868501880152928601928101610f9d565b60ff191687860152505050151560051b83010192506109678261097138610f63565b634e487b7160e01b845260229052602483fd5b93607f1693610f43565b5050346102e357816003193601126102e3576020906102dc60085461040a6116c1565b6020808252825181830181905290939260005b82811061106457505060409293506000838284010152601f8019910116010190565b818101860151848201604001528501611042565b50346101e05760203660031901126101e057602060043560025480156000146110a557505b604051908152f35b6110b79161041060085461040a6116c1565b61109d565b600435906001600160a01b03821682036101e057565b602435906001600160a01b03821682036101e057565b60809060031901126101e0576004356001600160a01b03811681036101e05790602435906044359060643590565b60609060031901126101e057600435906001600160a01b039060243582811681036101e0579160443590811681036101e05790565b50346101e05760203660031901126101e057602061109d6004356115be565b6060810190811067ffffffffffffffff82111761118657604052565b634e487b7160e01b600052604160045260246000fd5b67ffffffffffffffff811161118657604052565b90601f8019910116810190811067ffffffffffffffff82111761118657604052565b6005546001600160a01b031633036111e657565b606460405162461bcd60e51b815260206004820152602060248201527f4f776e61626c653a2063616c6c6572206973206e6f7420746865206f776e65726044820152fd5b9190820180921161123757565b634e487b7160e01b600052601160045260246000fd5b6001600160a01b039081169182156113685716918215611317576000828152806020526040812054918083106112c357604082827fddf252ad1be2c89b69c2b068fc378daa952ba7f163c4a11628f55a4df523b3ef958760209652828652038282205586815220818154019055604051908152a3565b60405162461bcd60e51b815260206004820152602660248201527f45524332303a207472616e7366657220616d6f756e7420657863656564732062604482015265616c616e636560d01b6064820152608490fd5b60405162461bcd60e51b815260206004820152602360248201527f45524332303a207472616e7366657220746f20746865207a65726f206164647260448201526265737360e81b6064820152608490fd5b60405162461bcd60e51b815260206004820152602560248201527f45524332303a207472616e736665722066726f6d20746865207a65726f206164604482015264647265737360d81b6064820152608490fd5b6001600160a01b0390811691821561146c571691821561141c5760207f8c5be1e5ebec7d5bd14f71427d1e84f3dd0314c0f7b2291e5b200ac8c7c3b925918360005260018252604060002085600052825280604060002055604051908152a3565b60405162461bcd60e51b815260206004820152602260248201527f45524332303a20617070726f766520746f20746865207a65726f206164647265604482015261737360f01b6064820152608490fd5b60405162461bcd60e51b8152602060048201526024808201527f45524332303a20617070726f76652066726f6d20746865207a65726f206164646044820152637265737360e01b6064820152608490fd5b9060018060a01b03808316600052600160205260406000209082166000526020526040600020549260001984036114f5575b50505050565b808410611510576115079303916113bb565b388080806114ef565b60405162461bcd60e51b815260206004820152601d60248201527f45524332303a20696e73756666696369656e7420616c6c6f77616e63650000006044820152606490fd5b61156360085461040a6116c1565b1580159061157e575b6000901561157b575060001990565b90565b506002541561156c565b600254811580156115b6575b1561159d575090565b9061157b916115b060085461040a6116c1565b916115f4565b508015611594565b600254811580156115ec575b156115d3575090565b9061157b916115e660085461040a6116c1565b9161163e565b5080156115ca565b919061160182828561163e565b92821561161e57096116105790565b600181018091116112375790565b634e487b7160e01b600052601260045260246000fd5b811561161e570490565b9160001982840992828102928380861095039480860395146116b457848311156101e0578291096001821901821680920460028082600302188083028203028083028203028083028203028083028203028083028203028092029003029360018380600003040190848311900302920304170290565b50509061157b9250611634565b6007546040516370a0823160e01b815230600482015290602090829060249082906001600160a01b03165afa90811561172d576000916116ff575090565b906020823d8211611725575b81611718602093836111b0565b810103126105f957505190565b3d915061170b565b6040513d6000823e3d90fd5b1561174057565b60405162461bcd60e51b815260206004820152600e60248201526d141bdbdb081a5cc81c185d5cd95960921b6044820152606490fd5b600b546000959493929061178d9060ff1615611739565b6006546001600160a01b0390811692909173__$5201a97c05ba6aa659e2f36a933dd51801$__88813b156105f95760408051632242276b60e11b81526001600160a01b03979097166004880152306024880152604487018890529591829060649082905af48015611910576118fd575b50829061182c8630857f000000000000000000000000000000000000000000000000000000000000000061191a565b169485156118b957857fdcbc1c05240f31ff3ad067ef1ee35ce4997762752e3a095284754544f4c709d7959697986118668360025461122a565b600255818152806020528581208381540190557fddf252ad1be2c89b69c2b068fc378daa952ba7f163c4a11628f55a4df523b3ef60208751858152a3835195865260208601521692a36118b7611e38565b565b835162461bcd60e51b815260206004820152601f60248201527f45524332303a206d696e7420746f20746865207a65726f2061646472657373006044820152606490fd5b9761190984929961119c565b97906117fd565b85513d8b823e3d90fd5b6040516323b872dd60e01b60208201526001600160a01b03928316602482015292909116604483015260648083019390935291815260a081019181831067ffffffffffffffff841117611186576118b7926040525b60018060a01b0316906040516040810167ffffffffffffffff9082811082821117611186576040526020938483527f5361666545524332303a206c6f772d6c6576656c2063616c6c206661696c6564858401526000808587829751910182855af1903d15611aa8573d928311611a945790611a0a939291604051926119fd88601f19601f84011601856111b0565b83523d868885013e611ab3565b805180611a175750505050565b818491810103126102e357820151908115918215036105f95750611a3d578080806114ef565b6084906040519062461bcd60e51b82526004820152602a60248201527f5361666545524332303a204552433230206f7065726174696f6e20646964206e6044820152691bdd081cdd58d8d9595960b21b6064820152fd5b634e487b7160e01b85526041600452602485fd5b90611a0a9392506060915b91929015611b155750815115611ac7575090565b3b15611ad05790565b60405162461bcd60e51b815260206004820152601d60248201527f416464726573733a2063616c6c20746f206e6f6e2d636f6e74726163740000006044820152606490fd5b825190915015611b285750805190602001fd5b60405162461bcd60e51b8152908190611b44906004830161102f565b0390fd5b90949394929192600b5495611b6260ff6000981615611739565b6006546001600160a01b0390811692909173__$5201a97c05ba6aa659e2f36a933dd51801$__89813b156105f95760408051633d08669d60e21b81526001600160a01b03979097166004880152306024880152604487018990529591829060649082905af48015611d6657611d53575b50828716968184871696898803611d42575b5050508615611cf457868952886020528389205498818a10611ca5578188999a7ffbde797d201c681b91056529119e0b02407c7bb96a4a2c75c01fc9667232c8db97989983528260205203858220558160025403600255887fddf252ad1be2c89b69c2b068fc378daa952ba7f163c4a11628f55a4df523b3ef60208751858152a3611c9087837f0000000000000000000000000000000000000000000000000000000000000000611d70565b835196875260208701521693a46118b7611e38565b845162461bcd60e51b815260206004820152602260248201527f45524332303a206275726e20616d6f756e7420657863656564732062616c616e604482015261636560f01b6064820152608490fd5b835162461bcd60e51b815260206004820152602160248201527f45524332303a206275726e2066726f6d20746865207a65726f206164647265736044820152607360f81b6064820152608490fd5b611d4b926114bd565b388181611be4565b611d5f9099919961119c565b9738611bd2565b85513d8c823e3d90fd5b60405163a9059cbb60e01b60208201526001600160a01b039092166024830152604480830193909352918152608081019167ffffffffffffffff831182841017611186576118b79260405261196f565b908160209103126101e057516001600160a01b03811681036101e05790565b15611de657565b60405162461bcd60e51b815260206004820152601f60248201527f43616c6c657273206d757374206265204d61726b657420636f6e7472616374006044820152606490fd5b9190820391821161123757565b60065460405163292bdab360e11b815291906020906001600160a01b039082908590600490829085165afa93841561172d57600094611f33575b5081906044611e7f6116c1565b600854926040519788948593633362bee560e11b855260048501526024840152165afa92831561172d57600093611ee2575b50827fa4ecc9c1ce63bce38b008f9aa955334b99fa741c1dee15bf34ad19a4c1c9e1699293600955604051908152a1565b8181813d8311611f2c575b611ef781836111b0565b81010312611f28575192507fa4ecc9c1ce63bce38b008f9aa955334b99fa741c1dee15bf34ad19a4c1c9e169611eb1565b8380fd5b503d611eed565b82919450611f4d90823d84116107955761078781836111b0565b9390611e72565b8181029291811591840414171561123757565b9060085490611f768383611e2b565b611f84575050506000600a55565b611fb192611fab6108f392611fa5611f9e600a5487611f54565b9184611f54565b90611e2b565b92611e2b565b600a5556fea26469706673582212207e7e77a04e381c1384d314e69ab5f8a65132732924e7bb09b408438477d1c37164736f6c63430008110033a2646970667358221220f6f6bfc614cc5786461ac743745f92276f145d544c2ce450fd3753afed46695664736f6c63430008110033",
  "linkReferences": {
    "contracts/libraries/logic/BorrowLogic.sol": {
      "BorrowLogic": [
        {
          "length": 20,
          "start": 3865
        },
        {
          "length": 20,
          "start": 4929
        }
      ]
    },
    "contracts/libraries/logic/LiquidationLogic.sol": {
      "LiquidationLogic": [
        {
          "length": 20,
          "start": 637
        }
      ]
    },
    "contracts/libraries/logic/ValidationLogic.sol": {
      "ValidationLogic": [
        {
          "length": 20,
          "start": 16021
        },
        {
          "length": 20,
          "start": 17002
        }
      ]
    }
  },
  "deployedLinkReferences": {
    "contracts/libraries/logic/BorrowLogic.sol": {
      "BorrowLogic": [
        {
          "length": 20,
          "start": 3666
        },
        {
          "length": 20,
          "start": 4730
        }
      ]
    },
    "contracts/libraries/logic/LiquidationLogic.sol": {
      "LiquidationLogic": [
        {
          "length": 20,
          "start": 438
        }
      ]
    },
    "contracts/libraries/logic/ValidationLogic.sol": {
      "ValidationLogic": [
        {
          "length": 20,
          "start": 15822
        },
        {
          "length": 20,
          "start": 16803
        }
      ]
    }
  }
}