{
  "_format": "hh-sol-artifact-1",
  "contractName": "LendingMarket",
  "sourceName": "contracts/protocol/Lending/LendingMarket.sol",
  "abi": [
    {
      "inputs": [],
      "stateMutability": "nonpayable",
      "type": "constructor"
    },
    {
      "anonymous": false,
      "inputs": [
        {
          "indexed": true,
          "internalType": "address",
          "name": "user",
          "type": "address"
        },
        {
          "indexed": true,
          "internalType": "uint256",
          "name": "loanId",
          "type": "uint256"
        },
        {
          "indexed": false,
          "internalType": "uint256",
          "name": "bid",
          "type": "uint256"
        }
      ],
      "name": "BidLiquidationAuction",
      "type": "event"
    },
    {
      "anonymous": false,
      "inputs": [
        {
          "indexed": true,
          "internalType": "address",
          "name": "user",
          "type": "address"
        },
        {
          "indexed": true,
          "internalType": "address",
          "name": "asset",
          "type": "address"
        },
        {
          "indexed": true,
          "internalType": "address",
          "name": "nftAddress",
          "type": "address"
        },
        {
          "indexed": false,
          "internalType": "uint256[]",
          "name": "nftTokenIds",
          "type": "uint256[]"
        },
        {
          "indexed": false,
          "internalType": "uint256",
          "name": "amount",
          "type": "uint256"
        }
      ],
      "name": "Borrow",
      "type": "event"
    },
    {
      "anonymous": false,
      "inputs": [
        {
          "indexed": true,
          "internalType": "address",
          "name": "user",
          "type": "address"
        },
        {
          "indexed": true,
          "internalType": "uint256",
          "name": "loanId",
          "type": "uint256"
        }
      ],
      "name": "ClaimLiquidation",
      "type": "event"
    },
    {
      "anonymous": false,
      "inputs": [
        {
          "indexed": true,
          "internalType": "address",
          "name": "lendingPool",
          "type": "address"
        }
      ],
      "name": "CreateLendingPool",
      "type": "event"
    },
    {
      "anonymous": false,
      "inputs": [
        {
          "indexed": true,
          "internalType": "address",
          "name": "user",
          "type": "address"
        },
        {
          "indexed": true,
          "internalType": "uint256",
          "name": "loanId",
          "type": "uint256"
        },
        {
          "indexed": false,
          "internalType": "uint256",
          "name": "bid",
          "type": "uint256"
        }
      ],
      "name": "CreateLiquidationAuction",
      "type": "event"
    },
    {
      "anonymous": false,
      "inputs": [
        {
          "indexed": false,
          "internalType": "uint8",
          "name": "version",
          "type": "uint8"
        }
      ],
      "name": "Initialized",
      "type": "event"
    },
    {
      "anonymous": false,
      "inputs": [
        {
          "indexed": true,
          "internalType": "address",
          "name": "previousOwner",
          "type": "address"
        },
        {
          "indexed": true,
          "internalType": "address",
          "name": "newOwner",
          "type": "address"
        }
      ],
      "name": "OwnershipTransferred",
      "type": "event"
    },
    {
      "anonymous": false,
      "inputs": [
        {
          "indexed": true,
          "internalType": "address",
          "name": "user",
          "type": "address"
        },
        {
          "indexed": true,
          "internalType": "uint256",
          "name": "loanId",
          "type": "uint256"
        }
      ],
      "name": "Repay",
      "type": "event"
    },
    {
      "anonymous": false,
      "inputs": [
        {
          "indexed": true,
          "internalType": "address",
          "name": "collection",
          "type": "address"
        },
        {
          "indexed": true,
          "internalType": "address",
          "name": "asset",
          "type": "address"
        },
        {
          "indexed": true,
          "internalType": "address",
          "name": "lendingPool",
          "type": "address"
        }
      ],
      "name": "SetLendingPool",
      "type": "event"
    },
    {
      "inputs": [
        {
          "internalType": "uint256",
          "name": "loanId",
          "type": "uint256"
        },
        {
          "internalType": "uint256",
          "name": "bid",
          "type": "uint256"
        }
      ],
      "name": "bidLiquidationAuction",
      "outputs": [],
      "stateMutability": "nonpayable",
      "type": "function"
    },
    {
      "inputs": [
        {
          "internalType": "address",
          "name": "onBehalfOf",
          "type": "address"
        },
        {
          "internalType": "address",
          "name": "asset",
          "type": "address"
        },
        {
          "internalType": "uint256",
          "name": "amount",
          "type": "uint256"
        },
        {
          "internalType": "address",
          "name": "nftAddress",
          "type": "address"
        },
        {
          "internalType": "uint256[]",
          "name": "nftTokenIds",
          "type": "uint256[]"
        },
        {
          "internalType": "uint256",
          "name": "genesisNFTId",
          "type": "uint256"
        },
        {
          "internalType": "bytes32",
          "name": "request",
          "type": "bytes32"
        },
        {
          "components": [
            {
              "internalType": "uint8",
              "name": "v",
              "type": "uint8"
            },
            {
              "internalType": "bytes32",
              "name": "r",
              "type": "bytes32"
            },
            {
              "internalType": "bytes32",
              "name": "s",
              "type": "bytes32"
            },
            {
              "internalType": "bytes32",
              "name": "request",
              "type": "bytes32"
            },
            {
              "internalType": "uint256",
              "name": "deadline",
              "type": "uint256"
            },
            {
              "internalType": "bytes",
              "name": "payload",
              "type": "bytes"
            }
          ],
          "internalType": "struct Trustus.TrustusPacket",
          "name": "packet",
          "type": "tuple"
        }
      ],
      "name": "borrow",
      "outputs": [],
      "stateMutability": "nonpayable",
      "type": "function"
    },
    {
      "inputs": [
        {
          "internalType": "uint256",
          "name": "loanId",
          "type": "uint256"
        }
      ],
      "name": "claimLiquidation",
      "outputs": [],
      "stateMutability": "nonpayable",
      "type": "function"
    },
    {
      "inputs": [
        {
          "internalType": "address",
          "name": "collection",
          "type": "address"
        },
        {
          "internalType": "address",
          "name": "asset",
          "type": "address"
        }
      ],
      "name": "createLendingPool",
      "outputs": [
        {
          "internalType": "address",
          "name": "",
          "type": "address"
        }
      ],
      "stateMutability": "nonpayable",
      "type": "function"
    },
    {
      "inputs": [
        {
          "internalType": "uint256",
          "name": "loanId",
          "type": "uint256"
        },
        {
          "internalType": "uint256",
          "name": "bid",
          "type": "uint256"
        },
        {
          "internalType": "bytes32",
          "name": "request",
          "type": "bytes32"
        },
        {
          "components": [
            {
              "internalType": "uint8",
              "name": "v",
              "type": "uint8"
            },
            {
              "internalType": "bytes32",
              "name": "r",
              "type": "bytes32"
            },
            {
              "internalType": "bytes32",
              "name": "s",
              "type": "bytes32"
            },
            {
              "internalType": "bytes32",
              "name": "request",
              "type": "bytes32"
            },
            {
              "internalType": "uint256",
              "name": "deadline",
              "type": "uint256"
            },
            {
              "internalType": "bytes",
              "name": "payload",
              "type": "bytes"
            }
          ],
          "internalType": "struct Trustus.TrustusPacket",
          "name": "packet",
          "type": "tuple"
        }
      ],
      "name": "createLiquidationAuction",
      "outputs": [],
      "stateMutability": "nonpayable",
      "type": "function"
    },
    {
      "inputs": [],
      "name": "getDefaultPoolConfig",
      "outputs": [
        {
          "components": [
            {
              "internalType": "uint256",
              "name": "maxLiquidatorDiscount",
              "type": "uint256"
            },
            {
              "internalType": "uint256",
              "name": "auctionerFee",
              "type": "uint256"
            },
            {
              "internalType": "uint256",
              "name": "liquidationFee",
              "type": "uint256"
            },
            {
              "internalType": "uint256",
              "name": "maxUtilizationRate",
              "type": "uint256"
            }
          ],
          "internalType": "struct ConfigTypes.LendingPoolConfig",
          "name": "",
          "type": "tuple"
        }
      ],
      "stateMutability": "view",
      "type": "function"
    },
    {
      "inputs": [
        {
          "internalType": "address",
          "name": "collection",
          "type": "address"
        },
        {
          "internalType": "address",
          "name": "asset",
          "type": "address"
        }
      ],
      "name": "getLendingPool",
      "outputs": [
        {
          "internalType": "address",
          "name": "",
          "type": "address"
        }
      ],
      "stateMutability": "view",
      "type": "function"
    },
    {
      "inputs": [],
      "name": "getTVLSafeguard",
      "outputs": [
        {
          "internalType": "uint256",
          "name": "",
          "type": "uint256"
        }
      ],
      "stateMutability": "view",
      "type": "function"
    },
    {
      "inputs": [
        {
          "internalType": "contract IAddressesProvider",
          "name": "addressesProvider",
          "type": "address"
        },
        {
          "internalType": "uint256",
          "name": "tvlSafeguard",
          "type": "uint256"
        },
        {
          "components": [
            {
              "internalType": "uint256",
              "name": "maxLiquidatorDiscount",
              "type": "uint256"
            },
            {
              "internalType": "uint256",
              "name": "auctionerFee",
              "type": "uint256"
            },
            {
              "internalType": "uint256",
              "name": "liquidationFee",
              "type": "uint256"
            },
            {
              "internalType": "uint256",
              "name": "maxUtilizationRate",
              "type": "uint256"
            }
          ],
          "internalType": "struct ConfigTypes.LendingPoolConfig",
          "name": "defaultLendingPoolConfig",
          "type": "tuple"
        }
      ],
      "name": "initialize",
      "outputs": [],
      "stateMutability": "nonpayable",
      "type": "function"
    },
    {
      "inputs": [],
      "name": "owner",
      "outputs": [
        {
          "internalType": "address",
          "name": "",
          "type": "address"
        }
      ],
      "stateMutability": "view",
      "type": "function"
    },
    {
      "inputs": [],
      "name": "renounceOwnership",
      "outputs": [],
      "stateMutability": "nonpayable",
      "type": "function"
    },
    {
      "inputs": [
        {
          "internalType": "uint256",
          "name": "loanId",
          "type": "uint256"
        },
        {
          "internalType": "uint256",
          "name": "amount",
          "type": "uint256"
        }
      ],
      "name": "repay",
      "outputs": [],
      "stateMutability": "nonpayable",
      "type": "function"
    },
    {
      "inputs": [
        {
          "internalType": "address",
          "name": "collection",
          "type": "address"
        },
        {
          "internalType": "address",
          "name": "asset",
          "type": "address"
        },
        {
          "internalType": "address",
          "name": "pool",
          "type": "address"
        }
      ],
      "name": "setCollectionLendingPool",
      "outputs": [],
      "stateMutability": "nonpayable",
      "type": "function"
    },
    {
      "inputs": [
        {
          "components": [
            {
              "internalType": "uint256",
              "name": "maxLiquidatorDiscount",
              "type": "uint256"
            },
            {
              "internalType": "uint256",
              "name": "auctionerFee",
              "type": "uint256"
            },
            {
              "internalType": "uint256",
              "name": "liquidationFee",
              "type": "uint256"
            },
            {
              "internalType": "uint256",
              "name": "maxUtilizationRate",
              "type": "uint256"
            }
          ],
          "internalType": "struct ConfigTypes.LendingPoolConfig",
          "name": "poolConfig",
          "type": "tuple"
        }
      ],
      "name": "setDefaultPoolConfig",
      "outputs": [],
      "stateMutability": "nonpayable",
      "type": "function"
    },
    {
      "inputs": [
        {
          "internalType": "uint256",
          "name": "tvlSafeguard",
          "type": "uint256"
        }
      ],
      "name": "setTVLSafeguard",
      "outputs": [],
      "stateMutability": "nonpayable",
      "type": "function"
    },
    {
      "inputs": [
        {
          "internalType": "address",
          "name": "newOwner",
          "type": "address"
        }
      ],
      "name": "transferOwnership",
      "outputs": [],
      "stateMutability": "nonpayable",
      "type": "function"
    }
  ],
  "bytecode": "0x608080604052346100c1576000549060ff8260081c1661006f575060ff80821610610034575b604051614c6990816100c78239f35b60ff90811916176000557f7f26b83ff96e1f2b6a682f133852f6798a09c465da95921460cefb3847402498602060405160ff8152a138610025565b62461bcd60e51b815260206004820152602760248201527f496e697469616c697a61626c653a20636f6e747261637420697320696e697469604482015266616c697a696e6760c81b6064820152608490fd5b600080fdfe608060405260043610156200001357600080fd5b60003560e01c806344fd4e37146200013757806365ec417614620001315780636c6911b7146200012b578063715018a61462000125578063732c8009146200011f5780637785c63014620001195780638c7d2ebe14620001135780638da5cb5b146200010d578063934a8ed41462000107578063a488f1b71462000101578063a880e68b14620000fb578063b63ec97414620000f5578063c6baa65314620000ef578063d8aed14514620000e9578063f06cf02b14620000e35763f2fde38b14620000dd57600080fd5b62001112565b62000fea565b62000ee9565b62000dda565b62000d90565b62000d70565b62000d11565b62000c8e565b62000c63565b62000b50565b6200056b565b62000464565b620003ff565b6200035d565b620001a8565b62000154565b6001600160a01b038116036200014f57565b600080fd5b346200014f5760603660031901126200014f57620001a660043562000179816200013d565b60243562000187816200013d565b6044359162000196836200013d565b620001a0620011ac565b62001f06565b005b346200014f5760203660031901126200014f57620001c5620011ac565b600435609955005b634e487b7160e01b600052604160045260246000fd5b602081019081106001600160401b03821117620001ff57604052565b620001cd565b6001600160401b038111620001ff57604052565b608081019081106001600160401b03821117620001ff57604052565b60c081019081106001600160401b03821117620001ff57604052565b606081019081106001600160401b03821117620001ff57604052565b90601f801991011681019081106001600160401b03821117620001ff57604052565b604051906200029e8262000251565b565b6040519060a082018281106001600160401b03821117620001ff57604052565b6040519061012082018281106001600160401b03821117620001ff57604052565b9080601f830112156200014f578135906001600160401b038211620001ff578160051b6040519360209362000319858401876200026d565b855283808601928201019283116200014f578301905b8282106200033e575050505090565b813581529083019083016200032f565b908160c09103126200014f5790565b346200014f576101003660031901126200014f576004356200037f816200013d565b602435906200038e826200013d565b606435906200039d826200013d565b6001600160401b03926084358481116200014f57620003c1903690600401620002e1565b60e4359485116200014f57620003e0620001a69536906004016200034e565b9360c4359360a4359360443591620013a7565b60009103126200014f57565b346200014f5760008060031936011262000461576200041d620011ac565b603380546001600160a01b0319811690915581906001600160a01b03167f8be0079c531659141344cd1fd0a4f28419497f9722a3daafe3b4186f6b6457e08280a380f35b80fd5b346200014f5760203660031901126200014f5760043573__$965b9be9fc5ba89821c2195a8bf360e455$__60018060a01b03609a5416604051620004a881620001e3565b838152823b156200014f57604051639113366960e01b81526001600160a01b0392909216600483015251602482015290600090829060449082905af4801562000538576200051a575b50337f3c7d144304eb104ff177cb33b8f53ae73325ac0d7c7d88b2601085e9f3493b79600080a3005b806200052a620005319262000205565b80620003f3565b38620004f1565b620017a4565b60409060031901126200014f5760043562000559816200013d565b9060243562000568816200013d565b90565b346200014f576200057c366200053e565b90620005926200058c8262001c29565b620018a1565b609a546040805163cfeed18160e01b81526001600160a01b03928316939192600491602090869082818681855afa9182156200053857899160009362000b2c575b5087516375151b6360e01b8082526001600160a01b03909316878201908152909385918591908290899082906020010392165afa9081156200053857620006278592889560009162000b0a575b5062001934565b885163292bdab360e11b815293849182905afa9182156200053857620006779284928b9260009262000ae6575b50868a5180968195829483528b8301919091602081019260018060a01b03169052565b0392165afa80156200053857620006989160009162000ac4575b506200199c565b620006ef82620006e7620006da8a620006c38960018060a01b03166000526097602052604060002090565b9060018060a01b0316600052602052604060002090565b546001600160a01b031690565b161562001a0f565b6033546001600160a01b0316828816968651916395d89b4160e01b9283815260008188818d5afa80156200053857620007589160009162000aa7575b506001600160a01b038c16600090815260986020526040902062000751905b5462001daf565b9062001ac4565b92885190815260008188818d5afa80156200053857620007a69160009162000a81575b506001600160a01b038c1660009081526098602052604090206200079f906200074a565b9062001b33565b885193612cc8808601938685106001600160401b03861117620001ff578695620007d8958f9362001f6c893962001b96565b03906000f080156200053857855163095ea7b360e01b81529083166001600160a01b0381168583019081526000196020820152909783918391908290600090829060400103925af18015620005385762000a5f575b50609a546001600160a01b031685516314d888d960e21b8082529083818781865afa90811562000538576200089991859160009162000a3d575b50895163e985e9c560e01b81526001600160a01b03909116888201908152306020820152909283918291604090910190565b0381888b165afa908115620005385760009162000a09575b501562000939575b620009358888620008eb8c620008d184828d62001f06565b6001600160a01b0316600090815260986020526040902090565b620008f7815462001c04565b905551918183927f2542f32ffb9d7022dcce911f06a04e1e188ce008c7842cbc0c6d00a6cb80389f600080a26001600160a01b031682526020820190565b0390f35b829085889a969a518094819382525afa9182156200053857600092620009d5575b505016803b156200014f578351631578b62760e11b81526001600160a01b03841696810196875295600091879182908490829060200103925af191821562000538578482620008d1926200093598620008eb96620009be575b5094819850620008b9565b806200052a620009ce9262000205565b38620009b3565b620009f99250803d1062000a01575b620009f081836200026d565b81019062001902565b38806200095a565b503d620009e4565b62000a2e9150843d861162000a35575b62000a2581836200026d565b8101906200191a565b38620008b1565b503d62000a19565b62000a589150823d841162000a0157620009f081836200026d565b3862000867565b62000a7990823d841162000a355762000a2581836200026d565b50386200082d565b62000aa0913d8091833e62000a9781836200026d565b81019062001a5c565b386200077b565b62000abd913d8091833e62000a9781836200026d565b386200072b565b62000adf9150833d851162000a355762000a2581836200026d565b3862000691565b62000b02919250843d861162000a0157620009f081836200026d565b903862000654565b62000b259150843d861162000a355762000a2581836200026d565b3862000620565b62000b48919350843d861162000a0157620009f081836200026d565b9138620005d3565b346200014f5760c03660031901126200014f5760043562000b71816200013d565b60803660431901126200014f5762000bcf6000549162000bab60ff8460081c16158094819562000c54575b811562000c31575b506200124e565b8262000bbf600160ff196000541617600055565b62000c16575b60243590620012b2565b62000bd657005b62000be761ff001960005416600055565b604051600181527f7f26b83ff96e1f2b6a682f133852f6798a09c465da95921460cefb384740249890602090a1005b62000c2b61010061ff00196000541617600055565b62000bc5565b303b1591508162000c45575b503862000ba4565b6001915060ff16143862000c3d565b600160ff821610915062000b9c565b346200014f5760003660031901126200014f576033546040516001600160a01b039091168152602090f35b346200014f5760008060031936011262000461576080906040906060825162000cb78162000219565b82815282602082015282848201520152805162000cd48162000219565b609b5491828252609c5460208301908152609d54908284019182526060609e54940193845282519485525160208501525190830152516060820152f35b346200014f5760803660031901126200014f5760405162000d328162000219565b6004358152602081016024358152604082019060443582526060830192606435845262000d5e620011ac565b51609b5551609c5551609d5551609e55005b346200014f5760003660031901126200014f576020609954604051908152f35b346200014f57602062000dd062000da7366200053e565b6001600160a01b0391821660009081526097855260408082209284168252602092909252209091565b5416604051908152f35b346200014f5760403660031901126200014f5760043560243562000dfd620017f5565b609a5473__$965b9be9fc5ba89821c2195a8bf360e455$__906001600160a01b031662000e296200028f565b338152846020820152836040820152823b156200014f5760408051638ca12ed560e01b81526001600160a01b03938416600482015282519093166024840152602082015160448401520151606482015290600090829060849082905af48015620005385762000ed2575b5060405190815233907f2933fa64baa79bd560e7bfa5dff7e9093741560d60eadd92285cbf6225ee36179080602081015b0390a3620001a66001606555565b806200052a62000ee29262000205565b3862000e93565b346200014f5760403660031901126200014f5760043562000f09620017f5565b609a5473__$77c5a84c43428e206d5bf08427df63fefa$__906001600160a01b031662000f356200028f565b3381528360208201526024356040820152823b156200014f5760408051634e0be51f60e11b81526001600160a01b03938416600482015282519093166024840152602082015160448401520151606482015290600090829060849082905af48015620005385762000fd3575b50337f5c16de4f8b59bd9caf0f49a545f25819a895ed223294290b408242e72a594231600080a3620001a66001606555565b806200052a62000fe39262000205565b3862000fa1565b346200014f5760803660031901126200014f576004356024356064356001600160401b0381116200014f57620010259036906004016200034e565b6200102f620017f5565b609a5473__$965b9be9fc5ba89821c2195a8bf360e455$__91906001600160a01b0316906200108162001061620002a0565b33815291866020840152856040840152604435606084015236906200158d565b6080820152823b156200014f576040516305ebc92960e51b815292600092849283918291620010b491600484016200184c565b03915af480156200053857620010fb575b5060405190815233907fb426d1d8c1a5d04a33704d93058508396d26eddbf47fe1b0558c4e1448c24c1790806020810162000ec4565b806200052a6200110b9262000205565b38620010c5565b346200014f5760203660031901126200014f5760043562001133816200013d565b6200113d620011ac565b6001600160a01b038116156200115857620001a69062001205565b60405162461bcd60e51b815260206004820152602660248201527f4f776e61626c653a206e6577206f776e657220697320746865207a65726f206160448201526564647265737360d01b6064820152608490fd5b6033546001600160a01b03163303620011c157565b606460405162461bcd60e51b815260206004820152602060248201527f4f776e61626c653a2063616c6c6572206973206e6f7420746865206f776e65726044820152fd5b603380546001600160a01b039283166001600160a01b0319821681179092559091167f8be0079c531659141344cd1fd0a4f28419497f9722a3daafe3b4186f6b6457e0600080a3565b156200125657565b60405162461bcd60e51b815260206004820152602e60248201527f496e697469616c697a61626c653a20636f6e747261637420697320616c72656160448201526d191e481a5b9a5d1a585b1a5e995960921b6064820152608490fd5b620012d060ff60005460081c16620012ca8162001346565b62001346565b620012db3362001205565b6200130960ff60005460081c16620012f38162001346565b620012fe8162001346565b600160655562001346565b60018060a01b03166bffffffffffffffffffffffff60a01b609a541617609a55609955604435609b55606435609c55608435609d5560a435609e55565b156200134e57565b60405162461bcd60e51b815260206004820152602b60248201527f496e697469616c697a61626c653a20636f6e7472616374206973206e6f74206960448201526a6e697469616c697a696e6760a81b6064820152608490fd5b93949096956200145060209397620013be620017f5565b609a546001600160a01b031692620013f1620006da8c620006c38a60018060a01b03166000526097602052604060002090565b946200141362001400620002c0565b338152996001600160a01b03168a890152565b6001600160a01b038c1660408a0152606089018b90526001600160a01b03881660808a01528960a08a015260c089015260e088015236906200158d565b610100860152620014766040519586938493635955626960e11b855260048501620016e7565b038173__$77c5a84c43428e206d5bf08427df63fefa$__5af490811562000538577f5ad24af809b91037141dded9f0cdecfdda4acdd07a3724c10e0af52071842ee492620014e192620014ef575b5060405191829160018060a01b03809116971695339583620017b0565b0390a46200029e6001606555565b620015149060203d81116200151c575b6200150b81836200026d565b8101906200160b565b5038620014c4565b503d620014ff565b6001600160401b038111620001ff57601f01601f191660200190565b81601f820112156200014f578035906200155a8262001524565b926200156a60405194856200026d565b828452602083830101116200014f57816000926020809301838601378301015290565b919060c0838203126200014f5760405190620015a98262000235565b8193803560ff811681036200014f5783526020810135602084015260408101356040840152606081013560608401526080810135608084015260a0810135916001600160401b0383116200014f5760a09262001606920162001540565b910152565b908160209103126200014f575190565b90815180825260208080930193019160005b8281106200163c575050505090565b8351855293810193928101926001016200162d565b60005b838110620016655750506000910152565b818101518382015260200162001654565b90602091620016918151809281855285808601910162001651565b601f01601f1916010190565b9060c060a0620005689360ff8151168452602081015160208501526040810151604085015260608101516060850152608081015160808501520151918160a0820152019062001676565b6001600160a01b039182168152918116602083015260606040830181905283519091169082015262000568919060208201516001600160a01b0316608082015260408201516001600160a01b031660a0820152606082015160c082015260808201516001600160a01b031660e082015260a082015161012092620017796101009285848601526101808501906200161b565b9360c08201519084015260e0810151610140840152015190610160605f19828503019101526200169d565b6040513d6000823e3d90fd5b92919060408401604085528151809152606085019060208093019060005b84828210620017e05750505050930152565b835185529384019390920191600101620017ce565b60026065541462001807576002606555565b60405162461bcd60e51b815260206004820152601f60248201527f5265656e7472616e637947756172643a207265656e7472616e742063616c6c006044820152606490fd5b906080620005689360e09260018060a01b03809116855260406020860152815116604085015260208101516060850152604081015182850152606081015160a085015201519160a060c082015201906200169d565b15620018a957565b60405162461bcd60e51b815260206004820152602b60248201527f436f6c6c656374696f6e2061646472657373206973206e6f742045524337323160448201526a1031b7b6b83634b0b73a1760a91b6064820152608490fd5b908160209103126200014f575162000568816200013d565b908160209103126200014f575180151581036200014f5790565b156200193c57565b60405162461bcd60e51b815260206004820152603260248201527f556e6465726c79696e67204173736574206973206e6f7420737570706f7274656044820152713210313c903a37b5b2b71037b930b1b6329760711b6064820152608490fd5b15620019a457565b60405162461bcd60e51b815260206004820152603c60248201527f556e6465726c79696e67204173736574206973206e6f7420737570706f72746560448201527f6420627920696e746572657374207261746520636f6e74726163742e000000006064820152608490fd5b1562001a1757565b60405162461bcd60e51b815260206004820152601b60248201527f4c656e64696e6720506f6f6c20616c72656164792065786973747300000000006044820152606490fd5b6020818303126200014f578051906001600160401b0382116200014f570181601f820112156200014f57805162001a938162001524565b9262001aa360405194856200026d565b818452602082840101116200014f5762000568916020808501910162001651565b60306200029e919392936040519485916503632a7232a160d51b602084015262001af981518092602060268701910162001651565b820169204c656e64696e67202360b01b602682015262001b23825180936020878501910162001651565b010360108101855201836200026d565b60246200029e91939293604051948591621b195360ea1b602084015262001b6581518092602060238701910162001651565b8201602d60f81b602382015262001b86825180936020878501910162001651565b010360048101855201836200026d565b9594929162001bd19262001be0959260018060a01b0392838092168a5216602089015216604087015261012080606088015286019062001676565b90848203608086015262001676565b91609b5460a0820152609c5460c0820152609d5460e0820152610100609e54910152565b906001820180921162001c1357565b634e487b7160e01b600052601160045260246000fd5b6040519060208083018160006301ffc9a760e01b958684528660248201526024815262001c568162000251565b51617530938685fa933d600051908662001d09575b508562001cfe575b508462001c94575b5050508162001c88575090565b62000568915062001d15565b83945090600091839460405185810192835263ffffffff60e01b60248201526024815262001cc28162000251565b5192fa60005190913d8362001cf2575b50508162001ce7575b50159038808062001c7b565b905015153862001cdb565b10159150388062001cd2565b151594503862001c73565b84111595503862001c6b565b6000602091604051838101906301ffc9a760e01b82526380ac58cd60e01b60248201526024815262001d478162000251565b5191617530fa6000513d8262001d6a575b508162001d63575090565b9050151590565b6020111591503862001d58565b9062001d838262001524565b62001d9260405191826200026d565b828152809262001da5601f199162001524565b0190602036910137565b806000917a184f03e93ff9f4daa797ed6e38ed64bf6a1f0100000000000000008082101562001ef7575b506d04ee2d6d415b85acef81000000008083101562001ee7575b50662386f26fc100008083101562001ed7575b506305f5e1008083101562001ec7575b506127108083101562001eb7575b50606482101562001ea6575b600a8092101562001e9b575b60019081602162001e4f82870162001d77565b95860101905b62001e62575b5050505090565b600019019083906f181899199a1a9b1b9c1cb0b131b232b360811b8282061a83530491821562001e955791908262001e55565b62001e5b565b916001019162001e3c565b919060646002910491019162001e30565b6004919392049101913862001e24565b6008919392049101913862001e16565b6010919392049101913862001e06565b6020919392049101913862001df3565b60409350810491503862001dd9565b6001600160a01b03908116600081815260976020908152604080832095851680845295909152812080546001600160a01b03191695909316948517909255907f288817cea49f022db2036521d5e78e3cd16416913cf6a781d645930143dc31a49080a456fe61010060409080825234620007e25762002cc88038038091620000238285620007e7565b83398101818103916101208312620007e2578051916001600160a01b0383168303620007e25762000057602083016200080b565b93620000658684016200080b565b60608401519092906001600160401b038111620007e257816200008a9186016200083c565b60808501519091906001600160401b038111620007e257608091620000b19187016200083c565b92609f190112620007e25786519360808501906001600160401b03821186831017620006b45790885260a0810151855260c0810151602086015260e081015185890152610100015160608501528051906001600160401b038211620006b45760035490600182811c92168015620007d7575b6020831014620006935781601f84931162000765575b50602090601f8311600114620006d657600092620006ca575b50508160011b916000199060031b1c1916176003555b8051906001600160401b038211620006b45760045490600182811c92168015620006a9575b6020831014620006935781601f84931162000621575b50602090601f8311600114620005925760009262000586575b50508160011b916000199060031b1c1916176004555b6001600160a01b0316620001e681620008ef565b90156200057d575b60a052806080526200020033620008a6565b84516302690e7760e11b81526020816004816001600160a01b0388165afa908115620005725760009162000530575b506001600160a01b03163303620004d85760c083905260e0528051600a55602080820151600b5584820151600c55606090910151600d55835163292bdab360e11b815291829060049082906001600160a01b03165afa908115620004475760009162000496575b5060e05183516370a0823160e01b81523060048201526001600160a01b0390911690602081602481855afa9081156200048b5760009162000452575b5060646020926006549487519586948593635a27739d60e11b855260048501526024840152604483015260018060a01b03165afa9081156200044757600091620003ec575b50907fa4ecc9c1ce63bce38b008f9aa955334b99fa741c1dee15bf34ad19a4c1c9e16960208362000351946007558551908152a1620008a6565b516123129081620009b682396080518181816105710152818161083001528181610d6d0152818161104001526113f3015260a0518161143c015260c0518181816104c50152818161078401528181610d1301528181610fe7015281816112380152818161200f015261221d015260e051818181610a2901528181610b49015281816111850152818161129301528181611cda015261206a0152f35b906020823d6020116200043e575b816200040960209383620007e7565b810103126200043b5750517fa4ecc9c1ce63bce38b008f9aa955334b99fa741c1dee15bf34ad19a4c1c9e16962000317565b80fd5b3d9150620003fa565b83513d6000823e3d90fd5b906020823d60201162000482575b816200046f60209383620007e7565b810103126200043b5750516064620002d2565b3d915062000460565b85513d6000823e3d90fd5b906020823d602011620004cf575b81620004b360209383620007e7565b810103126200043b5750620004c8906200080b565b3862000296565b3d9150620004a4565b845162461bcd60e51b815260206004820152602b60248201527f4c656e64696e6720506f6f6c206d75737420626520637265617465642074687260448201526a1bdd59da081b585c9ad95d60aa1b6064820152608490fd5b906020823d60201162000569575b816200054d60209383620007e7565b810103126200043b575062000562906200080b565b386200022f565b3d91506200053e565b86513d6000823e3d90fd5b506012620001ee565b015190503880620001bc565b6004600090815293507f8a35acfbc15ff81a39ae7d344fd709f28e8600b4aa8c65c6b64bfe7fe36bd19b91905b601f198416851062000605576001945083601f19811610620005eb575b505050811b01600455620001d2565b015160001960f88460031b161c19169055388080620005dc565b81810151835560209485019460019093019290910190620005bf565b60046000529091507f8a35acfbc15ff81a39ae7d344fd709f28e8600b4aa8c65c6b64bfe7fe36bd19b601f840160051c8101602085106200068b575b90849392915b601f830160051c820181106200067b575050620001a3565b6000815585945060010162000663565b50806200065d565b634e487b7160e01b600052602260045260246000fd5b91607f16916200018d565b634e487b7160e01b600052604160045260246000fd5b01519050388062000152565b6003600090815293507fc2575a0e9e593c00f959f8c92f12db2869c3395a3b0502d05e2516446f71f85b91905b601f198416851062000749576001945083601f198116106200072f575b505050811b0160035562000168565b015160001960f88460031b161c1916905538808062000720565b8181015183556020948501946001909301929091019062000703565b60036000529091507fc2575a0e9e593c00f959f8c92f12db2869c3395a3b0502d05e2516446f71f85b601f840160051c810160208510620007cf575b90849392915b601f830160051c82018110620007bf57505062000139565b60008155859450600101620007a7565b5080620007a1565b91607f169162000123565b600080fd5b601f909101601f19168101906001600160401b03821190821017620006b457604052565b51906001600160a01b0382168203620007e257565b6001600160401b038111620006b457601f01601f191660200190565b919080601f84011215620007e257825190620008588262000820565b91620008686040519384620007e7565b808352602091828287010111620007e25760005b8181106200089257508260009394955001015290565b85810183015184820184015282016200087c565b600580546001600160a01b039283166001600160a01b0319821681179092559091167f8be0079c531659141344cd1fd0a4f28419497f9722a3daafe3b4186f6b6457e0600080a3565b6040805163313ce56760e01b60208201908152600482529293929181016001600160401b03811182821017620006b4576040525160009384928392916001600160a01b03165afa3d15620009ac573d906200094a8262000820565b916200095a6040519384620007e7565b82523d84602084013e5b806200099f575b62000976575b508190565b6020818051810103126200099b576020015160ff811162000971576001925060ff1690565b8280fd5b506020815110156200096b565b6060906200096456fe6040608081526004908136101561001557600080fd5b600091823560e01c806301e1d1141461161957806306fdde031461152557806307a2d13a14611202578063095ea7b3146114fb5780630a28a477146114db57806314a6bf0f146114bc57806318160ddd1461149d57806323b872dd14611460578063313ce5671461142257806338d52e0f146113de578063395093511461138e578063402d267d146113675780634a417a53146112075780634cdad506146112025780635170598d146111a9578063545039c6146111485780636e553f6514610f7757806370a082311461032e578063715018a614610f1957806384bdc9a814610ebd5780638da5cb5b14610e9457806394bf804d14610caa57806395d89b4114610ba6578063a225869414610b12578063a457c2d714610a6c578063a663f830146109f9578063a9059cbb146109c8578063b0d965801461094e578063b3d7f6b91461090d578063b460af94146106fe578063ba0876521461044c578063ba1c5e801461042d578063bedb86fb146103f6578063c63d75b6146103cf578063c6e6f592146102b3578063ce96cb771461036a578063d905777e1461032e578063dd62ed3e146102e0578063e2c67439146102b8578063ef8b30f7146102b35763f2fde38b146101e457600080fd5b346102af5760203660031901126102af576101fd6116cd565b906102066117e2565b6001600160a01b0391821692831561025d575050600554826bffffffffffffffffffffffff60a01b821617600555167f8be0079c531659141344cd1fd0a4f28419497f9722a3daafe3b4186f6b6457e0600080a380f35b906020608492519162461bcd60e51b8352820152602660248201527f4f776e61626c653a206e6577206f776e657220697320746865207a65726f206160448201526564647265737360d01b6064820152fd5b8280fd5b6117c4565b5050346102dc57816003193601126102dc576020906102d5611cbf565b9051908152f35b5080fd5b5050346102dc57806003193601126102dc576020916102fd6116cd565b826103066116e3565b6001600160a01b03928316845260018652922091166000908152908352819020549051908152f35b5050346102dc5760203660031901126102dc576020906102d561034f6116cd565b6001600160a01b031660009081526020819052604090205490565b5050346102dc5760203660031901126102dc576020916001600160a01b036103906116cd565b16815280835281902054600254806103ab5750905b51908152f35b6103c9916103c36006546103bd611cbf565b9061183a565b90611c3c565b906103a5565b5050346102dc5760203660031901126102dc576020906103ed6116cd565b50516000198152f35b8382346102dc5760203660031901126102dc57358015158091036102dc5761041c6117e2565b60ff80196009541691161760095580f35b5050346102dc57816003193601126102dc576020906007549051908152f35b509190346102dc5761045d3661178f565b93919060018060a01b0390818616938481526020978189528682205485116106bb576002548061069d575084975b6104936121bd565b73__$5201a97c05ba6aa659e2f36a933dd51801$__803b15610699578851633d08669d60e21b81526001600160a01b037f000000000000000000000000000000000000000000000000000000000000000016848201908152306020820152604081018c9052909185918391908290819060600103915af4801561068f5790849161067b575b505085873303610669575b5050851561061c5785825281895286822054908582106105ce57508490868352828a5203868220558360025403600255846000805160206122bd833981519152898851878152a361059586827f0000000000000000000000000000000000000000000000000000000000000000611f84565b8451928684528784015216907ffbde797d201c681b91056529119e0b02407c7bb96a4a2c75c01fc9667232c8db843392a46103a5611fee565b875162461bcd60e51b81529081018a9052602260248201527f45524332303a206275726e20616d6f756e7420657863656564732062616c616e604482015261636560f01b6064820152608490fd5b865162461bcd60e51b8152908101899052602160248201527f45524332303a206275726e2066726f6d20746865207a65726f206164647265736044820152607360f81b6064820152608490fd5b610674913390611abb565b3885610523565b6106849061172b565b6102af578238610518565b89513d86823e3d90fd5b8380fd5b6106b5906106af6006546103bd611cbf565b87611c3c565b9761048b565b865162461bcd60e51b8152908101899052601d60248201527f455243343632363a2072656465656d206d6f7265207468616e206d61780000006044820152606490fd5b509190346102dc5761070f3661178f565b6001600160a01b0380821680875260208781528688205460025491999498929695939491806108f657505b85116108b35761074985611b86565b976107526121bd565b73__$5201a97c05ba6aa659e2f36a933dd51801$__803b15610699578851633d08669d60e21b81526001600160a01b037f00000000000000000000000000000000000000000000000000000000000000001684820190815230602082015260408101899052909185918391908290819060600103915af4801561068f5790849161089f575b50508887330361088d575b5050851561061c5785825281895286822054908882106105ce57508790868352828a5203868220558660025403600255846000805160206122bd8339815191528988518a8152a361085483827f0000000000000000000000000000000000000000000000000000000000000000611f84565b8451928352858784015216907ffbde797d201c681b91056529119e0b02407c7bb96a4a2c75c01fc9667232c8db843392a46103a5611fee565b610898913390611abb565b38886107e2565b6108a89061172b565b6102af5782386107d7565b865162461bcd60e51b8152908101899052601f60248201527f455243343632363a207769746864726177206d6f7265207468616e206d6178006044820152606490fd5b610908916103c36006546103bd611cbf565b61073a565b50346102af5760203660031901126102af57600254602093509035908061093657509051908152f35b6103c9916109486006546103bd611cbf565b90611bf2565b5050346102dc57816003193601126102dc5760809160608251610970816116f9565b82815282602082015282848201520152805161098b816116f9565b600a5491828252600b5460208301908152600c54908284019182526060600d54940193845282519485525160208501525190830152516060820152f35b5050346102dc57806003193601126102dc576020906109f26109e86116cd565b602435903361185d565b5160018152f35b8334610a6957610a5b610a4d610a53610a1136611761565b94919092610a1d6121ff565b610a256121bd565b30907f0000000000000000000000000000000000000000000000000000000000000000611d50565b8261216e565b600654611fc2565b600655610a66611fee565b80f35b80fd5b508234610a695782600319360112610a6957610a866116cd565b91836024359233815260016020522060018060a01b038416600052602052836000205490828210610ac1576020856109f285850387336119b9565b608490602086519162461bcd60e51b8352820152602560248201527f45524332303a2064656372656173656420616c6c6f77616e63652062656c6f77604482015264207a65726f60d81b6064820152fd5b8334610a69576060366003190112610a6957610a5b610b2f6116cd565b610b6d6024358092610b3f6121ff565b610b476121bd565b7f0000000000000000000000000000000000000000000000000000000000000000611f84565b600654610b9e610b8e610b826008548461215b565b6103bd6044358661215b565b610b98848461183a565b90611c32565b60085561183a565b509190346102dc57816003193601126102dc57805191809380549160019083821c92828516948515610ca0575b6020958686108114610c8d57858952908115610c695750600114610c11575b610c0d8787610c03828c038361173f565b519182918261163c565b0390f35b81529295507f8a35acfbc15ff81a39ae7d344fd709f28e8600b4aa8c65c6b64bfe7fe36bd19b5b828410610c565750505082610c0d94610c0392820101943880610bf2565b8054868501880152928601928101610c38565b60ff19168887015250505050151560051b8301019250610c0382610c0d3880610bf2565b634e487b7160e01b845260228352602484fd5b93607f1693610bd3565b5090346102af57806003193601126102af57813591610cc76116e3565b926002548015600014610e76575080935b610ce06121bd565b8573__$5201a97c05ba6aa659e2f36a933dd51801$__803b156102dc578551632242276b60e11b81526001600160a01b037f00000000000000000000000000000000000000000000000000000000000000001686820190815230602082015260408101899052909183918391908290819060600103915af48015610e6c57610e54575b5050610d918530337f0000000000000000000000000000000000000000000000000000000000000000611d50565b6001600160a01b0316918215610e11575081602095610db28360025461183a565b6002558181528087528481208381540190556000805160206122bd833981519152878651858152a3825190848252858201527fdcbc1c05240f31ff3ad067ef1ee35ce4997762752e3a095284754544f4c709d7833392a36103a5611fee565b606490602085519162461bcd60e51b8352820152601f60248201527f45524332303a206d696e7420746f20746865207a65726f2061646472657373006044820152fd5b610e5d9061172b565b610e68578538610d63565b8580fd5b86513d84823e3d90fd5b610e8e90610e886006546103bd611cbf565b83611bf2565b93610cd8565b5050346102dc57816003193601126102dc5760055490516001600160a01b039091168152602090f35b5050346102dc57816003193601126102dc576006546020929190610ee8610ee2611cbf565b8261183a565b610ef4575b5051908152f35b610f12919250610b98610f098260085461215b565b916103bd611cbf565b9038610eed565b8334610a695780600319360112610a6957610f326117e2565b600580546001600160a01b031981169091556000906001600160a01b03167f8be0079c531659141344cd1fd0a4f28419497f9722a3daafe3b4186f6b6457e08280a380f35b5090346102af57806003193601126102af57813591610f946116e3565b92610f9d611b53565b811161110557610fac81611bbc565b93610fb56121bd565b73__$5201a97c05ba6aa659e2f36a933dd51801$__803b15611101578451632242276b60e11b81526001600160a01b037f00000000000000000000000000000000000000000000000000000000000000001685820190815230602082015260408101859052909188918391908290819060600103915af480156110f7576110e4575b506110648230337f0000000000000000000000000000000000000000000000000000000000000000611d50565b6001600160a01b0316918215610e115750816020956110858660025461183a565b6002558181528087528481208681540190556000805160206122bd833981519152878651888152a3825190815283858201527fdcbc1c05240f31ff3ad067ef1ee35ce4997762752e3a095284754544f4c709d7833392a36103a5611fee565b6110f09096919661172b565b9438611037565b85513d89823e3d90fd5b8680fd5b506020606492519162461bcd60e51b8352820152601e60248201527f455243343632363a206465706f736974206d6f7265207468616e206d617800006044820152fd5b8334610a6957610a5b610a4d610a5361118061116336611761565b611172969392969491946121ff565b61117a6121bd565b8661183a565b9030907f0000000000000000000000000000000000000000000000000000000000000000611d50565b5090346102af5760803660031901126102af578051916111c8836116f9565b358252602082019060243582528201906044358252606083019260643584526111ef6117e2565b51600a5551600b5551600c5551600d5580f35b611685565b509190346102dc57816003193601126102dc57805163292bdab360e11b8152602093906001600160a01b03858284817f000000000000000000000000000000000000000000000000000000000000000085165afa91821561135d57916112d693918793879261132e575b5061127a611cbf565b600654875163fb4ffce160e01b81526001600160a01b037f000000000000000000000000000000000000000000000000000000000000000085161695810195865260208601929092526040850152948593849291839160600190565b0392165afa9283156113235780936112f1575b505051908152f35b909192508382813d831161131c575b61130a818361173f565b81010312610a695750519038806112e9565b503d611300565b8251903d90823e3d90fd5b61134f919250843d8611611356575b611347818361173f565b810190611fcf565b9038611271565b503d61133d565b84513d87823e3d90fd5b5050346102dc5760203660031901126102dc576020906113856116cd565b506102d5611b53565b5050346102dc57806003193601126102dc576109f26020926113d76113b16116cd565b338352600186528483206001600160a01b0382168452865291849020546024359061183a565b90336119b9565b5050346102dc57816003193601126102dc57517f00000000000000000000000000000000000000000000000000000000000000006001600160a01b03168152602090f35b5050346102dc57816003193601126102dc576020905160ff7f0000000000000000000000000000000000000000000000000000000000000000168152f35b5050346102dc5760603660031901126102dc576020906109f26114816116cd565b6114896116e3565b60443591611498833383611abb565b61185d565b5050346102dc57816003193601126102dc576020906002549051908152f35b5050346102dc57816003193601126102dc576020906006549051908152f35b509134610a69576020366003190112610a6957506102d560209235611b86565b5050346102dc57806003193601126102dc576020906109f261151b6116cd565b60243590336119b9565b5090346102af57826003193601126102af57805191836003549060019082821c92828116801561160f575b60209586861082146115fc57508488529081156115da5750600114611581575b610c0d8686610c03828b038361173f565b929550600383527fc2575a0e9e593c00f959f8c92f12db2869c3395a3b0502d05e2516446f71f85b5b8284106115c75750505082610c0d94610c03928201019438611570565b80548685018801529286019281016115aa565b60ff191687860152505050151560051b8301019250610c0382610c0d38611570565b634e487b7160e01b845260229052602483fd5b93607f1693611550565b5050346102dc57816003193601126102dc576020906102d56006546103bd611cbf565b6020808252825181830181905290939260005b82811061167157505060409293506000838284010152601f8019910116010190565b81810186015184820160400152850161164f565b346116c85760203660031901126116c857602060043560025480156000146116b157505b604051908152f35b6116c3916103c36006546103bd611cbf565b6116a9565b600080fd5b600435906001600160a01b03821682036116c857565b602435906001600160a01b03821682036116c857565b6080810190811067ffffffffffffffff82111761171557604052565b634e487b7160e01b600052604160045260246000fd5b67ffffffffffffffff811161171557604052565b90601f8019910116810190811067ffffffffffffffff82111761171557604052565b60809060031901126116c8576004356001600160a01b03811681036116c85790602435906044359060643590565b60609060031901126116c857600435906001600160a01b039060243582811681036116c8579160443590811681036116c85790565b346116c85760203660031901126116c85760206116a9600435611bbc565b6005546001600160a01b031633036117f657565b606460405162461bcd60e51b815260206004820152602060248201527f4f776e61626c653a2063616c6c6572206973206e6f7420746865206f776e65726044820152fd5b9190820180921161184757565b634e487b7160e01b600052601160045260246000fd5b6001600160a01b039081169182156119665716918215611915576000828152806020526040812054918083106118c157604082826000805160206122bd833981519152958760209652828652038282205586815220818154019055604051908152a3565b60405162461bcd60e51b815260206004820152602660248201527f45524332303a207472616e7366657220616d6f756e7420657863656564732062604482015265616c616e636560d01b6064820152608490fd5b60405162461bcd60e51b815260206004820152602360248201527f45524332303a207472616e7366657220746f20746865207a65726f206164647260448201526265737360e81b6064820152608490fd5b60405162461bcd60e51b815260206004820152602560248201527f45524332303a207472616e736665722066726f6d20746865207a65726f206164604482015264647265737360d81b6064820152608490fd5b6001600160a01b03908116918215611a6a5716918215611a1a5760207f8c5be1e5ebec7d5bd14f71427d1e84f3dd0314c0f7b2291e5b200ac8c7c3b925918360005260018252604060002085600052825280604060002055604051908152a3565b60405162461bcd60e51b815260206004820152602260248201527f45524332303a20617070726f766520746f20746865207a65726f206164647265604482015261737360f01b6064820152608490fd5b60405162461bcd60e51b8152602060048201526024808201527f45524332303a20617070726f76652066726f6d20746865207a65726f206164646044820152637265737360e01b6064820152608490fd5b9060018060a01b0380831660005260016020526040600020908216600052602052604060002054926000198403611af3575b50505050565b808410611b0e57611b059303916119b9565b38808080611aed565b60405162461bcd60e51b815260206004820152601d60248201527f45524332303a20696e73756666696369656e7420616c6c6f77616e63650000006044820152606490fd5b611b616006546103bd611cbf565b15801590611b7c575b60009015611b79575060001990565b90565b5060025415611b6a565b60025481158015611bb4575b15611b9b575090565b90611b7991611bae6006546103bd611cbf565b91611bf2565b508015611b92565b60025481158015611bea575b15611bd1575090565b90611b7991611be46006546103bd611cbf565b91611c3c565b508015611bc8565b9190611bff828285611c3c565b928215611c1c5709611c0e5790565b600181018091116118475790565b634e487b7160e01b600052601260045260246000fd5b8115611c1c570490565b916000198284099282810292838086109503948086039514611cb257848311156116c8578291096001821901821680920460028082600302188083028203028083028203028083028203028083028203028083028203028092029003029360018380600003040190848311900302920304170290565b505090611b799250611c32565b6040516370a0823160e01b81523060048201526020816024817f00000000000000000000000000000000000000000000000000000000000000006001600160a01b03165afa908115611d4457600091611d16575090565b906020823d8211611d3c575b81611d2f6020938361173f565b81010312610a6957505190565b3d9150611d22565b6040513d6000823e3d90fd5b6040516323b872dd60e01b60208201526001600160a01b03928316602482015292909116604483015260648083019390935291815260a081019181831067ffffffffffffffff84111761171557611da992604052611dab565b565b60018060a01b0316906040516040810167ffffffffffffffff9082811082821117611715576040526020938483527f5361666545524332303a206c6f772d6c6576656c2063616c6c206661696c6564858401526000808587829751910182855af1903d15611ee4573d928311611ed05790611e4693929160405192611e3988601f19601f840116018561173f565b83523d868885013e611eef565b805180611e535750505050565b818491810103126102dc5782015190811591821503610a695750611e7957808080611aed565b6084906040519062461bcd60e51b82526004820152602a60248201527f5361666545524332303a204552433230206f7065726174696f6e20646964206e6044820152691bdd081cdd58d8d9595960b21b6064820152fd5b634e487b7160e01b85526041600452602485fd5b90611e469392506060915b91929015611f515750815115611f03575090565b3b15611f0c5790565b60405162461bcd60e51b815260206004820152601d60248201527f416464726573733a2063616c6c20746f206e6f6e2d636f6e74726163740000006044820152606490fd5b825190915015611f645750805190602001fd5b60405162461bcd60e51b8152908190611f80906004830161163c565b0390fd5b60405163a9059cbb60e01b60208201526001600160a01b039092166024830152604480830193909352918152611da991611fbd826116f9565b611dab565b9190820391821161184757565b908160209103126116c857516001600160a01b03811681036116c85790565b60405163292bdab360e11b81526001600160a01b03919060209081816004817f000000000000000000000000000000000000000000000000000000000000000088165afa938415611d44576120ac94839260009161213e575b50612050611cbf565b600654604051635a27739d60e11b81526001600160a01b037f0000000000000000000000000000000000000000000000000000000000000000861616600482015260248101929092526044820152958692839182906064820190565b0392165afa928315611d44576000936120f1575b50827fa4ecc9c1ce63bce38b008f9aa955334b99fa741c1dee15bf34ad19a4c1c9e1699293600755604051908152a1565b8181813d8311612137575b612106818361173f565b81010312610699575192507fa4ecc9c1ce63bce38b008f9aa955334b99fa741c1dee15bf34ad19a4c1c9e1696120c0565b503d6120fc565b6121559150833d851161135657611347818361173f565b38612047565b8181029291811591840414171561184757565b906006549061217d8383611fc2565b61218b575050506000600855565b6121b8926121b2610b98926121ac6121a56008548761215b565b918461215b565b90611fc2565b92611fc2565b600855565b60ff600954166121c957565b60405162461bcd60e51b815260206004820152600e60248201526d141bdbdb081a5cc81c185d5cd95960921b6044820152606490fd5b6040516302690e7760e11b81526001600160a01b03906020816004817f000000000000000000000000000000000000000000000000000000000000000086165afa908115611d445760009161229e575b5016330361225957565b60405162461bcd60e51b815260206004820152601e60248201527f43616c6c6572206d757374206265204d61726b657420636f6e747261637400006044820152606490fd5b6122b6915060203d811161135657611347818361173f565b3861224f56feddf252ad1be2c89b69c2b068fc378daa952ba7f163c4a11628f55a4df523b3efa2646970667358221220013afb2b89a1f0c22528c8a80df50b4fc9eddffb67d5ecf36130eef5343f146864736f6c63430008130033a26469706673582212206266ca085b8c0c56175c666c5ce99cefbf3f27ad618c05cb30d28db3f3eb7a8064736f6c63430008130033",
  "linkReferences": {
    "contracts/libraries/logic/BorrowLogic.sol": {
      "BorrowLogic": [
        {
          "length": 20,
          "start": 4053
        },
        {
          "length": 20,
          "start": 5441
        }
      ]
    },
    "contracts/libraries/logic/LiquidationLogic.sol": {
      "LiquidationLogic": [
        {
          "length": 20,
          "start": 1347
        },
        {
          "length": 20,
          "start": 3785
        },
        {
          "length": 20,
          "start": 4347
        }
      ]
    },
    "contracts/libraries/logic/ValidationLogic.sol": {
      "ValidationLogic": [
        {
          "length": 20,
          "start": 11902
        },
        {
          "length": 20,
          "start": 12605
        },
        {
          "length": 20,
          "start": 14028
        },
        {
          "length": 20,
          "start": 14752
        }
      ]
    }
  },
  "deployedLinkReferences": {
    "contracts/libraries/logic/BorrowLogic.sol": {
      "BorrowLogic": [
        {
          "length": 20,
          "start": 3854
        },
        {
          "length": 20,
          "start": 5242
        }
      ]
    },
    "contracts/libraries/logic/LiquidationLogic.sol": {
      "LiquidationLogic": [
        {
          "length": 20,
          "start": 1148
        },
        {
          "length": 20,
          "start": 3586
        },
        {
          "length": 20,
          "start": 4148
        }
      ]
    },
    "contracts/libraries/logic/ValidationLogic.sol": {
      "ValidationLogic": [
        {
          "length": 20,
          "start": 11703
        },
        {
          "length": 20,
          "start": 12406
        },
        {
          "length": 20,
          "start": 13829
        },
        {
          "length": 20,
          "start": 14553
        }
      ]
    }
  }
}