{
  "_format": "hh-sol-artifact-1",
  "contractName": "LendingGauge",
  "sourceName": "contracts/protocol/Gauges/LendingGauge.sol",
  "abi": [
    {
      "inputs": [
        {
          "internalType": "contract IAddressesProvider",
          "name": "addressProvider",
          "type": "address"
        },
        {
          "internalType": "address",
          "name": "lpToken_",
          "type": "address"
        }
      ],
      "stateMutability": "nonpayable",
      "type": "constructor"
    },
    {
      "inputs": [],
      "name": "LP_MATURITY_PERIOD",
      "outputs": [
        {
          "internalType": "uint256",
          "name": "",
          "type": "uint256"
        }
      ],
      "stateMutability": "view",
      "type": "function"
    },
    {
      "inputs": [
        {
          "internalType": "address",
          "name": "user",
          "type": "address"
        }
      ],
      "name": "balanceOf",
      "outputs": [
        {
          "internalType": "uint256",
          "name": "",
          "type": "uint256"
        }
      ],
      "stateMutability": "view",
      "type": "function"
    },
    {
      "inputs": [],
      "name": "claim",
      "outputs": [
        {
          "internalType": "uint256",
          "name": "",
          "type": "uint256"
        }
      ],
      "stateMutability": "nonpayable",
      "type": "function"
    },
    {
      "inputs": [
        {
          "internalType": "uint256",
          "name": "amount",
          "type": "uint256"
        }
      ],
      "name": "deposit",
      "outputs": [],
      "stateMutability": "nonpayable",
      "type": "function"
    },
    {
      "inputs": [
        {
          "internalType": "uint256",
          "name": "tokenId",
          "type": "uint256"
        }
      ],
      "name": "kick",
      "outputs": [],
      "stateMutability": "nonpayable",
      "type": "function"
    },
    {
      "inputs": [],
      "name": "lpToken",
      "outputs": [
        {
          "internalType": "address",
          "name": "",
          "type": "address"
        }
      ],
      "stateMutability": "view",
      "type": "function"
    },
    {
      "inputs": [],
      "name": "totalSupply",
      "outputs": [
        {
          "internalType": "uint256",
          "name": "",
          "type": "uint256"
        }
      ],
      "stateMutability": "view",
      "type": "function"
    },
    {
      "inputs": [
        {
          "internalType": "address",
          "name": "user",
          "type": "address"
        }
      ],
      "name": "userBoost",
      "outputs": [
        {
          "internalType": "uint256",
          "name": "",
          "type": "uint256"
        }
      ],
      "stateMutability": "view",
      "type": "function"
    },
    {
      "inputs": [
        {
          "internalType": "address",
          "name": "user",
          "type": "address"
        }
      ],
      "name": "userMaturityMultiplier",
      "outputs": [
        {
          "internalType": "uint256",
          "name": "",
          "type": "uint256"
        }
      ],
      "stateMutability": "view",
      "type": "function"
    },
    {
      "inputs": [
        {
          "internalType": "uint256",
          "name": "amount",
          "type": "uint256"
        }
      ],
      "name": "withdraw",
      "outputs": [],
      "stateMutability": "nonpayable",
      "type": "function"
    },
    {
      "inputs": [],
      "name": "writeTotalWeightHistory",
      "outputs": [],
      "stateMutability": "nonpayable",
      "type": "function"
    }
  ],
  "bytecode": "0x6080346200012a576001600160401b0390601f6200195d38819003918201601f1916830191848311848410176200012f5780849260409485528339810103126200012a5780516001600160a01b0380821692918390036200012a576020809201519081168091036200012a5760018060a01b031960009381855416178455600754161760075560405192818401908482109082111762000116576040528183526006549260019384600655808510620000eb575b509060068352808320925b848110620000d6576040516118179081620001468239f35b825160ff1684820155918101918401620000be565b60068452848084862092830192015b8281106200010a575050620000b3565b858155018590620000fa565b634e487b7160e01b83526041600452602483fd5b600080fd5b634e487b7160e01b600052604160045260246000fdfe6040608081526004908136101561001557600080fd5b600091823560e01c806318160ddd14610538578063261cd83a1461051c5780632e1a7d4d146104305780633a631ed8146104005780634e71d92d146103e35780635fcbd285146103ba57806370a082311461038157806387da75ef14610368578063b6b55f2514610268578063ce0cf1a5146100d75763d02a2bee1461009a57600080fd5b346100d35760203660031901126100d35735916001600160a01b03831683036100d057506100c96020926114dd565b9051908152f35b80fd5b8280fd5b50346100d357602090816003193601126102645783548351630458184560e11b8152823592916001600160a01b039190859082908590829086165afa90811561023d578791610247575b5016918451635a2d1e0760e11b815281838201528581602481875afa801561023d57859188916101d0575b5001514211610159578580f35b60248492865194859384926331a9108f60e11b84528301525afa9182156101c35761018d93508492610196575b50506111c5565b38808080808580f35b6101b59250803d106101bc575b6101ad818361059b565b810190610635565b3880610186565b503d6101a3565b50505051903d90823e3d90fd5b809250878092503d8311610236575b6101e9818361059b565b810103126102325785519086820182811067ffffffffffffffff82111761021f578752805182528501518186015284903861014c565b634e487b7160e01b895260418552602489fd5b8680fd5b503d6101df565b86513d89823e3d90fd5b61025e9150853d87116101bc576101ad818361059b565b38610121565b8380fd5b5091903461036457602036600319011261036457823590811561031457338352600160205280832061029b83825461068b565b90556102a6336111c5565b60075481516323b872dd60e01b60208201523360248201523060448201526064808201949094529283526001600160a01b03169060a083019067ffffffffffffffff821184831017610301576102fe949550526115c8565b80f35b634e487b7160e01b855260418652602485fd5b5162461bcd60e51b8152602081850152602560248201527f4465706f73697420616d6f756e74206d75737420626520677265617465722074604482015264068616e20360dc1b6064820152608490fd5b5080fd5b83346100d057806003193601126100d0576102fe610f78565b50346100d35760203660031901126100d357356001600160a01b038116908190036100d357828291602094526001845220549051908152f35b50503461036457816003193601126103645760075490516001600160a01b039091168152602090f35b5050346103645781600319360112610364576020906100c961075c565b50346100d35760203660031901126100d35735916001600160a01b03831683036100d057506100c960209261157a565b50346100d35760203660031901126100d35780359033845260016020528284205482116104cd57506102fe916104c86104ba9233865260016020528286206104798282546106e5565b9055610484336111c5565b600754925163a9059cbb60e01b60208201523360248201526044810191909152926001600160a01b039092169183906064820190565b03601f19810184528361059b565b6115c8565b608490602084519162461bcd60e51b8352820152602360248201527f576974686472617720616d6f756e7420686967686572207468616e2062616c616044820152626e636560e81b6064820152fd5b5050346103645781600319360112610364576020905160068152f35b5050346103645781600319360112610364576020906100c96105bd565b6060810190811067ffffffffffffffff82111761057157604052565b634e487b7160e01b600052604160045260246000fd5b67ffffffffffffffff811161057157604052565b90601f8019910116810190811067ffffffffffffffff82111761057157604052565b6007546040516370a0823160e01b815230600482015290602090829060249082906001600160a01b03165afa908115610629576000916105fb575090565b906020823d8211610621575b816106146020938361059b565b810103126100d057505190565b3d9150610607565b6040513d6000823e3d90fd5b9081602091031261065457516001600160a01b03811681036106545790565b600080fd5b8054821015610675576000526003602060002091020190600090565b634e487b7160e01b600052603260045260246000fd5b9190820180921161069857565b634e487b7160e01b600052601160045260246000fd5b60001981146106985760010190565b906040516106ca81610555565b60406002829480548452600181015460208501520154910152565b9190820391821161069857565b6006548110156106755760066000527ff652222313e28459528d920b65115c16c04f3efc82aaedc97be59f3f377c0d3f0190600090565b8181029291811591840414171561069857565b8115610746570490565b634e487b7160e01b600052601260045260246000fd5b610765336111c5565b600054604051630458184560e11b8152906001600160a01b0316602082600481845afa90811561062957600492600092610f56575b5060209060405193848092632c6f4d6f60e11b82525afa91821561062957600092610f35575b50336000526002602052604060002054918215610f2d57600460205260406000205415610e8b575b60009260005b603281106108a3575b50506000546040516315b9ba5d60e01b8152925060209150829060049082906001600160a01b03165afa90811561062957600091610884575b506001600160a01b0316803b1561065457604051631ec9887760e11b815233600482015260248101839052906000908290604490829084905af1801561062957610878575090565b61088190610587565b90565b61089d915060203d6020116101bc576101ad818361059b565b38610830565b336000526004602052604060002054604051635487c57760e01b815242600482015260208160248160018060a01b038a165afa90811561062957600091610e59575b5081106108f257506107f7565b33600052600260205261091d6109176040600020600360205260406000205490610659565b506106bd565b3360005260036020526040600020548460001981011161069857600019850103610a685761094a826106f2565b90549060031b1c610980575b505061097b90336000526004602052604060002061097481546106ae565b90556106ae565b6107ee565b6040516315a8752360e31b8152306004820152602481018390529296919260208160448160006001600160a01b038b165af190811561062957600091610a34575b50816109ee6109e960406109e06109f49560206109fa98015190610729565b930151426106e5565b6110b6565b90610729565b926106f2565b90549060031b1c906127109182810292818404149015171561069857610a26610a2c9261097b9461073c565b9061068b565b949038610956565b90506020813d602011610a60575b81610a4f6020938361059b565b8101031261065457516109fa6109c1565b3d9150610a42565b3360005260026020526040600020600360205260406000205460018101811161069857610a9c916001610917920190610659565b6040818101519051635487c57760e01b815260048101919091526020816024816001600160a01b038c165afa90811561062957600091610e27575b506040838101519051635487c57760e01b81526004810191909152906020826024816001600160a01b038d165afa91821561062957600092610df3575b5003610b395750505061097b90336000526003602052604060002061097481546106ae565b6040818101519051635487c57760e01b815260048101919091526020816024816001600160a01b038c165afa8015610629578491600091610dbe575b5003610cb857610b84836106f2565b90549060031b1c151580610cac575b610bd1575b50505061097b903360005260036020526040600020610bb781546106ae565b9055336000526004602052604060002061097481546106ae565b6040516315a8752360e31b815230600482015260248101849052939792939060208260448160006001600160a01b038c165af191821561062957600092610c75575b50916020610c376109f4936109ee6109e96040610c409801516040870151906106e5565b91015190610729565b90549060031b1c906127109182810292818404149015171561069857610a26610c6c9261097b9461073c565b94903880610b98565b9150916020823d602011610ca4575b81610c916020938361059b565b8101031261065457905190916020610c13565b3d9150610c84565b50815181511015610b93565b610cc1836106f2565b90549060031b1c610cec575b50505061097b90336000526004602052604060002061097481546106ae565b6040516315a8752360e31b815230600482015260248101849052939792939060208260448160006001600160a01b038c165af191821561062957600092610d87575b50916020610c376109f4936109ee6109e96040610d529801516040870151906106e5565b90549060031b1c906127109182810292818404149015171561069857610a26610d7e9261097b9461073c565b94903880610ccd565b9150916020823d602011610db6575b81610da36020938361059b565b8101031261065457905190916020610d2e565b3d9150610d96565b9150506020813d602011610deb575b81610dda6020938361059b565b810103126106545783905138610b75565b3d9150610dcd565b9091506020813d602011610e1f575b81610e0f6020938361059b565b8101031261065457519038610b14565b3d9150610e02565b90506020813d602011610e51575b81610e426020938361059b565b81010312610654575138610ad7565b3d9150610e35565b90506020813d602011610e83575b81610e746020938361059b565b810103126106545751386108e5565b3d9150610e67565b600260205260406000208054156106755760005260026020600020015460405190635487c57760e01b8252600482015260208160248160018060a01b0387165afa90811561062957600091610efb575b5060018101809111610698573360005260046020526040600020556107e8565b90506020813d602011610f25575b81610f166020938361059b565b81010312610654575138610edb565b3d9150610f09565b505050600090565b610f4f91925060203d6020116101bc576101ad818361059b565b90386107c0565b6020919250610f7190823d84116101bc576101ad818361059b565b919061079a565b60008054604051630458184560e11b8152602092916004916001600160a01b0391859082908590829086165afa90811561108e578491611099575b50846040518092635487c57760e01b82524286830152816024958692165afa94851561108e57849561105e575b5050825b60808110610ff4575b5050505050565b60068054868110156110575760055491600160401b82101561104557816110259160016110409695940190556106f2565b819291549060031b91821b91600019901b19161790556106ae565b610fe4565b634e487b7160e01b8752604186528487fd5b5050610fed565b9080929550813d8311611087575b611076818361059b565b810103126100d35751923880610fe0565b503d61106c565b6040513d86823e3d90fd5b6110b09150853d87116101bc576101ad818361059b565b38610fb3565b9060018060a01b0360009281845416916040518093630458184560e11b825281600460209687935afa80156111ba578491879161119d575b50600460405180948193632d6de86160e21b8352165afa928315611192578593611162575b50508160060291600683040361114e57818111156111345750612710925050565b612710908082029182040361114e5761088192935061073c565b634e487b7160e01b84526011600452602484fd5b9080929350813d831161118b575b61117a818361059b565b810103126102645751903880611113565b503d611170565b6040513d87823e3d90fd5b6111b49150823d84116101bc576101ad818361059b565b386110ee565b6040513d88823e3d90fd5b6000805460408051630458184560e11b815292949360049390926020916001600160a01b0391839082908890829086165afa9081156114d35790829189916114b6575b501696873b156100d05783516387da75ef60e01b815281818881838d5af180156114ac5761149d575b50908351946316275f1560e21b86521693848682015260249783828a81845afa918215611461578392918591849361146b575b50888751809581936396c82e5760e01b83525af1918215611461578392611432575b5061128f610f78565b816113b35750508381526001825282812054925b80516112ae81610555565b8281528284820152828282015292858352600281528183208054908161137a575b50506002908684526001815282842054966113128451966112ef88610555565b89885283880198895261130a8689019a428c5260055461068b565b9051906106e5565b6005558452528120805490600160401b821015611368579061133991600182018155610659565b95909561135757505060029394955051845551600184015551910155565b634e487b7160e01b82528190528690fd5b634e487b7160e01b8352604187528883fd5b9194506000198101919082116113a15761091760029261139992610659565b9390386112cf565b634e487b7160e01b8452601188528984fd5b858352600184528483205491611388838102928184048503611420578082029182040361140e5791610a266113f6926113f1612710956109ee6105bd565b61073c565b048082101561140757505b926112a3565b9050611401565b634e487b7160e01b8552601189528a85fd5b634e487b7160e01b865260118a528b86fd5b9091508381813d831161145a575b61144a818361059b565b8101031261065457519038611286565b503d611440565b85513d85823e3d90fd5b9350915082813d8311611496575b611483818361059b565b8101031261065457838392519138611264565b503d611479565b6114a690610587565b38611231565b85513d84823e3d90fd5b6114cd9150843d86116101bc576101ad818361059b565b38611208565b84513d8a823e3d90fd5b6001600160a01b03166000818152600160205260408120549092919015611577576002602052604083208054600019810191908211611563579061152091610659565b5054600181901b91906001600160ff1b0381160361114e576127109182810292818404149015171561114e5783604091610881949552600160205220549061073c565b634e487b7160e01b85526011600452602485fd5b50565b6001600160a01b0316600090815260026020526040902080549081156115c15760001982019182116106985760026115b8610881936109e993610659565b500154426106e5565b5050600090565b60018060a01b0316906040516040810167ffffffffffffffff9082811082821117610571576040526020938483527f5361666545524332303a206c6f772d6c6576656c2063616c6c206661696c6564858401526000808587829751910182855af1903d15611702573d9283116116ee57906116639392916040519261165688601f19601f840116018561059b565b83523d868885013e61170d565b805180611671575b50505050565b8184918101031261036457820151908115918215036100d057506116975780808061166b565b6084906040519062461bcd60e51b82526004820152602a60248201527f5361666545524332303a204552433230206f7065726174696f6e20646964206e6044820152691bdd081cdd58d8d9595960b21b6064820152fd5b634e487b7160e01b85526041600452602485fd5b906116639392506060915b9192901561176f5750815115611721575090565b3b1561172a5790565b60405162461bcd60e51b815260206004820152601d60248201527f416464726573733a2063616c6c20746f206e6f6e2d636f6e74726163740000006044820152606490fd5b8251909150156117825750805190602001fd5b6040519062461bcd60e51b82528160208060048301528251908160248401526000935b8285106117c8575050604492506000838284010152601f80199101168101030190fd5b84810182015186860160440152938101938593506117a556fea2646970667358221220cf011beccc557e722c588a031187c139ed215c05b97c1dbed798249ff86255c164736f6c63430008130033",
  "linkReferences": {},
  "deployedLinkReferences": {}
}