{
  "_format": "hh-sol-artifact-1",
  "contractName": "LendingGauge",
  "sourceName": "contracts/protocol/Gauges/LendingGauge.sol",
  "abi": [
    {
      "inputs": [
        {
          "internalType": "contract IAddressesProvider",
          "name": "addressProvider",
          "type": "address"
        },
        {
          "internalType": "address",
          "name": "lpToken_",
          "type": "address"
        }
      ],
      "stateMutability": "nonpayable",
      "type": "constructor"
    },
    {
      "inputs": [
        {
          "internalType": "address",
          "name": "user",
          "type": "address"
        }
      ],
      "name": "balanceOf",
      "outputs": [
        {
          "internalType": "uint256",
          "name": "",
          "type": "uint256"
        }
      ],
      "stateMutability": "view",
      "type": "function"
    },
    {
      "inputs": [],
      "name": "claim",
      "outputs": [
        {
          "internalType": "uint256",
          "name": "",
          "type": "uint256"
        }
      ],
      "stateMutability": "nonpayable",
      "type": "function"
    },
    {
      "inputs": [
        {
          "internalType": "uint256",
          "name": "amount",
          "type": "uint256"
        }
      ],
      "name": "deposit",
      "outputs": [],
      "stateMutability": "nonpayable",
      "type": "function"
    },
    {
      "inputs": [
        {
          "internalType": "address",
          "name": "user",
          "type": "address"
        }
      ],
      "name": "kick",
      "outputs": [],
      "stateMutability": "nonpayable",
      "type": "function"
    },
    {
      "inputs": [],
      "name": "lpToken",
      "outputs": [
        {
          "internalType": "address",
          "name": "",
          "type": "address"
        }
      ],
      "stateMutability": "view",
      "type": "function"
    },
    {
      "inputs": [],
      "name": "totalSupply",
      "outputs": [
        {
          "internalType": "uint256",
          "name": "",
          "type": "uint256"
        }
      ],
      "stateMutability": "view",
      "type": "function"
    },
    {
      "inputs": [
        {
          "internalType": "address",
          "name": "user",
          "type": "address"
        }
      ],
      "name": "userBoost",
      "outputs": [
        {
          "internalType": "uint256",
          "name": "",
          "type": "uint256"
        }
      ],
      "stateMutability": "view",
      "type": "function"
    },
    {
      "inputs": [
        {
          "internalType": "uint256",
          "name": "amount",
          "type": "uint256"
        }
      ],
      "name": "withdraw",
      "outputs": [],
      "stateMutability": "nonpayable",
      "type": "function"
    },
    {
      "inputs": [
        {
          "internalType": "address",
          "name": "user",
          "type": "address"
        }
      ],
      "name": "workingBalanceOf",
      "outputs": [
        {
          "internalType": "uint256",
          "name": "",
          "type": "uint256"
        }
      ],
      "stateMutability": "view",
      "type": "function"
    },
    {
      "inputs": [],
      "name": "workingSupply",
      "outputs": [
        {
          "internalType": "uint256",
          "name": "",
          "type": "uint256"
        }
      ],
      "stateMutability": "view",
      "type": "function"
    },
    {
      "inputs": [],
      "name": "writeTotalWeightHistory",
      "outputs": [],
      "stateMutability": "nonpayable",
      "type": "function"
    }
  ],
  "bytecode": "0x60806040523480156200001157600080fd5b5060405162001a1938038062001a1983398101604081905262000034916200007f565b600080546001600160a01b039384166001600160a01b03199182161790915560078054929093169116179055620000be565b6001600160a01b03811681146200007c57600080fd5b50565b600080604083850312156200009357600080fd5b8251620000a08162000066565b6020840151909250620000b38162000066565b809150509250929050565b61194b80620000ce6000396000f3fe608060405234801561001057600080fd5b50600436106100a95760003560e01c806370a082311161007157806370a082311461011457806387da75ef1461013d57806396c5517514610145578063b6b55f2514610158578063c8562f721461016b578063d02a2bee1461017357600080fd5b80630c7c97c7146100ae57806318160ddd146100d45780632e1a7d4d146100dc5780634e71d92d146100f15780635fcbd285146100f9575b600080fd5b6100c16100bc366004611617565b610186565b6040519081526020015b60405180910390f35b6100c16101fc565b6100ef6100ea366004611634565b61026e565b005b6100c1610326565b6007546040516001600160a01b0390911681526020016100cb565b6100c1610122366004611617565b6001600160a01b031660009081526001602052604090205490565b6100ef610cf9565b6100ef610153366004611617565b610e3e565b6100ef610166366004611634565b610f38565b6005546100c1565b6100c1610181366004611617565b610f7e565b6001600160a01b03811660009081526002602052604081205481036101ad57506000919050565b6001600160a01b038216600090815260026020526040902080546101d390600190611663565b815481106101e3576101e3611676565b9060005260206000209060020201600001549050919050565b6007546040516370a0823160e01b81523060048201526000916001600160a01b0316906370a0823190602401602060405180830381865afa158015610245573d6000803e3d6000fd5b505050506040513d601f19601f82011682018060405250810190610269919061168c565b905090565b336000908152600160205260409020548111156102de5760405162461bcd60e51b815260206004820152602360248201527f576974686472617720616d6f756e7420686967686572207468616e2062616c616044820152626e636560e81b60648201526084015b60405180910390fd5b33600090815260016020526040812080548392906102fd908490611663565b9091555061030c905033611014565b600754610323906001600160a01b03163383611233565b50565b600061033133611014565b60008060009054906101000a90046001600160a01b03166001600160a01b03166308b0308a6040518163ffffffff1660e01b8152600401602060405180830381865afa158015610385573d6000803e3d6000fd5b505050506040513d601f19601f820116820180604052508101906103a991906116a5565b905060008060009054906101000a90046001600160a01b03166001600160a01b03166315b9ba5d6040518163ffffffff1660e01b8152600401602060405180830381865afa1580156103ff573d6000803e3d6000fd5b505050506040513d601f19601f8201168201806040525081019061042391906116a5565b33600090815260026020526040812054919250819003610447576000935050505090565b3360009081526004602052604081205490036105195733600090815260026020526040812080546001600160a01b03861692635487c577929161048c5761048c611676565b9060005260206000209060020201600101546040518263ffffffff1660e01b81526004016104bc91815260200190565b602060405180830381865afa1580156104d9573d6000803e3d6000fd5b505050506040513d601f19601f820116820180604052508101906104fd919061168c565b6105089060016116c2565b336000908152600460205260409020555b60008060005b6032811015610be85760046000336001600160a01b03166001600160a01b031681526020019081526020016000205491506105dd60405180608001604052806048815260200161187760489139604051635487c57760e01b8152426004820152839085906001600160a01b038b1690635487c57790602401602060405180830381865afa1580156105b4573d6000803e3d6000fd5b505050506040513d601f19601f820116820180604052508101906105d8919061168c565b61129b565b604051635487c57760e01b81524260048201526001600160a01b03871690635487c57790602401602060405180830381865afa158015610621573d6000803e3d6000fd5b505050506040513d601f19601f82011682018060405250810190610645919061168c565b821015610be85733600090815260026020908152604080832060039092528220548154811061067657610676611676565b90600052602060002090600202016040518060400160405290816000820154815260200160018201548152505090506001856106b29190611663565b33600090815260036020526040902054036107fb5761072b6040518060400160405280601d81526020017f436c61696d696e67206c61737420776f726b696e672062616c616e636500000081525060036000336001600160a01b03166001600160a01b03168152602001908152602001600020546112ea565b6006838154811061073e5761073e611676565b60009182526020909120015481516040516384f5be8160e01b8152600481018690526001600160a01b038916906384f5be8190602401602060405180830381865afa158015610791573d6000803e3d6000fd5b505050506040513d601f19601f820116820180604052508101906107b5919061168c565b6107bf91906116d5565b6107c991906116ec565b6107d390856116c2565b3360009081526004602052604081208054929650906107f18361170e565b9190505550610bd5565b33600090815260026020908152604080832060039092528220546108209060016116c2565b8154811061083057610830611676565b6000918252602091829020604080518082018252600293909302909101805483526001015482840152918401519151635487c57760e01b8152600481019290925291506001600160a01b03891690635487c57790602401602060405180830381865afa1580156108a4573d6000803e3d6000fd5b505050506040513d601f19601f820116820180604052508101906108c8919061168c565b6020820151604051635487c57760e01b815260048101919091526001600160a01b038a1690635487c57790602401602060405180830381865afa158015610913573d6000803e3d6000fd5b505050506040513d601f19601f82011682018060405250810190610937919061168c565b03610992573360009081526003602052604081208054916109578361170e565b919050555061098d6040518060600160405280602381526020016118bf60239139336000908152600360205260409020546112ea565b610bd3565b610a3d6040518060600160405280603481526020016118e2603491396040516384f5be8160e01b8152600481018790526001600160a01b038a16906384f5be8190602401602060405180830381865afa1580156109f3573d6000803e3d6000fd5b505050506040513d601f19601f82011682018060405250810190610a17919061168c565b84516006805489908110610a2d57610a2d611676565b906000526020600020015461129b565b60068481548110610a5057610a50611676565b9060005260206000200154600014610b0d5760068481548110610a7557610a75611676565b60009182526020909120015482516040516384f5be8160e01b8152600481018790526001600160a01b038a16906384f5be8190602401602060405180830381865afa158015610ac8573d6000803e3d6000fd5b505050506040513d601f19601f82011682018060405250810190610aec919061168c565b610af691906116d5565b610b0091906116ec565b610b0a90866116c2565b94505b336000908152600460205260408120805491610b288361170e565b90915550503360009081526004602081815260409283902054908401519251635487c57760e01b8152918201929092526001600160a01b038a1690635487c57790602401602060405180830381865afa158015610b89573d6000803e3d6000fd5b505050506040513d601f19601f82011682018060405250810190610bad919061168c565b03610bd357336000908152600360205260408120805491610bcd8361170e565b91905055505b505b5080610be08161170e565b91505061051f565b50610c186040518060400160405280600d81526020016c616d6f756e74546f436c61696d60981b815250836112ea565b60008054906101000a90046001600160a01b03166001600160a01b03166315b9ba5d6040518163ffffffff1660e01b8152600401602060405180830381865afa158015610c69573d6000803e3d6000fd5b505050506040513d601f19601f82011682018060405250810190610c8d91906116a5565b604051631ec9887760e11b8152336004820152602481018490526001600160a01b039190911690633d9310ee90604401600060405180830381600087803b158015610cd757600080fd5b505af1158015610ceb573d6000803e3d6000fd5b509398975050505050505050565b60008060009054906101000a90046001600160a01b03166001600160a01b03166308b0308a6040518163ffffffff1660e01b8152600401602060405180830381865afa158015610d4d573d6000803e3d6000fd5b505050506040513d601f19601f82011682018060405250810190610d7191906116a5565b604051635487c57760e01b81524260048201526001600160a01b039190911690635487c57790602401602060405180830381865afa158015610db7573d6000803e3d6000fd5b505050506040513d601f19601f82011682018060405250810190610ddb919061168c565b905060005b6080811015610e3a576006548211610e3a57600554600680546001810182556000919091527ff652222313e28459528d920b65115c16c04f3efc82aaedc97be59f3f377c0d3f015580610e328161170e565b915050610de0565b5050565b60008060009054906101000a90046001600160a01b03166001600160a01b03166308b0308a6040518163ffffffff1660e01b8152600401602060405180830381865afa158015610e92573d6000803e3d6000fd5b505050506040513d601f19601f82011682018060405250810190610eb691906116a5565b60405163cbf9fe5f60e01b81526001600160a01b038481166004830152919091169063cbf9fe5f906024016040805180830381865afa158015610efd573d6000803e3d6000fd5b505050506040513d601f19601f82011682018060405250810190610f219190611727565b60200151905042811015610e3a57610e3a82611014565b3360009081526001602052604081208054839290610f579084906116c2565b90915550610f66905033611014565b600754610323906001600160a01b031633308461132f565b6001600160a01b0381166000908152600160205260408120548103610fa557506000919050565b6001600160a01b0382166000908152600160208181526040808420546002909252909220805461271092610fd891611663565b81548110610fe857610fe8611676565b90600052602060002090600202016000015461100491906116d5565b61100e91906116ec565b92915050565b61101c610cf9565b60008060009054906101000a90046001600160a01b03166001600160a01b03166308b0308a6040518163ffffffff1660e01b8152600401602060405180830381865afa158015611070573d6000803e3d6000fd5b505050506040513d601f19601f8201168201806040525081019061109491906116a5565b6040516370a0823160e01b81526001600160a01b0384811660048301529192506000918316906370a0823190602401602060405180830381865afa1580156110e0573d6000803e3d6000fd5b505050506040513d601f19601f82011682018060405250810190611104919061168c565b90506000826001600160a01b03166318160ddd6040518163ffffffff1660e01b81526004016020604051808303816000875af1158015611148573d6000803e3d6000fd5b505050506040513d601f19601f8201168201806040525081019061116c919061168c565b604080518082018252336000908152600160205291822054929350909181906111f0906127108661119b6101fc565b6111a78a6113886116d5565b6111b191906116d5565b6111bb91906116ec565b336000908152600160205260409020546111d7906113886116d5565b6111e191906116c2565b6111eb91906116ec565b611367565b8152426020918201523360009081526002808352604082208054600181810183559184529284902085519390920290910191825592909101519101555050505050565b6040516001600160a01b03831660248201526044810182905261129690849063a9059cbb60e01b906064015b60408051601f198184030181529190526020810180516001600160e01b03166001600160e01b03199093169290921790915261137f565b505050565b6112e4848484846040516024016112b594939291906117d4565b60408051601f198184030181529190526020810180516001600160e01b031663a7a8785360e01b179052611451565b50505050565b610e3a8282604051602401611300929190611803565b60408051601f198184030181529190526020810180516001600160e01b0316632d839cb360e21b179052611451565b6040516001600160a01b03808516602483015283166044820152606481018290526112e49085906323b872dd60e01b9060840161125f565b60008183106113765781611378565b825b9392505050565b60006113d4826040518060400160405280602081526020017f5361666545524332303a206c6f772d6c6576656c2063616c6c206661696c6564815250856001600160a01b03166114729092919063ffffffff16565b80519091501561129657808060200190518101906113f29190611825565b6112965760405162461bcd60e51b815260206004820152602a60248201527f5361666545524332303a204552433230206f7065726174696f6e20646964206e6044820152691bdd081cdd58d8d9595960b21b60648201526084016102d5565b80516a636f6e736f6c652e6c6f67602083016000808483855afa5050505050565b60606114818484600085611489565b949350505050565b6060824710156114ea5760405162461bcd60e51b815260206004820152602660248201527f416464726573733a20696e73756666696369656e742062616c616e636520666f6044820152651c8818d85b1b60d21b60648201526084016102d5565b600080866001600160a01b031685876040516115069190611847565b60006040518083038185875af1925050503d8060008114611543576040519150601f19603f3d011682016040523d82523d6000602084013e611548565b606091505b509150915061155987838387611564565b979650505050505050565b606083156115d35782516000036115cc576001600160a01b0385163b6115cc5760405162461bcd60e51b815260206004820152601d60248201527f416464726573733a2063616c6c20746f206e6f6e2d636f6e747261637400000060448201526064016102d5565b5081611481565b61148183838151156115e85781518083602001fd5b8060405162461bcd60e51b81526004016102d59190611863565b6001600160a01b038116811461032357600080fd5b60006020828403121561162957600080fd5b813561137881611602565b60006020828403121561164657600080fd5b5035919050565b634e487b7160e01b600052601160045260246000fd5b8181038181111561100e5761100e61164d565b634e487b7160e01b600052603260045260246000fd5b60006020828403121561169e57600080fd5b5051919050565b6000602082840312156116b757600080fd5b815161137881611602565b8082018082111561100e5761100e61164d565b808202811582820484141761100e5761100e61164d565b60008261170957634e487b7160e01b600052601260045260246000fd5b500490565b6000600182016117205761172061164d565b5060010190565b60006040828403121561173957600080fd5b6040516040810181811067ffffffffffffffff8211171561176a57634e487b7160e01b600052604160045260246000fd5b604052825181526020928301519281019290925250919050565b60005b8381101561179f578181015183820152602001611787565b50506000910152565b600081518084526117c0816020860160208601611784565b601f01601f19169290920160200192915050565b6080815260006117e760808301876117a8565b6020830195909552506040810192909252606090910152919050565b60408152600061181660408301856117a8565b90508260208301529392505050565b60006020828403121561183757600080fd5b8151801515811461137857600080fd5b60008251611859818460208701611784565b9190910192915050565b60208152600061137860208301846117a856fe69203d2025732c206e657874436c61696d656445706f6368203d202573202c20766f74696e67457363726f772e65706f636828626c6f636b2e74696d657374616d7029203d202573496e6372656d656e74656420776f726b696e672062616c616e636520706f696e746572436c61696d696e6720776f726b696e672062616c616e6365202573207769746820257320746f6b656e73206f7574206f66202573a2646970667358221220cfa5f273b7b4dd145e75706226474dbd9b73602641c5e06e81b1b7e22ba3192a64736f6c63430008110033",
  "linkReferences": {},
  "deployedLinkReferences": {}
}