{
  "_format": "hh-sol-artifact-1",
  "contractName": "LendingMarket",
  "sourceName": "contracts/protocol/Lending/LendingMarket.sol",
  "abi": [
    {
      "inputs": [],
      "stateMutability": "nonpayable",
      "type": "constructor"
    },
    {
      "anonymous": false,
      "inputs": [
        {
          "indexed": true,
          "internalType": "address",
          "name": "user",
          "type": "address"
        },
        {
          "indexed": true,
          "internalType": "address",
          "name": "asset",
          "type": "address"
        },
        {
          "indexed": true,
          "internalType": "address",
          "name": "nftAddress",
          "type": "address"
        },
        {
          "indexed": false,
          "internalType": "uint256[]",
          "name": "nftTokenIds",
          "type": "uint256[]"
        },
        {
          "indexed": false,
          "internalType": "uint256",
          "name": "amount",
          "type": "uint256"
        }
      ],
      "name": "Borrow",
      "type": "event"
    },
    {
      "anonymous": false,
      "inputs": [
        {
          "indexed": true,
          "internalType": "address",
          "name": "lendingPool",
          "type": "address"
        }
      ],
      "name": "CreateLendingPool",
      "type": "event"
    },
    {
      "anonymous": false,
      "inputs": [
        {
          "indexed": false,
          "internalType": "uint8",
          "name": "version",
          "type": "uint8"
        }
      ],
      "name": "Initialized",
      "type": "event"
    },
    {
      "anonymous": false,
      "inputs": [
        {
          "indexed": true,
          "internalType": "address",
          "name": "user",
          "type": "address"
        },
        {
          "indexed": true,
          "internalType": "uint256",
          "name": "loanId",
          "type": "uint256"
        }
      ],
      "name": "Liquidate",
      "type": "event"
    },
    {
      "anonymous": false,
      "inputs": [
        {
          "indexed": true,
          "internalType": "address",
          "name": "previousOwner",
          "type": "address"
        },
        {
          "indexed": true,
          "internalType": "address",
          "name": "newOwner",
          "type": "address"
        }
      ],
      "name": "OwnershipTransferred",
      "type": "event"
    },
    {
      "anonymous": false,
      "inputs": [
        {
          "indexed": true,
          "internalType": "address",
          "name": "user",
          "type": "address"
        },
        {
          "indexed": true,
          "internalType": "uint256",
          "name": "loanId",
          "type": "uint256"
        }
      ],
      "name": "Repay",
      "type": "event"
    },
    {
      "anonymous": false,
      "inputs": [
        {
          "indexed": true,
          "internalType": "address",
          "name": "collection",
          "type": "address"
        },
        {
          "indexed": true,
          "internalType": "address",
          "name": "asset",
          "type": "address"
        },
        {
          "indexed": true,
          "internalType": "address",
          "name": "lendingPool",
          "type": "address"
        }
      ],
      "name": "SetLendingPool",
      "type": "event"
    },
    {
      "inputs": [
        {
          "internalType": "address",
          "name": "onBehalfOf",
          "type": "address"
        },
        {
          "internalType": "address",
          "name": "asset",
          "type": "address"
        },
        {
          "internalType": "uint256",
          "name": "amount",
          "type": "uint256"
        },
        {
          "internalType": "address",
          "name": "nftAddress",
          "type": "address"
        },
        {
          "internalType": "uint256[]",
          "name": "nftTokenIds",
          "type": "uint256[]"
        },
        {
          "internalType": "uint256",
          "name": "genesisNFTId",
          "type": "uint256"
        },
        {
          "internalType": "bytes32",
          "name": "request",
          "type": "bytes32"
        },
        {
          "components": [
            {
              "internalType": "uint8",
              "name": "v",
              "type": "uint8"
            },
            {
              "internalType": "bytes32",
              "name": "r",
              "type": "bytes32"
            },
            {
              "internalType": "bytes32",
              "name": "s",
              "type": "bytes32"
            },
            {
              "internalType": "bytes32",
              "name": "request",
              "type": "bytes32"
            },
            {
              "internalType": "uint256",
              "name": "deadline",
              "type": "uint256"
            },
            {
              "internalType": "bytes",
              "name": "payload",
              "type": "bytes"
            }
          ],
          "internalType": "struct Trustus.TrustusPacket",
          "name": "packet",
          "type": "tuple"
        }
      ],
      "name": "borrow",
      "outputs": [],
      "stateMutability": "nonpayable",
      "type": "function"
    },
    {
      "inputs": [
        {
          "internalType": "address",
          "name": "collection",
          "type": "address"
        },
        {
          "internalType": "address",
          "name": "asset",
          "type": "address"
        }
      ],
      "name": "createLendingPool",
      "outputs": [
        {
          "internalType": "address",
          "name": "",
          "type": "address"
        }
      ],
      "stateMutability": "nonpayable",
      "type": "function"
    },
    {
      "inputs": [],
      "name": "getDefaultPoolConfig",
      "outputs": [
        {
          "components": [
            {
              "internalType": "uint256",
              "name": "liquidationPenalty",
              "type": "uint256"
            },
            {
              "internalType": "uint256",
              "name": "liquidationFee",
              "type": "uint256"
            },
            {
              "internalType": "uint256",
              "name": "maximumUtilizationRate",
              "type": "uint256"
            }
          ],
          "internalType": "struct ConfigTypes.LendingPoolConfig",
          "name": "",
          "type": "tuple"
        }
      ],
      "stateMutability": "view",
      "type": "function"
    },
    {
      "inputs": [
        {
          "internalType": "address",
          "name": "collection",
          "type": "address"
        },
        {
          "internalType": "address",
          "name": "asset",
          "type": "address"
        }
      ],
      "name": "getLendingPool",
      "outputs": [
        {
          "internalType": "address",
          "name": "",
          "type": "address"
        }
      ],
      "stateMutability": "view",
      "type": "function"
    },
    {
      "inputs": [],
      "name": "getTVLSafeguard",
      "outputs": [
        {
          "internalType": "uint256",
          "name": "",
          "type": "uint256"
        }
      ],
      "stateMutability": "view",
      "type": "function"
    },
    {
      "inputs": [
        {
          "internalType": "contract IAddressesProvider",
          "name": "addressesProvider",
          "type": "address"
        },
        {
          "internalType": "uint256",
          "name": "tvlSafeguard",
          "type": "uint256"
        },
        {
          "components": [
            {
              "internalType": "uint256",
              "name": "liquidationPenalty",
              "type": "uint256"
            },
            {
              "internalType": "uint256",
              "name": "liquidationFee",
              "type": "uint256"
            },
            {
              "internalType": "uint256",
              "name": "maximumUtilizationRate",
              "type": "uint256"
            }
          ],
          "internalType": "struct ConfigTypes.LendingPoolConfig",
          "name": "defaultLendingPoolConfig",
          "type": "tuple"
        }
      ],
      "name": "initialize",
      "outputs": [],
      "stateMutability": "nonpayable",
      "type": "function"
    },
    {
      "inputs": [
        {
          "internalType": "uint256",
          "name": "loanId",
          "type": "uint256"
        },
        {
          "internalType": "bytes32",
          "name": "request",
          "type": "bytes32"
        },
        {
          "components": [
            {
              "internalType": "uint8",
              "name": "v",
              "type": "uint8"
            },
            {
              "internalType": "bytes32",
              "name": "r",
              "type": "bytes32"
            },
            {
              "internalType": "bytes32",
              "name": "s",
              "type": "bytes32"
            },
            {
              "internalType": "bytes32",
              "name": "request",
              "type": "bytes32"
            },
            {
              "internalType": "uint256",
              "name": "deadline",
              "type": "uint256"
            },
            {
              "internalType": "bytes",
              "name": "payload",
              "type": "bytes"
            }
          ],
          "internalType": "struct Trustus.TrustusPacket",
          "name": "packet",
          "type": "tuple"
        }
      ],
      "name": "liquidate",
      "outputs": [],
      "stateMutability": "nonpayable",
      "type": "function"
    },
    {
      "inputs": [],
      "name": "owner",
      "outputs": [
        {
          "internalType": "address",
          "name": "",
          "type": "address"
        }
      ],
      "stateMutability": "view",
      "type": "function"
    },
    {
      "inputs": [],
      "name": "renounceOwnership",
      "outputs": [],
      "stateMutability": "nonpayable",
      "type": "function"
    },
    {
      "inputs": [
        {
          "internalType": "uint256",
          "name": "loanId",
          "type": "uint256"
        },
        {
          "internalType": "uint256",
          "name": "amount",
          "type": "uint256"
        }
      ],
      "name": "repay",
      "outputs": [],
      "stateMutability": "nonpayable",
      "type": "function"
    },
    {
      "inputs": [
        {
          "internalType": "address",
          "name": "collection",
          "type": "address"
        },
        {
          "internalType": "address",
          "name": "asset",
          "type": "address"
        },
        {
          "internalType": "address",
          "name": "reserve",
          "type": "address"
        }
      ],
      "name": "setCollectionLendingPool",
      "outputs": [],
      "stateMutability": "nonpayable",
      "type": "function"
    },
    {
      "inputs": [
        {
          "internalType": "uint256",
          "name": "liquidationPenalty",
          "type": "uint256"
        }
      ],
      "name": "setDefaultLiquidationPenalty",
      "outputs": [],
      "stateMutability": "nonpayable",
      "type": "function"
    },
    {
      "inputs": [
        {
          "components": [
            {
              "internalType": "uint256",
              "name": "liquidationPenalty",
              "type": "uint256"
            },
            {
              "internalType": "uint256",
              "name": "liquidationFee",
              "type": "uint256"
            },
            {
              "internalType": "uint256",
              "name": "maximumUtilizationRate",
              "type": "uint256"
            }
          ],
          "internalType": "struct ConfigTypes.LendingPoolConfig",
          "name": "poolConfig",
          "type": "tuple"
        }
      ],
      "name": "setDefaultPoolConfig",
      "outputs": [],
      "stateMutability": "nonpayable",
      "type": "function"
    },
    {
      "inputs": [
        {
          "internalType": "uint256",
          "name": "tvlSafeguard",
          "type": "uint256"
        }
      ],
      "name": "setTVLSafeguard",
      "outputs": [],
      "stateMutability": "nonpayable",
      "type": "function"
    },
    {
      "inputs": [
        {
          "internalType": "address",
          "name": "newOwner",
          "type": "address"
        }
      ],
      "name": "transferOwnership",
      "outputs": [],
      "stateMutability": "nonpayable",
      "type": "function"
    }
  ],
  "bytecode": "0x608060405234801561001057600080fd5b5061001961001e565b6100de565b600054610100900460ff161561008a5760405162461bcd60e51b815260206004820152602760248201527f496e697469616c697a61626c653a20636f6e747261637420697320696e697469604482015266616c697a696e6760c81b606482015260840160405180910390fd5b60005460ff90811610156100dc576000805460ff191660ff9081179091556040519081527f7f26b83ff96e1f2b6a682f133852f6798a09c465da95921460cefb38474024989060200160405180910390a15b565b61488a80620000ee6000396000f3fe60806040523480156200001157600080fd5b5060043610620001095760003560e01c8063715018a611620000a3578063a880e68b116200006e578063a880e68b146200022e578063b63ec9741462000240578063d8aed145146200027b578063f2fde38b146200029257600080fd5b8063715018a614620001b15780637785c63014620001bb5780638da5cb5b14620001ef578063934a8ed4146200020157600080fd5b80634470afa411620000e45780634470afa4146200015557806344fd4e37146200016c57806365ec417614620001835780636c6911b7146200019a57600080fd5b80630586abad146200010e57806324db9d5f14620001275780633d339325146200013e575b600080fd5b620001256200011f366004620013ee565b620002a9565b005b6200012562000138366004620014b8565b620003a9565b620001256200014f3660046200152e565b620003c9565b62000125620001663660046200157c565b6200051f565b620001256200017d36600462001596565b6200052e565b62000125620001943660046200157c565b62000545565b62000125620001ab366004620015e8565b62000554565b62000125620006e0565b620001d2620001cc36600462001721565b620006f8565b6040516001600160a01b0390911681526020015b60405180910390f35b6033546001600160a01b0316620001d2565b6200020b62000dc4565b6040805182518152602080840151908201529181015190820152606001620001e6565b609954604051908152602001620001e6565b620001d26200025136600462001721565b6001600160a01b039182166000908152609760209081526040808320938516835292905220541690565b620001256200028c3660046200175f565b62000e0e565b62000125620002a336600462001782565b62000f0b565b620002b362000f8a565b609a54604080516080810182523381526020810186905290810184905273__$965b9be9fc5ba89821c2195a8bf360e455$__9163245fa182916001600160a01b039091169060608101620003078662001829565b8152506040518363ffffffff1660e01b81526004016200032992919062001961565b60006040518083038186803b1580156200034257600080fd5b505af415801562000357573d6000803e3d6000fd5b5050505082620003643390565b6001600160a01b03167f08813a3631e12129135cc9440d3fea50eec346f1673b20b994b0456d5d46ccb960405160405180910390a3620003a46001606555565b505050565b620003b362000fe5565b8051609b556020810151609c5560400151609d55565b600054610100900460ff1615808015620003ea5750600054600160ff909116105b80620004065750303b15801562000406575060005460ff166001145b6200046f5760405162461bcd60e51b815260206004820152602e60248201527f496e697469616c697a61626c653a20636f6e747261637420697320616c72656160448201526d191e481a5b9a5d1a585b1a5e995960921b60648201526084015b60405180910390fd5b6000805460ff19166001179055801562000493576000805461ff0019166101001790555b6200049d62001041565b609a80546001600160a01b0319166001600160a01b03861617905560998390558135609b556020820135609c556040820135609d55801562000519576000805461ff0019169055604051600181527f7f26b83ff96e1f2b6a682f133852f6798a09c465da95921460cefb38474024989060200160405180910390a15b50505050565b6200052962000fe5565b609b55565b6200053862000fe5565b620003a483838362001075565b6200054f62000fe5565b609955565b6200055e62000f8a565b73__$77c5a84c43428e206d5bf08427df63fefa$__63a6b290dd609a60009054906101000a90046001600160a01b03166097604051806101200160405280620005a43390565b6001600160a01b031681526020018d6001600160a01b031681526020018c6001600160a01b031681526020018b81526020018a6001600160a01b0316815260200189815260200188815260200187815260200186620006039062001829565b8152506040518463ffffffff1660e01b81526004016200062693929190620019f5565b602060405180830381865af415801562000644573d6000803e3d6000fd5b505050506040513d601f19601f820116820180604052508101906200066a919062001acc565b50846001600160a01b0316876001600160a01b0316620006873390565b6001600160a01b03167f5ad24af809b91037141dded9f0cdecfdda4acdd07a3724c10e0af52071842ee4878a604051620006c392919062001ae6565b60405180910390a4620006d66001606555565b5050505050505050565b620006ea62000fe5565b620006f66000620010dc565b565b6000620007166001600160a01b0384166380ac58cd60e01b6200112e565b620007785760405162461bcd60e51b815260206004820152602b60248201527f436f6c6c656374696f6e2061646472657373206973206e6f742045524337323160448201526a1031b7b6b83634b0b73a1760a91b606482015260840162000466565b609a60009054906101000a90046001600160a01b03166001600160a01b031663cfeed1816040518163ffffffff1660e01b8152600401602060405180830381865afa158015620007cc573d6000803e3d6000fd5b505050506040513d601f19601f82011682018060405250810190620007f2919062001b30565b6040516375151b6360e01b81526001600160a01b03848116600483015291909116906375151b6390602401602060405180830381865afa1580156200083b573d6000803e3d6000fd5b505050506040513d601f19601f8201168201806040525081019062000861919062001b50565b620008b95760405162461bcd60e51b815260206004820152602160248201527f556e6465726c79696e67204173736574206973206e6f7420737570706f7274656044820152601960fa1b606482015260840162000466565b6001600160a01b03838116600090815260976020908152604080832086851684529091529020541615620009305760405162461bcd60e51b815260206004820152601b60248201527f4c656e64696e6720506f6f6c20616c7265616479206578697374730000000000604482015260640162000466565b609a546000906001600160a01b0316620009526033546001600160a01b031690565b84856001600160a01b03166395d89b416040518163ffffffff1660e01b8152600401600060405180830381865afa15801562000992573d6000803e3d6000fd5b505050506040513d6000823e601f3d908101601f19168201604052620009bc919081019062001b74565b6001600160a01b038716600090815260986020526040902054620009e09062001156565b604051602001620009f392919062001beb565b604051602081830303815290604052866001600160a01b03166395d89b416040518163ffffffff1660e01b8152600401600060405180830381865afa15801562000a41573d6000803e3d6000fd5b505050506040513d6000823e601f3d908101601f1916820160405262000a6b919081019062001b74565b6001600160a01b03881660009081526098602052604090205462000a8f9062001156565b60405160200162000aa292919062001c46565b604051602081830303815290604052609b60405162000ac190620013c7565b62000ad29695949392919062001c95565b604051809103906000f08015801562000aef573d6000803e3d6000fd5b5060405163095ea7b360e01b81526001600160a01b03808316600483015260001960248301529192509084169063095ea7b3906044016020604051808303816000875af115801562000b45573d6000803e3d6000fd5b505050506040513d601f19601f8201168201806040525081019062000b6b919062001b50565b50836001600160a01b031663e985e9c5609a60009054906101000a90046001600160a01b03166001600160a01b031663536223646040518163ffffffff1660e01b8152600401602060405180830381865afa15801562000bcf573d6000803e3d6000fd5b505050506040513d601f19601f8201168201806040525081019062000bf5919062001b30565b6040516001600160e01b031960e084901b1681526001600160a01b039091166004820152306024820152604401602060405180830381865afa15801562000c40573d6000803e3d6000fd5b505050506040513d601f19601f8201168201806040525081019062000c66919062001b50565b151560000362000d4a57609a60009054906101000a90046001600160a01b03166001600160a01b031663536223646040518163ffffffff1660e01b8152600401602060405180830381865afa15801562000cc4573d6000803e3d6000fd5b505050506040513d601f19601f8201168201806040525081019062000cea919062001b30565b604051631578b62760e11b81526001600160a01b0386811660048301529190911690632af16c4e90602401600060405180830381600087803b15801562000d3057600080fd5b505af115801562000d45573d6000803e3d6000fd5b505050505b62000d5784848362001075565b6001600160a01b038316600090815260986020526040812080546001929062000d8290849062001d0b565b90915550506040516001600160a01b038216907f2542f32ffb9d7022dcce911f06a04e1e188ce008c7842cbc0c6d00a6cb80389f90600090a290505b92915050565b62000de960405180606001604052806000815260200160008152602001600081525090565b5060408051606081018252609b548152609c546020820152609d549181019190915290565b62000e1862000f8a565b609a5460408051606081018252338152602081018581528183018581528351634e0be51f60e11b81526001600160a01b03958616600482015292519094166024830152516044820152915160648301525173__$77c5a84c43428e206d5bf08427df63fefa$__91639c17ca3e916084808301926000929190829003018186803b15801562000ea557600080fd5b505af415801562000eba573d6000803e3d6000fd5b505050508162000ec73390565b6001600160a01b03167f5c16de4f8b59bd9caf0f49a545f25819a895ed223294290b408242e72a59423160405160405180910390a362000f076001606555565b5050565b62000f1562000fe5565b6001600160a01b03811662000f7c5760405162461bcd60e51b815260206004820152602660248201527f4f776e61626c653a206e6577206f776e657220697320746865207a65726f206160448201526564647265737360d01b606482015260840162000466565b62000f8781620010dc565b50565b60026065540362000fde5760405162461bcd60e51b815260206004820152601f60248201527f5265656e7472616e637947756172643a207265656e7472616e742063616c6c00604482015260640162000466565b6002606555565b6033546001600160a01b03163314620006f65760405162461bcd60e51b815260206004820181905260248201527f4f776e61626c653a2063616c6c6572206973206e6f7420746865206f776e6572604482015260640162000466565b600054610100900460ff166200106b5760405162461bcd60e51b8152600401620004669062001d2d565b620006f6620011f0565b6001600160a01b038381166000818152609760209081526040808320878616808552925280832080546001600160a01b0319169587169586179055519092917f288817cea49f022db2036521d5e78e3cd16416913cf6a781d645930143dc31a491a4505050565b603380546001600160a01b038381166001600160a01b0319831681179093556040519116919082907f8be0079c531659141344cd1fd0a4f28419497f9722a3daafe3b4186f6b6457e090600090a35050565b60006200113b8362001225565b80156200114f57506200114f83836200125d565b9392505050565b606060006200116583620012e8565b600101905060008167ffffffffffffffff81111562001188576200118862001442565b6040519080825280601f01601f191660200182016040528015620011b3576020820181803683370190505b5090508181016020015b600019016f181899199a1a9b1b9c1cb0b131b232b360811b600a86061a8153600a8504945084620011bd57509392505050565b600054610100900460ff166200121a5760405162461bcd60e51b8152600401620004669062001d2d565b620006f633620010dc565b60006200123a826301ffc9a760e01b6200125d565b801562000dbe575062001256826001600160e01b03196200125d565b1592915050565b604080516001600160e01b03198316602480830191909152825180830390910181526044909101909152602080820180516001600160e01b03166301ffc9a760e01b178152825160009392849283928392918391908a617530fa92503d91506000519050828015620012d0575060208210155b8015620012dd5750600081115b979650505050505050565b60008072184f03e93ff9f4daa797ed6e38ed64bf6a1f0160401b8310620013285772184f03e93ff9f4daa797ed6e38ed64bf6a1f0160401b830492506040015b6d04ee2d6d415b85acef8100000000831062001355576d04ee2d6d415b85acef8100000000830492506020015b662386f26fc1000083106200137457662386f26fc10000830492506010015b6305f5e10083106200138d576305f5e100830492506008015b6127108310620013a257612710830492506004015b60648310620013b5576064830492506002015b600a831062000dbe5760010192915050565b612adc8062001d7983390190565b600060c08284031215620013e857600080fd5b50919050565b6000806000606084860312156200140457600080fd5b8335925060208401359150604084013567ffffffffffffffff8111156200142a57600080fd5b6200143886828701620013d5565b9150509250925092565b634e487b7160e01b600052604160045260246000fd5b60405160c0810167ffffffffffffffff811182821017156200147e576200147e62001442565b60405290565b604051601f8201601f1916810167ffffffffffffffff81118282101715620014b057620014b062001442565b604052919050565b600060608284031215620014cb57600080fd5b6040516060810181811067ffffffffffffffff82111715620014f157620014f162001442565b80604052508235815260208301356020820152604083013560408201528091505092915050565b6001600160a01b038116811462000f8757600080fd5b600080600083850360a08112156200154557600080fd5b8435620015528162001518565b9350602085013592506060603f19820112156200156e57600080fd5b506040840190509250925092565b6000602082840312156200158f57600080fd5b5035919050565b600080600060608486031215620015ac57600080fd5b8335620015b98162001518565b92506020840135620015cb8162001518565b91506040840135620015dd8162001518565b809150509250925092565b600080600080600080600080610100898b0312156200160657600080fd5b62001612893562001518565b883597506020890135620016268162001518565b96506040890135955060608901356200163f8162001518565b9450608089013567ffffffffffffffff808211156200165d57600080fd5b818b0191508b601f8301126200167257600080fd5b81358181111562001687576200168762001442565b8060051b620016996020820162001484565b9182526020818501810192908101908f841115620016b657600080fd5b6020860195505b83861015620016da578535825260209586019590910190620016bd565b985050505060a08b0135945060c08b0135935060e08b01359150808211156200170257600080fd5b50620017118b828c01620013d5565b9150509295985092959890939650565b600080604083850312156200173557600080fd5b8235620017428162001518565b91506020830135620017548162001518565b809150509250929050565b600080604083850312156200177357600080fd5b50508035926020909101359150565b6000602082840312156200179557600080fd5b81356200114f8162001518565b600067ffffffffffffffff821115620017bf57620017bf62001442565b50601f01601f191660200190565b600082601f830112620017df57600080fd5b8135620017f6620017f082620017a2565b62001484565b8181528460208386010111156200180c57600080fd5b816020850160208301376000918101602001919091529392505050565b600060c082360312156200183c57600080fd5b6200184662001458565b823560ff811681146200185857600080fd5b808252506020830135602082015260408301356040820152606083013560608201526080830135608082015260a083013567ffffffffffffffff8111156200189f57600080fd5b620018ad36828601620017cd565b60a08301525092915050565b60005b83811015620018d6578181015183820152602001620018bc565b50506000910152565b60008151808452620018f9816020860160208601620018b9565b601f01601f19169290920160200192915050565b60ff815116825260208101516020830152604081015160408301526060810151606083015260808101516080830152600060a082015160c060a08501526200195960c0850182620018df565b949350505050565b600060018060a01b038085168352604060208401528084511660408401525060208301516060830152604083015160808301526060830151608060a0840152620019af60c08401826200190d565b95945050505050565b600081518084526020808501945080840160005b83811015620019ea57815187529582019590820190600101620019cc565b509495945050505050565b60018060a01b03841681528260208201526060604082015262001a246060820183516001600160a01b03169052565b6000602083015162001a4160808401826001600160a01b03169052565b5060408301516001600160a01b03811660a084015250606083015160c083015260808301516001600160a01b03811660e08401525060a0830151610120610100818186015262001a96610180860184620019b8565b60c08701519286019290925260e0860151610140860152850151848203605f1901610160860152909150620012dd82826200190d565b60006020828403121562001adf57600080fd5b5051919050565b604080825283519082018190526000906020906060840190828701845b8281101562001b215781518452928401929084019060010162001b03565b50505092019290925292915050565b60006020828403121562001b4357600080fd5b81516200114f8162001518565b60006020828403121562001b6357600080fd5b815180151581146200114f57600080fd5b60006020828403121562001b8757600080fd5b815167ffffffffffffffff81111562001b9f57600080fd5b8201601f8101841362001bb157600080fd5b805162001bc2620017f082620017a2565b81815285602083850101111562001bd857600080fd5b620019af826020830160208601620018b9565b6503632a7232a160d51b81526000835162001c0e816006850160208801620018b9565b69204c656e64696e67202360b01b600691840191820152835162001c3a816010840160208801620018b9565b01601001949350505050565b621b195360ea1b81526000835162001c66816003850160208801620018b9565b602d60f81b600391840191820152835162001c89816004840160208801620018b9565b01600401949350505050565b6001600160a01b0387811682528681166020830152851660408201526101006060820181905260009062001ccc83820187620018df565b9050828103608084015262001ce28186620018df565b915050825460a0830152600183015460c0830152600283015460e0830152979650505050505050565b8082018082111562000dbe57634e487b7160e01b600052601160045260246000fd5b6020808252602b908201527f496e697469616c697a61626c653a20636f6e7472616374206973206e6f74206960408201526a6e697469616c697a696e6760a81b60608201526080019056fe60c06040523480156200001157600080fd5b5060405162002adc38038062002adc8339810160408190526200003491620005b4565b83838360036200004583826200072e565b5060046200005482826200072e565b5050506000806200006b83620001f060201b60201c565b915091508162000090576200008a620002d560201b62000f091760201c565b62000092565b805b60ff1660a05250506001600160a01b0316608052620000b133620002da565b856001600160a01b03166304d21cee6040518163ffffffff1660e01b8152600401602060405180830381865afa158015620000f0573d6000803e3d6000fd5b505050506040513d601f19601f82011682018060405250810190620001169190620007fa565b6001600160a01b0316336001600160a01b0316146200018a5760405162461bcd60e51b815260206004820152602660248201527f52657365727665206d7573742062652063726561746564207468726f756768206044820152651b585c9ad95d60d21b606482015260840160405180910390fd5b600680546001600160a01b038089166001600160a01b03199283161790925560078054928716929091169190911790558051600c556020810151600d556040810151600e55620001d96200032c565b620001e485620002da565b50505050505062000859565b60408051600481526024810182526020810180516001600160e01b031663313ce56760e01b17905290516000918291829182916001600160a01b03871691620002399162000821565b600060405180830381855afa9150503d806000811462000276576040519150601f19603f3d011682016040523d82523d6000602084013e6200027b565b606091505b50915091508180156200029057506020815110155b15620002c857600081806020019051810190620002ae91906200083f565b905060ff8111620002c6576001969095509350505050565b505b5060009485945092505050565b601290565b600580546001600160a01b038381166001600160a01b0319831681179093556040519116919082907f8be0079c531659141344cd1fd0a4f28419497f9722a3daafe3b4186f6b6457e090600090a35050565b600660009054906101000a90046001600160a01b03166001600160a01b0316635257b5666040518163ffffffff1660e01b8152600401602060405180830381865afa15801562000380573d6000803e3d6000fd5b505050506040513d601f19601f82011682018060405250810190620003a69190620007fa565b6001600160a01b03166366c57dca620003be6200042e565b6008546040516001600160e01b031960e085901b16815260048101929092526024820152604401602060405180830381865afa15801562000403573d6000803e3d6000fd5b505050506040513d601f19601f820116820180604052508101906200042991906200083f565b600955565b6007546040516370a0823160e01b81523060048201526000916001600160a01b0316906370a0823190602401602060405180830381865afa15801562000478573d6000803e3d6000fd5b505050506040513d601f19601f820116820180604052508101906200049e91906200083f565b905090565b6001600160a01b0381168114620004b957600080fd5b50565b634e487b7160e01b600052604160045260246000fd5b604051606081016001600160401b0381118282101715620004f757620004f7620004bc565b60405290565b60005b838110156200051a57818101518382015260200162000500565b50506000910152565b600082601f8301126200053557600080fd5b81516001600160401b0380821115620005525762000552620004bc565b604051601f8301601f19908116603f011681019082821181831017156200057d576200057d620004bc565b816040528381528660208588010111156200059757600080fd5b620005aa846020830160208901620004fd565b9695505050505050565b600080600080600080868803610100811215620005d057600080fd5b8751620005dd81620004a3565b6020890151909750620005f081620004a3565b60408901519096506200060381620004a3565b60608901519095506001600160401b03808211156200062157600080fd5b6200062f8b838c0162000523565b955060808a01519150808211156200064657600080fd5b50620006558a828b0162000523565b9350506060609f19820112156200066b57600080fd5b5062000676620004d2565b60a0880151815260c0880151602082015260e08801516040820152809150509295509295509295565b600181811c90821680620006b457607f821691505b602082108103620006d557634e487b7160e01b600052602260045260246000fd5b50919050565b601f8211156200072957600081815260208120601f850160051c81016020861015620007045750805b601f850160051c820191505b81811015620007255782815560010162000710565b5050505b505050565b81516001600160401b038111156200074a576200074a620004bc565b62000762816200075b84546200069f565b84620006db565b602080601f8311600181146200079a5760008415620007815750858301515b600019600386901b1c1916600185901b17855562000725565b600085815260208120601f198616915b82811015620007cb57888601518255948401946001909101908401620007aa565b5085821015620007ea5787850151600019600388901b60f8161c191681555b5050505050600190811b01905550565b6000602082840312156200080d57600080fd5b81516200081a81620004a3565b9392505050565b6000825162000835818460208701620004fd565b9190910192915050565b6000602082840312156200085257600080fd5b5051919050565b60805160a05161224f6200088d60003960006102fb015260008181610327015281816118470152611907015261224f6000f3fe608060405234801561001057600080fd5b50600436106102535760003560e01c806394bf804d11610146578063ba1c5e80116100c3578063d905777e11610087578063d905777e1461051f578063db4968f714610532578063dd62ed3e14610545578063e2c6743914610558578063ef8b30f7146104f9578063f2fde38b1461056057600080fd5b8063ba1c5e80146104c9578063bedb86fb146104d1578063c63d75b6146104e4578063c6e6f592146104f9578063ce96cb771461050c57600080fd5b8063a9059cbb1161010a578063a9059cbb14610453578063b0d9658014610466578063b3d7f6b914610490578063b460af94146104a3578063ba087652146104b657600080fd5b806394bf804d146103ff57806395d89b4114610412578063a22586941461041a578063a457c2d71461042d578063a663f8301461044057600080fd5b806339509351116101d45780636e553f65116101985780636e553f65146103a257806370a08231146103b5578063715018a6146103de57806384bdc9a8146103e65780638da5cb5b146103ee57600080fd5b8063395093511461035f578063402d267d146103725780634a417a53146103855780634cdad50614610288578063545039c61461038d57600080fd5b806314a6bf0f1161021b57806314a6bf0f146102d157806318160ddd146102d957806323b872dd146102e1578063313ce567146102f457806338d52e0f1461032557600080fd5b806301e1d1141461025857806306fdde031461027357806307a2d13a14610288578063095ea7b31461029b5780630a28a477146102be575b600080fd5b610260610573565b6040519081526020015b60405180910390f35b61027b61058f565b60405161026a9190611de0565b610260610296366004611e13565b610621565b6102ae6102a9366004611e41565b610634565b604051901515815260200161026a565b6102606102cc366004611e13565b61064c565b600854610260565b600254610260565b6102ae6102ef366004611e6d565b610659565b60405160ff7f000000000000000000000000000000000000000000000000000000000000000016815260200161026a565b7f00000000000000000000000000000000000000000000000000000000000000005b6040516001600160a01b03909116815260200161026a565b6102ae61036d366004611e41565b61067f565b610260610380366004611eae565b6106a1565b6102606106bf565b6103a061039b366004611ecb565b6107ac565b005b6102606103b0366004611f06565b6108d4565b6102606103c3366004611eae565b6001600160a01b031660009081526020819052604090205490565b6103a0610947565b61026061095b565b6005546001600160a01b0316610347565b61026061040d366004611f06565b610997565b61027b6109b1565b6103a0610428366004611f36565b6109c0565b6102ae61043b366004611e41565b610ad2565b6103a061044e366004611ecb565b610b58565b6102ae610461366004611e41565b610c58565b61046e610c66565b604080518251815260208084015190820152918101519082015260600161026a565b61026061049e366004611e13565b610caf565b6102606104b1366004611f6b565b610cbc565b6102606104c4366004611f6b565b610d38565b600954610260565b6103a06104df366004611fbb565b610dac565b6102606104f2366004611eae565b5060001990565b610260610507366004611e13565b610dc7565b61026061051a366004611eae565b610dd4565b61026061052d366004611eae565b610df8565b6103a0610540366004611fd8565b610e16565b610260610553366004612042565b610e34565b610260610e5f565b6103a061056e366004611eae565b610e90565b600061057d610e5f565b60085461058a9190612086565b905090565b60606003805461059e90612099565b80601f01602080910402602001604051908101604052809291908181526020018280546105ca90612099565b80156106175780601f106105ec57610100808354040283529160200191610617565b820191906000526020600020905b8154815290600101906020018083116105fa57829003601f168201915b5050505050905090565b600061062e826000610f0e565b92915050565b600033610642818585610f41565b5060019392505050565b600061062e826001611065565b600033610667858285611097565b61067285858561110b565b60019150505b9392505050565b6000336106428185856106928383610e34565b61069c9190612086565b610f41565b60006106ab6112af565b6106b657600061062e565b60001992915050565b6006546040805163292bdab360e11b815290516000926001600160a01b031691635257b5669160048083019260209291908290030181865afa158015610709573d6000803e3d6000fd5b505050506040513d601f19601f8201168201806040525081019061072d91906120d3565b6001600160a01b03166385c96306610743610e5f565b6008546040516001600160e01b031960e085901b168152600481019290925260248201526044015b602060405180830381865afa158015610788573d6000803e3d6000fd5b505050506040513d601f19601f8201168201806040525081019061058a91906120f0565b600660009054906101000a90046001600160a01b03166001600160a01b03166304d21cee6040518163ffffffff1660e01b8152600401602060405180830381865afa1580156107ff573d6000803e3d6000fd5b505050506040513d601f19601f8201168201806040525081019061082391906120d3565b6001600160a01b0316336001600160a01b03161461085c5760405162461bcd60e51b815260040161085390612109565b60405180910390fd5b600b5460ff161561087f5760405162461bcd60e51b815260040161085390612140565b6108a2843061088e8487612086565b6007546001600160a01b03169291906112c9565b6108ae60008484611334565b82600860008282546108c09190612168565b909155506108ce90506113cf565b50505050565b60006108df826106a1565b83111561092e5760405162461bcd60e51b815260206004820152601e60248201527f455243343632363a206465706f736974206d6f7265207468616e206d617800006044820152606401610853565b600061093984610dc7565b9050610678338486846114c9565b61094f61157c565b61095960006115d6565b565b60008080610967610573565b111561099257610975610573565b600854600a54610985919061217b565b61098f91906121a8565b90505b919050565b6000806109a384610caf565b9050610678338483876114c9565b60606004805461059e90612099565b600660009054906101000a90046001600160a01b03166001600160a01b03166304d21cee6040518163ffffffff1660e01b8152600401602060405180830381865afa158015610a13573d6000803e3d6000fd5b505050506040513d601f19601f82011682018060405250810190610a3791906120d3565b6001600160a01b0316336001600160a01b031614610a675760405162461bcd60e51b815260040161085390612109565b600b5460ff1615610a8a5760405162461bcd60e51b815260040161085390612140565b600754610aa1906001600160a01b03168484611628565b610aad60018383611334565b8160086000828254610abf9190612086565b90915550610acd90506113cf565b505050565b60003381610ae08286610e34565b905083811015610b405760405162461bcd60e51b815260206004820152602560248201527f45524332303a2064656372656173656420616c6c6f77616e63652062656c6f77604482015264207a65726f60d81b6064820152608401610853565b610b4d8286868403610f41565b506001949350505050565b600660009054906101000a90046001600160a01b03166001600160a01b03166304d21cee6040518163ffffffff1660e01b8152600401602060405180830381865afa158015610bab573d6000803e3d6000fd5b505050506040513d601f19601f82011682018060405250810190610bcf91906120d3565b6001600160a01b0316336001600160a01b031614610bff5760405162461bcd60e51b815260040161085390612109565b600b5460ff1615610c225760405162461bcd60e51b815260040161085390612140565b600754610c3a906001600160a01b03168530866112c9565b610c4660008284611334565b80600860008282546108c09190612168565b60003361064281858561110b565b610c8a60405180606001604052806000815260200160008152602001600081525090565b5060408051606081018252600c548152600d546020820152600e549181019190915290565b600061062e826001610f0e565b6000610cc782610dd4565b841115610d165760405162461bcd60e51b815260206004820152601f60248201527f455243343632363a207769746864726177206d6f7265207468616e206d6178006044820152606401610853565b6000610d218561064c565b9050610d303385858885611658565b949350505050565b6000610d4382610df8565b841115610d925760405162461bcd60e51b815260206004820152601d60248201527f455243343632363a2072656465656d206d6f7265207468616e206d61780000006044820152606401610853565b6000610d9d85610621565b9050610d303385858489611658565b610db461157c565b600b805460ff1916911515919091179055565b600061062e826000611065565b6001600160a01b03811660009081526020819052604081205461062e906000610f0e565b6001600160a01b03811660009081526020819052604081205461062e565b610e1e61157c565b8051600c556020810151600d5560400151600e55565b6001600160a01b03918216600090815260016020908152604080832093909416825291909152205490565b6007546040516370a0823160e01b81523060048201526000916001600160a01b0316906370a082319060240161076b565b610e9861157c565b6001600160a01b038116610efd5760405162461bcd60e51b815260206004820152602660248201527f4f776e61626c653a206e6577206f776e657220697320746865207a65726f206160448201526564647265737360d01b6064820152608401610853565b610f06816115d6565b50565b601290565b600080610f1a60025490565b90508015610f3b57610f36610f2d610573565b85908386611713565b610d30565b83610d30565b6001600160a01b038316610fa35760405162461bcd60e51b8152602060048201526024808201527f45524332303a20617070726f76652066726f6d20746865207a65726f206164646044820152637265737360e01b6064820152608401610853565b6001600160a01b0382166110045760405162461bcd60e51b815260206004820152602260248201527f45524332303a20617070726f766520746f20746865207a65726f206164647265604482015261737360f01b6064820152608401610853565b6001600160a01b0383811660008181526001602090815260408083209487168084529482529182902085905590518481527f8c5be1e5ebec7d5bd14f71427d1e84f3dd0314c0f7b2291e5b200ac8c7c3b925910160405180910390a3505050565b60008061107160025490565b905083158061107e575080155b610f3b57610f368161108e610573565b86919086611713565b60006110a38484610e34565b905060001981146108ce57818110156110fe5760405162461bcd60e51b815260206004820152601d60248201527f45524332303a20696e73756666696369656e7420616c6c6f77616e63650000006044820152606401610853565b6108ce8484848403610f41565b6001600160a01b03831661116f5760405162461bcd60e51b815260206004820152602560248201527f45524332303a207472616e736665722066726f6d20746865207a65726f206164604482015264647265737360d81b6064820152608401610853565b6001600160a01b0382166111d15760405162461bcd60e51b815260206004820152602360248201527f45524332303a207472616e7366657220746f20746865207a65726f206164647260448201526265737360e81b6064820152608401610853565b6001600160a01b038316600090815260208190526040902054818110156112495760405162461bcd60e51b815260206004820152602660248201527f45524332303a207472616e7366657220616d6f756e7420657863656564732062604482015265616c616e636560d01b6064820152608401610853565b6001600160a01b03848116600081815260208181526040808320878703905593871680835291849020805487019055925185815290927fddf252ad1be2c89b69c2b068fc378daa952ba7f163c4a11628f55a4df523b3ef910160405180910390a36108ce565b6000806112ba610573565b118061058a5750506002541590565b6040516001600160a01b03808516602483015283166044820152606481018290526108ce9085906323b872dd60e01b906084015b60408051601f198184030181529190526020810180516001600160e01b03166001600160e01b031990931692909217909152611770565b821561137e57816008546113489190612086565b611352828461217b565b600a54600854611362919061217b565b61136c9190612086565b61137691906121a8565b600a55505050565b8160085461138c9190612168565b60000361139d576000600a55505050565b816008546113ab9190612168565b6113b5828461217b565b600a546008546113c5919061217b565b61136c9190612168565b600660009054906101000a90046001600160a01b03166001600160a01b0316635257b5666040518163ffffffff1660e01b8152600401602060405180830381865afa158015611422573d6000803e3d6000fd5b505050506040513d601f19601f8201168201806040525081019061144691906120d3565b6001600160a01b03166366c57dca61145c610e5f565b6008546040516001600160e01b031960e085901b16815260048101929092526024820152604401602060405180830381865afa1580156114a0573d6000803e3d6000fd5b505050506040513d601f19601f820116820180604052508101906114c491906120f0565b600955565b600b5460ff16156114ec5760405162461bcd60e51b815260040161085390612140565b600654604051632242276b60e11b81526001600160a01b0390911660048201523060248201526044810183905273__$5201a97c05ba6aa659e2f36a933dd51801$__906344844ed69060640160006040518083038186803b15801561155057600080fd5b505af4158015611564573d6000803e3d6000fd5b5050505061157484848484611842565b6108ce6113cf565b6005546001600160a01b031633146109595760405162461bcd60e51b815260206004820181905260248201527f4f776e61626c653a2063616c6c6572206973206e6f7420746865206f776e65726044820152606401610853565b600580546001600160a01b038381166001600160a01b0319831681179093556040519116919082907f8be0079c531659141344cd1fd0a4f28419497f9722a3daafe3b4186f6b6457e090600090a35050565b6040516001600160a01b038316602482015260448101829052610acd90849063a9059cbb60e01b906064016112fd565b600b5460ff161561167b5760405162461bcd60e51b815260040161085390612140565b600654604051633d08669d60e21b81526001600160a01b0390911660048201523060248201526044810183905273__$5201a97c05ba6aa659e2f36a933dd51801$__9063f4219a749060640160006040518083038186803b1580156116df57600080fd5b505af41580156116f3573d6000803e3d6000fd5b5050505061170485858585856118d4565b61170c6113cf565b5050505050565b600080611721868686611994565b90506001836002811115611737576117376121ca565b14801561175457506000848061174f5761174f612192565b868809115b1561176757611764600182612086565b90505b95945050505050565b60006117c5826040518060400160405280602081526020017f5361666545524332303a206c6f772d6c6576656c2063616c6c206661696c6564815250856001600160a01b0316611a439092919063ffffffff16565b805190915015610acd57808060200190518101906117e391906121e0565b610acd5760405162461bcd60e51b815260206004820152602a60248201527f5361666545524332303a204552433230206f7065726174696f6e20646964206e6044820152691bdd081cdd58d8d9595960b21b6064820152608401610853565b61186e7f00000000000000000000000000000000000000000000000000000000000000008530856112c9565b6118788382611a52565b826001600160a01b0316846001600160a01b03167fdcbc1c05240f31ff3ad067ef1ee35ce4997762752e3a095284754544f4c709d784846040516118c6929190918252602082015260400190565b60405180910390a350505050565b826001600160a01b0316856001600160a01b0316146118f8576118f8838683611097565b6119028382611b11565b61192d7f00000000000000000000000000000000000000000000000000000000000000008584611628565b826001600160a01b0316846001600160a01b0316866001600160a01b03167ffbde797d201c681b91056529119e0b02407c7bb96a4a2c75c01fc9667232c8db8585604051611985929190918252602082015260400190565b60405180910390a45050505050565b60008080600019858709858702925082811083820303915050806000036119ce578382816119c4576119c4612192565b0492505050610678565b8084116119da57600080fd5b60008486880960026001871981018816978890046003810283188082028403028082028403028082028403028082028403028082028403029081029092039091026000889003889004909101858311909403939093029303949094049190911702949350505050565b6060610d308484600085611c43565b6001600160a01b038216611aa85760405162461bcd60e51b815260206004820152601f60248201527f45524332303a206d696e7420746f20746865207a65726f2061646472657373006044820152606401610853565b8060026000828254611aba9190612086565b90915550506001600160a01b038216600081815260208181526040808320805486019055518481527fddf252ad1be2c89b69c2b068fc378daa952ba7f163c4a11628f55a4df523b3ef910160405180910390a35050565b6001600160a01b038216611b715760405162461bcd60e51b815260206004820152602160248201527f45524332303a206275726e2066726f6d20746865207a65726f206164647265736044820152607360f81b6064820152608401610853565b6001600160a01b03821660009081526020819052604090205481811015611be55760405162461bcd60e51b815260206004820152602260248201527f45524332303a206275726e20616d6f756e7420657863656564732062616c616e604482015261636560f01b6064820152608401610853565b6001600160a01b0383166000818152602081815260408083208686039055600280548790039055518581529192917fddf252ad1be2c89b69c2b068fc378daa952ba7f163c4a11628f55a4df523b3ef910160405180910390a3505050565b606082471015611ca45760405162461bcd60e51b815260206004820152602660248201527f416464726573733a20696e73756666696369656e742062616c616e636520666f6044820152651c8818d85b1b60d21b6064820152608401610853565b600080866001600160a01b03168587604051611cc091906121fd565b60006040518083038185875af1925050503d8060008114611cfd576040519150601f19603f3d011682016040523d82523d6000602084013e611d02565b606091505b5091509150611d1387838387611d1e565b979650505050505050565b60608315611d8d578251600003611d86576001600160a01b0385163b611d865760405162461bcd60e51b815260206004820152601d60248201527f416464726573733a2063616c6c20746f206e6f6e2d636f6e74726163740000006044820152606401610853565b5081610d30565b610d308383815115611da25781518083602001fd5b8060405162461bcd60e51b81526004016108539190611de0565b60005b83811015611dd7578181015183820152602001611dbf565b50506000910152565b6020815260008251806020840152611dff816040850160208701611dbc565b601f01601f19169190910160400192915050565b600060208284031215611e2557600080fd5b5035919050565b6001600160a01b0381168114610f0657600080fd5b60008060408385031215611e5457600080fd5b8235611e5f81611e2c565b946020939093013593505050565b600080600060608486031215611e8257600080fd5b8335611e8d81611e2c565b92506020840135611e9d81611e2c565b929592945050506040919091013590565b600060208284031215611ec057600080fd5b813561067881611e2c565b60008060008060808587031215611ee157600080fd5b8435611eec81611e2c565b966020860135965060408601359560600135945092505050565b60008060408385031215611f1957600080fd5b823591506020830135611f2b81611e2c565b809150509250929050565b600080600060608486031215611f4b57600080fd5b8335611f5681611e2c565b95602085013595506040909401359392505050565b600080600060608486031215611f8057600080fd5b833592506020840135611f9281611e2c565b91506040840135611fa281611e2c565b809150509250925092565b8015158114610f0657600080fd5b600060208284031215611fcd57600080fd5b813561067881611fad565b600060608284031215611fea57600080fd5b6040516060810181811067ffffffffffffffff8211171561201b57634e487b7160e01b600052604160045260246000fd5b80604052508235815260208301356020820152604083013560408201528091505092915050565b6000806040838503121561205557600080fd5b823561206081611e2c565b91506020830135611f2b81611e2c565b634e487b7160e01b600052601160045260246000fd5b8082018082111561062e5761062e612070565b600181811c908216806120ad57607f821691505b6020821081036120cd57634e487b7160e01b600052602260045260246000fd5b50919050565b6000602082840312156120e557600080fd5b815161067881611e2c565b60006020828403121561210257600080fd5b5051919050565b6020808252601f908201527f43616c6c657273206d757374206265204d61726b657420636f6e747261637400604082015260600190565b6020808252600e908201526d141bdbdb081a5cc81c185d5cd95960921b604082015260600190565b8181038181111561062e5761062e612070565b808202811582820484141761062e5761062e612070565b634e487b7160e01b600052601260045260246000fd5b6000826121c557634e487b7160e01b600052601260045260246000fd5b500490565b634e487b7160e01b600052602160045260246000fd5b6000602082840312156121f257600080fd5b815161067881611fad565b6000825161220f818460208701611dbc565b919091019291505056fea26469706673582212204d4c232e0b6c9e51e7f62ec1fe061c4c49e85b3654f59978a48c516d085d0ee964736f6c63430008110033a2646970667358221220fcba477a559f99cf765293541f6f27d46e092447a971c39584675c919282b3c364736f6c63430008110033",
  "linkReferences": {
    "contracts/libraries/logic/BorrowLogic.sol": {
      "BorrowLogic": [
        {
          "length": 20,
          "start": 1614
        },
        {
          "length": 20,
          "start": 3929
        }
      ]
    },
    "contracts/libraries/logic/LiquidationLogic.sol": {
      "LiquidationLogic": [
        {
          "length": 20,
          "start": 960
        }
      ]
    },
    "contracts/libraries/logic/ValidationLogic.sol": {
      "ValidationLogic": [
        {
          "length": 20,
          "start": 15375
        },
        {
          "length": 20,
          "start": 15774
        }
      ]
    }
  },
  "deployedLinkReferences": {
    "contracts/libraries/logic/BorrowLogic.sol": {
      "BorrowLogic": [
        {
          "length": 20,
          "start": 1376
        },
        {
          "length": 20,
          "start": 3691
        }
      ]
    },
    "contracts/libraries/logic/LiquidationLogic.sol": {
      "LiquidationLogic": [
        {
          "length": 20,
          "start": 722
        }
      ]
    },
    "contracts/libraries/logic/ValidationLogic.sol": {
      "ValidationLogic": [
        {
          "length": 20,
          "start": 15137
        },
        {
          "length": 20,
          "start": 15536
        }
      ]
    }
  }
}