{
  "_format": "hh-sol-artifact-1",
  "contractName": "LendingPool",
  "sourceName": "contracts/protocol/Lending/LendingPool.sol",
  "abi": [
    {
      "inputs": [
        {
          "internalType": "contract IAddressesProvider",
          "name": "addressProvider",
          "type": "address"
        },
        {
          "internalType": "address",
          "name": "owner",
          "type": "address"
        },
        {
          "internalType": "contract IERC20",
          "name": "asset",
          "type": "address"
        },
        {
          "internalType": "string",
          "name": "name",
          "type": "string"
        },
        {
          "internalType": "string",
          "name": "symbol",
          "type": "string"
        },
        {
          "components": [
            {
              "internalType": "uint256",
              "name": "liquidationPenalty",
              "type": "uint256"
            },
            {
              "internalType": "uint256",
              "name": "liquidationFee",
              "type": "uint256"
            },
            {
              "internalType": "uint256",
              "name": "maximumUtilizationRate",
              "type": "uint256"
            },
            {
              "internalType": "uint256",
              "name": "tvlSafeguard",
              "type": "uint256"
            }
          ],
          "internalType": "struct ConfigTypes.LendingPoolConfig",
          "name": "lendingPoolConfig",
          "type": "tuple"
        }
      ],
      "stateMutability": "nonpayable",
      "type": "constructor"
    },
    {
      "anonymous": false,
      "inputs": [
        {
          "indexed": true,
          "internalType": "address",
          "name": "owner",
          "type": "address"
        },
        {
          "indexed": true,
          "internalType": "address",
          "name": "spender",
          "type": "address"
        },
        {
          "indexed": false,
          "internalType": "uint256",
          "name": "value",
          "type": "uint256"
        }
      ],
      "name": "Approval",
      "type": "event"
    },
    {
      "anonymous": false,
      "inputs": [
        {
          "indexed": true,
          "internalType": "address",
          "name": "sender",
          "type": "address"
        },
        {
          "indexed": true,
          "internalType": "address",
          "name": "owner",
          "type": "address"
        },
        {
          "indexed": false,
          "internalType": "uint256",
          "name": "assets",
          "type": "uint256"
        },
        {
          "indexed": false,
          "internalType": "uint256",
          "name": "shares",
          "type": "uint256"
        }
      ],
      "name": "Deposit",
      "type": "event"
    },
    {
      "anonymous": false,
      "inputs": [
        {
          "indexed": true,
          "internalType": "address",
          "name": "previousOwner",
          "type": "address"
        },
        {
          "indexed": true,
          "internalType": "address",
          "name": "newOwner",
          "type": "address"
        }
      ],
      "name": "OwnershipTransferred",
      "type": "event"
    },
    {
      "anonymous": false,
      "inputs": [
        {
          "indexed": true,
          "internalType": "address",
          "name": "from",
          "type": "address"
        },
        {
          "indexed": true,
          "internalType": "address",
          "name": "to",
          "type": "address"
        },
        {
          "indexed": false,
          "internalType": "uint256",
          "name": "value",
          "type": "uint256"
        }
      ],
      "name": "Transfer",
      "type": "event"
    },
    {
      "anonymous": false,
      "inputs": [
        {
          "indexed": true,
          "internalType": "address",
          "name": "sender",
          "type": "address"
        },
        {
          "indexed": true,
          "internalType": "address",
          "name": "receiver",
          "type": "address"
        },
        {
          "indexed": true,
          "internalType": "address",
          "name": "owner",
          "type": "address"
        },
        {
          "indexed": false,
          "internalType": "uint256",
          "name": "assets",
          "type": "uint256"
        },
        {
          "indexed": false,
          "internalType": "uint256",
          "name": "shares",
          "type": "uint256"
        }
      ],
      "name": "Withdraw",
      "type": "event"
    },
    {
      "inputs": [
        {
          "internalType": "address",
          "name": "owner",
          "type": "address"
        },
        {
          "internalType": "address",
          "name": "spender",
          "type": "address"
        }
      ],
      "name": "allowance",
      "outputs": [
        {
          "internalType": "uint256",
          "name": "",
          "type": "uint256"
        }
      ],
      "stateMutability": "view",
      "type": "function"
    },
    {
      "inputs": [
        {
          "internalType": "address",
          "name": "spender",
          "type": "address"
        },
        {
          "internalType": "uint256",
          "name": "amount",
          "type": "uint256"
        }
      ],
      "name": "approve",
      "outputs": [
        {
          "internalType": "bool",
          "name": "",
          "type": "bool"
        }
      ],
      "stateMutability": "nonpayable",
      "type": "function"
    },
    {
      "inputs": [],
      "name": "asset",
      "outputs": [
        {
          "internalType": "address",
          "name": "",
          "type": "address"
        }
      ],
      "stateMutability": "view",
      "type": "function"
    },
    {
      "inputs": [
        {
          "internalType": "address",
          "name": "account",
          "type": "address"
        }
      ],
      "name": "balanceOf",
      "outputs": [
        {
          "internalType": "uint256",
          "name": "",
          "type": "uint256"
        }
      ],
      "stateMutability": "view",
      "type": "function"
    },
    {
      "inputs": [
        {
          "internalType": "uint256",
          "name": "shares",
          "type": "uint256"
        }
      ],
      "name": "convertToAssets",
      "outputs": [
        {
          "internalType": "uint256",
          "name": "assets",
          "type": "uint256"
        }
      ],
      "stateMutability": "view",
      "type": "function"
    },
    {
      "inputs": [
        {
          "internalType": "uint256",
          "name": "assets",
          "type": "uint256"
        }
      ],
      "name": "convertToShares",
      "outputs": [
        {
          "internalType": "uint256",
          "name": "shares",
          "type": "uint256"
        }
      ],
      "stateMutability": "view",
      "type": "function"
    },
    {
      "inputs": [],
      "name": "decimals",
      "outputs": [
        {
          "internalType": "uint8",
          "name": "",
          "type": "uint8"
        }
      ],
      "stateMutability": "view",
      "type": "function"
    },
    {
      "inputs": [
        {
          "internalType": "address",
          "name": "spender",
          "type": "address"
        },
        {
          "internalType": "uint256",
          "name": "subtractedValue",
          "type": "uint256"
        }
      ],
      "name": "decreaseAllowance",
      "outputs": [
        {
          "internalType": "bool",
          "name": "",
          "type": "bool"
        }
      ],
      "stateMutability": "nonpayable",
      "type": "function"
    },
    {
      "inputs": [
        {
          "internalType": "uint256",
          "name": "assets",
          "type": "uint256"
        },
        {
          "internalType": "address",
          "name": "receiver",
          "type": "address"
        }
      ],
      "name": "deposit",
      "outputs": [
        {
          "internalType": "uint256",
          "name": "",
          "type": "uint256"
        }
      ],
      "stateMutability": "nonpayable",
      "type": "function"
    },
    {
      "inputs": [],
      "name": "getBorrowRate",
      "outputs": [
        {
          "internalType": "uint256",
          "name": "",
          "type": "uint256"
        }
      ],
      "stateMutability": "view",
      "type": "function"
    },
    {
      "inputs": [],
      "name": "getDebt",
      "outputs": [
        {
          "internalType": "uint256",
          "name": "",
          "type": "uint256"
        }
      ],
      "stateMutability": "view",
      "type": "function"
    },
    {
      "inputs": [],
      "name": "getLiquidationFee",
      "outputs": [
        {
          "internalType": "uint256",
          "name": "",
          "type": "uint256"
        }
      ],
      "stateMutability": "view",
      "type": "function"
    },
    {
      "inputs": [],
      "name": "getLiquidationPenalty",
      "outputs": [
        {
          "internalType": "uint256",
          "name": "",
          "type": "uint256"
        }
      ],
      "stateMutability": "view",
      "type": "function"
    },
    {
      "inputs": [],
      "name": "getMaximumUtilizationRate",
      "outputs": [
        {
          "internalType": "uint256",
          "name": "",
          "type": "uint256"
        }
      ],
      "stateMutability": "view",
      "type": "function"
    },
    {
      "inputs": [],
      "name": "getSupplyRate",
      "outputs": [
        {
          "internalType": "uint256",
          "name": "",
          "type": "uint256"
        }
      ],
      "stateMutability": "view",
      "type": "function"
    },
    {
      "inputs": [],
      "name": "getTVLSafeguard",
      "outputs": [
        {
          "internalType": "uint256",
          "name": "",
          "type": "uint256"
        }
      ],
      "stateMutability": "view",
      "type": "function"
    },
    {
      "inputs": [],
      "name": "getUnderlyingBalance",
      "outputs": [
        {
          "internalType": "uint256",
          "name": "",
          "type": "uint256"
        }
      ],
      "stateMutability": "view",
      "type": "function"
    },
    {
      "inputs": [],
      "name": "getUtilizationRate",
      "outputs": [
        {
          "internalType": "uint256",
          "name": "",
          "type": "uint256"
        }
      ],
      "stateMutability": "view",
      "type": "function"
    },
    {
      "inputs": [
        {
          "internalType": "address",
          "name": "spender",
          "type": "address"
        },
        {
          "internalType": "uint256",
          "name": "addedValue",
          "type": "uint256"
        }
      ],
      "name": "increaseAllowance",
      "outputs": [
        {
          "internalType": "bool",
          "name": "",
          "type": "bool"
        }
      ],
      "stateMutability": "nonpayable",
      "type": "function"
    },
    {
      "inputs": [
        {
          "internalType": "address",
          "name": "",
          "type": "address"
        }
      ],
      "name": "maxDeposit",
      "outputs": [
        {
          "internalType": "uint256",
          "name": "",
          "type": "uint256"
        }
      ],
      "stateMutability": "view",
      "type": "function"
    },
    {
      "inputs": [
        {
          "internalType": "address",
          "name": "",
          "type": "address"
        }
      ],
      "name": "maxMint",
      "outputs": [
        {
          "internalType": "uint256",
          "name": "",
          "type": "uint256"
        }
      ],
      "stateMutability": "view",
      "type": "function"
    },
    {
      "inputs": [
        {
          "internalType": "address",
          "name": "owner",
          "type": "address"
        }
      ],
      "name": "maxRedeem",
      "outputs": [
        {
          "internalType": "uint256",
          "name": "",
          "type": "uint256"
        }
      ],
      "stateMutability": "view",
      "type": "function"
    },
    {
      "inputs": [
        {
          "internalType": "address",
          "name": "owner",
          "type": "address"
        }
      ],
      "name": "maxWithdraw",
      "outputs": [
        {
          "internalType": "uint256",
          "name": "",
          "type": "uint256"
        }
      ],
      "stateMutability": "view",
      "type": "function"
    },
    {
      "inputs": [
        {
          "internalType": "uint256",
          "name": "shares",
          "type": "uint256"
        },
        {
          "internalType": "address",
          "name": "receiver",
          "type": "address"
        }
      ],
      "name": "mint",
      "outputs": [
        {
          "internalType": "uint256",
          "name": "",
          "type": "uint256"
        }
      ],
      "stateMutability": "nonpayable",
      "type": "function"
    },
    {
      "inputs": [],
      "name": "name",
      "outputs": [
        {
          "internalType": "string",
          "name": "",
          "type": "string"
        }
      ],
      "stateMutability": "view",
      "type": "function"
    },
    {
      "inputs": [],
      "name": "owner",
      "outputs": [
        {
          "internalType": "address",
          "name": "",
          "type": "address"
        }
      ],
      "stateMutability": "view",
      "type": "function"
    },
    {
      "inputs": [
        {
          "internalType": "uint256",
          "name": "assets",
          "type": "uint256"
        }
      ],
      "name": "previewDeposit",
      "outputs": [
        {
          "internalType": "uint256",
          "name": "",
          "type": "uint256"
        }
      ],
      "stateMutability": "view",
      "type": "function"
    },
    {
      "inputs": [
        {
          "internalType": "uint256",
          "name": "shares",
          "type": "uint256"
        }
      ],
      "name": "previewMint",
      "outputs": [
        {
          "internalType": "uint256",
          "name": "",
          "type": "uint256"
        }
      ],
      "stateMutability": "view",
      "type": "function"
    },
    {
      "inputs": [
        {
          "internalType": "uint256",
          "name": "shares",
          "type": "uint256"
        }
      ],
      "name": "previewRedeem",
      "outputs": [
        {
          "internalType": "uint256",
          "name": "",
          "type": "uint256"
        }
      ],
      "stateMutability": "view",
      "type": "function"
    },
    {
      "inputs": [
        {
          "internalType": "uint256",
          "name": "assets",
          "type": "uint256"
        }
      ],
      "name": "previewWithdraw",
      "outputs": [
        {
          "internalType": "uint256",
          "name": "",
          "type": "uint256"
        }
      ],
      "stateMutability": "view",
      "type": "function"
    },
    {
      "inputs": [
        {
          "internalType": "address",
          "name": "from",
          "type": "address"
        },
        {
          "internalType": "uint256",
          "name": "amount",
          "type": "uint256"
        },
        {
          "internalType": "uint256",
          "name": "borrowRate",
          "type": "uint256"
        },
        {
          "internalType": "uint256",
          "name": "interest",
          "type": "uint256"
        }
      ],
      "name": "receiveUnderlying",
      "outputs": [],
      "stateMutability": "nonpayable",
      "type": "function"
    },
    {
      "inputs": [
        {
          "internalType": "address",
          "name": "from",
          "type": "address"
        },
        {
          "internalType": "uint256",
          "name": "amount",
          "type": "uint256"
        },
        {
          "internalType": "uint256",
          "name": "borrowRate",
          "type": "uint256"
        },
        {
          "internalType": "uint256",
          "name": "defaultedDebt",
          "type": "uint256"
        }
      ],
      "name": "receiveUnderlyingDefaulted",
      "outputs": [],
      "stateMutability": "nonpayable",
      "type": "function"
    },
    {
      "inputs": [
        {
          "internalType": "uint256",
          "name": "shares",
          "type": "uint256"
        },
        {
          "internalType": "address",
          "name": "receiver",
          "type": "address"
        },
        {
          "internalType": "address",
          "name": "owner",
          "type": "address"
        }
      ],
      "name": "redeem",
      "outputs": [
        {
          "internalType": "uint256",
          "name": "",
          "type": "uint256"
        }
      ],
      "stateMutability": "nonpayable",
      "type": "function"
    },
    {
      "inputs": [],
      "name": "renounceOwnership",
      "outputs": [],
      "stateMutability": "nonpayable",
      "type": "function"
    },
    {
      "inputs": [
        {
          "internalType": "uint256",
          "name": "liquidationFee",
          "type": "uint256"
        }
      ],
      "name": "setLiquidationFee",
      "outputs": [],
      "stateMutability": "nonpayable",
      "type": "function"
    },
    {
      "inputs": [
        {
          "internalType": "uint256",
          "name": "liquidationPenalty",
          "type": "uint256"
        }
      ],
      "name": "setLiquidationPenalty",
      "outputs": [],
      "stateMutability": "nonpayable",
      "type": "function"
    },
    {
      "inputs": [
        {
          "internalType": "bool",
          "name": "paused",
          "type": "bool"
        }
      ],
      "name": "setPause",
      "outputs": [],
      "stateMutability": "nonpayable",
      "type": "function"
    },
    {
      "inputs": [
        {
          "internalType": "uint256",
          "name": "tvlSafeguard",
          "type": "uint256"
        }
      ],
      "name": "setTVLSafeguard",
      "outputs": [],
      "stateMutability": "nonpayable",
      "type": "function"
    },
    {
      "inputs": [],
      "name": "symbol",
      "outputs": [
        {
          "internalType": "string",
          "name": "",
          "type": "string"
        }
      ],
      "stateMutability": "view",
      "type": "function"
    },
    {
      "inputs": [],
      "name": "totalAssets",
      "outputs": [
        {
          "internalType": "uint256",
          "name": "",
          "type": "uint256"
        }
      ],
      "stateMutability": "view",
      "type": "function"
    },
    {
      "inputs": [],
      "name": "totalSupply",
      "outputs": [
        {
          "internalType": "uint256",
          "name": "",
          "type": "uint256"
        }
      ],
      "stateMutability": "view",
      "type": "function"
    },
    {
      "inputs": [
        {
          "internalType": "address",
          "name": "to",
          "type": "address"
        },
        {
          "internalType": "uint256",
          "name": "amount",
          "type": "uint256"
        }
      ],
      "name": "transfer",
      "outputs": [
        {
          "internalType": "bool",
          "name": "",
          "type": "bool"
        }
      ],
      "stateMutability": "nonpayable",
      "type": "function"
    },
    {
      "inputs": [
        {
          "internalType": "address",
          "name": "from",
          "type": "address"
        },
        {
          "internalType": "address",
          "name": "to",
          "type": "address"
        },
        {
          "internalType": "uint256",
          "name": "amount",
          "type": "uint256"
        }
      ],
      "name": "transferFrom",
      "outputs": [
        {
          "internalType": "bool",
          "name": "",
          "type": "bool"
        }
      ],
      "stateMutability": "nonpayable",
      "type": "function"
    },
    {
      "inputs": [
        {
          "internalType": "address",
          "name": "newOwner",
          "type": "address"
        }
      ],
      "name": "transferOwnership",
      "outputs": [],
      "stateMutability": "nonpayable",
      "type": "function"
    },
    {
      "inputs": [
        {
          "internalType": "address",
          "name": "to",
          "type": "address"
        },
        {
          "internalType": "uint256",
          "name": "amount",
          "type": "uint256"
        },
        {
          "internalType": "uint256",
          "name": "borrowRate",
          "type": "uint256"
        }
      ],
      "name": "transferUnderlying",
      "outputs": [],
      "stateMutability": "nonpayable",
      "type": "function"
    },
    {
      "inputs": [
        {
          "internalType": "uint256",
          "name": "assets",
          "type": "uint256"
        },
        {
          "internalType": "address",
          "name": "receiver",
          "type": "address"
        },
        {
          "internalType": "address",
          "name": "owner",
          "type": "address"
        }
      ],
      "name": "withdraw",
      "outputs": [
        {
          "internalType": "uint256",
          "name": "",
          "type": "uint256"
        }
      ],
      "stateMutability": "nonpayable",
      "type": "function"
    }
  ],
  "bytecode": "0x60c080604052346200073a57620028cc80380380916200002082856200073f565b833981018181039061012082126200073a578251926001600160a01b03841684036200073a57620000546020820162000763565b6040820151909390926001600160a01b03841684036200073a5760608301516001600160401b0381116200073a57816200009091850162000794565b60808401519091906001600160401b0381116200073a57608091620000b791860162000794565b92609f1901126200073a576040519260808401906001600160401b0382118583101762000610576101009160405260a0810151855260c0810151602086015260e081015160408601520151606084015280519060018060401b038211620006105760035490600182811c921680156200072f575b6020831014620005ef5781601f849311620006bd575b50602090601f8311600114620006325760009262000626575b50508160011b916000199060031b1c1916176003555b8051906001600160401b038211620006105760045490600182811c9216801562000605575b6020831014620005ef5781601f8493116200057d575b50602090601f8311600114620004f257600092620004e6575b50508160011b916000199060031b1c1916176004555b620001e58262000847565b9015620004dd575b60a05281608052620001ff33620007fe565b6040516302690e7760e11b81526020816004816001600160a01b0389165afa908115620003b6576000916200049b575b506001600160a01b031633036200044757600680546001600160a01b039586166001600160a01b031991821681179092556007805496851696909116959095179094558051600c55602080820151600d55604080830151600e55606090920151600f55905163292bdab360e11b815293849060049082905afa928315620003b657600093620003fe575b506040516370a0823160e01b815230600482015290602090829060249082906001600160a01b03165afa8015620003b657600090620003c2575b600854604051633362bee560e11b8152600481019290925260248201529260209150839060449082906001600160a01b03165afa918215620003b65760009262000377575b506200034791600955620007fe565b604051611fc290816200090a8239608051818181610e160152818161183f0152611c9d015260a05181610e5f0152f35b6020813d602011620003ad575b8162000393602093836200073f565b81010312620003a9575191506200034762000338565b8280fd5b3d915062000384565b6040513d6000823e3d90fd5b6020823d602011620003f5575b81620003de602093836200073f565b81010312620003f2575060209051620002f3565b80fd5b3d9150620003cf565b90926020823d6020116200043e575b816200041c602093836200073f565b81010312620003f2575060206200043560249262000763565b939150620002b9565b3d91506200040d565b60405162461bcd60e51b815260206004820152602660248201527f52657365727665206d7573742062652063726561746564207468726f756768206044820152651b585c9ad95d60d21b6064820152608490fd5b906020823d602011620004d4575b81620004b8602093836200073f565b81010312620003f25750620004cd9062000763565b386200022f565b3d9150620004a9565b506012620001ed565b015190503880620001c4565b600460009081527f8a35acfbc15ff81a39ae7d344fd709f28e8600b4aa8c65c6b64bfe7fe36bd19b9350601f198516905b8181106200056457509084600195949392106200054a575b505050811b01600455620001da565b015160001960f88460031b161c191690553880806200053b565b9293602060018192878601518155019501930162000523565b60046000529091507f8a35acfbc15ff81a39ae7d344fd709f28e8600b4aa8c65c6b64bfe7fe36bd19b601f840160051c810160208510620005e7575b90849392915b601f830160051c82018110620005d7575050620001ab565b60008155859450600101620005bf565b5080620005b9565b634e487b7160e01b600052602260045260246000fd5b91607f169162000195565b634e487b7160e01b600052604160045260246000fd5b0151905038806200015a565b600360009081527fc2575a0e9e593c00f959f8c92f12db2869c3395a3b0502d05e2516446f71f85b9350601f198516905b818110620006a457509084600195949392106200068a575b505050811b0160035562000170565b015160001960f88460031b161c191690553880806200067b565b9293602060018192878601518155019501930162000663565b60036000529091507fc2575a0e9e593c00f959f8c92f12db2869c3395a3b0502d05e2516446f71f85b601f840160051c81016020851062000727575b90849392915b601f830160051c820181106200071757505062000141565b60008155859450600101620006ff565b5080620006f9565b91607f16916200012b565b600080fd5b601f909101601f19168101906001600160401b038211908210176200061057604052565b51906001600160a01b03821682036200073a57565b6001600160401b0381116200061057601f01601f191660200190565b919080601f840112156200073a57825190620007b08262000778565b91620007c060405193846200073f565b8083526020918282870101116200073a5760005b818110620007ea57508260009394955001015290565b8581018301518482018401528201620007d4565b600580546001600160a01b039283166001600160a01b0319821681179092559091167f8be0079c531659141344cd1fd0a4f28419497f9722a3daafe3b4186f6b6457e0600080a3565b6040805163313ce56760e01b60208201908152600482529293929181016001600160401b0381118282101762000610576040525160009384928392916001600160a01b03165afa3d1562000900573d90620008a28262000778565b91620008b260405193846200073f565b82523d84602084013e5b80620008f3575b620008ce575b508190565b602081805181010312620003a9576020015160ff8111620008c9576001925060ff1690565b50602081511015620008c3565b606090620008bc56fe604060808152600480361015610015575b600080fd5b600091823560e01c90816301e1d1141461107e57816306fdde0314610f8a57816307a2d13a14610c83578163095ea7b314610f605781630a28a47714610f3f57816314a6bf0f14610f2057816318160ddd14610f015781631e522b2914610ee257816323b872dd14610ea55781632806a74314610e83578163313ce56714610e4557816338d52e0f14610e015781633950935114610db1578163402d267d14610d8a5781634a417a5314610c8f5781634cdad50614610c83578163545039c614610bfe57816365ec417614610bdc5781636e553f6514610b5257816370a08231146103aa578163715018a614610af557816384bdc9a814610a9a5781638da5cb5b14610a7157816394bf804d14610a1a57816395d89b4114610916578163a225869414610855578163a457c2d7146107b1578163a4b84e0a14610792578163a663f830146106bd578163a880e68b1461069e578163a9059cbb1461066d578163b3d7f6b91461062a578163b460af9414610578578163ba087652146104c8578163ba1c5e80146104a9578163bedb86fb14610472578163c63d75b61461044b578163c6e6f59214610331578163ce96cb77146103e6578163d905777e146103aa578163dd62ed3e14610361578163e2c674391461033d578163ef8b30f714610331578163f2fde38b14610260578163fbf4198414610241575063fef0bec81461021d57600080fd5b3461023d57602036600319011261023d576102366111dc565b35600d5580f35b5080fd5b83903461023d578160031936011261023d57602090600d549051908152f35b9190503461032d57602036600319011261032d5761027c61112e565b906102856111dc565b6001600160a01b039182169283156102db575050600554826bffffffffffffffffffffffff60a01b821617600555167f8be0079c531659141344cd1fd0a4f28419497f9722a3daafe3b4186f6b6457e08380a380f35b906020608492519162461bcd60e51b8352820152602660248201527f4f776e61626c653a206e6577206f776e657220697320746865207a65726f206160448201526564647265737360d01b6064820152fd5b8280fd5b505050506100106111bd565b83903461023d578160031936011261023d5760209061035a611717565b9051908152f35b83903461023d578060031936011261023d578060209261037f61112e565b610387611144565b6001600160a01b0391821683526001865283832091168252845220549051908152f35b83903461023d57602036600319011261023d5760209061035a6103cb61112e565b6001600160a01b031660009081526020819052604090205490565b83903461023d57602036600319011261023d576020916001600160a01b0361040c61112e565b16815280835281902054600254806104275750905b51908152f35b6104459161043f600854610439611717565b90611280565b90611694565b90610421565b83903461023d57602036600319011261023d5760209061046961112e565b50516000198152f35b50503461023d57602036600319011261023d573580151580910361023d576104986111dc565b60ff8019600b5416911617600b5580f35b83903461023d578160031936011261023d576020906009549051908152f35b83833461023d576104d836611188565b9390919260018060a01b03851682528160205285822054841161053557505060025460209492610421929091806105155750819485915b33611b8d565b61052d90610527600854610439611717565b84611694565b94859161050f565b606490602087519162461bcd60e51b8352820152601d60248201527f455243343632363a2072656465656d206d6f7265207468616e206d61780000006044820152fd5b8284346106275761058836611188565b6001600160a01b038116845260208490529285902054600254939491938061061057505b82116105cd575060209391816105c4610421936115de565b94859233611b8d565b606490602086519162461bcd60e51b8352820152601f60248201527f455243343632363a207769746864726177206d6f7265207468616e206d6178006044820152fd5b6106229161043f600854610439611717565b6105ac565b80fd5b9190503461032d57602036600319011261032d57600254602093509035908061065557509051908152f35b61044591610667600854610439611717565b9061164a565b83903461023d578060031936011261023d5760209061069761068d61112e565b60243590336112a3565b5160018152f35b83903461023d578160031936011261023d57602090600f549051908152f35b9190503461032d576106ce3661115a565b60065486516302690e7760e11b8152929691959394936001600160a01b0393916020918391829087165afa9182156107895750928261072461073f94610745979461074d9a978c9161075b575b50163314611e05565b61073360ff600b54161561178f565b6007541690309161195f565b82611f3d565b600854611e51565b600855610758611e5e565b80f35b61077c915060203d8111610782575b610774818361125e565b810190611de6565b3861071b565b503d61076a565b513d89823e3d90fd5b83903461023d578160031936011261023d57602090600e549051908152f35b8284346106275782600319360112610627576107cb61112e565b918360243592338152600160205281812060018060a01b0386168252602052205490828210610804576020856106978585038733611411565b608490602086519162461bcd60e51b8352820152602560248201527f45524332303a2064656372656173656420616c6c6f77616e63652062656c6f77604482015264207a65726f60d81b6064820152fd5b90503461032d57606036600319011261032d5761087061112e565b916024359160018060a01b0391602083600654168351928380926302690e7760e11b82525afa91821561090d575093826108bc6108d494869461074d988a9161075b5750163314611e05565b6108cb60ff600b54161561178f565b60075416611da5565b6008546109056108f56108e9600a5484611f2a565b61043960443586611f2a565b6108ff8484611280565b9061168a565b600a55611280565b513d87823e3d90fd5b8391503461023d578160031936011261023d57805191809380549160019083821c92828516948515610a10575b60209586861081146109fd578589529081156109d95750600114610981575b61097d8787610973828c038361125e565b51918291826110a1565b0390f35b81529295507f8a35acfbc15ff81a39ae7d344fd709f28e8600b4aa8c65c6b64bfe7fe36bd19b5b8284106109c6575050508261097d9461097392820101948680610962565b80548685018801529286019281016109a8565b60ff19168887015250505050151560051b83010192506109738261097d8680610962565b634e487b7160e01b845260228352602484fd5b93607f1693610943565b8391503461023d578060031936011261023d5761042160209335610a3c611144565b60025490945080610a5257508080945b336117cf565b610a6a90610a64600854610439611717565b8361164a565b8094610a4c565b83903461023d578160031936011261023d5760055490516001600160a01b039091168152602090f35b83903461023d578160031936011261023d5760209190600854610ac4610abe611717565b82611280565b610ad0575b5051908152f35b610aee9192506108ff610ae582600a54611f2a565b91610439611717565b9083610ac9565b8334610627578060031936011261062757610b0e6111dc565b600580546001600160a01b0319811690915581906001600160a01b03167f8be0079c531659141344cd1fd0a4f28419497f9722a3daafe3b4186f6b6457e08280a380f35b82843461062757826003193601126106275750803590610b70611144565b90610b796115ab565b8311610b99575091610421602093610b9084611614565b938491336117cf565b606490602085519162461bcd60e51b8352820152601e60248201527f455243343632363a206465706f736974206d6f7265207468616e206d617800006044820152fd5b50503461023d57602036600319011261023d57610bf76111dc565b35600f5580f35b9190503461032d57610c0f3661115a565b9193909460018060a01b0391602083600654168351928380926302690e7760e11b82525afa918215610789575092610c7b83610c6161073f95610745989561074d9b988d9161075b5750163314611e05565b610c7060ff600b54161561178f565b600754169187611280565b91309161195f565b505050506100106110ea565b8391503461023d578160031936011261023d57600654815163292bdab360e11b815260209490916001600160a01b039190869084908390829086165afa928315610d8057908692918694610d5e575b50604490610cea611717565b9260085495875196879586946342e4b18360e11b86528501526024840152165afa928315610d53578093610d21575b505051908152f35b909192508382813d8311610d4c575b610d3a818361125e565b81010312610627575051908380610d19565b503d610d30565b8251903d90823e3d90fd5b6044919450610d7990843d861161078257610774818361125e565b9390610cde565b84513d87823e3d90fd5b83903461023d57602036600319011261023d57602090610da861112e565b5061035a6115ab565b83903461023d578060031936011261023d57610697602092610dfa610dd461112e565b338352600186528483206001600160a01b03821684528652918490205460243590611280565b9033611411565b83903461023d578160031936011261023d57517f00000000000000000000000000000000000000000000000000000000000000006001600160a01b03168152602090f35b83903461023d578160031936011261023d576020905160ff7f0000000000000000000000000000000000000000000000000000000000000000168152f35b50503461023d57602036600319011261023d57610e9e6111dc565b35600c5580f35b83903461023d57606036600319011261023d57602090610697610ec661112e565b610ece611144565b60443591610edd833383611513565b6112a3565b83903461023d578160031936011261023d57602090600c549051908152f35b83903461023d578160031936011261023d576020906002549051908152f35b83903461023d578160031936011261023d576020906008549051908152f35b90508234610627576020366003190112610627575061035a602092356115de565b83903461023d578060031936011261023d57602090610697610f8061112e565b6024359033611411565b90503461032d578260031936011261032d57805191836003549060019082821c928281168015611074575b6020958686108214611061575084885290811561103f5750600114610fe6575b61097d8686610973828b038361125e565b929550600383527fc2575a0e9e593c00f959f8c92f12db2869c3395a3b0502d05e2516446f71f85b5b82841061102c575050508261097d94610973928201019438610fd5565b805486850188015292860192810161100f565b60ff191687860152505050151560051b83010192506109738261097d38610fd5565b634e487b7160e01b845260229052602483fd5b93607f1693610fb5565b83903461023d578160031936011261023d5760209061035a600854610439611717565b6020808252825181830181905290939260005b8281106110d657505060409293506000838284010152601f8019910116010190565b8181018601518482016040015285016110b4565b5034610010576020366003190112610010576020600435600254801560001461111757505b604051908152f35b6111299161043f600854610439611717565b61110f565b600435906001600160a01b038216820361001057565b602435906001600160a01b038216820361001057565b6080906003190112610010576004356001600160a01b03811681036100105790602435906044359060643590565b606090600319011261001057600435906001600160a01b03906024358281168103610010579160443590811681036100105790565b503461001057602036600319011261001057602061110f600435611614565b6005546001600160a01b031633036111f057565b606460405162461bcd60e51b815260206004820152602060248201527f4f776e61626c653a2063616c6c6572206973206e6f7420746865206f776e65726044820152fd5b67ffffffffffffffff811161124857604052565b634e487b7160e01b600052604160045260246000fd5b90601f8019910116810190811067ffffffffffffffff82111761124857604052565b9190820180921161128d57565b634e487b7160e01b600052601160045260246000fd5b6001600160a01b039081169182156113be571691821561136d5760008281528060205260408120549180831061131957604082827fddf252ad1be2c89b69c2b068fc378daa952ba7f163c4a11628f55a4df523b3ef958760209652828652038282205586815220818154019055604051908152a3565b60405162461bcd60e51b815260206004820152602660248201527f45524332303a207472616e7366657220616d6f756e7420657863656564732062604482015265616c616e636560d01b6064820152608490fd5b60405162461bcd60e51b815260206004820152602360248201527f45524332303a207472616e7366657220746f20746865207a65726f206164647260448201526265737360e81b6064820152608490fd5b60405162461bcd60e51b815260206004820152602560248201527f45524332303a207472616e736665722066726f6d20746865207a65726f206164604482015264647265737360d81b6064820152608490fd5b6001600160a01b039081169182156114c257169182156114725760207f8c5be1e5ebec7d5bd14f71427d1e84f3dd0314c0f7b2291e5b200ac8c7c3b925918360005260018252604060002085600052825280604060002055604051908152a3565b60405162461bcd60e51b815260206004820152602260248201527f45524332303a20617070726f766520746f20746865207a65726f206164647265604482015261737360f01b6064820152608490fd5b60405162461bcd60e51b8152602060048201526024808201527f45524332303a20617070726f76652066726f6d20746865207a65726f206164646044820152637265737360e01b6064820152608490fd5b9060018060a01b038083166000526001602052604060002090821660005260205260406000205492600019840361154b575b50505050565b8084106115665761155d930391611411565b38808080611545565b60405162461bcd60e51b815260206004820152601d60248201527f45524332303a20696e73756666696369656e7420616c6c6f77616e63650000006044820152606490fd5b6115b9600854610439611717565b158015906115d4575b600090156115d1575060001990565b90565b50600254156115c2565b6002548115801561160c575b156115f3575090565b906115d191611606600854610439611717565b9161164a565b5080156115ea565b60025481158015611642575b15611629575090565b906115d19161163c600854610439611717565b91611694565b508015611620565b9190611657828285611694565b92821561167457096116665790565b6001810180911161128d5790565b634e487b7160e01b600052601260045260246000fd5b8115611674570490565b91600019828409928281029283808610950394808603951461170a5784831115610010578291096001821901821680920460028082600302188083028203028083028203028083028203028083028203028083028203028092029003029360018380600003040190848311900302920304170290565b5050906115d1925061168a565b6007546040516370a0823160e01b815230600482015290602090829060249082906001600160a01b03165afa90811561178357600091611755575090565b906020823d821161177b575b8161176e6020938361125e565b8101031261062757505190565b3d9150611761565b6040513d6000823e3d90fd5b1561179657565b60405162461bcd60e51b815260206004820152601160248201527014995cd95c9d99481a5cc81c185d5cd959607a1b6044820152606490fd5b600b54600095949392906117e69060ff161561178f565b73__$5201a97c05ba6aa659e2f36a933dd51801$__91823b1561195b576040805163521f866b60e11b81523060048201526024810186905290938890829060449082905af480156119515761193e575b506118638430837f000000000000000000000000000000000000000000000000000000000000000061195f565b6001600160a01b039182169485156118fa57857fdcbc1c05240f31ff3ad067ef1ee35ce4997762752e3a095284754544f4c709d7959697986118a783600254611280565b600255818152806020528581208381540190557fddf252ad1be2c89b69c2b068fc378daa952ba7f163c4a11628f55a4df523b3ef60208751858152a3835195865260208601521692a36118f8611e5e565b565b835162461bcd60e51b815260206004820152601f60248201527f45524332303a206d696e7420746f20746865207a65726f2061646472657373006044820152606490fd5b61194a90979197611234565b9538611836565b84513d8a823e3d90fd5b8680fd5b6040516323b872dd60e01b60208201526001600160a01b03928316602482015292909116604483015260648083019390935291815260a081019181831067ffffffffffffffff841117611248576118f8926040525b60018060a01b0316906040516040810167ffffffffffffffff9082811082821117611248576040526020938483527f5361666545524332303a206c6f772d6c6576656c2063616c6c206661696c6564858401526000808587829751910182855af1903d15611aed573d928311611ad95790611a4f93929160405192611a4288601f19601f840116018561125e565b83523d868885013e611af8565b805180611a5c5750505050565b8184918101031261023d57820151908115918215036106275750611a8257808080611545565b6084906040519062461bcd60e51b82526004820152602a60248201527f5361666545524332303a204552433230206f7065726174696f6e20646964206e6044820152691bdd081cdd58d8d9595960b21b6064820152fd5b634e487b7160e01b85526041600452602485fd5b90611a4f9392506060915b91929015611b5a5750815115611b0c575090565b3b15611b155790565b60405162461bcd60e51b815260206004820152601d60248201527f416464726573733a2063616c6c20746f206e6f6e2d636f6e74726163740000006044820152606490fd5b825190915015611b6d5750805190602001fd5b60405162461bcd60e51b8152908190611b8990600483016110a1565b0390fd5b90949394929192600b5495611ba760ff600098161561178f565b73__$5201a97c05ba6aa659e2f36a933dd51801$__91823b15611da1576040805163521f866b60e11b81523060048201526024810187905290938990829060449082905af48015611d9757611d84575b506001600160a01b0386811696858216959193918290898803611d73575b5050508615611d2557868952886020528389205498818a10611cd6578188999a7ffbde797d201c681b91056529119e0b02407c7bb96a4a2c75c01fc9667232c8db97989983528260205203858220558160025403600255887fddf252ad1be2c89b69c2b068fc378daa952ba7f163c4a11628f55a4df523b3ef60208751858152a3611cc187837f0000000000000000000000000000000000000000000000000000000000000000611da5565b835196875260208701521693a46118f8611e5e565b845162461bcd60e51b815260206004820152602260248201527f45524332303a206275726e20616d6f756e7420657863656564732062616c616e604482015261636560f01b6064820152608490fd5b835162461bcd60e51b815260206004820152602160248201527f45524332303a206275726e2066726f6d20746865207a65726f206164647265736044820152607360f81b6064820152608490fd5b611d7c92611513565b388181611c15565b611d9090989198611234565b9638611bf7565b84513d8b823e3d90fd5b8780fd5b60405163a9059cbb60e01b60208201526001600160a01b039290921660248301526044808301939093529181526118f891611de160648361125e565b6119b4565b9081602091031261001057516001600160a01b03811681036100105790565b15611e0c57565b60405162461bcd60e51b815260206004820152601f60248201527f43616c6c657273206d757374206265204d61726b657420636f6e7472616374006044820152606490fd5b9190820391821161128d57565b60065460405163292bdab360e11b8152906020906001600160a01b039082908490600490829085165afa92831561178357600093611f09575b5081906044611ea4611717565b600854926040519687948593633362bee560e11b855260048501526024840152165afa90811561178357600091611edd575b5060095550565b82813d8311611f02575b611ef1818361125e565b810103126106275750518038611ed6565b503d611ee7565b82919350611f2390823d841161078257610774818361125e565b9290611e97565b8181029291811591840414171561128d57565b9060085490611f4c8383611e51565b611f5a575050506000600a55565b611f8792611f816108ff92611f7b611f74600a5487611f2a565b9184611f2a565b90611e51565b92611e51565b600a5556fea2646970667358221220ac7d7b8196b309db7ecc4426c090efc6926887b21f60b840ffb9950f3baaf27764736f6c63430008110033",
  "linkReferences": {
    "contracts/libraries/logic/ValidationLogic.sol": {
      "ValidationLogic": [
        {
          "length": 20,
          "start": 8434
        },
        {
          "length": 20,
          "start": 9395
        }
      ]
    }
  },
  "deployedLinkReferences": {
    "contracts/libraries/logic/ValidationLogic.sol": {
      "ValidationLogic": [
        {
          "length": 20,
          "start": 6120
        },
        {
          "length": 20,
          "start": 7081
        }
      ]
    }
  }
}