{
  "_format": "hh-sol-artifact-1",
  "contractName": "LendingGauge",
  "sourceName": "contracts/protocol/Gauges/LendingGauge.sol",
  "abi": [
    {
      "inputs": [
        {
          "internalType": "contract IAddressesProvider",
          "name": "addressProvider",
          "type": "address"
        },
        {
          "internalType": "address",
          "name": "lpToken_",
          "type": "address"
        }
      ],
      "stateMutability": "nonpayable",
      "type": "constructor"
    },
    {
      "inputs": [
        {
          "internalType": "address",
          "name": "user",
          "type": "address"
        }
      ],
      "name": "balanceOf",
      "outputs": [
        {
          "internalType": "uint256",
          "name": "",
          "type": "uint256"
        }
      ],
      "stateMutability": "view",
      "type": "function"
    },
    {
      "inputs": [],
      "name": "claim",
      "outputs": [
        {
          "internalType": "uint256",
          "name": "",
          "type": "uint256"
        }
      ],
      "stateMutability": "nonpayable",
      "type": "function"
    },
    {
      "inputs": [
        {
          "internalType": "uint256",
          "name": "amount",
          "type": "uint256"
        }
      ],
      "name": "deposit",
      "outputs": [],
      "stateMutability": "nonpayable",
      "type": "function"
    },
    {
      "inputs": [
        {
          "internalType": "uint256",
          "name": "tokenId",
          "type": "uint256"
        }
      ],
      "name": "kick",
      "outputs": [],
      "stateMutability": "nonpayable",
      "type": "function"
    },
    {
      "inputs": [],
      "name": "lpToken",
      "outputs": [
        {
          "internalType": "address",
          "name": "",
          "type": "address"
        }
      ],
      "stateMutability": "view",
      "type": "function"
    },
    {
      "inputs": [],
      "name": "totalSupply",
      "outputs": [
        {
          "internalType": "uint256",
          "name": "",
          "type": "uint256"
        }
      ],
      "stateMutability": "view",
      "type": "function"
    },
    {
      "inputs": [
        {
          "internalType": "address",
          "name": "user",
          "type": "address"
        }
      ],
      "name": "userBoost",
      "outputs": [
        {
          "internalType": "uint256",
          "name": "",
          "type": "uint256"
        }
      ],
      "stateMutability": "view",
      "type": "function"
    },
    {
      "inputs": [
        {
          "internalType": "uint256",
          "name": "amount",
          "type": "uint256"
        }
      ],
      "name": "withdraw",
      "outputs": [],
      "stateMutability": "nonpayable",
      "type": "function"
    },
    {
      "inputs": [
        {
          "internalType": "address",
          "name": "user",
          "type": "address"
        }
      ],
      "name": "workingBalanceOf",
      "outputs": [
        {
          "internalType": "uint256",
          "name": "",
          "type": "uint256"
        }
      ],
      "stateMutability": "view",
      "type": "function"
    },
    {
      "inputs": [],
      "name": "workingSupply",
      "outputs": [
        {
          "internalType": "uint256",
          "name": "",
          "type": "uint256"
        }
      ],
      "stateMutability": "view",
      "type": "function"
    },
    {
      "inputs": [],
      "name": "writeTotalWeightHistory",
      "outputs": [],
      "stateMutability": "nonpayable",
      "type": "function"
    }
  ],
  "bytecode": "0x6080346200012a576001600160401b0390601f6200172d38819003918201601f1916830191848311848410176200012f5780849260409485528339810103126200012a5780516001600160a01b0380821692918390036200012a576020809201519081168091036200012a5760018060a01b031960009381855416178455600754161760075560405192818401908482109082111762000116576040528183526006549260019384600655808510620000eb575b509060068352808320925b848110620000d6576040516115e79081620001468239f35b825160ff1684820155918101918401620000be565b60068452848084862092830192015b8281106200010a575050620000b3565b858155018590620000fa565b634e487b7160e01b83526041600452602483fd5b600080fd5b634e487b7160e01b600052604160045260246000fdfe6080604052600436101561001257600080fd5b60003560e01c80630c7c97c7146100c757806318160ddd146100c25780632e1a7d4d146100bd5780634e71d92d146100b85780635fcbd285146100b357806370a08231146100ae57806387da75ef146100a9578063b6b55f25146100a4578063c8562f721461009f578063ce0cf1a51461009a5763d02a2bee1461009557600080fd5b6104ae565b61035b565b61033d565b6102a7565b61028e565b610251565b610228565b61020d565b610149565b61011c565b6100e2565b6001600160a01b038116036100dd57565b600080fd5b346100dd5760203660031901126100dd576020610109600435610104816100cc565b61063f565b604051908152f35b60009103126100dd57565b346100dd5760003660031901126100dd576020610109610558565b60209060031901126100dd5760043590565b346100dd5761015736610137565b33600052600160205260406000205481116101bc573360009081526001602052604090206101ba919061018b8282546105e6565b905561019633610f72565b60075433906101b5906001600160a01b03165b6001600160a01b031690565b611518565b005b60405162461bcd60e51b815260206004820152602360248201527f576974686472617720616d6f756e7420686967686572207468616e2062616c616044820152626e636560e81b6064820152608490fd5b346100dd5760003660031901126100dd576020610109610790565b346100dd5760003660031901126100dd576007546040516001600160a01b039091168152602090f35b346100dd5760203660031901126100dd5760043561026e816100cc565b60018060a01b031660005260016020526020604060002054604051908152f35b346100dd5760003660031901126100dd576101ba610e2d565b346100dd576102b536610137565b336000526001602052604060002080549082820180921161033857556102da33610f72565b6007546040516323b872dd60e01b602082015233602482015230604482015260648082019390935291825260a0820191906001600160a01b031667ffffffffffffffff831182841017610333576101ba92604052611382565b6104d5565b6105c1565b346100dd5760003660031901126100dd576020600554604051908152f35b346100dd5761036936610137565b60008054909190610382906001600160a01b03166101a9565b90604080518093630458184560e11b825281600460209687935afa90811561045f578591610491575b508151635a2d1e0760e11b8152600481018490526001600160a01b039190911692908281602481875afa801561045f5785918791610464575b50015142116103f1578480f35b90516331a9108f60e11b81526004810191909152908290829060249082905afa90811561045f5761042a928492610432575b5050610f72565b388080808480f35b6104519250803d10610458575b610449818361051b565b81019061067f565b3880610423565b503d61043f565b61054c565b6104849150843d861161048a575b61047c818361051b565b8101906112e3565b386103e4565b503d610472565b6104a89150843d861161045857610449818361051b565b386103ab565b346100dd5760203660031901126100dd5760206101096004356104d0816100cc565b61124d565b634e487b7160e01b600052604160045260246000fd5b6040810190811067ffffffffffffffff82111761033357604052565b67ffffffffffffffff811161033357604052565b90601f8019910116810190811067ffffffffffffffff82111761033357604052565b908160209103126100dd575190565b6040513d6000823e3d90fd5b6007546040516370a0823160e01b815230600482015290602090829060249082906001600160a01b03165afa90811561045f57600091610596575090565b6105b7915060203d81116105ba575b6105af818361051b565b81019061053d565b90565b503d6105a5565b634e487b7160e01b600052601160045260246000fd5b60001981019190821161033857565b9190820391821161033857565b634e487b7160e01b600052603260045260246000fd5b80541561061e57600052602060002090600090565b6105f3565b805482101561061e5760005260206000209060011b0190600090565b6001600160a01b03166000908152600260205260409020805480156106785760001981019081116103385761067391610623565b505490565b5050600090565b908160209103126100dd57516105b7816100cc565b906001820180921161033857565b9190820180921161033857565b60001981146103385760010190565b604051906106cb826104eb565b565b906040516106da816104eb565b602060018294805484520154910152565b60065481101561061e5760066000527ff652222313e28459528d920b65115c16c04f3efc82aaedc97be59f3f377c0d3f0190600090565b90611388918083029283040361033857565b8181029291811591840414171561033857565b8115610751570490565b634e487b7160e01b600052601260045260246000fd5b60405190610774826104eb565b600d82526c616d6f756e74546f436c61696d60981b6020830152565b61079933610f72565b600080546107af906001600160a01b03166101a9565b60408051630458184560e11b8152919291600490602080828481895afa91821561045f578592610dc6575b508351632c6f4d6f60e11b81526001600160a01b039283169682908290869082905afa801561045f5783918791610da9575b50336000908152600260205260409020911690548015610d9e573360009081526004602052604090205415610d16575b8697875b6032811061090e575b5050505061085e86610859610767565b611559565b845483908290610876906001600160a01b03166101a9565b86516315b9ba5d60e01b815292839182905afa91821561045f5786926108f1575b50501691823b156108ed5751631ec9887760e11b815233918101918252602082018590529291839182908490829060400103925af1801561045f576108da575090565b806108e76105b792610507565b80610111565b8380fd5b6109079250803d1061045857610449818361051b565b3880610897565b336000908152600460205260409020548851635487c57760e01b908181528781806109418d429083019190602083019252565b0381885afa90811561045f578c91610cf9575b508210610962575050610849565b3360009081526002602090815260408083206003909252909120546109919161098b9190610623565b506106cd565b336000908152600360205260409020909190546109ad876105d7565b03610a9457506109c96109bf836106eb565b90549060031b1c90565b6109fc575b50503360009081526004602052604090206109f791905b6109ef81546106af565b90555b6106af565b610840565b89516315a8752360e31b8152308a820190815260208101849052939c92939092919088908490819003604001818f8b5af193841561045f57610a616109bf610a5b8f97610a6795610a6d988e6109f79b93610a75575b50505190610734565b926106eb565b90610747565b906106a2565b9990386109ce565b610a8c929350803d106105ba576105af818361051b565b90388e610a52565b9187610ad761098b610ab83360018060a01b03166000526002602052604060002090565b336000908152600360205260409020610ad19054610694565b90610623565b0191610af7898d8d8651915193849283928a845283019190602083019252565b03818a5afa801561045f578a8f8f908f9094610b2e9594610cda575b5082860151915194859283928b845283019190602083019252565b03818b5afa91821561045f578f92610cbb575b5003610b655750503360009081526003602052604090206109f793925090506109e5565b610b716109bf836106eb565b610c20575b5050336000908152600460205260409020610bb4939288929091610b9a81546106af565b905551908b51948592839283528c83019190602083019252565b0381865afa91821561045f576109f792610bd5918c91610c03575b50610694565b33600090815260046020526040902054036109f2573360009081526003602052604090206109ef81546106af565b610c1a9150883d8a116105ba576105af818361051b565b38610bcf565b919c610c5f9089838f8f8f9099989699518096819482936315a8752360e31b84523090840160209093929193604081019460018060a01b031681520152565b03918d5af1801561045f57610bb4968f6109bf610a5b610a67948f99610c9198610a619592610c9c575b505190610734565b9c9181939450610b76565b610cb49192508b3d8d116105ba576105af818361051b565b9038610c89565b610cd39192508b3d8d116105ba576105af818361051b565b9038610b41565b610cf2919450833d85116105ba576105af818361051b565b9238610b13565b610d109150883d8a116105ba576105af818361051b565b38610954565b336000908152600260205260409020610d57908490600190610d3790610609565b500154885180938192635487c57760e01b83528a83019190602083019252565b03818c5afa801561045f57610d72918991610d875750610694565b3360009081526004602052604090205561083c565b610c1a9150853d87116105ba576105af818361051b565b505050505050905090565b610dc09150833d851161045857610449818361051b565b3861080c565b81610dde9293503d841161045857610449818361051b565b90386107da565b600654600160401b81101561033357600181018060065581101561061e5760066000527ff652222313e28459528d920b65115c16c04f3efc82aaedc97be59f3f377c0d3f0155565b600054610e42906001600160a01b03166101a9565b6040518091630458184560e11b825281600460209485935afa90811561045f57600091610ef2575b50604051635487c57760e01b8152426004820152908290829060249082906001600160a01b03165afa91821561045f57600092610ed5575b505060005b60808110610eb3575050565b816006541015610ed157610ecc906109f2600554610de5565b610ea7565b5050565b610eeb9250803d106105ba576105af818361051b565b3880610ea2565b610f099150823d841161045857610449818361051b565b38610e6a565b60405190610f1c826104eb565b60006020838281520152565b8054600160401b81101561033357610f4591600182018155610623565b919091610f5c576020816001925184550151910155565b634e487b7160e01b600052600060045260246000fd5b60008054909190610f8b906001600160a01b03166101a9565b906040518092630458184560e11b825281600460209586935afa90811561045f57849161121e575b506001600160a01b031690813b156108ed576040516387da75ef60e01b8152848160048183875af1801561045f5761120b575b506040516370a0823160e01b81526001600160a01b03821660048201528381602481865afa92831561045f57849186946111e7575b506040516318160ddd60e01b81529190829060049082905afa92831561045f57856110ec94846110cd936110d2956106cb9a936111c8575b5061105c610e2d565b8261114257506001600160a01b03166000908152600160205260409020905054905b50611087610f0f565b6001600160a01b0385166000908152600260205260409020909190546110f1575b6110c5906110b46106be565b9781895242908901526005546106a2565b9051906105e6565b600555565b6001600160a01b0316600090815260026020526040902090565b610f28565b90506110c561113a61098b6111188760018060a01b03166000526002602052604060002090565b6001600160a01b0388166000908152600260205260409020610ad190546105d7565b9190506110a8565b6111b46111bc91610a676111c2956111af6111a161119b6111956111788a60018060a01b03166000526001602052604060002090565b546001600160a01b03909a16600090815260016020526040902090565b54610722565b94610722565b6111a9610558565b90610734565b610747565b612710900490565b9061123b565b9061107e565b6111e0919350893d8b116105ba576105af818361051b565b9138611053565b82919450611203906004933d84116105ba576105af818361051b565b93909161101b565b806108e761121892610507565b38610fe6565b6112359150833d851161045857610449818361051b565b38610fb3565b9080821015611248575090565b905090565b6001600160a01b038116600090815260016020526040902054156112dd5760026020526040600020805460001981019081116103385761128c91610623565b5054600181901b906001600160ff1b038116036103385761271090818102918183041490151715610338576112d66105b79260018060a01b03166000526001602052604060002090565b5490610747565b50600090565b908160409103126100dd576020604051916112fd836104eb565b805183520151602082015290565b908160209103126100dd575180151581036100dd5790565b1561132a57565b60405162461bcd60e51b815260206004820152602a60248201527f5361666545524332303a204552433230206f7065726174696f6e20646964206e6044820152691bdd081cdd58d8d9595960b21b6064820152608490fd5b60018060a01b0316604051611396816104eb565b6000806020948584527f5361666545524332303a206c6f772d6c6576656c2063616c6c206661696c656486850152858151910182865af13d15611432573d9067ffffffffffffffff82116103335761140d93604051926113ff87601f19601f840116018561051b565b83523d60008785013e61143b565b8051908161141a57505050565b826106cb9361142d93830101910161130b565b611323565b9161140d926060915b9192901561149d575081511561144f575090565b3b156114585790565b60405162461bcd60e51b815260206004820152601d60248201527f416464726573733a2063616c6c20746f206e6f6e2d636f6e74726163740000006044820152606490fd5b8251909150156114b05750805190602001fd5b60405162461bcd60e51b8152602060048201529081906114d49060248301906114d8565b0390fd5b919082519283825260005b848110611504575050826000602080949584010152601f8019910116010190565b6020818301810151848301820152016114e3565b60405163a9059cbb60e01b60208201526001600160a01b039290921660248301526044808301939093529181526106cb9161155460648361051b565b611382565b60009190829161159e604051809261158a6020830195632d839cb360e21b87526040602485015260648401906114d8565b90604483015203601f19810183528261051b565b51906a636f6e736f6c652e6c6f675afa5056fea26469706673582212208700952739365cbfa5f29568d8b5d4cada6ffa79ad5249f54ce2010259b7d88564736f6c63430008130033",
  "linkReferences": {},
  "deployedLinkReferences": {}
}