{
  "_format": "hh-sol-artifact-1",
  "contractName": "LendingPool",
  "sourceName": "contracts/protocol/Lending/LendingPool.sol",
  "abi": [
    {
      "inputs": [
        {
          "internalType": "contract IAddressesProvider",
          "name": "addressProvider",
          "type": "address"
        },
        {
          "internalType": "address",
          "name": "owner",
          "type": "address"
        },
        {
          "internalType": "contract IERC20",
          "name": "asset",
          "type": "address"
        },
        {
          "internalType": "string",
          "name": "name",
          "type": "string"
        },
        {
          "internalType": "string",
          "name": "symbol",
          "type": "string"
        },
        {
          "components": [
            {
              "internalType": "uint256",
              "name": "liquidationPenalty",
              "type": "uint256"
            },
            {
              "internalType": "uint256",
              "name": "liquidationFee",
              "type": "uint256"
            },
            {
              "internalType": "uint256",
              "name": "maximumUtilizationRate",
              "type": "uint256"
            },
            {
              "internalType": "uint256",
              "name": "tvlSafeguard",
              "type": "uint256"
            }
          ],
          "internalType": "struct ConfigTypes.LendingPoolConfig",
          "name": "lendingPoolConfig",
          "type": "tuple"
        }
      ],
      "stateMutability": "nonpayable",
      "type": "constructor"
    },
    {
      "anonymous": false,
      "inputs": [
        {
          "indexed": true,
          "internalType": "address",
          "name": "owner",
          "type": "address"
        },
        {
          "indexed": true,
          "internalType": "address",
          "name": "spender",
          "type": "address"
        },
        {
          "indexed": false,
          "internalType": "uint256",
          "name": "value",
          "type": "uint256"
        }
      ],
      "name": "Approval",
      "type": "event"
    },
    {
      "anonymous": false,
      "inputs": [
        {
          "indexed": true,
          "internalType": "address",
          "name": "sender",
          "type": "address"
        },
        {
          "indexed": true,
          "internalType": "address",
          "name": "owner",
          "type": "address"
        },
        {
          "indexed": false,
          "internalType": "uint256",
          "name": "assets",
          "type": "uint256"
        },
        {
          "indexed": false,
          "internalType": "uint256",
          "name": "shares",
          "type": "uint256"
        }
      ],
      "name": "Deposit",
      "type": "event"
    },
    {
      "anonymous": false,
      "inputs": [
        {
          "indexed": true,
          "internalType": "address",
          "name": "previousOwner",
          "type": "address"
        },
        {
          "indexed": true,
          "internalType": "address",
          "name": "newOwner",
          "type": "address"
        }
      ],
      "name": "OwnershipTransferred",
      "type": "event"
    },
    {
      "anonymous": false,
      "inputs": [
        {
          "indexed": true,
          "internalType": "address",
          "name": "from",
          "type": "address"
        },
        {
          "indexed": true,
          "internalType": "address",
          "name": "to",
          "type": "address"
        },
        {
          "indexed": false,
          "internalType": "uint256",
          "name": "value",
          "type": "uint256"
        }
      ],
      "name": "Transfer",
      "type": "event"
    },
    {
      "anonymous": false,
      "inputs": [
        {
          "indexed": true,
          "internalType": "address",
          "name": "sender",
          "type": "address"
        },
        {
          "indexed": true,
          "internalType": "address",
          "name": "receiver",
          "type": "address"
        },
        {
          "indexed": true,
          "internalType": "address",
          "name": "owner",
          "type": "address"
        },
        {
          "indexed": false,
          "internalType": "uint256",
          "name": "assets",
          "type": "uint256"
        },
        {
          "indexed": false,
          "internalType": "uint256",
          "name": "shares",
          "type": "uint256"
        }
      ],
      "name": "Withdraw",
      "type": "event"
    },
    {
      "inputs": [
        {
          "internalType": "address",
          "name": "owner",
          "type": "address"
        },
        {
          "internalType": "address",
          "name": "spender",
          "type": "address"
        }
      ],
      "name": "allowance",
      "outputs": [
        {
          "internalType": "uint256",
          "name": "",
          "type": "uint256"
        }
      ],
      "stateMutability": "view",
      "type": "function"
    },
    {
      "inputs": [
        {
          "internalType": "address",
          "name": "spender",
          "type": "address"
        },
        {
          "internalType": "uint256",
          "name": "amount",
          "type": "uint256"
        }
      ],
      "name": "approve",
      "outputs": [
        {
          "internalType": "bool",
          "name": "",
          "type": "bool"
        }
      ],
      "stateMutability": "nonpayable",
      "type": "function"
    },
    {
      "inputs": [],
      "name": "asset",
      "outputs": [
        {
          "internalType": "address",
          "name": "",
          "type": "address"
        }
      ],
      "stateMutability": "view",
      "type": "function"
    },
    {
      "inputs": [
        {
          "internalType": "address",
          "name": "account",
          "type": "address"
        }
      ],
      "name": "balanceOf",
      "outputs": [
        {
          "internalType": "uint256",
          "name": "",
          "type": "uint256"
        }
      ],
      "stateMutability": "view",
      "type": "function"
    },
    {
      "inputs": [
        {
          "internalType": "uint256",
          "name": "shares",
          "type": "uint256"
        }
      ],
      "name": "convertToAssets",
      "outputs": [
        {
          "internalType": "uint256",
          "name": "assets",
          "type": "uint256"
        }
      ],
      "stateMutability": "view",
      "type": "function"
    },
    {
      "inputs": [
        {
          "internalType": "uint256",
          "name": "assets",
          "type": "uint256"
        }
      ],
      "name": "convertToShares",
      "outputs": [
        {
          "internalType": "uint256",
          "name": "shares",
          "type": "uint256"
        }
      ],
      "stateMutability": "view",
      "type": "function"
    },
    {
      "inputs": [],
      "name": "decimals",
      "outputs": [
        {
          "internalType": "uint8",
          "name": "",
          "type": "uint8"
        }
      ],
      "stateMutability": "view",
      "type": "function"
    },
    {
      "inputs": [
        {
          "internalType": "address",
          "name": "spender",
          "type": "address"
        },
        {
          "internalType": "uint256",
          "name": "subtractedValue",
          "type": "uint256"
        }
      ],
      "name": "decreaseAllowance",
      "outputs": [
        {
          "internalType": "bool",
          "name": "",
          "type": "bool"
        }
      ],
      "stateMutability": "nonpayable",
      "type": "function"
    },
    {
      "inputs": [
        {
          "internalType": "uint256",
          "name": "assets",
          "type": "uint256"
        },
        {
          "internalType": "address",
          "name": "receiver",
          "type": "address"
        }
      ],
      "name": "deposit",
      "outputs": [
        {
          "internalType": "uint256",
          "name": "",
          "type": "uint256"
        }
      ],
      "stateMutability": "nonpayable",
      "type": "function"
    },
    {
      "inputs": [],
      "name": "getBorrowRate",
      "outputs": [
        {
          "internalType": "uint256",
          "name": "",
          "type": "uint256"
        }
      ],
      "stateMutability": "view",
      "type": "function"
    },
    {
      "inputs": [],
      "name": "getDebt",
      "outputs": [
        {
          "internalType": "uint256",
          "name": "",
          "type": "uint256"
        }
      ],
      "stateMutability": "view",
      "type": "function"
    },
    {
      "inputs": [],
      "name": "getLiquidationFee",
      "outputs": [
        {
          "internalType": "uint256",
          "name": "",
          "type": "uint256"
        }
      ],
      "stateMutability": "view",
      "type": "function"
    },
    {
      "inputs": [],
      "name": "getLiquidationPenalty",
      "outputs": [
        {
          "internalType": "uint256",
          "name": "",
          "type": "uint256"
        }
      ],
      "stateMutability": "view",
      "type": "function"
    },
    {
      "inputs": [],
      "name": "getMaximumUtilizationRate",
      "outputs": [
        {
          "internalType": "uint256",
          "name": "",
          "type": "uint256"
        }
      ],
      "stateMutability": "view",
      "type": "function"
    },
    {
      "inputs": [],
      "name": "getSupplyRate",
      "outputs": [
        {
          "internalType": "uint256",
          "name": "",
          "type": "uint256"
        }
      ],
      "stateMutability": "view",
      "type": "function"
    },
    {
      "inputs": [],
      "name": "getTVLSafeguard",
      "outputs": [
        {
          "internalType": "uint256",
          "name": "",
          "type": "uint256"
        }
      ],
      "stateMutability": "view",
      "type": "function"
    },
    {
      "inputs": [],
      "name": "getUnderlyingBalance",
      "outputs": [
        {
          "internalType": "uint256",
          "name": "",
          "type": "uint256"
        }
      ],
      "stateMutability": "view",
      "type": "function"
    },
    {
      "inputs": [],
      "name": "getUtilizationRate",
      "outputs": [
        {
          "internalType": "uint256",
          "name": "",
          "type": "uint256"
        }
      ],
      "stateMutability": "view",
      "type": "function"
    },
    {
      "inputs": [
        {
          "internalType": "address",
          "name": "spender",
          "type": "address"
        },
        {
          "internalType": "uint256",
          "name": "addedValue",
          "type": "uint256"
        }
      ],
      "name": "increaseAllowance",
      "outputs": [
        {
          "internalType": "bool",
          "name": "",
          "type": "bool"
        }
      ],
      "stateMutability": "nonpayable",
      "type": "function"
    },
    {
      "inputs": [
        {
          "internalType": "address",
          "name": "",
          "type": "address"
        }
      ],
      "name": "maxDeposit",
      "outputs": [
        {
          "internalType": "uint256",
          "name": "",
          "type": "uint256"
        }
      ],
      "stateMutability": "view",
      "type": "function"
    },
    {
      "inputs": [
        {
          "internalType": "address",
          "name": "",
          "type": "address"
        }
      ],
      "name": "maxMint",
      "outputs": [
        {
          "internalType": "uint256",
          "name": "",
          "type": "uint256"
        }
      ],
      "stateMutability": "view",
      "type": "function"
    },
    {
      "inputs": [
        {
          "internalType": "address",
          "name": "owner",
          "type": "address"
        }
      ],
      "name": "maxRedeem",
      "outputs": [
        {
          "internalType": "uint256",
          "name": "",
          "type": "uint256"
        }
      ],
      "stateMutability": "view",
      "type": "function"
    },
    {
      "inputs": [
        {
          "internalType": "address",
          "name": "owner",
          "type": "address"
        }
      ],
      "name": "maxWithdraw",
      "outputs": [
        {
          "internalType": "uint256",
          "name": "",
          "type": "uint256"
        }
      ],
      "stateMutability": "view",
      "type": "function"
    },
    {
      "inputs": [
        {
          "internalType": "uint256",
          "name": "shares",
          "type": "uint256"
        },
        {
          "internalType": "address",
          "name": "receiver",
          "type": "address"
        }
      ],
      "name": "mint",
      "outputs": [
        {
          "internalType": "uint256",
          "name": "",
          "type": "uint256"
        }
      ],
      "stateMutability": "nonpayable",
      "type": "function"
    },
    {
      "inputs": [],
      "name": "name",
      "outputs": [
        {
          "internalType": "string",
          "name": "",
          "type": "string"
        }
      ],
      "stateMutability": "view",
      "type": "function"
    },
    {
      "inputs": [],
      "name": "owner",
      "outputs": [
        {
          "internalType": "address",
          "name": "",
          "type": "address"
        }
      ],
      "stateMutability": "view",
      "type": "function"
    },
    {
      "inputs": [
        {
          "internalType": "uint256",
          "name": "assets",
          "type": "uint256"
        }
      ],
      "name": "previewDeposit",
      "outputs": [
        {
          "internalType": "uint256",
          "name": "",
          "type": "uint256"
        }
      ],
      "stateMutability": "view",
      "type": "function"
    },
    {
      "inputs": [
        {
          "internalType": "uint256",
          "name": "shares",
          "type": "uint256"
        }
      ],
      "name": "previewMint",
      "outputs": [
        {
          "internalType": "uint256",
          "name": "",
          "type": "uint256"
        }
      ],
      "stateMutability": "view",
      "type": "function"
    },
    {
      "inputs": [
        {
          "internalType": "uint256",
          "name": "shares",
          "type": "uint256"
        }
      ],
      "name": "previewRedeem",
      "outputs": [
        {
          "internalType": "uint256",
          "name": "",
          "type": "uint256"
        }
      ],
      "stateMutability": "view",
      "type": "function"
    },
    {
      "inputs": [
        {
          "internalType": "uint256",
          "name": "assets",
          "type": "uint256"
        }
      ],
      "name": "previewWithdraw",
      "outputs": [
        {
          "internalType": "uint256",
          "name": "",
          "type": "uint256"
        }
      ],
      "stateMutability": "view",
      "type": "function"
    },
    {
      "inputs": [
        {
          "internalType": "address",
          "name": "from",
          "type": "address"
        },
        {
          "internalType": "uint256",
          "name": "amount",
          "type": "uint256"
        },
        {
          "internalType": "uint256",
          "name": "borrowRate",
          "type": "uint256"
        },
        {
          "internalType": "uint256",
          "name": "interest",
          "type": "uint256"
        }
      ],
      "name": "receiveUnderlying",
      "outputs": [],
      "stateMutability": "nonpayable",
      "type": "function"
    },
    {
      "inputs": [
        {
          "internalType": "address",
          "name": "from",
          "type": "address"
        },
        {
          "internalType": "uint256",
          "name": "amount",
          "type": "uint256"
        },
        {
          "internalType": "uint256",
          "name": "borrowRate",
          "type": "uint256"
        },
        {
          "internalType": "uint256",
          "name": "defaultedDebt",
          "type": "uint256"
        }
      ],
      "name": "receiveUnderlyingDefaulted",
      "outputs": [],
      "stateMutability": "nonpayable",
      "type": "function"
    },
    {
      "inputs": [
        {
          "internalType": "uint256",
          "name": "shares",
          "type": "uint256"
        },
        {
          "internalType": "address",
          "name": "receiver",
          "type": "address"
        },
        {
          "internalType": "address",
          "name": "owner",
          "type": "address"
        }
      ],
      "name": "redeem",
      "outputs": [
        {
          "internalType": "uint256",
          "name": "",
          "type": "uint256"
        }
      ],
      "stateMutability": "nonpayable",
      "type": "function"
    },
    {
      "inputs": [],
      "name": "renounceOwnership",
      "outputs": [],
      "stateMutability": "nonpayable",
      "type": "function"
    },
    {
      "inputs": [
        {
          "internalType": "uint256",
          "name": "liquidationFee",
          "type": "uint256"
        }
      ],
      "name": "setLiquidationFee",
      "outputs": [],
      "stateMutability": "nonpayable",
      "type": "function"
    },
    {
      "inputs": [
        {
          "internalType": "uint256",
          "name": "liquidationPenalty",
          "type": "uint256"
        }
      ],
      "name": "setLiquidationPenalty",
      "outputs": [],
      "stateMutability": "nonpayable",
      "type": "function"
    },
    {
      "inputs": [
        {
          "internalType": "bool",
          "name": "paused",
          "type": "bool"
        }
      ],
      "name": "setPause",
      "outputs": [],
      "stateMutability": "nonpayable",
      "type": "function"
    },
    {
      "inputs": [
        {
          "internalType": "uint256",
          "name": "tvlSafeguard",
          "type": "uint256"
        }
      ],
      "name": "setTVLSafeguard",
      "outputs": [],
      "stateMutability": "nonpayable",
      "type": "function"
    },
    {
      "inputs": [],
      "name": "symbol",
      "outputs": [
        {
          "internalType": "string",
          "name": "",
          "type": "string"
        }
      ],
      "stateMutability": "view",
      "type": "function"
    },
    {
      "inputs": [],
      "name": "totalAssets",
      "outputs": [
        {
          "internalType": "uint256",
          "name": "",
          "type": "uint256"
        }
      ],
      "stateMutability": "view",
      "type": "function"
    },
    {
      "inputs": [],
      "name": "totalSupply",
      "outputs": [
        {
          "internalType": "uint256",
          "name": "",
          "type": "uint256"
        }
      ],
      "stateMutability": "view",
      "type": "function"
    },
    {
      "inputs": [
        {
          "internalType": "address",
          "name": "to",
          "type": "address"
        },
        {
          "internalType": "uint256",
          "name": "amount",
          "type": "uint256"
        }
      ],
      "name": "transfer",
      "outputs": [
        {
          "internalType": "bool",
          "name": "",
          "type": "bool"
        }
      ],
      "stateMutability": "nonpayable",
      "type": "function"
    },
    {
      "inputs": [
        {
          "internalType": "address",
          "name": "from",
          "type": "address"
        },
        {
          "internalType": "address",
          "name": "to",
          "type": "address"
        },
        {
          "internalType": "uint256",
          "name": "amount",
          "type": "uint256"
        }
      ],
      "name": "transferFrom",
      "outputs": [
        {
          "internalType": "bool",
          "name": "",
          "type": "bool"
        }
      ],
      "stateMutability": "nonpayable",
      "type": "function"
    },
    {
      "inputs": [
        {
          "internalType": "address",
          "name": "newOwner",
          "type": "address"
        }
      ],
      "name": "transferOwnership",
      "outputs": [],
      "stateMutability": "nonpayable",
      "type": "function"
    },
    {
      "inputs": [
        {
          "internalType": "address",
          "name": "to",
          "type": "address"
        },
        {
          "internalType": "uint256",
          "name": "amount",
          "type": "uint256"
        },
        {
          "internalType": "uint256",
          "name": "borrowRate",
          "type": "uint256"
        }
      ],
      "name": "transferUnderlying",
      "outputs": [],
      "stateMutability": "nonpayable",
      "type": "function"
    },
    {
      "inputs": [
        {
          "internalType": "uint256",
          "name": "assets",
          "type": "uint256"
        },
        {
          "internalType": "address",
          "name": "receiver",
          "type": "address"
        },
        {
          "internalType": "address",
          "name": "owner",
          "type": "address"
        }
      ],
      "name": "withdraw",
      "outputs": [
        {
          "internalType": "uint256",
          "name": "",
          "type": "uint256"
        }
      ],
      "stateMutability": "nonpayable",
      "type": "function"
    }
  ],
  "bytecode": "0x60c06040523480156200001157600080fd5b5060405162002a7238038062002a728339810160408190526200003491620005bc565b838383600362000045838262000741565b50600462000054828262000741565b5050506000806200006b83620001f860201b60201c565b915091508162000090576200008a620002dd60201b62000f1c1760201c565b62000092565b805b60ff1660a05250506001600160a01b0316608052620000b133620002e2565b856001600160a01b03166304d21cee6040518163ffffffff1660e01b8152600401602060405180830381865afa158015620000f0573d6000803e3d6000fd5b505050506040513d601f19601f820116820180604052508101906200011691906200080d565b6001600160a01b0316336001600160a01b0316146200018a5760405162461bcd60e51b815260206004820152602660248201527f52657365727665206d7573742062652063726561746564207468726f756768206044820152651b585c9ad95d60d21b606482015260840160405180910390fd5b600680546001600160a01b038089166001600160a01b03199283161790925560078054928716929091169190911790558051600c556020810151600d556040810151600e556060810151600f55620001e162000334565b620001ec85620002e2565b5050505050506200086c565b60408051600481526024810182526020810180516001600160e01b031663313ce56760e01b17905290516000918291829182916001600160a01b03871691620002419162000834565b600060405180830381855afa9150503d80600081146200027e576040519150601f19603f3d011682016040523d82523d6000602084013e62000283565b606091505b50915091508180156200029857506020815110155b15620002d057600081806020019051810190620002b6919062000852565b905060ff8111620002ce576001969095509350505050565b505b5060009485945092505050565b601290565b600580546001600160a01b038381166001600160a01b0319831681179093556040519116919082907f8be0079c531659141344cd1fd0a4f28419497f9722a3daafe3b4186f6b6457e090600090a35050565b600660009054906101000a90046001600160a01b03166001600160a01b0316635257b5666040518163ffffffff1660e01b8152600401602060405180830381865afa15801562000388573d6000803e3d6000fd5b505050506040513d601f19601f82011682018060405250810190620003ae91906200080d565b6001600160a01b03166366c57dca620003c662000436565b6008546040516001600160e01b031960e085901b16815260048101929092526024820152604401602060405180830381865afa1580156200040b573d6000803e3d6000fd5b505050506040513d601f19601f8201168201806040525081019062000431919062000852565b600955565b6007546040516370a0823160e01b81523060048201526000916001600160a01b0316906370a0823190602401602060405180830381865afa15801562000480573d6000803e3d6000fd5b505050506040513d601f19601f82011682018060405250810190620004a6919062000852565b905090565b6001600160a01b0381168114620004c157600080fd5b50565b634e487b7160e01b600052604160045260246000fd5b604051608081016001600160401b0381118282101715620004ff57620004ff620004c4565b60405290565b60005b838110156200052257818101518382015260200162000508565b50506000910152565b600082601f8301126200053d57600080fd5b81516001600160401b03808211156200055a576200055a620004c4565b604051601f8301601f19908116603f01168101908282118183101715620005855762000585620004c4565b816040528381528660208588010111156200059f57600080fd5b620005b284602083016020890162000505565b9695505050505050565b600080600080600080868803610120811215620005d857600080fd5b8751620005e581620004ab565b6020890151909750620005f881620004ab565b60408901519096506200060b81620004ab565b60608901519095506001600160401b03808211156200062957600080fd5b620006378b838c016200052b565b955060808a01519150808211156200064e57600080fd5b506200065d8a828b016200052b565b9350506080609f19820112156200067357600080fd5b506200067e620004da565b60a0880151815260c0880151602082015260e088015160408201526101008801516060820152809150509295509295509295565b600181811c90821680620006c757607f821691505b602082108103620006e857634e487b7160e01b600052602260045260246000fd5b50919050565b601f8211156200073c57600081815260208120601f850160051c81016020861015620007175750805b601f850160051c820191505b81811015620007385782815560010162000723565b5050505b505050565b81516001600160401b038111156200075d576200075d620004c4565b62000775816200076e8454620006b2565b84620006ee565b602080601f831160018114620007ad5760008415620007945750858301515b600019600386901b1c1916600185901b17855562000738565b600085815260208120601f198616915b82811015620007de57888601518255948401946001909101908401620007bd565b5085821015620007fd5787850151600019600388901b60f8161c191681555b5050505050600190811b01905550565b6000602082840312156200082057600080fd5b81516200082d81620004ab565b9392505050565b600082516200084881846020870162000505565b9190910192915050565b6000602082840312156200086557600080fd5b5051919050565b60805160a0516121d2620008a0600039600061034f01526000818161037b0152818161183401526118f401526121d26000f3fe608060405234801561001057600080fd5b506004361061028a5760003560e01c806394bf804d1161015c578063ba1c5e80116100ce578063dd62ed3e11610087578063dd62ed3e1461057d578063e2c6743914610590578063ef8b30f714610544578063f2fde38b14610598578063fbf41984146105ab578063fef0bec8146105b357600080fd5b8063ba1c5e8014610514578063bedb86fb1461051c578063c63d75b61461052f578063c6e6f59214610544578063ce96cb7714610557578063d905777e1461056a57600080fd5b8063a663f83011610120578063a663f830146104ad578063a880e68b146104c0578063a9059cbb146104c8578063b3d7f6b9146104db578063b460af94146104ee578063ba0876521461050157600080fd5b806394bf804d1461046457806395d89b4114610477578063a22586941461047f578063a457c2d714610492578063a4b84e0a146104a557600080fd5b806338d52e0f1161020057806365ec4176116101b957806365ec4176146103f45780636e553f651461040757806370a082311461041a578063715018a61461044357806384bdc9a81461044b5780638da5cb5b1461045357600080fd5b806338d52e0f1461037957806339509351146103b3578063402d267d146103c65780634a417a53146103d95780634cdad506146102bf578063545039c6146103e157600080fd5b806314a6bf0f1161025257806314a6bf0f1461030857806318160ddd146103105780631e522b291461031857806323b872dd146103205780632806a74314610333578063313ce5671461034857600080fd5b806301e1d1141461028f57806306fdde03146102aa57806307a2d13a146102bf578063095ea7b3146102d25780630a28a477146102f5575b600080fd5b6102976105c6565b6040519081526020015b60405180910390f35b6102b26105e2565b6040516102a19190611dcd565b6102976102cd366004611e00565b610674565b6102e56102e0366004611e2e565b610687565b60405190151581526020016102a1565b610297610303366004611e00565b61069f565b600854610297565b600254610297565b600c54610297565b6102e561032e366004611e5a565b6106ac565b610346610341366004611e00565b6106d2565b005b60405160ff7f00000000000000000000000000000000000000000000000000000000000000001681526020016102a1565b7f00000000000000000000000000000000000000000000000000000000000000005b6040516001600160a01b0390911681526020016102a1565b6102e56103c1366004611e2e565b6106df565b6102976103d4366004611e9b565b610701565b61029761071f565b6103466103ef366004611eb8565b61080c565b610346610402366004611e00565b610934565b610297610415366004611ef3565b610941565b610297610428366004611e9b565b6001600160a01b031660009081526020819052604090205490565b6103466109b4565b6102976109c8565b6005546001600160a01b031661039b565b610297610472366004611ef3565b610a04565b6102b2610a1e565b61034661048d366004611f23565b610a2d565b6102e56104a0366004611e2e565b610b3f565b600e54610297565b6103466104bb366004611eb8565b610bc5565b600f54610297565b6102e56104d6366004611e2e565b610cc5565b6102976104e9366004611e00565b610cd3565b6102976104fc366004611f58565b610ce0565b61029761050f366004611f58565b610d5c565b600954610297565b61034661052a366004611fa8565b610dd0565b61029761053d366004611e9b565b5060001990565b610297610552366004611e00565b610deb565b610297610565366004611e9b565b610df8565b610297610578366004611e9b565b610e1c565b61029761058b366004611fc5565b610e3a565b610297610e65565b6103466105a6366004611e9b565b610e96565b600d54610297565b6103466105c1366004611e00565b610f0f565b60006105d0610e65565b6008546105dd9190612009565b905090565b6060600380546105f19061201c565b80601f016020809104026020016040519081016040528092919081815260200182805461061d9061201c565b801561066a5780601f1061063f5761010080835404028352916020019161066a565b820191906000526020600020905b81548152906001019060200180831161064d57829003601f168201915b5050505050905090565b6000610681826000610f21565b92915050565b600033610695818585610f54565b5060019392505050565b6000610681826001611078565b6000336106ba8582856110aa565b6106c585858561111e565b60019150505b9392505050565b6106da6112c2565b600c55565b6000336106958185856106f28383610e3a565b6106fc9190612009565b610f54565b600061070b61131c565b610716576000610681565b60001992915050565b6006546040805163292bdab360e11b815290516000926001600160a01b031691635257b5669160048083019260209291908290030181865afa158015610769573d6000803e3d6000fd5b505050506040513d601f19601f8201168201806040525081019061078d9190612056565b6001600160a01b03166385c963066107a3610e65565b6008546040516001600160e01b031960e085901b168152600481019290925260248201526044015b602060405180830381865afa1580156107e8573d6000803e3d6000fd5b505050506040513d601f19601f820116820180604052508101906105dd9190612073565b600660009054906101000a90046001600160a01b03166001600160a01b03166304d21cee6040518163ffffffff1660e01b8152600401602060405180830381865afa15801561085f573d6000803e3d6000fd5b505050506040513d601f19601f820116820180604052508101906108839190612056565b6001600160a01b0316336001600160a01b0316146108bc5760405162461bcd60e51b81526004016108b39061208c565b60405180910390fd5b600b5460ff16156108df5760405162461bcd60e51b81526004016108b3906120c3565b61090284306108ee8487612009565b6007546001600160a01b0316929190611336565b61090e600084846113a1565b826008600082825461092091906120eb565b9091555061092e905061143c565b50505050565b61093c6112c2565b600f55565b600061094c82610701565b83111561099b5760405162461bcd60e51b815260206004820152601e60248201527f455243343632363a206465706f736974206d6f7265207468616e206d6178000060448201526064016108b3565b60006109a684610deb565b90506106cb33848684611536565b6109bc6112c2565b6109c660006115d6565b565b600080806109d46105c6565b11156109ff576109e26105c6565b600854600a546109f291906120fe565b6109fc919061212b565b90505b919050565b600080610a1084610cd3565b90506106cb33848387611536565b6060600480546105f19061201c565b600660009054906101000a90046001600160a01b03166001600160a01b03166304d21cee6040518163ffffffff1660e01b8152600401602060405180830381865afa158015610a80573d6000803e3d6000fd5b505050506040513d601f19601f82011682018060405250810190610aa49190612056565b6001600160a01b0316336001600160a01b031614610ad45760405162461bcd60e51b81526004016108b39061208c565b600b5460ff1615610af75760405162461bcd60e51b81526004016108b3906120c3565b600754610b0e906001600160a01b03168484611628565b610b1a600183836113a1565b8160086000828254610b2c9190612009565b90915550610b3a905061143c565b505050565b60003381610b4d8286610e3a565b905083811015610bad5760405162461bcd60e51b815260206004820152602560248201527f45524332303a2064656372656173656420616c6c6f77616e63652062656c6f77604482015264207a65726f60d81b60648201526084016108b3565b610bba8286868403610f54565b506001949350505050565b600660009054906101000a90046001600160a01b03166001600160a01b03166304d21cee6040518163ffffffff1660e01b8152600401602060405180830381865afa158015610c18573d6000803e3d6000fd5b505050506040513d601f19601f82011682018060405250810190610c3c9190612056565b6001600160a01b0316336001600160a01b031614610c6c5760405162461bcd60e51b81526004016108b39061208c565b600b5460ff1615610c8f5760405162461bcd60e51b81526004016108b3906120c3565b600754610ca7906001600160a01b0316853086611336565b610cb3600082846113a1565b806008600082825461092091906120eb565b60003361069581858561111e565b6000610681826001610f21565b6000610ceb82610df8565b841115610d3a5760405162461bcd60e51b815260206004820152601f60248201527f455243343632363a207769746864726177206d6f7265207468616e206d61780060448201526064016108b3565b6000610d458561069f565b9050610d543385858885611658565b949350505050565b6000610d6782610e1c565b841115610db65760405162461bcd60e51b815260206004820152601d60248201527f455243343632363a2072656465656d206d6f7265207468616e206d617800000060448201526064016108b3565b6000610dc185610674565b9050610d543385858489611658565b610dd86112c2565b600b805460ff1916911515919091179055565b6000610681826000611078565b6001600160a01b038116600090815260208190526040812054610681906000610f21565b6001600160a01b038116600090815260208190526040812054610681565b6001600160a01b03918216600090815260016020908152604080832093909416825291909152205490565b6007546040516370a0823160e01b81523060048201526000916001600160a01b0316906370a08231906024016107cb565b610e9e6112c2565b6001600160a01b038116610f035760405162461bcd60e51b815260206004820152602660248201527f4f776e61626c653a206e6577206f776e657220697320746865207a65726f206160448201526564647265737360d01b60648201526084016108b3565b610f0c816115d6565b50565b610f176112c2565b600d55565b601290565b600080610f2d60025490565b90508015610f4e57610f49610f406105c6565b85908386611700565b610d54565b83610d54565b6001600160a01b038316610fb65760405162461bcd60e51b8152602060048201526024808201527f45524332303a20617070726f76652066726f6d20746865207a65726f206164646044820152637265737360e01b60648201526084016108b3565b6001600160a01b0382166110175760405162461bcd60e51b815260206004820152602260248201527f45524332303a20617070726f766520746f20746865207a65726f206164647265604482015261737360f01b60648201526084016108b3565b6001600160a01b0383811660008181526001602090815260408083209487168084529482529182902085905590518481527f8c5be1e5ebec7d5bd14f71427d1e84f3dd0314c0f7b2291e5b200ac8c7c3b925910160405180910390a3505050565b60008061108460025490565b9050831580611091575080155b610f4e57610f49816110a16105c6565b86919086611700565b60006110b68484610e3a565b9050600019811461092e57818110156111115760405162461bcd60e51b815260206004820152601d60248201527f45524332303a20696e73756666696369656e7420616c6c6f77616e636500000060448201526064016108b3565b61092e8484848403610f54565b6001600160a01b0383166111825760405162461bcd60e51b815260206004820152602560248201527f45524332303a207472616e736665722066726f6d20746865207a65726f206164604482015264647265737360d81b60648201526084016108b3565b6001600160a01b0382166111e45760405162461bcd60e51b815260206004820152602360248201527f45524332303a207472616e7366657220746f20746865207a65726f206164647260448201526265737360e81b60648201526084016108b3565b6001600160a01b0383166000908152602081905260409020548181101561125c5760405162461bcd60e51b815260206004820152602660248201527f45524332303a207472616e7366657220616d6f756e7420657863656564732062604482015265616c616e636560d01b60648201526084016108b3565b6001600160a01b03848116600081815260208181526040808320878703905593871680835291849020805487019055925185815290927fddf252ad1be2c89b69c2b068fc378daa952ba7f163c4a11628f55a4df523b3ef910160405180910390a361092e565b6005546001600160a01b031633146109c65760405162461bcd60e51b815260206004820181905260248201527f4f776e61626c653a2063616c6c6572206973206e6f7420746865206f776e657260448201526064016108b3565b6000806113276105c6565b11806105dd5750506002541590565b6040516001600160a01b038085166024830152831660448201526064810182905261092e9085906323b872dd60e01b906084015b60408051601f198184030181529190526020810180516001600160e01b03166001600160e01b03199093169290921790915261175d565b82156113eb57816008546113b59190612009565b6113bf82846120fe565b600a546008546113cf91906120fe565b6113d99190612009565b6113e3919061212b565b600a55505050565b816008546113f991906120eb565b60000361140a576000600a55505050565b8160085461141891906120eb565b61142282846120fe565b600a5460085461143291906120fe565b6113d991906120eb565b600660009054906101000a90046001600160a01b03166001600160a01b0316635257b5666040518163ffffffff1660e01b8152600401602060405180830381865afa15801561148f573d6000803e3d6000fd5b505050506040513d601f19601f820116820180604052508101906114b39190612056565b6001600160a01b03166366c57dca6114c9610e65565b6008546040516001600160e01b031960e085901b16815260048101929092526024820152604401602060405180830381865afa15801561150d573d6000803e3d6000fd5b505050506040513d601f19601f820116820180604052508101906115319190612073565b600955565b600b5460ff16156115595760405162461bcd60e51b81526004016108b3906120c3565b60405163521f866b60e11b81523060048201526024810183905273__$5201a97c05ba6aa659e2f36a933dd51801$__9063a43f0cd69060440160006040518083038186803b1580156115aa57600080fd5b505af41580156115be573d6000803e3d6000fd5b505050506115ce8484848461182f565b61092e61143c565b600580546001600160a01b038381166001600160a01b0319831681179093556040519116919082907f8be0079c531659141344cd1fd0a4f28419497f9722a3daafe3b4186f6b6457e090600090a35050565b6040516001600160a01b038316602482015260448101829052610b3a90849063a9059cbb60e01b9060640161136a565b600b5460ff161561167b5760405162461bcd60e51b81526004016108b3906120c3565b60405163521f866b60e11b81523060048201526024810183905273__$5201a97c05ba6aa659e2f36a933dd51801$__9063a43f0cd69060440160006040518083038186803b1580156116cc57600080fd5b505af41580156116e0573d6000803e3d6000fd5b505050506116f185858585856118c1565b6116f961143c565b5050505050565b60008061170e868686611981565b905060018360028111156117245761172461214d565b14801561174157506000848061173c5761173c612115565b868809115b1561175457611751600182612009565b90505b95945050505050565b60006117b2826040518060400160405280602081526020017f5361666545524332303a206c6f772d6c6576656c2063616c6c206661696c6564815250856001600160a01b0316611a309092919063ffffffff16565b805190915015610b3a57808060200190518101906117d09190612163565b610b3a5760405162461bcd60e51b815260206004820152602a60248201527f5361666545524332303a204552433230206f7065726174696f6e20646964206e6044820152691bdd081cdd58d8d9595960b21b60648201526084016108b3565b61185b7f0000000000000000000000000000000000000000000000000000000000000000853085611336565b6118658382611a3f565b826001600160a01b0316846001600160a01b03167fdcbc1c05240f31ff3ad067ef1ee35ce4997762752e3a095284754544f4c709d784846040516118b3929190918252602082015260400190565b60405180910390a350505050565b826001600160a01b0316856001600160a01b0316146118e5576118e58386836110aa565b6118ef8382611afe565b61191a7f00000000000000000000000000000000000000000000000000000000000000008584611628565b826001600160a01b0316846001600160a01b0316866001600160a01b03167ffbde797d201c681b91056529119e0b02407c7bb96a4a2c75c01fc9667232c8db8585604051611972929190918252602082015260400190565b60405180910390a45050505050565b60008080600019858709858702925082811083820303915050806000036119bb578382816119b1576119b1612115565b04925050506106cb565b8084116119c757600080fd5b60008486880960026001871981018816978890046003810283188082028403028082028403028082028403028082028403028082028403029081029092039091026000889003889004909101858311909403939093029303949094049190911702949350505050565b6060610d548484600085611c30565b6001600160a01b038216611a955760405162461bcd60e51b815260206004820152601f60248201527f45524332303a206d696e7420746f20746865207a65726f20616464726573730060448201526064016108b3565b8060026000828254611aa79190612009565b90915550506001600160a01b038216600081815260208181526040808320805486019055518481527fddf252ad1be2c89b69c2b068fc378daa952ba7f163c4a11628f55a4df523b3ef910160405180910390a35050565b6001600160a01b038216611b5e5760405162461bcd60e51b815260206004820152602160248201527f45524332303a206275726e2066726f6d20746865207a65726f206164647265736044820152607360f81b60648201526084016108b3565b6001600160a01b03821660009081526020819052604090205481811015611bd25760405162461bcd60e51b815260206004820152602260248201527f45524332303a206275726e20616d6f756e7420657863656564732062616c616e604482015261636560f01b60648201526084016108b3565b6001600160a01b0383166000818152602081815260408083208686039055600280548790039055518581529192917fddf252ad1be2c89b69c2b068fc378daa952ba7f163c4a11628f55a4df523b3ef910160405180910390a3505050565b606082471015611c915760405162461bcd60e51b815260206004820152602660248201527f416464726573733a20696e73756666696369656e742062616c616e636520666f6044820152651c8818d85b1b60d21b60648201526084016108b3565b600080866001600160a01b03168587604051611cad9190612180565b60006040518083038185875af1925050503d8060008114611cea576040519150601f19603f3d011682016040523d82523d6000602084013e611cef565b606091505b5091509150611d0087838387611d0b565b979650505050505050565b60608315611d7a578251600003611d73576001600160a01b0385163b611d735760405162461bcd60e51b815260206004820152601d60248201527f416464726573733a2063616c6c20746f206e6f6e2d636f6e747261637400000060448201526064016108b3565b5081610d54565b610d548383815115611d8f5781518083602001fd5b8060405162461bcd60e51b81526004016108b39190611dcd565b60005b83811015611dc4578181015183820152602001611dac565b50506000910152565b6020815260008251806020840152611dec816040850160208701611da9565b601f01601f19169190910160400192915050565b600060208284031215611e1257600080fd5b5035919050565b6001600160a01b0381168114610f0c57600080fd5b60008060408385031215611e4157600080fd5b8235611e4c81611e19565b946020939093013593505050565b600080600060608486031215611e6f57600080fd5b8335611e7a81611e19565b92506020840135611e8a81611e19565b929592945050506040919091013590565b600060208284031215611ead57600080fd5b81356106cb81611e19565b60008060008060808587031215611ece57600080fd5b8435611ed981611e19565b966020860135965060408601359560600135945092505050565b60008060408385031215611f0657600080fd5b823591506020830135611f1881611e19565b809150509250929050565b600080600060608486031215611f3857600080fd5b8335611f4381611e19565b95602085013595506040909401359392505050565b600080600060608486031215611f6d57600080fd5b833592506020840135611f7f81611e19565b91506040840135611f8f81611e19565b809150509250925092565b8015158114610f0c57600080fd5b600060208284031215611fba57600080fd5b81356106cb81611f9a565b60008060408385031215611fd857600080fd5b8235611fe381611e19565b91506020830135611f1881611e19565b634e487b7160e01b600052601160045260246000fd5b8082018082111561068157610681611ff3565b600181811c9082168061203057607f821691505b60208210810361205057634e487b7160e01b600052602260045260246000fd5b50919050565b60006020828403121561206857600080fd5b81516106cb81611e19565b60006020828403121561208557600080fd5b5051919050565b6020808252601f908201527f43616c6c657273206d757374206265204d61726b657420636f6e747261637400604082015260600190565b6020808252600e908201526d141bdbdb081a5cc81c185d5cd95960921b604082015260600190565b8181038181111561068157610681611ff3565b808202811582820484141761068157610681611ff3565b634e487b7160e01b600052601260045260246000fd5b60008261214857634e487b7160e01b600052601260045260246000fd5b500490565b634e487b7160e01b600052602160045260246000fd5b60006020828403121561217557600080fd5b81516106cb81611f9a565b60008251612192818460208701611da9565b919091019291505056fea2646970667358221220fdedb9e887d73fb6fec09b7aaaed3413b7d440587b8114ee995c4b86cc62d7ed64736f6c63430008110033",
  "linkReferences": {
    "contracts/libraries/logic/ValidationLogic.sol": {
      "ValidationLogic": [
        {
          "length": 20,
          "start": 7701
        },
        {
          "length": 20,
          "start": 7991
        }
      ]
    }
  },
  "deployedLinkReferences": {
    "contracts/libraries/logic/ValidationLogic.sol": {
      "ValidationLogic": [
        {
          "length": 20,
          "start": 5493
        },
        {
          "length": 20,
          "start": 5783
        }
      ]
    }
  }
}