{
  "_format": "hh-sol-artifact-1",
  "contractName": "LendingMarket",
  "sourceName": "contracts/protocol/Lending/LendingMarket.sol",
  "abi": [
    {
      "inputs": [],
      "stateMutability": "nonpayable",
      "type": "constructor"
    },
    {
      "anonymous": false,
      "inputs": [
        {
          "indexed": true,
          "internalType": "address",
          "name": "user",
          "type": "address"
        },
        {
          "indexed": true,
          "internalType": "uint256",
          "name": "loanId",
          "type": "uint256"
        },
        {
          "indexed": false,
          "internalType": "uint256",
          "name": "bid",
          "type": "uint256"
        }
      ],
      "name": "BidLiquidationAuction",
      "type": "event"
    },
    {
      "anonymous": false,
      "inputs": [
        {
          "indexed": true,
          "internalType": "address",
          "name": "user",
          "type": "address"
        },
        {
          "indexed": true,
          "internalType": "address",
          "name": "asset",
          "type": "address"
        },
        {
          "indexed": true,
          "internalType": "address",
          "name": "nftAddress",
          "type": "address"
        },
        {
          "indexed": false,
          "internalType": "uint256[]",
          "name": "nftTokenIds",
          "type": "uint256[]"
        },
        {
          "indexed": false,
          "internalType": "uint256",
          "name": "amount",
          "type": "uint256"
        }
      ],
      "name": "Borrow",
      "type": "event"
    },
    {
      "anonymous": false,
      "inputs": [
        {
          "indexed": true,
          "internalType": "address",
          "name": "user",
          "type": "address"
        },
        {
          "indexed": true,
          "internalType": "uint256",
          "name": "loanId",
          "type": "uint256"
        }
      ],
      "name": "ClaimLiquidation",
      "type": "event"
    },
    {
      "anonymous": false,
      "inputs": [
        {
          "indexed": true,
          "internalType": "address",
          "name": "lendingPool",
          "type": "address"
        }
      ],
      "name": "CreateLendingPool",
      "type": "event"
    },
    {
      "anonymous": false,
      "inputs": [
        {
          "indexed": true,
          "internalType": "address",
          "name": "user",
          "type": "address"
        },
        {
          "indexed": true,
          "internalType": "uint256",
          "name": "loanId",
          "type": "uint256"
        },
        {
          "indexed": false,
          "internalType": "uint256",
          "name": "bid",
          "type": "uint256"
        }
      ],
      "name": "CreateLiquidationAuction",
      "type": "event"
    },
    {
      "anonymous": false,
      "inputs": [
        {
          "indexed": false,
          "internalType": "uint8",
          "name": "version",
          "type": "uint8"
        }
      ],
      "name": "Initialized",
      "type": "event"
    },
    {
      "anonymous": false,
      "inputs": [
        {
          "indexed": true,
          "internalType": "address",
          "name": "previousOwner",
          "type": "address"
        },
        {
          "indexed": true,
          "internalType": "address",
          "name": "newOwner",
          "type": "address"
        }
      ],
      "name": "OwnershipTransferred",
      "type": "event"
    },
    {
      "anonymous": false,
      "inputs": [
        {
          "indexed": true,
          "internalType": "address",
          "name": "user",
          "type": "address"
        },
        {
          "indexed": true,
          "internalType": "uint256",
          "name": "loanId",
          "type": "uint256"
        }
      ],
      "name": "Repay",
      "type": "event"
    },
    {
      "anonymous": false,
      "inputs": [
        {
          "indexed": true,
          "internalType": "address",
          "name": "collection",
          "type": "address"
        },
        {
          "indexed": true,
          "internalType": "address",
          "name": "asset",
          "type": "address"
        },
        {
          "indexed": true,
          "internalType": "address",
          "name": "lendingPool",
          "type": "address"
        }
      ],
      "name": "SetLendingPool",
      "type": "event"
    },
    {
      "inputs": [
        {
          "internalType": "uint256",
          "name": "loanId",
          "type": "uint256"
        },
        {
          "internalType": "uint256",
          "name": "bid",
          "type": "uint256"
        },
        {
          "internalType": "bytes32",
          "name": "request",
          "type": "bytes32"
        },
        {
          "components": [
            {
              "internalType": "uint8",
              "name": "v",
              "type": "uint8"
            },
            {
              "internalType": "bytes32",
              "name": "r",
              "type": "bytes32"
            },
            {
              "internalType": "bytes32",
              "name": "s",
              "type": "bytes32"
            },
            {
              "internalType": "bytes32",
              "name": "request",
              "type": "bytes32"
            },
            {
              "internalType": "uint256",
              "name": "deadline",
              "type": "uint256"
            },
            {
              "internalType": "bytes",
              "name": "payload",
              "type": "bytes"
            }
          ],
          "internalType": "struct Trustus.TrustusPacket",
          "name": "packet",
          "type": "tuple"
        }
      ],
      "name": "bidLiquidationAuction",
      "outputs": [],
      "stateMutability": "nonpayable",
      "type": "function"
    },
    {
      "inputs": [
        {
          "internalType": "address",
          "name": "onBehalfOf",
          "type": "address"
        },
        {
          "internalType": "address",
          "name": "asset",
          "type": "address"
        },
        {
          "internalType": "uint256",
          "name": "amount",
          "type": "uint256"
        },
        {
          "internalType": "address",
          "name": "nftAddress",
          "type": "address"
        },
        {
          "internalType": "uint256[]",
          "name": "nftTokenIds",
          "type": "uint256[]"
        },
        {
          "internalType": "uint256",
          "name": "genesisNFTId",
          "type": "uint256"
        },
        {
          "internalType": "bytes32",
          "name": "request",
          "type": "bytes32"
        },
        {
          "components": [
            {
              "internalType": "uint8",
              "name": "v",
              "type": "uint8"
            },
            {
              "internalType": "bytes32",
              "name": "r",
              "type": "bytes32"
            },
            {
              "internalType": "bytes32",
              "name": "s",
              "type": "bytes32"
            },
            {
              "internalType": "bytes32",
              "name": "request",
              "type": "bytes32"
            },
            {
              "internalType": "uint256",
              "name": "deadline",
              "type": "uint256"
            },
            {
              "internalType": "bytes",
              "name": "payload",
              "type": "bytes"
            }
          ],
          "internalType": "struct Trustus.TrustusPacket",
          "name": "packet",
          "type": "tuple"
        }
      ],
      "name": "borrow",
      "outputs": [],
      "stateMutability": "nonpayable",
      "type": "function"
    },
    {
      "inputs": [
        {
          "internalType": "uint256",
          "name": "loanId",
          "type": "uint256"
        }
      ],
      "name": "claimLiquidation",
      "outputs": [],
      "stateMutability": "nonpayable",
      "type": "function"
    },
    {
      "inputs": [
        {
          "internalType": "address",
          "name": "collection",
          "type": "address"
        },
        {
          "internalType": "address",
          "name": "asset",
          "type": "address"
        }
      ],
      "name": "createLendingPool",
      "outputs": [
        {
          "internalType": "address",
          "name": "",
          "type": "address"
        }
      ],
      "stateMutability": "nonpayable",
      "type": "function"
    },
    {
      "inputs": [
        {
          "internalType": "uint256",
          "name": "loanId",
          "type": "uint256"
        },
        {
          "internalType": "uint256",
          "name": "bid",
          "type": "uint256"
        },
        {
          "internalType": "bytes32",
          "name": "request",
          "type": "bytes32"
        },
        {
          "components": [
            {
              "internalType": "uint8",
              "name": "v",
              "type": "uint8"
            },
            {
              "internalType": "bytes32",
              "name": "r",
              "type": "bytes32"
            },
            {
              "internalType": "bytes32",
              "name": "s",
              "type": "bytes32"
            },
            {
              "internalType": "bytes32",
              "name": "request",
              "type": "bytes32"
            },
            {
              "internalType": "uint256",
              "name": "deadline",
              "type": "uint256"
            },
            {
              "internalType": "bytes",
              "name": "payload",
              "type": "bytes"
            }
          ],
          "internalType": "struct Trustus.TrustusPacket",
          "name": "packet",
          "type": "tuple"
        }
      ],
      "name": "createLiquidationAuction",
      "outputs": [],
      "stateMutability": "nonpayable",
      "type": "function"
    },
    {
      "inputs": [],
      "name": "getDefaultPoolConfig",
      "outputs": [
        {
          "components": [
            {
              "internalType": "uint256",
              "name": "maxLiquidatorDiscount",
              "type": "uint256"
            },
            {
              "internalType": "uint256",
              "name": "auctionerFee",
              "type": "uint256"
            },
            {
              "internalType": "uint256",
              "name": "liquidationFee",
              "type": "uint256"
            },
            {
              "internalType": "uint256",
              "name": "maxUtilizationRate",
              "type": "uint256"
            }
          ],
          "internalType": "struct ConfigTypes.LendingPoolConfig",
          "name": "",
          "type": "tuple"
        }
      ],
      "stateMutability": "view",
      "type": "function"
    },
    {
      "inputs": [
        {
          "internalType": "address",
          "name": "collection",
          "type": "address"
        },
        {
          "internalType": "address",
          "name": "asset",
          "type": "address"
        }
      ],
      "name": "getLendingPool",
      "outputs": [
        {
          "internalType": "address",
          "name": "",
          "type": "address"
        }
      ],
      "stateMutability": "view",
      "type": "function"
    },
    {
      "inputs": [],
      "name": "getTVLSafeguard",
      "outputs": [
        {
          "internalType": "uint256",
          "name": "",
          "type": "uint256"
        }
      ],
      "stateMutability": "view",
      "type": "function"
    },
    {
      "inputs": [
        {
          "internalType": "contract IAddressesProvider",
          "name": "addressesProvider",
          "type": "address"
        },
        {
          "internalType": "uint256",
          "name": "tvlSafeguard",
          "type": "uint256"
        },
        {
          "components": [
            {
              "internalType": "uint256",
              "name": "maxLiquidatorDiscount",
              "type": "uint256"
            },
            {
              "internalType": "uint256",
              "name": "auctionerFee",
              "type": "uint256"
            },
            {
              "internalType": "uint256",
              "name": "liquidationFee",
              "type": "uint256"
            },
            {
              "internalType": "uint256",
              "name": "maxUtilizationRate",
              "type": "uint256"
            }
          ],
          "internalType": "struct ConfigTypes.LendingPoolConfig",
          "name": "defaultLendingPoolConfig",
          "type": "tuple"
        }
      ],
      "name": "initialize",
      "outputs": [],
      "stateMutability": "nonpayable",
      "type": "function"
    },
    {
      "inputs": [],
      "name": "owner",
      "outputs": [
        {
          "internalType": "address",
          "name": "",
          "type": "address"
        }
      ],
      "stateMutability": "view",
      "type": "function"
    },
    {
      "inputs": [],
      "name": "renounceOwnership",
      "outputs": [],
      "stateMutability": "nonpayable",
      "type": "function"
    },
    {
      "inputs": [
        {
          "internalType": "uint256",
          "name": "loanId",
          "type": "uint256"
        },
        {
          "internalType": "uint256",
          "name": "amount",
          "type": "uint256"
        }
      ],
      "name": "repay",
      "outputs": [],
      "stateMutability": "nonpayable",
      "type": "function"
    },
    {
      "inputs": [
        {
          "internalType": "address",
          "name": "collection",
          "type": "address"
        },
        {
          "internalType": "address",
          "name": "asset",
          "type": "address"
        },
        {
          "internalType": "address",
          "name": "pool",
          "type": "address"
        }
      ],
      "name": "setCollectionLendingPool",
      "outputs": [],
      "stateMutability": "nonpayable",
      "type": "function"
    },
    {
      "inputs": [
        {
          "components": [
            {
              "internalType": "uint256",
              "name": "maxLiquidatorDiscount",
              "type": "uint256"
            },
            {
              "internalType": "uint256",
              "name": "auctionerFee",
              "type": "uint256"
            },
            {
              "internalType": "uint256",
              "name": "liquidationFee",
              "type": "uint256"
            },
            {
              "internalType": "uint256",
              "name": "maxUtilizationRate",
              "type": "uint256"
            }
          ],
          "internalType": "struct ConfigTypes.LendingPoolConfig",
          "name": "poolConfig",
          "type": "tuple"
        }
      ],
      "name": "setDefaultPoolConfig",
      "outputs": [],
      "stateMutability": "nonpayable",
      "type": "function"
    },
    {
      "inputs": [
        {
          "internalType": "uint256",
          "name": "tvlSafeguard",
          "type": "uint256"
        }
      ],
      "name": "setTVLSafeguard",
      "outputs": [],
      "stateMutability": "nonpayable",
      "type": "function"
    },
    {
      "inputs": [
        {
          "internalType": "address",
          "name": "newOwner",
          "type": "address"
        }
      ],
      "name": "transferOwnership",
      "outputs": [],
      "stateMutability": "nonpayable",
      "type": "function"
    }
  ],
  "bytecode": "0x608080604052346100c1576000549060ff8260081c1661006f575060ff80821610610034575b60405161490690816100c78239f35b60ff90811916176000557f7f26b83ff96e1f2b6a682f133852f6798a09c465da95921460cefb3847402498602060405160ff8152a138610025565b62461bcd60e51b815260206004820152602760248201527f496e697469616c697a61626c653a20636f6e747261637420697320696e697469604482015266616c697a696e6760c81b6064820152608490fd5b600080fdfe6080604052600436101562000014575b600080fd5b60003560e01c806344fd4e37146200018257806365ec417614620001775780636c6911b7146200016c578063715018a61462000161578063732c800914620001565780637785c630146200014b5780638c7d2ebe14620001405780638da5cb5b1462000135578063934a8ed4146200012a578063a488f1b7146200011f578063a880e68b1462000114578063ac5a62181462000109578063b63ec97414620000fe578063d8aed14514620000f3578063f06cf02b14620000e85763f2fde38b14620000de57600080fd5b6200000f620011ba565b506200000f620010ce565b506200000f62000fbb565b506200000f62000f70565b506200000f62000e58565b506200000f62000dfc565b506200000f62000d9c565b506200000f62000d18565b506200000f62000cec565b506200000f62000bd8565b506200000f620005e1565b506200000f620004ce565b506200000f62000468565b506200000f620003c5565b506200000f620001f4565b506200000f6200019f565b6001600160a01b038116036200000f57565b50346200000f5760603660031901126200000f57620001f2600435620001c5816200018d565b602435620001d3816200018d565b60443591620001e2836200018d565b620001ec62001255565b62001f01565b005b50346200000f5760203660031901126200000f576200021262001255565b600435609955005b50634e487b7160e01b600052604160045260246000fd5b602081019081106001600160401b038211176200024d57604052565b620002576200021a565b604052565b6001600160401b0381116200024d57604052565b608081019081106001600160401b038211176200024d57604052565b60c081019081106001600160401b038211176200024d57604052565b606081019081106001600160401b038211176200024d57604052565b90601f801991011681019081106001600160401b038211176200024d57604052565b6040519060a082018281106001600160401b038211176200024d57604052565b604051906200031582620002a8565b565b6040519061012082018281106001600160401b038211176200024d57604052565b9080601f830112156200000f578135906001600160401b038211620003a6575b8160051b604051936020936200037185840187620002c4565b855283808601928201019283116200000f578301905b82821062000396575050505090565b8135815290830190830162000387565b620003b06200021a565b62000358565b908160c09103126200000f5790565b50346200000f576101003660031901126200000f57600435620003e8816200018d565b60243590620003f7826200018d565b6064359062000406826200018d565b6001600160401b03926084358481116200000f576200042a90369060040162000338565b60e4359485116200000f5762000449620001f2953690600401620003b6565b9360c4359360a435936044359162001422565b60009103126200000f57565b50346200000f57600080600319360112620004cb576200048762001255565b603380546001600160a01b0319811690915581906001600160a01b03167f8be0079c531659141344cd1fd0a4f28419497f9722a3daafe3b4186f6b6457e08280a380f35b80fd5b50346200000f5760203660031901126200000f5760043573__$965b9be9fc5ba89821c2195a8bf360e455$__60018060a01b03609a5416604051620005138162000231565b838152823b156200000f57604051639113366960e01b81526001600160a01b0392909216600483015251602482015290600090829060449082905af48015620005a4575b62000586575b50337f3c7d144304eb104ff177cb33b8f53ae73325ac0d7c7d88b2601085e9f3493b79600080a3005b80620005966200059d926200025c565b806200045c565b386200055d565b620005ae62001822565b62000557565b60409060031901126200000f57600435620005cf816200018d565b90602435620005de816200018d565b90565b50346200000f57620005f336620005b4565b9062000609620006038262001db3565b62001920565b609a546040805163cfeed18160e01b81526001600160a01b03928316939192600491602090620006a090839083906200068290828189818e5afa90811562000bc8575b60009162000ba6575b5089516375151b6360e01b81526001600160a01b038d168982019081529094859384928391602090910190565b0392165afa90811562000b96575b60009162000b74575b50620019b3565b620006f782620006ef620006e28a620006cb8960018060a01b03166000526097602052604060002090565b9060018060a01b0316600052602052604060002090565b546001600160a01b031690565b161562001a0a565b60335482906001600160a01b031681891697620007e288620007b48b8d600084518c6200076e6395d89b4160e01b92838152848184818a5afa90811562000b64575b859162000b47575b506001600160a01b038616600090815260986020526040902062000767905b5462001c5c565b9062001abf565b96518095819382525afa91821562000b37575b60009262000b05575b506001600160a01b03166000908152609860205260409020620007ad9062000760565b9062001b2e565b908b8b5195869561296a808801908882106001600160401b0383111762000af5575b62001f67893962001b91565b03906000f0801562000ae5575b1695818651809263095ea7b360e01b825281600081620008288d8b8301919091604081019260018060a01b031681526020600019910152565b03925af1801562000ad5575b62000ab3575b50609a546001600160a01b03168551620008a5836314d888d960e21b9283815281818981885afa90811562000aa3575b60009162000a81575b50895163e985e9c560e01b81526001600160a01b03909116888201908152306020820152909283918291604090910190565b0381888b165afa90811562000a71575b60009162000a3d575b501562000946575b620009428888620008f88c620008de84828d62001f01565b6001600160a01b0316600090815260986020526040902090565b62000904815462001bff565b905551918183927f2542f32ffb9d7022dcce911f06a04e1e188ce008c7842cbc0c6d00a6cb80389f600080a26001600160a01b031682526020820190565b0390f35b829085889a969a518094819382525afa91821562000a2d575b600092620009f9575b50501691823b156200000f578351631578b62760e11b81526001600160a01b0382169681019687526200094296620008f894620008de938893869391929091600091839182908490829060200103925af18015620009e9575b620009d2575b5094819850620008c6565b8062000596620009e2926200025c565b38620009c7565b620009f362001822565b620009c1565b62000a1d9250803d1062000a25575b62000a148183620002c4565b81019062001981565b388062000968565b503d62000a08565b62000a3762001822565b6200095f565b62000a629150843d861162000a69575b62000a598183620002c4565b81019062001999565b38620008be565b503d62000a4d565b62000a7b62001822565b620008b5565b62000a9c9150823d841162000a255762000a148183620002c4565b3862000873565b62000aad62001822565b6200086a565b62000acd90823d841162000a695762000a598183620002c4565b50386200083a565b62000adf62001822565b62000834565b62000aef62001822565b620007ef565b62000aff6200021a565b620007d6565b62000b2e6200076091620007ad93943d8091833e62000b258183620002c4565b81019062001a57565b9291506200078a565b62000b4162001822565b62000781565b62000b5d913d8091833e62000b258183620002c4565b3862000741565b62000b6e62001822565b62000739565b62000b8f9150833d851162000a695762000a598183620002c4565b3862000699565b62000ba062001822565b62000690565b62000bc19150833d851162000a255762000a148183620002c4565b3862000655565b62000bd262001822565b6200064c565b50346200000f5760c03660031901126200000f5760043562000bfa816200018d565b60803660431901126200000f5762000c586000549162000c3460ff8460081c16158094819562000cdd575b811562000cba575b50620012f7565b8262000c48600160ff196000541617600055565b62000c9f575b602435906200135b565b62000c5f57005b62000c7061ff001960005416600055565b604051600181527f7f26b83ff96e1f2b6a682f133852f6798a09c465da95921460cefb384740249890602090a1005b62000cb461010061ff00196000541617600055565b62000c4e565b303b1591508162000cce575b503862000c2d565b6001915060ff16143862000cc6565b600160ff821610915062000c25565b50346200000f5760003660031901126200000f576033546040516001600160a01b039091168152602090f35b50346200000f57600080600319360112620004cb576080906040906060825162000d428162000270565b82815282602082015282848201520152805162000d5f8162000270565b609b5491828252609c5460208301908152609d54908284019182526060609e54940193845282519485525160208501525190830152516060820152f35b50346200000f5760803660031901126200000f5760405162000dbe8162000270565b6004358152602081016024358152604082019060443582526060830192606435845262000dea62001255565b51609b5551609c5551609d5551609e55005b50346200000f5760003660031901126200000f576020609954604051908152f35b9060806003198301126200000f57600435916024359160443591606435906001600160401b0382116200000f57620005de91600401620003b6565b50346200000f5762000e6a3662000e1d565b62000e7462001874565b609a5473__$965b9be9fc5ba89821c2195a8bf360e455$__929062000ec5906001600160a01b03165b9262000ea8620002e6565b338152928760208501528660408501526060840152369062001609565b6080820152823b156200000f57604051638ca12ed560e01b81529260009284928391829162000ef89160048401620018cb565b03915af4801562000f60575b62000f49575b5060405190815233907f2933fa64baa79bd560e7bfa5dff7e9093741560d60eadd92285cbf6225ee36179080602081015b0390a3620001f26001606555565b806200059662000f59926200025c565b3862000f0a565b62000f6a62001822565b62000f04565b50346200000f57602062000fb162000f8836620005b4565b6001600160a01b0391821660009081526097855260408082209284168252602092909252209091565b5416604051908152f35b50346200000f5760403660031901126200000f5760043562000fdc62001874565b609a5473__$77c5a84c43428e206d5bf08427df63fefa$__906001600160a01b03166200100862000306565b3381528360208201526024356040820152823b156200000f5760408051634e0be51f60e11b81526001600160a01b03938416600482015282519093166024840152602082015160448401520151606482015290600090829060849082905af48015620010be575b620010a7575b50337f5c16de4f8b59bd9caf0f49a545f25819a895ed223294290b408242e72a594231600080a3620001f26001606555565b8062000596620010b7926200025c565b3862001075565b620010c862001822565b6200106f565b50346200000f57620010e03662000e1d565b620010ea62001874565b609a5473__$965b9be9fc5ba89821c2195a8bf360e455$__929062001118906001600160a01b031662000e9d565b6080820152823b156200000f5760405163b7f7479160e01b8152926000928492839182916200114b9160048401620018cb565b03915af48015620011aa575b62001193575b5060405190815233907fb426d1d8c1a5d04a33704d93058508396d26eddbf47fe1b0558c4e1448c24c1790806020810162000f3b565b8062000596620011a3926200025c565b386200115d565b620011b462001822565b62001157565b50346200000f5760203660031901126200000f57600435620011dc816200018d565b620011e662001255565b6001600160a01b038116156200120157620001f290620012ae565b60405162461bcd60e51b815260206004820152602660248201527f4f776e61626c653a206e6577206f776e657220697320746865207a65726f206160448201526564647265737360d01b6064820152608490fd5b6033546001600160a01b031633036200126a57565b606460405162461bcd60e51b815260206004820152602060248201527f4f776e61626c653a2063616c6c6572206973206e6f7420746865206f776e65726044820152fd5b603380546001600160a01b039283166001600160a01b0319821681179092559091167f8be0079c531659141344cd1fd0a4f28419497f9722a3daafe3b4186f6b6457e0600080a3565b15620012ff57565b60405162461bcd60e51b815260206004820152602e60248201527f496e697469616c697a61626c653a20636f6e747261637420697320616c72656160448201526d191e481a5b9a5d1a585b1a5e995960921b6064820152608490fd5b6200137960ff60005460081c166200137381620013c1565b620013c1565b6200138433620012ae565b60018060a01b03166bffffffffffffffffffffffff60a01b609a541617609a55609955604435609b55606435609c55608435609d5560a435609e55565b15620013c957565b60405162461bcd60e51b815260206004820152602b60248201527f496e697469616c697a61626c653a20636f6e7472616374206973206e6f74206960448201526a6e697469616c697a696e6760a81b6064820152608490fd5b60209082620014d5620014f7949a6200153b97969a7f5ad24af809b91037141dded9f0cdecfdda4acdd07a3724c10e0af52071842ee4999a6200146462001874565b609a54620014a7906001600160a01b031695620014976200148462000317565b338152986001600160a01b0316898b0152565b6001600160a01b03166040880152565b606086018d90526001600160a01b03891660808701528b60a087015260c086015260e0850152369062001609565b61010083015260405163a6b290dd60e01b815293849283926004840162001763565b038173__$77c5a84c43428e206d5bf08427df63fefa$__5af480156200157e575b62001549575b5060405191829160018060a01b038091169716953395836200182f565b0390a4620003156001606555565b6200156e9060203d811162001576575b620015658183620002c4565b81019062001687565b50386200151e565b503d62001559565b6200158862001822565b62001518565b6020906001600160401b038111620015ac575b601f01601f19160190565b620015b66200021a565b620015a1565b81601f820112156200000f57803590620015d6826200158e565b92620015e66040519485620002c4565b828452602083830101116200000f57816000926020809301838601378301015290565b919060c0838203126200000f576040519062001625826200028c565b8193803560ff811681036200000f5783526020810135602084015260408101356040840152606081013560608401526080810135608084015260a0810135916001600160401b0383116200000f5760a092620016829201620015bc565b910152565b908160209103126200000f575190565b90815180825260208080930193019160005b828110620016b8575050505090565b835185529381019392810192600101620016a9565b60005b838110620016e15750506000910152565b8181015183820152602001620016d0565b906020916200170d81518092818552858086019101620016cd565b601f01601f1916010190565b9060c060a0620005de9360ff8151168452602081015160208501526040810151604085015260608101516060850152608081015160808501520151918160a08201520190620016f2565b6001600160a01b03918216815260976020820152606060408201819052835190921691810191909152620005de919060208201516001600160a01b0316608082015260408201516001600160a01b031660a0820152606082015160c082015260808201516001600160a01b031660e082015260a082015161012092620017f761010092858486015261018085019062001697565b9360c08201519084015260e0810151610140840152015190610160605f198285030191015262001719565b506040513d6000823e3d90fd5b92919060408401604085528151809152606085019060208093019060005b848282106200185f5750505050930152565b8351855293840193909201916001016200184d565b60026065541462001886576002606555565b60405162461bcd60e51b815260206004820152601f60248201527f5265656e7472616e637947756172643a207265656e7472616e742063616c6c006044820152606490fd5b906080620005de9360e09260018060a01b03809116855260406020860152815116604085015260208101516060850152604081015182850152606081015160a085015201519160a060c0820152019062001719565b156200192857565b60405162461bcd60e51b815260206004820152602b60248201527f436f6c6c656374696f6e2061646472657373206973206e6f742045524337323160448201526a1031b7b6b83634b0b73a1760a91b6064820152608490fd5b908160209103126200000f5751620005de816200018d565b908160209103126200000f575180151581036200000f5790565b15620019bb57565b60405162461bcd60e51b815260206004820152602160248201527f556e6465726c79696e67204173736574206973206e6f7420737570706f7274656044820152601960fa1b6064820152608490fd5b1562001a1257565b60405162461bcd60e51b815260206004820152601b60248201527f4c656e64696e6720506f6f6c20616c72656164792065786973747300000000006044820152606490fd5b6020818303126200000f578051906001600160401b0382116200000f570181601f820112156200000f57805162001a8e816200158e565b9262001a9e6040519485620002c4565b818452602082840101116200000f57620005de9160208085019101620016cd565b603062000315919392936040519485916503632a7232a160d51b602084015262001af4815180926020602687019101620016cd565b820169204c656e64696e67202360b01b602682015262001b1e8251809360208785019101620016cd565b01036010810185520183620002c4565b60246200031591939293604051948591621b195360ea1b602084015262001b60815180926020602387019101620016cd565b8201602d60f81b602382015262001b818251809360208785019101620016cd565b01036004810185520183620002c4565b9594929162001bcc9262001bdb959260018060a01b0392838092168a52166020890152166040870152610120806060880152860190620016f2565b908482036080860152620016f2565b91609b5460a0820152609c5460c0820152609d5460e0820152610100609e54910152565b906001820180921162001c0e57565b634e487b7160e01b600052601160045260246000fd5b9062001c30826200158e565b62001c3f6040519182620002c4565b828152809262001c52601f19916200158e565b0190602036910137565b806000917a184f03e93ff9f4daa797ed6e38ed64bf6a1f0100000000000000008082101562001da4575b506d04ee2d6d415b85acef81000000008083101562001d94575b50662386f26fc100008083101562001d84575b506305f5e1008083101562001d74575b506127108083101562001d64575b50606482101562001d53575b600a8092101562001d48575b60019081602162001cfc82870162001c24565b95860101905b62001d0f575b5050505090565b600019019083906f181899199a1a9b1b9c1cb0b131b232b360811b8282061a83530491821562001d425791908262001d02565b62001d08565b916001019162001ce9565b919060646002910491019162001cdd565b6004919392049101913862001cd1565b6008919392049101913862001cc3565b6010919392049101913862001cb3565b6020919392049101913862001ca0565b60409350810491503862001c86565b6040519060208083018160006301ffc9a760e01b958684528660248201526024815262001de081620002a8565b51617530938685fa933d600051908662001e93575b508562001e88575b508462001e1e575b5050508162001e12575090565b620005de915062001e9f565b83945090600091839460405185810192835263ffffffff60e01b60248201526024815262001e4c81620002a8565b5192fa60005190913d8362001e7c575b50508162001e71575b50159038808062001e05565b905015153862001e65565b10159150388062001e5c565b151594503862001dfd565b84111595503862001df5565b6000602091604051838101906301ffc9a760e01b82526380ac58cd60e01b60248201526024815262001ed181620002a8565b5191617530fa6000513d8262001ef4575b508162001eed575090565b9050151590565b6020111591503862001ee2565b6001600160a01b03908116600081815260976020908152604080832095851680845295909152812080546001600160a01b03191695909316948517909255907f288817cea49f022db2036521d5e78e3cd16416913cf6a781d645930143dc31a49080a456fe60c06040908082523462000798576200296a80380380916200002282856200079d565b8339810181810391610120831262000798578051906001600160a01b038216820362000798576200005660208201620007c1565b81860151909490936001600160a01b0385168503620007985760608301516001600160401b03811162000798578162000091918501620007f2565b60808401519091906001600160401b0381116200079857608091620000b8918601620007f2565b92609f190112620007985786519260808401906001600160401b038211858310176200066a5790885260a0810151845260c0810151602085015260e081015184890152610100015160608401528051906001600160401b0382116200066a5760035490600182811c921680156200078d575b6020831014620006495781601f8493116200071b575b50602090601f83116001146200068c5760009262000680575b50508160011b916000199060031b1c1916176003555b8051906001600160401b0382116200066a5760045490600182811c921680156200065f575b6020831014620006495781601f849311620005d7575b50602090601f831160011462000548576000926200053c575b50508160011b916000199060031b1c1916176004555b620001e483620008a5565b901562000533575b60a05282608052620001fe336200085c565b84516302690e7760e11b81526020816004816001600160a01b0387165afa9081156200052857600091620004e6575b506001600160a01b031633036200048e57600680546001600160a01b039384166001600160a01b031991821681179092556007805494861694909116939093179092558051600c55602080820151600d5585820151600e55606090910151600f55845163292bdab360e11b81529291839060049082905afa9182156200043a5760009262000445575b5083516370a0823160e01b815230600482015290602090829060249082906001600160a01b03165afa80156200043a5760009062000401575b6008548551633362bee560e11b8152600481019290925260248201529160209150829060449082906001600160a01b03165afa908115620003f6576000916200039b575b50907fa4ecc9c1ce63bce38b008f9aa955334b99fa741c1dee15bf34ad19a4c1c9e1696020836200036d946009558551908152a16200085c565b51611ffe90816200096c8239608051818181610e0a0152818161182c0152611c90015260a05181610e530152f35b906020823d602011620003ed575b81620003b8602093836200079d565b81010312620003ea5750517fa4ecc9c1ce63bce38b008f9aa955334b99fa741c1dee15bf34ad19a4c1c9e16962000333565b80fd5b3d9150620003a9565b83513d6000823e3d90fd5b6020823d60201162000431575b816200041d602093836200079d565b81010312620003ea575060209051620002ef565b3d91506200040e565b84513d6000823e3d90fd5b90916020823d60201162000485575b8162000463602093836200079d565b81010312620003ea575060206200047c602492620007c1565b929150620002b6565b3d915062000454565b845162461bcd60e51b815260206004820152602b60248201527f4c656e64696e6720506f6f6c206d75737420626520637265617465642074687260448201526a1bdd59da081b585c9ad95d60aa1b6064820152608490fd5b906020823d6020116200051f575b8162000503602093836200079d565b81010312620003ea57506200051890620007c1565b386200022d565b3d9150620004f4565b86513d6000823e3d90fd5b506012620001ec565b015190503880620001c3565b6004600090815293507f8a35acfbc15ff81a39ae7d344fd709f28e8600b4aa8c65c6b64bfe7fe36bd19b91905b601f1984168510620005bb576001945083601f19811610620005a1575b505050811b01600455620001d9565b015160001960f88460031b161c1916905538808062000592565b8181015183556020948501946001909301929091019062000575565b60046000529091507f8a35acfbc15ff81a39ae7d344fd709f28e8600b4aa8c65c6b64bfe7fe36bd19b601f840160051c81016020851062000641575b90849392915b601f830160051c8201811062000631575050620001aa565b6000815585945060010162000619565b508062000613565b634e487b7160e01b600052602260045260246000fd5b91607f169162000194565b634e487b7160e01b600052604160045260246000fd5b01519050388062000159565b6003600090815293507fc2575a0e9e593c00f959f8c92f12db2869c3395a3b0502d05e2516446f71f85b91905b601f1984168510620006ff576001945083601f19811610620006e5575b505050811b016003556200016f565b015160001960f88460031b161c19169055388080620006d6565b81810151835560209485019460019093019290910190620006b9565b60036000529091507fc2575a0e9e593c00f959f8c92f12db2869c3395a3b0502d05e2516446f71f85b601f840160051c81016020851062000785575b90849392915b601f830160051c820181106200077557505062000140565b600081558594506001016200075d565b508062000757565b91607f16916200012a565b600080fd5b601f909101601f19168101906001600160401b038211908210176200066a57604052565b51906001600160a01b03821682036200079857565b6001600160401b0381116200066a57601f01601f191660200190565b919080601f8401121562000798578251906200080e82620007d6565b916200081e60405193846200079d565b808352602091828287010111620007985760005b8181106200084857508260009394955001015290565b858101830151848201840152820162000832565b600580546001600160a01b039283166001600160a01b0319821681179092559091167f8be0079c531659141344cd1fd0a4f28419497f9722a3daafe3b4186f6b6457e0600080a3565b6040805163313ce56760e01b60208201908152600482529293929181016001600160401b038111828210176200066a576040525160009384928392916001600160a01b03165afa3d1562000962573d906200090082620007d6565b916200091060405193846200079d565b82523d84602084013e5b8062000955575b6200092c575b508190565b60208180518101031262000951576020015160ff811162000927576001925060ff1690565b8280fd5b5060208151101562000921565b6060906200091a56fe6040608081526004908136101561001557600080fd5b600091823560e01c806301e1d1141461103057806306fdde0314610f3c57806307a2d13a14610c77578063095ea7b314610f125780630a28a47714610ef257806314a6bf0f14610ed357806318160ddd14610eb457806323b872dd14610e77578063313ce56714610e3957806338d52e0f14610df55780633950935114610da5578063402d267d14610d7e5780634a417a5314610c835780634cdad50614610c775780635170598d14610c1e578063545039c614610b9b5780636e553f6514610b1157806370a0823114610330578063715018a614610ab457806384bdc9a814610a595780638da5cb5b14610a3057806394bf804d146109d957806395d89b41146108d5578063a225869414610814578063a457c2d714610770578063a663f8301461069d578063a9059cbb1461066c578063b0d96580146105f2578063b3d7f6b9146105b1578063b460af94146104ff578063ba0876521461044e578063ba1c5e801461042f578063bedb86fb146103f8578063c63d75b6146103d1578063c6e6f592146102b3578063ce96cb771461036c578063d905777e14610330578063dd62ed3e146102e7578063e2c67439146102bf578063ef8b30f7146102b35763f2fde38b146101e5575b600080fd5b346102af5760203660031901126102af576101fe6110e0565b906102076111f6565b6001600160a01b0391821692831561025d575050600554826bffffffffffffffffffffffff60a01b821617600555167f8be0079c531659141344cd1fd0a4f28419497f9722a3daafe3b4186f6b6457e08380a380f35b906020608492519162461bcd60e51b8352820152602660248201527f4f776e61626c653a206e6577206f776e657220697320746865207a65726f206160448201526564647265737360d01b6064820152fd5b8280fd5b505050506101e06111d7565b5050346102e357816003193601126102e3576020906102dc6116e5565b9051908152f35b5080fd5b5050346102e357806003193601126102e357806020926103056110e0565b61030d6110f6565b6001600160a01b0391821683526001865283832091168252845220549051908152f35b5050346102e35760203660031901126102e3576020906102dc6103516110e0565b6001600160a01b031660009081526020819052604090205490565b5050346102e35760203660031901126102e3576020916001600160a01b036103926110e0565b16815280835281902054600254806103ad5750905b51908152f35b6103cb916103c56008546103bf6116e5565b9061124e565b90611662565b906103a7565b5050346102e35760203660031901126102e3576020906103ef6110e0565b50516000198152f35b8382346102e35760203660031901126102e357358015158091036102e35761041e6111f6565b60ff8019600b5416911617600b5580f35b5050346102e357816003193601126102e3576020906009549051908152f35b508290346102e35761045f366111a2565b9390919260018060a01b0385168252816020528582205484116104bc575050600254602094926103a79290918061049c5750819485915b33611b6c565b6104b4906104ae6008546103bf6116e5565b84611662565b948591610496565b606490602087519162461bcd60e51b8352820152601d60248201527f455243343632363a2072656465656d206d6f7265207468616e206d61780000006044820152fd5b5082346105ae5761050f366111a2565b6001600160a01b038116845260208490529285902054600254939491938061059757505b82116105545750602093918161054b6103a7936115ac565b94859233611b6c565b606490602086519162461bcd60e51b8352820152601f60248201527f455243343632363a207769746864726177206d6f7265207468616e206d6178006044820152fd5b6105a9916103c56008546103bf6116e5565b610533565b80fd5b50346102af5760203660031901126102af5760025460209350903590806105da57509051908152f35b6103cb916105ec6008546103bf6116e5565b90611618565b5050346102e357816003193601126102e357608091606082516106148161110c565b82815282602082015282848201520152805161062f8161110c565b600c5491828252600d5460208301908152600e54908284019182526060600f54940193845282519485525160208501525190830152516060820152f35b5050346102e357806003193601126102e35760209061069661068c6110e0565b6024359033611271565b5160018152f35b50346102af576106ac36611174565b60065486516302690e7760e11b8152929691959394936001600160a01b0393916020918391829087165afa9182156107675750928261070261071d94610723979461072b9a978c91610739575b50163314611df1565b61071160ff600b54161561175d565b6007541690309161193e565b82611f79565b600854611e3d565b600855610736611e4a565b80f35b61075a915060203d8111610760575b6107528183611152565b810190611dd2565b386106f9565b503d610748565b513d89823e3d90fd5b5082346105ae57826003193601126105ae5761078a6110e0565b918360243592338152600160205281812060018060a01b03861682526020522054908282106107c35760208561069685850387336113df565b608490602086519162461bcd60e51b8352820152602560248201527f45524332303a2064656372656173656420616c6c6f77616e63652062656c6f77604482015264207a65726f60d81b6064820152fd5b5090346102af5760603660031901126102af5761082f6110e0565b916024359160018060a01b0391602083600654168351928380926302690e7760e11b82525afa9182156108cc5750938261087b61089394869461072b988a916107395750163314611df1565b61088a60ff600b54161561175d565b60075416611d94565b6008546108c46108b46108a8600a5484611f66565b6103bf60443586611f66565b6108be848461124e565b90611658565b600a5561124e565b513d87823e3d90fd5b509190346102e357816003193601126102e357805191809380549160019083821c928285169485156109cf575b60209586861081146109bc578589529081156109985750600114610940575b61093c8787610932828c0383611152565b5191829182611053565b0390f35b81529295507f8a35acfbc15ff81a39ae7d344fd709f28e8600b4aa8c65c6b64bfe7fe36bd19b5b828410610985575050508261093c9461093292820101943880610921565b8054868501880152928601928101610967565b60ff19168887015250505050151560051b83010192506109328261093c3880610921565b634e487b7160e01b845260228352602484fd5b93607f1693610902565b509190346102e357806003193601126102e3576103a7602093356109fb6110f6565b60025490945080610a1157508080945b3361179a565b610a2990610a236008546103bf6116e5565b83611618565b8094610a0b565b5050346102e357816003193601126102e35760055490516001600160a01b039091168152602090f35b5050346102e357816003193601126102e35760209190600854610a83610a7d6116e5565b8261124e565b610a8f575b5051908152f35b610aad9192506108be610aa482600a54611f66565b916103bf6116e5565b9038610a88565b83346105ae57806003193601126105ae57610acd6111f6565b600580546001600160a01b0319811690915581906001600160a01b03167f8be0079c531659141344cd1fd0a4f28419497f9722a3daafe3b4186f6b6457e08280a380f35b5082346105ae57826003193601126105ae5750803590610b2f6110f6565b90610b38611579565b8311610b585750916103a7602093610b4f846115e2565b9384913361179a565b606490602085519162461bcd60e51b8352820152601e60248201527f455243343632363a206465706f736974206d6f7265207468616e206d617800006044820152fd5b50346102af57610baa36611174565b9193909460018060a01b0391602083600654168351928380926302690e7760e11b82525afa918215610767575092610c1683610bfc61071d95610723989561072b9b988d916107395750163314611df1565b610c0b60ff600b54161561175d565b60075416918761124e565b91309161193e565b5090346102af5760803660031901126102af57805191610c3d8361110c565b35825260208201906024358252820190604435825260608301926064358452610c646111f6565b51600c5551600d5551600e5551600f5580f35b505050506101e061109c565b509190346102e357816003193601126102e357600654815163292bdab360e11b815260209490916001600160a01b039190869084908390829086165afa928315610d7457908692918694610d52575b50604490610cde6116e5565b9260085495875196879586946342e4b18360e11b86528501526024840152165afa928315610d47578093610d15575b505051908152f35b909192508382813d8311610d40575b610d2e8183611152565b810103126105ae575051903880610d0d565b503d610d24565b8251903d90823e3d90fd5b6044919450610d6d90843d8611610760576107528183611152565b9390610cd2565b84513d87823e3d90fd5b5050346102e35760203660031901126102e357602090610d9c6110e0565b506102dc611579565b5050346102e357806003193601126102e357610696602092610dee610dc86110e0565b338352600186528483206001600160a01b0382168452865291849020546024359061124e565b90336113df565b5050346102e357816003193601126102e357517f00000000000000000000000000000000000000000000000000000000000000006001600160a01b03168152602090f35b5050346102e357816003193601126102e3576020905160ff7f0000000000000000000000000000000000000000000000000000000000000000168152f35b5050346102e35760603660031901126102e357602090610696610e986110e0565b610ea06110f6565b60443591610eaf8333836114e1565b611271565b5050346102e357816003193601126102e3576020906002549051908152f35b5050346102e357816003193601126102e3576020906008549051908152f35b5091346105ae5760203660031901126105ae57506102dc602092356115ac565b5050346102e357806003193601126102e357602090610696610f326110e0565b60243590336113df565b5090346102af57826003193601126102af57805191836003549060019082821c928281168015611026575b60209586861082146110135750848852908115610ff15750600114610f98575b61093c8686610932828b0383611152565b929550600383527fc2575a0e9e593c00f959f8c92f12db2869c3395a3b0502d05e2516446f71f85b5b828410610fde575050508261093c94610932928201019438610f87565b8054868501880152928601928101610fc1565b60ff191687860152505050151560051b83010192506109328261093c38610f87565b634e487b7160e01b845260229052602483fd5b93607f1693610f67565b5050346102e357816003193601126102e3576020906102dc6008546103bf6116e5565b6020808252825181830181905290939260005b82811061108857505060409293506000838284010152601f8019910116010190565b818101860151848201604001528501611066565b50346101e05760203660031901126101e057602060043560025480156000146110c957505b604051908152f35b6110db916103c56008546103bf6116e5565b6110c1565b600435906001600160a01b03821682036101e057565b602435906001600160a01b03821682036101e057565b6080810190811067ffffffffffffffff82111761112857604052565b634e487b7160e01b600052604160045260246000fd5b67ffffffffffffffff811161112857604052565b90601f8019910116810190811067ffffffffffffffff82111761112857604052565b60809060031901126101e0576004356001600160a01b03811681036101e05790602435906044359060643590565b60609060031901126101e057600435906001600160a01b039060243582811681036101e0579160443590811681036101e05790565b50346101e05760203660031901126101e05760206110c16004356115e2565b6005546001600160a01b0316330361120a57565b606460405162461bcd60e51b815260206004820152602060248201527f4f776e61626c653a2063616c6c6572206973206e6f7420746865206f776e65726044820152fd5b9190820180921161125b57565b634e487b7160e01b600052601160045260246000fd5b6001600160a01b0390811691821561138c571691821561133b576000828152806020526040812054918083106112e757604082827fddf252ad1be2c89b69c2b068fc378daa952ba7f163c4a11628f55a4df523b3ef958760209652828652038282205586815220818154019055604051908152a3565b60405162461bcd60e51b815260206004820152602660248201527f45524332303a207472616e7366657220616d6f756e7420657863656564732062604482015265616c616e636560d01b6064820152608490fd5b60405162461bcd60e51b815260206004820152602360248201527f45524332303a207472616e7366657220746f20746865207a65726f206164647260448201526265737360e81b6064820152608490fd5b60405162461bcd60e51b815260206004820152602560248201527f45524332303a207472616e736665722066726f6d20746865207a65726f206164604482015264647265737360d81b6064820152608490fd5b6001600160a01b0390811691821561149057169182156114405760207f8c5be1e5ebec7d5bd14f71427d1e84f3dd0314c0f7b2291e5b200ac8c7c3b925918360005260018252604060002085600052825280604060002055604051908152a3565b60405162461bcd60e51b815260206004820152602260248201527f45524332303a20617070726f766520746f20746865207a65726f206164647265604482015261737360f01b6064820152608490fd5b60405162461bcd60e51b8152602060048201526024808201527f45524332303a20617070726f76652066726f6d20746865207a65726f206164646044820152637265737360e01b6064820152608490fd5b9060018060a01b0380831660005260016020526040600020908216600052602052604060002054926000198403611519575b50505050565b8084106115345761152b9303916113df565b38808080611513565b60405162461bcd60e51b815260206004820152601d60248201527f45524332303a20696e73756666696369656e7420616c6c6f77616e63650000006044820152606490fd5b6115876008546103bf6116e5565b158015906115a2575b6000901561159f575060001990565b90565b5060025415611590565b600254811580156115da575b156115c1575090565b9061159f916115d46008546103bf6116e5565b91611618565b5080156115b8565b60025481158015611610575b156115f7575090565b9061159f9161160a6008546103bf6116e5565b91611662565b5080156115ee565b9190611625828285611662565b92821561164257096116345790565b6001810180911161125b5790565b634e487b7160e01b600052601260045260246000fd5b8115611642570490565b9160001982840992828102928380861095039480860395146116d857848311156101e0578291096001821901821680920460028082600302188083028203028083028203028083028203028083028203028083028203028092029003029360018380600003040190848311900302920304170290565b50509061159f9250611658565b6007546040516370a0823160e01b815230600482015290602090829060249082906001600160a01b03165afa90811561175157600091611723575090565b906020823d8211611749575b8161173c60209383611152565b810103126105ae57505190565b3d915061172f565b6040513d6000823e3d90fd5b1561176457565b60405162461bcd60e51b815260206004820152600e60248201526d141bdbdb081a5cc81c185d5cd95960921b6044820152606490fd5b600b54600095949392906117b19060ff161561175d565b6006546001600160a01b0390811692909173__$5201a97c05ba6aa659e2f36a933dd51801$__88813b156105ae5760408051632242276b60e11b81526001600160a01b03979097166004880152306024880152604487018890529591829060649082905af4801561193457611921575b5082906118508630857f000000000000000000000000000000000000000000000000000000000000000061193e565b169485156118dd57857fdcbc1c05240f31ff3ad067ef1ee35ce4997762752e3a095284754544f4c709d79596979861188a8360025461124e565b600255818152806020528581208381540190557fddf252ad1be2c89b69c2b068fc378daa952ba7f163c4a11628f55a4df523b3ef60208751858152a3835195865260208601521692a36118db611e4a565b565b835162461bcd60e51b815260206004820152601f60248201527f45524332303a206d696e7420746f20746865207a65726f2061646472657373006044820152606490fd5b9761192d84929961113e565b9790611821565b85513d8b823e3d90fd5b6040516323b872dd60e01b60208201526001600160a01b03928316602482015292909116604483015260648083019390935291815260a081019181831067ffffffffffffffff841117611128576118db926040525b60018060a01b0316906040516040810167ffffffffffffffff9082811082821117611128576040526020938483527f5361666545524332303a206c6f772d6c6576656c2063616c6c206661696c6564858401526000808587829751910182855af1903d15611acc573d928311611ab85790611a2e93929160405192611a2188601f19601f8401160185611152565b83523d868885013e611ad7565b805180611a3b5750505050565b818491810103126102e357820151908115918215036105ae5750611a6157808080611513565b6084906040519062461bcd60e51b82526004820152602a60248201527f5361666545524332303a204552433230206f7065726174696f6e20646964206e6044820152691bdd081cdd58d8d9595960b21b6064820152fd5b634e487b7160e01b85526041600452602485fd5b90611a2e9392506060915b91929015611b395750815115611aeb575090565b3b15611af45790565b60405162461bcd60e51b815260206004820152601d60248201527f416464726573733a2063616c6c20746f206e6f6e2d636f6e74726163740000006044820152606490fd5b825190915015611b4c5750805190602001fd5b60405162461bcd60e51b8152908190611b689060048301611053565b0390fd5b90949394929192600b5495611b8660ff600098161561175d565b6006546001600160a01b0390811692909173__$5201a97c05ba6aa659e2f36a933dd51801$__89813b156105ae5760408051633d08669d60e21b81526001600160a01b03979097166004880152306024880152604487018990529591829060649082905af48015611d8a57611d77575b50828716968184871696898803611d66575b5050508615611d1857868952886020528389205498818a10611cc9578188999a7ffbde797d201c681b91056529119e0b02407c7bb96a4a2c75c01fc9667232c8db97989983528260205203858220558160025403600255887fddf252ad1be2c89b69c2b068fc378daa952ba7f163c4a11628f55a4df523b3ef60208751858152a3611cb487837f0000000000000000000000000000000000000000000000000000000000000000611d94565b835196875260208701521693a46118db611e4a565b845162461bcd60e51b815260206004820152602260248201527f45524332303a206275726e20616d6f756e7420657863656564732062616c616e604482015261636560f01b6064820152608490fd5b835162461bcd60e51b815260206004820152602160248201527f45524332303a206275726e2066726f6d20746865207a65726f206164647265736044820152607360f81b6064820152608490fd5b611d6f926114e1565b388181611c08565b611d839099919961113e565b9738611bf6565b85513d8c823e3d90fd5b60405163a9059cbb60e01b60208201526001600160a01b0390921660248301526044808301939093529181526118db91611dcd8261110c565b611993565b908160209103126101e057516001600160a01b03811681036101e05790565b15611df857565b60405162461bcd60e51b815260206004820152601f60248201527f43616c6c657273206d757374206265204d61726b657420636f6e7472616374006044820152606490fd5b9190820391821161125b57565b60065460405163292bdab360e11b815291906020906001600160a01b039082908590600490829085165afa93841561175157600094611f45575b5081906044611e916116e5565b600854926040519788948593633362bee560e11b855260048501526024840152165afa92831561175157600093611ef4575b50827fa4ecc9c1ce63bce38b008f9aa955334b99fa741c1dee15bf34ad19a4c1c9e1699293600955604051908152a1565b8181813d8311611f3e575b611f098183611152565b81010312611f3a575192507fa4ecc9c1ce63bce38b008f9aa955334b99fa741c1dee15bf34ad19a4c1c9e169611ec3565b8380fd5b503d611eff565b82919450611f5f90823d8411610760576107528183611152565b9390611e84565b8181029291811591840414171561125b57565b9060085490611f888383611e3d565b611f96575050506000600a55565b611fc392611fbd6108be92611fb7611fb0600a5487611f66565b9184611f66565b90611e3d565b92611e3d565b600a5556fea26469706673582212203f77bc8a62f94e7e32c5b2e822325d81dedd43a8e53bd93a0f2bf375ea38857064736f6c63430008110033a26469706673582212206bb4d43310e4bf46cb803962e96a6fffd4d297651810609ff499593c08c170ba64736f6c63430008110033",
  "linkReferences": {
    "contracts/libraries/logic/BorrowLogic.sol": {
      "BorrowLogic": [
        {
          "length": 20,
          "start": 4264
        },
        {
          "length": 20,
          "start": 5570
        }
      ]
    },
    "contracts/libraries/logic/LiquidationLogic.sol": {
      "LiquidationLogic": [
        {
          "length": 20,
          "start": 1454
        },
        {
          "length": 20,
          "start": 3904
        },
        {
          "length": 20,
          "start": 4534
        }
      ]
    },
    "contracts/libraries/logic/ValidationLogic.sol": {
      "ValidationLogic": [
        {
          "length": 20,
          "start": 16734
        },
        {
          "length": 20,
          "start": 17715
        }
      ]
    }
  },
  "deployedLinkReferences": {
    "contracts/libraries/logic/BorrowLogic.sol": {
      "BorrowLogic": [
        {
          "length": 20,
          "start": 4065
        },
        {
          "length": 20,
          "start": 5371
        }
      ]
    },
    "contracts/libraries/logic/LiquidationLogic.sol": {
      "LiquidationLogic": [
        {
          "length": 20,
          "start": 1255
        },
        {
          "length": 20,
          "start": 3705
        },
        {
          "length": 20,
          "start": 4335
        }
      ]
    },
    "contracts/libraries/logic/ValidationLogic.sol": {
      "ValidationLogic": [
        {
          "length": 20,
          "start": 16535
        },
        {
          "length": 20,
          "start": 17516
        }
      ]
    }
  }
}