{
  "_format": "hh-sol-artifact-1",
  "contractName": "LendingGauge",
  "sourceName": "contracts/protocol/Gauges/LendingGauge.sol",
  "abi": [
    {
      "inputs": [
        {
          "internalType": "contract IAddressesProvider",
          "name": "addressProvider",
          "type": "address"
        },
        {
          "internalType": "address",
          "name": "lpToken_",
          "type": "address"
        }
      ],
      "stateMutability": "nonpayable",
      "type": "constructor"
    },
    {
      "inputs": [
        {
          "internalType": "address",
          "name": "user",
          "type": "address"
        }
      ],
      "name": "balanceOf",
      "outputs": [
        {
          "internalType": "uint256",
          "name": "",
          "type": "uint256"
        }
      ],
      "stateMutability": "view",
      "type": "function"
    },
    {
      "inputs": [],
      "name": "claim",
      "outputs": [
        {
          "internalType": "uint256",
          "name": "",
          "type": "uint256"
        }
      ],
      "stateMutability": "nonpayable",
      "type": "function"
    },
    {
      "inputs": [
        {
          "internalType": "uint256",
          "name": "amount",
          "type": "uint256"
        }
      ],
      "name": "deposit",
      "outputs": [],
      "stateMutability": "nonpayable",
      "type": "function"
    },
    {
      "inputs": [
        {
          "internalType": "address",
          "name": "user",
          "type": "address"
        }
      ],
      "name": "kick",
      "outputs": [],
      "stateMutability": "nonpayable",
      "type": "function"
    },
    {
      "inputs": [],
      "name": "lpToken",
      "outputs": [
        {
          "internalType": "address",
          "name": "",
          "type": "address"
        }
      ],
      "stateMutability": "view",
      "type": "function"
    },
    {
      "inputs": [],
      "name": "totalSupply",
      "outputs": [
        {
          "internalType": "uint256",
          "name": "",
          "type": "uint256"
        }
      ],
      "stateMutability": "view",
      "type": "function"
    },
    {
      "inputs": [
        {
          "internalType": "address",
          "name": "user",
          "type": "address"
        }
      ],
      "name": "userBoost",
      "outputs": [
        {
          "internalType": "uint256",
          "name": "",
          "type": "uint256"
        }
      ],
      "stateMutability": "view",
      "type": "function"
    },
    {
      "inputs": [
        {
          "internalType": "uint256",
          "name": "amount",
          "type": "uint256"
        }
      ],
      "name": "withdraw",
      "outputs": [],
      "stateMutability": "nonpayable",
      "type": "function"
    },
    {
      "inputs": [
        {
          "internalType": "address",
          "name": "user",
          "type": "address"
        }
      ],
      "name": "workingBalanceOf",
      "outputs": [
        {
          "internalType": "uint256",
          "name": "",
          "type": "uint256"
        }
      ],
      "stateMutability": "view",
      "type": "function"
    },
    {
      "inputs": [],
      "name": "workingSupply",
      "outputs": [
        {
          "internalType": "uint256",
          "name": "",
          "type": "uint256"
        }
      ],
      "stateMutability": "view",
      "type": "function"
    },
    {
      "inputs": [],
      "name": "writeTotalWeightHistory",
      "outputs": [],
      "stateMutability": "nonpayable",
      "type": "function"
    }
  ],
  "bytecode": "0x60806040523480156200001157600080fd5b5060405162001a4638038062001a4683398101604081905262000034916200010c565b600080546001600160a01b038085166001600160a01b0319928316178355600780549185169190921617905560408051602081019091529081526200007e90600690600162000087565b5050506200014b565b828054828255906000526020600020908101928215620000ca579160200282015b82811115620000ca578251829060ff16905591602001919060010190620000a8565b50620000d8929150620000dc565b5090565b5b80821115620000d85760008155600101620000dd565b6001600160a01b03811681146200010957600080fd5b50565b600080604083850312156200012057600080fd5b82516200012d81620000f3565b60208401519092506200014081620000f3565b809150509250929050565b6118eb806200015b6000396000f3fe608060405234801561001057600080fd5b50600436106100a95760003560e01c806370a082311161007157806370a082311461011457806387da75ef1461013d57806396c5517514610145578063b6b55f2514610158578063c8562f721461016b578063d02a2bee1461017357600080fd5b80630c7c97c7146100ae57806318160ddd146100d45780632e1a7d4d146100dc5780634e71d92d146100f15780635fcbd285146100f9575b600080fd5b6100c16100bc36600461160e565b610186565b6040519081526020015b60405180910390f35b6100c16101fc565b6100ef6100ea36600461162b565b61026e565b005b6100c1610326565b6007546040516001600160a01b0390911681526020016100cb565b6100c161012236600461160e565b6001600160a01b031660009081526001602052604090205490565b6100ef610bf0565b6100ef61015336600461160e565b610d36565b6100ef61016636600461162b565b610e30565b6005546100c1565b6100c161018136600461160e565b610e76565b6001600160a01b03811660009081526002602052604081205481036101ad57506000919050565b6001600160a01b038216600090815260026020526040902080546101d39060019061165a565b815481106101e3576101e361166d565b9060005260206000209060020201600001549050919050565b6007546040516370a0823160e01b81523060048201526000916001600160a01b0316906370a0823190602401602060405180830381865afa158015610245573d6000803e3d6000fd5b505050506040513d601f19601f820116820180604052508101906102699190611683565b905090565b336000908152600160205260409020548111156102de5760405162461bcd60e51b815260206004820152602360248201527f576974686472617720616d6f756e7420686967686572207468616e2062616c616044820152626e636560e81b60648201526084015b60405180910390fd5b33600090815260016020526040812080548392906102fd90849061165a565b9091555061030c905033610f0c565b600754610323906001600160a01b0316338361122a565b50565b600061033133610f0c565b60008060009054906101000a90046001600160a01b03166001600160a01b03166308b0308a6040518163ffffffff1660e01b8152600401602060405180830381865afa158015610385573d6000803e3d6000fd5b505050506040513d601f19601f820116820180604052508101906103a9919061169c565b905060008060009054906101000a90046001600160a01b03166001600160a01b03166358de9ade6040518163ffffffff1660e01b8152600401602060405180830381865afa1580156103ff573d6000803e3d6000fd5b505050506040513d601f19601f82011682018060405250810190610423919061169c565b33600090815260026020526040812054919250819003610447576000935050505090565b3360009081526004602052604081205490036105195733600090815260026020526040812080546001600160a01b03861692635487c577929161048c5761048c61166d565b9060005260206000209060020201600101546040518263ffffffff1660e01b81526004016104bc91815260200190565b602060405180830381865afa1580156104d9573d6000803e3d6000fd5b505050506040513d601f19601f820116820180604052508101906104fd9190611683565b6105089060016116b9565b336000908152600460205260409020555b60008060005b6032811015610adf5760046000336001600160a01b03166001600160a01b031681526020019081526020016000205491506105dd60405180608001604052806048815260200161186e60489139604051635487c57760e01b8152426004820152839085906001600160a01b038b1690635487c57790602401602060405180830381865afa1580156105b4573d6000803e3d6000fd5b505050506040513d601f19601f820116820180604052508101906105d89190611683565b611292565b604051635487c57760e01b81524260048201526001600160a01b03871690635487c57790602401602060405180830381865afa158015610621573d6000803e3d6000fd5b505050506040513d601f19601f820116820180604052508101906106459190611683565b821015610adf573360009081526002602090815260408083206003909252822054815481106106765761067661166d565b90600052602060002090600202016040518060400160405290816000820154815260200160018201548152505090506001856106b2919061165a565b33600090815260036020526040902054036107c5576000600684815481106106dc576106dc61166d565b906000526020600020015411156107a057600683815481106107005761070061166d565b60009182526020909120015481516040516315a8752360e31b8152306004820152602481018690526001600160a01b0389169063ad43a918906044016020604051808303816000875af115801561075b573d6000803e3d6000fd5b505050506040513d601f19601f8201168201806040525081019061077f9190611683565b61078991906116cc565b61079391906116e3565b61079d90856116b9565b93505b3360009081526004602052604081208054916107bb83611705565b9190505550610acc565b33600090815260026020908152604080832060039092528220546107ea9060016116b9565b815481106107fa576107fa61166d565b6000918252602091829020604080518082018252600293909302909101805483526001015482840152918401519151635487c57760e01b8152600481019290925291506001600160a01b03891690635487c57790602401602060405180830381865afa15801561086e573d6000803e3d6000fd5b505050506040513d601f19601f820116820180604052508101906108929190611683565b6020820151604051635487c57760e01b815260048101919091526001600160a01b038a1690635487c57790602401602060405180830381865afa1580156108dd573d6000803e3d6000fd5b505050506040513d601f19601f820116820180604052508101906109019190611683565b0361092b5733600090815260036020526040812080549161092183611705565b9190505550610aca565b6000600685815481106109405761094061166d565b90600052602060002001541115610a0457600684815481106109645761096461166d565b60009182526020909120015482516040516315a8752360e31b8152306004820152602481018790526001600160a01b038a169063ad43a918906044016020604051808303816000875af11580156109bf573d6000803e3d6000fd5b505050506040513d601f19601f820116820180604052508101906109e39190611683565b6109ed91906116cc565b6109f791906116e3565b610a0190866116b9565b94505b336000908152600460205260408120805491610a1f83611705565b90915550503360009081526004602081815260409283902054908401519251635487c57760e01b8152918201929092526001600160a01b038a1690635487c57790602401602060405180830381865afa158015610a80573d6000803e3d6000fd5b505050506040513d601f19601f82011682018060405250810190610aa49190611683565b03610aca57336000908152600360205260408120805491610ac483611705565b91905055505b505b5080610ad781611705565b91505061051f565b50610b0f6040518060400160405280600d81526020016c616d6f756e74546f436c61696d60981b815250836112e1565b60008054906101000a90046001600160a01b03166001600160a01b03166315b9ba5d6040518163ffffffff1660e01b8152600401602060405180830381865afa158015610b60573d6000803e3d6000fd5b505050506040513d601f19601f82011682018060405250810190610b84919061169c565b604051631ec9887760e11b8152336004820152602481018490526001600160a01b039190911690633d9310ee90604401600060405180830381600087803b158015610bce57600080fd5b505af1158015610be2573d6000803e3d6000fd5b509398975050505050505050565b60008060009054906101000a90046001600160a01b03166001600160a01b03166308b0308a6040518163ffffffff1660e01b8152600401602060405180830381865afa158015610c44573d6000803e3d6000fd5b505050506040513d601f19601f82011682018060405250810190610c68919061169c565b604051635487c57760e01b81524260048201526001600160a01b039190911690635487c57790602401602060405180830381865afa158015610cae573d6000803e3d6000fd5b505050506040513d601f19601f82011682018060405250810190610cd29190611683565b905060005b6080811015610d3257600654821115610d3257600554600680546001810182556000919091527ff652222313e28459528d920b65115c16c04f3efc82aaedc97be59f3f377c0d3f015580610d2a81611705565b915050610cd7565b5050565b60008060009054906101000a90046001600160a01b03166001600160a01b03166308b0308a6040518163ffffffff1660e01b8152600401602060405180830381865afa158015610d8a573d6000803e3d6000fd5b505050506040513d601f19601f82011682018060405250810190610dae919061169c565b60405163cbf9fe5f60e01b81526001600160a01b038481166004830152919091169063cbf9fe5f906024016040805180830381865afa158015610df5573d6000803e3d6000fd5b505050506040513d601f19601f82011682018060405250810190610e19919061171e565b60200151905042811015610d3257610d3282610f0c565b3360009081526001602052604081208054839290610e4f9084906116b9565b90915550610e5e905033610f0c565b600754610323906001600160a01b0316333084611326565b6001600160a01b0381166000908152600160205260408120548103610e9d57506000919050565b6001600160a01b0382166000908152600160208181526040808420546002909252909220805461271092610ed09161165a565b81548110610ee057610ee061166d565b906000526020600020906002020160000154610efc91906116cc565b610f0691906116e3565b92915050565b60008060009054906101000a90046001600160a01b03166001600160a01b03166308b0308a6040518163ffffffff1660e01b8152600401602060405180830381865afa158015610f60573d6000803e3d6000fd5b505050506040513d601f19601f82011682018060405250810190610f84919061169c565b6040516370a0823160e01b81526001600160a01b0384811660048301529192506000918316906370a0823190602401602060405180830381865afa158015610fd0573d6000803e3d6000fd5b505050506040513d601f19601f82011682018060405250810190610ff49190611683565b90506000826001600160a01b03166318160ddd6040518163ffffffff1660e01b81526004016020604051808303816000875af1158015611038573d6000803e3d6000fd5b505050506040513d601f19601f8201168201806040525081019061105c9190611683565b90506000611068610bf0565b8160000361108f57506001600160a01b038416600090815260016020526040902054611119565b6001600160a01b03851660009081526001602052604090205461111690612710846110b86101fc565b6110c4886113886116cc565b6110ce91906116cc565b6110d891906116e3565b6001600160a01b0389166000908152600160205260409020546110fd906113886116cc565b61110791906116b9565b61111191906116e3565b61135e565b90505b60408051808201909152600080825260208201526001600160a01b038616600090815260026020526040902054156111b1576001600160a01b038616600090815260026020526040902080546111719060019061165a565b815481106111815761118161166d565b90600052602060002090600202016040518060400160405290816000820154815260200160018201548152505090505b6040805180820190915282815242602082015281516005546111d49085906116b9565b6111de919061165a565b6005556001600160a01b0390961660009081526002602081815260408320805460018181018355918552938290208a519490930290920192835597909701519601959095555050505050565b6040516001600160a01b03831660248201526044810182905261128d90849063a9059cbb60e01b906064015b60408051601f198184030181529190526020810180516001600160e01b03166001600160e01b031990931692909217909152611376565b505050565b6112db848484846040516024016112ac94939291906117cb565b60408051601f198184030181529190526020810180516001600160e01b031663a7a8785360e01b179052611448565b50505050565b610d3282826040516024016112f79291906117fa565b60408051601f198184030181529190526020810180516001600160e01b0316632d839cb360e21b179052611448565b6040516001600160a01b03808516602483015283166044820152606481018290526112db9085906323b872dd60e01b90608401611256565b600081831061136d578161136f565b825b9392505050565b60006113cb826040518060400160405280602081526020017f5361666545524332303a206c6f772d6c6576656c2063616c6c206661696c6564815250856001600160a01b03166114699092919063ffffffff16565b80519091501561128d57808060200190518101906113e9919061181c565b61128d5760405162461bcd60e51b815260206004820152602a60248201527f5361666545524332303a204552433230206f7065726174696f6e20646964206e6044820152691bdd081cdd58d8d9595960b21b60648201526084016102d5565b80516a636f6e736f6c652e6c6f67602083016000808483855afa5050505050565b60606114788484600085611480565b949350505050565b6060824710156114e15760405162461bcd60e51b815260206004820152602660248201527f416464726573733a20696e73756666696369656e742062616c616e636520666f6044820152651c8818d85b1b60d21b60648201526084016102d5565b600080866001600160a01b031685876040516114fd919061183e565b60006040518083038185875af1925050503d806000811461153a576040519150601f19603f3d011682016040523d82523d6000602084013e61153f565b606091505b50915091506115508783838761155b565b979650505050505050565b606083156115ca5782516000036115c3576001600160a01b0385163b6115c35760405162461bcd60e51b815260206004820152601d60248201527f416464726573733a2063616c6c20746f206e6f6e2d636f6e747261637400000060448201526064016102d5565b5081611478565b61147883838151156115df5781518083602001fd5b8060405162461bcd60e51b81526004016102d5919061185a565b6001600160a01b038116811461032357600080fd5b60006020828403121561162057600080fd5b813561136f816115f9565b60006020828403121561163d57600080fd5b5035919050565b634e487b7160e01b600052601160045260246000fd5b81810381811115610f0657610f06611644565b634e487b7160e01b600052603260045260246000fd5b60006020828403121561169557600080fd5b5051919050565b6000602082840312156116ae57600080fd5b815161136f816115f9565b80820180821115610f0657610f06611644565b8082028115828204841417610f0657610f06611644565b60008261170057634e487b7160e01b600052601260045260246000fd5b500490565b60006001820161171757611717611644565b5060010190565b60006040828403121561173057600080fd5b6040516040810181811067ffffffffffffffff8211171561176157634e487b7160e01b600052604160045260246000fd5b604052825181526020928301519281019290925250919050565b60005b8381101561179657818101518382015260200161177e565b50506000910152565b600081518084526117b781602086016020860161177b565b601f01601f19169290920160200192915050565b6080815260006117de608083018761179f565b6020830195909552506040810192909252606090910152919050565b60408152600061180d604083018561179f565b90508260208301529392505050565b60006020828403121561182e57600080fd5b8151801515811461136f57600080fd5b6000825161185081846020870161177b565b9190910192915050565b60208152600061136f602083018461179f56fe69203d2025732c206e657874436c61696d656445706f6368203d202573202c20766f74696e67457363726f772e65706f636828626c6f636b2e74696d657374616d7029203d202573a2646970667358221220f044691d03d5fb7dac45d95aba5fb311a90074c2700de92b99b09799525dfddb64736f6c63430008110033",
  "linkReferences": {},
  "deployedLinkReferences": {}
}