{
  "_format": "hh-sol-artifact-1",
  "contractName": "LendingPool",
  "sourceName": "contracts/protocol/Lending/LendingPool.sol",
  "abi": [
    {
      "inputs": [
        {
          "internalType": "contract IAddressesProvider",
          "name": "addressProvider",
          "type": "address"
        },
        {
          "internalType": "address",
          "name": "owner",
          "type": "address"
        },
        {
          "internalType": "address",
          "name": "asset",
          "type": "address"
        },
        {
          "internalType": "string",
          "name": "name",
          "type": "string"
        },
        {
          "internalType": "string",
          "name": "symbol",
          "type": "string"
        },
        {
          "components": [
            {
              "internalType": "uint256",
              "name": "maxLiquidatorDiscount",
              "type": "uint256"
            },
            {
              "internalType": "uint256",
              "name": "auctioneerFee",
              "type": "uint256"
            },
            {
              "internalType": "uint256",
              "name": "liquidationFee",
              "type": "uint256"
            },
            {
              "internalType": "uint256",
              "name": "maxUtilizationRate",
              "type": "uint256"
            }
          ],
          "internalType": "struct ConfigTypes.LendingPoolConfig",
          "name": "lendingPoolConfig",
          "type": "tuple"
        }
      ],
      "stateMutability": "nonpayable",
      "type": "constructor"
    },
    {
      "anonymous": false,
      "inputs": [
        {
          "indexed": true,
          "internalType": "address",
          "name": "owner",
          "type": "address"
        },
        {
          "indexed": true,
          "internalType": "address",
          "name": "spender",
          "type": "address"
        },
        {
          "indexed": false,
          "internalType": "uint256",
          "name": "value",
          "type": "uint256"
        }
      ],
      "name": "Approval",
      "type": "event"
    },
    {
      "anonymous": false,
      "inputs": [
        {
          "indexed": true,
          "internalType": "address",
          "name": "sender",
          "type": "address"
        },
        {
          "indexed": true,
          "internalType": "address",
          "name": "owner",
          "type": "address"
        },
        {
          "indexed": false,
          "internalType": "uint256",
          "name": "assets",
          "type": "uint256"
        },
        {
          "indexed": false,
          "internalType": "uint256",
          "name": "shares",
          "type": "uint256"
        }
      ],
      "name": "Deposit",
      "type": "event"
    },
    {
      "anonymous": false,
      "inputs": [
        {
          "indexed": true,
          "internalType": "address",
          "name": "previousOwner",
          "type": "address"
        },
        {
          "indexed": true,
          "internalType": "address",
          "name": "newOwner",
          "type": "address"
        }
      ],
      "name": "OwnershipTransferred",
      "type": "event"
    },
    {
      "anonymous": false,
      "inputs": [
        {
          "indexed": true,
          "internalType": "address",
          "name": "from",
          "type": "address"
        },
        {
          "indexed": true,
          "internalType": "address",
          "name": "to",
          "type": "address"
        },
        {
          "indexed": false,
          "internalType": "uint256",
          "name": "value",
          "type": "uint256"
        }
      ],
      "name": "Transfer",
      "type": "event"
    },
    {
      "anonymous": false,
      "inputs": [
        {
          "indexed": false,
          "internalType": "uint256",
          "name": "borrowRate",
          "type": "uint256"
        }
      ],
      "name": "UpdatedBorrowRate",
      "type": "event"
    },
    {
      "anonymous": false,
      "inputs": [
        {
          "indexed": true,
          "internalType": "address",
          "name": "sender",
          "type": "address"
        },
        {
          "indexed": true,
          "internalType": "address",
          "name": "receiver",
          "type": "address"
        },
        {
          "indexed": true,
          "internalType": "address",
          "name": "owner",
          "type": "address"
        },
        {
          "indexed": false,
          "internalType": "uint256",
          "name": "assets",
          "type": "uint256"
        },
        {
          "indexed": false,
          "internalType": "uint256",
          "name": "shares",
          "type": "uint256"
        }
      ],
      "name": "Withdraw",
      "type": "event"
    },
    {
      "inputs": [
        {
          "internalType": "address",
          "name": "owner",
          "type": "address"
        },
        {
          "internalType": "address",
          "name": "spender",
          "type": "address"
        }
      ],
      "name": "allowance",
      "outputs": [
        {
          "internalType": "uint256",
          "name": "",
          "type": "uint256"
        }
      ],
      "stateMutability": "view",
      "type": "function"
    },
    {
      "inputs": [
        {
          "internalType": "address",
          "name": "spender",
          "type": "address"
        },
        {
          "internalType": "uint256",
          "name": "amount",
          "type": "uint256"
        }
      ],
      "name": "approve",
      "outputs": [
        {
          "internalType": "bool",
          "name": "",
          "type": "bool"
        }
      ],
      "stateMutability": "nonpayable",
      "type": "function"
    },
    {
      "inputs": [],
      "name": "asset",
      "outputs": [
        {
          "internalType": "address",
          "name": "",
          "type": "address"
        }
      ],
      "stateMutability": "view",
      "type": "function"
    },
    {
      "inputs": [
        {
          "internalType": "address",
          "name": "account",
          "type": "address"
        }
      ],
      "name": "balanceOf",
      "outputs": [
        {
          "internalType": "uint256",
          "name": "",
          "type": "uint256"
        }
      ],
      "stateMutability": "view",
      "type": "function"
    },
    {
      "inputs": [
        {
          "internalType": "uint256",
          "name": "shares",
          "type": "uint256"
        }
      ],
      "name": "convertToAssets",
      "outputs": [
        {
          "internalType": "uint256",
          "name": "assets",
          "type": "uint256"
        }
      ],
      "stateMutability": "view",
      "type": "function"
    },
    {
      "inputs": [
        {
          "internalType": "uint256",
          "name": "assets",
          "type": "uint256"
        }
      ],
      "name": "convertToShares",
      "outputs": [
        {
          "internalType": "uint256",
          "name": "shares",
          "type": "uint256"
        }
      ],
      "stateMutability": "view",
      "type": "function"
    },
    {
      "inputs": [],
      "name": "decimals",
      "outputs": [
        {
          "internalType": "uint8",
          "name": "",
          "type": "uint8"
        }
      ],
      "stateMutability": "view",
      "type": "function"
    },
    {
      "inputs": [
        {
          "internalType": "address",
          "name": "spender",
          "type": "address"
        },
        {
          "internalType": "uint256",
          "name": "subtractedValue",
          "type": "uint256"
        }
      ],
      "name": "decreaseAllowance",
      "outputs": [
        {
          "internalType": "bool",
          "name": "",
          "type": "bool"
        }
      ],
      "stateMutability": "nonpayable",
      "type": "function"
    },
    {
      "inputs": [
        {
          "internalType": "uint256",
          "name": "assets",
          "type": "uint256"
        },
        {
          "internalType": "address",
          "name": "receiver",
          "type": "address"
        }
      ],
      "name": "deposit",
      "outputs": [
        {
          "internalType": "uint256",
          "name": "",
          "type": "uint256"
        }
      ],
      "stateMutability": "nonpayable",
      "type": "function"
    },
    {
      "inputs": [],
      "name": "getBorrowRate",
      "outputs": [
        {
          "internalType": "uint256",
          "name": "",
          "type": "uint256"
        }
      ],
      "stateMutability": "view",
      "type": "function"
    },
    {
      "inputs": [],
      "name": "getDebt",
      "outputs": [
        {
          "internalType": "uint256",
          "name": "",
          "type": "uint256"
        }
      ],
      "stateMutability": "view",
      "type": "function"
    },
    {
      "inputs": [],
      "name": "getPoolConfig",
      "outputs": [
        {
          "components": [
            {
              "internalType": "uint256",
              "name": "maxLiquidatorDiscount",
              "type": "uint256"
            },
            {
              "internalType": "uint256",
              "name": "auctioneerFee",
              "type": "uint256"
            },
            {
              "internalType": "uint256",
              "name": "liquidationFee",
              "type": "uint256"
            },
            {
              "internalType": "uint256",
              "name": "maxUtilizationRate",
              "type": "uint256"
            }
          ],
          "internalType": "struct ConfigTypes.LendingPoolConfig",
          "name": "",
          "type": "tuple"
        }
      ],
      "stateMutability": "view",
      "type": "function"
    },
    {
      "inputs": [],
      "name": "getSupplyRate",
      "outputs": [
        {
          "internalType": "uint256",
          "name": "supplyRate",
          "type": "uint256"
        }
      ],
      "stateMutability": "view",
      "type": "function"
    },
    {
      "inputs": [],
      "name": "getUnderlyingBalance",
      "outputs": [
        {
          "internalType": "uint256",
          "name": "",
          "type": "uint256"
        }
      ],
      "stateMutability": "view",
      "type": "function"
    },
    {
      "inputs": [],
      "name": "getUtilizationRate",
      "outputs": [
        {
          "internalType": "uint256",
          "name": "",
          "type": "uint256"
        }
      ],
      "stateMutability": "view",
      "type": "function"
    },
    {
      "inputs": [
        {
          "internalType": "address",
          "name": "spender",
          "type": "address"
        },
        {
          "internalType": "uint256",
          "name": "addedValue",
          "type": "uint256"
        }
      ],
      "name": "increaseAllowance",
      "outputs": [
        {
          "internalType": "bool",
          "name": "",
          "type": "bool"
        }
      ],
      "stateMutability": "nonpayable",
      "type": "function"
    },
    {
      "inputs": [
        {
          "internalType": "address",
          "name": "",
          "type": "address"
        }
      ],
      "name": "maxDeposit",
      "outputs": [
        {
          "internalType": "uint256",
          "name": "",
          "type": "uint256"
        }
      ],
      "stateMutability": "view",
      "type": "function"
    },
    {
      "inputs": [
        {
          "internalType": "address",
          "name": "",
          "type": "address"
        }
      ],
      "name": "maxMint",
      "outputs": [
        {
          "internalType": "uint256",
          "name": "",
          "type": "uint256"
        }
      ],
      "stateMutability": "view",
      "type": "function"
    },
    {
      "inputs": [
        {
          "internalType": "address",
          "name": "owner",
          "type": "address"
        }
      ],
      "name": "maxRedeem",
      "outputs": [
        {
          "internalType": "uint256",
          "name": "",
          "type": "uint256"
        }
      ],
      "stateMutability": "view",
      "type": "function"
    },
    {
      "inputs": [
        {
          "internalType": "address",
          "name": "owner",
          "type": "address"
        }
      ],
      "name": "maxWithdraw",
      "outputs": [
        {
          "internalType": "uint256",
          "name": "",
          "type": "uint256"
        }
      ],
      "stateMutability": "view",
      "type": "function"
    },
    {
      "inputs": [
        {
          "internalType": "uint256",
          "name": "shares",
          "type": "uint256"
        },
        {
          "internalType": "address",
          "name": "receiver",
          "type": "address"
        }
      ],
      "name": "mint",
      "outputs": [
        {
          "internalType": "uint256",
          "name": "",
          "type": "uint256"
        }
      ],
      "stateMutability": "nonpayable",
      "type": "function"
    },
    {
      "inputs": [],
      "name": "name",
      "outputs": [
        {
          "internalType": "string",
          "name": "",
          "type": "string"
        }
      ],
      "stateMutability": "view",
      "type": "function"
    },
    {
      "inputs": [],
      "name": "owner",
      "outputs": [
        {
          "internalType": "address",
          "name": "",
          "type": "address"
        }
      ],
      "stateMutability": "view",
      "type": "function"
    },
    {
      "inputs": [
        {
          "internalType": "uint256",
          "name": "assets",
          "type": "uint256"
        }
      ],
      "name": "previewDeposit",
      "outputs": [
        {
          "internalType": "uint256",
          "name": "",
          "type": "uint256"
        }
      ],
      "stateMutability": "view",
      "type": "function"
    },
    {
      "inputs": [
        {
          "internalType": "uint256",
          "name": "shares",
          "type": "uint256"
        }
      ],
      "name": "previewMint",
      "outputs": [
        {
          "internalType": "uint256",
          "name": "",
          "type": "uint256"
        }
      ],
      "stateMutability": "view",
      "type": "function"
    },
    {
      "inputs": [
        {
          "internalType": "uint256",
          "name": "shares",
          "type": "uint256"
        }
      ],
      "name": "previewRedeem",
      "outputs": [
        {
          "internalType": "uint256",
          "name": "",
          "type": "uint256"
        }
      ],
      "stateMutability": "view",
      "type": "function"
    },
    {
      "inputs": [
        {
          "internalType": "uint256",
          "name": "assets",
          "type": "uint256"
        }
      ],
      "name": "previewWithdraw",
      "outputs": [
        {
          "internalType": "uint256",
          "name": "",
          "type": "uint256"
        }
      ],
      "stateMutability": "view",
      "type": "function"
    },
    {
      "inputs": [
        {
          "internalType": "address",
          "name": "from",
          "type": "address"
        },
        {
          "internalType": "uint256",
          "name": "amount",
          "type": "uint256"
        },
        {
          "internalType": "uint256",
          "name": "borrowRate",
          "type": "uint256"
        },
        {
          "internalType": "uint256",
          "name": "interest",
          "type": "uint256"
        }
      ],
      "name": "receiveUnderlying",
      "outputs": [],
      "stateMutability": "nonpayable",
      "type": "function"
    },
    {
      "inputs": [
        {
          "internalType": "address",
          "name": "from",
          "type": "address"
        },
        {
          "internalType": "uint256",
          "name": "amount",
          "type": "uint256"
        },
        {
          "internalType": "uint256",
          "name": "borrowRate",
          "type": "uint256"
        },
        {
          "internalType": "uint256",
          "name": "defaultedDebt",
          "type": "uint256"
        }
      ],
      "name": "receiveUnderlyingDefaulted",
      "outputs": [],
      "stateMutability": "nonpayable",
      "type": "function"
    },
    {
      "inputs": [
        {
          "internalType": "uint256",
          "name": "shares",
          "type": "uint256"
        },
        {
          "internalType": "address",
          "name": "receiver",
          "type": "address"
        },
        {
          "internalType": "address",
          "name": "owner",
          "type": "address"
        }
      ],
      "name": "redeem",
      "outputs": [
        {
          "internalType": "uint256",
          "name": "",
          "type": "uint256"
        }
      ],
      "stateMutability": "nonpayable",
      "type": "function"
    },
    {
      "inputs": [],
      "name": "renounceOwnership",
      "outputs": [],
      "stateMutability": "nonpayable",
      "type": "function"
    },
    {
      "inputs": [
        {
          "internalType": "bool",
          "name": "paused",
          "type": "bool"
        }
      ],
      "name": "setPause",
      "outputs": [],
      "stateMutability": "nonpayable",
      "type": "function"
    },
    {
      "inputs": [
        {
          "components": [
            {
              "internalType": "uint256",
              "name": "maxLiquidatorDiscount",
              "type": "uint256"
            },
            {
              "internalType": "uint256",
              "name": "auctioneerFee",
              "type": "uint256"
            },
            {
              "internalType": "uint256",
              "name": "liquidationFee",
              "type": "uint256"
            },
            {
              "internalType": "uint256",
              "name": "maxUtilizationRate",
              "type": "uint256"
            }
          ],
          "internalType": "struct ConfigTypes.LendingPoolConfig",
          "name": "poolConfig",
          "type": "tuple"
        }
      ],
      "name": "setPoolConfig",
      "outputs": [],
      "stateMutability": "nonpayable",
      "type": "function"
    },
    {
      "inputs": [],
      "name": "symbol",
      "outputs": [
        {
          "internalType": "string",
          "name": "",
          "type": "string"
        }
      ],
      "stateMutability": "view",
      "type": "function"
    },
    {
      "inputs": [],
      "name": "totalAssets",
      "outputs": [
        {
          "internalType": "uint256",
          "name": "",
          "type": "uint256"
        }
      ],
      "stateMutability": "view",
      "type": "function"
    },
    {
      "inputs": [],
      "name": "totalSupply",
      "outputs": [
        {
          "internalType": "uint256",
          "name": "",
          "type": "uint256"
        }
      ],
      "stateMutability": "view",
      "type": "function"
    },
    {
      "inputs": [
        {
          "internalType": "address",
          "name": "to",
          "type": "address"
        },
        {
          "internalType": "uint256",
          "name": "amount",
          "type": "uint256"
        }
      ],
      "name": "transfer",
      "outputs": [
        {
          "internalType": "bool",
          "name": "",
          "type": "bool"
        }
      ],
      "stateMutability": "nonpayable",
      "type": "function"
    },
    {
      "inputs": [
        {
          "internalType": "address",
          "name": "from",
          "type": "address"
        },
        {
          "internalType": "address",
          "name": "to",
          "type": "address"
        },
        {
          "internalType": "uint256",
          "name": "amount",
          "type": "uint256"
        }
      ],
      "name": "transferFrom",
      "outputs": [
        {
          "internalType": "bool",
          "name": "",
          "type": "bool"
        }
      ],
      "stateMutability": "nonpayable",
      "type": "function"
    },
    {
      "inputs": [
        {
          "internalType": "address",
          "name": "newOwner",
          "type": "address"
        }
      ],
      "name": "transferOwnership",
      "outputs": [],
      "stateMutability": "nonpayable",
      "type": "function"
    },
    {
      "inputs": [
        {
          "internalType": "address",
          "name": "to",
          "type": "address"
        },
        {
          "internalType": "uint256",
          "name": "amount",
          "type": "uint256"
        },
        {
          "internalType": "uint256",
          "name": "borrowRate",
          "type": "uint256"
        }
      ],
      "name": "transferUnderlying",
      "outputs": [],
      "stateMutability": "nonpayable",
      "type": "function"
    },
    {
      "inputs": [
        {
          "internalType": "uint256",
          "name": "assets",
          "type": "uint256"
        },
        {
          "internalType": "address",
          "name": "receiver",
          "type": "address"
        },
        {
          "internalType": "address",
          "name": "owner",
          "type": "address"
        }
      ],
      "name": "withdraw",
      "outputs": [
        {
          "internalType": "uint256",
          "name": "",
          "type": "uint256"
        }
      ],
      "stateMutability": "nonpayable",
      "type": "function"
    }
  ],
  "bytecode": "0x6101006040523480156200001257600080fd5b5060405162002c0038038062002c008339810160408190526200003591620005a7565b83838360036200004683826200072c565b5060046200005582826200072c565b5050506000806200006c83620001ad60201b60201c565b91509150816200007e57601262000080565b805b60ff1660a05250506001600160a01b03166080526200009f3362000292565b856001600160a01b03166304d21cee6040518163ffffffff1660e01b8152600401602060405180830381865afa158015620000de573d6000803e3d6000fd5b505050506040513d601f19601f82011682018060405250810190620001049190620007f8565b6001600160a01b0316336001600160a01b0316146200015c5760405162461bcd60e51b815260206004820152601060248201526f13140e90ce93d3931657d3505492d15560821b604482015260640160405180910390fd5b6001600160a01b0380871660c052841660e0528051600a556020810151600b556040810151600c556060810151600d5562000196620002e4565b620001a18562000292565b50505050505062000857565b60408051600481526024810182526020810180516001600160e01b031663313ce56760e01b17905290516000918291829182916001600160a01b03871691620001f6916200081f565b600060405180830381855afa9150503d806000811462000233576040519150601f19603f3d011682016040523d82523d6000602084013e62000238565b606091505b50915091508180156200024d57506020815110155b1562000285576000818060200190518101906200026b91906200083d565b905060ff811162000283576001969095509350505050565b505b5060009485945092505050565b600580546001600160a01b038381166001600160a01b0319831681179093556040519116919082907f8be0079c531659141344cd1fd0a4f28419497f9722a3daafe3b4186f6b6457e090600090a35050565b60c0516001600160a01b0316635257b5666040518163ffffffff1660e01b8152600401602060405180830381865afa15801562000325573d6000803e3d6000fd5b505050506040513d601f19601f820116820180604052508101906200034b9190620007f8565b6001600160a01b031663b44ee73a60e0516200036c6200042160201b60201c565b6006546040516001600160e01b031960e086901b1681526001600160a01b03909316600484015260248301919091526044820152606401602060405180830381865afa158015620003c1573d6000803e3d6000fd5b505050506040513d601f19601f82011682018060405250810190620003e791906200083d565b60078190556040519081527fa4ecc9c1ce63bce38b008f9aa955334b99fa741c1dee15bf34ad19a4c1c9e1699060200160405180910390a1565b60e0516040516370a0823160e01b81523060048201526000916001600160a01b0316906370a0823190602401602060405180830381865afa1580156200046b573d6000803e3d6000fd5b505050506040513d601f19601f820116820180604052508101906200049191906200083d565b905090565b6001600160a01b0381168114620004ac57600080fd5b50565b634e487b7160e01b600052604160045260246000fd5b604051608081016001600160401b0381118282101715620004ea57620004ea620004af565b60405290565b60005b838110156200050d578181015183820152602001620004f3565b50506000910152565b600082601f8301126200052857600080fd5b81516001600160401b0380821115620005455762000545620004af565b604051601f8301601f19908116603f01168101908282118183101715620005705762000570620004af565b816040528381528660208588010111156200058a57600080fd5b6200059d846020830160208901620004f0565b9695505050505050565b600080600080600080868803610120811215620005c357600080fd5b8751620005d08162000496565b6020890151909750620005e38162000496565b6040890151909650620005f68162000496565b60608901519095506001600160401b03808211156200061457600080fd5b620006228b838c0162000516565b955060808a01519150808211156200063957600080fd5b50620006488a828b0162000516565b9350506080609f19820112156200065e57600080fd5b5062000669620004c5565b60a0880151815260c0880151602082015260e088015160408201526101008801516060820152809150509295509295509295565b600181811c90821680620006b257607f821691505b602082108103620006d357634e487b7160e01b600052602260045260246000fd5b50919050565b601f8211156200072757600081815260208120601f850160051c81016020861015620007025750805b601f850160051c820191505b8181101562000723578281556001016200070e565b5050505b505050565b81516001600160401b03811115620007485762000748620004af565b62000760816200075984546200069d565b84620006d9565b602080601f8311600181146200079857600084156200077f5750858301515b600019600386901b1c1916600185901b17855562000723565b600085815260208120601f198616915b82811015620007c957888601518255948401946001909101908401620007a8565b5085821015620007e85787850151600019600388901b60f8161c191681555b5050505050600190811b01905550565b6000602082840312156200080b57600080fd5b8151620008188162000496565b9392505050565b6000825162000833818460208701620004f0565b9190910192915050565b6000602082840312156200085057600080fd5b5051919050565b60805160a05160c05160e051612314620008ec6000396000818161076401528181610853015281816109b501528181610ab001528181610d06015281816114790152818161170201526117b00152600081816106d4015281816111cd015281816113e90152818161157601526116e0015260006102fb015260008181610327015281816119610152611a2101526123146000f3fe608060405234801561001057600080fd5b50600436106102535760003560e01c80638da5cb5b11610146578063ba087652116100c3578063ce96cb7711610087578063ce96cb7714610530578063d905777e14610543578063dd62ed3e14610556578063e2c6743914610569578063ef8b30f71461051d578063f2fde38b1461057157600080fd5b8063ba087652146104da578063ba1c5e80146104ed578063bedb86fb146104f5578063c63d75b614610508578063c6e6f5921461051d57600080fd5b8063a663f8301161010a578063a663f83014610453578063a9059cbb14610466578063b0d9658014610479578063b3d7f6b9146104b4578063b460af94146104c757600080fd5b80638da5cb5b1461040157806394bf804d1461041257806395d89b4114610425578063a22586941461042d578063a457c2d71461044057600080fd5b806339509351116101d4578063545039c611610198578063545039c6146103a25780636e553f65146103b557806370a08231146103c8578063715018a6146103f157806384bdc9a8146103f957600080fd5b8063395093511461035f578063402d267d146103725780634a417a53146103855780634cdad506146102885780635170598d1461038d57600080fd5b806314a6bf0f1161021b57806314a6bf0f146102d157806318160ddd146102d957806323b872dd146102e1578063313ce567146102f457806338d52e0f1461032557600080fd5b806301e1d1141461025857806306fdde031461027357806307a2d13a14610288578063095ea7b31461029b5780630a28a477146102be575b600080fd5b610260610584565b6040519081526020015b60405180910390f35b61027b6105a0565b60405161026a9190611efa565b610260610296366004611f2d565b610632565b6102ae6102a9366004611f5b565b610645565b604051901515815260200161026a565b6102606102cc366004611f2d565b61065d565b600654610260565b600254610260565b6102ae6102ef366004611f87565b61066a565b60405160ff7f000000000000000000000000000000000000000000000000000000000000000016815260200161026a565b7f00000000000000000000000000000000000000000000000000000000000000005b6040516001600160a01b03909116815260200161026a565b6102ae61036d366004611f5b565b610690565b610260610380366004611fc8565b6106b2565b6102606106d0565b6103a061039b366004611fe5565b610804565b005b6103a06103b0366004612059565b61082a565b6102606103c3366004612094565b6108ad565b6102606103d6366004611fc8565b6001600160a01b031660009081526020819052604090205490565b6103a0610925565b610260610939565b6005546001600160a01b0316610347565b610260610420366004612094565b61096f565b61027b610989565b6103a061043b3660046120c4565b610998565b6102ae61044e366004611f5b565b610a0d565b6103a0610461366004612059565b610a93565b6102ae610474366004611f5b565b610af6565b610481610b04565b60405161026a91908151815260208083015190820152604080830151908201526060918201519181019190915260800190565b6102606104c2366004611f2d565b610b5c565b6102606104d53660046120f9565b610b69565b6102606104e83660046120f9565b610be5565b600754610260565b6103a0610503366004612149565b610c59565b610260610516366004611fc8565b5060001990565b61026061052b366004611f2d565b610c74565b61026061053e366004611fc8565b610c81565b610260610551366004611fc8565b610ca5565b610260610564366004612166565b610cc3565b610260610cee565b6103a061057f366004611fc8565b610d3d565b600061058e610cee565b60065461059b91906121aa565b905090565b6060600380546105af906121bd565b80601f01602080910402602001604051908101604052809291908181526020018280546105db906121bd565b80156106285780601f106105fd57610100808354040283529160200191610628565b820191906000526020600020905b81548152906001019060200180831161060b57829003601f168201915b5050505050905090565b600061063f826000610db6565b92915050565b600033610653818585610de9565b5060019392505050565b600061063f826001610f0d565b600033610678858285610f3f565b610683858585610fb3565b60019150505b9392505050565b6000336106538185856106a38383610cc3565b6106ad91906121aa565b610de9565b60006106bc611157565b6106c757600061063f565b60001992915050565b60007f00000000000000000000000000000000000000000000000000000000000000006001600160a01b0316635257b5666040518163ffffffff1660e01b8152600401602060405180830381865afa158015610730573d6000803e3d6000fd5b505050506040513d601f19601f8201168201806040525081019061075491906121f7565b6001600160a01b031663fb4ffce17f000000000000000000000000000000000000000000000000000000000000000061078b610cee565b6006546040516001600160e01b031960e086901b1681526001600160a01b039093166004840152602483019190915260448201526064015b602060405180830381865afa1580156107e0573d6000803e3d6000fd5b505050506040513d601f19601f8201168201806040525081019061059b9190612214565b61080c611171565b8051600a556020810151600b556040810151600c5560600151600d55565b6108326111cb565b61083a61129d565b61087b843061084984876121aa565b6001600160a01b037f0000000000000000000000000000000000000000000000000000000000000000169291906112e1565b6108876000848461134c565b8260066000828254610899919061222d565b909155506108a790506113e7565b50505050565b60006108b8826106b2565b83111561090c5760405162461bcd60e51b815260206004820152601e60248201527f455243343632363a206465706f736974206d6f7265207468616e206d6178000060448201526064015b60405180910390fd5b600061091784610c74565b905061068933848684611552565b61092d611171565b610937600061161f565b565b600080610944610584565b111561096c57610952610584565b6006546008546109629190612240565b61059b919061226d565b90565b60008061097b84610b5c565b905061068933848387611552565b6060600480546105af906121bd565b6109a06111cb565b6109a861129d565b6109dc6001600160a01b037f0000000000000000000000000000000000000000000000000000000000000000168484611671565b6109e86001838361134c565b81600660008282546109fa91906121aa565b90915550610a0890506113e7565b505050565b60003381610a1b8286610cc3565b905083811015610a7b5760405162461bcd60e51b815260206004820152602560248201527f45524332303a2064656372656173656420616c6c6f77616e63652062656c6f77604482015264207a65726f60d81b6064820152608401610903565b610a888286868403610de9565b506001949350505050565b610a9b6111cb565b610aa361129d565b610ad86001600160a01b037f0000000000000000000000000000000000000000000000000000000000000000168530866112e1565b610ae46000828461134c565b8060066000828254610899919061222d565b600033610653818585610fb3565b610b2f6040518060800160405280600081526020016000815260200160008152602001600081525090565b5060408051608081018252600a548152600b546020820152600c5491810191909152600d54606082015290565b600061063f826001610db6565b6000610b7482610c81565b841115610bc35760405162461bcd60e51b815260206004820152601f60248201527f455243343632363a207769746864726177206d6f7265207468616e206d6178006044820152606401610903565b6000610bce8561065d565b9050610bdd33858588856116a1565b949350505050565b6000610bf082610ca5565b841115610c3f5760405162461bcd60e51b815260206004820152601d60248201527f455243343632363a2072656465656d206d6f7265207468616e206d61780000006044820152606401610903565b6000610c4a85610632565b9050610bdd33858584896116a1565b610c61611171565b6009805460ff1916911515919091179055565b600061063f826000610f0d565b6001600160a01b03811660009081526020819052604081205461063f906000610db6565b6001600160a01b03811660009081526020819052604081205461063f565b6001600160a01b03918216600090815260016020908152604080832093909416825291909152205490565b6040516370a0823160e01b81523060048201526000907f00000000000000000000000000000000000000000000000000000000000000006001600160a01b0316906370a08231906024016107c3565b610d45611171565b6001600160a01b038116610daa5760405162461bcd60e51b815260206004820152602660248201527f4f776e61626c653a206e6577206f776e657220697320746865207a65726f206160448201526564647265737360d01b6064820152608401610903565b610db38161161f565b50565b600080610dc260025490565b90508015610de357610dde610dd5610584565b8590838661182d565b610bdd565b83610bdd565b6001600160a01b038316610e4b5760405162461bcd60e51b8152602060048201526024808201527f45524332303a20617070726f76652066726f6d20746865207a65726f206164646044820152637265737360e01b6064820152608401610903565b6001600160a01b038216610eac5760405162461bcd60e51b815260206004820152602260248201527f45524332303a20617070726f766520746f20746865207a65726f206164647265604482015261737360f01b6064820152608401610903565b6001600160a01b0383811660008181526001602090815260408083209487168084529482529182902085905590518481527f8c5be1e5ebec7d5bd14f71427d1e84f3dd0314c0f7b2291e5b200ac8c7c3b925910160405180910390a3505050565b600080610f1960025490565b9050831580610f26575080155b610de357610dde81610f36610584565b8691908661182d565b6000610f4b8484610cc3565b905060001981146108a75781811015610fa65760405162461bcd60e51b815260206004820152601d60248201527f45524332303a20696e73756666696369656e7420616c6c6f77616e63650000006044820152606401610903565b6108a78484848403610de9565b6001600160a01b0383166110175760405162461bcd60e51b815260206004820152602560248201527f45524332303a207472616e736665722066726f6d20746865207a65726f206164604482015264647265737360d81b6064820152608401610903565b6001600160a01b0382166110795760405162461bcd60e51b815260206004820152602360248201527f45524332303a207472616e7366657220746f20746865207a65726f206164647260448201526265737360e81b6064820152608401610903565b6001600160a01b038316600090815260208190526040902054818110156110f15760405162461bcd60e51b815260206004820152602660248201527f45524332303a207472616e7366657220616d6f756e7420657863656564732062604482015265616c616e636560d01b6064820152608401610903565b6001600160a01b03848116600081815260208181526040808320878703905593871680835291849020805487019055925185815290927fddf252ad1be2c89b69c2b068fc378daa952ba7f163c4a11628f55a4df523b3ef910160405180910390a36108a7565b600080611162610584565b118061059b5750506002541590565b6005546001600160a01b031633146109375760405162461bcd60e51b815260206004820181905260248201527f4f776e61626c653a2063616c6c6572206973206e6f7420746865206f776e65726044820152606401610903565b7f00000000000000000000000000000000000000000000000000000000000000006001600160a01b03166304d21cee6040518163ffffffff1660e01b8152600401602060405180830381865afa158015611229573d6000803e3d6000fd5b505050506040513d601f19601f8201168201806040525081019061124d91906121f7565b6001600160a01b0316336001600160a01b0316146109375760405162461bcd60e51b815260206004820152600d60248201526c13140e9393d517d3505492d155609a1b6044820152606401610903565b60095460ff16156109375760405162461bcd60e51b815260206004820152600e60248201526d13140e9413d3d317d4105554d15160921b6044820152606401610903565b6040516001600160a01b03808516602483015283166044820152606481018290526108a79085906323b872dd60e01b906084015b60408051601f198184030181529190526020810180516001600160e01b03166001600160e01b03199093169290921790915261188a565b8215611396578160065461136091906121aa565b61136a8284612240565b60085460065461137a9190612240565b61138491906121aa565b61138e919061226d565b600855505050565b816006546113a4919061222d565b6000036113b5576000600855505050565b816006546113c3919061222d565b6113cd8284612240565b6008546006546113dd9190612240565b611384919061222d565b7f00000000000000000000000000000000000000000000000000000000000000006001600160a01b0316635257b5666040518163ffffffff1660e01b8152600401602060405180830381865afa158015611445573d6000803e3d6000fd5b505050506040513d601f19601f8201168201806040525081019061146991906121f7565b6001600160a01b031663b44ee73a7f00000000000000000000000000000000000000000000000000000000000000006114a0610cee565b6006546040516001600160e01b031960e086901b1681526001600160a01b03909316600484015260248301919091526044820152606401602060405180830381865afa1580156114f4573d6000803e3d6000fd5b505050506040513d601f19601f820116820180604052508101906115189190612214565b60078190556040519081527fa4ecc9c1ce63bce38b008f9aa955334b99fa741c1dee15bf34ad19a4c1c9e1699060200160405180910390a1565b61155a61129d565b73__$5201a97c05ba6aa659e2f36a933dd51801$__63a7b0f9417f000000000000000000000000000000000000000000000000000000000000000061159d610584565b6002546040516001600160e01b031960e086901b1681526001600160a01b039093166004840152602483019190915260448201526064810185905260840160006040518083038186803b1580156115f357600080fd5b505af4158015611607573d6000803e3d6000fd5b505050506116178484848461195c565b6108a76113e7565b600580546001600160a01b038381166001600160a01b0319831681179093556040519116919082907f8be0079c531659141344cd1fd0a4f28419497f9722a3daafe3b4186f6b6457e090600090a35050565b6040516001600160a01b038316602482015260448101829052610a0890849063a9059cbb60e01b90606401611315565b6116a961129d565b600d546006546040516370a0823160e01b815230600482015273__$5201a97c05ba6aa659e2f36a933dd51801$__9263b5821ff8927f0000000000000000000000000000000000000000000000000000000000000000927f00000000000000000000000000000000000000000000000000000000000000006001600160a01b0316906370a0823190602401602060405180830381865afa158015611751573d6000803e3d6000fd5b505050506040513d601f19601f820116820180604052508101906117759190612214565b60405160e086901b6001600160e01b03191681526001600160a01b0394851660048201526024810193909352604483019190915260648201527f0000000000000000000000000000000000000000000000000000000000000000909116608482015260a4810185905260c40160006040518083038186803b1580156117f957600080fd5b505af415801561180d573d6000803e3d6000fd5b5050505061181e85858585856119ee565b6118266113e7565b5050505050565b60008061183b868686611aae565b905060018360028111156118515761185161228f565b14801561186e57506000848061186957611869612257565b868809115b156118815761187e6001826121aa565b90505b95945050505050565b60006118df826040518060400160405280602081526020017f5361666545524332303a206c6f772d6c6576656c2063616c6c206661696c6564815250856001600160a01b0316611b5d9092919063ffffffff16565b805190915015610a0857808060200190518101906118fd91906122a5565b610a085760405162461bcd60e51b815260206004820152602a60248201527f5361666545524332303a204552433230206f7065726174696f6e20646964206e6044820152691bdd081cdd58d8d9595960b21b6064820152608401610903565b6119887f00000000000000000000000000000000000000000000000000000000000000008530856112e1565b6119928382611b6c565b826001600160a01b0316846001600160a01b03167fdcbc1c05240f31ff3ad067ef1ee35ce4997762752e3a095284754544f4c709d784846040516119e0929190918252602082015260400190565b60405180910390a350505050565b826001600160a01b0316856001600160a01b031614611a1257611a12838683610f3f565b611a1c8382611c2b565b611a477f00000000000000000000000000000000000000000000000000000000000000008584611671565b826001600160a01b0316846001600160a01b0316866001600160a01b03167ffbde797d201c681b91056529119e0b02407c7bb96a4a2c75c01fc9667232c8db8585604051611a9f929190918252602082015260400190565b60405180910390a45050505050565b6000808060001985870985870292508281108382030391505080600003611ae857838281611ade57611ade612257565b0492505050610689565b808411611af457600080fd5b60008486880960026001871981018816978890046003810283188082028403028082028403028082028403028082028403028082028403029081029092039091026000889003889004909101858311909403939093029303949094049190911702949350505050565b6060610bdd8484600085611d5d565b6001600160a01b038216611bc25760405162461bcd60e51b815260206004820152601f60248201527f45524332303a206d696e7420746f20746865207a65726f2061646472657373006044820152606401610903565b8060026000828254611bd491906121aa565b90915550506001600160a01b038216600081815260208181526040808320805486019055518481527fddf252ad1be2c89b69c2b068fc378daa952ba7f163c4a11628f55a4df523b3ef910160405180910390a35050565b6001600160a01b038216611c8b5760405162461bcd60e51b815260206004820152602160248201527f45524332303a206275726e2066726f6d20746865207a65726f206164647265736044820152607360f81b6064820152608401610903565b6001600160a01b03821660009081526020819052604090205481811015611cff5760405162461bcd60e51b815260206004820152602260248201527f45524332303a206275726e20616d6f756e7420657863656564732062616c616e604482015261636560f01b6064820152608401610903565b6001600160a01b0383166000818152602081815260408083208686039055600280548790039055518581529192917fddf252ad1be2c89b69c2b068fc378daa952ba7f163c4a11628f55a4df523b3ef910160405180910390a3505050565b606082471015611dbe5760405162461bcd60e51b815260206004820152602660248201527f416464726573733a20696e73756666696369656e742062616c616e636520666f6044820152651c8818d85b1b60d21b6064820152608401610903565b600080866001600160a01b03168587604051611dda91906122c2565b60006040518083038185875af1925050503d8060008114611e17576040519150601f19603f3d011682016040523d82523d6000602084013e611e1c565b606091505b5091509150611e2d87838387611e38565b979650505050505050565b60608315611ea7578251600003611ea0576001600160a01b0385163b611ea05760405162461bcd60e51b815260206004820152601d60248201527f416464726573733a2063616c6c20746f206e6f6e2d636f6e74726163740000006044820152606401610903565b5081610bdd565b610bdd8383815115611ebc5781518083602001fd5b8060405162461bcd60e51b81526004016109039190611efa565b60005b83811015611ef1578181015183820152602001611ed9565b50506000910152565b6020815260008251806020840152611f19816040850160208701611ed6565b601f01601f19169190910160400192915050565b600060208284031215611f3f57600080fd5b5035919050565b6001600160a01b0381168114610db357600080fd5b60008060408385031215611f6e57600080fd5b8235611f7981611f46565b946020939093013593505050565b600080600060608486031215611f9c57600080fd5b8335611fa781611f46565b92506020840135611fb781611f46565b929592945050506040919091013590565b600060208284031215611fda57600080fd5b813561068981611f46565b600060808284031215611ff757600080fd5b6040516080810181811067ffffffffffffffff8211171561202857634e487b7160e01b600052604160045260246000fd5b8060405250823581526020830135602082015260408301356040820152606083013560608201528091505092915050565b6000806000806080858703121561206f57600080fd5b843561207a81611f46565b966020860135965060408601359560600135945092505050565b600080604083850312156120a757600080fd5b8235915060208301356120b981611f46565b809150509250929050565b6000806000606084860312156120d957600080fd5b83356120e481611f46565b95602085013595506040909401359392505050565b60008060006060848603121561210e57600080fd5b83359250602084013561212081611f46565b9150604084013561213081611f46565b809150509250925092565b8015158114610db357600080fd5b60006020828403121561215b57600080fd5b81356106898161213b565b6000806040838503121561217957600080fd5b823561218481611f46565b915060208301356120b981611f46565b634e487b7160e01b600052601160045260246000fd5b8082018082111561063f5761063f612194565b600181811c908216806121d157607f821691505b6020821081036121f157634e487b7160e01b600052602260045260246000fd5b50919050565b60006020828403121561220957600080fd5b815161068981611f46565b60006020828403121561222657600080fd5b5051919050565b8181038181111561063f5761063f612194565b808202811582820484141761063f5761063f612194565b634e487b7160e01b600052601260045260246000fd5b60008261228a57634e487b7160e01b600052601260045260246000fd5b500490565b634e487b7160e01b600052602160045260246000fd5b6000602082840312156122b757600080fd5b81516106898161213b565b600082516122d4818460208701611ed6565b919091019291505056fea26469706673582212207dc89f4b1fadc7c2575865b743927c51fe7949f90b7164bb6c3a67d48f458c9b64736f6c63430008130033",
  "linkReferences": {
    "contracts/libraries/logic/ValidationLogic.sol": {
      "ValidationLogic": [
        {
          "length": 20,
          "start": 7752
        },
        {
          "length": 20,
          "start": 8112
        }
      ]
    }
  },
  "deployedLinkReferences": {
    "contracts/libraries/logic/ValidationLogic.sol": {
      "ValidationLogic": [
        {
          "length": 20,
          "start": 5468
        },
        {
          "length": 20,
          "start": 5828
        }
      ]
    }
  }
}