{
  "_format": "hh-sol-artifact-1",
  "contractName": "LendingGauge",
  "sourceName": "contracts/protocol/Gauges/LendingGauge.sol",
  "abi": [
    {
      "inputs": [
        {
          "internalType": "contract IAddressProvider",
          "name": "addressProvider",
          "type": "address"
        },
        {
          "internalType": "address",
          "name": "lpToken_",
          "type": "address"
        }
      ],
      "stateMutability": "nonpayable",
      "type": "constructor"
    },
    {
      "inputs": [],
      "name": "claim",
      "outputs": [
        {
          "internalType": "uint256",
          "name": "amountToClaim",
          "type": "uint256"
        }
      ],
      "stateMutability": "nonpayable",
      "type": "function"
    },
    {
      "inputs": [
        {
          "internalType": "uint256",
          "name": "amount",
          "type": "uint256"
        }
      ],
      "name": "deposit",
      "outputs": [],
      "stateMutability": "nonpayable",
      "type": "function"
    },
    {
      "inputs": [
        {
          "internalType": "address",
          "name": "user",
          "type": "address"
        }
      ],
      "name": "getBalanceOf",
      "outputs": [
        {
          "internalType": "uint256",
          "name": "",
          "type": "uint256"
        }
      ],
      "stateMutability": "view",
      "type": "function"
    },
    {
      "inputs": [],
      "name": "getLPToken",
      "outputs": [
        {
          "internalType": "address",
          "name": "",
          "type": "address"
        }
      ],
      "stateMutability": "view",
      "type": "function"
    },
    {
      "inputs": [],
      "name": "getTotalSupply",
      "outputs": [
        {
          "internalType": "uint256",
          "name": "",
          "type": "uint256"
        }
      ],
      "stateMutability": "view",
      "type": "function"
    },
    {
      "inputs": [
        {
          "internalType": "address",
          "name": "user",
          "type": "address"
        }
      ],
      "name": "getUserBoost",
      "outputs": [
        {
          "internalType": "uint256",
          "name": "",
          "type": "uint256"
        }
      ],
      "stateMutability": "view",
      "type": "function"
    },
    {
      "inputs": [
        {
          "internalType": "address",
          "name": "user",
          "type": "address"
        }
      ],
      "name": "getUserMaturityMultiplier",
      "outputs": [
        {
          "internalType": "uint256",
          "name": "",
          "type": "uint256"
        }
      ],
      "stateMutability": "view",
      "type": "function"
    },
    {
      "inputs": [
        {
          "internalType": "uint256",
          "name": "tokenId",
          "type": "uint256"
        }
      ],
      "name": "kick",
      "outputs": [],
      "stateMutability": "nonpayable",
      "type": "function"
    },
    {
      "inputs": [
        {
          "internalType": "bytes4",
          "name": "interfaceId",
          "type": "bytes4"
        }
      ],
      "name": "supportsInterface",
      "outputs": [
        {
          "internalType": "bool",
          "name": "",
          "type": "bool"
        }
      ],
      "stateMutability": "view",
      "type": "function"
    },
    {
      "inputs": [
        {
          "internalType": "uint256",
          "name": "amount",
          "type": "uint256"
        }
      ],
      "name": "withdraw",
      "outputs": [],
      "stateMutability": "nonpayable",
      "type": "function"
    },
    {
      "inputs": [],
      "name": "writeTotalWeightHistory",
      "outputs": [],
      "stateMutability": "nonpayable",
      "type": "function"
    }
  ],
  "bytecode": "0x60c06040523480156200001157600080fd5b5060405162001d9b38038062001d9b8339810160408190526200003491620000f4565b6001600160a01b03808316608052811660a052604080516020810190915260008152620000669060059060016200006f565b50505062000133565b828054828255906000526020600020908101928215620000b2579160200282015b82811115620000b2578251829060ff1690559160200191906001019062000090565b50620000c0929150620000c4565b5090565b5b80821115620000c05760008155600101620000c5565b6001600160a01b0381168114620000f157600080fd5b50565b600080604083850312156200010857600080fd5b82516200011581620000db565b60208401519092506200012881620000db565b809150509250929050565b60805160a051611c0362000198600039600081816101190152818161028a01528181610f6d0152610fad015260008181610357015281816103dd01528181610c2201528181610d10015281816110290152818161120301526115ca0152611c036000f3fe608060405234801561001057600080fd5b50600436106100a95760003560e01c806387da75ef1161007157806387da75ef1461014b5780639581372b146101535780639b96eece14610166578063b6b55f251461018f578063c4e41b22146101a2578063ce0cf1a5146101aa57600080fd5b806301ffc9a7146100ae5780632e1a7d4d146100d6578063320e55a4146100eb5780633c1aa9251461010c5780634e71d92d14610143575b600080fd5b6100c16100bc36600461198c565b6101bd565b60405190151581526020015b60405180910390f35b6100e96100e43660046119b6565b6101f4565b005b6100fe6100f93660046119e4565b6102bd565b6040519081526020016100cd565b6040516001600160a01b037f00000000000000000000000000000000000000000000000000000000000000001681526020016100cd565b6100fe610348565b6100e9610d0c565b6100fe6101613660046119e4565b610e5e565b6100fe6101743660046119e4565b6001600160a01b031660009081526020819052604090205490565b6100e961019d3660046119b6565b610ef8565b6100fe610f95565b6100e96101b83660046119b6565b611025565b60006001600160e01b03198216633c1aa92560e01b14806101ee57506301ffc9a760e01b6001600160e01b03198316145b92915050565b336000908152602081905260409020548111156102585760405162461bcd60e51b815260206004820152601b60248201527f4c473a573a414d4f554e545f455843454544535f42414c414e4345000000000060448201526064015b60405180910390fd5b3360009081526020819052604081208054839290610277908490611a17565b909155506102b190506001600160a01b037f000000000000000000000000000000000000000000000000000000000000000016338361119c565b6102ba336111ff565b50565b6001600160a01b0381166000908152600160205260408120548082036102e65750600092915050565b6001600160a01b03831660009081526001602081905260409091206103419161030f9084611a17565b8154811061031f5761031f611a2a565b9060005260206000209060030201600201544261033c9190611a17565b6115c5565b9392505050565b6000610353336111ff565b60007f00000000000000000000000000000000000000000000000000000000000000006001600160a01b03166308b0308a6040518163ffffffff1660e01b8152600401602060405180830381865afa1580156103b3573d6000803e3d6000fd5b505050506040513d601f19601f820116820180604052508101906103d79190611a40565b905060007f00000000000000000000000000000000000000000000000000000000000000006001600160a01b03166358de9ade6040518163ffffffff1660e01b8152600401602060405180830381865afa158015610439573d6000803e3d6000fd5b505050506040513d601f19601f8201168201806040525081019061045d9190611a40565b33600090815260016020526040812054919250819003610481576000935050505090565b3360009081526003602052604081205490036105535733600090815260016020526040812080546001600160a01b0386169263bc0bc6ba92916104c6576104c6611a2a565b9060005260206000209060030201600201546040518263ffffffff1660e01b81526004016104f691815260200190565b602060405180830381865afa158015610513573d6000803e3d6000fd5b505050506040513d601f19601f820116820180604052508101906105379190611a5d565b610542906001611a76565b336000908152600360205260409020555b6000805b6032811015610c19573360009081526003602052604090819020549051635e05e35d60e11b81524260048201529092506001600160a01b0386169063bc0bc6ba90602401602060405180830381865afa1580156105b8573d6000803e3d6000fd5b505050506040513d601f19601f820116820180604052508101906105dc9190611a5d565b821015610c195733600090815260016020908152604080832060029092528220548154811061060d5761060d611a2a565b9060005260206000209060030201604051806060016040529081600082015481526020016001820154815260200160028201548152505090506001846106539190611a17565b33600090815260026020526040902054036107925760006005848154811061067d5761067d611a2a565b9060005260206000200154111561076d57612710600584815481106106a4576106a4611a2a565b90600052602060002001546106b99190611a89565b6106cc82604001514261033c9190611a17565b60208301516040516315a8752360e31b8152306004820152602481018790526001600160a01b0389169063ad43a918906044016020604051808303816000875af115801561071e573d6000803e3d6000fd5b505050506040513d601f19601f820116820180604052508101906107429190611a5d565b61074c9190611a89565b6107569190611a89565b6107609190611aa0565b61076a9088611a76565b96505b33600090815260036020526040812080549161078883611ac2565b9190505550610c06565b336000908152600160208181526040808420600290925283205490916107b89190611a76565b815481106107c8576107c8611a2a565b906000526020600020906003020160405180606001604052908160008201548152602001600182015481526020016002820154815250509050866001600160a01b031663bc0bc6ba83604001516040518263ffffffff1660e01b815260040161083391815260200190565b602060405180830381865afa158015610850573d6000803e3d6000fd5b505050506040513d601f19601f820116820180604052508101906108749190611a5d565b6040828101519051635e05e35d60e11b815260048101919091526001600160a01b0389169063bc0bc6ba90602401602060405180830381865afa1580156108bf573d6000803e3d6000fd5b505050506040513d601f19601f820116820180604052508101906108e39190611a5d565b0361090d5733600090815260026020526040812080549161090383611ac2565b9190505550610c04565b6040808201519051635e05e35d60e11b815285916001600160a01b038a169163bc0bc6ba916109429160040190815260200190565b602060405180830381865afa15801561095f573d6000803e3d6000fd5b505050506040513d601f19601f820116820180604052508101906109839190611a5d565b03610ada5760006005858154811061099d5761099d611a2a565b90600052602060002001541180156109b757508051825111155b15610a9f57612710600585815481106109d2576109d2611a2a565b90600052602060002001546109e79190611a89565b8260200151610a038460400151846040015161033c9190611a17565b6040516315a8752360e31b8152306004820152602481018890526001600160a01b038a169063ad43a918906044016020604051808303816000875af1158015610a50573d6000803e3d6000fd5b505050506040513d601f19601f82011682018060405250810190610a749190611a5d565b610a7e9190611a89565b610a889190611a89565b610a929190611aa0565b610a9c9089611a76565b97505b336000908152600260205260408120805491610aba83611ac2565b909155505033600090815260036020526040812080549161090383611ac2565b600060058581548110610aef57610aef611a2a565b90600052602060002001541115610be35761271060058581548110610b1657610b16611a2a565b9060005260206000200154610b2b9190611a89565b8260200151610b478460400151846040015161033c9190611a17565b6040516315a8752360e31b8152306004820152602481018890526001600160a01b038a169063ad43a918906044016020604051808303816000875af1158015610b94573d6000803e3d6000fd5b505050506040513d601f19601f82011682018060405250810190610bb89190611a5d565b610bc29190611a89565b610bcc9190611a89565b610bd69190611aa0565b610be09089611a76565b97505b336000908152600360205260408120805491610bfe83611ac2565b91905055505b505b5080610c1181611ac2565b915050610557565b508415610d05577f00000000000000000000000000000000000000000000000000000000000000006001600160a01b03166315b9ba5d6040518163ffffffff1660e01b8152600401602060405180830381865afa158015610c7e573d6000803e3d6000fd5b505050506040513d601f19601f82011682018060405250810190610ca29190611a40565b604051631ec9887760e11b8152336004820152602481018790526001600160a01b039190911690633d9310ee90604401600060405180830381600087803b158015610cec57600080fd5b505af1158015610d00573d6000803e3d6000fd5b505050505b5050505090565b60007f00000000000000000000000000000000000000000000000000000000000000006001600160a01b03166308b0308a6040518163ffffffff1660e01b8152600401602060405180830381865afa158015610d6c573d6000803e3d6000fd5b505050506040513d601f19601f82011682018060405250810190610d909190611a40565b604051635e05e35d60e11b81524260048201526001600160a01b03919091169063bc0bc6ba90602401602060405180830381865afa158015610dd6573d6000803e3d6000fd5b505050506040513d601f19601f82011682018060405250810190610dfa9190611a5d565b905060005b6080811015610e5a57600554821115610e5a57600454600580546001810182556000919091527f036b6384b5eca791c62761152d0c79bb0604c104a5fb6f4eb0703f3154bb3db0015580610e5281611ac2565b915050610dff565b5050565b6001600160a01b0381166000908152602081905260408120548103610e8557506000919050565b6001600160a01b038216600090815260208181526040808320546001928390529220805461271092610eb691611a17565b81548110610ec657610ec6611a2a565b9060005260206000209060030201600101546002610ee49190611a89565b610eee9190611a89565b6101ee9190611aa0565b60008111610f3b5760405162461bcd60e51b815260206004820152601060248201526f4c473a443a414d4f554e545f5a45524f60801b604482015260640161024f565b3360009081526020819052604081208054839290610f5a908490611a76565b909155506102b190506001600160a01b037f0000000000000000000000000000000000000000000000000000000000000000163330846116d6565b6040516370a0823160e01b81523060048201526000907f00000000000000000000000000000000000000000000000000000000000000006001600160a01b0316906370a0823190602401602060405180830381865afa158015610ffc573d6000803e3d6000fd5b505050506040513d601f19601f820116820180604052508101906110209190611a5d565b905090565b60007f00000000000000000000000000000000000000000000000000000000000000006001600160a01b03166308b0308a6040518163ffffffff1660e01b8152600401602060405180830381865afa158015611085573d6000803e3d6000fd5b505050506040513d601f19601f820116820180604052508101906110a99190611a40565b60405163d68f4dd160e01b8152600481018490529091506000906001600160a01b0383169063d68f4dd1906024016040805180830381865afa1580156110f3573d6000803e3d6000fd5b505050506040513d601f19601f820116820180604052508101906111179190611adb565b60200151905042811015611197576040516331a9108f60e11b815260048101849052611197906001600160a01b03841690636352211e90602401602060405180830381865afa15801561116e573d6000803e3d6000fd5b505050506040513d601f19601f820116820180604052508101906111929190611a40565b6111ff565b505050565b6040516001600160a01b03831660248201526044810182905261119790849063a9059cbb60e01b906064015b60408051601f198184030181529190526020810180516001600160e01b03166001600160e01b031990931692909217909152611714565b60007f00000000000000000000000000000000000000000000000000000000000000006001600160a01b03166308b0308a6040518163ffffffff1660e01b8152600401602060405180830381865afa15801561125f573d6000803e3d6000fd5b505050506040513d601f19601f820116820180604052508101906112839190611a40565b9050806001600160a01b03166387da75ef6040518163ffffffff1660e01b8152600401600060405180830381600087803b1580156112c057600080fd5b505af11580156112d4573d6000803e3d6000fd5b50506040516301924b8d60e71b81526001600160a01b038581166004830152600093508416915063c925c68090602401602060405180830381865afa158015611321573d6000803e3d6000fd5b505050506040513d601f19601f820116820180604052508101906113459190611a5d565b90506000826001600160a01b03166306aba0e16040518163ffffffff1660e01b81526004016020604051808303816000875af1158015611389573d6000803e3d6000fd5b505050506040513d601f19601f820116820180604052508101906113ad9190611a5d565b905060006113b9610d0c565b816000036113e057506001600160a01b03841660009081526020819052604090205461146a565b6001600160a01b0385166000908152602081905260409020546114679061271084611409610f95565b61141588611388611a89565b61141f9190611a89565b6114299190611aa0565b6001600160a01b03891660009081526020819052604090205461144e90611388611a89565b6114589190611a76565b6114629190611aa0565b6117e6565b90505b61148e60405180606001604052806000815260200160008152602001600081525090565b6001600160a01b0386166000908152600160205260409020541561151e576001600160a01b0386166000908152600160208190526040909120805490916114d491611a17565b815481106114e4576114e4611a2a565b9060005260206000209060030201604051806060016040529081600082015481526020016001820154815260200160028201548152505090505b604080516060810182526001600160a01b0388166000908152602081815290839020548252808201859052429282019290925290820151600454611563908590611a76565b61156d9190611a17565b6004556001600160a01b03909616600090815260016020818152604080842080548085018255908552938290208a51600390950201938455908901519183019190915596909601516002909601959095555050505050565b6000807f00000000000000000000000000000000000000000000000000000000000000006001600160a01b03166358de9ade6040518163ffffffff1660e01b8152600401602060405180830381865afa158015611626573d6000803e3d6000fd5b505050506040513d601f19601f8201168201806040525081019061164a9190611a40565b6001600160a01b031663c057beee6040518163ffffffff1660e01b8152600401602060405180830381865afa158015611687573d6000803e3d6000fd5b505050506040513d601f19601f820116820180604052508101906116ab9190611a5d565b9050808311156116bf575061271092915050565b806116cc84612710611a89565b6103419190611aa0565b6040516001600160a01b038085166024830152831660448201526064810182905261170e9085906323b872dd60e01b906084016111c8565b50505050565b6000611769826040518060400160405280602081526020017f5361666545524332303a206c6f772d6c6576656c2063616c6c206661696c6564815250856001600160a01b03166117fc9092919063ffffffff16565b80519091501561119757808060200190518101906117879190611b38565b6111975760405162461bcd60e51b815260206004820152602a60248201527f5361666545524332303a204552433230206f7065726174696f6e20646964206e6044820152691bdd081cdd58d8d9595960b21b606482015260840161024f565b60008183106117f55781610341565b5090919050565b606061180b8484600085611813565b949350505050565b6060824710156118745760405162461bcd60e51b815260206004820152602660248201527f416464726573733a20696e73756666696369656e742062616c616e636520666f6044820152651c8818d85b1b60d21b606482015260840161024f565b600080866001600160a01b031685876040516118909190611b7e565b60006040518083038185875af1925050503d80600081146118cd576040519150601f19603f3d011682016040523d82523d6000602084013e6118d2565b606091505b50915091506118e3878383876118ee565b979650505050505050565b6060831561195d578251600003611956576001600160a01b0385163b6119565760405162461bcd60e51b815260206004820152601d60248201527f416464726573733a2063616c6c20746f206e6f6e2d636f6e7472616374000000604482015260640161024f565b508161180b565b61180b83838151156119725781518083602001fd5b8060405162461bcd60e51b815260040161024f9190611b9a565b60006020828403121561199e57600080fd5b81356001600160e01b03198116811461034157600080fd5b6000602082840312156119c857600080fd5b5035919050565b6001600160a01b03811681146102ba57600080fd5b6000602082840312156119f657600080fd5b8135610341816119cf565b634e487b7160e01b600052601160045260246000fd5b818103818111156101ee576101ee611a01565b634e487b7160e01b600052603260045260246000fd5b600060208284031215611a5257600080fd5b8151610341816119cf565b600060208284031215611a6f57600080fd5b5051919050565b808201808211156101ee576101ee611a01565b80820281158282048414176101ee576101ee611a01565b600082611abd57634e487b7160e01b600052601260045260246000fd5b500490565b600060018201611ad457611ad4611a01565b5060010190565b600060408284031215611aed57600080fd5b6040516040810181811067ffffffffffffffff82111715611b1e57634e487b7160e01b600052604160045260246000fd5b604052825181526020928301519281019290925250919050565b600060208284031215611b4a57600080fd5b8151801515811461034157600080fd5b60005b83811015611b75578181015183820152602001611b5d565b50506000910152565b60008251611b90818460208701611b5a565b9190910192915050565b6020815260008251806020840152611bb9816040850160208701611b5a565b601f01601f1916919091016040019291505056fea2646970667358221220db5764b4071d911f5af44fad8c7398083042998e838c16c21e1b0680d6fad93d64736f6c63430008130033",
  "linkReferences": {},
  "deployedLinkReferences": {}
}