{
  "_format": "hh-sol-artifact-1",
  "contractName": "LendingMarket",
  "sourceName": "contracts/protocol/Lending/LendingMarket.sol",
  "abi": [
    {
      "inputs": [],
      "stateMutability": "nonpayable",
      "type": "constructor"
    },
    {
      "anonymous": false,
      "inputs": [
        {
          "indexed": true,
          "internalType": "address",
          "name": "user",
          "type": "address"
        },
        {
          "indexed": true,
          "internalType": "uint256",
          "name": "loanId",
          "type": "uint256"
        },
        {
          "indexed": false,
          "internalType": "uint256",
          "name": "bid",
          "type": "uint256"
        }
      ],
      "name": "BidLiquidationAuction",
      "type": "event"
    },
    {
      "anonymous": false,
      "inputs": [
        {
          "indexed": true,
          "internalType": "address",
          "name": "user",
          "type": "address"
        },
        {
          "indexed": true,
          "internalType": "address",
          "name": "asset",
          "type": "address"
        },
        {
          "indexed": true,
          "internalType": "address",
          "name": "nftAddress",
          "type": "address"
        },
        {
          "indexed": false,
          "internalType": "uint256[]",
          "name": "nftTokenIds",
          "type": "uint256[]"
        },
        {
          "indexed": false,
          "internalType": "uint256",
          "name": "amount",
          "type": "uint256"
        }
      ],
      "name": "Borrow",
      "type": "event"
    },
    {
      "anonymous": false,
      "inputs": [
        {
          "indexed": true,
          "internalType": "address",
          "name": "user",
          "type": "address"
        },
        {
          "indexed": true,
          "internalType": "uint256",
          "name": "loanId",
          "type": "uint256"
        }
      ],
      "name": "ClaimLiquidation",
      "type": "event"
    },
    {
      "anonymous": false,
      "inputs": [
        {
          "indexed": true,
          "internalType": "address",
          "name": "lendingPool",
          "type": "address"
        }
      ],
      "name": "CreateLendingPool",
      "type": "event"
    },
    {
      "anonymous": false,
      "inputs": [
        {
          "indexed": true,
          "internalType": "address",
          "name": "user",
          "type": "address"
        },
        {
          "indexed": true,
          "internalType": "uint256",
          "name": "loanId",
          "type": "uint256"
        },
        {
          "indexed": false,
          "internalType": "uint256",
          "name": "bid",
          "type": "uint256"
        }
      ],
      "name": "CreateLiquidationAuction",
      "type": "event"
    },
    {
      "anonymous": false,
      "inputs": [
        {
          "indexed": false,
          "internalType": "uint8",
          "name": "version",
          "type": "uint8"
        }
      ],
      "name": "Initialized",
      "type": "event"
    },
    {
      "anonymous": false,
      "inputs": [
        {
          "indexed": true,
          "internalType": "address",
          "name": "previousOwner",
          "type": "address"
        },
        {
          "indexed": true,
          "internalType": "address",
          "name": "newOwner",
          "type": "address"
        }
      ],
      "name": "OwnershipTransferred",
      "type": "event"
    },
    {
      "anonymous": false,
      "inputs": [
        {
          "indexed": true,
          "internalType": "address",
          "name": "user",
          "type": "address"
        },
        {
          "indexed": true,
          "internalType": "uint256",
          "name": "loanId",
          "type": "uint256"
        }
      ],
      "name": "Repay",
      "type": "event"
    },
    {
      "anonymous": false,
      "inputs": [
        {
          "indexed": true,
          "internalType": "address",
          "name": "collection",
          "type": "address"
        },
        {
          "indexed": true,
          "internalType": "address",
          "name": "asset",
          "type": "address"
        },
        {
          "indexed": true,
          "internalType": "address",
          "name": "lendingPool",
          "type": "address"
        }
      ],
      "name": "SetLendingPool",
      "type": "event"
    },
    {
      "inputs": [
        {
          "internalType": "uint256",
          "name": "loanId",
          "type": "uint256"
        },
        {
          "internalType": "uint256",
          "name": "bid",
          "type": "uint256"
        }
      ],
      "name": "bidLiquidationAuction",
      "outputs": [],
      "stateMutability": "nonpayable",
      "type": "function"
    },
    {
      "inputs": [
        {
          "internalType": "address",
          "name": "onBehalfOf",
          "type": "address"
        },
        {
          "internalType": "address",
          "name": "asset",
          "type": "address"
        },
        {
          "internalType": "uint256",
          "name": "amount",
          "type": "uint256"
        },
        {
          "internalType": "address",
          "name": "nftAddress",
          "type": "address"
        },
        {
          "internalType": "uint256[]",
          "name": "nftTokenIds",
          "type": "uint256[]"
        },
        {
          "internalType": "uint256",
          "name": "genesisNFTId",
          "type": "uint256"
        },
        {
          "internalType": "bytes32",
          "name": "request",
          "type": "bytes32"
        },
        {
          "components": [
            {
              "internalType": "uint8",
              "name": "v",
              "type": "uint8"
            },
            {
              "internalType": "bytes32",
              "name": "r",
              "type": "bytes32"
            },
            {
              "internalType": "bytes32",
              "name": "s",
              "type": "bytes32"
            },
            {
              "internalType": "bytes32",
              "name": "request",
              "type": "bytes32"
            },
            {
              "internalType": "uint256",
              "name": "deadline",
              "type": "uint256"
            },
            {
              "internalType": "bytes",
              "name": "payload",
              "type": "bytes"
            }
          ],
          "internalType": "struct Trustus.TrustusPacket",
          "name": "packet",
          "type": "tuple"
        }
      ],
      "name": "borrow",
      "outputs": [],
      "stateMutability": "nonpayable",
      "type": "function"
    },
    {
      "inputs": [
        {
          "internalType": "uint256",
          "name": "loanId",
          "type": "uint256"
        }
      ],
      "name": "claimLiquidation",
      "outputs": [],
      "stateMutability": "nonpayable",
      "type": "function"
    },
    {
      "inputs": [
        {
          "internalType": "address",
          "name": "collection",
          "type": "address"
        },
        {
          "internalType": "address",
          "name": "asset",
          "type": "address"
        }
      ],
      "name": "createLendingPool",
      "outputs": [
        {
          "internalType": "address",
          "name": "",
          "type": "address"
        }
      ],
      "stateMutability": "nonpayable",
      "type": "function"
    },
    {
      "inputs": [
        {
          "internalType": "uint256",
          "name": "loanId",
          "type": "uint256"
        },
        {
          "internalType": "uint256",
          "name": "bid",
          "type": "uint256"
        },
        {
          "internalType": "bytes32",
          "name": "request",
          "type": "bytes32"
        },
        {
          "components": [
            {
              "internalType": "uint8",
              "name": "v",
              "type": "uint8"
            },
            {
              "internalType": "bytes32",
              "name": "r",
              "type": "bytes32"
            },
            {
              "internalType": "bytes32",
              "name": "s",
              "type": "bytes32"
            },
            {
              "internalType": "bytes32",
              "name": "request",
              "type": "bytes32"
            },
            {
              "internalType": "uint256",
              "name": "deadline",
              "type": "uint256"
            },
            {
              "internalType": "bytes",
              "name": "payload",
              "type": "bytes"
            }
          ],
          "internalType": "struct Trustus.TrustusPacket",
          "name": "packet",
          "type": "tuple"
        }
      ],
      "name": "createLiquidationAuction",
      "outputs": [],
      "stateMutability": "nonpayable",
      "type": "function"
    },
    {
      "inputs": [],
      "name": "getDefaultPoolConfig",
      "outputs": [
        {
          "components": [
            {
              "internalType": "uint256",
              "name": "maxLiquidatorDiscount",
              "type": "uint256"
            },
            {
              "internalType": "uint256",
              "name": "auctionerFee",
              "type": "uint256"
            },
            {
              "internalType": "uint256",
              "name": "liquidationFee",
              "type": "uint256"
            },
            {
              "internalType": "uint256",
              "name": "maxUtilizationRate",
              "type": "uint256"
            }
          ],
          "internalType": "struct ConfigTypes.LendingPoolConfig",
          "name": "",
          "type": "tuple"
        }
      ],
      "stateMutability": "view",
      "type": "function"
    },
    {
      "inputs": [
        {
          "internalType": "address",
          "name": "collection",
          "type": "address"
        },
        {
          "internalType": "address",
          "name": "asset",
          "type": "address"
        }
      ],
      "name": "getLendingPool",
      "outputs": [
        {
          "internalType": "address",
          "name": "",
          "type": "address"
        }
      ],
      "stateMutability": "view",
      "type": "function"
    },
    {
      "inputs": [],
      "name": "getTVLSafeguard",
      "outputs": [
        {
          "internalType": "uint256",
          "name": "",
          "type": "uint256"
        }
      ],
      "stateMutability": "view",
      "type": "function"
    },
    {
      "inputs": [
        {
          "internalType": "contract IAddressesProvider",
          "name": "addressesProvider",
          "type": "address"
        },
        {
          "internalType": "uint256",
          "name": "tvlSafeguard",
          "type": "uint256"
        },
        {
          "components": [
            {
              "internalType": "uint256",
              "name": "maxLiquidatorDiscount",
              "type": "uint256"
            },
            {
              "internalType": "uint256",
              "name": "auctionerFee",
              "type": "uint256"
            },
            {
              "internalType": "uint256",
              "name": "liquidationFee",
              "type": "uint256"
            },
            {
              "internalType": "uint256",
              "name": "maxUtilizationRate",
              "type": "uint256"
            }
          ],
          "internalType": "struct ConfigTypes.LendingPoolConfig",
          "name": "defaultLendingPoolConfig",
          "type": "tuple"
        }
      ],
      "name": "initialize",
      "outputs": [],
      "stateMutability": "nonpayable",
      "type": "function"
    },
    {
      "inputs": [],
      "name": "owner",
      "outputs": [
        {
          "internalType": "address",
          "name": "",
          "type": "address"
        }
      ],
      "stateMutability": "view",
      "type": "function"
    },
    {
      "inputs": [],
      "name": "renounceOwnership",
      "outputs": [],
      "stateMutability": "nonpayable",
      "type": "function"
    },
    {
      "inputs": [
        {
          "internalType": "uint256",
          "name": "loanId",
          "type": "uint256"
        },
        {
          "internalType": "uint256",
          "name": "amount",
          "type": "uint256"
        }
      ],
      "name": "repay",
      "outputs": [],
      "stateMutability": "nonpayable",
      "type": "function"
    },
    {
      "inputs": [
        {
          "components": [
            {
              "internalType": "uint256",
              "name": "maxLiquidatorDiscount",
              "type": "uint256"
            },
            {
              "internalType": "uint256",
              "name": "auctionerFee",
              "type": "uint256"
            },
            {
              "internalType": "uint256",
              "name": "liquidationFee",
              "type": "uint256"
            },
            {
              "internalType": "uint256",
              "name": "maxUtilizationRate",
              "type": "uint256"
            }
          ],
          "internalType": "struct ConfigTypes.LendingPoolConfig",
          "name": "poolConfig",
          "type": "tuple"
        }
      ],
      "name": "setDefaultPoolConfig",
      "outputs": [],
      "stateMutability": "nonpayable",
      "type": "function"
    },
    {
      "inputs": [
        {
          "internalType": "address",
          "name": "collection",
          "type": "address"
        },
        {
          "internalType": "address",
          "name": "asset",
          "type": "address"
        },
        {
          "internalType": "address",
          "name": "pool",
          "type": "address"
        }
      ],
      "name": "setLendingPool",
      "outputs": [],
      "stateMutability": "nonpayable",
      "type": "function"
    },
    {
      "inputs": [
        {
          "internalType": "uint256",
          "name": "tvlSafeguard",
          "type": "uint256"
        }
      ],
      "name": "setTVLSafeguard",
      "outputs": [],
      "stateMutability": "nonpayable",
      "type": "function"
    },
    {
      "inputs": [
        {
          "internalType": "address",
          "name": "newOwner",
          "type": "address"
        }
      ],
      "name": "transferOwnership",
      "outputs": [],
      "stateMutability": "nonpayable",
      "type": "function"
    }
  ],
  "bytecode": "0x608060405234801561001057600080fd5b5061001961001e565b6100de565b600054610100900460ff161561008a5760405162461bcd60e51b815260206004820152602760248201527f496e697469616c697a61626c653a20636f6e747261637420697320696e697469604482015266616c697a696e6760c81b606482015260840160405180910390fd5b60005460ff90811610156100dc576000805460ff191660ff9081179091556040519081527f7f26b83ff96e1f2b6a682f133852f6798a09c465da95921460cefb38474024989060200160405180910390a15b565b614de080620000ee6000396000f3fe60806040523480156200001157600080fd5b5060043610620001155760003560e01c8063a488f1b711620000a3578063c6baa653116200006e578063c6baa6531462000281578063d8aed1451462000298578063f06cf02b14620002af578063f2fde38b14620002c657600080fd5b8063a488f1b71462000206578063a880e68b146200021d578063b63ec974146200022f578063b9dca0e0146200026a57600080fd5b80637785c63011620000e45780637785c630146200016b5780638c7d2ebe146200019f5780638da5cb5b14620001b6578063934a8ed414620001c857600080fd5b806365ec4176146200011a5780636c6911b71462000133578063715018a6146200014a578063732c80091462000154575b600080fd5b620001316200012b366004620017b2565b620002dd565b005b620001316200014436600462001871565b620002ec565b620001316200048d565b6200013162000165366004620017b2565b620004a5565b620001826200017c366004620019aa565b6200057e565b6040516001600160a01b0390911681526020015b60405180910390f35b62000131620001b0366004620019e8565b62000d67565b6033546001600160a01b031662000182565b620001d262000ed5565b6040516200019691908151815260208083015190820152604080830151908201526060918201519181019190915260800190565b620001316200021736600462001a36565b62000f2e565b60995460405190815260200162000196565b6200018262000240366004620019aa565b6001600160a01b039182166000908152609760209081526040808320938516835292905220541690565b620001316200027b36600462001aa0565b62000f56565b620001316200029236600462001af2565b62000f72565b62000131620002a936600462001af2565b62001068565b62000131620002c036600462001b15565b6200114c565b62000131620002d736600462001b73565b6200125c565b620002e7620012d8565b609955565b620002f662001334565b609a546001600160a01b0386811660009081526097602090815260408083208c8516845290915290819020548151610120810190925273__$77c5a84c43428e206d5bf08427df63fefa$__9363b2aac4d2939081169291169080336001600160a01b031681526020018d6001600160a01b031681526020018c6001600160a01b031681526020018b81526020018a6001600160a01b0316815260200189815260200188815260200187815260200186620003b09062001c1a565b8152506040518463ffffffff1660e01b8152600401620003d39392919062001d8f565b602060405180830381865af4158015620003f1573d6000803e3d6000fd5b505050506040513d601f19601f8201168201806040525081019062000417919062001e57565b50846001600160a01b0316876001600160a01b0316620004343390565b6001600160a01b03167f5ad24af809b91037141dded9f0cdecfdda4acdd07a3724c10e0af52071842ee4878a6040516200047092919062001e71565b60405180910390a4620004836001606555565b5050505050505050565b62000497620012d8565b620004a3600062001396565b565b620004af62001334565b609a54604080516020810182528381529051639113366960e01b81526001600160a01b03909216600483015251602482015273__$965b9be9fc5ba89821c2195a8bf360e455$__9063911336699060440160006040518083038186803b1580156200051957600080fd5b505af41580156200052e573d6000803e3d6000fd5b50505050806200053b3390565b6001600160a01b03167f3c7d144304eb104ff177cb33b8f53ae73325ac0d7c7d88b2601085e9f3493b7960405160405180910390a36200057b6001606555565b50565b60006200059c6001600160a01b0384166380ac58cd60e01b620013e8565b620005ee5760405162461bcd60e51b815260206004820152601960248201527f4c4d3a434c503a434f4c4c454354494f4e5f4e4f545f4e46540000000000000060448201526064015b60405180910390fd5b609a60009054906101000a90046001600160a01b03166001600160a01b031663cfeed1816040518163ffffffff1660e01b8152600401602060405180830381865afa15801562000642573d6000803e3d6000fd5b505050506040513d601f19601f8201168201806040525081019062000668919062001ebb565b6040516375151b6360e01b81526001600160a01b03848116600483015291909116906375151b6390602401602060405180830381865afa158015620006b1573d6000803e3d6000fd5b505050506040513d601f19601f82011682018060405250810190620006d7919062001edb565b620007255760405162461bcd60e51b815260206004820152601d60248201527f4c4d3a434c503a41535345545f4e4f545f535550504f525445445f544f0000006044820152606401620005e5565b609a60009054906101000a90046001600160a01b03166001600160a01b0316635257b5666040518163ffffffff1660e01b8152600401602060405180830381865afa15801562000779573d6000803e3d6000fd5b505050506040513d601f19601f820116820180604052508101906200079f919062001ebb565b6040516375151b6360e01b81526001600160a01b03848116600483015291909116906375151b6390602401602060405180830381865afa158015620007e8573d6000803e3d6000fd5b505050506040513d601f19601f820116820180604052508101906200080e919062001edb565b6200085c5760405162461bcd60e51b815260206004820152601d60248201527f4c4d3a434c503a41535345545f4e4f545f535550504f525445445f49520000006044820152606401620005e5565b6001600160a01b03838116600090815260976020908152604080832086851684529091529020541615620008d35760405162461bcd60e51b815260206004820152601a60248201527f4c4d3a434c503a4c454e44494e475f504f4f4c5f4558495354530000000000006044820152606401620005e5565b609a546000906001600160a01b0316620008f56033546001600160a01b031690565b84856001600160a01b03166395d89b416040518163ffffffff1660e01b8152600401600060405180830381865afa15801562000935573d6000803e3d6000fd5b505050506040513d6000823e601f3d908101601f191682016040526200095f919081019062001eff565b6001600160a01b038716600090815260986020526040902054620009839062001410565b6040516020016200099692919062001f7f565b604051602081830303815290604052866001600160a01b03166395d89b416040518163ffffffff1660e01b8152600401600060405180830381865afa158015620009e4573d6000803e3d6000fd5b505050506040513d6000823e601f3d908101601f1916820160405262000a0e919081019062001eff565b6001600160a01b03881660009081526098602052604090205462000a329062001410565b60405160200162000a4592919062001fda565b604051602081830303815290604052609b60405162000a6490620017a4565b62000a759695949392919062002029565b604051809103906000f08015801562000a92573d6000803e3d6000fd5b5060405163095ea7b360e01b81526001600160a01b03808316600483015260001960248301529192509084169063095ea7b3906044016020604051808303816000875af115801562000ae8573d6000803e3d6000fd5b505050506040513d601f19601f8201168201806040525081019062000b0e919062001edb565b50836001600160a01b031663e985e9c5609a60009054906101000a90046001600160a01b03166001600160a01b031663536223646040518163ffffffff1660e01b8152600401602060405180830381865afa15801562000b72573d6000803e3d6000fd5b505050506040513d601f19601f8201168201806040525081019062000b98919062001ebb565b6040516001600160e01b031960e084901b1681526001600160a01b039091166004820152306024820152604401602060405180830381865afa15801562000be3573d6000803e3d6000fd5b505050506040513d601f19601f8201168201806040525081019062000c09919062001edb565b151560000362000ced57609a60009054906101000a90046001600160a01b03166001600160a01b031663536223646040518163ffffffff1660e01b8152600401602060405180830381865afa15801562000c67573d6000803e3d6000fd5b505050506040513d601f19601f8201168201806040525081019062000c8d919062001ebb565b604051631578b62760e11b81526001600160a01b0386811660048301529190911690632af16c4e90602401600060405180830381600087803b15801562000cd357600080fd5b505af115801562000ce8573d6000803e3d6000fd5b505050505b62000cfa848483620014aa565b6001600160a01b038316600090815260986020526040812080546001929062000d25908490620020aa565b90915550506040516001600160a01b038216907f2542f32ffb9d7022dcce911f06a04e1e188ce008c7842cbc0c6d00a6cb80389f90600090a290505b92915050565b600054610100900460ff161580801562000d885750600054600160ff909116105b8062000da45750303b15801562000da4575060005460ff166001145b62000e095760405162461bcd60e51b815260206004820152602e60248201527f496e697469616c697a61626c653a20636f6e747261637420697320616c72656160448201526d191e481a5b9a5d1a585b1a5e995960921b6064820152608401620005e5565b6000805460ff19166001179055801562000e2d576000805461ff0019166101001790555b62000e3762001511565b62000e4162001545565b62000e4b62001579565b609a80546001600160a01b0319166001600160a01b03861617905560998390558135609b556020820135609c556040820135609d556060820135609e55801562000ecf576000805461ff0019169055604051600181527f7f26b83ff96e1f2b6a682f133852f6798a09c465da95921460cefb38474024989060200160405180910390a15b50505050565b62000f016040518060800160405280600081526020016000815260200160008152602001600081525090565b5060408051608081018252609b548152609c546020820152609d5491810191909152609e54606082015290565b62000f38620012d8565b8051609b556020810151609c556040810151609d5560600151609e55565b62000f60620012d8565b62000f6d838383620014aa565b505050565b62000f7c62001334565b609a5460408051606081018252338152602081018590528082018490529051638ca12ed560e01b815273__$965b9be9fc5ba89821c2195a8bf360e455$__92638ca12ed59262000fdb926001600160a01b0390921691600401620020cc565b60006040518083038186803b15801562000ff457600080fd5b505af415801562001009573d6000803e3d6000fd5b5050505081620010163390565b6001600160a01b03167f2933fa64baa79bd560e7bfa5dff7e9093741560d60eadd92285cbf6225ee3617836040516200105191815260200190565b60405180910390a3620010646001606555565b5050565b6200107262001334565b609a5460408051606081018252338152602081018590528082018490529051634e0be51f60e11b815273__$77c5a84c43428e206d5bf08427df63fefa$__92639c17ca3e92620010d1926001600160a01b0390921691600401620020cc565b60006040518083038186803b158015620010ea57600080fd5b505af4158015620010ff573d6000803e3d6000fd5b50505050816200110c3390565b6001600160a01b03167f5c16de4f8b59bd9caf0f49a545f25819a895ed223294290b408242e72a59423160405160405180910390a3620010646001606555565b6200115662001334565b609a546040805160a081018252338152602081018790529081018590526060810184905273__$965b9be9fc5ba89821c2195a8bf360e455$__9163bd792520916001600160a01b039091169060808101620011b18662001c1a565b8152506040518363ffffffff1660e01b8152600401620011d392919062002107565b60006040518083038186803b158015620011ec57600080fd5b505af415801562001201573d6000803e3d6000fd5b50505050836200120e3390565b6001600160a01b03167fb426d1d8c1a5d04a33704d93058508396d26eddbf47fe1b0558c4e1448c24c17856040516200124991815260200190565b60405180910390a362000ecf6001606555565b62001266620012d8565b6001600160a01b038116620012cd5760405162461bcd60e51b815260206004820152602660248201527f4f776e61626c653a206e6577206f776e657220697320746865207a65726f206160448201526564647265737360d01b6064820152608401620005e5565b6200057b8162001396565b6033546001600160a01b03163314620004a35760405162461bcd60e51b815260206004820181905260248201527f4f776e61626c653a2063616c6c6572206973206e6f7420746865206f776e65726044820152606401620005e5565b600260655403620013885760405162461bcd60e51b815260206004820152601f60248201527f5265656e7472616e637947756172643a207265656e7472616e742063616c6c006044820152606401620005e5565b6002606555565b6001606555565b603380546001600160a01b038381166001600160a01b0319831681179093556040519116919082907f8be0079c531659141344cd1fd0a4f28419497f9722a3daafe3b4186f6b6457e090600090a35050565b6000620013f583620015a3565b8015620014095750620014098383620015db565b9392505050565b606060006200141f8362001666565b600101905060008167ffffffffffffffff811115620014425762001442620017e2565b6040519080825280601f01601f1916602001820160405280156200146d576020820181803683370190505b5090508181016020015b600019016f181899199a1a9b1b9c1cb0b131b232b360811b600a86061a8153600a85049450846200147757509392505050565b6001600160a01b038381166000818152609760209081526040808320878616808552925280832080546001600160a01b0319169587169586179055519092917f288817cea49f022db2036521d5e78e3cd16416913cf6a781d645930143dc31a491a4505050565b600054610100900460ff166200153b5760405162461bcd60e51b8152600401620005e5906200215f565b620004a362001745565b600054610100900460ff166200156f5760405162461bcd60e51b8152600401620005e5906200215f565b620004a36200177a565b600054610100900460ff16620004a35760405162461bcd60e51b8152600401620005e5906200215f565b6000620015b8826301ffc9a760e01b620015db565b801562000d615750620015d4826001600160e01b0319620015db565b1592915050565b604080516001600160e01b03198316602480830191909152825180830390910181526044909101909152602080820180516001600160e01b03166301ffc9a760e01b178152825160009392849283928392918391908a617530fa92503d915060005190508280156200164e575060208210155b80156200165b5750600081115b979650505050505050565b60008072184f03e93ff9f4daa797ed6e38ed64bf6a1f0160401b8310620016a65772184f03e93ff9f4daa797ed6e38ed64bf6a1f0160401b830492506040015b6d04ee2d6d415b85acef81000000008310620016d3576d04ee2d6d415b85acef8100000000830492506020015b662386f26fc100008310620016f257662386f26fc10000830492506010015b6305f5e10083106200170b576305f5e100830492506008015b61271083106200172057612710830492506004015b6064831062001733576064830492506002015b600a831062000d615760010192915050565b600054610100900460ff166200176f5760405162461bcd60e51b8152600401620005e5906200215f565b620004a33362001396565b600054610100900460ff166200138f5760405162461bcd60e51b8152600401620005e5906200215f565b612c0080620021ab83390190565b600060208284031215620017c557600080fd5b5035919050565b6001600160a01b03811681146200057b57600080fd5b634e487b7160e01b600052604160045260246000fd5b60405160c0810167ffffffffffffffff811182821017156200181e576200181e620017e2565b60405290565b604051601f8201601f1916810167ffffffffffffffff81118282101715620018505762001850620017e2565b604052919050565b600060c082840312156200186b57600080fd5b50919050565b600080600080600080600080610100898b0312156200188f57600080fd5b6200189b8935620017cc565b883597506020890135620018af81620017cc565b9650604089013595506060890135620018c881620017cc565b9450608089013567ffffffffffffffff80821115620018e657600080fd5b818b0191508b601f830112620018fb57600080fd5b813581811115620019105762001910620017e2565b8060051b620019226020820162001824565b9182526020818501810192908101908f8411156200193f57600080fd5b6020860195505b838610156200196357853582526020958601959091019062001946565b985050505060a08b0135945060c08b0135935060e08b01359150808211156200198b57600080fd5b506200199a8b828c0162001858565b9150509295985092959890939650565b60008060408385031215620019be57600080fd5b8235620019cb81620017cc565b91506020830135620019dd81620017cc565b809150509250929050565b600080600083850360c0811215620019ff57600080fd5b843562001a0c81620017cc565b9350602085013592506080603f198201121562001a2857600080fd5b506040840190509250925092565b60006080828403121562001a4957600080fd5b6040516080810181811067ffffffffffffffff8211171562001a6f5762001a6f620017e2565b8060405250823581526020830135602082015260408301356040820152606083013560608201528091505092915050565b60008060006060848603121562001ab657600080fd5b833562001ac381620017cc565b9250602084013562001ad581620017cc565b9150604084013562001ae781620017cc565b809150509250925092565b6000806040838503121562001b0657600080fd5b50508035926020909101359150565b6000806000806080858703121562001b2c57600080fd5b843593506020850135925060408501359150606085013567ffffffffffffffff81111562001b5957600080fd5b62001b678782880162001858565b91505092959194509250565b60006020828403121562001b8657600080fd5b81356200140981620017cc565b600067ffffffffffffffff82111562001bb05762001bb0620017e2565b50601f01601f191660200190565b600082601f83011262001bd057600080fd5b813562001be762001be18262001b93565b62001824565b81815284602083860101111562001bfd57600080fd5b816020850160208301376000918101602001919091529392505050565b600060c0823603121562001c2d57600080fd5b62001c37620017f8565b823560ff8116811462001c4957600080fd5b808252506020830135602082015260408301356040820152606083013560608201526080830135608082015260a083013567ffffffffffffffff81111562001c9057600080fd5b62001c9e3682860162001bbe565b60a08301525092915050565b600081518084526020808501945080840160005b8381101562001cdc5781518752958201959082019060010162001cbe565b509495945050505050565b60005b8381101562001d0457818101518382015260200162001cea565b50506000910152565b6000815180845262001d2781602086016020860162001ce7565b601f01601f19169290920160200192915050565b60ff815116825260208101516020830152604081015160408301526060810151606083015260808101516080830152600060a082015160c060a085015262001d8760c085018262001d0d565b949350505050565b6001600160a01b0384811682528381166020830152606060408301819052835190911690820152600060208301516001600160a01b03811660808401525060408301516001600160a01b03811660a084015250606083015160c083015260808301516001600160a01b03811660e08401525060a0830151610120610100818186015262001e2161018086018462001caa565b60c08701519286019290925260e0860151610140860152850151848203605f19016101608601529091506200165b828262001d3b565b60006020828403121562001e6a57600080fd5b5051919050565b604080825283519082018190526000906020906060840190828701845b8281101562001eac5781518452928401929084019060010162001e8e565b50505092019290925292915050565b60006020828403121562001ece57600080fd5b81516200140981620017cc565b60006020828403121562001eee57600080fd5b815180151581146200140957600080fd5b60006020828403121562001f1257600080fd5b815167ffffffffffffffff81111562001f2a57600080fd5b8201601f8101841362001f3c57600080fd5b805162001f4d62001be18262001b93565b81815285602083850101111562001f6357600080fd5b62001f7682602083016020860162001ce7565b95945050505050565b6503632a7232a160d51b81526000835162001fa281600685016020880162001ce7565b69204c656e64696e67202360b01b600691840191820152835162001fce81601084016020880162001ce7565b01601001949350505050565b621b195360ea1b81526000835162001ffa81600385016020880162001ce7565b602d60f81b60039184019182015283516200201d81600484016020880162001ce7565b01600401949350505050565b6001600160a01b03878116825286811660208301528516604082015261012060608201819052600090620020608382018762001d0d565b9050828103608084015262002076818662001d0d565b915050825460a0830152600183015460c0830152600283015460e08301526003830154610100830152979650505050505050565b8082018082111562000d6157634e487b7160e01b600052601160045260246000fd5b6001600160a01b03831681526080810162001409602083018480516001600160a01b0316825260208082015190830152604090810151910152565b600060018060a01b03808516835260406020840152808451166040840152506020830151606083015260408301516080830152606083015160a0830152608083015160a060c084015262001f7660e084018262001d3b565b6020808252602b908201527f496e697469616c697a61626c653a20636f6e7472616374206973206e6f74206960408201526a6e697469616c697a696e6760a81b60608201526080019056fe6101006040523480156200001257600080fd5b5060405162002c0038038062002c008339810160408190526200003591620005a7565b83838360036200004683826200072c565b5060046200005582826200072c565b5050506000806200006c83620001ad60201b60201c565b91509150816200007e57601262000080565b805b60ff1660a05250506001600160a01b03166080526200009f3362000292565b856001600160a01b03166304d21cee6040518163ffffffff1660e01b8152600401602060405180830381865afa158015620000de573d6000803e3d6000fd5b505050506040513d601f19601f82011682018060405250810190620001049190620007f8565b6001600160a01b0316336001600160a01b0316146200015c5760405162461bcd60e51b815260206004820152601060248201526f13140e90ce93d3931657d3505492d15560821b604482015260640160405180910390fd5b6001600160a01b0380871660c052841660e0528051600a556020810151600b556040810151600c556060810151600d5562000196620002e4565b620001a18562000292565b50505050505062000857565b60408051600481526024810182526020810180516001600160e01b031663313ce56760e01b17905290516000918291829182916001600160a01b03871691620001f6916200081f565b600060405180830381855afa9150503d806000811462000233576040519150601f19603f3d011682016040523d82523d6000602084013e62000238565b606091505b50915091508180156200024d57506020815110155b1562000285576000818060200190518101906200026b91906200083d565b905060ff811162000283576001969095509350505050565b505b5060009485945092505050565b600580546001600160a01b038381166001600160a01b0319831681179093556040519116919082907f8be0079c531659141344cd1fd0a4f28419497f9722a3daafe3b4186f6b6457e090600090a35050565b60c0516001600160a01b0316635257b5666040518163ffffffff1660e01b8152600401602060405180830381865afa15801562000325573d6000803e3d6000fd5b505050506040513d601f19601f820116820180604052508101906200034b9190620007f8565b6001600160a01b031663b44ee73a60e0516200036c6200042160201b60201c565b6006546040516001600160e01b031960e086901b1681526001600160a01b03909316600484015260248301919091526044820152606401602060405180830381865afa158015620003c1573d6000803e3d6000fd5b505050506040513d601f19601f82011682018060405250810190620003e791906200083d565b60078190556040519081527fa4ecc9c1ce63bce38b008f9aa955334b99fa741c1dee15bf34ad19a4c1c9e1699060200160405180910390a1565b60e0516040516370a0823160e01b81523060048201526000916001600160a01b0316906370a0823190602401602060405180830381865afa1580156200046b573d6000803e3d6000fd5b505050506040513d601f19601f820116820180604052508101906200049191906200083d565b905090565b6001600160a01b0381168114620004ac57600080fd5b50565b634e487b7160e01b600052604160045260246000fd5b604051608081016001600160401b0381118282101715620004ea57620004ea620004af565b60405290565b60005b838110156200050d578181015183820152602001620004f3565b50506000910152565b600082601f8301126200052857600080fd5b81516001600160401b0380821115620005455762000545620004af565b604051601f8301601f19908116603f01168101908282118183101715620005705762000570620004af565b816040528381528660208588010111156200058a57600080fd5b6200059d846020830160208901620004f0565b9695505050505050565b600080600080600080868803610120811215620005c357600080fd5b8751620005d08162000496565b6020890151909750620005e38162000496565b6040890151909650620005f68162000496565b60608901519095506001600160401b03808211156200061457600080fd5b620006228b838c0162000516565b955060808a01519150808211156200063957600080fd5b50620006488a828b0162000516565b9350506080609f19820112156200065e57600080fd5b5062000669620004c5565b60a0880151815260c0880151602082015260e088015160408201526101008801516060820152809150509295509295509295565b600181811c90821680620006b257607f821691505b602082108103620006d357634e487b7160e01b600052602260045260246000fd5b50919050565b601f8211156200072757600081815260208120601f850160051c81016020861015620007025750805b601f850160051c820191505b8181101562000723578281556001016200070e565b5050505b505050565b81516001600160401b03811115620007485762000748620004af565b62000760816200075984546200069d565b84620006d9565b602080601f8311600181146200079857600084156200077f5750858301515b600019600386901b1c1916600185901b17855562000723565b600085815260208120601f198616915b82811015620007c957888601518255948401946001909101908401620007a8565b5085821015620007e85787850151600019600388901b60f8161c191681555b5050505050600190811b01905550565b6000602082840312156200080b57600080fd5b8151620008188162000496565b9392505050565b6000825162000833818460208701620004f0565b9190910192915050565b6000602082840312156200085057600080fd5b5051919050565b60805160a05160c05160e051612314620008ec6000396000818161076401528181610853015281816109b501528181610ab001528181610d06015281816114790152818161170201526117b00152600081816106d4015281816111cd015281816113e90152818161157601526116e0015260006102fb015260008181610327015281816119610152611a2101526123146000f3fe608060405234801561001057600080fd5b50600436106102535760003560e01c80638da5cb5b11610146578063ba087652116100c3578063ce96cb7711610087578063ce96cb7714610530578063d905777e14610543578063dd62ed3e14610556578063e2c6743914610569578063ef8b30f71461051d578063f2fde38b1461057157600080fd5b8063ba087652146104da578063ba1c5e80146104ed578063bedb86fb146104f5578063c63d75b614610508578063c6e6f5921461051d57600080fd5b8063a663f8301161010a578063a663f83014610453578063a9059cbb14610466578063b0d9658014610479578063b3d7f6b9146104b4578063b460af94146104c757600080fd5b80638da5cb5b1461040157806394bf804d1461041257806395d89b4114610425578063a22586941461042d578063a457c2d71461044057600080fd5b806339509351116101d4578063545039c611610198578063545039c6146103a25780636e553f65146103b557806370a08231146103c8578063715018a6146103f157806384bdc9a8146103f957600080fd5b8063395093511461035f578063402d267d146103725780634a417a53146103855780634cdad506146102885780635170598d1461038d57600080fd5b806314a6bf0f1161021b57806314a6bf0f146102d157806318160ddd146102d957806323b872dd146102e1578063313ce567146102f457806338d52e0f1461032557600080fd5b806301e1d1141461025857806306fdde031461027357806307a2d13a14610288578063095ea7b31461029b5780630a28a477146102be575b600080fd5b610260610584565b6040519081526020015b60405180910390f35b61027b6105a0565b60405161026a9190611efa565b610260610296366004611f2d565b610632565b6102ae6102a9366004611f5b565b610645565b604051901515815260200161026a565b6102606102cc366004611f2d565b61065d565b600654610260565b600254610260565b6102ae6102ef366004611f87565b61066a565b60405160ff7f000000000000000000000000000000000000000000000000000000000000000016815260200161026a565b7f00000000000000000000000000000000000000000000000000000000000000005b6040516001600160a01b03909116815260200161026a565b6102ae61036d366004611f5b565b610690565b610260610380366004611fc8565b6106b2565b6102606106d0565b6103a061039b366004611fe5565b610804565b005b6103a06103b0366004612059565b61082a565b6102606103c3366004612094565b6108ad565b6102606103d6366004611fc8565b6001600160a01b031660009081526020819052604090205490565b6103a0610925565b610260610939565b6005546001600160a01b0316610347565b610260610420366004612094565b61096f565b61027b610989565b6103a061043b3660046120c4565b610998565b6102ae61044e366004611f5b565b610a0d565b6103a0610461366004612059565b610a93565b6102ae610474366004611f5b565b610af6565b610481610b04565b60405161026a91908151815260208083015190820152604080830151908201526060918201519181019190915260800190565b6102606104c2366004611f2d565b610b5c565b6102606104d53660046120f9565b610b69565b6102606104e83660046120f9565b610be5565b600754610260565b6103a0610503366004612149565b610c59565b610260610516366004611fc8565b5060001990565b61026061052b366004611f2d565b610c74565b61026061053e366004611fc8565b610c81565b610260610551366004611fc8565b610ca5565b610260610564366004612166565b610cc3565b610260610cee565b6103a061057f366004611fc8565b610d3d565b600061058e610cee565b60065461059b91906121aa565b905090565b6060600380546105af906121bd565b80601f01602080910402602001604051908101604052809291908181526020018280546105db906121bd565b80156106285780601f106105fd57610100808354040283529160200191610628565b820191906000526020600020905b81548152906001019060200180831161060b57829003601f168201915b5050505050905090565b600061063f826000610db6565b92915050565b600033610653818585610de9565b5060019392505050565b600061063f826001610f0d565b600033610678858285610f3f565b610683858585610fb3565b60019150505b9392505050565b6000336106538185856106a38383610cc3565b6106ad91906121aa565b610de9565b60006106bc611157565b6106c757600061063f565b60001992915050565b60007f00000000000000000000000000000000000000000000000000000000000000006001600160a01b0316635257b5666040518163ffffffff1660e01b8152600401602060405180830381865afa158015610730573d6000803e3d6000fd5b505050506040513d601f19601f8201168201806040525081019061075491906121f7565b6001600160a01b031663fb4ffce17f000000000000000000000000000000000000000000000000000000000000000061078b610cee565b6006546040516001600160e01b031960e086901b1681526001600160a01b039093166004840152602483019190915260448201526064015b602060405180830381865afa1580156107e0573d6000803e3d6000fd5b505050506040513d601f19601f8201168201806040525081019061059b9190612214565b61080c611171565b8051600a556020810151600b556040810151600c5560600151600d55565b6108326111cb565b61083a61129d565b61087b843061084984876121aa565b6001600160a01b037f0000000000000000000000000000000000000000000000000000000000000000169291906112e1565b6108876000848461134c565b8260066000828254610899919061222d565b909155506108a790506113e7565b50505050565b60006108b8826106b2565b83111561090c5760405162461bcd60e51b815260206004820152601e60248201527f455243343632363a206465706f736974206d6f7265207468616e206d6178000060448201526064015b60405180910390fd5b600061091784610c74565b905061068933848684611552565b61092d611171565b610937600061161f565b565b600080610944610584565b111561096c57610952610584565b6006546008546109629190612240565b61059b919061226d565b90565b60008061097b84610b5c565b905061068933848387611552565b6060600480546105af906121bd565b6109a06111cb565b6109a861129d565b6109dc6001600160a01b037f0000000000000000000000000000000000000000000000000000000000000000168484611671565b6109e86001838361134c565b81600660008282546109fa91906121aa565b90915550610a0890506113e7565b505050565b60003381610a1b8286610cc3565b905083811015610a7b5760405162461bcd60e51b815260206004820152602560248201527f45524332303a2064656372656173656420616c6c6f77616e63652062656c6f77604482015264207a65726f60d81b6064820152608401610903565b610a888286868403610de9565b506001949350505050565b610a9b6111cb565b610aa361129d565b610ad86001600160a01b037f0000000000000000000000000000000000000000000000000000000000000000168530866112e1565b610ae46000828461134c565b8060066000828254610899919061222d565b600033610653818585610fb3565b610b2f6040518060800160405280600081526020016000815260200160008152602001600081525090565b5060408051608081018252600a548152600b546020820152600c5491810191909152600d54606082015290565b600061063f826001610db6565b6000610b7482610c81565b841115610bc35760405162461bcd60e51b815260206004820152601f60248201527f455243343632363a207769746864726177206d6f7265207468616e206d6178006044820152606401610903565b6000610bce8561065d565b9050610bdd33858588856116a1565b949350505050565b6000610bf082610ca5565b841115610c3f5760405162461bcd60e51b815260206004820152601d60248201527f455243343632363a2072656465656d206d6f7265207468616e206d61780000006044820152606401610903565b6000610c4a85610632565b9050610bdd33858584896116a1565b610c61611171565b6009805460ff1916911515919091179055565b600061063f826000610f0d565b6001600160a01b03811660009081526020819052604081205461063f906000610db6565b6001600160a01b03811660009081526020819052604081205461063f565b6001600160a01b03918216600090815260016020908152604080832093909416825291909152205490565b6040516370a0823160e01b81523060048201526000907f00000000000000000000000000000000000000000000000000000000000000006001600160a01b0316906370a08231906024016107c3565b610d45611171565b6001600160a01b038116610daa5760405162461bcd60e51b815260206004820152602660248201527f4f776e61626c653a206e6577206f776e657220697320746865207a65726f206160448201526564647265737360d01b6064820152608401610903565b610db38161161f565b50565b600080610dc260025490565b90508015610de357610dde610dd5610584565b8590838661182d565b610bdd565b83610bdd565b6001600160a01b038316610e4b5760405162461bcd60e51b8152602060048201526024808201527f45524332303a20617070726f76652066726f6d20746865207a65726f206164646044820152637265737360e01b6064820152608401610903565b6001600160a01b038216610eac5760405162461bcd60e51b815260206004820152602260248201527f45524332303a20617070726f766520746f20746865207a65726f206164647265604482015261737360f01b6064820152608401610903565b6001600160a01b0383811660008181526001602090815260408083209487168084529482529182902085905590518481527f8c5be1e5ebec7d5bd14f71427d1e84f3dd0314c0f7b2291e5b200ac8c7c3b925910160405180910390a3505050565b600080610f1960025490565b9050831580610f26575080155b610de357610dde81610f36610584565b8691908661182d565b6000610f4b8484610cc3565b905060001981146108a75781811015610fa65760405162461bcd60e51b815260206004820152601d60248201527f45524332303a20696e73756666696369656e7420616c6c6f77616e63650000006044820152606401610903565b6108a78484848403610de9565b6001600160a01b0383166110175760405162461bcd60e51b815260206004820152602560248201527f45524332303a207472616e736665722066726f6d20746865207a65726f206164604482015264647265737360d81b6064820152608401610903565b6001600160a01b0382166110795760405162461bcd60e51b815260206004820152602360248201527f45524332303a207472616e7366657220746f20746865207a65726f206164647260448201526265737360e81b6064820152608401610903565b6001600160a01b038316600090815260208190526040902054818110156110f15760405162461bcd60e51b815260206004820152602660248201527f45524332303a207472616e7366657220616d6f756e7420657863656564732062604482015265616c616e636560d01b6064820152608401610903565b6001600160a01b03848116600081815260208181526040808320878703905593871680835291849020805487019055925185815290927fddf252ad1be2c89b69c2b068fc378daa952ba7f163c4a11628f55a4df523b3ef910160405180910390a36108a7565b600080611162610584565b118061059b5750506002541590565b6005546001600160a01b031633146109375760405162461bcd60e51b815260206004820181905260248201527f4f776e61626c653a2063616c6c6572206973206e6f7420746865206f776e65726044820152606401610903565b7f00000000000000000000000000000000000000000000000000000000000000006001600160a01b03166304d21cee6040518163ffffffff1660e01b8152600401602060405180830381865afa158015611229573d6000803e3d6000fd5b505050506040513d601f19601f8201168201806040525081019061124d91906121f7565b6001600160a01b0316336001600160a01b0316146109375760405162461bcd60e51b815260206004820152600d60248201526c13140e9393d517d3505492d155609a1b6044820152606401610903565b60095460ff16156109375760405162461bcd60e51b815260206004820152600e60248201526d13140e9413d3d317d4105554d15160921b6044820152606401610903565b6040516001600160a01b03808516602483015283166044820152606481018290526108a79085906323b872dd60e01b906084015b60408051601f198184030181529190526020810180516001600160e01b03166001600160e01b03199093169290921790915261188a565b8215611396578160065461136091906121aa565b61136a8284612240565b60085460065461137a9190612240565b61138491906121aa565b61138e919061226d565b600855505050565b816006546113a4919061222d565b6000036113b5576000600855505050565b816006546113c3919061222d565b6113cd8284612240565b6008546006546113dd9190612240565b611384919061222d565b7f00000000000000000000000000000000000000000000000000000000000000006001600160a01b0316635257b5666040518163ffffffff1660e01b8152600401602060405180830381865afa158015611445573d6000803e3d6000fd5b505050506040513d601f19601f8201168201806040525081019061146991906121f7565b6001600160a01b031663b44ee73a7f00000000000000000000000000000000000000000000000000000000000000006114a0610cee565b6006546040516001600160e01b031960e086901b1681526001600160a01b03909316600484015260248301919091526044820152606401602060405180830381865afa1580156114f4573d6000803e3d6000fd5b505050506040513d601f19601f820116820180604052508101906115189190612214565b60078190556040519081527fa4ecc9c1ce63bce38b008f9aa955334b99fa741c1dee15bf34ad19a4c1c9e1699060200160405180910390a1565b61155a61129d565b73__$5201a97c05ba6aa659e2f36a933dd51801$__63a7b0f9417f000000000000000000000000000000000000000000000000000000000000000061159d610584565b6002546040516001600160e01b031960e086901b1681526001600160a01b039093166004840152602483019190915260448201526064810185905260840160006040518083038186803b1580156115f357600080fd5b505af4158015611607573d6000803e3d6000fd5b505050506116178484848461195c565b6108a76113e7565b600580546001600160a01b038381166001600160a01b0319831681179093556040519116919082907f8be0079c531659141344cd1fd0a4f28419497f9722a3daafe3b4186f6b6457e090600090a35050565b6040516001600160a01b038316602482015260448101829052610a0890849063a9059cbb60e01b90606401611315565b6116a961129d565b600d546006546040516370a0823160e01b815230600482015273__$5201a97c05ba6aa659e2f36a933dd51801$__9263b5821ff8927f0000000000000000000000000000000000000000000000000000000000000000927f00000000000000000000000000000000000000000000000000000000000000006001600160a01b0316906370a0823190602401602060405180830381865afa158015611751573d6000803e3d6000fd5b505050506040513d601f19601f820116820180604052508101906117759190612214565b60405160e086901b6001600160e01b03191681526001600160a01b0394851660048201526024810193909352604483019190915260648201527f0000000000000000000000000000000000000000000000000000000000000000909116608482015260a4810185905260c40160006040518083038186803b1580156117f957600080fd5b505af415801561180d573d6000803e3d6000fd5b5050505061181e85858585856119ee565b6118266113e7565b5050505050565b60008061183b868686611aae565b905060018360028111156118515761185161228f565b14801561186e57506000848061186957611869612257565b868809115b156118815761187e6001826121aa565b90505b95945050505050565b60006118df826040518060400160405280602081526020017f5361666545524332303a206c6f772d6c6576656c2063616c6c206661696c6564815250856001600160a01b0316611b5d9092919063ffffffff16565b805190915015610a0857808060200190518101906118fd91906122a5565b610a085760405162461bcd60e51b815260206004820152602a60248201527f5361666545524332303a204552433230206f7065726174696f6e20646964206e6044820152691bdd081cdd58d8d9595960b21b6064820152608401610903565b6119887f00000000000000000000000000000000000000000000000000000000000000008530856112e1565b6119928382611b6c565b826001600160a01b0316846001600160a01b03167fdcbc1c05240f31ff3ad067ef1ee35ce4997762752e3a095284754544f4c709d784846040516119e0929190918252602082015260400190565b60405180910390a350505050565b826001600160a01b0316856001600160a01b031614611a1257611a12838683610f3f565b611a1c8382611c2b565b611a477f00000000000000000000000000000000000000000000000000000000000000008584611671565b826001600160a01b0316846001600160a01b0316866001600160a01b03167ffbde797d201c681b91056529119e0b02407c7bb96a4a2c75c01fc9667232c8db8585604051611a9f929190918252602082015260400190565b60405180910390a45050505050565b6000808060001985870985870292508281108382030391505080600003611ae857838281611ade57611ade612257565b0492505050610689565b808411611af457600080fd5b60008486880960026001871981018816978890046003810283188082028403028082028403028082028403028082028403028082028403029081029092039091026000889003889004909101858311909403939093029303949094049190911702949350505050565b6060610bdd8484600085611d5d565b6001600160a01b038216611bc25760405162461bcd60e51b815260206004820152601f60248201527f45524332303a206d696e7420746f20746865207a65726f2061646472657373006044820152606401610903565b8060026000828254611bd491906121aa565b90915550506001600160a01b038216600081815260208181526040808320805486019055518481527fddf252ad1be2c89b69c2b068fc378daa952ba7f163c4a11628f55a4df523b3ef910160405180910390a35050565b6001600160a01b038216611c8b5760405162461bcd60e51b815260206004820152602160248201527f45524332303a206275726e2066726f6d20746865207a65726f206164647265736044820152607360f81b6064820152608401610903565b6001600160a01b03821660009081526020819052604090205481811015611cff5760405162461bcd60e51b815260206004820152602260248201527f45524332303a206275726e20616d6f756e7420657863656564732062616c616e604482015261636560f01b6064820152608401610903565b6001600160a01b0383166000818152602081815260408083208686039055600280548790039055518581529192917fddf252ad1be2c89b69c2b068fc378daa952ba7f163c4a11628f55a4df523b3ef910160405180910390a3505050565b606082471015611dbe5760405162461bcd60e51b815260206004820152602660248201527f416464726573733a20696e73756666696369656e742062616c616e636520666f6044820152651c8818d85b1b60d21b6064820152608401610903565b600080866001600160a01b03168587604051611dda91906122c2565b60006040518083038185875af1925050503d8060008114611e17576040519150601f19603f3d011682016040523d82523d6000602084013e611e1c565b606091505b5091509150611e2d87838387611e38565b979650505050505050565b60608315611ea7578251600003611ea0576001600160a01b0385163b611ea05760405162461bcd60e51b815260206004820152601d60248201527f416464726573733a2063616c6c20746f206e6f6e2d636f6e74726163740000006044820152606401610903565b5081610bdd565b610bdd8383815115611ebc5781518083602001fd5b8060405162461bcd60e51b81526004016109039190611efa565b60005b83811015611ef1578181015183820152602001611ed9565b50506000910152565b6020815260008251806020840152611f19816040850160208701611ed6565b601f01601f19169190910160400192915050565b600060208284031215611f3f57600080fd5b5035919050565b6001600160a01b0381168114610db357600080fd5b60008060408385031215611f6e57600080fd5b8235611f7981611f46565b946020939093013593505050565b600080600060608486031215611f9c57600080fd5b8335611fa781611f46565b92506020840135611fb781611f46565b929592945050506040919091013590565b600060208284031215611fda57600080fd5b813561068981611f46565b600060808284031215611ff757600080fd5b6040516080810181811067ffffffffffffffff8211171561202857634e487b7160e01b600052604160045260246000fd5b8060405250823581526020830135602082015260408301356040820152606083013560608201528091505092915050565b6000806000806080858703121561206f57600080fd5b843561207a81611f46565b966020860135965060408601359560600135945092505050565b600080604083850312156120a757600080fd5b8235915060208301356120b981611f46565b809150509250929050565b6000806000606084860312156120d957600080fd5b83356120e481611f46565b95602085013595506040909401359392505050565b60008060006060848603121561210e57600080fd5b83359250602084013561212081611f46565b9150604084013561213081611f46565b809150509250925092565b8015158114610db357600080fd5b60006020828403121561215b57600080fd5b81356106898161213b565b6000806040838503121561217957600080fd5b823561218481611f46565b915060208301356120b981611f46565b634e487b7160e01b600052601160045260246000fd5b8082018082111561063f5761063f612194565b600181811c908216806121d157607f821691505b6020821081036121f157634e487b7160e01b600052602260045260246000fd5b50919050565b60006020828403121561220957600080fd5b815161068981611f46565b60006020828403121561222657600080fd5b5051919050565b8181038181111561063f5761063f612194565b808202811582820484141761063f5761063f612194565b634e487b7160e01b600052601260045260246000fd5b60008261228a57634e487b7160e01b600052601260045260246000fd5b500490565b634e487b7160e01b600052602160045260246000fd5b6000602082840312156122b757600080fd5b81516106898161213b565b600082516122d4818460208701611ed6565b919091019291505056fea264697066735822122035af59514cff4bd3156d79b215507926da9aaf90401aac77064de6504fce71c564736f6c63430008130033a2646970667358221220031fcd5f057494b9d22f612badb6f5baa618c9f5881fe5e6ed090a234283dab964736f6c63430008130033",
  "linkReferences": {
    "contracts/libraries/logic/BorrowLogic.sol": {
      "BorrowLogic": [
        {
          "length": 20,
          "start": 1052
        },
        {
          "length": 20,
          "start": 4491
        }
      ]
    },
    "contracts/libraries/logic/LiquidationLogic.sol": {
      "LiquidationLogic": [
        {
          "length": 20,
          "start": 1489
        },
        {
          "length": 20,
          "start": 4245
        },
        {
          "length": 20,
          "start": 4714
        }
      ]
    },
    "contracts/libraries/logic/ValidationLogic.sol": {
      "ValidationLogic": [
        {
          "length": 20,
          "start": 16609
        },
        {
          "length": 20,
          "start": 16969
        }
      ]
    }
  },
  "deployedLinkReferences": {
    "contracts/libraries/logic/BorrowLogic.sol": {
      "BorrowLogic": [
        {
          "length": 20,
          "start": 814
        },
        {
          "length": 20,
          "start": 4253
        }
      ]
    },
    "contracts/libraries/logic/LiquidationLogic.sol": {
      "LiquidationLogic": [
        {
          "length": 20,
          "start": 1251
        },
        {
          "length": 20,
          "start": 4007
        },
        {
          "length": 20,
          "start": 4476
        }
      ]
    },
    "contracts/libraries/logic/ValidationLogic.sol": {
      "ValidationLogic": [
        {
          "length": 20,
          "start": 16371
        },
        {
          "length": 20,
          "start": 16731
        }
      ]
    }
  }
}