{
  "_format": "hh-sol-artifact-1",
  "contractName": "LendingGauge",
  "sourceName": "contracts/protocol/Gauges/LendingGauge.sol",
  "abi": [
    {
      "inputs": [
        {
          "internalType": "contract IAddressesProvider",
          "name": "addressProvider",
          "type": "address"
        },
        {
          "internalType": "address",
          "name": "lpToken_",
          "type": "address"
        }
      ],
      "stateMutability": "nonpayable",
      "type": "constructor"
    },
    {
      "inputs": [],
      "name": "balanceOf",
      "outputs": [
        {
          "internalType": "uint256",
          "name": "",
          "type": "uint256"
        }
      ],
      "stateMutability": "view",
      "type": "function"
    },
    {
      "inputs": [],
      "name": "claim",
      "outputs": [
        {
          "internalType": "uint256",
          "name": "",
          "type": "uint256"
        }
      ],
      "stateMutability": "nonpayable",
      "type": "function"
    },
    {
      "inputs": [
        {
          "internalType": "uint256",
          "name": "amount",
          "type": "uint256"
        }
      ],
      "name": "deposit",
      "outputs": [],
      "stateMutability": "nonpayable",
      "type": "function"
    },
    {
      "inputs": [
        {
          "internalType": "address",
          "name": "user",
          "type": "address"
        }
      ],
      "name": "kick",
      "outputs": [],
      "stateMutability": "nonpayable",
      "type": "function"
    },
    {
      "inputs": [],
      "name": "lpToken",
      "outputs": [
        {
          "internalType": "address",
          "name": "",
          "type": "address"
        }
      ],
      "stateMutability": "view",
      "type": "function"
    },
    {
      "inputs": [],
      "name": "totalSupply",
      "outputs": [
        {
          "internalType": "uint256",
          "name": "",
          "type": "uint256"
        }
      ],
      "stateMutability": "view",
      "type": "function"
    },
    {
      "inputs": [
        {
          "internalType": "uint256",
          "name": "amount",
          "type": "uint256"
        }
      ],
      "name": "withdraw",
      "outputs": [],
      "stateMutability": "nonpayable",
      "type": "function"
    },
    {
      "inputs": [],
      "name": "workingBalanceOf",
      "outputs": [
        {
          "internalType": "uint256",
          "name": "",
          "type": "uint256"
        }
      ],
      "stateMutability": "view",
      "type": "function"
    },
    {
      "inputs": [],
      "name": "workingSupply",
      "outputs": [
        {
          "internalType": "uint256",
          "name": "",
          "type": "uint256"
        }
      ],
      "stateMutability": "view",
      "type": "function"
    },
    {
      "inputs": [],
      "name": "writeTotalWeightHistory",
      "outputs": [],
      "stateMutability": "nonpayable",
      "type": "function"
    }
  ],
  "bytecode": "0x60806040523480156200001157600080fd5b50604051620019393803806200193983398101604081905262000034916200007f565b600080546001600160a01b039384166001600160a01b03199182161790915560078054929093169116179055620000be565b6001600160a01b03811681146200007c57600080fd5b50565b600080604083850312156200009357600080fd5b8251620000a08162000066565b6020840151909250620000b38162000066565b809150509250929050565b61186b80620000ce6000396000f3fe608060405234801561001057600080fd5b506004361061009e5760003560e01c806387da75ef1161006657806387da75ef1461010b57806396c5517514610113578063b6b55f2514610126578063c8562f7214610139578063ca1763c81461014157600080fd5b806318160ddd146100a35780632e1a7d4d146100be5780634e71d92d146100d35780635fcbd285146100db578063722713f7146100f6575b600080fd5b6100ab610149565b6040519081526020015b60405180910390f35b6100d16100cc36600461151b565b6101bb565b005b6100ab610273565b6007546040516001600160a01b0390911681526020016100b5565b336000908152600160205260409020546100ab565b6100d1610c46565b6100d1610121366004611549565b610d8b565b6100d161013436600461151b565b610e85565b6005546100ab565b6100ab610ecb565b6007546040516370a0823160e01b81523060048201526000916001600160a01b0316906370a0823190602401602060405180830381865afa158015610192573d6000803e3d6000fd5b505050506040513d601f19601f820116820180604052508101906101b6919061156d565b905090565b3360009081526001602052604090205481111561022b5760405162461bcd60e51b815260206004820152602360248201527f576974686472617720616d6f756e7420686967686572207468616e2062616c616044820152626e636560e81b60648201526084015b60405180910390fd5b336000908152600160205260408120805483929061024a90849061159c565b90915550610259905033610f2b565b600754610270906001600160a01b0316338361114a565b50565b600061027e33610f2b565b60008060009054906101000a90046001600160a01b03166001600160a01b03166308b0308a6040518163ffffffff1660e01b8152600401602060405180830381865afa1580156102d2573d6000803e3d6000fd5b505050506040513d601f19601f820116820180604052508101906102f691906115af565b905060008060009054906101000a90046001600160a01b03166001600160a01b03166315b9ba5d6040518163ffffffff1660e01b8152600401602060405180830381865afa15801561034c573d6000803e3d6000fd5b505050506040513d601f19601f8201168201806040525081019061037091906115af565b33600090815260026020526040812054919250819003610394576000935050505090565b3360009081526004602052604081205490036104665733600090815260026020526040812080546001600160a01b03861692635487c57792916103d9576103d96115cc565b9060005260206000209060020201600101546040518263ffffffff1660e01b815260040161040991815260200190565b602060405180830381865afa158015610426573d6000803e3d6000fd5b505050506040513d601f19601f8201168201806040525081019061044a919061156d565b6104559060016115e2565b336000908152600460205260409020555b60008060005b6032811015610b355760046000336001600160a01b03166001600160a01b0316815260200190815260200160002054915061052a60405180608001604052806048815260200161179760489139604051635487c57760e01b8152426004820152839085906001600160a01b038b1690635487c57790602401602060405180830381865afa158015610501573d6000803e3d6000fd5b505050506040513d601f19601f82011682018060405250810190610525919061156d565b6111b2565b604051635487c57760e01b81524260048201526001600160a01b03871690635487c57790602401602060405180830381865afa15801561056e573d6000803e3d6000fd5b505050506040513d601f19601f82011682018060405250810190610592919061156d565b821015610b35573360009081526002602090815260408083206003909252822054815481106105c3576105c36115cc565b90600052602060002090600202016040518060400160405290816000820154815260200160018201548152505090506001856105ff919061159c565b3360009081526003602052604090205403610748576106786040518060400160405280601d81526020017f436c61696d696e67206c61737420776f726b696e672062616c616e636500000081525060036000336001600160a01b03166001600160a01b0316815260200190815260200160002054611201565b6006838154811061068b5761068b6115cc565b60009182526020909120015481516040516384f5be8160e01b8152600481018690526001600160a01b038916906384f5be8190602401602060405180830381865afa1580156106de573d6000803e3d6000fd5b505050506040513d601f19601f82011682018060405250810190610702919061156d565b61070c91906115f5565b610716919061160c565b61072090856115e2565b33600090815260046020526040812080549296509061073e8361162e565b9190505550610b22565b336000908152600260209081526040808320600390925282205461076d9060016115e2565b8154811061077d5761077d6115cc565b6000918252602091829020604080518082018252600293909302909101805483526001015482840152918401519151635487c57760e01b8152600481019290925291506001600160a01b03891690635487c57790602401602060405180830381865afa1580156107f1573d6000803e3d6000fd5b505050506040513d601f19601f82011682018060405250810190610815919061156d565b6020820151604051635487c57760e01b815260048101919091526001600160a01b038a1690635487c57790602401602060405180830381865afa158015610860573d6000803e3d6000fd5b505050506040513d601f19601f82011682018060405250810190610884919061156d565b036108df573360009081526003602052604081208054916108a48361162e565b91905055506108da6040518060600160405280602381526020016117df6023913933600090815260036020526040902054611201565b610b20565b61098a604051806060016040528060348152602001611802603491396040516384f5be8160e01b8152600481018790526001600160a01b038a16906384f5be8190602401602060405180830381865afa158015610940573d6000803e3d6000fd5b505050506040513d601f19601f82011682018060405250810190610964919061156d565b8451600680548990811061097a5761097a6115cc565b90600052602060002001546111b2565b6006848154811061099d5761099d6115cc565b9060005260206000200154600014610a5a57600684815481106109c2576109c26115cc565b60009182526020909120015482516040516384f5be8160e01b8152600481018790526001600160a01b038a16906384f5be8190602401602060405180830381865afa158015610a15573d6000803e3d6000fd5b505050506040513d601f19601f82011682018060405250810190610a39919061156d565b610a4391906115f5565b610a4d919061160c565b610a5790866115e2565b94505b336000908152600460205260408120805491610a758361162e565b90915550503360009081526004602081815260409283902054908401519251635487c57760e01b8152918201929092526001600160a01b038a1690635487c57790602401602060405180830381865afa158015610ad6573d6000803e3d6000fd5b505050506040513d601f19601f82011682018060405250810190610afa919061156d565b03610b2057336000908152600360205260408120805491610b1a8361162e565b91905055505b505b5080610b2d8161162e565b91505061046c565b50610b656040518060400160405280600d81526020016c616d6f756e74546f436c61696d60981b81525083611201565b60008054906101000a90046001600160a01b03166001600160a01b03166315b9ba5d6040518163ffffffff1660e01b8152600401602060405180830381865afa158015610bb6573d6000803e3d6000fd5b505050506040513d601f19601f82011682018060405250810190610bda91906115af565b604051631ec9887760e11b8152336004820152602481018490526001600160a01b039190911690633d9310ee90604401600060405180830381600087803b158015610c2457600080fd5b505af1158015610c38573d6000803e3d6000fd5b509398975050505050505050565b60008060009054906101000a90046001600160a01b03166001600160a01b03166308b0308a6040518163ffffffff1660e01b8152600401602060405180830381865afa158015610c9a573d6000803e3d6000fd5b505050506040513d601f19601f82011682018060405250810190610cbe91906115af565b604051635487c57760e01b81524260048201526001600160a01b039190911690635487c57790602401602060405180830381865afa158015610d04573d6000803e3d6000fd5b505050506040513d601f19601f82011682018060405250810190610d28919061156d565b905060005b6080811015610d87576006548211610d8757600554600680546001810182556000919091527ff652222313e28459528d920b65115c16c04f3efc82aaedc97be59f3f377c0d3f015580610d7f8161162e565b915050610d2d565b5050565b60008060009054906101000a90046001600160a01b03166001600160a01b03166308b0308a6040518163ffffffff1660e01b8152600401602060405180830381865afa158015610ddf573d6000803e3d6000fd5b505050506040513d601f19601f82011682018060405250810190610e0391906115af565b60405163cbf9fe5f60e01b81526001600160a01b038481166004830152919091169063cbf9fe5f906024016040805180830381865afa158015610e4a573d6000803e3d6000fd5b505050506040513d601f19601f82011682018060405250810190610e6e9190611647565b60200151905042811015610d8757610d8782610f2b565b3360009081526001602052604081208054839290610ea49084906115e2565b90915550610eb3905033610f2b565b600754610270906001600160a01b0316333084611246565b336000908152600260205260408120548103610ee75750600090565b3360009081526002602052604090208054610f049060019061159c565b81548110610f1457610f146115cc565b906000526020600020906002020160000154905090565b610f33610c46565b60008060009054906101000a90046001600160a01b03166001600160a01b03166308b0308a6040518163ffffffff1660e01b8152600401602060405180830381865afa158015610f87573d6000803e3d6000fd5b505050506040513d601f19601f82011682018060405250810190610fab91906115af565b6040516370a0823160e01b81526001600160a01b0384811660048301529192506000918316906370a0823190602401602060405180830381865afa158015610ff7573d6000803e3d6000fd5b505050506040513d601f19601f8201168201806040525081019061101b919061156d565b90506000826001600160a01b03166318160ddd6040518163ffffffff1660e01b81526004016020604051808303816000875af115801561105f573d6000803e3d6000fd5b505050506040513d601f19601f82011682018060405250810190611083919061156d565b6040805180820182523360009081526001602052918220549293509091819061110790612710866110b2610149565b6110be8a6113886115f5565b6110c891906115f5565b6110d2919061160c565b336000908152600160205260409020546110ee906113886115f5565b6110f891906115e2565b611102919061160c565b61127e565b8152426020918201523360009081526002808352604082208054600181810183559184529284902085519390920290910191825592909101519101555050505050565b6040516001600160a01b0383166024820152604481018290526111ad90849063a9059cbb60e01b906064015b60408051601f198184030181529190526020810180516001600160e01b03166001600160e01b031990931692909217909152611298565b505050565b6111fb848484846040516024016111cc94939291906116f4565b60408051601f198184030181529190526020810180516001600160e01b031663a7a8785360e01b17905261136a565b50505050565b610d878282604051602401611217929190611723565b60408051601f198184030181529190526020810180516001600160e01b0316632d839cb360e21b17905261136a565b6040516001600160a01b03808516602483015283166044820152606481018290526111fb9085906323b872dd60e01b90608401611176565b600081831061128d578161128f565b825b90505b92915050565b60006112ed826040518060400160405280602081526020017f5361666545524332303a206c6f772d6c6576656c2063616c6c206661696c6564815250856001600160a01b031661138b9092919063ffffffff16565b8051909150156111ad578080602001905181019061130b9190611745565b6111ad5760405162461bcd60e51b815260206004820152602a60248201527f5361666545524332303a204552433230206f7065726174696f6e20646964206e6044820152691bdd081cdd58d8d9595960b21b6064820152608401610222565b80516a636f6e736f6c652e6c6f67602083016000808483855afa5050505050565b606061139a84846000856113a2565b949350505050565b6060824710156114035760405162461bcd60e51b815260206004820152602660248201527f416464726573733a20696e73756666696369656e742062616c616e636520666f6044820152651c8818d85b1b60d21b6064820152608401610222565b600080866001600160a01b0316858760405161141f9190611767565b60006040518083038185875af1925050503d806000811461145c576040519150601f19603f3d011682016040523d82523d6000602084013e611461565b606091505b50915091506114728783838761147d565b979650505050505050565b606083156114ec5782516000036114e5576001600160a01b0385163b6114e55760405162461bcd60e51b815260206004820152601d60248201527f416464726573733a2063616c6c20746f206e6f6e2d636f6e74726163740000006044820152606401610222565b508161139a565b61139a83838151156115015781518083602001fd5b8060405162461bcd60e51b81526004016102229190611783565b60006020828403121561152d57600080fd5b5035919050565b6001600160a01b038116811461027057600080fd5b60006020828403121561155b57600080fd5b813561156681611534565b9392505050565b60006020828403121561157f57600080fd5b5051919050565b634e487b7160e01b600052601160045260246000fd5b8181038181111561129257611292611586565b6000602082840312156115c157600080fd5b815161156681611534565b634e487b7160e01b600052603260045260246000fd5b8082018082111561129257611292611586565b808202811582820484141761129257611292611586565b60008261162957634e487b7160e01b600052601260045260246000fd5b500490565b60006001820161164057611640611586565b5060010190565b60006040828403121561165957600080fd5b6040516040810181811067ffffffffffffffff8211171561168a57634e487b7160e01b600052604160045260246000fd5b604052825181526020928301519281019290925250919050565b60005b838110156116bf5781810151838201526020016116a7565b50506000910152565b600081518084526116e08160208601602086016116a4565b601f01601f19169290920160200192915050565b60808152600061170760808301876116c8565b6020830195909552506040810192909252606090910152919050565b60408152600061173660408301856116c8565b90508260208301529392505050565b60006020828403121561175757600080fd5b8151801515811461156657600080fd5b600082516117798184602087016116a4565b9190910192915050565b60208152600061128f60208301846116c856fe69203d2025732c206e657874436c61696d656445706f6368203d202573202c20766f74696e67457363726f772e65706f636828626c6f636b2e74696d657374616d7029203d202573496e6372656d656e74656420776f726b696e672062616c616e636520706f696e746572436c61696d696e6720776f726b696e672062616c616e6365202573207769746820257320746f6b656e73206f7574206f66202573a264697066735822122000629e35f2a20901d981a27bcd27c9f2010e93a1035f3e6547120a6f56c45a8064736f6c63430008110033",
  "linkReferences": {},
  "deployedLinkReferences": {}
}