{
  "_format": "hh-sol-artifact-1",
  "contractName": "LendingMarket",
  "sourceName": "contracts/protocol/Lending/LendingMarket.sol",
  "abi": [
    {
      "anonymous": false,
      "inputs": [
        {
          "indexed": true,
          "internalType": "address",
          "name": "user",
          "type": "address"
        },
        {
          "indexed": true,
          "internalType": "address",
          "name": "asset",
          "type": "address"
        },
        {
          "indexed": true,
          "internalType": "address",
          "name": "nftAddress",
          "type": "address"
        },
        {
          "indexed": false,
          "internalType": "uint256",
          "name": "nftTokenID",
          "type": "uint256"
        },
        {
          "indexed": false,
          "internalType": "uint256",
          "name": "amount",
          "type": "uint256"
        }
      ],
      "name": "Borrow",
      "type": "event"
    },
    {
      "anonymous": false,
      "inputs": [
        {
          "indexed": true,
          "internalType": "address",
          "name": "reserve",
          "type": "address"
        }
      ],
      "name": "CreateReserve",
      "type": "event"
    },
    {
      "anonymous": false,
      "inputs": [
        {
          "indexed": false,
          "internalType": "uint8",
          "name": "version",
          "type": "uint8"
        }
      ],
      "name": "Initialized",
      "type": "event"
    },
    {
      "anonymous": false,
      "inputs": [
        {
          "indexed": true,
          "internalType": "address",
          "name": "user",
          "type": "address"
        },
        {
          "indexed": true,
          "internalType": "uint256",
          "name": "loanId",
          "type": "uint256"
        }
      ],
      "name": "Liquidate",
      "type": "event"
    },
    {
      "anonymous": false,
      "inputs": [
        {
          "indexed": true,
          "internalType": "address",
          "name": "previousOwner",
          "type": "address"
        },
        {
          "indexed": true,
          "internalType": "address",
          "name": "newOwner",
          "type": "address"
        }
      ],
      "name": "OwnershipTransferred",
      "type": "event"
    },
    {
      "anonymous": false,
      "inputs": [
        {
          "indexed": true,
          "internalType": "address",
          "name": "user",
          "type": "address"
        },
        {
          "indexed": true,
          "internalType": "uint256",
          "name": "loanId",
          "type": "uint256"
        }
      ],
      "name": "Repay",
      "type": "event"
    },
    {
      "anonymous": false,
      "inputs": [
        {
          "indexed": true,
          "internalType": "address",
          "name": "collection",
          "type": "address"
        },
        {
          "indexed": true,
          "internalType": "address",
          "name": "asset",
          "type": "address"
        },
        {
          "indexed": true,
          "internalType": "address",
          "name": "reserve",
          "type": "address"
        }
      ],
      "name": "SetReserve",
      "type": "event"
    },
    {
      "inputs": [
        {
          "internalType": "address",
          "name": "onBehalfOf",
          "type": "address"
        },
        {
          "internalType": "address",
          "name": "asset",
          "type": "address"
        },
        {
          "internalType": "uint256",
          "name": "amount",
          "type": "uint256"
        },
        {
          "internalType": "address",
          "name": "nftAddress",
          "type": "address"
        },
        {
          "internalType": "uint256",
          "name": "nftTokenId",
          "type": "uint256"
        },
        {
          "internalType": "uint256",
          "name": "genesisNFTId",
          "type": "uint256"
        },
        {
          "internalType": "bytes32",
          "name": "request",
          "type": "bytes32"
        },
        {
          "components": [
            {
              "internalType": "uint8",
              "name": "v",
              "type": "uint8"
            },
            {
              "internalType": "bytes32",
              "name": "r",
              "type": "bytes32"
            },
            {
              "internalType": "bytes32",
              "name": "s",
              "type": "bytes32"
            },
            {
              "internalType": "bytes32",
              "name": "request",
              "type": "bytes32"
            },
            {
              "internalType": "uint256",
              "name": "deadline",
              "type": "uint256"
            },
            {
              "internalType": "bytes",
              "name": "payload",
              "type": "bytes"
            }
          ],
          "internalType": "struct Trustus.TrustusPacket",
          "name": "packet",
          "type": "tuple"
        }
      ],
      "name": "borrow",
      "outputs": [],
      "stateMutability": "nonpayable",
      "type": "function"
    },
    {
      "inputs": [
        {
          "internalType": "address",
          "name": "collection",
          "type": "address"
        },
        {
          "internalType": "address",
          "name": "asset",
          "type": "address"
        }
      ],
      "name": "createLendingPool",
      "outputs": [],
      "stateMutability": "nonpayable",
      "type": "function"
    },
    {
      "inputs": [],
      "name": "getDefaultLiquidationFee",
      "outputs": [
        {
          "internalType": "uint256",
          "name": "",
          "type": "uint256"
        }
      ],
      "stateMutability": "view",
      "type": "function"
    },
    {
      "inputs": [],
      "name": "getDefaultLiquidationPenalty",
      "outputs": [
        {
          "internalType": "uint256",
          "name": "",
          "type": "uint256"
        }
      ],
      "stateMutability": "view",
      "type": "function"
    },
    {
      "inputs": [],
      "name": "getDefaultMaximumUtilizationRate",
      "outputs": [
        {
          "internalType": "uint256",
          "name": "",
          "type": "uint256"
        }
      ],
      "stateMutability": "view",
      "type": "function"
    },
    {
      "inputs": [],
      "name": "getDefaultTVLSafeguard",
      "outputs": [
        {
          "internalType": "uint256",
          "name": "",
          "type": "uint256"
        }
      ],
      "stateMutability": "view",
      "type": "function"
    },
    {
      "inputs": [
        {
          "internalType": "address",
          "name": "collection",
          "type": "address"
        },
        {
          "internalType": "address",
          "name": "asset",
          "type": "address"
        }
      ],
      "name": "getReserve",
      "outputs": [
        {
          "internalType": "address",
          "name": "",
          "type": "address"
        }
      ],
      "stateMutability": "view",
      "type": "function"
    },
    {
      "inputs": [
        {
          "internalType": "contract IAddressesProvider",
          "name": "addressesProvider",
          "type": "address"
        },
        {
          "components": [
            {
              "internalType": "uint256",
              "name": "liquidationPenalty",
              "type": "uint256"
            },
            {
              "internalType": "uint256",
              "name": "liquidationFee",
              "type": "uint256"
            },
            {
              "internalType": "uint256",
              "name": "maximumUtilizationRate",
              "type": "uint256"
            },
            {
              "internalType": "uint256",
              "name": "tvlSafeguard",
              "type": "uint256"
            }
          ],
          "internalType": "struct ConfigTypes.LendingPoolConfig",
          "name": "defaultLendingPoolConfig",
          "type": "tuple"
        }
      ],
      "name": "initialize",
      "outputs": [],
      "stateMutability": "nonpayable",
      "type": "function"
    },
    {
      "inputs": [
        {
          "internalType": "uint256",
          "name": "loanId",
          "type": "uint256"
        },
        {
          "internalType": "bytes32",
          "name": "request",
          "type": "bytes32"
        },
        {
          "components": [
            {
              "internalType": "uint8",
              "name": "v",
              "type": "uint8"
            },
            {
              "internalType": "bytes32",
              "name": "r",
              "type": "bytes32"
            },
            {
              "internalType": "bytes32",
              "name": "s",
              "type": "bytes32"
            },
            {
              "internalType": "bytes32",
              "name": "request",
              "type": "bytes32"
            },
            {
              "internalType": "uint256",
              "name": "deadline",
              "type": "uint256"
            },
            {
              "internalType": "bytes",
              "name": "payload",
              "type": "bytes"
            }
          ],
          "internalType": "struct Trustus.TrustusPacket",
          "name": "packet",
          "type": "tuple"
        }
      ],
      "name": "liquidate",
      "outputs": [],
      "stateMutability": "nonpayable",
      "type": "function"
    },
    {
      "inputs": [],
      "name": "owner",
      "outputs": [
        {
          "internalType": "address",
          "name": "",
          "type": "address"
        }
      ],
      "stateMutability": "view",
      "type": "function"
    },
    {
      "inputs": [],
      "name": "renounceOwnership",
      "outputs": [],
      "stateMutability": "nonpayable",
      "type": "function"
    },
    {
      "inputs": [
        {
          "internalType": "uint256",
          "name": "loanId",
          "type": "uint256"
        },
        {
          "internalType": "uint256",
          "name": "amount",
          "type": "uint256"
        }
      ],
      "name": "repay",
      "outputs": [],
      "stateMutability": "nonpayable",
      "type": "function"
    },
    {
      "inputs": [
        {
          "internalType": "address",
          "name": "collection",
          "type": "address"
        },
        {
          "internalType": "address",
          "name": "asset",
          "type": "address"
        },
        {
          "internalType": "address",
          "name": "reserve",
          "type": "address"
        }
      ],
      "name": "setCollectionReserve",
      "outputs": [],
      "stateMutability": "nonpayable",
      "type": "function"
    },
    {
      "inputs": [
        {
          "internalType": "uint256",
          "name": "liquidationFee",
          "type": "uint256"
        }
      ],
      "name": "setDefaultLiquidationFee",
      "outputs": [],
      "stateMutability": "nonpayable",
      "type": "function"
    },
    {
      "inputs": [
        {
          "internalType": "uint256",
          "name": "liquidationPenalty",
          "type": "uint256"
        }
      ],
      "name": "setDefaultLiquidationPenalty",
      "outputs": [],
      "stateMutability": "nonpayable",
      "type": "function"
    },
    {
      "inputs": [
        {
          "internalType": "uint256",
          "name": "maximumUtilizationRate",
          "type": "uint256"
        }
      ],
      "name": "setDefaultMaximumUtilizationRate",
      "outputs": [],
      "stateMutability": "nonpayable",
      "type": "function"
    },
    {
      "inputs": [
        {
          "internalType": "uint256",
          "name": "tvlSafeguard",
          "type": "uint256"
        }
      ],
      "name": "setDefaultTVLSafeguard",
      "outputs": [],
      "stateMutability": "nonpayable",
      "type": "function"
    },
    {
      "inputs": [
        {
          "internalType": "address",
          "name": "newOwner",
          "type": "address"
        }
      ],
      "name": "transferOwnership",
      "outputs": [],
      "stateMutability": "nonpayable",
      "type": "function"
    }
  ],
  "bytecode": "0x608060405234801561001057600080fd5b5061468e806100206000396000f3fe60806040523480156200001157600080fd5b50600436106200012d5760003560e01c8063a99ab94811620000af578063d8aed145116200007a578063d8aed1451462000245578063ed4a376e146200025c578063f2fde38b1462000273578063f3b31325146200028a578063fa4494e914620002a157600080fd5b8063a99ab9481462000205578063adeb468b146200021c578063bdc1c7091462000225578063cbc3ab53146200022e57600080fd5b80634470afa411620000fc5780634470afa41462000190578063715018a614620001a75780637785c63014620001b15780638926af0714620001c85780638da5cb5b14620001df57600080fd5b80630541da8e14620001325780630586abad146200014b578063186fb82514620001625780631f7a92b21462000179575b600080fd5b6200014962000143366004620013bc565b620002aa565b005b620001496200015c366004620013ef565b620002b9565b609b545b6040519081526020015b60405180910390f35b620001496200018a36600462001459565b620003b9565b62000149620001a1366004620013bc565b62000510565b620001496200051f565b62000149620001c23660046200149e565b62000537565b62000149620001d9366004620013bc565b62000bfd565b6033546001600160a01b03165b6040516001600160a01b03909116815260200162000170565b6200014962000216366004620014dc565b62000c0c565b609d5462000166565b609c5462000166565b620001ec6200023f3660046200149e565b62000c23565b62000149620002563660046200152e565b62000c52565b620001496200026d366004620013bc565b62000d4f565b620001496200028436600462001551565b62000d5e565b620001496200029b36600462001571565b62000ddd565b609a5462000166565b620002b462000f71565b609d55565b620002c362000fcd565b609954604080516080810182523381526020810186905290810184905273__$965b9be9fc5ba89821c2195a8bf360e455$__9163245fa182916001600160a01b039091169060608101620003178662001714565b8152506040518363ffffffff1660e01b8152600401620003399291906200184c565b60006040518083038186803b1580156200035257600080fd5b505af415801562000367573d6000803e3d6000fd5b5050505082620003743390565b6001600160a01b03167f08813a3631e12129135cc9440d3fea50eec346f1673b20b994b0456d5d46ccb960405160405180910390a3620003b46001606555565b505050565b600054610100900460ff1615808015620003da5750600054600160ff909116105b80620003f65750303b158015620003f6575060005460ff166001145b6200045f5760405162461bcd60e51b815260206004820152602e60248201527f496e697469616c697a61626c653a20636f6e747261637420697320616c72656160448201526d191e481a5b9a5d1a585b1a5e995960921b60648201526084015b60405180910390fd5b6000805460ff19166001179055801562000483576000805461ff0019166101001790555b6200048d62001028565b609980546001600160a01b0319166001600160a01b0385161790558135609a556020820135609b556040820135609c556060820135609d558015620003b4576000805461ff0019169055604051600181527f7f26b83ff96e1f2b6a682f133852f6798a09c465da95921460cefb38474024989060200160405180910390a1505050565b6200051a62000f71565b609a55565b6200052962000f71565b6200053560006200105c565b565b620005536001600160a01b0383166380ac58cd60e01b620010ae565b620005b55760405162461bcd60e51b815260206004820152602b60248201527f436f6c6c656374696f6e2061646472657373206973206e6f742045524337323160448201526a1031b7b6b83634b0b73a1760a91b606482015260840162000456565b609960009054906101000a90046001600160a01b03166001600160a01b031663cfeed1816040518163ffffffff1660e01b8152600401602060405180830381865afa15801562000609573d6000803e3d6000fd5b505050506040513d601f19601f820116820180604052508101906200062f9190620018a3565b6040516375151b6360e01b81526001600160a01b03838116600483015291909116906375151b6390602401602060405180830381865afa15801562000678573d6000803e3d6000fd5b505050506040513d601f19601f820116820180604052508101906200069e9190620018c3565b620006f65760405162461bcd60e51b815260206004820152602160248201527f556e6465726c79696e67204173736574206973206e6f7420737570706f7274656044820152601960fa1b606482015260840162000456565b6001600160a01b038281166000908152609760209081526040808320858516845290915290205416156200076d5760405162461bcd60e51b815260206004820152601b60248201527f4c656e64696e6720506f6f6c20616c7265616479206578697374730000000000604482015260640162000456565b6099546000906001600160a01b03166200078f6033546001600160a01b031690565b83846001600160a01b03166395d89b416040518163ffffffff1660e01b8152600401600060405180830381865afa158015620007cf573d6000803e3d6000fd5b505050506040513d6000823e601f3d908101601f19168201604052620007f99190810190620018e7565b6001600160a01b0386166000908152609860205260409020546200081d90620010d6565b604051602001620008309291906200195e565b604051602081830303815290604052856001600160a01b03166395d89b416040518163ffffffff1660e01b8152600401600060405180830381865afa1580156200087e573d6000803e3d6000fd5b505050506040513d6000823e601f3d908101601f19168201604052620008a89190810190620018e7565b6001600160a01b038716600090815260986020526040902054620008cc90620010d6565b604051602001620008df929190620019b9565b604051602081830303815290604052609a604051620008fe90620013ae565b6200090f9695949392919062001a08565b604051809103906000f0801580156200092c573d6000803e3d6000fd5b5060405163095ea7b360e01b81526001600160a01b03808316600483015260001960248301529192509083169063095ea7b3906044016020604051808303816000875af115801562000982573d6000803e3d6000fd5b505050506040513d601f19601f82011682018060405250810190620009a89190620018c3565b50826001600160a01b031663e985e9c5609960009054906101000a90046001600160a01b03166001600160a01b031663536223646040518163ffffffff1660e01b8152600401602060405180830381865afa15801562000a0c573d6000803e3d6000fd5b505050506040513d601f19601f8201168201806040525081019062000a329190620018a3565b6040516001600160e01b031960e084901b1681526001600160a01b039091166004820152306024820152604401602060405180830381865afa15801562000a7d573d6000803e3d6000fd5b505050506040513d601f19601f8201168201806040525081019062000aa39190620018c3565b151560000362000b8757609960009054906101000a90046001600160a01b03166001600160a01b031663536223646040518163ffffffff1660e01b8152600401602060405180830381865afa15801562000b01573d6000803e3d6000fd5b505050506040513d601f19601f8201168201806040525081019062000b279190620018a3565b604051631578b62760e11b81526001600160a01b0385811660048301529190911690632af16c4e90602401600060405180830381600087803b15801562000b6d57600080fd5b505af115801562000b82573d6000803e3d6000fd5b505050505b62000b9483838362001170565b6001600160a01b038216600090815260986020526040812080546001929062000bbf90849062001a89565b90915550506040516001600160a01b038216907f62bc44df7dccd51a32794da404454232658add2bef839a8e3629ed5c980daabf90600090a2505050565b62000c0762000f71565b609b55565b62000c1662000f71565b620003b483838362001170565b6001600160a01b0380831660009081526097602090815260408083208585168452909152902054165b92915050565b62000c5c62000fcd565b60995460408051606081018252338152602081018581528183018581528351634e0be51f60e11b81526001600160a01b03958616600482015292519094166024830152516044820152915160648301525173__$77c5a84c43428e206d5bf08427df63fefa$__91639c17ca3e916084808301926000929190829003018186803b15801562000ce957600080fd5b505af415801562000cfe573d6000803e3d6000fd5b505050508162000d0b3390565b6001600160a01b03167f5c16de4f8b59bd9caf0f49a545f25819a895ed223294290b408242e72a59423160405160405180910390a362000d4b6001606555565b5050565b62000d5962000f71565b609c55565b62000d6862000f71565b6001600160a01b03811662000dcf5760405162461bcd60e51b815260206004820152602660248201527f4f776e61626c653a206e6577206f776e657220697320746865207a65726f206160448201526564647265737360d01b606482015260840162000456565b62000dda816200105c565b50565b62000de762000fcd565b73__$77c5a84c43428e206d5bf08427df63fefa$__63a6b290dd609960009054906101000a90046001600160a01b0316609760405180610120016040528062000e2d3390565b6001600160a01b031681526020018d6001600160a01b031681526020018c6001600160a01b031681526020018b81526020018a6001600160a01b031681526020018981526020018881526020018781526020018662000e8c9062001714565b8152506040518463ffffffff1660e01b815260040162000eaf9392919062001aab565b602060405180830381865af415801562000ecd573d6000803e3d6000fd5b505050506040513d601f19601f8201168201806040525081019062000ef3919062001b7c565b50846001600160a01b0316876001600160a01b031662000f103390565b6001600160a01b03167f96558a334f4759f0e7c423d68c84721860bd8fbf94ddc4e55158ecb125ad04b5878a60405162000f54929190918252602082015260400190565b60405180910390a462000f676001606555565b5050505050505050565b6033546001600160a01b03163314620005355760405162461bcd60e51b815260206004820181905260248201527f4f776e61626c653a2063616c6c6572206973206e6f7420746865206f776e6572604482015260640162000456565b600260655403620010215760405162461bcd60e51b815260206004820152601f60248201527f5265656e7472616e637947756172643a207265656e7472616e742063616c6c00604482015260640162000456565b6002606555565b600054610100900460ff16620010525760405162461bcd60e51b8152600401620004569062001b96565b62000535620011d7565b603380546001600160a01b038381166001600160a01b0319831681179093556040519116919082907f8be0079c531659141344cd1fd0a4f28419497f9722a3daafe3b4186f6b6457e090600090a35050565b6000620010bb836200120c565b8015620010cf5750620010cf838362001244565b9392505050565b60606000620010e583620012cf565b600101905060008167ffffffffffffffff81111562001108576200110862001617565b6040519080825280601f01601f19166020018201604052801562001133576020820181803683370190505b5090508181016020015b600019016f181899199a1a9b1b9c1cb0b131b232b360811b600a86061a8153600a85049450846200113d57509392505050565b6001600160a01b038381166000818152609760209081526040808320878616808552925280832080546001600160a01b0319169587169586179055519092917ff9e7f47c2cd7655661046fbcf0164a4d4ac48c3cd9c0ed8b45410e965cc3371491a4505050565b600054610100900460ff16620012015760405162461bcd60e51b8152600401620004569062001b96565b62000535336200105c565b600062001221826301ffc9a760e01b62001244565b801562000c4c57506200123d826001600160e01b031962001244565b1592915050565b604080516001600160e01b03198316602480830191909152825180830390910181526044909101909152602080820180516001600160e01b03166301ffc9a760e01b178152825160009392849283928392918391908a617530fa92503d91506000519050828015620012b7575060208210155b8015620012c45750600081115b979650505050505050565b60008072184f03e93ff9f4daa797ed6e38ed64bf6a1f0160401b83106200130f5772184f03e93ff9f4daa797ed6e38ed64bf6a1f0160401b830492506040015b6d04ee2d6d415b85acef810000000083106200133c576d04ee2d6d415b85acef8100000000830492506020015b662386f26fc1000083106200135b57662386f26fc10000830492506010015b6305f5e100831062001374576305f5e100830492506008015b61271083106200138957612710830492506004015b606483106200139c576064830492506002015b600a831062000c4c5760010192915050565b612a778062001be283390190565b600060208284031215620013cf57600080fd5b5035919050565b600060c08284031215620013e957600080fd5b50919050565b6000806000606084860312156200140557600080fd5b8335925060208401359150604084013567ffffffffffffffff8111156200142b57600080fd5b6200143986828701620013d6565b9150509250925092565b6001600160a01b038116811462000dda57600080fd5b60008082840360a08112156200146e57600080fd5b83356200147b8162001443565b92506080601f19820112156200149057600080fd5b506020830190509250929050565b60008060408385031215620014b257600080fd5b8235620014bf8162001443565b91506020830135620014d18162001443565b809150509250929050565b600080600060608486031215620014f257600080fd5b8335620014ff8162001443565b92506020840135620015118162001443565b91506040840135620015238162001443565b809150509250925092565b600080604083850312156200154257600080fd5b50508035926020909101359150565b6000602082840312156200156457600080fd5b8135620010cf8162001443565b600080600080600080600080610100898b0312156200158f57600080fd5b88356200159c8162001443565b97506020890135620015ae8162001443565b9650604089013595506060890135620015c78162001443565b94506080890135935060a0890135925060c0890135915060e089013567ffffffffffffffff811115620015f957600080fd5b620016078b828c01620013d6565b9150509295985092959890939650565b634e487b7160e01b600052604160045260246000fd5b60405160c0810167ffffffffffffffff8111828210171562001653576200165362001617565b60405290565b604051601f8201601f1916810167ffffffffffffffff8111828210171562001685576200168562001617565b604052919050565b600067ffffffffffffffff821115620016aa57620016aa62001617565b50601f01601f191660200190565b600082601f830112620016ca57600080fd5b8135620016e1620016db826200168d565b62001659565b818152846020838601011115620016f757600080fd5b816020850160208301376000918101602001919091529392505050565b600060c082360312156200172757600080fd5b620017316200162d565b823560ff811681146200174357600080fd5b808252506020830135602082015260408301356040820152606083013560608201526080830135608082015260a083013567ffffffffffffffff8111156200178a57600080fd5b6200179836828601620016b8565b60a08301525092915050565b60005b83811015620017c1578181015183820152602001620017a7565b50506000910152565b60008151808452620017e4816020860160208601620017a4565b601f01601f19169290920160200192915050565b60ff815116825260208101516020830152604081015160408301526060810151606083015260808101516080830152600060a082015160c060a08501526200184460c0850182620017ca565b949350505050565b600060018060a01b038085168352604060208401528084511660408401525060208301516060830152604083015160808301526060830151608060a08401526200189a60c0840182620017f8565b95945050505050565b600060208284031215620018b657600080fd5b8151620010cf8162001443565b600060208284031215620018d657600080fd5b81518015158114620010cf57600080fd5b600060208284031215620018fa57600080fd5b815167ffffffffffffffff8111156200191257600080fd5b8201601f810184136200192457600080fd5b805162001935620016db826200168d565b8181528560208385010111156200194b57600080fd5b6200189a826020830160208601620017a4565b6503632a7232a160d51b81526000835162001981816006850160208801620017a4565b69204c656e64696e67202360b01b6006918401918201528351620019ad816010840160208801620017a4565b01601001949350505050565b621b195360ea1b815260008351620019d9816003850160208801620017a4565b602d60f81b6003918401918201528351620019fc816004840160208801620017a4565b01600401949350505050565b6001600160a01b0387811682528681166020830152851660408201526101206060820181905260009062001a3f83820187620017ca565b9050828103608084015262001a558186620017ca565b915050825460a0830152600183015460c0830152600283015460e08301526003830154610100830152979650505050505050565b8082018082111562000c4c57634e487b7160e01b600052601160045260246000fd5b60018060a01b03841681528260208201526060604082015262001ada6060820183516001600160a01b03169052565b6000602083015162001af760808401826001600160a01b03169052565b5060408301516001600160a01b03811660a084015250606083015160c083015260808301516001600160a01b03811660e08401525060a0830151610100818185015260c08501519150610120828186015260e086015161014086015281860151925080610160860152505062001b72610180840182620017f8565b9695505050505050565b60006020828403121562001b8f57600080fd5b5051919050565b6020808252602b908201527f496e697469616c697a61626c653a20636f6e7472616374206973206e6f74206960408201526a6e697469616c697a696e6760a81b60608201526080019056fe60c06040523480156200001157600080fd5b5060405162002a7738038062002a778339810160408190526200003491620005be565b838383600362000045838262000743565b50600462000054828262000743565b5050506000806200006b83620001f860201b60201c565b915091508162000090576200008a620002df60201b62000f1c1760201c565b62000092565b805b60ff1660a05250506001600160a01b0316608052620000b133620002e4565b856001600160a01b03166304d21cee6040518163ffffffff1660e01b8152600401602060405180830381865afa158015620000f0573d6000803e3d6000fd5b505050506040513d601f19601f820116820180604052508101906200011691906200080f565b6001600160a01b0316336001600160a01b0316146200018a5760405162461bcd60e51b815260206004820152602660248201527f52657365727665206d7573742062652063726561746564207468726f756768206044820152651b585c9ad95d60d21b606482015260840160405180910390fd5b600680546001600160a01b038089166001600160a01b03199283161790925560078054928716929091169190911790558051600c556020810151600d556040810151600e556060810151600f55620001e162000336565b620001ec85620002e4565b5050505050506200086e565b60408051600481526024810182526020810180516001600160e01b031663313ce56760e01b17905290516000918291829182916001600160a01b03871691620002419162000836565b6000604051808303816000865af19150503d806000811462000280576040519150601f19603f3d011682016040523d82523d6000602084013e62000285565b606091505b50915091508180156200029a57506020815110155b15620002d257600081806020019051810190620002b8919062000854565b905060ff8111620002d0576001969095509350505050565b505b5060009485945092505050565b601290565b600580546001600160a01b038381166001600160a01b0319831681179093556040519116919082907f8be0079c531659141344cd1fd0a4f28419497f9722a3daafe3b4186f6b6457e090600090a35050565b600660009054906101000a90046001600160a01b03166001600160a01b0316635257b5666040518163ffffffff1660e01b8152600401602060405180830381865afa1580156200038a573d6000803e3d6000fd5b505050506040513d601f19601f82011682018060405250810190620003b091906200080f565b6001600160a01b03166366c57dca620003c862000438565b6008546040516001600160e01b031960e085901b16815260048101929092526024820152604401602060405180830381865afa1580156200040d573d6000803e3d6000fd5b505050506040513d601f19601f8201168201806040525081019062000433919062000854565b600955565b6007546040516370a0823160e01b81523060048201526000916001600160a01b0316906370a0823190602401602060405180830381865afa15801562000482573d6000803e3d6000fd5b505050506040513d601f19601f82011682018060405250810190620004a8919062000854565b905090565b6001600160a01b0381168114620004c357600080fd5b50565b634e487b7160e01b600052604160045260246000fd5b604051608081016001600160401b0381118282101715620005015762000501620004c6565b60405290565b60005b83811015620005245781810151838201526020016200050a565b50506000910152565b600082601f8301126200053f57600080fd5b81516001600160401b03808211156200055c576200055c620004c6565b604051601f8301601f19908116603f01168101908282118183101715620005875762000587620004c6565b81604052838152866020858801011115620005a157600080fd5b620005b484602083016020890162000507565b9695505050505050565b600080600080600080868803610120811215620005da57600080fd5b8751620005e781620004ad565b6020890151909750620005fa81620004ad565b60408901519096506200060d81620004ad565b60608901519095506001600160401b03808211156200062b57600080fd5b620006398b838c016200052d565b955060808a01519150808211156200065057600080fd5b506200065f8a828b016200052d565b9350506080609f19820112156200067557600080fd5b5062000680620004dc565b60a0880151815260c0880151602082015260e088015160408201526101008801516060820152809150509295509295509295565b600181811c90821680620006c957607f821691505b602082108103620006ea57634e487b7160e01b600052602260045260246000fd5b50919050565b601f8211156200073e57600081815260208120601f850160051c81016020861015620007195750805b601f850160051c820191505b818110156200073a5782815560010162000725565b5050505b505050565b81516001600160401b038111156200075f576200075f620004c6565b6200077781620007708454620006b4565b84620006f0565b602080601f831160018114620007af5760008415620007965750858301515b600019600386901b1c1916600185901b1785556200073a565b600085815260208120601f198616915b82811015620007e057888601518255948401946001909101908401620007bf565b5085821015620007ff5787850151600019600388901b60f8161c191681555b5050505050600190811b01905550565b6000602082840312156200082257600080fd5b81516200082f81620004ad565b9392505050565b600082516200084a81846020870162000507565b9190910192915050565b6000602082840312156200086757600080fd5b5051919050565b60805160a0516121d5620008a2600039600061034f01526000818161037b0152818161183401526118f401526121d56000f3fe608060405234801561001057600080fd5b506004361061028a5760003560e01c806394bf804d1161015c578063ba1c5e80116100ce578063dd62ed3e11610087578063dd62ed3e1461057d578063e2c6743914610590578063ef8b30f714610544578063f2fde38b14610598578063fbf41984146105ab578063fef0bec8146105b357600080fd5b8063ba1c5e8014610514578063bedb86fb1461051c578063c63d75b61461052f578063c6e6f59214610544578063ce96cb7714610557578063d905777e1461056a57600080fd5b8063a663f83011610120578063a663f830146104ad578063a880e68b146104c0578063a9059cbb146104c8578063b3d7f6b9146104db578063b460af94146104ee578063ba0876521461050157600080fd5b806394bf804d1461046457806395d89b4114610477578063a22586941461047f578063a457c2d714610492578063a4b84e0a146104a557600080fd5b806338d52e0f1161020057806365ec4176116101b957806365ec4176146103f45780636e553f651461040757806370a082311461041a578063715018a61461044357806384bdc9a81461044b5780638da5cb5b1461045357600080fd5b806338d52e0f1461037957806339509351146103b3578063402d267d146103c65780634a417a53146103d95780634cdad506146102bf578063545039c6146103e157600080fd5b806314a6bf0f1161025257806314a6bf0f1461030857806318160ddd146103105780631e522b291461031857806323b872dd146103205780632806a74314610333578063313ce5671461034857600080fd5b806301e1d1141461028f57806306fdde03146102aa57806307a2d13a146102bf578063095ea7b3146102d25780630a28a477146102f5575b600080fd5b6102976105c6565b6040519081526020015b60405180910390f35b6102b26105e2565b6040516102a19190611dcd565b6102976102cd366004611e00565b610674565b6102e56102e0366004611e2e565b610687565b60405190151581526020016102a1565b610297610303366004611e00565b61069f565b600854610297565b600254610297565b600c54610297565b6102e561032e366004611e5a565b6106ac565b610346610341366004611e00565b6106d2565b005b60405160ff7f00000000000000000000000000000000000000000000000000000000000000001681526020016102a1565b7f00000000000000000000000000000000000000000000000000000000000000005b6040516001600160a01b0390911681526020016102a1565b6102e56103c1366004611e2e565b6106df565b6102976103d4366004611e9b565b610701565b61029761071f565b6103466103ef366004611eb8565b61080c565b610346610402366004611e00565b610934565b610297610415366004611ef3565b610941565b610297610428366004611e9b565b6001600160a01b031660009081526020819052604090205490565b6103466109b4565b6102976109c8565b6005546001600160a01b031661039b565b610297610472366004611ef3565b610a04565b6102b2610a1e565b61034661048d366004611f23565b610a2d565b6102e56104a0366004611e2e565b610b3f565b600e54610297565b6103466104bb366004611eb8565b610bc5565b600f54610297565b6102e56104d6366004611e2e565b610cc5565b6102976104e9366004611e00565b610cd3565b6102976104fc366004611f58565b610ce0565b61029761050f366004611f58565b610d5c565b600954610297565b61034661052a366004611fa8565b610dd0565b61029761053d366004611e9b565b5060001990565b610297610552366004611e00565b610deb565b610297610565366004611e9b565b610df8565b610297610578366004611e9b565b610e1c565b61029761058b366004611fc5565b610e3a565b610297610e65565b6103466105a6366004611e9b565b610e96565b600d54610297565b6103466105c1366004611e00565b610f0f565b60006105d0610e65565b6008546105dd9190612009565b905090565b6060600380546105f19061201c565b80601f016020809104026020016040519081016040528092919081815260200182805461061d9061201c565b801561066a5780601f1061063f5761010080835404028352916020019161066a565b820191906000526020600020905b81548152906001019060200180831161064d57829003601f168201915b5050505050905090565b6000610681826000610f21565b92915050565b600033610695818585610f54565b5060019392505050565b6000610681826001611078565b6000336106ba8582856110aa565b6106c585858561111e565b60019150505b9392505050565b6106da6112c2565b600c55565b6000336106958185856106f28383610e3a565b6106fc9190612009565b610f54565b600061070b61131c565b610716576000610681565b60001992915050565b6006546040805163292bdab360e11b815290516000926001600160a01b031691635257b5669160048083019260209291908290030181865afa158015610769573d6000803e3d6000fd5b505050506040513d601f19601f8201168201806040525081019061078d9190612056565b6001600160a01b03166385c963066107a3610e65565b6008546040516001600160e01b031960e085901b168152600481019290925260248201526044015b602060405180830381865afa1580156107e8573d6000803e3d6000fd5b505050506040513d601f19601f820116820180604052508101906105dd9190612073565b600660009054906101000a90046001600160a01b03166001600160a01b03166304d21cee6040518163ffffffff1660e01b8152600401602060405180830381865afa15801561085f573d6000803e3d6000fd5b505050506040513d601f19601f820116820180604052508101906108839190612056565b6001600160a01b0316336001600160a01b0316146108bc5760405162461bcd60e51b81526004016108b39061208c565b60405180910390fd5b600b5460ff16156108df5760405162461bcd60e51b81526004016108b3906120c3565b61090284306108ee8487612009565b6007546001600160a01b0316929190611336565b61090e600084846113a1565b826008600082825461092091906120ee565b9091555061092e905061143c565b50505050565b61093c6112c2565b600f55565b600061094c82610701565b83111561099b5760405162461bcd60e51b815260206004820152601e60248201527f455243343632363a206465706f736974206d6f7265207468616e206d6178000060448201526064016108b3565b60006109a684610deb565b90506106cb33848684611536565b6109bc6112c2565b6109c660006115d6565b565b600080806109d46105c6565b11156109ff576109e26105c6565b600854600a546109f29190612101565b6109fc919061212e565b90505b919050565b600080610a1084610cd3565b90506106cb33848387611536565b6060600480546105f19061201c565b600660009054906101000a90046001600160a01b03166001600160a01b03166304d21cee6040518163ffffffff1660e01b8152600401602060405180830381865afa158015610a80573d6000803e3d6000fd5b505050506040513d601f19601f82011682018060405250810190610aa49190612056565b6001600160a01b0316336001600160a01b031614610ad45760405162461bcd60e51b81526004016108b39061208c565b600b5460ff1615610af75760405162461bcd60e51b81526004016108b3906120c3565b600754610b0e906001600160a01b03168484611628565b610b1a600183836113a1565b8160086000828254610b2c9190612009565b90915550610b3a905061143c565b505050565b60003381610b4d8286610e3a565b905083811015610bad5760405162461bcd60e51b815260206004820152602560248201527f45524332303a2064656372656173656420616c6c6f77616e63652062656c6f77604482015264207a65726f60d81b60648201526084016108b3565b610bba8286868403610f54565b506001949350505050565b600660009054906101000a90046001600160a01b03166001600160a01b03166304d21cee6040518163ffffffff1660e01b8152600401602060405180830381865afa158015610c18573d6000803e3d6000fd5b505050506040513d601f19601f82011682018060405250810190610c3c9190612056565b6001600160a01b0316336001600160a01b031614610c6c5760405162461bcd60e51b81526004016108b39061208c565b600b5460ff1615610c8f5760405162461bcd60e51b81526004016108b3906120c3565b600754610ca7906001600160a01b0316853086611336565b610cb3600082846113a1565b806008600082825461092091906120ee565b60003361069581858561111e565b6000610681826001610f21565b6000610ceb82610df8565b841115610d3a5760405162461bcd60e51b815260206004820152601f60248201527f455243343632363a207769746864726177206d6f7265207468616e206d61780060448201526064016108b3565b6000610d458561069f565b9050610d543385858885611658565b949350505050565b6000610d6782610e1c565b841115610db65760405162461bcd60e51b815260206004820152601d60248201527f455243343632363a2072656465656d206d6f7265207468616e206d617800000060448201526064016108b3565b6000610dc185610674565b9050610d543385858489611658565b610dd86112c2565b600b805460ff1916911515919091179055565b6000610681826000611078565b6001600160a01b038116600090815260208190526040812054610681906000610f21565b6001600160a01b038116600090815260208190526040812054610681565b6001600160a01b03918216600090815260016020908152604080832093909416825291909152205490565b6007546040516370a0823160e01b81523060048201526000916001600160a01b0316906370a08231906024016107cb565b610e9e6112c2565b6001600160a01b038116610f035760405162461bcd60e51b815260206004820152602660248201527f4f776e61626c653a206e6577206f776e657220697320746865207a65726f206160448201526564647265737360d01b60648201526084016108b3565b610f0c816115d6565b50565b610f176112c2565b600d55565b601290565b600080610f2d60025490565b90508015610f4e57610f49610f406105c6565b85908386611700565b610d54565b83610d54565b6001600160a01b038316610fb65760405162461bcd60e51b8152602060048201526024808201527f45524332303a20617070726f76652066726f6d20746865207a65726f206164646044820152637265737360e01b60648201526084016108b3565b6001600160a01b0382166110175760405162461bcd60e51b815260206004820152602260248201527f45524332303a20617070726f766520746f20746865207a65726f206164647265604482015261737360f01b60648201526084016108b3565b6001600160a01b0383811660008181526001602090815260408083209487168084529482529182902085905590518481527f8c5be1e5ebec7d5bd14f71427d1e84f3dd0314c0f7b2291e5b200ac8c7c3b925910160405180910390a3505050565b60008061108460025490565b9050831580611091575080155b610f4e57610f49816110a16105c6565b86919086611700565b60006110b68484610e3a565b9050600019811461092e57818110156111115760405162461bcd60e51b815260206004820152601d60248201527f45524332303a20696e73756666696369656e7420616c6c6f77616e636500000060448201526064016108b3565b61092e8484848403610f54565b6001600160a01b0383166111825760405162461bcd60e51b815260206004820152602560248201527f45524332303a207472616e736665722066726f6d20746865207a65726f206164604482015264647265737360d81b60648201526084016108b3565b6001600160a01b0382166111e45760405162461bcd60e51b815260206004820152602360248201527f45524332303a207472616e7366657220746f20746865207a65726f206164647260448201526265737360e81b60648201526084016108b3565b6001600160a01b0383166000908152602081905260409020548181101561125c5760405162461bcd60e51b815260206004820152602660248201527f45524332303a207472616e7366657220616d6f756e7420657863656564732062604482015265616c616e636560d01b60648201526084016108b3565b6001600160a01b03848116600081815260208181526040808320878703905593871680835291849020805487019055925185815290927fddf252ad1be2c89b69c2b068fc378daa952ba7f163c4a11628f55a4df523b3ef910160405180910390a361092e565b6005546001600160a01b031633146109c65760405162461bcd60e51b815260206004820181905260248201527f4f776e61626c653a2063616c6c6572206973206e6f7420746865206f776e657260448201526064016108b3565b6000806113276105c6565b11806105dd5750506002541590565b6040516001600160a01b038085166024830152831660448201526064810182905261092e9085906323b872dd60e01b906084015b60408051601f198184030181529190526020810180516001600160e01b03166001600160e01b03199093169290921790915261175d565b82156113eb57816008546113b59190612009565b6113bf8284612101565b600a546008546113cf9190612101565b6113d99190612009565b6113e3919061212e565b600a55505050565b816008546113f991906120ee565b60000361140a576000600a55505050565b8160085461141891906120ee565b6114228284612101565b600a546008546114329190612101565b6113d991906120ee565b600660009054906101000a90046001600160a01b03166001600160a01b0316635257b5666040518163ffffffff1660e01b8152600401602060405180830381865afa15801561148f573d6000803e3d6000fd5b505050506040513d601f19601f820116820180604052508101906114b39190612056565b6001600160a01b03166366c57dca6114c9610e65565b6008546040516001600160e01b031960e085901b16815260048101929092526024820152604401602060405180830381865afa15801561150d573d6000803e3d6000fd5b505050506040513d601f19601f820116820180604052508101906115319190612073565b600955565b600b5460ff16156115595760405162461bcd60e51b81526004016108b3906120c3565b60405163521f866b60e11b81523060048201526024810183905273__$5201a97c05ba6aa659e2f36a933dd51801$__9063a43f0cd69060440160006040518083038186803b1580156115aa57600080fd5b505af41580156115be573d6000803e3d6000fd5b505050506115ce8484848461182f565b61092e61143c565b600580546001600160a01b038381166001600160a01b0319831681179093556040519116919082907f8be0079c531659141344cd1fd0a4f28419497f9722a3daafe3b4186f6b6457e090600090a35050565b6040516001600160a01b038316602482015260448101829052610b3a90849063a9059cbb60e01b9060640161136a565b600b5460ff161561167b5760405162461bcd60e51b81526004016108b3906120c3565b60405163521f866b60e11b81523060048201526024810183905273__$5201a97c05ba6aa659e2f36a933dd51801$__9063a43f0cd69060440160006040518083038186803b1580156116cc57600080fd5b505af41580156116e0573d6000803e3d6000fd5b505050506116f185858585856118c1565b6116f961143c565b5050505050565b60008061170e868686611981565b9050600183600281111561172457611724612150565b14801561174157506000848061173c5761173c612118565b868809115b1561175457611751600182612009565b90505b95945050505050565b60006117b2826040518060400160405280602081526020017f5361666545524332303a206c6f772d6c6576656c2063616c6c206661696c6564815250856001600160a01b0316611a309092919063ffffffff16565b805190915015610b3a57808060200190518101906117d09190612166565b610b3a5760405162461bcd60e51b815260206004820152602a60248201527f5361666545524332303a204552433230206f7065726174696f6e20646964206e6044820152691bdd081cdd58d8d9595960b21b60648201526084016108b3565b61185b7f0000000000000000000000000000000000000000000000000000000000000000853085611336565b6118658382611a3f565b826001600160a01b0316846001600160a01b03167fdcbc1c05240f31ff3ad067ef1ee35ce4997762752e3a095284754544f4c709d784846040516118b3929190918252602082015260400190565b60405180910390a350505050565b826001600160a01b0316856001600160a01b0316146118e5576118e58386836110aa565b6118ef8382611afe565b61191a7f00000000000000000000000000000000000000000000000000000000000000008584611628565b826001600160a01b0316846001600160a01b0316866001600160a01b03167ffbde797d201c681b91056529119e0b02407c7bb96a4a2c75c01fc9667232c8db8585604051611972929190918252602082015260400190565b60405180910390a45050505050565b60008080600019858709858702925082811083820303915050806000036119bb578382816119b1576119b1612118565b04925050506106cb565b8084116119c757600080fd5b60008486880960026001871981018816978890046003810283188082028403028082028403028082028403028082028403028082028403029081029092039091026000889003889004909101858311909403939093029303949094049190911702949350505050565b6060610d548484600085611c30565b6001600160a01b038216611a955760405162461bcd60e51b815260206004820152601f60248201527f45524332303a206d696e7420746f20746865207a65726f20616464726573730060448201526064016108b3565b8060026000828254611aa79190612009565b90915550506001600160a01b038216600081815260208181526040808320805486019055518481527fddf252ad1be2c89b69c2b068fc378daa952ba7f163c4a11628f55a4df523b3ef910160405180910390a35050565b6001600160a01b038216611b5e5760405162461bcd60e51b815260206004820152602160248201527f45524332303a206275726e2066726f6d20746865207a65726f206164647265736044820152607360f81b60648201526084016108b3565b6001600160a01b03821660009081526020819052604090205481811015611bd25760405162461bcd60e51b815260206004820152602260248201527f45524332303a206275726e20616d6f756e7420657863656564732062616c616e604482015261636560f01b60648201526084016108b3565b6001600160a01b0383166000818152602081815260408083208686039055600280548790039055518581529192917fddf252ad1be2c89b69c2b068fc378daa952ba7f163c4a11628f55a4df523b3ef910160405180910390a3505050565b606082471015611c915760405162461bcd60e51b815260206004820152602660248201527f416464726573733a20696e73756666696369656e742062616c616e636520666f6044820152651c8818d85b1b60d21b60648201526084016108b3565b600080866001600160a01b03168587604051611cad9190612183565b60006040518083038185875af1925050503d8060008114611cea576040519150601f19603f3d011682016040523d82523d6000602084013e611cef565b606091505b5091509150611d0087838387611d0b565b979650505050505050565b60608315611d7a578251600003611d73576001600160a01b0385163b611d735760405162461bcd60e51b815260206004820152601d60248201527f416464726573733a2063616c6c20746f206e6f6e2d636f6e747261637400000060448201526064016108b3565b5081610d54565b610d548383815115611d8f5781518083602001fd5b8060405162461bcd60e51b81526004016108b39190611dcd565b60005b83811015611dc4578181015183820152602001611dac565b50506000910152565b6020815260008251806020840152611dec816040850160208701611da9565b601f01601f19169190910160400192915050565b600060208284031215611e1257600080fd5b5035919050565b6001600160a01b0381168114610f0c57600080fd5b60008060408385031215611e4157600080fd5b8235611e4c81611e19565b946020939093013593505050565b600080600060608486031215611e6f57600080fd5b8335611e7a81611e19565b92506020840135611e8a81611e19565b929592945050506040919091013590565b600060208284031215611ead57600080fd5b81356106cb81611e19565b60008060008060808587031215611ece57600080fd5b8435611ed981611e19565b966020860135965060408601359560600135945092505050565b60008060408385031215611f0657600080fd5b823591506020830135611f1881611e19565b809150509250929050565b600080600060608486031215611f3857600080fd5b8335611f4381611e19565b95602085013595506040909401359392505050565b600080600060608486031215611f6d57600080fd5b833592506020840135611f7f81611e19565b91506040840135611f8f81611e19565b809150509250925092565b8015158114610f0c57600080fd5b600060208284031215611fba57600080fd5b81356106cb81611f9a565b60008060408385031215611fd857600080fd5b8235611fe381611e19565b91506020830135611f1881611e19565b634e487b7160e01b600052601160045260246000fd5b8082018082111561068157610681611ff3565b600181811c9082168061203057607f821691505b60208210810361205057634e487b7160e01b600052602260045260246000fd5b50919050565b60006020828403121561206857600080fd5b81516106cb81611e19565b60006020828403121561208557600080fd5b5051919050565b6020808252601f908201527f43616c6c657273206d757374206265204d61726b657420636f6e747261637400604082015260600190565b60208082526011908201527014995cd95c9d99481a5cc81c185d5cd959607a1b604082015260600190565b8181038181111561068157610681611ff3565b808202811582820484141761068157610681611ff3565b634e487b7160e01b600052601260045260246000fd5b60008261214b57634e487b7160e01b600052601260045260246000fd5b500490565b634e487b7160e01b600052602160045260246000fd5b60006020828403121561217857600080fd5b81516106cb81611f9a565b60008251612195818460208701611da9565b919091019291505056fea2646970667358221220301ebb71b340d4df998a29050b8cc2b139a1ead57e1177efef2845576d32251064736f6c63430008110033a26469706673582212204c979bccf29806edf9740c78746ab0bcb0a597dc6d3d64dcb0ebf0d6e88ce7bd64736f6c63430008110033",
  "linkReferences": {
    "contracts/libraries/logic/BorrowLogic.sol": {
      "BorrowLogic": [
        {
          "length": 20,
          "start": 3279
        },
        {
          "length": 20,
          "start": 3593
        }
      ]
    },
    "contracts/libraries/logic/LiquidationLogic.sol": {
      "LiquidationLogic": [
        {
          "length": 20,
          "start": 770
        }
      ]
    },
    "contracts/libraries/logic/ValidationLogic.sol": {
      "ValidationLogic": [
        {
          "length": 20,
          "start": 14873
        },
        {
          "length": 20,
          "start": 15163
        }
      ]
    }
  },
  "deployedLinkReferences": {
    "contracts/libraries/logic/BorrowLogic.sol": {
      "BorrowLogic": [
        {
          "length": 20,
          "start": 3247
        },
        {
          "length": 20,
          "start": 3561
        }
      ]
    },
    "contracts/libraries/logic/LiquidationLogic.sol": {
      "LiquidationLogic": [
        {
          "length": 20,
          "start": 738
        }
      ]
    },
    "contracts/libraries/logic/ValidationLogic.sol": {
      "ValidationLogic": [
        {
          "length": 20,
          "start": 14841
        },
        {
          "length": 20,
          "start": 15131
        }
      ]
    }
  }
}