{
  "_format": "hh-sol-artifact-1",
  "contractName": "LinearPriceCurve",
  "sourceName": "contracts/protocol/Trading/PricingCurves/Linear.sol",
  "abi": [
    {
      "inputs": [
        {
          "internalType": "uint256",
          "name": "price",
          "type": "uint256"
        },
        {
          "internalType": "uint256",
          "name": "delta",
          "type": "uint256"
        },
        {
          "internalType": "uint256",
          "name": "",
          "type": "uint256"
        }
      ],
      "name": "priceAfterBuy",
      "outputs": [
        {
          "internalType": "uint256",
          "name": "",
          "type": "uint256"
        }
      ],
      "stateMutability": "pure",
      "type": "function"
    },
    {
      "inputs": [
        {
          "internalType": "uint256",
          "name": "price",
          "type": "uint256"
        },
        {
          "internalType": "uint256",
          "name": "delta",
          "type": "uint256"
        },
        {
          "internalType": "uint256",
          "name": "fee",
          "type": "uint256"
        }
      ],
      "name": "priceAfterSell",
      "outputs": [
        {
          "internalType": "uint256",
          "name": "",
          "type": "uint256"
        }
      ],
      "stateMutability": "pure",
      "type": "function"
    },
    {
      "inputs": [
        {
          "internalType": "bytes4",
          "name": "interfaceId",
          "type": "bytes4"
        }
      ],
      "name": "supportsInterface",
      "outputs": [
        {
          "internalType": "bool",
          "name": "",
          "type": "bool"
        }
      ],
      "stateMutability": "view",
      "type": "function"
    },
    {
      "inputs": [
        {
          "internalType": "uint256",
          "name": "spotPrice",
          "type": "uint256"
        },
        {
          "internalType": "uint256",
          "name": "delta",
          "type": "uint256"
        },
        {
          "internalType": "uint256",
          "name": "fee",
          "type": "uint256"
        }
      ],
      "name": "validateLpParameters",
      "outputs": [],
      "stateMutability": "pure",
      "type": "function"
    }
  ],
  "bytecode": "0x608060405234801561001057600080fd5b50610330806100206000396000f3fe608060405234801561001057600080fd5b506004361061004c5760003560e01c806301ffc9a7146100515780636bc1c55d1461007957806394ed03f91461008e578063d6c2b8c6146100af575b600080fd5b61006461005f366004610251565b6100c2565b60405190151581526020015b60405180910390f35b61008c61008736600461027b565b6100f9565b005b6100a161009c36600461027b565b6101e4565b604051908152602001610070565b6100a16100bd36600461027b565b61023d565b60006001600160e01b031982166314f73f3160e11b14806100f357506301ffc9a760e01b6001600160e01b03198316145b92915050565b600083116101475760405162461bcd60e51b81526020600482015260166024820152754c50433a564c50503a494e56414c49445f505249434560501b60448201526064015b60405180910390fd5b6000811180156101575750600082115b156101df57610168816127106102bd565b61017290846102d0565b61017e826127106102e7565b61018884866102bd565b61019291906102d0565b116101df5760405162461bcd60e51b815260206004820181905260248201527f4c50433a564c50503a494e56414c49445f4645455f44454c54415f524154494f604482015260640161013e565b505050565b60006101f2826127106102bd565b6101fc90856102d0565b610208836127106102e7565b61021285876102bd565b61021c91906102d0565b11156102335761022c83856102bd565b9050610236565b50825b9392505050565b600061024983856102e7565b949350505050565b60006020828403121561026357600080fd5b81356001600160e01b03198116811461023657600080fd5b60008060006060848603121561029057600080fd5b505081359360208301359350604090920135919050565b634e487b7160e01b600052601160045260246000fd5b818103818111156100f3576100f36102a7565b80820281158282048414176100f3576100f36102a7565b808201808211156100f3576100f36102a756fea2646970667358221220502c73fef12ea58dac77294343f25aa579ef7ece9376be9ccd5256d80100993264736f6c63430008130033",
  "linkReferences": {},
  "deployedLinkReferences": {}
}