{
  "_format": "hh-sol-artifact-1",
  "contractName": "LinearPriceCurve",
  "sourceName": "contracts/protocol/Trading/PricingCurves/Linear.sol",
  "abi": [
    {
      "inputs": [
        {
          "internalType": "uint256",
          "name": "price",
          "type": "uint256"
        },
        {
          "internalType": "uint256",
          "name": "delta",
          "type": "uint256"
        },
        {
          "internalType": "uint256",
          "name": "fee",
          "type": "uint256"
        }
      ],
      "name": "priceAfterBuy",
      "outputs": [
        {
          "internalType": "uint256",
          "name": "",
          "type": "uint256"
        }
      ],
      "stateMutability": "pure",
      "type": "function"
    },
    {
      "inputs": [
        {
          "internalType": "uint256",
          "name": "price",
          "type": "uint256"
        },
        {
          "internalType": "uint256",
          "name": "delta",
          "type": "uint256"
        },
        {
          "internalType": "uint256",
          "name": "fee",
          "type": "uint256"
        }
      ],
      "name": "priceAfterSell",
      "outputs": [
        {
          "internalType": "uint256",
          "name": "",
          "type": "uint256"
        }
      ],
      "stateMutability": "pure",
      "type": "function"
    },
    {
      "inputs": [
        {
          "internalType": "bytes4",
          "name": "interfaceId",
          "type": "bytes4"
        }
      ],
      "name": "supportsInterface",
      "outputs": [
        {
          "internalType": "bool",
          "name": "",
          "type": "bool"
        }
      ],
      "stateMutability": "view",
      "type": "function"
    },
    {
      "inputs": [
        {
          "internalType": "uint256",
          "name": "spotPrice",
          "type": "uint256"
        },
        {
          "internalType": "uint256",
          "name": "",
          "type": "uint256"
        },
        {
          "internalType": "uint256",
          "name": "",
          "type": "uint256"
        }
      ],
      "name": "validateLpParameters",
      "outputs": [],
      "stateMutability": "pure",
      "type": "function"
    }
  ],
  "bytecode": "0x608060405234801561001057600080fd5b50610340806100206000396000f3fe608060405234801561001057600080fd5b506004361061004c5760003560e01c806301ffc9a7146100515780636bc1c55d1461007957806394ed03f91461008e578063d6c2b8c6146100af575b600080fd5b61006461005f36600461023f565b6100c2565b60405190151581526020015b60405180910390f35b61008c610087366004610269565b6100f9565b005b6100a161009c366004610269565b61014b565b604051908152602001610070565b6100a16100bd366004610269565b6101d8565b60006001600160e01b031982166314f73f3160e11b14806100f357506301ffc9a760e01b6001600160e01b03198316145b92915050565b600083116101465760405162461bcd60e51b81526020600482015260166024820152754c50433a564c50503a494e56414c49445f505249434560501b604482015260640160405180910390fd5b505050565b60008383111561015c5750826101d1565b600061271061016b84826102ab565b61017586886102be565b61017f91906102d1565b61018991906102e8565b9050600061271061019a85826102be565b6101a490886102d1565b6101ae91906102e8565b9050808211156101cb576101c285876102be565b925050506101d1565b85925050505b9392505050565b6000806127106101e884826102be565b6101f286886102ab565b6101fc91906102d1565b61020691906102e8565b9050600061271061021785826102ab565b61022190886102d1565b61022b91906102e8565b9050808210156101cb576101c285876102ab565b60006020828403121561025157600080fd5b81356001600160e01b0319811681146101d157600080fd5b60008060006060848603121561027e57600080fd5b505081359360208301359350604090920135919050565b634e487b7160e01b600052601160045260246000fd5b808201808211156100f3576100f3610295565b818103818111156100f3576100f3610295565b80820281158282048414176100f3576100f3610295565b60008261030557634e487b7160e01b600052601260045260246000fd5b50049056fea264697066735822122001c222e6e080a8af39c5ff66f23bc73516ff4e14e7f59222ad028378a92cdd1864736f6c63430008130033",
  "linkReferences": {},
  "deployedLinkReferences": {}
}