{
  "_format": "hh-sol-artifact-1",
  "contractName": "LiquidityPairMetadata",
  "sourceName": "contracts/protocol/Trading/LiquidityPairMetadata.sol",
  "abi": [
    {
      "inputs": [
        {
          "internalType": "address",
          "name": "tradingPool",
          "type": "address"
        },
        {
          "internalType": "uint256",
          "name": "tokenId",
          "type": "uint256"
        }
      ],
      "name": "attributes",
      "outputs": [
        {
          "internalType": "string",
          "name": "",
          "type": "string"
        }
      ],
      "stateMutability": "view",
      "type": "function"
    },
    {
      "inputs": [
        {
          "internalType": "address",
          "name": "tradingPool",
          "type": "address"
        },
        {
          "internalType": "uint256",
          "name": "tokenId",
          "type": "uint256"
        }
      ],
      "name": "svg",
      "outputs": [
        {
          "internalType": "bytes",
          "name": "_svg",
          "type": "bytes"
        }
      ],
      "stateMutability": "view",
      "type": "function"
    },
    {
      "inputs": [
        {
          "internalType": "address",
          "name": "tradingPool",
          "type": "address"
        },
        {
          "internalType": "uint256",
          "name": "tokenId",
          "type": "uint256"
        }
      ],
      "name": "tokenURI",
      "outputs": [
        {
          "internalType": "string",
          "name": "",
          "type": "string"
        }
      ],
      "stateMutability": "view",
      "type": "function"
    }
  ],
  "bytecode": "0x608060405234801561001057600080fd5b50611c84806100206000396000f3fe608060405234801561001057600080fd5b50600436106100415760003560e01c80633199ea4f14610046578063c25a44d31461006f578063e9dc637514610082575b600080fd5b610059610054366004610f40565b610095565b6040516100669190610fbc565b60405180910390f35b61005961007d366004610f40565b6103e2565b610059610090366004610f40565b61086b565b6040516319ba7e5360e31b8152600481018290526060906000906001600160a01b0385169063cdd3f29890602401600060405180830381865afa1580156100e0573d6000803e3d6000fd5b505050506040513d6000823e601f3d908101601f1916820160405261010891908101906110de565b905060606101426040518060400160405280600c81526020016b506f6f6c206164647265737360a01b81525061013d87610a81565b610a97565b6101cd604051806040016040528060058152602001642a37b5b2b760d91b81525061013d886001600160a01b03166321df0da76040518163ffffffff1660e01b8152600401602060405180830381865afa1580156101a4573d6000803e3d6000fd5b505050506040513d601f19601f820116820180604052508101906101c89190611198565b610a81565b61022d6040518060400160405280600381526020016213919560ea1b81525061013d896001600160a01b03166388a6360e6040518163ffffffff1660e01b8152600401602060405180830381865afa1580156101a4573d6000803e3d6000fd5b61025b60405180604001604052806005815260200164507269636560d81b81525061013d8760600151610ac3565b6102916040518060400160405280600d81526020016c546f6b656e2062616c616e636560981b81525061013d8860400151610ac3565b6040516020016102a59594939291906111d1565b6040516020818303038152906040529050806102ec6040518060400160405280600b81526020016a4e46542062616c616e636560a81b81525061013d856020015151610ac3565b61031a60405180604001604052806005815260200164437572766560d81b81525061013d8660800151610a81565b6103486040518060400160405280600581526020016444656c746160d81b81525061013d8760a00151610ac3565b6103746040518060400160405280600381526020016246656560e81b81525061013d8860c00151610ac3565b6103b2604051806040016040528060048152602001635479706560e01b81525061013d896000015160048111156103ad576103ad611270565b610ac3565b6040516020016103c796959493929190611286565b60408051601f19818403018152919052925050505b92915050565b6040516319ba7e5360e31b8152600481018290526060906000906001600160a01b0385169063cdd3f29890602401600060405180830381865afa15801561042d573d6000803e3d6000fd5b505050506040513d6000823e601f3d908101601f1916820160405261045591908101906110de565b9050836001600160a01b03166388a6360e6040518163ffffffff1660e01b8152600401602060405180830381865afa158015610495573d6000803e3d6000fd5b505050506040513d601f19601f820116820180604052508101906104b99190611198565b6001600160a01b03166395d89b416040518163ffffffff1660e01b8152600401600060405180830381865afa1580156104f6573d6000803e3d6000fd5b505050506040513d6000823e601f3d908101601f1916820160405261051e9190810190611331565b846001600160a01b03166321df0da76040518163ffffffff1660e01b8152600401602060405180830381865afa15801561055c573d6000803e3d6000fd5b505050506040513d601f19601f820116820180604052508101906105809190611198565b6001600160a01b03166395d89b416040518163ffffffff1660e01b8152600401600060405180830381865afa1580156105bd573d6000803e3d6000fd5b505050506040513d6000823e601f3d908101601f191682016040526105e59190810190611331565b6105ee85610ac3565b604051602001610600939291906113c5565b604051602081830303815290604052915061061a84610a81565b846001600160a01b03166388a6360e6040518163ffffffff1660e01b8152600401602060405180830381865afa158015610658573d6000803e3d6000fd5b505050506040513d601f19601f8201168201806040525081019061067c9190611198565b6001600160a01b03166306fdde036040518163ffffffff1660e01b8152600401600060405180830381865afa1580156106b9573d6000803e3d6000fd5b505050506040513d6000823e601f3d908101601f191682016040526106e19190810190611331565b856001600160a01b03166321df0da76040518163ffffffff1660e01b8152600401602060405180830381865afa15801561071f573d6000803e3d6000fd5b505050506040513d601f19601f820116820180604052508101906107439190611198565b6001600160a01b03166306fdde036040518163ffffffff1660e01b8152600401600060405180830381865afa158015610780573d6000803e3d6000fd5b505050506040513d6000823e601f3d908101601f191682016040526107a89190810190611331565b6040516020016107ba9392919061156d565b6040516020818303038152906040529150816107d98260600151610ac3565b6107e7836020015151610ac3565b6107f48460400151610ac3565b604051602001610807949392919061166a565b6040516020818303038152906040529150816108268260c00151610ac3565b6108338360800151610a81565b6108408460a00151610ac3565b60405160200161085394939291906117cf565b60405160208183030381529060405291505092915050565b606080836001600160a01b03166388a6360e6040518163ffffffff1660e01b8152600401602060405180830381865afa1580156108ac573d6000803e3d6000fd5b505050506040513d601f19601f820116820180604052508101906108d09190611198565b6001600160a01b03166395d89b416040518163ffffffff1660e01b8152600401600060405180830381865afa15801561090d573d6000803e3d6000fd5b505050506040513d6000823e601f3d908101601f191682016040526109359190810190611331565b846001600160a01b03166321df0da76040518163ffffffff1660e01b8152600401602060405180830381865afa158015610973573d6000803e3d6000fd5b505050506040513d601f19601f820116820180604052508101906109979190611198565b6001600160a01b03166395d89b416040518163ffffffff1660e01b8152600401600060405180830381865afa1580156109d4573d6000803e3d6000fd5b505050506040513d6000823e601f3d908101601f191682016040526109fc9190810190611331565b610a0585610ac3565b604051602001610a1793929190611927565b604051602081830303815290604052905080610a3b610a3686866103e2565b610b56565b610a458686610095565b604051602001610a57939291906119bf565b6040516020818303038152906040529050610a7181610b56565b6040516020016108539190611abc565b60606103dc6001600160a01b0383166014610ca9565b60608282604051602001610aac929190611b01565b604051602081830303815290604052905092915050565b60606000610ad083610e50565b600101905060008167ffffffffffffffff811115610af057610af0610fcf565b6040519080825280601f01601f191660200182016040528015610b1a576020820181803683370190505b5090508181016020015b600019016f181899199a1a9b1b9c1cb0b131b232b360811b600a86061a8153600a8504945084610b2457509392505050565b60608151600003610b7557505060408051602081019091526000815290565b6000604051806060016040528060408152602001611c0f6040913990506000600384516002610ba49190611b95565b610bae9190611ba8565b610bb9906004611bca565b67ffffffffffffffff811115610bd157610bd1610fcf565b6040519080825280601f01601f191660200182016040528015610bfb576020820181803683370190505b509050600182016020820185865187015b80821015610c67576003820191508151603f8160121c168501518453600184019350603f81600c1c168501518453600184019350603f8160061c168501518453600184019350603f8116850151845350600183019250610c0c565b5050600386510660018114610c835760028114610c9657610c9e565b603d6001830353603d6002830353610c9e565b603d60018303535b509195945050505050565b60606000610cb8836002611bca565b610cc3906002611b95565b67ffffffffffffffff811115610cdb57610cdb610fcf565b6040519080825280601f01601f191660200182016040528015610d05576020820181803683370190505b509050600360fc1b81600081518110610d2057610d20611be1565b60200101906001600160f81b031916908160001a905350600f60fb1b81600181518110610d4f57610d4f611be1565b60200101906001600160f81b031916908160001a9053506000610d73846002611bca565b610d7e906001611b95565b90505b6001811115610df6576f181899199a1a9b1b9c1cb0b131b232b360811b85600f1660108110610db257610db2611be1565b1a60f81b828281518110610dc857610dc8611be1565b60200101906001600160f81b031916908160001a90535060049490941c93610def81611bf7565b9050610d81565b508315610e495760405162461bcd60e51b815260206004820181905260248201527f537472696e67733a20686578206c656e67746820696e73756666696369656e74604482015260640160405180910390fd5b9392505050565b60008072184f03e93ff9f4daa797ed6e38ed64bf6a1f0160401b8310610e8f5772184f03e93ff9f4daa797ed6e38ed64bf6a1f0160401b830492506040015b6d04ee2d6d415b85acef81000000008310610ebb576d04ee2d6d415b85acef8100000000830492506020015b662386f26fc100008310610ed957662386f26fc10000830492506010015b6305f5e1008310610ef1576305f5e100830492506008015b6127108310610f0557612710830492506004015b60648310610f17576064830492506002015b600a83106103dc5760010192915050565b6001600160a01b0381168114610f3d57600080fd5b50565b60008060408385031215610f5357600080fd5b8235610f5e81610f28565b946020939093013593505050565b60005b83811015610f87578181015183820152602001610f6f565b50506000910152565b60008151808452610fa8816020860160208601610f6c565b601f01601f19169290920160200192915050565b602081526000610e496020830184610f90565b634e487b7160e01b600052604160045260246000fd5b60405160e0810167ffffffffffffffff8111828210171561100857611008610fcf565b60405290565b604051601f8201601f1916810167ffffffffffffffff8111828210171561103757611037610fcf565b604052919050565b80516005811061104e57600080fd5b919050565b600082601f83011261106457600080fd5b8151602067ffffffffffffffff82111561108057611080610fcf565b8160051b61108f82820161100e565b92835284810182019282810190878511156110a957600080fd5b83870192505b848310156110c8578251825291830191908301906110af565b979650505050505050565b805161104e81610f28565b6000602082840312156110f057600080fd5b815167ffffffffffffffff8082111561110857600080fd5b9083019060e0828603121561111c57600080fd5b611124610fe5565b61112d8361103f565b815260208301518281111561114157600080fd5b61114d87828601611053565b6020830152506040830151604082015260608301516060820152611173608084016110d3565b608082015260a083015160a082015260c083015160c082015280935050505092915050565b6000602082840312156111aa57600080fd5b8151610e4981610f28565b600081516111c7818560208601610f6c565b9290920192915050565b600086516111e3818460208b01610f6c565b8083019050600b60fa1b8082528751611203816001850160208c01610f6c565b600192019182018190528651611220816002850160208b01610f6c565b60029201918201819052855161123d816003850160208a01610f6c565b60039201918201819052845161125a816004850160208901610f6c565b6004920191820152600501979650505050505050565b634e487b7160e01b600052602160045260246000fd5b6000875160206112998285838d01610f6c565b8851918401916112ac8184848d01610f6c565b600b60fa1b920182815288519092906112cb8160018601858d01610f6c565b6001930192830181905287516112e78160028601858c01610f6c565b6002930192830181905286516113038160038601858b01610f6c565b6003930192830152845161131d8160048501848901610f6c565b919091016004019998505050505050505050565b60006020828403121561134357600080fd5b815167ffffffffffffffff8082111561135b57600080fd5b818401915084601f83011261136f57600080fd5b81518181111561138157611381610fcf565b611394601f8201601f191660200161100e565b91508082528560208285010111156113ab57600080fd5b6113bc816020840160208601610f6c565b50949350505050565b7f3c73766720786d6c6e733d22687474703a2f2f7777772e77332e6f72672f323081527f30302f737667222076696577426f783d2230203020343030203430302220737460208201527f796c653d2277696474683a313030253b6261636b67726f756e643a236561656160408201527f65613b66696c6c3a626c61636b3b666f6e742d66616d696c793a6d6f6e6f737060608201526430b1b2911f60d91b60808201527f3c7465787420783d223530252220793d22323470782220666f6e742d73697a6560858201527f3d2231322220746578742d616e63686f723d226d6964646c65223e000000000060a58201527203632a7232a102a3930b234b733902830b4b91606d1b60c0820152600084516114e58160d3850160208901610f6c565b8451908301906114fc8160d3840160208901610f6c565b6110c861153561152261151c60d38587010161202360f01b815260020190565b886111b5565b661e17ba32bc3a1f60c91b815260070190565b7f3c7465787420783d22323470782220793d22373270782220666f6e742d73697a815265329e911c111f60d11b602082015260260190565b6d02a3930b234b733903837b7b61d160951b81526000845161159681600e850160208901610f6c565b661e17ba32bc3a1f60c91b600e9184019182018190527f3c7465787420783d22323470782220793d22393070782220666f6e742d73697a601583015265329e911c111f60d11b603583015264027232a1d160dd1b603b8301528551611602816040850160208a01610f6c565b60409201918201527f3c7465787420783d22323470782220793d2231303870782220666f6e742d73696047820152663d329e911c111f60c91b60678201526602a37b5b2b71d160cd1b606e82015261166061152260758301866111b5565b9695505050505050565b6000855161167c818460208a01610f6c565b80830190507f3c7465787420783d22323470782220793d2231323670782220666f6e742d73698152663d329e911c111f60c91b806020830152660283934b1b29d160cd1b602783015286516116d881602e850160208b01610f6c565b661e17ba32bc3a1f60c91b602e93909101928301527f3c7465787420783d22323470782220793d2231343470782220666f6e742d7369603583015260558201526c027232a102130b630b731b29d1609d1b605c8201528451611741816069840160208901610f6c565b6117c36115226117bd6117a2611769606986880101661e17ba32bc3a1f60c91b815260070190565b7f3c7465787420783d22323470782220793d2231363270782220666f6e742d73698152663d329e911c111f60c91b602082015260270190565b6e02a37b5b2b7102130b630b731b29d1608d1b8152600f0190565b876111b5565b98975050505050505050565b600085516117e1818460208a01610f6c565b80830190507f3c7465787420783d22323470782220793d2231383070782220666f6e742d73698152663d329e911c111f60c91b8060208301526402332b29d160dd1b6027830152865161183b81602c850160208b01610f6c565b661e17ba32bc3a1f60c91b602c93909101928301527f3c7465787420783d22323470782220793d2231393870782220666f6e742d73696033830152605382015266021bab93b329d160cd1b605a820152845161189e816061840160208901610f6c565b6117c361191561152261151c6119026118c9606187890101661e17ba32bc3a1f60c91b815260070190565b7f3c7465787420783d22323470782220793d2232313670782220666f6e742d73698152663d329e911c111f60c91b602082015260270190565b6602232b63a309d160cd1b815260070190565b651e17b9bb339f60d11b815260060190565b607b60f81b81527f226e616d65223a20224c69717569646974792050616972200000000000000000600182015260008451611969816019850160208901610f6c565b845190830190611980816019840160208901610f6c565b61202360f01b6019929091019182015283516119a381601b840160208801610f6c565b61088b60f21b601b9290910191820152601d0195945050505050565b600084516119d1818460208901610f6c565b80830190507f226465736372697074696f6e223a20226c654e46542074726164696e67206c6981526e1c5d5a591a5d1e481c185a5c8b888b608a1b60208201526801134b6b0b3b2911d160bd1b602f8201527f22646174613a696d6167652f7376672b786d6c3b6261736536342c000000000060388201528451611a5c816053840160208901610f6c565b61088b60f21b605392909101918201526e2261747472696275746573223a205b60881b60558201528351611a97816064840160208801610f6c565b605d60f81b60649290910191820152607d60f81b606582015260660195945050505050565b7f646174613a6170706c69636174696f6e2f6a736f6e3b6261736536342c000000815260008251611af481601d850160208701610f6c565b91909101601d0192915050565b703d90113a3930b4ba2fba3cb832911d101160791b81528251600090611b2e816011850160208801610f6c565b61088b60f21b60119184019182015269113b30b63ab2911d101160b11b60138201528351611b6381601d840160208801610f6c565b6222207d60e81b601d9290910191820152602001949350505050565b634e487b7160e01b600052601160045260246000fd5b808201808211156103dc576103dc611b7f565b600082611bc557634e487b7160e01b600052601260045260246000fd5b500490565b80820281158282048414176103dc576103dc611b7f565b634e487b7160e01b600052603260045260246000fd5b600081611c0657611c06611b7f565b50600019019056fe4142434445464748494a4b4c4d4e4f505152535455565758595a6162636465666768696a6b6c6d6e6f707172737475767778797a303132333435363738392b2fa2646970667358221220707fd35135ee65bc41425aa951834893740ed23bfd121d6ef1f05daa5eb581ad64736f6c63430008130033",
  "linkReferences": {},
  "deployedLinkReferences": {}
}