{
  "_format": "hh-sol-artifact-1",
  "contractName": "LiquidityPairMetadata",
  "sourceName": "contracts/protocol/Trading/LiquidityPairMetadata.sol",
  "abi": [
    {
      "inputs": [
        {
          "internalType": "address",
          "name": "tradingPool",
          "type": "address"
        },
        {
          "internalType": "uint256",
          "name": "tokenId",
          "type": "uint256"
        }
      ],
      "name": "attributes",
      "outputs": [
        {
          "internalType": "string",
          "name": "",
          "type": "string"
        }
      ],
      "stateMutability": "view",
      "type": "function"
    },
    {
      "inputs": [
        {
          "internalType": "address",
          "name": "tradingPool",
          "type": "address"
        },
        {
          "internalType": "uint256",
          "name": "tokenId",
          "type": "uint256"
        }
      ],
      "name": "svg",
      "outputs": [
        {
          "internalType": "bytes",
          "name": "_svg",
          "type": "bytes"
        }
      ],
      "stateMutability": "view",
      "type": "function"
    },
    {
      "inputs": [
        {
          "internalType": "address",
          "name": "tradingPool",
          "type": "address"
        },
        {
          "internalType": "uint256",
          "name": "tokenId",
          "type": "uint256"
        }
      ],
      "name": "tokenURI",
      "outputs": [
        {
          "internalType": "string",
          "name": "",
          "type": "string"
        }
      ],
      "stateMutability": "view",
      "type": "function"
    }
  ],
  "bytecode": "0x608060405234801561001057600080fd5b50611d7c806100206000396000f3fe608060405234801561001057600080fd5b50600436106100415760003560e01c80633199ea4f14610046578063c25a44d31461006f578063e9dc637514610082575b600080fd5b610059610054366004611027565b610095565b60405161006691906110a3565b60405180910390f35b61005961007d366004611027565b6103ed565b610059610090366004611027565b610885565b606082826100a38282610aa8565b6040516319ba7e5360e31b8152600481018590526000906001600160a01b0387169063cdd3f29890602401600060405180830381865afa1580156100eb573d6000803e3d6000fd5b505050506040513d6000823e601f3d908101601f1916820160405261011391908101906111c5565b9050606061014d6040518060400160405280600c81526020016b506f6f6c206164647265737360a01b81525061014889610b66565b610b82565b6101d8604051806040016040528060058152602001642a37b5b2b760d91b8152506101488a6001600160a01b03166321df0da76040518163ffffffff1660e01b8152600401602060405180830381865afa1580156101af573d6000803e3d6000fd5b505050506040513d601f19601f820116820180604052508101906101d3919061127f565b610b66565b6102386040518060400160405280600381526020016213919560ea1b8152506101488b6001600160a01b03166388a6360e6040518163ffffffff1660e01b8152600401602060405180830381865afa1580156101af573d6000803e3d6000fd5b61026660405180604001604052806005815260200164507269636560d81b8152506101488760600151610bae565b61029c6040518060400160405280600d81526020016c546f6b656e2062616c616e636560981b8152506101488860400151610bae565b6040516020016102b09594939291906112b8565b6040516020818303038152906040529050806102f76040518060400160405280600b81526020016a4e46542062616c616e636560a81b815250610148856020015151610bae565b61032560405180604001604052806005815260200164437572766560d81b8152506101488660800151610b66565b6103536040518060400160405280600581526020016444656c746160d81b8152506101488760a00151610bae565b61037f6040518060400160405280600381526020016246656560e81b8152506101488860c00151610bae565b6103bd604051806040016040528060048152602001635479706560e01b815250610148896000015160048111156103b8576103b8611357565b610bae565b6040516020016103d29695949392919061136d565b60408051808303601f19018152919052979650505050505050565b606082826103fb8282610aa8565b6040516319ba7e5360e31b8152600481018590526000906001600160a01b0387169063cdd3f29890602401600060405180830381865afa158015610443573d6000803e3d6000fd5b505050506040513d6000823e601f3d908101601f1916820160405261046b91908101906111c5565b9050856001600160a01b03166388a6360e6040518163ffffffff1660e01b8152600401602060405180830381865afa1580156104ab573d6000803e3d6000fd5b505050506040513d601f19601f820116820180604052508101906104cf919061127f565b6001600160a01b03166395d89b416040518163ffffffff1660e01b8152600401600060405180830381865afa15801561050c573d6000803e3d6000fd5b505050506040513d6000823e601f3d908101601f191682016040526105349190810190611418565b866001600160a01b03166321df0da76040518163ffffffff1660e01b8152600401602060405180830381865afa158015610572573d6000803e3d6000fd5b505050506040513d601f19601f82011682018060405250810190610596919061127f565b6001600160a01b03166395d89b416040518163ffffffff1660e01b8152600401600060405180830381865afa1580156105d3573d6000803e3d6000fd5b505050506040513d6000823e601f3d908101601f191682016040526105fb9190810190611418565b61060487610bae565b604051602001610616939291906114ac565b60405160208183030381529060405293508361063187610b66565b876001600160a01b03166388a6360e6040518163ffffffff1660e01b8152600401602060405180830381865afa15801561066f573d6000803e3d6000fd5b505050506040513d601f19601f82011682018060405250810190610693919061127f565b6001600160a01b03166306fdde036040518163ffffffff1660e01b8152600401600060405180830381865afa1580156106d0573d6000803e3d6000fd5b505050506040513d6000823e601f3d908101601f191682016040526106f89190810190611418565b886001600160a01b03166321df0da76040518163ffffffff1660e01b8152600401602060405180830381865afa158015610736573d6000803e3d6000fd5b505050506040513d601f19601f8201168201806040525081019061075a919061127f565b6001600160a01b03166306fdde036040518163ffffffff1660e01b8152600401600060405180830381865afa158015610797573d6000803e3d6000fd5b505050506040513d6000823e601f3d908101601f191682016040526107bf9190810190611418565b6040516020016107d29493929190611654565b6040516020818303038152906040529350836107f18260600151610bae565b6107ff836020015151610bae565b61080c8460400151610bae565b60405160200161081f9493929190611762565b60405160208183030381529060405293508361083e8260c00151610bae565b61084b8360800151610b66565b6108588460a00151610bae565b60405160200161086b94939291906118c7565b604051602081830303815290604052935050505092915050565b606082826108938282610aa8565b6060856001600160a01b03166388a6360e6040518163ffffffff1660e01b8152600401602060405180830381865afa1580156108d3573d6000803e3d6000fd5b505050506040513d601f19601f820116820180604052508101906108f7919061127f565b6001600160a01b03166395d89b416040518163ffffffff1660e01b8152600401600060405180830381865afa158015610934573d6000803e3d6000fd5b505050506040513d6000823e601f3d908101601f1916820160405261095c9190810190611418565b866001600160a01b03166321df0da76040518163ffffffff1660e01b8152600401602060405180830381865afa15801561099a573d6000803e3d6000fd5b505050506040513d601f19601f820116820180604052508101906109be919061127f565b6001600160a01b03166395d89b416040518163ffffffff1660e01b8152600401600060405180830381865afa1580156109fb573d6000803e3d6000fd5b505050506040513d6000823e601f3d908101601f19168201604052610a239190810190611418565b610a2c87610bae565b604051602001610a3e93929190611a1f565b604051602081830303815290604052905080610a62610a5d88886103ed565b610c41565b610a6c8888610095565b604051602001610a7e93929190611ab7565b6040516020818303038152906040529050610a9881610c41565b60405160200161086b9190611bb4565b6040516331a9108f60e11b8152600481018290526000906001600160a01b03841690636352211e90602401602060405180830381865afa158015610af0573d6000803e3d6000fd5b505050506040513d601f19601f82011682018060405250810190610b14919061127f565b6001600160a01b031603610b625760405162461bcd60e51b815260206004820152601060248201526f1314134e931417d393d517d193d5539160821b60448201526064015b60405180910390fd5b5050565b6060610b7c6001600160a01b0383166014610d94565b92915050565b60608282604051602001610b97929190611bf9565b604051602081830303815290604052905092915050565b60606000610bbb83610f37565b600101905060008167ffffffffffffffff811115610bdb57610bdb6110b6565b6040519080825280601f01601f191660200182016040528015610c05576020820181803683370190505b5090508181016020015b600019016f181899199a1a9b1b9c1cb0b131b232b360811b600a86061a8153600a8504945084610c0f57509392505050565b60608151600003610c6057505060408051602081019091526000815290565b6000604051806060016040528060408152602001611d076040913990506000600384516002610c8f9190611c8d565b610c999190611ca0565b610ca4906004611cc2565b67ffffffffffffffff811115610cbc57610cbc6110b6565b6040519080825280601f01601f191660200182016040528015610ce6576020820181803683370190505b509050600182016020820185865187015b80821015610d52576003820191508151603f8160121c168501518453600184019350603f81600c1c168501518453600184019350603f8160061c168501518453600184019350603f8116850151845350600183019250610cf7565b5050600386510660018114610d6e5760028114610d8157610d89565b603d6001830353603d6002830353610d89565b603d60018303535b509195945050505050565b60606000610da3836002611cc2565b610dae906002611c8d565b67ffffffffffffffff811115610dc657610dc66110b6565b6040519080825280601f01601f191660200182016040528015610df0576020820181803683370190505b509050600360fc1b81600081518110610e0b57610e0b611cd9565b60200101906001600160f81b031916908160001a905350600f60fb1b81600181518110610e3a57610e3a611cd9565b60200101906001600160f81b031916908160001a9053506000610e5e846002611cc2565b610e69906001611c8d565b90505b6001811115610ee1576f181899199a1a9b1b9c1cb0b131b232b360811b85600f1660108110610e9d57610e9d611cd9565b1a60f81b828281518110610eb357610eb3611cd9565b60200101906001600160f81b031916908160001a90535060049490941c93610eda81611cef565b9050610e6c565b508315610f305760405162461bcd60e51b815260206004820181905260248201527f537472696e67733a20686578206c656e67746820696e73756666696369656e746044820152606401610b59565b9392505050565b60008072184f03e93ff9f4daa797ed6e38ed64bf6a1f0160401b8310610f765772184f03e93ff9f4daa797ed6e38ed64bf6a1f0160401b830492506040015b6d04ee2d6d415b85acef81000000008310610fa2576d04ee2d6d415b85acef8100000000830492506020015b662386f26fc100008310610fc057662386f26fc10000830492506010015b6305f5e1008310610fd8576305f5e100830492506008015b6127108310610fec57612710830492506004015b60648310610ffe576064830492506002015b600a8310610b7c5760010192915050565b6001600160a01b038116811461102457600080fd5b50565b6000806040838503121561103a57600080fd5b82356110458161100f565b946020939093013593505050565b60005b8381101561106e578181015183820152602001611056565b50506000910152565b6000815180845261108f816020860160208601611053565b601f01601f19169290920160200192915050565b602081526000610f306020830184611077565b634e487b7160e01b600052604160045260246000fd5b60405160e0810167ffffffffffffffff811182821017156110ef576110ef6110b6565b60405290565b604051601f8201601f1916810167ffffffffffffffff8111828210171561111e5761111e6110b6565b604052919050565b80516005811061113557600080fd5b919050565b600082601f83011261114b57600080fd5b8151602067ffffffffffffffff821115611167576111676110b6565b8160051b6111768282016110f5565b928352848101820192828101908785111561119057600080fd5b83870192505b848310156111af57825182529183019190830190611196565b979650505050505050565b80516111358161100f565b6000602082840312156111d757600080fd5b815167ffffffffffffffff808211156111ef57600080fd5b9083019060e0828603121561120357600080fd5b61120b6110cc565b61121483611126565b815260208301518281111561122857600080fd5b6112348782860161113a565b602083015250604083015160408201526060830151606082015261125a608084016111ba565b608082015260a083015160a082015260c083015160c082015280935050505092915050565b60006020828403121561129157600080fd5b8151610f308161100f565b600081516112ae818560208601611053565b9290920192915050565b600086516112ca818460208b01611053565b8083019050600b60fa1b80825287516112ea816001850160208c01611053565b600192019182018190528651611307816002850160208b01611053565b600292019182018190528551611324816003850160208a01611053565b600392019182018190528451611341816004850160208901611053565b6004920191820152600501979650505050505050565b634e487b7160e01b600052602160045260246000fd5b6000875160206113808285838d01611053565b8851918401916113938184848d01611053565b600b60fa1b920182815288519092906113b28160018601858d01611053565b6001930192830181905287516113ce8160028601858c01611053565b6002930192830181905286516113ea8160038601858b01611053565b600393019283015284516114048160048501848901611053565b919091016004019998505050505050505050565b60006020828403121561142a57600080fd5b815167ffffffffffffffff8082111561144257600080fd5b818401915084601f83011261145657600080fd5b815181811115611468576114686110b6565b61147b601f8201601f19166020016110f5565b915080825285602082850101111561149257600080fd5b6114a3816020840160208601611053565b50949350505050565b7f3c73766720786d6c6e733d22687474703a2f2f7777772e77332e6f72672f323081527f30302f737667222076696577426f783d2230203020343030203430302220737460208201527f796c653d2277696474683a313030253b6261636b67726f756e643a236561656160408201527f65613b66696c6c3a626c61636b3b666f6e742d66616d696c793a6d6f6e6f737060608201526430b1b2911f60d91b60808201527f3c7465787420783d223530252220793d22323470782220666f6e742d73697a6560858201527f3d2231322220746578742d616e63686f723d226d6964646c65223e000000000060a58201527203632a7232a102a3930b234b733902830b4b91606d1b60c0820152600084516115cc8160d3850160208901611053565b8451908301906115e38160d3840160208901611053565b6111af61161c61160961160360d38587010161202360f01b815260020190565b8861129c565b661e17ba32bc3a1f60c91b815260070190565b7f3c7465787420783d22323470782220793d22373270782220666f6e742d73697a815265329e911c111f60d11b602082015260260190565b60008551611666818460208a01611053565b6d02a3930b234b733903837b7b61d160951b908301908152855161169181600e840160208a01611053565b661e17ba32bc3a1f60c91b600e929091019182018190527f3c7465787420783d22323470782220793d22393070782220666f6e742d73697a601583015265329e911c111f60d11b603583015264027232a1d160dd1b603b83015285516116fe816040850160208a01611053565b60409201918201527f3c7465787420783d22323470782220793d2231303870782220666f6e742d73696047820152663d329e911c111f60c91b60678201526111af61160961175c606e84016602a37b5b2b71d160cd1b815260070190565b8661129c565b60008551611774818460208a01611053565b80830190507f3c7465787420783d22323470782220793d2231323670782220666f6e742d73698152663d329e911c111f60c91b806020830152660283934b1b29d160cd1b602783015286516117d081602e850160208b01611053565b661e17ba32bc3a1f60c91b602e93909101928301527f3c7465787420783d22323470782220793d2231343470782220666f6e742d7369603583015260558201526c027232a102130b630b731b29d1609d1b605c8201528451611839816069840160208901611053565b6118bb6116096118b561189a611861606986880101661e17ba32bc3a1f60c91b815260070190565b7f3c7465787420783d22323470782220793d2231363270782220666f6e742d73698152663d329e911c111f60c91b602082015260270190565b6e02a37b5b2b7102130b630b731b29d1608d1b8152600f0190565b8761129c565b98975050505050505050565b600085516118d9818460208a01611053565b80830190507f3c7465787420783d22323470782220793d2231383070782220666f6e742d73698152663d329e911c111f60c91b8060208301526402332b29d160dd1b6027830152865161193381602c850160208b01611053565b661e17ba32bc3a1f60c91b602c93909101928301527f3c7465787420783d22323470782220793d2231393870782220666f6e742d73696033830152605382015266021bab93b329d160cd1b605a8201528451611996816061840160208901611053565b6118bb611a0d6116096116036119fa6119c1606187890101661e17ba32bc3a1f60c91b815260070190565b7f3c7465787420783d22323470782220793d2232313670782220666f6e742d73698152663d329e911c111f60c91b602082015260270190565b6602232b63a309d160cd1b815260070190565b651e17b9bb339f60d11b815260060190565b607b60f81b81527f226e616d65223a20224c69717569646974792050616972200000000000000000600182015260008451611a61816019850160208901611053565b845190830190611a78816019840160208901611053565b61202360f01b601992909101918201528351611a9b81601b840160208801611053565b61088b60f21b601b9290910191820152601d0195945050505050565b60008451611ac9818460208901611053565b80830190507f226465736372697074696f6e223a20226c654e46542074726164696e67206c6981526e1c5d5a591a5d1e481c185a5c8b888b608a1b60208201526801134b6b0b3b2911d160bd1b602f8201527f22646174613a696d6167652f7376672b786d6c3b6261736536342c000000000060388201528451611b54816053840160208901611053565b61088b60f21b605392909101918201526e2261747472696275746573223a205b60881b60558201528351611b8f816064840160208801611053565b605d60f81b60649290910191820152607d60f81b606582015260660195945050505050565b7f646174613a6170706c69636174696f6e2f6a736f6e3b6261736536342c000000815260008251611bec81601d850160208701611053565b91909101601d0192915050565b703d90113a3930b4ba2fba3cb832911d101160791b81528251600090611c26816011850160208801611053565b61088b60f21b60119184019182015269113b30b63ab2911d101160b11b60138201528351611c5b81601d840160208801611053565b6222207d60e81b601d9290910191820152602001949350505050565b634e487b7160e01b600052601160045260246000fd5b80820180821115610b7c57610b7c611c77565b600082611cbd57634e487b7160e01b600052601260045260246000fd5b500490565b8082028115828204841417610b7c57610b7c611c77565b634e487b7160e01b600052603260045260246000fd5b600081611cfe57611cfe611c77565b50600019019056fe4142434445464748494a4b4c4d4e4f505152535455565758595a6162636465666768696a6b6c6d6e6f707172737475767778797a303132333435363738392b2fa264697066735822122061ade27d099f9d739af53d6eb72102ebe9c783ad3782424e63261abe595217a464736f6c63430008130033",
  "linkReferences": {},
  "deployedLinkReferences": {}
}