{
  "_format": "hh-sol-artifact-1",
  "contractName": "LoanCenter",
  "sourceName": "contracts/protocol/Lending/LoanCenter.sol",
  "abi": [
    {
      "inputs": [],
      "stateMutability": "nonpayable",
      "type": "constructor"
    },
    {
      "anonymous": false,
      "inputs": [
        {
          "indexed": false,
          "internalType": "uint8",
          "name": "version",
          "type": "uint8"
        }
      ],
      "name": "Initialized",
      "type": "event"
    },
    {
      "anonymous": false,
      "inputs": [
        {
          "indexed": true,
          "internalType": "address",
          "name": "previousOwner",
          "type": "address"
        },
        {
          "indexed": true,
          "internalType": "address",
          "name": "newOwner",
          "type": "address"
        }
      ],
      "name": "OwnershipTransferred",
      "type": "event"
    },
    {
      "inputs": [
        {
          "internalType": "uint256",
          "name": "loanId",
          "type": "uint256"
        }
      ],
      "name": "activateLoan",
      "outputs": [],
      "stateMutability": "nonpayable",
      "type": "function"
    },
    {
      "inputs": [
        {
          "internalType": "address",
          "name": "collection",
          "type": "address"
        }
      ],
      "name": "approveNFTCollection",
      "outputs": [],
      "stateMutability": "nonpayable",
      "type": "function"
    },
    {
      "inputs": [
        {
          "internalType": "uint256",
          "name": "loanId",
          "type": "uint256"
        },
        {
          "internalType": "address",
          "name": "user",
          "type": "address"
        },
        {
          "internalType": "uint256",
          "name": "bid",
          "type": "uint256"
        }
      ],
      "name": "auctionLoan",
      "outputs": [],
      "stateMutability": "nonpayable",
      "type": "function"
    },
    {
      "inputs": [
        {
          "internalType": "address",
          "name": "owner",
          "type": "address"
        },
        {
          "internalType": "address",
          "name": "pool",
          "type": "address"
        },
        {
          "internalType": "uint256",
          "name": "amount",
          "type": "uint256"
        },
        {
          "internalType": "uint256",
          "name": "genesisNFTId",
          "type": "uint256"
        },
        {
          "internalType": "address",
          "name": "nftAddress",
          "type": "address"
        },
        {
          "internalType": "uint256[]",
          "name": "nftTokenIds",
          "type": "uint256[]"
        },
        {
          "internalType": "uint256",
          "name": "borrowRate",
          "type": "uint256"
        }
      ],
      "name": "createLoan",
      "outputs": [
        {
          "internalType": "uint256",
          "name": "",
          "type": "uint256"
        }
      ],
      "stateMutability": "nonpayable",
      "type": "function"
    },
    {
      "inputs": [
        {
          "internalType": "uint256",
          "name": "loanId",
          "type": "uint256"
        }
      ],
      "name": "getAuctioneerFee",
      "outputs": [
        {
          "internalType": "uint256",
          "name": "",
          "type": "uint256"
        }
      ],
      "stateMutability": "view",
      "type": "function"
    },
    {
      "inputs": [
        {
          "internalType": "address",
          "name": "collection",
          "type": "address"
        }
      ],
      "name": "getCollectionLiquidationThreshold",
      "outputs": [
        {
          "internalType": "uint256",
          "name": "",
          "type": "uint256"
        }
      ],
      "stateMutability": "view",
      "type": "function"
    },
    {
      "inputs": [
        {
          "internalType": "address",
          "name": "collection",
          "type": "address"
        }
      ],
      "name": "getCollectionMaxLTV",
      "outputs": [
        {
          "internalType": "uint256",
          "name": "",
          "type": "uint256"
        }
      ],
      "stateMutability": "view",
      "type": "function"
    },
    {
      "inputs": [
        {
          "internalType": "uint256",
          "name": "loanId",
          "type": "uint256"
        }
      ],
      "name": "getLoan",
      "outputs": [
        {
          "components": [
            {
              "internalType": "address",
              "name": "owner",
              "type": "address"
            },
            {
              "internalType": "uint256",
              "name": "amount",
              "type": "uint256"
            },
            {
              "internalType": "uint256[]",
              "name": "nftTokenIds",
              "type": "uint256[]"
            },
            {
              "internalType": "address",
              "name": "nftAsset",
              "type": "address"
            },
            {
              "internalType": "uint16",
              "name": "borrowRate",
              "type": "uint16"
            },
            {
              "internalType": "uint40",
              "name": "initTimestamp",
              "type": "uint40"
            },
            {
              "internalType": "uint40",
              "name": "debtTimestamp",
              "type": "uint40"
            },
            {
              "internalType": "address",
              "name": "pool",
              "type": "address"
            },
            {
              "internalType": "uint16",
              "name": "genesisNFTId",
              "type": "uint16"
            },
            {
              "internalType": "enum DataTypes.LoanState",
              "name": "state",
              "type": "uint8"
            }
          ],
          "internalType": "struct DataTypes.LoanData",
          "name": "",
          "type": "tuple"
        }
      ],
      "stateMutability": "view",
      "type": "function"
    },
    {
      "inputs": [
        {
          "internalType": "uint256",
          "name": "loanId",
          "type": "uint256"
        }
      ],
      "name": "getLoanCollectionAddress",
      "outputs": [
        {
          "internalType": "address",
          "name": "",
          "type": "address"
        }
      ],
      "stateMutability": "view",
      "type": "function"
    },
    {
      "inputs": [
        {
          "internalType": "uint256",
          "name": "loanId",
          "type": "uint256"
        }
      ],
      "name": "getLoanDebt",
      "outputs": [
        {
          "internalType": "uint256",
          "name": "",
          "type": "uint256"
        }
      ],
      "stateMutability": "view",
      "type": "function"
    },
    {
      "inputs": [
        {
          "internalType": "uint256",
          "name": "loanId",
          "type": "uint256"
        }
      ],
      "name": "getLoanInterest",
      "outputs": [
        {
          "internalType": "uint256",
          "name": "",
          "type": "uint256"
        }
      ],
      "stateMutability": "view",
      "type": "function"
    },
    {
      "inputs": [
        {
          "internalType": "uint256",
          "name": "loanId",
          "type": "uint256"
        }
      ],
      "name": "getLoanLendingPool",
      "outputs": [
        {
          "internalType": "address",
          "name": "",
          "type": "address"
        }
      ],
      "stateMutability": "view",
      "type": "function"
    },
    {
      "inputs": [
        {
          "internalType": "uint256",
          "name": "loanId",
          "type": "uint256"
        }
      ],
      "name": "getLoanLiquidationData",
      "outputs": [
        {
          "components": [
            {
              "internalType": "address",
              "name": "auctioneer",
              "type": "address"
            },
            {
              "internalType": "address",
              "name": "liquidator",
              "type": "address"
            },
            {
              "internalType": "uint40",
              "name": "auctionStartTimestamp",
              "type": "uint40"
            },
            {
              "internalType": "uint256",
              "name": "auctionMaxBid",
              "type": "uint256"
            }
          ],
          "internalType": "struct DataTypes.LoanLiquidationData",
          "name": "",
          "type": "tuple"
        }
      ],
      "stateMutability": "view",
      "type": "function"
    },
    {
      "inputs": [
        {
          "internalType": "uint256",
          "name": "loanId",
          "type": "uint256"
        },
        {
          "internalType": "uint256",
          "name": "tokensPrice",
          "type": "uint256"
        }
      ],
      "name": "getLoanMaxDebt",
      "outputs": [
        {
          "internalType": "uint256",
          "name": "",
          "type": "uint256"
        }
      ],
      "stateMutability": "view",
      "type": "function"
    },
    {
      "inputs": [
        {
          "internalType": "uint256",
          "name": "loanId",
          "type": "uint256"
        }
      ],
      "name": "getLoanOwner",
      "outputs": [
        {
          "internalType": "address",
          "name": "",
          "type": "address"
        }
      ],
      "stateMutability": "view",
      "type": "function"
    },
    {
      "inputs": [
        {
          "internalType": "uint256",
          "name": "loanId",
          "type": "uint256"
        }
      ],
      "name": "getLoanState",
      "outputs": [
        {
          "internalType": "enum DataTypes.LoanState",
          "name": "",
          "type": "uint8"
        }
      ],
      "stateMutability": "view",
      "type": "function"
    },
    {
      "inputs": [
        {
          "internalType": "uint256",
          "name": "loanId",
          "type": "uint256"
        }
      ],
      "name": "getLoanTokenIds",
      "outputs": [
        {
          "internalType": "uint256[]",
          "name": "",
          "type": "uint256[]"
        }
      ],
      "stateMutability": "view",
      "type": "function"
    },
    {
      "inputs": [],
      "name": "getLoansCount",
      "outputs": [
        {
          "internalType": "uint256",
          "name": "",
          "type": "uint256"
        }
      ],
      "stateMutability": "view",
      "type": "function"
    },
    {
      "inputs": [
        {
          "internalType": "address",
          "name": "nftAddress",
          "type": "address"
        },
        {
          "internalType": "uint256",
          "name": "nftTokenId",
          "type": "uint256"
        }
      ],
      "name": "getNFTLoanId",
      "outputs": [
        {
          "internalType": "uint256",
          "name": "",
          "type": "uint256"
        }
      ],
      "stateMutability": "view",
      "type": "function"
    },
    {
      "inputs": [
        {
          "internalType": "address",
          "name": "user",
          "type": "address"
        }
      ],
      "name": "getUserActiveLoans",
      "outputs": [
        {
          "internalType": "uint256[]",
          "name": "",
          "type": "uint256[]"
        }
      ],
      "stateMutability": "view",
      "type": "function"
    },
    {
      "inputs": [
        {
          "internalType": "contract IAddressesProvider",
          "name": "addressesProvider",
          "type": "address"
        },
        {
          "components": [
            {
              "internalType": "uint16",
              "name": "maxLTV",
              "type": "uint16"
            },
            {
              "internalType": "uint16",
              "name": "liquidationThreshold",
              "type": "uint16"
            }
          ],
          "internalType": "struct DataTypes.CollectionRiskParameters",
          "name": "defaultCollectionsRiskParameters",
          "type": "tuple"
        }
      ],
      "name": "initialize",
      "outputs": [],
      "stateMutability": "nonpayable",
      "type": "function"
    },
    {
      "inputs": [
        {
          "internalType": "uint256",
          "name": "loanId",
          "type": "uint256"
        }
      ],
      "name": "liquidateLoan",
      "outputs": [],
      "stateMutability": "nonpayable",
      "type": "function"
    },
    {
      "inputs": [
        {
          "internalType": "address",
          "name": "",
          "type": "address"
        },
        {
          "internalType": "address",
          "name": "",
          "type": "address"
        },
        {
          "internalType": "uint256",
          "name": "",
          "type": "uint256"
        },
        {
          "internalType": "bytes",
          "name": "",
          "type": "bytes"
        }
      ],
      "name": "onERC721Received",
      "outputs": [
        {
          "internalType": "bytes4",
          "name": "",
          "type": "bytes4"
        }
      ],
      "stateMutability": "nonpayable",
      "type": "function"
    },
    {
      "inputs": [],
      "name": "owner",
      "outputs": [
        {
          "internalType": "address",
          "name": "",
          "type": "address"
        }
      ],
      "stateMutability": "view",
      "type": "function"
    },
    {
      "inputs": [],
      "name": "renounceOwnership",
      "outputs": [],
      "stateMutability": "nonpayable",
      "type": "function"
    },
    {
      "inputs": [
        {
          "internalType": "uint256",
          "name": "loanId",
          "type": "uint256"
        }
      ],
      "name": "repayLoan",
      "outputs": [],
      "stateMutability": "nonpayable",
      "type": "function"
    },
    {
      "inputs": [
        {
          "internalType": "address",
          "name": "collection",
          "type": "address"
        },
        {
          "internalType": "uint256",
          "name": "maxLTV",
          "type": "uint256"
        },
        {
          "internalType": "uint256",
          "name": "liquidationThreshold",
          "type": "uint256"
        }
      ],
      "name": "setCollectionRiskParameters",
      "outputs": [],
      "stateMutability": "nonpayable",
      "type": "function"
    },
    {
      "inputs": [
        {
          "internalType": "address",
          "name": "newOwner",
          "type": "address"
        }
      ],
      "name": "transferOwnership",
      "outputs": [],
      "stateMutability": "nonpayable",
      "type": "function"
    },
    {
      "inputs": [
        {
          "internalType": "uint256",
          "name": "loanId",
          "type": "uint256"
        },
        {
          "internalType": "uint256",
          "name": "newAmount",
          "type": "uint256"
        }
      ],
      "name": "updateLoanAmount",
      "outputs": [],
      "stateMutability": "nonpayable",
      "type": "function"
    },
    {
      "inputs": [
        {
          "internalType": "uint256",
          "name": "loanId",
          "type": "uint256"
        },
        {
          "internalType": "address",
          "name": "user",
          "type": "address"
        },
        {
          "internalType": "uint256",
          "name": "bid",
          "type": "uint256"
        }
      ],
      "name": "updateLoanAuctionBid",
      "outputs": [],
      "stateMutability": "nonpayable",
      "type": "function"
    },
    {
      "inputs": [
        {
          "internalType": "uint256",
          "name": "loanId",
          "type": "uint256"
        },
        {
          "internalType": "uint256",
          "name": "newDebtTimestamp",
          "type": "uint256"
        }
      ],
      "name": "updateLoanDebtTimestamp",
      "outputs": [],
      "stateMutability": "nonpayable",
      "type": "function"
    }
  ],
  "bytecode": "0x608060405234801561001057600080fd5b5061001961001e565b6100de565b600054610100900460ff161561008a5760405162461bcd60e51b815260206004820152602760248201527f496e697469616c697a61626c653a20636f6e747261637420697320696e697469604482015266616c697a696e6760c81b606482015260840160405180910390fd5b60005460ff90811610156100dc576000805460ff191660ff9081179091556040519081527f7f26b83ff96e1f2b6a682f133852f6798a09c465da95921460cefb38474024989060200160405180910390a15b565b61214d80620000ee6000396000f3fe608060405234801561001057600080fd5b50600436106101e55760003560e01c80636df0d3271161010f578063ab7b1c89116100a2578063ccdd9f5d11610071578063ccdd9f5d146104ad578063ccff44f1146104c0578063ce8a848b146104d3578063f2fde38b146104e657600080fd5b8063ab7b1c8914610461578063af03b42014610474578063b8e9c53314610487578063c9bfcb3b1461049a57600080fd5b806378d77f72116100de57806378d77f7214610417578063799389141461042a5780638da5cb5b1461043d5780639c706bb41461044e57600080fd5b80636df0d3271461038e578063715018a6146103e957806371b60aa2146103f15780637896c0ea1461040457600080fd5b80632af16c4e116101875780634b496b09116101565780634b496b091461030e5780634dbb2b7b14610321578063504006ca14610334578063567e75c41461035457600080fd5b80632af16c4e146102b55780633e4d92e2146102c85780633f4b8d42146102db5780634644004d146102fb57600080fd5b80630c367448116101c35780630c367448146102385780630c97200a1461024b578063150b7a021461025357806320a349c91461028a57600080fd5b80630a8ef399146101ea5780630bbf145b146101ff5780630c2452dd14610225575b600080fd5b6101fd6101f8366004611a8b565b6104f9565b005b61021261020d366004611acc565b61064b565b6040519081526020015b60405180910390f35b610212610233366004611ae5565b610667565b610212610246366004611b11565b610692565b609a54610212565b610271610261366004611b75565b630a85bd0160e11b949350505050565b6040516001600160e01b0319909116815260200161021c565b61029d610298366004611acc565b6106ed565b6040516001600160a01b03909116815260200161021c565b6101fd6102c3366004611b11565b610719565b6101fd6102d6366004611c39565b61080a565b6102ee6102e9366004611acc565b610827565b60405161021c9190611c5b565b6101fd610309366004611acc565b610897565b6101fd61031c366004611c9f565b6108c3565b6101fd61032f366004611c39565b61099b565b610347610342366004611acc565b6109d9565b60405161021c9190611d4a565b610381610362366004611acc565b600090815260986020526040902060040154600160b01b900460ff1690565b60405161021c9190611e2d565b6103a161039c366004611acc565b610b54565b60405161021c919081516001600160a01b0390811682526020808401519091169082015260408083015164ffffffffff16908201526060918201519181019190915260800190565b6101fd610beb565b6102126103ff366004611acc565b610bff565b6101fd610412366004611c9f565b610c23565b610212610425366004611c39565b610c63565b6101fd610438366004611e3b565b610ca6565b6065546001600160a01b031661029d565b61021261045c366004611acc565b610d1f565b6101fd61046f366004611acc565b610dd6565b610212610482366004611b11565b611041565b6102ee610495366004611b11565b611090565b61029d6104a8366004611acc565b6110fc565b6101fd6104bb366004611acc565b611125565b61029d6104ce366004611acc565b6112e6565b6102126104e1366004611e70565b611312565b6101fd6104f4366004611b11565b611428565b600054610100900460ff16158080156105195750600054600160ff909116105b806105335750303b158015610533575060005460ff166001145b61059b5760405162461bcd60e51b815260206004820152602e60248201527f496e697469616c697a61626c653a20636f6e747261637420697320616c72656160448201526d191e481a5b9a5d1a585b1a5e995960921b60648201526084015b60405180910390fd5b6000805460ff1916600117905580156105be576000805461ff0019166101001790555b6105c66114a1565b6105ce6114d0565b6105d66114d0565b609b80546001600160a01b0319166001600160a01b03851617905581609d6105fe8282611f4e565b50508015610646576000805461ff0019169055604051600181527f7f26b83ff96e1f2b6a682f133852f6798a09c465da95921460cefb38474024989060200160405180910390a15b505050565b600081610657816114f7565b61066083611567565b9392505050565b6001600160a01b03821660009081526097602090815260408083208484529091529020545b92915050565b6001600160a01b0381166000908152609c602052604081205461ffff1681036106c7575050609d5462010000900461ffff1690565b506001600160a01b03166000908152609c602052604090205462010000900461ffff1690565b6000816106f9816114f7565b50506000908152609860205260409020600301546001600160a01b031690565b61072161158f565b806001600160a01b031663a22cb465609b60009054906101000a90046001600160a01b03166001600160a01b03166304d21cee6040518163ffffffff1660e01b8152600401602060405180830381865afa158015610783573d6000803e3d6000fd5b505050506040513d601f19601f820116820180604052508101906107a79190611f8f565b6040516001600160e01b031960e084901b1681526001600160a01b03909116600482015260016024820152604401600060405180830381600087803b1580156107ef57600080fd5b505af1158015610803573d6000803e3d6000fd5b5050505050565b61081261158f565b60009182526098602052604090912060010155565b606081610833816114f7565b6000838152609860209081526040918290206002018054835181840281018401909452808452909183018282801561088a57602002820191906000526020600020905b815481526020019060010190808311610876575b5050505050915050919050565b61089f61158f565b6000908152609860205260409020600401805460ff60b01b1916600160b11b179055565b6108cb61158f565b60008381526098602052604090206004908101805460ff60b01b1916600160b01b830217905550604080516080810182526001600160a01b038416808252602082015290810161091a42611656565b64ffffffffff9081168252602091820193909352600094855260998152604094859020825181546001600160a01b039182166001600160a01b03199091161782559183015160018201805497850151909516600160a01b026001600160c81b0319909716921691909117949094179091556060015160029092019190915550565b6109a361158f565b600091825260986020526040909120600301805464ffffffffff909216600160d81b026001600160d81b03909216919091179055565b610a2f604080516101408101825260008082526020820181905260609282018390529181018290526080810182905260a0810182905260c0810182905260e0810182905261010081018290529061012082015290565b81610a39816114f7565b60008381526098602090815260409182902082516101408101845281546001600160a01b0316815260018201548184015260028201805485518186028101860187528181529295939493860193830182828015610ab557602002820191906000526020600020905b815481526020019060010190808311610aa1575b505050918352505060038201546001600160a01b03808216602084015261ffff600160a01b8084048216604086015264ffffffffff600160b01b80860482166060880152600160d81b909504166080860152600486015492831660a086015282041660c084015260e09092019160ff919004166005811115610b3957610b39611d12565b6005811115610b4a57610b4a611d12565b9052509392505050565b60408051608081018252600080825260208201819052918101829052606081019190915281610b82816114f7565b82610b8c816116a4565b505050600090815260996020908152604091829020825160808101845281546001600160a01b039081168252600183015490811693820193909352600160a01b90920464ffffffffff1692820192909252600290910154606082015290565b610bf3611713565b610bfd600061176d565b565b600081610c0b816114f7565b600083815260986020526040902061066090426117bf565b610c2b61158f565b6000928352609960205260409092206001810180546001600160a01b0319166001600160a01b03939093169290921790915560020155565b600082610c6f816114f7565b600084815260986020526040902060030154610c9e908490610c99906001600160a01b0316610692565b61183f565b949350505050565b610cae611713565b6040518060400160405280610cc284611865565b61ffff168152602001610cd483611865565b61ffff9081169091526001600160a01b039094166000908152609c602090815260409091208251815493909201518616620100000263ffffffff199093169190951617179092555050565b600081610d2b816114f7565b82610d35816116a4565b600084815260986020526040908190206004908101548251630161b2cb60e71b81529251612710936001600160a01b039092169263b0d96580928082019260809290918290030181865afa158015610d91573d6000803e3d6000fd5b505050506040513d601f19601f82011682018060405250810190610db59190611fac565b60200151610dc28661064b565b610dcc9190612028565b610c9e919061203f565b610dde61158f565b600081815260986020908152604080832060048101805460ff60b01b1916600360b01b17905560020180548251818502810185019093528083529192909190830182828015610e4c57602002820191906000526020600020905b815481526020019060010190808311610e38575b5050506000858152609860205260408120600301549394506001600160a01b03909316929150505b8251811015610ed9576001600160a01b03821660009081526097602052604081208451909190859084908110610eac57610eac612061565b60200260200101518152602001908152602001600020600090558080610ed190612077565b915050610e74565b506000838152609860209081526040808320546001600160a01b03168352609e825280832080548251818502810185019093528083529192909190830182828015610f4357602002820191906000526020600020905b815481526020019060010190808311610f2f575b5050505050905060005b81518110156108035784828281518110610f6957610f69612061565b60200260200101510361102f578160018351610f859190612090565b81518110610f9557610f95612061565b6020908102919091018101516000878152609883526040808220546001600160a01b03168252609e90935291909120805483908110610fd657610fd6612061565b6000918252602080832090910192909255868152609882526040808220546001600160a01b03168252609e90925220805480611014576110146120a3565b60019003818190600052602060002001600090559055610803565b8061103981612077565b915050610f4d565b6001600160a01b0381166000908152609c602052604081205461ffff168103611070575050609d5461ffff1690565b506001600160a01b03166000908152609c602052604090205461ffff1690565b6001600160a01b0381166000908152609e60209081526040918290208054835181840281018401909452808452606093928301828280156110f057602002820191906000526020600020905b8154815260200190600101908083116110dc575b50505050509050919050565b600081611108816114f7565b50506000908152609860205260409020546001600160a01b031690565b61112d61158f565b600081815260986020908152604080832060048101805460ff60b01b1916600560b01b1790556002018054825181850281018501909352808352919290919083018282801561119b57602002820191906000526020600020905b815481526020019060010190808311611187575b5050506000858152609860205260408120600301549394506001600160a01b03909316929150505b8251811015611228576001600160a01b038216600090815260976020526040812084519091908590849081106111fb576111fb612061565b6020026020010151815260200190815260200160002060009055808061122090612077565b9150506111c3565b506000838152609860209081526040808320546001600160a01b03168352609e82528083208054825181850281018501909352808352919290919083018282801561129257602002820191906000526020600020905b81548152602001906001019080831161127e575b5050505050905060005b815181101561080357848282815181106112b8576112b8612061565b6020026020010151036112d4578160018351610f859190612090565b806112de81612077565b91505061129c565b6000816112f2816114f7565b50506000908152609860205260409020600401546001600160a01b031690565b600061131c61158f565b61137289898989898989808060200260200160405190810160405280939291908181526020018383602002808284376000920182905250609a54815260986020526040902098979695949392508b9150506118ac565b60005b838110156113d757609a546001600160a01b0387166000908152609760205260408120908787858181106113ab576113ab612061565b9050602002013581526020019081526020016000208190555080806113cf90612077565b915050611375565b506001600160a01b0389166000908152609e602090815260408220609a805482546001810184559285529284209091019190915580549161141783612077565b909155509998505050505050505050565b611430611713565b6001600160a01b0381166114955760405162461bcd60e51b815260206004820152602660248201527f4f776e61626c653a206e6577206f776e657220697320746865207a65726f206160448201526564647265737360d01b6064820152608401610592565b61149e8161176d565b50565b600054610100900460ff166114c85760405162461bcd60e51b8152600401610592906120b9565b610bfd6119ef565b600054610100900460ff16610bfd5760405162461bcd60e51b8152600401610592906120b9565b60008082815260986020526040902060040154600160b01b900460ff16600581111561152557611525611d12565b0361149e5760405162461bcd60e51b815260206004820152601260248201527126219d2aa722ac24a9aa22a72a2fa627a0a760711b6044820152606401610592565b600081815260986020526040812060018101549061158590426117bf565b61068c9190612104565b609b60009054906101000a90046001600160a01b03166001600160a01b03166304d21cee6040518163ffffffff1660e01b8152600401602060405180830381865afa1580156115e2573d6000803e3d6000fd5b505050506040513d601f19601f820116820180604052508101906116069190611f8f565b6001600160a01b0316336001600160a01b031614610bfd5760405162461bcd60e51b815260206004820152600d60248201526c1310ce9393d517d3505492d155609a1b6044820152606401610592565b600064ffffffffff8211156116a05760405162461bcd60e51b815260206004820152601060248201526f53433a434153545f4f564552464c4f5760801b6044820152606401610592565b5090565b6004600082815260986020526040902060040154600160b01b900460ff1660058111156116d3576116d3611d12565b1461149e5760405162461bcd60e51b815260206004820152601060248201526f1310ce9393d517d05550d51253d3915160821b6044820152606401610592565b6065546001600160a01b03163314610bfd5760405162461bcd60e51b815260206004820181905260248201527f4f776e61626c653a2063616c6c6572206973206e6f7420746865206f776e65726044820152606401610592565b606580546001600160a01b038381166001600160a01b0319831681179093556040519116919082907f8be0079c531659141344cd1fd0a4f28419497f9722a3daafe3b4186f6b6457e090600090a35050565b6000806107086117d0600185612090565b6117da919061203f565b6117e5906001612104565b6117f190610708612028565b90506118036127106301e13380612028565b600385015461182090600160d81b900464ffffffffff1683612090565b60038601546001870154610dc291600160a01b900461ffff1690612028565b60008115611388198390048411151761185757600080fd5b506127109102611388010490565b600061ffff8211156116a05760405162461bcd60e51b815260206004820152601060248201526f53433a434153545f4f564552464c4f5760801b6044820152606401610592565b87546001600160a01b0319166001600160a01b03881617885560048801805460ff60b01b1916600160b01b179055600188018590556118ea84611865565b60048901805461ffff60a01b1916600160a01b61ffff93909316929092029190911790556003880180546001600160a01b0319166001600160a01b03851617905581516119409060028a01906020850190611a1f565b5061194a81611865565b60038901805461ffff60a01b1916600160a01b61ffff93909316929092029190911790556004880180546001600160a01b0319166001600160a01b03881617905561199442611656565b8860030160166101000a81548164ffffffffff021916908364ffffffffff1602179055506119c142611656565b88600301601b6101000a81548164ffffffffff021916908364ffffffffff1602179055505050505050505050565b600054610100900460ff16611a165760405162461bcd60e51b8152600401610592906120b9565b610bfd3361176d565b828054828255906000526020600020908101928215611a5a579160200282015b82811115611a5a578251825591602001919060010190611a3f565b506116a09291505b808211156116a05760008155600101611a62565b6001600160a01b038116811461149e57600080fd5b6000808284036060811215611a9f57600080fd5b8335611aaa81611a76565b92506040601f1982011215611abe57600080fd5b506020830190509250929050565b600060208284031215611ade57600080fd5b5035919050565b60008060408385031215611af857600080fd5b8235611b0381611a76565b946020939093013593505050565b600060208284031215611b2357600080fd5b813561066081611a76565b634e487b7160e01b600052604160045260246000fd5b604051601f8201601f1916810167ffffffffffffffff81118282101715611b6d57611b6d611b2e565b604052919050565b60008060008060808587031215611b8b57600080fd5b8435611b9681611a76565b9350602085810135611ba781611a76565b935060408601359250606086013567ffffffffffffffff80821115611bcb57600080fd5b818801915088601f830112611bdf57600080fd5b813581811115611bf157611bf1611b2e565b611c03601f8201601f19168501611b44565b91508082528984828501011115611c1957600080fd5b808484018584013760008482840101525080935050505092959194509250565b60008060408385031215611c4c57600080fd5b50508035926020909101359150565b6020808252825182820181905260009190848201906040850190845b81811015611c9357835183529284019291840191600101611c77565b50909695505050505050565b600080600060608486031215611cb457600080fd5b833592506020840135611cc681611a76565b929592945050506040919091013590565b600081518084526020808501945080840160005b83811015611d0757815187529582019590820190600101611ceb565b509495945050505050565b634e487b7160e01b600052602160045260246000fd5b60068110611d4657634e487b7160e01b600052602160045260246000fd5b9052565b60208152611d646020820183516001600160a01b03169052565b6020820151604082015260006040830151610140806060850152611d8c610160850183611cd7565b91506060850151611da860808601826001600160a01b03169052565b50608085015161ffff811660a08601525060a085015164ffffffffff811660c08601525060c085015164ffffffffff811660e08601525060e0850151610100611dfb818701836001600160a01b03169052565b8601519050610120611e128682018361ffff169052565b8601519050611e2385830182611d28565b5090949350505050565b6020810161068c8284611d28565b600080600060608486031215611e5057600080fd5b8335611e5b81611a76565b95602085013595506040909401359392505050565b60008060008060008060008060e0898b031215611e8c57600080fd5b8835611e9781611a76565b97506020890135611ea781611a76565b965060408901359550606089013594506080890135611ec581611a76565b935060a089013567ffffffffffffffff80821115611ee257600080fd5b818b0191508b601f830112611ef657600080fd5b813581811115611f0557600080fd5b8c60208260051b8501011115611f1a57600080fd5b60208301955080945050505060c089013590509295985092959890939650565b6000813561ffff8116811461068c57600080fd5b61ffff611f5a83611f3a565b1681548161ffff19821617835563ffff0000611f7860208601611f3a565b60101b168263ffffffff1983161717835550505050565b600060208284031215611fa157600080fd5b815161066081611a76565b600060808284031215611fbe57600080fd5b6040516080810181811067ffffffffffffffff82111715611fe157611fe1611b2e565b8060405250825181526020830151602082015260408301516040820152606083015160608201528091505092915050565b634e487b7160e01b600052601160045260246000fd5b808202811582820484141761068c5761068c612012565b60008261205c57634e487b7160e01b600052601260045260246000fd5b500490565b634e487b7160e01b600052603260045260246000fd5b60006001820161208957612089612012565b5060010190565b8181038181111561068c5761068c612012565b634e487b7160e01b600052603160045260246000fd5b6020808252602b908201527f496e697469616c697a61626c653a20636f6e7472616374206973206e6f74206960408201526a6e697469616c697a696e6760a81b606082015260800190565b8082018082111561068c5761068c61201256fea26469706673582212208be1fc37ed1c055d75b8ff4feb5c36f8748a9c20a3334d6d97fa45724eef30d164736f6c63430008130033",
  "linkReferences": {},
  "deployedLinkReferences": {}
}