{
  "_format": "hh-sol-artifact-1",
  "contractName": "LoanCenter",
  "sourceName": "contracts/protocol/LoanCenter.sol",
  "abi": [
    {
      "anonymous": false,
      "inputs": [
        {
          "indexed": false,
          "internalType": "uint8",
          "name": "version",
          "type": "uint8"
        }
      ],
      "name": "Initialized",
      "type": "event"
    },
    {
      "anonymous": false,
      "inputs": [
        {
          "indexed": true,
          "internalType": "address",
          "name": "previousOwner",
          "type": "address"
        },
        {
          "indexed": true,
          "internalType": "address",
          "name": "newOwner",
          "type": "address"
        }
      ],
      "name": "OwnershipTransferred",
      "type": "event"
    },
    {
      "inputs": [
        {
          "internalType": "uint256",
          "name": "loanId",
          "type": "uint256"
        }
      ],
      "name": "activateLoan",
      "outputs": [],
      "stateMutability": "nonpayable",
      "type": "function"
    },
    {
      "inputs": [
        {
          "internalType": "address",
          "name": "collection",
          "type": "address"
        }
      ],
      "name": "approveNFTCollection",
      "outputs": [],
      "stateMutability": "nonpayable",
      "type": "function"
    },
    {
      "inputs": [
        {
          "internalType": "address",
          "name": "borrower",
          "type": "address"
        },
        {
          "internalType": "address",
          "name": "reserve",
          "type": "address"
        },
        {
          "internalType": "uint256",
          "name": "amount",
          "type": "uint256"
        },
        {
          "internalType": "address",
          "name": "nftAddress",
          "type": "address"
        },
        {
          "internalType": "uint256",
          "name": "nftTokenID",
          "type": "uint256"
        },
        {
          "internalType": "uint256",
          "name": "borrowRate",
          "type": "uint256"
        }
      ],
      "name": "createLoan",
      "outputs": [
        {
          "internalType": "uint256",
          "name": "",
          "type": "uint256"
        }
      ],
      "stateMutability": "nonpayable",
      "type": "function"
    },
    {
      "inputs": [
        {
          "internalType": "uint256",
          "name": "loanId",
          "type": "uint256"
        }
      ],
      "name": "getLoan",
      "outputs": [
        {
          "components": [
            {
              "internalType": "uint256",
              "name": "loanId",
              "type": "uint256"
            },
            {
              "internalType": "enum DataTypes.LoanState",
              "name": "state",
              "type": "uint8"
            },
            {
              "internalType": "address",
              "name": "borrower",
              "type": "address"
            },
            {
              "internalType": "uint256",
              "name": "amount",
              "type": "uint256"
            },
            {
              "internalType": "address",
              "name": "nftAsset",
              "type": "address"
            },
            {
              "internalType": "uint256",
              "name": "nftTokenId",
              "type": "uint256"
            },
            {
              "internalType": "address",
              "name": "reserve",
              "type": "address"
            },
            {
              "internalType": "uint256",
              "name": "borrowRate",
              "type": "uint256"
            },
            {
              "internalType": "uint256",
              "name": "initTimestamp",
              "type": "uint256"
            }
          ],
          "internalType": "struct DataTypes.LoanData",
          "name": "",
          "type": "tuple"
        }
      ],
      "stateMutability": "view",
      "type": "function"
    },
    {
      "inputs": [
        {
          "internalType": "uint256",
          "name": "loanId",
          "type": "uint256"
        }
      ],
      "name": "getLoanDebt",
      "outputs": [
        {
          "internalType": "uint256",
          "name": "",
          "type": "uint256"
        }
      ],
      "stateMutability": "view",
      "type": "function"
    },
    {
      "inputs": [
        {
          "internalType": "uint256",
          "name": "loanId",
          "type": "uint256"
        }
      ],
      "name": "getLoanInterest",
      "outputs": [
        {
          "internalType": "uint256",
          "name": "",
          "type": "uint256"
        }
      ],
      "stateMutability": "view",
      "type": "function"
    },
    {
      "inputs": [
        {
          "internalType": "uint256",
          "name": "loanId",
          "type": "uint256"
        }
      ],
      "name": "getLoanTokenAddress",
      "outputs": [
        {
          "internalType": "address",
          "name": "",
          "type": "address"
        }
      ],
      "stateMutability": "view",
      "type": "function"
    },
    {
      "inputs": [
        {
          "internalType": "uint256",
          "name": "loanId",
          "type": "uint256"
        }
      ],
      "name": "getLoanTokenId",
      "outputs": [
        {
          "internalType": "uint256",
          "name": "",
          "type": "uint256"
        }
      ],
      "stateMutability": "view",
      "type": "function"
    },
    {
      "inputs": [],
      "name": "getLoansCount",
      "outputs": [
        {
          "internalType": "uint256",
          "name": "",
          "type": "uint256"
        }
      ],
      "stateMutability": "view",
      "type": "function"
    },
    {
      "inputs": [
        {
          "internalType": "address",
          "name": "nftAddress",
          "type": "address"
        },
        {
          "internalType": "uint256",
          "name": "nftTokenID",
          "type": "uint256"
        }
      ],
      "name": "getNFTLoan",
      "outputs": [
        {
          "internalType": "uint256",
          "name": "",
          "type": "uint256"
        }
      ],
      "stateMutability": "view",
      "type": "function"
    },
    {
      "inputs": [
        {
          "internalType": "contract IMarketAddressesProvider",
          "name": "addressesProvider",
          "type": "address"
        }
      ],
      "name": "initialize",
      "outputs": [],
      "stateMutability": "nonpayable",
      "type": "function"
    },
    {
      "inputs": [
        {
          "internalType": "uint256",
          "name": "loanId",
          "type": "uint256"
        }
      ],
      "name": "liquidateLoan",
      "outputs": [],
      "stateMutability": "nonpayable",
      "type": "function"
    },
    {
      "inputs": [
        {
          "internalType": "address",
          "name": "",
          "type": "address"
        },
        {
          "internalType": "address",
          "name": "",
          "type": "address"
        },
        {
          "internalType": "uint256",
          "name": "",
          "type": "uint256"
        },
        {
          "internalType": "bytes",
          "name": "",
          "type": "bytes"
        }
      ],
      "name": "onERC721Received",
      "outputs": [
        {
          "internalType": "bytes4",
          "name": "",
          "type": "bytes4"
        }
      ],
      "stateMutability": "pure",
      "type": "function"
    },
    {
      "inputs": [],
      "name": "owner",
      "outputs": [
        {
          "internalType": "address",
          "name": "",
          "type": "address"
        }
      ],
      "stateMutability": "view",
      "type": "function"
    },
    {
      "inputs": [],
      "name": "renounceOwnership",
      "outputs": [],
      "stateMutability": "nonpayable",
      "type": "function"
    },
    {
      "inputs": [
        {
          "internalType": "uint256",
          "name": "loanId",
          "type": "uint256"
        }
      ],
      "name": "repayLoan",
      "outputs": [],
      "stateMutability": "nonpayable",
      "type": "function"
    },
    {
      "inputs": [
        {
          "internalType": "address",
          "name": "newOwner",
          "type": "address"
        }
      ],
      "name": "transferOwnership",
      "outputs": [],
      "stateMutability": "nonpayable",
      "type": "function"
    }
  ],
  "bytecode": "0x608060405234801561001057600080fd5b506122c2806100206000396000f3fe608060405234801561001057600080fd5b506004361061010b5760003560e01c806371b60aa2116100a2578063c4d66de811610071578063c4d66de8146102ca578063ccdd9f5d146102e6578063de3d6a0314610302578063e7d892bf14610332578063f2fde38b146103625761010b565b806371b60aa2146102305780638da5cb5b14610260578063ab7b1c891461027e578063b54cb5101461029a5761010b565b80632af16c4e116100de5780632af16c4e146101be5780634644004d146101da578063504006ca146101f6578063715018a6146102265761010b565b80630bbf145b146101105780630c97200a14610140578063150b7a021461015e57806321fb91cb1461018e575b600080fd5b61012a60048036038101906101259190611798565b61037e565b60405161013791906117d4565b60405180910390f35b6101486103cd565b60405161015591906117d4565b60405180910390f35b610178600480360381019061017391906118b2565b6103d7565b6040516101859190611975565b60405180910390f35b6101a860048036038101906101a39190611798565b610405565b6040516101b591906117d4565b60405180910390f35b6101d860048036038101906101d39190611990565b610425565b005b6101f460048036038101906101ef9190611798565b6105a2565b005b610210600480360381019061020b9190611798565b6106ef565b60405161021d9190611b09565b60405180910390f35b61022e61088c565b005b61024a60048036038101906102459190611798565b610914565b60405161025791906117d4565b60405180910390f35b610268610942565b6040516102759190611b34565b60405180910390f35b61029860048036038101906102939190611798565b61096c565b005b6102b460048036038101906102af9190611b4f565b610b37565b6040516102c191906117d4565b60405180910390f35b6102e460048036038101906102df9190611c1a565b610cfd565b005b61030060048036038101906102fb9190611798565b610dd3565b005b61031c60048036038101906103179190611c47565b610f9e565b60405161032991906117d4565b60405180910390f35b61034c60048036038101906103479190611798565b610ff9565b6040516103599190611b34565b60405180910390f35b61037c60048036038101906103779190611990565b611039565b005b600060666000838152602001908152602001600020600201546103bc426066600086815260200190815260200160002061113090919063ffffffff16565b6103c69190611cb6565b9050919050565b6000606754905090565b60007f150b7a023d4804d13e8c85fb27262cb750cf6ba9f9dd3bb30d90f482ceeb4b1f905095945050505050565b600060666000838152602001908152602001600020600401549050919050565b61042d61122b565b73ffffffffffffffffffffffffffffffffffffffff1661044b610942565b73ffffffffffffffffffffffffffffffffffffffff16146104a1576040517f08c379a000000000000000000000000000000000000000000000000000000000815260040161049890611d69565b60405180910390fd5b8073ffffffffffffffffffffffffffffffffffffffff1663a22cb465606860009054906101000a900473ffffffffffffffffffffffffffffffffffffffff1673ffffffffffffffffffffffffffffffffffffffff1663e7334fe56040518163ffffffff1660e01b8152600401602060405180830381865afa15801561052a573d6000803e3d6000fd5b505050506040513d601f19601f8201168201806040525081019061054e9190611d9e565b60016040518363ffffffff1660e01b815260040161056d929190611de6565b600060405180830381600087803b15801561058757600080fd5b505af115801561059b573d6000803e3d6000fd5b5050505050565b606860009054906101000a900473ffffffffffffffffffffffffffffffffffffffff1673ffffffffffffffffffffffffffffffffffffffff1663e7334fe56040518163ffffffff1660e01b8152600401602060405180830381865afa15801561060f573d6000803e3d6000fd5b505050506040513d601f19601f820116820180604052508101906106339190611d9e565b73ffffffffffffffffffffffffffffffffffffffff1661065161122b565b73ffffffffffffffffffffffffffffffffffffffff16146106a7576040517f08c379a000000000000000000000000000000000000000000000000000000000815260040161069e90611e5b565b60405180910390fd5b600060666000838152602001908152602001600020905060028160010160006101000a81548160ff021916908360048111156106e6576106e56119cc565b5b02179055505050565b6106f76116b8565b6066600083815260200190815260200160002060405180610120016040529081600082015481526020016001820160009054906101000a900460ff166004811115610745576107446119cc565b5b6004811115610757576107566119cc565b5b81526020016001820160019054906101000a900473ffffffffffffffffffffffffffffffffffffffff1673ffffffffffffffffffffffffffffffffffffffff1673ffffffffffffffffffffffffffffffffffffffff168152602001600282015481526020016003820160009054906101000a900473ffffffffffffffffffffffffffffffffffffffff1673ffffffffffffffffffffffffffffffffffffffff1673ffffffffffffffffffffffffffffffffffffffff168152602001600482015481526020016005820160009054906101000a900473ffffffffffffffffffffffffffffffffffffffff1673ffffffffffffffffffffffffffffffffffffffff1673ffffffffffffffffffffffffffffffffffffffff168152602001600682015481526020016007820154815250509050919050565b61089461122b565b73ffffffffffffffffffffffffffffffffffffffff166108b2610942565b73ffffffffffffffffffffffffffffffffffffffff1614610908576040517f08c379a00000000000000000000000000000000000000000000000000000000081526004016108ff90611d69565b60405180910390fd5b6109126000611233565b565b600061093b426066600085815260200190815260200160002061113090919063ffffffff16565b9050919050565b6000603360009054906101000a900473ffffffffffffffffffffffffffffffffffffffff16905090565b606860009054906101000a900473ffffffffffffffffffffffffffffffffffffffff1673ffffffffffffffffffffffffffffffffffffffff1663e7334fe56040518163ffffffff1660e01b8152600401602060405180830381865afa1580156109d9573d6000803e3d6000fd5b505050506040513d601f19601f820116820180604052508101906109fd9190611d9e565b73ffffffffffffffffffffffffffffffffffffffff16610a1b61122b565b73ffffffffffffffffffffffffffffffffffffffff1614610a71576040517f08c379a0000000000000000000000000000000000000000000000000000000008152600401610a6890611e5b565b60405180910390fd5b600060666000838152602001908152602001600020905060038160010160006101000a81548160ff02191690836004811115610ab057610aaf6119cc565b5b02179055506000606560008360030160009054906101000a900473ffffffffffffffffffffffffffffffffffffffff1673ffffffffffffffffffffffffffffffffffffffff1673ffffffffffffffffffffffffffffffffffffffff168152602001908152602001600020600083600401548152602001908152602001600020819055505050565b6000606860009054906101000a900473ffffffffffffffffffffffffffffffffffffffff1673ffffffffffffffffffffffffffffffffffffffff1663e7334fe56040518163ffffffff1660e01b8152600401602060405180830381865afa158015610ba6573d6000803e3d6000fd5b505050506040513d601f19601f82011682018060405250810190610bca9190611d9e565b73ffffffffffffffffffffffffffffffffffffffff16610be861122b565b73ffffffffffffffffffffffffffffffffffffffff1614610c3e576040517f08c379a0000000000000000000000000000000000000000000000000000000008152600401610c3590611e5b565b60405180910390fd5b610c736067548888888888886066600060675481526020019081526020016000206112f990979695949392919063ffffffff16565b606754606560008673ffffffffffffffffffffffffffffffffffffffff1673ffffffffffffffffffffffffffffffffffffffff16815260200190815260200160002060008581526020019081526020016000208190555060676000815480929190610cdd90611e7b565b91905055506001606754610cf19190611ec3565b90509695505050505050565b6000610d096001611426565b90508015610d2d576001600060016101000a81548160ff0219169083151502179055505b610d35611516565b81606860006101000a81548173ffffffffffffffffffffffffffffffffffffffff021916908373ffffffffffffffffffffffffffffffffffffffff1602179055508015610dcf5760008060016101000a81548160ff0219169083151502179055507f7f26b83ff96e1f2b6a682f133852f6798a09c465da95921460cefb38474024986001604051610dc69190611f49565b60405180910390a15b5050565b606860009054906101000a900473ffffffffffffffffffffffffffffffffffffffff1673ffffffffffffffffffffffffffffffffffffffff1663e7334fe56040518163ffffffff1660e01b8152600401602060405180830381865afa158015610e40573d6000803e3d6000fd5b505050506040513d601f19601f82011682018060405250810190610e649190611d9e565b73ffffffffffffffffffffffffffffffffffffffff16610e8261122b565b73ffffffffffffffffffffffffffffffffffffffff1614610ed8576040517f08c379a0000000000000000000000000000000000000000000000000000000008152600401610ecf90611e5b565b60405180910390fd5b600060666000838152602001908152602001600020905060048160010160006101000a81548160ff02191690836004811115610f1757610f166119cc565b5b02179055506000606560008360030160009054906101000a900473ffffffffffffffffffffffffffffffffffffffff1673ffffffffffffffffffffffffffffffffffffffff1673ffffffffffffffffffffffffffffffffffffffff168152602001908152602001600020600083600401548152602001908152602001600020819055505050565b6000606560008473ffffffffffffffffffffffffffffffffffffffff1673ffffffffffffffffffffffffffffffffffffffff168152602001908152602001600020600083815260200190815260200160002054905092915050565b60006066600083815260200190815260200160002060030160009054906101000a900473ffffffffffffffffffffffffffffffffffffffff169050919050565b61104161122b565b73ffffffffffffffffffffffffffffffffffffffff1661105f610942565b73ffffffffffffffffffffffffffffffffffffffff16146110b5576040517f08c379a00000000000000000000000000000000000000000000000000000000081526004016110ac90611d69565b60405180910390fd5b600073ffffffffffffffffffffffffffffffffffffffff168173ffffffffffffffffffffffffffffffffffffffff1603611124576040517f08c379a000000000000000000000000000000000000000000000000000000000815260040161111b90611fd6565b60405180910390fd5b61112d81611233565b50565b6000806301e133806305f5e10085600701548561114d9190611ec3565b6111579190611ff6565b611161919061207f565b90506111a26040518060400160405280601081526020017f74696d655370656e74496e5965617273000000000000000000000000000000008152508261156f565b60006127108286600601546111b79190611ff6565b6111c1919061207f565b90506112026040518060400160405280600f81526020017f61636372756564496e74657265737400000000000000000000000000000000008152508261156f565b6305f5e1008186600201546112179190611ff6565b611221919061207f565b9250505092915050565b600033905090565b6000603360009054906101000a900473ffffffffffffffffffffffffffffffffffffffff16905081603360006101000a81548173ffffffffffffffffffffffffffffffffffffffff021916908373ffffffffffffffffffffffffffffffffffffffff1602179055508173ffffffffffffffffffffffffffffffffffffffff168173ffffffffffffffffffffffffffffffffffffffff167f8be0079c531659141344cd1fd0a4f28419497f9722a3daafe3b4186f6b6457e060405160405180910390a35050565b86886000018190555060018860010160006101000a81548160ff0219169083600481111561132a576113296119cc565b5b0217905550858860010160016101000a81548173ffffffffffffffffffffffffffffffffffffffff021916908373ffffffffffffffffffffffffffffffffffffffff160217905550838860020181905550828860030160006101000a81548173ffffffffffffffffffffffffffffffffffffffff021916908373ffffffffffffffffffffffffffffffffffffffff160217905550818860040181905550808860060181905550848860050160006101000a81548173ffffffffffffffffffffffffffffffffffffffff021916908373ffffffffffffffffffffffffffffffffffffffff1602179055504288600701819055505050505050505050565b60008060019054906101000a900460ff161561149d5760018260ff1614801561145557506114533061160b565b155b611494576040517f08c379a000000000000000000000000000000000000000000000000000000000815260040161148b90612122565b60405180910390fd5b60009050611511565b8160ff1660008054906101000a900460ff1660ff16106114f2576040517f08c379a00000000000000000000000000000000000000000000000000000000081526004016114e990612122565b60405180910390fd5b816000806101000a81548160ff021916908360ff160217905550600190505b919050565b600060019054906101000a900460ff16611565576040517f08c379a000000000000000000000000000000000000000000000000000000000815260040161155c906121b4565b60405180910390fd5b61156d61162e565b565b611607828260405160240161158592919061225c565b6040516020818303038152906040527f9710a9d0000000000000000000000000000000000000000000000000000000007bffffffffffffffffffffffffffffffffffffffffffffffffffffffff19166020820180517bffffffffffffffffffffffffffffffffffffffffffffffffffffffff838183161783525050505061168f565b5050565b6000808273ffffffffffffffffffffffffffffffffffffffff163b119050919050565b600060019054906101000a900460ff1661167d576040517f08c379a0000000000000000000000000000000000000000000000000000000008152600401611674906121b4565b60405180910390fd5b61168d61168861122b565b611233565b565b60008151905060006a636f6e736f6c652e6c6f679050602083016000808483855afa5050505050565b60405180610120016040528060008152602001600060048111156116df576116de6119cc565b5b8152602001600073ffffffffffffffffffffffffffffffffffffffff16815260200160008152602001600073ffffffffffffffffffffffffffffffffffffffff16815260200160008152602001600073ffffffffffffffffffffffffffffffffffffffff16815260200160008152602001600081525090565b600080fd5b600080fd5b6000819050919050565b61177581611762565b811461178057600080fd5b50565b6000813590506117928161176c565b92915050565b6000602082840312156117ae576117ad611758565b5b60006117bc84828501611783565b91505092915050565b6117ce81611762565b82525050565b60006020820190506117e960008301846117c5565b92915050565b600073ffffffffffffffffffffffffffffffffffffffff82169050919050565b600061181a826117ef565b9050919050565b61182a8161180f565b811461183557600080fd5b50565b60008135905061184781611821565b92915050565b600080fd5b600080fd5b600080fd5b60008083601f8401126118725761187161184d565b5b8235905067ffffffffffffffff81111561188f5761188e611852565b5b6020830191508360018202830111156118ab576118aa611857565b5b9250929050565b6000806000806000608086880312156118ce576118cd611758565b5b60006118dc88828901611838565b95505060206118ed88828901611838565b94505060406118fe88828901611783565b935050606086013567ffffffffffffffff81111561191f5761191e61175d565b5b61192b8882890161185c565b92509250509295509295909350565b60007fffffffff0000000000000000000000000000000000000000000000000000000082169050919050565b61196f8161193a565b82525050565b600060208201905061198a6000830184611966565b92915050565b6000602082840312156119a6576119a5611758565b5b60006119b484828501611838565b91505092915050565b6119c681611762565b82525050565b7f4e487b7100000000000000000000000000000000000000000000000000000000600052602160045260246000fd5b60058110611a0c57611a0b6119cc565b5b50565b6000819050611a1d826119fb565b919050565b6000611a2d82611a0f565b9050919050565b611a3d81611a22565b82525050565b611a4c8161180f565b82525050565b61012082016000820151611a6960008501826119bd565b506020820151611a7c6020850182611a34565b506040820151611a8f6040850182611a43565b506060820151611aa260608501826119bd565b506080820151611ab56080850182611a43565b5060a0820151611ac860a08501826119bd565b5060c0820151611adb60c0850182611a43565b5060e0820151611aee60e08501826119bd565b50610100820151611b036101008501826119bd565b50505050565b600061012082019050611b1f6000830184611a52565b92915050565b611b2e8161180f565b82525050565b6000602082019050611b496000830184611b25565b92915050565b60008060008060008060c08789031215611b6c57611b6b611758565b5b6000611b7a89828a01611838565b9650506020611b8b89828a01611838565b9550506040611b9c89828a01611783565b9450506060611bad89828a01611838565b9350506080611bbe89828a01611783565b92505060a0611bcf89828a01611783565b9150509295509295509295565b6000611be78261180f565b9050919050565b611bf781611bdc565b8114611c0257600080fd5b50565b600081359050611c1481611bee565b92915050565b600060208284031215611c3057611c2f611758565b5b6000611c3e84828501611c05565b91505092915050565b60008060408385031215611c5e57611c5d611758565b5b6000611c6c85828601611838565b9250506020611c7d85828601611783565b9150509250929050565b7f4e487b7100000000000000000000000000000000000000000000000000000000600052601160045260246000fd5b6000611cc182611762565b9150611ccc83611762565b9250827fffffffffffffffffffffffffffffffffffffffffffffffffffffffffffffffff03821115611d0157611d00611c87565b5b828201905092915050565b600082825260208201905092915050565b7f4f776e61626c653a2063616c6c6572206973206e6f7420746865206f776e6572600082015250565b6000611d53602083611d0c565b9150611d5e82611d1d565b602082019050919050565b60006020820190508181036000830152611d8281611d46565b9050919050565b600081519050611d9881611821565b92915050565b600060208284031215611db457611db3611758565b5b6000611dc284828501611d89565b91505092915050565b60008115159050919050565b611de081611dcb565b82525050565b6000604082019050611dfb6000830185611b25565b611e086020830184611dd7565b9392505050565b7f43616c6c6572206d757374206265204d61726b657420636f6e74726163740000600082015250565b6000611e45601e83611d0c565b9150611e5082611e0f565b602082019050919050565b60006020820190508181036000830152611e7481611e38565b9050919050565b6000611e8682611762565b91507fffffffffffffffffffffffffffffffffffffffffffffffffffffffffffffffff8203611eb857611eb7611c87565b5b600182019050919050565b6000611ece82611762565b9150611ed983611762565b925082821015611eec57611eeb611c87565b5b828203905092915050565b6000819050919050565b600060ff82169050919050565b6000819050919050565b6000611f33611f2e611f2984611ef7565b611f0e565b611f01565b9050919050565b611f4381611f18565b82525050565b6000602082019050611f5e6000830184611f3a565b92915050565b7f4f776e61626c653a206e6577206f776e657220697320746865207a65726f206160008201527f6464726573730000000000000000000000000000000000000000000000000000602082015250565b6000611fc0602683611d0c565b9150611fcb82611f64565b604082019050919050565b60006020820190508181036000830152611fef81611fb3565b9050919050565b600061200182611762565b915061200c83611762565b9250817fffffffffffffffffffffffffffffffffffffffffffffffffffffffffffffffff048311821515161561204557612044611c87565b5b828202905092915050565b7f4e487b7100000000000000000000000000000000000000000000000000000000600052601260045260246000fd5b600061208a82611762565b915061209583611762565b9250826120a5576120a4612050565b5b828204905092915050565b7f496e697469616c697a61626c653a20636f6e747261637420697320616c72656160008201527f647920696e697469616c697a6564000000000000000000000000000000000000602082015250565b600061210c602e83611d0c565b9150612117826120b0565b604082019050919050565b6000602082019050818103600083015261213b816120ff565b9050919050565b7f496e697469616c697a61626c653a20636f6e7472616374206973206e6f74206960008201527f6e697469616c697a696e67000000000000000000000000000000000000000000602082015250565b600061219e602b83611d0c565b91506121a982612142565b604082019050919050565b600060208201905081810360008301526121cd81612191565b9050919050565b600081519050919050565b60005b838110156121fd5780820151818401526020810190506121e2565b8381111561220c576000848401525b50505050565b6000601f19601f8301169050919050565b600061222e826121d4565b6122388185611d0c565b93506122488185602086016121df565b61225181612212565b840191505092915050565b600060408201905081810360008301526122768185612223565b905061228560208301846117c5565b939250505056fea26469706673582212204130fd2b9bc4d31a5294cd32414be5ffd584aca40ebec4151f5a8092ff40a6ae64736f6c634300080f0033",
  "linkReferences": {},
  "deployedLinkReferences": {}
}