{
  "_format": "hh-sol-artifact-1",
  "contractName": "LoanCenter",
  "sourceName": "contracts/protocol/LoanCenter.sol",
  "abi": [
    {
      "anonymous": false,
      "inputs": [
        {
          "indexed": false,
          "internalType": "uint8",
          "name": "version",
          "type": "uint8"
        }
      ],
      "name": "Initialized",
      "type": "event"
    },
    {
      "anonymous": false,
      "inputs": [
        {
          "indexed": true,
          "internalType": "address",
          "name": "previousOwner",
          "type": "address"
        },
        {
          "indexed": true,
          "internalType": "address",
          "name": "newOwner",
          "type": "address"
        }
      ],
      "name": "OwnershipTransferred",
      "type": "event"
    },
    {
      "inputs": [
        {
          "internalType": "uint256",
          "name": "loanId",
          "type": "uint256"
        }
      ],
      "name": "activateLoan",
      "outputs": [],
      "stateMutability": "nonpayable",
      "type": "function"
    },
    {
      "inputs": [
        {
          "internalType": "address",
          "name": "collection",
          "type": "address"
        }
      ],
      "name": "approveNFTCollection",
      "outputs": [],
      "stateMutability": "nonpayable",
      "type": "function"
    },
    {
      "inputs": [
        {
          "internalType": "address",
          "name": "borrower",
          "type": "address"
        },
        {
          "internalType": "address",
          "name": "reserve",
          "type": "address"
        },
        {
          "internalType": "uint256",
          "name": "amount",
          "type": "uint256"
        },
        {
          "internalType": "uint256",
          "name": "maxLTV",
          "type": "uint256"
        },
        {
          "internalType": "uint256",
          "name": "boost",
          "type": "uint256"
        },
        {
          "internalType": "uint256",
          "name": "genesisNFTId",
          "type": "uint256"
        },
        {
          "internalType": "address",
          "name": "nftAddress",
          "type": "address"
        },
        {
          "internalType": "uint256",
          "name": "nftTokenId",
          "type": "uint256"
        },
        {
          "internalType": "uint256",
          "name": "borrowRate",
          "type": "uint256"
        }
      ],
      "name": "createLoan",
      "outputs": [
        {
          "internalType": "uint256",
          "name": "",
          "type": "uint256"
        }
      ],
      "stateMutability": "nonpayable",
      "type": "function"
    },
    {
      "inputs": [
        {
          "internalType": "address",
          "name": "user",
          "type": "address"
        },
        {
          "internalType": "address",
          "name": "collection",
          "type": "address"
        }
      ],
      "name": "getActiveLoansCount",
      "outputs": [
        {
          "internalType": "uint256",
          "name": "",
          "type": "uint256"
        }
      ],
      "stateMutability": "view",
      "type": "function"
    },
    {
      "inputs": [
        {
          "internalType": "uint256",
          "name": "loanId",
          "type": "uint256"
        }
      ],
      "name": "getLoan",
      "outputs": [
        {
          "components": [
            {
              "internalType": "uint256",
              "name": "loanId",
              "type": "uint256"
            },
            {
              "internalType": "enum DataTypes.LoanState",
              "name": "state",
              "type": "uint8"
            },
            {
              "internalType": "address",
              "name": "borrower",
              "type": "address"
            },
            {
              "internalType": "uint256",
              "name": "amount",
              "type": "uint256"
            },
            {
              "internalType": "uint256",
              "name": "maxLTV",
              "type": "uint256"
            },
            {
              "internalType": "uint256",
              "name": "boost",
              "type": "uint256"
            },
            {
              "internalType": "uint256",
              "name": "genesisNFTId",
              "type": "uint256"
            },
            {
              "internalType": "uint256",
              "name": "genesisNFTBoost",
              "type": "uint256"
            },
            {
              "internalType": "address",
              "name": "nftAsset",
              "type": "address"
            },
            {
              "internalType": "uint256",
              "name": "nftTokenId",
              "type": "uint256"
            },
            {
              "internalType": "address",
              "name": "reserve",
              "type": "address"
            },
            {
              "internalType": "uint256",
              "name": "borrowRate",
              "type": "uint256"
            },
            {
              "internalType": "uint256",
              "name": "initTimestamp",
              "type": "uint256"
            }
          ],
          "internalType": "struct DataTypes.LoanData",
          "name": "",
          "type": "tuple"
        }
      ],
      "stateMutability": "view",
      "type": "function"
    },
    {
      "inputs": [
        {
          "internalType": "uint256",
          "name": "loanId",
          "type": "uint256"
        }
      ],
      "name": "getLoanBoost",
      "outputs": [
        {
          "internalType": "uint256",
          "name": "",
          "type": "uint256"
        }
      ],
      "stateMutability": "view",
      "type": "function"
    },
    {
      "inputs": [
        {
          "internalType": "uint256",
          "name": "loanId",
          "type": "uint256"
        }
      ],
      "name": "getLoanDebt",
      "outputs": [
        {
          "internalType": "uint256",
          "name": "",
          "type": "uint256"
        }
      ],
      "stateMutability": "view",
      "type": "function"
    },
    {
      "inputs": [
        {
          "internalType": "uint256",
          "name": "loanId",
          "type": "uint256"
        }
      ],
      "name": "getLoanInterest",
      "outputs": [
        {
          "internalType": "uint256",
          "name": "",
          "type": "uint256"
        }
      ],
      "stateMutability": "view",
      "type": "function"
    },
    {
      "inputs": [
        {
          "internalType": "uint256",
          "name": "loanId",
          "type": "uint256"
        },
        {
          "internalType": "bytes32",
          "name": "request",
          "type": "bytes32"
        },
        {
          "components": [
            {
              "internalType": "uint8",
              "name": "v",
              "type": "uint8"
            },
            {
              "internalType": "bytes32",
              "name": "r",
              "type": "bytes32"
            },
            {
              "internalType": "bytes32",
              "name": "s",
              "type": "bytes32"
            },
            {
              "internalType": "bytes32",
              "name": "request",
              "type": "bytes32"
            },
            {
              "internalType": "uint256",
              "name": "deadline",
              "type": "uint256"
            },
            {
              "internalType": "bytes",
              "name": "payload",
              "type": "bytes"
            }
          ],
          "internalType": "struct Trustus.TrustusPacket",
          "name": "packet",
          "type": "tuple"
        }
      ],
      "name": "getLoanLiquidationPrice",
      "outputs": [
        {
          "internalType": "uint256",
          "name": "",
          "type": "uint256"
        },
        {
          "internalType": "uint256",
          "name": "",
          "type": "uint256"
        }
      ],
      "stateMutability": "view",
      "type": "function"
    },
    {
      "inputs": [
        {
          "internalType": "uint256",
          "name": "loanId",
          "type": "uint256"
        },
        {
          "internalType": "bytes32",
          "name": "request",
          "type": "bytes32"
        },
        {
          "components": [
            {
              "internalType": "uint8",
              "name": "v",
              "type": "uint8"
            },
            {
              "internalType": "bytes32",
              "name": "r",
              "type": "bytes32"
            },
            {
              "internalType": "bytes32",
              "name": "s",
              "type": "bytes32"
            },
            {
              "internalType": "bytes32",
              "name": "request",
              "type": "bytes32"
            },
            {
              "internalType": "uint256",
              "name": "deadline",
              "type": "uint256"
            },
            {
              "internalType": "bytes",
              "name": "payload",
              "type": "bytes"
            }
          ],
          "internalType": "struct Trustus.TrustusPacket",
          "name": "packet",
          "type": "tuple"
        }
      ],
      "name": "getLoanMaxETHCollateral",
      "outputs": [
        {
          "internalType": "uint256",
          "name": "",
          "type": "uint256"
        }
      ],
      "stateMutability": "view",
      "type": "function"
    },
    {
      "inputs": [
        {
          "internalType": "uint256",
          "name": "loanId",
          "type": "uint256"
        }
      ],
      "name": "getLoanTokenAddress",
      "outputs": [
        {
          "internalType": "address",
          "name": "",
          "type": "address"
        }
      ],
      "stateMutability": "view",
      "type": "function"
    },
    {
      "inputs": [
        {
          "internalType": "uint256",
          "name": "loanId",
          "type": "uint256"
        }
      ],
      "name": "getLoanTokenId",
      "outputs": [
        {
          "internalType": "uint256",
          "name": "",
          "type": "uint256"
        }
      ],
      "stateMutability": "view",
      "type": "function"
    },
    {
      "inputs": [],
      "name": "getLoansCount",
      "outputs": [
        {
          "internalType": "uint256",
          "name": "",
          "type": "uint256"
        }
      ],
      "stateMutability": "view",
      "type": "function"
    },
    {
      "inputs": [
        {
          "internalType": "address",
          "name": "nftAddress",
          "type": "address"
        },
        {
          "internalType": "uint256",
          "name": "nftTokenId",
          "type": "uint256"
        }
      ],
      "name": "getNFTLoanId",
      "outputs": [
        {
          "internalType": "uint256",
          "name": "",
          "type": "uint256"
        }
      ],
      "stateMutability": "view",
      "type": "function"
    },
    {
      "inputs": [
        {
          "internalType": "contract IAddressesProvider",
          "name": "addressesProvider",
          "type": "address"
        }
      ],
      "name": "initialize",
      "outputs": [],
      "stateMutability": "nonpayable",
      "type": "function"
    },
    {
      "inputs": [
        {
          "internalType": "uint256",
          "name": "loanId",
          "type": "uint256"
        }
      ],
      "name": "liquidateLoan",
      "outputs": [],
      "stateMutability": "nonpayable",
      "type": "function"
    },
    {
      "inputs": [
        {
          "internalType": "address",
          "name": "",
          "type": "address"
        },
        {
          "internalType": "address",
          "name": "",
          "type": "address"
        },
        {
          "internalType": "uint256",
          "name": "",
          "type": "uint256"
        },
        {
          "internalType": "bytes",
          "name": "",
          "type": "bytes"
        }
      ],
      "name": "onERC721Received",
      "outputs": [
        {
          "internalType": "bytes4",
          "name": "",
          "type": "bytes4"
        }
      ],
      "stateMutability": "pure",
      "type": "function"
    },
    {
      "inputs": [],
      "name": "owner",
      "outputs": [
        {
          "internalType": "address",
          "name": "",
          "type": "address"
        }
      ],
      "stateMutability": "view",
      "type": "function"
    },
    {
      "inputs": [],
      "name": "renounceOwnership",
      "outputs": [],
      "stateMutability": "nonpayable",
      "type": "function"
    },
    {
      "inputs": [
        {
          "internalType": "uint256",
          "name": "loanId",
          "type": "uint256"
        }
      ],
      "name": "repayLoan",
      "outputs": [],
      "stateMutability": "nonpayable",
      "type": "function"
    },
    {
      "inputs": [
        {
          "internalType": "address",
          "name": "newOwner",
          "type": "address"
        }
      ],
      "name": "transferOwnership",
      "outputs": [],
      "stateMutability": "nonpayable",
      "type": "function"
    }
  ],
  "bytecode": "0x6080806040523461001657611c5f908161001c8239f35b600080fdfe60806040526004361015610013575b600080fd5b60003560e01c80630bbf145b146101b75780630c2452dd146101ae5780630c97200a146101a557806313e4cf2e1461019c578063150b7a021461019357806321fb91cb1461018a5780632af16c4e146101815780633384828e146101785780634644004d1461016f578063504006ca14610166578063715018a61461015d57806371b60aa2146101545780638a2ec8bb1461014b5780638da5cb5b146101425780639545773c14610139578063ab7b1c8914610130578063b398df5d14610127578063c4d66de81461011e578063ccdd9f5d14610115578063e7d892bf1461010c5763f2fde38b1461010457600080fd5b61000e611459565b5061000e6113f5565b5061000e611372565b5061000e611284565b5061000e610d7d565b5061000e610c59565b5061000e610bf5565b5061000e610bcb565b5061000e610b6b565b5061000e610aff565b5061000e610a9a565b5061000e6109f2565b5061000e610854565b5061000e610698565b5061000e61059c565b5061000e610532565b5061000e6104c3565b5061000e6102df565b5061000e610286565b5061000e61022f565b503461000e57602036600319011261000e5760043580600052606660205260ff600160406000200154166005811015610208576020916101fb610200921515611825565b611ae5565b604051908152f35b634e487b7160e01b600052602160045260246000fd5b6001600160a01b0381160361000e57565b503461000e57604036600319011261000e5760043561024d8161021e565b60018060a01b0316600052606560205260406000206024356000526020526020604060002054604051908152f35b600091031261000e57565b503461000e57600036600319011261000e576020606754604051908152f35b6003199160608284011261000e5760043592602435926044359167ffffffffffffffff831161000e578260c09203011261000e5760040190565b503461000e5761044361043360046102f6366102a5565b9061032b61031b6001610313866000526066602052604060002090565b015460ff1690565b6103248161092d565b1515611825565b606854610348906001600160a01b03165b6001600160a01b031690565b60405163246bbf5360e21b81526020958693928491839182905afa9081156104b6575b600091610489575b5061039b600761038d876000526066602052604060002090565b01546001600160a01b031690565b60086103b1876000526066602052604060002090565b0154906103d460405196879586948594633d638ac760e01b865260048601611959565b03916001600160a01b03165afa92831561047c575b600093610447575b5050806004610425600361041261042d956000526066602052604060002090565b0154926000526066602052604060002090565b0154906119fc565b90611a08565b6040519081529081906020820190565b0390f35b61042d929350908161046d92903d10610475575b610465818361170c565b810190611929565b9190386103f1565b503d61045b565b610484611746565b6103e9565b6104a99150833d85116104af575b6104a1818361170c565b81019061172e565b38610373565b503d610497565b6104be611746565b61036b565b503461000e57608036600319011261000e576104e060043561021e565b6104eb60243561021e565b60643567ffffffffffffffff80821161000e573660238301121561000e57816004013590811161000e573691016024011161000e57604051630a85bd0160e11b8152602090f35b503461000e57602036600319011261000e5760043580600052606660205260ff600160406000200154169060058210156102085761058a60089161057a610443941515611825565b6000526066602052604060002090565b01546040519081529081906020820190565b503461000e57602036600319011261000e57600480356105bb8161021e565b6105c36114eb565b6068546001600160a01b03918216916020916105df911661033c565b60405163e7334fe560e01b815293849182905afa91821561068b575b60009261066b575b50803b1561000e5760405163a22cb46560e01b81526001600160a01b038316600482015260016024820152906000908290604490829084905af1801561065e575b61064b575b005b80610658610649926116b2565b8061027b565b610666611746565b610644565b61068491925060203d81116104af576104a1818361170c565b9038610603565b610693611746565b6105fb565b503461000e5761012036600319011261000e5761081b6108166108016004356106c08161021e565b6108106024356106cf8161021e565b60c435926106dc8461021e565b6107dd60e4359261072260018060a01b036004602082606854166040519283809263e7334fe560e01b82525afa908115610847575b600091610829575b50163314611753565b606754928360005260666020526040600020938455600184019061074d82600160ff19825416179055565b8154610100600160a81b03191660089190911b610100600160a81b031617905560443560028401556064356003840155608435600484015560a43560058401556007830180546001600160a01b0319166001600160a01b0388161790556008830184905561010435600a8401556009830180546001600160a01b0319166001600160a01b03909216919091179055565b600b4291015560675493849360018060a01b03166000526065602052604060002090565b90600052602052604060002090565b556117b6565b606755565b6104436104336067546117ec565b610841915060203d81116104af576104a1818361170c565b38610719565b61084f611746565b610711565b503461000e5760208060031936011261000e576108fb9060018060a01b036108a98160048482606854166040519283809263e7334fe560e01b82525afa908115610920575b6000916109095750163314611753565b60043560005260668252606960406000209282600185016108d181600260ff19825416179055565b5460081c1660005252600760406000209201541660018060a01b0316600052602052604060002090565b61090581546117b6565b9055005b6108419150853d87116104af576104a1818361170c565b610928611746565b610899565b6005111561020857565b9060058210156102085752565b9190916101a08101928051825261096360208201516020840190610937565b6040818101516001600160a01b031690830152606081810151908301526080808201519083015260a0808201519083015260c0808201519083015260e08082015190830152610100808201516001600160a01b0316908301526101208181015190830152610140808201516001600160a01b031690830152610160808201519083015261018080910151910152565b503461000e57602036600319011261000e57610443610a8e610a89600435604051610a1c816116d3565b6101806000918281528260208201528260408201528260608201528260808201528260a08201528260c08201528260e082015282610100820152826101208201528261014082015282610160820152015261057a61031b6001610313846000526066602052604060002090565b611874565b60405191829182610944565b503461000e57600080600319360112610afc57610ab56114eb565b603380546001600160a01b031981169091556040519082906001600160a01b03167f8be0079c531659141344cd1fd0a4f28419497f9722a3daafe3b4186f6b6457e08284a3f35b80fd5b503461000e57602036600319011261000e57600435600090808252606660205260ff6001604084200154166005811015610b57576104439261043392610b486040931515611825565b81526066602052204290611b19565b634e487b7160e01b83526021600452602483fd5b503461000e57602036600319011261000e5760043580600052606660205260ff6001604060002001541660058110156102085761044391610bb0610433921515611825565b60066104256004610412846000526066602052604060002090565b503461000e57600036600319011261000e576033546040516001600160a01b039091168152602090f35b503461000e57604036600319011261000e576020610c50600435610c188161021e565b60243590610c258261021e565b60018060a01b03166000526069835260406000209060018060a01b0316600052602052604060002090565b54604051908152f35b503461000e5760208060031936011261000e57610d4f90610d39610d2b610d1160018060a01b0393610cb88560048382606854166040519283809263e7334fe560e01b82525afa908115610d70575b600091610d595750163314611753565b6004356000526066815260406000206001810191610cdd83600360ff19825416179055565b6007820196875416600052606581526008604060002092015460005252600060408120555460018060a01b039060081c1690565b6001600160a01b0316600090815260696020526040902090565b91546001600160a01b031690565b60018060a01b0316600052602052604060002090565b6109058154611809565b6108419150843d86116104af576104a1818361170c565b610d78611746565b610ca8565b503461000e57610d8c366102a5565b90610dac61033c61033c600961038d876000526066602052604060002090565b91604091825194635c222bad60e01b865285610e556020978897889586836004809781955afa928315611277575b600093611258575b5060685487908a908890610dfe906001600160a01b031661033c565b9a8b83519763cfeed18160e01b895285898981855afa98891561124b575b60009961122c575b50845163e88c199760e01b81526001600160a01b03918216898201908152909a91998a169187918c91829160200190565b0381845afa998a1561121f575b60009a6111e8575b508996938987948794610f2f998c99958a96519a8b80926304752df760e11b82525afa9889156111db575b6000996111b6575b509086859287519687809263246bbf5360e21b82525afa9485156111a9575b600095611186575b50610f14906008610ef8610ee7600761038d896000526066602052604060002090565b966000526066602052604060002090565b01549651633d638ac760e01b8152988997889687958601611959565b0392165afa908115611179575b60009161115c575b50611a26565b90610f3991611a45565b94868281610f51846000526066602052604060002090565b600901548c51631e522b2960e01b815292839182906001600160a01b03165afa90848c831594610f99610fe895610fe295610fee9861114f575b600091611132575b506117d2565b91610fb961033c61033c600961038d8c6000526066602052604060002090565b9051633efd066160e21b815293849182905afa918215611125575b600092611106575b506119fc565b88611a08565b91611ae5565b610fff82610ffa611a65565b611b85565b61100b81610ffa611a95565b818110156110fc57509889975b61102489610ffa611ab9565b8951634e5f612b60e11b815295869182905afa9384156110ef575b6000946110d0575b50611076885197889687958694631e0dc4f360e31b865285016040919493926060820195825260208201520152565b0392165afa9384156110c3575b60009461109e575b5050519081526020810191909152604090f35b61044392945090816110bb92903d1061047557610465818361170c565b92903861108b565b6110cb611746565b611083565b6110e8919450863d88116104af576104a1818361170c565b9238611047565b6110f7611746565b61103f565b9050988997611018565b61111e9192508c8d3d1061047557610465818361170c565b9038610fdc565b61112d611746565b610fd4565b6111499150833d851161047557610465818361170c565b38610f93565b611157611746565b610f8b565b61117391508a3d8c1161047557610465818361170c565b38610f29565b611181611746565b610f21565b610f149195506111a290883d8a116104af576104a1818361170c565b9490610ec4565b6111b1611746565b610ebc565b85929199506111d28891823d841161047557610465818361170c565b99919250610e9d565b6111e3611746565b610e95565b869a50938987948a979461120e89959b98610f2f9b3d8a1161047557610465818361170c565b9d5094975094975050939690610e6a565b611227611746565b610e62565b611244919950863d88116104af576104a1818361170c565b9738610e24565b611253611746565b610e1c565b611270919350873d89116104af576104a1818361170c565b9138610de2565b61127f611746565b610dda565b503461000e57602036600319011261000e576004356112a28161021e565b6112e6600054916112ca60ff8460081c161580948195611364575b8115611344575b50611593565b826112dd600160ff196000541617600055565b61132b576115f6565b6112ec57005b6112fc61ff001960005416600055565b604051600181527f7f26b83ff96e1f2b6a682f133852f6798a09c465da95921460cefb384740249890602090a1005b61133f61010061ff00196000541617600055565b6115f6565b303b15915081611356575b50386112c4565b6001915060ff16143861134f565b600160ff82161091506112bd565b503461000e5760208060031936011261000e57610d4f90610d39610d2b610d1160018060a01b03936113d08560048382606854166040519283809263e7334fe560e01b82525afa908115610d7057600091610d595750163314611753565b6004356000526066815260406000206001810191610cdd83600460ff19825416179055565b503461000e57602036600319011261000e5760043580600052606660205260ff60016040600020015416600581101561020857600761038d6104439361057a61143f941515611825565b6040516001600160a01b0390911681529081906020820190565b503461000e57602036600319011261000e576004356114778161021e565b61147f6114eb565b6001600160a01b038116156114975761064990611543565b60405162461bcd60e51b815260206004820152602660248201527f4f776e61626c653a206e6577206f776e657220697320746865207a65726f206160448201526564647265737360d01b6064820152608490fd5b6033546001600160a01b031633036114ff57565b606460405162461bcd60e51b815260206004820152602060248201527f4f776e61626c653a2063616c6c6572206973206e6f7420746865206f776e65726044820152fd5b6033549060018060a01b0380911691826bffffffffffffffffffffffff60a01b821617603355167f8be0079c531659141344cd1fd0a4f28419497f9722a3daafe3b4186f6b6457e06000604051a3565b1561159a57565b60405162461bcd60e51b815260206004820152602e60248201527f496e697469616c697a61626c653a20636f6e747261637420697320616c72656160448201526d191e481a5b9a5d1a585b1a5e995960921b6064820152608490fd5b61161060ff60005460081c1661160b8161163b565b61163b565b61161933611543565b60018060a01b03166bffffffffffffffffffffffff60a01b6068541617606855565b1561164257565b60405162461bcd60e51b815260206004820152602b60248201527f496e697469616c697a61626c653a20636f6e7472616374206973206e6f74206960448201526a6e697469616c697a696e6760a81b6064820152608490fd5b50634e487b7160e01b600052604160045260246000fd5b67ffffffffffffffff81116116c657604052565b6116ce61169b565b604052565b6101a0810190811067ffffffffffffffff8211176116c657604052565b6040810190811067ffffffffffffffff8211176116c657604052565b90601f8019910116810190811067ffffffffffffffff8211176116c657604052565b9081602091031261000e57516117438161021e565b90565b506040513d6000823e3d90fd5b1561175a57565b60405162461bcd60e51b815260206004820152601e60248201527f43616c6c6572206d757374206265204d61726b657420636f6e747261637400006044820152606490fd5b50634e487b7160e01b600052601160045260246000fd5b60019060001981146117c6570190565b6117ce61179f565b0190565b6127108181106117e0570390565b6117e861179f565b0390565b600181106117fc575b6000190190565b61180461179f565b6117f5565b80156117fc576000190190565b60405190611823826116d3565b565b1561182c57565b60405162461bcd60e51b81526020600482015260146024820152732637b0b7103237b2b9903737ba1032bc34b9ba1760611b6044820152606490fd5b60058210156102085752565b90600b61187f611816565b92805484526118af600182015461189c60ff821660208801611868565b60081c6001600160a01b03166040860152565b6002810154606085015260038101546080850152600481015460a0850152600581015460c0850152600681015460e085015260078101546001600160a01b0316610100850152600881015461012085015260098101546001600160a01b0316610140850152600a8101546101608501520154610180830152565b9081602091031261000e575190565b908060209392818452848401376000828201840152601f01601f1916010190565b9392919060018060a01b031684526020840152604083015260806060830152803560ff811680910361000e576080830152602081013560a0830152604081013560c0830152606081013560e0830152608081013561010083015260a0810135601e198236030181121561000e57016020813591019067ffffffffffffffff811161000e57803603821361000e576101408360c06101206117439601520191611938565b811981116117c6570190565b8161138819048111158215171561000e576127109102611388010490565b8060001904821181151516611a39570290565b611a4161179f565b0290565b8115611a4f570490565b634e487b7160e01b600052601260045260246000fd5b60405190611a72826116f0565b60148252731b1a5c5d5a59185d1a5bdb951a1c995cda1bdb1960621b6020830152565b60405190611aa2826116f0565b60088252671b1bd85b9119589d60c21b6020830152565b60405190611ac6826116f0565b601082526f6c69717569646174696f6e507269636560801b6020830152565b61174390806000526066602052611b0160406000204290611b19565b906000526066602052600260406000200154906119fc565b611b67906002612710611b5e6301e13380600b850154808810611b78575b8088036305f5e1009889928260001904841191141516611b6b575b0204600a850154611a26565b04910154611a26565b0490565b611b7361179f565b611b52565b611b8061179f565b611b37565b9190604051906020632d839cb360e21b81840152604060248401528451948560648501526000915b868310611bf85750508285611be693611823969760849411611beb575b6044830152601f8019910116810103606481018452018261170c565b611c0e565b6000848385010152611bca565b8183018101518584016084015291820191611bad565b600080916020815191016a636f6e736f6c652e6c6f675afa5056fea264697066735822122084d045a5044550caff0e3b23e5bf6c992d05bb0bf1ef7b1f1051eda019d8b6a764736f6c634300080f0033",
  "linkReferences": {},
  "deployedLinkReferences": {}
}