{
  "_format": "hh-sol-artifact-1",
  "contractName": "LoanCenter",
  "sourceName": "contracts/protocol/LoanCenter.sol",
  "abi": [
    {
      "anonymous": false,
      "inputs": [
        {
          "indexed": false,
          "internalType": "uint8",
          "name": "version",
          "type": "uint8"
        }
      ],
      "name": "Initialized",
      "type": "event"
    },
    {
      "anonymous": false,
      "inputs": [
        {
          "indexed": true,
          "internalType": "address",
          "name": "previousOwner",
          "type": "address"
        },
        {
          "indexed": true,
          "internalType": "address",
          "name": "newOwner",
          "type": "address"
        }
      ],
      "name": "OwnershipTransferred",
      "type": "event"
    },
    {
      "inputs": [
        {
          "internalType": "uint256",
          "name": "loanId",
          "type": "uint256"
        }
      ],
      "name": "activateLoan",
      "outputs": [],
      "stateMutability": "nonpayable",
      "type": "function"
    },
    {
      "inputs": [
        {
          "internalType": "address",
          "name": "collection",
          "type": "address"
        }
      ],
      "name": "approveNFTCollection",
      "outputs": [],
      "stateMutability": "nonpayable",
      "type": "function"
    },
    {
      "inputs": [
        {
          "internalType": "address",
          "name": "borrower",
          "type": "address"
        },
        {
          "internalType": "address",
          "name": "reserve",
          "type": "address"
        },
        {
          "internalType": "uint256",
          "name": "amount",
          "type": "uint256"
        },
        {
          "internalType": "address",
          "name": "nftAddress",
          "type": "address"
        },
        {
          "internalType": "uint256",
          "name": "nftTokenID",
          "type": "uint256"
        },
        {
          "internalType": "uint256",
          "name": "borrowRate",
          "type": "uint256"
        }
      ],
      "name": "createLoan",
      "outputs": [
        {
          "internalType": "uint256",
          "name": "",
          "type": "uint256"
        }
      ],
      "stateMutability": "nonpayable",
      "type": "function"
    },
    {
      "inputs": [
        {
          "internalType": "uint256",
          "name": "loanId",
          "type": "uint256"
        }
      ],
      "name": "getLoan",
      "outputs": [
        {
          "components": [
            {
              "internalType": "uint256",
              "name": "loanId",
              "type": "uint256"
            },
            {
              "internalType": "enum DataTypes.LoanState",
              "name": "state",
              "type": "uint8"
            },
            {
              "internalType": "address",
              "name": "borrower",
              "type": "address"
            },
            {
              "internalType": "uint256",
              "name": "amount",
              "type": "uint256"
            },
            {
              "internalType": "address",
              "name": "nftAsset",
              "type": "address"
            },
            {
              "internalType": "uint256",
              "name": "nftTokenId",
              "type": "uint256"
            },
            {
              "internalType": "address",
              "name": "reserve",
              "type": "address"
            },
            {
              "internalType": "uint256",
              "name": "borrowRate",
              "type": "uint256"
            },
            {
              "internalType": "uint256",
              "name": "initTimestamp",
              "type": "uint256"
            }
          ],
          "internalType": "struct DataTypes.LoanData",
          "name": "",
          "type": "tuple"
        }
      ],
      "stateMutability": "view",
      "type": "function"
    },
    {
      "inputs": [
        {
          "internalType": "uint256",
          "name": "loanId",
          "type": "uint256"
        }
      ],
      "name": "getLoanDebt",
      "outputs": [
        {
          "internalType": "uint256",
          "name": "",
          "type": "uint256"
        }
      ],
      "stateMutability": "view",
      "type": "function"
    },
    {
      "inputs": [
        {
          "internalType": "uint256",
          "name": "loanId",
          "type": "uint256"
        }
      ],
      "name": "getLoanInterest",
      "outputs": [
        {
          "internalType": "uint256",
          "name": "",
          "type": "uint256"
        }
      ],
      "stateMutability": "view",
      "type": "function"
    },
    {
      "inputs": [
        {
          "internalType": "uint256",
          "name": "loanId",
          "type": "uint256"
        }
      ],
      "name": "getLoanTokenAddress",
      "outputs": [
        {
          "internalType": "address",
          "name": "",
          "type": "address"
        }
      ],
      "stateMutability": "view",
      "type": "function"
    },
    {
      "inputs": [
        {
          "internalType": "uint256",
          "name": "loanId",
          "type": "uint256"
        }
      ],
      "name": "getLoanTokenId",
      "outputs": [
        {
          "internalType": "uint256",
          "name": "",
          "type": "uint256"
        }
      ],
      "stateMutability": "view",
      "type": "function"
    },
    {
      "inputs": [],
      "name": "getLoansCount",
      "outputs": [
        {
          "internalType": "uint256",
          "name": "",
          "type": "uint256"
        }
      ],
      "stateMutability": "view",
      "type": "function"
    },
    {
      "inputs": [
        {
          "internalType": "address",
          "name": "nftAddress",
          "type": "address"
        },
        {
          "internalType": "uint256",
          "name": "nftTokenID",
          "type": "uint256"
        }
      ],
      "name": "getNFTLoanId",
      "outputs": [
        {
          "internalType": "uint256",
          "name": "",
          "type": "uint256"
        }
      ],
      "stateMutability": "view",
      "type": "function"
    },
    {
      "inputs": [
        {
          "internalType": "address",
          "name": "user",
          "type": "address"
        },
        {
          "internalType": "address",
          "name": "collection",
          "type": "address"
        }
      ],
      "name": "getUserCollectionActiveLoansCount",
      "outputs": [
        {
          "internalType": "uint256",
          "name": "",
          "type": "uint256"
        }
      ],
      "stateMutability": "view",
      "type": "function"
    },
    {
      "inputs": [
        {
          "internalType": "contract IMarketAddressesProvider",
          "name": "addressesProvider",
          "type": "address"
        }
      ],
      "name": "initialize",
      "outputs": [],
      "stateMutability": "nonpayable",
      "type": "function"
    },
    {
      "inputs": [
        {
          "internalType": "uint256",
          "name": "loanId",
          "type": "uint256"
        }
      ],
      "name": "liquidateLoan",
      "outputs": [],
      "stateMutability": "nonpayable",
      "type": "function"
    },
    {
      "inputs": [
        {
          "internalType": "address",
          "name": "",
          "type": "address"
        },
        {
          "internalType": "address",
          "name": "",
          "type": "address"
        },
        {
          "internalType": "uint256",
          "name": "",
          "type": "uint256"
        },
        {
          "internalType": "bytes",
          "name": "",
          "type": "bytes"
        }
      ],
      "name": "onERC721Received",
      "outputs": [
        {
          "internalType": "bytes4",
          "name": "",
          "type": "bytes4"
        }
      ],
      "stateMutability": "pure",
      "type": "function"
    },
    {
      "inputs": [],
      "name": "owner",
      "outputs": [
        {
          "internalType": "address",
          "name": "",
          "type": "address"
        }
      ],
      "stateMutability": "view",
      "type": "function"
    },
    {
      "inputs": [],
      "name": "renounceOwnership",
      "outputs": [],
      "stateMutability": "nonpayable",
      "type": "function"
    },
    {
      "inputs": [
        {
          "internalType": "uint256",
          "name": "loanId",
          "type": "uint256"
        }
      ],
      "name": "repayLoan",
      "outputs": [],
      "stateMutability": "nonpayable",
      "type": "function"
    },
    {
      "inputs": [
        {
          "internalType": "address",
          "name": "newOwner",
          "type": "address"
        }
      ],
      "name": "transferOwnership",
      "outputs": [],
      "stateMutability": "nonpayable",
      "type": "function"
    }
  ],
  "bytecode": "0x608060405234801561001057600080fd5b50612480806100206000396000f3fe608060405234801561001057600080fd5b50600436106101165760003560e01c806371b60aa2116100a2578063b7ea175d11610071578063b7ea175d14610305578063c4d66de814610335578063ccdd9f5d14610351578063e7d892bf1461036d578063f2fde38b1461039d57610116565b806371b60aa21461026b5780638da5cb5b1461029b578063ab7b1c89146102b9578063b54cb510146102d557610116565b806321fb91cb116100e957806321fb91cb146101c95780632af16c4e146101f95780634644004d14610215578063504006ca14610231578063715018a61461026157610116565b80630bbf145b1461011b5780630c2452dd1461014b5780630c97200a1461017b578063150b7a0214610199575b600080fd5b610135600480360381019061013091906119a5565b6103b9565b60405161014291906119e1565b60405180910390f35b61016560048036038101906101609190611a5a565b610408565b60405161017291906119e1565b60405180910390f35b610183610463565b60405161019091906119e1565b60405180910390f35b6101b360048036038101906101ae9190611aff565b61046d565b6040516101c09190611bc2565b60405180910390f35b6101e360048036038101906101de91906119a5565b61049b565b6040516101f091906119e1565b60405180910390f35b610213600480360381019061020e9190611bdd565b6104bb565b005b61022f600480360381019061022a91906119a5565b610638565b005b61024b600480360381019061024691906119a5565b61085f565b6040516102589190611d56565b60405180910390f35b6102696109fc565b005b610285600480360381019061028091906119a5565b610a84565b60405161029291906119e1565b60405180910390f35b6102a3610ab2565b6040516102b09190611d81565b60405180910390f35b6102d360048036038101906102ce91906119a5565b610adc565b005b6102ef60048036038101906102ea9190611d9c565b610d81565b6040516102fc91906119e1565b60405180910390f35b61031f600480360381019061031a9190611e29565b610f47565b60405161032c91906119e1565b60405180910390f35b61034f600480360381019061034a9190611ea7565b610fce565b005b61036b600480360381019061036691906119a5565b6110a4565b005b610387600480360381019061038291906119a5565b611349565b6040516103949190611d81565b60405180910390f35b6103b760048036038101906103b29190611bdd565b611389565b005b600060666000838152602001908152602001600020600201546103f7426066600086815260200190815260200160002061148090919063ffffffff16565b6104019190611f03565b9050919050565b6000606560008473ffffffffffffffffffffffffffffffffffffffff1673ffffffffffffffffffffffffffffffffffffffff168152602001908152602001600020600083815260200190815260200160002054905092915050565b6000606754905090565b60007f150b7a023d4804d13e8c85fb27262cb750cf6ba9f9dd3bb30d90f482ceeb4b1f905095945050505050565b600060666000838152602001908152602001600020600401549050919050565b6104c36114fd565b73ffffffffffffffffffffffffffffffffffffffff166104e1610ab2565b73ffffffffffffffffffffffffffffffffffffffff1614610537576040517f08c379a000000000000000000000000000000000000000000000000000000000815260040161052e90611fb6565b60405180910390fd5b8073ffffffffffffffffffffffffffffffffffffffff1663a22cb465606860009054906101000a900473ffffffffffffffffffffffffffffffffffffffff1673ffffffffffffffffffffffffffffffffffffffff1663e7334fe56040518163ffffffff1660e01b8152600401602060405180830381865afa1580156105c0573d6000803e3d6000fd5b505050506040513d601f19601f820116820180604052508101906105e49190611feb565b60016040518363ffffffff1660e01b8152600401610603929190612033565b600060405180830381600087803b15801561061d57600080fd5b505af1158015610631573d6000803e3d6000fd5b5050505050565b606860009054906101000a900473ffffffffffffffffffffffffffffffffffffffff1673ffffffffffffffffffffffffffffffffffffffff1663e7334fe56040518163ffffffff1660e01b8152600401602060405180830381865afa1580156106a5573d6000803e3d6000fd5b505050506040513d601f19601f820116820180604052508101906106c99190611feb565b73ffffffffffffffffffffffffffffffffffffffff166106e76114fd565b73ffffffffffffffffffffffffffffffffffffffff161461073d576040517f08c379a0000000000000000000000000000000000000000000000000000000008152600401610734906120a8565b60405180910390fd5b600060666000838152602001908152602001600020905060028160010160006101000a81548160ff0219169083600481111561077c5761077b611c19565b5b0217905550606960008260010160019054906101000a900473ffffffffffffffffffffffffffffffffffffffff1673ffffffffffffffffffffffffffffffffffffffff1673ffffffffffffffffffffffffffffffffffffffff16815260200190815260200160002060008260030160009054906101000a900473ffffffffffffffffffffffffffffffffffffffff1673ffffffffffffffffffffffffffffffffffffffff1673ffffffffffffffffffffffffffffffffffffffff1681526020019081526020016000206000815480929190610856906120c8565b91905055505050565b6108676118c5565b6066600083815260200190815260200160002060405180610120016040529081600082015481526020016001820160009054906101000a900460ff1660048111156108b5576108b4611c19565b5b60048111156108c7576108c6611c19565b5b81526020016001820160019054906101000a900473ffffffffffffffffffffffffffffffffffffffff1673ffffffffffffffffffffffffffffffffffffffff1673ffffffffffffffffffffffffffffffffffffffff168152602001600282015481526020016003820160009054906101000a900473ffffffffffffffffffffffffffffffffffffffff1673ffffffffffffffffffffffffffffffffffffffff1673ffffffffffffffffffffffffffffffffffffffff168152602001600482015481526020016005820160009054906101000a900473ffffffffffffffffffffffffffffffffffffffff1673ffffffffffffffffffffffffffffffffffffffff1673ffffffffffffffffffffffffffffffffffffffff168152602001600682015481526020016007820154815250509050919050565b610a046114fd565b73ffffffffffffffffffffffffffffffffffffffff16610a22610ab2565b73ffffffffffffffffffffffffffffffffffffffff1614610a78576040517f08c379a0000000000000000000000000000000000000000000000000000000008152600401610a6f90611fb6565b60405180910390fd5b610a826000611505565b565b6000610aab426066600085815260200190815260200160002061148090919063ffffffff16565b9050919050565b6000603360009054906101000a900473ffffffffffffffffffffffffffffffffffffffff16905090565b606860009054906101000a900473ffffffffffffffffffffffffffffffffffffffff1673ffffffffffffffffffffffffffffffffffffffff1663e7334fe56040518163ffffffff1660e01b8152600401602060405180830381865afa158015610b49573d6000803e3d6000fd5b505050506040513d601f19601f82011682018060405250810190610b6d9190611feb565b73ffffffffffffffffffffffffffffffffffffffff16610b8b6114fd565b73ffffffffffffffffffffffffffffffffffffffff1614610be1576040517f08c379a0000000000000000000000000000000000000000000000000000000008152600401610bd8906120a8565b60405180910390fd5b600060666000838152602001908152602001600020905060038160010160006101000a81548160ff02191690836004811115610c2057610c1f611c19565b5b02179055506000606560008360030160009054906101000a900473ffffffffffffffffffffffffffffffffffffffff1673ffffffffffffffffffffffffffffffffffffffff1673ffffffffffffffffffffffffffffffffffffffff16815260200190815260200160002060008360040154815260200190815260200160002081905550606960008260010160019054906101000a900473ffffffffffffffffffffffffffffffffffffffff1673ffffffffffffffffffffffffffffffffffffffff1673ffffffffffffffffffffffffffffffffffffffff16815260200190815260200160002060008260030160009054906101000a900473ffffffffffffffffffffffffffffffffffffffff1673ffffffffffffffffffffffffffffffffffffffff1673ffffffffffffffffffffffffffffffffffffffff1681526020019081526020016000206000815480929190610d7890612110565b91905055505050565b6000606860009054906101000a900473ffffffffffffffffffffffffffffffffffffffff1673ffffffffffffffffffffffffffffffffffffffff1663e7334fe56040518163ffffffff1660e01b8152600401602060405180830381865afa158015610df0573d6000803e3d6000fd5b505050506040513d601f19601f82011682018060405250810190610e149190611feb565b73ffffffffffffffffffffffffffffffffffffffff16610e326114fd565b73ffffffffffffffffffffffffffffffffffffffff1614610e88576040517f08c379a0000000000000000000000000000000000000000000000000000000008152600401610e7f906120a8565b60405180910390fd5b610ebd6067548888888888886066600060675481526020019081526020016000206115cb90979695949392919063ffffffff16565b606754606560008673ffffffffffffffffffffffffffffffffffffffff1673ffffffffffffffffffffffffffffffffffffffff16815260200190815260200160002060008581526020019081526020016000208190555060676000815480929190610f27906120c8565b91905055506001606754610f3b9190612139565b90509695505050505050565b6000606960008473ffffffffffffffffffffffffffffffffffffffff1673ffffffffffffffffffffffffffffffffffffffff16815260200190815260200160002060008373ffffffffffffffffffffffffffffffffffffffff1673ffffffffffffffffffffffffffffffffffffffff16815260200190815260200160002054905092915050565b6000610fda60016116f8565b90508015610ffe576001600060016101000a81548160ff0219169083151502179055505b6110066117e8565b81606860006101000a81548173ffffffffffffffffffffffffffffffffffffffff021916908373ffffffffffffffffffffffffffffffffffffffff16021790555080156110a05760008060016101000a81548160ff0219169083151502179055507f7f26b83ff96e1f2b6a682f133852f6798a09c465da95921460cefb3847402498600160405161109791906121bf565b60405180910390a15b5050565b606860009054906101000a900473ffffffffffffffffffffffffffffffffffffffff1673ffffffffffffffffffffffffffffffffffffffff1663e7334fe56040518163ffffffff1660e01b8152600401602060405180830381865afa158015611111573d6000803e3d6000fd5b505050506040513d601f19601f820116820180604052508101906111359190611feb565b73ffffffffffffffffffffffffffffffffffffffff166111536114fd565b73ffffffffffffffffffffffffffffffffffffffff16146111a9576040517f08c379a00000000000000000000000000000000000000000000000000000000081526004016111a0906120a8565b60405180910390fd5b600060666000838152602001908152602001600020905060048160010160006101000a81548160ff021916908360048111156111e8576111e7611c19565b5b02179055506000606560008360030160009054906101000a900473ffffffffffffffffffffffffffffffffffffffff1673ffffffffffffffffffffffffffffffffffffffff1673ffffffffffffffffffffffffffffffffffffffff16815260200190815260200160002060008360040154815260200190815260200160002081905550606960008260010160019054906101000a900473ffffffffffffffffffffffffffffffffffffffff1673ffffffffffffffffffffffffffffffffffffffff1673ffffffffffffffffffffffffffffffffffffffff16815260200190815260200160002060008260030160009054906101000a900473ffffffffffffffffffffffffffffffffffffffff1673ffffffffffffffffffffffffffffffffffffffff1673ffffffffffffffffffffffffffffffffffffffff168152602001908152602001600020600081548092919061134090612110565b91905055505050565b60006066600083815260200190815260200160002060030160009054906101000a900473ffffffffffffffffffffffffffffffffffffffff169050919050565b6113916114fd565b73ffffffffffffffffffffffffffffffffffffffff166113af610ab2565b73ffffffffffffffffffffffffffffffffffffffff1614611405576040517f08c379a00000000000000000000000000000000000000000000000000000000081526004016113fc90611fb6565b60405180910390fd5b600073ffffffffffffffffffffffffffffffffffffffff168173ffffffffffffffffffffffffffffffffffffffff1603611474576040517f08c379a000000000000000000000000000000000000000000000000000000000815260040161146b9061224c565b60405180910390fd5b61147d81611505565b50565b6000806301e133806305f5e10085600701548561149d9190612139565b6114a7919061226c565b6114b191906122f5565b905060006127108286600601546114c8919061226c565b6114d291906122f5565b90506305f5e1008186600201546114e9919061226c565b6114f391906122f5565b9250505092915050565b600033905090565b6000603360009054906101000a900473ffffffffffffffffffffffffffffffffffffffff16905081603360006101000a81548173ffffffffffffffffffffffffffffffffffffffff021916908373ffffffffffffffffffffffffffffffffffffffff1602179055508173ffffffffffffffffffffffffffffffffffffffff168173ffffffffffffffffffffffffffffffffffffffff167f8be0079c531659141344cd1fd0a4f28419497f9722a3daafe3b4186f6b6457e060405160405180910390a35050565b86886000018190555060018860010160006101000a81548160ff021916908360048111156115fc576115fb611c19565b5b0217905550858860010160016101000a81548173ffffffffffffffffffffffffffffffffffffffff021916908373ffffffffffffffffffffffffffffffffffffffff160217905550838860020181905550828860030160006101000a81548173ffffffffffffffffffffffffffffffffffffffff021916908373ffffffffffffffffffffffffffffffffffffffff160217905550818860040181905550808860060181905550848860050160006101000a81548173ffffffffffffffffffffffffffffffffffffffff021916908373ffffffffffffffffffffffffffffffffffffffff1602179055504288600701819055505050505050505050565b60008060019054906101000a900460ff161561176f5760018260ff16148015611727575061172530611841565b155b611766576040517f08c379a000000000000000000000000000000000000000000000000000000000815260040161175d90612398565b60405180910390fd5b600090506117e3565b8160ff1660008054906101000a900460ff1660ff16106117c4576040517f08c379a00000000000000000000000000000000000000000000000000000000081526004016117bb90612398565b60405180910390fd5b816000806101000a81548160ff021916908360ff160217905550600190505b919050565b600060019054906101000a900460ff16611837576040517f08c379a000000000000000000000000000000000000000000000000000000000815260040161182e9061242a565b60405180910390fd5b61183f611864565b565b6000808273ffffffffffffffffffffffffffffffffffffffff163b119050919050565b600060019054906101000a900460ff166118b3576040517f08c379a00000000000000000000000000000000000000000000000000000000081526004016118aa9061242a565b60405180910390fd5b6118c36118be6114fd565b611505565b565b60405180610120016040528060008152602001600060048111156118ec576118eb611c19565b5b8152602001600073ffffffffffffffffffffffffffffffffffffffff16815260200160008152602001600073ffffffffffffffffffffffffffffffffffffffff16815260200160008152602001600073ffffffffffffffffffffffffffffffffffffffff16815260200160008152602001600081525090565b600080fd5b600080fd5b6000819050919050565b6119828161196f565b811461198d57600080fd5b50565b60008135905061199f81611979565b92915050565b6000602082840312156119bb576119ba611965565b5b60006119c984828501611990565b91505092915050565b6119db8161196f565b82525050565b60006020820190506119f660008301846119d2565b92915050565b600073ffffffffffffffffffffffffffffffffffffffff82169050919050565b6000611a27826119fc565b9050919050565b611a3781611a1c565b8114611a4257600080fd5b50565b600081359050611a5481611a2e565b92915050565b60008060408385031215611a7157611a70611965565b5b6000611a7f85828601611a45565b9250506020611a9085828601611990565b9150509250929050565b600080fd5b600080fd5b600080fd5b60008083601f840112611abf57611abe611a9a565b5b8235905067ffffffffffffffff811115611adc57611adb611a9f565b5b602083019150836001820283011115611af857611af7611aa4565b5b9250929050565b600080600080600060808688031215611b1b57611b1a611965565b5b6000611b2988828901611a45565b9550506020611b3a88828901611a45565b9450506040611b4b88828901611990565b935050606086013567ffffffffffffffff811115611b6c57611b6b61196a565b5b611b7888828901611aa9565b92509250509295509295909350565b60007fffffffff0000000000000000000000000000000000000000000000000000000082169050919050565b611bbc81611b87565b82525050565b6000602082019050611bd76000830184611bb3565b92915050565b600060208284031215611bf357611bf2611965565b5b6000611c0184828501611a45565b91505092915050565b611c138161196f565b82525050565b7f4e487b7100000000000000000000000000000000000000000000000000000000600052602160045260246000fd5b60058110611c5957611c58611c19565b5b50565b6000819050611c6a82611c48565b919050565b6000611c7a82611c5c565b9050919050565b611c8a81611c6f565b82525050565b611c9981611a1c565b82525050565b61012082016000820151611cb66000850182611c0a565b506020820151611cc96020850182611c81565b506040820151611cdc6040850182611c90565b506060820151611cef6060850182611c0a565b506080820151611d026080850182611c90565b5060a0820151611d1560a0850182611c0a565b5060c0820151611d2860c0850182611c90565b5060e0820151611d3b60e0850182611c0a565b50610100820151611d50610100850182611c0a565b50505050565b600061012082019050611d6c6000830184611c9f565b92915050565b611d7b81611a1c565b82525050565b6000602082019050611d966000830184611d72565b92915050565b60008060008060008060c08789031215611db957611db8611965565b5b6000611dc789828a01611a45565b9650506020611dd889828a01611a45565b9550506040611de989828a01611990565b9450506060611dfa89828a01611a45565b9350506080611e0b89828a01611990565b92505060a0611e1c89828a01611990565b9150509295509295509295565b60008060408385031215611e4057611e3f611965565b5b6000611e4e85828601611a45565b9250506020611e5f85828601611a45565b9150509250929050565b6000611e7482611a1c565b9050919050565b611e8481611e69565b8114611e8f57600080fd5b50565b600081359050611ea181611e7b565b92915050565b600060208284031215611ebd57611ebc611965565b5b6000611ecb84828501611e92565b91505092915050565b7f4e487b7100000000000000000000000000000000000000000000000000000000600052601160045260246000fd5b6000611f0e8261196f565b9150611f198361196f565b9250827fffffffffffffffffffffffffffffffffffffffffffffffffffffffffffffffff03821115611f4e57611f4d611ed4565b5b828201905092915050565b600082825260208201905092915050565b7f4f776e61626c653a2063616c6c6572206973206e6f7420746865206f776e6572600082015250565b6000611fa0602083611f59565b9150611fab82611f6a565b602082019050919050565b60006020820190508181036000830152611fcf81611f93565b9050919050565b600081519050611fe581611a2e565b92915050565b60006020828403121561200157612000611965565b5b600061200f84828501611fd6565b91505092915050565b60008115159050919050565b61202d81612018565b82525050565b60006040820190506120486000830185611d72565b6120556020830184612024565b9392505050565b7f43616c6c6572206d757374206265204d61726b657420636f6e74726163740000600082015250565b6000612092601e83611f59565b915061209d8261205c565b602082019050919050565b600060208201905081810360008301526120c181612085565b9050919050565b60006120d38261196f565b91507fffffffffffffffffffffffffffffffffffffffffffffffffffffffffffffffff820361210557612104611ed4565b5b600182019050919050565b600061211b8261196f565b91506000820361212e5761212d611ed4565b5b600182039050919050565b60006121448261196f565b915061214f8361196f565b92508282101561216257612161611ed4565b5b828203905092915050565b6000819050919050565b600060ff82169050919050565b6000819050919050565b60006121a96121a461219f8461216d565b612184565b612177565b9050919050565b6121b98161218e565b82525050565b60006020820190506121d460008301846121b0565b92915050565b7f4f776e61626c653a206e6577206f776e657220697320746865207a65726f206160008201527f6464726573730000000000000000000000000000000000000000000000000000602082015250565b6000612236602683611f59565b9150612241826121da565b604082019050919050565b6000602082019050818103600083015261226581612229565b9050919050565b60006122778261196f565b91506122828361196f565b9250817fffffffffffffffffffffffffffffffffffffffffffffffffffffffffffffffff04831182151516156122bb576122ba611ed4565b5b828202905092915050565b7f4e487b7100000000000000000000000000000000000000000000000000000000600052601260045260246000fd5b60006123008261196f565b915061230b8361196f565b92508261231b5761231a6122c6565b5b828204905092915050565b7f496e697469616c697a61626c653a20636f6e747261637420697320616c72656160008201527f647920696e697469616c697a6564000000000000000000000000000000000000602082015250565b6000612382602e83611f59565b915061238d82612326565b604082019050919050565b600060208201905081810360008301526123b181612375565b9050919050565b7f496e697469616c697a61626c653a20636f6e7472616374206973206e6f74206960008201527f6e697469616c697a696e67000000000000000000000000000000000000000000602082015250565b6000612414602b83611f59565b915061241f826123b8565b604082019050919050565b6000602082019050818103600083015261244381612407565b905091905056fea264697066735822122002fabcbcfc5fe1b7b403468b37653f87009bf250825b6b3dc7ca1e8e1a8996ff64736f6c634300080f0033",
  "linkReferences": {},
  "deployedLinkReferences": {}
}