{
  "_format": "hh-sol-artifact-1",
  "contractName": "LoanCenter",
  "sourceName": "contracts/protocol/Lending/LoanCenter.sol",
  "abi": [
    {
      "inputs": [],
      "stateMutability": "nonpayable",
      "type": "constructor"
    },
    {
      "anonymous": false,
      "inputs": [
        {
          "indexed": false,
          "internalType": "uint8",
          "name": "version",
          "type": "uint8"
        }
      ],
      "name": "Initialized",
      "type": "event"
    },
    {
      "anonymous": false,
      "inputs": [
        {
          "indexed": true,
          "internalType": "address",
          "name": "previousOwner",
          "type": "address"
        },
        {
          "indexed": true,
          "internalType": "address",
          "name": "newOwner",
          "type": "address"
        }
      ],
      "name": "OwnershipTransferred",
      "type": "event"
    },
    {
      "inputs": [
        {
          "internalType": "uint256",
          "name": "loanId",
          "type": "uint256"
        }
      ],
      "name": "activateLoan",
      "outputs": [],
      "stateMutability": "nonpayable",
      "type": "function"
    },
    {
      "inputs": [
        {
          "internalType": "address",
          "name": "collection",
          "type": "address"
        }
      ],
      "name": "approveNFTCollection",
      "outputs": [],
      "stateMutability": "nonpayable",
      "type": "function"
    },
    {
      "inputs": [
        {
          "internalType": "uint256",
          "name": "loanId",
          "type": "uint256"
        },
        {
          "internalType": "address",
          "name": "user",
          "type": "address"
        },
        {
          "internalType": "uint256",
          "name": "bid",
          "type": "uint256"
        }
      ],
      "name": "auctionLoan",
      "outputs": [],
      "stateMutability": "nonpayable",
      "type": "function"
    },
    {
      "inputs": [
        {
          "internalType": "address",
          "name": "collection",
          "type": "address"
        },
        {
          "internalType": "uint256",
          "name": "maxCollaterization",
          "type": "uint256"
        }
      ],
      "name": "changeCollectionMaxCollaterization",
      "outputs": [],
      "stateMutability": "nonpayable",
      "type": "function"
    },
    {
      "inputs": [
        {
          "internalType": "address",
          "name": "borrower",
          "type": "address"
        },
        {
          "internalType": "address",
          "name": "reserve",
          "type": "address"
        },
        {
          "internalType": "uint256",
          "name": "amount",
          "type": "uint256"
        },
        {
          "internalType": "uint256",
          "name": "maxLTV",
          "type": "uint256"
        },
        {
          "internalType": "uint256",
          "name": "boost",
          "type": "uint256"
        },
        {
          "internalType": "uint256",
          "name": "genesisNFTId",
          "type": "uint256"
        },
        {
          "internalType": "address",
          "name": "nftAddress",
          "type": "address"
        },
        {
          "internalType": "uint256[]",
          "name": "nftTokenIds",
          "type": "uint256[]"
        },
        {
          "internalType": "uint256",
          "name": "borrowRate",
          "type": "uint256"
        }
      ],
      "name": "createLoan",
      "outputs": [
        {
          "internalType": "uint256",
          "name": "",
          "type": "uint256"
        }
      ],
      "stateMutability": "nonpayable",
      "type": "function"
    },
    {
      "inputs": [
        {
          "internalType": "address",
          "name": "user",
          "type": "address"
        },
        {
          "internalType": "address",
          "name": "collection",
          "type": "address"
        }
      ],
      "name": "getActiveLoansCount",
      "outputs": [
        {
          "internalType": "uint256",
          "name": "",
          "type": "uint256"
        }
      ],
      "stateMutability": "view",
      "type": "function"
    },
    {
      "inputs": [
        {
          "internalType": "address",
          "name": "collection",
          "type": "address"
        }
      ],
      "name": "getCollectionMaxCollaterization",
      "outputs": [
        {
          "internalType": "uint256",
          "name": "",
          "type": "uint256"
        }
      ],
      "stateMutability": "view",
      "type": "function"
    },
    {
      "inputs": [
        {
          "internalType": "uint256",
          "name": "loanId",
          "type": "uint256"
        }
      ],
      "name": "getLoan",
      "outputs": [
        {
          "components": [
            {
              "internalType": "uint256",
              "name": "loanId",
              "type": "uint256"
            },
            {
              "internalType": "enum DataTypes.LoanState",
              "name": "state",
              "type": "uint8"
            },
            {
              "internalType": "address",
              "name": "borrower",
              "type": "address"
            },
            {
              "internalType": "uint256",
              "name": "amount",
              "type": "uint256"
            },
            {
              "internalType": "uint256",
              "name": "maxLTV",
              "type": "uint256"
            },
            {
              "internalType": "uint256",
              "name": "boost",
              "type": "uint256"
            },
            {
              "internalType": "uint256",
              "name": "genesisNFTId",
              "type": "uint256"
            },
            {
              "internalType": "address",
              "name": "nftAsset",
              "type": "address"
            },
            {
              "internalType": "uint256[]",
              "name": "nftTokenIds",
              "type": "uint256[]"
            },
            {
              "internalType": "address",
              "name": "pool",
              "type": "address"
            },
            {
              "internalType": "uint256",
              "name": "borrowRate",
              "type": "uint256"
            },
            {
              "internalType": "uint256",
              "name": "initTimestamp",
              "type": "uint256"
            },
            {
              "internalType": "uint256",
              "name": "debtTimestamp",
              "type": "uint256"
            },
            {
              "internalType": "address",
              "name": "auctioner",
              "type": "address"
            },
            {
              "internalType": "address",
              "name": "liquidator",
              "type": "address"
            },
            {
              "internalType": "uint256",
              "name": "auctionMaxBid",
              "type": "uint256"
            },
            {
              "internalType": "uint256",
              "name": "auctionStartTimestamp",
              "type": "uint256"
            }
          ],
          "internalType": "struct DataTypes.LoanData",
          "name": "",
          "type": "tuple"
        }
      ],
      "stateMutability": "view",
      "type": "function"
    },
    {
      "inputs": [
        {
          "internalType": "uint256",
          "name": "loanId",
          "type": "uint256"
        }
      ],
      "name": "getLoanBoost",
      "outputs": [
        {
          "internalType": "uint256",
          "name": "",
          "type": "uint256"
        }
      ],
      "stateMutability": "view",
      "type": "function"
    },
    {
      "inputs": [
        {
          "internalType": "uint256",
          "name": "loanId",
          "type": "uint256"
        }
      ],
      "name": "getLoanDebt",
      "outputs": [
        {
          "internalType": "uint256",
          "name": "",
          "type": "uint256"
        }
      ],
      "stateMutability": "view",
      "type": "function"
    },
    {
      "inputs": [
        {
          "internalType": "uint256",
          "name": "loanId",
          "type": "uint256"
        }
      ],
      "name": "getLoanInterest",
      "outputs": [
        {
          "internalType": "uint256",
          "name": "",
          "type": "uint256"
        }
      ],
      "stateMutability": "view",
      "type": "function"
    },
    {
      "inputs": [
        {
          "internalType": "uint256",
          "name": "loanId",
          "type": "uint256"
        }
      ],
      "name": "getLoanLendingPool",
      "outputs": [
        {
          "internalType": "address",
          "name": "",
          "type": "address"
        }
      ],
      "stateMutability": "view",
      "type": "function"
    },
    {
      "inputs": [
        {
          "internalType": "uint256",
          "name": "loanId",
          "type": "uint256"
        },
        {
          "internalType": "bytes32",
          "name": "request",
          "type": "bytes32"
        },
        {
          "components": [
            {
              "internalType": "uint8",
              "name": "v",
              "type": "uint8"
            },
            {
              "internalType": "bytes32",
              "name": "r",
              "type": "bytes32"
            },
            {
              "internalType": "bytes32",
              "name": "s",
              "type": "bytes32"
            },
            {
              "internalType": "bytes32",
              "name": "request",
              "type": "bytes32"
            },
            {
              "internalType": "uint256",
              "name": "deadline",
              "type": "uint256"
            },
            {
              "internalType": "bytes",
              "name": "payload",
              "type": "bytes"
            }
          ],
          "internalType": "struct Trustus.TrustusPacket",
          "name": "packet",
          "type": "tuple"
        }
      ],
      "name": "getLoanMaxETHCollateral",
      "outputs": [
        {
          "internalType": "uint256",
          "name": "",
          "type": "uint256"
        }
      ],
      "stateMutability": "view",
      "type": "function"
    },
    {
      "inputs": [
        {
          "internalType": "uint256",
          "name": "loanId",
          "type": "uint256"
        }
      ],
      "name": "getLoanTokenAddress",
      "outputs": [
        {
          "internalType": "address",
          "name": "",
          "type": "address"
        }
      ],
      "stateMutability": "view",
      "type": "function"
    },
    {
      "inputs": [
        {
          "internalType": "uint256",
          "name": "loanId",
          "type": "uint256"
        }
      ],
      "name": "getLoanTokenIds",
      "outputs": [
        {
          "internalType": "uint256[]",
          "name": "",
          "type": "uint256[]"
        }
      ],
      "stateMutability": "view",
      "type": "function"
    },
    {
      "inputs": [],
      "name": "getLoansCount",
      "outputs": [
        {
          "internalType": "uint256",
          "name": "",
          "type": "uint256"
        }
      ],
      "stateMutability": "view",
      "type": "function"
    },
    {
      "inputs": [
        {
          "internalType": "address",
          "name": "nftAddress",
          "type": "address"
        },
        {
          "internalType": "uint256",
          "name": "nftTokenId",
          "type": "uint256"
        }
      ],
      "name": "getNFTLoanId",
      "outputs": [
        {
          "internalType": "uint256",
          "name": "",
          "type": "uint256"
        }
      ],
      "stateMutability": "view",
      "type": "function"
    },
    {
      "inputs": [
        {
          "internalType": "contract IAddressesProvider",
          "name": "addressesProvider",
          "type": "address"
        },
        {
          "internalType": "uint256",
          "name": "maxCollaterization",
          "type": "uint256"
        }
      ],
      "name": "initialize",
      "outputs": [],
      "stateMutability": "nonpayable",
      "type": "function"
    },
    {
      "inputs": [
        {
          "internalType": "uint256",
          "name": "loanId",
          "type": "uint256"
        }
      ],
      "name": "liquidateLoan",
      "outputs": [],
      "stateMutability": "nonpayable",
      "type": "function"
    },
    {
      "inputs": [
        {
          "internalType": "address",
          "name": "",
          "type": "address"
        },
        {
          "internalType": "address",
          "name": "",
          "type": "address"
        },
        {
          "internalType": "uint256",
          "name": "",
          "type": "uint256"
        },
        {
          "internalType": "bytes",
          "name": "",
          "type": "bytes"
        }
      ],
      "name": "onERC721Received",
      "outputs": [
        {
          "internalType": "bytes4",
          "name": "",
          "type": "bytes4"
        }
      ],
      "stateMutability": "pure",
      "type": "function"
    },
    {
      "inputs": [],
      "name": "owner",
      "outputs": [
        {
          "internalType": "address",
          "name": "",
          "type": "address"
        }
      ],
      "stateMutability": "view",
      "type": "function"
    },
    {
      "inputs": [],
      "name": "renounceOwnership",
      "outputs": [],
      "stateMutability": "nonpayable",
      "type": "function"
    },
    {
      "inputs": [
        {
          "internalType": "uint256",
          "name": "loanId",
          "type": "uint256"
        }
      ],
      "name": "repayLoan",
      "outputs": [],
      "stateMutability": "nonpayable",
      "type": "function"
    },
    {
      "inputs": [
        {
          "internalType": "address",
          "name": "newOwner",
          "type": "address"
        }
      ],
      "name": "transferOwnership",
      "outputs": [],
      "stateMutability": "nonpayable",
      "type": "function"
    },
    {
      "inputs": [
        {
          "internalType": "uint256",
          "name": "loanId",
          "type": "uint256"
        },
        {
          "internalType": "uint256",
          "name": "newAmount",
          "type": "uint256"
        }
      ],
      "name": "updateLoanAmount",
      "outputs": [],
      "stateMutability": "nonpayable",
      "type": "function"
    },
    {
      "inputs": [
        {
          "internalType": "uint256",
          "name": "loanId",
          "type": "uint256"
        },
        {
          "internalType": "address",
          "name": "user",
          "type": "address"
        },
        {
          "internalType": "uint256",
          "name": "bid",
          "type": "uint256"
        }
      ],
      "name": "updateLoanAuctionBid",
      "outputs": [],
      "stateMutability": "nonpayable",
      "type": "function"
    },
    {
      "inputs": [
        {
          "internalType": "uint256",
          "name": "loanId",
          "type": "uint256"
        },
        {
          "internalType": "uint256",
          "name": "newDebtTimestamp",
          "type": "uint256"
        }
      ],
      "name": "updateLoanDebtTimestamp",
      "outputs": [],
      "stateMutability": "nonpayable",
      "type": "function"
    }
  ],
  "bytecode": "0x608080604052346100c1576000549060ff8260081c1661006f575060ff80821610610034575b604051611e7390816100c78239f35b60ff90811916176000557f7f26b83ff96e1f2b6a682f133852f6798a09c465da95921460cefb3847402498602060405160ff8152a138610025565b62461bcd60e51b815260206004820152602760248201527f496e697469616c697a61626c653a20636f6e747261637420697320696e697469604482015266616c697a696e6760c81b6064820152608490fd5b600080fdfe60806040526004361015610013575b600080fd5b60003560e01c80630bbf145b1461022f5780630c2452dd146102265780630c97200a1461021d57806313e4cf2e14610214578063150b7a021461020b5780632af16c4e14610202578063328ef332146101f95780633e4d92e2146101f05780633f4b8d42146101e75780634644004d146101de5780634b496b09146101d55780634dbb2b7b146101cc578063504006ca146101c35780636d3723a7146101ba578063715018a6146101b157806371b60aa2146101a85780637896c0ea1461019f5780638a2ec8bb146101965780638da5cb5b1461018d57806394eb3254146101845780639545773c1461017b578063ab7b1c8914610172578063ccdd9f5d14610169578063ccff44f114610160578063cd6dc68714610157578063e7d892bf1461014e5763f2fde38b1461014657600080fd5b61000e611418565b5061000e6113a1565b5061000e6112ae565b5061000e61124a565b5061000e611163565b5061000e611007565b5061000e610fa3565b5061000e610f73565b5061000e610f49565b5061000e610ef8565b5061000e610e77565b5061000e610e1f565b5061000e610dbd565b5061000e610d24565b5061000e610c63565b5061000e610a75565b5061000e6109b4565b5061000e6108b8565b5061000e61084c565b5061000e61073d565b5061000e6106f9565b5061000e6105b8565b5061000e610549565b5061000e61035c565b5061000e61033d565b5061000e6102e6565b503461000e57602036600319011261000e57600435600090808252606660205260ff60016040842001541660068110156102c15760406102b0936102766002931515611afe565b838152606660205261028b8282204290611da8565b938152606660205220015481018091116102b4575b6040519081529081906020820190565b0390f35b6102bc6118cf565b6102a0565b634e487b7160e01b83526021600452602483fd5b6001600160a01b0381160361000e57565b503461000e57604036600319011261000e57600435610304816102d5565b60018060a01b0316600052606560205260406000206024356000526020526020604060002054604051908152f35b600091031261000e57565b503461000e57600036600319011261000e576020606754604051908152f35b503461000e5760031960603682011261000e576004356044359167ffffffffffffffff831161000e5760c090833603011261000e5760048161046e6102b0946103d26103c260016103ba6102a0986000526066602052604060002090565b015460ff1690565b6103cb81610b09565b1515611afe565b6068546001600160a01b031660405163246bbf5360e21b81526020958693928491839182905afa90811561053c575b60009161050f575b506104316006610423876000526066602052604060002090565b01546001600160a01b031690565b6007610447876000526066602052604060002090565b019260405195869485938493631826a26360e31b8552600401916024359160048601611ccf565b03916001600160a01b03165afa928315610502575b6000936104cd575b50508060046104bf60036104ac6104c7956000526066602052604060002090565b0154926000526066602052604060002090565b015490611d7d565b90611d8a565b6104c792935090816104f392903d106104fb575b6104eb8183611689565b810190611c9f565b91903861048b565b503d6104e1565b61050a6116c3565b610483565b61052f9150833d8511610535575b6105278183611689565b8101906116ab565b38610409565b503d61051d565b6105446116c3565b610401565b503461000e57608036600319011261000e576105666004356102d5565b6105716024356102d5565b60643567ffffffffffffffff80821161000e573660238301121561000e57816004013590811161000e573691016024011161000e57604051630a85bd0160e11b8152602090f35b503461000e5760208060031936011261000e576004356105d7816102d5565b60018060a01b03828160685416916040519361061a826302690e7760e11b9687815285816004818a5afa9081156106ec575b6000916106cf575b501633146116d0565b169260046040518094819382525afa9283156106c2575b6000936106a3575b5050803b1561000e5760405163a22cb46560e01b81526001600160a01b038316600482015260016024820152906000908290604490829084905af18015610696575b61068157005b8061068e61069492611668565b80610332565b005b61069e6116c3565b61067b565b6106ba929350803d10610535576105278183611689565b903880610639565b6106ca6116c3565b610631565b6106e69150863d8811610535576105278183611689565b38610611565b6106f46116c3565b610609565b503461000e57604036600319011261000e57600435610717816102d5565b61071f6114aa565b6001600160a01b03166000908152606a602052604090206024359055005b503461000e57604036600319011261000e5760043561079060018060a01b03600460208260685416604051928380926302690e7760e11b82525afa908115610804575b6000916107ec57501633146116d0565b80600052606660205260ff6001604060002001541660068110156107d6576107b9901515611afe565b60026107d2602435926000526066602052604060002090565b0155005b634e487b7160e01b600052602160045260246000fd5b6106e6915060203d8111610535576105278183611689565b61080c6116c3565b610780565b6020908160408183019282815285518094520193019160005b828110610838575050505090565b83518552938101939281019260010161082a565b503461000e57602036600319011261000e5760043580600052606660205260ff6001604060002001541660068110156107d65760076108a66102b0936108966108ac941515611afe565b6000526066602052604060002090565b01611b8a565b60405191829182610811565b503461000e5760208060031936011261000e5761095f9060018060a01b0361090d816004848260685416604051928380926302690e7760e11b82525afa908115610984575b60009161096d57501633146116d0565b600435600052606682526069604060002092826001850161093581600260ff19825416179055565b5460081c1660005252600660406000209201541660018060a01b0316600052602052604060002090565b61096981546118e6565b9055005b6106e69150853d8711610535576105278183611689565b61098c6116c3565b6108fd565b606090600319011261000e57600435906024356109ad816102d5565b9060443590565b503461000e576109c336610991565b9091610a0260018060a01b03600460208260685416604051928380926302690e7760e11b82525afa908115610804576000916107ec57501633146116d0565b6000526066602052610a67604060002092610a2760018501600460ff19825416179055565b600c840180546001600160a01b0319166001600160a01b038316179055600d840180546001600160a01b0319166001600160a01b03909216919091179055565b600e82015542600f90910155005b503461000e57604036600319011261000e57600435610ac760018060a01b03600460208260685416604051928380926302690e7760e11b82525afa908115610804576000916107ec57501633146116d0565b80600052606660205260ff6001604060002001541660068110156107d657610af0901515611afe565b600b6107d2602435926000526066602052604060002090565b600611156107d657565b9060068210156107d65752565b90815180825260208080930193019160005b828110610b40575050505090565b835185529381019392810192600101610b32565b6020815281516020820152610b7160208301516040830190610b13565b60408201516001600160a01b0316606082015260608201516080820152608082015160a082015260a082015160c082015260c082015160e082015260e0820151610bc8610100918284019060018060a01b03169052565b8201519161022090610be7610120948386860152610240850190610b20565b938101516001600160a01b031661014084810191909152810151610160908185015281015161018090818501528101516101a09081850152810151610c396101c0918286019060018060a01b03169052565b8101516001600160a01b03166101e084810191909152810151906102009182850152015191015290565b503461000e57602036600319011261000e576102b0610d18610d13600435610c896118ae565b6102006000918281528260208201528260408201528260608201528260808201528260a08201528260c08201528260e0820152606061010082015282610120820152826101408201528261016082015282610180820152826101a0820152826101c0820152826101e082015201526108966103c260016103ba846000526066602052604060002090565b611ba5565b60405191829182610b54565b503461000e5761012036600319011261000e57600435610d43816102d5565b602435610d4f816102d5565b60c43591610d5c836102d5565b60e4359067ffffffffffffffff9081831161000e573660238401121561000e57826004013591821161000e573660248360051b8501011161000e576102b0946102a09460246101043595019260a4359160843591606435916044359161171c565b503461000e57600080600319360112610e1c57610dd86114aa565b603380546001600160a01b0319811690915581906001600160a01b03167f8be0079c531659141344cd1fd0a4f28419497f9722a3daafe3b4186f6b6457e08280a380f35b80fd5b503461000e57602036600319011261000e57600435600090808252606660205260ff60016040842001541660068110156102c1576102b0926102a092610e686040931515611afe565b81526066602052204290611da8565b503461000e57600e610e8836610991565b9291610ec760018060a01b03600460208260685416604051928380926302690e7760e11b82525afa908115610804576000916107ec57501633146116d0565b60005260666020526107d2604060002091600d83019060018060a01b03166001600160601b0360a01b825416179055565b503461000e57602036600319011261000e5760043580600052606660205260ff600160406000200154169060068210156107d657610f3f6004916108966020941515611afe565b0154604051908152f35b503461000e57600036600319011261000e576033546040516001600160a01b039091168152602090f35b503461000e57602036600319011261000e576020610f9b600435610f96816102d5565b611e11565b604051908152f35b503461000e57604036600319011261000e576020610ffe600435610fc6816102d5565b60243590610fd3826102d5565b60018060a01b03166000526069835260406000209060018060a01b0316600052602052604060002090565b54604051908152f35b503461000e57602036600319011261000e576068546040516302690e7760e11b81526001600160a01b039161105d9183916020908290600490829086165afa908115610804576000916107ec57501633146116d0565b60043560005260666020526040600020600181818093019361108685600360ff19825416179055565b60006006600784019301945b6110fc575b85546110f29086906110dc906110ce9060081c6001600160a01b03165b6001600160a01b0316600090815260696020526040902090565b91546001600160a01b031690565b60018060a01b0316600052602052604060002090565b6109698154611ae3565b825481101561115e5761115890600061115261112d8589541660018060a01b03166000526065602052604060002090565b61114461113a8589611abd565b90549060031b1c90565b600052602052604060002090565b556118e6565b83611092565b611097565b503461000e57602036600319011261000e576068546040516302690e7760e11b81526001600160a01b03916111b99183916020908290600490829086165afa908115610804576000916107ec57501633146116d0565b6004356000526066602052604060002060018181809301936111e285600560ff19825416179055565b60006006600784019301945b6112135785546110f29086906110dc906110ce9060081c6001600160a01b03166110b4565b825481101561115e5761124490600061115261112d8589541660018060a01b03166000526065602052604060002090565b836111ee565b503461000e57602036600319011261000e5760043580600052606660205260ff6001604060002001541660068110156107d65760086104236102b093610896611294941515611afe565b6040516001600160a01b0390911681529081906020820190565b503461000e57604036600319011261000e576004356112cc816102d5565b611315600054916112f460ff8460081c161580948195611393575b8115611373575b5061154b565b82611307600160ff196000541617600055565b61135a575b602435906115ae565b61131b57005b61132b61ff001960005416600055565b604051600181527f7f26b83ff96e1f2b6a682f133852f6798a09c465da95921460cefb384740249890602090a1005b61136e61010061ff00196000541617600055565b61130c565b303b15915081611385575b50386112ee565b6001915060ff16143861137e565b600160ff82161091506112e7565b503461000e57602036600319011261000e5760043580600052606660205260ff600160406000200154169060068210156107d6576113e36102b0921515611afe565b60009081526066602052604090206001600160a01b03906006015460405191166001600160a01b031681529081906020820190565b503461000e57602036600319011261000e57600435611436816102d5565b61143e6114aa565b6001600160a01b038116156114565761069490611502565b60405162461bcd60e51b815260206004820152602660248201527f4f776e61626c653a206e6577206f776e657220697320746865207a65726f206160448201526564647265737360d01b6064820152608490fd5b6033546001600160a01b031633036114be57565b606460405162461bcd60e51b815260206004820152602060248201527f4f776e61626c653a2063616c6c6572206973206e6f7420746865206f776e65726044820152fd5b603380546001600160a01b039283166001600160a01b0319821681179092559091167f8be0079c531659141344cd1fd0a4f28419497f9722a3daafe3b4186f6b6457e0600080a3565b1561155257565b60405162461bcd60e51b815260206004820152602e60248201527f496e697469616c697a61626c653a20636f6e747261637420697320616c72656160448201526d191e481a5b9a5d1a585b1a5e995960921b6064820152608490fd5b6115c860ff60005460081c166115c3816115f1565b6115f1565b6115d133611502565b60018060a01b03166001600160601b0360a01b6068541617606855606b55565b156115f857565b60405162461bcd60e51b815260206004820152602b60248201527f496e697469616c697a61626c653a20636f6e7472616374206973206e6f74206960448201526a6e697469616c697a696e6760a81b6064820152608490fd5b50634e487b7160e01b600052604160045260246000fd5b67ffffffffffffffff811161167c57604052565b611684611651565b604052565b90601f8019910116810190811067ffffffffffffffff82111761167c57604052565b9081602091031261000e57516116c0816102d5565b90565b506040513d6000823e3d90fd5b156116d757565b60405162461bcd60e51b815260206004820152601e60248201527f43616c6c6572206d757374206265204d61726b657420636f6e747261637400006044820152606490fd5b9894929091889492979697600160a01b600190039a8b606854169b604051906302690e7760e11b82528160209e8f938491815a91600492fa90811593611773946118a1575b600092611884575b50501633146116d0565b60679b8c5490816000526066815260406000209067ffffffffffffffff8a11611877575b8960051b6040519a6117ab8383018d611689565b8b528c01818b0136821161000e579b9a99979593918e99979593918e5b81811061184a575050506117dc9b50611963565b60005b8381106118065750505050806118006117fb6116c093546118e6565b606755565b54611937565b61184590855461115261182b8660018060a01b03166000526065602052604060002090565b611836848988611919565b35600052602052604060002090565b6117df565b91809496989a9c9d9e81929496989a9c5083358152019101918f9a989694929d9c9b99979593919d6117c8565b61187f611651565b611797565b61189a9250803d10610535576105278183611689565b388f611769565b6118a96116c3565b611761565b60405190610220820182811067ffffffffffffffff82111761167c57604052565b50634e487b7160e01b600052601160045260246000fd5b60019060001981146118f6570190565b6118fe6118cf565b0190565b50634e487b7160e01b600052603260045260246000fd5b919081101561192a575b60051b0190565b611932611902565b611923565b60001981019190821161194657565b61194e6118cf565b565b8181029291811591840414171561194657565b9997936119d595919996929793998b5560019788808d0191825490610100600160a81b039060081b16906affffffffffffffffffffff60a81b161717905560028b015560038a015560048901556005880155600687019060018060a01b03166001600160601b0360a01b825416179055565b6007850181519167ffffffffffffffff8311611ab0575b680100000000000000008311611aa3575b8154838355808410611a78575b50611a1f602080920192600052602060002090565b9060005b848110611a675750505050506009840191909155506008820180546001600160a01b0319166001600160a01b0390921691909117905542600a820155600b42910155565b835183820155928101928501611a23565b600083815285856020832093840193015b838110611a9857505050611a0a565b828155018690611a89565b611aab611651565b6119fd565b611ab8611651565b6119ec565b8054821015611ad6575b60005260206000200190600090565b611ade611902565b611ac7565b8015611af1575b6000190190565b611af96118cf565b611aea565b15611b0557565b60405162461bcd60e51b81526020600482015260146024820152732637b0b7103237b2b9903737ba1032bc34b9ba1760611b6044820152606490fd5b60068210156107d65752565b90815480825260208092019260005281600020916000905b828210611b73575050505090565b835485529384019360019384019390910190611b65565b9061194e611b9e9260405193848092611b4d565b0383611689565b90600f611bb06118ae565b9280548452611be06001820154611bcd60ff821660208801611b41565b60081c6001600160a01b03166040860152565b6002810154606085015260038101546080850152600481015460a0850152600581015460c085015260068101546001600160a01b031660e0850152611c2760078201611b8a565b61010085015260088101546001600160a01b03166101208501526009810154610140850152600a810154610160850152600b810154610180850152600c8101546001600160a01b03166101a0850152600d8101546001600160a01b03166101c0850152600e8101546101e08501520154610200830152565b9081602091031261000e575190565b908060209392818452848401376000828201840152601f01601f1916010190565b91611cf29194939460018060a01b03168352608060208401526080830190611b4d565b9260408201526060818403910152803560ff811680910361000e5782526020810135602083015260408101356040830152606081013560608301526080810135608083015260a0810135601e198236030181121561000e57016020813591019067ffffffffffffffff811161000e57803603821361000e5760c0838160a06116c09601520191611cae565b9190820180921161194657565b8161138819048111158215171561000e576127109102611388010490565b611df39061070864496cebb8009361070990818102918183041490151715611e04575b0490600b611de26002830154600984015490611950565b9101548203918211611df757611950565b0490565b611dff6118cf565b611950565b611e0c6118cf565b611dcb565b6001600160a01b03166000908152606a602052604090205415611e375760406000205490565b606b549056fea2646970667358221220bbcfa900411d0d40056ee5b55c2b2b0938297102de54ce854c234034b88a83b164736f6c63430008110033",
  "linkReferences": {},
  "deployedLinkReferences": {}
}