{
  "_format": "hh-sol-artifact-1",
  "contractName": "LoanCenter",
  "sourceName": "contracts/protocol/LoanCenter.sol",
  "abi": [
    {
      "anonymous": false,
      "inputs": [
        {
          "indexed": false,
          "internalType": "uint8",
          "name": "version",
          "type": "uint8"
        }
      ],
      "name": "Initialized",
      "type": "event"
    },
    {
      "anonymous": false,
      "inputs": [
        {
          "indexed": true,
          "internalType": "address",
          "name": "previousOwner",
          "type": "address"
        },
        {
          "indexed": true,
          "internalType": "address",
          "name": "newOwner",
          "type": "address"
        }
      ],
      "name": "OwnershipTransferred",
      "type": "event"
    },
    {
      "inputs": [
        {
          "internalType": "uint256",
          "name": "loanId",
          "type": "uint256"
        }
      ],
      "name": "activateLoan",
      "outputs": [],
      "stateMutability": "nonpayable",
      "type": "function"
    },
    {
      "inputs": [
        {
          "internalType": "address",
          "name": "collection",
          "type": "address"
        }
      ],
      "name": "approveNFTCollection",
      "outputs": [],
      "stateMutability": "nonpayable",
      "type": "function"
    },
    {
      "inputs": [
        {
          "internalType": "address",
          "name": "borrower",
          "type": "address"
        },
        {
          "internalType": "address",
          "name": "reserve",
          "type": "address"
        },
        {
          "internalType": "uint256",
          "name": "amount",
          "type": "uint256"
        },
        {
          "internalType": "uint256",
          "name": "maxLTV",
          "type": "uint256"
        },
        {
          "internalType": "uint256",
          "name": "boost",
          "type": "uint256"
        },
        {
          "internalType": "address",
          "name": "nftAddress",
          "type": "address"
        },
        {
          "internalType": "uint256",
          "name": "nftTokenID",
          "type": "uint256"
        },
        {
          "internalType": "uint256",
          "name": "borrowRate",
          "type": "uint256"
        }
      ],
      "name": "createLoan",
      "outputs": [
        {
          "internalType": "uint256",
          "name": "",
          "type": "uint256"
        }
      ],
      "stateMutability": "nonpayable",
      "type": "function"
    },
    {
      "inputs": [
        {
          "internalType": "uint256",
          "name": "loanId",
          "type": "uint256"
        }
      ],
      "name": "getLoan",
      "outputs": [
        {
          "components": [
            {
              "internalType": "uint256",
              "name": "loanId",
              "type": "uint256"
            },
            {
              "internalType": "enum DataTypes.LoanState",
              "name": "state",
              "type": "uint8"
            },
            {
              "internalType": "address",
              "name": "borrower",
              "type": "address"
            },
            {
              "internalType": "uint256",
              "name": "amount",
              "type": "uint256"
            },
            {
              "internalType": "uint256",
              "name": "maxLTV",
              "type": "uint256"
            },
            {
              "internalType": "uint256",
              "name": "boost",
              "type": "uint256"
            },
            {
              "internalType": "address",
              "name": "nftAsset",
              "type": "address"
            },
            {
              "internalType": "uint256",
              "name": "nftTokenId",
              "type": "uint256"
            },
            {
              "internalType": "address",
              "name": "reserve",
              "type": "address"
            },
            {
              "internalType": "uint256",
              "name": "borrowRate",
              "type": "uint256"
            },
            {
              "internalType": "uint256",
              "name": "initTimestamp",
              "type": "uint256"
            }
          ],
          "internalType": "struct DataTypes.LoanData",
          "name": "",
          "type": "tuple"
        }
      ],
      "stateMutability": "view",
      "type": "function"
    },
    {
      "inputs": [
        {
          "internalType": "uint256",
          "name": "loanId",
          "type": "uint256"
        }
      ],
      "name": "getLoanBoost",
      "outputs": [
        {
          "internalType": "uint256",
          "name": "",
          "type": "uint256"
        }
      ],
      "stateMutability": "view",
      "type": "function"
    },
    {
      "inputs": [
        {
          "internalType": "uint256",
          "name": "loanId",
          "type": "uint256"
        }
      ],
      "name": "getLoanDebt",
      "outputs": [
        {
          "internalType": "uint256",
          "name": "",
          "type": "uint256"
        }
      ],
      "stateMutability": "view",
      "type": "function"
    },
    {
      "inputs": [
        {
          "internalType": "uint256",
          "name": "loanId",
          "type": "uint256"
        }
      ],
      "name": "getLoanInterest",
      "outputs": [
        {
          "internalType": "uint256",
          "name": "",
          "type": "uint256"
        }
      ],
      "stateMutability": "view",
      "type": "function"
    },
    {
      "inputs": [
        {
          "internalType": "uint256",
          "name": "loanId",
          "type": "uint256"
        },
        {
          "internalType": "bytes32",
          "name": "request",
          "type": "bytes32"
        },
        {
          "components": [
            {
              "internalType": "uint8",
              "name": "v",
              "type": "uint8"
            },
            {
              "internalType": "bytes32",
              "name": "r",
              "type": "bytes32"
            },
            {
              "internalType": "bytes32",
              "name": "s",
              "type": "bytes32"
            },
            {
              "internalType": "bytes32",
              "name": "request",
              "type": "bytes32"
            },
            {
              "internalType": "uint256",
              "name": "deadline",
              "type": "uint256"
            },
            {
              "internalType": "bytes",
              "name": "payload",
              "type": "bytes"
            }
          ],
          "internalType": "struct Trustus.TrustusPacket",
          "name": "packet",
          "type": "tuple"
        }
      ],
      "name": "getLoanMaxETHCollateral",
      "outputs": [
        {
          "internalType": "uint256",
          "name": "",
          "type": "uint256"
        }
      ],
      "stateMutability": "view",
      "type": "function"
    },
    {
      "inputs": [
        {
          "internalType": "uint256",
          "name": "loanId",
          "type": "uint256"
        }
      ],
      "name": "getLoanTokenAddress",
      "outputs": [
        {
          "internalType": "address",
          "name": "",
          "type": "address"
        }
      ],
      "stateMutability": "view",
      "type": "function"
    },
    {
      "inputs": [
        {
          "internalType": "uint256",
          "name": "loanId",
          "type": "uint256"
        }
      ],
      "name": "getLoanTokenId",
      "outputs": [
        {
          "internalType": "uint256",
          "name": "",
          "type": "uint256"
        }
      ],
      "stateMutability": "view",
      "type": "function"
    },
    {
      "inputs": [],
      "name": "getLoansCount",
      "outputs": [
        {
          "internalType": "uint256",
          "name": "",
          "type": "uint256"
        }
      ],
      "stateMutability": "view",
      "type": "function"
    },
    {
      "inputs": [
        {
          "internalType": "address",
          "name": "nftAddress",
          "type": "address"
        },
        {
          "internalType": "uint256",
          "name": "nftTokenID",
          "type": "uint256"
        }
      ],
      "name": "getNFTLoanId",
      "outputs": [
        {
          "internalType": "uint256",
          "name": "",
          "type": "uint256"
        }
      ],
      "stateMutability": "view",
      "type": "function"
    },
    {
      "inputs": [
        {
          "internalType": "address",
          "name": "user",
          "type": "address"
        },
        {
          "internalType": "address",
          "name": "collection",
          "type": "address"
        }
      ],
      "name": "getUserCollectionActiveLoansCount",
      "outputs": [
        {
          "internalType": "uint256",
          "name": "",
          "type": "uint256"
        }
      ],
      "stateMutability": "view",
      "type": "function"
    },
    {
      "inputs": [
        {
          "internalType": "contract IAddressesProvider",
          "name": "addressesProvider",
          "type": "address"
        }
      ],
      "name": "initialize",
      "outputs": [],
      "stateMutability": "nonpayable",
      "type": "function"
    },
    {
      "inputs": [
        {
          "internalType": "uint256",
          "name": "loanId",
          "type": "uint256"
        }
      ],
      "name": "liquidateLoan",
      "outputs": [],
      "stateMutability": "nonpayable",
      "type": "function"
    },
    {
      "inputs": [
        {
          "internalType": "address",
          "name": "",
          "type": "address"
        },
        {
          "internalType": "address",
          "name": "",
          "type": "address"
        },
        {
          "internalType": "uint256",
          "name": "",
          "type": "uint256"
        },
        {
          "internalType": "bytes",
          "name": "",
          "type": "bytes"
        }
      ],
      "name": "onERC721Received",
      "outputs": [
        {
          "internalType": "bytes4",
          "name": "",
          "type": "bytes4"
        }
      ],
      "stateMutability": "pure",
      "type": "function"
    },
    {
      "inputs": [],
      "name": "owner",
      "outputs": [
        {
          "internalType": "address",
          "name": "",
          "type": "address"
        }
      ],
      "stateMutability": "view",
      "type": "function"
    },
    {
      "inputs": [],
      "name": "renounceOwnership",
      "outputs": [],
      "stateMutability": "nonpayable",
      "type": "function"
    },
    {
      "inputs": [
        {
          "internalType": "uint256",
          "name": "loanId",
          "type": "uint256"
        }
      ],
      "name": "repayLoan",
      "outputs": [],
      "stateMutability": "nonpayable",
      "type": "function"
    },
    {
      "inputs": [
        {
          "internalType": "address",
          "name": "newOwner",
          "type": "address"
        }
      ],
      "name": "transferOwnership",
      "outputs": [],
      "stateMutability": "nonpayable",
      "type": "function"
    }
  ],
  "bytecode": "0x60808060405234610016576113ce908161001c8239f35b600080fdfe60806040526004361015610013575b600080fd5b60003560e01c80630bbf145b146101a35780630c2452dd1461019a5780630c97200a1461019157806313e4cf2e14610188578063150b7a021461017f57806321fb91cb146101765780632af16c4e1461016d5780634644004d14610164578063504006ca1461015b578063715018a61461015257806371b60aa2146101495780638a2ec8bb146101405780638da5cb5b146101375780639b75247c1461012e578063ab7b1c8914610125578063b7ea175d1461011c578063c4d66de814610113578063ccdd9f5d1461010a578063e7d892bf146101015763f2fde38b146100f957600080fd5b61000e610e7c565b5061000e610e44565b5061000e610dc1565b5061000e610cd3565b5061000e610c6f565b5061000e610b4b565b5061000e61099f565b5061000e610975565b5061000e610945565b5061000e610917565b5061000e6108b2565b5061000e610792565b5061000e6105f7565b5061000e6104fb565b5061000e6104cb565b5061000e61045c565b5061000e61027a565b5061000e61025b565b5061000e610204565b503461000e57602036600319011261000e5760206101eb60043580600052606683526101d46040600020429061132c565b9060005260668352600260406000200154906112e3565b604051908152f35b6001600160a01b0381160361000e57565b503461000e57604036600319011261000e57600435610222816101f3565b60018060a01b0316600052606560205260406000206024356000526020526020604060002054604051908152f35b600091031261000e57565b503461000e57600036600319011261000e576020606754604051908152f35b503461000e5760031960603682011261000e576004356044359167ffffffffffffffff831161000e5760c090833603011261000e5760046103cc9161036d6103dc946102dc6102d060685460018060a01b031690565b6001600160a01b031690565b60405163246bbf5360e21b81526020958693928491839182905afa90811561044f575b600091610422575b5061032f6005610321876000526066602052604060002090565b01546001600160a01b031690565b6006610345876000526066602052604060002090565b0154604051633d638ac760e01b81529586948593849360049283019260243592908601611240565b03916001600160a01b03165afa928315610415575b6000936103e0575b50508060046103be60036103ab6103c6956000526066602052604060002090565b0154926000526066602052604060002090565b0154906112e3565b906112ef565b6040519081529081906020820190565b0390f35b6103c6929350908161040692903d1061040e575b6103fe8183611105565b810190611210565b91903861038a565b503d6103f4565b61041d61113f565b610382565b6104429150833d8511610448575b61043a8183611105565b810190611127565b38610307565b503d610430565b61045761113f565b6102ff565b503461000e57608036600319011261000e576104796004356101f3565b6104846024356101f3565b60643567ffffffffffffffff80821161000e573660238301121561000e57816004013590811161000e573691016024011161000e57604051630a85bd0160e11b8152602090f35b503461000e57602036600319011261000e5760043560005260666020526020600660406000200154604051908152f35b503461000e57602036600319011261000e576004803561051a816101f3565b610522610f0e565b6068546001600160a01b039182169160209161053e91166102d0565b60405163e7334fe560e01b815293849182905afa9182156105ea575b6000926105ca575b50803b1561000e5760405163a22cb46560e01b81526001600160a01b038316600482015260016024820152906000908290604490829084905af180156105bd575b6105aa575b005b806105b76105a8926110be565b80610250565b6105c561113f565b6105a3565b6105e391925060203d81116104485761043a8183611105565b9038610562565b6105f261113f565b61055a565b503461000e5760208060031936011261000e5761069f9060018060a01b0361064d8160048482606854166040519283809263e7334fe560e01b82525afa9081156106ca575b6000916106ad575b5016331461114c565b600435600052606682526069604060002092826001850161067581600260ff19825416179055565b5460081c1660005252600560406000209201541660018060a01b0316600052602052604060002090565b6106a981546111af565b9055005b6106c49150853d87116104485761043a8183611105565b38610644565b6106d261113f565b61063c565b9060058210156106e45752565b634e487b7160e01b600052602160045260246000fd5b91909161016081019280518252610719602082015160208401906106d7565b6040818101516001600160a01b031690830152606081810151908301526080808201519083015260a0808201519083015260c0808201516001600160a01b03169083015260e08181015190830152610100808201516001600160a01b031690830152610120808201519083015261014080910151910152565b503461000e57602036600319011261000e576103dc6040516107b3816110e8565b6000908181528160208201528160408201528160608201528160808201528160a08201528160c08201528160e08201526009610100928084840152604061012091808386015280610140809601526004358152606660205220906108976108186111f5565b9583548752610848600185015461083560ff821660208b01611204565b60081c6001600160a01b03166040890152565b6002840154606088015260038401546080880152600484015460a088015260058401546001600160a01b031660c0880152600684015460e088015260078401546001600160a01b031690870152565b600882015490850152015490820152604051918291826106fa565b503461000e57600080600319360112610914576108cd610f0e565b603380546001600160a01b031981169091556040519082906001600160a01b03167f8be0079c531659141344cd1fd0a4f28419497f9722a3daafe3b4186f6b6457e08284a3f35b80fd5b503461000e57602036600319011261000e57600435600052606660205260206101eb6040600020429061132c565b503461000e57602036600319011261000e5760043560005260666020526020600460406000200154604051908152f35b503461000e57600036600319011261000e576033546040516001600160a01b039091168152602090f35b503461000e5761010036600319011261000e57610b18610b13610afe6004356109c7816101f3565b610b0d6024356109d6816101f3565b60a435926109e3846101f3565b610ada60c43592610a2860018060a01b036004602082606854166040519283809263e7334fe560e01b82525afa908115610b3e575b600091610b26575016331461114c565b6067549283600052606660205260406000209384556001840190610a5382600160ff19825416179055565b8154610100600160a81b03191660089190911b610100600160a81b03161790556044356002840155606435600384015560843560048401556005830180546001600160a01b0319166001600160a01b0388161790556006830184905560e43560088401556007830180546001600160a01b0319166001600160a01b03909216919091179055565b60094291015560675493849360018060a01b03166000526065602052604060002090565b90600052602052604060002090565b556111af565b606755565b6103dc6103cc6067546111cb565b6106c4915060203d81116104485761043a8183611105565b610b4661113f565b610a18565b503461000e5760208060031936011261000e57610c4190610c2b610c1d610c0360018060a01b0393610baa8560048382606854166040519283809263e7334fe560e01b82525afa908115610c62575b600091610c4b575016331461114c565b6004356000526066815260406000206001810191610bcf83600360ff19825416179055565b6005820196875416600052606581526006604060002092015460005252600060408120555460018060a01b039060081c1690565b6001600160a01b0316600090815260696020526040902090565b91546001600160a01b031690565b60018060a01b0316600052602052604060002090565b6106a981546111e8565b6106c49150843d86116104485761043a8183611105565b610c6a61113f565b610b9a565b503461000e57604036600319011261000e576020610cca600435610c92816101f3565b60243590610c9f826101f3565b60018060a01b03166000526069835260406000209060018060a01b0316600052602052604060002090565b54604051908152f35b503461000e57602036600319011261000e57600435610cf1816101f3565b610d3560005491610d1960ff8460081c161580948195610db3575b8115610d93575b50610fb6565b82610d2c600160ff196000541617600055565b610d7a57611019565b610d3b57005b610d4b61ff001960005416600055565b604051600181527f7f26b83ff96e1f2b6a682f133852f6798a09c465da95921460cefb384740249890602090a1005b610d8e61010061ff00196000541617600055565b611019565b303b15915081610da5575b5038610d13565b6001915060ff161438610d9e565b600160ff8216109150610d0c565b503461000e5760208060031936011261000e57610c4190610c2b610c1d610c0360018060a01b0393610e1f8560048382606854166040519283809263e7334fe560e01b82525afa908115610c6257600091610c4b575016331461114c565b6004356000526066815260406000206001810191610bcf83600460ff19825416179055565b503461000e57602036600319011261000e576004356000526066602052602060018060a01b0360056040600020015416604051908152f35b503461000e57602036600319011261000e57600435610e9a816101f3565b610ea2610f0e565b6001600160a01b03811615610eba576105a890610f66565b60405162461bcd60e51b815260206004820152602660248201527f4f776e61626c653a206e6577206f776e657220697320746865207a65726f206160448201526564647265737360d01b6064820152608490fd5b6033546001600160a01b03163303610f2257565b606460405162461bcd60e51b815260206004820152602060248201527f4f776e61626c653a2063616c6c6572206973206e6f7420746865206f776e65726044820152fd5b6033549060018060a01b0380911691826bffffffffffffffffffffffff60a01b821617603355167f8be0079c531659141344cd1fd0a4f28419497f9722a3daafe3b4186f6b6457e06000604051a3565b15610fbd57565b60405162461bcd60e51b815260206004820152602e60248201527f496e697469616c697a61626c653a20636f6e747261637420697320616c72656160448201526d191e481a5b9a5d1a585b1a5e995960921b6064820152608490fd5b61103360ff60005460081c1661102e8161105e565b61105e565b61103c33610f66565b60018060a01b03166bffffffffffffffffffffffff60a01b6068541617606855565b1561106557565b60405162461bcd60e51b815260206004820152602b60248201527f496e697469616c697a61626c653a20636f6e7472616374206973206e6f74206960448201526a6e697469616c697a696e6760a81b6064820152608490fd5b67ffffffffffffffff81116110d257604052565b634e487b7160e01b600052604160045260246000fd5b610160810190811067ffffffffffffffff8211176110d257604052565b90601f8019910116810190811067ffffffffffffffff8211176110d257604052565b9081602091031261000e575161113c816101f3565b90565b506040513d6000823e3d90fd5b1561115357565b60405162461bcd60e51b815260206004820152601e60248201527f43616c6c6572206d757374206265204d61726b657420636f6e747261637400006044820152606490fd5b50634e487b7160e01b600052601160045260246000fd5b60019060001981146111bf570190565b6111c7611198565b0190565b600181106111db575b6000190190565b6111e3611198565b6111d4565b80156111db576000190190565b60405190611202826110e8565b565b60058210156106e45752565b9081602091031261000e575190565b908060209392818452848401376000828201840152601f01601f1916010190565b9392919060018060a01b031684526020840152604083015260806060830152803560ff811680910361000e576080830152602081013560a0830152604081013560c0830152606081013560e0830152608081013561010083015260a0810135601e198236030181121561000e57016020813591019067ffffffffffffffff811161000e57803603821361000e576101408360c061012061113c960152019161121f565b811981116111bf570190565b8161138819048111158215171561000e576127109102611388010490565b8060001904821181151516611320570290565b611328611198565b0290565b61137a9060026127106113716301e13380600985015480881061138b575b8088036305f5e100988992826000190484119114151661137e575b0204600885015461130d565b0491015461130d565b0490565b611386611198565b611365565b611393611198565b61134a56fea26469706673582212202a4b0a6c37aab863be2c9e1670f512bc94041578abef1a3b825ae0978456b11d64736f6c634300080f0033",
  "linkReferences": {},
  "deployedLinkReferences": {}
}