{
  "_format": "hh-sol-artifact-1",
  "contractName": "LoanCenter",
  "sourceName": "contracts/protocol/LoanCenter.sol",
  "abi": [
    {
      "anonymous": false,
      "inputs": [
        {
          "indexed": false,
          "internalType": "uint8",
          "name": "version",
          "type": "uint8"
        }
      ],
      "name": "Initialized",
      "type": "event"
    },
    {
      "anonymous": false,
      "inputs": [
        {
          "indexed": true,
          "internalType": "address",
          "name": "previousOwner",
          "type": "address"
        },
        {
          "indexed": true,
          "internalType": "address",
          "name": "newOwner",
          "type": "address"
        }
      ],
      "name": "OwnershipTransferred",
      "type": "event"
    },
    {
      "inputs": [
        {
          "internalType": "uint256",
          "name": "loanId",
          "type": "uint256"
        }
      ],
      "name": "activateLoan",
      "outputs": [],
      "stateMutability": "nonpayable",
      "type": "function"
    },
    {
      "inputs": [
        {
          "internalType": "address",
          "name": "collection",
          "type": "address"
        }
      ],
      "name": "approveNFTCollection",
      "outputs": [],
      "stateMutability": "nonpayable",
      "type": "function"
    },
    {
      "inputs": [
        {
          "internalType": "address",
          "name": "borrower",
          "type": "address"
        },
        {
          "internalType": "address",
          "name": "reserve",
          "type": "address"
        },
        {
          "internalType": "uint256",
          "name": "amount",
          "type": "uint256"
        },
        {
          "internalType": "address",
          "name": "nftAddress",
          "type": "address"
        },
        {
          "internalType": "uint256",
          "name": "nftTokenID",
          "type": "uint256"
        },
        {
          "internalType": "uint256",
          "name": "borrowRate",
          "type": "uint256"
        }
      ],
      "name": "createLoan",
      "outputs": [
        {
          "internalType": "uint256",
          "name": "",
          "type": "uint256"
        }
      ],
      "stateMutability": "nonpayable",
      "type": "function"
    },
    {
      "inputs": [
        {
          "internalType": "uint256",
          "name": "loanId",
          "type": "uint256"
        }
      ],
      "name": "getLoan",
      "outputs": [
        {
          "components": [
            {
              "internalType": "uint256",
              "name": "loanId",
              "type": "uint256"
            },
            {
              "internalType": "enum DataTypes.LoanState",
              "name": "state",
              "type": "uint8"
            },
            {
              "internalType": "address",
              "name": "borrower",
              "type": "address"
            },
            {
              "internalType": "uint256",
              "name": "amount",
              "type": "uint256"
            },
            {
              "internalType": "address",
              "name": "nftAsset",
              "type": "address"
            },
            {
              "internalType": "uint256",
              "name": "nftTokenId",
              "type": "uint256"
            },
            {
              "internalType": "address",
              "name": "reserve",
              "type": "address"
            },
            {
              "internalType": "uint256",
              "name": "borrowRate",
              "type": "uint256"
            },
            {
              "internalType": "uint256",
              "name": "initTimestamp",
              "type": "uint256"
            }
          ],
          "internalType": "struct DataTypes.LoanData",
          "name": "",
          "type": "tuple"
        }
      ],
      "stateMutability": "view",
      "type": "function"
    },
    {
      "inputs": [
        {
          "internalType": "uint256",
          "name": "loanId",
          "type": "uint256"
        }
      ],
      "name": "getLoanDebt",
      "outputs": [
        {
          "internalType": "uint256",
          "name": "",
          "type": "uint256"
        }
      ],
      "stateMutability": "view",
      "type": "function"
    },
    {
      "inputs": [
        {
          "internalType": "uint256",
          "name": "loanId",
          "type": "uint256"
        }
      ],
      "name": "getLoanInterest",
      "outputs": [
        {
          "internalType": "uint256",
          "name": "",
          "type": "uint256"
        }
      ],
      "stateMutability": "view",
      "type": "function"
    },
    {
      "inputs": [],
      "name": "getLoansCount",
      "outputs": [
        {
          "internalType": "uint256",
          "name": "",
          "type": "uint256"
        }
      ],
      "stateMutability": "view",
      "type": "function"
    },
    {
      "inputs": [
        {
          "internalType": "address",
          "name": "nftAddress",
          "type": "address"
        },
        {
          "internalType": "uint256",
          "name": "nftTokenID",
          "type": "uint256"
        }
      ],
      "name": "getNFTLoan",
      "outputs": [
        {
          "internalType": "uint256",
          "name": "",
          "type": "uint256"
        }
      ],
      "stateMutability": "view",
      "type": "function"
    },
    {
      "inputs": [
        {
          "internalType": "contract IMarketAddressesProvider",
          "name": "addressesProvider",
          "type": "address"
        }
      ],
      "name": "initialize",
      "outputs": [],
      "stateMutability": "nonpayable",
      "type": "function"
    },
    {
      "inputs": [
        {
          "internalType": "uint256",
          "name": "loanId",
          "type": "uint256"
        }
      ],
      "name": "liquidateLoan",
      "outputs": [],
      "stateMutability": "nonpayable",
      "type": "function"
    },
    {
      "inputs": [
        {
          "internalType": "address",
          "name": "",
          "type": "address"
        },
        {
          "internalType": "address",
          "name": "",
          "type": "address"
        },
        {
          "internalType": "uint256",
          "name": "",
          "type": "uint256"
        },
        {
          "internalType": "bytes",
          "name": "",
          "type": "bytes"
        }
      ],
      "name": "onERC721Received",
      "outputs": [
        {
          "internalType": "bytes4",
          "name": "",
          "type": "bytes4"
        }
      ],
      "stateMutability": "pure",
      "type": "function"
    },
    {
      "inputs": [],
      "name": "owner",
      "outputs": [
        {
          "internalType": "address",
          "name": "",
          "type": "address"
        }
      ],
      "stateMutability": "view",
      "type": "function"
    },
    {
      "inputs": [],
      "name": "renounceOwnership",
      "outputs": [],
      "stateMutability": "nonpayable",
      "type": "function"
    },
    {
      "inputs": [
        {
          "internalType": "uint256",
          "name": "loanId",
          "type": "uint256"
        }
      ],
      "name": "repayLoan",
      "outputs": [],
      "stateMutability": "nonpayable",
      "type": "function"
    },
    {
      "inputs": [
        {
          "internalType": "address",
          "name": "newOwner",
          "type": "address"
        }
      ],
      "name": "transferOwnership",
      "outputs": [],
      "stateMutability": "nonpayable",
      "type": "function"
    }
  ],
  "bytecode": "0x608060405234801561001057600080fd5b50611f82806100206000396000f3fe608060405234801561001057600080fd5b50600436106100f55760003560e01c806371b60aa211610097578063c4d66de811610066578063c4d66de814610284578063ccdd9f5d146102a0578063de3d6a03146102bc578063f2fde38b146102ec576100f5565b806371b60aa2146101ea5780638da5cb5b1461021a578063ab7b1c8914610238578063b54cb51014610254576100f5565b80632af16c4e116100d35780632af16c4e146101785780634644004d14610194578063504006ca146101b0578063715018a6146101e0576100f5565b80630bbf145b146100fa5780630c97200a1461012a578063150b7a0214610148575b600080fd5b610114600480360381019061010f919061156a565b610308565b60405161012191906115a6565b60405180910390f35b610132610357565b60405161013f91906115a6565b60405180910390f35b610162600480360381019061015d9190611684565b610361565b60405161016f9190611747565b60405180910390f35b610192600480360381019061018d9190611762565b61038f565b005b6101ae60048036038101906101a9919061156a565b61050c565b005b6101ca60048036038101906101c5919061156a565b610659565b6040516101d791906118db565b60405180910390f35b6101e86107f6565b005b61020460048036038101906101ff919061156a565b61087e565b60405161021191906115a6565b60405180910390f35b6102226108ac565b60405161022f9190611906565b60405180910390f35b610252600480360381019061024d919061156a565b6108d6565b005b61026e60048036038101906102699190611921565b610aa1565b60405161027b91906115a6565b60405180910390f35b61029e600480360381019061029991906119ec565b610c67565b005b6102ba60048036038101906102b5919061156a565b610d3d565b005b6102d660048036038101906102d19190611a19565b610f08565b6040516102e391906115a6565b60405180910390f35b61030660048036038101906103019190611762565b610f63565b005b60006066600083815260200190815260200160002060020154610346426066600086815260200190815260200160002061105a90919063ffffffff16565b6103509190611a88565b9050919050565b6000606754905090565b60007f150b7a023d4804d13e8c85fb27262cb750cf6ba9f9dd3bb30d90f482ceeb4b1f905095945050505050565b610397611095565b73ffffffffffffffffffffffffffffffffffffffff166103b56108ac565b73ffffffffffffffffffffffffffffffffffffffff161461040b576040517f08c379a000000000000000000000000000000000000000000000000000000000815260040161040290611b3b565b60405180910390fd5b8073ffffffffffffffffffffffffffffffffffffffff1663a22cb465606860009054906101000a900473ffffffffffffffffffffffffffffffffffffffff1673ffffffffffffffffffffffffffffffffffffffff1663e7334fe56040518163ffffffff1660e01b8152600401602060405180830381865afa158015610494573d6000803e3d6000fd5b505050506040513d601f19601f820116820180604052508101906104b89190611b70565b60016040518363ffffffff1660e01b81526004016104d7929190611bb8565b600060405180830381600087803b1580156104f157600080fd5b505af1158015610505573d6000803e3d6000fd5b5050505050565b606860009054906101000a900473ffffffffffffffffffffffffffffffffffffffff1673ffffffffffffffffffffffffffffffffffffffff1663e7334fe56040518163ffffffff1660e01b8152600401602060405180830381865afa158015610579573d6000803e3d6000fd5b505050506040513d601f19601f8201168201806040525081019061059d9190611b70565b73ffffffffffffffffffffffffffffffffffffffff166105bb611095565b73ffffffffffffffffffffffffffffffffffffffff1614610611576040517f08c379a000000000000000000000000000000000000000000000000000000000815260040161060890611c2d565b60405180910390fd5b600060666000838152602001908152602001600020905060028160010160006101000a81548160ff021916908360048111156106505761064f61179e565b5b02179055505050565b61066161148a565b6066600083815260200190815260200160002060405180610120016040529081600082015481526020016001820160009054906101000a900460ff1660048111156106af576106ae61179e565b5b60048111156106c1576106c061179e565b5b81526020016001820160019054906101000a900473ffffffffffffffffffffffffffffffffffffffff1673ffffffffffffffffffffffffffffffffffffffff1673ffffffffffffffffffffffffffffffffffffffff168152602001600282015481526020016003820160009054906101000a900473ffffffffffffffffffffffffffffffffffffffff1673ffffffffffffffffffffffffffffffffffffffff1673ffffffffffffffffffffffffffffffffffffffff168152602001600482015481526020016005820160009054906101000a900473ffffffffffffffffffffffffffffffffffffffff1673ffffffffffffffffffffffffffffffffffffffff1673ffffffffffffffffffffffffffffffffffffffff168152602001600682015481526020016007820154815250509050919050565b6107fe611095565b73ffffffffffffffffffffffffffffffffffffffff1661081c6108ac565b73ffffffffffffffffffffffffffffffffffffffff1614610872576040517f08c379a000000000000000000000000000000000000000000000000000000000815260040161086990611b3b565b60405180910390fd5b61087c600061109d565b565b60006108a5426066600085815260200190815260200160002061105a90919063ffffffff16565b9050919050565b6000603360009054906101000a900473ffffffffffffffffffffffffffffffffffffffff16905090565b606860009054906101000a900473ffffffffffffffffffffffffffffffffffffffff1673ffffffffffffffffffffffffffffffffffffffff1663e7334fe56040518163ffffffff1660e01b8152600401602060405180830381865afa158015610943573d6000803e3d6000fd5b505050506040513d601f19601f820116820180604052508101906109679190611b70565b73ffffffffffffffffffffffffffffffffffffffff16610985611095565b73ffffffffffffffffffffffffffffffffffffffff16146109db576040517f08c379a00000000000000000000000000000000000000000000000000000000081526004016109d290611c2d565b60405180910390fd5b600060666000838152602001908152602001600020905060038160010160006101000a81548160ff02191690836004811115610a1a57610a1961179e565b5b02179055506000606560008360030160009054906101000a900473ffffffffffffffffffffffffffffffffffffffff1673ffffffffffffffffffffffffffffffffffffffff1673ffffffffffffffffffffffffffffffffffffffff168152602001908152602001600020600083600401548152602001908152602001600020819055505050565b6000606860009054906101000a900473ffffffffffffffffffffffffffffffffffffffff1673ffffffffffffffffffffffffffffffffffffffff1663e7334fe56040518163ffffffff1660e01b8152600401602060405180830381865afa158015610b10573d6000803e3d6000fd5b505050506040513d601f19601f82011682018060405250810190610b349190611b70565b73ffffffffffffffffffffffffffffffffffffffff16610b52611095565b73ffffffffffffffffffffffffffffffffffffffff1614610ba8576040517f08c379a0000000000000000000000000000000000000000000000000000000008152600401610b9f90611c2d565b60405180910390fd5b610bdd60675488888888888860666000606754815260200190815260200160002061116390979695949392919063ffffffff16565b606754606560008673ffffffffffffffffffffffffffffffffffffffff1673ffffffffffffffffffffffffffffffffffffffff16815260200190815260200160002060008581526020019081526020016000208190555060676000815480929190610c4790611c4d565b91905055506001606754610c5b9190611c95565b90509695505050505050565b6000610c736001611290565b90508015610c97576001600060016101000a81548160ff0219169083151502179055505b610c9f611380565b81606860006101000a81548173ffffffffffffffffffffffffffffffffffffffff021916908373ffffffffffffffffffffffffffffffffffffffff1602179055508015610d395760008060016101000a81548160ff0219169083151502179055507f7f26b83ff96e1f2b6a682f133852f6798a09c465da95921460cefb38474024986001604051610d309190611d1b565b60405180910390a15b5050565b606860009054906101000a900473ffffffffffffffffffffffffffffffffffffffff1673ffffffffffffffffffffffffffffffffffffffff1663e7334fe56040518163ffffffff1660e01b8152600401602060405180830381865afa158015610daa573d6000803e3d6000fd5b505050506040513d601f19601f82011682018060405250810190610dce9190611b70565b73ffffffffffffffffffffffffffffffffffffffff16610dec611095565b73ffffffffffffffffffffffffffffffffffffffff1614610e42576040517f08c379a0000000000000000000000000000000000000000000000000000000008152600401610e3990611c2d565b60405180910390fd5b600060666000838152602001908152602001600020905060048160010160006101000a81548160ff02191690836004811115610e8157610e8061179e565b5b02179055506000606560008360030160009054906101000a900473ffffffffffffffffffffffffffffffffffffffff1673ffffffffffffffffffffffffffffffffffffffff1673ffffffffffffffffffffffffffffffffffffffff168152602001908152602001600020600083600401548152602001908152602001600020819055505050565b6000606560008473ffffffffffffffffffffffffffffffffffffffff1673ffffffffffffffffffffffffffffffffffffffff168152602001908152602001600020600083815260200190815260200160002054905092915050565b610f6b611095565b73ffffffffffffffffffffffffffffffffffffffff16610f896108ac565b73ffffffffffffffffffffffffffffffffffffffff1614610fdf576040517f08c379a0000000000000000000000000000000000000000000000000000000008152600401610fd690611b3b565b60405180910390fd5b600073ffffffffffffffffffffffffffffffffffffffff168173ffffffffffffffffffffffffffffffffffffffff160361104e576040517f08c379a000000000000000000000000000000000000000000000000000000000815260040161104590611da8565b60405180910390fd5b6110578161109d565b50565b6000806301e133808460070154846110729190611c95565b61107c9190611df7565b905061108c8185600601546113d9565b91505092915050565b600033905090565b6000603360009054906101000a900473ffffffffffffffffffffffffffffffffffffffff16905081603360006101000a81548173ffffffffffffffffffffffffffffffffffffffff021916908373ffffffffffffffffffffffffffffffffffffffff1602179055508173ffffffffffffffffffffffffffffffffffffffff168173ffffffffffffffffffffffffffffffffffffffff167f8be0079c531659141344cd1fd0a4f28419497f9722a3daafe3b4186f6b6457e060405160405180910390a35050565b86886000018190555060018860010160006101000a81548160ff021916908360048111156111945761119361179e565b5b0217905550858860010160016101000a81548173ffffffffffffffffffffffffffffffffffffffff021916908373ffffffffffffffffffffffffffffffffffffffff160217905550838860020181905550828860030160006101000a81548173ffffffffffffffffffffffffffffffffffffffff021916908373ffffffffffffffffffffffffffffffffffffffff160217905550818860040181905550808860060181905550848860050160006101000a81548173ffffffffffffffffffffffffffffffffffffffff021916908373ffffffffffffffffffffffffffffffffffffffff1602179055504288600701819055505050505050505050565b60008060019054906101000a900460ff16156113075760018260ff161480156112bf57506112bd30611406565b155b6112fe576040517f08c379a00000000000000000000000000000000000000000000000000000000081526004016112f590611e9a565b60405180910390fd5b6000905061137b565b8160ff1660008054906101000a900460ff1660ff161061135c576040517f08c379a000000000000000000000000000000000000000000000000000000000815260040161135390611e9a565b60405180910390fd5b816000806101000a81548160ff021916908360ff160217905550600190505b919050565b600060019054906101000a900460ff166113cf576040517f08c379a00000000000000000000000000000000000000000000000000000000081526004016113c690611f2c565b60405180910390fd5b6113d7611429565b565b60008161138860001903048311158215176113f357600080fd5b6127106113888385020104905092915050565b6000808273ffffffffffffffffffffffffffffffffffffffff163b119050919050565b600060019054906101000a900460ff16611478576040517f08c379a000000000000000000000000000000000000000000000000000000000815260040161146f90611f2c565b60405180910390fd5b611488611483611095565b61109d565b565b60405180610120016040528060008152602001600060048111156114b1576114b061179e565b5b8152602001600073ffffffffffffffffffffffffffffffffffffffff16815260200160008152602001600073ffffffffffffffffffffffffffffffffffffffff16815260200160008152602001600073ffffffffffffffffffffffffffffffffffffffff16815260200160008152602001600081525090565b600080fd5b600080fd5b6000819050919050565b61154781611534565b811461155257600080fd5b50565b6000813590506115648161153e565b92915050565b6000602082840312156115805761157f61152a565b5b600061158e84828501611555565b91505092915050565b6115a081611534565b82525050565b60006020820190506115bb6000830184611597565b92915050565b600073ffffffffffffffffffffffffffffffffffffffff82169050919050565b60006115ec826115c1565b9050919050565b6115fc816115e1565b811461160757600080fd5b50565b600081359050611619816115f3565b92915050565b600080fd5b600080fd5b600080fd5b60008083601f8401126116445761164361161f565b5b8235905067ffffffffffffffff81111561166157611660611624565b5b60208301915083600182028301111561167d5761167c611629565b5b9250929050565b6000806000806000608086880312156116a05761169f61152a565b5b60006116ae8882890161160a565b95505060206116bf8882890161160a565b94505060406116d088828901611555565b935050606086013567ffffffffffffffff8111156116f1576116f061152f565b5b6116fd8882890161162e565b92509250509295509295909350565b60007fffffffff0000000000000000000000000000000000000000000000000000000082169050919050565b6117418161170c565b82525050565b600060208201905061175c6000830184611738565b92915050565b6000602082840312156117785761177761152a565b5b60006117868482850161160a565b91505092915050565b61179881611534565b82525050565b7f4e487b7100000000000000000000000000000000000000000000000000000000600052602160045260246000fd5b600581106117de576117dd61179e565b5b50565b60008190506117ef826117cd565b919050565b60006117ff826117e1565b9050919050565b61180f816117f4565b82525050565b61181e816115e1565b82525050565b6101208201600082015161183b600085018261178f565b50602082015161184e6020850182611806565b5060408201516118616040850182611815565b506060820151611874606085018261178f565b5060808201516118876080850182611815565b5060a082015161189a60a085018261178f565b5060c08201516118ad60c0850182611815565b5060e08201516118c060e085018261178f565b506101008201516118d561010085018261178f565b50505050565b6000610120820190506118f16000830184611824565b92915050565b611900816115e1565b82525050565b600060208201905061191b60008301846118f7565b92915050565b60008060008060008060c0878903121561193e5761193d61152a565b5b600061194c89828a0161160a565b965050602061195d89828a0161160a565b955050604061196e89828a01611555565b945050606061197f89828a0161160a565b935050608061199089828a01611555565b92505060a06119a189828a01611555565b9150509295509295509295565b60006119b9826115e1565b9050919050565b6119c9816119ae565b81146119d457600080fd5b50565b6000813590506119e6816119c0565b92915050565b600060208284031215611a0257611a0161152a565b5b6000611a10848285016119d7565b91505092915050565b60008060408385031215611a3057611a2f61152a565b5b6000611a3e8582860161160a565b9250506020611a4f85828601611555565b9150509250929050565b7f4e487b7100000000000000000000000000000000000000000000000000000000600052601160045260246000fd5b6000611a9382611534565b9150611a9e83611534565b9250827fffffffffffffffffffffffffffffffffffffffffffffffffffffffffffffffff03821115611ad357611ad2611a59565b5b828201905092915050565b600082825260208201905092915050565b7f4f776e61626c653a2063616c6c6572206973206e6f7420746865206f776e6572600082015250565b6000611b25602083611ade565b9150611b3082611aef565b602082019050919050565b60006020820190508181036000830152611b5481611b18565b9050919050565b600081519050611b6a816115f3565b92915050565b600060208284031215611b8657611b8561152a565b5b6000611b9484828501611b5b565b91505092915050565b60008115159050919050565b611bb281611b9d565b82525050565b6000604082019050611bcd60008301856118f7565b611bda6020830184611ba9565b9392505050565b7f43616c6c6572206d757374206265204d61726b657420636f6e74726163740000600082015250565b6000611c17601e83611ade565b9150611c2282611be1565b602082019050919050565b60006020820190508181036000830152611c4681611c0a565b9050919050565b6000611c5882611534565b91507fffffffffffffffffffffffffffffffffffffffffffffffffffffffffffffffff8203611c8a57611c89611a59565b5b600182019050919050565b6000611ca082611534565b9150611cab83611534565b925082821015611cbe57611cbd611a59565b5b828203905092915050565b6000819050919050565b600060ff82169050919050565b6000819050919050565b6000611d05611d00611cfb84611cc9565b611ce0565b611cd3565b9050919050565b611d1581611cea565b82525050565b6000602082019050611d306000830184611d0c565b92915050565b7f4f776e61626c653a206e6577206f776e657220697320746865207a65726f206160008201527f6464726573730000000000000000000000000000000000000000000000000000602082015250565b6000611d92602683611ade565b9150611d9d82611d36565b604082019050919050565b60006020820190508181036000830152611dc181611d85565b9050919050565b7f4e487b7100000000000000000000000000000000000000000000000000000000600052601260045260246000fd5b6000611e0282611534565b9150611e0d83611534565b925082611e1d57611e1c611dc8565b5b828204905092915050565b7f496e697469616c697a61626c653a20636f6e747261637420697320616c72656160008201527f647920696e697469616c697a6564000000000000000000000000000000000000602082015250565b6000611e84602e83611ade565b9150611e8f82611e28565b604082019050919050565b60006020820190508181036000830152611eb381611e77565b9050919050565b7f496e697469616c697a61626c653a20636f6e7472616374206973206e6f74206960008201527f6e697469616c697a696e67000000000000000000000000000000000000000000602082015250565b6000611f16602b83611ade565b9150611f2182611eba565b604082019050919050565b60006020820190508181036000830152611f4581611f09565b905091905056fea26469706673582212202e67f50aaf0da6910d63592c3f9a4888858ed759a1420647fc0bfc9b3b374e0564736f6c634300080f0033",
  "linkReferences": {},
  "deployedLinkReferences": {}
}