{
  "_format": "hh-sol-artifact-1",
  "contractName": "LoanCenter",
  "sourceName": "contracts/protocol/Lending/LoanCenter.sol",
  "abi": [
    {
      "inputs": [],
      "stateMutability": "nonpayable",
      "type": "constructor"
    },
    {
      "anonymous": false,
      "inputs": [
        {
          "indexed": false,
          "internalType": "uint8",
          "name": "version",
          "type": "uint8"
        }
      ],
      "name": "Initialized",
      "type": "event"
    },
    {
      "anonymous": false,
      "inputs": [
        {
          "indexed": true,
          "internalType": "address",
          "name": "previousOwner",
          "type": "address"
        },
        {
          "indexed": true,
          "internalType": "address",
          "name": "newOwner",
          "type": "address"
        }
      ],
      "name": "OwnershipTransferred",
      "type": "event"
    },
    {
      "inputs": [
        {
          "internalType": "uint256",
          "name": "loanId",
          "type": "uint256"
        }
      ],
      "name": "activateLoan",
      "outputs": [],
      "stateMutability": "nonpayable",
      "type": "function"
    },
    {
      "inputs": [
        {
          "internalType": "address",
          "name": "collection",
          "type": "address"
        }
      ],
      "name": "approveNFTCollection",
      "outputs": [],
      "stateMutability": "nonpayable",
      "type": "function"
    },
    {
      "inputs": [
        {
          "internalType": "uint256",
          "name": "loanId",
          "type": "uint256"
        },
        {
          "internalType": "address",
          "name": "user",
          "type": "address"
        },
        {
          "internalType": "uint256",
          "name": "bid",
          "type": "uint256"
        }
      ],
      "name": "auctionLoan",
      "outputs": [],
      "stateMutability": "nonpayable",
      "type": "function"
    },
    {
      "inputs": [
        {
          "internalType": "address",
          "name": "owner",
          "type": "address"
        },
        {
          "internalType": "address",
          "name": "pool",
          "type": "address"
        },
        {
          "internalType": "uint256",
          "name": "amount",
          "type": "uint256"
        },
        {
          "internalType": "uint256",
          "name": "genesisNFTId",
          "type": "uint256"
        },
        {
          "internalType": "address",
          "name": "nftAddress",
          "type": "address"
        },
        {
          "internalType": "uint256[]",
          "name": "nftTokenIds",
          "type": "uint256[]"
        },
        {
          "internalType": "uint256",
          "name": "borrowRate",
          "type": "uint256"
        }
      ],
      "name": "createLoan",
      "outputs": [
        {
          "internalType": "uint256",
          "name": "",
          "type": "uint256"
        }
      ],
      "stateMutability": "nonpayable",
      "type": "function"
    },
    {
      "inputs": [
        {
          "internalType": "address",
          "name": "collection",
          "type": "address"
        }
      ],
      "name": "getCollectionLiquidationThreshold",
      "outputs": [
        {
          "internalType": "uint256",
          "name": "",
          "type": "uint256"
        }
      ],
      "stateMutability": "view",
      "type": "function"
    },
    {
      "inputs": [
        {
          "internalType": "address",
          "name": "collection",
          "type": "address"
        }
      ],
      "name": "getCollectionMaxLTV",
      "outputs": [
        {
          "internalType": "uint256",
          "name": "",
          "type": "uint256"
        }
      ],
      "stateMutability": "view",
      "type": "function"
    },
    {
      "inputs": [
        {
          "internalType": "uint256",
          "name": "loanId",
          "type": "uint256"
        }
      ],
      "name": "getLoan",
      "outputs": [
        {
          "components": [
            {
              "internalType": "address",
              "name": "owner",
              "type": "address"
            },
            {
              "internalType": "uint256",
              "name": "amount",
              "type": "uint256"
            },
            {
              "internalType": "uint256[]",
              "name": "nftTokenIds",
              "type": "uint256[]"
            },
            {
              "internalType": "address",
              "name": "nftAsset",
              "type": "address"
            },
            {
              "internalType": "uint16",
              "name": "borrowRate",
              "type": "uint16"
            },
            {
              "internalType": "uint40",
              "name": "initTimestamp",
              "type": "uint40"
            },
            {
              "internalType": "uint40",
              "name": "debtTimestamp",
              "type": "uint40"
            },
            {
              "internalType": "address",
              "name": "pool",
              "type": "address"
            },
            {
              "internalType": "uint16",
              "name": "genesisNFTId",
              "type": "uint16"
            },
            {
              "internalType": "enum DataTypes.LoanState",
              "name": "state",
              "type": "uint8"
            }
          ],
          "internalType": "struct DataTypes.LoanData",
          "name": "",
          "type": "tuple"
        }
      ],
      "stateMutability": "view",
      "type": "function"
    },
    {
      "inputs": [
        {
          "internalType": "uint256",
          "name": "loanId",
          "type": "uint256"
        }
      ],
      "name": "getLoanCollectionAddress",
      "outputs": [
        {
          "internalType": "address",
          "name": "",
          "type": "address"
        }
      ],
      "stateMutability": "view",
      "type": "function"
    },
    {
      "inputs": [
        {
          "internalType": "uint256",
          "name": "loanId",
          "type": "uint256"
        }
      ],
      "name": "getLoanDebt",
      "outputs": [
        {
          "internalType": "uint256",
          "name": "",
          "type": "uint256"
        }
      ],
      "stateMutability": "view",
      "type": "function"
    },
    {
      "inputs": [
        {
          "internalType": "uint256",
          "name": "loanId",
          "type": "uint256"
        }
      ],
      "name": "getLoanInterest",
      "outputs": [
        {
          "internalType": "uint256",
          "name": "",
          "type": "uint256"
        }
      ],
      "stateMutability": "view",
      "type": "function"
    },
    {
      "inputs": [
        {
          "internalType": "uint256",
          "name": "loanId",
          "type": "uint256"
        }
      ],
      "name": "getLoanLendingPool",
      "outputs": [
        {
          "internalType": "address",
          "name": "",
          "type": "address"
        }
      ],
      "stateMutability": "view",
      "type": "function"
    },
    {
      "inputs": [
        {
          "internalType": "uint256",
          "name": "loanId",
          "type": "uint256"
        }
      ],
      "name": "getLoanLiquidationData",
      "outputs": [
        {
          "components": [
            {
              "internalType": "address",
              "name": "auctioner",
              "type": "address"
            },
            {
              "internalType": "address",
              "name": "liquidator",
              "type": "address"
            },
            {
              "internalType": "uint40",
              "name": "auctionStartTimestamp",
              "type": "uint40"
            },
            {
              "internalType": "uint256",
              "name": "auctionMaxBid",
              "type": "uint256"
            }
          ],
          "internalType": "struct DataTypes.LoanLiquidationData",
          "name": "",
          "type": "tuple"
        }
      ],
      "stateMutability": "view",
      "type": "function"
    },
    {
      "inputs": [
        {
          "internalType": "uint256",
          "name": "loanId",
          "type": "uint256"
        },
        {
          "internalType": "uint256",
          "name": "tokensPrice",
          "type": "uint256"
        }
      ],
      "name": "getLoanMaxDebt",
      "outputs": [
        {
          "internalType": "uint256",
          "name": "",
          "type": "uint256"
        }
      ],
      "stateMutability": "view",
      "type": "function"
    },
    {
      "inputs": [
        {
          "internalType": "uint256",
          "name": "loanId",
          "type": "uint256"
        }
      ],
      "name": "getLoanOwner",
      "outputs": [
        {
          "internalType": "address",
          "name": "",
          "type": "address"
        }
      ],
      "stateMutability": "view",
      "type": "function"
    },
    {
      "inputs": [
        {
          "internalType": "uint256",
          "name": "loanId",
          "type": "uint256"
        }
      ],
      "name": "getLoanState",
      "outputs": [
        {
          "internalType": "enum DataTypes.LoanState",
          "name": "",
          "type": "uint8"
        }
      ],
      "stateMutability": "view",
      "type": "function"
    },
    {
      "inputs": [
        {
          "internalType": "uint256",
          "name": "loanId",
          "type": "uint256"
        }
      ],
      "name": "getLoanTokenIds",
      "outputs": [
        {
          "internalType": "uint256[]",
          "name": "",
          "type": "uint256[]"
        }
      ],
      "stateMutability": "view",
      "type": "function"
    },
    {
      "inputs": [],
      "name": "getLoansCount",
      "outputs": [
        {
          "internalType": "uint256",
          "name": "",
          "type": "uint256"
        }
      ],
      "stateMutability": "view",
      "type": "function"
    },
    {
      "inputs": [
        {
          "internalType": "address",
          "name": "nftAddress",
          "type": "address"
        },
        {
          "internalType": "uint256",
          "name": "nftTokenId",
          "type": "uint256"
        }
      ],
      "name": "getNFTLoanId",
      "outputs": [
        {
          "internalType": "uint256",
          "name": "",
          "type": "uint256"
        }
      ],
      "stateMutability": "view",
      "type": "function"
    },
    {
      "inputs": [
        {
          "internalType": "address",
          "name": "user",
          "type": "address"
        }
      ],
      "name": "getUserActiveLoans",
      "outputs": [
        {
          "internalType": "uint256[]",
          "name": "",
          "type": "uint256[]"
        }
      ],
      "stateMutability": "view",
      "type": "function"
    },
    {
      "inputs": [
        {
          "internalType": "contract IAddressesProvider",
          "name": "addressesProvider",
          "type": "address"
        },
        {
          "components": [
            {
              "internalType": "uint16",
              "name": "maxLTV",
              "type": "uint16"
            },
            {
              "internalType": "uint16",
              "name": "liquidationThreshold",
              "type": "uint16"
            }
          ],
          "internalType": "struct DataTypes.CollectionRiskParameters",
          "name": "defaultCollectionsRiskParameters",
          "type": "tuple"
        }
      ],
      "name": "initialize",
      "outputs": [],
      "stateMutability": "nonpayable",
      "type": "function"
    },
    {
      "inputs": [
        {
          "internalType": "uint256",
          "name": "loanId",
          "type": "uint256"
        }
      ],
      "name": "liquidateLoan",
      "outputs": [],
      "stateMutability": "nonpayable",
      "type": "function"
    },
    {
      "inputs": [
        {
          "internalType": "address",
          "name": "",
          "type": "address"
        },
        {
          "internalType": "address",
          "name": "",
          "type": "address"
        },
        {
          "internalType": "uint256",
          "name": "",
          "type": "uint256"
        },
        {
          "internalType": "bytes",
          "name": "",
          "type": "bytes"
        }
      ],
      "name": "onERC721Received",
      "outputs": [
        {
          "internalType": "bytes4",
          "name": "",
          "type": "bytes4"
        }
      ],
      "stateMutability": "nonpayable",
      "type": "function"
    },
    {
      "inputs": [],
      "name": "owner",
      "outputs": [
        {
          "internalType": "address",
          "name": "",
          "type": "address"
        }
      ],
      "stateMutability": "view",
      "type": "function"
    },
    {
      "inputs": [],
      "name": "renounceOwnership",
      "outputs": [],
      "stateMutability": "nonpayable",
      "type": "function"
    },
    {
      "inputs": [
        {
          "internalType": "uint256",
          "name": "loanId",
          "type": "uint256"
        }
      ],
      "name": "repayLoan",
      "outputs": [],
      "stateMutability": "nonpayable",
      "type": "function"
    },
    {
      "inputs": [
        {
          "internalType": "address",
          "name": "collection",
          "type": "address"
        },
        {
          "internalType": "uint256",
          "name": "maxLTV",
          "type": "uint256"
        },
        {
          "internalType": "uint256",
          "name": "liquidationThreshold",
          "type": "uint256"
        }
      ],
      "name": "setCollectionRiskParameters",
      "outputs": [],
      "stateMutability": "nonpayable",
      "type": "function"
    },
    {
      "inputs": [
        {
          "internalType": "address",
          "name": "newOwner",
          "type": "address"
        }
      ],
      "name": "transferOwnership",
      "outputs": [],
      "stateMutability": "nonpayable",
      "type": "function"
    },
    {
      "inputs": [
        {
          "internalType": "uint256",
          "name": "loanId",
          "type": "uint256"
        },
        {
          "internalType": "uint256",
          "name": "newAmount",
          "type": "uint256"
        }
      ],
      "name": "updateLoanAmount",
      "outputs": [],
      "stateMutability": "nonpayable",
      "type": "function"
    },
    {
      "inputs": [
        {
          "internalType": "uint256",
          "name": "loanId",
          "type": "uint256"
        },
        {
          "internalType": "address",
          "name": "user",
          "type": "address"
        },
        {
          "internalType": "uint256",
          "name": "bid",
          "type": "uint256"
        }
      ],
      "name": "updateLoanAuctionBid",
      "outputs": [],
      "stateMutability": "nonpayable",
      "type": "function"
    },
    {
      "inputs": [
        {
          "internalType": "uint256",
          "name": "loanId",
          "type": "uint256"
        },
        {
          "internalType": "uint256",
          "name": "newDebtTimestamp",
          "type": "uint256"
        }
      ],
      "name": "updateLoanDebtTimestamp",
      "outputs": [],
      "stateMutability": "nonpayable",
      "type": "function"
    }
  ],
  "bytecode": "0x608060405234801561001057600080fd5b5061001961001e565b6100de565b600054610100900460ff161561008a5760405162461bcd60e51b815260206004820152602760248201527f496e697469616c697a61626c653a20636f6e747261637420697320696e697469604482015266616c697a696e6760c81b606482015260840160405180910390fd5b60005460ff90811610156100dc576000805460ff191660ff9081179091556040519081527f7f26b83ff96e1f2b6a682f133852f6798a09c465da95921460cefb38474024989060200160405180910390a15b565b611f97806100ed6000396000f3fe608060405234801561001057600080fd5b50600436106101da5760003560e01c80636df0d32711610104578063ab7b1c89116100a2578063ccdd9f5d11610071578063ccdd9f5d1461048f578063ccff44f1146104a2578063ce8a848b146104b5578063f2fde38b146104c857600080fd5b8063ab7b1c8914610443578063af03b42014610456578063b8e9c53314610469578063c9bfcb3b1461047c57600080fd5b80637896c0ea116100de5780637896c0ea146103f957806378d77f721461040c578063799389141461041f5780638da5cb5b1461043257600080fd5b80636df0d32714610383578063715018a6146103de57806371b60aa2146103e657600080fd5b80632af16c4e1161017c5780634b496b091161014b5780634b496b09146103035780634dbb2b7b14610316578063504006ca14610329578063567e75c41461034957600080fd5b80632af16c4e146102aa5780633e4d92e2146102bd5780633f4b8d42146102d05780634644004d146102f057600080fd5b80630c367448116101b85780630c3674481461022d5780630c97200a14610240578063150b7a021461024857806320a349c91461027f57600080fd5b80630a8ef399146101df5780630bbf145b146101f45780630c2452dd1461021a575b600080fd5b6101f26101ed366004611950565b6104db565b005b610207610202366004611991565b61062d565b6040519081526020015b60405180910390f35b6102076102283660046119aa565b610649565b61020761023b3660046119d6565b610674565b609a54610207565b610266610256366004611a09565b630a85bd0160e11b949350505050565b6040516001600160e01b03199091168152602001610211565b61029261028d366004611991565b6106cf565b6040516001600160a01b039091168152602001610211565b6101f26102b83660046119d6565b6106fb565b6101f26102cb366004611ae9565b6107ec565b6102e36102de366004611991565b610809565b6040516102119190611b0b565b6101f26102fe366004611991565b610879565b6101f2610311366004611b4f565b6108a5565b6101f2610324366004611ae9565b61097d565b61033c610337366004611991565b6109bb565b6040516102119190611bfa565b610376610357366004611991565b600090815260986020526040902060040154600160b01b900460ff1690565b6040516102119190611cdd565b610396610391366004611991565b610b36565b604051610211919081516001600160a01b0390811682526020808401519091169082015260408083015164ffffffffff16908201526060918201519181019190915260800190565b6101f2610bc2565b6102076103f4366004611991565b610bd6565b6101f2610407366004611b4f565b610bfa565b61020761041a366004611ae9565b610c3a565b6101f261042d366004611ceb565b610c7d565b6065546001600160a01b0316610292565b6101f2610451366004611991565b610cf6565b6102076104643660046119d6565b610f61565b6102e36104773660046119d6565b610fb0565b61029261048a366004611991565b61101c565b6101f261049d366004611991565b611045565b6102926104b0366004611991565b611206565b6102076104c3366004611d20565b611232565b6101f26104d63660046119d6565b611348565b600054610100900460ff16158080156104fb5750600054600160ff909116105b806105155750303b158015610515575060005460ff166001145b61057d5760405162461bcd60e51b815260206004820152602e60248201527f496e697469616c697a61626c653a20636f6e747261637420697320616c72656160448201526d191e481a5b9a5d1a585b1a5e995960921b60648201526084015b60405180910390fd5b6000805460ff1916600117905580156105a0576000805461ff0019166101001790555b6105a86113c1565b6105b06113f0565b6105b86113f0565b609b80546001600160a01b0319166001600160a01b03851617905581609d6105e08282611dfe565b50508015610628576000805461ff0019169055604051600181527f7f26b83ff96e1f2b6a682f133852f6798a09c465da95921460cefb38474024989060200160405180910390a15b505050565b60008161063981611417565b61064283611487565b9392505050565b6001600160a01b03821660009081526097602090815260408083208484529091529020545b92915050565b6001600160a01b0381166000908152609c602052604081205461ffff1681036106a9575050609d5462010000900461ffff1690565b506001600160a01b03166000908152609c602052604090205462010000900461ffff1690565b6000816106db81611417565b50506000908152609860205260409020600301546001600160a01b031690565b6107036114af565b806001600160a01b031663a22cb465609b60009054906101000a90046001600160a01b03166001600160a01b03166304d21cee6040518163ffffffff1660e01b8152600401602060405180830381865afa158015610765573d6000803e3d6000fd5b505050506040513d601f19601f820116820180604052508101906107899190611e3f565b6040516001600160e01b031960e084901b1681526001600160a01b03909116600482015260016024820152604401600060405180830381600087803b1580156107d157600080fd5b505af11580156107e5573d6000803e3d6000fd5b5050505050565b6107f46114af565b60009182526098602052604090912060010155565b60608161081581611417565b6000838152609860209081526040918290206002018054835181840281018401909452808452909183018282801561086c57602002820191906000526020600020905b815481526020019060010190808311610858575b5050505050915050919050565b6108816114af565b6000908152609860205260409020600401805460ff60b01b1916600160b11b179055565b6108ad6114af565b60008381526098602052604090206004908101805460ff60b01b1916600160b01b830217905550604080516080810182526001600160a01b03841680825260208201529081016108fc42611576565b64ffffffffff9081168252602091820193909352600094855260998152604094859020825181546001600160a01b039182166001600160a01b03199091161782559183015160018201805497850151909516600160a01b026001600160c81b0319909716921691909117949094179091556060015160029092019190915550565b6109856114af565b600091825260986020526040909120600301805464ffffffffff909216600160d81b026001600160d81b03909216919091179055565b610a11604080516101408101825260008082526020820181905260609282018390529181018290526080810182905260a0810182905260c0810182905260e0810182905261010081018290529061012082015290565b81610a1b81611417565b60008381526098602090815260409182902082516101408101845281546001600160a01b0316815260018201548184015260028201805485518186028101860187528181529295939493860193830182828015610a9757602002820191906000526020600020905b815481526020019060010190808311610a83575b505050918352505060038201546001600160a01b03808216602084015261ffff600160a01b8084048216604086015264ffffffffff600160b01b80860482166060880152600160d81b909504166080860152600486015492831660a086015282041660c084015260e09092019160ff919004166005811115610b1b57610b1b611bc2565b6005811115610b2c57610b2c611bc2565b9052509392505050565b60408051608081018252600080825260208201819052918101829052606081019190915281610b6481611417565b5050600090815260996020908152604091829020825160808101845281546001600160a01b039081168252600183015490811693820193909352600160a01b90920464ffffffffff1692820192909252600290910154606082015290565b610bca6115c4565b610bd4600061161e565b565b600081610be281611417565b60008381526098602052604090206106429042611670565b610c026114af565b6000928352609960205260409092206001810180546001600160a01b0319166001600160a01b03939093169290921790915560020155565b600082610c4681611417565b600084815260986020526040902060030154610c75908490610c70906001600160a01b0316610674565b611704565b949350505050565b610c856115c4565b6040518060400160405280610c998461172a565b61ffff168152602001610cab8361172a565b61ffff9081169091526001600160a01b039094166000908152609c602090815260409091208251815493909201518616620100000263ffffffff199093169190951617179092555050565b610cfe6114af565b600081815260986020908152604080832060048101805460ff60b01b1916600360b01b17905560020180548251818502810185019093528083529192909190830182828015610d6c57602002820191906000526020600020905b815481526020019060010190808311610d58575b5050506000858152609860205260408120600301549394506001600160a01b03909316929150505b8251811015610df9576001600160a01b03821660009081526097602052604081208451909190859084908110610dcc57610dcc611e5c565b60200260200101518152602001908152602001600020600090558080610df190611e88565b915050610d94565b506000838152609860209081526040808320546001600160a01b03168352609e825280832080548251818502810185019093528083529192909190830182828015610e6357602002820191906000526020600020905b815481526020019060010190808311610e4f575b5050505050905060005b81518110156107e55784828281518110610e8957610e89611e5c565b602002602001015103610f4f578160018351610ea59190611ea1565b81518110610eb557610eb5611e5c565b6020908102919091018101516000878152609883526040808220546001600160a01b03168252609e90935291909120805483908110610ef657610ef6611e5c565b6000918252602080832090910192909255868152609882526040808220546001600160a01b03168252609e90925220805480610f3457610f34611eb4565b600190038181906000526020600020016000905590556107e5565b80610f5981611e88565b915050610e6d565b6001600160a01b0381166000908152609c602052604081205461ffff168103610f90575050609d5461ffff1690565b506001600160a01b03166000908152609c602052604090205461ffff1690565b6001600160a01b0381166000908152609e602090815260409182902080548351818402810184019094528084526060939283018282801561101057602002820191906000526020600020905b815481526020019060010190808311610ffc575b50505050509050919050565b60008161102881611417565b50506000908152609860205260409020546001600160a01b031690565b61104d6114af565b600081815260986020908152604080832060048101805460ff60b01b1916600560b01b179055600201805482518185028101850190935280835291929091908301828280156110bb57602002820191906000526020600020905b8154815260200190600101908083116110a7575b5050506000858152609860205260408120600301549394506001600160a01b03909316929150505b8251811015611148576001600160a01b0382166000908152609760205260408120845190919085908490811061111b5761111b611e5c565b6020026020010151815260200190815260200160002060009055808061114090611e88565b9150506110e3565b506000838152609860209081526040808320546001600160a01b03168352609e8252808320805482518185028101850190935280835291929091908301828280156111b257602002820191906000526020600020905b81548152602001906001019080831161119e575b5050505050905060005b81518110156107e557848282815181106111d8576111d8611e5c565b6020026020010151036111f4578160018351610ea59190611ea1565b806111fe81611e88565b9150506111bc565b60008161121281611417565b50506000908152609860205260409020600401546001600160a01b031690565b600061123c6114af565b61129289898989898989808060200260200160405190810160405280939291908181526020018383602002808284376000920182905250609a54815260986020526040902098979695949392508b915050611771565b60005b838110156112f757609a546001600160a01b0387166000908152609760205260408120908787858181106112cb576112cb611e5c565b9050602002013581526020019081526020016000208190555080806112ef90611e88565b915050611295565b506001600160a01b0389166000908152609e602090815260408220609a805482546001810184559285529284209091019190915580549161133783611e88565b909155509998505050505050505050565b6113506115c4565b6001600160a01b0381166113b55760405162461bcd60e51b815260206004820152602660248201527f4f776e61626c653a206e6577206f776e657220697320746865207a65726f206160448201526564647265737360d01b6064820152608401610574565b6113be8161161e565b50565b600054610100900460ff166113e85760405162461bcd60e51b815260040161057490611eca565b610bd46118b4565b600054610100900460ff16610bd45760405162461bcd60e51b815260040161057490611eca565b60008082815260986020526040902060040154600160b01b900460ff16600581111561144557611445611bc2565b036113be5760405162461bcd60e51b815260206004820152601260248201527126219d2aa722ac24a9aa22a72a2fa627a0a760711b6044820152606401610574565b60008181526098602052604081206001810154906114a59042611670565b61066e9190611f15565b609b60009054906101000a90046001600160a01b03166001600160a01b03166304d21cee6040518163ffffffff1660e01b8152600401602060405180830381865afa158015611502573d6000803e3d6000fd5b505050506040513d601f19601f820116820180604052508101906115269190611e3f565b6001600160a01b0316336001600160a01b031614610bd45760405162461bcd60e51b815260206004820152600d60248201526c1310ce9393d517d3505492d155609a1b6044820152606401610574565b600064ffffffffff8211156115c05760405162461bcd60e51b815260206004820152601060248201526f53433a434153545f4f564552464c4f5760801b6044820152606401610574565b5090565b6065546001600160a01b03163314610bd45760405162461bcd60e51b815260206004820181905260248201527f4f776e61626c653a2063616c6c6572206973206e6f7420746865206f776e65726044820152606401610574565b606580546001600160a01b038381166001600160a01b0319831681179093556040519116919082907f8be0079c531659141344cd1fd0a4f28419497f9722a3daafe3b4186f6b6457e090600090a35050565b600080610708611681600185611ea1565b61168b9190611f28565b611696906001611f15565b6116a290610708611f4a565b90506116b46127106301e13380611f4a565b60038501546116d190600160d81b900464ffffffffff1683611ea1565b600386015460018701546116f091600160a01b900461ffff1690611f4a565b6116fa9190611f4a565b610c759190611f28565b60008115611388198390048411151761171c57600080fd5b506127109102611388010490565b600061ffff8211156115c05760405162461bcd60e51b815260206004820152601060248201526f53433a434153545f4f564552464c4f5760801b6044820152606401610574565b87546001600160a01b0319166001600160a01b03881617885560048801805460ff60b01b1916600160b01b179055600188018590556117af8461172a565b60048901805461ffff60a01b1916600160a01b61ffff93909316929092029190911790556003880180546001600160a01b0319166001600160a01b03851617905581516118059060028a019060208501906118e4565b5061180f8161172a565b60038901805461ffff60a01b1916600160a01b61ffff93909316929092029190911790556004880180546001600160a01b0319166001600160a01b03881617905561185942611576565b8860030160166101000a81548164ffffffffff021916908364ffffffffff16021790555061188642611576565b88600301601b6101000a81548164ffffffffff021916908364ffffffffff1602179055505050505050505050565b600054610100900460ff166118db5760405162461bcd60e51b815260040161057490611eca565b610bd43361161e565b82805482825590600052602060002090810192821561191f579160200282015b8281111561191f578251825591602001919060010190611904565b506115c09291505b808211156115c05760008155600101611927565b6001600160a01b03811681146113be57600080fd5b600080828403606081121561196457600080fd5b833561196f8161193b565b92506040601f198201121561198357600080fd5b506020830190509250929050565b6000602082840312156119a357600080fd5b5035919050565b600080604083850312156119bd57600080fd5b82356119c88161193b565b946020939093013593505050565b6000602082840312156119e857600080fd5b81356106428161193b565b634e487b7160e01b600052604160045260246000fd5b60008060008060808587031215611a1f57600080fd5b8435611a2a8161193b565b93506020850135611a3a8161193b565b925060408501359150606085013567ffffffffffffffff80821115611a5e57600080fd5b818701915087601f830112611a7257600080fd5b813581811115611a8457611a846119f3565b604051601f8201601f19908116603f01168101908382118183101715611aac57611aac6119f3565b816040528281528a6020848701011115611ac557600080fd5b82602086016020830137600060208483010152809550505050505092959194509250565b60008060408385031215611afc57600080fd5b50508035926020909101359150565b6020808252825182820181905260009190848201906040850190845b81811015611b4357835183529284019291840191600101611b27565b50909695505050505050565b600080600060608486031215611b6457600080fd5b833592506020840135611b768161193b565b929592945050506040919091013590565b600081518084526020808501945080840160005b83811015611bb757815187529582019590820190600101611b9b565b509495945050505050565b634e487b7160e01b600052602160045260246000fd5b60068110611bf657634e487b7160e01b600052602160045260246000fd5b9052565b60208152611c146020820183516001600160a01b03169052565b6020820151604082015260006040830151610140806060850152611c3c610160850183611b87565b91506060850151611c5860808601826001600160a01b03169052565b50608085015161ffff811660a08601525060a085015164ffffffffff811660c08601525060c085015164ffffffffff811660e08601525060e0850151610100611cab818701836001600160a01b03169052565b8601519050610120611cc28682018361ffff169052565b8601519050611cd385830182611bd8565b5090949350505050565b6020810161066e8284611bd8565b600080600060608486031215611d0057600080fd5b8335611d0b8161193b565b95602085013595506040909401359392505050565b60008060008060008060008060e0898b031215611d3c57600080fd5b8835611d478161193b565b97506020890135611d578161193b565b965060408901359550606089013594506080890135611d758161193b565b935060a089013567ffffffffffffffff80821115611d9257600080fd5b818b0191508b601f830112611da657600080fd5b813581811115611db557600080fd5b8c60208260051b8501011115611dca57600080fd5b60208301955080945050505060c089013590509295985092959890939650565b6000813561ffff8116811461066e57600080fd5b61ffff611e0a83611dea565b1681548161ffff19821617835563ffff0000611e2860208601611dea565b60101b168263ffffffff1983161717835550505050565b600060208284031215611e5157600080fd5b81516106428161193b565b634e487b7160e01b600052603260045260246000fd5b634e487b7160e01b600052601160045260246000fd5b600060018201611e9a57611e9a611e72565b5060010190565b8181038181111561066e5761066e611e72565b634e487b7160e01b600052603160045260246000fd5b6020808252602b908201527f496e697469616c697a61626c653a20636f6e7472616374206973206e6f74206960408201526a6e697469616c697a696e6760a81b606082015260800190565b8082018082111561066e5761066e611e72565b600082611f4557634e487b7160e01b600052601260045260246000fd5b500490565b808202811582820484141761066e5761066e611e7256fea264697066735822122072139724f5791f9c4d85db2eec50c67cb6db30ad673e0f20090bbf5d61eea24364736f6c63430008130033",
  "linkReferences": {},
  "deployedLinkReferences": {}
}