{
  "_format": "hh-sol-artifact-1",
  "contractName": "LoanCenter",
  "sourceName": "contracts/protocol/LoanCenter.sol",
  "abi": [
    {
      "anonymous": false,
      "inputs": [
        {
          "indexed": false,
          "internalType": "uint8",
          "name": "version",
          "type": "uint8"
        }
      ],
      "name": "Initialized",
      "type": "event"
    },
    {
      "anonymous": false,
      "inputs": [
        {
          "indexed": true,
          "internalType": "address",
          "name": "previousOwner",
          "type": "address"
        },
        {
          "indexed": true,
          "internalType": "address",
          "name": "newOwner",
          "type": "address"
        }
      ],
      "name": "OwnershipTransferred",
      "type": "event"
    },
    {
      "inputs": [
        {
          "internalType": "uint256",
          "name": "loanId",
          "type": "uint256"
        }
      ],
      "name": "activateLoan",
      "outputs": [],
      "stateMutability": "nonpayable",
      "type": "function"
    },
    {
      "inputs": [
        {
          "internalType": "address",
          "name": "collection",
          "type": "address"
        }
      ],
      "name": "approveNFTCollection",
      "outputs": [],
      "stateMutability": "nonpayable",
      "type": "function"
    },
    {
      "inputs": [
        {
          "internalType": "address",
          "name": "borrower",
          "type": "address"
        },
        {
          "internalType": "address",
          "name": "reserve",
          "type": "address"
        },
        {
          "internalType": "uint256",
          "name": "amount",
          "type": "uint256"
        },
        {
          "internalType": "address",
          "name": "nftAddress",
          "type": "address"
        },
        {
          "internalType": "uint256",
          "name": "nftTokenID",
          "type": "uint256"
        },
        {
          "internalType": "uint256",
          "name": "borrowRate",
          "type": "uint256"
        }
      ],
      "name": "createLoan",
      "outputs": [
        {
          "internalType": "uint256",
          "name": "",
          "type": "uint256"
        }
      ],
      "stateMutability": "nonpayable",
      "type": "function"
    },
    {
      "inputs": [
        {
          "internalType": "uint256",
          "name": "loanId",
          "type": "uint256"
        }
      ],
      "name": "getLoan",
      "outputs": [
        {
          "components": [
            {
              "internalType": "uint256",
              "name": "loanId",
              "type": "uint256"
            },
            {
              "internalType": "enum DataTypes.LoanState",
              "name": "state",
              "type": "uint8"
            },
            {
              "internalType": "address",
              "name": "borrower",
              "type": "address"
            },
            {
              "internalType": "uint256",
              "name": "amount",
              "type": "uint256"
            },
            {
              "internalType": "address",
              "name": "nftAsset",
              "type": "address"
            },
            {
              "internalType": "uint256",
              "name": "nftTokenId",
              "type": "uint256"
            },
            {
              "internalType": "address",
              "name": "reserve",
              "type": "address"
            },
            {
              "internalType": "uint256",
              "name": "borrowRate",
              "type": "uint256"
            },
            {
              "internalType": "uint256",
              "name": "initTimestamp",
              "type": "uint256"
            }
          ],
          "internalType": "struct DataTypes.LoanData",
          "name": "",
          "type": "tuple"
        }
      ],
      "stateMutability": "view",
      "type": "function"
    },
    {
      "inputs": [
        {
          "internalType": "uint256",
          "name": "loanId",
          "type": "uint256"
        }
      ],
      "name": "getLoanDebt",
      "outputs": [
        {
          "internalType": "uint256",
          "name": "",
          "type": "uint256"
        }
      ],
      "stateMutability": "view",
      "type": "function"
    },
    {
      "inputs": [
        {
          "internalType": "uint256",
          "name": "loanId",
          "type": "uint256"
        }
      ],
      "name": "getLoanInterest",
      "outputs": [
        {
          "internalType": "uint256",
          "name": "",
          "type": "uint256"
        }
      ],
      "stateMutability": "view",
      "type": "function"
    },
    {
      "inputs": [
        {
          "internalType": "uint256",
          "name": "loanId",
          "type": "uint256"
        }
      ],
      "name": "getLoanTokenAddress",
      "outputs": [
        {
          "internalType": "address",
          "name": "",
          "type": "address"
        }
      ],
      "stateMutability": "view",
      "type": "function"
    },
    {
      "inputs": [
        {
          "internalType": "uint256",
          "name": "loanId",
          "type": "uint256"
        }
      ],
      "name": "getLoanTokenId",
      "outputs": [
        {
          "internalType": "uint256",
          "name": "",
          "type": "uint256"
        }
      ],
      "stateMutability": "view",
      "type": "function"
    },
    {
      "inputs": [],
      "name": "getLoansCount",
      "outputs": [
        {
          "internalType": "uint256",
          "name": "",
          "type": "uint256"
        }
      ],
      "stateMutability": "view",
      "type": "function"
    },
    {
      "inputs": [
        {
          "internalType": "address",
          "name": "nftAddress",
          "type": "address"
        },
        {
          "internalType": "uint256",
          "name": "nftTokenID",
          "type": "uint256"
        }
      ],
      "name": "getNFTLoanId",
      "outputs": [
        {
          "internalType": "uint256",
          "name": "",
          "type": "uint256"
        }
      ],
      "stateMutability": "view",
      "type": "function"
    },
    {
      "inputs": [
        {
          "internalType": "contract IMarketAddressesProvider",
          "name": "addressesProvider",
          "type": "address"
        }
      ],
      "name": "initialize",
      "outputs": [],
      "stateMutability": "nonpayable",
      "type": "function"
    },
    {
      "inputs": [
        {
          "internalType": "uint256",
          "name": "loanId",
          "type": "uint256"
        }
      ],
      "name": "liquidateLoan",
      "outputs": [],
      "stateMutability": "nonpayable",
      "type": "function"
    },
    {
      "inputs": [
        {
          "internalType": "address",
          "name": "",
          "type": "address"
        },
        {
          "internalType": "address",
          "name": "",
          "type": "address"
        },
        {
          "internalType": "uint256",
          "name": "",
          "type": "uint256"
        },
        {
          "internalType": "bytes",
          "name": "",
          "type": "bytes"
        }
      ],
      "name": "onERC721Received",
      "outputs": [
        {
          "internalType": "bytes4",
          "name": "",
          "type": "bytes4"
        }
      ],
      "stateMutability": "pure",
      "type": "function"
    },
    {
      "inputs": [],
      "name": "owner",
      "outputs": [
        {
          "internalType": "address",
          "name": "",
          "type": "address"
        }
      ],
      "stateMutability": "view",
      "type": "function"
    },
    {
      "inputs": [],
      "name": "renounceOwnership",
      "outputs": [],
      "stateMutability": "nonpayable",
      "type": "function"
    },
    {
      "inputs": [
        {
          "internalType": "uint256",
          "name": "loanId",
          "type": "uint256"
        }
      ],
      "name": "repayLoan",
      "outputs": [],
      "stateMutability": "nonpayable",
      "type": "function"
    },
    {
      "inputs": [
        {
          "internalType": "address",
          "name": "newOwner",
          "type": "address"
        }
      ],
      "name": "transferOwnership",
      "outputs": [],
      "stateMutability": "nonpayable",
      "type": "function"
    }
  ],
  "bytecode": "0x608060405234801561001057600080fd5b506122c2806100206000396000f3fe608060405234801561001057600080fd5b506004361061010b5760003560e01c8063715018a6116100a2578063b54cb51011610071578063b54cb510146102ca578063c4d66de8146102fa578063ccdd9f5d14610316578063e7d892bf14610332578063f2fde38b146103625761010b565b8063715018a61461025657806371b60aa2146102605780638da5cb5b14610290578063ab7b1c89146102ae5761010b565b806321fb91cb116100de57806321fb91cb146101be5780632af16c4e146101ee5780634644004d1461020a578063504006ca146102265761010b565b80630bbf145b146101105780630c2452dd146101405780630c97200a14610170578063150b7a021461018e575b600080fd5b61012a60048036038101906101259190611798565b61037e565b60405161013791906117d4565b60405180910390f35b61015a6004803603810190610155919061184d565b6103cd565b60405161016791906117d4565b60405180910390f35b610178610428565b60405161018591906117d4565b60405180910390f35b6101a860048036038101906101a391906118f2565b610432565b6040516101b591906119b5565b60405180910390f35b6101d860048036038101906101d39190611798565b610460565b6040516101e591906117d4565b60405180910390f35b610208600480360381019061020391906119d0565b610480565b005b610224600480360381019061021f9190611798565b6105fd565b005b610240600480360381019061023b9190611798565b61074a565b60405161024d9190611b49565b60405180910390f35b61025e6108e7565b005b61027a60048036038101906102759190611798565b61096f565b60405161028791906117d4565b60405180910390f35b61029861099d565b6040516102a59190611b74565b60405180910390f35b6102c860048036038101906102c39190611798565b6109c7565b005b6102e460048036038101906102df9190611b8f565b610b92565b6040516102f191906117d4565b60405180910390f35b610314600480360381019061030f9190611c5a565b610d58565b005b610330600480360381019061032b9190611798565b610e2e565b005b61034c60048036038101906103479190611798565b610ff9565b6040516103599190611b74565b60405180910390f35b61037c600480360381019061037791906119d0565b611039565b005b600060666000838152602001908152602001600020600201546103bc426066600086815260200190815260200160002061113090919063ffffffff16565b6103c69190611cb6565b9050919050565b6000606560008473ffffffffffffffffffffffffffffffffffffffff1673ffffffffffffffffffffffffffffffffffffffff168152602001908152602001600020600083815260200190815260200160002054905092915050565b6000606754905090565b60007f150b7a023d4804d13e8c85fb27262cb750cf6ba9f9dd3bb30d90f482ceeb4b1f905095945050505050565b600060666000838152602001908152602001600020600401549050919050565b61048861122b565b73ffffffffffffffffffffffffffffffffffffffff166104a661099d565b73ffffffffffffffffffffffffffffffffffffffff16146104fc576040517f08c379a00000000000000000000000000000000000000000000000000000000081526004016104f390611d69565b60405180910390fd5b8073ffffffffffffffffffffffffffffffffffffffff1663a22cb465606860009054906101000a900473ffffffffffffffffffffffffffffffffffffffff1673ffffffffffffffffffffffffffffffffffffffff1663e7334fe56040518163ffffffff1660e01b8152600401602060405180830381865afa158015610585573d6000803e3d6000fd5b505050506040513d601f19601f820116820180604052508101906105a99190611d9e565b60016040518363ffffffff1660e01b81526004016105c8929190611de6565b600060405180830381600087803b1580156105e257600080fd5b505af11580156105f6573d6000803e3d6000fd5b5050505050565b606860009054906101000a900473ffffffffffffffffffffffffffffffffffffffff1673ffffffffffffffffffffffffffffffffffffffff1663e7334fe56040518163ffffffff1660e01b8152600401602060405180830381865afa15801561066a573d6000803e3d6000fd5b505050506040513d601f19601f8201168201806040525081019061068e9190611d9e565b73ffffffffffffffffffffffffffffffffffffffff166106ac61122b565b73ffffffffffffffffffffffffffffffffffffffff1614610702576040517f08c379a00000000000000000000000000000000000000000000000000000000081526004016106f990611e5b565b60405180910390fd5b600060666000838152602001908152602001600020905060028160010160006101000a81548160ff0219169083600481111561074157610740611a0c565b5b02179055505050565b6107526116b8565b6066600083815260200190815260200160002060405180610120016040529081600082015481526020016001820160009054906101000a900460ff1660048111156107a05761079f611a0c565b5b60048111156107b2576107b1611a0c565b5b81526020016001820160019054906101000a900473ffffffffffffffffffffffffffffffffffffffff1673ffffffffffffffffffffffffffffffffffffffff1673ffffffffffffffffffffffffffffffffffffffff168152602001600282015481526020016003820160009054906101000a900473ffffffffffffffffffffffffffffffffffffffff1673ffffffffffffffffffffffffffffffffffffffff1673ffffffffffffffffffffffffffffffffffffffff168152602001600482015481526020016005820160009054906101000a900473ffffffffffffffffffffffffffffffffffffffff1673ffffffffffffffffffffffffffffffffffffffff1673ffffffffffffffffffffffffffffffffffffffff168152602001600682015481526020016007820154815250509050919050565b6108ef61122b565b73ffffffffffffffffffffffffffffffffffffffff1661090d61099d565b73ffffffffffffffffffffffffffffffffffffffff1614610963576040517f08c379a000000000000000000000000000000000000000000000000000000000815260040161095a90611d69565b60405180910390fd5b61096d6000611233565b565b6000610996426066600085815260200190815260200160002061113090919063ffffffff16565b9050919050565b6000603360009054906101000a900473ffffffffffffffffffffffffffffffffffffffff16905090565b606860009054906101000a900473ffffffffffffffffffffffffffffffffffffffff1673ffffffffffffffffffffffffffffffffffffffff1663e7334fe56040518163ffffffff1660e01b8152600401602060405180830381865afa158015610a34573d6000803e3d6000fd5b505050506040513d601f19601f82011682018060405250810190610a589190611d9e565b73ffffffffffffffffffffffffffffffffffffffff16610a7661122b565b73ffffffffffffffffffffffffffffffffffffffff1614610acc576040517f08c379a0000000000000000000000000000000000000000000000000000000008152600401610ac390611e5b565b60405180910390fd5b600060666000838152602001908152602001600020905060038160010160006101000a81548160ff02191690836004811115610b0b57610b0a611a0c565b5b02179055506000606560008360030160009054906101000a900473ffffffffffffffffffffffffffffffffffffffff1673ffffffffffffffffffffffffffffffffffffffff1673ffffffffffffffffffffffffffffffffffffffff168152602001908152602001600020600083600401548152602001908152602001600020819055505050565b6000606860009054906101000a900473ffffffffffffffffffffffffffffffffffffffff1673ffffffffffffffffffffffffffffffffffffffff1663e7334fe56040518163ffffffff1660e01b8152600401602060405180830381865afa158015610c01573d6000803e3d6000fd5b505050506040513d601f19601f82011682018060405250810190610c259190611d9e565b73ffffffffffffffffffffffffffffffffffffffff16610c4361122b565b73ffffffffffffffffffffffffffffffffffffffff1614610c99576040517f08c379a0000000000000000000000000000000000000000000000000000000008152600401610c9090611e5b565b60405180910390fd5b610cce6067548888888888886066600060675481526020019081526020016000206112f990979695949392919063ffffffff16565b606754606560008673ffffffffffffffffffffffffffffffffffffffff1673ffffffffffffffffffffffffffffffffffffffff16815260200190815260200160002060008581526020019081526020016000208190555060676000815480929190610d3890611e7b565b91905055506001606754610d4c9190611ec3565b90509695505050505050565b6000610d646001611426565b90508015610d88576001600060016101000a81548160ff0219169083151502179055505b610d90611516565b81606860006101000a81548173ffffffffffffffffffffffffffffffffffffffff021916908373ffffffffffffffffffffffffffffffffffffffff1602179055508015610e2a5760008060016101000a81548160ff0219169083151502179055507f7f26b83ff96e1f2b6a682f133852f6798a09c465da95921460cefb38474024986001604051610e219190611f49565b60405180910390a15b5050565b606860009054906101000a900473ffffffffffffffffffffffffffffffffffffffff1673ffffffffffffffffffffffffffffffffffffffff1663e7334fe56040518163ffffffff1660e01b8152600401602060405180830381865afa158015610e9b573d6000803e3d6000fd5b505050506040513d601f19601f82011682018060405250810190610ebf9190611d9e565b73ffffffffffffffffffffffffffffffffffffffff16610edd61122b565b73ffffffffffffffffffffffffffffffffffffffff1614610f33576040517f08c379a0000000000000000000000000000000000000000000000000000000008152600401610f2a90611e5b565b60405180910390fd5b600060666000838152602001908152602001600020905060048160010160006101000a81548160ff02191690836004811115610f7257610f71611a0c565b5b02179055506000606560008360030160009054906101000a900473ffffffffffffffffffffffffffffffffffffffff1673ffffffffffffffffffffffffffffffffffffffff1673ffffffffffffffffffffffffffffffffffffffff168152602001908152602001600020600083600401548152602001908152602001600020819055505050565b60006066600083815260200190815260200160002060030160009054906101000a900473ffffffffffffffffffffffffffffffffffffffff169050919050565b61104161122b565b73ffffffffffffffffffffffffffffffffffffffff1661105f61099d565b73ffffffffffffffffffffffffffffffffffffffff16146110b5576040517f08c379a00000000000000000000000000000000000000000000000000000000081526004016110ac90611d69565b60405180910390fd5b600073ffffffffffffffffffffffffffffffffffffffff168173ffffffffffffffffffffffffffffffffffffffff1603611124576040517f08c379a000000000000000000000000000000000000000000000000000000000815260040161111b90611fd6565b60405180910390fd5b61112d81611233565b50565b6000806301e133806305f5e10085600701548561114d9190611ec3565b6111579190611ff6565b611161919061207f565b90506111a26040518060400160405280601081526020017f74696d655370656e74496e5965617273000000000000000000000000000000008152508261156f565b60006127108286600601546111b79190611ff6565b6111c1919061207f565b90506112026040518060400160405280600f81526020017f61636372756564496e74657265737400000000000000000000000000000000008152508261156f565b6305f5e1008186600201546112179190611ff6565b611221919061207f565b9250505092915050565b600033905090565b6000603360009054906101000a900473ffffffffffffffffffffffffffffffffffffffff16905081603360006101000a81548173ffffffffffffffffffffffffffffffffffffffff021916908373ffffffffffffffffffffffffffffffffffffffff1602179055508173ffffffffffffffffffffffffffffffffffffffff168173ffffffffffffffffffffffffffffffffffffffff167f8be0079c531659141344cd1fd0a4f28419497f9722a3daafe3b4186f6b6457e060405160405180910390a35050565b86886000018190555060018860010160006101000a81548160ff0219169083600481111561132a57611329611a0c565b5b0217905550858860010160016101000a81548173ffffffffffffffffffffffffffffffffffffffff021916908373ffffffffffffffffffffffffffffffffffffffff160217905550838860020181905550828860030160006101000a81548173ffffffffffffffffffffffffffffffffffffffff021916908373ffffffffffffffffffffffffffffffffffffffff160217905550818860040181905550808860060181905550848860050160006101000a81548173ffffffffffffffffffffffffffffffffffffffff021916908373ffffffffffffffffffffffffffffffffffffffff1602179055504288600701819055505050505050505050565b60008060019054906101000a900460ff161561149d5760018260ff1614801561145557506114533061160b565b155b611494576040517f08c379a000000000000000000000000000000000000000000000000000000000815260040161148b90612122565b60405180910390fd5b60009050611511565b8160ff1660008054906101000a900460ff1660ff16106114f2576040517f08c379a00000000000000000000000000000000000000000000000000000000081526004016114e990612122565b60405180910390fd5b816000806101000a81548160ff021916908360ff160217905550600190505b919050565b600060019054906101000a900460ff16611565576040517f08c379a000000000000000000000000000000000000000000000000000000000815260040161155c906121b4565b60405180910390fd5b61156d61162e565b565b611607828260405160240161158592919061225c565b6040516020818303038152906040527f9710a9d0000000000000000000000000000000000000000000000000000000007bffffffffffffffffffffffffffffffffffffffffffffffffffffffff19166020820180517bffffffffffffffffffffffffffffffffffffffffffffffffffffffff838183161783525050505061168f565b5050565b6000808273ffffffffffffffffffffffffffffffffffffffff163b119050919050565b600060019054906101000a900460ff1661167d576040517f08c379a0000000000000000000000000000000000000000000000000000000008152600401611674906121b4565b60405180910390fd5b61168d61168861122b565b611233565b565b60008151905060006a636f6e736f6c652e6c6f679050602083016000808483855afa5050505050565b60405180610120016040528060008152602001600060048111156116df576116de611a0c565b5b8152602001600073ffffffffffffffffffffffffffffffffffffffff16815260200160008152602001600073ffffffffffffffffffffffffffffffffffffffff16815260200160008152602001600073ffffffffffffffffffffffffffffffffffffffff16815260200160008152602001600081525090565b600080fd5b600080fd5b6000819050919050565b61177581611762565b811461178057600080fd5b50565b6000813590506117928161176c565b92915050565b6000602082840312156117ae576117ad611758565b5b60006117bc84828501611783565b91505092915050565b6117ce81611762565b82525050565b60006020820190506117e960008301846117c5565b92915050565b600073ffffffffffffffffffffffffffffffffffffffff82169050919050565b600061181a826117ef565b9050919050565b61182a8161180f565b811461183557600080fd5b50565b60008135905061184781611821565b92915050565b6000806040838503121561186457611863611758565b5b600061187285828601611838565b925050602061188385828601611783565b9150509250929050565b600080fd5b600080fd5b600080fd5b60008083601f8401126118b2576118b161188d565b5b8235905067ffffffffffffffff8111156118cf576118ce611892565b5b6020830191508360018202830111156118eb576118ea611897565b5b9250929050565b60008060008060006080868803121561190e5761190d611758565b5b600061191c88828901611838565b955050602061192d88828901611838565b945050604061193e88828901611783565b935050606086013567ffffffffffffffff81111561195f5761195e61175d565b5b61196b8882890161189c565b92509250509295509295909350565b60007fffffffff0000000000000000000000000000000000000000000000000000000082169050919050565b6119af8161197a565b82525050565b60006020820190506119ca60008301846119a6565b92915050565b6000602082840312156119e6576119e5611758565b5b60006119f484828501611838565b91505092915050565b611a0681611762565b82525050565b7f4e487b7100000000000000000000000000000000000000000000000000000000600052602160045260246000fd5b60058110611a4c57611a4b611a0c565b5b50565b6000819050611a5d82611a3b565b919050565b6000611a6d82611a4f565b9050919050565b611a7d81611a62565b82525050565b611a8c8161180f565b82525050565b61012082016000820151611aa960008501826119fd565b506020820151611abc6020850182611a74565b506040820151611acf6040850182611a83565b506060820151611ae260608501826119fd565b506080820151611af56080850182611a83565b5060a0820151611b0860a08501826119fd565b5060c0820151611b1b60c0850182611a83565b5060e0820151611b2e60e08501826119fd565b50610100820151611b436101008501826119fd565b50505050565b600061012082019050611b5f6000830184611a92565b92915050565b611b6e8161180f565b82525050565b6000602082019050611b896000830184611b65565b92915050565b60008060008060008060c08789031215611bac57611bab611758565b5b6000611bba89828a01611838565b9650506020611bcb89828a01611838565b9550506040611bdc89828a01611783565b9450506060611bed89828a01611838565b9350506080611bfe89828a01611783565b92505060a0611c0f89828a01611783565b9150509295509295509295565b6000611c278261180f565b9050919050565b611c3781611c1c565b8114611c4257600080fd5b50565b600081359050611c5481611c2e565b92915050565b600060208284031215611c7057611c6f611758565b5b6000611c7e84828501611c45565b91505092915050565b7f4e487b7100000000000000000000000000000000000000000000000000000000600052601160045260246000fd5b6000611cc182611762565b9150611ccc83611762565b9250827fffffffffffffffffffffffffffffffffffffffffffffffffffffffffffffffff03821115611d0157611d00611c87565b5b828201905092915050565b600082825260208201905092915050565b7f4f776e61626c653a2063616c6c6572206973206e6f7420746865206f776e6572600082015250565b6000611d53602083611d0c565b9150611d5e82611d1d565b602082019050919050565b60006020820190508181036000830152611d8281611d46565b9050919050565b600081519050611d9881611821565b92915050565b600060208284031215611db457611db3611758565b5b6000611dc284828501611d89565b91505092915050565b60008115159050919050565b611de081611dcb565b82525050565b6000604082019050611dfb6000830185611b65565b611e086020830184611dd7565b9392505050565b7f43616c6c6572206d757374206265204d61726b657420636f6e74726163740000600082015250565b6000611e45601e83611d0c565b9150611e5082611e0f565b602082019050919050565b60006020820190508181036000830152611e7481611e38565b9050919050565b6000611e8682611762565b91507fffffffffffffffffffffffffffffffffffffffffffffffffffffffffffffffff8203611eb857611eb7611c87565b5b600182019050919050565b6000611ece82611762565b9150611ed983611762565b925082821015611eec57611eeb611c87565b5b828203905092915050565b6000819050919050565b600060ff82169050919050565b6000819050919050565b6000611f33611f2e611f2984611ef7565b611f0e565b611f01565b9050919050565b611f4381611f18565b82525050565b6000602082019050611f5e6000830184611f3a565b92915050565b7f4f776e61626c653a206e6577206f776e657220697320746865207a65726f206160008201527f6464726573730000000000000000000000000000000000000000000000000000602082015250565b6000611fc0602683611d0c565b9150611fcb82611f64565b604082019050919050565b60006020820190508181036000830152611fef81611fb3565b9050919050565b600061200182611762565b915061200c83611762565b9250817fffffffffffffffffffffffffffffffffffffffffffffffffffffffffffffffff048311821515161561204557612044611c87565b5b828202905092915050565b7f4e487b7100000000000000000000000000000000000000000000000000000000600052601260045260246000fd5b600061208a82611762565b915061209583611762565b9250826120a5576120a4612050565b5b828204905092915050565b7f496e697469616c697a61626c653a20636f6e747261637420697320616c72656160008201527f647920696e697469616c697a6564000000000000000000000000000000000000602082015250565b600061210c602e83611d0c565b9150612117826120b0565b604082019050919050565b6000602082019050818103600083015261213b816120ff565b9050919050565b7f496e697469616c697a61626c653a20636f6e7472616374206973206e6f74206960008201527f6e697469616c697a696e67000000000000000000000000000000000000000000602082015250565b600061219e602b83611d0c565b91506121a982612142565b604082019050919050565b600060208201905081810360008301526121cd81612191565b9050919050565b600081519050919050565b60005b838110156121fd5780820151818401526020810190506121e2565b8381111561220c576000848401525b50505050565b6000601f19601f8301169050919050565b600061222e826121d4565b6122388185611d0c565b93506122488185602086016121df565b61225181612212565b840191505092915050565b600060408201905081810360008301526122768185612223565b905061228560208301846117c5565b939250505056fea2646970667358221220d21b4cd84090563aa7fb652fc1830cacf6f39b5869dc0d5aeaaea2b61095943e64736f6c634300080f0033",
  "linkReferences": {},
  "deployedLinkReferences": {}
}