{
  "_format": "hh-sol-artifact-1",
  "contractName": "LoanCenter",
  "sourceName": "contracts/protocol/Lending/LoanCenter.sol",
  "abi": [
    {
      "inputs": [],
      "stateMutability": "nonpayable",
      "type": "constructor"
    },
    {
      "anonymous": false,
      "inputs": [
        {
          "indexed": false,
          "internalType": "uint8",
          "name": "version",
          "type": "uint8"
        }
      ],
      "name": "Initialized",
      "type": "event"
    },
    {
      "anonymous": false,
      "inputs": [
        {
          "indexed": true,
          "internalType": "address",
          "name": "previousOwner",
          "type": "address"
        },
        {
          "indexed": true,
          "internalType": "address",
          "name": "newOwner",
          "type": "address"
        }
      ],
      "name": "OwnershipTransferred",
      "type": "event"
    },
    {
      "inputs": [
        {
          "internalType": "uint256",
          "name": "loanId",
          "type": "uint256"
        }
      ],
      "name": "activateLoan",
      "outputs": [],
      "stateMutability": "nonpayable",
      "type": "function"
    },
    {
      "inputs": [
        {
          "internalType": "address",
          "name": "collection",
          "type": "address"
        }
      ],
      "name": "approveNFTCollection",
      "outputs": [],
      "stateMutability": "nonpayable",
      "type": "function"
    },
    {
      "inputs": [
        {
          "internalType": "uint256",
          "name": "loanId",
          "type": "uint256"
        },
        {
          "internalType": "address",
          "name": "user",
          "type": "address"
        },
        {
          "internalType": "uint256",
          "name": "bid",
          "type": "uint256"
        }
      ],
      "name": "auctionLoan",
      "outputs": [],
      "stateMutability": "nonpayable",
      "type": "function"
    },
    {
      "inputs": [
        {
          "internalType": "address",
          "name": "pool",
          "type": "address"
        },
        {
          "internalType": "uint256",
          "name": "amount",
          "type": "uint256"
        },
        {
          "internalType": "uint256",
          "name": "genesisNFTId",
          "type": "uint256"
        },
        {
          "internalType": "address",
          "name": "nftAddress",
          "type": "address"
        },
        {
          "internalType": "uint256[]",
          "name": "nftTokenIds",
          "type": "uint256[]"
        },
        {
          "internalType": "uint256",
          "name": "borrowRate",
          "type": "uint256"
        }
      ],
      "name": "createLoan",
      "outputs": [
        {
          "internalType": "uint256",
          "name": "",
          "type": "uint256"
        }
      ],
      "stateMutability": "nonpayable",
      "type": "function"
    },
    {
      "inputs": [
        {
          "internalType": "address",
          "name": "user",
          "type": "address"
        },
        {
          "internalType": "address",
          "name": "collection",
          "type": "address"
        }
      ],
      "name": "getActiveLoansCount",
      "outputs": [
        {
          "internalType": "uint256",
          "name": "",
          "type": "uint256"
        }
      ],
      "stateMutability": "view",
      "type": "function"
    },
    {
      "inputs": [
        {
          "internalType": "address",
          "name": "collection",
          "type": "address"
        }
      ],
      "name": "getCollectionLiquidationThreshold",
      "outputs": [
        {
          "internalType": "uint256",
          "name": "",
          "type": "uint256"
        }
      ],
      "stateMutability": "view",
      "type": "function"
    },
    {
      "inputs": [
        {
          "internalType": "address",
          "name": "collection",
          "type": "address"
        }
      ],
      "name": "getCollectionMaxLTV",
      "outputs": [
        {
          "internalType": "uint256",
          "name": "",
          "type": "uint256"
        }
      ],
      "stateMutability": "view",
      "type": "function"
    },
    {
      "inputs": [
        {
          "internalType": "uint256",
          "name": "loanId",
          "type": "uint256"
        }
      ],
      "name": "getLoan",
      "outputs": [
        {
          "components": [
            {
              "internalType": "uint256",
              "name": "amount",
              "type": "uint256"
            },
            {
              "internalType": "uint256",
              "name": "genesisNFTId",
              "type": "uint256"
            },
            {
              "internalType": "uint256[]",
              "name": "nftTokenIds",
              "type": "uint256[]"
            },
            {
              "internalType": "address",
              "name": "nftAsset",
              "type": "address"
            },
            {
              "internalType": "uint16",
              "name": "borrowRate",
              "type": "uint16"
            },
            {
              "internalType": "uint40",
              "name": "initTimestamp",
              "type": "uint40"
            },
            {
              "internalType": "uint40",
              "name": "debtTimestamp",
              "type": "uint40"
            },
            {
              "internalType": "address",
              "name": "pool",
              "type": "address"
            },
            {
              "internalType": "enum DataTypes.LoanState",
              "name": "state",
              "type": "uint8"
            }
          ],
          "internalType": "struct DataTypes.LoanData",
          "name": "",
          "type": "tuple"
        }
      ],
      "stateMutability": "view",
      "type": "function"
    },
    {
      "inputs": [
        {
          "internalType": "uint256",
          "name": "loanId",
          "type": "uint256"
        }
      ],
      "name": "getLoanCollectionAddress",
      "outputs": [
        {
          "internalType": "address",
          "name": "",
          "type": "address"
        }
      ],
      "stateMutability": "view",
      "type": "function"
    },
    {
      "inputs": [
        {
          "internalType": "uint256",
          "name": "loanId",
          "type": "uint256"
        }
      ],
      "name": "getLoanDebt",
      "outputs": [
        {
          "internalType": "uint256",
          "name": "",
          "type": "uint256"
        }
      ],
      "stateMutability": "view",
      "type": "function"
    },
    {
      "inputs": [
        {
          "internalType": "uint256",
          "name": "loanId",
          "type": "uint256"
        }
      ],
      "name": "getLoanInterest",
      "outputs": [
        {
          "internalType": "uint256",
          "name": "",
          "type": "uint256"
        }
      ],
      "stateMutability": "view",
      "type": "function"
    },
    {
      "inputs": [
        {
          "internalType": "uint256",
          "name": "loanId",
          "type": "uint256"
        }
      ],
      "name": "getLoanLendingPool",
      "outputs": [
        {
          "internalType": "address",
          "name": "",
          "type": "address"
        }
      ],
      "stateMutability": "view",
      "type": "function"
    },
    {
      "inputs": [
        {
          "internalType": "uint256",
          "name": "loanId",
          "type": "uint256"
        }
      ],
      "name": "getLoanLiquidationData",
      "outputs": [
        {
          "components": [
            {
              "internalType": "address",
              "name": "auctioner",
              "type": "address"
            },
            {
              "internalType": "address",
              "name": "liquidator",
              "type": "address"
            },
            {
              "internalType": "uint40",
              "name": "auctionStartTimestamp",
              "type": "uint40"
            },
            {
              "internalType": "uint256",
              "name": "auctionMaxBid",
              "type": "uint256"
            }
          ],
          "internalType": "struct DataTypes.LoanLiquidationData",
          "name": "",
          "type": "tuple"
        }
      ],
      "stateMutability": "view",
      "type": "function"
    },
    {
      "inputs": [
        {
          "internalType": "uint256",
          "name": "loanId",
          "type": "uint256"
        },
        {
          "internalType": "uint256",
          "name": "tokensPrice",
          "type": "uint256"
        }
      ],
      "name": "getLoanMaxDebt",
      "outputs": [
        {
          "internalType": "uint256",
          "name": "",
          "type": "uint256"
        }
      ],
      "stateMutability": "view",
      "type": "function"
    },
    {
      "inputs": [
        {
          "internalType": "uint256",
          "name": "loanId",
          "type": "uint256"
        }
      ],
      "name": "getLoanTokenIds",
      "outputs": [
        {
          "internalType": "uint256[]",
          "name": "",
          "type": "uint256[]"
        }
      ],
      "stateMutability": "view",
      "type": "function"
    },
    {
      "inputs": [],
      "name": "getLoansCount",
      "outputs": [
        {
          "internalType": "uint256",
          "name": "",
          "type": "uint256"
        }
      ],
      "stateMutability": "view",
      "type": "function"
    },
    {
      "inputs": [
        {
          "internalType": "address",
          "name": "nftAddress",
          "type": "address"
        },
        {
          "internalType": "uint256",
          "name": "nftTokenId",
          "type": "uint256"
        }
      ],
      "name": "getNFTLoanId",
      "outputs": [
        {
          "internalType": "uint256",
          "name": "",
          "type": "uint256"
        }
      ],
      "stateMutability": "view",
      "type": "function"
    },
    {
      "inputs": [
        {
          "internalType": "contract IAddressesProvider",
          "name": "addressesProvider",
          "type": "address"
        },
        {
          "components": [
            {
              "internalType": "uint16",
              "name": "maxLTV",
              "type": "uint16"
            },
            {
              "internalType": "uint16",
              "name": "liquidationThreshold",
              "type": "uint16"
            }
          ],
          "internalType": "struct DataTypes.CollectionRiskParameters",
          "name": "defaultCollectionsRiskParameters",
          "type": "tuple"
        }
      ],
      "name": "initialize",
      "outputs": [],
      "stateMutability": "nonpayable",
      "type": "function"
    },
    {
      "inputs": [
        {
          "internalType": "uint256",
          "name": "loanId",
          "type": "uint256"
        }
      ],
      "name": "liquidateLoan",
      "outputs": [],
      "stateMutability": "nonpayable",
      "type": "function"
    },
    {
      "inputs": [
        {
          "internalType": "address",
          "name": "",
          "type": "address"
        },
        {
          "internalType": "address",
          "name": "",
          "type": "address"
        },
        {
          "internalType": "uint256",
          "name": "",
          "type": "uint256"
        },
        {
          "internalType": "bytes",
          "name": "",
          "type": "bytes"
        }
      ],
      "name": "onERC721Received",
      "outputs": [
        {
          "internalType": "bytes4",
          "name": "",
          "type": "bytes4"
        }
      ],
      "stateMutability": "nonpayable",
      "type": "function"
    },
    {
      "inputs": [],
      "name": "owner",
      "outputs": [
        {
          "internalType": "address",
          "name": "",
          "type": "address"
        }
      ],
      "stateMutability": "view",
      "type": "function"
    },
    {
      "inputs": [],
      "name": "renounceOwnership",
      "outputs": [],
      "stateMutability": "nonpayable",
      "type": "function"
    },
    {
      "inputs": [
        {
          "internalType": "uint256",
          "name": "loanId",
          "type": "uint256"
        }
      ],
      "name": "repayLoan",
      "outputs": [],
      "stateMutability": "nonpayable",
      "type": "function"
    },
    {
      "inputs": [
        {
          "internalType": "address",
          "name": "collection",
          "type": "address"
        },
        {
          "internalType": "uint256",
          "name": "maxLTV",
          "type": "uint256"
        },
        {
          "internalType": "uint256",
          "name": "liquidationThreshold",
          "type": "uint256"
        }
      ],
      "name": "setCollectionRiskParameters",
      "outputs": [],
      "stateMutability": "nonpayable",
      "type": "function"
    },
    {
      "inputs": [
        {
          "internalType": "address",
          "name": "newOwner",
          "type": "address"
        }
      ],
      "name": "transferOwnership",
      "outputs": [],
      "stateMutability": "nonpayable",
      "type": "function"
    },
    {
      "inputs": [
        {
          "internalType": "uint256",
          "name": "loanId",
          "type": "uint256"
        },
        {
          "internalType": "uint256",
          "name": "newAmount",
          "type": "uint256"
        }
      ],
      "name": "updateLoanAmount",
      "outputs": [],
      "stateMutability": "nonpayable",
      "type": "function"
    },
    {
      "inputs": [
        {
          "internalType": "uint256",
          "name": "loanId",
          "type": "uint256"
        },
        {
          "internalType": "address",
          "name": "user",
          "type": "address"
        },
        {
          "internalType": "uint256",
          "name": "bid",
          "type": "uint256"
        }
      ],
      "name": "updateLoanAuctionBid",
      "outputs": [],
      "stateMutability": "nonpayable",
      "type": "function"
    },
    {
      "inputs": [
        {
          "internalType": "uint256",
          "name": "loanId",
          "type": "uint256"
        },
        {
          "internalType": "uint256",
          "name": "newDebtTimestamp",
          "type": "uint256"
        }
      ],
      "name": "updateLoanDebtTimestamp",
      "outputs": [],
      "stateMutability": "nonpayable",
      "type": "function"
    }
  ],
  "bytecode": "0x608080604052346100c1576000549060ff8260081c1661006f575060ff80821610610034575b604051611c1e90816100c78239f35b60ff90811916176000557f7f26b83ff96e1f2b6a682f133852f6798a09c465da95921460cefb3847402498602060405160ff8152a138610025565b62461bcd60e51b815260206004820152602760248201527f496e697469616c697a61626c653a20636f6e747261637420697320696e697469604482015266616c697a696e6760c81b6064820152608490fd5b600080fdfe6080604052600436101561001257600080fd5b60003560e01c80630a8ef399146101d75780630bbf145b146101d25780630c2452dd146101cd5780630c367448146101c85780630c97200a146101c3578063150b7a02146101be57806320a349c9146101b95780632af16c4e146101b45780633e4d92e2146101af5780633f4b8d42146101aa5780634644004d146101a557806349e9781e146101a05780634b496b091461019b5780634dbb2b7b14610196578063504006ca146101915780636df0d3271461018c578063715018a61461018757806371b60aa2146101825780637896c0ea1461017d57806378d77f721461017857806379938914146101735780638da5cb5b1461016e5780639545773c14610169578063ab7b1c8914610164578063af03b4201461015f578063ccdd9f5d1461015a578063ccff44f1146101555763f2fde38b1461015057600080fd5b611350565b611304565b611250565b611229565b611088565b611025565b610ffc565b610f56565b610efc565b610ea8565b610e56565b610df5565b610cf5565b610c56565b610ad8565b610a0d565b61095b565b6107fd565b61079f565b6106ec565b6105ef565b610555565b6104ba565b610403565b6103c9565b61037e565b6102eb565b6101f2565b6001600160a01b038116036101ed57565b600080fd5b346101ed5760603660031901126101ed5760043561020f816101dc565b60403660231901126101ed5761025f6000549161024360ff8460081c1615809481956102dd575b81156102bd575b50611482565b82610256600160ff196000541617600055565b6102a4576114e5565b61026557005b61027561ff001960005416600055565b604051600181527f7f26b83ff96e1f2b6a682f133852f6798a09c465da95921460cefb384740249890602090a1005b6102b861010061ff00196000541617600055565b6114e5565b303b159150816102cf575b503861023d565b6001915060ff1614386102c8565b600160ff8216109150610236565b346101ed5760203660031901126101ed576004356000818152609860205260ff600460408320015460a01c16600681101561036a579061032e60409215156118d8565b82815260986020526103438282204290611a76565b92815260986020522054810180911161036557604051908152602090f35b0390f35b6116cd565b634e487b7160e01b82526021600452602482fd5b346101ed5760403660031901126101ed5760043561039b816101dc565b60018060a01b0316600052609760205260406000206024356000526020526020604060002054604051908152f35b346101ed5760203660031901126101ed5760206103f06004356103eb816101dc565b611add565b604051908152f35b60009103126101ed57565b346101ed5760003660031901126101ed576020609a54604051908152f35b634e487b7160e01b600052604160045260246000fd5b67ffffffffffffffff811161044b57604052565b610421565b6080810190811067ffffffffffffffff82111761044b57604052565b610120810190811067ffffffffffffffff82111761044b57604052565b90601f8019910116810190811067ffffffffffffffff82111761044b57604052565b604051906104b88261046c565b565b346101ed5760803660031901126101ed576104d66004356101dc565b6104e16024356101dc565b67ffffffffffffffff6064358181116101ed57366023820112156101ed57806004013591821161044b5760405191610523601f8201601f191660200184610489565b80835236602482840101116101ed576000928160246020940184830137010152604051630a85bd0160e11b8152602090f35b346101ed5760203660031901126101ed5760043580600052609860205260ff60046040600020015460a01c1660068110156105d95760036105b1610361936105a16105bf9415156118d8565b6000526098602052604060002090565b01546001600160a01b031690565b6040516001600160a01b0390911681529081906020820190565b634e487b7160e01b600052602160045260246000fd5b346101ed5760203660031901126101ed576004803561060d816101dc565b610615611b45565b609b546001600160a01b039182169160209161063991165b6001600160a01b031690565b6040516302690e7760e11b815293849182905afa9182156106b7576000926106bc575b50803b156101ed5760405163a22cb46560e01b81526001600160a01b038316600482015260016024820152906000908290604490829084905af180156106b7576106a257005b806106af6106b592610437565b806103f8565b005b6118a7565b6106de91925060203d81116106e5575b6106d68183610489565b810190611892565b903861065c565b503d6106cc565b346101ed5760403660031901126101ed57600435610708611b45565b600090808252609860205260ff600460408420015460a01c166006811015610750576107359015156118d8565b61074c602435916000526098602052604060002090565b5580f35b634e487b7160e01b83526021600452602483fd5b6020908160408183019282815285518094520193019160005b82811061078b575050505090565b83518552938101939281019260010161077d565b346101ed5760203660031901126101ed5760043580600052609860205260ff60046040600020015460a01c1660068110156105d95760026107eb610361936105a16107f19415156118d8565b0161191b565b60405191829182610764565b346101ed576020806003193601126101ed5760043561081a611b45565b61082e816000526098602052604060002090565b60048101805460ff60a01b1916600160a11b17905590609b54600490849061085e906001600160a01b031661062d565b604051630ea66d7d60e11b815292839182905afa9182156106b7576108a892859260009161093e575b5060405180809581946331a9108f60e11b8352600483019190602083019252565b03916001600160a01b03165afa9081156106b7576108ee6108fd9260039261091396600092610921575b50506001600160a01b03166000908152609c6020526040902090565b9201546001600160a01b031690565b60018060a01b0316600052602052604060002090565b61091d81546116e3565b9055005b6109379250803d106106e5576106d68183610489565b38806108d2565b6109559150833d85116106e5576106d68183610489565b38610887565b346101ed5760c03660031901126101ed57600435610978816101dc565b606435610984816101dc565b60843567ffffffffffffffff8082116101ed57366023830112156101ed5781600401359081116101ed573660248260051b840101116101ed57610361936109da93602460a43594019160443590602435906115e3565b6040519081529081906020820190565b60609060031901126101ed5760043590602435610a06816101dc565b9060443590565b346101ed576002610a1d366109ea565b610a28939193611b45565b6000838152609860205260408120600401805460ff60a01b1916600160a21b1790559360405193610a5885610450565b6001600160a01b0391821680865260208087019182524264ffffffffff166040808901918252606089019687529389526099909152918720955186546001600160a01b03191690841617865551600186018054925164ffffffffff60a01b60a09190911b166001600160c81b031990931691909316171790555191015580f35b346101ed5760403660031901126101ed57600435610af4611b45565b600090808252609860205260ff600460408420015460a01c1660068110156107505790610b25610b699215156118d8565b6003610b4564ffffffffff60243516926000526098602052604060002090565b0180546001600160d81b031660d89290921b6001600160d81b031916919091179055565b80f35b90815180825260208080930193019160005b828110610b8c575050505090565b835185529381019392810192600101610b7e565b600611156105d957565b9060068210156105d95752565b610c53906020815282516020820152602083015160408201526040830151610bed61012091826060850152610140840190610b6c565b60608501516001600160a01b0316608084015293608081015161ffff1660a084015260a081015164ffffffffff1660c084015260c081015164ffffffffff1660e084015260e08101516001600160a01b0316610100848101919091520151910190610baa565b90565b346101ed5760203660031901126101ed57610361610ce9610ce46004356105a1610cd4600460406101008151610c8b8161046c565b60009181838093528260208201526060858201528260608201528260808201528260a08201528260c08201528260e082015201528581526098602052200160ff905460a01c1690565b610cdd81610ba0565b15156118d8565b611976565b60405191829182610bb7565b346101ed5760203660031901126101ed57600435600460ff81604060608151610d1d81610450565b600091818380935282602082015282858201520152858152609860205220015460a01c16610d4a81610ba0565b03610db057610d6e610d69610361926000526099602052604060002090565b611a12565b60405191829182919091606080608083019460018060a01b03808251168552602082015116602085015264ffffffffff60408201511660408501520151910152565b60405162461bcd60e51b815260206004820152601c60248201527f4c6f616e206973206e6f74206265696e672061756374696f6e65642e000000006044820152606490fd5b346101ed57600080600319360112610e5357610e0f6113e1565b606580546001600160a01b0319811690915581906001600160a01b03167f8be0079c531659141344cd1fd0a4f28419497f9722a3daafe3b4186f6b6457e08280a380f35b80fd5b346101ed5760203660031901126101ed5760043580600052609860205260ff60046040600020015460a01c169060068210156105d957610ea16109da916105a16103619415156118d8565b4290611a76565b346101ed576002610eb8366109ea565b9291610ec2611b45565b6000526099602052610ef8604060002091600183019060018060a01b03166bffffffffffffffffffffffff60a01b825416179055565b0155005b346101ed5760403660031901126101ed5760043580600052609860205260ff60046040600020015460a01c1660068110156105d957610f4e6103eb60036105b1610361956105a16109da9615156118d8565b602435611a58565b346101ed5760603660031901126101ed57600435610f73816101dc565b610f7b6113e1565b604051604081019181831067ffffffffffffffff84111761044b576106b59260405261ffff908160243516835260208301908260443516825260018060a01b0316600052609d602052610fe2826040600020945116849061ffff1661ffff19825416179055565b51825463ffff00001916911660101b63ffff000016179055565b346101ed5760003660031901126101ed576065546040516001600160a01b039091168152602090f35b346101ed5760403660031901126101ed57602061107f600435611047816101dc565b60243590611054826101dc565b60018060a01b0316600052609c835260406000209060018060a01b0316600052602052604060002090565b54604051908152f35b346101ed576020806003193601126101ed57600435906110a6611b45565b6110ba826000526098602052604060002090565b60048101805460ff60a01b1916600360a01b179055906002820180546003909301549092906001600160a01b03169260005b8281106111d6575050609b54600491508290611110906001600160a01b031661062d565b604051630ea66d7d60e11b815292839182905afa9384156106b75761115a9483926000916111b9575b5060405180809781946331a9108f60e11b8352600483019190602083019252565b03916001600160a01b03165afa80156106b7576111af93611198926000926109215750506001600160a01b03166000908152609c6020526040902090565b9060018060a01b0316600052602052604060002090565b61091d81546118cb565b6111d09150833d85116106e5576106d68183610489565b38611139565b6001600160a01b038516600090815260976020526040812061122492919061121e905b61121061120685886118b3565b90549060031b1c90565b600052602052604060002090565b556116e3565b6110ec565b346101ed5760203660031901126101ed5760206103f060043561124b816101dc565b611b13565b346101ed576020806003193601126101ed576004359061126e611b45565b611282826000526098602052604060002090565b60048101805460ff60a01b1916600560a01b179055906002820180546003909301549092906001600160a01b03169260005b8281106112d8575050609b54600491508290611110906001600160a01b031661062d565b6001600160a01b03851660009081526097602052604081206112ff92919061121e906111f9565b6112b4565b346101ed5760203660031901126101ed5760043580600052609860205260ff60046040600020015460a01c1660068110156105d95760046105b1610361936105a16105bf9415156118d8565b346101ed5760203660031901126101ed5760043561136d816101dc565b6113756113e1565b6001600160a01b0381161561138d576106b590611439565b60405162461bcd60e51b815260206004820152602660248201527f4f776e61626c653a206e6577206f776e657220697320746865207a65726f206160448201526564647265737360d01b6064820152608490fd5b6065546001600160a01b031633036113f557565b606460405162461bcd60e51b815260206004820152602060248201527f4f776e61626c653a2063616c6c6572206973206e6f7420746865206f776e65726044820152fd5b606580546001600160a01b039283166001600160a01b0319821681179092559091167f8be0079c531659141344cd1fd0a4f28419497f9722a3daafe3b4186f6b6457e0600080a3565b1561148957565b60405162461bcd60e51b815260206004820152602e60248201527f496e697469616c697a61626c653a20636f6e747261637420697320616c72656160448201526d191e481a5b9a5d1a585b1a5e995960921b6064820152608490fd5b6114ff60ff60005460081c166114fa81611572565b611572565b61150833611439565b6115106115d2565b6115186115d2565b60018060a01b03166bffffffffffffffffffffffff60a01b609b541617609b5560243561ffff908181168091036101ed57609e549160443590811681036101ed5763ffff00009060101b169163ffffffff19161717609e55565b1561157957565b60405162461bcd60e51b815260206004820152602b60248201527f496e697469616c697a61626c653a20636f6e7472616374206973206e6f74206960448201526a6e697469616c697a696e6760a81b6064820152608490fd5b6104b860ff60005460081c16611572565b9095919392936115f1611b45565b609a96875460005260209260988452604060002067ffffffffffffffff891161044b578860051b946040519561162982820188610489565b8a875288018187013682116101ed5797969593918a9593918a5b8181106116bb575050506116579750611730565b60005b838110611677575050505054610c53611672826116e3565b609a55565b6116b690855461121e61169c8660018060a01b03166000526097602052604060002090565b6116a7848988611708565b35600052602052604060002090565b61165a565b80358b52998201998c97508201611643565b634e487b7160e01b600052601160045260246000fd5b60001981146103655760010190565b634e487b7160e01b600052603260045260246000fd5b91908110156117185760051b0190565b6116f2565b8181029291811591840414171561036557565b60048101805460ff60a01b1916600160a01b178155949691959193926002919081556001808201949094556003810180546001600160a01b0319166001600160a01b039099169890981788550181519167ffffffffffffffff831161044b5768010000000000000000831161044b578154838355808410611867575b506117c1602080920192600052602060002090565b9060005b848110611856575050875461ffff60a01b191660a09590951b61ffff60a01b16949094178755506104b895946118209490935091506118019050565b80546001600160a01b0319166001600160a01b03909216919091179055565b80544260b081901b64ffffffffff60b01b166001600160b01b039092169190911760d89190911b6001600160d81b031916179055565b8351838201559281019285016117c5565b600083815285856020832093840193015b838110611887575050506117ac565b828155018690611878565b908160209103126101ed5751610c53816101dc565b6040513d6000823e3d90fd5b80548210156117185760005260206000200190600090565b8015610365576000190190565b156118df57565b60405162461bcd60e51b81526020600482015260146024820152732637b0b7103237b2b9903737ba1032bc34b9ba1760611b6044820152606490fd5b9060405191828154918282526020928383019160005283600020936000905b828210611950575050506104b892500383610489565b85548452600195860195889550938101939091019061193a565b60068210156105d95752565b906104b860ff6119846104ab565b93805485526001810154602086015261199f6002820161191b565b604086015260038101546001600160a01b03808216606088015291611a0491600491906119ef9060a081901c61ffff1660808b015260b081901c64ffffffffff1660a08b015260d81c60c08a0152565b01549182166001600160a01b031660e0870152565b60a01c16610100840161196a565b90604051611a1f81610450565b82546001600160a01b0390811682526001840154908116602083015260a01c64ffffffffff166040820152600292909201546060830152565b816113881904811115821517156101ed576127109102611388010490565b600019820191821161036557610708809204600181018091116103655782810292818404149015171561036557611abc600382549201549161ffff8360a01c169061171d565b9060d81c82039182116103655764496cebb80091611ad99161171d565b0490565b6001600160a01b03166000908152609d602052604090205461ffff9081811615611b085760101c1690565b50609e5460101c1690565b6001600160a01b03166000908152609d602052604090205461ffff908116908115611b3c575090565b9050609e541690565b609b546040516302690e7760e11b81526001600160a01b03916020908290600490829086165afa9081156106b757600091611bca575b50163303611b8557565b60405162461bcd60e51b815260206004820152601e60248201527f43616c6c6572206d757374206265204d61726b657420636f6e747261637400006044820152606490fd5b611be2915060203d81116106e5576106d68183610489565b38611b7b56fea264697066735822122074d57a3a550558b241f5707775d00af1536b8a1b1f1eadda003608e9ad2f326364736f6c63430008130033",
  "linkReferences": {},
  "deployedLinkReferences": {}
}