{
  "_format": "hh-sol-artifact-1",
  "contractName": "LoanCenter",
  "sourceName": "contracts/protocol/LoanCenter.sol",
  "abi": [
    {
      "anonymous": false,
      "inputs": [
        {
          "indexed": false,
          "internalType": "uint8",
          "name": "version",
          "type": "uint8"
        }
      ],
      "name": "Initialized",
      "type": "event"
    },
    {
      "anonymous": false,
      "inputs": [
        {
          "indexed": true,
          "internalType": "address",
          "name": "previousOwner",
          "type": "address"
        },
        {
          "indexed": true,
          "internalType": "address",
          "name": "newOwner",
          "type": "address"
        }
      ],
      "name": "OwnershipTransferred",
      "type": "event"
    },
    {
      "inputs": [
        {
          "internalType": "uint256",
          "name": "loanId",
          "type": "uint256"
        }
      ],
      "name": "activateLoan",
      "outputs": [],
      "stateMutability": "nonpayable",
      "type": "function"
    },
    {
      "inputs": [
        {
          "internalType": "address",
          "name": "collection",
          "type": "address"
        }
      ],
      "name": "approveNFTCollection",
      "outputs": [],
      "stateMutability": "nonpayable",
      "type": "function"
    },
    {
      "inputs": [
        {
          "internalType": "address",
          "name": "borrower",
          "type": "address"
        },
        {
          "internalType": "address",
          "name": "reserve",
          "type": "address"
        },
        {
          "internalType": "uint256",
          "name": "amount",
          "type": "uint256"
        },
        {
          "internalType": "address",
          "name": "nftAddress",
          "type": "address"
        },
        {
          "internalType": "uint256",
          "name": "nftTokenID",
          "type": "uint256"
        },
        {
          "internalType": "uint256",
          "name": "borrowRate",
          "type": "uint256"
        }
      ],
      "name": "createLoan",
      "outputs": [
        {
          "internalType": "uint256",
          "name": "",
          "type": "uint256"
        }
      ],
      "stateMutability": "nonpayable",
      "type": "function"
    },
    {
      "inputs": [
        {
          "internalType": "uint256",
          "name": "loanId",
          "type": "uint256"
        }
      ],
      "name": "getLoan",
      "outputs": [
        {
          "components": [
            {
              "internalType": "uint256",
              "name": "loanId",
              "type": "uint256"
            },
            {
              "internalType": "enum DataTypes.LoanState",
              "name": "state",
              "type": "uint8"
            },
            {
              "internalType": "address",
              "name": "borrower",
              "type": "address"
            },
            {
              "internalType": "uint256",
              "name": "amount",
              "type": "uint256"
            },
            {
              "internalType": "address",
              "name": "nftAsset",
              "type": "address"
            },
            {
              "internalType": "uint256",
              "name": "nftTokenId",
              "type": "uint256"
            },
            {
              "internalType": "address",
              "name": "reserve",
              "type": "address"
            },
            {
              "internalType": "uint256",
              "name": "borrowRate",
              "type": "uint256"
            },
            {
              "internalType": "uint256",
              "name": "initTimestamp",
              "type": "uint256"
            }
          ],
          "internalType": "struct DataTypes.LoanData",
          "name": "",
          "type": "tuple"
        }
      ],
      "stateMutability": "view",
      "type": "function"
    },
    {
      "inputs": [
        {
          "internalType": "uint256",
          "name": "loanId",
          "type": "uint256"
        }
      ],
      "name": "getLoanDebt",
      "outputs": [
        {
          "internalType": "uint256",
          "name": "",
          "type": "uint256"
        }
      ],
      "stateMutability": "view",
      "type": "function"
    },
    {
      "inputs": [
        {
          "internalType": "uint256",
          "name": "loanId",
          "type": "uint256"
        }
      ],
      "name": "getLoanInterest",
      "outputs": [
        {
          "internalType": "uint256",
          "name": "",
          "type": "uint256"
        }
      ],
      "stateMutability": "view",
      "type": "function"
    },
    {
      "inputs": [
        {
          "internalType": "uint256",
          "name": "loanId",
          "type": "uint256"
        }
      ],
      "name": "getLoanTokenAddress",
      "outputs": [
        {
          "internalType": "address",
          "name": "",
          "type": "address"
        }
      ],
      "stateMutability": "view",
      "type": "function"
    },
    {
      "inputs": [
        {
          "internalType": "uint256",
          "name": "loanId",
          "type": "uint256"
        }
      ],
      "name": "getLoanTokenId",
      "outputs": [
        {
          "internalType": "uint256",
          "name": "",
          "type": "uint256"
        }
      ],
      "stateMutability": "view",
      "type": "function"
    },
    {
      "inputs": [],
      "name": "getLoansCount",
      "outputs": [
        {
          "internalType": "uint256",
          "name": "",
          "type": "uint256"
        }
      ],
      "stateMutability": "view",
      "type": "function"
    },
    {
      "inputs": [
        {
          "internalType": "address",
          "name": "nftAddress",
          "type": "address"
        },
        {
          "internalType": "uint256",
          "name": "nftTokenID",
          "type": "uint256"
        }
      ],
      "name": "getNFTLoanId",
      "outputs": [
        {
          "internalType": "uint256",
          "name": "",
          "type": "uint256"
        }
      ],
      "stateMutability": "view",
      "type": "function"
    },
    {
      "inputs": [
        {
          "internalType": "contract IMarketAddressesProvider",
          "name": "addressesProvider",
          "type": "address"
        }
      ],
      "name": "initialize",
      "outputs": [],
      "stateMutability": "nonpayable",
      "type": "function"
    },
    {
      "inputs": [
        {
          "internalType": "uint256",
          "name": "loanId",
          "type": "uint256"
        }
      ],
      "name": "liquidateLoan",
      "outputs": [],
      "stateMutability": "nonpayable",
      "type": "function"
    },
    {
      "inputs": [
        {
          "internalType": "address",
          "name": "",
          "type": "address"
        },
        {
          "internalType": "address",
          "name": "",
          "type": "address"
        },
        {
          "internalType": "uint256",
          "name": "",
          "type": "uint256"
        },
        {
          "internalType": "bytes",
          "name": "",
          "type": "bytes"
        }
      ],
      "name": "onERC721Received",
      "outputs": [
        {
          "internalType": "bytes4",
          "name": "",
          "type": "bytes4"
        }
      ],
      "stateMutability": "pure",
      "type": "function"
    },
    {
      "inputs": [],
      "name": "owner",
      "outputs": [
        {
          "internalType": "address",
          "name": "",
          "type": "address"
        }
      ],
      "stateMutability": "view",
      "type": "function"
    },
    {
      "inputs": [],
      "name": "renounceOwnership",
      "outputs": [],
      "stateMutability": "nonpayable",
      "type": "function"
    },
    {
      "inputs": [
        {
          "internalType": "uint256",
          "name": "loanId",
          "type": "uint256"
        }
      ],
      "name": "repayLoan",
      "outputs": [],
      "stateMutability": "nonpayable",
      "type": "function"
    },
    {
      "inputs": [
        {
          "internalType": "address",
          "name": "newOwner",
          "type": "address"
        }
      ],
      "name": "transferOwnership",
      "outputs": [],
      "stateMutability": "nonpayable",
      "type": "function"
    }
  ],
  "bytecode": "0x608060405234801561001057600080fd5b506120c7806100206000396000f3fe608060405234801561001057600080fd5b506004361061010b5760003560e01c8063715018a6116100a2578063b54cb51011610071578063b54cb510146102ca578063c4d66de8146102fa578063ccdd9f5d14610316578063e7d892bf14610332578063f2fde38b146103625761010b565b8063715018a61461025657806371b60aa2146102605780638da5cb5b14610290578063ab7b1c89146102ae5761010b565b806321fb91cb116100de57806321fb91cb146101be5780632af16c4e146101ee5780634644004d1461020a578063504006ca146102265761010b565b80630bbf145b146101105780630c2452dd146101405780630c97200a14610170578063150b7a021461018e575b600080fd5b61012a60048036038101906101259190611655565b61037e565b6040516101379190611691565b60405180910390f35b61015a6004803603810190610155919061170a565b6103cd565b6040516101679190611691565b60405180910390f35b610178610428565b6040516101859190611691565b60405180910390f35b6101a860048036038101906101a391906117af565b610432565b6040516101b59190611872565b60405180910390f35b6101d860048036038101906101d39190611655565b610460565b6040516101e59190611691565b60405180910390f35b6102086004803603810190610203919061188d565b610480565b005b610224600480360381019061021f9190611655565b6105fd565b005b610240600480360381019061023b9190611655565b61074a565b60405161024d9190611a06565b60405180910390f35b61025e6108e7565b005b61027a60048036038101906102759190611655565b61096f565b6040516102879190611691565b60405180910390f35b61029861099d565b6040516102a59190611a31565b60405180910390f35b6102c860048036038101906102c39190611655565b6109c7565b005b6102e460048036038101906102df9190611a4c565b610b92565b6040516102f19190611691565b60405180910390f35b610314600480360381019061030f9190611b17565b610d58565b005b610330600480360381019061032b9190611655565b610e2e565b005b61034c60048036038101906103479190611655565b610ff9565b6040516103599190611a31565b60405180910390f35b61037c6004803603810190610377919061188d565b611039565b005b600060666000838152602001908152602001600020600201546103bc426066600086815260200190815260200160002061113090919063ffffffff16565b6103c69190611b73565b9050919050565b6000606560008473ffffffffffffffffffffffffffffffffffffffff1673ffffffffffffffffffffffffffffffffffffffff168152602001908152602001600020600083815260200190815260200160002054905092915050565b6000606754905090565b60007f150b7a023d4804d13e8c85fb27262cb750cf6ba9f9dd3bb30d90f482ceeb4b1f905095945050505050565b600060666000838152602001908152602001600020600401549050919050565b6104886111ad565b73ffffffffffffffffffffffffffffffffffffffff166104a661099d565b73ffffffffffffffffffffffffffffffffffffffff16146104fc576040517f08c379a00000000000000000000000000000000000000000000000000000000081526004016104f390611c26565b60405180910390fd5b8073ffffffffffffffffffffffffffffffffffffffff1663a22cb465606860009054906101000a900473ffffffffffffffffffffffffffffffffffffffff1673ffffffffffffffffffffffffffffffffffffffff1663e7334fe56040518163ffffffff1660e01b8152600401602060405180830381865afa158015610585573d6000803e3d6000fd5b505050506040513d601f19601f820116820180604052508101906105a99190611c5b565b60016040518363ffffffff1660e01b81526004016105c8929190611ca3565b600060405180830381600087803b1580156105e257600080fd5b505af11580156105f6573d6000803e3d6000fd5b5050505050565b606860009054906101000a900473ffffffffffffffffffffffffffffffffffffffff1673ffffffffffffffffffffffffffffffffffffffff1663e7334fe56040518163ffffffff1660e01b8152600401602060405180830381865afa15801561066a573d6000803e3d6000fd5b505050506040513d601f19601f8201168201806040525081019061068e9190611c5b565b73ffffffffffffffffffffffffffffffffffffffff166106ac6111ad565b73ffffffffffffffffffffffffffffffffffffffff1614610702576040517f08c379a00000000000000000000000000000000000000000000000000000000081526004016106f990611d18565b60405180910390fd5b600060666000838152602001908152602001600020905060028160010160006101000a81548160ff02191690836004811115610741576107406118c9565b5b02179055505050565b610752611575565b6066600083815260200190815260200160002060405180610120016040529081600082015481526020016001820160009054906101000a900460ff1660048111156107a05761079f6118c9565b5b60048111156107b2576107b16118c9565b5b81526020016001820160019054906101000a900473ffffffffffffffffffffffffffffffffffffffff1673ffffffffffffffffffffffffffffffffffffffff1673ffffffffffffffffffffffffffffffffffffffff168152602001600282015481526020016003820160009054906101000a900473ffffffffffffffffffffffffffffffffffffffff1673ffffffffffffffffffffffffffffffffffffffff1673ffffffffffffffffffffffffffffffffffffffff168152602001600482015481526020016005820160009054906101000a900473ffffffffffffffffffffffffffffffffffffffff1673ffffffffffffffffffffffffffffffffffffffff1673ffffffffffffffffffffffffffffffffffffffff168152602001600682015481526020016007820154815250509050919050565b6108ef6111ad565b73ffffffffffffffffffffffffffffffffffffffff1661090d61099d565b73ffffffffffffffffffffffffffffffffffffffff1614610963576040517f08c379a000000000000000000000000000000000000000000000000000000000815260040161095a90611c26565b60405180910390fd5b61096d60006111b5565b565b6000610996426066600085815260200190815260200160002061113090919063ffffffff16565b9050919050565b6000603360009054906101000a900473ffffffffffffffffffffffffffffffffffffffff16905090565b606860009054906101000a900473ffffffffffffffffffffffffffffffffffffffff1673ffffffffffffffffffffffffffffffffffffffff1663e7334fe56040518163ffffffff1660e01b8152600401602060405180830381865afa158015610a34573d6000803e3d6000fd5b505050506040513d601f19601f82011682018060405250810190610a589190611c5b565b73ffffffffffffffffffffffffffffffffffffffff16610a766111ad565b73ffffffffffffffffffffffffffffffffffffffff1614610acc576040517f08c379a0000000000000000000000000000000000000000000000000000000008152600401610ac390611d18565b60405180910390fd5b600060666000838152602001908152602001600020905060038160010160006101000a81548160ff02191690836004811115610b0b57610b0a6118c9565b5b02179055506000606560008360030160009054906101000a900473ffffffffffffffffffffffffffffffffffffffff1673ffffffffffffffffffffffffffffffffffffffff1673ffffffffffffffffffffffffffffffffffffffff168152602001908152602001600020600083600401548152602001908152602001600020819055505050565b6000606860009054906101000a900473ffffffffffffffffffffffffffffffffffffffff1673ffffffffffffffffffffffffffffffffffffffff1663e7334fe56040518163ffffffff1660e01b8152600401602060405180830381865afa158015610c01573d6000803e3d6000fd5b505050506040513d601f19601f82011682018060405250810190610c259190611c5b565b73ffffffffffffffffffffffffffffffffffffffff16610c436111ad565b73ffffffffffffffffffffffffffffffffffffffff1614610c99576040517f08c379a0000000000000000000000000000000000000000000000000000000008152600401610c9090611d18565b60405180910390fd5b610cce60675488888888888860666000606754815260200190815260200160002061127b90979695949392919063ffffffff16565b606754606560008673ffffffffffffffffffffffffffffffffffffffff1673ffffffffffffffffffffffffffffffffffffffff16815260200190815260200160002060008581526020019081526020016000208190555060676000815480929190610d3890611d38565b91905055506001606754610d4c9190611d80565b90509695505050505050565b6000610d6460016113a8565b90508015610d88576001600060016101000a81548160ff0219169083151502179055505b610d90611498565b81606860006101000a81548173ffffffffffffffffffffffffffffffffffffffff021916908373ffffffffffffffffffffffffffffffffffffffff1602179055508015610e2a5760008060016101000a81548160ff0219169083151502179055507f7f26b83ff96e1f2b6a682f133852f6798a09c465da95921460cefb38474024986001604051610e219190611e06565b60405180910390a15b5050565b606860009054906101000a900473ffffffffffffffffffffffffffffffffffffffff1673ffffffffffffffffffffffffffffffffffffffff1663e7334fe56040518163ffffffff1660e01b8152600401602060405180830381865afa158015610e9b573d6000803e3d6000fd5b505050506040513d601f19601f82011682018060405250810190610ebf9190611c5b565b73ffffffffffffffffffffffffffffffffffffffff16610edd6111ad565b73ffffffffffffffffffffffffffffffffffffffff1614610f33576040517f08c379a0000000000000000000000000000000000000000000000000000000008152600401610f2a90611d18565b60405180910390fd5b600060666000838152602001908152602001600020905060048160010160006101000a81548160ff02191690836004811115610f7257610f716118c9565b5b02179055506000606560008360030160009054906101000a900473ffffffffffffffffffffffffffffffffffffffff1673ffffffffffffffffffffffffffffffffffffffff1673ffffffffffffffffffffffffffffffffffffffff168152602001908152602001600020600083600401548152602001908152602001600020819055505050565b60006066600083815260200190815260200160002060030160009054906101000a900473ffffffffffffffffffffffffffffffffffffffff169050919050565b6110416111ad565b73ffffffffffffffffffffffffffffffffffffffff1661105f61099d565b73ffffffffffffffffffffffffffffffffffffffff16146110b5576040517f08c379a00000000000000000000000000000000000000000000000000000000081526004016110ac90611c26565b60405180910390fd5b600073ffffffffffffffffffffffffffffffffffffffff168173ffffffffffffffffffffffffffffffffffffffff1603611124576040517f08c379a000000000000000000000000000000000000000000000000000000000815260040161111b90611e93565b60405180910390fd5b61112d816111b5565b50565b6000806301e133806305f5e10085600701548561114d9190611d80565b6111579190611eb3565b6111619190611f3c565b905060006127108286600601546111789190611eb3565b6111829190611f3c565b90506305f5e1008186600201546111999190611eb3565b6111a39190611f3c565b9250505092915050565b600033905090565b6000603360009054906101000a900473ffffffffffffffffffffffffffffffffffffffff16905081603360006101000a81548173ffffffffffffffffffffffffffffffffffffffff021916908373ffffffffffffffffffffffffffffffffffffffff1602179055508173ffffffffffffffffffffffffffffffffffffffff168173ffffffffffffffffffffffffffffffffffffffff167f8be0079c531659141344cd1fd0a4f28419497f9722a3daafe3b4186f6b6457e060405160405180910390a35050565b86886000018190555060018860010160006101000a81548160ff021916908360048111156112ac576112ab6118c9565b5b0217905550858860010160016101000a81548173ffffffffffffffffffffffffffffffffffffffff021916908373ffffffffffffffffffffffffffffffffffffffff160217905550838860020181905550828860030160006101000a81548173ffffffffffffffffffffffffffffffffffffffff021916908373ffffffffffffffffffffffffffffffffffffffff160217905550818860040181905550808860060181905550848860050160006101000a81548173ffffffffffffffffffffffffffffffffffffffff021916908373ffffffffffffffffffffffffffffffffffffffff1602179055504288600701819055505050505050505050565b60008060019054906101000a900460ff161561141f5760018260ff161480156113d757506113d5306114f1565b155b611416576040517f08c379a000000000000000000000000000000000000000000000000000000000815260040161140d90611fdf565b60405180910390fd5b60009050611493565b8160ff1660008054906101000a900460ff1660ff1610611474576040517f08c379a000000000000000000000000000000000000000000000000000000000815260040161146b90611fdf565b60405180910390fd5b816000806101000a81548160ff021916908360ff160217905550600190505b919050565b600060019054906101000a900460ff166114e7576040517f08c379a00000000000000000000000000000000000000000000000000000000081526004016114de90612071565b60405180910390fd5b6114ef611514565b565b6000808273ffffffffffffffffffffffffffffffffffffffff163b119050919050565b600060019054906101000a900460ff16611563576040517f08c379a000000000000000000000000000000000000000000000000000000000815260040161155a90612071565b60405180910390fd5b61157361156e6111ad565b6111b5565b565b604051806101200160405280600081526020016000600481111561159c5761159b6118c9565b5b8152602001600073ffffffffffffffffffffffffffffffffffffffff16815260200160008152602001600073ffffffffffffffffffffffffffffffffffffffff16815260200160008152602001600073ffffffffffffffffffffffffffffffffffffffff16815260200160008152602001600081525090565b600080fd5b600080fd5b6000819050919050565b6116328161161f565b811461163d57600080fd5b50565b60008135905061164f81611629565b92915050565b60006020828403121561166b5761166a611615565b5b600061167984828501611640565b91505092915050565b61168b8161161f565b82525050565b60006020820190506116a66000830184611682565b92915050565b600073ffffffffffffffffffffffffffffffffffffffff82169050919050565b60006116d7826116ac565b9050919050565b6116e7816116cc565b81146116f257600080fd5b50565b600081359050611704816116de565b92915050565b6000806040838503121561172157611720611615565b5b600061172f858286016116f5565b925050602061174085828601611640565b9150509250929050565b600080fd5b600080fd5b600080fd5b60008083601f84011261176f5761176e61174a565b5b8235905067ffffffffffffffff81111561178c5761178b61174f565b5b6020830191508360018202830111156117a8576117a7611754565b5b9250929050565b6000806000806000608086880312156117cb576117ca611615565b5b60006117d9888289016116f5565b95505060206117ea888289016116f5565b94505060406117fb88828901611640565b935050606086013567ffffffffffffffff81111561181c5761181b61161a565b5b61182888828901611759565b92509250509295509295909350565b60007fffffffff0000000000000000000000000000000000000000000000000000000082169050919050565b61186c81611837565b82525050565b60006020820190506118876000830184611863565b92915050565b6000602082840312156118a3576118a2611615565b5b60006118b1848285016116f5565b91505092915050565b6118c38161161f565b82525050565b7f4e487b7100000000000000000000000000000000000000000000000000000000600052602160045260246000fd5b60058110611909576119086118c9565b5b50565b600081905061191a826118f8565b919050565b600061192a8261190c565b9050919050565b61193a8161191f565b82525050565b611949816116cc565b82525050565b6101208201600082015161196660008501826118ba565b5060208201516119796020850182611931565b50604082015161198c6040850182611940565b50606082015161199f60608501826118ba565b5060808201516119b26080850182611940565b5060a08201516119c560a08501826118ba565b5060c08201516119d860c0850182611940565b5060e08201516119eb60e08501826118ba565b50610100820151611a006101008501826118ba565b50505050565b600061012082019050611a1c600083018461194f565b92915050565b611a2b816116cc565b82525050565b6000602082019050611a466000830184611a22565b92915050565b60008060008060008060c08789031215611a6957611a68611615565b5b6000611a7789828a016116f5565b9650506020611a8889828a016116f5565b9550506040611a9989828a01611640565b9450506060611aaa89828a016116f5565b9350506080611abb89828a01611640565b92505060a0611acc89828a01611640565b9150509295509295509295565b6000611ae4826116cc565b9050919050565b611af481611ad9565b8114611aff57600080fd5b50565b600081359050611b1181611aeb565b92915050565b600060208284031215611b2d57611b2c611615565b5b6000611b3b84828501611b02565b91505092915050565b7f4e487b7100000000000000000000000000000000000000000000000000000000600052601160045260246000fd5b6000611b7e8261161f565b9150611b898361161f565b9250827fffffffffffffffffffffffffffffffffffffffffffffffffffffffffffffffff03821115611bbe57611bbd611b44565b5b828201905092915050565b600082825260208201905092915050565b7f4f776e61626c653a2063616c6c6572206973206e6f7420746865206f776e6572600082015250565b6000611c10602083611bc9565b9150611c1b82611bda565b602082019050919050565b60006020820190508181036000830152611c3f81611c03565b9050919050565b600081519050611c55816116de565b92915050565b600060208284031215611c7157611c70611615565b5b6000611c7f84828501611c46565b91505092915050565b60008115159050919050565b611c9d81611c88565b82525050565b6000604082019050611cb86000830185611a22565b611cc56020830184611c94565b9392505050565b7f43616c6c6572206d757374206265204d61726b657420636f6e74726163740000600082015250565b6000611d02601e83611bc9565b9150611d0d82611ccc565b602082019050919050565b60006020820190508181036000830152611d3181611cf5565b9050919050565b6000611d438261161f565b91507fffffffffffffffffffffffffffffffffffffffffffffffffffffffffffffffff8203611d7557611d74611b44565b5b600182019050919050565b6000611d8b8261161f565b9150611d968361161f565b925082821015611da957611da8611b44565b5b828203905092915050565b6000819050919050565b600060ff82169050919050565b6000819050919050565b6000611df0611deb611de684611db4565b611dcb565b611dbe565b9050919050565b611e0081611dd5565b82525050565b6000602082019050611e1b6000830184611df7565b92915050565b7f4f776e61626c653a206e6577206f776e657220697320746865207a65726f206160008201527f6464726573730000000000000000000000000000000000000000000000000000602082015250565b6000611e7d602683611bc9565b9150611e8882611e21565b604082019050919050565b60006020820190508181036000830152611eac81611e70565b9050919050565b6000611ebe8261161f565b9150611ec98361161f565b9250817fffffffffffffffffffffffffffffffffffffffffffffffffffffffffffffffff0483118215151615611f0257611f01611b44565b5b828202905092915050565b7f4e487b7100000000000000000000000000000000000000000000000000000000600052601260045260246000fd5b6000611f478261161f565b9150611f528361161f565b925082611f6257611f61611f0d565b5b828204905092915050565b7f496e697469616c697a61626c653a20636f6e747261637420697320616c72656160008201527f647920696e697469616c697a6564000000000000000000000000000000000000602082015250565b6000611fc9602e83611bc9565b9150611fd482611f6d565b604082019050919050565b60006020820190508181036000830152611ff881611fbc565b9050919050565b7f496e697469616c697a61626c653a20636f6e7472616374206973206e6f74206960008201527f6e697469616c697a696e67000000000000000000000000000000000000000000602082015250565b600061205b602b83611bc9565b915061206682611fff565b604082019050919050565b6000602082019050818103600083015261208a8161204e565b905091905056fea2646970667358221220db9a6917f3c0f7a7c0c40ec1d2041696356dc17469c031cb2611abb8df686dda64736f6c634300080f0033",
  "linkReferences": {},
  "deployedLinkReferences": {}
}