{
  "_format": "hh-sol-artifact-1",
  "contractName": "LoanCenter",
  "sourceName": "contracts/protocol/Lending/LoanCenter.sol",
  "abi": [
    {
      "inputs": [],
      "stateMutability": "nonpayable",
      "type": "constructor"
    },
    {
      "anonymous": false,
      "inputs": [
        {
          "indexed": false,
          "internalType": "uint8",
          "name": "version",
          "type": "uint8"
        }
      ],
      "name": "Initialized",
      "type": "event"
    },
    {
      "anonymous": false,
      "inputs": [
        {
          "indexed": true,
          "internalType": "address",
          "name": "previousOwner",
          "type": "address"
        },
        {
          "indexed": true,
          "internalType": "address",
          "name": "newOwner",
          "type": "address"
        }
      ],
      "name": "OwnershipTransferred",
      "type": "event"
    },
    {
      "inputs": [
        {
          "internalType": "uint256",
          "name": "loanId",
          "type": "uint256"
        }
      ],
      "name": "activateLoan",
      "outputs": [],
      "stateMutability": "nonpayable",
      "type": "function"
    },
    {
      "inputs": [
        {
          "internalType": "address",
          "name": "collection",
          "type": "address"
        }
      ],
      "name": "approveNFTCollection",
      "outputs": [],
      "stateMutability": "nonpayable",
      "type": "function"
    },
    {
      "inputs": [
        {
          "internalType": "uint256",
          "name": "loanId",
          "type": "uint256"
        },
        {
          "internalType": "address",
          "name": "user",
          "type": "address"
        },
        {
          "internalType": "uint256",
          "name": "bid",
          "type": "uint256"
        }
      ],
      "name": "auctionLoan",
      "outputs": [],
      "stateMutability": "nonpayable",
      "type": "function"
    },
    {
      "inputs": [
        {
          "internalType": "address",
          "name": "collection",
          "type": "address"
        },
        {
          "internalType": "uint256",
          "name": "maxCollaterization",
          "type": "uint256"
        }
      ],
      "name": "changeCollectionMaxCollaterization",
      "outputs": [],
      "stateMutability": "nonpayable",
      "type": "function"
    },
    {
      "inputs": [
        {
          "internalType": "address",
          "name": "borrower",
          "type": "address"
        },
        {
          "internalType": "address",
          "name": "reserve",
          "type": "address"
        },
        {
          "internalType": "uint256",
          "name": "amount",
          "type": "uint256"
        },
        {
          "internalType": "uint256",
          "name": "maxLTV",
          "type": "uint256"
        },
        {
          "internalType": "uint256",
          "name": "boost",
          "type": "uint256"
        },
        {
          "internalType": "uint256",
          "name": "genesisNFTId",
          "type": "uint256"
        },
        {
          "internalType": "address",
          "name": "nftAddress",
          "type": "address"
        },
        {
          "internalType": "uint256[]",
          "name": "nftTokenIds",
          "type": "uint256[]"
        },
        {
          "internalType": "uint256",
          "name": "borrowRate",
          "type": "uint256"
        }
      ],
      "name": "createLoan",
      "outputs": [
        {
          "internalType": "uint256",
          "name": "",
          "type": "uint256"
        }
      ],
      "stateMutability": "nonpayable",
      "type": "function"
    },
    {
      "inputs": [
        {
          "internalType": "address",
          "name": "user",
          "type": "address"
        },
        {
          "internalType": "address",
          "name": "collection",
          "type": "address"
        }
      ],
      "name": "getActiveLoansCount",
      "outputs": [
        {
          "internalType": "uint256",
          "name": "",
          "type": "uint256"
        }
      ],
      "stateMutability": "view",
      "type": "function"
    },
    {
      "inputs": [
        {
          "internalType": "address",
          "name": "collection",
          "type": "address"
        }
      ],
      "name": "getCollectionMaxCollaterization",
      "outputs": [
        {
          "internalType": "uint256",
          "name": "",
          "type": "uint256"
        }
      ],
      "stateMutability": "view",
      "type": "function"
    },
    {
      "inputs": [
        {
          "internalType": "uint256",
          "name": "loanId",
          "type": "uint256"
        }
      ],
      "name": "getLoan",
      "outputs": [
        {
          "components": [
            {
              "internalType": "uint256",
              "name": "loanId",
              "type": "uint256"
            },
            {
              "internalType": "enum DataTypes.LoanState",
              "name": "state",
              "type": "uint8"
            },
            {
              "internalType": "address",
              "name": "borrower",
              "type": "address"
            },
            {
              "internalType": "uint256",
              "name": "amount",
              "type": "uint256"
            },
            {
              "internalType": "uint256",
              "name": "maxLTV",
              "type": "uint256"
            },
            {
              "internalType": "uint256",
              "name": "boost",
              "type": "uint256"
            },
            {
              "internalType": "uint256",
              "name": "genesisNFTId",
              "type": "uint256"
            },
            {
              "internalType": "address",
              "name": "nftAsset",
              "type": "address"
            },
            {
              "internalType": "uint256[]",
              "name": "nftTokenIds",
              "type": "uint256[]"
            },
            {
              "internalType": "address",
              "name": "pool",
              "type": "address"
            },
            {
              "internalType": "uint256",
              "name": "borrowRate",
              "type": "uint256"
            },
            {
              "internalType": "uint256",
              "name": "initTimestamp",
              "type": "uint256"
            },
            {
              "internalType": "uint256",
              "name": "debtTimestamp",
              "type": "uint256"
            },
            {
              "internalType": "address",
              "name": "auctioner",
              "type": "address"
            },
            {
              "internalType": "address",
              "name": "liquidator",
              "type": "address"
            },
            {
              "internalType": "uint256",
              "name": "auctionMaxBid",
              "type": "uint256"
            },
            {
              "internalType": "uint256",
              "name": "auctionStartTimestamp",
              "type": "uint256"
            }
          ],
          "internalType": "struct DataTypes.LoanData",
          "name": "",
          "type": "tuple"
        }
      ],
      "stateMutability": "view",
      "type": "function"
    },
    {
      "inputs": [
        {
          "internalType": "uint256",
          "name": "loanId",
          "type": "uint256"
        }
      ],
      "name": "getLoanBoost",
      "outputs": [
        {
          "internalType": "uint256",
          "name": "",
          "type": "uint256"
        }
      ],
      "stateMutability": "view",
      "type": "function"
    },
    {
      "inputs": [
        {
          "internalType": "uint256",
          "name": "loanId",
          "type": "uint256"
        }
      ],
      "name": "getLoanDebt",
      "outputs": [
        {
          "internalType": "uint256",
          "name": "",
          "type": "uint256"
        }
      ],
      "stateMutability": "view",
      "type": "function"
    },
    {
      "inputs": [
        {
          "internalType": "uint256",
          "name": "loanId",
          "type": "uint256"
        }
      ],
      "name": "getLoanInterest",
      "outputs": [
        {
          "internalType": "uint256",
          "name": "",
          "type": "uint256"
        }
      ],
      "stateMutability": "view",
      "type": "function"
    },
    {
      "inputs": [
        {
          "internalType": "uint256",
          "name": "loanId",
          "type": "uint256"
        }
      ],
      "name": "getLoanLendingPool",
      "outputs": [
        {
          "internalType": "address",
          "name": "",
          "type": "address"
        }
      ],
      "stateMutability": "view",
      "type": "function"
    },
    {
      "inputs": [
        {
          "internalType": "uint256",
          "name": "loanId",
          "type": "uint256"
        },
        {
          "internalType": "bytes32",
          "name": "request",
          "type": "bytes32"
        },
        {
          "components": [
            {
              "internalType": "uint8",
              "name": "v",
              "type": "uint8"
            },
            {
              "internalType": "bytes32",
              "name": "r",
              "type": "bytes32"
            },
            {
              "internalType": "bytes32",
              "name": "s",
              "type": "bytes32"
            },
            {
              "internalType": "bytes32",
              "name": "request",
              "type": "bytes32"
            },
            {
              "internalType": "uint256",
              "name": "deadline",
              "type": "uint256"
            },
            {
              "internalType": "bytes",
              "name": "payload",
              "type": "bytes"
            }
          ],
          "internalType": "struct Trustus.TrustusPacket",
          "name": "packet",
          "type": "tuple"
        }
      ],
      "name": "getLoanMaxETHCollateral",
      "outputs": [
        {
          "internalType": "uint256",
          "name": "",
          "type": "uint256"
        }
      ],
      "stateMutability": "view",
      "type": "function"
    },
    {
      "inputs": [
        {
          "internalType": "uint256",
          "name": "loanId",
          "type": "uint256"
        }
      ],
      "name": "getLoanTokenAddress",
      "outputs": [
        {
          "internalType": "address",
          "name": "",
          "type": "address"
        }
      ],
      "stateMutability": "view",
      "type": "function"
    },
    {
      "inputs": [
        {
          "internalType": "uint256",
          "name": "loanId",
          "type": "uint256"
        }
      ],
      "name": "getLoanTokenIds",
      "outputs": [
        {
          "internalType": "uint256[]",
          "name": "",
          "type": "uint256[]"
        }
      ],
      "stateMutability": "view",
      "type": "function"
    },
    {
      "inputs": [],
      "name": "getLoansCount",
      "outputs": [
        {
          "internalType": "uint256",
          "name": "",
          "type": "uint256"
        }
      ],
      "stateMutability": "view",
      "type": "function"
    },
    {
      "inputs": [
        {
          "internalType": "address",
          "name": "nftAddress",
          "type": "address"
        },
        {
          "internalType": "uint256",
          "name": "nftTokenId",
          "type": "uint256"
        }
      ],
      "name": "getNFTLoanId",
      "outputs": [
        {
          "internalType": "uint256",
          "name": "",
          "type": "uint256"
        }
      ],
      "stateMutability": "view",
      "type": "function"
    },
    {
      "inputs": [
        {
          "internalType": "contract IAddressesProvider",
          "name": "addressesProvider",
          "type": "address"
        },
        {
          "internalType": "uint256",
          "name": "maxCollaterization",
          "type": "uint256"
        }
      ],
      "name": "initialize",
      "outputs": [],
      "stateMutability": "nonpayable",
      "type": "function"
    },
    {
      "inputs": [
        {
          "internalType": "uint256",
          "name": "loanId",
          "type": "uint256"
        }
      ],
      "name": "liquidateLoan",
      "outputs": [],
      "stateMutability": "nonpayable",
      "type": "function"
    },
    {
      "inputs": [
        {
          "internalType": "address",
          "name": "",
          "type": "address"
        },
        {
          "internalType": "address",
          "name": "",
          "type": "address"
        },
        {
          "internalType": "uint256",
          "name": "",
          "type": "uint256"
        },
        {
          "internalType": "bytes",
          "name": "",
          "type": "bytes"
        }
      ],
      "name": "onERC721Received",
      "outputs": [
        {
          "internalType": "bytes4",
          "name": "",
          "type": "bytes4"
        }
      ],
      "stateMutability": "pure",
      "type": "function"
    },
    {
      "inputs": [],
      "name": "owner",
      "outputs": [
        {
          "internalType": "address",
          "name": "",
          "type": "address"
        }
      ],
      "stateMutability": "view",
      "type": "function"
    },
    {
      "inputs": [],
      "name": "renounceOwnership",
      "outputs": [],
      "stateMutability": "nonpayable",
      "type": "function"
    },
    {
      "inputs": [
        {
          "internalType": "uint256",
          "name": "loanId",
          "type": "uint256"
        }
      ],
      "name": "repayLoan",
      "outputs": [],
      "stateMutability": "nonpayable",
      "type": "function"
    },
    {
      "inputs": [
        {
          "internalType": "address",
          "name": "newOwner",
          "type": "address"
        }
      ],
      "name": "transferOwnership",
      "outputs": [],
      "stateMutability": "nonpayable",
      "type": "function"
    },
    {
      "inputs": [
        {
          "internalType": "uint256",
          "name": "loanId",
          "type": "uint256"
        },
        {
          "internalType": "uint256",
          "name": "newAmount",
          "type": "uint256"
        }
      ],
      "name": "updateLoanAmount",
      "outputs": [],
      "stateMutability": "nonpayable",
      "type": "function"
    },
    {
      "inputs": [
        {
          "internalType": "uint256",
          "name": "loanId",
          "type": "uint256"
        },
        {
          "internalType": "address",
          "name": "user",
          "type": "address"
        },
        {
          "internalType": "uint256",
          "name": "bid",
          "type": "uint256"
        }
      ],
      "name": "updateLoanAuctionBid",
      "outputs": [],
      "stateMutability": "nonpayable",
      "type": "function"
    },
    {
      "inputs": [
        {
          "internalType": "uint256",
          "name": "loanId",
          "type": "uint256"
        },
        {
          "internalType": "uint256",
          "name": "newDebtTimestamp",
          "type": "uint256"
        }
      ],
      "name": "updateLoanDebtTimestamp",
      "outputs": [],
      "stateMutability": "nonpayable",
      "type": "function"
    }
  ],
  "bytecode": "0x608080604052346100c1576000549060ff8260081c1661006f575060ff80821610610034575b604051611d1590816100c78239f35b60ff90811916176000557f7f26b83ff96e1f2b6a682f133852f6798a09c465da95921460cefb3847402498602060405160ff8152a138610025565b62461bcd60e51b815260206004820152602760248201527f496e697469616c697a61626c653a20636f6e747261637420697320696e697469604482015266616c697a696e6760c81b6064820152608490fd5b600080fdfe6080604052600436101561001257600080fd5b60003560e01c80630bbf145b146101c75780630c2452dd146101c25780630c97200a146101bd57806313e4cf2e146101b8578063150b7a02146101b35780632af16c4e146101ae578063328ef332146101a95780633e4d92e2146101a45780633f4b8d421461019f5780634644004d1461019a5780634b496b09146101955780634dbb2b7b14610190578063504006ca1461018b5780636d3723a714610186578063715018a61461018157806371b60aa21461017c5780637896c0ea146101775780638a2ec8bb146101725780638da5cb5b1461016d57806394eb3254146101685780639545773c14610163578063ab7b1c891461015e578063ccdd9f5d14610159578063ccff44f114610154578063cd6dc6871461014f578063e7d892bf1461014a5763f2fde38b1461014557600080fd5b61136a565b6112f4565b611202565b61119f565b6110b9565b610f5e565b610efb565b610ecc565b610ea3565b610e53565b610dca565b610d5f565b610cfe565b610c66565b610ba6565b6109b5565b6108f5565b610802565b610797565b610693565b610650565b610537565b6104c9565b6102e4565b6102c6565b610270565b3461025a57602036600319011261025a576004356000818152606660205260ff60016040832001541660068110156102465760029161020960409215156119bd565b838152606660205261021e8282204290611c69565b9381526066602052200154810180911161024157604051908152602090f35b0390f35b6117e8565b634e487b7160e01b82526021600452602482fd5b600080fd5b6001600160a01b0381160361025a57565b3461025a57604036600319011261025a5760043561028d8161025f565b60018060a01b0316600052606560205260406000206024356000526020526020604060002054604051908152f35b600091031261025a57565b3461025a57600036600319011261025a576020606754604051908152f35b3461025a5760031960603682011261025a576004356044359167ffffffffffffffff831161025a5760c090833603011261025a5761034c61033c6001610334846000526066602052604060002090565b015460ff1690565b61034581610a4c565b15156119bd565b6068546001600160a01b031690604051809263246bbf5360e21b825281600460209586935afa938415610497576103ec94849260009161049c575b506103af60066103a1866000526066602052604060002090565b01546001600160a01b031690565b60076103c5866000526066602052604060002090565b019260405197889485938493631826a26360e31b8552600401916024359160048601611b90565b03916001600160a01b03165afa9081156104975761023d9361045293600093610462575b5050806004610444600361043161044c956000526066602052604060002090565b0154926000526066602052604060002090565b015490611c3e565b90611c4b565b6040519081529081906020820190565b61044c929350908161048892903d10610490575b61048081836115d1565b810190611b60565b919038610410565b503d610476565b61160b565b6104bc9150833d85116104c2575b6104b481836115d1565b8101906115f3565b38610387565b503d6104aa565b3461025a57608036600319011261025a576104e560043561025f565b6104f060243561025f565b60643567ffffffffffffffff80821161025a573660238301121561025a57816004013590811161025a573691016024011161025a57604051630a85bd0160e11b8152602090f35b3461025a5760208060031936011261025a576004356105558161025f565b6068546040516302690e7760e11b808252926001600160a01b0392831692908583600481875afa8015610497578261059a918895600091610633575b50163314611617565b169260046040518094819382525afa92831561049757600093610614575b5050803b1561025a5760405163a22cb46560e01b81526001600160a01b038316600482015260016024820152906000908290604490829084905af18015610497576105ff57005b8061060c610612926115b8565b806102bb565b005b61062b929350803d106104c2576104b481836115d1565b9038806105b8565b61064a9150863d88116104c2576104b481836115d1565b38610591565b3461025a57604036600319011261025a5760043561066d8161025f565b6106756113fb565b6001600160a01b03166000908152606a602052604090206024359055005b3461025a57604036600319011261025a576068546040516302690e7760e11b815260048035926001600160a01b0391602091849190829085165afa8015610497576106e8926000916107445750163314611617565b80600052606660205260ff60016040600020015416600681101561072e576107119015156119bd565b600261072a602435926000526066602052604060002090565b0155005b634e487b7160e01b600052602160045260246000fd5b61064a915060203d81116104c2576104b481836115d1565b6020908160408183019282815285518094520193019160005b828110610783575050505090565b835185529381019392810192600101610775565b3461025a57602036600319011261025a5760043580600052606660205260ff60016040600020015416600681101561072e5760076107f061023d936107e06107f69415156119bd565b6000526066602052604060002090565b01611a49565b6040519182918261075c565b3461025a5760208060031936011261025a576068546040516302690e7760e11b815291906001600160a01b039082908490600490829085165afa8015610497578161085b916108ad956000916108bb5750163314611617565b600435600052606682526069604060002092826001850161088381600260ff19825416179055565b5460081c1660005252600660406000209201541660018060a01b0316600052602052604060002090565b6108b781546117fe565b9055005b61064a9150853d87116104c2576104b481836115d1565b606090600319011261025a57600435906024356108ee8161025f565b9060443590565b3461025a57610903366108d2565b9091600460018060a01b0360208160685416604051938480926302690e7760e11b82525afa801561049757610942926000916107445750163314611617565b60005260666020526109a760406000209261096760018501600460ff19825416179055565b600c840180546001600160a01b0319166001600160a01b038316179055600d840180546001600160a01b0319166001600160a01b03909216919091179055565b600e82015542600f90910155005b3461025a57604036600319011261025a576068546040516302690e7760e11b815260048035926001600160a01b0391602091849190829085165afa801561049757610a0a926000916107445750163314611617565b80600052606660205260ff60016040600020015416600681101561072e57610a339015156119bd565b600b61072a602435926000526066602052604060002090565b6006111561072e57565b90600682101561072e5752565b90815180825260208080930193019160005b828110610a83575050505090565b835185529381019392810192600101610a75565b6020815281516020820152610ab460208301516040830190610a56565b60408201516001600160a01b0316606082015260608201516080820152608082015160a082015260a082015160c082015260c082015160e082015260e0820151610b0b610100918284019060018060a01b03169052565b8201519161022090610b2a610120948386860152610240850190610a63565b938101516001600160a01b031661014084810191909152810151610160908185015281015161018090818501528101516101a09081850152810151610b7c6101c0918286019060018060a01b03169052565b8101516001600160a01b03166101e084810191909152810151906102009182850152015191015290565b3461025a57602036600319011261025a5761023d610c5a610c55600435610bcb6117c7565b6102006000918281528260208201528260408201528260608201528260808201528260a08201528260c08201528260e0820152606061010082015282610120820152826101408201528261016082015282610180820152826101a0820152826101c0820152826101e082015201526107e061033c6001610334846000526066602052604060002090565b611a66565b60405191829182610a97565b3461025a5761012036600319011261025a57600435610c848161025f565b602435610c908161025f565b60c43591610c9d8361025f565b60e4359067ffffffffffffffff9081831161025a573660238401121561025a57826004013591821161025a573660248360051b8501011161025a5761023d946104529460246101043595019260a43591608435916064359160443591611663565b3461025a57600080600319360112610d5c57610d186113fb565b603380546001600160a01b0319811690915581906001600160a01b03167f8be0079c531659141344cd1fd0a4f28419497f9722a3daafe3b4186f6b6457e08280a380f35b80fd5b3461025a57602036600319011261025a57600435600090808252606660205260ff6001604084200154166006811015610db65761023d9261045292610da760409315156119bd565b81526066602052204290611c69565b634e487b7160e01b83526021600452602483fd5b3461025a57610dd8366108d2565b6068546040516302690e7760e11b815291936001600160a01b03939290916020908290600490829088165afa93841561049757600e94610e22926000916107445750163314611617565b600052606660205261072a604060002091600d83019060018060a01b03166001600160601b0360a01b825416179055565b3461025a57602036600319011261025a5760043580600052606660205260ff6001604060002001541690600682101561072e57610e996004916107e060209415156119bd565b0154604051908152f35b3461025a57600036600319011261025a576033546040516001600160a01b039091168152602090f35b3461025a57602036600319011261025a576020610ef3600435610eee8161025f565b611cb7565b604051908152f35b3461025a57604036600319011261025a576020610f55600435610f1d8161025f565b60243590610f2a8261025f565b60018060a01b03166000526069835260406000209060018060a01b0316600052602052604060002090565b54604051908152f35b3461025a57602036600319011261025a576068546040516302690e7760e11b81526001600160a01b03916020908290600490829086165afa90811561049757610fb39183916000916107445750163314611617565b600435600052606660205260406000206001818180930193610fdc85600360ff19825416179055565b60006006600784019301945b611052575b8554611048908690611032906110249060081c6001600160a01b03165b6001600160a01b0316600090815260696020526040902090565b91546001600160a01b031690565b60018060a01b0316600052602052604060002090565b6108b781546119b0565b82548110156110b4576110ae9060006110a86110838589541660018060a01b03166000526065602052604060002090565b61109a6110908589611998565b90549060031b1c90565b600052602052604060002090565b556117fe565b83610fe8565b610fed565b3461025a57602036600319011261025a576068546040516302690e7760e11b81526001600160a01b03916020908290600490829086165afa9081156104975761110e9183916000916107445750163314611617565b60043560005260666020526040600020600181818093019361113785600560ff19825416179055565b60006006600784019301945b611168578554611048908690611032906110249060081c6001600160a01b031661100a565b82548110156110b4576111999060006110a86110838589541660018060a01b03166000526065602052604060002090565b83611143565b3461025a57602036600319011261025a5760043580600052606660205260ff60016040600020015416600681101561072e5760086103a161023d936107e06111e89415156119bd565b6040516001600160a01b0390911681529081906020820190565b3461025a57604036600319011261025a5760043561121f8161025f565b6112686000549161124760ff8460081c1615809481956112e6575b81156112c6575b5061149c565b8261125a600160ff196000541617600055565b6112ad575b602435906114ff565b61126e57005b61127e61ff001960005416600055565b604051600181527f7f26b83ff96e1f2b6a682f133852f6798a09c465da95921460cefb384740249890602090a1005b6112c161010061ff00196000541617600055565b61125f565b303b159150816112d8575b5038611241565b6001915060ff1614386112d1565b600160ff821610915061123a565b3461025a57602036600319011261025a5760043580600052606660205260ff6001604060002001541690600682101561072e5761133561023d9215156119bd565b60009081526066602052604090206001600160a01b03906006015460405191166001600160a01b031681529081906020820190565b3461025a57602036600319011261025a576004356113878161025f565b61138f6113fb565b6001600160a01b038116156113a75761061290611453565b60405162461bcd60e51b815260206004820152602660248201527f4f776e61626c653a206e6577206f776e657220697320746865207a65726f206160448201526564647265737360d01b6064820152608490fd5b6033546001600160a01b0316330361140f57565b606460405162461bcd60e51b815260206004820152602060248201527f4f776e61626c653a2063616c6c6572206973206e6f7420746865206f776e65726044820152fd5b603380546001600160a01b039283166001600160a01b0319821681179092559091167f8be0079c531659141344cd1fd0a4f28419497f9722a3daafe3b4186f6b6457e0600080a3565b156114a357565b60405162461bcd60e51b815260206004820152602e60248201527f496e697469616c697a61626c653a20636f6e747261637420697320616c72656160448201526d191e481a5b9a5d1a585b1a5e995960921b6064820152608490fd5b61151960ff60005460081c1661151481611542565b611542565b61152233611453565b60018060a01b03166001600160601b0360a01b6068541617606855606b55565b1561154957565b60405162461bcd60e51b815260206004820152602b60248201527f496e697469616c697a61626c653a20636f6e7472616374206973206e6f74206960448201526a6e697469616c697a696e6760a81b6064820152608490fd5b634e487b7160e01b600052604160045260246000fd5b67ffffffffffffffff81116115cc57604052565b6115a2565b90601f8019910116810190811067ffffffffffffffff8211176115cc57604052565b9081602091031261025a57516116088161025f565b90565b6040513d6000823e3d90fd5b1561161e57565b60405162461bcd60e51b815260206004820152601e60248201527f43616c6c6572206d757374206265204d61726b657420636f6e747261637400006044820152606490fd5b98949290939196959660018060a01b039485606854166040519687916302690e7760e11b835282600460209a8b935afa8015610497576116ad926000916117b05750163314611617565b60679a8b548060005260668852604060002067ffffffffffffffff8d116115cc578c988960051b6040519a6116e48383018d6115d1565b8b528c01818b0136821161025a579b9a99979593918e99979593918e5b818110611783575050506117159b5061185a565b60005b83811061173f57505050508061173961173461160893546117fe565b606755565b54611838565b61177e9085546110a86117648660018060a01b03166000526065602052604060002090565b61176f848988611823565b35600052602052604060002090565b611718565b91809496989a9c9d9e81929496989a9c5083358152019101918f9a989694929d9c9b99979593919d611701565b61064a9150893d8b116104c2576104b481836115d1565b60405190610220820182811067ffffffffffffffff8211176115cc57604052565b634e487b7160e01b600052601160045260246000fd5b60001981146102415760010190565b634e487b7160e01b600052603260045260246000fd5b91908110156118335760051b0190565b61180d565b60001981019190821161024157565b8181029291811591840414171561024157565b9997936118cc95919996929793998b5560019788808d0191825490610100600160a81b039060081b16906affffffffffffffffffffff60a81b161717905560028b015560038a015560048901556005880155600687019060018060a01b03166001600160601b0360a01b825416179055565b6007850181519167ffffffffffffffff83116115cc576801000000000000000083116115cc57815483835580841061196d575b50611914602080920192600052602060002090565b9060005b84811061195c5750505050506009840191909155506008820180546001600160a01b0319166001600160a01b0390921691909117905542600a820155600b42910155565b835183820155928101928501611918565b600083815285856020832093840193015b83811061198d575050506118ff565b82815501869061197e565b80548210156118335760005260206000200190600090565b8015610241576000190190565b156119c457565b60405162461bcd60e51b81526020600482015260146024820152732637b0b7103237b2b9903737ba1032bc34b9ba1760611b6044820152606490fd5b600682101561072e5752565b90815480825260208092019260005281600020916000905b828210611a32575050505090565b835485529384019360019384019390910190611a24565b90611a64611a5d9260405193848092611a0c565b03836115d1565b565b90600f611a716117c7565b9280548452611aa16001820154611a8e60ff821660208801611a00565b60081c6001600160a01b03166040860152565b6002810154606085015260038101546080850152600481015460a0850152600581015460c085015260068101546001600160a01b031660e0850152611ae860078201611a49565b61010085015260088101546001600160a01b03166101208501526009810154610140850152600a810154610160850152600b810154610180850152600c8101546001600160a01b03166101a0850152600d8101546001600160a01b03166101c0850152600e8101546101e08501520154610200830152565b9081602091031261025a575190565b908060209392818452848401376000828201840152601f01601f1916010190565b91611bb39194939460018060a01b03168352608060208401526080830190611a0c565b9260408201526060818403910152803560ff811680910361025a5782526020810135602083015260408101356040830152606081013560608301526080810135608083015260a0810135601e198236030181121561025a57016020813591019067ffffffffffffffff811161025a57803603821361025a5760c0838160a06116089601520191611b6f565b9190820180921161024157565b8161138819048111158215171561025a576127109102611388010490565b61070961070890920482810292811591840414171561024157600b611c976002830154600984015490611847565b91015482039182116102415764496cebb80091611cb391611847565b0490565b6001600160a01b03166000908152606a60205260409020548015611cd85790565b50606b549056fea2646970667358221220aa0ed4f2bbbb87f8a3a385f6a224bd52db622a921cc9dd665bee2fb07c2a474564736f6c63430008130033",
  "linkReferences": {},
  "deployedLinkReferences": {}
}