{
  "_format": "hh-sol-artifact-1",
  "contractName": "LoanCenter",
  "sourceName": "contracts/protocol/LoanCenter.sol",
  "abi": [
    {
      "anonymous": false,
      "inputs": [
        {
          "indexed": false,
          "internalType": "uint8",
          "name": "version",
          "type": "uint8"
        }
      ],
      "name": "Initialized",
      "type": "event"
    },
    {
      "anonymous": false,
      "inputs": [
        {
          "indexed": true,
          "internalType": "address",
          "name": "previousOwner",
          "type": "address"
        },
        {
          "indexed": true,
          "internalType": "address",
          "name": "newOwner",
          "type": "address"
        }
      ],
      "name": "OwnershipTransferred",
      "type": "event"
    },
    {
      "inputs": [
        {
          "internalType": "uint256",
          "name": "loanId",
          "type": "uint256"
        }
      ],
      "name": "activateLoan",
      "outputs": [],
      "stateMutability": "nonpayable",
      "type": "function"
    },
    {
      "inputs": [
        {
          "internalType": "address",
          "name": "collection",
          "type": "address"
        }
      ],
      "name": "approveNFTCollection",
      "outputs": [],
      "stateMutability": "nonpayable",
      "type": "function"
    },
    {
      "inputs": [
        {
          "internalType": "address",
          "name": "collection",
          "type": "address"
        },
        {
          "internalType": "uint256",
          "name": "maxCollaterization",
          "type": "uint256"
        }
      ],
      "name": "changeCollectionMaxCollaterization",
      "outputs": [],
      "stateMutability": "nonpayable",
      "type": "function"
    },
    {
      "inputs": [
        {
          "internalType": "address",
          "name": "borrower",
          "type": "address"
        },
        {
          "internalType": "address",
          "name": "reserve",
          "type": "address"
        },
        {
          "internalType": "uint256",
          "name": "amount",
          "type": "uint256"
        },
        {
          "internalType": "uint256",
          "name": "maxLTV",
          "type": "uint256"
        },
        {
          "internalType": "uint256",
          "name": "boost",
          "type": "uint256"
        },
        {
          "internalType": "uint256",
          "name": "genesisNFTId",
          "type": "uint256"
        },
        {
          "internalType": "address",
          "name": "nftAddress",
          "type": "address"
        },
        {
          "internalType": "uint256",
          "name": "nftTokenId",
          "type": "uint256"
        },
        {
          "internalType": "uint256",
          "name": "borrowRate",
          "type": "uint256"
        }
      ],
      "name": "createLoan",
      "outputs": [
        {
          "internalType": "uint256",
          "name": "",
          "type": "uint256"
        }
      ],
      "stateMutability": "nonpayable",
      "type": "function"
    },
    {
      "inputs": [
        {
          "internalType": "address",
          "name": "user",
          "type": "address"
        },
        {
          "internalType": "address",
          "name": "collection",
          "type": "address"
        }
      ],
      "name": "getActiveLoansCount",
      "outputs": [
        {
          "internalType": "uint256",
          "name": "",
          "type": "uint256"
        }
      ],
      "stateMutability": "view",
      "type": "function"
    },
    {
      "inputs": [
        {
          "internalType": "address",
          "name": "collection",
          "type": "address"
        }
      ],
      "name": "getCollectionMaxCollaterization",
      "outputs": [
        {
          "internalType": "uint256",
          "name": "",
          "type": "uint256"
        }
      ],
      "stateMutability": "view",
      "type": "function"
    },
    {
      "inputs": [
        {
          "internalType": "uint256",
          "name": "loanId",
          "type": "uint256"
        }
      ],
      "name": "getLoan",
      "outputs": [
        {
          "components": [
            {
              "internalType": "uint256",
              "name": "loanId",
              "type": "uint256"
            },
            {
              "internalType": "enum DataTypes.LoanState",
              "name": "state",
              "type": "uint8"
            },
            {
              "internalType": "address",
              "name": "borrower",
              "type": "address"
            },
            {
              "internalType": "uint256",
              "name": "amount",
              "type": "uint256"
            },
            {
              "internalType": "uint256",
              "name": "maxLTV",
              "type": "uint256"
            },
            {
              "internalType": "uint256",
              "name": "boost",
              "type": "uint256"
            },
            {
              "internalType": "uint256",
              "name": "genesisNFTId",
              "type": "uint256"
            },
            {
              "internalType": "uint256",
              "name": "genesisNFTBoost",
              "type": "uint256"
            },
            {
              "internalType": "address",
              "name": "nftAsset",
              "type": "address"
            },
            {
              "internalType": "uint256",
              "name": "nftTokenId",
              "type": "uint256"
            },
            {
              "internalType": "address",
              "name": "reserve",
              "type": "address"
            },
            {
              "internalType": "uint256",
              "name": "borrowRate",
              "type": "uint256"
            },
            {
              "internalType": "uint256",
              "name": "initTimestamp",
              "type": "uint256"
            },
            {
              "internalType": "uint256",
              "name": "debtTimestamp",
              "type": "uint256"
            }
          ],
          "internalType": "struct DataTypes.LoanData",
          "name": "",
          "type": "tuple"
        }
      ],
      "stateMutability": "view",
      "type": "function"
    },
    {
      "inputs": [
        {
          "internalType": "uint256",
          "name": "loanId",
          "type": "uint256"
        }
      ],
      "name": "getLoanBoost",
      "outputs": [
        {
          "internalType": "uint256",
          "name": "",
          "type": "uint256"
        }
      ],
      "stateMutability": "view",
      "type": "function"
    },
    {
      "inputs": [
        {
          "internalType": "uint256",
          "name": "loanId",
          "type": "uint256"
        }
      ],
      "name": "getLoanDebt",
      "outputs": [
        {
          "internalType": "uint256",
          "name": "",
          "type": "uint256"
        }
      ],
      "stateMutability": "view",
      "type": "function"
    },
    {
      "inputs": [
        {
          "internalType": "uint256",
          "name": "loanId",
          "type": "uint256"
        }
      ],
      "name": "getLoanInterest",
      "outputs": [
        {
          "internalType": "uint256",
          "name": "",
          "type": "uint256"
        }
      ],
      "stateMutability": "view",
      "type": "function"
    },
    {
      "inputs": [
        {
          "internalType": "uint256",
          "name": "loanId",
          "type": "uint256"
        },
        {
          "internalType": "bytes32",
          "name": "request",
          "type": "bytes32"
        },
        {
          "components": [
            {
              "internalType": "uint8",
              "name": "v",
              "type": "uint8"
            },
            {
              "internalType": "bytes32",
              "name": "r",
              "type": "bytes32"
            },
            {
              "internalType": "bytes32",
              "name": "s",
              "type": "bytes32"
            },
            {
              "internalType": "bytes32",
              "name": "request",
              "type": "bytes32"
            },
            {
              "internalType": "uint256",
              "name": "deadline",
              "type": "uint256"
            },
            {
              "internalType": "bytes",
              "name": "payload",
              "type": "bytes"
            }
          ],
          "internalType": "struct Trustus.TrustusPacket",
          "name": "packet",
          "type": "tuple"
        }
      ],
      "name": "getLoanLiquidationPrice",
      "outputs": [
        {
          "internalType": "uint256",
          "name": "",
          "type": "uint256"
        },
        {
          "internalType": "uint256",
          "name": "",
          "type": "uint256"
        }
      ],
      "stateMutability": "view",
      "type": "function"
    },
    {
      "inputs": [
        {
          "internalType": "uint256",
          "name": "loanId",
          "type": "uint256"
        },
        {
          "internalType": "bytes32",
          "name": "request",
          "type": "bytes32"
        },
        {
          "components": [
            {
              "internalType": "uint8",
              "name": "v",
              "type": "uint8"
            },
            {
              "internalType": "bytes32",
              "name": "r",
              "type": "bytes32"
            },
            {
              "internalType": "bytes32",
              "name": "s",
              "type": "bytes32"
            },
            {
              "internalType": "bytes32",
              "name": "request",
              "type": "bytes32"
            },
            {
              "internalType": "uint256",
              "name": "deadline",
              "type": "uint256"
            },
            {
              "internalType": "bytes",
              "name": "payload",
              "type": "bytes"
            }
          ],
          "internalType": "struct Trustus.TrustusPacket",
          "name": "packet",
          "type": "tuple"
        }
      ],
      "name": "getLoanMaxETHCollateral",
      "outputs": [
        {
          "internalType": "uint256",
          "name": "",
          "type": "uint256"
        }
      ],
      "stateMutability": "view",
      "type": "function"
    },
    {
      "inputs": [
        {
          "internalType": "uint256",
          "name": "loanId",
          "type": "uint256"
        }
      ],
      "name": "getLoanTokenAddress",
      "outputs": [
        {
          "internalType": "address",
          "name": "",
          "type": "address"
        }
      ],
      "stateMutability": "view",
      "type": "function"
    },
    {
      "inputs": [
        {
          "internalType": "uint256",
          "name": "loanId",
          "type": "uint256"
        }
      ],
      "name": "getLoanTokenId",
      "outputs": [
        {
          "internalType": "uint256",
          "name": "",
          "type": "uint256"
        }
      ],
      "stateMutability": "view",
      "type": "function"
    },
    {
      "inputs": [],
      "name": "getLoansCount",
      "outputs": [
        {
          "internalType": "uint256",
          "name": "",
          "type": "uint256"
        }
      ],
      "stateMutability": "view",
      "type": "function"
    },
    {
      "inputs": [
        {
          "internalType": "address",
          "name": "nftAddress",
          "type": "address"
        },
        {
          "internalType": "uint256",
          "name": "nftTokenId",
          "type": "uint256"
        }
      ],
      "name": "getNFTLoanId",
      "outputs": [
        {
          "internalType": "uint256",
          "name": "",
          "type": "uint256"
        }
      ],
      "stateMutability": "view",
      "type": "function"
    },
    {
      "inputs": [
        {
          "internalType": "contract IAddressesProvider",
          "name": "addressesProvider",
          "type": "address"
        },
        {
          "internalType": "uint256",
          "name": "maxCollaterization",
          "type": "uint256"
        }
      ],
      "name": "initialize",
      "outputs": [],
      "stateMutability": "nonpayable",
      "type": "function"
    },
    {
      "inputs": [
        {
          "internalType": "uint256",
          "name": "loanId",
          "type": "uint256"
        }
      ],
      "name": "liquidateLoan",
      "outputs": [],
      "stateMutability": "nonpayable",
      "type": "function"
    },
    {
      "inputs": [
        {
          "internalType": "address",
          "name": "",
          "type": "address"
        },
        {
          "internalType": "address",
          "name": "",
          "type": "address"
        },
        {
          "internalType": "uint256",
          "name": "",
          "type": "uint256"
        },
        {
          "internalType": "bytes",
          "name": "",
          "type": "bytes"
        }
      ],
      "name": "onERC721Received",
      "outputs": [
        {
          "internalType": "bytes4",
          "name": "",
          "type": "bytes4"
        }
      ],
      "stateMutability": "pure",
      "type": "function"
    },
    {
      "inputs": [],
      "name": "owner",
      "outputs": [
        {
          "internalType": "address",
          "name": "",
          "type": "address"
        }
      ],
      "stateMutability": "view",
      "type": "function"
    },
    {
      "inputs": [],
      "name": "renounceOwnership",
      "outputs": [],
      "stateMutability": "nonpayable",
      "type": "function"
    },
    {
      "inputs": [
        {
          "internalType": "uint256",
          "name": "loanId",
          "type": "uint256"
        }
      ],
      "name": "repayLoan",
      "outputs": [],
      "stateMutability": "nonpayable",
      "type": "function"
    },
    {
      "inputs": [
        {
          "internalType": "address",
          "name": "newOwner",
          "type": "address"
        }
      ],
      "name": "transferOwnership",
      "outputs": [],
      "stateMutability": "nonpayable",
      "type": "function"
    },
    {
      "inputs": [
        {
          "internalType": "uint256",
          "name": "loanId",
          "type": "uint256"
        },
        {
          "internalType": "uint256",
          "name": "newAmount",
          "type": "uint256"
        }
      ],
      "name": "updateLoanAmount",
      "outputs": [],
      "stateMutability": "nonpayable",
      "type": "function"
    },
    {
      "inputs": [
        {
          "internalType": "uint256",
          "name": "loanId",
          "type": "uint256"
        },
        {
          "internalType": "uint256",
          "name": "newDebtTimestamp",
          "type": "uint256"
        }
      ],
      "name": "updateLoanDebtTimestamp",
      "outputs": [],
      "stateMutability": "nonpayable",
      "type": "function"
    }
  ],
  "bytecode": "0x6080806040523461001657611e9c908161001c8239f35b600080fdfe60806040526004361015610013575b600080fd5b60003560e01c80630bbf145b146102075780630c2452dd146101fe5780630c97200a146101f557806313e4cf2e146101ec578063150b7a02146101e357806321fb91cb146101da5780632af16c4e146101d1578063328ef332146101c85780633384828e146101bf5780633e4d92e2146101b65780634644004d146101ad5780634dbb2b7b146101a4578063504006ca1461019b578063715018a61461019257806371b60aa2146101895780638a2ec8bb146101805780638da5cb5b1461017757806394eb32541461016e5780639545773c14610165578063ab7b1c891461015c578063b398df5d14610153578063ccdd9f5d1461014a578063cd6dc68714610141578063e7d892bf146101385763f2fde38b1461013057600080fd5b61000e61165e565b5061000e6115fa565b5061000e611507565b5061000e611484565b5061000e610f7d565b5061000e610e59565b5061000e610df5565b5061000e610dcd565b5061000e610da3565b5061000e610d43565b5061000e610cd7565b5061000e610c72565b5061000e610bc3565b5061000e610a5f565b5061000e610986565b5061000e6108ee565b5061000e61072c565b5061000e6106e8565b5061000e6105ec565b5061000e610582565b5061000e610513565b5061000e61032f565b5061000e6102d6565b5061000e61027f565b503461000e57602036600319011261000e5760043580600052606660205260ff6001604060002001541660058110156102585760209161024b610250921515611a2d565b611cf8565b604051908152f35b634e487b7160e01b600052602160045260246000fd5b6001600160a01b0381160361000e57565b503461000e57604036600319011261000e5760043561029d8161026e565b60018060a01b0316600052606560205260406000206024356000526020526020604060002054604051908152f35b600091031261000e57565b503461000e57600036600319011261000e576020606754604051908152f35b6003199160608284011261000e5760043592602435926044359167ffffffffffffffff831161000e578260c09203011261000e5760040190565b503461000e576104936104836004610346366102f5565b9061037b61036b6001610363866000526066602052604060002090565b015460ff1690565b61037481610af3565b1515611a2d565b606854610398906001600160a01b03165b6001600160a01b031690565b60405163246bbf5360e21b81526020958693928491839182905afa908115610506575b6000916104d9575b506103eb60076103dd876000526066602052604060002090565b01546001600160a01b031690565b6008610401876000526066602052604060002090565b01549061042460405196879586948594633d638ac760e01b865260048601611b6c565b03916001600160a01b03165afa9283156104cc575b600093610497575b5050806004610475600361046261047d956000526066602052604060002090565b0154926000526066602052604060002090565b015490611c0f565b90611c1b565b6040519081529081906020820190565b0390f35b61047d92935090816104bd92903d106104c5575b6104b58183611914565b810190611b3c565b919038610441565b503d6104ab565b6104d461194e565b610439565b6104f99150833d85116104ff575b6104f18183611914565b810190611936565b386103c3565b503d6104e7565b61050e61194e565b6103bb565b503461000e57608036600319011261000e5761053060043561026e565b61053b60243561026e565b60643567ffffffffffffffff80821161000e573660238301121561000e57816004013590811161000e573691016024011161000e57604051630a85bd0160e11b8152602090f35b503461000e57602036600319011261000e5760043580600052606660205260ff60016040600020015416906005821015610258576105da6008916105ca610493941515611a2d565b6000526066602052604060002090565b01546040519081529081906020820190565b503461000e57602036600319011261000e576004803561060b8161026e565b6106136116f0565b6068546001600160a01b039182169160209161062f911661038c565b60405163e7334fe560e01b815293849182905afa9182156106db575b6000926106bb575b50803b1561000e5760405163a22cb46560e01b81526001600160a01b038316600482015260016024820152906000908290604490829084905af180156106ae575b61069b575b005b806106a8610699926118ba565b806102cb565b6106b661194e565b610694565b6106d491925060203d81116104ff576104f18183611914565b9038610653565b6106e361194e565b61064b565b503461000e57604036600319011261000e576004356107068161026e565b61070e6116f0565b6001600160a01b03166000908152606a602052604090206024359055005b503461000e5761012036600319011261000e576108b56108b061089b6004356107548161026e565b6108aa6024356107638161026e565b60c435926107708461026e565b61087160e435926107b660018060a01b036004602082606854166040519283809263e7334fe560e01b82525afa9081156108e1575b6000916108c3575b5016331461195b565b60675492836000526066602052604060002093845560018401906107e182600160ff19825416179055565b8154610100600160a81b03191660089190911b610100600160a81b031617905560443560028401556064356003840155608435600484015560a43560058401556007830180546001600160a01b0319166001600160a01b0388161790556008830184905561010435600a8401556009830180546001600160a01b0319166001600160a01b03909216919091179055565b42600b820155600c4291015560675493849360018060a01b03166000526065602052604060002090565b90600052602052604060002090565b556119be565b606755565b6104936104836067546119f4565b6108db915060203d81116104ff576104f18183611914565b386107ad565b6108e961194e565b6107a5565b503461000e57604036600319011261000e5760043561094060018060a01b036004602082606854166040519283809263e7334fe560e01b82525afa9081156108e1576000916108c3575016331461195b565b80600052606660205260ff60016040600020015416600581101561025857610969901515611a2d565b6002610982602435926000526066602052604060002090565b0155005b503461000e5760208060031936011261000e57610a2d9060018060a01b036109db8160048482606854166040519283809263e7334fe560e01b82525afa908115610a52575b600091610a3b575016331461195b565b6004356000526066825260696040600020928260018501610a0381600260ff19825416179055565b5460081c1660005252600760406000209201541660018060a01b0316600052602052604060002090565b610a3781546119be565b9055005b6108db9150853d87116104ff576104f18183611914565b610a5a61194e565b6109cb565b503461000e57604036600319011261000e57600435610ab160018060a01b036004602082606854166040519283809263e7334fe560e01b82525afa9081156108e1576000916108c3575016331461195b565b80600052606660205260ff60016040600020015416600581101561025857610ada901515611a2d565b600c610982602435926000526066602052604060002090565b6005111561025857565b9060058210156102585752565b9190916101c081019280518252610b2960208201516020840190610afd565b6040818101516001600160a01b031690830152606081810151908301526080808201519083015260a0808201519083015260c0808201519083015260e08082015190830152610100808201516001600160a01b0316908301526101208181015190830152610140808201516001600160a01b031690830152610160808201519083015261018080820151908301526101a080910151910152565b503461000e57602036600319011261000e57610493610c66610c61600435604051610bed816118db565b6101a06000918281528260208201528260408201528260608201528260808201528260a08201528260c08201528260e0820152826101008201528261012082015282610140820152826101608201528261018082015201526105ca61036b6001610363846000526066602052604060002090565b611a7c565b60405191829182610b0a565b503461000e57600080600319360112610cd457610c8d6116f0565b603380546001600160a01b031981169091556040519082906001600160a01b03167f8be0079c531659141344cd1fd0a4f28419497f9722a3daafe3b4186f6b6457e08284a3f35b80fd5b503461000e57602036600319011261000e57600435600090808252606660205260ff6001604084200154166005811015610d2f576104939261048392610d206040931515611a2d565b81526066602052204290611d2c565b634e487b7160e01b83526021600452602483fd5b503461000e57602036600319011261000e5760043580600052606660205260ff6001604060002001541660058110156102585761049391610d88610483921515611a2d565b60066104756004610462846000526066602052604060002090565b503461000e57600036600319011261000e576033546040516001600160a01b039091168152602090f35b503461000e57602036600319011261000e576020610250600435610df08161026e565b611d96565b503461000e57604036600319011261000e576020610e50600435610e188161026e565b60243590610e258261026e565b60018060a01b03166000526069835260406000209060018060a01b0316600052602052604060002090565b54604051908152f35b503461000e5760208060031936011261000e57610f4f90610f39610f2b610f1160018060a01b0393610eb88560048382606854166040519283809263e7334fe560e01b82525afa908115610f70575b600091610f59575016331461195b565b6004356000526066815260406000206001810191610edd83600360ff19825416179055565b6007820196875416600052606581526008604060002092015460005252600060408120555460018060a01b039060081c1690565b6001600160a01b0316600090815260696020526040902090565b91546001600160a01b031690565b60018060a01b0316600052602052604060002090565b610a378154611a11565b6108db9150843d86116104ff576104f18183611914565b610f7861194e565b610ea8565b503461000e57610f8c366102f5565b90610fac61038c61038c60096103dd876000526066602052604060002090565b91604091825194635c222bad60e01b8652856110556020978897889586836004809781955afa928315611477575b600093611458575b5060685487908a908890610ffe906001600160a01b031661038c565b9a8b83519763cfeed18160e01b895285898981855afa98891561144b575b60009961142c575b50845163e88c199760e01b81526001600160a01b03918216898201908152909a91998a169187918c91829160200190565b0381845afa998a1561141f575b60009a6113e8575b50899693898794879461112f998c99958a96519a8b80926304752df760e11b82525afa9889156113db575b6000996113b6575b509086859287519687809263246bbf5360e21b82525afa9485156113a9575b600095611386575b506111149060086110f86110e760076103dd896000526066602052604060002090565b966000526066602052604060002090565b01549651633d638ac760e01b8152988997889687958601611b6c565b0392165afa908115611379575b60009161135c575b50611c39565b9061113991611c58565b94868281611151846000526066602052604060002090565b600901548c51631e522b2960e01b815292839182906001600160a01b03165afa90848c8315946111996111e8956111e2956111ee9861134f575b600091611332575b506119da565b916111b961038c61038c60096103dd8c6000526066602052604060002090565b9051633efd066160e21b815293849182905afa918215611325575b600092611306575b50611c0f565b88611c1b565b91611cf8565b6111ff826111fa611c78565b611dc2565b61120b816111fa611ca8565b818110156112fc57509889975b611224896111fa611ccc565b8951634e5f612b60e11b815295869182905afa9384156112ef575b6000946112d0575b50611276885197889687958694631e0dc4f360e31b865285016040919493926060820195825260208201520152565b0392165afa9384156112c3575b60009461129e575b5050519081526020810191909152604090f35b61049392945090816112bb92903d106104c5576104b58183611914565b92903861128b565b6112cb61194e565b611283565b6112e8919450863d88116104ff576104f18183611914565b9238611247565b6112f761194e565b61123f565b9050988997611218565b61131e9192508c8d3d106104c5576104b58183611914565b90386111dc565b61132d61194e565b6111d4565b6113499150833d85116104c5576104b58183611914565b38611193565b61135761194e565b61118b565b61137391508a3d8c116104c5576104b58183611914565b38611129565b61138161194e565b611121565b6111149195506113a290883d8a116104ff576104f18183611914565b94906110c4565b6113b161194e565b6110bc565b85929199506113d28891823d84116104c5576104b58183611914565b9991925061109d565b6113e361194e565b611095565b869a50938987948a979461140e89959b9861112f9b3d8a116104c5576104b58183611914565b9d509497509497505093969061106a565b61142761194e565b611062565b611444919950863d88116104ff576104f18183611914565b9738611024565b61145361194e565b61101c565b611470919350873d89116104ff576104f18183611914565b9138610fe2565b61147f61194e565b610fda565b503461000e5760208060031936011261000e57610f4f90610f39610f2b610f1160018060a01b03936114e28560048382606854166040519283809263e7334fe560e01b82525afa908115610f7057600091610f59575016331461195b565b6004356000526066815260406000206001810191610edd83600460ff19825416179055565b503461000e57604036600319011261000e576004356115258161026e565b61156e6000549161154d60ff8460081c1615809481956115ec575b81156115cc575b50611798565b82611560600160ff196000541617600055565b6115b3575b602435906117fb565b61157457005b61158461ff001960005416600055565b604051600181527f7f26b83ff96e1f2b6a682f133852f6798a09c465da95921460cefb384740249890602090a1005b6115c761010061ff00196000541617600055565b611565565b303b159150816115de575b5038611547565b6001915060ff1614386115d7565b600160ff8216109150611540565b503461000e57602036600319011261000e5760043580600052606660205260ff6001604060002001541660058110156102585760076103dd610493936105ca611644941515611a2d565b6040516001600160a01b0390911681529081906020820190565b503461000e57602036600319011261000e5760043561167c8161026e565b6116846116f0565b6001600160a01b0381161561169c5761069990611748565b60405162461bcd60e51b815260206004820152602660248201527f4f776e61626c653a206e6577206f776e657220697320746865207a65726f206160448201526564647265737360d01b6064820152608490fd5b6033546001600160a01b0316330361170457565b606460405162461bcd60e51b815260206004820152602060248201527f4f776e61626c653a2063616c6c6572206973206e6f7420746865206f776e65726044820152fd5b6033549060018060a01b0380911691826bffffffffffffffffffffffff60a01b821617603355167f8be0079c531659141344cd1fd0a4f28419497f9722a3daafe3b4186f6b6457e06000604051a3565b1561179f57565b60405162461bcd60e51b815260206004820152602e60248201527f496e697469616c697a61626c653a20636f6e747261637420697320616c72656160448201526d191e481a5b9a5d1a585b1a5e995960921b6064820152608490fd5b61181560ff60005460081c1661181081611843565b611843565b61181e33611748565b60018060a01b03166bffffffffffffffffffffffff60a01b6068541617606855606b55565b1561184a57565b60405162461bcd60e51b815260206004820152602b60248201527f496e697469616c697a61626c653a20636f6e7472616374206973206e6f74206960448201526a6e697469616c697a696e6760a81b6064820152608490fd5b50634e487b7160e01b600052604160045260246000fd5b67ffffffffffffffff81116118ce57604052565b6118d66118a3565b604052565b6101c0810190811067ffffffffffffffff8211176118ce57604052565b6040810190811067ffffffffffffffff8211176118ce57604052565b90601f8019910116810190811067ffffffffffffffff8211176118ce57604052565b9081602091031261000e575161194b8161026e565b90565b506040513d6000823e3d90fd5b1561196257565b60405162461bcd60e51b815260206004820152601e60248201527f43616c6c6572206d757374206265204d61726b657420636f6e747261637400006044820152606490fd5b50634e487b7160e01b600052601160045260246000fd5b60019060001981146119ce570190565b6119d66119a7565b0190565b6127108181106119e8570390565b6119f06119a7565b0390565b60018110611a04575b6000190190565b611a0c6119a7565b6119fd565b8015611a04576000190190565b60405190611a2b826118db565b565b15611a3457565b60405162461bcd60e51b81526020600482015260146024820152732637b0b7103237b2b9903737ba1032bc34b9ba1760611b6044820152606490fd5b60058210156102585752565b90600c611a87611a1e565b9280548452611ab76001820154611aa460ff821660208801611a70565b60081c6001600160a01b03166040860152565b6002810154606085015260038101546080850152600481015460a0850152600581015460c0850152600681015460e085015260078101546001600160a01b0316610100850152600881015461012085015260098101546001600160a01b0316610140850152600a810154610160850152600b81015461018085015201546101a0830152565b9081602091031261000e575190565b908060209392818452848401376000828201840152601f01601f1916010190565b9392919060018060a01b031684526020840152604083015260806060830152803560ff811680910361000e576080830152602081013560a0830152604081013560c0830152606081013560e0830152608081013561010083015260a0810135601e198236030181121561000e57016020813591019067ffffffffffffffff811161000e57803603821361000e576101408360c061012061194b9601520191611b4b565b811981116119ce570190565b8161138819048111158215171561000e576127109102611388010490565b8060001904821181151516611c4c570290565b611c546119a7565b0290565b8115611c62570490565b634e487b7160e01b600052601260045260246000fd5b60405190611c85826118f8565b60148252731b1a5c5d5a59185d1a5bdb951a1c995cda1bdb1960621b6020830152565b60405190611cb5826118f8565b60088252671b1bd85b9119589d60c21b6020830152565b60405190611cd9826118f8565b601082526f6c69717569646174696f6e507269636560801b6020830152565b61194b90806000526066602052611d1460406000204290611d2c565b90600052606660205260026040600020015490611c0f565b611d789061025864496cebb8009304610259908060001904821181151516611d89575b02600c611d656002840154600a85015490611c39565b92015490818110611d7c575b0390611c39565b0490565b611d846119a7565b611d71565b611d916119a7565b611d4f565b6001600160a01b03166000908152606a602052604090205415611dbc5760406000205490565b606b5490565b9190604051906020632d839cb360e21b81840152604060248401528451948560648501526000915b868310611e355750508285611e2393611a2b969760849411611e28575b6044830152601f80199101168101036064810184520182611914565b611e4b565b6000848385010152611e07565b8183018101518584016084015291820191611dea565b600080916020815191016a636f6e736f6c652e6c6f675afa5056fea26469706673582212209d125c534dd5e91c044903c69fb21011a2a885251f7f0da61dc558801ae22bf764736f6c634300080f0033",
  "linkReferences": {},
  "deployedLinkReferences": {}
}