{
  "_format": "hh-sol-artifact-1",
  "contractName": "LoanCenter",
  "sourceName": "contracts/protocol/LoanCenter.sol",
  "abi": [
    {
      "anonymous": false,
      "inputs": [
        {
          "indexed": false,
          "internalType": "uint8",
          "name": "version",
          "type": "uint8"
        }
      ],
      "name": "Initialized",
      "type": "event"
    },
    {
      "anonymous": false,
      "inputs": [
        {
          "indexed": true,
          "internalType": "address",
          "name": "previousOwner",
          "type": "address"
        },
        {
          "indexed": true,
          "internalType": "address",
          "name": "newOwner",
          "type": "address"
        }
      ],
      "name": "OwnershipTransferred",
      "type": "event"
    },
    {
      "inputs": [
        {
          "internalType": "uint256",
          "name": "loanId",
          "type": "uint256"
        }
      ],
      "name": "activateLoan",
      "outputs": [],
      "stateMutability": "nonpayable",
      "type": "function"
    },
    {
      "inputs": [
        {
          "internalType": "address",
          "name": "collection",
          "type": "address"
        }
      ],
      "name": "approveNFTCollection",
      "outputs": [],
      "stateMutability": "nonpayable",
      "type": "function"
    },
    {
      "inputs": [
        {
          "internalType": "address",
          "name": "borrower",
          "type": "address"
        },
        {
          "internalType": "address",
          "name": "reserve",
          "type": "address"
        },
        {
          "internalType": "uint256",
          "name": "amount",
          "type": "uint256"
        },
        {
          "internalType": "uint256",
          "name": "maxLTV",
          "type": "uint256"
        },
        {
          "internalType": "uint256",
          "name": "boost",
          "type": "uint256"
        },
        {
          "internalType": "address",
          "name": "nftAddress",
          "type": "address"
        },
        {
          "internalType": "uint256",
          "name": "nftTokenID",
          "type": "uint256"
        },
        {
          "internalType": "uint256",
          "name": "borrowRate",
          "type": "uint256"
        }
      ],
      "name": "createLoan",
      "outputs": [
        {
          "internalType": "uint256",
          "name": "",
          "type": "uint256"
        }
      ],
      "stateMutability": "nonpayable",
      "type": "function"
    },
    {
      "inputs": [
        {
          "internalType": "address",
          "name": "user",
          "type": "address"
        },
        {
          "internalType": "address",
          "name": "collection",
          "type": "address"
        }
      ],
      "name": "getActiveLoansCount",
      "outputs": [
        {
          "internalType": "uint256",
          "name": "",
          "type": "uint256"
        }
      ],
      "stateMutability": "view",
      "type": "function"
    },
    {
      "inputs": [
        {
          "internalType": "uint256",
          "name": "loanId",
          "type": "uint256"
        }
      ],
      "name": "getLoan",
      "outputs": [
        {
          "components": [
            {
              "internalType": "uint256",
              "name": "loanId",
              "type": "uint256"
            },
            {
              "internalType": "enum DataTypes.LoanState",
              "name": "state",
              "type": "uint8"
            },
            {
              "internalType": "address",
              "name": "borrower",
              "type": "address"
            },
            {
              "internalType": "uint256",
              "name": "amount",
              "type": "uint256"
            },
            {
              "internalType": "uint256",
              "name": "maxLTV",
              "type": "uint256"
            },
            {
              "internalType": "uint256",
              "name": "boost",
              "type": "uint256"
            },
            {
              "internalType": "address",
              "name": "nftAsset",
              "type": "address"
            },
            {
              "internalType": "uint256",
              "name": "nftTokenId",
              "type": "uint256"
            },
            {
              "internalType": "address",
              "name": "reserve",
              "type": "address"
            },
            {
              "internalType": "uint256",
              "name": "borrowRate",
              "type": "uint256"
            },
            {
              "internalType": "uint256",
              "name": "initTimestamp",
              "type": "uint256"
            }
          ],
          "internalType": "struct DataTypes.LoanData",
          "name": "",
          "type": "tuple"
        }
      ],
      "stateMutability": "view",
      "type": "function"
    },
    {
      "inputs": [
        {
          "internalType": "uint256",
          "name": "loanId",
          "type": "uint256"
        }
      ],
      "name": "getLoanBoost",
      "outputs": [
        {
          "internalType": "uint256",
          "name": "",
          "type": "uint256"
        }
      ],
      "stateMutability": "view",
      "type": "function"
    },
    {
      "inputs": [
        {
          "internalType": "uint256",
          "name": "loanId",
          "type": "uint256"
        }
      ],
      "name": "getLoanDebt",
      "outputs": [
        {
          "internalType": "uint256",
          "name": "",
          "type": "uint256"
        }
      ],
      "stateMutability": "view",
      "type": "function"
    },
    {
      "inputs": [
        {
          "internalType": "uint256",
          "name": "loanId",
          "type": "uint256"
        }
      ],
      "name": "getLoanInterest",
      "outputs": [
        {
          "internalType": "uint256",
          "name": "",
          "type": "uint256"
        }
      ],
      "stateMutability": "view",
      "type": "function"
    },
    {
      "inputs": [
        {
          "internalType": "uint256",
          "name": "loanId",
          "type": "uint256"
        },
        {
          "internalType": "bytes32",
          "name": "request",
          "type": "bytes32"
        },
        {
          "components": [
            {
              "internalType": "uint8",
              "name": "v",
              "type": "uint8"
            },
            {
              "internalType": "bytes32",
              "name": "r",
              "type": "bytes32"
            },
            {
              "internalType": "bytes32",
              "name": "s",
              "type": "bytes32"
            },
            {
              "internalType": "bytes32",
              "name": "request",
              "type": "bytes32"
            },
            {
              "internalType": "uint256",
              "name": "deadline",
              "type": "uint256"
            },
            {
              "internalType": "bytes",
              "name": "payload",
              "type": "bytes"
            }
          ],
          "internalType": "struct Trustus.TrustusPacket",
          "name": "packet",
          "type": "tuple"
        }
      ],
      "name": "getLoanLiquidationPrice",
      "outputs": [
        {
          "internalType": "uint256",
          "name": "",
          "type": "uint256"
        },
        {
          "internalType": "uint256",
          "name": "",
          "type": "uint256"
        }
      ],
      "stateMutability": "view",
      "type": "function"
    },
    {
      "inputs": [
        {
          "internalType": "uint256",
          "name": "loanId",
          "type": "uint256"
        },
        {
          "internalType": "bytes32",
          "name": "request",
          "type": "bytes32"
        },
        {
          "components": [
            {
              "internalType": "uint8",
              "name": "v",
              "type": "uint8"
            },
            {
              "internalType": "bytes32",
              "name": "r",
              "type": "bytes32"
            },
            {
              "internalType": "bytes32",
              "name": "s",
              "type": "bytes32"
            },
            {
              "internalType": "bytes32",
              "name": "request",
              "type": "bytes32"
            },
            {
              "internalType": "uint256",
              "name": "deadline",
              "type": "uint256"
            },
            {
              "internalType": "bytes",
              "name": "payload",
              "type": "bytes"
            }
          ],
          "internalType": "struct Trustus.TrustusPacket",
          "name": "packet",
          "type": "tuple"
        }
      ],
      "name": "getLoanMaxETHCollateral",
      "outputs": [
        {
          "internalType": "uint256",
          "name": "",
          "type": "uint256"
        }
      ],
      "stateMutability": "view",
      "type": "function"
    },
    {
      "inputs": [
        {
          "internalType": "uint256",
          "name": "loanId",
          "type": "uint256"
        }
      ],
      "name": "getLoanTokenAddress",
      "outputs": [
        {
          "internalType": "address",
          "name": "",
          "type": "address"
        }
      ],
      "stateMutability": "view",
      "type": "function"
    },
    {
      "inputs": [
        {
          "internalType": "uint256",
          "name": "loanId",
          "type": "uint256"
        }
      ],
      "name": "getLoanTokenId",
      "outputs": [
        {
          "internalType": "uint256",
          "name": "",
          "type": "uint256"
        }
      ],
      "stateMutability": "view",
      "type": "function"
    },
    {
      "inputs": [],
      "name": "getLoansCount",
      "outputs": [
        {
          "internalType": "uint256",
          "name": "",
          "type": "uint256"
        }
      ],
      "stateMutability": "view",
      "type": "function"
    },
    {
      "inputs": [
        {
          "internalType": "address",
          "name": "nftAddress",
          "type": "address"
        },
        {
          "internalType": "uint256",
          "name": "nftTokenID",
          "type": "uint256"
        }
      ],
      "name": "getNFTLoanId",
      "outputs": [
        {
          "internalType": "uint256",
          "name": "",
          "type": "uint256"
        }
      ],
      "stateMutability": "view",
      "type": "function"
    },
    {
      "inputs": [
        {
          "internalType": "contract IAddressesProvider",
          "name": "addressesProvider",
          "type": "address"
        }
      ],
      "name": "initialize",
      "outputs": [],
      "stateMutability": "nonpayable",
      "type": "function"
    },
    {
      "inputs": [
        {
          "internalType": "uint256",
          "name": "loanId",
          "type": "uint256"
        }
      ],
      "name": "liquidateLoan",
      "outputs": [],
      "stateMutability": "nonpayable",
      "type": "function"
    },
    {
      "inputs": [
        {
          "internalType": "address",
          "name": "",
          "type": "address"
        },
        {
          "internalType": "address",
          "name": "",
          "type": "address"
        },
        {
          "internalType": "uint256",
          "name": "",
          "type": "uint256"
        },
        {
          "internalType": "bytes",
          "name": "",
          "type": "bytes"
        }
      ],
      "name": "onERC721Received",
      "outputs": [
        {
          "internalType": "bytes4",
          "name": "",
          "type": "bytes4"
        }
      ],
      "stateMutability": "pure",
      "type": "function"
    },
    {
      "inputs": [],
      "name": "owner",
      "outputs": [
        {
          "internalType": "address",
          "name": "",
          "type": "address"
        }
      ],
      "stateMutability": "view",
      "type": "function"
    },
    {
      "inputs": [],
      "name": "renounceOwnership",
      "outputs": [],
      "stateMutability": "nonpayable",
      "type": "function"
    },
    {
      "inputs": [
        {
          "internalType": "uint256",
          "name": "loanId",
          "type": "uint256"
        }
      ],
      "name": "repayLoan",
      "outputs": [],
      "stateMutability": "nonpayable",
      "type": "function"
    },
    {
      "inputs": [
        {
          "internalType": "address",
          "name": "newOwner",
          "type": "address"
        }
      ],
      "name": "transferOwnership",
      "outputs": [],
      "stateMutability": "nonpayable",
      "type": "function"
    }
  ],
  "bytecode": "0x6080806040523461001657611c20908161001c8239f35b600080fdfe60806040526004361015610013575b600080fd5b60003560e01c80630bbf145b146101b75780630c2452dd146101ae5780630c97200a146101a557806313e4cf2e1461019c578063150b7a021461019357806321fb91cb1461018a5780632af16c4e146101815780634644004d14610178578063504006ca1461016f578063715018a61461016657806371b60aa21461015d5780638a2ec8bb146101545780638da5cb5b1461014b5780639545773c146101425780639b75247c14610139578063ab7b1c8914610130578063b398df5d14610127578063c4d66de81461011e578063ccdd9f5d14610115578063e7d892bf1461010c5763f2fde38b1461010457600080fd5b61000e611430565b5061000e6113b9565b5061000e611336565b5061000e611248565b5061000e610d41565b5061000e610c1d565b5061000e610a71565b5061000e610a0d565b5061000e6109e3565b5061000e610992565b5061000e610926565b5061000e6108c1565b5061000e610827565b5061000e610698565b5061000e61059c565b5061000e610532565b5061000e6104c3565b5061000e6102df565b5061000e610286565b5061000e61022f565b503461000e57602036600319011261000e5760043580600052606660205260ff600160406000200154166005811015610208576020916101fb6102009215156117fc565b611aa6565b604051908152f35b634e487b7160e01b600052602160045260246000fd5b6001600160a01b0381160361000e57565b503461000e57604036600319011261000e5760043561024d8161021e565b60018060a01b0316600052606560205260406000206024356000526020526020604060002054604051908152f35b600091031261000e57565b503461000e57600036600319011261000e576020606754604051908152f35b6003199160608284011261000e5760043592602435926044359167ffffffffffffffff831161000e578260c09203011261000e5760040190565b503461000e5761044361043360046102f6366102a5565b9061032b61031b6001610313866000526066602052604060002090565b015460ff1690565b61032481610778565b15156117fc565b606854610348906001600160a01b03165b6001600160a01b031690565b60405163246bbf5360e21b81526020958693928491839182905afa9081156104b6575b600091610489575b5061039b600561038d876000526066602052604060002090565b01546001600160a01b031690565b60066103b1876000526066602052604060002090565b0154906103d460405196879586948594633d638ac760e01b86526004860161191a565b03916001600160a01b03165afa92831561047c575b600093610447575b5050806004610425600361041261042d956000526066602052604060002090565b0154926000526066602052604060002090565b0154906119bd565b906119c9565b6040519081529081906020820190565b0390f35b61042d929350908161046d92903d10610475575b61046581836116e3565b8101906118ea565b9190386103f1565b503d61045b565b61048461171d565b6103e9565b6104a99150833d85116104af575b6104a181836116e3565b810190611705565b38610373565b503d610497565b6104be61171d565b61036b565b503461000e57608036600319011261000e576104e060043561021e565b6104eb60243561021e565b60643567ffffffffffffffff80821161000e573660238301121561000e57816004013590811161000e573691016024011161000e57604051630a85bd0160e11b8152602090f35b503461000e57602036600319011261000e5760043580600052606660205260ff600160406000200154169060058210156102085761058a60069161057a6104439415156117fc565b6000526066602052604060002090565b01546040519081529081906020820190565b503461000e57602036600319011261000e57600480356105bb8161021e565b6105c36114c2565b6068546001600160a01b03918216916020916105df911661033c565b60405163e7334fe560e01b815293849182905afa91821561068b575b60009261066b575b50803b1561000e5760405163a22cb46560e01b81526001600160a01b038316600482015260016024820152906000908290604490829084905af1801561065e575b61064b575b005b8061065861064992611689565b8061027b565b61066661171d565b610644565b61068491925060203d81116104af576104a181836116e3565b9038610603565b61069361171d565b6105fb565b503461000e5760208060031936011261000e576107409060018060a01b036106ee8160048482606854166040519283809263e7334fe560e01b82525afa90811561076b575b60009161074e575b5016331461172a565b600435600052606682526069604060002092826001850161071681600260ff19825416179055565b5460081c1660005252600560406000209201541660018060a01b0316600052602052604060002090565b61074a815461178d565b9055005b6107659150853d87116104af576104a181836116e3565b386106e5565b61077361171d565b6106dd565b6005111561020857565b9060058210156102085752565b919091610160810192805182526107ae60208201516020840190610782565b6040818101516001600160a01b031690830152606081810151908301526080808201519083015260a0808201519083015260c0808201516001600160a01b03169083015260e08181015190830152610100808201516001600160a01b031690830152610120808201519083015261014080910151910152565b503461000e57602036600319011261000e576104436108b56108b0600435604051610851816116aa565b6101406000918281528260208201528260408201528260608201528260808201528260a08201528260c08201528260e08201528261010082015282610120820152015261057a61031b6001610313846000526066602052604060002090565b61184b565b6040519182918261078f565b503461000e57600080600319360112610923576108dc6114c2565b603380546001600160a01b031981169091556040519082906001600160a01b03167f8be0079c531659141344cd1fd0a4f28419497f9722a3daafe3b4186f6b6457e08284a3f35b80fd5b503461000e57602036600319011261000e57600435600090808252606660205260ff600160408420015416600581101561097e57610443926104339261096f60409315156117fc565b81526066602052204290611ada565b634e487b7160e01b83526021600452602483fd5b503461000e57602036600319011261000e5760043580600052606660205260ff60016040600020015416906005821015610208576109d960049161057a60209415156117fc565b0154604051908152f35b503461000e57600036600319011261000e576033546040516001600160a01b039091168152602090f35b503461000e57604036600319011261000e576020610a68600435610a308161021e565b60243590610a3d8261021e565b60018060a01b03166000526069835260406000209060018060a01b0316600052602052604060002090565b54604051908152f35b503461000e5761010036600319011261000e57610bea610be5610bd0600435610a998161021e565b610bdf602435610aa88161021e565b60a43592610ab58461021e565b610bac60c43592610afa60018060a01b036004602082606854166040519283809263e7334fe560e01b82525afa908115610c10575b600091610bf8575016331461172a565b6067549283600052606660205260406000209384556001840190610b2582600160ff19825416179055565b8154610100600160a81b03191660089190911b610100600160a81b03161790556044356002840155606435600384015560843560048401556005830180546001600160a01b0319166001600160a01b0388161790556006830184905560e43560088401556007830180546001600160a01b0319166001600160a01b03909216919091179055565b60094291015560675493849360018060a01b03166000526065602052604060002090565b90600052602052604060002090565b5561178d565b606755565b6104436104336067546117a9565b610765915060203d81116104af576104a181836116e3565b610c1861171d565b610aea565b503461000e5760208060031936011261000e57610d1390610cfd610cef610cd560018060a01b0393610c7c8560048382606854166040519283809263e7334fe560e01b82525afa908115610d34575b600091610d1d575016331461172a565b6004356000526066815260406000206001810191610ca183600360ff19825416179055565b6005820196875416600052606581526006604060002092015460005252600060408120555460018060a01b039060081c1690565b6001600160a01b0316600090815260696020526040902090565b91546001600160a01b031690565b60018060a01b0316600052602052604060002090565b61074a81546117e0565b6107659150843d86116104af576104a181836116e3565b610d3c61171d565b610c6c565b503461000e57610d50366102a5565b90610d7061033c61033c600761038d876000526066602052604060002090565b91604091825194635c222bad60e01b865285610e196020978897889586836004809781955afa92831561123b575b60009361121c575b5060685487908a908890610dc2906001600160a01b031661033c565b9a8b83519763cfeed18160e01b895285898981855afa98891561120f575b6000996111f0575b50845163e88c199760e01b81526001600160a01b03918216898201908152909a91998a169187918c91829160200190565b0381845afa998a156111e3575b60009a6111ac575b508996938987948794610ef3998c99958a96519a8b80926304752df760e11b82525afa98891561119f575b60009961117a575b509086859287519687809263246bbf5360e21b82525afa94851561116d575b60009561114a575b50610ed8906006610ebc610eab600561038d896000526066602052604060002090565b966000526066602052604060002090565b01549651633d638ac760e01b815298899788968795860161191a565b0392165afa90811561113d575b600091611120575b506119e7565b90610efd91611a06565b94868281610f15846000526066602052604060002090565b600701548c51631e522b2960e01b815292839182906001600160a01b03165afa90848c831594610f5d610fac95610fa695610fb298611113575b6000916110f6575b506117c6565b91610f7d61033c61033c600761038d8c6000526066602052604060002090565b9051633efd066160e21b815293849182905afa9182156110e9575b6000926110ca575b506119bd565b886119c9565b91611aa6565b610fc382610fbe611a26565b611b46565b610fcf81610fbe611a56565b818110156110c057509889975b610fe889610fbe611a7a565b8951634e5f612b60e11b815295869182905afa9384156110b3575b600094611094575b5061103a885197889687958694631e0dc4f360e31b865285016040919493926060820195825260208201520152565b0392165afa938415611087575b600094611062575b5050519081526020810191909152604090f35b610443929450908161107f92903d106104755761046581836116e3565b92903861104f565b61108f61171d565b611047565b6110ac919450863d88116104af576104a181836116e3565b923861100b565b6110bb61171d565b611003565b9050988997610fdc565b6110e29192508c8d3d106104755761046581836116e3565b9038610fa0565b6110f161171d565b610f98565b61110d9150833d85116104755761046581836116e3565b38610f57565b61111b61171d565b610f4f565b61113791508a3d8c116104755761046581836116e3565b38610eed565b61114561171d565b610ee5565b610ed891955061116690883d8a116104af576104a181836116e3565b9490610e88565b61117561171d565b610e80565b85929199506111968891823d84116104755761046581836116e3565b99919250610e61565b6111a761171d565b610e59565b869a50938987948a97946111d289959b98610ef39b3d8a116104755761046581836116e3565b9d5094975094975050939690610e2e565b6111eb61171d565b610e26565b611208919950863d88116104af576104a181836116e3565b9738610de8565b61121761171d565b610de0565b611234919350873d89116104af576104a181836116e3565b9138610da6565b61124361171d565b610d9e565b503461000e57602036600319011261000e576004356112668161021e565b6112aa6000549161128e60ff8460081c161580948195611328575b8115611308575b5061156a565b826112a1600160ff196000541617600055565b6112ef576115cd565b6112b057005b6112c061ff001960005416600055565b604051600181527f7f26b83ff96e1f2b6a682f133852f6798a09c465da95921460cefb384740249890602090a1005b61130361010061ff00196000541617600055565b6115cd565b303b1591508161131a575b5038611288565b6001915060ff161438611313565b600160ff8216109150611281565b503461000e5760208060031936011261000e57610d1390610cfd610cef610cd560018060a01b03936113948560048382606854166040519283809263e7334fe560e01b82525afa908115610d3457600091610d1d575016331461172a565b6004356000526066815260406000206001810191610ca183600460ff19825416179055565b503461000e57602036600319011261000e5760043580600052606660205260ff60016040600020015416906005821015610208576113fb6104439215156117fc565b60009081526066602052604090206001600160a01b03906005015460405191166001600160a01b031681529081906020820190565b503461000e57602036600319011261000e5760043561144e8161021e565b6114566114c2565b6001600160a01b0381161561146e576106499061151a565b60405162461bcd60e51b815260206004820152602660248201527f4f776e61626c653a206e6577206f776e657220697320746865207a65726f206160448201526564647265737360d01b6064820152608490fd5b6033546001600160a01b031633036114d657565b606460405162461bcd60e51b815260206004820152602060248201527f4f776e61626c653a2063616c6c6572206973206e6f7420746865206f776e65726044820152fd5b6033549060018060a01b0380911691826bffffffffffffffffffffffff60a01b821617603355167f8be0079c531659141344cd1fd0a4f28419497f9722a3daafe3b4186f6b6457e06000604051a3565b1561157157565b60405162461bcd60e51b815260206004820152602e60248201527f496e697469616c697a61626c653a20636f6e747261637420697320616c72656160448201526d191e481a5b9a5d1a585b1a5e995960921b6064820152608490fd5b6115e760ff60005460081c166115e281611612565b611612565b6115f03361151a565b60018060a01b03166bffffffffffffffffffffffff60a01b6068541617606855565b1561161957565b60405162461bcd60e51b815260206004820152602b60248201527f496e697469616c697a61626c653a20636f6e7472616374206973206e6f74206960448201526a6e697469616c697a696e6760a81b6064820152608490fd5b50634e487b7160e01b600052604160045260246000fd5b67ffffffffffffffff811161169d57604052565b6116a5611672565b604052565b610160810190811067ffffffffffffffff82111761169d57604052565b6040810190811067ffffffffffffffff82111761169d57604052565b90601f8019910116810190811067ffffffffffffffff82111761169d57604052565b9081602091031261000e575161171a8161021e565b90565b506040513d6000823e3d90fd5b1561173157565b60405162461bcd60e51b815260206004820152601e60248201527f43616c6c6572206d757374206265204d61726b657420636f6e747261637400006044820152606490fd5b50634e487b7160e01b600052601160045260246000fd5b600190600019811461179d570190565b6117a5611776565b0190565b600181106117b9575b6000190190565b6117c1611776565b6117b2565b6127108181106117d4570390565b6117dc611776565b0390565b80156117b9576000190190565b604051906117fa826116aa565b565b1561180357565b60405162461bcd60e51b81526020600482015260146024820152732637b0b7103237b2b9903737ba1032bc34b9ba1760611b6044820152606490fd5b60058210156102085752565b9060096118566117ed565b9280548452611886600182015461187360ff82166020880161183f565b60081c6001600160a01b03166040860152565b6002810154606085015260038101546080850152600481015460a085015260058101546001600160a01b031660c0850152600681015460e085015260078101546001600160a01b031661010085015260088101546101208501520154610140830152565b9081602091031261000e575190565b908060209392818452848401376000828201840152601f01601f1916010190565b9392919060018060a01b031684526020840152604083015260806060830152803560ff811680910361000e576080830152602081013560a0830152604081013560c0830152606081013560e0830152608081013561010083015260a0810135601e198236030181121561000e57016020813591019067ffffffffffffffff811161000e57803603821361000e576101408360c061012061171a96015201916118f9565b8119811161179d570190565b8161138819048111158215171561000e576127109102611388010490565b80600019048211811515166119fa570290565b611a02611776565b0290565b8115611a10570490565b634e487b7160e01b600052601260045260246000fd5b60405190611a33826116c7565b60148252731b1a5c5d5a59185d1a5bdb951a1c995cda1bdb1960621b6020830152565b60405190611a63826116c7565b60088252671b1bd85b9119589d60c21b6020830152565b60405190611a87826116c7565b601082526f6c69717569646174696f6e507269636560801b6020830152565b61171a90806000526066602052611ac260406000204290611ada565b906000526066602052600260406000200154906119bd565b611b28906002612710611b1f6301e133806009850154808810611b39575b8088036305f5e1009889928260001904841191141516611b2c575b020460088501546119e7565b049101546119e7565b0490565b611b34611776565b611b13565b611b41611776565b611af8565b9190604051906020632d839cb360e21b81840152604060248401528451948560648501526000915b868310611bb95750508285611ba7936117fa969760849411611bac575b6044830152601f801991011681010360648101845201826116e3565b611bcf565b6000848385010152611b8b565b8183018101518584016084015291820191611b6e565b600080916020815191016a636f6e736f6c652e6c6f675afa5056fea264697066735822122040f56720895f393b6c34435a44ab21c077e3f1734a4328458491d50958d0a79864736f6c634300080f0033",
  "linkReferences": {},
  "deployedLinkReferences": {}
}