{
  "_format": "hh-sol-artifact-1",
  "contractName": "LoanCenter",
  "sourceName": "contracts/protocol/Lending/LoanCenter.sol",
  "abi": [
    {
      "inputs": [],
      "stateMutability": "nonpayable",
      "type": "constructor"
    },
    {
      "anonymous": false,
      "inputs": [
        {
          "indexed": false,
          "internalType": "uint8",
          "name": "version",
          "type": "uint8"
        }
      ],
      "name": "Initialized",
      "type": "event"
    },
    {
      "anonymous": false,
      "inputs": [
        {
          "indexed": true,
          "internalType": "address",
          "name": "previousOwner",
          "type": "address"
        },
        {
          "indexed": true,
          "internalType": "address",
          "name": "newOwner",
          "type": "address"
        }
      ],
      "name": "OwnershipTransferred",
      "type": "event"
    },
    {
      "inputs": [
        {
          "internalType": "uint256",
          "name": "loanId",
          "type": "uint256"
        }
      ],
      "name": "activateLoan",
      "outputs": [],
      "stateMutability": "nonpayable",
      "type": "function"
    },
    {
      "inputs": [
        {
          "internalType": "address",
          "name": "collection",
          "type": "address"
        }
      ],
      "name": "approveNFTCollection",
      "outputs": [],
      "stateMutability": "nonpayable",
      "type": "function"
    },
    {
      "inputs": [
        {
          "internalType": "address",
          "name": "collection",
          "type": "address"
        },
        {
          "internalType": "uint256",
          "name": "maxCollaterization",
          "type": "uint256"
        }
      ],
      "name": "changeCollectionMaxCollaterization",
      "outputs": [],
      "stateMutability": "nonpayable",
      "type": "function"
    },
    {
      "inputs": [
        {
          "internalType": "address",
          "name": "borrower",
          "type": "address"
        },
        {
          "internalType": "address",
          "name": "reserve",
          "type": "address"
        },
        {
          "internalType": "uint256",
          "name": "amount",
          "type": "uint256"
        },
        {
          "internalType": "uint256",
          "name": "maxLTV",
          "type": "uint256"
        },
        {
          "internalType": "uint256",
          "name": "boost",
          "type": "uint256"
        },
        {
          "internalType": "uint256",
          "name": "genesisNFTId",
          "type": "uint256"
        },
        {
          "internalType": "address",
          "name": "nftAddress",
          "type": "address"
        },
        {
          "internalType": "uint256[]",
          "name": "nftTokenIds",
          "type": "uint256[]"
        },
        {
          "internalType": "uint256",
          "name": "borrowRate",
          "type": "uint256"
        }
      ],
      "name": "createLoan",
      "outputs": [
        {
          "internalType": "uint256",
          "name": "",
          "type": "uint256"
        }
      ],
      "stateMutability": "nonpayable",
      "type": "function"
    },
    {
      "inputs": [
        {
          "internalType": "address",
          "name": "user",
          "type": "address"
        },
        {
          "internalType": "address",
          "name": "collection",
          "type": "address"
        }
      ],
      "name": "getActiveLoansCount",
      "outputs": [
        {
          "internalType": "uint256",
          "name": "",
          "type": "uint256"
        }
      ],
      "stateMutability": "view",
      "type": "function"
    },
    {
      "inputs": [
        {
          "internalType": "address",
          "name": "collection",
          "type": "address"
        }
      ],
      "name": "getCollectionMaxCollaterization",
      "outputs": [
        {
          "internalType": "uint256",
          "name": "",
          "type": "uint256"
        }
      ],
      "stateMutability": "view",
      "type": "function"
    },
    {
      "inputs": [
        {
          "internalType": "uint256",
          "name": "loanId",
          "type": "uint256"
        }
      ],
      "name": "getLoan",
      "outputs": [
        {
          "components": [
            {
              "internalType": "uint256",
              "name": "loanId",
              "type": "uint256"
            },
            {
              "internalType": "enum DataTypes.LoanState",
              "name": "state",
              "type": "uint8"
            },
            {
              "internalType": "address",
              "name": "borrower",
              "type": "address"
            },
            {
              "internalType": "uint256",
              "name": "amount",
              "type": "uint256"
            },
            {
              "internalType": "uint256",
              "name": "maxLTV",
              "type": "uint256"
            },
            {
              "internalType": "uint256",
              "name": "boost",
              "type": "uint256"
            },
            {
              "internalType": "uint256",
              "name": "genesisNFTId",
              "type": "uint256"
            },
            {
              "internalType": "uint256",
              "name": "genesisNFTBoost",
              "type": "uint256"
            },
            {
              "internalType": "address",
              "name": "nftAsset",
              "type": "address"
            },
            {
              "internalType": "uint256[]",
              "name": "nftTokenIds",
              "type": "uint256[]"
            },
            {
              "internalType": "address",
              "name": "pool",
              "type": "address"
            },
            {
              "internalType": "uint256",
              "name": "borrowRate",
              "type": "uint256"
            },
            {
              "internalType": "uint256",
              "name": "initTimestamp",
              "type": "uint256"
            },
            {
              "internalType": "uint256",
              "name": "debtTimestamp",
              "type": "uint256"
            }
          ],
          "internalType": "struct DataTypes.LoanData",
          "name": "",
          "type": "tuple"
        }
      ],
      "stateMutability": "view",
      "type": "function"
    },
    {
      "inputs": [
        {
          "internalType": "uint256",
          "name": "loanId",
          "type": "uint256"
        }
      ],
      "name": "getLoanBoost",
      "outputs": [
        {
          "internalType": "uint256",
          "name": "",
          "type": "uint256"
        }
      ],
      "stateMutability": "view",
      "type": "function"
    },
    {
      "inputs": [
        {
          "internalType": "uint256",
          "name": "loanId",
          "type": "uint256"
        }
      ],
      "name": "getLoanDebt",
      "outputs": [
        {
          "internalType": "uint256",
          "name": "",
          "type": "uint256"
        }
      ],
      "stateMutability": "view",
      "type": "function"
    },
    {
      "inputs": [
        {
          "internalType": "uint256",
          "name": "loanId",
          "type": "uint256"
        }
      ],
      "name": "getLoanInterest",
      "outputs": [
        {
          "internalType": "uint256",
          "name": "",
          "type": "uint256"
        }
      ],
      "stateMutability": "view",
      "type": "function"
    },
    {
      "inputs": [
        {
          "internalType": "uint256",
          "name": "loanId",
          "type": "uint256"
        }
      ],
      "name": "getLoanLendingPool",
      "outputs": [
        {
          "internalType": "address",
          "name": "",
          "type": "address"
        }
      ],
      "stateMutability": "view",
      "type": "function"
    },
    {
      "inputs": [
        {
          "internalType": "uint256",
          "name": "loanId",
          "type": "uint256"
        },
        {
          "internalType": "bytes32",
          "name": "request",
          "type": "bytes32"
        },
        {
          "components": [
            {
              "internalType": "uint8",
              "name": "v",
              "type": "uint8"
            },
            {
              "internalType": "bytes32",
              "name": "r",
              "type": "bytes32"
            },
            {
              "internalType": "bytes32",
              "name": "s",
              "type": "bytes32"
            },
            {
              "internalType": "bytes32",
              "name": "request",
              "type": "bytes32"
            },
            {
              "internalType": "uint256",
              "name": "deadline",
              "type": "uint256"
            },
            {
              "internalType": "bytes",
              "name": "payload",
              "type": "bytes"
            }
          ],
          "internalType": "struct Trustus.TrustusPacket",
          "name": "packet",
          "type": "tuple"
        }
      ],
      "name": "getLoanLiquidationPrice",
      "outputs": [
        {
          "internalType": "uint256",
          "name": "",
          "type": "uint256"
        }
      ],
      "stateMutability": "view",
      "type": "function"
    },
    {
      "inputs": [
        {
          "internalType": "uint256",
          "name": "loanId",
          "type": "uint256"
        },
        {
          "internalType": "bytes32",
          "name": "request",
          "type": "bytes32"
        },
        {
          "components": [
            {
              "internalType": "uint8",
              "name": "v",
              "type": "uint8"
            },
            {
              "internalType": "bytes32",
              "name": "r",
              "type": "bytes32"
            },
            {
              "internalType": "bytes32",
              "name": "s",
              "type": "bytes32"
            },
            {
              "internalType": "bytes32",
              "name": "request",
              "type": "bytes32"
            },
            {
              "internalType": "uint256",
              "name": "deadline",
              "type": "uint256"
            },
            {
              "internalType": "bytes",
              "name": "payload",
              "type": "bytes"
            }
          ],
          "internalType": "struct Trustus.TrustusPacket",
          "name": "packet",
          "type": "tuple"
        }
      ],
      "name": "getLoanMaxETHCollateral",
      "outputs": [
        {
          "internalType": "uint256",
          "name": "",
          "type": "uint256"
        }
      ],
      "stateMutability": "view",
      "type": "function"
    },
    {
      "inputs": [
        {
          "internalType": "uint256",
          "name": "loanId",
          "type": "uint256"
        }
      ],
      "name": "getLoanTokenAddress",
      "outputs": [
        {
          "internalType": "address",
          "name": "",
          "type": "address"
        }
      ],
      "stateMutability": "view",
      "type": "function"
    },
    {
      "inputs": [
        {
          "internalType": "uint256",
          "name": "loanId",
          "type": "uint256"
        }
      ],
      "name": "getLoanTokenIds",
      "outputs": [
        {
          "internalType": "uint256[]",
          "name": "",
          "type": "uint256[]"
        }
      ],
      "stateMutability": "view",
      "type": "function"
    },
    {
      "inputs": [],
      "name": "getLoansCount",
      "outputs": [
        {
          "internalType": "uint256",
          "name": "",
          "type": "uint256"
        }
      ],
      "stateMutability": "view",
      "type": "function"
    },
    {
      "inputs": [
        {
          "internalType": "address",
          "name": "nftAddress",
          "type": "address"
        },
        {
          "internalType": "uint256",
          "name": "nftTokenId",
          "type": "uint256"
        }
      ],
      "name": "getNFTLoanId",
      "outputs": [
        {
          "internalType": "uint256",
          "name": "",
          "type": "uint256"
        }
      ],
      "stateMutability": "view",
      "type": "function"
    },
    {
      "inputs": [
        {
          "internalType": "contract IAddressesProvider",
          "name": "addressesProvider",
          "type": "address"
        },
        {
          "internalType": "uint256",
          "name": "maxCollaterization",
          "type": "uint256"
        }
      ],
      "name": "initialize",
      "outputs": [],
      "stateMutability": "nonpayable",
      "type": "function"
    },
    {
      "inputs": [
        {
          "internalType": "uint256",
          "name": "loanId",
          "type": "uint256"
        }
      ],
      "name": "liquidateLoan",
      "outputs": [],
      "stateMutability": "nonpayable",
      "type": "function"
    },
    {
      "inputs": [
        {
          "internalType": "address",
          "name": "",
          "type": "address"
        },
        {
          "internalType": "address",
          "name": "",
          "type": "address"
        },
        {
          "internalType": "uint256",
          "name": "",
          "type": "uint256"
        },
        {
          "internalType": "bytes",
          "name": "",
          "type": "bytes"
        }
      ],
      "name": "onERC721Received",
      "outputs": [
        {
          "internalType": "bytes4",
          "name": "",
          "type": "bytes4"
        }
      ],
      "stateMutability": "pure",
      "type": "function"
    },
    {
      "inputs": [],
      "name": "owner",
      "outputs": [
        {
          "internalType": "address",
          "name": "",
          "type": "address"
        }
      ],
      "stateMutability": "view",
      "type": "function"
    },
    {
      "inputs": [],
      "name": "renounceOwnership",
      "outputs": [],
      "stateMutability": "nonpayable",
      "type": "function"
    },
    {
      "inputs": [
        {
          "internalType": "uint256",
          "name": "loanId",
          "type": "uint256"
        }
      ],
      "name": "repayLoan",
      "outputs": [],
      "stateMutability": "nonpayable",
      "type": "function"
    },
    {
      "inputs": [
        {
          "internalType": "address",
          "name": "newOwner",
          "type": "address"
        }
      ],
      "name": "transferOwnership",
      "outputs": [],
      "stateMutability": "nonpayable",
      "type": "function"
    },
    {
      "inputs": [
        {
          "internalType": "uint256",
          "name": "loanId",
          "type": "uint256"
        },
        {
          "internalType": "uint256",
          "name": "newAmount",
          "type": "uint256"
        }
      ],
      "name": "updateLoanAmount",
      "outputs": [],
      "stateMutability": "nonpayable",
      "type": "function"
    },
    {
      "inputs": [
        {
          "internalType": "uint256",
          "name": "loanId",
          "type": "uint256"
        },
        {
          "internalType": "uint256",
          "name": "newDebtTimestamp",
          "type": "uint256"
        }
      ],
      "name": "updateLoanDebtTimestamp",
      "outputs": [],
      "stateMutability": "nonpayable",
      "type": "function"
    }
  ],
  "bytecode": "0x60806040523480156200001157600080fd5b506200001c62000022565b620000e4565b600054610100900460ff16156200008f5760405162461bcd60e51b815260206004820152602760248201527f496e697469616c697a61626c653a20636f6e747261637420697320696e697469604482015266616c697a696e6760c81b606482015260840160405180910390fd5b60005460ff9081161015620000e2576000805460ff191660ff9081179091556040519081527f7f26b83ff96e1f2b6a682f133852f6798a09c465da95921460cefb38474024989060200160405180910390a15b565b6125ac80620000f46000396000f3fe608060405234801561001057600080fd5b506004361061018e5760003560e01c8063715018a6116100de578063ab7b1c8911610097578063ccff44f111610071578063ccff44f1146103e7578063cd6dc687146103fa578063e7d892bf1461040d578063f2fde38b1461042057600080fd5b8063ab7b1c89146103ae578063b398df5d146103c1578063ccdd9f5d146103d457600080fd5b8063715018a61461030f57806371b60aa2146103175780638a2ec8bb1461032a5780638da5cb5b1461033d57806394eb3254146103625780639545773c1461037557600080fd5b8063328ef3321161014b5780634644004d116101255780634644004d146102b65780634dbb2b7b146102c9578063504006ca146102dc5780636d3723a7146102fc57600080fd5b8063328ef332146102705780633e4d92e2146102835780633f4b8d421461029657600080fd5b80630bbf145b146101935780630c2452dd146101b95780630c97200a146101ef57806313e4cf2e146101f7578063150b7a021461020a5780632af16c4e1461025b575b600080fd5b6101a66101a1366004611d9e565b610433565b6040519081526020015b60405180910390f35b6101a66101c7366004611dcc565b6001600160a01b03919091166000908152606560209081526040808320938352929052205490565b6067546101a6565b6101a6610205366004611df8565b610491565b610242610218366004611e4f565b7f150b7a023d4804d13e8c85fb27262cb750cf6ba9f9dd3bb30d90f482ceeb4b1f95945050505050565b6040516001600160e01b031990911681526020016101b0565b61026e610269366004611eee565b61060b565b005b61026e61027e366004611dcc565b61079b565b61026e610291366004611f12565b6107bf565b6102a96102a4366004611d9e565b6108be565b6040516101b09190611f34565b61026e6102c4366004611d9e565b610967565b61026e6102d7366004611f12565b610a6e565b6102ef6102ea366004611d9e565b610b6d565b6040516101b09190611feb565b6101a661030a3660046120f1565b610d7e565b61026e610edd565b6101a6610325366004611d9e565b610ef1565b6101a6610338366004611d9e565b610f4f565b6033546001600160a01b03165b6040516001600160a01b0390911681526020016101b0565b6101a6610370366004611eee565b610fb8565b6101a661038336600461221e565b6001600160a01b03918216600090815260696020908152604080832093909416825291909152205490565b61026e6103bc366004611d9e565b610ffb565b6101a66103cf366004611df8565b611175565b61026e6103e2366004611d9e565b6116a5565b61034a6103f5366004611d9e565b6117dc565b61026e610408366004611dcc565b611841565b61034a61041b366004611d9e565b611974565b61026e61042e366004611eee565b6119d9565b60008060008381526066602052604090206001015460ff16600481111561045c5761045c611f78565b036104825760405162461bcd60e51b815260040161047990612257565b60405180910390fd5b61048b82611a52565b92915050565b60008060008581526066602052604090206001015460ff1660048111156104ba576104ba611f78565b036104d75760405162461bcd60e51b815260040161047990612257565b6068546040805163246bbf5360e21b815290516000926001600160a01b0316916391aefd4c9160048083019260209291908290030181865afa158015610521573d6000803e3d6000fd5b505050506040513d601f19601f820116820180604052508101906105459190612285565b6000868152606660205260409081902060078101549151631826a26360e31b81526001600160a01b039384169363c13513189361059193911691600890910190899089906004016122cb565b602060405180830381865afa1580156105ae573d6000803e3d6000fd5b505050506040513d601f19601f820116820180604052508101906105d291906123cb565b600086815260666020526040902060048101546003909101549192506106029183916105fd916123fa565b611a7a565b95945050505050565b606860009054906101000a90046001600160a01b03166001600160a01b03166304d21cee6040518163ffffffff1660e01b8152600401602060405180830381865afa15801561065e573d6000803e3d6000fd5b505050506040513d601f19601f820116820180604052508101906106829190612285565b6001600160a01b0316336001600160a01b0316146106b25760405162461bcd60e51b81526004016104799061240d565b806001600160a01b031663a22cb465606860009054906101000a90046001600160a01b03166001600160a01b03166304d21cee6040518163ffffffff1660e01b8152600401602060405180830381865afa158015610714573d6000803e3d6000fd5b505050506040513d601f19601f820116820180604052508101906107389190612285565b6040516001600160e01b031960e084901b1681526001600160a01b03909116600482015260016024820152604401600060405180830381600087803b15801561078057600080fd5b505af1158015610794573d6000803e3d6000fd5b5050505050565b6107a3611aa0565b6001600160a01b039091166000908152606a6020526040902055565b606860009054906101000a90046001600160a01b03166001600160a01b03166304d21cee6040518163ffffffff1660e01b8152600401602060405180830381865afa158015610812573d6000803e3d6000fd5b505050506040513d601f19601f820116820180604052508101906108369190612285565b6001600160a01b0316336001600160a01b0316146108665760405162461bcd60e51b81526004016104799061240d565b60008281526066602052604081206001015460ff16600481111561088c5761088c611f78565b036108a95760405162461bcd60e51b815260040161047990612257565b60009182526066602052604090912060020155565b60606000808381526066602052604090206001015460ff1660048111156108e7576108e7611f78565b036109045760405162461bcd60e51b815260040161047990612257565b6000828152606660209081526040918290206008018054835181840281018401909452808452909183018282801561095b57602002820191906000526020600020905b815481526020019060010190808311610947575b50505050509050919050565b606860009054906101000a90046001600160a01b03166001600160a01b03166304d21cee6040518163ffffffff1660e01b8152600401602060405180830381865afa1580156109ba573d6000803e3d6000fd5b505050506040513d601f19601f820116820180604052508101906109de9190612285565b6001600160a01b0316336001600160a01b031614610a0e5760405162461bcd60e51b81526004016104799061240d565b600081815260666020908152604080832060018101805460ff19166002179081905561010090046001600160a01b0390811685526069845282852060078301549091168552909252822080549192610a6583612444565b91905055505050565b606860009054906101000a90046001600160a01b03166001600160a01b03166304d21cee6040518163ffffffff1660e01b8152600401602060405180830381865afa158015610ac1573d6000803e3d6000fd5b505050506040513d601f19601f82011682018060405250810190610ae59190612285565b6001600160a01b0316336001600160a01b031614610b155760405162461bcd60e51b81526004016104799061240d565b60008281526066602052604081206001015460ff166004811115610b3b57610b3b611f78565b03610b585760405162461bcd60e51b815260040161047990612257565b600091825260666020526040909120600c0155565b610bfb604080516101c0810190915260008082526020820190815260200160006001600160a01b03168152602001600081526020016000815260200160008152602001600081526020016000815260200160006001600160a01b031681526020016060815260200160006001600160a01b031681526020016000815260200160008152602001600081525090565b60008281526066602052604081206001015460ff166004811115610c2157610c21611f78565b03610c3e5760405162461bcd60e51b815260040161047990612257565b60008281526066602090815260409182902082516101c08101909352805483526001810154909183019060ff166004811115610c7c57610c7c611f78565b6004811115610c8d57610c8d611f78565b815260018201546001600160a01b0361010091829004811660208085019190915260028501546040808601919091526003860154606086015260048601546080860152600586015460a0860152600686015460c0860152600786015490921660e08501526008850180548351818402810184019094528084529390940193919290830182828015610d3d57602002820191906000526020600020905b815481526020019060010190808311610d29575b505050918352505060098201546001600160a01b03166020820152600a8201546040820152600b8201546060820152600c9091015460809091015292915050565b606854604080516302690e7760e11b815290516000926001600160a01b0316916304d21cee9160048083019260209291908290030181865afa158015610dc8573d6000803e3d6000fd5b505050506040513d601f19601f82011682018060405250810190610dec9190612285565b6001600160a01b0316336001600160a01b031614610e1c5760405162461bcd60e51b81526004016104799061240d565b6067546000818152606660205260409020610e3f918c8c8c8c8c8c8c8c8c611afa565b60005b8351811015610eaa576067546001600160a01b03861660009081526065602052604081208651909190879085908110610e7d57610e7d61245d565b60200260200101518152602001908152602001600020819055508080610ea290612444565b915050610e42565b5060678054906000610ebb83612444565b91905055506001606754610ecf9190612473565b9a9950505050505050505050565b610ee5611aa0565b610eef6000611bb7565b565b60008060008381526066602052604090206001015460ff166004811115610f1a57610f1a611f78565b03610f375760405162461bcd60e51b815260040161047990612257565b600082815260666020526040902061048b9042611c09565b60008060008381526066602052604090206001015460ff166004811115610f7857610f78611f78565b03610f955760405162461bcd60e51b815260040161047990612257565b6000828152606660205260409020600681015460049091015461048b91906123fa565b6001600160a01b0381166000908152606a60205260408120548103610fdf575050606b5490565b506001600160a01b03166000908152606a602052604090205490565b606860009054906101000a90046001600160a01b03166001600160a01b03166304d21cee6040518163ffffffff1660e01b8152600401602060405180830381865afa15801561104e573d6000803e3d6000fd5b505050506040513d601f19601f820116820180604052508101906110729190612285565b6001600160a01b0316336001600160a01b0316146110a25760405162461bcd60e51b81526004016104799061240d565b600081815260666020526040812060018101805460ff19166003179055905b60088201548110156111325760078201546001600160a01b03166000908152606560205260408120600884018054839190859081106111025761110261245d565b9060005260206000200154815260200190815260200160002081905550808061112a90612444565b9150506110c1565b5060018101546001600160a01b036101009091048116600090815260696020908152604080832060078601549094168352929052908120805491610a6583612486565b600080606860009054906101000a90046001600160a01b03166001600160a01b031663cfeed1816040518163ffffffff1660e01b8152600401602060405180830381865afa1580156111cb573d6000803e3d6000fd5b505050506040513d601f19601f820116820180604052508101906111ef9190612285565b6000868152606660209081526040918290206009015482516338d52e0f60e01b815292516001600160a01b039485169463e88c1997949216926338d52e0f92600480820193918290030181865afa15801561124e573d6000803e3d6000fd5b505050506040513d601f19601f820116820180604052508101906112729190612285565b6040516001600160e01b031960e084901b1681526001600160a01b039091166004820152602401602060405180830381865afa1580156112b6573d6000803e3d6000fd5b505050506040513d601f19601f820116820180604052508101906112da91906123cb565b9050600081606860009054906101000a90046001600160a01b03166001600160a01b031663cfeed1816040518163ffffffff1660e01b8152600401602060405180830381865afa158015611332573d6000803e3d6000fd5b505050506040513d601f19601f820116820180604052508101906113569190612285565b6001600160a01b03166308ea5bee6040518163ffffffff1660e01b8152600401602060405180830381865afa158015611393573d6000803e3d6000fd5b505050506040513d601f19601f820116820180604052508101906113b791906123cb565b606860009054906101000a90046001600160a01b03166001600160a01b03166391aefd4c6040518163ffffffff1660e01b8152600401602060405180830381865afa15801561140a573d6000803e3d6000fd5b505050506040513d601f19601f8201168201806040525081019061142e9190612285565b6000898152606660205260409081902060078101549151631826a26360e31b81526001600160a01b039384169363c13513189361147a939116916008909101908c908c906004016122cb565b602060405180830381865afa158015611497573d6000803e3d6000fd5b505050506040513d601f19601f820116820180604052508101906114bb91906123cb565b6114c5919061249d565b6114cf91906124b4565b6000878152606660209081526040808320600901548151633efd066160e21b8152915194955092936115e49386936001600160a01b039091169263fbf4198492600480830193928290030181865afa15801561152f573d6000803e3d6000fd5b505050506040513d601f19601f8201168201806040525081019061155391906123cb565b60008a815260666020908152604091829020600901548251631e522b2960e01b815292516001600160a01b0390911692631e522b299260048083019391928290030181865afa1580156115aa573d6000803e3d6000fd5b505050506040513d601f19601f820116820180604052508101906115ce91906123cb565b6115da90612710612473565b6105fd91906123fa565b905060006115f188611a52565b9050611629604051806040016040528060148152602001731b1a5c5d5a59185d1a5bdb951a1c995cda1bdb1960621b81525083611c75565b611653604051806040016040528060088152602001671b1bd85b9119589d60c21b81525082611c75565b600082821015611664575081611667565b50805b6116996040518060400160405280601081526020016f6c69717569646174696f6e507269636560801b81525082611c75565b98975050505050505050565b606860009054906101000a90046001600160a01b03166001600160a01b03166304d21cee6040518163ffffffff1660e01b8152600401602060405180830381865afa1580156116f8573d6000803e3d6000fd5b505050506040513d601f19601f8201168201806040525081019061171c9190612285565b6001600160a01b0316336001600160a01b03161461174c5760405162461bcd60e51b81526004016104799061240d565b600081815260666020526040812060018101805460ff19166004179055905b60088201548110156111325760078201546001600160a01b03166000908152606560205260408120600884018054839190859081106117ac576117ac61245d565b906000526020600020015481526020019081526020016000208190555080806117d490612444565b91505061176b565b60008060008381526066602052604090206001015460ff16600481111561180557611805611f78565b036118225760405162461bcd60e51b815260040161047990612257565b506000908152606660205260409020600901546001600160a01b031690565b600054610100900460ff16158080156118615750600054600160ff909116105b8061187b5750303b15801561187b575060005460ff166001145b6118de5760405162461bcd60e51b815260206004820152602e60248201527f496e697469616c697a61626c653a20636f6e747261637420697320616c72656160448201526d191e481a5b9a5d1a585b1a5e995960921b6064820152608401610479565b6000805460ff191660011790558015611901576000805461ff0019166101001790555b611909611cbe565b606880546001600160a01b0319166001600160a01b038516179055606b829055801561196f576000805461ff0019169055604051600181527f7f26b83ff96e1f2b6a682f133852f6798a09c465da95921460cefb38474024989060200160405180910390a15b505050565b60008060008381526066602052604090206001015460ff16600481111561199d5761199d611f78565b036119ba5760405162461bcd60e51b815260040161047990612257565b506000908152606660205260409020600701546001600160a01b031690565b6119e1611aa0565b6001600160a01b038116611a465760405162461bcd60e51b815260206004820152602660248201527f4f776e61626c653a206e6577206f776e657220697320746865207a65726f206160448201526564647265737360d01b6064820152608401610479565b611a4f81611bb7565b50565b6000818152606660205260408120600281015490611a709042611c09565b61048b91906123fa565b600081156113881983900484111517611a9257600080fd5b506127109102611388010490565b6033546001600160a01b03163314610eef5760405162461bcd60e51b815260206004820181905260248201527f4f776e61626c653a2063616c6c6572206973206e6f7420746865206f776e65726044820152606401610479565b898b556001808c0180546001600160a81b0319166101006001600160a01b038d81169190910291909117909217905560028c0188905560038c0187905560048c0186905560058c0185905560078c0180546001600160a01b0319169185169190911790558151611b739060088d01906020850190611d3e565b50600a8b01555050506009870180546001600160a01b0319166001600160a01b039590951694909417909355505042600b8501819055600c90940193909355505050565b603380546001600160a01b038381166001600160a01b0319831681179093556040519116919082907f8be0079c531659141344cd1fd0a4f28419497f9722a3daafe3b4186f6b6457e090600090a35050565b600080611c18610258846124b4565b611c249061025961249d565b9050611c366127106301e1338061249d565b600c850154611c459083612473565b85600a01548660020154611c59919061249d565b611c63919061249d565b611c6d91906124b4565b949350505050565b611cba8282604051602401611c8b9291906124d6565b60408051601f198184030181529190526020810180516001600160e01b0316632d839cb360e21b179052611ced565b5050565b600054610100900460ff16611ce55760405162461bcd60e51b81526004016104799061252b565b610eef611d0e565b80516a636f6e736f6c652e6c6f67602083016000808483855afa5050505050565b600054610100900460ff16611d355760405162461bcd60e51b81526004016104799061252b565b610eef33611bb7565b828054828255906000526020600020908101928215611d79579160200282015b82811115611d79578251825591602001919060010190611d5e565b50611d85929150611d89565b5090565b5b80821115611d855760008155600101611d8a565b600060208284031215611db057600080fd5b5035919050565b6001600160a01b0381168114611a4f57600080fd5b60008060408385031215611ddf57600080fd5b8235611dea81611db7565b946020939093013593505050565b600080600060608486031215611e0d57600080fd5b8335925060208401359150604084013567ffffffffffffffff811115611e3257600080fd5b840160c08187031215611e4457600080fd5b809150509250925092565b600080600080600060808688031215611e6757600080fd5b8535611e7281611db7565b94506020860135611e8281611db7565b935060408601359250606086013567ffffffffffffffff80821115611ea657600080fd5b818801915088601f830112611eba57600080fd5b813581811115611ec957600080fd5b896020828501011115611edb57600080fd5b9699959850939650602001949392505050565b600060208284031215611f0057600080fd5b8135611f0b81611db7565b9392505050565b60008060408385031215611f2557600080fd5b50508035926020909101359150565b6020808252825182820181905260009190848201906040850190845b81811015611f6c57835183529284019291840191600101611f50565b50909695505050505050565b634e487b7160e01b600052602160045260246000fd5b60058110611fac57634e487b7160e01b600052602160045260246000fd5b9052565b600081518084526020808501945080840160005b83811015611fe057815187529582019590820190600101611fc4565b509495945050505050565b60208152815160208201526000602083015161200a6040840182611f8e565b5060408301516001600160a01b03811660608401525060608301516080830152608083015160a083015260a083015160c083015260c083015160e083015260e0830151610100818185015280850151915050610120612073818501836001600160a01b03169052565b808501519150506101c061014081818601526120936101e0860184611fb0565b908601519092506101606120b1868201836001600160a01b03169052565b860151610180868101919091528601516101a0808701919091529095015193019290925250919050565b634e487b7160e01b600052604160045260246000fd5b60008060008060008060008060006101208a8c03121561211057600080fd5b61211a8a35611db7565b8935985060208a013561212c81611db7565b975060408a0135965060608a0135955060808a0135945060a08a0135935060c08a013561215881611db7565b925060e08a013567ffffffffffffffff8082111561217557600080fd5b818c0191508c601f83011261218957600080fd5b81358181111561219b5761219b6120db565b8060051b604051601f19603f830116810181811085821117156121c0576121c06120db565b6040529182526020808301935084820101918f8311156121df57600080fd5b6020850194505b828510156122015784358452602094850194909301926121e6565b80965050505050506101008a013590509295985092959850929598565b6000806040838503121561223157600080fd5b823561223c81611db7565b9150602083013561224c81611db7565b809150509250929050565b6020808252601490820152732637b0b7103237b2b9903737ba1032bc34b9ba1760611b604082015260600190565b60006020828403121561229757600080fd5b8151611f0b81611db7565b81835281816020850137506000828201602090810191909152601f909101601f19169091010190565b6001600160a01b03851681526080602080830182905285549183018290526000868152818120909283929160a086019190845b8281101561231a578154845292840192600191820191016122fe565b5050508660408601528481036060860152853560ff811680821461233c578485fd5b8083525050818601358282015260408601356040820152606086013560608201526080860135608082015260a0860135601e1987360301811261237d578384fd5b860191820191803567ffffffffffffffff811115612399578485fd5b8036038413156123a7578485fd5b60c060a08401526123bc60c0840182866122a2565b9b9a5050505050505050505050565b6000602082840312156123dd57600080fd5b5051919050565b634e487b7160e01b600052601160045260246000fd5b8082018082111561048b5761048b6123e4565b6020808252601e908201527f43616c6c6572206d757374206265204d61726b657420636f6e74726163740000604082015260600190565b600060018201612456576124566123e4565b5060010190565b634e487b7160e01b600052603260045260246000fd5b8181038181111561048b5761048b6123e4565b600081612495576124956123e4565b506000190190565b808202811582820484141761048b5761048b6123e4565b6000826124d157634e487b7160e01b600052601260045260246000fd5b500490565b604081526000835180604084015260005b8181101561250457602081870181015160608684010152016124e7565b506000606082850101526060601f19601f8301168401019150508260208301529392505050565b6020808252602b908201527f496e697469616c697a61626c653a20636f6e7472616374206973206e6f74206960408201526a6e697469616c697a696e6760a81b60608201526080019056fea2646970667358221220cfc1c17120b7b9e4f9e8e1977640d06befa98e0d61771961c3e685e0eede7f8d64736f6c63430008110033",
  "linkReferences": {},
  "deployedLinkReferences": {}
}