{
  "_format": "hh-sol-artifact-1",
  "contractName": "LoanCenter",
  "sourceName": "contracts/protocol/LoanCenter.sol",
  "abi": [
    {
      "anonymous": false,
      "inputs": [
        {
          "indexed": false,
          "internalType": "uint8",
          "name": "version",
          "type": "uint8"
        }
      ],
      "name": "Initialized",
      "type": "event"
    },
    {
      "anonymous": false,
      "inputs": [
        {
          "indexed": true,
          "internalType": "address",
          "name": "previousOwner",
          "type": "address"
        },
        {
          "indexed": true,
          "internalType": "address",
          "name": "newOwner",
          "type": "address"
        }
      ],
      "name": "OwnershipTransferred",
      "type": "event"
    },
    {
      "inputs": [
        {
          "internalType": "uint256",
          "name": "loanId",
          "type": "uint256"
        }
      ],
      "name": "activateLoan",
      "outputs": [],
      "stateMutability": "nonpayable",
      "type": "function"
    },
    {
      "inputs": [
        {
          "internalType": "address",
          "name": "collection",
          "type": "address"
        }
      ],
      "name": "approveNFTCollection",
      "outputs": [],
      "stateMutability": "nonpayable",
      "type": "function"
    },
    {
      "inputs": [
        {
          "internalType": "address",
          "name": "borrower",
          "type": "address"
        },
        {
          "internalType": "address",
          "name": "reserve",
          "type": "address"
        },
        {
          "internalType": "uint256",
          "name": "amount",
          "type": "uint256"
        },
        {
          "internalType": "uint256",
          "name": "boost",
          "type": "uint256"
        },
        {
          "internalType": "address",
          "name": "nftAddress",
          "type": "address"
        },
        {
          "internalType": "uint256",
          "name": "nftTokenID",
          "type": "uint256"
        },
        {
          "internalType": "uint256",
          "name": "borrowRate",
          "type": "uint256"
        }
      ],
      "name": "createLoan",
      "outputs": [
        {
          "internalType": "uint256",
          "name": "",
          "type": "uint256"
        }
      ],
      "stateMutability": "nonpayable",
      "type": "function"
    },
    {
      "inputs": [
        {
          "internalType": "uint256",
          "name": "loanId",
          "type": "uint256"
        }
      ],
      "name": "getLoan",
      "outputs": [
        {
          "components": [
            {
              "internalType": "uint256",
              "name": "loanId",
              "type": "uint256"
            },
            {
              "internalType": "enum DataTypes.LoanState",
              "name": "state",
              "type": "uint8"
            },
            {
              "internalType": "address",
              "name": "borrower",
              "type": "address"
            },
            {
              "internalType": "uint256",
              "name": "amount",
              "type": "uint256"
            },
            {
              "internalType": "uint256",
              "name": "boost",
              "type": "uint256"
            },
            {
              "internalType": "address",
              "name": "nftAsset",
              "type": "address"
            },
            {
              "internalType": "uint256",
              "name": "nftTokenId",
              "type": "uint256"
            },
            {
              "internalType": "address",
              "name": "reserve",
              "type": "address"
            },
            {
              "internalType": "uint256",
              "name": "borrowRate",
              "type": "uint256"
            },
            {
              "internalType": "uint256",
              "name": "initTimestamp",
              "type": "uint256"
            }
          ],
          "internalType": "struct DataTypes.LoanData",
          "name": "",
          "type": "tuple"
        }
      ],
      "stateMutability": "view",
      "type": "function"
    },
    {
      "inputs": [
        {
          "internalType": "uint256",
          "name": "loanId",
          "type": "uint256"
        }
      ],
      "name": "getLoanBoost",
      "outputs": [
        {
          "internalType": "uint256",
          "name": "",
          "type": "uint256"
        }
      ],
      "stateMutability": "view",
      "type": "function"
    },
    {
      "inputs": [
        {
          "internalType": "uint256",
          "name": "loanId",
          "type": "uint256"
        }
      ],
      "name": "getLoanDebt",
      "outputs": [
        {
          "internalType": "uint256",
          "name": "",
          "type": "uint256"
        }
      ],
      "stateMutability": "view",
      "type": "function"
    },
    {
      "inputs": [
        {
          "internalType": "uint256",
          "name": "loanId",
          "type": "uint256"
        }
      ],
      "name": "getLoanInterest",
      "outputs": [
        {
          "internalType": "uint256",
          "name": "",
          "type": "uint256"
        }
      ],
      "stateMutability": "view",
      "type": "function"
    },
    {
      "inputs": [
        {
          "internalType": "uint256",
          "name": "loanId",
          "type": "uint256"
        }
      ],
      "name": "getLoanTokenAddress",
      "outputs": [
        {
          "internalType": "address",
          "name": "",
          "type": "address"
        }
      ],
      "stateMutability": "view",
      "type": "function"
    },
    {
      "inputs": [
        {
          "internalType": "uint256",
          "name": "loanId",
          "type": "uint256"
        }
      ],
      "name": "getLoanTokenId",
      "outputs": [
        {
          "internalType": "uint256",
          "name": "",
          "type": "uint256"
        }
      ],
      "stateMutability": "view",
      "type": "function"
    },
    {
      "inputs": [],
      "name": "getLoansCount",
      "outputs": [
        {
          "internalType": "uint256",
          "name": "",
          "type": "uint256"
        }
      ],
      "stateMutability": "view",
      "type": "function"
    },
    {
      "inputs": [
        {
          "internalType": "address",
          "name": "nftAddress",
          "type": "address"
        },
        {
          "internalType": "uint256",
          "name": "nftTokenID",
          "type": "uint256"
        }
      ],
      "name": "getNFTLoanId",
      "outputs": [
        {
          "internalType": "uint256",
          "name": "",
          "type": "uint256"
        }
      ],
      "stateMutability": "view",
      "type": "function"
    },
    {
      "inputs": [
        {
          "internalType": "address",
          "name": "user",
          "type": "address"
        },
        {
          "internalType": "address",
          "name": "collection",
          "type": "address"
        }
      ],
      "name": "getUserCollectionActiveLoansCount",
      "outputs": [
        {
          "internalType": "uint256",
          "name": "",
          "type": "uint256"
        }
      ],
      "stateMutability": "view",
      "type": "function"
    },
    {
      "inputs": [
        {
          "internalType": "contract IAddressesProvider",
          "name": "addressesProvider",
          "type": "address"
        }
      ],
      "name": "initialize",
      "outputs": [],
      "stateMutability": "nonpayable",
      "type": "function"
    },
    {
      "inputs": [
        {
          "internalType": "uint256",
          "name": "loanId",
          "type": "uint256"
        }
      ],
      "name": "liquidateLoan",
      "outputs": [],
      "stateMutability": "nonpayable",
      "type": "function"
    },
    {
      "inputs": [
        {
          "internalType": "address",
          "name": "",
          "type": "address"
        },
        {
          "internalType": "address",
          "name": "",
          "type": "address"
        },
        {
          "internalType": "uint256",
          "name": "",
          "type": "uint256"
        },
        {
          "internalType": "bytes",
          "name": "",
          "type": "bytes"
        }
      ],
      "name": "onERC721Received",
      "outputs": [
        {
          "internalType": "bytes4",
          "name": "",
          "type": "bytes4"
        }
      ],
      "stateMutability": "pure",
      "type": "function"
    },
    {
      "inputs": [],
      "name": "owner",
      "outputs": [
        {
          "internalType": "address",
          "name": "",
          "type": "address"
        }
      ],
      "stateMutability": "view",
      "type": "function"
    },
    {
      "inputs": [],
      "name": "renounceOwnership",
      "outputs": [],
      "stateMutability": "nonpayable",
      "type": "function"
    },
    {
      "inputs": [
        {
          "internalType": "uint256",
          "name": "loanId",
          "type": "uint256"
        }
      ],
      "name": "repayLoan",
      "outputs": [],
      "stateMutability": "nonpayable",
      "type": "function"
    },
    {
      "inputs": [
        {
          "internalType": "address",
          "name": "newOwner",
          "type": "address"
        }
      ],
      "name": "transferOwnership",
      "outputs": [],
      "stateMutability": "nonpayable",
      "type": "function"
    }
  ],
  "bytecode": "0x6080806040523461001657610eb0908161001c8239f35b600080fdfe6040608081526004908136101561001557600080fd5b600091823560e01c80630bbf145b14610b0d5780630c2452dd14610acc5780630c97200a14610aad578063150b7a0214610a4457806321fb91cb14610a1a5780632af16c4e1461091a5780634644004d14610887578063504006ca14610701578063715018a61461069e57806371b60aa2146106385780638a2ec8bb1461060e5780638da5cb5b146105e55780639302fe051461046c578063ab7b1c89146103bb578063b7ea175d14610369578063c4d66de8146102b1578063ccdd9f5d146101c0578063e7d892bf1461018c5763f2fde38b146100f257600080fd5b346101885760203660031901126101885761010b610b8c565b9060018060a01b0361012281603354163314610bb8565b821615610136575061013390610c03565b51f35b608490602084519162461bcd60e51b8352820152602660248201527f4f776e61626c653a206e6577206f776e657220697320746865207a65726f206160448201526564647265737360d01b6064820152fd5b8280fd5b503461018857602036600319011261018857803583526066602090815292829020015490516001600160a01b039091168152f35b5034610188576020806003193601126102ad57606854835163e7334fe560e01b81526001600160a01b0391839082908690829086165afa9081156102a3576102149183918891610276575b50163314610dc5565b8235855260668252808486209360018501908060ff198354161782558501948286541688526065855260058789209101548852845286868120555460081c1685526069825283852092541660005252806000206102718154610e41565b905551f35b6102969150853d871161029c575b61028e8183610d84565b810190610da6565b3861020b565b503d610284565b85513d88823e3d90fd5b8380fd5b503461018857602036600319011261018857356001600160a01b03811690819003610188576102de610d11565b9081610357575b6102fe60ff855460081c166102f981610c4e565b610c4e565b61030733610c03565b6001600160601b0360a01b60685416176068556103215751f35b61ff001982541682557f7f26b83ff96e1f2b6a682f133852f6798a09c465da95921460cefb38474024986020825160018152a151f35b835461ff0019166101001784556102e5565b5050346103b757806003193601126103b757602091610386610b8c565b8261038f610ba2565b6001600160a01b03928316845260698652922091166000908152908352819020549051908152f35b5080fd5b5034610188576020806003193601126102ad57606854835163e7334fe560e01b81526001600160a01b0391839082908690829086165afa9081156102a35761040e91839188916102765750163314610dc5565b823585526066825280848620936001850190600360ff198354161782558501948286541688526065855260058789209101548852845286868120555460081c1685526069825283852092541660005252806000206102718154610e41565b508290346103b75760e03660031901126103b757610488610b8c565b92610491610ba2565b9260843560018060a01b03958682168092036105e05760a43590876068541696855198899863e7334fe560e01b8a52898960209b8c935afa998a156105d657818798999a9b6104ec9261058d99916105b95750163314610dc5565b6067549283885260668b528888209384556001808501918254906101008360a81b039060081b16906affffffffffffffffffffff60a81b161717905560443560028401556064356003840155888301906001600160601b0360a01b91868382541617905584600585015560c4356007850155600684019216908254161790556008429101556067549184526065875284842090845286528084842055610e11565b9283606755600184106105a65750505190600019018152f35b634e487b7160e01b825260119052602490fd5b6105d091508d803d1061029c5761028e8183610d84565b8d61020b565b87513d88823e3d90fd5b600080fd5b5050346103b757816003193601126103b75760335490516001600160a01b039091168152602090f35b50346101885760203660031901126101885781602093600392358152606685522001549051908152f35b503461018857602036600319011261018857610696826020946305f5e100933581526066865220600261271061068d6301e1338061068261067d600887015442610e36565b610e4e565b046007850154610e67565b04910154610e67565b049051908152f35b5050346103b757816003193601126103b7576033546001600160a01b038116916000916106cc338514610bb8565b6001600160a01b03191660335551917f8be0079c531659141344cd1fd0a4f28419497f9722a3daafe3b4186f6b6457e08284a3f35b5091346108845760203660031901126108845781519061072082610d51565b80825280602083015280838301528060608301528060808301528060a08301528060c08301528060e0830152610100908082840152806101208094015284358152606660205283812084519461077586610d51565b81548652600182015492602087019160ff8516600581101561087157918984928a989795948997955280870190600160a01b60019003809760081c168252600286015491606089019283528760038801549460808b01958652880154169460a08a0195865260058801549660c08b019788528d8a60068b0154169960e08d019a8b528d60078201549d019c8d52600801549d019c8d5283519e8f905190525190600582101561085d575060208e0152518716908c01525160608b01525160808a015251831660a08901525160c0880152511660e0860152519084015251908201526101409150f35b8f906021602492634e487b7160e01b835252fd5b634e487b7160e01b835260218a52602483fd5b80fd5b5034610188576020806003193601126102ad57606854835163e7334fe560e01b81526001600160a01b0391839082908690829086165afa9081156102a3576108da91839188916102765750163314610dc5565b8235855260668252838520928160018501600260ff198254161780915560081c168652606983528486209301541660005252806000206102718154610e11565b508290346103b75760203660031901126103b757610936610b8c565b6033546001600160a01b03929183916109529083163314610bb8565b1691816020826068541687519283809263e7334fe560e01b82525afa908115610a105785916109f2575b50833b156109ee579060448592838851968794859363a22cb46560e01b85521687840152600160248401525af180156109e4576109b857828451f35b67ffffffffffffffff82116109d1575082528280828451f35b634e487b7160e01b835260419052602482fd5b84513d85823e3d90fd5b8480fd5b610a0a915060203d811161029c5761028e8183610d84565b8661097c565b86513d87823e3d90fd5b50346101885760203660031901126101885781602093600592358152606685522001549051908152f35b503461018857608036600319011261018857610a5e610b8c565b50610a67610ba2565b506064359067ffffffffffffffff908183116109ee57366023840112156109ee578201359081116102ad57369101602401116103b75751630a85bd0160e11b8152602090f35b5050346103b757816003193601126103b7576020906067549051908152f35b5050346103b757806003193601126103b75760209181906001600160a01b03610af3610b8c565b168152606584528181206024358252845220549051908152f35b5091346108845760203660031901126108845782359182825260666020526305f5e100610b54828420600261271061068d6301e1338061068261067d600887015442610e36565b049282526066602052600281832001549182198411610b795750602093505191018152f35b634e487b7160e01b815260118552602490fd5b600435906001600160a01b03821682036105e057565b602435906001600160a01b03821682036105e057565b15610bbf57565b606460405162461bcd60e51b815260206004820152602060248201527f4f776e61626c653a2063616c6c6572206973206e6f7420746865206f776e65726044820152fd5b6033549060018060a01b0380911691826001600160601b0360a01b821617603355167f8be0079c531659141344cd1fd0a4f28419497f9722a3daafe3b4186f6b6457e06000604051a3565b15610c5557565b60405162461bcd60e51b815260206004820152602b60248201527f496e697469616c697a61626c653a20636f6e7472616374206973206e6f74206960448201526a6e697469616c697a696e6760a81b6064820152608490fd5b15610cb557565b60405162461bcd60e51b815260206004820152602e60248201527f496e697469616c697a61626c653a20636f6e747261637420697320616c72656160448201526d191e481a5b9a5d1a585b1a5e995960921b6064820152608490fd5b60005460ff8160081c16600014610d335750610d2e303b15610cae565b600090565b80610d44600160ff81941610610cae565b60ff191617600055600190565b610140810190811067ffffffffffffffff821117610d6e57604052565b634e487b7160e01b600052604160045260246000fd5b90601f8019910116810190811067ffffffffffffffff821117610d6e57604052565b908160209103126105e057516001600160a01b03811681036105e05790565b15610dcc57565b60405162461bcd60e51b815260206004820152601e60248201527f43616c6c6572206d757374206265204d61726b657420636f6e747261637400006044820152606490fd5b6000198114610e205760010190565b634e487b7160e01b600052601160045260246000fd5b818110610e20570390565b8015610e20576000190190565b6305f5e100908060001904821181151516610e20570290565b8060001904821181151516610e2057029056fea26469706673582212209e347f869d32dc7413e117c19ca9900a036e0d238a70f7ccdca547b4fe52429164736f6c634300080f0033",
  "linkReferences": {},
  "deployedLinkReferences": {}
}