{
  "_format": "hh-sol-artifact-1",
  "contractName": "Market",
  "sourceName": "contracts/protocol/Market.sol",
  "abi": [
    {
      "anonymous": false,
      "inputs": [
        {
          "indexed": true,
          "internalType": "address",
          "name": "user",
          "type": "address"
        },
        {
          "indexed": true,
          "internalType": "address",
          "name": "asset",
          "type": "address"
        },
        {
          "indexed": true,
          "internalType": "address",
          "name": "nftAddress",
          "type": "address"
        },
        {
          "indexed": false,
          "internalType": "uint256",
          "name": "nftTokenID",
          "type": "uint256"
        },
        {
          "indexed": false,
          "internalType": "uint256",
          "name": "amount",
          "type": "uint256"
        }
      ],
      "name": "Borrow",
      "type": "event"
    },
    {
      "anonymous": false,
      "inputs": [
        {
          "indexed": true,
          "internalType": "address",
          "name": "user",
          "type": "address"
        },
        {
          "indexed": true,
          "internalType": "address",
          "name": "asset",
          "type": "address"
        },
        {
          "indexed": false,
          "internalType": "uint256",
          "name": "amount",
          "type": "uint256"
        }
      ],
      "name": "Deposit",
      "type": "event"
    },
    {
      "anonymous": false,
      "inputs": [
        {
          "indexed": false,
          "internalType": "uint8",
          "name": "version",
          "type": "uint8"
        }
      ],
      "name": "Initialized",
      "type": "event"
    },
    {
      "anonymous": false,
      "inputs": [
        {
          "indexed": true,
          "internalType": "address",
          "name": "user",
          "type": "address"
        },
        {
          "indexed": false,
          "internalType": "uint256",
          "name": "loanId",
          "type": "uint256"
        }
      ],
      "name": "Liquidate",
      "type": "event"
    },
    {
      "anonymous": false,
      "inputs": [
        {
          "indexed": true,
          "internalType": "address",
          "name": "previousOwner",
          "type": "address"
        },
        {
          "indexed": true,
          "internalType": "address",
          "name": "newOwner",
          "type": "address"
        }
      ],
      "name": "OwnershipTransferred",
      "type": "event"
    },
    {
      "anonymous": false,
      "inputs": [
        {
          "indexed": true,
          "internalType": "address",
          "name": "user",
          "type": "address"
        },
        {
          "indexed": false,
          "internalType": "uint256",
          "name": "loanId",
          "type": "uint256"
        }
      ],
      "name": "Repay",
      "type": "event"
    },
    {
      "anonymous": false,
      "inputs": [
        {
          "indexed": true,
          "internalType": "address",
          "name": "user",
          "type": "address"
        },
        {
          "indexed": true,
          "internalType": "address",
          "name": "asset",
          "type": "address"
        },
        {
          "indexed": false,
          "internalType": "uint256",
          "name": "amount",
          "type": "uint256"
        }
      ],
      "name": "Withdraw",
      "type": "event"
    },
    {
      "inputs": [
        {
          "internalType": "address",
          "name": "asset",
          "type": "address"
        },
        {
          "internalType": "address",
          "name": "reserveAddress",
          "type": "address"
        }
      ],
      "name": "addReserve",
      "outputs": [],
      "stateMutability": "nonpayable",
      "type": "function"
    },
    {
      "inputs": [
        {
          "internalType": "address",
          "name": "asset",
          "type": "address"
        },
        {
          "internalType": "uint256",
          "name": "amount",
          "type": "uint256"
        },
        {
          "internalType": "address",
          "name": "nftAddress",
          "type": "address"
        },
        {
          "internalType": "uint256",
          "name": "nftTokenId",
          "type": "uint256"
        },
        {
          "internalType": "uint256",
          "name": "genesisNFTId",
          "type": "uint256"
        },
        {
          "internalType": "bytes32",
          "name": "request",
          "type": "bytes32"
        },
        {
          "components": [
            {
              "internalType": "uint8",
              "name": "v",
              "type": "uint8"
            },
            {
              "internalType": "bytes32",
              "name": "r",
              "type": "bytes32"
            },
            {
              "internalType": "bytes32",
              "name": "s",
              "type": "bytes32"
            },
            {
              "internalType": "bytes32",
              "name": "request",
              "type": "bytes32"
            },
            {
              "internalType": "uint256",
              "name": "deadline",
              "type": "uint256"
            },
            {
              "internalType": "bytes",
              "name": "payload",
              "type": "bytes"
            }
          ],
          "internalType": "struct Trustus.TrustusPacket",
          "name": "packet",
          "type": "tuple"
        }
      ],
      "name": "borrow",
      "outputs": [],
      "stateMutability": "nonpayable",
      "type": "function"
    },
    {
      "inputs": [
        {
          "internalType": "uint256",
          "name": "amount",
          "type": "uint256"
        },
        {
          "internalType": "address",
          "name": "nftAddress",
          "type": "address"
        },
        {
          "internalType": "uint256",
          "name": "nftTokenId",
          "type": "uint256"
        },
        {
          "internalType": "uint256",
          "name": "genesisNFTId",
          "type": "uint256"
        },
        {
          "internalType": "bytes32",
          "name": "request",
          "type": "bytes32"
        },
        {
          "components": [
            {
              "internalType": "uint8",
              "name": "v",
              "type": "uint8"
            },
            {
              "internalType": "bytes32",
              "name": "r",
              "type": "bytes32"
            },
            {
              "internalType": "bytes32",
              "name": "s",
              "type": "bytes32"
            },
            {
              "internalType": "bytes32",
              "name": "request",
              "type": "bytes32"
            },
            {
              "internalType": "uint256",
              "name": "deadline",
              "type": "uint256"
            },
            {
              "internalType": "bytes",
              "name": "payload",
              "type": "bytes"
            }
          ],
          "internalType": "struct Trustus.TrustusPacket",
          "name": "packet",
          "type": "tuple"
        }
      ],
      "name": "borrowETH",
      "outputs": [],
      "stateMutability": "nonpayable",
      "type": "function"
    },
    {
      "inputs": [
        {
          "internalType": "address",
          "name": "asset",
          "type": "address"
        },
        {
          "internalType": "uint256",
          "name": "amount",
          "type": "uint256"
        }
      ],
      "name": "deposit",
      "outputs": [],
      "stateMutability": "nonpayable",
      "type": "function"
    },
    {
      "inputs": [],
      "name": "depositETH",
      "outputs": [],
      "stateMutability": "payable",
      "type": "function"
    },
    {
      "inputs": [
        {
          "internalType": "address",
          "name": "asset",
          "type": "address"
        }
      ],
      "name": "getReserveAddress",
      "outputs": [
        {
          "internalType": "address",
          "name": "",
          "type": "address"
        }
      ],
      "stateMutability": "view",
      "type": "function"
    },
    {
      "inputs": [
        {
          "internalType": "contract IAddressesProvider",
          "name": "addressesProvider",
          "type": "address"
        }
      ],
      "name": "initialize",
      "outputs": [],
      "stateMutability": "nonpayable",
      "type": "function"
    },
    {
      "inputs": [
        {
          "internalType": "address",
          "name": "asset",
          "type": "address"
        }
      ],
      "name": "isAssetSupported",
      "outputs": [
        {
          "internalType": "bool",
          "name": "",
          "type": "bool"
        }
      ],
      "stateMutability": "view",
      "type": "function"
    },
    {
      "inputs": [
        {
          "internalType": "uint256",
          "name": "loanId",
          "type": "uint256"
        },
        {
          "internalType": "bytes32",
          "name": "request",
          "type": "bytes32"
        },
        {
          "components": [
            {
              "internalType": "uint8",
              "name": "v",
              "type": "uint8"
            },
            {
              "internalType": "bytes32",
              "name": "r",
              "type": "bytes32"
            },
            {
              "internalType": "bytes32",
              "name": "s",
              "type": "bytes32"
            },
            {
              "internalType": "bytes32",
              "name": "request",
              "type": "bytes32"
            },
            {
              "internalType": "uint256",
              "name": "deadline",
              "type": "uint256"
            },
            {
              "internalType": "bytes",
              "name": "payload",
              "type": "bytes"
            }
          ],
          "internalType": "struct Trustus.TrustusPacket",
          "name": "packet",
          "type": "tuple"
        }
      ],
      "name": "liquidate",
      "outputs": [],
      "stateMutability": "nonpayable",
      "type": "function"
    },
    {
      "inputs": [],
      "name": "owner",
      "outputs": [
        {
          "internalType": "address",
          "name": "",
          "type": "address"
        }
      ],
      "stateMutability": "view",
      "type": "function"
    },
    {
      "inputs": [],
      "name": "renounceOwnership",
      "outputs": [],
      "stateMutability": "nonpayable",
      "type": "function"
    },
    {
      "inputs": [
        {
          "internalType": "uint256",
          "name": "loanId",
          "type": "uint256"
        }
      ],
      "name": "repay",
      "outputs": [],
      "stateMutability": "nonpayable",
      "type": "function"
    },
    {
      "inputs": [
        {
          "internalType": "uint256",
          "name": "loanId",
          "type": "uint256"
        }
      ],
      "name": "repayETH",
      "outputs": [],
      "stateMutability": "payable",
      "type": "function"
    },
    {
      "inputs": [
        {
          "internalType": "address",
          "name": "newOwner",
          "type": "address"
        }
      ],
      "name": "transferOwnership",
      "outputs": [],
      "stateMutability": "nonpayable",
      "type": "function"
    },
    {
      "inputs": [
        {
          "internalType": "address",
          "name": "asset",
          "type": "address"
        },
        {
          "internalType": "uint256",
          "name": "amount",
          "type": "uint256"
        }
      ],
      "name": "withdraw",
      "outputs": [],
      "stateMutability": "nonpayable",
      "type": "function"
    },
    {
      "inputs": [
        {
          "internalType": "uint256",
          "name": "amount",
          "type": "uint256"
        }
      ],
      "name": "withdrawETH",
      "outputs": [],
      "stateMutability": "nonpayable",
      "type": "function"
    },
    {
      "stateMutability": "payable",
      "type": "receive"
    }
  ],
  "bytecode": "0x6080806040523461001657611851908161001c8239f35b600080fdfe6080604052600436101561001b575b361561001957600080fd5b005b60003560e01c806204c4fd1461015a5780630586abad1461015157806319732621146101485780632247463e1461013f578063371fd8e614610136578063464b41581461012d57806347e7ef241461012457806351e8b7fb1461011b578063715018a6146101125780638da5cb5b14610109578063b1cd7fab14610100578063c4d66de8146100f7578063f14210a6146100ee578063f2fde38b146100e5578063f3fef3a3146100dc5763f6326fb30361000e576100d76110c2565b61000e565b506100d7610f8a565b506100d7610ef8565b506100d7610c56565b506100d7610b68565b506100d7610a2d565b506100d7610a03565b506100d76109a1565b506100d7610956565b506100d7610865565b506100d7610823565b506100d761072f565b506100d7610587565b506100d76104ab565b506100d761038a565b506100d7610187565b6001600160a01b0381160361017457565b600080fd5b908160c09103126101745790565b50346101745760c0366003190112610174576004356024356101a881610163565b60443560a43567ffffffffffffffff8111610174576101cb903690600401610179565b916101db60026065541415611469565b6002606555609854604051636572f88f60e11b81526001600160a01b03918216946020918591839186918a9161024d919085816004818f5afa90811561037d575b600091610350575b5060405163c1ed9c2b60e01b8152818a169c909788968796608435946064359460048a016116d0565b038173__$77c5a84c43428e206d5bf08427df63fefa$__5af48015610343575b610315575b5050833b1561017457604051632e1a7d4d60e01b8152600481018690527f96558a334f4759f0e7c423d68c84721860bd8fbf94ddc4e55158ecb125ad04b59290600081602481838a5af18015610308575b6102ef575b506040805194855260208501969096521693339290819081015b0390a46100196001606555565b806102fc610302926114cc565b80610996565b386102c8565b61031061150f565b6102c3565b8161033492903d1061033c575b61032c81836114ed565b810190611592565b503880610272565b503d610322565b61034b61150f565b61026d565b6103709150863d8811610376575b61036881836114ed565b81019061151c565b38610224565b503d61035e565b61038561150f565b61021c565b50346101745760603660031901126101745760043560443567ffffffffffffffff8111610174576103bf903690600401610179565b6103ce60026065541415611469565b600260655560985473__$965b9be9fc5ba89821c2195a8bf360e455$__916001600160a01b0390911690823b156101745761043d9260009260405180958194829363aa9d40e160e01b845260048401528860248401526024356044840152608060648401526084830190611653565b03915af4801561049e575b61048b575b5060405190815233907f08813a3631e12129135cc9440d3fea50eec346f1673b20b994b0456d5d46ccb99080602081015b0390a26100196001606555565b806102fc610498926114cc565b3861044d565b6104a661150f565b610448565b5034610174576040366003190112610174576100196004356104cc81610163565b602435906104d982610163565b6104e16112c3565b60405163095ea7b360e01b81526001600160a01b038381166004830152600019602483015291909116906020816044816000865af1801561057a575b61054c575b50600052609760205260406000209060018060a01b03166001600160601b0360a01b825416179055565b61056c9060203d8111610573575b61056481836114ed565b81019061157a565b5038610522565b503d61055a565b61058261150f565b61051d565b506020366003190112610174576004356105a660026065541415611469565b60026065556098546004906020906105ce906001600160a01b03165b6001600160a01b031690565b604051636572f88f60e11b815292839182905afa908115610722575b600091610704575b506001600160a01b0316803b1561017457600060049160405192838092630d0e30db60e41b825234905af180156106f7575b6106e4575b506098546001600160a01b031673__$77c5a84c43428e206d5bf08427df63fefa$__803b15610174576040516376aca94160e01b81526001600160a01b0392909216600483015260248201839052600090829060449082905af480156106d7575b6106c4575b5060405190815233907f5c16de4f8b59bd9caf0f49a545f25819a895ed223294290b408242e72a59423190806020810161047e565b806102fc6106d1926114cc565b3861068f565b6106df61150f565b61068a565b806102fc6106f1926114cc565b38610629565b6106ff61150f565b610624565b61071c915060203d81116103765761036881836114ed565b386105f2565b61072a61150f565b6105ea565b50346101745760006020366003190112610820576004359061075660026065541415611469565b600260655560985473__$77c5a84c43428e206d5bf08427df63fefa$__906001600160a01b0316813b1561081c576040516376aca94160e01b81526001600160a01b0391909116600482015260248101849052908290829060449082905af4801561080f575b610800575b506040519182529033907f5c16de4f8b59bd9caf0f49a545f25819a895ed223294290b408242e72a59423190602090a26107fb6001606555565b604051f35b610809906114cc565b386107c1565b61081761150f565b6107bc565b8280fd5b80fd5b503461017457602036600319011261017457602060043561084381610163565b60018060a01b0380911660005260978252604060002054161515604051908152f35b50346101745760403660031901126101745760043561088381610163565b60243561089560026065541415611469565b600260655573__$2f7c76ee15bdc1d8f3b34a04b86951fc56$__91823b156101745760405163dc3103e760e01b8152609760048201526001600160a01b03909116602482018190526044820183905292600090829060649082905af48015610949575b610936575b5060405190815233907f5548c837ab068cf56a2c2479df0882a4922fd203edb7517321831d95078c5f6290602090a36100196001606555565b806102fc610943926114cc565b386108fd565b61095161150f565b6108f8565b503461017457602036600319011261017457602060043561097681610163565b60018060a01b038091166000526097825260406000205416604051908152f35b600091031261017457565b503461017457600080600319360112610820576109bc6112c3565b603380546001600160a01b031981169091556040519082906001600160a01b03167f8be0079c531659141344cd1fd0a4f28419497f9722a3daafe3b4186f6b6457e08284a3f35b5034610174576000366003190112610174576033546040516001600160a01b039091168152602090f35b50346101745760e036600319011261017457600435610a4b81610163565b602435604435610a5a81610163565b6064359060c43567ffffffffffffffff811161017457818360207f96558a334f4759f0e7c423d68c84721860bd8fbf94ddc4e55158ecb125ad04b59487610af0610aab6102e2973690600401610179565b610aba60026065541415611469565b60026065556098548c906001600160a01b031660405163c1ed9c2b60e01b8152978896879660a435946084359460048a016116d0565b038173__$77c5a84c43428e206d5bf08427df63fefa$__5af48015610b5b575b610b3d575b506040805194855260208501959095526001600160a01b039081169516933393918291820190565b610b549060203d811161033c5761032c81836114ed565b5038610b15565b610b6361150f565b610b10565b503461017457602036600319011261017457600435610b8681610163565b610bca60005491610bae60ff8460081c161580948195610c48575b8115610c28575b50611366565b82610bc1600160ff196000541617600055565b610c0f576113c9565b610bd057005b610be061ff001960005416600055565b604051600181527f7f26b83ff96e1f2b6a682f133852f6798a09c465da95921460cefb384740249890602090a1005b610c2361010061ff00196000541617600055565b6113c9565b303b15915081610c3a575b5038610ba8565b6001915060ff161438610c33565b600160ff8216109150610ba1565b503461017457602080600319360112610174576004908135610c7d60026065541415611469565b600260655560985460408051636572f88f60e11b815290936001600160a01b03928316939281838881885afa928315610eeb575b600093610ecc575b5082169373__$2f7c76ee15bdc1d8f3b34a04b86951fc56$__90813b1561017457865163fc414f7b60e01b81526001600160a01b03918216818a019081526097602082015291909416604082015260608101859052610da693916000918391908290819060800103915af48015610ebf575b610eac575b5084516323b872dd60e01b8152338782019081523060208201526040810185905282908290819060600103816000895af18015610e9f575b610e82575b5084516370a0823160e01b8152308782019081528290829081906020010381885afa918215610e75575b600092610e58575b5050611722565b813b15610174578251632e1a7d4d60e01b815293840181815260009490859082908190602001038183875af18015610e4b575b610e38575b50610df9848080865185335af1610df36115a1565b506115ef565b825190815233907f9b1bfa7fa9ee420a16e124f794c35ac9f90472acc99140eb2f6447c714cad8eb9080602081015b0390a3610e356001606555565b51f35b806102fc610e45926114cc565b38610dde565b610e5361150f565b610dd9565b610e6e9250803d1061033c5761032c81836114ed565b3880610d9f565b610e7d61150f565b610d97565b610e9890823d84116105735761056481836114ed565b5038610d6d565b610ea761150f565b610d68565b806102fc610eb9926114cc565b38610d30565b610ec761150f565b610d2b565b610ee4919350823d84116103765761036881836114ed565b9138610cb9565b610ef361150f565b610cb1565b503461017457602036600319011261017457600435610f1681610163565b610f1e6112c3565b6001600160a01b03811615610f36576100199061131b565b60405162461bcd60e51b815260206004820152602660248201527f4f776e61626c653a206e6577206f776e657220697320746865207a65726f206160448201526564647265737360d01b6064820152608490fd5b5034610174576000604036600319011261082057600435610faa81610163565b602435610fbc60026065541415611469565b60026065556098546001600160a01b039073__$2f7c76ee15bdc1d8f3b34a04b86951fc56$__9085908316823b156110be5760405163fc414f7b60e01b81526001600160a01b0391821660048201526097602482015290861660448201526064810185905291829060849082905af480156110b1575b61107e575b507f9b1bfa7fa9ee420a16e124f794c35ac9f90472acc99140eb2f6447c714cad8eb90604051931692806110713394829190602083019252565b0390a36107fb6001606555565b936110aa7f9b1bfa7fa9ee420a16e124f794c35ac9f90472acc99140eb2f6447c714cad8eb92956114cc565b9390611037565b6110b961150f565b611032565b5080fd5b50600080600319360112610820576110df60026065541415611469565b60026065556098546110f9906001600160a01b03166105c2565b60409081518091636572f88f60e11b825281600460209485935afa9081156112b6575b8491611299575b506001600160a01b038116916111408261113b611534565b61178a565b823b15611295578351630d0e30db60e41b8152858160048134885af18015611288575b611275575b50835163a9059cbb60e01b8152336004820152346024820152818160448189885af18015611268575b61124a575b50508373__$2f7c76ee15bdc1d8f3b34a04b86951fc56$__91823b156110be57845163dc3103e760e01b8152609760048201526001600160a01b0391909116602482015234604482015291829060649082905af4801561123d575b61122a575b50815134815233907f5548c837ab068cf56a2c2479df0882a4922fd203edb7517321831d95078c5f62908060208101610e28565b806102fc611237926114cc565b386111f6565b61124561150f565b6111f1565b8161126092903d106105735761056481836114ed565b503880611196565b61127061150f565b611191565b806102fc611282926114cc565b38611168565b61129061150f565b611163565b8480fd5b6112b09150823d84116103765761036881836114ed565b38611123565b6112be61150f565b61111c565b6033546001600160a01b031633036112d757565b606460405162461bcd60e51b815260206004820152602060248201527f4f776e61626c653a2063616c6c6572206973206e6f7420746865206f776e65726044820152fd5b6033549060018060a01b0380911691826001600160601b0360a01b821617603355167f8be0079c531659141344cd1fd0a4f28419497f9722a3daafe3b4186f6b6457e06000604051a3565b1561136d57565b60405162461bcd60e51b815260206004820152602e60248201527f496e697469616c697a61626c653a20636f6e747261637420697320616c72656160448201526d191e481a5b9a5d1a585b1a5e995960921b6064820152608490fd5b6113e360ff60005460081c166113de81611409565b611409565b6113ec3361131b565b60018060a01b03166001600160601b0360a01b6098541617609855565b1561141057565b60405162461bcd60e51b815260206004820152602b60248201527f496e697469616c697a61626c653a20636f6e7472616374206973206e6f74206960448201526a6e697469616c697a696e6760a81b6064820152608490fd5b1561147057565b60405162461bcd60e51b815260206004820152601f60248201527f5265656e7472616e637947756172643a207265656e7472616e742063616c6c006044820152606490fd5b50634e487b7160e01b600052604160045260246000fd5b67ffffffffffffffff81116114e057604052565b6114e86114b5565b604052565b90601f8019910116810190811067ffffffffffffffff8211176114e057604052565b506040513d6000823e3d90fd5b90816020910312610174575161153181610163565b90565b604051906040820182811067ffffffffffffffff82111761156d575b604052600b82526a776574684164647265737360a81b6020830152565b6115756114b5565b611550565b90816020910312610174575180151581036101745790565b90816020910312610174575190565b3d156115ea573d9067ffffffffffffffff82116115dd575b604051916115d1601f8201601f1916602001846114ed565b82523d6000602084013e565b6115e56114b5565b6115b9565b606090565b156115f657565b60405162461bcd60e51b81526020600482015260146024820152732330b4b632b2103a379039b2b7321022ba3432b960611b6044820152606490fd5b908060209392818452848401376000828201840152601f01601f1916010190565b803560ff81168091036101745782526020810135602083015260408101356040830152606081013560608301526080810135608083015260a0810135601e198236030181121561017457016020813591019067ffffffffffffffff81116101745780360382136101745760c0838160a06115319601520191611632565b959390926115319897959360018060a01b0393848092168952609760208a0152166040880152606087015216608085015260a084015260c083015260e082015261012090816101008201520190611653565b611760906040519063f82c50f160e01b60208301526024820152602481526060810181811067ffffffffffffffff821117611762575b60405261176f565b565b61176a6114b5565b611758565b600080916020815191016a636f6e736f6c652e6c6f675afa50565b919060405190602063319af33360e01b81840152604060248401528451948560648501526000915b86831061180557505082856117f3936117609697608494116117f8575b60018060a01b03166044830152601f801991011681010360648101845201826114ed565b61176f565b60008483850101526117cf565b81830181015185840160840152918201916117b256fea26469706673582212207cc166d3c52d896fc7dd4a033737c0b111fc9ba11e4bd2ffd3aaa03d931d70ce64736f6c634300080f0033",
  "linkReferences": {
    "contracts/libraries/logic/BorrowLogic.sol": {
      "BorrowLogic": [
        {
          "length": 20,
          "start": 621
        },
        {
          "length": 20,
          "start": 1620
        },
        {
          "length": 20,
          "start": 1916
        },
        {
          "length": 20,
          "start": 2832
        }
      ]
    },
    "contracts/libraries/logic/LiquidationLogic.sol": {
      "LiquidationLogic": [
        {
          "length": 20,
          "start": 1012
        }
      ]
    },
    "contracts/libraries/logic/SupplyLogic.sol": {
      "SupplyLogic": [
        {
          "length": 20,
          "start": 2232
        },
        {
          "length": 20,
          "start": 3291
        },
        {
          "length": 20,
          "start": 4075
        },
        {
          "length": 20,
          "start": 4535
        }
      ]
    }
  },
  "deployedLinkReferences": {
    "contracts/libraries/logic/BorrowLogic.sol": {
      "BorrowLogic": [
        {
          "length": 20,
          "start": 593
        },
        {
          "length": 20,
          "start": 1592
        },
        {
          "length": 20,
          "start": 1888
        },
        {
          "length": 20,
          "start": 2804
        }
      ]
    },
    "contracts/libraries/logic/LiquidationLogic.sol": {
      "LiquidationLogic": [
        {
          "length": 20,
          "start": 984
        }
      ]
    },
    "contracts/libraries/logic/SupplyLogic.sol": {
      "SupplyLogic": [
        {
          "length": 20,
          "start": 2204
        },
        {
          "length": 20,
          "start": 3263
        },
        {
          "length": 20,
          "start": 4047
        },
        {
          "length": 20,
          "start": 4507
        }
      ]
    }
  }
}