{
  "_format": "hh-sol-artifact-1",
  "contractName": "Market",
  "sourceName": "contracts/protocol/Market.sol",
  "abi": [
    {
      "anonymous": false,
      "inputs": [
        {
          "indexed": true,
          "internalType": "address",
          "name": "user",
          "type": "address"
        },
        {
          "indexed": true,
          "internalType": "address",
          "name": "asset",
          "type": "address"
        },
        {
          "indexed": true,
          "internalType": "address",
          "name": "nftAddress",
          "type": "address"
        },
        {
          "indexed": false,
          "internalType": "uint256",
          "name": "nftTokenID",
          "type": "uint256"
        },
        {
          "indexed": false,
          "internalType": "uint256",
          "name": "amount",
          "type": "uint256"
        }
      ],
      "name": "Borrow",
      "type": "event"
    },
    {
      "anonymous": false,
      "inputs": [
        {
          "indexed": true,
          "internalType": "address",
          "name": "user",
          "type": "address"
        },
        {
          "indexed": true,
          "internalType": "address",
          "name": "asset",
          "type": "address"
        },
        {
          "indexed": false,
          "internalType": "uint256",
          "name": "amount",
          "type": "uint256"
        }
      ],
      "name": "Deposit",
      "type": "event"
    },
    {
      "anonymous": false,
      "inputs": [
        {
          "indexed": false,
          "internalType": "uint8",
          "name": "version",
          "type": "uint8"
        }
      ],
      "name": "Initialized",
      "type": "event"
    },
    {
      "anonymous": false,
      "inputs": [
        {
          "indexed": true,
          "internalType": "address",
          "name": "user",
          "type": "address"
        },
        {
          "indexed": false,
          "internalType": "uint256",
          "name": "loanId",
          "type": "uint256"
        }
      ],
      "name": "Liquidate",
      "type": "event"
    },
    {
      "anonymous": false,
      "inputs": [
        {
          "indexed": true,
          "internalType": "address",
          "name": "previousOwner",
          "type": "address"
        },
        {
          "indexed": true,
          "internalType": "address",
          "name": "newOwner",
          "type": "address"
        }
      ],
      "name": "OwnershipTransferred",
      "type": "event"
    },
    {
      "anonymous": false,
      "inputs": [
        {
          "indexed": true,
          "internalType": "address",
          "name": "user",
          "type": "address"
        },
        {
          "indexed": false,
          "internalType": "uint256",
          "name": "loanId",
          "type": "uint256"
        }
      ],
      "name": "Repay",
      "type": "event"
    },
    {
      "anonymous": false,
      "inputs": [
        {
          "indexed": true,
          "internalType": "address",
          "name": "user",
          "type": "address"
        },
        {
          "indexed": true,
          "internalType": "address",
          "name": "asset",
          "type": "address"
        },
        {
          "indexed": false,
          "internalType": "uint256",
          "name": "amount",
          "type": "uint256"
        }
      ],
      "name": "Withdraw",
      "type": "event"
    },
    {
      "inputs": [
        {
          "internalType": "address",
          "name": "asset",
          "type": "address"
        },
        {
          "internalType": "address",
          "name": "reserveAddress",
          "type": "address"
        }
      ],
      "name": "addReserve",
      "outputs": [],
      "stateMutability": "nonpayable",
      "type": "function"
    },
    {
      "inputs": [
        {
          "internalType": "address",
          "name": "asset",
          "type": "address"
        },
        {
          "internalType": "uint256",
          "name": "amount",
          "type": "uint256"
        },
        {
          "internalType": "address",
          "name": "nftAddress",
          "type": "address"
        },
        {
          "internalType": "uint256",
          "name": "nftTokenID",
          "type": "uint256"
        },
        {
          "internalType": "bytes32",
          "name": "request",
          "type": "bytes32"
        },
        {
          "components": [
            {
              "internalType": "uint8",
              "name": "v",
              "type": "uint8"
            },
            {
              "internalType": "bytes32",
              "name": "r",
              "type": "bytes32"
            },
            {
              "internalType": "bytes32",
              "name": "s",
              "type": "bytes32"
            },
            {
              "internalType": "bytes32",
              "name": "request",
              "type": "bytes32"
            },
            {
              "internalType": "uint256",
              "name": "deadline",
              "type": "uint256"
            },
            {
              "internalType": "bytes",
              "name": "payload",
              "type": "bytes"
            }
          ],
          "internalType": "struct Trustus.TrustusPacket",
          "name": "packet",
          "type": "tuple"
        }
      ],
      "name": "borrow",
      "outputs": [],
      "stateMutability": "nonpayable",
      "type": "function"
    },
    {
      "inputs": [
        {
          "internalType": "address",
          "name": "asset",
          "type": "address"
        },
        {
          "internalType": "uint256",
          "name": "amount",
          "type": "uint256"
        }
      ],
      "name": "deposit",
      "outputs": [],
      "stateMutability": "nonpayable",
      "type": "function"
    },
    {
      "inputs": [
        {
          "internalType": "address",
          "name": "asset",
          "type": "address"
        }
      ],
      "name": "getReserveAddress",
      "outputs": [
        {
          "internalType": "address",
          "name": "",
          "type": "address"
        }
      ],
      "stateMutability": "view",
      "type": "function"
    },
    {
      "inputs": [
        {
          "internalType": "contract IAddressesProvider",
          "name": "addressesProvider",
          "type": "address"
        }
      ],
      "name": "initialize",
      "outputs": [],
      "stateMutability": "nonpayable",
      "type": "function"
    },
    {
      "inputs": [
        {
          "internalType": "address",
          "name": "asset",
          "type": "address"
        }
      ],
      "name": "isAssetSupported",
      "outputs": [
        {
          "internalType": "bool",
          "name": "",
          "type": "bool"
        }
      ],
      "stateMutability": "view",
      "type": "function"
    },
    {
      "inputs": [
        {
          "internalType": "uint256",
          "name": "loanId",
          "type": "uint256"
        },
        {
          "internalType": "bytes32",
          "name": "request",
          "type": "bytes32"
        },
        {
          "components": [
            {
              "internalType": "uint8",
              "name": "v",
              "type": "uint8"
            },
            {
              "internalType": "bytes32",
              "name": "r",
              "type": "bytes32"
            },
            {
              "internalType": "bytes32",
              "name": "s",
              "type": "bytes32"
            },
            {
              "internalType": "bytes32",
              "name": "request",
              "type": "bytes32"
            },
            {
              "internalType": "uint256",
              "name": "deadline",
              "type": "uint256"
            },
            {
              "internalType": "bytes",
              "name": "payload",
              "type": "bytes"
            }
          ],
          "internalType": "struct Trustus.TrustusPacket",
          "name": "packet",
          "type": "tuple"
        }
      ],
      "name": "liquidate",
      "outputs": [],
      "stateMutability": "nonpayable",
      "type": "function"
    },
    {
      "inputs": [],
      "name": "owner",
      "outputs": [
        {
          "internalType": "address",
          "name": "",
          "type": "address"
        }
      ],
      "stateMutability": "view",
      "type": "function"
    },
    {
      "inputs": [],
      "name": "renounceOwnership",
      "outputs": [],
      "stateMutability": "nonpayable",
      "type": "function"
    },
    {
      "inputs": [
        {
          "internalType": "uint256",
          "name": "loanId",
          "type": "uint256"
        }
      ],
      "name": "repay",
      "outputs": [],
      "stateMutability": "nonpayable",
      "type": "function"
    },
    {
      "inputs": [
        {
          "internalType": "address",
          "name": "newOwner",
          "type": "address"
        }
      ],
      "name": "transferOwnership",
      "outputs": [],
      "stateMutability": "nonpayable",
      "type": "function"
    },
    {
      "inputs": [
        {
          "internalType": "address",
          "name": "asset",
          "type": "address"
        },
        {
          "internalType": "uint256",
          "name": "amount",
          "type": "uint256"
        }
      ],
      "name": "withdraw",
      "outputs": [],
      "stateMutability": "nonpayable",
      "type": "function"
    }
  ],
  "bytecode": "0x6080806040523461001657610bff908161001c8239f35b600080fdfe6040608081526004908136101561001557600080fd5b600091823560e01c80630586abad1461086d57806319732621146107a3578063371fd8e6146106d1578063464b41581461069457806347e7ef24146105c057806351e8b7fb14610585578063715018a6146105245780638da5cb5b146104f7578063c4d66de81461039a578063d40e1e091461022e578063f2fde38b1461019d5763f3fef3a3146100a557600080fd5b346101995781600319360112610199576100bd61097f565b83602435916100d160026065541415610a9d565b600260655560985473__$2f7c76ee15bdc1d8f3b34a04b86951fc56$__94906001600160a01b0390811690863b156101955784926084918951958694859363fc414f7b60e01b85528401526097602484015216978860448301528760648301525af4801561018b57610173575b505082519081527f9b1bfa7fa9ee420a16e124f794c35ac9f90472acc99140eb2f6447c714cad8eb60203392a3600160655551f35b61017c90610ae9565b61018757833861013e565b8380fd5b85513d84823e3d90fd5b8480fd5b8280fd5b5034610199576020366003190112610199576101b761097f565b906101c0610995565b6001600160a01b038216156101dc57506101d9906109ed565b51f35b608490602084519162461bcd60e51b8352820152602660248201527f4f776e61626c653a206e6577206f776e657220697320746865207a65726f206160448201526564647265737360d01b6064820152fd5b50346101995760031960c0368201126101875761024961097f565b6044356001600160a01b038181169460243592869003610395576064359360a4359567ffffffffffffffff87116103915760c090873603011261038d5760209161029860026065541415610a9d565b60026065556102f88460985416918a51958694859463bbc7e40f60e01b8652838601526097602486015216988960448501528760648501528a60848501528860a485015260843560c485015261010060e485015261010484019101610b35565b038173__$77c5a84c43428e206d5bf08427df63fefa$__5af4801561038357610354575b50845191825260208201527f96558a334f4759f0e7c423d68c84721860bd8fbf94ddc4e55158ecb125ad04b5843392a4600160655551f35b602090813d811161037c575b61036a8183610b13565b81010312610378573861031c565b8580fd5b503d610360565b86513d89823e3d90fd5b8880fd5b8980fd5b600080fd5b50346101995760203660031901126101995780356001600160a01b0381169081900361018757835460ff8160081c1615928380946104ea575b80156104d3575b15610479575060ff198116600117855582610468575b5061040a60ff855460081c1661040581610a3d565b610a3d565b610413336109ed565b6bffffffffffffffffffffffff60a01b60985416176098556104325751f35b61ff001982541682557f7f26b83ff96e1f2b6a682f133852f6798a09c465da95921460cefb38474024986020825160018152a151f35b61ffff1916610101178455386103f0565b608490602086519162461bcd60e51b8352820152602e60248201527f496e697469616c697a61626c653a20636f6e747261637420697320616c72656160448201526d191e481a5b9a5d1a585b1a5e995960921b6064820152fd5b50303b1580156103da5750600160ff8316146103da565b50600160ff8316106103d3565b50503461052057816003193601126105205760335490516001600160a01b039091168152602090f35b5080fd5b50503461052057816003193601126105205761053e610995565b603380546001600160a01b031981169091559051906000906001600160a01b03167f8be0079c531659141344cd1fd0a4f28419497f9722a3daafe3b4186f6b6457e08284a3f35b505034610520576020366003190112610520576020916001600160a01b03908290826105af61097f565b168152609785522054169051908152f35b50346101995781600319360112610199576105d961097f565b83602435916105ed60026065541415610a9d565b600260655573__$2f7c76ee15bdc1d8f3b34a04b86951fc56$__93843b15610199576097606484928851948593849263dc3103e760e01b845283015260018060a01b0316978860248301528760448301525af4801561018b57610680575b505082519081527f5548c837ab068cf56a2c2479df0882a4922fd203edb7517321831d95078c5f6260203392a3600160655551f35b61068990610ae9565b61018757833861064b565b505034610520576020366003190112610520576020916001600160a01b03908290826106be61097f565b1681526097855220541615159051908152f35b503461019957602036600319011261019957828135916106f660026065541415610a9d565b600260655560985473__$77c5a84c43428e206d5bf08427df63fefa$__91906001600160a01b0316823b156101875760448492875194859384926376aca94160e01b84528301528760248301525af4801561079957610785575b505081519081527f5c16de4f8b59bd9caf0f49a545f25819a895ed223294290b408242e72a59423160203392a2600160655551f35b61078e90610ae9565b610199578238610750565b84513d84823e3d90fd5b50346101995781600319360112610199576107bc61097f565b6001600160a01b03602435818116939290849003610395576107dc610995565b845163095ea7b360e01b81529283018490526000196024840152169060208160448188865af180156108635761082c575b508352609760205281832080546001600160a01b031916909117905551f35b6020813d821161085b575b8161084460209383610b13565b81010312610195575180151503610187573861080d565b3d9150610837565b84513d87823e3d90fd5b50346101995760031960603682011261018757838235926044359267ffffffffffffffff84116101995760c0908436030112610520576108b260026065541415610a9d565b60026065556098546001600160a01b03169273__$965b9be9fc5ba89821c2195a8bf360e455$__90813b156101875761091c9487519586948593849363aa9d40e160e01b855282850152896024850152602435604485015260806064850152608484019101610b35565b03915af480156109725761095f575b5081519081527f08813a3631e12129135cc9440d3fea50eec346f1673b20b994b0456d5d46ccb960203392a2600160655551f35b61096b90939193610ae9565b913861092b565b50505051903d90823e3d90fd5b600435906001600160a01b038216820361039557565b6033546001600160a01b031633036109a957565b606460405162461bcd60e51b815260206004820152602060248201527f4f776e61626c653a2063616c6c6572206973206e6f7420746865206f776e65726044820152fd5b6033549060018060a01b0380911691826bffffffffffffffffffffffff60a01b821617603355167f8be0079c531659141344cd1fd0a4f28419497f9722a3daafe3b4186f6b6457e06000604051a3565b15610a4457565b60405162461bcd60e51b815260206004820152602b60248201527f496e697469616c697a61626c653a20636f6e7472616374206973206e6f74206960448201526a6e697469616c697a696e6760a81b6064820152608490fd5b15610aa457565b60405162461bcd60e51b815260206004820152601f60248201527f5265656e7472616e637947756172643a207265656e7472616e742063616c6c006044820152606490fd5b67ffffffffffffffff8111610afd57604052565b634e487b7160e01b600052604160045260246000fd5b90601f8019910116810190811067ffffffffffffffff821117610afd57604052565b803560ff81168091036103955782526020810135602083015260408101356040830152606081013560608301526080810135608083015260a0810135601e19823603018112156103955701906020823592019167ffffffffffffffff8111610395578036038313610395578060e09360c060a08501528160c0850152848401376000828201840152601f01601f191601019056fea26469706673582212207989b90eec01b7157cb86939d3cf2f3d76ef532244bf9fd1e30790e7864e4f3664736f6c634300080f0033",
  "linkReferences": {
    "contracts/libraries/logic/BorrowLogic.sol": {
      "BorrowLogic": [
        {
          "length": 20,
          "start": 792
        },
        {
          "length": 20,
          "start": 1820
        }
      ]
    },
    "contracts/libraries/logic/LiquidationLogic.sol": {
      "LiquidationLogic": [
        {
          "length": 20,
          "start": 2274
        }
      ]
    },
    "contracts/libraries/logic/SupplyLogic.sol": {
      "SupplyLogic": [
        {
          "length": 20,
          "start": 247
        },
        {
          "length": 20,
          "start": 1552
        }
      ]
    }
  },
  "deployedLinkReferences": {
    "contracts/libraries/logic/BorrowLogic.sol": {
      "BorrowLogic": [
        {
          "length": 20,
          "start": 764
        },
        {
          "length": 20,
          "start": 1792
        }
      ]
    },
    "contracts/libraries/logic/LiquidationLogic.sol": {
      "LiquidationLogic": [
        {
          "length": 20,
          "start": 2246
        }
      ]
    },
    "contracts/libraries/logic/SupplyLogic.sol": {
      "SupplyLogic": [
        {
          "length": 20,
          "start": 219
        },
        {
          "length": 20,
          "start": 1524
        }
      ]
    }
  }
}