{
  "_format": "hh-sol-artifact-1",
  "contractName": "Market",
  "sourceName": "contracts/protocol/Market.sol",
  "abi": [
    {
      "anonymous": false,
      "inputs": [
        {
          "indexed": true,
          "internalType": "address",
          "name": "user",
          "type": "address"
        },
        {
          "indexed": true,
          "internalType": "address",
          "name": "asset",
          "type": "address"
        },
        {
          "indexed": true,
          "internalType": "address",
          "name": "nftAddress",
          "type": "address"
        },
        {
          "indexed": false,
          "internalType": "uint256",
          "name": "nftTokenID",
          "type": "uint256"
        },
        {
          "indexed": false,
          "internalType": "uint256",
          "name": "amount",
          "type": "uint256"
        }
      ],
      "name": "Borrow",
      "type": "event"
    },
    {
      "anonymous": false,
      "inputs": [
        {
          "indexed": true,
          "internalType": "address",
          "name": "user",
          "type": "address"
        },
        {
          "indexed": true,
          "internalType": "address",
          "name": "asset",
          "type": "address"
        },
        {
          "indexed": false,
          "internalType": "uint256",
          "name": "amount",
          "type": "uint256"
        }
      ],
      "name": "Deposit",
      "type": "event"
    },
    {
      "anonymous": false,
      "inputs": [
        {
          "indexed": false,
          "internalType": "uint8",
          "name": "version",
          "type": "uint8"
        }
      ],
      "name": "Initialized",
      "type": "event"
    },
    {
      "anonymous": false,
      "inputs": [
        {
          "indexed": true,
          "internalType": "address",
          "name": "user",
          "type": "address"
        },
        {
          "indexed": false,
          "internalType": "uint256",
          "name": "loanId",
          "type": "uint256"
        }
      ],
      "name": "Liquidate",
      "type": "event"
    },
    {
      "anonymous": false,
      "inputs": [
        {
          "indexed": true,
          "internalType": "address",
          "name": "previousOwner",
          "type": "address"
        },
        {
          "indexed": true,
          "internalType": "address",
          "name": "newOwner",
          "type": "address"
        }
      ],
      "name": "OwnershipTransferred",
      "type": "event"
    },
    {
      "anonymous": false,
      "inputs": [
        {
          "indexed": true,
          "internalType": "address",
          "name": "user",
          "type": "address"
        },
        {
          "indexed": false,
          "internalType": "uint256",
          "name": "loanId",
          "type": "uint256"
        }
      ],
      "name": "Repay",
      "type": "event"
    },
    {
      "anonymous": false,
      "inputs": [
        {
          "indexed": true,
          "internalType": "address",
          "name": "user",
          "type": "address"
        },
        {
          "indexed": true,
          "internalType": "address",
          "name": "asset",
          "type": "address"
        },
        {
          "indexed": false,
          "internalType": "uint256",
          "name": "amount",
          "type": "uint256"
        }
      ],
      "name": "Withdraw",
      "type": "event"
    },
    {
      "inputs": [
        {
          "internalType": "address",
          "name": "asset",
          "type": "address"
        },
        {
          "internalType": "address",
          "name": "reserveAddress",
          "type": "address"
        }
      ],
      "name": "addReserve",
      "outputs": [],
      "stateMutability": "nonpayable",
      "type": "function"
    },
    {
      "inputs": [
        {
          "internalType": "address",
          "name": "asset",
          "type": "address"
        },
        {
          "internalType": "uint256",
          "name": "amount",
          "type": "uint256"
        },
        {
          "internalType": "address",
          "name": "nftAddress",
          "type": "address"
        },
        {
          "internalType": "uint256",
          "name": "nftTokenID",
          "type": "uint256"
        },
        {
          "internalType": "bytes32",
          "name": "request",
          "type": "bytes32"
        },
        {
          "components": [
            {
              "internalType": "uint8",
              "name": "v",
              "type": "uint8"
            },
            {
              "internalType": "bytes32",
              "name": "r",
              "type": "bytes32"
            },
            {
              "internalType": "bytes32",
              "name": "s",
              "type": "bytes32"
            },
            {
              "internalType": "bytes32",
              "name": "request",
              "type": "bytes32"
            },
            {
              "internalType": "uint256",
              "name": "deadline",
              "type": "uint256"
            },
            {
              "internalType": "bytes",
              "name": "payload",
              "type": "bytes"
            }
          ],
          "internalType": "struct Trustus.TrustusPacket",
          "name": "packet",
          "type": "tuple"
        }
      ],
      "name": "borrow",
      "outputs": [],
      "stateMutability": "nonpayable",
      "type": "function"
    },
    {
      "inputs": [
        {
          "internalType": "address",
          "name": "asset",
          "type": "address"
        },
        {
          "internalType": "uint256",
          "name": "amount",
          "type": "uint256"
        }
      ],
      "name": "deposit",
      "outputs": [],
      "stateMutability": "nonpayable",
      "type": "function"
    },
    {
      "inputs": [
        {
          "internalType": "uint256",
          "name": "loanId",
          "type": "uint256"
        },
        {
          "internalType": "bytes32",
          "name": "request",
          "type": "bytes32"
        },
        {
          "components": [
            {
              "internalType": "uint8",
              "name": "v",
              "type": "uint8"
            },
            {
              "internalType": "bytes32",
              "name": "r",
              "type": "bytes32"
            },
            {
              "internalType": "bytes32",
              "name": "s",
              "type": "bytes32"
            },
            {
              "internalType": "bytes32",
              "name": "request",
              "type": "bytes32"
            },
            {
              "internalType": "uint256",
              "name": "deadline",
              "type": "uint256"
            },
            {
              "internalType": "bytes",
              "name": "payload",
              "type": "bytes"
            }
          ],
          "internalType": "struct Trustus.TrustusPacket",
          "name": "packet",
          "type": "tuple"
        }
      ],
      "name": "getLoanLiquidationPrice",
      "outputs": [
        {
          "internalType": "uint256",
          "name": "",
          "type": "uint256"
        },
        {
          "internalType": "uint256",
          "name": "",
          "type": "uint256"
        }
      ],
      "stateMutability": "view",
      "type": "function"
    },
    {
      "inputs": [
        {
          "internalType": "address",
          "name": "asset",
          "type": "address"
        }
      ],
      "name": "getReserveAddress",
      "outputs": [
        {
          "internalType": "address",
          "name": "",
          "type": "address"
        }
      ],
      "stateMutability": "view",
      "type": "function"
    },
    {
      "inputs": [
        {
          "internalType": "contract IAddressesProvider",
          "name": "addressesProvider",
          "type": "address"
        }
      ],
      "name": "initialize",
      "outputs": [],
      "stateMutability": "nonpayable",
      "type": "function"
    },
    {
      "inputs": [
        {
          "internalType": "address",
          "name": "asset",
          "type": "address"
        }
      ],
      "name": "isAssetSupported",
      "outputs": [
        {
          "internalType": "bool",
          "name": "",
          "type": "bool"
        }
      ],
      "stateMutability": "view",
      "type": "function"
    },
    {
      "inputs": [
        {
          "internalType": "uint256",
          "name": "loanId",
          "type": "uint256"
        },
        {
          "internalType": "bytes32",
          "name": "request",
          "type": "bytes32"
        },
        {
          "components": [
            {
              "internalType": "uint8",
              "name": "v",
              "type": "uint8"
            },
            {
              "internalType": "bytes32",
              "name": "r",
              "type": "bytes32"
            },
            {
              "internalType": "bytes32",
              "name": "s",
              "type": "bytes32"
            },
            {
              "internalType": "bytes32",
              "name": "request",
              "type": "bytes32"
            },
            {
              "internalType": "uint256",
              "name": "deadline",
              "type": "uint256"
            },
            {
              "internalType": "bytes",
              "name": "payload",
              "type": "bytes"
            }
          ],
          "internalType": "struct Trustus.TrustusPacket",
          "name": "packet",
          "type": "tuple"
        }
      ],
      "name": "liquidate",
      "outputs": [],
      "stateMutability": "nonpayable",
      "type": "function"
    },
    {
      "inputs": [],
      "name": "owner",
      "outputs": [
        {
          "internalType": "address",
          "name": "",
          "type": "address"
        }
      ],
      "stateMutability": "view",
      "type": "function"
    },
    {
      "inputs": [],
      "name": "renounceOwnership",
      "outputs": [],
      "stateMutability": "nonpayable",
      "type": "function"
    },
    {
      "inputs": [
        {
          "internalType": "uint256",
          "name": "loanId",
          "type": "uint256"
        }
      ],
      "name": "repay",
      "outputs": [],
      "stateMutability": "nonpayable",
      "type": "function"
    },
    {
      "inputs": [
        {
          "internalType": "address",
          "name": "newOwner",
          "type": "address"
        }
      ],
      "name": "transferOwnership",
      "outputs": [],
      "stateMutability": "nonpayable",
      "type": "function"
    },
    {
      "inputs": [
        {
          "internalType": "address",
          "name": "asset",
          "type": "address"
        },
        {
          "internalType": "uint256",
          "name": "amount",
          "type": "uint256"
        }
      ],
      "name": "withdraw",
      "outputs": [],
      "stateMutability": "nonpayable",
      "type": "function"
    }
  ],
  "bytecode": "0x6080806040523461001657610cf6908161001c8239f35b600080fdfe6040608081526004908136101561001557600080fd5b600091823560e01c80630586abad146108a257806319732621146107d1578063371fd8e6146106ff578063464b4158146106c257806347e7ef24146105ee57806351e8b7fb146105b3578063715018a6146105505780638da5cb5b14610527578063b398df5d14610468578063c4d66de8146103ab578063d40e1e091461023f578063f2fde38b146101a85763f3fef3a3146100b057600080fd5b346101a457816003193601126101a4576100c86109b2565b83602435916100dc60026065541415610b66565b600260655560985473__$2f7c76ee15bdc1d8f3b34a04b86951fc56$__94906001600160a01b0390811690863b156101a05784926084918951958694859363fc414f7b60e01b85528401526097602484015216978860448301528760648301525af480156101965761017e575b505082519081527f9b1bfa7fa9ee420a16e124f794c35ac9f90472acc99140eb2f6447c714cad8eb60203392a3600160655551f35b61018790610bb2565b610192578338610149565b8380fd5b85513d84823e3d90fd5b8480fd5b8280fd5b50346101a45760203660031901126101a4576101c26109b2565b9060018060a01b036101d9816033541633146109c8565b8216156101ed57506101ea90610a13565b51f35b608490602084519162461bcd60e51b8352820152602660248201527f4f776e61626c653a206e6577206f776e657220697320746865207a65726f206160448201526564647265737360d01b6064820152fd5b50346101a45760031960c0368201126101925761025a6109b2565b6044356001600160a01b0381811694602435928690036103a6576064359360a4359567ffffffffffffffff87116103a25760c090873603011261039e576020916102a960026065541415610b66565b60026065556103098460985416918a51958694859463bbc7e40f60e01b8652838601526097602486015216988960448501528760648501528a60848501528860a485015260843560c485015261010060e485015261010484019101610bfe565b038173__$77c5a84c43428e206d5bf08427df63fefa$__5af4801561039457610365575b50845191825260208201527f96558a334f4759f0e7c423d68c84721860bd8fbf94ddc4e55158ecb125ad04b5843392a4600160655551f35b602090813d811161038d575b61037b8183610bdc565b81010312610389573861032d565b8580fd5b503d610371565b86513d89823e3d90fd5b8880fd5b8980fd5b600080fd5b50346101a45760203660031901126101a457356001600160a01b038116908190036101a4576103d8610b26565b9081610456575b6103f860ff855460081c166103f381610a63565b610a63565b61040133610a13565b6bffffffffffffffffffffffff60a01b60985416176098556104205751f35b61ff001982541682557f7f26b83ff96e1f2b6a682f133852f6798a09c465da95921460cefb38474024986020825160018152a151f35b835461ff0019166101001784556103df565b5082903461052357826104a961047d36610978565b6098548551632efaacbd60e21b8152968795869590949290916001600160a01b03909116908601610c92565b038173__$4c26be947d349222af871a3168b3fe584b$__5af4908115610519578280926104df575b505082519182526020820152f35b915091508282813d8311610512575b6104f88183610bdc565b8101031261050f57506020815191015183806104d1565b80fd5b503d6104ee565b83513d84823e3d90fd5b5080fd5b50503461052357816003193601126105235760335490516001600160a01b039091168152602090f35b5050346105235781600319360112610523576033546001600160a01b0381169160009161057e3385146109c8565b6001600160a01b03191660335551917f8be0079c531659141344cd1fd0a4f28419497f9722a3daafe3b4186f6b6457e08284a3f35b505034610523576020366003190112610523576020916001600160a01b03908290826105dd6109b2565b168152609785522054169051908152f35b50346101a457816003193601126101a4576106076109b2565b836024359161061b60026065541415610b66565b600260655573__$2f7c76ee15bdc1d8f3b34a04b86951fc56$__93843b156101a4576097606484928851948593849263dc3103e760e01b845283015260018060a01b0316978860248301528760448301525af48015610196576106ae575b505082519081527f5548c837ab068cf56a2c2479df0882a4922fd203edb7517321831d95078c5f6260203392a3600160655551f35b6106b790610bb2565b610192578338610679565b505034610523576020366003190112610523576020916001600160a01b03908290826106ec6109b2565b1681526097855220541615159051908152f35b50346101a45760203660031901126101a4578281359161072460026065541415610b66565b600260655560985473__$77c5a84c43428e206d5bf08427df63fefa$__91906001600160a01b0316823b156101925760448492875194859384926376aca94160e01b84528301528760248301525af480156107c7576107b3575b505081519081527f5c16de4f8b59bd9caf0f49a545f25819a895ed223294290b408242e72a59423160203392a2600160655551f35b6107bc90610bb2565b6101a457823861077e565b84513d84823e3d90fd5b50346101a457816003193601126101a4576107ea6109b2565b6001600160a01b036024358181169392908490036103a657610811826033541633146109c8565b845163095ea7b360e01b81529283018490526000196024840152169060208160448188865af1801561089857610861575b508352609760205281832080546001600160a01b031916909117905551f35b6020813d8211610890575b8161087960209383610bdc565b810103126101a05751801515036101925738610842565b3d915061086c565b84513d87823e3d90fd5b50346101a457826108b236610978565b909291936108c560026065541415610b66565b600260655560985473__$965b9be9fc5ba89821c2195a8bf360e455$__916001600160a01b0390911690823b156101a057610915879489519788968795869563aa9d40e160e01b87528601610c92565b03915af4801561096b57610958575b5081519081527f08813a3631e12129135cc9440d3fea50eec346f1673b20b994b0456d5d46ccb960203392a2600160655551f35b61096490939193610bb2565b9138610924565b50505051903d90823e3d90fd5b600319916060828401126103a65760043592602435926044359167ffffffffffffffff83116103a6578260c0920301126103a65760040190565b600435906001600160a01b03821682036103a657565b156109cf57565b606460405162461bcd60e51b815260206004820152602060248201527f4f776e61626c653a2063616c6c6572206973206e6f7420746865206f776e65726044820152fd5b6033549060018060a01b0380911691826bffffffffffffffffffffffff60a01b821617603355167f8be0079c531659141344cd1fd0a4f28419497f9722a3daafe3b4186f6b6457e06000604051a3565b15610a6a57565b60405162461bcd60e51b815260206004820152602b60248201527f496e697469616c697a61626c653a20636f6e7472616374206973206e6f74206960448201526a6e697469616c697a696e6760a81b6064820152608490fd5b15610aca57565b60405162461bcd60e51b815260206004820152602e60248201527f496e697469616c697a61626c653a20636f6e747261637420697320616c72656160448201526d191e481a5b9a5d1a585b1a5e995960921b6064820152608490fd5b60005460ff8160081c16600014610b485750610b43303b15610ac3565b600090565b80610b59600160ff81941610610ac3565b60ff191617600055600190565b15610b6d57565b60405162461bcd60e51b815260206004820152601f60248201527f5265656e7472616e637947756172643a207265656e7472616e742063616c6c006044820152606490fd5b67ffffffffffffffff8111610bc657604052565b634e487b7160e01b600052604160045260246000fd5b90601f8019910116810190811067ffffffffffffffff821117610bc657604052565b803560ff81168091036103a65782526020810135602083015260408101356040830152606081013560608301526080810135608083015260a0810135601e19823603018112156103a65701906020823592019167ffffffffffffffff81116103a65780360383136103a6578060e09360c060a08501528160c0850152848401376000828201840152601f01601f1916010190565b9092608092610cbd959460018060a01b03168352602083015260408201528160608201520190610bfe565b9056fea26469706673582212206c56feb1f45a1b1559f20145c562e353e0d93e9c9d024b07952ca2d25fcbdd6a64736f6c634300080f0033",
  "linkReferences": {
    "contracts/libraries/logic/BorrowLogic.sol": {
      "BorrowLogic": [
        {
          "length": 20,
          "start": 809
        },
        {
          "length": 20,
          "start": 1866
        }
      ]
    },
    "contracts/libraries/logic/GenericLogic.sol": {
      "GenericLogic": [
        {
          "length": 20,
          "start": 1225
        }
      ]
    },
    "contracts/libraries/logic/LiquidationLogic.sol": {
      "LiquidationLogic": [
        {
          "length": 20,
          "start": 2283
        }
      ]
    },
    "contracts/libraries/logic/SupplyLogic.sol": {
      "SupplyLogic": [
        {
          "length": 20,
          "start": 258
        },
        {
          "length": 20,
          "start": 1598
        }
      ]
    }
  },
  "deployedLinkReferences": {
    "contracts/libraries/logic/BorrowLogic.sol": {
      "BorrowLogic": [
        {
          "length": 20,
          "start": 781
        },
        {
          "length": 20,
          "start": 1838
        }
      ]
    },
    "contracts/libraries/logic/GenericLogic.sol": {
      "GenericLogic": [
        {
          "length": 20,
          "start": 1197
        }
      ]
    },
    "contracts/libraries/logic/LiquidationLogic.sol": {
      "LiquidationLogic": [
        {
          "length": 20,
          "start": 2255
        }
      ]
    },
    "contracts/libraries/logic/SupplyLogic.sol": {
      "SupplyLogic": [
        {
          "length": 20,
          "start": 230
        },
        {
          "length": 20,
          "start": 1570
        }
      ]
    }
  }
}