{
  "_format": "hh-sol-artifact-1",
  "contractName": "Market",
  "sourceName": "contracts/protocol/Market.sol",
  "abi": [
    {
      "anonymous": false,
      "inputs": [
        {
          "indexed": false,
          "internalType": "uint8",
          "name": "version",
          "type": "uint8"
        }
      ],
      "name": "Initialized",
      "type": "event"
    },
    {
      "anonymous": false,
      "inputs": [
        {
          "indexed": true,
          "internalType": "address",
          "name": "previousOwner",
          "type": "address"
        },
        {
          "indexed": true,
          "internalType": "address",
          "name": "newOwner",
          "type": "address"
        }
      ],
      "name": "OwnershipTransferred",
      "type": "event"
    },
    {
      "inputs": [
        {
          "internalType": "address",
          "name": "asset",
          "type": "address"
        },
        {
          "internalType": "address",
          "name": "reserveAddress",
          "type": "address"
        }
      ],
      "name": "addReserve",
      "outputs": [],
      "stateMutability": "nonpayable",
      "type": "function"
    },
    {
      "inputs": [
        {
          "internalType": "address",
          "name": "asset",
          "type": "address"
        },
        {
          "internalType": "uint256",
          "name": "amount",
          "type": "uint256"
        },
        {
          "internalType": "address",
          "name": "nftAddress",
          "type": "address"
        },
        {
          "internalType": "uint256",
          "name": "nftTokenID",
          "type": "uint256"
        }
      ],
      "name": "borrow",
      "outputs": [],
      "stateMutability": "nonpayable",
      "type": "function"
    },
    {
      "inputs": [
        {
          "internalType": "address",
          "name": "asset",
          "type": "address"
        },
        {
          "internalType": "uint256",
          "name": "amount",
          "type": "uint256"
        }
      ],
      "name": "deposit",
      "outputs": [],
      "stateMutability": "nonpayable",
      "type": "function"
    },
    {
      "inputs": [
        {
          "internalType": "address",
          "name": "asset",
          "type": "address"
        }
      ],
      "name": "getReserveAddress",
      "outputs": [
        {
          "internalType": "address",
          "name": "",
          "type": "address"
        }
      ],
      "stateMutability": "view",
      "type": "function"
    },
    {
      "inputs": [
        {
          "internalType": "contract IMarketAddressesProvider",
          "name": "addressesProvider",
          "type": "address"
        }
      ],
      "name": "initialize",
      "outputs": [],
      "stateMutability": "nonpayable",
      "type": "function"
    },
    {
      "inputs": [
        {
          "internalType": "uint256",
          "name": "loanId",
          "type": "uint256"
        }
      ],
      "name": "liquidate",
      "outputs": [],
      "stateMutability": "nonpayable",
      "type": "function"
    },
    {
      "inputs": [],
      "name": "owner",
      "outputs": [
        {
          "internalType": "address",
          "name": "",
          "type": "address"
        }
      ],
      "stateMutability": "view",
      "type": "function"
    },
    {
      "inputs": [],
      "name": "renounceOwnership",
      "outputs": [],
      "stateMutability": "nonpayable",
      "type": "function"
    },
    {
      "inputs": [
        {
          "internalType": "uint256",
          "name": "loanId",
          "type": "uint256"
        }
      ],
      "name": "repay",
      "outputs": [],
      "stateMutability": "nonpayable",
      "type": "function"
    },
    {
      "inputs": [
        {
          "internalType": "address",
          "name": "newOwner",
          "type": "address"
        }
      ],
      "name": "transferOwnership",
      "outputs": [],
      "stateMutability": "nonpayable",
      "type": "function"
    },
    {
      "inputs": [
        {
          "internalType": "address",
          "name": "asset",
          "type": "address"
        },
        {
          "internalType": "uint256",
          "name": "amount",
          "type": "uint256"
        }
      ],
      "name": "withdraw",
      "outputs": [],
      "stateMutability": "nonpayable",
      "type": "function"
    }
  ],
  "bytecode": "0x608060405234801561001057600080fd5b5061141c806100206000396000f3fe608060405234801561001057600080fd5b50600436106100a95760003560e01c8063715018a611610071578063715018a61461014e5780638da5cb5b14610158578063c4d66de814610176578063d028053914610192578063f2fde38b146101ae578063f3fef3a3146101ca576100a9565b806319732621146100ae578063371fd8e6146100ca578063415f1240146100e657806347e7ef241461010257806351e8b7fb1461011e575b600080fd5b6100c860048036038101906100c39190610d27565b6101e6565b005b6100e460048036038101906100df9190610d9d565b6102e4565b005b61010060048036038101906100fb9190610d9d565b6103cc565b005b61011c60048036038101906101179190610dca565b6104b4565b005b61013860048036038101906101339190610e0a565b610579565b6040516101459190610e46565b60405180910390f35b6101566105e2565b005b61016061066a565b60405161016d9190610e46565b60405180910390f35b610190600480360381019061018b9190610e9f565b610694565b005b6101ac60048036038101906101a79190610ecc565b61076a565b005b6101c860048036038101906101c39190610e0a565b61086d565b005b6101e460048036038101906101df9190610dca565b610964565b005b6101ee610a29565b73ffffffffffffffffffffffffffffffffffffffff1661020c61066a565b73ffffffffffffffffffffffffffffffffffffffff1614610262576040517f08c379a000000000000000000000000000000000000000000000000000000000815260040161025990610f90565b60405180910390fd5b80606560008473ffffffffffffffffffffffffffffffffffffffff1673ffffffffffffffffffffffffffffffffffffffff16815260200190815260200160002060006101000a81548173ffffffffffffffffffffffffffffffffffffffff021916908373ffffffffffffffffffffffffffffffffffffffff1602179055505050565b600160675403610329576040517f08c379a000000000000000000000000000000000000000000000000000000000815260040161032090610ffc565b60405180910390fd5b600160678190555073__$77c5a84c43428e206d5bf08427df63fefa$__63bdee8b97606660009054906101000a900473ffffffffffffffffffffffffffffffffffffffff16606584336040518563ffffffff1660e01b815260040161039194939291906110a0565b60006040518083038186803b1580156103a957600080fd5b505af41580156103bd573d6000803e3d6000fd5b50505050600060678190555050565b600160675403610411576040517f08c379a000000000000000000000000000000000000000000000000000000000815260040161040890610ffc565b60405180910390fd5b600160678190555073__$965b9be9fc5ba89821c2195a8bf360e455$__63bb9689af606660009054906101000a900473ffffffffffffffffffffffffffffffffffffffff16606584336040518563ffffffff1660e01b815260040161047994939291906110a0565b60006040518083038186803b15801561049157600080fd5b505af41580156104a5573d6000803e3d6000fd5b50505050600060678190555050565b6001606754036104f9576040517f08c379a00000000000000000000000000000000000000000000000000000000081526004016104f090610ffc565b60405180910390fd5b600160678190555073__$2f7c76ee15bdc1d8f3b34a04b86951fc56$__63dc3103e7606584846040518463ffffffff1660e01b815260040161053d939291906110e5565b60006040518083038186803b15801561055557600080fd5b505af4158015610569573d6000803e3d6000fd5b5050505060006067819055505050565b6000606560008373ffffffffffffffffffffffffffffffffffffffff1673ffffffffffffffffffffffffffffffffffffffff16815260200190815260200160002060009054906101000a900473ffffffffffffffffffffffffffffffffffffffff169050919050565b6105ea610a29565b73ffffffffffffffffffffffffffffffffffffffff1661060861066a565b73ffffffffffffffffffffffffffffffffffffffff161461065e576040517f08c379a000000000000000000000000000000000000000000000000000000000815260040161065590610f90565b60405180910390fd5b6106686000610a31565b565b6000603360009054906101000a900473ffffffffffffffffffffffffffffffffffffffff16905090565b60006106a06001610af7565b905080156106c4576001600060016101000a81548160ff0219169083151502179055505b6106cc610be7565b81606660006101000a81548173ffffffffffffffffffffffffffffffffffffffff021916908373ffffffffffffffffffffffffffffffffffffffff16021790555080156107665760008060016101000a81548160ff0219169083151502179055507f7f26b83ff96e1f2b6a682f133852f6798a09c465da95921460cefb3847402498600160405161075d9190611164565b60405180910390a15b5050565b6001606754036107af576040517f08c379a00000000000000000000000000000000000000000000000000000000081526004016107a690610ffc565b60405180910390fd5b600160678190555073__$77c5a84c43428e206d5bf08427df63fefa$__63ba4a3c4d606660009054906101000a900473ffffffffffffffffffffffffffffffffffffffff16606533888888886040518863ffffffff1660e01b815260040161081d979695949392919061117f565b602060405180830381865af415801561083a573d6000803e3d6000fd5b505050506040513d601f19601f8201168201806040525081019061085e9190611203565b50600060678190555050505050565b610875610a29565b73ffffffffffffffffffffffffffffffffffffffff1661089361066a565b73ffffffffffffffffffffffffffffffffffffffff16146108e9576040517f08c379a00000000000000000000000000000000000000000000000000000000081526004016108e090610f90565b60405180910390fd5b600073ffffffffffffffffffffffffffffffffffffffff168173ffffffffffffffffffffffffffffffffffffffff1603610958576040517f08c379a000000000000000000000000000000000000000000000000000000000815260040161094f906112a2565b60405180910390fd5b61096181610a31565b50565b6001606754036109a9576040517f08c379a00000000000000000000000000000000000000000000000000000000081526004016109a090610ffc565b60405180910390fd5b600160678190555073__$2f7c76ee15bdc1d8f3b34a04b86951fc56$__63554fac42606584846040518463ffffffff1660e01b81526004016109ed939291906110e5565b60006040518083038186803b158015610a0557600080fd5b505af4158015610a19573d6000803e3d6000fd5b5050505060006067819055505050565b600033905090565b6000603360009054906101000a900473ffffffffffffffffffffffffffffffffffffffff16905081603360006101000a81548173ffffffffffffffffffffffffffffffffffffffff021916908373ffffffffffffffffffffffffffffffffffffffff1602179055508173ffffffffffffffffffffffffffffffffffffffff168173ffffffffffffffffffffffffffffffffffffffff167f8be0079c531659141344cd1fd0a4f28419497f9722a3daafe3b4186f6b6457e060405160405180910390a35050565b60008060019054906101000a900460ff1615610b6e5760018260ff16148015610b265750610b2430610c40565b155b610b65576040517f08c379a0000000000000000000000000000000000000000000000000000000008152600401610b5c90611334565b60405180910390fd5b60009050610be2565b8160ff1660008054906101000a900460ff1660ff1610610bc3576040517f08c379a0000000000000000000000000000000000000000000000000000000008152600401610bba90611334565b60405180910390fd5b816000806101000a81548160ff021916908360ff160217905550600190505b919050565b600060019054906101000a900460ff16610c36576040517f08c379a0000000000000000000000000000000000000000000000000000000008152600401610c2d906113c6565b60405180910390fd5b610c3e610c63565b565b6000808273ffffffffffffffffffffffffffffffffffffffff163b119050919050565b600060019054906101000a900460ff16610cb2576040517f08c379a0000000000000000000000000000000000000000000000000000000008152600401610ca9906113c6565b60405180910390fd5b610cc2610cbd610a29565b610a31565b565b600080fd5b600073ffffffffffffffffffffffffffffffffffffffff82169050919050565b6000610cf482610cc9565b9050919050565b610d0481610ce9565b8114610d0f57600080fd5b50565b600081359050610d2181610cfb565b92915050565b60008060408385031215610d3e57610d3d610cc4565b5b6000610d4c85828601610d12565b9250506020610d5d85828601610d12565b9150509250929050565b6000819050919050565b610d7a81610d67565b8114610d8557600080fd5b50565b600081359050610d9781610d71565b92915050565b600060208284031215610db357610db2610cc4565b5b6000610dc184828501610d88565b91505092915050565b60008060408385031215610de157610de0610cc4565b5b6000610def85828601610d12565b9250506020610e0085828601610d88565b9150509250929050565b600060208284031215610e2057610e1f610cc4565b5b6000610e2e84828501610d12565b91505092915050565b610e4081610ce9565b82525050565b6000602082019050610e5b6000830184610e37565b92915050565b6000610e6c82610ce9565b9050919050565b610e7c81610e61565b8114610e8757600080fd5b50565b600081359050610e9981610e73565b92915050565b600060208284031215610eb557610eb4610cc4565b5b6000610ec384828501610e8a565b91505092915050565b60008060008060808587031215610ee657610ee5610cc4565b5b6000610ef487828801610d12565b9450506020610f0587828801610d88565b9350506040610f1687828801610d12565b9250506060610f2787828801610d88565b91505092959194509250565b600082825260208201905092915050565b7f4f776e61626c653a2063616c6c6572206973206e6f7420746865206f776e6572600082015250565b6000610f7a602083610f33565b9150610f8582610f44565b602082019050919050565b60006020820190508181036000830152610fa981610f6d565b9050919050565b7f5265656e7472616e637947756172643a207265656e7472616e742063616c6c00600082015250565b6000610fe6601f83610f33565b9150610ff182610fb0565b602082019050919050565b6000602082019050818103600083015261101581610fd9565b9050919050565b6000819050919050565b600061104161103c61103784610cc9565b61101c565b610cc9565b9050919050565b600061105382611026565b9050919050565b600061106582611048565b9050919050565b6110758161105a565b82525050565b8082525050565b61108b81610d67565b82525050565b61109a81610ce9565b82525050565b60006080820190506110b5600083018761106c565b6110c2602083018661107b565b6110cf6040830185611082565b6110dc6060830184611091565b95945050505050565b60006060820190506110fa600083018661107b565b6111076020830185611091565b6111146040830184611082565b949350505050565b6000819050919050565b600060ff82169050919050565b600061114e6111496111448461111c565b61101c565b611126565b9050919050565b61115e81611133565b82525050565b60006020820190506111796000830184611155565b92915050565b600060e082019050611194600083018a61106c565b6111a1602083018961107b565b6111ae6040830188611091565b6111bb6060830187611091565b6111c86080830186611082565b6111d560a0830185611091565b6111e260c0830184611082565b98975050505050505050565b6000815190506111fd81610d71565b92915050565b60006020828403121561121957611218610cc4565b5b6000611227848285016111ee565b91505092915050565b7f4f776e61626c653a206e6577206f776e657220697320746865207a65726f206160008201527f6464726573730000000000000000000000000000000000000000000000000000602082015250565b600061128c602683610f33565b915061129782611230565b604082019050919050565b600060208201905081810360008301526112bb8161127f565b9050919050565b7f496e697469616c697a61626c653a20636f6e747261637420697320616c72656160008201527f647920696e697469616c697a6564000000000000000000000000000000000000602082015250565b600061131e602e83610f33565b9150611329826112c2565b604082019050919050565b6000602082019050818103600083015261134d81611311565b9050919050565b7f496e697469616c697a61626c653a20636f6e7472616374206973206e6f74206960008201527f6e697469616c697a696e67000000000000000000000000000000000000000000602082015250565b60006113b0602b83610f33565b91506113bb82611354565b604082019050919050565b600060208201905081810360008301526113df816113a3565b905091905056fea26469706673582212206c7752363d8f5288a6c75456987b50dba1fa65dcf7eefa10b435de94b07015e864736f6c634300080f0033",
  "linkReferences": {
    "contracts/libraries/logic/BorrowLogic.sol": {
      "BorrowLogic": [
        {
          "length": 20,
          "start": 851
        },
        {
          "length": 20,
          "start": 2009
        }
      ]
    },
    "contracts/libraries/logic/LiquidationLogic.sol": {
      "LiquidationLogic": [
        {
          "length": 20,
          "start": 1083
        }
      ]
    },
    "contracts/libraries/logic/SupplyLogic.sol": {
      "SupplyLogic": [
        {
          "length": 20,
          "start": 1315
        },
        {
          "length": 20,
          "start": 2515
        }
      ]
    }
  },
  "deployedLinkReferences": {
    "contracts/libraries/logic/BorrowLogic.sol": {
      "BorrowLogic": [
        {
          "length": 20,
          "start": 819
        },
        {
          "length": 20,
          "start": 1977
        }
      ]
    },
    "contracts/libraries/logic/LiquidationLogic.sol": {
      "LiquidationLogic": [
        {
          "length": 20,
          "start": 1051
        }
      ]
    },
    "contracts/libraries/logic/SupplyLogic.sol": {
      "SupplyLogic": [
        {
          "length": 20,
          "start": 1283
        },
        {
          "length": 20,
          "start": 2483
        }
      ]
    }
  }
}