{
  "_format": "hh-sol-artifact-1",
  "contractName": "Market",
  "sourceName": "contracts/protocol/Market.sol",
  "abi": [
    {
      "anonymous": false,
      "inputs": [
        {
          "indexed": true,
          "internalType": "address",
          "name": "user",
          "type": "address"
        },
        {
          "indexed": true,
          "internalType": "address",
          "name": "asset",
          "type": "address"
        },
        {
          "indexed": true,
          "internalType": "address",
          "name": "nftAddress",
          "type": "address"
        },
        {
          "indexed": false,
          "internalType": "uint256",
          "name": "nftTokenID",
          "type": "uint256"
        },
        {
          "indexed": false,
          "internalType": "uint256",
          "name": "amount",
          "type": "uint256"
        }
      ],
      "name": "Borrow",
      "type": "event"
    },
    {
      "anonymous": false,
      "inputs": [
        {
          "indexed": true,
          "internalType": "address",
          "name": "user",
          "type": "address"
        },
        {
          "indexed": true,
          "internalType": "address",
          "name": "asset",
          "type": "address"
        },
        {
          "indexed": false,
          "internalType": "uint256",
          "name": "amount",
          "type": "uint256"
        }
      ],
      "name": "Deposit",
      "type": "event"
    },
    {
      "anonymous": false,
      "inputs": [
        {
          "indexed": false,
          "internalType": "uint8",
          "name": "version",
          "type": "uint8"
        }
      ],
      "name": "Initialized",
      "type": "event"
    },
    {
      "anonymous": false,
      "inputs": [
        {
          "indexed": true,
          "internalType": "address",
          "name": "user",
          "type": "address"
        },
        {
          "indexed": false,
          "internalType": "uint256",
          "name": "loanId",
          "type": "uint256"
        }
      ],
      "name": "Liquidate",
      "type": "event"
    },
    {
      "anonymous": false,
      "inputs": [
        {
          "indexed": true,
          "internalType": "address",
          "name": "previousOwner",
          "type": "address"
        },
        {
          "indexed": true,
          "internalType": "address",
          "name": "newOwner",
          "type": "address"
        }
      ],
      "name": "OwnershipTransferred",
      "type": "event"
    },
    {
      "anonymous": false,
      "inputs": [
        {
          "indexed": true,
          "internalType": "address",
          "name": "user",
          "type": "address"
        },
        {
          "indexed": false,
          "internalType": "uint256",
          "name": "loanId",
          "type": "uint256"
        }
      ],
      "name": "Repay",
      "type": "event"
    },
    {
      "anonymous": false,
      "inputs": [
        {
          "indexed": true,
          "internalType": "address",
          "name": "user",
          "type": "address"
        },
        {
          "indexed": true,
          "internalType": "address",
          "name": "asset",
          "type": "address"
        },
        {
          "indexed": false,
          "internalType": "uint256",
          "name": "amount",
          "type": "uint256"
        }
      ],
      "name": "Withdraw",
      "type": "event"
    },
    {
      "inputs": [
        {
          "internalType": "address",
          "name": "asset",
          "type": "address"
        },
        {
          "internalType": "address",
          "name": "reserveAddress",
          "type": "address"
        }
      ],
      "name": "addReserve",
      "outputs": [],
      "stateMutability": "nonpayable",
      "type": "function"
    },
    {
      "inputs": [
        {
          "internalType": "address",
          "name": "asset",
          "type": "address"
        },
        {
          "internalType": "uint256",
          "name": "amount",
          "type": "uint256"
        },
        {
          "internalType": "address",
          "name": "nftAddress",
          "type": "address"
        },
        {
          "internalType": "uint256",
          "name": "nftTokenId",
          "type": "uint256"
        },
        {
          "internalType": "uint256",
          "name": "genesisNFTId",
          "type": "uint256"
        },
        {
          "internalType": "bytes32",
          "name": "request",
          "type": "bytes32"
        },
        {
          "components": [
            {
              "internalType": "uint8",
              "name": "v",
              "type": "uint8"
            },
            {
              "internalType": "bytes32",
              "name": "r",
              "type": "bytes32"
            },
            {
              "internalType": "bytes32",
              "name": "s",
              "type": "bytes32"
            },
            {
              "internalType": "bytes32",
              "name": "request",
              "type": "bytes32"
            },
            {
              "internalType": "uint256",
              "name": "deadline",
              "type": "uint256"
            },
            {
              "internalType": "bytes",
              "name": "payload",
              "type": "bytes"
            }
          ],
          "internalType": "struct Trustus.TrustusPacket",
          "name": "packet",
          "type": "tuple"
        }
      ],
      "name": "borrow",
      "outputs": [],
      "stateMutability": "nonpayable",
      "type": "function"
    },
    {
      "inputs": [
        {
          "internalType": "uint256",
          "name": "amount",
          "type": "uint256"
        },
        {
          "internalType": "address",
          "name": "nftAddress",
          "type": "address"
        },
        {
          "internalType": "uint256",
          "name": "nftTokenId",
          "type": "uint256"
        },
        {
          "internalType": "uint256",
          "name": "genesisNFTId",
          "type": "uint256"
        },
        {
          "internalType": "bytes32",
          "name": "request",
          "type": "bytes32"
        },
        {
          "components": [
            {
              "internalType": "uint8",
              "name": "v",
              "type": "uint8"
            },
            {
              "internalType": "bytes32",
              "name": "r",
              "type": "bytes32"
            },
            {
              "internalType": "bytes32",
              "name": "s",
              "type": "bytes32"
            },
            {
              "internalType": "bytes32",
              "name": "request",
              "type": "bytes32"
            },
            {
              "internalType": "uint256",
              "name": "deadline",
              "type": "uint256"
            },
            {
              "internalType": "bytes",
              "name": "payload",
              "type": "bytes"
            }
          ],
          "internalType": "struct Trustus.TrustusPacket",
          "name": "packet",
          "type": "tuple"
        }
      ],
      "name": "borrowETH",
      "outputs": [],
      "stateMutability": "nonpayable",
      "type": "function"
    },
    {
      "inputs": [
        {
          "internalType": "address",
          "name": "asset",
          "type": "address"
        },
        {
          "internalType": "uint256",
          "name": "amount",
          "type": "uint256"
        }
      ],
      "name": "deposit",
      "outputs": [],
      "stateMutability": "nonpayable",
      "type": "function"
    },
    {
      "inputs": [],
      "name": "depositETH",
      "outputs": [],
      "stateMutability": "payable",
      "type": "function"
    },
    {
      "inputs": [
        {
          "internalType": "address",
          "name": "asset",
          "type": "address"
        }
      ],
      "name": "getReserveAddress",
      "outputs": [
        {
          "internalType": "address",
          "name": "",
          "type": "address"
        }
      ],
      "stateMutability": "view",
      "type": "function"
    },
    {
      "inputs": [
        {
          "internalType": "contract IAddressesProvider",
          "name": "addressesProvider",
          "type": "address"
        }
      ],
      "name": "initialize",
      "outputs": [],
      "stateMutability": "nonpayable",
      "type": "function"
    },
    {
      "inputs": [
        {
          "internalType": "address",
          "name": "asset",
          "type": "address"
        }
      ],
      "name": "isAssetSupported",
      "outputs": [
        {
          "internalType": "bool",
          "name": "",
          "type": "bool"
        }
      ],
      "stateMutability": "view",
      "type": "function"
    },
    {
      "inputs": [
        {
          "internalType": "uint256",
          "name": "loanId",
          "type": "uint256"
        },
        {
          "internalType": "bytes32",
          "name": "request",
          "type": "bytes32"
        },
        {
          "components": [
            {
              "internalType": "uint8",
              "name": "v",
              "type": "uint8"
            },
            {
              "internalType": "bytes32",
              "name": "r",
              "type": "bytes32"
            },
            {
              "internalType": "bytes32",
              "name": "s",
              "type": "bytes32"
            },
            {
              "internalType": "bytes32",
              "name": "request",
              "type": "bytes32"
            },
            {
              "internalType": "uint256",
              "name": "deadline",
              "type": "uint256"
            },
            {
              "internalType": "bytes",
              "name": "payload",
              "type": "bytes"
            }
          ],
          "internalType": "struct Trustus.TrustusPacket",
          "name": "packet",
          "type": "tuple"
        }
      ],
      "name": "liquidate",
      "outputs": [],
      "stateMutability": "nonpayable",
      "type": "function"
    },
    {
      "inputs": [],
      "name": "owner",
      "outputs": [
        {
          "internalType": "address",
          "name": "",
          "type": "address"
        }
      ],
      "stateMutability": "view",
      "type": "function"
    },
    {
      "inputs": [],
      "name": "renounceOwnership",
      "outputs": [],
      "stateMutability": "nonpayable",
      "type": "function"
    },
    {
      "inputs": [
        {
          "internalType": "uint256",
          "name": "loanId",
          "type": "uint256"
        }
      ],
      "name": "repay",
      "outputs": [],
      "stateMutability": "nonpayable",
      "type": "function"
    },
    {
      "inputs": [
        {
          "internalType": "uint256",
          "name": "loanId",
          "type": "uint256"
        }
      ],
      "name": "repayETH",
      "outputs": [],
      "stateMutability": "payable",
      "type": "function"
    },
    {
      "inputs": [
        {
          "internalType": "address",
          "name": "newOwner",
          "type": "address"
        }
      ],
      "name": "transferOwnership",
      "outputs": [],
      "stateMutability": "nonpayable",
      "type": "function"
    },
    {
      "inputs": [
        {
          "internalType": "address",
          "name": "asset",
          "type": "address"
        },
        {
          "internalType": "uint256",
          "name": "amount",
          "type": "uint256"
        }
      ],
      "name": "withdraw",
      "outputs": [],
      "stateMutability": "nonpayable",
      "type": "function"
    },
    {
      "inputs": [
        {
          "internalType": "uint256",
          "name": "amount",
          "type": "uint256"
        }
      ],
      "name": "withdrawETH",
      "outputs": [],
      "stateMutability": "nonpayable",
      "type": "function"
    }
  ],
  "bytecode": "0x60808060405234610016576112a1908161001c8239f35b600080fdfe6040608081526004908136101561001557600080fd5b600091823560e01c806204c4fd14610dc85780630586abad14610cc05780631973262114610bfa5780632247463e14610adb578063371fd8e6146109fa578063464b4158146109bd57806347e7ef24146108e957806351e8b7fb146108ae578063715018a61461084d5780638da5cb5b14610824578063b1cd7fab146106e0578063c4d66de814610583578063f14210a6146103e9578063f2fde38b14610358578063f3fef3a31461024a5763f6326fb3146100d057600080fd5b826003193601126101ec576100ea600260655414156110cb565b60026065556098548251636572f88f60e11b815284916001600160a01b03919060209082908690829086165afa90811561021257839161021c575b501691823b1561020e578351630d0e30db60e41b81528281838134885af19081156102125783916101fa575b505073__$2f7c76ee15bdc1d8f3b34a04b86951fc56$__90813b156101ec576097606484928751948593849263dc3103e760e01b84528301528760248301523460448301525af480156101f0576101d8575b505081513481527f5548c837ab068cf56a2c2479df0882a4922fd203edb7517321831d95078c5f6260203392a3600160655551f35b6101e190611117565b6101ec5782386101a3565b8280fd5b84513d84823e3d90fd5b61020390611117565b61020e578138610151565b5080fd5b85513d85823e3d90fd5b61023d915060203d8111610243575b6102358183611141565b810190611163565b38610125565b503d61022b565b50346101ec57816003193601126101ec57610263610fad565b9060243591610277600260655414156110cb565b60026065556098546001600160a01b0392869173__$2f7c76ee15bdc1d8f3b34a04b86951fc56$__9190851690823b1561035457875163fc414f7b60e01b81526001600160a01b0392831691810191825260976020830152918516604082015260608101879052909183918391908290819060800103915af4801561034a57610332575b5050835192835216907f9b1bfa7fa9ee420a16e124f794c35ac9f90472acc99140eb2f6447c714cad8eb60203392a3600160655551f35b61033b90611117565b6103465784386102fb565b8480fd5b86513d84823e3d90fd5b8380fd5b50346101ec5760203660031901126101ec57610372610fad565b9061037b610fc3565b6001600160a01b0382161561039757506103949061101b565b51f35b608490602084519162461bcd60e51b8352820152602660248201527f4f776e61626c653a206e6577206f776e657220697320746865207a65726f206160448201526564647265737360d01b6064820152fd5b50346101ec5760203660031901126101ec57803561040c600260655414156110cb565b60026065556098548351636572f88f60e11b81529285916001600160a01b03908116906020868481855afa958615610579578496610559575b5085169473__$2f7c76ee15bdc1d8f3b34a04b86951fc56$__91823b1561034657875163fc414f7b60e01b81526001600160a01b0391821685820190815260976020820152929091166040830152606082018690529184918391908290819060800103915af490811561054f57839161053b575b5050833b1561020e578451632e1a7d4d60e01b8152908101839052818160248183885af180156105315761051d575b505082519081527f9b1bfa7fa9ee420a16e124f794c35ac9f90472acc99140eb2f6447c714cad8eb60203392a3600160655551f35b61052690611117565b6103545783386104e8565b85513d84823e3d90fd5b61054490611117565b61020e5781386104b9565b86513d85823e3d90fd5b61057291965060203d8111610243576102358183611141565b9438610445565b87513d86823e3d90fd5b50346101ec5760203660031901126101ec5780356001600160a01b0381169081900361035457835460ff8160081c1615928380946106d3575b80156106bc575b15610662575060ff198116600117855582610651575b506105f360ff855460081c166105ee8161106b565b61106b565b6105fc3361101b565b6bffffffffffffffffffffffff60a01b609854161760985561061b5751f35b61ff001982541682557f7f26b83ff96e1f2b6a682f133852f6798a09c465da95921460cefb38474024986020825160018152a151f35b61ffff1916610101178455386105d9565b608490602086519162461bcd60e51b8352820152602e60248201527f496e697469616c697a61626c653a20636f6e747261637420697320616c72656160448201526d191e481a5b9a5d1a585b1a5e995960921b6064820152fd5b50303b1580156105c35750600160ff8316146105c3565b50600160ff8316106105bc565b50346101ec576003199060e036830112610354576106fc610fad565b6001600160a01b0360443581811694909391929160243591868603610806576064359560c4359167ffffffffffffffff83116108205760c090833603011261081c576020916107848892610755600260655414156110cb565b600260655588609854168c51968795869563c1ed9c2b60e01b87528201938a8c60a43595608435958a01611216565b038173__$77c5a84c43428e206d5bf08427df63fefa$__5af48015610812576107e2575b508551938452602084015216907f96558a334f4759f0e7c423d68c84721860bd8fbf94ddc4e55158ecb125ad04b5843392a4600160655551f35b602090813d811161080b575b6107f88183611141565b8101031261080657386107a8565b600080fd5b503d6107ee565b87513d8a823e3d90fd5b8980fd5b8a80fd5b50503461020e578160031936011261020e5760335490516001600160a01b039091168152602090f35b50503461020e578160031936011261020e57610867610fc3565b603380546001600160a01b031981169091559051906000906001600160a01b03167f8be0079c531659141344cd1fd0a4f28419497f9722a3daafe3b4186f6b6457e08284a3f35b50503461020e57602036600319011261020e576020916001600160a01b03908290826108d8610fad565b168152609785522054169051908152f35b50346101ec57816003193601126101ec57610902610fad565b8360243591610916600260655414156110cb565b600260655573__$2f7c76ee15bdc1d8f3b34a04b86951fc56$__93843b156101ec576097606484928851948593849263dc3103e760e01b845283015260018060a01b0316978860248301528760448301525af48015610531576109a9575b505082519081527f5548c837ab068cf56a2c2479df0882a4922fd203edb7517321831d95078c5f6260203392a3600160655551f35b6109b290611117565b610354578338610974565b50503461020e57602036600319011261020e576020916001600160a01b03908290826109e7610fad565b1681526097855220541615159051908152f35b50346101ec5760203660031901126101ec5782813591610a1f600260655414156110cb565b600260655560985473__$77c5a84c43428e206d5bf08427df63fefa$__916001600160a01b0390911690823b156103545785516376aca94160e01b81526001600160a01b039092169082019081526020810185905290918391839190829081906040015b03915af480156101f057610ac7575b505081519081527f5c16de4f8b59bd9caf0f49a545f25819a895ed223294290b408242e72a59423160203392a2600160655551f35b610ad090611117565b6101ec578238610a92565b5060203660031901126101ec5782813591610afb600260655414156110cb565b60026065556098548451636572f88f60e11b81526001600160a01b03929160209082908490829087165afa8015610bd25783918591610bdc575b5016803b1561035457838291875192838092630d0e30db60e41b825234905af1908115610bd2578491610bbe575b505073__$77c5a84c43428e206d5bf08427df63fefa$__916098541690823b156103545785516376aca94160e01b81526001600160a01b03909216908201908152602081018590529091839183919082908190604001610a83565b610bc790611117565b6101ec578238610b63565b86513d86823e3d90fd5b610bf4915060203d8111610243576102358183611141565b38610b35565b50346101ec57816003193601126101ec57610c13610fad565b610c1b610f97565b610c23610fc3565b835163095ea7b360e01b81526001600160a01b03918216938101849052600019602482015291169060208160448188865af18015610cb657610c7f575b508352609760205281832080546001600160a01b031916909117905551f35b6020813d8211610cae575b81610c9760209383611141565b810103126103465751801515036103545738610c60565b3d9150610c8a565b84513d87823e3d90fd5b50346101ec578260031960603682011261020e578235926044359167ffffffffffffffff83116103545760c09083360301126101ec57610d05600260655414156110cb565b60026065556098546001600160a01b03169073__$965b9be9fc5ba89821c2195a8bf360e455$__803b1561034657610d7093859388519586948593849363aa9d40e160e01b8552828501528a6024850152602435604485015260806064850152608484019101611182565b03915af480156101f057610db4575b505081519081527f08813a3631e12129135cc9440d3fea50eec346f1673b20b994b0456d5d46ccb960203392a2600160655551f35b610dbd90611117565b6101ec578238610d7f565b50346101ec5760031960c03682011261035457813591610de6610f97565b6044359360a4359367ffffffffffffffff8511610f935760c0908536030112610f8f57610e18600260655414156110cb565b60026065556098548651636572f88f60e11b81526001600160a01b039460209290919086169083818481855afa918215610f855784918c93610f66575b5087831698610e848b8d51958694859463c1ed9c2b60e01b86528901928c8c60843594606435948d8a01611216565b038173__$77c5a84c43428e206d5bf08427df63fefa$__5af4908115610f5c578391610f33575b5050853b15610f2f578751632e1a7d4d60e01b81529081018390528881602481838a5af18015610f2557610f12575b50865195865285015216917f96558a334f4759f0e7c423d68c84721860bd8fbf94ddc4e55158ecb125ad04b5843392a4600160655551f35b610f1e90989198611117565b9638610eda565b88513d8b823e3d90fd5b8880fd5b813d8311610f55575b610f468183611141565b81010312610f2f578138610eab565b503d610f3c565b89513d8c823e3d90fd5b610f7e919350823d8411610243576102358183611141565b9138610e55565b8a513d8d823e3d90fd5b8680fd5b8780fd5b602435906001600160a01b038216820361080657565b600435906001600160a01b038216820361080657565b6033546001600160a01b03163303610fd757565b606460405162461bcd60e51b815260206004820152602060248201527f4f776e61626c653a2063616c6c6572206973206e6f7420746865206f776e65726044820152fd5b6033549060018060a01b0380911691826bffffffffffffffffffffffff60a01b821617603355167f8be0079c531659141344cd1fd0a4f28419497f9722a3daafe3b4186f6b6457e06000604051a3565b1561107257565b60405162461bcd60e51b815260206004820152602b60248201527f496e697469616c697a61626c653a20636f6e7472616374206973206e6f74206960448201526a6e697469616c697a696e6760a81b6064820152608490fd5b156110d257565b60405162461bcd60e51b815260206004820152601f60248201527f5265656e7472616e637947756172643a207265656e7472616e742063616c6c006044820152606490fd5b67ffffffffffffffff811161112b57604052565b634e487b7160e01b600052604160045260246000fd5b90601f8019910116810190811067ffffffffffffffff82111761112b57604052565b9081602091031261080657516001600160a01b03811681036108065790565b803560ff81168091036108065782526020810135602083015260408101356040830152606081013560608301526080810135608083015260a0810135601e19823603018112156108065701906020823592019167ffffffffffffffff8111610806578036038313610806578060e09360c060a08501528160c0850152848401376000828201840152601f01601f1916010190565b959390926112689897959360018060a01b0393848092168952609760208a0152166040880152606087015216608085015260a084015260c083015260e082015261012090816101008201520190611182565b9056fea264697066735822122077e0e774fa9dbdb560b1d360567687d7763c99d07bec44040dade4e93a43926e64736f6c634300080f0033",
  "linkReferences": {
    "contracts/libraries/logic/BorrowLogic.sol": {
      "BorrowLogic": [
        {
          "length": 20,
          "start": 1956
        },
        {
          "length": 20,
          "start": 2629
        },
        {
          "length": 20,
          "start": 2947
        },
        {
          "length": 20,
          "start": 3748
        }
      ]
    },
    "contracts/libraries/logic/LiquidationLogic.sol": {
      "LiquidationLogic": [
        {
          "length": 20,
          "start": 3381
        }
      ]
    },
    "contracts/libraries/logic/SupplyLogic.sol": {
      "SupplyLogic": [
        {
          "length": 20,
          "start": 369
        },
        {
          "length": 20,
          "start": 680
        },
        {
          "length": 20,
          "start": 1127
        },
        {
          "length": 20,
          "start": 2361
        }
      ]
    }
  },
  "deployedLinkReferences": {
    "contracts/libraries/logic/BorrowLogic.sol": {
      "BorrowLogic": [
        {
          "length": 20,
          "start": 1928
        },
        {
          "length": 20,
          "start": 2601
        },
        {
          "length": 20,
          "start": 2919
        },
        {
          "length": 20,
          "start": 3720
        }
      ]
    },
    "contracts/libraries/logic/LiquidationLogic.sol": {
      "LiquidationLogic": [
        {
          "length": 20,
          "start": 3353
        }
      ]
    },
    "contracts/libraries/logic/SupplyLogic.sol": {
      "SupplyLogic": [
        {
          "length": 20,
          "start": 341
        },
        {
          "length": 20,
          "start": 652
        },
        {
          "length": 20,
          "start": 1099
        },
        {
          "length": 20,
          "start": 2333
        }
      ]
    }
  }
}