{
  "_format": "hh-sol-artifact-1",
  "contractName": "Market",
  "sourceName": "contracts/protocol/Market.sol",
  "abi": [
    {
      "anonymous": false,
      "inputs": [
        {
          "indexed": true,
          "internalType": "address",
          "name": "user",
          "type": "address"
        },
        {
          "indexed": true,
          "internalType": "address",
          "name": "asset",
          "type": "address"
        },
        {
          "indexed": true,
          "internalType": "address",
          "name": "nftAddress",
          "type": "address"
        },
        {
          "indexed": false,
          "internalType": "uint256",
          "name": "nftTokenID",
          "type": "uint256"
        },
        {
          "indexed": false,
          "internalType": "uint256",
          "name": "amount",
          "type": "uint256"
        }
      ],
      "name": "Borrow",
      "type": "event"
    },
    {
      "anonymous": false,
      "inputs": [
        {
          "indexed": true,
          "internalType": "address",
          "name": "user",
          "type": "address"
        },
        {
          "indexed": true,
          "internalType": "address",
          "name": "asset",
          "type": "address"
        },
        {
          "indexed": false,
          "internalType": "uint256",
          "name": "amount",
          "type": "uint256"
        }
      ],
      "name": "Deposit",
      "type": "event"
    },
    {
      "anonymous": false,
      "inputs": [
        {
          "indexed": false,
          "internalType": "uint8",
          "name": "version",
          "type": "uint8"
        }
      ],
      "name": "Initialized",
      "type": "event"
    },
    {
      "anonymous": false,
      "inputs": [
        {
          "indexed": true,
          "internalType": "address",
          "name": "user",
          "type": "address"
        },
        {
          "indexed": false,
          "internalType": "uint256",
          "name": "loanId",
          "type": "uint256"
        }
      ],
      "name": "Liquidate",
      "type": "event"
    },
    {
      "anonymous": false,
      "inputs": [
        {
          "indexed": true,
          "internalType": "address",
          "name": "previousOwner",
          "type": "address"
        },
        {
          "indexed": true,
          "internalType": "address",
          "name": "newOwner",
          "type": "address"
        }
      ],
      "name": "OwnershipTransferred",
      "type": "event"
    },
    {
      "anonymous": false,
      "inputs": [
        {
          "indexed": true,
          "internalType": "address",
          "name": "user",
          "type": "address"
        },
        {
          "indexed": false,
          "internalType": "uint256",
          "name": "loanId",
          "type": "uint256"
        }
      ],
      "name": "Repay",
      "type": "event"
    },
    {
      "anonymous": false,
      "inputs": [
        {
          "indexed": true,
          "internalType": "address",
          "name": "user",
          "type": "address"
        },
        {
          "indexed": true,
          "internalType": "address",
          "name": "asset",
          "type": "address"
        },
        {
          "indexed": false,
          "internalType": "uint256",
          "name": "amount",
          "type": "uint256"
        }
      ],
      "name": "Withdraw",
      "type": "event"
    },
    {
      "inputs": [
        {
          "internalType": "address",
          "name": "asset",
          "type": "address"
        },
        {
          "internalType": "address",
          "name": "reserveAddress",
          "type": "address"
        }
      ],
      "name": "addReserve",
      "outputs": [],
      "stateMutability": "nonpayable",
      "type": "function"
    },
    {
      "inputs": [
        {
          "internalType": "address",
          "name": "asset",
          "type": "address"
        },
        {
          "internalType": "uint256",
          "name": "amount",
          "type": "uint256"
        },
        {
          "internalType": "address",
          "name": "nftAddress",
          "type": "address"
        },
        {
          "internalType": "uint256",
          "name": "nftTokenId",
          "type": "uint256"
        },
        {
          "internalType": "uint256",
          "name": "genesisNFTId",
          "type": "uint256"
        },
        {
          "internalType": "bytes32",
          "name": "request",
          "type": "bytes32"
        },
        {
          "components": [
            {
              "internalType": "uint8",
              "name": "v",
              "type": "uint8"
            },
            {
              "internalType": "bytes32",
              "name": "r",
              "type": "bytes32"
            },
            {
              "internalType": "bytes32",
              "name": "s",
              "type": "bytes32"
            },
            {
              "internalType": "bytes32",
              "name": "request",
              "type": "bytes32"
            },
            {
              "internalType": "uint256",
              "name": "deadline",
              "type": "uint256"
            },
            {
              "internalType": "bytes",
              "name": "payload",
              "type": "bytes"
            }
          ],
          "internalType": "struct Trustus.TrustusPacket",
          "name": "packet",
          "type": "tuple"
        }
      ],
      "name": "borrow",
      "outputs": [],
      "stateMutability": "nonpayable",
      "type": "function"
    },
    {
      "inputs": [
        {
          "internalType": "uint256",
          "name": "amount",
          "type": "uint256"
        },
        {
          "internalType": "address",
          "name": "nftAddress",
          "type": "address"
        },
        {
          "internalType": "uint256",
          "name": "nftTokenId",
          "type": "uint256"
        },
        {
          "internalType": "uint256",
          "name": "genesisNFTId",
          "type": "uint256"
        },
        {
          "internalType": "bytes32",
          "name": "request",
          "type": "bytes32"
        },
        {
          "components": [
            {
              "internalType": "uint8",
              "name": "v",
              "type": "uint8"
            },
            {
              "internalType": "bytes32",
              "name": "r",
              "type": "bytes32"
            },
            {
              "internalType": "bytes32",
              "name": "s",
              "type": "bytes32"
            },
            {
              "internalType": "bytes32",
              "name": "request",
              "type": "bytes32"
            },
            {
              "internalType": "uint256",
              "name": "deadline",
              "type": "uint256"
            },
            {
              "internalType": "bytes",
              "name": "payload",
              "type": "bytes"
            }
          ],
          "internalType": "struct Trustus.TrustusPacket",
          "name": "packet",
          "type": "tuple"
        }
      ],
      "name": "borrowETH",
      "outputs": [],
      "stateMutability": "nonpayable",
      "type": "function"
    },
    {
      "inputs": [
        {
          "internalType": "address",
          "name": "asset",
          "type": "address"
        },
        {
          "internalType": "uint256",
          "name": "amount",
          "type": "uint256"
        }
      ],
      "name": "deposit",
      "outputs": [],
      "stateMutability": "nonpayable",
      "type": "function"
    },
    {
      "inputs": [],
      "name": "depositETH",
      "outputs": [],
      "stateMutability": "payable",
      "type": "function"
    },
    {
      "inputs": [
        {
          "internalType": "address",
          "name": "asset",
          "type": "address"
        }
      ],
      "name": "getReserveAddress",
      "outputs": [
        {
          "internalType": "address",
          "name": "",
          "type": "address"
        }
      ],
      "stateMutability": "view",
      "type": "function"
    },
    {
      "inputs": [
        {
          "internalType": "contract IAddressesProvider",
          "name": "addressesProvider",
          "type": "address"
        }
      ],
      "name": "initialize",
      "outputs": [],
      "stateMutability": "nonpayable",
      "type": "function"
    },
    {
      "inputs": [
        {
          "internalType": "address",
          "name": "asset",
          "type": "address"
        }
      ],
      "name": "isAssetSupported",
      "outputs": [
        {
          "internalType": "bool",
          "name": "",
          "type": "bool"
        }
      ],
      "stateMutability": "view",
      "type": "function"
    },
    {
      "inputs": [
        {
          "internalType": "uint256",
          "name": "loanId",
          "type": "uint256"
        },
        {
          "internalType": "bytes32",
          "name": "request",
          "type": "bytes32"
        },
        {
          "components": [
            {
              "internalType": "uint8",
              "name": "v",
              "type": "uint8"
            },
            {
              "internalType": "bytes32",
              "name": "r",
              "type": "bytes32"
            },
            {
              "internalType": "bytes32",
              "name": "s",
              "type": "bytes32"
            },
            {
              "internalType": "bytes32",
              "name": "request",
              "type": "bytes32"
            },
            {
              "internalType": "uint256",
              "name": "deadline",
              "type": "uint256"
            },
            {
              "internalType": "bytes",
              "name": "payload",
              "type": "bytes"
            }
          ],
          "internalType": "struct Trustus.TrustusPacket",
          "name": "packet",
          "type": "tuple"
        }
      ],
      "name": "liquidate",
      "outputs": [],
      "stateMutability": "nonpayable",
      "type": "function"
    },
    {
      "inputs": [],
      "name": "owner",
      "outputs": [
        {
          "internalType": "address",
          "name": "",
          "type": "address"
        }
      ],
      "stateMutability": "view",
      "type": "function"
    },
    {
      "inputs": [],
      "name": "renounceOwnership",
      "outputs": [],
      "stateMutability": "nonpayable",
      "type": "function"
    },
    {
      "inputs": [
        {
          "internalType": "uint256",
          "name": "loanId",
          "type": "uint256"
        },
        {
          "internalType": "uint256",
          "name": "amount",
          "type": "uint256"
        }
      ],
      "name": "repay",
      "outputs": [],
      "stateMutability": "nonpayable",
      "type": "function"
    },
    {
      "inputs": [
        {
          "internalType": "uint256",
          "name": "loanId",
          "type": "uint256"
        }
      ],
      "name": "repayETH",
      "outputs": [],
      "stateMutability": "payable",
      "type": "function"
    },
    {
      "inputs": [
        {
          "internalType": "address",
          "name": "newOwner",
          "type": "address"
        }
      ],
      "name": "transferOwnership",
      "outputs": [],
      "stateMutability": "nonpayable",
      "type": "function"
    },
    {
      "inputs": [
        {
          "internalType": "address",
          "name": "asset",
          "type": "address"
        },
        {
          "internalType": "uint256",
          "name": "amount",
          "type": "uint256"
        }
      ],
      "name": "withdraw",
      "outputs": [],
      "stateMutability": "nonpayable",
      "type": "function"
    },
    {
      "inputs": [
        {
          "internalType": "uint256",
          "name": "amount",
          "type": "uint256"
        }
      ],
      "name": "withdrawETH",
      "outputs": [],
      "stateMutability": "nonpayable",
      "type": "function"
    },
    {
      "stateMutability": "payable",
      "type": "receive"
    }
  ],
  "bytecode": "0x6080806040523461001657611479908161001c8239f35b600080fdfe60406080815260049081361015610020575b5050361561001e57600080fd5b005b600091823560e01c806204c4fd14610ee55780630586abad14610ddd5780631973262114610d305780632247463e14610b67578063464b415814610b2a57806347e7ef2414610a5657806351e8b7fb14610a1b578063715018a6146109ba5780638da5cb5b14610991578063b1cd7fab1461084a578063c4d66de8146106ed578063d8aed145146105fc578063f14210a614610458578063f2fde38b146103c7578063f3fef3a3146102ba5763f6326fb3146100dc5750610011565b8260031936011261023a576100f6600260655414156111fe565b60026065556098548251636572f88f60e11b815260209185916001600160a01b0391849082908790829086165afa90811561026b57839161028d575b501692833b15610289578451630d0e30db60e41b81528281838134895af190811561026b578391610275575b5050845163a9059cbb60e01b815233828201908152346020820152849082908190604001038186895af1801561026b5761023e575b5073__$2f7c76ee15bdc1d8f3b34a04b86951fc56$__90813b1561023a576097606484928851948593849263dc3103e760e01b84528301528860248301523460448301525af4801561023057610218575b50507f5548c837ab068cf56a2c2479df0882a4922fd203edb7517321831d95078c5f628351913483523392a3600160655551f35b6102219061124a565b61022c5783386101e4565b8380fd5b85513d84823e3d90fd5b8280fd5b61025d90843d8611610264575b6102558183611274565b8101906112b5565b5038610193565b503d61024b565b86513d85823e3d90fd5b61027e9061124a565b61028957813861015e565b5080fd5b6102ad9150843d86116102b3575b6102a58183611274565b810190611296565b38610132565b503d61029b565b503461023a578160031936011261023a576102d36110e0565b90602435916102e7600260655414156111fe565b60026065556098546001600160a01b0392869173__$2f7c76ee15bdc1d8f3b34a04b86951fc56$__91908516823b1561022c578751629458a160e61b81526001600160a01b03918216928101928352609760208401523360408401529085166060830152608082018790529183918391908290819060a00103915af480156103bd576103a5575b5050835192835216907f9b1bfa7fa9ee420a16e124f794c35ac9f90472acc99140eb2f6447c714cad8eb60203392a3600160655551f35b6103ae9061124a565b6103b957843861036e565b8480fd5b86513d84823e3d90fd5b503461023a57602036600319011261023a576103e16110e0565b906103ea6110f6565b6001600160a01b0382161561040657506104039061114e565b51f35b608490602084519162461bcd60e51b8352820152602660248201527f4f776e61626c653a206e6577206f776e657220697320746865207a65726f206160448201526564647265737360d01b6064820152fd5b503461023a57602036600319011261023a57803561047b600260655414156111fe565b60026065556098548351636572f88f60e11b81529285916001600160a01b03908116906020868481855afa9586156105f25784966105d2575b5085169473__$2f7c76ee15bdc1d8f3b34a04b86951fc56$__91823b156103b9578751629458a160e61b81526001600160a01b0391821685820190815260976020820152306040820152929091166060830152608082018690529184918391908290819060a00103915af490811561026b5783916105be575b5050833b15610289578451632e1a7d4d60e01b8152908101839052818160248183885af18015610230576105aa575b50808061057792865185335af16105716112cd565b5061130d565b82519081527f9b1bfa7fa9ee420a16e124f794c35ac9f90472acc99140eb2f6447c714cad8eb60203392a3600160655551f35b6105b39061124a565b61022c57833861055c565b6105c79061124a565b61028957813861052d565b6105eb91965060203d81116102b3576102a58183611274565b94386104b4565b87513d86823e3d90fd5b503461023a578160031936011261023a5782813591610620600260655414156111fe565b600260655560985473__$77c5a84c43428e206d5bf08427df63fefa$__916001600160a01b0390911690823b1561022c57855163b823c5b160e01b81526001600160a01b03909216908201908152602081018590526024356040820152909183918391908290819060600103915af480156106e3576106cf575b505081519081527f5c16de4f8b59bd9caf0f49a545f25819a895ed223294290b408242e72a59423160203392a2600160655551f35b6106d89061124a565b61023a57823861069a565b84513d84823e3d90fd5b503461023a57602036600319011261023a5780356001600160a01b0381169081900361022c57835460ff8160081c16159283809461083d575b8015610826575b156107cc575060ff1981166001178555826107bb575b5061075d60ff855460081c166107588161119e565b61119e565b6107663361114e565b6bffffffffffffffffffffffff60a01b60985416176098556107855751f35b61ff001982541682557f7f26b83ff96e1f2b6a682f133852f6798a09c465da95921460cefb38474024986020825160018152a151f35b61ffff191661010117845538610743565b608490602086519162461bcd60e51b8352820152602e60248201527f496e697469616c697a61626c653a20636f6e747261637420697320616c72656160448201526d191e481a5b9a5d1a585b1a5e995960921b6064820152fd5b50303b15801561072d5750600160ff83161461072d565b50600160ff831610610726565b503461023a576003199060e03683011261022c576108666110e0565b6001600160a01b0360443581811694909391929160243591868603610973576064359560c4359167ffffffffffffffff831161098d5760c0908336030112610989576020916108f188926108bf600260655414156111fe565b60026065558860985416958c519687958695633f11f84b60e21b87528301938a8c60a435956084359533918b016113e4565b038173__$77c5a84c43428e206d5bf08427df63fefa$__5af4801561097f5761094f575b508551938452602084015216907f96558a334f4759f0e7c423d68c84721860bd8fbf94ddc4e55158ecb125ad04b5843392a4600160655551f35b602090813d8111610978575b6109658183611274565b810103126109735738610915565b600080fd5b503d61095b565b87513d8a823e3d90fd5b8980fd5b8a80fd5b50503461028957816003193601126102895760335490516001600160a01b039091168152602090f35b5050346102895781600319360112610289576109d46110f6565b603380546001600160a01b031981169091559051906000906001600160a01b03167f8be0079c531659141344cd1fd0a4f28419497f9722a3daafe3b4186f6b6457e08284a3f35b505034610289576020366003190112610289576020916001600160a01b0390829082610a456110e0565b168152609785522054169051908152f35b503461023a578160031936011261023a57610a6f6110e0565b8360243591610a83600260655414156111fe565b600260655573__$2f7c76ee15bdc1d8f3b34a04b86951fc56$__93843b1561023a576097606484928851948593849263dc3103e760e01b845283015260018060a01b0316978860248301528760448301525af4801561023057610b16575b505082519081527f5548c837ab068cf56a2c2479df0882a4922fd203edb7517321831d95078c5f6260203392a3600160655551f35b610b1f9061124a565b61022c578338610ae1565b505034610289576020366003190112610289576020916001600160a01b0390829082610b546110e0565b1681526097855220541615159051908152f35b5060208060031936011261022c5783823592610b88600260655414156111fe565b60026065556098548551636572f88f60e11b81526001600160a01b039291859082908490829087165afa80156105f25783918591610d13575b5016803b1561022c578651630d0e30db60e41b81528481848134865af1908115610d09578591610cf5575b5050865163a9059cbb60e01b8152338382019081523460208201529091869183919082908890829060400103925af180156105f257610cd8575b5073__$77c5a84c43428e206d5bf08427df63fefa$__916098541690823b1561022c57865163b823c5b160e01b81526001600160a01b0390921690820190815260208101869052346040820152909183918391908290819060600103915af4801561023057610cc4575b50507f5c16de4f8b59bd9caf0f49a545f25819a895ed223294290b408242e72a5942319083519283523392a2600160655551f35b610ccd9061124a565b61022c578338610c90565b610cee90853d8711610264576102558183611274565b5038610c26565b610cfe9061124a565b61022c578338610bec565b88513d87823e3d90fd5b610d2a9150863d88116102b3576102a58183611274565b38610bc1565b503461023a578160031936011261023a57610d496110e0565b610d516110ca565b610d596110f6565b835163095ea7b360e01b81526001600160a01b03918216938101849052600019602482015291169060208160448188865af18015610dd357610db5575b508352609760205281832080546001600160a01b031916909117905551f35b610dcc9060203d8111610264576102558183611274565b5038610d96565b84513d87823e3d90fd5b503461023a5782600319606036820112610289578235926044359167ffffffffffffffff831161022c5760c090833603011261023a57610e22600260655414156111fe565b60026065556098546001600160a01b03169073__$965b9be9fc5ba89821c2195a8bf360e455$__803b156103b957610e8d93859388519586948593849363aa9d40e160e01b8552828501528a6024850152602435604485015260806064850152608484019101611350565b03915af480156106e357610ed1575b505081519081527f08813a3631e12129135cc9440d3fea50eec346f1673b20b994b0456d5d46ccb960203392a2600160655551f35b610eda9061124a565b61023a578238610e9c565b503461023a5760031960c03682011261022c57813591610f036110ca565b6044359360a4359367ffffffffffffffff85116110c65760c09085360301126110c257610f35600260655414156111fe565b60026065556098548651636572f88f60e11b81526001600160a01b039460209290919086169083818481855afa9182156110b85784918c93611099575b5087831698610fa38b8d519586948594633f11f84b60e21b86528901928c8c608435948c6064359530918b016113e4565b038173__$77c5a84c43428e206d5bf08427df63fefa$__5af490811561108f578391611066575b5050853b15611062578751632e1a7d4d60e01b81529081018390528881602481838a5af1801561105857611045575b5061100e8880808a5186335af16105716112cd565b865195865285015216917f96558a334f4759f0e7c423d68c84721860bd8fbf94ddc4e55158ecb125ad04b5843392a4600160655551f35b6110519098919861124a565b9638610ff9565b88513d8b823e3d90fd5b8880fd5b813d8311611088575b6110798183611274565b81010312611062578138610fca565b503d61106f565b89513d8c823e3d90fd5b6110b1919350823d84116102b3576102a58183611274565b9138610f72565b8a513d8d823e3d90fd5b8680fd5b8780fd5b602435906001600160a01b038216820361097357565b600435906001600160a01b038216820361097357565b6033546001600160a01b0316330361110a57565b606460405162461bcd60e51b815260206004820152602060248201527f4f776e61626c653a2063616c6c6572206973206e6f7420746865206f776e65726044820152fd5b6033549060018060a01b0380911691826bffffffffffffffffffffffff60a01b821617603355167f8be0079c531659141344cd1fd0a4f28419497f9722a3daafe3b4186f6b6457e06000604051a3565b156111a557565b60405162461bcd60e51b815260206004820152602b60248201527f496e697469616c697a61626c653a20636f6e7472616374206973206e6f74206960448201526a6e697469616c697a696e6760a81b6064820152608490fd5b1561120557565b60405162461bcd60e51b815260206004820152601f60248201527f5265656e7472616e637947756172643a207265656e7472616e742063616c6c006044820152606490fd5b67ffffffffffffffff811161125e57604052565b634e487b7160e01b600052604160045260246000fd5b90601f8019910116810190811067ffffffffffffffff82111761125e57604052565b9081602091031261097357516001600160a01b03811681036109735790565b90816020910312610973575180151581036109735790565b3d15611308573d9067ffffffffffffffff821161125e57604051916112fc601f8201601f191660200184611274565b82523d6000602084013e565b606090565b1561131457565b60405162461bcd60e51b81526020600482015260146024820152732330b4b632b2103a379039b2b7321022ba3432b960611b6044820152606490fd5b803560ff81168091036109735782526020810135602083015260408101356040830152606081013560608301526080810135608083015260a0810135601e19823603018112156109735701906020823592019167ffffffffffffffff8111610973578036038313610973578060e09360c060a08501528160c0850152848401376000828201840152601f01601f1916010190565b9694919290611440999896949160018060a01b038095818094168b52609760208c01521660408a015216606088015260808701521660a085015260c084015260e083015261010082015261014090816101208201520190611350565b9056fea2646970667358221220088973204b3887495144623834d69b865434945162bc6926a70a9bc808d48d0d64736f6c634300080f0033",
  "linkReferences": {
    "contracts/libraries/logic/BorrowLogic.sol": {
      "BorrowLogic": [
        {
          "length": 20,
          "start": 1606
        },
        {
          "length": 20,
          "start": 2321
        },
        {
          "length": 20,
          "start": 3141
        },
        {
          "length": 20,
          "start": 4035
        }
      ]
    },
    "contracts/libraries/logic/LiquidationLogic.sol": {
      "LiquidationLogic": [
        {
          "length": 20,
          "start": 3666
        }
      ]
    },
    "contracts/libraries/logic/SupplyLogic.sol": {
      "SupplyLogic": [
        {
          "length": 20,
          "start": 434
        },
        {
          "length": 20,
          "start": 792
        },
        {
          "length": 20,
          "start": 1238
        },
        {
          "length": 20,
          "start": 2726
        }
      ]
    }
  },
  "deployedLinkReferences": {
    "contracts/libraries/logic/BorrowLogic.sol": {
      "BorrowLogic": [
        {
          "length": 20,
          "start": 1578
        },
        {
          "length": 20,
          "start": 2293
        },
        {
          "length": 20,
          "start": 3113
        },
        {
          "length": 20,
          "start": 4007
        }
      ]
    },
    "contracts/libraries/logic/LiquidationLogic.sol": {
      "LiquidationLogic": [
        {
          "length": 20,
          "start": 3638
        }
      ]
    },
    "contracts/libraries/logic/SupplyLogic.sol": {
      "SupplyLogic": [
        {
          "length": 20,
          "start": 406
        },
        {
          "length": 20,
          "start": 764
        },
        {
          "length": 20,
          "start": 1210
        },
        {
          "length": 20,
          "start": 2698
        }
      ]
    }
  }
}