{
  "_format": "hh-sol-artifact-1",
  "contractName": "Market",
  "sourceName": "contracts/protocol/Market.sol",
  "abi": [
    {
      "anonymous": false,
      "inputs": [
        {
          "indexed": true,
          "internalType": "address",
          "name": "user",
          "type": "address"
        },
        {
          "indexed": true,
          "internalType": "address",
          "name": "asset",
          "type": "address"
        },
        {
          "indexed": true,
          "internalType": "address",
          "name": "nftAddress",
          "type": "address"
        },
        {
          "indexed": false,
          "internalType": "uint256",
          "name": "nftTokenID",
          "type": "uint256"
        },
        {
          "indexed": false,
          "internalType": "uint256",
          "name": "amount",
          "type": "uint256"
        }
      ],
      "name": "Borrow",
      "type": "event"
    },
    {
      "anonymous": false,
      "inputs": [
        {
          "indexed": true,
          "internalType": "address",
          "name": "user",
          "type": "address"
        },
        {
          "indexed": true,
          "internalType": "address",
          "name": "asset",
          "type": "address"
        },
        {
          "indexed": false,
          "internalType": "uint256",
          "name": "amount",
          "type": "uint256"
        }
      ],
      "name": "Deposit",
      "type": "event"
    },
    {
      "anonymous": false,
      "inputs": [
        {
          "indexed": false,
          "internalType": "uint8",
          "name": "version",
          "type": "uint8"
        }
      ],
      "name": "Initialized",
      "type": "event"
    },
    {
      "anonymous": false,
      "inputs": [
        {
          "indexed": true,
          "internalType": "address",
          "name": "user",
          "type": "address"
        },
        {
          "indexed": false,
          "internalType": "uint256",
          "name": "loanId",
          "type": "uint256"
        }
      ],
      "name": "Liquidate",
      "type": "event"
    },
    {
      "anonymous": false,
      "inputs": [
        {
          "indexed": true,
          "internalType": "address",
          "name": "previousOwner",
          "type": "address"
        },
        {
          "indexed": true,
          "internalType": "address",
          "name": "newOwner",
          "type": "address"
        }
      ],
      "name": "OwnershipTransferred",
      "type": "event"
    },
    {
      "anonymous": false,
      "inputs": [
        {
          "indexed": true,
          "internalType": "address",
          "name": "user",
          "type": "address"
        },
        {
          "indexed": false,
          "internalType": "uint256",
          "name": "loanId",
          "type": "uint256"
        }
      ],
      "name": "Repay",
      "type": "event"
    },
    {
      "anonymous": false,
      "inputs": [
        {
          "indexed": true,
          "internalType": "address",
          "name": "user",
          "type": "address"
        },
        {
          "indexed": true,
          "internalType": "address",
          "name": "asset",
          "type": "address"
        },
        {
          "indexed": false,
          "internalType": "uint256",
          "name": "amount",
          "type": "uint256"
        }
      ],
      "name": "Withdraw",
      "type": "event"
    },
    {
      "inputs": [
        {
          "internalType": "address",
          "name": "asset",
          "type": "address"
        },
        {
          "internalType": "address",
          "name": "reserveAddress",
          "type": "address"
        }
      ],
      "name": "addReserve",
      "outputs": [],
      "stateMutability": "nonpayable",
      "type": "function"
    },
    {
      "inputs": [
        {
          "internalType": "address",
          "name": "asset",
          "type": "address"
        },
        {
          "internalType": "uint256",
          "name": "amount",
          "type": "uint256"
        },
        {
          "internalType": "address",
          "name": "nftAddress",
          "type": "address"
        },
        {
          "internalType": "uint256",
          "name": "nftTokenID",
          "type": "uint256"
        },
        {
          "internalType": "bytes32",
          "name": "request",
          "type": "bytes32"
        },
        {
          "components": [
            {
              "internalType": "uint8",
              "name": "v",
              "type": "uint8"
            },
            {
              "internalType": "bytes32",
              "name": "r",
              "type": "bytes32"
            },
            {
              "internalType": "bytes32",
              "name": "s",
              "type": "bytes32"
            },
            {
              "internalType": "bytes32",
              "name": "request",
              "type": "bytes32"
            },
            {
              "internalType": "uint256",
              "name": "deadline",
              "type": "uint256"
            },
            {
              "internalType": "bytes",
              "name": "payload",
              "type": "bytes"
            }
          ],
          "internalType": "struct Trustus.TrustusPacket",
          "name": "packet",
          "type": "tuple"
        }
      ],
      "name": "borrow",
      "outputs": [],
      "stateMutability": "nonpayable",
      "type": "function"
    },
    {
      "inputs": [
        {
          "internalType": "address",
          "name": "asset",
          "type": "address"
        },
        {
          "internalType": "uint256",
          "name": "amount",
          "type": "uint256"
        }
      ],
      "name": "deposit",
      "outputs": [],
      "stateMutability": "nonpayable",
      "type": "function"
    },
    {
      "inputs": [
        {
          "internalType": "uint256",
          "name": "loanId",
          "type": "uint256"
        },
        {
          "internalType": "bytes32",
          "name": "request",
          "type": "bytes32"
        },
        {
          "components": [
            {
              "internalType": "uint8",
              "name": "v",
              "type": "uint8"
            },
            {
              "internalType": "bytes32",
              "name": "r",
              "type": "bytes32"
            },
            {
              "internalType": "bytes32",
              "name": "s",
              "type": "bytes32"
            },
            {
              "internalType": "bytes32",
              "name": "request",
              "type": "bytes32"
            },
            {
              "internalType": "uint256",
              "name": "deadline",
              "type": "uint256"
            },
            {
              "internalType": "bytes",
              "name": "payload",
              "type": "bytes"
            }
          ],
          "internalType": "struct Trustus.TrustusPacket",
          "name": "packet",
          "type": "tuple"
        }
      ],
      "name": "getLoanLiquidationPrice",
      "outputs": [
        {
          "internalType": "uint256",
          "name": "",
          "type": "uint256"
        },
        {
          "internalType": "uint256",
          "name": "",
          "type": "uint256"
        }
      ],
      "stateMutability": "view",
      "type": "function"
    },
    {
      "inputs": [
        {
          "internalType": "address",
          "name": "asset",
          "type": "address"
        }
      ],
      "name": "getReserveAddress",
      "outputs": [
        {
          "internalType": "address",
          "name": "",
          "type": "address"
        }
      ],
      "stateMutability": "view",
      "type": "function"
    },
    {
      "inputs": [
        {
          "internalType": "contract IAddressesProvider",
          "name": "addressesProvider",
          "type": "address"
        }
      ],
      "name": "initialize",
      "outputs": [],
      "stateMutability": "nonpayable",
      "type": "function"
    },
    {
      "inputs": [
        {
          "internalType": "address",
          "name": "asset",
          "type": "address"
        }
      ],
      "name": "isAssetSupported",
      "outputs": [
        {
          "internalType": "bool",
          "name": "",
          "type": "bool"
        }
      ],
      "stateMutability": "view",
      "type": "function"
    },
    {
      "inputs": [
        {
          "internalType": "uint256",
          "name": "loanId",
          "type": "uint256"
        },
        {
          "internalType": "bytes32",
          "name": "request",
          "type": "bytes32"
        },
        {
          "components": [
            {
              "internalType": "uint8",
              "name": "v",
              "type": "uint8"
            },
            {
              "internalType": "bytes32",
              "name": "r",
              "type": "bytes32"
            },
            {
              "internalType": "bytes32",
              "name": "s",
              "type": "bytes32"
            },
            {
              "internalType": "bytes32",
              "name": "request",
              "type": "bytes32"
            },
            {
              "internalType": "uint256",
              "name": "deadline",
              "type": "uint256"
            },
            {
              "internalType": "bytes",
              "name": "payload",
              "type": "bytes"
            }
          ],
          "internalType": "struct Trustus.TrustusPacket",
          "name": "packet",
          "type": "tuple"
        }
      ],
      "name": "liquidate",
      "outputs": [],
      "stateMutability": "nonpayable",
      "type": "function"
    },
    {
      "inputs": [],
      "name": "owner",
      "outputs": [
        {
          "internalType": "address",
          "name": "",
          "type": "address"
        }
      ],
      "stateMutability": "view",
      "type": "function"
    },
    {
      "inputs": [],
      "name": "renounceOwnership",
      "outputs": [],
      "stateMutability": "nonpayable",
      "type": "function"
    },
    {
      "inputs": [
        {
          "internalType": "uint256",
          "name": "loanId",
          "type": "uint256"
        }
      ],
      "name": "repay",
      "outputs": [],
      "stateMutability": "nonpayable",
      "type": "function"
    },
    {
      "inputs": [
        {
          "internalType": "address",
          "name": "newOwner",
          "type": "address"
        }
      ],
      "name": "transferOwnership",
      "outputs": [],
      "stateMutability": "nonpayable",
      "type": "function"
    },
    {
      "inputs": [
        {
          "internalType": "address",
          "name": "asset",
          "type": "address"
        },
        {
          "internalType": "uint256",
          "name": "amount",
          "type": "uint256"
        }
      ],
      "name": "withdraw",
      "outputs": [],
      "stateMutability": "nonpayable",
      "type": "function"
    }
  ],
  "bytecode": "0x6080806040523461001657610cf1908161001c8239f35b600080fdfe6040608081526004908136101561001557600080fd5b600091823560e01c80630586abad146109335780631973262114610869578063371fd8e614610797578063464b41581461075a57806347e7ef241461068657806351e8b7fb1461064b578063715018a6146105ea5780638da5cb5b146105c1578063b398df5d14610502578063c4d66de8146103a5578063d40e1e0914610239578063f2fde38b146101a85763f3fef3a3146100b057600080fd5b346101a457816003193601126101a4576100c8610a43565b83602435916100dc60026065541415610b61565b600260655560985473__$2f7c76ee15bdc1d8f3b34a04b86951fc56$__94906001600160a01b0390811690863b156101a05784926084918951958694859363fc414f7b60e01b85528401526097602484015216978860448301528760648301525af480156101965761017e575b505082519081527f9b1bfa7fa9ee420a16e124f794c35ac9f90472acc99140eb2f6447c714cad8eb60203392a3600160655551f35b61018790610bad565b610192578338610149565b8380fd5b85513d84823e3d90fd5b8480fd5b8280fd5b50346101a45760203660031901126101a4576101c2610a43565b906101cb610a59565b6001600160a01b038216156101e757506101e490610ab1565b51f35b608490602084519162461bcd60e51b8352820152602660248201527f4f776e61626c653a206e6577206f776e657220697320746865207a65726f206160448201526564647265737360d01b6064820152fd5b50346101a45760031960c03682011261019257610254610a43565b6044356001600160a01b0381811694602435928690036103a0576064359360a4359567ffffffffffffffff871161039c5760c0908736030112610398576020916102a360026065541415610b61565b60026065556103038460985416918a51958694859463bbc7e40f60e01b8652838601526097602486015216988960448501528760648501528a60848501528860a485015260843560c485015261010060e485015261010484019101610bf9565b038173__$77c5a84c43428e206d5bf08427df63fefa$__5af4801561038e5761035f575b50845191825260208201527f96558a334f4759f0e7c423d68c84721860bd8fbf94ddc4e55158ecb125ad04b5843392a4600160655551f35b602090813d8111610387575b6103758183610bd7565b810103126103835738610327565b8580fd5b503d61036b565b86513d89823e3d90fd5b8880fd5b8980fd5b600080fd5b50346101a45760203660031901126101a45780356001600160a01b0381169081900361019257835460ff8160081c1615928380946104f5575b80156104de575b15610484575060ff198116600117855582610473575b5061041560ff855460081c1661041081610b01565b610b01565b61041e33610ab1565b6bffffffffffffffffffffffff60a01b609854161760985561043d5751f35b61ff001982541682557f7f26b83ff96e1f2b6a682f133852f6798a09c465da95921460cefb38474024986020825160018152a151f35b61ffff1916610101178455386103fb565b608490602086519162461bcd60e51b8352820152602e60248201527f496e697469616c697a61626c653a20636f6e747261637420697320616c72656160448201526d191e481a5b9a5d1a585b1a5e995960921b6064820152fd5b50303b1580156103e55750600160ff8316146103e5565b50600160ff8316106103de565b508290346105bd578261054361051736610a09565b6098548551632efaacbd60e21b8152968795869590949290916001600160a01b03909116908601610c8d565b038173__$4c26be947d349222af871a3168b3fe584b$__5af49081156105b357828092610579575b505082519182526020820152f35b915091508282813d83116105ac575b6105928183610bd7565b810103126105a9575060208151910151838061056b565b80fd5b503d610588565b83513d84823e3d90fd5b5080fd5b5050346105bd57816003193601126105bd5760335490516001600160a01b039091168152602090f35b5050346105bd57816003193601126105bd57610604610a59565b603380546001600160a01b031981169091559051906000906001600160a01b03167f8be0079c531659141344cd1fd0a4f28419497f9722a3daafe3b4186f6b6457e08284a3f35b5050346105bd5760203660031901126105bd576020916001600160a01b0390829082610675610a43565b168152609785522054169051908152f35b50346101a457816003193601126101a45761069f610a43565b83602435916106b360026065541415610b61565b600260655573__$2f7c76ee15bdc1d8f3b34a04b86951fc56$__93843b156101a4576097606484928851948593849263dc3103e760e01b845283015260018060a01b0316978860248301528760448301525af4801561019657610746575b505082519081527f5548c837ab068cf56a2c2479df0882a4922fd203edb7517321831d95078c5f6260203392a3600160655551f35b61074f90610bad565b610192578338610711565b5050346105bd5760203660031901126105bd576020916001600160a01b0390829082610784610a43565b1681526097855220541615159051908152f35b50346101a45760203660031901126101a457828135916107bc60026065541415610b61565b600260655560985473__$77c5a84c43428e206d5bf08427df63fefa$__91906001600160a01b0316823b156101925760448492875194859384926376aca94160e01b84528301528760248301525af4801561085f5761084b575b505081519081527f5c16de4f8b59bd9caf0f49a545f25819a895ed223294290b408242e72a59423160203392a2600160655551f35b61085490610bad565b6101a4578238610816565b84513d84823e3d90fd5b50346101a457816003193601126101a457610882610a43565b6001600160a01b036024358181169392908490036103a0576108a2610a59565b845163095ea7b360e01b81529283018490526000196024840152169060208160448188865af18015610929576108f2575b508352609760205281832080546001600160a01b031916909117905551f35b6020813d8211610921575b8161090a60209383610bd7565b810103126101a057518015150361019257386108d3565b3d91506108fd565b84513d87823e3d90fd5b50346101a4578261094336610a09565b9092919361095660026065541415610b61565b600260655560985473__$965b9be9fc5ba89821c2195a8bf360e455$__916001600160a01b0390911690823b156101a0576109a6879489519788968795869563aa9d40e160e01b87528601610c8d565b03915af480156109fc576109e9575b5081519081527f08813a3631e12129135cc9440d3fea50eec346f1673b20b994b0456d5d46ccb960203392a2600160655551f35b6109f590939193610bad565b91386109b5565b50505051903d90823e3d90fd5b600319916060828401126103a05760043592602435926044359167ffffffffffffffff83116103a0578260c0920301126103a05760040190565b600435906001600160a01b03821682036103a057565b6033546001600160a01b03163303610a6d57565b606460405162461bcd60e51b815260206004820152602060248201527f4f776e61626c653a2063616c6c6572206973206e6f7420746865206f776e65726044820152fd5b6033549060018060a01b0380911691826bffffffffffffffffffffffff60a01b821617603355167f8be0079c531659141344cd1fd0a4f28419497f9722a3daafe3b4186f6b6457e06000604051a3565b15610b0857565b60405162461bcd60e51b815260206004820152602b60248201527f496e697469616c697a61626c653a20636f6e7472616374206973206e6f74206960448201526a6e697469616c697a696e6760a81b6064820152608490fd5b15610b6857565b60405162461bcd60e51b815260206004820152601f60248201527f5265656e7472616e637947756172643a207265656e7472616e742063616c6c006044820152606490fd5b67ffffffffffffffff8111610bc157604052565b634e487b7160e01b600052604160045260246000fd5b90601f8019910116810190811067ffffffffffffffff821117610bc157604052565b803560ff81168091036103a05782526020810135602083015260408101356040830152606081013560608301526080810135608083015260a0810135601e19823603018112156103a05701906020823592019167ffffffffffffffff81116103a05780360383136103a0578060e09360c060a08501528160c0850152848401376000828201840152601f01601f1916010190565b9092608092610cb8959460018060a01b03168352602083015260408201528160608201520190610bf9565b9056fea2646970667358221220d91891f09ddada3923c45048d41e2b8f33d62f3d155f225a40e8bb9387e3182564736f6c634300080f0033",
  "linkReferences": {
    "contracts/libraries/logic/BorrowLogic.sol": {
      "BorrowLogic": [
        {
          "length": 20,
          "start": 803
        },
        {
          "length": 20,
          "start": 2018
        }
      ]
    },
    "contracts/libraries/logic/GenericLogic.sol": {
      "GenericLogic": [
        {
          "length": 20,
          "start": 1379
        }
      ]
    },
    "contracts/libraries/logic/LiquidationLogic.sol": {
      "LiquidationLogic": [
        {
          "length": 20,
          "start": 2428
        }
      ]
    },
    "contracts/libraries/logic/SupplyLogic.sol": {
      "SupplyLogic": [
        {
          "length": 20,
          "start": 258
        },
        {
          "length": 20,
          "start": 1750
        }
      ]
    }
  },
  "deployedLinkReferences": {
    "contracts/libraries/logic/BorrowLogic.sol": {
      "BorrowLogic": [
        {
          "length": 20,
          "start": 775
        },
        {
          "length": 20,
          "start": 1990
        }
      ]
    },
    "contracts/libraries/logic/GenericLogic.sol": {
      "GenericLogic": [
        {
          "length": 20,
          "start": 1351
        }
      ]
    },
    "contracts/libraries/logic/LiquidationLogic.sol": {
      "LiquidationLogic": [
        {
          "length": 20,
          "start": 2400
        }
      ]
    },
    "contracts/libraries/logic/SupplyLogic.sol": {
      "SupplyLogic": [
        {
          "length": 20,
          "start": 230
        },
        {
          "length": 20,
          "start": 1722
        }
      ]
    }
  }
}