{
  "_format": "hh-sol-artifact-1",
  "contractName": "Market",
  "sourceName": "contracts/protocol/Market.sol",
  "abi": [
    {
      "anonymous": false,
      "inputs": [
        {
          "indexed": true,
          "internalType": "address",
          "name": "user",
          "type": "address"
        },
        {
          "indexed": true,
          "internalType": "address",
          "name": "asset",
          "type": "address"
        },
        {
          "indexed": true,
          "internalType": "address",
          "name": "nftAddress",
          "type": "address"
        },
        {
          "indexed": false,
          "internalType": "uint256",
          "name": "nftTokenID",
          "type": "uint256"
        },
        {
          "indexed": false,
          "internalType": "uint256",
          "name": "amount",
          "type": "uint256"
        }
      ],
      "name": "Borrow",
      "type": "event"
    },
    {
      "anonymous": false,
      "inputs": [
        {
          "indexed": true,
          "internalType": "address",
          "name": "reserve",
          "type": "address"
        }
      ],
      "name": "CreateReserve",
      "type": "event"
    },
    {
      "anonymous": false,
      "inputs": [
        {
          "indexed": false,
          "internalType": "uint8",
          "name": "version",
          "type": "uint8"
        }
      ],
      "name": "Initialized",
      "type": "event"
    },
    {
      "anonymous": false,
      "inputs": [
        {
          "indexed": true,
          "internalType": "address",
          "name": "user",
          "type": "address"
        },
        {
          "indexed": true,
          "internalType": "uint256",
          "name": "loanId",
          "type": "uint256"
        }
      ],
      "name": "Liquidate",
      "type": "event"
    },
    {
      "anonymous": false,
      "inputs": [
        {
          "indexed": true,
          "internalType": "address",
          "name": "previousOwner",
          "type": "address"
        },
        {
          "indexed": true,
          "internalType": "address",
          "name": "newOwner",
          "type": "address"
        }
      ],
      "name": "OwnershipTransferred",
      "type": "event"
    },
    {
      "anonymous": false,
      "inputs": [
        {
          "indexed": true,
          "internalType": "address",
          "name": "user",
          "type": "address"
        },
        {
          "indexed": true,
          "internalType": "uint256",
          "name": "loanId",
          "type": "uint256"
        }
      ],
      "name": "Repay",
      "type": "event"
    },
    {
      "anonymous": false,
      "inputs": [
        {
          "indexed": true,
          "internalType": "address",
          "name": "collection",
          "type": "address"
        },
        {
          "indexed": true,
          "internalType": "address",
          "name": "asset",
          "type": "address"
        },
        {
          "indexed": true,
          "internalType": "address",
          "name": "reserve",
          "type": "address"
        }
      ],
      "name": "SetReserve",
      "type": "event"
    },
    {
      "inputs": [
        {
          "internalType": "address",
          "name": "onBehalfOf",
          "type": "address"
        },
        {
          "internalType": "address",
          "name": "asset",
          "type": "address"
        },
        {
          "internalType": "uint256",
          "name": "amount",
          "type": "uint256"
        },
        {
          "internalType": "address",
          "name": "nftAddress",
          "type": "address"
        },
        {
          "internalType": "uint256",
          "name": "nftTokenId",
          "type": "uint256"
        },
        {
          "internalType": "uint256",
          "name": "genesisNFTId",
          "type": "uint256"
        },
        {
          "internalType": "bytes32",
          "name": "request",
          "type": "bytes32"
        },
        {
          "components": [
            {
              "internalType": "uint8",
              "name": "v",
              "type": "uint8"
            },
            {
              "internalType": "bytes32",
              "name": "r",
              "type": "bytes32"
            },
            {
              "internalType": "bytes32",
              "name": "s",
              "type": "bytes32"
            },
            {
              "internalType": "bytes32",
              "name": "request",
              "type": "bytes32"
            },
            {
              "internalType": "uint256",
              "name": "deadline",
              "type": "uint256"
            },
            {
              "internalType": "bytes",
              "name": "payload",
              "type": "bytes"
            }
          ],
          "internalType": "struct Trustus.TrustusPacket",
          "name": "packet",
          "type": "tuple"
        }
      ],
      "name": "borrow",
      "outputs": [],
      "stateMutability": "nonpayable",
      "type": "function"
    },
    {
      "inputs": [
        {
          "internalType": "address",
          "name": "collection",
          "type": "address"
        },
        {
          "internalType": "address",
          "name": "asset",
          "type": "address"
        }
      ],
      "name": "createReserve",
      "outputs": [],
      "stateMutability": "nonpayable",
      "type": "function"
    },
    {
      "inputs": [],
      "name": "getDefaultLiquidationPenalty",
      "outputs": [
        {
          "internalType": "uint256",
          "name": "",
          "type": "uint256"
        }
      ],
      "stateMutability": "view",
      "type": "function"
    },
    {
      "inputs": [],
      "name": "getDefaultMaximumUtilizationRate",
      "outputs": [
        {
          "internalType": "uint256",
          "name": "",
          "type": "uint256"
        }
      ],
      "stateMutability": "view",
      "type": "function"
    },
    {
      "inputs": [],
      "name": "getDefaultProtocolLiquidationFee",
      "outputs": [
        {
          "internalType": "uint256",
          "name": "",
          "type": "uint256"
        }
      ],
      "stateMutability": "view",
      "type": "function"
    },
    {
      "inputs": [],
      "name": "getDefaultTVLSafeguard",
      "outputs": [
        {
          "internalType": "uint256",
          "name": "",
          "type": "uint256"
        }
      ],
      "stateMutability": "view",
      "type": "function"
    },
    {
      "inputs": [
        {
          "internalType": "address",
          "name": "collection",
          "type": "address"
        },
        {
          "internalType": "address",
          "name": "asset",
          "type": "address"
        }
      ],
      "name": "getReserve",
      "outputs": [
        {
          "internalType": "address",
          "name": "",
          "type": "address"
        }
      ],
      "stateMutability": "view",
      "type": "function"
    },
    {
      "inputs": [
        {
          "internalType": "contract IAddressesProvider",
          "name": "addressesProvider",
          "type": "address"
        },
        {
          "components": [
            {
              "internalType": "uint256",
              "name": "liquidationPenalty",
              "type": "uint256"
            },
            {
              "internalType": "uint256",
              "name": "protocolLiquidationFee",
              "type": "uint256"
            },
            {
              "internalType": "uint256",
              "name": "maximumUtilizationRate",
              "type": "uint256"
            },
            {
              "internalType": "uint256",
              "name": "tvlSafeguard",
              "type": "uint256"
            }
          ],
          "internalType": "struct ConfigTypes.ReserveConfig",
          "name": "defaultReserveConfig",
          "type": "tuple"
        }
      ],
      "name": "initialize",
      "outputs": [],
      "stateMutability": "nonpayable",
      "type": "function"
    },
    {
      "inputs": [
        {
          "internalType": "uint256",
          "name": "loanId",
          "type": "uint256"
        },
        {
          "internalType": "bytes32",
          "name": "request",
          "type": "bytes32"
        },
        {
          "components": [
            {
              "internalType": "uint8",
              "name": "v",
              "type": "uint8"
            },
            {
              "internalType": "bytes32",
              "name": "r",
              "type": "bytes32"
            },
            {
              "internalType": "bytes32",
              "name": "s",
              "type": "bytes32"
            },
            {
              "internalType": "bytes32",
              "name": "request",
              "type": "bytes32"
            },
            {
              "internalType": "uint256",
              "name": "deadline",
              "type": "uint256"
            },
            {
              "internalType": "bytes",
              "name": "payload",
              "type": "bytes"
            }
          ],
          "internalType": "struct Trustus.TrustusPacket",
          "name": "packet",
          "type": "tuple"
        }
      ],
      "name": "liquidate",
      "outputs": [],
      "stateMutability": "nonpayable",
      "type": "function"
    },
    {
      "inputs": [],
      "name": "owner",
      "outputs": [
        {
          "internalType": "address",
          "name": "",
          "type": "address"
        }
      ],
      "stateMutability": "view",
      "type": "function"
    },
    {
      "inputs": [],
      "name": "renounceOwnership",
      "outputs": [],
      "stateMutability": "nonpayable",
      "type": "function"
    },
    {
      "inputs": [
        {
          "internalType": "uint256",
          "name": "loanId",
          "type": "uint256"
        },
        {
          "internalType": "uint256",
          "name": "amount",
          "type": "uint256"
        }
      ],
      "name": "repay",
      "outputs": [],
      "stateMutability": "nonpayable",
      "type": "function"
    },
    {
      "inputs": [
        {
          "internalType": "address",
          "name": "collection",
          "type": "address"
        },
        {
          "internalType": "address",
          "name": "asset",
          "type": "address"
        },
        {
          "internalType": "address",
          "name": "reserve",
          "type": "address"
        }
      ],
      "name": "setCollectionReserve",
      "outputs": [],
      "stateMutability": "nonpayable",
      "type": "function"
    },
    {
      "inputs": [
        {
          "internalType": "uint256",
          "name": "liquidationPenalty",
          "type": "uint256"
        }
      ],
      "name": "setDefaultLiquidationPenalty",
      "outputs": [],
      "stateMutability": "nonpayable",
      "type": "function"
    },
    {
      "inputs": [
        {
          "internalType": "uint256",
          "name": "maximumUtilizationRate",
          "type": "uint256"
        }
      ],
      "name": "setDefaultMaximumUtilizationRate",
      "outputs": [],
      "stateMutability": "nonpayable",
      "type": "function"
    },
    {
      "inputs": [
        {
          "internalType": "uint256",
          "name": "protocolLiquidationFee",
          "type": "uint256"
        }
      ],
      "name": "setDefaultProtocolLiquidationFee",
      "outputs": [],
      "stateMutability": "nonpayable",
      "type": "function"
    },
    {
      "inputs": [
        {
          "internalType": "uint256",
          "name": "tvlSafeguard",
          "type": "uint256"
        }
      ],
      "name": "setDefaultTVLSafeguard",
      "outputs": [],
      "stateMutability": "nonpayable",
      "type": "function"
    },
    {
      "inputs": [
        {
          "internalType": "address",
          "name": "newOwner",
          "type": "address"
        }
      ],
      "name": "transferOwnership",
      "outputs": [],
      "stateMutability": "nonpayable",
      "type": "function"
    }
  ],
  "bytecode": "0x608060405234801561001057600080fd5b5061454e806100206000396000f3fe60806040523480156200001157600080fd5b50600436106200012d5760003560e01c8063adeb468b11620000af578063d8aed145116200007a578063d8aed1451462000245578063ed4a376e146200025c578063f2fde38b1462000273578063f3b31325146200028a578063fa4494e914620002a157600080fd5b8063adeb468b1462000205578063b6673352146200020e578063bdc1c7091462000225578063cbc3ab53146200022e57600080fd5b8063715018a611620000fc578063715018a6146200019057806380419cb5146200019a5780638da5cb5b14620001b1578063a99ab94814620001d7578063acd73e0214620001ee57600080fd5b80630541da8e14620001325780630586abad146200014b5780631f7a92b214620001625780634470afa41462000179575b600080fd5b6200014962000143366004620013b5565b620002aa565b005b620001496200015c366004620013e8565b620002b9565b620001496200017336600462001452565b620003b9565b620001496200018a366004620013b5565b62000510565b620001496200051f565b609b545b6040519081526020015b60405180910390f35b6033546001600160a01b03165b6040516001600160a01b039091168152602001620001a8565b62000149620001e836600462001497565b62000537565b62000149620001ff366004620014e9565b6200054e565b609d546200019e565b620001496200021f366004620013b5565b62000c0d565b609c546200019e565b620001be6200023f366004620014e9565b62000c1c565b620001496200025636600462001527565b62000c4b565b620001496200026d366004620013b5565b62000d48565b62000149620002843660046200154a565b62000d57565b620001496200029b3660046200156a565b62000dd6565b609a546200019e565b620002b462000f6a565b609d55565b620002c362000fc6565b609954604080516080810182523381526020810186905290810184905273__$965b9be9fc5ba89821c2195a8bf360e455$__9163245fa182916001600160a01b03909116906060810162000317866200170d565b8152506040518363ffffffff1660e01b81526004016200033992919062001845565b60006040518083038186803b1580156200035257600080fd5b505af415801562000367573d6000803e3d6000fd5b5050505082620003743390565b6001600160a01b03167f08813a3631e12129135cc9440d3fea50eec346f1673b20b994b0456d5d46ccb960405160405180910390a3620003b46001606555565b505050565b600054610100900460ff1615808015620003da5750600054600160ff909116105b80620003f65750303b158015620003f6575060005460ff166001145b6200045f5760405162461bcd60e51b815260206004820152602e60248201527f496e697469616c697a61626c653a20636f6e747261637420697320616c72656160448201526d191e481a5b9a5d1a585b1a5e995960921b60648201526084015b60405180910390fd5b6000805460ff19166001179055801562000483576000805461ff0019166101001790555b6200048d62001021565b609980546001600160a01b0319166001600160a01b0385161790558135609a556020820135609b556040820135609c556060820135609d558015620003b4576000805461ff0019169055604051600181527f7f26b83ff96e1f2b6a682f133852f6798a09c465da95921460cefb38474024989060200160405180910390a1505050565b6200051a62000f6a565b609a55565b6200052962000f6a565b62000535600062001055565b565b6200054162000f6a565b620003b4838383620010a7565b6200056a6001600160a01b0383166380ac58cd60e01b6200110e565b620005cc5760405162461bcd60e51b815260206004820152602b60248201527f436f6c6c656374696f6e2061646472657373206973206e6f742045524337323160448201526a1031b7b6b83634b0b73a1760a91b606482015260840162000456565b609960009054906101000a90046001600160a01b03166001600160a01b031663cfeed1816040518163ffffffff1660e01b8152600401602060405180830381865afa15801562000620573d6000803e3d6000fd5b505050506040513d601f19601f820116820180604052508101906200064691906200189c565b6040516375151b6360e01b81526001600160a01b03838116600483015291909116906375151b6390602401602060405180830381865afa1580156200068f573d6000803e3d6000fd5b505050506040513d601f19601f82011682018060405250810190620006b59190620018bc565b6200070d5760405162461bcd60e51b815260206004820152602160248201527f556e6465726c79696e67204173736574206973206e6f7420737570706f7274656044820152601960fa1b606482015260840162000456565b6001600160a01b038281166000908152609760209081526040808320858516845290915290205416156200077d5760405162461bcd60e51b81526020600482015260166024820152755265736572766520616c72656164792065786973747360501b604482015260640162000456565b6099546000906001600160a01b03166200079f6033546001600160a01b031690565b83846001600160a01b03166395d89b416040518163ffffffff1660e01b8152600401600060405180830381865afa158015620007df573d6000803e3d6000fd5b505050506040513d6000823e601f3d908101601f19168201604052620008099190810190620018e0565b6001600160a01b0386166000908152609860205260409020546200082d9062001136565b6040516020016200084092919062001957565b604051602081830303815290604052856001600160a01b03166395d89b416040518163ffffffff1660e01b8152600401600060405180830381865afa1580156200088e573d6000803e3d6000fd5b505050506040513d6000823e601f3d908101601f19168201604052620008b89190810190620018e0565b6001600160a01b038716600090815260986020526040902054620008dc9062001136565b604051602001620008ef929190620019b2565b604051602081830303815290604052609a6040516200090e90620013a7565b6200091f9695949392919062001a01565b604051809103906000f0801580156200093c573d6000803e3d6000fd5b5060405163095ea7b360e01b81526001600160a01b03808316600483015260001960248301529192509083169063095ea7b3906044016020604051808303816000875af115801562000992573d6000803e3d6000fd5b505050506040513d601f19601f82011682018060405250810190620009b89190620018bc565b50826001600160a01b031663e985e9c5609960009054906101000a90046001600160a01b03166001600160a01b031663536223646040518163ffffffff1660e01b8152600401602060405180830381865afa15801562000a1c573d6000803e3d6000fd5b505050506040513d601f19601f8201168201806040525081019062000a4291906200189c565b6040516001600160e01b031960e084901b1681526001600160a01b039091166004820152306024820152604401602060405180830381865afa15801562000a8d573d6000803e3d6000fd5b505050506040513d601f19601f8201168201806040525081019062000ab39190620018bc565b151560000362000b9757609960009054906101000a90046001600160a01b03166001600160a01b031663536223646040518163ffffffff1660e01b8152600401602060405180830381865afa15801562000b11573d6000803e3d6000fd5b505050506040513d601f19601f8201168201806040525081019062000b3791906200189c565b604051631578b62760e11b81526001600160a01b0385811660048301529190911690632af16c4e90602401600060405180830381600087803b15801562000b7d57600080fd5b505af115801562000b92573d6000803e3d6000fd5b505050505b62000ba4838383620010a7565b6001600160a01b038216600090815260986020526040812080546001929062000bcf90849062001a82565b90915550506040516001600160a01b038216907f62bc44df7dccd51a32794da404454232658add2bef839a8e3629ed5c980daabf90600090a2505050565b62000c1762000f6a565b609b55565b6001600160a01b0380831660009081526097602090815260408083208585168452909152902054165b92915050565b62000c5562000fc6565b60995460408051606081018252338152602081018581528183018581528351634e0be51f60e11b81526001600160a01b03958616600482015292519094166024830152516044820152915160648301525173__$77c5a84c43428e206d5bf08427df63fefa$__91639c17ca3e916084808301926000929190829003018186803b15801562000ce257600080fd5b505af415801562000cf7573d6000803e3d6000fd5b505050508162000d043390565b6001600160a01b03167f5c16de4f8b59bd9caf0f49a545f25819a895ed223294290b408242e72a59423160405160405180910390a362000d446001606555565b5050565b62000d5262000f6a565b609c55565b62000d6162000f6a565b6001600160a01b03811662000dc85760405162461bcd60e51b815260206004820152602660248201527f4f776e61626c653a206e6577206f776e657220697320746865207a65726f206160448201526564647265737360d01b606482015260840162000456565b62000dd38162001055565b50565b62000de062000fc6565b73__$77c5a84c43428e206d5bf08427df63fefa$__63a6b290dd609960009054906101000a90046001600160a01b0316609760405180610120016040528062000e263390565b6001600160a01b031681526020018d6001600160a01b031681526020018c6001600160a01b031681526020018b81526020018a6001600160a01b031681526020018981526020018881526020018781526020018662000e85906200170d565b8152506040518463ffffffff1660e01b815260040162000ea89392919062001aa4565b602060405180830381865af415801562000ec6573d6000803e3d6000fd5b505050506040513d601f19601f8201168201806040525081019062000eec919062001b75565b50846001600160a01b0316876001600160a01b031662000f093390565b6001600160a01b03167f96558a334f4759f0e7c423d68c84721860bd8fbf94ddc4e55158ecb125ad04b5878a60405162000f4d929190918252602082015260400190565b60405180910390a462000f606001606555565b5050505050505050565b6033546001600160a01b03163314620005355760405162461bcd60e51b815260206004820181905260248201527f4f776e61626c653a2063616c6c6572206973206e6f7420746865206f776e6572604482015260640162000456565b6002606554036200101a5760405162461bcd60e51b815260206004820152601f60248201527f5265656e7472616e637947756172643a207265656e7472616e742063616c6c00604482015260640162000456565b6002606555565b600054610100900460ff166200104b5760405162461bcd60e51b8152600401620004569062001b8f565b62000535620011d0565b603380546001600160a01b038381166001600160a01b0319831681179093556040519116919082907f8be0079c531659141344cd1fd0a4f28419497f9722a3daafe3b4186f6b6457e090600090a35050565b6001600160a01b038381166000818152609760209081526040808320878616808552925280832080546001600160a01b0319169587169586179055519092917ff9e7f47c2cd7655661046fbcf0164a4d4ac48c3cd9c0ed8b45410e965cc3371491a4505050565b60006200111b8362001205565b80156200112f57506200112f83836200123d565b9392505050565b606060006200114583620012c8565b600101905060008167ffffffffffffffff81111562001168576200116862001610565b6040519080825280601f01601f19166020018201604052801562001193576020820181803683370190505b5090508181016020015b600019016f181899199a1a9b1b9c1cb0b131b232b360811b600a86061a8153600a85049450846200119d57509392505050565b600054610100900460ff16620011fa5760405162461bcd60e51b8152600401620004569062001b8f565b620005353362001055565b60006200121a826301ffc9a760e01b6200123d565b801562000c45575062001236826001600160e01b03196200123d565b1592915050565b604080516001600160e01b03198316602480830191909152825180830390910181526044909101909152602080820180516001600160e01b03166301ffc9a760e01b178152825160009392849283928392918391908a617530fa92503d91506000519050828015620012b0575060208210155b8015620012bd5750600081115b979650505050505050565b60008072184f03e93ff9f4daa797ed6e38ed64bf6a1f0160401b8310620013085772184f03e93ff9f4daa797ed6e38ed64bf6a1f0160401b830492506040015b6d04ee2d6d415b85acef8100000000831062001335576d04ee2d6d415b85acef8100000000830492506020015b662386f26fc1000083106200135457662386f26fc10000830492506010015b6305f5e10083106200136d576305f5e100830492506008015b61271083106200138257612710830492506004015b6064831062001395576064830492506002015b600a831062000c455760010192915050565b61293e8062001bdb83390190565b600060208284031215620013c857600080fd5b5035919050565b600060c08284031215620013e257600080fd5b50919050565b600080600060608486031215620013fe57600080fd5b8335925060208401359150604084013567ffffffffffffffff8111156200142457600080fd5b6200143286828701620013cf565b9150509250925092565b6001600160a01b038116811462000dd357600080fd5b60008082840360a08112156200146757600080fd5b833562001474816200143c565b92506080601f19820112156200148957600080fd5b506020830190509250929050565b600080600060608486031215620014ad57600080fd5b8335620014ba816200143c565b92506020840135620014cc816200143c565b91506040840135620014de816200143c565b809150509250925092565b60008060408385031215620014fd57600080fd5b82356200150a816200143c565b915060208301356200151c816200143c565b809150509250929050565b600080604083850312156200153b57600080fd5b50508035926020909101359150565b6000602082840312156200155d57600080fd5b81356200112f816200143c565b600080600080600080600080610100898b0312156200158857600080fd5b883562001595816200143c565b97506020890135620015a7816200143c565b9650604089013595506060890135620015c0816200143c565b94506080890135935060a0890135925060c0890135915060e089013567ffffffffffffffff811115620015f257600080fd5b620016008b828c01620013cf565b9150509295985092959890939650565b634e487b7160e01b600052604160045260246000fd5b60405160c0810167ffffffffffffffff811182821017156200164c576200164c62001610565b60405290565b604051601f8201601f1916810167ffffffffffffffff811182821017156200167e576200167e62001610565b604052919050565b600067ffffffffffffffff821115620016a357620016a362001610565b50601f01601f191660200190565b600082601f830112620016c357600080fd5b8135620016da620016d48262001686565b62001652565b818152846020838601011115620016f057600080fd5b816020850160208301376000918101602001919091529392505050565b600060c082360312156200172057600080fd5b6200172a62001626565b823560ff811681146200173c57600080fd5b808252506020830135602082015260408301356040820152606083013560608201526080830135608082015260a083013567ffffffffffffffff8111156200178357600080fd5b6200179136828601620016b1565b60a08301525092915050565b60005b83811015620017ba578181015183820152602001620017a0565b50506000910152565b60008151808452620017dd8160208601602086016200179d565b601f01601f19169290920160200192915050565b60ff815116825260208101516020830152604081015160408301526060810151606083015260808101516080830152600060a082015160c060a08501526200183d60c0850182620017c3565b949350505050565b600060018060a01b038085168352604060208401528084511660408401525060208301516060830152604083015160808301526060830151608060a08401526200189360c0840182620017f1565b95945050505050565b600060208284031215620018af57600080fd5b81516200112f816200143c565b600060208284031215620018cf57600080fd5b815180151581146200112f57600080fd5b600060208284031215620018f357600080fd5b815167ffffffffffffffff8111156200190b57600080fd5b8201601f810184136200191d57600080fd5b80516200192e620016d48262001686565b8181528560208385010111156200194457600080fd5b620018938260208301602086016200179d565b6503632a7232a160d51b8152600083516200197a8160068501602088016200179d565b692052657365727665202360b01b6006918401918201528351620019a68160108401602088016200179d565b01601001949350505050565b623632a960e91b815260008351620019d28160038501602088016200179d565b602d60f81b6003918401918201528351620019f58160048401602088016200179d565b01600401949350505050565b6001600160a01b0387811682528681166020830152851660408201526101206060820181905260009062001a3883820187620017c3565b9050828103608084015262001a4e8186620017c3565b915050825460a0830152600183015460c0830152600283015460e08301526003830154610100830152979650505050505050565b8082018082111562000c4557634e487b7160e01b600052601160045260246000fd5b60018060a01b03841681528260208201526060604082015262001ad36060820183516001600160a01b03169052565b6000602083015162001af060808401826001600160a01b03169052565b5060408301516001600160a01b03811660a084015250606083015160c083015260808301516001600160a01b03811660e08401525060a0830151610100818185015260c08501519150610120828186015260e086015161014086015281860151925080610160860152505062001b6b610180840182620017f1565b9695505050505050565b60006020828403121562001b8857600080fd5b5051919050565b6020808252602b908201527f496e697469616c697a61626c653a20636f6e7472616374206973206e6f74206960408201526a6e697469616c697a696e6760a81b60608201526080019056fe60c06040523480156200001157600080fd5b506040516200293e3803806200293e8339810160408190526200003491620005be565b838383600362000045838262000743565b50600462000054828262000743565b5050506000806200006b83620001f860201b60201c565b915091508162000090576200008a620002df60201b62000e7a1760201c565b62000092565b805b60ff1660a05250506001600160a01b0316608052620000b133620002e4565b856001600160a01b031663f1be16796040518163ffffffff1660e01b8152600401602060405180830381865afa158015620000f0573d6000803e3d6000fd5b505050506040513d601f19601f820116820180604052508101906200011691906200080f565b6001600160a01b0316336001600160a01b0316146200018a5760405162461bcd60e51b815260206004820152602660248201527f52657365727665206d7573742062652063726561746564207468726f756768206044820152651b585c9ad95d60d21b606482015260840160405180910390fd5b600680546001600160a01b038089166001600160a01b03199283161790925560078054928716929091169190911790558051600b556020810151600c556040810151600d556060810151600e55620001e162000336565b620001ec85620002e4565b5050505050506200086e565b60408051600481526024810182526020810180516001600160e01b031663313ce56760e01b17905290516000918291829182916001600160a01b03871691620002419162000836565b6000604051808303816000865af19150503d806000811462000280576040519150601f19603f3d011682016040523d82523d6000602084013e62000285565b606091505b50915091508180156200029a57506020815110155b15620002d257600081806020019051810190620002b8919062000854565b905060ff8111620002d0576001969095509350505050565b505b5060009485945092505050565b601290565b600580546001600160a01b038381166001600160a01b0319831681179093556040519116919082907f8be0079c531659141344cd1fd0a4f28419497f9722a3daafe3b4186f6b6457e090600090a35050565b600660009054906101000a90046001600160a01b03166001600160a01b0316635257b5666040518163ffffffff1660e01b8152600401602060405180830381865afa1580156200038a573d6000803e3d6000fd5b505050506040513d601f19601f82011682018060405250810190620003b091906200080f565b6001600160a01b03166366c57dca620003c862000438565b6008546040516001600160e01b031960e085901b16815260048101929092526024820152604401602060405180830381865afa1580156200040d573d6000803e3d6000fd5b505050506040513d601f19601f8201168201806040525081019062000433919062000854565b600955565b6007546040516370a0823160e01b81523060048201526000916001600160a01b0316906370a0823190602401602060405180830381865afa15801562000482573d6000803e3d6000fd5b505050506040513d601f19601f82011682018060405250810190620004a8919062000854565b905090565b6001600160a01b0381168114620004c357600080fd5b50565b634e487b7160e01b600052604160045260246000fd5b604051608081016001600160401b0381118282101715620005015762000501620004c6565b60405290565b60005b83811015620005245781810151838201526020016200050a565b50506000910152565b600082601f8301126200053f57600080fd5b81516001600160401b03808211156200055c576200055c620004c6565b604051601f8301601f19908116603f01168101908282118183101715620005875762000587620004c6565b81604052838152866020858801011115620005a157600080fd5b620005b484602083016020890162000507565b9695505050505050565b600080600080600080868803610120811215620005da57600080fd5b8751620005e781620004ad565b6020890151909750620005fa81620004ad565b60408901519096506200060d81620004ad565b60608901519095506001600160401b03808211156200062b57600080fd5b620006398b838c016200052d565b955060808a01519150808211156200065057600080fd5b506200065f8a828b016200052d565b9350506080609f19820112156200067557600080fd5b5062000680620004dc565b60a0880151815260c0880151602082015260e088015160408201526101008801516060820152809150509295509295509295565b600181811c90821680620006c957607f821691505b602082108103620006ea57634e487b7160e01b600052602260045260246000fd5b50919050565b601f8211156200073e57600081815260208120601f850160051c81016020861015620007195750805b601f850160051c820191505b818110156200073a5782815560010162000725565b5050505b505050565b81516001600160401b038111156200075f576200075f620004c6565b6200077781620007708454620006b4565b84620006f0565b602080601f831160018114620007af5760008415620007965750858301515b600019600386901b1c1916600185901b1785556200073a565b600085815260208120601f198616915b82811015620007e057888601518255948401946001909101908401620007bf565b5085821015620007ff5787850151600019600388901b60f8161c191681555b5050505050600190811b01905550565b6000602082840312156200082257600080fd5b81516200082f81620004ad565b9392505050565b600082516200084a81846020870162000507565b9190910192915050565b6000602082840312156200086757600080fd5b5051919050565b60805160a05161209c620008a260003960006103440152600081816103700152818161174c015261180c015261209c6000f3fe608060405234801561001057600080fd5b506004361061027f5760003560e01c80638da5cb5b1161015c578063ba087652116100ce578063dd62ed3e11610087578063dd62ed3e1461055f578063e2c6743914610572578063ef8b30f714610526578063f2fde38b1461057a578063fbf419841461058d578063fef0bec81461059557600080fd5b8063ba087652146104f6578063ba1c5e8014610509578063c63d75b614610511578063c6e6f59214610526578063ce96cb7714610539578063d905777e1461054c57600080fd5b8063a4b84e0a11610120578063a4b84e0a1461049a578063a663f830146104a2578063a880e68b146104b5578063a9059cbb146104bd578063b3d7f6b9146104d0578063b460af94146104e357600080fd5b80638da5cb5b1461044857806394bf804d1461045957806395d89b411461046c578063a225869414610474578063a457c2d71461048757600080fd5b806338d52e0f116101f5578063545039c6116101b9578063545039c6146103d657806365ec4176146103e95780636e553f65146103fc57806370a082311461040f578063715018a61461043857806384bdc9a81461044057600080fd5b806338d52e0f1461036e57806339509351146103a8578063402d267d146103bb5780634a417a53146103ce5780634cdad506146102b457600080fd5b806314a6bf0f1161024757806314a6bf0f146102fd57806318160ddd146103055780631e522b291461030d57806323b872dd146103155780632806a74314610328578063313ce5671461033d57600080fd5b806301e1d1141461028457806306fdde031461029f57806307a2d13a146102b4578063095ea7b3146102c75780630a28a477146102ea575b600080fd5b61028c6105a8565b6040519081526020015b60405180910390f35b6102a76105c4565b6040516102969190611ce5565b61028c6102c2366004611d18565b610656565b6102da6102d5366004611d46565b610669565b6040519015158152602001610296565b61028c6102f8366004611d18565b610681565b60085461028c565b60025461028c565b600b5461028c565b6102da610323366004611d72565b61068e565b61033b610336366004611d18565b6106b4565b005b60405160ff7f0000000000000000000000000000000000000000000000000000000000000000168152602001610296565b7f00000000000000000000000000000000000000000000000000000000000000005b6040516001600160a01b039091168152602001610296565b6102da6103b6366004611d46565b6106c1565b61028c6103c9366004611db3565b6106e3565b61028c610701565b61033b6103e4366004611dd0565b6107ee565b61033b6103f7366004611d18565b6108f3565b61028c61040a366004611e0b565b610900565b61028c61041d366004611db3565b6001600160a01b031660009081526020819052604090205490565b61033b610973565b61028c610987565b6005546001600160a01b0316610390565b61028c610467366004611e0b565b6109c3565b6102a76109dd565b61033b610482366004611e3b565b6109ec565b6102da610495366004611d46565b610adb565b600d5461028c565b61033b6104b0366004611dd0565b610b61565b600e5461028c565b6102da6104cb366004611d46565b610c3e565b61028c6104de366004611d18565b610c4c565b61028c6104f1366004611e70565b610c59565b61028c610504366004611e70565b610cd5565b60095461028c565b61028c61051f366004611db3565b5060001990565b61028c610534366004611d18565b610d49565b61028c610547366004611db3565b610d56565b61028c61055a366004611db3565b610d7a565b61028c61056d366004611eb2565b610d98565b61028c610dc3565b61033b610588366004611db3565b610df4565b600c5461028c565b61033b6105a3366004611d18565b610e6d565b60006105b2610dc3565b6008546105bf9190611ef6565b905090565b6060600380546105d390611f09565b80601f01602080910402602001604051908101604052809291908181526020018280546105ff90611f09565b801561064c5780601f106106215761010080835404028352916020019161064c565b820191906000526020600020905b81548152906001019060200180831161062f57829003601f168201915b5050505050905090565b6000610663826000610e7f565b92915050565b600033610677818585610eb2565b5060019392505050565b6000610663826001610fd6565b60003361069c858285611008565b6106a785858561107c565b60019150505b9392505050565b6106bc611220565b600b55565b6000336106778185856106d48383610d98565b6106de9190611ef6565b610eb2565b60006106ed61127a565b6106f8576000610663565b60001992915050565b6006546040805163292bdab360e11b815290516000926001600160a01b031691635257b5669160048083019260209291908290030181865afa15801561074b573d6000803e3d6000fd5b505050506040513d601f19601f8201168201806040525081019061076f9190611f43565b6001600160a01b03166385c96306610785610dc3565b6008546040516001600160e01b031960e085901b168152600481019290925260248201526044015b602060405180830381865afa1580156107ca573d6000803e3d6000fd5b505050506040513d601f19601f820116820180604052508101906105bf9190611f60565b600660009054906101000a90046001600160a01b03166001600160a01b031663f1be16796040518163ffffffff1660e01b8152600401602060405180830381865afa158015610841573d6000803e3d6000fd5b505050506040513d601f19601f820116820180604052508101906108659190611f43565b6001600160a01b0316336001600160a01b03161461089e5760405162461bcd60e51b815260040161089590611f79565b60405180910390fd5b6108c184306108ad8487611ef6565b6007546001600160a01b0316929190611294565b6108cd600084846112ff565b82600860008282546108df9190611fb0565b909155506108ed905061139a565b50505050565b6108fb611220565b600e55565b600061090b826106e3565b83111561095a5760405162461bcd60e51b815260206004820152601e60248201527f455243343632363a206465706f736974206d6f7265207468616e206d617800006044820152606401610895565b600061096584610d49565b90506106ad33848684611494565b61097b611220565b6109856000611511565b565b600080806109936105a8565b11156109be576109a16105a8565b600854600a546109b19190611fc3565b6109bb9190611ff0565b90505b919050565b6000806109cf84610c4c565b90506106ad33848387611494565b6060600480546105d390611f09565b600660009054906101000a90046001600160a01b03166001600160a01b031663f1be16796040518163ffffffff1660e01b8152600401602060405180830381865afa158015610a3f573d6000803e3d6000fd5b505050506040513d601f19601f82011682018060405250810190610a639190611f43565b6001600160a01b0316336001600160a01b031614610a935760405162461bcd60e51b815260040161089590611f79565b600754610aaa906001600160a01b03168484611563565b610ab6600183836112ff565b8160086000828254610ac89190611ef6565b90915550610ad6905061139a565b505050565b60003381610ae98286610d98565b905083811015610b495760405162461bcd60e51b815260206004820152602560248201527f45524332303a2064656372656173656420616c6c6f77616e63652062656c6f77604482015264207a65726f60d81b6064820152608401610895565b610b568286868403610eb2565b506001949350505050565b600660009054906101000a90046001600160a01b03166001600160a01b031663f1be16796040518163ffffffff1660e01b8152600401602060405180830381865afa158015610bb4573d6000803e3d6000fd5b505050506040513d601f19601f82011682018060405250810190610bd89190611f43565b6001600160a01b0316336001600160a01b031614610c085760405162461bcd60e51b815260040161089590611f79565b600754610c20906001600160a01b0316853086611294565b610c2c600082846112ff565b80600860008282546108df9190611fb0565b60003361067781858561107c565b6000610663826001610e7f565b6000610c6482610d56565b841115610cb35760405162461bcd60e51b815260206004820152601f60248201527f455243343632363a207769746864726177206d6f7265207468616e206d6178006044820152606401610895565b6000610cbe85610681565b9050610ccd3385858885611593565b949350505050565b6000610ce082610d7a565b841115610d2f5760405162461bcd60e51b815260206004820152601d60248201527f455243343632363a2072656465656d206d6f7265207468616e206d61780000006044820152606401610895565b6000610d3a85610656565b9050610ccd3385858489611593565b6000610663826000610fd6565b6001600160a01b038116600090815260208190526040812054610663906000610e7f565b6001600160a01b038116600090815260208190526040812054610663565b6001600160a01b03918216600090815260016020908152604080832093909416825291909152205490565b6007546040516370a0823160e01b81523060048201526000916001600160a01b0316906370a08231906024016107ad565b610dfc611220565b6001600160a01b038116610e615760405162461bcd60e51b815260206004820152602660248201527f4f776e61626c653a206e6577206f776e657220697320746865207a65726f206160448201526564647265737360d01b6064820152608401610895565b610e6a81611511565b50565b610e75611220565b600c55565b601290565b600080610e8b60025490565b90508015610eac57610ea7610e9e6105a8565b85908386611618565b610ccd565b83610ccd565b6001600160a01b038316610f145760405162461bcd60e51b8152602060048201526024808201527f45524332303a20617070726f76652066726f6d20746865207a65726f206164646044820152637265737360e01b6064820152608401610895565b6001600160a01b038216610f755760405162461bcd60e51b815260206004820152602260248201527f45524332303a20617070726f766520746f20746865207a65726f206164647265604482015261737360f01b6064820152608401610895565b6001600160a01b0383811660008181526001602090815260408083209487168084529482529182902085905590518481527f8c5be1e5ebec7d5bd14f71427d1e84f3dd0314c0f7b2291e5b200ac8c7c3b925910160405180910390a3505050565b600080610fe260025490565b9050831580610fef575080155b610eac57610ea781610fff6105a8565b86919086611618565b60006110148484610d98565b905060001981146108ed578181101561106f5760405162461bcd60e51b815260206004820152601d60248201527f45524332303a20696e73756666696369656e7420616c6c6f77616e63650000006044820152606401610895565b6108ed8484848403610eb2565b6001600160a01b0383166110e05760405162461bcd60e51b815260206004820152602560248201527f45524332303a207472616e736665722066726f6d20746865207a65726f206164604482015264647265737360d81b6064820152608401610895565b6001600160a01b0382166111425760405162461bcd60e51b815260206004820152602360248201527f45524332303a207472616e7366657220746f20746865207a65726f206164647260448201526265737360e81b6064820152608401610895565b6001600160a01b038316600090815260208190526040902054818110156111ba5760405162461bcd60e51b815260206004820152602660248201527f45524332303a207472616e7366657220616d6f756e7420657863656564732062604482015265616c616e636560d01b6064820152608401610895565b6001600160a01b03848116600081815260208181526040808320878703905593871680835291849020805487019055925185815290927fddf252ad1be2c89b69c2b068fc378daa952ba7f163c4a11628f55a4df523b3ef910160405180910390a36108ed565b6005546001600160a01b031633146109855760405162461bcd60e51b815260206004820181905260248201527f4f776e61626c653a2063616c6c6572206973206e6f7420746865206f776e65726044820152606401610895565b6000806112856105a8565b11806105bf5750506002541590565b6040516001600160a01b03808516602483015283166044820152606481018290526108ed9085906323b872dd60e01b906084015b60408051601f198184030181529190526020810180516001600160e01b03166001600160e01b031990931692909217909152611675565b821561134957816008546113139190611ef6565b61131d8284611fc3565b600a5460085461132d9190611fc3565b6113379190611ef6565b6113419190611ff0565b600a55505050565b816008546113579190611fb0565b600003611368576000600a55505050565b816008546113769190611fb0565b6113808284611fc3565b600a546008546113909190611fc3565b6113379190611fb0565b600660009054906101000a90046001600160a01b03166001600160a01b0316635257b5666040518163ffffffff1660e01b8152600401602060405180830381865afa1580156113ed573d6000803e3d6000fd5b505050506040513d601f19601f820116820180604052508101906114119190611f43565b6001600160a01b03166366c57dca611427610dc3565b6008546040516001600160e01b031960e085901b16815260048101929092526024820152604401602060405180830381865afa15801561146b573d6000803e3d6000fd5b505050506040513d601f19601f8201168201806040525081019061148f9190611f60565b600955565b60405163521f866b60e11b81523060048201526024810183905273__$5201a97c05ba6aa659e2f36a933dd51801$__9063a43f0cd69060440160006040518083038186803b1580156114e557600080fd5b505af41580156114f9573d6000803e3d6000fd5b5050505061150984848484611747565b6108ed61139a565b600580546001600160a01b038381166001600160a01b0319831681179093556040519116919082907f8be0079c531659141344cd1fd0a4f28419497f9722a3daafe3b4186f6b6457e090600090a35050565b6040516001600160a01b038316602482015260448101829052610ad690849063a9059cbb60e01b906064016112c8565b60405163521f866b60e11b81523060048201526024810183905273__$5201a97c05ba6aa659e2f36a933dd51801$__9063a43f0cd69060440160006040518083038186803b1580156115e457600080fd5b505af41580156115f8573d6000803e3d6000fd5b5050505061160985858585856117d9565b61161161139a565b5050505050565b600080611626868686611899565b9050600183600281111561163c5761163c612012565b14801561165957506000848061165457611654611fda565b868809115b1561166c57611669600182611ef6565b90505b95945050505050565b60006116ca826040518060400160405280602081526020017f5361666545524332303a206c6f772d6c6576656c2063616c6c206661696c6564815250856001600160a01b03166119489092919063ffffffff16565b805190915015610ad657808060200190518101906116e89190612028565b610ad65760405162461bcd60e51b815260206004820152602a60248201527f5361666545524332303a204552433230206f7065726174696f6e20646964206e6044820152691bdd081cdd58d8d9595960b21b6064820152608401610895565b6117737f0000000000000000000000000000000000000000000000000000000000000000853085611294565b61177d8382611957565b826001600160a01b0316846001600160a01b03167fdcbc1c05240f31ff3ad067ef1ee35ce4997762752e3a095284754544f4c709d784846040516117cb929190918252602082015260400190565b60405180910390a350505050565b826001600160a01b0316856001600160a01b0316146117fd576117fd838683611008565b6118078382611a16565b6118327f00000000000000000000000000000000000000000000000000000000000000008584611563565b826001600160a01b0316846001600160a01b0316866001600160a01b03167ffbde797d201c681b91056529119e0b02407c7bb96a4a2c75c01fc9667232c8db858560405161188a929190918252602082015260400190565b60405180910390a45050505050565b60008080600019858709858702925082811083820303915050806000036118d3578382816118c9576118c9611fda565b04925050506106ad565b8084116118df57600080fd5b60008486880960026001871981018816978890046003810283188082028403028082028403028082028403028082028403028082028403029081029092039091026000889003889004909101858311909403939093029303949094049190911702949350505050565b6060610ccd8484600085611b48565b6001600160a01b0382166119ad5760405162461bcd60e51b815260206004820152601f60248201527f45524332303a206d696e7420746f20746865207a65726f2061646472657373006044820152606401610895565b80600260008282546119bf9190611ef6565b90915550506001600160a01b038216600081815260208181526040808320805486019055518481527fddf252ad1be2c89b69c2b068fc378daa952ba7f163c4a11628f55a4df523b3ef910160405180910390a35050565b6001600160a01b038216611a765760405162461bcd60e51b815260206004820152602160248201527f45524332303a206275726e2066726f6d20746865207a65726f206164647265736044820152607360f81b6064820152608401610895565b6001600160a01b03821660009081526020819052604090205481811015611aea5760405162461bcd60e51b815260206004820152602260248201527f45524332303a206275726e20616d6f756e7420657863656564732062616c616e604482015261636560f01b6064820152608401610895565b6001600160a01b0383166000818152602081815260408083208686039055600280548790039055518581529192917fddf252ad1be2c89b69c2b068fc378daa952ba7f163c4a11628f55a4df523b3ef910160405180910390a3505050565b606082471015611ba95760405162461bcd60e51b815260206004820152602660248201527f416464726573733a20696e73756666696369656e742062616c616e636520666f6044820152651c8818d85b1b60d21b6064820152608401610895565b600080866001600160a01b03168587604051611bc5919061204a565b60006040518083038185875af1925050503d8060008114611c02576040519150601f19603f3d011682016040523d82523d6000602084013e611c07565b606091505b5091509150611c1887838387611c23565b979650505050505050565b60608315611c92578251600003611c8b576001600160a01b0385163b611c8b5760405162461bcd60e51b815260206004820152601d60248201527f416464726573733a2063616c6c20746f206e6f6e2d636f6e74726163740000006044820152606401610895565b5081610ccd565b610ccd8383815115611ca75781518083602001fd5b8060405162461bcd60e51b81526004016108959190611ce5565b60005b83811015611cdc578181015183820152602001611cc4565b50506000910152565b6020815260008251806020840152611d04816040850160208701611cc1565b601f01601f19169190910160400192915050565b600060208284031215611d2a57600080fd5b5035919050565b6001600160a01b0381168114610e6a57600080fd5b60008060408385031215611d5957600080fd5b8235611d6481611d31565b946020939093013593505050565b600080600060608486031215611d8757600080fd5b8335611d9281611d31565b92506020840135611da281611d31565b929592945050506040919091013590565b600060208284031215611dc557600080fd5b81356106ad81611d31565b60008060008060808587031215611de657600080fd5b8435611df181611d31565b966020860135965060408601359560600135945092505050565b60008060408385031215611e1e57600080fd5b823591506020830135611e3081611d31565b809150509250929050565b600080600060608486031215611e5057600080fd5b8335611e5b81611d31565b95602085013595506040909401359392505050565b600080600060608486031215611e8557600080fd5b833592506020840135611e9781611d31565b91506040840135611ea781611d31565b809150509250925092565b60008060408385031215611ec557600080fd5b8235611ed081611d31565b91506020830135611e3081611d31565b634e487b7160e01b600052601160045260246000fd5b8082018082111561066357610663611ee0565b600181811c90821680611f1d57607f821691505b602082108103611f3d57634e487b7160e01b600052602260045260246000fd5b50919050565b600060208284031215611f5557600080fd5b81516106ad81611d31565b600060208284031215611f7257600080fd5b5051919050565b6020808252601f908201527f43616c6c657273206d757374206265204d61726b657420636f6e747261637400604082015260600190565b8181038181111561066357610663611ee0565b808202811582820484141761066357610663611ee0565b634e487b7160e01b600052601260045260246000fd5b60008261200d57634e487b7160e01b600052601260045260246000fd5b500490565b634e487b7160e01b600052602160045260246000fd5b60006020828403121561203a57600080fd5b815180151581146106ad57600080fd5b6000825161205c818460208701611cc1565b919091019291505056fea2646970667358221220cc8bf572ce400a242cd76679507584679b5315f6f8f9a26dbc410b90fd8fa17964736f6c63430008110033a2646970667358221220ed3da4c8078290910084a4362d861442b32d4350546b894b3ff6a7724833ba2f64736f6c63430008110033",
  "linkReferences": {
    "contracts/libraries/logic/BorrowLogic.sol": {
      "BorrowLogic": [
        {
          "length": 20,
          "start": 3272
        },
        {
          "length": 20,
          "start": 3586
        }
      ]
    },
    "contracts/libraries/logic/LiquidationLogic.sol": {
      "LiquidationLogic": [
        {
          "length": 20,
          "start": 770
        }
      ]
    },
    "contracts/libraries/logic/ValidationLogic.sol": {
      "ValidationLogic": [
        {
          "length": 20,
          "start": 14669
        },
        {
          "length": 20,
          "start": 14924
        }
      ]
    }
  },
  "deployedLinkReferences": {
    "contracts/libraries/logic/BorrowLogic.sol": {
      "BorrowLogic": [
        {
          "length": 20,
          "start": 3240
        },
        {
          "length": 20,
          "start": 3554
        }
      ]
    },
    "contracts/libraries/logic/LiquidationLogic.sol": {
      "LiquidationLogic": [
        {
          "length": 20,
          "start": 738
        }
      ]
    },
    "contracts/libraries/logic/ValidationLogic.sol": {
      "ValidationLogic": [
        {
          "length": 20,
          "start": 14637
        },
        {
          "length": 20,
          "start": 14892
        }
      ]
    }
  }
}