{
  "_format": "hh-sol-artifact-1",
  "contractName": "Market",
  "sourceName": "contracts/protocol/Market.sol",
  "abi": [
    {
      "anonymous": false,
      "inputs": [
        {
          "indexed": true,
          "internalType": "address",
          "name": "user",
          "type": "address"
        },
        {
          "indexed": true,
          "internalType": "address",
          "name": "asset",
          "type": "address"
        },
        {
          "indexed": true,
          "internalType": "address",
          "name": "nftAddress",
          "type": "address"
        },
        {
          "indexed": false,
          "internalType": "uint256",
          "name": "nftTokenID",
          "type": "uint256"
        },
        {
          "indexed": false,
          "internalType": "uint256",
          "name": "amount",
          "type": "uint256"
        }
      ],
      "name": "Borrow",
      "type": "event"
    },
    {
      "anonymous": false,
      "inputs": [
        {
          "indexed": true,
          "internalType": "address",
          "name": "user",
          "type": "address"
        },
        {
          "indexed": true,
          "internalType": "address",
          "name": "asset",
          "type": "address"
        },
        {
          "indexed": false,
          "internalType": "uint256",
          "name": "amount",
          "type": "uint256"
        }
      ],
      "name": "Deposit",
      "type": "event"
    },
    {
      "anonymous": false,
      "inputs": [
        {
          "indexed": false,
          "internalType": "uint8",
          "name": "version",
          "type": "uint8"
        }
      ],
      "name": "Initialized",
      "type": "event"
    },
    {
      "anonymous": false,
      "inputs": [
        {
          "indexed": true,
          "internalType": "address",
          "name": "user",
          "type": "address"
        },
        {
          "indexed": false,
          "internalType": "uint256",
          "name": "loanId",
          "type": "uint256"
        }
      ],
      "name": "Liquidate",
      "type": "event"
    },
    {
      "anonymous": false,
      "inputs": [
        {
          "indexed": true,
          "internalType": "address",
          "name": "previousOwner",
          "type": "address"
        },
        {
          "indexed": true,
          "internalType": "address",
          "name": "newOwner",
          "type": "address"
        }
      ],
      "name": "OwnershipTransferred",
      "type": "event"
    },
    {
      "anonymous": false,
      "inputs": [
        {
          "indexed": true,
          "internalType": "address",
          "name": "user",
          "type": "address"
        },
        {
          "indexed": false,
          "internalType": "uint256",
          "name": "loanId",
          "type": "uint256"
        }
      ],
      "name": "Repay",
      "type": "event"
    },
    {
      "anonymous": false,
      "inputs": [
        {
          "indexed": true,
          "internalType": "address",
          "name": "user",
          "type": "address"
        },
        {
          "indexed": true,
          "internalType": "address",
          "name": "asset",
          "type": "address"
        },
        {
          "indexed": false,
          "internalType": "uint256",
          "name": "amount",
          "type": "uint256"
        }
      ],
      "name": "Withdraw",
      "type": "event"
    },
    {
      "inputs": [
        {
          "internalType": "address",
          "name": "asset",
          "type": "address"
        },
        {
          "internalType": "address",
          "name": "reserveAddress",
          "type": "address"
        }
      ],
      "name": "addReserve",
      "outputs": [],
      "stateMutability": "nonpayable",
      "type": "function"
    },
    {
      "inputs": [
        {
          "internalType": "address",
          "name": "asset",
          "type": "address"
        },
        {
          "internalType": "uint256",
          "name": "amount",
          "type": "uint256"
        },
        {
          "internalType": "address",
          "name": "nftAddress",
          "type": "address"
        },
        {
          "internalType": "uint256",
          "name": "nftTokenID",
          "type": "uint256"
        },
        {
          "internalType": "bytes32",
          "name": "request",
          "type": "bytes32"
        },
        {
          "components": [
            {
              "internalType": "uint8",
              "name": "v",
              "type": "uint8"
            },
            {
              "internalType": "bytes32",
              "name": "r",
              "type": "bytes32"
            },
            {
              "internalType": "bytes32",
              "name": "s",
              "type": "bytes32"
            },
            {
              "internalType": "bytes32",
              "name": "request",
              "type": "bytes32"
            },
            {
              "internalType": "uint256",
              "name": "deadline",
              "type": "uint256"
            },
            {
              "internalType": "bytes",
              "name": "payload",
              "type": "bytes"
            }
          ],
          "internalType": "struct Trustus.TrustusPacket",
          "name": "packet",
          "type": "tuple"
        }
      ],
      "name": "borrow",
      "outputs": [],
      "stateMutability": "nonpayable",
      "type": "function"
    },
    {
      "inputs": [
        {
          "internalType": "address",
          "name": "asset",
          "type": "address"
        },
        {
          "internalType": "uint256",
          "name": "amount",
          "type": "uint256"
        }
      ],
      "name": "deposit",
      "outputs": [],
      "stateMutability": "nonpayable",
      "type": "function"
    },
    {
      "inputs": [
        {
          "internalType": "address",
          "name": "asset",
          "type": "address"
        }
      ],
      "name": "getReserveAddress",
      "outputs": [
        {
          "internalType": "address",
          "name": "",
          "type": "address"
        }
      ],
      "stateMutability": "view",
      "type": "function"
    },
    {
      "inputs": [
        {
          "internalType": "contract IAddressesProvider",
          "name": "addressesProvider",
          "type": "address"
        }
      ],
      "name": "initialize",
      "outputs": [],
      "stateMutability": "nonpayable",
      "type": "function"
    },
    {
      "inputs": [
        {
          "internalType": "address",
          "name": "asset",
          "type": "address"
        }
      ],
      "name": "isAssetSupported",
      "outputs": [
        {
          "internalType": "bool",
          "name": "",
          "type": "bool"
        }
      ],
      "stateMutability": "view",
      "type": "function"
    },
    {
      "inputs": [
        {
          "internalType": "uint256",
          "name": "loanId",
          "type": "uint256"
        },
        {
          "internalType": "bytes32",
          "name": "request",
          "type": "bytes32"
        },
        {
          "components": [
            {
              "internalType": "uint8",
              "name": "v",
              "type": "uint8"
            },
            {
              "internalType": "bytes32",
              "name": "r",
              "type": "bytes32"
            },
            {
              "internalType": "bytes32",
              "name": "s",
              "type": "bytes32"
            },
            {
              "internalType": "bytes32",
              "name": "request",
              "type": "bytes32"
            },
            {
              "internalType": "uint256",
              "name": "deadline",
              "type": "uint256"
            },
            {
              "internalType": "bytes",
              "name": "payload",
              "type": "bytes"
            }
          ],
          "internalType": "struct Trustus.TrustusPacket",
          "name": "packet",
          "type": "tuple"
        }
      ],
      "name": "liquidate",
      "outputs": [],
      "stateMutability": "nonpayable",
      "type": "function"
    },
    {
      "inputs": [],
      "name": "owner",
      "outputs": [
        {
          "internalType": "address",
          "name": "",
          "type": "address"
        }
      ],
      "stateMutability": "view",
      "type": "function"
    },
    {
      "inputs": [],
      "name": "renounceOwnership",
      "outputs": [],
      "stateMutability": "nonpayable",
      "type": "function"
    },
    {
      "inputs": [
        {
          "internalType": "uint256",
          "name": "loanId",
          "type": "uint256"
        }
      ],
      "name": "repay",
      "outputs": [],
      "stateMutability": "nonpayable",
      "type": "function"
    },
    {
      "inputs": [
        {
          "internalType": "address",
          "name": "newOwner",
          "type": "address"
        }
      ],
      "name": "transferOwnership",
      "outputs": [],
      "stateMutability": "nonpayable",
      "type": "function"
    },
    {
      "inputs": [
        {
          "internalType": "address",
          "name": "asset",
          "type": "address"
        },
        {
          "internalType": "uint256",
          "name": "amount",
          "type": "uint256"
        }
      ],
      "name": "withdraw",
      "outputs": [],
      "stateMutability": "nonpayable",
      "type": "function"
    }
  ],
  "bytecode": "0x608060405234801561001057600080fd5b50611caf806100206000396000f3fe608060405234801561001057600080fd5b50600436106100b45760003560e01c8063715018a611610071578063715018a6146101895780638da5cb5b14610193578063c4d66de8146101b1578063d40e1e09146101cd578063f2fde38b146101e9578063f3fef3a314610205576100b4565b80630586abad146100b957806319732621146100d5578063371fd8e6146100f1578063464b41581461010d57806347e7ef241461013d57806351e8b7fb14610159575b600080fd5b6100d360048036038101906100ce91906110d8565b610221565b005b6100ef60048036038101906100ea91906111a5565b610358565b005b61010b600480360381019061010691906111e5565b6104f5565b005b61012760048036038101906101229190611212565b610626565b604051610134919061125a565b60405180910390f35b61015760048036038101906101529190611275565b6106be565b005b610173600480360381019061016e9190611212565b6107e8565b60405161018091906112c4565b60405180910390f35b610191610851565b005b61019b6108d9565b6040516101a891906112c4565b60405180910390f35b6101cb60048036038101906101c6919061131d565b610903565b005b6101e760048036038101906101e2919061134a565b6109d9565b005b61020360048036038101906101fe9190611212565b610b5e565b005b61021f600480360381019061021a9190611275565b610c55565b005b600260655403610266576040517f08c379a000000000000000000000000000000000000000000000000000000000815260040161025d90611450565b60405180910390fd5b600260658190555073__$965b9be9fc5ba89821c2195a8bf360e455$__63aa9d40e1609860009054906101000a900473ffffffffffffffffffffffffffffffffffffffff168585856040518563ffffffff1660e01b81526004016102cd9493929190611723565b60006040518083038186803b1580156102e557600080fd5b505af41580156102f9573d6000803e3d6000fd5b505050503373ffffffffffffffffffffffffffffffffffffffff167f08813a3631e12129135cc9440d3fea50eec346f1673b20b994b0456d5d46ccb984604051610343919061177e565b60405180910390a26001606581905550505050565b610360610da3565b73ffffffffffffffffffffffffffffffffffffffff1661037e6108d9565b73ffffffffffffffffffffffffffffffffffffffff16146103d4576040517f08c379a00000000000000000000000000000000000000000000000000000000081526004016103cb906117e5565b60405180910390fd5b8173ffffffffffffffffffffffffffffffffffffffff1663095ea7b3827fffffffffffffffffffffffffffffffffffffffffffffffffffffffffffffffff6040518363ffffffff1660e01b815260040161042f929190611840565b6020604051808303816000875af115801561044e573d6000803e3d6000fd5b505050506040513d601f19601f820116820180604052508101906104729190611895565b5080609760008473ffffffffffffffffffffffffffffffffffffffff1673ffffffffffffffffffffffffffffffffffffffff16815260200190815260200160002060006101000a81548173ffffffffffffffffffffffffffffffffffffffff021916908373ffffffffffffffffffffffffffffffffffffffff1602179055505050565b60026065540361053a576040517f08c379a000000000000000000000000000000000000000000000000000000000815260040161053190611450565b60405180910390fd5b600260658190555073__$77c5a84c43428e206d5bf08427df63fefa$__6376aca941609860009054906101000a900473ffffffffffffffffffffffffffffffffffffffff16836040518363ffffffff1660e01b815260040161059d9291906118c2565b60006040518083038186803b1580156105b557600080fd5b505af41580156105c9573d6000803e3d6000fd5b505050503373ffffffffffffffffffffffffffffffffffffffff167f5c16de4f8b59bd9caf0f49a545f25819a895ed223294290b408242e72a59423182604051610613919061177e565b60405180910390a2600160658190555050565b60008073ffffffffffffffffffffffffffffffffffffffff16609760008473ffffffffffffffffffffffffffffffffffffffff1673ffffffffffffffffffffffffffffffffffffffff16815260200190815260200160002060009054906101000a900473ffffffffffffffffffffffffffffffffffffffff1673ffffffffffffffffffffffffffffffffffffffff1614159050919050565b600260655403610703576040517f08c379a00000000000000000000000000000000000000000000000000000000081526004016106fa90611450565b60405180910390fd5b600260658190555073__$2f7c76ee15bdc1d8f3b34a04b86951fc56$__63dc3103e7609784846040518463ffffffff1660e01b815260040161074793929190611901565b60006040518083038186803b15801561075f57600080fd5b505af4158015610773573d6000803e3d6000fd5b505050508173ffffffffffffffffffffffffffffffffffffffff163373ffffffffffffffffffffffffffffffffffffffff167f5548c837ab068cf56a2c2479df0882a4922fd203edb7517321831d95078c5f62836040516107d4919061177e565b60405180910390a360016065819055505050565b6000609760008373ffffffffffffffffffffffffffffffffffffffff1673ffffffffffffffffffffffffffffffffffffffff16815260200190815260200160002060009054906101000a900473ffffffffffffffffffffffffffffffffffffffff169050919050565b610859610da3565b73ffffffffffffffffffffffffffffffffffffffff166108776108d9565b73ffffffffffffffffffffffffffffffffffffffff16146108cd576040517f08c379a00000000000000000000000000000000000000000000000000000000081526004016108c4906117e5565b60405180910390fd5b6108d76000610dab565b565b6000603360009054906101000a900473ffffffffffffffffffffffffffffffffffffffff16905090565b600061090f6001610e71565b90508015610933576001600060016101000a81548160ff0219169083151502179055505b61093b610f61565b81609860006101000a81548173ffffffffffffffffffffffffffffffffffffffff021916908373ffffffffffffffffffffffffffffffffffffffff16021790555080156109d55760008060016101000a81548160ff0219169083151502179055507f7f26b83ff96e1f2b6a682f133852f6798a09c465da95921460cefb384740249860016040516109cc9190611973565b60405180910390a15b5050565b600260655403610a1e576040517f08c379a0000000000000000000000000000000000000000000000000000000008152600401610a1590611450565b60405180910390fd5b600260658190555073__$77c5a84c43428e206d5bf08427df63fefa$__63bbc7e40f609860009054906101000a900473ffffffffffffffffffffffffffffffffffffffff1660978989898989896040518963ffffffff1660e01b8152600401610a8e98979695949392919061198e565b602060405180830381865af4158015610aab573d6000803e3d6000fd5b505050506040513d601f19601f82011682018060405250810190610acf9190611a28565b508373ffffffffffffffffffffffffffffffffffffffff168673ffffffffffffffffffffffffffffffffffffffff163373ffffffffffffffffffffffffffffffffffffffff167f96558a334f4759f0e7c423d68c84721860bd8fbf94ddc4e55158ecb125ad04b58689604051610b46929190611a55565b60405180910390a46001606581905550505050505050565b610b66610da3565b73ffffffffffffffffffffffffffffffffffffffff16610b846108d9565b73ffffffffffffffffffffffffffffffffffffffff1614610bda576040517f08c379a0000000000000000000000000000000000000000000000000000000008152600401610bd1906117e5565b60405180910390fd5b600073ffffffffffffffffffffffffffffffffffffffff168173ffffffffffffffffffffffffffffffffffffffff1603610c49576040517f08c379a0000000000000000000000000000000000000000000000000000000008152600401610c4090611af0565b60405180910390fd5b610c5281610dab565b50565b600260655403610c9a576040517f08c379a0000000000000000000000000000000000000000000000000000000008152600401610c9190611450565b60405180910390fd5b600260658190555073__$2f7c76ee15bdc1d8f3b34a04b86951fc56$__63fc414f7b609860009054906101000a900473ffffffffffffffffffffffffffffffffffffffff16609785856040518563ffffffff1660e01b8152600401610d029493929190611b10565b60006040518083038186803b158015610d1a57600080fd5b505af4158015610d2e573d6000803e3d6000fd5b505050508173ffffffffffffffffffffffffffffffffffffffff163373ffffffffffffffffffffffffffffffffffffffff167f9b1bfa7fa9ee420a16e124f794c35ac9f90472acc99140eb2f6447c714cad8eb83604051610d8f919061177e565b60405180910390a360016065819055505050565b600033905090565b6000603360009054906101000a900473ffffffffffffffffffffffffffffffffffffffff16905081603360006101000a81548173ffffffffffffffffffffffffffffffffffffffff021916908373ffffffffffffffffffffffffffffffffffffffff1602179055508173ffffffffffffffffffffffffffffffffffffffff168173ffffffffffffffffffffffffffffffffffffffff167f8be0079c531659141344cd1fd0a4f28419497f9722a3daafe3b4186f6b6457e060405160405180910390a35050565b60008060019054906101000a900460ff1615610ee85760018260ff16148015610ea05750610e9e30610fba565b155b610edf576040517f08c379a0000000000000000000000000000000000000000000000000000000008152600401610ed690611bc7565b60405180910390fd5b60009050610f5c565b8160ff1660008054906101000a900460ff1660ff1610610f3d576040517f08c379a0000000000000000000000000000000000000000000000000000000008152600401610f3490611bc7565b60405180910390fd5b816000806101000a81548160ff021916908360ff160217905550600190505b919050565b600060019054906101000a900460ff16610fb0576040517f08c379a0000000000000000000000000000000000000000000000000000000008152600401610fa790611c59565b60405180910390fd5b610fb8610fdd565b565b6000808273ffffffffffffffffffffffffffffffffffffffff163b119050919050565b600060019054906101000a900460ff1661102c576040517f08c379a000000000000000000000000000000000000000000000000000000000815260040161102390611c59565b60405180910390fd5b61103c611037610da3565b610dab565b565b600080fd5b600080fd5b6000819050919050565b61105b81611048565b811461106657600080fd5b50565b60008135905061107881611052565b92915050565b6000819050919050565b6110918161107e565b811461109c57600080fd5b50565b6000813590506110ae81611088565b92915050565b600080fd5b600060c082840312156110cf576110ce6110b4565b5b81905092915050565b6000806000606084860312156110f1576110f061103e565b5b60006110ff86828701611069565b93505060206111108682870161109f565b925050604084013567ffffffffffffffff81111561113157611130611043565b5b61113d868287016110b9565b9150509250925092565b600073ffffffffffffffffffffffffffffffffffffffff82169050919050565b600061117282611147565b9050919050565b61118281611167565b811461118d57600080fd5b50565b60008135905061119f81611179565b92915050565b600080604083850312156111bc576111bb61103e565b5b60006111ca85828601611190565b92505060206111db85828601611190565b9150509250929050565b6000602082840312156111fb576111fa61103e565b5b600061120984828501611069565b91505092915050565b6000602082840312156112285761122761103e565b5b600061123684828501611190565b91505092915050565b60008115159050919050565b6112548161123f565b82525050565b600060208201905061126f600083018461124b565b92915050565b6000806040838503121561128c5761128b61103e565b5b600061129a85828601611190565b92505060206112ab85828601611069565b9150509250929050565b6112be81611167565b82525050565b60006020820190506112d960008301846112b5565b92915050565b60006112ea82611167565b9050919050565b6112fa816112df565b811461130557600080fd5b50565b600081359050611317816112f1565b92915050565b6000602082840312156113335761133261103e565b5b600061134184828501611308565b91505092915050565b60008060008060008060c087890312156113675761136661103e565b5b600061137589828a01611190565b965050602061138689828a01611069565b955050604061139789828a01611190565b94505060606113a889828a01611069565b93505060806113b989828a0161109f565b92505060a087013567ffffffffffffffff8111156113da576113d9611043565b5b6113e689828a016110b9565b9150509295509295509295565b600082825260208201905092915050565b7f5265656e7472616e637947756172643a207265656e7472616e742063616c6c00600082015250565b600061143a601f836113f3565b915061144582611404565b602082019050919050565b600060208201905081810360008301526114698161142d565b9050919050565b6000819050919050565b600061149561149061148b84611147565b611470565b611147565b9050919050565b60006114a78261147a565b9050919050565b60006114b98261149c565b9050919050565b6114c9816114ae565b82525050565b6114d881611048565b82525050565b6114e78161107e565b82525050565b600060ff82169050919050565b611503816114ed565b811461150e57600080fd5b50565b600081359050611520816114fa565b92915050565b60006115356020840184611511565b905092915050565b611546816114ed565b82525050565b600061155b602084018461109f565b905092915050565b61156c8161107e565b82525050565b60006115816020840184611069565b905092915050565b61159281611048565b82525050565b600080fd5b600080fd5b600080fd5b600080833560016020038436030381126115c4576115c36115a2565b5b83810192508235915060208301925067ffffffffffffffff8211156115ec576115eb611598565b5b6001820236038313156116025761160161159d565b5b509250929050565b600082825260208201905092915050565b82818337600083830152505050565b6000601f19601f8301169050919050565b6000611647838561160a565b935061165483858461161b565b61165d8361162a565b840190509392505050565b600060c0830161167b6000840184611526565b611688600086018261153d565b50611696602084018461154c565b6116a36020860182611563565b506116b1604084018461154c565b6116be6040860182611563565b506116cc606084018461154c565b6116d96060860182611563565b506116e76080840184611572565b6116f46080860182611589565b5061170260a08401846115a7565b85830360a087015261171583828461163b565b925050508091505092915050565b600060808201905061173860008301876114c0565b61174560208301866114cf565b61175260408301856114de565b81810360608301526117648184611668565b905095945050505050565b61177881611048565b82525050565b6000602082019050611793600083018461176f565b92915050565b7f4f776e61626c653a2063616c6c6572206973206e6f7420746865206f776e6572600082015250565b60006117cf6020836113f3565b91506117da82611799565b602082019050919050565b600060208201905081810360008301526117fe816117c2565b9050919050565b6000819050919050565b600061182a61182561182084611805565b611470565b611048565b9050919050565b61183a8161180f565b82525050565b600060408201905061185560008301856112b5565b6118626020830184611831565b9392505050565b6118728161123f565b811461187d57600080fd5b50565b60008151905061188f81611869565b92915050565b6000602082840312156118ab576118aa61103e565b5b60006118b984828501611880565b91505092915050565b60006040820190506118d760008301856114c0565b6118e460208301846114cf565b9392505050565b8082525050565b6118fb81611167565b82525050565b600060608201905061191660008301866118eb565b61192360208301856118f2565b61193060408301846114cf565b949350505050565b6000819050919050565b600061195d61195861195384611938565b611470565b6114ed565b9050919050565b61196d81611942565b82525050565b60006020820190506119886000830184611964565b92915050565b6000610100820190506119a4600083018b6114c0565b6119b1602083018a6118eb565b6119be60408301896118f2565b6119cb60608301886114cf565b6119d860808301876118f2565b6119e560a08301866114cf565b6119f260c08301856114de565b81810360e0830152611a048184611668565b90509998505050505050505050565b600081519050611a2281611052565b92915050565b600060208284031215611a3e57611a3d61103e565b5b6000611a4c84828501611a13565b91505092915050565b6000604082019050611a6a600083018561176f565b611a77602083018461176f565b9392505050565b7f4f776e61626c653a206e6577206f776e657220697320746865207a65726f206160008201527f6464726573730000000000000000000000000000000000000000000000000000602082015250565b6000611ada6026836113f3565b9150611ae582611a7e565b604082019050919050565b60006020820190508181036000830152611b0981611acd565b9050919050565b6000608082019050611b2560008301876114c0565b611b3260208301866118eb565b611b3f60408301856118f2565b611b4c60608301846114cf565b95945050505050565b7f496e697469616c697a61626c653a20636f6e747261637420697320616c72656160008201527f647920696e697469616c697a6564000000000000000000000000000000000000602082015250565b6000611bb1602e836113f3565b9150611bbc82611b55565b604082019050919050565b60006020820190508181036000830152611be081611ba4565b9050919050565b7f496e697469616c697a61626c653a20636f6e7472616374206973206e6f74206960008201527f6e697469616c697a696e67000000000000000000000000000000000000000000602082015250565b6000611c43602b836113f3565b9150611c4e82611be7565b604082019050919050565b60006020820190508181036000830152611c7281611c36565b905091905056fea2646970667358221220be6f3353e53a0f73921430ed4e63a65a4fc1acd3f12a2b6752d90af71584db4d64736f6c634300080f0033",
  "linkReferences": {
    "contracts/libraries/logic/BorrowLogic.sol": {
      "BorrowLogic": [
        {
          "length": 20,
          "start": 1380
        },
        {
          "length": 20,
          "start": 2632
        }
      ]
    },
    "contracts/libraries/logic/LiquidationLogic.sol": {
      "LiquidationLogic": [
        {
          "length": 20,
          "start": 656
        }
      ]
    },
    "contracts/libraries/logic/SupplyLogic.sol": {
      "SupplyLogic": [
        {
          "length": 20,
          "start": 1837
        },
        {
          "length": 20,
          "start": 3268
        }
      ]
    }
  },
  "deployedLinkReferences": {
    "contracts/libraries/logic/BorrowLogic.sol": {
      "BorrowLogic": [
        {
          "length": 20,
          "start": 1348
        },
        {
          "length": 20,
          "start": 2600
        }
      ]
    },
    "contracts/libraries/logic/LiquidationLogic.sol": {
      "LiquidationLogic": [
        {
          "length": 20,
          "start": 624
        }
      ]
    },
    "contracts/libraries/logic/SupplyLogic.sol": {
      "SupplyLogic": [
        {
          "length": 20,
          "start": 1805
        },
        {
          "length": 20,
          "start": 3236
        }
      ]
    }
  }
}