{
  "_format": "hh-sol-artifact-1",
  "contractName": "Market",
  "sourceName": "contracts/protocol/Market.sol",
  "abi": [
    {
      "anonymous": false,
      "inputs": [
        {
          "indexed": false,
          "internalType": "uint8",
          "name": "version",
          "type": "uint8"
        }
      ],
      "name": "Initialized",
      "type": "event"
    },
    {
      "anonymous": false,
      "inputs": [
        {
          "indexed": true,
          "internalType": "address",
          "name": "previousOwner",
          "type": "address"
        },
        {
          "indexed": true,
          "internalType": "address",
          "name": "newOwner",
          "type": "address"
        }
      ],
      "name": "OwnershipTransferred",
      "type": "event"
    },
    {
      "inputs": [
        {
          "internalType": "address",
          "name": "asset",
          "type": "address"
        },
        {
          "internalType": "address",
          "name": "reserveAddress",
          "type": "address"
        }
      ],
      "name": "addReserve",
      "outputs": [],
      "stateMutability": "nonpayable",
      "type": "function"
    },
    {
      "inputs": [
        {
          "internalType": "address",
          "name": "asset",
          "type": "address"
        },
        {
          "internalType": "uint256",
          "name": "amount",
          "type": "uint256"
        },
        {
          "internalType": "address",
          "name": "nftAddress",
          "type": "address"
        },
        {
          "internalType": "uint256",
          "name": "nftTokenID",
          "type": "uint256"
        }
      ],
      "name": "borrow",
      "outputs": [],
      "stateMutability": "nonpayable",
      "type": "function"
    },
    {
      "inputs": [
        {
          "internalType": "address",
          "name": "asset",
          "type": "address"
        },
        {
          "internalType": "uint256",
          "name": "amount",
          "type": "uint256"
        }
      ],
      "name": "deposit",
      "outputs": [],
      "stateMutability": "nonpayable",
      "type": "function"
    },
    {
      "inputs": [
        {
          "internalType": "address",
          "name": "asset",
          "type": "address"
        }
      ],
      "name": "getReserveAddress",
      "outputs": [
        {
          "internalType": "address",
          "name": "",
          "type": "address"
        }
      ],
      "stateMutability": "view",
      "type": "function"
    },
    {
      "inputs": [
        {
          "internalType": "contract IMarketAddressesProvider",
          "name": "addressesProvider",
          "type": "address"
        }
      ],
      "name": "initialize",
      "outputs": [],
      "stateMutability": "nonpayable",
      "type": "function"
    },
    {
      "inputs": [
        {
          "internalType": "uint256",
          "name": "loanId",
          "type": "uint256"
        }
      ],
      "name": "liquidate",
      "outputs": [],
      "stateMutability": "nonpayable",
      "type": "function"
    },
    {
      "inputs": [],
      "name": "owner",
      "outputs": [
        {
          "internalType": "address",
          "name": "",
          "type": "address"
        }
      ],
      "stateMutability": "view",
      "type": "function"
    },
    {
      "inputs": [],
      "name": "renounceOwnership",
      "outputs": [],
      "stateMutability": "nonpayable",
      "type": "function"
    },
    {
      "inputs": [
        {
          "internalType": "uint256",
          "name": "loanId",
          "type": "uint256"
        }
      ],
      "name": "repay",
      "outputs": [],
      "stateMutability": "nonpayable",
      "type": "function"
    },
    {
      "inputs": [
        {
          "internalType": "address",
          "name": "newOwner",
          "type": "address"
        }
      ],
      "name": "transferOwnership",
      "outputs": [],
      "stateMutability": "nonpayable",
      "type": "function"
    },
    {
      "inputs": [
        {
          "internalType": "address",
          "name": "asset",
          "type": "address"
        },
        {
          "internalType": "uint256",
          "name": "amount",
          "type": "uint256"
        }
      ],
      "name": "withdraw",
      "outputs": [],
      "stateMutability": "nonpayable",
      "type": "function"
    }
  ],
  "bytecode": "0x608060405234801561001057600080fd5b5061144f806100206000396000f3fe608060405234801561001057600080fd5b50600436106100a95760003560e01c8063715018a611610071578063715018a61461014e5780638da5cb5b14610158578063c4d66de814610176578063d028053914610192578063f2fde38b146101ae578063f3fef3a3146101ca576100a9565b806319732621146100ae578063371fd8e6146100ca578063415f1240146100e657806347e7ef241461010257806351e8b7fb1461011e575b600080fd5b6100c860048036038101906100c39190610d3f565b6101e6565b005b6100e460048036038101906100df9190610db5565b6102e4565b005b61010060048036038101906100fb9190610db5565b6103c7565b005b61011c60048036038101906101179190610de2565b6104aa565b005b61013860048036038101906101339190610e22565b61056f565b6040516101459190610e5e565b60405180910390f35b6101566105d8565b005b610160610660565b60405161016d9190610e5e565b60405180910390f35b610190600480360381019061018b9190610eb7565b61068a565b005b6101ac60048036038101906101a79190610ee4565b610760565b005b6101c860048036038101906101c39190610e22565b610861565b005b6101e460048036038101906101df9190610de2565b610958565b005b6101ee610a41565b73ffffffffffffffffffffffffffffffffffffffff1661020c610660565b73ffffffffffffffffffffffffffffffffffffffff1614610262576040517f08c379a000000000000000000000000000000000000000000000000000000000815260040161025990610fa8565b60405180910390fd5b80606560008473ffffffffffffffffffffffffffffffffffffffff1673ffffffffffffffffffffffffffffffffffffffff16815260200190815260200160002060006101000a81548173ffffffffffffffffffffffffffffffffffffffff021916908373ffffffffffffffffffffffffffffffffffffffff1602179055505050565b600160675403610329576040517f08c379a000000000000000000000000000000000000000000000000000000000815260040161032090611014565b60405180910390fd5b600160678190555073__$77c5a84c43428e206d5bf08427df63fefa$__63c6467547606660009054906101000a900473ffffffffffffffffffffffffffffffffffffffff16836040518363ffffffff1660e01b815260040161038c9291906110a2565b60006040518083038186803b1580156103a457600080fd5b505af41580156103b8573d6000803e3d6000fd5b50505050600060678190555050565b60016067540361040c576040517f08c379a000000000000000000000000000000000000000000000000000000000815260040161040390611014565b60405180910390fd5b600160678190555073__$965b9be9fc5ba89821c2195a8bf360e455$__6333f5d93b606660009054906101000a900473ffffffffffffffffffffffffffffffffffffffff16836040518363ffffffff1660e01b815260040161046f9291906110a2565b60006040518083038186803b15801561048757600080fd5b505af415801561049b573d6000803e3d6000fd5b50505050600060678190555050565b6001606754036104ef576040517f08c379a00000000000000000000000000000000000000000000000000000000081526004016104e690611014565b60405180910390fd5b600160678190555073__$2f7c76ee15bdc1d8f3b34a04b86951fc56$__63dc3103e7606584846040518463ffffffff1660e01b8152600401610533939291906110e1565b60006040518083038186803b15801561054b57600080fd5b505af415801561055f573d6000803e3d6000fd5b5050505060006067819055505050565b6000606560008373ffffffffffffffffffffffffffffffffffffffff1673ffffffffffffffffffffffffffffffffffffffff16815260200190815260200160002060009054906101000a900473ffffffffffffffffffffffffffffffffffffffff169050919050565b6105e0610a41565b73ffffffffffffffffffffffffffffffffffffffff166105fe610660565b73ffffffffffffffffffffffffffffffffffffffff1614610654576040517f08c379a000000000000000000000000000000000000000000000000000000000815260040161064b90610fa8565b60405180910390fd5b61065e6000610a49565b565b6000603360009054906101000a900473ffffffffffffffffffffffffffffffffffffffff16905090565b60006106966001610b0f565b905080156106ba576001600060016101000a81548160ff0219169083151502179055505b6106c2610bff565b81606660006101000a81548173ffffffffffffffffffffffffffffffffffffffff021916908373ffffffffffffffffffffffffffffffffffffffff160217905550801561075c5760008060016101000a81548160ff0219169083151502179055507f7f26b83ff96e1f2b6a682f133852f6798a09c465da95921460cefb384740249860016040516107539190611160565b60405180910390a15b5050565b6001606754036107a5576040517f08c379a000000000000000000000000000000000000000000000000000000000815260040161079c90611014565b60405180910390fd5b600160678190555073__$77c5a84c43428e206d5bf08427df63fefa$__638222b26c606660009054906101000a900473ffffffffffffffffffffffffffffffffffffffff166065878787876040518763ffffffff1660e01b81526004016108119695949392919061117b565b602060405180830381865af415801561082e573d6000803e3d6000fd5b505050506040513d601f19601f8201168201806040525081019061085291906111f1565b50600060678190555050505050565b610869610a41565b73ffffffffffffffffffffffffffffffffffffffff16610887610660565b73ffffffffffffffffffffffffffffffffffffffff16146108dd576040517f08c379a00000000000000000000000000000000000000000000000000000000081526004016108d490610fa8565b60405180910390fd5b600073ffffffffffffffffffffffffffffffffffffffff168173ffffffffffffffffffffffffffffffffffffffff160361094c576040517f08c379a000000000000000000000000000000000000000000000000000000000815260040161094390611290565b60405180910390fd5b61095581610a49565b50565b60016067540361099d576040517f08c379a000000000000000000000000000000000000000000000000000000000815260040161099490611014565b60405180910390fd5b600160678190555073__$2f7c76ee15bdc1d8f3b34a04b86951fc56$__63b8d4ee5c606660009054906101000a900473ffffffffffffffffffffffffffffffffffffffff16606585856040518563ffffffff1660e01b8152600401610a0594939291906112b0565b60006040518083038186803b158015610a1d57600080fd5b505af4158015610a31573d6000803e3d6000fd5b5050505060006067819055505050565b600033905090565b6000603360009054906101000a900473ffffffffffffffffffffffffffffffffffffffff16905081603360006101000a81548173ffffffffffffffffffffffffffffffffffffffff021916908373ffffffffffffffffffffffffffffffffffffffff1602179055508173ffffffffffffffffffffffffffffffffffffffff168173ffffffffffffffffffffffffffffffffffffffff167f8be0079c531659141344cd1fd0a4f28419497f9722a3daafe3b4186f6b6457e060405160405180910390a35050565b60008060019054906101000a900460ff1615610b865760018260ff16148015610b3e5750610b3c30610c58565b155b610b7d576040517f08c379a0000000000000000000000000000000000000000000000000000000008152600401610b7490611367565b60405180910390fd5b60009050610bfa565b8160ff1660008054906101000a900460ff1660ff1610610bdb576040517f08c379a0000000000000000000000000000000000000000000000000000000008152600401610bd290611367565b60405180910390fd5b816000806101000a81548160ff021916908360ff160217905550600190505b919050565b600060019054906101000a900460ff16610c4e576040517f08c379a0000000000000000000000000000000000000000000000000000000008152600401610c45906113f9565b60405180910390fd5b610c56610c7b565b565b6000808273ffffffffffffffffffffffffffffffffffffffff163b119050919050565b600060019054906101000a900460ff16610cca576040517f08c379a0000000000000000000000000000000000000000000000000000000008152600401610cc1906113f9565b60405180910390fd5b610cda610cd5610a41565b610a49565b565b600080fd5b600073ffffffffffffffffffffffffffffffffffffffff82169050919050565b6000610d0c82610ce1565b9050919050565b610d1c81610d01565b8114610d2757600080fd5b50565b600081359050610d3981610d13565b92915050565b60008060408385031215610d5657610d55610cdc565b5b6000610d6485828601610d2a565b9250506020610d7585828601610d2a565b9150509250929050565b6000819050919050565b610d9281610d7f565b8114610d9d57600080fd5b50565b600081359050610daf81610d89565b92915050565b600060208284031215610dcb57610dca610cdc565b5b6000610dd984828501610da0565b91505092915050565b60008060408385031215610df957610df8610cdc565b5b6000610e0785828601610d2a565b9250506020610e1885828601610da0565b9150509250929050565b600060208284031215610e3857610e37610cdc565b5b6000610e4684828501610d2a565b91505092915050565b610e5881610d01565b82525050565b6000602082019050610e736000830184610e4f565b92915050565b6000610e8482610d01565b9050919050565b610e9481610e79565b8114610e9f57600080fd5b50565b600081359050610eb181610e8b565b92915050565b600060208284031215610ecd57610ecc610cdc565b5b6000610edb84828501610ea2565b91505092915050565b60008060008060808587031215610efe57610efd610cdc565b5b6000610f0c87828801610d2a565b9450506020610f1d87828801610da0565b9350506040610f2e87828801610d2a565b9250506060610f3f87828801610da0565b91505092959194509250565b600082825260208201905092915050565b7f4f776e61626c653a2063616c6c6572206973206e6f7420746865206f776e6572600082015250565b6000610f92602083610f4b565b9150610f9d82610f5c565b602082019050919050565b60006020820190508181036000830152610fc181610f85565b9050919050565b7f5265656e7472616e637947756172643a207265656e7472616e742063616c6c00600082015250565b6000610ffe601f83610f4b565b915061100982610fc8565b602082019050919050565b6000602082019050818103600083015261102d81610ff1565b9050919050565b6000819050919050565b600061105961105461104f84610ce1565b611034565b610ce1565b9050919050565b600061106b8261103e565b9050919050565b600061107d82611060565b9050919050565b61108d81611072565b82525050565b61109c81610d7f565b82525050565b60006040820190506110b76000830185611084565b6110c46020830184611093565b9392505050565b8082525050565b6110db81610d01565b82525050565b60006060820190506110f660008301866110cb565b61110360208301856110d2565b6111106040830184611093565b949350505050565b6000819050919050565b600060ff82169050919050565b600061114a61114561114084611118565b611034565b611122565b9050919050565b61115a8161112f565b82525050565b60006020820190506111756000830184611151565b92915050565b600060c0820190506111906000830189611084565b61119d60208301886110cb565b6111aa60408301876110d2565b6111b76060830186611093565b6111c460808301856110d2565b6111d160a0830184611093565b979650505050505050565b6000815190506111eb81610d89565b92915050565b60006020828403121561120757611206610cdc565b5b6000611215848285016111dc565b91505092915050565b7f4f776e61626c653a206e6577206f776e657220697320746865207a65726f206160008201527f6464726573730000000000000000000000000000000000000000000000000000602082015250565b600061127a602683610f4b565b91506112858261121e565b604082019050919050565b600060208201905081810360008301526112a98161126d565b9050919050565b60006080820190506112c56000830187611084565b6112d260208301866110cb565b6112df60408301856110d2565b6112ec6060830184611093565b95945050505050565b7f496e697469616c697a61626c653a20636f6e747261637420697320616c72656160008201527f647920696e697469616c697a6564000000000000000000000000000000000000602082015250565b6000611351602e83610f4b565b915061135c826112f5565b604082019050919050565b6000602082019050818103600083015261138081611344565b9050919050565b7f496e697469616c697a61626c653a20636f6e7472616374206973206e6f74206960008201527f6e697469616c697a696e67000000000000000000000000000000000000000000602082015250565b60006113e3602b83610f4b565b91506113ee82611387565b604082019050919050565b60006020820190508181036000830152611412816113d6565b905091905056fea264697066735822122077067a8837868f1217e3d056b405d0ef527e81f6356c7c3d5c6fba3bf1a8c7e764736f6c634300080f0033",
  "linkReferences": {
    "contracts/libraries/logic/BorrowLogic.sol": {
      "BorrowLogic": [
        {
          "length": 20,
          "start": 851
        },
        {
          "length": 20,
          "start": 1999
        }
      ]
    },
    "contracts/libraries/logic/LiquidationLogic.sol": {
      "LiquidationLogic": [
        {
          "length": 20,
          "start": 1078
        }
      ]
    },
    "contracts/libraries/logic/SupplyLogic.sol": {
      "SupplyLogic": [
        {
          "length": 20,
          "start": 1305
        },
        {
          "length": 20,
          "start": 2503
        }
      ]
    }
  },
  "deployedLinkReferences": {
    "contracts/libraries/logic/BorrowLogic.sol": {
      "BorrowLogic": [
        {
          "length": 20,
          "start": 819
        },
        {
          "length": 20,
          "start": 1967
        }
      ]
    },
    "contracts/libraries/logic/LiquidationLogic.sol": {
      "LiquidationLogic": [
        {
          "length": 20,
          "start": 1046
        }
      ]
    },
    "contracts/libraries/logic/SupplyLogic.sol": {
      "SupplyLogic": [
        {
          "length": 20,
          "start": 1273
        },
        {
          "length": 20,
          "start": 2471
        }
      ]
    }
  }
}