{
  "_format": "hh-sol-artifact-1",
  "contractName": "Market",
  "sourceName": "contracts/protocol/Market.sol",
  "abi": [
    {
      "anonymous": false,
      "inputs": [
        {
          "indexed": true,
          "internalType": "address",
          "name": "user",
          "type": "address"
        },
        {
          "indexed": true,
          "internalType": "address",
          "name": "asset",
          "type": "address"
        },
        {
          "indexed": true,
          "internalType": "address",
          "name": "nftAddress",
          "type": "address"
        },
        {
          "indexed": false,
          "internalType": "uint256",
          "name": "nftTokenID",
          "type": "uint256"
        },
        {
          "indexed": false,
          "internalType": "uint256",
          "name": "amount",
          "type": "uint256"
        }
      ],
      "name": "Borrow",
      "type": "event"
    },
    {
      "anonymous": false,
      "inputs": [
        {
          "indexed": true,
          "internalType": "address",
          "name": "reserve",
          "type": "address"
        }
      ],
      "name": "CreateReserve",
      "type": "event"
    },
    {
      "anonymous": false,
      "inputs": [
        {
          "indexed": true,
          "internalType": "address",
          "name": "user",
          "type": "address"
        },
        {
          "indexed": true,
          "internalType": "address",
          "name": "reserve",
          "type": "address"
        },
        {
          "indexed": false,
          "internalType": "uint256",
          "name": "amount",
          "type": "uint256"
        }
      ],
      "name": "Deposit",
      "type": "event"
    },
    {
      "anonymous": false,
      "inputs": [
        {
          "indexed": false,
          "internalType": "uint8",
          "name": "version",
          "type": "uint8"
        }
      ],
      "name": "Initialized",
      "type": "event"
    },
    {
      "anonymous": false,
      "inputs": [
        {
          "indexed": true,
          "internalType": "address",
          "name": "user",
          "type": "address"
        },
        {
          "indexed": true,
          "internalType": "uint256",
          "name": "loanId",
          "type": "uint256"
        }
      ],
      "name": "Liquidate",
      "type": "event"
    },
    {
      "anonymous": false,
      "inputs": [
        {
          "indexed": true,
          "internalType": "address",
          "name": "previousOwner",
          "type": "address"
        },
        {
          "indexed": true,
          "internalType": "address",
          "name": "newOwner",
          "type": "address"
        }
      ],
      "name": "OwnershipTransferred",
      "type": "event"
    },
    {
      "anonymous": false,
      "inputs": [
        {
          "indexed": true,
          "internalType": "address",
          "name": "user",
          "type": "address"
        },
        {
          "indexed": true,
          "internalType": "uint256",
          "name": "loanId",
          "type": "uint256"
        }
      ],
      "name": "Repay",
      "type": "event"
    },
    {
      "anonymous": false,
      "inputs": [
        {
          "indexed": true,
          "internalType": "address",
          "name": "collection",
          "type": "address"
        },
        {
          "indexed": true,
          "internalType": "address",
          "name": "asset",
          "type": "address"
        },
        {
          "indexed": true,
          "internalType": "address",
          "name": "reserve",
          "type": "address"
        }
      ],
      "name": "SetReserve",
      "type": "event"
    },
    {
      "anonymous": false,
      "inputs": [
        {
          "indexed": true,
          "internalType": "address",
          "name": "user",
          "type": "address"
        },
        {
          "indexed": true,
          "internalType": "address",
          "name": "reserve",
          "type": "address"
        },
        {
          "indexed": false,
          "internalType": "uint256",
          "name": "amount",
          "type": "uint256"
        }
      ],
      "name": "Withdraw",
      "type": "event"
    },
    {
      "inputs": [
        {
          "internalType": "address",
          "name": "asset",
          "type": "address"
        },
        {
          "internalType": "uint256",
          "name": "amount",
          "type": "uint256"
        },
        {
          "internalType": "address",
          "name": "nftAddress",
          "type": "address"
        },
        {
          "internalType": "uint256",
          "name": "nftTokenId",
          "type": "uint256"
        },
        {
          "internalType": "uint256",
          "name": "genesisNFTId",
          "type": "uint256"
        },
        {
          "internalType": "bytes32",
          "name": "request",
          "type": "bytes32"
        },
        {
          "components": [
            {
              "internalType": "uint8",
              "name": "v",
              "type": "uint8"
            },
            {
              "internalType": "bytes32",
              "name": "r",
              "type": "bytes32"
            },
            {
              "internalType": "bytes32",
              "name": "s",
              "type": "bytes32"
            },
            {
              "internalType": "bytes32",
              "name": "request",
              "type": "bytes32"
            },
            {
              "internalType": "uint256",
              "name": "deadline",
              "type": "uint256"
            },
            {
              "internalType": "bytes",
              "name": "payload",
              "type": "bytes"
            }
          ],
          "internalType": "struct Trustus.TrustusPacket",
          "name": "packet",
          "type": "tuple"
        }
      ],
      "name": "borrow",
      "outputs": [],
      "stateMutability": "nonpayable",
      "type": "function"
    },
    {
      "inputs": [
        {
          "internalType": "uint256",
          "name": "amount",
          "type": "uint256"
        },
        {
          "internalType": "address",
          "name": "nftAddress",
          "type": "address"
        },
        {
          "internalType": "uint256",
          "name": "nftTokenId",
          "type": "uint256"
        },
        {
          "internalType": "uint256",
          "name": "genesisNFTId",
          "type": "uint256"
        },
        {
          "internalType": "bytes32",
          "name": "request",
          "type": "bytes32"
        },
        {
          "components": [
            {
              "internalType": "uint8",
              "name": "v",
              "type": "uint8"
            },
            {
              "internalType": "bytes32",
              "name": "r",
              "type": "bytes32"
            },
            {
              "internalType": "bytes32",
              "name": "s",
              "type": "bytes32"
            },
            {
              "internalType": "bytes32",
              "name": "request",
              "type": "bytes32"
            },
            {
              "internalType": "uint256",
              "name": "deadline",
              "type": "uint256"
            },
            {
              "internalType": "bytes",
              "name": "payload",
              "type": "bytes"
            }
          ],
          "internalType": "struct Trustus.TrustusPacket",
          "name": "packet",
          "type": "tuple"
        }
      ],
      "name": "borrowETH",
      "outputs": [],
      "stateMutability": "nonpayable",
      "type": "function"
    },
    {
      "inputs": [
        {
          "internalType": "address",
          "name": "collection",
          "type": "address"
        },
        {
          "internalType": "address",
          "name": "asset",
          "type": "address"
        }
      ],
      "name": "createReserve",
      "outputs": [],
      "stateMutability": "nonpayable",
      "type": "function"
    },
    {
      "inputs": [
        {
          "internalType": "address",
          "name": "reserve",
          "type": "address"
        },
        {
          "internalType": "uint256",
          "name": "amount",
          "type": "uint256"
        }
      ],
      "name": "deposit",
      "outputs": [],
      "stateMutability": "nonpayable",
      "type": "function"
    },
    {
      "inputs": [
        {
          "internalType": "address",
          "name": "reserve",
          "type": "address"
        }
      ],
      "name": "depositETH",
      "outputs": [],
      "stateMutability": "payable",
      "type": "function"
    },
    {
      "inputs": [],
      "name": "getDefaultLiquidationPenalty",
      "outputs": [
        {
          "internalType": "uint256",
          "name": "",
          "type": "uint256"
        }
      ],
      "stateMutability": "view",
      "type": "function"
    },
    {
      "inputs": [],
      "name": "getDefaultMaximumUtilizationRate",
      "outputs": [
        {
          "internalType": "uint256",
          "name": "",
          "type": "uint256"
        }
      ],
      "stateMutability": "view",
      "type": "function"
    },
    {
      "inputs": [],
      "name": "getDefaultProtocolLiquidationFee",
      "outputs": [
        {
          "internalType": "uint256",
          "name": "",
          "type": "uint256"
        }
      ],
      "stateMutability": "view",
      "type": "function"
    },
    {
      "inputs": [],
      "name": "getDefaultTVLSafeguard",
      "outputs": [
        {
          "internalType": "uint256",
          "name": "",
          "type": "uint256"
        }
      ],
      "stateMutability": "view",
      "type": "function"
    },
    {
      "inputs": [
        {
          "internalType": "address",
          "name": "collection",
          "type": "address"
        },
        {
          "internalType": "address",
          "name": "asset",
          "type": "address"
        }
      ],
      "name": "getReserve",
      "outputs": [
        {
          "internalType": "address",
          "name": "",
          "type": "address"
        }
      ],
      "stateMutability": "view",
      "type": "function"
    },
    {
      "inputs": [
        {
          "internalType": "contract IAddressesProvider",
          "name": "addressesProvider",
          "type": "address"
        },
        {
          "components": [
            {
              "internalType": "uint256",
              "name": "liquidationPenalty",
              "type": "uint256"
            },
            {
              "internalType": "uint256",
              "name": "protocolLiquidationFee",
              "type": "uint256"
            },
            {
              "internalType": "uint256",
              "name": "maximumUtilizationRate",
              "type": "uint256"
            },
            {
              "internalType": "uint256",
              "name": "tvlSafeguard",
              "type": "uint256"
            }
          ],
          "internalType": "struct DataTypes.ReserveParams",
          "name": "defaultReserveParams",
          "type": "tuple"
        }
      ],
      "name": "initialize",
      "outputs": [],
      "stateMutability": "nonpayable",
      "type": "function"
    },
    {
      "inputs": [
        {
          "internalType": "uint256",
          "name": "loanId",
          "type": "uint256"
        },
        {
          "internalType": "bytes32",
          "name": "request",
          "type": "bytes32"
        },
        {
          "components": [
            {
              "internalType": "uint8",
              "name": "v",
              "type": "uint8"
            },
            {
              "internalType": "bytes32",
              "name": "r",
              "type": "bytes32"
            },
            {
              "internalType": "bytes32",
              "name": "s",
              "type": "bytes32"
            },
            {
              "internalType": "bytes32",
              "name": "request",
              "type": "bytes32"
            },
            {
              "internalType": "uint256",
              "name": "deadline",
              "type": "uint256"
            },
            {
              "internalType": "bytes",
              "name": "payload",
              "type": "bytes"
            }
          ],
          "internalType": "struct Trustus.TrustusPacket",
          "name": "packet",
          "type": "tuple"
        }
      ],
      "name": "liquidate",
      "outputs": [],
      "stateMutability": "nonpayable",
      "type": "function"
    },
    {
      "inputs": [],
      "name": "owner",
      "outputs": [
        {
          "internalType": "address",
          "name": "",
          "type": "address"
        }
      ],
      "stateMutability": "view",
      "type": "function"
    },
    {
      "inputs": [],
      "name": "renounceOwnership",
      "outputs": [],
      "stateMutability": "nonpayable",
      "type": "function"
    },
    {
      "inputs": [
        {
          "internalType": "uint256",
          "name": "loanId",
          "type": "uint256"
        },
        {
          "internalType": "uint256",
          "name": "amount",
          "type": "uint256"
        }
      ],
      "name": "repay",
      "outputs": [],
      "stateMutability": "nonpayable",
      "type": "function"
    },
    {
      "inputs": [
        {
          "internalType": "uint256",
          "name": "loanId",
          "type": "uint256"
        }
      ],
      "name": "repayETH",
      "outputs": [],
      "stateMutability": "payable",
      "type": "function"
    },
    {
      "inputs": [
        {
          "internalType": "address",
          "name": "collection",
          "type": "address"
        },
        {
          "internalType": "address",
          "name": "asset",
          "type": "address"
        },
        {
          "internalType": "address",
          "name": "reserve",
          "type": "address"
        }
      ],
      "name": "setCollectionReserve",
      "outputs": [],
      "stateMutability": "nonpayable",
      "type": "function"
    },
    {
      "inputs": [
        {
          "internalType": "uint256",
          "name": "liquidationPenalty",
          "type": "uint256"
        }
      ],
      "name": "setDefaultLiquidationPenalty",
      "outputs": [],
      "stateMutability": "nonpayable",
      "type": "function"
    },
    {
      "inputs": [
        {
          "internalType": "uint256",
          "name": "maximumUtilizationRate",
          "type": "uint256"
        }
      ],
      "name": "setDefaultMaximumUtilizationRate",
      "outputs": [],
      "stateMutability": "nonpayable",
      "type": "function"
    },
    {
      "inputs": [
        {
          "internalType": "uint256",
          "name": "protocolLiquidationFee",
          "type": "uint256"
        }
      ],
      "name": "setDefaultProtocolLiquidationFee",
      "outputs": [],
      "stateMutability": "nonpayable",
      "type": "function"
    },
    {
      "inputs": [
        {
          "internalType": "uint256",
          "name": "tvlSafeguard",
          "type": "uint256"
        }
      ],
      "name": "setDefaultTVLSafeguard",
      "outputs": [],
      "stateMutability": "nonpayable",
      "type": "function"
    },
    {
      "inputs": [
        {
          "internalType": "address",
          "name": "newOwner",
          "type": "address"
        }
      ],
      "name": "transferOwnership",
      "outputs": [],
      "stateMutability": "nonpayable",
      "type": "function"
    },
    {
      "inputs": [
        {
          "internalType": "address",
          "name": "reserve",
          "type": "address"
        },
        {
          "internalType": "uint256",
          "name": "amount",
          "type": "uint256"
        }
      ],
      "name": "withdraw",
      "outputs": [],
      "stateMutability": "nonpayable",
      "type": "function"
    },
    {
      "inputs": [
        {
          "internalType": "address",
          "name": "reserve",
          "type": "address"
        },
        {
          "internalType": "uint256",
          "name": "amount",
          "type": "uint256"
        }
      ],
      "name": "withdrawETH",
      "outputs": [],
      "stateMutability": "nonpayable",
      "type": "function"
    },
    {
      "stateMutability": "payable",
      "type": "receive"
    }
  ],
  "bytecode": "0x608060405234801561001057600080fd5b506150e3806100206000396000f3fe6080604052600436106200016a5760003560e01c8063a99ab94811620000c5578063cbc3ab531162000078578063cbc3ab5314620003dd578063d8aed1451462000402578063ed4a376e1462000427578063f2fde38b146200044c578063f3fef3a31462000471578063fa4494e9146200049657600080fd5b8063a99ab948146200031b578063acd73e021462000340578063adeb468b1462000365578063b1cd7fab146200037c578063b667335214620003a1578063bdc1c70914620003c657600080fd5b80634470afa4116200011e5780634470afa4146200023b5780634782f779146200026057806347e7ef241462000285578063715018a614620002aa57806380419cb514620002c25780638da5cb5b14620002e757600080fd5b806204c4fd14620001775780630541da8e146200019e5780630586abad14620001c35780631f7a92b214620001e85780632247463e146200020d5780632d2da806146200022457600080fd5b366200017257005b600080fd5b3480156200018457600080fd5b506200019c62000196366004620024ba565b620004ad565b005b348015620001ab57600080fd5b506200019c620001bd36600462002535565b62000796565b348015620001d057600080fd5b506200019c620001e23660046200254f565b620007a5565b348015620001f557600080fd5b506200019c62000207366004620025a3565b620008a5565b6200019c6200021e36600462002535565b620009f8565b6200019c62000235366004620025e8565b62000c50565b3480156200024857600080fd5b506200019c6200025a36600462002535565b62000fcf565b3480156200026d57600080fd5b506200019c6200027f36600462002608565b62000fde565b3480156200029257600080fd5b506200019c620002a436600462002608565b6200134c565b348015620002b757600080fd5b506200019c620014a9565b348015620002cf57600080fd5b50609c545b6040519081526020015b60405180910390f35b348015620002f457600080fd5b506033546001600160a01b03165b6040516001600160a01b039091168152602001620002de565b3480156200032857600080fd5b506200019c6200033a36600462002637565b620014c1565b3480156200034d57600080fd5b506200019c6200035f36600462002689565b620014d8565b3480156200037257600080fd5b50609e54620002d4565b3480156200038957600080fd5b506200019c6200039b366004620026c7565b62001bba565b348015620003ae57600080fd5b506200019c620003c036600462002535565b62001d4d565b348015620003d357600080fd5b50609d54620002d4565b348015620003ea57600080fd5b5062000302620003fc36600462002689565b62001d5c565b3480156200040f57600080fd5b506200019c6200042136600462002758565b62001d8b565b3480156200043457600080fd5b506200019c6200044636600462002535565b62001e84565b3480156200045957600080fd5b506200019c6200046b366004620025e8565b62001e93565b3480156200047e57600080fd5b506200019c6200049036600462002608565b62001f0f565b348015620004a357600080fd5b50609b54620002d4565b620004b762002040565b609a5460408051636572f88f60e11b815290516000926001600160a01b03169163cae5f11e9160048083019260209291908290030181865afa15801562000502573d6000803e3d6000fd5b505050506040513d601f19601f820116820180604052508101906200052891906200277b565b609a5460408051610120810182523381523060208201526001600160a01b0380851692820192909252606081018b9052898216608082015260a0810189905260c0810188905260e08101879052929350839273__$77c5a84c43428e206d5bf08427df63fefa$__9263a6b290dd9216906097906101008101620005ab8962002898565b8152506040518463ffffffff1660e01b8152600401620005ce93929190620029d0565b602060405180830381865af4158015620005ec573d6000803e3d6000fd5b505050506040513d601f19601f8201168201806040525081019062000612919062002aa1565b50604051632e1a7d4d60e01b8152600481018990526001600160a01b03821690632e1a7d4d90602401600060405180830381600087803b1580156200065657600080fd5b505af11580156200066b573d6000803e3d6000fd5b505050506000620006793390565b6001600160a01b03168960405160006040518083038185875af1925050503d8060008114620006c5576040519150601f19603f3d011682016040523d82523d6000602084013e620006ca565b606091505b5050905080620007185760405162461bcd60e51b81526020600482015260146024820152732330b4b632b2103a379039b2b7321022ba3432b960611b60448201526064015b60405180910390fd5b876001600160a01b0316836001600160a01b0316620007343390565b6001600160a01b03167f96558a334f4759f0e7c423d68c84721860bd8fbf94ddc4e55158ecb125ad04b58a8d60405162000778929190918252602082015260400190565b60405180910390a45050506200078e6001606555565b505050505050565b620007a06200209b565b609e55565b620007af62002040565b609a54604080516080810182523381526020810186905290810184905273__$965b9be9fc5ba89821c2195a8bf360e455$__9163245fa182916001600160a01b039091169060608101620008038662002898565b8152506040518363ffffffff1660e01b81526004016200082592919062002abb565b60006040518083038186803b1580156200083e57600080fd5b505af415801562000853573d6000803e3d6000fd5b5050505082620008603390565b6001600160a01b03167f08813a3631e12129135cc9440d3fea50eec346f1673b20b994b0456d5d46ccb960405160405180910390a3620008a06001606555565b505050565b600054610100900460ff1615808015620008c65750600054600160ff909116105b80620008e25750303b158015620008e2575060005460ff166001145b620009475760405162461bcd60e51b815260206004820152602e60248201527f496e697469616c697a61626c653a20636f6e747261637420697320616c72656160448201526d191e481a5b9a5d1a585b1a5e995960921b60648201526084016200070f565b6000805460ff1916600117905580156200096b576000805461ff0019166101001790555b62000975620020f7565b609a80546001600160a01b0319166001600160a01b0385161790558135609b556020820135609c556040820135609d556060820135609e558015620008a0576000805461ff0019169055604051600181527f7f26b83ff96e1f2b6a682f133852f6798a09c465da95921460cefb38474024989060200160405180910390a1505050565b62000a0262002040565b609a5460408051636572f88f60e11b815290516000926001600160a01b03169163cae5f11e9160048083019260209291908290030181865afa15801562000a4d573d6000803e3d6000fd5b505050506040513d601f19601f8201168201806040525081019062000a7391906200277b565b90506000819050806001600160a01b031663d0e30db0346040518263ffffffff1660e01b81526004016000604051808303818588803b15801562000ab657600080fd5b505af115801562000acb573d6000803e3d6000fd5b5050505050806001600160a01b031663a9059cbb62000ae73390565b6040516001600160e01b031960e084901b1681526001600160a01b0390911660048201523460248201526044016020604051808303816000875af115801562000b34573d6000803e3d6000fd5b505050506040513d601f19601f8201168201806040525081019062000b5a919062002b12565b50609a546040805160608101825233815260208101868152348284019081528351634e0be51f60e11b81526001600160a01b03958616600482015292519094166024830152516044820152915160648301525173__$77c5a84c43428e206d5bf08427df63fefa$__91639c17ca3e916084808301926000929190829003018186803b15801562000be957600080fd5b505af415801562000bfe573d6000803e3d6000fd5b505050508262000c0b3390565b6001600160a01b03167f5c16de4f8b59bd9caf0f49a545f25819a895ed223294290b408242e72a59423160405160405180910390a3505062000c4d6001606555565b50565b62000c5a62002040565b609a5460408051636572f88f60e11b815290516000926001600160a01b03169163cae5f11e9160048083019260209291908290030181865afa15801562000ca5573d6000803e3d6000fd5b505050506040513d601f19601f8201168201806040525081019062000ccb91906200277b565b6001600160a01b03831660009081526098602052604090205490915060ff16151560011462000d0e5760405162461bcd60e51b81526004016200070f9062002b36565b806001600160a01b0316826001600160a01b0316635c222bad6040518163ffffffff1660e01b8152600401602060405180830381865afa15801562000d57573d6000803e3d6000fd5b505050506040513d601f19601f8201168201806040525081019062000d7d91906200277b565b6001600160a01b03161462000dd55760405162461bcd60e51b815260206004820152601e60248201527f5265736572766520756e6465726c79696e67206973206e6f742057455448000060448201526064016200070f565b6000819050806001600160a01b031663d0e30db0346040518263ffffffff1660e01b81526004016000604051808303818588803b15801562000e1657600080fd5b505af115801562000e2b573d6000803e3d6000fd5b5050505050806001600160a01b031663a9059cbb62000e473390565b6040516001600160e01b031960e084901b1681526001600160a01b0390911660048201523460248201526044016020604051808303816000875af115801562000e94573d6000803e3d6000fd5b505050506040513d601f19601f8201168201806040525081019062000eba919062002b12565b5073__$2f7c76ee15bdc1d8f3b34a04b86951fc56$__63c08469fd604051806060016040528062000ee83390565b6001600160a01b0390811682528781166020808401919091523460409384015282516001600160e01b031960e087901b168152845183166004820152908401519091166024820152910151604482015260640160006040518083038186803b15801562000f5457600080fd5b505af415801562000f69573d6000803e3d6000fd5b50505050826001600160a01b031662000f7f3390565b6001600160a01b03167f5548c837ab068cf56a2c2479df0882a4922fd203edb7517321831d95078c5f623460405162000fba91815260200190565b60405180910390a3505062000c4d6001606555565b62000fd96200209b565b609b55565b62000fe862002040565b609a5460408051636572f88f60e11b815290516000926001600160a01b03169163cae5f11e9160048083019260209291908290030181865afa15801562001033573d6000803e3d6000fd5b505050506040513d601f19601f820116820180604052508101906200105991906200277b565b6001600160a01b03841660009081526098602052604090205490915060ff1615156001146200109c5760405162461bcd60e51b81526004016200070f9062002b36565b806001600160a01b0316836001600160a01b0316635c222bad6040518163ffffffff1660e01b8152600401602060405180830381865afa158015620010e5573d6000803e3d6000fd5b505050506040513d601f19601f820116820180604052508101906200110b91906200277b565b6001600160a01b031614620011635760405162461bcd60e51b815260206004820152601e60248201527f5265736572766520756e6465726c79696e67206973206e6f742057455448000060448201526064016200070f565b609a54604080516080810182523381526001600160a01b0386811660208301523082840152606082018690529151639b129db560e01b815273__$2f7c76ee15bdc1d8f3b34a04b86951fc56$__93639b129db593620011c89391169160040162002b5f565b60006040518083038186803b158015620011e157600080fd5b505af4158015620011f6573d6000803e3d6000fd5b5050604051632e1a7d4d60e01b8152600481018590526001600160a01b0384169250632e1a7d4d9150602401600060405180830381600087803b1580156200123d57600080fd5b505af115801562001252573d6000803e3d6000fd5b505050506000620012603390565b6001600160a01b03168360405160006040518083038185875af1925050503d8060008114620012ac576040519150601f19603f3d011682016040523d82523d6000602084013e620012b1565b606091505b5050905080620012fb5760405162461bcd60e51b81526020600482015260146024820152732330b4b632b2103a379039b2b7321022ba3432b960611b60448201526064016200070f565b6040518381526001600160a01b0385169033907f9b1bfa7fa9ee420a16e124f794c35ac9f90472acc99140eb2f6447c714cad8eb9060200160405180910390a35050620013486001606555565b5050565b6200135662002040565b6001600160a01b03821660009081526098602052604090205460ff161515600114620013965760405162461bcd60e51b81526004016200070f9062002b36565b73__$2f7c76ee15bdc1d8f3b34a04b86951fc56$__63c08469fd6040518060600160405280620013c33390565b6001600160a01b039081168252868116602080840191909152604092830187905282516001600160e01b031960e087901b168152845183166004820152908401519091166024820152910151604482015260640160006040518083038186803b1580156200143057600080fd5b505af415801562001445573d6000803e3d6000fd5b50505050816001600160a01b03166200145b3390565b6001600160a01b03167f5548c837ab068cf56a2c2479df0882a4922fd203edb7517321831d95078c5f62836040516200149691815260200190565b60405180910390a3620013486001606555565b620014b36200209b565b620014bf60006200212b565b565b620014cb6200209b565b620008a08383836200217d565b620014f46001600160a01b0383166380ac58cd60e01b620021e4565b620015565760405162461bcd60e51b815260206004820152602b60248201527f436f6c6c656374696f6e2061646472657373206973206e6f742045524337323160448201526a1031b7b6b83634b0b73a1760a91b60648201526084016200070f565b609a60009054906101000a90046001600160a01b03166001600160a01b031663cfeed1816040518163ffffffff1660e01b8152600401602060405180830381865afa158015620015aa573d6000803e3d6000fd5b505050506040513d601f19601f82011682018060405250810190620015d091906200277b565b6040516375151b6360e01b81526001600160a01b03838116600483015291909116906375151b6390602401602060405180830381865afa15801562001619573d6000803e3d6000fd5b505050506040513d601f19601f820116820180604052508101906200163f919062002b12565b620016975760405162461bcd60e51b815260206004820152602160248201527f556e6465726c79696e67204173736574206973206e6f7420737570706f7274656044820152601960fa1b60648201526084016200070f565b6001600160a01b03828116600090815260976020908152604080832085851684529091529020541615620017075760405162461bcd60e51b81526020600482015260166024820152755265736572766520616c72656164792065786973747360501b60448201526064016200070f565b609a546000906001600160a01b0316620017296033546001600160a01b031690565b83846001600160a01b03166395d89b416040518163ffffffff1660e01b8152600401600060405180830381865afa15801562001769573d6000803e3d6000fd5b505050506040513d6000823e601f3d908101601f1916820160405262001793919081019062002ba3565b6001600160a01b038616600090815260996020526040902054620017b7906200220c565b604051602001620017ca92919062002c1a565b604051602081830303815290604052856001600160a01b03166395d89b416040518163ffffffff1660e01b8152600401600060405180830381865afa15801562001818573d6000803e3d6000fd5b505050506040513d6000823e601f3d908101601f1916820160405262001842919081019062002ba3565b6001600160a01b03871660009081526099602052604090205462001866906200220c565b6040516020016200187992919062002c75565b604051602081830303815290604052609b60405162001898906200247d565b620018a99695949392919062002cc4565b604051809103906000f080158015620018c6573d6000803e3d6000fd5b5060405163095ea7b360e01b81526001600160a01b03808316600483015260001960248301529192509083169063095ea7b3906044016020604051808303816000875af11580156200191c573d6000803e3d6000fd5b505050506040513d601f19601f8201168201806040525081019062001942919062002b12565b50826001600160a01b031663e985e9c5609a60009054906101000a90046001600160a01b03166001600160a01b031663536223646040518163ffffffff1660e01b8152600401602060405180830381865afa158015620019a6573d6000803e3d6000fd5b505050506040513d601f19601f82011682018060405250810190620019cc91906200277b565b6040516001600160e01b031960e084901b1681526001600160a01b039091166004820152306024820152604401602060405180830381865afa15801562001a17573d6000803e3d6000fd5b505050506040513d601f19601f8201168201806040525081019062001a3d919062002b12565b151560000362001b2157609a60009054906101000a90046001600160a01b03166001600160a01b031663536223646040518163ffffffff1660e01b8152600401602060405180830381865afa15801562001a9b573d6000803e3d6000fd5b505050506040513d601f19601f8201168201806040525081019062001ac191906200277b565b604051631578b62760e11b81526001600160a01b0385811660048301529190911690632af16c4e90602401600060405180830381600087803b15801562001b0757600080fd5b505af115801562001b1c573d6000803e3d6000fd5b505050505b6001600160a01b0381166000908152609860205260409020805460ff1916600117905562001b518383836200217d565b6001600160a01b038216600090815260996020526040812080546001929062001b7c90849062002d45565b90915550506040516001600160a01b038216907f62bc44df7dccd51a32794da404454232658add2bef839a8e3629ed5c980daabf90600090a2505050565b62001bc462002040565b73__$77c5a84c43428e206d5bf08427df63fefa$__63a6b290dd609a60009054906101000a90046001600160a01b0316609760405180610120016040528062001c0a3390565b6001600160a01b03168152602001336001600160a01b031681526020018c6001600160a01b031681526020018b81526020018a6001600160a01b031681526020018981526020018881526020018781526020018662001c699062002898565b8152506040518463ffffffff1660e01b815260040162001c8c93929190620029d0565b602060405180830381865af415801562001caa573d6000803e3d6000fd5b505050506040513d601f19601f8201168201806040525081019062001cd0919062002aa1565b50846001600160a01b0316876001600160a01b031662001ced3390565b6001600160a01b03167f96558a334f4759f0e7c423d68c84721860bd8fbf94ddc4e55158ecb125ad04b5878a60405162001d31929190918252602082015260400190565b60405180910390a462001d446001606555565b50505050505050565b62001d576200209b565b609c55565b6001600160a01b0380831660009081526097602090815260408083208585168452909152902054165b92915050565b62001d9562002040565b609a5460408051606081018252338152602081018581528183018581528351634e0be51f60e11b81526001600160a01b03958616600482015292519094166024830152516044820152915160648301525173__$77c5a84c43428e206d5bf08427df63fefa$__91639c17ca3e916084808301926000929190829003018186803b15801562001e2257600080fd5b505af415801562001e37573d6000803e3d6000fd5b505050508162001e443390565b6001600160a01b03167f5c16de4f8b59bd9caf0f49a545f25819a895ed223294290b408242e72a59423160405160405180910390a3620013486001606555565b62001e8e6200209b565b609d55565b62001e9d6200209b565b6001600160a01b03811662001f045760405162461bcd60e51b815260206004820152602660248201527f4f776e61626c653a206e6577206f776e657220697320746865207a65726f206160448201526564647265737360d01b60648201526084016200070f565b62000c4d816200212b565b62001f1962002040565b6001600160a01b03821660009081526098602052604090205460ff16151560011462001f595760405162461bcd60e51b81526004016200070f9062002b36565b609a5460408051608081018252338082526001600160a01b03868116602084015282840191909152606082018590529151639b129db560e01b815273__$2f7c76ee15bdc1d8f3b34a04b86951fc56$__93639b129db59362001fc19391169160040162002b5f565b60006040518083038186803b15801562001fda57600080fd5b505af415801562001fef573d6000803e3d6000fd5b50505050816001600160a01b0316620020053390565b6001600160a01b03167f9b1bfa7fa9ee420a16e124f794c35ac9f90472acc99140eb2f6447c714cad8eb836040516200149691815260200190565b600260655403620020945760405162461bcd60e51b815260206004820152601f60248201527f5265656e7472616e637947756172643a207265656e7472616e742063616c6c0060448201526064016200070f565b6002606555565b6033546001600160a01b03163314620014bf5760405162461bcd60e51b815260206004820181905260248201527f4f776e61626c653a2063616c6c6572206973206e6f7420746865206f776e657260448201526064016200070f565b600054610100900460ff16620021215760405162461bcd60e51b81526004016200070f9062002d67565b620014bf620022a6565b603380546001600160a01b038381166001600160a01b0319831681179093556040519116919082907f8be0079c531659141344cd1fd0a4f28419497f9722a3daafe3b4186f6b6457e090600090a35050565b6001600160a01b038381166000818152609760209081526040808320878616808552925280832080546001600160a01b0319169587169586179055519092917ff9e7f47c2cd7655661046fbcf0164a4d4ac48c3cd9c0ed8b45410e965cc3371491a4505050565b6000620021f183620022db565b801562002205575062002205838362002313565b9392505050565b606060006200221b836200239e565b600101905060008167ffffffffffffffff8111156200223e576200223e6200279b565b6040519080825280601f01601f19166020018201604052801562002269576020820181803683370190505b5090508181016020015b600019016f181899199a1a9b1b9c1cb0b131b232b360811b600a86061a8153600a85049450846200227357509392505050565b600054610100900460ff16620022d05760405162461bcd60e51b81526004016200070f9062002d67565b620014bf336200212b565b6000620022f0826301ffc9a760e01b62002313565b801562001d8557506200230c826001600160e01b031962002313565b1592915050565b604080516001600160e01b03198316602480830191909152825180830390910181526044909101909152602080820180516001600160e01b03166301ffc9a760e01b178152825160009392849283928392918391908a617530fa92503d9150600051905082801562002386575060208210155b8015620023935750600081115b979650505050505050565b60008072184f03e93ff9f4daa797ed6e38ed64bf6a1f0160401b8310620023de5772184f03e93ff9f4daa797ed6e38ed64bf6a1f0160401b830492506040015b6d04ee2d6d415b85acef810000000083106200240b576d04ee2d6d415b85acef8100000000830492506020015b662386f26fc1000083106200242a57662386f26fc10000830492506010015b6305f5e100831062002443576305f5e100830492506008015b61271083106200245857612710830492506004015b606483106200246b576064830492506002015b600a831062001d855760010192915050565b6122fb8062002db383390190565b6001600160a01b038116811462000c4d57600080fd5b600060c08284031215620024b457600080fd5b50919050565b60008060008060008060c08789031215620024d457600080fd5b863595506020870135620024e8816200248b565b945060408701359350606087013592506080870135915060a087013567ffffffffffffffff8111156200251a57600080fd5b6200252889828a01620024a1565b9150509295509295509295565b6000602082840312156200254857600080fd5b5035919050565b6000806000606084860312156200256557600080fd5b8335925060208401359150604084013567ffffffffffffffff8111156200258b57600080fd5b6200259986828701620024a1565b9150509250925092565b60008082840360a0811215620025b857600080fd5b8335620025c5816200248b565b92506080601f1982011215620025da57600080fd5b506020830190509250929050565b600060208284031215620025fb57600080fd5b813562002205816200248b565b600080604083850312156200261c57600080fd5b823562002629816200248b565b946020939093013593505050565b6000806000606084860312156200264d57600080fd5b83356200265a816200248b565b925060208401356200266c816200248b565b915060408401356200267e816200248b565b809150509250925092565b600080604083850312156200269d57600080fd5b8235620026aa816200248b565b91506020830135620026bc816200248b565b809150509250929050565b600080600080600080600060e0888a031215620026e357600080fd5b8735620026f0816200248b565b965060208801359550604088013562002709816200248b565b9450606088013593506080880135925060a0880135915060c088013567ffffffffffffffff8111156200273b57600080fd5b620027498a828b01620024a1565b91505092959891949750929550565b600080604083850312156200276c57600080fd5b50508035926020909101359150565b6000602082840312156200278e57600080fd5b815162002205816200248b565b634e487b7160e01b600052604160045260246000fd5b60405160c0810167ffffffffffffffff81118282101715620027d757620027d76200279b565b60405290565b604051601f8201601f1916810167ffffffffffffffff811182821017156200280957620028096200279b565b604052919050565b600067ffffffffffffffff8211156200282e576200282e6200279b565b50601f01601f191660200190565b600082601f8301126200284e57600080fd5b8135620028656200285f8262002811565b620027dd565b8181528460208386010111156200287b57600080fd5b816020850160208301376000918101602001919091529392505050565b600060c08236031215620028ab57600080fd5b620028b5620027b1565b823560ff81168114620028c757600080fd5b808252506020830135602082015260408301356040820152606083013560608201526080830135608082015260a083013567ffffffffffffffff8111156200290e57600080fd5b6200291c368286016200283c565b60a08301525092915050565b60005b83811015620029455781810151838201526020016200292b565b50506000910152565b600081518084526200296881602086016020860162002928565b601f01601f19169290920160200192915050565b60ff815116825260208101516020830152604081015160408301526060810151606083015260808101516080830152600060a082015160c060a0850152620029c860c08501826200294e565b949350505050565b60018060a01b038416815282602082015260606040820152620029ff6060820183516001600160a01b03169052565b6000602083015162002a1c60808401826001600160a01b03169052565b5060408301516001600160a01b03811660a084015250606083015160c083015260808301516001600160a01b03811660e08401525060a0830151610100818185015260c08501519150610120828186015260e086015161014086015281860151925080610160860152505062002a976101808401826200297c565b9695505050505050565b60006020828403121562002ab457600080fd5b5051919050565b600060018060a01b038085168352604060208401528084511660408401525060208301516060830152604083015160808301526060830151608060a084015262002b0960c08401826200297c565b95945050505050565b60006020828403121562002b2557600080fd5b815180151581146200220557600080fd5b6020808252600f908201526e496e76616c6964205265736572766560881b604082015260600190565b6001600160a01b0392831681528151831660208083019190915282015183166040808301919091528201519092166060808401919091520151608082015260a00190565b60006020828403121562002bb657600080fd5b815167ffffffffffffffff81111562002bce57600080fd5b8201601f8101841362002be057600080fd5b805162002bf16200285f8262002811565b81815285602083850101111562002c0757600080fd5b62002b0982602083016020860162002928565b6503632a7232a160d51b81526000835162002c3d81600685016020880162002928565b692052657365727665202360b01b600691840191820152835162002c6981601084016020880162002928565b01601001949350505050565b623632a960e91b81526000835162002c9581600385016020880162002928565b602d60f81b600391840191820152835162002cb881600484016020880162002928565b01600401949350505050565b6001600160a01b0387811682528681166020830152851660408201526101206060820181905260009062002cfb838201876200294e565b9050828103608084015262002d1181866200294e565b915050825460a0830152600183015460c0830152600283015460e08301526003830154610100830152979650505050505050565b8082018082111562001d8557634e487b7160e01b600052601160045260246000fd5b6020808252602b908201527f496e697469616c697a61626c653a20636f6e7472616374206973206e6f74206960408201526a6e697469616c697a696e6760a81b60608201526080019056fe60806040523480156200001157600080fd5b50604051620022fb380380620022fb8339810160408190526200003491620003c5565b828260036200004483826200054a565b5060046200005382826200054a565b505050620000706200006a620000de60201b60201c565b620000e2565b600680546001600160a01b038089166001600160a01b03199283161790925560078054928716929091169190911790558051600b556020810151600c556040810151600d556060810151600e55620000c762000134565b620000d285620000e2565b50505050505062000657565b3390565b600580546001600160a01b038381166001600160a01b0319831681179093556040519116919082907f8be0079c531659141344cd1fd0a4f28419497f9722a3daafe3b4186f6b6457e090600090a35050565b600660009054906101000a90046001600160a01b03166001600160a01b0316635257b5666040518163ffffffff1660e01b8152600401602060405180830381865afa15801562000188573d6000803e3d6000fd5b505050506040513d601f19601f82011682018060405250810190620001ae919062000616565b6001600160a01b03166366c57dca620001c662000236565b6008546040516001600160e01b031960e085901b16815260048101929092526024820152604401602060405180830381865afa1580156200020b573d6000803e3d6000fd5b505050506040513d601f19601f820116820180604052508101906200023191906200063d565b600955565b6007546040516370a0823160e01b81523060048201526000916001600160a01b0316906370a0823190602401602060405180830381865afa15801562000280573d6000803e3d6000fd5b505050506040513d601f19601f82011682018060405250810190620002a691906200063d565b905090565b6001600160a01b0381168114620002c157600080fd5b50565b634e487b7160e01b600052604160045260246000fd5b604051608081016001600160401b0381118282101715620002ff57620002ff620002c4565b60405290565b604051601f8201601f191681016001600160401b0381118282101715620003305762000330620002c4565b604052919050565b600082601f8301126200034a57600080fd5b81516001600160401b03811115620003665762000366620002c4565b60206200037c601f8301601f1916820162000305565b82815285828487010111156200039157600080fd5b60005b83811015620003b157858101830151828201840152820162000394565b506000928101909101919091529392505050565b600080600080600080868803610120811215620003e157600080fd5b8751620003ee81620002ab565b60208901519097506200040181620002ab565b60408901519096506200041481620002ab565b60608901519095506001600160401b03808211156200043257600080fd5b620004408b838c0162000338565b955060808a01519150808211156200045757600080fd5b50620004668a828b0162000338565b9350506080609f19820112156200047c57600080fd5b5062000487620002da565b60a0880151815260c0880151602082015260e088015160408201526101008801516060820152809150509295509295509295565b600181811c90821680620004d057607f821691505b602082108103620004f157634e487b7160e01b600052602260045260246000fd5b50919050565b601f8211156200054557600081815260208120601f850160051c81016020861015620005205750805b601f850160051c820191505b8181101562000541578281556001016200052c565b5050505b505050565b81516001600160401b03811115620005665762000566620002c4565b6200057e81620005778454620004bb565b84620004f7565b602080601f831160018114620005b657600084156200059d5750858301515b600019600386901b1c1916600185901b17855562000541565b600085815260208120601f198616915b82811015620005e757888601518255948401946001909101908401620005c6565b5085821015620006065787850151600019600388901b60f8161c191681555b5050505050600190811b01905550565b6000602082840312156200062957600080fd5b81516200063681620002ab565b9392505050565b6000602082840312156200065057600080fd5b5051919050565b611c9480620006676000396000f3fe608060405234801561001057600080fd5b506004361061021c5760003560e01c806384bdc9a811610125578063a880e68b116100ad578063e2c674391161007c578063e2c6743914610442578063f2fde38b1461044a578063fbf419841461045d578063fdb8725214610465578063fef0bec81461047857600080fd5b8063a880e68b1461040c578063a9059cbb14610414578063ba1c5e8014610427578063dd62ed3e1461042f57600080fd5b80639dc29fac116100f45780639dc29fac146103b8578063a2258694146103cb578063a457c2d7146103de578063a4b84e0a146103f1578063a663f830146103f957600080fd5b806384bdc9a81461038f5780638da5cb5b1461039757806395d89b41146103a857806397b3fcaa146103b057600080fd5b80633e680e7a116101a85780635c222bad116101775780635c222bad1461031357806365ec41761461033857806370a082311461034b578063715018a61461037457806375d0f29f1461037c57600080fd5b80633e680e7a146102d257806340c10f19146102e55780634a417a53146102f8578063545039c61461030057600080fd5b80631e522b29116101ef5780631e522b291461028057806323b872dd146102885780632806a7431461029b578063313ce567146102b057806339509351146102bf57600080fd5b806306fdde0314610221578063095ea7b31461023f57806314a6bf0f1461026257806318160ddd14610278575b600080fd5b61022961048b565b6040516102369190611969565b60405180910390f35b61025261024d3660046119b1565b61051d565b6040519015158152602001610236565b61026a610537565b604051908152602001610236565b60025461026a565b600b5461026a565b6102526102963660046119dd565b610547565b6102ae6102a9366004611a1e565b61056b565b005b60405160128152602001610236565b6102526102cd3660046119b1565b610578565b61026a6102e0366004611a37565b61059a565b6102ae6102f33660046119b1565b61061f565b61026a6106dd565b6102ae61030e366004611a5b565b6107ca565b6007546001600160a01b03165b6040516001600160a01b039091168152602001610236565b6102ae610346366004611a1e565b6108c6565b61026a610359366004611a37565b6001600160a01b031660009081526020819052604090205490565b6102ae6108d3565b6102ae61038a3660046119b1565b6108e7565b61026a6109ae565b6005546001600160a01b0316610320565b610229610a04565b61026a610a13565b6102ae6103c63660046119b1565b610a2a565b6102ae6103d9366004611a96565b610adb565b6102526103ec3660046119b1565b610bca565b600d5461026a565b6102ae610407366004611a5b565b610c45565b600e5461026a565b6102526104223660046119b1565b610d22565b60095461026a565b61026a61043d366004611acb565b610d30565b61026a610d5b565b6102ae610458366004611a37565b610d65565b600c5461026a565b6102ae6104733660046119b1565b610dde565b6102ae610486366004611a1e565b610e9c565b60606003805461049a90611b04565b80601f01602080910402602001604051908101604052809291908181526020018280546104c690611b04565b80156105135780601f106104e857610100808354040283529160200191610513565b820191906000526020600020905b8154815290600101906020018083116104f657829003601f168201915b5050505050905090565b60003361052b818585610ea9565b60019150505b92915050565b600061054260085490565b905090565b600033610555858285610fcd565b610560858585611041565b506001949350505050565b6105736111e5565b600b55565b60003361052b81858561058b8383610d30565b6105959190611b54565b610ea9565b604051634af0799360e01b81523060048201526001600160a01b038216602482015260009073__$2f7c76ee15bdc1d8f3b34a04b86951fc56$__90634af0799390604401602060405180830381865af41580156105fb573d6000803e3d6000fd5b505050506040513d601f19601f820116820180604052508101906105319190611b67565b600660009054906101000a90046001600160a01b03166001600160a01b031663e7334fe56040518163ffffffff1660e01b8152600401602060405180830381865afa158015610672573d6000803e3d6000fd5b505050506040513d601f19601f820116820180604052508101906106969190611b80565b6001600160a01b0316336001600160a01b0316146106cf5760405162461bcd60e51b81526004016106c690611b9d565b60405180910390fd5b6106d9828261123f565b5050565b6006546040805163292bdab360e11b815290516000926001600160a01b031691635257b5669160048083019260209291908290030181865afa158015610727573d6000803e3d6000fd5b505050506040513d601f19601f8201168201806040525081019061074b9190611b80565b6001600160a01b03166385c963066107616112fe565b6008546040516001600160e01b031960e085901b168152600481019290925260248201526044015b602060405180830381865afa1580156107a6573d6000803e3d6000fd5b505050506040513d601f19601f820116820180604052508101906105429190611b67565b600660009054906101000a90046001600160a01b03166001600160a01b031663e7334fe56040518163ffffffff1660e01b8152600401602060405180830381865afa15801561081d573d6000803e3d6000fd5b505050506040513d601f19601f820116820180604052508101906108419190611b80565b6001600160a01b0316336001600160a01b0316146108715760405162461bcd60e51b81526004016106c690611b9d565b61089484306108808487611b54565b6007546001600160a01b031692919061132f565b6108a06000848461139a565b82600860008282546108b29190611bd4565b909155506108c09050611435565b50505050565b6108ce6111e5565b600e55565b6108db6111e5565b6108e5600061152f565b565b600660009054906101000a90046001600160a01b03166001600160a01b031663e7334fe56040518163ffffffff1660e01b8152600401602060405180830381865afa15801561093a573d6000803e3d6000fd5b505050506040513d601f19601f8201168201806040525081019061095e9190611b80565b6001600160a01b0316336001600160a01b03161461098e5760405162461bcd60e51b81526004016106c690611b9d565b6007546109a6906001600160a01b031683308461132f565b6106d9611435565b600080806109ba6112fe565b6008546109c79190611b54565b11156109ff576109d56112fe565b6008546109e29190611b54565b600854600a546109f29190611be7565b6109fc9190611bfe565b90505b919050565b60606004805461049a90611b04565b6000610a1d6112fe565b6008546105429190611b54565b600660009054906101000a90046001600160a01b03166001600160a01b031663e7334fe56040518163ffffffff1660e01b8152600401602060405180830381865afa158015610a7d573d6000803e3d6000fd5b505050506040513d601f19601f82011682018060405250810190610aa19190611b80565b6001600160a01b0316336001600160a01b031614610ad15760405162461bcd60e51b81526004016106c690611b9d565b6106d98282611581565b600660009054906101000a90046001600160a01b03166001600160a01b031663e7334fe56040518163ffffffff1660e01b8152600401602060405180830381865afa158015610b2e573d6000803e3d6000fd5b505050506040513d601f19601f82011682018060405250810190610b529190611b80565b6001600160a01b0316336001600160a01b031614610b825760405162461bcd60e51b81526004016106c690611b9d565b600754610b99906001600160a01b031684846116b3565b610ba56001838361139a565b8160086000828254610bb79190611b54565b90915550610bc59050611435565b505050565b60003381610bd88286610d30565b905083811015610c385760405162461bcd60e51b815260206004820152602560248201527f45524332303a2064656372656173656420616c6c6f77616e63652062656c6f77604482015264207a65726f60d81b60648201526084016106c6565b6105608286868403610ea9565b600660009054906101000a90046001600160a01b03166001600160a01b031663e7334fe56040518163ffffffff1660e01b8152600401602060405180830381865afa158015610c98573d6000803e3d6000fd5b505050506040513d601f19601f82011682018060405250810190610cbc9190611b80565b6001600160a01b0316336001600160a01b031614610cec5760405162461bcd60e51b81526004016106c690611b9d565b600754610d04906001600160a01b031685308661132f565b610d106000828461139a565b80600860008282546108b29190611bd4565b60003361052b818585611041565b6001600160a01b03918216600090815260016020908152604080832093909416825291909152205490565b60006105426112fe565b610d6d6111e5565b6001600160a01b038116610dd25760405162461bcd60e51b815260206004820152602660248201527f4f776e61626c653a206e6577206f776e657220697320746865207a65726f206160448201526564647265737360d01b60648201526084016106c6565b610ddb8161152f565b50565b600660009054906101000a90046001600160a01b03166001600160a01b031663e7334fe56040518163ffffffff1660e01b8152600401602060405180830381865afa158015610e31573d6000803e3d6000fd5b505050506040513d601f19601f82011682018060405250810190610e559190611b80565b6001600160a01b0316336001600160a01b031614610e855760405162461bcd60e51b81526004016106c690611b9d565b6007546109a6906001600160a01b031683836116b3565b610ea46111e5565b600c55565b6001600160a01b038316610f0b5760405162461bcd60e51b8152602060048201526024808201527f45524332303a20617070726f76652066726f6d20746865207a65726f206164646044820152637265737360e01b60648201526084016106c6565b6001600160a01b038216610f6c5760405162461bcd60e51b815260206004820152602260248201527f45524332303a20617070726f766520746f20746865207a65726f206164647265604482015261737360f01b60648201526084016106c6565b6001600160a01b0383811660008181526001602090815260408083209487168084529482529182902085905590518481527f8c5be1e5ebec7d5bd14f71427d1e84f3dd0314c0f7b2291e5b200ac8c7c3b925910160405180910390a3505050565b6000610fd98484610d30565b905060001981146108c057818110156110345760405162461bcd60e51b815260206004820152601d60248201527f45524332303a20696e73756666696369656e7420616c6c6f77616e636500000060448201526064016106c6565b6108c08484848403610ea9565b6001600160a01b0383166110a55760405162461bcd60e51b815260206004820152602560248201527f45524332303a207472616e736665722066726f6d20746865207a65726f206164604482015264647265737360d81b60648201526084016106c6565b6001600160a01b0382166111075760405162461bcd60e51b815260206004820152602360248201527f45524332303a207472616e7366657220746f20746865207a65726f206164647260448201526265737360e81b60648201526084016106c6565b6001600160a01b0383166000908152602081905260409020548181101561117f5760405162461bcd60e51b815260206004820152602660248201527f45524332303a207472616e7366657220616d6f756e7420657863656564732062604482015265616c616e636560d01b60648201526084016106c6565b6001600160a01b03848116600081815260208181526040808320878703905593871680835291849020805487019055925185815290927fddf252ad1be2c89b69c2b068fc378daa952ba7f163c4a11628f55a4df523b3ef910160405180910390a36108c0565b6005546001600160a01b031633146108e55760405162461bcd60e51b815260206004820181905260248201527f4f776e61626c653a2063616c6c6572206973206e6f7420746865206f776e657260448201526064016106c6565b6001600160a01b0382166112955760405162461bcd60e51b815260206004820152601f60248201527f45524332303a206d696e7420746f20746865207a65726f20616464726573730060448201526064016106c6565b80600260008282546112a79190611b54565b90915550506001600160a01b038216600081815260208181526040808320805486019055518481527fddf252ad1be2c89b69c2b068fc378daa952ba7f163c4a11628f55a4df523b3ef910160405180910390a35050565b6007546040516370a0823160e01b81523060048201526000916001600160a01b0316906370a0823190602401610789565b6040516001600160a01b03808516602483015283166044820152606481018290526108c09085906323b872dd60e01b906084015b60408051601f198184030181529190526020810180516001600160e01b03166001600160e01b0319909316929092179091526116e3565b82156113e457816008546113ae9190611b54565b6113b88284611be7565b600a546008546113c89190611be7565b6113d29190611b54565b6113dc9190611bfe565b600a55505050565b816008546113f29190611bd4565b600003611403576000600a55505050565b816008546114119190611bd4565b61141b8284611be7565b600a5460085461142b9190611be7565b6113d29190611bd4565b600660009054906101000a90046001600160a01b03166001600160a01b0316635257b5666040518163ffffffff1660e01b8152600401602060405180830381865afa158015611488573d6000803e3d6000fd5b505050506040513d601f19601f820116820180604052508101906114ac9190611b80565b6001600160a01b03166366c57dca6114c26112fe565b6008546040516001600160e01b031960e085901b16815260048101929092526024820152604401602060405180830381865afa158015611506573d6000803e3d6000fd5b505050506040513d601f19601f8201168201806040525081019061152a9190611b67565b600955565b600580546001600160a01b038381166001600160a01b0319831681179093556040519116919082907f8be0079c531659141344cd1fd0a4f28419497f9722a3daafe3b4186f6b6457e090600090a35050565b6001600160a01b0382166115e15760405162461bcd60e51b815260206004820152602160248201527f45524332303a206275726e2066726f6d20746865207a65726f206164647265736044820152607360f81b60648201526084016106c6565b6001600160a01b038216600090815260208190526040902054818110156116555760405162461bcd60e51b815260206004820152602260248201527f45524332303a206275726e20616d6f756e7420657863656564732062616c616e604482015261636560f01b60648201526084016106c6565b6001600160a01b0383166000818152602081815260408083208686039055600280548790039055518581529192917fddf252ad1be2c89b69c2b068fc378daa952ba7f163c4a11628f55a4df523b3ef910160405180910390a3505050565b6040516001600160a01b038316602482015260448101829052610bc590849063a9059cbb60e01b90606401611363565b6000611738826040518060400160405280602081526020017f5361666545524332303a206c6f772d6c6576656c2063616c6c206661696c6564815250856001600160a01b03166117b59092919063ffffffff16565b805190915015610bc557808060200190518101906117569190611c20565b610bc55760405162461bcd60e51b815260206004820152602a60248201527f5361666545524332303a204552433230206f7065726174696f6e20646964206e6044820152691bdd081cdd58d8d9595960b21b60648201526084016106c6565b60606117c484846000856117cc565b949350505050565b60608247101561182d5760405162461bcd60e51b815260206004820152602660248201527f416464726573733a20696e73756666696369656e742062616c616e636520666f6044820152651c8818d85b1b60d21b60648201526084016106c6565b600080866001600160a01b031685876040516118499190611c42565b60006040518083038185875af1925050503d8060008114611886576040519150601f19603f3d011682016040523d82523d6000602084013e61188b565b606091505b509150915061189c878383876118a7565b979650505050505050565b6060831561191657825160000361190f576001600160a01b0385163b61190f5760405162461bcd60e51b815260206004820152601d60248201527f416464726573733a2063616c6c20746f206e6f6e2d636f6e747261637400000060448201526064016106c6565b50816117c4565b6117c4838381511561192b5781518083602001fd5b8060405162461bcd60e51b81526004016106c69190611969565b60005b83811015611960578181015183820152602001611948565b50506000910152565b6020815260008251806020840152611988816040850160208701611945565b601f01601f19169190910160400192915050565b6001600160a01b0381168114610ddb57600080fd5b600080604083850312156119c457600080fd5b82356119cf8161199c565b946020939093013593505050565b6000806000606084860312156119f257600080fd5b83356119fd8161199c565b92506020840135611a0d8161199c565b929592945050506040919091013590565b600060208284031215611a3057600080fd5b5035919050565b600060208284031215611a4957600080fd5b8135611a548161199c565b9392505050565b60008060008060808587031215611a7157600080fd5b8435611a7c8161199c565b966020860135965060408601359560600135945092505050565b600080600060608486031215611aab57600080fd5b8335611ab68161199c565b95602085013595506040909401359392505050565b60008060408385031215611ade57600080fd5b8235611ae98161199c565b91506020830135611af98161199c565b809150509250929050565b600181811c90821680611b1857607f821691505b602082108103611b3857634e487b7160e01b600052602260045260246000fd5b50919050565b634e487b7160e01b600052601160045260246000fd5b8082018082111561053157610531611b3e565b600060208284031215611b7957600080fd5b5051919050565b600060208284031215611b9257600080fd5b8151611a548161199c565b6020808252601f908201527f43616c6c657273206d757374206265204d61726b657420636f6e747261637400604082015260600190565b8181038181111561053157610531611b3e565b808202811582820484141761053157610531611b3e565b600082611c1b57634e487b7160e01b600052601260045260246000fd5b500490565b600060208284031215611c3257600080fd5b81518015158114611a5457600080fd5b60008251611c54818460208701611945565b919091019291505056fea2646970667358221220940fd971d9846a520a1360f02417e3e8b85e5c3bc3db551eaacc12d9cabf386f64736f6c63430008110033a26469706673582212202a0c4f522675e32c6226511456a67f6e743a517876e535148a6881514084d44964736f6c63430008110033",
  "linkReferences": {
    "contracts/libraries/logic/BorrowLogic.sol": {
      "BorrowLogic": [
        {
          "length": 20,
          "start": 1436
        },
        {
          "length": 20,
          "start": 3023
        },
        {
          "length": 20,
          "start": 7142
        },
        {
          "length": 20,
          "start": 7688
        }
      ]
    },
    "contracts/libraries/logic/LiquidationLogic.sol": {
      "LiquidationLogic": [
        {
          "length": 20,
          "start": 2030
        }
      ]
    },
    "contracts/libraries/logic/SupplyLogic.sol": {
      "SupplyLogic": [
        {
          "length": 20,
          "start": 3805
        },
        {
          "length": 20,
          "start": 4541
        },
        {
          "length": 20,
          "start": 5048
        },
        {
          "length": 20,
          "start": 8118
        },
        {
          "length": 20,
          "start": 14843
        }
      ]
    }
  },
  "deployedLinkReferences": {
    "contracts/libraries/logic/BorrowLogic.sol": {
      "BorrowLogic": [
        {
          "length": 20,
          "start": 1404
        },
        {
          "length": 20,
          "start": 2991
        },
        {
          "length": 20,
          "start": 7110
        },
        {
          "length": 20,
          "start": 7656
        }
      ]
    },
    "contracts/libraries/logic/LiquidationLogic.sol": {
      "LiquidationLogic": [
        {
          "length": 20,
          "start": 1998
        }
      ]
    },
    "contracts/libraries/logic/SupplyLogic.sol": {
      "SupplyLogic": [
        {
          "length": 20,
          "start": 3773
        },
        {
          "length": 20,
          "start": 4509
        },
        {
          "length": 20,
          "start": 5016
        },
        {
          "length": 20,
          "start": 8086
        },
        {
          "length": 20,
          "start": 14811
        }
      ]
    }
  }
}