{
  "_format": "hh-sol-artifact-1",
  "contractName": "Market",
  "sourceName": "contracts/protocol/Market.sol",
  "abi": [
    {
      "anonymous": false,
      "inputs": [
        {
          "indexed": true,
          "internalType": "address",
          "name": "user",
          "type": "address"
        },
        {
          "indexed": true,
          "internalType": "address",
          "name": "asset",
          "type": "address"
        },
        {
          "indexed": true,
          "internalType": "address",
          "name": "nftAddress",
          "type": "address"
        },
        {
          "indexed": false,
          "internalType": "uint256",
          "name": "nftTokenID",
          "type": "uint256"
        },
        {
          "indexed": false,
          "internalType": "uint256",
          "name": "amount",
          "type": "uint256"
        }
      ],
      "name": "Borrow",
      "type": "event"
    },
    {
      "anonymous": false,
      "inputs": [
        {
          "indexed": true,
          "internalType": "address",
          "name": "collection",
          "type": "address"
        },
        {
          "indexed": true,
          "internalType": "address",
          "name": "asset",
          "type": "address"
        }
      ],
      "name": "CreateReserve",
      "type": "event"
    },
    {
      "anonymous": false,
      "inputs": [
        {
          "indexed": true,
          "internalType": "address",
          "name": "user",
          "type": "address"
        },
        {
          "indexed": true,
          "internalType": "address",
          "name": "reserve",
          "type": "address"
        },
        {
          "indexed": false,
          "internalType": "uint256",
          "name": "amount",
          "type": "uint256"
        }
      ],
      "name": "Deposit",
      "type": "event"
    },
    {
      "anonymous": false,
      "inputs": [
        {
          "indexed": false,
          "internalType": "uint8",
          "name": "version",
          "type": "uint8"
        }
      ],
      "name": "Initialized",
      "type": "event"
    },
    {
      "anonymous": false,
      "inputs": [
        {
          "indexed": true,
          "internalType": "address",
          "name": "user",
          "type": "address"
        },
        {
          "indexed": false,
          "internalType": "uint256",
          "name": "loanId",
          "type": "uint256"
        }
      ],
      "name": "Liquidate",
      "type": "event"
    },
    {
      "anonymous": false,
      "inputs": [
        {
          "indexed": true,
          "internalType": "address",
          "name": "previousOwner",
          "type": "address"
        },
        {
          "indexed": true,
          "internalType": "address",
          "name": "newOwner",
          "type": "address"
        }
      ],
      "name": "OwnershipTransferred",
      "type": "event"
    },
    {
      "anonymous": false,
      "inputs": [
        {
          "indexed": true,
          "internalType": "address",
          "name": "user",
          "type": "address"
        },
        {
          "indexed": false,
          "internalType": "uint256",
          "name": "loanId",
          "type": "uint256"
        }
      ],
      "name": "Repay",
      "type": "event"
    },
    {
      "anonymous": false,
      "inputs": [
        {
          "indexed": true,
          "internalType": "address",
          "name": "user",
          "type": "address"
        },
        {
          "indexed": true,
          "internalType": "address",
          "name": "reserve",
          "type": "address"
        },
        {
          "indexed": false,
          "internalType": "uint256",
          "name": "amount",
          "type": "uint256"
        }
      ],
      "name": "Withdraw",
      "type": "event"
    },
    {
      "inputs": [
        {
          "internalType": "address",
          "name": "asset",
          "type": "address"
        },
        {
          "internalType": "uint256",
          "name": "amount",
          "type": "uint256"
        },
        {
          "internalType": "address",
          "name": "nftAddress",
          "type": "address"
        },
        {
          "internalType": "uint256",
          "name": "nftTokenId",
          "type": "uint256"
        },
        {
          "internalType": "uint256",
          "name": "genesisNFTId",
          "type": "uint256"
        },
        {
          "internalType": "bytes32",
          "name": "request",
          "type": "bytes32"
        },
        {
          "components": [
            {
              "internalType": "uint8",
              "name": "v",
              "type": "uint8"
            },
            {
              "internalType": "bytes32",
              "name": "r",
              "type": "bytes32"
            },
            {
              "internalType": "bytes32",
              "name": "s",
              "type": "bytes32"
            },
            {
              "internalType": "bytes32",
              "name": "request",
              "type": "bytes32"
            },
            {
              "internalType": "uint256",
              "name": "deadline",
              "type": "uint256"
            },
            {
              "internalType": "bytes",
              "name": "payload",
              "type": "bytes"
            }
          ],
          "internalType": "struct Trustus.TrustusPacket",
          "name": "packet",
          "type": "tuple"
        }
      ],
      "name": "borrow",
      "outputs": [],
      "stateMutability": "nonpayable",
      "type": "function"
    },
    {
      "inputs": [
        {
          "internalType": "uint256",
          "name": "amount",
          "type": "uint256"
        },
        {
          "internalType": "address",
          "name": "nftAddress",
          "type": "address"
        },
        {
          "internalType": "uint256",
          "name": "nftTokenId",
          "type": "uint256"
        },
        {
          "internalType": "uint256",
          "name": "genesisNFTId",
          "type": "uint256"
        },
        {
          "internalType": "bytes32",
          "name": "request",
          "type": "bytes32"
        },
        {
          "components": [
            {
              "internalType": "uint8",
              "name": "v",
              "type": "uint8"
            },
            {
              "internalType": "bytes32",
              "name": "r",
              "type": "bytes32"
            },
            {
              "internalType": "bytes32",
              "name": "s",
              "type": "bytes32"
            },
            {
              "internalType": "bytes32",
              "name": "request",
              "type": "bytes32"
            },
            {
              "internalType": "uint256",
              "name": "deadline",
              "type": "uint256"
            },
            {
              "internalType": "bytes",
              "name": "payload",
              "type": "bytes"
            }
          ],
          "internalType": "struct Trustus.TrustusPacket",
          "name": "packet",
          "type": "tuple"
        }
      ],
      "name": "borrowETH",
      "outputs": [],
      "stateMutability": "nonpayable",
      "type": "function"
    },
    {
      "inputs": [
        {
          "internalType": "address",
          "name": "collection",
          "type": "address"
        },
        {
          "internalType": "address",
          "name": "asset",
          "type": "address"
        }
      ],
      "name": "createReserve",
      "outputs": [],
      "stateMutability": "nonpayable",
      "type": "function"
    },
    {
      "inputs": [
        {
          "internalType": "address",
          "name": "reserve",
          "type": "address"
        },
        {
          "internalType": "uint256",
          "name": "amount",
          "type": "uint256"
        }
      ],
      "name": "deposit",
      "outputs": [],
      "stateMutability": "nonpayable",
      "type": "function"
    },
    {
      "inputs": [
        {
          "internalType": "address",
          "name": "reserve",
          "type": "address"
        }
      ],
      "name": "depositETH",
      "outputs": [],
      "stateMutability": "payable",
      "type": "function"
    },
    {
      "inputs": [],
      "name": "getDefaultLiquidationPenalty",
      "outputs": [
        {
          "internalType": "uint256",
          "name": "",
          "type": "uint256"
        }
      ],
      "stateMutability": "view",
      "type": "function"
    },
    {
      "inputs": [],
      "name": "getDefaultMaximumUtilizationRate",
      "outputs": [
        {
          "internalType": "uint256",
          "name": "",
          "type": "uint256"
        }
      ],
      "stateMutability": "view",
      "type": "function"
    },
    {
      "inputs": [],
      "name": "getDefaultProtocolLiquidationFee",
      "outputs": [
        {
          "internalType": "uint256",
          "name": "",
          "type": "uint256"
        }
      ],
      "stateMutability": "view",
      "type": "function"
    },
    {
      "inputs": [],
      "name": "getDefaultUnderlyingSafeguard",
      "outputs": [
        {
          "internalType": "uint256",
          "name": "",
          "type": "uint256"
        }
      ],
      "stateMutability": "view",
      "type": "function"
    },
    {
      "inputs": [
        {
          "internalType": "address",
          "name": "collection",
          "type": "address"
        },
        {
          "internalType": "address",
          "name": "asset",
          "type": "address"
        }
      ],
      "name": "getReserve",
      "outputs": [
        {
          "internalType": "address",
          "name": "",
          "type": "address"
        }
      ],
      "stateMutability": "view",
      "type": "function"
    },
    {
      "inputs": [
        {
          "internalType": "contract IAddressesProvider",
          "name": "addressesProvider",
          "type": "address"
        },
        {
          "internalType": "uint256",
          "name": "maximumUtilizationRate",
          "type": "uint256"
        },
        {
          "internalType": "uint256",
          "name": "liquidationPenalty",
          "type": "uint256"
        },
        {
          "internalType": "uint256",
          "name": "protocolLiquidationFee",
          "type": "uint256"
        },
        {
          "internalType": "uint256",
          "name": "underlyingSafeguard",
          "type": "uint256"
        }
      ],
      "name": "initialize",
      "outputs": [],
      "stateMutability": "nonpayable",
      "type": "function"
    },
    {
      "inputs": [
        {
          "internalType": "uint256",
          "name": "loanId",
          "type": "uint256"
        },
        {
          "internalType": "bytes32",
          "name": "request",
          "type": "bytes32"
        },
        {
          "components": [
            {
              "internalType": "uint8",
              "name": "v",
              "type": "uint8"
            },
            {
              "internalType": "bytes32",
              "name": "r",
              "type": "bytes32"
            },
            {
              "internalType": "bytes32",
              "name": "s",
              "type": "bytes32"
            },
            {
              "internalType": "bytes32",
              "name": "request",
              "type": "bytes32"
            },
            {
              "internalType": "uint256",
              "name": "deadline",
              "type": "uint256"
            },
            {
              "internalType": "bytes",
              "name": "payload",
              "type": "bytes"
            }
          ],
          "internalType": "struct Trustus.TrustusPacket",
          "name": "packet",
          "type": "tuple"
        }
      ],
      "name": "liquidate",
      "outputs": [],
      "stateMutability": "nonpayable",
      "type": "function"
    },
    {
      "inputs": [],
      "name": "owner",
      "outputs": [
        {
          "internalType": "address",
          "name": "",
          "type": "address"
        }
      ],
      "stateMutability": "view",
      "type": "function"
    },
    {
      "inputs": [],
      "name": "renounceOwnership",
      "outputs": [],
      "stateMutability": "nonpayable",
      "type": "function"
    },
    {
      "inputs": [
        {
          "internalType": "uint256",
          "name": "loanId",
          "type": "uint256"
        },
        {
          "internalType": "uint256",
          "name": "amount",
          "type": "uint256"
        }
      ],
      "name": "repay",
      "outputs": [],
      "stateMutability": "nonpayable",
      "type": "function"
    },
    {
      "inputs": [
        {
          "internalType": "uint256",
          "name": "loanId",
          "type": "uint256"
        }
      ],
      "name": "repayETH",
      "outputs": [],
      "stateMutability": "payable",
      "type": "function"
    },
    {
      "inputs": [
        {
          "internalType": "uint256",
          "name": "liquidationPenalty",
          "type": "uint256"
        }
      ],
      "name": "setDefaultLiquidationPenalty",
      "outputs": [],
      "stateMutability": "nonpayable",
      "type": "function"
    },
    {
      "inputs": [
        {
          "internalType": "uint256",
          "name": "maximumUtilizationRate",
          "type": "uint256"
        }
      ],
      "name": "setDefaultMaximumUtilizationRate",
      "outputs": [],
      "stateMutability": "nonpayable",
      "type": "function"
    },
    {
      "inputs": [
        {
          "internalType": "uint256",
          "name": "protocolLiquidationFee",
          "type": "uint256"
        }
      ],
      "name": "setDefaultProtocolLiquidationFee",
      "outputs": [],
      "stateMutability": "nonpayable",
      "type": "function"
    },
    {
      "inputs": [
        {
          "internalType": "uint256",
          "name": "underlyingSafeguard",
          "type": "uint256"
        }
      ],
      "name": "setDefaultUnderlyingSafeguard",
      "outputs": [],
      "stateMutability": "nonpayable",
      "type": "function"
    },
    {
      "inputs": [
        {
          "internalType": "address",
          "name": "collection",
          "type": "address"
        },
        {
          "internalType": "address",
          "name": "asset",
          "type": "address"
        },
        {
          "internalType": "address",
          "name": "reserve",
          "type": "address"
        }
      ],
      "name": "setReserve",
      "outputs": [],
      "stateMutability": "nonpayable",
      "type": "function"
    },
    {
      "inputs": [
        {
          "internalType": "address",
          "name": "newOwner",
          "type": "address"
        }
      ],
      "name": "transferOwnership",
      "outputs": [],
      "stateMutability": "nonpayable",
      "type": "function"
    },
    {
      "inputs": [
        {
          "internalType": "address",
          "name": "reserve",
          "type": "address"
        },
        {
          "internalType": "uint256",
          "name": "amount",
          "type": "uint256"
        }
      ],
      "name": "withdraw",
      "outputs": [],
      "stateMutability": "nonpayable",
      "type": "function"
    },
    {
      "inputs": [
        {
          "internalType": "address",
          "name": "reserve",
          "type": "address"
        },
        {
          "internalType": "uint256",
          "name": "amount",
          "type": "uint256"
        }
      ],
      "name": "withdrawETH",
      "outputs": [],
      "stateMutability": "nonpayable",
      "type": "function"
    },
    {
      "stateMutability": "payable",
      "type": "receive"
    }
  ],
  "bytecode": "0x6080806040523461001657613ca8908161001c8239f35b600080fdfe6040608081526004908136101562000022575b505036156200002057600080fd5b005b600091823560e01c90816204c4fd14620015a15781630586abad14620014895781632247463e14620012aa5781632d2da8061462001038578163429b241314620010125781634470afa41462000fec5781634782f7791462000d7757816347e7ef241462000c63578163715018a61462000bfe57816380419cb51462000bdd57816383e7bb841462000b675781638da5cb5b1462000b3c578163acd73e021462000800578163b1cd7fab14620006a5578163b25ef8031462000684578163b6673352146200065e578163bdc1c709146200063d578163cbc3ab5314620005e9578163d8aed14514620004ec578163ed4a376e14620004c6578163f2fde38b146200042b578163f3fef3a314620002f8578163f92ad219146200016d575063fa4494e9036200001257346200016957816003193601126200016957602090609a549051908152f35b5080fd5b905034620002f45760a0366003190112620002f45780356001600160a01b03811690819003620002f057835460ff8160081c161592838094620002e2575b8015620002c9575b156200026f575060ff1981166001178555826200025d575b50620001e960ff855460081c16620001e3816200188a565b6200188a565b620001f4336200183f565b6001600160601b0360a01b6099541617609955604435609a55606435609b55602435609c55608435609d55620002275751f35b61ff001982541682557f7f26b83ff96e1f2b6a682f133852f6798a09c465da95921460cefb38474024986020825160018152a151f35b61ffff191661010117845538620001cb565b608490602086519162461bcd60e51b8352820152602e60248201527f496e697469616c697a61626c653a20636f6e747261637420697320616c72656160448201526d191e481a5b9a5d1a585b1a5e995960921b6064820152fd5b50303b158015620001b35750600160ff831614620001b3565b50600160ff831610620001ab565b8380fd5b8280fd5b905034620002f45781600319360112620002f45762000316620017b8565b83602435916200032c60026065541415620018eb565b60026065556001600160a01b038181168084526098602052868420549095906200035e9060ff16151560011462001938565b73__$2f7c76ee15bdc1d8f3b34a04b86951fc56$__916099541691803b15620004275787516337bb612d60e21b81526001600160a01b0393841692810192835293909216602082015233604082015260608101859052839183918290819060800103915af480156200041d5762000405575b505082519081527f9b1bfa7fa9ee420a16e124f794c35ac9f90472acc99140eb2f6447c714cad8eb60203392a3600160655551f35b620004109062001977565b620002f0578338620003d0565b85513d84823e3d90fd5b8480fd5b905034620002f4576020366003190112620002f4576200044a620017b8565b9062000455620017e6565b6001600160a01b0382161562000474575062000471906200183f565b51f35b608490602084519162461bcd60e51b8352820152602660248201527f4f776e61626c653a206e6577206f776e657220697320746865207a65726f206160448201526564647265737360d01b6064820152fd5b905034620002f4576020366003190112620002f457620004e5620017e6565b35609c5551f35b905034620002f45781600319360112620002f457828135916200051560026065541415620018eb565b600260655560995473__$77c5a84c43428e206d5bf08427df63fefa$__916001600160a01b0390911690823b15620002f057855163b823c5b160e01b81526001600160a01b03909216908201908152602081018590526024356040820152909183918391908290819060600103915af48015620005df57620005c7575b505081519081527f5c16de4f8b59bd9caf0f49a545f25819a895ed223294290b408242e72a59423160203392a2600160655551f35b620005d29062001977565b620002f457823862000592565b84513d84823e3d90fd5b50503462000169578060031936011262000169576020916200060a620017b8565b62000614620017a1565b908360018060a01b03938480931681526097875220911660005283528160002054169051908152f35b5050346200016957816003193601126200016957602090609c549051908152f35b905034620002f4576020366003190112620002f4576200067d620017e6565b35609b5551f35b5050346200016957816003193601126200016957602090609d549051908152f35b905034620002f45760031960e036820112620002f057620006c5620017b8565b9160243591620006d4620017cf565b906064359360c4359167ffffffffffffffff8311620007fc5760c0908336030112620007f85760208184936200071060026065541415620018eb565b60026065556200074f8960018060a01b03988c8b8b6099541691519a8b9788976329ba17f760e01b895285019560a435956084359533918b0162001b7b565b038173__$77c5a84c43428e206d5bf08427df63fefa$__5af4928315620007ee578493620007b4575b5086519485526020850152169216907f96558a334f4759f0e7c423d68c84721860bd8fbf94ddc4e55158ecb125ad04b5843392a4600160655551f35b6020809294503d8111620007e6575b620007cf8183620019a2565b81010312620007e15782913862000778565b600080fd5b503d620007c3565b87513d8a823e3d90fd5b8780fd5b8880fd5b91905034620002f45780600319360112620002f4576200081f620017b8565b906200082a620017a1565b9160018060a01b038091169384865260209160978352808488209516948560005283528084600020541662000b0157806099541681603354169085516306fdde0360e01b8152898186818b5afa90811562000af7578a9162000ad9575b50620008c6602788518093665245534552564560c81b8a830152620008b5815180928c868601910162001bdc565b8101036007810184520182620019a2565b86516395d89b4160e01b8152918a8387818c5afa92831562000acf578b9362000aa6575b5062000923602189518095602960f91b8b83015262000912815180928d868601910162001bdc565b8101036001810186520184620019a2565b609c5492609a54609b5491609d54948b5197611fce95868a01968a881067ffffffffffffffff89111762000a90578f938f948f956200099e958e9d9c9b99976101009b99968f966200098f9762001ca590398b528a015288015261012080606089015287019062001c7d565b90858203608087015262001c7d565b9560a084015260c083015260e08201520152039088f0801562000a8657845163095ea7b360e01b81529116918101829052600019602482015282816044818a895af1801562000a865790609893929162000a52575b5085875260978252838720600086815290835284902080546001600160a01b03191682179055865252808420805460ff1916600117905551917fa5b7a69610f38e95c8215264e4a1335a8a756343dade126823de7598d12095368484a3f35b62000a7690833d851162000a7e575b62000a6d8183620019a2565b81019062001a33565b5038620009f3565b503d62000a61565b84513d89823e3d90fd5b50505060248f60418c634e487b7160e01b835252fd5b62000ac79193503d808d833e62000abe8183620019a2565b81019062001c14565b9138620008ea565b88513d8d823e3d90fd5b62000af091503d808c833e62000abe8183620019a2565b3862000887565b87513d8c823e3d90fd5b50915162461bcd60e51b81529182015260166024820152755265736572766520616c72656164792065786973747360501b6044820152606490fd5b505034620001695781600319360112620001695760335490516001600160a01b039091168152602090f35b50503462000169576060366003190112620001695762000b86620017b8565b62000b90620017a1565b9062000b9b620017cf565b9162000ba6620017e6565b60018060a01b03809216855260976020528184862091166000526020528260002091166001600160601b0360a01b82541617905551f35b5050346200016957816003193601126200016957602090609b549051908152f35b505034620001695781600319360112620001695762000c1c620017e6565b603380546001600160a01b031981169091559051906000906001600160a01b03167f8be0079c531659141344cd1fd0a4f28419497f9722a3daafe3b4186f6b6457e08284a3f35b905034620002f45781600319360112620002f45762000c81620017b8565b90836024359162000c9860026065541415620018eb565b60026065556001600160a01b03841680835260986020528583205490949062000cc99060ff16151560011462001938565b73__$2f7c76ee15bdc1d8f3b34a04b86951fc56$__91823b15620002f05786516311f9fbc960e21b81526001600160a01b0390921690820190815260208101859052909183918391908290819060400103915af480156200041d5762000d5f575b505082519081527f5548c837ab068cf56a2c2479df0882a4922fd203edb7517321831d95078c5f6260203392a3600160655551f35b62000d6a9062001977565b620002f057833862000d2a565b905034620002f45781600319360112620002f45762000d95620017b8565b906024359062000dab60026065541415620018eb565b60026065556099548451636572f88f60e11b81529360209287926001600160a01b039290831685888481845afa97881562000fe257859862000fbe575b50838216978886526098875262000e0a600160ff8c8920541615151462001938565b8951635c222bad60e01b8152878186818d5afa90811562000fb45762000e40928791899362000f7e575b501695168514620019e6565b73__$2f7c76ee15bdc1d8f3b34a04b86951fc56$__91823b1562000f7a5789516337bb612d60e21b81526001600160a01b03928316858201908152929091166020830152306040830152606082018890529185918391908290819060800103915af490811562000f7057849162000f58575b5050813b15620002f4578460248492838a519586948593632e1a7d4d60e01b85528401525af1801562000f4e5762000f36575b509062000f2682807f9b1bfa7fa9ee420a16e124f794c35ac9f90472acc99140eb2f6447c714cad8eb94885187335af162000f1f62001a6a565b5062001a9f565b84519283523392a3600160655551f35b62000f419062001977565b6200042757843862000ee5565b86513d84823e3d90fd5b62000f639062001977565b620002f457823862000eb2565b88513d86823e3d90fd5b8580fd5b62000fa49193508a3d8c1162000fac575b62000f9b8183620019a2565b810190620019c5565b913862000e34565b503d62000f8f565b8b513d89823e3d90fd5b62000fda919850863d881162000fac5762000f9b8183620019a2565b963862000de8565b89513d87823e3d90fd5b905034620002f4576020366003190112620002f4576200100b620017e6565b35609a5551f35b905034620002f4576020366003190112620002f45762001031620017e6565b35609d5551f35b9050602080600319360112620002f057838262001054620017b8565b6200106560026065541415620018eb565b60026065556099548651636572f88f60e11b8152956001600160a01b039186918891829085165afa9586156200122c57849662001286575b508082169586855260988652620010bf600160ff8a8820541615151462001938565b8751635c222bad60e01b8152868186818b5afa9081156200127c57620010f5928491889362001258575b501692168214620019e6565b803b15620002f0578651630d0e30db60e41b81528481858134865af19081156200124e57859162001236575b5050865163a9059cbb60e01b8152338482019081523460208201529091869183919082908890829060400103925af180156200122c576200120a575b5073__$2f7c76ee15bdc1d8f3b34a04b86951fc56$__91823b15620002f05786516311f9fbc960e21b81526001600160a01b03909216908201908152346020820152909183918391908290819060400103915af480156200041d57620011f2575b50507f5548c837ab068cf56a2c2479df0882a4922fd203edb7517321831d95078c5f628351913483523392a3600160655551f35b620011fd9062001977565b620002f0578338620011be565b6200122490853d871162000a7e5762000a6d8183620019a2565b50386200115d565b87513d86823e3d90fd5b620012419062001977565b620002f057833862001121565b88513d87823e3d90fd5b62001274919350893d8b1162000fac5762000f9b8183620019a2565b9138620010e9565b89513d88823e3d90fd5b620012a2919650853d871162000fac5762000f9b8183620019a2565b94386200109d565b9050602080600319360112620002f05783823592620012cf60026065541415620018eb565b60026065556099548551636572f88f60e11b81526001600160a01b039291859082908490829087165afa80156200122c578391859162001467575b5016803b15620002f0578651630d0e30db60e41b81528481848134865af19081156200124e5785916200144f575b5050865163a9059cbb60e01b8152338382019081523460208201529091869183919082908890829060400103925af180156200122c576200142d575b5073__$77c5a84c43428e206d5bf08427df63fefa$__916099541690823b15620002f057865163b823c5b160e01b81526001600160a01b0390921690820190815260208101869052346040820152909183918391908290819060600103915af480156200041d5762001415575b50507f5c16de4f8b59bd9caf0f49a545f25819a895ed223294290b408242e72a5942319083519283523392a2600160655551f35b620014209062001977565b620002f0578338620013e1565b6200144790853d871162000a7e5762000a6d8183620019a2565b503862001374565b6200145a9062001977565b620002f057833862001338565b620014829150863d881162000fac5762000f9b8183620019a2565b386200130a565b905034620002f4578260031960603682011262000169578235926044359167ffffffffffffffff8311620002f05760c0908336030112620002f457620014d560026065541415620018eb565b60026065556099546001600160a01b03169073__$965b9be9fc5ba89821c2195a8bf360e455$__803b1562000427576200154393859388519586948593849363aa9d40e160e01b8552828501528a602485015260243560448501526080606485015260848401910162001ae3565b03915af48015620005df5762001589575b505081519081527f08813a3631e12129135cc9440d3fea50eec346f1673b20b994b0456d5d46ccb960203392a2600160655551f35b620015949062001977565b620002f457823862001554565b905034620002f45760031960c036820112620002f057813591620015c4620017a1565b6044359360a4359367ffffffffffffffff8511620007f85760c09085360301126200179d57620015fa60026065541415620018eb565b60026065556099548651636572f88f60e11b81526001600160a01b039460209290919086169083818481855afa918215620017935784918c936200176f575b50878316986200166c8b8d5195869485946329ba17f760e01b86528901928c8c608435948c6064359530918b0162001b7b565b038173__$77c5a84c43428e206d5bf08427df63fefa$__5af49081156200176557839162001736575b5050853b15620007fc578751632e1a7d4d60e01b81529081018390528881602481838a5af180156200172c5762001716575b50620016df8880808a5186335af162000f1f62001a6a565b865195865285015216917f96558a334f4759f0e7c423d68c84721860bd8fbf94ddc4e55158ecb125ad04b5843392a4600160655551f35b620017249098919862001977565b9638620016c7565b88513d8b823e3d90fd5b813d83116200175d575b6200174c8183620019a2565b81010312620007fc57813862001695565b503d62001740565b89513d8c823e3d90fd5b6200178b919350823d841162000fac5762000f9b8183620019a2565b913862001639565b8a513d8d823e3d90fd5b8680fd5b602435906001600160a01b0382168203620007e157565b600435906001600160a01b0382168203620007e157565b604435906001600160a01b0382168203620007e157565b6033546001600160a01b03163303620017fb57565b606460405162461bcd60e51b815260206004820152602060248201527f4f776e61626c653a2063616c6c6572206973206e6f7420746865206f776e65726044820152fd5b6033549060018060a01b0380911691826001600160601b0360a01b821617603355167f8be0079c531659141344cd1fd0a4f28419497f9722a3daafe3b4186f6b6457e06000604051a3565b156200189257565b60405162461bcd60e51b815260206004820152602b60248201527f496e697469616c697a61626c653a20636f6e7472616374206973206e6f74206960448201526a6e697469616c697a696e6760a81b6064820152608490fd5b15620018f357565b60405162461bcd60e51b815260206004820152601f60248201527f5265656e7472616e637947756172643a207265656e7472616e742063616c6c006044820152606490fd5b156200194057565b60405162461bcd60e51b815260206004820152600f60248201526e496e76616c6964205265736572766560881b6044820152606490fd5b67ffffffffffffffff81116200198c57604052565b634e487b7160e01b600052604160045260246000fd5b90601f8019910116810190811067ffffffffffffffff8211176200198c57604052565b90816020910312620007e157516001600160a01b0381168103620007e15790565b15620019ee57565b60405162461bcd60e51b815260206004820152601e60248201527f5265736572766520756e6465726c79696e67206973206e6f74205745544800006044820152606490fd5b90816020910312620007e157518015158103620007e15790565b67ffffffffffffffff81116200198c57601f01601f191660200190565b3d1562001a9a573d9062001a7e8262001a4d565b9162001a8e6040519384620019a2565b82523d6000602084013e565b606090565b1562001aa757565b60405162461bcd60e51b81526020600482015260146024820152732330b4b632b2103a379039b2b7321022ba3432b960611b6044820152606490fd5b803560ff8116809103620007e15782526020810135602083015260408101356040830152606081013560608301526080810135608083015260a0810135601e1982360301811215620007e15701906020823592019167ffffffffffffffff8111620007e1578036038313620007e1578060e09360c060a08501528160c0850152848401376000828201840152601f01601f1916010190565b969491929062001bd9999896949160018060a01b038095818094168b52609760208c01521660408a015216606088015260808701521660a085015260c084015260e08301526101008201526101409081610120820152019062001ae3565b90565b918091926000905b82821062001bfe57501162001bf7575050565b6000910152565b9150806020918301518186015201829162001be4565b602081830312620007e15780519067ffffffffffffffff8211620007e1570181601f82011215620007e157805162001c4c8162001a4d565b9262001c5c6040519485620019a2565b81845260208284010111620007e15762001bd9916020808501910162001bdc565b9060209162001c988151809281855285808601910162001bdc565b601f01601f191601019056fe608080604052346200059e5762001fce8038038091620000208285620005a3565b83398101610120828203126200059e578151906001600160a01b03821682036200059e576200005260208401620005c7565b916200006160408501620005c7565b60608501519092906001600160401b0381116200059e578162000086918701620005dc565b608086015190916001600160401b0382116200059e57620000a9918701620005dc565b9460a081015160c08201519061010060e08401519301519380519060018060401b038211620004745760035490600182811c9216801562000593575b6020831014620004535781601f84931162000521575b50602090601f831160011462000496576000926200048a575b50508160011b916000199060031b1c1916176003555b87516001600160401b0381116200047457600454600181811c9116801562000469575b60208210146200045357601f8111620003ed575b506020601f821160011462000375579080602097969594939260049b60009262000369575b50508160011b916000199060031b1c19161789555b620001a63362000664565b600680546001600160a01b039687166001600160a01b03199182168117909255600780549990971698168817909555600d55600b55600c55600e5560405163292bdab360e11b815294859182905afa928315620002d85760009362000320575b506020602491604051928380926370a0823160e01b82523060048301525afa8015620002d857600090620002e4575b600854604051633362bee560e11b8152600481019290925260248201529260209150839060449082906001600160a01b03165afa918215620002d85760009262000299575b50620002899160095562000664565b60405161191b9081620006b38239f35b6020813d602011620002cf575b81620002b560209383620005a3565b81010312620002cb57519150620002896200027a565b8280fd5b3d9150620002a6565b6040513d6000823e3d90fd5b6020823d60201162000317575b816200030060209383620005a3565b810103126200031457506020905162000235565b80fd5b3d9150620002f1565b90926020823d60201162000360575b816200033e60209383620005a3565b81010312620003145750602062000357602492620005c7565b93915062000206565b3d91506200032f565b01519050388062000186565b600460005260206000209960005b601f1984168110620003d457509160049a600192602099989796959483601f19811610620003ba575b505050811b0189556200019b565b015160001960f88460031b161c19169055388080620003ac565b828201518c556001909b019a6020928301920162000383565b60046000527f8a35acfbc15ff81a39ae7d344fd709f28e8600b4aa8c65c6b64bfe7fe36bd19b601f830160051c8101602084106200044b575b601f830160051c820181106200043e57505062000161565b6000815560010162000426565b508062000426565b634e487b7160e01b600052602260045260246000fd5b90607f16906200014d565b634e487b7160e01b600052604160045260246000fd5b01519050388062000114565b600360009081527fc2575a0e9e593c00f959f8c92f12db2869c3395a3b0502d05e2516446f71f85b9350601f198516905b818110620005085750908460019594939210620004ee575b505050811b016003556200012a565b015160001960f88460031b161c19169055388080620004df565b92936020600181928786015181550195019301620004c7565b60036000529091507fc2575a0e9e593c00f959f8c92f12db2869c3395a3b0502d05e2516446f71f85b601f840160051c8101602085106200058b575b90849392915b601f830160051c820181106200057b575050620000fb565b6000815585945060010162000563565b50806200055d565b91607f1691620000e5565b600080fd5b601f909101601f19168101906001600160401b038211908210176200047457604052565b51906001600160a01b03821682036200059e57565b9080601f830112156200059e578151906001600160401b03821162000474576040519260209162000617601f8501601f1916840186620005a3565b8385528284830101116200059e5782906000905b838383106200064b575050116200064157505090565b6000918301015290565b819350828193920101518282880101520183916200062b565b600580546001600160a01b039283166001600160a01b031982168117909255604051919216907f8be0079c531659141344cd1fd0a4f28419497f9722a3daafe3b4186f6b6457e090600090a356fe6080604081815260048036101561001557600080fd5b600092833560e01c90816306fdde0314610f5757508063095ea7b314610f2d57806314a6bf0f14610f0e57806318160ddd14610eef5780631e522b2914610ed057806323b872dd14610e065780632806a74314610de5578063313ce56714610dc95780633950935114610d795780633e680e7a14610d0857806340c10f1914610c095780634a417a5314610b18578063545039c614610a965780635c222bad14610a6d57806360b08f7514610a4c57806370a0823114610a15578063715018a6146109b557806375d0f29f1461094b57806384bdc9a8146108f05780638da5cb5b146108c757806395d89b41146107c35780639dc29fac1461064b578063a0583ca71461062c578063a225869414610574578063a457c2d7146104cd578063a4b84e0a146104ae578063a663f83014610420578063a9059cbb146103ef578063ba1c5e80146103d0578063dd62ed3e14610387578063e2c6743914610363578063f2fde38b14610298578063fbf4198414610275578063fdb87252146101c85763fef0bec8146101a457600080fd5b346101c45760203660031901126101c4576101bd611103565b35600c5551f35b8280fd5b50346101c457816003193601126101c4576101e16110a4565b600654835163e7334fe560e01b8152926001600160a01b0392916020918591829086165afa801561026b57826102259161023295889161023d575b5016331461144b565b60243591600754166116cf565b61023a611797565b51f35b61025e915060203d8111610264575b610256818361115b565b81019061142c565b3861021c565b503d61024c565b84513d87823e3d90fd5b505034610294578160031936011261029457602090600c549051908152f35b5080fd5b50346101c45760203660031901126101c4576102b26110a4565b6102ba611103565b6001600160a01b03908116918215610311575060055492826bffffffffffffffffffffffff60a01b8516176005555192167f8be0079c531659141344cd1fd0a4f28419497f9722a3daafe3b4186f6b6457e08484a3f35b608490602085519162461bcd60e51b8352820152602660248201527f4f776e61626c653a206e6577206f776e657220697320746865207a65726f206160448201526564647265737360d01b6064820152fd5b50503461029457816003193601126102945760209061038061171f565b9051908152f35b505034610294578060031936011261029457806020926103a56110a4565b6103ad6110bf565b6001600160a01b0391821683526001865283832091168252845220549051908152f35b5050346102945781600319360112610294576020906009549051908152f35b50503461029457806003193601126102945760209061041961040f6110a4565b60243590336111b5565b5160018152f35b50346101c45761042f366110d5565b600654865163e7334fe560e01b81526001600160a01b039692959490929091602091849182908a165afa9384156104a4578661047f610499986104919761048b968d9161023d575016331461144b565b600754169030916114a2565b82611896565b600854611497565b60085561023a611797565b87513d8a823e3d90fd5b505034610294578160031936011261029457602090600d549051908152f35b5082346105715782600319360112610571576104e76110a4565b918360243592338152600160205281812060018060a01b038616825260205220549082821061052057602085610419858503873361132a565b608490602086519162461bcd60e51b8352820152602560248201527f45524332303a2064656372656173656420616c6c6f77616e63652062656c6f77604482015264207a65726f60d81b6064820152fd5b80fd5b50346101c45760603660031901126101c45761058e6110a4565b600654835163e7334fe560e01b81526001600160a01b039360243593926020918391829088165afa91821561062257846105da610499966105e39587958b9161023d575016331461144b565b600754166116cf565b60085461061a61060a6105f8600a5484611863565b61060460443586611863565b90611193565b6106148484611193565b90611876565b600a55611193565b85513d88823e3d90fd5b505034610294578160031936011261029457602090600e549051908152f35b50346101c457816003193601126101c4576106646110a4565b600654835163e7334fe560e01b8152602092602435926001600160a01b039290859082908890829087165afa9081156104a4576106ac9184918a916107ac575016331461144b565b1692831561075f578386528583528486205490828210610711575091817fddf252ad1be2c89b69c2b068fc378daa952ba7f163c4a11628f55a4df523b3ef92859488968752868452038686205561070581600254611497565b6002558551908152a351f35b855162461bcd60e51b8152908101849052602260248201527f45524332303a206275726e20616d6f756e7420657863656564732062616c616e604482015261636560f01b6064820152608490fd5b845162461bcd60e51b8152908101839052602160248201527f45524332303a206275726e2066726f6d20746865207a65726f206164647265736044820152607360f81b6064820152608490fd5b61025e9150873d891161026457610256818361115b565b50919034610294578160031936011261029457805191809380549160019083821c928285169485156108bd575b60209586861081146108aa57858952908115610886575060011461082e575b61082a8787610820828c038361115b565b519182918261104d565b0390f35b81529295507f8a35acfbc15ff81a39ae7d344fd709f28e8600b4aa8c65c6b64bfe7fe36bd19b5b828410610873575050508261082a946108209282010194388061080f565b8054868501880152928601928101610855565b60ff19168887015250505050151560051b83010192506108208261082a388061080f565b634e487b7160e01b845260228352602484fd5b93607f16936107f0565b50503461029457816003193601126102945760055490516001600160a01b039091168152602090f35b5050346102945781600319360112610294576020919060085461091a61091461171f565b82611193565b610926575b5051908152f35b61094491925061061461093b82600a54611863565b9161060461171f565b903861091f565b50346101c457816003193601126101c4576109646110a4565b600654835163e7334fe560e01b8152926001600160a01b03916020918591829085165afa801561026b57816109a69161023295889161023d575016331461144b565b600754166024359130916114a2565b5050346102945781600319360112610294576109cf611103565b600580546001600160a01b0319811690915590519082906001600160a01b03167f8be0079c531659141344cd1fd0a4f28419497f9722a3daafe3b4186f6b6457e08284a3f35b5050346102945760203660031901126102945760209181906001600160a01b03610a3d6110a4565b16815280845220549051908152f35b50346101c45760203660031901126101c457610a66611103565b35600e5551f35b50503461029457816003193601126102945760075490516001600160a01b039091168152602090f35b50346101c45782610aa6366110d5565b600654875163e7334fe560e01b81526001600160a01b039794969095939490939291602091879182908b165afa8015610b0e5787610afb61049999610b06936104919961048b989161023d575016331461144b565b600754169187611193565b9130916114a2565b88513d85823e3d90fd5b50919034610294578160031936011261029457600654815163292bdab360e11b815260209490916001600160a01b039190869084908390829086165afa92831561026b57908692918694610be7575b50604490610b7361171f565b9260085495875196879586946342e4b18360e11b86528501526024840152165afa928315610bdc578093610baa575b505051908152f35b909192508382813d8311610bd5575b610bc3818361115b565b81010312610571575051903880610ba2565b503d610bb9565b8251903d90823e3d90fd5b6044919450610c0290843d861161026457610256818361115b565b9390610b67565b50346101c457816003193601126101c457610c226110a4565b600654835163e7334fe560e01b8152602092602435926001600160a01b039290859082908890829087165afa9081156104a457610c6a9184918a916107ac575016331461144b565b16928315610cc55750849181610ca37fddf252ad1be2c89b69c2b068fc378daa952ba7f163c4a11628f55a4df523b3ef93600254611193565b600255848452838252858420610cba828254611193565b90558551908152a351f35b845162461bcd60e51b8152908101839052601f60248201527f45524332303a206d696e7420746f20746865207a65726f2061646472657373006044820152606490fd5b5091903461029457602092836003193601126101c457610d266110a4565b8251634af0799360e01b815230928101929092526001600160a01b03166024820152838160448173__$2f7c76ee15bdc1d8f3b34a04b86951fc56$__5af4928315610bdc578093610baa57505051908152f35b505034610294578060031936011261029457610419602092610dc2610d9c6110a4565b338352600186528483206001600160a01b03821684528652918490205460243590611193565b903361132a565b5050346102945781600319360112610294576020905160128152f35b50346101c45760203660031901126101c457610dff611103565b35600b5551f35b5082903461029457606036600319011261029457610e226110a4565b610e2a6110bf565b91846044359460018060a01b038416815260016020528181203382526020522054906000198203610e64575b6020866104198787876111b5565b848210610e8d5750918391610e82602096956104199503338361132a565b919394819350610e56565b606490602087519162461bcd60e51b8352820152601d60248201527f45524332303a20696e73756666696369656e7420616c6c6f77616e63650000006044820152fd5b505034610294578160031936011261029457602090600b549051908152f35b5050346102945781600319360112610294576020906002549051908152f35b5050346102945781600319360112610294576020906008549051908152f35b505034610294578060031936011261029457602090610419610f4d6110a4565b602435903361132a565b9291905034611049578360031936011261104957600354600181811c918690828116801561103f575b602095868610821461102c575084885290811561100a5750600114610fb1575b61082a8686610820828b038361115b565b929550600383527fc2575a0e9e593c00f959f8c92f12db2869c3395a3b0502d05e2516446f71f85b5b828410610ff7575050508261082a94610820928201019438610fa0565b8054868501880152928601928101610fda565b60ff191687860152505050151560051b83010192506108208261082a38610fa0565b634e487b7160e01b845260229052602483fd5b93607f1693610f80565b8380fd5b919091602080825283519081818401526000945b82861061108e575050806040939411611081575b601f01601f1916010190565b6000838284010152611075565b8581018201518487016040015294810194611061565b600435906001600160a01b03821682036110ba57565b600080fd5b602435906001600160a01b03821682036110ba57565b60809060031901126110ba576004356001600160a01b03811681036110ba5790602435906044359060643590565b6005546001600160a01b0316330361111757565b606460405162461bcd60e51b815260206004820152602060248201527f4f776e61626c653a2063616c6c6572206973206e6f7420746865206f776e65726044820152fd5b90601f8019910116810190811067ffffffffffffffff82111761117d57604052565b634e487b7160e01b600052604160045260246000fd5b8119811161119f570190565b634e487b7160e01b600052601160045260246000fd5b6001600160a01b039081169182156112d757169182156112865760008281528060205260408120549180831061123257604082827fddf252ad1be2c89b69c2b068fc378daa952ba7f163c4a11628f55a4df523b3ef958760209652828652038282205586815220611227828254611193565b9055604051908152a3565b60405162461bcd60e51b815260206004820152602660248201527f45524332303a207472616e7366657220616d6f756e7420657863656564732062604482015265616c616e636560d01b6064820152608490fd5b60405162461bcd60e51b815260206004820152602360248201527f45524332303a207472616e7366657220746f20746865207a65726f206164647260448201526265737360e81b6064820152608490fd5b60405162461bcd60e51b815260206004820152602560248201527f45524332303a207472616e736665722066726f6d20746865207a65726f206164604482015264647265737360d81b6064820152608490fd5b6001600160a01b039081169182156113db571691821561138b5760207f8c5be1e5ebec7d5bd14f71427d1e84f3dd0314c0f7b2291e5b200ac8c7c3b925918360005260018252604060002085600052825280604060002055604051908152a3565b60405162461bcd60e51b815260206004820152602260248201527f45524332303a20617070726f766520746f20746865207a65726f206164647265604482015261737360f01b6064820152608490fd5b60405162461bcd60e51b8152602060048201526024808201527f45524332303a20617070726f76652066726f6d20746865207a65726f206164646044820152637265737360e01b6064820152608490fd5b908160209103126110ba57516001600160a01b03811681036110ba5790565b1561145257565b60405162461bcd60e51b815260206004820152601e60248201527f43616c6c6572206d757374206265204d61726b657420636f6e747261637400006044820152606490fd5b81811061119f570390565b6040516323b872dd60e01b60208201526001600160a01b03928316602482015292909116604483015260648083019390935291815260a081019181831067ffffffffffffffff84111761117d576114fb926040526114fd565b565b604080516001600160a01b039290921692909167ffffffffffffffff8184018181118382101761117d5784526020948583527f5361666545524332303a206c6f772d6c6576656c2063616c6c206661696c656486840152803b1561164f5760008481959282898195519301915af13d15611641573d91821161162d57906115a2929185519161159588601f19601f840116018461115b565b82523d858884013e611693565b8051806115b1575b5050505050565b81859181010312610294578301519081159182150361057157506115d7578080806115aa565b60849250519062461bcd60e51b82526004820152602a60248201527f5361666545524332303a204552433230206f7065726174696f6e20646964206e6044820152691bdd081cdd58d8d9595960b21b6064820152fd5b634e487b7160e01b84526041600452602484fd5b6115a2929150606090611693565b845162461bcd60e51b815260048101879052601d60248201527f416464726573733a2063616c6c20746f206e6f6e2d636f6e74726163740000006044820152606490fd5b9091901561169f575090565b8151156116af5750805190602001fd5b60405162461bcd60e51b81529081906116cb906004830161104d565b0390fd5b60405163a9059cbb60e01b60208201526001600160a01b039092166024830152604480830193909352918152608081019167ffffffffffffffff83118284101761117d576114fb926040526114fd565b6007546040516370a0823160e01b815230600482015290602090829060249082906001600160a01b03165afa90811561178b5760009161175d575090565b906020823d8211611783575b816117766020938361115b565b8101031261057157505190565b3d9150611769565b6040513d6000823e3d90fd5b60065460405163292bdab360e11b8152906020906001600160a01b039082908490600490829085165afa92831561178b57600093611842575b50819060446117dd61171f565b600854926040519687948593633362bee560e11b855260048501526024840152165afa90811561178b57600091611816575b5060095550565b82813d831161183b575b61182a818361115b565b81010312610571575051803861180f565b503d611820565b8291935061185c90823d841161026457610256818361115b565b92906117d0565b806000190482118115151661119f570290565b8115611880570490565b634e487b7160e01b600052601260045260246000fd5b90600854906118a58383611497565b6118b3575050506000600a55565b6118e0926118da610614926118d46118cd600a5487611863565b9184611863565b90611497565b92611497565b600a5556fea2646970667358221220e401275e2c1e590c923c63e3dde4e1252da8f62b045700fd0dacbf55a078163f64736f6c634300080f0033a26469706673582212207f9606a193481df6028e37fef40512b499a19ca9f1e3307dda2e3aff5bef1e2164736f6c634300080f0033",
  "linkReferences": {
    "contracts/libraries/logic/BorrowLogic.sol": {
      "BorrowLogic": [
        {
          "length": 20,
          "start": 1339
        },
        {
          "length": 20,
          "start": 1903
        },
        {
          "length": 20,
          "start": 5011
        },
        {
          "length": 20,
          "start": 5772
        }
      ]
    },
    "contracts/libraries/logic/LiquidationLogic.sol": {
      "LiquidationLogic": [
        {
          "length": 20,
          "start": 5381
        }
      ]
    },
    "contracts/libraries/logic/SupplyLogic.sol": {
      "SupplyLogic": [
        {
          "length": 20,
          "start": 892
        },
        {
          "length": 20,
          "start": 3303
        },
        {
          "length": 20,
          "start": 3678
        },
        {
          "length": 20,
          "start": 4476
        },
        {
          "length": 20,
          "start": 12483
        }
      ]
    }
  },
  "deployedLinkReferences": {
    "contracts/libraries/logic/BorrowLogic.sol": {
      "BorrowLogic": [
        {
          "length": 20,
          "start": 1311
        },
        {
          "length": 20,
          "start": 1875
        },
        {
          "length": 20,
          "start": 4983
        },
        {
          "length": 20,
          "start": 5744
        }
      ]
    },
    "contracts/libraries/logic/LiquidationLogic.sol": {
      "LiquidationLogic": [
        {
          "length": 20,
          "start": 5353
        }
      ]
    },
    "contracts/libraries/logic/SupplyLogic.sol": {
      "SupplyLogic": [
        {
          "length": 20,
          "start": 864
        },
        {
          "length": 20,
          "start": 3275
        },
        {
          "length": 20,
          "start": 3650
        },
        {
          "length": 20,
          "start": 4448
        },
        {
          "length": 20,
          "start": 12455
        }
      ]
    }
  }
}