{
  "_format": "hh-sol-artifact-1",
  "contractName": "NativeTokenVault",
  "sourceName": "contracts/protocol/NativeTokenVault.sol",
  "abi": [
    {
      "anonymous": false,
      "inputs": [
        {
          "indexed": true,
          "internalType": "address",
          "name": "owner",
          "type": "address"
        },
        {
          "indexed": true,
          "internalType": "address",
          "name": "spender",
          "type": "address"
        },
        {
          "indexed": false,
          "internalType": "uint256",
          "name": "value",
          "type": "uint256"
        }
      ],
      "name": "Approval",
      "type": "event"
    },
    {
      "anonymous": false,
      "inputs": [
        {
          "indexed": true,
          "internalType": "address",
          "name": "user",
          "type": "address"
        },
        {
          "indexed": false,
          "internalType": "uint256",
          "name": "amount",
          "type": "uint256"
        }
      ],
      "name": "Deposit",
      "type": "event"
    },
    {
      "anonymous": false,
      "inputs": [
        {
          "indexed": false,
          "internalType": "uint256",
          "name": "_amount",
          "type": "uint256"
        }
      ],
      "name": "DistributeRewards",
      "type": "event"
    },
    {
      "anonymous": false,
      "inputs": [
        {
          "indexed": false,
          "internalType": "uint8",
          "name": "version",
          "type": "uint8"
        }
      ],
      "name": "Initialized",
      "type": "event"
    },
    {
      "anonymous": false,
      "inputs": [
        {
          "indexed": true,
          "internalType": "address",
          "name": "previousOwner",
          "type": "address"
        },
        {
          "indexed": true,
          "internalType": "address",
          "name": "newOwner",
          "type": "address"
        }
      ],
      "name": "OwnershipTransferred",
      "type": "event"
    },
    {
      "anonymous": false,
      "inputs": [
        {
          "indexed": true,
          "internalType": "address",
          "name": "user",
          "type": "address"
        },
        {
          "indexed": true,
          "internalType": "address",
          "name": "collection",
          "type": "address"
        },
        {
          "indexed": false,
          "internalType": "uint256",
          "name": "amount",
          "type": "uint256"
        }
      ],
      "name": "RemoveVote",
      "type": "event"
    },
    {
      "anonymous": false,
      "inputs": [
        {
          "indexed": true,
          "internalType": "address",
          "name": "from",
          "type": "address"
        },
        {
          "indexed": true,
          "internalType": "address",
          "name": "to",
          "type": "address"
        },
        {
          "indexed": false,
          "internalType": "uint256",
          "name": "value",
          "type": "uint256"
        }
      ],
      "name": "Transfer",
      "type": "event"
    },
    {
      "anonymous": false,
      "inputs": [
        {
          "indexed": true,
          "internalType": "address",
          "name": "user",
          "type": "address"
        },
        {
          "indexed": true,
          "internalType": "address",
          "name": "collection",
          "type": "address"
        },
        {
          "indexed": false,
          "internalType": "uint256",
          "name": "amount",
          "type": "uint256"
        }
      ],
      "name": "Vote",
      "type": "event"
    },
    {
      "anonymous": false,
      "inputs": [
        {
          "indexed": true,
          "internalType": "address",
          "name": "user",
          "type": "address"
        },
        {
          "indexed": false,
          "internalType": "uint256",
          "name": "amount",
          "type": "uint256"
        }
      ],
      "name": "Withdraw",
      "type": "event"
    },
    {
      "inputs": [
        {
          "internalType": "address",
          "name": "owner",
          "type": "address"
        },
        {
          "internalType": "address",
          "name": "spender",
          "type": "address"
        }
      ],
      "name": "allowance",
      "outputs": [
        {
          "internalType": "uint256",
          "name": "",
          "type": "uint256"
        }
      ],
      "stateMutability": "view",
      "type": "function"
    },
    {
      "inputs": [
        {
          "internalType": "address",
          "name": "spender",
          "type": "address"
        },
        {
          "internalType": "uint256",
          "name": "amount",
          "type": "uint256"
        }
      ],
      "name": "approve",
      "outputs": [
        {
          "internalType": "bool",
          "name": "",
          "type": "bool"
        }
      ],
      "stateMutability": "nonpayable",
      "type": "function"
    },
    {
      "inputs": [
        {
          "internalType": "address",
          "name": "account",
          "type": "address"
        }
      ],
      "name": "balanceOf",
      "outputs": [
        {
          "internalType": "uint256",
          "name": "",
          "type": "uint256"
        }
      ],
      "stateMutability": "view",
      "type": "function"
    },
    {
      "inputs": [
        {
          "internalType": "uint256",
          "name": "amount",
          "type": "uint256"
        }
      ],
      "name": "createWithdrawalRequest",
      "outputs": [],
      "stateMutability": "nonpayable",
      "type": "function"
    },
    {
      "inputs": [],
      "name": "decimals",
      "outputs": [
        {
          "internalType": "uint8",
          "name": "",
          "type": "uint8"
        }
      ],
      "stateMutability": "view",
      "type": "function"
    },
    {
      "inputs": [
        {
          "internalType": "address",
          "name": "spender",
          "type": "address"
        },
        {
          "internalType": "uint256",
          "name": "subtractedValue",
          "type": "uint256"
        }
      ],
      "name": "decreaseAllowance",
      "outputs": [
        {
          "internalType": "bool",
          "name": "",
          "type": "bool"
        }
      ],
      "stateMutability": "nonpayable",
      "type": "function"
    },
    {
      "inputs": [
        {
          "internalType": "uint256",
          "name": "amount",
          "type": "uint256"
        }
      ],
      "name": "deposit",
      "outputs": [],
      "stateMutability": "nonpayable",
      "type": "function"
    },
    {
      "inputs": [],
      "name": "distributeStakingRewards",
      "outputs": [],
      "stateMutability": "nonpayable",
      "type": "function"
    },
    {
      "inputs": [],
      "name": "getBoostFactor",
      "outputs": [
        {
          "internalType": "uint256",
          "name": "",
          "type": "uint256"
        }
      ],
      "stateMutability": "view",
      "type": "function"
    },
    {
      "inputs": [],
      "name": "getBoostLimit",
      "outputs": [
        {
          "internalType": "uint256",
          "name": "",
          "type": "uint256"
        }
      ],
      "stateMutability": "view",
      "type": "function"
    },
    {
      "inputs": [
        {
          "internalType": "address",
          "name": "reserve",
          "type": "address"
        },
        {
          "internalType": "uint256",
          "name": "reserveTokenPrice",
          "type": "uint256"
        },
        {
          "internalType": "uint256",
          "name": "assetPrice",
          "type": "uint256"
        },
        {
          "internalType": "uint256",
          "name": "liquidationPrice",
          "type": "uint256"
        }
      ],
      "name": "getLiquidationReward",
      "outputs": [
        {
          "internalType": "uint256",
          "name": "",
          "type": "uint256"
        }
      ],
      "stateMutability": "view",
      "type": "function"
    },
    {
      "inputs": [],
      "name": "getLiquidationRewardFactor",
      "outputs": [
        {
          "internalType": "uint256",
          "name": "",
          "type": "uint256"
        }
      ],
      "stateMutability": "view",
      "type": "function"
    },
    {
      "inputs": [],
      "name": "getLiquidationRewardPriceLimit",
      "outputs": [
        {
          "internalType": "uint256",
          "name": "",
          "type": "uint256"
        }
      ],
      "stateMutability": "view",
      "type": "function"
    },
    {
      "inputs": [],
      "name": "getLiquidationRewardPriceThreshold",
      "outputs": [
        {
          "internalType": "uint256",
          "name": "",
          "type": "uint256"
        }
      ],
      "stateMutability": "view",
      "type": "function"
    },
    {
      "inputs": [],
      "name": "getLockedBalance",
      "outputs": [
        {
          "internalType": "uint256",
          "name": "",
          "type": "uint256"
        }
      ],
      "stateMutability": "view",
      "type": "function"
    },
    {
      "inputs": [],
      "name": "getMaxLiquidationReward",
      "outputs": [
        {
          "internalType": "uint256",
          "name": "",
          "type": "uint256"
        }
      ],
      "stateMutability": "view",
      "type": "function"
    },
    {
      "inputs": [
        {
          "internalType": "address",
          "name": "user",
          "type": "address"
        }
      ],
      "name": "getMaximumWithdrawalAmount",
      "outputs": [
        {
          "internalType": "uint256",
          "name": "",
          "type": "uint256"
        }
      ],
      "stateMutability": "view",
      "type": "function"
    },
    {
      "inputs": [],
      "name": "getStakingMaxPeriods",
      "outputs": [
        {
          "internalType": "uint256",
          "name": "",
          "type": "uint256"
        }
      ],
      "stateMutability": "view",
      "type": "function"
    },
    {
      "inputs": [],
      "name": "getStakingRewards",
      "outputs": [
        {
          "internalType": "uint256",
          "name": "",
          "type": "uint256"
        }
      ],
      "stateMutability": "view",
      "type": "function"
    },
    {
      "inputs": [],
      "name": "getStakingRewardsFactor",
      "outputs": [
        {
          "internalType": "uint256",
          "name": "",
          "type": "uint256"
        }
      ],
      "stateMutability": "view",
      "type": "function"
    },
    {
      "inputs": [],
      "name": "getStakingRewardsPeriod",
      "outputs": [
        {
          "internalType": "uint256",
          "name": "",
          "type": "uint256"
        }
      ],
      "stateMutability": "view",
      "type": "function"
    },
    {
      "inputs": [
        {
          "internalType": "address",
          "name": "user",
          "type": "address"
        },
        {
          "internalType": "address",
          "name": "collection",
          "type": "address"
        }
      ],
      "name": "getUserCollectionVotes",
      "outputs": [
        {
          "internalType": "uint256",
          "name": "",
          "type": "uint256"
        }
      ],
      "stateMutability": "view",
      "type": "function"
    },
    {
      "inputs": [
        {
          "internalType": "address",
          "name": "user",
          "type": "address"
        }
      ],
      "name": "getUserFreeVotes",
      "outputs": [
        {
          "internalType": "uint256",
          "name": "",
          "type": "uint256"
        }
      ],
      "stateMutability": "view",
      "type": "function"
    },
    {
      "inputs": [
        {
          "internalType": "address",
          "name": "user",
          "type": "address"
        },
        {
          "internalType": "address",
          "name": "collection",
          "type": "address"
        }
      ],
      "name": "getVoteCollateralizationBoost",
      "outputs": [
        {
          "internalType": "uint256",
          "name": "",
          "type": "uint256"
        }
      ],
      "stateMutability": "view",
      "type": "function"
    },
    {
      "inputs": [
        {
          "internalType": "address",
          "name": "user",
          "type": "address"
        }
      ],
      "name": "getWithdrawalRequest",
      "outputs": [
        {
          "components": [
            {
              "internalType": "bool",
              "name": "created",
              "type": "bool"
            },
            {
              "internalType": "uint256",
              "name": "amount",
              "type": "uint256"
            },
            {
              "internalType": "uint256",
              "name": "timestamp",
              "type": "uint256"
            }
          ],
          "internalType": "struct DataTypes.WithdrawalRequest",
          "name": "",
          "type": "tuple"
        }
      ],
      "stateMutability": "view",
      "type": "function"
    },
    {
      "inputs": [
        {
          "internalType": "address",
          "name": "spender",
          "type": "address"
        },
        {
          "internalType": "uint256",
          "name": "addedValue",
          "type": "uint256"
        }
      ],
      "name": "increaseAllowance",
      "outputs": [
        {
          "internalType": "bool",
          "name": "",
          "type": "bool"
        }
      ],
      "stateMutability": "nonpayable",
      "type": "function"
    },
    {
      "inputs": [
        {
          "internalType": "contract IAddressesProvider",
          "name": "addressProvider",
          "type": "address"
        },
        {
          "internalType": "string",
          "name": "name",
          "type": "string"
        },
        {
          "internalType": "string",
          "name": "symbol",
          "type": "string"
        },
        {
          "components": [
            {
              "internalType": "uint256",
              "name": "factor",
              "type": "uint256"
            },
            {
              "internalType": "uint256",
              "name": "maxReward",
              "type": "uint256"
            },
            {
              "internalType": "uint256",
              "name": "priceThreshold",
              "type": "uint256"
            },
            {
              "internalType": "uint256",
              "name": "priceLimit",
              "type": "uint256"
            }
          ],
          "internalType": "struct DataTypes.LiquidationRewardParams",
          "name": "liquidatonRewardsParams",
          "type": "tuple"
        },
        {
          "components": [
            {
              "internalType": "uint256",
              "name": "factor",
              "type": "uint256"
            },
            {
              "internalType": "uint256",
              "name": "limit",
              "type": "uint256"
            }
          ],
          "internalType": "struct DataTypes.BoostParams",
          "name": "boostParams",
          "type": "tuple"
        },
        {
          "components": [
            {
              "internalType": "uint256",
              "name": "factor",
              "type": "uint256"
            },
            {
              "internalType": "uint256",
              "name": "period",
              "type": "uint256"
            },
            {
              "internalType": "uint256",
              "name": "maxPeriods",
              "type": "uint256"
            }
          ],
          "internalType": "struct DataTypes.StakingRewardParams",
          "name": "stakingRewardsParams",
          "type": "tuple"
        }
      ],
      "name": "initialize",
      "outputs": [],
      "stateMutability": "nonpayable",
      "type": "function"
    },
    {
      "inputs": [
        {
          "internalType": "address",
          "name": "reserve",
          "type": "address"
        }
      ],
      "name": "isReserveIncentivized",
      "outputs": [
        {
          "internalType": "bool",
          "name": "",
          "type": "bool"
        }
      ],
      "stateMutability": "view",
      "type": "function"
    },
    {
      "inputs": [],
      "name": "name",
      "outputs": [
        {
          "internalType": "string",
          "name": "",
          "type": "string"
        }
      ],
      "stateMutability": "view",
      "type": "function"
    },
    {
      "inputs": [],
      "name": "owner",
      "outputs": [
        {
          "internalType": "address",
          "name": "",
          "type": "address"
        }
      ],
      "stateMutability": "view",
      "type": "function"
    },
    {
      "inputs": [
        {
          "internalType": "uint256",
          "name": "amount",
          "type": "uint256"
        },
        {
          "internalType": "address",
          "name": "collection",
          "type": "address"
        }
      ],
      "name": "removeVote",
      "outputs": [],
      "stateMutability": "nonpayable",
      "type": "function"
    },
    {
      "inputs": [],
      "name": "renounceOwnership",
      "outputs": [],
      "stateMutability": "nonpayable",
      "type": "function"
    },
    {
      "inputs": [
        {
          "internalType": "address",
          "name": "liquidator",
          "type": "address"
        },
        {
          "internalType": "uint256",
          "name": "amount",
          "type": "uint256"
        }
      ],
      "name": "sendLiquidationReward",
      "outputs": [],
      "stateMutability": "nonpayable",
      "type": "function"
    },
    {
      "inputs": [
        {
          "internalType": "uint256",
          "name": "boostFactor",
          "type": "uint256"
        }
      ],
      "name": "setBoostFactor",
      "outputs": [],
      "stateMutability": "nonpayable",
      "type": "function"
    },
    {
      "inputs": [
        {
          "internalType": "uint256",
          "name": "boostLimit",
          "type": "uint256"
        }
      ],
      "name": "setBoostLimit",
      "outputs": [],
      "stateMutability": "nonpayable",
      "type": "function"
    },
    {
      "inputs": [
        {
          "internalType": "uint256",
          "name": "liquidationRewardFactor",
          "type": "uint256"
        }
      ],
      "name": "setLiquidationRewardFactor",
      "outputs": [],
      "stateMutability": "nonpayable",
      "type": "function"
    },
    {
      "inputs": [
        {
          "internalType": "uint256",
          "name": "liquidationRewardPriceLimit",
          "type": "uint256"
        }
      ],
      "name": "setLiquidationRewardPriceLimit",
      "outputs": [],
      "stateMutability": "nonpayable",
      "type": "function"
    },
    {
      "inputs": [
        {
          "internalType": "uint256",
          "name": "liquidationRewardPriceThreshold",
          "type": "uint256"
        }
      ],
      "name": "setLiquidationRewardPriceThreshold",
      "outputs": [],
      "stateMutability": "nonpayable",
      "type": "function"
    },
    {
      "inputs": [
        {
          "internalType": "uint256",
          "name": "maxLiquidationReward",
          "type": "uint256"
        }
      ],
      "name": "setMaxLiquidationReward",
      "outputs": [],
      "stateMutability": "nonpayable",
      "type": "function"
    },
    {
      "inputs": [
        {
          "internalType": "address",
          "name": "reserve",
          "type": "address"
        },
        {
          "internalType": "bool",
          "name": "mode",
          "type": "bool"
        }
      ],
      "name": "setReserveIncentives",
      "outputs": [],
      "stateMutability": "nonpayable",
      "type": "function"
    },
    {
      "inputs": [
        {
          "internalType": "uint256",
          "name": "maxPeriods",
          "type": "uint256"
        }
      ],
      "name": "setStakingMaxPeriods",
      "outputs": [],
      "stateMutability": "nonpayable",
      "type": "function"
    },
    {
      "inputs": [
        {
          "internalType": "uint256",
          "name": "rewardsFactor",
          "type": "uint256"
        }
      ],
      "name": "setStakingRewardsFactor",
      "outputs": [],
      "stateMutability": "nonpayable",
      "type": "function"
    },
    {
      "inputs": [
        {
          "internalType": "uint256",
          "name": "rewardsPeriod",
          "type": "uint256"
        }
      ],
      "name": "setStakingRewardsPeriod",
      "outputs": [],
      "stateMutability": "nonpayable",
      "type": "function"
    },
    {
      "inputs": [],
      "name": "symbol",
      "outputs": [
        {
          "internalType": "string",
          "name": "",
          "type": "string"
        }
      ],
      "stateMutability": "view",
      "type": "function"
    },
    {
      "inputs": [],
      "name": "totalSupply",
      "outputs": [
        {
          "internalType": "uint256",
          "name": "",
          "type": "uint256"
        }
      ],
      "stateMutability": "view",
      "type": "function"
    },
    {
      "inputs": [
        {
          "internalType": "address",
          "name": "",
          "type": "address"
        },
        {
          "internalType": "uint256",
          "name": "",
          "type": "uint256"
        }
      ],
      "name": "transfer",
      "outputs": [
        {
          "internalType": "bool",
          "name": "",
          "type": "bool"
        }
      ],
      "stateMutability": "pure",
      "type": "function"
    },
    {
      "inputs": [
        {
          "internalType": "address",
          "name": "",
          "type": "address"
        },
        {
          "internalType": "address",
          "name": "",
          "type": "address"
        },
        {
          "internalType": "uint256",
          "name": "",
          "type": "uint256"
        }
      ],
      "name": "transferFrom",
      "outputs": [
        {
          "internalType": "bool",
          "name": "",
          "type": "bool"
        }
      ],
      "stateMutability": "pure",
      "type": "function"
    },
    {
      "inputs": [
        {
          "internalType": "address",
          "name": "newOwner",
          "type": "address"
        }
      ],
      "name": "transferOwnership",
      "outputs": [],
      "stateMutability": "nonpayable",
      "type": "function"
    },
    {
      "inputs": [
        {
          "internalType": "uint256",
          "name": "amount",
          "type": "uint256"
        },
        {
          "internalType": "address",
          "name": "collection",
          "type": "address"
        }
      ],
      "name": "vote",
      "outputs": [],
      "stateMutability": "nonpayable",
      "type": "function"
    },
    {
      "inputs": [
        {
          "internalType": "uint256",
          "name": "amount",
          "type": "uint256"
        }
      ],
      "name": "withdraw",
      "outputs": [],
      "stateMutability": "nonpayable",
      "type": "function"
    }
  ],
  "bytecode": "0x6080806040523461001657613338908161001c8239f35b600080fdfe60806040526004361015610013575b600080fd5b60003560e01c80630247a697146103fb57806302d947ef146103f257806306fdde03146103e9578063095ea7b3146103e05780630a1535d5146103d757806318160ddd146103ce57806323b872dd146103c557806323ca0eb0146103bc5780632549e0b1146103b357806326cfc022146103aa5780632e1a7d4d146103a1578063313ce5671461039857806337d2af481461038f57806337db050214610386578063395093511461037d5780633da3b20e146103745780633e680e7a1461036b5780633f51781b1461036257806345291b2414610359578063453cd60e1461035057806350ae389a1461034757806359b8bc561461033e57806370a0823114610335578063715018a61461032c5780637cbcd571146103235780637f26fbbf1461031a57806383162aa814610311578063864cf9df1461030857806388b151b6146102ff5780638c661b5d146102f65780638da5cb5b146102ed57806391f5bbed146102e457806395d89b41146102db578063986768b2146102d25780639a3418d5146102c95780639b0d1b96146102c0578063a457c2d7146102b7578063a7e06985146102ae578063a9059cbb146102a5578063ab2946ff1461029c578063b6b55f2514610293578063baf03a2b1461028a578063bc76ee0d14610281578063c4d31a6d14610278578063c8435ea01461026f578063ca286e9214610266578063dd62ed3e1461025d578063ec9fedb414610254578063f2fde38b1461024b5763fab007921461024357600080fd5b61000e611c6c565b5061000e611bda565b5061000e611bbb565b5061000e611b7e565b5061000e611b5c565b5061000e611b3a565b5061000e611b1b565b5061000e611afc565b5061000e611ab6565b5061000e6118b2565b5061000e61155a565b5061000e611519565b5061000e6114bd565b5061000e6113f4565b5061000e6113b6565b5061000e611394565b5061000e611378565b5061000e6112d0565b5061000e61129c565b5061000e611272565b5061000e611174565b5061000e611155565b5061000e611133565b5061000e611114565b5061000e6110f5565b5061000e610f8b565b5061000e610f2c565b5061000e610eee565b5061000e610ecc565b5061000e610eaa565b5061000e610e67565b5061000e610de0565b5061000e610d7d565b5061000e610d10565b5061000e610cf1565b5061000e610c8b565b5061000e610c6c565b5061000e610c4d565b5061000e610c30565b5061000e610a4e565b5061000e610a2c565b5061000e610a08565b5061000e610874565b5061000e610842565b5061000e610823565b5061000e610801565b5061000e6107cb565b5061000e6106e5565b5061000e610501565b5061000e610415565b6001600160a01b0381160361000e57565b503461000e57604036600319011261000e5760043561043381610404565b60c95460405163e7334fe560e01b81526001600160a01b03916020908290600490829086165afa9081156104f4575b6000916104c6575b501633036104815761047f9060243590612ff8565b005b60405162461bcd60e51b815260206004820152601e60248201527f43616c6c6572206d757374206265204d61726b657420636f6e747261637400006044820152606490fd5b6104e7915060203d81116104ed575b6104df8183611ea1565b810190612608565b3861046a565b503d6104d5565b6104fc61261d565b610462565b503461000e57604036600319011261000e5760243560043561052282610404565b610531600260975414156125bc565b600260975560c9546001600160a01b031673__$5201a97c05ba6aa659e2f36a933dd51801$__803b1561000e57604051636cd5783960e11b81526001600160a01b0392909216600483015260248201839052600090829060449082905af48015610679575b610660575b5033600090815260d5602052604090206105c99083905b9060018060a01b0316600052602052604060002090565b6105d4828254611ef2565b90556001600160a01b038216600090815260d7602052604090206105f9828254611ef2565b905533600090815260d6602052604090206106158282546129b9565b90556040519081526001600160a01b039091169033907f66a9138482c99e9baf08860110ef332cc0c23b4a199a53593d8db0fc8f96fbfc9080602081015b0390a361047f6001609755565b8061066d61067392611e48565b80610686565b3861059b565b61068161261d565b610596565b600091031261000e57565b919082519283825260005b8481106106bd575050826000602080949584010152601f8019910116010190565b60208183018101518483018201520161069c565b9060206106e2928181520190610691565b90565b503461000e576000806003193601126107c857604051908060365461070981611df7565b8085529160019180831690811561079e5750600114610743575b61073f8561073381870382611ea1565b604051918291826106d1565b0390f35b9250603683527f4a11f94e20a93c79f6ec743a1954ec4fc2c08429ae2122118bf234b2185c81b85b8284106107865750505081016020016107338261073f610723565b8054602085870181019190915290930192810161076b565b86955061073f9693506020925061073394915060ff191682840152151560051b8201019293610723565b80fd5b503461000e57604036600319011261000e576107f66004356107ec81610404565b6024359033611eff565b602060405160018152f35b503461000e57602036600319011261000e5761081b611d56565b60043560d255005b503461000e57600036600319011261000e576020603554604051908152f35b3461000e57606036600319011261000e5761085e600435610404565b610869602435610404565b610871613270565b50565b503461000e576000806003193601126107c857610896600260975414156125bc565b60026097556108d56108c360cf546108bb6108b460d3548093611ef2565b42116131c6565b60d45461263c565b6108cf60ca54426129b9565b1061322b565b6108dd613130565b60c954600490602090610900906001600160a01b03165b6001600160a01b031690565b6040516315b9ba5d60e01b815292839182905afa9081156109fb575b83916109dd575b506001600160a01b0316803b156109d9577fb9d196a585c1a894f648393ec7d52cc59ff6d94191579d073ba32b0a74d7f7a6916109a991846040518092633b39b47b60e21b825281838161097f88600483019190602083019252565b03925af180156109cc575b6109b9575b506109994260cf55565b6040519081529081906020820190565b0390a16109b66001609755565b80f35b8061066d6109c692611e48565b3861098f565b6109d461261d565b61098a565b8280fd5b6109f5915060203d81116104ed576104df8183611ea1565b38610923565b610a0361261d565b61091c565b503461000e57600036600319011261000e576020610a24613068565b604051908152f35b503461000e57602036600319011261000e57610a46611d56565b60043560d355005b503461000e57602036600319011261000e57600435610a72600260975414156125bc565b600260975560c9546001600160a01b031673__$5201a97c05ba6aa659e2f36a933dd51801$__803b1561000e57604051633295ceef60e21b81526001600160a01b0392909216600483015260248201839052600090829060449082905af48015610c23575b610c10575b5060355480610bf05750805b610af381151561299c565b610afd82336129c6565b33600090815260d660205260409020610b18909182546129b9565b905533600090815260d8602052604081208181556001810182905560020155610b888160046020610b536108f460c95460018060a01b031690565b6040516315b9ba5d60e01b815292839182905afa908115610be3575b600091610bc5575b5033906001600160a01b0316612af2565b60405190815233907f884edad9ce6fa2440d8a54cc123490eb96d2768479d49ff9c7366125a94243649080602081015b0390a261047f6001609755565b610bdd915060203d81116104ed576104df8183611ea1565b38610b77565b610beb61261d565b610b6f565b610bfd610c0b918361263c565b610c05613068565b9061264f565b610ae8565b8061066d610c1d92611e48565b38610adc565b610c2b61261d565b610ad7565b503461000e57600036600319011261000e57602060405160128152f35b503461000e57600036600319011261000e57602060d454604051908152f35b503461000e57600036600319011261000e57602060ce54604051908152f35b503461000e57604036600319011261000e576107f6600435610cac81610404565b3360009081526034602090815260408083206001600160a01b0385168452909152902054906024358201809211610ce4575b33611eff565b610cec611ec3565b610cde565b503461000e57600036600319011261000e57602060d254604051908152f35b503461000e57602036600319011261000e57600435610d2e81610404565b6001600160a01b0316600090815260d6602052604090205480610d58575060206000604051908152f35b610d78610d6f602092610d69613068565b9061263c565b6035549061264f565b610a24565b503461000e57602036600319011261000e57610d97611d56565b60043560d155005b9181601f8401121561000e5782359167ffffffffffffffff831161000e576020838186019501011161000e57565b60609061012319011261000e5761012490565b503461000e5761018036600319011261000e57600435610dff81610404565b67ffffffffffffffff9060243582811161000e57610e21903690600401610d9f565b909260443590811161000e57610e3b903690600401610d9f565b91608036606319011261000e5760403660e319011261000e5761047f94610e6136610dcd565b94612018565b503461000e57602036600319011261000e57600435610e8581610404565b60018060a01b031660005260d9602052602060ff604060002054166040519015158152f35b503461000e57602036600319011261000e57610ec4611d56565b60043560d455005b503461000e57602036600319011261000e57610ee6611d56565b60043560cb55005b503461000e57602036600319011261000e57600435610f0c81610404565b60018060a01b031660005260336020526020604060002054604051908152f35b503461000e576000806003193601126107c857610f47611d56565b606580546001600160a01b0319811690915581906001600160a01b03167f8be0079c531659141344cd1fd0a4f28419497f9722a3daafe3b4186f6b6457e08280a380f35b503461000e57604036600319011261000e57602435600435610fac82610404565b610fbb600260975414156125bc565b600260975560c9546001600160a01b031673__$5201a97c05ba6aa659e2f36a933dd51801$__803b1561000e57604051631445052b60e11b81526001600160a01b039283166004820152602481018490529184166044830152600090829060649082905af480156110e8575b6110d5575b5033600090815260d5602052604090206110479083906105b2565b6110528282546129b9565b90556001600160a01b038216600090815260d7602052604090206110778282546129b9565b905533600090815260d660205260409020611093828254611ef2565b90556040519081526001600160a01b039091169033907f72604881741b21dd04fd9cf15e323a7e936c3e7d681be4e1ff2fc51e2a1daa2c908060208101610653565b8061066d6110e292611e48565b3861102c565b6110f061261d565b611027565b503461000e57600036600319011261000e57602060cc54604051908152f35b503461000e57600036600319011261000e57602060d054604051908152f35b503461000e57602036600319011261000e5761114d611d56565b60043560d055005b503461000e57600036600319011261000e57602060cd54604051908152f35b503461000e57602036600319011261000e5760043561119281610404565b6000604080516111a181611e69565b828152826020820152015260018060a01b03811660005260d8602052600160ff60406000205416151503611219576001600160a01b0316600090815260d86020526040902061073f906111f39061296f565b604080518251151581526020808401519082015291810151908201529081906060820190565b60405162461bcd60e51b815260206004820152602b60248201527f55736572206861736e2774206372656174656420616e7920776974686472617760448201526a616c20726571756573747360a81b6064820152608490fd5b503461000e57600036600319011261000e576065546040516001600160a01b039091168152602090f35b503461000e57608036600319011261000e576020610a246004356112bf81610404565b606435906044359060243590612c92565b503461000e576000806003193601126107c85760405190806037546112f481611df7565b8085529160019180831690811561079e575060011461131d5761073f8561073381870382611ea1565b9250603783527f42a7b7dd785cd69714a189dffb3fd7d7174edc9ece837694ce50f7078f7c31ae5b8284106113605750505081016020016107338261073f610723565b80546020858701810191909152909301928101611345565b503461000e57600036600319011261000e576020610a24613130565b503461000e57602036600319011261000e576113ae611d56565b60043560cc55005b503461000e57602036600319011261000e576004356113d481610404565b60018060a01b031660005260d66020526020604060002054604051908152f35b503461000e57604036600319011261000e5760043561141281610404565b6024359033600052603460205261143f8160406000209060018060a01b0316600052602052604060002090565b54918083106114605761145492039033611eff565b60405160018152602090f35b60405162461bcd60e51b815260206004820152602560248201527f45524332303a2064656372656173656420616c6c6f77616e63652062656c6f77604482015264207a65726f60d81b6064820152608490fd5b8015150361000e57565b503461000e57604036600319011261000e576004356114db81610404565b602435906114e8826114b3565b6114f0611d56565b60018060a01b031660005260d960205260406000209060ff801983541691151516179055600080f35b3461000e57604036600319011261000e57610869600435610404565b604090600319011261000e5760043561154d81610404565b906024356106e281610404565b503461000e5761073f61173761156f36611535565b60c954919291600091610c059161172d9161172891611596906001600160a01b03166108f4565b94816116046040998a51809381926314d888d960e21b83528d8c60209485916004998a915afa9485156118a5575b889561187c575b50516325515dcf60e21b81526001600160a01b039182168782019081529290911660208301529361162891859184918391829160400190565b0360018060a01b0397888098165afa90811561186f575b8791611852575b50611eda565b998c51948d836116a463cfeed18160e01b9889815282818681895afa908115611845575b8b91611828575b5083516315b9ba5d60e01b8152838187818a5afa90811561181b575b8c916117fe575b50845163e88c199760e01b81526001600160a01b0390911686820190815290998a9384928391602090910190565b0392165afa9586156117f1575b88966117c8575b5083949596828592518095819382525afa9182156117bb575b879261179c575b508d516304752df760e11b81529485928391165afa93841561178f575b9361175a575b505061171d611723929360018060a01b031660005260d7602052604060002090565b5461263c565b61264f565b61262a565b9160d0549061263c565b9060d154808311611752575b50519081529081906020820190565b915038611743565b611723935061171d918161178292903d10611788575b61177a8183611ea1565b810190612bdd565b926116fb565b503d611770565b61179761261d565b6116f5565b6117b4919250833d85116104ed576104df8183611ea1565b90386116d8565b6117c361261d565b6116d1565b8495965096826117e6869399843d86116117885761177a8183611ea1565b9796505096906116b8565b6117f961261d565b6116b1565b6118159150843d86116104ed576104df8183611ea1565b38611676565b61182361261d565b61166f565b61183f9150833d85116104ed576104df8183611ea1565b38611653565b61184d61261d565b61164c565b6118699150833d85116117885761177a8183611ea1565b38611622565b61187761261d565b61161b565b849195509161189b6116289493833d85116104ed576104df8183611ea1565b95915091926115cb565b6118ad61261d565b6115c4565b503461000e5760208060031936011261000e57600435906118d8600260975414156125bc565b600260975560c95473__$5201a97c05ba6aa659e2f36a933dd51801$__9190611909906001600160a01b03166108f4565b916040519180836004816315b9ba5d60e01b978882525afa928315611aa9575b600093611a8a575b50813b1561000e57604051636c5bfca160e11b81526001600160a01b03939093166004840152602483018590526119d2928592600090829060449082905af48015611a7d575b611a6a575b5060355480611a57575081935b60c95482906119a0906001600160a01b03166108f4565b9160046040518094819382525afa918215611a4a575b600092611a2d575b5030913391506001600160a01b031661274c565b6119dc813361266f565b33600090815260d6602052604090206119f790918254611ef2565b905560405190815233907fe1fffcc4923d04b559f4d29a8bfc6cda04eb5b0d3c460751c2402c5c5cc9109c908060208101610bb8565b611a439250803d106104ed576104df8183611ea1565b38806119be565b611a5261261d565b6119b6565b610bfd611a64918461263c565b93611989565b8061066d611a7792611e48565b3861197c565b611a8561261d565b611977565b81611aa29294503d85116104ed576104df8183611ea1565b9138611931565b611ab161261d565b611929565b503461000e576020611af3611aca36611535565b6001600160a01b03918216600090815260d5855260408082209290931681526020919091522090565b54604051908152f35b503461000e57600036600319011261000e57602060d154604051908152f35b503461000e57600036600319011261000e57602060cb54604051908152f35b503461000e57602036600319011261000e57611b54611d56565b60043560ce55005b503461000e57602036600319011261000e57611b76611d56565b60043560cd55005b503461000e576020611af3611b9236611535565b6001600160a01b0391821660009081526034855260408082209290931681526020919091522090565b503461000e57600036600319011261000e57602060d354604051908152f35b503461000e57602036600319011261000e57600435611bf881610404565b611c00611d56565b6001600160a01b03811615611c185761047f90611dae565b60405162461bcd60e51b815260206004820152602660248201527f4f776e61626c653a206e6577206f776e657220697320746865207a65726f206160448201526564647265737360d01b6064820152608490fd5b503461000e57600060203660031901126107c857600435611c92600260975414156125bc565b600260975560c95473__$5201a97c05ba6aa659e2f36a933dd51801$__9083906001600160a01b0316823b15611d525760405162d0fbc760e71b81526001600160a01b039190911660048201526024810184905291829060449082905af48015611d45575b611d30575b50611d269033835260d86020526040832090600160ff198354161782556001820155600242910155565b6109b66001609755565b91611d3e611d269293611e48565b9190611cfc565b611d4d61261d565b611cf7565b5080fd5b6065546001600160a01b03163303611d6a57565b606460405162461bcd60e51b815260206004820152602060248201527f4f776e61626c653a2063616c6c6572206973206e6f7420746865206f776e65726044820152fd5b606580546001600160a01b039283166001600160a01b0319821681179092559091167f8be0079c531659141344cd1fd0a4f28419497f9722a3daafe3b4186f6b6457e0600080a3565b90600182811c92168015611e27575b6020831014611e1157565b634e487b7160e01b600052602260045260246000fd5b91607f1691611e06565b50634e487b7160e01b600052604160045260246000fd5b67ffffffffffffffff8111611e5c57604052565b611e64611e31565b604052565b6060810190811067ffffffffffffffff821117611e5c57604052565b6040810190811067ffffffffffffffff821117611e5c57604052565b90601f8019910116810190811067ffffffffffffffff821117611e5c57604052565b50634e487b7160e01b600052601160045260246000fd5b9060018201809211611ee857565b611ef0611ec3565b565b91908201809211611ee857565b6001600160a01b038082169291908315611fc7578216938415611f775780611f617f8c5be1e5ebec7d5bd14f71427d1e84f3dd0314c0f7b2291e5b200ac8c7c3b925946105b2611f729560018060a01b03166000526034602052604060002090565b556040519081529081906020820190565b0390a3565b60405162461bcd60e51b815260206004820152602260248201527f45524332303a20617070726f766520746f20746865207a65726f206164647265604482015261737360f01b6064820152608490fd5b60405162461bcd60e51b8152602060048201526024808201527f45524332303a20617070726f76652066726f6d20746865207a65726f206164646044820152637265737360e01b6064820152608490fd5b9391949290946000549560ff8760081c16158097819861213a575b811561211a575b50156120be576120609587612057600160ff196000541617600055565b6120a5576121aa565b61206657565b61207661ff001960005416600055565b604051600181527f7f26b83ff96e1f2b6a682f133852f6798a09c465da95921460cefb384740249890602090a1565b6120b961010061ff00196000541617600055565b6121aa565b60405162461bcd60e51b815260206004820152602e60248201527f496e697469616c697a61626c653a20636f6e747261637420697320616c72656160448201526d191e481a5b9a5d1a585b1a5e995960921b6064820152608490fd5b303b1591508161212c575b503861203a565b6001915060ff161438612125565b600160ff8216109150612033565b60209067ffffffffffffffff8111612166575b601f01601f19160190565b61216e611e31565b61215b565b92919261217f82612148565b9161218d6040519384611ea1565b82948184528183011161000e578281602093846000960137010152565b9392906121df906121e7936121cf60ff60005460081c166121ca81612382565b612382565b6121d833611dae565b3691612173565b923691612173565b906121fd60ff60005460081c166121ca81612382565b80519067ffffffffffffffff8211612375575b6122248261221f603654611df7565b6123e2565b60209081601f84116001146122e1575092826122cd96959361226693612288966000926122d6575b50508160011b916000199060031b1c1916176036556124c4565b60018060a01b03166bffffffffffffffffffffffff60a01b60c954161760c955565b6122a560643560cb5560843560cc5560a43560cd5560c43560ce55565b6122b760e43560d0556101043560d155565b803560d255602081013560d3556040013560d455565b611ef04260ca55565b01519050388061224c565b60366000529190601f1984167f4a11f94e20a93c79f6ec743a1954ec4fc2c08429ae2122118bf234b2185c81b8936000905b82821061235d57505093612266936122889693600193836122cd9b9a9810612344575b505050811b016036556124c4565b015160001960f88460031b161c19169055388080612336565b80600186978294978701518155019601940190612313565b61237d611e31565b612210565b1561238957565b60405162461bcd60e51b815260206004820152602b60248201527f496e697469616c697a61626c653a20636f6e7472616374206973206e6f74206960448201526a6e697469616c697a696e6760a81b6064820152608490fd5b601f81116123ee575050565b600090603682527f4a11f94e20a93c79f6ec743a1954ec4fc2c08429ae2122118bf234b2185c81b8906020601f850160051c83019410612449575b601f0160051c01915b82811061243e57505050565b818155600101612432565b9092508290612429565b601f811161245f575050565b600090603782527f42a7b7dd785cd69714a189dffb3fd7d7174edc9ece837694ce50f7078f7c31ae906020601f850160051c830194106124ba575b601f0160051c01915b8281106124af57505050565b8181556001016124a3565b909250829061249a565b90815167ffffffffffffffff81116125af575b6124eb816124e6603754611df7565b612453565b602080601f8311600114612527575081929360009261251c575b50508160011b916000199060031b1c191617603755565b015190503880612505565b90601f1983169461255a60376000527f42a7b7dd785cd69714a189dffb3fd7d7174edc9ece837694ce50f7078f7c31ae90565b926000905b87821061259757505083600195961061257e575b505050811b01603755565b015160001960f88460031b161c19169055388080612573565b8060018596829496860151815501950193019061255f565b6125b7611e31565b6124d7565b156125c357565b60405162461bcd60e51b815260206004820152601f60248201527f5265656e7472616e637947756172643a207265656e7472616e742063616c6c006044820152606490fd5b9081602091031261000e57516106e281610404565b506040513d6000823e3d90fd5b906127109180830292830403611ee857565b81810292918115918404141715611ee857565b8115612659570490565b634e487b7160e01b600052601260045260246000fd5b6001600160a01b0381169182156127075760207fddf252ad1be2c89b69c2b068fc378daa952ba7f163c4a11628f55a4df523b3ef916126d56000946035548381018091116126fa575b6035556001600160a01b0316600090815260336020526040902090565b8054908282018092116126ed575b55604051908152a3565b6126f5611ec3565b6126e3565b612702611ec3565b6126b8565b60405162461bcd60e51b815260206004820152601f60248201527f45524332303a206d696e7420746f20746865207a65726f2061646472657373006044820152606490fd5b6040516323b872dd60e01b60208201526001600160a01b039283166024820152929091166044830152606480830193909352918152611ef09160a0820182811067ffffffffffffffff8211176127a5575b604052612826565b6127ad611e31565b61279d565b9081602091031261000e57516106e2816114b3565b156127ce57565b60405162461bcd60e51b815260206004820152602a60248201527f5361666545524332303a204552433230206f7065726174696f6e20646964206e6044820152691bdd081cdd58d8d9595960b21b6064820152608490fd5b6040516001600160a01b03919091169161283f82611e85565b6020928383527f5361666545524332303a206c6f772d6c6576656c2063616c6c206661696c656484840152803b156128b657600082819282876128919796519301915af161288b6128fb565b9061292b565b8051908161289e57505050565b82611ef0936128b19383010191016127b2565b6127c7565b60405162461bcd60e51b815260048101859052601d60248201527f416464726573733a2063616c6c20746f206e6f6e2d636f6e74726163740000006044820152606490fd5b3d15612926573d9061290c82612148565b9161291a6040519384611ea1565b82523d6000602084013e565b606090565b90919015612937575090565b8151156129475750805190602001fd5b60405162461bcd60e51b81526020600482015290819061296b906024830190610691565b0390fd5b9060405161297c81611e69565b60406002829460ff81541615158452600181015460208501520154910152565b156129a357565b634e487b7160e01b600052600160045260246000fd5b91908203918211611ee857565b6001600160a01b038116908115612aa3576001600160a01b038116600090815260336020526040902054838110612a5357837fddf252ad1be2c89b69c2b068fc378daa952ba7f163c4a11628f55a4df523b3ef92612a3e600096611f7294039160018060a01b03166000526033602052604060002090565b55610999612a4e826035546129b9565b603555565b60405162461bcd60e51b815260206004820152602260248201527f45524332303a206275726e20616d6f756e7420657863656564732062616c616e604482015261636560f01b6064820152608490fd5b60405162461bcd60e51b815260206004820152602160248201527f45524332303a206275726e2066726f6d20746865207a65726f206164647265736044820152607360f81b6064820152608490fd5b60405163a9059cbb60e01b60208201526001600160a01b03929092166024830152604480830193909352918152611ef091612b2e606483611ea1565b612826565b60405190612b4082611e85565b60118252701c995dd85c991cd41c9a58d9531a5b5a5d607a1b6020830152565b60405190612b6d82611e85565b60158252741c995dd85c991cd41c9a58d9551a1c995cda1bdb19605a1b6020830152565b60405190612b9e82611e69565b602a8252695468726573686f6c642960b01b6040837f286c69717569646174696f6e5072696365202d2072657761726473507269636560208201520152565b9081602091031261000e575190565b8015612c8c578080600114612c8557600214612c7f576001908161013382101682600b83101617612c7757906003815b808211612c4057505081600019048111612c34570290565b612c3c611ec3565b0290565b909280600019048111612c6a575b818416612c61575b800292811c90612c1c565b80920291612c56565b612c72611ec3565b612c4e565b600391500a90565b50600890565b5050600190565b50600090565b6001600160a01b0316600090815260d96020526040812054909391929060ff1615612fd45760c954612ccc906001600160a01b03166108f4565b60409182519263cfeed18160e01b845260209460049286868581885afa958615612fc7575b8996612fa8575b5060ce546001600160a01b039687169290612d2190612d179084612fda565b9260cd5490612fda565b91612d3381612d2e612b33565b6132aa565b612d3f83612d2e612b60565b811080612f9f575b612d58575b50505050505050505090565b8181612d7b612d738b9c9d95612d80959c98999a9b9c6129b9565b612d2e612b91565b6129b9565b84516304752df760e11b8152612dac9085818981885afa908115612f92575b8491612f75575b50612bec565b612db59161263c565b918451916315b9ba5d60e01b9a8b8452858489818c5afa612e3896610c0595612e2f95612e1793918215612f68575b8692612f49575b508a5163e88c199760e01b81526001600160a01b03909216828d01908152919384928391829160200190565b03915afa928315612f3c575b92612f1d575b5061263c565b60cb549061263c565b9560cc54808811612f15575b50918186612e8b9483829795518096819382525afa928315612f08575b600093612ee9575b50516370a0823160e01b81523091810191825294859384928391602090910190565b0392165afa918215612edc575b600092612ebf575b5050808211612eb7575b8080808080808080612d4c565b905038612eaa565b612ed59250803d106117885761177a8183611ea1565b3880612ea0565b612ee461261d565b612e98565b612f01919350853d87116104ed576104df8183611ea1565b9138612e69565b612f1061261d565b612e61565b965085612e44565b612f359192508b3d8d116117885761177a8183611ea1565b9038612e29565b612f4461261d565b612e23565b612f61919250833d85116104ed576104df8183611ea1565b9038612deb565b612f7061261d565b612de4565b612f8c9150863d88116117885761177a8183611ea1565b38612da6565b612f9a61261d565b612d9f565b50818111612d47565b612fc0919650873d89116104ed576104df8183611ea1565b9438612cf8565b612fcf61261d565b612cf1565b50505090565b8161138819048111158215171561000e576127109102611388010490565b60c9546040516315b9ba5d60e01b8152611ef09392916001600160a01b0391906020908290600490829086165afa90811561305b575b60009161303d575b5016612af2565b613055915060203d81116104ed576104df8183611ea1565b38613036565b61306361261d565b61302e565b60c95461307d906001600160a01b03166108f4565b60405180916315b9ba5d60e01b825281600460209485935afa908115613123575b600091613106575b506040516370a0823160e01b8152306004820152908290829060249082906001600160a01b03165afa9182156130f9575b6000926130e357505090565b6106e29250803d106117885761177a8183611ea1565b61310161261d565b6130d7565b61311d9150823d84116104ed576104df8183611ea1565b386130a6565b61312b61261d565b61309e565b600060d45460d354613142818361263c565b60ca5490814203904282116131b9575b1161315d5750505090565b613197935090613191610c059260d254613177848761263c565b9182018092116131ac575b42820391821161319f5761263c565b9261263c565b388080612fd4565b6131a7611ec3565b61263c565b6131b4611ec3565b613182565b6131c1611ec3565b613152565b156131cd57565b60405162461bcd60e51b815260206004820152603060248201527f4e6f7420656e6f7567682074696d652073696e6365206c61737420726577617260448201526f3239903234b9ba3934b13aba34b7b71760811b6064820152608490fd5b1561323257565b60405162461bcd60e51b81526020600482015260166024820152752932bbb0b93239903832b934b7b21034b99037bb32b960511b6044820152606490fd5b5060405162461bcd60e51b8152602060048201526011602482015270151c985b9cd9995c88191a5cd8589b1959607a1b6044820152606490fd5b6000919082916132ef60405180926132db6020830195632d839cb360e21b8752604060248501526064840190610691565b90604483015203601f198101835282611ea1565b51906a636f6e736f6c652e6c6f675afa5056fea2646970667358221220cc877a4a6f284c85027f1e6d2fc0dc53129871b635800d6a3d2ba144448c77db64736f6c63430008110033",
  "linkReferences": {
    "contracts/libraries/logic/ValidationLogic.sol": {
      "ValidationLogic": [
        {
          "length": 20,
          "start": 1376
        },
        {
          "length": 20,
          "start": 2721
        },
        {
          "length": 20,
          "start": 4074
        },
        {
          "length": 20,
          "start": 6398
        },
        {
          "length": 20,
          "start": 7352
        }
      ]
    }
  },
  "deployedLinkReferences": {
    "contracts/libraries/logic/ValidationLogic.sol": {
      "ValidationLogic": [
        {
          "length": 20,
          "start": 1348
        },
        {
          "length": 20,
          "start": 2693
        },
        {
          "length": 20,
          "start": 4046
        },
        {
          "length": 20,
          "start": 6370
        },
        {
          "length": 20,
          "start": 7324
        }
      ]
    }
  }
}