{
  "_format": "hh-sol-artifact-1",
  "contractName": "NativeTokenVault",
  "sourceName": "contracts/protocol/NativeTokenVault.sol",
  "abi": [
    {
      "inputs": [],
      "stateMutability": "nonpayable",
      "type": "constructor"
    },
    {
      "anonymous": false,
      "inputs": [
        {
          "indexed": true,
          "internalType": "address",
          "name": "owner",
          "type": "address"
        },
        {
          "indexed": true,
          "internalType": "address",
          "name": "spender",
          "type": "address"
        },
        {
          "indexed": false,
          "internalType": "uint256",
          "name": "value",
          "type": "uint256"
        }
      ],
      "name": "Approval",
      "type": "event"
    },
    {
      "anonymous": false,
      "inputs": [
        {
          "indexed": true,
          "internalType": "address",
          "name": "sender",
          "type": "address"
        },
        {
          "indexed": true,
          "internalType": "address",
          "name": "owner",
          "type": "address"
        },
        {
          "indexed": false,
          "internalType": "uint256",
          "name": "assets",
          "type": "uint256"
        },
        {
          "indexed": false,
          "internalType": "uint256",
          "name": "shares",
          "type": "uint256"
        }
      ],
      "name": "Deposit",
      "type": "event"
    },
    {
      "anonymous": false,
      "inputs": [
        {
          "indexed": false,
          "internalType": "uint256",
          "name": "amount",
          "type": "uint256"
        }
      ],
      "name": "DistributeRewards",
      "type": "event"
    },
    {
      "anonymous": false,
      "inputs": [
        {
          "indexed": false,
          "internalType": "uint8",
          "name": "version",
          "type": "uint8"
        }
      ],
      "name": "Initialized",
      "type": "event"
    },
    {
      "anonymous": false,
      "inputs": [
        {
          "indexed": true,
          "internalType": "address",
          "name": "previousOwner",
          "type": "address"
        },
        {
          "indexed": true,
          "internalType": "address",
          "name": "newOwner",
          "type": "address"
        }
      ],
      "name": "OwnershipTransferred",
      "type": "event"
    },
    {
      "anonymous": false,
      "inputs": [
        {
          "indexed": true,
          "internalType": "address",
          "name": "user",
          "type": "address"
        },
        {
          "indexed": true,
          "internalType": "address",
          "name": "collection",
          "type": "address"
        },
        {
          "indexed": false,
          "internalType": "uint256",
          "name": "amount",
          "type": "uint256"
        }
      ],
      "name": "RemoveVote",
      "type": "event"
    },
    {
      "anonymous": false,
      "inputs": [
        {
          "indexed": true,
          "internalType": "address",
          "name": "from",
          "type": "address"
        },
        {
          "indexed": true,
          "internalType": "address",
          "name": "to",
          "type": "address"
        },
        {
          "indexed": false,
          "internalType": "uint256",
          "name": "value",
          "type": "uint256"
        }
      ],
      "name": "Transfer",
      "type": "event"
    },
    {
      "anonymous": false,
      "inputs": [
        {
          "indexed": true,
          "internalType": "address",
          "name": "user",
          "type": "address"
        },
        {
          "indexed": true,
          "internalType": "address",
          "name": "collection",
          "type": "address"
        },
        {
          "indexed": false,
          "internalType": "uint256",
          "name": "amount",
          "type": "uint256"
        }
      ],
      "name": "Vote",
      "type": "event"
    },
    {
      "anonymous": false,
      "inputs": [
        {
          "indexed": true,
          "internalType": "address",
          "name": "sender",
          "type": "address"
        },
        {
          "indexed": true,
          "internalType": "address",
          "name": "receiver",
          "type": "address"
        },
        {
          "indexed": true,
          "internalType": "address",
          "name": "owner",
          "type": "address"
        },
        {
          "indexed": false,
          "internalType": "uint256",
          "name": "assets",
          "type": "uint256"
        },
        {
          "indexed": false,
          "internalType": "uint256",
          "name": "shares",
          "type": "uint256"
        }
      ],
      "name": "Withdraw",
      "type": "event"
    },
    {
      "inputs": [
        {
          "internalType": "address",
          "name": "owner",
          "type": "address"
        },
        {
          "internalType": "address",
          "name": "spender",
          "type": "address"
        }
      ],
      "name": "allowance",
      "outputs": [
        {
          "internalType": "uint256",
          "name": "",
          "type": "uint256"
        }
      ],
      "stateMutability": "view",
      "type": "function"
    },
    {
      "inputs": [
        {
          "internalType": "address",
          "name": "spender",
          "type": "address"
        },
        {
          "internalType": "uint256",
          "name": "amount",
          "type": "uint256"
        }
      ],
      "name": "approve",
      "outputs": [
        {
          "internalType": "bool",
          "name": "",
          "type": "bool"
        }
      ],
      "stateMutability": "nonpayable",
      "type": "function"
    },
    {
      "inputs": [],
      "name": "asset",
      "outputs": [
        {
          "internalType": "address",
          "name": "",
          "type": "address"
        }
      ],
      "stateMutability": "view",
      "type": "function"
    },
    {
      "inputs": [
        {
          "internalType": "address",
          "name": "account",
          "type": "address"
        }
      ],
      "name": "balanceOf",
      "outputs": [
        {
          "internalType": "uint256",
          "name": "",
          "type": "uint256"
        }
      ],
      "stateMutability": "view",
      "type": "function"
    },
    {
      "inputs": [
        {
          "internalType": "address",
          "name": "user",
          "type": "address"
        },
        {
          "internalType": "address",
          "name": "collection",
          "type": "address"
        },
        {
          "internalType": "uint256",
          "name": "votes",
          "type": "uint256"
        }
      ],
      "name": "calculateLTVBoost",
      "outputs": [
        {
          "internalType": "uint256",
          "name": "",
          "type": "uint256"
        }
      ],
      "stateMutability": "view",
      "type": "function"
    },
    {
      "inputs": [
        {
          "internalType": "uint256",
          "name": "shares",
          "type": "uint256"
        }
      ],
      "name": "convertToAssets",
      "outputs": [
        {
          "internalType": "uint256",
          "name": "assets",
          "type": "uint256"
        }
      ],
      "stateMutability": "view",
      "type": "function"
    },
    {
      "inputs": [
        {
          "internalType": "uint256",
          "name": "assets",
          "type": "uint256"
        }
      ],
      "name": "convertToShares",
      "outputs": [
        {
          "internalType": "uint256",
          "name": "shares",
          "type": "uint256"
        }
      ],
      "stateMutability": "view",
      "type": "function"
    },
    {
      "inputs": [],
      "name": "createWithdrawalRequest",
      "outputs": [],
      "stateMutability": "nonpayable",
      "type": "function"
    },
    {
      "inputs": [],
      "name": "decimals",
      "outputs": [
        {
          "internalType": "uint8",
          "name": "",
          "type": "uint8"
        }
      ],
      "stateMutability": "view",
      "type": "function"
    },
    {
      "inputs": [
        {
          "internalType": "address",
          "name": "spender",
          "type": "address"
        },
        {
          "internalType": "uint256",
          "name": "subtractedValue",
          "type": "uint256"
        }
      ],
      "name": "decreaseAllowance",
      "outputs": [
        {
          "internalType": "bool",
          "name": "",
          "type": "bool"
        }
      ],
      "stateMutability": "nonpayable",
      "type": "function"
    },
    {
      "inputs": [
        {
          "internalType": "uint256",
          "name": "assets",
          "type": "uint256"
        },
        {
          "internalType": "address",
          "name": "receiver",
          "type": "address"
        }
      ],
      "name": "deposit",
      "outputs": [
        {
          "internalType": "uint256",
          "name": "",
          "type": "uint256"
        }
      ],
      "stateMutability": "nonpayable",
      "type": "function"
    },
    {
      "inputs": [],
      "name": "distributeStakingRewards",
      "outputs": [],
      "stateMutability": "nonpayable",
      "type": "function"
    },
    {
      "inputs": [],
      "name": "getBoostFactor",
      "outputs": [
        {
          "internalType": "uint256",
          "name": "",
          "type": "uint256"
        }
      ],
      "stateMutability": "view",
      "type": "function"
    },
    {
      "inputs": [],
      "name": "getBoostLimit",
      "outputs": [
        {
          "internalType": "uint256",
          "name": "",
          "type": "uint256"
        }
      ],
      "stateMutability": "view",
      "type": "function"
    },
    {
      "inputs": [
        {
          "internalType": "address",
          "name": "user",
          "type": "address"
        },
        {
          "internalType": "address",
          "name": "collection",
          "type": "address"
        }
      ],
      "name": "getLTVBoost",
      "outputs": [
        {
          "internalType": "uint256",
          "name": "",
          "type": "uint256"
        }
      ],
      "stateMutability": "view",
      "type": "function"
    },
    {
      "inputs": [
        {
          "internalType": "address",
          "name": "reserve",
          "type": "address"
        },
        {
          "internalType": "uint256",
          "name": "reserveTokenPrice",
          "type": "uint256"
        },
        {
          "internalType": "uint256",
          "name": "assetPrice",
          "type": "uint256"
        },
        {
          "internalType": "uint256",
          "name": "liquidationPrice",
          "type": "uint256"
        }
      ],
      "name": "getLiquidationReward",
      "outputs": [
        {
          "internalType": "uint256",
          "name": "",
          "type": "uint256"
        }
      ],
      "stateMutability": "view",
      "type": "function"
    },
    {
      "inputs": [],
      "name": "getLiquidationRewardFactor",
      "outputs": [
        {
          "internalType": "uint256",
          "name": "",
          "type": "uint256"
        }
      ],
      "stateMutability": "view",
      "type": "function"
    },
    {
      "inputs": [],
      "name": "getLiquidationRewardPriceLimit",
      "outputs": [
        {
          "internalType": "uint256",
          "name": "",
          "type": "uint256"
        }
      ],
      "stateMutability": "view",
      "type": "function"
    },
    {
      "inputs": [],
      "name": "getLiquidationRewardPriceThreshold",
      "outputs": [
        {
          "internalType": "uint256",
          "name": "",
          "type": "uint256"
        }
      ],
      "stateMutability": "view",
      "type": "function"
    },
    {
      "inputs": [],
      "name": "getMaxLiquidationReward",
      "outputs": [
        {
          "internalType": "uint256",
          "name": "",
          "type": "uint256"
        }
      ],
      "stateMutability": "view",
      "type": "function"
    },
    {
      "inputs": [],
      "name": "getStakingMaxPeriods",
      "outputs": [
        {
          "internalType": "uint256",
          "name": "",
          "type": "uint256"
        }
      ],
      "stateMutability": "view",
      "type": "function"
    },
    {
      "inputs": [],
      "name": "getStakingRewards",
      "outputs": [
        {
          "internalType": "uint256",
          "name": "",
          "type": "uint256"
        }
      ],
      "stateMutability": "view",
      "type": "function"
    },
    {
      "inputs": [],
      "name": "getStakingRewardsFactor",
      "outputs": [
        {
          "internalType": "uint256",
          "name": "",
          "type": "uint256"
        }
      ],
      "stateMutability": "view",
      "type": "function"
    },
    {
      "inputs": [],
      "name": "getStakingRewardsPeriod",
      "outputs": [
        {
          "internalType": "uint256",
          "name": "",
          "type": "uint256"
        }
      ],
      "stateMutability": "view",
      "type": "function"
    },
    {
      "inputs": [
        {
          "internalType": "address",
          "name": "user",
          "type": "address"
        },
        {
          "internalType": "address",
          "name": "collection",
          "type": "address"
        }
      ],
      "name": "getUserCollectionVotes",
      "outputs": [
        {
          "internalType": "uint256",
          "name": "",
          "type": "uint256"
        }
      ],
      "stateMutability": "view",
      "type": "function"
    },
    {
      "inputs": [
        {
          "internalType": "address",
          "name": "user",
          "type": "address"
        }
      ],
      "name": "getUserFreeVotes",
      "outputs": [
        {
          "internalType": "uint256",
          "name": "",
          "type": "uint256"
        }
      ],
      "stateMutability": "view",
      "type": "function"
    },
    {
      "inputs": [
        {
          "internalType": "address",
          "name": "user",
          "type": "address"
        }
      ],
      "name": "getWithdrawalRequest",
      "outputs": [
        {
          "components": [
            {
              "internalType": "bool",
              "name": "created",
              "type": "bool"
            },
            {
              "internalType": "uint256",
              "name": "amount",
              "type": "uint256"
            },
            {
              "internalType": "uint256",
              "name": "timestamp",
              "type": "uint256"
            }
          ],
          "internalType": "struct DataTypes.WithdrawalRequest",
          "name": "",
          "type": "tuple"
        }
      ],
      "stateMutability": "view",
      "type": "function"
    },
    {
      "inputs": [
        {
          "internalType": "address",
          "name": "spender",
          "type": "address"
        },
        {
          "internalType": "uint256",
          "name": "addedValue",
          "type": "uint256"
        }
      ],
      "name": "increaseAllowance",
      "outputs": [
        {
          "internalType": "bool",
          "name": "",
          "type": "bool"
        }
      ],
      "stateMutability": "nonpayable",
      "type": "function"
    },
    {
      "inputs": [
        {
          "internalType": "contract IAddressesProvider",
          "name": "addressProvider",
          "type": "address"
        },
        {
          "internalType": "string",
          "name": "name",
          "type": "string"
        },
        {
          "internalType": "string",
          "name": "symbol",
          "type": "string"
        },
        {
          "internalType": "contract IERC20Upgradeable",
          "name": "asset",
          "type": "address"
        },
        {
          "components": [
            {
              "internalType": "uint256",
              "name": "factor",
              "type": "uint256"
            },
            {
              "internalType": "uint256",
              "name": "maxReward",
              "type": "uint256"
            },
            {
              "internalType": "uint256",
              "name": "priceThreshold",
              "type": "uint256"
            },
            {
              "internalType": "uint256",
              "name": "priceLimit",
              "type": "uint256"
            }
          ],
          "internalType": "struct DataTypes.LiquidationRewardParams",
          "name": "liquidatonRewardsParams",
          "type": "tuple"
        },
        {
          "components": [
            {
              "internalType": "uint256",
              "name": "factor",
              "type": "uint256"
            },
            {
              "internalType": "uint256",
              "name": "limit",
              "type": "uint256"
            }
          ],
          "internalType": "struct DataTypes.BoostParams",
          "name": "boostParams",
          "type": "tuple"
        },
        {
          "components": [
            {
              "internalType": "uint256",
              "name": "factor",
              "type": "uint256"
            },
            {
              "internalType": "uint256",
              "name": "period",
              "type": "uint256"
            },
            {
              "internalType": "uint256",
              "name": "maxPeriods",
              "type": "uint256"
            }
          ],
          "internalType": "struct DataTypes.StakingRewardParams",
          "name": "stakingRewardsParams",
          "type": "tuple"
        }
      ],
      "name": "initialize",
      "outputs": [],
      "stateMutability": "nonpayable",
      "type": "function"
    },
    {
      "inputs": [
        {
          "internalType": "address",
          "name": "reserve",
          "type": "address"
        }
      ],
      "name": "isReserveIncentivized",
      "outputs": [
        {
          "internalType": "bool",
          "name": "",
          "type": "bool"
        }
      ],
      "stateMutability": "view",
      "type": "function"
    },
    {
      "inputs": [
        {
          "internalType": "address",
          "name": "",
          "type": "address"
        }
      ],
      "name": "maxDeposit",
      "outputs": [
        {
          "internalType": "uint256",
          "name": "",
          "type": "uint256"
        }
      ],
      "stateMutability": "view",
      "type": "function"
    },
    {
      "inputs": [
        {
          "internalType": "address",
          "name": "",
          "type": "address"
        }
      ],
      "name": "maxMint",
      "outputs": [
        {
          "internalType": "uint256",
          "name": "",
          "type": "uint256"
        }
      ],
      "stateMutability": "view",
      "type": "function"
    },
    {
      "inputs": [
        {
          "internalType": "address",
          "name": "owner",
          "type": "address"
        }
      ],
      "name": "maxRedeem",
      "outputs": [
        {
          "internalType": "uint256",
          "name": "",
          "type": "uint256"
        }
      ],
      "stateMutability": "view",
      "type": "function"
    },
    {
      "inputs": [
        {
          "internalType": "address",
          "name": "owner",
          "type": "address"
        }
      ],
      "name": "maxWithdraw",
      "outputs": [
        {
          "internalType": "uint256",
          "name": "",
          "type": "uint256"
        }
      ],
      "stateMutability": "view",
      "type": "function"
    },
    {
      "inputs": [
        {
          "internalType": "uint256",
          "name": "shares",
          "type": "uint256"
        },
        {
          "internalType": "address",
          "name": "receiver",
          "type": "address"
        }
      ],
      "name": "mint",
      "outputs": [
        {
          "internalType": "uint256",
          "name": "",
          "type": "uint256"
        }
      ],
      "stateMutability": "nonpayable",
      "type": "function"
    },
    {
      "inputs": [],
      "name": "name",
      "outputs": [
        {
          "internalType": "string",
          "name": "",
          "type": "string"
        }
      ],
      "stateMutability": "view",
      "type": "function"
    },
    {
      "inputs": [],
      "name": "owner",
      "outputs": [
        {
          "internalType": "address",
          "name": "",
          "type": "address"
        }
      ],
      "stateMutability": "view",
      "type": "function"
    },
    {
      "inputs": [
        {
          "internalType": "uint256",
          "name": "assets",
          "type": "uint256"
        }
      ],
      "name": "previewDeposit",
      "outputs": [
        {
          "internalType": "uint256",
          "name": "",
          "type": "uint256"
        }
      ],
      "stateMutability": "view",
      "type": "function"
    },
    {
      "inputs": [
        {
          "internalType": "uint256",
          "name": "shares",
          "type": "uint256"
        }
      ],
      "name": "previewMint",
      "outputs": [
        {
          "internalType": "uint256",
          "name": "",
          "type": "uint256"
        }
      ],
      "stateMutability": "view",
      "type": "function"
    },
    {
      "inputs": [
        {
          "internalType": "uint256",
          "name": "shares",
          "type": "uint256"
        }
      ],
      "name": "previewRedeem",
      "outputs": [
        {
          "internalType": "uint256",
          "name": "",
          "type": "uint256"
        }
      ],
      "stateMutability": "view",
      "type": "function"
    },
    {
      "inputs": [
        {
          "internalType": "uint256",
          "name": "assets",
          "type": "uint256"
        }
      ],
      "name": "previewWithdraw",
      "outputs": [
        {
          "internalType": "uint256",
          "name": "",
          "type": "uint256"
        }
      ],
      "stateMutability": "view",
      "type": "function"
    },
    {
      "inputs": [
        {
          "internalType": "uint256",
          "name": "shares",
          "type": "uint256"
        },
        {
          "internalType": "address",
          "name": "receiver",
          "type": "address"
        },
        {
          "internalType": "address",
          "name": "owner",
          "type": "address"
        }
      ],
      "name": "redeem",
      "outputs": [
        {
          "internalType": "uint256",
          "name": "",
          "type": "uint256"
        }
      ],
      "stateMutability": "nonpayable",
      "type": "function"
    },
    {
      "inputs": [
        {
          "internalType": "uint256",
          "name": "shares",
          "type": "uint256"
        },
        {
          "internalType": "address",
          "name": "collection",
          "type": "address"
        }
      ],
      "name": "removeVote",
      "outputs": [],
      "stateMutability": "nonpayable",
      "type": "function"
    },
    {
      "inputs": [],
      "name": "renounceOwnership",
      "outputs": [],
      "stateMutability": "nonpayable",
      "type": "function"
    },
    {
      "inputs": [
        {
          "internalType": "address",
          "name": "liquidator",
          "type": "address"
        },
        {
          "internalType": "uint256",
          "name": "amount",
          "type": "uint256"
        }
      ],
      "name": "sendLiquidationReward",
      "outputs": [],
      "stateMutability": "nonpayable",
      "type": "function"
    },
    {
      "inputs": [
        {
          "internalType": "uint256",
          "name": "boostFactor",
          "type": "uint256"
        }
      ],
      "name": "setBoostFactor",
      "outputs": [],
      "stateMutability": "nonpayable",
      "type": "function"
    },
    {
      "inputs": [
        {
          "internalType": "uint256",
          "name": "boostLimit",
          "type": "uint256"
        }
      ],
      "name": "setBoostLimit",
      "outputs": [],
      "stateMutability": "nonpayable",
      "type": "function"
    },
    {
      "inputs": [
        {
          "internalType": "uint256",
          "name": "liquidationRewardFactor",
          "type": "uint256"
        }
      ],
      "name": "setLiquidationRewardFactor",
      "outputs": [],
      "stateMutability": "nonpayable",
      "type": "function"
    },
    {
      "inputs": [
        {
          "internalType": "uint256",
          "name": "liquidationRewardPriceLimit",
          "type": "uint256"
        }
      ],
      "name": "setLiquidationRewardPriceLimit",
      "outputs": [],
      "stateMutability": "nonpayable",
      "type": "function"
    },
    {
      "inputs": [
        {
          "internalType": "uint256",
          "name": "liquidationRewardPriceThreshold",
          "type": "uint256"
        }
      ],
      "name": "setLiquidationRewardPriceThreshold",
      "outputs": [],
      "stateMutability": "nonpayable",
      "type": "function"
    },
    {
      "inputs": [
        {
          "internalType": "uint256",
          "name": "maxLiquidationReward",
          "type": "uint256"
        }
      ],
      "name": "setMaxLiquidationReward",
      "outputs": [],
      "stateMutability": "nonpayable",
      "type": "function"
    },
    {
      "inputs": [
        {
          "internalType": "address",
          "name": "reserve",
          "type": "address"
        },
        {
          "internalType": "bool",
          "name": "mode",
          "type": "bool"
        }
      ],
      "name": "setReserveIncentives",
      "outputs": [],
      "stateMutability": "nonpayable",
      "type": "function"
    },
    {
      "inputs": [
        {
          "internalType": "uint256",
          "name": "maxPeriods",
          "type": "uint256"
        }
      ],
      "name": "setStakingMaxPeriods",
      "outputs": [],
      "stateMutability": "nonpayable",
      "type": "function"
    },
    {
      "inputs": [
        {
          "internalType": "uint256",
          "name": "rewardsFactor",
          "type": "uint256"
        }
      ],
      "name": "setStakingRewardsFactor",
      "outputs": [],
      "stateMutability": "nonpayable",
      "type": "function"
    },
    {
      "inputs": [
        {
          "internalType": "uint256",
          "name": "rewardsPeriod",
          "type": "uint256"
        }
      ],
      "name": "setStakingRewardsPeriod",
      "outputs": [],
      "stateMutability": "nonpayable",
      "type": "function"
    },
    {
      "inputs": [],
      "name": "symbol",
      "outputs": [
        {
          "internalType": "string",
          "name": "",
          "type": "string"
        }
      ],
      "stateMutability": "view",
      "type": "function"
    },
    {
      "inputs": [],
      "name": "totalAssets",
      "outputs": [
        {
          "internalType": "uint256",
          "name": "",
          "type": "uint256"
        }
      ],
      "stateMutability": "view",
      "type": "function"
    },
    {
      "inputs": [],
      "name": "totalSupply",
      "outputs": [
        {
          "internalType": "uint256",
          "name": "",
          "type": "uint256"
        }
      ],
      "stateMutability": "view",
      "type": "function"
    },
    {
      "inputs": [
        {
          "internalType": "address",
          "name": "",
          "type": "address"
        },
        {
          "internalType": "uint256",
          "name": "",
          "type": "uint256"
        }
      ],
      "name": "transfer",
      "outputs": [
        {
          "internalType": "bool",
          "name": "",
          "type": "bool"
        }
      ],
      "stateMutability": "pure",
      "type": "function"
    },
    {
      "inputs": [
        {
          "internalType": "address",
          "name": "",
          "type": "address"
        },
        {
          "internalType": "address",
          "name": "",
          "type": "address"
        },
        {
          "internalType": "uint256",
          "name": "",
          "type": "uint256"
        }
      ],
      "name": "transferFrom",
      "outputs": [
        {
          "internalType": "bool",
          "name": "",
          "type": "bool"
        }
      ],
      "stateMutability": "pure",
      "type": "function"
    },
    {
      "inputs": [
        {
          "internalType": "address",
          "name": "newOwner",
          "type": "address"
        }
      ],
      "name": "transferOwnership",
      "outputs": [],
      "stateMutability": "nonpayable",
      "type": "function"
    },
    {
      "inputs": [
        {
          "internalType": "uint256",
          "name": "shares",
          "type": "uint256"
        },
        {
          "internalType": "address",
          "name": "collection",
          "type": "address"
        }
      ],
      "name": "vote",
      "outputs": [],
      "stateMutability": "nonpayable",
      "type": "function"
    },
    {
      "inputs": [
        {
          "internalType": "uint256",
          "name": "assets",
          "type": "uint256"
        },
        {
          "internalType": "address",
          "name": "receiver",
          "type": "address"
        },
        {
          "internalType": "address",
          "name": "owner",
          "type": "address"
        }
      ],
      "name": "withdraw",
      "outputs": [
        {
          "internalType": "uint256",
          "name": "",
          "type": "uint256"
        }
      ],
      "stateMutability": "nonpayable",
      "type": "function"
    }
  ],
  "bytecode": "0x60806040523480156200001157600080fd5b506200001c62000022565b620000e4565b600054610100900460ff16156200008f5760405162461bcd60e51b815260206004820152602760248201527f496e697469616c697a61626c653a20636f6e747261637420697320696e697469604482015266616c697a696e6760c81b606482015260840160405180910390fd5b60005460ff9081161015620000e2576000805460ff191660ff9081179091556040519081527f7f26b83ff96e1f2b6a682f133852f6798a09c465da95921460cefb38474024989060200160405180910390a15b565b61356e80620000f46000396000f3fe608060405234801561001057600080fd5b50600436106103c55760003560e01c806383162aa8116101ff578063b782ca9e1161011a578063ca286e92116100ad578063dd62ed3e1161007c578063dd62ed3e14610833578063ec9fedb414610846578063ef8b30f7146107c1578063f2fde38b1461084f57600080fd5b8063ca286e92146107e7578063cae9c6ef146107fa578063ce96cb771461080d578063d905777e1461082057600080fd5b8063c4d31a6d116100e9578063c4d31a6d146107a4578063c63d75b6146107ac578063c6e6f592146107c1578063c8435ea0146107d457600080fd5b8063b782ca9e1461073b578063ba0876521461074e578063baf03a2b14610761578063bc76ee0d1461079b57600080fd5b8063986768b211610192578063a7e0698511610161578063a7e06985146106f4578063a9059cbb14610707578063b3d7f6b914610715578063b460af941461072857600080fd5b8063986768b2146106b35780639a3418d5146106bb5780639b0d1b96146106ce578063a457c2d7146106e157600080fd5b80638da5cb5b116101ce5780638da5cb5b1461067457806391f5bbed1461068557806394bf804d1461069857806395d89b41146106ab57600080fd5b806383162aa814610619578063864cf9df1461062257806388b151b6146106355780638c661b5d1461063d57600080fd5b806338d52e0f116102ef57806359b8bc5611610282578063715018a611610251578063715018a6146105ee5780637649c0e8146105f65780637cbcd571146105fe5780637f26fbbf1461061157600080fd5b806359b8bc561461058c5780636b1f92de1461059f5780636e553f65146105b257806370a08231146105c557600080fd5b8063402d267d116102be578063402d267d14610539578063453cd60e1461054c5780634cdad5061461042257806350ae389a1461057957600080fd5b806338d52e0f146104e5578063395093511461050a5780633da3b20e1461051d5780633f51781b1461052657600080fd5b80630a28a4771161036757806326cfc0221161033657806326cfc022146104a1578063313ce567146104b457806337d2af48146104d357806337db0502146104dc57600080fd5b80630a28a4771461046b57806318160ddd1461047e57806323b872dd1461048657806323ca0eb01461049957600080fd5b806306fdde03116103a357806306fdde031461040d57806307a2d13a14610422578063095ea7b3146104355780630a1535d51461045857600080fd5b806301e1d114146103ca5780630247a697146103e557806302d947ef146103fa575b600080fd5b6103d2610862565b6040519081526020015b60405180910390f35b6103f86103f3366004612de9565b6108d4565b005b6103f8610408366004612e15565b610a40565b610415610bc0565b6040516103dc9190612e95565b6103d2610430366004612ea8565b610c52565b610448610443366004612de9565b610c65565b60405190151581526020016103dc565b6103f8610466366004612ea8565b610c7d565b6103d2610479366004612ea8565b610c8b565b6035546103d2565b610448610494366004612ec1565b610c98565b6103f8610cd7565b6103f86104af366004612ea8565b610ee4565b606554600160a01b900460ff1660405160ff90911681526020016103dc565b610106546103d2565b610100546103d2565b6065546001600160a01b03165b6040516001600160a01b0390911681526020016103dc565b610448610518366004612de9565b610ef2565b610104546103d2565b6103f8610534366004612ea8565b610f14565b6103d2610547366004612f02565b610f22565b61044861055a366004612f02565b6001600160a01b0316600090815261010b602052604090205460ff1690565b6103f8610587366004612ea8565b610f40565b6103f861059a366004612ea8565b610f4e565b6103d26105ad366004612ec1565b610f5b565b6103d26105c0366004612e15565b610f72565b6103d26105d3366004612f02565b6001600160a01b031660009081526033602052604090205490565b6103f8610fe5565b6103f8610ff7565b6103f861060c366004612e15565b61109e565b60fe546103d2565b610102546103d2565b6103f8610630366004612ea8565b611218565b60ff546103d2565b61065061064b366004612f02565b611226565b604080518251151581526020808401519082015291810151908201526060016103dc565b6097546001600160a01b03166104f2565b6103d2610693366004612f1f565b611294565b6103d26106a6366004612e15565b61168c565b6104156116a6565b6103d26116b5565b6103f86106c9366004612ea8565b61173c565b6103d26106dc366004612f02565b611749565b6104486106ef366004612de9565b611776565b6103f8610702366004612f68565b6117fc565b610448610494366004612de9565b6103d2610723366004612ea8565b611830565b6103d2610736366004612f96565b61183d565b6103f8610749366004613039565b6118b1565b6103d261075c366004612f96565b611a8e565b6103d261076f366004613118565b6001600160a01b0391821660009081526101076020908152604080832093909416825291909152205490565b610103546103d2565b60fd546103d2565b6103d26107ba366004612f02565b5060001990565b6103d26107cf366004612ea8565b611b02565b6103f86107e2366004612ea8565b611b0f565b6103f86107f5366004612ea8565b611b1d565b6103d2610808366004613118565b611b2a565b6103d261081b366004612f02565b611b51565b6103d261082e366004612f02565b611b75565b6103d2610841366004613118565b611b93565b610105546103d2565b6103f861085d366004612f02565b611bbe565b6065546040516370a0823160e01b81523060048201526000916001600160a01b0316906370a0823190602401602060405180830381865afa1580156108ab573d6000803e3d6000fd5b505050506040513d601f19601f820116820180604052508101906108cf9190613146565b905090565b60fb60009054906101000a90046001600160a01b03166001600160a01b031663e7334fe56040518163ffffffff1660e01b8152600401602060405180830381865afa158015610927573d6000803e3d6000fd5b505050506040513d601f19601f8201168201806040525081019061094b919061315f565b6001600160a01b0316336001600160a01b0316146109b05760405162461bcd60e51b815260206004820152601e60248201527f43616c6c6572206d757374206265204d61726b657420636f6e7472616374000060448201526064015b60405180910390fd5b610a3c828260fb60009054906101000a90046001600160a01b03166001600160a01b03166315b9ba5d6040518163ffffffff1660e01b8152600401602060405180830381865afa158015610a08573d6000803e3d6000fd5b505050506040513d601f19601f82011682018060405250810190610a2c919061315f565b6001600160a01b03169190611c37565b5050565b610a48611c9f565b60fb54604051636cd5783960e11b81526001600160a01b0390911660048201526024810183905273__$5201a97c05ba6aa659e2f36a933dd51801$__9063d9aaf0729060440160006040518083038186803b158015610aa657600080fd5b505af4158015610aba573d6000803e3d6000fd5b50505050816101076000610acb3390565b6001600160a01b03166001600160a01b031681526020019081526020016000206000836001600160a01b03166001600160a01b031681526020019081526020016000206000828254610b1d9190613192565b90915550506001600160a01b0381166000908152610109602052604081208054849290610b4b908490613192565b9091555050336000908152610108602052604081208054849290610b70908490613192565b90915550506040518281526001600160a01b0382169033907f66a9138482c99e9baf08860110ef332cc0c23b4a199a53593d8db0fc8f96fbfc906020015b60405180910390a3610a3c600160c955565b606060368054610bcf906131a5565b80601f0160208091040260200160405190810160405280929190818152602001828054610bfb906131a5565b8015610c485780601f10610c1d57610100808354040283529160200191610c48565b820191906000526020600020905b815481529060010190602001808311610c2b57829003601f168201915b5050505050905090565b6000610c5f826000611cf8565b92915050565b600033610c73818585611d2b565b5060019392505050565b610c85611e4f565b61010455565b6000610c5f826001611ea9565b60405162461bcd60e51b8152602060048201526011602482015270151c985b9cd9995c88191a5cd8589b1959607a1b60448201526000906064016109a7565b610cdf611c9f565b61010554610101544291610cf291613192565b10610d585760405162461bcd60e51b815260206004820152603060248201527f4e6f7420656e6f7567682074696d652073696e6365206c61737420726577617260448201526f3239903234b9ba3934b13aba34b7b71760811b60648201526084016109a7565b60fc54610d6590426131d9565b6101055461010654610d7791906131ec565b11610dbd5760405162461bcd60e51b81526020600482015260166024820152752932bbb0b93239903832b934b7b21034b99037bb32b960511b60448201526064016109a7565b6000610dc76116b5565b905060fb60009054906101000a90046001600160a01b03166001600160a01b03166315b9ba5d6040518163ffffffff1660e01b8152600401602060405180830381865afa158015610e1c573d6000803e3d6000fd5b505050506040513d601f19601f82011682018060405250810190610e40919061315f565b6001600160a01b031663ece6d1ec826040518263ffffffff1660e01b8152600401610e6d91815260200190565b600060405180830381600087803b158015610e8757600080fd5b505af1158015610e9b573d6000803e3d6000fd5b5050426101015550506040518181527fb9d196a585c1a894f648393ec7d52cc59ff6d94191579d073ba32b0a74d7f7a69060200160405180910390a150610ee2600160c955565b565b610eec611e4f565b61010555565b600033610c73818585610f058383611b93565b610f0f9190613192565b611d2b565b610f1c611e4f565b61010355565b6000610f2c611edb565b610f37576000610c5f565b60001992915050565b610f48611e4f565b61010655565b610f56611e4f565b60fd55565b6000610f68848484611ef5565b90505b9392505050565b6000610f7d82610f22565b831115610fcc5760405162461bcd60e51b815260206004820152601e60248201527f455243343632363a206465706f736974206d6f7265207468616e206d6178000060448201526064016109a7565b6000610fd784611b02565b9050610f6b338486846122a6565b610fed611e4f565b610ee26000612324565b60fb54604051639df185f960e01b81526001600160a01b03909116600482015273__$5201a97c05ba6aa659e2f36a933dd51801$__90639df185f99060240160006040518083038186803b15801561104e57600080fd5b505af4158015611062573d6000803e3d6000fd5b50505050610ee261107233611b75565b33600090815261010a60205260409020805460ff19166001908117825581019190915542600290910155565b6110a6611c9f565b60fb54604051631445052b60e11b81526001600160a01b03918216600482015260248101849052908216604482015273__$5201a97c05ba6aa659e2f36a933dd51801$__9063288a0a569060640160006040518083038186803b15801561110c57600080fd5b505af4158015611120573d6000803e3d6000fd5b505050508161010760006111313390565b6001600160a01b03166001600160a01b031681526020019081526020016000206000836001600160a01b03166001600160a01b03168152602001908152602001600020600082825461118391906131d9565b90915550506001600160a01b03811660009081526101096020526040812080548492906111b19084906131d9565b90915550503360009081526101086020526040812080548492906111d69084906131d9565b90915550506040518281526001600160a01b0382169033907f72604881741b21dd04fd9cf15e323a7e936c3e7d681be4e1ff2fc51e2a1daa2c90602001610bae565b611220611e4f565b61010255565b61124c604051806060016040528060001515815260200160008152602001600081525090565b506001600160a01b0316600090815261010a60209081526040918290208251606081018452815460ff1615158152600182015492810192909252600201549181019190915290565b6001600160a01b038416600090815261010b6020526040812054819060ff16151581036112c2579050611684565b60fb546040805163cfeed18160e01b815290516000926001600160a01b03169163cfeed1819160048083019260209291908290030181865afa15801561130c573d6000803e3d6000fd5b505050506040513d601f19601f82011682018060405250810190611330919061315f565b905060006113438660fd60030154612376565b905060006113568760fd60020154612376565b905061138b604051806040016040528060118152602001701c995dd85c991cd41c9a58d9531a5b5a5d607a1b8152508361239c565b6113c2604051806040016040528060158152602001741c995dd85c991cd41c9a58d9551a1c995cda1bdb19605a1b8152508261239c565b81861080156113d057508086115b1561167d576114006040518060600160405280602a815260200161350f602a91396113fb83896131d9565b61239c565b60fd5460fb54604080516315b9ba5d60e01b815290516001600160a01b038088169363e88c1997939116916315b9ba5d916004808201926020929091908290030181865afa158015611456573d6000803e3d6000fd5b505050506040513d601f19601f8201168201806040525081019061147a919061315f565b6040516001600160e01b031960e084901b1681526001600160a01b039091166004820152602401602060405180830381865afa1580156114be573d6000803e3d6000fd5b505050506040513d601f19601f820116820180604052508101906114e29190613146565b6114ec908a6131ec565b6114f691906131ec565b6003846001600160a01b03166308ea5bee6040518163ffffffff1660e01b8152600401602060405180830381865afa158015611536573d6000803e3d6000fd5b505050506040513d601f19601f8201168201806040525081019061155a9190613146565b61156491906132e7565b61156e83896131d9565b61157891906131ec565b611582919061330c565b60fe549094508411156115955760fe5493505b60fb54604080516315b9ba5d60e01b815290516000926001600160a01b0316916315b9ba5d9160048083019260209291908290030181865afa1580156115df573d6000803e3d6000fd5b505050506040513d601f19601f82011682018060405250810190611603919061315f565b6040516370a0823160e01b81523060048201526001600160a01b0391909116906370a0823190602401602060405180830381865afa158015611649573d6000803e3d6000fd5b505050506040513d601f19601f8201168201806040525081019061166d9190613146565b90508085111561167b578094505b505b5091925050505b949350505050565b60008061169884611830565b9050610f6b338483876122a6565b606060378054610bcf906131a5565b60fc5460009081906116c790426131d9565b61010554610106546116d991906131ec565b11156117375761010554610106546116f191906131ec565b60fc546101055461010654429291611708916131ec565b6117129190613192565b61171c91906131d9565b6101045461172a91906131ec565b611734919061330c565b90505b919050565b611744611e4f565b60fe55565b6001600160a01b0381166000908152610108602052604081205461176c83611b75565b610c5f91906131d9565b600033816117848286611b93565b9050838110156117e45760405162461bcd60e51b815260206004820152602560248201527f45524332303a2064656372656173656420616c6c6f77616e63652062656c6f77604482015264207a65726f60d81b60648201526084016109a7565b6117f18286868403611d2b565b506001949350505050565b611804611e4f565b6001600160a01b0391909116600090815261010b60205260409020805460ff1916911515919091179055565b6000610c5f826001611cf8565b600061184882611b51565b8411156118975760405162461bcd60e51b815260206004820152601f60248201527f455243343632363a207769746864726177206d6f7265207468616e206d61780060448201526064016109a7565b60006118a285610c8b565b9050610f6833858588856123e1565b600054610100900460ff16158080156118d15750600054600160ff909116105b806118eb5750303b1580156118eb575060005460ff166001145b61194e5760405162461bcd60e51b815260206004820152602e60248201527f496e697469616c697a61626c653a20636f6e747261637420697320616c72656160448201526d191e481a5b9a5d1a585b1a5e995960921b60648201526084016109a7565b6000805460ff191660011790558015611971576000805461ff0019166101001790555b611979612497565b6119ec89898080601f01602080910402602001604051908101604052809392919081815260200183838082843760009201919091525050604080516020601f8d018190048102820181019092528b815292508b91508a90819084018382808284376000920191909152506124c692505050565b6119f5856124f7565b833560fd5560208085013560fe5560408086013560ff5560608601356101005584356101025584820135610103558335610104559083013561010555820135610106554260fc558015611a82576000805461ff0019169055604051600181527f7f26b83ff96e1f2b6a682f133852f6798a09c465da95921460cefb38474024989060200160405180910390a15b50505050505050505050565b6000611a9982611b75565b841115611ae85760405162461bcd60e51b815260206004820152601d60248201527f455243343632363a2072656465656d206d6f7265207468616e206d617800000060448201526064016109a7565b6000611af385610c52565b9050610f6833858584896123e1565b6000610c5f826000611ea9565b611b17611e4f565b61010055565b611b25611e4f565b60ff55565b6001600160a01b03811660009081526101096020526040812054610f6b9084908490611ef5565b6001600160a01b038116600090815260336020526040812054610c5f906000611cf8565b6001600160a01b038116600090815260336020526040812054610c5f565b6001600160a01b03918216600090815260346020908152604080832093909416825291909152205490565b611bc6611e4f565b6001600160a01b038116611c2b5760405162461bcd60e51b815260206004820152602660248201527f4f776e61626c653a206e6577206f776e657220697320746865207a65726f206160448201526564647265737360d01b60648201526084016109a7565b611c3481612324565b50565b6040516001600160a01b038316602482015260448101829052611c9a90849063a9059cbb60e01b906064015b60408051601f198184030181529190526020810180516001600160e01b03166001600160e01b031990931692909217909152612527565b505050565b600260c95403611cf15760405162461bcd60e51b815260206004820152601f60248201527f5265656e7472616e637947756172643a207265656e7472616e742063616c6c0060448201526064016109a7565b600260c955565b600080611d0460355490565b90508015611d2557611d20611d17610862565b859083866125f9565b611684565b83611684565b6001600160a01b038316611d8d5760405162461bcd60e51b8152602060048201526024808201527f45524332303a20617070726f76652066726f6d20746865207a65726f206164646044820152637265737360e01b60648201526084016109a7565b6001600160a01b038216611dee5760405162461bcd60e51b815260206004820152602260248201527f45524332303a20617070726f766520746f20746865207a65726f206164647265604482015261737360f01b60648201526084016109a7565b6001600160a01b0383811660008181526034602090815260408083209487168084529482529182902085905590518481527f8c5be1e5ebec7d5bd14f71427d1e84f3dd0314c0f7b2291e5b200ac8c7c3b925910160405180910390a3505050565b6097546001600160a01b03163314610ee25760405162461bcd60e51b815260206004820181905260248201527f4f776e61626c653a2063616c6c6572206973206e6f7420746865206f776e657260448201526064016109a7565b600080611eb560355490565b9050831580611ec2575080155b611d2557611d2081611ed2610862565b869190866125f9565b600080611ee6610862565b11806108cf5750506035541590565b60008060009050600060fb60009054906101000a90046001600160a01b03166001600160a01b031663536223646040518163ffffffff1660e01b8152600401602060405180830381865afa158015611f51573d6000803e3d6000fd5b505050506040513d601f19601f82011682018060405250810190611f75919061315f565b6040516325515dcf60e21b81526001600160a01b03888116600483015287811660248301529190911690639545773c90604401602060405180830381865afa158015611fc5573d6000803e3d6000fd5b505050506040513d601f19601f82011682018060405250810190611fe99190613146565b611ff4906001613192565b9050600060fb60009054906101000a90046001600160a01b03166001600160a01b031663cfeed1816040518163ffffffff1660e01b8152600401602060405180830381865afa15801561204b573d6000803e3d6000fd5b505050506040513d601f19601f8201168201806040525081019061206f919061315f565b6001600160a01b031663e88c199760fb60009054906101000a90046001600160a01b03166001600160a01b03166315b9ba5d6040518163ffffffff1660e01b8152600401602060405180830381865afa1580156120d0573d6000803e3d6000fd5b505050506040513d601f19601f820116820180604052508101906120f4919061315f565b6040516001600160e01b031960e084901b1681526001600160a01b039091166004820152602401602060405180830381865afa158015612138573d6000803e3d6000fd5b505050506040513d601f19601f8201168201806040525081019061215c9190613146565b9050600060fb60009054906101000a90046001600160a01b03166001600160a01b031663cfeed1816040518163ffffffff1660e01b8152600401602060405180830381865afa1580156121b3573d6000803e3d6000fd5b505050506040513d601f19601f820116820180604052508101906121d7919061315f565b6001600160a01b03166308ea5bee6040518163ffffffff1660e01b8152600401602060405180830381865afa158015612214573d6000803e3d6000fd5b505050506040513d601f19601f820116820180604052508101906122389190613146565b905060008183612249896001611cf8565b61225391906131ec565b61225d919061330c565b6101025490915061226e90856131ec565b61227a826127106131ec565b612284919061330c565b61010354909550851115612299576101035494505b5092979650505050505050565b6065546122be906001600160a01b0316853085612656565b6122c88382612694565b826001600160a01b0316846001600160a01b03167fdcbc1c05240f31ff3ad067ef1ee35ce4997762752e3a095284754544f4c709d78484604051612316929190918252602082015260400190565b60405180910390a350505050565b609780546001600160a01b038381166001600160a01b0319831681179093556040519116919082907f8be0079c531659141344cd1fd0a4f28419497f9722a3daafe3b4186f6b6457e090600090a35050565b60008115611388198390048411151761238e57600080fd5b506127109102611388010490565b610a3c82826040516024016123b292919061332e565b60408051601f198184030181529190526020810180516001600160e01b0316632d839cb360e21b179052612755565b60fb54604051633295ceef60e21b81526001600160a01b0390911660048201526024810182905273__$5201a97c05ba6aa659e2f36a933dd51801$__9063ca573bbc9060440160006040518083038186803b15801561243f57600080fd5b505af4158015612453573d6000803e3d6000fd5b5050506001600160a01b038616600090815261010a60205260408120805460ff191681556001810182905560020155506124908585858585612776565b5050505050565b600054610100900460ff166124be5760405162461bcd60e51b81526004016109a790613350565b610ee2612822565b600054610100900460ff166124ed5760405162461bcd60e51b81526004016109a790613350565b610a3c8282612852565b600054610100900460ff1661251e5760405162461bcd60e51b81526004016109a790613350565b611c3481612892565b600061257c826040518060400160405280602081526020017f5361666545524332303a206c6f772d6c6576656c2063616c6c206661696c6564815250856001600160a01b03166129179092919063ffffffff16565b805190915015611c9a578080602001905181019061259a919061339b565b611c9a5760405162461bcd60e51b815260206004820152602a60248201527f5361666545524332303a204552433230206f7065726174696f6e20646964206e6044820152691bdd081cdd58d8d9595960b21b60648201526084016109a7565b600080612607868686612926565b9050600183600281111561261d5761261d6133b8565b14801561263a575060008480612635576126356132f6565b868809115b1561264d5761264a600182613192565b90505b95945050505050565b6040516001600160a01b038085166024830152831660448201526064810182905261268e9085906323b872dd60e01b90608401611c63565b50505050565b6001600160a01b0382166126ea5760405162461bcd60e51b815260206004820152601f60248201527f45524332303a206d696e7420746f20746865207a65726f20616464726573730060448201526064016109a7565b80603560008282546126fc9190613192565b90915550506001600160a01b0382166000818152603360209081526040808320805486019055518481527fddf252ad1be2c89b69c2b068fc378daa952ba7f163c4a11628f55a4df523b3ef910160405180910390a35050565b80516a636f6e736f6c652e6c6f67602083016000808483855afa5050505050565b826001600160a01b0316856001600160a01b03161461279a5761279a8386836129d5565b6127a48382612a49565b6065546127bb906001600160a01b03168584611c37565b826001600160a01b0316846001600160a01b0316866001600160a01b03167ffbde797d201c681b91056529119e0b02407c7bb96a4a2c75c01fc9667232c8db8585604051612813929190918252602082015260400190565b60405180910390a45050505050565b600054610100900460ff166128495760405162461bcd60e51b81526004016109a790613350565b610ee233612324565b600054610100900460ff166128795760405162461bcd60e51b81526004016109a790613350565b60366128858382613432565b506037611c9a8282613432565b600054610100900460ff166128b95760405162461bcd60e51b81526004016109a790613350565b6000806128c583612b7d565b91509150816128d55760126128d7565b805b606580546001600160a01b039095166001600160a01b031960ff93909316600160a01b02929092166001600160a81b031990951694909417179092555050565b6060610f688484600085612c5b565b600080806000198587098587029250828110838203039150508060000361296057838281612956576129566132f6565b0492505050610f6b565b80841161296c57600080fd5b60008486880960026001871981018816978890046003810283188082028403028082028403028082028403028082028403028082028403029081029092039091026000889003889004909101858311909403939093029303949094049190911702949350505050565b60006129e18484611b93565b9050600019811461268e5781811015612a3c5760405162461bcd60e51b815260206004820152601d60248201527f45524332303a20696e73756666696369656e7420616c6c6f77616e636500000060448201526064016109a7565b61268e8484848403611d2b565b6001600160a01b038216612aa95760405162461bcd60e51b815260206004820152602160248201527f45524332303a206275726e2066726f6d20746865207a65726f206164647265736044820152607360f81b60648201526084016109a7565b6001600160a01b03821660009081526033602052604090205481811015612b1d5760405162461bcd60e51b815260206004820152602260248201527f45524332303a206275726e20616d6f756e7420657863656564732062616c616e604482015261636560f01b60648201526084016109a7565b6001600160a01b03831660008181526033602090815260408083208686039055603580548790039055518581529192917fddf252ad1be2c89b69c2b068fc378daa952ba7f163c4a11628f55a4df523b3ef910160405180910390a3505050565b60408051600481526024810182526020810180516001600160e01b031663313ce56760e01b17905290516000918291829182916001600160a01b03871691612bc4916134f2565b6000604051808303816000865af19150503d8060008114612c01576040519150601f19603f3d011682016040523d82523d6000602084013e612c06565b606091505b5091509150818015612c1a57506020815110155b15612c4e57600081806020019051810190612c359190613146565b905060ff8111612c4c576001969095509350505050565b505b5060009485945092505050565b606082471015612cbc5760405162461bcd60e51b815260206004820152602660248201527f416464726573733a20696e73756666696369656e742062616c616e636520666f6044820152651c8818d85b1b60d21b60648201526084016109a7565b600080866001600160a01b03168587604051612cd891906134f2565b60006040518083038185875af1925050503d8060008114612d15576040519150601f19603f3d011682016040523d82523d6000602084013e612d1a565b606091505b5091509150612d2b87838387612d36565b979650505050505050565b60608315612da5578251600003612d9e576001600160a01b0385163b612d9e5760405162461bcd60e51b815260206004820152601d60248201527f416464726573733a2063616c6c20746f206e6f6e2d636f6e747261637400000060448201526064016109a7565b5081611684565b6116848383815115612dba5781518083602001fd5b8060405162461bcd60e51b81526004016109a79190612e95565b6001600160a01b0381168114611c3457600080fd5b60008060408385031215612dfc57600080fd5b8235612e0781612dd4565b946020939093013593505050565b60008060408385031215612e2857600080fd5b823591506020830135612e3a81612dd4565b809150509250929050565b60005b83811015612e60578181015183820152602001612e48565b50506000910152565b60008151808452612e81816020860160208601612e45565b601f01601f19169290920160200192915050565b602081526000610f6b6020830184612e69565b600060208284031215612eba57600080fd5b5035919050565b600080600060608486031215612ed657600080fd5b8335612ee181612dd4565b92506020840135612ef181612dd4565b929592945050506040919091013590565b600060208284031215612f1457600080fd5b8135610f6b81612dd4565b60008060008060808587031215612f3557600080fd5b8435612f4081612dd4565b966020860135965060408601359560600135945092505050565b8015158114611c3457600080fd5b60008060408385031215612f7b57600080fd5b8235612f8681612dd4565b91506020830135612e3a81612f5a565b600080600060608486031215612fab57600080fd5b833592506020840135612fbd81612dd4565b91506040840135612fcd81612dd4565b809150509250925092565b60008083601f840112612fea57600080fd5b50813567ffffffffffffffff81111561300257600080fd5b60208301915083602082850101111561301a57600080fd5b9250929050565b60006060828403121561303357600080fd5b50919050565b6000806000806000806000806000898b036101a081121561305957600080fd5b8a3561306481612dd4565b995060208b013567ffffffffffffffff8082111561308157600080fd5b61308d8e838f01612fd8565b909b50995060408d01359150808211156130a657600080fd5b506130b38d828e01612fd8565b90985096505060608b01356130c781612dd4565b94506080607f19820112156130db57600080fd5b60808b019350604060ff19820112156130f357600080fd5b506101008a0191506131098b6101408c01613021565b90509295985092959850929598565b6000806040838503121561312b57600080fd5b823561313681612dd4565b91506020830135612e3a81612dd4565b60006020828403121561315857600080fd5b5051919050565b60006020828403121561317157600080fd5b8151610f6b81612dd4565b634e487b7160e01b600052601160045260246000fd5b80820180821115610c5f57610c5f61317c565b600181811c908216806131b957607f821691505b60208210810361303357634e487b7160e01b600052602260045260246000fd5b81810381811115610c5f57610c5f61317c565b8082028115828204841417610c5f57610c5f61317c565b600181815b8085111561323e5781600019048211156132245761322461317c565b8085161561323157918102915b93841c9390800290613208565b509250929050565b60008261325557506001610c5f565b8161326257506000610c5f565b816001811461327857600281146132825761329e565b6001915050610c5f565b60ff8411156132935761329361317c565b50506001821b610c5f565b5060208310610133831016604e8410600b84101617156132c1575081810a610c5f565b6132cb8383613203565b80600019048211156132df576132df61317c565b029392505050565b6000610f6b60ff841683613246565b634e487b7160e01b600052601260045260246000fd5b60008261332957634e487b7160e01b600052601260045260246000fd5b500490565b6040815260006133416040830185612e69565b90508260208301529392505050565b6020808252602b908201527f496e697469616c697a61626c653a20636f6e7472616374206973206e6f74206960408201526a6e697469616c697a696e6760a81b606082015260800190565b6000602082840312156133ad57600080fd5b8151610f6b81612f5a565b634e487b7160e01b600052602160045260246000fd5b634e487b7160e01b600052604160045260246000fd5b601f821115611c9a57600081815260208120601f850160051c8101602086101561340b5750805b601f850160051c820191505b8181101561342a57828155600101613417565b505050505050565b815167ffffffffffffffff81111561344c5761344c6133ce565b6134608161345a84546131a5565b846133e4565b602080601f831160018114613495576000841561347d5750858301515b600019600386901b1c1916600185901b17855561342a565b600085815260208120601f198616915b828110156134c4578886015182559484019460019091019084016134a5565b50858210156134e25787850151600019600388901b60f8161c191681555b5050505050600190811b01905550565b60008251613504818460208701612e45565b919091019291505056fe286c69717569646174696f6e5072696365202d207265776172647350726963655468726573686f6c6429a264697066735822122047086e02b3312cbef50ee2c3b3e8d8717ea6dd4f77213424d063a6498bc5785964736f6c63430008110033",
  "linkReferences": {
    "contracts/libraries/logic/ValidationLogic.sol": {
      "ValidationLogic": [
        {
          "length": 20,
          "start": 2917
        },
        {
          "length": 20,
          "start": 4365
        },
        {
          "length": 20,
          "start": 4555
        },
        {
          "length": 20,
          "start": 9470
        }
      ]
    }
  },
  "deployedLinkReferences": {
    "contracts/libraries/logic/ValidationLogic.sol": {
      "ValidationLogic": [
        {
          "length": 20,
          "start": 2673
        },
        {
          "length": 20,
          "start": 4121
        },
        {
          "length": 20,
          "start": 4311
        },
        {
          "length": 20,
          "start": 9226
        }
      ]
    }
  }
}