{
  "_format": "hh-sol-artifact-1",
  "contractName": "NativeToken",
  "sourceName": "contracts/protocol/NativeToken.sol",
  "abi": [
    {
      "anonymous": false,
      "inputs": [
        {
          "indexed": true,
          "internalType": "address",
          "name": "owner",
          "type": "address"
        },
        {
          "indexed": true,
          "internalType": "address",
          "name": "spender",
          "type": "address"
        },
        {
          "indexed": false,
          "internalType": "uint256",
          "name": "value",
          "type": "uint256"
        }
      ],
      "name": "Approval",
      "type": "event"
    },
    {
      "anonymous": false,
      "inputs": [
        {
          "indexed": false,
          "internalType": "uint8",
          "name": "version",
          "type": "uint8"
        }
      ],
      "name": "Initialized",
      "type": "event"
    },
    {
      "anonymous": false,
      "inputs": [
        {
          "indexed": true,
          "internalType": "address",
          "name": "previousOwner",
          "type": "address"
        },
        {
          "indexed": true,
          "internalType": "address",
          "name": "newOwner",
          "type": "address"
        }
      ],
      "name": "OwnershipTransferred",
      "type": "event"
    },
    {
      "anonymous": false,
      "inputs": [
        {
          "indexed": true,
          "internalType": "address",
          "name": "from",
          "type": "address"
        },
        {
          "indexed": true,
          "internalType": "address",
          "name": "to",
          "type": "address"
        },
        {
          "indexed": false,
          "internalType": "uint256",
          "name": "value",
          "type": "uint256"
        }
      ],
      "name": "Transfer",
      "type": "event"
    },
    {
      "inputs": [],
      "name": "DOMAIN_SEPARATOR",
      "outputs": [
        {
          "internalType": "bytes32",
          "name": "",
          "type": "bytes32"
        }
      ],
      "stateMutability": "view",
      "type": "function"
    },
    {
      "inputs": [
        {
          "internalType": "address",
          "name": "owner",
          "type": "address"
        },
        {
          "internalType": "address",
          "name": "spender",
          "type": "address"
        }
      ],
      "name": "allowance",
      "outputs": [
        {
          "internalType": "uint256",
          "name": "",
          "type": "uint256"
        }
      ],
      "stateMutability": "view",
      "type": "function"
    },
    {
      "inputs": [
        {
          "internalType": "address",
          "name": "spender",
          "type": "address"
        },
        {
          "internalType": "uint256",
          "name": "amount",
          "type": "uint256"
        }
      ],
      "name": "approve",
      "outputs": [
        {
          "internalType": "bool",
          "name": "",
          "type": "bool"
        }
      ],
      "stateMutability": "nonpayable",
      "type": "function"
    },
    {
      "inputs": [
        {
          "internalType": "address",
          "name": "account",
          "type": "address"
        }
      ],
      "name": "balanceOf",
      "outputs": [
        {
          "internalType": "uint256",
          "name": "",
          "type": "uint256"
        }
      ],
      "stateMutability": "view",
      "type": "function"
    },
    {
      "inputs": [],
      "name": "decimals",
      "outputs": [
        {
          "internalType": "uint8",
          "name": "",
          "type": "uint8"
        }
      ],
      "stateMutability": "view",
      "type": "function"
    },
    {
      "inputs": [
        {
          "internalType": "address",
          "name": "spender",
          "type": "address"
        },
        {
          "internalType": "uint256",
          "name": "subtractedValue",
          "type": "uint256"
        }
      ],
      "name": "decreaseAllowance",
      "outputs": [
        {
          "internalType": "bool",
          "name": "",
          "type": "bool"
        }
      ],
      "stateMutability": "nonpayable",
      "type": "function"
    },
    {
      "inputs": [],
      "name": "getCap",
      "outputs": [
        {
          "internalType": "uint256",
          "name": "",
          "type": "uint256"
        }
      ],
      "stateMutability": "view",
      "type": "function"
    },
    {
      "inputs": [
        {
          "internalType": "uint256",
          "name": "amount",
          "type": "uint256"
        }
      ],
      "name": "getDevRewardTokens",
      "outputs": [],
      "stateMutability": "nonpayable",
      "type": "function"
    },
    {
      "inputs": [],
      "name": "getDevRewardTokens",
      "outputs": [
        {
          "internalType": "uint256",
          "name": "",
          "type": "uint256"
        }
      ],
      "stateMutability": "view",
      "type": "function"
    },
    {
      "inputs": [
        {
          "internalType": "address",
          "name": "spender",
          "type": "address"
        },
        {
          "internalType": "uint256",
          "name": "addedValue",
          "type": "uint256"
        }
      ],
      "name": "increaseAllowance",
      "outputs": [
        {
          "internalType": "bool",
          "name": "",
          "type": "bool"
        }
      ],
      "stateMutability": "nonpayable",
      "type": "function"
    },
    {
      "inputs": [
        {
          "internalType": "contract IAddressesProvider",
          "name": "addressProvider",
          "type": "address"
        },
        {
          "internalType": "string",
          "name": "name",
          "type": "string"
        },
        {
          "internalType": "string",
          "name": "symbol",
          "type": "string"
        },
        {
          "internalType": "uint256",
          "name": "cap",
          "type": "uint256"
        },
        {
          "internalType": "address",
          "name": "devAddress",
          "type": "address"
        },
        {
          "internalType": "uint256",
          "name": "devReward",
          "type": "uint256"
        },
        {
          "internalType": "uint256",
          "name": "devVestingTime",
          "type": "uint256"
        }
      ],
      "name": "initialize",
      "outputs": [],
      "stateMutability": "nonpayable",
      "type": "function"
    },
    {
      "inputs": [
        {
          "internalType": "address",
          "name": "account",
          "type": "address"
        },
        {
          "internalType": "uint256",
          "name": "amount",
          "type": "uint256"
        }
      ],
      "name": "mint",
      "outputs": [],
      "stateMutability": "nonpayable",
      "type": "function"
    },
    {
      "inputs": [
        {
          "internalType": "bytes32",
          "name": "request",
          "type": "bytes32"
        },
        {
          "components": [
            {
              "internalType": "uint8",
              "name": "v",
              "type": "uint8"
            },
            {
              "internalType": "bytes32",
              "name": "r",
              "type": "bytes32"
            },
            {
              "internalType": "bytes32",
              "name": "s",
              "type": "bytes32"
            },
            {
              "internalType": "bytes32",
              "name": "request",
              "type": "bytes32"
            },
            {
              "internalType": "uint256",
              "name": "deadline",
              "type": "uint256"
            },
            {
              "internalType": "bytes",
              "name": "payload",
              "type": "bytes"
            }
          ],
          "internalType": "struct TrustusUpgradable.TrustusPacket",
          "name": "packet",
          "type": "tuple"
        }
      ],
      "name": "mintAirdropTokens",
      "outputs": [],
      "stateMutability": "nonpayable",
      "type": "function"
    },
    {
      "inputs": [
        {
          "internalType": "address",
          "name": "receiver",
          "type": "address"
        },
        {
          "internalType": "uint256",
          "name": "amount",
          "type": "uint256"
        }
      ],
      "name": "mintGenesisTokens",
      "outputs": [],
      "stateMutability": "nonpayable",
      "type": "function"
    },
    {
      "inputs": [
        {
          "internalType": "uint256",
          "name": "amount",
          "type": "uint256"
        }
      ],
      "name": "mintStakingRewardTokens",
      "outputs": [],
      "stateMutability": "nonpayable",
      "type": "function"
    },
    {
      "inputs": [],
      "name": "name",
      "outputs": [
        {
          "internalType": "string",
          "name": "",
          "type": "string"
        }
      ],
      "stateMutability": "view",
      "type": "function"
    },
    {
      "inputs": [],
      "name": "owner",
      "outputs": [
        {
          "internalType": "address",
          "name": "",
          "type": "address"
        }
      ],
      "stateMutability": "view",
      "type": "function"
    },
    {
      "inputs": [],
      "name": "renounceOwnership",
      "outputs": [],
      "stateMutability": "nonpayable",
      "type": "function"
    },
    {
      "inputs": [],
      "name": "symbol",
      "outputs": [
        {
          "internalType": "string",
          "name": "",
          "type": "string"
        }
      ],
      "stateMutability": "view",
      "type": "function"
    },
    {
      "inputs": [],
      "name": "totalSupply",
      "outputs": [
        {
          "internalType": "uint256",
          "name": "",
          "type": "uint256"
        }
      ],
      "stateMutability": "view",
      "type": "function"
    },
    {
      "inputs": [
        {
          "internalType": "address",
          "name": "to",
          "type": "address"
        },
        {
          "internalType": "uint256",
          "name": "amount",
          "type": "uint256"
        }
      ],
      "name": "transfer",
      "outputs": [
        {
          "internalType": "bool",
          "name": "",
          "type": "bool"
        }
      ],
      "stateMutability": "nonpayable",
      "type": "function"
    },
    {
      "inputs": [
        {
          "internalType": "address",
          "name": "from",
          "type": "address"
        },
        {
          "internalType": "address",
          "name": "to",
          "type": "address"
        },
        {
          "internalType": "uint256",
          "name": "amount",
          "type": "uint256"
        }
      ],
      "name": "transferFrom",
      "outputs": [
        {
          "internalType": "bool",
          "name": "",
          "type": "bool"
        }
      ],
      "stateMutability": "nonpayable",
      "type": "function"
    },
    {
      "inputs": [
        {
          "internalType": "address",
          "name": "newOwner",
          "type": "address"
        }
      ],
      "name": "transferOwnership",
      "outputs": [],
      "stateMutability": "nonpayable",
      "type": "function"
    }
  ],
  "bytecode": "0x60808060405234610016576119f3908161001c8239f35b600080fdfe6080604081815260048036101561001557600080fd5b600092833560e01c90816302ba2a0814610d695750806306fdde0314610cbf578063095ea7b314610c9557806318160ddd14610c7657806323b872dd14610baa5780632f8a208314610acc578063313ce56714610ab05780633644e51514610a935780633950935114610a4357806340c10f1914610a16578063554d578d146109f75780636a953c1d146109025780636b7e0fa0146105e157806370a08231146105a9578063715018a61461054c5780638da5cb5b146105235780638e31061b146104ff57806395d89b411461041e578063a457c2d714610377578063a9059cbb14610346578063dd62ed3e146102f9578063ece6d1ec146101b45763f2fde38b1461012057600080fd5b346101b05760203660031901126101b05761013961126d565b916101426112e2565b6001600160a01b0383161561015e578361015b8461133a565b80f35b906020608492519162461bcd60e51b8352820152602660248201527f4f776e61626c653a206e6577206f776e657220697320746865207a65726f206160448201526564647265737360d01b6064820152fd5b8280fd5b50346101b057602090816003193601126102f55760cc548351634e5f612b60e11b8082526001600160a01b0392831692909185818681875afa9081156102eb5788916102ce575b501633036102655783908386518094819382525afa92831561025b5761015b9450859361022c575b50503590611738565b61024c929350803d10610254575b61024481836113bd565b810190611831565b903880610223565b503d61023a565b84513d87823e3d90fd5b845162461bcd60e51b8152808401859052603760248201527f5661756c7420726577617264732063616e206f6e6c79206265206d69696e746560448201527f6420627920746865207661756c7420636f6e74726163740000000000000000006064820152608490fd5b6102e59150863d88116102545761024481836113bd565b386101fb565b87513d8a823e3d90fd5b8380fd5b5050346103425780600319360112610342578060209261031761126d565b61031f611283565b6001600160a01b0391821683526034865283832091168252845220549051908152f35b5080fd5b50503461034257806003193601126103425760209061037061036661126d565b6024359033611418565b5160018152f35b50823461041b578260031936011261041b5761039161126d565b918360243592338152603460205281812060018060a01b03861682526020522054908282106103ca57602085610370858503873361158f565b608490602086519162461bcd60e51b8352820152602560248201527f45524332303a2064656372656173656420616c6c6f77616e63652062656c6f77604482015264207a65726f60d81b6064820152fd5b80fd5b5050346103425781600319360112610342578051908260375461044081611383565b808552916001918083169081156104d7575060011461047a575b50505061046c826104769403836113bd565b5191829182611299565b0390f35b9450603785527f42a7b7dd785cd69714a189dffb3fd7d7174edc9ece837694ce50f7078f7c31ae5b8286106104bf5750505061046c826020610476958201019461045a565b805460208787018101919091529095019481016104a2565b61047697508693506020925061046c94915060ff191682840152151560051b8201019461045a565b50503461034257816003193601126103425760209061051c61185d565b9051908152f35b50503461034257816003193601126103425760655490516001600160a01b039091168152602090f35b833461041b578060031936011261041b576105656112e2565b606580546001600160a01b0319811690915581906001600160a01b03167f8be0079c531659141344cd1fd0a4f28419497f9722a3daafe3b4186f6b6457e08280a380f35b5050346103425760203660031901126103425760209181906001600160a01b036105d161126d565b1681526033845220549051908152f35b50913461041b57600319828136011261034257602480359467ffffffffffffffff918287116108fe5760c08783019488360301126108fe576084870135804210156108bc5760648801358084350361087a5761063b611903565b9160a48a019961065561064e8c8a6118d0565b3691611691565b9384516020809601208b5193868501957ffc7ecbf4f091085173dad8d1d3c2dfd218c018596a572201cd849763d1114e7a87528d860152606085015260808401526080835260a08301938385108986111761086857848c528351902060c084019161190160f01b835260c285015260e2840152604284526101208301938085108986111761086857848c5251902088359060ff82168092036108645784526101408301528481013561016083015260440135610180909101528680528190879060809060015afa1561085a5785516001600160a01b03959086168015159081610846575b501561080457879861074d919897986118d0565b908097918101031261080057875193848901908111858210176107ee5788528535858116908181036107ea578552818086019701358752330361079b578661015b8787875116905190611738565b875162461bcd60e51b8152928301526026908201527f52657175657374207573657220616e642063616c6c657220646f6e277420636f604482015265696e6369646560d01b6064820152608490fd5b8880fd5b634e487b7160e01b8852604184528288fd5b8680fd5b875162461bcd60e51b8152808501839052601c818501527f5265636f7665726564206164647265737320697320696e76616c6964000000006044820152606490fd5b88525060cb82528787205460ff1638610739565b86513d87823e3d90fd5b8a80fd5b634e487b7160e01b8b5260418852868bfd5b875162461bcd60e51b8152602081860152601c818501527f52657175657374206e756d62657220646f65736e2774206d61746368000000006044820152606490fd5b865162461bcd60e51b8152602081850152601b818401527f5061636b65742074696d657374616d7020697320696e76616c696400000000006044820152606490fd5b8480fd5b50346101b057816003193601126101b05761091b61126d565b60cc548351630966d5bb60e01b81529193916001600160a01b039160209082908690829086165afa9081156109ed5786916109cf575b50163303610966578361015b60243585611738565b906020608492519162461bcd60e51b8352820152603d60248201527f47656e6573697320746f6b656e732063616e206f6e6c79206265206d696e746560448201527f64206279207468652047656e65736973204e465420636f6e74726163740000006064820152fd5b6109e7915060203d81116102545761024481836113bd565b38610951565b83513d88823e3d90fd5b50503461034257816003193601126103425760209060d2549051908152f35b5050346103425736600319011261041b5761015b610a3261126d565b610a3a6112e2565b60243590611738565b505034610342578060031936011261034257610370602092610a8c610a6661126d565b338352603486528483206001600160a01b038216845286529184902054602435906113f5565b903361158f565b50503461034257816003193601126103425760209061051c611903565b5050346103425781600319360112610342576020905160128152f35b508290346103425760203660031901126103425780359060018060a01b0360cd541690813303610b725782610aff61185d565b10610b21575090610b1381610b1b93611738565b60d1546113f5565b60d15580f35b608490602086519162461bcd60e51b8352820152602560248201527f416d6f756e7420626967676572207468616e20616c6c6f7765642062792076656044820152647374696e6760d81b6064820152fd5b606490602086519162461bcd60e51b8352820152601260248201527121b0b63632b91036bab9ba103132903232bb60711b6044820152fd5b5082903461034257606036600319011261034257610bc661126d565b610bce611283565b6001600160a01b03821684526034602090815285852033865290529284902054604435939260018201610c0a575b602086610370878787611418565b848210610c335750918391610c28602096956103709503338361158f565b919394819350610bfc565b606490602087519162461bcd60e51b8352820152601d60248201527f45524332303a20696e73756666696369656e7420616c6c6f77616e63650000006044820152fd5b5050346103425781600319360112610342576020906035549051908152f35b505034610342578060031936011261034257602090610370610cb561126d565b602435903361158f565b50503461034257816003193601126103425780519082603654610ce181611383565b808552916001918083169081156104d75750600114610d0c5750505061046c826104769403836113bd565b9450603685527f4a11f94e20a93c79f6ec743a1954ec4fc2c08429ae2122118bf234b2185c81b85b828610610d515750505061046c826020610476958201019461045a565b80546020878701810191909152909501948101610d34565b84939150346102f55760e03660031901126102f5576001600160a01b038335818116908190036112365767ffffffffffffffff60243581811161123257610db3903690880161123a565b60449791973583811161122e57610dcd903690840161123a565b9290608435968716809703610864578a549060ff8260081c16159889809a611221575b801561120a575b156111b25750908b918960019c8d60ff19851617855560ff610e7995610e6f95610e67946111a1575b50610e3982825460081c16610e34816116d8565b6116d8565b610e423361133a565b5460081c1696610e51886116d8565b4660c955610e5d611916565b60ca553691611691565b953691611691565b92610e34816116d8565b825184811161118e5780610e8e603654611383565b94601f9586811161111d575b506020908d87841160011461109e5792611093575b5050600019600383901b1c1916908a1b176036555b81519384116110805750908291610edc603754611383565b828111611010575b506020918311600114610f91578992610f86575b5050600019600383901b1c191690861b176037555b6bffffffffffffffffffffffff60a01b908160cc54161760cc5560643560d2554260ce5560cd54161760cd5560a43560cf5560c43560d055610f4d578280f35b825461ff0019168355519081527f7f26b83ff96e1f2b6a682f133852f6798a09c465da95921460cefb384740249890602090a181808280f35b015190508880610ef8565b60378a528893507f42a7b7dd785cd69714a189dffb3fd7d7174edc9ece837694ce50f7078f7c31ae9190601f1984168b5b818110610ff857508411610fdf575b505050811b01603755610f0d565b015160001960f88460031b161c19169055888080610fd1565b8284015185558b969094019360209384019301610fc2565b9091925060378a527f42a7b7dd785cd69714a189dffb3fd7d7174edc9ece837694ce50f7078f7c31ae8380860160051c82019260208710611077575b9186958c929594930160051c01915b828110611069575050610ee4565b8c81558695508b910161105b565b9250819261104c565b634e487b7160e01b8a5260419052602489fd5b015190508c80610eaf565b91908d9450601f198416603684527f4a11f94e20a93c79f6ec743a1954ec4fc2c08429ae2122118bf234b2185c81b8935b818110611105575084116110ec575b505050811b01603655610ec4565b015160001960f88460031b161c191690558c80806110de565b8284015185558f9690940193602093840193016110cf565b90915060368d527f4a11f94e20a93c79f6ec743a1954ec4fc2c08429ae2122118bf234b2185c81b88680850160051c82019260208610611185575b859493910160051c909101908d908f5b83821061117757505050610e9a565b81558594508e91018f611168565b92508192611158565b634e487b7160e01b8b526041825260248bfd5b61ffff191661010117815538610e20565b62461bcd60e51b8152602084820152602e60248201527f496e697469616c697a61626c653a20636f6e747261637420697320616c72656160448201526d191e481a5b9a5d1a585b1a5e995960921b6064820152608490fd5b50303b158015610df75750600160ff841614610df7565b50600160ff841610610df0565b8980fd5b8780fd5b8580fd5b9181601f840112156112685782359167ffffffffffffffff8311611268576020838186019501011161126857565b600080fd5b600435906001600160a01b038216820361126857565b602435906001600160a01b038216820361126857565b6020808252825181830181905290939260005b8281106112ce57505060409293506000838284010152601f8019910116010190565b8181018601518482016040015285016112ac565b6065546001600160a01b031633036112f657565b606460405162461bcd60e51b815260206004820152602060248201527f4f776e61626c653a2063616c6c6572206973206e6f7420746865206f776e65726044820152fd5b606580546001600160a01b039283166001600160a01b0319821681179092559091167f8be0079c531659141344cd1fd0a4f28419497f9722a3daafe3b4186f6b6457e0600080a3565b90600182811c921680156113b3575b602083101461139d57565b634e487b7160e01b600052602260045260246000fd5b91607f1691611392565b90601f8019910116810190811067ffffffffffffffff8211176113df57604052565b634e487b7160e01b600052604160045260246000fd5b9190820180921161140257565b634e487b7160e01b600052601160045260246000fd5b6001600160a01b0390811691821561153c57169182156114eb576000828152603360205260408120549180831061149757604082827fddf252ad1be2c89b69c2b068fc378daa952ba7f163c4a11628f55a4df523b3ef9587602096526033865203828220558681522061148c8282546113f5565b9055604051908152a3565b60405162461bcd60e51b815260206004820152602660248201527f45524332303a207472616e7366657220616d6f756e7420657863656564732062604482015265616c616e636560d01b6064820152608490fd5b60405162461bcd60e51b815260206004820152602360248201527f45524332303a207472616e7366657220746f20746865207a65726f206164647260448201526265737360e81b6064820152608490fd5b60405162461bcd60e51b815260206004820152602560248201527f45524332303a207472616e736665722066726f6d20746865207a65726f206164604482015264647265737360d81b6064820152608490fd5b6001600160a01b0390811691821561164057169182156115f05760207f8c5be1e5ebec7d5bd14f71427d1e84f3dd0314c0f7b2291e5b200ac8c7c3b925918360005260348252604060002085600052825280604060002055604051908152a3565b60405162461bcd60e51b815260206004820152602260248201527f45524332303a20617070726f766520746f20746865207a65726f206164647265604482015261737360f01b6064820152608490fd5b60405162461bcd60e51b8152602060048201526024808201527f45524332303a20617070726f76652066726f6d20746865207a65726f206164646044820152637265737360e01b6064820152608490fd5b92919267ffffffffffffffff82116113df57604051916116bb601f8201601f1916602001846113bd565b829481845281830111611268578281602093846000960137010152565b156116df57565b60405162461bcd60e51b815260206004820152602b60248201527f496e697469616c697a61626c653a20636f6e7472616374206973206e6f74206960448201526a6e697469616c697a696e6760a81b6064820152608490fd5b6035549061174683836113f5565b60d254106117ec576001600160a01b03169182156117a75760208161178e7fddf252ad1be2c89b69c2b068fc378daa952ba7f163c4a11628f55a4df523b3ef936000956113f5565b603555848452603382526040842061148c8282546113f5565b60405162461bcd60e51b815260206004820152601f60248201527f45524332303a206d696e7420746f20746865207a65726f2061646472657373006044820152606490fd5b60405162461bcd60e51b815260206004820152601960248201527f4e6174697665546f6b656e3a20636170206578636565646564000000000000006044820152606490fd5b9081602091031261126857516001600160a01b03811681036112685790565b9190820391821161140257565b60ce5461186a8142611850565b60d0548091106000146118c35761188460cf549242611850565b918281029281840414901517156114025780156118ad576118aa91045b60d15490611850565b90565b634e487b7160e01b600052601260045260246000fd5b50506118aa60cf546118a1565b903590601e1981360301821215611268570180359067ffffffffffffffff82116112685760200191813603831361126857565b60c95446036119125760ca5490565b6118aa5b60405160208101907f8b73c3c69bb8fe3d512ecc4cf759cc79239f7b179b0ffacaa9a75d522b39400f82527f118e7890157efb533a050dce8fe5a02b428bdf432762e2e91914807054e2d96560408201527fc89efdaa54c0f20c7adf612882df0950f5a951637e0307cdcb4c672f298b8bc660608201524660808201523060a082015260a0815260c0810181811067ffffffffffffffff8211176113df576040525190209056fea2646970667358221220c9104abd244554ddad8ec4192e5ac2a4009882996b028e42f6b076fd3cdd4ec364736f6c63430008110033",
  "linkReferences": {},
  "deployedLinkReferences": {}
}