{
  "_format": "hh-sol-artifact-1",
  "contractName": "NativeToken",
  "sourceName": "contracts/protocol/NativeToken.sol",
  "abi": [
    {
      "anonymous": false,
      "inputs": [
        {
          "indexed": true,
          "internalType": "address",
          "name": "owner",
          "type": "address"
        },
        {
          "indexed": true,
          "internalType": "address",
          "name": "spender",
          "type": "address"
        },
        {
          "indexed": false,
          "internalType": "uint256",
          "name": "value",
          "type": "uint256"
        }
      ],
      "name": "Approval",
      "type": "event"
    },
    {
      "anonymous": false,
      "inputs": [
        {
          "indexed": false,
          "internalType": "uint8",
          "name": "version",
          "type": "uint8"
        }
      ],
      "name": "Initialized",
      "type": "event"
    },
    {
      "anonymous": false,
      "inputs": [
        {
          "indexed": true,
          "internalType": "address",
          "name": "previousOwner",
          "type": "address"
        },
        {
          "indexed": true,
          "internalType": "address",
          "name": "newOwner",
          "type": "address"
        }
      ],
      "name": "OwnershipTransferred",
      "type": "event"
    },
    {
      "anonymous": false,
      "inputs": [
        {
          "indexed": true,
          "internalType": "address",
          "name": "from",
          "type": "address"
        },
        {
          "indexed": true,
          "internalType": "address",
          "name": "to",
          "type": "address"
        },
        {
          "indexed": false,
          "internalType": "uint256",
          "name": "value",
          "type": "uint256"
        }
      ],
      "name": "Transfer",
      "type": "event"
    },
    {
      "inputs": [
        {
          "internalType": "address",
          "name": "owner",
          "type": "address"
        },
        {
          "internalType": "address",
          "name": "spender",
          "type": "address"
        }
      ],
      "name": "allowance",
      "outputs": [
        {
          "internalType": "uint256",
          "name": "",
          "type": "uint256"
        }
      ],
      "stateMutability": "view",
      "type": "function"
    },
    {
      "inputs": [
        {
          "internalType": "address",
          "name": "spender",
          "type": "address"
        },
        {
          "internalType": "uint256",
          "name": "amount",
          "type": "uint256"
        }
      ],
      "name": "approve",
      "outputs": [
        {
          "internalType": "bool",
          "name": "",
          "type": "bool"
        }
      ],
      "stateMutability": "nonpayable",
      "type": "function"
    },
    {
      "inputs": [
        {
          "internalType": "address",
          "name": "account",
          "type": "address"
        }
      ],
      "name": "balanceOf",
      "outputs": [
        {
          "internalType": "uint256",
          "name": "",
          "type": "uint256"
        }
      ],
      "stateMutability": "view",
      "type": "function"
    },
    {
      "inputs": [],
      "name": "decimals",
      "outputs": [
        {
          "internalType": "uint8",
          "name": "",
          "type": "uint8"
        }
      ],
      "stateMutability": "view",
      "type": "function"
    },
    {
      "inputs": [
        {
          "internalType": "address",
          "name": "spender",
          "type": "address"
        },
        {
          "internalType": "uint256",
          "name": "subtractedValue",
          "type": "uint256"
        }
      ],
      "name": "decreaseAllowance",
      "outputs": [
        {
          "internalType": "bool",
          "name": "",
          "type": "bool"
        }
      ],
      "stateMutability": "nonpayable",
      "type": "function"
    },
    {
      "inputs": [
        {
          "internalType": "uint256",
          "name": "amount",
          "type": "uint256"
        }
      ],
      "name": "distributeRewards",
      "outputs": [],
      "stateMutability": "nonpayable",
      "type": "function"
    },
    {
      "inputs": [],
      "name": "getCap",
      "outputs": [
        {
          "internalType": "uint256",
          "name": "",
          "type": "uint256"
        }
      ],
      "stateMutability": "view",
      "type": "function"
    },
    {
      "inputs": [
        {
          "internalType": "address",
          "name": "spender",
          "type": "address"
        },
        {
          "internalType": "uint256",
          "name": "addedValue",
          "type": "uint256"
        }
      ],
      "name": "increaseAllowance",
      "outputs": [
        {
          "internalType": "bool",
          "name": "",
          "type": "bool"
        }
      ],
      "stateMutability": "nonpayable",
      "type": "function"
    },
    {
      "inputs": [
        {
          "internalType": "contract IAddressesProvider",
          "name": "addressProvider",
          "type": "address"
        },
        {
          "internalType": "string",
          "name": "name",
          "type": "string"
        },
        {
          "internalType": "string",
          "name": "symbol",
          "type": "string"
        },
        {
          "internalType": "uint256",
          "name": "cap",
          "type": "uint256"
        }
      ],
      "name": "initialize",
      "outputs": [],
      "stateMutability": "nonpayable",
      "type": "function"
    },
    {
      "inputs": [
        {
          "internalType": "address",
          "name": "account",
          "type": "address"
        },
        {
          "internalType": "uint256",
          "name": "amount",
          "type": "uint256"
        }
      ],
      "name": "mint",
      "outputs": [],
      "stateMutability": "nonpayable",
      "type": "function"
    },
    {
      "inputs": [],
      "name": "name",
      "outputs": [
        {
          "internalType": "string",
          "name": "",
          "type": "string"
        }
      ],
      "stateMutability": "view",
      "type": "function"
    },
    {
      "inputs": [],
      "name": "owner",
      "outputs": [
        {
          "internalType": "address",
          "name": "",
          "type": "address"
        }
      ],
      "stateMutability": "view",
      "type": "function"
    },
    {
      "inputs": [],
      "name": "renounceOwnership",
      "outputs": [],
      "stateMutability": "nonpayable",
      "type": "function"
    },
    {
      "inputs": [],
      "name": "symbol",
      "outputs": [
        {
          "internalType": "string",
          "name": "",
          "type": "string"
        }
      ],
      "stateMutability": "view",
      "type": "function"
    },
    {
      "inputs": [
        {
          "internalType": "address",
          "name": "account",
          "type": "address"
        },
        {
          "internalType": "uint256",
          "name": "amount",
          "type": "uint256"
        }
      ],
      "name": "testMint",
      "outputs": [],
      "stateMutability": "nonpayable",
      "type": "function"
    },
    {
      "inputs": [],
      "name": "totalSupply",
      "outputs": [
        {
          "internalType": "uint256",
          "name": "",
          "type": "uint256"
        }
      ],
      "stateMutability": "view",
      "type": "function"
    },
    {
      "inputs": [
        {
          "internalType": "address",
          "name": "to",
          "type": "address"
        },
        {
          "internalType": "uint256",
          "name": "amount",
          "type": "uint256"
        }
      ],
      "name": "transfer",
      "outputs": [
        {
          "internalType": "bool",
          "name": "",
          "type": "bool"
        }
      ],
      "stateMutability": "nonpayable",
      "type": "function"
    },
    {
      "inputs": [
        {
          "internalType": "address",
          "name": "from",
          "type": "address"
        },
        {
          "internalType": "address",
          "name": "to",
          "type": "address"
        },
        {
          "internalType": "uint256",
          "name": "amount",
          "type": "uint256"
        }
      ],
      "name": "transferFrom",
      "outputs": [
        {
          "internalType": "bool",
          "name": "",
          "type": "bool"
        }
      ],
      "stateMutability": "nonpayable",
      "type": "function"
    },
    {
      "inputs": [
        {
          "internalType": "address",
          "name": "newOwner",
          "type": "address"
        }
      ],
      "name": "transferOwnership",
      "outputs": [],
      "stateMutability": "nonpayable",
      "type": "function"
    }
  ],
  "bytecode": "0x608060405234801561001057600080fd5b506125ef806100206000396000f3fe608060405234801561001057600080fd5b50600436106101215760003560e01c806359974e38116100ad578063a457c2d711610071578063a457c2d7146102f8578063a9059cbb14610328578063dd62ed3e14610358578063f28e093d14610388578063f2fde38b146103a457610121565b806359974e381461026657806370a0823114610282578063715018a6146102b25780638da5cb5b146102bc57806395d89b41146102da57610121565b8063313ce567116100f4578063313ce567146101c257806339509351146101e057806340c10f19146102105780634d12d4b61461022c578063554d578d1461024857610121565b806306fdde0314610126578063095ea7b31461014457806318160ddd1461017457806323b872dd14610192575b600080fd5b61012e6103c0565b60405161013b91906116c5565b60405180910390f35b61015e60048036038101906101599190611785565b610452565b60405161016b91906117e0565b60405180910390f35b61017c610475565b604051610189919061180a565b60405180910390f35b6101ac60048036038101906101a79190611825565b61047f565b6040516101b991906117e0565b60405180910390f35b6101ca6104ae565b6040516101d79190611894565b60405180910390f35b6101fa60048036038101906101f59190611785565b6104b7565b60405161020791906117e0565b60405180910390f35b61022a60048036038101906102259190611785565b6104ee565b005b61024660048036038101906102419190611952565b6105d4565b005b610250610748565b60405161025d919061180a565b60405180910390f35b610280600480360381019061027b91906119f9565b610752565b005b61029c60048036038101906102979190611a26565b610871565b6040516102a9919061180a565b60405180910390f35b6102ba6108ba565b005b6102c4610942565b6040516102d19190611a62565b60405180910390f35b6102e261096c565b6040516102ef91906116c5565b60405180910390f35b610312600480360381019061030d9190611785565b6109fe565b60405161031f91906117e0565b60405180910390f35b610342600480360381019061033d9190611785565b610a75565b60405161034f91906117e0565b60405180910390f35b610372600480360381019061036d9190611a7d565b610a98565b60405161037f919061180a565b60405180910390f35b6103a2600480360381019061039d9190611785565b610b1f565b005b6103be60048036038101906103b99190611a26565b610b89565b005b6060603680546103cf90611aec565b80601f01602080910402602001604051908101604052809291908181526020018280546103fb90611aec565b80156104485780601f1061041d57610100808354040283529160200191610448565b820191906000526020600020905b81548152906001019060200180831161042b57829003601f168201915b5050505050905090565b60008061045d610c80565b905061046a818585610c88565b600191505092915050565b6000603554905090565b60008061048a610c80565b9050610497858285610e51565b6104a2858585610edd565b60019150509392505050565b60006012905090565b6000806104c2610c80565b90506104e38185856104d48589610a98565b6104de9190611b4c565b610c88565b600191505092915050565b6104f6610c80565b73ffffffffffffffffffffffffffffffffffffffff16610514610942565b73ffffffffffffffffffffffffffffffffffffffff161461056a576040517f08c379a000000000000000000000000000000000000000000000000000000000815260040161056190611bee565b60405180910390fd5b610572610748565b8161057b610475565b6105859190611b4c565b11156105c6576040517f08c379a00000000000000000000000000000000000000000000000000000000081526004016105bd90611c5a565b60405180910390fd5b6105d0828261115f565b5050565b60006105e060016112bf565b90508015610604576001600060016101000a81548160ff0219169083151502179055505b61060c6113af565b61069e86868080601f016020809104026020016040519081016040528093929190818152602001838380828437600081840152601f19601f8201169050808301925050505050505085858080601f016020809104026020016040519081016040528093929190818152602001838380828437600081840152601f19601f82011690508083019250505050505050611408565b86609760006101000a81548173ffffffffffffffffffffffffffffffffffffffff021916908373ffffffffffffffffffffffffffffffffffffffff16021790555081609881905550801561073f5760008060016101000a81548160ff0219169083151502179055507f7f26b83ff96e1f2b6a682f133852f6798a09c465da95921460cefb384740249860016040516107369190611cbf565b60405180910390a15b50505050505050565b6000609854905090565b61075a610c80565b73ffffffffffffffffffffffffffffffffffffffff16610778610942565b73ffffffffffffffffffffffffffffffffffffffff16146107ce576040517f08c379a00000000000000000000000000000000000000000000000000000000081526004016107c590611bee565b60405180910390fd5b6000609760009054906101000a900473ffffffffffffffffffffffffffffffffffffffff1673ffffffffffffffffffffffffffffffffffffffff16639cbec2566040518163ffffffff1660e01b8152600401602060405180830381865afa15801561083d573d6000803e3d6000fd5b505050506040513d601f19601f820116820180604052508101906108619190611cef565b905061086d818361115f565b5050565b6000603360008373ffffffffffffffffffffffffffffffffffffffff1673ffffffffffffffffffffffffffffffffffffffff168152602001908152602001600020549050919050565b6108c2610c80565b73ffffffffffffffffffffffffffffffffffffffff166108e0610942565b73ffffffffffffffffffffffffffffffffffffffff1614610936576040517f08c379a000000000000000000000000000000000000000000000000000000000815260040161092d90611bee565b60405180910390fd5b6109406000611465565b565b6000606560009054906101000a900473ffffffffffffffffffffffffffffffffffffffff16905090565b60606037805461097b90611aec565b80601f01602080910402602001604051908101604052809291908181526020018280546109a790611aec565b80156109f45780601f106109c9576101008083540402835291602001916109f4565b820191906000526020600020905b8154815290600101906020018083116109d757829003601f168201915b5050505050905090565b600080610a09610c80565b90506000610a178286610a98565b905083811015610a5c576040517f08c379a0000000000000000000000000000000000000000000000000000000008152600401610a5390611d8e565b60405180910390fd5b610a698286868403610c88565b60019250505092915050565b600080610a80610c80565b9050610a8d818585610edd565b600191505092915050565b6000603460008473ffffffffffffffffffffffffffffffffffffffff1673ffffffffffffffffffffffffffffffffffffffff16815260200190815260200160002060008373ffffffffffffffffffffffffffffffffffffffff1673ffffffffffffffffffffffffffffffffffffffff16815260200190815260200160002054905092915050565b610b27610748565b81610b30610475565b610b3a9190611b4c565b1115610b7b576040517f08c379a0000000000000000000000000000000000000000000000000000000008152600401610b7290611c5a565b60405180910390fd5b610b85828261115f565b5050565b610b91610c80565b73ffffffffffffffffffffffffffffffffffffffff16610baf610942565b73ffffffffffffffffffffffffffffffffffffffff1614610c05576040517f08c379a0000000000000000000000000000000000000000000000000000000008152600401610bfc90611bee565b60405180910390fd5b600073ffffffffffffffffffffffffffffffffffffffff168173ffffffffffffffffffffffffffffffffffffffff1603610c74576040517f08c379a0000000000000000000000000000000000000000000000000000000008152600401610c6b90611e20565b60405180910390fd5b610c7d81611465565b50565b600033905090565b600073ffffffffffffffffffffffffffffffffffffffff168373ffffffffffffffffffffffffffffffffffffffff1603610cf7576040517f08c379a0000000000000000000000000000000000000000000000000000000008152600401610cee90611eb2565b60405180910390fd5b600073ffffffffffffffffffffffffffffffffffffffff168273ffffffffffffffffffffffffffffffffffffffff1603610d66576040517f08c379a0000000000000000000000000000000000000000000000000000000008152600401610d5d90611f44565b60405180910390fd5b80603460008573ffffffffffffffffffffffffffffffffffffffff1673ffffffffffffffffffffffffffffffffffffffff16815260200190815260200160002060008473ffffffffffffffffffffffffffffffffffffffff1673ffffffffffffffffffffffffffffffffffffffff168152602001908152602001600020819055508173ffffffffffffffffffffffffffffffffffffffff168373ffffffffffffffffffffffffffffffffffffffff167f8c5be1e5ebec7d5bd14f71427d1e84f3dd0314c0f7b2291e5b200ac8c7c3b92583604051610e44919061180a565b60405180910390a3505050565b6000610e5d8484610a98565b90507fffffffffffffffffffffffffffffffffffffffffffffffffffffffffffffffff8114610ed75781811015610ec9576040517f08c379a0000000000000000000000000000000000000000000000000000000008152600401610ec090611fb0565b60405180910390fd5b610ed68484848403610c88565b5b50505050565b600073ffffffffffffffffffffffffffffffffffffffff168373ffffffffffffffffffffffffffffffffffffffff1603610f4c576040517f08c379a0000000000000000000000000000000000000000000000000000000008152600401610f4390612042565b60405180910390fd5b600073ffffffffffffffffffffffffffffffffffffffff168273ffffffffffffffffffffffffffffffffffffffff1603610fbb576040517f08c379a0000000000000000000000000000000000000000000000000000000008152600401610fb2906120d4565b60405180910390fd5b610fc683838361152b565b6000603360008573ffffffffffffffffffffffffffffffffffffffff1673ffffffffffffffffffffffffffffffffffffffff1681526020019081526020016000205490508181101561104d576040517f08c379a000000000000000000000000000000000000000000000000000000000815260040161104490612166565b60405180910390fd5b818103603360008673ffffffffffffffffffffffffffffffffffffffff1673ffffffffffffffffffffffffffffffffffffffff1681526020019081526020016000208190555081603360008573ffffffffffffffffffffffffffffffffffffffff1673ffffffffffffffffffffffffffffffffffffffff16815260200190815260200160002060008282546110e29190611b4c565b925050819055508273ffffffffffffffffffffffffffffffffffffffff168473ffffffffffffffffffffffffffffffffffffffff167fddf252ad1be2c89b69c2b068fc378daa952ba7f163c4a11628f55a4df523b3ef84604051611146919061180a565b60405180910390a3611159848484611530565b50505050565b600073ffffffffffffffffffffffffffffffffffffffff168273ffffffffffffffffffffffffffffffffffffffff16036111ce576040517f08c379a00000000000000000000000000000000000000000000000000000000081526004016111c5906121d2565b60405180910390fd5b6111da6000838361152b565b80603560008282546111ec9190611b4c565b9250508190555080603360008473ffffffffffffffffffffffffffffffffffffffff1673ffffffffffffffffffffffffffffffffffffffff16815260200190815260200160002060008282546112429190611b4c565b925050819055508173ffffffffffffffffffffffffffffffffffffffff16600073ffffffffffffffffffffffffffffffffffffffff167fddf252ad1be2c89b69c2b068fc378daa952ba7f163c4a11628f55a4df523b3ef836040516112a7919061180a565b60405180910390a36112bb60008383611530565b5050565b60008060019054906101000a900460ff16156113365760018260ff161480156112ee57506112ec30611535565b155b61132d576040517f08c379a000000000000000000000000000000000000000000000000000000000815260040161132490612264565b60405180910390fd5b600090506113aa565b8160ff1660008054906101000a900460ff1660ff161061138b576040517f08c379a000000000000000000000000000000000000000000000000000000000815260040161138290612264565b60405180910390fd5b816000806101000a81548160ff021916908360ff160217905550600190505b919050565b600060019054906101000a900460ff166113fe576040517f08c379a00000000000000000000000000000000000000000000000000000000081526004016113f5906122f6565b60405180910390fd5b611406611558565b565b600060019054906101000a900460ff16611457576040517f08c379a000000000000000000000000000000000000000000000000000000000815260040161144e906122f6565b60405180910390fd5b61146182826115b9565b5050565b6000606560009054906101000a900473ffffffffffffffffffffffffffffffffffffffff16905081606560006101000a81548173ffffffffffffffffffffffffffffffffffffffff021916908373ffffffffffffffffffffffffffffffffffffffff1602179055508173ffffffffffffffffffffffffffffffffffffffff168173ffffffffffffffffffffffffffffffffffffffff167f8be0079c531659141344cd1fd0a4f28419497f9722a3daafe3b4186f6b6457e060405160405180910390a35050565b505050565b505050565b6000808273ffffffffffffffffffffffffffffffffffffffff163b119050919050565b600060019054906101000a900460ff166115a7576040517f08c379a000000000000000000000000000000000000000000000000000000000815260040161159e906122f6565b60405180910390fd5b6115b76115b2610c80565b611465565b565b600060019054906101000a900460ff16611608576040517f08c379a00000000000000000000000000000000000000000000000000000000081526004016115ff906122f6565b60405180910390fd5b816036908161161791906124e7565b50806037908161162791906124e7565b505050565b600081519050919050565b600082825260208201905092915050565b60005b8381101561166657808201518184015260208101905061164b565b83811115611675576000848401525b50505050565b6000601f19601f8301169050919050565b60006116978261162c565b6116a18185611637565b93506116b1818560208601611648565b6116ba8161167b565b840191505092915050565b600060208201905081810360008301526116df818461168c565b905092915050565b600080fd5b600080fd5b600073ffffffffffffffffffffffffffffffffffffffff82169050919050565b600061171c826116f1565b9050919050565b61172c81611711565b811461173757600080fd5b50565b60008135905061174981611723565b92915050565b6000819050919050565b6117628161174f565b811461176d57600080fd5b50565b60008135905061177f81611759565b92915050565b6000806040838503121561179c5761179b6116e7565b5b60006117aa8582860161173a565b92505060206117bb85828601611770565b9150509250929050565b60008115159050919050565b6117da816117c5565b82525050565b60006020820190506117f560008301846117d1565b92915050565b6118048161174f565b82525050565b600060208201905061181f60008301846117fb565b92915050565b60008060006060848603121561183e5761183d6116e7565b5b600061184c8682870161173a565b935050602061185d8682870161173a565b925050604061186e86828701611770565b9150509250925092565b600060ff82169050919050565b61188e81611878565b82525050565b60006020820190506118a96000830184611885565b92915050565b60006118ba82611711565b9050919050565b6118ca816118af565b81146118d557600080fd5b50565b6000813590506118e7816118c1565b92915050565b600080fd5b600080fd5b600080fd5b60008083601f840112611912576119116118ed565b5b8235905067ffffffffffffffff81111561192f5761192e6118f2565b5b60208301915083600182028301111561194b5761194a6118f7565b5b9250929050565b6000806000806000806080878903121561196f5761196e6116e7565b5b600061197d89828a016118d8565b965050602087013567ffffffffffffffff81111561199e5761199d6116ec565b5b6119aa89828a016118fc565b9550955050604087013567ffffffffffffffff8111156119cd576119cc6116ec565b5b6119d989828a016118fc565b935093505060606119ec89828a01611770565b9150509295509295509295565b600060208284031215611a0f57611a0e6116e7565b5b6000611a1d84828501611770565b91505092915050565b600060208284031215611a3c57611a3b6116e7565b5b6000611a4a8482850161173a565b91505092915050565b611a5c81611711565b82525050565b6000602082019050611a776000830184611a53565b92915050565b60008060408385031215611a9457611a936116e7565b5b6000611aa28582860161173a565b9250506020611ab38582860161173a565b9150509250929050565b7f4e487b7100000000000000000000000000000000000000000000000000000000600052602260045260246000fd5b60006002820490506001821680611b0457607f821691505b602082108103611b1757611b16611abd565b5b50919050565b7f4e487b7100000000000000000000000000000000000000000000000000000000600052601160045260246000fd5b6000611b578261174f565b9150611b628361174f565b9250827fffffffffffffffffffffffffffffffffffffffffffffffffffffffffffffffff03821115611b9757611b96611b1d565b5b828201905092915050565b7f4f776e61626c653a2063616c6c6572206973206e6f7420746865206f776e6572600082015250565b6000611bd8602083611637565b9150611be382611ba2565b602082019050919050565b60006020820190508181036000830152611c0781611bcb565b9050919050565b7f4e6174697665546f6b656e3a2063617020657863656564656400000000000000600082015250565b6000611c44601983611637565b9150611c4f82611c0e565b602082019050919050565b60006020820190508181036000830152611c7381611c37565b9050919050565b6000819050919050565b6000819050919050565b6000611ca9611ca4611c9f84611c7a565b611c84565b611878565b9050919050565b611cb981611c8e565b82525050565b6000602082019050611cd46000830184611cb0565b92915050565b600081519050611ce981611723565b92915050565b600060208284031215611d0557611d046116e7565b5b6000611d1384828501611cda565b91505092915050565b7f45524332303a2064656372656173656420616c6c6f77616e63652062656c6f7760008201527f207a65726f000000000000000000000000000000000000000000000000000000602082015250565b6000611d78602583611637565b9150611d8382611d1c565b604082019050919050565b60006020820190508181036000830152611da781611d6b565b9050919050565b7f4f776e61626c653a206e6577206f776e657220697320746865207a65726f206160008201527f6464726573730000000000000000000000000000000000000000000000000000602082015250565b6000611e0a602683611637565b9150611e1582611dae565b604082019050919050565b60006020820190508181036000830152611e3981611dfd565b9050919050565b7f45524332303a20617070726f76652066726f6d20746865207a65726f2061646460008201527f7265737300000000000000000000000000000000000000000000000000000000602082015250565b6000611e9c602483611637565b9150611ea782611e40565b604082019050919050565b60006020820190508181036000830152611ecb81611e8f565b9050919050565b7f45524332303a20617070726f766520746f20746865207a65726f20616464726560008201527f7373000000000000000000000000000000000000000000000000000000000000602082015250565b6000611f2e602283611637565b9150611f3982611ed2565b604082019050919050565b60006020820190508181036000830152611f5d81611f21565b9050919050565b7f45524332303a20696e73756666696369656e7420616c6c6f77616e6365000000600082015250565b6000611f9a601d83611637565b9150611fa582611f64565b602082019050919050565b60006020820190508181036000830152611fc981611f8d565b9050919050565b7f45524332303a207472616e736665722066726f6d20746865207a65726f20616460008201527f6472657373000000000000000000000000000000000000000000000000000000602082015250565b600061202c602583611637565b915061203782611fd0565b604082019050919050565b6000602082019050818103600083015261205b8161201f565b9050919050565b7f45524332303a207472616e7366657220746f20746865207a65726f206164647260008201527f6573730000000000000000000000000000000000000000000000000000000000602082015250565b60006120be602383611637565b91506120c982612062565b604082019050919050565b600060208201905081810360008301526120ed816120b1565b9050919050565b7f45524332303a207472616e7366657220616d6f756e742065786365656473206260008201527f616c616e63650000000000000000000000000000000000000000000000000000602082015250565b6000612150602683611637565b915061215b826120f4565b604082019050919050565b6000602082019050818103600083015261217f81612143565b9050919050565b7f45524332303a206d696e7420746f20746865207a65726f206164647265737300600082015250565b60006121bc601f83611637565b91506121c782612186565b602082019050919050565b600060208201905081810360008301526121eb816121af565b9050919050565b7f496e697469616c697a61626c653a20636f6e747261637420697320616c72656160008201527f647920696e697469616c697a6564000000000000000000000000000000000000602082015250565b600061224e602e83611637565b9150612259826121f2565b604082019050919050565b6000602082019050818103600083015261227d81612241565b9050919050565b7f496e697469616c697a61626c653a20636f6e7472616374206973206e6f74206960008201527f6e697469616c697a696e67000000000000000000000000000000000000000000602082015250565b60006122e0602b83611637565b91506122eb82612284565b604082019050919050565b6000602082019050818103600083015261230f816122d3565b9050919050565b7f4e487b7100000000000000000000000000000000000000000000000000000000600052604160045260246000fd5b60008190508160005260206000209050919050565b60006020601f8301049050919050565b600082821b905092915050565b6000600883026123a77fffffffffffffffffffffffffffffffffffffffffffffffffffffffffffffffff8261236a565b6123b1868361236a565b95508019841693508086168417925050509392505050565b60006123e46123df6123da8461174f565b611c84565b61174f565b9050919050565b6000819050919050565b6123fe836123c9565b61241261240a826123eb565b848454612377565b825550505050565b600090565b61242761241a565b6124328184846123f5565b505050565b5b818110156124565761244b60008261241f565b600181019050612438565b5050565b601f82111561249b5761246c81612345565b6124758461235a565b81016020851015612484578190505b6124986124908561235a565b830182612437565b50505b505050565b600082821c905092915050565b60006124be600019846008026124a0565b1980831691505092915050565b60006124d783836124ad565b9150826002028217905092915050565b6124f08261162c565b67ffffffffffffffff81111561250957612508612316565b5b6125138254611aec565b61251e82828561245a565b600060209050601f831160018114612551576000841561253f578287015190505b61254985826124cb565b8655506125b1565b601f19841661255f86612345565b60005b8281101561258757848901518255600182019150602085019450602081019050612562565b868310156125a457848901516125a0601f8916826124ad565b8355505b6001600288020188555050505b50505050505056fea2646970667358221220c4003d8f8f47c1e171147e97714d136def95a4f6727c12dc10f77eb17a3b26ea64736f6c634300080f0033",
  "linkReferences": {},
  "deployedLinkReferences": {}
}