{
  "_format": "hh-sol-artifact-1",
  "contractName": "NativeToken",
  "sourceName": "contracts/protocol/NativeToken.sol",
  "abi": [
    {
      "anonymous": false,
      "inputs": [
        {
          "indexed": true,
          "internalType": "address",
          "name": "owner",
          "type": "address"
        },
        {
          "indexed": true,
          "internalType": "address",
          "name": "spender",
          "type": "address"
        },
        {
          "indexed": false,
          "internalType": "uint256",
          "name": "value",
          "type": "uint256"
        }
      ],
      "name": "Approval",
      "type": "event"
    },
    {
      "anonymous": false,
      "inputs": [
        {
          "indexed": false,
          "internalType": "uint8",
          "name": "version",
          "type": "uint8"
        }
      ],
      "name": "Initialized",
      "type": "event"
    },
    {
      "anonymous": false,
      "inputs": [
        {
          "indexed": true,
          "internalType": "address",
          "name": "previousOwner",
          "type": "address"
        },
        {
          "indexed": true,
          "internalType": "address",
          "name": "newOwner",
          "type": "address"
        }
      ],
      "name": "OwnershipTransferred",
      "type": "event"
    },
    {
      "anonymous": false,
      "inputs": [
        {
          "indexed": true,
          "internalType": "address",
          "name": "from",
          "type": "address"
        },
        {
          "indexed": true,
          "internalType": "address",
          "name": "to",
          "type": "address"
        },
        {
          "indexed": false,
          "internalType": "uint256",
          "name": "value",
          "type": "uint256"
        }
      ],
      "name": "Transfer",
      "type": "event"
    },
    {
      "inputs": [],
      "name": "DOMAIN_SEPARATOR",
      "outputs": [
        {
          "internalType": "bytes32",
          "name": "",
          "type": "bytes32"
        }
      ],
      "stateMutability": "view",
      "type": "function"
    },
    {
      "inputs": [
        {
          "internalType": "address",
          "name": "owner",
          "type": "address"
        },
        {
          "internalType": "address",
          "name": "spender",
          "type": "address"
        }
      ],
      "name": "allowance",
      "outputs": [
        {
          "internalType": "uint256",
          "name": "",
          "type": "uint256"
        }
      ],
      "stateMutability": "view",
      "type": "function"
    },
    {
      "inputs": [
        {
          "internalType": "address",
          "name": "spender",
          "type": "address"
        },
        {
          "internalType": "uint256",
          "name": "amount",
          "type": "uint256"
        }
      ],
      "name": "approve",
      "outputs": [
        {
          "internalType": "bool",
          "name": "",
          "type": "bool"
        }
      ],
      "stateMutability": "nonpayable",
      "type": "function"
    },
    {
      "inputs": [
        {
          "internalType": "address",
          "name": "account",
          "type": "address"
        }
      ],
      "name": "balanceOf",
      "outputs": [
        {
          "internalType": "uint256",
          "name": "",
          "type": "uint256"
        }
      ],
      "stateMutability": "view",
      "type": "function"
    },
    {
      "inputs": [],
      "name": "decimals",
      "outputs": [
        {
          "internalType": "uint8",
          "name": "",
          "type": "uint8"
        }
      ],
      "stateMutability": "view",
      "type": "function"
    },
    {
      "inputs": [
        {
          "internalType": "address",
          "name": "spender",
          "type": "address"
        },
        {
          "internalType": "uint256",
          "name": "subtractedValue",
          "type": "uint256"
        }
      ],
      "name": "decreaseAllowance",
      "outputs": [
        {
          "internalType": "bool",
          "name": "",
          "type": "bool"
        }
      ],
      "stateMutability": "nonpayable",
      "type": "function"
    },
    {
      "inputs": [],
      "name": "getCap",
      "outputs": [
        {
          "internalType": "uint256",
          "name": "",
          "type": "uint256"
        }
      ],
      "stateMutability": "view",
      "type": "function"
    },
    {
      "inputs": [],
      "name": "getDevRewardTokens",
      "outputs": [
        {
          "internalType": "uint256",
          "name": "",
          "type": "uint256"
        }
      ],
      "stateMutability": "view",
      "type": "function"
    },
    {
      "inputs": [
        {
          "internalType": "address",
          "name": "user",
          "type": "address"
        }
      ],
      "name": "hasMintedAirdrop",
      "outputs": [
        {
          "internalType": "bool",
          "name": "",
          "type": "bool"
        }
      ],
      "stateMutability": "view",
      "type": "function"
    },
    {
      "inputs": [
        {
          "internalType": "address",
          "name": "spender",
          "type": "address"
        },
        {
          "internalType": "uint256",
          "name": "addedValue",
          "type": "uint256"
        }
      ],
      "name": "increaseAllowance",
      "outputs": [
        {
          "internalType": "bool",
          "name": "",
          "type": "bool"
        }
      ],
      "stateMutability": "nonpayable",
      "type": "function"
    },
    {
      "inputs": [
        {
          "internalType": "contract IAddressesProvider",
          "name": "addressProvider",
          "type": "address"
        },
        {
          "internalType": "string",
          "name": "name",
          "type": "string"
        },
        {
          "internalType": "string",
          "name": "symbol",
          "type": "string"
        },
        {
          "internalType": "uint256",
          "name": "cap",
          "type": "uint256"
        },
        {
          "internalType": "address",
          "name": "devAddress",
          "type": "address"
        },
        {
          "internalType": "uint256",
          "name": "devReward",
          "type": "uint256"
        },
        {
          "internalType": "uint256",
          "name": "devVestingTime",
          "type": "uint256"
        }
      ],
      "name": "initialize",
      "outputs": [],
      "stateMutability": "nonpayable",
      "type": "function"
    },
    {
      "inputs": [
        {
          "internalType": "address",
          "name": "signer",
          "type": "address"
        }
      ],
      "name": "isTrustedSigner",
      "outputs": [
        {
          "internalType": "bool",
          "name": "",
          "type": "bool"
        }
      ],
      "stateMutability": "view",
      "type": "function"
    },
    {
      "inputs": [
        {
          "internalType": "address",
          "name": "account",
          "type": "address"
        },
        {
          "internalType": "uint256",
          "name": "amount",
          "type": "uint256"
        }
      ],
      "name": "mint",
      "outputs": [],
      "stateMutability": "nonpayable",
      "type": "function"
    },
    {
      "inputs": [
        {
          "internalType": "bytes32",
          "name": "request",
          "type": "bytes32"
        },
        {
          "components": [
            {
              "internalType": "uint8",
              "name": "v",
              "type": "uint8"
            },
            {
              "internalType": "bytes32",
              "name": "r",
              "type": "bytes32"
            },
            {
              "internalType": "bytes32",
              "name": "s",
              "type": "bytes32"
            },
            {
              "internalType": "bytes32",
              "name": "request",
              "type": "bytes32"
            },
            {
              "internalType": "uint256",
              "name": "deadline",
              "type": "uint256"
            },
            {
              "internalType": "bytes",
              "name": "payload",
              "type": "bytes"
            }
          ],
          "internalType": "struct TrustusUpgradable.TrustusPacket",
          "name": "packet",
          "type": "tuple"
        }
      ],
      "name": "mintAirdropTokens",
      "outputs": [],
      "stateMutability": "nonpayable",
      "type": "function"
    },
    {
      "inputs": [
        {
          "internalType": "uint256",
          "name": "amount",
          "type": "uint256"
        }
      ],
      "name": "mintDevRewardTokens",
      "outputs": [],
      "stateMutability": "nonpayable",
      "type": "function"
    },
    {
      "inputs": [
        {
          "internalType": "address",
          "name": "receiver",
          "type": "address"
        },
        {
          "internalType": "uint256",
          "name": "amount",
          "type": "uint256"
        }
      ],
      "name": "mintGenesisTokens",
      "outputs": [],
      "stateMutability": "nonpayable",
      "type": "function"
    },
    {
      "inputs": [
        {
          "internalType": "uint256",
          "name": "amount",
          "type": "uint256"
        }
      ],
      "name": "mintStakingRewardTokens",
      "outputs": [],
      "stateMutability": "nonpayable",
      "type": "function"
    },
    {
      "inputs": [],
      "name": "name",
      "outputs": [
        {
          "internalType": "string",
          "name": "",
          "type": "string"
        }
      ],
      "stateMutability": "view",
      "type": "function"
    },
    {
      "inputs": [],
      "name": "owner",
      "outputs": [
        {
          "internalType": "address",
          "name": "",
          "type": "address"
        }
      ],
      "stateMutability": "view",
      "type": "function"
    },
    {
      "inputs": [],
      "name": "renounceOwnership",
      "outputs": [],
      "stateMutability": "nonpayable",
      "type": "function"
    },
    {
      "inputs": [
        {
          "internalType": "address",
          "name": "signer",
          "type": "address"
        },
        {
          "internalType": "bool",
          "name": "isTrusted",
          "type": "bool"
        }
      ],
      "name": "setTrustedAirdropSigner",
      "outputs": [],
      "stateMutability": "nonpayable",
      "type": "function"
    },
    {
      "inputs": [],
      "name": "symbol",
      "outputs": [
        {
          "internalType": "string",
          "name": "",
          "type": "string"
        }
      ],
      "stateMutability": "view",
      "type": "function"
    },
    {
      "inputs": [],
      "name": "totalSupply",
      "outputs": [
        {
          "internalType": "uint256",
          "name": "",
          "type": "uint256"
        }
      ],
      "stateMutability": "view",
      "type": "function"
    },
    {
      "inputs": [
        {
          "internalType": "address",
          "name": "to",
          "type": "address"
        },
        {
          "internalType": "uint256",
          "name": "amount",
          "type": "uint256"
        }
      ],
      "name": "transfer",
      "outputs": [
        {
          "internalType": "bool",
          "name": "",
          "type": "bool"
        }
      ],
      "stateMutability": "nonpayable",
      "type": "function"
    },
    {
      "inputs": [
        {
          "internalType": "address",
          "name": "from",
          "type": "address"
        },
        {
          "internalType": "address",
          "name": "to",
          "type": "address"
        },
        {
          "internalType": "uint256",
          "name": "amount",
          "type": "uint256"
        }
      ],
      "name": "transferFrom",
      "outputs": [
        {
          "internalType": "bool",
          "name": "",
          "type": "bool"
        }
      ],
      "stateMutability": "nonpayable",
      "type": "function"
    },
    {
      "inputs": [
        {
          "internalType": "address",
          "name": "newOwner",
          "type": "address"
        }
      ],
      "name": "transferOwnership",
      "outputs": [],
      "stateMutability": "nonpayable",
      "type": "function"
    }
  ],
  "bytecode": "0x6080806040523461001657611b5b908161001c8239f35b600080fdfe6080604081815260048036101561001557600080fd5b600092833560e01c90816302ba2a0814610ed15750806306fdde0314610e27578063095ea7b314610dfd57806318160ddd14610dde5780631d74143b14610d0057806323b872dd14610c34578063313ce56714610c185780633644e51514610bfb5780633950935114610bab57806340c10f1914610b7e57806351cb70c614610b40578063554d578d14610b215780636a953c1d14610a2c5780636b7e0fa01461069257806370a082311461065a578063715018a6146105fd5780638da5cb5b146105d45780638e31061b146105b057806395d89b41146104cf578063a457c2d714610428578063a9059cbb146103f7578063d3d92127146103b9578063dd62ed3e14610370578063ea98c0c61461031a578063ece6d1ec146101d55763f2fde38b1461014157600080fd5b346101d15760203660031901126101d15761015a6113d5565b9161016361144a565b6001600160a01b0383161561017f578361017c846114a2565b80f35b906020608492519162461bcd60e51b8352820152602660248201527f4f776e61626c653a206e6577206f776e657220697320746865207a65726f206160448201526564647265737360d01b6064820152fd5b8280fd5b50346101d157602090816003193601126103165760cc548351634e5f612b60e11b8082526001600160a01b0392831692909185818681875afa90811561030c5788916102ef575b501633036102865783908386518094819382525afa92831561027c5761017c9450859361024d575b505035906118a0565b61026d929350803d10610275575b6102658183611525565b810190611999565b903880610244565b503d61025b565b84513d87823e3d90fd5b845162461bcd60e51b8152808401859052603760248201527f5661756c7420726577617264732063616e206f6e6c79206265206d69696e746560448201527f6420627920746865207661756c7420636f6e74726163740000000000000000006064820152608490fd5b6103069150863d8811610275576102658183611525565b3861021c565b87513d8a823e3d90fd5b8380fd5b50503461036c578060031936011261036c576103346113d5565b90602435918215158093036103165761034b61144a565b60018060a01b0316835260cb60205282209060ff8019835416911617905580f35b5080fd5b50503461036c578060031936011261036c578060209261038e6113d5565b6103966113eb565b6001600160a01b0391821683526034865283832091168252845220549051908152f35b50503461036c57602036600319011261036c5760209160ff9082906001600160a01b036103e46113d5565b16815260cb855220541690519015158152f35b50503461036c578060031936011261036c576020906104216104176113d5565b6024359033611580565b5160018152f35b5082346104cc57826003193601126104cc576104426113d5565b918360243592338152603460205281812060018060a01b038616825260205220549082821061047b5760208561042185850387336116f7565b608490602086519162461bcd60e51b8352820152602560248201527f45524332303a2064656372656173656420616c6c6f77616e63652062656c6f77604482015264207a65726f60d81b6064820152fd5b80fd5b50503461036c578160031936011261036c57805190826037546104f1816114eb565b80855291600191808316908115610588575060011461052b575b50505061051d82610527940383611525565b5191829182611401565b0390f35b9450603785527f42a7b7dd785cd69714a189dffb3fd7d7174edc9ece837694ce50f7078f7c31ae5b8286106105705750505061051d826020610527958201019461050b565b80546020878701810191909152909501948101610553565b61052797508693506020925061051d94915060ff191682840152151560051b8201019461050b565b50503461036c578160031936011261036c576020906105cd6119c5565b9051908152f35b50503461036c578160031936011261036c5760655490516001600160a01b039091168152602090f35b83346104cc57806003193601126104cc5761061661144a565b606580546001600160a01b0319811690915581906001600160a01b03167f8be0079c531659141344cd1fd0a4f28419497f9722a3daafe3b4186f6b6457e08280a380f35b50503461036c57602036600319011261036c5760209181906001600160a01b036106826113d5565b1681526033845220549051908152f35b5082903461036c5760031983813601126101d157602480359267ffffffffffffffff91828511610a285760c0858301948636030112610a2857608485013594854210156109e6576064810135808435036109a45788906106f0611a6b565b9260a481019361070a610703868b611a38565b36916117f9565b998a516020809c0120908551948c8601967ffc7ecbf4f091085173dad8d1d3c2dfd218c018596a572201cd849763d1114e7a8852860152606085015260808401526080835260a08301938385108986111761099257848d528351902060c084019161190160f01b835260c285015260e2840152604284526101208301938085108986111761099257848d5251902088359060ff821680920361098e5784526101408301528481013561016083015260440135610180909101528780528690889060809060015afa156109845786516001600160a01b03959086168015159081610970575b501561092e578896959493929161080491611a38565b908099918101031261092a578551928387019081118482101761091857865287358481169081810361091457845285808501990135895233036108c35783835116875260d3855260ff868820541661088157505061086c60d3949596838351169051906118a0565b51168452528120805460ff1916600117905580f35b855162461bcd60e51b8152918201859052601b908201527f5573657220616c7265616479206d696e7465642061697264726f7000000000006044820152606490fd5b855162461bcd60e51b81529182018590526026908201527f52657175657374207573657220616e642063616c6c657220646f6e277420636f604482015265696e6369646560d01b6064820152608490fd5b8880fd5b50634e487b7160e01b87526041825286fd5b8680fd5b885162461bcd60e51b8152808501889052601c818501527f5265636f7665726564206164647265737320697320696e76616c6964000000006044820152606490fd5b89525060cb87528888205460ff168a6107ee565b87513d88823e3d90fd5b8b80fd5b634e487b7160e01b8c5260418852868cfd5b885162461bcd60e51b8152602081860152601c818501527f52657175657374206e756d62657220646f65736e2774206d61746368000000006044820152606490fd5b875162461bcd60e51b8152602081850152601b818401527f5061636b65742074696d657374616d7020697320696e76616c696400000000006044820152606490fd5b8580fd5b50346101d157816003193601126101d157610a456113d5565b60cc548351630966d5bb60e01b81529193916001600160a01b039160209082908690829086165afa908115610b17578691610af9575b50163303610a90578361017c602435856118a0565b906020608492519162461bcd60e51b8352820152603d60248201527f47656e6573697320746f6b656e732063616e206f6e6c79206265206d696e746560448201527f64206279207468652047656e65736973204e465420636f6e74726163740000006064820152fd5b610b11915060203d8111610275576102658183611525565b38610a7b565b83513d88823e3d90fd5b50503461036c578160031936011261036c5760209060d2549051908152f35b50503461036c57602036600319011261036c5760209160ff9082906001600160a01b03610b6b6113d5565b16815260d3855220541690519015158152f35b50503461036c573660031901126104cc5761017c610b9a6113d5565b610ba261144a565b602435906118a0565b50503461036c578060031936011261036c57610421602092610bf4610bce6113d5565b338352603486528483206001600160a01b0382168452865291849020546024359061155d565b90336116f7565b50503461036c578160031936011261036c576020906105cd611a6b565b50503461036c578160031936011261036c576020905160128152f35b5082903461036c57606036600319011261036c57610c506113d5565b610c586113eb565b6001600160a01b03821684526034602090815285852033865290529284902054604435939260018201610c94575b602086610421878787611580565b848210610cbd5750918391610cb260209695610421950333836116f7565b919394819350610c86565b606490602087519162461bcd60e51b8352820152601d60248201527f45524332303a20696e73756666696369656e7420616c6c6f77616e63650000006044820152fd5b5082903461036c57602036600319011261036c5780359060018060a01b0360cd541690813303610da65782610d336119c5565b10610d55575090610d4781610d4f936118a0565b60d15461155d565b60d15580f35b608490602086519162461bcd60e51b8352820152602560248201527f416d6f756e7420626967676572207468616e20616c6c6f7765642062792076656044820152647374696e6760d81b6064820152fd5b606490602086519162461bcd60e51b8352820152601260248201527121b0b63632b91036bab9ba103132903232bb60711b6044820152fd5b50503461036c578160031936011261036c576020906035549051908152f35b50503461036c578060031936011261036c57602090610421610e1d6113d5565b60243590336116f7565b50503461036c578160031936011261036c5780519082603654610e49816114eb565b808552916001918083169081156105885750600114610e745750505061051d82610527940383611525565b9450603685527f4a11f94e20a93c79f6ec743a1954ec4fc2c08429ae2122118bf234b2185c81b85b828610610eb95750505061051d826020610527958201019461050b565b80546020878701810191909152909501948101610e9c565b84939150346103165760e0366003190112610316576001600160a01b03833581811690819003610a285767ffffffffffffffff60243581811161139e57610f1b90369088016113a2565b60449791973583811161139a57610f3590369084016113a2565b9290608435968716809703611396578a549060ff8260081c16159889809a611389575b8015611372575b1561131a5750908b918960019c8d60ff19851617855560ff610fe195610fd795610fcf94611309575b50610fa182825460081c16610f9c81611840565b611840565b610faa336114a2565b5460081c1696610fb988611840565b4660c955610fc5611a7e565b60ca5536916117f9565b9536916117f9565b92610f9c81611840565b82518481116112f65780610ff66036546114eb565b94601f95868111611285575b506020908d87841160011461120657926111fb575b5050600019600383901b1c1916908a1b176036555b81519384116111e857509082916110446037546114eb565b828111611178575b5060209183116001146110f95789926110ee575b5050600019600383901b1c191690861b176037555b6bffffffffffffffffffffffff60a01b908160cc54161760cc5560643560d2554260ce5560cd54161760cd5560a43560cf5560c43560d0556110b5578280f35b825461ff0019168355519081527f7f26b83ff96e1f2b6a682f133852f6798a09c465da95921460cefb384740249890602090a181808280f35b015190508880611060565b60378a528893507f42a7b7dd785cd69714a189dffb3fd7d7174edc9ece837694ce50f7078f7c31ae9190601f1984168b5b81811061116057508411611147575b505050811b01603755611075565b015160001960f88460031b161c19169055888080611139565b8284015185558b96909401936020938401930161112a565b9091925060378a527f42a7b7dd785cd69714a189dffb3fd7d7174edc9ece837694ce50f7078f7c31ae8380860160051c820192602087106111df575b9186958c929594930160051c01915b8281106111d157505061104c565b8c81558695508b91016111c3565b925081926111b4565b634e487b7160e01b8a5260419052602489fd5b015190508c80611017565b91908d9450601f198416603684527f4a11f94e20a93c79f6ec743a1954ec4fc2c08429ae2122118bf234b2185c81b8935b81811061126d57508411611254575b505050811b0160365561102c565b015160001960f88460031b161c191690558c8080611246565b8284015185558f969094019360209384019301611237565b90915060368d527f4a11f94e20a93c79f6ec743a1954ec4fc2c08429ae2122118bf234b2185c81b88680850160051c820192602086106112ed575b859493910160051c909101908d908f5b8382106112df57505050611002565b81558594508e91018f6112d0565b925081926112c0565b634e487b7160e01b8b526041825260248bfd5b61ffff191661010117815538610f88565b62461bcd60e51b8152602084820152602e60248201527f496e697469616c697a61626c653a20636f6e747261637420697320616c72656160448201526d191e481a5b9a5d1a585b1a5e995960921b6064820152608490fd5b50303b158015610f5f5750600160ff841614610f5f565b50600160ff841610610f58565b8a80fd5b8980fd5b8780fd5b9181601f840112156113d05782359167ffffffffffffffff83116113d057602083818601950101116113d057565b600080fd5b600435906001600160a01b03821682036113d057565b602435906001600160a01b03821682036113d057565b6020808252825181830181905290939260005b82811061143657505060409293506000838284010152601f8019910116010190565b818101860151848201604001528501611414565b6065546001600160a01b0316330361145e57565b606460405162461bcd60e51b815260206004820152602060248201527f4f776e61626c653a2063616c6c6572206973206e6f7420746865206f776e65726044820152fd5b606580546001600160a01b039283166001600160a01b0319821681179092559091167f8be0079c531659141344cd1fd0a4f28419497f9722a3daafe3b4186f6b6457e0600080a3565b90600182811c9216801561151b575b602083101461150557565b634e487b7160e01b600052602260045260246000fd5b91607f16916114fa565b90601f8019910116810190811067ffffffffffffffff82111761154757604052565b634e487b7160e01b600052604160045260246000fd5b9190820180921161156a57565b634e487b7160e01b600052601160045260246000fd5b6001600160a01b039081169182156116a4571691821561165357600082815260336020526040812054918083106115ff57604082827fddf252ad1be2c89b69c2b068fc378daa952ba7f163c4a11628f55a4df523b3ef958760209652603386520382822055868152206115f482825461155d565b9055604051908152a3565b60405162461bcd60e51b815260206004820152602660248201527f45524332303a207472616e7366657220616d6f756e7420657863656564732062604482015265616c616e636560d01b6064820152608490fd5b60405162461bcd60e51b815260206004820152602360248201527f45524332303a207472616e7366657220746f20746865207a65726f206164647260448201526265737360e81b6064820152608490fd5b60405162461bcd60e51b815260206004820152602560248201527f45524332303a207472616e736665722066726f6d20746865207a65726f206164604482015264647265737360d81b6064820152608490fd5b6001600160a01b039081169182156117a857169182156117585760207f8c5be1e5ebec7d5bd14f71427d1e84f3dd0314c0f7b2291e5b200ac8c7c3b925918360005260348252604060002085600052825280604060002055604051908152a3565b60405162461bcd60e51b815260206004820152602260248201527f45524332303a20617070726f766520746f20746865207a65726f206164647265604482015261737360f01b6064820152608490fd5b60405162461bcd60e51b8152602060048201526024808201527f45524332303a20617070726f76652066726f6d20746865207a65726f206164646044820152637265737360e01b6064820152608490fd5b92919267ffffffffffffffff82116115475760405191611823601f8201601f191660200184611525565b8294818452818301116113d0578281602093846000960137010152565b1561184757565b60405162461bcd60e51b815260206004820152602b60248201527f496e697469616c697a61626c653a20636f6e7472616374206973206e6f74206960448201526a6e697469616c697a696e6760a81b6064820152608490fd5b603554906118ae838361155d565b60d25410611954576001600160a01b031691821561190f576020816118f67fddf252ad1be2c89b69c2b068fc378daa952ba7f163c4a11628f55a4df523b3ef9360009561155d565b60355584845260338252604084206115f482825461155d565b60405162461bcd60e51b815260206004820152601f60248201527f45524332303a206d696e7420746f20746865207a65726f2061646472657373006044820152606490fd5b60405162461bcd60e51b815260206004820152601960248201527f4e6174697665546f6b656e3a20636170206578636565646564000000000000006044820152606490fd5b908160209103126113d057516001600160a01b03811681036113d05790565b9190820391821161156a57565b60ce546119d281426119b8565b60d054809110600014611a2b576119ec60cf5492426119b8565b9182810292818404149015171561156a578015611a1557611a1291045b60d154906119b8565b90565b634e487b7160e01b600052601260045260246000fd5b5050611a1260cf54611a09565b903590601e19813603018212156113d0570180359067ffffffffffffffff82116113d0576020019181360383136113d057565b60c9544603611a7a5760ca5490565b611a125b60405160208101907f8b73c3c69bb8fe3d512ecc4cf759cc79239f7b179b0ffacaa9a75d522b39400f82527f118e7890157efb533a050dce8fe5a02b428bdf432762e2e91914807054e2d96560408201527fc89efdaa54c0f20c7adf612882df0950f5a951637e0307cdcb4c672f298b8bc660608201524660808201523060a082015260a0815260c0810181811067ffffffffffffffff821117611547576040525190209056fea26469706673582212204ecb96795db42c88ab710d4b29f2b6d7e08ee68d720ed3b4283cb9f558fa6ed464736f6c63430008110033",
  "linkReferences": {},
  "deployedLinkReferences": {}
}