{
  "_format": "hh-sol-artifact-1",
  "contractName": "NativeTokenVault",
  "sourceName": "contracts/protocol/NativeTokenVault.sol",
  "abi": [
    {
      "anonymous": false,
      "inputs": [
        {
          "indexed": true,
          "internalType": "address",
          "name": "owner",
          "type": "address"
        },
        {
          "indexed": true,
          "internalType": "address",
          "name": "spender",
          "type": "address"
        },
        {
          "indexed": false,
          "internalType": "uint256",
          "name": "value",
          "type": "uint256"
        }
      ],
      "name": "Approval",
      "type": "event"
    },
    {
      "anonymous": false,
      "inputs": [
        {
          "indexed": false,
          "internalType": "uint8",
          "name": "version",
          "type": "uint8"
        }
      ],
      "name": "Initialized",
      "type": "event"
    },
    {
      "anonymous": false,
      "inputs": [
        {
          "indexed": true,
          "internalType": "address",
          "name": "previousOwner",
          "type": "address"
        },
        {
          "indexed": true,
          "internalType": "address",
          "name": "newOwner",
          "type": "address"
        }
      ],
      "name": "OwnershipTransferred",
      "type": "event"
    },
    {
      "anonymous": false,
      "inputs": [
        {
          "indexed": true,
          "internalType": "address",
          "name": "from",
          "type": "address"
        },
        {
          "indexed": true,
          "internalType": "address",
          "name": "to",
          "type": "address"
        },
        {
          "indexed": false,
          "internalType": "uint256",
          "name": "value",
          "type": "uint256"
        }
      ],
      "name": "Transfer",
      "type": "event"
    },
    {
      "inputs": [
        {
          "internalType": "address",
          "name": "owner",
          "type": "address"
        },
        {
          "internalType": "address",
          "name": "spender",
          "type": "address"
        }
      ],
      "name": "allowance",
      "outputs": [
        {
          "internalType": "uint256",
          "name": "",
          "type": "uint256"
        }
      ],
      "stateMutability": "view",
      "type": "function"
    },
    {
      "inputs": [
        {
          "internalType": "address",
          "name": "spender",
          "type": "address"
        },
        {
          "internalType": "uint256",
          "name": "amount",
          "type": "uint256"
        }
      ],
      "name": "approve",
      "outputs": [
        {
          "internalType": "bool",
          "name": "",
          "type": "bool"
        }
      ],
      "stateMutability": "nonpayable",
      "type": "function"
    },
    {
      "inputs": [
        {
          "internalType": "address",
          "name": "account",
          "type": "address"
        }
      ],
      "name": "balanceOf",
      "outputs": [
        {
          "internalType": "uint256",
          "name": "",
          "type": "uint256"
        }
      ],
      "stateMutability": "view",
      "type": "function"
    },
    {
      "inputs": [
        {
          "internalType": "uint256",
          "name": "amount",
          "type": "uint256"
        }
      ],
      "name": "createWithdrawRequest",
      "outputs": [],
      "stateMutability": "nonpayable",
      "type": "function"
    },
    {
      "inputs": [],
      "name": "decimals",
      "outputs": [
        {
          "internalType": "uint8",
          "name": "",
          "type": "uint8"
        }
      ],
      "stateMutability": "view",
      "type": "function"
    },
    {
      "inputs": [
        {
          "internalType": "address",
          "name": "spender",
          "type": "address"
        },
        {
          "internalType": "uint256",
          "name": "subtractedValue",
          "type": "uint256"
        }
      ],
      "name": "decreaseAllowance",
      "outputs": [
        {
          "internalType": "bool",
          "name": "",
          "type": "bool"
        }
      ],
      "stateMutability": "nonpayable",
      "type": "function"
    },
    {
      "inputs": [
        {
          "internalType": "uint256",
          "name": "amount",
          "type": "uint256"
        }
      ],
      "name": "deposit",
      "outputs": [],
      "stateMutability": "nonpayable",
      "type": "function"
    },
    {
      "inputs": [
        {
          "internalType": "address",
          "name": "user",
          "type": "address"
        },
        {
          "internalType": "address",
          "name": "collection",
          "type": "address"
        }
      ],
      "name": "getCollateralizationBoost",
      "outputs": [
        {
          "internalType": "uint256",
          "name": "",
          "type": "uint256"
        }
      ],
      "stateMutability": "view",
      "type": "function"
    },
    {
      "inputs": [],
      "name": "getLockedBalance",
      "outputs": [
        {
          "internalType": "uint256",
          "name": "",
          "type": "uint256"
        }
      ],
      "stateMutability": "view",
      "type": "function"
    },
    {
      "inputs": [
        {
          "internalType": "address",
          "name": "user",
          "type": "address"
        }
      ],
      "name": "getMaximumWithdrawalAmount",
      "outputs": [
        {
          "internalType": "uint256",
          "name": "",
          "type": "uint256"
        }
      ],
      "stateMutability": "view",
      "type": "function"
    },
    {
      "inputs": [
        {
          "internalType": "address",
          "name": "user",
          "type": "address"
        },
        {
          "internalType": "address",
          "name": "collection",
          "type": "address"
        }
      ],
      "name": "getUserCollectionVotes",
      "outputs": [
        {
          "internalType": "uint256",
          "name": "",
          "type": "uint256"
        }
      ],
      "stateMutability": "view",
      "type": "function"
    },
    {
      "inputs": [
        {
          "internalType": "address",
          "name": "user",
          "type": "address"
        }
      ],
      "name": "getUserFreeVotes",
      "outputs": [
        {
          "internalType": "uint256",
          "name": "",
          "type": "uint256"
        }
      ],
      "stateMutability": "view",
      "type": "function"
    },
    {
      "inputs": [
        {
          "internalType": "address",
          "name": "user",
          "type": "address"
        }
      ],
      "name": "getWithdrawRequest",
      "outputs": [
        {
          "components": [
            {
              "internalType": "address",
              "name": "user",
              "type": "address"
            },
            {
              "internalType": "uint256",
              "name": "amount",
              "type": "uint256"
            },
            {
              "internalType": "uint256",
              "name": "timestamp",
              "type": "uint256"
            }
          ],
          "internalType": "struct DataTypes.WithdrawRequest",
          "name": "",
          "type": "tuple"
        }
      ],
      "stateMutability": "view",
      "type": "function"
    },
    {
      "inputs": [
        {
          "internalType": "address",
          "name": "spender",
          "type": "address"
        },
        {
          "internalType": "uint256",
          "name": "addedValue",
          "type": "uint256"
        }
      ],
      "name": "increaseAllowance",
      "outputs": [
        {
          "internalType": "bool",
          "name": "",
          "type": "bool"
        }
      ],
      "stateMutability": "nonpayable",
      "type": "function"
    },
    {
      "inputs": [
        {
          "internalType": "contract IAddressesProvider",
          "name": "addressProvider",
          "type": "address"
        },
        {
          "internalType": "address",
          "name": "nativeToken",
          "type": "address"
        },
        {
          "internalType": "string",
          "name": "name",
          "type": "string"
        },
        {
          "internalType": "string",
          "name": "symbol",
          "type": "string"
        }
      ],
      "name": "initialize",
      "outputs": [],
      "stateMutability": "nonpayable",
      "type": "function"
    },
    {
      "inputs": [],
      "name": "name",
      "outputs": [
        {
          "internalType": "string",
          "name": "",
          "type": "string"
        }
      ],
      "stateMutability": "view",
      "type": "function"
    },
    {
      "inputs": [],
      "name": "owner",
      "outputs": [
        {
          "internalType": "address",
          "name": "",
          "type": "address"
        }
      ],
      "stateMutability": "view",
      "type": "function"
    },
    {
      "inputs": [
        {
          "internalType": "uint256",
          "name": "amount",
          "type": "uint256"
        },
        {
          "internalType": "address",
          "name": "collection",
          "type": "address"
        }
      ],
      "name": "removeVote",
      "outputs": [],
      "stateMutability": "nonpayable",
      "type": "function"
    },
    {
      "inputs": [],
      "name": "renounceOwnership",
      "outputs": [],
      "stateMutability": "nonpayable",
      "type": "function"
    },
    {
      "inputs": [],
      "name": "symbol",
      "outputs": [
        {
          "internalType": "string",
          "name": "",
          "type": "string"
        }
      ],
      "stateMutability": "view",
      "type": "function"
    },
    {
      "inputs": [],
      "name": "totalSupply",
      "outputs": [
        {
          "internalType": "uint256",
          "name": "",
          "type": "uint256"
        }
      ],
      "stateMutability": "view",
      "type": "function"
    },
    {
      "inputs": [
        {
          "internalType": "address",
          "name": "",
          "type": "address"
        },
        {
          "internalType": "uint256",
          "name": "",
          "type": "uint256"
        }
      ],
      "name": "transfer",
      "outputs": [
        {
          "internalType": "bool",
          "name": "",
          "type": "bool"
        }
      ],
      "stateMutability": "pure",
      "type": "function"
    },
    {
      "inputs": [
        {
          "internalType": "address",
          "name": "",
          "type": "address"
        },
        {
          "internalType": "address",
          "name": "",
          "type": "address"
        },
        {
          "internalType": "uint256",
          "name": "",
          "type": "uint256"
        }
      ],
      "name": "transferFrom",
      "outputs": [
        {
          "internalType": "bool",
          "name": "",
          "type": "bool"
        }
      ],
      "stateMutability": "pure",
      "type": "function"
    },
    {
      "inputs": [
        {
          "internalType": "address",
          "name": "newOwner",
          "type": "address"
        }
      ],
      "name": "transferOwnership",
      "outputs": [],
      "stateMutability": "nonpayable",
      "type": "function"
    },
    {
      "inputs": [
        {
          "internalType": "uint256",
          "name": "amount",
          "type": "uint256"
        },
        {
          "internalType": "address",
          "name": "collection",
          "type": "address"
        }
      ],
      "name": "vote",
      "outputs": [],
      "stateMutability": "nonpayable",
      "type": "function"
    },
    {
      "inputs": [
        {
          "internalType": "uint256",
          "name": "amount",
          "type": "uint256"
        }
      ],
      "name": "withdraw",
      "outputs": [],
      "stateMutability": "nonpayable",
      "type": "function"
    }
  ],
  "bytecode": "0x608060405234801561001057600080fd5b50613a78806100206000396000f3fe608060405234801561001057600080fd5b506004361061018e5760003560e01c8063715018a6116100de578063a457c2d711610097578063b8ab1bdc11610071578063b8ab1bdc146104a9578063baf03a2b146104d9578063dd62ed3e14610509578063f2fde38b146105395761018e565b8063a457c2d71461042d578063a9059cbb1461045d578063b6b55f251461048d5761018e565b8063715018a61461037f57806374dc9d1a146103895780637cbcd571146103a55780638da5cb5b146103c157806395d89b41146103df5780639b0d1b96146103fd5761018e565b80632549e0b11161014b578063313ce56711610125578063313ce567146102d157806339509351146102ef5780633e680e7a1461031f57806370a082311461034f5761018e565b80632549e0b1146102675780632ccae896146102855780632e1a7d4d146102b55761018e565b806302d947ef1461019357806306fdde03146101af578063095ea7b3146101cd57806318160ddd146101fd5780632016a0d21461021b57806323b872dd14610237575b600080fd5b6101ad60048036038101906101a8919061269a565b610555565b005b6101b7610725565b6040516101c49190612773565b60405180910390f35b6101e760048036038101906101e29190612795565b6107b7565b6040516101f491906127f0565b60405180910390f35b6102056107da565b604051610212919061281a565b60405180910390f35b610235600480360381019061023091906128d8565b6107e4565b005b610251600480360381019061024c919061297f565b610992565b60405161025e91906127f0565b60405180910390f35b61026f6109cf565b60405161027c919061281a565b60405180910390f35b61029f600480360381019061029a91906129d2565b6109de565b6040516102ac9190612a5f565b60405180910390f35b6102cf60048036038101906102ca9190612a7a565b610aa1565b005b6102d9610c1d565b6040516102e69190612ac3565b60405180910390f35b61030960048036038101906103049190612795565b610c26565b60405161031691906127f0565b60405180910390f35b610339600480360381019061033491906129d2565b610c5d565b604051610346919061281a565b60405180910390f35b610369600480360381019061036491906129d2565b610ce6565b604051610376919061281a565b60405180910390f35b610387610d2f565b005b6103a3600480360381019061039e9190612a7a565b610db7565b005b6103bf60048036038101906103ba919061269a565b610e0b565b005b6103c9610fdb565b6040516103d69190612aed565b60405180910390f35b6103e7611005565b6040516103f49190612773565b60405180910390f35b610417600480360381019061041291906129d2565b611097565b604051610424919061281a565b60405180910390f35b61044760048036038101906104429190612795565b6110e0565b60405161045491906127f0565b60405180910390f35b61047760048036038101906104729190612795565b611157565b60405161048491906127f0565b60405180910390f35b6104a760048036038101906104a29190612a7a565b611194565b005b6104c360048036038101906104be9190612b08565b611312565b6040516104d0919061281a565b60405180910390f35b6104f360048036038101906104ee9190612b08565b611728565b604051610500919061281a565b60405180910390f35b610523600480360381019061051e9190612b08565b6117af565b604051610530919061281a565b60405180910390f35b610553600480360381019061054e91906129d2565b611836565b005b73__$5201a97c05ba6aa659e2f36a933dd51801$__63acd95392609760009054906101000a900473ffffffffffffffffffffffffffffffffffffffff1684846040518463ffffffff1660e01b81526004016105b293929190612bc5565b60006040518083038186803b1580156105ca57600080fd5b505af41580156105de573d6000803e3d6000fd5b5050505081609960003373ffffffffffffffffffffffffffffffffffffffff1673ffffffffffffffffffffffffffffffffffffffff16815260200190815260200160002060008373ffffffffffffffffffffffffffffffffffffffff1673ffffffffffffffffffffffffffffffffffffffff168152602001908152602001600020600082825461066e9190612c2b565b9250508190555081609b60008373ffffffffffffffffffffffffffffffffffffffff1673ffffffffffffffffffffffffffffffffffffffff16815260200190815260200160002060008282546106c49190612c2b565b9250508190555081609a60003373ffffffffffffffffffffffffffffffffffffffff1673ffffffffffffffffffffffffffffffffffffffff168152602001908152602001600020600082825461071a9190612c81565b925050819055505050565b60606036805461073490612ce4565b80601f016020809104026020016040519081016040528092919081815260200182805461076090612ce4565b80156107ad5780601f10610782576101008083540402835291602001916107ad565b820191906000526020600020905b81548152906001019060200180831161079057829003601f168201915b5050505050905090565b6000806107c261192d565b90506107cf818585611935565b600191505092915050565b6000603554905090565b60006107f06001611afe565b90508015610814576001600060016101000a81548160ff0219169083151502179055505b61081c611bee565b6108ae85858080601f016020809104026020016040519081016040528093929190818152602001838380828437600081840152601f19601f8201169050808301925050505050505084848080601f016020809104026020016040519081016040528093929190818152602001838380828437600081840152601f19601f82011690508083019250505050505050611c47565b86609760006101000a81548173ffffffffffffffffffffffffffffffffffffffff021916908373ffffffffffffffffffffffffffffffffffffffff16021790555085609860006101000a81548173ffffffffffffffffffffffffffffffffffffffff021916908373ffffffffffffffffffffffffffffffffffffffff16021790555080156109895760008060016101000a81548160ff0219169083151502179055507f7f26b83ff96e1f2b6a682f133852f6798a09c465da95921460cefb384740249860016040516109809190612d50565b60405180910390a15b50505050505050565b60006040517f08c379a00000000000000000000000000000000000000000000000000000000081526004016109c690612db7565b60405180910390fd5b60006109d9611ca4565b905090565b6109e66125c5565b609c60008373ffffffffffffffffffffffffffffffffffffffff1673ffffffffffffffffffffffffffffffffffffffff1681526020019081526020016000206040518060600160405290816000820160009054906101000a900473ffffffffffffffffffffffffffffffffffffffff1673ffffffffffffffffffffffffffffffffffffffff1673ffffffffffffffffffffffffffffffffffffffff168152602001600182015481526020016002820154815250509050919050565b73__$5201a97c05ba6aa659e2f36a933dd51801$__6381778770609760009054906101000a900473ffffffffffffffffffffffffffffffffffffffff16836040518363ffffffff1660e01b8152600401610afc929190612dd7565b60006040518083038186803b158015610b1457600080fd5b505af4158015610b28573d6000803e3d6000fd5b50505050600080610b376107da565b03610b4457819050610b6c565b610b4c611ca4565b610b546107da565b83610b5f9190612e00565b610b699190612e89565b90505b610b763383611d47565b80609a60003373ffffffffffffffffffffffffffffffffffffffff1673ffffffffffffffffffffffffffffffffffffffff1681526020019081526020016000206000828254610bc59190612c81565b92505081905550610c193383609860009054906101000a900473ffffffffffffffffffffffffffffffffffffffff1673ffffffffffffffffffffffffffffffffffffffff16611f1f9092919063ffffffff16565b5050565b60006012905090565b600080610c3161192d565b9050610c52818585610c4385896117af565b610c4d9190612c2b565b611935565b600191505092915050565b600080609a60008473ffffffffffffffffffffffffffffffffffffffff1673ffffffffffffffffffffffffffffffffffffffff1681526020019081526020016000205490506000808203610cb45760009050610cdc565b610cbc6107da565b610cc4611ca4565b83610ccf9190612e00565b610cd99190612e89565b90505b8092505050919050565b6000603360008373ffffffffffffffffffffffffffffffffffffffff1673ffffffffffffffffffffffffffffffffffffffff168152602001908152602001600020549050919050565b610d3761192d565b73ffffffffffffffffffffffffffffffffffffffff16610d55610fdb565b73ffffffffffffffffffffffffffffffffffffffff1614610dab576040517f08c379a0000000000000000000000000000000000000000000000000000000008152600401610da290612f06565b60405180910390fd5b610db56000611fa5565b565b610e0881609c60003373ffffffffffffffffffffffffffffffffffffffff1673ffffffffffffffffffffffffffffffffffffffff16815260200190815260200160002061206b90919063ffffffff16565b50565b73__$5201a97c05ba6aa659e2f36a933dd51801$__631fc9e757609760009054906101000a900473ffffffffffffffffffffffffffffffffffffffff1684846040518463ffffffff1660e01b8152600401610e6893929190612bc5565b60006040518083038186803b158015610e8057600080fd5b505af4158015610e94573d6000803e3d6000fd5b5050505081609960003373ffffffffffffffffffffffffffffffffffffffff1673ffffffffffffffffffffffffffffffffffffffff16815260200190815260200160002060008373ffffffffffffffffffffffffffffffffffffffff1673ffffffffffffffffffffffffffffffffffffffff1681526020019081526020016000206000828254610f249190612c81565b9250508190555081609b60008373ffffffffffffffffffffffffffffffffffffffff1673ffffffffffffffffffffffffffffffffffffffff1681526020019081526020016000206000828254610f7a9190612c81565b9250508190555081609a60003373ffffffffffffffffffffffffffffffffffffffff1673ffffffffffffffffffffffffffffffffffffffff1681526020019081526020016000206000828254610fd09190612c2b565b925050819055505050565b6000606560009054906101000a900473ffffffffffffffffffffffffffffffffffffffff16905090565b60606037805461101490612ce4565b80601f016020809104026020016040519081016040528092919081815260200182805461104090612ce4565b801561108d5780601f106110625761010080835404028352916020019161108d565b820191906000526020600020905b81548152906001019060200180831161107057829003601f168201915b5050505050905090565b6000609a60008373ffffffffffffffffffffffffffffffffffffffff1673ffffffffffffffffffffffffffffffffffffffff168152602001908152602001600020549050919050565b6000806110eb61192d565b905060006110f982866117af565b90508381101561113e576040517f08c379a000000000000000000000000000000000000000000000000000000000815260040161113590612f98565b60405180910390fd5b61114b8286868403611935565b60019250505092915050565b60006040517f08c379a000000000000000000000000000000000000000000000000000000000815260040161118b90612db7565b60405180910390fd5b73__$5201a97c05ba6aa659e2f36a933dd51801$__63d8b7f942609860009054906101000a900473ffffffffffffffffffffffffffffffffffffffff16836040518363ffffffff1660e01b81526004016111ef929190612fb8565b60006040518083038186803b15801561120757600080fd5b505af415801561121b573d6000803e3d6000fd5b5050505060008061122a6107da565b036112375781905061125f565b61123f611ca4565b6112476107da565b836112529190612e00565b61125c9190612e89565b90505b6112ae333084609860009054906101000a900473ffffffffffffffffffffffffffffffffffffffff1673ffffffffffffffffffffffffffffffffffffffff16612081909392919063ffffffff16565b6112b8338261210a565b80609a60003373ffffffffffffffffffffffffffffffffffffffff1673ffffffffffffffffffffffffffffffffffffffff16815260200190815260200160002060008282546113079190612c2b565b925050819055505050565b600080600090506000609760009054906101000a900473ffffffffffffffffffffffffffffffffffffffff1673ffffffffffffffffffffffffffffffffffffffff1663536223646040518163ffffffff1660e01b8152600401602060405180830381865afa158015611388573d6000803e3d6000fd5b505050506040513d601f19601f820116820180604052508101906113ac9190612ff6565b73ffffffffffffffffffffffffffffffffffffffff1663b7ea175d86866040518363ffffffff1660e01b81526004016113e6929190613023565b602060405180830381865afa158015611403573d6000803e3d6000fd5b505050506040513d601f19601f820116820180604052508101906114279190613061565b90506000609760009054906101000a900473ffffffffffffffffffffffffffffffffffffffff1673ffffffffffffffffffffffffffffffffffffffff166391aefd4c6040518163ffffffff1660e01b8152600401602060405180830381865afa158015611498573d6000803e3d6000fd5b505050506040513d601f19601f820116820180604052508101906114bc9190612ff6565b73ffffffffffffffffffffffffffffffffffffffff166385048179866040518263ffffffff1660e01b81526004016114f49190612aed565b602060405180830381865afa158015611511573d6000803e3d6000fd5b505050506040513d601f19601f820116820180604052508101906115359190613061565b90506000609760009054906101000a900473ffffffffffffffffffffffffffffffffffffffff1673ffffffffffffffffffffffffffffffffffffffff1663cfeed1816040518163ffffffff1660e01b8152600401602060405180830381865afa1580156115a6573d6000803e3d6000fd5b505050506040513d601f19601f820116820180604052508101906115ca9190612ff6565b73ffffffffffffffffffffffffffffffffffffffff1663d02641a0609860009054906101000a900473ffffffffffffffffffffffffffffffffffffffff166040518263ffffffff1660e01b81526004016116249190612aed565b602060405180830381865afa158015611641573d6000803e3d6000fd5b505050506040513d601f19601f820116820180604052508101906116659190613061565b90506000670de0b6b3a764000082609b60008a73ffffffffffffffffffffffffffffffffffffffff1673ffffffffffffffffffffffffffffffffffffffff168152602001908152602001600020546116bd9190612e00565b6116c79190612e89565b9050600083856116d79190612e00565b90506000811461171957601e816116ee9190612e00565b826127106116fc9190612e00565b6117069190612e89565b95506107d0861115611718576107d095505b5b85965050505050505092915050565b6000609960008473ffffffffffffffffffffffffffffffffffffffff1673ffffffffffffffffffffffffffffffffffffffff16815260200190815260200160002060008373ffffffffffffffffffffffffffffffffffffffff1673ffffffffffffffffffffffffffffffffffffffff16815260200190815260200160002054905092915050565b6000603460008473ffffffffffffffffffffffffffffffffffffffff1673ffffffffffffffffffffffffffffffffffffffff16815260200190815260200160002060008373ffffffffffffffffffffffffffffffffffffffff1673ffffffffffffffffffffffffffffffffffffffff16815260200190815260200160002054905092915050565b61183e61192d565b73ffffffffffffffffffffffffffffffffffffffff1661185c610fdb565b73ffffffffffffffffffffffffffffffffffffffff16146118b2576040517f08c379a00000000000000000000000000000000000000000000000000000000081526004016118a990612f06565b60405180910390fd5b600073ffffffffffffffffffffffffffffffffffffffff168173ffffffffffffffffffffffffffffffffffffffff1603611921576040517f08c379a000000000000000000000000000000000000000000000000000000000815260040161191890613100565b60405180910390fd5b61192a81611fa5565b50565b600033905090565b600073ffffffffffffffffffffffffffffffffffffffff168373ffffffffffffffffffffffffffffffffffffffff16036119a4576040517f08c379a000000000000000000000000000000000000000000000000000000000815260040161199b90613192565b60405180910390fd5b600073ffffffffffffffffffffffffffffffffffffffff168273ffffffffffffffffffffffffffffffffffffffff1603611a13576040517f08c379a0000000000000000000000000000000000000000000000000000000008152600401611a0a90613224565b60405180910390fd5b80603460008573ffffffffffffffffffffffffffffffffffffffff1673ffffffffffffffffffffffffffffffffffffffff16815260200190815260200160002060008473ffffffffffffffffffffffffffffffffffffffff1673ffffffffffffffffffffffffffffffffffffffff168152602001908152602001600020819055508173ffffffffffffffffffffffffffffffffffffffff168373ffffffffffffffffffffffffffffffffffffffff167f8c5be1e5ebec7d5bd14f71427d1e84f3dd0314c0f7b2291e5b200ac8c7c3b92583604051611af1919061281a565b60405180910390a3505050565b60008060019054906101000a900460ff1615611b755760018260ff16148015611b2d5750611b2b3061226a565b155b611b6c576040517f08c379a0000000000000000000000000000000000000000000000000000000008152600401611b63906132b6565b60405180910390fd5b60009050611be9565b8160ff1660008054906101000a900460ff1660ff1610611bca576040517f08c379a0000000000000000000000000000000000000000000000000000000008152600401611bc1906132b6565b60405180910390fd5b816000806101000a81548160ff021916908360ff160217905550600190505b919050565b600060019054906101000a900460ff16611c3d576040517f08c379a0000000000000000000000000000000000000000000000000000000008152600401611c3490613348565b60405180910390fd5b611c4561228d565b565b600060019054906101000a900460ff16611c96576040517f08c379a0000000000000000000000000000000000000000000000000000000008152600401611c8d90613348565b60405180910390fd5b611ca082826122ee565b5050565b6000609860009054906101000a900473ffffffffffffffffffffffffffffffffffffffff1673ffffffffffffffffffffffffffffffffffffffff166370a08231306040518263ffffffff1660e01b8152600401611d019190612aed565b602060405180830381865afa158015611d1e573d6000803e3d6000fd5b505050506040513d601f19601f82011682018060405250810190611d429190613061565b905090565b600073ffffffffffffffffffffffffffffffffffffffff168273ffffffffffffffffffffffffffffffffffffffff1603611db6576040517f08c379a0000000000000000000000000000000000000000000000000000000008152600401611dad906133da565b60405180910390fd5b611dc282600083612361565b6000603360008473ffffffffffffffffffffffffffffffffffffffff1673ffffffffffffffffffffffffffffffffffffffff16815260200190815260200160002054905081811015611e49576040517f08c379a0000000000000000000000000000000000000000000000000000000008152600401611e409061346c565b60405180910390fd5b818103603360008573ffffffffffffffffffffffffffffffffffffffff1673ffffffffffffffffffffffffffffffffffffffff168152602001908152602001600020819055508160356000828254611ea19190612c81565b92505081905550600073ffffffffffffffffffffffffffffffffffffffff168373ffffffffffffffffffffffffffffffffffffffff167fddf252ad1be2c89b69c2b068fc378daa952ba7f163c4a11628f55a4df523b3ef84604051611f06919061281a565b60405180910390a3611f1a83600084612366565b505050565b611fa08363a9059cbb60e01b8484604051602401611f3e92919061348c565b604051602081830303815290604052907bffffffffffffffffffffffffffffffffffffffffffffffffffffffff19166020820180517bffffffffffffffffffffffffffffffffffffffffffffffffffffffff838183161783525050505061236b565b505050565b6000606560009054906101000a900473ffffffffffffffffffffffffffffffffffffffff16905081606560006101000a81548173ffffffffffffffffffffffffffffffffffffffff021916908373ffffffffffffffffffffffffffffffffffffffff1602179055508173ffffffffffffffffffffffffffffffffffffffff168173ffffffffffffffffffffffffffffffffffffffff167f8be0079c531659141344cd1fd0a4f28419497f9722a3daafe3b4186f6b6457e060405160405180910390a35050565b8082600101819055504282600201819055505050565b612104846323b872dd60e01b8585856040516024016120a2939291906134b5565b604051602081830303815290604052907bffffffffffffffffffffffffffffffffffffffffffffffffffffffff19166020820180517bffffffffffffffffffffffffffffffffffffffffffffffffffffffff838183161783525050505061236b565b50505050565b600073ffffffffffffffffffffffffffffffffffffffff168273ffffffffffffffffffffffffffffffffffffffff1603612179576040517f08c379a000000000000000000000000000000000000000000000000000000000815260040161217090613538565b60405180910390fd5b61218560008383612361565b80603560008282546121979190612c2b565b9250508190555080603360008473ffffffffffffffffffffffffffffffffffffffff1673ffffffffffffffffffffffffffffffffffffffff16815260200190815260200160002060008282546121ed9190612c2b565b925050819055508173ffffffffffffffffffffffffffffffffffffffff16600073ffffffffffffffffffffffffffffffffffffffff167fddf252ad1be2c89b69c2b068fc378daa952ba7f163c4a11628f55a4df523b3ef83604051612252919061281a565b60405180910390a361226660008383612366565b5050565b6000808273ffffffffffffffffffffffffffffffffffffffff163b119050919050565b600060019054906101000a900460ff166122dc576040517f08c379a00000000000000000000000000000000000000000000000000000000081526004016122d390613348565b60405180910390fd5b6122ec6122e761192d565b611fa5565b565b600060019054906101000a900460ff1661233d576040517f08c379a000000000000000000000000000000000000000000000000000000000815260040161233490613348565b60405180910390fd5b816036908161234c9190613729565b50806037908161235c9190613729565b505050565b505050565b505050565b60006123cd826040518060400160405280602081526020017f5361666545524332303a206c6f772d6c6576656c2063616c6c206661696c65648152508573ffffffffffffffffffffffffffffffffffffffff166124329092919063ffffffff16565b905060008151111561242d57808060200190518101906123ed9190613827565b61242c576040517f08c379a0000000000000000000000000000000000000000000000000000000008152600401612423906138c6565b60405180910390fd5b5b505050565b6060612441848460008561244a565b90509392505050565b60608247101561248f576040517f08c379a000000000000000000000000000000000000000000000000000000000815260040161248690613958565b60405180910390fd5b6124988561226a565b6124d7576040517f08c379a00000000000000000000000000000000000000000000000000000000081526004016124ce906139c4565b60405180910390fd5b6000808673ffffffffffffffffffffffffffffffffffffffff1685876040516125009190613a2b565b60006040518083038185875af1925050503d806000811461253d576040519150601f19603f3d011682016040523d82523d6000602084013e612542565b606091505b509150915061255282828661255e565b92505050949350505050565b6060831561256e578290506125be565b6000835111156125815782518084602001fd5b816040517f08c379a00000000000000000000000000000000000000000000000000000000081526004016125b59190612773565b60405180910390fd5b9392505050565b6040518060600160405280600073ffffffffffffffffffffffffffffffffffffffff16815260200160008152602001600081525090565b600080fd5b600080fd5b6000819050919050565b61261981612606565b811461262457600080fd5b50565b60008135905061263681612610565b92915050565b600073ffffffffffffffffffffffffffffffffffffffff82169050919050565b60006126678261263c565b9050919050565b6126778161265c565b811461268257600080fd5b50565b6000813590506126948161266e565b92915050565b600080604083850312156126b1576126b06125fc565b5b60006126bf85828601612627565b92505060206126d085828601612685565b9150509250929050565b600081519050919050565b600082825260208201905092915050565b60005b838110156127145780820151818401526020810190506126f9565b83811115612723576000848401525b50505050565b6000601f19601f8301169050919050565b6000612745826126da565b61274f81856126e5565b935061275f8185602086016126f6565b61276881612729565b840191505092915050565b6000602082019050818103600083015261278d818461273a565b905092915050565b600080604083850312156127ac576127ab6125fc565b5b60006127ba85828601612685565b92505060206127cb85828601612627565b9150509250929050565b60008115159050919050565b6127ea816127d5565b82525050565b600060208201905061280560008301846127e1565b92915050565b61281481612606565b82525050565b600060208201905061282f600083018461280b565b92915050565b60006128408261265c565b9050919050565b61285081612835565b811461285b57600080fd5b50565b60008135905061286d81612847565b92915050565b600080fd5b600080fd5b600080fd5b60008083601f84011261289857612897612873565b5b8235905067ffffffffffffffff8111156128b5576128b4612878565b5b6020830191508360018202830111156128d1576128d061287d565b5b9250929050565b600080600080600080608087890312156128f5576128f46125fc565b5b600061290389828a0161285e565b965050602061291489828a01612685565b955050604087013567ffffffffffffffff81111561293557612934612601565b5b61294189828a01612882565b9450945050606087013567ffffffffffffffff81111561296457612963612601565b5b61297089828a01612882565b92509250509295509295509295565b600080600060608486031215612998576129976125fc565b5b60006129a686828701612685565b93505060206129b786828701612685565b92505060406129c886828701612627565b9150509250925092565b6000602082840312156129e8576129e76125fc565b5b60006129f684828501612685565b91505092915050565b612a088161265c565b82525050565b612a1781612606565b82525050565b606082016000820151612a3360008501826129ff565b506020820151612a466020850182612a0e565b506040820151612a596040850182612a0e565b50505050565b6000606082019050612a746000830184612a1d565b92915050565b600060208284031215612a9057612a8f6125fc565b5b6000612a9e84828501612627565b91505092915050565b600060ff82169050919050565b612abd81612aa7565b82525050565b6000602082019050612ad86000830184612ab4565b92915050565b612ae78161265c565b82525050565b6000602082019050612b026000830184612ade565b92915050565b60008060408385031215612b1f57612b1e6125fc565b5b6000612b2d85828601612685565b9250506020612b3e85828601612685565b9150509250929050565b6000819050919050565b6000612b6d612b68612b638461263c565b612b48565b61263c565b9050919050565b6000612b7f82612b52565b9050919050565b6000612b9182612b74565b9050919050565b612ba181612b86565b82525050565b612bb081612606565b82525050565b612bbf8161265c565b82525050565b6000606082019050612bda6000830186612b98565b612be76020830185612ba7565b612bf46040830184612bb6565b949350505050565b7f4e487b7100000000000000000000000000000000000000000000000000000000600052601160045260246000fd5b6000612c3682612606565b9150612c4183612606565b9250827fffffffffffffffffffffffffffffffffffffffffffffffffffffffffffffffff03821115612c7657612c75612bfc565b5b828201905092915050565b6000612c8c82612606565b9150612c9783612606565b925082821015612caa57612ca9612bfc565b5b828203905092915050565b7f4e487b7100000000000000000000000000000000000000000000000000000000600052602260045260246000fd5b60006002820490506001821680612cfc57607f821691505b602082108103612d0f57612d0e612cb5565b5b50919050565b6000819050919050565b6000612d3a612d35612d3084612d15565b612b48565b612aa7565b9050919050565b612d4a81612d1f565b82525050565b6000602082019050612d656000830184612d41565b92915050565b7f5472616e736665722064697361626c6564000000000000000000000000000000600082015250565b6000612da16011836126e5565b9150612dac82612d6b565b602082019050919050565b60006020820190508181036000830152612dd081612d94565b9050919050565b6000604082019050612dec6000830185612b98565b612df96020830184612ba7565b9392505050565b6000612e0b82612606565b9150612e1683612606565b9250817fffffffffffffffffffffffffffffffffffffffffffffffffffffffffffffffff0483118215151615612e4f57612e4e612bfc565b5b828202905092915050565b7f4e487b7100000000000000000000000000000000000000000000000000000000600052601260045260246000fd5b6000612e9482612606565b9150612e9f83612606565b925082612eaf57612eae612e5a565b5b828204905092915050565b7f4f776e61626c653a2063616c6c6572206973206e6f7420746865206f776e6572600082015250565b6000612ef06020836126e5565b9150612efb82612eba565b602082019050919050565b60006020820190508181036000830152612f1f81612ee3565b9050919050565b7f45524332303a2064656372656173656420616c6c6f77616e63652062656c6f7760008201527f207a65726f000000000000000000000000000000000000000000000000000000602082015250565b6000612f826025836126e5565b9150612f8d82612f26565b604082019050919050565b60006020820190508181036000830152612fb181612f75565b9050919050565b6000604082019050612fcd6000830185612bb6565b612fda6020830184612ba7565b9392505050565b600081519050612ff08161266e565b92915050565b60006020828403121561300c5761300b6125fc565b5b600061301a84828501612fe1565b91505092915050565b60006040820190506130386000830185612ade565b6130456020830184612ade565b9392505050565b60008151905061305b81612610565b92915050565b600060208284031215613077576130766125fc565b5b60006130858482850161304c565b91505092915050565b7f4f776e61626c653a206e6577206f776e657220697320746865207a65726f206160008201527f6464726573730000000000000000000000000000000000000000000000000000602082015250565b60006130ea6026836126e5565b91506130f58261308e565b604082019050919050565b60006020820190508181036000830152613119816130dd565b9050919050565b7f45524332303a20617070726f76652066726f6d20746865207a65726f2061646460008201527f7265737300000000000000000000000000000000000000000000000000000000602082015250565b600061317c6024836126e5565b915061318782613120565b604082019050919050565b600060208201905081810360008301526131ab8161316f565b9050919050565b7f45524332303a20617070726f766520746f20746865207a65726f20616464726560008201527f7373000000000000000000000000000000000000000000000000000000000000602082015250565b600061320e6022836126e5565b9150613219826131b2565b604082019050919050565b6000602082019050818103600083015261323d81613201565b9050919050565b7f496e697469616c697a61626c653a20636f6e747261637420697320616c72656160008201527f647920696e697469616c697a6564000000000000000000000000000000000000602082015250565b60006132a0602e836126e5565b91506132ab82613244565b604082019050919050565b600060208201905081810360008301526132cf81613293565b9050919050565b7f496e697469616c697a61626c653a20636f6e7472616374206973206e6f74206960008201527f6e697469616c697a696e67000000000000000000000000000000000000000000602082015250565b6000613332602b836126e5565b915061333d826132d6565b604082019050919050565b6000602082019050818103600083015261336181613325565b9050919050565b7f45524332303a206275726e2066726f6d20746865207a65726f2061646472657360008201527f7300000000000000000000000000000000000000000000000000000000000000602082015250565b60006133c46021836126e5565b91506133cf82613368565b604082019050919050565b600060208201905081810360008301526133f3816133b7565b9050919050565b7f45524332303a206275726e20616d6f756e7420657863656564732062616c616e60008201527f6365000000000000000000000000000000000000000000000000000000000000602082015250565b60006134566022836126e5565b9150613461826133fa565b604082019050919050565b6000602082019050818103600083015261348581613449565b9050919050565b60006040820190506134a16000830185612ade565b6134ae602083018461280b565b9392505050565b60006060820190506134ca6000830186612ade565b6134d76020830185612ade565b6134e4604083018461280b565b949350505050565b7f45524332303a206d696e7420746f20746865207a65726f206164647265737300600082015250565b6000613522601f836126e5565b915061352d826134ec565b602082019050919050565b6000602082019050818103600083015261355181613515565b9050919050565b7f4e487b7100000000000000000000000000000000000000000000000000000000600052604160045260246000fd5b60008190508160005260206000209050919050565b60006020601f8301049050919050565b600082821b905092915050565b6000600883026135e97fffffffffffffffffffffffffffffffffffffffffffffffffffffffffffffffff826135ac565b6135f386836135ac565b95508019841693508086168417925050509392505050565b600061362661362161361c84612606565b612b48565b612606565b9050919050565b6000819050919050565b6136408361360b565b61365461364c8261362d565b8484546135b9565b825550505050565b600090565b61366961365c565b613674818484613637565b505050565b5b818110156136985761368d600082613661565b60018101905061367a565b5050565b601f8211156136dd576136ae81613587565b6136b78461359c565b810160208510156136c6578190505b6136da6136d28561359c565b830182613679565b50505b505050565b600082821c905092915050565b6000613700600019846008026136e2565b1980831691505092915050565b600061371983836136ef565b9150826002028217905092915050565b613732826126da565b67ffffffffffffffff81111561374b5761374a613558565b5b6137558254612ce4565b61376082828561369c565b600060209050601f8311600181146137935760008415613781578287015190505b61378b858261370d565b8655506137f3565b601f1984166137a186613587565b60005b828110156137c9578489015182556001820191506020850194506020810190506137a4565b868310156137e657848901516137e2601f8916826136ef565b8355505b6001600288020188555050505b505050505050565b613804816127d5565b811461380f57600080fd5b50565b600081519050613821816137fb565b92915050565b60006020828403121561383d5761383c6125fc565b5b600061384b84828501613812565b91505092915050565b7f5361666545524332303a204552433230206f7065726174696f6e20646964206e60008201527f6f74207375636365656400000000000000000000000000000000000000000000602082015250565b60006138b0602a836126e5565b91506138bb82613854565b604082019050919050565b600060208201905081810360008301526138df816138a3565b9050919050565b7f416464726573733a20696e73756666696369656e742062616c616e636520666f60008201527f722063616c6c0000000000000000000000000000000000000000000000000000602082015250565b60006139426026836126e5565b915061394d826138e6565b604082019050919050565b6000602082019050818103600083015261397181613935565b9050919050565b7f416464726573733a2063616c6c20746f206e6f6e2d636f6e7472616374000000600082015250565b60006139ae601d836126e5565b91506139b982613978565b602082019050919050565b600060208201905081810360008301526139dd816139a1565b9050919050565b600081519050919050565b600081905092915050565b6000613a05826139e4565b613a0f81856139ef565b9350613a1f8185602086016126f6565b80840191505092915050565b6000613a3782846139fa565b91508190509291505056fea2646970667358221220cb9effd5e2745cc823a47be8e2ea7bcce3d3ca66993b36e749fe4026ec8ba0c864736f6c634300080f0033",
  "linkReferences": {
    "contracts/libraries/logic/ValidationLogic.sol": {
      "ValidationLogic": [
        {
          "length": 20,
          "start": 1399
        },
        {
          "length": 20,
          "start": 2755
        },
        {
          "length": 20,
          "start": 3629
        },
        {
          "length": 20,
          "start": 4534
        }
      ]
    }
  },
  "deployedLinkReferences": {
    "contracts/libraries/logic/ValidationLogic.sol": {
      "ValidationLogic": [
        {
          "length": 20,
          "start": 1367
        },
        {
          "length": 20,
          "start": 2723
        },
        {
          "length": 20,
          "start": 3597
        },
        {
          "length": 20,
          "start": 4502
        }
      ]
    }
  }
}