{
  "_format": "hh-sol-artifact-1",
  "contractName": "NativeTokenVault",
  "sourceName": "contracts/protocol/NativeTokenVault.sol",
  "abi": [
    {
      "anonymous": false,
      "inputs": [
        {
          "indexed": true,
          "internalType": "address",
          "name": "owner",
          "type": "address"
        },
        {
          "indexed": true,
          "internalType": "address",
          "name": "spender",
          "type": "address"
        },
        {
          "indexed": false,
          "internalType": "uint256",
          "name": "value",
          "type": "uint256"
        }
      ],
      "name": "Approval",
      "type": "event"
    },
    {
      "anonymous": false,
      "inputs": [
        {
          "indexed": true,
          "internalType": "address",
          "name": "sender",
          "type": "address"
        },
        {
          "indexed": true,
          "internalType": "address",
          "name": "owner",
          "type": "address"
        },
        {
          "indexed": false,
          "internalType": "uint256",
          "name": "assets",
          "type": "uint256"
        },
        {
          "indexed": false,
          "internalType": "uint256",
          "name": "shares",
          "type": "uint256"
        }
      ],
      "name": "Deposit",
      "type": "event"
    },
    {
      "anonymous": false,
      "inputs": [
        {
          "indexed": false,
          "internalType": "uint256",
          "name": "amount",
          "type": "uint256"
        }
      ],
      "name": "DistributeRewards",
      "type": "event"
    },
    {
      "anonymous": false,
      "inputs": [
        {
          "indexed": false,
          "internalType": "uint8",
          "name": "version",
          "type": "uint8"
        }
      ],
      "name": "Initialized",
      "type": "event"
    },
    {
      "anonymous": false,
      "inputs": [
        {
          "indexed": true,
          "internalType": "address",
          "name": "previousOwner",
          "type": "address"
        },
        {
          "indexed": true,
          "internalType": "address",
          "name": "newOwner",
          "type": "address"
        }
      ],
      "name": "OwnershipTransferred",
      "type": "event"
    },
    {
      "anonymous": false,
      "inputs": [
        {
          "indexed": true,
          "internalType": "address",
          "name": "user",
          "type": "address"
        },
        {
          "indexed": true,
          "internalType": "address",
          "name": "collection",
          "type": "address"
        },
        {
          "indexed": false,
          "internalType": "uint256",
          "name": "amount",
          "type": "uint256"
        }
      ],
      "name": "RemoveVote",
      "type": "event"
    },
    {
      "anonymous": false,
      "inputs": [
        {
          "indexed": true,
          "internalType": "address",
          "name": "from",
          "type": "address"
        },
        {
          "indexed": true,
          "internalType": "address",
          "name": "to",
          "type": "address"
        },
        {
          "indexed": false,
          "internalType": "uint256",
          "name": "value",
          "type": "uint256"
        }
      ],
      "name": "Transfer",
      "type": "event"
    },
    {
      "anonymous": false,
      "inputs": [
        {
          "indexed": true,
          "internalType": "address",
          "name": "user",
          "type": "address"
        },
        {
          "indexed": true,
          "internalType": "address",
          "name": "collection",
          "type": "address"
        },
        {
          "indexed": false,
          "internalType": "uint256",
          "name": "amount",
          "type": "uint256"
        }
      ],
      "name": "Vote",
      "type": "event"
    },
    {
      "anonymous": false,
      "inputs": [
        {
          "indexed": true,
          "internalType": "address",
          "name": "sender",
          "type": "address"
        },
        {
          "indexed": true,
          "internalType": "address",
          "name": "receiver",
          "type": "address"
        },
        {
          "indexed": true,
          "internalType": "address",
          "name": "owner",
          "type": "address"
        },
        {
          "indexed": false,
          "internalType": "uint256",
          "name": "assets",
          "type": "uint256"
        },
        {
          "indexed": false,
          "internalType": "uint256",
          "name": "shares",
          "type": "uint256"
        }
      ],
      "name": "Withdraw",
      "type": "event"
    },
    {
      "inputs": [
        {
          "internalType": "address",
          "name": "owner",
          "type": "address"
        },
        {
          "internalType": "address",
          "name": "spender",
          "type": "address"
        }
      ],
      "name": "allowance",
      "outputs": [
        {
          "internalType": "uint256",
          "name": "",
          "type": "uint256"
        }
      ],
      "stateMutability": "view",
      "type": "function"
    },
    {
      "inputs": [
        {
          "internalType": "address",
          "name": "spender",
          "type": "address"
        },
        {
          "internalType": "uint256",
          "name": "amount",
          "type": "uint256"
        }
      ],
      "name": "approve",
      "outputs": [
        {
          "internalType": "bool",
          "name": "",
          "type": "bool"
        }
      ],
      "stateMutability": "nonpayable",
      "type": "function"
    },
    {
      "inputs": [],
      "name": "asset",
      "outputs": [
        {
          "internalType": "address",
          "name": "",
          "type": "address"
        }
      ],
      "stateMutability": "view",
      "type": "function"
    },
    {
      "inputs": [
        {
          "internalType": "address",
          "name": "account",
          "type": "address"
        }
      ],
      "name": "balanceOf",
      "outputs": [
        {
          "internalType": "uint256",
          "name": "",
          "type": "uint256"
        }
      ],
      "stateMutability": "view",
      "type": "function"
    },
    {
      "inputs": [
        {
          "internalType": "address",
          "name": "user",
          "type": "address"
        },
        {
          "internalType": "address",
          "name": "collection",
          "type": "address"
        },
        {
          "internalType": "uint256",
          "name": "votes",
          "type": "uint256"
        }
      ],
      "name": "calculateLTVBoost",
      "outputs": [
        {
          "internalType": "uint256",
          "name": "",
          "type": "uint256"
        }
      ],
      "stateMutability": "view",
      "type": "function"
    },
    {
      "inputs": [
        {
          "internalType": "uint256",
          "name": "shares",
          "type": "uint256"
        }
      ],
      "name": "convertToAssets",
      "outputs": [
        {
          "internalType": "uint256",
          "name": "assets",
          "type": "uint256"
        }
      ],
      "stateMutability": "view",
      "type": "function"
    },
    {
      "inputs": [
        {
          "internalType": "uint256",
          "name": "assets",
          "type": "uint256"
        }
      ],
      "name": "convertToShares",
      "outputs": [
        {
          "internalType": "uint256",
          "name": "shares",
          "type": "uint256"
        }
      ],
      "stateMutability": "view",
      "type": "function"
    },
    {
      "inputs": [],
      "name": "createWithdrawalRequest",
      "outputs": [],
      "stateMutability": "nonpayable",
      "type": "function"
    },
    {
      "inputs": [],
      "name": "decimals",
      "outputs": [
        {
          "internalType": "uint8",
          "name": "",
          "type": "uint8"
        }
      ],
      "stateMutability": "view",
      "type": "function"
    },
    {
      "inputs": [
        {
          "internalType": "address",
          "name": "spender",
          "type": "address"
        },
        {
          "internalType": "uint256",
          "name": "subtractedValue",
          "type": "uint256"
        }
      ],
      "name": "decreaseAllowance",
      "outputs": [
        {
          "internalType": "bool",
          "name": "",
          "type": "bool"
        }
      ],
      "stateMutability": "nonpayable",
      "type": "function"
    },
    {
      "inputs": [
        {
          "internalType": "uint256",
          "name": "assets",
          "type": "uint256"
        },
        {
          "internalType": "address",
          "name": "receiver",
          "type": "address"
        }
      ],
      "name": "deposit",
      "outputs": [
        {
          "internalType": "uint256",
          "name": "",
          "type": "uint256"
        }
      ],
      "stateMutability": "nonpayable",
      "type": "function"
    },
    {
      "inputs": [],
      "name": "distributeStakingRewards",
      "outputs": [],
      "stateMutability": "nonpayable",
      "type": "function"
    },
    {
      "inputs": [],
      "name": "getBoostFactor",
      "outputs": [
        {
          "internalType": "uint256",
          "name": "",
          "type": "uint256"
        }
      ],
      "stateMutability": "view",
      "type": "function"
    },
    {
      "inputs": [],
      "name": "getBoostLimit",
      "outputs": [
        {
          "internalType": "uint256",
          "name": "",
          "type": "uint256"
        }
      ],
      "stateMutability": "view",
      "type": "function"
    },
    {
      "inputs": [
        {
          "internalType": "address",
          "name": "user",
          "type": "address"
        },
        {
          "internalType": "address",
          "name": "collection",
          "type": "address"
        }
      ],
      "name": "getLTVBoost",
      "outputs": [
        {
          "internalType": "uint256",
          "name": "",
          "type": "uint256"
        }
      ],
      "stateMutability": "view",
      "type": "function"
    },
    {
      "inputs": [
        {
          "internalType": "address",
          "name": "reserve",
          "type": "address"
        },
        {
          "internalType": "uint256",
          "name": "reserveTokenPrice",
          "type": "uint256"
        },
        {
          "internalType": "uint256",
          "name": "assetPrice",
          "type": "uint256"
        },
        {
          "internalType": "uint256",
          "name": "liquidationPrice",
          "type": "uint256"
        }
      ],
      "name": "getLiquidationReward",
      "outputs": [
        {
          "internalType": "uint256",
          "name": "",
          "type": "uint256"
        }
      ],
      "stateMutability": "view",
      "type": "function"
    },
    {
      "inputs": [],
      "name": "getLiquidationRewardFactor",
      "outputs": [
        {
          "internalType": "uint256",
          "name": "",
          "type": "uint256"
        }
      ],
      "stateMutability": "view",
      "type": "function"
    },
    {
      "inputs": [],
      "name": "getLiquidationRewardPriceLimit",
      "outputs": [
        {
          "internalType": "uint256",
          "name": "",
          "type": "uint256"
        }
      ],
      "stateMutability": "view",
      "type": "function"
    },
    {
      "inputs": [],
      "name": "getLiquidationRewardPriceThreshold",
      "outputs": [
        {
          "internalType": "uint256",
          "name": "",
          "type": "uint256"
        }
      ],
      "stateMutability": "view",
      "type": "function"
    },
    {
      "inputs": [],
      "name": "getMaxLiquidationReward",
      "outputs": [
        {
          "internalType": "uint256",
          "name": "",
          "type": "uint256"
        }
      ],
      "stateMutability": "view",
      "type": "function"
    },
    {
      "inputs": [],
      "name": "getStakingMaxPeriods",
      "outputs": [
        {
          "internalType": "uint256",
          "name": "",
          "type": "uint256"
        }
      ],
      "stateMutability": "view",
      "type": "function"
    },
    {
      "inputs": [],
      "name": "getStakingRewards",
      "outputs": [
        {
          "internalType": "uint256",
          "name": "",
          "type": "uint256"
        }
      ],
      "stateMutability": "view",
      "type": "function"
    },
    {
      "inputs": [],
      "name": "getStakingRewardsFactor",
      "outputs": [
        {
          "internalType": "uint256",
          "name": "",
          "type": "uint256"
        }
      ],
      "stateMutability": "view",
      "type": "function"
    },
    {
      "inputs": [],
      "name": "getStakingRewardsPeriod",
      "outputs": [
        {
          "internalType": "uint256",
          "name": "",
          "type": "uint256"
        }
      ],
      "stateMutability": "view",
      "type": "function"
    },
    {
      "inputs": [
        {
          "internalType": "address",
          "name": "user",
          "type": "address"
        },
        {
          "internalType": "address",
          "name": "collection",
          "type": "address"
        }
      ],
      "name": "getUserCollectionVotes",
      "outputs": [
        {
          "internalType": "uint256",
          "name": "",
          "type": "uint256"
        }
      ],
      "stateMutability": "view",
      "type": "function"
    },
    {
      "inputs": [
        {
          "internalType": "address",
          "name": "user",
          "type": "address"
        }
      ],
      "name": "getUserFreeVotes",
      "outputs": [
        {
          "internalType": "uint256",
          "name": "",
          "type": "uint256"
        }
      ],
      "stateMutability": "view",
      "type": "function"
    },
    {
      "inputs": [],
      "name": "getWithdrawalActivePeriod",
      "outputs": [
        {
          "internalType": "uint256",
          "name": "",
          "type": "uint256"
        }
      ],
      "stateMutability": "view",
      "type": "function"
    },
    {
      "inputs": [],
      "name": "getWithdrawalCoolingPeriod",
      "outputs": [
        {
          "internalType": "uint256",
          "name": "",
          "type": "uint256"
        }
      ],
      "stateMutability": "view",
      "type": "function"
    },
    {
      "inputs": [
        {
          "internalType": "address",
          "name": "user",
          "type": "address"
        }
      ],
      "name": "getWithdrawalRequest",
      "outputs": [
        {
          "components": [
            {
              "internalType": "bool",
              "name": "created",
              "type": "bool"
            },
            {
              "internalType": "uint256",
              "name": "amount",
              "type": "uint256"
            },
            {
              "internalType": "uint256",
              "name": "timestamp",
              "type": "uint256"
            }
          ],
          "internalType": "struct DataTypes.WithdrawalRequest",
          "name": "",
          "type": "tuple"
        }
      ],
      "stateMutability": "view",
      "type": "function"
    },
    {
      "inputs": [
        {
          "internalType": "address",
          "name": "spender",
          "type": "address"
        },
        {
          "internalType": "uint256",
          "name": "addedValue",
          "type": "uint256"
        }
      ],
      "name": "increaseAllowance",
      "outputs": [
        {
          "internalType": "bool",
          "name": "",
          "type": "bool"
        }
      ],
      "stateMutability": "nonpayable",
      "type": "function"
    },
    {
      "inputs": [
        {
          "internalType": "contract IAddressesProvider",
          "name": "addressProvider",
          "type": "address"
        },
        {
          "internalType": "string",
          "name": "name",
          "type": "string"
        },
        {
          "internalType": "string",
          "name": "symbol",
          "type": "string"
        },
        {
          "internalType": "contract IERC20Upgradeable",
          "name": "asset",
          "type": "address"
        },
        {
          "components": [
            {
              "internalType": "uint256",
              "name": "factor",
              "type": "uint256"
            },
            {
              "internalType": "uint256",
              "name": "maxReward",
              "type": "uint256"
            },
            {
              "internalType": "uint256",
              "name": "priceThreshold",
              "type": "uint256"
            },
            {
              "internalType": "uint256",
              "name": "priceLimit",
              "type": "uint256"
            }
          ],
          "internalType": "struct ConfigTypes.LiquidationRewardConfig",
          "name": "liquidatonRewardsConfig",
          "type": "tuple"
        },
        {
          "components": [
            {
              "internalType": "uint256",
              "name": "factor",
              "type": "uint256"
            },
            {
              "internalType": "uint256",
              "name": "limit",
              "type": "uint256"
            }
          ],
          "internalType": "struct ConfigTypes.BoostConfig",
          "name": "boostConfig",
          "type": "tuple"
        },
        {
          "components": [
            {
              "internalType": "uint256",
              "name": "factor",
              "type": "uint256"
            },
            {
              "internalType": "uint256",
              "name": "period",
              "type": "uint256"
            },
            {
              "internalType": "uint256",
              "name": "maxPeriods",
              "type": "uint256"
            }
          ],
          "internalType": "struct ConfigTypes.StakingRewardConfig",
          "name": "stakingRewardsConfig",
          "type": "tuple"
        },
        {
          "components": [
            {
              "internalType": "uint256",
              "name": "coolingPeriod",
              "type": "uint256"
            },
            {
              "internalType": "uint256",
              "name": "activePeriod",
              "type": "uint256"
            }
          ],
          "internalType": "struct ConfigTypes.NativeTokenWithdrawalConfig",
          "name": "nativeTokenWithdrawalConfig",
          "type": "tuple"
        }
      ],
      "name": "initialize",
      "outputs": [],
      "stateMutability": "nonpayable",
      "type": "function"
    },
    {
      "inputs": [
        {
          "internalType": "address",
          "name": "reserve",
          "type": "address"
        }
      ],
      "name": "isReserveIncentivized",
      "outputs": [
        {
          "internalType": "bool",
          "name": "",
          "type": "bool"
        }
      ],
      "stateMutability": "view",
      "type": "function"
    },
    {
      "inputs": [
        {
          "internalType": "address",
          "name": "",
          "type": "address"
        }
      ],
      "name": "maxDeposit",
      "outputs": [
        {
          "internalType": "uint256",
          "name": "",
          "type": "uint256"
        }
      ],
      "stateMutability": "view",
      "type": "function"
    },
    {
      "inputs": [
        {
          "internalType": "address",
          "name": "",
          "type": "address"
        }
      ],
      "name": "maxMint",
      "outputs": [
        {
          "internalType": "uint256",
          "name": "",
          "type": "uint256"
        }
      ],
      "stateMutability": "view",
      "type": "function"
    },
    {
      "inputs": [
        {
          "internalType": "address",
          "name": "owner",
          "type": "address"
        }
      ],
      "name": "maxRedeem",
      "outputs": [
        {
          "internalType": "uint256",
          "name": "",
          "type": "uint256"
        }
      ],
      "stateMutability": "view",
      "type": "function"
    },
    {
      "inputs": [
        {
          "internalType": "address",
          "name": "owner",
          "type": "address"
        }
      ],
      "name": "maxWithdraw",
      "outputs": [
        {
          "internalType": "uint256",
          "name": "",
          "type": "uint256"
        }
      ],
      "stateMutability": "view",
      "type": "function"
    },
    {
      "inputs": [
        {
          "internalType": "uint256",
          "name": "shares",
          "type": "uint256"
        },
        {
          "internalType": "address",
          "name": "receiver",
          "type": "address"
        }
      ],
      "name": "mint",
      "outputs": [
        {
          "internalType": "uint256",
          "name": "",
          "type": "uint256"
        }
      ],
      "stateMutability": "nonpayable",
      "type": "function"
    },
    {
      "inputs": [],
      "name": "name",
      "outputs": [
        {
          "internalType": "string",
          "name": "",
          "type": "string"
        }
      ],
      "stateMutability": "view",
      "type": "function"
    },
    {
      "inputs": [],
      "name": "owner",
      "outputs": [
        {
          "internalType": "address",
          "name": "",
          "type": "address"
        }
      ],
      "stateMutability": "view",
      "type": "function"
    },
    {
      "inputs": [
        {
          "internalType": "uint256",
          "name": "assets",
          "type": "uint256"
        }
      ],
      "name": "previewDeposit",
      "outputs": [
        {
          "internalType": "uint256",
          "name": "",
          "type": "uint256"
        }
      ],
      "stateMutability": "view",
      "type": "function"
    },
    {
      "inputs": [
        {
          "internalType": "uint256",
          "name": "shares",
          "type": "uint256"
        }
      ],
      "name": "previewMint",
      "outputs": [
        {
          "internalType": "uint256",
          "name": "",
          "type": "uint256"
        }
      ],
      "stateMutability": "view",
      "type": "function"
    },
    {
      "inputs": [
        {
          "internalType": "uint256",
          "name": "shares",
          "type": "uint256"
        }
      ],
      "name": "previewRedeem",
      "outputs": [
        {
          "internalType": "uint256",
          "name": "",
          "type": "uint256"
        }
      ],
      "stateMutability": "view",
      "type": "function"
    },
    {
      "inputs": [
        {
          "internalType": "uint256",
          "name": "assets",
          "type": "uint256"
        }
      ],
      "name": "previewWithdraw",
      "outputs": [
        {
          "internalType": "uint256",
          "name": "",
          "type": "uint256"
        }
      ],
      "stateMutability": "view",
      "type": "function"
    },
    {
      "inputs": [
        {
          "internalType": "uint256",
          "name": "shares",
          "type": "uint256"
        },
        {
          "internalType": "address",
          "name": "receiver",
          "type": "address"
        },
        {
          "internalType": "address",
          "name": "owner",
          "type": "address"
        }
      ],
      "name": "redeem",
      "outputs": [
        {
          "internalType": "uint256",
          "name": "",
          "type": "uint256"
        }
      ],
      "stateMutability": "nonpayable",
      "type": "function"
    },
    {
      "inputs": [
        {
          "internalType": "uint256",
          "name": "votes",
          "type": "uint256"
        },
        {
          "internalType": "address",
          "name": "collection",
          "type": "address"
        }
      ],
      "name": "removeVote",
      "outputs": [],
      "stateMutability": "nonpayable",
      "type": "function"
    },
    {
      "inputs": [],
      "name": "renounceOwnership",
      "outputs": [],
      "stateMutability": "nonpayable",
      "type": "function"
    },
    {
      "inputs": [
        {
          "internalType": "address",
          "name": "liquidator",
          "type": "address"
        },
        {
          "internalType": "uint256",
          "name": "amount",
          "type": "uint256"
        }
      ],
      "name": "sendLiquidationReward",
      "outputs": [],
      "stateMutability": "nonpayable",
      "type": "function"
    },
    {
      "inputs": [
        {
          "internalType": "uint256",
          "name": "boostFactor",
          "type": "uint256"
        }
      ],
      "name": "setBoostFactor",
      "outputs": [],
      "stateMutability": "nonpayable",
      "type": "function"
    },
    {
      "inputs": [
        {
          "internalType": "uint256",
          "name": "boostLimit",
          "type": "uint256"
        }
      ],
      "name": "setBoostLimit",
      "outputs": [],
      "stateMutability": "nonpayable",
      "type": "function"
    },
    {
      "inputs": [
        {
          "internalType": "uint256",
          "name": "liquidationRewardFactor",
          "type": "uint256"
        }
      ],
      "name": "setLiquidationRewardFactor",
      "outputs": [],
      "stateMutability": "nonpayable",
      "type": "function"
    },
    {
      "inputs": [
        {
          "internalType": "uint256",
          "name": "liquidationRewardPriceLimit",
          "type": "uint256"
        }
      ],
      "name": "setLiquidationRewardPriceLimit",
      "outputs": [],
      "stateMutability": "nonpayable",
      "type": "function"
    },
    {
      "inputs": [
        {
          "internalType": "uint256",
          "name": "liquidationRewardPriceThreshold",
          "type": "uint256"
        }
      ],
      "name": "setLiquidationRewardPriceThreshold",
      "outputs": [],
      "stateMutability": "nonpayable",
      "type": "function"
    },
    {
      "inputs": [
        {
          "internalType": "uint256",
          "name": "maxLiquidationReward",
          "type": "uint256"
        }
      ],
      "name": "setMaxLiquidationReward",
      "outputs": [],
      "stateMutability": "nonpayable",
      "type": "function"
    },
    {
      "inputs": [
        {
          "internalType": "address",
          "name": "reserve",
          "type": "address"
        },
        {
          "internalType": "bool",
          "name": "mode",
          "type": "bool"
        }
      ],
      "name": "setReserveIncentives",
      "outputs": [],
      "stateMutability": "nonpayable",
      "type": "function"
    },
    {
      "inputs": [
        {
          "internalType": "uint256",
          "name": "maxPeriods",
          "type": "uint256"
        }
      ],
      "name": "setStakingMaxPeriods",
      "outputs": [],
      "stateMutability": "nonpayable",
      "type": "function"
    },
    {
      "inputs": [
        {
          "internalType": "uint256",
          "name": "rewardsFactor",
          "type": "uint256"
        }
      ],
      "name": "setStakingRewardsFactor",
      "outputs": [],
      "stateMutability": "nonpayable",
      "type": "function"
    },
    {
      "inputs": [
        {
          "internalType": "uint256",
          "name": "rewardsPeriod",
          "type": "uint256"
        }
      ],
      "name": "setStakingRewardsPeriod",
      "outputs": [],
      "stateMutability": "nonpayable",
      "type": "function"
    },
    {
      "inputs": [
        {
          "internalType": "uint256",
          "name": "activePeriod",
          "type": "uint256"
        }
      ],
      "name": "setWithdrawalActivePeriod",
      "outputs": [],
      "stateMutability": "nonpayable",
      "type": "function"
    },
    {
      "inputs": [
        {
          "internalType": "uint256",
          "name": "coolingPeriod",
          "type": "uint256"
        }
      ],
      "name": "setWithdrawalCoolingPeriod",
      "outputs": [],
      "stateMutability": "nonpayable",
      "type": "function"
    },
    {
      "inputs": [],
      "name": "symbol",
      "outputs": [
        {
          "internalType": "string",
          "name": "",
          "type": "string"
        }
      ],
      "stateMutability": "view",
      "type": "function"
    },
    {
      "inputs": [],
      "name": "totalAssets",
      "outputs": [
        {
          "internalType": "uint256",
          "name": "",
          "type": "uint256"
        }
      ],
      "stateMutability": "view",
      "type": "function"
    },
    {
      "inputs": [],
      "name": "totalSupply",
      "outputs": [
        {
          "internalType": "uint256",
          "name": "",
          "type": "uint256"
        }
      ],
      "stateMutability": "view",
      "type": "function"
    },
    {
      "inputs": [
        {
          "internalType": "address",
          "name": "",
          "type": "address"
        },
        {
          "internalType": "uint256",
          "name": "",
          "type": "uint256"
        }
      ],
      "name": "transfer",
      "outputs": [
        {
          "internalType": "bool",
          "name": "",
          "type": "bool"
        }
      ],
      "stateMutability": "pure",
      "type": "function"
    },
    {
      "inputs": [
        {
          "internalType": "address",
          "name": "",
          "type": "address"
        },
        {
          "internalType": "address",
          "name": "",
          "type": "address"
        },
        {
          "internalType": "uint256",
          "name": "",
          "type": "uint256"
        }
      ],
      "name": "transferFrom",
      "outputs": [
        {
          "internalType": "bool",
          "name": "",
          "type": "bool"
        }
      ],
      "stateMutability": "pure",
      "type": "function"
    },
    {
      "inputs": [
        {
          "internalType": "address",
          "name": "newOwner",
          "type": "address"
        }
      ],
      "name": "transferOwnership",
      "outputs": [],
      "stateMutability": "nonpayable",
      "type": "function"
    },
    {
      "inputs": [
        {
          "internalType": "uint256",
          "name": "votes",
          "type": "uint256"
        },
        {
          "internalType": "address",
          "name": "collection",
          "type": "address"
        }
      ],
      "name": "vote",
      "outputs": [],
      "stateMutability": "nonpayable",
      "type": "function"
    },
    {
      "inputs": [
        {
          "internalType": "uint256",
          "name": "assets",
          "type": "uint256"
        },
        {
          "internalType": "address",
          "name": "receiver",
          "type": "address"
        },
        {
          "internalType": "address",
          "name": "owner",
          "type": "address"
        }
      ],
      "name": "withdraw",
      "outputs": [
        {
          "internalType": "uint256",
          "name": "",
          "type": "uint256"
        }
      ],
      "stateMutability": "nonpayable",
      "type": "function"
    }
  ],
  "bytecode": "0x608060405234801561001057600080fd5b50613636806100206000396000f3fe608060405234801561001057600080fd5b50600436106103f15760003560e01c80637cbcd57111610215578063b460af9411610125578063ca286e92116100b8578063d905777e11610087578063d905777e14610885578063dd62ed3e14610898578063ec9fedb4146108ab578063ef8b30f71461081d578063f2fde38b146108b457600080fd5b8063ca286e9214610843578063cae9c6ef14610856578063ce96cb7714610869578063d6847cd81461087c57600080fd5b8063c4d31a6d116100f4578063c4d31a6d14610800578063c63d75b614610808578063c6e6f5921461081d578063c8435ea01461083057600080fd5b8063b460af9414610797578063ba087652146107aa578063baf03a2b146107bd578063bc76ee0d146107f757600080fd5b806394bf804d116101a85780639b0d1b96116101775780639b0d1b961461073d578063a457c2d714610750578063a7e0698514610763578063a9059cbb14610776578063b3d7f6b91461078457600080fd5b806394bf804d1461070757806395d89b411461071a578063986768b2146107225780639a3418d51461072a57600080fd5b806388b151b6116101e457806388b151b6146106a35780638c661b5d146106ac5780638da5cb5b146106e357806391f5bbed146106f457600080fd5b80637cbcd5711461066c5780637f26fbbf1461067f57806383162aa814610687578063864cf9df1461069057600080fd5b806338d52e0f116103105780634cdad506116102a35780636b1f92de116102725780636b1f92de1461060d5780636e553f651461062057806370a0823114610633578063715018a61461065c5780637649c0e81461066457600080fd5b80634cdad5061461044e57806350ae389a146105d457806359b8bc56146105e757806368d1b602146105fa57600080fd5b8063402d267d116102df578063402d267d1461056e57806341f99b6914610581578063453cd60e146105945780634bdbe911146105c157600080fd5b806338d52e0f1461051a578063395093511461053f5780633da3b20e146105525780633f51781b1461055b57600080fd5b806318160ddd1161038857806326cfc0221161035757806326cfc022146104d6578063313ce567146104e957806337d2af481461050857806337db05021461051157600080fd5b806318160ddd146104aa57806320b9c163146104b257806323b872dd146104bb57806323ca0eb0146104ce57600080fd5b806307a2d13a116103c457806307a2d13a1461044e578063095ea7b3146104615780630a1535d5146104845780630a28a4771461049757600080fd5b806301e1d114146103f65780630247a6971461041157806302d947ef1461042657806306fdde0314610439575b600080fd5b6103fe6108c7565b6040519081526020015b60405180910390f35b61042461041f366004612e94565b610939565b005b610424610434366004612ec0565b610aa5565b610441610c25565b6040516104089190612f40565b6103fe61045c366004612f53565b610cb7565b61047461046f366004612e94565b610cca565b6040519015158152602001610408565b610424610492366004612f53565b610ce2565b6103fe6104a5366004612f53565b610cf0565b6035546103fe565b610108546103fe565b6104746104c9366004612f6c565b610cfd565b610424610d3c565b6104246104e4366004612f53565b610f47565b606554600160a01b900460ff1660405160ff9091168152602001610408565b610106546103fe565b610101546103fe565b6065546001600160a01b03165b6040516001600160a01b039091168152602001610408565b61047461054d366004612e94565b610f55565b610104546103fe565b610424610569366004612f53565b610f77565b6103fe61057c366004612fad565b610f85565b61042461058f366004612f53565b610fa3565b6104746105a2366004612fad565b6001600160a01b0316600090815261010d602052604090205460ff1690565b6104246105cf36600461303d565b610fb1565b6104246105e2366004612f53565b6111b8565b6104246105f5366004612f53565b6111c6565b610424610608366004612f53565b6111d3565b6103fe61061b366004612f6c565b6111e1565b6103fe61062e366004612ec0565b6111f8565b6103fe610641366004612fad565b6001600160a01b031660009081526033602052604090205490565b61042461126b565b61042461127d565b61042461067a366004612ec0565b611325565b60ff546103fe565b610102546103fe565b61042461069e366004612f53565b61149f565b610100546103fe565b6106bf6106ba366004612fad565b6114ad565b60408051825115158152602080840151908201529181015190820152606001610408565b6097546001600160a01b0316610527565b6103fe610702366004613127565b61151b565b6103fe610715366004612ec0565b611913565b61044161192d565b6103fe61193c565b610424610738366004612f53565b6119c3565b6103fe61074b366004612fad565b6119d0565b61047461075e366004612e94565b6119fd565b610424610771366004613170565b611a83565b6104746104c9366004612e94565b6103fe610792366004612f53565b611ab7565b6103fe6107a536600461319e565b611ac4565b6103fe6107b836600461319e565b611b38565b6103fe6107cb3660046131e0565b6001600160a01b0391821660009081526101096020908152604080832093909416825291909152205490565b610103546103fe565b60fe546103fe565b6103fe610816366004612fad565b5060001990565b6103fe61082b366004612f53565b611bac565b61042461083e366004612f53565b611bb9565b610424610851366004612f53565b611bc7565b6103fe6108643660046131e0565b611bd5565b6103fe610877366004612fad565b611bfc565b610107546103fe565b6103fe610893366004612fad565b611c20565b6103fe6108a63660046131e0565b611c3e565b610105546103fe565b6104246108c2366004612fad565b611c69565b6065546040516370a0823160e01b81523060048201526000916001600160a01b0316906370a0823190602401602060405180830381865afa158015610910573d6000803e3d6000fd5b505050506040513d601f19601f82011682018060405250810190610934919061320e565b905090565b60fb60009054906101000a90046001600160a01b03166001600160a01b031663f1be16796040518163ffffffff1660e01b8152600401602060405180830381865afa15801561098c573d6000803e3d6000fd5b505050506040513d601f19601f820116820180604052508101906109b09190613227565b6001600160a01b0316336001600160a01b031614610a155760405162461bcd60e51b815260206004820152601e60248201527f43616c6c6572206d757374206265204d61726b657420636f6e7472616374000060448201526064015b60405180910390fd5b610aa1828260fb60009054906101000a90046001600160a01b03166001600160a01b03166315b9ba5d6040518163ffffffff1660e01b8152600401602060405180830381865afa158015610a6d573d6000803e3d6000fd5b505050506040513d601f19601f82011682018060405250810190610a919190613227565b6001600160a01b03169190611ce2565b5050565b610aad611d4a565b60fb54604051636cd5783960e11b81526001600160a01b0390911660048201526024810183905273__$5201a97c05ba6aa659e2f36a933dd51801$__9063d9aaf0729060440160006040518083038186803b158015610b0b57600080fd5b505af4158015610b1f573d6000803e3d6000fd5b50505050816101096000610b303390565b6001600160a01b03166001600160a01b031681526020019081526020016000206000836001600160a01b03166001600160a01b031681526020019081526020016000206000828254610b82919061325a565b90915550506001600160a01b038116600090815261010b602052604081208054849290610bb090849061325a565b909155505033600090815261010a602052604081208054849290610bd590849061325a565b90915550506040518281526001600160a01b0382169033907f66a9138482c99e9baf08860110ef332cc0c23b4a199a53593d8db0fc8f96fbfc906020015b60405180910390a3610aa1600160c955565b606060368054610c349061326d565b80601f0160208091040260200160405190810160405280929190818152602001828054610c609061326d565b8015610cad5780601f10610c8257610100808354040283529160200191610cad565b820191906000526020600020905b815481529060010190602001808311610c9057829003601f168201915b5050505050905090565b6000610cc4826000611da3565b92915050565b600033610cd8818585611dd6565b5060019392505050565b610cea611efa565b61010455565b6000610cc4826001611f54565b60405162461bcd60e51b8152602060048201526011602482015270151c985b9cd9995c88191a5cd8589b1959607a1b6044820152600090606401610a0c565b610d44611d4a565b6101055460fd544291610d569161325a565b10610dbc5760405162461bcd60e51b815260206004820152603060248201527f4e6f7420656e6f7567682074696d652073696e6365206c61737420726577617260448201526f3239903234b9ba3934b13aba34b7b71760811b6064820152608401610a0c565b60fc54610dc990426132a1565b6101055461010654610ddb91906132b4565b11610e215760405162461bcd60e51b81526020600482015260166024820152752932bbb0b93239903832b934b7b21034b99037bb32b960511b6044820152606401610a0c565b6000610e2b61193c565b905060fb60009054906101000a90046001600160a01b03166001600160a01b03166315b9ba5d6040518163ffffffff1660e01b8152600401602060405180830381865afa158015610e80573d6000803e3d6000fd5b505050506040513d601f19601f82011682018060405250810190610ea49190613227565b6001600160a01b031663ece6d1ec826040518263ffffffff1660e01b8152600401610ed191815260200190565b600060405180830381600087803b158015610eeb57600080fd5b505af1158015610eff573d6000803e3d6000fd5b50504260fd5550506040518181527fb9d196a585c1a894f648393ec7d52cc59ff6d94191579d073ba32b0a74d7f7a69060200160405180910390a150610f45600160c955565b565b610f4f611efa565b61010555565b600033610cd8818585610f688383611c3e565b610f72919061325a565b611dd6565b610f7f611efa565b61010355565b6000610f8f611f86565b610f9a576000610cc4565b60001992915050565b610fab611efa565b61010755565b600054610100900460ff1615808015610fd15750600054600160ff909116105b80610feb5750303b158015610feb575060005460ff166001145b61104e5760405162461bcd60e51b815260206004820152602e60248201527f496e697469616c697a61626c653a20636f6e747261637420697320616c72656160448201526d191e481a5b9a5d1a585b1a5e995960921b6064820152608401610a0c565b6000805460ff191660011790558015611071576000805461ff0019166101001790555b611079611fa0565b6110ec8a8a8080601f01602080910402602001604051908101604052809392919081815260200183838082843760009201919091525050604080516020601f8e018190048102820181019092528c815292508c91508b9081908401838280828437600092019190915250611fcf92505050565b6110f586612000565b60fb80546001600160a01b0319166001600160a01b038d16179055843560fe5560208086013560ff55604080870135610100556060870135610101558535610102558582013561010355843561010455848201356101055584013561010655823561010755820135610108554260fc5580156111ab576000805461ff0019169055604051600181527f7f26b83ff96e1f2b6a682f133852f6798a09c465da95921460cefb38474024989060200160405180910390a15b5050505050505050505050565b6111c0611efa565b61010655565b6111ce611efa565b60fe55565b6111db611efa565b61010855565b60006111ee848484612030565b90505b9392505050565b600061120382610f85565b8311156112525760405162461bcd60e51b815260206004820152601e60248201527f455243343632363a206465706f736974206d6f7265207468616e206d617800006044820152606401610a0c565b600061125d84611bac565b90506111f1338486846123e1565b611273611efa565b610f45600061245f565b60fb54604051639df185f960e01b81526001600160a01b03909116600482015273__$5201a97c05ba6aa659e2f36a933dd51801$__90639df185f99060240160006040518083038186803b1580156112d457600080fd5b505af41580156112e8573d6000803e3d6000fd5b50505050610f456112f96108933390565b33600090815261010c60205260409020805460ff19166001908117825581019190915542600290910155565b61132d611d4a565b60fb54604051631445052b60e11b81526001600160a01b03918216600482015260248101849052908216604482015273__$5201a97c05ba6aa659e2f36a933dd51801$__9063288a0a569060640160006040518083038186803b15801561139357600080fd5b505af41580156113a7573d6000803e3d6000fd5b505050508161010960006113b83390565b6001600160a01b03166001600160a01b031681526020019081526020016000206000836001600160a01b03166001600160a01b03168152602001908152602001600020600082825461140a91906132a1565b90915550506001600160a01b038116600090815261010b6020526040812080548492906114389084906132a1565b909155505033600090815261010a60205260408120805484929061145d9084906132a1565b90915550506040518281526001600160a01b0382169033907f72604881741b21dd04fd9cf15e323a7e936c3e7d681be4e1ff2fc51e2a1daa2c90602001610c13565b6114a7611efa565b61010255565b6114d3604051806060016040528060001515815260200160008152602001600081525090565b506001600160a01b0316600090815261010c60209081526040918290208251606081018452815460ff1615158152600182015492810192909252600201549181019190915290565b6001600160a01b038416600090815261010d6020526040812054819060ff161515810361154957905061190b565b60fb546040805163cfeed18160e01b815290516000926001600160a01b03169163cfeed1819160048083019260209291908290030181865afa158015611593573d6000803e3d6000fd5b505050506040513d601f19601f820116820180604052508101906115b79190613227565b905060006115ca8660fe600301546124b1565b905060006115dd8760fe600201546124b1565b9050611612604051806040016040528060118152602001701c995dd85c991cd41c9a58d9531a5b5a5d607a1b815250836124d7565b611649604051806040016040528060158152602001741c995dd85c991cd41c9a58d9551a1c995cda1bdb19605a1b815250826124d7565b818610801561165757508086115b15611904576116876040518060600160405280602a81526020016135d7602a913961168283896132a1565b6124d7565b60fe5460fb54604080516315b9ba5d60e01b815290516001600160a01b038088169363e88c1997939116916315b9ba5d916004808201926020929091908290030181865afa1580156116dd573d6000803e3d6000fd5b505050506040513d601f19601f820116820180604052508101906117019190613227565b6040516001600160e01b031960e084901b1681526001600160a01b039091166004820152602401602060405180830381865afa158015611745573d6000803e3d6000fd5b505050506040513d601f19601f82011682018060405250810190611769919061320e565b611773908a6132b4565b61177d91906132b4565b6003846001600160a01b03166308ea5bee6040518163ffffffff1660e01b8152600401602060405180830381865afa1580156117bd573d6000803e3d6000fd5b505050506040513d601f19601f820116820180604052508101906117e1919061320e565b6117eb91906133af565b6117f583896132a1565b6117ff91906132b4565b61180991906133d4565b60ff5490945084111561181c5760ff5493505b60fb54604080516315b9ba5d60e01b815290516000926001600160a01b0316916315b9ba5d9160048083019260209291908290030181865afa158015611866573d6000803e3d6000fd5b505050506040513d601f19601f8201168201806040525081019061188a9190613227565b6040516370a0823160e01b81523060048201526001600160a01b0391909116906370a0823190602401602060405180830381865afa1580156118d0573d6000803e3d6000fd5b505050506040513d601f19601f820116820180604052508101906118f4919061320e565b905080851115611902578094505b505b5091925050505b949350505050565b60008061191f84611ab7565b90506111f1338483876123e1565b606060378054610c349061326d565b60fc54600090819061194e90426132a1565b610105546101065461196091906132b4565b11156119be57610105546101065461197891906132b4565b60fc54610105546101065442929161198f916132b4565b611999919061325a565b6119a391906132a1565b610104546119b191906132b4565b6119bb91906133d4565b90505b919050565b6119cb611efa565b60ff55565b6001600160a01b038116600090815261010a60205260408120546119f383611c20565b610cc491906132a1565b60003381611a0b8286611c3e565b905083811015611a6b5760405162461bcd60e51b815260206004820152602560248201527f45524332303a2064656372656173656420616c6c6f77616e63652062656c6f77604482015264207a65726f60d81b6064820152608401610a0c565b611a788286868403611dd6565b506001949350505050565b611a8b611efa565b6001600160a01b0391909116600090815261010d60205260409020805460ff1916911515919091179055565b6000610cc4826001611da3565b6000611acf82611bfc565b841115611b1e5760405162461bcd60e51b815260206004820152601f60248201527f455243343632363a207769746864726177206d6f7265207468616e206d6178006044820152606401610a0c565b6000611b2985610cf0565b90506111ee338585888561251c565b6000611b4382611c20565b841115611b925760405162461bcd60e51b815260206004820152601d60248201527f455243343632363a2072656465656d206d6f7265207468616e206d61780000006044820152606401610a0c565b6000611b9d85610cb7565b90506111ee338585848961251c565b6000610cc4826000611f54565b611bc1611efa565b61010155565b611bcf611efa565b61010055565b6001600160a01b038116600090815261010b60205260408120546111f19084908490612030565b6001600160a01b038116600090815260336020526040812054610cc4906000611da3565b6001600160a01b038116600090815260336020526040812054610cc4565b6001600160a01b03918216600090815260346020908152604080832093909416825291909152205490565b611c71611efa565b6001600160a01b038116611cd65760405162461bcd60e51b815260206004820152602660248201527f4f776e61626c653a206e6577206f776e657220697320746865207a65726f206160448201526564647265737360d01b6064820152608401610a0c565b611cdf8161245f565b50565b6040516001600160a01b038316602482015260448101829052611d4590849063a9059cbb60e01b906064015b60408051601f198184030181529190526020810180516001600160e01b03166001600160e01b0319909316929092179091526125d2565b505050565b600260c95403611d9c5760405162461bcd60e51b815260206004820152601f60248201527f5265656e7472616e637947756172643a207265656e7472616e742063616c6c006044820152606401610a0c565b600260c955565b600080611daf60355490565b90508015611dd057611dcb611dc26108c7565b859083866126a4565b61190b565b8361190b565b6001600160a01b038316611e385760405162461bcd60e51b8152602060048201526024808201527f45524332303a20617070726f76652066726f6d20746865207a65726f206164646044820152637265737360e01b6064820152608401610a0c565b6001600160a01b038216611e995760405162461bcd60e51b815260206004820152602260248201527f45524332303a20617070726f766520746f20746865207a65726f206164647265604482015261737360f01b6064820152608401610a0c565b6001600160a01b0383811660008181526034602090815260408083209487168084529482529182902085905590518481527f8c5be1e5ebec7d5bd14f71427d1e84f3dd0314c0f7b2291e5b200ac8c7c3b925910160405180910390a3505050565b6097546001600160a01b03163314610f455760405162461bcd60e51b815260206004820181905260248201527f4f776e61626c653a2063616c6c6572206973206e6f7420746865206f776e65726044820152606401610a0c565b600080611f6060355490565b9050831580611f6d575080155b611dd057611dcb81611f7d6108c7565b869190866126a4565b600080611f916108c7565b11806109345750506035541590565b600054610100900460ff16611fc75760405162461bcd60e51b8152600401610a0c906133f6565b610f45612701565b600054610100900460ff16611ff65760405162461bcd60e51b8152600401610a0c906133f6565b610aa18282612731565b600054610100900460ff166120275760405162461bcd60e51b8152600401610a0c906133f6565b611cdf81612771565b60008060009050600060fb60009054906101000a90046001600160a01b03166001600160a01b031663536223646040518163ffffffff1660e01b8152600401602060405180830381865afa15801561208c573d6000803e3d6000fd5b505050506040513d601f19601f820116820180604052508101906120b09190613227565b6040516325515dcf60e21b81526001600160a01b03888116600483015287811660248301529190911690639545773c90604401602060405180830381865afa158015612100573d6000803e3d6000fd5b505050506040513d601f19601f82011682018060405250810190612124919061320e565b61212f90600161325a565b9050600060fb60009054906101000a90046001600160a01b03166001600160a01b031663cfeed1816040518163ffffffff1660e01b8152600401602060405180830381865afa158015612186573d6000803e3d6000fd5b505050506040513d601f19601f820116820180604052508101906121aa9190613227565b6001600160a01b031663e88c199760fb60009054906101000a90046001600160a01b03166001600160a01b03166315b9ba5d6040518163ffffffff1660e01b8152600401602060405180830381865afa15801561220b573d6000803e3d6000fd5b505050506040513d601f19601f8201168201806040525081019061222f9190613227565b6040516001600160e01b031960e084901b1681526001600160a01b039091166004820152602401602060405180830381865afa158015612273573d6000803e3d6000fd5b505050506040513d601f19601f82011682018060405250810190612297919061320e565b9050600060fb60009054906101000a90046001600160a01b03166001600160a01b031663cfeed1816040518163ffffffff1660e01b8152600401602060405180830381865afa1580156122ee573d6000803e3d6000fd5b505050506040513d601f19601f820116820180604052508101906123129190613227565b6001600160a01b03166308ea5bee6040518163ffffffff1660e01b8152600401602060405180830381865afa15801561234f573d6000803e3d6000fd5b505050506040513d601f19601f82011682018060405250810190612373919061320e565b905060008183612384896001611da3565b61238e91906132b4565b61239891906133d4565b610102549091506123a990856132b4565b6123b5826127106132b4565b6123bf91906133d4565b610103549095508511156123d4576101035494505b5092979650505050505050565b6065546123f9906001600160a01b03168530856127f6565b6124038382612834565b826001600160a01b0316846001600160a01b03167fdcbc1c05240f31ff3ad067ef1ee35ce4997762752e3a095284754544f4c709d78484604051612451929190918252602082015260400190565b60405180910390a350505050565b609780546001600160a01b038381166001600160a01b0319831681179093556040519116919082907f8be0079c531659141344cd1fd0a4f28419497f9722a3daafe3b4186f6b6457e090600090a35050565b6000811561138819839004841115176124c957600080fd5b506127109102611388010490565b610aa182826040516024016124ed929190613441565b60408051601f198184030181529190526020810180516001600160e01b0316632d839cb360e21b1790526128f5565b60fb54604051633295ceef60e21b81526001600160a01b0390911660048201526024810182905273__$5201a97c05ba6aa659e2f36a933dd51801$__9063ca573bbc9060440160006040518083038186803b15801561257a57600080fd5b505af415801561258e573d6000803e3d6000fd5b5050506001600160a01b038616600090815261010c60205260408120805460ff191681556001810182905560020155506125cb8585858585612916565b5050505050565b6000612627826040518060400160405280602081526020017f5361666545524332303a206c6f772d6c6576656c2063616c6c206661696c6564815250856001600160a01b03166129c29092919063ffffffff16565b805190915015611d4557808060200190518101906126459190613463565b611d455760405162461bcd60e51b815260206004820152602a60248201527f5361666545524332303a204552433230206f7065726174696f6e20646964206e6044820152691bdd081cdd58d8d9595960b21b6064820152608401610a0c565b6000806126b28686866129d1565b905060018360028111156126c8576126c8613480565b1480156126e55750600084806126e0576126e06133be565b868809115b156126f8576126f560018261325a565b90505b95945050505050565b600054610100900460ff166127285760405162461bcd60e51b8152600401610a0c906133f6565b610f453361245f565b600054610100900460ff166127585760405162461bcd60e51b8152600401610a0c906133f6565b603661276483826134fa565b506037611d4582826134fa565b600054610100900460ff166127985760405162461bcd60e51b8152600401610a0c906133f6565b6000806127a483612a80565b91509150816127b45760126127b6565b805b606580546001600160a01b039095166001600160a01b031960ff93909316600160a01b02929092166001600160a81b031990951694909417179092555050565b6040516001600160a01b038085166024830152831660448201526064810182905261282e9085906323b872dd60e01b90608401611d0e565b50505050565b6001600160a01b03821661288a5760405162461bcd60e51b815260206004820152601f60248201527f45524332303a206d696e7420746f20746865207a65726f2061646472657373006044820152606401610a0c565b806035600082825461289c919061325a565b90915550506001600160a01b0382166000818152603360209081526040808320805486019055518481527fddf252ad1be2c89b69c2b068fc378daa952ba7f163c4a11628f55a4df523b3ef910160405180910390a35050565b80516a636f6e736f6c652e6c6f67602083016000808483855afa5050505050565b826001600160a01b0316856001600160a01b03161461293a5761293a838683612b5e565b6129448382612bd2565b60655461295b906001600160a01b03168584611ce2565b826001600160a01b0316846001600160a01b0316866001600160a01b03167ffbde797d201c681b91056529119e0b02407c7bb96a4a2c75c01fc9667232c8db85856040516129b3929190918252602082015260400190565b60405180910390a45050505050565b60606111ee8484600085612d06565b6000808060001985870985870292508281108382030391505080600003612a0b57838281612a0157612a016133be565b04925050506111f1565b808411612a1757600080fd5b60008486880960026001871981018816978890046003810283188082028403028082028403028082028403028082028403028082028403029081029092039091026000889003889004909101858311909403939093029303949094049190911702949350505050565b60408051600481526024810182526020810180516001600160e01b031663313ce56760e01b17905290516000918291829182916001600160a01b03871691612ac7916135ba565b6000604051808303816000865af19150503d8060008114612b04576040519150601f19603f3d011682016040523d82523d6000602084013e612b09565b606091505b5091509150818015612b1d57506020815110155b15612b5157600081806020019051810190612b38919061320e565b905060ff8111612b4f576001969095509350505050565b505b5060009485945092505050565b6000612b6a8484611c3e565b9050600019811461282e5781811015612bc55760405162461bcd60e51b815260206004820152601d60248201527f45524332303a20696e73756666696369656e7420616c6c6f77616e63650000006044820152606401610a0c565b61282e8484848403611dd6565b6001600160a01b038216612c325760405162461bcd60e51b815260206004820152602160248201527f45524332303a206275726e2066726f6d20746865207a65726f206164647265736044820152607360f81b6064820152608401610a0c565b6001600160a01b03821660009081526033602052604090205481811015612ca65760405162461bcd60e51b815260206004820152602260248201527f45524332303a206275726e20616d6f756e7420657863656564732062616c616e604482015261636560f01b6064820152608401610a0c565b6001600160a01b03831660008181526033602090815260408083208686039055603580548790039055518581529192917fddf252ad1be2c89b69c2b068fc378daa952ba7f163c4a11628f55a4df523b3ef910160405180910390a3505050565b606082471015612d675760405162461bcd60e51b815260206004820152602660248201527f416464726573733a20696e73756666696369656e742062616c616e636520666f6044820152651c8818d85b1b60d21b6064820152608401610a0c565b600080866001600160a01b03168587604051612d8391906135ba565b60006040518083038185875af1925050503d8060008114612dc0576040519150601f19603f3d011682016040523d82523d6000602084013e612dc5565b606091505b5091509150612dd687838387612de1565b979650505050505050565b60608315612e50578251600003612e49576001600160a01b0385163b612e495760405162461bcd60e51b815260206004820152601d60248201527f416464726573733a2063616c6c20746f206e6f6e2d636f6e74726163740000006044820152606401610a0c565b508161190b565b61190b8383815115612e655781518083602001fd5b8060405162461bcd60e51b8152600401610a0c9190612f40565b6001600160a01b0381168114611cdf57600080fd5b60008060408385031215612ea757600080fd5b8235612eb281612e7f565b946020939093013593505050565b60008060408385031215612ed357600080fd5b823591506020830135612ee581612e7f565b809150509250929050565b60005b83811015612f0b578181015183820152602001612ef3565b50506000910152565b60008151808452612f2c816020860160208601612ef0565b601f01601f19169290920160200192915050565b6020815260006111f16020830184612f14565b600060208284031215612f6557600080fd5b5035919050565b600080600060608486031215612f8157600080fd5b8335612f8c81612e7f565b92506020840135612f9c81612e7f565b929592945050506040919091013590565b600060208284031215612fbf57600080fd5b81356111f181612e7f565b60008083601f840112612fdc57600080fd5b50813567ffffffffffffffff811115612ff457600080fd5b60208301915083602082850101111561300c57600080fd5b9250929050565b60006040828403121561302557600080fd5b50919050565b60006060828403121561302557600080fd5b6000806000806000806000806000806101e08b8d03121561305d57600080fd5b6130678b35612e7f565b8a35995060208b013567ffffffffffffffff8082111561308657600080fd5b6130928e838f01612fca565b909b50995060408d01359150808211156130ab57600080fd5b506130b88d828e01612fca565b90985096505060608b01356130cc81612e7f565b945060808b8d03607f190112156130e257600080fd5b60808b0193506130f68c6101008d01613013565b92506131068c6101408d0161302b565b91506131168c6101a08d01613013565b90509295989b9194979a5092959850565b6000806000806080858703121561313d57600080fd5b843561314881612e7f565b966020860135965060408601359560600135945092505050565b8015158114611cdf57600080fd5b6000806040838503121561318357600080fd5b823561318e81612e7f565b91506020830135612ee581613162565b6000806000606084860312156131b357600080fd5b8335925060208401356131c581612e7f565b915060408401356131d581612e7f565b809150509250925092565b600080604083850312156131f357600080fd5b82356131fe81612e7f565b91506020830135612ee581612e7f565b60006020828403121561322057600080fd5b5051919050565b60006020828403121561323957600080fd5b81516111f181612e7f565b634e487b7160e01b600052601160045260246000fd5b80820180821115610cc457610cc4613244565b600181811c9082168061328157607f821691505b60208210810361302557634e487b7160e01b600052602260045260246000fd5b81810381811115610cc457610cc4613244565b8082028115828204841417610cc457610cc4613244565b600181815b808511156133065781600019048211156132ec576132ec613244565b808516156132f957918102915b93841c93908002906132d0565b509250929050565b60008261331d57506001610cc4565b8161332a57506000610cc4565b8160018114613340576002811461334a57613366565b6001915050610cc4565b60ff84111561335b5761335b613244565b50506001821b610cc4565b5060208310610133831016604e8410600b8410161715613389575081810a610cc4565b61339383836132cb565b80600019048211156133a7576133a7613244565b029392505050565b60006111f160ff84168361330e565b634e487b7160e01b600052601260045260246000fd5b6000826133f157634e487b7160e01b600052601260045260246000fd5b500490565b6020808252602b908201527f496e697469616c697a61626c653a20636f6e7472616374206973206e6f74206960408201526a6e697469616c697a696e6760a81b606082015260800190565b6040815260006134546040830185612f14565b90508260208301529392505050565b60006020828403121561347557600080fd5b81516111f181613162565b634e487b7160e01b600052602160045260246000fd5b634e487b7160e01b600052604160045260246000fd5b601f821115611d4557600081815260208120601f850160051c810160208610156134d35750805b601f850160051c820191505b818110156134f2578281556001016134df565b505050505050565b815167ffffffffffffffff81111561351457613514613496565b61352881613522845461326d565b846134ac565b602080601f83116001811461355d57600084156135455750858301515b600019600386901b1c1916600185901b1785556134f2565b600085815260208120601f198616915b8281101561358c5788860151825594840194600190910190840161356d565b50858210156135aa5787850151600019600388901b60f8161c191681555b5050505050600190811b01905550565b600082516135cc818460208701612ef0565b919091019291505056fe286c69717569646174696f6e5072696365202d207265776172647350726963655468726573686f6c6429a2646970667358221220576511a7ba9ba277c34e7f7015adf750d51a29c3370b9c029d95424f59750b2064736f6c63430008110033",
  "linkReferences": {
    "contracts/libraries/logic/ValidationLogic.sol": {
      "ValidationLogic": [
        {
          "length": 20,
          "start": 2806
        },
        {
          "length": 20,
          "start": 4799
        },
        {
          "length": 20,
          "start": 4990
        },
        {
          "length": 20,
          "start": 9573
        }
      ]
    }
  },
  "deployedLinkReferences": {
    "contracts/libraries/logic/ValidationLogic.sol": {
      "ValidationLogic": [
        {
          "length": 20,
          "start": 2774
        },
        {
          "length": 20,
          "start": 4767
        },
        {
          "length": 20,
          "start": 4958
        },
        {
          "length": 20,
          "start": 9541
        }
      ]
    }
  }
}