{
  "_format": "hh-sol-artifact-1",
  "contractName": "NativeToken",
  "sourceName": "contracts/protocol/NativeToken.sol",
  "abi": [
    {
      "inputs": [],
      "stateMutability": "nonpayable",
      "type": "constructor"
    },
    {
      "anonymous": false,
      "inputs": [
        {
          "indexed": true,
          "internalType": "address",
          "name": "owner",
          "type": "address"
        },
        {
          "indexed": true,
          "internalType": "address",
          "name": "spender",
          "type": "address"
        },
        {
          "indexed": false,
          "internalType": "uint256",
          "name": "value",
          "type": "uint256"
        }
      ],
      "name": "Approval",
      "type": "event"
    },
    {
      "anonymous": false,
      "inputs": [
        {
          "indexed": false,
          "internalType": "uint8",
          "name": "version",
          "type": "uint8"
        }
      ],
      "name": "Initialized",
      "type": "event"
    },
    {
      "anonymous": false,
      "inputs": [
        {
          "indexed": true,
          "internalType": "address",
          "name": "previousOwner",
          "type": "address"
        },
        {
          "indexed": true,
          "internalType": "address",
          "name": "newOwner",
          "type": "address"
        }
      ],
      "name": "OwnershipTransferred",
      "type": "event"
    },
    {
      "anonymous": false,
      "inputs": [
        {
          "indexed": true,
          "internalType": "address",
          "name": "from",
          "type": "address"
        },
        {
          "indexed": true,
          "internalType": "address",
          "name": "to",
          "type": "address"
        },
        {
          "indexed": false,
          "internalType": "uint256",
          "name": "value",
          "type": "uint256"
        }
      ],
      "name": "Transfer",
      "type": "event"
    },
    {
      "inputs": [
        {
          "internalType": "address",
          "name": "owner",
          "type": "address"
        },
        {
          "internalType": "address",
          "name": "spender",
          "type": "address"
        }
      ],
      "name": "allowance",
      "outputs": [
        {
          "internalType": "uint256",
          "name": "",
          "type": "uint256"
        }
      ],
      "stateMutability": "view",
      "type": "function"
    },
    {
      "inputs": [
        {
          "internalType": "address",
          "name": "spender",
          "type": "address"
        },
        {
          "internalType": "uint256",
          "name": "amount",
          "type": "uint256"
        }
      ],
      "name": "approve",
      "outputs": [
        {
          "internalType": "bool",
          "name": "",
          "type": "bool"
        }
      ],
      "stateMutability": "nonpayable",
      "type": "function"
    },
    {
      "inputs": [
        {
          "internalType": "address",
          "name": "account",
          "type": "address"
        }
      ],
      "name": "balanceOf",
      "outputs": [
        {
          "internalType": "uint256",
          "name": "",
          "type": "uint256"
        }
      ],
      "stateMutability": "view",
      "type": "function"
    },
    {
      "inputs": [
        {
          "internalType": "uint256",
          "name": "amount",
          "type": "uint256"
        }
      ],
      "name": "burnGenesisTokens",
      "outputs": [],
      "stateMutability": "nonpayable",
      "type": "function"
    },
    {
      "inputs": [],
      "name": "decimals",
      "outputs": [
        {
          "internalType": "uint8",
          "name": "",
          "type": "uint8"
        }
      ],
      "stateMutability": "view",
      "type": "function"
    },
    {
      "inputs": [
        {
          "internalType": "address",
          "name": "spender",
          "type": "address"
        },
        {
          "internalType": "uint256",
          "name": "subtractedValue",
          "type": "uint256"
        }
      ],
      "name": "decreaseAllowance",
      "outputs": [
        {
          "internalType": "bool",
          "name": "",
          "type": "bool"
        }
      ],
      "stateMutability": "nonpayable",
      "type": "function"
    },
    {
      "inputs": [],
      "name": "getCap",
      "outputs": [
        {
          "internalType": "uint256",
          "name": "",
          "type": "uint256"
        }
      ],
      "stateMutability": "view",
      "type": "function"
    },
    {
      "inputs": [
        {
          "internalType": "address",
          "name": "spender",
          "type": "address"
        },
        {
          "internalType": "uint256",
          "name": "addedValue",
          "type": "uint256"
        }
      ],
      "name": "increaseAllowance",
      "outputs": [
        {
          "internalType": "bool",
          "name": "",
          "type": "bool"
        }
      ],
      "stateMutability": "nonpayable",
      "type": "function"
    },
    {
      "inputs": [
        {
          "internalType": "contract IAddressesProvider",
          "name": "addressProvider",
          "type": "address"
        },
        {
          "internalType": "string",
          "name": "name",
          "type": "string"
        },
        {
          "internalType": "string",
          "name": "symbol",
          "type": "string"
        },
        {
          "internalType": "uint256",
          "name": "cap",
          "type": "uint256"
        }
      ],
      "name": "initialize",
      "outputs": [],
      "stateMutability": "nonpayable",
      "type": "function"
    },
    {
      "inputs": [
        {
          "internalType": "address",
          "name": "account",
          "type": "address"
        },
        {
          "internalType": "uint256",
          "name": "amount",
          "type": "uint256"
        }
      ],
      "name": "mint",
      "outputs": [],
      "stateMutability": "nonpayable",
      "type": "function"
    },
    {
      "inputs": [
        {
          "internalType": "address",
          "name": "receiver",
          "type": "address"
        },
        {
          "internalType": "uint256",
          "name": "amount",
          "type": "uint256"
        }
      ],
      "name": "mintGaugeRewards",
      "outputs": [],
      "stateMutability": "nonpayable",
      "type": "function"
    },
    {
      "inputs": [
        {
          "internalType": "uint256",
          "name": "amount",
          "type": "uint256"
        }
      ],
      "name": "mintGenesisTokens",
      "outputs": [],
      "stateMutability": "nonpayable",
      "type": "function"
    },
    {
      "inputs": [
        {
          "internalType": "address",
          "name": "receiver",
          "type": "address"
        },
        {
          "internalType": "uint256",
          "name": "amount",
          "type": "uint256"
        }
      ],
      "name": "mintRebates",
      "outputs": [],
      "stateMutability": "nonpayable",
      "type": "function"
    },
    {
      "inputs": [],
      "name": "name",
      "outputs": [
        {
          "internalType": "string",
          "name": "",
          "type": "string"
        }
      ],
      "stateMutability": "view",
      "type": "function"
    },
    {
      "inputs": [],
      "name": "owner",
      "outputs": [
        {
          "internalType": "address",
          "name": "",
          "type": "address"
        }
      ],
      "stateMutability": "view",
      "type": "function"
    },
    {
      "inputs": [],
      "name": "renounceOwnership",
      "outputs": [],
      "stateMutability": "nonpayable",
      "type": "function"
    },
    {
      "inputs": [],
      "name": "symbol",
      "outputs": [
        {
          "internalType": "string",
          "name": "",
          "type": "string"
        }
      ],
      "stateMutability": "view",
      "type": "function"
    },
    {
      "inputs": [],
      "name": "totalSupply",
      "outputs": [
        {
          "internalType": "uint256",
          "name": "",
          "type": "uint256"
        }
      ],
      "stateMutability": "view",
      "type": "function"
    },
    {
      "inputs": [
        {
          "internalType": "address",
          "name": "to",
          "type": "address"
        },
        {
          "internalType": "uint256",
          "name": "amount",
          "type": "uint256"
        }
      ],
      "name": "transfer",
      "outputs": [
        {
          "internalType": "bool",
          "name": "",
          "type": "bool"
        }
      ],
      "stateMutability": "nonpayable",
      "type": "function"
    },
    {
      "inputs": [
        {
          "internalType": "address",
          "name": "from",
          "type": "address"
        },
        {
          "internalType": "address",
          "name": "to",
          "type": "address"
        },
        {
          "internalType": "uint256",
          "name": "amount",
          "type": "uint256"
        }
      ],
      "name": "transferFrom",
      "outputs": [
        {
          "internalType": "bool",
          "name": "",
          "type": "bool"
        }
      ],
      "stateMutability": "nonpayable",
      "type": "function"
    },
    {
      "inputs": [
        {
          "internalType": "address",
          "name": "newOwner",
          "type": "address"
        }
      ],
      "name": "transferOwnership",
      "outputs": [],
      "stateMutability": "nonpayable",
      "type": "function"
    }
  ],
  "bytecode": "0x608080604052346100c1576000549060ff8260081c1661006f575060ff80821610610034575b60405161176490816100c78239f35b60ff90811916176000557f7f26b83ff96e1f2b6a682f133852f6798a09c465da95921460cefb3847402498602060405160ff8152a138610025565b62461bcd60e51b815260206004820152602760248201527f496e697469616c697a61626c653a20636f6e747261637420697320696e697469604482015266616c697a696e6760c81b6064820152608490fd5b600080fdfe6080604081815260048036101561001557600080fd5b600092833560e01c90816306fdde031461107357508063095ea7b3146110495780630a8514c414610f1857806318160ddd14610ef957806323b872dd14610e2d578063313ce56714610e115780633950935114610dc15780633d9310ee14610c6957806340c10f1914610c3c5780634d12d4b6146107a957806350666e3114610586578063554d578d1461056757806370a082311461052f578063715018a6146104d25780638da5cb5b146104a957806395d89b41146103c8578063a457c2d714610321578063a9059cbb146102f0578063aa6e24ba146101eb578063dd62ed3e1461019e5763f2fde38b1461010a57600080fd5b3461019a57602036600319011261019a57610123611164565b9161012c6111c3565b6001600160a01b0383161561014857836101458461121b565b80f35b906020608492519162461bcd60e51b8352820152602660248201527f4f776e61626c653a206e6577206f776e657220697320746865207a65726f206160448201526564647265737360d01b6064820152fd5b8280fd5b5050346101e757806003193601126101e757806020926101bc611164565b6101c461117f565b6001600160a01b0391821683526034865283832091168252845220549051908152f35b5080fd5b503461019a578160031936011261019a57610204611164565b60c9548351630458184560e11b81529193916001600160a01b039160209082908690829086165afa9081156102e65786916102b8575b5016330361024f578361014560243585611612565b906020608492519162461bcd60e51b8352820152603860248201527f526562617465732063616e206f6e6c79206265206d696e74656420627920746860448201527f6520566f74696e6720457363726f7720636f6e747261637400000000000000006064820152fd5b6102d9915060203d81116102df575b6102d1818361129e565b81019061170f565b3861023a565b503d6102c7565b83513d88823e3d90fd5b5050346101e757806003193601126101e75760209061031a610310611164565b60243590336112f9565b5160018152f35b5082346103c557826003193601126103c55761033b611164565b918360243592338152603460205281812060018060a01b03861682526020522054908282106103745760208561031a8585038733611469565b608490602086519162461bcd60e51b8352820152602560248201527f45524332303a2064656372656173656420616c6c6f77616e63652062656c6f77604482015264207a65726f60d81b6064820152fd5b80fd5b5050346101e757816003193601126101e757805190826037546103ea81611264565b808552916001918083169081156104815750600114610424575b5050506104168261042094038361129e565b519182918261111b565b0390f35b9450603785527f42a7b7dd785cd69714a189dffb3fd7d7174edc9ece837694ce50f7078f7c31ae5b828610610469575050506104168260206104209582010194610404565b8054602087870181019190915290950194810161044c565b61042097508693506020925061041694915060ff191682840152151560051b82010194610404565b5050346101e757816003193601126101e75760655490516001600160a01b039091168152602090f35b83346103c557806003193601126103c5576104eb6111c3565b606580546001600160a01b0319811690915581906001600160a01b03167f8be0079c531659141344cd1fd0a4f28419497f9722a3daafe3b4186f6b6457e08280a380f35b5050346101e75760203660031901126101e75760209181906001600160a01b03610557611164565b1681526033845220549051908152f35b5050346101e757816003193601126101e75760209060cb549051908152f35b508290346101e75760208060031936011261019a5760c9548451630966d5bb60e01b8082528435926001600160a01b0392908316919085818881865afa90811561079f579084918991610782575b501633036107195784908689518094819382525afa90811561070f5786916106f2575b50169283156106a5578385526033835285852054908282106106575750908495817fddf252ad1be2c89b69c2b068fc378daa952ba7f163c4a11628f55a4df523b3ef9493868852603385520381872055816035540360355551908152a380f35b865162461bcd60e51b8152908101849052602260248201527f45524332303a206275726e20616d6f756e7420657863656564732062616c616e604482015261636560f01b6064820152608490fd5b855162461bcd60e51b8152908101839052602160248201527f45524332303a206275726e2066726f6d20746865207a65726f206164647265736044820152607360f81b6064820152608490fd5b6107099150843d86116102df576102d1818361129e565b876105f7565b87513d88823e3d90fd5b875162461bcd60e51b8152808701869052603d60248201527f47656e6573697320746f6b656e732063616e206f6e6c79206265206275726e6560448201527f64206279207468652047656e65736973204e465420636f6e74726163740000006064820152608490fd5b6107999150873d89116102df576102d1818361129e565b8a6105d4565b89513d8a823e3d90fd5b50903461019a57608036600319011261019a5781356001600160a01b0381169290839003610c385767ffffffffffffffff92602435848111610c34576107f29036908401611195565b949092604435828111610c305761080c9036908301611195565b9190885460ff8160081c161596878098610c23575b8015610c0c575b15610bb257908a929160019a898c60ff19851617865560ff61087d966108759561086593610ba1575b505460081c16610860816115b2565b6115b2565b61086e3361121b565b369161156b565b93369161156b565b9061089260ff8a5460081c16610860816115b2565b8251848111610b8e57806108a7603654611264565b94601f95868111610b20575b50602090868311600114610aa1578c92610a96575b5050600019600383901b1c191690891b176036555b8151938411610a8357509082916108f5603754611264565b828111610a13575b506020918311600114610994578892610989575b5050600019600383901b1c191690851b176037555b6bffffffffffffffffffffffff60a01b60c954161760c95560643560cb554260ca55610950578280f35b825461ff0019168355519081527f7f26b83ff96e1f2b6a682f133852f6798a09c465da95921460cefb384740249890602090a138808280f35b015190503880610911565b603789528793507f42a7b7dd785cd69714a189dffb3fd7d7174edc9ece837694ce50f7078f7c31ae9190601f1984168a5b8181106109fb575084116109e2575b505050811b01603755610926565b015160001960f88460031b161c191690553880806109d4565b8284015185558a9690940193602093840193016109c5565b90919250603789527f42a7b7dd785cd69714a189dffb3fd7d7174edc9ece837694ce50f7078f7c31ae8380860160051c82019260208710610a7a575b9186958b929594930160051c01915b828110610a6c5750506108fd565b8b81558695508a9101610a5e565b92508192610a4f565b634e487b7160e01b895260419052602488fd5b0151905038806108c8565b60368d528b93507f4a11f94e20a93c79f6ec743a1954ec4fc2c08429ae2122118bf234b2185c81b89190601f1984168e5b818110610b0857508411610aef575b505050811b016036556108dd565b015160001960f88460031b161c19169055388080610ae1565b8284015185558e969094019360209384019301610ad2565b90915060368c527f4a11f94e20a93c79f6ec743a1954ec4fc2c08429ae2122118bf234b2185c81b88680850160051c82019260208610610b85575b918d91869594930160051c01915b828110610b775750506108b3565b8e81558594508d9101610b69565b92508192610b5b565b634e487b7160e01b8a526041825260248afd5b61ffff191661010117815538610851565b885162461bcd60e51b8152602081860152602e60248201527f496e697469616c697a61626c653a20636f6e747261637420697320616c72656160448201526d191e481a5b9a5d1a585b1a5e995960921b6064820152608490fd5b50303b1580156108285750600160ff831614610828565b50600160ff831610610821565b8780fd5b8580fd5b8380fd5b5050346101e7573660031901126103c557610145610c58611164565b610c606111c3565b60243590611612565b503461019a578160031936011261019a57610c82611164565b60c9548351632c6f4d6f60e11b8152919360209290916001600160a01b039190849082908790829086165afa908115610db7579084918891610d9a575b50602484518094819363aa79979b60e01b8352338a840152165afa908115610d90578691610d5a575b5015610cfb578461014560243586611612565b5162461bcd60e51b815291820152603560248201527f476175676520726577617264732063616e206f6e6c79206265206d696e74656460448201527420627920616e20617070726f76656420676175676560581b606482015260849150fd5b90508281813d8311610d89575b610d71818361129e565b81010312610c3457518015158103610c345738610ce8565b503d610d67565b82513d88823e3d90fd5b610db19150823d84116102df576102d1818361129e565b38610cbf565b83513d89823e3d90fd5b5050346101e757806003193601126101e75761031a602092610e0a610de4611164565b338352603486528483206001600160a01b038216845286529184902054602435906112d6565b9033611469565b5050346101e757816003193601126101e7576020905160128152f35b508290346101e75760603660031901126101e757610e49611164565b610e5161117f565b6001600160a01b03821684526034602090815285852033865290529284902054604435939260018201610e8d575b60208661031a8787876112f9565b848210610eb65750918391610eab6020969561031a95033383611469565b919394819350610e7f565b606490602087519162461bcd60e51b8352820152601d60248201527f45524332303a20696e73756666696369656e7420616c6c6f77616e63650000006044820152fd5b5050346101e757816003193601126101e7576020906035549051908152f35b503461019a5760209081600319360112610c385760c9548351630966d5bb60e01b8082526001600160a01b0392831692909185818681875afa90811561103f578891611022575b50163303610fb95783908386518094819382525afa928315610faf5761014594508593610f90575b50503590611612565b610fa7929350803d106102df576102d1818361129e565b903880610f87565b84513d87823e3d90fd5b845162461bcd60e51b8152808401859052603d60248201527f47656e6573697320746f6b656e732063616e206f6e6c79206265206d696e746560448201527f64206279207468652047656e65736973204e465420636f6e74726163740000006064820152608490fd5b6110399150863d88116102df576102d1818361129e565b38610f5f565b87513d8a823e3d90fd5b5050346101e757806003193601126101e75760209061031a611069611164565b6024359033611469565b8490843461019a578260031936011261019a578260365461109381611264565b8085529160019180831690811561048157506001146110be575050506104168261042094038361129e565b9450603685527f4a11f94e20a93c79f6ec743a1954ec4fc2c08429ae2122118bf234b2185c81b85b828610611103575050506104168260206104209582010194610404565b805460208787018101919091529095019481016110e6565b6020808252825181830181905290939260005b82811061115057505060409293506000838284010152601f8019910116010190565b81810186015184820160400152850161112e565b600435906001600160a01b038216820361117a57565b600080fd5b602435906001600160a01b038216820361117a57565b9181601f8401121561117a5782359167ffffffffffffffff831161117a576020838186019501011161117a57565b6065546001600160a01b031633036111d757565b606460405162461bcd60e51b815260206004820152602060248201527f4f776e61626c653a2063616c6c6572206973206e6f7420746865206f776e65726044820152fd5b606580546001600160a01b039283166001600160a01b0319821681179092559091167f8be0079c531659141344cd1fd0a4f28419497f9722a3daafe3b4186f6b6457e0600080a3565b90600182811c92168015611294575b602083101461127e57565b634e487b7160e01b600052602260045260246000fd5b91607f1691611273565b90601f8019910116810190811067ffffffffffffffff8211176112c057604052565b634e487b7160e01b600052604160045260246000fd5b919082018092116112e357565b634e487b7160e01b600052601160045260246000fd5b6001600160a01b0390811691821561141657169182156113c5576000828152603360205260408120549180831061137157604082827fddf252ad1be2c89b69c2b068fc378daa952ba7f163c4a11628f55a4df523b3ef95876020965260338652038282205586815220818154019055604051908152a3565b60405162461bcd60e51b815260206004820152602660248201527f45524332303a207472616e7366657220616d6f756e7420657863656564732062604482015265616c616e636560d01b6064820152608490fd5b60405162461bcd60e51b815260206004820152602360248201527f45524332303a207472616e7366657220746f20746865207a65726f206164647260448201526265737360e81b6064820152608490fd5b60405162461bcd60e51b815260206004820152602560248201527f45524332303a207472616e736665722066726f6d20746865207a65726f206164604482015264647265737360d81b6064820152608490fd5b6001600160a01b0390811691821561151a57169182156114ca5760207f8c5be1e5ebec7d5bd14f71427d1e84f3dd0314c0f7b2291e5b200ac8c7c3b925918360005260348252604060002085600052825280604060002055604051908152a3565b60405162461bcd60e51b815260206004820152602260248201527f45524332303a20617070726f766520746f20746865207a65726f206164647265604482015261737360f01b6064820152608490fd5b60405162461bcd60e51b8152602060048201526024808201527f45524332303a20617070726f76652066726f6d20746865207a65726f206164646044820152637265737360e01b6064820152608490fd5b92919267ffffffffffffffff82116112c05760405191611595601f8201601f19166020018461129e565b82948184528183011161117a578281602093846000960137010152565b156115b957565b60405162461bcd60e51b815260206004820152602b60248201527f496e697469616c697a61626c653a20636f6e7472616374206973206e6f74206960448201526a6e697469616c697a696e6760a81b6064820152608490fd5b6035549061162083836112d6565b60cb54106116ca576001600160a01b0316918215611685576020816116687fddf252ad1be2c89b69c2b068fc378daa952ba7f163c4a11628f55a4df523b3ef936000956112d6565b6035558484526033825260408420818154019055604051908152a3565b60405162461bcd60e51b815260206004820152601f60248201527f45524332303a206d696e7420746f20746865207a65726f2061646472657373006044820152606490fd5b60405162461bcd60e51b815260206004820152601960248201527f4e6174697665546f6b656e3a20636170206578636565646564000000000000006044820152606490fd5b9081602091031261117a57516001600160a01b038116810361117a579056fea2646970667358221220479d1a60bf748eb24ed545a422cf5ff9e967c383674cd6e97c5816ec9e259f0264736f6c63430008130033",
  "linkReferences": {},
  "deployedLinkReferences": {}
}