{
  "_format": "hh-sol-artifact-1",
  "contractName": "NativeToken",
  "sourceName": "contracts/protocol/NativeToken.sol",
  "abi": [
    {
      "anonymous": false,
      "inputs": [
        {
          "indexed": true,
          "internalType": "address",
          "name": "owner",
          "type": "address"
        },
        {
          "indexed": true,
          "internalType": "address",
          "name": "spender",
          "type": "address"
        },
        {
          "indexed": false,
          "internalType": "uint256",
          "name": "value",
          "type": "uint256"
        }
      ],
      "name": "Approval",
      "type": "event"
    },
    {
      "anonymous": false,
      "inputs": [
        {
          "indexed": false,
          "internalType": "uint8",
          "name": "version",
          "type": "uint8"
        }
      ],
      "name": "Initialized",
      "type": "event"
    },
    {
      "anonymous": false,
      "inputs": [
        {
          "indexed": true,
          "internalType": "address",
          "name": "previousOwner",
          "type": "address"
        },
        {
          "indexed": true,
          "internalType": "address",
          "name": "newOwner",
          "type": "address"
        }
      ],
      "name": "OwnershipTransferred",
      "type": "event"
    },
    {
      "anonymous": false,
      "inputs": [
        {
          "indexed": true,
          "internalType": "address",
          "name": "from",
          "type": "address"
        },
        {
          "indexed": true,
          "internalType": "address",
          "name": "to",
          "type": "address"
        },
        {
          "indexed": false,
          "internalType": "uint256",
          "name": "value",
          "type": "uint256"
        }
      ],
      "name": "Transfer",
      "type": "event"
    },
    {
      "inputs": [
        {
          "internalType": "address",
          "name": "owner",
          "type": "address"
        },
        {
          "internalType": "address",
          "name": "spender",
          "type": "address"
        }
      ],
      "name": "allowance",
      "outputs": [
        {
          "internalType": "uint256",
          "name": "",
          "type": "uint256"
        }
      ],
      "stateMutability": "view",
      "type": "function"
    },
    {
      "inputs": [
        {
          "internalType": "address",
          "name": "spender",
          "type": "address"
        },
        {
          "internalType": "uint256",
          "name": "amount",
          "type": "uint256"
        }
      ],
      "name": "approve",
      "outputs": [
        {
          "internalType": "bool",
          "name": "",
          "type": "bool"
        }
      ],
      "stateMutability": "nonpayable",
      "type": "function"
    },
    {
      "inputs": [
        {
          "internalType": "address",
          "name": "account",
          "type": "address"
        }
      ],
      "name": "balanceOf",
      "outputs": [
        {
          "internalType": "uint256",
          "name": "",
          "type": "uint256"
        }
      ],
      "stateMutability": "view",
      "type": "function"
    },
    {
      "inputs": [],
      "name": "decimals",
      "outputs": [
        {
          "internalType": "uint8",
          "name": "",
          "type": "uint8"
        }
      ],
      "stateMutability": "view",
      "type": "function"
    },
    {
      "inputs": [
        {
          "internalType": "address",
          "name": "spender",
          "type": "address"
        },
        {
          "internalType": "uint256",
          "name": "subtractedValue",
          "type": "uint256"
        }
      ],
      "name": "decreaseAllowance",
      "outputs": [
        {
          "internalType": "bool",
          "name": "",
          "type": "bool"
        }
      ],
      "stateMutability": "nonpayable",
      "type": "function"
    },
    {
      "inputs": [
        {
          "internalType": "uint256",
          "name": "amount",
          "type": "uint256"
        }
      ],
      "name": "distributeRewards",
      "outputs": [],
      "stateMutability": "nonpayable",
      "type": "function"
    },
    {
      "inputs": [
        {
          "internalType": "address",
          "name": "spender",
          "type": "address"
        },
        {
          "internalType": "uint256",
          "name": "addedValue",
          "type": "uint256"
        }
      ],
      "name": "increaseAllowance",
      "outputs": [
        {
          "internalType": "bool",
          "name": "",
          "type": "bool"
        }
      ],
      "stateMutability": "nonpayable",
      "type": "function"
    },
    {
      "inputs": [
        {
          "internalType": "contract IMarketAddressesProvider",
          "name": "addressProvider",
          "type": "address"
        },
        {
          "internalType": "string",
          "name": "name",
          "type": "string"
        },
        {
          "internalType": "string",
          "name": "symbol",
          "type": "string"
        }
      ],
      "name": "initialize",
      "outputs": [],
      "stateMutability": "nonpayable",
      "type": "function"
    },
    {
      "inputs": [
        {
          "internalType": "address",
          "name": "account",
          "type": "address"
        },
        {
          "internalType": "uint256",
          "name": "amount",
          "type": "uint256"
        }
      ],
      "name": "mint",
      "outputs": [],
      "stateMutability": "nonpayable",
      "type": "function"
    },
    {
      "inputs": [],
      "name": "name",
      "outputs": [
        {
          "internalType": "string",
          "name": "",
          "type": "string"
        }
      ],
      "stateMutability": "view",
      "type": "function"
    },
    {
      "inputs": [],
      "name": "owner",
      "outputs": [
        {
          "internalType": "address",
          "name": "",
          "type": "address"
        }
      ],
      "stateMutability": "view",
      "type": "function"
    },
    {
      "inputs": [],
      "name": "renounceOwnership",
      "outputs": [],
      "stateMutability": "nonpayable",
      "type": "function"
    },
    {
      "inputs": [],
      "name": "symbol",
      "outputs": [
        {
          "internalType": "string",
          "name": "",
          "type": "string"
        }
      ],
      "stateMutability": "view",
      "type": "function"
    },
    {
      "inputs": [],
      "name": "totalSupply",
      "outputs": [
        {
          "internalType": "uint256",
          "name": "",
          "type": "uint256"
        }
      ],
      "stateMutability": "view",
      "type": "function"
    },
    {
      "inputs": [
        {
          "internalType": "address",
          "name": "to",
          "type": "address"
        },
        {
          "internalType": "uint256",
          "name": "amount",
          "type": "uint256"
        }
      ],
      "name": "transfer",
      "outputs": [
        {
          "internalType": "bool",
          "name": "",
          "type": "bool"
        }
      ],
      "stateMutability": "nonpayable",
      "type": "function"
    },
    {
      "inputs": [
        {
          "internalType": "address",
          "name": "from",
          "type": "address"
        },
        {
          "internalType": "address",
          "name": "to",
          "type": "address"
        },
        {
          "internalType": "uint256",
          "name": "amount",
          "type": "uint256"
        }
      ],
      "name": "transferFrom",
      "outputs": [
        {
          "internalType": "bool",
          "name": "",
          "type": "bool"
        }
      ],
      "stateMutability": "nonpayable",
      "type": "function"
    },
    {
      "inputs": [
        {
          "internalType": "address",
          "name": "newOwner",
          "type": "address"
        }
      ],
      "name": "transferOwnership",
      "outputs": [],
      "stateMutability": "nonpayable",
      "type": "function"
    }
  ],
  "bytecode": "0x608060405234801561001057600080fd5b50612449806100206000396000f3fe608060405234801561001057600080fd5b506004361061010b5760003560e01c806370a08231116100a257806395d89b411161007157806395d89b41146102a6578063a457c2d7146102c4578063a9059cbb146102f4578063dd62ed3e14610324578063f2fde38b146103545761010b565b806370a0823114610232578063715018a6146102625780638da5cb5b1461026c578063906571471461028a5761010b565b8063313ce567116100de578063313ce567146101ac57806339509351146101ca57806340c10f19146101fa57806359974e38146102165761010b565b806306fdde0314610110578063095ea7b31461012e57806318160ddd1461015e57806323b872dd1461017c575b600080fd5b610118610370565b604051610125919061159d565b60405180910390f35b6101486004803603810190610143919061165d565b610402565b60405161015591906116b8565b60405180910390f35b610166610425565b60405161017391906116e2565b60405180910390f35b610196600480360381019061019191906116fd565b61042f565b6040516101a391906116b8565b60405180910390f35b6101b461045e565b6040516101c1919061176c565b60405180910390f35b6101e460048036038101906101df919061165d565b610467565b6040516101f191906116b8565b60405180910390f35b610214600480360381019061020f919061165d565b61049e565b005b610230600480360381019061022b9190611787565b610528565b005b61024c600480360381019061024791906117b4565b610647565b60405161025991906116e2565b60405180910390f35b61026a610690565b005b610274610718565b60405161028191906117f0565b60405180910390f35b6102a4600480360381019061029f91906118ae565b610742565b005b6102ae6108ae565b6040516102bb919061159d565b60405180910390f35b6102de60048036038101906102d9919061165d565b610940565b6040516102eb91906116b8565b60405180910390f35b61030e6004803603810190610309919061165d565b6109b7565b60405161031b91906116b8565b60405180910390f35b61033e60048036038101906103399190611943565b6109da565b60405161034b91906116e2565b60405180910390f35b61036e600480360381019061036991906117b4565b610a61565b005b60606036805461037f906119b2565b80601f01602080910402602001604051908101604052809291908181526020018280546103ab906119b2565b80156103f85780601f106103cd576101008083540402835291602001916103f8565b820191906000526020600020905b8154815290600101906020018083116103db57829003601f168201915b5050505050905090565b60008061040d610b58565b905061041a818585610b60565b600191505092915050565b6000603554905090565b60008061043a610b58565b9050610447858285610d29565b610452858585610db5565b60019150509392505050565b60006012905090565b600080610472610b58565b905061049381858561048485896109da565b61048e9190611a12565b610b60565b600191505092915050565b6104a6610b58565b73ffffffffffffffffffffffffffffffffffffffff166104c4610718565b73ffffffffffffffffffffffffffffffffffffffff161461051a576040517f08c379a000000000000000000000000000000000000000000000000000000000815260040161051190611ab4565b60405180910390fd5b6105248282611037565b5050565b610530610b58565b73ffffffffffffffffffffffffffffffffffffffff1661054e610718565b73ffffffffffffffffffffffffffffffffffffffff16146105a4576040517f08c379a000000000000000000000000000000000000000000000000000000000815260040161059b90611ab4565b60405180910390fd5b6000609760009054906101000a900473ffffffffffffffffffffffffffffffffffffffff1673ffffffffffffffffffffffffffffffffffffffff16639cbec2566040518163ffffffff1660e01b8152600401602060405180830381865afa158015610613573d6000803e3d6000fd5b505050506040513d601f19601f820116820180604052508101906106379190611ae9565b90506106438183611037565b5050565b6000603360008373ffffffffffffffffffffffffffffffffffffffff1673ffffffffffffffffffffffffffffffffffffffff168152602001908152602001600020549050919050565b610698610b58565b73ffffffffffffffffffffffffffffffffffffffff166106b6610718565b73ffffffffffffffffffffffffffffffffffffffff161461070c576040517f08c379a000000000000000000000000000000000000000000000000000000000815260040161070390611ab4565b60405180910390fd5b6107166000611197565b565b6000606560009054906101000a900473ffffffffffffffffffffffffffffffffffffffff16905090565b600061074e600161125d565b90508015610772576001600060016101000a81548160ff0219169083151502179055505b61077a61134d565b61080c85858080601f016020809104026020016040519081016040528093929190818152602001838380828437600081840152601f19601f8201169050808301925050505050505084848080601f016020809104026020016040519081016040528093929190818152602001838380828437600081840152601f19601f820116905080830192505050505050506113a6565b85609760006101000a81548173ffffffffffffffffffffffffffffffffffffffff021916908373ffffffffffffffffffffffffffffffffffffffff16021790555080156108a65760008060016101000a81548160ff0219169083151502179055507f7f26b83ff96e1f2b6a682f133852f6798a09c465da95921460cefb3847402498600160405161089d9190611b5b565b60405180910390a15b505050505050565b6060603780546108bd906119b2565b80601f01602080910402602001604051908101604052809291908181526020018280546108e9906119b2565b80156109365780601f1061090b57610100808354040283529160200191610936565b820191906000526020600020905b81548152906001019060200180831161091957829003601f168201915b5050505050905090565b60008061094b610b58565b9050600061095982866109da565b90508381101561099e576040517f08c379a000000000000000000000000000000000000000000000000000000000815260040161099590611be8565b60405180910390fd5b6109ab8286868403610b60565b60019250505092915050565b6000806109c2610b58565b90506109cf818585610db5565b600191505092915050565b6000603460008473ffffffffffffffffffffffffffffffffffffffff1673ffffffffffffffffffffffffffffffffffffffff16815260200190815260200160002060008373ffffffffffffffffffffffffffffffffffffffff1673ffffffffffffffffffffffffffffffffffffffff16815260200190815260200160002054905092915050565b610a69610b58565b73ffffffffffffffffffffffffffffffffffffffff16610a87610718565b73ffffffffffffffffffffffffffffffffffffffff1614610add576040517f08c379a0000000000000000000000000000000000000000000000000000000008152600401610ad490611ab4565b60405180910390fd5b600073ffffffffffffffffffffffffffffffffffffffff168173ffffffffffffffffffffffffffffffffffffffff1603610b4c576040517f08c379a0000000000000000000000000000000000000000000000000000000008152600401610b4390611c7a565b60405180910390fd5b610b5581611197565b50565b600033905090565b600073ffffffffffffffffffffffffffffffffffffffff168373ffffffffffffffffffffffffffffffffffffffff1603610bcf576040517f08c379a0000000000000000000000000000000000000000000000000000000008152600401610bc690611d0c565b60405180910390fd5b600073ffffffffffffffffffffffffffffffffffffffff168273ffffffffffffffffffffffffffffffffffffffff1603610c3e576040517f08c379a0000000000000000000000000000000000000000000000000000000008152600401610c3590611d9e565b60405180910390fd5b80603460008573ffffffffffffffffffffffffffffffffffffffff1673ffffffffffffffffffffffffffffffffffffffff16815260200190815260200160002060008473ffffffffffffffffffffffffffffffffffffffff1673ffffffffffffffffffffffffffffffffffffffff168152602001908152602001600020819055508173ffffffffffffffffffffffffffffffffffffffff168373ffffffffffffffffffffffffffffffffffffffff167f8c5be1e5ebec7d5bd14f71427d1e84f3dd0314c0f7b2291e5b200ac8c7c3b92583604051610d1c91906116e2565b60405180910390a3505050565b6000610d3584846109da565b90507fffffffffffffffffffffffffffffffffffffffffffffffffffffffffffffffff8114610daf5781811015610da1576040517f08c379a0000000000000000000000000000000000000000000000000000000008152600401610d9890611e0a565b60405180910390fd5b610dae8484848403610b60565b5b50505050565b600073ffffffffffffffffffffffffffffffffffffffff168373ffffffffffffffffffffffffffffffffffffffff1603610e24576040517f08c379a0000000000000000000000000000000000000000000000000000000008152600401610e1b90611e9c565b60405180910390fd5b600073ffffffffffffffffffffffffffffffffffffffff168273ffffffffffffffffffffffffffffffffffffffff1603610e93576040517f08c379a0000000000000000000000000000000000000000000000000000000008152600401610e8a90611f2e565b60405180910390fd5b610e9e838383611403565b6000603360008573ffffffffffffffffffffffffffffffffffffffff1673ffffffffffffffffffffffffffffffffffffffff16815260200190815260200160002054905081811015610f25576040517f08c379a0000000000000000000000000000000000000000000000000000000008152600401610f1c90611fc0565b60405180910390fd5b818103603360008673ffffffffffffffffffffffffffffffffffffffff1673ffffffffffffffffffffffffffffffffffffffff1681526020019081526020016000208190555081603360008573ffffffffffffffffffffffffffffffffffffffff1673ffffffffffffffffffffffffffffffffffffffff1681526020019081526020016000206000828254610fba9190611a12565b925050819055508273ffffffffffffffffffffffffffffffffffffffff168473ffffffffffffffffffffffffffffffffffffffff167fddf252ad1be2c89b69c2b068fc378daa952ba7f163c4a11628f55a4df523b3ef8460405161101e91906116e2565b60405180910390a3611031848484611408565b50505050565b600073ffffffffffffffffffffffffffffffffffffffff168273ffffffffffffffffffffffffffffffffffffffff16036110a6576040517f08c379a000000000000000000000000000000000000000000000000000000000815260040161109d9061202c565b60405180910390fd5b6110b260008383611403565b80603560008282546110c49190611a12565b9250508190555080603360008473ffffffffffffffffffffffffffffffffffffffff1673ffffffffffffffffffffffffffffffffffffffff168152602001908152602001600020600082825461111a9190611a12565b925050819055508173ffffffffffffffffffffffffffffffffffffffff16600073ffffffffffffffffffffffffffffffffffffffff167fddf252ad1be2c89b69c2b068fc378daa952ba7f163c4a11628f55a4df523b3ef8360405161117f91906116e2565b60405180910390a361119360008383611408565b5050565b6000606560009054906101000a900473ffffffffffffffffffffffffffffffffffffffff16905081606560006101000a81548173ffffffffffffffffffffffffffffffffffffffff021916908373ffffffffffffffffffffffffffffffffffffffff1602179055508173ffffffffffffffffffffffffffffffffffffffff168173ffffffffffffffffffffffffffffffffffffffff167f8be0079c531659141344cd1fd0a4f28419497f9722a3daafe3b4186f6b6457e060405160405180910390a35050565b60008060019054906101000a900460ff16156112d45760018260ff1614801561128c575061128a3061140d565b155b6112cb576040517f08c379a00000000000000000000000000000000000000000000000000000000081526004016112c2906120be565b60405180910390fd5b60009050611348565b8160ff1660008054906101000a900460ff1660ff1610611329576040517f08c379a0000000000000000000000000000000000000000000000000000000008152600401611320906120be565b60405180910390fd5b816000806101000a81548160ff021916908360ff160217905550600190505b919050565b600060019054906101000a900460ff1661139c576040517f08c379a000000000000000000000000000000000000000000000000000000000815260040161139390612150565b60405180910390fd5b6113a4611430565b565b600060019054906101000a900460ff166113f5576040517f08c379a00000000000000000000000000000000000000000000000000000000081526004016113ec90612150565b60405180910390fd5b6113ff8282611491565b5050565b505050565b505050565b6000808273ffffffffffffffffffffffffffffffffffffffff163b119050919050565b600060019054906101000a900460ff1661147f576040517f08c379a000000000000000000000000000000000000000000000000000000000815260040161147690612150565b60405180910390fd5b61148f61148a610b58565b611197565b565b600060019054906101000a900460ff166114e0576040517f08c379a00000000000000000000000000000000000000000000000000000000081526004016114d790612150565b60405180910390fd5b81603690816114ef9190612341565b5080603790816114ff9190612341565b505050565b600081519050919050565b600082825260208201905092915050565b60005b8381101561153e578082015181840152602081019050611523565b8381111561154d576000848401525b50505050565b6000601f19601f8301169050919050565b600061156f82611504565b611579818561150f565b9350611589818560208601611520565b61159281611553565b840191505092915050565b600060208201905081810360008301526115b78184611564565b905092915050565b600080fd5b600080fd5b600073ffffffffffffffffffffffffffffffffffffffff82169050919050565b60006115f4826115c9565b9050919050565b611604816115e9565b811461160f57600080fd5b50565b600081359050611621816115fb565b92915050565b6000819050919050565b61163a81611627565b811461164557600080fd5b50565b60008135905061165781611631565b92915050565b60008060408385031215611674576116736115bf565b5b600061168285828601611612565b925050602061169385828601611648565b9150509250929050565b60008115159050919050565b6116b28161169d565b82525050565b60006020820190506116cd60008301846116a9565b92915050565b6116dc81611627565b82525050565b60006020820190506116f760008301846116d3565b92915050565b600080600060608486031215611716576117156115bf565b5b600061172486828701611612565b935050602061173586828701611612565b925050604061174686828701611648565b9150509250925092565b600060ff82169050919050565b61176681611750565b82525050565b6000602082019050611781600083018461175d565b92915050565b60006020828403121561179d5761179c6115bf565b5b60006117ab84828501611648565b91505092915050565b6000602082840312156117ca576117c96115bf565b5b60006117d884828501611612565b91505092915050565b6117ea816115e9565b82525050565b600060208201905061180560008301846117e1565b92915050565b6000611816826115e9565b9050919050565b6118268161180b565b811461183157600080fd5b50565b6000813590506118438161181d565b92915050565b600080fd5b600080fd5b600080fd5b60008083601f84011261186e5761186d611849565b5b8235905067ffffffffffffffff81111561188b5761188a61184e565b5b6020830191508360018202830111156118a7576118a6611853565b5b9250929050565b6000806000806000606086880312156118ca576118c96115bf565b5b60006118d888828901611834565b955050602086013567ffffffffffffffff8111156118f9576118f86115c4565b5b61190588828901611858565b9450945050604086013567ffffffffffffffff811115611928576119276115c4565b5b61193488828901611858565b92509250509295509295909350565b6000806040838503121561195a576119596115bf565b5b600061196885828601611612565b925050602061197985828601611612565b9150509250929050565b7f4e487b7100000000000000000000000000000000000000000000000000000000600052602260045260246000fd5b600060028204905060018216806119ca57607f821691505b6020821081036119dd576119dc611983565b5b50919050565b7f4e487b7100000000000000000000000000000000000000000000000000000000600052601160045260246000fd5b6000611a1d82611627565b9150611a2883611627565b9250827fffffffffffffffffffffffffffffffffffffffffffffffffffffffffffffffff03821115611a5d57611a5c6119e3565b5b828201905092915050565b7f4f776e61626c653a2063616c6c6572206973206e6f7420746865206f776e6572600082015250565b6000611a9e60208361150f565b9150611aa982611a68565b602082019050919050565b60006020820190508181036000830152611acd81611a91565b9050919050565b600081519050611ae3816115fb565b92915050565b600060208284031215611aff57611afe6115bf565b5b6000611b0d84828501611ad4565b91505092915050565b6000819050919050565b6000819050919050565b6000611b45611b40611b3b84611b16565b611b20565b611750565b9050919050565b611b5581611b2a565b82525050565b6000602082019050611b706000830184611b4c565b92915050565b7f45524332303a2064656372656173656420616c6c6f77616e63652062656c6f7760008201527f207a65726f000000000000000000000000000000000000000000000000000000602082015250565b6000611bd260258361150f565b9150611bdd82611b76565b604082019050919050565b60006020820190508181036000830152611c0181611bc5565b9050919050565b7f4f776e61626c653a206e6577206f776e657220697320746865207a65726f206160008201527f6464726573730000000000000000000000000000000000000000000000000000602082015250565b6000611c6460268361150f565b9150611c6f82611c08565b604082019050919050565b60006020820190508181036000830152611c9381611c57565b9050919050565b7f45524332303a20617070726f76652066726f6d20746865207a65726f2061646460008201527f7265737300000000000000000000000000000000000000000000000000000000602082015250565b6000611cf660248361150f565b9150611d0182611c9a565b604082019050919050565b60006020820190508181036000830152611d2581611ce9565b9050919050565b7f45524332303a20617070726f766520746f20746865207a65726f20616464726560008201527f7373000000000000000000000000000000000000000000000000000000000000602082015250565b6000611d8860228361150f565b9150611d9382611d2c565b604082019050919050565b60006020820190508181036000830152611db781611d7b565b9050919050565b7f45524332303a20696e73756666696369656e7420616c6c6f77616e6365000000600082015250565b6000611df4601d8361150f565b9150611dff82611dbe565b602082019050919050565b60006020820190508181036000830152611e2381611de7565b9050919050565b7f45524332303a207472616e736665722066726f6d20746865207a65726f20616460008201527f6472657373000000000000000000000000000000000000000000000000000000602082015250565b6000611e8660258361150f565b9150611e9182611e2a565b604082019050919050565b60006020820190508181036000830152611eb581611e79565b9050919050565b7f45524332303a207472616e7366657220746f20746865207a65726f206164647260008201527f6573730000000000000000000000000000000000000000000000000000000000602082015250565b6000611f1860238361150f565b9150611f2382611ebc565b604082019050919050565b60006020820190508181036000830152611f4781611f0b565b9050919050565b7f45524332303a207472616e7366657220616d6f756e742065786365656473206260008201527f616c616e63650000000000000000000000000000000000000000000000000000602082015250565b6000611faa60268361150f565b9150611fb582611f4e565b604082019050919050565b60006020820190508181036000830152611fd981611f9d565b9050919050565b7f45524332303a206d696e7420746f20746865207a65726f206164647265737300600082015250565b6000612016601f8361150f565b915061202182611fe0565b602082019050919050565b6000602082019050818103600083015261204581612009565b9050919050565b7f496e697469616c697a61626c653a20636f6e747261637420697320616c72656160008201527f647920696e697469616c697a6564000000000000000000000000000000000000602082015250565b60006120a8602e8361150f565b91506120b38261204c565b604082019050919050565b600060208201905081810360008301526120d78161209b565b9050919050565b7f496e697469616c697a61626c653a20636f6e7472616374206973206e6f74206960008201527f6e697469616c697a696e67000000000000000000000000000000000000000000602082015250565b600061213a602b8361150f565b9150612145826120de565b604082019050919050565b600060208201905081810360008301526121698161212d565b9050919050565b7f4e487b7100000000000000000000000000000000000000000000000000000000600052604160045260246000fd5b60008190508160005260206000209050919050565b60006020601f8301049050919050565b600082821b905092915050565b6000600883026122017fffffffffffffffffffffffffffffffffffffffffffffffffffffffffffffffff826121c4565b61220b86836121c4565b95508019841693508086168417925050509392505050565b600061223e61223961223484611627565b611b20565b611627565b9050919050565b6000819050919050565b61225883612223565b61226c61226482612245565b8484546121d1565b825550505050565b600090565b612281612274565b61228c81848461224f565b505050565b5b818110156122b0576122a5600082612279565b600181019050612292565b5050565b601f8211156122f5576122c68161219f565b6122cf846121b4565b810160208510156122de578190505b6122f26122ea856121b4565b830182612291565b50505b505050565b600082821c905092915050565b6000612318600019846008026122fa565b1980831691505092915050565b60006123318383612307565b9150826002028217905092915050565b61234a82611504565b67ffffffffffffffff81111561236357612362612170565b5b61236d82546119b2565b6123788282856122b4565b600060209050601f8311600181146123ab5760008415612399578287015190505b6123a38582612325565b86555061240b565b601f1984166123b98661219f565b60005b828110156123e1578489015182556001820191506020850194506020810190506123bc565b868310156123fe57848901516123fa601f891682612307565b8355505b6001600288020188555050505b50505050505056fea2646970667358221220627d8b7900af9df0e55dd2b367ec1264db00bcd11517e740b1f60c682a18086464736f6c634300080f0033",
  "linkReferences": {},
  "deployedLinkReferences": {}
}