{
  "_format": "hh-sol-artifact-1",
  "contractName": "NativeTokenVault",
  "sourceName": "contracts/protocol/NativeTokenVault.sol",
  "abi": [
    {
      "anonymous": false,
      "inputs": [
        {
          "indexed": true,
          "internalType": "address",
          "name": "owner",
          "type": "address"
        },
        {
          "indexed": true,
          "internalType": "address",
          "name": "spender",
          "type": "address"
        },
        {
          "indexed": false,
          "internalType": "uint256",
          "name": "value",
          "type": "uint256"
        }
      ],
      "name": "Approval",
      "type": "event"
    },
    {
      "anonymous": false,
      "inputs": [
        {
          "indexed": true,
          "internalType": "address",
          "name": "user",
          "type": "address"
        },
        {
          "indexed": false,
          "internalType": "uint256",
          "name": "amount",
          "type": "uint256"
        }
      ],
      "name": "Deposit",
      "type": "event"
    },
    {
      "anonymous": false,
      "inputs": [
        {
          "indexed": false,
          "internalType": "uint256",
          "name": "_amount",
          "type": "uint256"
        }
      ],
      "name": "DistributeRewards",
      "type": "event"
    },
    {
      "anonymous": false,
      "inputs": [
        {
          "indexed": false,
          "internalType": "uint8",
          "name": "version",
          "type": "uint8"
        }
      ],
      "name": "Initialized",
      "type": "event"
    },
    {
      "anonymous": false,
      "inputs": [
        {
          "indexed": true,
          "internalType": "address",
          "name": "previousOwner",
          "type": "address"
        },
        {
          "indexed": true,
          "internalType": "address",
          "name": "newOwner",
          "type": "address"
        }
      ],
      "name": "OwnershipTransferred",
      "type": "event"
    },
    {
      "anonymous": false,
      "inputs": [
        {
          "indexed": true,
          "internalType": "address",
          "name": "user",
          "type": "address"
        },
        {
          "indexed": true,
          "internalType": "address",
          "name": "collection",
          "type": "address"
        },
        {
          "indexed": false,
          "internalType": "uint256",
          "name": "amount",
          "type": "uint256"
        }
      ],
      "name": "RemoveVote",
      "type": "event"
    },
    {
      "anonymous": false,
      "inputs": [
        {
          "indexed": true,
          "internalType": "address",
          "name": "from",
          "type": "address"
        },
        {
          "indexed": true,
          "internalType": "address",
          "name": "to",
          "type": "address"
        },
        {
          "indexed": false,
          "internalType": "uint256",
          "name": "value",
          "type": "uint256"
        }
      ],
      "name": "Transfer",
      "type": "event"
    },
    {
      "anonymous": false,
      "inputs": [
        {
          "indexed": true,
          "internalType": "address",
          "name": "user",
          "type": "address"
        },
        {
          "indexed": true,
          "internalType": "address",
          "name": "collection",
          "type": "address"
        },
        {
          "indexed": false,
          "internalType": "uint256",
          "name": "amount",
          "type": "uint256"
        }
      ],
      "name": "Vote",
      "type": "event"
    },
    {
      "anonymous": false,
      "inputs": [
        {
          "indexed": true,
          "internalType": "address",
          "name": "user",
          "type": "address"
        },
        {
          "indexed": false,
          "internalType": "uint256",
          "name": "amount",
          "type": "uint256"
        }
      ],
      "name": "Withdraw",
      "type": "event"
    },
    {
      "inputs": [
        {
          "internalType": "address",
          "name": "owner",
          "type": "address"
        },
        {
          "internalType": "address",
          "name": "spender",
          "type": "address"
        }
      ],
      "name": "allowance",
      "outputs": [
        {
          "internalType": "uint256",
          "name": "",
          "type": "uint256"
        }
      ],
      "stateMutability": "view",
      "type": "function"
    },
    {
      "inputs": [
        {
          "internalType": "address",
          "name": "spender",
          "type": "address"
        },
        {
          "internalType": "uint256",
          "name": "amount",
          "type": "uint256"
        }
      ],
      "name": "approve",
      "outputs": [
        {
          "internalType": "bool",
          "name": "",
          "type": "bool"
        }
      ],
      "stateMutability": "nonpayable",
      "type": "function"
    },
    {
      "inputs": [
        {
          "internalType": "address",
          "name": "account",
          "type": "address"
        }
      ],
      "name": "balanceOf",
      "outputs": [
        {
          "internalType": "uint256",
          "name": "",
          "type": "uint256"
        }
      ],
      "stateMutability": "view",
      "type": "function"
    },
    {
      "inputs": [
        {
          "internalType": "address",
          "name": "user",
          "type": "address"
        },
        {
          "internalType": "address",
          "name": "collection",
          "type": "address"
        },
        {
          "internalType": "uint256",
          "name": "votes",
          "type": "uint256"
        }
      ],
      "name": "calculateLTVBoost",
      "outputs": [
        {
          "internalType": "uint256",
          "name": "",
          "type": "uint256"
        }
      ],
      "stateMutability": "view",
      "type": "function"
    },
    {
      "inputs": [
        {
          "internalType": "uint256",
          "name": "amount",
          "type": "uint256"
        }
      ],
      "name": "createWithdrawalRequest",
      "outputs": [],
      "stateMutability": "nonpayable",
      "type": "function"
    },
    {
      "inputs": [],
      "name": "decimals",
      "outputs": [
        {
          "internalType": "uint8",
          "name": "",
          "type": "uint8"
        }
      ],
      "stateMutability": "view",
      "type": "function"
    },
    {
      "inputs": [
        {
          "internalType": "address",
          "name": "spender",
          "type": "address"
        },
        {
          "internalType": "uint256",
          "name": "subtractedValue",
          "type": "uint256"
        }
      ],
      "name": "decreaseAllowance",
      "outputs": [
        {
          "internalType": "bool",
          "name": "",
          "type": "bool"
        }
      ],
      "stateMutability": "nonpayable",
      "type": "function"
    },
    {
      "inputs": [
        {
          "internalType": "uint256",
          "name": "amount",
          "type": "uint256"
        }
      ],
      "name": "deposit",
      "outputs": [],
      "stateMutability": "nonpayable",
      "type": "function"
    },
    {
      "inputs": [],
      "name": "distributeStakingRewards",
      "outputs": [],
      "stateMutability": "nonpayable",
      "type": "function"
    },
    {
      "inputs": [],
      "name": "getBoostFactor",
      "outputs": [
        {
          "internalType": "uint256",
          "name": "",
          "type": "uint256"
        }
      ],
      "stateMutability": "view",
      "type": "function"
    },
    {
      "inputs": [],
      "name": "getBoostLimit",
      "outputs": [
        {
          "internalType": "uint256",
          "name": "",
          "type": "uint256"
        }
      ],
      "stateMutability": "view",
      "type": "function"
    },
    {
      "inputs": [
        {
          "internalType": "address",
          "name": "user",
          "type": "address"
        },
        {
          "internalType": "address",
          "name": "collection",
          "type": "address"
        }
      ],
      "name": "getLTVBoost",
      "outputs": [
        {
          "internalType": "uint256",
          "name": "",
          "type": "uint256"
        }
      ],
      "stateMutability": "view",
      "type": "function"
    },
    {
      "inputs": [
        {
          "internalType": "address",
          "name": "reserve",
          "type": "address"
        },
        {
          "internalType": "uint256",
          "name": "reserveTokenPrice",
          "type": "uint256"
        },
        {
          "internalType": "uint256",
          "name": "assetPrice",
          "type": "uint256"
        },
        {
          "internalType": "uint256",
          "name": "liquidationPrice",
          "type": "uint256"
        }
      ],
      "name": "getLiquidationReward",
      "outputs": [
        {
          "internalType": "uint256",
          "name": "",
          "type": "uint256"
        }
      ],
      "stateMutability": "view",
      "type": "function"
    },
    {
      "inputs": [],
      "name": "getLiquidationRewardFactor",
      "outputs": [
        {
          "internalType": "uint256",
          "name": "",
          "type": "uint256"
        }
      ],
      "stateMutability": "view",
      "type": "function"
    },
    {
      "inputs": [],
      "name": "getLiquidationRewardPriceLimit",
      "outputs": [
        {
          "internalType": "uint256",
          "name": "",
          "type": "uint256"
        }
      ],
      "stateMutability": "view",
      "type": "function"
    },
    {
      "inputs": [],
      "name": "getLiquidationRewardPriceThreshold",
      "outputs": [
        {
          "internalType": "uint256",
          "name": "",
          "type": "uint256"
        }
      ],
      "stateMutability": "view",
      "type": "function"
    },
    {
      "inputs": [],
      "name": "getLockedBalance",
      "outputs": [
        {
          "internalType": "uint256",
          "name": "",
          "type": "uint256"
        }
      ],
      "stateMutability": "view",
      "type": "function"
    },
    {
      "inputs": [],
      "name": "getMaxLiquidationReward",
      "outputs": [
        {
          "internalType": "uint256",
          "name": "",
          "type": "uint256"
        }
      ],
      "stateMutability": "view",
      "type": "function"
    },
    {
      "inputs": [
        {
          "internalType": "address",
          "name": "user",
          "type": "address"
        }
      ],
      "name": "getMaximumWithdrawalAmount",
      "outputs": [
        {
          "internalType": "uint256",
          "name": "",
          "type": "uint256"
        }
      ],
      "stateMutability": "view",
      "type": "function"
    },
    {
      "inputs": [],
      "name": "getStakingMaxPeriods",
      "outputs": [
        {
          "internalType": "uint256",
          "name": "",
          "type": "uint256"
        }
      ],
      "stateMutability": "view",
      "type": "function"
    },
    {
      "inputs": [],
      "name": "getStakingRewards",
      "outputs": [
        {
          "internalType": "uint256",
          "name": "",
          "type": "uint256"
        }
      ],
      "stateMutability": "view",
      "type": "function"
    },
    {
      "inputs": [],
      "name": "getStakingRewardsFactor",
      "outputs": [
        {
          "internalType": "uint256",
          "name": "",
          "type": "uint256"
        }
      ],
      "stateMutability": "view",
      "type": "function"
    },
    {
      "inputs": [],
      "name": "getStakingRewardsPeriod",
      "outputs": [
        {
          "internalType": "uint256",
          "name": "",
          "type": "uint256"
        }
      ],
      "stateMutability": "view",
      "type": "function"
    },
    {
      "inputs": [
        {
          "internalType": "address",
          "name": "user",
          "type": "address"
        },
        {
          "internalType": "address",
          "name": "collection",
          "type": "address"
        }
      ],
      "name": "getUserCollectionVotes",
      "outputs": [
        {
          "internalType": "uint256",
          "name": "",
          "type": "uint256"
        }
      ],
      "stateMutability": "view",
      "type": "function"
    },
    {
      "inputs": [
        {
          "internalType": "address",
          "name": "user",
          "type": "address"
        }
      ],
      "name": "getUserFreeVotes",
      "outputs": [
        {
          "internalType": "uint256",
          "name": "",
          "type": "uint256"
        }
      ],
      "stateMutability": "view",
      "type": "function"
    },
    {
      "inputs": [
        {
          "internalType": "address",
          "name": "user",
          "type": "address"
        }
      ],
      "name": "getWithdrawalRequest",
      "outputs": [
        {
          "components": [
            {
              "internalType": "bool",
              "name": "created",
              "type": "bool"
            },
            {
              "internalType": "uint256",
              "name": "amount",
              "type": "uint256"
            },
            {
              "internalType": "uint256",
              "name": "timestamp",
              "type": "uint256"
            }
          ],
          "internalType": "struct DataTypes.WithdrawalRequest",
          "name": "",
          "type": "tuple"
        }
      ],
      "stateMutability": "view",
      "type": "function"
    },
    {
      "inputs": [
        {
          "internalType": "address",
          "name": "spender",
          "type": "address"
        },
        {
          "internalType": "uint256",
          "name": "addedValue",
          "type": "uint256"
        }
      ],
      "name": "increaseAllowance",
      "outputs": [
        {
          "internalType": "bool",
          "name": "",
          "type": "bool"
        }
      ],
      "stateMutability": "nonpayable",
      "type": "function"
    },
    {
      "inputs": [
        {
          "internalType": "contract IAddressesProvider",
          "name": "addressProvider",
          "type": "address"
        },
        {
          "internalType": "string",
          "name": "name",
          "type": "string"
        },
        {
          "internalType": "string",
          "name": "symbol",
          "type": "string"
        },
        {
          "components": [
            {
              "internalType": "uint256",
              "name": "factor",
              "type": "uint256"
            },
            {
              "internalType": "uint256",
              "name": "maxReward",
              "type": "uint256"
            },
            {
              "internalType": "uint256",
              "name": "priceThreshold",
              "type": "uint256"
            },
            {
              "internalType": "uint256",
              "name": "priceLimit",
              "type": "uint256"
            }
          ],
          "internalType": "struct DataTypes.LiquidationRewardParams",
          "name": "liquidatonRewardsParams",
          "type": "tuple"
        },
        {
          "components": [
            {
              "internalType": "uint256",
              "name": "factor",
              "type": "uint256"
            },
            {
              "internalType": "uint256",
              "name": "limit",
              "type": "uint256"
            }
          ],
          "internalType": "struct DataTypes.BoostParams",
          "name": "boostParams",
          "type": "tuple"
        },
        {
          "components": [
            {
              "internalType": "uint256",
              "name": "factor",
              "type": "uint256"
            },
            {
              "internalType": "uint256",
              "name": "period",
              "type": "uint256"
            },
            {
              "internalType": "uint256",
              "name": "maxPeriods",
              "type": "uint256"
            }
          ],
          "internalType": "struct DataTypes.StakingRewardParams",
          "name": "stakingRewardsParams",
          "type": "tuple"
        }
      ],
      "name": "initialize",
      "outputs": [],
      "stateMutability": "nonpayable",
      "type": "function"
    },
    {
      "inputs": [
        {
          "internalType": "address",
          "name": "reserve",
          "type": "address"
        }
      ],
      "name": "isReserveIncentivized",
      "outputs": [
        {
          "internalType": "bool",
          "name": "",
          "type": "bool"
        }
      ],
      "stateMutability": "view",
      "type": "function"
    },
    {
      "inputs": [],
      "name": "name",
      "outputs": [
        {
          "internalType": "string",
          "name": "",
          "type": "string"
        }
      ],
      "stateMutability": "view",
      "type": "function"
    },
    {
      "inputs": [],
      "name": "owner",
      "outputs": [
        {
          "internalType": "address",
          "name": "",
          "type": "address"
        }
      ],
      "stateMutability": "view",
      "type": "function"
    },
    {
      "inputs": [
        {
          "internalType": "uint256",
          "name": "amount",
          "type": "uint256"
        },
        {
          "internalType": "address",
          "name": "collection",
          "type": "address"
        }
      ],
      "name": "removeVote",
      "outputs": [],
      "stateMutability": "nonpayable",
      "type": "function"
    },
    {
      "inputs": [],
      "name": "renounceOwnership",
      "outputs": [],
      "stateMutability": "nonpayable",
      "type": "function"
    },
    {
      "inputs": [
        {
          "internalType": "address",
          "name": "liquidator",
          "type": "address"
        },
        {
          "internalType": "uint256",
          "name": "amount",
          "type": "uint256"
        }
      ],
      "name": "sendLiquidationReward",
      "outputs": [],
      "stateMutability": "nonpayable",
      "type": "function"
    },
    {
      "inputs": [
        {
          "internalType": "uint256",
          "name": "boostFactor",
          "type": "uint256"
        }
      ],
      "name": "setBoostFactor",
      "outputs": [],
      "stateMutability": "nonpayable",
      "type": "function"
    },
    {
      "inputs": [
        {
          "internalType": "uint256",
          "name": "boostLimit",
          "type": "uint256"
        }
      ],
      "name": "setBoostLimit",
      "outputs": [],
      "stateMutability": "nonpayable",
      "type": "function"
    },
    {
      "inputs": [
        {
          "internalType": "uint256",
          "name": "liquidationRewardFactor",
          "type": "uint256"
        }
      ],
      "name": "setLiquidationRewardFactor",
      "outputs": [],
      "stateMutability": "nonpayable",
      "type": "function"
    },
    {
      "inputs": [
        {
          "internalType": "uint256",
          "name": "liquidationRewardPriceLimit",
          "type": "uint256"
        }
      ],
      "name": "setLiquidationRewardPriceLimit",
      "outputs": [],
      "stateMutability": "nonpayable",
      "type": "function"
    },
    {
      "inputs": [
        {
          "internalType": "uint256",
          "name": "liquidationRewardPriceThreshold",
          "type": "uint256"
        }
      ],
      "name": "setLiquidationRewardPriceThreshold",
      "outputs": [],
      "stateMutability": "nonpayable",
      "type": "function"
    },
    {
      "inputs": [
        {
          "internalType": "uint256",
          "name": "maxLiquidationReward",
          "type": "uint256"
        }
      ],
      "name": "setMaxLiquidationReward",
      "outputs": [],
      "stateMutability": "nonpayable",
      "type": "function"
    },
    {
      "inputs": [
        {
          "internalType": "address",
          "name": "reserve",
          "type": "address"
        },
        {
          "internalType": "bool",
          "name": "mode",
          "type": "bool"
        }
      ],
      "name": "setReserveIncentives",
      "outputs": [],
      "stateMutability": "nonpayable",
      "type": "function"
    },
    {
      "inputs": [
        {
          "internalType": "uint256",
          "name": "maxPeriods",
          "type": "uint256"
        }
      ],
      "name": "setStakingMaxPeriods",
      "outputs": [],
      "stateMutability": "nonpayable",
      "type": "function"
    },
    {
      "inputs": [
        {
          "internalType": "uint256",
          "name": "rewardsFactor",
          "type": "uint256"
        }
      ],
      "name": "setStakingRewardsFactor",
      "outputs": [],
      "stateMutability": "nonpayable",
      "type": "function"
    },
    {
      "inputs": [
        {
          "internalType": "uint256",
          "name": "rewardsPeriod",
          "type": "uint256"
        }
      ],
      "name": "setStakingRewardsPeriod",
      "outputs": [],
      "stateMutability": "nonpayable",
      "type": "function"
    },
    {
      "inputs": [],
      "name": "symbol",
      "outputs": [
        {
          "internalType": "string",
          "name": "",
          "type": "string"
        }
      ],
      "stateMutability": "view",
      "type": "function"
    },
    {
      "inputs": [],
      "name": "totalSupply",
      "outputs": [
        {
          "internalType": "uint256",
          "name": "",
          "type": "uint256"
        }
      ],
      "stateMutability": "view",
      "type": "function"
    },
    {
      "inputs": [
        {
          "internalType": "address",
          "name": "",
          "type": "address"
        },
        {
          "internalType": "uint256",
          "name": "",
          "type": "uint256"
        }
      ],
      "name": "transfer",
      "outputs": [
        {
          "internalType": "bool",
          "name": "",
          "type": "bool"
        }
      ],
      "stateMutability": "pure",
      "type": "function"
    },
    {
      "inputs": [
        {
          "internalType": "address",
          "name": "",
          "type": "address"
        },
        {
          "internalType": "address",
          "name": "",
          "type": "address"
        },
        {
          "internalType": "uint256",
          "name": "",
          "type": "uint256"
        }
      ],
      "name": "transferFrom",
      "outputs": [
        {
          "internalType": "bool",
          "name": "",
          "type": "bool"
        }
      ],
      "stateMutability": "pure",
      "type": "function"
    },
    {
      "inputs": [
        {
          "internalType": "address",
          "name": "newOwner",
          "type": "address"
        }
      ],
      "name": "transferOwnership",
      "outputs": [],
      "stateMutability": "nonpayable",
      "type": "function"
    },
    {
      "inputs": [
        {
          "internalType": "uint256",
          "name": "amount",
          "type": "uint256"
        },
        {
          "internalType": "address",
          "name": "collection",
          "type": "address"
        }
      ],
      "name": "vote",
      "outputs": [],
      "stateMutability": "nonpayable",
      "type": "function"
    },
    {
      "inputs": [
        {
          "internalType": "uint256",
          "name": "amount",
          "type": "uint256"
        }
      ],
      "name": "withdraw",
      "outputs": [],
      "stateMutability": "nonpayable",
      "type": "function"
    }
  ],
  "bytecode": "0x608060405234801561001057600080fd5b506130af806100206000396000f3fe608060405234801561001057600080fd5b50600436106102f15760003560e01c80637cbcd5711161019d578063a7e06985116100e9578063c8435ea0116100a2578063dd62ed3e1161007c578063dd62ed3e1461068e578063ec9fedb4146106a1578063f2fde38b146106a9578063fab00792146106bc57600080fd5b8063c8435ea014610655578063ca286e9214610668578063cae9c6ef1461067b57600080fd5b8063a7e06985146105d8578063a9059cbb146105eb578063b6b55f25146105f9578063baf03a2b1461060c578063bc76ee0d14610645578063c4d31a6d1461064d57600080fd5b80638da5cb5b11610156578063986768b211610130578063986768b2146105815780639a3418d5146105895780639b0d1b961461059c578063a457c2d7146105c557600080fd5b80638da5cb5b1461054b57806391f5bbed1461056657806395d89b411461057957600080fd5b80637cbcd571146104d65780637f26fbbf146104e957806383162aa8146104f1578063864cf9df146104f957806388b151b61461050c5780638c661b5d1461051457600080fd5b806337d2af481161025c57806345291b241161021557806359b8bc56116101ef57806359b8bc561461047f5780636b1f92de1461049257806370a08231146104a5578063715018a6146104ce57600080fd5b806345291b241461042d578063453cd60e1461044057806350ae389a1461046c57600080fd5b806337d2af48146103dc57806337db0502146103e457806339509351146103ec5780633da3b20e146103ff5780633e680e7a146104075780633f51781b1461041a57600080fd5b806323b872dd116102ae57806323b872dd1461038457806323ca0eb0146103975780632549e0b11461039f57806326cfc022146103a75780632e1a7d4d146103ba578063313ce567146103cd57600080fd5b80630247a697146102f657806302d947ef1461030b57806306fdde031461031e578063095ea7b31461033c5780630a1535d51461035f57806318160ddd14610372575b600080fd5b610309610304366004612995565b6106cf565b005b6103096103193660046129c1565b61083b565b6103266109b8565b6040516103339190612a41565b60405180910390f35b61034f61034a366004612995565b610a4a565b6040519015158152602001610333565b61030961036d366004612a54565b610a64565b6035545b604051908152602001610333565b61034f610392366004612a6d565b610a71565b610309610ab0565b610376610cb8565b6103096103b5366004612a54565b610cc7565b6103096103c8366004612a54565b610cd4565b60405160128152602001610333565b60d454610376565b60ce54610376565b61034f6103fa366004612995565b610e80565b60d254610376565b610376610415366004612aae565b610ea2565b610309610428366004612a54565b610ef4565b61030961043b366004612b2c565b610f01565b61034f61044e366004612aae565b6001600160a01b0316600090815260d9602052604090205460ff1690565b61030961047a366004612a54565b6110e9565b61030961048d366004612a54565b6110f6565b6103766104a0366004612a6d565b611103565b6103766104b3366004612aae565b6001600160a01b031660009081526033602052604090205490565b610309611110565b6103096104e43660046129c1565b611122565b60cc54610376565b60d054610376565b610309610507366004612a54565b611299565b60cd54610376565b610527610522366004612aae565b6112a6565b60408051825115158152602080840151908201529181015190820152606001610333565b6065546040516001600160a01b039091168152602001610333565b610376610574366004612bf8565b611394565b61032661178b565b61037661179a565b610309610597366004612a54565b61181a565b6103766105aa366004612aae565b6001600160a01b0316600090815260d6602052604090205490565b61034f6105d3366004612995565b611827565b6103096105e6366004612c41565b6118ad565b61034f610392366004612995565b610309610607366004612a54565b6118e0565b61037661061a366004612c6f565b6001600160a01b03918216600090815260d56020908152604080832093909416825291909152205490565b60d154610376565b60cb54610376565b610309610663366004612a54565b611b00565b610309610676366004612a54565b611b0d565b610376610689366004612c6f565b611b1a565b61037661069c366004612c6f565b611b40565b60d354610376565b6103096106b7366004612aae565b611b6b565b6103096106ca366004612a54565b611be1565b60c960009054906101000a90046001600160a01b03166001600160a01b031663e7334fe56040518163ffffffff1660e01b8152600401602060405180830381865afa158015610722573d6000803e3d6000fd5b505050506040513d601f19601f820116820180604052508101906107469190612c9d565b6001600160a01b0316336001600160a01b0316146107ab5760405162461bcd60e51b815260206004820152601e60248201527f43616c6c6572206d757374206265204d61726b657420636f6e7472616374000060448201526064015b60405180910390fd5b610837828260c960009054906101000a90046001600160a01b03166001600160a01b03166315b9ba5d6040518163ffffffff1660e01b8152600401602060405180830381865afa158015610803573d6000803e3d6000fd5b505050506040513d601f19601f820116820180604052508101906108279190612c9d565b6001600160a01b03169190611caa565b5050565b610843611d12565b60c954604051636cd5783960e11b81526001600160a01b0390911660048201526024810183905273__$5201a97c05ba6aa659e2f36a933dd51801$__9063d9aaf0729060440160006040518083038186803b1580156108a157600080fd5b505af41580156108b5573d6000803e3d6000fd5b505050508160d560006108c53390565b6001600160a01b03166001600160a01b031681526020019081526020016000206000836001600160a01b03166001600160a01b0316815260200190815260200160002060008282546109179190612cd0565b90915550506001600160a01b038116600090815260d7602052604081208054849290610944908490612cd0565b909155505033600090815260d6602052604081208054849290610968908490612ce3565b90915550506040518281526001600160a01b0382169033907f66a9138482c99e9baf08860110ef332cc0c23b4a199a53593d8db0fc8f96fbfc906020015b60405180910390a36108376001609755565b6060603680546109c790612cf6565b80601f01602080910402602001604051908101604052809291908181526020018280546109f390612cf6565b8015610a405780601f10610a1557610100808354040283529160200191610a40565b820191906000526020600020905b815481529060010190602001808311610a2357829003601f168201915b5050505050905090565b600033610a58818585611d6b565b60019150505b92915050565b610a6c611e8f565b60d255565b60405162461bcd60e51b8152602060048201526011602482015270151c985b9cd9995c88191a5cd8589b1959607a1b60448201526000906064016107a2565b610ab8611d12565b60d35460cf544291610ac991612cd0565b10610b2f5760405162461bcd60e51b815260206004820152603060248201527f4e6f7420656e6f7567682074696d652073696e6365206c61737420726577617260448201526f3239903234b9ba3934b13aba34b7b71760811b60648201526084016107a2565b60ca54610b3c9042612ce3565b60d35460d454610b4c9190612d2a565b11610b925760405162461bcd60e51b81526020600482015260166024820152752932bbb0b93239903832b934b7b21034b99037bb32b960511b60448201526064016107a2565b6000610b9c61179a565b905060c960009054906101000a90046001600160a01b03166001600160a01b03166315b9ba5d6040518163ffffffff1660e01b8152600401602060405180830381865afa158015610bf1573d6000803e3d6000fd5b505050506040513d601f19601f82011682018060405250810190610c159190612c9d565b6001600160a01b031663ece6d1ec826040518263ffffffff1660e01b8152600401610c4291815260200190565b600060405180830381600087803b158015610c5c57600080fd5b505af1158015610c70573d6000803e3d6000fd5b50504260cf5550506040518181527fb9d196a585c1a894f648393ec7d52cc59ff6d94191579d073ba32b0a74d7f7a69060200160405180910390a150610cb66001609755565b565b6000610cc2611ee9565b905090565b610ccf611e8f565b60d355565b610cdc611d12565b60c954604051633295ceef60e21b81526001600160a01b0390911660048201526024810182905273__$5201a97c05ba6aa659e2f36a933dd51801$__9063ca573bbc9060440160006040518083038186803b158015610d3a57600080fd5b505af4158015610d4e573d6000803e3d6000fd5b505050506000610d5d60355490565b600003610d6b575080610d8d565b610d73611ee9565b603554610d809084612d2a565b610d8a9190612d41565b90505b60008111610d9d57610d9d612d63565b610da73383611fc1565b33600090815260d6602052604081208054839290610dc6908490612ce3565b909155505033600081815260d860209081526040808320805460ff19168155600181018490556002019290925560c95482516315b9ba5d60e01b81529251610e3c949387936001600160a01b03909316926315b9ba5d926004808401938290030181865afa158015610803573d6000803e3d6000fd5b60405182815233907f884edad9ce6fa2440d8a54cc123490eb96d2768479d49ff9c7366125a9424364906020015b60405180910390a250610e7d6001609755565b50565b600033610a58818585610e938383611b40565b610e9d9190612cd0565b611d6b565b6001600160a01b038116600090815260d6602052604081205481818103610ecb57506000610eed565b603554610ed6611ee9565b610ee09084612d2a565b610eea9190612d41565b90505b9392505050565b610efc611e8f565b60d155565b600054610100900460ff1615808015610f215750600054600160ff909116105b80610f3b5750303b158015610f3b575060005460ff166001145b610f9e5760405162461bcd60e51b815260206004820152602e60248201527f496e697469616c697a61626c653a20636f6e747261637420697320616c72656160448201526d191e481a5b9a5d1a585b1a5e995960921b60648201526084016107a2565b6000805460ff191660011790558015610fc1576000805461ff0019166101001790555b610fc96120f5565b61103c88888080601f01602080910402602001604051908101604052809392919081815260200183838082843760009201919091525050604080516020601f8c018190048102820181019092528a815292508a915089908190840183828082843760009201919091525061212492505050565b60c980546001600160a01b0319166001600160a01b038b16179055833560cb5560208085013560cc5560408086013560cd55606086013560ce55843560d0558482013560d155833560d2559083013560d35582013560d4554260ca5580156110de576000805461ff0019169055604051600181527f7f26b83ff96e1f2b6a682f133852f6798a09c465da95921460cefb38474024989060200160405180910390a15b505050505050505050565b6110f1611e8f565b60d455565b6110fe611e8f565b60cb55565b6000610eea848484612155565b611118611e8f565b610cb6600061253e565b61112a611d12565b60c954604051631445052b60e11b81526001600160a01b03918216600482015260248101849052908216604482015273__$5201a97c05ba6aa659e2f36a933dd51801$__9063288a0a569060640160006040518083038186803b15801561119057600080fd5b505af41580156111a4573d6000803e3d6000fd5b505050508160d560006111b43390565b6001600160a01b03166001600160a01b031681526020019081526020016000206000836001600160a01b03166001600160a01b0316815260200190815260200160002060008282546112069190612ce3565b90915550506001600160a01b038116600090815260d7602052604081208054849290611233908490612ce3565b909155505033600090815260d6602052604081208054849290611257908490612cd0565b90915550506040518281526001600160a01b0382169033907f72604881741b21dd04fd9cf15e323a7e936c3e7d681be4e1ff2fc51e2a1daa2c906020016109a6565b6112a1611e8f565b60d055565b6112cc604051806060016040528060001515815260200160008152602001600081525090565b6001600160a01b038216600090815260d8602052604090205460ff16151560011461134d5760405162461bcd60e51b815260206004820152602b60248201527f55736572206861736e2774206372656174656420616e7920776974686472617760448201526a616c20726571756573747360a81b60648201526084016107a2565b506001600160a01b0316600090815260d860209081526040918290208251606081018452815460ff1615158152600182015492810192909252600201549181019190915290565b6001600160a01b038416600090815260d96020526040812054819060ff16151581036113c1579050611783565b60c9546040805163cfeed18160e01b815290516000926001600160a01b03169163cfeed1819160048083019260209291908290030181865afa15801561140b573d6000803e3d6000fd5b505050506040513d601f19601f8201168201806040525081019061142f9190612c9d565b905060006114428660cb60030154612590565b905060006114558760cb60020154612590565b905061148a604051806040016040528060118152602001701c995dd85c991cd41c9a58d9531a5b5a5d607a1b815250836125b6565b6114c1604051806040016040528060158152602001741c995dd85c991cd41c9a58d9551a1c995cda1bdb19605a1b815250826125b6565b81861080156114cf57508086115b1561177c576114ff6040518060600160405280602a8152602001613050602a91396114fa8389612ce3565b6125b6565b60cb5460c954604080516315b9ba5d60e01b815290516001600160a01b038088169363e88c1997939116916315b9ba5d916004808201926020929091908290030181865afa158015611555573d6000803e3d6000fd5b505050506040513d601f19601f820116820180604052508101906115799190612c9d565b6040516001600160e01b031960e084901b1681526001600160a01b039091166004820152602401602060405180830381865afa1580156115bd573d6000803e3d6000fd5b505050506040513d601f19601f820116820180604052508101906115e19190612d79565b6115eb908a612d2a565b6115f59190612d2a565b6003846001600160a01b03166308ea5bee6040518163ffffffff1660e01b8152600401602060405180830381865afa158015611635573d6000803e3d6000fd5b505050506040513d601f19601f820116820180604052508101906116599190612d79565b6116639190612e76565b61166d8389612ce3565b6116779190612d2a565b6116819190612d41565b60cc549094508411156116945760cc5493505b60c954604080516315b9ba5d60e01b815290516000926001600160a01b0316916315b9ba5d9160048083019260209291908290030181865afa1580156116de573d6000803e3d6000fd5b505050506040513d601f19601f820116820180604052508101906117029190612c9d565b6040516370a0823160e01b81523060048201526001600160a01b0391909116906370a0823190602401602060405180830381865afa158015611748573d6000803e3d6000fd5b505050506040513d601f19601f8201168201806040525081019061176c9190612d79565b90508085111561177a578094505b505b5091925050505b949350505050565b6060603780546109c790612cf6565b60ca5460009081906117ac9042612ce3565b60d35460d4546117bc9190612d2a565b11156118155760d35460d4546117d29190612d2a565b60ca5460d35460d4544292916117e791612d2a565b6117f19190612cd0565b6117fb9190612ce3565b60d2546118089190612d2a565b6118129190612d41565b90505b919050565b611822611e8f565b60cc55565b600033816118358286611b40565b9050838110156118955760405162461bcd60e51b815260206004820152602560248201527f45524332303a2064656372656173656420616c6c6f77616e63652062656c6f77604482015264207a65726f60d81b60648201526084016107a2565b6118a28286868403611d6b565b506001949350505050565b6118b5611e8f565b6001600160a01b0391909116600090815260d960205260409020805460ff1916911515919091179055565b6118e8611d12565b73__$5201a97c05ba6aa659e2f36a933dd51801$__63d8b7f94260c960009054906101000a90046001600160a01b03166001600160a01b03166315b9ba5d6040518163ffffffff1660e01b8152600401602060405180830381865afa158015611955573d6000803e3d6000fd5b505050506040513d601f19601f820116820180604052508101906119799190612c9d565b6040516001600160e01b031960e084901b1681526001600160a01b0390911660048201526024810184905260440160006040518083038186803b1580156119bf57600080fd5b505af41580156119d3573d6000803e3d6000fd5b5050505060006119e260355490565b6000036119f0575080611a12565b6119f8611ee9565b603554611a059084612d2a565b611a0f9190612d41565b90505b611aa033308460c960009054906101000a90046001600160a01b03166001600160a01b03166315b9ba5d6040518163ffffffff1660e01b8152600401602060405180830381865afa158015611a6b573d6000803e3d6000fd5b505050506040513d601f19601f82011682018060405250810190611a8f9190612c9d565b6001600160a01b03169291906125fb565b611aaa3382612639565b33600090815260d6602052604081208054839290611ac9908490612cd0565b909155505060405182815233907fe1fffcc4923d04b559f4d29a8bfc6cda04eb5b0d3c460751c2402c5c5cc9109c90602001610e6a565b611b08611e8f565b60ce55565b611b15611e8f565b60cd55565b6001600160a01b038116600090815260d76020526040812054610eed9084908490612155565b6001600160a01b03918216600090815260346020908152604080832093909416825291909152205490565b611b73611e8f565b6001600160a01b038116611bd85760405162461bcd60e51b815260206004820152602660248201527f4f776e61626c653a206e6577206f776e657220697320746865207a65726f206160448201526564647265737360d01b60648201526084016107a2565b610e7d8161253e565b611be9611d12565b60c95460405162d0fbc760e71b81526001600160a01b0390911660048201526024810182905273__$5201a97c05ba6aa659e2f36a933dd51801$__9063687de3809060440160006040518083038186803b158015611c4657600080fd5b505af4158015611c5a573d6000803e3d6000fd5b50505050611ca08160d86000611c6d3390565b6001600160a01b03168152602081019190915260400160002090815460ff19166001908117835582015542600290910155565b610e7d6001609755565b6040516001600160a01b038316602482015260448101829052611d0d90849063a9059cbb60e01b906064015b60408051601f198184030181529190526020810180516001600160e01b03166001600160e01b0319909316929092179091526126fa565b505050565b600260975403611d645760405162461bcd60e51b815260206004820152601f60248201527f5265656e7472616e637947756172643a207265656e7472616e742063616c6c0060448201526064016107a2565b6002609755565b6001600160a01b038316611dcd5760405162461bcd60e51b8152602060048201526024808201527f45524332303a20617070726f76652066726f6d20746865207a65726f206164646044820152637265737360e01b60648201526084016107a2565b6001600160a01b038216611e2e5760405162461bcd60e51b815260206004820152602260248201527f45524332303a20617070726f766520746f20746865207a65726f206164647265604482015261737360f01b60648201526084016107a2565b6001600160a01b0383811660008181526034602090815260408083209487168084529482529182902085905590518481527f8c5be1e5ebec7d5bd14f71427d1e84f3dd0314c0f7b2291e5b200ac8c7c3b925910160405180910390a3505050565b6065546001600160a01b03163314610cb65760405162461bcd60e51b815260206004820181905260248201527f4f776e61626c653a2063616c6c6572206973206e6f7420746865206f776e657260448201526064016107a2565b60c954604080516315b9ba5d60e01b815290516000926001600160a01b0316916315b9ba5d9160048083019260209291908290030181865afa158015611f33573d6000803e3d6000fd5b505050506040513d601f19601f82011682018060405250810190611f579190612c9d565b6040516370a0823160e01b81523060048201526001600160a01b0391909116906370a0823190602401602060405180830381865afa158015611f9d573d6000803e3d6000fd5b505050506040513d601f19601f82011682018060405250810190610cc29190612d79565b6001600160a01b0382166120215760405162461bcd60e51b815260206004820152602160248201527f45524332303a206275726e2066726f6d20746865207a65726f206164647265736044820152607360f81b60648201526084016107a2565b6001600160a01b038216600090815260336020526040902054818110156120955760405162461bcd60e51b815260206004820152602260248201527f45524332303a206275726e20616d6f756e7420657863656564732062616c616e604482015261636560f01b60648201526084016107a2565b6001600160a01b03831660008181526033602090815260408083208686039055603580548790039055518581529192917fddf252ad1be2c89b69c2b068fc378daa952ba7f163c4a11628f55a4df523b3ef910160405180910390a3505050565b600054610100900460ff1661211c5760405162461bcd60e51b81526004016107a290612e85565b610cb66127cc565b600054610100900460ff1661214b5760405162461bcd60e51b81526004016107a290612e85565b61083782826127fc565b60008060009050600060c960009054906101000a90046001600160a01b03166001600160a01b031663536223646040518163ffffffff1660e01b8152600401602060405180830381865afa1580156121b1573d6000803e3d6000fd5b505050506040513d601f19601f820116820180604052508101906121d59190612c9d565b6040516325515dcf60e21b81526001600160a01b03888116600483015287811660248301529190911690639545773c90604401602060405180830381865afa158015612225573d6000803e3d6000fd5b505050506040513d601f19601f820116820180604052508101906122499190612d79565b612254906001612cd0565b9050600060c960009054906101000a90046001600160a01b03166001600160a01b031663cfeed1816040518163ffffffff1660e01b8152600401602060405180830381865afa1580156122ab573d6000803e3d6000fd5b505050506040513d601f19601f820116820180604052508101906122cf9190612c9d565b6001600160a01b031663e88c199760c960009054906101000a90046001600160a01b03166001600160a01b03166315b9ba5d6040518163ffffffff1660e01b8152600401602060405180830381865afa158015612330573d6000803e3d6000fd5b505050506040513d601f19601f820116820180604052508101906123549190612c9d565b6040516001600160e01b031960e084901b1681526001600160a01b039091166004820152602401602060405180830381865afa158015612398573d6000803e3d6000fd5b505050506040513d601f19601f820116820180604052508101906123bc9190612d79565b9050600060c960009054906101000a90046001600160a01b03166001600160a01b031663cfeed1816040518163ffffffff1660e01b8152600401602060405180830381865afa158015612413573d6000803e3d6000fd5b505050506040513d601f19601f820116820180604052508101906124379190612c9d565b6001600160a01b03166308ea5bee6040518163ffffffff1660e01b8152600401602060405180830381865afa158015612474573d6000803e3d6000fd5b505050506040513d601f19601f820116820180604052508101906124989190612d79565b90506124a360355490565b6000036124b7576000945050505050610eed565b60006124c260355490565b6124ca611ee9565b6124d49089612d2a565b6124de9190612d41565b90506000826124ed8584612d2a565b6124f79190612d41565b60d0549091506125079086612d2a565b61251382612710612d2a565b61251d9190612d41565b60d1549096508611156125305760d15495505b509398975050505050505050565b606580546001600160a01b038381166001600160a01b0319831681179093556040519116919082907f8be0079c531659141344cd1fd0a4f28419497f9722a3daafe3b4186f6b6457e090600090a35050565b6000811561138819839004841115176125a857600080fd5b506127109102611388010490565b61083782826040516024016125cc929190612ed0565b60408051601f198184030181529190526020810180516001600160e01b0316632d839cb360e21b17905261283c565b6040516001600160a01b03808516602483015283166044820152606481018290526126339085906323b872dd60e01b90608401611cd6565b50505050565b6001600160a01b03821661268f5760405162461bcd60e51b815260206004820152601f60248201527f45524332303a206d696e7420746f20746865207a65726f20616464726573730060448201526064016107a2565b80603560008282546126a19190612cd0565b90915550506001600160a01b0382166000818152603360209081526040808320805486019055518481527fddf252ad1be2c89b69c2b068fc378daa952ba7f163c4a11628f55a4df523b3ef910160405180910390a35050565b600061274f826040518060400160405280602081526020017f5361666545524332303a206c6f772d6c6576656c2063616c6c206661696c6564815250856001600160a01b031661285d9092919063ffffffff16565b805190915015611d0d578080602001905181019061276d9190612ef2565b611d0d5760405162461bcd60e51b815260206004820152602a60248201527f5361666545524332303a204552433230206f7065726174696f6e20646964206e6044820152691bdd081cdd58d8d9595960b21b60648201526084016107a2565b600054610100900460ff166127f35760405162461bcd60e51b81526004016107a290612e85565b610cb63361253e565b600054610100900460ff166128235760405162461bcd60e51b81526004016107a290612e85565b603661282f8382612f73565b506037611d0d8282612f73565b80516a636f6e736f6c652e6c6f67602083016000808483855afa5050505050565b6060610eea848460008585600080866001600160a01b031685876040516128849190613033565b60006040518083038185875af1925050503d80600081146128c1576040519150601f19603f3d011682016040523d82523d6000602084013e6128c6565b606091505b50915091506128d7878383876128e2565b979650505050505050565b6060831561295157825160000361294a576001600160a01b0385163b61294a5760405162461bcd60e51b815260206004820152601d60248201527f416464726573733a2063616c6c20746f206e6f6e2d636f6e747261637400000060448201526064016107a2565b5081611783565b61178383838151156129665781518083602001fd5b8060405162461bcd60e51b81526004016107a29190612a41565b6001600160a01b0381168114610e7d57600080fd5b600080604083850312156129a857600080fd5b82356129b381612980565b946020939093013593505050565b600080604083850312156129d457600080fd5b8235915060208301356129e681612980565b809150509250929050565b60005b83811015612a0c5781810151838201526020016129f4565b50506000910152565b60008151808452612a2d8160208601602086016129f1565b601f01601f19169290920160200192915050565b602081526000610eed6020830184612a15565b600060208284031215612a6657600080fd5b5035919050565b600080600060608486031215612a8257600080fd5b8335612a8d81612980565b92506020840135612a9d81612980565b929592945050506040919091013590565b600060208284031215612ac057600080fd5b8135610eed81612980565b60008083601f840112612add57600080fd5b50813567ffffffffffffffff811115612af557600080fd5b602083019150836020828501011115612b0d57600080fd5b9250929050565b600060608284031215612b2657600080fd5b50919050565b600080600080600080600080888a03610180811215612b4a57600080fd5b8935612b5581612980565b985060208a013567ffffffffffffffff80821115612b7257600080fd5b612b7e8d838e01612acb565b909a50985060408c0135915080821115612b9757600080fd5b50612ba48c828d01612acb565b9097509550506080605f1982011215612bbc57600080fd5b60608a019350604060df1982011215612bd457600080fd5b5060e089019150612be98a6101208b01612b14565b90509295985092959890939650565b60008060008060808587031215612c0e57600080fd5b8435612c1981612980565b966020860135965060408601359560600135945092505050565b8015158114610e7d57600080fd5b60008060408385031215612c5457600080fd5b8235612c5f81612980565b915060208301356129e681612c33565b60008060408385031215612c8257600080fd5b8235612c8d81612980565b915060208301356129e681612980565b600060208284031215612caf57600080fd5b8151610eed81612980565b634e487b7160e01b600052601160045260246000fd5b80820180821115610a5e57610a5e612cba565b81810381811115610a5e57610a5e612cba565b600181811c90821680612d0a57607f821691505b602082108103612b2657634e487b7160e01b600052602260045260246000fd5b8082028115828204841417610a5e57610a5e612cba565b600082612d5e57634e487b7160e01b600052601260045260246000fd5b500490565b634e487b7160e01b600052600160045260246000fd5b600060208284031215612d8b57600080fd5b5051919050565b600181815b80851115612dcd578160001904821115612db357612db3612cba565b80851615612dc057918102915b93841c9390800290612d97565b509250929050565b600082612de457506001610a5e565b81612df157506000610a5e565b8160018114612e075760028114612e1157612e2d565b6001915050610a5e565b60ff841115612e2257612e22612cba565b50506001821b610a5e565b5060208310610133831016604e8410600b8410161715612e50575081810a610a5e565b612e5a8383612d92565b8060001904821115612e6e57612e6e612cba565b029392505050565b6000610eed60ff841683612dd5565b6020808252602b908201527f496e697469616c697a61626c653a20636f6e7472616374206973206e6f74206960408201526a6e697469616c697a696e6760a81b606082015260800190565b604081526000612ee36040830185612a15565b90508260208301529392505050565b600060208284031215612f0457600080fd5b8151610eed81612c33565b634e487b7160e01b600052604160045260246000fd5b601f821115611d0d57600081815260208120601f850160051c81016020861015612f4c5750805b601f850160051c820191505b81811015612f6b57828155600101612f58565b505050505050565b815167ffffffffffffffff811115612f8d57612f8d612f0f565b612fa181612f9b8454612cf6565b84612f25565b602080601f831160018114612fd65760008415612fbe5750858301515b600019600386901b1c1916600185901b178555612f6b565b600085815260208120601f198616915b8281101561300557888601518255948401946001909101908401612fe6565b50858210156130235787850151600019600388901b60f8161c191681555b5050505050600190811b01905550565b600082516130458184602087016129f1565b919091019291505056fe286c69717569646174696f6e5072696365202d207265776172647350726963655468726573686f6c6429a26469706673582212202fff1f2fd4ccba60a04149a3e6a393856d685e7fea9bb8c8abd9c12d33b7e76a64736f6c63430008110033",
  "linkReferences": {
    "contracts/libraries/logic/ValidationLogic.sol": {
      "ValidationLogic": [
        {
          "length": 20,
          "start": 2188
        },
        {
          "length": 20,
          "start": 3365
        },
        {
          "length": 20,
          "start": 4475
        },
        {
          "length": 20,
          "start": 6410
        },
        {
          "length": 20,
          "start": 7217
        }
      ]
    }
  },
  "deployedLinkReferences": {
    "contracts/libraries/logic/ValidationLogic.sol": {
      "ValidationLogic": [
        {
          "length": 20,
          "start": 2156
        },
        {
          "length": 20,
          "start": 3333
        },
        {
          "length": 20,
          "start": 4443
        },
        {
          "length": 20,
          "start": 6378
        },
        {
          "length": 20,
          "start": 7185
        }
      ]
    }
  }
}