{
  "_format": "hh-sol-artifact-1",
  "contractName": "NativeTokenVesting",
  "sourceName": "contracts/protocol/NativeTokenVesting.sol",
  "abi": [
    {
      "inputs": [
        {
          "internalType": "contract IAddressesProvider",
          "name": "addressProvider",
          "type": "address"
        }
      ],
      "stateMutability": "nonpayable",
      "type": "constructor"
    },
    {
      "anonymous": false,
      "inputs": [
        {
          "indexed": true,
          "internalType": "address",
          "name": "previousOwner",
          "type": "address"
        },
        {
          "indexed": true,
          "internalType": "address",
          "name": "newOwner",
          "type": "address"
        }
      ],
      "name": "OwnershipTransferred",
      "type": "event"
    },
    {
      "anonymous": false,
      "inputs": [
        {
          "indexed": true,
          "internalType": "address",
          "name": "account",
          "type": "address"
        },
        {
          "indexed": false,
          "internalType": "uint256",
          "name": "period",
          "type": "uint256"
        },
        {
          "indexed": false,
          "internalType": "uint256",
          "name": "cliff",
          "type": "uint256"
        },
        {
          "indexed": false,
          "internalType": "uint256",
          "name": "amount",
          "type": "uint256"
        }
      ],
      "name": "VestingAdded",
      "type": "event"
    },
    {
      "anonymous": false,
      "inputs": [
        {
          "indexed": true,
          "internalType": "address",
          "name": "account",
          "type": "address"
        },
        {
          "indexed": false,
          "internalType": "uint256",
          "name": "amount",
          "type": "uint256"
        }
      ],
      "name": "VestingWithdrawn",
      "type": "event"
    },
    {
      "inputs": [
        {
          "internalType": "address",
          "name": "account",
          "type": "address"
        }
      ],
      "name": "getAvailableToWithdraw",
      "outputs": [
        {
          "internalType": "uint256",
          "name": "",
          "type": "uint256"
        }
      ],
      "stateMutability": "view",
      "type": "function"
    },
    {
      "inputs": [
        {
          "internalType": "address",
          "name": "account",
          "type": "address"
        }
      ],
      "name": "getVesting",
      "outputs": [
        {
          "components": [
            {
              "internalType": "uint256",
              "name": "timestamp",
              "type": "uint256"
            },
            {
              "internalType": "uint256",
              "name": "period",
              "type": "uint256"
            },
            {
              "internalType": "uint256",
              "name": "cliff",
              "type": "uint256"
            },
            {
              "internalType": "uint256",
              "name": "amount",
              "type": "uint256"
            }
          ],
          "internalType": "struct DataTypes.VestingParams",
          "name": "",
          "type": "tuple"
        }
      ],
      "stateMutability": "view",
      "type": "function"
    },
    {
      "inputs": [],
      "name": "owner",
      "outputs": [
        {
          "internalType": "address",
          "name": "",
          "type": "address"
        }
      ],
      "stateMutability": "view",
      "type": "function"
    },
    {
      "inputs": [],
      "name": "renounceOwnership",
      "outputs": [],
      "stateMutability": "nonpayable",
      "type": "function"
    },
    {
      "inputs": [
        {
          "internalType": "address",
          "name": "account",
          "type": "address"
        },
        {
          "internalType": "uint256",
          "name": "period",
          "type": "uint256"
        },
        {
          "internalType": "uint256",
          "name": "cliff",
          "type": "uint256"
        },
        {
          "internalType": "uint256",
          "name": "amount",
          "type": "uint256"
        }
      ],
      "name": "setVesting",
      "outputs": [],
      "stateMutability": "nonpayable",
      "type": "function"
    },
    {
      "inputs": [
        {
          "internalType": "address",
          "name": "newOwner",
          "type": "address"
        }
      ],
      "name": "transferOwnership",
      "outputs": [],
      "stateMutability": "nonpayable",
      "type": "function"
    },
    {
      "inputs": [
        {
          "internalType": "uint256",
          "name": "amount",
          "type": "uint256"
        }
      ],
      "name": "withdraw",
      "outputs": [],
      "stateMutability": "nonpayable",
      "type": "function"
    },
    {
      "inputs": [
        {
          "internalType": "uint256",
          "name": "amount",
          "type": "uint256"
        }
      ],
      "name": "withdrawOwner",
      "outputs": [],
      "stateMutability": "nonpayable",
      "type": "function"
    }
  ],
  "bytecode": "0x608060405234801561001057600080fd5b50604051610b27380380610b2783398101604081905261002f916100ad565b6100383361005d565b600180546001600160a01b0319166001600160a01b03929092169190911790556100dd565b600080546001600160a01b038381166001600160a01b0319831681178455604051919092169283917f8be0079c531659141344cd1fd0a4f28419497f9722a3daafe3b4186f6b6457e09190a35050565b6000602082840312156100bf57600080fd5b81516001600160a01b03811681146100d657600080fd5b9392505050565b610a3b806100ec6000396000f3fe608060405234801561001057600080fd5b50600436106100885760003560e01c80638da5cb5b1161005b5780638da5cb5b146100e3578063c0ab5704146100fe578063cc49ede714610111578063f2fde38b1461015757600080fd5b80632e1a7d4d1461008d5780636ef98b21146100a2578063715018a6146100b5578063824a6290146100bd575b600080fd5b6100a061009b36600461084b565b61016a565b005b6100a06100b036600461084b565b61029e565b6100a06102b2565b6100d06100cb366004610879565b6102c6565b6040519081526020015b60405180910390f35b6000546040516001600160a01b0390911681526020016100da565b6100a061010c36600461089d565b6103c3565b61012461011f366004610879565b610469565b6040516100da91908151815260208083015190820152604080830151908201526060918201519181019190915260800190565b6100a0610165366004610879565b6104df565b80610174336102c6565b10156101bf5760405162461bcd60e51b815260206004820152601560248201527409ca8ac74ae74829a9eaa9ca8bea89e9ebe90928e9605b1b60448201526064015b60405180910390fd5b33600090815260036020526040812080548392906101de9084906108ee565b909155506102669050335b600154604080516315b9ba5d60e01b8152905185926001600160a01b0316916315b9ba5d9160048083019260209291908290030181865afa158015610232573d6000803e3d6000fd5b505050506040513d601f19601f820116820180604052508101906102569190610907565b6001600160a01b03169190610555565b60405181815233907f1ac2c07e3ea525a04232f1be6ad5b5441ef9cf47beb764c8a3d7b8d71b6376189060200160405180910390a250565b6102a66105ac565b6102af336101e9565b50565b6102ba6105ac565b6102c46000610606565b565b6001600160a01b03811660009081526002602081815260408084208151608081018352815480825260018301549482019490945293810154918401829052600301546060840152839161031991906108ee565b4211156103b95760408201516020830151835161033691906108ee565b61034091906108ee565b421015610387578160200151826040015161035b91906108ee565b82516103679042610924565b83606001516103769190610937565b610380919061094e565b905061038e565b5060608101515b6001600160a01b0384166000908152600360205260409020546103b19082610924565b949350505050565b5060009392505050565b6103cb6105ac565b60408051608081018252428152602080820186815282840186815260608085018781526001600160a01b038b16600081815260028088528982209851895595516001890155935194870194909455516003958601559383528481205583518781529182018690529281018490527fa95063d8afe9473976f0965d552dce67e1b02d154b4fb06ff7e518f8648e93c7910160405180910390a250505050565b6104946040518060800160405280600081526020016000815260200160008152602001600081525090565b506001600160a01b0316600090815260026020818152604092839020835160808101855281548152600182015492810192909252918201549281019290925260030154606082015290565b6104e76105ac565b6001600160a01b03811661054c5760405162461bcd60e51b815260206004820152602660248201527f4f776e61626c653a206e6577206f776e657220697320746865207a65726f206160448201526564647265737360d01b60648201526084016101b6565b6102af81610606565b604080516001600160a01b038416602482015260448082018490528251808303909101815260649091019091526020810180516001600160e01b031663a9059cbb60e01b1790526105a7908490610656565b505050565b6000546001600160a01b031633146102c45760405162461bcd60e51b815260206004820181905260248201527f4f776e61626c653a2063616c6c6572206973206e6f7420746865206f776e657260448201526064016101b6565b600080546001600160a01b038381166001600160a01b0319831681178455604051919092169283917f8be0079c531659141344cd1fd0a4f28419497f9722a3daafe3b4186f6b6457e09190a35050565b60006106ab826040518060400160405280602081526020017f5361666545524332303a206c6f772d6c6576656c2063616c6c206661696c6564815250856001600160a01b03166107289092919063ffffffff16565b8051909150156105a757808060200190518101906106c99190610970565b6105a75760405162461bcd60e51b815260206004820152602a60248201527f5361666545524332303a204552433230206f7065726174696f6e20646964206e6044820152691bdd081cdd58d8d9595960b21b60648201526084016101b6565b60606103b1848460008585600080866001600160a01b0316858760405161074f91906109b6565b60006040518083038185875af1925050503d806000811461078c576040519150601f19603f3d011682016040523d82523d6000602084013e610791565b606091505b50915091506107a2878383876107ad565b979650505050505050565b6060831561081c578251600003610815576001600160a01b0385163b6108155760405162461bcd60e51b815260206004820152601d60248201527f416464726573733a2063616c6c20746f206e6f6e2d636f6e747261637400000060448201526064016101b6565b50816103b1565b6103b183838151156108315781518083602001fd5b8060405162461bcd60e51b81526004016101b691906109d2565b60006020828403121561085d57600080fd5b5035919050565b6001600160a01b03811681146102af57600080fd5b60006020828403121561088b57600080fd5b813561089681610864565b9392505050565b600080600080608085870312156108b357600080fd5b84356108be81610864565b966020860135965060408601359560600135945092505050565b634e487b7160e01b600052601160045260246000fd5b80820180821115610901576109016108d8565b92915050565b60006020828403121561091957600080fd5b815161089681610864565b81810381811115610901576109016108d8565b8082028115828204841417610901576109016108d8565b60008261096b57634e487b7160e01b600052601260045260246000fd5b500490565b60006020828403121561098257600080fd5b8151801515811461089657600080fd5b60005b838110156109ad578181015183820152602001610995565b50506000910152565b600082516109c8818460208701610992565b9190910192915050565b60208152600082518060208401526109f1816040850160208701610992565b601f01601f1916919091016040019291505056fea2646970667358221220e1460bafa30837a8415e57e469981283f6e76737b1d33a3d692cce8d8e21040764736f6c63430008130033",
  "linkReferences": {},
  "deployedLinkReferences": {}
}