{
  "_format": "hh-sol-artifact-1",
  "contractName": "NativeToken",
  "sourceName": "contracts/protocol/NativeToken.sol",
  "abi": [
    {
      "anonymous": false,
      "inputs": [
        {
          "indexed": true,
          "internalType": "address",
          "name": "owner",
          "type": "address"
        },
        {
          "indexed": true,
          "internalType": "address",
          "name": "spender",
          "type": "address"
        },
        {
          "indexed": false,
          "internalType": "uint256",
          "name": "value",
          "type": "uint256"
        }
      ],
      "name": "Approval",
      "type": "event"
    },
    {
      "anonymous": false,
      "inputs": [
        {
          "indexed": false,
          "internalType": "uint256",
          "name": "_amount",
          "type": "uint256"
        }
      ],
      "name": "DistributeRewards",
      "type": "event"
    },
    {
      "anonymous": false,
      "inputs": [
        {
          "indexed": false,
          "internalType": "uint8",
          "name": "version",
          "type": "uint8"
        }
      ],
      "name": "Initialized",
      "type": "event"
    },
    {
      "anonymous": false,
      "inputs": [
        {
          "indexed": true,
          "internalType": "address",
          "name": "previousOwner",
          "type": "address"
        },
        {
          "indexed": true,
          "internalType": "address",
          "name": "newOwner",
          "type": "address"
        }
      ],
      "name": "OwnershipTransferred",
      "type": "event"
    },
    {
      "anonymous": false,
      "inputs": [
        {
          "indexed": true,
          "internalType": "address",
          "name": "from",
          "type": "address"
        },
        {
          "indexed": true,
          "internalType": "address",
          "name": "to",
          "type": "address"
        },
        {
          "indexed": false,
          "internalType": "uint256",
          "name": "value",
          "type": "uint256"
        }
      ],
      "name": "Transfer",
      "type": "event"
    },
    {
      "inputs": [
        {
          "internalType": "address",
          "name": "owner",
          "type": "address"
        },
        {
          "internalType": "address",
          "name": "spender",
          "type": "address"
        }
      ],
      "name": "allowance",
      "outputs": [
        {
          "internalType": "uint256",
          "name": "",
          "type": "uint256"
        }
      ],
      "stateMutability": "view",
      "type": "function"
    },
    {
      "inputs": [
        {
          "internalType": "address",
          "name": "spender",
          "type": "address"
        },
        {
          "internalType": "uint256",
          "name": "amount",
          "type": "uint256"
        }
      ],
      "name": "approve",
      "outputs": [
        {
          "internalType": "bool",
          "name": "",
          "type": "bool"
        }
      ],
      "stateMutability": "nonpayable",
      "type": "function"
    },
    {
      "inputs": [
        {
          "internalType": "address",
          "name": "account",
          "type": "address"
        }
      ],
      "name": "balanceOf",
      "outputs": [
        {
          "internalType": "uint256",
          "name": "",
          "type": "uint256"
        }
      ],
      "stateMutability": "view",
      "type": "function"
    },
    {
      "inputs": [],
      "name": "decimals",
      "outputs": [
        {
          "internalType": "uint8",
          "name": "",
          "type": "uint8"
        }
      ],
      "stateMutability": "view",
      "type": "function"
    },
    {
      "inputs": [
        {
          "internalType": "address",
          "name": "spender",
          "type": "address"
        },
        {
          "internalType": "uint256",
          "name": "subtractedValue",
          "type": "uint256"
        }
      ],
      "name": "decreaseAllowance",
      "outputs": [
        {
          "internalType": "bool",
          "name": "",
          "type": "bool"
        }
      ],
      "stateMutability": "nonpayable",
      "type": "function"
    },
    {
      "inputs": [],
      "name": "distributeRewards",
      "outputs": [],
      "stateMutability": "nonpayable",
      "type": "function"
    },
    {
      "inputs": [],
      "name": "getCap",
      "outputs": [
        {
          "internalType": "uint256",
          "name": "",
          "type": "uint256"
        }
      ],
      "stateMutability": "view",
      "type": "function"
    },
    {
      "inputs": [],
      "name": "getDevRewards",
      "outputs": [
        {
          "internalType": "uint256",
          "name": "",
          "type": "uint256"
        }
      ],
      "stateMutability": "view",
      "type": "function"
    },
    {
      "inputs": [],
      "name": "getMaxPeriods",
      "outputs": [
        {
          "internalType": "uint256",
          "name": "",
          "type": "uint256"
        }
      ],
      "stateMutability": "view",
      "type": "function"
    },
    {
      "inputs": [],
      "name": "getRewards",
      "outputs": [
        {
          "internalType": "uint256",
          "name": "",
          "type": "uint256"
        }
      ],
      "stateMutability": "view",
      "type": "function"
    },
    {
      "inputs": [],
      "name": "getRewardsFactor",
      "outputs": [
        {
          "internalType": "uint256",
          "name": "",
          "type": "uint256"
        }
      ],
      "stateMutability": "view",
      "type": "function"
    },
    {
      "inputs": [],
      "name": "getRewardsPeriod",
      "outputs": [
        {
          "internalType": "uint256",
          "name": "",
          "type": "uint256"
        }
      ],
      "stateMutability": "view",
      "type": "function"
    },
    {
      "inputs": [
        {
          "internalType": "address",
          "name": "spender",
          "type": "address"
        },
        {
          "internalType": "uint256",
          "name": "addedValue",
          "type": "uint256"
        }
      ],
      "name": "increaseAllowance",
      "outputs": [
        {
          "internalType": "bool",
          "name": "",
          "type": "bool"
        }
      ],
      "stateMutability": "nonpayable",
      "type": "function"
    },
    {
      "inputs": [
        {
          "internalType": "contract IAddressesProvider",
          "name": "addressProvider",
          "type": "address"
        },
        {
          "internalType": "string",
          "name": "name",
          "type": "string"
        },
        {
          "internalType": "string",
          "name": "symbol",
          "type": "string"
        },
        {
          "internalType": "uint256",
          "name": "cap",
          "type": "uint256"
        },
        {
          "internalType": "address",
          "name": "devAddress",
          "type": "address"
        },
        {
          "internalType": "uint256",
          "name": "devReward",
          "type": "uint256"
        },
        {
          "internalType": "uint256",
          "name": "devVestingTime",
          "type": "uint256"
        },
        {
          "internalType": "uint256",
          "name": "rewardsPeriod",
          "type": "uint256"
        },
        {
          "internalType": "uint256",
          "name": "maxPeriods",
          "type": "uint256"
        },
        {
          "internalType": "uint256",
          "name": "rewardsFactor",
          "type": "uint256"
        }
      ],
      "name": "initialize",
      "outputs": [],
      "stateMutability": "nonpayable",
      "type": "function"
    },
    {
      "inputs": [
        {
          "internalType": "address",
          "name": "account",
          "type": "address"
        },
        {
          "internalType": "uint256",
          "name": "amount",
          "type": "uint256"
        }
      ],
      "name": "mint",
      "outputs": [],
      "stateMutability": "nonpayable",
      "type": "function"
    },
    {
      "inputs": [
        {
          "internalType": "uint256",
          "name": "amount",
          "type": "uint256"
        }
      ],
      "name": "mintDevRewards",
      "outputs": [],
      "stateMutability": "nonpayable",
      "type": "function"
    },
    {
      "inputs": [
        {
          "internalType": "address",
          "name": "receiver",
          "type": "address"
        },
        {
          "internalType": "uint256",
          "name": "amount",
          "type": "uint256"
        }
      ],
      "name": "mintGenesisTokens",
      "outputs": [],
      "stateMutability": "nonpayable",
      "type": "function"
    },
    {
      "inputs": [],
      "name": "name",
      "outputs": [
        {
          "internalType": "string",
          "name": "",
          "type": "string"
        }
      ],
      "stateMutability": "view",
      "type": "function"
    },
    {
      "inputs": [],
      "name": "owner",
      "outputs": [
        {
          "internalType": "address",
          "name": "",
          "type": "address"
        }
      ],
      "stateMutability": "view",
      "type": "function"
    },
    {
      "inputs": [],
      "name": "renounceOwnership",
      "outputs": [],
      "stateMutability": "nonpayable",
      "type": "function"
    },
    {
      "inputs": [
        {
          "internalType": "uint256",
          "name": "maxPeriods",
          "type": "uint256"
        }
      ],
      "name": "setMaxPeriods",
      "outputs": [],
      "stateMutability": "nonpayable",
      "type": "function"
    },
    {
      "inputs": [
        {
          "internalType": "uint256",
          "name": "rewardsFactor",
          "type": "uint256"
        }
      ],
      "name": "setRewardsFactor",
      "outputs": [],
      "stateMutability": "nonpayable",
      "type": "function"
    },
    {
      "inputs": [
        {
          "internalType": "uint256",
          "name": "rewardsPeriod",
          "type": "uint256"
        }
      ],
      "name": "setRewardsPeriod",
      "outputs": [],
      "stateMutability": "nonpayable",
      "type": "function"
    },
    {
      "inputs": [],
      "name": "symbol",
      "outputs": [
        {
          "internalType": "string",
          "name": "",
          "type": "string"
        }
      ],
      "stateMutability": "view",
      "type": "function"
    },
    {
      "inputs": [],
      "name": "totalSupply",
      "outputs": [
        {
          "internalType": "uint256",
          "name": "",
          "type": "uint256"
        }
      ],
      "stateMutability": "view",
      "type": "function"
    },
    {
      "inputs": [
        {
          "internalType": "address",
          "name": "to",
          "type": "address"
        },
        {
          "internalType": "uint256",
          "name": "amount",
          "type": "uint256"
        }
      ],
      "name": "transfer",
      "outputs": [
        {
          "internalType": "bool",
          "name": "",
          "type": "bool"
        }
      ],
      "stateMutability": "nonpayable",
      "type": "function"
    },
    {
      "inputs": [
        {
          "internalType": "address",
          "name": "from",
          "type": "address"
        },
        {
          "internalType": "address",
          "name": "to",
          "type": "address"
        },
        {
          "internalType": "uint256",
          "name": "amount",
          "type": "uint256"
        }
      ],
      "name": "transferFrom",
      "outputs": [
        {
          "internalType": "bool",
          "name": "",
          "type": "bool"
        }
      ],
      "stateMutability": "nonpayable",
      "type": "function"
    },
    {
      "inputs": [
        {
          "internalType": "address",
          "name": "newOwner",
          "type": "address"
        }
      ],
      "name": "transferOwnership",
      "outputs": [],
      "stateMutability": "nonpayable",
      "type": "function"
    }
  ],
  "bytecode": "0x60808060405234610016576117a3908161001c8239f35b600080fdfe6040608081526004908136101561001557600080fd5b600091823560e01c80630572b0cc1461102457806306fdde0314610f7a578063095ea7b314610f5057806318160ddd14610f3157806323b872dd14610e65578063313ce56714610e495780633950935114610df957806340c10f1914610dcb578063554d578d14610dac5780636a953c1d14610d225780636f4a2cd014610b3f57806370a0823114610b07578063715018a614610aa75780637ce04a5514610a865780637f10996b146109aa57806385bc0a7e1461098b5780638da5cb5b14610962578063939a10c614610943578063954fe8c71461047457806395d89b4114610393578063a457c2d7146102ec578063a9059cbb146102bb578063c9deaf3114610297578063cd155e4714610278578063da606ce214610257578063dd62ed3e1461020a578063e5f71975146101e95763f2fde38b1461015557600080fd5b346101e55760203660031901126101e55761016e611098565b906101776110f7565b6001600160a01b0382161561019357506101909061114f565b51f35b608490602084519162461bcd60e51b8352820152602660248201527f4f776e61626c653a206e6577206f776e657220697320746865207a65726f206160448201526564647265737360d01b6064820152fd5b8280fd5b50346101e55760203660031901126101e5576102036110f7565b3560d15551f35b50503461025357806003193601126102535780602092610228611098565b6102306110b3565b6001600160a01b0391821683526034865283832091168252845220549051908152f35b5080fd5b50346101e55760203660031901126101e5576102716110f7565b3560d35551f35b50503461025357816003193601126102535760209060d2549051908152f35b5050346102535781600319360112610253576020906102b461171c565b9051908152f35b5050346102535780600319360112610253576020906102e56102db611098565b6024359033611233565b5160018152f35b508234610390578260031936011261039057610306611098565b918360243592338152603460205281812060018060a01b038616825260205220549082821061033f576020856102e585850387336113aa565b608490602086519162461bcd60e51b8352820152602560248201527f45524332303a2064656372656173656420616c6c6f77616e63652062656c6f77604482015264207a65726f60d81b6064820152fd5b80fd5b505034610253578160031936011261025357805190826037546103b58161119f565b8085529160019180831690811561044c57506001146103ef575b5050506103e1826103eb9403836111d9565b5191829182611041565b0390f35b9450603785527f42a7b7dd785cd69714a189dffb3fd7d7174edc9ece837694ce50f7078f7c31ae5b828610610434575050506103e18260206103eb95820101946103cf565b80546020878701810191909152909501948101610417565b6103eb9750869350602092506103e194915060ff191682840152151560051b820101946103cf565b50346101e5576101403660031901126101e55780356001600160a01b03818116929183900361093f5767ffffffffffffffff9260243584811161093b576104be90369085016110c9565b949093604435828111610937576104d890369083016110c9565b919060843595861680960361093357895460ff8160081c161597888099610926575b801561090f575b156108b557908b929160019a8a8c60ff19851617865560ff6105569661054e9561053e936108a4575b505460081c16610539816114f3565b6114f3565b6105473361114f565b36916114ac565b9336916114ac565b9061056b60ff8b5460081c16610539816114f3565b8251848111610891578061058060365461119f565b94601f95868111610820575b506020908d8784116001146107a15792610796575b5050600019600383901b1c191690891b176036555b815193841161078357509082916105ce60375461119f565b828111610713575b506020918311600114610694578992610689575b5050600019600383901b1c191690851b176037555b6bffffffffffffffffffffffff60a01b908160c954161760c95560643560cf554260cb5560ca54161760ca5560a43560cc5560c43560cd5560e43560d2556101043560d3556101243560d155610653575051f35b60207f7f26b83ff96e1f2b6a682f133852f6798a09c465da95921460cefb38474024989161ff001985541685558351908152a151f35b0151905038806105ea565b60378a528793507f42a7b7dd785cd69714a189dffb3fd7d7174edc9ece837694ce50f7078f7c31ae9190601f1984168b5b8181106106fb575084116106e2575b505050811b016037556105ff565b015160001960f88460031b161c191690553880806106d4565b8284015185558a9690940193602093840193016106c5565b9091925060378a527f42a7b7dd785cd69714a189dffb3fd7d7174edc9ece837694ce50f7078f7c31ae8380860160051c8201926020871061077a575b9186958b929594930160051c01915b82811061076c5750506105d6565b8c81558695508a910161075e565b9250819261074f565b634e487b7160e01b8a5260419052602489fd5b0151905038806105a1565b91908c9450601f198416603684527f4a11f94e20a93c79f6ec743a1954ec4fc2c08429ae2122118bf234b2185c81b8935b818110610808575084116107ef575b505050811b016036556105b6565b015160001960f88460031b161c191690553880806107e1565b8284015185558e9690940193602093840193016107d2565b90915060368d527f4a11f94e20a93c79f6ec743a1954ec4fc2c08429ae2122118bf234b2185c81b88680850160051c82019260208610610888575b859493910160051c909101908c908f5b83821061087a5750505061058c565b81558594508d91018f61086b565b9250819261085b565b634e487b7160e01b8b526041825260248bfd5b61ffff19166101011781553861052a565b8a5162461bcd60e51b8152602081860152602e60248201527f496e697469616c697a61626c653a20636f6e747261637420697320616c72656160448201526d191e481a5b9a5d1a585b1a5e995960921b6064820152608490fd5b50303b1580156105015750600160ff831614610501565b50600160ff8316106104fa565b8980fd5b8880fd5b8680fd5b8480fd5b50503461025357816003193601126102535760209060d3549051908152f35b50503461025357816003193601126102535760655490516001600160a01b039091168152602090f35b50503461025357816003193601126102535760209060d1549051908152f35b50346101e55760203660031901126101e55780359060018060a01b0360ca541690813303610a4e57826109db61171c565b106109fd5750906109ef816109f793611553565b60ce54611211565b60ce5551f35b608490602085519162461bcd60e51b8352820152602560248201527f416d6f756e7420626967676572207468616e20616c6c6f7765642062792076656044820152647374696e6760d81b6064820152fd5b606490602085519162461bcd60e51b8352820152601260248201527121b0b63632b91036bab9ba103132903232bb60711b6044820152fd5b50346101e55760203660031901126101e557610aa06110f7565b3560d25551f35b505034610253578160031936011261025357610ac16110f7565b606580546001600160a01b0319811690915590519082906001600160a01b03167f8be0079c531659141344cd1fd0a4f28419497f9722a3daafe3b4186f6b6457e08284a3f35b5050346102535760203660031901126102535760209181906001600160a01b03610b2f611098565b1681526033845220549051908152f35b50346101e557826003193601126101e557600260975414610ce057600260975560d054610b6f60d2548092611211565b421115610c8457610b829060d35461166b565b610b8e60cb544261167e565b1015610c4957610b9c6116a9565b60c9548351634e5f612b60e11b8152919260209183919082906001600160a01b03165afa918215610c3c57610bfd817fb9d196a585c1a894f648393ec7d52cc59ff6d94191579d073ba32b0a74d7f7a6946020948891610c0f575b50611553565b4260d0558351908152a1600160975551f35b610c2f9150853d8111610c35575b610c2781836111d9565b81019061164c565b38610bf7565b503d610c1d565b50505051903d90823e3d90fd5b6020606492519162461bcd60e51b835282015260166024820152752932bbb0b93239903832b934b7b21034b99037bb32b960511b6044820152fd5b506020608492519162461bcd60e51b8352820152603060248201527f4e6f7420656e6f7567682074696d652073696e6365206c61737420726577617260448201526f3239903234b9ba3934b13aba34b7b71760811b6064820152fd5b6020606492519162461bcd60e51b8352820152601f60248201527f5265656e7472616e637947756172643a207265656e7472616e742063616c6c006044820152fd5b50346101e557816003193601126101e557610d3b611098565b60c9548351630966d5bb60e01b815291926001600160a01b0392916020918391829086165afa908115610da2578591610d84575b501633036101e5576101909060243590611553565b610d9c915060203d8111610c3557610c2781836111d9565b38610d6f565b84513d87823e3d90fd5b50503461025357816003193601126102535760209060cf549051908152f35b505034610253578060031936011261025357610190610de8611098565b610df06110f7565b60243590611553565b5050346102535780600319360112610253576102e5602092610e42610e1c611098565b338352603486528483206001600160a01b03821684528652918490205460243590611211565b90336113aa565b5050346102535781600319360112610253576020905160128152f35b5082903461025357606036600319011261025357610e81611098565b610e896110b3565b6001600160a01b03821684526034602090815285852033865290529284902054604435939260018201610ec5575b6020866102e5878787611233565b848210610eee5750918391610ee3602096956102e5950333836113aa565b919394819350610eb7565b606490602087519162461bcd60e51b8352820152601d60248201527f45524332303a20696e73756666696369656e7420616c6c6f77616e63650000006044820152fd5b5050346102535781600319360112610253576020906035549051908152f35b5050346102535780600319360112610253576020906102e5610f70611098565b60243590336113aa565b50503461025357816003193601126102535780519082603654610f9c8161119f565b8085529160019180831690811561044c5750600114610fc7575050506103e1826103eb9403836111d9565b9450603685527f4a11f94e20a93c79f6ec743a1954ec4fc2c08429ae2122118bf234b2185c81b85b82861061100c575050506103e18260206103eb95820101946103cf565b80546020878701810191909152909501948101610fef565b5050346102535781600319360112610253576020906102b46116a9565b919091602080825283519081818401526000945b828610611082575050806040939411611075575b601f01601f1916010190565b6000838284010152611069565b8581018201518487016040015294810194611055565b600435906001600160a01b03821682036110ae57565b600080fd5b602435906001600160a01b03821682036110ae57565b9181601f840112156110ae5782359167ffffffffffffffff83116110ae57602083818601950101116110ae57565b6065546001600160a01b0316330361110b57565b606460405162461bcd60e51b815260206004820152602060248201527f4f776e61626c653a2063616c6c6572206973206e6f7420746865206f776e65726044820152fd5b6065549060018060a01b0380911691826bffffffffffffffffffffffff60a01b821617606555167f8be0079c531659141344cd1fd0a4f28419497f9722a3daafe3b4186f6b6457e06000604051a3565b90600182811c921680156111cf575b60208310146111b957565b634e487b7160e01b600052602260045260246000fd5b91607f16916111ae565b90601f8019910116810190811067ffffffffffffffff8211176111fb57604052565b634e487b7160e01b600052604160045260246000fd5b8119811161121d570190565b634e487b7160e01b600052601160045260246000fd5b6001600160a01b03908116918215611357571691821561130657600082815260336020526040812054918083106112b257604082827fddf252ad1be2c89b69c2b068fc378daa952ba7f163c4a11628f55a4df523b3ef958760209652603386520382822055868152206112a7828254611211565b9055604051908152a3565b60405162461bcd60e51b815260206004820152602660248201527f45524332303a207472616e7366657220616d6f756e7420657863656564732062604482015265616c616e636560d01b6064820152608490fd5b60405162461bcd60e51b815260206004820152602360248201527f45524332303a207472616e7366657220746f20746865207a65726f206164647260448201526265737360e81b6064820152608490fd5b60405162461bcd60e51b815260206004820152602560248201527f45524332303a207472616e736665722066726f6d20746865207a65726f206164604482015264647265737360d81b6064820152608490fd5b6001600160a01b0390811691821561145b571691821561140b5760207f8c5be1e5ebec7d5bd14f71427d1e84f3dd0314c0f7b2291e5b200ac8c7c3b925918360005260348252604060002085600052825280604060002055604051908152a3565b60405162461bcd60e51b815260206004820152602260248201527f45524332303a20617070726f766520746f20746865207a65726f206164647265604482015261737360f01b6064820152608490fd5b60405162461bcd60e51b8152602060048201526024808201527f45524332303a20617070726f76652066726f6d20746865207a65726f206164646044820152637265737360e01b6064820152608490fd5b92919267ffffffffffffffff82116111fb57604051916114d6601f8201601f1916602001846111d9565b8294818452818301116110ae578281602093846000960137010152565b156114fa57565b60405162461bcd60e51b815260206004820152602b60248201527f496e697469616c697a61626c653a20636f6e7472616374206973206e6f74206960448201526a6e697469616c697a696e6760a81b6064820152608490fd5b603554906115618383611211565b60cf5410611607576001600160a01b03169182156115c2576020816115a97fddf252ad1be2c89b69c2b068fc378daa952ba7f163c4a11628f55a4df523b3ef93600095611211565b60355584845260338252604084206112a7828254611211565b60405162461bcd60e51b815260206004820152601f60248201527f45524332303a206d696e7420746f20746865207a65726f2061646472657373006044820152606490fd5b60405162461bcd60e51b815260206004820152601960248201527f4e6174697665546f6b656e3a20636170206578636565646564000000000000006044820152606490fd5b908160209103126110ae57516001600160a01b03811681036110ae5790565b806000190482118115151661121d570290565b81811061121d570390565b8115611693570490565b634e487b7160e01b600052601260045260246000fd5b600060d35460d2546116bb818361166b565b60cb54906116c9824261167e565b106116d5575b50505090565b61171493509061170861170e9261170260d154916116fd42916116f8878a61166b565b611211565b61167e565b9061166b565b9261166b565b90611689565b3880806116cf565b60cb54611729814261167e565b9060cd548092106000146117605761175d9161174f6117549261170260cc54914261167e565b611689565b60ce549061167e565b90565b505061175d60cc5461175456fea264697066735822122048f90655388212ba99e0c564d04bd8efe3091fa9caa746bfa6791ca6dc016aec64736f6c634300080f0033",
  "linkReferences": {},
  "deployedLinkReferences": {}
}