{
  "_format": "hh-sol-artifact-1",
  "contractName": "NativeToken",
  "sourceName": "contracts/protocol/NativeToken.sol",
  "abi": [
    {
      "inputs": [],
      "stateMutability": "nonpayable",
      "type": "constructor"
    },
    {
      "anonymous": false,
      "inputs": [
        {
          "indexed": true,
          "internalType": "address",
          "name": "owner",
          "type": "address"
        },
        {
          "indexed": true,
          "internalType": "address",
          "name": "spender",
          "type": "address"
        },
        {
          "indexed": false,
          "internalType": "uint256",
          "name": "value",
          "type": "uint256"
        }
      ],
      "name": "Approval",
      "type": "event"
    },
    {
      "anonymous": false,
      "inputs": [
        {
          "indexed": false,
          "internalType": "uint8",
          "name": "version",
          "type": "uint8"
        }
      ],
      "name": "Initialized",
      "type": "event"
    },
    {
      "anonymous": false,
      "inputs": [
        {
          "indexed": true,
          "internalType": "address",
          "name": "previousOwner",
          "type": "address"
        },
        {
          "indexed": true,
          "internalType": "address",
          "name": "newOwner",
          "type": "address"
        }
      ],
      "name": "OwnershipTransferred",
      "type": "event"
    },
    {
      "anonymous": false,
      "inputs": [
        {
          "indexed": true,
          "internalType": "address",
          "name": "from",
          "type": "address"
        },
        {
          "indexed": true,
          "internalType": "address",
          "name": "to",
          "type": "address"
        },
        {
          "indexed": false,
          "internalType": "uint256",
          "name": "value",
          "type": "uint256"
        }
      ],
      "name": "Transfer",
      "type": "event"
    },
    {
      "inputs": [
        {
          "internalType": "address",
          "name": "owner",
          "type": "address"
        },
        {
          "internalType": "address",
          "name": "spender",
          "type": "address"
        }
      ],
      "name": "allowance",
      "outputs": [
        {
          "internalType": "uint256",
          "name": "",
          "type": "uint256"
        }
      ],
      "stateMutability": "view",
      "type": "function"
    },
    {
      "inputs": [
        {
          "internalType": "address",
          "name": "spender",
          "type": "address"
        },
        {
          "internalType": "uint256",
          "name": "amount",
          "type": "uint256"
        }
      ],
      "name": "approve",
      "outputs": [
        {
          "internalType": "bool",
          "name": "",
          "type": "bool"
        }
      ],
      "stateMutability": "nonpayable",
      "type": "function"
    },
    {
      "inputs": [
        {
          "internalType": "address",
          "name": "account",
          "type": "address"
        }
      ],
      "name": "balanceOf",
      "outputs": [
        {
          "internalType": "uint256",
          "name": "",
          "type": "uint256"
        }
      ],
      "stateMutability": "view",
      "type": "function"
    },
    {
      "inputs": [
        {
          "internalType": "uint256",
          "name": "amount",
          "type": "uint256"
        }
      ],
      "name": "burnGenesisTokens",
      "outputs": [],
      "stateMutability": "nonpayable",
      "type": "function"
    },
    {
      "inputs": [],
      "name": "decimals",
      "outputs": [
        {
          "internalType": "uint8",
          "name": "",
          "type": "uint8"
        }
      ],
      "stateMutability": "view",
      "type": "function"
    },
    {
      "inputs": [
        {
          "internalType": "address",
          "name": "spender",
          "type": "address"
        },
        {
          "internalType": "uint256",
          "name": "subtractedValue",
          "type": "uint256"
        }
      ],
      "name": "decreaseAllowance",
      "outputs": [
        {
          "internalType": "bool",
          "name": "",
          "type": "bool"
        }
      ],
      "stateMutability": "nonpayable",
      "type": "function"
    },
    {
      "inputs": [],
      "name": "getCap",
      "outputs": [
        {
          "internalType": "uint256",
          "name": "",
          "type": "uint256"
        }
      ],
      "stateMutability": "view",
      "type": "function"
    },
    {
      "inputs": [
        {
          "internalType": "address",
          "name": "spender",
          "type": "address"
        },
        {
          "internalType": "uint256",
          "name": "addedValue",
          "type": "uint256"
        }
      ],
      "name": "increaseAllowance",
      "outputs": [
        {
          "internalType": "bool",
          "name": "",
          "type": "bool"
        }
      ],
      "stateMutability": "nonpayable",
      "type": "function"
    },
    {
      "inputs": [
        {
          "internalType": "contract IAddressesProvider",
          "name": "addressProvider",
          "type": "address"
        },
        {
          "internalType": "string",
          "name": "name",
          "type": "string"
        },
        {
          "internalType": "string",
          "name": "symbol",
          "type": "string"
        },
        {
          "internalType": "uint256",
          "name": "cap",
          "type": "uint256"
        }
      ],
      "name": "initialize",
      "outputs": [],
      "stateMutability": "nonpayable",
      "type": "function"
    },
    {
      "inputs": [
        {
          "internalType": "address",
          "name": "account",
          "type": "address"
        },
        {
          "internalType": "uint256",
          "name": "amount",
          "type": "uint256"
        }
      ],
      "name": "mint",
      "outputs": [],
      "stateMutability": "nonpayable",
      "type": "function"
    },
    {
      "inputs": [
        {
          "internalType": "address",
          "name": "receiver",
          "type": "address"
        },
        {
          "internalType": "uint256",
          "name": "amount",
          "type": "uint256"
        }
      ],
      "name": "mintGaugeRewards",
      "outputs": [],
      "stateMutability": "nonpayable",
      "type": "function"
    },
    {
      "inputs": [
        {
          "internalType": "uint256",
          "name": "amount",
          "type": "uint256"
        }
      ],
      "name": "mintGenesisTokens",
      "outputs": [],
      "stateMutability": "nonpayable",
      "type": "function"
    },
    {
      "inputs": [
        {
          "internalType": "address",
          "name": "receiver",
          "type": "address"
        },
        {
          "internalType": "uint256",
          "name": "amount",
          "type": "uint256"
        }
      ],
      "name": "mintRebates",
      "outputs": [],
      "stateMutability": "nonpayable",
      "type": "function"
    },
    {
      "inputs": [],
      "name": "name",
      "outputs": [
        {
          "internalType": "string",
          "name": "",
          "type": "string"
        }
      ],
      "stateMutability": "view",
      "type": "function"
    },
    {
      "inputs": [],
      "name": "owner",
      "outputs": [
        {
          "internalType": "address",
          "name": "",
          "type": "address"
        }
      ],
      "stateMutability": "view",
      "type": "function"
    },
    {
      "inputs": [],
      "name": "renounceOwnership",
      "outputs": [],
      "stateMutability": "nonpayable",
      "type": "function"
    },
    {
      "inputs": [],
      "name": "symbol",
      "outputs": [
        {
          "internalType": "string",
          "name": "",
          "type": "string"
        }
      ],
      "stateMutability": "view",
      "type": "function"
    },
    {
      "inputs": [],
      "name": "totalSupply",
      "outputs": [
        {
          "internalType": "uint256",
          "name": "",
          "type": "uint256"
        }
      ],
      "stateMutability": "view",
      "type": "function"
    },
    {
      "inputs": [
        {
          "internalType": "address",
          "name": "to",
          "type": "address"
        },
        {
          "internalType": "uint256",
          "name": "amount",
          "type": "uint256"
        }
      ],
      "name": "transfer",
      "outputs": [
        {
          "internalType": "bool",
          "name": "",
          "type": "bool"
        }
      ],
      "stateMutability": "nonpayable",
      "type": "function"
    },
    {
      "inputs": [
        {
          "internalType": "address",
          "name": "from",
          "type": "address"
        },
        {
          "internalType": "address",
          "name": "to",
          "type": "address"
        },
        {
          "internalType": "uint256",
          "name": "amount",
          "type": "uint256"
        }
      ],
      "name": "transferFrom",
      "outputs": [
        {
          "internalType": "bool",
          "name": "",
          "type": "bool"
        }
      ],
      "stateMutability": "nonpayable",
      "type": "function"
    },
    {
      "inputs": [
        {
          "internalType": "address",
          "name": "newOwner",
          "type": "address"
        }
      ],
      "name": "transferOwnership",
      "outputs": [],
      "stateMutability": "nonpayable",
      "type": "function"
    }
  ],
  "bytecode": "0x608060405234801561001057600080fd5b5061001961001e565b6100de565b600054610100900460ff161561008a5760405162461bcd60e51b815260206004820152602760248201527f496e697469616c697a61626c653a20636f6e747261637420697320696e697469604482015266616c697a696e6760c81b606482015260840160405180910390fd5b60005460ff90811610156100dc576000805460ff191660ff9081179091556040519081527f7f26b83ff96e1f2b6a682f133852f6798a09c465da95921460cefb38474024989060200160405180910390a15b565b611730806100ed6000396000f3fe608060405234801561001057600080fd5b50600436106101375760003560e01c806350666e31116100b857806395d89b411161007c57806395d89b4114610279578063a457c2d714610281578063a9059cbb14610294578063aa6e24ba146102a7578063dd62ed3e146102ba578063f2fde38b146102cd57600080fd5b806350666e3114610212578063554d578d1461022557806370a082311461022d578063715018a6146102565780638da5cb5b1461025e57600080fd5b8063313ce567116100ff578063313ce567146101b757806339509351146101c65780633d9310ee146101d957806340c10f19146101ec5780634d12d4b6146101ff57600080fd5b806306fdde031461013c578063095ea7b31461015a5780630a8514c41461017d57806318160ddd1461019257806323b872dd146101a4575b600080fd5b6101446102e0565b60405161015191906112d7565b60405180910390f35b61016d61016836600461133a565b610372565b6040519015158152602001610151565b61019061018b366004611366565b61038c565b005b6035545b604051908152602001610151565b61016d6101b236600461137f565b61046a565b60405160128152602001610151565b61016d6101d436600461133a565b61048e565b6101906101e736600461133a565b6104b0565b6101906101fa36600461133a565b6105eb565b61019061020d366004611409565b6105f3565b610190610220366004611366565b6107ad565b60ca54610196565b61019661023b366004611494565b6001600160a01b031660009081526033602052604090205490565b610190610883565b6065546040516001600160a01b039091168152602001610151565b610144610897565b61016d61028f36600461133a565b6108a6565b61016d6102a236600461133a565b610921565b6101906102b536600461133a565b61092f565b6101966102c83660046114b8565b610a06565b6101906102db366004611494565b610a31565b6060603680546102ef906114f1565b80601f016020809104026020016040519081016040528092919081815260200182805461031b906114f1565b80156103685780601f1061033d57610100808354040283529160200191610368565b820191906000526020600020905b81548152906001019060200180831161034b57829003601f168201915b5050505050905090565b600033610380818585610aa7565b60019150505b92915050565b60c960009054906101000a90046001600160a01b03166001600160a01b0316630966d5bb6040518163ffffffff1660e01b8152600401602060405180830381865afa1580156103df573d6000803e3d6000fd5b505050506040513d601f19601f82011682018060405250810190610403919061152b565b6001600160a01b0316336001600160a01b03161461045d5760405162461bcd60e51b81526020600482015260126024820152714e543a4d47543a4e4f545f47454e4553495360701b60448201526064015b60405180910390fd5b6104673382610bcb565b50565b600033610478858285610c6e565b610483858585610ce8565b506001949350505050565b6000336103808185856104a18383610a06565b6104ab9190611548565b610aa7565b60c960009054906101000a90046001600160a01b03166001600160a01b03166358de9ade6040518163ffffffff1660e01b8152600401602060405180830381865afa158015610503573d6000803e3d6000fd5b505050506040513d601f19601f82011682018060405250810190610527919061152b565b6001600160a01b031663aa79979b336040516001600160e01b031960e084901b1681526001600160a01b039091166004820152602401602060405180830381865afa15801561057a573d6000803e3d6000fd5b505050506040513d601f19601f8201168201806040525081019061059e9190611569565b6105dd5760405162461bcd60e51b815260206004820152601060248201526f4e543a4d47523a4e4f545f474155474560801b6044820152606401610454565b6105e78282610bcb565b5050565b6105dd610e93565b600054610100900460ff16158080156106135750600054600160ff909116105b8061062d5750303b15801561062d575060005460ff166001145b6106905760405162461bcd60e51b815260206004820152602e60248201527f496e697469616c697a61626c653a20636f6e747261637420697320616c72656160448201526d191e481a5b9a5d1a585b1a5e995960921b6064820152608401610454565b6000805460ff1916600117905580156106b3576000805461ff0019166101001790555b61072686868080601f01602080910402602001604051908101604052809392919081815260200183838082843760009201919091525050604080516020601f8a018190048102820181019092528881529250889150879081908401838280828437600092019190915250610eed92505050565b61072e610f1e565b610736610f4d565b61073e610f7c565b60c980546001600160a01b0319166001600160a01b03891617905560ca82905580156107a4576000805461ff0019169055604051600181527f7f26b83ff96e1f2b6a682f133852f6798a09c465da95921460cefb38474024989060200160405180910390a15b50505050505050565b60c960009054906101000a90046001600160a01b03166001600160a01b0316630966d5bb6040518163ffffffff1660e01b8152600401602060405180830381865afa158015610800573d6000803e3d6000fd5b505050506040513d601f19601f82011682018060405250810190610824919061152b565b6001600160a01b0316336001600160a01b0316146108795760405162461bcd60e51b81526020600482015260126024820152714e543a4247543a4e4f545f47454e4553495360701b6044820152606401610454565b6104673382610fa3565b61088b610e93565b6108956000610fed565b565b6060603780546102ef906114f1565b600033816108b48286610a06565b9050838110156109145760405162461bcd60e51b815260206004820152602560248201527f45524332303a2064656372656173656420616c6c6f77616e63652062656c6f77604482015264207a65726f60d81b6064820152608401610454565b6104838286868403610aa7565b600033610380818585610ce8565b60c960009054906101000a90046001600160a01b03166001600160a01b03166308b0308a6040518163ffffffff1660e01b8152600401602060405180830381865afa158015610982573d6000803e3d6000fd5b505050506040513d601f19601f820116820180604052508101906109a6919061152b565b6001600160a01b0316336001600160a01b0316146105dd5760405162461bcd60e51b815260206004820152601760248201527f4e543a4d523a4e4f545f564f54494e475f455343524f570000000000000000006044820152606401610454565b6001600160a01b03918216600090815260346020908152604080832093909416825291909152205490565b610a39610e93565b6001600160a01b038116610a9e5760405162461bcd60e51b815260206004820152602660248201527f4f776e61626c653a206e6577206f776e657220697320746865207a65726f206160448201526564647265737360d01b6064820152608401610454565b61046781610fed565b6001600160a01b038316610b095760405162461bcd60e51b8152602060048201526024808201527f45524332303a20617070726f76652066726f6d20746865207a65726f206164646044820152637265737360e01b6064820152608401610454565b6001600160a01b038216610b6a5760405162461bcd60e51b815260206004820152602260248201527f45524332303a20617070726f766520746f20746865207a65726f206164647265604482015261737360f01b6064820152608401610454565b6001600160a01b0383811660008181526034602090815260408083209487168084529482529182902085905590518481527f8c5be1e5ebec7d5bd14f71427d1e84f3dd0314c0f7b2291e5b200ac8c7c3b925910160405180910390a3505050565b60008111610c0b5760405162461bcd60e51b815260206004820152600d60248201526c04e543a4d3a414d4f554e545f3609c1b6044820152606401610454565b60ca5481610c1860355490565b610c229190611548565b1115610c645760405162461bcd60e51b815260206004820152601160248201527013950e934e90d05417d15610d151511151607a1b6044820152606401610454565b6105e7828261103f565b6000610c7a8484610a06565b90506000198114610ce25781811015610cd55760405162461bcd60e51b815260206004820152601d60248201527f45524332303a20696e73756666696369656e7420616c6c6f77616e63650000006044820152606401610454565b610ce28484848403610aa7565b50505050565b6001600160a01b038316610d4c5760405162461bcd60e51b815260206004820152602560248201527f45524332303a207472616e736665722066726f6d20746865207a65726f206164604482015264647265737360d81b6064820152608401610454565b6001600160a01b038216610dae5760405162461bcd60e51b815260206004820152602360248201527f45524332303a207472616e7366657220746f20746865207a65726f206164647260448201526265737360e81b6064820152608401610454565b6001600160a01b03831660009081526033602052604090205481811015610e265760405162461bcd60e51b815260206004820152602660248201527f45524332303a207472616e7366657220616d6f756e7420657863656564732062604482015265616c616e636560d01b6064820152608401610454565b6001600160a01b0380851660008181526033602052604080822086860390559286168082529083902080548601905591517fddf252ad1be2c89b69c2b068fc378daa952ba7f163c4a11628f55a4df523b3ef90610e869086815260200190565b60405180910390a3610ce2565b6065546001600160a01b031633146108955760405162461bcd60e51b815260206004820181905260248201527f4f776e61626c653a2063616c6c6572206973206e6f7420746865206f776e65726044820152606401610454565b600054610100900460ff16610f145760405162461bcd60e51b81526004016104549061158b565b6105e78282611105565b600054610100900460ff16610f455760405162461bcd60e51b81526004016104549061158b565b610895611145565b600054610100900460ff16610f745760405162461bcd60e51b81526004016104549061158b565b610895611175565b600054610100900460ff166108955760405162461bcd60e51b81526004016104549061158b565b60008111610fe35760405162461bcd60e51b815260206004820152600d60248201526c04e543a423a414d4f554e545f3609c1b6044820152606401610454565b6105e782826111a3565b606580546001600160a01b038381166001600160a01b0319831681179093556040519116919082907f8be0079c531659141344cd1fd0a4f28419497f9722a3daafe3b4186f6b6457e090600090a35050565b6001600160a01b0382166110955760405162461bcd60e51b815260206004820152601f60248201527f45524332303a206d696e7420746f20746865207a65726f2061646472657373006044820152606401610454565b80603560008282546110a79190611548565b90915550506001600160a01b0382166000818152603360209081526040808320805486019055518481527fddf252ad1be2c89b69c2b068fc378daa952ba7f163c4a11628f55a4df523b3ef910160405180910390a35050565b505050565b600054610100900460ff1661112c5760405162461bcd60e51b81526004016104549061158b565b6036611138838261163a565b506037611100828261163a565b600054610100900460ff1661116c5760405162461bcd60e51b81526004016104549061158b565b61089533610fed565b600054610100900460ff1661119c5760405162461bcd60e51b81526004016104549061158b565b6001609755565b6001600160a01b0382166112035760405162461bcd60e51b815260206004820152602160248201527f45524332303a206275726e2066726f6d20746865207a65726f206164647265736044820152607360f81b6064820152608401610454565b6001600160a01b038216600090815260336020526040902054818110156112775760405162461bcd60e51b815260206004820152602260248201527f45524332303a206275726e20616d6f756e7420657863656564732062616c616e604482015261636560f01b6064820152608401610454565b6001600160a01b03831660008181526033602090815260408083208686039055603580548790039055518581529192917fddf252ad1be2c89b69c2b068fc378daa952ba7f163c4a11628f55a4df523b3ef910160405180910390a3505050565b600060208083528351808285015260005b81811015611304578581018301518582016040015282016112e8565b506000604082860101526040601f19601f8301168501019250505092915050565b6001600160a01b038116811461046757600080fd5b6000806040838503121561134d57600080fd5b823561135881611325565b946020939093013593505050565b60006020828403121561137857600080fd5b5035919050565b60008060006060848603121561139457600080fd5b833561139f81611325565b925060208401356113af81611325565b929592945050506040919091013590565b60008083601f8401126113d257600080fd5b50813567ffffffffffffffff8111156113ea57600080fd5b60208301915083602082850101111561140257600080fd5b9250929050565b6000806000806000806080878903121561142257600080fd5b863561142d81611325565b9550602087013567ffffffffffffffff8082111561144a57600080fd5b6114568a838b016113c0565b9097509550604089013591508082111561146f57600080fd5b5061147c89828a016113c0565b979a9699509497949695606090950135949350505050565b6000602082840312156114a657600080fd5b81356114b181611325565b9392505050565b600080604083850312156114cb57600080fd5b82356114d681611325565b915060208301356114e681611325565b809150509250929050565b600181811c9082168061150557607f821691505b60208210810361152557634e487b7160e01b600052602260045260246000fd5b50919050565b60006020828403121561153d57600080fd5b81516114b181611325565b8082018082111561038657634e487b7160e01b600052601160045260246000fd5b60006020828403121561157b57600080fd5b815180151581146114b157600080fd5b6020808252602b908201527f496e697469616c697a61626c653a20636f6e7472616374206973206e6f74206960408201526a6e697469616c697a696e6760a81b606082015260800190565b634e487b7160e01b600052604160045260246000fd5b601f82111561110057600081815260208120601f850160051c810160208610156116135750805b601f850160051c820191505b818110156116325782815560010161161f565b505050505050565b815167ffffffffffffffff811115611654576116546115d6565b6116688161166284546114f1565b846115ec565b602080601f83116001811461169d57600084156116855750858301515b600019600386901b1c1916600185901b178555611632565b600085815260208120601f198616915b828110156116cc578886015182559484019460019091019084016116ad565b50858210156116ea5787850151600019600388901b60f8161c191681555b5050505050600190811b0190555056fea2646970667358221220fbca8c247f376485e3353c378707658e398671747e4e255f90f5166b33a495bf64736f6c63430008130033",
  "linkReferences": {},
  "deployedLinkReferences": {}
}