{
  "_format": "hh-sol-artifact-1",
  "contractName": "NativeTokenVault",
  "sourceName": "contracts/protocol/NativeTokenVault.sol",
  "abi": [
    {
      "anonymous": false,
      "inputs": [
        {
          "indexed": true,
          "internalType": "address",
          "name": "owner",
          "type": "address"
        },
        {
          "indexed": true,
          "internalType": "address",
          "name": "spender",
          "type": "address"
        },
        {
          "indexed": false,
          "internalType": "uint256",
          "name": "value",
          "type": "uint256"
        }
      ],
      "name": "Approval",
      "type": "event"
    },
    {
      "anonymous": false,
      "inputs": [
        {
          "indexed": false,
          "internalType": "uint8",
          "name": "version",
          "type": "uint8"
        }
      ],
      "name": "Initialized",
      "type": "event"
    },
    {
      "anonymous": false,
      "inputs": [
        {
          "indexed": true,
          "internalType": "address",
          "name": "previousOwner",
          "type": "address"
        },
        {
          "indexed": true,
          "internalType": "address",
          "name": "newOwner",
          "type": "address"
        }
      ],
      "name": "OwnershipTransferred",
      "type": "event"
    },
    {
      "anonymous": false,
      "inputs": [
        {
          "indexed": true,
          "internalType": "address",
          "name": "from",
          "type": "address"
        },
        {
          "indexed": true,
          "internalType": "address",
          "name": "to",
          "type": "address"
        },
        {
          "indexed": false,
          "internalType": "uint256",
          "name": "value",
          "type": "uint256"
        }
      ],
      "name": "Transfer",
      "type": "event"
    },
    {
      "inputs": [
        {
          "internalType": "address",
          "name": "owner",
          "type": "address"
        },
        {
          "internalType": "address",
          "name": "spender",
          "type": "address"
        }
      ],
      "name": "allowance",
      "outputs": [
        {
          "internalType": "uint256",
          "name": "",
          "type": "uint256"
        }
      ],
      "stateMutability": "view",
      "type": "function"
    },
    {
      "inputs": [
        {
          "internalType": "address",
          "name": "spender",
          "type": "address"
        },
        {
          "internalType": "uint256",
          "name": "amount",
          "type": "uint256"
        }
      ],
      "name": "approve",
      "outputs": [
        {
          "internalType": "bool",
          "name": "",
          "type": "bool"
        }
      ],
      "stateMutability": "nonpayable",
      "type": "function"
    },
    {
      "inputs": [
        {
          "internalType": "address",
          "name": "account",
          "type": "address"
        }
      ],
      "name": "balanceOf",
      "outputs": [
        {
          "internalType": "uint256",
          "name": "",
          "type": "uint256"
        }
      ],
      "stateMutability": "view",
      "type": "function"
    },
    {
      "inputs": [
        {
          "internalType": "uint256",
          "name": "amount",
          "type": "uint256"
        },
        {
          "internalType": "address",
          "name": "collection",
          "type": "address"
        }
      ],
      "name": "createRemoveVoteRequest",
      "outputs": [],
      "stateMutability": "nonpayable",
      "type": "function"
    },
    {
      "inputs": [],
      "name": "decimals",
      "outputs": [
        {
          "internalType": "uint8",
          "name": "",
          "type": "uint8"
        }
      ],
      "stateMutability": "view",
      "type": "function"
    },
    {
      "inputs": [
        {
          "internalType": "address",
          "name": "spender",
          "type": "address"
        },
        {
          "internalType": "uint256",
          "name": "subtractedValue",
          "type": "uint256"
        }
      ],
      "name": "decreaseAllowance",
      "outputs": [
        {
          "internalType": "bool",
          "name": "",
          "type": "bool"
        }
      ],
      "stateMutability": "nonpayable",
      "type": "function"
    },
    {
      "inputs": [
        {
          "internalType": "uint256",
          "name": "amount",
          "type": "uint256"
        }
      ],
      "name": "deposit",
      "outputs": [],
      "stateMutability": "nonpayable",
      "type": "function"
    },
    {
      "inputs": [
        {
          "internalType": "address",
          "name": "collection",
          "type": "address"
        }
      ],
      "name": "getCollateralizationBoost",
      "outputs": [
        {
          "internalType": "uint256",
          "name": "",
          "type": "uint256"
        }
      ],
      "stateMutability": "view",
      "type": "function"
    },
    {
      "inputs": [],
      "name": "getLockedBalance",
      "outputs": [
        {
          "internalType": "uint256",
          "name": "",
          "type": "uint256"
        }
      ],
      "stateMutability": "view",
      "type": "function"
    },
    {
      "inputs": [
        {
          "internalType": "address",
          "name": "user",
          "type": "address"
        }
      ],
      "name": "getMaximumWithdrawalAmount",
      "outputs": [
        {
          "internalType": "uint256",
          "name": "",
          "type": "uint256"
        }
      ],
      "stateMutability": "view",
      "type": "function"
    },
    {
      "inputs": [
        {
          "internalType": "address",
          "name": "user",
          "type": "address"
        },
        {
          "internalType": "address",
          "name": "collection",
          "type": "address"
        }
      ],
      "name": "getRemoveVoteRequest",
      "outputs": [
        {
          "components": [
            {
              "internalType": "address",
              "name": "user",
              "type": "address"
            },
            {
              "internalType": "uint256",
              "name": "amount",
              "type": "uint256"
            },
            {
              "internalType": "uint256",
              "name": "timestamp",
              "type": "uint256"
            }
          ],
          "internalType": "struct DataTypes.RemoveVoteRequest",
          "name": "",
          "type": "tuple"
        }
      ],
      "stateMutability": "view",
      "type": "function"
    },
    {
      "inputs": [
        {
          "internalType": "address",
          "name": "user",
          "type": "address"
        },
        {
          "internalType": "address",
          "name": "collection",
          "type": "address"
        }
      ],
      "name": "getUserCollectionVotes",
      "outputs": [
        {
          "internalType": "uint256",
          "name": "",
          "type": "uint256"
        }
      ],
      "stateMutability": "view",
      "type": "function"
    },
    {
      "inputs": [
        {
          "internalType": "address",
          "name": "user",
          "type": "address"
        }
      ],
      "name": "getUserFreeVotes",
      "outputs": [
        {
          "internalType": "uint256",
          "name": "",
          "type": "uint256"
        }
      ],
      "stateMutability": "view",
      "type": "function"
    },
    {
      "inputs": [
        {
          "internalType": "address",
          "name": "spender",
          "type": "address"
        },
        {
          "internalType": "uint256",
          "name": "addedValue",
          "type": "uint256"
        }
      ],
      "name": "increaseAllowance",
      "outputs": [
        {
          "internalType": "bool",
          "name": "",
          "type": "bool"
        }
      ],
      "stateMutability": "nonpayable",
      "type": "function"
    },
    {
      "inputs": [
        {
          "internalType": "contract IMarketAddressesProvider",
          "name": "addressProvider",
          "type": "address"
        },
        {
          "internalType": "address",
          "name": "nativeToken",
          "type": "address"
        },
        {
          "internalType": "string",
          "name": "name",
          "type": "string"
        },
        {
          "internalType": "string",
          "name": "symbol",
          "type": "string"
        }
      ],
      "name": "initialize",
      "outputs": [],
      "stateMutability": "nonpayable",
      "type": "function"
    },
    {
      "inputs": [],
      "name": "name",
      "outputs": [
        {
          "internalType": "string",
          "name": "",
          "type": "string"
        }
      ],
      "stateMutability": "view",
      "type": "function"
    },
    {
      "inputs": [],
      "name": "owner",
      "outputs": [
        {
          "internalType": "address",
          "name": "",
          "type": "address"
        }
      ],
      "stateMutability": "view",
      "type": "function"
    },
    {
      "inputs": [
        {
          "internalType": "uint256",
          "name": "amount",
          "type": "uint256"
        },
        {
          "internalType": "address",
          "name": "collection",
          "type": "address"
        }
      ],
      "name": "removeVote",
      "outputs": [],
      "stateMutability": "nonpayable",
      "type": "function"
    },
    {
      "inputs": [],
      "name": "renounceOwnership",
      "outputs": [],
      "stateMutability": "nonpayable",
      "type": "function"
    },
    {
      "inputs": [],
      "name": "symbol",
      "outputs": [
        {
          "internalType": "string",
          "name": "",
          "type": "string"
        }
      ],
      "stateMutability": "view",
      "type": "function"
    },
    {
      "inputs": [],
      "name": "totalSupply",
      "outputs": [
        {
          "internalType": "uint256",
          "name": "",
          "type": "uint256"
        }
      ],
      "stateMutability": "view",
      "type": "function"
    },
    {
      "inputs": [
        {
          "internalType": "address",
          "name": "",
          "type": "address"
        },
        {
          "internalType": "uint256",
          "name": "",
          "type": "uint256"
        }
      ],
      "name": "transfer",
      "outputs": [
        {
          "internalType": "bool",
          "name": "",
          "type": "bool"
        }
      ],
      "stateMutability": "pure",
      "type": "function"
    },
    {
      "inputs": [
        {
          "internalType": "address",
          "name": "",
          "type": "address"
        },
        {
          "internalType": "address",
          "name": "",
          "type": "address"
        },
        {
          "internalType": "uint256",
          "name": "",
          "type": "uint256"
        }
      ],
      "name": "transferFrom",
      "outputs": [
        {
          "internalType": "bool",
          "name": "",
          "type": "bool"
        }
      ],
      "stateMutability": "pure",
      "type": "function"
    },
    {
      "inputs": [
        {
          "internalType": "address",
          "name": "newOwner",
          "type": "address"
        }
      ],
      "name": "transferOwnership",
      "outputs": [],
      "stateMutability": "nonpayable",
      "type": "function"
    },
    {
      "inputs": [
        {
          "internalType": "uint256",
          "name": "amount",
          "type": "uint256"
        },
        {
          "internalType": "address",
          "name": "collection",
          "type": "address"
        }
      ],
      "name": "vote",
      "outputs": [],
      "stateMutability": "nonpayable",
      "type": "function"
    },
    {
      "inputs": [
        {
          "internalType": "uint256",
          "name": "amount",
          "type": "uint256"
        }
      ],
      "name": "withdraw",
      "outputs": [],
      "stateMutability": "nonpayable",
      "type": "function"
    }
  ],
  "bytecode": "0x608060405234801561001057600080fd5b50613a43806100206000396000f3fe608060405234801561001057600080fd5b506004361061018e5760003560e01c80637cbcd571116100de578063b5a990de11610097578063baf03a2b11610071578063baf03a2b146104bd578063c9e62319146104ed578063dd62ed3e14610509578063f2fde38b146105395761018e565b8063b5a990de14610441578063b6b55f2514610471578063ba9b5e501461048d5761018e565b80637cbcd571146103595780638da5cb5b1461037557806395d89b41146103935780639b0d1b96146103b1578063a457c2d7146103e1578063a9059cbb146104115761018e565b80632549e0b11161014b578063395093511161012557806339509351146102bf5780633e680e7a146102ef57806370a082311461031f578063715018a61461034f5761018e565b80632549e0b1146102675780632e1a7d4d14610285578063313ce567146102a15761018e565b806302d947ef1461019357806306fdde03146101af578063095ea7b3146101cd57806318160ddd146101fd5780632016a0d21461021b57806323b872dd14610237575b600080fd5b6101ad60048036038101906101a891906126b7565b610555565b005b6101b7610725565b6040516101c49190612790565b60405180910390f35b6101e760048036038101906101e291906127b2565b6107b7565b6040516101f4919061280d565b60405180910390f35b6102056107da565b6040516102129190612837565b60405180910390f35b610235600480360381019061023091906128f5565b6107e4565b005b610251600480360381019061024c919061299c565b610992565b60405161025e919061280d565b60405180910390f35b61026f6109cf565b60405161027c9190612837565b60405180910390f35b61029f600480360381019061029a91906129ef565b6109de565b005b6102a9610b5c565b6040516102b69190612a38565b60405180910390f35b6102d960048036038101906102d491906127b2565b610b65565b6040516102e6919061280d565b60405180910390f35b61030960048036038101906103049190612a53565b610b9c565b6040516103169190612837565b60405180910390f35b61033960048036038101906103349190612a53565b610c25565b6040516103469190612837565b60405180910390f35b610357610c6e565b005b610373600480360381019061036e91906126b7565b610cf6565b005b61037d610ec6565b60405161038a9190612a8f565b60405180910390f35b61039b610ef0565b6040516103a89190612790565b60405180910390f35b6103cb60048036038101906103c69190612a53565b610f82565b6040516103d89190612837565b60405180910390f35b6103fb60048036038101906103f691906127b2565b610fcb565b604051610408919061280d565b60405180910390f35b61042b600480360381019061042691906127b2565b611042565b604051610438919061280d565b60405180910390f35b61045b60048036038101906104569190612aaa565b61107f565b6040516104689190612b4a565b60405180910390f35b61048b600480360381019061048691906129ef565b611180565b005b6104a760048036038101906104a29190612a53565b6112fe565b6040516104b49190612837565b60405180910390f35b6104d760048036038101906104d29190612aaa565b6116f3565b6040516104e49190612837565b60405180910390f35b610507600480360381019061050291906126b7565b61177a565b005b610523600480360381019061051e9190612aaa565b61180e565b6040516105309190612837565b60405180910390f35b610553600480360381019061054e9190612a53565b611895565b005b73__$5201a97c05ba6aa659e2f36a933dd51801$__63acd95392609760009054906101000a900473ffffffffffffffffffffffffffffffffffffffff1684846040518463ffffffff1660e01b81526004016105b293929190612be2565b60006040518083038186803b1580156105ca57600080fd5b505af41580156105de573d6000803e3d6000fd5b5050505081609960003373ffffffffffffffffffffffffffffffffffffffff1673ffffffffffffffffffffffffffffffffffffffff16815260200190815260200160002060008373ffffffffffffffffffffffffffffffffffffffff1673ffffffffffffffffffffffffffffffffffffffff168152602001908152602001600020600082825461066e9190612c48565b9250508190555081609b60008373ffffffffffffffffffffffffffffffffffffffff1673ffffffffffffffffffffffffffffffffffffffff16815260200190815260200160002060008282546106c49190612c48565b9250508190555081609a60003373ffffffffffffffffffffffffffffffffffffffff1673ffffffffffffffffffffffffffffffffffffffff168152602001908152602001600020600082825461071a9190612c9e565b925050819055505050565b60606036805461073490612d01565b80601f016020809104026020016040519081016040528092919081815260200182805461076090612d01565b80156107ad5780601f10610782576101008083540402835291602001916107ad565b820191906000526020600020905b81548152906001019060200180831161079057829003601f168201915b5050505050905090565b6000806107c261198c565b90506107cf818585611994565b600191505092915050565b6000603554905090565b60006107f06001611b5d565b90508015610814576001600060016101000a81548160ff0219169083151502179055505b61081c611c4d565b6108ae85858080601f016020809104026020016040519081016040528093929190818152602001838380828437600081840152601f19601f8201169050808301925050505050505084848080601f016020809104026020016040519081016040528093929190818152602001838380828437600081840152601f19601f82011690508083019250505050505050611ca6565b86609760006101000a81548173ffffffffffffffffffffffffffffffffffffffff021916908373ffffffffffffffffffffffffffffffffffffffff16021790555085609860006101000a81548173ffffffffffffffffffffffffffffffffffffffff021916908373ffffffffffffffffffffffffffffffffffffffff16021790555080156109895760008060016101000a81548160ff0219169083151502179055507f7f26b83ff96e1f2b6a682f133852f6798a09c465da95921460cefb384740249860016040516109809190612d6d565b60405180910390a15b50505050505050565b60006040517f08c379a00000000000000000000000000000000000000000000000000000000081526004016109c690612dd4565b60405180910390fd5b60006109d9611d03565b905090565b73__$5201a97c05ba6aa659e2f36a933dd51801$__6381778770609760009054906101000a900473ffffffffffffffffffffffffffffffffffffffff16836040518363ffffffff1660e01b8152600401610a39929190612df4565b60006040518083038186803b158015610a5157600080fd5b505af4158015610a65573d6000803e3d6000fd5b50505050600080610a746107da565b03610a8157819050610aa9565b610a89611d03565b610a916107da565b83610a9c9190612e1d565b610aa69190612ea6565b90505b610ab33383611da6565b80609a60003373ffffffffffffffffffffffffffffffffffffffff1673ffffffffffffffffffffffffffffffffffffffff1681526020019081526020016000206000828254610b029190612c9e565b92505081905550610b58303384609860009054906101000a900473ffffffffffffffffffffffffffffffffffffffff1673ffffffffffffffffffffffffffffffffffffffff16611f7e909392919063ffffffff16565b5050565b60006012905090565b600080610b7061198c565b9050610b91818585610b82858961180e565b610b8c9190612c48565b611994565b600191505092915050565b600080609a60008473ffffffffffffffffffffffffffffffffffffffff1673ffffffffffffffffffffffffffffffffffffffff1681526020019081526020016000205490506000808203610bf35760009050610c1b565b610bfb6107da565b610c03611d03565b83610c0e9190612e1d565b610c189190612ea6565b90505b8092505050919050565b6000603360008373ffffffffffffffffffffffffffffffffffffffff1673ffffffffffffffffffffffffffffffffffffffff168152602001908152602001600020549050919050565b610c7661198c565b73ffffffffffffffffffffffffffffffffffffffff16610c94610ec6565b73ffffffffffffffffffffffffffffffffffffffff1614610cea576040517f08c379a0000000000000000000000000000000000000000000000000000000008152600401610ce190612f23565b60405180910390fd5b610cf46000612007565b565b73__$5201a97c05ba6aa659e2f36a933dd51801$__631fc9e757609760009054906101000a900473ffffffffffffffffffffffffffffffffffffffff1684846040518463ffffffff1660e01b8152600401610d5393929190612be2565b60006040518083038186803b158015610d6b57600080fd5b505af4158015610d7f573d6000803e3d6000fd5b5050505081609960003373ffffffffffffffffffffffffffffffffffffffff1673ffffffffffffffffffffffffffffffffffffffff16815260200190815260200160002060008373ffffffffffffffffffffffffffffffffffffffff1673ffffffffffffffffffffffffffffffffffffffff1681526020019081526020016000206000828254610e0f9190612c9e565b9250508190555081609b60008373ffffffffffffffffffffffffffffffffffffffff1673ffffffffffffffffffffffffffffffffffffffff1681526020019081526020016000206000828254610e659190612c9e565b9250508190555081609a60003373ffffffffffffffffffffffffffffffffffffffff1673ffffffffffffffffffffffffffffffffffffffff1681526020019081526020016000206000828254610ebb9190612c48565b925050819055505050565b6000606560009054906101000a900473ffffffffffffffffffffffffffffffffffffffff16905090565b606060378054610eff90612d01565b80601f0160208091040260200160405190810160405280929190818152602001828054610f2b90612d01565b8015610f785780601f10610f4d57610100808354040283529160200191610f78565b820191906000526020600020905b815481529060010190602001808311610f5b57829003601f168201915b5050505050905090565b6000609a60008373ffffffffffffffffffffffffffffffffffffffff1673ffffffffffffffffffffffffffffffffffffffff168152602001908152602001600020549050919050565b600080610fd661198c565b90506000610fe4828661180e565b905083811015611029576040517f08c379a000000000000000000000000000000000000000000000000000000000815260040161102090612fb5565b60405180910390fd5b6110368286868403611994565b60019250505092915050565b60006040517f08c379a000000000000000000000000000000000000000000000000000000000815260040161107690612dd4565b60405180910390fd5b6110876125e2565b609c60008473ffffffffffffffffffffffffffffffffffffffff1673ffffffffffffffffffffffffffffffffffffffff16815260200190815260200160002060008373ffffffffffffffffffffffffffffffffffffffff1673ffffffffffffffffffffffffffffffffffffffff1681526020019081526020016000206040518060600160405290816000820160009054906101000a900473ffffffffffffffffffffffffffffffffffffffff1673ffffffffffffffffffffffffffffffffffffffff1673ffffffffffffffffffffffffffffffffffffffff16815260200160018201548152602001600282015481525050905092915050565b73__$5201a97c05ba6aa659e2f36a933dd51801$__63d8b7f942609860009054906101000a900473ffffffffffffffffffffffffffffffffffffffff16836040518363ffffffff1660e01b81526004016111db929190612fd5565b60006040518083038186803b1580156111f357600080fd5b505af4158015611207573d6000803e3d6000fd5b505050506000806112166107da565b036112235781905061124b565b61122b611d03565b6112336107da565b8361123e9190612e1d565b6112489190612ea6565b90505b61129a333084609860009054906101000a900473ffffffffffffffffffffffffffffffffffffffff1673ffffffffffffffffffffffffffffffffffffffff16611f7e909392919063ffffffff16565b6112a433826120cd565b80609a60003373ffffffffffffffffffffffffffffffffffffffff1673ffffffffffffffffffffffffffffffffffffffff16815260200190815260200160002060008282546112f39190612c48565b925050819055505050565b6000806000609760009054906101000a900473ffffffffffffffffffffffffffffffffffffffff1673ffffffffffffffffffffffffffffffffffffffff1663536223646040518163ffffffff1660e01b8152600401602060405180830381865afa158015611370573d6000803e3d6000fd5b505050506040513d601f19601f820116820180604052508101906113949190613013565b73ffffffffffffffffffffffffffffffffffffffff166330bf5bee856040518263ffffffff1660e01b81526004016113cc9190612a8f565b602060405180830381865afa1580156113e9573d6000803e3d6000fd5b505050506040513d601f19601f8201168201806040525081019061140d9190613055565b90506000609760009054906101000a900473ffffffffffffffffffffffffffffffffffffffff1673ffffffffffffffffffffffffffffffffffffffff166391aefd4c6040518163ffffffff1660e01b8152600401602060405180830381865afa15801561147e573d6000803e3d6000fd5b505050506040513d601f19601f820116820180604052508101906114a29190613013565b73ffffffffffffffffffffffffffffffffffffffff166385048179866040518263ffffffff1660e01b81526004016114da9190612a8f565b602060405180830381865afa1580156114f7573d6000803e3d6000fd5b505050506040513d601f19601f8201168201806040525081019061151b9190613055565b90506000609760009054906101000a900473ffffffffffffffffffffffffffffffffffffffff1673ffffffffffffffffffffffffffffffffffffffff1663cfeed1816040518163ffffffff1660e01b8152600401602060405180830381865afa15801561158c573d6000803e3d6000fd5b505050506040513d601f19601f820116820180604052508101906115b09190613013565b73ffffffffffffffffffffffffffffffffffffffff1663d02641a0609860009054906101000a900473ffffffffffffffffffffffffffffffffffffffff166040518263ffffffff1660e01b815260040161160a9190612a8f565b602060405180830381865afa158015611627573d6000803e3d6000fd5b505050506040513d601f19601f8201168201806040525081019061164b9190613055565b9050600081609b60008973ffffffffffffffffffffffffffffffffffffffff1673ffffffffffffffffffffffffffffffffffffffff1681526020019081526020016000205461169a9190612e1d565b9050600083856116aa9190612e1d565b9050600081146116e0576032816116c19190612e1d565b826127106116cf9190612e1d565b6116d99190612ea6565b95506116e5565b600095505b859650505050505050919050565b6000609960008473ffffffffffffffffffffffffffffffffffffffff1673ffffffffffffffffffffffffffffffffffffffff16815260200190815260200160002060008373ffffffffffffffffffffffffffffffffffffffff1673ffffffffffffffffffffffffffffffffffffffff16815260200190815260200160002054905092915050565b61180a3383609c60003373ffffffffffffffffffffffffffffffffffffffff1673ffffffffffffffffffffffffffffffffffffffff16815260200190815260200160002060008573ffffffffffffffffffffffffffffffffffffffff1673ffffffffffffffffffffffffffffffffffffffff16815260200190815260200160002061222d9092919063ffffffff16565b5050565b6000603460008473ffffffffffffffffffffffffffffffffffffffff1673ffffffffffffffffffffffffffffffffffffffff16815260200190815260200160002060008373ffffffffffffffffffffffffffffffffffffffff1673ffffffffffffffffffffffffffffffffffffffff16815260200190815260200160002054905092915050565b61189d61198c565b73ffffffffffffffffffffffffffffffffffffffff166118bb610ec6565b73ffffffffffffffffffffffffffffffffffffffff1614611911576040517f08c379a000000000000000000000000000000000000000000000000000000000815260040161190890612f23565b60405180910390fd5b600073ffffffffffffffffffffffffffffffffffffffff168173ffffffffffffffffffffffffffffffffffffffff1603611980576040517f08c379a0000000000000000000000000000000000000000000000000000000008152600401611977906130f4565b60405180910390fd5b61198981612007565b50565b600033905090565b600073ffffffffffffffffffffffffffffffffffffffff168373ffffffffffffffffffffffffffffffffffffffff1603611a03576040517f08c379a00000000000000000000000000000000000000000000000000000000081526004016119fa90613186565b60405180910390fd5b600073ffffffffffffffffffffffffffffffffffffffff168273ffffffffffffffffffffffffffffffffffffffff1603611a72576040517f08c379a0000000000000000000000000000000000000000000000000000000008152600401611a6990613218565b60405180910390fd5b80603460008573ffffffffffffffffffffffffffffffffffffffff1673ffffffffffffffffffffffffffffffffffffffff16815260200190815260200160002060008473ffffffffffffffffffffffffffffffffffffffff1673ffffffffffffffffffffffffffffffffffffffff168152602001908152602001600020819055508173ffffffffffffffffffffffffffffffffffffffff168373ffffffffffffffffffffffffffffffffffffffff167f8c5be1e5ebec7d5bd14f71427d1e84f3dd0314c0f7b2291e5b200ac8c7c3b92583604051611b509190612837565b60405180910390a3505050565b60008060019054906101000a900460ff1615611bd45760018260ff16148015611b8c5750611b8a30612287565b155b611bcb576040517f08c379a0000000000000000000000000000000000000000000000000000000008152600401611bc2906132aa565b60405180910390fd5b60009050611c48565b8160ff1660008054906101000a900460ff1660ff1610611c29576040517f08c379a0000000000000000000000000000000000000000000000000000000008152600401611c20906132aa565b60405180910390fd5b816000806101000a81548160ff021916908360ff160217905550600190505b919050565b600060019054906101000a900460ff16611c9c576040517f08c379a0000000000000000000000000000000000000000000000000000000008152600401611c939061333c565b60405180910390fd5b611ca46122aa565b565b600060019054906101000a900460ff16611cf5576040517f08c379a0000000000000000000000000000000000000000000000000000000008152600401611cec9061333c565b60405180910390fd5b611cff828261230b565b5050565b6000609860009054906101000a900473ffffffffffffffffffffffffffffffffffffffff1673ffffffffffffffffffffffffffffffffffffffff166370a08231306040518263ffffffff1660e01b8152600401611d609190612a8f565b602060405180830381865afa158015611d7d573d6000803e3d6000fd5b505050506040513d601f19601f82011682018060405250810190611da19190613055565b905090565b600073ffffffffffffffffffffffffffffffffffffffff168273ffffffffffffffffffffffffffffffffffffffff1603611e15576040517f08c379a0000000000000000000000000000000000000000000000000000000008152600401611e0c906133ce565b60405180910390fd5b611e218260008361237e565b6000603360008473ffffffffffffffffffffffffffffffffffffffff1673ffffffffffffffffffffffffffffffffffffffff16815260200190815260200160002054905081811015611ea8576040517f08c379a0000000000000000000000000000000000000000000000000000000008152600401611e9f90613460565b60405180910390fd5b818103603360008573ffffffffffffffffffffffffffffffffffffffff1673ffffffffffffffffffffffffffffffffffffffff168152602001908152602001600020819055508160356000828254611f009190612c9e565b92505081905550600073ffffffffffffffffffffffffffffffffffffffff168373ffffffffffffffffffffffffffffffffffffffff167fddf252ad1be2c89b69c2b068fc378daa952ba7f163c4a11628f55a4df523b3ef84604051611f659190612837565b60405180910390a3611f7983600084612383565b505050565b612001846323b872dd60e01b858585604051602401611f9f93929190613480565b604051602081830303815290604052907bffffffffffffffffffffffffffffffffffffffffffffffffffffffff19166020820180517bffffffffffffffffffffffffffffffffffffffffffffffffffffffff8381831617835250505050612388565b50505050565b6000606560009054906101000a900473ffffffffffffffffffffffffffffffffffffffff16905081606560006101000a81548173ffffffffffffffffffffffffffffffffffffffff021916908373ffffffffffffffffffffffffffffffffffffffff1602179055508173ffffffffffffffffffffffffffffffffffffffff168173ffffffffffffffffffffffffffffffffffffffff167f8be0079c531659141344cd1fd0a4f28419497f9722a3daafe3b4186f6b6457e060405160405180910390a35050565b600073ffffffffffffffffffffffffffffffffffffffff168273ffffffffffffffffffffffffffffffffffffffff160361213c576040517f08c379a000000000000000000000000000000000000000000000000000000000815260040161213390613503565b60405180910390fd5b6121486000838361237e565b806035600082825461215a9190612c48565b9250508190555080603360008473ffffffffffffffffffffffffffffffffffffffff1673ffffffffffffffffffffffffffffffffffffffff16815260200190815260200160002060008282546121b09190612c48565b925050819055508173ffffffffffffffffffffffffffffffffffffffff16600073ffffffffffffffffffffffffffffffffffffffff167fddf252ad1be2c89b69c2b068fc378daa952ba7f163c4a11628f55a4df523b3ef836040516122159190612837565b60405180910390a361222960008383612383565b5050565b818360000160006101000a81548173ffffffffffffffffffffffffffffffffffffffff021916908373ffffffffffffffffffffffffffffffffffffffff160217905550808360010181905550428360020181905550505050565b6000808273ffffffffffffffffffffffffffffffffffffffff163b119050919050565b600060019054906101000a900460ff166122f9576040517f08c379a00000000000000000000000000000000000000000000000000000000081526004016122f09061333c565b60405180910390fd5b61230961230461198c565b612007565b565b600060019054906101000a900460ff1661235a576040517f08c379a00000000000000000000000000000000000000000000000000000000081526004016123519061333c565b60405180910390fd5b816036908161236991906136f4565b50806037908161237991906136f4565b505050565b505050565b505050565b60006123ea826040518060400160405280602081526020017f5361666545524332303a206c6f772d6c6576656c2063616c6c206661696c65648152508573ffffffffffffffffffffffffffffffffffffffff1661244f9092919063ffffffff16565b905060008151111561244a578080602001905181019061240a91906137f2565b612449576040517f08c379a000000000000000000000000000000000000000000000000000000000815260040161244090613891565b60405180910390fd5b5b505050565b606061245e8484600085612467565b90509392505050565b6060824710156124ac576040517f08c379a00000000000000000000000000000000000000000000000000000000081526004016124a390613923565b60405180910390fd5b6124b585612287565b6124f4576040517f08c379a00000000000000000000000000000000000000000000000000000000081526004016124eb9061398f565b60405180910390fd5b6000808673ffffffffffffffffffffffffffffffffffffffff16858760405161251d91906139f6565b60006040518083038185875af1925050503d806000811461255a576040519150601f19603f3d011682016040523d82523d6000602084013e61255f565b606091505b509150915061256f82828661257b565b92505050949350505050565b6060831561258b578290506125db565b60008351111561259e5782518084602001fd5b816040517f08c379a00000000000000000000000000000000000000000000000000000000081526004016125d29190612790565b60405180910390fd5b9392505050565b6040518060600160405280600073ffffffffffffffffffffffffffffffffffffffff16815260200160008152602001600081525090565b600080fd5b600080fd5b6000819050919050565b61263681612623565b811461264157600080fd5b50565b6000813590506126538161262d565b92915050565b600073ffffffffffffffffffffffffffffffffffffffff82169050919050565b600061268482612659565b9050919050565b61269481612679565b811461269f57600080fd5b50565b6000813590506126b18161268b565b92915050565b600080604083850312156126ce576126cd612619565b5b60006126dc85828601612644565b92505060206126ed858286016126a2565b9150509250929050565b600081519050919050565b600082825260208201905092915050565b60005b83811015612731578082015181840152602081019050612716565b83811115612740576000848401525b50505050565b6000601f19601f8301169050919050565b6000612762826126f7565b61276c8185612702565b935061277c818560208601612713565b61278581612746565b840191505092915050565b600060208201905081810360008301526127aa8184612757565b905092915050565b600080604083850312156127c9576127c8612619565b5b60006127d7858286016126a2565b92505060206127e885828601612644565b9150509250929050565b60008115159050919050565b612807816127f2565b82525050565b600060208201905061282260008301846127fe565b92915050565b61283181612623565b82525050565b600060208201905061284c6000830184612828565b92915050565b600061285d82612679565b9050919050565b61286d81612852565b811461287857600080fd5b50565b60008135905061288a81612864565b92915050565b600080fd5b600080fd5b600080fd5b60008083601f8401126128b5576128b4612890565b5b8235905067ffffffffffffffff8111156128d2576128d1612895565b5b6020830191508360018202830111156128ee576128ed61289a565b5b9250929050565b6000806000806000806080878903121561291257612911612619565b5b600061292089828a0161287b565b965050602061293189828a016126a2565b955050604087013567ffffffffffffffff8111156129525761295161261e565b5b61295e89828a0161289f565b9450945050606087013567ffffffffffffffff8111156129815761298061261e565b5b61298d89828a0161289f565b92509250509295509295509295565b6000806000606084860312156129b5576129b4612619565b5b60006129c3868287016126a2565b93505060206129d4868287016126a2565b92505060406129e586828701612644565b9150509250925092565b600060208284031215612a0557612a04612619565b5b6000612a1384828501612644565b91505092915050565b600060ff82169050919050565b612a3281612a1c565b82525050565b6000602082019050612a4d6000830184612a29565b92915050565b600060208284031215612a6957612a68612619565b5b6000612a77848285016126a2565b91505092915050565b612a8981612679565b82525050565b6000602082019050612aa46000830184612a80565b92915050565b60008060408385031215612ac157612ac0612619565b5b6000612acf858286016126a2565b9250506020612ae0858286016126a2565b9150509250929050565b612af381612679565b82525050565b612b0281612623565b82525050565b606082016000820151612b1e6000850182612aea565b506020820151612b316020850182612af9565b506040820151612b446040850182612af9565b50505050565b6000606082019050612b5f6000830184612b08565b92915050565b6000819050919050565b6000612b8a612b85612b8084612659565b612b65565b612659565b9050919050565b6000612b9c82612b6f565b9050919050565b6000612bae82612b91565b9050919050565b612bbe81612ba3565b82525050565b612bcd81612623565b82525050565b612bdc81612679565b82525050565b6000606082019050612bf76000830186612bb5565b612c046020830185612bc4565b612c116040830184612bd3565b949350505050565b7f4e487b7100000000000000000000000000000000000000000000000000000000600052601160045260246000fd5b6000612c5382612623565b9150612c5e83612623565b9250827fffffffffffffffffffffffffffffffffffffffffffffffffffffffffffffffff03821115612c9357612c92612c19565b5b828201905092915050565b6000612ca982612623565b9150612cb483612623565b925082821015612cc757612cc6612c19565b5b828203905092915050565b7f4e487b7100000000000000000000000000000000000000000000000000000000600052602260045260246000fd5b60006002820490506001821680612d1957607f821691505b602082108103612d2c57612d2b612cd2565b5b50919050565b6000819050919050565b6000612d57612d52612d4d84612d32565b612b65565b612a1c565b9050919050565b612d6781612d3c565b82525050565b6000602082019050612d826000830184612d5e565b92915050565b7f5472616e736665722064697361626c6564000000000000000000000000000000600082015250565b6000612dbe601183612702565b9150612dc982612d88565b602082019050919050565b60006020820190508181036000830152612ded81612db1565b9050919050565b6000604082019050612e096000830185612bb5565b612e166020830184612bc4565b9392505050565b6000612e2882612623565b9150612e3383612623565b9250817fffffffffffffffffffffffffffffffffffffffffffffffffffffffffffffffff0483118215151615612e6c57612e6b612c19565b5b828202905092915050565b7f4e487b7100000000000000000000000000000000000000000000000000000000600052601260045260246000fd5b6000612eb182612623565b9150612ebc83612623565b925082612ecc57612ecb612e77565b5b828204905092915050565b7f4f776e61626c653a2063616c6c6572206973206e6f7420746865206f776e6572600082015250565b6000612f0d602083612702565b9150612f1882612ed7565b602082019050919050565b60006020820190508181036000830152612f3c81612f00565b9050919050565b7f45524332303a2064656372656173656420616c6c6f77616e63652062656c6f7760008201527f207a65726f000000000000000000000000000000000000000000000000000000602082015250565b6000612f9f602583612702565b9150612faa82612f43565b604082019050919050565b60006020820190508181036000830152612fce81612f92565b9050919050565b6000604082019050612fea6000830185612bd3565b612ff76020830184612bc4565b9392505050565b60008151905061300d8161268b565b92915050565b60006020828403121561302957613028612619565b5b600061303784828501612ffe565b91505092915050565b60008151905061304f8161262d565b92915050565b60006020828403121561306b5761306a612619565b5b600061307984828501613040565b91505092915050565b7f4f776e61626c653a206e6577206f776e657220697320746865207a65726f206160008201527f6464726573730000000000000000000000000000000000000000000000000000602082015250565b60006130de602683612702565b91506130e982613082565b604082019050919050565b6000602082019050818103600083015261310d816130d1565b9050919050565b7f45524332303a20617070726f76652066726f6d20746865207a65726f2061646460008201527f7265737300000000000000000000000000000000000000000000000000000000602082015250565b6000613170602483612702565b915061317b82613114565b604082019050919050565b6000602082019050818103600083015261319f81613163565b9050919050565b7f45524332303a20617070726f766520746f20746865207a65726f20616464726560008201527f7373000000000000000000000000000000000000000000000000000000000000602082015250565b6000613202602283612702565b915061320d826131a6565b604082019050919050565b60006020820190508181036000830152613231816131f5565b9050919050565b7f496e697469616c697a61626c653a20636f6e747261637420697320616c72656160008201527f647920696e697469616c697a6564000000000000000000000000000000000000602082015250565b6000613294602e83612702565b915061329f82613238565b604082019050919050565b600060208201905081810360008301526132c381613287565b9050919050565b7f496e697469616c697a61626c653a20636f6e7472616374206973206e6f74206960008201527f6e697469616c697a696e67000000000000000000000000000000000000000000602082015250565b6000613326602b83612702565b9150613331826132ca565b604082019050919050565b6000602082019050818103600083015261335581613319565b9050919050565b7f45524332303a206275726e2066726f6d20746865207a65726f2061646472657360008201527f7300000000000000000000000000000000000000000000000000000000000000602082015250565b60006133b8602183612702565b91506133c38261335c565b604082019050919050565b600060208201905081810360008301526133e7816133ab565b9050919050565b7f45524332303a206275726e20616d6f756e7420657863656564732062616c616e60008201527f6365000000000000000000000000000000000000000000000000000000000000602082015250565b600061344a602283612702565b9150613455826133ee565b604082019050919050565b600060208201905081810360008301526134798161343d565b9050919050565b60006060820190506134956000830186612a80565b6134a26020830185612a80565b6134af6040830184612828565b949350505050565b7f45524332303a206d696e7420746f20746865207a65726f206164647265737300600082015250565b60006134ed601f83612702565b91506134f8826134b7565b602082019050919050565b6000602082019050818103600083015261351c816134e0565b9050919050565b7f4e487b7100000000000000000000000000000000000000000000000000000000600052604160045260246000fd5b60008190508160005260206000209050919050565b60006020601f8301049050919050565b600082821b905092915050565b6000600883026135b47fffffffffffffffffffffffffffffffffffffffffffffffffffffffffffffffff82613577565b6135be8683613577565b95508019841693508086168417925050509392505050565b60006135f16135ec6135e784612623565b612b65565b612623565b9050919050565b6000819050919050565b61360b836135d6565b61361f613617826135f8565b848454613584565b825550505050565b600090565b613634613627565b61363f818484613602565b505050565b5b818110156136635761365860008261362c565b600181019050613645565b5050565b601f8211156136a85761367981613552565b61368284613567565b81016020851015613691578190505b6136a561369d85613567565b830182613644565b50505b505050565b600082821c905092915050565b60006136cb600019846008026136ad565b1980831691505092915050565b60006136e483836136ba565b9150826002028217905092915050565b6136fd826126f7565b67ffffffffffffffff81111561371657613715613523565b5b6137208254612d01565b61372b828285613667565b600060209050601f83116001811461375e576000841561374c578287015190505b61375685826136d8565b8655506137be565b601f19841661376c86613552565b60005b828110156137945784890151825560018201915060208501945060208101905061376f565b868310156137b157848901516137ad601f8916826136ba565b8355505b6001600288020188555050505b505050505050565b6137cf816127f2565b81146137da57600080fd5b50565b6000815190506137ec816137c6565b92915050565b60006020828403121561380857613807612619565b5b6000613816848285016137dd565b91505092915050565b7f5361666545524332303a204552433230206f7065726174696f6e20646964206e60008201527f6f74207375636365656400000000000000000000000000000000000000000000602082015250565b600061387b602a83612702565b91506138868261381f565b604082019050919050565b600060208201905081810360008301526138aa8161386e565b9050919050565b7f416464726573733a20696e73756666696369656e742062616c616e636520666f60008201527f722063616c6c0000000000000000000000000000000000000000000000000000602082015250565b600061390d602683612702565b9150613918826138b1565b604082019050919050565b6000602082019050818103600083015261393c81613900565b9050919050565b7f416464726573733a2063616c6c20746f206e6f6e2d636f6e7472616374000000600082015250565b6000613979601d83612702565b915061398482613943565b602082019050919050565b600060208201905081810360008301526139a88161396c565b9050919050565b600081519050919050565b600081905092915050565b60006139d0826139af565b6139da81856139ba565b93506139ea818560208601612713565b80840191505092915050565b6000613a0282846139c5565b91508190509291505056fea2646970667358221220d64b94ea30952488b3152efbd57a7680c9cac7bbaf18e7063d0837deb2c00f3664736f6c634300080f0033",
  "linkReferences": {
    "contracts/libraries/logic/ValidationLogic.sol": {
      "ValidationLogic": [
        {
          "length": 20,
          "start": 1399
        },
        {
          "length": 20,
          "start": 2560
        },
        {
          "length": 20,
          "start": 3352
        },
        {
          "length": 20,
          "start": 4514
        }
      ]
    }
  },
  "deployedLinkReferences": {
    "contracts/libraries/logic/ValidationLogic.sol": {
      "ValidationLogic": [
        {
          "length": 20,
          "start": 1367
        },
        {
          "length": 20,
          "start": 2528
        },
        {
          "length": 20,
          "start": 3320
        },
        {
          "length": 20,
          "start": 4482
        }
      ]
    }
  }
}