{
  "_format": "hh-sol-artifact-1",
  "contractName": "NativeTokenFaucet",
  "sourceName": "contracts/test/NativeTokenFaucet.sol",
  "abi": [
    {
      "inputs": [
        {
          "internalType": "contract IAddressesProvider",
          "name": "addressProvider",
          "type": "address"
        }
      ],
      "stateMutability": "nonpayable",
      "type": "constructor"
    },
    {
      "inputs": [],
      "name": "FAUCET_DRIP",
      "outputs": [
        {
          "internalType": "uint256",
          "name": "",
          "type": "uint256"
        }
      ],
      "stateMutability": "view",
      "type": "function"
    },
    {
      "inputs": [
        {
          "internalType": "address",
          "name": "account",
          "type": "address"
        }
      ],
      "name": "drip",
      "outputs": [],
      "stateMutability": "nonpayable",
      "type": "function"
    }
  ],
  "bytecode": "0x60803461007457601f61038738819003918201601f19168301916001600160401b038311848410176100795780849260209460405283398101031261007457516001600160a01b0381169081900361007457600080546001600160a01b0319169190911790556040516102f790816100908239f35b600080fd5b634e487b7160e01b600052604160045260246000fdfe608060408181526004908136101561001657600080fd5b600092833560e01c9081630a79c1971461024257506367a5cd061461003a57600080fd5b3461023e576020908160031936011261023a576001600160a01b039280358481169190829003610236578486541683516315b9ba5d60e01b9081815286818581865afa90811561020f578893929188918b91610219575b5060248851809b81936370a0823160e01b8352308a840152165afa97881561020f5789986101dc575b506802b5e3af16b18800008098106101995790868993928588518094819382525afa90811561018f579183918896959360449591610162575b508751998a96879563a9059cbb60e01b87528601526024850152165af19081156101595750610120578280f35b81813d8311610152575b6101348183610265565b8101031261014e57518015150361014b5738808280f35b80fd5b5080fd5b503d61012a565b513d85823e3d90fd5b6101829150873d8911610188575b61017a8183610265565b81019061029d565b386100f3565b503d610170565b86513d85823e3d90fd5b855162461bcd60e51b8152808501889052601a60248201527f4661756365743a204e6f7420656e6f7567682062616c616e63650000000000006044820152606490fd5b9097508681813d8311610208575b6101f48183610265565b81010312610204575196386100ba565b8880fd5b503d6101ea565b86513d8b823e3d90fd5b6102309150823d84116101885761017a8183610265565b38610091565b8580fd5b8380fd5b8280fd5b84903461014e578160031936011261014e57806802b5e3af16b188000060209252f35b90601f8019910116810190811067ffffffffffffffff82111761028757604052565b634e487b7160e01b600052604160045260246000fd5b908160209103126102bc57516001600160a01b03811681036102bc5790565b600080fdfea264697066735822122023ff565b7a768b502d0214e78e5eb2d8f67edcef4c0d49a824fce9e2f28628eb64736f6c63430008130033",
  "linkReferences": {},
  "deployedLinkReferences": {}
}