{
  "_format": "hh-sol-artifact-1",
  "contractName": "NativeTokenVault",
  "sourceName": "contracts/protocol/NativeTokenVault.sol",
  "abi": [
    {
      "anonymous": false,
      "inputs": [
        {
          "indexed": true,
          "internalType": "address",
          "name": "owner",
          "type": "address"
        },
        {
          "indexed": true,
          "internalType": "address",
          "name": "spender",
          "type": "address"
        },
        {
          "indexed": false,
          "internalType": "uint256",
          "name": "value",
          "type": "uint256"
        }
      ],
      "name": "Approval",
      "type": "event"
    },
    {
      "anonymous": false,
      "inputs": [
        {
          "indexed": false,
          "internalType": "uint8",
          "name": "version",
          "type": "uint8"
        }
      ],
      "name": "Initialized",
      "type": "event"
    },
    {
      "anonymous": false,
      "inputs": [
        {
          "indexed": true,
          "internalType": "address",
          "name": "previousOwner",
          "type": "address"
        },
        {
          "indexed": true,
          "internalType": "address",
          "name": "newOwner",
          "type": "address"
        }
      ],
      "name": "OwnershipTransferred",
      "type": "event"
    },
    {
      "anonymous": false,
      "inputs": [
        {
          "indexed": true,
          "internalType": "address",
          "name": "from",
          "type": "address"
        },
        {
          "indexed": true,
          "internalType": "address",
          "name": "to",
          "type": "address"
        },
        {
          "indexed": false,
          "internalType": "uint256",
          "name": "value",
          "type": "uint256"
        }
      ],
      "name": "Transfer",
      "type": "event"
    },
    {
      "inputs": [
        {
          "internalType": "address",
          "name": "owner",
          "type": "address"
        },
        {
          "internalType": "address",
          "name": "spender",
          "type": "address"
        }
      ],
      "name": "allowance",
      "outputs": [
        {
          "internalType": "uint256",
          "name": "",
          "type": "uint256"
        }
      ],
      "stateMutability": "view",
      "type": "function"
    },
    {
      "inputs": [
        {
          "internalType": "address",
          "name": "spender",
          "type": "address"
        },
        {
          "internalType": "uint256",
          "name": "amount",
          "type": "uint256"
        }
      ],
      "name": "approve",
      "outputs": [
        {
          "internalType": "bool",
          "name": "",
          "type": "bool"
        }
      ],
      "stateMutability": "nonpayable",
      "type": "function"
    },
    {
      "inputs": [
        {
          "internalType": "address",
          "name": "account",
          "type": "address"
        }
      ],
      "name": "balanceOf",
      "outputs": [
        {
          "internalType": "uint256",
          "name": "",
          "type": "uint256"
        }
      ],
      "stateMutability": "view",
      "type": "function"
    },
    {
      "inputs": [
        {
          "internalType": "uint256",
          "name": "amount",
          "type": "uint256"
        },
        {
          "internalType": "address",
          "name": "collection",
          "type": "address"
        }
      ],
      "name": "createRemoveVoteRequest",
      "outputs": [],
      "stateMutability": "nonpayable",
      "type": "function"
    },
    {
      "inputs": [],
      "name": "decimals",
      "outputs": [
        {
          "internalType": "uint8",
          "name": "",
          "type": "uint8"
        }
      ],
      "stateMutability": "view",
      "type": "function"
    },
    {
      "inputs": [
        {
          "internalType": "address",
          "name": "spender",
          "type": "address"
        },
        {
          "internalType": "uint256",
          "name": "subtractedValue",
          "type": "uint256"
        }
      ],
      "name": "decreaseAllowance",
      "outputs": [
        {
          "internalType": "bool",
          "name": "",
          "type": "bool"
        }
      ],
      "stateMutability": "nonpayable",
      "type": "function"
    },
    {
      "inputs": [
        {
          "internalType": "uint256",
          "name": "amount",
          "type": "uint256"
        }
      ],
      "name": "deposit",
      "outputs": [],
      "stateMutability": "nonpayable",
      "type": "function"
    },
    {
      "inputs": [
        {
          "internalType": "address",
          "name": "user",
          "type": "address"
        },
        {
          "internalType": "address",
          "name": "collection",
          "type": "address"
        }
      ],
      "name": "getCollateralizationBoost",
      "outputs": [
        {
          "internalType": "uint256",
          "name": "",
          "type": "uint256"
        }
      ],
      "stateMutability": "view",
      "type": "function"
    },
    {
      "inputs": [],
      "name": "getLockedBalance",
      "outputs": [
        {
          "internalType": "uint256",
          "name": "",
          "type": "uint256"
        }
      ],
      "stateMutability": "view",
      "type": "function"
    },
    {
      "inputs": [
        {
          "internalType": "address",
          "name": "user",
          "type": "address"
        }
      ],
      "name": "getMaximumWithdrawalAmount",
      "outputs": [
        {
          "internalType": "uint256",
          "name": "",
          "type": "uint256"
        }
      ],
      "stateMutability": "view",
      "type": "function"
    },
    {
      "inputs": [
        {
          "internalType": "address",
          "name": "user",
          "type": "address"
        },
        {
          "internalType": "address",
          "name": "collection",
          "type": "address"
        }
      ],
      "name": "getRemoveVoteRequest",
      "outputs": [
        {
          "components": [
            {
              "internalType": "address",
              "name": "user",
              "type": "address"
            },
            {
              "internalType": "uint256",
              "name": "amount",
              "type": "uint256"
            },
            {
              "internalType": "uint256",
              "name": "timestamp",
              "type": "uint256"
            }
          ],
          "internalType": "struct DataTypes.RemoveVoteRequest",
          "name": "",
          "type": "tuple"
        }
      ],
      "stateMutability": "view",
      "type": "function"
    },
    {
      "inputs": [
        {
          "internalType": "address",
          "name": "user",
          "type": "address"
        },
        {
          "internalType": "address",
          "name": "collection",
          "type": "address"
        }
      ],
      "name": "getUserCollectionVotes",
      "outputs": [
        {
          "internalType": "uint256",
          "name": "",
          "type": "uint256"
        }
      ],
      "stateMutability": "view",
      "type": "function"
    },
    {
      "inputs": [
        {
          "internalType": "address",
          "name": "user",
          "type": "address"
        }
      ],
      "name": "getUserFreeVotes",
      "outputs": [
        {
          "internalType": "uint256",
          "name": "",
          "type": "uint256"
        }
      ],
      "stateMutability": "view",
      "type": "function"
    },
    {
      "inputs": [
        {
          "internalType": "address",
          "name": "spender",
          "type": "address"
        },
        {
          "internalType": "uint256",
          "name": "addedValue",
          "type": "uint256"
        }
      ],
      "name": "increaseAllowance",
      "outputs": [
        {
          "internalType": "bool",
          "name": "",
          "type": "bool"
        }
      ],
      "stateMutability": "nonpayable",
      "type": "function"
    },
    {
      "inputs": [
        {
          "internalType": "contract IMarketAddressesProvider",
          "name": "addressProvider",
          "type": "address"
        },
        {
          "internalType": "address",
          "name": "nativeToken",
          "type": "address"
        },
        {
          "internalType": "string",
          "name": "name",
          "type": "string"
        },
        {
          "internalType": "string",
          "name": "symbol",
          "type": "string"
        }
      ],
      "name": "initialize",
      "outputs": [],
      "stateMutability": "nonpayable",
      "type": "function"
    },
    {
      "inputs": [],
      "name": "name",
      "outputs": [
        {
          "internalType": "string",
          "name": "",
          "type": "string"
        }
      ],
      "stateMutability": "view",
      "type": "function"
    },
    {
      "inputs": [],
      "name": "owner",
      "outputs": [
        {
          "internalType": "address",
          "name": "",
          "type": "address"
        }
      ],
      "stateMutability": "view",
      "type": "function"
    },
    {
      "inputs": [
        {
          "internalType": "uint256",
          "name": "amount",
          "type": "uint256"
        },
        {
          "internalType": "address",
          "name": "collection",
          "type": "address"
        }
      ],
      "name": "removeVote",
      "outputs": [],
      "stateMutability": "nonpayable",
      "type": "function"
    },
    {
      "inputs": [],
      "name": "renounceOwnership",
      "outputs": [],
      "stateMutability": "nonpayable",
      "type": "function"
    },
    {
      "inputs": [],
      "name": "symbol",
      "outputs": [
        {
          "internalType": "string",
          "name": "",
          "type": "string"
        }
      ],
      "stateMutability": "view",
      "type": "function"
    },
    {
      "inputs": [],
      "name": "totalSupply",
      "outputs": [
        {
          "internalType": "uint256",
          "name": "",
          "type": "uint256"
        }
      ],
      "stateMutability": "view",
      "type": "function"
    },
    {
      "inputs": [
        {
          "internalType": "address",
          "name": "",
          "type": "address"
        },
        {
          "internalType": "uint256",
          "name": "",
          "type": "uint256"
        }
      ],
      "name": "transfer",
      "outputs": [
        {
          "internalType": "bool",
          "name": "",
          "type": "bool"
        }
      ],
      "stateMutability": "pure",
      "type": "function"
    },
    {
      "inputs": [
        {
          "internalType": "address",
          "name": "",
          "type": "address"
        },
        {
          "internalType": "address",
          "name": "",
          "type": "address"
        },
        {
          "internalType": "uint256",
          "name": "",
          "type": "uint256"
        }
      ],
      "name": "transferFrom",
      "outputs": [
        {
          "internalType": "bool",
          "name": "",
          "type": "bool"
        }
      ],
      "stateMutability": "pure",
      "type": "function"
    },
    {
      "inputs": [
        {
          "internalType": "address",
          "name": "newOwner",
          "type": "address"
        }
      ],
      "name": "transferOwnership",
      "outputs": [],
      "stateMutability": "nonpayable",
      "type": "function"
    },
    {
      "inputs": [
        {
          "internalType": "uint256",
          "name": "amount",
          "type": "uint256"
        },
        {
          "internalType": "address",
          "name": "collection",
          "type": "address"
        }
      ],
      "name": "vote",
      "outputs": [],
      "stateMutability": "nonpayable",
      "type": "function"
    },
    {
      "inputs": [
        {
          "internalType": "uint256",
          "name": "amount",
          "type": "uint256"
        }
      ],
      "name": "withdraw",
      "outputs": [],
      "stateMutability": "nonpayable",
      "type": "function"
    }
  ],
  "bytecode": "0x608060405234801561001057600080fd5b50613a6f806100206000396000f3fe608060405234801561001057600080fd5b506004361061018e5760003560e01c80637cbcd571116100de578063b5a990de11610097578063baf03a2b11610071578063baf03a2b146104bd578063c9e62319146104ed578063dd62ed3e14610509578063f2fde38b146105395761018e565b8063b5a990de14610441578063b6b55f2514610471578063b8ab1bdc1461048d5761018e565b80637cbcd571146103595780638da5cb5b1461037557806395d89b41146103935780639b0d1b96146103b1578063a457c2d7146103e1578063a9059cbb146104115761018e565b80632549e0b11161014b578063395093511161012557806339509351146102bf5780633e680e7a146102ef57806370a082311461031f578063715018a61461034f5761018e565b80632549e0b1146102675780632e1a7d4d14610285578063313ce567146102a15761018e565b806302d947ef1461019357806306fdde03146101af578063095ea7b3146101cd57806318160ddd146101fd5780632016a0d21461021b57806323b872dd14610237575b600080fd5b6101ad60048036038101906101a891906126ba565b610555565b005b6101b7610725565b6040516101c49190612793565b60405180910390f35b6101e760048036038101906101e291906127b5565b6107b7565b6040516101f49190612810565b60405180910390f35b6102056107da565b604051610212919061283a565b60405180910390f35b610235600480360381019061023091906128f8565b6107e4565b005b610251600480360381019061024c919061299f565b610992565b60405161025e9190612810565b60405180910390f35b61026f6109cf565b60405161027c919061283a565b60405180910390f35b61029f600480360381019061029a91906129f2565b6109de565b005b6102a9610b5c565b6040516102b69190612a3b565b60405180910390f35b6102d960048036038101906102d491906127b5565b610b65565b6040516102e69190612810565b60405180910390f35b61030960048036038101906103049190612a56565b610b9c565b604051610316919061283a565b60405180910390f35b61033960048036038101906103349190612a56565b610c25565b604051610346919061283a565b60405180910390f35b610357610c6e565b005b610373600480360381019061036e91906126ba565b610cf6565b005b61037d610ec6565b60405161038a9190612a92565b60405180910390f35b61039b610ef0565b6040516103a89190612793565b60405180910390f35b6103cb60048036038101906103c69190612a56565b610f82565b6040516103d8919061283a565b60405180910390f35b6103fb60048036038101906103f691906127b5565b610fcb565b6040516104089190612810565b60405180910390f35b61042b600480360381019061042691906127b5565b611042565b6040516104389190612810565b60405180910390f35b61045b60048036038101906104569190612aad565b61107f565b6040516104689190612b4d565b60405180910390f35b61048b600480360381019061048691906129f2565b611180565b005b6104a760048036038101906104a29190612aad565b6112fe565b6040516104b4919061283a565b60405180910390f35b6104d760048036038101906104d29190612aad565b6116f6565b6040516104e4919061283a565b60405180910390f35b610507600480360381019061050291906126ba565b61177d565b005b610523600480360381019061051e9190612aad565b611811565b604051610530919061283a565b60405180910390f35b610553600480360381019061054e9190612a56565b611898565b005b73__$5201a97c05ba6aa659e2f36a933dd51801$__63acd95392609760009054906101000a900473ffffffffffffffffffffffffffffffffffffffff1684846040518463ffffffff1660e01b81526004016105b293929190612be5565b60006040518083038186803b1580156105ca57600080fd5b505af41580156105de573d6000803e3d6000fd5b5050505081609960003373ffffffffffffffffffffffffffffffffffffffff1673ffffffffffffffffffffffffffffffffffffffff16815260200190815260200160002060008373ffffffffffffffffffffffffffffffffffffffff1673ffffffffffffffffffffffffffffffffffffffff168152602001908152602001600020600082825461066e9190612c4b565b9250508190555081609b60008373ffffffffffffffffffffffffffffffffffffffff1673ffffffffffffffffffffffffffffffffffffffff16815260200190815260200160002060008282546106c49190612c4b565b9250508190555081609a60003373ffffffffffffffffffffffffffffffffffffffff1673ffffffffffffffffffffffffffffffffffffffff168152602001908152602001600020600082825461071a9190612ca1565b925050819055505050565b60606036805461073490612d04565b80601f016020809104026020016040519081016040528092919081815260200182805461076090612d04565b80156107ad5780601f10610782576101008083540402835291602001916107ad565b820191906000526020600020905b81548152906001019060200180831161079057829003601f168201915b5050505050905090565b6000806107c261198f565b90506107cf818585611997565b600191505092915050565b6000603554905090565b60006107f06001611b60565b90508015610814576001600060016101000a81548160ff0219169083151502179055505b61081c611c50565b6108ae85858080601f016020809104026020016040519081016040528093929190818152602001838380828437600081840152601f19601f8201169050808301925050505050505084848080601f016020809104026020016040519081016040528093929190818152602001838380828437600081840152601f19601f82011690508083019250505050505050611ca9565b86609760006101000a81548173ffffffffffffffffffffffffffffffffffffffff021916908373ffffffffffffffffffffffffffffffffffffffff16021790555085609860006101000a81548173ffffffffffffffffffffffffffffffffffffffff021916908373ffffffffffffffffffffffffffffffffffffffff16021790555080156109895760008060016101000a81548160ff0219169083151502179055507f7f26b83ff96e1f2b6a682f133852f6798a09c465da95921460cefb384740249860016040516109809190612d70565b60405180910390a15b50505050505050565b60006040517f08c379a00000000000000000000000000000000000000000000000000000000081526004016109c690612dd7565b60405180910390fd5b60006109d9611d06565b905090565b73__$5201a97c05ba6aa659e2f36a933dd51801$__6381778770609760009054906101000a900473ffffffffffffffffffffffffffffffffffffffff16836040518363ffffffff1660e01b8152600401610a39929190612df7565b60006040518083038186803b158015610a5157600080fd5b505af4158015610a65573d6000803e3d6000fd5b50505050600080610a746107da565b03610a8157819050610aa9565b610a89611d06565b610a916107da565b83610a9c9190612e20565b610aa69190612ea9565b90505b610ab33383611da9565b80609a60003373ffffffffffffffffffffffffffffffffffffffff1673ffffffffffffffffffffffffffffffffffffffff1681526020019081526020016000206000828254610b029190612ca1565b92505081905550610b58303384609860009054906101000a900473ffffffffffffffffffffffffffffffffffffffff1673ffffffffffffffffffffffffffffffffffffffff16611f81909392919063ffffffff16565b5050565b60006012905090565b600080610b7061198f565b9050610b91818585610b828589611811565b610b8c9190612c4b565b611997565b600191505092915050565b600080609a60008473ffffffffffffffffffffffffffffffffffffffff1673ffffffffffffffffffffffffffffffffffffffff1681526020019081526020016000205490506000808203610bf35760009050610c1b565b610bfb6107da565b610c03611d06565b83610c0e9190612e20565b610c189190612ea9565b90505b8092505050919050565b6000603360008373ffffffffffffffffffffffffffffffffffffffff1673ffffffffffffffffffffffffffffffffffffffff168152602001908152602001600020549050919050565b610c7661198f565b73ffffffffffffffffffffffffffffffffffffffff16610c94610ec6565b73ffffffffffffffffffffffffffffffffffffffff1614610cea576040517f08c379a0000000000000000000000000000000000000000000000000000000008152600401610ce190612f26565b60405180910390fd5b610cf4600061200a565b565b73__$5201a97c05ba6aa659e2f36a933dd51801$__631fc9e757609760009054906101000a900473ffffffffffffffffffffffffffffffffffffffff1684846040518463ffffffff1660e01b8152600401610d5393929190612be5565b60006040518083038186803b158015610d6b57600080fd5b505af4158015610d7f573d6000803e3d6000fd5b5050505081609960003373ffffffffffffffffffffffffffffffffffffffff1673ffffffffffffffffffffffffffffffffffffffff16815260200190815260200160002060008373ffffffffffffffffffffffffffffffffffffffff1673ffffffffffffffffffffffffffffffffffffffff1681526020019081526020016000206000828254610e0f9190612ca1565b9250508190555081609b60008373ffffffffffffffffffffffffffffffffffffffff1673ffffffffffffffffffffffffffffffffffffffff1681526020019081526020016000206000828254610e659190612ca1565b9250508190555081609a60003373ffffffffffffffffffffffffffffffffffffffff1673ffffffffffffffffffffffffffffffffffffffff1681526020019081526020016000206000828254610ebb9190612c4b565b925050819055505050565b6000606560009054906101000a900473ffffffffffffffffffffffffffffffffffffffff16905090565b606060378054610eff90612d04565b80601f0160208091040260200160405190810160405280929190818152602001828054610f2b90612d04565b8015610f785780601f10610f4d57610100808354040283529160200191610f78565b820191906000526020600020905b815481529060010190602001808311610f5b57829003601f168201915b5050505050905090565b6000609a60008373ffffffffffffffffffffffffffffffffffffffff1673ffffffffffffffffffffffffffffffffffffffff168152602001908152602001600020549050919050565b600080610fd661198f565b90506000610fe48286611811565b905083811015611029576040517f08c379a000000000000000000000000000000000000000000000000000000000815260040161102090612fb8565b60405180910390fd5b6110368286868403611997565b60019250505092915050565b60006040517f08c379a000000000000000000000000000000000000000000000000000000000815260040161107690612dd7565b60405180910390fd5b6110876125e5565b609c60008473ffffffffffffffffffffffffffffffffffffffff1673ffffffffffffffffffffffffffffffffffffffff16815260200190815260200160002060008373ffffffffffffffffffffffffffffffffffffffff1673ffffffffffffffffffffffffffffffffffffffff1681526020019081526020016000206040518060600160405290816000820160009054906101000a900473ffffffffffffffffffffffffffffffffffffffff1673ffffffffffffffffffffffffffffffffffffffff1673ffffffffffffffffffffffffffffffffffffffff16815260200160018201548152602001600282015481525050905092915050565b73__$5201a97c05ba6aa659e2f36a933dd51801$__63d8b7f942609860009054906101000a900473ffffffffffffffffffffffffffffffffffffffff16836040518363ffffffff1660e01b81526004016111db929190612fd8565b60006040518083038186803b1580156111f357600080fd5b505af4158015611207573d6000803e3d6000fd5b505050506000806112166107da565b036112235781905061124b565b61122b611d06565b6112336107da565b8361123e9190612e20565b6112489190612ea9565b90505b61129a333084609860009054906101000a900473ffffffffffffffffffffffffffffffffffffffff1673ffffffffffffffffffffffffffffffffffffffff16611f81909392919063ffffffff16565b6112a433826120d0565b80609a60003373ffffffffffffffffffffffffffffffffffffffff1673ffffffffffffffffffffffffffffffffffffffff16815260200190815260200160002060008282546112f39190612c4b565b925050819055505050565b6000806000609760009054906101000a900473ffffffffffffffffffffffffffffffffffffffff1673ffffffffffffffffffffffffffffffffffffffff1663536223646040518163ffffffff1660e01b8152600401602060405180830381865afa158015611370573d6000803e3d6000fd5b505050506040513d601f19601f820116820180604052508101906113949190613016565b73ffffffffffffffffffffffffffffffffffffffff1663b7ea175d86866040518363ffffffff1660e01b81526004016113ce929190613043565b602060405180830381865afa1580156113eb573d6000803e3d6000fd5b505050506040513d601f19601f8201168201806040525081019061140f9190613081565b90506000609760009054906101000a900473ffffffffffffffffffffffffffffffffffffffff1673ffffffffffffffffffffffffffffffffffffffff166391aefd4c6040518163ffffffff1660e01b8152600401602060405180830381865afa158015611480573d6000803e3d6000fd5b505050506040513d601f19601f820116820180604052508101906114a49190613016565b73ffffffffffffffffffffffffffffffffffffffff166385048179866040518263ffffffff1660e01b81526004016114dc9190612a92565b602060405180830381865afa1580156114f9573d6000803e3d6000fd5b505050506040513d601f19601f8201168201806040525081019061151d9190613081565b90506000609760009054906101000a900473ffffffffffffffffffffffffffffffffffffffff1673ffffffffffffffffffffffffffffffffffffffff1663cfeed1816040518163ffffffff1660e01b8152600401602060405180830381865afa15801561158e573d6000803e3d6000fd5b505050506040513d601f19601f820116820180604052508101906115b29190613016565b73ffffffffffffffffffffffffffffffffffffffff1663d02641a0609860009054906101000a900473ffffffffffffffffffffffffffffffffffffffff166040518263ffffffff1660e01b815260040161160c9190612a92565b602060405180830381865afa158015611629573d6000803e3d6000fd5b505050506040513d601f19601f8201168201806040525081019061164d9190613081565b9050600081609b60008973ffffffffffffffffffffffffffffffffffffffff1673ffffffffffffffffffffffffffffffffffffffff1681526020019081526020016000205461169c9190612e20565b9050600083856116ac9190612e20565b9050600081146116e257600a816116c39190612e20565b826127106116d19190612e20565b6116db9190612ea9565b95506116e7565b600095505b85965050505050505092915050565b6000609960008473ffffffffffffffffffffffffffffffffffffffff1673ffffffffffffffffffffffffffffffffffffffff16815260200190815260200160002060008373ffffffffffffffffffffffffffffffffffffffff1673ffffffffffffffffffffffffffffffffffffffff16815260200190815260200160002054905092915050565b61180d3383609c60003373ffffffffffffffffffffffffffffffffffffffff1673ffffffffffffffffffffffffffffffffffffffff16815260200190815260200160002060008573ffffffffffffffffffffffffffffffffffffffff1673ffffffffffffffffffffffffffffffffffffffff1681526020019081526020016000206122309092919063ffffffff16565b5050565b6000603460008473ffffffffffffffffffffffffffffffffffffffff1673ffffffffffffffffffffffffffffffffffffffff16815260200190815260200160002060008373ffffffffffffffffffffffffffffffffffffffff1673ffffffffffffffffffffffffffffffffffffffff16815260200190815260200160002054905092915050565b6118a061198f565b73ffffffffffffffffffffffffffffffffffffffff166118be610ec6565b73ffffffffffffffffffffffffffffffffffffffff1614611914576040517f08c379a000000000000000000000000000000000000000000000000000000000815260040161190b90612f26565b60405180910390fd5b600073ffffffffffffffffffffffffffffffffffffffff168173ffffffffffffffffffffffffffffffffffffffff1603611983576040517f08c379a000000000000000000000000000000000000000000000000000000000815260040161197a90613120565b60405180910390fd5b61198c8161200a565b50565b600033905090565b600073ffffffffffffffffffffffffffffffffffffffff168373ffffffffffffffffffffffffffffffffffffffff1603611a06576040517f08c379a00000000000000000000000000000000000000000000000000000000081526004016119fd906131b2565b60405180910390fd5b600073ffffffffffffffffffffffffffffffffffffffff168273ffffffffffffffffffffffffffffffffffffffff1603611a75576040517f08c379a0000000000000000000000000000000000000000000000000000000008152600401611a6c90613244565b60405180910390fd5b80603460008573ffffffffffffffffffffffffffffffffffffffff1673ffffffffffffffffffffffffffffffffffffffff16815260200190815260200160002060008473ffffffffffffffffffffffffffffffffffffffff1673ffffffffffffffffffffffffffffffffffffffff168152602001908152602001600020819055508173ffffffffffffffffffffffffffffffffffffffff168373ffffffffffffffffffffffffffffffffffffffff167f8c5be1e5ebec7d5bd14f71427d1e84f3dd0314c0f7b2291e5b200ac8c7c3b92583604051611b53919061283a565b60405180910390a3505050565b60008060019054906101000a900460ff1615611bd75760018260ff16148015611b8f5750611b8d3061228a565b155b611bce576040517f08c379a0000000000000000000000000000000000000000000000000000000008152600401611bc5906132d6565b60405180910390fd5b60009050611c4b565b8160ff1660008054906101000a900460ff1660ff1610611c2c576040517f08c379a0000000000000000000000000000000000000000000000000000000008152600401611c23906132d6565b60405180910390fd5b816000806101000a81548160ff021916908360ff160217905550600190505b919050565b600060019054906101000a900460ff16611c9f576040517f08c379a0000000000000000000000000000000000000000000000000000000008152600401611c9690613368565b60405180910390fd5b611ca76122ad565b565b600060019054906101000a900460ff16611cf8576040517f08c379a0000000000000000000000000000000000000000000000000000000008152600401611cef90613368565b60405180910390fd5b611d02828261230e565b5050565b6000609860009054906101000a900473ffffffffffffffffffffffffffffffffffffffff1673ffffffffffffffffffffffffffffffffffffffff166370a08231306040518263ffffffff1660e01b8152600401611d639190612a92565b602060405180830381865afa158015611d80573d6000803e3d6000fd5b505050506040513d601f19601f82011682018060405250810190611da49190613081565b905090565b600073ffffffffffffffffffffffffffffffffffffffff168273ffffffffffffffffffffffffffffffffffffffff1603611e18576040517f08c379a0000000000000000000000000000000000000000000000000000000008152600401611e0f906133fa565b60405180910390fd5b611e2482600083612381565b6000603360008473ffffffffffffffffffffffffffffffffffffffff1673ffffffffffffffffffffffffffffffffffffffff16815260200190815260200160002054905081811015611eab576040517f08c379a0000000000000000000000000000000000000000000000000000000008152600401611ea29061348c565b60405180910390fd5b818103603360008573ffffffffffffffffffffffffffffffffffffffff1673ffffffffffffffffffffffffffffffffffffffff168152602001908152602001600020819055508160356000828254611f039190612ca1565b92505081905550600073ffffffffffffffffffffffffffffffffffffffff168373ffffffffffffffffffffffffffffffffffffffff167fddf252ad1be2c89b69c2b068fc378daa952ba7f163c4a11628f55a4df523b3ef84604051611f68919061283a565b60405180910390a3611f7c83600084612386565b505050565b612004846323b872dd60e01b858585604051602401611fa2939291906134ac565b604051602081830303815290604052907bffffffffffffffffffffffffffffffffffffffffffffffffffffffff19166020820180517bffffffffffffffffffffffffffffffffffffffffffffffffffffffff838183161783525050505061238b565b50505050565b6000606560009054906101000a900473ffffffffffffffffffffffffffffffffffffffff16905081606560006101000a81548173ffffffffffffffffffffffffffffffffffffffff021916908373ffffffffffffffffffffffffffffffffffffffff1602179055508173ffffffffffffffffffffffffffffffffffffffff168173ffffffffffffffffffffffffffffffffffffffff167f8be0079c531659141344cd1fd0a4f28419497f9722a3daafe3b4186f6b6457e060405160405180910390a35050565b600073ffffffffffffffffffffffffffffffffffffffff168273ffffffffffffffffffffffffffffffffffffffff160361213f576040517f08c379a00000000000000000000000000000000000000000000000000000000081526004016121369061352f565b60405180910390fd5b61214b60008383612381565b806035600082825461215d9190612c4b565b9250508190555080603360008473ffffffffffffffffffffffffffffffffffffffff1673ffffffffffffffffffffffffffffffffffffffff16815260200190815260200160002060008282546121b39190612c4b565b925050819055508173ffffffffffffffffffffffffffffffffffffffff16600073ffffffffffffffffffffffffffffffffffffffff167fddf252ad1be2c89b69c2b068fc378daa952ba7f163c4a11628f55a4df523b3ef83604051612218919061283a565b60405180910390a361222c60008383612386565b5050565b818360000160006101000a81548173ffffffffffffffffffffffffffffffffffffffff021916908373ffffffffffffffffffffffffffffffffffffffff160217905550808360010181905550428360020181905550505050565b6000808273ffffffffffffffffffffffffffffffffffffffff163b119050919050565b600060019054906101000a900460ff166122fc576040517f08c379a00000000000000000000000000000000000000000000000000000000081526004016122f390613368565b60405180910390fd5b61230c61230761198f565b61200a565b565b600060019054906101000a900460ff1661235d576040517f08c379a000000000000000000000000000000000000000000000000000000000815260040161235490613368565b60405180910390fd5b816036908161236c9190613720565b50806037908161237c9190613720565b505050565b505050565b505050565b60006123ed826040518060400160405280602081526020017f5361666545524332303a206c6f772d6c6576656c2063616c6c206661696c65648152508573ffffffffffffffffffffffffffffffffffffffff166124529092919063ffffffff16565b905060008151111561244d578080602001905181019061240d919061381e565b61244c576040517f08c379a0000000000000000000000000000000000000000000000000000000008152600401612443906138bd565b60405180910390fd5b5b505050565b6060612461848460008561246a565b90509392505050565b6060824710156124af576040517f08c379a00000000000000000000000000000000000000000000000000000000081526004016124a69061394f565b60405180910390fd5b6124b88561228a565b6124f7576040517f08c379a00000000000000000000000000000000000000000000000000000000081526004016124ee906139bb565b60405180910390fd5b6000808673ffffffffffffffffffffffffffffffffffffffff1685876040516125209190613a22565b60006040518083038185875af1925050503d806000811461255d576040519150601f19603f3d011682016040523d82523d6000602084013e612562565b606091505b509150915061257282828661257e565b92505050949350505050565b6060831561258e578290506125de565b6000835111156125a15782518084602001fd5b816040517f08c379a00000000000000000000000000000000000000000000000000000000081526004016125d59190612793565b60405180910390fd5b9392505050565b6040518060600160405280600073ffffffffffffffffffffffffffffffffffffffff16815260200160008152602001600081525090565b600080fd5b600080fd5b6000819050919050565b61263981612626565b811461264457600080fd5b50565b60008135905061265681612630565b92915050565b600073ffffffffffffffffffffffffffffffffffffffff82169050919050565b60006126878261265c565b9050919050565b6126978161267c565b81146126a257600080fd5b50565b6000813590506126b48161268e565b92915050565b600080604083850312156126d1576126d061261c565b5b60006126df85828601612647565b92505060206126f0858286016126a5565b9150509250929050565b600081519050919050565b600082825260208201905092915050565b60005b83811015612734578082015181840152602081019050612719565b83811115612743576000848401525b50505050565b6000601f19601f8301169050919050565b6000612765826126fa565b61276f8185612705565b935061277f818560208601612716565b61278881612749565b840191505092915050565b600060208201905081810360008301526127ad818461275a565b905092915050565b600080604083850312156127cc576127cb61261c565b5b60006127da858286016126a5565b92505060206127eb85828601612647565b9150509250929050565b60008115159050919050565b61280a816127f5565b82525050565b60006020820190506128256000830184612801565b92915050565b61283481612626565b82525050565b600060208201905061284f600083018461282b565b92915050565b60006128608261267c565b9050919050565b61287081612855565b811461287b57600080fd5b50565b60008135905061288d81612867565b92915050565b600080fd5b600080fd5b600080fd5b60008083601f8401126128b8576128b7612893565b5b8235905067ffffffffffffffff8111156128d5576128d4612898565b5b6020830191508360018202830111156128f1576128f061289d565b5b9250929050565b600080600080600080608087890312156129155761291461261c565b5b600061292389828a0161287e565b965050602061293489828a016126a5565b955050604087013567ffffffffffffffff81111561295557612954612621565b5b61296189828a016128a2565b9450945050606087013567ffffffffffffffff81111561298457612983612621565b5b61299089828a016128a2565b92509250509295509295509295565b6000806000606084860312156129b8576129b761261c565b5b60006129c6868287016126a5565b93505060206129d7868287016126a5565b92505060406129e886828701612647565b9150509250925092565b600060208284031215612a0857612a0761261c565b5b6000612a1684828501612647565b91505092915050565b600060ff82169050919050565b612a3581612a1f565b82525050565b6000602082019050612a506000830184612a2c565b92915050565b600060208284031215612a6c57612a6b61261c565b5b6000612a7a848285016126a5565b91505092915050565b612a8c8161267c565b82525050565b6000602082019050612aa76000830184612a83565b92915050565b60008060408385031215612ac457612ac361261c565b5b6000612ad2858286016126a5565b9250506020612ae3858286016126a5565b9150509250929050565b612af68161267c565b82525050565b612b0581612626565b82525050565b606082016000820151612b216000850182612aed565b506020820151612b346020850182612afc565b506040820151612b476040850182612afc565b50505050565b6000606082019050612b626000830184612b0b565b92915050565b6000819050919050565b6000612b8d612b88612b838461265c565b612b68565b61265c565b9050919050565b6000612b9f82612b72565b9050919050565b6000612bb182612b94565b9050919050565b612bc181612ba6565b82525050565b612bd081612626565b82525050565b612bdf8161267c565b82525050565b6000606082019050612bfa6000830186612bb8565b612c076020830185612bc7565b612c146040830184612bd6565b949350505050565b7f4e487b7100000000000000000000000000000000000000000000000000000000600052601160045260246000fd5b6000612c5682612626565b9150612c6183612626565b9250827fffffffffffffffffffffffffffffffffffffffffffffffffffffffffffffffff03821115612c9657612c95612c1c565b5b828201905092915050565b6000612cac82612626565b9150612cb783612626565b925082821015612cca57612cc9612c1c565b5b828203905092915050565b7f4e487b7100000000000000000000000000000000000000000000000000000000600052602260045260246000fd5b60006002820490506001821680612d1c57607f821691505b602082108103612d2f57612d2e612cd5565b5b50919050565b6000819050919050565b6000612d5a612d55612d5084612d35565b612b68565b612a1f565b9050919050565b612d6a81612d3f565b82525050565b6000602082019050612d856000830184612d61565b92915050565b7f5472616e736665722064697361626c6564000000000000000000000000000000600082015250565b6000612dc1601183612705565b9150612dcc82612d8b565b602082019050919050565b60006020820190508181036000830152612df081612db4565b9050919050565b6000604082019050612e0c6000830185612bb8565b612e196020830184612bc7565b9392505050565b6000612e2b82612626565b9150612e3683612626565b9250817fffffffffffffffffffffffffffffffffffffffffffffffffffffffffffffffff0483118215151615612e6f57612e6e612c1c565b5b828202905092915050565b7f4e487b7100000000000000000000000000000000000000000000000000000000600052601260045260246000fd5b6000612eb482612626565b9150612ebf83612626565b925082612ecf57612ece612e7a565b5b828204905092915050565b7f4f776e61626c653a2063616c6c6572206973206e6f7420746865206f776e6572600082015250565b6000612f10602083612705565b9150612f1b82612eda565b602082019050919050565b60006020820190508181036000830152612f3f81612f03565b9050919050565b7f45524332303a2064656372656173656420616c6c6f77616e63652062656c6f7760008201527f207a65726f000000000000000000000000000000000000000000000000000000602082015250565b6000612fa2602583612705565b9150612fad82612f46565b604082019050919050565b60006020820190508181036000830152612fd181612f95565b9050919050565b6000604082019050612fed6000830185612bd6565b612ffa6020830184612bc7565b9392505050565b6000815190506130108161268e565b92915050565b60006020828403121561302c5761302b61261c565b5b600061303a84828501613001565b91505092915050565b60006040820190506130586000830185612a83565b6130656020830184612a83565b9392505050565b60008151905061307b81612630565b92915050565b6000602082840312156130975761309661261c565b5b60006130a58482850161306c565b91505092915050565b7f4f776e61626c653a206e6577206f776e657220697320746865207a65726f206160008201527f6464726573730000000000000000000000000000000000000000000000000000602082015250565b600061310a602683612705565b9150613115826130ae565b604082019050919050565b60006020820190508181036000830152613139816130fd565b9050919050565b7f45524332303a20617070726f76652066726f6d20746865207a65726f2061646460008201527f7265737300000000000000000000000000000000000000000000000000000000602082015250565b600061319c602483612705565b91506131a782613140565b604082019050919050565b600060208201905081810360008301526131cb8161318f565b9050919050565b7f45524332303a20617070726f766520746f20746865207a65726f20616464726560008201527f7373000000000000000000000000000000000000000000000000000000000000602082015250565b600061322e602283612705565b9150613239826131d2565b604082019050919050565b6000602082019050818103600083015261325d81613221565b9050919050565b7f496e697469616c697a61626c653a20636f6e747261637420697320616c72656160008201527f647920696e697469616c697a6564000000000000000000000000000000000000602082015250565b60006132c0602e83612705565b91506132cb82613264565b604082019050919050565b600060208201905081810360008301526132ef816132b3565b9050919050565b7f496e697469616c697a61626c653a20636f6e7472616374206973206e6f74206960008201527f6e697469616c697a696e67000000000000000000000000000000000000000000602082015250565b6000613352602b83612705565b915061335d826132f6565b604082019050919050565b6000602082019050818103600083015261338181613345565b9050919050565b7f45524332303a206275726e2066726f6d20746865207a65726f2061646472657360008201527f7300000000000000000000000000000000000000000000000000000000000000602082015250565b60006133e4602183612705565b91506133ef82613388565b604082019050919050565b60006020820190508181036000830152613413816133d7565b9050919050565b7f45524332303a206275726e20616d6f756e7420657863656564732062616c616e60008201527f6365000000000000000000000000000000000000000000000000000000000000602082015250565b6000613476602283612705565b91506134818261341a565b604082019050919050565b600060208201905081810360008301526134a581613469565b9050919050565b60006060820190506134c16000830186612a83565b6134ce6020830185612a83565b6134db604083018461282b565b949350505050565b7f45524332303a206d696e7420746f20746865207a65726f206164647265737300600082015250565b6000613519601f83612705565b9150613524826134e3565b602082019050919050565b600060208201905081810360008301526135488161350c565b9050919050565b7f4e487b7100000000000000000000000000000000000000000000000000000000600052604160045260246000fd5b60008190508160005260206000209050919050565b60006020601f8301049050919050565b600082821b905092915050565b6000600883026135e07fffffffffffffffffffffffffffffffffffffffffffffffffffffffffffffffff826135a3565b6135ea86836135a3565b95508019841693508086168417925050509392505050565b600061361d61361861361384612626565b612b68565b612626565b9050919050565b6000819050919050565b61363783613602565b61364b61364382613624565b8484546135b0565b825550505050565b600090565b613660613653565b61366b81848461362e565b505050565b5b8181101561368f57613684600082613658565b600181019050613671565b5050565b601f8211156136d4576136a58161357e565b6136ae84613593565b810160208510156136bd578190505b6136d16136c985613593565b830182613670565b50505b505050565b600082821c905092915050565b60006136f7600019846008026136d9565b1980831691505092915050565b600061371083836136e6565b9150826002028217905092915050565b613729826126fa565b67ffffffffffffffff8111156137425761374161354f565b5b61374c8254612d04565b613757828285613693565b600060209050601f83116001811461378a5760008415613778578287015190505b6137828582613704565b8655506137ea565b601f1984166137988661357e565b60005b828110156137c05784890151825560018201915060208501945060208101905061379b565b868310156137dd57848901516137d9601f8916826136e6565b8355505b6001600288020188555050505b505050505050565b6137fb816127f5565b811461380657600080fd5b50565b600081519050613818816137f2565b92915050565b6000602082840312156138345761383361261c565b5b600061384284828501613809565b91505092915050565b7f5361666545524332303a204552433230206f7065726174696f6e20646964206e60008201527f6f74207375636365656400000000000000000000000000000000000000000000602082015250565b60006138a7602a83612705565b91506138b28261384b565b604082019050919050565b600060208201905081810360008301526138d68161389a565b9050919050565b7f416464726573733a20696e73756666696369656e742062616c616e636520666f60008201527f722063616c6c0000000000000000000000000000000000000000000000000000602082015250565b6000613939602683612705565b9150613944826138dd565b604082019050919050565b600060208201905081810360008301526139688161392c565b9050919050565b7f416464726573733a2063616c6c20746f206e6f6e2d636f6e7472616374000000600082015250565b60006139a5601d83612705565b91506139b08261396f565b602082019050919050565b600060208201905081810360008301526139d481613998565b9050919050565b600081519050919050565b600081905092915050565b60006139fc826139db565b613a0681856139e6565b9350613a16818560208601612716565b80840191505092915050565b6000613a2e82846139f1565b91508190509291505056fea2646970667358221220174623cdaa2da787bd017147326a5b2e6f46432572dfca421d8ec0602b6bc7ce64736f6c634300080f0033",
  "linkReferences": {
    "contracts/libraries/logic/ValidationLogic.sol": {
      "ValidationLogic": [
        {
          "length": 20,
          "start": 1399
        },
        {
          "length": 20,
          "start": 2560
        },
        {
          "length": 20,
          "start": 3352
        },
        {
          "length": 20,
          "start": 4514
        }
      ]
    }
  },
  "deployedLinkReferences": {
    "contracts/libraries/logic/ValidationLogic.sol": {
      "ValidationLogic": [
        {
          "length": 20,
          "start": 1367
        },
        {
          "length": 20,
          "start": 2528
        },
        {
          "length": 20,
          "start": 3320
        },
        {
          "length": 20,
          "start": 4482
        }
      ]
    }
  }
}