{
  "_format": "hh-sol-artifact-1",
  "contractName": "NativeTokenFaucet",
  "sourceName": "contracts/test/NativeTokenFaucet.sol",
  "abi": [
    {
      "inputs": [
        {
          "internalType": "contract IAddressProvider",
          "name": "AddressProvider",
          "type": "address"
        }
      ],
      "stateMutability": "nonpayable",
      "type": "constructor"
    },
    {
      "inputs": [],
      "name": "FAUCET_DRIP",
      "outputs": [
        {
          "internalType": "uint256",
          "name": "",
          "type": "uint256"
        }
      ],
      "stateMutability": "view",
      "type": "function"
    },
    {
      "inputs": [
        {
          "internalType": "address",
          "name": "account",
          "type": "address"
        }
      ],
      "name": "drip",
      "outputs": [],
      "stateMutability": "nonpayable",
      "type": "function"
    }
  ],
  "bytecode": "0x608060405234801561001057600080fd5b506040516103f73803806103f783398101604081905261002f91610054565b600080546001600160a01b0319166001600160a01b0392909216919091179055610084565b60006020828403121561006657600080fd5b81516001600160a01b038116811461007d57600080fd5b9392505050565b610364806100936000396000f3fe608060405234801561001057600080fd5b50600436106100365760003560e01c80630a79c1971461003b57806367a5cd061461005d575b600080fd5b61004b683635c9adc5dea0000081565b60405190815260200160405180910390f35b61007061006b3660046102b2565b610072565b005b600054604080516315b9ba5d60e01b81529051683635c9adc5dea00000926001600160a01b0316916315b9ba5d9160048083019260209291908290030181865afa1580156100c4573d6000803e3d6000fd5b505050506040513d601f19601f820116820180604052508101906100e891906102d6565b6040516370a0823160e01b81523060048201526001600160a01b0391909116906370a0823190602401602060405180830381865afa15801561012e573d6000803e3d6000fd5b505050506040513d601f19601f8201168201806040525081019061015291906102f3565b10156101a45760405162461bcd60e51b815260206004820152601860248201527f4e54463a443a4e4f545f454e4f5547485f42414c414e43450000000000000000604482015260640160405180910390fd5b60008054906101000a90046001600160a01b03166001600160a01b03166315b9ba5d6040518163ffffffff1660e01b8152600401602060405180830381865afa1580156101f5573d6000803e3d6000fd5b505050506040513d601f19601f8201168201806040525081019061021991906102d6565b60405163a9059cbb60e01b81526001600160a01b038381166004830152683635c9adc5dea000006024830152919091169063a9059cbb906044016020604051808303816000875af1158015610272573d6000803e3d6000fd5b505050506040513d601f19601f82011682018060405250810190610296919061030c565b5050565b6001600160a01b03811681146102af57600080fd5b50565b6000602082840312156102c457600080fd5b81356102cf8161029a565b9392505050565b6000602082840312156102e857600080fd5b81516102cf8161029a565b60006020828403121561030557600080fd5b5051919050565b60006020828403121561031e57600080fd5b815180151581146102cf57600080fdfea26469706673582212208d15ec96b3834e01f9923a62313e758490f8acf9f3c25d27f6a200fb7248b32764736f6c63430008130033",
  "linkReferences": {},
  "deployedLinkReferences": {}
}