{
  "_format": "hh-sol-artifact-1",
  "contractName": "NFTOracle",
  "sourceName": "contracts/protocol/NFTOracle.sol",
  "abi": [
    {
      "inputs": [
        {
          "internalType": "contract IAddressesProvider",
          "name": "addressProvider",
          "type": "address"
        }
      ],
      "stateMutability": "nonpayable",
      "type": "constructor"
    },
    {
      "anonymous": false,
      "inputs": [
        {
          "indexed": true,
          "internalType": "address",
          "name": "previousOwner",
          "type": "address"
        },
        {
          "indexed": true,
          "internalType": "address",
          "name": "newOwner",
          "type": "address"
        }
      ],
      "name": "OwnershipTransferred",
      "type": "event"
    },
    {
      "inputs": [],
      "name": "DOMAIN_SEPARATOR",
      "outputs": [
        {
          "internalType": "bytes32",
          "name": "",
          "type": "bytes32"
        }
      ],
      "stateMutability": "view",
      "type": "function"
    },
    {
      "inputs": [
        {
          "internalType": "address",
          "name": "signer",
          "type": "address"
        }
      ],
      "name": "addTrustedPriceSource",
      "outputs": [],
      "stateMutability": "nonpayable",
      "type": "function"
    },
    {
      "inputs": [
        {
          "internalType": "address",
          "name": "collection",
          "type": "address"
        },
        {
          "internalType": "uint256",
          "name": "tokenId",
          "type": "uint256"
        },
        {
          "internalType": "bytes32",
          "name": "request",
          "type": "bytes32"
        },
        {
          "components": [
            {
              "internalType": "uint8",
              "name": "v",
              "type": "uint8"
            },
            {
              "internalType": "bytes32",
              "name": "r",
              "type": "bytes32"
            },
            {
              "internalType": "bytes32",
              "name": "s",
              "type": "bytes32"
            },
            {
              "internalType": "bytes32",
              "name": "request",
              "type": "bytes32"
            },
            {
              "internalType": "uint256",
              "name": "deadline",
              "type": "uint256"
            },
            {
              "internalType": "bytes",
              "name": "payload",
              "type": "bytes"
            }
          ],
          "internalType": "struct Trustus.TrustusPacket",
          "name": "packet",
          "type": "tuple"
        }
      ],
      "name": "getTokenETHPrice",
      "outputs": [
        {
          "internalType": "uint256",
          "name": "",
          "type": "uint256"
        }
      ],
      "stateMutability": "view",
      "type": "function"
    },
    {
      "inputs": [
        {
          "internalType": "address",
          "name": "signer",
          "type": "address"
        }
      ],
      "name": "isSourceTrusted",
      "outputs": [
        {
          "internalType": "bool",
          "name": "",
          "type": "bool"
        }
      ],
      "stateMutability": "view",
      "type": "function"
    },
    {
      "inputs": [],
      "name": "owner",
      "outputs": [
        {
          "internalType": "address",
          "name": "",
          "type": "address"
        }
      ],
      "stateMutability": "view",
      "type": "function"
    },
    {
      "inputs": [
        {
          "internalType": "address",
          "name": "signer",
          "type": "address"
        }
      ],
      "name": "removeTrustedPriceSource",
      "outputs": [],
      "stateMutability": "nonpayable",
      "type": "function"
    },
    {
      "inputs": [],
      "name": "renounceOwnership",
      "outputs": [],
      "stateMutability": "nonpayable",
      "type": "function"
    },
    {
      "inputs": [
        {
          "internalType": "address",
          "name": "newOwner",
          "type": "address"
        }
      ],
      "name": "transferOwnership",
      "outputs": [],
      "stateMutability": "nonpayable",
      "type": "function"
    }
  ],
  "bytecode": "0x60c034610173576001600160401b0390601f6109fc38819003918201601f19168301918483118484101761015d5780849260209460405283398101031261017357516001600160a01b0380821691829003610173576000549060018060a01b0319913383821617600055604051913391167f8be0079c531659141344cd1fd0a4f28419497f9722a3daafe3b4186f6b6457e0600084a34660805260208101907f8b73c3c69bb8fe3d512ecc4cf759cc79239f7b179b0ffacaa9a75d522b39400f82527f118e7890157efb533a050dce8fe5a02b428bdf432762e2e91914807054e2d96560408201527fc89efdaa54c0f20c7adf612882df0950f5a951637e0307cdcb4c672f298b8bc660608201524660808201523060a082015260a0815260c08101948186109086111761015d578460405251902060a05260025416176002556108839081610179823960805181610747015260a0518161076e0152f35b634e487b7160e01b600052604160045260246000fd5b600080fdfe6040608081526004908136101561001557600080fd5b600091823560e01c80633644e515146106785780633d638ac71461028c578063715018a61461022f57806379ae0b98146101f15780638da5cb5b146101c9578063c85105bd14610183578063e1f42e711461013e5763f2fde38b1461007957600080fd5b3461013a57602036600319011261013a5761009261069c565b61009a6106b7565b6001600160a01b039081169182156100e8575083546001600160a01b0319811683178555925192167f8be0079c531659141344cd1fd0a4f28419497f9722a3daafe3b4186f6b6457e08484a3f35b608490602085519162461bcd60e51b8352820152602660248201527f4f776e61626c653a206e6577206f776e657220697320746865207a65726f206160448201526564647265737360d01b6064820152fd5b8280fd5b50503461017f57602036600319011261017f5761015961069c565b6101616106b7565b6001600160a01b031682526001602052808220805460ff1916905551f35b5080fd5b50503461017f57602036600319011261017f5761019e61069c565b6101a66106b7565b6001600160a01b0316825260016020819052818320805460ff1916909117905551f35b50503461017f578160031936011261017f57905490516001600160a01b039091168152602090f35b50503461017f57602036600319011261017f5760209160ff9082906001600160a01b0361021c61069c565b1681526001855220541690519015158152f35b50503461017f578160031936011261017f576102496106b7565b81546001600160a01b03198116835590519082906001600160a01b03167f8be0079c531659141344cd1fd0a4f28419497f9722a3daafe3b4186f6b6457e08284a3f35b50903461013a5760031991608036840112610674576102a961069c565b926064359067ffffffffffffffff908183116105bc5760c0908336030112610670576084820135958642101561062d5760648301359687604435036105ea576102f0610742565b9660a4850198858701926103048b8561070f565b9a90878c116105c0578a51601f8d01601f19908116603f01168101898111828210176105d7578c528c8152368d8301116105d3578760208e819f828501958637830101525190208a51928c8401947ffc7ecbf4f091085173dad8d1d3c2dfd218c018596a572201cd849763d1114e7a86528c850152606084015260808301526080825260a0820192828410888511176105c057838b528251902060c083019161190160f01b835260c284015260e283015260428352610120820192808410888511176105c057838b5251902084359060ff82168092036105bc579286926080928d958352610140820152610180604460249b8c810135610160850152013591015282805260015afa156105b25782516001600160a01b0392908316801515908161059e575b501561055c57606097989961043d9161070f565b908098918101031261013a57875193606085019081118582101761054a5788528635828116938482036105475750845287808a8601958b8a0135875201970135875216036104ec5751813503610497575050519051908152f35b835162461bcd60e51b8152918201859052602a908201527f5265717565737420746f6b656e496420616e6420746f6b656e496420646f6e276044820152697420636f696e6369646560b01b6064820152608490fd5b845162461bcd60e51b81528084018790526030818401527f5265717565737420636f6c6c656374696f6e20616e6420636f6c6c656374696f60448201526f6e20646f6e277420636f696e6369646560801b6064820152608490fd5b80fd5b634e487b7160e01b8452604187528584fd5b875162461bcd60e51b81528088018a9052601c818801527f5265636f7665726564206164647265737320697320696e76616c6964000000006044820152606490fd5b855250600189528784205460ff1638610429565b86513d84823e3d90fd5b8680fd5b634e487b7160e01b875260418a52602487fd5b8780fd5b634e487b7160e01b895260418c52602489fd5b855162461bcd60e51b8152602081870152601c60248201527f52657175657374206e756d62657220646f65736e2774206d61746368000000006044820152606490fd5b845162461bcd60e51b8152602081860152601b60248201527f5061636b65742074696d657374616d7020697320696e76616c696400000000006044820152606490fd5b8580fd5b8380fd5b50503461017f578160031936011261017f57602090610695610742565b9051908152f35b600435906001600160a01b03821682036106b257565b600080fd5b6000546001600160a01b031633036106cb57565b606460405162461bcd60e51b815260206004820152602060248201527f4f776e61626c653a2063616c6c6572206973206e6f7420746865206f776e65726044820152fd5b903590601e19813603018212156106b2570180359067ffffffffffffffff82116106b2576020019181360383136106b257565b6000467f00000000000000000000000000000000000000000000000000000000000000000361079057507f000000000000000000000000000000000000000000000000000000000000000090565b60405160208101917f8b73c3c69bb8fe3d512ecc4cf759cc79239f7b179b0ffacaa9a75d522b39400f83527f118e7890157efb533a050dce8fe5a02b428bdf432762e2e91914807054e2d96560408301527fc89efdaa54c0f20c7adf612882df0950f5a951637e0307cdcb4c672f298b8bc660608301524660808301523060a083015260a0825260c082019082821067ffffffffffffffff831117610839575060405251902090565b634e487b7160e01b81526041600452602490fdfea2646970667358221220d7b72d284b488f4b9c8ed1055ef3f09f1af7506b611907964d329bea0d69e2fd64736f6c634300080f0033",
  "linkReferences": {},
  "deployedLinkReferences": {}
}