{
  "_format": "hh-sol-artifact-1",
  "contractName": "NFTOracle",
  "sourceName": "contracts/protocol/Lending/NFTOracle.sol",
  "abi": [
    {
      "anonymous": false,
      "inputs": [
        {
          "indexed": true,
          "internalType": "address",
          "name": "previousOwner",
          "type": "address"
        },
        {
          "indexed": true,
          "internalType": "address",
          "name": "newOwner",
          "type": "address"
        }
      ],
      "name": "OwnershipTransferred",
      "type": "event"
    },
    {
      "inputs": [],
      "name": "DOMAIN_SEPARATOR",
      "outputs": [
        {
          "internalType": "bytes32",
          "name": "",
          "type": "bytes32"
        }
      ],
      "stateMutability": "view",
      "type": "function"
    },
    {
      "inputs": [
        {
          "internalType": "address",
          "name": "collection",
          "type": "address"
        },
        {
          "internalType": "uint256[]",
          "name": "tokenIds",
          "type": "uint256[]"
        },
        {
          "internalType": "bytes32",
          "name": "request",
          "type": "bytes32"
        },
        {
          "components": [
            {
              "internalType": "uint8",
              "name": "v",
              "type": "uint8"
            },
            {
              "internalType": "bytes32",
              "name": "r",
              "type": "bytes32"
            },
            {
              "internalType": "bytes32",
              "name": "s",
              "type": "bytes32"
            },
            {
              "internalType": "bytes32",
              "name": "request",
              "type": "bytes32"
            },
            {
              "internalType": "uint256",
              "name": "deadline",
              "type": "uint256"
            },
            {
              "internalType": "bytes",
              "name": "payload",
              "type": "bytes"
            }
          ],
          "internalType": "struct Trustus.TrustusPacket",
          "name": "packet",
          "type": "tuple"
        }
      ],
      "name": "getTokensETHPrice",
      "outputs": [
        {
          "internalType": "uint256",
          "name": "",
          "type": "uint256"
        }
      ],
      "stateMutability": "view",
      "type": "function"
    },
    {
      "inputs": [
        {
          "internalType": "address",
          "name": "signer",
          "type": "address"
        }
      ],
      "name": "isTrustedSigner",
      "outputs": [
        {
          "internalType": "bool",
          "name": "",
          "type": "bool"
        }
      ],
      "stateMutability": "view",
      "type": "function"
    },
    {
      "inputs": [],
      "name": "owner",
      "outputs": [
        {
          "internalType": "address",
          "name": "",
          "type": "address"
        }
      ],
      "stateMutability": "view",
      "type": "function"
    },
    {
      "inputs": [],
      "name": "renounceOwnership",
      "outputs": [],
      "stateMutability": "nonpayable",
      "type": "function"
    },
    {
      "inputs": [
        {
          "internalType": "address",
          "name": "signer",
          "type": "address"
        },
        {
          "internalType": "bool",
          "name": "isTrusted_",
          "type": "bool"
        }
      ],
      "name": "setTrustedPriceSigner",
      "outputs": [],
      "stateMutability": "nonpayable",
      "type": "function"
    },
    {
      "inputs": [
        {
          "internalType": "address",
          "name": "newOwner",
          "type": "address"
        }
      ],
      "name": "transferOwnership",
      "outputs": [],
      "stateMutability": "nonpayable",
      "type": "function"
    }
  ],
  "bytecode": "0x608060405234801561001057600080fd5b5061001a336100ce565b466001556100c6604080517f8b73c3c69bb8fe3d512ecc4cf759cc79239f7b179b0ffacaa9a75d522b39400f60208201527f118e7890157efb533a050dce8fe5a02b428bdf432762e2e91914807054e2d965918101919091527fc89efdaa54c0f20c7adf612882df0950f5a951637e0307cdcb4c672f298b8bc660608201524660808201523060a082015260009060c00160405160208183030381529060405280519060200120905090565b60025561011e565b600080546001600160a01b038381166001600160a01b0319831681178455604051919092169283917f8be0079c531659141344cd1fd0a4f28419497f9722a3daafe3b4186f6b6457e09190a35050565b610aa58061012d6000396000f3fe608060405234801561001057600080fd5b506004361061007d5760003560e01c8063c13513181161005b578063c1351318146100c2578063d3d92127146100d5578063db28c26014610111578063f2fde38b1461012457600080fd5b80633644e51514610082578063715018a61461009d5780638da5cb5b146100a7575b600080fd5b61008a610137565b6040519081526020015b60405180910390f35b6100a56101f6565b005b6000546040516001600160a01b039091168152602001610094565b61008a6100d036600461082f565b61020a565b6101016100e33660046108b2565b6001600160a01b031660009081526003602052604090205460ff1690565b6040519015158152602001610094565b6100a561011f3660046108d4565b610221565b6100a56101323660046108b2565b610251565b600060015446146101ef576101ea604080517f8b73c3c69bb8fe3d512ecc4cf759cc79239f7b179b0ffacaa9a75d522b39400f60208201527f118e7890157efb533a050dce8fe5a02b428bdf432762e2e91914807054e2d965918101919091527fc89efdaa54c0f20c7adf612882df0950f5a951637e0307cdcb4c672f298b8bc660608201524660808201523060a082015260009060c00160405160208183030381529060405280519060200120905090565b905090565b5060025490565b6101fe6102cf565b6102086000610329565b565b600061021885858585610379565b95945050505050565b6102296102cf565b6001600160a01b0382166000908152600360205260409020805460ff19168215151790555050565b6102596102cf565b6001600160a01b0381166102c35760405162461bcd60e51b815260206004820152602660248201527f4f776e61626c653a206e6577206f776e657220697320746865207a65726f206160448201526564647265737360d01b60648201526084015b60405180910390fd5b6102cc81610329565b50565b6000546001600160a01b031633146102085760405162461bcd60e51b815260206004820181905260248201527f4f776e61626c653a2063616c6c6572206973206e6f7420746865206f776e657260448201526064016102ba565b600080546001600160a01b038381166001600160a01b0319831681178455604051919092169283917f8be0079c531659141344cd1fd0a4f28419497f9722a3daafe3b4186f6b6457e09190a35050565b600082826103878282610512565b600061039660a0860186610910565b8101906103a3919061095e565b905080600001516001600160a01b0316886001600160a01b03161461040a5760405162461bcd60e51b815260206004820152601d60248201527f4e46544f3a475445503a434f4c4c454354494f4e5f4d49534d4154434800000060448201526064016102ba565b80602001515187511461045f5760405162461bcd60e51b815260206004820181905260248201527f4e46544f3a475445503a544f4b454e535f4c454e4754485f4d49534d4154434860448201526064016102ba565b60005b87518110156105025781602001518181518110610481576104816109ff565b602002602001015188828151811061049b5761049b6109ff565b6020026020010151146104f05760405162461bcd60e51b815260206004820152601b60248201527f4e46544f3a475445503a544f4b454e5f49445f4d49534d41544348000000000060448201526064016102ba565b806104fa81610a15565b915050610462565b5060400151979650505050505050565b8060800135421061055d5760405162461bcd60e51b8152602060048201526015602482015274150e958e911150511312539157d15610d151511151605a1b60448201526064016102ba565b806060013582146105a65760405162461bcd60e51b8152602060048201526013602482015272150e958e9253959053125117d49154555154d5606a1b60448201526064016102ba565b600060016105b2610137565b7ffc7ecbf4f091085173dad8d1d3c2dfd218c018596a572201cd849763d1114e7a606085013560808601356105ea60a0880188610910565b6040516105f8929190610a3c565b6040519081900381206106269493929160200193845260208401929092526040830152606082015260800190565b6040516020818303038152906040528051906020012060405160200161066392919061190160f01b81526002810192909252602282015260420190565b60408051601f1981840301815291905280516020918201209061068890850185610a4c565b604080516000815260208181018084529490945260ff9092168282015291850135606082015290840135608082015260a0016020604051602081039080840390855afa1580156106dc573d6000803e3d6000fd5b5050604051601f1901519150506001600160a01b0381161580159061071957506001600160a01b03811660009081526003602052604090205460ff165b61075d5760405162461bcd60e51b8152602060048201526015602482015274543a563a494e56414c49445f5349474e415455524560581b60448201526064016102ba565b505050565b80356001600160a01b038116811461077957600080fd5b919050565b634e487b7160e01b600052604160045260246000fd5b600082601f8301126107a557600080fd5b8135602067ffffffffffffffff808311156107c2576107c261077e565b8260051b604051601f19603f830116810181811084821117156107e7576107e761077e565b60405293845285810183019383810192508785111561080557600080fd5b83870191505b848210156108245781358352918301919083019061080b565b979650505050505050565b6000806000806080858703121561084557600080fd5b61084e85610762565b9350602085013567ffffffffffffffff8082111561086b57600080fd5b61087788838901610794565b945060408701359350606087013591508082111561089457600080fd5b50850160c081880312156108a757600080fd5b939692955090935050565b6000602082840312156108c457600080fd5b6108cd82610762565b9392505050565b600080604083850312156108e757600080fd5b6108f083610762565b91506020830135801515811461090557600080fd5b809150509250929050565b6000808335601e1984360301811261092757600080fd5b83018035915067ffffffffffffffff82111561094257600080fd5b60200191503681900382131561095757600080fd5b9250929050565b60006020828403121561097057600080fd5b813567ffffffffffffffff8082111561098857600080fd5b908301906060828603121561099c57600080fd5b6040516060810181811083821117156109b7576109b761077e565b6040526109c383610762565b81526020830135828111156109d757600080fd5b6109e387828601610794565b6020830152506040830135604082015280935050505092915050565b634e487b7160e01b600052603260045260246000fd5b600060018201610a3557634e487b7160e01b600052601160045260246000fd5b5060010190565b8183823760009101908152919050565b600060208284031215610a5e57600080fd5b813560ff811681146108cd57600080fdfea264697066735822122033be80f4f549c822dc957e0b0cf8014ef7a625a93a263687d9a61b905609f6a564736f6c63430008130033",
  "linkReferences": {},
  "deployedLinkReferences": {}
}