{
  "_format": "hh-sol-artifact-1",
  "contractName": "NFTOracle",
  "sourceName": "contracts/protocol/NFTOracle.sol",
  "abi": [
    {
      "inputs": [
        {
          "internalType": "uint256",
          "name": "maxPriceDeviation",
          "type": "uint256"
        },
        {
          "internalType": "uint256",
          "name": "minUpdateTime",
          "type": "uint256"
        }
      ],
      "stateMutability": "nonpayable",
      "type": "constructor"
    },
    {
      "anonymous": false,
      "inputs": [
        {
          "indexed": true,
          "internalType": "address",
          "name": "previousOwner",
          "type": "address"
        },
        {
          "indexed": true,
          "internalType": "address",
          "name": "newOwner",
          "type": "address"
        }
      ],
      "name": "OwnershipTransferred",
      "type": "event"
    },
    {
      "inputs": [],
      "name": "_maxPriceDeviation",
      "outputs": [
        {
          "internalType": "uint256",
          "name": "",
          "type": "uint256"
        }
      ],
      "stateMutability": "view",
      "type": "function"
    },
    {
      "inputs": [],
      "name": "_minUpdateTime",
      "outputs": [
        {
          "internalType": "uint256",
          "name": "",
          "type": "uint256"
        }
      ],
      "stateMutability": "view",
      "type": "function"
    },
    {
      "inputs": [
        {
          "internalType": "address",
          "name": "collection",
          "type": "address"
        },
        {
          "internalType": "uint256",
          "name": "floorPrice",
          "type": "uint256"
        }
      ],
      "name": "addFloorPriceData",
      "outputs": [],
      "stateMutability": "nonpayable",
      "type": "function"
    },
    {
      "inputs": [
        {
          "internalType": "address",
          "name": "collection",
          "type": "address"
        },
        {
          "internalType": "uint256",
          "name": "floorPrice",
          "type": "uint256"
        },
        {
          "internalType": "uint256",
          "name": "maxCollaterization",
          "type": "uint256"
        }
      ],
      "name": "addSupportedNft",
      "outputs": [],
      "stateMutability": "nonpayable",
      "type": "function"
    },
    {
      "inputs": [
        {
          "internalType": "address[]",
          "name": "collection",
          "type": "address[]"
        },
        {
          "internalType": "uint256[]",
          "name": "floorPrice",
          "type": "uint256[]"
        }
      ],
      "name": "batchAddFloorPriceData",
      "outputs": [],
      "stateMutability": "nonpayable",
      "type": "function"
    },
    {
      "inputs": [
        {
          "internalType": "address",
          "name": "collection",
          "type": "address"
        }
      ],
      "name": "getCollectionMaxCollateralization",
      "outputs": [
        {
          "internalType": "uint256",
          "name": "",
          "type": "uint256"
        }
      ],
      "stateMutability": "view",
      "type": "function"
    },
    {
      "inputs": [
        {
          "internalType": "address",
          "name": "nftCollection",
          "type": "address"
        }
      ],
      "name": "getNftFloorPrice",
      "outputs": [
        {
          "internalType": "uint256",
          "name": "",
          "type": "uint256"
        }
      ],
      "stateMutability": "view",
      "type": "function"
    },
    {
      "inputs": [
        {
          "internalType": "address",
          "name": "collection",
          "type": "address"
        }
      ],
      "name": "isNftSupported",
      "outputs": [
        {
          "internalType": "bool",
          "name": "",
          "type": "bool"
        }
      ],
      "stateMutability": "view",
      "type": "function"
    },
    {
      "inputs": [],
      "name": "owner",
      "outputs": [
        {
          "internalType": "address",
          "name": "",
          "type": "address"
        }
      ],
      "stateMutability": "view",
      "type": "function"
    },
    {
      "inputs": [
        {
          "internalType": "address",
          "name": "collection",
          "type": "address"
        }
      ],
      "name": "removeSupportedNft",
      "outputs": [],
      "stateMutability": "nonpayable",
      "type": "function"
    },
    {
      "inputs": [],
      "name": "renounceOwnership",
      "outputs": [],
      "stateMutability": "nonpayable",
      "type": "function"
    },
    {
      "inputs": [
        {
          "internalType": "address",
          "name": "newOwner",
          "type": "address"
        }
      ],
      "name": "transferOwnership",
      "outputs": [],
      "stateMutability": "nonpayable",
      "type": "function"
    }
  ],
  "bytecode": "0x60c06040523480156200001157600080fd5b50604051620017e0380380620017e083398181016040528101906200003791906200017b565b620000576200004b6200006f60201b60201c565b6200007760201b60201c565b81608081815250508060a081815250505050620001c2565b600033905090565b60008060009054906101000a900473ffffffffffffffffffffffffffffffffffffffff169050816000806101000a81548173ffffffffffffffffffffffffffffffffffffffff021916908373ffffffffffffffffffffffffffffffffffffffff1602179055508173ffffffffffffffffffffffffffffffffffffffff168173ffffffffffffffffffffffffffffffffffffffff167f8be0079c531659141344cd1fd0a4f28419497f9722a3daafe3b4186f6b6457e060405160405180910390a35050565b600080fd5b6000819050919050565b620001558162000140565b81146200016157600080fd5b50565b60008151905062000175816200014a565b92915050565b600080604083850312156200019557620001946200013b565b5b6000620001a58582860162000164565b9250506020620001b88582860162000164565b9150509250929050565b60805160a0516115dc620002046000396000818161081d0152610a130152600081816103a701528181610b6301528181610c180152610ce301526115dc6000f3fe608060405234801561001057600080fd5b50600436106100b45760003560e01c80638da5cb5b116100715780638da5cb5b146101655780639d2883a114610183578063a95a1a26146101b3578063adce53e1146101cf578063b542671a146101ff578063f2fde38b1461021d576100b4565b80630d4d7f3a146100b95780635eb283c7146100d557806364e89c66146100f35780636f8e142514610123578063715018a61461013f5780638b4c3d7914610149575b600080fd5b6100d360048036038101906100ce9190610f4f565b610239565b005b6100dd6103a5565b6040516100ea9190610fb1565b60405180910390f35b61010d60048036038101906101089190610fcc565b6103c9565b60405161011a9190610fb1565b60405180910390f35b61013d60048036038101906101389190610ff9565b610415565b005b61014761049f565b005b610163600480360381019061015e9190610fcc565b610527565b005b61016d610614565b60405161017a9190611048565b60405180910390f35b61019d60048036038101906101989190610fcc565b61063d565b6040516101aa9190610fb1565b60405180910390f35b6101cd60048036038101906101c8919061111e565b6106d4565b005b6101e960048036038101906101e49190610fcc565b6107c2565b6040516101f691906111ba565b60405180910390f35b61020761081b565b6040516102149190610fb1565b60405180910390f35b61023760048036038101906102329190610fcc565b61083f565b005b610241610936565b73ffffffffffffffffffffffffffffffffffffffff1661025f610614565b73ffffffffffffffffffffffffffffffffffffffff16146102b5576040517f08c379a00000000000000000000000000000000000000000000000000000000081526004016102ac90611232565b60405180910390fd5b6102fc600160008573ffffffffffffffffffffffffffffffffffffffff1673ffffffffffffffffffffffffffffffffffffffff16815260200190815260200160002061093e565b61034d81600160008673ffffffffffffffffffffffffffffffffffffffff1673ffffffffffffffffffffffffffffffffffffffff16815260200190815260200160002061095e90919063ffffffff16565b6103a08242600160008773ffffffffffffffffffffffffffffffffffffffff1673ffffffffffffffffffffffffffffffffffffffff16815260200190815260200160002061096b9092919063ffffffff16565b505050565b7f000000000000000000000000000000000000000000000000000000000000000081565b6000600160008373ffffffffffffffffffffffffffffffffffffffff1673ffffffffffffffffffffffffffffffffffffffff168152602001908152602001600020600101549050919050565b61041d610936565b73ffffffffffffffffffffffffffffffffffffffff1661043b610614565b73ffffffffffffffffffffffffffffffffffffffff1614610491576040517f08c379a000000000000000000000000000000000000000000000000000000000815260040161048890611232565b60405180910390fd5b61049b8282610982565b5050565b6104a7610936565b73ffffffffffffffffffffffffffffffffffffffff166104c5610614565b73ffffffffffffffffffffffffffffffffffffffff161461051b576040517f08c379a000000000000000000000000000000000000000000000000000000000815260040161051290611232565b60405180910390fd5b6105256000610dc0565b565b61052f610936565b73ffffffffffffffffffffffffffffffffffffffff1661054d610614565b73ffffffffffffffffffffffffffffffffffffffff16146105a3576040517f08c379a000000000000000000000000000000000000000000000000000000000815260040161059a90611232565b60405180910390fd5b600160008273ffffffffffffffffffffffffffffffffffffffff1673ffffffffffffffffffffffffffffffffffffffff168152602001908152602001600020600080820160006101000a81549060ff0219169055600182016000905560028201600090556003820160009055505050565b60008060009054906101000a900473ffffffffffffffffffffffffffffffffffffffff16905090565b60006106cd600160008473ffffffffffffffffffffffffffffffffffffffff1673ffffffffffffffffffffffffffffffffffffffff16815260200190815260200160002060010154600160008573ffffffffffffffffffffffffffffffffffffffff1673ffffffffffffffffffffffffffffffffffffffff16815260200190815260200160002060020154610e84565b9050919050565b6106dc610936565b73ffffffffffffffffffffffffffffffffffffffff166106fa610614565b73ffffffffffffffffffffffffffffffffffffffff1614610750576040517f08c379a000000000000000000000000000000000000000000000000000000000815260040161074790611232565b60405180910390fd5b60005b848490508110156107bb576107a885858381811061077457610773611252565b5b90506020020160208101906107899190610fcc565b84848481811061079c5761079b611252565b5b90506020020135610982565b80806107b3906112b0565b915050610753565b5050505050565b6000600160008373ffffffffffffffffffffffffffffffffffffffff1673ffffffffffffffffffffffffffffffffffffffff16815260200190815260200160002060000160009054906101000a900460ff169050919050565b7f000000000000000000000000000000000000000000000000000000000000000081565b610847610936565b73ffffffffffffffffffffffffffffffffffffffff16610865610614565b73ffffffffffffffffffffffffffffffffffffffff16146108bb576040517f08c379a00000000000000000000000000000000000000000000000000000000081526004016108b290611232565b60405180910390fd5b600073ffffffffffffffffffffffffffffffffffffffff168173ffffffffffffffffffffffffffffffffffffffff160361092a576040517f08c379a00000000000000000000000000000000000000000000000000000000081526004016109219061136a565b60405180910390fd5b61093381610dc0565b50565b600033905090565b60018160000160006101000a81548160ff02191690831515021790555050565b8082600201819055505050565b818360010181905550808360030181905550505050565b600160008373ffffffffffffffffffffffffffffffffffffffff1673ffffffffffffffffffffffffffffffffffffffff16815260200190815260200160002060000160009054906101000a900460ff16610a11576040517f08c379a0000000000000000000000000000000000000000000000000000000008152600401610a08906113d6565b60405180910390fd5b7f0000000000000000000000000000000000000000000000000000000000000000600160008473ffffffffffffffffffffffffffffffffffffffff1673ffffffffffffffffffffffffffffffffffffffff1681526020019081526020016000206003015442610a8091906113f6565b11610ac0576040517f08c379a0000000000000000000000000000000000000000000000000000000008152600401610ab790611476565b60405180910390fd5b6000600160008473ffffffffffffffffffffffffffffffffffffffff1673ffffffffffffffffffffffffffffffffffffffff1681526020019081526020016000206001015482600160008673ffffffffffffffffffffffffffffffffffffffff1673ffffffffffffffffffffffffffffffffffffffff16815260200190815260200160002060010154610b5391906113f6565b610b5d91906114c5565b905060007f0000000000000000000000000000000000000000000000000000000000000000821115610d675782600160008673ffffffffffffffffffffffffffffffffffffffff1673ffffffffffffffffffffffffffffffffffffffff168152602001908152602001600020600101541115610c5457600160008573ffffffffffffffffffffffffffffffffffffffff1673ffffffffffffffffffffffffffffffffffffffff168152602001908152602001600020600101547f00000000000000000000000000000000000000000000000000000000000000006001610c4391906113f6565b610c4d91906114f6565b9050610d66565b82600160008673ffffffffffffffffffffffffffffffffffffffff1673ffffffffffffffffffffffffffffffffffffffff168152602001908152602001600020600101541015610d1f57600160008573ffffffffffffffffffffffffffffffffffffffff1673ffffffffffffffffffffffffffffffffffffffff168152602001908152602001600020600101547f00000000000000000000000000000000000000000000000000000000000000006001610d0e9190611550565b610d1891906114f6565b9050610d65565b600160008573ffffffffffffffffffffffffffffffffffffffff1673ffffffffffffffffffffffffffffffffffffffff1681526020019081526020016000206001015490505b5b5b610dba8143600160008873ffffffffffffffffffffffffffffffffffffffff1673ffffffffffffffffffffffffffffffffffffffff16815260200190815260200160002061096b9092919063ffffffff16565b50505050565b60008060009054906101000a900473ffffffffffffffffffffffffffffffffffffffff169050816000806101000a81548173ffffffffffffffffffffffffffffffffffffffff021916908373ffffffffffffffffffffffffffffffffffffffff1602179055508173ffffffffffffffffffffffffffffffffffffffff168173ffffffffffffffffffffffffffffffffffffffff167f8be0079c531659141344cd1fd0a4f28419497f9722a3daafe3b4186f6b6457e060405160405180910390a35050565b6000816113886000190304831115821517610e9e57600080fd5b6127106113888385020104905092915050565b600080fd5b600080fd5b600073ffffffffffffffffffffffffffffffffffffffff82169050919050565b6000610ee682610ebb565b9050919050565b610ef681610edb565b8114610f0157600080fd5b50565b600081359050610f1381610eed565b92915050565b6000819050919050565b610f2c81610f19565b8114610f3757600080fd5b50565b600081359050610f4981610f23565b92915050565b600080600060608486031215610f6857610f67610eb1565b5b6000610f7686828701610f04565b9350506020610f8786828701610f3a565b9250506040610f9886828701610f3a565b9150509250925092565b610fab81610f19565b82525050565b6000602082019050610fc66000830184610fa2565b92915050565b600060208284031215610fe257610fe1610eb1565b5b6000610ff084828501610f04565b91505092915050565b600080604083850312156110105761100f610eb1565b5b600061101e85828601610f04565b925050602061102f85828601610f3a565b9150509250929050565b61104281610edb565b82525050565b600060208201905061105d6000830184611039565b92915050565b600080fd5b600080fd5b600080fd5b60008083601f84011261108857611087611063565b5b8235905067ffffffffffffffff8111156110a5576110a4611068565b5b6020830191508360208202830111156110c1576110c061106d565b5b9250929050565b60008083601f8401126110de576110dd611063565b5b8235905067ffffffffffffffff8111156110fb576110fa611068565b5b6020830191508360208202830111156111175761111661106d565b5b9250929050565b6000806000806040858703121561113857611137610eb1565b5b600085013567ffffffffffffffff81111561115657611155610eb6565b5b61116287828801611072565b9450945050602085013567ffffffffffffffff81111561118557611184610eb6565b5b611191878288016110c8565b925092505092959194509250565b60008115159050919050565b6111b48161119f565b82525050565b60006020820190506111cf60008301846111ab565b92915050565b600082825260208201905092915050565b7f4f776e61626c653a2063616c6c6572206973206e6f7420746865206f776e6572600082015250565b600061121c6020836111d5565b9150611227826111e6565b602082019050919050565b6000602082019050818103600083015261124b8161120f565b9050919050565b7f4e487b7100000000000000000000000000000000000000000000000000000000600052603260045260246000fd5b7f4e487b7100000000000000000000000000000000000000000000000000000000600052601160045260246000fd5b60006112bb82610f19565b91507fffffffffffffffffffffffffffffffffffffffffffffffffffffffffffffffff82036112ed576112ec611281565b5b600182019050919050565b7f4f776e61626c653a206e6577206f776e657220697320746865207a65726f206160008201527f6464726573730000000000000000000000000000000000000000000000000000602082015250565b60006113546026836111d5565b915061135f826112f8565b604082019050919050565b6000602082019050818103600083015261138381611347565b9050919050565b7f556e737570706f7274656420436f6c6c656374696f6e00000000000000000000600082015250565b60006113c06016836111d5565b91506113cb8261138a565b602082019050919050565b600060208201905081810360008301526113ef816113b3565b9050919050565b600061140182610f19565b915061140c83610f19565b92508282101561141f5761141e611281565b5b828203905092915050565b7f5570646174696e672074696d6520746f6f2073686f7274000000000000000000600082015250565b60006114606017836111d5565b915061146b8261142a565b602082019050919050565b6000602082019050818103600083015261148f81611453565b9050919050565b7f4e487b7100000000000000000000000000000000000000000000000000000000600052601260045260246000fd5b60006114d082610f19565b91506114db83610f19565b9250826114eb576114ea611496565b5b828204905092915050565b600061150182610f19565b915061150c83610f19565b9250817fffffffffffffffffffffffffffffffffffffffffffffffffffffffffffffffff048311821515161561154557611544611281565b5b828202905092915050565b600061155b82610f19565b915061156683610f19565b9250827fffffffffffffffffffffffffffffffffffffffffffffffffffffffffffffffff0382111561159b5761159a611281565b5b82820190509291505056fea2646970667358221220788ed69626e84ea24d55788ac4c5385130f414ba4962773ef72432a6ba617cc964736f6c634300080f0033",
  "linkReferences": {},
  "deployedLinkReferences": {}
}