{
  "_format": "hh-sol-artifact-1",
  "contractName": "NFTOracle",
  "sourceName": "contracts/protocol/NFTOracle.sol",
  "abi": [
    {
      "inputs": [
        {
          "internalType": "uint256",
          "name": "maxPriceDeviation",
          "type": "uint256"
        },
        {
          "internalType": "uint256",
          "name": "minUpdateTime",
          "type": "uint256"
        }
      ],
      "stateMutability": "nonpayable",
      "type": "constructor"
    },
    {
      "anonymous": false,
      "inputs": [
        {
          "indexed": true,
          "internalType": "address",
          "name": "previousOwner",
          "type": "address"
        },
        {
          "indexed": true,
          "internalType": "address",
          "name": "newOwner",
          "type": "address"
        }
      ],
      "name": "OwnershipTransferred",
      "type": "event"
    },
    {
      "inputs": [],
      "name": "_maxPriceDeviation",
      "outputs": [
        {
          "internalType": "uint256",
          "name": "",
          "type": "uint256"
        }
      ],
      "stateMutability": "view",
      "type": "function"
    },
    {
      "inputs": [],
      "name": "_minUpdateTime",
      "outputs": [
        {
          "internalType": "uint256",
          "name": "",
          "type": "uint256"
        }
      ],
      "stateMutability": "view",
      "type": "function"
    },
    {
      "inputs": [
        {
          "internalType": "address",
          "name": "collection",
          "type": "address"
        },
        {
          "internalType": "uint256",
          "name": "floorPrice",
          "type": "uint256"
        }
      ],
      "name": "addFloorPriceData",
      "outputs": [],
      "stateMutability": "nonpayable",
      "type": "function"
    },
    {
      "inputs": [
        {
          "internalType": "address",
          "name": "collection",
          "type": "address"
        },
        {
          "internalType": "uint256",
          "name": "floorPrice",
          "type": "uint256"
        },
        {
          "internalType": "uint256",
          "name": "maxCollaterization",
          "type": "uint256"
        }
      ],
      "name": "addSupportedCollection",
      "outputs": [],
      "stateMutability": "nonpayable",
      "type": "function"
    },
    {
      "inputs": [
        {
          "internalType": "address[]",
          "name": "collection",
          "type": "address[]"
        },
        {
          "internalType": "uint256[]",
          "name": "floorPrice",
          "type": "uint256[]"
        }
      ],
      "name": "batchAddFloorPriceData",
      "outputs": [],
      "stateMutability": "nonpayable",
      "type": "function"
    },
    {
      "inputs": [
        {
          "internalType": "address",
          "name": "collection",
          "type": "address"
        }
      ],
      "name": "getCollectionFloorPrice",
      "outputs": [
        {
          "internalType": "uint256",
          "name": "",
          "type": "uint256"
        }
      ],
      "stateMutability": "view",
      "type": "function"
    },
    {
      "inputs": [
        {
          "internalType": "address",
          "name": "collection",
          "type": "address"
        }
      ],
      "name": "getCollectionMaxCollateral",
      "outputs": [
        {
          "internalType": "uint256",
          "name": "",
          "type": "uint256"
        }
      ],
      "stateMutability": "view",
      "type": "function"
    },
    {
      "inputs": [
        {
          "internalType": "address",
          "name": "collection",
          "type": "address"
        }
      ],
      "name": "isCollectionSupported",
      "outputs": [
        {
          "internalType": "bool",
          "name": "",
          "type": "bool"
        }
      ],
      "stateMutability": "view",
      "type": "function"
    },
    {
      "inputs": [],
      "name": "owner",
      "outputs": [
        {
          "internalType": "address",
          "name": "",
          "type": "address"
        }
      ],
      "stateMutability": "view",
      "type": "function"
    },
    {
      "inputs": [
        {
          "internalType": "address",
          "name": "collection",
          "type": "address"
        }
      ],
      "name": "removeSupportedCollection",
      "outputs": [],
      "stateMutability": "nonpayable",
      "type": "function"
    },
    {
      "inputs": [],
      "name": "renounceOwnership",
      "outputs": [],
      "stateMutability": "nonpayable",
      "type": "function"
    },
    {
      "inputs": [
        {
          "internalType": "address",
          "name": "newOwner",
          "type": "address"
        }
      ],
      "name": "transferOwnership",
      "outputs": [],
      "stateMutability": "nonpayable",
      "type": "function"
    }
  ],
  "bytecode": "0x60c06040523480156200001157600080fd5b50604051620017ee380380620017ee83398181016040528101906200003791906200017b565b620000576200004b6200006f60201b60201c565b6200007760201b60201c565b81608081815250508060a081815250505050620001c2565b600033905090565b60008060009054906101000a900473ffffffffffffffffffffffffffffffffffffffff169050816000806101000a81548173ffffffffffffffffffffffffffffffffffffffff021916908373ffffffffffffffffffffffffffffffffffffffff1602179055508173ffffffffffffffffffffffffffffffffffffffff168173ffffffffffffffffffffffffffffffffffffffff167f8be0079c531659141344cd1fd0a4f28419497f9722a3daafe3b4186f6b6457e060405160405180910390a35050565b600080fd5b6000819050919050565b620001558162000140565b81146200016157600080fd5b50565b60008151905062000175816200014a565b92915050565b600080604083850312156200019557620001946200013b565b5b6000620001a58582860162000164565b9250506020620001b88582860162000164565b9150509250929050565b60805160a0516115ea62000204600039600081816106b101526109cf01526000818161029401528181610b2f01528181610be70152610cb101526115ea6000f3fe608060405234801561001057600080fd5b50600436106100b45760003560e01c80638da5cb5b116100715780638da5cb5b146101795780639d2883a114610197578063a95a1a26146101c7578063b542671a146101e3578063b748297014610201578063f2fde38b1461021d576100b4565b8063497b4ce5146100b95780635eb283c7146100e95780636f8e142514610107578063715018a6146101235780638385e8971461012d5780638504817914610149575b600080fd5b6100d360048036038101906100ce9190610f27565b610239565b6040516100e09190610f6f565b60405180910390f35b6100f1610292565b6040516100fe9190610fa3565b60405180910390f35b610121600480360381019061011c9190610fea565b6102b6565b005b61012b610340565b005b61014760048036038101906101429190610f27565b6103c8565b005b610163600480360381019061015e9190610f27565b6104b5565b6040516101709190610fa3565b60405180910390f35b610181610501565b60405161018e9190611039565b60405180910390f35b6101b160048036038101906101ac9190610f27565b61052a565b6040516101be9190610fa3565b60405180910390f35b6101e160048036038101906101dc919061110f565b6105c1565b005b6101eb6106af565b6040516101f89190610fa3565b60405180910390f35b61021b60048036038101906102169190611190565b6106d3565b005b61023760048036038101906102329190610f27565b61083f565b005b6000600160008373ffffffffffffffffffffffffffffffffffffffff1673ffffffffffffffffffffffffffffffffffffffff16815260200190815260200160002060000160009054906101000a900460ff169050919050565b7f000000000000000000000000000000000000000000000000000000000000000081565b6102be610936565b73ffffffffffffffffffffffffffffffffffffffff166102dc610501565b73ffffffffffffffffffffffffffffffffffffffff1614610332576040517f08c379a000000000000000000000000000000000000000000000000000000000815260040161032990611240565b60405180910390fd5b61033c828261093e565b5050565b610348610936565b73ffffffffffffffffffffffffffffffffffffffff16610366610501565b73ffffffffffffffffffffffffffffffffffffffff16146103bc576040517f08c379a00000000000000000000000000000000000000000000000000000000081526004016103b390611240565b60405180910390fd5b6103c66000610d8a565b565b6103d0610936565b73ffffffffffffffffffffffffffffffffffffffff166103ee610501565b73ffffffffffffffffffffffffffffffffffffffff1614610444576040517f08c379a000000000000000000000000000000000000000000000000000000000815260040161043b90611240565b60405180910390fd5b600160008273ffffffffffffffffffffffffffffffffffffffff1673ffffffffffffffffffffffffffffffffffffffff168152602001908152602001600020600080820160006101000a81549060ff0219169055600182016000905560028201600090556003820160009055505050565b6000600160008373ffffffffffffffffffffffffffffffffffffffff1673ffffffffffffffffffffffffffffffffffffffff168152602001908152602001600020600101549050919050565b60008060009054906101000a900473ffffffffffffffffffffffffffffffffffffffff16905090565b60006105ba600160008473ffffffffffffffffffffffffffffffffffffffff1673ffffffffffffffffffffffffffffffffffffffff16815260200190815260200160002060010154600160008573ffffffffffffffffffffffffffffffffffffffff1673ffffffffffffffffffffffffffffffffffffffff16815260200190815260200160002060020154610e4e565b9050919050565b6105c9610936565b73ffffffffffffffffffffffffffffffffffffffff166105e7610501565b73ffffffffffffffffffffffffffffffffffffffff161461063d576040517f08c379a000000000000000000000000000000000000000000000000000000000815260040161063490611240565b60405180910390fd5b60005b848490508110156106a85761069585858381811061066157610660611260565b5b90506020020160208101906106769190610f27565b84848481811061068957610688611260565b5b9050602002013561093e565b80806106a0906112be565b915050610640565b5050505050565b7f000000000000000000000000000000000000000000000000000000000000000081565b6106db610936565b73ffffffffffffffffffffffffffffffffffffffff166106f9610501565b73ffffffffffffffffffffffffffffffffffffffff161461074f576040517f08c379a000000000000000000000000000000000000000000000000000000000815260040161074690611240565b60405180910390fd5b610796600160008573ffffffffffffffffffffffffffffffffffffffff1673ffffffffffffffffffffffffffffffffffffffff168152602001908152602001600020610e7b565b6107e781600160008673ffffffffffffffffffffffffffffffffffffffff1673ffffffffffffffffffffffffffffffffffffffff168152602001908152602001600020610e9b90919063ffffffff16565b61083a8242600160008773ffffffffffffffffffffffffffffffffffffffff1673ffffffffffffffffffffffffffffffffffffffff168152602001908152602001600020610ea89092919063ffffffff16565b505050565b610847610936565b73ffffffffffffffffffffffffffffffffffffffff16610865610501565b73ffffffffffffffffffffffffffffffffffffffff16146108bb576040517f08c379a00000000000000000000000000000000000000000000000000000000081526004016108b290611240565b60405180910390fd5b600073ffffffffffffffffffffffffffffffffffffffff168173ffffffffffffffffffffffffffffffffffffffff160361092a576040517f08c379a000000000000000000000000000000000000000000000000000000000815260040161092190611378565b60405180910390fd5b61093381610d8a565b50565b600033905090565b600160008373ffffffffffffffffffffffffffffffffffffffff1673ffffffffffffffffffffffffffffffffffffffff16815260200190815260200160002060000160009054906101000a900460ff166109cd576040517f08c379a00000000000000000000000000000000000000000000000000000000081526004016109c4906113e4565b60405180910390fd5b7f0000000000000000000000000000000000000000000000000000000000000000600160008473ffffffffffffffffffffffffffffffffffffffff1673ffffffffffffffffffffffffffffffffffffffff1681526020019081526020016000206003015442610a3c9190611404565b11610a7c576040517f08c379a0000000000000000000000000000000000000000000000000000000008152600401610a7390611484565b60405180910390fd5b60008190506000600160008573ffffffffffffffffffffffffffffffffffffffff1673ffffffffffffffffffffffffffffffffffffffff1681526020019081526020016000206001015483600160008773ffffffffffffffffffffffffffffffffffffffff1673ffffffffffffffffffffffffffffffffffffffff16815260200190815260200160002060010154610b149190611404565b612710610b2191906114a4565b610b2b919061152d565b90507f0000000000000000000000000000000000000000000000000000000000000000811115610d315782600160008673ffffffffffffffffffffffffffffffffffffffff1673ffffffffffffffffffffffffffffffffffffffff168152602001908152602001600020600101541115610c1f57610c18600160008673ffffffffffffffffffffffffffffffffffffffff1673ffffffffffffffffffffffffffffffffffffffff168152602001908152602001600020600101547f0000000000000000000000000000000000000000000000000000000000000000612710610c139190611404565b610e4e565b9150610d30565b82600160008673ffffffffffffffffffffffffffffffffffffffff1673ffffffffffffffffffffffffffffffffffffffff168152602001908152602001600020600101541015610ce957610ce2600160008673ffffffffffffffffffffffffffffffffffffffff1673ffffffffffffffffffffffffffffffffffffffff168152602001908152602001600020600101547f0000000000000000000000000000000000000000000000000000000000000000612710610cdd919061155e565b610e4e565b9150610d2f565b600160008573ffffffffffffffffffffffffffffffffffffffff1673ffffffffffffffffffffffffffffffffffffffff1681526020019081526020016000206001015491505b5b5b610d848243600160008873ffffffffffffffffffffffffffffffffffffffff1673ffffffffffffffffffffffffffffffffffffffff168152602001908152602001600020610ea89092919063ffffffff16565b50505050565b60008060009054906101000a900473ffffffffffffffffffffffffffffffffffffffff169050816000806101000a81548173ffffffffffffffffffffffffffffffffffffffff021916908373ffffffffffffffffffffffffffffffffffffffff1602179055508173ffffffffffffffffffffffffffffffffffffffff168173ffffffffffffffffffffffffffffffffffffffff167f8be0079c531659141344cd1fd0a4f28419497f9722a3daafe3b4186f6b6457e060405160405180910390a35050565b6000816113886000190304831115821517610e6857600080fd5b6127106113888385020104905092915050565b60018160000160006101000a81548160ff02191690831515021790555050565b8082600201819055505050565b818360010181905550808360030181905550505050565b600080fd5b600080fd5b600073ffffffffffffffffffffffffffffffffffffffff82169050919050565b6000610ef482610ec9565b9050919050565b610f0481610ee9565b8114610f0f57600080fd5b50565b600081359050610f2181610efb565b92915050565b600060208284031215610f3d57610f3c610ebf565b5b6000610f4b84828501610f12565b91505092915050565b60008115159050919050565b610f6981610f54565b82525050565b6000602082019050610f846000830184610f60565b92915050565b6000819050919050565b610f9d81610f8a565b82525050565b6000602082019050610fb86000830184610f94565b92915050565b610fc781610f8a565b8114610fd257600080fd5b50565b600081359050610fe481610fbe565b92915050565b6000806040838503121561100157611000610ebf565b5b600061100f85828601610f12565b925050602061102085828601610fd5565b9150509250929050565b61103381610ee9565b82525050565b600060208201905061104e600083018461102a565b92915050565b600080fd5b600080fd5b600080fd5b60008083601f84011261107957611078611054565b5b8235905067ffffffffffffffff81111561109657611095611059565b5b6020830191508360208202830111156110b2576110b161105e565b5b9250929050565b60008083601f8401126110cf576110ce611054565b5b8235905067ffffffffffffffff8111156110ec576110eb611059565b5b6020830191508360208202830111156111085761110761105e565b5b9250929050565b6000806000806040858703121561112957611128610ebf565b5b600085013567ffffffffffffffff81111561114757611146610ec4565b5b61115387828801611063565b9450945050602085013567ffffffffffffffff81111561117657611175610ec4565b5b611182878288016110b9565b925092505092959194509250565b6000806000606084860312156111a9576111a8610ebf565b5b60006111b786828701610f12565b93505060206111c886828701610fd5565b92505060406111d986828701610fd5565b9150509250925092565b600082825260208201905092915050565b7f4f776e61626c653a2063616c6c6572206973206e6f7420746865206f776e6572600082015250565b600061122a6020836111e3565b9150611235826111f4565b602082019050919050565b600060208201905081810360008301526112598161121d565b9050919050565b7f4e487b7100000000000000000000000000000000000000000000000000000000600052603260045260246000fd5b7f4e487b7100000000000000000000000000000000000000000000000000000000600052601160045260246000fd5b60006112c982610f8a565b91507fffffffffffffffffffffffffffffffffffffffffffffffffffffffffffffffff82036112fb576112fa61128f565b5b600182019050919050565b7f4f776e61626c653a206e6577206f776e657220697320746865207a65726f206160008201527f6464726573730000000000000000000000000000000000000000000000000000602082015250565b60006113626026836111e3565b915061136d82611306565b604082019050919050565b6000602082019050818103600083015261139181611355565b9050919050565b7f556e737570706f7274656420436f6c6c656374696f6e00000000000000000000600082015250565b60006113ce6016836111e3565b91506113d982611398565b602082019050919050565b600060208201905081810360008301526113fd816113c1565b9050919050565b600061140f82610f8a565b915061141a83610f8a565b92508282101561142d5761142c61128f565b5b828203905092915050565b7f5570646174696e672074696d6520746f6f2073686f7274000000000000000000600082015250565b600061146e6017836111e3565b915061147982611438565b602082019050919050565b6000602082019050818103600083015261149d81611461565b9050919050565b60006114af82610f8a565b91506114ba83610f8a565b9250817fffffffffffffffffffffffffffffffffffffffffffffffffffffffffffffffff04831182151516156114f3576114f261128f565b5b828202905092915050565b7f4e487b7100000000000000000000000000000000000000000000000000000000600052601260045260246000fd5b600061153882610f8a565b915061154383610f8a565b925082611553576115526114fe565b5b828204905092915050565b600061156982610f8a565b915061157483610f8a565b9250827fffffffffffffffffffffffffffffffffffffffffffffffffffffffffffffffff038211156115a9576115a861128f565b5b82820190509291505056fea26469706673582212200c01618c36239faa919cfd01307cbecec13a0d529f0ab4dea173e2e4cf42e8a364736f6c634300080f0033",
  "linkReferences": {},
  "deployedLinkReferences": {}
}