{
  "_format": "hh-sol-artifact-1",
  "contractName": "NFTOracle",
  "sourceName": "contracts/protocol/Lending/NFTOracle.sol",
  "abi": [
    {
      "inputs": [
        {
          "internalType": "contract IAddressesProvider",
          "name": "addressProvider",
          "type": "address"
        }
      ],
      "stateMutability": "nonpayable",
      "type": "constructor"
    },
    {
      "anonymous": false,
      "inputs": [
        {
          "indexed": true,
          "internalType": "address",
          "name": "previousOwner",
          "type": "address"
        },
        {
          "indexed": true,
          "internalType": "address",
          "name": "newOwner",
          "type": "address"
        }
      ],
      "name": "OwnershipTransferred",
      "type": "event"
    },
    {
      "inputs": [],
      "name": "DOMAIN_SEPARATOR",
      "outputs": [
        {
          "internalType": "bytes32",
          "name": "",
          "type": "bytes32"
        }
      ],
      "stateMutability": "view",
      "type": "function"
    },
    {
      "inputs": [
        {
          "internalType": "address",
          "name": "collection",
          "type": "address"
        },
        {
          "internalType": "uint256[]",
          "name": "tokenIds",
          "type": "uint256[]"
        },
        {
          "internalType": "bytes32",
          "name": "request",
          "type": "bytes32"
        },
        {
          "components": [
            {
              "internalType": "uint8",
              "name": "v",
              "type": "uint8"
            },
            {
              "internalType": "bytes32",
              "name": "r",
              "type": "bytes32"
            },
            {
              "internalType": "bytes32",
              "name": "s",
              "type": "bytes32"
            },
            {
              "internalType": "bytes32",
              "name": "request",
              "type": "bytes32"
            },
            {
              "internalType": "uint256",
              "name": "deadline",
              "type": "uint256"
            },
            {
              "internalType": "bytes",
              "name": "payload",
              "type": "bytes"
            }
          ],
          "internalType": "struct Trustus.TrustusPacket",
          "name": "packet",
          "type": "tuple"
        }
      ],
      "name": "getTokensETHPrice",
      "outputs": [
        {
          "internalType": "uint256",
          "name": "",
          "type": "uint256"
        }
      ],
      "stateMutability": "view",
      "type": "function"
    },
    {
      "inputs": [
        {
          "internalType": "address",
          "name": "signer",
          "type": "address"
        }
      ],
      "name": "isTrustedSigner",
      "outputs": [
        {
          "internalType": "bool",
          "name": "",
          "type": "bool"
        }
      ],
      "stateMutability": "view",
      "type": "function"
    },
    {
      "inputs": [],
      "name": "owner",
      "outputs": [
        {
          "internalType": "address",
          "name": "",
          "type": "address"
        }
      ],
      "stateMutability": "view",
      "type": "function"
    },
    {
      "inputs": [],
      "name": "renounceOwnership",
      "outputs": [],
      "stateMutability": "nonpayable",
      "type": "function"
    },
    {
      "inputs": [
        {
          "internalType": "address",
          "name": "signer",
          "type": "address"
        },
        {
          "internalType": "bool",
          "name": "isTrusted_",
          "type": "bool"
        }
      ],
      "name": "setTrustedPriceSigner",
      "outputs": [],
      "stateMutability": "nonpayable",
      "type": "function"
    },
    {
      "inputs": [
        {
          "internalType": "address",
          "name": "newOwner",
          "type": "address"
        }
      ],
      "name": "transferOwnership",
      "outputs": [],
      "stateMutability": "nonpayable",
      "type": "function"
    }
  ],
  "bytecode": "0x60a03461015e576001600160401b0390601f610ba638819003918201601f1916830191848311848410176101635780849260209460405283398101031261015e57516001600160a01b03808216820361015e5760008054336001600160a01b031982168117835560405192939091167f8be0079c531659141344cd1fd0a4f28419497f9722a3daafe3b4186f6b6457e08480a34660015560208101917f8b73c3c69bb8fe3d512ecc4cf759cc79239f7b179b0ffacaa9a75d522b39400f83527f118e7890157efb533a050dce8fe5a02b428bdf432762e2e91914807054e2d96560408301527fc89efdaa54c0f20c7adf612882df0950f5a951637e0307cdcb4c672f298b8bc660608301524660808301523060a083015260a0825260c08201948286109086111761014a575083604052519020600255608052610a2c908161017a8239608051815050f35b634e487b7160e01b81526041600452602490fd5b600080fd5b634e487b7160e01b600052604160045260246000fdfe6080604052600436101561001257600080fd5b60003560e01c80633644e515146107af578063715018a6146107565780638da5cb5b1461072d578063c1351318146101cc578063d3d921271461018d578063db28c260146101375763f2fde38b1461006957600080fd5b34610132576020366003190112610132576100826107d2565b61008a610871565b6001600160a01b039081169081156100de57600054826bffffffffffffffffffffffff60a01b821617600055167f8be0079c531659141344cd1fd0a4f28419497f9722a3daafe3b4186f6b6457e0600080a3005b60405162461bcd60e51b815260206004820152602660248201527f4f776e61626c653a206e6577206f776e657220697320746865207a65726f206160448201526564647265737360d01b6064820152608490fd5b600080fd5b34610132576040366003190112610132576101506107d2565b6024359081151580920361013257610166610871565b60018060a01b0316600052600360205260406000209060ff80198354169116179055600080f35b34610132576020366003190112610132576001600160a01b036101ae6107d2565b166000526003602052602060ff604060002054166040519015158152f35b3461013257600319608036820112610132576101e66107d2565b60243567ffffffffffffffff81116101325761020690369060040161080a565b9167ffffffffffffffff606435116101325760c0906064353603011261013257608460643501354210156106e857606480350135604435036106a35761024a610926565b9161025f60a4606435016064356004016108c9565b67ffffffffffffffff81116106235760405190610286601f8201601f1916602001836107e8565b80825236818401116101325760208160009282850195863783010152519020926040519360208501907ffc7ecbf4f091085173dad8d1d3c2dfd218c018596a572201cd849763d1114e7a8252606480350135604087015260846064350135606087015260808601526080855260a085019085821067ffffffffffffffff83111761062357816040528551902060c086019261190160f01b845260c287015260e2860152604281528061012086011067ffffffffffffffff610120870111176106235761012085016040525190206064356004013560ff811681036101325760ff916101208601521661014084015260246064350135610160840152604460643501356101808401526000805260206000608061012060019601865afa15610697576000516001600160a01b0392908316801515908161067e575b5015610639576103da60a4606435016064356004016108c9565b810191906020818403126101325780359067ffffffffffffffff821161013257019360608584031261013257604051926060840184811067ffffffffffffffff8211176106235760405285358281168103610132578452602086013567ffffffffffffffff811161013257829161045291880161080a565b93602081019485526040808201970135875251169116036105c55781518151510361054a57600091845b61048d575b60208451604051908152f35b8051831015610545576104a083826108fc565b516104ac8484516108fc565b51036104db5760001983146104c557848093019261047c565b634e487b7160e01b600052601160045260246000fd5b608460405162461bcd60e51b815260206004820152604060248201527f5265717565737420746f6b656e49647320616e642066756e6374696f6e20706160448201527f72616d657465727320746f6b656e49647320646f6e277420636f696e636964656064820152fd5b610481565b60405162461bcd60e51b815260206004820152604760248201527f5265717565737420746f6b656e49647320616e642066756e6374696f6e20706160448201527f72616d657465727320746f6b656e496473206861766520646966666572656e74606482015266040d8cadccee8d60cb1b608482015260a490fd5b60405162461bcd60e51b815260206004820152603060248201527f5265717565737420636f6c6c656374696f6e20616e6420636f6c6c656374696f60448201526f6e20646f6e277420636f696e6369646560801b6064820152608490fd5b634e487b7160e01b600052604160045260246000fd5b60405162461bcd60e51b815260206004820152601c60248201527f5265636f7665726564206164647265737320697320696e76616c6964000000006044820152606490fd5b9050600052600360205260ff60406000205416856103c0565b6040513d6000823e3d90fd5b60405162461bcd60e51b815260206004820152601c60248201527f52657175657374206e756d62657220646f65736e2774206d61746368000000006044820152606490fd5b60405162461bcd60e51b815260206004820152601b60248201527f5061636b65742074696d657374616d7020697320696e76616c696400000000006044820152606490fd5b34610132576000366003190112610132576000546040516001600160a01b039091168152602090f35b346101325760003660031901126101325761076f610871565b600080546001600160a01b0319811682556001600160a01b03167f8be0079c531659141344cd1fd0a4f28419497f9722a3daafe3b4186f6b6457e08280a3005b346101325760003660031901126101325760206107ca610926565b604051908152f35b600435906001600160a01b038216820361013257565b90601f8019910116810190811067ffffffffffffffff82111761062357604052565b9080601f830112156101325781359067ffffffffffffffff8211610623578160051b6040519360209361083f858401876107e8565b85528380860192820101928311610132578301905b828210610862575050505090565b81358152908301908301610854565b6000546001600160a01b0316330361088557565b606460405162461bcd60e51b815260206004820152602060248201527f4f776e61626c653a2063616c6c6572206973206e6f7420746865206f776e65726044820152fd5b903590601e1981360301821215610132570180359067ffffffffffffffff82116101325760200191813603831361013257565b80518210156109105760209160051b010190565b634e487b7160e01b600052603260045260246000fd5b6001546000904603610939575060025490565b60405160208101917f8b73c3c69bb8fe3d512ecc4cf759cc79239f7b179b0ffacaa9a75d522b39400f83527f118e7890157efb533a050dce8fe5a02b428bdf432762e2e91914807054e2d96560408301527fc89efdaa54c0f20c7adf612882df0950f5a951637e0307cdcb4c672f298b8bc660608301524660808301523060a083015260a0825260c082019082821067ffffffffffffffff8311176109e2575060405251902090565b634e487b7160e01b81526041600452602490fdfea26469706673582212200b3efe4e3907ad1c993dce24c6202a2d8cc78a3a0bb7d2e106e5a8210e022fe064736f6c63430008130033",
  "linkReferences": {},
  "deployedLinkReferences": {}
}