{
  "_format": "hh-sol-artifact-1",
  "contractName": "NFTOracle",
  "sourceName": "contracts/protocol/NFTOracle.sol",
  "abi": [
    {
      "inputs": [
        {
          "internalType": "contract IMarketAddressesProvider",
          "name": "addressProvider",
          "type": "address"
        },
        {
          "internalType": "uint256",
          "name": "maxPriceDeviation",
          "type": "uint256"
        },
        {
          "internalType": "uint256",
          "name": "minUpdateTime",
          "type": "uint256"
        }
      ],
      "stateMutability": "nonpayable",
      "type": "constructor"
    },
    {
      "anonymous": false,
      "inputs": [
        {
          "indexed": true,
          "internalType": "address",
          "name": "previousOwner",
          "type": "address"
        },
        {
          "indexed": true,
          "internalType": "address",
          "name": "newOwner",
          "type": "address"
        }
      ],
      "name": "OwnershipTransferred",
      "type": "event"
    },
    {
      "inputs": [],
      "name": "_maxPriceDeviation",
      "outputs": [
        {
          "internalType": "uint256",
          "name": "",
          "type": "uint256"
        }
      ],
      "stateMutability": "view",
      "type": "function"
    },
    {
      "inputs": [],
      "name": "_minUpdateTime",
      "outputs": [
        {
          "internalType": "uint256",
          "name": "",
          "type": "uint256"
        }
      ],
      "stateMutability": "view",
      "type": "function"
    },
    {
      "inputs": [
        {
          "internalType": "address",
          "name": "collection",
          "type": "address"
        },
        {
          "internalType": "uint256",
          "name": "floorPrice",
          "type": "uint256"
        }
      ],
      "name": "addFloorPriceData",
      "outputs": [],
      "stateMutability": "nonpayable",
      "type": "function"
    },
    {
      "inputs": [
        {
          "internalType": "address",
          "name": "collection",
          "type": "address"
        },
        {
          "internalType": "uint256",
          "name": "floorPrice",
          "type": "uint256"
        },
        {
          "internalType": "uint256",
          "name": "maxCollaterization",
          "type": "uint256"
        }
      ],
      "name": "addSupportedCollection",
      "outputs": [],
      "stateMutability": "nonpayable",
      "type": "function"
    },
    {
      "inputs": [
        {
          "internalType": "address[]",
          "name": "collection",
          "type": "address[]"
        },
        {
          "internalType": "uint256[]",
          "name": "floorPrice",
          "type": "uint256[]"
        }
      ],
      "name": "batchAddFloorPriceData",
      "outputs": [],
      "stateMutability": "nonpayable",
      "type": "function"
    },
    {
      "inputs": [
        {
          "internalType": "address",
          "name": "collection",
          "type": "address"
        }
      ],
      "name": "getCollectionFloorPrice",
      "outputs": [
        {
          "internalType": "uint256",
          "name": "",
          "type": "uint256"
        }
      ],
      "stateMutability": "view",
      "type": "function"
    },
    {
      "inputs": [
        {
          "internalType": "address",
          "name": "collection",
          "type": "address"
        }
      ],
      "name": "getCollectionMaxCollaterization",
      "outputs": [
        {
          "internalType": "uint256",
          "name": "",
          "type": "uint256"
        }
      ],
      "stateMutability": "view",
      "type": "function"
    },
    {
      "inputs": [
        {
          "internalType": "address",
          "name": "user",
          "type": "address"
        },
        {
          "internalType": "address",
          "name": "collection",
          "type": "address"
        }
      ],
      "name": "getMaxCollateral",
      "outputs": [
        {
          "internalType": "uint256",
          "name": "",
          "type": "uint256"
        }
      ],
      "stateMutability": "view",
      "type": "function"
    },
    {
      "inputs": [
        {
          "internalType": "address",
          "name": "collection",
          "type": "address"
        }
      ],
      "name": "isCollectionSupported",
      "outputs": [
        {
          "internalType": "bool",
          "name": "",
          "type": "bool"
        }
      ],
      "stateMutability": "view",
      "type": "function"
    },
    {
      "inputs": [],
      "name": "owner",
      "outputs": [
        {
          "internalType": "address",
          "name": "",
          "type": "address"
        }
      ],
      "stateMutability": "view",
      "type": "function"
    },
    {
      "inputs": [
        {
          "internalType": "address",
          "name": "collection",
          "type": "address"
        }
      ],
      "name": "removeSupportedCollection",
      "outputs": [],
      "stateMutability": "nonpayable",
      "type": "function"
    },
    {
      "inputs": [],
      "name": "renounceOwnership",
      "outputs": [],
      "stateMutability": "nonpayable",
      "type": "function"
    },
    {
      "inputs": [
        {
          "internalType": "address",
          "name": "newOwner",
          "type": "address"
        }
      ],
      "name": "transferOwnership",
      "outputs": [],
      "stateMutability": "nonpayable",
      "type": "function"
    }
  ],
  "bytecode": "0x60c06040523480156200001157600080fd5b5060405162001b5e38038062001b5e833981810160405281019062000037919062000236565b620000576200004b620000b160201b60201c565b620000b960201b60201c565b82600260006101000a81548173ffffffffffffffffffffffffffffffffffffffff021916908373ffffffffffffffffffffffffffffffffffffffff16021790555081608081815250508060a0818152505050505062000292565b600033905090565b60008060009054906101000a900473ffffffffffffffffffffffffffffffffffffffff169050816000806101000a81548173ffffffffffffffffffffffffffffffffffffffff021916908373ffffffffffffffffffffffffffffffffffffffff1602179055508173ffffffffffffffffffffffffffffffffffffffff168173ffffffffffffffffffffffffffffffffffffffff167f8be0079c531659141344cd1fd0a4f28419497f9722a3daafe3b4186f6b6457e060405160405180910390a35050565b600080fd5b600073ffffffffffffffffffffffffffffffffffffffff82169050919050565b6000620001af8262000182565b9050919050565b6000620001c382620001a2565b9050919050565b620001d581620001b6565b8114620001e157600080fd5b50565b600081519050620001f581620001ca565b92915050565b6000819050919050565b6200021081620001fb565b81146200021c57600080fd5b50565b600081519050620002308162000205565b92915050565b6000806000606084860312156200025257620002516200017d565b5b60006200026286828701620001e4565b935050602062000275868287016200021f565b925050604062000288868287016200021f565b9150509250925092565b60805160a05161188a620002d4600039600081816108640152610baf01526000818161049201528181610d0f01528181610dc70152610e91015261188a6000f3fe608060405234801561001057600080fd5b50600436106100cf5760003560e01c8063850481791161008c578063a95a1a2611610066578063a95a1a2614610212578063b542671a1461022e578063b74829701461024c578063f2fde38b14610268576100cf565b806385048179146101945780638da5cb5b146101c457806394eb3254146101e2576100cf565b80632b6e6581146100d4578063497b4ce5146101045780635eb283c7146101345780636f8e142514610152578063715018a61461016e5780638385e89714610178575b600080fd5b6100ee60048036038101906100e991906110da565b610284565b6040516100fb9190611133565b60405180910390f35b61011e6004803603810190610119919061114e565b610437565b60405161012b9190611196565b60405180910390f35b61013c610490565b6040516101499190611133565b60405180910390f35b61016c600480360381019061016791906111dd565b6104b4565b005b61017661053e565b005b610192600480360381019061018d919061114e565b6105c6565b005b6101ae60048036038101906101a9919061114e565b6106b3565b6040516101bb9190611133565b60405180910390f35b6101cc6106ff565b6040516101d9919061122c565b60405180910390f35b6101fc60048036038101906101f7919061114e565b610728565b6040516102099190611133565b60405180910390f35b61022c60048036038101906102279190611302565b610774565b005b610236610862565b6040516102439190611133565b60405180910390f35b61026660048036038101906102619190611383565b610886565b005b610282600480360381019061027d919061114e565b6109f2565b005b600080600260009054906101000a900473ffffffffffffffffffffffffffffffffffffffff1673ffffffffffffffffffffffffffffffffffffffff16639cbec2566040518163ffffffff1660e01b8152600401602060405180830381865afa1580156102f4573d6000803e3d6000fd5b505050506040513d601f19601f8201168201806040525081019061031891906113eb565b73ffffffffffffffffffffffffffffffffffffffff1663b8ab1bdc85856040518363ffffffff1660e01b8152600401610352929190611418565b602060405180830381865afa15801561036f573d6000803e3d6000fd5b505050506040513d601f19601f820116820180604052508101906103939190611456565b905061042e600160008573ffffffffffffffffffffffffffffffffffffffff1673ffffffffffffffffffffffffffffffffffffffff1681526020019081526020016000206001015482600160008773ffffffffffffffffffffffffffffffffffffffff1673ffffffffffffffffffffffffffffffffffffffff1681526020019081526020016000206002015461042991906114b2565b610ae9565b91505092915050565b6000600160008373ffffffffffffffffffffffffffffffffffffffff1673ffffffffffffffffffffffffffffffffffffffff16815260200190815260200160002060000160009054906101000a900460ff169050919050565b7f000000000000000000000000000000000000000000000000000000000000000081565b6104bc610b16565b73ffffffffffffffffffffffffffffffffffffffff166104da6106ff565b73ffffffffffffffffffffffffffffffffffffffff1614610530576040517f08c379a000000000000000000000000000000000000000000000000000000000815260040161052790611565565b60405180910390fd5b61053a8282610b1e565b5050565b610546610b16565b73ffffffffffffffffffffffffffffffffffffffff166105646106ff565b73ffffffffffffffffffffffffffffffffffffffff16146105ba576040517f08c379a00000000000000000000000000000000000000000000000000000000081526004016105b190611565565b60405180910390fd5b6105c46000610f6a565b565b6105ce610b16565b73ffffffffffffffffffffffffffffffffffffffff166105ec6106ff565b73ffffffffffffffffffffffffffffffffffffffff1614610642576040517f08c379a000000000000000000000000000000000000000000000000000000000815260040161063990611565565b60405180910390fd5b600160008273ffffffffffffffffffffffffffffffffffffffff1673ffffffffffffffffffffffffffffffffffffffff168152602001908152602001600020600080820160006101000a81549060ff0219169055600182016000905560028201600090556003820160009055505050565b6000600160008373ffffffffffffffffffffffffffffffffffffffff1673ffffffffffffffffffffffffffffffffffffffff168152602001908152602001600020600101549050919050565b60008060009054906101000a900473ffffffffffffffffffffffffffffffffffffffff16905090565b6000600160008373ffffffffffffffffffffffffffffffffffffffff1673ffffffffffffffffffffffffffffffffffffffff168152602001908152602001600020600201549050919050565b61077c610b16565b73ffffffffffffffffffffffffffffffffffffffff1661079a6106ff565b73ffffffffffffffffffffffffffffffffffffffff16146107f0576040517f08c379a00000000000000000000000000000000000000000000000000000000081526004016107e790611565565b60405180910390fd5b60005b8484905081101561085b5761084885858381811061081457610813611585565b5b9050602002016020810190610829919061114e565b84848481811061083c5761083b611585565b5b90506020020135610b1e565b8080610853906115b4565b9150506107f3565b5050505050565b7f000000000000000000000000000000000000000000000000000000000000000081565b61088e610b16565b73ffffffffffffffffffffffffffffffffffffffff166108ac6106ff565b73ffffffffffffffffffffffffffffffffffffffff1614610902576040517f08c379a00000000000000000000000000000000000000000000000000000000081526004016108f990611565565b60405180910390fd5b610949600160008573ffffffffffffffffffffffffffffffffffffffff1673ffffffffffffffffffffffffffffffffffffffff16815260200190815260200160002061102e565b61099a81600160008673ffffffffffffffffffffffffffffffffffffffff1673ffffffffffffffffffffffffffffffffffffffff16815260200190815260200160002061104e90919063ffffffff16565b6109ed8242600160008773ffffffffffffffffffffffffffffffffffffffff1673ffffffffffffffffffffffffffffffffffffffff16815260200190815260200160002061105b9092919063ffffffff16565b505050565b6109fa610b16565b73ffffffffffffffffffffffffffffffffffffffff16610a186106ff565b73ffffffffffffffffffffffffffffffffffffffff1614610a6e576040517f08c379a0000000000000000000000000000000000000000000000000000000008152600401610a6590611565565b60405180910390fd5b600073ffffffffffffffffffffffffffffffffffffffff168173ffffffffffffffffffffffffffffffffffffffff1603610add576040517f08c379a0000000000000000000000000000000000000000000000000000000008152600401610ad49061166e565b60405180910390fd5b610ae681610f6a565b50565b6000816113886000190304831115821517610b0357600080fd5b6127106113888385020104905092915050565b600033905090565b600160008373ffffffffffffffffffffffffffffffffffffffff1673ffffffffffffffffffffffffffffffffffffffff16815260200190815260200160002060000160009054906101000a900460ff16610bad576040517f08c379a0000000000000000000000000000000000000000000000000000000008152600401610ba4906116da565b60405180910390fd5b7f0000000000000000000000000000000000000000000000000000000000000000600160008473ffffffffffffffffffffffffffffffffffffffff1673ffffffffffffffffffffffffffffffffffffffff1681526020019081526020016000206003015442610c1c91906116fa565b11610c5c576040517f08c379a0000000000000000000000000000000000000000000000000000000008152600401610c539061177a565b60405180910390fd5b60008190506000600160008573ffffffffffffffffffffffffffffffffffffffff1673ffffffffffffffffffffffffffffffffffffffff1681526020019081526020016000206001015483600160008773ffffffffffffffffffffffffffffffffffffffff1673ffffffffffffffffffffffffffffffffffffffff16815260200190815260200160002060010154610cf491906116fa565b612710610d01919061179a565b610d0b9190611823565b90507f0000000000000000000000000000000000000000000000000000000000000000811115610f115782600160008673ffffffffffffffffffffffffffffffffffffffff1673ffffffffffffffffffffffffffffffffffffffff168152602001908152602001600020600101541115610dff57610df8600160008673ffffffffffffffffffffffffffffffffffffffff1673ffffffffffffffffffffffffffffffffffffffff168152602001908152602001600020600101547f0000000000000000000000000000000000000000000000000000000000000000612710610df391906116fa565b610ae9565b9150610f10565b82600160008673ffffffffffffffffffffffffffffffffffffffff1673ffffffffffffffffffffffffffffffffffffffff168152602001908152602001600020600101541015610ec957610ec2600160008673ffffffffffffffffffffffffffffffffffffffff1673ffffffffffffffffffffffffffffffffffffffff168152602001908152602001600020600101547f0000000000000000000000000000000000000000000000000000000000000000612710610ebd91906114b2565b610ae9565b9150610f0f565b600160008573ffffffffffffffffffffffffffffffffffffffff1673ffffffffffffffffffffffffffffffffffffffff1681526020019081526020016000206001015491505b5b5b610f648243600160008873ffffffffffffffffffffffffffffffffffffffff1673ffffffffffffffffffffffffffffffffffffffff16815260200190815260200160002061105b9092919063ffffffff16565b50505050565b60008060009054906101000a900473ffffffffffffffffffffffffffffffffffffffff169050816000806101000a81548173ffffffffffffffffffffffffffffffffffffffff021916908373ffffffffffffffffffffffffffffffffffffffff1602179055508173ffffffffffffffffffffffffffffffffffffffff168173ffffffffffffffffffffffffffffffffffffffff167f8be0079c531659141344cd1fd0a4f28419497f9722a3daafe3b4186f6b6457e060405160405180910390a35050565b60018160000160006101000a81548160ff02191690831515021790555050565b8082600201819055505050565b818360010181905550808360030181905550505050565b600080fd5b600080fd5b600073ffffffffffffffffffffffffffffffffffffffff82169050919050565b60006110a78261107c565b9050919050565b6110b78161109c565b81146110c257600080fd5b50565b6000813590506110d4816110ae565b92915050565b600080604083850312156110f1576110f0611072565b5b60006110ff858286016110c5565b9250506020611110858286016110c5565b9150509250929050565b6000819050919050565b61112d8161111a565b82525050565b60006020820190506111486000830184611124565b92915050565b60006020828403121561116457611163611072565b5b6000611172848285016110c5565b91505092915050565b60008115159050919050565b6111908161117b565b82525050565b60006020820190506111ab6000830184611187565b92915050565b6111ba8161111a565b81146111c557600080fd5b50565b6000813590506111d7816111b1565b92915050565b600080604083850312156111f4576111f3611072565b5b6000611202858286016110c5565b9250506020611213858286016111c8565b9150509250929050565b6112268161109c565b82525050565b6000602082019050611241600083018461121d565b92915050565b600080fd5b600080fd5b600080fd5b60008083601f84011261126c5761126b611247565b5b8235905067ffffffffffffffff8111156112895761128861124c565b5b6020830191508360208202830111156112a5576112a4611251565b5b9250929050565b60008083601f8401126112c2576112c1611247565b5b8235905067ffffffffffffffff8111156112df576112de61124c565b5b6020830191508360208202830111156112fb576112fa611251565b5b9250929050565b6000806000806040858703121561131c5761131b611072565b5b600085013567ffffffffffffffff81111561133a57611339611077565b5b61134687828801611256565b9450945050602085013567ffffffffffffffff81111561136957611368611077565b5b611375878288016112ac565b925092505092959194509250565b60008060006060848603121561139c5761139b611072565b5b60006113aa868287016110c5565b93505060206113bb868287016111c8565b92505060406113cc868287016111c8565b9150509250925092565b6000815190506113e5816110ae565b92915050565b60006020828403121561140157611400611072565b5b600061140f848285016113d6565b91505092915050565b600060408201905061142d600083018561121d565b61143a602083018461121d565b9392505050565b600081519050611450816111b1565b92915050565b60006020828403121561146c5761146b611072565b5b600061147a84828501611441565b91505092915050565b7f4e487b7100000000000000000000000000000000000000000000000000000000600052601160045260246000fd5b60006114bd8261111a565b91506114c88361111a565b9250827fffffffffffffffffffffffffffffffffffffffffffffffffffffffffffffffff038211156114fd576114fc611483565b5b828201905092915050565b600082825260208201905092915050565b7f4f776e61626c653a2063616c6c6572206973206e6f7420746865206f776e6572600082015250565b600061154f602083611508565b915061155a82611519565b602082019050919050565b6000602082019050818103600083015261157e81611542565b9050919050565b7f4e487b7100000000000000000000000000000000000000000000000000000000600052603260045260246000fd5b60006115bf8261111a565b91507fffffffffffffffffffffffffffffffffffffffffffffffffffffffffffffffff82036115f1576115f0611483565b5b600182019050919050565b7f4f776e61626c653a206e6577206f776e657220697320746865207a65726f206160008201527f6464726573730000000000000000000000000000000000000000000000000000602082015250565b6000611658602683611508565b9150611663826115fc565b604082019050919050565b600060208201905081810360008301526116878161164b565b9050919050565b7f556e737570706f7274656420436f6c6c656374696f6e00000000000000000000600082015250565b60006116c4601683611508565b91506116cf8261168e565b602082019050919050565b600060208201905081810360008301526116f3816116b7565b9050919050565b60006117058261111a565b91506117108361111a565b92508282101561172357611722611483565b5b828203905092915050565b7f5570646174696e672074696d6520746f6f2073686f7274000000000000000000600082015250565b6000611764601783611508565b915061176f8261172e565b602082019050919050565b6000602082019050818103600083015261179381611757565b9050919050565b60006117a58261111a565b91506117b08361111a565b9250817fffffffffffffffffffffffffffffffffffffffffffffffffffffffffffffffff04831182151516156117e9576117e8611483565b5b828202905092915050565b7f4e487b7100000000000000000000000000000000000000000000000000000000600052601260045260246000fd5b600061182e8261111a565b91506118398361111a565b925082611849576118486117f4565b5b82820490509291505056fea2646970667358221220e96c5c96ed4017f4008a24e4102e66ea078ce7f01e74496b885c9424f065d7d464736f6c634300080f0033",
  "linkReferences": {},
  "deployedLinkReferences": {}
}