{
  "_format": "hh-sol-artifact-1",
  "contractName": "NFTOracle",
  "sourceName": "contracts/protocol/NFTOracle.sol",
  "abi": [
    {
      "inputs": [
        {
          "internalType": "contract IMarketAddressesProvider",
          "name": "addressProvider",
          "type": "address"
        },
        {
          "internalType": "uint256",
          "name": "maxPriceDeviation",
          "type": "uint256"
        },
        {
          "internalType": "uint256",
          "name": "minUpdateTime",
          "type": "uint256"
        }
      ],
      "stateMutability": "nonpayable",
      "type": "constructor"
    },
    {
      "anonymous": false,
      "inputs": [
        {
          "indexed": true,
          "internalType": "address",
          "name": "previousOwner",
          "type": "address"
        },
        {
          "indexed": true,
          "internalType": "address",
          "name": "newOwner",
          "type": "address"
        }
      ],
      "name": "OwnershipTransferred",
      "type": "event"
    },
    {
      "inputs": [],
      "name": "_maxPriceDeviation",
      "outputs": [
        {
          "internalType": "uint256",
          "name": "",
          "type": "uint256"
        }
      ],
      "stateMutability": "view",
      "type": "function"
    },
    {
      "inputs": [],
      "name": "_minUpdateTime",
      "outputs": [
        {
          "internalType": "uint256",
          "name": "",
          "type": "uint256"
        }
      ],
      "stateMutability": "view",
      "type": "function"
    },
    {
      "inputs": [
        {
          "internalType": "address",
          "name": "collection",
          "type": "address"
        },
        {
          "internalType": "uint256",
          "name": "floorPrice",
          "type": "uint256"
        }
      ],
      "name": "addFloorPriceData",
      "outputs": [],
      "stateMutability": "nonpayable",
      "type": "function"
    },
    {
      "inputs": [
        {
          "internalType": "address",
          "name": "collection",
          "type": "address"
        },
        {
          "internalType": "uint256",
          "name": "floorPrice",
          "type": "uint256"
        },
        {
          "internalType": "uint256",
          "name": "maxCollaterization",
          "type": "uint256"
        }
      ],
      "name": "addSupportedCollection",
      "outputs": [],
      "stateMutability": "nonpayable",
      "type": "function"
    },
    {
      "inputs": [
        {
          "internalType": "address[]",
          "name": "collection",
          "type": "address[]"
        },
        {
          "internalType": "uint256[]",
          "name": "floorPrice",
          "type": "uint256[]"
        }
      ],
      "name": "batchAddFloorPriceData",
      "outputs": [],
      "stateMutability": "nonpayable",
      "type": "function"
    },
    {
      "inputs": [
        {
          "internalType": "address",
          "name": "collection",
          "type": "address"
        }
      ],
      "name": "getCollectionFloorPrice",
      "outputs": [
        {
          "internalType": "uint256",
          "name": "",
          "type": "uint256"
        }
      ],
      "stateMutability": "view",
      "type": "function"
    },
    {
      "inputs": [
        {
          "internalType": "address",
          "name": "user",
          "type": "address"
        },
        {
          "internalType": "address",
          "name": "collection",
          "type": "address"
        }
      ],
      "name": "getMaxCollateral",
      "outputs": [
        {
          "internalType": "uint256",
          "name": "",
          "type": "uint256"
        }
      ],
      "stateMutability": "view",
      "type": "function"
    },
    {
      "inputs": [
        {
          "internalType": "address",
          "name": "collection",
          "type": "address"
        }
      ],
      "name": "isCollectionSupported",
      "outputs": [
        {
          "internalType": "bool",
          "name": "",
          "type": "bool"
        }
      ],
      "stateMutability": "view",
      "type": "function"
    },
    {
      "inputs": [],
      "name": "owner",
      "outputs": [
        {
          "internalType": "address",
          "name": "",
          "type": "address"
        }
      ],
      "stateMutability": "view",
      "type": "function"
    },
    {
      "inputs": [
        {
          "internalType": "address",
          "name": "collection",
          "type": "address"
        }
      ],
      "name": "removeSupportedCollection",
      "outputs": [],
      "stateMutability": "nonpayable",
      "type": "function"
    },
    {
      "inputs": [],
      "name": "renounceOwnership",
      "outputs": [],
      "stateMutability": "nonpayable",
      "type": "function"
    },
    {
      "inputs": [
        {
          "internalType": "address",
          "name": "newOwner",
          "type": "address"
        }
      ],
      "name": "transferOwnership",
      "outputs": [],
      "stateMutability": "nonpayable",
      "type": "function"
    }
  ],
  "bytecode": "0x60c06040523480156200001157600080fd5b5060405162001ac738038062001ac7833981810160405281019062000037919062000236565b620000576200004b620000b160201b60201c565b620000b960201b60201c565b82600260006101000a81548173ffffffffffffffffffffffffffffffffffffffff021916908373ffffffffffffffffffffffffffffffffffffffff16021790555081608081815250508060a0818152505050505062000292565b600033905090565b60008060009054906101000a900473ffffffffffffffffffffffffffffffffffffffff169050816000806101000a81548173ffffffffffffffffffffffffffffffffffffffff021916908373ffffffffffffffffffffffffffffffffffffffff1602179055508173ffffffffffffffffffffffffffffffffffffffff168173ffffffffffffffffffffffffffffffffffffffff167f8be0079c531659141344cd1fd0a4f28419497f9722a3daafe3b4186f6b6457e060405160405180910390a35050565b600080fd5b600073ffffffffffffffffffffffffffffffffffffffff82169050919050565b6000620001af8262000182565b9050919050565b6000620001c382620001a2565b9050919050565b620001d581620001b6565b8114620001e157600080fd5b50565b600081519050620001f581620001ca565b92915050565b6000819050919050565b6200021081620001fb565b81146200021c57600080fd5b50565b600081519050620002308162000205565b92915050565b6000806000606084860312156200025257620002516200017d565b5b60006200026286828701620001e4565b935050602062000275868287016200021f565b925050604062000288868287016200021f565b9150509250925092565b60805160a0516117f3620002d4600039600081816107cd0152610b1801526000818161044701528181610c7801528181610d300152610dfa01526117f36000f3fe608060405234801561001057600080fd5b50600436106100b45760003560e01c8063850481791161007157806385048179146101795780638da5cb5b146101a9578063a95a1a26146101c7578063b542671a146101e3578063b748297014610201578063f2fde38b1461021d576100b4565b80632b6e6581146100b9578063497b4ce5146100e95780635eb283c7146101195780636f8e142514610137578063715018a6146101535780638385e8971461015d575b600080fd5b6100d360048036038101906100ce9190611043565b610239565b6040516100e0919061109c565b60405180910390f35b61010360048036038101906100fe91906110b7565b6103ec565b60405161011091906110ff565b60405180910390f35b610121610445565b60405161012e919061109c565b60405180910390f35b610151600480360381019061014c9190611146565b610469565b005b61015b6104f3565b005b610177600480360381019061017291906110b7565b61057b565b005b610193600480360381019061018e91906110b7565b610668565b6040516101a0919061109c565b60405180910390f35b6101b16106b4565b6040516101be9190611195565b60405180910390f35b6101e160048036038101906101dc919061126b565b6106dd565b005b6101eb6107cb565b6040516101f8919061109c565b60405180910390f35b61021b600480360381019061021691906112ec565b6107ef565b005b610237600480360381019061023291906110b7565b61095b565b005b600080600260009054906101000a900473ffffffffffffffffffffffffffffffffffffffff1673ffffffffffffffffffffffffffffffffffffffff16639cbec2566040518163ffffffff1660e01b8152600401602060405180830381865afa1580156102a9573d6000803e3d6000fd5b505050506040513d601f19601f820116820180604052508101906102cd9190611354565b73ffffffffffffffffffffffffffffffffffffffff1663b8ab1bdc85856040518363ffffffff1660e01b8152600401610307929190611381565b602060405180830381865afa158015610324573d6000803e3d6000fd5b505050506040513d601f19601f8201168201806040525081019061034891906113bf565b90506103e3600160008573ffffffffffffffffffffffffffffffffffffffff1673ffffffffffffffffffffffffffffffffffffffff1681526020019081526020016000206001015482600160008773ffffffffffffffffffffffffffffffffffffffff1673ffffffffffffffffffffffffffffffffffffffff168152602001908152602001600020600201546103de919061141b565b610a52565b91505092915050565b6000600160008373ffffffffffffffffffffffffffffffffffffffff1673ffffffffffffffffffffffffffffffffffffffff16815260200190815260200160002060000160009054906101000a900460ff169050919050565b7f000000000000000000000000000000000000000000000000000000000000000081565b610471610a7f565b73ffffffffffffffffffffffffffffffffffffffff1661048f6106b4565b73ffffffffffffffffffffffffffffffffffffffff16146104e5576040517f08c379a00000000000000000000000000000000000000000000000000000000081526004016104dc906114ce565b60405180910390fd5b6104ef8282610a87565b5050565b6104fb610a7f565b73ffffffffffffffffffffffffffffffffffffffff166105196106b4565b73ffffffffffffffffffffffffffffffffffffffff161461056f576040517f08c379a0000000000000000000000000000000000000000000000000000000008152600401610566906114ce565b60405180910390fd5b6105796000610ed3565b565b610583610a7f565b73ffffffffffffffffffffffffffffffffffffffff166105a16106b4565b73ffffffffffffffffffffffffffffffffffffffff16146105f7576040517f08c379a00000000000000000000000000000000000000000000000000000000081526004016105ee906114ce565b60405180910390fd5b600160008273ffffffffffffffffffffffffffffffffffffffff1673ffffffffffffffffffffffffffffffffffffffff168152602001908152602001600020600080820160006101000a81549060ff0219169055600182016000905560028201600090556003820160009055505050565b6000600160008373ffffffffffffffffffffffffffffffffffffffff1673ffffffffffffffffffffffffffffffffffffffff168152602001908152602001600020600101549050919050565b60008060009054906101000a900473ffffffffffffffffffffffffffffffffffffffff16905090565b6106e5610a7f565b73ffffffffffffffffffffffffffffffffffffffff166107036106b4565b73ffffffffffffffffffffffffffffffffffffffff1614610759576040517f08c379a0000000000000000000000000000000000000000000000000000000008152600401610750906114ce565b60405180910390fd5b60005b848490508110156107c4576107b185858381811061077d5761077c6114ee565b5b905060200201602081019061079291906110b7565b8484848181106107a5576107a46114ee565b5b90506020020135610a87565b80806107bc9061151d565b91505061075c565b5050505050565b7f000000000000000000000000000000000000000000000000000000000000000081565b6107f7610a7f565b73ffffffffffffffffffffffffffffffffffffffff166108156106b4565b73ffffffffffffffffffffffffffffffffffffffff161461086b576040517f08c379a0000000000000000000000000000000000000000000000000000000008152600401610862906114ce565b60405180910390fd5b6108b2600160008573ffffffffffffffffffffffffffffffffffffffff1673ffffffffffffffffffffffffffffffffffffffff168152602001908152602001600020610f97565b61090381600160008673ffffffffffffffffffffffffffffffffffffffff1673ffffffffffffffffffffffffffffffffffffffff168152602001908152602001600020610fb790919063ffffffff16565b6109568242600160008773ffffffffffffffffffffffffffffffffffffffff1673ffffffffffffffffffffffffffffffffffffffff168152602001908152602001600020610fc49092919063ffffffff16565b505050565b610963610a7f565b73ffffffffffffffffffffffffffffffffffffffff166109816106b4565b73ffffffffffffffffffffffffffffffffffffffff16146109d7576040517f08c379a00000000000000000000000000000000000000000000000000000000081526004016109ce906114ce565b60405180910390fd5b600073ffffffffffffffffffffffffffffffffffffffff168173ffffffffffffffffffffffffffffffffffffffff1603610a46576040517f08c379a0000000000000000000000000000000000000000000000000000000008152600401610a3d906115d7565b60405180910390fd5b610a4f81610ed3565b50565b6000816113886000190304831115821517610a6c57600080fd5b6127106113888385020104905092915050565b600033905090565b600160008373ffffffffffffffffffffffffffffffffffffffff1673ffffffffffffffffffffffffffffffffffffffff16815260200190815260200160002060000160009054906101000a900460ff16610b16576040517f08c379a0000000000000000000000000000000000000000000000000000000008152600401610b0d90611643565b60405180910390fd5b7f0000000000000000000000000000000000000000000000000000000000000000600160008473ffffffffffffffffffffffffffffffffffffffff1673ffffffffffffffffffffffffffffffffffffffff1681526020019081526020016000206003015442610b859190611663565b11610bc5576040517f08c379a0000000000000000000000000000000000000000000000000000000008152600401610bbc906116e3565b60405180910390fd5b60008190506000600160008573ffffffffffffffffffffffffffffffffffffffff1673ffffffffffffffffffffffffffffffffffffffff1681526020019081526020016000206001015483600160008773ffffffffffffffffffffffffffffffffffffffff1673ffffffffffffffffffffffffffffffffffffffff16815260200190815260200160002060010154610c5d9190611663565b612710610c6a9190611703565b610c74919061178c565b90507f0000000000000000000000000000000000000000000000000000000000000000811115610e7a5782600160008673ffffffffffffffffffffffffffffffffffffffff1673ffffffffffffffffffffffffffffffffffffffff168152602001908152602001600020600101541115610d6857610d61600160008673ffffffffffffffffffffffffffffffffffffffff1673ffffffffffffffffffffffffffffffffffffffff168152602001908152602001600020600101547f0000000000000000000000000000000000000000000000000000000000000000612710610d5c9190611663565b610a52565b9150610e79565b82600160008673ffffffffffffffffffffffffffffffffffffffff1673ffffffffffffffffffffffffffffffffffffffff168152602001908152602001600020600101541015610e3257610e2b600160008673ffffffffffffffffffffffffffffffffffffffff1673ffffffffffffffffffffffffffffffffffffffff168152602001908152602001600020600101547f0000000000000000000000000000000000000000000000000000000000000000612710610e26919061141b565b610a52565b9150610e78565b600160008573ffffffffffffffffffffffffffffffffffffffff1673ffffffffffffffffffffffffffffffffffffffff1681526020019081526020016000206001015491505b5b5b610ecd8243600160008873ffffffffffffffffffffffffffffffffffffffff1673ffffffffffffffffffffffffffffffffffffffff168152602001908152602001600020610fc49092919063ffffffff16565b50505050565b60008060009054906101000a900473ffffffffffffffffffffffffffffffffffffffff169050816000806101000a81548173ffffffffffffffffffffffffffffffffffffffff021916908373ffffffffffffffffffffffffffffffffffffffff1602179055508173ffffffffffffffffffffffffffffffffffffffff168173ffffffffffffffffffffffffffffffffffffffff167f8be0079c531659141344cd1fd0a4f28419497f9722a3daafe3b4186f6b6457e060405160405180910390a35050565b60018160000160006101000a81548160ff02191690831515021790555050565b8082600201819055505050565b818360010181905550808360030181905550505050565b600080fd5b600080fd5b600073ffffffffffffffffffffffffffffffffffffffff82169050919050565b600061101082610fe5565b9050919050565b61102081611005565b811461102b57600080fd5b50565b60008135905061103d81611017565b92915050565b6000806040838503121561105a57611059610fdb565b5b60006110688582860161102e565b92505060206110798582860161102e565b9150509250929050565b6000819050919050565b61109681611083565b82525050565b60006020820190506110b1600083018461108d565b92915050565b6000602082840312156110cd576110cc610fdb565b5b60006110db8482850161102e565b91505092915050565b60008115159050919050565b6110f9816110e4565b82525050565b600060208201905061111460008301846110f0565b92915050565b61112381611083565b811461112e57600080fd5b50565b6000813590506111408161111a565b92915050565b6000806040838503121561115d5761115c610fdb565b5b600061116b8582860161102e565b925050602061117c85828601611131565b9150509250929050565b61118f81611005565b82525050565b60006020820190506111aa6000830184611186565b92915050565b600080fd5b600080fd5b600080fd5b60008083601f8401126111d5576111d46111b0565b5b8235905067ffffffffffffffff8111156111f2576111f16111b5565b5b60208301915083602082028301111561120e5761120d6111ba565b5b9250929050565b60008083601f84011261122b5761122a6111b0565b5b8235905067ffffffffffffffff811115611248576112476111b5565b5b602083019150836020820283011115611264576112636111ba565b5b9250929050565b6000806000806040858703121561128557611284610fdb565b5b600085013567ffffffffffffffff8111156112a3576112a2610fe0565b5b6112af878288016111bf565b9450945050602085013567ffffffffffffffff8111156112d2576112d1610fe0565b5b6112de87828801611215565b925092505092959194509250565b60008060006060848603121561130557611304610fdb565b5b60006113138682870161102e565b935050602061132486828701611131565b925050604061133586828701611131565b9150509250925092565b60008151905061134e81611017565b92915050565b60006020828403121561136a57611369610fdb565b5b60006113788482850161133f565b91505092915050565b60006040820190506113966000830185611186565b6113a36020830184611186565b9392505050565b6000815190506113b98161111a565b92915050565b6000602082840312156113d5576113d4610fdb565b5b60006113e3848285016113aa565b91505092915050565b7f4e487b7100000000000000000000000000000000000000000000000000000000600052601160045260246000fd5b600061142682611083565b915061143183611083565b9250827fffffffffffffffffffffffffffffffffffffffffffffffffffffffffffffffff03821115611466576114656113ec565b5b828201905092915050565b600082825260208201905092915050565b7f4f776e61626c653a2063616c6c6572206973206e6f7420746865206f776e6572600082015250565b60006114b8602083611471565b91506114c382611482565b602082019050919050565b600060208201905081810360008301526114e7816114ab565b9050919050565b7f4e487b7100000000000000000000000000000000000000000000000000000000600052603260045260246000fd5b600061152882611083565b91507fffffffffffffffffffffffffffffffffffffffffffffffffffffffffffffffff820361155a576115596113ec565b5b600182019050919050565b7f4f776e61626c653a206e6577206f776e657220697320746865207a65726f206160008201527f6464726573730000000000000000000000000000000000000000000000000000602082015250565b60006115c1602683611471565b91506115cc82611565565b604082019050919050565b600060208201905081810360008301526115f0816115b4565b9050919050565b7f556e737570706f7274656420436f6c6c656374696f6e00000000000000000000600082015250565b600061162d601683611471565b9150611638826115f7565b602082019050919050565b6000602082019050818103600083015261165c81611620565b9050919050565b600061166e82611083565b915061167983611083565b92508282101561168c5761168b6113ec565b5b828203905092915050565b7f5570646174696e672074696d6520746f6f2073686f7274000000000000000000600082015250565b60006116cd601783611471565b91506116d882611697565b602082019050919050565b600060208201905081810360008301526116fc816116c0565b9050919050565b600061170e82611083565b915061171983611083565b9250817fffffffffffffffffffffffffffffffffffffffffffffffffffffffffffffffff0483118215151615611752576117516113ec565b5b828202905092915050565b7f4e487b7100000000000000000000000000000000000000000000000000000000600052601260045260246000fd5b600061179782611083565b91506117a283611083565b9250826117b2576117b161175d565b5b82820490509291505056fea2646970667358221220f4ac606db95398003f10d9edff095a90c1bc0307f7e113d9a75ae27af8294b7764736f6c634300080f0033",
  "linkReferences": {},
  "deployedLinkReferences": {}
}