{
  "_format": "hh-sol-artifact-1",
  "contractName": "NFTOracle",
  "sourceName": "contracts/protocol/NFTOracle.sol",
  "abi": [
    {
      "inputs": [
        {
          "internalType": "contract IMarketAddressesProvider",
          "name": "addressProvider",
          "type": "address"
        },
        {
          "internalType": "uint256",
          "name": "maxPriceDeviation",
          "type": "uint256"
        },
        {
          "internalType": "uint256",
          "name": "minUpdateTime",
          "type": "uint256"
        }
      ],
      "stateMutability": "nonpayable",
      "type": "constructor"
    },
    {
      "anonymous": false,
      "inputs": [
        {
          "indexed": true,
          "internalType": "address",
          "name": "previousOwner",
          "type": "address"
        },
        {
          "indexed": true,
          "internalType": "address",
          "name": "newOwner",
          "type": "address"
        }
      ],
      "name": "OwnershipTransferred",
      "type": "event"
    },
    {
      "inputs": [],
      "name": "_maxPriceDeviation",
      "outputs": [
        {
          "internalType": "uint256",
          "name": "",
          "type": "uint256"
        }
      ],
      "stateMutability": "view",
      "type": "function"
    },
    {
      "inputs": [],
      "name": "_minUpdateTime",
      "outputs": [
        {
          "internalType": "uint256",
          "name": "",
          "type": "uint256"
        }
      ],
      "stateMutability": "view",
      "type": "function"
    },
    {
      "inputs": [
        {
          "internalType": "address",
          "name": "collection",
          "type": "address"
        },
        {
          "internalType": "uint256",
          "name": "floorPrice",
          "type": "uint256"
        }
      ],
      "name": "addFloorPriceData",
      "outputs": [],
      "stateMutability": "nonpayable",
      "type": "function"
    },
    {
      "inputs": [
        {
          "internalType": "address",
          "name": "collection",
          "type": "address"
        },
        {
          "internalType": "uint256",
          "name": "floorPrice",
          "type": "uint256"
        },
        {
          "internalType": "uint256",
          "name": "maxCollaterization",
          "type": "uint256"
        }
      ],
      "name": "addSupportedCollection",
      "outputs": [],
      "stateMutability": "nonpayable",
      "type": "function"
    },
    {
      "inputs": [
        {
          "internalType": "address[]",
          "name": "collection",
          "type": "address[]"
        },
        {
          "internalType": "uint256[]",
          "name": "floorPrice",
          "type": "uint256[]"
        }
      ],
      "name": "batchAddFloorPriceData",
      "outputs": [],
      "stateMutability": "nonpayable",
      "type": "function"
    },
    {
      "inputs": [
        {
          "internalType": "address",
          "name": "collection",
          "type": "address"
        }
      ],
      "name": "getCollectionFloorPrice",
      "outputs": [
        {
          "internalType": "uint256",
          "name": "",
          "type": "uint256"
        }
      ],
      "stateMutability": "view",
      "type": "function"
    },
    {
      "inputs": [
        {
          "internalType": "address",
          "name": "user",
          "type": "address"
        },
        {
          "internalType": "address",
          "name": "collection",
          "type": "address"
        }
      ],
      "name": "getMaxCollateral",
      "outputs": [
        {
          "internalType": "uint256",
          "name": "",
          "type": "uint256"
        }
      ],
      "stateMutability": "nonpayable",
      "type": "function"
    },
    {
      "inputs": [
        {
          "internalType": "address",
          "name": "collection",
          "type": "address"
        }
      ],
      "name": "isCollectionSupported",
      "outputs": [
        {
          "internalType": "bool",
          "name": "",
          "type": "bool"
        }
      ],
      "stateMutability": "view",
      "type": "function"
    },
    {
      "inputs": [],
      "name": "owner",
      "outputs": [
        {
          "internalType": "address",
          "name": "",
          "type": "address"
        }
      ],
      "stateMutability": "view",
      "type": "function"
    },
    {
      "inputs": [
        {
          "internalType": "address",
          "name": "collection",
          "type": "address"
        }
      ],
      "name": "removeSupportedCollection",
      "outputs": [],
      "stateMutability": "nonpayable",
      "type": "function"
    },
    {
      "inputs": [],
      "name": "renounceOwnership",
      "outputs": [],
      "stateMutability": "nonpayable",
      "type": "function"
    },
    {
      "inputs": [
        {
          "internalType": "address",
          "name": "newOwner",
          "type": "address"
        }
      ],
      "name": "transferOwnership",
      "outputs": [],
      "stateMutability": "nonpayable",
      "type": "function"
    }
  ],
  "bytecode": "0x60c06040523480156200001157600080fd5b5060405162001ac938038062001ac9833981810160405281019062000037919062000236565b620000576200004b620000b160201b60201c565b620000b960201b60201c565b82600260006101000a81548173ffffffffffffffffffffffffffffffffffffffff021916908373ffffffffffffffffffffffffffffffffffffffff16021790555081608081815250508060a0818152505050505062000292565b600033905090565b60008060009054906101000a900473ffffffffffffffffffffffffffffffffffffffff169050816000806101000a81548173ffffffffffffffffffffffffffffffffffffffff021916908373ffffffffffffffffffffffffffffffffffffffff1602179055508173ffffffffffffffffffffffffffffffffffffffff168173ffffffffffffffffffffffffffffffffffffffff167f8be0079c531659141344cd1fd0a4f28419497f9722a3daafe3b4186f6b6457e060405160405180910390a35050565b600080fd5b600073ffffffffffffffffffffffffffffffffffffffff82169050919050565b6000620001af8262000182565b9050919050565b6000620001c382620001a2565b9050919050565b620001d581620001b6565b8114620001e157600080fd5b50565b600081519050620001f581620001ca565b92915050565b6000819050919050565b6200021081620001fb565b81146200021c57600080fd5b50565b600081519050620002308162000205565b92915050565b6000806000606084860312156200025257620002516200017d565b5b60006200026286828701620001e4565b935050602062000275868287016200021f565b925050604062000288868287016200021f565b9150509250925092565b60805160a0516117f5620002d4600039600081816107cf0152610b1a01526000818161044901528181610c7a01528181610d320152610dfc01526117f56000f3fe608060405234801561001057600080fd5b50600436106100b45760003560e01c8063850481791161007157806385048179146101795780638da5cb5b146101a9578063a95a1a26146101c7578063b542671a146101e3578063b748297014610201578063f2fde38b1461021d576100b4565b80632b6e6581146100b9578063497b4ce5146100e95780635eb283c7146101195780636f8e142514610137578063715018a6146101535780638385e8971461015d575b600080fd5b6100d360048036038101906100ce9190611045565b610239565b6040516100e0919061109e565b60405180910390f35b61010360048036038101906100fe91906110b9565b6103ee565b6040516101109190611101565b60405180910390f35b610121610447565b60405161012e919061109e565b60405180910390f35b610151600480360381019061014c9190611148565b61046b565b005b61015b6104f5565b005b610177600480360381019061017291906110b9565b61057d565b005b610193600480360381019061018e91906110b9565b61066a565b6040516101a0919061109e565b60405180910390f35b6101b16106b6565b6040516101be9190611197565b60405180910390f35b6101e160048036038101906101dc919061126d565b6106df565b005b6101eb6107cd565b6040516101f8919061109e565b60405180910390f35b61021b600480360381019061021691906112ee565b6107f1565b005b610237600480360381019061023291906110b9565b61095d565b005b600080600260009054906101000a900473ffffffffffffffffffffffffffffffffffffffff1673ffffffffffffffffffffffffffffffffffffffff16639cbec2566040518163ffffffff1660e01b8152600401602060405180830381865afa1580156102a9573d6000803e3d6000fd5b505050506040513d601f19601f820116820180604052508101906102cd9190611356565b73ffffffffffffffffffffffffffffffffffffffff1663b8ab1bdc85856040518363ffffffff1660e01b8152600401610307929190611383565b6020604051808303816000875af1158015610326573d6000803e3d6000fd5b505050506040513d601f19601f8201168201806040525081019061034a91906113c1565b90506103e5600160008573ffffffffffffffffffffffffffffffffffffffff1673ffffffffffffffffffffffffffffffffffffffff1681526020019081526020016000206001015482600160008773ffffffffffffffffffffffffffffffffffffffff1673ffffffffffffffffffffffffffffffffffffffff168152602001908152602001600020600201546103e0919061141d565b610a54565b91505092915050565b6000600160008373ffffffffffffffffffffffffffffffffffffffff1673ffffffffffffffffffffffffffffffffffffffff16815260200190815260200160002060000160009054906101000a900460ff169050919050565b7f000000000000000000000000000000000000000000000000000000000000000081565b610473610a81565b73ffffffffffffffffffffffffffffffffffffffff166104916106b6565b73ffffffffffffffffffffffffffffffffffffffff16146104e7576040517f08c379a00000000000000000000000000000000000000000000000000000000081526004016104de906114d0565b60405180910390fd5b6104f18282610a89565b5050565b6104fd610a81565b73ffffffffffffffffffffffffffffffffffffffff1661051b6106b6565b73ffffffffffffffffffffffffffffffffffffffff1614610571576040517f08c379a0000000000000000000000000000000000000000000000000000000008152600401610568906114d0565b60405180910390fd5b61057b6000610ed5565b565b610585610a81565b73ffffffffffffffffffffffffffffffffffffffff166105a36106b6565b73ffffffffffffffffffffffffffffffffffffffff16146105f9576040517f08c379a00000000000000000000000000000000000000000000000000000000081526004016105f0906114d0565b60405180910390fd5b600160008273ffffffffffffffffffffffffffffffffffffffff1673ffffffffffffffffffffffffffffffffffffffff168152602001908152602001600020600080820160006101000a81549060ff0219169055600182016000905560028201600090556003820160009055505050565b6000600160008373ffffffffffffffffffffffffffffffffffffffff1673ffffffffffffffffffffffffffffffffffffffff168152602001908152602001600020600101549050919050565b60008060009054906101000a900473ffffffffffffffffffffffffffffffffffffffff16905090565b6106e7610a81565b73ffffffffffffffffffffffffffffffffffffffff166107056106b6565b73ffffffffffffffffffffffffffffffffffffffff161461075b576040517f08c379a0000000000000000000000000000000000000000000000000000000008152600401610752906114d0565b60405180910390fd5b60005b848490508110156107c6576107b385858381811061077f5761077e6114f0565b5b905060200201602081019061079491906110b9565b8484848181106107a7576107a66114f0565b5b90506020020135610a89565b80806107be9061151f565b91505061075e565b5050505050565b7f000000000000000000000000000000000000000000000000000000000000000081565b6107f9610a81565b73ffffffffffffffffffffffffffffffffffffffff166108176106b6565b73ffffffffffffffffffffffffffffffffffffffff161461086d576040517f08c379a0000000000000000000000000000000000000000000000000000000008152600401610864906114d0565b60405180910390fd5b6108b4600160008573ffffffffffffffffffffffffffffffffffffffff1673ffffffffffffffffffffffffffffffffffffffff168152602001908152602001600020610f99565b61090581600160008673ffffffffffffffffffffffffffffffffffffffff1673ffffffffffffffffffffffffffffffffffffffff168152602001908152602001600020610fb990919063ffffffff16565b6109588242600160008773ffffffffffffffffffffffffffffffffffffffff1673ffffffffffffffffffffffffffffffffffffffff168152602001908152602001600020610fc69092919063ffffffff16565b505050565b610965610a81565b73ffffffffffffffffffffffffffffffffffffffff166109836106b6565b73ffffffffffffffffffffffffffffffffffffffff16146109d9576040517f08c379a00000000000000000000000000000000000000000000000000000000081526004016109d0906114d0565b60405180910390fd5b600073ffffffffffffffffffffffffffffffffffffffff168173ffffffffffffffffffffffffffffffffffffffff1603610a48576040517f08c379a0000000000000000000000000000000000000000000000000000000008152600401610a3f906115d9565b60405180910390fd5b610a5181610ed5565b50565b6000816113886000190304831115821517610a6e57600080fd5b6127106113888385020104905092915050565b600033905090565b600160008373ffffffffffffffffffffffffffffffffffffffff1673ffffffffffffffffffffffffffffffffffffffff16815260200190815260200160002060000160009054906101000a900460ff16610b18576040517f08c379a0000000000000000000000000000000000000000000000000000000008152600401610b0f90611645565b60405180910390fd5b7f0000000000000000000000000000000000000000000000000000000000000000600160008473ffffffffffffffffffffffffffffffffffffffff1673ffffffffffffffffffffffffffffffffffffffff1681526020019081526020016000206003015442610b879190611665565b11610bc7576040517f08c379a0000000000000000000000000000000000000000000000000000000008152600401610bbe906116e5565b60405180910390fd5b60008190506000600160008573ffffffffffffffffffffffffffffffffffffffff1673ffffffffffffffffffffffffffffffffffffffff1681526020019081526020016000206001015483600160008773ffffffffffffffffffffffffffffffffffffffff1673ffffffffffffffffffffffffffffffffffffffff16815260200190815260200160002060010154610c5f9190611665565b612710610c6c9190611705565b610c76919061178e565b90507f0000000000000000000000000000000000000000000000000000000000000000811115610e7c5782600160008673ffffffffffffffffffffffffffffffffffffffff1673ffffffffffffffffffffffffffffffffffffffff168152602001908152602001600020600101541115610d6a57610d63600160008673ffffffffffffffffffffffffffffffffffffffff1673ffffffffffffffffffffffffffffffffffffffff168152602001908152602001600020600101547f0000000000000000000000000000000000000000000000000000000000000000612710610d5e9190611665565b610a54565b9150610e7b565b82600160008673ffffffffffffffffffffffffffffffffffffffff1673ffffffffffffffffffffffffffffffffffffffff168152602001908152602001600020600101541015610e3457610e2d600160008673ffffffffffffffffffffffffffffffffffffffff1673ffffffffffffffffffffffffffffffffffffffff168152602001908152602001600020600101547f0000000000000000000000000000000000000000000000000000000000000000612710610e28919061141d565b610a54565b9150610e7a565b600160008573ffffffffffffffffffffffffffffffffffffffff1673ffffffffffffffffffffffffffffffffffffffff1681526020019081526020016000206001015491505b5b5b610ecf8243600160008873ffffffffffffffffffffffffffffffffffffffff1673ffffffffffffffffffffffffffffffffffffffff168152602001908152602001600020610fc69092919063ffffffff16565b50505050565b60008060009054906101000a900473ffffffffffffffffffffffffffffffffffffffff169050816000806101000a81548173ffffffffffffffffffffffffffffffffffffffff021916908373ffffffffffffffffffffffffffffffffffffffff1602179055508173ffffffffffffffffffffffffffffffffffffffff168173ffffffffffffffffffffffffffffffffffffffff167f8be0079c531659141344cd1fd0a4f28419497f9722a3daafe3b4186f6b6457e060405160405180910390a35050565b60018160000160006101000a81548160ff02191690831515021790555050565b8082600201819055505050565b818360010181905550808360030181905550505050565b600080fd5b600080fd5b600073ffffffffffffffffffffffffffffffffffffffff82169050919050565b600061101282610fe7565b9050919050565b61102281611007565b811461102d57600080fd5b50565b60008135905061103f81611019565b92915050565b6000806040838503121561105c5761105b610fdd565b5b600061106a85828601611030565b925050602061107b85828601611030565b9150509250929050565b6000819050919050565b61109881611085565b82525050565b60006020820190506110b3600083018461108f565b92915050565b6000602082840312156110cf576110ce610fdd565b5b60006110dd84828501611030565b91505092915050565b60008115159050919050565b6110fb816110e6565b82525050565b600060208201905061111660008301846110f2565b92915050565b61112581611085565b811461113057600080fd5b50565b6000813590506111428161111c565b92915050565b6000806040838503121561115f5761115e610fdd565b5b600061116d85828601611030565b925050602061117e85828601611133565b9150509250929050565b61119181611007565b82525050565b60006020820190506111ac6000830184611188565b92915050565b600080fd5b600080fd5b600080fd5b60008083601f8401126111d7576111d66111b2565b5b8235905067ffffffffffffffff8111156111f4576111f36111b7565b5b6020830191508360208202830111156112105761120f6111bc565b5b9250929050565b60008083601f84011261122d5761122c6111b2565b5b8235905067ffffffffffffffff81111561124a576112496111b7565b5b602083019150836020820283011115611266576112656111bc565b5b9250929050565b6000806000806040858703121561128757611286610fdd565b5b600085013567ffffffffffffffff8111156112a5576112a4610fe2565b5b6112b1878288016111c1565b9450945050602085013567ffffffffffffffff8111156112d4576112d3610fe2565b5b6112e087828801611217565b925092505092959194509250565b60008060006060848603121561130757611306610fdd565b5b600061131586828701611030565b935050602061132686828701611133565b925050604061133786828701611133565b9150509250925092565b60008151905061135081611019565b92915050565b60006020828403121561136c5761136b610fdd565b5b600061137a84828501611341565b91505092915050565b60006040820190506113986000830185611188565b6113a56020830184611188565b9392505050565b6000815190506113bb8161111c565b92915050565b6000602082840312156113d7576113d6610fdd565b5b60006113e5848285016113ac565b91505092915050565b7f4e487b7100000000000000000000000000000000000000000000000000000000600052601160045260246000fd5b600061142882611085565b915061143383611085565b9250827fffffffffffffffffffffffffffffffffffffffffffffffffffffffffffffffff03821115611468576114676113ee565b5b828201905092915050565b600082825260208201905092915050565b7f4f776e61626c653a2063616c6c6572206973206e6f7420746865206f776e6572600082015250565b60006114ba602083611473565b91506114c582611484565b602082019050919050565b600060208201905081810360008301526114e9816114ad565b9050919050565b7f4e487b7100000000000000000000000000000000000000000000000000000000600052603260045260246000fd5b600061152a82611085565b91507fffffffffffffffffffffffffffffffffffffffffffffffffffffffffffffffff820361155c5761155b6113ee565b5b600182019050919050565b7f4f776e61626c653a206e6577206f776e657220697320746865207a65726f206160008201527f6464726573730000000000000000000000000000000000000000000000000000602082015250565b60006115c3602683611473565b91506115ce82611567565b604082019050919050565b600060208201905081810360008301526115f2816115b6565b9050919050565b7f556e737570706f7274656420436f6c6c656374696f6e00000000000000000000600082015250565b600061162f601683611473565b915061163a826115f9565b602082019050919050565b6000602082019050818103600083015261165e81611622565b9050919050565b600061167082611085565b915061167b83611085565b92508282101561168e5761168d6113ee565b5b828203905092915050565b7f5570646174696e672074696d6520746f6f2073686f7274000000000000000000600082015250565b60006116cf601783611473565b91506116da82611699565b602082019050919050565b600060208201905081810360008301526116fe816116c2565b9050919050565b600061171082611085565b915061171b83611085565b9250817fffffffffffffffffffffffffffffffffffffffffffffffffffffffffffffffff0483118215151615611754576117536113ee565b5b828202905092915050565b7f4e487b7100000000000000000000000000000000000000000000000000000000600052601260045260246000fd5b600061179982611085565b91506117a483611085565b9250826117b4576117b361175f565b5b82820490509291505056fea26469706673582212209af3f3baa0a33146901aba93dd23ba9a9482d5519e6b6ba9f1596cdc28bd279d64736f6c634300080f0033",
  "linkReferences": {},
  "deployedLinkReferences": {}
}