{
  "_format": "hh-sol-artifact-1",
  "contractName": "NFTOracle",
  "sourceName": "contracts/protocol/NFTOracle.sol",
  "abi": [
    {
      "inputs": [
        {
          "internalType": "contract IAddressesProvider",
          "name": "addressProvider",
          "type": "address"
        },
        {
          "internalType": "uint256",
          "name": "maxPriceDeviation",
          "type": "uint256"
        },
        {
          "internalType": "uint256",
          "name": "minUpdateTime",
          "type": "uint256"
        }
      ],
      "stateMutability": "nonpayable",
      "type": "constructor"
    },
    {
      "anonymous": false,
      "inputs": [
        {
          "indexed": true,
          "internalType": "address",
          "name": "previousOwner",
          "type": "address"
        },
        {
          "indexed": true,
          "internalType": "address",
          "name": "newOwner",
          "type": "address"
        }
      ],
      "name": "OwnershipTransferred",
      "type": "event"
    },
    {
      "inputs": [],
      "name": "DOMAIN_SEPARATOR",
      "outputs": [
        {
          "internalType": "bytes32",
          "name": "",
          "type": "bytes32"
        }
      ],
      "stateMutability": "view",
      "type": "function"
    },
    {
      "inputs": [],
      "name": "_maxPriceDeviation",
      "outputs": [
        {
          "internalType": "uint256",
          "name": "",
          "type": "uint256"
        }
      ],
      "stateMutability": "view",
      "type": "function"
    },
    {
      "inputs": [],
      "name": "_minUpdateTime",
      "outputs": [
        {
          "internalType": "uint256",
          "name": "",
          "type": "uint256"
        }
      ],
      "stateMutability": "view",
      "type": "function"
    },
    {
      "inputs": [
        {
          "internalType": "address",
          "name": "collection",
          "type": "address"
        },
        {
          "internalType": "uint256",
          "name": "maxCollaterization",
          "type": "uint256"
        }
      ],
      "name": "addSupportedCollection",
      "outputs": [],
      "stateMutability": "nonpayable",
      "type": "function"
    },
    {
      "inputs": [
        {
          "internalType": "address",
          "name": "collection",
          "type": "address"
        }
      ],
      "name": "getCollectionMaxCollaterization",
      "outputs": [
        {
          "internalType": "uint256",
          "name": "",
          "type": "uint256"
        }
      ],
      "stateMutability": "view",
      "type": "function"
    },
    {
      "inputs": [
        {
          "internalType": "address",
          "name": "collection",
          "type": "address"
        },
        {
          "internalType": "uint256",
          "name": "tokenId",
          "type": "uint256"
        },
        {
          "internalType": "bytes32",
          "name": "request",
          "type": "bytes32"
        },
        {
          "components": [
            {
              "internalType": "uint8",
              "name": "v",
              "type": "uint8"
            },
            {
              "internalType": "bytes32",
              "name": "r",
              "type": "bytes32"
            },
            {
              "internalType": "bytes32",
              "name": "s",
              "type": "bytes32"
            },
            {
              "internalType": "bytes32",
              "name": "request",
              "type": "bytes32"
            },
            {
              "internalType": "uint256",
              "name": "deadline",
              "type": "uint256"
            },
            {
              "internalType": "bytes",
              "name": "payload",
              "type": "bytes"
            }
          ],
          "internalType": "struct Trustus.TrustusPacket",
          "name": "packet",
          "type": "tuple"
        }
      ],
      "name": "getTokenETHPrice",
      "outputs": [
        {
          "internalType": "uint256",
          "name": "",
          "type": "uint256"
        }
      ],
      "stateMutability": "view",
      "type": "function"
    },
    {
      "inputs": [
        {
          "internalType": "address",
          "name": "user",
          "type": "address"
        },
        {
          "internalType": "address",
          "name": "collection",
          "type": "address"
        },
        {
          "internalType": "uint256",
          "name": "tokenId",
          "type": "uint256"
        },
        {
          "internalType": "bytes32",
          "name": "request",
          "type": "bytes32"
        },
        {
          "components": [
            {
              "internalType": "uint8",
              "name": "v",
              "type": "uint8"
            },
            {
              "internalType": "bytes32",
              "name": "r",
              "type": "bytes32"
            },
            {
              "internalType": "bytes32",
              "name": "s",
              "type": "bytes32"
            },
            {
              "internalType": "bytes32",
              "name": "request",
              "type": "bytes32"
            },
            {
              "internalType": "uint256",
              "name": "deadline",
              "type": "uint256"
            },
            {
              "internalType": "bytes",
              "name": "payload",
              "type": "bytes"
            }
          ],
          "internalType": "struct Trustus.TrustusPacket",
          "name": "packet",
          "type": "tuple"
        }
      ],
      "name": "getTokenMaxETHCollateral",
      "outputs": [
        {
          "internalType": "uint256",
          "name": "",
          "type": "uint256"
        }
      ],
      "stateMutability": "view",
      "type": "function"
    },
    {
      "inputs": [
        {
          "internalType": "address",
          "name": "collection",
          "type": "address"
        }
      ],
      "name": "isCollectionSupported",
      "outputs": [
        {
          "internalType": "bool",
          "name": "",
          "type": "bool"
        }
      ],
      "stateMutability": "view",
      "type": "function"
    },
    {
      "inputs": [],
      "name": "owner",
      "outputs": [
        {
          "internalType": "address",
          "name": "",
          "type": "address"
        }
      ],
      "stateMutability": "view",
      "type": "function"
    },
    {
      "inputs": [
        {
          "internalType": "address",
          "name": "collection",
          "type": "address"
        }
      ],
      "name": "removeSupportedCollection",
      "outputs": [],
      "stateMutability": "nonpayable",
      "type": "function"
    },
    {
      "inputs": [],
      "name": "renounceOwnership",
      "outputs": [],
      "stateMutability": "nonpayable",
      "type": "function"
    },
    {
      "inputs": [
        {
          "internalType": "address",
          "name": "signer",
          "type": "address"
        }
      ],
      "name": "setTrustedPriceSource",
      "outputs": [],
      "stateMutability": "nonpayable",
      "type": "function"
    },
    {
      "inputs": [
        {
          "internalType": "address",
          "name": "newOwner",
          "type": "address"
        }
      ],
      "name": "transferOwnership",
      "outputs": [],
      "stateMutability": "nonpayable",
      "type": "function"
    }
  ],
  "bytecode": "0x6101006040523480156200001257600080fd5b5060405162002078380380620020788339818101604052810190620000389190620002ee565b620000586200004c620000d160201b60201c565b620000d960201b60201c565b4660808181525050620000706200019d60201b60201c565b60a0818152505082600360006101000a81548173ffffffffffffffffffffffffffffffffffffffff021916908373ffffffffffffffffffffffffffffffffffffffff1602179055508160c081815250508060e08181525050505050620003e4565b600033905090565b60008060009054906101000a900473ffffffffffffffffffffffffffffffffffffffff169050816000806101000a81548173ffffffffffffffffffffffffffffffffffffffff021916908373ffffffffffffffffffffffffffffffffffffffff1602179055508173ffffffffffffffffffffffffffffffffffffffff168173ffffffffffffffffffffffffffffffffffffffff167f8be0079c531659141344cd1fd0a4f28419497f9722a3daafe3b4186f6b6457e060405160405180910390a35050565b60007f8b73c3c69bb8fe3d512ecc4cf759cc79239f7b179b0ffacaa9a75d522b39400f7f118e7890157efb533a050dce8fe5a02b428bdf432762e2e91914807054e2d9657fc89efdaa54c0f20c7adf612882df0950f5a951637e0307cdcb4c672f298b8bc646306040516020016200021a95949392919062000387565b60405160208183030381529060405280519060200120905090565b600080fd5b600073ffffffffffffffffffffffffffffffffffffffff82169050919050565b600062000267826200023a565b9050919050565b60006200027b826200025a565b9050919050565b6200028d816200026e565b81146200029957600080fd5b50565b600081519050620002ad8162000282565b92915050565b6000819050919050565b620002c881620002b3565b8114620002d457600080fd5b50565b600081519050620002e881620002bd565b92915050565b6000806000606084860312156200030a576200030962000235565b5b60006200031a868287016200029c565b93505060206200032d86828701620002d7565b92505060406200034086828701620002d7565b9150509250925092565b6000819050919050565b6200035f816200034a565b82525050565b6200037081620002b3565b82525050565b62000381816200025a565b82525050565b600060a0820190506200039e600083018862000354565b620003ad602083018762000354565b620003bc604083018662000354565b620003cb606083018562000365565b620003da608083018462000376565b9695505050505050565b60805160a05160c05160e051611c5a6200041e600039600061068f01526000610489015260006102cc015260006102980152611c5a6000f3fe608060405234801561001057600080fd5b50600436106100cf5760003560e01c8063715018a61161008c57806394eb32541161006657806394eb3254146101ec578063b542671a1461021c578063ed839a801461023a578063f2fde38b1461026a576100cf565b8063715018a6146101a85780638385e897146101b25780638da5cb5b146101ce576100cf565b80631b8e225d146100d45780633644e515146100f05780633d638ac71461010e57806348bb36e41461013e578063497b4ce51461015a5780635eb283c71461018a575b600080fd5b6100ee60048036038101906100e9919061101c565b610286565b005b6100f8610294565b6040516101059190611062565b60405180910390f35b61012860048036038101906101239190611103565b6102f1565b6040516101359190611195565b60405180910390f35b610158600480360381019061015391906111b0565b610316565b005b610174600480360381019061016f919061101c565b61042e565b604051610181919061120b565b60405180910390f35b610192610487565b60405161019f9190611195565b60405180910390f35b6101b06104ab565b005b6101cc60048036038101906101c7919061101c565b610533565b005b6101d6610618565b6040516101e39190611235565b60405180910390f35b6102066004803603810190610201919061101c565b610641565b6040516102139190611195565b60405180910390f35b61022461068d565b6040516102319190611195565b60405180910390f35b610254600480360381019061024f9190611250565b6106b1565b6040516102619190611195565b60405180910390f35b610284600480360381019061027f919061101c565b610844565b005b61029181600161093b565b50565b60007f000000000000000000000000000000000000000000000000000000000000000046146102ca576102c5610996565b6102ec565b7f00000000000000000000000000000000000000000000000000000000000000005b905090565b600082826102ff8282610a2c565b61030a878786610cd6565b92505050949350505050565b61031e610dbf565b73ffffffffffffffffffffffffffffffffffffffff1661033c610618565b73ffffffffffffffffffffffffffffffffffffffff1614610392576040517f08c379a000000000000000000000000000000000000000000000000000000000815260040161038990611344565b60405180910390fd5b6103d9600260008473ffffffffffffffffffffffffffffffffffffffff1673ffffffffffffffffffffffffffffffffffffffff168152602001908152602001600020610dc7565b61042a81600260008573ffffffffffffffffffffffffffffffffffffffff1673ffffffffffffffffffffffffffffffffffffffff168152602001908152602001600020610de790919063ffffffff16565b5050565b6000600260008373ffffffffffffffffffffffffffffffffffffffff1673ffffffffffffffffffffffffffffffffffffffff16815260200190815260200160002060000160009054906101000a900460ff169050919050565b7f000000000000000000000000000000000000000000000000000000000000000081565b6104b3610dbf565b73ffffffffffffffffffffffffffffffffffffffff166104d1610618565b73ffffffffffffffffffffffffffffffffffffffff1614610527576040517f08c379a000000000000000000000000000000000000000000000000000000000815260040161051e90611344565b60405180910390fd5b6105316000610df4565b565b61053b610dbf565b73ffffffffffffffffffffffffffffffffffffffff16610559610618565b73ffffffffffffffffffffffffffffffffffffffff16146105af576040517f08c379a00000000000000000000000000000000000000000000000000000000081526004016105a690611344565b60405180910390fd5b600260008273ffffffffffffffffffffffffffffffffffffffff1673ffffffffffffffffffffffffffffffffffffffff168152602001908152602001600020600080820160006101000a81549060ff021916905560018201600090556002820160009055505050565b60008060009054906101000a900473ffffffffffffffffffffffffffffffffffffffff16905090565b6000600260008373ffffffffffffffffffffffffffffffffffffffff1673ffffffffffffffffffffffffffffffffffffffff168152602001908152602001600020600101549050919050565b7f000000000000000000000000000000000000000000000000000000000000000081565b600082826106bf8282610a2c565b6000600360009054906101000a900473ffffffffffffffffffffffffffffffffffffffff1673ffffffffffffffffffffffffffffffffffffffff16639cbec2566040518163ffffffff1660e01b8152600401602060405180830381865afa15801561072e573d6000803e3d6000fd5b505050506040513d601f19601f820116820180604052508101906107529190611379565b73ffffffffffffffffffffffffffffffffffffffff1663ab2946ff8a8a6040518363ffffffff1660e01b815260040161078c9291906113a6565b602060405180830381865afa1580156107a9573d6000803e3d6000fd5b505050506040513d601f19601f820116820180604052508101906107cd91906113e4565b905060006107dc898988610cd6565b90506108358183600260008d73ffffffffffffffffffffffffffffffffffffffff1673ffffffffffffffffffffffffffffffffffffffff168152602001908152602001600020600101546108309190611440565b610eb8565b94505050505095945050505050565b61084c610dbf565b73ffffffffffffffffffffffffffffffffffffffff1661086a610618565b73ffffffffffffffffffffffffffffffffffffffff16146108c0576040517f08c379a00000000000000000000000000000000000000000000000000000000081526004016108b790611344565b60405180910390fd5b600073ffffffffffffffffffffffffffffffffffffffff168173ffffffffffffffffffffffffffffffffffffffff160361092f576040517f08c379a000000000000000000000000000000000000000000000000000000000815260040161092690611508565b60405180910390fd5b61093881610df4565b50565b80600160008473ffffffffffffffffffffffffffffffffffffffff1673ffffffffffffffffffffffffffffffffffffffff16815260200190815260200160002060006101000a81548160ff0219169083151502179055505050565b60007f8b73c3c69bb8fe3d512ecc4cf759cc79239f7b179b0ffacaa9a75d522b39400f7f118e7890157efb533a050dce8fe5a02b428bdf432762e2e91914807054e2d9657fc89efdaa54c0f20c7adf612882df0950f5a951637e0307cdcb4c672f298b8bc64630604051602001610a11959493929190611528565b60405160208183030381529060405280519060200120905090565b80608001354210610a72576040517f08c379a0000000000000000000000000000000000000000000000000000000008152600401610a69906115c7565b60405180910390fd5b80606001358214610ab8576040517f08c379a0000000000000000000000000000000000000000000000000000000008152600401610aaf90611633565b60405180910390fd5b60006001610ac4610294565b7ffc7ecbf4f091085173dad8d1d3c2dfd218c018596a572201cd849763d1114e7a84606001358560800135868060a00190610aff9190611662565b604051610b0d929190611704565b6040518091039020604051602001610b28949392919061171d565b60405160208183030381529060405280519060200120604051602001610b4f9291906117da565b60405160208183030381529060405280519060200120836000016020810190610b78919061184a565b8460200135856040013560405160008152602001604052604051610b9f9493929190611886565b6020604051602081039080840390855afa158015610bc1573d6000803e3d6000fd5b505050602060405103519050610c0c6040518060400160405280601081526020017f7265636f7665726564416464726573730000000000000000000000000000000081525082610ee5565b600073ffffffffffffffffffffffffffffffffffffffff168173ffffffffffffffffffffffffffffffffffffffff1614158015610c925750600160008273ffffffffffffffffffffffffffffffffffffffff1673ffffffffffffffffffffffffffffffffffffffff16815260200190815260200160002060009054906101000a900460ff165b610cd1576040517f08c379a0000000000000000000000000000000000000000000000000000000008152600401610cc890611917565b60405180910390fd5b505050565b600080828060a00190610ce99190611662565b810190610cf69190611a2c565b9050806000015173ffffffffffffffffffffffffffffffffffffffff168573ffffffffffffffffffffffffffffffffffffffff1614610d6a576040517f08c379a0000000000000000000000000000000000000000000000000000000008152600401610d6190611acb565b60405180910390fd5b80602001518414610db0576040517f08c379a0000000000000000000000000000000000000000000000000000000008152600401610da790611b5d565b60405180910390fd5b80604001519150509392505050565b600033905090565b60018160000160006101000a81548160ff02191690831515021790555050565b8082600101819055505050565b60008060009054906101000a900473ffffffffffffffffffffffffffffffffffffffff169050816000806101000a81548173ffffffffffffffffffffffffffffffffffffffff021916908373ffffffffffffffffffffffffffffffffffffffff1602179055508173ffffffffffffffffffffffffffffffffffffffff168173ffffffffffffffffffffffffffffffffffffffff167f8be0079c531659141344cd1fd0a4f28419497f9722a3daafe3b4186f6b6457e060405160405180910390a35050565b6000816113886000190304831115821517610ed257600080fd5b6127106113888385020104905092915050565b610f7d8282604051602401610efb929190611bf4565b6040516020818303038152906040527f319af333000000000000000000000000000000000000000000000000000000007bffffffffffffffffffffffffffffffffffffffffffffffffffffffff19166020820180517bffffffffffffffffffffffffffffffffffffffffffffffffffffffff8381831617835250505050610f81565b5050565b60008151905060006a636f6e736f6c652e6c6f679050602083016000808483855afa5050505050565b6000604051905090565b600080fd5b600080fd5b600073ffffffffffffffffffffffffffffffffffffffff82169050919050565b6000610fe982610fbe565b9050919050565b610ff981610fde565b811461100457600080fd5b50565b60008135905061101681610ff0565b92915050565b60006020828403121561103257611031610fb4565b5b600061104084828501611007565b91505092915050565b6000819050919050565b61105c81611049565b82525050565b60006020820190506110776000830184611053565b92915050565b6000819050919050565b6110908161107d565b811461109b57600080fd5b50565b6000813590506110ad81611087565b92915050565b6110bc81611049565b81146110c757600080fd5b50565b6000813590506110d9816110b3565b92915050565b600080fd5b600060c082840312156110fa576110f96110df565b5b81905092915050565b6000806000806080858703121561111d5761111c610fb4565b5b600061112b87828801611007565b945050602061113c8782880161109e565b935050604061114d878288016110ca565b925050606085013567ffffffffffffffff81111561116e5761116d610fb9565b5b61117a878288016110e4565b91505092959194509250565b61118f8161107d565b82525050565b60006020820190506111aa6000830184611186565b92915050565b600080604083850312156111c7576111c6610fb4565b5b60006111d585828601611007565b92505060206111e68582860161109e565b9150509250929050565b60008115159050919050565b611205816111f0565b82525050565b600060208201905061122060008301846111fc565b92915050565b61122f81610fde565b82525050565b600060208201905061124a6000830184611226565b92915050565b600080600080600060a0868803121561126c5761126b610fb4565b5b600061127a88828901611007565b955050602061128b88828901611007565b945050604061129c8882890161109e565b93505060606112ad888289016110ca565b925050608086013567ffffffffffffffff8111156112ce576112cd610fb9565b5b6112da888289016110e4565b9150509295509295909350565b600082825260208201905092915050565b7f4f776e61626c653a2063616c6c6572206973206e6f7420746865206f776e6572600082015250565b600061132e6020836112e7565b9150611339826112f8565b602082019050919050565b6000602082019050818103600083015261135d81611321565b9050919050565b60008151905061137381610ff0565b92915050565b60006020828403121561138f5761138e610fb4565b5b600061139d84828501611364565b91505092915050565b60006040820190506113bb6000830185611226565b6113c86020830184611226565b9392505050565b6000815190506113de81611087565b92915050565b6000602082840312156113fa576113f9610fb4565b5b6000611408848285016113cf565b91505092915050565b7f4e487b7100000000000000000000000000000000000000000000000000000000600052601160045260246000fd5b600061144b8261107d565b91506114568361107d565b9250827fffffffffffffffffffffffffffffffffffffffffffffffffffffffffffffffff0382111561148b5761148a611411565b5b828201905092915050565b7f4f776e61626c653a206e6577206f776e657220697320746865207a65726f206160008201527f6464726573730000000000000000000000000000000000000000000000000000602082015250565b60006114f26026836112e7565b91506114fd82611496565b604082019050919050565b60006020820190508181036000830152611521816114e5565b9050919050565b600060a08201905061153d6000830188611053565b61154a6020830187611053565b6115576040830186611053565b6115646060830185611186565b6115716080830184611226565b9695505050505050565b7f5061636b65742074696d657374616d7020697320696e76616c69640000000000600082015250565b60006115b1601b836112e7565b91506115bc8261157b565b602082019050919050565b600060208201905081810360008301526115e0816115a4565b9050919050565b7f52657175657374206e756d62657220646f65736e2774206d6174636800000000600082015250565b600061161d601c836112e7565b9150611628826115e7565b602082019050919050565b6000602082019050818103600083015261164c81611610565b9050919050565b600080fd5b600080fd5b600080fd5b6000808335600160200384360303811261167f5761167e611653565b5b80840192508235915067ffffffffffffffff8211156116a1576116a0611658565b5b6020830192506001820236038313156116bd576116bc61165d565b5b509250929050565b600081905092915050565b82818337600083830152505050565b60006116eb83856116c5565b93506116f88385846116d0565b82840190509392505050565b60006117118284866116df565b91508190509392505050565b60006080820190506117326000830187611053565b61173f6020830186611053565b61174c6040830185611186565b6117596060830184611053565b95945050505050565b600081905092915050565b7f1901000000000000000000000000000000000000000000000000000000000000600082015250565b60006117a3600283611762565b91506117ae8261176d565b600282019050919050565b6000819050919050565b6117d46117cf82611049565b6117b9565b82525050565b60006117e582611796565b91506117f182856117c3565b60208201915061180182846117c3565b6020820191508190509392505050565b600060ff82169050919050565b61182781611811565b811461183257600080fd5b50565b6000813590506118448161181e565b92915050565b6000602082840312156118605761185f610fb4565b5b600061186e84828501611835565b91505092915050565b61188081611811565b82525050565b600060808201905061189b6000830187611053565b6118a86020830186611877565b6118b56040830185611053565b6118c26060830184611053565b95945050505050565b7f5265636f7665726564206164647265737320697320696e76616c696400000000600082015250565b6000611901601c836112e7565b915061190c826118cb565b602082019050919050565b60006020820190508181036000830152611930816118f4565b9050919050565b600080fd5b6000601f19601f8301169050919050565b7f4e487b7100000000000000000000000000000000000000000000000000000000600052604160045260246000fd5b6119858261193c565b810181811067ffffffffffffffff821117156119a4576119a361194d565b5b80604052505050565b60006119b7610faa565b90506119c3828261197c565b919050565b6000606082840312156119de576119dd611937565b5b6119e860606119ad565b905060006119f884828501611007565b6000830152506020611a0c8482850161109e565b6020830152506040611a208482850161109e565b60408301525092915050565b600060608284031215611a4257611a41610fb4565b5b6000611a50848285016119c8565b91505092915050565b7f5265717565737420636f6c6c656374696f6e20616e6420636f6c6c656374696f60008201527f6e20646f6e277420636f696e6369646500000000000000000000000000000000602082015250565b6000611ab56030836112e7565b9150611ac082611a59565b604082019050919050565b60006020820190508181036000830152611ae481611aa8565b9050919050565b7f5265717565737420746f6b656e496420616e6420746f6b656e496420646f6e2760008201527f7420636f696e6369646500000000000000000000000000000000000000000000602082015250565b6000611b47602a836112e7565b9150611b5282611aeb565b604082019050919050565b60006020820190508181036000830152611b7681611b3a565b9050919050565b600081519050919050565b60005b83811015611ba6578082015181840152602081019050611b8b565b83811115611bb5576000848401525b50505050565b6000611bc682611b7d565b611bd081856112e7565b9350611be0818560208601611b88565b611be98161193c565b840191505092915050565b60006040820190508181036000830152611c0e8185611bbb565b9050611c1d6020830184611226565b939250505056fea2646970667358221220d883264a6ab5cc4e8ef16205bf43b12c9f42fa147ae53b5b6fd6b624ec74637964736f6c634300080f0033",
  "linkReferences": {},
  "deployedLinkReferences": {}
}