{
  "_format": "hh-sol-artifact-1",
  "contractName": "NFTOracle",
  "sourceName": "contracts/protocol/NFTOracle.sol",
  "abi": [
    {
      "anonymous": false,
      "inputs": [
        {
          "indexed": true,
          "internalType": "address",
          "name": "previousOwner",
          "type": "address"
        },
        {
          "indexed": true,
          "internalType": "address",
          "name": "newOwner",
          "type": "address"
        }
      ],
      "name": "OwnershipTransferred",
      "type": "event"
    },
    {
      "inputs": [],
      "name": "DOMAIN_SEPARATOR",
      "outputs": [
        {
          "internalType": "bytes32",
          "name": "",
          "type": "bytes32"
        }
      ],
      "stateMutability": "view",
      "type": "function"
    },
    {
      "inputs": [
        {
          "internalType": "address",
          "name": "collection",
          "type": "address"
        },
        {
          "internalType": "uint256",
          "name": "maxCollaterization",
          "type": "uint256"
        }
      ],
      "name": "addSupportedCollection",
      "outputs": [],
      "stateMutability": "nonpayable",
      "type": "function"
    },
    {
      "inputs": [
        {
          "internalType": "address",
          "name": "collection",
          "type": "address"
        }
      ],
      "name": "getCollectionMaxCollaterization",
      "outputs": [
        {
          "internalType": "uint256",
          "name": "",
          "type": "uint256"
        }
      ],
      "stateMutability": "view",
      "type": "function"
    },
    {
      "inputs": [
        {
          "internalType": "address",
          "name": "collection",
          "type": "address"
        },
        {
          "internalType": "uint256",
          "name": "tokenId",
          "type": "uint256"
        },
        {
          "internalType": "bytes32",
          "name": "request",
          "type": "bytes32"
        },
        {
          "components": [
            {
              "internalType": "uint8",
              "name": "v",
              "type": "uint8"
            },
            {
              "internalType": "bytes32",
              "name": "r",
              "type": "bytes32"
            },
            {
              "internalType": "bytes32",
              "name": "s",
              "type": "bytes32"
            },
            {
              "internalType": "bytes32",
              "name": "request",
              "type": "bytes32"
            },
            {
              "internalType": "uint256",
              "name": "deadline",
              "type": "uint256"
            },
            {
              "internalType": "bytes",
              "name": "payload",
              "type": "bytes"
            }
          ],
          "internalType": "struct Trustus.TrustusPacket",
          "name": "packet",
          "type": "tuple"
        }
      ],
      "name": "getTokenETHPrice",
      "outputs": [
        {
          "internalType": "uint256",
          "name": "",
          "type": "uint256"
        }
      ],
      "stateMutability": "view",
      "type": "function"
    },
    {
      "inputs": [
        {
          "internalType": "address",
          "name": "collection",
          "type": "address"
        },
        {
          "internalType": "uint256",
          "name": "tokenId",
          "type": "uint256"
        },
        {
          "internalType": "bytes32",
          "name": "request",
          "type": "bytes32"
        },
        {
          "components": [
            {
              "internalType": "uint8",
              "name": "v",
              "type": "uint8"
            },
            {
              "internalType": "bytes32",
              "name": "r",
              "type": "bytes32"
            },
            {
              "internalType": "bytes32",
              "name": "s",
              "type": "bytes32"
            },
            {
              "internalType": "bytes32",
              "name": "request",
              "type": "bytes32"
            },
            {
              "internalType": "uint256",
              "name": "deadline",
              "type": "uint256"
            },
            {
              "internalType": "bytes",
              "name": "payload",
              "type": "bytes"
            }
          ],
          "internalType": "struct Trustus.TrustusPacket",
          "name": "packet",
          "type": "tuple"
        }
      ],
      "name": "getTokenMaxETHCollateral",
      "outputs": [
        {
          "internalType": "uint256",
          "name": "",
          "type": "uint256"
        }
      ],
      "stateMutability": "view",
      "type": "function"
    },
    {
      "inputs": [
        {
          "internalType": "address",
          "name": "collection",
          "type": "address"
        }
      ],
      "name": "isCollectionSupported",
      "outputs": [
        {
          "internalType": "bool",
          "name": "",
          "type": "bool"
        }
      ],
      "stateMutability": "view",
      "type": "function"
    },
    {
      "inputs": [
        {
          "internalType": "address",
          "name": "signer",
          "type": "address"
        }
      ],
      "name": "isSourceTrusted",
      "outputs": [
        {
          "internalType": "bool",
          "name": "",
          "type": "bool"
        }
      ],
      "stateMutability": "view",
      "type": "function"
    },
    {
      "inputs": [],
      "name": "owner",
      "outputs": [
        {
          "internalType": "address",
          "name": "",
          "type": "address"
        }
      ],
      "stateMutability": "view",
      "type": "function"
    },
    {
      "inputs": [
        {
          "internalType": "address",
          "name": "collection",
          "type": "address"
        }
      ],
      "name": "removeSupportedCollection",
      "outputs": [],
      "stateMutability": "nonpayable",
      "type": "function"
    },
    {
      "inputs": [],
      "name": "renounceOwnership",
      "outputs": [],
      "stateMutability": "nonpayable",
      "type": "function"
    },
    {
      "inputs": [
        {
          "internalType": "address",
          "name": "signer",
          "type": "address"
        }
      ],
      "name": "setTrustedPriceSource",
      "outputs": [],
      "stateMutability": "nonpayable",
      "type": "function"
    },
    {
      "inputs": [
        {
          "internalType": "address",
          "name": "newOwner",
          "type": "address"
        }
      ],
      "name": "transferOwnership",
      "outputs": [],
      "stateMutability": "nonpayable",
      "type": "function"
    }
  ],
  "bytecode": "0x60c06040523480156200001157600080fd5b5062000032620000266200005760201b60201c565b6200005f60201b60201c565b46608081815250506200004a6200012360201b60201c565b60a0818152505062000293565b600033905090565b60008060009054906101000a900473ffffffffffffffffffffffffffffffffffffffff169050816000806101000a81548173ffffffffffffffffffffffffffffffffffffffff021916908373ffffffffffffffffffffffffffffffffffffffff1602179055508173ffffffffffffffffffffffffffffffffffffffff168173ffffffffffffffffffffffffffffffffffffffff167f8be0079c531659141344cd1fd0a4f28419497f9722a3daafe3b4186f6b6457e060405160405180910390a35050565b60007f8b73c3c69bb8fe3d512ecc4cf759cc79239f7b179b0ffacaa9a75d522b39400f7f118e7890157efb533a050dce8fe5a02b428bdf432762e2e91914807054e2d9657fc89efdaa54c0f20c7adf612882df0950f5a951637e0307cdcb4c672f298b8bc64630604051602001620001a095949392919062000236565b60405160208183030381529060405280519060200120905090565b6000819050919050565b620001d081620001bb565b82525050565b6000819050919050565b620001eb81620001d6565b82525050565b600073ffffffffffffffffffffffffffffffffffffffff82169050919050565b60006200021e82620001f1565b9050919050565b620002308162000211565b82525050565b600060a0820190506200024d6000830188620001c5565b6200025c6020830187620001c5565b6200026b6040830186620001c5565b6200027a6060830185620001e0565b62000289608083018462000225565b9695505050505050565b60805160a05161196d620002b960003960006102a501526000610271015261196d6000f3fe608060405234801561001057600080fd5b50600436106100b45760003560e01c806379ae0b981161007157806379ae0b98146101795780637f2ee904146101a95780638385e897146101d95780638da5cb5b146101f557806394eb325414610213578063f2fde38b14610243576100b4565b80631b8e225d146100b95780633644e515146100d55780633d638ac7146100f357806348bb36e414610123578063497b4ce51461013f578063715018a61461016f575b600080fd5b6100d360048036038101906100ce9190610ef8565b61025f565b005b6100dd61026d565b6040516100ea9190610f3e565b60405180910390f35b61010d60048036038101906101089190610fdf565b6102ca565b60405161011a9190611071565b60405180910390f35b61013d6004803603810190610138919061108c565b6102ef565b005b61015960048036038101906101549190610ef8565b610407565b60405161016691906110e7565b60405180910390f35b610177610460565b005b610193600480360381019061018e9190610ef8565b6104e8565b6040516101a091906110e7565b60405180910390f35b6101c360048036038101906101be9190610fdf565b6104fa565b6040516101d09190611071565b60405180910390f35b6101f360048036038101906101ee9190610ef8565b610570565b005b6101fd610655565b60405161020a9190611111565b60405180910390f35b61022d60048036038101906102289190610ef8565b61067e565b60405161023a9190611071565b60405180910390f35b61025d60048036038101906102589190610ef8565b6106ca565b005b61026a8160016107c1565b50565b60007f000000000000000000000000000000000000000000000000000000000000000046146102a35761029e61081c565b6102c5565b7f00000000000000000000000000000000000000000000000000000000000000005b905090565b600082826102d882826108b2565b6102e3878786610b5c565b92505050949350505050565b6102f7610c45565b73ffffffffffffffffffffffffffffffffffffffff16610315610655565b73ffffffffffffffffffffffffffffffffffffffff161461036b576040517f08c379a000000000000000000000000000000000000000000000000000000000815260040161036290611189565b60405180910390fd5b6103b2600260008473ffffffffffffffffffffffffffffffffffffffff1673ffffffffffffffffffffffffffffffffffffffff168152602001908152602001600020610c4d565b61040381600260008573ffffffffffffffffffffffffffffffffffffffff1673ffffffffffffffffffffffffffffffffffffffff168152602001908152602001600020610c6d90919063ffffffff16565b5050565b6000600260008373ffffffffffffffffffffffffffffffffffffffff1673ffffffffffffffffffffffffffffffffffffffff16815260200190815260200160002060000160009054906101000a900460ff169050919050565b610468610c45565b73ffffffffffffffffffffffffffffffffffffffff16610486610655565b73ffffffffffffffffffffffffffffffffffffffff16146104dc576040517f08c379a00000000000000000000000000000000000000000000000000000000081526004016104d390611189565b60405180910390fd5b6104e66000610c7a565b565b60006104f382610d3e565b9050919050565b6000828261050882826108b2565b6000610515888887610b5c565b905061056381600260008b73ffffffffffffffffffffffffffffffffffffffff1673ffffffffffffffffffffffffffffffffffffffff16815260200190815260200160002060010154610d94565b9350505050949350505050565b610578610c45565b73ffffffffffffffffffffffffffffffffffffffff16610596610655565b73ffffffffffffffffffffffffffffffffffffffff16146105ec576040517f08c379a00000000000000000000000000000000000000000000000000000000081526004016105e390611189565b60405180910390fd5b600260008273ffffffffffffffffffffffffffffffffffffffff1673ffffffffffffffffffffffffffffffffffffffff168152602001908152602001600020600080820160006101000a81549060ff021916905560018201600090556002820160009055505050565b60008060009054906101000a900473ffffffffffffffffffffffffffffffffffffffff16905090565b6000600260008373ffffffffffffffffffffffffffffffffffffffff1673ffffffffffffffffffffffffffffffffffffffff168152602001908152602001600020600101549050919050565b6106d2610c45565b73ffffffffffffffffffffffffffffffffffffffff166106f0610655565b73ffffffffffffffffffffffffffffffffffffffff1614610746576040517f08c379a000000000000000000000000000000000000000000000000000000000815260040161073d90611189565b60405180910390fd5b600073ffffffffffffffffffffffffffffffffffffffff168173ffffffffffffffffffffffffffffffffffffffff16036107b5576040517f08c379a00000000000000000000000000000000000000000000000000000000081526004016107ac9061121b565b60405180910390fd5b6107be81610c7a565b50565b80600160008473ffffffffffffffffffffffffffffffffffffffff1673ffffffffffffffffffffffffffffffffffffffff16815260200190815260200160002060006101000a81548160ff0219169083151502179055505050565b60007f8b73c3c69bb8fe3d512ecc4cf759cc79239f7b179b0ffacaa9a75d522b39400f7f118e7890157efb533a050dce8fe5a02b428bdf432762e2e91914807054e2d9657fc89efdaa54c0f20c7adf612882df0950f5a951637e0307cdcb4c672f298b8bc6463060405160200161089795949392919061123b565b60405160208183030381529060405280519060200120905090565b806080013542106108f8576040517f08c379a00000000000000000000000000000000000000000000000000000000081526004016108ef906112da565b60405180910390fd5b8060600135821461093e576040517f08c379a000000000000000000000000000000000000000000000000000000000815260040161093590611346565b60405180910390fd5b6000600161094a61026d565b7ffc7ecbf4f091085173dad8d1d3c2dfd218c018596a572201cd849763d1114e7a84606001358560800135868060a001906109859190611375565b604051610993929190611417565b60405180910390206040516020016109ae9493929190611430565b604051602081830303815290604052805190602001206040516020016109d59291906114ed565b604051602081830303815290604052805190602001208360000160208101906109fe919061155d565b8460200135856040013560405160008152602001604052604051610a259493929190611599565b6020604051602081039080840390855afa158015610a47573d6000803e3d6000fd5b505050602060405103519050610a926040518060400160405280601081526020017f7265636f7665726564416464726573730000000000000000000000000000000081525082610dc1565b600073ffffffffffffffffffffffffffffffffffffffff168173ffffffffffffffffffffffffffffffffffffffff1614158015610b185750600160008273ffffffffffffffffffffffffffffffffffffffff1673ffffffffffffffffffffffffffffffffffffffff16815260200190815260200160002060009054906101000a900460ff165b610b57576040517f08c379a0000000000000000000000000000000000000000000000000000000008152600401610b4e9061162a565b60405180910390fd5b505050565b600080828060a00190610b6f9190611375565b810190610b7c919061173f565b9050806000015173ffffffffffffffffffffffffffffffffffffffff168573ffffffffffffffffffffffffffffffffffffffff1614610bf0576040517f08c379a0000000000000000000000000000000000000000000000000000000008152600401610be7906117de565b60405180910390fd5b80602001518414610c36576040517f08c379a0000000000000000000000000000000000000000000000000000000008152600401610c2d90611870565b60405180910390fd5b80604001519150509392505050565b600033905090565b60018160000160006101000a81548160ff02191690831515021790555050565b8082600101819055505050565b60008060009054906101000a900473ffffffffffffffffffffffffffffffffffffffff169050816000806101000a81548173ffffffffffffffffffffffffffffffffffffffff021916908373ffffffffffffffffffffffffffffffffffffffff1602179055508173ffffffffffffffffffffffffffffffffffffffff168173ffffffffffffffffffffffffffffffffffffffff167f8be0079c531659141344cd1fd0a4f28419497f9722a3daafe3b4186f6b6457e060405160405180910390a35050565b6000600160008373ffffffffffffffffffffffffffffffffffffffff1673ffffffffffffffffffffffffffffffffffffffff16815260200190815260200160002060009054906101000a900460ff169050919050565b6000816113886000190304831115821517610dae57600080fd5b6127106113888385020104905092915050565b610e598282604051602401610dd7929190611907565b6040516020818303038152906040527f319af333000000000000000000000000000000000000000000000000000000007bffffffffffffffffffffffffffffffffffffffffffffffffffffffff19166020820180517bffffffffffffffffffffffffffffffffffffffffffffffffffffffff8381831617835250505050610e5d565b5050565b60008151905060006a636f6e736f6c652e6c6f679050602083016000808483855afa5050505050565b6000604051905090565b600080fd5b600080fd5b600073ffffffffffffffffffffffffffffffffffffffff82169050919050565b6000610ec582610e9a565b9050919050565b610ed581610eba565b8114610ee057600080fd5b50565b600081359050610ef281610ecc565b92915050565b600060208284031215610f0e57610f0d610e90565b5b6000610f1c84828501610ee3565b91505092915050565b6000819050919050565b610f3881610f25565b82525050565b6000602082019050610f536000830184610f2f565b92915050565b6000819050919050565b610f6c81610f59565b8114610f7757600080fd5b50565b600081359050610f8981610f63565b92915050565b610f9881610f25565b8114610fa357600080fd5b50565b600081359050610fb581610f8f565b92915050565b600080fd5b600060c08284031215610fd657610fd5610fbb565b5b81905092915050565b60008060008060808587031215610ff957610ff8610e90565b5b600061100787828801610ee3565b945050602061101887828801610f7a565b935050604061102987828801610fa6565b925050606085013567ffffffffffffffff81111561104a57611049610e95565b5b61105687828801610fc0565b91505092959194509250565b61106b81610f59565b82525050565b60006020820190506110866000830184611062565b92915050565b600080604083850312156110a3576110a2610e90565b5b60006110b185828601610ee3565b92505060206110c285828601610f7a565b9150509250929050565b60008115159050919050565b6110e1816110cc565b82525050565b60006020820190506110fc60008301846110d8565b92915050565b61110b81610eba565b82525050565b60006020820190506111266000830184611102565b92915050565b600082825260208201905092915050565b7f4f776e61626c653a2063616c6c6572206973206e6f7420746865206f776e6572600082015250565b600061117360208361112c565b915061117e8261113d565b602082019050919050565b600060208201905081810360008301526111a281611166565b9050919050565b7f4f776e61626c653a206e6577206f776e657220697320746865207a65726f206160008201527f6464726573730000000000000000000000000000000000000000000000000000602082015250565b600061120560268361112c565b9150611210826111a9565b604082019050919050565b60006020820190508181036000830152611234816111f8565b9050919050565b600060a0820190506112506000830188610f2f565b61125d6020830187610f2f565b61126a6040830186610f2f565b6112776060830185611062565b6112846080830184611102565b9695505050505050565b7f5061636b65742074696d657374616d7020697320696e76616c69640000000000600082015250565b60006112c4601b8361112c565b91506112cf8261128e565b602082019050919050565b600060208201905081810360008301526112f3816112b7565b9050919050565b7f52657175657374206e756d62657220646f65736e2774206d6174636800000000600082015250565b6000611330601c8361112c565b915061133b826112fa565b602082019050919050565b6000602082019050818103600083015261135f81611323565b9050919050565b600080fd5b600080fd5b600080fd5b6000808335600160200384360303811261139257611391611366565b5b80840192508235915067ffffffffffffffff8211156113b4576113b361136b565b5b6020830192506001820236038313156113d0576113cf611370565b5b509250929050565b600081905092915050565b82818337600083830152505050565b60006113fe83856113d8565b935061140b8385846113e3565b82840190509392505050565b60006114248284866113f2565b91508190509392505050565b60006080820190506114456000830187610f2f565b6114526020830186610f2f565b61145f6040830185611062565b61146c6060830184610f2f565b95945050505050565b600081905092915050565b7f1901000000000000000000000000000000000000000000000000000000000000600082015250565b60006114b6600283611475565b91506114c182611480565b600282019050919050565b6000819050919050565b6114e76114e282610f25565b6114cc565b82525050565b60006114f8826114a9565b915061150482856114d6565b60208201915061151482846114d6565b6020820191508190509392505050565b600060ff82169050919050565b61153a81611524565b811461154557600080fd5b50565b60008135905061155781611531565b92915050565b60006020828403121561157357611572610e90565b5b600061158184828501611548565b91505092915050565b61159381611524565b82525050565b60006080820190506115ae6000830187610f2f565b6115bb602083018661158a565b6115c86040830185610f2f565b6115d56060830184610f2f565b95945050505050565b7f5265636f7665726564206164647265737320697320696e76616c696400000000600082015250565b6000611614601c8361112c565b915061161f826115de565b602082019050919050565b6000602082019050818103600083015261164381611607565b9050919050565b600080fd5b6000601f19601f8301169050919050565b7f4e487b7100000000000000000000000000000000000000000000000000000000600052604160045260246000fd5b6116988261164f565b810181811067ffffffffffffffff821117156116b7576116b6611660565b5b80604052505050565b60006116ca610e86565b90506116d6828261168f565b919050565b6000606082840312156116f1576116f061164a565b5b6116fb60606116c0565b9050600061170b84828501610ee3565b600083015250602061171f84828501610f7a565b602083015250604061173384828501610f7a565b60408301525092915050565b60006060828403121561175557611754610e90565b5b6000611763848285016116db565b91505092915050565b7f5265717565737420636f6c6c656374696f6e20616e6420636f6c6c656374696f60008201527f6e20646f6e277420636f696e6369646500000000000000000000000000000000602082015250565b60006117c860308361112c565b91506117d38261176c565b604082019050919050565b600060208201905081810360008301526117f7816117bb565b9050919050565b7f5265717565737420746f6b656e496420616e6420746f6b656e496420646f6e2760008201527f7420636f696e6369646500000000000000000000000000000000000000000000602082015250565b600061185a602a8361112c565b9150611865826117fe565b604082019050919050565b600060208201905081810360008301526118898161184d565b9050919050565b600081519050919050565b60005b838110156118b957808201518184015260208101905061189e565b838111156118c8576000848401525b50505050565b60006118d982611890565b6118e3818561112c565b93506118f381856020860161189b565b6118fc8161164f565b840191505092915050565b6000604082019050818103600083015261192181856118ce565b90506119306020830184611102565b939250505056fea2646970667358221220ae8b4d85eccfbbee1533944b081b9548079976e9803b6a8faf84869afbdbc17464736f6c634300080f0033",
  "linkReferences": {},
  "deployedLinkReferences": {}
}