{
  "_format": "hh-sol-artifact-1",
  "contractName": "Reserve",
  "sourceName": "contracts/protocol/Reserve.sol",
  "abi": [
    {
      "anonymous": false,
      "inputs": [
        {
          "indexed": true,
          "internalType": "address",
          "name": "owner",
          "type": "address"
        },
        {
          "indexed": true,
          "internalType": "address",
          "name": "spender",
          "type": "address"
        },
        {
          "indexed": false,
          "internalType": "uint256",
          "name": "value",
          "type": "uint256"
        }
      ],
      "name": "Approval",
      "type": "event"
    },
    {
      "anonymous": false,
      "inputs": [
        {
          "indexed": false,
          "internalType": "uint8",
          "name": "version",
          "type": "uint8"
        }
      ],
      "name": "Initialized",
      "type": "event"
    },
    {
      "anonymous": false,
      "inputs": [
        {
          "indexed": true,
          "internalType": "address",
          "name": "previousOwner",
          "type": "address"
        },
        {
          "indexed": true,
          "internalType": "address",
          "name": "newOwner",
          "type": "address"
        }
      ],
      "name": "OwnershipTransferred",
      "type": "event"
    },
    {
      "anonymous": false,
      "inputs": [
        {
          "indexed": true,
          "internalType": "address",
          "name": "from",
          "type": "address"
        },
        {
          "indexed": true,
          "internalType": "address",
          "name": "to",
          "type": "address"
        },
        {
          "indexed": false,
          "internalType": "uint256",
          "name": "value",
          "type": "uint256"
        }
      ],
      "name": "Transfer",
      "type": "event"
    },
    {
      "inputs": [
        {
          "internalType": "address",
          "name": "owner",
          "type": "address"
        },
        {
          "internalType": "address",
          "name": "spender",
          "type": "address"
        }
      ],
      "name": "allowance",
      "outputs": [
        {
          "internalType": "uint256",
          "name": "",
          "type": "uint256"
        }
      ],
      "stateMutability": "view",
      "type": "function"
    },
    {
      "inputs": [
        {
          "internalType": "address",
          "name": "spender",
          "type": "address"
        },
        {
          "internalType": "uint256",
          "name": "amount",
          "type": "uint256"
        }
      ],
      "name": "approve",
      "outputs": [
        {
          "internalType": "bool",
          "name": "",
          "type": "bool"
        }
      ],
      "stateMutability": "nonpayable",
      "type": "function"
    },
    {
      "inputs": [
        {
          "internalType": "address",
          "name": "account",
          "type": "address"
        }
      ],
      "name": "balanceOf",
      "outputs": [
        {
          "internalType": "uint256",
          "name": "",
          "type": "uint256"
        }
      ],
      "stateMutability": "view",
      "type": "function"
    },
    {
      "inputs": [
        {
          "internalType": "address",
          "name": "user",
          "type": "address"
        },
        {
          "internalType": "uint256",
          "name": "amount",
          "type": "uint256"
        }
      ],
      "name": "burn",
      "outputs": [],
      "stateMutability": "nonpayable",
      "type": "function"
    },
    {
      "inputs": [
        {
          "internalType": "uint256",
          "name": "liquidationPenalty",
          "type": "uint256"
        }
      ],
      "name": "changeLiquidationPenalty",
      "outputs": [],
      "stateMutability": "nonpayable",
      "type": "function"
    },
    {
      "inputs": [
        {
          "internalType": "uint256",
          "name": "protocolLiquidationFee",
          "type": "uint256"
        }
      ],
      "name": "changeProtocolLiquidationFee",
      "outputs": [],
      "stateMutability": "nonpayable",
      "type": "function"
    },
    {
      "inputs": [],
      "name": "decimals",
      "outputs": [
        {
          "internalType": "uint8",
          "name": "",
          "type": "uint8"
        }
      ],
      "stateMutability": "view",
      "type": "function"
    },
    {
      "inputs": [
        {
          "internalType": "address",
          "name": "spender",
          "type": "address"
        },
        {
          "internalType": "uint256",
          "name": "subtractedValue",
          "type": "uint256"
        }
      ],
      "name": "decreaseAllowance",
      "outputs": [
        {
          "internalType": "bool",
          "name": "",
          "type": "bool"
        }
      ],
      "stateMutability": "nonpayable",
      "type": "function"
    },
    {
      "inputs": [
        {
          "internalType": "address",
          "name": "depositor",
          "type": "address"
        },
        {
          "internalType": "uint256",
          "name": "amount",
          "type": "uint256"
        }
      ],
      "name": "depositUnderlying",
      "outputs": [],
      "stateMutability": "nonpayable",
      "type": "function"
    },
    {
      "inputs": [],
      "name": "getBorrowRate",
      "outputs": [
        {
          "internalType": "uint256",
          "name": "",
          "type": "uint256"
        }
      ],
      "stateMutability": "view",
      "type": "function"
    },
    {
      "inputs": [],
      "name": "getCumulativeBorrowRate",
      "outputs": [
        {
          "internalType": "uint256",
          "name": "",
          "type": "uint256"
        }
      ],
      "stateMutability": "view",
      "type": "function"
    },
    {
      "inputs": [],
      "name": "getDebt",
      "outputs": [
        {
          "internalType": "uint256",
          "name": "",
          "type": "uint256"
        }
      ],
      "stateMutability": "view",
      "type": "function"
    },
    {
      "inputs": [],
      "name": "getLiquidationPenalty",
      "outputs": [
        {
          "internalType": "uint256",
          "name": "",
          "type": "uint256"
        }
      ],
      "stateMutability": "view",
      "type": "function"
    },
    {
      "inputs": [
        {
          "internalType": "address",
          "name": "to",
          "type": "address"
        }
      ],
      "name": "getMaximumWithdrawalAmount",
      "outputs": [
        {
          "internalType": "uint256",
          "name": "",
          "type": "uint256"
        }
      ],
      "stateMutability": "view",
      "type": "function"
    },
    {
      "inputs": [],
      "name": "getProtocolLiquidationFee",
      "outputs": [
        {
          "internalType": "uint256",
          "name": "",
          "type": "uint256"
        }
      ],
      "stateMutability": "view",
      "type": "function"
    },
    {
      "inputs": [],
      "name": "getUnderlyingBalance",
      "outputs": [
        {
          "internalType": "uint256",
          "name": "",
          "type": "uint256"
        }
      ],
      "stateMutability": "view",
      "type": "function"
    },
    {
      "inputs": [],
      "name": "getUtilizationRate",
      "outputs": [
        {
          "internalType": "uint256",
          "name": "",
          "type": "uint256"
        }
      ],
      "stateMutability": "view",
      "type": "function"
    },
    {
      "inputs": [
        {
          "internalType": "address",
          "name": "spender",
          "type": "address"
        },
        {
          "internalType": "uint256",
          "name": "addedValue",
          "type": "uint256"
        }
      ],
      "name": "increaseAllowance",
      "outputs": [
        {
          "internalType": "bool",
          "name": "",
          "type": "bool"
        }
      ],
      "stateMutability": "nonpayable",
      "type": "function"
    },
    {
      "inputs": [
        {
          "internalType": "contract IMarketAddressesProvider",
          "name": "addressProvider",
          "type": "address"
        },
        {
          "internalType": "address",
          "name": "asset",
          "type": "address"
        },
        {
          "internalType": "string",
          "name": "name",
          "type": "string"
        },
        {
          "internalType": "string",
          "name": "symbol",
          "type": "string"
        },
        {
          "internalType": "uint256",
          "name": "liquidationPenalty",
          "type": "uint256"
        },
        {
          "internalType": "uint256",
          "name": "protocolLiquidationFee",
          "type": "uint256"
        }
      ],
      "name": "initialize",
      "outputs": [],
      "stateMutability": "nonpayable",
      "type": "function"
    },
    {
      "inputs": [
        {
          "internalType": "address",
          "name": "user",
          "type": "address"
        },
        {
          "internalType": "uint256",
          "name": "amount",
          "type": "uint256"
        }
      ],
      "name": "mint",
      "outputs": [],
      "stateMutability": "nonpayable",
      "type": "function"
    },
    {
      "inputs": [],
      "name": "name",
      "outputs": [
        {
          "internalType": "string",
          "name": "",
          "type": "string"
        }
      ],
      "stateMutability": "view",
      "type": "function"
    },
    {
      "inputs": [],
      "name": "owner",
      "outputs": [
        {
          "internalType": "address",
          "name": "",
          "type": "address"
        }
      ],
      "stateMutability": "view",
      "type": "function"
    },
    {
      "inputs": [
        {
          "internalType": "address",
          "name": "from",
          "type": "address"
        },
        {
          "internalType": "uint256",
          "name": "amount",
          "type": "uint256"
        },
        {
          "internalType": "uint256",
          "name": "borrowRate",
          "type": "uint256"
        },
        {
          "internalType": "uint256",
          "name": "interest",
          "type": "uint256"
        }
      ],
      "name": "receiveUnderlying",
      "outputs": [],
      "stateMutability": "nonpayable",
      "type": "function"
    },
    {
      "inputs": [
        {
          "internalType": "address",
          "name": "from",
          "type": "address"
        },
        {
          "internalType": "uint256",
          "name": "amount",
          "type": "uint256"
        },
        {
          "internalType": "uint256",
          "name": "borrowRate",
          "type": "uint256"
        },
        {
          "internalType": "uint256",
          "name": "defaultedDebt",
          "type": "uint256"
        }
      ],
      "name": "receiveUnderlyingDefaulted",
      "outputs": [],
      "stateMutability": "nonpayable",
      "type": "function"
    },
    {
      "inputs": [],
      "name": "renounceOwnership",
      "outputs": [],
      "stateMutability": "nonpayable",
      "type": "function"
    },
    {
      "inputs": [],
      "name": "symbol",
      "outputs": [
        {
          "internalType": "string",
          "name": "",
          "type": "string"
        }
      ],
      "stateMutability": "view",
      "type": "function"
    },
    {
      "inputs": [],
      "name": "totalSupply",
      "outputs": [
        {
          "internalType": "uint256",
          "name": "",
          "type": "uint256"
        }
      ],
      "stateMutability": "view",
      "type": "function"
    },
    {
      "inputs": [
        {
          "internalType": "address",
          "name": "to",
          "type": "address"
        },
        {
          "internalType": "uint256",
          "name": "amount",
          "type": "uint256"
        }
      ],
      "name": "transfer",
      "outputs": [
        {
          "internalType": "bool",
          "name": "",
          "type": "bool"
        }
      ],
      "stateMutability": "nonpayable",
      "type": "function"
    },
    {
      "inputs": [
        {
          "internalType": "address",
          "name": "from",
          "type": "address"
        },
        {
          "internalType": "address",
          "name": "to",
          "type": "address"
        },
        {
          "internalType": "uint256",
          "name": "amount",
          "type": "uint256"
        }
      ],
      "name": "transferFrom",
      "outputs": [
        {
          "internalType": "bool",
          "name": "",
          "type": "bool"
        }
      ],
      "stateMutability": "nonpayable",
      "type": "function"
    },
    {
      "inputs": [
        {
          "internalType": "address",
          "name": "newOwner",
          "type": "address"
        }
      ],
      "name": "transferOwnership",
      "outputs": [],
      "stateMutability": "nonpayable",
      "type": "function"
    },
    {
      "inputs": [
        {
          "internalType": "address",
          "name": "to",
          "type": "address"
        },
        {
          "internalType": "uint256",
          "name": "amount",
          "type": "uint256"
        },
        {
          "internalType": "uint256",
          "name": "borrowRate",
          "type": "uint256"
        }
      ],
      "name": "transferUnderlying",
      "outputs": [],
      "stateMutability": "nonpayable",
      "type": "function"
    },
    {
      "inputs": [
        {
          "internalType": "address",
          "name": "to",
          "type": "address"
        },
        {
          "internalType": "uint256",
          "name": "amount",
          "type": "uint256"
        }
      ],
      "name": "withdrawUnderlying",
      "outputs": [],
      "stateMutability": "nonpayable",
      "type": "function"
    }
  ],
  "bytecode": "0x608060405234801561001057600080fd5b50614097806100206000396000f3fe608060405234801561001057600080fd5b50600436106101f05760003560e01c8063715018a61161010f578063a457c2d7116100a2578063dd62ed3e11610071578063dd62ed3e14610595578063e2c67439146105c5578063f2fde38b146105e3578063fdb87252146105ff576101f0565b8063a457c2d7146104fb578063a663f8301461052b578063a9059cbb14610547578063ba1c5e8014610577576101f0565b8063900b6f82116100de578063900b6f821461048757806395d89b41146104a55780639dc29fac146104c3578063a2258694146104df576101f0565b8063715018a61461042757806375d0f29f1461043157806379c2c9541461044d5780638da5cb5b14610469576101f0565b8063313ce567116101875780634a417a53116101565780634a417a53146103a1578063545039c6146103bf5780636c3c7c4e146103db57806370a08231146103f7576101f0565b8063313ce5671461030757806339509351146103255780633e680e7a1461035557806340c10f1914610385576101f0565b80631e522b29116101c35780631e522b291461027f578063235bd4631461029d57806323b872dd146102bb5780632a97d8a6146102eb576101f0565b806306fdde03146101f5578063095ea7b31461021357806314a6bf0f1461024357806318160ddd14610261575b600080fd5b6101fd61061b565b60405161020a9190612b2f565b60405180910390f35b61022d60048036038101906102289190612bef565b6106ad565b60405161023a9190612c4a565b60405180910390f35b61024b6106d0565b6040516102589190612c74565b60405180910390f35b6102696106df565b6040516102769190612c74565b60405180910390f35b6102876106e9565b6040516102949190612c74565b60405180910390f35b6102a56106f3565b6040516102b29190612c74565b60405180910390f35b6102d560048036038101906102d09190612c8f565b6106fd565b6040516102e29190612c4a565b60405180910390f35b61030560048036038101906103009190612ce2565b61072c565b005b61030f6107b2565b60405161031c9190612d2b565b60405180910390f35b61033f600480360381019061033a9190612bef565b6107bb565b60405161034c9190612c4a565b60405180910390f35b61036f600480360381019061036a9190612d46565b6107f2565b60405161037c9190612c74565b60405180910390f35b61039f600480360381019061039a9190612bef565b610875565b005b6103a9610988565b6040516103b69190612c74565b60405180910390f35b6103d960048036038101906103d49190612d73565b610aa9565b005b6103f560048036038101906103f09190612ce2565b610c3b565b005b610411600480360381019061040c9190612d46565b610cc1565b60405161041e9190612c74565b60405180910390f35b61042f610d0a565b005b61044b60048036038101906104469190612bef565b610d92565b005b61046760048036038101906104629190612e7d565b610ef2565b005b6104716110b0565b60405161047e9190612f5b565b60405180910390f35b61048f6110da565b60405161049c9190612c74565b60405180910390f35b6104ad6110e4565b6040516104ba9190612b2f565b60405180910390f35b6104dd60048036038101906104d89190612bef565b611176565b005b6104f960048036038101906104f49190612f76565b611289565b005b61051560048036038101906105109190612bef565b61140d565b6040516105229190612c4a565b60405180910390f35b61054560048036038101906105409190612d73565b611484565b005b610561600480360381019061055c9190612bef565b61160b565b60405161056e9190612c4a565b60405180910390f35b61057f61162e565b60405161058c9190612c74565b60405180910390f35b6105af60048036038101906105aa9190612fc9565b611638565b6040516105bc9190612c74565b60405180910390f35b6105cd6116bf565b6040516105da9190612c74565b60405180910390f35b6105fd60048036038101906105f89190612d46565b6116ce565b005b61061960048036038101906106149190612bef565b6117c5565b005b60606036805461062a90613038565b80601f016020809104026020016040519081016040528092919081815260200182805461065690613038565b80156106a35780601f10610678576101008083540402835291602001916106a3565b820191906000526020600020905b81548152906001019060200180831161068657829003601f168201915b5050505050905090565b6000806106b8611923565b90506106c581858561192b565b600191505092915050565b60006106da611af4565b905090565b6000603554905090565b6000609c54905090565b6000609b54905090565b600080610708611923565b9050610715858285611afe565b610720858585611b8a565b60019150509392505050565b610734611923565b73ffffffffffffffffffffffffffffffffffffffff166107526110b0565b73ffffffffffffffffffffffffffffffffffffffff16146107a8576040517f08c379a000000000000000000000000000000000000000000000000000000000815260040161079f906130b5565b60405180910390fd5b80609c8190555050565b60006012905090565b6000806107c6611923565b90506107e78185856107d88589611638565b6107e29190613104565b61192b565b600191505092915050565b600073__$2f7c76ee15bdc1d8f3b34a04b86951fc56$__634af0799330846040518363ffffffff1660e01b815260040161082d929190613169565b602060405180830381865af415801561084a573d6000803e3d6000fd5b505050506040513d601f19601f8201168201806040525081019061086e91906131a7565b9050919050565b609760009054906101000a900473ffffffffffffffffffffffffffffffffffffffff1673ffffffffffffffffffffffffffffffffffffffff1663e7334fe56040518163ffffffff1660e01b8152600401602060405180830381865afa1580156108e2573d6000803e3d6000fd5b505050506040513d601f19601f8201168201806040525081019061090691906131e9565b73ffffffffffffffffffffffffffffffffffffffff16610924611923565b73ffffffffffffffffffffffffffffffffffffffff161461097a576040517f08c379a000000000000000000000000000000000000000000000000000000000815260040161097190613262565b60405180910390fd5b6109848282611e0c565b5050565b6000609760009054906101000a900473ffffffffffffffffffffffffffffffffffffffff1673ffffffffffffffffffffffffffffffffffffffff16635257b5666040518163ffffffff1660e01b8152600401602060405180830381865afa1580156109f7573d6000803e3d6000fd5b505050506040513d601f19601f82011682018060405250810190610a1b91906131e9565b73ffffffffffffffffffffffffffffffffffffffff166385c96306610a3e611f6c565b610a46611af4565b6040518363ffffffff1660e01b8152600401610a63929190613282565b602060405180830381865afa158015610a80573d6000803e3d6000fd5b505050506040513d601f19601f82011682018060405250810190610aa491906131a7565b905090565b609760009054906101000a900473ffffffffffffffffffffffffffffffffffffffff1673ffffffffffffffffffffffffffffffffffffffff1663e7334fe56040518163ffffffff1660e01b8152600401602060405180830381865afa158015610b16573d6000803e3d6000fd5b505050506040513d601f19601f82011682018060405250810190610b3a91906131e9565b73ffffffffffffffffffffffffffffffffffffffff16610b58611923565b73ffffffffffffffffffffffffffffffffffffffff1614610bae576040517f08c379a0000000000000000000000000000000000000000000000000000000008152600401610ba590613262565b60405180910390fd5b610c0884308386610bbf9190613104565b609860009054906101000a900473ffffffffffffffffffffffffffffffffffffffff1673ffffffffffffffffffffffffffffffffffffffff1661200f909392919063ffffffff16565b610c1460008484612098565b8260996000828254610c2691906132ab565b92505081905550610c35612154565b50505050565b610c43611923565b73ffffffffffffffffffffffffffffffffffffffff16610c616110b0565b73ffffffffffffffffffffffffffffffffffffffff1614610cb7576040517f08c379a0000000000000000000000000000000000000000000000000000000008152600401610cae906130b5565b60405180910390fd5b80609d8190555050565b6000603360008373ffffffffffffffffffffffffffffffffffffffff1673ffffffffffffffffffffffffffffffffffffffff168152602001908152602001600020549050919050565b610d12611923565b73ffffffffffffffffffffffffffffffffffffffff16610d306110b0565b73ffffffffffffffffffffffffffffffffffffffff1614610d86576040517f08c379a0000000000000000000000000000000000000000000000000000000008152600401610d7d906130b5565b60405180910390fd5b610d906000612271565b565b609760009054906101000a900473ffffffffffffffffffffffffffffffffffffffff1673ffffffffffffffffffffffffffffffffffffffff1663e7334fe56040518163ffffffff1660e01b8152600401602060405180830381865afa158015610dff573d6000803e3d6000fd5b505050506040513d601f19601f82011682018060405250810190610e2391906131e9565b73ffffffffffffffffffffffffffffffffffffffff16610e41611923565b73ffffffffffffffffffffffffffffffffffffffff1614610e97576040517f08c379a0000000000000000000000000000000000000000000000000000000008152600401610e8e90613262565b60405180910390fd5b610ee6823083609860009054906101000a900473ffffffffffffffffffffffffffffffffffffffff1673ffffffffffffffffffffffffffffffffffffffff1661200f909392919063ffffffff16565b610eee612154565b5050565b6000610efe6001612337565b90508015610f22576001600060016101000a81548160ff0219169083151502179055505b610f2a612427565b610fbc87878080601f016020809104026020016040519081016040528093929190818152602001838380828437600081840152601f19601f8201169050808301925050505050505086868080601f016020809104026020016040519081016040528093929190818152602001838380828437600081840152601f19601f82011690508083019250505050505050612480565b88609760006101000a81548173ffffffffffffffffffffffffffffffffffffffff021916908373ffffffffffffffffffffffffffffffffffffffff16021790555087609860006101000a81548173ffffffffffffffffffffffffffffffffffffffff021916908373ffffffffffffffffffffffffffffffffffffffff16021790555082609c8190555081609d8190555080156110a55760008060016101000a81548160ff0219169083151502179055507f7f26b83ff96e1f2b6a682f133852f6798a09c465da95921460cefb3847402498600160405161109c9190613324565b60405180910390a15b505050505050505050565b6000606560009054906101000a900473ffffffffffffffffffffffffffffffffffffffff16905090565b6000609d54905090565b6060603780546110f390613038565b80601f016020809104026020016040519081016040528092919081815260200182805461111f90613038565b801561116c5780601f106111415761010080835404028352916020019161116c565b820191906000526020600020905b81548152906001019060200180831161114f57829003601f168201915b5050505050905090565b609760009054906101000a900473ffffffffffffffffffffffffffffffffffffffff1673ffffffffffffffffffffffffffffffffffffffff1663e7334fe56040518163ffffffff1660e01b8152600401602060405180830381865afa1580156111e3573d6000803e3d6000fd5b505050506040513d601f19601f8201168201806040525081019061120791906131e9565b73ffffffffffffffffffffffffffffffffffffffff16611225611923565b73ffffffffffffffffffffffffffffffffffffffff161461127b576040517f08c379a000000000000000000000000000000000000000000000000000000000815260040161127290613262565b60405180910390fd5b61128582826124dd565b5050565b609760009054906101000a900473ffffffffffffffffffffffffffffffffffffffff1673ffffffffffffffffffffffffffffffffffffffff1663e7334fe56040518163ffffffff1660e01b8152600401602060405180830381865afa1580156112f6573d6000803e3d6000fd5b505050506040513d601f19601f8201168201806040525081019061131a91906131e9565b73ffffffffffffffffffffffffffffffffffffffff16611338611923565b73ffffffffffffffffffffffffffffffffffffffff161461138e576040517f08c379a000000000000000000000000000000000000000000000000000000000815260040161138590613262565b60405180910390fd5b6113db8383609860009054906101000a900473ffffffffffffffffffffffffffffffffffffffff1673ffffffffffffffffffffffffffffffffffffffff166126b59092919063ffffffff16565b6113e760018383612098565b81609960008282546113f99190613104565b92505081905550611408612154565b505050565b600080611418611923565b905060006114268286611638565b90508381101561146b576040517f08c379a0000000000000000000000000000000000000000000000000000000008152600401611462906133b1565b60405180910390fd5b611478828686840361192b565b60019250505092915050565b609760009054906101000a900473ffffffffffffffffffffffffffffffffffffffff1673ffffffffffffffffffffffffffffffffffffffff1663e7334fe56040518163ffffffff1660e01b8152600401602060405180830381865afa1580156114f1573d6000803e3d6000fd5b505050506040513d601f19601f8201168201806040525081019061151591906131e9565b73ffffffffffffffffffffffffffffffffffffffff16611533611923565b73ffffffffffffffffffffffffffffffffffffffff1614611589576040517f08c379a000000000000000000000000000000000000000000000000000000000815260040161158090613262565b60405180910390fd5b6115d8843085609860009054906101000a900473ffffffffffffffffffffffffffffffffffffffff1673ffffffffffffffffffffffffffffffffffffffff1661200f909392919063ffffffff16565b6115e460008284612098565b80609960008282546115f691906132ab565b92505081905550611605612154565b50505050565b600080611616611923565b9050611623818585611b8a565b600191505092915050565b6000609a54905090565b6000603460008473ffffffffffffffffffffffffffffffffffffffff1673ffffffffffffffffffffffffffffffffffffffff16815260200190815260200160002060008373ffffffffffffffffffffffffffffffffffffffff1673ffffffffffffffffffffffffffffffffffffffff16815260200190815260200160002054905092915050565b60006116c9611f6c565b905090565b6116d6611923565b73ffffffffffffffffffffffffffffffffffffffff166116f46110b0565b73ffffffffffffffffffffffffffffffffffffffff161461174a576040517f08c379a0000000000000000000000000000000000000000000000000000000008152600401611741906130b5565b60405180910390fd5b600073ffffffffffffffffffffffffffffffffffffffff168173ffffffffffffffffffffffffffffffffffffffff16036117b9576040517f08c379a00000000000000000000000000000000000000000000000000000000081526004016117b090613443565b60405180910390fd5b6117c281612271565b50565b609760009054906101000a900473ffffffffffffffffffffffffffffffffffffffff1673ffffffffffffffffffffffffffffffffffffffff1663e7334fe56040518163ffffffff1660e01b8152600401602060405180830381865afa158015611832573d6000803e3d6000fd5b505050506040513d601f19601f8201168201806040525081019061185691906131e9565b73ffffffffffffffffffffffffffffffffffffffff16611874611923565b73ffffffffffffffffffffffffffffffffffffffff16146118ca576040517f08c379a00000000000000000000000000000000000000000000000000000000081526004016118c190613262565b60405180910390fd5b6119178282609860009054906101000a900473ffffffffffffffffffffffffffffffffffffffff1673ffffffffffffffffffffffffffffffffffffffff166126b59092919063ffffffff16565b61191f612154565b5050565b600033905090565b600073ffffffffffffffffffffffffffffffffffffffff168373ffffffffffffffffffffffffffffffffffffffff160361199a576040517f08c379a0000000000000000000000000000000000000000000000000000000008152600401611991906134d5565b60405180910390fd5b600073ffffffffffffffffffffffffffffffffffffffff168273ffffffffffffffffffffffffffffffffffffffff1603611a09576040517f08c379a0000000000000000000000000000000000000000000000000000000008152600401611a0090613567565b60405180910390fd5b80603460008573ffffffffffffffffffffffffffffffffffffffff1673ffffffffffffffffffffffffffffffffffffffff16815260200190815260200160002060008473ffffffffffffffffffffffffffffffffffffffff1673ffffffffffffffffffffffffffffffffffffffff168152602001908152602001600020819055508173ffffffffffffffffffffffffffffffffffffffff168373ffffffffffffffffffffffffffffffffffffffff167f8c5be1e5ebec7d5bd14f71427d1e84f3dd0314c0f7b2291e5b200ac8c7c3b92583604051611ae79190612c74565b60405180910390a3505050565b6000609954905090565b6000611b0a8484611638565b90507fffffffffffffffffffffffffffffffffffffffffffffffffffffffffffffffff8114611b845781811015611b76576040517f08c379a0000000000000000000000000000000000000000000000000000000008152600401611b6d906135d3565b60405180910390fd5b611b83848484840361192b565b5b50505050565b600073ffffffffffffffffffffffffffffffffffffffff168373ffffffffffffffffffffffffffffffffffffffff1603611bf9576040517f08c379a0000000000000000000000000000000000000000000000000000000008152600401611bf090613665565b60405180910390fd5b600073ffffffffffffffffffffffffffffffffffffffff168273ffffffffffffffffffffffffffffffffffffffff1603611c68576040517f08c379a0000000000000000000000000000000000000000000000000000000008152600401611c5f906136f7565b60405180910390fd5b611c7383838361273b565b6000603360008573ffffffffffffffffffffffffffffffffffffffff1673ffffffffffffffffffffffffffffffffffffffff16815260200190815260200160002054905081811015611cfa576040517f08c379a0000000000000000000000000000000000000000000000000000000008152600401611cf190613789565b60405180910390fd5b818103603360008673ffffffffffffffffffffffffffffffffffffffff1673ffffffffffffffffffffffffffffffffffffffff1681526020019081526020016000208190555081603360008573ffffffffffffffffffffffffffffffffffffffff1673ffffffffffffffffffffffffffffffffffffffff1681526020019081526020016000206000828254611d8f9190613104565b925050819055508273ffffffffffffffffffffffffffffffffffffffff168473ffffffffffffffffffffffffffffffffffffffff167fddf252ad1be2c89b69c2b068fc378daa952ba7f163c4a11628f55a4df523b3ef84604051611df39190612c74565b60405180910390a3611e06848484612740565b50505050565b600073ffffffffffffffffffffffffffffffffffffffff168273ffffffffffffffffffffffffffffffffffffffff1603611e7b576040517f08c379a0000000000000000000000000000000000000000000000000000000008152600401611e72906137f5565b60405180910390fd5b611e876000838361273b565b8060356000828254611e999190613104565b9250508190555080603360008473ffffffffffffffffffffffffffffffffffffffff1673ffffffffffffffffffffffffffffffffffffffff1681526020019081526020016000206000828254611eef9190613104565b925050819055508173ffffffffffffffffffffffffffffffffffffffff16600073ffffffffffffffffffffffffffffffffffffffff167fddf252ad1be2c89b69c2b068fc378daa952ba7f163c4a11628f55a4df523b3ef83604051611f549190612c74565b60405180910390a3611f6860008383612740565b5050565b6000609860009054906101000a900473ffffffffffffffffffffffffffffffffffffffff1673ffffffffffffffffffffffffffffffffffffffff166370a08231306040518263ffffffff1660e01b8152600401611fc99190612f5b565b602060405180830381865afa158015611fe6573d6000803e3d6000fd5b505050506040513d601f19601f8201168201806040525081019061200a91906131a7565b905090565b612092846323b872dd60e01b85858560405160240161203093929190613815565b604051602081830303815290604052907bffffffffffffffffffffffffffffffffffffffffffffffffffffffff19166020820180517bffffffffffffffffffffffffffffffffffffffffffffffffffffffff8381831617835250505050612745565b50505050565b82156120e757816099546120ac9190613104565b81836120b8919061384c565b609b546099546120c8919061384c565b6120d29190613104565b6120dc91906138d5565b609b8190555061214f565b6000826099546120f791906132ab565b03612109576000609b8190555061214e565b8160995461211791906132ab565b8183612123919061384c565b609b54609954612133919061384c565b61213d91906132ab565b61214791906138d5565b609b819055505b5b505050565b609760009054906101000a900473ffffffffffffffffffffffffffffffffffffffff1673ffffffffffffffffffffffffffffffffffffffff16635257b5666040518163ffffffff1660e01b8152600401602060405180830381865afa1580156121c1573d6000803e3d6000fd5b505050506040513d601f19601f820116820180604052508101906121e591906131e9565b73ffffffffffffffffffffffffffffffffffffffff166366c57dca612208611f6c565b6099546040518363ffffffff1660e01b8152600401612228929190613282565b602060405180830381865afa158015612245573d6000803e3d6000fd5b505050506040513d601f19601f8201168201806040525081019061226991906131a7565b609a81905550565b6000606560009054906101000a900473ffffffffffffffffffffffffffffffffffffffff16905081606560006101000a81548173ffffffffffffffffffffffffffffffffffffffff021916908373ffffffffffffffffffffffffffffffffffffffff1602179055508173ffffffffffffffffffffffffffffffffffffffff168173ffffffffffffffffffffffffffffffffffffffff167f8be0079c531659141344cd1fd0a4f28419497f9722a3daafe3b4186f6b6457e060405160405180910390a35050565b60008060019054906101000a900460ff16156123ae5760018260ff1614801561236657506123643061280c565b155b6123a5576040517f08c379a000000000000000000000000000000000000000000000000000000000815260040161239c90613978565b60405180910390fd5b60009050612422565b8160ff1660008054906101000a900460ff1660ff1610612403576040517f08c379a00000000000000000000000000000000000000000000000000000000081526004016123fa90613978565b60405180910390fd5b816000806101000a81548160ff021916908360ff160217905550600190505b919050565b600060019054906101000a900460ff16612476576040517f08c379a000000000000000000000000000000000000000000000000000000000815260040161246d90613a0a565b60405180910390fd5b61247e61282f565b565b600060019054906101000a900460ff166124cf576040517f08c379a00000000000000000000000000000000000000000000000000000000081526004016124c690613a0a565b60405180910390fd5b6124d98282612890565b5050565b600073ffffffffffffffffffffffffffffffffffffffff168273ffffffffffffffffffffffffffffffffffffffff160361254c576040517f08c379a000000000000000000000000000000000000000000000000000000000815260040161254390613a9c565b60405180910390fd5b6125588260008361273b565b6000603360008473ffffffffffffffffffffffffffffffffffffffff1673ffffffffffffffffffffffffffffffffffffffff168152602001908152602001600020549050818110156125df576040517f08c379a00000000000000000000000000000000000000000000000000000000081526004016125d690613b2e565b60405180910390fd5b818103603360008573ffffffffffffffffffffffffffffffffffffffff1673ffffffffffffffffffffffffffffffffffffffff16815260200190815260200160002081905550816035600082825461263791906132ab565b92505081905550600073ffffffffffffffffffffffffffffffffffffffff168373ffffffffffffffffffffffffffffffffffffffff167fddf252ad1be2c89b69c2b068fc378daa952ba7f163c4a11628f55a4df523b3ef8460405161269c9190612c74565b60405180910390a36126b083600084612740565b505050565b6127368363a9059cbb60e01b84846040516024016126d4929190613b4e565b604051602081830303815290604052907bffffffffffffffffffffffffffffffffffffffffffffffffffffffff19166020820180517bffffffffffffffffffffffffffffffffffffffffffffffffffffffff8381831617835250505050612745565b505050565b505050565b505050565b60006127a7826040518060400160405280602081526020017f5361666545524332303a206c6f772d6c6576656c2063616c6c206661696c65648152508573ffffffffffffffffffffffffffffffffffffffff166129039092919063ffffffff16565b905060008151111561280757808060200190518101906127c79190613ba3565b612806576040517f08c379a00000000000000000000000000000000000000000000000000000000081526004016127fd90613c42565b60405180910390fd5b5b505050565b6000808273ffffffffffffffffffffffffffffffffffffffff163b119050919050565b600060019054906101000a900460ff1661287e576040517f08c379a000000000000000000000000000000000000000000000000000000000815260040161287590613a0a565b60405180910390fd5b61288e612889611923565b612271565b565b600060019054906101000a900460ff166128df576040517f08c379a00000000000000000000000000000000000000000000000000000000081526004016128d690613a0a565b60405180910390fd5b81603690816128ee9190613e33565b5080603790816128fe9190613e33565b505050565b6060612912848460008561291b565b90509392505050565b606082471015612960576040517f08c379a000000000000000000000000000000000000000000000000000000000815260040161295790613f77565b60405180910390fd5b6129698561280c565b6129a8576040517f08c379a000000000000000000000000000000000000000000000000000000000815260040161299f90613fe3565b60405180910390fd5b6000808673ffffffffffffffffffffffffffffffffffffffff1685876040516129d1919061404a565b60006040518083038185875af1925050503d8060008114612a0e576040519150601f19603f3d011682016040523d82523d6000602084013e612a13565b606091505b5091509150612a23828286612a2f565b92505050949350505050565b60608315612a3f57829050612a8f565b600083511115612a525782518084602001fd5b816040517f08c379a0000000000000000000000000000000000000000000000000000000008152600401612a869190612b2f565b60405180910390fd5b9392505050565b600081519050919050565b600082825260208201905092915050565b60005b83811015612ad0578082015181840152602081019050612ab5565b83811115612adf576000848401525b50505050565b6000601f19601f8301169050919050565b6000612b0182612a96565b612b0b8185612aa1565b9350612b1b818560208601612ab2565b612b2481612ae5565b840191505092915050565b60006020820190508181036000830152612b498184612af6565b905092915050565b600080fd5b600080fd5b600073ffffffffffffffffffffffffffffffffffffffff82169050919050565b6000612b8682612b5b565b9050919050565b612b9681612b7b565b8114612ba157600080fd5b50565b600081359050612bb381612b8d565b92915050565b6000819050919050565b612bcc81612bb9565b8114612bd757600080fd5b50565b600081359050612be981612bc3565b92915050565b60008060408385031215612c0657612c05612b51565b5b6000612c1485828601612ba4565b9250506020612c2585828601612bda565b9150509250929050565b60008115159050919050565b612c4481612c2f565b82525050565b6000602082019050612c5f6000830184612c3b565b92915050565b612c6e81612bb9565b82525050565b6000602082019050612c896000830184612c65565b92915050565b600080600060608486031215612ca857612ca7612b51565b5b6000612cb686828701612ba4565b9350506020612cc786828701612ba4565b9250506040612cd886828701612bda565b9150509250925092565b600060208284031215612cf857612cf7612b51565b5b6000612d0684828501612bda565b91505092915050565b600060ff82169050919050565b612d2581612d0f565b82525050565b6000602082019050612d406000830184612d1c565b92915050565b600060208284031215612d5c57612d5b612b51565b5b6000612d6a84828501612ba4565b91505092915050565b60008060008060808587031215612d8d57612d8c612b51565b5b6000612d9b87828801612ba4565b9450506020612dac87828801612bda565b9350506040612dbd87828801612bda565b9250506060612dce87828801612bda565b91505092959194509250565b6000612de582612b7b565b9050919050565b612df581612dda565b8114612e0057600080fd5b50565b600081359050612e1281612dec565b92915050565b600080fd5b600080fd5b600080fd5b60008083601f840112612e3d57612e3c612e18565b5b8235905067ffffffffffffffff811115612e5a57612e59612e1d565b5b602083019150836001820283011115612e7657612e75612e22565b5b9250929050565b60008060008060008060008060c0898b031215612e9d57612e9c612b51565b5b6000612eab8b828c01612e03565b9850506020612ebc8b828c01612ba4565b975050604089013567ffffffffffffffff811115612edd57612edc612b56565b5b612ee98b828c01612e27565b9650965050606089013567ffffffffffffffff811115612f0c57612f0b612b56565b5b612f188b828c01612e27565b94509450506080612f2b8b828c01612bda565b92505060a0612f3c8b828c01612bda565b9150509295985092959890939650565b612f5581612b7b565b82525050565b6000602082019050612f706000830184612f4c565b92915050565b600080600060608486031215612f8f57612f8e612b51565b5b6000612f9d86828701612ba4565b9350506020612fae86828701612bda565b9250506040612fbf86828701612bda565b9150509250925092565b60008060408385031215612fe057612fdf612b51565b5b6000612fee85828601612ba4565b9250506020612fff85828601612ba4565b9150509250929050565b7f4e487b7100000000000000000000000000000000000000000000000000000000600052602260045260246000fd5b6000600282049050600182168061305057607f821691505b60208210810361306357613062613009565b5b50919050565b7f4f776e61626c653a2063616c6c6572206973206e6f7420746865206f776e6572600082015250565b600061309f602083612aa1565b91506130aa82613069565b602082019050919050565b600060208201905081810360008301526130ce81613092565b9050919050565b7f4e487b7100000000000000000000000000000000000000000000000000000000600052601160045260246000fd5b600061310f82612bb9565b915061311a83612bb9565b9250827fffffffffffffffffffffffffffffffffffffffffffffffffffffffffffffffff0382111561314f5761314e6130d5565b5b828201905092915050565b61316381612b7b565b82525050565b600060408201905061317e600083018561315a565b61318b602083018461315a565b9392505050565b6000815190506131a181612bc3565b92915050565b6000602082840312156131bd576131bc612b51565b5b60006131cb84828501613192565b91505092915050565b6000815190506131e381612b8d565b92915050565b6000602082840312156131ff576131fe612b51565b5b600061320d848285016131d4565b91505092915050565b7f43616c6c6572206d757374206265204d61726b657420636f6e74726163740000600082015250565b600061324c601e83612aa1565b915061325782613216565b602082019050919050565b6000602082019050818103600083015261327b8161323f565b9050919050565b60006040820190506132976000830185612c65565b6132a46020830184612c65565b9392505050565b60006132b682612bb9565b91506132c183612bb9565b9250828210156132d4576132d36130d5565b5b828203905092915050565b6000819050919050565b6000819050919050565b600061330e613309613304846132df565b6132e9565b612d0f565b9050919050565b61331e816132f3565b82525050565b60006020820190506133396000830184613315565b92915050565b7f45524332303a2064656372656173656420616c6c6f77616e63652062656c6f7760008201527f207a65726f000000000000000000000000000000000000000000000000000000602082015250565b600061339b602583612aa1565b91506133a68261333f565b604082019050919050565b600060208201905081810360008301526133ca8161338e565b9050919050565b7f4f776e61626c653a206e6577206f776e657220697320746865207a65726f206160008201527f6464726573730000000000000000000000000000000000000000000000000000602082015250565b600061342d602683612aa1565b9150613438826133d1565b604082019050919050565b6000602082019050818103600083015261345c81613420565b9050919050565b7f45524332303a20617070726f76652066726f6d20746865207a65726f2061646460008201527f7265737300000000000000000000000000000000000000000000000000000000602082015250565b60006134bf602483612aa1565b91506134ca82613463565b604082019050919050565b600060208201905081810360008301526134ee816134b2565b9050919050565b7f45524332303a20617070726f766520746f20746865207a65726f20616464726560008201527f7373000000000000000000000000000000000000000000000000000000000000602082015250565b6000613551602283612aa1565b915061355c826134f5565b604082019050919050565b6000602082019050818103600083015261358081613544565b9050919050565b7f45524332303a20696e73756666696369656e7420616c6c6f77616e6365000000600082015250565b60006135bd601d83612aa1565b91506135c882613587565b602082019050919050565b600060208201905081810360008301526135ec816135b0565b9050919050565b7f45524332303a207472616e736665722066726f6d20746865207a65726f20616460008201527f6472657373000000000000000000000000000000000000000000000000000000602082015250565b600061364f602583612aa1565b915061365a826135f3565b604082019050919050565b6000602082019050818103600083015261367e81613642565b9050919050565b7f45524332303a207472616e7366657220746f20746865207a65726f206164647260008201527f6573730000000000000000000000000000000000000000000000000000000000602082015250565b60006136e1602383612aa1565b91506136ec82613685565b604082019050919050565b60006020820190508181036000830152613710816136d4565b9050919050565b7f45524332303a207472616e7366657220616d6f756e742065786365656473206260008201527f616c616e63650000000000000000000000000000000000000000000000000000602082015250565b6000613773602683612aa1565b915061377e82613717565b604082019050919050565b600060208201905081810360008301526137a281613766565b9050919050565b7f45524332303a206d696e7420746f20746865207a65726f206164647265737300600082015250565b60006137df601f83612aa1565b91506137ea826137a9565b602082019050919050565b6000602082019050818103600083015261380e816137d2565b9050919050565b600060608201905061382a6000830186612f4c565b6138376020830185612f4c565b6138446040830184612c65565b949350505050565b600061385782612bb9565b915061386283612bb9565b9250817fffffffffffffffffffffffffffffffffffffffffffffffffffffffffffffffff048311821515161561389b5761389a6130d5565b5b828202905092915050565b7f4e487b7100000000000000000000000000000000000000000000000000000000600052601260045260246000fd5b60006138e082612bb9565b91506138eb83612bb9565b9250826138fb576138fa6138a6565b5b828204905092915050565b7f496e697469616c697a61626c653a20636f6e747261637420697320616c72656160008201527f647920696e697469616c697a6564000000000000000000000000000000000000602082015250565b6000613962602e83612aa1565b915061396d82613906565b604082019050919050565b6000602082019050818103600083015261399181613955565b9050919050565b7f496e697469616c697a61626c653a20636f6e7472616374206973206e6f74206960008201527f6e697469616c697a696e67000000000000000000000000000000000000000000602082015250565b60006139f4602b83612aa1565b91506139ff82613998565b604082019050919050565b60006020820190508181036000830152613a23816139e7565b9050919050565b7f45524332303a206275726e2066726f6d20746865207a65726f2061646472657360008201527f7300000000000000000000000000000000000000000000000000000000000000602082015250565b6000613a86602183612aa1565b9150613a9182613a2a565b604082019050919050565b60006020820190508181036000830152613ab581613a79565b9050919050565b7f45524332303a206275726e20616d6f756e7420657863656564732062616c616e60008201527f6365000000000000000000000000000000000000000000000000000000000000602082015250565b6000613b18602283612aa1565b9150613b2382613abc565b604082019050919050565b60006020820190508181036000830152613b4781613b0b565b9050919050565b6000604082019050613b636000830185612f4c565b613b706020830184612c65565b9392505050565b613b8081612c2f565b8114613b8b57600080fd5b50565b600081519050613b9d81613b77565b92915050565b600060208284031215613bb957613bb8612b51565b5b6000613bc784828501613b8e565b91505092915050565b7f5361666545524332303a204552433230206f7065726174696f6e20646964206e60008201527f6f74207375636365656400000000000000000000000000000000000000000000602082015250565b6000613c2c602a83612aa1565b9150613c3782613bd0565b604082019050919050565b60006020820190508181036000830152613c5b81613c1f565b9050919050565b7f4e487b7100000000000000000000000000000000000000000000000000000000600052604160045260246000fd5b60008190508160005260206000209050919050565b60006020601f8301049050919050565b600082821b905092915050565b600060088302613cf37fffffffffffffffffffffffffffffffffffffffffffffffffffffffffffffffff82613cb6565b613cfd8683613cb6565b95508019841693508086168417925050509392505050565b6000613d30613d2b613d2684612bb9565b6132e9565b612bb9565b9050919050565b6000819050919050565b613d4a83613d15565b613d5e613d5682613d37565b848454613cc3565b825550505050565b600090565b613d73613d66565b613d7e818484613d41565b505050565b5b81811015613da257613d97600082613d6b565b600181019050613d84565b5050565b601f821115613de757613db881613c91565b613dc184613ca6565b81016020851015613dd0578190505b613de4613ddc85613ca6565b830182613d83565b50505b505050565b600082821c905092915050565b6000613e0a60001984600802613dec565b1980831691505092915050565b6000613e238383613df9565b9150826002028217905092915050565b613e3c82612a96565b67ffffffffffffffff811115613e5557613e54613c62565b5b613e5f8254613038565b613e6a828285613da6565b600060209050601f831160018114613e9d5760008415613e8b578287015190505b613e958582613e17565b865550613efd565b601f198416613eab86613c91565b60005b82811015613ed357848901518255600182019150602085019450602081019050613eae565b86831015613ef05784890151613eec601f891682613df9565b8355505b6001600288020188555050505b505050505050565b7f416464726573733a20696e73756666696369656e742062616c616e636520666f60008201527f722063616c6c0000000000000000000000000000000000000000000000000000602082015250565b6000613f61602683612aa1565b9150613f6c82613f05565b604082019050919050565b60006020820190508181036000830152613f9081613f54565b9050919050565b7f416464726573733a2063616c6c20746f206e6f6e2d636f6e7472616374000000600082015250565b6000613fcd601d83612aa1565b9150613fd882613f97565b602082019050919050565b60006020820190508181036000830152613ffc81613fc0565b9050919050565b600081519050919050565b600081905092915050565b600061402482614003565b61402e818561400e565b935061403e818560208601612ab2565b80840191505092915050565b60006140568284614019565b91508190509291505056fea26469706673582212201ebfadca0a5b6c801057dfcef3a27cf08dc682e0ac8e6a90249da449d4e75caa64736f6c634300080f0033",
  "linkReferences": {
    "contracts/libraries/logic/SupplyLogic.sol": {
      "SupplyLogic": [
        {
          "length": 20,
          "start": 2070
        }
      ]
    }
  },
  "deployedLinkReferences": {
    "contracts/libraries/logic/SupplyLogic.sol": {
      "SupplyLogic": [
        {
          "length": 20,
          "start": 2038
        }
      ]
    }
  }
}