{
  "_format": "hh-sol-artifact-1",
  "contractName": "Reserve",
  "sourceName": "contracts/protocol/Reserve.sol",
  "abi": [
    {
      "anonymous": false,
      "inputs": [
        {
          "indexed": true,
          "internalType": "address",
          "name": "owner",
          "type": "address"
        },
        {
          "indexed": true,
          "internalType": "address",
          "name": "spender",
          "type": "address"
        },
        {
          "indexed": false,
          "internalType": "uint256",
          "name": "value",
          "type": "uint256"
        }
      ],
      "name": "Approval",
      "type": "event"
    },
    {
      "anonymous": false,
      "inputs": [
        {
          "indexed": false,
          "internalType": "uint8",
          "name": "version",
          "type": "uint8"
        }
      ],
      "name": "Initialized",
      "type": "event"
    },
    {
      "anonymous": false,
      "inputs": [
        {
          "indexed": true,
          "internalType": "address",
          "name": "previousOwner",
          "type": "address"
        },
        {
          "indexed": true,
          "internalType": "address",
          "name": "newOwner",
          "type": "address"
        }
      ],
      "name": "OwnershipTransferred",
      "type": "event"
    },
    {
      "anonymous": false,
      "inputs": [
        {
          "indexed": true,
          "internalType": "address",
          "name": "from",
          "type": "address"
        },
        {
          "indexed": true,
          "internalType": "address",
          "name": "to",
          "type": "address"
        },
        {
          "indexed": false,
          "internalType": "uint256",
          "name": "value",
          "type": "uint256"
        }
      ],
      "name": "Transfer",
      "type": "event"
    },
    {
      "inputs": [
        {
          "internalType": "address",
          "name": "owner",
          "type": "address"
        },
        {
          "internalType": "address",
          "name": "spender",
          "type": "address"
        }
      ],
      "name": "allowance",
      "outputs": [
        {
          "internalType": "uint256",
          "name": "",
          "type": "uint256"
        }
      ],
      "stateMutability": "view",
      "type": "function"
    },
    {
      "inputs": [
        {
          "internalType": "address",
          "name": "spender",
          "type": "address"
        },
        {
          "internalType": "uint256",
          "name": "amount",
          "type": "uint256"
        }
      ],
      "name": "approve",
      "outputs": [
        {
          "internalType": "bool",
          "name": "",
          "type": "bool"
        }
      ],
      "stateMutability": "nonpayable",
      "type": "function"
    },
    {
      "inputs": [
        {
          "internalType": "address",
          "name": "account",
          "type": "address"
        }
      ],
      "name": "balanceOf",
      "outputs": [
        {
          "internalType": "uint256",
          "name": "",
          "type": "uint256"
        }
      ],
      "stateMutability": "view",
      "type": "function"
    },
    {
      "inputs": [
        {
          "internalType": "address",
          "name": "user",
          "type": "address"
        },
        {
          "internalType": "uint256",
          "name": "amount",
          "type": "uint256"
        }
      ],
      "name": "burn",
      "outputs": [],
      "stateMutability": "nonpayable",
      "type": "function"
    },
    {
      "inputs": [],
      "name": "decimals",
      "outputs": [
        {
          "internalType": "uint8",
          "name": "",
          "type": "uint8"
        }
      ],
      "stateMutability": "view",
      "type": "function"
    },
    {
      "inputs": [
        {
          "internalType": "address",
          "name": "spender",
          "type": "address"
        },
        {
          "internalType": "uint256",
          "name": "subtractedValue",
          "type": "uint256"
        }
      ],
      "name": "decreaseAllowance",
      "outputs": [
        {
          "internalType": "bool",
          "name": "",
          "type": "bool"
        }
      ],
      "stateMutability": "nonpayable",
      "type": "function"
    },
    {
      "inputs": [
        {
          "internalType": "address",
          "name": "depositor",
          "type": "address"
        },
        {
          "internalType": "uint256",
          "name": "amount",
          "type": "uint256"
        }
      ],
      "name": "depositUnderlying",
      "outputs": [],
      "stateMutability": "nonpayable",
      "type": "function"
    },
    {
      "inputs": [],
      "name": "getAsset",
      "outputs": [
        {
          "internalType": "address",
          "name": "",
          "type": "address"
        }
      ],
      "stateMutability": "view",
      "type": "function"
    },
    {
      "inputs": [],
      "name": "getBorrowRate",
      "outputs": [
        {
          "internalType": "uint256",
          "name": "",
          "type": "uint256"
        }
      ],
      "stateMutability": "view",
      "type": "function"
    },
    {
      "inputs": [],
      "name": "getDebt",
      "outputs": [
        {
          "internalType": "uint256",
          "name": "",
          "type": "uint256"
        }
      ],
      "stateMutability": "view",
      "type": "function"
    },
    {
      "inputs": [],
      "name": "getLiquidationFee",
      "outputs": [
        {
          "internalType": "uint256",
          "name": "",
          "type": "uint256"
        }
      ],
      "stateMutability": "view",
      "type": "function"
    },
    {
      "inputs": [],
      "name": "getLiquidationPenalty",
      "outputs": [
        {
          "internalType": "uint256",
          "name": "",
          "type": "uint256"
        }
      ],
      "stateMutability": "view",
      "type": "function"
    },
    {
      "inputs": [],
      "name": "getMaximumUtilizationRate",
      "outputs": [
        {
          "internalType": "uint256",
          "name": "",
          "type": "uint256"
        }
      ],
      "stateMutability": "view",
      "type": "function"
    },
    {
      "inputs": [
        {
          "internalType": "address",
          "name": "to",
          "type": "address"
        }
      ],
      "name": "getMaximumWithdrawalAmount",
      "outputs": [
        {
          "internalType": "uint256",
          "name": "",
          "type": "uint256"
        }
      ],
      "stateMutability": "view",
      "type": "function"
    },
    {
      "inputs": [],
      "name": "getSupplyRate",
      "outputs": [
        {
          "internalType": "uint256",
          "name": "",
          "type": "uint256"
        }
      ],
      "stateMutability": "view",
      "type": "function"
    },
    {
      "inputs": [],
      "name": "getUnderlyingBalance",
      "outputs": [
        {
          "internalType": "uint256",
          "name": "",
          "type": "uint256"
        }
      ],
      "stateMutability": "view",
      "type": "function"
    },
    {
      "inputs": [],
      "name": "getUtilizationRate",
      "outputs": [
        {
          "internalType": "uint256",
          "name": "",
          "type": "uint256"
        }
      ],
      "stateMutability": "view",
      "type": "function"
    },
    {
      "inputs": [
        {
          "internalType": "address",
          "name": "spender",
          "type": "address"
        },
        {
          "internalType": "uint256",
          "name": "addedValue",
          "type": "uint256"
        }
      ],
      "name": "increaseAllowance",
      "outputs": [
        {
          "internalType": "bool",
          "name": "",
          "type": "bool"
        }
      ],
      "stateMutability": "nonpayable",
      "type": "function"
    },
    {
      "inputs": [
        {
          "internalType": "contract IAddressesProvider",
          "name": "addressProvider",
          "type": "address"
        },
        {
          "internalType": "address",
          "name": "asset",
          "type": "address"
        },
        {
          "internalType": "string",
          "name": "name",
          "type": "string"
        },
        {
          "internalType": "string",
          "name": "symbol",
          "type": "string"
        },
        {
          "internalType": "uint256",
          "name": "maximumUtilizationRate",
          "type": "uint256"
        },
        {
          "internalType": "uint256",
          "name": "liquidationPenalty",
          "type": "uint256"
        },
        {
          "internalType": "uint256",
          "name": "protocolLiquidationFee",
          "type": "uint256"
        }
      ],
      "name": "initialize",
      "outputs": [],
      "stateMutability": "nonpayable",
      "type": "function"
    },
    {
      "inputs": [
        {
          "internalType": "address",
          "name": "user",
          "type": "address"
        },
        {
          "internalType": "uint256",
          "name": "amount",
          "type": "uint256"
        }
      ],
      "name": "mint",
      "outputs": [],
      "stateMutability": "nonpayable",
      "type": "function"
    },
    {
      "inputs": [],
      "name": "name",
      "outputs": [
        {
          "internalType": "string",
          "name": "",
          "type": "string"
        }
      ],
      "stateMutability": "view",
      "type": "function"
    },
    {
      "inputs": [],
      "name": "owner",
      "outputs": [
        {
          "internalType": "address",
          "name": "",
          "type": "address"
        }
      ],
      "stateMutability": "view",
      "type": "function"
    },
    {
      "inputs": [
        {
          "internalType": "address",
          "name": "from",
          "type": "address"
        },
        {
          "internalType": "uint256",
          "name": "amount",
          "type": "uint256"
        },
        {
          "internalType": "uint256",
          "name": "borrowRate",
          "type": "uint256"
        },
        {
          "internalType": "uint256",
          "name": "interest",
          "type": "uint256"
        }
      ],
      "name": "receiveUnderlying",
      "outputs": [],
      "stateMutability": "nonpayable",
      "type": "function"
    },
    {
      "inputs": [
        {
          "internalType": "address",
          "name": "from",
          "type": "address"
        },
        {
          "internalType": "uint256",
          "name": "amount",
          "type": "uint256"
        },
        {
          "internalType": "uint256",
          "name": "borrowRate",
          "type": "uint256"
        },
        {
          "internalType": "uint256",
          "name": "defaultedDebt",
          "type": "uint256"
        }
      ],
      "name": "receiveUnderlyingDefaulted",
      "outputs": [],
      "stateMutability": "nonpayable",
      "type": "function"
    },
    {
      "inputs": [],
      "name": "renounceOwnership",
      "outputs": [],
      "stateMutability": "nonpayable",
      "type": "function"
    },
    {
      "inputs": [
        {
          "internalType": "uint256",
          "name": "protocolLiquidationFee",
          "type": "uint256"
        }
      ],
      "name": "setLiquidationFee",
      "outputs": [],
      "stateMutability": "nonpayable",
      "type": "function"
    },
    {
      "inputs": [
        {
          "internalType": "uint256",
          "name": "liquidationPenalty",
          "type": "uint256"
        }
      ],
      "name": "setLiquidationPenalty",
      "outputs": [],
      "stateMutability": "nonpayable",
      "type": "function"
    },
    {
      "inputs": [],
      "name": "symbol",
      "outputs": [
        {
          "internalType": "string",
          "name": "",
          "type": "string"
        }
      ],
      "stateMutability": "view",
      "type": "function"
    },
    {
      "inputs": [],
      "name": "totalSupply",
      "outputs": [
        {
          "internalType": "uint256",
          "name": "",
          "type": "uint256"
        }
      ],
      "stateMutability": "view",
      "type": "function"
    },
    {
      "inputs": [
        {
          "internalType": "address",
          "name": "to",
          "type": "address"
        },
        {
          "internalType": "uint256",
          "name": "amount",
          "type": "uint256"
        }
      ],
      "name": "transfer",
      "outputs": [
        {
          "internalType": "bool",
          "name": "",
          "type": "bool"
        }
      ],
      "stateMutability": "nonpayable",
      "type": "function"
    },
    {
      "inputs": [
        {
          "internalType": "address",
          "name": "from",
          "type": "address"
        },
        {
          "internalType": "address",
          "name": "to",
          "type": "address"
        },
        {
          "internalType": "uint256",
          "name": "amount",
          "type": "uint256"
        }
      ],
      "name": "transferFrom",
      "outputs": [
        {
          "internalType": "bool",
          "name": "",
          "type": "bool"
        }
      ],
      "stateMutability": "nonpayable",
      "type": "function"
    },
    {
      "inputs": [
        {
          "internalType": "address",
          "name": "newOwner",
          "type": "address"
        }
      ],
      "name": "transferOwnership",
      "outputs": [],
      "stateMutability": "nonpayable",
      "type": "function"
    },
    {
      "inputs": [
        {
          "internalType": "address",
          "name": "to",
          "type": "address"
        },
        {
          "internalType": "uint256",
          "name": "amount",
          "type": "uint256"
        },
        {
          "internalType": "uint256",
          "name": "borrowRate",
          "type": "uint256"
        }
      ],
      "name": "transferUnderlying",
      "outputs": [],
      "stateMutability": "nonpayable",
      "type": "function"
    },
    {
      "inputs": [
        {
          "internalType": "address",
          "name": "to",
          "type": "address"
        },
        {
          "internalType": "uint256",
          "name": "amount",
          "type": "uint256"
        }
      ],
      "name": "withdrawUnderlying",
      "outputs": [],
      "stateMutability": "nonpayable",
      "type": "function"
    }
  ],
  "bytecode": "0x608060405234801561001057600080fd5b50614193806100206000396000f3fe608060405234801561001057600080fd5b50600436106102065760003560e01c806384bdc9a81161011a578063a9059cbb116100ad578063e2c674391161007c578063e2c67439146105dd578063f2fde38b146105fb578063fbf4198414610617578063fdb8725214610635578063fef0bec81461065157610206565b8063a9059cbb14610543578063ba1c5e8014610573578063c65fef8b14610591578063dd62ed3e146105ad57610206565b8063a2258694116100e9578063a2258694146104bd578063a457c2d7146104d9578063a4b84e0a14610509578063a663f8301461052757610206565b806384bdc9a8146104475780638da5cb5b1461046557806395d89b41146104835780639dc29fac146104a157610206565b8063395093511161019d578063545039c61161016c578063545039c6146103b75780635c222bad146103d357806370a08231146103f1578063715018a61461042157806375d0f29f1461042b57610206565b8063395093511461031d5780633e680e7a1461034d57806340c10f191461037d5780634a417a531461039957610206565b80631e522b29116101d95780631e522b291461029557806323b872dd146102b35780632806a743146102e3578063313ce567146102ff57610206565b806306fdde031461020b578063095ea7b31461022957806314a6bf0f1461025957806318160ddd14610277575b600080fd5b61021361066d565b6040516102209190612c18565b60405180910390f35b610243600480360381019061023e9190612cd8565b6106ff565b6040516102509190612d33565b60405180910390f35b610261610722565b60405161026e9190612d5d565b60405180910390f35b61027f610731565b60405161028c9190612d5d565b60405180910390f35b61029d61073b565b6040516102aa9190612d5d565b60405180910390f35b6102cd60048036038101906102c89190612d78565b610745565b6040516102da9190612d33565b60405180910390f35b6102fd60048036038101906102f89190612dcb565b610774565b005b6103076107fa565b6040516103149190612e14565b60405180910390f35b61033760048036038101906103329190612cd8565b610803565b6040516103449190612d33565b60405180910390f35b61036760048036038101906103629190612e2f565b61083a565b6040516103749190612d5d565b60405180910390f35b61039760048036038101906103929190612cd8565b6108bd565b005b6103a16109d0565b6040516103ae9190612d5d565b60405180910390f35b6103d160048036038101906103cc9190612e5c565b610af1565b005b6103db610c83565b6040516103e89190612ed2565b60405180910390f35b61040b60048036038101906104069190612e2f565b610cad565b6040516104189190612d5d565b60405180910390f35b610429610cf6565b005b61044560048036038101906104409190612cd8565b610d7e565b005b61044f610ede565b60405161045c9190612d5d565b60405180910390f35b61046d610f3b565b60405161047a9190612ed2565b60405180910390f35b61048b610f65565b6040516104989190612c18565b60405180910390f35b6104bb60048036038101906104b69190612cd8565b610ff7565b005b6104d760048036038101906104d29190612eed565b61110a565b005b6104f360048036038101906104ee9190612cd8565b61128e565b6040516105009190612d33565b60405180910390f35b610511611305565b60405161051e9190612d5d565b60405180910390f35b610541600480360381019061053c9190612e5c565b61130f565b005b61055d60048036038101906105589190612cd8565b611496565b60405161056a9190612d33565b60405180910390f35b61057b6114b9565b6040516105889190612d5d565b60405180910390f35b6105ab60048036038101906105a69190612fe3565b6114c3565b005b6105c760048036038101906105c291906130c5565b611691565b6040516105d49190612d5d565b60405180910390f35b6105e5611718565b6040516105f29190612d5d565b60405180910390f35b61061560048036038101906106109190612e2f565b611727565b005b61061f61181e565b60405161062c9190612d5d565b60405180910390f35b61064f600480360381019061064a9190612cd8565b611828565b005b61066b60048036038101906106669190612dcb565b611986565b005b60606036805461067c90613134565b80601f01602080910402602001604051908101604052809291908181526020018280546106a890613134565b80156106f55780601f106106ca576101008083540402835291602001916106f5565b820191906000526020600020905b8154815290600101906020018083116106d857829003601f168201915b5050505050905090565b60008061070a611a0c565b9050610717818585611a14565b600191505092915050565b600061072c611bdd565b905090565b6000603554905090565b6000609c54905090565b600080610750611a0c565b905061075d858285611be7565b610768858585611c73565b60019150509392505050565b61077c611a0c565b73ffffffffffffffffffffffffffffffffffffffff1661079a610f3b565b73ffffffffffffffffffffffffffffffffffffffff16146107f0576040517f08c379a00000000000000000000000000000000000000000000000000000000081526004016107e7906131b1565b60405180910390fd5b80609c8190555050565b60006012905090565b60008061080e611a0c565b905061082f8185856108208589611691565b61082a9190613200565b611a14565b600191505092915050565b600073__$2f7c76ee15bdc1d8f3b34a04b86951fc56$__634af0799330846040518363ffffffff1660e01b8152600401610875929190613265565b602060405180830381865af4158015610892573d6000803e3d6000fd5b505050506040513d601f19601f820116820180604052508101906108b691906132a3565b9050919050565b609760009054906101000a900473ffffffffffffffffffffffffffffffffffffffff1673ffffffffffffffffffffffffffffffffffffffff1663e7334fe56040518163ffffffff1660e01b8152600401602060405180830381865afa15801561092a573d6000803e3d6000fd5b505050506040513d601f19601f8201168201806040525081019061094e91906132e5565b73ffffffffffffffffffffffffffffffffffffffff1661096c611a0c565b73ffffffffffffffffffffffffffffffffffffffff16146109c2576040517f08c379a00000000000000000000000000000000000000000000000000000000081526004016109b99061335e565b60405180910390fd5b6109cc8282611ef5565b5050565b6000609760009054906101000a900473ffffffffffffffffffffffffffffffffffffffff1673ffffffffffffffffffffffffffffffffffffffff16635257b5666040518163ffffffff1660e01b8152600401602060405180830381865afa158015610a3f573d6000803e3d6000fd5b505050506040513d601f19601f82011682018060405250810190610a6391906132e5565b73ffffffffffffffffffffffffffffffffffffffff166385c96306610a86612055565b610a8e611bdd565b6040518363ffffffff1660e01b8152600401610aab92919061337e565b602060405180830381865afa158015610ac8573d6000803e3d6000fd5b505050506040513d601f19601f82011682018060405250810190610aec91906132a3565b905090565b609760009054906101000a900473ffffffffffffffffffffffffffffffffffffffff1673ffffffffffffffffffffffffffffffffffffffff1663e7334fe56040518163ffffffff1660e01b8152600401602060405180830381865afa158015610b5e573d6000803e3d6000fd5b505050506040513d601f19601f82011682018060405250810190610b8291906132e5565b73ffffffffffffffffffffffffffffffffffffffff16610ba0611a0c565b73ffffffffffffffffffffffffffffffffffffffff1614610bf6576040517f08c379a0000000000000000000000000000000000000000000000000000000008152600401610bed9061335e565b60405180910390fd5b610c5084308386610c079190613200565b609860009054906101000a900473ffffffffffffffffffffffffffffffffffffffff1673ffffffffffffffffffffffffffffffffffffffff166120f8909392919063ffffffff16565b610c5c60008484612181565b8260996000828254610c6e91906133a7565b92505081905550610c7d61223d565b50505050565b6000609860009054906101000a900473ffffffffffffffffffffffffffffffffffffffff16905090565b6000603360008373ffffffffffffffffffffffffffffffffffffffff1673ffffffffffffffffffffffffffffffffffffffff168152602001908152602001600020549050919050565b610cfe611a0c565b73ffffffffffffffffffffffffffffffffffffffff16610d1c610f3b565b73ffffffffffffffffffffffffffffffffffffffff1614610d72576040517f08c379a0000000000000000000000000000000000000000000000000000000008152600401610d69906131b1565b60405180910390fd5b610d7c600061235a565b565b609760009054906101000a900473ffffffffffffffffffffffffffffffffffffffff1673ffffffffffffffffffffffffffffffffffffffff1663e7334fe56040518163ffffffff1660e01b8152600401602060405180830381865afa158015610deb573d6000803e3d6000fd5b505050506040513d601f19601f82011682018060405250810190610e0f91906132e5565b73ffffffffffffffffffffffffffffffffffffffff16610e2d611a0c565b73ffffffffffffffffffffffffffffffffffffffff1614610e83576040517f08c379a0000000000000000000000000000000000000000000000000000000008152600401610e7a9061335e565b60405180910390fd5b610ed2823083609860009054906101000a900473ffffffffffffffffffffffffffffffffffffffff1673ffffffffffffffffffffffffffffffffffffffff166120f8909392919063ffffffff16565b610eda61223d565b5050565b600080600090506000610eef612055565b609954610efc9190613200565b1115610f3457610f0a612055565b609954610f179190613200565b609954609b54610f2791906133db565b610f319190613464565b90505b8091505090565b6000606560009054906101000a900473ffffffffffffffffffffffffffffffffffffffff16905090565b606060378054610f7490613134565b80601f0160208091040260200160405190810160405280929190818152602001828054610fa090613134565b8015610fed5780601f10610fc257610100808354040283529160200191610fed565b820191906000526020600020905b815481529060010190602001808311610fd057829003601f168201915b5050505050905090565b609760009054906101000a900473ffffffffffffffffffffffffffffffffffffffff1673ffffffffffffffffffffffffffffffffffffffff1663e7334fe56040518163ffffffff1660e01b8152600401602060405180830381865afa158015611064573d6000803e3d6000fd5b505050506040513d601f19601f8201168201806040525081019061108891906132e5565b73ffffffffffffffffffffffffffffffffffffffff166110a6611a0c565b73ffffffffffffffffffffffffffffffffffffffff16146110fc576040517f08c379a00000000000000000000000000000000000000000000000000000000081526004016110f39061335e565b60405180910390fd5b6111068282612420565b5050565b609760009054906101000a900473ffffffffffffffffffffffffffffffffffffffff1673ffffffffffffffffffffffffffffffffffffffff1663e7334fe56040518163ffffffff1660e01b8152600401602060405180830381865afa158015611177573d6000803e3d6000fd5b505050506040513d601f19601f8201168201806040525081019061119b91906132e5565b73ffffffffffffffffffffffffffffffffffffffff166111b9611a0c565b73ffffffffffffffffffffffffffffffffffffffff161461120f576040517f08c379a00000000000000000000000000000000000000000000000000000000081526004016112069061335e565b60405180910390fd5b61125c8383609860009054906101000a900473ffffffffffffffffffffffffffffffffffffffff1673ffffffffffffffffffffffffffffffffffffffff166125f89092919063ffffffff16565b61126860018383612181565b816099600082825461127a9190613200565b9250508190555061128961223d565b505050565b600080611299611a0c565b905060006112a78286611691565b9050838110156112ec576040517f08c379a00000000000000000000000000000000000000000000000000000000081526004016112e390613507565b60405180910390fd5b6112f98286868403611a14565b60019250505092915050565b6000609e54905090565b609760009054906101000a900473ffffffffffffffffffffffffffffffffffffffff1673ffffffffffffffffffffffffffffffffffffffff1663e7334fe56040518163ffffffff1660e01b8152600401602060405180830381865afa15801561137c573d6000803e3d6000fd5b505050506040513d601f19601f820116820180604052508101906113a091906132e5565b73ffffffffffffffffffffffffffffffffffffffff166113be611a0c565b73ffffffffffffffffffffffffffffffffffffffff1614611414576040517f08c379a000000000000000000000000000000000000000000000000000000000815260040161140b9061335e565b60405180910390fd5b611463843085609860009054906101000a900473ffffffffffffffffffffffffffffffffffffffff1673ffffffffffffffffffffffffffffffffffffffff166120f8909392919063ffffffff16565b61146f60008284612181565b806099600082825461148191906133a7565b9250508190555061149061223d565b50505050565b6000806114a1611a0c565b90506114ae818585611c73565b600191505092915050565b6000609a54905090565b60006114cf600161267e565b905080156114f3576001600060016101000a81548160ff0219169083151502179055505b6114fb61276e565b61158d88888080601f016020809104026020016040519081016040528093929190818152602001838380828437600081840152601f19601f8201169050808301925050505050505087878080601f016020809104026020016040519081016040528093929190818152602001838380828437600081840152601f19601f820116905080830192505050505050506127c7565b89609760006101000a81548173ffffffffffffffffffffffffffffffffffffffff021916908373ffffffffffffffffffffffffffffffffffffffff16021790555088609860006101000a81548173ffffffffffffffffffffffffffffffffffffffff021916908373ffffffffffffffffffffffffffffffffffffffff16021790555083609e8190555082609c8190555081609d8190555061162c61223d565b80156116855760008060016101000a81548160ff0219169083151502179055507f7f26b83ff96e1f2b6a682f133852f6798a09c465da95921460cefb3847402498600160405161167c919061356c565b60405180910390a15b50505050505050505050565b6000603460008473ffffffffffffffffffffffffffffffffffffffff1673ffffffffffffffffffffffffffffffffffffffff16815260200190815260200160002060008373ffffffffffffffffffffffffffffffffffffffff1673ffffffffffffffffffffffffffffffffffffffff16815260200190815260200160002054905092915050565b6000611722612055565b905090565b61172f611a0c565b73ffffffffffffffffffffffffffffffffffffffff1661174d610f3b565b73ffffffffffffffffffffffffffffffffffffffff16146117a3576040517f08c379a000000000000000000000000000000000000000000000000000000000815260040161179a906131b1565b60405180910390fd5b600073ffffffffffffffffffffffffffffffffffffffff168173ffffffffffffffffffffffffffffffffffffffff1603611812576040517f08c379a0000000000000000000000000000000000000000000000000000000008152600401611809906135f9565b60405180910390fd5b61181b8161235a565b50565b6000609d54905090565b609760009054906101000a900473ffffffffffffffffffffffffffffffffffffffff1673ffffffffffffffffffffffffffffffffffffffff1663e7334fe56040518163ffffffff1660e01b8152600401602060405180830381865afa158015611895573d6000803e3d6000fd5b505050506040513d601f19601f820116820180604052508101906118b991906132e5565b73ffffffffffffffffffffffffffffffffffffffff166118d7611a0c565b73ffffffffffffffffffffffffffffffffffffffff161461192d576040517f08c379a00000000000000000000000000000000000000000000000000000000081526004016119249061335e565b60405180910390fd5b61197a8282609860009054906101000a900473ffffffffffffffffffffffffffffffffffffffff1673ffffffffffffffffffffffffffffffffffffffff166125f89092919063ffffffff16565b61198261223d565b5050565b61198e611a0c565b73ffffffffffffffffffffffffffffffffffffffff166119ac610f3b565b73ffffffffffffffffffffffffffffffffffffffff1614611a02576040517f08c379a00000000000000000000000000000000000000000000000000000000081526004016119f9906131b1565b60405180910390fd5b80609d8190555050565b600033905090565b600073ffffffffffffffffffffffffffffffffffffffff168373ffffffffffffffffffffffffffffffffffffffff1603611a83576040517f08c379a0000000000000000000000000000000000000000000000000000000008152600401611a7a9061368b565b60405180910390fd5b600073ffffffffffffffffffffffffffffffffffffffff168273ffffffffffffffffffffffffffffffffffffffff1603611af2576040517f08c379a0000000000000000000000000000000000000000000000000000000008152600401611ae99061371d565b60405180910390fd5b80603460008573ffffffffffffffffffffffffffffffffffffffff1673ffffffffffffffffffffffffffffffffffffffff16815260200190815260200160002060008473ffffffffffffffffffffffffffffffffffffffff1673ffffffffffffffffffffffffffffffffffffffff168152602001908152602001600020819055508173ffffffffffffffffffffffffffffffffffffffff168373ffffffffffffffffffffffffffffffffffffffff167f8c5be1e5ebec7d5bd14f71427d1e84f3dd0314c0f7b2291e5b200ac8c7c3b92583604051611bd09190612d5d565b60405180910390a3505050565b6000609954905090565b6000611bf38484611691565b90507fffffffffffffffffffffffffffffffffffffffffffffffffffffffffffffffff8114611c6d5781811015611c5f576040517f08c379a0000000000000000000000000000000000000000000000000000000008152600401611c5690613789565b60405180910390fd5b611c6c8484848403611a14565b5b50505050565b600073ffffffffffffffffffffffffffffffffffffffff168373ffffffffffffffffffffffffffffffffffffffff1603611ce2576040517f08c379a0000000000000000000000000000000000000000000000000000000008152600401611cd99061381b565b60405180910390fd5b600073ffffffffffffffffffffffffffffffffffffffff168273ffffffffffffffffffffffffffffffffffffffff1603611d51576040517f08c379a0000000000000000000000000000000000000000000000000000000008152600401611d48906138ad565b60405180910390fd5b611d5c838383612824565b6000603360008573ffffffffffffffffffffffffffffffffffffffff1673ffffffffffffffffffffffffffffffffffffffff16815260200190815260200160002054905081811015611de3576040517f08c379a0000000000000000000000000000000000000000000000000000000008152600401611dda9061393f565b60405180910390fd5b818103603360008673ffffffffffffffffffffffffffffffffffffffff1673ffffffffffffffffffffffffffffffffffffffff1681526020019081526020016000208190555081603360008573ffffffffffffffffffffffffffffffffffffffff1673ffffffffffffffffffffffffffffffffffffffff1681526020019081526020016000206000828254611e789190613200565b925050819055508273ffffffffffffffffffffffffffffffffffffffff168473ffffffffffffffffffffffffffffffffffffffff167fddf252ad1be2c89b69c2b068fc378daa952ba7f163c4a11628f55a4df523b3ef84604051611edc9190612d5d565b60405180910390a3611eef848484612829565b50505050565b600073ffffffffffffffffffffffffffffffffffffffff168273ffffffffffffffffffffffffffffffffffffffff1603611f64576040517f08c379a0000000000000000000000000000000000000000000000000000000008152600401611f5b906139ab565b60405180910390fd5b611f7060008383612824565b8060356000828254611f829190613200565b9250508190555080603360008473ffffffffffffffffffffffffffffffffffffffff1673ffffffffffffffffffffffffffffffffffffffff1681526020019081526020016000206000828254611fd89190613200565b925050819055508173ffffffffffffffffffffffffffffffffffffffff16600073ffffffffffffffffffffffffffffffffffffffff167fddf252ad1be2c89b69c2b068fc378daa952ba7f163c4a11628f55a4df523b3ef8360405161203d9190612d5d565b60405180910390a361205160008383612829565b5050565b6000609860009054906101000a900473ffffffffffffffffffffffffffffffffffffffff1673ffffffffffffffffffffffffffffffffffffffff166370a08231306040518263ffffffff1660e01b81526004016120b29190612ed2565b602060405180830381865afa1580156120cf573d6000803e3d6000fd5b505050506040513d601f19601f820116820180604052508101906120f391906132a3565b905090565b61217b846323b872dd60e01b858585604051602401612119939291906139cb565b604051602081830303815290604052907bffffffffffffffffffffffffffffffffffffffffffffffffffffffff19166020820180517bffffffffffffffffffffffffffffffffffffffffffffffffffffffff838183161783525050505061282e565b50505050565b82156121d057816099546121959190613200565b81836121a191906133db565b609b546099546121b191906133db565b6121bb9190613200565b6121c59190613464565b609b81905550612238565b6000826099546121e091906133a7565b036121f2576000609b81905550612237565b8160995461220091906133a7565b818361220c91906133db565b609b5460995461221c91906133db565b61222691906133a7565b6122309190613464565b609b819055505b5b505050565b609760009054906101000a900473ffffffffffffffffffffffffffffffffffffffff1673ffffffffffffffffffffffffffffffffffffffff16635257b5666040518163ffffffff1660e01b8152600401602060405180830381865afa1580156122aa573d6000803e3d6000fd5b505050506040513d601f19601f820116820180604052508101906122ce91906132e5565b73ffffffffffffffffffffffffffffffffffffffff166366c57dca6122f1612055565b6099546040518363ffffffff1660e01b815260040161231192919061337e565b602060405180830381865afa15801561232e573d6000803e3d6000fd5b505050506040513d601f19601f8201168201806040525081019061235291906132a3565b609a81905550565b6000606560009054906101000a900473ffffffffffffffffffffffffffffffffffffffff16905081606560006101000a81548173ffffffffffffffffffffffffffffffffffffffff021916908373ffffffffffffffffffffffffffffffffffffffff1602179055508173ffffffffffffffffffffffffffffffffffffffff168173ffffffffffffffffffffffffffffffffffffffff167f8be0079c531659141344cd1fd0a4f28419497f9722a3daafe3b4186f6b6457e060405160405180910390a35050565b600073ffffffffffffffffffffffffffffffffffffffff168273ffffffffffffffffffffffffffffffffffffffff160361248f576040517f08c379a000000000000000000000000000000000000000000000000000000000815260040161248690613a74565b60405180910390fd5b61249b82600083612824565b6000603360008473ffffffffffffffffffffffffffffffffffffffff1673ffffffffffffffffffffffffffffffffffffffff16815260200190815260200160002054905081811015612522576040517f08c379a000000000000000000000000000000000000000000000000000000000815260040161251990613b06565b60405180910390fd5b818103603360008573ffffffffffffffffffffffffffffffffffffffff1673ffffffffffffffffffffffffffffffffffffffff16815260200190815260200160002081905550816035600082825461257a91906133a7565b92505081905550600073ffffffffffffffffffffffffffffffffffffffff168373ffffffffffffffffffffffffffffffffffffffff167fddf252ad1be2c89b69c2b068fc378daa952ba7f163c4a11628f55a4df523b3ef846040516125df9190612d5d565b60405180910390a36125f383600084612829565b505050565b6126798363a9059cbb60e01b8484604051602401612617929190613b26565b604051602081830303815290604052907bffffffffffffffffffffffffffffffffffffffffffffffffffffffff19166020820180517bffffffffffffffffffffffffffffffffffffffffffffffffffffffff838183161783525050505061282e565b505050565b60008060019054906101000a900460ff16156126f55760018260ff161480156126ad57506126ab306128f5565b155b6126ec576040517f08c379a00000000000000000000000000000000000000000000000000000000081526004016126e390613bc1565b60405180910390fd5b60009050612769565b8160ff1660008054906101000a900460ff1660ff161061274a576040517f08c379a000000000000000000000000000000000000000000000000000000000815260040161274190613bc1565b60405180910390fd5b816000806101000a81548160ff021916908360ff160217905550600190505b919050565b600060019054906101000a900460ff166127bd576040517f08c379a00000000000000000000000000000000000000000000000000000000081526004016127b490613c53565b60405180910390fd5b6127c5612918565b565b600060019054906101000a900460ff16612816576040517f08c379a000000000000000000000000000000000000000000000000000000000815260040161280d90613c53565b60405180910390fd5b6128208282612979565b5050565b505050565b505050565b6000612890826040518060400160405280602081526020017f5361666545524332303a206c6f772d6c6576656c2063616c6c206661696c65648152508573ffffffffffffffffffffffffffffffffffffffff166129ec9092919063ffffffff16565b90506000815111156128f057808060200190518101906128b09190613c9f565b6128ef576040517f08c379a00000000000000000000000000000000000000000000000000000000081526004016128e690613d3e565b60405180910390fd5b5b505050565b6000808273ffffffffffffffffffffffffffffffffffffffff163b119050919050565b600060019054906101000a900460ff16612967576040517f08c379a000000000000000000000000000000000000000000000000000000000815260040161295e90613c53565b60405180910390fd5b612977612972611a0c565b61235a565b565b600060019054906101000a900460ff166129c8576040517f08c379a00000000000000000000000000000000000000000000000000000000081526004016129bf90613c53565b60405180910390fd5b81603690816129d79190613f2f565b5080603790816129e79190613f2f565b505050565b60606129fb8484600085612a04565b90509392505050565b606082471015612a49576040517f08c379a0000000000000000000000000000000000000000000000000000000008152600401612a4090614073565b60405180910390fd5b612a52856128f5565b612a91576040517f08c379a0000000000000000000000000000000000000000000000000000000008152600401612a88906140df565b60405180910390fd5b6000808673ffffffffffffffffffffffffffffffffffffffff168587604051612aba9190614146565b60006040518083038185875af1925050503d8060008114612af7576040519150601f19603f3d011682016040523d82523d6000602084013e612afc565b606091505b5091509150612b0c828286612b18565b92505050949350505050565b60608315612b2857829050612b78565b600083511115612b3b5782518084602001fd5b816040517f08c379a0000000000000000000000000000000000000000000000000000000008152600401612b6f9190612c18565b60405180910390fd5b9392505050565b600081519050919050565b600082825260208201905092915050565b60005b83811015612bb9578082015181840152602081019050612b9e565b83811115612bc8576000848401525b50505050565b6000601f19601f8301169050919050565b6000612bea82612b7f565b612bf48185612b8a565b9350612c04818560208601612b9b565b612c0d81612bce565b840191505092915050565b60006020820190508181036000830152612c328184612bdf565b905092915050565b600080fd5b600080fd5b600073ffffffffffffffffffffffffffffffffffffffff82169050919050565b6000612c6f82612c44565b9050919050565b612c7f81612c64565b8114612c8a57600080fd5b50565b600081359050612c9c81612c76565b92915050565b6000819050919050565b612cb581612ca2565b8114612cc057600080fd5b50565b600081359050612cd281612cac565b92915050565b60008060408385031215612cef57612cee612c3a565b5b6000612cfd85828601612c8d565b9250506020612d0e85828601612cc3565b9150509250929050565b60008115159050919050565b612d2d81612d18565b82525050565b6000602082019050612d486000830184612d24565b92915050565b612d5781612ca2565b82525050565b6000602082019050612d726000830184612d4e565b92915050565b600080600060608486031215612d9157612d90612c3a565b5b6000612d9f86828701612c8d565b9350506020612db086828701612c8d565b9250506040612dc186828701612cc3565b9150509250925092565b600060208284031215612de157612de0612c3a565b5b6000612def84828501612cc3565b91505092915050565b600060ff82169050919050565b612e0e81612df8565b82525050565b6000602082019050612e296000830184612e05565b92915050565b600060208284031215612e4557612e44612c3a565b5b6000612e5384828501612c8d565b91505092915050565b60008060008060808587031215612e7657612e75612c3a565b5b6000612e8487828801612c8d565b9450506020612e9587828801612cc3565b9350506040612ea687828801612cc3565b9250506060612eb787828801612cc3565b91505092959194509250565b612ecc81612c64565b82525050565b6000602082019050612ee76000830184612ec3565b92915050565b600080600060608486031215612f0657612f05612c3a565b5b6000612f1486828701612c8d565b9350506020612f2586828701612cc3565b9250506040612f3686828701612cc3565b9150509250925092565b6000612f4b82612c64565b9050919050565b612f5b81612f40565b8114612f6657600080fd5b50565b600081359050612f7881612f52565b92915050565b600080fd5b600080fd5b600080fd5b60008083601f840112612fa357612fa2612f7e565b5b8235905067ffffffffffffffff811115612fc057612fbf612f83565b5b602083019150836001820283011115612fdc57612fdb612f88565b5b9250929050565b600080600080600080600080600060e08a8c03121561300557613004612c3a565b5b60006130138c828d01612f69565b99505060206130248c828d01612c8d565b98505060408a013567ffffffffffffffff81111561304557613044612c3f565b5b6130518c828d01612f8d565b975097505060608a013567ffffffffffffffff81111561307457613073612c3f565b5b6130808c828d01612f8d565b955095505060806130938c828d01612cc3565b93505060a06130a48c828d01612cc3565b92505060c06130b58c828d01612cc3565b9150509295985092959850929598565b600080604083850312156130dc576130db612c3a565b5b60006130ea85828601612c8d565b92505060206130fb85828601612c8d565b9150509250929050565b7f4e487b7100000000000000000000000000000000000000000000000000000000600052602260045260246000fd5b6000600282049050600182168061314c57607f821691505b60208210810361315f5761315e613105565b5b50919050565b7f4f776e61626c653a2063616c6c6572206973206e6f7420746865206f776e6572600082015250565b600061319b602083612b8a565b91506131a682613165565b602082019050919050565b600060208201905081810360008301526131ca8161318e565b9050919050565b7f4e487b7100000000000000000000000000000000000000000000000000000000600052601160045260246000fd5b600061320b82612ca2565b915061321683612ca2565b9250827fffffffffffffffffffffffffffffffffffffffffffffffffffffffffffffffff0382111561324b5761324a6131d1565b5b828201905092915050565b61325f81612c64565b82525050565b600060408201905061327a6000830185613256565b6132876020830184613256565b9392505050565b60008151905061329d81612cac565b92915050565b6000602082840312156132b9576132b8612c3a565b5b60006132c78482850161328e565b91505092915050565b6000815190506132df81612c76565b92915050565b6000602082840312156132fb576132fa612c3a565b5b6000613309848285016132d0565b91505092915050565b7f43616c6c6572206d757374206265204d61726b657420636f6e74726163740000600082015250565b6000613348601e83612b8a565b915061335382613312565b602082019050919050565b600060208201905081810360008301526133778161333b565b9050919050565b60006040820190506133936000830185612d4e565b6133a06020830184612d4e565b9392505050565b60006133b282612ca2565b91506133bd83612ca2565b9250828210156133d0576133cf6131d1565b5b828203905092915050565b60006133e682612ca2565b91506133f183612ca2565b9250817fffffffffffffffffffffffffffffffffffffffffffffffffffffffffffffffff048311821515161561342a576134296131d1565b5b828202905092915050565b7f4e487b7100000000000000000000000000000000000000000000000000000000600052601260045260246000fd5b600061346f82612ca2565b915061347a83612ca2565b92508261348a57613489613435565b5b828204905092915050565b7f45524332303a2064656372656173656420616c6c6f77616e63652062656c6f7760008201527f207a65726f000000000000000000000000000000000000000000000000000000602082015250565b60006134f1602583612b8a565b91506134fc82613495565b604082019050919050565b60006020820190508181036000830152613520816134e4565b9050919050565b6000819050919050565b6000819050919050565b600061355661355161354c84613527565b613531565b612df8565b9050919050565b6135668161353b565b82525050565b6000602082019050613581600083018461355d565b92915050565b7f4f776e61626c653a206e6577206f776e657220697320746865207a65726f206160008201527f6464726573730000000000000000000000000000000000000000000000000000602082015250565b60006135e3602683612b8a565b91506135ee82613587565b604082019050919050565b60006020820190508181036000830152613612816135d6565b9050919050565b7f45524332303a20617070726f76652066726f6d20746865207a65726f2061646460008201527f7265737300000000000000000000000000000000000000000000000000000000602082015250565b6000613675602483612b8a565b915061368082613619565b604082019050919050565b600060208201905081810360008301526136a481613668565b9050919050565b7f45524332303a20617070726f766520746f20746865207a65726f20616464726560008201527f7373000000000000000000000000000000000000000000000000000000000000602082015250565b6000613707602283612b8a565b9150613712826136ab565b604082019050919050565b60006020820190508181036000830152613736816136fa565b9050919050565b7f45524332303a20696e73756666696369656e7420616c6c6f77616e6365000000600082015250565b6000613773601d83612b8a565b915061377e8261373d565b602082019050919050565b600060208201905081810360008301526137a281613766565b9050919050565b7f45524332303a207472616e736665722066726f6d20746865207a65726f20616460008201527f6472657373000000000000000000000000000000000000000000000000000000602082015250565b6000613805602583612b8a565b9150613810826137a9565b604082019050919050565b60006020820190508181036000830152613834816137f8565b9050919050565b7f45524332303a207472616e7366657220746f20746865207a65726f206164647260008201527f6573730000000000000000000000000000000000000000000000000000000000602082015250565b6000613897602383612b8a565b91506138a28261383b565b604082019050919050565b600060208201905081810360008301526138c68161388a565b9050919050565b7f45524332303a207472616e7366657220616d6f756e742065786365656473206260008201527f616c616e63650000000000000000000000000000000000000000000000000000602082015250565b6000613929602683612b8a565b9150613934826138cd565b604082019050919050565b600060208201905081810360008301526139588161391c565b9050919050565b7f45524332303a206d696e7420746f20746865207a65726f206164647265737300600082015250565b6000613995601f83612b8a565b91506139a08261395f565b602082019050919050565b600060208201905081810360008301526139c481613988565b9050919050565b60006060820190506139e06000830186612ec3565b6139ed6020830185612ec3565b6139fa6040830184612d4e565b949350505050565b7f45524332303a206275726e2066726f6d20746865207a65726f2061646472657360008201527f7300000000000000000000000000000000000000000000000000000000000000602082015250565b6000613a5e602183612b8a565b9150613a6982613a02565b604082019050919050565b60006020820190508181036000830152613a8d81613a51565b9050919050565b7f45524332303a206275726e20616d6f756e7420657863656564732062616c616e60008201527f6365000000000000000000000000000000000000000000000000000000000000602082015250565b6000613af0602283612b8a565b9150613afb82613a94565b604082019050919050565b60006020820190508181036000830152613b1f81613ae3565b9050919050565b6000604082019050613b3b6000830185612ec3565b613b486020830184612d4e565b9392505050565b7f496e697469616c697a61626c653a20636f6e747261637420697320616c72656160008201527f647920696e697469616c697a6564000000000000000000000000000000000000602082015250565b6000613bab602e83612b8a565b9150613bb682613b4f565b604082019050919050565b60006020820190508181036000830152613bda81613b9e565b9050919050565b7f496e697469616c697a61626c653a20636f6e7472616374206973206e6f74206960008201527f6e697469616c697a696e67000000000000000000000000000000000000000000602082015250565b6000613c3d602b83612b8a565b9150613c4882613be1565b604082019050919050565b60006020820190508181036000830152613c6c81613c30565b9050919050565b613c7c81612d18565b8114613c8757600080fd5b50565b600081519050613c9981613c73565b92915050565b600060208284031215613cb557613cb4612c3a565b5b6000613cc384828501613c8a565b91505092915050565b7f5361666545524332303a204552433230206f7065726174696f6e20646964206e60008201527f6f74207375636365656400000000000000000000000000000000000000000000602082015250565b6000613d28602a83612b8a565b9150613d3382613ccc565b604082019050919050565b60006020820190508181036000830152613d5781613d1b565b9050919050565b7f4e487b7100000000000000000000000000000000000000000000000000000000600052604160045260246000fd5b60008190508160005260206000209050919050565b60006020601f8301049050919050565b600082821b905092915050565b600060088302613def7fffffffffffffffffffffffffffffffffffffffffffffffffffffffffffffffff82613db2565b613df98683613db2565b95508019841693508086168417925050509392505050565b6000613e2c613e27613e2284612ca2565b613531565b612ca2565b9050919050565b6000819050919050565b613e4683613e11565b613e5a613e5282613e33565b848454613dbf565b825550505050565b600090565b613e6f613e62565b613e7a818484613e3d565b505050565b5b81811015613e9e57613e93600082613e67565b600181019050613e80565b5050565b601f821115613ee357613eb481613d8d565b613ebd84613da2565b81016020851015613ecc578190505b613ee0613ed885613da2565b830182613e7f565b50505b505050565b600082821c905092915050565b6000613f0660001984600802613ee8565b1980831691505092915050565b6000613f1f8383613ef5565b9150826002028217905092915050565b613f3882612b7f565b67ffffffffffffffff811115613f5157613f50613d5e565b5b613f5b8254613134565b613f66828285613ea2565b600060209050601f831160018114613f995760008415613f87578287015190505b613f918582613f13565b865550613ff9565b601f198416613fa786613d8d565b60005b82811015613fcf57848901518255600182019150602085019450602081019050613faa565b86831015613fec5784890151613fe8601f891682613ef5565b8355505b6001600288020188555050505b505050505050565b7f416464726573733a20696e73756666696369656e742062616c616e636520666f60008201527f722063616c6c0000000000000000000000000000000000000000000000000000602082015250565b600061405d602683612b8a565b915061406882614001565b604082019050919050565b6000602082019050818103600083015261408c81614050565b9050919050565b7f416464726573733a2063616c6c20746f206e6f6e2d636f6e7472616374000000600082015250565b60006140c9601d83612b8a565b91506140d482614093565b602082019050919050565b600060208201905081810360008301526140f8816140bc565b9050919050565b600081519050919050565b600081905092915050565b6000614120826140ff565b61412a818561410a565b935061413a818560208601612b9b565b80840191505092915050565b60006141528284614115565b91508190509291505056fea264697066735822122004011fa2664a918357c2782aaa52128fe6e48c12742d3bf7cd781504fc78f07e64736f6c634300080f0033",
  "linkReferences": {
    "contracts/libraries/logic/SupplyLogic.sol": {
      "SupplyLogic": [
        {
          "length": 20,
          "start": 2142
        }
      ]
    }
  },
  "deployedLinkReferences": {
    "contracts/libraries/logic/SupplyLogic.sol": {
      "SupplyLogic": [
        {
          "length": 20,
          "start": 2110
        }
      ]
    }
  }
}