{
  "_format": "hh-sol-artifact-1",
  "contractName": "Reserve",
  "sourceName": "contracts/protocol/Reserve.sol",
  "abi": [
    {
      "anonymous": false,
      "inputs": [
        {
          "indexed": true,
          "internalType": "address",
          "name": "owner",
          "type": "address"
        },
        {
          "indexed": true,
          "internalType": "address",
          "name": "spender",
          "type": "address"
        },
        {
          "indexed": false,
          "internalType": "uint256",
          "name": "value",
          "type": "uint256"
        }
      ],
      "name": "Approval",
      "type": "event"
    },
    {
      "anonymous": false,
      "inputs": [
        {
          "indexed": false,
          "internalType": "uint8",
          "name": "version",
          "type": "uint8"
        }
      ],
      "name": "Initialized",
      "type": "event"
    },
    {
      "anonymous": false,
      "inputs": [
        {
          "indexed": true,
          "internalType": "address",
          "name": "previousOwner",
          "type": "address"
        },
        {
          "indexed": true,
          "internalType": "address",
          "name": "newOwner",
          "type": "address"
        }
      ],
      "name": "OwnershipTransferred",
      "type": "event"
    },
    {
      "anonymous": false,
      "inputs": [
        {
          "indexed": true,
          "internalType": "address",
          "name": "from",
          "type": "address"
        },
        {
          "indexed": true,
          "internalType": "address",
          "name": "to",
          "type": "address"
        },
        {
          "indexed": false,
          "internalType": "uint256",
          "name": "value",
          "type": "uint256"
        }
      ],
      "name": "Transfer",
      "type": "event"
    },
    {
      "inputs": [
        {
          "internalType": "address",
          "name": "owner",
          "type": "address"
        },
        {
          "internalType": "address",
          "name": "spender",
          "type": "address"
        }
      ],
      "name": "allowance",
      "outputs": [
        {
          "internalType": "uint256",
          "name": "",
          "type": "uint256"
        }
      ],
      "stateMutability": "view",
      "type": "function"
    },
    {
      "inputs": [
        {
          "internalType": "address",
          "name": "spender",
          "type": "address"
        },
        {
          "internalType": "uint256",
          "name": "amount",
          "type": "uint256"
        }
      ],
      "name": "approve",
      "outputs": [
        {
          "internalType": "bool",
          "name": "",
          "type": "bool"
        }
      ],
      "stateMutability": "nonpayable",
      "type": "function"
    },
    {
      "inputs": [
        {
          "internalType": "address",
          "name": "account",
          "type": "address"
        }
      ],
      "name": "balanceOf",
      "outputs": [
        {
          "internalType": "uint256",
          "name": "",
          "type": "uint256"
        }
      ],
      "stateMutability": "view",
      "type": "function"
    },
    {
      "inputs": [
        {
          "internalType": "address",
          "name": "user",
          "type": "address"
        },
        {
          "internalType": "uint256",
          "name": "amount",
          "type": "uint256"
        }
      ],
      "name": "burn",
      "outputs": [],
      "stateMutability": "nonpayable",
      "type": "function"
    },
    {
      "inputs": [
        {
          "internalType": "uint256",
          "name": "liquidationPenalty",
          "type": "uint256"
        }
      ],
      "name": "changeLiquidationPenalty",
      "outputs": [],
      "stateMutability": "nonpayable",
      "type": "function"
    },
    {
      "inputs": [
        {
          "internalType": "uint256",
          "name": "protocolLiquidationFee",
          "type": "uint256"
        }
      ],
      "name": "changeProtocolLiquidationFee",
      "outputs": [],
      "stateMutability": "nonpayable",
      "type": "function"
    },
    {
      "inputs": [],
      "name": "decimals",
      "outputs": [
        {
          "internalType": "uint8",
          "name": "",
          "type": "uint8"
        }
      ],
      "stateMutability": "view",
      "type": "function"
    },
    {
      "inputs": [
        {
          "internalType": "address",
          "name": "spender",
          "type": "address"
        },
        {
          "internalType": "uint256",
          "name": "subtractedValue",
          "type": "uint256"
        }
      ],
      "name": "decreaseAllowance",
      "outputs": [
        {
          "internalType": "bool",
          "name": "",
          "type": "bool"
        }
      ],
      "stateMutability": "nonpayable",
      "type": "function"
    },
    {
      "inputs": [
        {
          "internalType": "address",
          "name": "depositor",
          "type": "address"
        },
        {
          "internalType": "uint256",
          "name": "amount",
          "type": "uint256"
        }
      ],
      "name": "depositUnderlying",
      "outputs": [],
      "stateMutability": "nonpayable",
      "type": "function"
    },
    {
      "inputs": [],
      "name": "getAsset",
      "outputs": [
        {
          "internalType": "address",
          "name": "",
          "type": "address"
        }
      ],
      "stateMutability": "view",
      "type": "function"
    },
    {
      "inputs": [],
      "name": "getBorrowRate",
      "outputs": [
        {
          "internalType": "uint256",
          "name": "",
          "type": "uint256"
        }
      ],
      "stateMutability": "view",
      "type": "function"
    },
    {
      "inputs": [],
      "name": "getCumulativeBorrowRate",
      "outputs": [
        {
          "internalType": "uint256",
          "name": "",
          "type": "uint256"
        }
      ],
      "stateMutability": "view",
      "type": "function"
    },
    {
      "inputs": [],
      "name": "getDebt",
      "outputs": [
        {
          "internalType": "uint256",
          "name": "",
          "type": "uint256"
        }
      ],
      "stateMutability": "view",
      "type": "function"
    },
    {
      "inputs": [],
      "name": "getLiquidationPenalty",
      "outputs": [
        {
          "internalType": "uint256",
          "name": "",
          "type": "uint256"
        }
      ],
      "stateMutability": "view",
      "type": "function"
    },
    {
      "inputs": [],
      "name": "getMaximumUtilizationRate",
      "outputs": [
        {
          "internalType": "uint256",
          "name": "",
          "type": "uint256"
        }
      ],
      "stateMutability": "view",
      "type": "function"
    },
    {
      "inputs": [
        {
          "internalType": "address",
          "name": "to",
          "type": "address"
        }
      ],
      "name": "getMaximumWithdrawalAmount",
      "outputs": [
        {
          "internalType": "uint256",
          "name": "",
          "type": "uint256"
        }
      ],
      "stateMutability": "view",
      "type": "function"
    },
    {
      "inputs": [],
      "name": "getProtocolLiquidationFee",
      "outputs": [
        {
          "internalType": "uint256",
          "name": "",
          "type": "uint256"
        }
      ],
      "stateMutability": "view",
      "type": "function"
    },
    {
      "inputs": [],
      "name": "getUnderlyingBalance",
      "outputs": [
        {
          "internalType": "uint256",
          "name": "",
          "type": "uint256"
        }
      ],
      "stateMutability": "view",
      "type": "function"
    },
    {
      "inputs": [],
      "name": "getUtilizationRate",
      "outputs": [
        {
          "internalType": "uint256",
          "name": "",
          "type": "uint256"
        }
      ],
      "stateMutability": "view",
      "type": "function"
    },
    {
      "inputs": [
        {
          "internalType": "address",
          "name": "spender",
          "type": "address"
        },
        {
          "internalType": "uint256",
          "name": "addedValue",
          "type": "uint256"
        }
      ],
      "name": "increaseAllowance",
      "outputs": [
        {
          "internalType": "bool",
          "name": "",
          "type": "bool"
        }
      ],
      "stateMutability": "nonpayable",
      "type": "function"
    },
    {
      "inputs": [
        {
          "internalType": "contract IMarketAddressesProvider",
          "name": "addressProvider",
          "type": "address"
        },
        {
          "internalType": "address",
          "name": "asset",
          "type": "address"
        },
        {
          "internalType": "string",
          "name": "name",
          "type": "string"
        },
        {
          "internalType": "string",
          "name": "symbol",
          "type": "string"
        },
        {
          "internalType": "uint256",
          "name": "liquidationPenalty",
          "type": "uint256"
        },
        {
          "internalType": "uint256",
          "name": "maximumUtilizationRate",
          "type": "uint256"
        },
        {
          "internalType": "uint256",
          "name": "protocolLiquidationFee",
          "type": "uint256"
        }
      ],
      "name": "initialize",
      "outputs": [],
      "stateMutability": "nonpayable",
      "type": "function"
    },
    {
      "inputs": [
        {
          "internalType": "address",
          "name": "user",
          "type": "address"
        },
        {
          "internalType": "uint256",
          "name": "amount",
          "type": "uint256"
        }
      ],
      "name": "mint",
      "outputs": [],
      "stateMutability": "nonpayable",
      "type": "function"
    },
    {
      "inputs": [],
      "name": "name",
      "outputs": [
        {
          "internalType": "string",
          "name": "",
          "type": "string"
        }
      ],
      "stateMutability": "view",
      "type": "function"
    },
    {
      "inputs": [],
      "name": "owner",
      "outputs": [
        {
          "internalType": "address",
          "name": "",
          "type": "address"
        }
      ],
      "stateMutability": "view",
      "type": "function"
    },
    {
      "inputs": [
        {
          "internalType": "address",
          "name": "from",
          "type": "address"
        },
        {
          "internalType": "uint256",
          "name": "amount",
          "type": "uint256"
        },
        {
          "internalType": "uint256",
          "name": "borrowRate",
          "type": "uint256"
        },
        {
          "internalType": "uint256",
          "name": "interest",
          "type": "uint256"
        }
      ],
      "name": "receiveUnderlying",
      "outputs": [],
      "stateMutability": "nonpayable",
      "type": "function"
    },
    {
      "inputs": [
        {
          "internalType": "address",
          "name": "from",
          "type": "address"
        },
        {
          "internalType": "uint256",
          "name": "amount",
          "type": "uint256"
        },
        {
          "internalType": "uint256",
          "name": "borrowRate",
          "type": "uint256"
        },
        {
          "internalType": "uint256",
          "name": "defaultedDebt",
          "type": "uint256"
        }
      ],
      "name": "receiveUnderlyingDefaulted",
      "outputs": [],
      "stateMutability": "nonpayable",
      "type": "function"
    },
    {
      "inputs": [],
      "name": "renounceOwnership",
      "outputs": [],
      "stateMutability": "nonpayable",
      "type": "function"
    },
    {
      "inputs": [],
      "name": "symbol",
      "outputs": [
        {
          "internalType": "string",
          "name": "",
          "type": "string"
        }
      ],
      "stateMutability": "view",
      "type": "function"
    },
    {
      "inputs": [],
      "name": "totalSupply",
      "outputs": [
        {
          "internalType": "uint256",
          "name": "",
          "type": "uint256"
        }
      ],
      "stateMutability": "view",
      "type": "function"
    },
    {
      "inputs": [
        {
          "internalType": "address",
          "name": "to",
          "type": "address"
        },
        {
          "internalType": "uint256",
          "name": "amount",
          "type": "uint256"
        }
      ],
      "name": "transfer",
      "outputs": [
        {
          "internalType": "bool",
          "name": "",
          "type": "bool"
        }
      ],
      "stateMutability": "nonpayable",
      "type": "function"
    },
    {
      "inputs": [
        {
          "internalType": "address",
          "name": "from",
          "type": "address"
        },
        {
          "internalType": "address",
          "name": "to",
          "type": "address"
        },
        {
          "internalType": "uint256",
          "name": "amount",
          "type": "uint256"
        }
      ],
      "name": "transferFrom",
      "outputs": [
        {
          "internalType": "bool",
          "name": "",
          "type": "bool"
        }
      ],
      "stateMutability": "nonpayable",
      "type": "function"
    },
    {
      "inputs": [
        {
          "internalType": "address",
          "name": "newOwner",
          "type": "address"
        }
      ],
      "name": "transferOwnership",
      "outputs": [],
      "stateMutability": "nonpayable",
      "type": "function"
    },
    {
      "inputs": [
        {
          "internalType": "address",
          "name": "to",
          "type": "address"
        },
        {
          "internalType": "uint256",
          "name": "amount",
          "type": "uint256"
        },
        {
          "internalType": "uint256",
          "name": "borrowRate",
          "type": "uint256"
        }
      ],
      "name": "transferUnderlying",
      "outputs": [],
      "stateMutability": "nonpayable",
      "type": "function"
    },
    {
      "inputs": [
        {
          "internalType": "address",
          "name": "to",
          "type": "address"
        },
        {
          "internalType": "uint256",
          "name": "amount",
          "type": "uint256"
        }
      ],
      "name": "withdrawUnderlying",
      "outputs": [],
      "stateMutability": "nonpayable",
      "type": "function"
    }
  ],
  "bytecode": "0x608060405234801561001057600080fd5b50614138806100206000396000f3fe608060405234801561001057600080fd5b50600436106102065760003560e01c8063715018a61161011a578063a4b84e0a116100ad578063c65fef8b1161007c578063c65fef8b146105cb578063dd62ed3e146105e7578063e2c6743914610617578063f2fde38b14610635578063fdb872521461065157610206565b8063a4b84e0a14610543578063a663f83014610561578063a9059cbb1461057d578063ba1c5e80146105ad57610206565b806395d89b41116100e957806395d89b41146104bd5780639dc29fac146104db578063a2258694146104f7578063a457c2d71461051357610206565b8063715018a61461045b57806375d0f29f146104655780638da5cb5b14610481578063900b6f821461049f57610206565b8063313ce5671161019d5780634a417a531161016c5780634a417a53146103b7578063545039c6146103d55780635c222bad146103f15780636c3c7c4e1461040f57806370a082311461042b57610206565b8063313ce5671461031d578063395093511461033b5780633e680e7a1461036b57806340c10f191461039b57610206565b80631e522b29116101d95780631e522b2914610295578063235bd463146102b357806323b872dd146102d15780632a97d8a61461030157610206565b806306fdde031461020b578063095ea7b31461022957806314a6bf0f1461025957806318160ddd14610277575b600080fd5b61021361066d565b6040516102209190612bbd565b60405180910390f35b610243600480360381019061023e9190612c7d565b6106ff565b6040516102509190612cd8565b60405180910390f35b610261610722565b60405161026e9190612d02565b60405180910390f35b61027f610731565b60405161028c9190612d02565b60405180910390f35b61029d61073b565b6040516102aa9190612d02565b60405180910390f35b6102bb610745565b6040516102c89190612d02565b60405180910390f35b6102eb60048036038101906102e69190612d1d565b61074f565b6040516102f89190612cd8565b60405180910390f35b61031b60048036038101906103169190612d70565b61077e565b005b610325610804565b6040516103329190612db9565b60405180910390f35b61035560048036038101906103509190612c7d565b61080d565b6040516103629190612cd8565b60405180910390f35b61038560048036038101906103809190612dd4565b610844565b6040516103929190612d02565b60405180910390f35b6103b560048036038101906103b09190612c7d565b6108c7565b005b6103bf6109da565b6040516103cc9190612d02565b60405180910390f35b6103ef60048036038101906103ea9190612e01565b610afb565b005b6103f9610c8d565b6040516104069190612e77565b60405180910390f35b61042960048036038101906104249190612d70565b610cb7565b005b61044560048036038101906104409190612dd4565b610d3d565b6040516104529190612d02565b60405180910390f35b610463610d86565b005b61047f600480360381019061047a9190612c7d565b610e0e565b005b610489610f6e565b6040516104969190612e77565b60405180910390f35b6104a7610f98565b6040516104b49190612d02565b60405180910390f35b6104c5610fa2565b6040516104d29190612bbd565b60405180910390f35b6104f560048036038101906104f09190612c7d565b611034565b005b610511600480360381019061050c9190612e92565b611147565b005b61052d60048036038101906105289190612c7d565b6112cb565b60405161053a9190612cd8565b60405180910390f35b61054b611342565b6040516105589190612d02565b60405180910390f35b61057b60048036038101906105769190612e01565b61134c565b005b61059760048036038101906105929190612c7d565b6114d3565b6040516105a49190612cd8565b60405180910390f35b6105b56114f6565b6040516105c29190612d02565b60405180910390f35b6105e560048036038101906105e09190612f88565b611500565b005b61060160048036038101906105fc919061306a565b6116c6565b60405161060e9190612d02565b60405180910390f35b61061f61174d565b60405161062c9190612d02565b60405180910390f35b61064f600480360381019061064a9190612dd4565b61175c565b005b61066b60048036038101906106669190612c7d565b611853565b005b60606036805461067c906130d9565b80601f01602080910402602001604051908101604052809291908181526020018280546106a8906130d9565b80156106f55780601f106106ca576101008083540402835291602001916106f5565b820191906000526020600020905b8154815290600101906020018083116106d857829003601f168201915b5050505050905090565b60008061070a6119b1565b90506107178185856119b9565b600191505092915050565b600061072c611b82565b905090565b6000603554905090565b6000609c54905090565b6000609b54905090565b60008061075a6119b1565b9050610767858285611b8c565b610772858585611c18565b60019150509392505050565b6107866119b1565b73ffffffffffffffffffffffffffffffffffffffff166107a4610f6e565b73ffffffffffffffffffffffffffffffffffffffff16146107fa576040517f08c379a00000000000000000000000000000000000000000000000000000000081526004016107f190613156565b60405180910390fd5b80609c8190555050565b60006012905090565b6000806108186119b1565b905061083981858561082a85896116c6565b61083491906131a5565b6119b9565b600191505092915050565b600073__$2f7c76ee15bdc1d8f3b34a04b86951fc56$__634af0799330846040518363ffffffff1660e01b815260040161087f92919061320a565b602060405180830381865af415801561089c573d6000803e3d6000fd5b505050506040513d601f19601f820116820180604052508101906108c09190613248565b9050919050565b609760009054906101000a900473ffffffffffffffffffffffffffffffffffffffff1673ffffffffffffffffffffffffffffffffffffffff1663e7334fe56040518163ffffffff1660e01b8152600401602060405180830381865afa158015610934573d6000803e3d6000fd5b505050506040513d601f19601f82011682018060405250810190610958919061328a565b73ffffffffffffffffffffffffffffffffffffffff166109766119b1565b73ffffffffffffffffffffffffffffffffffffffff16146109cc576040517f08c379a00000000000000000000000000000000000000000000000000000000081526004016109c390613303565b60405180910390fd5b6109d68282611e9a565b5050565b6000609760009054906101000a900473ffffffffffffffffffffffffffffffffffffffff1673ffffffffffffffffffffffffffffffffffffffff16635257b5666040518163ffffffff1660e01b8152600401602060405180830381865afa158015610a49573d6000803e3d6000fd5b505050506040513d601f19601f82011682018060405250810190610a6d919061328a565b73ffffffffffffffffffffffffffffffffffffffff166385c96306610a90611ffa565b610a98611b82565b6040518363ffffffff1660e01b8152600401610ab5929190613323565b602060405180830381865afa158015610ad2573d6000803e3d6000fd5b505050506040513d601f19601f82011682018060405250810190610af69190613248565b905090565b609760009054906101000a900473ffffffffffffffffffffffffffffffffffffffff1673ffffffffffffffffffffffffffffffffffffffff1663e7334fe56040518163ffffffff1660e01b8152600401602060405180830381865afa158015610b68573d6000803e3d6000fd5b505050506040513d601f19601f82011682018060405250810190610b8c919061328a565b73ffffffffffffffffffffffffffffffffffffffff16610baa6119b1565b73ffffffffffffffffffffffffffffffffffffffff1614610c00576040517f08c379a0000000000000000000000000000000000000000000000000000000008152600401610bf790613303565b60405180910390fd5b610c5a84308386610c1191906131a5565b609860009054906101000a900473ffffffffffffffffffffffffffffffffffffffff1673ffffffffffffffffffffffffffffffffffffffff1661209d909392919063ffffffff16565b610c6660008484612126565b8260996000828254610c78919061334c565b92505081905550610c876121e2565b50505050565b6000609860009054906101000a900473ffffffffffffffffffffffffffffffffffffffff16905090565b610cbf6119b1565b73ffffffffffffffffffffffffffffffffffffffff16610cdd610f6e565b73ffffffffffffffffffffffffffffffffffffffff1614610d33576040517f08c379a0000000000000000000000000000000000000000000000000000000008152600401610d2a90613156565b60405180910390fd5b80609d8190555050565b6000603360008373ffffffffffffffffffffffffffffffffffffffff1673ffffffffffffffffffffffffffffffffffffffff168152602001908152602001600020549050919050565b610d8e6119b1565b73ffffffffffffffffffffffffffffffffffffffff16610dac610f6e565b73ffffffffffffffffffffffffffffffffffffffff1614610e02576040517f08c379a0000000000000000000000000000000000000000000000000000000008152600401610df990613156565b60405180910390fd5b610e0c60006122ff565b565b609760009054906101000a900473ffffffffffffffffffffffffffffffffffffffff1673ffffffffffffffffffffffffffffffffffffffff1663e7334fe56040518163ffffffff1660e01b8152600401602060405180830381865afa158015610e7b573d6000803e3d6000fd5b505050506040513d601f19601f82011682018060405250810190610e9f919061328a565b73ffffffffffffffffffffffffffffffffffffffff16610ebd6119b1565b73ffffffffffffffffffffffffffffffffffffffff1614610f13576040517f08c379a0000000000000000000000000000000000000000000000000000000008152600401610f0a90613303565b60405180910390fd5b610f62823083609860009054906101000a900473ffffffffffffffffffffffffffffffffffffffff1673ffffffffffffffffffffffffffffffffffffffff1661209d909392919063ffffffff16565b610f6a6121e2565b5050565b6000606560009054906101000a900473ffffffffffffffffffffffffffffffffffffffff16905090565b6000609d54905090565b606060378054610fb1906130d9565b80601f0160208091040260200160405190810160405280929190818152602001828054610fdd906130d9565b801561102a5780601f10610fff5761010080835404028352916020019161102a565b820191906000526020600020905b81548152906001019060200180831161100d57829003601f168201915b5050505050905090565b609760009054906101000a900473ffffffffffffffffffffffffffffffffffffffff1673ffffffffffffffffffffffffffffffffffffffff1663e7334fe56040518163ffffffff1660e01b8152600401602060405180830381865afa1580156110a1573d6000803e3d6000fd5b505050506040513d601f19601f820116820180604052508101906110c5919061328a565b73ffffffffffffffffffffffffffffffffffffffff166110e36119b1565b73ffffffffffffffffffffffffffffffffffffffff1614611139576040517f08c379a000000000000000000000000000000000000000000000000000000000815260040161113090613303565b60405180910390fd5b61114382826123c5565b5050565b609760009054906101000a900473ffffffffffffffffffffffffffffffffffffffff1673ffffffffffffffffffffffffffffffffffffffff1663e7334fe56040518163ffffffff1660e01b8152600401602060405180830381865afa1580156111b4573d6000803e3d6000fd5b505050506040513d601f19601f820116820180604052508101906111d8919061328a565b73ffffffffffffffffffffffffffffffffffffffff166111f66119b1565b73ffffffffffffffffffffffffffffffffffffffff161461124c576040517f08c379a000000000000000000000000000000000000000000000000000000000815260040161124390613303565b60405180910390fd5b6112998383609860009054906101000a900473ffffffffffffffffffffffffffffffffffffffff1673ffffffffffffffffffffffffffffffffffffffff1661259d9092919063ffffffff16565b6112a560018383612126565b81609960008282546112b791906131a5565b925050819055506112c66121e2565b505050565b6000806112d66119b1565b905060006112e482866116c6565b905083811015611329576040517f08c379a0000000000000000000000000000000000000000000000000000000008152600401611320906133f2565b60405180910390fd5b61133682868684036119b9565b60019250505092915050565b6000609e54905090565b609760009054906101000a900473ffffffffffffffffffffffffffffffffffffffff1673ffffffffffffffffffffffffffffffffffffffff1663e7334fe56040518163ffffffff1660e01b8152600401602060405180830381865afa1580156113b9573d6000803e3d6000fd5b505050506040513d601f19601f820116820180604052508101906113dd919061328a565b73ffffffffffffffffffffffffffffffffffffffff166113fb6119b1565b73ffffffffffffffffffffffffffffffffffffffff1614611451576040517f08c379a000000000000000000000000000000000000000000000000000000000815260040161144890613303565b60405180910390fd5b6114a0843085609860009054906101000a900473ffffffffffffffffffffffffffffffffffffffff1673ffffffffffffffffffffffffffffffffffffffff1661209d909392919063ffffffff16565b6114ac60008284612126565b80609960008282546114be919061334c565b925050819055506114cd6121e2565b50505050565b6000806114de6119b1565b90506114eb818585611c18565b600191505092915050565b6000609a54905090565b600061150c6001612623565b90508015611530576001600060016101000a81548160ff0219169083151502179055505b611538612713565b6115ca88888080601f016020809104026020016040519081016040528093929190818152602001838380828437600081840152601f19601f8201169050808301925050505050505087878080601f016020809104026020016040519081016040528093929190818152602001838380828437600081840152601f19601f8201169050808301925050505050505061276c565b89609760006101000a81548173ffffffffffffffffffffffffffffffffffffffff021916908373ffffffffffffffffffffffffffffffffffffffff16021790555088609860006101000a81548173ffffffffffffffffffffffffffffffffffffffff021916908373ffffffffffffffffffffffffffffffffffffffff16021790555083609c8190555082609e8190555081609d8190555080156116ba5760008060016101000a81548160ff0219169083151502179055507f7f26b83ff96e1f2b6a682f133852f6798a09c465da95921460cefb384740249860016040516116b19190613457565b60405180910390a15b50505050505050505050565b6000603460008473ffffffffffffffffffffffffffffffffffffffff1673ffffffffffffffffffffffffffffffffffffffff16815260200190815260200160002060008373ffffffffffffffffffffffffffffffffffffffff1673ffffffffffffffffffffffffffffffffffffffff16815260200190815260200160002054905092915050565b6000611757611ffa565b905090565b6117646119b1565b73ffffffffffffffffffffffffffffffffffffffff16611782610f6e565b73ffffffffffffffffffffffffffffffffffffffff16146117d8576040517f08c379a00000000000000000000000000000000000000000000000000000000081526004016117cf90613156565b60405180910390fd5b600073ffffffffffffffffffffffffffffffffffffffff168173ffffffffffffffffffffffffffffffffffffffff1603611847576040517f08c379a000000000000000000000000000000000000000000000000000000000815260040161183e906134e4565b60405180910390fd5b611850816122ff565b50565b609760009054906101000a900473ffffffffffffffffffffffffffffffffffffffff1673ffffffffffffffffffffffffffffffffffffffff1663e7334fe56040518163ffffffff1660e01b8152600401602060405180830381865afa1580156118c0573d6000803e3d6000fd5b505050506040513d601f19601f820116820180604052508101906118e4919061328a565b73ffffffffffffffffffffffffffffffffffffffff166119026119b1565b73ffffffffffffffffffffffffffffffffffffffff1614611958576040517f08c379a000000000000000000000000000000000000000000000000000000000815260040161194f90613303565b60405180910390fd5b6119a58282609860009054906101000a900473ffffffffffffffffffffffffffffffffffffffff1673ffffffffffffffffffffffffffffffffffffffff1661259d9092919063ffffffff16565b6119ad6121e2565b5050565b600033905090565b600073ffffffffffffffffffffffffffffffffffffffff168373ffffffffffffffffffffffffffffffffffffffff1603611a28576040517f08c379a0000000000000000000000000000000000000000000000000000000008152600401611a1f90613576565b60405180910390fd5b600073ffffffffffffffffffffffffffffffffffffffff168273ffffffffffffffffffffffffffffffffffffffff1603611a97576040517f08c379a0000000000000000000000000000000000000000000000000000000008152600401611a8e90613608565b60405180910390fd5b80603460008573ffffffffffffffffffffffffffffffffffffffff1673ffffffffffffffffffffffffffffffffffffffff16815260200190815260200160002060008473ffffffffffffffffffffffffffffffffffffffff1673ffffffffffffffffffffffffffffffffffffffff168152602001908152602001600020819055508173ffffffffffffffffffffffffffffffffffffffff168373ffffffffffffffffffffffffffffffffffffffff167f8c5be1e5ebec7d5bd14f71427d1e84f3dd0314c0f7b2291e5b200ac8c7c3b92583604051611b759190612d02565b60405180910390a3505050565b6000609954905090565b6000611b9884846116c6565b90507fffffffffffffffffffffffffffffffffffffffffffffffffffffffffffffffff8114611c125781811015611c04576040517f08c379a0000000000000000000000000000000000000000000000000000000008152600401611bfb90613674565b60405180910390fd5b611c1184848484036119b9565b5b50505050565b600073ffffffffffffffffffffffffffffffffffffffff168373ffffffffffffffffffffffffffffffffffffffff1603611c87576040517f08c379a0000000000000000000000000000000000000000000000000000000008152600401611c7e90613706565b60405180910390fd5b600073ffffffffffffffffffffffffffffffffffffffff168273ffffffffffffffffffffffffffffffffffffffff1603611cf6576040517f08c379a0000000000000000000000000000000000000000000000000000000008152600401611ced90613798565b60405180910390fd5b611d018383836127c9565b6000603360008573ffffffffffffffffffffffffffffffffffffffff1673ffffffffffffffffffffffffffffffffffffffff16815260200190815260200160002054905081811015611d88576040517f08c379a0000000000000000000000000000000000000000000000000000000008152600401611d7f9061382a565b60405180910390fd5b818103603360008673ffffffffffffffffffffffffffffffffffffffff1673ffffffffffffffffffffffffffffffffffffffff1681526020019081526020016000208190555081603360008573ffffffffffffffffffffffffffffffffffffffff1673ffffffffffffffffffffffffffffffffffffffff1681526020019081526020016000206000828254611e1d91906131a5565b925050819055508273ffffffffffffffffffffffffffffffffffffffff168473ffffffffffffffffffffffffffffffffffffffff167fddf252ad1be2c89b69c2b068fc378daa952ba7f163c4a11628f55a4df523b3ef84604051611e819190612d02565b60405180910390a3611e948484846127ce565b50505050565b600073ffffffffffffffffffffffffffffffffffffffff168273ffffffffffffffffffffffffffffffffffffffff1603611f09576040517f08c379a0000000000000000000000000000000000000000000000000000000008152600401611f0090613896565b60405180910390fd5b611f15600083836127c9565b8060356000828254611f2791906131a5565b9250508190555080603360008473ffffffffffffffffffffffffffffffffffffffff1673ffffffffffffffffffffffffffffffffffffffff1681526020019081526020016000206000828254611f7d91906131a5565b925050819055508173ffffffffffffffffffffffffffffffffffffffff16600073ffffffffffffffffffffffffffffffffffffffff167fddf252ad1be2c89b69c2b068fc378daa952ba7f163c4a11628f55a4df523b3ef83604051611fe29190612d02565b60405180910390a3611ff6600083836127ce565b5050565b6000609860009054906101000a900473ffffffffffffffffffffffffffffffffffffffff1673ffffffffffffffffffffffffffffffffffffffff166370a08231306040518263ffffffff1660e01b81526004016120579190612e77565b602060405180830381865afa158015612074573d6000803e3d6000fd5b505050506040513d601f19601f820116820180604052508101906120989190613248565b905090565b612120846323b872dd60e01b8585856040516024016120be939291906138b6565b604051602081830303815290604052907bffffffffffffffffffffffffffffffffffffffffffffffffffffffff19166020820180517bffffffffffffffffffffffffffffffffffffffffffffffffffffffff83818316178352505050506127d3565b50505050565b8215612175578160995461213a91906131a5565b818361214691906138ed565b609b5460995461215691906138ed565b61216091906131a5565b61216a9190613976565b609b819055506121dd565b600082609954612185919061334c565b03612197576000609b819055506121dc565b816099546121a5919061334c565b81836121b191906138ed565b609b546099546121c191906138ed565b6121cb919061334c565b6121d59190613976565b609b819055505b5b505050565b609760009054906101000a900473ffffffffffffffffffffffffffffffffffffffff1673ffffffffffffffffffffffffffffffffffffffff16635257b5666040518163ffffffff1660e01b8152600401602060405180830381865afa15801561224f573d6000803e3d6000fd5b505050506040513d601f19601f82011682018060405250810190612273919061328a565b73ffffffffffffffffffffffffffffffffffffffff166366c57dca612296611ffa565b6099546040518363ffffffff1660e01b81526004016122b6929190613323565b602060405180830381865afa1580156122d3573d6000803e3d6000fd5b505050506040513d601f19601f820116820180604052508101906122f79190613248565b609a81905550565b6000606560009054906101000a900473ffffffffffffffffffffffffffffffffffffffff16905081606560006101000a81548173ffffffffffffffffffffffffffffffffffffffff021916908373ffffffffffffffffffffffffffffffffffffffff1602179055508173ffffffffffffffffffffffffffffffffffffffff168173ffffffffffffffffffffffffffffffffffffffff167f8be0079c531659141344cd1fd0a4f28419497f9722a3daafe3b4186f6b6457e060405160405180910390a35050565b600073ffffffffffffffffffffffffffffffffffffffff168273ffffffffffffffffffffffffffffffffffffffff1603612434576040517f08c379a000000000000000000000000000000000000000000000000000000000815260040161242b90613a19565b60405180910390fd5b612440826000836127c9565b6000603360008473ffffffffffffffffffffffffffffffffffffffff1673ffffffffffffffffffffffffffffffffffffffff168152602001908152602001600020549050818110156124c7576040517f08c379a00000000000000000000000000000000000000000000000000000000081526004016124be90613aab565b60405180910390fd5b818103603360008573ffffffffffffffffffffffffffffffffffffffff1673ffffffffffffffffffffffffffffffffffffffff16815260200190815260200160002081905550816035600082825461251f919061334c565b92505081905550600073ffffffffffffffffffffffffffffffffffffffff168373ffffffffffffffffffffffffffffffffffffffff167fddf252ad1be2c89b69c2b068fc378daa952ba7f163c4a11628f55a4df523b3ef846040516125849190612d02565b60405180910390a3612598836000846127ce565b505050565b61261e8363a9059cbb60e01b84846040516024016125bc929190613acb565b604051602081830303815290604052907bffffffffffffffffffffffffffffffffffffffffffffffffffffffff19166020820180517bffffffffffffffffffffffffffffffffffffffffffffffffffffffff83818316178352505050506127d3565b505050565b60008060019054906101000a900460ff161561269a5760018260ff1614801561265257506126503061289a565b155b612691576040517f08c379a000000000000000000000000000000000000000000000000000000000815260040161268890613b66565b60405180910390fd5b6000905061270e565b8160ff1660008054906101000a900460ff1660ff16106126ef576040517f08c379a00000000000000000000000000000000000000000000000000000000081526004016126e690613b66565b60405180910390fd5b816000806101000a81548160ff021916908360ff160217905550600190505b919050565b600060019054906101000a900460ff16612762576040517f08c379a000000000000000000000000000000000000000000000000000000000815260040161275990613bf8565b60405180910390fd5b61276a6128bd565b565b600060019054906101000a900460ff166127bb576040517f08c379a00000000000000000000000000000000000000000000000000000000081526004016127b290613bf8565b60405180910390fd5b6127c5828261291e565b5050565b505050565b505050565b6000612835826040518060400160405280602081526020017f5361666545524332303a206c6f772d6c6576656c2063616c6c206661696c65648152508573ffffffffffffffffffffffffffffffffffffffff166129919092919063ffffffff16565b905060008151111561289557808060200190518101906128559190613c44565b612894576040517f08c379a000000000000000000000000000000000000000000000000000000000815260040161288b90613ce3565b60405180910390fd5b5b505050565b6000808273ffffffffffffffffffffffffffffffffffffffff163b119050919050565b600060019054906101000a900460ff1661290c576040517f08c379a000000000000000000000000000000000000000000000000000000000815260040161290390613bf8565b60405180910390fd5b61291c6129176119b1565b6122ff565b565b600060019054906101000a900460ff1661296d576040517f08c379a000000000000000000000000000000000000000000000000000000000815260040161296490613bf8565b60405180910390fd5b816036908161297c9190613ed4565b50806037908161298c9190613ed4565b505050565b60606129a084846000856129a9565b90509392505050565b6060824710156129ee576040517f08c379a00000000000000000000000000000000000000000000000000000000081526004016129e590614018565b60405180910390fd5b6129f78561289a565b612a36576040517f08c379a0000000000000000000000000000000000000000000000000000000008152600401612a2d90614084565b60405180910390fd5b6000808673ffffffffffffffffffffffffffffffffffffffff168587604051612a5f91906140eb565b60006040518083038185875af1925050503d8060008114612a9c576040519150601f19603f3d011682016040523d82523d6000602084013e612aa1565b606091505b5091509150612ab1828286612abd565b92505050949350505050565b60608315612acd57829050612b1d565b600083511115612ae05782518084602001fd5b816040517f08c379a0000000000000000000000000000000000000000000000000000000008152600401612b149190612bbd565b60405180910390fd5b9392505050565b600081519050919050565b600082825260208201905092915050565b60005b83811015612b5e578082015181840152602081019050612b43565b83811115612b6d576000848401525b50505050565b6000601f19601f8301169050919050565b6000612b8f82612b24565b612b998185612b2f565b9350612ba9818560208601612b40565b612bb281612b73565b840191505092915050565b60006020820190508181036000830152612bd78184612b84565b905092915050565b600080fd5b600080fd5b600073ffffffffffffffffffffffffffffffffffffffff82169050919050565b6000612c1482612be9565b9050919050565b612c2481612c09565b8114612c2f57600080fd5b50565b600081359050612c4181612c1b565b92915050565b6000819050919050565b612c5a81612c47565b8114612c6557600080fd5b50565b600081359050612c7781612c51565b92915050565b60008060408385031215612c9457612c93612bdf565b5b6000612ca285828601612c32565b9250506020612cb385828601612c68565b9150509250929050565b60008115159050919050565b612cd281612cbd565b82525050565b6000602082019050612ced6000830184612cc9565b92915050565b612cfc81612c47565b82525050565b6000602082019050612d176000830184612cf3565b92915050565b600080600060608486031215612d3657612d35612bdf565b5b6000612d4486828701612c32565b9350506020612d5586828701612c32565b9250506040612d6686828701612c68565b9150509250925092565b600060208284031215612d8657612d85612bdf565b5b6000612d9484828501612c68565b91505092915050565b600060ff82169050919050565b612db381612d9d565b82525050565b6000602082019050612dce6000830184612daa565b92915050565b600060208284031215612dea57612de9612bdf565b5b6000612df884828501612c32565b91505092915050565b60008060008060808587031215612e1b57612e1a612bdf565b5b6000612e2987828801612c32565b9450506020612e3a87828801612c68565b9350506040612e4b87828801612c68565b9250506060612e5c87828801612c68565b91505092959194509250565b612e7181612c09565b82525050565b6000602082019050612e8c6000830184612e68565b92915050565b600080600060608486031215612eab57612eaa612bdf565b5b6000612eb986828701612c32565b9350506020612eca86828701612c68565b9250506040612edb86828701612c68565b9150509250925092565b6000612ef082612c09565b9050919050565b612f0081612ee5565b8114612f0b57600080fd5b50565b600081359050612f1d81612ef7565b92915050565b600080fd5b600080fd5b600080fd5b60008083601f840112612f4857612f47612f23565b5b8235905067ffffffffffffffff811115612f6557612f64612f28565b5b602083019150836001820283011115612f8157612f80612f2d565b5b9250929050565b600080600080600080600080600060e08a8c031215612faa57612fa9612bdf565b5b6000612fb88c828d01612f0e565b9950506020612fc98c828d01612c32565b98505060408a013567ffffffffffffffff811115612fea57612fe9612be4565b5b612ff68c828d01612f32565b975097505060608a013567ffffffffffffffff81111561301957613018612be4565b5b6130258c828d01612f32565b955095505060806130388c828d01612c68565b93505060a06130498c828d01612c68565b92505060c061305a8c828d01612c68565b9150509295985092959850929598565b6000806040838503121561308157613080612bdf565b5b600061308f85828601612c32565b92505060206130a085828601612c32565b9150509250929050565b7f4e487b7100000000000000000000000000000000000000000000000000000000600052602260045260246000fd5b600060028204905060018216806130f157607f821691505b602082108103613104576131036130aa565b5b50919050565b7f4f776e61626c653a2063616c6c6572206973206e6f7420746865206f776e6572600082015250565b6000613140602083612b2f565b915061314b8261310a565b602082019050919050565b6000602082019050818103600083015261316f81613133565b9050919050565b7f4e487b7100000000000000000000000000000000000000000000000000000000600052601160045260246000fd5b60006131b082612c47565b91506131bb83612c47565b9250827fffffffffffffffffffffffffffffffffffffffffffffffffffffffffffffffff038211156131f0576131ef613176565b5b828201905092915050565b61320481612c09565b82525050565b600060408201905061321f60008301856131fb565b61322c60208301846131fb565b9392505050565b60008151905061324281612c51565b92915050565b60006020828403121561325e5761325d612bdf565b5b600061326c84828501613233565b91505092915050565b60008151905061328481612c1b565b92915050565b6000602082840312156132a05761329f612bdf565b5b60006132ae84828501613275565b91505092915050565b7f43616c6c6572206d757374206265204d61726b657420636f6e74726163740000600082015250565b60006132ed601e83612b2f565b91506132f8826132b7565b602082019050919050565b6000602082019050818103600083015261331c816132e0565b9050919050565b60006040820190506133386000830185612cf3565b6133456020830184612cf3565b9392505050565b600061335782612c47565b915061336283612c47565b92508282101561337557613374613176565b5b828203905092915050565b7f45524332303a2064656372656173656420616c6c6f77616e63652062656c6f7760008201527f207a65726f000000000000000000000000000000000000000000000000000000602082015250565b60006133dc602583612b2f565b91506133e782613380565b604082019050919050565b6000602082019050818103600083015261340b816133cf565b9050919050565b6000819050919050565b6000819050919050565b600061344161343c61343784613412565b61341c565b612d9d565b9050919050565b61345181613426565b82525050565b600060208201905061346c6000830184613448565b92915050565b7f4f776e61626c653a206e6577206f776e657220697320746865207a65726f206160008201527f6464726573730000000000000000000000000000000000000000000000000000602082015250565b60006134ce602683612b2f565b91506134d982613472565b604082019050919050565b600060208201905081810360008301526134fd816134c1565b9050919050565b7f45524332303a20617070726f76652066726f6d20746865207a65726f2061646460008201527f7265737300000000000000000000000000000000000000000000000000000000602082015250565b6000613560602483612b2f565b915061356b82613504565b604082019050919050565b6000602082019050818103600083015261358f81613553565b9050919050565b7f45524332303a20617070726f766520746f20746865207a65726f20616464726560008201527f7373000000000000000000000000000000000000000000000000000000000000602082015250565b60006135f2602283612b2f565b91506135fd82613596565b604082019050919050565b60006020820190508181036000830152613621816135e5565b9050919050565b7f45524332303a20696e73756666696369656e7420616c6c6f77616e6365000000600082015250565b600061365e601d83612b2f565b915061366982613628565b602082019050919050565b6000602082019050818103600083015261368d81613651565b9050919050565b7f45524332303a207472616e736665722066726f6d20746865207a65726f20616460008201527f6472657373000000000000000000000000000000000000000000000000000000602082015250565b60006136f0602583612b2f565b91506136fb82613694565b604082019050919050565b6000602082019050818103600083015261371f816136e3565b9050919050565b7f45524332303a207472616e7366657220746f20746865207a65726f206164647260008201527f6573730000000000000000000000000000000000000000000000000000000000602082015250565b6000613782602383612b2f565b915061378d82613726565b604082019050919050565b600060208201905081810360008301526137b181613775565b9050919050565b7f45524332303a207472616e7366657220616d6f756e742065786365656473206260008201527f616c616e63650000000000000000000000000000000000000000000000000000602082015250565b6000613814602683612b2f565b915061381f826137b8565b604082019050919050565b6000602082019050818103600083015261384381613807565b9050919050565b7f45524332303a206d696e7420746f20746865207a65726f206164647265737300600082015250565b6000613880601f83612b2f565b915061388b8261384a565b602082019050919050565b600060208201905081810360008301526138af81613873565b9050919050565b60006060820190506138cb6000830186612e68565b6138d86020830185612e68565b6138e56040830184612cf3565b949350505050565b60006138f882612c47565b915061390383612c47565b9250817fffffffffffffffffffffffffffffffffffffffffffffffffffffffffffffffff048311821515161561393c5761393b613176565b5b828202905092915050565b7f4e487b7100000000000000000000000000000000000000000000000000000000600052601260045260246000fd5b600061398182612c47565b915061398c83612c47565b92508261399c5761399b613947565b5b828204905092915050565b7f45524332303a206275726e2066726f6d20746865207a65726f2061646472657360008201527f7300000000000000000000000000000000000000000000000000000000000000602082015250565b6000613a03602183612b2f565b9150613a0e826139a7565b604082019050919050565b60006020820190508181036000830152613a32816139f6565b9050919050565b7f45524332303a206275726e20616d6f756e7420657863656564732062616c616e60008201527f6365000000000000000000000000000000000000000000000000000000000000602082015250565b6000613a95602283612b2f565b9150613aa082613a39565b604082019050919050565b60006020820190508181036000830152613ac481613a88565b9050919050565b6000604082019050613ae06000830185612e68565b613aed6020830184612cf3565b9392505050565b7f496e697469616c697a61626c653a20636f6e747261637420697320616c72656160008201527f647920696e697469616c697a6564000000000000000000000000000000000000602082015250565b6000613b50602e83612b2f565b9150613b5b82613af4565b604082019050919050565b60006020820190508181036000830152613b7f81613b43565b9050919050565b7f496e697469616c697a61626c653a20636f6e7472616374206973206e6f74206960008201527f6e697469616c697a696e67000000000000000000000000000000000000000000602082015250565b6000613be2602b83612b2f565b9150613bed82613b86565b604082019050919050565b60006020820190508181036000830152613c1181613bd5565b9050919050565b613c2181612cbd565b8114613c2c57600080fd5b50565b600081519050613c3e81613c18565b92915050565b600060208284031215613c5a57613c59612bdf565b5b6000613c6884828501613c2f565b91505092915050565b7f5361666545524332303a204552433230206f7065726174696f6e20646964206e60008201527f6f74207375636365656400000000000000000000000000000000000000000000602082015250565b6000613ccd602a83612b2f565b9150613cd882613c71565b604082019050919050565b60006020820190508181036000830152613cfc81613cc0565b9050919050565b7f4e487b7100000000000000000000000000000000000000000000000000000000600052604160045260246000fd5b60008190508160005260206000209050919050565b60006020601f8301049050919050565b600082821b905092915050565b600060088302613d947fffffffffffffffffffffffffffffffffffffffffffffffffffffffffffffffff82613d57565b613d9e8683613d57565b95508019841693508086168417925050509392505050565b6000613dd1613dcc613dc784612c47565b61341c565b612c47565b9050919050565b6000819050919050565b613deb83613db6565b613dff613df782613dd8565b848454613d64565b825550505050565b600090565b613e14613e07565b613e1f818484613de2565b505050565b5b81811015613e4357613e38600082613e0c565b600181019050613e25565b5050565b601f821115613e8857613e5981613d32565b613e6284613d47565b81016020851015613e71578190505b613e85613e7d85613d47565b830182613e24565b50505b505050565b600082821c905092915050565b6000613eab60001984600802613e8d565b1980831691505092915050565b6000613ec48383613e9a565b9150826002028217905092915050565b613edd82612b24565b67ffffffffffffffff811115613ef657613ef5613d03565b5b613f0082546130d9565b613f0b828285613e47565b600060209050601f831160018114613f3e5760008415613f2c578287015190505b613f368582613eb8565b865550613f9e565b601f198416613f4c86613d32565b60005b82811015613f7457848901518255600182019150602085019450602081019050613f4f565b86831015613f915784890151613f8d601f891682613e9a565b8355505b6001600288020188555050505b505050505050565b7f416464726573733a20696e73756666696369656e742062616c616e636520666f60008201527f722063616c6c0000000000000000000000000000000000000000000000000000602082015250565b6000614002602683612b2f565b915061400d82613fa6565b604082019050919050565b6000602082019050818103600083015261403181613ff5565b9050919050565b7f416464726573733a2063616c6c20746f206e6f6e2d636f6e7472616374000000600082015250565b600061406e601d83612b2f565b915061407982614038565b602082019050919050565b6000602082019050818103600083015261409d81614061565b9050919050565b600081519050919050565b600081905092915050565b60006140c5826140a4565b6140cf81856140af565b93506140df818560208601612b40565b80840191505092915050565b60006140f782846140ba565b91508190509291505056fea264697066735822122062b63f10804f8bdfead05daa25ea6dc61ec2ea0791cfc3a72e6ac2696ef65a0f64736f6c634300080f0033",
  "linkReferences": {
    "contracts/libraries/logic/SupplyLogic.sol": {
      "SupplyLogic": [
        {
          "length": 20,
          "start": 2152
        }
      ]
    }
  },
  "deployedLinkReferences": {
    "contracts/libraries/logic/SupplyLogic.sol": {
      "SupplyLogic": [
        {
          "length": 20,
          "start": 2120
        }
      ]
    }
  }
}