{
  "_format": "hh-sol-artifact-1",
  "contractName": "Reserve",
  "sourceName": "contracts/protocol/Reserve.sol",
  "abi": [
    {
      "anonymous": false,
      "inputs": [
        {
          "indexed": true,
          "internalType": "address",
          "name": "owner",
          "type": "address"
        },
        {
          "indexed": true,
          "internalType": "address",
          "name": "spender",
          "type": "address"
        },
        {
          "indexed": false,
          "internalType": "uint256",
          "name": "value",
          "type": "uint256"
        }
      ],
      "name": "Approval",
      "type": "event"
    },
    {
      "anonymous": false,
      "inputs": [
        {
          "indexed": false,
          "internalType": "uint8",
          "name": "version",
          "type": "uint8"
        }
      ],
      "name": "Initialized",
      "type": "event"
    },
    {
      "anonymous": false,
      "inputs": [
        {
          "indexed": true,
          "internalType": "address",
          "name": "previousOwner",
          "type": "address"
        },
        {
          "indexed": true,
          "internalType": "address",
          "name": "newOwner",
          "type": "address"
        }
      ],
      "name": "OwnershipTransferred",
      "type": "event"
    },
    {
      "anonymous": false,
      "inputs": [
        {
          "indexed": true,
          "internalType": "address",
          "name": "from",
          "type": "address"
        },
        {
          "indexed": true,
          "internalType": "address",
          "name": "to",
          "type": "address"
        },
        {
          "indexed": false,
          "internalType": "uint256",
          "name": "value",
          "type": "uint256"
        }
      ],
      "name": "Transfer",
      "type": "event"
    },
    {
      "inputs": [
        {
          "internalType": "address",
          "name": "owner",
          "type": "address"
        },
        {
          "internalType": "address",
          "name": "spender",
          "type": "address"
        }
      ],
      "name": "allowance",
      "outputs": [
        {
          "internalType": "uint256",
          "name": "",
          "type": "uint256"
        }
      ],
      "stateMutability": "view",
      "type": "function"
    },
    {
      "inputs": [
        {
          "internalType": "address",
          "name": "spender",
          "type": "address"
        },
        {
          "internalType": "uint256",
          "name": "amount",
          "type": "uint256"
        }
      ],
      "name": "approve",
      "outputs": [
        {
          "internalType": "bool",
          "name": "",
          "type": "bool"
        }
      ],
      "stateMutability": "nonpayable",
      "type": "function"
    },
    {
      "inputs": [
        {
          "internalType": "address",
          "name": "account",
          "type": "address"
        }
      ],
      "name": "balanceOf",
      "outputs": [
        {
          "internalType": "uint256",
          "name": "",
          "type": "uint256"
        }
      ],
      "stateMutability": "view",
      "type": "function"
    },
    {
      "inputs": [
        {
          "internalType": "address",
          "name": "user",
          "type": "address"
        },
        {
          "internalType": "uint256",
          "name": "amount",
          "type": "uint256"
        }
      ],
      "name": "burn",
      "outputs": [],
      "stateMutability": "nonpayable",
      "type": "function"
    },
    {
      "inputs": [
        {
          "internalType": "uint256",
          "name": "liquidationPenalty",
          "type": "uint256"
        }
      ],
      "name": "changeLiquidationPenalty",
      "outputs": [],
      "stateMutability": "nonpayable",
      "type": "function"
    },
    {
      "inputs": [
        {
          "internalType": "uint256",
          "name": "protocolLiquidationFee",
          "type": "uint256"
        }
      ],
      "name": "changeProtocolLiquidationFee",
      "outputs": [],
      "stateMutability": "nonpayable",
      "type": "function"
    },
    {
      "inputs": [],
      "name": "decimals",
      "outputs": [
        {
          "internalType": "uint8",
          "name": "",
          "type": "uint8"
        }
      ],
      "stateMutability": "view",
      "type": "function"
    },
    {
      "inputs": [
        {
          "internalType": "address",
          "name": "spender",
          "type": "address"
        },
        {
          "internalType": "uint256",
          "name": "subtractedValue",
          "type": "uint256"
        }
      ],
      "name": "decreaseAllowance",
      "outputs": [
        {
          "internalType": "bool",
          "name": "",
          "type": "bool"
        }
      ],
      "stateMutability": "nonpayable",
      "type": "function"
    },
    {
      "inputs": [
        {
          "internalType": "address",
          "name": "depositor",
          "type": "address"
        },
        {
          "internalType": "uint256",
          "name": "amount",
          "type": "uint256"
        }
      ],
      "name": "depositUnderlying",
      "outputs": [],
      "stateMutability": "nonpayable",
      "type": "function"
    },
    {
      "inputs": [],
      "name": "getAsset",
      "outputs": [
        {
          "internalType": "address",
          "name": "",
          "type": "address"
        }
      ],
      "stateMutability": "view",
      "type": "function"
    },
    {
      "inputs": [],
      "name": "getBorrowRate",
      "outputs": [
        {
          "internalType": "uint256",
          "name": "",
          "type": "uint256"
        }
      ],
      "stateMutability": "view",
      "type": "function"
    },
    {
      "inputs": [],
      "name": "getDebt",
      "outputs": [
        {
          "internalType": "uint256",
          "name": "",
          "type": "uint256"
        }
      ],
      "stateMutability": "view",
      "type": "function"
    },
    {
      "inputs": [],
      "name": "getLiquidationPenalty",
      "outputs": [
        {
          "internalType": "uint256",
          "name": "",
          "type": "uint256"
        }
      ],
      "stateMutability": "view",
      "type": "function"
    },
    {
      "inputs": [],
      "name": "getMaximumUtilizationRate",
      "outputs": [
        {
          "internalType": "uint256",
          "name": "",
          "type": "uint256"
        }
      ],
      "stateMutability": "view",
      "type": "function"
    },
    {
      "inputs": [
        {
          "internalType": "address",
          "name": "to",
          "type": "address"
        }
      ],
      "name": "getMaximumWithdrawalAmount",
      "outputs": [
        {
          "internalType": "uint256",
          "name": "",
          "type": "uint256"
        }
      ],
      "stateMutability": "view",
      "type": "function"
    },
    {
      "inputs": [],
      "name": "getProtocolLiquidationFee",
      "outputs": [
        {
          "internalType": "uint256",
          "name": "",
          "type": "uint256"
        }
      ],
      "stateMutability": "view",
      "type": "function"
    },
    {
      "inputs": [],
      "name": "getSupplyRate",
      "outputs": [
        {
          "internalType": "uint256",
          "name": "",
          "type": "uint256"
        }
      ],
      "stateMutability": "view",
      "type": "function"
    },
    {
      "inputs": [],
      "name": "getUnderlyingBalance",
      "outputs": [
        {
          "internalType": "uint256",
          "name": "",
          "type": "uint256"
        }
      ],
      "stateMutability": "view",
      "type": "function"
    },
    {
      "inputs": [],
      "name": "getUtilizationRate",
      "outputs": [
        {
          "internalType": "uint256",
          "name": "",
          "type": "uint256"
        }
      ],
      "stateMutability": "view",
      "type": "function"
    },
    {
      "inputs": [
        {
          "internalType": "address",
          "name": "spender",
          "type": "address"
        },
        {
          "internalType": "uint256",
          "name": "addedValue",
          "type": "uint256"
        }
      ],
      "name": "increaseAllowance",
      "outputs": [
        {
          "internalType": "bool",
          "name": "",
          "type": "bool"
        }
      ],
      "stateMutability": "nonpayable",
      "type": "function"
    },
    {
      "inputs": [
        {
          "internalType": "contract IMarketAddressesProvider",
          "name": "addressProvider",
          "type": "address"
        },
        {
          "internalType": "address",
          "name": "asset",
          "type": "address"
        },
        {
          "internalType": "string",
          "name": "name",
          "type": "string"
        },
        {
          "internalType": "string",
          "name": "symbol",
          "type": "string"
        },
        {
          "internalType": "uint256",
          "name": "liquidationPenalty",
          "type": "uint256"
        },
        {
          "internalType": "uint256",
          "name": "maximumUtilizationRate",
          "type": "uint256"
        },
        {
          "internalType": "uint256",
          "name": "protocolLiquidationFee",
          "type": "uint256"
        }
      ],
      "name": "initialize",
      "outputs": [],
      "stateMutability": "nonpayable",
      "type": "function"
    },
    {
      "inputs": [
        {
          "internalType": "address",
          "name": "user",
          "type": "address"
        },
        {
          "internalType": "uint256",
          "name": "amount",
          "type": "uint256"
        }
      ],
      "name": "mint",
      "outputs": [],
      "stateMutability": "nonpayable",
      "type": "function"
    },
    {
      "inputs": [],
      "name": "name",
      "outputs": [
        {
          "internalType": "string",
          "name": "",
          "type": "string"
        }
      ],
      "stateMutability": "view",
      "type": "function"
    },
    {
      "inputs": [],
      "name": "owner",
      "outputs": [
        {
          "internalType": "address",
          "name": "",
          "type": "address"
        }
      ],
      "stateMutability": "view",
      "type": "function"
    },
    {
      "inputs": [
        {
          "internalType": "address",
          "name": "from",
          "type": "address"
        },
        {
          "internalType": "uint256",
          "name": "amount",
          "type": "uint256"
        },
        {
          "internalType": "uint256",
          "name": "borrowRate",
          "type": "uint256"
        },
        {
          "internalType": "uint256",
          "name": "interest",
          "type": "uint256"
        }
      ],
      "name": "receiveUnderlying",
      "outputs": [],
      "stateMutability": "nonpayable",
      "type": "function"
    },
    {
      "inputs": [
        {
          "internalType": "address",
          "name": "from",
          "type": "address"
        },
        {
          "internalType": "uint256",
          "name": "amount",
          "type": "uint256"
        },
        {
          "internalType": "uint256",
          "name": "borrowRate",
          "type": "uint256"
        },
        {
          "internalType": "uint256",
          "name": "defaultedDebt",
          "type": "uint256"
        }
      ],
      "name": "receiveUnderlyingDefaulted",
      "outputs": [],
      "stateMutability": "nonpayable",
      "type": "function"
    },
    {
      "inputs": [],
      "name": "renounceOwnership",
      "outputs": [],
      "stateMutability": "nonpayable",
      "type": "function"
    },
    {
      "inputs": [],
      "name": "symbol",
      "outputs": [
        {
          "internalType": "string",
          "name": "",
          "type": "string"
        }
      ],
      "stateMutability": "view",
      "type": "function"
    },
    {
      "inputs": [],
      "name": "totalSupply",
      "outputs": [
        {
          "internalType": "uint256",
          "name": "",
          "type": "uint256"
        }
      ],
      "stateMutability": "view",
      "type": "function"
    },
    {
      "inputs": [
        {
          "internalType": "address",
          "name": "to",
          "type": "address"
        },
        {
          "internalType": "uint256",
          "name": "amount",
          "type": "uint256"
        }
      ],
      "name": "transfer",
      "outputs": [
        {
          "internalType": "bool",
          "name": "",
          "type": "bool"
        }
      ],
      "stateMutability": "nonpayable",
      "type": "function"
    },
    {
      "inputs": [
        {
          "internalType": "address",
          "name": "from",
          "type": "address"
        },
        {
          "internalType": "address",
          "name": "to",
          "type": "address"
        },
        {
          "internalType": "uint256",
          "name": "amount",
          "type": "uint256"
        }
      ],
      "name": "transferFrom",
      "outputs": [
        {
          "internalType": "bool",
          "name": "",
          "type": "bool"
        }
      ],
      "stateMutability": "nonpayable",
      "type": "function"
    },
    {
      "inputs": [
        {
          "internalType": "address",
          "name": "newOwner",
          "type": "address"
        }
      ],
      "name": "transferOwnership",
      "outputs": [],
      "stateMutability": "nonpayable",
      "type": "function"
    },
    {
      "inputs": [
        {
          "internalType": "address",
          "name": "to",
          "type": "address"
        },
        {
          "internalType": "uint256",
          "name": "amount",
          "type": "uint256"
        },
        {
          "internalType": "uint256",
          "name": "borrowRate",
          "type": "uint256"
        }
      ],
      "name": "transferUnderlying",
      "outputs": [],
      "stateMutability": "nonpayable",
      "type": "function"
    },
    {
      "inputs": [
        {
          "internalType": "address",
          "name": "to",
          "type": "address"
        },
        {
          "internalType": "uint256",
          "name": "amount",
          "type": "uint256"
        }
      ],
      "name": "withdrawUnderlying",
      "outputs": [],
      "stateMutability": "nonpayable",
      "type": "function"
    }
  ],
  "bytecode": "0x608060405234801561001057600080fd5b50614164806100206000396000f3fe608060405234801561001057600080fd5b50600436106102065760003560e01c806375d0f29f1161011a578063a4b84e0a116100ad578063c65fef8b1161007c578063c65fef8b146105cb578063dd62ed3e146105e7578063e2c6743914610617578063f2fde38b14610635578063fdb872521461065157610206565b8063a4b84e0a14610543578063a663f83014610561578063a9059cbb1461057d578063ba1c5e80146105ad57610206565b806395d89b41116100e957806395d89b41146104bd5780639dc29fac146104db578063a2258694146104f7578063a457c2d71461051357610206565b806375d0f29f1461044757806384bdc9a8146104635780638da5cb5b14610481578063900b6f821461049f57610206565b8063395093511161019d578063545039c61161016c578063545039c6146103b75780635c222bad146103d35780636c3c7c4e146103f157806370a082311461040d578063715018a61461043d57610206565b8063395093511461031d5780633e680e7a1461034d57806340c10f191461037d5780634a417a531461039957610206565b80631e522b29116101d95780631e522b291461029557806323b872dd146102b35780632a97d8a6146102e3578063313ce567146102ff57610206565b806306fdde031461020b578063095ea7b31461022957806314a6bf0f1461025957806318160ddd14610277575b600080fd5b61021361066d565b6040516102209190612be9565b60405180910390f35b610243600480360381019061023e9190612ca9565b6106ff565b6040516102509190612d04565b60405180910390f35b610261610722565b60405161026e9190612d2e565b60405180910390f35b61027f610731565b60405161028c9190612d2e565b60405180910390f35b61029d61073b565b6040516102aa9190612d2e565b60405180910390f35b6102cd60048036038101906102c89190612d49565b610745565b6040516102da9190612d04565b60405180910390f35b6102fd60048036038101906102f89190612d9c565b610774565b005b6103076107fa565b6040516103149190612de5565b60405180910390f35b61033760048036038101906103329190612ca9565b610803565b6040516103449190612d04565b60405180910390f35b61036760048036038101906103629190612e00565b61083a565b6040516103749190612d2e565b60405180910390f35b61039760048036038101906103929190612ca9565b6108bd565b005b6103a16109d0565b6040516103ae9190612d2e565b60405180910390f35b6103d160048036038101906103cc9190612e2d565b610af1565b005b6103db610c83565b6040516103e89190612ea3565b60405180910390f35b61040b60048036038101906104069190612d9c565b610cad565b005b61042760048036038101906104229190612e00565b610d33565b6040516104349190612d2e565b60405180910390f35b610445610d7c565b005b610461600480360381019061045c9190612ca9565b610e04565b005b61046b610f64565b6040516104789190612d2e565b60405180910390f35b610489610f9a565b6040516104969190612ea3565b60405180910390f35b6104a7610fc4565b6040516104b49190612d2e565b60405180910390f35b6104c5610fce565b6040516104d29190612be9565b60405180910390f35b6104f560048036038101906104f09190612ca9565b611060565b005b610511600480360381019061050c9190612ebe565b611173565b005b61052d60048036038101906105289190612ca9565b6112f7565b60405161053a9190612d04565b60405180910390f35b61054b61136e565b6040516105589190612d2e565b60405180910390f35b61057b60048036038101906105769190612e2d565b611378565b005b61059760048036038101906105929190612ca9565b6114ff565b6040516105a49190612d04565b60405180910390f35b6105b5611522565b6040516105c29190612d2e565b60405180910390f35b6105e560048036038101906105e09190612fb4565b61152c565b005b61060160048036038101906105fc9190613096565b6116f2565b60405161060e9190612d2e565b60405180910390f35b61061f611779565b60405161062c9190612d2e565b60405180910390f35b61064f600480360381019061064a9190612e00565b611788565b005b61066b60048036038101906106669190612ca9565b61187f565b005b60606036805461067c90613105565b80601f01602080910402602001604051908101604052809291908181526020018280546106a890613105565b80156106f55780601f106106ca576101008083540402835291602001916106f5565b820191906000526020600020905b8154815290600101906020018083116106d857829003601f168201915b5050505050905090565b60008061070a6119dd565b90506107178185856119e5565b600191505092915050565b600061072c611bae565b905090565b6000603554905090565b6000609c54905090565b6000806107506119dd565b905061075d858285611bb8565b610768858585611c44565b60019150509392505050565b61077c6119dd565b73ffffffffffffffffffffffffffffffffffffffff1661079a610f9a565b73ffffffffffffffffffffffffffffffffffffffff16146107f0576040517f08c379a00000000000000000000000000000000000000000000000000000000081526004016107e790613182565b60405180910390fd5b80609c8190555050565b60006012905090565b60008061080e6119dd565b905061082f81858561082085896116f2565b61082a91906131d1565b6119e5565b600191505092915050565b600073__$2f7c76ee15bdc1d8f3b34a04b86951fc56$__634af0799330846040518363ffffffff1660e01b8152600401610875929190613236565b602060405180830381865af4158015610892573d6000803e3d6000fd5b505050506040513d601f19601f820116820180604052508101906108b69190613274565b9050919050565b609760009054906101000a900473ffffffffffffffffffffffffffffffffffffffff1673ffffffffffffffffffffffffffffffffffffffff1663e7334fe56040518163ffffffff1660e01b8152600401602060405180830381865afa15801561092a573d6000803e3d6000fd5b505050506040513d601f19601f8201168201806040525081019061094e91906132b6565b73ffffffffffffffffffffffffffffffffffffffff1661096c6119dd565b73ffffffffffffffffffffffffffffffffffffffff16146109c2576040517f08c379a00000000000000000000000000000000000000000000000000000000081526004016109b99061332f565b60405180910390fd5b6109cc8282611ec6565b5050565b6000609760009054906101000a900473ffffffffffffffffffffffffffffffffffffffff1673ffffffffffffffffffffffffffffffffffffffff16635257b5666040518163ffffffff1660e01b8152600401602060405180830381865afa158015610a3f573d6000803e3d6000fd5b505050506040513d601f19601f82011682018060405250810190610a6391906132b6565b73ffffffffffffffffffffffffffffffffffffffff166385c96306610a86612026565b610a8e611bae565b6040518363ffffffff1660e01b8152600401610aab92919061334f565b602060405180830381865afa158015610ac8573d6000803e3d6000fd5b505050506040513d601f19601f82011682018060405250810190610aec9190613274565b905090565b609760009054906101000a900473ffffffffffffffffffffffffffffffffffffffff1673ffffffffffffffffffffffffffffffffffffffff1663e7334fe56040518163ffffffff1660e01b8152600401602060405180830381865afa158015610b5e573d6000803e3d6000fd5b505050506040513d601f19601f82011682018060405250810190610b8291906132b6565b73ffffffffffffffffffffffffffffffffffffffff16610ba06119dd565b73ffffffffffffffffffffffffffffffffffffffff1614610bf6576040517f08c379a0000000000000000000000000000000000000000000000000000000008152600401610bed9061332f565b60405180910390fd5b610c5084308386610c0791906131d1565b609860009054906101000a900473ffffffffffffffffffffffffffffffffffffffff1673ffffffffffffffffffffffffffffffffffffffff166120c9909392919063ffffffff16565b610c5c60008484612152565b8260996000828254610c6e9190613378565b92505081905550610c7d61220e565b50505050565b6000609860009054906101000a900473ffffffffffffffffffffffffffffffffffffffff16905090565b610cb56119dd565b73ffffffffffffffffffffffffffffffffffffffff16610cd3610f9a565b73ffffffffffffffffffffffffffffffffffffffff1614610d29576040517f08c379a0000000000000000000000000000000000000000000000000000000008152600401610d2090613182565b60405180910390fd5b80609d8190555050565b6000603360008373ffffffffffffffffffffffffffffffffffffffff1673ffffffffffffffffffffffffffffffffffffffff168152602001908152602001600020549050919050565b610d846119dd565b73ffffffffffffffffffffffffffffffffffffffff16610da2610f9a565b73ffffffffffffffffffffffffffffffffffffffff1614610df8576040517f08c379a0000000000000000000000000000000000000000000000000000000008152600401610def90613182565b60405180910390fd5b610e02600061232b565b565b609760009054906101000a900473ffffffffffffffffffffffffffffffffffffffff1673ffffffffffffffffffffffffffffffffffffffff1663e7334fe56040518163ffffffff1660e01b8152600401602060405180830381865afa158015610e71573d6000803e3d6000fd5b505050506040513d601f19601f82011682018060405250810190610e9591906132b6565b73ffffffffffffffffffffffffffffffffffffffff16610eb36119dd565b73ffffffffffffffffffffffffffffffffffffffff1614610f09576040517f08c379a0000000000000000000000000000000000000000000000000000000008152600401610f009061332f565b60405180910390fd5b610f58823083609860009054906101000a900473ffffffffffffffffffffffffffffffffffffffff1673ffffffffffffffffffffffffffffffffffffffff166120c9909392919063ffffffff16565b610f6061220e565b5050565b6000610f6e612026565b609954610f7b91906131d1565b609954609b54610f8b91906133ac565b610f959190613435565b905090565b6000606560009054906101000a900473ffffffffffffffffffffffffffffffffffffffff16905090565b6000609d54905090565b606060378054610fdd90613105565b80601f016020809104026020016040519081016040528092919081815260200182805461100990613105565b80156110565780601f1061102b57610100808354040283529160200191611056565b820191906000526020600020905b81548152906001019060200180831161103957829003601f168201915b5050505050905090565b609760009054906101000a900473ffffffffffffffffffffffffffffffffffffffff1673ffffffffffffffffffffffffffffffffffffffff1663e7334fe56040518163ffffffff1660e01b8152600401602060405180830381865afa1580156110cd573d6000803e3d6000fd5b505050506040513d601f19601f820116820180604052508101906110f191906132b6565b73ffffffffffffffffffffffffffffffffffffffff1661110f6119dd565b73ffffffffffffffffffffffffffffffffffffffff1614611165576040517f08c379a000000000000000000000000000000000000000000000000000000000815260040161115c9061332f565b60405180910390fd5b61116f82826123f1565b5050565b609760009054906101000a900473ffffffffffffffffffffffffffffffffffffffff1673ffffffffffffffffffffffffffffffffffffffff1663e7334fe56040518163ffffffff1660e01b8152600401602060405180830381865afa1580156111e0573d6000803e3d6000fd5b505050506040513d601f19601f8201168201806040525081019061120491906132b6565b73ffffffffffffffffffffffffffffffffffffffff166112226119dd565b73ffffffffffffffffffffffffffffffffffffffff1614611278576040517f08c379a000000000000000000000000000000000000000000000000000000000815260040161126f9061332f565b60405180910390fd5b6112c58383609860009054906101000a900473ffffffffffffffffffffffffffffffffffffffff1673ffffffffffffffffffffffffffffffffffffffff166125c99092919063ffffffff16565b6112d160018383612152565b81609960008282546112e391906131d1565b925050819055506112f261220e565b505050565b6000806113026119dd565b9050600061131082866116f2565b905083811015611355576040517f08c379a000000000000000000000000000000000000000000000000000000000815260040161134c906134d8565b60405180910390fd5b61136282868684036119e5565b60019250505092915050565b6000609e54905090565b609760009054906101000a900473ffffffffffffffffffffffffffffffffffffffff1673ffffffffffffffffffffffffffffffffffffffff1663e7334fe56040518163ffffffff1660e01b8152600401602060405180830381865afa1580156113e5573d6000803e3d6000fd5b505050506040513d601f19601f8201168201806040525081019061140991906132b6565b73ffffffffffffffffffffffffffffffffffffffff166114276119dd565b73ffffffffffffffffffffffffffffffffffffffff161461147d576040517f08c379a00000000000000000000000000000000000000000000000000000000081526004016114749061332f565b60405180910390fd5b6114cc843085609860009054906101000a900473ffffffffffffffffffffffffffffffffffffffff1673ffffffffffffffffffffffffffffffffffffffff166120c9909392919063ffffffff16565b6114d860008284612152565b80609960008282546114ea9190613378565b925050819055506114f961220e565b50505050565b60008061150a6119dd565b9050611517818585611c44565b600191505092915050565b6000609a54905090565b6000611538600161264f565b9050801561155c576001600060016101000a81548160ff0219169083151502179055505b61156461273f565b6115f688888080601f016020809104026020016040519081016040528093929190818152602001838380828437600081840152601f19601f8201169050808301925050505050505087878080601f016020809104026020016040519081016040528093929190818152602001838380828437600081840152601f19601f82011690508083019250505050505050612798565b89609760006101000a81548173ffffffffffffffffffffffffffffffffffffffff021916908373ffffffffffffffffffffffffffffffffffffffff16021790555088609860006101000a81548173ffffffffffffffffffffffffffffffffffffffff021916908373ffffffffffffffffffffffffffffffffffffffff16021790555083609c8190555082609e8190555081609d8190555080156116e65760008060016101000a81548160ff0219169083151502179055507f7f26b83ff96e1f2b6a682f133852f6798a09c465da95921460cefb384740249860016040516116dd919061353d565b60405180910390a15b50505050505050505050565b6000603460008473ffffffffffffffffffffffffffffffffffffffff1673ffffffffffffffffffffffffffffffffffffffff16815260200190815260200160002060008373ffffffffffffffffffffffffffffffffffffffff1673ffffffffffffffffffffffffffffffffffffffff16815260200190815260200160002054905092915050565b6000611783612026565b905090565b6117906119dd565b73ffffffffffffffffffffffffffffffffffffffff166117ae610f9a565b73ffffffffffffffffffffffffffffffffffffffff1614611804576040517f08c379a00000000000000000000000000000000000000000000000000000000081526004016117fb90613182565b60405180910390fd5b600073ffffffffffffffffffffffffffffffffffffffff168173ffffffffffffffffffffffffffffffffffffffff1603611873576040517f08c379a000000000000000000000000000000000000000000000000000000000815260040161186a906135ca565b60405180910390fd5b61187c8161232b565b50565b609760009054906101000a900473ffffffffffffffffffffffffffffffffffffffff1673ffffffffffffffffffffffffffffffffffffffff1663e7334fe56040518163ffffffff1660e01b8152600401602060405180830381865afa1580156118ec573d6000803e3d6000fd5b505050506040513d601f19601f8201168201806040525081019061191091906132b6565b73ffffffffffffffffffffffffffffffffffffffff1661192e6119dd565b73ffffffffffffffffffffffffffffffffffffffff1614611984576040517f08c379a000000000000000000000000000000000000000000000000000000000815260040161197b9061332f565b60405180910390fd5b6119d18282609860009054906101000a900473ffffffffffffffffffffffffffffffffffffffff1673ffffffffffffffffffffffffffffffffffffffff166125c99092919063ffffffff16565b6119d961220e565b5050565b600033905090565b600073ffffffffffffffffffffffffffffffffffffffff168373ffffffffffffffffffffffffffffffffffffffff1603611a54576040517f08c379a0000000000000000000000000000000000000000000000000000000008152600401611a4b9061365c565b60405180910390fd5b600073ffffffffffffffffffffffffffffffffffffffff168273ffffffffffffffffffffffffffffffffffffffff1603611ac3576040517f08c379a0000000000000000000000000000000000000000000000000000000008152600401611aba906136ee565b60405180910390fd5b80603460008573ffffffffffffffffffffffffffffffffffffffff1673ffffffffffffffffffffffffffffffffffffffff16815260200190815260200160002060008473ffffffffffffffffffffffffffffffffffffffff1673ffffffffffffffffffffffffffffffffffffffff168152602001908152602001600020819055508173ffffffffffffffffffffffffffffffffffffffff168373ffffffffffffffffffffffffffffffffffffffff167f8c5be1e5ebec7d5bd14f71427d1e84f3dd0314c0f7b2291e5b200ac8c7c3b92583604051611ba19190612d2e565b60405180910390a3505050565b6000609954905090565b6000611bc484846116f2565b90507fffffffffffffffffffffffffffffffffffffffffffffffffffffffffffffffff8114611c3e5781811015611c30576040517f08c379a0000000000000000000000000000000000000000000000000000000008152600401611c279061375a565b60405180910390fd5b611c3d84848484036119e5565b5b50505050565b600073ffffffffffffffffffffffffffffffffffffffff168373ffffffffffffffffffffffffffffffffffffffff1603611cb3576040517f08c379a0000000000000000000000000000000000000000000000000000000008152600401611caa906137ec565b60405180910390fd5b600073ffffffffffffffffffffffffffffffffffffffff168273ffffffffffffffffffffffffffffffffffffffff1603611d22576040517f08c379a0000000000000000000000000000000000000000000000000000000008152600401611d199061387e565b60405180910390fd5b611d2d8383836127f5565b6000603360008573ffffffffffffffffffffffffffffffffffffffff1673ffffffffffffffffffffffffffffffffffffffff16815260200190815260200160002054905081811015611db4576040517f08c379a0000000000000000000000000000000000000000000000000000000008152600401611dab90613910565b60405180910390fd5b818103603360008673ffffffffffffffffffffffffffffffffffffffff1673ffffffffffffffffffffffffffffffffffffffff1681526020019081526020016000208190555081603360008573ffffffffffffffffffffffffffffffffffffffff1673ffffffffffffffffffffffffffffffffffffffff1681526020019081526020016000206000828254611e4991906131d1565b925050819055508273ffffffffffffffffffffffffffffffffffffffff168473ffffffffffffffffffffffffffffffffffffffff167fddf252ad1be2c89b69c2b068fc378daa952ba7f163c4a11628f55a4df523b3ef84604051611ead9190612d2e565b60405180910390a3611ec08484846127fa565b50505050565b600073ffffffffffffffffffffffffffffffffffffffff168273ffffffffffffffffffffffffffffffffffffffff1603611f35576040517f08c379a0000000000000000000000000000000000000000000000000000000008152600401611f2c9061397c565b60405180910390fd5b611f41600083836127f5565b8060356000828254611f5391906131d1565b9250508190555080603360008473ffffffffffffffffffffffffffffffffffffffff1673ffffffffffffffffffffffffffffffffffffffff1681526020019081526020016000206000828254611fa991906131d1565b925050819055508173ffffffffffffffffffffffffffffffffffffffff16600073ffffffffffffffffffffffffffffffffffffffff167fddf252ad1be2c89b69c2b068fc378daa952ba7f163c4a11628f55a4df523b3ef8360405161200e9190612d2e565b60405180910390a3612022600083836127fa565b5050565b6000609860009054906101000a900473ffffffffffffffffffffffffffffffffffffffff1673ffffffffffffffffffffffffffffffffffffffff166370a08231306040518263ffffffff1660e01b81526004016120839190612ea3565b602060405180830381865afa1580156120a0573d6000803e3d6000fd5b505050506040513d601f19601f820116820180604052508101906120c49190613274565b905090565b61214c846323b872dd60e01b8585856040516024016120ea9392919061399c565b604051602081830303815290604052907bffffffffffffffffffffffffffffffffffffffffffffffffffffffff19166020820180517bffffffffffffffffffffffffffffffffffffffffffffffffffffffff83818316178352505050506127ff565b50505050565b82156121a1578160995461216691906131d1565b818361217291906133ac565b609b5460995461218291906133ac565b61218c91906131d1565b6121969190613435565b609b81905550612209565b6000826099546121b19190613378565b036121c3576000609b81905550612208565b816099546121d19190613378565b81836121dd91906133ac565b609b546099546121ed91906133ac565b6121f79190613378565b6122019190613435565b609b819055505b5b505050565b609760009054906101000a900473ffffffffffffffffffffffffffffffffffffffff1673ffffffffffffffffffffffffffffffffffffffff16635257b5666040518163ffffffff1660e01b8152600401602060405180830381865afa15801561227b573d6000803e3d6000fd5b505050506040513d601f19601f8201168201806040525081019061229f91906132b6565b73ffffffffffffffffffffffffffffffffffffffff166366c57dca6122c2612026565b6099546040518363ffffffff1660e01b81526004016122e292919061334f565b602060405180830381865afa1580156122ff573d6000803e3d6000fd5b505050506040513d601f19601f820116820180604052508101906123239190613274565b609a81905550565b6000606560009054906101000a900473ffffffffffffffffffffffffffffffffffffffff16905081606560006101000a81548173ffffffffffffffffffffffffffffffffffffffff021916908373ffffffffffffffffffffffffffffffffffffffff1602179055508173ffffffffffffffffffffffffffffffffffffffff168173ffffffffffffffffffffffffffffffffffffffff167f8be0079c531659141344cd1fd0a4f28419497f9722a3daafe3b4186f6b6457e060405160405180910390a35050565b600073ffffffffffffffffffffffffffffffffffffffff168273ffffffffffffffffffffffffffffffffffffffff1603612460576040517f08c379a000000000000000000000000000000000000000000000000000000000815260040161245790613a45565b60405180910390fd5b61246c826000836127f5565b6000603360008473ffffffffffffffffffffffffffffffffffffffff1673ffffffffffffffffffffffffffffffffffffffff168152602001908152602001600020549050818110156124f3576040517f08c379a00000000000000000000000000000000000000000000000000000000081526004016124ea90613ad7565b60405180910390fd5b818103603360008573ffffffffffffffffffffffffffffffffffffffff1673ffffffffffffffffffffffffffffffffffffffff16815260200190815260200160002081905550816035600082825461254b9190613378565b92505081905550600073ffffffffffffffffffffffffffffffffffffffff168373ffffffffffffffffffffffffffffffffffffffff167fddf252ad1be2c89b69c2b068fc378daa952ba7f163c4a11628f55a4df523b3ef846040516125b09190612d2e565b60405180910390a36125c4836000846127fa565b505050565b61264a8363a9059cbb60e01b84846040516024016125e8929190613af7565b604051602081830303815290604052907bffffffffffffffffffffffffffffffffffffffffffffffffffffffff19166020820180517bffffffffffffffffffffffffffffffffffffffffffffffffffffffff83818316178352505050506127ff565b505050565b60008060019054906101000a900460ff16156126c65760018260ff1614801561267e575061267c306128c6565b155b6126bd576040517f08c379a00000000000000000000000000000000000000000000000000000000081526004016126b490613b92565b60405180910390fd5b6000905061273a565b8160ff1660008054906101000a900460ff1660ff161061271b576040517f08c379a000000000000000000000000000000000000000000000000000000000815260040161271290613b92565b60405180910390fd5b816000806101000a81548160ff021916908360ff160217905550600190505b919050565b600060019054906101000a900460ff1661278e576040517f08c379a000000000000000000000000000000000000000000000000000000000815260040161278590613c24565b60405180910390fd5b6127966128e9565b565b600060019054906101000a900460ff166127e7576040517f08c379a00000000000000000000000000000000000000000000000000000000081526004016127de90613c24565b60405180910390fd5b6127f1828261294a565b5050565b505050565b505050565b6000612861826040518060400160405280602081526020017f5361666545524332303a206c6f772d6c6576656c2063616c6c206661696c65648152508573ffffffffffffffffffffffffffffffffffffffff166129bd9092919063ffffffff16565b90506000815111156128c157808060200190518101906128819190613c70565b6128c0576040517f08c379a00000000000000000000000000000000000000000000000000000000081526004016128b790613d0f565b60405180910390fd5b5b505050565b6000808273ffffffffffffffffffffffffffffffffffffffff163b119050919050565b600060019054906101000a900460ff16612938576040517f08c379a000000000000000000000000000000000000000000000000000000000815260040161292f90613c24565b60405180910390fd5b6129486129436119dd565b61232b565b565b600060019054906101000a900460ff16612999576040517f08c379a000000000000000000000000000000000000000000000000000000000815260040161299090613c24565b60405180910390fd5b81603690816129a89190613f00565b5080603790816129b89190613f00565b505050565b60606129cc84846000856129d5565b90509392505050565b606082471015612a1a576040517f08c379a0000000000000000000000000000000000000000000000000000000008152600401612a1190614044565b60405180910390fd5b612a23856128c6565b612a62576040517f08c379a0000000000000000000000000000000000000000000000000000000008152600401612a59906140b0565b60405180910390fd5b6000808673ffffffffffffffffffffffffffffffffffffffff168587604051612a8b9190614117565b60006040518083038185875af1925050503d8060008114612ac8576040519150601f19603f3d011682016040523d82523d6000602084013e612acd565b606091505b5091509150612add828286612ae9565b92505050949350505050565b60608315612af957829050612b49565b600083511115612b0c5782518084602001fd5b816040517f08c379a0000000000000000000000000000000000000000000000000000000008152600401612b409190612be9565b60405180910390fd5b9392505050565b600081519050919050565b600082825260208201905092915050565b60005b83811015612b8a578082015181840152602081019050612b6f565b83811115612b99576000848401525b50505050565b6000601f19601f8301169050919050565b6000612bbb82612b50565b612bc58185612b5b565b9350612bd5818560208601612b6c565b612bde81612b9f565b840191505092915050565b60006020820190508181036000830152612c038184612bb0565b905092915050565b600080fd5b600080fd5b600073ffffffffffffffffffffffffffffffffffffffff82169050919050565b6000612c4082612c15565b9050919050565b612c5081612c35565b8114612c5b57600080fd5b50565b600081359050612c6d81612c47565b92915050565b6000819050919050565b612c8681612c73565b8114612c9157600080fd5b50565b600081359050612ca381612c7d565b92915050565b60008060408385031215612cc057612cbf612c0b565b5b6000612cce85828601612c5e565b9250506020612cdf85828601612c94565b9150509250929050565b60008115159050919050565b612cfe81612ce9565b82525050565b6000602082019050612d196000830184612cf5565b92915050565b612d2881612c73565b82525050565b6000602082019050612d436000830184612d1f565b92915050565b600080600060608486031215612d6257612d61612c0b565b5b6000612d7086828701612c5e565b9350506020612d8186828701612c5e565b9250506040612d9286828701612c94565b9150509250925092565b600060208284031215612db257612db1612c0b565b5b6000612dc084828501612c94565b91505092915050565b600060ff82169050919050565b612ddf81612dc9565b82525050565b6000602082019050612dfa6000830184612dd6565b92915050565b600060208284031215612e1657612e15612c0b565b5b6000612e2484828501612c5e565b91505092915050565b60008060008060808587031215612e4757612e46612c0b565b5b6000612e5587828801612c5e565b9450506020612e6687828801612c94565b9350506040612e7787828801612c94565b9250506060612e8887828801612c94565b91505092959194509250565b612e9d81612c35565b82525050565b6000602082019050612eb86000830184612e94565b92915050565b600080600060608486031215612ed757612ed6612c0b565b5b6000612ee586828701612c5e565b9350506020612ef686828701612c94565b9250506040612f0786828701612c94565b9150509250925092565b6000612f1c82612c35565b9050919050565b612f2c81612f11565b8114612f3757600080fd5b50565b600081359050612f4981612f23565b92915050565b600080fd5b600080fd5b600080fd5b60008083601f840112612f7457612f73612f4f565b5b8235905067ffffffffffffffff811115612f9157612f90612f54565b5b602083019150836001820283011115612fad57612fac612f59565b5b9250929050565b600080600080600080600080600060e08a8c031215612fd657612fd5612c0b565b5b6000612fe48c828d01612f3a565b9950506020612ff58c828d01612c5e565b98505060408a013567ffffffffffffffff81111561301657613015612c10565b5b6130228c828d01612f5e565b975097505060608a013567ffffffffffffffff81111561304557613044612c10565b5b6130518c828d01612f5e565b955095505060806130648c828d01612c94565b93505060a06130758c828d01612c94565b92505060c06130868c828d01612c94565b9150509295985092959850929598565b600080604083850312156130ad576130ac612c0b565b5b60006130bb85828601612c5e565b92505060206130cc85828601612c5e565b9150509250929050565b7f4e487b7100000000000000000000000000000000000000000000000000000000600052602260045260246000fd5b6000600282049050600182168061311d57607f821691505b6020821081036131305761312f6130d6565b5b50919050565b7f4f776e61626c653a2063616c6c6572206973206e6f7420746865206f776e6572600082015250565b600061316c602083612b5b565b915061317782613136565b602082019050919050565b6000602082019050818103600083015261319b8161315f565b9050919050565b7f4e487b7100000000000000000000000000000000000000000000000000000000600052601160045260246000fd5b60006131dc82612c73565b91506131e783612c73565b9250827fffffffffffffffffffffffffffffffffffffffffffffffffffffffffffffffff0382111561321c5761321b6131a2565b5b828201905092915050565b61323081612c35565b82525050565b600060408201905061324b6000830185613227565b6132586020830184613227565b9392505050565b60008151905061326e81612c7d565b92915050565b60006020828403121561328a57613289612c0b565b5b60006132988482850161325f565b91505092915050565b6000815190506132b081612c47565b92915050565b6000602082840312156132cc576132cb612c0b565b5b60006132da848285016132a1565b91505092915050565b7f43616c6c6572206d757374206265204d61726b657420636f6e74726163740000600082015250565b6000613319601e83612b5b565b9150613324826132e3565b602082019050919050565b600060208201905081810360008301526133488161330c565b9050919050565b60006040820190506133646000830185612d1f565b6133716020830184612d1f565b9392505050565b600061338382612c73565b915061338e83612c73565b9250828210156133a1576133a06131a2565b5b828203905092915050565b60006133b782612c73565b91506133c283612c73565b9250817fffffffffffffffffffffffffffffffffffffffffffffffffffffffffffffffff04831182151516156133fb576133fa6131a2565b5b828202905092915050565b7f4e487b7100000000000000000000000000000000000000000000000000000000600052601260045260246000fd5b600061344082612c73565b915061344b83612c73565b92508261345b5761345a613406565b5b828204905092915050565b7f45524332303a2064656372656173656420616c6c6f77616e63652062656c6f7760008201527f207a65726f000000000000000000000000000000000000000000000000000000602082015250565b60006134c2602583612b5b565b91506134cd82613466565b604082019050919050565b600060208201905081810360008301526134f1816134b5565b9050919050565b6000819050919050565b6000819050919050565b600061352761352261351d846134f8565b613502565b612dc9565b9050919050565b6135378161350c565b82525050565b6000602082019050613552600083018461352e565b92915050565b7f4f776e61626c653a206e6577206f776e657220697320746865207a65726f206160008201527f6464726573730000000000000000000000000000000000000000000000000000602082015250565b60006135b4602683612b5b565b91506135bf82613558565b604082019050919050565b600060208201905081810360008301526135e3816135a7565b9050919050565b7f45524332303a20617070726f76652066726f6d20746865207a65726f2061646460008201527f7265737300000000000000000000000000000000000000000000000000000000602082015250565b6000613646602483612b5b565b9150613651826135ea565b604082019050919050565b6000602082019050818103600083015261367581613639565b9050919050565b7f45524332303a20617070726f766520746f20746865207a65726f20616464726560008201527f7373000000000000000000000000000000000000000000000000000000000000602082015250565b60006136d8602283612b5b565b91506136e38261367c565b604082019050919050565b60006020820190508181036000830152613707816136cb565b9050919050565b7f45524332303a20696e73756666696369656e7420616c6c6f77616e6365000000600082015250565b6000613744601d83612b5b565b915061374f8261370e565b602082019050919050565b6000602082019050818103600083015261377381613737565b9050919050565b7f45524332303a207472616e736665722066726f6d20746865207a65726f20616460008201527f6472657373000000000000000000000000000000000000000000000000000000602082015250565b60006137d6602583612b5b565b91506137e18261377a565b604082019050919050565b60006020820190508181036000830152613805816137c9565b9050919050565b7f45524332303a207472616e7366657220746f20746865207a65726f206164647260008201527f6573730000000000000000000000000000000000000000000000000000000000602082015250565b6000613868602383612b5b565b91506138738261380c565b604082019050919050565b600060208201905081810360008301526138978161385b565b9050919050565b7f45524332303a207472616e7366657220616d6f756e742065786365656473206260008201527f616c616e63650000000000000000000000000000000000000000000000000000602082015250565b60006138fa602683612b5b565b91506139058261389e565b604082019050919050565b60006020820190508181036000830152613929816138ed565b9050919050565b7f45524332303a206d696e7420746f20746865207a65726f206164647265737300600082015250565b6000613966601f83612b5b565b915061397182613930565b602082019050919050565b6000602082019050818103600083015261399581613959565b9050919050565b60006060820190506139b16000830186612e94565b6139be6020830185612e94565b6139cb6040830184612d1f565b949350505050565b7f45524332303a206275726e2066726f6d20746865207a65726f2061646472657360008201527f7300000000000000000000000000000000000000000000000000000000000000602082015250565b6000613a2f602183612b5b565b9150613a3a826139d3565b604082019050919050565b60006020820190508181036000830152613a5e81613a22565b9050919050565b7f45524332303a206275726e20616d6f756e7420657863656564732062616c616e60008201527f6365000000000000000000000000000000000000000000000000000000000000602082015250565b6000613ac1602283612b5b565b9150613acc82613a65565b604082019050919050565b60006020820190508181036000830152613af081613ab4565b9050919050565b6000604082019050613b0c6000830185612e94565b613b196020830184612d1f565b9392505050565b7f496e697469616c697a61626c653a20636f6e747261637420697320616c72656160008201527f647920696e697469616c697a6564000000000000000000000000000000000000602082015250565b6000613b7c602e83612b5b565b9150613b8782613b20565b604082019050919050565b60006020820190508181036000830152613bab81613b6f565b9050919050565b7f496e697469616c697a61626c653a20636f6e7472616374206973206e6f74206960008201527f6e697469616c697a696e67000000000000000000000000000000000000000000602082015250565b6000613c0e602b83612b5b565b9150613c1982613bb2565b604082019050919050565b60006020820190508181036000830152613c3d81613c01565b9050919050565b613c4d81612ce9565b8114613c5857600080fd5b50565b600081519050613c6a81613c44565b92915050565b600060208284031215613c8657613c85612c0b565b5b6000613c9484828501613c5b565b91505092915050565b7f5361666545524332303a204552433230206f7065726174696f6e20646964206e60008201527f6f74207375636365656400000000000000000000000000000000000000000000602082015250565b6000613cf9602a83612b5b565b9150613d0482613c9d565b604082019050919050565b60006020820190508181036000830152613d2881613cec565b9050919050565b7f4e487b7100000000000000000000000000000000000000000000000000000000600052604160045260246000fd5b60008190508160005260206000209050919050565b60006020601f8301049050919050565b600082821b905092915050565b600060088302613dc07fffffffffffffffffffffffffffffffffffffffffffffffffffffffffffffffff82613d83565b613dca8683613d83565b95508019841693508086168417925050509392505050565b6000613dfd613df8613df384612c73565b613502565b612c73565b9050919050565b6000819050919050565b613e1783613de2565b613e2b613e2382613e04565b848454613d90565b825550505050565b600090565b613e40613e33565b613e4b818484613e0e565b505050565b5b81811015613e6f57613e64600082613e38565b600181019050613e51565b5050565b601f821115613eb457613e8581613d5e565b613e8e84613d73565b81016020851015613e9d578190505b613eb1613ea985613d73565b830182613e50565b50505b505050565b600082821c905092915050565b6000613ed760001984600802613eb9565b1980831691505092915050565b6000613ef08383613ec6565b9150826002028217905092915050565b613f0982612b50565b67ffffffffffffffff811115613f2257613f21613d2f565b5b613f2c8254613105565b613f37828285613e73565b600060209050601f831160018114613f6a5760008415613f58578287015190505b613f628582613ee4565b865550613fca565b601f198416613f7886613d5e565b60005b82811015613fa057848901518255600182019150602085019450602081019050613f7b565b86831015613fbd5784890151613fb9601f891682613ec6565b8355505b6001600288020188555050505b505050505050565b7f416464726573733a20696e73756666696369656e742062616c616e636520666f60008201527f722063616c6c0000000000000000000000000000000000000000000000000000602082015250565b600061402e602683612b5b565b915061403982613fd2565b604082019050919050565b6000602082019050818103600083015261405d81614021565b9050919050565b7f416464726573733a2063616c6c20746f206e6f6e2d636f6e7472616374000000600082015250565b600061409a601d83612b5b565b91506140a582614064565b602082019050919050565b600060208201905081810360008301526140c98161408d565b9050919050565b600081519050919050565b600081905092915050565b60006140f1826140d0565b6140fb81856140db565b935061410b818560208601612b6c565b80840191505092915050565b600061412382846140e6565b91508190509291505056fea264697066735822122074bc91b047c58386aab1d0a57fea1e3fcb0e21a4699bf64054910366a67b23ef64736f6c634300080f0033",
  "linkReferences": {
    "contracts/libraries/logic/SupplyLogic.sol": {
      "SupplyLogic": [
        {
          "length": 20,
          "start": 2142
        }
      ]
    }
  },
  "deployedLinkReferences": {
    "contracts/libraries/logic/SupplyLogic.sol": {
      "SupplyLogic": [
        {
          "length": 20,
          "start": 2110
        }
      ]
    }
  }
}