{
  "_format": "hh-sol-artifact-1",
  "contractName": "Reserve",
  "sourceName": "contracts/protocol/Reserve.sol",
  "abi": [
    {
      "inputs": [
        {
          "internalType": "contract IAddressesProvider",
          "name": "addressProvider",
          "type": "address"
        },
        {
          "internalType": "address",
          "name": "owner",
          "type": "address"
        },
        {
          "internalType": "address",
          "name": "asset",
          "type": "address"
        },
        {
          "internalType": "string",
          "name": "name",
          "type": "string"
        },
        {
          "internalType": "string",
          "name": "symbol",
          "type": "string"
        },
        {
          "internalType": "uint256",
          "name": "maximumUtilizationRate",
          "type": "uint256"
        },
        {
          "internalType": "uint256",
          "name": "liquidationPenalty",
          "type": "uint256"
        },
        {
          "internalType": "uint256",
          "name": "protocolLiquidationFee",
          "type": "uint256"
        },
        {
          "internalType": "uint256",
          "name": "underlyingSafeguard",
          "type": "uint256"
        }
      ],
      "stateMutability": "nonpayable",
      "type": "constructor"
    },
    {
      "anonymous": false,
      "inputs": [
        {
          "indexed": true,
          "internalType": "address",
          "name": "owner",
          "type": "address"
        },
        {
          "indexed": true,
          "internalType": "address",
          "name": "spender",
          "type": "address"
        },
        {
          "indexed": false,
          "internalType": "uint256",
          "name": "value",
          "type": "uint256"
        }
      ],
      "name": "Approval",
      "type": "event"
    },
    {
      "anonymous": false,
      "inputs": [
        {
          "indexed": true,
          "internalType": "address",
          "name": "previousOwner",
          "type": "address"
        },
        {
          "indexed": true,
          "internalType": "address",
          "name": "newOwner",
          "type": "address"
        }
      ],
      "name": "OwnershipTransferred",
      "type": "event"
    },
    {
      "anonymous": false,
      "inputs": [
        {
          "indexed": true,
          "internalType": "address",
          "name": "from",
          "type": "address"
        },
        {
          "indexed": true,
          "internalType": "address",
          "name": "to",
          "type": "address"
        },
        {
          "indexed": false,
          "internalType": "uint256",
          "name": "value",
          "type": "uint256"
        }
      ],
      "name": "Transfer",
      "type": "event"
    },
    {
      "inputs": [
        {
          "internalType": "address",
          "name": "owner",
          "type": "address"
        },
        {
          "internalType": "address",
          "name": "spender",
          "type": "address"
        }
      ],
      "name": "allowance",
      "outputs": [
        {
          "internalType": "uint256",
          "name": "",
          "type": "uint256"
        }
      ],
      "stateMutability": "view",
      "type": "function"
    },
    {
      "inputs": [
        {
          "internalType": "address",
          "name": "spender",
          "type": "address"
        },
        {
          "internalType": "uint256",
          "name": "amount",
          "type": "uint256"
        }
      ],
      "name": "approve",
      "outputs": [
        {
          "internalType": "bool",
          "name": "",
          "type": "bool"
        }
      ],
      "stateMutability": "nonpayable",
      "type": "function"
    },
    {
      "inputs": [
        {
          "internalType": "address",
          "name": "account",
          "type": "address"
        }
      ],
      "name": "balanceOf",
      "outputs": [
        {
          "internalType": "uint256",
          "name": "",
          "type": "uint256"
        }
      ],
      "stateMutability": "view",
      "type": "function"
    },
    {
      "inputs": [
        {
          "internalType": "address",
          "name": "user",
          "type": "address"
        },
        {
          "internalType": "uint256",
          "name": "amount",
          "type": "uint256"
        }
      ],
      "name": "burn",
      "outputs": [],
      "stateMutability": "nonpayable",
      "type": "function"
    },
    {
      "inputs": [],
      "name": "decimals",
      "outputs": [
        {
          "internalType": "uint8",
          "name": "",
          "type": "uint8"
        }
      ],
      "stateMutability": "view",
      "type": "function"
    },
    {
      "inputs": [
        {
          "internalType": "address",
          "name": "spender",
          "type": "address"
        },
        {
          "internalType": "uint256",
          "name": "subtractedValue",
          "type": "uint256"
        }
      ],
      "name": "decreaseAllowance",
      "outputs": [
        {
          "internalType": "bool",
          "name": "",
          "type": "bool"
        }
      ],
      "stateMutability": "nonpayable",
      "type": "function"
    },
    {
      "inputs": [
        {
          "internalType": "address",
          "name": "depositor",
          "type": "address"
        },
        {
          "internalType": "uint256",
          "name": "amount",
          "type": "uint256"
        }
      ],
      "name": "depositUnderlying",
      "outputs": [],
      "stateMutability": "nonpayable",
      "type": "function"
    },
    {
      "inputs": [],
      "name": "getAsset",
      "outputs": [
        {
          "internalType": "address",
          "name": "",
          "type": "address"
        }
      ],
      "stateMutability": "view",
      "type": "function"
    },
    {
      "inputs": [],
      "name": "getBorrowRate",
      "outputs": [
        {
          "internalType": "uint256",
          "name": "",
          "type": "uint256"
        }
      ],
      "stateMutability": "view",
      "type": "function"
    },
    {
      "inputs": [],
      "name": "getDebt",
      "outputs": [
        {
          "internalType": "uint256",
          "name": "",
          "type": "uint256"
        }
      ],
      "stateMutability": "view",
      "type": "function"
    },
    {
      "inputs": [],
      "name": "getLiquidationFee",
      "outputs": [
        {
          "internalType": "uint256",
          "name": "",
          "type": "uint256"
        }
      ],
      "stateMutability": "view",
      "type": "function"
    },
    {
      "inputs": [],
      "name": "getLiquidationPenalty",
      "outputs": [
        {
          "internalType": "uint256",
          "name": "",
          "type": "uint256"
        }
      ],
      "stateMutability": "view",
      "type": "function"
    },
    {
      "inputs": [],
      "name": "getMaximumUtilizationRate",
      "outputs": [
        {
          "internalType": "uint256",
          "name": "",
          "type": "uint256"
        }
      ],
      "stateMutability": "view",
      "type": "function"
    },
    {
      "inputs": [
        {
          "internalType": "address",
          "name": "to",
          "type": "address"
        }
      ],
      "name": "getMaximumWithdrawalAmount",
      "outputs": [
        {
          "internalType": "uint256",
          "name": "",
          "type": "uint256"
        }
      ],
      "stateMutability": "view",
      "type": "function"
    },
    {
      "inputs": [],
      "name": "getSupplyRate",
      "outputs": [
        {
          "internalType": "uint256",
          "name": "",
          "type": "uint256"
        }
      ],
      "stateMutability": "view",
      "type": "function"
    },
    {
      "inputs": [],
      "name": "getUnderlyingBalance",
      "outputs": [
        {
          "internalType": "uint256",
          "name": "",
          "type": "uint256"
        }
      ],
      "stateMutability": "view",
      "type": "function"
    },
    {
      "inputs": [],
      "name": "getUnderlyingSafeguard",
      "outputs": [
        {
          "internalType": "uint256",
          "name": "",
          "type": "uint256"
        }
      ],
      "stateMutability": "view",
      "type": "function"
    },
    {
      "inputs": [],
      "name": "getUtilizationRate",
      "outputs": [
        {
          "internalType": "uint256",
          "name": "",
          "type": "uint256"
        }
      ],
      "stateMutability": "view",
      "type": "function"
    },
    {
      "inputs": [
        {
          "internalType": "address",
          "name": "spender",
          "type": "address"
        },
        {
          "internalType": "uint256",
          "name": "addedValue",
          "type": "uint256"
        }
      ],
      "name": "increaseAllowance",
      "outputs": [
        {
          "internalType": "bool",
          "name": "",
          "type": "bool"
        }
      ],
      "stateMutability": "nonpayable",
      "type": "function"
    },
    {
      "inputs": [
        {
          "internalType": "address",
          "name": "user",
          "type": "address"
        },
        {
          "internalType": "uint256",
          "name": "amount",
          "type": "uint256"
        }
      ],
      "name": "mint",
      "outputs": [],
      "stateMutability": "nonpayable",
      "type": "function"
    },
    {
      "inputs": [],
      "name": "name",
      "outputs": [
        {
          "internalType": "string",
          "name": "",
          "type": "string"
        }
      ],
      "stateMutability": "view",
      "type": "function"
    },
    {
      "inputs": [],
      "name": "owner",
      "outputs": [
        {
          "internalType": "address",
          "name": "",
          "type": "address"
        }
      ],
      "stateMutability": "view",
      "type": "function"
    },
    {
      "inputs": [
        {
          "internalType": "address",
          "name": "from",
          "type": "address"
        },
        {
          "internalType": "uint256",
          "name": "amount",
          "type": "uint256"
        },
        {
          "internalType": "uint256",
          "name": "borrowRate",
          "type": "uint256"
        },
        {
          "internalType": "uint256",
          "name": "interest",
          "type": "uint256"
        }
      ],
      "name": "receiveUnderlying",
      "outputs": [],
      "stateMutability": "nonpayable",
      "type": "function"
    },
    {
      "inputs": [
        {
          "internalType": "address",
          "name": "from",
          "type": "address"
        },
        {
          "internalType": "uint256",
          "name": "amount",
          "type": "uint256"
        },
        {
          "internalType": "uint256",
          "name": "borrowRate",
          "type": "uint256"
        },
        {
          "internalType": "uint256",
          "name": "defaultedDebt",
          "type": "uint256"
        }
      ],
      "name": "receiveUnderlyingDefaulted",
      "outputs": [],
      "stateMutability": "nonpayable",
      "type": "function"
    },
    {
      "inputs": [],
      "name": "renounceOwnership",
      "outputs": [],
      "stateMutability": "nonpayable",
      "type": "function"
    },
    {
      "inputs": [
        {
          "internalType": "uint256",
          "name": "protocolLiquidationFee",
          "type": "uint256"
        }
      ],
      "name": "setLiquidationFee",
      "outputs": [],
      "stateMutability": "nonpayable",
      "type": "function"
    },
    {
      "inputs": [
        {
          "internalType": "uint256",
          "name": "liquidationPenalty",
          "type": "uint256"
        }
      ],
      "name": "setLiquidationPenalty",
      "outputs": [],
      "stateMutability": "nonpayable",
      "type": "function"
    },
    {
      "inputs": [
        {
          "internalType": "uint256",
          "name": "underlyingSafeguard",
          "type": "uint256"
        }
      ],
      "name": "setUnderlyingSafeguard",
      "outputs": [],
      "stateMutability": "nonpayable",
      "type": "function"
    },
    {
      "inputs": [],
      "name": "symbol",
      "outputs": [
        {
          "internalType": "string",
          "name": "",
          "type": "string"
        }
      ],
      "stateMutability": "view",
      "type": "function"
    },
    {
      "inputs": [],
      "name": "totalSupply",
      "outputs": [
        {
          "internalType": "uint256",
          "name": "",
          "type": "uint256"
        }
      ],
      "stateMutability": "view",
      "type": "function"
    },
    {
      "inputs": [
        {
          "internalType": "address",
          "name": "to",
          "type": "address"
        },
        {
          "internalType": "uint256",
          "name": "amount",
          "type": "uint256"
        }
      ],
      "name": "transfer",
      "outputs": [
        {
          "internalType": "bool",
          "name": "",
          "type": "bool"
        }
      ],
      "stateMutability": "nonpayable",
      "type": "function"
    },
    {
      "inputs": [
        {
          "internalType": "address",
          "name": "from",
          "type": "address"
        },
        {
          "internalType": "address",
          "name": "to",
          "type": "address"
        },
        {
          "internalType": "uint256",
          "name": "amount",
          "type": "uint256"
        }
      ],
      "name": "transferFrom",
      "outputs": [
        {
          "internalType": "bool",
          "name": "",
          "type": "bool"
        }
      ],
      "stateMutability": "nonpayable",
      "type": "function"
    },
    {
      "inputs": [
        {
          "internalType": "address",
          "name": "newOwner",
          "type": "address"
        }
      ],
      "name": "transferOwnership",
      "outputs": [],
      "stateMutability": "nonpayable",
      "type": "function"
    },
    {
      "inputs": [
        {
          "internalType": "address",
          "name": "to",
          "type": "address"
        },
        {
          "internalType": "uint256",
          "name": "amount",
          "type": "uint256"
        },
        {
          "internalType": "uint256",
          "name": "borrowRate",
          "type": "uint256"
        }
      ],
      "name": "transferUnderlying",
      "outputs": [],
      "stateMutability": "nonpayable",
      "type": "function"
    },
    {
      "inputs": [
        {
          "internalType": "address",
          "name": "to",
          "type": "address"
        },
        {
          "internalType": "uint256",
          "name": "amount",
          "type": "uint256"
        }
      ],
      "name": "withdrawUnderlying",
      "outputs": [],
      "stateMutability": "nonpayable",
      "type": "function"
    }
  ],
  "bytecode": "0x608080604052346200059e5762001fce8038038091620000208285620005a3565b83398101610120828203126200059e578151906001600160a01b03821682036200059e576200005260208401620005c7565b916200006160408501620005c7565b60608501519092906001600160401b0381116200059e578162000086918701620005dc565b608086015190916001600160401b0382116200059e57620000a9918701620005dc565b9460a081015160c08201519061010060e08401519301519380519060018060401b038211620004745760035490600182811c9216801562000593575b6020831014620004535781601f84931162000521575b50602090601f831160011462000496576000926200048a575b50508160011b916000199060031b1c1916176003555b87516001600160401b0381116200047457600454600181811c9116801562000469575b60208210146200045357601f8111620003ed575b506020601f821160011462000375579080602097969594939260049b60009262000369575b50508160011b916000199060031b1c19161789555b620001a63362000664565b600680546001600160a01b039687166001600160a01b03199182168117909255600780549990971698168817909555600d55600b55600c55600e5560405163292bdab360e11b815294859182905afa928315620002d85760009362000320575b506020602491604051928380926370a0823160e01b82523060048301525afa8015620002d857600090620002e4575b600854604051633362bee560e11b8152600481019290925260248201529260209150839060449082906001600160a01b03165afa918215620002d85760009262000299575b50620002899160095562000664565b60405161191b9081620006b38239f35b6020813d602011620002cf575b81620002b560209383620005a3565b81010312620002cb57519150620002896200027a565b8280fd5b3d9150620002a6565b6040513d6000823e3d90fd5b6020823d60201162000317575b816200030060209383620005a3565b810103126200031457506020905162000235565b80fd5b3d9150620002f1565b90926020823d60201162000360575b816200033e60209383620005a3565b81010312620003145750602062000357602492620005c7565b93915062000206565b3d91506200032f565b01519050388062000186565b600460005260206000209960005b601f1984168110620003d457509160049a600192602099989796959483601f19811610620003ba575b505050811b0189556200019b565b015160001960f88460031b161c19169055388080620003ac565b828201518c556001909b019a6020928301920162000383565b60046000527f8a35acfbc15ff81a39ae7d344fd709f28e8600b4aa8c65c6b64bfe7fe36bd19b601f830160051c8101602084106200044b575b601f830160051c820181106200043e57505062000161565b6000815560010162000426565b508062000426565b634e487b7160e01b600052602260045260246000fd5b90607f16906200014d565b634e487b7160e01b600052604160045260246000fd5b01519050388062000114565b600360009081527fc2575a0e9e593c00f959f8c92f12db2869c3395a3b0502d05e2516446f71f85b9350601f198516905b818110620005085750908460019594939210620004ee575b505050811b016003556200012a565b015160001960f88460031b161c19169055388080620004df565b92936020600181928786015181550195019301620004c7565b60036000529091507fc2575a0e9e593c00f959f8c92f12db2869c3395a3b0502d05e2516446f71f85b601f840160051c8101602085106200058b575b90849392915b601f830160051c820181106200057b575050620000fb565b6000815585945060010162000563565b50806200055d565b91607f1691620000e5565b600080fd5b601f909101601f19168101906001600160401b038211908210176200047457604052565b51906001600160a01b03821682036200059e57565b9080601f830112156200059e578151906001600160401b03821162000474576040519260209162000617601f8501601f1916840186620005a3565b8385528284830101116200059e5782906000905b838383106200064b575050116200064157505090565b6000918301015290565b819350828193920101518282880101520183916200062b565b600580546001600160a01b039283166001600160a01b031982168117909255604051919216907f8be0079c531659141344cd1fd0a4f28419497f9722a3daafe3b4186f6b6457e090600090a356fe6080604081815260048036101561001557600080fd5b600092833560e01c90816306fdde0314610f5757508063095ea7b314610f2d57806314a6bf0f14610f0e57806318160ddd14610eef5780631e522b2914610ed057806323b872dd14610e065780632806a74314610de5578063313ce56714610dc95780633950935114610d795780633e680e7a14610d0857806340c10f1914610c095780634a417a5314610b18578063545039c614610a965780635c222bad14610a6d57806360b08f7514610a4c57806370a0823114610a15578063715018a6146109b557806375d0f29f1461094b57806384bdc9a8146108f05780638da5cb5b146108c757806395d89b41146107c35780639dc29fac1461064b578063a0583ca71461062c578063a225869414610574578063a457c2d7146104cd578063a4b84e0a146104ae578063a663f83014610420578063a9059cbb146103ef578063ba1c5e80146103d0578063dd62ed3e14610387578063e2c6743914610363578063f2fde38b14610298578063fbf4198414610275578063fdb87252146101c85763fef0bec8146101a457600080fd5b346101c45760203660031901126101c4576101bd611103565b35600c5551f35b8280fd5b50346101c457816003193601126101c4576101e16110a4565b600654835163e7334fe560e01b8152926001600160a01b0392916020918591829086165afa801561026b57826102259161023295889161023d575b5016331461144b565b60243591600754166116cf565b61023a611797565b51f35b61025e915060203d8111610264575b610256818361115b565b81019061142c565b3861021c565b503d61024c565b84513d87823e3d90fd5b505034610294578160031936011261029457602090600c549051908152f35b5080fd5b50346101c45760203660031901126101c4576102b26110a4565b6102ba611103565b6001600160a01b03908116918215610311575060055492826bffffffffffffffffffffffff60a01b8516176005555192167f8be0079c531659141344cd1fd0a4f28419497f9722a3daafe3b4186f6b6457e08484a3f35b608490602085519162461bcd60e51b8352820152602660248201527f4f776e61626c653a206e6577206f776e657220697320746865207a65726f206160448201526564647265737360d01b6064820152fd5b50503461029457816003193601126102945760209061038061171f565b9051908152f35b505034610294578060031936011261029457806020926103a56110a4565b6103ad6110bf565b6001600160a01b0391821683526001865283832091168252845220549051908152f35b5050346102945781600319360112610294576020906009549051908152f35b50503461029457806003193601126102945760209061041961040f6110a4565b60243590336111b5565b5160018152f35b50346101c45761042f366110d5565b600654865163e7334fe560e01b81526001600160a01b039692959490929091602091849182908a165afa9384156104a4578661047f610499986104919761048b968d9161023d575016331461144b565b600754169030916114a2565b82611896565b600854611497565b60085561023a611797565b87513d8a823e3d90fd5b505034610294578160031936011261029457602090600d549051908152f35b5082346105715782600319360112610571576104e76110a4565b918360243592338152600160205281812060018060a01b038616825260205220549082821061052057602085610419858503873361132a565b608490602086519162461bcd60e51b8352820152602560248201527f45524332303a2064656372656173656420616c6c6f77616e63652062656c6f77604482015264207a65726f60d81b6064820152fd5b80fd5b50346101c45760603660031901126101c45761058e6110a4565b600654835163e7334fe560e01b81526001600160a01b039360243593926020918391829088165afa91821561062257846105da610499966105e39587958b9161023d575016331461144b565b600754166116cf565b60085461061a61060a6105f8600a5484611863565b61060460443586611863565b90611193565b6106148484611193565b90611876565b600a55611193565b85513d88823e3d90fd5b505034610294578160031936011261029457602090600e549051908152f35b50346101c457816003193601126101c4576106646110a4565b600654835163e7334fe560e01b8152602092602435926001600160a01b039290859082908890829087165afa9081156104a4576106ac9184918a916107ac575016331461144b565b1692831561075f578386528583528486205490828210610711575091817fddf252ad1be2c89b69c2b068fc378daa952ba7f163c4a11628f55a4df523b3ef92859488968752868452038686205561070581600254611497565b6002558551908152a351f35b855162461bcd60e51b8152908101849052602260248201527f45524332303a206275726e20616d6f756e7420657863656564732062616c616e604482015261636560f01b6064820152608490fd5b845162461bcd60e51b8152908101839052602160248201527f45524332303a206275726e2066726f6d20746865207a65726f206164647265736044820152607360f81b6064820152608490fd5b61025e9150873d891161026457610256818361115b565b50919034610294578160031936011261029457805191809380549160019083821c928285169485156108bd575b60209586861081146108aa57858952908115610886575060011461082e575b61082a8787610820828c038361115b565b519182918261104d565b0390f35b81529295507f8a35acfbc15ff81a39ae7d344fd709f28e8600b4aa8c65c6b64bfe7fe36bd19b5b828410610873575050508261082a946108209282010194388061080f565b8054868501880152928601928101610855565b60ff19168887015250505050151560051b83010192506108208261082a388061080f565b634e487b7160e01b845260228352602484fd5b93607f16936107f0565b50503461029457816003193601126102945760055490516001600160a01b039091168152602090f35b5050346102945781600319360112610294576020919060085461091a61091461171f565b82611193565b610926575b5051908152f35b61094491925061061461093b82600a54611863565b9161060461171f565b903861091f565b50346101c457816003193601126101c4576109646110a4565b600654835163e7334fe560e01b8152926001600160a01b03916020918591829085165afa801561026b57816109a69161023295889161023d575016331461144b565b600754166024359130916114a2565b5050346102945781600319360112610294576109cf611103565b600580546001600160a01b0319811690915590519082906001600160a01b03167f8be0079c531659141344cd1fd0a4f28419497f9722a3daafe3b4186f6b6457e08284a3f35b5050346102945760203660031901126102945760209181906001600160a01b03610a3d6110a4565b16815280845220549051908152f35b50346101c45760203660031901126101c457610a66611103565b35600e5551f35b50503461029457816003193601126102945760075490516001600160a01b039091168152602090f35b50346101c45782610aa6366110d5565b600654875163e7334fe560e01b81526001600160a01b039794969095939490939291602091879182908b165afa8015610b0e5787610afb61049999610b06936104919961048b989161023d575016331461144b565b600754169187611193565b9130916114a2565b88513d85823e3d90fd5b50919034610294578160031936011261029457600654815163292bdab360e11b815260209490916001600160a01b039190869084908390829086165afa92831561026b57908692918694610be7575b50604490610b7361171f565b9260085495875196879586946342e4b18360e11b86528501526024840152165afa928315610bdc578093610baa575b505051908152f35b909192508382813d8311610bd5575b610bc3818361115b565b81010312610571575051903880610ba2565b503d610bb9565b8251903d90823e3d90fd5b6044919450610c0290843d861161026457610256818361115b565b9390610b67565b50346101c457816003193601126101c457610c226110a4565b600654835163e7334fe560e01b8152602092602435926001600160a01b039290859082908890829087165afa9081156104a457610c6a9184918a916107ac575016331461144b565b16928315610cc55750849181610ca37fddf252ad1be2c89b69c2b068fc378daa952ba7f163c4a11628f55a4df523b3ef93600254611193565b600255848452838252858420610cba828254611193565b90558551908152a351f35b845162461bcd60e51b8152908101839052601f60248201527f45524332303a206d696e7420746f20746865207a65726f2061646472657373006044820152606490fd5b5091903461029457602092836003193601126101c457610d266110a4565b8251634af0799360e01b815230928101929092526001600160a01b03166024820152838160448173__$2f7c76ee15bdc1d8f3b34a04b86951fc56$__5af4928315610bdc578093610baa57505051908152f35b505034610294578060031936011261029457610419602092610dc2610d9c6110a4565b338352600186528483206001600160a01b03821684528652918490205460243590611193565b903361132a565b5050346102945781600319360112610294576020905160128152f35b50346101c45760203660031901126101c457610dff611103565b35600b5551f35b5082903461029457606036600319011261029457610e226110a4565b610e2a6110bf565b91846044359460018060a01b038416815260016020528181203382526020522054906000198203610e64575b6020866104198787876111b5565b848210610e8d5750918391610e82602096956104199503338361132a565b919394819350610e56565b606490602087519162461bcd60e51b8352820152601d60248201527f45524332303a20696e73756666696369656e7420616c6c6f77616e63650000006044820152fd5b505034610294578160031936011261029457602090600b549051908152f35b5050346102945781600319360112610294576020906002549051908152f35b5050346102945781600319360112610294576020906008549051908152f35b505034610294578060031936011261029457602090610419610f4d6110a4565b602435903361132a565b9291905034611049578360031936011261104957600354600181811c918690828116801561103f575b602095868610821461102c575084885290811561100a5750600114610fb1575b61082a8686610820828b038361115b565b929550600383527fc2575a0e9e593c00f959f8c92f12db2869c3395a3b0502d05e2516446f71f85b5b828410610ff7575050508261082a94610820928201019438610fa0565b8054868501880152928601928101610fda565b60ff191687860152505050151560051b83010192506108208261082a38610fa0565b634e487b7160e01b845260229052602483fd5b93607f1693610f80565b8380fd5b919091602080825283519081818401526000945b82861061108e575050806040939411611081575b601f01601f1916010190565b6000838284010152611075565b8581018201518487016040015294810194611061565b600435906001600160a01b03821682036110ba57565b600080fd5b602435906001600160a01b03821682036110ba57565b60809060031901126110ba576004356001600160a01b03811681036110ba5790602435906044359060643590565b6005546001600160a01b0316330361111757565b606460405162461bcd60e51b815260206004820152602060248201527f4f776e61626c653a2063616c6c6572206973206e6f7420746865206f776e65726044820152fd5b90601f8019910116810190811067ffffffffffffffff82111761117d57604052565b634e487b7160e01b600052604160045260246000fd5b8119811161119f570190565b634e487b7160e01b600052601160045260246000fd5b6001600160a01b039081169182156112d757169182156112865760008281528060205260408120549180831061123257604082827fddf252ad1be2c89b69c2b068fc378daa952ba7f163c4a11628f55a4df523b3ef958760209652828652038282205586815220611227828254611193565b9055604051908152a3565b60405162461bcd60e51b815260206004820152602660248201527f45524332303a207472616e7366657220616d6f756e7420657863656564732062604482015265616c616e636560d01b6064820152608490fd5b60405162461bcd60e51b815260206004820152602360248201527f45524332303a207472616e7366657220746f20746865207a65726f206164647260448201526265737360e81b6064820152608490fd5b60405162461bcd60e51b815260206004820152602560248201527f45524332303a207472616e736665722066726f6d20746865207a65726f206164604482015264647265737360d81b6064820152608490fd5b6001600160a01b039081169182156113db571691821561138b5760207f8c5be1e5ebec7d5bd14f71427d1e84f3dd0314c0f7b2291e5b200ac8c7c3b925918360005260018252604060002085600052825280604060002055604051908152a3565b60405162461bcd60e51b815260206004820152602260248201527f45524332303a20617070726f766520746f20746865207a65726f206164647265604482015261737360f01b6064820152608490fd5b60405162461bcd60e51b8152602060048201526024808201527f45524332303a20617070726f76652066726f6d20746865207a65726f206164646044820152637265737360e01b6064820152608490fd5b908160209103126110ba57516001600160a01b03811681036110ba5790565b1561145257565b60405162461bcd60e51b815260206004820152601e60248201527f43616c6c6572206d757374206265204d61726b657420636f6e747261637400006044820152606490fd5b81811061119f570390565b6040516323b872dd60e01b60208201526001600160a01b03928316602482015292909116604483015260648083019390935291815260a081019181831067ffffffffffffffff84111761117d576114fb926040526114fd565b565b604080516001600160a01b039290921692909167ffffffffffffffff8184018181118382101761117d5784526020948583527f5361666545524332303a206c6f772d6c6576656c2063616c6c206661696c656486840152803b1561164f5760008481959282898195519301915af13d15611641573d91821161162d57906115a2929185519161159588601f19601f840116018461115b565b82523d858884013e611693565b8051806115b1575b5050505050565b81859181010312610294578301519081159182150361057157506115d7578080806115aa565b60849250519062461bcd60e51b82526004820152602a60248201527f5361666545524332303a204552433230206f7065726174696f6e20646964206e6044820152691bdd081cdd58d8d9595960b21b6064820152fd5b634e487b7160e01b84526041600452602484fd5b6115a2929150606090611693565b845162461bcd60e51b815260048101879052601d60248201527f416464726573733a2063616c6c20746f206e6f6e2d636f6e74726163740000006044820152606490fd5b9091901561169f575090565b8151156116af5750805190602001fd5b60405162461bcd60e51b81529081906116cb906004830161104d565b0390fd5b60405163a9059cbb60e01b60208201526001600160a01b039092166024830152604480830193909352918152608081019167ffffffffffffffff83118284101761117d576114fb926040526114fd565b6007546040516370a0823160e01b815230600482015290602090829060249082906001600160a01b03165afa90811561178b5760009161175d575090565b906020823d8211611783575b816117766020938361115b565b8101031261057157505190565b3d9150611769565b6040513d6000823e3d90fd5b60065460405163292bdab360e11b8152906020906001600160a01b039082908490600490829085165afa92831561178b57600093611842575b50819060446117dd61171f565b600854926040519687948593633362bee560e11b855260048501526024840152165afa90811561178b57600091611816575b5060095550565b82813d831161183b575b61182a818361115b565b81010312610571575051803861180f565b503d611820565b8291935061185c90823d841161026457610256818361115b565b92906117d0565b806000190482118115151661119f570290565b8115611880570490565b634e487b7160e01b600052601260045260246000fd5b90600854906118a58383611497565b6118b3575050506000600a55565b6118e0926118da610614926118d46118cd600a5487611863565b9184611863565b90611497565b92611497565b600a5556fea2646970667358221220e401275e2c1e590c923c63e3dde4e1252da8f62b045700fd0dacbf55a078163f64736f6c634300080f0033",
  "linkReferences": {
    "contracts/libraries/logic/SupplyLogic.sol": {
      "SupplyLogic": [
        {
          "length": 20,
          "start": 5122
        }
      ]
    }
  },
  "deployedLinkReferences": {
    "contracts/libraries/logic/SupplyLogic.sol": {
      "SupplyLogic": [
        {
          "length": 20,
          "start": 3407
        }
      ]
    }
  }
}