{
  "_format": "hh-sol-artifact-1",
  "contractName": "Reserve",
  "sourceName": "contracts/protocol/Reserve.sol",
  "abi": [
    {
      "inputs": [
        {
          "internalType": "contract IAddressesProvider",
          "name": "addressProvider",
          "type": "address"
        },
        {
          "internalType": "address",
          "name": "owner",
          "type": "address"
        },
        {
          "internalType": "contract IERC20",
          "name": "asset",
          "type": "address"
        },
        {
          "internalType": "string",
          "name": "name",
          "type": "string"
        },
        {
          "internalType": "string",
          "name": "symbol",
          "type": "string"
        },
        {
          "components": [
            {
              "internalType": "uint256",
              "name": "liquidationPenalty",
              "type": "uint256"
            },
            {
              "internalType": "uint256",
              "name": "protocolLiquidationFee",
              "type": "uint256"
            },
            {
              "internalType": "uint256",
              "name": "maximumUtilizationRate",
              "type": "uint256"
            },
            {
              "internalType": "uint256",
              "name": "tvlSafeguard",
              "type": "uint256"
            }
          ],
          "internalType": "struct DataTypes.ReserveParams",
          "name": "reserveParams",
          "type": "tuple"
        }
      ],
      "stateMutability": "nonpayable",
      "type": "constructor"
    },
    {
      "anonymous": false,
      "inputs": [
        {
          "indexed": true,
          "internalType": "address",
          "name": "owner",
          "type": "address"
        },
        {
          "indexed": true,
          "internalType": "address",
          "name": "spender",
          "type": "address"
        },
        {
          "indexed": false,
          "internalType": "uint256",
          "name": "value",
          "type": "uint256"
        }
      ],
      "name": "Approval",
      "type": "event"
    },
    {
      "anonymous": false,
      "inputs": [
        {
          "indexed": true,
          "internalType": "address",
          "name": "previousOwner",
          "type": "address"
        },
        {
          "indexed": true,
          "internalType": "address",
          "name": "newOwner",
          "type": "address"
        }
      ],
      "name": "OwnershipTransferred",
      "type": "event"
    },
    {
      "anonymous": false,
      "inputs": [
        {
          "indexed": true,
          "internalType": "address",
          "name": "from",
          "type": "address"
        },
        {
          "indexed": true,
          "internalType": "address",
          "name": "to",
          "type": "address"
        },
        {
          "indexed": false,
          "internalType": "uint256",
          "name": "value",
          "type": "uint256"
        }
      ],
      "name": "Transfer",
      "type": "event"
    },
    {
      "inputs": [
        {
          "internalType": "address",
          "name": "owner",
          "type": "address"
        },
        {
          "internalType": "address",
          "name": "spender",
          "type": "address"
        }
      ],
      "name": "allowance",
      "outputs": [
        {
          "internalType": "uint256",
          "name": "",
          "type": "uint256"
        }
      ],
      "stateMutability": "view",
      "type": "function"
    },
    {
      "inputs": [
        {
          "internalType": "address",
          "name": "spender",
          "type": "address"
        },
        {
          "internalType": "uint256",
          "name": "amount",
          "type": "uint256"
        }
      ],
      "name": "approve",
      "outputs": [
        {
          "internalType": "bool",
          "name": "",
          "type": "bool"
        }
      ],
      "stateMutability": "nonpayable",
      "type": "function"
    },
    {
      "inputs": [
        {
          "internalType": "address",
          "name": "account",
          "type": "address"
        }
      ],
      "name": "balanceOf",
      "outputs": [
        {
          "internalType": "uint256",
          "name": "",
          "type": "uint256"
        }
      ],
      "stateMutability": "view",
      "type": "function"
    },
    {
      "inputs": [
        {
          "internalType": "address",
          "name": "user",
          "type": "address"
        },
        {
          "internalType": "uint256",
          "name": "amount",
          "type": "uint256"
        }
      ],
      "name": "burn",
      "outputs": [],
      "stateMutability": "nonpayable",
      "type": "function"
    },
    {
      "inputs": [],
      "name": "decimals",
      "outputs": [
        {
          "internalType": "uint8",
          "name": "",
          "type": "uint8"
        }
      ],
      "stateMutability": "view",
      "type": "function"
    },
    {
      "inputs": [
        {
          "internalType": "address",
          "name": "spender",
          "type": "address"
        },
        {
          "internalType": "uint256",
          "name": "subtractedValue",
          "type": "uint256"
        }
      ],
      "name": "decreaseAllowance",
      "outputs": [
        {
          "internalType": "bool",
          "name": "",
          "type": "bool"
        }
      ],
      "stateMutability": "nonpayable",
      "type": "function"
    },
    {
      "inputs": [
        {
          "internalType": "address",
          "name": "depositor",
          "type": "address"
        },
        {
          "internalType": "uint256",
          "name": "amount",
          "type": "uint256"
        }
      ],
      "name": "depositUnderlying",
      "outputs": [],
      "stateMutability": "nonpayable",
      "type": "function"
    },
    {
      "inputs": [],
      "name": "getAsset",
      "outputs": [
        {
          "internalType": "address",
          "name": "",
          "type": "address"
        }
      ],
      "stateMutability": "view",
      "type": "function"
    },
    {
      "inputs": [],
      "name": "getBorrowRate",
      "outputs": [
        {
          "internalType": "uint256",
          "name": "",
          "type": "uint256"
        }
      ],
      "stateMutability": "view",
      "type": "function"
    },
    {
      "inputs": [],
      "name": "getDebt",
      "outputs": [
        {
          "internalType": "uint256",
          "name": "",
          "type": "uint256"
        }
      ],
      "stateMutability": "view",
      "type": "function"
    },
    {
      "inputs": [],
      "name": "getLiquidationFee",
      "outputs": [
        {
          "internalType": "uint256",
          "name": "",
          "type": "uint256"
        }
      ],
      "stateMutability": "view",
      "type": "function"
    },
    {
      "inputs": [],
      "name": "getLiquidationPenalty",
      "outputs": [
        {
          "internalType": "uint256",
          "name": "",
          "type": "uint256"
        }
      ],
      "stateMutability": "view",
      "type": "function"
    },
    {
      "inputs": [],
      "name": "getMaximumUtilizationRate",
      "outputs": [
        {
          "internalType": "uint256",
          "name": "",
          "type": "uint256"
        }
      ],
      "stateMutability": "view",
      "type": "function"
    },
    {
      "inputs": [
        {
          "internalType": "address",
          "name": "to",
          "type": "address"
        }
      ],
      "name": "getMaximumWithdrawalAmount",
      "outputs": [
        {
          "internalType": "uint256",
          "name": "",
          "type": "uint256"
        }
      ],
      "stateMutability": "view",
      "type": "function"
    },
    {
      "inputs": [],
      "name": "getSupplyRate",
      "outputs": [
        {
          "internalType": "uint256",
          "name": "",
          "type": "uint256"
        }
      ],
      "stateMutability": "view",
      "type": "function"
    },
    {
      "inputs": [],
      "name": "getTVL",
      "outputs": [
        {
          "internalType": "uint256",
          "name": "",
          "type": "uint256"
        }
      ],
      "stateMutability": "view",
      "type": "function"
    },
    {
      "inputs": [],
      "name": "getTVLSafeguard",
      "outputs": [
        {
          "internalType": "uint256",
          "name": "",
          "type": "uint256"
        }
      ],
      "stateMutability": "view",
      "type": "function"
    },
    {
      "inputs": [],
      "name": "getUnderlyingBalance",
      "outputs": [
        {
          "internalType": "uint256",
          "name": "",
          "type": "uint256"
        }
      ],
      "stateMutability": "view",
      "type": "function"
    },
    {
      "inputs": [],
      "name": "getUtilizationRate",
      "outputs": [
        {
          "internalType": "uint256",
          "name": "",
          "type": "uint256"
        }
      ],
      "stateMutability": "view",
      "type": "function"
    },
    {
      "inputs": [
        {
          "internalType": "address",
          "name": "spender",
          "type": "address"
        },
        {
          "internalType": "uint256",
          "name": "addedValue",
          "type": "uint256"
        }
      ],
      "name": "increaseAllowance",
      "outputs": [
        {
          "internalType": "bool",
          "name": "",
          "type": "bool"
        }
      ],
      "stateMutability": "nonpayable",
      "type": "function"
    },
    {
      "inputs": [
        {
          "internalType": "address",
          "name": "user",
          "type": "address"
        },
        {
          "internalType": "uint256",
          "name": "amount",
          "type": "uint256"
        }
      ],
      "name": "mint",
      "outputs": [],
      "stateMutability": "nonpayable",
      "type": "function"
    },
    {
      "inputs": [],
      "name": "name",
      "outputs": [
        {
          "internalType": "string",
          "name": "",
          "type": "string"
        }
      ],
      "stateMutability": "view",
      "type": "function"
    },
    {
      "inputs": [],
      "name": "owner",
      "outputs": [
        {
          "internalType": "address",
          "name": "",
          "type": "address"
        }
      ],
      "stateMutability": "view",
      "type": "function"
    },
    {
      "inputs": [
        {
          "internalType": "address",
          "name": "from",
          "type": "address"
        },
        {
          "internalType": "uint256",
          "name": "amount",
          "type": "uint256"
        },
        {
          "internalType": "uint256",
          "name": "borrowRate",
          "type": "uint256"
        },
        {
          "internalType": "uint256",
          "name": "interest",
          "type": "uint256"
        }
      ],
      "name": "receiveUnderlying",
      "outputs": [],
      "stateMutability": "nonpayable",
      "type": "function"
    },
    {
      "inputs": [
        {
          "internalType": "address",
          "name": "from",
          "type": "address"
        },
        {
          "internalType": "uint256",
          "name": "amount",
          "type": "uint256"
        },
        {
          "internalType": "uint256",
          "name": "borrowRate",
          "type": "uint256"
        },
        {
          "internalType": "uint256",
          "name": "defaultedDebt",
          "type": "uint256"
        }
      ],
      "name": "receiveUnderlyingDefaulted",
      "outputs": [],
      "stateMutability": "nonpayable",
      "type": "function"
    },
    {
      "inputs": [],
      "name": "renounceOwnership",
      "outputs": [],
      "stateMutability": "nonpayable",
      "type": "function"
    },
    {
      "inputs": [
        {
          "internalType": "uint256",
          "name": "protocolLiquidationFee",
          "type": "uint256"
        }
      ],
      "name": "setLiquidationFee",
      "outputs": [],
      "stateMutability": "nonpayable",
      "type": "function"
    },
    {
      "inputs": [
        {
          "internalType": "uint256",
          "name": "liquidationPenalty",
          "type": "uint256"
        }
      ],
      "name": "setLiquidationPenalty",
      "outputs": [],
      "stateMutability": "nonpayable",
      "type": "function"
    },
    {
      "inputs": [
        {
          "internalType": "uint256",
          "name": "tvlSafeguard",
          "type": "uint256"
        }
      ],
      "name": "setTVLSafeguard",
      "outputs": [],
      "stateMutability": "nonpayable",
      "type": "function"
    },
    {
      "inputs": [],
      "name": "symbol",
      "outputs": [
        {
          "internalType": "string",
          "name": "",
          "type": "string"
        }
      ],
      "stateMutability": "view",
      "type": "function"
    },
    {
      "inputs": [],
      "name": "totalSupply",
      "outputs": [
        {
          "internalType": "uint256",
          "name": "",
          "type": "uint256"
        }
      ],
      "stateMutability": "view",
      "type": "function"
    },
    {
      "inputs": [
        {
          "internalType": "address",
          "name": "to",
          "type": "address"
        },
        {
          "internalType": "uint256",
          "name": "amount",
          "type": "uint256"
        }
      ],
      "name": "transfer",
      "outputs": [
        {
          "internalType": "bool",
          "name": "",
          "type": "bool"
        }
      ],
      "stateMutability": "nonpayable",
      "type": "function"
    },
    {
      "inputs": [
        {
          "internalType": "address",
          "name": "from",
          "type": "address"
        },
        {
          "internalType": "address",
          "name": "to",
          "type": "address"
        },
        {
          "internalType": "uint256",
          "name": "amount",
          "type": "uint256"
        }
      ],
      "name": "transferFrom",
      "outputs": [
        {
          "internalType": "bool",
          "name": "",
          "type": "bool"
        }
      ],
      "stateMutability": "nonpayable",
      "type": "function"
    },
    {
      "inputs": [
        {
          "internalType": "address",
          "name": "newOwner",
          "type": "address"
        }
      ],
      "name": "transferOwnership",
      "outputs": [],
      "stateMutability": "nonpayable",
      "type": "function"
    },
    {
      "inputs": [
        {
          "internalType": "address",
          "name": "to",
          "type": "address"
        },
        {
          "internalType": "uint256",
          "name": "amount",
          "type": "uint256"
        },
        {
          "internalType": "uint256",
          "name": "borrowRate",
          "type": "uint256"
        }
      ],
      "name": "transferUnderlying",
      "outputs": [],
      "stateMutability": "nonpayable",
      "type": "function"
    },
    {
      "inputs": [
        {
          "internalType": "address",
          "name": "to",
          "type": "address"
        },
        {
          "internalType": "uint256",
          "name": "amount",
          "type": "uint256"
        }
      ],
      "name": "withdrawUnderlying",
      "outputs": [],
      "stateMutability": "nonpayable",
      "type": "function"
    }
  ],
  "bytecode": "0x60806040523480156200001157600080fd5b50604051620022fb380380620022fb8339810160408190526200003491620003c5565b828260036200004483826200054a565b5060046200005382826200054a565b505050620000706200006a620000de60201b60201c565b620000e2565b600680546001600160a01b038089166001600160a01b03199283161790925560078054928716929091169190911790558051600b556020810151600c556040810151600d556060810151600e55620000c762000134565b620000d285620000e2565b50505050505062000657565b3390565b600580546001600160a01b038381166001600160a01b0319831681179093556040519116919082907f8be0079c531659141344cd1fd0a4f28419497f9722a3daafe3b4186f6b6457e090600090a35050565b600660009054906101000a90046001600160a01b03166001600160a01b0316635257b5666040518163ffffffff1660e01b8152600401602060405180830381865afa15801562000188573d6000803e3d6000fd5b505050506040513d601f19601f82011682018060405250810190620001ae919062000616565b6001600160a01b03166366c57dca620001c662000236565b6008546040516001600160e01b031960e085901b16815260048101929092526024820152604401602060405180830381865afa1580156200020b573d6000803e3d6000fd5b505050506040513d601f19601f820116820180604052508101906200023191906200063d565b600955565b6007546040516370a0823160e01b81523060048201526000916001600160a01b0316906370a0823190602401602060405180830381865afa15801562000280573d6000803e3d6000fd5b505050506040513d601f19601f82011682018060405250810190620002a691906200063d565b905090565b6001600160a01b0381168114620002c157600080fd5b50565b634e487b7160e01b600052604160045260246000fd5b604051608081016001600160401b0381118282101715620002ff57620002ff620002c4565b60405290565b604051601f8201601f191681016001600160401b0381118282101715620003305762000330620002c4565b604052919050565b600082601f8301126200034a57600080fd5b81516001600160401b03811115620003665762000366620002c4565b60206200037c601f8301601f1916820162000305565b82815285828487010111156200039157600080fd5b60005b83811015620003b157858101830151828201840152820162000394565b506000928101909101919091529392505050565b600080600080600080868803610120811215620003e157600080fd5b8751620003ee81620002ab565b60208901519097506200040181620002ab565b60408901519096506200041481620002ab565b60608901519095506001600160401b03808211156200043257600080fd5b620004408b838c0162000338565b955060808a01519150808211156200045757600080fd5b50620004668a828b0162000338565b9350506080609f19820112156200047c57600080fd5b5062000487620002da565b60a0880151815260c0880151602082015260e088015160408201526101008801516060820152809150509295509295509295565b600181811c90821680620004d057607f821691505b602082108103620004f157634e487b7160e01b600052602260045260246000fd5b50919050565b601f8211156200054557600081815260208120601f850160051c81016020861015620005205750805b601f850160051c820191505b8181101562000541578281556001016200052c565b5050505b505050565b81516001600160401b03811115620005665762000566620002c4565b6200057e81620005778454620004bb565b84620004f7565b602080601f831160018114620005b657600084156200059d5750858301515b600019600386901b1c1916600185901b17855562000541565b600085815260208120601f198616915b82811015620005e757888601518255948401946001909101908401620005c6565b5085821015620006065787850151600019600388901b60f8161c191681555b5050505050600190811b01905550565b6000602082840312156200062957600080fd5b81516200063681620002ab565b9392505050565b6000602082840312156200065057600080fd5b5051919050565b611c9480620006676000396000f3fe608060405234801561001057600080fd5b506004361061021c5760003560e01c806384bdc9a811610125578063a880e68b116100ad578063e2c674391161007c578063e2c6743914610442578063f2fde38b1461044a578063fbf419841461045d578063fdb8725214610465578063fef0bec81461047857600080fd5b8063a880e68b1461040c578063a9059cbb14610414578063ba1c5e8014610427578063dd62ed3e1461042f57600080fd5b80639dc29fac116100f45780639dc29fac146103b8578063a2258694146103cb578063a457c2d7146103de578063a4b84e0a146103f1578063a663f830146103f957600080fd5b806384bdc9a81461038f5780638da5cb5b1461039757806395d89b41146103a857806397b3fcaa146103b057600080fd5b80633e680e7a116101a85780635c222bad116101775780635c222bad1461031357806365ec41761461033857806370a082311461034b578063715018a61461037457806375d0f29f1461037c57600080fd5b80633e680e7a146102d257806340c10f19146102e55780634a417a53146102f8578063545039c61461030057600080fd5b80631e522b29116101ef5780631e522b291461028057806323b872dd146102885780632806a7431461029b578063313ce567146102b057806339509351146102bf57600080fd5b806306fdde0314610221578063095ea7b31461023f57806314a6bf0f1461026257806318160ddd14610278575b600080fd5b61022961048b565b6040516102369190611969565b60405180910390f35b61025261024d3660046119b1565b61051d565b6040519015158152602001610236565b61026a610537565b604051908152602001610236565b60025461026a565b600b5461026a565b6102526102963660046119dd565b610547565b6102ae6102a9366004611a1e565b61056b565b005b60405160128152602001610236565b6102526102cd3660046119b1565b610578565b61026a6102e0366004611a37565b61059a565b6102ae6102f33660046119b1565b61061f565b61026a6106dd565b6102ae61030e366004611a5b565b6107ca565b6007546001600160a01b03165b6040516001600160a01b039091168152602001610236565b6102ae610346366004611a1e565b6108c6565b61026a610359366004611a37565b6001600160a01b031660009081526020819052604090205490565b6102ae6108d3565b6102ae61038a3660046119b1565b6108e7565b61026a6109ae565b6005546001600160a01b0316610320565b610229610a04565b61026a610a13565b6102ae6103c63660046119b1565b610a2a565b6102ae6103d9366004611a96565b610adb565b6102526103ec3660046119b1565b610bca565b600d5461026a565b6102ae610407366004611a5b565b610c45565b600e5461026a565b6102526104223660046119b1565b610d22565b60095461026a565b61026a61043d366004611acb565b610d30565b61026a610d5b565b6102ae610458366004611a37565b610d65565b600c5461026a565b6102ae6104733660046119b1565b610dde565b6102ae610486366004611a1e565b610e9c565b60606003805461049a90611b04565b80601f01602080910402602001604051908101604052809291908181526020018280546104c690611b04565b80156105135780601f106104e857610100808354040283529160200191610513565b820191906000526020600020905b8154815290600101906020018083116104f657829003601f168201915b5050505050905090565b60003361052b818585610ea9565b60019150505b92915050565b600061054260085490565b905090565b600033610555858285610fcd565b610560858585611041565b506001949350505050565b6105736111e5565b600b55565b60003361052b81858561058b8383610d30565b6105959190611b54565b610ea9565b604051634af0799360e01b81523060048201526001600160a01b038216602482015260009073__$2f7c76ee15bdc1d8f3b34a04b86951fc56$__90634af0799390604401602060405180830381865af41580156105fb573d6000803e3d6000fd5b505050506040513d601f19601f820116820180604052508101906105319190611b67565b600660009054906101000a90046001600160a01b03166001600160a01b031663e7334fe56040518163ffffffff1660e01b8152600401602060405180830381865afa158015610672573d6000803e3d6000fd5b505050506040513d601f19601f820116820180604052508101906106969190611b80565b6001600160a01b0316336001600160a01b0316146106cf5760405162461bcd60e51b81526004016106c690611b9d565b60405180910390fd5b6106d9828261123f565b5050565b6006546040805163292bdab360e11b815290516000926001600160a01b031691635257b5669160048083019260209291908290030181865afa158015610727573d6000803e3d6000fd5b505050506040513d601f19601f8201168201806040525081019061074b9190611b80565b6001600160a01b03166385c963066107616112fe565b6008546040516001600160e01b031960e085901b168152600481019290925260248201526044015b602060405180830381865afa1580156107a6573d6000803e3d6000fd5b505050506040513d601f19601f820116820180604052508101906105429190611b67565b600660009054906101000a90046001600160a01b03166001600160a01b031663e7334fe56040518163ffffffff1660e01b8152600401602060405180830381865afa15801561081d573d6000803e3d6000fd5b505050506040513d601f19601f820116820180604052508101906108419190611b80565b6001600160a01b0316336001600160a01b0316146108715760405162461bcd60e51b81526004016106c690611b9d565b61089484306108808487611b54565b6007546001600160a01b031692919061132f565b6108a06000848461139a565b82600860008282546108b29190611bd4565b909155506108c09050611435565b50505050565b6108ce6111e5565b600e55565b6108db6111e5565b6108e5600061152f565b565b600660009054906101000a90046001600160a01b03166001600160a01b031663e7334fe56040518163ffffffff1660e01b8152600401602060405180830381865afa15801561093a573d6000803e3d6000fd5b505050506040513d601f19601f8201168201806040525081019061095e9190611b80565b6001600160a01b0316336001600160a01b03161461098e5760405162461bcd60e51b81526004016106c690611b9d565b6007546109a6906001600160a01b031683308461132f565b6106d9611435565b600080806109ba6112fe565b6008546109c79190611b54565b11156109ff576109d56112fe565b6008546109e29190611b54565b600854600a546109f29190611be7565b6109fc9190611bfe565b90505b919050565b60606004805461049a90611b04565b6000610a1d6112fe565b6008546105429190611b54565b600660009054906101000a90046001600160a01b03166001600160a01b031663e7334fe56040518163ffffffff1660e01b8152600401602060405180830381865afa158015610a7d573d6000803e3d6000fd5b505050506040513d601f19601f82011682018060405250810190610aa19190611b80565b6001600160a01b0316336001600160a01b031614610ad15760405162461bcd60e51b81526004016106c690611b9d565b6106d98282611581565b600660009054906101000a90046001600160a01b03166001600160a01b031663e7334fe56040518163ffffffff1660e01b8152600401602060405180830381865afa158015610b2e573d6000803e3d6000fd5b505050506040513d601f19601f82011682018060405250810190610b529190611b80565b6001600160a01b0316336001600160a01b031614610b825760405162461bcd60e51b81526004016106c690611b9d565b600754610b99906001600160a01b031684846116b3565b610ba56001838361139a565b8160086000828254610bb79190611b54565b90915550610bc59050611435565b505050565b60003381610bd88286610d30565b905083811015610c385760405162461bcd60e51b815260206004820152602560248201527f45524332303a2064656372656173656420616c6c6f77616e63652062656c6f77604482015264207a65726f60d81b60648201526084016106c6565b6105608286868403610ea9565b600660009054906101000a90046001600160a01b03166001600160a01b031663e7334fe56040518163ffffffff1660e01b8152600401602060405180830381865afa158015610c98573d6000803e3d6000fd5b505050506040513d601f19601f82011682018060405250810190610cbc9190611b80565b6001600160a01b0316336001600160a01b031614610cec5760405162461bcd60e51b81526004016106c690611b9d565b600754610d04906001600160a01b031685308661132f565b610d106000828461139a565b80600860008282546108b29190611bd4565b60003361052b818585611041565b6001600160a01b03918216600090815260016020908152604080832093909416825291909152205490565b60006105426112fe565b610d6d6111e5565b6001600160a01b038116610dd25760405162461bcd60e51b815260206004820152602660248201527f4f776e61626c653a206e6577206f776e657220697320746865207a65726f206160448201526564647265737360d01b60648201526084016106c6565b610ddb8161152f565b50565b600660009054906101000a90046001600160a01b03166001600160a01b031663e7334fe56040518163ffffffff1660e01b8152600401602060405180830381865afa158015610e31573d6000803e3d6000fd5b505050506040513d601f19601f82011682018060405250810190610e559190611b80565b6001600160a01b0316336001600160a01b031614610e855760405162461bcd60e51b81526004016106c690611b9d565b6007546109a6906001600160a01b031683836116b3565b610ea46111e5565b600c55565b6001600160a01b038316610f0b5760405162461bcd60e51b8152602060048201526024808201527f45524332303a20617070726f76652066726f6d20746865207a65726f206164646044820152637265737360e01b60648201526084016106c6565b6001600160a01b038216610f6c5760405162461bcd60e51b815260206004820152602260248201527f45524332303a20617070726f766520746f20746865207a65726f206164647265604482015261737360f01b60648201526084016106c6565b6001600160a01b0383811660008181526001602090815260408083209487168084529482529182902085905590518481527f8c5be1e5ebec7d5bd14f71427d1e84f3dd0314c0f7b2291e5b200ac8c7c3b925910160405180910390a3505050565b6000610fd98484610d30565b905060001981146108c057818110156110345760405162461bcd60e51b815260206004820152601d60248201527f45524332303a20696e73756666696369656e7420616c6c6f77616e636500000060448201526064016106c6565b6108c08484848403610ea9565b6001600160a01b0383166110a55760405162461bcd60e51b815260206004820152602560248201527f45524332303a207472616e736665722066726f6d20746865207a65726f206164604482015264647265737360d81b60648201526084016106c6565b6001600160a01b0382166111075760405162461bcd60e51b815260206004820152602360248201527f45524332303a207472616e7366657220746f20746865207a65726f206164647260448201526265737360e81b60648201526084016106c6565b6001600160a01b0383166000908152602081905260409020548181101561117f5760405162461bcd60e51b815260206004820152602660248201527f45524332303a207472616e7366657220616d6f756e7420657863656564732062604482015265616c616e636560d01b60648201526084016106c6565b6001600160a01b03848116600081815260208181526040808320878703905593871680835291849020805487019055925185815290927fddf252ad1be2c89b69c2b068fc378daa952ba7f163c4a11628f55a4df523b3ef910160405180910390a36108c0565b6005546001600160a01b031633146108e55760405162461bcd60e51b815260206004820181905260248201527f4f776e61626c653a2063616c6c6572206973206e6f7420746865206f776e657260448201526064016106c6565b6001600160a01b0382166112955760405162461bcd60e51b815260206004820152601f60248201527f45524332303a206d696e7420746f20746865207a65726f20616464726573730060448201526064016106c6565b80600260008282546112a79190611b54565b90915550506001600160a01b038216600081815260208181526040808320805486019055518481527fddf252ad1be2c89b69c2b068fc378daa952ba7f163c4a11628f55a4df523b3ef910160405180910390a35050565b6007546040516370a0823160e01b81523060048201526000916001600160a01b0316906370a0823190602401610789565b6040516001600160a01b03808516602483015283166044820152606481018290526108c09085906323b872dd60e01b906084015b60408051601f198184030181529190526020810180516001600160e01b03166001600160e01b0319909316929092179091526116e3565b82156113e457816008546113ae9190611b54565b6113b88284611be7565b600a546008546113c89190611be7565b6113d29190611b54565b6113dc9190611bfe565b600a55505050565b816008546113f29190611bd4565b600003611403576000600a55505050565b816008546114119190611bd4565b61141b8284611be7565b600a5460085461142b9190611be7565b6113d29190611bd4565b600660009054906101000a90046001600160a01b03166001600160a01b0316635257b5666040518163ffffffff1660e01b8152600401602060405180830381865afa158015611488573d6000803e3d6000fd5b505050506040513d601f19601f820116820180604052508101906114ac9190611b80565b6001600160a01b03166366c57dca6114c26112fe565b6008546040516001600160e01b031960e085901b16815260048101929092526024820152604401602060405180830381865afa158015611506573d6000803e3d6000fd5b505050506040513d601f19601f8201168201806040525081019061152a9190611b67565b600955565b600580546001600160a01b038381166001600160a01b0319831681179093556040519116919082907f8be0079c531659141344cd1fd0a4f28419497f9722a3daafe3b4186f6b6457e090600090a35050565b6001600160a01b0382166115e15760405162461bcd60e51b815260206004820152602160248201527f45524332303a206275726e2066726f6d20746865207a65726f206164647265736044820152607360f81b60648201526084016106c6565b6001600160a01b038216600090815260208190526040902054818110156116555760405162461bcd60e51b815260206004820152602260248201527f45524332303a206275726e20616d6f756e7420657863656564732062616c616e604482015261636560f01b60648201526084016106c6565b6001600160a01b0383166000818152602081815260408083208686039055600280548790039055518581529192917fddf252ad1be2c89b69c2b068fc378daa952ba7f163c4a11628f55a4df523b3ef910160405180910390a3505050565b6040516001600160a01b038316602482015260448101829052610bc590849063a9059cbb60e01b90606401611363565b6000611738826040518060400160405280602081526020017f5361666545524332303a206c6f772d6c6576656c2063616c6c206661696c6564815250856001600160a01b03166117b59092919063ffffffff16565b805190915015610bc557808060200190518101906117569190611c20565b610bc55760405162461bcd60e51b815260206004820152602a60248201527f5361666545524332303a204552433230206f7065726174696f6e20646964206e6044820152691bdd081cdd58d8d9595960b21b60648201526084016106c6565b60606117c484846000856117cc565b949350505050565b60608247101561182d5760405162461bcd60e51b815260206004820152602660248201527f416464726573733a20696e73756666696369656e742062616c616e636520666f6044820152651c8818d85b1b60d21b60648201526084016106c6565b600080866001600160a01b031685876040516118499190611c42565b60006040518083038185875af1925050503d8060008114611886576040519150601f19603f3d011682016040523d82523d6000602084013e61188b565b606091505b509150915061189c878383876118a7565b979650505050505050565b6060831561191657825160000361190f576001600160a01b0385163b61190f5760405162461bcd60e51b815260206004820152601d60248201527f416464726573733a2063616c6c20746f206e6f6e2d636f6e747261637400000060448201526064016106c6565b50816117c4565b6117c4838381511561192b5781518083602001fd5b8060405162461bcd60e51b81526004016106c69190611969565b60005b83811015611960578181015183820152602001611948565b50506000910152565b6020815260008251806020840152611988816040850160208701611945565b601f01601f19169190910160400192915050565b6001600160a01b0381168114610ddb57600080fd5b600080604083850312156119c457600080fd5b82356119cf8161199c565b946020939093013593505050565b6000806000606084860312156119f257600080fd5b83356119fd8161199c565b92506020840135611a0d8161199c565b929592945050506040919091013590565b600060208284031215611a3057600080fd5b5035919050565b600060208284031215611a4957600080fd5b8135611a548161199c565b9392505050565b60008060008060808587031215611a7157600080fd5b8435611a7c8161199c565b966020860135965060408601359560600135945092505050565b600080600060608486031215611aab57600080fd5b8335611ab68161199c565b95602085013595506040909401359392505050565b60008060408385031215611ade57600080fd5b8235611ae98161199c565b91506020830135611af98161199c565b809150509250929050565b600181811c90821680611b1857607f821691505b602082108103611b3857634e487b7160e01b600052602260045260246000fd5b50919050565b634e487b7160e01b600052601160045260246000fd5b8082018082111561053157610531611b3e565b600060208284031215611b7957600080fd5b5051919050565b600060208284031215611b9257600080fd5b8151611a548161199c565b6020808252601f908201527f43616c6c657273206d757374206265204d61726b657420636f6e747261637400604082015260600190565b8181038181111561053157610531611b3e565b808202811582820484141761053157610531611b3e565b600082611c1b57634e487b7160e01b600052601260045260246000fd5b500490565b600060208284031215611c3257600080fd5b81518015158114611a5457600080fd5b60008251611c54818460208701611945565b919091019291505056fea2646970667358221220940fd971d9846a520a1360f02417e3e8b85e5c3bc3db551eaacc12d9cabf386f64736f6c63430008110033",
  "linkReferences": {
    "contracts/libraries/logic/SupplyLogic.sol": {
      "SupplyLogic": [
        {
          "length": 20,
          "start": 3112
        }
      ]
    }
  },
  "deployedLinkReferences": {
    "contracts/libraries/logic/SupplyLogic.sol": {
      "SupplyLogic": [
        {
          "length": 20,
          "start": 1473
        }
      ]
    }
  }
}