{
  "_format": "hh-sol-artifact-1",
  "contractName": "Reserve",
  "sourceName": "contracts/protocol/Reserve.sol",
  "abi": [
    {
      "anonymous": false,
      "inputs": [
        {
          "indexed": true,
          "internalType": "address",
          "name": "owner",
          "type": "address"
        },
        {
          "indexed": true,
          "internalType": "address",
          "name": "spender",
          "type": "address"
        },
        {
          "indexed": false,
          "internalType": "uint256",
          "name": "value",
          "type": "uint256"
        }
      ],
      "name": "Approval",
      "type": "event"
    },
    {
      "anonymous": false,
      "inputs": [
        {
          "indexed": false,
          "internalType": "uint8",
          "name": "version",
          "type": "uint8"
        }
      ],
      "name": "Initialized",
      "type": "event"
    },
    {
      "anonymous": false,
      "inputs": [
        {
          "indexed": true,
          "internalType": "address",
          "name": "previousOwner",
          "type": "address"
        },
        {
          "indexed": true,
          "internalType": "address",
          "name": "newOwner",
          "type": "address"
        }
      ],
      "name": "OwnershipTransferred",
      "type": "event"
    },
    {
      "anonymous": false,
      "inputs": [
        {
          "indexed": true,
          "internalType": "address",
          "name": "from",
          "type": "address"
        },
        {
          "indexed": true,
          "internalType": "address",
          "name": "to",
          "type": "address"
        },
        {
          "indexed": false,
          "internalType": "uint256",
          "name": "value",
          "type": "uint256"
        }
      ],
      "name": "Transfer",
      "type": "event"
    },
    {
      "inputs": [
        {
          "internalType": "address",
          "name": "owner",
          "type": "address"
        },
        {
          "internalType": "address",
          "name": "spender",
          "type": "address"
        }
      ],
      "name": "allowance",
      "outputs": [
        {
          "internalType": "uint256",
          "name": "",
          "type": "uint256"
        }
      ],
      "stateMutability": "view",
      "type": "function"
    },
    {
      "inputs": [
        {
          "internalType": "address",
          "name": "spender",
          "type": "address"
        },
        {
          "internalType": "uint256",
          "name": "amount",
          "type": "uint256"
        }
      ],
      "name": "approve",
      "outputs": [
        {
          "internalType": "bool",
          "name": "",
          "type": "bool"
        }
      ],
      "stateMutability": "nonpayable",
      "type": "function"
    },
    {
      "inputs": [
        {
          "internalType": "address",
          "name": "account",
          "type": "address"
        }
      ],
      "name": "balanceOf",
      "outputs": [
        {
          "internalType": "uint256",
          "name": "",
          "type": "uint256"
        }
      ],
      "stateMutability": "view",
      "type": "function"
    },
    {
      "inputs": [
        {
          "internalType": "address",
          "name": "user",
          "type": "address"
        },
        {
          "internalType": "uint256",
          "name": "amount",
          "type": "uint256"
        }
      ],
      "name": "burn",
      "outputs": [],
      "stateMutability": "nonpayable",
      "type": "function"
    },
    {
      "inputs": [
        {
          "internalType": "uint256",
          "name": "liquidationPenalty",
          "type": "uint256"
        }
      ],
      "name": "changeLiquidationPenalty",
      "outputs": [],
      "stateMutability": "nonpayable",
      "type": "function"
    },
    {
      "inputs": [
        {
          "internalType": "uint256",
          "name": "protocolLiquidationFee",
          "type": "uint256"
        }
      ],
      "name": "changeProtocolLiquidationFee",
      "outputs": [],
      "stateMutability": "nonpayable",
      "type": "function"
    },
    {
      "inputs": [],
      "name": "decimals",
      "outputs": [
        {
          "internalType": "uint8",
          "name": "",
          "type": "uint8"
        }
      ],
      "stateMutability": "view",
      "type": "function"
    },
    {
      "inputs": [
        {
          "internalType": "address",
          "name": "spender",
          "type": "address"
        },
        {
          "internalType": "uint256",
          "name": "subtractedValue",
          "type": "uint256"
        }
      ],
      "name": "decreaseAllowance",
      "outputs": [
        {
          "internalType": "bool",
          "name": "",
          "type": "bool"
        }
      ],
      "stateMutability": "nonpayable",
      "type": "function"
    },
    {
      "inputs": [
        {
          "internalType": "address",
          "name": "depositor",
          "type": "address"
        },
        {
          "internalType": "uint256",
          "name": "amount",
          "type": "uint256"
        }
      ],
      "name": "depositUnderlying",
      "outputs": [],
      "stateMutability": "nonpayable",
      "type": "function"
    },
    {
      "inputs": [],
      "name": "getAsset",
      "outputs": [
        {
          "internalType": "address",
          "name": "",
          "type": "address"
        }
      ],
      "stateMutability": "view",
      "type": "function"
    },
    {
      "inputs": [],
      "name": "getBorrowRate",
      "outputs": [
        {
          "internalType": "uint256",
          "name": "",
          "type": "uint256"
        }
      ],
      "stateMutability": "view",
      "type": "function"
    },
    {
      "inputs": [],
      "name": "getDebt",
      "outputs": [
        {
          "internalType": "uint256",
          "name": "",
          "type": "uint256"
        }
      ],
      "stateMutability": "view",
      "type": "function"
    },
    {
      "inputs": [],
      "name": "getLiquidationPenalty",
      "outputs": [
        {
          "internalType": "uint256",
          "name": "",
          "type": "uint256"
        }
      ],
      "stateMutability": "view",
      "type": "function"
    },
    {
      "inputs": [],
      "name": "getMaximumUtilizationRate",
      "outputs": [
        {
          "internalType": "uint256",
          "name": "",
          "type": "uint256"
        }
      ],
      "stateMutability": "view",
      "type": "function"
    },
    {
      "inputs": [
        {
          "internalType": "address",
          "name": "to",
          "type": "address"
        }
      ],
      "name": "getMaximumWithdrawalAmount",
      "outputs": [
        {
          "internalType": "uint256",
          "name": "",
          "type": "uint256"
        }
      ],
      "stateMutability": "view",
      "type": "function"
    },
    {
      "inputs": [],
      "name": "getProtocolLiquidationFee",
      "outputs": [
        {
          "internalType": "uint256",
          "name": "",
          "type": "uint256"
        }
      ],
      "stateMutability": "view",
      "type": "function"
    },
    {
      "inputs": [],
      "name": "getSupplyRate",
      "outputs": [
        {
          "internalType": "uint256",
          "name": "",
          "type": "uint256"
        }
      ],
      "stateMutability": "view",
      "type": "function"
    },
    {
      "inputs": [],
      "name": "getUnderlyingBalance",
      "outputs": [
        {
          "internalType": "uint256",
          "name": "",
          "type": "uint256"
        }
      ],
      "stateMutability": "view",
      "type": "function"
    },
    {
      "inputs": [],
      "name": "getUtilizationRate",
      "outputs": [
        {
          "internalType": "uint256",
          "name": "",
          "type": "uint256"
        }
      ],
      "stateMutability": "view",
      "type": "function"
    },
    {
      "inputs": [
        {
          "internalType": "address",
          "name": "spender",
          "type": "address"
        },
        {
          "internalType": "uint256",
          "name": "addedValue",
          "type": "uint256"
        }
      ],
      "name": "increaseAllowance",
      "outputs": [
        {
          "internalType": "bool",
          "name": "",
          "type": "bool"
        }
      ],
      "stateMutability": "nonpayable",
      "type": "function"
    },
    {
      "inputs": [
        {
          "internalType": "contract IMarketAddressesProvider",
          "name": "addressProvider",
          "type": "address"
        },
        {
          "internalType": "address",
          "name": "asset",
          "type": "address"
        },
        {
          "internalType": "string",
          "name": "name",
          "type": "string"
        },
        {
          "internalType": "string",
          "name": "symbol",
          "type": "string"
        },
        {
          "internalType": "uint256",
          "name": "liquidationPenalty",
          "type": "uint256"
        },
        {
          "internalType": "uint256",
          "name": "maximumUtilizationRate",
          "type": "uint256"
        },
        {
          "internalType": "uint256",
          "name": "protocolLiquidationFee",
          "type": "uint256"
        }
      ],
      "name": "initialize",
      "outputs": [],
      "stateMutability": "nonpayable",
      "type": "function"
    },
    {
      "inputs": [
        {
          "internalType": "address",
          "name": "user",
          "type": "address"
        },
        {
          "internalType": "uint256",
          "name": "amount",
          "type": "uint256"
        }
      ],
      "name": "mint",
      "outputs": [],
      "stateMutability": "nonpayable",
      "type": "function"
    },
    {
      "inputs": [],
      "name": "name",
      "outputs": [
        {
          "internalType": "string",
          "name": "",
          "type": "string"
        }
      ],
      "stateMutability": "view",
      "type": "function"
    },
    {
      "inputs": [],
      "name": "owner",
      "outputs": [
        {
          "internalType": "address",
          "name": "",
          "type": "address"
        }
      ],
      "stateMutability": "view",
      "type": "function"
    },
    {
      "inputs": [
        {
          "internalType": "address",
          "name": "from",
          "type": "address"
        },
        {
          "internalType": "uint256",
          "name": "amount",
          "type": "uint256"
        },
        {
          "internalType": "uint256",
          "name": "borrowRate",
          "type": "uint256"
        },
        {
          "internalType": "uint256",
          "name": "interest",
          "type": "uint256"
        }
      ],
      "name": "receiveUnderlying",
      "outputs": [],
      "stateMutability": "nonpayable",
      "type": "function"
    },
    {
      "inputs": [
        {
          "internalType": "address",
          "name": "from",
          "type": "address"
        },
        {
          "internalType": "uint256",
          "name": "amount",
          "type": "uint256"
        },
        {
          "internalType": "uint256",
          "name": "borrowRate",
          "type": "uint256"
        },
        {
          "internalType": "uint256",
          "name": "defaultedDebt",
          "type": "uint256"
        }
      ],
      "name": "receiveUnderlyingDefaulted",
      "outputs": [],
      "stateMutability": "nonpayable",
      "type": "function"
    },
    {
      "inputs": [],
      "name": "renounceOwnership",
      "outputs": [],
      "stateMutability": "nonpayable",
      "type": "function"
    },
    {
      "inputs": [],
      "name": "symbol",
      "outputs": [
        {
          "internalType": "string",
          "name": "",
          "type": "string"
        }
      ],
      "stateMutability": "view",
      "type": "function"
    },
    {
      "inputs": [],
      "name": "totalSupply",
      "outputs": [
        {
          "internalType": "uint256",
          "name": "",
          "type": "uint256"
        }
      ],
      "stateMutability": "view",
      "type": "function"
    },
    {
      "inputs": [
        {
          "internalType": "address",
          "name": "to",
          "type": "address"
        },
        {
          "internalType": "uint256",
          "name": "amount",
          "type": "uint256"
        }
      ],
      "name": "transfer",
      "outputs": [
        {
          "internalType": "bool",
          "name": "",
          "type": "bool"
        }
      ],
      "stateMutability": "nonpayable",
      "type": "function"
    },
    {
      "inputs": [
        {
          "internalType": "address",
          "name": "from",
          "type": "address"
        },
        {
          "internalType": "address",
          "name": "to",
          "type": "address"
        },
        {
          "internalType": "uint256",
          "name": "amount",
          "type": "uint256"
        }
      ],
      "name": "transferFrom",
      "outputs": [
        {
          "internalType": "bool",
          "name": "",
          "type": "bool"
        }
      ],
      "stateMutability": "nonpayable",
      "type": "function"
    },
    {
      "inputs": [
        {
          "internalType": "address",
          "name": "newOwner",
          "type": "address"
        }
      ],
      "name": "transferOwnership",
      "outputs": [],
      "stateMutability": "nonpayable",
      "type": "function"
    },
    {
      "inputs": [
        {
          "internalType": "address",
          "name": "to",
          "type": "address"
        },
        {
          "internalType": "uint256",
          "name": "amount",
          "type": "uint256"
        },
        {
          "internalType": "uint256",
          "name": "borrowRate",
          "type": "uint256"
        }
      ],
      "name": "transferUnderlying",
      "outputs": [],
      "stateMutability": "nonpayable",
      "type": "function"
    },
    {
      "inputs": [
        {
          "internalType": "address",
          "name": "to",
          "type": "address"
        },
        {
          "internalType": "uint256",
          "name": "amount",
          "type": "uint256"
        }
      ],
      "name": "withdrawUnderlying",
      "outputs": [],
      "stateMutability": "nonpayable",
      "type": "function"
    }
  ],
  "bytecode": "0x608060405234801561001057600080fd5b5061418b806100206000396000f3fe608060405234801561001057600080fd5b50600436106102065760003560e01c806375d0f29f1161011a578063a4b84e0a116100ad578063c65fef8b1161007c578063c65fef8b146105cb578063dd62ed3e146105e7578063e2c6743914610617578063f2fde38b14610635578063fdb872521461065157610206565b8063a4b84e0a14610543578063a663f83014610561578063a9059cbb1461057d578063ba1c5e80146105ad57610206565b806395d89b41116100e957806395d89b41146104bd5780639dc29fac146104db578063a2258694146104f7578063a457c2d71461051357610206565b806375d0f29f1461044757806384bdc9a8146104635780638da5cb5b14610481578063900b6f821461049f57610206565b8063395093511161019d578063545039c61161016c578063545039c6146103b75780635c222bad146103d35780636c3c7c4e146103f157806370a082311461040d578063715018a61461043d57610206565b8063395093511461031d5780633e680e7a1461034d57806340c10f191461037d5780634a417a531461039957610206565b80631e522b29116101d95780631e522b291461029557806323b872dd146102b35780632a97d8a6146102e3578063313ce567146102ff57610206565b806306fdde031461020b578063095ea7b31461022957806314a6bf0f1461025957806318160ddd14610277575b600080fd5b61021361066d565b6040516102209190612c10565b60405180910390f35b610243600480360381019061023e9190612cd0565b6106ff565b6040516102509190612d2b565b60405180910390f35b610261610722565b60405161026e9190612d55565b60405180910390f35b61027f610731565b60405161028c9190612d55565b60405180910390f35b61029d61073b565b6040516102aa9190612d55565b60405180910390f35b6102cd60048036038101906102c89190612d70565b610745565b6040516102da9190612d2b565b60405180910390f35b6102fd60048036038101906102f89190612dc3565b610774565b005b6103076107fa565b6040516103149190612e0c565b60405180910390f35b61033760048036038101906103329190612cd0565b610803565b6040516103449190612d2b565b60405180910390f35b61036760048036038101906103629190612e27565b61083a565b6040516103749190612d55565b60405180910390f35b61039760048036038101906103929190612cd0565b6108bd565b005b6103a16109d0565b6040516103ae9190612d55565b60405180910390f35b6103d160048036038101906103cc9190612e54565b610af1565b005b6103db610c83565b6040516103e89190612eca565b60405180910390f35b61040b60048036038101906104069190612dc3565b610cad565b005b61042760048036038101906104229190612e27565b610d33565b6040516104349190612d55565b60405180910390f35b610445610d7c565b005b610461600480360381019061045c9190612cd0565b610e04565b005b61046b610f64565b6040516104789190612d55565b60405180910390f35b610489610fc1565b6040516104969190612eca565b60405180910390f35b6104a7610feb565b6040516104b49190612d55565b60405180910390f35b6104c5610ff5565b6040516104d29190612c10565b60405180910390f35b6104f560048036038101906104f09190612cd0565b611087565b005b610511600480360381019061050c9190612ee5565b61119a565b005b61052d60048036038101906105289190612cd0565b61131e565b60405161053a9190612d2b565b60405180910390f35b61054b611395565b6040516105589190612d55565b60405180910390f35b61057b60048036038101906105769190612e54565b61139f565b005b61059760048036038101906105929190612cd0565b611526565b6040516105a49190612d2b565b60405180910390f35b6105b5611549565b6040516105c29190612d55565b60405180910390f35b6105e560048036038101906105e09190612fdb565b611553565b005b61060160048036038101906105fc91906130bd565b611719565b60405161060e9190612d55565b60405180910390f35b61061f6117a0565b60405161062c9190612d55565b60405180910390f35b61064f600480360381019061064a9190612e27565b6117af565b005b61066b60048036038101906106669190612cd0565b6118a6565b005b60606036805461067c9061312c565b80601f01602080910402602001604051908101604052809291908181526020018280546106a89061312c565b80156106f55780601f106106ca576101008083540402835291602001916106f5565b820191906000526020600020905b8154815290600101906020018083116106d857829003601f168201915b5050505050905090565b60008061070a611a04565b9050610717818585611a0c565b600191505092915050565b600061072c611bd5565b905090565b6000603554905090565b6000609c54905090565b600080610750611a04565b905061075d858285611bdf565b610768858585611c6b565b60019150509392505050565b61077c611a04565b73ffffffffffffffffffffffffffffffffffffffff1661079a610fc1565b73ffffffffffffffffffffffffffffffffffffffff16146107f0576040517f08c379a00000000000000000000000000000000000000000000000000000000081526004016107e7906131a9565b60405180910390fd5b80609c8190555050565b60006012905090565b60008061080e611a04565b905061082f8185856108208589611719565b61082a91906131f8565b611a0c565b600191505092915050565b600073__$2f7c76ee15bdc1d8f3b34a04b86951fc56$__634af0799330846040518363ffffffff1660e01b815260040161087592919061325d565b602060405180830381865af4158015610892573d6000803e3d6000fd5b505050506040513d601f19601f820116820180604052508101906108b6919061329b565b9050919050565b609760009054906101000a900473ffffffffffffffffffffffffffffffffffffffff1673ffffffffffffffffffffffffffffffffffffffff1663e7334fe56040518163ffffffff1660e01b8152600401602060405180830381865afa15801561092a573d6000803e3d6000fd5b505050506040513d601f19601f8201168201806040525081019061094e91906132dd565b73ffffffffffffffffffffffffffffffffffffffff1661096c611a04565b73ffffffffffffffffffffffffffffffffffffffff16146109c2576040517f08c379a00000000000000000000000000000000000000000000000000000000081526004016109b990613356565b60405180910390fd5b6109cc8282611eed565b5050565b6000609760009054906101000a900473ffffffffffffffffffffffffffffffffffffffff1673ffffffffffffffffffffffffffffffffffffffff16635257b5666040518163ffffffff1660e01b8152600401602060405180830381865afa158015610a3f573d6000803e3d6000fd5b505050506040513d601f19601f82011682018060405250810190610a6391906132dd565b73ffffffffffffffffffffffffffffffffffffffff166385c96306610a8661204d565b610a8e611bd5565b6040518363ffffffff1660e01b8152600401610aab929190613376565b602060405180830381865afa158015610ac8573d6000803e3d6000fd5b505050506040513d601f19601f82011682018060405250810190610aec919061329b565b905090565b609760009054906101000a900473ffffffffffffffffffffffffffffffffffffffff1673ffffffffffffffffffffffffffffffffffffffff1663e7334fe56040518163ffffffff1660e01b8152600401602060405180830381865afa158015610b5e573d6000803e3d6000fd5b505050506040513d601f19601f82011682018060405250810190610b8291906132dd565b73ffffffffffffffffffffffffffffffffffffffff16610ba0611a04565b73ffffffffffffffffffffffffffffffffffffffff1614610bf6576040517f08c379a0000000000000000000000000000000000000000000000000000000008152600401610bed90613356565b60405180910390fd5b610c5084308386610c0791906131f8565b609860009054906101000a900473ffffffffffffffffffffffffffffffffffffffff1673ffffffffffffffffffffffffffffffffffffffff166120f0909392919063ffffffff16565b610c5c60008484612179565b8260996000828254610c6e919061339f565b92505081905550610c7d612235565b50505050565b6000609860009054906101000a900473ffffffffffffffffffffffffffffffffffffffff16905090565b610cb5611a04565b73ffffffffffffffffffffffffffffffffffffffff16610cd3610fc1565b73ffffffffffffffffffffffffffffffffffffffff1614610d29576040517f08c379a0000000000000000000000000000000000000000000000000000000008152600401610d20906131a9565b60405180910390fd5b80609d8190555050565b6000603360008373ffffffffffffffffffffffffffffffffffffffff1673ffffffffffffffffffffffffffffffffffffffff168152602001908152602001600020549050919050565b610d84611a04565b73ffffffffffffffffffffffffffffffffffffffff16610da2610fc1565b73ffffffffffffffffffffffffffffffffffffffff1614610df8576040517f08c379a0000000000000000000000000000000000000000000000000000000008152600401610def906131a9565b60405180910390fd5b610e026000612352565b565b609760009054906101000a900473ffffffffffffffffffffffffffffffffffffffff1673ffffffffffffffffffffffffffffffffffffffff1663e7334fe56040518163ffffffff1660e01b8152600401602060405180830381865afa158015610e71573d6000803e3d6000fd5b505050506040513d601f19601f82011682018060405250810190610e9591906132dd565b73ffffffffffffffffffffffffffffffffffffffff16610eb3611a04565b73ffffffffffffffffffffffffffffffffffffffff1614610f09576040517f08c379a0000000000000000000000000000000000000000000000000000000008152600401610f0090613356565b60405180910390fd5b610f58823083609860009054906101000a900473ffffffffffffffffffffffffffffffffffffffff1673ffffffffffffffffffffffffffffffffffffffff166120f0909392919063ffffffff16565b610f60612235565b5050565b600080600090506000610f7561204d565b609954610f8291906131f8565b1115610fba57610f9061204d565b609954610f9d91906131f8565b609954609b54610fad91906133d3565b610fb7919061345c565b90505b8091505090565b6000606560009054906101000a900473ffffffffffffffffffffffffffffffffffffffff16905090565b6000609d54905090565b6060603780546110049061312c565b80601f01602080910402602001604051908101604052809291908181526020018280546110309061312c565b801561107d5780601f106110525761010080835404028352916020019161107d565b820191906000526020600020905b81548152906001019060200180831161106057829003601f168201915b5050505050905090565b609760009054906101000a900473ffffffffffffffffffffffffffffffffffffffff1673ffffffffffffffffffffffffffffffffffffffff1663e7334fe56040518163ffffffff1660e01b8152600401602060405180830381865afa1580156110f4573d6000803e3d6000fd5b505050506040513d601f19601f8201168201806040525081019061111891906132dd565b73ffffffffffffffffffffffffffffffffffffffff16611136611a04565b73ffffffffffffffffffffffffffffffffffffffff161461118c576040517f08c379a000000000000000000000000000000000000000000000000000000000815260040161118390613356565b60405180910390fd5b6111968282612418565b5050565b609760009054906101000a900473ffffffffffffffffffffffffffffffffffffffff1673ffffffffffffffffffffffffffffffffffffffff1663e7334fe56040518163ffffffff1660e01b8152600401602060405180830381865afa158015611207573d6000803e3d6000fd5b505050506040513d601f19601f8201168201806040525081019061122b91906132dd565b73ffffffffffffffffffffffffffffffffffffffff16611249611a04565b73ffffffffffffffffffffffffffffffffffffffff161461129f576040517f08c379a000000000000000000000000000000000000000000000000000000000815260040161129690613356565b60405180910390fd5b6112ec8383609860009054906101000a900473ffffffffffffffffffffffffffffffffffffffff1673ffffffffffffffffffffffffffffffffffffffff166125f09092919063ffffffff16565b6112f860018383612179565b816099600082825461130a91906131f8565b92505081905550611319612235565b505050565b600080611329611a04565b905060006113378286611719565b90508381101561137c576040517f08c379a0000000000000000000000000000000000000000000000000000000008152600401611373906134ff565b60405180910390fd5b6113898286868403611a0c565b60019250505092915050565b6000609e54905090565b609760009054906101000a900473ffffffffffffffffffffffffffffffffffffffff1673ffffffffffffffffffffffffffffffffffffffff1663e7334fe56040518163ffffffff1660e01b8152600401602060405180830381865afa15801561140c573d6000803e3d6000fd5b505050506040513d601f19601f8201168201806040525081019061143091906132dd565b73ffffffffffffffffffffffffffffffffffffffff1661144e611a04565b73ffffffffffffffffffffffffffffffffffffffff16146114a4576040517f08c379a000000000000000000000000000000000000000000000000000000000815260040161149b90613356565b60405180910390fd5b6114f3843085609860009054906101000a900473ffffffffffffffffffffffffffffffffffffffff1673ffffffffffffffffffffffffffffffffffffffff166120f0909392919063ffffffff16565b6114ff60008284612179565b8060996000828254611511919061339f565b92505081905550611520612235565b50505050565b600080611531611a04565b905061153e818585611c6b565b600191505092915050565b6000609a54905090565b600061155f6001612676565b90508015611583576001600060016101000a81548160ff0219169083151502179055505b61158b612766565b61161d88888080601f016020809104026020016040519081016040528093929190818152602001838380828437600081840152601f19601f8201169050808301925050505050505087878080601f016020809104026020016040519081016040528093929190818152602001838380828437600081840152601f19601f820116905080830192505050505050506127bf565b89609760006101000a81548173ffffffffffffffffffffffffffffffffffffffff021916908373ffffffffffffffffffffffffffffffffffffffff16021790555088609860006101000a81548173ffffffffffffffffffffffffffffffffffffffff021916908373ffffffffffffffffffffffffffffffffffffffff16021790555083609c8190555082609e8190555081609d81905550801561170d5760008060016101000a81548160ff0219169083151502179055507f7f26b83ff96e1f2b6a682f133852f6798a09c465da95921460cefb384740249860016040516117049190613564565b60405180910390a15b50505050505050505050565b6000603460008473ffffffffffffffffffffffffffffffffffffffff1673ffffffffffffffffffffffffffffffffffffffff16815260200190815260200160002060008373ffffffffffffffffffffffffffffffffffffffff1673ffffffffffffffffffffffffffffffffffffffff16815260200190815260200160002054905092915050565b60006117aa61204d565b905090565b6117b7611a04565b73ffffffffffffffffffffffffffffffffffffffff166117d5610fc1565b73ffffffffffffffffffffffffffffffffffffffff161461182b576040517f08c379a0000000000000000000000000000000000000000000000000000000008152600401611822906131a9565b60405180910390fd5b600073ffffffffffffffffffffffffffffffffffffffff168173ffffffffffffffffffffffffffffffffffffffff160361189a576040517f08c379a0000000000000000000000000000000000000000000000000000000008152600401611891906135f1565b60405180910390fd5b6118a381612352565b50565b609760009054906101000a900473ffffffffffffffffffffffffffffffffffffffff1673ffffffffffffffffffffffffffffffffffffffff1663e7334fe56040518163ffffffff1660e01b8152600401602060405180830381865afa158015611913573d6000803e3d6000fd5b505050506040513d601f19601f8201168201806040525081019061193791906132dd565b73ffffffffffffffffffffffffffffffffffffffff16611955611a04565b73ffffffffffffffffffffffffffffffffffffffff16146119ab576040517f08c379a00000000000000000000000000000000000000000000000000000000081526004016119a290613356565b60405180910390fd5b6119f88282609860009054906101000a900473ffffffffffffffffffffffffffffffffffffffff1673ffffffffffffffffffffffffffffffffffffffff166125f09092919063ffffffff16565b611a00612235565b5050565b600033905090565b600073ffffffffffffffffffffffffffffffffffffffff168373ffffffffffffffffffffffffffffffffffffffff1603611a7b576040517f08c379a0000000000000000000000000000000000000000000000000000000008152600401611a7290613683565b60405180910390fd5b600073ffffffffffffffffffffffffffffffffffffffff168273ffffffffffffffffffffffffffffffffffffffff1603611aea576040517f08c379a0000000000000000000000000000000000000000000000000000000008152600401611ae190613715565b60405180910390fd5b80603460008573ffffffffffffffffffffffffffffffffffffffff1673ffffffffffffffffffffffffffffffffffffffff16815260200190815260200160002060008473ffffffffffffffffffffffffffffffffffffffff1673ffffffffffffffffffffffffffffffffffffffff168152602001908152602001600020819055508173ffffffffffffffffffffffffffffffffffffffff168373ffffffffffffffffffffffffffffffffffffffff167f8c5be1e5ebec7d5bd14f71427d1e84f3dd0314c0f7b2291e5b200ac8c7c3b92583604051611bc89190612d55565b60405180910390a3505050565b6000609954905090565b6000611beb8484611719565b90507fffffffffffffffffffffffffffffffffffffffffffffffffffffffffffffffff8114611c655781811015611c57576040517f08c379a0000000000000000000000000000000000000000000000000000000008152600401611c4e90613781565b60405180910390fd5b611c648484848403611a0c565b5b50505050565b600073ffffffffffffffffffffffffffffffffffffffff168373ffffffffffffffffffffffffffffffffffffffff1603611cda576040517f08c379a0000000000000000000000000000000000000000000000000000000008152600401611cd190613813565b60405180910390fd5b600073ffffffffffffffffffffffffffffffffffffffff168273ffffffffffffffffffffffffffffffffffffffff1603611d49576040517f08c379a0000000000000000000000000000000000000000000000000000000008152600401611d40906138a5565b60405180910390fd5b611d5483838361281c565b6000603360008573ffffffffffffffffffffffffffffffffffffffff1673ffffffffffffffffffffffffffffffffffffffff16815260200190815260200160002054905081811015611ddb576040517f08c379a0000000000000000000000000000000000000000000000000000000008152600401611dd290613937565b60405180910390fd5b818103603360008673ffffffffffffffffffffffffffffffffffffffff1673ffffffffffffffffffffffffffffffffffffffff1681526020019081526020016000208190555081603360008573ffffffffffffffffffffffffffffffffffffffff1673ffffffffffffffffffffffffffffffffffffffff1681526020019081526020016000206000828254611e7091906131f8565b925050819055508273ffffffffffffffffffffffffffffffffffffffff168473ffffffffffffffffffffffffffffffffffffffff167fddf252ad1be2c89b69c2b068fc378daa952ba7f163c4a11628f55a4df523b3ef84604051611ed49190612d55565b60405180910390a3611ee7848484612821565b50505050565b600073ffffffffffffffffffffffffffffffffffffffff168273ffffffffffffffffffffffffffffffffffffffff1603611f5c576040517f08c379a0000000000000000000000000000000000000000000000000000000008152600401611f53906139a3565b60405180910390fd5b611f686000838361281c565b8060356000828254611f7a91906131f8565b9250508190555080603360008473ffffffffffffffffffffffffffffffffffffffff1673ffffffffffffffffffffffffffffffffffffffff1681526020019081526020016000206000828254611fd091906131f8565b925050819055508173ffffffffffffffffffffffffffffffffffffffff16600073ffffffffffffffffffffffffffffffffffffffff167fddf252ad1be2c89b69c2b068fc378daa952ba7f163c4a11628f55a4df523b3ef836040516120359190612d55565b60405180910390a361204960008383612821565b5050565b6000609860009054906101000a900473ffffffffffffffffffffffffffffffffffffffff1673ffffffffffffffffffffffffffffffffffffffff166370a08231306040518263ffffffff1660e01b81526004016120aa9190612eca565b602060405180830381865afa1580156120c7573d6000803e3d6000fd5b505050506040513d601f19601f820116820180604052508101906120eb919061329b565b905090565b612173846323b872dd60e01b858585604051602401612111939291906139c3565b604051602081830303815290604052907bffffffffffffffffffffffffffffffffffffffffffffffffffffffff19166020820180517bffffffffffffffffffffffffffffffffffffffffffffffffffffffff8381831617835250505050612826565b50505050565b82156121c8578160995461218d91906131f8565b818361219991906133d3565b609b546099546121a991906133d3565b6121b391906131f8565b6121bd919061345c565b609b81905550612230565b6000826099546121d8919061339f565b036121ea576000609b8190555061222f565b816099546121f8919061339f565b818361220491906133d3565b609b5460995461221491906133d3565b61221e919061339f565b612228919061345c565b609b819055505b5b505050565b609760009054906101000a900473ffffffffffffffffffffffffffffffffffffffff1673ffffffffffffffffffffffffffffffffffffffff16635257b5666040518163ffffffff1660e01b8152600401602060405180830381865afa1580156122a2573d6000803e3d6000fd5b505050506040513d601f19601f820116820180604052508101906122c691906132dd565b73ffffffffffffffffffffffffffffffffffffffff166366c57dca6122e961204d565b6099546040518363ffffffff1660e01b8152600401612309929190613376565b602060405180830381865afa158015612326573d6000803e3d6000fd5b505050506040513d601f19601f8201168201806040525081019061234a919061329b565b609a81905550565b6000606560009054906101000a900473ffffffffffffffffffffffffffffffffffffffff16905081606560006101000a81548173ffffffffffffffffffffffffffffffffffffffff021916908373ffffffffffffffffffffffffffffffffffffffff1602179055508173ffffffffffffffffffffffffffffffffffffffff168173ffffffffffffffffffffffffffffffffffffffff167f8be0079c531659141344cd1fd0a4f28419497f9722a3daafe3b4186f6b6457e060405160405180910390a35050565b600073ffffffffffffffffffffffffffffffffffffffff168273ffffffffffffffffffffffffffffffffffffffff1603612487576040517f08c379a000000000000000000000000000000000000000000000000000000000815260040161247e90613a6c565b60405180910390fd5b6124938260008361281c565b6000603360008473ffffffffffffffffffffffffffffffffffffffff1673ffffffffffffffffffffffffffffffffffffffff1681526020019081526020016000205490508181101561251a576040517f08c379a000000000000000000000000000000000000000000000000000000000815260040161251190613afe565b60405180910390fd5b818103603360008573ffffffffffffffffffffffffffffffffffffffff1673ffffffffffffffffffffffffffffffffffffffff168152602001908152602001600020819055508160356000828254612572919061339f565b92505081905550600073ffffffffffffffffffffffffffffffffffffffff168373ffffffffffffffffffffffffffffffffffffffff167fddf252ad1be2c89b69c2b068fc378daa952ba7f163c4a11628f55a4df523b3ef846040516125d79190612d55565b60405180910390a36125eb83600084612821565b505050565b6126718363a9059cbb60e01b848460405160240161260f929190613b1e565b604051602081830303815290604052907bffffffffffffffffffffffffffffffffffffffffffffffffffffffff19166020820180517bffffffffffffffffffffffffffffffffffffffffffffffffffffffff8381831617835250505050612826565b505050565b60008060019054906101000a900460ff16156126ed5760018260ff161480156126a557506126a3306128ed565b155b6126e4576040517f08c379a00000000000000000000000000000000000000000000000000000000081526004016126db90613bb9565b60405180910390fd5b60009050612761565b8160ff1660008054906101000a900460ff1660ff1610612742576040517f08c379a000000000000000000000000000000000000000000000000000000000815260040161273990613bb9565b60405180910390fd5b816000806101000a81548160ff021916908360ff160217905550600190505b919050565b600060019054906101000a900460ff166127b5576040517f08c379a00000000000000000000000000000000000000000000000000000000081526004016127ac90613c4b565b60405180910390fd5b6127bd612910565b565b600060019054906101000a900460ff1661280e576040517f08c379a000000000000000000000000000000000000000000000000000000000815260040161280590613c4b565b60405180910390fd5b6128188282612971565b5050565b505050565b505050565b6000612888826040518060400160405280602081526020017f5361666545524332303a206c6f772d6c6576656c2063616c6c206661696c65648152508573ffffffffffffffffffffffffffffffffffffffff166129e49092919063ffffffff16565b90506000815111156128e857808060200190518101906128a89190613c97565b6128e7576040517f08c379a00000000000000000000000000000000000000000000000000000000081526004016128de90613d36565b60405180910390fd5b5b505050565b6000808273ffffffffffffffffffffffffffffffffffffffff163b119050919050565b600060019054906101000a900460ff1661295f576040517f08c379a000000000000000000000000000000000000000000000000000000000815260040161295690613c4b565b60405180910390fd5b61296f61296a611a04565b612352565b565b600060019054906101000a900460ff166129c0576040517f08c379a00000000000000000000000000000000000000000000000000000000081526004016129b790613c4b565b60405180910390fd5b81603690816129cf9190613f27565b5080603790816129df9190613f27565b505050565b60606129f384846000856129fc565b90509392505050565b606082471015612a41576040517f08c379a0000000000000000000000000000000000000000000000000000000008152600401612a389061406b565b60405180910390fd5b612a4a856128ed565b612a89576040517f08c379a0000000000000000000000000000000000000000000000000000000008152600401612a80906140d7565b60405180910390fd5b6000808673ffffffffffffffffffffffffffffffffffffffff168587604051612ab2919061413e565b60006040518083038185875af1925050503d8060008114612aef576040519150601f19603f3d011682016040523d82523d6000602084013e612af4565b606091505b5091509150612b04828286612b10565b92505050949350505050565b60608315612b2057829050612b70565b600083511115612b335782518084602001fd5b816040517f08c379a0000000000000000000000000000000000000000000000000000000008152600401612b679190612c10565b60405180910390fd5b9392505050565b600081519050919050565b600082825260208201905092915050565b60005b83811015612bb1578082015181840152602081019050612b96565b83811115612bc0576000848401525b50505050565b6000601f19601f8301169050919050565b6000612be282612b77565b612bec8185612b82565b9350612bfc818560208601612b93565b612c0581612bc6565b840191505092915050565b60006020820190508181036000830152612c2a8184612bd7565b905092915050565b600080fd5b600080fd5b600073ffffffffffffffffffffffffffffffffffffffff82169050919050565b6000612c6782612c3c565b9050919050565b612c7781612c5c565b8114612c8257600080fd5b50565b600081359050612c9481612c6e565b92915050565b6000819050919050565b612cad81612c9a565b8114612cb857600080fd5b50565b600081359050612cca81612ca4565b92915050565b60008060408385031215612ce757612ce6612c32565b5b6000612cf585828601612c85565b9250506020612d0685828601612cbb565b9150509250929050565b60008115159050919050565b612d2581612d10565b82525050565b6000602082019050612d406000830184612d1c565b92915050565b612d4f81612c9a565b82525050565b6000602082019050612d6a6000830184612d46565b92915050565b600080600060608486031215612d8957612d88612c32565b5b6000612d9786828701612c85565b9350506020612da886828701612c85565b9250506040612db986828701612cbb565b9150509250925092565b600060208284031215612dd957612dd8612c32565b5b6000612de784828501612cbb565b91505092915050565b600060ff82169050919050565b612e0681612df0565b82525050565b6000602082019050612e216000830184612dfd565b92915050565b600060208284031215612e3d57612e3c612c32565b5b6000612e4b84828501612c85565b91505092915050565b60008060008060808587031215612e6e57612e6d612c32565b5b6000612e7c87828801612c85565b9450506020612e8d87828801612cbb565b9350506040612e9e87828801612cbb565b9250506060612eaf87828801612cbb565b91505092959194509250565b612ec481612c5c565b82525050565b6000602082019050612edf6000830184612ebb565b92915050565b600080600060608486031215612efe57612efd612c32565b5b6000612f0c86828701612c85565b9350506020612f1d86828701612cbb565b9250506040612f2e86828701612cbb565b9150509250925092565b6000612f4382612c5c565b9050919050565b612f5381612f38565b8114612f5e57600080fd5b50565b600081359050612f7081612f4a565b92915050565b600080fd5b600080fd5b600080fd5b60008083601f840112612f9b57612f9a612f76565b5b8235905067ffffffffffffffff811115612fb857612fb7612f7b565b5b602083019150836001820283011115612fd457612fd3612f80565b5b9250929050565b600080600080600080600080600060e08a8c031215612ffd57612ffc612c32565b5b600061300b8c828d01612f61565b995050602061301c8c828d01612c85565b98505060408a013567ffffffffffffffff81111561303d5761303c612c37565b5b6130498c828d01612f85565b975097505060608a013567ffffffffffffffff81111561306c5761306b612c37565b5b6130788c828d01612f85565b9550955050608061308b8c828d01612cbb565b93505060a061309c8c828d01612cbb565b92505060c06130ad8c828d01612cbb565b9150509295985092959850929598565b600080604083850312156130d4576130d3612c32565b5b60006130e285828601612c85565b92505060206130f385828601612c85565b9150509250929050565b7f4e487b7100000000000000000000000000000000000000000000000000000000600052602260045260246000fd5b6000600282049050600182168061314457607f821691505b602082108103613157576131566130fd565b5b50919050565b7f4f776e61626c653a2063616c6c6572206973206e6f7420746865206f776e6572600082015250565b6000613193602083612b82565b915061319e8261315d565b602082019050919050565b600060208201905081810360008301526131c281613186565b9050919050565b7f4e487b7100000000000000000000000000000000000000000000000000000000600052601160045260246000fd5b600061320382612c9a565b915061320e83612c9a565b9250827fffffffffffffffffffffffffffffffffffffffffffffffffffffffffffffffff03821115613243576132426131c9565b5b828201905092915050565b61325781612c5c565b82525050565b6000604082019050613272600083018561324e565b61327f602083018461324e565b9392505050565b60008151905061329581612ca4565b92915050565b6000602082840312156132b1576132b0612c32565b5b60006132bf84828501613286565b91505092915050565b6000815190506132d781612c6e565b92915050565b6000602082840312156132f3576132f2612c32565b5b6000613301848285016132c8565b91505092915050565b7f43616c6c6572206d757374206265204d61726b657420636f6e74726163740000600082015250565b6000613340601e83612b82565b915061334b8261330a565b602082019050919050565b6000602082019050818103600083015261336f81613333565b9050919050565b600060408201905061338b6000830185612d46565b6133986020830184612d46565b9392505050565b60006133aa82612c9a565b91506133b583612c9a565b9250828210156133c8576133c76131c9565b5b828203905092915050565b60006133de82612c9a565b91506133e983612c9a565b9250817fffffffffffffffffffffffffffffffffffffffffffffffffffffffffffffffff0483118215151615613422576134216131c9565b5b828202905092915050565b7f4e487b7100000000000000000000000000000000000000000000000000000000600052601260045260246000fd5b600061346782612c9a565b915061347283612c9a565b9250826134825761348161342d565b5b828204905092915050565b7f45524332303a2064656372656173656420616c6c6f77616e63652062656c6f7760008201527f207a65726f000000000000000000000000000000000000000000000000000000602082015250565b60006134e9602583612b82565b91506134f48261348d565b604082019050919050565b60006020820190508181036000830152613518816134dc565b9050919050565b6000819050919050565b6000819050919050565b600061354e6135496135448461351f565b613529565b612df0565b9050919050565b61355e81613533565b82525050565b60006020820190506135796000830184613555565b92915050565b7f4f776e61626c653a206e6577206f776e657220697320746865207a65726f206160008201527f6464726573730000000000000000000000000000000000000000000000000000602082015250565b60006135db602683612b82565b91506135e68261357f565b604082019050919050565b6000602082019050818103600083015261360a816135ce565b9050919050565b7f45524332303a20617070726f76652066726f6d20746865207a65726f2061646460008201527f7265737300000000000000000000000000000000000000000000000000000000602082015250565b600061366d602483612b82565b915061367882613611565b604082019050919050565b6000602082019050818103600083015261369c81613660565b9050919050565b7f45524332303a20617070726f766520746f20746865207a65726f20616464726560008201527f7373000000000000000000000000000000000000000000000000000000000000602082015250565b60006136ff602283612b82565b915061370a826136a3565b604082019050919050565b6000602082019050818103600083015261372e816136f2565b9050919050565b7f45524332303a20696e73756666696369656e7420616c6c6f77616e6365000000600082015250565b600061376b601d83612b82565b915061377682613735565b602082019050919050565b6000602082019050818103600083015261379a8161375e565b9050919050565b7f45524332303a207472616e736665722066726f6d20746865207a65726f20616460008201527f6472657373000000000000000000000000000000000000000000000000000000602082015250565b60006137fd602583612b82565b9150613808826137a1565b604082019050919050565b6000602082019050818103600083015261382c816137f0565b9050919050565b7f45524332303a207472616e7366657220746f20746865207a65726f206164647260008201527f6573730000000000000000000000000000000000000000000000000000000000602082015250565b600061388f602383612b82565b915061389a82613833565b604082019050919050565b600060208201905081810360008301526138be81613882565b9050919050565b7f45524332303a207472616e7366657220616d6f756e742065786365656473206260008201527f616c616e63650000000000000000000000000000000000000000000000000000602082015250565b6000613921602683612b82565b915061392c826138c5565b604082019050919050565b6000602082019050818103600083015261395081613914565b9050919050565b7f45524332303a206d696e7420746f20746865207a65726f206164647265737300600082015250565b600061398d601f83612b82565b915061399882613957565b602082019050919050565b600060208201905081810360008301526139bc81613980565b9050919050565b60006060820190506139d86000830186612ebb565b6139e56020830185612ebb565b6139f26040830184612d46565b949350505050565b7f45524332303a206275726e2066726f6d20746865207a65726f2061646472657360008201527f7300000000000000000000000000000000000000000000000000000000000000602082015250565b6000613a56602183612b82565b9150613a61826139fa565b604082019050919050565b60006020820190508181036000830152613a8581613a49565b9050919050565b7f45524332303a206275726e20616d6f756e7420657863656564732062616c616e60008201527f6365000000000000000000000000000000000000000000000000000000000000602082015250565b6000613ae8602283612b82565b9150613af382613a8c565b604082019050919050565b60006020820190508181036000830152613b1781613adb565b9050919050565b6000604082019050613b336000830185612ebb565b613b406020830184612d46565b9392505050565b7f496e697469616c697a61626c653a20636f6e747261637420697320616c72656160008201527f647920696e697469616c697a6564000000000000000000000000000000000000602082015250565b6000613ba3602e83612b82565b9150613bae82613b47565b604082019050919050565b60006020820190508181036000830152613bd281613b96565b9050919050565b7f496e697469616c697a61626c653a20636f6e7472616374206973206e6f74206960008201527f6e697469616c697a696e67000000000000000000000000000000000000000000602082015250565b6000613c35602b83612b82565b9150613c4082613bd9565b604082019050919050565b60006020820190508181036000830152613c6481613c28565b9050919050565b613c7481612d10565b8114613c7f57600080fd5b50565b600081519050613c9181613c6b565b92915050565b600060208284031215613cad57613cac612c32565b5b6000613cbb84828501613c82565b91505092915050565b7f5361666545524332303a204552433230206f7065726174696f6e20646964206e60008201527f6f74207375636365656400000000000000000000000000000000000000000000602082015250565b6000613d20602a83612b82565b9150613d2b82613cc4565b604082019050919050565b60006020820190508181036000830152613d4f81613d13565b9050919050565b7f4e487b7100000000000000000000000000000000000000000000000000000000600052604160045260246000fd5b60008190508160005260206000209050919050565b60006020601f8301049050919050565b600082821b905092915050565b600060088302613de77fffffffffffffffffffffffffffffffffffffffffffffffffffffffffffffffff82613daa565b613df18683613daa565b95508019841693508086168417925050509392505050565b6000613e24613e1f613e1a84612c9a565b613529565b612c9a565b9050919050565b6000819050919050565b613e3e83613e09565b613e52613e4a82613e2b565b848454613db7565b825550505050565b600090565b613e67613e5a565b613e72818484613e35565b505050565b5b81811015613e9657613e8b600082613e5f565b600181019050613e78565b5050565b601f821115613edb57613eac81613d85565b613eb584613d9a565b81016020851015613ec4578190505b613ed8613ed085613d9a565b830182613e77565b50505b505050565b600082821c905092915050565b6000613efe60001984600802613ee0565b1980831691505092915050565b6000613f178383613eed565b9150826002028217905092915050565b613f3082612b77565b67ffffffffffffffff811115613f4957613f48613d56565b5b613f53825461312c565b613f5e828285613e9a565b600060209050601f831160018114613f915760008415613f7f578287015190505b613f898582613f0b565b865550613ff1565b601f198416613f9f86613d85565b60005b82811015613fc757848901518255600182019150602085019450602081019050613fa2565b86831015613fe45784890151613fe0601f891682613eed565b8355505b6001600288020188555050505b505050505050565b7f416464726573733a20696e73756666696369656e742062616c616e636520666f60008201527f722063616c6c0000000000000000000000000000000000000000000000000000602082015250565b6000614055602683612b82565b915061406082613ff9565b604082019050919050565b6000602082019050818103600083015261408481614048565b9050919050565b7f416464726573733a2063616c6c20746f206e6f6e2d636f6e7472616374000000600082015250565b60006140c1601d83612b82565b91506140cc8261408b565b602082019050919050565b600060208201905081810360008301526140f0816140b4565b9050919050565b600081519050919050565b600081905092915050565b6000614118826140f7565b6141228185614102565b9350614132818560208601612b93565b80840191505092915050565b600061414a828461410d565b91508190509291505056fea2646970667358221220dc482a495fb10f3c7b85ec0bdd5101ec7b87c75fa371f2bee352fc579bd30b9b64736f6c634300080f0033",
  "linkReferences": {
    "contracts/libraries/logic/SupplyLogic.sol": {
      "SupplyLogic": [
        {
          "length": 20,
          "start": 2142
        }
      ]
    }
  },
  "deployedLinkReferences": {
    "contracts/libraries/logic/SupplyLogic.sol": {
      "SupplyLogic": [
        {
          "length": 20,
          "start": 2110
        }
      ]
    }
  }
}