{
  "_format": "hh-sol-artifact-1",
  "contractName": "SwapRouter",
  "sourceName": "contracts/protocol/Trading/SwapRouter.sol",
  "abi": [
    {
      "inputs": [
        {
          "internalType": "contract IAddressesProvider",
          "name": "addressesProvider",
          "type": "address"
        }
      ],
      "stateMutability": "nonpayable",
      "type": "constructor"
    },
    {
      "anonymous": false,
      "inputs": [
        {
          "indexed": true,
          "internalType": "address",
          "name": "previousOwner",
          "type": "address"
        },
        {
          "indexed": true,
          "internalType": "address",
          "name": "newOwner",
          "type": "address"
        }
      ],
      "name": "OwnershipTransferred",
      "type": "event"
    },
    {
      "inputs": [
        {
          "internalType": "address",
          "name": "token",
          "type": "address"
        },
        {
          "internalType": "address",
          "name": "tradingPool",
          "type": "address"
        }
      ],
      "name": "approveTradingPool",
      "outputs": [],
      "stateMutability": "nonpayable",
      "type": "function"
    },
    {
      "inputs": [],
      "name": "owner",
      "outputs": [
        {
          "internalType": "address",
          "name": "",
          "type": "address"
        }
      ],
      "stateMutability": "view",
      "type": "function"
    },
    {
      "inputs": [],
      "name": "renounceOwnership",
      "outputs": [],
      "stateMutability": "nonpayable",
      "type": "function"
    },
    {
      "inputs": [
        {
          "internalType": "contract ITradingPool",
          "name": "buyPool",
          "type": "address"
        },
        {
          "internalType": "contract ITradingPool",
          "name": "sellPool",
          "type": "address"
        },
        {
          "internalType": "uint256[]",
          "name": "buyNftIds",
          "type": "uint256[]"
        },
        {
          "internalType": "uint256",
          "name": "maximumBuyPrice",
          "type": "uint256"
        },
        {
          "internalType": "uint256[]",
          "name": "sellNftIds",
          "type": "uint256[]"
        },
        {
          "internalType": "uint256[]",
          "name": "sellLps",
          "type": "uint256[]"
        },
        {
          "internalType": "uint256",
          "name": "minimumSellPrice",
          "type": "uint256"
        }
      ],
      "name": "swap",
      "outputs": [
        {
          "internalType": "uint256",
          "name": "change",
          "type": "uint256"
        }
      ],
      "stateMutability": "nonpayable",
      "type": "function"
    },
    {
      "inputs": [
        {
          "internalType": "address",
          "name": "newOwner",
          "type": "address"
        }
      ],
      "name": "transferOwnership",
      "outputs": [],
      "stateMutability": "nonpayable",
      "type": "function"
    }
  ],
  "bytecode": "0x60a060405234801561001057600080fd5b5060405161122038038061122083398101604081905261002f9161009d565b6100383361004d565b600180556001600160a01b03166080526100cd565b600080546001600160a01b038381166001600160a01b0319831681178455604051919092169283917f8be0079c531659141344cd1fd0a4f28419497f9722a3daafe3b4186f6b6457e09190a35050565b6000602082840312156100af57600080fd5b81516001600160a01b03811681146100c657600080fd5b9392505050565b60805161112a6100f660003960008181610144015281816102760152610718015261112a6000f3fe608060405234801561001057600080fd5b50600436106100575760003560e01c8063715018a61461005c5780638da5cb5b14610066578063b967f11014610086578063ea922827146100a7578063f2fde38b146100ba575b600080fd5b6100646100cd565b005b6000546040516001600160a01b0390911681526020015b60405180910390f35b610099610094366004610e01565b6100e1565b60405190815260200161007d565b6100646100b5366004610ed6565b610716565b6100646100c8366004610f0f565b610807565b6100d5610880565b6100df60006108da565b565b60006100eb61092a565b896001600160a01b03168b6001600160a01b0316036101425760405162461bcd60e51b815260206004820152600e60248201526d14d48e94ce94d0535157d413d3d360921b60448201526064015b60405180910390fd5b7f00000000000000000000000000000000000000000000000000000000000000006001600160a01b031663ca1470ea6040518163ffffffff1660e01b8152600401602060405180830381865afa1580156101a0573d6000803e3d6000fd5b505050506040513d601f19601f820116820180604052508101906101c49190610f33565b6040516378e2ddab60e11b81526001600160a01b038d81166004830152919091169063f1c5bb5690602401602060405180830381865afa15801561020c573d6000803e3d6000fd5b505050506040513d601f19601f820116820180604052508101906102309190610f50565b6102745760405162461bcd60e51b815260206004820152601560248201527414d48e94ce9253959053125117d0955657d413d3d3605a1b6044820152606401610139565b7f00000000000000000000000000000000000000000000000000000000000000006001600160a01b031663ca1470ea6040518163ffffffff1660e01b8152600401602060405180830381865afa1580156102d2573d6000803e3d6000fd5b505050506040513d601f19601f820116820180604052508101906102f69190610f33565b6040516378e2ddab60e11b81526001600160a01b038c81166004830152919091169063f1c5bb5690602401602060405180830381865afa15801561033e573d6000803e3d6000fd5b505050506040513d601f19601f820116820180604052508101906103629190610f50565b6103a75760405162461bcd60e51b815260206004820152601660248201527514d48e94ce9253959053125117d4d1531317d413d3d360521b6044820152606401610139565b896001600160a01b03166321df0da76040518163ffffffff1660e01b8152600401602060405180830381865afa1580156103e5573d6000803e3d6000fd5b505050506040513d601f19601f820116820180604052508101906104099190610f33565b6001600160a01b03168b6001600160a01b03166321df0da76040518163ffffffff1660e01b8152600401602060405180830381865afa158015610450573d6000803e3d6000fd5b505050506040513d601f19601f820116820180604052508101906104749190610f33565b6001600160a01b0316146104c25760405162461bcd60e51b815260206004820152601560248201527453523a533a444946464552454e545f544f4b454e5360581b6044820152606401610139565b6040516349591b5160e01b81526000906001600160a01b038c16906349591b51906104fb9033908b908b908b908b908b90600401610fa4565b6020604051808303816000875af115801561051a573d6000803e3d6000fd5b505050506040513d601f19601f8201168201806040525081019061053e9190610ff0565b90506000838911156105cf57610554848a61101f565b90506105cf3330838f6001600160a01b03166321df0da76040518163ffffffff1660e01b8152600401602060405180830381865afa15801561059a573d6000803e3d6000fd5b505050506040513d601f19601f820116820180604052508101906105be9190610f33565b6001600160a01b0316929190610983565b60008d6001600160a01b031663b31f0d62338e8e8e6040518563ffffffff1660e01b81526004016106039493929190611038565b6020604051808303816000875af1158015610622573d6000803e3d6000fd5b505050506040513d601f19601f820116820180604052508101906106469190610ff0565b905080610653838561106e565b11156106fc576106e43382610668858761106e565b610672919061101f565b8f6001600160a01b03166321df0da76040518163ffffffff1660e01b8152600401602060405180830381865afa1580156106b0573d6000803e3d6000fd5b505050506040513d601f19601f820116820180604052508101906106d49190610f33565b6001600160a01b031691906109f4565b806106ef838561106e565b6106f9919061101f565b93505b50505061070860018055565b9a9950505050505050505050565b7f00000000000000000000000000000000000000000000000000000000000000006001600160a01b031663ca1470ea6040518163ffffffff1660e01b8152600401602060405180830381865afa158015610774573d6000803e3d6000fd5b505050506040513d601f19601f820116820180604052508101906107989190610f33565b6001600160a01b0316336001600160a01b0316146107ed5760405162461bcd60e51b815260206004820152601260248201527153523a4154503a4e4f545f464143544f525960701b6044820152606401610139565b6108036001600160a01b03831682600019610a29565b5050565b61080f610880565b6001600160a01b0381166108745760405162461bcd60e51b815260206004820152602660248201527f4f776e61626c653a206e6577206f776e657220697320746865207a65726f206160448201526564647265737360d01b6064820152608401610139565b61087d816108da565b50565b6000546001600160a01b031633146100df5760405162461bcd60e51b815260206004820181905260248201527f4f776e61626c653a2063616c6c6572206973206e6f7420746865206f776e65726044820152606401610139565b600080546001600160a01b038381166001600160a01b0319831681178455604051919092169283917f8be0079c531659141344cd1fd0a4f28419497f9722a3daafe3b4186f6b6457e09190a35050565b60026001540361097c5760405162461bcd60e51b815260206004820152601f60248201527f5265656e7472616e637947756172643a207265656e7472616e742063616c6c006044820152606401610139565b6002600155565b6040516001600160a01b03808516602483015283166044820152606481018290526109ee9085906323b872dd60e01b906084015b60408051601f198184030181529190526020810180516001600160e01b03166001600160e01b031990931692909217909152610b3e565b50505050565b6040516001600160a01b038316602482015260448101829052610a2490849063a9059cbb60e01b906064016109b7565b505050565b801580610aa35750604051636eb1769f60e11b81523060048201526001600160a01b03838116602483015284169063dd62ed3e90604401602060405180830381865afa158015610a7d573d6000803e3d6000fd5b505050506040513d601f19601f82011682018060405250810190610aa19190610ff0565b155b610b0e5760405162461bcd60e51b815260206004820152603660248201527f5361666545524332303a20617070726f76652066726f6d206e6f6e2d7a65726f60448201527520746f206e6f6e2d7a65726f20616c6c6f77616e636560501b6064820152608401610139565b6040516001600160a01b038316602482015260448101829052610a2490849063095ea7b360e01b906064016109b7565b6000610b93826040518060400160405280602081526020017f5361666545524332303a206c6f772d6c6576656c2063616c6c206661696c6564815250856001600160a01b0316610c109092919063ffffffff16565b805190915015610a245780806020019051810190610bb19190610f50565b610a245760405162461bcd60e51b815260206004820152602a60248201527f5361666545524332303a204552433230206f7065726174696f6e20646964206e6044820152691bdd081cdd58d8d9595960b21b6064820152608401610139565b6060610c1f8484600085610c27565b949350505050565b606082471015610c885760405162461bcd60e51b815260206004820152602660248201527f416464726573733a20696e73756666696369656e742062616c616e636520666f6044820152651c8818d85b1b60d21b6064820152608401610139565b600080866001600160a01b03168587604051610ca491906110a5565b60006040518083038185875af1925050503d8060008114610ce1576040519150601f19603f3d011682016040523d82523d6000602084013e610ce6565b606091505b5091509150610cf787838387610d02565b979650505050505050565b60608315610d71578251600003610d6a576001600160a01b0385163b610d6a5760405162461bcd60e51b815260206004820152601d60248201527f416464726573733a2063616c6c20746f206e6f6e2d636f6e74726163740000006044820152606401610139565b5081610c1f565b610c1f8383815115610d865781518083602001fd5b8060405162461bcd60e51b815260040161013991906110c1565b6001600160a01b038116811461087d57600080fd5b60008083601f840112610dc757600080fd5b50813567ffffffffffffffff811115610ddf57600080fd5b6020830191508360208260051b8501011115610dfa57600080fd5b9250929050565b60008060008060008060008060008060e08b8d031215610e2057600080fd5b8a35610e2b81610da0565b995060208b0135610e3b81610da0565b985060408b013567ffffffffffffffff80821115610e5857600080fd5b610e648e838f01610db5565b909a50985060608d0135975060808d0135915080821115610e8457600080fd5b610e908e838f01610db5565b909750955060a08d0135915080821115610ea957600080fd5b50610eb68d828e01610db5565b9150809450508092505060c08b013590509295989b9194979a5092959850565b60008060408385031215610ee957600080fd5b8235610ef481610da0565b91506020830135610f0481610da0565b809150509250929050565b600060208284031215610f2157600080fd5b8135610f2c81610da0565b9392505050565b600060208284031215610f4557600080fd5b8151610f2c81610da0565b600060208284031215610f6257600080fd5b81518015158114610f2c57600080fd5b81835260006001600160fb1b03831115610f8b57600080fd5b8260051b80836020870137939093016020019392505050565b6001600160a01b0387168152608060208201819052600090610fc99083018789610f72565b8281036040840152610fdc818688610f72565b915050826060830152979650505050505050565b60006020828403121561100257600080fd5b5051919050565b634e487b7160e01b600052601160045260246000fd5b8181038181111561103257611032611009565b92915050565b6001600160a01b038516815260606020820181905260009061105d9083018587610f72565b905082604083015295945050505050565b8082018082111561103257611032611009565b60005b8381101561109c578181015183820152602001611084565b50506000910152565b600082516110b7818460208701611081565b9190910192915050565b60208152600082518060208401526110e0816040850160208701611081565b601f01601f1916919091016040019291505056fea2646970667358221220020effc91e64ca9dcfae47d55401d70b79218331044209a91cdd9bc1f86434dc64736f6c63430008130033",
  "linkReferences": {},
  "deployedLinkReferences": {}
}