{
  "_format": "hh-sol-artifact-1",
  "contractName": "SwapRouter",
  "sourceName": "contracts/protocol/Trading/SwapRouter.sol",
  "abi": [
    {
      "anonymous": false,
      "inputs": [
        {
          "indexed": false,
          "internalType": "uint8",
          "name": "version",
          "type": "uint8"
        }
      ],
      "name": "Initialized",
      "type": "event"
    },
    {
      "anonymous": false,
      "inputs": [
        {
          "indexed": true,
          "internalType": "address",
          "name": "previousOwner",
          "type": "address"
        },
        {
          "indexed": true,
          "internalType": "address",
          "name": "newOwner",
          "type": "address"
        }
      ],
      "name": "OwnershipTransferred",
      "type": "event"
    },
    {
      "inputs": [
        {
          "internalType": "contract IAddressesProvider",
          "name": "addressesProvider",
          "type": "address"
        }
      ],
      "name": "initialize",
      "outputs": [],
      "stateMutability": "nonpayable",
      "type": "function"
    },
    {
      "inputs": [],
      "name": "owner",
      "outputs": [
        {
          "internalType": "address",
          "name": "",
          "type": "address"
        }
      ],
      "stateMutability": "view",
      "type": "function"
    },
    {
      "inputs": [],
      "name": "renounceOwnership",
      "outputs": [],
      "stateMutability": "nonpayable",
      "type": "function"
    },
    {
      "inputs": [
        {
          "internalType": "contract ITradingPool",
          "name": "buyPool",
          "type": "address"
        },
        {
          "internalType": "contract ITradingPool",
          "name": "sellPool",
          "type": "address"
        },
        {
          "internalType": "uint256[]",
          "name": "buyNftIds",
          "type": "uint256[]"
        },
        {
          "internalType": "uint256",
          "name": "maximumBuyPrice",
          "type": "uint256"
        },
        {
          "internalType": "uint256",
          "name": "buyChange",
          "type": "uint256"
        },
        {
          "internalType": "uint256[]",
          "name": "sellNftIds",
          "type": "uint256[]"
        },
        {
          "internalType": "uint256[]",
          "name": "sellLps",
          "type": "uint256[]"
        },
        {
          "internalType": "uint256",
          "name": "minimumSellPrice",
          "type": "uint256"
        }
      ],
      "name": "swap",
      "outputs": [],
      "stateMutability": "nonpayable",
      "type": "function"
    },
    {
      "inputs": [
        {
          "internalType": "address",
          "name": "newOwner",
          "type": "address"
        }
      ],
      "name": "transferOwnership",
      "outputs": [],
      "stateMutability": "nonpayable",
      "type": "function"
    }
  ],
  "bytecode": "0x608060405234801561001057600080fd5b50610dc7806100206000396000f3fe608060405234801561001057600080fd5b50600436106100575760003560e01c80630484de4a1461005c578063715018a6146100715780638da5cb5b14610079578063c4d66de814610098578063f2fde38b146100ab575b600080fd5b61006f61006a366004610a97565b6100be565b005b61006f6103ff565b603354604080516001600160a01b039092168252519081900360200190f35b61006f6100a6366004610b5e565b610413565b61006f6100b9366004610b5e565b610540565b866001600160a01b03166321df0da76040518163ffffffff1660e01b8152600401602060405180830381865afa1580156100fc573d6000803e3d6000fd5b505050506040513d601f19601f820116820180604052508101906101209190610b82565b6001600160a01b0316886001600160a01b03166321df0da76040518163ffffffff1660e01b8152600401602060405180830381865afa158015610167573d6000803e3d6000fd5b505050506040513d601f19601f8201168201806040525081019061018b9190610b82565b6001600160a01b0316146101e65760405162461bcd60e51b815260206004820152601a60248201527f556e6465726c79696e6720746f6b656e206d69736d617463682e00000000000060448201526064015b60405180910390fd5b6040516349591b5160e01b81526000906001600160a01b038916906349591b519061021b903390889088908890600401610bda565b6020604051808303816000875af115801561023a573d6000803e3d6000fd5b505050506040513d601f19601f8201168201806040525081019061025e9190610c22565b905084156102df576102df3330878b6001600160a01b03166321df0da76040518163ffffffff1660e01b8152600401602060405180830381865afa1580156102aa573d6000803e3d6000fd5b505050506040513d601f19601f820116820180604052508101906102ce9190610b82565b6001600160a01b03169291906105b9565b60405163598f86b160e11b81526000906001600160a01b038a169063b31f0d62906103129033908c908c90600401610c3b565b6020604051808303816000875af1158015610331573d6000803e3d6000fd5b505050506040513d601f19601f820116820180604052508101906103559190610c22565b90506103618683610c85565b8111156103f3576103f333826103778986610c85565b6103819190610c9e565b8b6001600160a01b03166321df0da76040518163ffffffff1660e01b8152600401602060405180830381865afa1580156103bf573d6000803e3d6000fd5b505050506040513d601f19601f820116820180604052508101906103e39190610b82565b6001600160a01b0316919061062a565b50505050505050505050565b61040761065f565b61041160006106b9565b565b600054610100900460ff16158080156104335750600054600160ff909116105b8061044d5750303b15801561044d575060005460ff166001145b6104b05760405162461bcd60e51b815260206004820152602e60248201527f496e697469616c697a61626c653a20636f6e747261637420697320616c72656160448201526d191e481a5b9a5d1a585b1a5e995960921b60648201526084016101dd565b6000805460ff1916600117905580156104d3576000805461ff0019166101001790555b6104db61070b565b606580546001600160a01b0319166001600160a01b038416179055801561053c576000805461ff0019169055604051600181527f7f26b83ff96e1f2b6a682f133852f6798a09c465da95921460cefb38474024989060200160405180910390a15b5050565b61054861065f565b6001600160a01b0381166105ad5760405162461bcd60e51b815260206004820152602660248201527f4f776e61626c653a206e6577206f776e657220697320746865207a65726f206160448201526564647265737360d01b60648201526084016101dd565b6105b6816106b9565b50565b6040516001600160a01b03808516602483015283166044820152606481018290526106249085906323b872dd60e01b906084015b60408051601f198184030181529190526020810180516001600160e01b03166001600160e01b03199093169290921790915261073a565b50505050565b6040516001600160a01b03831660248201526044810182905261065a90849063a9059cbb60e01b906064016105ed565b505050565b6033546001600160a01b031633146104115760405162461bcd60e51b815260206004820181905260248201527f4f776e61626c653a2063616c6c6572206973206e6f7420746865206f776e657260448201526064016101dd565b603380546001600160a01b038381166001600160a01b0319831681179093556040519116919082907f8be0079c531659141344cd1fd0a4f28419497f9722a3daafe3b4186f6b6457e090600090a35050565b600054610100900460ff166107325760405162461bcd60e51b81526004016101dd90610cb1565b61041161080c565b600061078f826040518060400160405280602081526020017f5361666545524332303a206c6f772d6c6576656c2063616c6c206661696c6564815250856001600160a01b031661083c9092919063ffffffff16565b80519091501561065a57808060200190518101906107ad9190610cfc565b61065a5760405162461bcd60e51b815260206004820152602a60248201527f5361666545524332303a204552433230206f7065726174696f6e20646964206e6044820152691bdd081cdd58d8d9595960b21b60648201526084016101dd565b600054610100900460ff166108335760405162461bcd60e51b81526004016101dd90610cb1565b610411336106b9565b606061084b8484600085610853565b949350505050565b6060824710156108b45760405162461bcd60e51b815260206004820152602660248201527f416464726573733a20696e73756666696369656e742062616c616e636520666f6044820152651c8818d85b1b60d21b60648201526084016101dd565b600080866001600160a01b031685876040516108d09190610d42565b60006040518083038185875af1925050503d806000811461090d576040519150601f19603f3d011682016040523d82523d6000602084013e610912565b606091505b50915091506109238783838761092e565b979650505050505050565b6060831561099d578251600003610996576001600160a01b0385163b6109965760405162461bcd60e51b815260206004820152601d60248201527f416464726573733a2063616c6c20746f206e6f6e2d636f6e747261637400000060448201526064016101dd565b508161084b565b61084b83838151156109b25781518083602001fd5b8060405162461bcd60e51b81526004016101dd9190610d5e565b6001600160a01b03811681146105b657600080fd5b80356109ec816109cc565b919050565b634e487b7160e01b600052604160045260246000fd5b600082601f830112610a1857600080fd5b8135602067ffffffffffffffff80831115610a3557610a356109f1565b8260051b604051601f19603f83011681018181108482111715610a5a57610a5a6109f1565b604052938452858101830193838101925087851115610a7857600080fd5b83870191505b8482101561092357813583529183019190830190610a7e565b600080600080600080600080610100898b031215610ab457600080fd5b610abd896109e1565b9750610acb60208a016109e1565b9650604089013567ffffffffffffffff80821115610ae857600080fd5b610af48c838d01610a07565b975060608b0135965060808b0135955060a08b0135915080821115610b1857600080fd5b610b248c838d01610a07565b945060c08b0135915080821115610b3a57600080fd5b50610b478b828c01610a07565b92505060e089013590509295985092959890939650565b600060208284031215610b7057600080fd5b8135610b7b816109cc565b9392505050565b600060208284031215610b9457600080fd5b8151610b7b816109cc565b600081518084526020808501945080840160005b83811015610bcf57815187529582019590820190600101610bb3565b509495945050505050565b6001600160a01b0385168152608060208201819052600090610bfe90830186610b9f565b8281036040840152610c108186610b9f565b91505082606083015295945050505050565b600060208284031215610c3457600080fd5b5051919050565b6001600160a01b0384168152606060208201819052600090610c5f90830185610b9f565b9050826040830152949350505050565b634e487b7160e01b600052601160045260246000fd5b80820180821115610c9857610c98610c6f565b92915050565b81810381811115610c9857610c98610c6f565b6020808252602b908201527f496e697469616c697a61626c653a20636f6e7472616374206973206e6f74206960408201526a6e697469616c697a696e6760a81b606082015260800190565b600060208284031215610d0e57600080fd5b81518015158114610b7b57600080fd5b60005b83811015610d39578181015183820152602001610d21565b50506000910152565b60008251610d54818460208701610d1e565b9190910192915050565b6020815260008251806020840152610d7d816040850160208701610d1e565b601f01601f1916919091016040019291505056fea2646970667358221220a85d8d73bddb7868f28c45e33d9d69df1daef6a6db525032a35f328aa6bdcaf164736f6c63430008110033",
  "linkReferences": {},
  "deployedLinkReferences": {}
}