{
  "_format": "hh-sol-artifact-1",
  "contractName": "SwapRouter",
  "sourceName": "contracts/protocol/Trading/SwapRouter.sol",
  "abi": [
    {
      "anonymous": false,
      "inputs": [
        {
          "indexed": false,
          "internalType": "uint8",
          "name": "version",
          "type": "uint8"
        }
      ],
      "name": "Initialized",
      "type": "event"
    },
    {
      "anonymous": false,
      "inputs": [
        {
          "indexed": true,
          "internalType": "address",
          "name": "previousOwner",
          "type": "address"
        },
        {
          "indexed": true,
          "internalType": "address",
          "name": "newOwner",
          "type": "address"
        }
      ],
      "name": "OwnershipTransferred",
      "type": "event"
    },
    {
      "inputs": [
        {
          "internalType": "contract IAddressesProvider",
          "name": "addressesProvider",
          "type": "address"
        }
      ],
      "name": "initialize",
      "outputs": [],
      "stateMutability": "nonpayable",
      "type": "function"
    },
    {
      "inputs": [],
      "name": "owner",
      "outputs": [
        {
          "internalType": "address",
          "name": "",
          "type": "address"
        }
      ],
      "stateMutability": "view",
      "type": "function"
    },
    {
      "inputs": [],
      "name": "renounceOwnership",
      "outputs": [],
      "stateMutability": "nonpayable",
      "type": "function"
    },
    {
      "inputs": [
        {
          "internalType": "contract ITradingPool",
          "name": "buyPool",
          "type": "address"
        },
        {
          "internalType": "contract ITradingPool",
          "name": "sellPool",
          "type": "address"
        },
        {
          "internalType": "uint256[]",
          "name": "buyNftIds",
          "type": "uint256[]"
        },
        {
          "internalType": "uint256",
          "name": "maximumBuyPrice",
          "type": "uint256"
        },
        {
          "internalType": "uint256[]",
          "name": "sellNftIds",
          "type": "uint256[]"
        },
        {
          "internalType": "uint256[]",
          "name": "sellLps",
          "type": "uint256[]"
        },
        {
          "internalType": "uint256",
          "name": "minimumSellPrice",
          "type": "uint256"
        }
      ],
      "name": "swap",
      "outputs": [],
      "stateMutability": "nonpayable",
      "type": "function"
    },
    {
      "inputs": [
        {
          "internalType": "address",
          "name": "newOwner",
          "type": "address"
        }
      ],
      "name": "transferOwnership",
      "outputs": [],
      "stateMutability": "nonpayable",
      "type": "function"
    }
  ],
  "bytecode": "0x608060405234801561001057600080fd5b50610e8d806100206000396000f3fe608060405234801561001057600080fd5b50600436106100575760003560e01c8063715018a61461005c5780638da5cb5b14610066578063b967f11014610085578063c4d66de814610098578063f2fde38b146100ab575b600080fd5b6100646100be565b005b603354604080516001600160a01b039092168252519081900360200190f35b610064610093366004610b63565b6100d2565b6100646100a6366004610c24565b610496565b6100646100b9366004610c24565b6105c3565b6100c661063c565b6100d06000610696565b565b6100da6106e8565b856001600160a01b0316876001600160a01b0316036101405760405162461bcd60e51b815260206004820152601b60248201527f506f6f6c73206e65656420746f20626520646966666572656e742e000000000060448201526064015b60405180910390fd5b856001600160a01b03166321df0da76040518163ffffffff1660e01b8152600401602060405180830381865afa15801561017e573d6000803e3d6000fd5b505050506040513d601f19601f820116820180604052508101906101a29190610c48565b6001600160a01b0316876001600160a01b03166321df0da76040518163ffffffff1660e01b8152600401602060405180830381865afa1580156101e9573d6000803e3d6000fd5b505050506040513d601f19601f8201168201806040525081019061020d9190610c48565b6001600160a01b0316146102635760405162461bcd60e51b815260206004820152601a60248201527f556e6465726c79696e6720746f6b656e206d69736d617463682e0000000000006044820152606401610137565b6040516349591b5160e01b81526000906001600160a01b038816906349591b5190610298903390889088908890600401610ca0565b6020604051808303816000875af11580156102b7573d6000803e3d6000fd5b505050506040513d601f19601f820116820180604052508101906102db9190610ce8565b905060008286111561036c576102f18387610d17565b905061036c3330838b6001600160a01b03166321df0da76040518163ffffffff1660e01b8152600401602060405180830381865afa158015610337573d6000803e3d6000fd5b505050506040513d601f19601f8201168201806040525081019061035b9190610c48565b6001600160a01b0316929190610741565b60405163598f86b160e11b81526000906001600160a01b038a169063b31f0d629061039f9033908c908c90600401610d30565b6020604051808303816000875af11580156103be573d6000803e3d6000fd5b505050506040513d601f19601f820116820180604052508101906103e29190610ce8565b9050806103ef8385610d64565b11156104805761048033826104048587610d64565b61040e9190610d17565b8b6001600160a01b03166321df0da76040518163ffffffff1660e01b8152600401602060405180830381865afa15801561044c573d6000803e3d6000fd5b505050506040513d601f19601f820116820180604052508101906104709190610c48565b6001600160a01b031691906107b2565b50505061048d6001606555565b50505050505050565b600054610100900460ff16158080156104b65750600054600160ff909116105b806104d05750303b1580156104d0575060005460ff166001145b6105335760405162461bcd60e51b815260206004820152602e60248201527f496e697469616c697a61626c653a20636f6e747261637420697320616c72656160448201526d191e481a5b9a5d1a585b1a5e995960921b6064820152608401610137565b6000805460ff191660011790558015610556576000805461ff0019166101001790555b61055e6107e7565b609780546001600160a01b0319166001600160a01b03841617905580156105bf576000805461ff0019169055604051600181527f7f26b83ff96e1f2b6a682f133852f6798a09c465da95921460cefb38474024989060200160405180910390a15b5050565b6105cb61063c565b6001600160a01b0381166106305760405162461bcd60e51b815260206004820152602660248201527f4f776e61626c653a206e6577206f776e657220697320746865207a65726f206160448201526564647265737360d01b6064820152608401610137565b61063981610696565b50565b6033546001600160a01b031633146100d05760405162461bcd60e51b815260206004820181905260248201527f4f776e61626c653a2063616c6c6572206973206e6f7420746865206f776e65726044820152606401610137565b603380546001600160a01b038381166001600160a01b0319831681179093556040519116919082907f8be0079c531659141344cd1fd0a4f28419497f9722a3daafe3b4186f6b6457e090600090a35050565b60026065540361073a5760405162461bcd60e51b815260206004820152601f60248201527f5265656e7472616e637947756172643a207265656e7472616e742063616c6c006044820152606401610137565b6002606555565b6040516001600160a01b03808516602483015283166044820152606481018290526107ac9085906323b872dd60e01b906084015b60408051601f198184030181529190526020810180516001600160e01b03166001600160e01b031990931692909217909152610816565b50505050565b6040516001600160a01b0383166024820152604481018290526107e290849063a9059cbb60e01b90606401610775565b505050565b600054610100900460ff1661080e5760405162461bcd60e51b815260040161013790610d77565b6100d06108e8565b600061086b826040518060400160405280602081526020017f5361666545524332303a206c6f772d6c6576656c2063616c6c206661696c6564815250856001600160a01b03166109189092919063ffffffff16565b8051909150156107e257808060200190518101906108899190610dc2565b6107e25760405162461bcd60e51b815260206004820152602a60248201527f5361666545524332303a204552433230206f7065726174696f6e20646964206e6044820152691bdd081cdd58d8d9595960b21b6064820152608401610137565b600054610100900460ff1661090f5760405162461bcd60e51b815260040161013790610d77565b6100d033610696565b6060610927848460008561092f565b949350505050565b6060824710156109905760405162461bcd60e51b815260206004820152602660248201527f416464726573733a20696e73756666696369656e742062616c616e636520666f6044820152651c8818d85b1b60d21b6064820152608401610137565b600080866001600160a01b031685876040516109ac9190610e08565b60006040518083038185875af1925050503d80600081146109e9576040519150601f19603f3d011682016040523d82523d6000602084013e6109ee565b606091505b50915091506109ff87838387610a0a565b979650505050505050565b60608315610a79578251600003610a72576001600160a01b0385163b610a725760405162461bcd60e51b815260206004820152601d60248201527f416464726573733a2063616c6c20746f206e6f6e2d636f6e74726163740000006044820152606401610137565b5081610927565b6109278383815115610a8e5781518083602001fd5b8060405162461bcd60e51b81526004016101379190610e24565b6001600160a01b038116811461063957600080fd5b634e487b7160e01b600052604160045260246000fd5b600082601f830112610ae457600080fd5b8135602067ffffffffffffffff80831115610b0157610b01610abd565b8260051b604051601f19603f83011681018181108482111715610b2657610b26610abd565b604052938452858101830193838101925087851115610b4457600080fd5b83870191505b848210156109ff57813583529183019190830190610b4a565b600080600080600080600060e0888a031215610b7e57600080fd5b8735610b8981610aa8565b96506020880135610b9981610aa8565b9550604088013567ffffffffffffffff80821115610bb657600080fd5b610bc28b838c01610ad3565b965060608a0135955060808a0135915080821115610bdf57600080fd5b610beb8b838c01610ad3565b945060a08a0135915080821115610c0157600080fd5b50610c0e8a828b01610ad3565b92505060c0880135905092959891949750929550565b600060208284031215610c3657600080fd5b8135610c4181610aa8565b9392505050565b600060208284031215610c5a57600080fd5b8151610c4181610aa8565b600081518084526020808501945080840160005b83811015610c9557815187529582019590820190600101610c79565b509495945050505050565b6001600160a01b0385168152608060208201819052600090610cc490830186610c65565b8281036040840152610cd68186610c65565b91505082606083015295945050505050565b600060208284031215610cfa57600080fd5b5051919050565b634e487b7160e01b600052601160045260246000fd5b81810381811115610d2a57610d2a610d01565b92915050565b6001600160a01b0384168152606060208201819052600090610d5490830185610c65565b9050826040830152949350505050565b80820180821115610d2a57610d2a610d01565b6020808252602b908201527f496e697469616c697a61626c653a20636f6e7472616374206973206e6f74206960408201526a6e697469616c697a696e6760a81b606082015260800190565b600060208284031215610dd457600080fd5b81518015158114610c4157600080fd5b60005b83811015610dff578181015183820152602001610de7565b50506000910152565b60008251610e1a818460208701610de4565b9190910192915050565b6020815260008251806020840152610e43816040850160208701610de4565b601f01601f1916919091016040019291505056fea2646970667358221220073f3cf3c9a9d7c164e3e1c6db2078fd8703f906a7c19677bc8f6c0557d624b564736f6c63430008110033",
  "linkReferences": {},
  "deployedLinkReferences": {}
}