{
  "_format": "hh-sol-artifact-1",
  "contractName": "SwapRouter",
  "sourceName": "contracts/protocol/Trading/SwapRouter.sol",
  "abi": [
    {
      "inputs": [
        {
          "internalType": "contract IAddressesProvider",
          "name": "addressesProvider",
          "type": "address"
        }
      ],
      "stateMutability": "nonpayable",
      "type": "constructor"
    },
    {
      "anonymous": false,
      "inputs": [
        {
          "indexed": true,
          "internalType": "address",
          "name": "previousOwner",
          "type": "address"
        },
        {
          "indexed": true,
          "internalType": "address",
          "name": "newOwner",
          "type": "address"
        }
      ],
      "name": "OwnershipTransferred",
      "type": "event"
    },
    {
      "inputs": [
        {
          "internalType": "address",
          "name": "token",
          "type": "address"
        },
        {
          "internalType": "address",
          "name": "tradingPool",
          "type": "address"
        }
      ],
      "name": "approveTradingPool",
      "outputs": [],
      "stateMutability": "nonpayable",
      "type": "function"
    },
    {
      "inputs": [],
      "name": "owner",
      "outputs": [
        {
          "internalType": "address",
          "name": "",
          "type": "address"
        }
      ],
      "stateMutability": "view",
      "type": "function"
    },
    {
      "inputs": [],
      "name": "renounceOwnership",
      "outputs": [],
      "stateMutability": "nonpayable",
      "type": "function"
    },
    {
      "inputs": [
        {
          "internalType": "contract ITradingPool",
          "name": "buyPool",
          "type": "address"
        },
        {
          "internalType": "contract ITradingPool",
          "name": "sellPool",
          "type": "address"
        },
        {
          "internalType": "uint256[]",
          "name": "buyNftIds",
          "type": "uint256[]"
        },
        {
          "internalType": "uint256",
          "name": "maximumBuyPrice",
          "type": "uint256"
        },
        {
          "internalType": "uint256[]",
          "name": "sellNftIds",
          "type": "uint256[]"
        },
        {
          "internalType": "uint256[]",
          "name": "sellLps",
          "type": "uint256[]"
        },
        {
          "internalType": "uint256",
          "name": "minimumSellPrice",
          "type": "uint256"
        }
      ],
      "name": "swap",
      "outputs": [
        {
          "internalType": "uint256",
          "name": "",
          "type": "uint256"
        }
      ],
      "stateMutability": "nonpayable",
      "type": "function"
    },
    {
      "inputs": [
        {
          "internalType": "address",
          "name": "newOwner",
          "type": "address"
        }
      ],
      "name": "transferOwnership",
      "outputs": [],
      "stateMutability": "nonpayable",
      "type": "function"
    }
  ],
  "bytecode": "0x608060405234801561001057600080fd5b5060405161100838038061100883398101604081905261002f916100b1565b61003833610061565b60018055600280546001600160a01b0319166001600160a01b03929092169190911790556100e1565b600080546001600160a01b038381166001600160a01b0319831681178455604051919092169283917f8be0079c531659141344cd1fd0a4f28419497f9722a3daafe3b4186f6b6457e09190a35050565b6000602082840312156100c357600080fd5b81516001600160a01b03811681146100da57600080fd5b9392505050565b610f18806100f06000396000f3fe608060405234801561001057600080fd5b50600436106100575760003560e01c8063715018a61461005c5780638da5cb5b14610066578063b967f11014610086578063ea922827146100a7578063f2fde38b146100ba575b600080fd5b6100646100cd565b005b6000546040516001600160a01b0390911681526020015b60405180910390f35b610099610094366004610c00565b6100e1565b60405190815260200161007d565b6100646100b5366004610cc1565b6104af565b6100646100c8366004610cfa565b6105bc565b6100d5610635565b6100df600061068f565b565b60006100eb6106df565b866001600160a01b0316886001600160a01b0316036101515760405162461bcd60e51b815260206004820152601b60248201527f506f6f6c73206e65656420746f20626520646966666572656e742e000000000060448201526064015b60405180910390fd5b866001600160a01b03166321df0da76040518163ffffffff1660e01b8152600401602060405180830381865afa15801561018f573d6000803e3d6000fd5b505050506040513d601f19601f820116820180604052508101906101b39190610d1e565b6001600160a01b0316886001600160a01b03166321df0da76040518163ffffffff1660e01b8152600401602060405180830381865afa1580156101fa573d6000803e3d6000fd5b505050506040513d601f19601f8201168201806040525081019061021e9190610d1e565b6001600160a01b0316146102745760405162461bcd60e51b815260206004820152601a60248201527f556e6465726c79696e6720746f6b656e206d69736d617463682e0000000000006044820152606401610148565b6040516349591b5160e01b81526000906001600160a01b038916906349591b51906102a9903390899089908990600401610d76565b6020604051808303816000875af11580156102c8573d6000803e3d6000fd5b505050506040513d601f19601f820116820180604052508101906102ec9190610dbe565b905060008387111561037d576103028488610ded565b905061037d3330838c6001600160a01b03166321df0da76040518163ffffffff1660e01b8152600401602060405180830381865afa158015610348573d6000803e3d6000fd5b505050506040513d601f19601f8201168201806040525081019061036c9190610d1e565b6001600160a01b0316929190610738565b60405163598f86b160e11b81526000906001600160a01b038c169063b31f0d62906103b09033908d908d90600401610e06565b6020604051808303816000875af11580156103cf573d6000803e3d6000fd5b505050506040513d601f19601f820116820180604052508101906103f39190610dbe565b90506000816104028486610e3a565b111561049657816104138486610e3a565b61041d9190610ded565b905061049633828d6001600160a01b03166321df0da76040518163ffffffff1660e01b8152600401602060405180830381865afa158015610462573d6000803e3d6000fd5b505050506040513d601f19601f820116820180604052508101906104869190610d1e565b6001600160a01b031691906107a9565b93505050506104a460018055565b979650505050505050565b600260009054906101000a90046001600160a01b03166001600160a01b031663ca1470ea6040518163ffffffff1660e01b8152600401602060405180830381865afa158015610502573d6000803e3d6000fd5b505050506040513d601f19601f820116820180604052508101906105269190610d1e565b6001600160a01b0316336001600160a01b0316146105a25760405162461bcd60e51b815260206004820152603360248201527f4f6e6c792074726164696e6720706f6f6c20666163746f72792063616e206170604482015272383937bb32903a3930b234b733903837b7b61760691b6064820152608401610148565b6105b86001600160a01b038316826000196107de565b5050565b6105c4610635565b6001600160a01b0381166106295760405162461bcd60e51b815260206004820152602660248201527f4f776e61626c653a206e6577206f776e657220697320746865207a65726f206160448201526564647265737360d01b6064820152608401610148565b6106328161068f565b50565b6000546001600160a01b031633146100df5760405162461bcd60e51b815260206004820181905260248201527f4f776e61626c653a2063616c6c6572206973206e6f7420746865206f776e65726044820152606401610148565b600080546001600160a01b038381166001600160a01b0319831681178455604051919092169283917f8be0079c531659141344cd1fd0a4f28419497f9722a3daafe3b4186f6b6457e09190a35050565b6002600154036107315760405162461bcd60e51b815260206004820152601f60248201527f5265656e7472616e637947756172643a207265656e7472616e742063616c6c006044820152606401610148565b6002600155565b6040516001600160a01b03808516602483015283166044820152606481018290526107a39085906323b872dd60e01b906084015b60408051601f198184030181529190526020810180516001600160e01b03166001600160e01b0319909316929092179091526108f3565b50505050565b6040516001600160a01b0383166024820152604481018290526107d990849063a9059cbb60e01b9060640161076c565b505050565b8015806108585750604051636eb1769f60e11b81523060048201526001600160a01b03838116602483015284169063dd62ed3e90604401602060405180830381865afa158015610832573d6000803e3d6000fd5b505050506040513d601f19601f820116820180604052508101906108569190610dbe565b155b6108c35760405162461bcd60e51b815260206004820152603660248201527f5361666545524332303a20617070726f76652066726f6d206e6f6e2d7a65726f60448201527520746f206e6f6e2d7a65726f20616c6c6f77616e636560501b6064820152608401610148565b6040516001600160a01b0383166024820152604481018290526107d990849063095ea7b360e01b9060640161076c565b6000610948826040518060400160405280602081526020017f5361666545524332303a206c6f772d6c6576656c2063616c6c206661696c6564815250856001600160a01b03166109c59092919063ffffffff16565b8051909150156107d957808060200190518101906109669190610e4d565b6107d95760405162461bcd60e51b815260206004820152602a60248201527f5361666545524332303a204552433230206f7065726174696f6e20646964206e6044820152691bdd081cdd58d8d9595960b21b6064820152608401610148565b60606109d484846000856109dc565b949350505050565b606082471015610a3d5760405162461bcd60e51b815260206004820152602660248201527f416464726573733a20696e73756666696369656e742062616c616e636520666f6044820152651c8818d85b1b60d21b6064820152608401610148565b600080866001600160a01b03168587604051610a599190610e93565b60006040518083038185875af1925050503d8060008114610a96576040519150601f19603f3d011682016040523d82523d6000602084013e610a9b565b606091505b50915091506104a48783838760608315610b16578251600003610b0f576001600160a01b0385163b610b0f5760405162461bcd60e51b815260206004820152601d60248201527f416464726573733a2063616c6c20746f206e6f6e2d636f6e74726163740000006044820152606401610148565b50816109d4565b6109d48383815115610b2b5781518083602001fd5b8060405162461bcd60e51b81526004016101489190610eaf565b6001600160a01b038116811461063257600080fd5b634e487b7160e01b600052604160045260246000fd5b600082601f830112610b8157600080fd5b8135602067ffffffffffffffff80831115610b9e57610b9e610b5a565b8260051b604051601f19603f83011681018181108482111715610bc357610bc3610b5a565b604052938452858101830193838101925087851115610be157600080fd5b83870191505b848210156104a457813583529183019190830190610be7565b600080600080600080600060e0888a031215610c1b57600080fd5b8735610c2681610b45565b96506020880135610c3681610b45565b9550604088013567ffffffffffffffff80821115610c5357600080fd5b610c5f8b838c01610b70565b965060608a0135955060808a0135915080821115610c7c57600080fd5b610c888b838c01610b70565b945060a08a0135915080821115610c9e57600080fd5b50610cab8a828b01610b70565b92505060c0880135905092959891949750929550565b60008060408385031215610cd457600080fd5b8235610cdf81610b45565b91506020830135610cef81610b45565b809150509250929050565b600060208284031215610d0c57600080fd5b8135610d1781610b45565b9392505050565b600060208284031215610d3057600080fd5b8151610d1781610b45565b600081518084526020808501945080840160005b83811015610d6b57815187529582019590820190600101610d4f565b509495945050505050565b6001600160a01b0385168152608060208201819052600090610d9a90830186610d3b565b8281036040840152610dac8186610d3b565b91505082606083015295945050505050565b600060208284031215610dd057600080fd5b5051919050565b634e487b7160e01b600052601160045260246000fd5b81810381811115610e0057610e00610dd7565b92915050565b6001600160a01b0384168152606060208201819052600090610e2a90830185610d3b565b9050826040830152949350505050565b80820180821115610e0057610e00610dd7565b600060208284031215610e5f57600080fd5b81518015158114610d1757600080fd5b60005b83811015610e8a578181015183820152602001610e72565b50506000910152565b60008251610ea5818460208701610e6f565b9190910192915050565b6020815260008251806020840152610ece816040850160208701610e6f565b601f01601f1916919091016040019291505056fea2646970667358221220c2795f539837573d5ef63867dbea111a8951cea3fa3416425f68cb26484ce8da64736f6c63430008110033",
  "linkReferences": {},
  "deployedLinkReferences": {}
}