{
  "_format": "hh-sol-artifact-1",
  "contractName": "TestNFT",
  "sourceName": "contracts/test/TestNFT.sol",
  "abi": [
    {
      "inputs": [
        {
          "internalType": "string",
          "name": "name",
          "type": "string"
        },
        {
          "internalType": "string",
          "name": "symbol",
          "type": "string"
        }
      ],
      "stateMutability": "nonpayable",
      "type": "constructor"
    },
    {
      "anonymous": false,
      "inputs": [
        {
          "indexed": true,
          "internalType": "address",
          "name": "owner",
          "type": "address"
        },
        {
          "indexed": true,
          "internalType": "address",
          "name": "approved",
          "type": "address"
        },
        {
          "indexed": true,
          "internalType": "uint256",
          "name": "tokenId",
          "type": "uint256"
        }
      ],
      "name": "Approval",
      "type": "event"
    },
    {
      "anonymous": false,
      "inputs": [
        {
          "indexed": true,
          "internalType": "address",
          "name": "owner",
          "type": "address"
        },
        {
          "indexed": true,
          "internalType": "address",
          "name": "operator",
          "type": "address"
        },
        {
          "indexed": false,
          "internalType": "bool",
          "name": "approved",
          "type": "bool"
        }
      ],
      "name": "ApprovalForAll",
      "type": "event"
    },
    {
      "anonymous": false,
      "inputs": [
        {
          "indexed": false,
          "internalType": "address",
          "name": "owner",
          "type": "address"
        },
        {
          "indexed": false,
          "internalType": "uint256",
          "name": "tokenId",
          "type": "uint256"
        }
      ],
      "name": "Mint",
      "type": "event"
    },
    {
      "anonymous": false,
      "inputs": [
        {
          "indexed": true,
          "internalType": "address",
          "name": "from",
          "type": "address"
        },
        {
          "indexed": true,
          "internalType": "address",
          "name": "to",
          "type": "address"
        },
        {
          "indexed": true,
          "internalType": "uint256",
          "name": "tokenId",
          "type": "uint256"
        }
      ],
      "name": "Transfer",
      "type": "event"
    },
    {
      "inputs": [
        {
          "internalType": "address",
          "name": "to",
          "type": "address"
        },
        {
          "internalType": "uint256",
          "name": "tokenId",
          "type": "uint256"
        }
      ],
      "name": "approve",
      "outputs": [],
      "stateMutability": "nonpayable",
      "type": "function"
    },
    {
      "inputs": [
        {
          "internalType": "address",
          "name": "owner",
          "type": "address"
        }
      ],
      "name": "balanceOf",
      "outputs": [
        {
          "internalType": "uint256",
          "name": "",
          "type": "uint256"
        }
      ],
      "stateMutability": "view",
      "type": "function"
    },
    {
      "inputs": [
        {
          "internalType": "uint256",
          "name": "tokenId",
          "type": "uint256"
        }
      ],
      "name": "getApproved",
      "outputs": [
        {
          "internalType": "address",
          "name": "",
          "type": "address"
        }
      ],
      "stateMutability": "view",
      "type": "function"
    },
    {
      "inputs": [
        {
          "internalType": "address",
          "name": "owner",
          "type": "address"
        },
        {
          "internalType": "address",
          "name": "operator",
          "type": "address"
        }
      ],
      "name": "isApprovedForAll",
      "outputs": [
        {
          "internalType": "bool",
          "name": "",
          "type": "bool"
        }
      ],
      "stateMutability": "view",
      "type": "function"
    },
    {
      "inputs": [
        {
          "internalType": "address",
          "name": "owner",
          "type": "address"
        }
      ],
      "name": "mint",
      "outputs": [
        {
          "internalType": "uint256",
          "name": "",
          "type": "uint256"
        }
      ],
      "stateMutability": "nonpayable",
      "type": "function"
    },
    {
      "inputs": [],
      "name": "name",
      "outputs": [
        {
          "internalType": "string",
          "name": "",
          "type": "string"
        }
      ],
      "stateMutability": "view",
      "type": "function"
    },
    {
      "inputs": [
        {
          "internalType": "uint256",
          "name": "tokenId",
          "type": "uint256"
        }
      ],
      "name": "ownerOf",
      "outputs": [
        {
          "internalType": "address",
          "name": "",
          "type": "address"
        }
      ],
      "stateMutability": "view",
      "type": "function"
    },
    {
      "inputs": [
        {
          "internalType": "address",
          "name": "from",
          "type": "address"
        },
        {
          "internalType": "address",
          "name": "to",
          "type": "address"
        },
        {
          "internalType": "uint256",
          "name": "tokenId",
          "type": "uint256"
        }
      ],
      "name": "safeTransferFrom",
      "outputs": [],
      "stateMutability": "nonpayable",
      "type": "function"
    },
    {
      "inputs": [
        {
          "internalType": "address",
          "name": "from",
          "type": "address"
        },
        {
          "internalType": "address",
          "name": "to",
          "type": "address"
        },
        {
          "internalType": "uint256",
          "name": "tokenId",
          "type": "uint256"
        },
        {
          "internalType": "bytes",
          "name": "data",
          "type": "bytes"
        }
      ],
      "name": "safeTransferFrom",
      "outputs": [],
      "stateMutability": "nonpayable",
      "type": "function"
    },
    {
      "inputs": [
        {
          "internalType": "address",
          "name": "operator",
          "type": "address"
        },
        {
          "internalType": "bool",
          "name": "approved",
          "type": "bool"
        }
      ],
      "name": "setApprovalForAll",
      "outputs": [],
      "stateMutability": "nonpayable",
      "type": "function"
    },
    {
      "inputs": [
        {
          "internalType": "bytes4",
          "name": "interfaceId",
          "type": "bytes4"
        }
      ],
      "name": "supportsInterface",
      "outputs": [
        {
          "internalType": "bool",
          "name": "",
          "type": "bool"
        }
      ],
      "stateMutability": "view",
      "type": "function"
    },
    {
      "inputs": [],
      "name": "symbol",
      "outputs": [
        {
          "internalType": "string",
          "name": "",
          "type": "string"
        }
      ],
      "stateMutability": "view",
      "type": "function"
    },
    {
      "inputs": [
        {
          "internalType": "uint256",
          "name": "index",
          "type": "uint256"
        }
      ],
      "name": "tokenByIndex",
      "outputs": [
        {
          "internalType": "uint256",
          "name": "",
          "type": "uint256"
        }
      ],
      "stateMutability": "view",
      "type": "function"
    },
    {
      "inputs": [
        {
          "internalType": "address",
          "name": "owner",
          "type": "address"
        },
        {
          "internalType": "uint256",
          "name": "index",
          "type": "uint256"
        }
      ],
      "name": "tokenOfOwnerByIndex",
      "outputs": [
        {
          "internalType": "uint256",
          "name": "",
          "type": "uint256"
        }
      ],
      "stateMutability": "view",
      "type": "function"
    },
    {
      "inputs": [
        {
          "internalType": "uint256",
          "name": "",
          "type": "uint256"
        }
      ],
      "name": "tokenURI",
      "outputs": [
        {
          "internalType": "string",
          "name": "",
          "type": "string"
        }
      ],
      "stateMutability": "pure",
      "type": "function"
    },
    {
      "inputs": [],
      "name": "totalSupply",
      "outputs": [
        {
          "internalType": "uint256",
          "name": "",
          "type": "uint256"
        }
      ],
      "stateMutability": "view",
      "type": "function"
    },
    {
      "inputs": [
        {
          "internalType": "address",
          "name": "from",
          "type": "address"
        },
        {
          "internalType": "address",
          "name": "to",
          "type": "address"
        },
        {
          "internalType": "uint256",
          "name": "tokenId",
          "type": "uint256"
        }
      ],
      "name": "transferFrom",
      "outputs": [],
      "stateMutability": "nonpayable",
      "type": "function"
    }
  ],
  "bytecode": "0x60806040523480156200001157600080fd5b506040516200195f3803806200195f833981016040819052620000349162000123565b818160006200004483826200021c565b5060016200005382826200021c565b5050505050620002e8565b634e487b7160e01b600052604160045260246000fd5b600082601f8301126200008657600080fd5b81516001600160401b0380821115620000a357620000a36200005e565b604051601f8301601f19908116603f01168101908282118183101715620000ce57620000ce6200005e565b81604052838152602092508683858801011115620000eb57600080fd5b600091505b838210156200010f5785820183015181830184015290820190620000f0565b600093810190920192909252949350505050565b600080604083850312156200013757600080fd5b82516001600160401b03808211156200014f57600080fd5b6200015d8683870162000074565b935060208501519150808211156200017457600080fd5b50620001838582860162000074565b9150509250929050565b600181811c90821680620001a257607f821691505b602082108103620001c357634e487b7160e01b600052602260045260246000fd5b50919050565b601f8211156200021757600081815260208120601f850160051c81016020861015620001f25750805b601f850160051c820191505b818110156200021357828155600101620001fe565b5050505b505050565b81516001600160401b038111156200023857620002386200005e565b62000250816200024984546200018d565b84620001c9565b602080601f8311600181146200028857600084156200026f5750858301515b600019600386901b1c1916600185901b17855562000213565b600085815260208120601f198616915b82811015620002b95788860151825594840194600190910190840162000298565b5085821015620002d85787850151600019600388901b60f8161c191681555b5050505050600190811b01905550565b61166780620002f86000396000f3fe608060405234801561001057600080fd5b506004361061010b5760003560e01c80634f6ccce7116100a257806395d89b411161007157806395d89b4114610224578063a22cb4651461022c578063b88d4fde1461023f578063c87b56dd14610252578063e985e9c51461026557600080fd5b80634f6ccce7146101d85780636352211e146101eb5780636a627842146101fe57806370a082311461021157600080fd5b806318160ddd116100de57806318160ddd1461018d57806323b872dd1461019f5780632f745c59146101b257806342842e0e146101c557600080fd5b806301ffc9a71461011057806306fdde0314610138578063081812fc1461014d578063095ea7b314610178575b600080fd5b61012361011e36600461117b565b6102a1565b60405190151581526020015b60405180910390f35b6101406102cc565b60405161012f91906111e5565b61016061015b3660046111f8565b61035e565b6040516001600160a01b03909116815260200161012f565b61018b61018636600461122d565b610385565b005b6008545b60405190815260200161012f565b61018b6101ad366004611257565b61049f565b6101916101c036600461122d565b6104d0565b61018b6101d3366004611257565b610566565b6101916101e63660046111f8565b610581565b6101606101f93660046111f8565b610614565b61019161020c366004611293565b610674565b61019161021f366004611293565b6106d4565b61014061075a565b61018b61023a3660046112ae565b610769565b61018b61024d366004611300565b610778565b6101406102603660046111f8565b6107b0565b6101236102733660046113dc565b6001600160a01b03918216600090815260056020908152604080832093909416825291909152205460ff1690565b60006001600160e01b03198216635b5e139f60e01b14806102c657506102c6826107d1565b92915050565b6060600080546102db9061140f565b80601f01602080910402602001604051908101604052809291908181526020018280546103079061140f565b80156103545780601f1061032957610100808354040283529160200191610354565b820191906000526020600020905b81548152906001019060200180831161033757829003601f168201915b5050505050905090565b6000610369826107f6565b506000908152600460205260409020546001600160a01b031690565b600061039082610614565b9050806001600160a01b0316836001600160a01b0316036104025760405162461bcd60e51b815260206004820152602160248201527f4552433732313a20617070726f76616c20746f2063757272656e74206f776e656044820152603960f91b60648201526084015b60405180910390fd5b336001600160a01b038216148061041e575061041e8133610273565b6104905760405162461bcd60e51b815260206004820152603d60248201527f4552433732313a20617070726f76652063616c6c6572206973206e6f7420746f60448201527f6b656e206f776e6572206f7220617070726f76656420666f7220616c6c00000060648201526084016103f9565b61049a8383610858565b505050565b6104a933826108c6565b6104c55760405162461bcd60e51b81526004016103f990611449565b61049a838383610945565b60006104db836106d4565b821061053d5760405162461bcd60e51b815260206004820152602b60248201527f455243373231456e756d657261626c653a206f776e657220696e646578206f7560448201526a74206f6620626f756e647360a81b60648201526084016103f9565b506001600160a01b03919091166000908152600660209081526040808320938352929052205490565b61049a83838360405180602001604052806000815250610778565b600061058c60085490565b82106105ef5760405162461bcd60e51b815260206004820152602c60248201527f455243373231456e756d657261626c653a20676c6f62616c20696e646578206f60448201526b7574206f6620626f756e647360a01b60648201526084016103f9565b6008828154811061060257610602611496565b90600052602060002001549050919050565b6000818152600260205260408120546001600160a01b0316806102c65760405162461bcd60e51b8152602060048201526018602482015277115490cdcc8c4e881a5b9d985b1a59081d1bdad95b88125160421b60448201526064016103f9565b60008061068060085490565b905061068c8382610ab6565b604080516001600160a01b0385168152602081018390527f0f6798a560793a54c3bcfe86a93cde1e73087d944c0ea20544137d4121396885910160405180910390a192915050565b60006001600160a01b03821661073e5760405162461bcd60e51b815260206004820152602960248201527f4552433732313a2061646472657373207a65726f206973206e6f7420612076616044820152683634b21037bbb732b960b91b60648201526084016103f9565b506001600160a01b031660009081526003602052604090205490565b6060600180546102db9061140f565b610774338383610c4f565b5050565b61078233836108c6565b61079e5760405162461bcd60e51b81526004016103f990611449565b6107aa84848484610d1d565b50505050565b60606040518060800160405280605d81526020016115d5605d913992915050565b60006001600160e01b0319821663780e9d6360e01b14806102c657506102c682610d50565b6000818152600260205260409020546001600160a01b03166108555760405162461bcd60e51b8152602060048201526018602482015277115490cdcc8c4e881a5b9d985b1a59081d1bdad95b88125160421b60448201526064016103f9565b50565b600081815260046020526040902080546001600160a01b0319166001600160a01b038416908117909155819061088d82610614565b6001600160a01b03167f8c5be1e5ebec7d5bd14f71427d1e84f3dd0314c0f7b2291e5b200ac8c7c3b92560405160405180910390a45050565b6000806108d283610614565b9050806001600160a01b0316846001600160a01b0316148061091957506001600160a01b0380821660009081526005602090815260408083209388168352929052205460ff165b8061093d5750836001600160a01b03166109328461035e565b6001600160a01b0316145b949350505050565b826001600160a01b031661095882610614565b6001600160a01b03161461097e5760405162461bcd60e51b81526004016103f9906114ac565b6001600160a01b0382166109e05760405162461bcd60e51b8152602060048201526024808201527f4552433732313a207472616e7366657220746f20746865207a65726f206164646044820152637265737360e01b60648201526084016103f9565b6109ed8383836001610da0565b826001600160a01b0316610a0082610614565b6001600160a01b031614610a265760405162461bcd60e51b81526004016103f9906114ac565b600081815260046020908152604080832080546001600160a01b03199081169091556001600160a01b0387811680865260038552838620805460001901905590871680865283862080546001019055868652600290945282852080549092168417909155905184937fddf252ad1be2c89b69c2b068fc378daa952ba7f163c4a11628f55a4df523b3ef91a4505050565b6001600160a01b038216610b0c5760405162461bcd60e51b815260206004820181905260248201527f4552433732313a206d696e7420746f20746865207a65726f206164647265737360448201526064016103f9565b6000818152600260205260409020546001600160a01b031615610b715760405162461bcd60e51b815260206004820152601c60248201527f4552433732313a20746f6b656e20616c7265616479206d696e7465640000000060448201526064016103f9565b610b7f600083836001610da0565b6000818152600260205260409020546001600160a01b031615610be45760405162461bcd60e51b815260206004820152601c60248201527f4552433732313a20746f6b656e20616c7265616479206d696e7465640000000060448201526064016103f9565b6001600160a01b038216600081815260036020908152604080832080546001019055848352600290915280822080546001600160a01b0319168417905551839291907fddf252ad1be2c89b69c2b068fc378daa952ba7f163c4a11628f55a4df523b3ef908290a45050565b816001600160a01b0316836001600160a01b031603610cb05760405162461bcd60e51b815260206004820152601960248201527f4552433732313a20617070726f766520746f2063616c6c65720000000000000060448201526064016103f9565b6001600160a01b03838116600081815260056020908152604080832094871680845294825291829020805460ff191686151590811790915591519182527f17307eab39ab6107e8899845ad3d59bd9653f200f220920489ca2b5937696c31910160405180910390a3505050565b610d28848484610945565b610d3484848484610ed4565b6107aa5760405162461bcd60e51b81526004016103f9906114f1565b60006001600160e01b031982166380ac58cd60e01b1480610d8157506001600160e01b03198216635b5e139f60e01b145b806102c657506301ffc9a760e01b6001600160e01b03198316146102c6565b6001811115610e0f5760405162461bcd60e51b815260206004820152603560248201527f455243373231456e756d657261626c653a20636f6e7365637574697665207472604482015274185b9cd9995c9cc81b9bdd081cdd5c1c1bdc9d1959605a1b60648201526084016103f9565b816001600160a01b038516610e6b57610e6681600880546000838152600960205260408120829055600182018355919091527ff3f7a9fe364faab93b216da50a3214154f22a0a2b415b23a84c8169e8b636ee30155565b610e8e565b836001600160a01b0316856001600160a01b031614610e8e57610e8e8582610fd5565b6001600160a01b038416610eaa57610ea581611072565b610ecd565b846001600160a01b0316846001600160a01b031614610ecd57610ecd8482611121565b5050505050565b60006001600160a01b0384163b15610fca57604051630a85bd0160e11b81526001600160a01b0385169063150b7a0290610f18903390899088908890600401611543565b6020604051808303816000875af1925050508015610f53575060408051601f3d908101601f19168201909252610f5091810190611580565b60015b610fb0573d808015610f81576040519150601f19603f3d011682016040523d82523d6000602084013e610f86565b606091505b508051600003610fa85760405162461bcd60e51b81526004016103f9906114f1565b805181602001fd5b6001600160e01b031916630a85bd0160e11b14905061093d565b506001949350505050565b60006001610fe2846106d4565b610fec919061159d565b60008381526007602052604090205490915080821461103f576001600160a01b03841660009081526006602090815260408083208584528252808320548484528184208190558352600790915290208190555b5060009182526007602090815260408084208490556001600160a01b039094168352600681528383209183525290812055565b6008546000906110849060019061159d565b600083815260096020526040812054600880549394509092849081106110ac576110ac611496565b9060005260206000200154905080600883815481106110cd576110cd611496565b6000918252602080832090910192909255828152600990915260408082208490558582528120556008805480611105576111056115be565b6001900381819060005260206000200160009055905550505050565b600061112c836106d4565b6001600160a01b039093166000908152600660209081526040808320868452825280832085905593825260079052919091209190915550565b6001600160e01b03198116811461085557600080fd5b60006020828403121561118d57600080fd5b813561119881611165565b9392505050565b6000815180845260005b818110156111c5576020818501810151868301820152016111a9565b506000602082860101526020601f19601f83011685010191505092915050565b602081526000611198602083018461119f565b60006020828403121561120a57600080fd5b5035919050565b80356001600160a01b038116811461122857600080fd5b919050565b6000806040838503121561124057600080fd5b61124983611211565b946020939093013593505050565b60008060006060848603121561126c57600080fd5b61127584611211565b925061128360208501611211565b9150604084013590509250925092565b6000602082840312156112a557600080fd5b61119882611211565b600080604083850312156112c157600080fd5b6112ca83611211565b9150602083013580151581146112df57600080fd5b809150509250929050565b634e487b7160e01b600052604160045260246000fd5b6000806000806080858703121561131657600080fd5b61131f85611211565b935061132d60208601611211565b925060408501359150606085013567ffffffffffffffff8082111561135157600080fd5b818701915087601f83011261136557600080fd5b813581811115611377576113776112ea565b604051601f8201601f19908116603f0116810190838211818310171561139f5761139f6112ea565b816040528281528a60208487010111156113b857600080fd5b82602086016020830137600060208483010152809550505050505092959194509250565b600080604083850312156113ef57600080fd5b6113f883611211565b915061140660208401611211565b90509250929050565b600181811c9082168061142357607f821691505b60208210810361144357634e487b7160e01b600052602260045260246000fd5b50919050565b6020808252602d908201527f4552433732313a2063616c6c6572206973206e6f7420746f6b656e206f776e6560408201526c1c881bdc88185c1c1c9bdd9959609a1b606082015260800190565b634e487b7160e01b600052603260045260246000fd5b60208082526025908201527f4552433732313a207472616e736665722066726f6d20696e636f72726563742060408201526437bbb732b960d91b606082015260800190565b60208082526032908201527f4552433732313a207472616e7366657220746f206e6f6e20455243373231526560408201527131b2b4bb32b91034b6b83632b6b2b73a32b960711b606082015260800190565b6001600160a01b03858116825284166020820152604081018390526080606082018190526000906115769083018461119f565b9695505050505050565b60006020828403121561159257600080fd5b815161119881611165565b818103818111156102c657634e487b7160e01b600052601160045260246000fd5b634e487b7160e01b600052603160045260246000fdfe68747470733a2f2f7261772e67697468756275736572636f6e74656e742e636f6d2f6c654e46542f696e746572666163652f6d61696e2f7075626c69632f6c6574746572696e675f6c6f676f5f7371756172655f736d616c6c2e706e67a26469706673582212200545818843bc8c52a7e2a5f331fa712a123ea197a647028e9be3f0d5bda6566864736f6c63430008130033",
  "linkReferences": {},
  "deployedLinkReferences": {}
}