{
  "_format": "hh-sol-artifact-1",
  "contractName": "TokenOracle",
  "sourceName": "contracts/protocol/TokenOracle.sol",
  "abi": [
    {
      "anonymous": false,
      "inputs": [
        {
          "indexed": true,
          "internalType": "address",
          "name": "previousOwner",
          "type": "address"
        },
        {
          "indexed": true,
          "internalType": "address",
          "name": "newOwner",
          "type": "address"
        }
      ],
      "name": "OwnershipTransferred",
      "type": "event"
    },
    {
      "inputs": [
        {
          "internalType": "address",
          "name": "token",
          "type": "address"
        },
        {
          "internalType": "address",
          "name": "priceFeed",
          "type": "address"
        }
      ],
      "name": "addTokenETHDataFeed",
      "outputs": [],
      "stateMutability": "nonpayable",
      "type": "function"
    },
    {
      "inputs": [],
      "name": "getPricePrecision",
      "outputs": [
        {
          "internalType": "uint256",
          "name": "",
          "type": "uint256"
        }
      ],
      "stateMutability": "pure",
      "type": "function"
    },
    {
      "inputs": [
        {
          "internalType": "address",
          "name": "token",
          "type": "address"
        }
      ],
      "name": "getTokenETHPrice",
      "outputs": [
        {
          "internalType": "uint256",
          "name": "",
          "type": "uint256"
        }
      ],
      "stateMutability": "view",
      "type": "function"
    },
    {
      "inputs": [],
      "name": "owner",
      "outputs": [
        {
          "internalType": "address",
          "name": "",
          "type": "address"
        }
      ],
      "stateMutability": "view",
      "type": "function"
    },
    {
      "inputs": [],
      "name": "renounceOwnership",
      "outputs": [],
      "stateMutability": "nonpayable",
      "type": "function"
    },
    {
      "inputs": [
        {
          "internalType": "address",
          "name": "token",
          "type": "address"
        },
        {
          "internalType": "uint256",
          "name": "price",
          "type": "uint256"
        }
      ],
      "name": "setTokenETHPrice",
      "outputs": [],
      "stateMutability": "nonpayable",
      "type": "function"
    },
    {
      "inputs": [
        {
          "internalType": "address",
          "name": "newOwner",
          "type": "address"
        }
      ],
      "name": "transferOwnership",
      "outputs": [],
      "stateMutability": "nonpayable",
      "type": "function"
    }
  ],
  "bytecode": "0x608060405234801561001057600080fd5b5061002d61002261003260201b60201c565b61003a60201b60201c565b6100fe565b600033905090565b60008060009054906101000a900473ffffffffffffffffffffffffffffffffffffffff169050816000806101000a81548173ffffffffffffffffffffffffffffffffffffffff021916908373ffffffffffffffffffffffffffffffffffffffff1602179055508173ffffffffffffffffffffffffffffffffffffffff168173ffffffffffffffffffffffffffffffffffffffff167f8be0079c531659141344cd1fd0a4f28419497f9722a3daafe3b4186f6b6457e060405160405180910390a35050565b61102b8061010d6000396000f3fe608060405234801561001057600080fd5b506004361061007d5760003560e01c8063715018a61161005b578063715018a6146100d85780638da5cb5b146100e2578063e88c199714610100578063f2fde38b146101305761007d565b806308ea5bee146100825780631da3b108146100a0578063658d1c44146100bc575b600080fd5b61008a61014c565b6040516100979190610924565b60405180910390f35b6100ba60048036038101906100b591906109a2565b61015c565b005b6100d660048036038101906100d19190610a0e565b61025a565b005b6100e061031e565b005b6100ea6103a6565b6040516100f79190610a5d565b60405180910390f35b61011a60048036038101906101159190610a78565b6103cf565b6040516101279190610924565b60405180910390f35b61014a60048036038101906101459190610a78565b610748565b005b6000670de0b6b3a7640000905090565b61016461083f565b73ffffffffffffffffffffffffffffffffffffffff166101826103a6565b73ffffffffffffffffffffffffffffffffffffffff16146101d8576040517f08c379a00000000000000000000000000000000000000000000000000000000081526004016101cf90610b02565b60405180910390fd5b80600260008473ffffffffffffffffffffffffffffffffffffffff1673ffffffffffffffffffffffffffffffffffffffff16815260200190815260200160002060006101000a81548173ffffffffffffffffffffffffffffffffffffffff021916908373ffffffffffffffffffffffffffffffffffffffff1602179055505050565b61026261083f565b73ffffffffffffffffffffffffffffffffffffffff166102806103a6565b73ffffffffffffffffffffffffffffffffffffffff16146102d6576040517f08c379a00000000000000000000000000000000000000000000000000000000081526004016102cd90610b02565b60405180910390fd5b80600160008473ffffffffffffffffffffffffffffffffffffffff1673ffffffffffffffffffffffffffffffffffffffff168152602001908152602001600020819055505050565b61032661083f565b73ffffffffffffffffffffffffffffffffffffffff166103446103a6565b73ffffffffffffffffffffffffffffffffffffffff161461039a576040517f08c379a000000000000000000000000000000000000000000000000000000000815260040161039190610b02565b60405180910390fd5b6103a46000610847565b565b60008060009054906101000a900473ffffffffffffffffffffffffffffffffffffffff16905090565b60008073ffffffffffffffffffffffffffffffffffffffff16600260008473ffffffffffffffffffffffffffffffffffffffff1673ffffffffffffffffffffffffffffffffffffffff16815260200190815260200160002060009054906101000a900473ffffffffffffffffffffffffffffffffffffffff1673ffffffffffffffffffffffffffffffffffffffff161415806104ab57506000600160008473ffffffffffffffffffffffffffffffffffffffff1673ffffffffffffffffffffffffffffffffffffffff1681526020019081526020016000205414155b6104ea576040517f08c379a00000000000000000000000000000000000000000000000000000000081526004016104e190610b6e565b60405180910390fd5b600073ffffffffffffffffffffffffffffffffffffffff16600260008473ffffffffffffffffffffffffffffffffffffffff1673ffffffffffffffffffffffffffffffffffffffff16815260200190815260200160002060009054906101000a900473ffffffffffffffffffffffffffffffffffffffff1673ffffffffffffffffffffffffffffffffffffffff1614610700576000600260008473ffffffffffffffffffffffffffffffffffffffff1673ffffffffffffffffffffffffffffffffffffffff16815260200190815260200160002060009054906101000a900473ffffffffffffffffffffffffffffffffffffffff16905060008173ffffffffffffffffffffffffffffffffffffffff1663313ce5676040518163ffffffff1660e01b8152600401602060405180830381865afa15801561062e573d6000803e3d6000fd5b505050506040513d601f19601f820116820180604052508101906106529190610bc7565b600a61065e9190610d56565b905060008273ffffffffffffffffffffffffffffffffffffffff1663feaf968c6040518163ffffffff1660e01b815260040160a060405180830381865afa1580156106ad573d6000803e3d6000fd5b505050506040513d601f19601f820116820180604052508101906106d19190610e2e565b50505091505081670de0b6b3a76400006106eb9190610ed8565b816106f69190610f09565b9350505050610743565b600160008373ffffffffffffffffffffffffffffffffffffffff1673ffffffffffffffffffffffffffffffffffffffff1681526020019081526020016000205490505b919050565b61075061083f565b73ffffffffffffffffffffffffffffffffffffffff1661076e6103a6565b73ffffffffffffffffffffffffffffffffffffffff16146107c4576040517f08c379a00000000000000000000000000000000000000000000000000000000081526004016107bb90610b02565b60405180910390fd5b600073ffffffffffffffffffffffffffffffffffffffff168173ffffffffffffffffffffffffffffffffffffffff1603610833576040517f08c379a000000000000000000000000000000000000000000000000000000000815260040161082a90610fd5565b60405180910390fd5b61083c81610847565b50565b600033905090565b60008060009054906101000a900473ffffffffffffffffffffffffffffffffffffffff169050816000806101000a81548173ffffffffffffffffffffffffffffffffffffffff021916908373ffffffffffffffffffffffffffffffffffffffff1602179055508173ffffffffffffffffffffffffffffffffffffffff168173ffffffffffffffffffffffffffffffffffffffff167f8be0079c531659141344cd1fd0a4f28419497f9722a3daafe3b4186f6b6457e060405160405180910390a35050565b6000819050919050565b61091e8161090b565b82525050565b60006020820190506109396000830184610915565b92915050565b600080fd5b600073ffffffffffffffffffffffffffffffffffffffff82169050919050565b600061096f82610944565b9050919050565b61097f81610964565b811461098a57600080fd5b50565b60008135905061099c81610976565b92915050565b600080604083850312156109b9576109b861093f565b5b60006109c78582860161098d565b92505060206109d88582860161098d565b9150509250929050565b6109eb8161090b565b81146109f657600080fd5b50565b600081359050610a08816109e2565b92915050565b60008060408385031215610a2557610a2461093f565b5b6000610a338582860161098d565b9250506020610a44858286016109f9565b9150509250929050565b610a5781610964565b82525050565b6000602082019050610a726000830184610a4e565b92915050565b600060208284031215610a8e57610a8d61093f565b5b6000610a9c8482850161098d565b91505092915050565b600082825260208201905092915050565b7f4f776e61626c653a2063616c6c6572206973206e6f7420746865206f776e6572600082015250565b6000610aec602083610aa5565b9150610af782610ab6565b602082019050919050565b60006020820190508181036000830152610b1b81610adf565b9050919050565b7f546f6b656e206e6f7420617661696c61626c6520696e204f7261636c652e0000600082015250565b6000610b58601e83610aa5565b9150610b6382610b22565b602082019050919050565b60006020820190508181036000830152610b8781610b4b565b9050919050565b600060ff82169050919050565b610ba481610b8e565b8114610baf57600080fd5b50565b600081519050610bc181610b9b565b92915050565b600060208284031215610bdd57610bdc61093f565b5b6000610beb84828501610bb2565b91505092915050565b7f4e487b7100000000000000000000000000000000000000000000000000000000600052601160045260246000fd5b60008160011c9050919050565b6000808291508390505b6001851115610c7a57808604811115610c5657610c55610bf4565b5b6001851615610c655780820291505b8081029050610c7385610c23565b9450610c3a565b94509492505050565b600082610c935760019050610d4f565b81610ca15760009050610d4f565b8160018114610cb75760028114610cc157610cf0565b6001915050610d4f565b60ff841115610cd357610cd2610bf4565b5b8360020a915084821115610cea57610ce9610bf4565b5b50610d4f565b5060208310610133831016604e8410600b8410161715610d255782820a905083811115610d2057610d1f610bf4565b5b610d4f565b610d328484846001610c30565b92509050818404811115610d4957610d48610bf4565b5b81810290505b9392505050565b6000610d618261090b565b9150610d6c83610b8e565b9250610d997fffffffffffffffffffffffffffffffffffffffffffffffffffffffffffffffff8484610c83565b905092915050565b600069ffffffffffffffffffff82169050919050565b610dc081610da1565b8114610dcb57600080fd5b50565b600081519050610ddd81610db7565b92915050565b6000819050919050565b610df681610de3565b8114610e0157600080fd5b50565b600081519050610e1381610ded565b92915050565b600081519050610e28816109e2565b92915050565b600080600080600060a08688031215610e4a57610e4961093f565b5b6000610e5888828901610dce565b9550506020610e6988828901610e04565b9450506040610e7a88828901610e19565b9350506060610e8b88828901610e19565b9250506080610e9c88828901610dce565b9150509295509295909350565b7f4e487b7100000000000000000000000000000000000000000000000000000000600052601260045260246000fd5b6000610ee38261090b565b9150610eee8361090b565b925082610efe57610efd610ea9565b5b828204905092915050565b6000610f148261090b565b9150610f1f8361090b565b9250817fffffffffffffffffffffffffffffffffffffffffffffffffffffffffffffffff0483118215151615610f5857610f57610bf4565b5b828202905092915050565b7f4f776e61626c653a206e6577206f776e657220697320746865207a65726f206160008201527f6464726573730000000000000000000000000000000000000000000000000000602082015250565b6000610fbf602683610aa5565b9150610fca82610f63565b604082019050919050565b60006020820190508181036000830152610fee81610fb2565b905091905056fea2646970667358221220730df3a167933e87c2d6ca1e48c797233308a813b875fe95ba7125c531b921c264736f6c634300080f0033",
  "linkReferences": {},
  "deployedLinkReferences": {}
}