{
  "_format": "hh-sol-artifact-1",
  "contractName": "TokenOracle",
  "sourceName": "contracts/protocol/TokenOracle.sol",
  "abi": [
    {
      "anonymous": false,
      "inputs": [
        {
          "indexed": true,
          "internalType": "address",
          "name": "previousOwner",
          "type": "address"
        },
        {
          "indexed": true,
          "internalType": "address",
          "name": "newOwner",
          "type": "address"
        }
      ],
      "name": "OwnershipTransferred",
      "type": "event"
    },
    {
      "inputs": [
        {
          "internalType": "address",
          "name": "tokenAddress",
          "type": "address"
        }
      ],
      "name": "getTokenPrice",
      "outputs": [
        {
          "internalType": "uint256",
          "name": "",
          "type": "uint256"
        }
      ],
      "stateMutability": "view",
      "type": "function"
    },
    {
      "inputs": [],
      "name": "owner",
      "outputs": [
        {
          "internalType": "address",
          "name": "",
          "type": "address"
        }
      ],
      "stateMutability": "view",
      "type": "function"
    },
    {
      "inputs": [],
      "name": "renounceOwnership",
      "outputs": [],
      "stateMutability": "nonpayable",
      "type": "function"
    },
    {
      "inputs": [
        {
          "internalType": "address",
          "name": "tokenAddress",
          "type": "address"
        },
        {
          "internalType": "uint256",
          "name": "price",
          "type": "uint256"
        }
      ],
      "name": "setTokenPrice",
      "outputs": [],
      "stateMutability": "nonpayable",
      "type": "function"
    },
    {
      "inputs": [
        {
          "internalType": "address",
          "name": "newOwner",
          "type": "address"
        }
      ],
      "name": "transferOwnership",
      "outputs": [],
      "stateMutability": "nonpayable",
      "type": "function"
    }
  ],
  "bytecode": "0x608060405234801561001057600080fd5b5061002d61002261003260201b60201c565b61003a60201b60201c565b6100fe565b600033905090565b60008060009054906101000a900473ffffffffffffffffffffffffffffffffffffffff169050816000806101000a81548173ffffffffffffffffffffffffffffffffffffffff021916908373ffffffffffffffffffffffffffffffffffffffff1602179055508173ffffffffffffffffffffffffffffffffffffffff168173ffffffffffffffffffffffffffffffffffffffff167f8be0079c531659141344cd1fd0a4f28419497f9722a3daafe3b4186f6b6457e060405160405180910390a35050565b6106908061010d6000396000f3fe608060405234801561001057600080fd5b50600436106100575760003560e01c8063431f63c91461005c578063715018a6146100785780638da5cb5b14610082578063d02641a0146100a0578063f2fde38b146100d0575b600080fd5b6100766004803603810190610071919061048a565b6100ec565b005b610080610134565b005b61008a6101bc565b60405161009791906104d9565b60405180910390f35b6100ba60048036038101906100b591906104f4565b6101e5565b6040516100c79190610530565b60405180910390f35b6100ea60048036038101906100e591906104f4565b61022e565b005b80600160008473ffffffffffffffffffffffffffffffffffffffff1673ffffffffffffffffffffffffffffffffffffffff168152602001908152602001600020819055505050565b61013c610325565b73ffffffffffffffffffffffffffffffffffffffff1661015a6101bc565b73ffffffffffffffffffffffffffffffffffffffff16146101b0576040517f08c379a00000000000000000000000000000000000000000000000000000000081526004016101a7906105a8565b60405180910390fd5b6101ba600061032d565b565b60008060009054906101000a900473ffffffffffffffffffffffffffffffffffffffff16905090565b6000600160008373ffffffffffffffffffffffffffffffffffffffff1673ffffffffffffffffffffffffffffffffffffffff168152602001908152602001600020549050919050565b610236610325565b73ffffffffffffffffffffffffffffffffffffffff166102546101bc565b73ffffffffffffffffffffffffffffffffffffffff16146102aa576040517f08c379a00000000000000000000000000000000000000000000000000000000081526004016102a1906105a8565b60405180910390fd5b600073ffffffffffffffffffffffffffffffffffffffff168173ffffffffffffffffffffffffffffffffffffffff1603610319576040517f08c379a00000000000000000000000000000000000000000000000000000000081526004016103109061063a565b60405180910390fd5b6103228161032d565b50565b600033905090565b60008060009054906101000a900473ffffffffffffffffffffffffffffffffffffffff169050816000806101000a81548173ffffffffffffffffffffffffffffffffffffffff021916908373ffffffffffffffffffffffffffffffffffffffff1602179055508173ffffffffffffffffffffffffffffffffffffffff168173ffffffffffffffffffffffffffffffffffffffff167f8be0079c531659141344cd1fd0a4f28419497f9722a3daafe3b4186f6b6457e060405160405180910390a35050565b600080fd5b600073ffffffffffffffffffffffffffffffffffffffff82169050919050565b6000610421826103f6565b9050919050565b61043181610416565b811461043c57600080fd5b50565b60008135905061044e81610428565b92915050565b6000819050919050565b61046781610454565b811461047257600080fd5b50565b6000813590506104848161045e565b92915050565b600080604083850312156104a1576104a06103f1565b5b60006104af8582860161043f565b92505060206104c085828601610475565b9150509250929050565b6104d381610416565b82525050565b60006020820190506104ee60008301846104ca565b92915050565b60006020828403121561050a576105096103f1565b5b60006105188482850161043f565b91505092915050565b61052a81610454565b82525050565b60006020820190506105456000830184610521565b92915050565b600082825260208201905092915050565b7f4f776e61626c653a2063616c6c6572206973206e6f7420746865206f776e6572600082015250565b600061059260208361054b565b915061059d8261055c565b602082019050919050565b600060208201905081810360008301526105c181610585565b9050919050565b7f4f776e61626c653a206e6577206f776e657220697320746865207a65726f206160008201527f6464726573730000000000000000000000000000000000000000000000000000602082015250565b600061062460268361054b565b915061062f826105c8565b604082019050919050565b6000602082019050818103600083015261065381610617565b905091905056fea2646970667358221220bca8fe9a54d61703ca86c0f78b52e437b422bb3cdef5370bf24814588c67260164736f6c634300080f0033",
  "linkReferences": {},
  "deployedLinkReferences": {}
}