{
  "_format": "hh-sol-artifact-1",
  "contractName": "TokenOracle",
  "sourceName": "contracts/protocol/Lending/TokenOracle.sol",
  "abi": [
    {
      "anonymous": false,
      "inputs": [
        {
          "indexed": true,
          "internalType": "address",
          "name": "previousOwner",
          "type": "address"
        },
        {
          "indexed": true,
          "internalType": "address",
          "name": "newOwner",
          "type": "address"
        }
      ],
      "name": "OwnershipTransferred",
      "type": "event"
    },
    {
      "inputs": [],
      "name": "getPricePrecision",
      "outputs": [
        {
          "internalType": "uint256",
          "name": "",
          "type": "uint256"
        }
      ],
      "stateMutability": "pure",
      "type": "function"
    },
    {
      "inputs": [
        {
          "internalType": "address",
          "name": "token",
          "type": "address"
        }
      ],
      "name": "getTokenETHPrice",
      "outputs": [
        {
          "internalType": "uint256",
          "name": "",
          "type": "uint256"
        }
      ],
      "stateMutability": "view",
      "type": "function"
    },
    {
      "inputs": [
        {
          "internalType": "address",
          "name": "token",
          "type": "address"
        }
      ],
      "name": "isTokenSupported",
      "outputs": [
        {
          "internalType": "bool",
          "name": "",
          "type": "bool"
        }
      ],
      "stateMutability": "view",
      "type": "function"
    },
    {
      "inputs": [],
      "name": "owner",
      "outputs": [
        {
          "internalType": "address",
          "name": "",
          "type": "address"
        }
      ],
      "stateMutability": "view",
      "type": "function"
    },
    {
      "inputs": [],
      "name": "renounceOwnership",
      "outputs": [],
      "stateMutability": "nonpayable",
      "type": "function"
    },
    {
      "inputs": [
        {
          "internalType": "address",
          "name": "token",
          "type": "address"
        },
        {
          "internalType": "address",
          "name": "priceFeed",
          "type": "address"
        }
      ],
      "name": "setTokenETHDataFeed",
      "outputs": [],
      "stateMutability": "nonpayable",
      "type": "function"
    },
    {
      "inputs": [
        {
          "internalType": "address",
          "name": "token",
          "type": "address"
        },
        {
          "internalType": "uint256",
          "name": "price",
          "type": "uint256"
        }
      ],
      "name": "setTokenETHPrice",
      "outputs": [],
      "stateMutability": "nonpayable",
      "type": "function"
    },
    {
      "inputs": [
        {
          "internalType": "address",
          "name": "newOwner",
          "type": "address"
        }
      ],
      "name": "transferOwnership",
      "outputs": [],
      "stateMutability": "nonpayable",
      "type": "function"
    }
  ],
  "bytecode": "0x6080806040523461005b5760008054336001600160a01b0319821681178355916001600160a01b03909116907f8be0079c531659141344cd1fd0a4f28419497f9722a3daafe3b4186f6b6457e09080a36105e490816100618239f35b600080fdfe60806040818152600436101561001457600080fd5b600091823560e01c90816308ea5bee146102b157508063658d1c4414610276578063715018a61461021957806375151b63146101eb5780638da5cb5b146101c4578063960c10dd14610169578063e88c19971461013d5763f2fde38b1461007a57600080fd5b34610139576020366003190112610139576100936102d3565b61009b6102ee565b6001600160a01b039081169182156100e7575082546001600160a01b0319811683178455167f8be0079c531659141344cd1fd0a4f28419497f9722a3daafe3b4186f6b6457e08380a380f35b5162461bcd60e51b815260206004820152602660248201527f4f776e61626c653a206e6577206f776e657220697320746865207a65726f206160448201526564647265737360d01b6064820152608490fd5b5080fd5b50346101395760203660031901126101395760209061016261015d6102d3565b6103cc565b9051908152f35b50346101395780600319360112610139576101826102d3565b6001600160a01b036024358181169392908490036101c0576101a26102ee565b1683526002602052822080546001600160a01b031916909117905580f35b8480fd5b5034610139578160031936011261013957905490516001600160a01b039091168152602090f35b50346101395760203660031901126101395760209061021061020b6102d3565b610346565b90519015158152f35b82346102735780600319360112610273576102326102ee565b80546001600160a01b03198116825581906001600160a01b03167f8be0079c531659141344cd1fd0a4f28419497f9722a3daafe3b4186f6b6457e08280a380f35b80fd5b503461013957806003193601126101395761028f6102d3565b6102976102ee565b6001600160a01b0316825260016020528120602435905580f35b83903461013957816003193601126101395780670de0b6b3a764000060209252f35b600435906001600160a01b03821682036102e957565b600080fd5b6000546001600160a01b0316330361030257565b606460405162461bcd60e51b815260206004820152602060248201527f4f776e61626c653a2063616c6c6572206973206e6f7420746865206f776e65726044820152fd5b6001600160a01b03908116600090815260026020526040902054161580159061036c5790565b506001602052604060002054151590565b90601f8019910116810190811067ffffffffffffffff82111761039f57604052565b634e487b7160e01b600052604160045260246000fd5b519069ffffffffffffffffffff821682036102e957565b6103d581610346565b156105695760018060a01b038091166000908082526020600281526040938484205416918261040a5760019250835252205490565b50835163313ce56760e01b81528181600481865afa801561055f578490610523575b60ff915016604d811161050f579060a0600492600a0a93865193848092633fabe5a360e21b82525afa948515610506575083946104b3575b5050801561049f57670de0b6b3a7640000049182810292818404149015171561048b575090565b634e487b7160e01b81526011600452602490fd5b634e487b7160e01b82526012600452602482fd5b9091935060a0823d82116104fe575b816104cf60a0938361037d565b810103126104fa5760806104f1916104e6846103b5565b5083015192016103b5565b50913880610464565b8280fd5b3d91506104c2565b513d85823e3d90fd5b634e487b7160e01b84526011600452602484fd5b508181813d8311610558575b610539818361037d565b81010312610554575160ff811681036105545760ff9061042c565b8380fd5b503d61052f565b85513d86823e3d90fd5b60405162461bcd60e51b815260206004820152601e60248201527f546f6b656e206e6f7420737570706f72746564206279204f7261636c652e00006044820152606490fdfea26469706673582212208a50629bd5d754f0acd5ebc65f8e381b261bbbd7dc82ccd97954452ff552cdd664736f6c63430008130033",
  "linkReferences": {},
  "deployedLinkReferences": {}
}