{
  "_format": "hh-sol-artifact-1",
  "contractName": "TokenOracle",
  "sourceName": "contracts/protocol/Lending/TokenOracle.sol",
  "abi": [
    {
      "anonymous": false,
      "inputs": [
        {
          "indexed": true,
          "internalType": "address",
          "name": "previousOwner",
          "type": "address"
        },
        {
          "indexed": true,
          "internalType": "address",
          "name": "newOwner",
          "type": "address"
        }
      ],
      "name": "OwnershipTransferred",
      "type": "event"
    },
    {
      "inputs": [],
      "name": "getPricePrecision",
      "outputs": [
        {
          "internalType": "uint256",
          "name": "",
          "type": "uint256"
        }
      ],
      "stateMutability": "pure",
      "type": "function"
    },
    {
      "inputs": [
        {
          "internalType": "address",
          "name": "token",
          "type": "address"
        }
      ],
      "name": "getTokenETHPrice",
      "outputs": [
        {
          "internalType": "uint256",
          "name": "",
          "type": "uint256"
        }
      ],
      "stateMutability": "view",
      "type": "function"
    },
    {
      "inputs": [
        {
          "internalType": "address",
          "name": "token",
          "type": "address"
        }
      ],
      "name": "isTokenSupported",
      "outputs": [
        {
          "internalType": "bool",
          "name": "",
          "type": "bool"
        }
      ],
      "stateMutability": "view",
      "type": "function"
    },
    {
      "inputs": [],
      "name": "owner",
      "outputs": [
        {
          "internalType": "address",
          "name": "",
          "type": "address"
        }
      ],
      "stateMutability": "view",
      "type": "function"
    },
    {
      "inputs": [],
      "name": "renounceOwnership",
      "outputs": [],
      "stateMutability": "nonpayable",
      "type": "function"
    },
    {
      "inputs": [
        {
          "internalType": "address",
          "name": "token",
          "type": "address"
        },
        {
          "internalType": "address",
          "name": "priceFeed",
          "type": "address"
        }
      ],
      "name": "setTokenETHDataFeed",
      "outputs": [],
      "stateMutability": "nonpayable",
      "type": "function"
    },
    {
      "inputs": [
        {
          "internalType": "address",
          "name": "token",
          "type": "address"
        },
        {
          "internalType": "uint256",
          "name": "price",
          "type": "uint256"
        }
      ],
      "name": "setTokenETHPrice",
      "outputs": [],
      "stateMutability": "nonpayable",
      "type": "function"
    },
    {
      "inputs": [
        {
          "internalType": "address",
          "name": "newOwner",
          "type": "address"
        }
      ],
      "name": "transferOwnership",
      "outputs": [],
      "stateMutability": "nonpayable",
      "type": "function"
    }
  ],
  "bytecode": "0x608060405234801561001057600080fd5b5061001a3361001f565b61006f565b600080546001600160a01b038381166001600160a01b0319831681178455604051919092169283917f8be0079c531659141344cd1fd0a4f28419497f9722a3daafe3b4186f6b6457e09190a35050565b6107738061007e6000396000f3fe608060405234801561001057600080fd5b50600436106100885760003560e01c80638da5cb5b1161005b5780638da5cb5b146100ea578063960c10dd14610105578063e88c199714610118578063f2fde38b1461012b57600080fd5b806308ea5bee1461008d578063658d1c44146100aa578063715018a6146100bf57806375151b63146100c7575b600080fd5b670de0b6b3a76400005b6040519081526020015b60405180910390f35b6100bd6100b83660046104ef565b61013e565b005b6100bd610162565b6100da6100d5366004610519565b610176565b60405190151581526020016100a1565b6000546040516001600160a01b0390911681526020016100a1565b6100bd61011336600461053b565b610187565b610097610126366004610519565b6101bd565b6100bd610139366004610519565b61036d565b6101466103e6565b6001600160a01b03909116600090815260016020526040902055565b61016a6103e6565b6101746000610440565b565b600061018182610490565b92915050565b61018f6103e6565b6001600160a01b03918216600090815260026020526040902080546001600160a01b03191691909216179055565b60006101c882610490565b6102195760405162461bcd60e51b815260206004820152601b60248201527f544f3a475445503a544f4b454e5f4e4f545f535550504f52544544000000000060448201526064015b60405180910390fd5b6001600160a01b038281166000908152600260205260409020541615610351576001600160a01b03808316600090815260026020908152604080832054815163313ce56760e01b81529151941693849263313ce56792600480820193918290030181865afa15801561028f573d6000803e3d6000fd5b505050506040513d601f19601f820116820180604052508101906102b3919061056e565b6102be90600a61068b565b90506000826001600160a01b031663feaf968c6040518163ffffffff1660e01b815260040160a060405180830381865afa158015610300573d6000803e3d6000fd5b505050506040513d601f19601f8201168201806040525081019061032491906106b4565b50505091505081670de0b6b3a764000061033e9190610704565b6103489082610726565b95945050505050565b506001600160a01b031660009081526001602052604090205490565b6103756103e6565b6001600160a01b0381166103da5760405162461bcd60e51b815260206004820152602660248201527f4f776e61626c653a206e6577206f776e657220697320746865207a65726f206160448201526564647265737360d01b6064820152608401610210565b6103e381610440565b50565b6000546001600160a01b031633146101745760405162461bcd60e51b815260206004820181905260248201527f4f776e61626c653a2063616c6c6572206973206e6f7420746865206f776e65726044820152606401610210565b600080546001600160a01b038381166001600160a01b0319831681178455604051919092169283917f8be0079c531659141344cd1fd0a4f28419497f9722a3daafe3b4186f6b6457e09190a35050565b6001600160a01b038181166000908152600260205260408120549091161515806101815750506001600160a01b0316600090815260016020526040902054151590565b80356001600160a01b03811681146104ea57600080fd5b919050565b6000806040838503121561050257600080fd5b61050b836104d3565b946020939093013593505050565b60006020828403121561052b57600080fd5b610534826104d3565b9392505050565b6000806040838503121561054e57600080fd5b610557836104d3565b9150610565602084016104d3565b90509250929050565b60006020828403121561058057600080fd5b815160ff8116811461053457600080fd5b634e487b7160e01b600052601160045260246000fd5b600181815b808511156105e25781600019048211156105c8576105c8610591565b808516156105d557918102915b93841c93908002906105ac565b509250929050565b6000826105f957506001610181565b8161060657506000610181565b816001811461061c576002811461062657610642565b6001915050610181565b60ff84111561063757610637610591565b50506001821b610181565b5060208310610133831016604e8410600b8410161715610665575081810a610181565b61066f83836105a7565b806000190482111561068357610683610591565b029392505050565b600061053460ff8416836105ea565b805169ffffffffffffffffffff811681146104ea57600080fd5b600080600080600060a086880312156106cc57600080fd5b6106d58661069a565b94506020860151935060408601519250606086015191506106f86080870161069a565b90509295509295909350565b60008261072157634e487b7160e01b600052601260045260246000fd5b500490565b80820281158282048414176101815761018161059156fea26469706673582212205e8efbddb2861d98389a8e8b2584b1f02350ed73b3b417f9131b108bc86e19f064736f6c63430008130033",
  "linkReferences": {},
  "deployedLinkReferences": {}
}