{
  "_format": "hh-sol-artifact-1",
  "contractName": "TokenOracle",
  "sourceName": "contracts/protocol/TokenOracle.sol",
  "abi": [
    {
      "anonymous": false,
      "inputs": [
        {
          "indexed": true,
          "internalType": "address",
          "name": "previousOwner",
          "type": "address"
        },
        {
          "indexed": true,
          "internalType": "address",
          "name": "newOwner",
          "type": "address"
        }
      ],
      "name": "OwnershipTransferred",
      "type": "event"
    },
    {
      "inputs": [],
      "name": "getPricePrecision",
      "outputs": [
        {
          "internalType": "uint256",
          "name": "",
          "type": "uint256"
        }
      ],
      "stateMutability": "pure",
      "type": "function"
    },
    {
      "inputs": [
        {
          "internalType": "address",
          "name": "tokenAddress",
          "type": "address"
        }
      ],
      "name": "getTokenETHPrice",
      "outputs": [
        {
          "internalType": "uint256",
          "name": "",
          "type": "uint256"
        }
      ],
      "stateMutability": "view",
      "type": "function"
    },
    {
      "inputs": [],
      "name": "owner",
      "outputs": [
        {
          "internalType": "address",
          "name": "",
          "type": "address"
        }
      ],
      "stateMutability": "view",
      "type": "function"
    },
    {
      "inputs": [],
      "name": "renounceOwnership",
      "outputs": [],
      "stateMutability": "nonpayable",
      "type": "function"
    },
    {
      "inputs": [
        {
          "internalType": "address",
          "name": "tokenAddress",
          "type": "address"
        },
        {
          "internalType": "uint256",
          "name": "price",
          "type": "uint256"
        }
      ],
      "name": "setTokenETHPrice",
      "outputs": [],
      "stateMutability": "nonpayable",
      "type": "function"
    },
    {
      "inputs": [
        {
          "internalType": "address",
          "name": "newOwner",
          "type": "address"
        }
      ],
      "name": "transferOwnership",
      "outputs": [],
      "stateMutability": "nonpayable",
      "type": "function"
    }
  ],
  "bytecode": "0x608060405234801561001057600080fd5b5061002d61002261003260201b60201c565b61003a60201b60201c565b6100fe565b600033905090565b60008060009054906101000a900473ffffffffffffffffffffffffffffffffffffffff169050816000806101000a81548173ffffffffffffffffffffffffffffffffffffffff021916908373ffffffffffffffffffffffffffffffffffffffff1602179055508173ffffffffffffffffffffffffffffffffffffffff168173ffffffffffffffffffffffffffffffffffffffff167f8be0079c531659141344cd1fd0a4f28419497f9722a3daafe3b4186f6b6457e060405160405180910390a35050565b6106c98061010d6000396000f3fe608060405234801561001057600080fd5b50600436106100625760003560e01c806308ea5bee14610067578063658d1c4414610085578063715018a6146100a15780638da5cb5b146100ab578063e88c1997146100c9578063f2fde38b146100f9575b600080fd5b61006f610115565b60405161007c9190610443565b60405180910390f35b61009f600480360381019061009a91906104ed565b610125565b005b6100a961016d565b005b6100b36101f5565b6040516100c0919061053c565b60405180910390f35b6100e360048036038101906100de9190610557565b61021e565b6040516100f09190610443565b60405180910390f35b610113600480360381019061010e9190610557565b610267565b005b6000670de0b6b3a7640000905090565b80600160008473ffffffffffffffffffffffffffffffffffffffff1673ffffffffffffffffffffffffffffffffffffffff168152602001908152602001600020819055505050565b61017561035e565b73ffffffffffffffffffffffffffffffffffffffff166101936101f5565b73ffffffffffffffffffffffffffffffffffffffff16146101e9576040517f08c379a00000000000000000000000000000000000000000000000000000000081526004016101e0906105e1565b60405180910390fd5b6101f36000610366565b565b60008060009054906101000a900473ffffffffffffffffffffffffffffffffffffffff16905090565b6000600160008373ffffffffffffffffffffffffffffffffffffffff1673ffffffffffffffffffffffffffffffffffffffff168152602001908152602001600020549050919050565b61026f61035e565b73ffffffffffffffffffffffffffffffffffffffff1661028d6101f5565b73ffffffffffffffffffffffffffffffffffffffff16146102e3576040517f08c379a00000000000000000000000000000000000000000000000000000000081526004016102da906105e1565b60405180910390fd5b600073ffffffffffffffffffffffffffffffffffffffff168173ffffffffffffffffffffffffffffffffffffffff1603610352576040517f08c379a000000000000000000000000000000000000000000000000000000000815260040161034990610673565b60405180910390fd5b61035b81610366565b50565b600033905090565b60008060009054906101000a900473ffffffffffffffffffffffffffffffffffffffff169050816000806101000a81548173ffffffffffffffffffffffffffffffffffffffff021916908373ffffffffffffffffffffffffffffffffffffffff1602179055508173ffffffffffffffffffffffffffffffffffffffff168173ffffffffffffffffffffffffffffffffffffffff167f8be0079c531659141344cd1fd0a4f28419497f9722a3daafe3b4186f6b6457e060405160405180910390a35050565b6000819050919050565b61043d8161042a565b82525050565b60006020820190506104586000830184610434565b92915050565b600080fd5b600073ffffffffffffffffffffffffffffffffffffffff82169050919050565b600061048e82610463565b9050919050565b61049e81610483565b81146104a957600080fd5b50565b6000813590506104bb81610495565b92915050565b6104ca8161042a565b81146104d557600080fd5b50565b6000813590506104e7816104c1565b92915050565b600080604083850312156105045761050361045e565b5b6000610512858286016104ac565b9250506020610523858286016104d8565b9150509250929050565b61053681610483565b82525050565b6000602082019050610551600083018461052d565b92915050565b60006020828403121561056d5761056c61045e565b5b600061057b848285016104ac565b91505092915050565b600082825260208201905092915050565b7f4f776e61626c653a2063616c6c6572206973206e6f7420746865206f776e6572600082015250565b60006105cb602083610584565b91506105d682610595565b602082019050919050565b600060208201905081810360008301526105fa816105be565b9050919050565b7f4f776e61626c653a206e6577206f776e657220697320746865207a65726f206160008201527f6464726573730000000000000000000000000000000000000000000000000000602082015250565b600061065d602683610584565b915061066882610601565b604082019050919050565b6000602082019050818103600083015261068c81610650565b905091905056fea2646970667358221220309dfabbd6cf0a5826347c324b01ade568f560954bdab5ec8cd4de75ebb1b15364736f6c634300080f0033",
  "linkReferences": {},
  "deployedLinkReferences": {}
}