{
  "_format": "hh-sol-artifact-1",
  "contractName": "TradingGauge",
  "sourceName": "contracts/protocol/Gauges/TradingGauge.sol",
  "abi": [
    {
      "inputs": [
        {
          "internalType": "contract IAddressesProvider",
          "name": "addressProvider",
          "type": "address"
        },
        {
          "internalType": "address",
          "name": "lpToken_",
          "type": "address"
        }
      ],
      "stateMutability": "nonpayable",
      "type": "constructor"
    },
    {
      "anonymous": false,
      "inputs": [
        {
          "indexed": true,
          "internalType": "address",
          "name": "user",
          "type": "address"
        },
        {
          "indexed": false,
          "internalType": "uint256",
          "name": "lpId",
          "type": "uint256"
        }
      ],
      "name": "DepositLP",
      "type": "event"
    },
    {
      "anonymous": false,
      "inputs": [
        {
          "indexed": true,
          "internalType": "address",
          "name": "user",
          "type": "address"
        },
        {
          "indexed": false,
          "internalType": "uint256",
          "name": "lpId",
          "type": "uint256"
        }
      ],
      "name": "WithdrawLP",
      "type": "event"
    },
    {
      "inputs": [
        {
          "internalType": "address",
          "name": "user",
          "type": "address"
        }
      ],
      "name": "balanceOf",
      "outputs": [
        {
          "internalType": "uint256",
          "name": "",
          "type": "uint256"
        }
      ],
      "stateMutability": "view",
      "type": "function"
    },
    {
      "inputs": [
        {
          "internalType": "uint256",
          "name": "lpId",
          "type": "uint256"
        }
      ],
      "name": "calculateLpValue",
      "outputs": [
        {
          "internalType": "uint256",
          "name": "",
          "type": "uint256"
        }
      ],
      "stateMutability": "view",
      "type": "function"
    },
    {
      "inputs": [],
      "name": "claim",
      "outputs": [
        {
          "internalType": "uint256",
          "name": "",
          "type": "uint256"
        }
      ],
      "stateMutability": "nonpayable",
      "type": "function"
    },
    {
      "inputs": [
        {
          "internalType": "uint256",
          "name": "lpId",
          "type": "uint256"
        }
      ],
      "name": "deposit",
      "outputs": [],
      "stateMutability": "nonpayable",
      "type": "function"
    },
    {
      "inputs": [
        {
          "internalType": "address",
          "name": "user",
          "type": "address"
        }
      ],
      "name": "kick",
      "outputs": [],
      "stateMutability": "nonpayable",
      "type": "function"
    },
    {
      "inputs": [
        {
          "internalType": "address",
          "name": "user",
          "type": "address"
        },
        {
          "internalType": "uint256",
          "name": "index",
          "type": "uint256"
        }
      ],
      "name": "lpOfOwnerByIndex",
      "outputs": [
        {
          "internalType": "uint256",
          "name": "",
          "type": "uint256"
        }
      ],
      "stateMutability": "view",
      "type": "function"
    },
    {
      "inputs": [],
      "name": "lpToken",
      "outputs": [
        {
          "internalType": "address",
          "name": "",
          "type": "address"
        }
      ],
      "stateMutability": "view",
      "type": "function"
    },
    {
      "inputs": [
        {
          "internalType": "address",
          "name": "",
          "type": "address"
        },
        {
          "internalType": "address",
          "name": "",
          "type": "address"
        },
        {
          "internalType": "uint256",
          "name": "",
          "type": "uint256"
        },
        {
          "internalType": "bytes",
          "name": "",
          "type": "bytes"
        }
      ],
      "name": "onERC721Received",
      "outputs": [
        {
          "internalType": "bytes4",
          "name": "",
          "type": "bytes4"
        }
      ],
      "stateMutability": "pure",
      "type": "function"
    },
    {
      "inputs": [
        {
          "internalType": "address",
          "name": "user",
          "type": "address"
        }
      ],
      "name": "userBoost",
      "outputs": [
        {
          "internalType": "uint256",
          "name": "",
          "type": "uint256"
        }
      ],
      "stateMutability": "view",
      "type": "function"
    },
    {
      "inputs": [
        {
          "internalType": "address",
          "name": "user",
          "type": "address"
        }
      ],
      "name": "userLPValue",
      "outputs": [
        {
          "internalType": "uint256",
          "name": "",
          "type": "uint256"
        }
      ],
      "stateMutability": "view",
      "type": "function"
    },
    {
      "inputs": [
        {
          "internalType": "uint256",
          "name": "lpId",
          "type": "uint256"
        }
      ],
      "name": "withdraw",
      "outputs": [],
      "stateMutability": "nonpayable",
      "type": "function"
    },
    {
      "inputs": [
        {
          "internalType": "uint256[]",
          "name": "lpIds",
          "type": "uint256[]"
        }
      ],
      "name": "withdrawBatch",
      "outputs": [],
      "stateMutability": "nonpayable",
      "type": "function"
    },
    {
      "inputs": [],
      "name": "writeTotalWeightHistory",
      "outputs": [],
      "stateMutability": "nonpayable",
      "type": "function"
    }
  ],
  "bytecode": "0x60806040523480156200001157600080fd5b5060405162001f2038038062001f2083398101604081905262000034916200010c565b600080546001600160a01b038085166001600160a01b0319928316178355600a80549185169190921617905560408051602081019091529081526200007e90600990600162000087565b5050506200014b565b828054828255906000526020600020908101928215620000ca579160200282015b82811115620000ca578251829060ff16905591602001919060010190620000a8565b50620000d8929150620000dc565b5090565b5b80821115620000d85760008155600101620000dd565b6001600160a01b03811681146200010957600080fd5b50565b600080604083850312156200012057600080fd5b82516200012d81620000f3565b60208401519092506200014081620000f3565b809150509250929050565b611dc5806200015b6000396000f3fe608060405234801561001057600080fd5b50600436106100cf5760003560e01c806378d2f9841161008c5780639c8d4156116100665780639c8d4156146101f0578063b6b55f2514610203578063d02a2bee14610216578063fe03d2251461022957600080fd5b806378d2f984146101ac57806387da75ef146101d557806396c55175146101dd57600080fd5b8063019e06ab146100d4578063150b7a02146100fa5780632e1a7d4d1461014b5780634e71d92d146101605780635fcbd2851461016857806370a0823114610183575b600080fd5b6100e76100e23660046117f9565b61023c565b6040519081526020015b60405180910390f35b610132610108366004611825565b7f150b7a023d4804d13e8c85fb27262cb750cf6ba9f9dd3bb30d90f482ceeb4b1f95945050505050565b6040516001600160e01b031990911681526020016100f1565b61015e6101593660046118c4565b610267565b005b6100e76104bc565b600a546040516001600160a01b0390911681526020016100f1565b6100e76101913660046118dd565b6001600160a01b031660009081526002602052604090205490565b6100e76101ba3660046118dd565b6001600160a01b03166000908152600c602052604090205490565b61015e610ea9565b61015e6101eb3660046118dd565b610fef565b61015e6101fe36600461198e565b6110dd565b61015e6102113660046118c4565b61111d565b6100e76102243660046118dd565b61128b565b6100e76102373660046118c4565b61131f565b6001600160a01b03821660009081526003602090815260408083208484529091529020545b92915050565b6000818152600160205260409020546001600160a01b031633146102dd5760405162461bcd60e51b815260206004820152602360248201527f4e6f7420746865206f776e6572206f66206c697175696469747920706f73697460448201526234b7b760e91b606482015260840160405180910390fd5b6000818152600b6020908152604080832054338452600c909252822080549192909161030a908490611a3a565b90915550506000818152600b6020526040812054600d805491929091610331908490611a3a565b9091555050600081815260016020908152604080832080546001600160a01b0319169055600b909152812055610366336113fe565b600a54604051632142170760e11b8152306004820152336024820152604481018390526001600160a01b03909116906342842e0e90606401600060405180830381600087803b1580156103b857600080fd5b505af11580156103cc573d6000803e3d6000fd5b5050336000908152600260205260408120549092506103ee9150600190611a3a565b600083815260046020526040902054909150808214610438573360009081526003602090815260408083208584528252808320548484528184208190558352600490915290208190555b60008381526004602090815260408083208390553380845260038352818420868552835281842084905583526002909152812080546001929061047c908490611a3a565b909155505060405183815233907f45ec0244cf2e0c90546c4aff992398e1505d5ce31338249d7f29066169cfdcea906020015b60405180910390a2505050565b60006104c7336113fe565b60008060009054906101000a90046001600160a01b03166001600160a01b03166308b0308a6040518163ffffffff1660e01b8152600401602060405180830381865afa15801561051b573d6000803e3d6000fd5b505050506040513d601f19601f8201168201806040525081019061053f9190611a5d565b905060008060009054906101000a90046001600160a01b03166001600160a01b03166358de9ade6040518163ffffffff1660e01b8152600401602060405180830381865afa158015610595573d6000803e3d6000fd5b505050506040513d601f19601f820116820180604052508101906105b99190611a5d565b336000908152600560205260408120549192508190036105dd576000935050505090565b3360009081526007602052604081205490036106af5733600090815260056020526040812080546001600160a01b03861692635487c577929161062257610622611a7a565b9060005260206000209060020201600101546040518263ffffffff1660e01b815260040161065291815260200190565b602060405180830381865afa15801561066f573d6000803e3d6000fd5b505050506040513d601f19601f820116820180604052508101906106939190611a90565b61069e906001611aa9565b336000908152600760205260409020555b60008060005b6032811015610d985760076000336001600160a01b03166001600160a01b03168152602001908152602001600020549150610773604051806080016040528060488152602001611cf160489139604051635487c57760e01b8152426004820152839085906001600160a01b038b1690635487c57790602401602060405180830381865afa15801561074a573d6000803e3d6000fd5b505050506040513d601f19601f8201168201806040525081019061076e9190611a90565b611717565b604051635487c57760e01b81524260048201526001600160a01b03871690635487c57790602401602060405180830381865afa1580156107b7573d6000803e3d6000fd5b505050506040513d601f19601f820116820180604052508101906107db9190611a90565b821015610d985733600090815260056020908152604080832060069092528220548154811061080c5761080c611a7a565b90600052602060002090600202016040518060400160405290816000820154815260200160018201548152505090506001856108489190611a3a565b3360009081526006602052604090205403610999576108c16040518060400160405280601d81526020017f436c61696d696e67206c61737420776f726b696e672062616c616e636500000081525060066000336001600160a01b03166001600160a01b0316815260200190815260200160002054611766565b600983815481106108d4576108d4611a7a565b60009182526020909120015481516040516315a8752360e31b8152306004820152602481018690526001600160a01b0389169063ad43a918906044016020604051808303816000875af115801561092f573d6000803e3d6000fd5b505050506040513d601f19601f820116820180604052508101906109539190611a90565b61095d9190611abc565b6109679190611ad3565b6109719085611aa9565b33600090815260076020526040812080549296509061098f83611af5565b9190505550610d85565b33600090815260056020908152604080832060069092528220546109be906001611aa9565b815481106109ce576109ce611a7a565b6000918252602091829020604080518082018252600293909302909101805483526001015482840152918401519151635487c57760e01b8152600481019290925291506001600160a01b03891690635487c57790602401602060405180830381865afa158015610a42573d6000803e3d6000fd5b505050506040513d601f19601f82011682018060405250810190610a669190611a90565b6020820151604051635487c57760e01b815260048101919091526001600160a01b038a1690635487c57790602401602060405180830381865afa158015610ab1573d6000803e3d6000fd5b505050506040513d601f19601f82011682018060405250810190610ad59190611a90565b03610b3057336000908152600660205260408120805491610af583611af5565b9190505550610b2b604051806060016040528060238152602001611d396023913933600090815260066020526040902054611766565b610d83565b610be3604051806060016040528060348152602001611d5c603491396040516315a8752360e31b8152306004820152602481018790526001600160a01b038a169063ad43a918906044016020604051808303816000875af1158015610b99573d6000803e3d6000fd5b505050506040513d601f19601f82011682018060405250810190610bbd9190611a90565b84516009805489908110610bd357610bd3611a7a565b9060005260206000200154611717565b60098481548110610bf657610bf6611a7a565b9060005260206000200154600014610cbb5760098481548110610c1b57610c1b611a7a565b60009182526020909120015482516040516315a8752360e31b8152306004820152602481018790526001600160a01b038a169063ad43a918906044016020604051808303816000875af1158015610c76573d6000803e3d6000fd5b505050506040513d601f19601f82011682018060405250810190610c9a9190611a90565b610ca49190611abc565b610cae9190611ad3565b610cb89086611aa9565b94505b336000908152600760205260408120805491610cd683611af5565b90915550503360009081526007602090815260409182902054908301519151635487c57760e01b81526004810192909252906001600160a01b038a1690635487c57790602401602060405180830381865afa158015610d39573d6000803e3d6000fd5b505050506040513d601f19601f82011682018060405250810190610d5d9190611a90565b03610d8357336000908152600660205260408120805491610d7d83611af5565b91905055505b505b5080610d9081611af5565b9150506106b5565b50610dc86040518060400160405280600d81526020016c616d6f756e74546f436c61696d60981b81525083611766565b60008054906101000a90046001600160a01b03166001600160a01b03166315b9ba5d6040518163ffffffff1660e01b8152600401602060405180830381865afa158015610e19573d6000803e3d6000fd5b505050506040513d601f19601f82011682018060405250810190610e3d9190611a5d565b604051631ec9887760e11b8152336004820152602481018490526001600160a01b039190911690633d9310ee90604401600060405180830381600087803b158015610e8757600080fd5b505af1158015610e9b573d6000803e3d6000fd5b509398975050505050505050565b60008060009054906101000a90046001600160a01b03166001600160a01b03166308b0308a6040518163ffffffff1660e01b8152600401602060405180830381865afa158015610efd573d6000803e3d6000fd5b505050506040513d601f19601f82011682018060405250810190610f219190611a5d565b604051635487c57760e01b81524260048201526001600160a01b039190911690635487c57790602401602060405180830381865afa158015610f67573d6000803e3d6000fd5b505050506040513d601f19601f82011682018060405250810190610f8b9190611a90565b905060005b6080811015610feb57600954821115610feb57600854600980546001810182556000919091527f6e1540171b6c0c960b71a7020d9f60077f6af931a8bbf590da0223dacf75c7af015580610fe381611af5565b915050610f90565b5050565b60005460408051630458184560e11b8152905142926001600160a01b0316916308b0308a9160048083019260209291908290030181865afa158015611038573d6000803e3d6000fd5b505050506040513d601f19601f8201168201806040525081019061105c9190611a5d565b60405163cbf9fe5f60e01b81526001600160a01b038481166004830152919091169063cbf9fe5f906024016040805180830381865afa1580156110a3573d6000803e3d6000fd5b505050506040513d601f19601f820116820180604052508101906110c79190611b0e565b6020015110156110da576110da816113fe565b50565b60005b8151811015610feb5761110b8282815181106110fe576110fe611a7a565b6020026020010151610267565b8061111581611af5565b9150506110e0565b600081815260016020526040812080546001600160a01b031916331790556111448261131f565b6000838152600b60209081526040808320849055338352600c909152812080549293508392909190611177908490611aa9565b9250508190555080600d60008282546111909190611aa9565b9091555061119f9050336113fe565b600a54604051632142170760e11b8152336004820152306024820152604481018490526001600160a01b03909116906342842e0e90606401600060405180830381600087803b1580156111f157600080fd5b505af1158015611205573d6000803e3d6000fd5b505033600081815260026020818152604080842080546003845282862081875284528286208b90558a865260048452918520829055948452919052825490945060019350611254908490611aa9565b909155505060405183815233907fa76194b11cf7b940f18e866ed3382a795bb09ca684db1b957d595417f63151f8906020016104af565b6001600160a01b0381166000908152600c602052604081205481036112b257506000919050565b6001600160a01b0382166000908152600c60209081526040808320546005909252909120805461271091906112e990600190611a3a565b815481106112f9576112f9611a7a565b9060005260206000209060020201600001546113159190611abc565b6102619190611ad3565b600a546040516319ba7e5360e31b81526004810183905260009182916001600160a01b039091169063cdd3f29890602401600060405180830381865afa15801561136d573d6000803e3d6000fd5b505050506040513d6000823e601f3d908101601f191682016040526113959190810190611b5d565b9050600081604001518260000151516113ae9190611abc565b9050600082602001518211156113c9575060208201516113cc565b50805b6113f6604051806040016040528060088152602001674c502056414c554560c01b81525082611766565b949350505050565b60008060009054906101000a90046001600160a01b03166001600160a01b03166308b0308a6040518163ffffffff1660e01b8152600401602060405180830381865afa158015611452573d6000803e3d6000fd5b505050506040513d601f19601f820116820180604052508101906114769190611a5d565b6040516370a0823160e01b81526001600160a01b0384811660048301529192506000918316906370a0823190602401602060405180830381865afa1580156114c2573d6000803e3d6000fd5b505050506040513d601f19601f820116820180604052508101906114e69190611a90565b90506000826001600160a01b03166318160ddd6040518163ffffffff1660e01b81526004016020604051808303816000875af115801561152a573d6000803e3d6000fd5b505050506040513d601f19601f8201168201806040525081019061154e9190611a90565b905060008160000361157957506001600160a01b0384166000908152600c6020526040902054611601565b6001600160a01b0385166000908152600c6020526040902054600d546115fe91906127109085906115ac88611388611abc565b6115b69190611abc565b6115c09190611ad3565b6001600160a01b0389166000908152600c60205260409020546115e590611388611abc565b6115ef9190611aa9565b6115f99190611ad3565b6117ab565b90505b60408051808201909152600080825260208201526001600160a01b03861660009081526005602052604090205415611699576001600160a01b0386166000908152600560205260409020805461165990600190611a3a565b8154811061166957611669611a7a565b90600052602060002090600202016040518060400160405290816000820154815260200160018201548152505090505b6040805180820190915282815242602082015281516008546116bc908590611aa9565b6116c69190611a3a565b6008556116d1610ea9565b6001600160a01b03909616600090815260056020908152604082208054600181810183559184529282902089516002909402019283559701519601959095555050505050565b611760848484846040516024016117319493929190611c9f565b60408051601f198184030181529190526020810180516001600160e01b031663a7a8785360e01b1790526117c3565b50505050565b610feb828260405160240161177c929190611cce565b60408051601f198184030181529190526020810180516001600160e01b0316632d839cb360e21b1790526117c3565b60008183106117ba57816117bc565b825b9392505050565b80516a636f6e736f6c652e6c6f67602083016000808483855afa5050505050565b6001600160a01b03811681146110da57600080fd5b6000806040838503121561180c57600080fd5b8235611817816117e4565b946020939093013593505050565b60008060008060006080868803121561183d57600080fd5b8535611848816117e4565b94506020860135611858816117e4565b935060408601359250606086013567ffffffffffffffff8082111561187c57600080fd5b818801915088601f83011261189057600080fd5b81358181111561189f57600080fd5b8960208285010111156118b157600080fd5b9699959850939650602001949392505050565b6000602082840312156118d657600080fd5b5035919050565b6000602082840312156118ef57600080fd5b81356117bc816117e4565b634e487b7160e01b600052604160045260246000fd5b60405160c0810167ffffffffffffffff81118282101715611933576119336118fa565b60405290565b604051601f8201601f1916810167ffffffffffffffff81118282101715611962576119626118fa565b604052919050565b600067ffffffffffffffff821115611984576119846118fa565b5060051b60200190565b600060208083850312156119a157600080fd5b823567ffffffffffffffff8111156119b857600080fd5b8301601f810185136119c957600080fd5b80356119dc6119d78261196a565b611939565b81815260059190911b820183019083810190878311156119fb57600080fd5b928401925b82841015611a1957833582529284019290840190611a00565b979650505050505050565b634e487b7160e01b600052601160045260246000fd5b8181038181111561026157610261611a24565b8051611a58816117e4565b919050565b600060208284031215611a6f57600080fd5b81516117bc816117e4565b634e487b7160e01b600052603260045260246000fd5b600060208284031215611aa257600080fd5b5051919050565b8082018082111561026157610261611a24565b808202811582820484141761026157610261611a24565b600082611af057634e487b7160e01b600052601260045260246000fd5b500490565b600060018201611b0757611b07611a24565b5060010190565b600060408284031215611b2057600080fd5b6040516040810181811067ffffffffffffffff82111715611b4357611b436118fa565b604052825181526020928301519281019290925250919050565b60006020808385031215611b7057600080fd5b825167ffffffffffffffff80821115611b8857600080fd5b9084019060c08287031215611b9c57600080fd5b611ba4611910565b825182811115611bb357600080fd5b83019150601f82018713611bc657600080fd5b8151611bd46119d78261196a565b81815260059190911b83018501908581019089831115611bf357600080fd5b938601935b82851015611c1157845182529386019390860190611bf8565b83525050828401518482015260408084015190820152611c3360608401611a4d565b60608201526080830151608082015260a083015160a08201528094505050505092915050565b6000815180845260005b81811015611c7f57602081850181015186830182015201611c63565b506000602082860101526020601f19601f83011685010191505092915050565b608081526000611cb26080830187611c59565b6020830195909552506040810192909252606090910152919050565b604081526000611ce16040830185611c59565b9050826020830152939250505056fe69203d2025732c206e657874436c61696d656445706f6368203d202573202c20766f74696e67457363726f772e65706f636828626c6f636b2e74696d657374616d7029203d202573496e6372656d656e74656420776f726b696e672062616c616e636520706f696e746572436c61696d696e6720776f726b696e672062616c616e6365202573207769746820257320746f6b656e73206f7574206f66202573a264697066735822122062d6aab133ea31351fbd60a3982b76849d93f842c8e9e83bd3a158e50bb4359664736f6c63430008110033",
  "linkReferences": {},
  "deployedLinkReferences": {}
}