{
  "_format": "hh-sol-artifact-1",
  "contractName": "TradingPool",
  "sourceName": "contracts/protocol/Swap/TradingPool.sol",
  "abi": [
    {
      "inputs": [
        {
          "internalType": "contract IAddressesProvider",
          "name": "addressProvider",
          "type": "address"
        },
        {
          "internalType": "address",
          "name": "owner",
          "type": "address"
        },
        {
          "internalType": "contract IERC20",
          "name": "token",
          "type": "address"
        },
        {
          "internalType": "address",
          "name": "nft",
          "type": "address"
        },
        {
          "internalType": "uint256",
          "name": "defaultSwapFee",
          "type": "uint256"
        },
        {
          "internalType": "string",
          "name": "name",
          "type": "string"
        },
        {
          "internalType": "string",
          "name": "symbol",
          "type": "string"
        }
      ],
      "stateMutability": "nonpayable",
      "type": "constructor"
    },
    {
      "anonymous": false,
      "inputs": [
        {
          "indexed": true,
          "internalType": "address",
          "name": "user",
          "type": "address"
        },
        {
          "indexed": true,
          "internalType": "uint256",
          "name": "id",
          "type": "uint256"
        },
        {
          "indexed": false,
          "internalType": "uint256",
          "name": "tokenAmount",
          "type": "uint256"
        },
        {
          "indexed": false,
          "internalType": "uint256[]",
          "name": "nftIds",
          "type": "uint256[]"
        }
      ],
      "name": "AddLiquidity",
      "type": "event"
    },
    {
      "anonymous": false,
      "inputs": [
        {
          "indexed": true,
          "internalType": "address",
          "name": "owner",
          "type": "address"
        },
        {
          "indexed": true,
          "internalType": "address",
          "name": "approved",
          "type": "address"
        },
        {
          "indexed": true,
          "internalType": "uint256",
          "name": "tokenId",
          "type": "uint256"
        }
      ],
      "name": "Approval",
      "type": "event"
    },
    {
      "anonymous": false,
      "inputs": [
        {
          "indexed": true,
          "internalType": "address",
          "name": "owner",
          "type": "address"
        },
        {
          "indexed": true,
          "internalType": "address",
          "name": "operator",
          "type": "address"
        },
        {
          "indexed": false,
          "internalType": "bool",
          "name": "approved",
          "type": "bool"
        }
      ],
      "name": "ApprovalForAll",
      "type": "event"
    },
    {
      "anonymous": false,
      "inputs": [
        {
          "indexed": true,
          "internalType": "address",
          "name": "user",
          "type": "address"
        },
        {
          "indexed": false,
          "internalType": "uint256[]",
          "name": "nftIds",
          "type": "uint256[]"
        },
        {
          "indexed": false,
          "internalType": "uint256",
          "name": "price",
          "type": "uint256"
        }
      ],
      "name": "Buy",
      "type": "event"
    },
    {
      "anonymous": false,
      "inputs": [
        {
          "indexed": true,
          "internalType": "address",
          "name": "previousOwner",
          "type": "address"
        },
        {
          "indexed": true,
          "internalType": "address",
          "name": "newOwner",
          "type": "address"
        }
      ],
      "name": "OwnershipTransferred",
      "type": "event"
    },
    {
      "anonymous": false,
      "inputs": [
        {
          "indexed": true,
          "internalType": "address",
          "name": "user",
          "type": "address"
        },
        {
          "indexed": true,
          "internalType": "uint256",
          "name": "id",
          "type": "uint256"
        }
      ],
      "name": "RemoveLiquidity",
      "type": "event"
    },
    {
      "anonymous": false,
      "inputs": [
        {
          "indexed": true,
          "internalType": "address",
          "name": "user",
          "type": "address"
        },
        {
          "indexed": false,
          "internalType": "uint256[]",
          "name": "nftIds",
          "type": "uint256[]"
        },
        {
          "indexed": false,
          "internalType": "uint256",
          "name": "price",
          "type": "uint256"
        }
      ],
      "name": "Sell",
      "type": "event"
    },
    {
      "anonymous": false,
      "inputs": [
        {
          "indexed": true,
          "internalType": "address",
          "name": "from",
          "type": "address"
        },
        {
          "indexed": true,
          "internalType": "address",
          "name": "to",
          "type": "address"
        },
        {
          "indexed": true,
          "internalType": "uint256",
          "name": "tokenId",
          "type": "uint256"
        }
      ],
      "name": "Transfer",
      "type": "event"
    },
    {
      "inputs": [
        {
          "internalType": "uint256",
          "name": "tokenAmount",
          "type": "uint256"
        },
        {
          "internalType": "uint256[]",
          "name": "nftIds",
          "type": "uint256[]"
        },
        {
          "internalType": "address",
          "name": "curve",
          "type": "address"
        },
        {
          "internalType": "uint256",
          "name": "delta",
          "type": "uint256"
        },
        {
          "internalType": "uint256",
          "name": "initialPrice",
          "type": "uint256"
        }
      ],
      "name": "addLiquidity",
      "outputs": [],
      "stateMutability": "nonpayable",
      "type": "function"
    },
    {
      "inputs": [
        {
          "internalType": "address",
          "name": "to",
          "type": "address"
        },
        {
          "internalType": "uint256",
          "name": "tokenId",
          "type": "uint256"
        }
      ],
      "name": "approve",
      "outputs": [],
      "stateMutability": "nonpayable",
      "type": "function"
    },
    {
      "inputs": [
        {
          "internalType": "address",
          "name": "owner",
          "type": "address"
        }
      ],
      "name": "balanceOf",
      "outputs": [
        {
          "internalType": "uint256",
          "name": "",
          "type": "uint256"
        }
      ],
      "stateMutability": "view",
      "type": "function"
    },
    {
      "inputs": [
        {
          "internalType": "uint256[]",
          "name": "nftIds",
          "type": "uint256[]"
        }
      ],
      "name": "buy",
      "outputs": [
        {
          "internalType": "uint256",
          "name": "",
          "type": "uint256"
        }
      ],
      "stateMutability": "nonpayable",
      "type": "function"
    },
    {
      "inputs": [
        {
          "internalType": "uint256",
          "name": "tokenId",
          "type": "uint256"
        }
      ],
      "name": "getApproved",
      "outputs": [
        {
          "internalType": "address",
          "name": "",
          "type": "address"
        }
      ],
      "stateMutability": "view",
      "type": "function"
    },
    {
      "inputs": [
        {
          "internalType": "uint256",
          "name": "lpId",
          "type": "uint256"
        }
      ],
      "name": "getLP",
      "outputs": [
        {
          "components": [
            {
              "internalType": "uint256",
              "name": "tokenAmount",
              "type": "uint256"
            },
            {
              "internalType": "uint256[]",
              "name": "nftIds",
              "type": "uint256[]"
            },
            {
              "internalType": "address",
              "name": "curve",
              "type": "address"
            },
            {
              "internalType": "uint256",
              "name": "delta",
              "type": "uint256"
            },
            {
              "internalType": "uint256",
              "name": "price",
              "type": "uint256"
            }
          ],
          "internalType": "struct DataTypes.LiquidityPair",
          "name": "",
          "type": "tuple"
        }
      ],
      "stateMutability": "view",
      "type": "function"
    },
    {
      "inputs": [],
      "name": "getNFT",
      "outputs": [
        {
          "internalType": "address",
          "name": "",
          "type": "address"
        }
      ],
      "stateMutability": "view",
      "type": "function"
    },
    {
      "inputs": [],
      "name": "getSwapFee",
      "outputs": [
        {
          "internalType": "uint256",
          "name": "",
          "type": "uint256"
        }
      ],
      "stateMutability": "view",
      "type": "function"
    },
    {
      "inputs": [],
      "name": "getToken",
      "outputs": [
        {
          "internalType": "address",
          "name": "",
          "type": "address"
        }
      ],
      "stateMutability": "view",
      "type": "function"
    },
    {
      "inputs": [
        {
          "internalType": "address",
          "name": "owner",
          "type": "address"
        },
        {
          "internalType": "address",
          "name": "operator",
          "type": "address"
        }
      ],
      "name": "isApprovedForAll",
      "outputs": [
        {
          "internalType": "bool",
          "name": "",
          "type": "bool"
        }
      ],
      "stateMutability": "view",
      "type": "function"
    },
    {
      "inputs": [],
      "name": "name",
      "outputs": [
        {
          "internalType": "string",
          "name": "",
          "type": "string"
        }
      ],
      "stateMutability": "view",
      "type": "function"
    },
    {
      "inputs": [
        {
          "internalType": "uint256",
          "name": "nftId",
          "type": "uint256"
        }
      ],
      "name": "nftToLp",
      "outputs": [
        {
          "internalType": "uint256",
          "name": "",
          "type": "uint256"
        }
      ],
      "stateMutability": "view",
      "type": "function"
    },
    {
      "inputs": [
        {
          "internalType": "address",
          "name": "",
          "type": "address"
        },
        {
          "internalType": "address",
          "name": "",
          "type": "address"
        },
        {
          "internalType": "uint256",
          "name": "",
          "type": "uint256"
        },
        {
          "internalType": "bytes",
          "name": "",
          "type": "bytes"
        }
      ],
      "name": "onERC721Received",
      "outputs": [
        {
          "internalType": "bytes4",
          "name": "",
          "type": "bytes4"
        }
      ],
      "stateMutability": "nonpayable",
      "type": "function"
    },
    {
      "inputs": [],
      "name": "owner",
      "outputs": [
        {
          "internalType": "address",
          "name": "",
          "type": "address"
        }
      ],
      "stateMutability": "view",
      "type": "function"
    },
    {
      "inputs": [
        {
          "internalType": "uint256",
          "name": "tokenId",
          "type": "uint256"
        }
      ],
      "name": "ownerOf",
      "outputs": [
        {
          "internalType": "address",
          "name": "",
          "type": "address"
        }
      ],
      "stateMutability": "view",
      "type": "function"
    },
    {
      "inputs": [
        {
          "internalType": "uint256",
          "name": "lpId",
          "type": "uint256"
        }
      ],
      "name": "removeLiquidity",
      "outputs": [],
      "stateMutability": "nonpayable",
      "type": "function"
    },
    {
      "inputs": [],
      "name": "renounceOwnership",
      "outputs": [],
      "stateMutability": "nonpayable",
      "type": "function"
    },
    {
      "inputs": [
        {
          "internalType": "address",
          "name": "from",
          "type": "address"
        },
        {
          "internalType": "address",
          "name": "to",
          "type": "address"
        },
        {
          "internalType": "uint256",
          "name": "tokenId",
          "type": "uint256"
        }
      ],
      "name": "safeTransferFrom",
      "outputs": [],
      "stateMutability": "nonpayable",
      "type": "function"
    },
    {
      "inputs": [
        {
          "internalType": "address",
          "name": "from",
          "type": "address"
        },
        {
          "internalType": "address",
          "name": "to",
          "type": "address"
        },
        {
          "internalType": "uint256",
          "name": "tokenId",
          "type": "uint256"
        },
        {
          "internalType": "bytes",
          "name": "data",
          "type": "bytes"
        }
      ],
      "name": "safeTransferFrom",
      "outputs": [],
      "stateMutability": "nonpayable",
      "type": "function"
    },
    {
      "inputs": [
        {
          "internalType": "uint256[]",
          "name": "nftIds",
          "type": "uint256[]"
        },
        {
          "internalType": "uint256[]",
          "name": "liquidityPairs",
          "type": "uint256[]"
        }
      ],
      "name": "sell",
      "outputs": [
        {
          "internalType": "uint256",
          "name": "",
          "type": "uint256"
        }
      ],
      "stateMutability": "nonpayable",
      "type": "function"
    },
    {
      "inputs": [
        {
          "internalType": "address",
          "name": "operator",
          "type": "address"
        },
        {
          "internalType": "bool",
          "name": "approved",
          "type": "bool"
        }
      ],
      "name": "setApprovalForAll",
      "outputs": [],
      "stateMutability": "nonpayable",
      "type": "function"
    },
    {
      "inputs": [
        {
          "internalType": "uint256",
          "name": "newSwapFee",
          "type": "uint256"
        }
      ],
      "name": "setSwapFee",
      "outputs": [],
      "stateMutability": "nonpayable",
      "type": "function"
    },
    {
      "inputs": [
        {
          "internalType": "bytes4",
          "name": "interfaceId",
          "type": "bytes4"
        }
      ],
      "name": "supportsInterface",
      "outputs": [
        {
          "internalType": "bool",
          "name": "",
          "type": "bool"
        }
      ],
      "stateMutability": "view",
      "type": "function"
    },
    {
      "inputs": [],
      "name": "symbol",
      "outputs": [
        {
          "internalType": "string",
          "name": "",
          "type": "string"
        }
      ],
      "stateMutability": "view",
      "type": "function"
    },
    {
      "inputs": [
        {
          "internalType": "uint256",
          "name": "index",
          "type": "uint256"
        }
      ],
      "name": "tokenByIndex",
      "outputs": [
        {
          "internalType": "uint256",
          "name": "",
          "type": "uint256"
        }
      ],
      "stateMutability": "view",
      "type": "function"
    },
    {
      "inputs": [
        {
          "internalType": "address",
          "name": "owner",
          "type": "address"
        },
        {
          "internalType": "uint256",
          "name": "index",
          "type": "uint256"
        }
      ],
      "name": "tokenOfOwnerByIndex",
      "outputs": [
        {
          "internalType": "uint256",
          "name": "",
          "type": "uint256"
        }
      ],
      "stateMutability": "view",
      "type": "function"
    },
    {
      "inputs": [
        {
          "internalType": "uint256",
          "name": "tokenId",
          "type": "uint256"
        }
      ],
      "name": "tokenURI",
      "outputs": [
        {
          "internalType": "string",
          "name": "",
          "type": "string"
        }
      ],
      "stateMutability": "view",
      "type": "function"
    },
    {
      "inputs": [],
      "name": "totalSupply",
      "outputs": [
        {
          "internalType": "uint256",
          "name": "",
          "type": "uint256"
        }
      ],
      "stateMutability": "view",
      "type": "function"
    },
    {
      "inputs": [
        {
          "internalType": "address",
          "name": "from",
          "type": "address"
        },
        {
          "internalType": "address",
          "name": "to",
          "type": "address"
        },
        {
          "internalType": "uint256",
          "name": "tokenId",
          "type": "uint256"
        }
      ],
      "name": "transferFrom",
      "outputs": [],
      "stateMutability": "nonpayable",
      "type": "function"
    },
    {
      "inputs": [
        {
          "internalType": "address",
          "name": "newOwner",
          "type": "address"
        }
      ],
      "name": "transferOwnership",
      "outputs": [],
      "stateMutability": "nonpayable",
      "type": "function"
    }
  ],
  "bytecode": "0x60806040523480156200001157600080fd5b5060405162003475380380620034758339810160408190526200003491620002dd565b8181600062000044838262000436565b50600162000053828262000436565b505050620000706200006a620001a960201b60201c565b620001ad565b866001600160a01b031663ca1470ea6040518163ffffffff1660e01b8152600401602060405180830381865afa158015620000af573d6000803e3d6000fd5b505050506040513d601f19601f82011682018060405250810190620000d5919062000502565b6001600160a01b0316336001600160a01b0316146200014f5760405162461bcd60e51b815260206004820152602c60248201527f54726164696e6720506f6f6c206d75737420626520637265617465642074687260448201526b6f75676820466163746f727960a01b606482015260840160405180910390fd5b600b80546001600160a01b03808a166001600160a01b031992831617909255600c8054888416908316179055600d805492871692909116919091179055600e8390556200019c86620001ad565b5050505050505062000529565b3390565b600a80546001600160a01b038381166001600160a01b0319831681179093556040519116919082907f8be0079c531659141344cd1fd0a4f28419497f9722a3daafe3b4186f6b6457e090600090a35050565b6001600160a01b03811681146200021557600080fd5b50565b634e487b7160e01b600052604160045260246000fd5b600082601f8301126200024057600080fd5b81516001600160401b03808211156200025d576200025d62000218565b604051601f8301601f19908116603f0116810190828211818310171562000288576200028862000218565b81604052838152602092508683858801011115620002a557600080fd5b600091505b83821015620002c95785820183015181830184015290820190620002aa565b600093810190920192909252949350505050565b600080600080600080600060e0888a031215620002f957600080fd5b87516200030681620001ff565b60208901519097506200031981620001ff565b60408901519096506200032c81620001ff565b60608901519095506200033f81620001ff565b608089015160a08a015191955093506001600160401b03808211156200036457600080fd5b620003728b838c016200022e565b935060c08a01519150808211156200038957600080fd5b50620003988a828b016200022e565b91505092959891949750929550565b600181811c90821680620003bc57607f821691505b602082108103620003dd57634e487b7160e01b600052602260045260246000fd5b50919050565b601f8211156200043157600081815260208120601f850160051c810160208610156200040c5750805b601f850160051c820191505b818110156200042d5782815560010162000418565b5050505b505050565b81516001600160401b0381111562000452576200045262000218565b6200046a81620004638454620003a7565b84620003e3565b602080601f831160018114620004a25760008415620004895750858301515b600019600386901b1c1916600185901b1785556200042d565b600085815260208120601f198616915b82811015620004d357888601518255948401946001909101908401620004b2565b5085821015620004f25787850151600019600388901b60f8161c191681555b5050505050600190811b01905550565b6000602082840312156200051557600080fd5b81516200052281620001ff565b9392505050565b612f3c80620005396000396000f3fe608060405234801561001057600080fd5b50600436106101da5760003560e01c806370a0823111610104578063b88d4fde116100a2578063d07fd39311610071578063d07fd39314610414578063d4cadf6814610427578063e985e9c51461042f578063f2fde38b1461046b57600080fd5b8063b88d4fde146103bb578063c243c72b146103ce578063c87b56dd146103e1578063cdd3f298146103f457600080fd5b80638da5cb5b116100de5780638da5cb5b1461037c57806395d89b411461038d5780639c8f9f2314610395578063a22cb465146103a857600080fd5b806370a0823114610350578063715018a61461036357806388a6360e1461036b57600080fd5b806323b872dd1161017c5780634f6ccce71161014b5780634f6ccce7146102f75780635460d8491461030a5780636352211e1461032a57806368660cd41461033d57600080fd5b806323b872dd146102ab5780632f745c59146102be57806334e19907146102d157806342842e0e146102e457600080fd5b8063095ea7b3116101b8578063095ea7b314610247578063150b7a021461025c57806318160ddd1461028857806321df0da71461029a57600080fd5b806301ffc9a7146101df57806306fdde0314610207578063081812fc1461021c575b600080fd5b6101f26101ed366004612735565b61047e565b60405190151581526020015b60405180910390f35b61020f61048f565b6040516101fe91906127a2565b61022f61022a3660046127b5565b610521565b6040516001600160a01b0390911681526020016101fe565b61025a6102553660046127ea565b610548565b005b61026f61026a36600461285b565b610662565b6040516001600160e01b031990911681526020016101fe565b6008545b6040519081526020016101fe565b600c546001600160a01b031661022f565b61025a6102b936600461291b565b610673565b61028c6102cc3660046127ea565b6106a4565b61025a6102df3660046127b5565b61073a565b61025a6102f236600461291b565b610747565b61028c6103053660046127b5565b610762565b61028c6103183660046127b5565b60009081526010602052604090205490565b61022f6103383660046127b5565b6107f5565b61025a61034b3660046129cc565b610855565b61028c61035e366004612a35565b610a6f565b61025a610af5565b600d546001600160a01b031661022f565b600a546001600160a01b031661022f565b61020f610b09565b61025a6103a33660046127b5565b610b18565b61025a6103b6366004612a5e565b610c83565b61025a6103c936600461285b565b610c92565b61028c6103dc366004612a95565b610cca565b61020f6103ef3660046127b5565b6110bf565b6104076104023660046127b5565b611133565b6040516101fe9190612b05565b61028c610422366004612b5d565b6111de565b600e5461028c565b6101f261043d366004612bc1565b6001600160a01b03918216600090815260056020908152604080832093909416825291909152205460ff1690565b61025a610479366004612a35565b6115da565b600061048982611653565b92915050565b60606000805461049e90612bf4565b80601f01602080910402602001604051908101604052809291908181526020018280546104ca90612bf4565b80156105175780601f106104ec57610100808354040283529160200191610517565b820191906000526020600020905b8154815290600101906020018083116104fa57829003601f168201915b5050505050905090565b600061052c82611678565b506000908152600460205260409020546001600160a01b031690565b6000610553826107f5565b9050806001600160a01b0316836001600160a01b0316036105c55760405162461bcd60e51b815260206004820152602160248201527f4552433732313a20617070726f76616c20746f2063757272656e74206f776e656044820152603960f91b60648201526084015b60405180910390fd5b336001600160a01b03821614806105e157506105e1813361043d565b6106535760405162461bcd60e51b815260206004820152603d60248201527f4552433732313a20617070726f76652063616c6c6572206973206e6f7420746f60448201527f6b656e206f776e6572206f7220617070726f76656420666f7220616c6c00000060648201526084016105bc565b61065d83836116d7565b505050565b630a85bd0160e11b5b949350505050565b61067d3382611745565b6106995760405162461bcd60e51b81526004016105bc90612c2e565b61065d8383836117c3565b60006106af83610a6f565b82106107115760405162461bcd60e51b815260206004820152602b60248201527f455243373231456e756d657261626c653a206f776e657220696e646578206f7560448201526a74206f6620626f756e647360a81b60648201526084016105bc565b506001600160a01b03919091166000908152600660209081526040808320938352929052205490565b610742611934565b600e55565b61065d83838360405180602001604052806000815250610c92565b600061076d60085490565b82106107d05760405162461bcd60e51b815260206004820152602c60248201527f455243373231456e756d657261626c653a20676c6f62616c20696e646578206f60448201526b7574206f6620626f756e647360a01b60648201526084016105bc565b600882815481106107e3576107e3612c7b565b90600052602060002001549050919050565b6000818152600260205260408120546001600160a01b0316806104895760405162461bcd60e51b8152602060048201526018602482015277115490cdcc8c4e881a5b9d985b1a59081d1bdad95b88125160421b60448201526064016105bc565b60005b845181101561094d57600d5485516001600160a01b03909116906342842e0e903390309089908690811061088e5761088e612c7b565b60200260200101516040518463ffffffff1660e01b81526004016108b493929190612c91565b600060405180830381600087803b1580156108ce57600080fd5b505af11580156108e2573d6000803e3d6000fd5b5050505060405180604001604052806011548152602001828152506010600087848151811061091357610913612c7b565b602090810291909101810151825281810192909252604001600020825181559101516001909101558061094581612ccb565b915050610858565b50600c54610966906001600160a01b031633308861198e565b6040805160a08101825286815260208082018781526001600160a01b0387168385015260608301869052608083018590526011546000908152600f83529390932082518155925180519293926109c29260018501920190612669565b5060408201516002820180546001600160a01b0319166001600160a01b0390921691909117905560608201516003820155608090910151600490910155601154610a0d9033906119e6565b60118054906000610a1d83612ccb565b9190505550601154336001600160a01b03167ff2b8d398085ceadfce4f6fd552acf36e537609826798cb78bcde9fb1cc7cb9138787604051610a60929190612ce4565b60405180910390a35050505050565b60006001600160a01b038216610ad95760405162461bcd60e51b815260206004820152602960248201527f4552433732313a2061646472657373207a65726f206973206e6f7420612076616044820152683634b21037bbb732b960b91b60648201526084016105bc565b506001600160a01b031660009081526003602052604090205490565b610afd611934565b610b076000611a00565b565b60606001805461049e90612bf4565b610b2181611a52565b60005b6000828152600f6020526040902060010154811015610be857600d546000838152600f6020526040902060010180546001600160a01b03909216916342842e0e91309133919086908110610b7a57610b7a612c7b565b90600052602060002001546040518463ffffffff1660e01b8152600401610ba393929190612c91565b600060405180830381600087803b158015610bbd57600080fd5b505af1158015610bd1573d6000803e3d6000fd5b505050508080610be090612ccb565b915050610b24565b506000818152600f6020526040902054600c54610c12916001600160a01b03909116903090611af5565b6000818152600f6020526040812081815590610c3160018301826126b4565b506002810180546001600160a01b03191690556000600382018190556004909101819055604051829133917fdfdd120ded9b7afc0c23dd5310e93aaa3e1c3b9f75af9b805fab3030842439f29190a350565b610c8e338383611b25565b5050565b610c9c3383611745565b610cb85760405162461bcd60e51b81526004016105bc90612c2e565b610cc484848484611bf3565b50505050565b600080600080600080610cdb6126d2565b60005b885181101561105757601060008a8381518110610cfd57610cfd612c7b565b60200260200101518152602001908152602001600020600001549350601060008a8381518110610d2f57610d2f612c7b565b60200260200101518152602001908152602001600020600101549250600f60008581526020019081526020016000206040518060a00160405290816000820154815260200160018201805480602002602001604051908101604052809291908181526020018280548015610dc257602002820191906000526020600020905b815481526020019060010190808311610dae575b505050918352505060028201546001600160a01b0390811660208301526003830154604080840191909152600493840154606093840152848101516080860151938601519151635d8b487160e11b81529485019390935260248401529294509091169063bb1690e290604401602060405180830381865afa158015610e4b573d6000803e3d6000fd5b505050506040513d601f19601f82011682018060405250810190610e6f9190612cfd565b955061271086600e54612710610e859190612d16565b610e8f9190612d29565b610e999190612d40565b6000858152600f60205260409020600481018890556001908101805492975091610ec39190612d62565b81548110610ed357610ed3612c7b565b9060005260206000200154600f60008681526020019081526020016000206001018481548110610f0557610f05612c7b565b9060005260206000200181905550600f6000858152602001908152602001600020600101805480610f3857610f38612d75565b6001900381819060005260206000200160009055905584600f60008681526020019081526020016000206000016000828254610f749190612d16565b90915550610f8490508588612d16565b9650601060008a8381518110610f9c57610f9c612c7b565b6020908102919091018101518252810191909152604001600090812081815560010155600d5489516001600160a01b03909116906342842e0e90309033908d9086908110610fec57610fec612c7b565b60200260200101516040518463ffffffff1660e01b815260040161101293929190612c91565b600060405180830381600087803b15801561102c57600080fd5b505af1158015611040573d6000803e3d6000fd5b50505050808061104f90612ccb565b915050610cde565b50600c54611070906001600160a01b031633308961198e565b336001600160a01b03167f0306912acbf130bc61cce94222a394a64e258433196a3d3679a9bbfb8973f77389886040516110ab929190612d8b565b60405180910390a250939695505050505050565b60606110ca82611678565b60006110e160408051602081019091526000815290565b90506000815111611101576040518060200160405280600081525061112c565b8061110b84611c26565b60405160200161111c929190612dad565b6040516020818303038152906040525b9392505050565b61113b6126d2565b6000828152600f6020908152604091829020825160a08101845281548152600182018054855181860281018601909652808652919492938581019392908301828280156111a757602002820191906000526020600020905b815481526020019060010190808311611193575b505050918352505060028201546001600160a01b031660208201526003820154604082015260049091015460609091015292915050565b600081518351146112485760405162461bcd60e51b815260206004820152602e60248201527f4e46547320616e64204c6971756964697479205061697273206d75737420686160448201526d0ecca40e6c2daca40d8cadccee8d60931b60648201526084016105bc565b6000806000806112566126d2565b60005b885181101561157357600d5489516001600160a01b03909116906342842e0e90339030908d908690811061128f5761128f612c7b565b60200260200101516040518463ffffffff1660e01b81526004016112b593929190612c91565b600060405180830381600087803b1580156112cf57600080fd5b505af11580156112e3573d6000803e3d6000fd5b50505050601060008a83815181106112fd576112fd612c7b565b60200260200101518152602001908152602001600020600001549350601060008a838151811061132f5761132f612c7b565b60200260200101518152602001908152602001600020600101549250600f60008581526020019081526020016000206040518060a001604052908160008201548152602001600182018054806020026020016040519081016040528092919081815260200182805480156113c257602002820191906000526020600020905b8154815260200190600101908083116113ae575b505050918352505060028201546001600160a01b03166020820152600382015460408201526004909101546060909101526080810151600e549193506127109161140c9083612d62565b6114169190612d29565b6114209190612d40565b945061142c8587612d16565b9550600f60008a838151811061144457611444612c7b565b6020026020010151815260200190815260200160002060010189828151811061146f5761146f612c7b565b602090810291909101810151825460018101845560009384528284200155858252600f90526040812080548792906114a8908490612d62565b9091555050604082810151608084015160608501519251633698f96560e11b8152600481019190915260248101929092526001600160a01b031690636d31f2ca90604401602060405180830381865afa158015611509573d6000803e3d6000fd5b505050506040513d601f19601f8201168201806040525081019061152d9190612cfd565b600f60008b848151811061154357611543612c7b565b6020026020010151815260200190815260200160002060040181905550808061156b90612ccb565b915050611259565b50600c5461158b906001600160a01b03163087611af5565b336001600160a01b03167feb3c528adebc70d317bef09706905761642981ebf9def9aafdc40f404e49346a89876040516115c6929190612d8b565b60405180910390a250929695505050505050565b6115e2611934565b6001600160a01b0381166116475760405162461bcd60e51b815260206004820152602660248201527f4f776e61626c653a206e6577206f776e657220697320746865207a65726f206160448201526564647265737360d01b60648201526084016105bc565b61165081611a00565b50565b60006001600160e01b0319821663780e9d6360e01b1480610489575061048982611cb9565b6000818152600260205260409020546001600160a01b03166116505760405162461bcd60e51b8152602060048201526018602482015277115490cdcc8c4e881a5b9d985b1a59081d1bdad95b88125160421b60448201526064016105bc565b600081815260046020526040902080546001600160a01b0319166001600160a01b038416908117909155819061170c826107f5565b6001600160a01b03167f8c5be1e5ebec7d5bd14f71427d1e84f3dd0314c0f7b2291e5b200ac8c7c3b92560405160405180910390a45050565b600080611751836107f5565b9050806001600160a01b0316846001600160a01b0316148061179857506001600160a01b0380821660009081526005602090815260408083209388168352929052205460ff165b8061066b5750836001600160a01b03166117b184610521565b6001600160a01b031614949350505050565b826001600160a01b03166117d6826107f5565b6001600160a01b0316146117fc5760405162461bcd60e51b81526004016105bc90612ddc565b6001600160a01b03821661185e5760405162461bcd60e51b8152602060048201526024808201527f4552433732313a207472616e7366657220746f20746865207a65726f206164646044820152637265737360e01b60648201526084016105bc565b61186b8383836001611d09565b826001600160a01b031661187e826107f5565b6001600160a01b0316146118a45760405162461bcd60e51b81526004016105bc90612ddc565b600081815260046020908152604080832080546001600160a01b03199081169091556001600160a01b0387811680865260038552838620805460001901905590871680865283862080546001019055868652600290945282852080549092168417909155905184937fddf252ad1be2c89b69c2b068fc378daa952ba7f163c4a11628f55a4df523b3ef91a4505050565b600a546001600160a01b03163314610b075760405162461bcd60e51b815260206004820181905260248201527f4f776e61626c653a2063616c6c6572206973206e6f7420746865206f776e657260448201526064016105bc565b610cc4846323b872dd60e01b8585856040516024016119af93929190612c91565b60408051601f198184030181529190526020810180516001600160e01b03166001600160e01b031990931692909217909152611d15565b610c8e828260405180602001604052806000815250611de7565b600a80546001600160a01b038381166001600160a01b0319831681179093556040519116919082907f8be0079c531659141344cd1fd0a4f28419497f9722a3daafe3b4186f6b6457e090600090a35050565b6000611a5d826107f5565b9050611a6d816000846001611d09565b611a76826107f5565b600083815260046020908152604080832080546001600160a01b03199081169091556001600160a01b0385168085526003845282852080546000190190558785526002909352818420805490911690555192935084927fddf252ad1be2c89b69c2b068fc378daa952ba7f163c4a11628f55a4df523b3ef908390a45050565b6040516001600160a01b03831660248201526044810182905261065d90849063a9059cbb60e01b906064016119af565b816001600160a01b0316836001600160a01b031603611b865760405162461bcd60e51b815260206004820152601960248201527f4552433732313a20617070726f766520746f2063616c6c65720000000000000060448201526064016105bc565b6001600160a01b03838116600081815260056020908152604080832094871680845294825291829020805460ff191686151590811790915591519182527f17307eab39ab6107e8899845ad3d59bd9653f200f220920489ca2b5937696c31910160405180910390a3505050565b611bfe8484846117c3565b611c0a84848484611e1a565b610cc45760405162461bcd60e51b81526004016105bc90612e21565b60606000611c3383611f18565b600101905060008167ffffffffffffffff811115611c5357611c53612814565b6040519080825280601f01601f191660200182016040528015611c7d576020820181803683370190505b5090508181016020015b600019016f181899199a1a9b1b9c1cb0b131b232b360811b600a86061a8153600a8504945084611c8757509392505050565b60006001600160e01b031982166380ac58cd60e01b1480611cea57506001600160e01b03198216635b5e139f60e01b145b8061048957506301ffc9a760e01b6001600160e01b0319831614610489565b610cc484848484611ff0565b6000611d6a826040518060400160405280602081526020017f5361666545524332303a206c6f772d6c6576656c2063616c6c206661696c6564815250856001600160a01b03166121309092919063ffffffff16565b80519091501561065d5780806020019051810190611d889190612e73565b61065d5760405162461bcd60e51b815260206004820152602a60248201527f5361666545524332303a204552433230206f7065726174696f6e20646964206e6044820152691bdd081cdd58d8d9595960b21b60648201526084016105bc565b611df1838361213f565b611dfe6000848484611e1a565b61065d5760405162461bcd60e51b81526004016105bc90612e21565b60006001600160a01b0384163b15611f1057604051630a85bd0160e11b81526001600160a01b0385169063150b7a0290611e5e903390899088908890600401612e90565b6020604051808303816000875af1925050508015611e99575060408051601f3d908101601f19168201909252611e9691810190612ecd565b60015b611ef6573d808015611ec7576040519150601f19603f3d011682016040523d82523d6000602084013e611ecc565b606091505b508051600003611eee5760405162461bcd60e51b81526004016105bc90612e21565b805181602001fd5b6001600160e01b031916630a85bd0160e11b14905061066b565b50600161066b565b60008072184f03e93ff9f4daa797ed6e38ed64bf6a1f0160401b8310611f575772184f03e93ff9f4daa797ed6e38ed64bf6a1f0160401b830492506040015b6d04ee2d6d415b85acef81000000008310611f83576d04ee2d6d415b85acef8100000000830492506020015b662386f26fc100008310611fa157662386f26fc10000830492506010015b6305f5e1008310611fb9576305f5e100830492506008015b6127108310611fcd57612710830492506004015b60648310611fdf576064830492506002015b600a83106104895760010192915050565b611ffc848484846122d8565b600181111561206b5760405162461bcd60e51b815260206004820152603560248201527f455243373231456e756d657261626c653a20636f6e7365637574697665207472604482015274185b9cd9995c9cc81b9bdd081cdd5c1c1bdc9d1959605a1b60648201526084016105bc565b816001600160a01b0385166120c7576120c281600880546000838152600960205260408120829055600182018355919091527ff3f7a9fe364faab93b216da50a3214154f22a0a2b415b23a84c8169e8b636ee30155565b6120ea565b836001600160a01b0316856001600160a01b0316146120ea576120ea8582612360565b6001600160a01b03841661210657612101816123fd565b612129565b846001600160a01b0316846001600160a01b0316146121295761212984826124ac565b5050505050565b606061066b84846000856124f0565b6001600160a01b0382166121955760405162461bcd60e51b815260206004820181905260248201527f4552433732313a206d696e7420746f20746865207a65726f206164647265737360448201526064016105bc565b6000818152600260205260409020546001600160a01b0316156121fa5760405162461bcd60e51b815260206004820152601c60248201527f4552433732313a20746f6b656e20616c7265616479206d696e7465640000000060448201526064016105bc565b612208600083836001611d09565b6000818152600260205260409020546001600160a01b03161561226d5760405162461bcd60e51b815260206004820152601c60248201527f4552433732313a20746f6b656e20616c7265616479206d696e7465640000000060448201526064016105bc565b6001600160a01b038216600081815260036020908152604080832080546001019055848352600290915280822080546001600160a01b0319168417905551839291907fddf252ad1be2c89b69c2b068fc378daa952ba7f163c4a11628f55a4df523b3ef908290a45050565b6001811115610cc4576001600160a01b0384161561231e576001600160a01b03841660009081526003602052604081208054839290612318908490612d62565b90915550505b6001600160a01b03831615610cc4576001600160a01b03831660009081526003602052604081208054839290612355908490612d16565b909155505050505050565b6000600161236d84610a6f565b6123779190612d62565b6000838152600760205260409020549091508082146123ca576001600160a01b03841660009081526006602090815260408083208584528252808320548484528184208190558352600790915290208190555b5060009182526007602090815260408084208490556001600160a01b039094168352600681528383209183525290812055565b60085460009061240f90600190612d62565b6000838152600960205260408120546008805493945090928490811061243757612437612c7b565b90600052602060002001549050806008838154811061245857612458612c7b565b600091825260208083209091019290925582815260099091526040808220849055858252812055600880548061249057612490612d75565b6001900381819060005260206000200160009055905550505050565b60006124b783610a6f565b6001600160a01b039093166000908152600660209081526040808320868452825280832085905593825260079052919091209190915550565b6060824710156125515760405162461bcd60e51b815260206004820152602660248201527f416464726573733a20696e73756666696369656e742062616c616e636520666f6044820152651c8818d85b1b60d21b60648201526084016105bc565b600080866001600160a01b0316858760405161256d9190612eea565b60006040518083038185875af1925050503d80600081146125aa576040519150601f19603f3d011682016040523d82523d6000602084013e6125af565b606091505b50915091506125c0878383876125cb565b979650505050505050565b6060831561263a578251600003612633576001600160a01b0385163b6126335760405162461bcd60e51b815260206004820152601d60248201527f416464726573733a2063616c6c20746f206e6f6e2d636f6e747261637400000060448201526064016105bc565b508161066b565b61066b838381511561264f5781518083602001fd5b8060405162461bcd60e51b81526004016105bc91906127a2565b8280548282559060005260206000209081019282156126a4579160200282015b828111156126a4578251825591602001919060010190612689565b506126b092915061270a565b5090565b5080546000825590600052602060002090810190611650919061270a565b6040518060a00160405280600081526020016060815260200160006001600160a01b0316815260200160008152602001600081525090565b5b808211156126b0576000815560010161270b565b6001600160e01b03198116811461165057600080fd5b60006020828403121561274757600080fd5b813561112c8161271f565b60005b8381101561276d578181015183820152602001612755565b50506000910152565b6000815180845261278e816020860160208601612752565b601f01601f19169290920160200192915050565b60208152600061112c6020830184612776565b6000602082840312156127c757600080fd5b5035919050565b80356001600160a01b03811681146127e557600080fd5b919050565b600080604083850312156127fd57600080fd5b612806836127ce565b946020939093013593505050565b634e487b7160e01b600052604160045260246000fd5b604051601f8201601f1916810167ffffffffffffffff8111828210171561285357612853612814565b604052919050565b6000806000806080858703121561287157600080fd5b61287a856127ce565b935060206128898187016127ce565b935060408601359250606086013567ffffffffffffffff808211156128ad57600080fd5b818801915088601f8301126128c157600080fd5b8135818111156128d3576128d3612814565b6128e5601f8201601f1916850161282a565b915080825289848285010111156128fb57600080fd5b808484018584013760008482840101525080935050505092959194509250565b60008060006060848603121561293057600080fd5b612939846127ce565b9250612947602085016127ce565b9150604084013590509250925092565b600082601f83011261296857600080fd5b8135602067ffffffffffffffff82111561298457612984612814565b8160051b61299382820161282a565b92835284810182019282810190878511156129ad57600080fd5b83870192505b848310156125c0578235825291830191908301906129b3565b600080600080600060a086880312156129e457600080fd5b85359450602086013567ffffffffffffffff811115612a0257600080fd5b612a0e88828901612957565b945050612a1d604087016127ce565b94979396509394606081013594506080013592915050565b600060208284031215612a4757600080fd5b61112c826127ce565b801515811461165057600080fd5b60008060408385031215612a7157600080fd5b612a7a836127ce565b91506020830135612a8a81612a50565b809150509250929050565b600060208284031215612aa757600080fd5b813567ffffffffffffffff811115612abe57600080fd5b61066b84828501612957565b600081518084526020808501945080840160005b83811015612afa57815187529582019590820190600101612ade565b509495945050505050565b60208152815160208201526000602083015160a06040840152612b2b60c0840182612aca565b905060018060a01b03604085015116606084015260608401516080840152608084015160a08401528091505092915050565b60008060408385031215612b7057600080fd5b823567ffffffffffffffff80821115612b8857600080fd5b612b9486838701612957565b93506020850135915080821115612baa57600080fd5b50612bb785828601612957565b9150509250929050565b60008060408385031215612bd457600080fd5b612bdd836127ce565b9150612beb602084016127ce565b90509250929050565b600181811c90821680612c0857607f821691505b602082108103612c2857634e487b7160e01b600052602260045260246000fd5b50919050565b6020808252602d908201527f4552433732313a2063616c6c6572206973206e6f7420746f6b656e206f776e6560408201526c1c881bdc88185c1c1c9bdd9959609a1b606082015260800190565b634e487b7160e01b600052603260045260246000fd5b6001600160a01b039384168152919092166020820152604081019190915260600190565b634e487b7160e01b600052601160045260246000fd5b600060018201612cdd57612cdd612cb5565b5060010190565b82815260406020820152600061066b6040830184612aca565b600060208284031215612d0f57600080fd5b5051919050565b8082018082111561048957610489612cb5565b808202811582820484141761048957610489612cb5565b600082612d5d57634e487b7160e01b600052601260045260246000fd5b500490565b8181038181111561048957610489612cb5565b634e487b7160e01b600052603160045260246000fd5b604081526000612d9e6040830185612aca565b90508260208301529392505050565b60008351612dbf818460208801612752565b835190830190612dd3818360208801612752565b01949350505050565b60208082526025908201527f4552433732313a207472616e736665722066726f6d20696e636f72726563742060408201526437bbb732b960d91b606082015260800190565b60208082526032908201527f4552433732313a207472616e7366657220746f206e6f6e20455243373231526560408201527131b2b4bb32b91034b6b83632b6b2b73a32b960711b606082015260800190565b600060208284031215612e8557600080fd5b815161112c81612a50565b6001600160a01b0385811682528416602082015260408101839052608060608201819052600090612ec390830184612776565b9695505050505050565b600060208284031215612edf57600080fd5b815161112c8161271f565b60008251612efc818460208701612752565b919091019291505056fea26469706673582212204e04f18eb2900431156543e9af4ed8b429be305c2545e24aa40a2f898b7f17d664736f6c63430008110033",
  "linkReferences": {},
  "deployedLinkReferences": {}
}