{
  "_format": "hh-sol-artifact-1",
  "contractName": "TradingPool",
  "sourceName": "contracts/protocol/Trading/TradingPool.sol",
  "abi": [
    {
      "inputs": [
        {
          "internalType": "contract IAddressesProvider",
          "name": "addressProvider",
          "type": "address"
        },
        {
          "internalType": "address",
          "name": "owner",
          "type": "address"
        },
        {
          "internalType": "contract IERC20",
          "name": "token",
          "type": "address"
        },
        {
          "internalType": "address",
          "name": "nft",
          "type": "address"
        },
        {
          "internalType": "uint256",
          "name": "defaultSwapFee",
          "type": "uint256"
        },
        {
          "internalType": "string",
          "name": "name",
          "type": "string"
        },
        {
          "internalType": "string",
          "name": "symbol",
          "type": "string"
        }
      ],
      "stateMutability": "nonpayable",
      "type": "constructor"
    },
    {
      "anonymous": false,
      "inputs": [
        {
          "indexed": true,
          "internalType": "address",
          "name": "user",
          "type": "address"
        },
        {
          "indexed": true,
          "internalType": "uint256",
          "name": "id",
          "type": "uint256"
        },
        {
          "indexed": false,
          "internalType": "uint256[]",
          "name": "nftIds",
          "type": "uint256[]"
        },
        {
          "indexed": false,
          "internalType": "uint256",
          "name": "tokenAmount",
          "type": "uint256"
        },
        {
          "indexed": false,
          "internalType": "address",
          "name": "curve",
          "type": "address"
        },
        {
          "indexed": false,
          "internalType": "uint256",
          "name": "delta",
          "type": "uint256"
        },
        {
          "indexed": false,
          "internalType": "uint256",
          "name": "initalPrice",
          "type": "uint256"
        }
      ],
      "name": "AddLiquidity",
      "type": "event"
    },
    {
      "anonymous": false,
      "inputs": [
        {
          "indexed": true,
          "internalType": "address",
          "name": "owner",
          "type": "address"
        },
        {
          "indexed": true,
          "internalType": "address",
          "name": "approved",
          "type": "address"
        },
        {
          "indexed": true,
          "internalType": "uint256",
          "name": "tokenId",
          "type": "uint256"
        }
      ],
      "name": "Approval",
      "type": "event"
    },
    {
      "anonymous": false,
      "inputs": [
        {
          "indexed": true,
          "internalType": "address",
          "name": "owner",
          "type": "address"
        },
        {
          "indexed": true,
          "internalType": "address",
          "name": "operator",
          "type": "address"
        },
        {
          "indexed": false,
          "internalType": "bool",
          "name": "approved",
          "type": "bool"
        }
      ],
      "name": "ApprovalForAll",
      "type": "event"
    },
    {
      "anonymous": false,
      "inputs": [
        {
          "indexed": true,
          "internalType": "address",
          "name": "user",
          "type": "address"
        },
        {
          "indexed": false,
          "internalType": "uint256[]",
          "name": "nftIds",
          "type": "uint256[]"
        },
        {
          "indexed": false,
          "internalType": "uint256",
          "name": "price",
          "type": "uint256"
        }
      ],
      "name": "Buy",
      "type": "event"
    },
    {
      "anonymous": false,
      "inputs": [
        {
          "indexed": true,
          "internalType": "address",
          "name": "previousOwner",
          "type": "address"
        },
        {
          "indexed": true,
          "internalType": "address",
          "name": "newOwner",
          "type": "address"
        }
      ],
      "name": "OwnershipTransferred",
      "type": "event"
    },
    {
      "anonymous": false,
      "inputs": [
        {
          "indexed": true,
          "internalType": "address",
          "name": "user",
          "type": "address"
        },
        {
          "indexed": true,
          "internalType": "uint256",
          "name": "id",
          "type": "uint256"
        }
      ],
      "name": "RemoveLiquidity",
      "type": "event"
    },
    {
      "anonymous": false,
      "inputs": [
        {
          "indexed": true,
          "internalType": "address",
          "name": "user",
          "type": "address"
        },
        {
          "indexed": false,
          "internalType": "uint256[]",
          "name": "nftIds",
          "type": "uint256[]"
        },
        {
          "indexed": false,
          "internalType": "uint256",
          "name": "price",
          "type": "uint256"
        }
      ],
      "name": "Sell",
      "type": "event"
    },
    {
      "anonymous": false,
      "inputs": [
        {
          "indexed": true,
          "internalType": "address",
          "name": "from",
          "type": "address"
        },
        {
          "indexed": true,
          "internalType": "address",
          "name": "to",
          "type": "address"
        },
        {
          "indexed": true,
          "internalType": "uint256",
          "name": "tokenId",
          "type": "uint256"
        }
      ],
      "name": "Transfer",
      "type": "event"
    },
    {
      "inputs": [
        {
          "internalType": "uint256[]",
          "name": "nftIds",
          "type": "uint256[]"
        },
        {
          "internalType": "uint256",
          "name": "tokenAmount",
          "type": "uint256"
        },
        {
          "internalType": "address",
          "name": "curve",
          "type": "address"
        },
        {
          "internalType": "uint256",
          "name": "delta",
          "type": "uint256"
        },
        {
          "internalType": "uint256",
          "name": "initialPrice",
          "type": "uint256"
        }
      ],
      "name": "addLiquidity",
      "outputs": [],
      "stateMutability": "nonpayable",
      "type": "function"
    },
    {
      "inputs": [
        {
          "internalType": "address",
          "name": "to",
          "type": "address"
        },
        {
          "internalType": "uint256",
          "name": "tokenId",
          "type": "uint256"
        }
      ],
      "name": "approve",
      "outputs": [],
      "stateMutability": "nonpayable",
      "type": "function"
    },
    {
      "inputs": [
        {
          "internalType": "address",
          "name": "owner",
          "type": "address"
        }
      ],
      "name": "balanceOf",
      "outputs": [
        {
          "internalType": "uint256",
          "name": "",
          "type": "uint256"
        }
      ],
      "stateMutability": "view",
      "type": "function"
    },
    {
      "inputs": [
        {
          "internalType": "address",
          "name": "buyer",
          "type": "address"
        },
        {
          "internalType": "uint256[]",
          "name": "nftIds",
          "type": "uint256[]"
        },
        {
          "internalType": "uint256",
          "name": "maximumPrice",
          "type": "uint256"
        }
      ],
      "name": "buy",
      "outputs": [
        {
          "internalType": "uint256",
          "name": "",
          "type": "uint256"
        }
      ],
      "stateMutability": "nonpayable",
      "type": "function"
    },
    {
      "inputs": [
        {
          "internalType": "uint256",
          "name": "tokenId",
          "type": "uint256"
        }
      ],
      "name": "getApproved",
      "outputs": [
        {
          "internalType": "address",
          "name": "",
          "type": "address"
        }
      ],
      "stateMutability": "view",
      "type": "function"
    },
    {
      "inputs": [
        {
          "internalType": "uint256",
          "name": "lpId",
          "type": "uint256"
        }
      ],
      "name": "getLP",
      "outputs": [
        {
          "components": [
            {
              "internalType": "uint256[]",
              "name": "nftIds",
              "type": "uint256[]"
            },
            {
              "internalType": "uint256",
              "name": "tokenAmount",
              "type": "uint256"
            },
            {
              "internalType": "address",
              "name": "curve",
              "type": "address"
            },
            {
              "internalType": "uint256",
              "name": "delta",
              "type": "uint256"
            },
            {
              "internalType": "uint256",
              "name": "price",
              "type": "uint256"
            }
          ],
          "internalType": "struct DataTypes.LiquidityPair",
          "name": "",
          "type": "tuple"
        }
      ],
      "stateMutability": "view",
      "type": "function"
    },
    {
      "inputs": [],
      "name": "getNFT",
      "outputs": [
        {
          "internalType": "address",
          "name": "",
          "type": "address"
        }
      ],
      "stateMutability": "view",
      "type": "function"
    },
    {
      "inputs": [],
      "name": "getSwapFee",
      "outputs": [
        {
          "internalType": "uint256",
          "name": "",
          "type": "uint256"
        }
      ],
      "stateMutability": "view",
      "type": "function"
    },
    {
      "inputs": [],
      "name": "getToken",
      "outputs": [
        {
          "internalType": "address",
          "name": "",
          "type": "address"
        }
      ],
      "stateMutability": "view",
      "type": "function"
    },
    {
      "inputs": [
        {
          "internalType": "address",
          "name": "owner",
          "type": "address"
        },
        {
          "internalType": "address",
          "name": "operator",
          "type": "address"
        }
      ],
      "name": "isApprovedForAll",
      "outputs": [
        {
          "internalType": "bool",
          "name": "",
          "type": "bool"
        }
      ],
      "stateMutability": "view",
      "type": "function"
    },
    {
      "inputs": [],
      "name": "name",
      "outputs": [
        {
          "internalType": "string",
          "name": "",
          "type": "string"
        }
      ],
      "stateMutability": "view",
      "type": "function"
    },
    {
      "inputs": [
        {
          "internalType": "uint256",
          "name": "nftId",
          "type": "uint256"
        }
      ],
      "name": "nftToLp",
      "outputs": [
        {
          "internalType": "uint256",
          "name": "",
          "type": "uint256"
        }
      ],
      "stateMutability": "view",
      "type": "function"
    },
    {
      "inputs": [
        {
          "internalType": "address",
          "name": "",
          "type": "address"
        },
        {
          "internalType": "address",
          "name": "",
          "type": "address"
        },
        {
          "internalType": "uint256",
          "name": "",
          "type": "uint256"
        },
        {
          "internalType": "bytes",
          "name": "",
          "type": "bytes"
        }
      ],
      "name": "onERC721Received",
      "outputs": [
        {
          "internalType": "bytes4",
          "name": "",
          "type": "bytes4"
        }
      ],
      "stateMutability": "nonpayable",
      "type": "function"
    },
    {
      "inputs": [],
      "name": "owner",
      "outputs": [
        {
          "internalType": "address",
          "name": "",
          "type": "address"
        }
      ],
      "stateMutability": "view",
      "type": "function"
    },
    {
      "inputs": [
        {
          "internalType": "uint256",
          "name": "tokenId",
          "type": "uint256"
        }
      ],
      "name": "ownerOf",
      "outputs": [
        {
          "internalType": "address",
          "name": "",
          "type": "address"
        }
      ],
      "stateMutability": "view",
      "type": "function"
    },
    {
      "inputs": [
        {
          "internalType": "uint256",
          "name": "lpId",
          "type": "uint256"
        }
      ],
      "name": "removeLiquidity",
      "outputs": [],
      "stateMutability": "nonpayable",
      "type": "function"
    },
    {
      "inputs": [],
      "name": "renounceOwnership",
      "outputs": [],
      "stateMutability": "nonpayable",
      "type": "function"
    },
    {
      "inputs": [
        {
          "internalType": "address",
          "name": "from",
          "type": "address"
        },
        {
          "internalType": "address",
          "name": "to",
          "type": "address"
        },
        {
          "internalType": "uint256",
          "name": "tokenId",
          "type": "uint256"
        }
      ],
      "name": "safeTransferFrom",
      "outputs": [],
      "stateMutability": "nonpayable",
      "type": "function"
    },
    {
      "inputs": [
        {
          "internalType": "address",
          "name": "from",
          "type": "address"
        },
        {
          "internalType": "address",
          "name": "to",
          "type": "address"
        },
        {
          "internalType": "uint256",
          "name": "tokenId",
          "type": "uint256"
        },
        {
          "internalType": "bytes",
          "name": "data",
          "type": "bytes"
        }
      ],
      "name": "safeTransferFrom",
      "outputs": [],
      "stateMutability": "nonpayable",
      "type": "function"
    },
    {
      "inputs": [
        {
          "internalType": "address",
          "name": "seller",
          "type": "address"
        },
        {
          "internalType": "uint256[]",
          "name": "nftIds",
          "type": "uint256[]"
        },
        {
          "internalType": "uint256[]",
          "name": "liquidityPairs",
          "type": "uint256[]"
        },
        {
          "internalType": "uint256",
          "name": "minimumPrice",
          "type": "uint256"
        }
      ],
      "name": "sell",
      "outputs": [
        {
          "internalType": "uint256",
          "name": "",
          "type": "uint256"
        }
      ],
      "stateMutability": "nonpayable",
      "type": "function"
    },
    {
      "inputs": [
        {
          "internalType": "address",
          "name": "operator",
          "type": "address"
        },
        {
          "internalType": "bool",
          "name": "approved",
          "type": "bool"
        }
      ],
      "name": "setApprovalForAll",
      "outputs": [],
      "stateMutability": "nonpayable",
      "type": "function"
    },
    {
      "inputs": [
        {
          "internalType": "uint256",
          "name": "newSwapFee",
          "type": "uint256"
        }
      ],
      "name": "setSwapFee",
      "outputs": [],
      "stateMutability": "nonpayable",
      "type": "function"
    },
    {
      "inputs": [
        {
          "internalType": "bytes4",
          "name": "interfaceId",
          "type": "bytes4"
        }
      ],
      "name": "supportsInterface",
      "outputs": [
        {
          "internalType": "bool",
          "name": "",
          "type": "bool"
        }
      ],
      "stateMutability": "view",
      "type": "function"
    },
    {
      "inputs": [],
      "name": "symbol",
      "outputs": [
        {
          "internalType": "string",
          "name": "",
          "type": "string"
        }
      ],
      "stateMutability": "view",
      "type": "function"
    },
    {
      "inputs": [
        {
          "internalType": "uint256",
          "name": "index",
          "type": "uint256"
        }
      ],
      "name": "tokenByIndex",
      "outputs": [
        {
          "internalType": "uint256",
          "name": "",
          "type": "uint256"
        }
      ],
      "stateMutability": "view",
      "type": "function"
    },
    {
      "inputs": [
        {
          "internalType": "address",
          "name": "owner",
          "type": "address"
        },
        {
          "internalType": "uint256",
          "name": "index",
          "type": "uint256"
        }
      ],
      "name": "tokenOfOwnerByIndex",
      "outputs": [
        {
          "internalType": "uint256",
          "name": "",
          "type": "uint256"
        }
      ],
      "stateMutability": "view",
      "type": "function"
    },
    {
      "inputs": [
        {
          "internalType": "uint256",
          "name": "tokenId",
          "type": "uint256"
        }
      ],
      "name": "tokenURI",
      "outputs": [
        {
          "internalType": "string",
          "name": "",
          "type": "string"
        }
      ],
      "stateMutability": "view",
      "type": "function"
    },
    {
      "inputs": [],
      "name": "totalSupply",
      "outputs": [
        {
          "internalType": "uint256",
          "name": "",
          "type": "uint256"
        }
      ],
      "stateMutability": "view",
      "type": "function"
    },
    {
      "inputs": [
        {
          "internalType": "address",
          "name": "from",
          "type": "address"
        },
        {
          "internalType": "address",
          "name": "to",
          "type": "address"
        },
        {
          "internalType": "uint256",
          "name": "tokenId",
          "type": "uint256"
        }
      ],
      "name": "transferFrom",
      "outputs": [],
      "stateMutability": "nonpayable",
      "type": "function"
    },
    {
      "inputs": [
        {
          "internalType": "address",
          "name": "newOwner",
          "type": "address"
        }
      ],
      "name": "transferOwnership",
      "outputs": [],
      "stateMutability": "nonpayable",
      "type": "function"
    }
  ],
  "bytecode": "0x60806040523480156200001157600080fd5b50604051620036ab380380620036ab8339810160408190526200003491620002dd565b8181600062000044838262000436565b50600162000053828262000436565b505050620000706200006a620001a960201b60201c565b620001ad565b866001600160a01b031663ca1470ea6040518163ffffffff1660e01b8152600401602060405180830381865afa158015620000af573d6000803e3d6000fd5b505050506040513d601f19601f82011682018060405250810190620000d5919062000502565b6001600160a01b0316336001600160a01b0316146200014f5760405162461bcd60e51b815260206004820152602c60248201527f54726164696e6720506f6f6c206d75737420626520637265617465642074687260448201526b6f75676820466163746f727960a01b606482015260840160405180910390fd5b600b80546001600160a01b03808a166001600160a01b031992831617909255600c8054888416908316179055600d805492871692909116919091179055600e8390556200019c86620001ad565b5050505050505062000529565b3390565b600a80546001600160a01b038381166001600160a01b0319831681179093556040519116919082907f8be0079c531659141344cd1fd0a4f28419497f9722a3daafe3b4186f6b6457e090600090a35050565b6001600160a01b03811681146200021557600080fd5b50565b634e487b7160e01b600052604160045260246000fd5b600082601f8301126200024057600080fd5b81516001600160401b03808211156200025d576200025d62000218565b604051601f8301601f19908116603f0116810190828211818310171562000288576200028862000218565b81604052838152602092508683858801011115620002a557600080fd5b600091505b83821015620002c95785820183015181830184015290820190620002aa565b600093810190920192909252949350505050565b600080600080600080600060e0888a031215620002f957600080fd5b87516200030681620001ff565b60208901519097506200031981620001ff565b60408901519096506200032c81620001ff565b60608901519095506200033f81620001ff565b608089015160a08a015191955093506001600160401b03808211156200036457600080fd5b620003728b838c016200022e565b935060c08a01519150808211156200038957600080fd5b50620003988a828b016200022e565b91505092959891949750929550565b600181811c90821680620003bc57607f821691505b602082108103620003dd57634e487b7160e01b600052602260045260246000fd5b50919050565b601f8211156200043157600081815260208120601f850160051c810160208610156200040c5750805b601f850160051c820191505b818110156200042d5782815560010162000418565b5050505b505050565b81516001600160401b0381111562000452576200045262000218565b6200046a81620004638454620003a7565b84620003e3565b602080601f831160018114620004a25760008415620004895750858301515b600019600386901b1c1916600185901b1785556200042d565b600085815260208120601f198616915b82811015620004d357888601518255948401946001909101908401620004b2565b5085821015620004f25787850151600019600388901b60f8161c191681555b5050505050600190811b01905550565b6000602082840312156200051557600080fd5b81516200052281620001ff565b9392505050565b61317280620005396000396000f3fe608060405234801561001057600080fd5b50600436106101da5760003560e01c80636352211e11610104578063a22cb465116100a2578063cdd3f29811610071578063cdd3f29814610407578063d4cadf6814610427578063e985e9c51461042f578063f2fde38b1461046b57600080fd5b8063a22cb465146103bb578063b31f0d62146103ce578063b88d4fde146103e1578063c87b56dd146103f457600080fd5b806388a6360e116100de57806388a6360e1461037e5780638da5cb5b1461038f57806395d89b41146103a05780639c8f9f23146103a857600080fd5b80636352211e1461035057806370a0823114610363578063715018a61461037657600080fd5b806323b872dd1161017c57806349591b511161014b57806349591b51146102f75780634f6ccce71461030a57806350c01fad1461031d5780635460d8491461033057600080fd5b806323b872dd146102ab5780632f745c59146102be57806334e19907146102d157806342842e0e146102e457600080fd5b8063095ea7b3116101b8578063095ea7b314610247578063150b7a021461025c57806318160ddd1461028857806321df0da71461029a57600080fd5b806301ffc9a7146101df57806306fdde0314610207578063081812fc1461021c575b600080fd5b6101f26101ed36600461290a565b61047e565b60405190151581526020015b60405180910390f35b61020f61048f565b6040516101fe9190612977565b61022f61022a36600461298a565b610521565b6040516001600160a01b0390911681526020016101fe565b61025a6102553660046129bf565b610548565b005b61026f61026a366004612a30565b610662565b6040516001600160e01b031990911681526020016101fe565b6008545b6040519081526020016101fe565b600c546001600160a01b031661022f565b61025a6102b9366004612af0565b610673565b61028c6102cc3660046129bf565b6106a4565b61025a6102df36600461298a565b61073a565b61025a6102f2366004612af0565b610747565b61028c610305366004612ba1565b610762565b61028c61031836600461298a565b610bf6565b61025a61032b366004612c1d565b610c89565b61028c61033e36600461298a565b60009081526010602052604090205490565b61022f61035e36600461298a565b610f02565b61028c610371366004612c86565b610f62565b61025a610fe8565b600d546001600160a01b031661022f565b600a546001600160a01b031661022f565b61020f610ffc565b61025a6103b636600461298a565b61100b565b61025a6103c9366004612caf565b6111b8565b61028c6103dc366004612ce6565b6111c7565b61025a6103ef366004612a30565b611662565b61020f61040236600461298a565b61169a565b61041a61041536600461298a565b61170e565b6040516101fe9190612d78565b600e5461028c565b6101f261043d366004612dd0565b6001600160a01b03918216600090815260056020908152604080832093909416825291909152205460ff1690565b61025a610479366004612c86565b6117b7565b600061048982611830565b92915050565b60606000805461049e90612e03565b80601f01602080910402602001604051908101604052809291908181526020018280546104ca90612e03565b80156105175780601f106104ec57610100808354040283529160200191610517565b820191906000526020600020905b8154815290600101906020018083116104fa57829003601f168201915b5050505050905090565b600061052c82611855565b506000908152600460205260409020546001600160a01b031690565b600061055382610f02565b9050806001600160a01b0316836001600160a01b0316036105c55760405162461bcd60e51b815260206004820152602160248201527f4552433732313a20617070726f76616c20746f2063757272656e74206f776e656044820152603960f91b60648201526084015b60405180910390fd5b336001600160a01b03821614806105e157506105e1813361043d565b6106535760405162461bcd60e51b815260206004820152603d60248201527f4552433732313a20617070726f76652063616c6c6572206973206e6f7420746f60448201527f6b656e206f776e6572206f7220617070726f76656420666f7220616c6c00000060648201526084016105bc565b61065d83836118b4565b505050565b630a85bd0160e11b5b949350505050565b61067d3382611922565b6106995760405162461bcd60e51b81526004016105bc90612e3d565b61065d8383836119a0565b60006106af83610f62565b82106107115760405162461bcd60e51b815260206004820152602b60248201527f455243373231456e756d657261626c653a206f776e657220696e646578206f7560448201526a74206f6620626f756e647360a81b60648201526084016105bc565b506001600160a01b03919091166000908152600660209081526040808320938352929052205490565b610742611b11565b600e55565b61065d83838360405180602001604052806000815250611662565b600082518451146107cc5760405162461bcd60e51b815260206004820152602e60248201527f4e46547320616e64204c6971756964697479205061697273206d75737420686160448201526d0ecca40e6c2daca40d8cadccee8d60931b60648201526084016105bc565b600084511161081d5760405162461bcd60e51b815260206004820152601d60248201527f4e65656420746f2073656c6c206174206c65617374206f6e65204e465400000060448201526064016105bc565b600080600061082a612842565b60005b8851811015610b3357600d5489516001600160a01b03909116906342842e0e908c9030908d908690811061086357610863612e8a565b60200260200101516040518463ffffffff1660e01b815260040161088993929190612ea0565b600060405180830381600087803b1580156108a357600080fd5b505af11580156108b7573d6000803e3d6000fd5b505050508781815181106108cd576108cd612e8a565b60200260200101519250600f60008481526020019081526020016000206040518060a00160405290816000820180548060200260200160405190810160405280929190818152602001828054801561094457602002820191906000526020600020905b815481526020019060010190808311610930575b50505091835250506001820154602082015260028201546001600160a01b0316604082015260038201546060820152600490910154608091820152810151600e54919350612710916109969083612eda565b6109a09190612eed565b6109aa9190612f04565b93506109b68486612f26565b6000848152600f602052604090208a51919650908a90839081106109dc576109dc612e8a565b602090810291909101810151825460018181018555600094855283852090910191909155858352600f90915260408220018054869290610a1d908490612eda565b9091555050604082810151608084015160608501519251633698f96560e11b8152600481019190915260248101929092526001600160a01b031690636d31f2ca90604401602060405180830381865afa158015610a7e573d6000803e3d6000fd5b505050506040513d601f19601f82011682018060405250810190610aa29190612f39565b6000848152600f60208181526040808420600481019590955580518082019091528781529287905290815291549091820190610ae090600190612eda565b815250601060008b8481518110610af957610af9612e8a565b6020908102919091018101518252818101929092526040016000208251815591015160019091015580610b2b81612f52565b91505061082d565b50858411610b8f5760405162461bcd60e51b8152602060048201526024808201527f50726963652071756f7465206c6f776572207468616e206d696e696d756d20706044820152637269636560e01b60648201526084016105bc565b600c54610ba6906001600160a01b03168a86611b6b565b886001600160a01b03167feb3c528adebc70d317bef09706905761642981ebf9def9aafdc40f404e49346a8986604051610be1929190612f6b565b60405180910390a25091979650505050505050565b6000610c0160085490565b8210610c645760405162461bcd60e51b815260206004820152602c60248201527f455243373231456e756d657261626c653a20676c6f62616c20696e646578206f60448201526b7574206f6620626f756e647360a01b60648201526084016105bc565b60088281548110610c7757610c77612e8a565b90600052602060002001549050919050565b6000841180610c99575060008551115b610cde5760405162461bcd60e51b81526020600482015260166024820152754465706f7369742063616e277420626520656d70747960501b60448201526064016105bc565b60005b8551811015610dd657600d5486516001600160a01b03909116906342842e0e90339030908a9086908110610d1757610d17612e8a565b60200260200101516040518463ffffffff1660e01b8152600401610d3d93929190612ea0565b600060405180830381600087803b158015610d5757600080fd5b505af1158015610d6b573d6000803e3d6000fd5b50505050604051806040016040528060115481526020018281525060106000888481518110610d9c57610d9c612e8a565b6020908102919091018101518252818101929092526040016000208251815591015160019091015580610dce81612f52565b915050610ce1565b50600c54610def906001600160a01b0316333087611bce565b6040805160a08101825286815260208082018790526001600160a01b0386168284015260608201859052608082018490526011546000908152600f8252929092208151805192939192610e45928492019061287a565b506020820151600182015560408201516002820180546001600160a01b0319166001600160a01b0390921691909117905560608201516003820155608090910151600490910155601154610e9a903390611bef565b601154336001600160a01b03167f3b67bb924a0e01cd52df231e47e53b28799a0f34d0ea653d1778cf3969492c1e8787878787604051610ede959493929190612f8d565b60405180910390a360118054906000610ef683612f52565b91905055505050505050565b6000818152600260205260408120546001600160a01b0316806104895760405162461bcd60e51b8152602060048201526018602482015277115490cdcc8c4e881a5b9d985b1a59081d1bdad95b88125160421b60448201526064016105bc565b60006001600160a01b038216610fcc5760405162461bcd60e51b815260206004820152602960248201527f4552433732313a2061646472657373207a65726f206973206e6f7420612076616044820152683634b21037bbb732b960b91b60648201526084016105bc565b506001600160a01b031660009081526003602052604090205490565b610ff0611b11565b610ffa6000611c09565b565b60606001805461049e90612e03565b61101481611c5b565b60005b6000828152600f602052604090205481101561111957600d546000838152600f6020526040902080546001600160a01b03909216916342842e0e9130913391908690811061106757611067612e8a565b90600052602060002001546040518463ffffffff1660e01b815260040161109093929190612ea0565b600060405180830381600087803b1580156110aa57600080fd5b505af11580156110be573d6000803e3d6000fd5b5050506000838152600f60205260408120805460109350849081106110e5576110e5612e8a565b600091825260208083209091015483528201929092526040018120818155600101558061111181612f52565b915050611017565b506000818152600f6020526040902060010154600c54611146916001600160a01b03909116903390611b6b565b6000818152600f602052604081209061115f82826128c5565b506000600182018190556002820180546001600160a01b0319169055600382018190556004909101819055604051829133917fdfdd120ded9b7afc0c23dd5310e93aaa3e1c3b9f75af9b805fab3030842439f29190a350565b6111c3338383611cfe565b5050565b6000806000806000806111d8612842565b60008951116112295760405162461bcd60e51b815260206004820152601c60248201527f4e65656420746f20627579206174206c65617374206f6e65204e46540000000060448201526064016105bc565b60005b895181101561159b57601060008b838151811061124b5761124b612e8a565b60200260200101518152602001908152602001600020600001549350601060008b838151811061127d5761127d612e8a565b60200260200101518152602001908152602001600020600101549250600f60008581526020019081526020016000206040518060a00160405290816000820180548060200260200160405190810160405280929190818152602001828054801561130657602002820191906000526020600020905b8154815260200190600101908083116112f2575b50505091835250506001820154602082015260028201546001600160a01b0390811660408084019190915260038401546060808501919091526004948501546080948501528582015193860151908601519151635d8b487160e11b81529485015260248401529294509091169063bb1690e290604401602060405180830381865afa158015611399573d6000803e3d6000fd5b505050506040513d601f19601f820116820180604052508101906113bd9190612f39565b955061271086600e546127106113d39190612f26565b6113dd9190612eed565b6113e79190612f04565b6000858152600f602052604090206004810188905580549196509061140e90600190612eda565b8154811061141e5761141e612e8a565b9060005260206000200154600f6000868152602001908152602001600020600001848154811061145057611450612e8a565b6000918252602080832090910192909255858152600f9091526040902080548061147c5761147c612fcd565b6001900381819060005260206000200160009055905584600f600086815260200190815260200160002060010160008282546114b89190612f26565b909155506114c890508588612f26565b9650601060008b83815181106114e0576114e0612e8a565b6020908102919091018101518252810191909152604001600090812081815560010155600d548a516001600160a01b03909116906342842e0e9030908e908e908690811061153057611530612e8a565b60200260200101516040518463ffffffff1660e01b815260040161155693929190612ea0565b600060405180830381600087803b15801561157057600080fd5b505af1158015611584573d6000803e3d6000fd5b50505050808061159390612f52565b91505061122c565b508786106115f95760405162461bcd60e51b815260206004820152602560248201527f50726963652071756f746520686967686572207468616e206d6178696d756d20604482015264707269636560d81b60648201526084016105bc565b600c54611611906001600160a01b03168b3089611bce565b896001600160a01b03167f0306912acbf130bc61cce94222a394a64e258433196a3d3679a9bbfb8973f7738a8860405161164c929190612f6b565b60405180910390a2509398975050505050505050565b61166c3383611922565b6116885760405162461bcd60e51b81526004016105bc90612e3d565b61169484848484611dcc565b50505050565b60606116a582611855565b60006116bc60408051602081019091526000815290565b905060008151116116dc5760405180602001604052806000815250611707565b806116e684611dff565b6040516020016116f7929190612fe3565b6040516020818303038152906040525b9392505050565b611716612842565b6000828152600f60209081526040918290208251815460c09381028201840190945260a08101848152909391928492849184018282801561177657602002820191906000526020600020905b815481526020019060010190808311611762575b50505091835250506001820154602082015260028201546001600160a01b031660408201526003820154606082015260049091015460809091015292915050565b6117bf611b11565b6001600160a01b0381166118245760405162461bcd60e51b815260206004820152602660248201527f4f776e61626c653a206e6577206f776e657220697320746865207a65726f206160448201526564647265737360d01b60648201526084016105bc565b61182d81611c09565b50565b60006001600160e01b0319821663780e9d6360e01b1480610489575061048982611e92565b6000818152600260205260409020546001600160a01b031661182d5760405162461bcd60e51b8152602060048201526018602482015277115490cdcc8c4e881a5b9d985b1a59081d1bdad95b88125160421b60448201526064016105bc565b600081815260046020526040902080546001600160a01b0319166001600160a01b03841690811790915581906118e982610f02565b6001600160a01b03167f8c5be1e5ebec7d5bd14f71427d1e84f3dd0314c0f7b2291e5b200ac8c7c3b92560405160405180910390a45050565b60008061192e83610f02565b9050806001600160a01b0316846001600160a01b0316148061197557506001600160a01b0380821660009081526005602090815260408083209388168352929052205460ff165b8061066b5750836001600160a01b031661198e84610521565b6001600160a01b031614949350505050565b826001600160a01b03166119b382610f02565b6001600160a01b0316146119d95760405162461bcd60e51b81526004016105bc90613012565b6001600160a01b038216611a3b5760405162461bcd60e51b8152602060048201526024808201527f4552433732313a207472616e7366657220746f20746865207a65726f206164646044820152637265737360e01b60648201526084016105bc565b611a488383836001611ee2565b826001600160a01b0316611a5b82610f02565b6001600160a01b031614611a815760405162461bcd60e51b81526004016105bc90613012565b600081815260046020908152604080832080546001600160a01b03199081169091556001600160a01b0387811680865260038552838620805460001901905590871680865283862080546001019055868652600290945282852080549092168417909155905184937fddf252ad1be2c89b69c2b068fc378daa952ba7f163c4a11628f55a4df523b3ef91a4505050565b600a546001600160a01b03163314610ffa5760405162461bcd60e51b815260206004820181905260248201527f4f776e61626c653a2063616c6c6572206973206e6f7420746865206f776e657260448201526064016105bc565b6040516001600160a01b03831660248201526044810182905261065d90849063a9059cbb60e01b906064015b60408051601f198184030181529190526020810180516001600160e01b03166001600160e01b031990931692909217909152611eee565b611694846323b872dd60e01b858585604051602401611b9793929190612ea0565b6111c3828260405180602001604052806000815250611fc0565b600a80546001600160a01b038381166001600160a01b0319831681179093556040519116919082907f8be0079c531659141344cd1fd0a4f28419497f9722a3daafe3b4186f6b6457e090600090a35050565b6000611c6682610f02565b9050611c76816000846001611ee2565b611c7f82610f02565b600083815260046020908152604080832080546001600160a01b03199081169091556001600160a01b0385168085526003845282852080546000190190558785526002909352818420805490911690555192935084927fddf252ad1be2c89b69c2b068fc378daa952ba7f163c4a11628f55a4df523b3ef908390a45050565b816001600160a01b0316836001600160a01b031603611d5f5760405162461bcd60e51b815260206004820152601960248201527f4552433732313a20617070726f766520746f2063616c6c65720000000000000060448201526064016105bc565b6001600160a01b03838116600081815260056020908152604080832094871680845294825291829020805460ff191686151590811790915591519182527f17307eab39ab6107e8899845ad3d59bd9653f200f220920489ca2b5937696c31910160405180910390a3505050565b611dd78484846119a0565b611de384848484611ff3565b6116945760405162461bcd60e51b81526004016105bc90613057565b60606000611e0c836120f1565b600101905060008167ffffffffffffffff811115611e2c57611e2c6129e9565b6040519080825280601f01601f191660200182016040528015611e56576020820181803683370190505b5090508181016020015b600019016f181899199a1a9b1b9c1cb0b131b232b360811b600a86061a8153600a8504945084611e6057509392505050565b60006001600160e01b031982166380ac58cd60e01b1480611ec357506001600160e01b03198216635b5e139f60e01b145b8061048957506301ffc9a760e01b6001600160e01b0319831614610489565b611694848484846121c9565b6000611f43826040518060400160405280602081526020017f5361666545524332303a206c6f772d6c6576656c2063616c6c206661696c6564815250856001600160a01b03166123099092919063ffffffff16565b80519091501561065d5780806020019051810190611f6191906130a9565b61065d5760405162461bcd60e51b815260206004820152602a60248201527f5361666545524332303a204552433230206f7065726174696f6e20646964206e6044820152691bdd081cdd58d8d9595960b21b60648201526084016105bc565b611fca8383612318565b611fd76000848484611ff3565b61065d5760405162461bcd60e51b81526004016105bc90613057565b60006001600160a01b0384163b156120e957604051630a85bd0160e11b81526001600160a01b0385169063150b7a02906120379033908990889088906004016130c6565b6020604051808303816000875af1925050508015612072575060408051601f3d908101601f1916820190925261206f91810190613103565b60015b6120cf573d8080156120a0576040519150601f19603f3d011682016040523d82523d6000602084013e6120a5565b606091505b5080516000036120c75760405162461bcd60e51b81526004016105bc90613057565b805181602001fd5b6001600160e01b031916630a85bd0160e11b14905061066b565b50600161066b565b60008072184f03e93ff9f4daa797ed6e38ed64bf6a1f0160401b83106121305772184f03e93ff9f4daa797ed6e38ed64bf6a1f0160401b830492506040015b6d04ee2d6d415b85acef8100000000831061215c576d04ee2d6d415b85acef8100000000830492506020015b662386f26fc10000831061217a57662386f26fc10000830492506010015b6305f5e1008310612192576305f5e100830492506008015b61271083106121a657612710830492506004015b606483106121b8576064830492506002015b600a83106104895760010192915050565b6121d5848484846124b1565b60018111156122445760405162461bcd60e51b815260206004820152603560248201527f455243373231456e756d657261626c653a20636f6e7365637574697665207472604482015274185b9cd9995c9cc81b9bdd081cdd5c1c1bdc9d1959605a1b60648201526084016105bc565b816001600160a01b0385166122a05761229b81600880546000838152600960205260408120829055600182018355919091527ff3f7a9fe364faab93b216da50a3214154f22a0a2b415b23a84c8169e8b636ee30155565b6122c3565b836001600160a01b0316856001600160a01b0316146122c3576122c38582612539565b6001600160a01b0384166122df576122da816125d6565b612302565b846001600160a01b0316846001600160a01b031614612302576123028482612685565b5050505050565b606061066b84846000856126c9565b6001600160a01b03821661236e5760405162461bcd60e51b815260206004820181905260248201527f4552433732313a206d696e7420746f20746865207a65726f206164647265737360448201526064016105bc565b6000818152600260205260409020546001600160a01b0316156123d35760405162461bcd60e51b815260206004820152601c60248201527f4552433732313a20746f6b656e20616c7265616479206d696e7465640000000060448201526064016105bc565b6123e1600083836001611ee2565b6000818152600260205260409020546001600160a01b0316156124465760405162461bcd60e51b815260206004820152601c60248201527f4552433732313a20746f6b656e20616c7265616479206d696e7465640000000060448201526064016105bc565b6001600160a01b038216600081815260036020908152604080832080546001019055848352600290915280822080546001600160a01b0319168417905551839291907fddf252ad1be2c89b69c2b068fc378daa952ba7f163c4a11628f55a4df523b3ef908290a45050565b6001811115611694576001600160a01b038416156124f7576001600160a01b038416600090815260036020526040812080548392906124f1908490612eda565b90915550505b6001600160a01b03831615611694576001600160a01b0383166000908152600360205260408120805483929061252e908490612f26565b909155505050505050565b6000600161254684610f62565b6125509190612eda565b6000838152600760205260409020549091508082146125a3576001600160a01b03841660009081526006602090815260408083208584528252808320548484528184208190558352600790915290208190555b5060009182526007602090815260408084208490556001600160a01b039094168352600681528383209183525290812055565b6008546000906125e890600190612eda565b6000838152600960205260408120546008805493945090928490811061261057612610612e8a565b90600052602060002001549050806008838154811061263157612631612e8a565b600091825260208083209091019290925582815260099091526040808220849055858252812055600880548061266957612669612fcd565b6001900381819060005260206000200160009055905550505050565b600061269083610f62565b6001600160a01b039093166000908152600660209081526040808320868452825280832085905593825260079052919091209190915550565b60608247101561272a5760405162461bcd60e51b815260206004820152602660248201527f416464726573733a20696e73756666696369656e742062616c616e636520666f6044820152651c8818d85b1b60d21b60648201526084016105bc565b600080866001600160a01b031685876040516127469190613120565b60006040518083038185875af1925050503d8060008114612783576040519150601f19603f3d011682016040523d82523d6000602084013e612788565b606091505b5091509150612799878383876127a4565b979650505050505050565b6060831561281357825160000361280c576001600160a01b0385163b61280c5760405162461bcd60e51b815260206004820152601d60248201527f416464726573733a2063616c6c20746f206e6f6e2d636f6e747261637400000060448201526064016105bc565b508161066b565b61066b83838151156128285781518083602001fd5b8060405162461bcd60e51b81526004016105bc9190612977565b6040518060a00160405280606081526020016000815260200160006001600160a01b0316815260200160008152602001600081525090565b8280548282559060005260206000209081019282156128b5579160200282015b828111156128b557825182559160200191906001019061289a565b506128c19291506128df565b5090565b508054600082559060005260206000209081019061182d91905b5b808211156128c157600081556001016128e0565b6001600160e01b03198116811461182d57600080fd5b60006020828403121561291c57600080fd5b8135611707816128f4565b60005b8381101561294257818101518382015260200161292a565b50506000910152565b60008151808452612963816020860160208601612927565b601f01601f19169290920160200192915050565b602081526000611707602083018461294b565b60006020828403121561299c57600080fd5b5035919050565b80356001600160a01b03811681146129ba57600080fd5b919050565b600080604083850312156129d257600080fd5b6129db836129a3565b946020939093013593505050565b634e487b7160e01b600052604160045260246000fd5b604051601f8201601f1916810167ffffffffffffffff81118282101715612a2857612a286129e9565b604052919050565b60008060008060808587031215612a4657600080fd5b612a4f856129a3565b93506020612a5e8187016129a3565b935060408601359250606086013567ffffffffffffffff80821115612a8257600080fd5b818801915088601f830112612a9657600080fd5b813581811115612aa857612aa86129e9565b612aba601f8201601f191685016129ff565b91508082528984828501011115612ad057600080fd5b808484018584013760008482840101525080935050505092959194509250565b600080600060608486031215612b0557600080fd5b612b0e846129a3565b9250612b1c602085016129a3565b9150604084013590509250925092565b600082601f830112612b3d57600080fd5b8135602067ffffffffffffffff821115612b5957612b596129e9565b8160051b612b688282016129ff565b9283528481018201928281019087851115612b8257600080fd5b83870192505b8483101561279957823582529183019190830190612b88565b60008060008060808587031215612bb757600080fd5b612bc0856129a3565b9350602085013567ffffffffffffffff80821115612bdd57600080fd5b612be988838901612b2c565b94506040870135915080821115612bff57600080fd5b50612c0c87828801612b2c565b949793965093946060013593505050565b600080600080600060a08688031215612c3557600080fd5b853567ffffffffffffffff811115612c4c57600080fd5b612c5888828901612b2c565b95505060208601359350612c6e604087016129a3565b94979396509394606081013594506080013592915050565b600060208284031215612c9857600080fd5b611707826129a3565b801515811461182d57600080fd5b60008060408385031215612cc257600080fd5b612ccb836129a3565b91506020830135612cdb81612ca1565b809150509250929050565b600080600060608486031215612cfb57600080fd5b612d04846129a3565b9250602084013567ffffffffffffffff811115612d2057600080fd5b612d2c86828701612b2c565b925050604084013590509250925092565b600081518084526020808501945080840160005b83811015612d6d57815187529582019590820190600101612d51565b509495945050505050565b602081526000825160a06020840152612d9460c0840182612d3d565b90506020840151604084015260018060a01b03604085015116606084015260608401516080840152608084015160a08401528091505092915050565b60008060408385031215612de357600080fd5b612dec836129a3565b9150612dfa602084016129a3565b90509250929050565b600181811c90821680612e1757607f821691505b602082108103612e3757634e487b7160e01b600052602260045260246000fd5b50919050565b6020808252602d908201527f4552433732313a2063616c6c6572206973206e6f7420746f6b656e206f776e6560408201526c1c881bdc88185c1c1c9bdd9959609a1b606082015260800190565b634e487b7160e01b600052603260045260246000fd5b6001600160a01b039384168152919092166020820152604081019190915260600190565b634e487b7160e01b600052601160045260246000fd5b8181038181111561048957610489612ec4565b808202811582820484141761048957610489612ec4565b600082612f2157634e487b7160e01b600052601260045260246000fd5b500490565b8082018082111561048957610489612ec4565b600060208284031215612f4b57600080fd5b5051919050565b600060018201612f6457612f64612ec4565b5060010190565b604081526000612f7e6040830185612d3d565b90508260208301529392505050565b60a081526000612fa060a0830188612d3d565b6020830196909652506001600160a01b039390931660408401526060830191909152608090910152919050565b634e487b7160e01b600052603160045260246000fd5b60008351612ff5818460208801612927565b835190830190613009818360208801612927565b01949350505050565b60208082526025908201527f4552433732313a207472616e736665722066726f6d20696e636f72726563742060408201526437bbb732b960d91b606082015260800190565b60208082526032908201527f4552433732313a207472616e7366657220746f206e6f6e20455243373231526560408201527131b2b4bb32b91034b6b83632b6b2b73a32b960711b606082015260800190565b6000602082840312156130bb57600080fd5b815161170781612ca1565b6001600160a01b03858116825284166020820152604081018390526080606082018190526000906130f99083018461294b565b9695505050505050565b60006020828403121561311557600080fd5b8151611707816128f4565b60008251613132818460208701612927565b919091019291505056fea264697066735822122075f508e83d83d90403b08f228603f0915436ea6805256d2c12ef0e8d8b7026da64736f6c63430008110033",
  "linkReferences": {},
  "deployedLinkReferences": {}
}