{
  "_format": "hh-sol-artifact-1",
  "contractName": "TradingGauge",
  "sourceName": "contracts/protocol/Gauges/TradingGauge.sol",
  "abi": [
    {
      "inputs": [
        {
          "internalType": "contract IAddressesProvider",
          "name": "addressProvider",
          "type": "address"
        },
        {
          "internalType": "address",
          "name": "lpToken_",
          "type": "address"
        }
      ],
      "stateMutability": "nonpayable",
      "type": "constructor"
    },
    {
      "anonymous": false,
      "inputs": [
        {
          "indexed": true,
          "internalType": "address",
          "name": "user",
          "type": "address"
        },
        {
          "indexed": false,
          "internalType": "uint256",
          "name": "lpId",
          "type": "uint256"
        }
      ],
      "name": "DepositLP",
      "type": "event"
    },
    {
      "anonymous": false,
      "inputs": [
        {
          "indexed": true,
          "internalType": "address",
          "name": "user",
          "type": "address"
        },
        {
          "indexed": false,
          "internalType": "uint256",
          "name": "lpId",
          "type": "uint256"
        }
      ],
      "name": "WithdrawLP",
      "type": "event"
    },
    {
      "inputs": [
        {
          "internalType": "address",
          "name": "user",
          "type": "address"
        }
      ],
      "name": "balanceOf",
      "outputs": [
        {
          "internalType": "uint256",
          "name": "",
          "type": "uint256"
        }
      ],
      "stateMutability": "view",
      "type": "function"
    },
    {
      "inputs": [
        {
          "internalType": "uint256",
          "name": "lpId",
          "type": "uint256"
        }
      ],
      "name": "calculateLpValue",
      "outputs": [
        {
          "internalType": "uint256",
          "name": "",
          "type": "uint256"
        }
      ],
      "stateMutability": "view",
      "type": "function"
    },
    {
      "inputs": [],
      "name": "claim",
      "outputs": [
        {
          "internalType": "uint256",
          "name": "",
          "type": "uint256"
        }
      ],
      "stateMutability": "nonpayable",
      "type": "function"
    },
    {
      "inputs": [
        {
          "internalType": "uint256",
          "name": "lpId",
          "type": "uint256"
        }
      ],
      "name": "deposit",
      "outputs": [],
      "stateMutability": "nonpayable",
      "type": "function"
    },
    {
      "inputs": [
        {
          "internalType": "address",
          "name": "user",
          "type": "address"
        }
      ],
      "name": "kick",
      "outputs": [],
      "stateMutability": "nonpayable",
      "type": "function"
    },
    {
      "inputs": [
        {
          "internalType": "address",
          "name": "user",
          "type": "address"
        },
        {
          "internalType": "uint256",
          "name": "index",
          "type": "uint256"
        }
      ],
      "name": "lpOfOwnerByIndex",
      "outputs": [
        {
          "internalType": "uint256",
          "name": "",
          "type": "uint256"
        }
      ],
      "stateMutability": "view",
      "type": "function"
    },
    {
      "inputs": [],
      "name": "lpToken",
      "outputs": [
        {
          "internalType": "address",
          "name": "",
          "type": "address"
        }
      ],
      "stateMutability": "view",
      "type": "function"
    },
    {
      "inputs": [
        {
          "internalType": "address",
          "name": "",
          "type": "address"
        },
        {
          "internalType": "address",
          "name": "",
          "type": "address"
        },
        {
          "internalType": "uint256",
          "name": "",
          "type": "uint256"
        },
        {
          "internalType": "bytes",
          "name": "",
          "type": "bytes"
        }
      ],
      "name": "onERC721Received",
      "outputs": [
        {
          "internalType": "bytes4",
          "name": "",
          "type": "bytes4"
        }
      ],
      "stateMutability": "pure",
      "type": "function"
    },
    {
      "inputs": [],
      "name": "totalSupply",
      "outputs": [
        {
          "internalType": "uint256",
          "name": "",
          "type": "uint256"
        }
      ],
      "stateMutability": "view",
      "type": "function"
    },
    {
      "inputs": [
        {
          "internalType": "address",
          "name": "user",
          "type": "address"
        }
      ],
      "name": "userBoost",
      "outputs": [
        {
          "internalType": "uint256",
          "name": "",
          "type": "uint256"
        }
      ],
      "stateMutability": "view",
      "type": "function"
    },
    {
      "inputs": [
        {
          "internalType": "address",
          "name": "user",
          "type": "address"
        }
      ],
      "name": "userLPValue",
      "outputs": [
        {
          "internalType": "uint256",
          "name": "",
          "type": "uint256"
        }
      ],
      "stateMutability": "view",
      "type": "function"
    },
    {
      "inputs": [
        {
          "internalType": "uint256",
          "name": "lpId",
          "type": "uint256"
        }
      ],
      "name": "withdraw",
      "outputs": [],
      "stateMutability": "nonpayable",
      "type": "function"
    },
    {
      "inputs": [
        {
          "internalType": "uint256[]",
          "name": "lpIds",
          "type": "uint256[]"
        }
      ],
      "name": "withdrawBatch",
      "outputs": [],
      "stateMutability": "nonpayable",
      "type": "function"
    },
    {
      "inputs": [],
      "name": "writeTotalWeightHistory",
      "outputs": [],
      "stateMutability": "nonpayable",
      "type": "function"
    }
  ],
  "bytecode": "0x60806040523480156200001157600080fd5b5060405162001ce938038062001ce983398101604081905262000034916200010c565b600080546001600160a01b038085166001600160a01b0319928316178355600b80549185169190921617905560408051602081019091529081526200007e90600a90600162000087565b5050506200014b565b828054828255906000526020600020908101928215620000ca579160200282015b82811115620000ca578251829060ff16905591602001919060010190620000a8565b50620000d8929150620000dc565b5090565b5b80821115620000d85760008155600101620000dd565b6001600160a01b03811681146200010957600080fd5b50565b600080604083850312156200012057600080fd5b82516200012d81620000f3565b60208401519092506200014081620000f3565b809150509250929050565b611b8e806200015b6000396000f3fe608060405234801561001057600080fd5b50600436106100ea5760003560e01c806378d2f9841161008c5780639c8d4156116100665780639c8d415614610213578063b6b55f2514610226578063d02a2bee14610239578063fe03d2251461024c57600080fd5b806378d2f984146101cf57806387da75ef146101f857806396c551751461020057600080fd5b80632e1a7d4d116100c85780632e1a7d4d1461016e5780634e71d92d146101835780635fcbd2851461018b57806370a08231146101a657600080fd5b8063019e06ab146100ef578063150b7a021461011557806318160ddd14610166575b600080fd5b6101026100fd3660046116a3565b61025f565b6040519081526020015b60405180910390f35b61014d6101233660046116cf565b7f150b7a023d4804d13e8c85fb27262cb750cf6ba9f9dd3bb30d90f482ceeb4b1f95945050505050565b6040516001600160e01b0319909116815260200161010c565b600354610102565b61018161017c36600461176e565b61028a565b005b6101026104f9565b600b546040516001600160a01b03909116815260200161010c565b6101026101b4366004611787565b6001600160a01b031660009081526002602052604090205490565b6101026101dd366004611787565b6001600160a01b03166000908152600d602052604090205490565b610181610d88565b61018161020e366004611787565b610ece565b610181610221366004611838565b610fbc565b61018161023436600461176e565b610ffc565b610102610247366004611787565b611184565b61010261025a36600461176e565b611218565b6001600160a01b03821660009081526004602090815260408083208484529091529020545b92915050565b6000818152600160205260409020546001600160a01b031633146103005760405162461bcd60e51b815260206004820152602360248201527f4e6f7420746865206f776e6572206f66206c697175696469747920706f73697460448201526234b7b760e91b606482015260840160405180910390fd5b6000818152600c6020908152604080832054338452600d909252822080549192909161032d9084906118e4565b90915550506000818152600c6020526040812054600e8054919290916103549084906118e4565b9091555050600081815260016020908152604080832080546001600160a01b0319169055600c909152812055610389336112f7565b600b54604051632142170760e11b8152306004820152336024820152604481018390526001600160a01b03909116906342842e0e90606401600060405180830381600087803b1580156103db57600080fd5b505af11580156103ef573d6000803e3d6000fd5b50503360009081526002602052604081205490925061041191506001906118e4565b60008381526005602052604090205490915080821461045b573360009081526004602090815260408083208584528252808320548484528184208190558352600590915290208190555b60008381526005602090815260408083208390553380845260048352818420868552835281842084905583526002909152812080546001929061049f9084906118e4565b925050819055506001600360008282546104b991906118e4565b909155505060405183815233907f45ec0244cf2e0c90546c4aff992398e1505d5ce31338249d7f29066169cfdcea906020015b60405180910390a2505050565b6000610504336112f7565b60008060009054906101000a90046001600160a01b03166001600160a01b03166308b0308a6040518163ffffffff1660e01b8152600401602060405180830381865afa158015610558573d6000803e3d6000fd5b505050506040513d601f19601f8201168201806040525081019061057c9190611907565b905060008060009054906101000a90046001600160a01b03166001600160a01b03166358de9ade6040518163ffffffff1660e01b8152600401602060405180830381865afa1580156105d2573d6000803e3d6000fd5b505050506040513d601f19601f820116820180604052508101906105f69190611907565b3360009081526006602052604081205491925081900361061a576000935050505090565b3360009081526008602052604081205490036106ec5733600090815260066020526040812080546001600160a01b03861692635487c577929161065f5761065f611924565b9060005260206000209060020201600101546040518263ffffffff1660e01b815260040161068f91815260200190565b602060405180830381865afa1580156106ac573d6000803e3d6000fd5b505050506040513d601f19601f820116820180604052508101906106d0919061193a565b6106db906001611953565b336000908152600860205260409020555b60008060005b6032811015610c77573360009081526008602052604090819020549051635487c57760e01b81524260048201529092506001600160a01b03871690635487c57790602401602060405180830381865afa158015610753573d6000803e3d6000fd5b505050506040513d601f19601f82011682018060405250810190610777919061193a565b821015610c77573360009081526006602090815260408083206007909252822054815481106107a8576107a8611924565b90600052602060002090600202016040518060400160405290816000820154815260200160018201548152505090506001856107e491906118e4565b336000908152600760205260409020540361095b5761085d6040518060400160405280601d81526020017f436c61696d696e67206c61737420776f726b696e672062616c616e636500000081525060076000336001600160a01b03166001600160a01b0316815260200190815260200160002054611610565b6000600a848154811061087257610872611924565b9060005260206000200154111561093657600a838154811061089657610896611924565b60009182526020909120015481516040516315a8752360e31b8152306004820152602481018690526001600160a01b0389169063ad43a918906044016020604051808303816000875af11580156108f1573d6000803e3d6000fd5b505050506040513d601f19601f82011682018060405250810190610915919061193a565b61091f9190611966565b610929919061197d565b6109339085611953565b93505b3360009081526008602052604081208054916109518361199f565b9190505550610c64565b3360009081526006602090815260408083206007909252822054610980906001611953565b8154811061099057610990611924565b6000918252602091829020604080518082018252600293909302909101805483526001015482840152918401519151635487c57760e01b8152600481019290925291506001600160a01b03891690635487c57790602401602060405180830381865afa158015610a04573d6000803e3d6000fd5b505050506040513d601f19601f82011682018060405250810190610a28919061193a565b6020820151604051635487c57760e01b815260048101919091526001600160a01b038a1690635487c57790602401602060405180830381865afa158015610a73573d6000803e3d6000fd5b505050506040513d601f19601f82011682018060405250810190610a97919061193a565b03610ac157336000908152600760205260408120805491610ab78361199f565b9190505550610c62565b6000600a8581548110610ad657610ad6611924565b90600052602060002001541115610b9a57600a8481548110610afa57610afa611924565b60009182526020909120015482516040516315a8752360e31b8152306004820152602481018790526001600160a01b038a169063ad43a918906044016020604051808303816000875af1158015610b55573d6000803e3d6000fd5b505050506040513d601f19601f82011682018060405250810190610b79919061193a565b610b839190611966565b610b8d919061197d565b610b979086611953565b94505b336000908152600860205260408120805491610bb58361199f565b90915550503360009081526008602090815260409182902054908301519151635487c57760e01b81526004810192909252906001600160a01b038a1690635487c57790602401602060405180830381865afa158015610c18573d6000803e3d6000fd5b505050506040513d601f19601f82011682018060405250810190610c3c919061193a565b03610c6257336000908152600760205260408120805491610c5c8361199f565b91905055505b505b5080610c6f8161199f565b9150506106f2565b50610ca76040518060400160405280600d81526020016c616d6f756e74546f436c61696d60981b81525083611610565b60008054906101000a90046001600160a01b03166001600160a01b03166315b9ba5d6040518163ffffffff1660e01b8152600401602060405180830381865afa158015610cf8573d6000803e3d6000fd5b505050506040513d601f19601f82011682018060405250810190610d1c9190611907565b604051631ec9887760e11b8152336004820152602481018490526001600160a01b039190911690633d9310ee90604401600060405180830381600087803b158015610d6657600080fd5b505af1158015610d7a573d6000803e3d6000fd5b509398975050505050505050565b60008060009054906101000a90046001600160a01b03166001600160a01b03166308b0308a6040518163ffffffff1660e01b8152600401602060405180830381865afa158015610ddc573d6000803e3d6000fd5b505050506040513d601f19601f82011682018060405250810190610e009190611907565b604051635487c57760e01b81524260048201526001600160a01b039190911690635487c57790602401602060405180830381865afa158015610e46573d6000803e3d6000fd5b505050506040513d601f19601f82011682018060405250810190610e6a919061193a565b905060005b6080811015610eca57600a54821115610eca57600954600a80546001810182556000919091527fc65a7bb8d6351c1cf70c95a316cc6a92839c986682d98bc35f958f4883f9d2a8015580610ec28161199f565b915050610e6f565b5050565b60005460408051630458184560e11b8152905142926001600160a01b0316916308b0308a9160048083019260209291908290030181865afa158015610f17573d6000803e3d6000fd5b505050506040513d601f19601f82011682018060405250810190610f3b9190611907565b60405163cbf9fe5f60e01b81526001600160a01b038481166004830152919091169063cbf9fe5f906024016040805180830381865afa158015610f82573d6000803e3d6000fd5b505050506040513d601f19601f82011682018060405250810190610fa691906119b8565b602001511015610fb957610fb9816112f7565b50565b60005b8151811015610eca57610fea828281518110610fdd57610fdd611924565b602002602001015161028a565b80610ff48161199f565b915050610fbf565b600081815260016020526040812080546001600160a01b0319163317905561102382611218565b6000838152600c60209081526040808320849055338352600d909152812080549293508392909190611056908490611953565b9250508190555080600e600082825461106f9190611953565b9091555061107e9050336112f7565b600b54604051632142170760e11b8152336004820152306024820152604481018490526001600160a01b03909116906342842e0e90606401600060405180830381600087803b1580156110d057600080fd5b505af11580156110e4573d6000803e3d6000fd5b505033600081815260026020818152604080842080546004845282862081875284528286208b90558a865260058452918520829055948452919052825490945060019350611133908490611953565b9250508190555060016003600082825461114d9190611953565b909155505060405183815233907fa76194b11cf7b940f18e866ed3382a795bb09ca684db1b957d595417f63151f8906020016104ec565b6001600160a01b0381166000908152600d602052604081205481036111ab57506000919050565b6001600160a01b0382166000908152600d60209081526040808320546006909252909120805461271091906111e2906001906118e4565b815481106111f2576111f2611924565b90600052602060002090600202016000015461120e9190611966565b610284919061197d565b600b546040516319ba7e5360e31b81526004810183905260009182916001600160a01b039091169063cdd3f29890602401600060405180830381865afa158015611266573d6000803e3d6000fd5b505050506040513d6000823e601f3d908101601f1916820160405261128e9190810190611a07565b9050600081604001518260000151516112a79190611966565b9050600082602001518211156112c2575060208201516112c5565b50805b6112ef604051806040016040528060088152602001674c502056414c554560c01b81525082611610565b949350505050565b60008060009054906101000a90046001600160a01b03166001600160a01b03166308b0308a6040518163ffffffff1660e01b8152600401602060405180830381865afa15801561134b573d6000803e3d6000fd5b505050506040513d601f19601f8201168201806040525081019061136f9190611907565b6040516370a0823160e01b81526001600160a01b0384811660048301529192506000918316906370a0823190602401602060405180830381865afa1580156113bb573d6000803e3d6000fd5b505050506040513d601f19601f820116820180604052508101906113df919061193a565b90506000826001600160a01b03166318160ddd6040518163ffffffff1660e01b81526004016020604051808303816000875af1158015611423573d6000803e3d6000fd5b505050506040513d601f19601f82011682018060405250810190611447919061193a565b90506000611453610d88565b8160000361147a57506001600160a01b0384166000908152600d6020526040902054611502565b6001600160a01b0385166000908152600d6020526040902054600e546114ff91906127109085906114ad88611388611966565b6114b79190611966565b6114c1919061197d565b6001600160a01b0389166000908152600d60205260409020546114e690611388611966565b6114f09190611953565b6114fa919061197d565b611655565b90505b60408051808201909152600080825260208201526001600160a01b0386166000908152600660205260409020541561159a576001600160a01b0386166000908152600660205260409020805461155a906001906118e4565b8154811061156a5761156a611924565b90600052602060002090600202016040518060400160405290816000820154815260200160018201548152505090505b6040805180820190915282815242602082015281516009546115bd908590611953565b6115c791906118e4565b6009556001600160a01b03909616600090815260066020908152604082208054600181810183559184529282902089516002909402019283559701519601959095555050505050565b610eca8282604051602401611626929190611b03565b60408051601f198184030181529190526020810180516001600160e01b0316632d839cb360e21b17905261166d565b60008183106116645781611666565b825b9392505050565b80516a636f6e736f6c652e6c6f67602083016000808483855afa5050505050565b6001600160a01b0381168114610fb957600080fd5b600080604083850312156116b657600080fd5b82356116c18161168e565b946020939093013593505050565b6000806000806000608086880312156116e757600080fd5b85356116f28161168e565b945060208601356117028161168e565b935060408601359250606086013567ffffffffffffffff8082111561172657600080fd5b818801915088601f83011261173a57600080fd5b81358181111561174957600080fd5b89602082850101111561175b57600080fd5b9699959850939650602001949392505050565b60006020828403121561178057600080fd5b5035919050565b60006020828403121561179957600080fd5b81356116668161168e565b634e487b7160e01b600052604160045260246000fd5b60405160c0810167ffffffffffffffff811182821017156117dd576117dd6117a4565b60405290565b604051601f8201601f1916810167ffffffffffffffff8111828210171561180c5761180c6117a4565b604052919050565b600067ffffffffffffffff82111561182e5761182e6117a4565b5060051b60200190565b6000602080838503121561184b57600080fd5b823567ffffffffffffffff81111561186257600080fd5b8301601f8101851361187357600080fd5b803561188661188182611814565b6117e3565b81815260059190911b820183019083810190878311156118a557600080fd5b928401925b828410156118c3578335825292840192908401906118aa565b979650505050505050565b634e487b7160e01b600052601160045260246000fd5b81810381811115610284576102846118ce565b80516119028161168e565b919050565b60006020828403121561191957600080fd5b81516116668161168e565b634e487b7160e01b600052603260045260246000fd5b60006020828403121561194c57600080fd5b5051919050565b80820180821115610284576102846118ce565b8082028115828204841417610284576102846118ce565b60008261199a57634e487b7160e01b600052601260045260246000fd5b500490565b6000600182016119b1576119b16118ce565b5060010190565b6000604082840312156119ca57600080fd5b6040516040810181811067ffffffffffffffff821117156119ed576119ed6117a4565b604052825181526020928301519281019290925250919050565b60006020808385031215611a1a57600080fd5b825167ffffffffffffffff80821115611a3257600080fd5b9084019060c08287031215611a4657600080fd5b611a4e6117ba565b825182811115611a5d57600080fd5b83019150601f82018713611a7057600080fd5b8151611a7e61188182611814565b81815260059190911b83018501908581019089831115611a9d57600080fd5b938601935b82851015611abb57845182529386019390860190611aa2565b83525050828401518482015260408084015190820152611add606084016118f7565b60608201526080830151608082015260a083015160a08201528094505050505092915050565b604081526000835180604084015260005b81811015611b315760208187018101516060868401015201611b14565b506000606082850101526060601f19601f830116840101915050826020830152939250505056fea2646970667358221220722071d841728caef1d9aed3c4889fb38709ef1c86ed33f1692f43ca091132a464736f6c63430008110033",
  "linkReferences": {},
  "deployedLinkReferences": {}
}