{
  "_format": "hh-sol-artifact-1",
  "contractName": "TradingPoolFactory",
  "sourceName": "contracts/protocol/Swap/TradingPoolFactory.sol",
  "abi": [
    {
      "anonymous": false,
      "inputs": [
        {
          "indexed": true,
          "internalType": "address",
          "name": "pool",
          "type": "address"
        }
      ],
      "name": "CreateTradingPool",
      "type": "event"
    },
    {
      "anonymous": false,
      "inputs": [
        {
          "indexed": false,
          "internalType": "uint8",
          "name": "version",
          "type": "uint8"
        }
      ],
      "name": "Initialized",
      "type": "event"
    },
    {
      "anonymous": false,
      "inputs": [
        {
          "indexed": true,
          "internalType": "address",
          "name": "previousOwner",
          "type": "address"
        },
        {
          "indexed": true,
          "internalType": "address",
          "name": "newOwner",
          "type": "address"
        }
      ],
      "name": "OwnershipTransferred",
      "type": "event"
    },
    {
      "inputs": [
        {
          "internalType": "address",
          "name": "nft",
          "type": "address"
        },
        {
          "internalType": "address",
          "name": "token",
          "type": "address"
        }
      ],
      "name": "createTradingPool",
      "outputs": [],
      "stateMutability": "nonpayable",
      "type": "function"
    },
    {
      "inputs": [],
      "name": "getDefaultSwapFee",
      "outputs": [
        {
          "internalType": "uint256",
          "name": "",
          "type": "uint256"
        }
      ],
      "stateMutability": "view",
      "type": "function"
    },
    {
      "inputs": [
        {
          "internalType": "contract IAddressesProvider",
          "name": "addressesProvider",
          "type": "address"
        },
        {
          "internalType": "uint256",
          "name": "defaultSwapFee",
          "type": "uint256"
        }
      ],
      "name": "initialize",
      "outputs": [],
      "stateMutability": "nonpayable",
      "type": "function"
    },
    {
      "inputs": [],
      "name": "owner",
      "outputs": [
        {
          "internalType": "address",
          "name": "",
          "type": "address"
        }
      ],
      "stateMutability": "view",
      "type": "function"
    },
    {
      "inputs": [],
      "name": "renounceOwnership",
      "outputs": [],
      "stateMutability": "nonpayable",
      "type": "function"
    },
    {
      "inputs": [
        {
          "internalType": "uint256",
          "name": "newSwapFee",
          "type": "uint256"
        }
      ],
      "name": "setDefaultSwapFee",
      "outputs": [],
      "stateMutability": "nonpayable",
      "type": "function"
    },
    {
      "inputs": [
        {
          "internalType": "address",
          "name": "newOwner",
          "type": "address"
        }
      ],
      "name": "transferOwnership",
      "outputs": [],
      "stateMutability": "nonpayable",
      "type": "function"
    }
  ],
  "bytecode": "0x608060405234801561001057600080fd5b50613ec4806100206000396000f3fe60806040523480156200001157600080fd5b5060043610620000875760003560e01c80638da5cb5b11620000625780638da5cb5b14620000c4578063cd6dc68714620000e0578063de15113414620000f7578063f2fde38b146200010e57600080fd5b8063183c40ac146200008c578063334dc4f314620000a2578063715018a614620000ba575b600080fd5b6099546040519081526020015b60405180910390f35b620000b8620000b3366004620008b9565b609955565b005b620000b862000125565b6033546040516001600160a01b03909116815260200162000099565b620000b8620000f1366004620008e9565b6200013d565b620000b86200010836600462000918565b6200027d565b620000b86200011f36600462000956565b62000629565b6200012f620006a8565b6200013b600062000704565b565b600054610100900460ff16158080156200015e5750600054600160ff909116105b806200017a5750303b1580156200017a575060005460ff166001145b620001e35760405162461bcd60e51b815260206004820152602e60248201527f496e697469616c697a61626c653a20636f6e747261637420697320616c72656160448201526d191e481a5b9a5d1a585b1a5e995960921b60648201526084015b60405180910390fd5b6000805460ff19166001179055801562000207576000805461ff0019166101001790555b6200021162000756565b609780546001600160a01b0319166001600160a01b0385161790556099829055801562000278576000805461ff0019169055604051600181527f7f26b83ff96e1f2b6a682f133852f6798a09c465da95921460cefb38474024989060200160405180910390a15b505050565b620002996001600160a01b0383166380ac58cd60e01b6200078a565b620002fb5760405162461bcd60e51b815260206004820152602b60248201527f436f6c6c656374696f6e2061646472657373206973206e6f742045524337323160448201526a1031b7b6b83634b0b73a1760a91b6064820152608401620001da565b6001600160a01b03828116600090815260986020908152604080832085851684529091529020541615620003725760405162461bcd60e51b815260206004820152601b60248201527f54726164696e6720506f6f6c20616c72656164792065786973747300000000006044820152606401620001da565b6097546000906001600160a01b0316620003946033546001600160a01b031690565b8385609954866001600160a01b03166395d89b416040518163ffffffff1660e01b8152600401600060405180830381865afa158015620003d8573d6000803e3d6000fd5b505050506040513d6000823e601f3d908101601f19168201604052620004029190810190620009b2565b886001600160a01b03166395d89b416040518163ffffffff1660e01b8152600401600060405180830381865afa15801562000441573d6000803e3d6000fd5b505050506040513d6000823e601f3d908101601f191682016040526200046b9190810190620009b2565b6040516020016200047e92919062000a60565b604051602081830303815290604052876001600160a01b03166395d89b416040518163ffffffff1660e01b8152600401600060405180830381865afa158015620004cc573d6000803e3d6000fd5b505050506040513d6000823e601f3d908101601f19168201604052620004f69190810190620009b2565b896001600160a01b03166395d89b416040518163ffffffff1660e01b8152600401600060405180830381865afa15801562000535573d6000803e3d6000fd5b505050506040513d6000823e601f3d908101601f191682016040526200055f9190810190620009b2565b6040516020016200057292919062000ac1565b6040516020818303038152906040526040516200058f90620008ab565b620005a1979695949392919062000b3e565b604051809103906000f080158015620005be573d6000803e3d6000fd5b506001600160a01b038481166000908152609860209081526040808320878516845290915280822080546001600160a01b03191693851693841790555192935090917f66f785136f3f010fbae3f4377a24a2dbd4ea4e4940c4a3e3b12727cbc31e97719190a2505050565b62000633620006a8565b6001600160a01b0381166200069a5760405162461bcd60e51b815260206004820152602660248201527f4f776e61626c653a206e6577206f776e657220697320746865207a65726f206160448201526564647265737360d01b6064820152608401620001da565b620006a58162000704565b50565b6033546001600160a01b031633146200013b5760405162461bcd60e51b815260206004820181905260248201527f4f776e61626c653a2063616c6c6572206973206e6f7420746865206f776e65726044820152606401620001da565b603380546001600160a01b038381166001600160a01b0319831681179093556040519116919082907f8be0079c531659141344cd1fd0a4f28419497f9722a3daafe3b4186f6b6457e090600090a35050565b600054610100900460ff16620007805760405162461bcd60e51b8152600401620001da9062000ba5565b6200013b620007b2565b60006200079783620007e7565b8015620007ab5750620007ab838362000820565b9392505050565b600054610100900460ff16620007dc5760405162461bcd60e51b8152600401620001da9062000ba5565b6200013b3362000704565b6000620007fc826301ffc9a760e01b62000820565b80156200081a575062000818826001600160e01b031962000820565b155b92915050565b604080516001600160e01b03198316602480830191909152825180830390910181526044909101909152602080820180516001600160e01b03166301ffc9a760e01b178152825160009392849283928392918391908a617530fa92503d9150600051905082801562000893575060208210155b8015620008a05750600081115b979650505050505050565b61329e8062000bf183390190565b600060208284031215620008cc57600080fd5b5035919050565b6001600160a01b0381168114620006a557600080fd5b60008060408385031215620008fd57600080fd5b82356200090a81620008d3565b946020939093013593505050565b600080604083850312156200092c57600080fd5b82356200093981620008d3565b915060208301356200094b81620008d3565b809150509250929050565b6000602082840312156200096957600080fd5b8135620007ab81620008d3565b634e487b7160e01b600052604160045260246000fd5b60005b83811015620009a95781810151838201526020016200098f565b50506000910152565b600060208284031215620009c557600080fd5b815167ffffffffffffffff80821115620009de57600080fd5b818401915084601f830112620009f357600080fd5b81518181111562000a085762000a0862000976565b604051601f8201601f19908116603f0116810190838211818310171562000a335762000a3362000976565b8160405282815287602084870101111562000a4d57600080fd5b620008a08360208301602088016200098c565b7203632a7232a102a3930b234b733902837b7b61606d1b81526000835162000a908160138501602088016200098c565b6201016960ed1b601391840191820152835162000ab58160168401602088016200098c565b01601601949350505050565b621b195560ea1b81526000835162000ae18160038501602088016200098c565b602d60f81b600391840191820152835162000b048160048401602088016200098c565b01600401949350505050565b6000815180845262000b2a8160208601602086016200098c565b601f01601f19169290920160200192915050565b6001600160a01b03888116825287811660208301528681166040830152851660608201526080810184905260e060a0820181905260009062000b839083018562000b10565b82810360c084015262000b97818562000b10565b9a9950505050505050505050565b6020808252602b908201527f496e697469616c697a61626c653a20636f6e7472616374206973206e6f74206960408201526a6e697469616c697a696e6760a81b60608201526080019056fe60806040523480156200001157600080fd5b506040516200329e3803806200329e8339810160408190526200003491620002dd565b8181600062000044838262000436565b50600162000053828262000436565b505050620000706200006a620001a960201b60201c565b620001ad565b866001600160a01b03166304d21cee6040518163ffffffff1660e01b8152600401602060405180830381865afa158015620000af573d6000803e3d6000fd5b505050506040513d601f19601f82011682018060405250810190620000d5919062000502565b6001600160a01b0316336001600160a01b0316146200014f5760405162461bcd60e51b815260206004820152602c60248201527f54726164696e6720506f6f6c206d75737420626520637265617465642074687260448201526b6f75676820466163746f727960a01b606482015260840160405180910390fd5b600b80546001600160a01b03808a166001600160a01b031992831617909255600c8054888416908316179055600d805492871692909116919091179055600e8390556200019c86620001ad565b5050505050505062000529565b3390565b600a80546001600160a01b038381166001600160a01b0319831681179093556040519116919082907f8be0079c531659141344cd1fd0a4f28419497f9722a3daafe3b4186f6b6457e090600090a35050565b6001600160a01b03811681146200021557600080fd5b50565b634e487b7160e01b600052604160045260246000fd5b600082601f8301126200024057600080fd5b81516001600160401b03808211156200025d576200025d62000218565b604051601f8301601f19908116603f0116810190828211818310171562000288576200028862000218565b81604052838152602092508683858801011115620002a557600080fd5b600091505b83821015620002c95785820183015181830184015290820190620002aa565b600093810190920192909252949350505050565b600080600080600080600060e0888a031215620002f957600080fd5b87516200030681620001ff565b60208901519097506200031981620001ff565b60408901519096506200032c81620001ff565b60608901519095506200033f81620001ff565b608089015160a08a015191955093506001600160401b03808211156200036457600080fd5b620003728b838c016200022e565b935060c08a01519150808211156200038957600080fd5b50620003988a828b016200022e565b91505092959891949750929550565b600181811c90821680620003bc57607f821691505b602082108103620003dd57634e487b7160e01b600052602260045260246000fd5b50919050565b601f8211156200043157600081815260208120601f850160051c810160208610156200040c5750805b601f850160051c820191505b818110156200042d5782815560010162000418565b5050505b505050565b81516001600160401b0381111562000452576200045262000218565b6200046a81620004638454620003a7565b84620003e3565b602080601f831160018114620004a25760008415620004895750858301515b600019600386901b1c1916600185901b1785556200042d565b600085815260208120601f198616915b82811015620004d357888601518255948401946001909101908401620004b2565b5085821015620004f25787850151600019600388901b60f8161c191681555b5050505050600190811b01905550565b6000602082840312156200051557600080fd5b81516200052281620001ff565b9392505050565b612d6580620005396000396000f3fe608060405234801561001057600080fd5b506004361061018e5760003560e01c806370a08231116100de578063b88d4fde11610097578063cdd3f29811610071578063cdd3f29814610366578063d07fd39314610386578063e985e9c514610399578063f2fde38b146103d557600080fd5b8063b88d4fde1461032d578063c243c72b14610340578063c87b56dd1461035357600080fd5b806370a08231146102d3578063715018a6146102e65780638da5cb5b146102ee57806395d89b41146102ff5780639c8f9f2314610307578063a22cb4651461031a57600080fd5b806323b872dd1161014b57806342842e0e1161012557806342842e0e146102875780634f6ccce71461029a5780636352211e146102ad57806368660cd4146102c057600080fd5b806323b872dd1461024e5780632f745c591461026157806334e199071461027457600080fd5b806301ffc9a71461019357806306fdde03146101bb578063081812fc146101d0578063095ea7b3146101fb578063150b7a021461021057806318160ddd1461023c575b600080fd5b6101a66101a13660046125a6565b6103e8565b60405190151581526020015b60405180910390f35b6101c36103f9565b6040516101b29190612613565b6101e36101de366004612626565b61048b565b6040516001600160a01b0390911681526020016101b2565b61020e61020936600461265b565b6104b2565b005b61022361021e3660046126cc565b6105cc565b6040516001600160e01b031990911681526020016101b2565b6008545b6040519081526020016101b2565b61020e61025c36600461278c565b6105dd565b61024061026f36600461265b565b61060e565b61020e610282366004612626565b6106a4565b61020e61029536600461278c565b6106b1565b6102406102a8366004612626565b6106cc565b6101e36102bb366004612626565b61075f565b61020e6102ce36600461283d565b6107bf565b6102406102e13660046128a6565b610993565b61020e610a19565b600a546001600160a01b03166101e3565b6101c3610a2d565b61020e610315366004612626565b610a3c565b61020e6103283660046128cf565b610b7a565b61020e61033b3660046126cc565b610b89565b61024061034e366004612906565b610bc1565b6101c3610361366004612626565b610f73565b610379610374366004612626565b610fe7565b6040516101b2919061293b565b6102406103943660046129c1565b611092565b6101a66103a7366004612a25565b6001600160a01b03918216600090815260056020908152604080832093909416825291909152205460ff1690565b61020e6103e33660046128a6565b61144b565b60006103f3826114c4565b92915050565b60606000805461040890612a58565b80601f016020809104026020016040519081016040528092919081815260200182805461043490612a58565b80156104815780601f1061045657610100808354040283529160200191610481565b820191906000526020600020905b81548152906001019060200180831161046457829003601f168201915b5050505050905090565b6000610496826114e9565b506000908152600460205260409020546001600160a01b031690565b60006104bd8261075f565b9050806001600160a01b0316836001600160a01b03160361052f5760405162461bcd60e51b815260206004820152602160248201527f4552433732313a20617070726f76616c20746f2063757272656e74206f776e656044820152603960f91b60648201526084015b60405180910390fd5b336001600160a01b038216148061054b575061054b81336103a7565b6105bd5760405162461bcd60e51b815260206004820152603d60248201527f4552433732313a20617070726f76652063616c6c6572206973206e6f7420746f60448201527f6b656e206f776e6572206f7220617070726f76656420666f7220616c6c0000006064820152608401610526565b6105c78383611548565b505050565b630a85bd0160e11b5b949350505050565b6105e733826115b6565b6106035760405162461bcd60e51b815260040161052690612a92565b6105c7838383611634565b600061061983610993565b821061067b5760405162461bcd60e51b815260206004820152602b60248201527f455243373231456e756d657261626c653a206f776e657220696e646578206f7560448201526a74206f6620626f756e647360a81b6064820152608401610526565b506001600160a01b03919091166000908152600660209081526040808320938352929052205490565b6106ac6117a5565b600e55565b6105c783838360405180602001604052806000815250610b89565b60006106d760085490565b821061073a5760405162461bcd60e51b815260206004820152602c60248201527f455243373231456e756d657261626c653a20676c6f62616c20696e646578206f60448201526b7574206f6620626f756e647360a01b6064820152608401610526565b6008828154811061074d5761074d612adf565b90600052602060002001549050919050565b6000818152600260205260408120546001600160a01b0316806103f35760405162461bcd60e51b8152602060048201526018602482015277115490cdcc8c4e881a5b9d985b1a59081d1bdad95b88125160421b6044820152606401610526565b60005b84518110156108b757600d5485516001600160a01b03909116906342842e0e90339030908990869081106107f8576107f8612adf565b60200260200101516040518463ffffffff1660e01b815260040161081e93929190612af5565b600060405180830381600087803b15801561083857600080fd5b505af115801561084c573d6000803e3d6000fd5b5050505060405180604001604052806011548152602001828152506010600087848151811061087d5761087d612adf565b60209081029190910181015182528181019290925260400160002082518155910151600190910155806108af81612b2f565b9150506107c2565b50600c546108d0906001600160a01b03163330886117ff565b6040805160a08101825286815260208082018781526001600160a01b0387168385015260608301869052608083018590526011546000908152600f835293909320825181559251805192939261092c92600185019201906124da565b5060408201516002820180546001600160a01b0319166001600160a01b0390921691909117905560608201516003820155608090910151600490910155601154610977903390611857565b6011805490600061098783612b2f565b91905055505050505050565b60006001600160a01b0382166109fd5760405162461bcd60e51b815260206004820152602960248201527f4552433732313a2061646472657373207a65726f206973206e6f7420612076616044820152683634b21037bbb732b960b91b6064820152608401610526565b506001600160a01b031660009081526003602052604090205490565b610a216117a5565b610a2b6000611871565b565b60606001805461040890612a58565b610a45816118c3565b60005b6000828152600f6020526040902060010154811015610b0c57600d546000838152600f6020526040902060010180546001600160a01b03909216916342842e0e91309133919086908110610a9e57610a9e612adf565b90600052602060002001546040518463ffffffff1660e01b8152600401610ac793929190612af5565b600060405180830381600087803b158015610ae157600080fd5b505af1158015610af5573d6000803e3d6000fd5b505050508080610b0490612b2f565b915050610a48565b506000818152600f6020526040902054600c54610b36916001600160a01b03909116903090611966565b6000818152600f6020526040812081815590610b556001830182612525565b506002810180546001600160a01b031916905560006003820181905560049091015550565b610b85338383611996565b5050565b610b9333836115b6565b610baf5760405162461bcd60e51b815260040161052690612a92565b610bbb84848484611a64565b50505050565b600080600080600080610bd2612543565b60005b8851811015610f4e57601060008a8381518110610bf457610bf4612adf565b60200260200101518152602001908152602001600020600001549350601060008a8381518110610c2657610c26612adf565b60200260200101518152602001908152602001600020600101549250600f60008581526020019081526020016000206040518060a00160405290816000820154815260200160018201805480602002602001604051908101604052809291908181526020018280548015610cb957602002820191906000526020600020905b815481526020019060010190808311610ca5575b505050918352505060028201546001600160a01b0390811660208301526003830154604080840191909152600493840154606093840152848101516080860151938601519151635d8b487160e11b81529485019390935260248401529294509091169063bb1690e290604401602060405180830381865afa158015610d42573d6000803e3d6000fd5b505050506040513d601f19601f82011682018060405250810190610d669190612b48565b955061271086600e54612710610d7c9190612b61565b610d869190612b74565b610d909190612b8b565b6000858152600f60205260409020600481018890556001908101805492975091610dba9190612bad565b81548110610dca57610dca612adf565b9060005260206000200154600f60008681526020019081526020016000206001018481548110610dfc57610dfc612adf565b9060005260206000200181905550600f6000858152602001908152602001600020600101805480610e2f57610e2f612bc0565b6001900381819060005260206000200160009055905584600f60008681526020019081526020016000206000016000828254610e6b9190612b61565b90915550610e7b90508588612b61565b9650601060008a8381518110610e9357610e93612adf565b6020908102919091018101518252810191909152604001600090812081815560010155600d5489516001600160a01b03909116906342842e0e90309033908d9086908110610ee357610ee3612adf565b60200260200101516040518463ffffffff1660e01b8152600401610f0993929190612af5565b600060405180830381600087803b158015610f2357600080fd5b505af1158015610f37573d6000803e3d6000fd5b505050508080610f4690612b2f565b915050610bd5565b50600c54610f67906001600160a01b03163330896117ff565b50939695505050505050565b6060610f7e826114e9565b6000610f9560408051602081019091526000815290565b90506000815111610fb55760405180602001604052806000815250610fe0565b80610fbf84611a97565b604051602001610fd0929190612bd6565b6040516020818303038152906040525b9392505050565b610fef612543565b6000828152600f6020908152604091829020825160a081018452815481526001820180548551818602810186019096528086529194929385810193929083018282801561105b57602002820191906000526020600020905b815481526020019060010190808311611047575b505050918352505060028201546001600160a01b031660208201526003820154604082015260049091015460609091015292915050565b600081518351146110fc5760405162461bcd60e51b815260206004820152602e60248201527f4e46547320616e64204c6971756964697479205061697273206d75737420686160448201526d0ecca40e6c2daca40d8cadccee8d60931b6064820152608401610526565b60008060008061110a612543565b60005b885181101561142757600d5489516001600160a01b03909116906342842e0e90339030908d908690811061114357611143612adf565b60200260200101516040518463ffffffff1660e01b815260040161116993929190612af5565b600060405180830381600087803b15801561118357600080fd5b505af1158015611197573d6000803e3d6000fd5b50505050601060008a83815181106111b1576111b1612adf565b60200260200101518152602001908152602001600020600001549350601060008a83815181106111e3576111e3612adf565b60200260200101518152602001908152602001600020600101549250600f60008581526020019081526020016000206040518060a0016040529081600082015481526020016001820180548060200260200160405190810160405280929190818152602001828054801561127657602002820191906000526020600020905b815481526020019060010190808311611262575b505050918352505060028201546001600160a01b03166020820152600382015460408201526004909101546060909101526080810151600e54919350612710916112c09083612bad565b6112ca9190612b74565b6112d49190612b8b565b94506112e08587612b61565b9550600f60008a83815181106112f8576112f8612adf565b6020026020010151815260200190815260200160002060010189828151811061132357611323612adf565b602090810291909101810151825460018101845560009384528284200155858252600f905260408120805487929061135c908490612bad565b9091555050604082810151608084015160608501519251633698f96560e11b8152600481019190915260248101929092526001600160a01b031690636d31f2ca90604401602060405180830381865afa1580156113bd573d6000803e3d6000fd5b505050506040513d601f19601f820116820180604052508101906113e19190612b48565b600f60008b84815181106113f7576113f7612adf565b6020026020010151815260200190815260200160002060040181905550808061141f90612b2f565b91505061110d565b50600c5461143f906001600160a01b03163087611966565b50929695505050505050565b6114536117a5565b6001600160a01b0381166114b85760405162461bcd60e51b815260206004820152602660248201527f4f776e61626c653a206e6577206f776e657220697320746865207a65726f206160448201526564647265737360d01b6064820152608401610526565b6114c181611871565b50565b60006001600160e01b0319821663780e9d6360e01b14806103f357506103f382611b2a565b6000818152600260205260409020546001600160a01b03166114c15760405162461bcd60e51b8152602060048201526018602482015277115490cdcc8c4e881a5b9d985b1a59081d1bdad95b88125160421b6044820152606401610526565b600081815260046020526040902080546001600160a01b0319166001600160a01b038416908117909155819061157d8261075f565b6001600160a01b03167f8c5be1e5ebec7d5bd14f71427d1e84f3dd0314c0f7b2291e5b200ac8c7c3b92560405160405180910390a45050565b6000806115c28361075f565b9050806001600160a01b0316846001600160a01b0316148061160957506001600160a01b0380821660009081526005602090815260408083209388168352929052205460ff165b806105d55750836001600160a01b03166116228461048b565b6001600160a01b031614949350505050565b826001600160a01b03166116478261075f565b6001600160a01b03161461166d5760405162461bcd60e51b815260040161052690612c05565b6001600160a01b0382166116cf5760405162461bcd60e51b8152602060048201526024808201527f4552433732313a207472616e7366657220746f20746865207a65726f206164646044820152637265737360e01b6064820152608401610526565b6116dc8383836001611b7a565b826001600160a01b03166116ef8261075f565b6001600160a01b0316146117155760405162461bcd60e51b815260040161052690612c05565b600081815260046020908152604080832080546001600160a01b03199081169091556001600160a01b0387811680865260038552838620805460001901905590871680865283862080546001019055868652600290945282852080549092168417909155905184937fddf252ad1be2c89b69c2b068fc378daa952ba7f163c4a11628f55a4df523b3ef91a4505050565b600a546001600160a01b03163314610a2b5760405162461bcd60e51b815260206004820181905260248201527f4f776e61626c653a2063616c6c6572206973206e6f7420746865206f776e65726044820152606401610526565b610bbb846323b872dd60e01b85858560405160240161182093929190612af5565b60408051601f198184030181529190526020810180516001600160e01b03166001600160e01b031990931692909217909152611b86565b610b85828260405180602001604052806000815250611c58565b600a80546001600160a01b038381166001600160a01b0319831681179093556040519116919082907f8be0079c531659141344cd1fd0a4f28419497f9722a3daafe3b4186f6b6457e090600090a35050565b60006118ce8261075f565b90506118de816000846001611b7a565b6118e78261075f565b600083815260046020908152604080832080546001600160a01b03199081169091556001600160a01b0385168085526003845282852080546000190190558785526002909352818420805490911690555192935084927fddf252ad1be2c89b69c2b068fc378daa952ba7f163c4a11628f55a4df523b3ef908390a45050565b6040516001600160a01b0383166024820152604481018290526105c790849063a9059cbb60e01b90606401611820565b816001600160a01b0316836001600160a01b0316036119f75760405162461bcd60e51b815260206004820152601960248201527f4552433732313a20617070726f766520746f2063616c6c6572000000000000006044820152606401610526565b6001600160a01b03838116600081815260056020908152604080832094871680845294825291829020805460ff191686151590811790915591519182527f17307eab39ab6107e8899845ad3d59bd9653f200f220920489ca2b5937696c31910160405180910390a3505050565b611a6f848484611634565b611a7b84848484611c8b565b610bbb5760405162461bcd60e51b815260040161052690612c4a565b60606000611aa483611d89565b600101905060008167ffffffffffffffff811115611ac457611ac4612685565b6040519080825280601f01601f191660200182016040528015611aee576020820181803683370190505b5090508181016020015b600019016f181899199a1a9b1b9c1cb0b131b232b360811b600a86061a8153600a8504945084611af857509392505050565b60006001600160e01b031982166380ac58cd60e01b1480611b5b57506001600160e01b03198216635b5e139f60e01b145b806103f357506301ffc9a760e01b6001600160e01b03198316146103f3565b610bbb84848484611e61565b6000611bdb826040518060400160405280602081526020017f5361666545524332303a206c6f772d6c6576656c2063616c6c206661696c6564815250856001600160a01b0316611fa19092919063ffffffff16565b8051909150156105c75780806020019051810190611bf99190612c9c565b6105c75760405162461bcd60e51b815260206004820152602a60248201527f5361666545524332303a204552433230206f7065726174696f6e20646964206e6044820152691bdd081cdd58d8d9595960b21b6064820152608401610526565b611c628383611fb0565b611c6f6000848484611c8b565b6105c75760405162461bcd60e51b815260040161052690612c4a565b60006001600160a01b0384163b15611d8157604051630a85bd0160e11b81526001600160a01b0385169063150b7a0290611ccf903390899088908890600401612cb9565b6020604051808303816000875af1925050508015611d0a575060408051601f3d908101601f19168201909252611d0791810190612cf6565b60015b611d67573d808015611d38576040519150601f19603f3d011682016040523d82523d6000602084013e611d3d565b606091505b508051600003611d5f5760405162461bcd60e51b815260040161052690612c4a565b805181602001fd5b6001600160e01b031916630a85bd0160e11b1490506105d5565b5060016105d5565b60008072184f03e93ff9f4daa797ed6e38ed64bf6a1f0160401b8310611dc85772184f03e93ff9f4daa797ed6e38ed64bf6a1f0160401b830492506040015b6d04ee2d6d415b85acef81000000008310611df4576d04ee2d6d415b85acef8100000000830492506020015b662386f26fc100008310611e1257662386f26fc10000830492506010015b6305f5e1008310611e2a576305f5e100830492506008015b6127108310611e3e57612710830492506004015b60648310611e50576064830492506002015b600a83106103f35760010192915050565b611e6d84848484612149565b6001811115611edc5760405162461bcd60e51b815260206004820152603560248201527f455243373231456e756d657261626c653a20636f6e7365637574697665207472604482015274185b9cd9995c9cc81b9bdd081cdd5c1c1bdc9d1959605a1b6064820152608401610526565b816001600160a01b038516611f3857611f3381600880546000838152600960205260408120829055600182018355919091527ff3f7a9fe364faab93b216da50a3214154f22a0a2b415b23a84c8169e8b636ee30155565b611f5b565b836001600160a01b0316856001600160a01b031614611f5b57611f5b85826121d1565b6001600160a01b038416611f7757611f728161226e565b611f9a565b846001600160a01b0316846001600160a01b031614611f9a57611f9a848261231d565b5050505050565b60606105d58484600085612361565b6001600160a01b0382166120065760405162461bcd60e51b815260206004820181905260248201527f4552433732313a206d696e7420746f20746865207a65726f20616464726573736044820152606401610526565b6000818152600260205260409020546001600160a01b03161561206b5760405162461bcd60e51b815260206004820152601c60248201527f4552433732313a20746f6b656e20616c7265616479206d696e746564000000006044820152606401610526565b612079600083836001611b7a565b6000818152600260205260409020546001600160a01b0316156120de5760405162461bcd60e51b815260206004820152601c60248201527f4552433732313a20746f6b656e20616c7265616479206d696e746564000000006044820152606401610526565b6001600160a01b038216600081815260036020908152604080832080546001019055848352600290915280822080546001600160a01b0319168417905551839291907fddf252ad1be2c89b69c2b068fc378daa952ba7f163c4a11628f55a4df523b3ef908290a45050565b6001811115610bbb576001600160a01b0384161561218f576001600160a01b03841660009081526003602052604081208054839290612189908490612bad565b90915550505b6001600160a01b03831615610bbb576001600160a01b038316600090815260036020526040812080548392906121c6908490612b61565b909155505050505050565b600060016121de84610993565b6121e89190612bad565b60008381526007602052604090205490915080821461223b576001600160a01b03841660009081526006602090815260408083208584528252808320548484528184208190558352600790915290208190555b5060009182526007602090815260408084208490556001600160a01b039094168352600681528383209183525290812055565b60085460009061228090600190612bad565b600083815260096020526040812054600880549394509092849081106122a8576122a8612adf565b9060005260206000200154905080600883815481106122c9576122c9612adf565b600091825260208083209091019290925582815260099091526040808220849055858252812055600880548061230157612301612bc0565b6001900381819060005260206000200160009055905550505050565b600061232883610993565b6001600160a01b039093166000908152600660209081526040808320868452825280832085905593825260079052919091209190915550565b6060824710156123c25760405162461bcd60e51b815260206004820152602660248201527f416464726573733a20696e73756666696369656e742062616c616e636520666f6044820152651c8818d85b1b60d21b6064820152608401610526565b600080866001600160a01b031685876040516123de9190612d13565b60006040518083038185875af1925050503d806000811461241b576040519150601f19603f3d011682016040523d82523d6000602084013e612420565b606091505b50915091506124318783838761243c565b979650505050505050565b606083156124ab5782516000036124a4576001600160a01b0385163b6124a45760405162461bcd60e51b815260206004820152601d60248201527f416464726573733a2063616c6c20746f206e6f6e2d636f6e74726163740000006044820152606401610526565b50816105d5565b6105d583838151156124c05781518083602001fd5b8060405162461bcd60e51b81526004016105269190612613565b828054828255906000526020600020908101928215612515579160200282015b828111156125155782518255916020019190600101906124fa565b5061252192915061257b565b5090565b50805460008255906000526020600020908101906114c1919061257b565b6040518060a00160405280600081526020016060815260200160006001600160a01b0316815260200160008152602001600081525090565b5b80821115612521576000815560010161257c565b6001600160e01b0319811681146114c157600080fd5b6000602082840312156125b857600080fd5b8135610fe081612590565b60005b838110156125de5781810151838201526020016125c6565b50506000910152565b600081518084526125ff8160208601602086016125c3565b601f01601f19169290920160200192915050565b602081526000610fe060208301846125e7565b60006020828403121561263857600080fd5b5035919050565b80356001600160a01b038116811461265657600080fd5b919050565b6000806040838503121561266e57600080fd5b6126778361263f565b946020939093013593505050565b634e487b7160e01b600052604160045260246000fd5b604051601f8201601f1916810167ffffffffffffffff811182821017156126c4576126c4612685565b604052919050565b600080600080608085870312156126e257600080fd5b6126eb8561263f565b935060206126fa81870161263f565b935060408601359250606086013567ffffffffffffffff8082111561271e57600080fd5b818801915088601f83011261273257600080fd5b81358181111561274457612744612685565b612756601f8201601f1916850161269b565b9150808252898482850101111561276c57600080fd5b808484018584013760008482840101525080935050505092959194509250565b6000806000606084860312156127a157600080fd5b6127aa8461263f565b92506127b86020850161263f565b9150604084013590509250925092565b600082601f8301126127d957600080fd5b8135602067ffffffffffffffff8211156127f5576127f5612685565b8160051b61280482820161269b565b928352848101820192828101908785111561281e57600080fd5b83870192505b8483101561243157823582529183019190830190612824565b600080600080600060a0868803121561285557600080fd5b85359450602086013567ffffffffffffffff81111561287357600080fd5b61287f888289016127c8565b94505061288e6040870161263f565b94979396509394606081013594506080013592915050565b6000602082840312156128b857600080fd5b610fe08261263f565b80151581146114c157600080fd5b600080604083850312156128e257600080fd5b6128eb8361263f565b915060208301356128fb816128c1565b809150509250929050565b60006020828403121561291857600080fd5b813567ffffffffffffffff81111561292f57600080fd5b6105d5848285016127c8565b60208082528251828201528281015160a06040840152805160c0840181905260009291820190839060e08601905b808310156129895783518252928401926001929092019190840190612969565b5060408701516001600160a01b0381166060880152935060608701516080870152608087015160a08701528094505050505092915050565b600080604083850312156129d457600080fd5b823567ffffffffffffffff808211156129ec57600080fd5b6129f8868387016127c8565b93506020850135915080821115612a0e57600080fd5b50612a1b858286016127c8565b9150509250929050565b60008060408385031215612a3857600080fd5b612a418361263f565b9150612a4f6020840161263f565b90509250929050565b600181811c90821680612a6c57607f821691505b602082108103612a8c57634e487b7160e01b600052602260045260246000fd5b50919050565b6020808252602d908201527f4552433732313a2063616c6c6572206973206e6f7420746f6b656e206f776e6560408201526c1c881bdc88185c1c1c9bdd9959609a1b606082015260800190565b634e487b7160e01b600052603260045260246000fd5b6001600160a01b039384168152919092166020820152604081019190915260600190565b634e487b7160e01b600052601160045260246000fd5b600060018201612b4157612b41612b19565b5060010190565b600060208284031215612b5a57600080fd5b5051919050565b808201808211156103f3576103f3612b19565b80820281158282048414176103f3576103f3612b19565b600082612ba857634e487b7160e01b600052601260045260246000fd5b500490565b818103818111156103f3576103f3612b19565b634e487b7160e01b600052603160045260246000fd5b60008351612be88184602088016125c3565b835190830190612bfc8183602088016125c3565b01949350505050565b60208082526025908201527f4552433732313a207472616e736665722066726f6d20696e636f72726563742060408201526437bbb732b960d91b606082015260800190565b60208082526032908201527f4552433732313a207472616e7366657220746f206e6f6e20455243373231526560408201527131b2b4bb32b91034b6b83632b6b2b73a32b960711b606082015260800190565b600060208284031215612cae57600080fd5b8151610fe0816128c1565b6001600160a01b0385811682528416602082015260408101839052608060608201819052600090612cec908301846125e7565b9695505050505050565b600060208284031215612d0857600080fd5b8151610fe081612590565b60008251612d258184602087016125c3565b919091019291505056fea2646970667358221220f00198953290465f876524e54dc032b27b51a64c491a2884c20fc3c3281b4b9964736f6c63430008110033a2646970667358221220e2081d2c5c61321175c766b45251067debfedb2dc2de5972b8ca25bb956f5c0664736f6c63430008110033",
  "linkReferences": {},
  "deployedLinkReferences": {}
}