{
  "_format": "hh-sol-artifact-1",
  "contractName": "TradingGauge",
  "sourceName": "contracts/protocol/Gauges/TradingGauge.sol",
  "abi": [
    {
      "inputs": [
        {
          "internalType": "contract IAddressesProvider",
          "name": "addressProvider",
          "type": "address"
        },
        {
          "internalType": "address",
          "name": "lpToken_",
          "type": "address"
        }
      ],
      "stateMutability": "nonpayable",
      "type": "constructor"
    },
    {
      "anonymous": false,
      "inputs": [
        {
          "indexed": true,
          "internalType": "address",
          "name": "user",
          "type": "address"
        },
        {
          "indexed": false,
          "internalType": "uint256",
          "name": "lpId",
          "type": "uint256"
        }
      ],
      "name": "DepositLP",
      "type": "event"
    },
    {
      "anonymous": false,
      "inputs": [
        {
          "indexed": true,
          "internalType": "address",
          "name": "user",
          "type": "address"
        },
        {
          "indexed": false,
          "internalType": "uint256",
          "name": "lpId",
          "type": "uint256"
        }
      ],
      "name": "WithdrawLP",
      "type": "event"
    },
    {
      "inputs": [
        {
          "internalType": "address",
          "name": "user",
          "type": "address"
        }
      ],
      "name": "balanceOf",
      "outputs": [
        {
          "internalType": "uint256",
          "name": "",
          "type": "uint256"
        }
      ],
      "stateMutability": "view",
      "type": "function"
    },
    {
      "inputs": [
        {
          "internalType": "uint256",
          "name": "lpId",
          "type": "uint256"
        }
      ],
      "name": "calculateLpValue",
      "outputs": [
        {
          "internalType": "uint256",
          "name": "",
          "type": "uint256"
        }
      ],
      "stateMutability": "view",
      "type": "function"
    },
    {
      "inputs": [],
      "name": "claim",
      "outputs": [
        {
          "internalType": "uint256",
          "name": "",
          "type": "uint256"
        }
      ],
      "stateMutability": "nonpayable",
      "type": "function"
    },
    {
      "inputs": [
        {
          "internalType": "uint256",
          "name": "lpId",
          "type": "uint256"
        }
      ],
      "name": "deposit",
      "outputs": [],
      "stateMutability": "nonpayable",
      "type": "function"
    },
    {
      "inputs": [
        {
          "internalType": "address",
          "name": "user",
          "type": "address"
        }
      ],
      "name": "kick",
      "outputs": [],
      "stateMutability": "nonpayable",
      "type": "function"
    },
    {
      "inputs": [
        {
          "internalType": "address",
          "name": "user",
          "type": "address"
        },
        {
          "internalType": "uint256",
          "name": "index",
          "type": "uint256"
        }
      ],
      "name": "lpOfOwnerByIndex",
      "outputs": [
        {
          "internalType": "uint256",
          "name": "",
          "type": "uint256"
        }
      ],
      "stateMutability": "view",
      "type": "function"
    },
    {
      "inputs": [],
      "name": "lpToken",
      "outputs": [
        {
          "internalType": "address",
          "name": "",
          "type": "address"
        }
      ],
      "stateMutability": "view",
      "type": "function"
    },
    {
      "inputs": [
        {
          "internalType": "address",
          "name": "",
          "type": "address"
        },
        {
          "internalType": "address",
          "name": "",
          "type": "address"
        },
        {
          "internalType": "uint256",
          "name": "",
          "type": "uint256"
        },
        {
          "internalType": "bytes",
          "name": "",
          "type": "bytes"
        }
      ],
      "name": "onERC721Received",
      "outputs": [
        {
          "internalType": "bytes4",
          "name": "",
          "type": "bytes4"
        }
      ],
      "stateMutability": "pure",
      "type": "function"
    },
    {
      "inputs": [
        {
          "internalType": "address",
          "name": "user",
          "type": "address"
        }
      ],
      "name": "userBoost",
      "outputs": [
        {
          "internalType": "uint256",
          "name": "",
          "type": "uint256"
        }
      ],
      "stateMutability": "view",
      "type": "function"
    },
    {
      "inputs": [
        {
          "internalType": "address",
          "name": "user",
          "type": "address"
        }
      ],
      "name": "userLPValue",
      "outputs": [
        {
          "internalType": "uint256",
          "name": "",
          "type": "uint256"
        }
      ],
      "stateMutability": "view",
      "type": "function"
    },
    {
      "inputs": [
        {
          "internalType": "uint256",
          "name": "lpId",
          "type": "uint256"
        }
      ],
      "name": "withdraw",
      "outputs": [],
      "stateMutability": "nonpayable",
      "type": "function"
    },
    {
      "inputs": [],
      "name": "writeTotalWeightHistory",
      "outputs": [],
      "stateMutability": "nonpayable",
      "type": "function"
    }
  ],
  "bytecode": "0x60806040523480156200001157600080fd5b50604051620019383803806200193883398101604081905262000034916200007f565b600080546001600160a01b039384166001600160a01b031991821617909155600a8054929093169116179055620000be565b6001600160a01b03811681146200007c57600080fd5b50565b600080604083850312156200009357600080fd5b8251620000a08162000066565b6020840151909250620000b38162000066565b809150509250929050565b61186a80620000ce6000396000f3fe608060405234801561001057600080fd5b50600436106100b45760003560e01c806378d2f9841161007157806378d2f9841461019157806387da75ef146101ba57806396c55175146101c2578063b6b55f25146101d5578063d02a2bee146101e8578063fe03d225146101fb57600080fd5b8063019e06ab146100b9578063150b7a02146100df5780632e1a7d4d146101305780634e71d92d146101455780635fcbd2851461014d57806370a0823114610168575b600080fd5b6100cc6100c7366004611434565b61020e565b6040519081526020015b60405180910390f35b6101176100ed366004611460565b7f150b7a023d4804d13e8c85fb27262cb750cf6ba9f9dd3bb30d90f482ceeb4b1f95945050505050565b6040516001600160e01b031990911681526020016100d6565b61014361013e3660046114ff565b610239565b005b6100cc61048e565b600a546040516001600160a01b0390911681526020016100d6565b6100cc610176366004611518565b6001600160a01b031660009081526002602052604090205490565b6100cc61019f366004611518565b6001600160a01b03166000908152600c602052604090205490565b610143610a0b565b6101436101d0366004611518565b610b50565b6101436101e33660046114ff565b610c3e565b6100cc6101f6366004611518565b610dac565b6100cc6102093660046114ff565b610e40565b6001600160a01b03821660009081526003602090815260408083208484529091529020545b92915050565b6000818152600160205260409020546001600160a01b031633146102af5760405162461bcd60e51b815260206004820152602360248201527f4e6f7420746865206f776e6572206f66206c697175696469747920706f73697460448201526234b7b760e91b606482015260840160405180910390fd5b6000818152600b6020908152604080832054338452600c90925282208054919290916102dc90849061154b565b90915550506000818152600b6020526040812054600d80549192909161030390849061154b565b9091555050600081815260016020908152604080832080546001600160a01b0319169055600b90915281205561033833610fbd565b600a54604051632142170760e11b8152306004820152336024820152604481018390526001600160a01b03909116906342842e0e90606401600060405180830381600087803b15801561038a57600080fd5b505af115801561039e573d6000803e3d6000fd5b5050336000908152600260205260408120549092506103c0915060019061154b565b60008381526004602052604090205490915080821461040a573360009081526003602090815260408083208584528252808320548484528184208190558352600490915290208190555b60008381526004602090815260408083208390553380845260038352818420868552835281842084905583526002909152812080546001929061044e90849061154b565b909155505060405183815233907f45ec0244cf2e0c90546c4aff992398e1505d5ce31338249d7f29066169cfdcea906020015b60405180910390a2505050565b600061049933610fbd565b60008060009054906101000a90046001600160a01b03166001600160a01b03166308b0308a6040518163ffffffff1660e01b8152600401602060405180830381865afa1580156104ed573d6000803e3d6000fd5b505050506040513d601f19601f82011682018060405250810190610511919061156e565b905060008060009054906101000a90046001600160a01b03166001600160a01b03166315b9ba5d6040518163ffffffff1660e01b8152600401602060405180830381865afa158015610567573d6000803e3d6000fd5b505050506040513d601f19601f8201168201806040525081019061058b919061156e565b604051635487c57760e01b81524260048201529091506000906001600160a01b03841690635487c57790602401602060405180830381865afa1580156105d5573d6000803e3d6000fd5b505050506040513d601f19601f820116820180604052508101906105f9919061158b565b3360009081526005602052604081205491925081900361061e57600094505050505090565b6000805b6032811015610a015761063660018561154b565b3360009081526007602052604090205414610a0157336000908152600560209081526040808320600690925282205481548110610675576106756115a4565b600091825260208083206040805180820182526002909402909101805484526001015491830182905251635487c57760e01b81529193506001600160a01b038a1691635487c577916106cd9160040190815260200190565b602060405180830381865afa1580156106ea573d6000803e3d6000fd5b505050506040513d601f19601f8201168201806040525081019061070e919061158b565b905061071b60018661154b565b33600090815260066020526040902054036108005760098181548110610743576107436115a4565b60009182526020909120015482516040516373c4680560e01b8152600481018490526001600160a01b038a16906373c4680590602401602060405180830381865afa158015610796573d6000803e3d6000fd5b505050506040513d601f19601f820116820180604052508101906107ba919061158b565b6107c491906115ba565b6107ce91906115d1565b6107d890856115f3565b3360009081526007602052604081208054929650906107f683611606565b91905055506109ed565b33600090815260056020908152604080832060069092528220546108259060016115f3565b81548110610835576108356115a4565b600091825260208083206040805180820182526002909402909101805484526001015491830182905251635487c57760e01b81529193506001600160a01b038c1691635487c5779161088d9160040190815260200190565b602060405180830381865afa1580156108aa573d6000803e3d6000fd5b505050506040513d601f19601f820116820180604052508101906108ce919061158b565b90508281036108fc573360009081526006602052604081208054916108f283611606565b91905055506109ea565b6009838154811061090f5761090f6115a4565b60009182526020909120015484516040516373c4680560e01b8152600481018490526001600160a01b038c16906373c4680590602401602060405180830381865afa158015610962573d6000803e3d6000fd5b505050506040513d601f19601f82011682018060405250810190610986919061158b565b61099091906115ba565b61099a91906115d1565b6109a490876115f3565b33600090815260076020526040902082905595506109c38160016115f3565b81036109ea573360009081526006602052604081208054916109e483611606565b91905055505b50505b5050806109f981611606565b915050610622565b5095945050505050565b60008060009054906101000a90046001600160a01b03166001600160a01b03166308b0308a6040518163ffffffff1660e01b8152600401602060405180830381865afa158015610a5f573d6000803e3d6000fd5b505050506040513d601f19601f82011682018060405250810190610a83919061156e565b604051635487c57760e01b81524260048201526001600160a01b039190911690635487c57790602401602060405180830381865afa158015610ac9573d6000803e3d6000fd5b505050506040513d601f19601f82011682018060405250810190610aed919061158b565b905060005b6080811015610b4c576009548211610b4c57600854600980546001810182556000919091527f6e1540171b6c0c960b71a7020d9f60077f6af931a8bbf590da0223dacf75c7af015580610b4481611606565b915050610af2565b5050565b60005460408051630458184560e11b8152905142926001600160a01b0316916308b0308a9160048083019260209291908290030181865afa158015610b99573d6000803e3d6000fd5b505050506040513d601f19601f82011682018060405250810190610bbd919061156e565b60405163cbf9fe5f60e01b81526001600160a01b038481166004830152919091169063cbf9fe5f906024016040805180830381865afa158015610c04573d6000803e3d6000fd5b505050506040513d601f19601f82011682018060405250810190610c28919061168f565b602001511015610c3b57610c3b81610fbd565b50565b600081815260016020526040812080546001600160a01b03191633179055610c6582610e40565b6000838152600b60209081526040808320849055338352600c909152812080549293508392909190610c989084906115f3565b9250508190555080600d6000828254610cb191906115f3565b90915550610cc0905033610fbd565b600a54604051632142170760e11b8152336004820152306024820152604481018490526001600160a01b03909116906342842e0e90606401600060405180830381600087803b158015610d1257600080fd5b505af1158015610d26573d6000803e3d6000fd5b505033600081815260026020818152604080842080546003845282862081875284528286208b90558a865260048452918520829055948452919052825490945060019350610d759084906115f3565b909155505060405183815233907fa76194b11cf7b940f18e866ed3382a795bb09ca684db1b957d595417f63151f890602001610481565b6001600160a01b0381166000908152600c60205260408120548103610dd357506000919050565b6001600160a01b0382166000908152600c6020908152604080832054600590925290912080546127109190610e0a9060019061154b565b81548110610e1a57610e1a6115a4565b906000526020600020906002020160000154610e3691906115ba565b61023391906115d1565b600a546040516319ba7e5360e31b81526004810183905260009182916001600160a01b039091169063cdd3f29890602401600060405180830381865afa158015610e8e573d6000803e3d6000fd5b505050506040513d6000823e601f3d908101601f19168201604052610eb691908101906116de565b905060008160800151826000015151610ecf91906115ba565b90506000610f026040518060400160405280600d81526020016c1b999d1cd05c1c1c985a5cd85b609a1b815250836113a1565b610f30604051806040016040528060088152602001676c702e707269636560c01b81525084608001516113a1565b610f646040518060400160405280600e81526020016d1b1c0b9d1bdad95b905b5bdd5b9d60921b81525084602001516113a1565b610f9b6040518060400160405280601081526020016f0d8e05cdccce892c8e65cd8cadccee8d60831b8152508460000151516113a1565b8260200151821115610fb257506020820151610fb5565b50805b949350505050565b60008060009054906101000a90046001600160a01b03166001600160a01b03166308b0308a6040518163ffffffff1660e01b8152600401602060405180830381865afa158015611011573d6000803e3d6000fd5b505050506040513d601f19601f82011682018060405250810190611035919061156e565b6040516370a0823160e01b81526001600160a01b0384811660048301529192506000918316906370a0823190602401602060405180830381865afa158015611081573d6000803e3d6000fd5b505050506040513d601f19601f820116820180604052508101906110a5919061158b565b90506000826001600160a01b03166318160ddd6040518163ffffffff1660e01b81526004016020604051808303816000875af11580156110e9573d6000803e3d6000fd5b505050506040513d601f19601f8201168201806040525081019061110d919061158b565b905060008160000361112f5750336000908152600c60205260409020546111a5565b336000908152600c6020526040902054600d546111a29190612710908590611159886113886115ba565b61116391906115ba565b61116d91906115d1565b336000908152600c6020526040902054611189906113886115ba565b61119391906115f3565b61119d91906115d1565b6113e6565b90505b6112096040518060400160405280601881526020017f5f757365724c5056616c75655b6d73672e73656e6465725d0000000000000000815250600c6000336001600160a01b03166001600160a01b03168152602001908152602001600020546113a1565b611234604051806040016040528060098152602001681b995dd05b5bdd5b9d60ba1b815250826113a1565b604080518082019091526000808252602082015233600090815260056020526040902054156112ba57336000908152600560205260409020805461127a9060019061154b565b8154811061128a5761128a6115a4565b90600052602060002090600202016040518060400160405290816000820154815260200160018201548152505090505b6000604051806040016040528084815260200142815250905061130a604051806040016040528060118152602001706f6c64576f726b696e6742616c616e636560781b81525083600001516113a1565b611341604051806040016040528060118152602001706e6577576f726b696e6742616c616e636560781b81525082600001516113a1565b8151815160085461135291906115f3565b61135c919061154b565b600855611367610a0b565b3360009081526005602090815260408220805460018181018355918452928290208451600290940201928355920151910155505050505050565b610b4c82826040516024016113b79291906117df565b60408051601f198184030181529190526020810180516001600160e01b0316632d839cb360e21b1790526113fe565b60008183106113f557816113f7565b825b9392505050565b80516a636f6e736f6c652e6c6f67602083016000808483855afa5050505050565b6001600160a01b0381168114610c3b57600080fd5b6000806040838503121561144757600080fd5b82356114528161141f565b946020939093013593505050565b60008060008060006080868803121561147857600080fd5b85356114838161141f565b945060208601356114938161141f565b935060408601359250606086013567ffffffffffffffff808211156114b757600080fd5b818801915088601f8301126114cb57600080fd5b8135818111156114da57600080fd5b8960208285010111156114ec57600080fd5b9699959850939650602001949392505050565b60006020828403121561151157600080fd5b5035919050565b60006020828403121561152a57600080fd5b81356113f78161141f565b634e487b7160e01b600052601160045260246000fd5b8181038181111561023357610233611535565b80516115698161141f565b919050565b60006020828403121561158057600080fd5b81516113f78161141f565b60006020828403121561159d57600080fd5b5051919050565b634e487b7160e01b600052603260045260246000fd5b808202811582820484141761023357610233611535565b6000826115ee57634e487b7160e01b600052601260045260246000fd5b500490565b8082018082111561023357610233611535565b60006001820161161857611618611535565b5060010190565b634e487b7160e01b600052604160045260246000fd5b60405160a0810167ffffffffffffffff811182821017156116585761165861161f565b60405290565b604051601f8201601f1916810167ffffffffffffffff811182821017156116875761168761161f565b604052919050565b6000604082840312156116a157600080fd5b6040516040810181811067ffffffffffffffff821117156116c4576116c461161f565b604052825181526020928301519281019290925250919050565b600060208083850312156116f157600080fd5b825167ffffffffffffffff8082111561170957600080fd5b9084019060a0828703121561171d57600080fd5b611725611635565b82518281111561173457600080fd5b8301601f8101881361174557600080fd5b8051838111156117575761175761161f565b8060051b935061176886850161165e565b818152938201860193868101908a86111561178257600080fd5b928701925b858410156117a057835182529287019290870190611787565b845250505082840151848201526117b96040840161155e565b604082015260608301516060820152608083015160808201528094505050505092915050565b604081526000835180604084015260005b8181101561180d57602081870181015160608684010152016117f0565b506000606082850101526060601f19601f830116840101915050826020830152939250505056fea26469706673582212205a9acfc5f826dc5d0f9d3e6055163a20c028fed00d54f1e7386637d32f26dff864736f6c63430008110033",
  "linkReferences": {},
  "deployedLinkReferences": {}
}