{
  "_format": "hh-sol-artifact-1",
  "contractName": "TradingPool",
  "sourceName": "contracts/protocol/Swap/TradingPool.sol",
  "abi": [
    {
      "inputs": [
        {
          "internalType": "contract IAddressesProvider",
          "name": "addressProvider",
          "type": "address"
        },
        {
          "internalType": "address",
          "name": "owner",
          "type": "address"
        },
        {
          "internalType": "contract IERC20",
          "name": "token",
          "type": "address"
        },
        {
          "internalType": "address",
          "name": "nft",
          "type": "address"
        },
        {
          "internalType": "uint256",
          "name": "defaultSwapFee",
          "type": "uint256"
        },
        {
          "internalType": "string",
          "name": "name",
          "type": "string"
        },
        {
          "internalType": "string",
          "name": "symbol",
          "type": "string"
        }
      ],
      "stateMutability": "nonpayable",
      "type": "constructor"
    },
    {
      "anonymous": false,
      "inputs": [
        {
          "indexed": true,
          "internalType": "address",
          "name": "owner",
          "type": "address"
        },
        {
          "indexed": true,
          "internalType": "address",
          "name": "approved",
          "type": "address"
        },
        {
          "indexed": true,
          "internalType": "uint256",
          "name": "tokenId",
          "type": "uint256"
        }
      ],
      "name": "Approval",
      "type": "event"
    },
    {
      "anonymous": false,
      "inputs": [
        {
          "indexed": true,
          "internalType": "address",
          "name": "owner",
          "type": "address"
        },
        {
          "indexed": true,
          "internalType": "address",
          "name": "operator",
          "type": "address"
        },
        {
          "indexed": false,
          "internalType": "bool",
          "name": "approved",
          "type": "bool"
        }
      ],
      "name": "ApprovalForAll",
      "type": "event"
    },
    {
      "anonymous": false,
      "inputs": [
        {
          "indexed": true,
          "internalType": "address",
          "name": "previousOwner",
          "type": "address"
        },
        {
          "indexed": true,
          "internalType": "address",
          "name": "newOwner",
          "type": "address"
        }
      ],
      "name": "OwnershipTransferred",
      "type": "event"
    },
    {
      "anonymous": false,
      "inputs": [
        {
          "indexed": true,
          "internalType": "address",
          "name": "from",
          "type": "address"
        },
        {
          "indexed": true,
          "internalType": "address",
          "name": "to",
          "type": "address"
        },
        {
          "indexed": true,
          "internalType": "uint256",
          "name": "tokenId",
          "type": "uint256"
        }
      ],
      "name": "Transfer",
      "type": "event"
    },
    {
      "inputs": [
        {
          "internalType": "uint256",
          "name": "tokenAmount",
          "type": "uint256"
        },
        {
          "internalType": "uint256[]",
          "name": "nftIds",
          "type": "uint256[]"
        },
        {
          "internalType": "address",
          "name": "curve",
          "type": "address"
        },
        {
          "internalType": "uint256",
          "name": "delta",
          "type": "uint256"
        },
        {
          "internalType": "uint256",
          "name": "initialPrice",
          "type": "uint256"
        }
      ],
      "name": "addLiquidity",
      "outputs": [],
      "stateMutability": "nonpayable",
      "type": "function"
    },
    {
      "inputs": [
        {
          "internalType": "address",
          "name": "to",
          "type": "address"
        },
        {
          "internalType": "uint256",
          "name": "tokenId",
          "type": "uint256"
        }
      ],
      "name": "approve",
      "outputs": [],
      "stateMutability": "nonpayable",
      "type": "function"
    },
    {
      "inputs": [
        {
          "internalType": "address",
          "name": "owner",
          "type": "address"
        }
      ],
      "name": "balanceOf",
      "outputs": [
        {
          "internalType": "uint256",
          "name": "",
          "type": "uint256"
        }
      ],
      "stateMutability": "view",
      "type": "function"
    },
    {
      "inputs": [
        {
          "internalType": "uint256[]",
          "name": "nftIds",
          "type": "uint256[]"
        }
      ],
      "name": "buy",
      "outputs": [
        {
          "internalType": "uint256",
          "name": "",
          "type": "uint256"
        }
      ],
      "stateMutability": "nonpayable",
      "type": "function"
    },
    {
      "inputs": [
        {
          "internalType": "uint256",
          "name": "tokenId",
          "type": "uint256"
        }
      ],
      "name": "getApproved",
      "outputs": [
        {
          "internalType": "address",
          "name": "",
          "type": "address"
        }
      ],
      "stateMutability": "view",
      "type": "function"
    },
    {
      "inputs": [
        {
          "internalType": "uint256",
          "name": "lpId",
          "type": "uint256"
        }
      ],
      "name": "getLP",
      "outputs": [
        {
          "components": [
            {
              "internalType": "uint256",
              "name": "tokenAmount",
              "type": "uint256"
            },
            {
              "internalType": "uint256[]",
              "name": "nftIds",
              "type": "uint256[]"
            },
            {
              "internalType": "address",
              "name": "curve",
              "type": "address"
            },
            {
              "internalType": "uint256",
              "name": "delta",
              "type": "uint256"
            },
            {
              "internalType": "uint256",
              "name": "price",
              "type": "uint256"
            }
          ],
          "internalType": "struct DataTypes.LiquidityPair",
          "name": "",
          "type": "tuple"
        }
      ],
      "stateMutability": "view",
      "type": "function"
    },
    {
      "inputs": [],
      "name": "getNFT",
      "outputs": [
        {
          "internalType": "address",
          "name": "",
          "type": "address"
        }
      ],
      "stateMutability": "view",
      "type": "function"
    },
    {
      "inputs": [],
      "name": "getSwapFee",
      "outputs": [
        {
          "internalType": "uint256",
          "name": "",
          "type": "uint256"
        }
      ],
      "stateMutability": "view",
      "type": "function"
    },
    {
      "inputs": [],
      "name": "getToken",
      "outputs": [
        {
          "internalType": "address",
          "name": "",
          "type": "address"
        }
      ],
      "stateMutability": "view",
      "type": "function"
    },
    {
      "inputs": [
        {
          "internalType": "address",
          "name": "owner",
          "type": "address"
        },
        {
          "internalType": "address",
          "name": "operator",
          "type": "address"
        }
      ],
      "name": "isApprovedForAll",
      "outputs": [
        {
          "internalType": "bool",
          "name": "",
          "type": "bool"
        }
      ],
      "stateMutability": "view",
      "type": "function"
    },
    {
      "inputs": [],
      "name": "name",
      "outputs": [
        {
          "internalType": "string",
          "name": "",
          "type": "string"
        }
      ],
      "stateMutability": "view",
      "type": "function"
    },
    {
      "inputs": [
        {
          "internalType": "address",
          "name": "",
          "type": "address"
        },
        {
          "internalType": "address",
          "name": "",
          "type": "address"
        },
        {
          "internalType": "uint256",
          "name": "",
          "type": "uint256"
        },
        {
          "internalType": "bytes",
          "name": "",
          "type": "bytes"
        }
      ],
      "name": "onERC721Received",
      "outputs": [
        {
          "internalType": "bytes4",
          "name": "",
          "type": "bytes4"
        }
      ],
      "stateMutability": "nonpayable",
      "type": "function"
    },
    {
      "inputs": [],
      "name": "owner",
      "outputs": [
        {
          "internalType": "address",
          "name": "",
          "type": "address"
        }
      ],
      "stateMutability": "view",
      "type": "function"
    },
    {
      "inputs": [
        {
          "internalType": "uint256",
          "name": "tokenId",
          "type": "uint256"
        }
      ],
      "name": "ownerOf",
      "outputs": [
        {
          "internalType": "address",
          "name": "",
          "type": "address"
        }
      ],
      "stateMutability": "view",
      "type": "function"
    },
    {
      "inputs": [
        {
          "internalType": "uint256",
          "name": "lpId",
          "type": "uint256"
        }
      ],
      "name": "removeLiquidity",
      "outputs": [],
      "stateMutability": "nonpayable",
      "type": "function"
    },
    {
      "inputs": [],
      "name": "renounceOwnership",
      "outputs": [],
      "stateMutability": "nonpayable",
      "type": "function"
    },
    {
      "inputs": [
        {
          "internalType": "address",
          "name": "from",
          "type": "address"
        },
        {
          "internalType": "address",
          "name": "to",
          "type": "address"
        },
        {
          "internalType": "uint256",
          "name": "tokenId",
          "type": "uint256"
        }
      ],
      "name": "safeTransferFrom",
      "outputs": [],
      "stateMutability": "nonpayable",
      "type": "function"
    },
    {
      "inputs": [
        {
          "internalType": "address",
          "name": "from",
          "type": "address"
        },
        {
          "internalType": "address",
          "name": "to",
          "type": "address"
        },
        {
          "internalType": "uint256",
          "name": "tokenId",
          "type": "uint256"
        },
        {
          "internalType": "bytes",
          "name": "data",
          "type": "bytes"
        }
      ],
      "name": "safeTransferFrom",
      "outputs": [],
      "stateMutability": "nonpayable",
      "type": "function"
    },
    {
      "inputs": [
        {
          "internalType": "uint256[]",
          "name": "nftIds",
          "type": "uint256[]"
        },
        {
          "internalType": "uint256[]",
          "name": "liquidityPairs",
          "type": "uint256[]"
        }
      ],
      "name": "sell",
      "outputs": [
        {
          "internalType": "uint256",
          "name": "",
          "type": "uint256"
        }
      ],
      "stateMutability": "nonpayable",
      "type": "function"
    },
    {
      "inputs": [
        {
          "internalType": "address",
          "name": "operator",
          "type": "address"
        },
        {
          "internalType": "bool",
          "name": "approved",
          "type": "bool"
        }
      ],
      "name": "setApprovalForAll",
      "outputs": [],
      "stateMutability": "nonpayable",
      "type": "function"
    },
    {
      "inputs": [
        {
          "internalType": "uint256",
          "name": "newSwapFee",
          "type": "uint256"
        }
      ],
      "name": "setSwapFee",
      "outputs": [],
      "stateMutability": "nonpayable",
      "type": "function"
    },
    {
      "inputs": [
        {
          "internalType": "bytes4",
          "name": "interfaceId",
          "type": "bytes4"
        }
      ],
      "name": "supportsInterface",
      "outputs": [
        {
          "internalType": "bool",
          "name": "",
          "type": "bool"
        }
      ],
      "stateMutability": "view",
      "type": "function"
    },
    {
      "inputs": [],
      "name": "symbol",
      "outputs": [
        {
          "internalType": "string",
          "name": "",
          "type": "string"
        }
      ],
      "stateMutability": "view",
      "type": "function"
    },
    {
      "inputs": [
        {
          "internalType": "uint256",
          "name": "index",
          "type": "uint256"
        }
      ],
      "name": "tokenByIndex",
      "outputs": [
        {
          "internalType": "uint256",
          "name": "",
          "type": "uint256"
        }
      ],
      "stateMutability": "view",
      "type": "function"
    },
    {
      "inputs": [
        {
          "internalType": "address",
          "name": "owner",
          "type": "address"
        },
        {
          "internalType": "uint256",
          "name": "index",
          "type": "uint256"
        }
      ],
      "name": "tokenOfOwnerByIndex",
      "outputs": [
        {
          "internalType": "uint256",
          "name": "",
          "type": "uint256"
        }
      ],
      "stateMutability": "view",
      "type": "function"
    },
    {
      "inputs": [
        {
          "internalType": "uint256",
          "name": "tokenId",
          "type": "uint256"
        }
      ],
      "name": "tokenURI",
      "outputs": [
        {
          "internalType": "string",
          "name": "",
          "type": "string"
        }
      ],
      "stateMutability": "view",
      "type": "function"
    },
    {
      "inputs": [],
      "name": "totalSupply",
      "outputs": [
        {
          "internalType": "uint256",
          "name": "",
          "type": "uint256"
        }
      ],
      "stateMutability": "view",
      "type": "function"
    },
    {
      "inputs": [
        {
          "internalType": "address",
          "name": "from",
          "type": "address"
        },
        {
          "internalType": "address",
          "name": "to",
          "type": "address"
        },
        {
          "internalType": "uint256",
          "name": "tokenId",
          "type": "uint256"
        }
      ],
      "name": "transferFrom",
      "outputs": [],
      "stateMutability": "nonpayable",
      "type": "function"
    },
    {
      "inputs": [
        {
          "internalType": "address",
          "name": "newOwner",
          "type": "address"
        }
      ],
      "name": "transferOwnership",
      "outputs": [],
      "stateMutability": "nonpayable",
      "type": "function"
    }
  ],
  "bytecode": "0x60806040523480156200001157600080fd5b5060405162003309380380620033098339810160408190526200003491620002dd565b8181600062000044838262000436565b50600162000053828262000436565b505050620000706200006a620001a960201b60201c565b620001ad565b866001600160a01b031663ca1470ea6040518163ffffffff1660e01b8152600401602060405180830381865afa158015620000af573d6000803e3d6000fd5b505050506040513d601f19601f82011682018060405250810190620000d5919062000502565b6001600160a01b0316336001600160a01b0316146200014f5760405162461bcd60e51b815260206004820152602c60248201527f54726164696e6720506f6f6c206d75737420626520637265617465642074687260448201526b6f75676820466163746f727960a01b606482015260840160405180910390fd5b600b80546001600160a01b03808a166001600160a01b031992831617909255600c8054888416908316179055600d805492871692909116919091179055600e8390556200019c86620001ad565b5050505050505062000529565b3390565b600a80546001600160a01b038381166001600160a01b0319831681179093556040519116919082907f8be0079c531659141344cd1fd0a4f28419497f9722a3daafe3b4186f6b6457e090600090a35050565b6001600160a01b03811681146200021557600080fd5b50565b634e487b7160e01b600052604160045260246000fd5b600082601f8301126200024057600080fd5b81516001600160401b03808211156200025d576200025d62000218565b604051601f8301601f19908116603f0116810190828211818310171562000288576200028862000218565b81604052838152602092508683858801011115620002a557600080fd5b600091505b83821015620002c95785820183015181830184015290820190620002aa565b600093810190920192909252949350505050565b600080600080600080600060e0888a031215620002f957600080fd5b87516200030681620001ff565b60208901519097506200031981620001ff565b60408901519096506200032c81620001ff565b60608901519095506200033f81620001ff565b608089015160a08a015191955093506001600160401b03808211156200036457600080fd5b620003728b838c016200022e565b935060c08a01519150808211156200038957600080fd5b50620003988a828b016200022e565b91505092959891949750929550565b600181811c90821680620003bc57607f821691505b602082108103620003dd57634e487b7160e01b600052602260045260246000fd5b50919050565b601f8211156200043157600081815260208120601f850160051c810160208610156200040c5750805b601f850160051c820191505b818110156200042d5782815560010162000418565b5050505b505050565b81516001600160401b0381111562000452576200045262000218565b6200046a81620004638454620003a7565b84620003e3565b602080601f831160018114620004a25760008415620004895750858301515b600019600386901b1c1916600185901b1785556200042d565b600085815260208120601f198616915b82811015620004d357888601518255948401946001909101908401620004b2565b5085821015620004f25787850151600019600388901b60f8161c191681555b5050505050600190811b01905550565b6000602082840312156200051557600080fd5b81516200052281620001ff565b9392505050565b612dd080620005396000396000f3fe608060405234801561001057600080fd5b50600436106101cf5760003560e01c806370a0823111610104578063b88d4fde116100a2578063d07fd39311610071578063d07fd393146103e9578063d4cadf68146103fc578063e985e9c514610404578063f2fde38b1461044057600080fd5b8063b88d4fde14610390578063c243c72b146103a3578063c87b56dd146103b6578063cdd3f298146103c957600080fd5b80638da5cb5b116100de5780638da5cb5b1461035157806395d89b41146103625780639c8f9f231461036a578063a22cb4651461037d57600080fd5b806370a0823114610325578063715018a61461033857806388a6360e1461034057600080fd5b806323b872dd1161017157806342842e0e1161014b57806342842e0e146102d95780634f6ccce7146102ec5780636352211e146102ff57806368660cd41461031257600080fd5b806323b872dd146102a05780632f745c59146102b357806334e19907146102c657600080fd5b8063095ea7b3116101ad578063095ea7b31461023c578063150b7a021461025157806318160ddd1461027d57806321df0da71461028f57600080fd5b806301ffc9a7146101d457806306fdde03146101fc578063081812fc14610211575b600080fd5b6101e76101e2366004612611565b610453565b60405190151581526020015b60405180910390f35b610204610464565b6040516101f3919061267e565b61022461021f366004612691565b6104f6565b6040516001600160a01b0390911681526020016101f3565b61024f61024a3660046126c6565b61051d565b005b61026461025f366004612737565b610637565b6040516001600160e01b031990911681526020016101f3565b6008545b6040519081526020016101f3565b600c546001600160a01b0316610224565b61024f6102ae3660046127f7565b610648565b6102816102c13660046126c6565b610679565b61024f6102d4366004612691565b61070f565b61024f6102e73660046127f7565b61071c565b6102816102fa366004612691565b610737565b61022461030d366004612691565b6107ca565b61024f6103203660046128a8565b61082a565b610281610333366004612911565b6109fe565b61024f610a84565b600d546001600160a01b0316610224565b600a546001600160a01b0316610224565b610204610a98565b61024f610378366004612691565b610aa7565b61024f61038b36600461293a565b610be5565b61024f61039e366004612737565b610bf4565b6102816103b1366004612971565b610c2c565b6102046103c4366004612691565b610fde565b6103dc6103d7366004612691565b611052565b6040516101f391906129a6565b6102816103f7366004612a2c565b6110fd565b600e54610281565b6101e7610412366004612a90565b6001600160a01b03918216600090815260056020908152604080832093909416825291909152205460ff1690565b61024f61044e366004612911565b6114b6565b600061045e8261152f565b92915050565b60606000805461047390612ac3565b80601f016020809104026020016040519081016040528092919081815260200182805461049f90612ac3565b80156104ec5780601f106104c1576101008083540402835291602001916104ec565b820191906000526020600020905b8154815290600101906020018083116104cf57829003601f168201915b5050505050905090565b600061050182611554565b506000908152600460205260409020546001600160a01b031690565b6000610528826107ca565b9050806001600160a01b0316836001600160a01b03160361059a5760405162461bcd60e51b815260206004820152602160248201527f4552433732313a20617070726f76616c20746f2063757272656e74206f776e656044820152603960f91b60648201526084015b60405180910390fd5b336001600160a01b03821614806105b657506105b68133610412565b6106285760405162461bcd60e51b815260206004820152603d60248201527f4552433732313a20617070726f76652063616c6c6572206973206e6f7420746f60448201527f6b656e206f776e6572206f7220617070726f76656420666f7220616c6c0000006064820152608401610591565b61063283836115b3565b505050565b630a85bd0160e11b5b949350505050565b6106523382611621565b61066e5760405162461bcd60e51b815260040161059190612afd565b61063283838361169f565b6000610684836109fe565b82106106e65760405162461bcd60e51b815260206004820152602b60248201527f455243373231456e756d657261626c653a206f776e657220696e646578206f7560448201526a74206f6620626f756e647360a81b6064820152608401610591565b506001600160a01b03919091166000908152600660209081526040808320938352929052205490565b610717611810565b600e55565b61063283838360405180602001604052806000815250610bf4565b600061074260085490565b82106107a55760405162461bcd60e51b815260206004820152602c60248201527f455243373231456e756d657261626c653a20676c6f62616c20696e646578206f60448201526b7574206f6620626f756e647360a01b6064820152608401610591565b600882815481106107b8576107b8612b4a565b90600052602060002001549050919050565b6000818152600260205260408120546001600160a01b03168061045e5760405162461bcd60e51b8152602060048201526018602482015277115490cdcc8c4e881a5b9d985b1a59081d1bdad95b88125160421b6044820152606401610591565b60005b845181101561092257600d5485516001600160a01b03909116906342842e0e903390309089908690811061086357610863612b4a565b60200260200101516040518463ffffffff1660e01b815260040161088993929190612b60565b600060405180830381600087803b1580156108a357600080fd5b505af11580156108b7573d6000803e3d6000fd5b505050506040518060400160405280601154815260200182815250601060008784815181106108e8576108e8612b4a565b602090810291909101810151825281810192909252604001600020825181559101516001909101558061091a81612b9a565b91505061082d565b50600c5461093b906001600160a01b031633308861186a565b6040805160a08101825286815260208082018781526001600160a01b0387168385015260608301869052608083018590526011546000908152600f83529390932082518155925180519293926109979260018501920190612545565b5060408201516002820180546001600160a01b0319166001600160a01b03909216919091179055606082015160038201556080909101516004909101556011546109e29033906118c2565b601180549060006109f283612b9a565b91905055505050505050565b60006001600160a01b038216610a685760405162461bcd60e51b815260206004820152602960248201527f4552433732313a2061646472657373207a65726f206973206e6f7420612076616044820152683634b21037bbb732b960b91b6064820152608401610591565b506001600160a01b031660009081526003602052604090205490565b610a8c611810565b610a9660006118dc565b565b60606001805461047390612ac3565b610ab08161192e565b60005b6000828152600f6020526040902060010154811015610b7757600d546000838152600f6020526040902060010180546001600160a01b03909216916342842e0e91309133919086908110610b0957610b09612b4a565b90600052602060002001546040518463ffffffff1660e01b8152600401610b3293929190612b60565b600060405180830381600087803b158015610b4c57600080fd5b505af1158015610b60573d6000803e3d6000fd5b505050508080610b6f90612b9a565b915050610ab3565b506000818152600f6020526040902054600c54610ba1916001600160a01b039091169030906119d1565b6000818152600f6020526040812081815590610bc06001830182612590565b506002810180546001600160a01b031916905560006003820181905560049091015550565b610bf0338383611a01565b5050565b610bfe3383611621565b610c1a5760405162461bcd60e51b815260040161059190612afd565b610c2684848484611acf565b50505050565b600080600080600080610c3d6125ae565b60005b8851811015610fb957601060008a8381518110610c5f57610c5f612b4a565b60200260200101518152602001908152602001600020600001549350601060008a8381518110610c9157610c91612b4a565b60200260200101518152602001908152602001600020600101549250600f60008581526020019081526020016000206040518060a00160405290816000820154815260200160018201805480602002602001604051908101604052809291908181526020018280548015610d2457602002820191906000526020600020905b815481526020019060010190808311610d10575b505050918352505060028201546001600160a01b0390811660208301526003830154604080840191909152600493840154606093840152848101516080860151938601519151635d8b487160e11b81529485019390935260248401529294509091169063bb1690e290604401602060405180830381865afa158015610dad573d6000803e3d6000fd5b505050506040513d601f19601f82011682018060405250810190610dd19190612bb3565b955061271086600e54612710610de79190612bcc565b610df19190612bdf565b610dfb9190612bf6565b6000858152600f60205260409020600481018890556001908101805492975091610e259190612c18565b81548110610e3557610e35612b4a565b9060005260206000200154600f60008681526020019081526020016000206001018481548110610e6757610e67612b4a565b9060005260206000200181905550600f6000858152602001908152602001600020600101805480610e9a57610e9a612c2b565b6001900381819060005260206000200160009055905584600f60008681526020019081526020016000206000016000828254610ed69190612bcc565b90915550610ee690508588612bcc565b9650601060008a8381518110610efe57610efe612b4a565b6020908102919091018101518252810191909152604001600090812081815560010155600d5489516001600160a01b03909116906342842e0e90309033908d9086908110610f4e57610f4e612b4a565b60200260200101516040518463ffffffff1660e01b8152600401610f7493929190612b60565b600060405180830381600087803b158015610f8e57600080fd5b505af1158015610fa2573d6000803e3d6000fd5b505050508080610fb190612b9a565b915050610c40565b50600c54610fd2906001600160a01b031633308961186a565b50939695505050505050565b6060610fe982611554565b600061100060408051602081019091526000815290565b90506000815111611020576040518060200160405280600081525061104b565b8061102a84611b02565b60405160200161103b929190612c41565b6040516020818303038152906040525b9392505050565b61105a6125ae565b6000828152600f6020908152604091829020825160a08101845281548152600182018054855181860281018601909652808652919492938581019392908301828280156110c657602002820191906000526020600020905b8154815260200190600101908083116110b2575b505050918352505060028201546001600160a01b031660208201526003820154604082015260049091015460609091015292915050565b600081518351146111675760405162461bcd60e51b815260206004820152602e60248201527f4e46547320616e64204c6971756964697479205061697273206d75737420686160448201526d0ecca40e6c2daca40d8cadccee8d60931b6064820152608401610591565b6000806000806111756125ae565b60005b885181101561149257600d5489516001600160a01b03909116906342842e0e90339030908d90869081106111ae576111ae612b4a565b60200260200101516040518463ffffffff1660e01b81526004016111d493929190612b60565b600060405180830381600087803b1580156111ee57600080fd5b505af1158015611202573d6000803e3d6000fd5b50505050601060008a838151811061121c5761121c612b4a565b60200260200101518152602001908152602001600020600001549350601060008a838151811061124e5761124e612b4a565b60200260200101518152602001908152602001600020600101549250600f60008581526020019081526020016000206040518060a001604052908160008201548152602001600182018054806020026020016040519081016040528092919081815260200182805480156112e157602002820191906000526020600020905b8154815260200190600101908083116112cd575b505050918352505060028201546001600160a01b03166020820152600382015460408201526004909101546060909101526080810151600e549193506127109161132b9083612c18565b6113359190612bdf565b61133f9190612bf6565b945061134b8587612bcc565b9550600f60008a838151811061136357611363612b4a565b6020026020010151815260200190815260200160002060010189828151811061138e5761138e612b4a565b602090810291909101810151825460018101845560009384528284200155858252600f90526040812080548792906113c7908490612c18565b9091555050604082810151608084015160608501519251633698f96560e11b8152600481019190915260248101929092526001600160a01b031690636d31f2ca90604401602060405180830381865afa158015611428573d6000803e3d6000fd5b505050506040513d601f19601f8201168201806040525081019061144c9190612bb3565b600f60008b848151811061146257611462612b4a565b6020026020010151815260200190815260200160002060040181905550808061148a90612b9a565b915050611178565b50600c546114aa906001600160a01b031630876119d1565b50929695505050505050565b6114be611810565b6001600160a01b0381166115235760405162461bcd60e51b815260206004820152602660248201527f4f776e61626c653a206e6577206f776e657220697320746865207a65726f206160448201526564647265737360d01b6064820152608401610591565b61152c816118dc565b50565b60006001600160e01b0319821663780e9d6360e01b148061045e575061045e82611b95565b6000818152600260205260409020546001600160a01b031661152c5760405162461bcd60e51b8152602060048201526018602482015277115490cdcc8c4e881a5b9d985b1a59081d1bdad95b88125160421b6044820152606401610591565b600081815260046020526040902080546001600160a01b0319166001600160a01b03841690811790915581906115e8826107ca565b6001600160a01b03167f8c5be1e5ebec7d5bd14f71427d1e84f3dd0314c0f7b2291e5b200ac8c7c3b92560405160405180910390a45050565b60008061162d836107ca565b9050806001600160a01b0316846001600160a01b0316148061167457506001600160a01b0380821660009081526005602090815260408083209388168352929052205460ff165b806106405750836001600160a01b031661168d846104f6565b6001600160a01b031614949350505050565b826001600160a01b03166116b2826107ca565b6001600160a01b0316146116d85760405162461bcd60e51b815260040161059190612c70565b6001600160a01b03821661173a5760405162461bcd60e51b8152602060048201526024808201527f4552433732313a207472616e7366657220746f20746865207a65726f206164646044820152637265737360e01b6064820152608401610591565b6117478383836001611be5565b826001600160a01b031661175a826107ca565b6001600160a01b0316146117805760405162461bcd60e51b815260040161059190612c70565b600081815260046020908152604080832080546001600160a01b03199081169091556001600160a01b0387811680865260038552838620805460001901905590871680865283862080546001019055868652600290945282852080549092168417909155905184937fddf252ad1be2c89b69c2b068fc378daa952ba7f163c4a11628f55a4df523b3ef91a4505050565b600a546001600160a01b03163314610a965760405162461bcd60e51b815260206004820181905260248201527f4f776e61626c653a2063616c6c6572206973206e6f7420746865206f776e65726044820152606401610591565b610c26846323b872dd60e01b85858560405160240161188b93929190612b60565b60408051601f198184030181529190526020810180516001600160e01b03166001600160e01b031990931692909217909152611bf1565b610bf0828260405180602001604052806000815250611cc3565b600a80546001600160a01b038381166001600160a01b0319831681179093556040519116919082907f8be0079c531659141344cd1fd0a4f28419497f9722a3daafe3b4186f6b6457e090600090a35050565b6000611939826107ca565b9050611949816000846001611be5565b611952826107ca565b600083815260046020908152604080832080546001600160a01b03199081169091556001600160a01b0385168085526003845282852080546000190190558785526002909352818420805490911690555192935084927fddf252ad1be2c89b69c2b068fc378daa952ba7f163c4a11628f55a4df523b3ef908390a45050565b6040516001600160a01b03831660248201526044810182905261063290849063a9059cbb60e01b9060640161188b565b816001600160a01b0316836001600160a01b031603611a625760405162461bcd60e51b815260206004820152601960248201527f4552433732313a20617070726f766520746f2063616c6c6572000000000000006044820152606401610591565b6001600160a01b03838116600081815260056020908152604080832094871680845294825291829020805460ff191686151590811790915591519182527f17307eab39ab6107e8899845ad3d59bd9653f200f220920489ca2b5937696c31910160405180910390a3505050565b611ada84848461169f565b611ae684848484611cf6565b610c265760405162461bcd60e51b815260040161059190612cb5565b60606000611b0f83611df4565b600101905060008167ffffffffffffffff811115611b2f57611b2f6126f0565b6040519080825280601f01601f191660200182016040528015611b59576020820181803683370190505b5090508181016020015b600019016f181899199a1a9b1b9c1cb0b131b232b360811b600a86061a8153600a8504945084611b6357509392505050565b60006001600160e01b031982166380ac58cd60e01b1480611bc657506001600160e01b03198216635b5e139f60e01b145b8061045e57506301ffc9a760e01b6001600160e01b031983161461045e565b610c2684848484611ecc565b6000611c46826040518060400160405280602081526020017f5361666545524332303a206c6f772d6c6576656c2063616c6c206661696c6564815250856001600160a01b031661200c9092919063ffffffff16565b8051909150156106325780806020019051810190611c649190612d07565b6106325760405162461bcd60e51b815260206004820152602a60248201527f5361666545524332303a204552433230206f7065726174696f6e20646964206e6044820152691bdd081cdd58d8d9595960b21b6064820152608401610591565b611ccd838361201b565b611cda6000848484611cf6565b6106325760405162461bcd60e51b815260040161059190612cb5565b60006001600160a01b0384163b15611dec57604051630a85bd0160e11b81526001600160a01b0385169063150b7a0290611d3a903390899088908890600401612d24565b6020604051808303816000875af1925050508015611d75575060408051601f3d908101601f19168201909252611d7291810190612d61565b60015b611dd2573d808015611da3576040519150601f19603f3d011682016040523d82523d6000602084013e611da8565b606091505b508051600003611dca5760405162461bcd60e51b815260040161059190612cb5565b805181602001fd5b6001600160e01b031916630a85bd0160e11b149050610640565b506001610640565b60008072184f03e93ff9f4daa797ed6e38ed64bf6a1f0160401b8310611e335772184f03e93ff9f4daa797ed6e38ed64bf6a1f0160401b830492506040015b6d04ee2d6d415b85acef81000000008310611e5f576d04ee2d6d415b85acef8100000000830492506020015b662386f26fc100008310611e7d57662386f26fc10000830492506010015b6305f5e1008310611e95576305f5e100830492506008015b6127108310611ea957612710830492506004015b60648310611ebb576064830492506002015b600a831061045e5760010192915050565b611ed8848484846121b4565b6001811115611f475760405162461bcd60e51b815260206004820152603560248201527f455243373231456e756d657261626c653a20636f6e7365637574697665207472604482015274185b9cd9995c9cc81b9bdd081cdd5c1c1bdc9d1959605a1b6064820152608401610591565b816001600160a01b038516611fa357611f9e81600880546000838152600960205260408120829055600182018355919091527ff3f7a9fe364faab93b216da50a3214154f22a0a2b415b23a84c8169e8b636ee30155565b611fc6565b836001600160a01b0316856001600160a01b031614611fc657611fc6858261223c565b6001600160a01b038416611fe257611fdd816122d9565b612005565b846001600160a01b0316846001600160a01b031614612005576120058482612388565b5050505050565b606061064084846000856123cc565b6001600160a01b0382166120715760405162461bcd60e51b815260206004820181905260248201527f4552433732313a206d696e7420746f20746865207a65726f20616464726573736044820152606401610591565b6000818152600260205260409020546001600160a01b0316156120d65760405162461bcd60e51b815260206004820152601c60248201527f4552433732313a20746f6b656e20616c7265616479206d696e746564000000006044820152606401610591565b6120e4600083836001611be5565b6000818152600260205260409020546001600160a01b0316156121495760405162461bcd60e51b815260206004820152601c60248201527f4552433732313a20746f6b656e20616c7265616479206d696e746564000000006044820152606401610591565b6001600160a01b038216600081815260036020908152604080832080546001019055848352600290915280822080546001600160a01b0319168417905551839291907fddf252ad1be2c89b69c2b068fc378daa952ba7f163c4a11628f55a4df523b3ef908290a45050565b6001811115610c26576001600160a01b038416156121fa576001600160a01b038416600090815260036020526040812080548392906121f4908490612c18565b90915550505b6001600160a01b03831615610c26576001600160a01b03831660009081526003602052604081208054839290612231908490612bcc565b909155505050505050565b60006001612249846109fe565b6122539190612c18565b6000838152600760205260409020549091508082146122a6576001600160a01b03841660009081526006602090815260408083208584528252808320548484528184208190558352600790915290208190555b5060009182526007602090815260408084208490556001600160a01b039094168352600681528383209183525290812055565b6008546000906122eb90600190612c18565b6000838152600960205260408120546008805493945090928490811061231357612313612b4a565b90600052602060002001549050806008838154811061233457612334612b4a565b600091825260208083209091019290925582815260099091526040808220849055858252812055600880548061236c5761236c612c2b565b6001900381819060005260206000200160009055905550505050565b6000612393836109fe565b6001600160a01b039093166000908152600660209081526040808320868452825280832085905593825260079052919091209190915550565b60608247101561242d5760405162461bcd60e51b815260206004820152602660248201527f416464726573733a20696e73756666696369656e742062616c616e636520666f6044820152651c8818d85b1b60d21b6064820152608401610591565b600080866001600160a01b031685876040516124499190612d7e565b60006040518083038185875af1925050503d8060008114612486576040519150601f19603f3d011682016040523d82523d6000602084013e61248b565b606091505b509150915061249c878383876124a7565b979650505050505050565b6060831561251657825160000361250f576001600160a01b0385163b61250f5760405162461bcd60e51b815260206004820152601d60248201527f416464726573733a2063616c6c20746f206e6f6e2d636f6e74726163740000006044820152606401610591565b5081610640565b610640838381511561252b5781518083602001fd5b8060405162461bcd60e51b8152600401610591919061267e565b828054828255906000526020600020908101928215612580579160200282015b82811115612580578251825591602001919060010190612565565b5061258c9291506125e6565b5090565b508054600082559060005260206000209081019061152c91906125e6565b6040518060a00160405280600081526020016060815260200160006001600160a01b0316815260200160008152602001600081525090565b5b8082111561258c57600081556001016125e7565b6001600160e01b03198116811461152c57600080fd5b60006020828403121561262357600080fd5b813561104b816125fb565b60005b83811015612649578181015183820152602001612631565b50506000910152565b6000815180845261266a81602086016020860161262e565b601f01601f19169290920160200192915050565b60208152600061104b6020830184612652565b6000602082840312156126a357600080fd5b5035919050565b80356001600160a01b03811681146126c157600080fd5b919050565b600080604083850312156126d957600080fd5b6126e2836126aa565b946020939093013593505050565b634e487b7160e01b600052604160045260246000fd5b604051601f8201601f1916810167ffffffffffffffff8111828210171561272f5761272f6126f0565b604052919050565b6000806000806080858703121561274d57600080fd5b612756856126aa565b935060206127658187016126aa565b935060408601359250606086013567ffffffffffffffff8082111561278957600080fd5b818801915088601f83011261279d57600080fd5b8135818111156127af576127af6126f0565b6127c1601f8201601f19168501612706565b915080825289848285010111156127d757600080fd5b808484018584013760008482840101525080935050505092959194509250565b60008060006060848603121561280c57600080fd5b612815846126aa565b9250612823602085016126aa565b9150604084013590509250925092565b600082601f83011261284457600080fd5b8135602067ffffffffffffffff821115612860576128606126f0565b8160051b61286f828201612706565b928352848101820192828101908785111561288957600080fd5b83870192505b8483101561249c5782358252918301919083019061288f565b600080600080600060a086880312156128c057600080fd5b85359450602086013567ffffffffffffffff8111156128de57600080fd5b6128ea88828901612833565b9450506128f9604087016126aa565b94979396509394606081013594506080013592915050565b60006020828403121561292357600080fd5b61104b826126aa565b801515811461152c57600080fd5b6000806040838503121561294d57600080fd5b612956836126aa565b915060208301356129668161292c565b809150509250929050565b60006020828403121561298357600080fd5b813567ffffffffffffffff81111561299a57600080fd5b61064084828501612833565b60208082528251828201528281015160a06040840152805160c0840181905260009291820190839060e08601905b808310156129f457835182529284019260019290920191908401906129d4565b5060408701516001600160a01b0381166060880152935060608701516080870152608087015160a08701528094505050505092915050565b60008060408385031215612a3f57600080fd5b823567ffffffffffffffff80821115612a5757600080fd5b612a6386838701612833565b93506020850135915080821115612a7957600080fd5b50612a8685828601612833565b9150509250929050565b60008060408385031215612aa357600080fd5b612aac836126aa565b9150612aba602084016126aa565b90509250929050565b600181811c90821680612ad757607f821691505b602082108103612af757634e487b7160e01b600052602260045260246000fd5b50919050565b6020808252602d908201527f4552433732313a2063616c6c6572206973206e6f7420746f6b656e206f776e6560408201526c1c881bdc88185c1c1c9bdd9959609a1b606082015260800190565b634e487b7160e01b600052603260045260246000fd5b6001600160a01b039384168152919092166020820152604081019190915260600190565b634e487b7160e01b600052601160045260246000fd5b600060018201612bac57612bac612b84565b5060010190565b600060208284031215612bc557600080fd5b5051919050565b8082018082111561045e5761045e612b84565b808202811582820484141761045e5761045e612b84565b600082612c1357634e487b7160e01b600052601260045260246000fd5b500490565b8181038181111561045e5761045e612b84565b634e487b7160e01b600052603160045260246000fd5b60008351612c5381846020880161262e565b835190830190612c6781836020880161262e565b01949350505050565b60208082526025908201527f4552433732313a207472616e736665722066726f6d20696e636f72726563742060408201526437bbb732b960d91b606082015260800190565b60208082526032908201527f4552433732313a207472616e7366657220746f206e6f6e20455243373231526560408201527131b2b4bb32b91034b6b83632b6b2b73a32b960711b606082015260800190565b600060208284031215612d1957600080fd5b815161104b8161292c565b6001600160a01b0385811682528416602082015260408101839052608060608201819052600090612d5790830184612652565b9695505050505050565b600060208284031215612d7357600080fd5b815161104b816125fb565b60008251612d9081846020870161262e565b919091019291505056fea26469706673582212201b6ccba40befa7ab83e4b1986a7a88afb04551f2b0b9d1c3860b0708fb8a9c1764736f6c63430008110033",
  "linkReferences": {},
  "deployedLinkReferences": {}
}