{
  "_format": "hh-sol-artifact-1",
  "contractName": "TradingGauge",
  "sourceName": "contracts/protocol/Gauges/TradingGauge.sol",
  "abi": [
    {
      "inputs": [
        {
          "internalType": "contract IAddressesProvider",
          "name": "addressProvider",
          "type": "address"
        },
        {
          "internalType": "address",
          "name": "lpToken_",
          "type": "address"
        }
      ],
      "stateMutability": "nonpayable",
      "type": "constructor"
    },
    {
      "anonymous": false,
      "inputs": [
        {
          "indexed": true,
          "internalType": "address",
          "name": "user",
          "type": "address"
        },
        {
          "indexed": false,
          "internalType": "uint256",
          "name": "lpId",
          "type": "uint256"
        }
      ],
      "name": "DepositLP",
      "type": "event"
    },
    {
      "anonymous": false,
      "inputs": [
        {
          "indexed": true,
          "internalType": "address",
          "name": "user",
          "type": "address"
        },
        {
          "indexed": false,
          "internalType": "uint256",
          "name": "lpId",
          "type": "uint256"
        }
      ],
      "name": "WithdrawLP",
      "type": "event"
    },
    {
      "inputs": [
        {
          "internalType": "address",
          "name": "user",
          "type": "address"
        }
      ],
      "name": "balanceOf",
      "outputs": [
        {
          "internalType": "uint256",
          "name": "",
          "type": "uint256"
        }
      ],
      "stateMutability": "view",
      "type": "function"
    },
    {
      "inputs": [
        {
          "internalType": "uint256",
          "name": "lpId",
          "type": "uint256"
        }
      ],
      "name": "calculateLpValue",
      "outputs": [
        {
          "internalType": "uint256",
          "name": "",
          "type": "uint256"
        }
      ],
      "stateMutability": "view",
      "type": "function"
    },
    {
      "inputs": [],
      "name": "claim",
      "outputs": [
        {
          "internalType": "uint256",
          "name": "",
          "type": "uint256"
        }
      ],
      "stateMutability": "nonpayable",
      "type": "function"
    },
    {
      "inputs": [
        {
          "internalType": "uint256",
          "name": "lpId",
          "type": "uint256"
        }
      ],
      "name": "deposit",
      "outputs": [],
      "stateMutability": "nonpayable",
      "type": "function"
    },
    {
      "inputs": [
        {
          "internalType": "address",
          "name": "user",
          "type": "address"
        }
      ],
      "name": "kick",
      "outputs": [],
      "stateMutability": "nonpayable",
      "type": "function"
    },
    {
      "inputs": [
        {
          "internalType": "address",
          "name": "user",
          "type": "address"
        },
        {
          "internalType": "uint256",
          "name": "index",
          "type": "uint256"
        }
      ],
      "name": "lpOfOwnerByIndex",
      "outputs": [
        {
          "internalType": "uint256",
          "name": "",
          "type": "uint256"
        }
      ],
      "stateMutability": "view",
      "type": "function"
    },
    {
      "inputs": [],
      "name": "lpToken",
      "outputs": [
        {
          "internalType": "address",
          "name": "",
          "type": "address"
        }
      ],
      "stateMutability": "view",
      "type": "function"
    },
    {
      "inputs": [
        {
          "internalType": "address",
          "name": "",
          "type": "address"
        },
        {
          "internalType": "address",
          "name": "",
          "type": "address"
        },
        {
          "internalType": "uint256",
          "name": "",
          "type": "uint256"
        },
        {
          "internalType": "bytes",
          "name": "",
          "type": "bytes"
        }
      ],
      "name": "onERC721Received",
      "outputs": [
        {
          "internalType": "bytes4",
          "name": "",
          "type": "bytes4"
        }
      ],
      "stateMutability": "pure",
      "type": "function"
    },
    {
      "inputs": [],
      "name": "totalLPValue",
      "outputs": [
        {
          "internalType": "uint256",
          "name": "",
          "type": "uint256"
        }
      ],
      "stateMutability": "view",
      "type": "function"
    },
    {
      "inputs": [],
      "name": "totalSupply",
      "outputs": [
        {
          "internalType": "uint256",
          "name": "",
          "type": "uint256"
        }
      ],
      "stateMutability": "view",
      "type": "function"
    },
    {
      "inputs": [
        {
          "internalType": "address",
          "name": "user",
          "type": "address"
        }
      ],
      "name": "userBoost",
      "outputs": [
        {
          "internalType": "uint256",
          "name": "",
          "type": "uint256"
        }
      ],
      "stateMutability": "view",
      "type": "function"
    },
    {
      "inputs": [
        {
          "internalType": "address",
          "name": "user",
          "type": "address"
        }
      ],
      "name": "userLPValue",
      "outputs": [
        {
          "internalType": "uint256",
          "name": "",
          "type": "uint256"
        }
      ],
      "stateMutability": "view",
      "type": "function"
    },
    {
      "inputs": [
        {
          "internalType": "uint256",
          "name": "lpId",
          "type": "uint256"
        }
      ],
      "name": "withdraw",
      "outputs": [],
      "stateMutability": "nonpayable",
      "type": "function"
    },
    {
      "inputs": [
        {
          "internalType": "uint256[]",
          "name": "lpIds",
          "type": "uint256[]"
        }
      ],
      "name": "withdrawBatch",
      "outputs": [],
      "stateMutability": "nonpayable",
      "type": "function"
    },
    {
      "inputs": [],
      "name": "writeTotalWeightHistory",
      "outputs": [],
      "stateMutability": "nonpayable",
      "type": "function"
    }
  ],
  "bytecode": "0x60806040523480156200001157600080fd5b5060405162001cfc38038062001cfc83398101604081905262000034916200010c565b600080546001600160a01b038085166001600160a01b0319928316178355600b80549185169190921617905560408051602081019091529081526200007e90600a90600162000087565b5050506200014b565b828054828255906000526020600020908101928215620000ca579160200282015b82811115620000ca578251829060ff16905591602001919060010190620000a8565b50620000d8929150620000dc565b5090565b5b80821115620000d85760008155600101620000dd565b6001600160a01b03811681146200010957600080fd5b50565b600080604083850312156200012057600080fd5b82516200012d81620000f3565b60208401519092506200014081620000f3565b809150509250929050565b611ba1806200015b6000396000f3fe608060405234801561001057600080fd5b50600436106100f55760003560e01c806378d2f984116100975780639c8d4156116100665780639c8d415614610226578063b6b55f2514610239578063d02a2bee1461024c578063fe03d2251461025f57600080fd5b806378d2f984146101da57806387da75ef146102035780638b3966231461020b57806396c551751461021357600080fd5b80632e1a7d4d116100d35780632e1a7d4d146101795780634e71d92d1461018e5780635fcbd2851461019657806370a08231146101b157600080fd5b8063019e06ab146100fa578063150b7a021461012057806318160ddd14610171575b600080fd5b61010d6101083660046116b6565b610272565b6040519081526020015b60405180910390f35b61015861012e3660046116e2565b7f150b7a023d4804d13e8c85fb27262cb750cf6ba9f9dd3bb30d90f482ceeb4b1f95945050505050565b6040516001600160e01b03199091168152602001610117565b60035461010d565b61018c610187366004611781565b61029d565b005b61010d61050c565b600b546040516001600160a01b039091168152602001610117565b61010d6101bf36600461179a565b6001600160a01b031660009081526002602052604090205490565b61010d6101e836600461179a565b6001600160a01b03166000908152600d602052604090205490565b61018c610d9b565b600e5461010d565b61018c61022136600461179a565b610ee1565b61018c61023436600461184b565b610fcf565b61018c610247366004611781565b61100f565b61010d61025a36600461179a565b611197565b61010d61026d366004611781565b61122b565b6001600160a01b03821660009081526004602090815260408083208484529091529020545b92915050565b6000818152600160205260409020546001600160a01b031633146103135760405162461bcd60e51b815260206004820152602360248201527f4e6f7420746865206f776e6572206f66206c697175696469747920706f73697460448201526234b7b760e91b606482015260840160405180910390fd5b6000818152600c6020908152604080832054338452600d90925282208054919290916103409084906118f7565b90915550506000818152600c6020526040812054600e8054919290916103679084906118f7565b9091555050600081815260016020908152604080832080546001600160a01b0319169055600c90915281205561039c3361130a565b600b54604051632142170760e11b8152306004820152336024820152604481018390526001600160a01b03909116906342842e0e90606401600060405180830381600087803b1580156103ee57600080fd5b505af1158015610402573d6000803e3d6000fd5b50503360009081526002602052604081205490925061042491506001906118f7565b60008381526005602052604090205490915080821461046e573360009081526004602090815260408083208584528252808320548484528184208190558352600590915290208190555b6000838152600560209081526040808320839055338084526004835281842086855283528184208490558352600290915281208054600192906104b29084906118f7565b925050819055506001600360008282546104cc91906118f7565b909155505060405183815233907f45ec0244cf2e0c90546c4aff992398e1505d5ce31338249d7f29066169cfdcea906020015b60405180910390a2505050565b60006105173361130a565b60008060009054906101000a90046001600160a01b03166001600160a01b03166308b0308a6040518163ffffffff1660e01b8152600401602060405180830381865afa15801561056b573d6000803e3d6000fd5b505050506040513d601f19601f8201168201806040525081019061058f919061191a565b905060008060009054906101000a90046001600160a01b03166001600160a01b03166358de9ade6040518163ffffffff1660e01b8152600401602060405180830381865afa1580156105e5573d6000803e3d6000fd5b505050506040513d601f19601f82011682018060405250810190610609919061191a565b3360009081526006602052604081205491925081900361062d576000935050505090565b3360009081526008602052604081205490036106ff5733600090815260066020526040812080546001600160a01b03861692635487c577929161067257610672611937565b9060005260206000209060020201600101546040518263ffffffff1660e01b81526004016106a291815260200190565b602060405180830381865afa1580156106bf573d6000803e3d6000fd5b505050506040513d601f19601f820116820180604052508101906106e3919061194d565b6106ee906001611966565b336000908152600860205260409020555b60008060005b6032811015610c8a573360009081526008602052604090819020549051635487c57760e01b81524260048201529092506001600160a01b03871690635487c57790602401602060405180830381865afa158015610766573d6000803e3d6000fd5b505050506040513d601f19601f8201168201806040525081019061078a919061194d565b821015610c8a573360009081526006602090815260408083206007909252822054815481106107bb576107bb611937565b90600052602060002090600202016040518060400160405290816000820154815260200160018201548152505090506001856107f791906118f7565b336000908152600760205260409020540361096e576108706040518060400160405280601d81526020017f436c61696d696e67206c61737420776f726b696e672062616c616e636500000081525060076000336001600160a01b03166001600160a01b0316815260200190815260200160002054611623565b6000600a848154811061088557610885611937565b9060005260206000200154111561094957600a83815481106108a9576108a9611937565b60009182526020909120015481516040516315a8752360e31b8152306004820152602481018690526001600160a01b0389169063ad43a918906044016020604051808303816000875af1158015610904573d6000803e3d6000fd5b505050506040513d601f19601f82011682018060405250810190610928919061194d565b6109329190611979565b61093c9190611990565b6109469085611966565b93505b336000908152600860205260408120805491610964836119b2565b9190505550610c77565b3360009081526006602090815260408083206007909252822054610993906001611966565b815481106109a3576109a3611937565b6000918252602091829020604080518082018252600293909302909101805483526001015482840152918401519151635487c57760e01b8152600481019290925291506001600160a01b03891690635487c57790602401602060405180830381865afa158015610a17573d6000803e3d6000fd5b505050506040513d601f19601f82011682018060405250810190610a3b919061194d565b6020820151604051635487c57760e01b815260048101919091526001600160a01b038a1690635487c57790602401602060405180830381865afa158015610a86573d6000803e3d6000fd5b505050506040513d601f19601f82011682018060405250810190610aaa919061194d565b03610ad457336000908152600760205260408120805491610aca836119b2565b9190505550610c75565b6000600a8581548110610ae957610ae9611937565b90600052602060002001541115610bad57600a8481548110610b0d57610b0d611937565b60009182526020909120015482516040516315a8752360e31b8152306004820152602481018790526001600160a01b038a169063ad43a918906044016020604051808303816000875af1158015610b68573d6000803e3d6000fd5b505050506040513d601f19601f82011682018060405250810190610b8c919061194d565b610b969190611979565b610ba09190611990565b610baa9086611966565b94505b336000908152600860205260408120805491610bc8836119b2565b90915550503360009081526008602090815260409182902054908301519151635487c57760e01b81526004810192909252906001600160a01b038a1690635487c57790602401602060405180830381865afa158015610c2b573d6000803e3d6000fd5b505050506040513d601f19601f82011682018060405250810190610c4f919061194d565b03610c7557336000908152600760205260408120805491610c6f836119b2565b91905055505b505b5080610c82816119b2565b915050610705565b50610cba6040518060400160405280600d81526020016c616d6f756e74546f436c61696d60981b81525083611623565b60008054906101000a90046001600160a01b03166001600160a01b03166315b9ba5d6040518163ffffffff1660e01b8152600401602060405180830381865afa158015610d0b573d6000803e3d6000fd5b505050506040513d601f19601f82011682018060405250810190610d2f919061191a565b604051631ec9887760e11b8152336004820152602481018490526001600160a01b039190911690633d9310ee90604401600060405180830381600087803b158015610d7957600080fd5b505af1158015610d8d573d6000803e3d6000fd5b509398975050505050505050565b60008060009054906101000a90046001600160a01b03166001600160a01b03166308b0308a6040518163ffffffff1660e01b8152600401602060405180830381865afa158015610def573d6000803e3d6000fd5b505050506040513d601f19601f82011682018060405250810190610e13919061191a565b604051635487c57760e01b81524260048201526001600160a01b039190911690635487c57790602401602060405180830381865afa158015610e59573d6000803e3d6000fd5b505050506040513d601f19601f82011682018060405250810190610e7d919061194d565b905060005b6080811015610edd57600a54821115610edd57600954600a80546001810182556000919091527fc65a7bb8d6351c1cf70c95a316cc6a92839c986682d98bc35f958f4883f9d2a8015580610ed5816119b2565b915050610e82565b5050565b60005460408051630458184560e11b8152905142926001600160a01b0316916308b0308a9160048083019260209291908290030181865afa158015610f2a573d6000803e3d6000fd5b505050506040513d601f19601f82011682018060405250810190610f4e919061191a565b60405163cbf9fe5f60e01b81526001600160a01b038481166004830152919091169063cbf9fe5f906024016040805180830381865afa158015610f95573d6000803e3d6000fd5b505050506040513d601f19601f82011682018060405250810190610fb991906119cb565b602001511015610fcc57610fcc8161130a565b50565b60005b8151811015610edd57610ffd828281518110610ff057610ff0611937565b602002602001015161029d565b80611007816119b2565b915050610fd2565b600081815260016020526040812080546001600160a01b031916331790556110368261122b565b6000838152600c60209081526040808320849055338352600d909152812080549293508392909190611069908490611966565b9250508190555080600e60008282546110829190611966565b9091555061109190503361130a565b600b54604051632142170760e11b8152336004820152306024820152604481018490526001600160a01b03909116906342842e0e90606401600060405180830381600087803b1580156110e357600080fd5b505af11580156110f7573d6000803e3d6000fd5b505033600081815260026020818152604080842080546004845282862081875284528286208b90558a865260058452918520829055948452919052825490945060019350611146908490611966565b925050819055506001600360008282546111609190611966565b909155505060405183815233907fa76194b11cf7b940f18e866ed3382a795bb09ca684db1b957d595417f63151f8906020016104ff565b6001600160a01b0381166000908152600d602052604081205481036111be57506000919050565b6001600160a01b0382166000908152600d60209081526040808320546006909252909120805461271091906111f5906001906118f7565b8154811061120557611205611937565b9060005260206000209060020201600001546112219190611979565b6102979190611990565b600b546040516319ba7e5360e31b81526004810183905260009182916001600160a01b039091169063cdd3f29890602401600060405180830381865afa158015611279573d6000803e3d6000fd5b505050506040513d6000823e601f3d908101601f191682016040526112a19190810190611a1a565b9050600081604001518260000151516112ba9190611979565b9050600082602001518211156112d5575060208201516112d8565b50805b611302604051806040016040528060088152602001674c502056414c554560c01b81525082611623565b949350505050565b60008060009054906101000a90046001600160a01b03166001600160a01b03166308b0308a6040518163ffffffff1660e01b8152600401602060405180830381865afa15801561135e573d6000803e3d6000fd5b505050506040513d601f19601f82011682018060405250810190611382919061191a565b6040516370a0823160e01b81526001600160a01b0384811660048301529192506000918316906370a0823190602401602060405180830381865afa1580156113ce573d6000803e3d6000fd5b505050506040513d601f19601f820116820180604052508101906113f2919061194d565b90506000826001600160a01b03166318160ddd6040518163ffffffff1660e01b81526004016020604051808303816000875af1158015611436573d6000803e3d6000fd5b505050506040513d601f19601f8201168201806040525081019061145a919061194d565b90506000611466610d9b565b8160000361148d57506001600160a01b0384166000908152600d6020526040902054611515565b6001600160a01b0385166000908152600d6020526040902054600e5461151291906127109085906114c088611388611979565b6114ca9190611979565b6114d49190611990565b6001600160a01b0389166000908152600d60205260409020546114f990611388611979565b6115039190611966565b61150d9190611990565b611668565b90505b60408051808201909152600080825260208201526001600160a01b038616600090815260066020526040902054156115ad576001600160a01b0386166000908152600660205260409020805461156d906001906118f7565b8154811061157d5761157d611937565b90600052602060002090600202016040518060400160405290816000820154815260200160018201548152505090505b6040805180820190915282815242602082015281516009546115d0908590611966565b6115da91906118f7565b6009556001600160a01b03909616600090815260066020908152604082208054600181810183559184529282902089516002909402019283559701519601959095555050505050565b610edd8282604051602401611639929190611b16565b60408051601f198184030181529190526020810180516001600160e01b0316632d839cb360e21b179052611680565b60008183106116775781611679565b825b9392505050565b80516a636f6e736f6c652e6c6f67602083016000808483855afa5050505050565b6001600160a01b0381168114610fcc57600080fd5b600080604083850312156116c957600080fd5b82356116d4816116a1565b946020939093013593505050565b6000806000806000608086880312156116fa57600080fd5b8535611705816116a1565b94506020860135611715816116a1565b935060408601359250606086013567ffffffffffffffff8082111561173957600080fd5b818801915088601f83011261174d57600080fd5b81358181111561175c57600080fd5b89602082850101111561176e57600080fd5b9699959850939650602001949392505050565b60006020828403121561179357600080fd5b5035919050565b6000602082840312156117ac57600080fd5b8135611679816116a1565b634e487b7160e01b600052604160045260246000fd5b60405160c0810167ffffffffffffffff811182821017156117f0576117f06117b7565b60405290565b604051601f8201601f1916810167ffffffffffffffff8111828210171561181f5761181f6117b7565b604052919050565b600067ffffffffffffffff821115611841576118416117b7565b5060051b60200190565b6000602080838503121561185e57600080fd5b823567ffffffffffffffff81111561187557600080fd5b8301601f8101851361188657600080fd5b803561189961189482611827565b6117f6565b81815260059190911b820183019083810190878311156118b857600080fd5b928401925b828410156118d6578335825292840192908401906118bd565b979650505050505050565b634e487b7160e01b600052601160045260246000fd5b81810381811115610297576102976118e1565b8051611915816116a1565b919050565b60006020828403121561192c57600080fd5b8151611679816116a1565b634e487b7160e01b600052603260045260246000fd5b60006020828403121561195f57600080fd5b5051919050565b80820180821115610297576102976118e1565b8082028115828204841417610297576102976118e1565b6000826119ad57634e487b7160e01b600052601260045260246000fd5b500490565b6000600182016119c4576119c46118e1565b5060010190565b6000604082840312156119dd57600080fd5b6040516040810181811067ffffffffffffffff82111715611a0057611a006117b7565b604052825181526020928301519281019290925250919050565b60006020808385031215611a2d57600080fd5b825167ffffffffffffffff80821115611a4557600080fd5b9084019060c08287031215611a5957600080fd5b611a616117cd565b825182811115611a7057600080fd5b83019150601f82018713611a8357600080fd5b8151611a9161189482611827565b81815260059190911b83018501908581019089831115611ab057600080fd5b938601935b82851015611ace57845182529386019390860190611ab5565b83525050828401518482015260408084015190820152611af06060840161190a565b60608201526080830151608082015260a083015160a08201528094505050505092915050565b604081526000835180604084015260005b81811015611b445760208187018101516060868401015201611b27565b506000606082850101526060601f19601f830116840101915050826020830152939250505056fea26469706673582212206b00c3d859abb12214f291306cb6765319fb6d1ceb41e79a6403f9e8eb6c7e3964736f6c63430008110033",
  "linkReferences": {},
  "deployedLinkReferences": {}
}