{
  "_format": "hh-sol-artifact-1",
  "contractName": "TradingGauge",
  "sourceName": "contracts/protocol/Gauges/TradingGauge.sol",
  "abi": [
    {
      "inputs": [
        {
          "internalType": "contract IAddressesProvider",
          "name": "addressProvider",
          "type": "address"
        },
        {
          "internalType": "address",
          "name": "lpToken_",
          "type": "address"
        }
      ],
      "stateMutability": "nonpayable",
      "type": "constructor"
    },
    {
      "anonymous": false,
      "inputs": [
        {
          "indexed": true,
          "internalType": "address",
          "name": "user",
          "type": "address"
        },
        {
          "indexed": false,
          "internalType": "uint256",
          "name": "lpId",
          "type": "uint256"
        }
      ],
      "name": "DepositLP",
      "type": "event"
    },
    {
      "anonymous": false,
      "inputs": [
        {
          "indexed": true,
          "internalType": "address",
          "name": "user",
          "type": "address"
        },
        {
          "indexed": false,
          "internalType": "uint256",
          "name": "lpId",
          "type": "uint256"
        }
      ],
      "name": "WithdrawLP",
      "type": "event"
    },
    {
      "inputs": [
        {
          "internalType": "address",
          "name": "user",
          "type": "address"
        }
      ],
      "name": "balanceOf",
      "outputs": [
        {
          "internalType": "uint256",
          "name": "",
          "type": "uint256"
        }
      ],
      "stateMutability": "view",
      "type": "function"
    },
    {
      "inputs": [
        {
          "internalType": "uint256",
          "name": "lpId",
          "type": "uint256"
        }
      ],
      "name": "calculateLpValue",
      "outputs": [
        {
          "internalType": "uint256",
          "name": "",
          "type": "uint256"
        }
      ],
      "stateMutability": "view",
      "type": "function"
    },
    {
      "inputs": [],
      "name": "claim",
      "outputs": [
        {
          "internalType": "uint256",
          "name": "",
          "type": "uint256"
        }
      ],
      "stateMutability": "nonpayable",
      "type": "function"
    },
    {
      "inputs": [
        {
          "internalType": "uint256",
          "name": "lpId",
          "type": "uint256"
        }
      ],
      "name": "deposit",
      "outputs": [],
      "stateMutability": "nonpayable",
      "type": "function"
    },
    {
      "inputs": [
        {
          "internalType": "address",
          "name": "user",
          "type": "address"
        }
      ],
      "name": "kick",
      "outputs": [],
      "stateMutability": "nonpayable",
      "type": "function"
    },
    {
      "inputs": [
        {
          "internalType": "address",
          "name": "user",
          "type": "address"
        },
        {
          "internalType": "uint256",
          "name": "index",
          "type": "uint256"
        }
      ],
      "name": "lpOfOwnerByIndex",
      "outputs": [
        {
          "internalType": "uint256",
          "name": "",
          "type": "uint256"
        }
      ],
      "stateMutability": "view",
      "type": "function"
    },
    {
      "inputs": [],
      "name": "lpToken",
      "outputs": [
        {
          "internalType": "address",
          "name": "",
          "type": "address"
        }
      ],
      "stateMutability": "view",
      "type": "function"
    },
    {
      "inputs": [
        {
          "internalType": "address",
          "name": "",
          "type": "address"
        },
        {
          "internalType": "address",
          "name": "",
          "type": "address"
        },
        {
          "internalType": "uint256",
          "name": "",
          "type": "uint256"
        },
        {
          "internalType": "bytes",
          "name": "",
          "type": "bytes"
        }
      ],
      "name": "onERC721Received",
      "outputs": [
        {
          "internalType": "bytes4",
          "name": "",
          "type": "bytes4"
        }
      ],
      "stateMutability": "pure",
      "type": "function"
    },
    {
      "inputs": [
        {
          "internalType": "address",
          "name": "user",
          "type": "address"
        }
      ],
      "name": "userBoost",
      "outputs": [
        {
          "internalType": "uint256",
          "name": "",
          "type": "uint256"
        }
      ],
      "stateMutability": "view",
      "type": "function"
    },
    {
      "inputs": [
        {
          "internalType": "address",
          "name": "user",
          "type": "address"
        }
      ],
      "name": "userLPValue",
      "outputs": [
        {
          "internalType": "uint256",
          "name": "",
          "type": "uint256"
        }
      ],
      "stateMutability": "view",
      "type": "function"
    },
    {
      "inputs": [
        {
          "internalType": "uint256",
          "name": "lpId",
          "type": "uint256"
        }
      ],
      "name": "withdraw",
      "outputs": [],
      "stateMutability": "nonpayable",
      "type": "function"
    },
    {
      "inputs": [],
      "name": "writeTotalWeightHistory",
      "outputs": [],
      "stateMutability": "nonpayable",
      "type": "function"
    }
  ],
  "bytecode": "0x60806040523480156200001157600080fd5b5060405162001dac38038062001dac83398101604081905262000034916200010c565b600080546001600160a01b038085166001600160a01b0319928316178355600a80549185169190921617905560408051602081019091529081526200007e90600990600162000087565b5050506200014b565b828054828255906000526020600020908101928215620000ca579160200282015b82811115620000ca578251829060ff16905591602001919060010190620000a8565b50620000d8929150620000dc565b5090565b5b80821115620000d85760008155600101620000dd565b6001600160a01b03811681146200010957600080fd5b50565b600080604083850312156200012057600080fd5b82516200012d81620000f3565b60208401519092506200014081620000f3565b809150509250929050565b611c51806200015b6000396000f3fe608060405234801561001057600080fd5b50600436106100b45760003560e01c806378d2f9841161007157806378d2f9841461019157806387da75ef146101ba57806396c55175146101c2578063b6b55f25146101d5578063d02a2bee146101e8578063fe03d225146101fb57600080fd5b8063019e06ab146100b9578063150b7a02146100df5780632e1a7d4d146101305780634e71d92d146101455780635fcbd2851461014d57806370a0823114610168575b600080fd5b6100cc6100c736600461173a565b61020e565b6040519081526020015b60405180910390f35b6101176100ed366004611766565b7f150b7a023d4804d13e8c85fb27262cb750cf6ba9f9dd3bb30d90f482ceeb4b1f95945050505050565b6040516001600160e01b031990911681526020016100d6565b61014361013e366004611805565b610239565b005b6100cc61048e565b600a546040516001600160a01b0390911681526020016100d6565b6100cc61017636600461181e565b6001600160a01b031660009081526002602052604090205490565b6100cc61019f36600461181e565b6001600160a01b03166000908152600c602052604090205490565b610143610e63565b6101436101d036600461181e565b610fa9565b6101436101e3366004611805565b611097565b6100cc6101f636600461181e565b611205565b6100cc610209366004611805565b611299565b6001600160a01b03821660009081526003602090815260408083208484529091529020545b92915050565b6000818152600160205260409020546001600160a01b031633146102af5760405162461bcd60e51b815260206004820152602360248201527f4e6f7420746865206f776e6572206f66206c697175696469747920706f73697460448201526234b7b760e91b606482015260840160405180910390fd5b6000818152600b6020908152604080832054338452600c90925282208054919290916102dc908490611851565b90915550506000818152600b6020526040812054600d805491929091610303908490611851565b9091555050600081815260016020908152604080832080546001600160a01b0319169055600b90915281205561033833611378565b600a54604051632142170760e11b8152306004820152336024820152604481018390526001600160a01b03909116906342842e0e90606401600060405180830381600087803b15801561038a57600080fd5b505af115801561039e573d6000803e3d6000fd5b5050336000908152600260205260408120549092506103c09150600190611851565b60008381526004602052604090205490915080821461040a573360009081526003602090815260408083208584528252808320548484528184208190558352600490915290208190555b60008381526004602090815260408083208390553380845260038352818420868552835281842084905583526002909152812080546001929061044e908490611851565b909155505060405183815233907f45ec0244cf2e0c90546c4aff992398e1505d5ce31338249d7f29066169cfdcea906020015b60405180910390a2505050565b600061049933611378565b60008060009054906101000a90046001600160a01b03166001600160a01b03166308b0308a6040518163ffffffff1660e01b8152600401602060405180830381865afa1580156104ed573d6000803e3d6000fd5b505050506040513d601f19601f820116820180604052508101906105119190611874565b905060008060009054906101000a90046001600160a01b03166001600160a01b03166315b9ba5d6040518163ffffffff1660e01b8152600401602060405180830381865afa158015610567573d6000803e3d6000fd5b505050506040513d601f19601f8201168201806040525081019061058b9190611874565b336000908152600560205260408120549192508190036105af576000935050505090565b3360009081526007602052604081205490036106815733600090815260056020526040812080546001600160a01b03861692635487c57792916105f4576105f4611891565b9060005260206000209060020201600101546040518263ffffffff1660e01b815260040161062491815260200190565b602060405180830381865afa158015610641573d6000803e3d6000fd5b505050506040513d601f19601f8201168201806040525081019061066591906118a7565b6106709060016118c0565b336000908152600760205260409020555b60008060005b6032811015610d525760076000336001600160a01b03166001600160a01b03168152602001908152602001600020549150610745604051806080016040528060488152602001611b7d60489139604051635487c57760e01b8152426004820152839085906001600160a01b038b1690635487c57790602401602060405180830381865afa15801561071c573d6000803e3d6000fd5b505050506040513d601f19601f8201168201806040525081019061074091906118a7565b611658565b604051635487c57760e01b81524260048201526001600160a01b03871690635487c57790602401602060405180830381865afa158015610789573d6000803e3d6000fd5b505050506040513d601f19601f820116820180604052508101906107ad91906118a7565b821015610d52573360009081526005602090815260408083206006909252822054815481106107de576107de611891565b906000526020600020906002020160405180604001604052908160008201548152602001600182015481525050905060018561081a9190611851565b3360009081526006602052604090205403610963576108936040518060400160405280601d81526020017f436c61696d696e67206c61737420776f726b696e672062616c616e636500000081525060066000336001600160a01b03166001600160a01b03168152602001908152602001600020546116a7565b600983815481106108a6576108a6611891565b60009182526020909120015481516040516384f5be8160e01b8152600481018690526001600160a01b038916906384f5be8190602401602060405180830381865afa1580156108f9573d6000803e3d6000fd5b505050506040513d601f19601f8201168201806040525081019061091d91906118a7565b61092791906118d3565b61093191906118ea565b61093b90856118c0565b3360009081526007602052604081208054929650906109598361190c565b9190505550610d3f565b33600090815260056020908152604080832060069092528220546109889060016118c0565b8154811061099857610998611891565b6000918252602091829020604080518082018252600293909302909101805483526001015482840152918401519151635487c57760e01b8152600481019290925291506001600160a01b03891690635487c57790602401602060405180830381865afa158015610a0c573d6000803e3d6000fd5b505050506040513d601f19601f82011682018060405250810190610a3091906118a7565b6020820151604051635487c57760e01b815260048101919091526001600160a01b038a1690635487c57790602401602060405180830381865afa158015610a7b573d6000803e3d6000fd5b505050506040513d601f19601f82011682018060405250810190610a9f91906118a7565b03610afa57336000908152600660205260408120805491610abf8361190c565b9190505550610af5604051806060016040528060238152602001611bc560239139336000908152600660205260409020546116a7565b610d3d565b610ba5604051806060016040528060348152602001611be8603491396040516384f5be8160e01b8152600481018790526001600160a01b038a16906384f5be8190602401602060405180830381865afa158015610b5b573d6000803e3d6000fd5b505050506040513d601f19601f82011682018060405250810190610b7f91906118a7565b84516009805489908110610b9557610b95611891565b9060005260206000200154611658565b60098481548110610bb857610bb8611891565b9060005260206000200154600014610c755760098481548110610bdd57610bdd611891565b60009182526020909120015482516040516384f5be8160e01b8152600481018790526001600160a01b038a16906384f5be8190602401602060405180830381865afa158015610c30573d6000803e3d6000fd5b505050506040513d601f19601f82011682018060405250810190610c5491906118a7565b610c5e91906118d3565b610c6891906118ea565b610c7290866118c0565b94505b336000908152600760205260408120805491610c908361190c565b90915550503360009081526007602090815260409182902054908301519151635487c57760e01b81526004810192909252906001600160a01b038a1690635487c57790602401602060405180830381865afa158015610cf3573d6000803e3d6000fd5b505050506040513d601f19601f82011682018060405250810190610d1791906118a7565b03610d3d57336000908152600660205260408120805491610d378361190c565b91905055505b505b5080610d4a8161190c565b915050610687565b50610d826040518060400160405280600d81526020016c616d6f756e74546f436c61696d60981b815250836116a7565b60008054906101000a90046001600160a01b03166001600160a01b03166315b9ba5d6040518163ffffffff1660e01b8152600401602060405180830381865afa158015610dd3573d6000803e3d6000fd5b505050506040513d601f19601f82011682018060405250810190610df79190611874565b604051631ec9887760e11b8152336004820152602481018490526001600160a01b039190911690633d9310ee90604401600060405180830381600087803b158015610e4157600080fd5b505af1158015610e55573d6000803e3d6000fd5b509398975050505050505050565b60008060009054906101000a90046001600160a01b03166001600160a01b03166308b0308a6040518163ffffffff1660e01b8152600401602060405180830381865afa158015610eb7573d6000803e3d6000fd5b505050506040513d601f19601f82011682018060405250810190610edb9190611874565b604051635487c57760e01b81524260048201526001600160a01b039190911690635487c57790602401602060405180830381865afa158015610f21573d6000803e3d6000fd5b505050506040513d601f19601f82011682018060405250810190610f4591906118a7565b905060005b6080811015610fa557600954821115610fa557600854600980546001810182556000919091527f6e1540171b6c0c960b71a7020d9f60077f6af931a8bbf590da0223dacf75c7af015580610f9d8161190c565b915050610f4a565b5050565b60005460408051630458184560e11b8152905142926001600160a01b0316916308b0308a9160048083019260209291908290030181865afa158015610ff2573d6000803e3d6000fd5b505050506040513d601f19601f820116820180604052508101906110169190611874565b60405163cbf9fe5f60e01b81526001600160a01b038481166004830152919091169063cbf9fe5f906024016040805180830381865afa15801561105d573d6000803e3d6000fd5b505050506040513d601f19601f820116820180604052508101906110819190611995565b6020015110156110945761109481611378565b50565b600081815260016020526040812080546001600160a01b031916331790556110be82611299565b6000838152600b60209081526040808320849055338352600c9091528120805492935083929091906110f19084906118c0565b9250508190555080600d600082825461110a91906118c0565b90915550611119905033611378565b600a54604051632142170760e11b8152336004820152306024820152604481018490526001600160a01b03909116906342842e0e90606401600060405180830381600087803b15801561116b57600080fd5b505af115801561117f573d6000803e3d6000fd5b505033600081815260026020818152604080842080546003845282862081875284528286208b90558a8652600484529185208290559484529190528254909450600193506111ce9084906118c0565b909155505060405183815233907fa76194b11cf7b940f18e866ed3382a795bb09ca684db1b957d595417f63151f890602001610481565b6001600160a01b0381166000908152600c6020526040812054810361122c57506000919050565b6001600160a01b0382166000908152600c602090815260408083205460059092529091208054612710919061126390600190611851565b8154811061127357611273611891565b90600052602060002090600202016000015461128f91906118d3565b61023391906118ea565b600a546040516319ba7e5360e31b81526004810183905260009182916001600160a01b039091169063cdd3f29890602401600060405180830381865afa1580156112e7573d6000803e3d6000fd5b505050506040513d6000823e601f3d908101601f1916820160405261130f91908101906119e4565b90506000816080015182600001515161132891906118d3565b90506000826020015182111561134357506020820151611346565b50805b611370604051806040016040528060088152602001674c502056414c554560c01b815250826116a7565b949350505050565b60008060009054906101000a90046001600160a01b03166001600160a01b03166308b0308a6040518163ffffffff1660e01b8152600401602060405180830381865afa1580156113cc573d6000803e3d6000fd5b505050506040513d601f19601f820116820180604052508101906113f09190611874565b6040516370a0823160e01b81526001600160a01b0384811660048301529192506000918316906370a0823190602401602060405180830381865afa15801561143c573d6000803e3d6000fd5b505050506040513d601f19601f8201168201806040525081019061146091906118a7565b90506000826001600160a01b03166318160ddd6040518163ffffffff1660e01b81526004016020604051808303816000875af11580156114a4573d6000803e3d6000fd5b505050506040513d601f19601f820116820180604052508101906114c891906118a7565b90506000816000036114ea5750336000908152600c6020526040902054611560565b336000908152600c6020526040902054600d5461155d9190612710908590611514886113886118d3565b61151e91906118d3565b61152891906118ea565b336000908152600c6020526040902054611544906113886118d3565b61154e91906118c0565b61155891906118ea565b6116ec565b90505b604080518082019091526000808252602082015233600090815260056020526040902054156115e65733600090815260056020526040902080546115a690600190611851565b815481106115b6576115b6611891565b90600052602060002090600202016040518060400160405290816000820154815260200160018201548152505090505b6040805180820190915282815242602082015281516008546116099085906118c0565b6116139190611851565b60085561161e610e63565b3360009081526005602090815260408220805460018181018355918452928290208451600290940201928355920151910155505050505050565b6116a1848484846040516024016116729493929190611b2b565b60408051601f198184030181529190526020810180516001600160e01b031663a7a8785360e01b179052611704565b50505050565b610fa582826040516024016116bd929190611b5a565b60408051601f198184030181529190526020810180516001600160e01b0316632d839cb360e21b179052611704565b60008183106116fb57816116fd565b825b9392505050565b80516a636f6e736f6c652e6c6f67602083016000808483855afa5050505050565b6001600160a01b038116811461109457600080fd5b6000806040838503121561174d57600080fd5b823561175881611725565b946020939093013593505050565b60008060008060006080868803121561177e57600080fd5b853561178981611725565b9450602086013561179981611725565b935060408601359250606086013567ffffffffffffffff808211156117bd57600080fd5b818801915088601f8301126117d157600080fd5b8135818111156117e057600080fd5b8960208285010111156117f257600080fd5b9699959850939650602001949392505050565b60006020828403121561181757600080fd5b5035919050565b60006020828403121561183057600080fd5b81356116fd81611725565b634e487b7160e01b600052601160045260246000fd5b818103818111156102335761023361183b565b805161186f81611725565b919050565b60006020828403121561188657600080fd5b81516116fd81611725565b634e487b7160e01b600052603260045260246000fd5b6000602082840312156118b957600080fd5b5051919050565b808201808211156102335761023361183b565b80820281158282048414176102335761023361183b565b60008261190757634e487b7160e01b600052601260045260246000fd5b500490565b60006001820161191e5761191e61183b565b5060010190565b634e487b7160e01b600052604160045260246000fd5b60405160a0810167ffffffffffffffff8111828210171561195e5761195e611925565b60405290565b604051601f8201601f1916810167ffffffffffffffff8111828210171561198d5761198d611925565b604052919050565b6000604082840312156119a757600080fd5b6040516040810181811067ffffffffffffffff821117156119ca576119ca611925565b604052825181526020928301519281019290925250919050565b600060208083850312156119f757600080fd5b825167ffffffffffffffff80821115611a0f57600080fd5b9084019060a08287031215611a2357600080fd5b611a2b61193b565b825182811115611a3a57600080fd5b8301601f81018813611a4b57600080fd5b805183811115611a5d57611a5d611925565b8060051b9350611a6e868501611964565b818152938201860193868101908a861115611a8857600080fd5b928701925b85841015611aa657835182529287019290870190611a8d565b84525050508284015184820152611abf60408401611864565b604082015260608301516060820152608083015160808201528094505050505092915050565b6000815180845260005b81811015611b0b57602081850181015186830182015201611aef565b506000602082860101526020601f19601f83011685010191505092915050565b608081526000611b3e6080830187611ae5565b6020830195909552506040810192909252606090910152919050565b604081526000611b6d6040830185611ae5565b9050826020830152939250505056fe69203d2025732c206e657874436c61696d656445706f6368203d202573202c20766f74696e67457363726f772e65706f636828626c6f636b2e74696d657374616d7029203d202573496e6372656d656e74656420776f726b696e672062616c616e636520706f696e746572436c61696d696e6720776f726b696e672062616c616e6365202573207769746820257320746f6b656e73206f7574206f66202573a26469706673582212201df60df04622c1c2c3b2188746462edb5bdad633111c7769cd3c7028f584af2a64736f6c63430008110033",
  "linkReferences": {},
  "deployedLinkReferences": {}
}