{
  "_format": "hh-sol-artifact-1",
  "contractName": "TradingPoolFactory",
  "sourceName": "contracts/protocol/Swap/TradingPoolFactory.sol",
  "abi": [
    {
      "anonymous": false,
      "inputs": [
        {
          "indexed": true,
          "internalType": "address",
          "name": "pool",
          "type": "address"
        }
      ],
      "name": "CreateTradingPool",
      "type": "event"
    },
    {
      "anonymous": false,
      "inputs": [
        {
          "indexed": false,
          "internalType": "uint8",
          "name": "version",
          "type": "uint8"
        }
      ],
      "name": "Initialized",
      "type": "event"
    },
    {
      "anonymous": false,
      "inputs": [
        {
          "indexed": true,
          "internalType": "address",
          "name": "previousOwner",
          "type": "address"
        },
        {
          "indexed": true,
          "internalType": "address",
          "name": "newOwner",
          "type": "address"
        }
      ],
      "name": "OwnershipTransferred",
      "type": "event"
    },
    {
      "inputs": [
        {
          "internalType": "address",
          "name": "nft",
          "type": "address"
        },
        {
          "internalType": "address",
          "name": "token",
          "type": "address"
        }
      ],
      "name": "createTradingPool",
      "outputs": [],
      "stateMutability": "nonpayable",
      "type": "function"
    },
    {
      "inputs": [
        {
          "internalType": "contract IAddressesProvider",
          "name": "addressesProvider",
          "type": "address"
        }
      ],
      "name": "initialize",
      "outputs": [],
      "stateMutability": "nonpayable",
      "type": "function"
    },
    {
      "inputs": [],
      "name": "owner",
      "outputs": [
        {
          "internalType": "address",
          "name": "",
          "type": "address"
        }
      ],
      "stateMutability": "view",
      "type": "function"
    },
    {
      "inputs": [],
      "name": "renounceOwnership",
      "outputs": [],
      "stateMutability": "nonpayable",
      "type": "function"
    },
    {
      "inputs": [
        {
          "internalType": "address",
          "name": "newOwner",
          "type": "address"
        }
      ],
      "name": "transferOwnership",
      "outputs": [],
      "stateMutability": "nonpayable",
      "type": "function"
    }
  ],
  "bytecode": "0x608060405234801561001057600080fd5b50613dcb806100206000396000f3fe60806040523480156200001157600080fd5b50600436106200005e5760003560e01c8063715018a614620000635780638da5cb5b146200006f578063c4d66de8146200008e578063de15113414620000a5578063f2fde38b14620000bc575b600080fd5b6200006d620000d3565b005b603354604080516001600160a01b039092168252519081900360200190f35b6200006d6200009f36600462000873565b620000eb565b6200006d620000b636600462000893565b62000225565b6200006d620000cd36600462000873565b620005cd565b620000dd6200064c565b620000e96000620006a8565b565b600054610100900460ff16158080156200010c5750600054600160ff909116105b80620001285750303b15801562000128575060005460ff166001145b620001915760405162461bcd60e51b815260206004820152602e60248201527f496e697469616c697a61626c653a20636f6e747261637420697320616c72656160448201526d191e481a5b9a5d1a585b1a5e995960921b60648201526084015b60405180910390fd5b6000805460ff191660011790558015620001b5576000805461ff0019166101001790555b620001bf620006fa565b609780546001600160a01b0319166001600160a01b038416179055801562000221576000805461ff0019169055604051600181527f7f26b83ff96e1f2b6a682f133852f6798a09c465da95921460cefb38474024989060200160405180910390a15b5050565b620002416001600160a01b0383166380ac58cd60e01b6200072e565b620002a35760405162461bcd60e51b815260206004820152602b60248201527f436f6c6c656374696f6e2061646472657373206973206e6f742045524337323160448201526a1031b7b6b83634b0b73a1760a91b606482015260840162000188565b6001600160a01b038281166000908152609860209081526040808320858516845290915290205416156200031a5760405162461bcd60e51b815260206004820152601b60248201527f54726164696e6720506f6f6c20616c7265616479206578697374730000000000604482015260640162000188565b6097546000906001600160a01b03166200033c6033546001600160a01b031690565b8385856001600160a01b03166395d89b416040518163ffffffff1660e01b8152600401600060405180830381865afa1580156200037d573d6000803e3d6000fd5b505050506040513d6000823e601f3d908101601f19168201604052620003a791908101906200090d565b876001600160a01b03166395d89b416040518163ffffffff1660e01b8152600401600060405180830381865afa158015620003e6573d6000803e3d6000fd5b505050506040513d6000823e601f3d908101601f191682016040526200041091908101906200090d565b60405160200162000423929190620009bb565b604051602081830303815290604052866001600160a01b03166395d89b416040518163ffffffff1660e01b8152600401600060405180830381865afa15801562000471573d6000803e3d6000fd5b505050506040513d6000823e601f3d908101601f191682016040526200049b91908101906200090d565b886001600160a01b03166395d89b416040518163ffffffff1660e01b8152600401600060405180830381865afa158015620004da573d6000803e3d6000fd5b505050506040513d6000823e601f3d908101601f191682016040526200050491908101906200090d565b6040516020016200051792919062000a1c565b60405160208183030381529060405260405162000534906200084f565b620005459695949392919062000a99565b604051809103906000f08015801562000562573d6000803e3d6000fd5b506001600160a01b038481166000908152609860209081526040808320878516845290915280822080546001600160a01b03191693851693841790555192935090917f66f785136f3f010fbae3f4377a24a2dbd4ea4e4940c4a3e3b12727cbc31e97719190a2505050565b620005d76200064c565b6001600160a01b0381166200063e5760405162461bcd60e51b815260206004820152602660248201527f4f776e61626c653a206e6577206f776e657220697320746865207a65726f206160448201526564647265737360d01b606482015260840162000188565b6200064981620006a8565b50565b6033546001600160a01b03163314620000e95760405162461bcd60e51b815260206004820181905260248201527f4f776e61626c653a2063616c6c6572206973206e6f7420746865206f776e6572604482015260640162000188565b603380546001600160a01b038381166001600160a01b0319831681179093556040519116919082907f8be0079c531659141344cd1fd0a4f28419497f9722a3daafe3b4186f6b6457e090600090a35050565b600054610100900460ff16620007245760405162461bcd60e51b8152600401620001889062000af8565b620000e962000756565b60006200073b836200078b565b80156200074f57506200074f8383620007c4565b9392505050565b600054610100900460ff16620007805760405162461bcd60e51b8152600401620001889062000af8565b620000e933620006a8565b6000620007a0826301ffc9a760e01b620007c4565b8015620007be5750620007bc826001600160e01b0319620007c4565b155b92915050565b604080516001600160e01b03198316602480830191909152825180830390910181526044909101909152602080820180516001600160e01b03166301ffc9a760e01b178152825160009392849283928392918391908a617530fa92503d9150600051905082801562000837575060208210155b8015620008445750600081115b979650505050505050565b6132528062000b4483390190565b6001600160a01b03811681146200064957600080fd5b6000602082840312156200088657600080fd5b81356200074f816200085d565b60008060408385031215620008a757600080fd5b8235620008b4816200085d565b91506020830135620008c6816200085d565b809150509250929050565b634e487b7160e01b600052604160045260246000fd5b60005b8381101562000904578181015183820152602001620008ea565b50506000910152565b6000602082840312156200092057600080fd5b815167ffffffffffffffff808211156200093957600080fd5b818401915084601f8301126200094e57600080fd5b815181811115620009635762000963620008d1565b604051601f8201601f19908116603f011681019083821181831017156200098e576200098e620008d1565b81604052828152876020848701011115620009a857600080fd5b62000844836020830160208801620008e7565b7203632a7232a102a3930b234b733902837b7b61606d1b815260008351620009eb816013850160208801620008e7565b6201016960ed1b601391840191820152835162000a10816016840160208801620008e7565b01601601949350505050565b621b195560ea1b81526000835162000a3c816003850160208801620008e7565b602d60f81b600391840191820152835162000a5f816004840160208801620008e7565b01600401949350505050565b6000815180845262000a85816020860160208601620008e7565b601f01601f19169290920160200192915050565b6001600160a01b038781168252868116602083015285811660408301528416606082015260c06080820181905260009062000ad79083018562000a6b565b82810360a084015262000aeb818562000a6b565b9998505050505050505050565b6020808252602b908201527f496e697469616c697a61626c653a20636f6e7472616374206973206e6f74206960408201526a6e697469616c697a696e6760a81b60608201526080019056fe60806040523480156200001157600080fd5b5060405162003252380380620032528339810160408190526200003491620002d7565b8181600062000044838262000425565b50600162000053828262000425565b505050620000706200006a620001a360201b60201c565b620001a7565b856001600160a01b031663f1be16796040518163ffffffff1660e01b8152600401602060405180830381865afa158015620000af573d6000803e3d6000fd5b505050506040513d601f19601f82011682018060405250810190620000d59190620004f1565b6001600160a01b0316336001600160a01b0316146200014f5760405162461bcd60e51b815260206004820152602c60248201527f54726164696e6720506f6f6c206d75737420626520637265617465642074687260448201526b6f75676820466163746f727960a01b606482015260840160405180910390fd5b600b80546001600160a01b038089166001600160a01b031992831617909255600c8054878416908316179055600d8054928616929091169190911790556200019785620001a7565b50505050505062000518565b3390565b600a80546001600160a01b038381166001600160a01b0319831681179093556040519116919082907f8be0079c531659141344cd1fd0a4f28419497f9722a3daafe3b4186f6b6457e090600090a35050565b6001600160a01b03811681146200020f57600080fd5b50565b634e487b7160e01b600052604160045260246000fd5b600082601f8301126200023a57600080fd5b81516001600160401b038082111562000257576200025762000212565b604051601f8301601f19908116603f0116810190828211818310171562000282576200028262000212565b816040528381526020925086838588010111156200029f57600080fd5b600091505b83821015620002c35785820183015181830184015290820190620002a4565b600093810190920192909252949350505050565b60008060008060008060c08789031215620002f157600080fd5b8651620002fe81620001f9565b60208801519096506200031181620001f9565b60408801519095506200032481620001f9565b60608801519094506200033781620001f9565b60808801519093506001600160401b03808211156200035557600080fd5b620003638a838b0162000228565b935060a08901519150808211156200037a57600080fd5b506200038989828a0162000228565b9150509295509295509295565b600181811c90821680620003ab57607f821691505b602082108103620003cc57634e487b7160e01b600052602260045260246000fd5b50919050565b601f8211156200042057600081815260208120601f850160051c81016020861015620003fb5750805b601f850160051c820191505b818110156200041c5782815560010162000407565b5050505b505050565b81516001600160401b0381111562000441576200044162000212565b620004598162000452845462000396565b84620003d2565b602080601f831160018114620004915760008415620004785750858301515b600019600386901b1c1916600185901b1785556200041c565b600085815260208120601f198616915b82811015620004c257888601518255948401946001909101908401620004a1565b5085821015620004e15787850151600019600388901b60f8161c191681555b5050505050600190811b01905550565b6000602082840312156200050457600080fd5b81516200051181620001f9565b9392505050565b612d2a80620005286000396000f3fe608060405234801561001057600080fd5b50600436106101735760003560e01c806370a08231116100de578063b88d4fde11610097578063cdd3f29811610071578063cdd3f29814610338578063d07fd39314610358578063e985e9c51461036b578063f2fde38b146103a757600080fd5b8063b88d4fde146102ff578063c243c72b14610312578063c87b56dd1461032557600080fd5b806370a08231146102a5578063715018a6146102b85780638da5cb5b146102c057806395d89b41146102d15780639c8f9f23146102d9578063a22cb465146102ec57600080fd5b806323b872dd1161013057806323b872dd146102335780632f745c591461024657806342842e0e146102595780634f6ccce71461026c5780636352211e1461027f57806368660cd41461029257600080fd5b806301ffc9a71461017857806306fdde03146101a0578063081812fc146101b5578063095ea7b3146101e0578063150b7a02146101f557806318160ddd14610221575b600080fd5b61018b61018636600461256b565b6103ba565b60405190151581526020015b60405180910390f35b6101a86103cb565b60405161019791906125d8565b6101c86101c33660046125eb565b61045d565b6040516001600160a01b039091168152602001610197565b6101f36101ee366004612620565b610484565b005b610208610203366004612691565b61059e565b6040516001600160e01b03199091168152602001610197565b6008545b604051908152602001610197565b6101f3610241366004612751565b6105af565b610225610254366004612620565b6105e0565b6101f3610267366004612751565b610676565b61022561027a3660046125eb565b610691565b6101c861028d3660046125eb565b610724565b6101f36102a0366004612802565b610784565b6102256102b336600461286b565b610958565b6101f36109de565b600a546001600160a01b03166101c8565b6101a86109f2565b6101f36102e73660046125eb565b610a01565b6101f36102fa366004612894565b610b3f565b6101f361030d366004612691565b610b4e565b6102256103203660046128cb565b610b86565b6101a86103333660046125eb565b610f38565b61034b6103463660046125eb565b610fac565b6040516101979190612900565b610225610366366004612986565b611057565b61018b6103793660046129ea565b6001600160a01b03918216600090815260056020908152604080832093909416825291909152205460ff1690565b6101f36103b536600461286b565b611410565b60006103c582611489565b92915050565b6060600080546103da90612a1d565b80601f016020809104026020016040519081016040528092919081815260200182805461040690612a1d565b80156104535780601f1061042857610100808354040283529160200191610453565b820191906000526020600020905b81548152906001019060200180831161043657829003601f168201915b5050505050905090565b6000610468826114ae565b506000908152600460205260409020546001600160a01b031690565b600061048f82610724565b9050806001600160a01b0316836001600160a01b0316036105015760405162461bcd60e51b815260206004820152602160248201527f4552433732313a20617070726f76616c20746f2063757272656e74206f776e656044820152603960f91b60648201526084015b60405180910390fd5b336001600160a01b038216148061051d575061051d8133610379565b61058f5760405162461bcd60e51b815260206004820152603d60248201527f4552433732313a20617070726f76652063616c6c6572206973206e6f7420746f60448201527f6b656e206f776e6572206f7220617070726f76656420666f7220616c6c00000060648201526084016104f8565b610599838361150d565b505050565b630a85bd0160e11b5b949350505050565b6105b9338261157b565b6105d55760405162461bcd60e51b81526004016104f890612a57565b6105998383836115f9565b60006105eb83610958565b821061064d5760405162461bcd60e51b815260206004820152602b60248201527f455243373231456e756d657261626c653a206f776e657220696e646578206f7560448201526a74206f6620626f756e647360a81b60648201526084016104f8565b506001600160a01b03919091166000908152600660209081526040808320938352929052205490565b61059983838360405180602001604052806000815250610b4e565b600061069c60085490565b82106106ff5760405162461bcd60e51b815260206004820152602c60248201527f455243373231456e756d657261626c653a20676c6f62616c20696e646578206f60448201526b7574206f6620626f756e647360a01b60648201526084016104f8565b6008828154811061071257610712612aa4565b90600052602060002001549050919050565b6000818152600260205260408120546001600160a01b0316806103c55760405162461bcd60e51b8152602060048201526018602482015277115490cdcc8c4e881a5b9d985b1a59081d1bdad95b88125160421b60448201526064016104f8565b60005b845181101561087c57600d5485516001600160a01b03909116906342842e0e90339030908990869081106107bd576107bd612aa4565b60200260200101516040518463ffffffff1660e01b81526004016107e393929190612aba565b600060405180830381600087803b1580156107fd57600080fd5b505af1158015610811573d6000803e3d6000fd5b5050505060405180604001604052806011548152602001828152506010600087848151811061084257610842612aa4565b602090810291909101810151825281810192909252604001600020825181559101516001909101558061087481612af4565b915050610787565b50600c54610895906001600160a01b031633308861176a565b6040805160a08101825286815260208082018781526001600160a01b0387168385015260608301869052608083018590526011546000908152600f83529390932082518155925180519293926108f1926001850192019061249f565b5060408201516002820180546001600160a01b0319166001600160a01b039092169190911790556060820151600382015560809091015160049091015560115461093c9033906117c2565b6011805490600061094c83612af4565b91905055505050505050565b60006001600160a01b0382166109c25760405162461bcd60e51b815260206004820152602960248201527f4552433732313a2061646472657373207a65726f206973206e6f7420612076616044820152683634b21037bbb732b960b91b60648201526084016104f8565b506001600160a01b031660009081526003602052604090205490565b6109e66117dc565b6109f06000611836565b565b6060600180546103da90612a1d565b610a0a81611888565b60005b6000828152600f6020526040902060010154811015610ad157600d546000838152600f6020526040902060010180546001600160a01b03909216916342842e0e91309133919086908110610a6357610a63612aa4565b90600052602060002001546040518463ffffffff1660e01b8152600401610a8c93929190612aba565b600060405180830381600087803b158015610aa657600080fd5b505af1158015610aba573d6000803e3d6000fd5b505050508080610ac990612af4565b915050610a0d565b506000818152600f6020526040902054600c54610afb916001600160a01b0390911690309061192b565b6000818152600f6020526040812081815590610b1a60018301826124ea565b506002810180546001600160a01b031916905560006003820181905560049091015550565b610b4a33838361195b565b5050565b610b58338361157b565b610b745760405162461bcd60e51b81526004016104f890612a57565b610b8084848484611a29565b50505050565b600080600080600080610b97612508565b60005b8851811015610f1357601060008a8381518110610bb957610bb9612aa4565b60200260200101518152602001908152602001600020600001549350601060008a8381518110610beb57610beb612aa4565b60200260200101518152602001908152602001600020600101549250600f60008581526020019081526020016000206040518060a00160405290816000820154815260200160018201805480602002602001604051908101604052809291908181526020018280548015610c7e57602002820191906000526020600020905b815481526020019060010190808311610c6a575b505050918352505060028201546001600160a01b0390811660208301526003830154604080840191909152600493840154606093840152848101516080860151938601519151635d8b487160e11b81529485019390935260248401529294509091169063bb1690e290604401602060405180830381865afa158015610d07573d6000803e3d6000fd5b505050506040513d601f19601f82011682018060405250810190610d2b9190612b0d565b955061271086600e54612710610d419190612b26565b610d4b9190612b39565b610d559190612b50565b6000858152600f60205260409020600481018890556001908101805492975091610d7f9190612b72565b81548110610d8f57610d8f612aa4565b9060005260206000200154600f60008681526020019081526020016000206001018481548110610dc157610dc1612aa4565b9060005260206000200181905550600f6000858152602001908152602001600020600101805480610df457610df4612b85565b6001900381819060005260206000200160009055905584600f60008681526020019081526020016000206000016000828254610e309190612b26565b90915550610e4090508588612b26565b9650601060008a8381518110610e5857610e58612aa4565b6020908102919091018101518252810191909152604001600090812081815560010155600d5489516001600160a01b03909116906342842e0e90309033908d9086908110610ea857610ea8612aa4565b60200260200101516040518463ffffffff1660e01b8152600401610ece93929190612aba565b600060405180830381600087803b158015610ee857600080fd5b505af1158015610efc573d6000803e3d6000fd5b505050508080610f0b90612af4565b915050610b9a565b50600c54610f2c906001600160a01b031633308961176a565b50939695505050505050565b6060610f43826114ae565b6000610f5a60408051602081019091526000815290565b90506000815111610f7a5760405180602001604052806000815250610fa5565b80610f8484611a5c565b604051602001610f95929190612b9b565b6040516020818303038152906040525b9392505050565b610fb4612508565b6000828152600f6020908152604091829020825160a081018452815481526001820180548551818602810186019096528086529194929385810193929083018282801561102057602002820191906000526020600020905b81548152602001906001019080831161100c575b505050918352505060028201546001600160a01b031660208201526003820154604082015260049091015460609091015292915050565b600081518351146110c15760405162461bcd60e51b815260206004820152602e60248201527f4e46547320616e64204c6971756964697479205061697273206d75737420686160448201526d0ecca40e6c2daca40d8cadccee8d60931b60648201526084016104f8565b6000806000806110cf612508565b60005b88518110156113ec57600d5489516001600160a01b03909116906342842e0e90339030908d908690811061110857611108612aa4565b60200260200101516040518463ffffffff1660e01b815260040161112e93929190612aba565b600060405180830381600087803b15801561114857600080fd5b505af115801561115c573d6000803e3d6000fd5b50505050601060008a838151811061117657611176612aa4565b60200260200101518152602001908152602001600020600001549350601060008a83815181106111a8576111a8612aa4565b60200260200101518152602001908152602001600020600101549250600f60008581526020019081526020016000206040518060a0016040529081600082015481526020016001820180548060200260200160405190810160405280929190818152602001828054801561123b57602002820191906000526020600020905b815481526020019060010190808311611227575b505050918352505060028201546001600160a01b03166020820152600382015460408201526004909101546060909101526080810151600e54919350612710916112859083612b72565b61128f9190612b39565b6112999190612b50565b94506112a58587612b26565b9550600f60008a83815181106112bd576112bd612aa4565b602002602001015181526020019081526020016000206001018982815181106112e8576112e8612aa4565b602090810291909101810151825460018101845560009384528284200155858252600f9052604081208054879290611321908490612b72565b9091555050604082810151608084015160608501519251633698f96560e11b8152600481019190915260248101929092526001600160a01b031690636d31f2ca90604401602060405180830381865afa158015611382573d6000803e3d6000fd5b505050506040513d601f19601f820116820180604052508101906113a69190612b0d565b600f60008b84815181106113bc576113bc612aa4565b602002602001015181526020019081526020016000206004018190555080806113e490612af4565b9150506110d2565b50600c54611404906001600160a01b0316308761192b565b50929695505050505050565b6114186117dc565b6001600160a01b03811661147d5760405162461bcd60e51b815260206004820152602660248201527f4f776e61626c653a206e6577206f776e657220697320746865207a65726f206160448201526564647265737360d01b60648201526084016104f8565b61148681611836565b50565b60006001600160e01b0319821663780e9d6360e01b14806103c557506103c582611aef565b6000818152600260205260409020546001600160a01b03166114865760405162461bcd60e51b8152602060048201526018602482015277115490cdcc8c4e881a5b9d985b1a59081d1bdad95b88125160421b60448201526064016104f8565b600081815260046020526040902080546001600160a01b0319166001600160a01b038416908117909155819061154282610724565b6001600160a01b03167f8c5be1e5ebec7d5bd14f71427d1e84f3dd0314c0f7b2291e5b200ac8c7c3b92560405160405180910390a45050565b60008061158783610724565b9050806001600160a01b0316846001600160a01b031614806115ce57506001600160a01b0380821660009081526005602090815260408083209388168352929052205460ff165b806105a75750836001600160a01b03166115e78461045d565b6001600160a01b031614949350505050565b826001600160a01b031661160c82610724565b6001600160a01b0316146116325760405162461bcd60e51b81526004016104f890612bca565b6001600160a01b0382166116945760405162461bcd60e51b8152602060048201526024808201527f4552433732313a207472616e7366657220746f20746865207a65726f206164646044820152637265737360e01b60648201526084016104f8565b6116a18383836001611b3f565b826001600160a01b03166116b482610724565b6001600160a01b0316146116da5760405162461bcd60e51b81526004016104f890612bca565b600081815260046020908152604080832080546001600160a01b03199081169091556001600160a01b0387811680865260038552838620805460001901905590871680865283862080546001019055868652600290945282852080549092168417909155905184937fddf252ad1be2c89b69c2b068fc378daa952ba7f163c4a11628f55a4df523b3ef91a4505050565b610b80846323b872dd60e01b85858560405160240161178b93929190612aba565b60408051601f198184030181529190526020810180516001600160e01b03166001600160e01b031990931692909217909152611b4b565b610b4a828260405180602001604052806000815250611c1d565b600a546001600160a01b031633146109f05760405162461bcd60e51b815260206004820181905260248201527f4f776e61626c653a2063616c6c6572206973206e6f7420746865206f776e657260448201526064016104f8565b600a80546001600160a01b038381166001600160a01b0319831681179093556040519116919082907f8be0079c531659141344cd1fd0a4f28419497f9722a3daafe3b4186f6b6457e090600090a35050565b600061189382610724565b90506118a3816000846001611b3f565b6118ac82610724565b600083815260046020908152604080832080546001600160a01b03199081169091556001600160a01b0385168085526003845282852080546000190190558785526002909352818420805490911690555192935084927fddf252ad1be2c89b69c2b068fc378daa952ba7f163c4a11628f55a4df523b3ef908390a45050565b6040516001600160a01b03831660248201526044810182905261059990849063a9059cbb60e01b9060640161178b565b816001600160a01b0316836001600160a01b0316036119bc5760405162461bcd60e51b815260206004820152601960248201527f4552433732313a20617070726f766520746f2063616c6c65720000000000000060448201526064016104f8565b6001600160a01b03838116600081815260056020908152604080832094871680845294825291829020805460ff191686151590811790915591519182527f17307eab39ab6107e8899845ad3d59bd9653f200f220920489ca2b5937696c31910160405180910390a3505050565b611a348484846115f9565b611a4084848484611c50565b610b805760405162461bcd60e51b81526004016104f890612c0f565b60606000611a6983611d4e565b600101905060008167ffffffffffffffff811115611a8957611a8961264a565b6040519080825280601f01601f191660200182016040528015611ab3576020820181803683370190505b5090508181016020015b600019016f181899199a1a9b1b9c1cb0b131b232b360811b600a86061a8153600a8504945084611abd57509392505050565b60006001600160e01b031982166380ac58cd60e01b1480611b2057506001600160e01b03198216635b5e139f60e01b145b806103c557506301ffc9a760e01b6001600160e01b03198316146103c5565b610b8084848484611e26565b6000611ba0826040518060400160405280602081526020017f5361666545524332303a206c6f772d6c6576656c2063616c6c206661696c6564815250856001600160a01b0316611f669092919063ffffffff16565b8051909150156105995780806020019051810190611bbe9190612c61565b6105995760405162461bcd60e51b815260206004820152602a60248201527f5361666545524332303a204552433230206f7065726174696f6e20646964206e6044820152691bdd081cdd58d8d9595960b21b60648201526084016104f8565b611c278383611f75565b611c346000848484611c50565b6105995760405162461bcd60e51b81526004016104f890612c0f565b60006001600160a01b0384163b15611d4657604051630a85bd0160e11b81526001600160a01b0385169063150b7a0290611c94903390899088908890600401612c7e565b6020604051808303816000875af1925050508015611ccf575060408051601f3d908101601f19168201909252611ccc91810190612cbb565b60015b611d2c573d808015611cfd576040519150601f19603f3d011682016040523d82523d6000602084013e611d02565b606091505b508051600003611d245760405162461bcd60e51b81526004016104f890612c0f565b805181602001fd5b6001600160e01b031916630a85bd0160e11b1490506105a7565b5060016105a7565b60008072184f03e93ff9f4daa797ed6e38ed64bf6a1f0160401b8310611d8d5772184f03e93ff9f4daa797ed6e38ed64bf6a1f0160401b830492506040015b6d04ee2d6d415b85acef81000000008310611db9576d04ee2d6d415b85acef8100000000830492506020015b662386f26fc100008310611dd757662386f26fc10000830492506010015b6305f5e1008310611def576305f5e100830492506008015b6127108310611e0357612710830492506004015b60648310611e15576064830492506002015b600a83106103c55760010192915050565b611e328484848461210e565b6001811115611ea15760405162461bcd60e51b815260206004820152603560248201527f455243373231456e756d657261626c653a20636f6e7365637574697665207472604482015274185b9cd9995c9cc81b9bdd081cdd5c1c1bdc9d1959605a1b60648201526084016104f8565b816001600160a01b038516611efd57611ef881600880546000838152600960205260408120829055600182018355919091527ff3f7a9fe364faab93b216da50a3214154f22a0a2b415b23a84c8169e8b636ee30155565b611f20565b836001600160a01b0316856001600160a01b031614611f2057611f208582612196565b6001600160a01b038416611f3c57611f3781612233565b611f5f565b846001600160a01b0316846001600160a01b031614611f5f57611f5f84826122e2565b5050505050565b60606105a78484600085612326565b6001600160a01b038216611fcb5760405162461bcd60e51b815260206004820181905260248201527f4552433732313a206d696e7420746f20746865207a65726f206164647265737360448201526064016104f8565b6000818152600260205260409020546001600160a01b0316156120305760405162461bcd60e51b815260206004820152601c60248201527f4552433732313a20746f6b656e20616c7265616479206d696e7465640000000060448201526064016104f8565b61203e600083836001611b3f565b6000818152600260205260409020546001600160a01b0316156120a35760405162461bcd60e51b815260206004820152601c60248201527f4552433732313a20746f6b656e20616c7265616479206d696e7465640000000060448201526064016104f8565b6001600160a01b038216600081815260036020908152604080832080546001019055848352600290915280822080546001600160a01b0319168417905551839291907fddf252ad1be2c89b69c2b068fc378daa952ba7f163c4a11628f55a4df523b3ef908290a45050565b6001811115610b80576001600160a01b03841615612154576001600160a01b0384166000908152600360205260408120805483929061214e908490612b72565b90915550505b6001600160a01b03831615610b80576001600160a01b0383166000908152600360205260408120805483929061218b908490612b26565b909155505050505050565b600060016121a384610958565b6121ad9190612b72565b600083815260076020526040902054909150808214612200576001600160a01b03841660009081526006602090815260408083208584528252808320548484528184208190558352600790915290208190555b5060009182526007602090815260408084208490556001600160a01b039094168352600681528383209183525290812055565b60085460009061224590600190612b72565b6000838152600960205260408120546008805493945090928490811061226d5761226d612aa4565b90600052602060002001549050806008838154811061228e5761228e612aa4565b60009182526020808320909101929092558281526009909152604080822084905585825281205560088054806122c6576122c6612b85565b6001900381819060005260206000200160009055905550505050565b60006122ed83610958565b6001600160a01b039093166000908152600660209081526040808320868452825280832085905593825260079052919091209190915550565b6060824710156123875760405162461bcd60e51b815260206004820152602660248201527f416464726573733a20696e73756666696369656e742062616c616e636520666f6044820152651c8818d85b1b60d21b60648201526084016104f8565b600080866001600160a01b031685876040516123a39190612cd8565b60006040518083038185875af1925050503d80600081146123e0576040519150601f19603f3d011682016040523d82523d6000602084013e6123e5565b606091505b50915091506123f687838387612401565b979650505050505050565b60608315612470578251600003612469576001600160a01b0385163b6124695760405162461bcd60e51b815260206004820152601d60248201527f416464726573733a2063616c6c20746f206e6f6e2d636f6e747261637400000060448201526064016104f8565b50816105a7565b6105a783838151156124855781518083602001fd5b8060405162461bcd60e51b81526004016104f891906125d8565b8280548282559060005260206000209081019282156124da579160200282015b828111156124da5782518255916020019190600101906124bf565b506124e6929150612540565b5090565b50805460008255906000526020600020908101906114869190612540565b6040518060a00160405280600081526020016060815260200160006001600160a01b0316815260200160008152602001600081525090565b5b808211156124e65760008155600101612541565b6001600160e01b03198116811461148657600080fd5b60006020828403121561257d57600080fd5b8135610fa581612555565b60005b838110156125a357818101518382015260200161258b565b50506000910152565b600081518084526125c4816020860160208601612588565b601f01601f19169290920160200192915050565b602081526000610fa560208301846125ac565b6000602082840312156125fd57600080fd5b5035919050565b80356001600160a01b038116811461261b57600080fd5b919050565b6000806040838503121561263357600080fd5b61263c83612604565b946020939093013593505050565b634e487b7160e01b600052604160045260246000fd5b604051601f8201601f1916810167ffffffffffffffff811182821017156126895761268961264a565b604052919050565b600080600080608085870312156126a757600080fd5b6126b085612604565b935060206126bf818701612604565b935060408601359250606086013567ffffffffffffffff808211156126e357600080fd5b818801915088601f8301126126f757600080fd5b8135818111156127095761270961264a565b61271b601f8201601f19168501612660565b9150808252898482850101111561273157600080fd5b808484018584013760008482840101525080935050505092959194509250565b60008060006060848603121561276657600080fd5b61276f84612604565b925061277d60208501612604565b9150604084013590509250925092565b600082601f83011261279e57600080fd5b8135602067ffffffffffffffff8211156127ba576127ba61264a565b8160051b6127c9828201612660565b92835284810182019282810190878511156127e357600080fd5b83870192505b848310156123f6578235825291830191908301906127e9565b600080600080600060a0868803121561281a57600080fd5b85359450602086013567ffffffffffffffff81111561283857600080fd5b6128448882890161278d565b94505061285360408701612604565b94979396509394606081013594506080013592915050565b60006020828403121561287d57600080fd5b610fa582612604565b801515811461148657600080fd5b600080604083850312156128a757600080fd5b6128b083612604565b915060208301356128c081612886565b809150509250929050565b6000602082840312156128dd57600080fd5b813567ffffffffffffffff8111156128f457600080fd5b6105a78482850161278d565b60208082528251828201528281015160a06040840152805160c0840181905260009291820190839060e08601905b8083101561294e578351825292840192600192909201919084019061292e565b5060408701516001600160a01b0381166060880152935060608701516080870152608087015160a08701528094505050505092915050565b6000806040838503121561299957600080fd5b823567ffffffffffffffff808211156129b157600080fd5b6129bd8683870161278d565b935060208501359150808211156129d357600080fd5b506129e08582860161278d565b9150509250929050565b600080604083850312156129fd57600080fd5b612a0683612604565b9150612a1460208401612604565b90509250929050565b600181811c90821680612a3157607f821691505b602082108103612a5157634e487b7160e01b600052602260045260246000fd5b50919050565b6020808252602d908201527f4552433732313a2063616c6c6572206973206e6f7420746f6b656e206f776e6560408201526c1c881bdc88185c1c1c9bdd9959609a1b606082015260800190565b634e487b7160e01b600052603260045260246000fd5b6001600160a01b039384168152919092166020820152604081019190915260600190565b634e487b7160e01b600052601160045260246000fd5b600060018201612b0657612b06612ade565b5060010190565b600060208284031215612b1f57600080fd5b5051919050565b808201808211156103c5576103c5612ade565b80820281158282048414176103c5576103c5612ade565b600082612b6d57634e487b7160e01b600052601260045260246000fd5b500490565b818103818111156103c5576103c5612ade565b634e487b7160e01b600052603160045260246000fd5b60008351612bad818460208801612588565b835190830190612bc1818360208801612588565b01949350505050565b60208082526025908201527f4552433732313a207472616e736665722066726f6d20696e636f72726563742060408201526437bbb732b960d91b606082015260800190565b60208082526032908201527f4552433732313a207472616e7366657220746f206e6f6e20455243373231526560408201527131b2b4bb32b91034b6b83632b6b2b73a32b960711b606082015260800190565b600060208284031215612c7357600080fd5b8151610fa581612886565b6001600160a01b0385811682528416602082015260408101839052608060608201819052600090612cb1908301846125ac565b9695505050505050565b600060208284031215612ccd57600080fd5b8151610fa581612555565b60008251612cea818460208701612588565b919091019291505056fea26469706673582212205616c7bde73fefecc6d5ed1332a1050e0af0a50701eff1320a14a18e0bc7520064736f6c63430008110033a264697066735822122072eeb0051523abf9c5625d29b1fa6413a7c0d503e141e9fd80c7a400eb1b29ce64736f6c63430008110033",
  "linkReferences": {},
  "deployedLinkReferences": {}
}