{
  "_format": "hh-sol-artifact-1",
  "contractName": "TradingGauge",
  "sourceName": "contracts/protocol/Gauges/TradingGauge.sol",
  "abi": [
    {
      "inputs": [
        {
          "internalType": "contract IAddressesProvider",
          "name": "addressProvider",
          "type": "address"
        },
        {
          "internalType": "address",
          "name": "lpToken_",
          "type": "address"
        }
      ],
      "stateMutability": "nonpayable",
      "type": "constructor"
    },
    {
      "anonymous": false,
      "inputs": [
        {
          "indexed": false,
          "internalType": "address",
          "name": "user",
          "type": "address"
        },
        {
          "indexed": false,
          "internalType": "uint256",
          "name": "lpId",
          "type": "uint256"
        }
      ],
      "name": "DepositLP",
      "type": "event"
    },
    {
      "anonymous": false,
      "inputs": [
        {
          "indexed": false,
          "internalType": "address",
          "name": "user",
          "type": "address"
        },
        {
          "indexed": false,
          "internalType": "uint256",
          "name": "lpId",
          "type": "uint256"
        }
      ],
      "name": "WithdrawLP",
      "type": "event"
    },
    {
      "inputs": [
        {
          "internalType": "address",
          "name": "user",
          "type": "address"
        }
      ],
      "name": "balanceOf",
      "outputs": [
        {
          "internalType": "uint256",
          "name": "",
          "type": "uint256"
        }
      ],
      "stateMutability": "view",
      "type": "function"
    },
    {
      "inputs": [],
      "name": "claim",
      "outputs": [
        {
          "internalType": "uint256",
          "name": "",
          "type": "uint256"
        }
      ],
      "stateMutability": "nonpayable",
      "type": "function"
    },
    {
      "inputs": [
        {
          "internalType": "uint256",
          "name": "lpId",
          "type": "uint256"
        }
      ],
      "name": "deposit",
      "outputs": [],
      "stateMutability": "nonpayable",
      "type": "function"
    },
    {
      "inputs": [
        {
          "internalType": "address",
          "name": "user",
          "type": "address"
        }
      ],
      "name": "kick",
      "outputs": [],
      "stateMutability": "nonpayable",
      "type": "function"
    },
    {
      "inputs": [
        {
          "internalType": "address",
          "name": "user",
          "type": "address"
        },
        {
          "internalType": "uint256",
          "name": "index",
          "type": "uint256"
        }
      ],
      "name": "lpOfOwnerByIndex",
      "outputs": [
        {
          "internalType": "uint256",
          "name": "",
          "type": "uint256"
        }
      ],
      "stateMutability": "view",
      "type": "function"
    },
    {
      "inputs": [],
      "name": "lpToken",
      "outputs": [
        {
          "internalType": "address",
          "name": "",
          "type": "address"
        }
      ],
      "stateMutability": "view",
      "type": "function"
    },
    {
      "inputs": [
        {
          "internalType": "uint256",
          "name": "lpId",
          "type": "uint256"
        }
      ],
      "name": "lpValue",
      "outputs": [
        {
          "internalType": "uint256",
          "name": "",
          "type": "uint256"
        }
      ],
      "stateMutability": "view",
      "type": "function"
    },
    {
      "inputs": [
        {
          "internalType": "address",
          "name": "",
          "type": "address"
        },
        {
          "internalType": "address",
          "name": "",
          "type": "address"
        },
        {
          "internalType": "uint256",
          "name": "",
          "type": "uint256"
        },
        {
          "internalType": "bytes",
          "name": "",
          "type": "bytes"
        }
      ],
      "name": "onERC721Received",
      "outputs": [
        {
          "internalType": "bytes4",
          "name": "",
          "type": "bytes4"
        }
      ],
      "stateMutability": "pure",
      "type": "function"
    },
    {
      "inputs": [
        {
          "internalType": "address",
          "name": "user",
          "type": "address"
        }
      ],
      "name": "userBoost",
      "outputs": [
        {
          "internalType": "uint256",
          "name": "",
          "type": "uint256"
        }
      ],
      "stateMutability": "view",
      "type": "function"
    },
    {
      "inputs": [
        {
          "internalType": "address",
          "name": "user",
          "type": "address"
        }
      ],
      "name": "userLPValue",
      "outputs": [
        {
          "internalType": "uint256",
          "name": "",
          "type": "uint256"
        }
      ],
      "stateMutability": "view",
      "type": "function"
    },
    {
      "inputs": [
        {
          "internalType": "uint256",
          "name": "lpId",
          "type": "uint256"
        }
      ],
      "name": "withdraw",
      "outputs": [],
      "stateMutability": "nonpayable",
      "type": "function"
    },
    {
      "inputs": [],
      "name": "writeTotalWeightHistory",
      "outputs": [],
      "stateMutability": "nonpayable",
      "type": "function"
    }
  ],
  "bytecode": "0x608060405234801561001057600080fd5b50604051620016c4380380620016c48339810160408190526100319161007a565b600080546001600160a01b039384166001600160a01b031991821617909155600a80549290931691161790556100b4565b6001600160a01b038116811461007757600080fd5b50565b6000806040838503121561008d57600080fd5b825161009881610062565b60208401519092506100a981610062565b809150509250929050565b61160080620000c46000396000f3fe608060405234801561001057600080fd5b50600436106100b45760003560e01c806378d2f9841161007157806378d2f9841461019157806387da75ef146101ba5780638813bf9e146101c257806396c55175146101d5578063b6b55f25146101e8578063d02a2bee146101fb57600080fd5b8063019e06ab146100b9578063150b7a02146100df5780632e1a7d4d146101305780634e71d92d146101455780635fcbd2851461014d57806370a0823114610168575b600080fd5b6100cc6100c736600461121f565b61020e565b6040519081526020015b60405180910390f35b6101176100ed36600461124b565b7f150b7a023d4804d13e8c85fb27262cb750cf6ba9f9dd3bb30d90f482ceeb4b1f95945050505050565b6040516001600160e01b031990911681526020016100d6565b61014361013e3660046112ea565b610239565b005b6100cc610492565b600a546040516001600160a01b0390911681526020016100d6565b6100cc610176366004611303565b6001600160a01b031660009081526002602052604090205490565b6100cc61019f366004611303565b6001600160a01b03166000908152600c602052604090205490565b610143610a0f565b6100cc6101d03660046112ea565b610b54565b6101436101e3366004611303565b610c09565b6101436101f63660046112ea565b610d03565b6100cc610209366004611303565b610e75565b6001600160a01b03821660009081526003602090815260408083208484529091529020545b92915050565b6000818152600160205260409020546001600160a01b031633146102af5760405162461bcd60e51b815260206004820152602360248201527f4e6f7420746865206f776e6572206f66206c697175696469747920706f73697460448201526234b7b760e91b606482015260840160405180910390fd5b6000818152600b6020908152604080832054338452600c90925282208054919290916102dc908490611336565b90915550506000818152600b6020526040812054600d805491929091610303908490611336565b9091555050600081815260016020908152604080832080546001600160a01b0319169055600b90915281205561033833610f09565b600a54604051632142170760e11b8152306004820152336024820152604481018390526001600160a01b03909116906342842e0e90606401600060405180830381600087803b15801561038a57600080fd5b505af115801561039e573d6000803e3d6000fd5b5050336000908152600260205260408120549092506103c09150600190611336565b60008381526004602052604090205490915080821461040a573360009081526003602090815260408083208584528252808320548484528184208190558352600490915290208190555b60008381526004602090815260408083208390553380845260038352818420868552835281842084905583526002909152812080546001929061044e908490611336565b909155505060408051338152602081018590527f45ec0244cf2e0c90546c4aff992398e1505d5ce31338249d7f29066169cfdcea91015b60405180910390a1505050565b600061049d33610f09565b60008060009054906101000a90046001600160a01b03166001600160a01b03166308b0308a6040518163ffffffff1660e01b8152600401602060405180830381865afa1580156104f1573d6000803e3d6000fd5b505050506040513d601f19601f820116820180604052508101906105159190611359565b905060008060009054906101000a90046001600160a01b03166001600160a01b03166315b9ba5d6040518163ffffffff1660e01b8152600401602060405180830381865afa15801561056b573d6000803e3d6000fd5b505050506040513d601f19601f8201168201806040525081019061058f9190611359565b604051635487c57760e01b81524260048201529091506000906001600160a01b03841690635487c57790602401602060405180830381865afa1580156105d9573d6000803e3d6000fd5b505050506040513d601f19601f820116820180604052508101906105fd9190611376565b3360009081526005602052604081205491925081900361062257600094505050505090565b6000805b6032811015610a055761063a600185611336565b3360009081526007602052604090205414610a05573360009081526005602090815260408083206006909252822054815481106106795761067961138f565b600091825260208083206040805180820182526002909402909101805484526001015491830182905251635487c57760e01b81529193506001600160a01b038a1691635487c577916106d19160040190815260200190565b602060405180830381865afa1580156106ee573d6000803e3d6000fd5b505050506040513d601f19601f820116820180604052508101906107129190611376565b905061071f600186611336565b336000908152600660205260409020540361080457600981815481106107475761074761138f565b60009182526020909120015482516040516373c4680560e01b8152600481018490526001600160a01b038a16906373c4680590602401602060405180830381865afa15801561079a573d6000803e3d6000fd5b505050506040513d601f19601f820116820180604052508101906107be9190611376565b6107c891906113a5565b6107d291906113bc565b6107dc90856113de565b3360009081526007602052604081208054929650906107fa836113f1565b91905055506109f1565b33600090815260056020908152604080832060069092528220546108299060016113de565b815481106108395761083961138f565b600091825260208083206040805180820182526002909402909101805484526001015491830182905251635487c57760e01b81529193506001600160a01b038c1691635487c577916108919160040190815260200190565b602060405180830381865afa1580156108ae573d6000803e3d6000fd5b505050506040513d601f19601f820116820180604052508101906108d29190611376565b9050828103610900573360009081526006602052604081208054916108f6836113f1565b91905055506109ee565b600983815481106109135761091361138f565b60009182526020909120015484516040516373c4680560e01b8152600481018490526001600160a01b038c16906373c4680590602401602060405180830381865afa158015610966573d6000803e3d6000fd5b505050506040513d601f19601f8201168201806040525081019061098a9190611376565b61099491906113a5565b61099e91906113bc565b6109a890876113de565b33600090815260076020526040902082905595506109c78160016113de565b81036109ee573360009081526006602052604081208054916109e8836113f1565b91905055505b50505b5050806109fd816113f1565b915050610626565b5095945050505050565b60008060009054906101000a90046001600160a01b03166001600160a01b03166308b0308a6040518163ffffffff1660e01b8152600401602060405180830381865afa158015610a63573d6000803e3d6000fd5b505050506040513d601f19601f82011682018060405250810190610a879190611359565b604051635487c57760e01b81524260048201526001600160a01b039190911690635487c57790602401602060405180830381865afa158015610acd573d6000803e3d6000fd5b505050506040513d601f19601f82011682018060405250810190610af19190611376565b905060005b6080811015610b50576009548211610b5057600854600980546001810182556000919091527f6e1540171b6c0c960b71a7020d9f60077f6af931a8bbf590da0223dacf75c7af015580610b48816113f1565b915050610af6565b5050565b600a546040516319ba7e5360e31b81526004810183905260009182916001600160a01b039091169063cdd3f29890602401600060405180830381865afa158015610ba2573d6000803e3d6000fd5b505050506040513d6000823e601f3d908101601f19168201604052610bca919081019061147a565b905060008160800151826000015151610be391906113a5565b905060008260200151821115610bfe57506020820151610c01565b50805b949350505050565b60008060009054906101000a90046001600160a01b03166001600160a01b03166308b0308a6040518163ffffffff1660e01b8152600401602060405180830381865afa158015610c5d573d6000803e3d6000fd5b505050506040513d601f19601f82011682018060405250810190610c819190611359565b60405163cbf9fe5f60e01b81526001600160a01b038481166004830152919091169063cbf9fe5f906024016040805180830381865afa158015610cc8573d6000803e3d6000fd5b505050506040513d601f19601f82011682018060405250810190610cec919061157b565b60200151905042811015610b5057610b5082610f09565b600081815260016020526040812080546001600160a01b03191633179055610d2a82610b54565b6000838152600b60209081526040808320849055338352600c909152812080549293508392909190610d5d9084906113de565b9250508190555080600d6000828254610d7691906113de565b90915550610d85905033610f09565b600a54604051632142170760e11b8152336004820152306024820152604481018490526001600160a01b03909116906342842e0e90606401600060405180830381600087803b158015610dd757600080fd5b505af1158015610deb573d6000803e3d6000fd5b505033600081815260026020818152604080842080546003845282862081875284528286208b90558a865260048452918520829055948452919052825490945060019350610e3a9084906113de565b909155505060408051338152602081018590527fa76194b11cf7b940f18e866ed3382a795bb09ca684db1b957d595417f63151f89101610485565b6001600160a01b0381166000908152600c60205260408120548103610e9c57506000919050565b6001600160a01b0382166000908152600c6020908152604080832054600590925290912080546127109190610ed390600190611336565b81548110610ee357610ee361138f565b906000526020600020906002020160000154610eff91906113a5565b61023391906113bc565b60008060009054906101000a90046001600160a01b03166001600160a01b03166308b0308a6040518163ffffffff1660e01b8152600401602060405180830381865afa158015610f5d573d6000803e3d6000fd5b505050506040513d601f19601f82011682018060405250810190610f819190611359565b6040516370a0823160e01b81526001600160a01b0384811660048301529192506000918316906370a0823190602401602060405180830381865afa158015610fcd573d6000803e3d6000fd5b505050506040513d601f19601f82011682018060405250810190610ff19190611376565b90506000826001600160a01b03166318160ddd6040518163ffffffff1660e01b81526004016020604051808303816000875af1158015611035573d6000803e3d6000fd5b505050506040513d601f19601f820116820180604052508101906110599190611376565b905060008160000361107b5750336000908152600c60205260409020546110f1565b336000908152600c6020526040902054600d546110ee91906127109085906110a5886113886113a5565b6110af91906113a5565b6110b991906113bc565b336000908152600c60205260409020546110d5906113886113a5565b6110df91906113de565b6110e991906113bc565b6111ef565b90505b6040805180820190915260008082526020820152336000908152600560205260409020541561117757336000908152600560205260409020805461113790600190611336565b815481106111475761114761138f565b90600052602060002090600202016040518060400160405290816000820154815260200160018201548152505090505b6040805180820190915282815242602082015281516111969084611336565b600860008282546111a791906113de565b909155506111b59050610a0f565b3360009081526005602090815260408220805460018181018355918452928290208451600290940201928355920151910155505050505050565b60008183106111fe5781611200565b825b9392505050565b6001600160a01b038116811461121c57600080fd5b50565b6000806040838503121561123257600080fd5b823561123d81611207565b946020939093013593505050565b60008060008060006080868803121561126357600080fd5b853561126e81611207565b9450602086013561127e81611207565b935060408601359250606086013567ffffffffffffffff808211156112a257600080fd5b818801915088601f8301126112b657600080fd5b8135818111156112c557600080fd5b8960208285010111156112d757600080fd5b9699959850939650602001949392505050565b6000602082840312156112fc57600080fd5b5035919050565b60006020828403121561131557600080fd5b813561120081611207565b634e487b7160e01b600052601160045260246000fd5b8181038181111561023357610233611320565b805161135481611207565b919050565b60006020828403121561136b57600080fd5b815161120081611207565b60006020828403121561138857600080fd5b5051919050565b634e487b7160e01b600052603260045260246000fd5b808202811582820484141761023357610233611320565b6000826113d957634e487b7160e01b600052601260045260246000fd5b500490565b8082018082111561023357610233611320565b60006001820161140357611403611320565b5060010190565b634e487b7160e01b600052604160045260246000fd5b60405160a0810167ffffffffffffffff811182821017156114435761144361140a565b60405290565b604051601f8201601f1916810167ffffffffffffffff811182821017156114725761147261140a565b604052919050565b6000602080838503121561148d57600080fd5b825167ffffffffffffffff808211156114a557600080fd5b9084019060a082870312156114b957600080fd5b6114c1611420565b8251828111156114d057600080fd5b8301601f810188136114e157600080fd5b8051838111156114f3576114f361140a565b8060051b9350611504868501611449565b818152938201860193868101908a86111561151e57600080fd5b928701925b8584101561153c57835182529287019290870190611523565b8452505050828401518482015261155560408401611349565b604082015260608301516060820152608083015160808201528094505050505092915050565b60006040828403121561158d57600080fd5b6040516040810181811067ffffffffffffffff821117156115b0576115b061140a565b60405282518152602092830151928101929092525091905056fea2646970667358221220283ee4eeeb2cf1beb052d65b4e345a0f8fdb1a21fd9849bf4380d9813a5ed67664736f6c63430008110033",
  "linkReferences": {},
  "deployedLinkReferences": {}
}