{
  "_format": "hh-sol-artifact-1",
  "contractName": "TradingPool",
  "sourceName": "contracts/protocol/Trading/TradingPool.sol",
  "abi": [
    {
      "inputs": [
        {
          "internalType": "contract IAddressesProvider",
          "name": "addressProvider",
          "type": "address"
        },
        {
          "internalType": "address",
          "name": "owner",
          "type": "address"
        },
        {
          "internalType": "address",
          "name": "token",
          "type": "address"
        },
        {
          "internalType": "address",
          "name": "nft",
          "type": "address"
        },
        {
          "internalType": "string",
          "name": "name",
          "type": "string"
        },
        {
          "internalType": "string",
          "name": "symbol",
          "type": "string"
        }
      ],
      "stateMutability": "nonpayable",
      "type": "constructor"
    },
    {
      "anonymous": false,
      "inputs": [
        {
          "indexed": true,
          "internalType": "address",
          "name": "user",
          "type": "address"
        },
        {
          "indexed": true,
          "internalType": "uint256",
          "name": "id",
          "type": "uint256"
        },
        {
          "indexed": false,
          "internalType": "enum DataTypes.LPType",
          "name": "lpType",
          "type": "uint8"
        },
        {
          "indexed": false,
          "internalType": "uint256[]",
          "name": "nftIds",
          "type": "uint256[]"
        },
        {
          "indexed": false,
          "internalType": "uint256",
          "name": "tokenAmount",
          "type": "uint256"
        },
        {
          "indexed": false,
          "internalType": "uint256",
          "name": "spotPrice",
          "type": "uint256"
        },
        {
          "indexed": false,
          "internalType": "address",
          "name": "curve",
          "type": "address"
        },
        {
          "indexed": false,
          "internalType": "uint256",
          "name": "delta",
          "type": "uint256"
        },
        {
          "indexed": false,
          "internalType": "uint256",
          "name": "fee",
          "type": "uint256"
        }
      ],
      "name": "AddLiquidity",
      "type": "event"
    },
    {
      "anonymous": false,
      "inputs": [
        {
          "indexed": true,
          "internalType": "address",
          "name": "owner",
          "type": "address"
        },
        {
          "indexed": true,
          "internalType": "address",
          "name": "approved",
          "type": "address"
        },
        {
          "indexed": true,
          "internalType": "uint256",
          "name": "tokenId",
          "type": "uint256"
        }
      ],
      "name": "Approval",
      "type": "event"
    },
    {
      "anonymous": false,
      "inputs": [
        {
          "indexed": true,
          "internalType": "address",
          "name": "owner",
          "type": "address"
        },
        {
          "indexed": true,
          "internalType": "address",
          "name": "operator",
          "type": "address"
        },
        {
          "indexed": false,
          "internalType": "bool",
          "name": "approved",
          "type": "bool"
        }
      ],
      "name": "ApprovalForAll",
      "type": "event"
    },
    {
      "anonymous": false,
      "inputs": [
        {
          "indexed": true,
          "internalType": "address",
          "name": "user",
          "type": "address"
        },
        {
          "indexed": false,
          "internalType": "uint256[]",
          "name": "nftIds",
          "type": "uint256[]"
        },
        {
          "indexed": false,
          "internalType": "uint256",
          "name": "price",
          "type": "uint256"
        }
      ],
      "name": "Buy",
      "type": "event"
    },
    {
      "anonymous": false,
      "inputs": [
        {
          "indexed": true,
          "internalType": "address",
          "name": "previousOwner",
          "type": "address"
        },
        {
          "indexed": true,
          "internalType": "address",
          "name": "newOwner",
          "type": "address"
        }
      ],
      "name": "OwnershipTransferred",
      "type": "event"
    },
    {
      "anonymous": false,
      "inputs": [
        {
          "indexed": true,
          "internalType": "address",
          "name": "user",
          "type": "address"
        },
        {
          "indexed": true,
          "internalType": "uint256",
          "name": "lpId",
          "type": "uint256"
        }
      ],
      "name": "RemoveLiquidity",
      "type": "event"
    },
    {
      "anonymous": false,
      "inputs": [
        {
          "indexed": true,
          "internalType": "address",
          "name": "user",
          "type": "address"
        },
        {
          "indexed": false,
          "internalType": "uint256[]",
          "name": "nftIds",
          "type": "uint256[]"
        },
        {
          "indexed": false,
          "internalType": "uint256",
          "name": "price",
          "type": "uint256"
        }
      ],
      "name": "Sell",
      "type": "event"
    },
    {
      "anonymous": false,
      "inputs": [
        {
          "indexed": true,
          "internalType": "address",
          "name": "user",
          "type": "address"
        },
        {
          "indexed": true,
          "internalType": "uint256",
          "name": "lpId",
          "type": "uint256"
        },
        {
          "indexed": false,
          "internalType": "uint256",
          "name": "fee",
          "type": "uint256"
        }
      ],
      "name": "SetLpFee",
      "type": "event"
    },
    {
      "anonymous": false,
      "inputs": [
        {
          "indexed": true,
          "internalType": "address",
          "name": "user",
          "type": "address"
        },
        {
          "indexed": true,
          "internalType": "uint256",
          "name": "lpId",
          "type": "uint256"
        },
        {
          "indexed": false,
          "internalType": "address",
          "name": "curve",
          "type": "address"
        },
        {
          "indexed": false,
          "internalType": "uint256",
          "name": "delta",
          "type": "uint256"
        }
      ],
      "name": "SetLpPricingCurve",
      "type": "event"
    },
    {
      "anonymous": false,
      "inputs": [
        {
          "indexed": true,
          "internalType": "address",
          "name": "user",
          "type": "address"
        },
        {
          "indexed": true,
          "internalType": "uint256",
          "name": "lpId",
          "type": "uint256"
        },
        {
          "indexed": false,
          "internalType": "uint256",
          "name": "spotPrice",
          "type": "uint256"
        }
      ],
      "name": "SetLpSpotPrice",
      "type": "event"
    },
    {
      "anonymous": false,
      "inputs": [
        {
          "indexed": true,
          "internalType": "address",
          "name": "from",
          "type": "address"
        },
        {
          "indexed": true,
          "internalType": "address",
          "name": "to",
          "type": "address"
        },
        {
          "indexed": true,
          "internalType": "uint256",
          "name": "tokenId",
          "type": "uint256"
        }
      ],
      "name": "Transfer",
      "type": "event"
    },
    {
      "inputs": [],
      "name": "MAX_FEE",
      "outputs": [
        {
          "internalType": "uint256",
          "name": "",
          "type": "uint256"
        }
      ],
      "stateMutability": "view",
      "type": "function"
    },
    {
      "inputs": [
        {
          "internalType": "address",
          "name": "receiver",
          "type": "address"
        },
        {
          "internalType": "enum DataTypes.LPType",
          "name": "lpType",
          "type": "uint8"
        },
        {
          "internalType": "uint256[]",
          "name": "nftIds",
          "type": "uint256[]"
        },
        {
          "internalType": "uint256",
          "name": "tokenAmount",
          "type": "uint256"
        },
        {
          "internalType": "uint256",
          "name": "spotPrice",
          "type": "uint256"
        },
        {
          "internalType": "address",
          "name": "curve",
          "type": "address"
        },
        {
          "internalType": "uint256",
          "name": "delta",
          "type": "uint256"
        },
        {
          "internalType": "uint256",
          "name": "fee",
          "type": "uint256"
        }
      ],
      "name": "addLiquidity",
      "outputs": [],
      "stateMutability": "nonpayable",
      "type": "function"
    },
    {
      "inputs": [
        {
          "internalType": "address",
          "name": "to",
          "type": "address"
        },
        {
          "internalType": "uint256",
          "name": "tokenId",
          "type": "uint256"
        }
      ],
      "name": "approve",
      "outputs": [],
      "stateMutability": "nonpayable",
      "type": "function"
    },
    {
      "inputs": [
        {
          "internalType": "address",
          "name": "owner",
          "type": "address"
        }
      ],
      "name": "balanceOf",
      "outputs": [
        {
          "internalType": "uint256",
          "name": "",
          "type": "uint256"
        }
      ],
      "stateMutability": "view",
      "type": "function"
    },
    {
      "inputs": [
        {
          "internalType": "address",
          "name": "onBehalfOf",
          "type": "address"
        },
        {
          "internalType": "uint256[]",
          "name": "nftIds",
          "type": "uint256[]"
        },
        {
          "internalType": "uint256",
          "name": "maximumPrice",
          "type": "uint256"
        }
      ],
      "name": "buy",
      "outputs": [
        {
          "internalType": "uint256",
          "name": "",
          "type": "uint256"
        }
      ],
      "stateMutability": "nonpayable",
      "type": "function"
    },
    {
      "inputs": [
        {
          "internalType": "uint256",
          "name": "tokenId",
          "type": "uint256"
        }
      ],
      "name": "getApproved",
      "outputs": [
        {
          "internalType": "address",
          "name": "",
          "type": "address"
        }
      ],
      "stateMutability": "view",
      "type": "function"
    },
    {
      "inputs": [
        {
          "internalType": "uint256",
          "name": "lpId",
          "type": "uint256"
        }
      ],
      "name": "getLP",
      "outputs": [
        {
          "components": [
            {
              "internalType": "enum DataTypes.LPType",
              "name": "lpType",
              "type": "uint8"
            },
            {
              "internalType": "uint256[]",
              "name": "nftIds",
              "type": "uint256[]"
            },
            {
              "internalType": "uint256",
              "name": "tokenAmount",
              "type": "uint256"
            },
            {
              "internalType": "uint256",
              "name": "spotPrice",
              "type": "uint256"
            },
            {
              "internalType": "address",
              "name": "curve",
              "type": "address"
            },
            {
              "internalType": "uint256",
              "name": "delta",
              "type": "uint256"
            },
            {
              "internalType": "uint256",
              "name": "fee",
              "type": "uint256"
            }
          ],
          "internalType": "struct DataTypes.LiquidityPair",
          "name": "",
          "type": "tuple"
        }
      ],
      "stateMutability": "view",
      "type": "function"
    },
    {
      "inputs": [],
      "name": "getNFT",
      "outputs": [
        {
          "internalType": "address",
          "name": "",
          "type": "address"
        }
      ],
      "stateMutability": "view",
      "type": "function"
    },
    {
      "inputs": [],
      "name": "getToken",
      "outputs": [
        {
          "internalType": "address",
          "name": "",
          "type": "address"
        }
      ],
      "stateMutability": "view",
      "type": "function"
    },
    {
      "inputs": [
        {
          "internalType": "address",
          "name": "owner",
          "type": "address"
        },
        {
          "internalType": "address",
          "name": "operator",
          "type": "address"
        }
      ],
      "name": "isApprovedForAll",
      "outputs": [
        {
          "internalType": "bool",
          "name": "",
          "type": "bool"
        }
      ],
      "stateMutability": "view",
      "type": "function"
    },
    {
      "inputs": [],
      "name": "name",
      "outputs": [
        {
          "internalType": "string",
          "name": "",
          "type": "string"
        }
      ],
      "stateMutability": "view",
      "type": "function"
    },
    {
      "inputs": [
        {
          "internalType": "uint256",
          "name": "nftId",
          "type": "uint256"
        }
      ],
      "name": "nftToLp",
      "outputs": [
        {
          "internalType": "uint256",
          "name": "",
          "type": "uint256"
        }
      ],
      "stateMutability": "view",
      "type": "function"
    },
    {
      "inputs": [
        {
          "internalType": "address",
          "name": "",
          "type": "address"
        },
        {
          "internalType": "address",
          "name": "",
          "type": "address"
        },
        {
          "internalType": "uint256",
          "name": "",
          "type": "uint256"
        },
        {
          "internalType": "bytes",
          "name": "",
          "type": "bytes"
        }
      ],
      "name": "onERC721Received",
      "outputs": [
        {
          "internalType": "bytes4",
          "name": "",
          "type": "bytes4"
        }
      ],
      "stateMutability": "nonpayable",
      "type": "function"
    },
    {
      "inputs": [],
      "name": "owner",
      "outputs": [
        {
          "internalType": "address",
          "name": "",
          "type": "address"
        }
      ],
      "stateMutability": "view",
      "type": "function"
    },
    {
      "inputs": [
        {
          "internalType": "uint256",
          "name": "tokenId",
          "type": "uint256"
        }
      ],
      "name": "ownerOf",
      "outputs": [
        {
          "internalType": "address",
          "name": "",
          "type": "address"
        }
      ],
      "stateMutability": "view",
      "type": "function"
    },
    {
      "inputs": [
        {
          "internalType": "uint256",
          "name": "lpId",
          "type": "uint256"
        }
      ],
      "name": "removeLiquidity",
      "outputs": [],
      "stateMutability": "nonpayable",
      "type": "function"
    },
    {
      "inputs": [
        {
          "internalType": "uint256[]",
          "name": "lpIds",
          "type": "uint256[]"
        }
      ],
      "name": "removeLiquidityBatch",
      "outputs": [],
      "stateMutability": "nonpayable",
      "type": "function"
    },
    {
      "inputs": [],
      "name": "renounceOwnership",
      "outputs": [],
      "stateMutability": "nonpayable",
      "type": "function"
    },
    {
      "inputs": [
        {
          "internalType": "address",
          "name": "from",
          "type": "address"
        },
        {
          "internalType": "address",
          "name": "to",
          "type": "address"
        },
        {
          "internalType": "uint256",
          "name": "tokenId",
          "type": "uint256"
        }
      ],
      "name": "safeTransferFrom",
      "outputs": [],
      "stateMutability": "nonpayable",
      "type": "function"
    },
    {
      "inputs": [
        {
          "internalType": "address",
          "name": "from",
          "type": "address"
        },
        {
          "internalType": "address",
          "name": "to",
          "type": "address"
        },
        {
          "internalType": "uint256",
          "name": "tokenId",
          "type": "uint256"
        },
        {
          "internalType": "bytes",
          "name": "data",
          "type": "bytes"
        }
      ],
      "name": "safeTransferFrom",
      "outputs": [],
      "stateMutability": "nonpayable",
      "type": "function"
    },
    {
      "inputs": [
        {
          "internalType": "address",
          "name": "onBehalfOf",
          "type": "address"
        },
        {
          "internalType": "uint256[]",
          "name": "nftIds",
          "type": "uint256[]"
        },
        {
          "internalType": "uint256[]",
          "name": "liquidityPairs",
          "type": "uint256[]"
        },
        {
          "internalType": "uint256",
          "name": "minimumPrice",
          "type": "uint256"
        }
      ],
      "name": "sell",
      "outputs": [
        {
          "internalType": "uint256",
          "name": "",
          "type": "uint256"
        }
      ],
      "stateMutability": "nonpayable",
      "type": "function"
    },
    {
      "inputs": [
        {
          "internalType": "address",
          "name": "operator",
          "type": "address"
        },
        {
          "internalType": "bool",
          "name": "approved",
          "type": "bool"
        }
      ],
      "name": "setApprovalForAll",
      "outputs": [],
      "stateMutability": "nonpayable",
      "type": "function"
    },
    {
      "inputs": [
        {
          "internalType": "uint256",
          "name": "lpId",
          "type": "uint256"
        },
        {
          "internalType": "uint256",
          "name": "fee",
          "type": "uint256"
        }
      ],
      "name": "setLpFee",
      "outputs": [],
      "stateMutability": "nonpayable",
      "type": "function"
    },
    {
      "inputs": [
        {
          "internalType": "uint256",
          "name": "lpId",
          "type": "uint256"
        },
        {
          "internalType": "address",
          "name": "curve",
          "type": "address"
        },
        {
          "internalType": "uint256",
          "name": "delta",
          "type": "uint256"
        }
      ],
      "name": "setLpPricingCurve",
      "outputs": [],
      "stateMutability": "nonpayable",
      "type": "function"
    },
    {
      "inputs": [
        {
          "internalType": "uint256",
          "name": "lpId",
          "type": "uint256"
        },
        {
          "internalType": "uint256",
          "name": "spotPrice",
          "type": "uint256"
        }
      ],
      "name": "setLpSpotPrice",
      "outputs": [],
      "stateMutability": "nonpayable",
      "type": "function"
    },
    {
      "inputs": [
        {
          "internalType": "bool",
          "name": "paused",
          "type": "bool"
        }
      ],
      "name": "setPause",
      "outputs": [],
      "stateMutability": "nonpayable",
      "type": "function"
    },
    {
      "inputs": [
        {
          "internalType": "bytes4",
          "name": "interfaceId",
          "type": "bytes4"
        }
      ],
      "name": "supportsInterface",
      "outputs": [
        {
          "internalType": "bool",
          "name": "",
          "type": "bool"
        }
      ],
      "stateMutability": "view",
      "type": "function"
    },
    {
      "inputs": [],
      "name": "symbol",
      "outputs": [
        {
          "internalType": "string",
          "name": "",
          "type": "string"
        }
      ],
      "stateMutability": "view",
      "type": "function"
    },
    {
      "inputs": [
        {
          "internalType": "uint256",
          "name": "index",
          "type": "uint256"
        }
      ],
      "name": "tokenByIndex",
      "outputs": [
        {
          "internalType": "uint256",
          "name": "",
          "type": "uint256"
        }
      ],
      "stateMutability": "view",
      "type": "function"
    },
    {
      "inputs": [
        {
          "internalType": "address",
          "name": "owner",
          "type": "address"
        },
        {
          "internalType": "uint256",
          "name": "index",
          "type": "uint256"
        }
      ],
      "name": "tokenOfOwnerByIndex",
      "outputs": [
        {
          "internalType": "uint256",
          "name": "",
          "type": "uint256"
        }
      ],
      "stateMutability": "view",
      "type": "function"
    },
    {
      "inputs": [
        {
          "internalType": "uint256",
          "name": "tokenId",
          "type": "uint256"
        }
      ],
      "name": "tokenURI",
      "outputs": [
        {
          "internalType": "string",
          "name": "",
          "type": "string"
        }
      ],
      "stateMutability": "view",
      "type": "function"
    },
    {
      "inputs": [],
      "name": "totalSupply",
      "outputs": [
        {
          "internalType": "uint256",
          "name": "",
          "type": "uint256"
        }
      ],
      "stateMutability": "view",
      "type": "function"
    },
    {
      "inputs": [
        {
          "internalType": "address",
          "name": "from",
          "type": "address"
        },
        {
          "internalType": "address",
          "name": "to",
          "type": "address"
        },
        {
          "internalType": "uint256",
          "name": "tokenId",
          "type": "uint256"
        }
      ],
      "name": "transferFrom",
      "outputs": [],
      "stateMutability": "nonpayable",
      "type": "function"
    },
    {
      "inputs": [
        {
          "internalType": "address",
          "name": "newOwner",
          "type": "address"
        }
      ],
      "name": "transferOwnership",
      "outputs": [],
      "stateMutability": "nonpayable",
      "type": "function"
    }
  ],
  "bytecode": "0x608060408181523462000489576200461680380380916200002182866200048e565b8439820160c083820312620004895782516001600160a01b0380821691829003620004895760209262000056848701620004b2565b9362000064868801620004b2565b966200007360608201620004b2565b608082015190936001600160401b039290918381116200048957826200009b918301620004c7565b9160a08201518481116200048957620000b59201620004c7565b91815181811162000473576000938454916001948584811c9416801562000468575b8885101462000454578190601f9485811162000401575b5088908583116001146200039d57889262000391575b5050600019600383901b1c191690851b1785555b80519283116200037d5783548481811c9116801562000372575b878210146200035e579081838594931162000309575b5086918311600114620002a557859262000299575b5050600019600383901b1c191690821b1781555b6200017c336200053e565b600b55865163650a387560e11b81528281600481895afa9182156200028e579081869362000249575b5050163303620001f1575081620001e3959660018060a01b03199485600c541617600c551683600d541617600d551690600e541617600e556200053e565b5161408e9081620005888239f35b60849086519062461bcd60e51b82526004820152602c60248201527f54726164696e6720506f6f6c206d75737420626520637265617465642074687260448201526b6f75676820466163746f727960a01b6064820152fd5b915091508282813d831162000286575b6200026581836200048e565b810103126200028357506200027b8491620004b2565b3880620001a5565b80fd5b503d62000259565b8851903d90823e3d90fd5b0151905038806200015d565b8486528686208594509190601f198416875b89828210620002f25750508411620002d8575b505050811b01815562000171565b015160001960f88460031b161c19169055388080620002ca565b8385015186558897909501949384019301620002b7565b909192508486528686208380860160051c82019289871062000354575b91869588929594930160051c01915b8281106200034557505062000148565b88815586955087910162000335565b9250819262000326565b634e487b7160e01b86526022600452602486fd5b90607f169062000132565b634e487b7160e01b85526041600452602485fd5b01519050388062000104565b8880528989208894509190601f1984168a5b8c828210620003ea5750508411620003d0575b505050811b01855562000118565b015160001960f88460031b161c19169055388080620003c2565b8385015186558b97909501949384019301620003af565b9091508780528888208580850160051c8201928b86106200044a575b918991869594930160051c01915b8281106200043b575050620000ee565b8a81558594508991016200042b565b925081926200041d565b634e487b7160e01b87526022600452602487fd5b93607f1693620000d7565b634e487b7160e01b600052604160045260246000fd5b600080fd5b601f909101601f19168101906001600160401b038211908210176200047357604052565b51906001600160a01b03821682036200048957565b919080601f8401121562000489578251906001600160401b03821162000473576040519160209162000503601f8301601f19168401856200048e565b818452828287010111620004895760005b8181106200052a57508260009394955001015290565b858101830151848201840152820162000514565b600a80546001600160a01b039283166001600160a01b0319821681179092559091167f8be0079c531659141344cd1fd0a4f28419497f9722a3daafe3b4186f6b6457e0600080a356fe6080604052600436101561001257600080fd5b60003560e01c806301ffc9a71461023757806306fdde0314610232578063081812fc1461022d578063095ea7b314610228578063150b7a021461022357806318160ddd1461021e57806321df0da71461021957806323b872dd146102145780632f745c591461020f57806342842e0e1461020a5780634765f2451461020557806349591b51146102005780634f6ccce7146101fb5780635460d849146101f657806356d131ce146101f15780636352211e146101ec5780636d207b1a146101e757806370a08231146101e2578063715018a6146101dd57806388a6360e146101d85780638da5cb5b146101d357806395d89b41146101ce5780639c8f9f23146101c95780639debf34d146101c4578063a22cb465146101bf578063b31f0d62146101ba578063b88d4fde146101b5578063bc063e1a146101b0578063bedb86fb146101ab578063c4d6b3e5146101a6578063c87b56dd146101a1578063cdd3f2981461019c578063e985e9c5146101975763f2fde38b1461019257600080fd5b612680565b612618565b612579565b612447565b611f1a565b611ed6565b611eb9565b611e9f565b611894565b6117a0565b61172a565b61159e565b6114dd565b6114b4565b61148b565b61142d565b6113fe565b6111bd565b61119f565b6110eb565b6110bf565b611014565b6108ff565b61085b565b610833565b61077c565b610753565b6106fe565b6106e0565b6106bd565b610485565b610444565b61033a565b610253565b6001600160e01b031981160361024e57565b600080fd5b3461024e57602036600319011261024e5760206004356102728161023c565b63ffffffff60e01b1663780e9d6360e01b8114908115610298575b506040519015158152f35b6380ac58cd60e01b8114915081156102ca575b81156102b9575b503861028d565b6301ffc9a760e01b149050386102b2565b635b5e139f60e01b811491506102ab565b600091031261024e57565b919082519283825260005b848110610312575050826000602080949584010152601f8019910116010190565b6020818301810151848301820152016102f1565b9060206103379281815201906102e6565b90565b3461024e5760008060031936011261044157604051908080549060019180831c92808216928315610437575b602092838610851461042357858852602088019490811561040257506001146103aa575b6103a68761039a818903826105de565b60405191829182610326565b0390f35b6000805294509192917f290decd9548b62a8d60345a988386fc84ba6bc95484008f6362f93160ef3e5635b8386106103f1575050509101905061039a826103a6388061038a565b8054858701529482019481016103d5565b60ff191685525050505090151560051b01905061039a826103a6388061038a565b634e487b7160e01b82526022600452602482fd5b93607f1693610366565b80fd5b3461024e57602036600319011261024e5760206104626004356128fd565b6040516001600160a01b039091168152f35b6001600160a01b0381160361024e57565b3461024e57604036600319011261024e576004356104a281610474565b6024356104ae81612868565b916001600160a01b038084169082168114610510576104e0936104db9133149081156104e2575b5061288b565b612c7a565b005b6001600160a01b0316600090815260056020908152604080832033845290915290205460ff169050386104d5565b60405162461bcd60e51b815260206004820152602160248201527f4552433732313a20617070726f76616c20746f2063757272656e74206f776e656044820152603960f91b6064820152608490fd5b634e487b7160e01b600052604160045260246000fd5b6001600160401b03811161058857604052565b61055f565b60e081019081106001600160401b0382111761058857604052565b604081019081106001600160401b0382111761058857604052565b602081019081106001600160401b0382111761058857604052565b90601f801991011681019081106001600160401b0382111761058857604052565b6040519061060c826105a8565b565b6040519061060c8261058d565b6001600160401b03811161058857601f01601f191660200190565b90608060031983011261024e5760043561064f81610474565b9160243561065c81610474565b91604435916064356001600160401b03811161024e578160238201121561024e5780600401359061068c8261061b565b9261069a60405194856105de565b8284526024838301011161024e5781600092602460209301838601378301015290565b3461024e576106cb36610636565b505050506020604051630a85bd0160e11b8152f35b3461024e57600036600319011261024e576020600854604051908152f35b3461024e57600036600319011261024e57600d546040516001600160a01b039091168152602090f35b606090600319011261024e5760043561073f81610474565b9060243561074c81610474565b9060443590565b3461024e576104e061076436610727565b916107776107728433612a40565b61293b565b612b12565b3461024e57604036600319011261024e5760043561079981610474565b602435906107a6816127a5565b8210156107da576001600160a01b031660009081526006602090815260408083209383529281529082902054915191825290f35b60405162461bcd60e51b815260206004820152602b60248201527f455243373231456e756d657261626c653a206f776e657220696e646578206f7560448201526a74206f6620626f756e647360a81b6064820152608490fd5b3461024e576104e061084436610727565b9060405192610852846105c3565b6000845261299d565b3461024e57604036600319011261024e5760043560243561088e6001600160a01b0361088684612868565b163314612fb9565b81600052600f602052806006604060002001556040519081527f6876b53468ceb1db2a0a6fe84eef2468841e8235b3bbc6d406685e95e190f39860203392a3005b9181601f8401121561024e578235916001600160401b03831161024e576020808501948460051b01011161024e57565b3461024e57608036600319011261024e5761091b600435610474565b6001600160401b0360243581811161024e5761093b9036906004016108cf565b9160443590811161024e576109549036906004016108cf565b61095c613509565b600c5461096f60ff8260a01c1615612ffc565b61097a828614613b59565b610985851515613bbc565b336004356001600160a01b031603610faa575b5060009182916109a6612ebb565b5082915b868310610c5657505050816109be91613a8d565b916109cd606435841015613d12565b600d546109f790849033906109f2906001600160a01b03165b6001600160a01b031690565b6138e7565b600d54610a0c906001600160a01b03166109e6565b600c54909290610a24906001600160a01b03166109e6565b9260409384519163c891317360e01b928381526020948582600481875afa918215610bb9576004948791600094610c37575b50895163650a387560e11b815295869182905afa938415610bb9576004948791600091610c1a575b50895163a5a4103160e01b815295869182906001600160a01b03165afa938415610bb957610aca94610ac492610abc92600092610beb575b5061338a565b612710900490565b916138e7565b600c548290610ae1906001600160a01b03166109e6565b91600486518094819382525afa918215610bb957600092610bbe575b5050600d546001600160a01b039081169116803b1561024e5783516354b94c2f60e11b81526001600160a01b039290921660048301526000908290602490829084905af18015610bb9576103a6957feb3c528adebc70d317bef09706905761642981ebf9def9aafdc40f404e49346a928692610ba0575b50610b858551928392339684613b3c565b0390a2610b926001600b55565b519081529081906020820190565b80610bad610bb392610575565b806102db565b38610b74565b612d4f565b610bdd9250803d10610be4575b610bd581836105de565b810190613070565b3880610afd565b503d610bcb565b610c0c919250893d8b11610c13575b610c0481836105de565b810190613039565b9038610ab6565b503d610bfa565b610c319150823d8411610be457610bd581836105de565b38610a7e565b610c4f919450823d8411610be457610bd581836105de565b9238610a56565b90919392610c76610c6886898961330c565b35610c71613c72565b614000565b600e54610c8d906109e6906001600160a01b031681565b610c9886898961330c565b3590803b1561024e57604051632142170760e11b8152600480356001600160a01b031690820152306024820152604481019290925260009082908183816064810103925af18015610bb957610f97575b50610cf485848461330c565b35946004610d14610d0f88600052600f602052604060002090565b612f4f565b96610d3560028951610d25816124b4565b610d2e816124b4565b1415613cab565b610d4b610abc60608a015160c08b01519061338a565b600c54602090610d63906001600160a01b03166109e6565b60405163650a387560e11b815294859182905afa928315610bb957600493602091600091610f7a575b5060405163a5a4103160e01b815294859182906001600160a01b03165afa988915610bb957610e2e8c96610e2984610e1f8f9e602097610dee610de2610abc610df494610e9f9e600091610f5d575b508461338a565b9660608a01519061305e565b9f61305e565b9e610e188b60019d8e610e118d600052600f602052604060002090565b019361330c565b3590613cef565b6060850151613a8d565b61305e565b610e506002610e4786600052600f602052604060002090565b01918254613a8d565b90556080810151610e6b906109e6906001600160a01b031681565b60a0606083015192015191604051809681948293633698f96560e11b84526004840160209093929193604081019481520152565b03915afa918215610bb957610f3794610f3293610ef292600091610f3e575b506003610ed585600052600f602052604060002090565b0155610eeb83600052600f602052604060002090565b0154613a7e565b610efa6105ff565b9182526020820152610f21610f10848c8c61330c565b356000526010602052604060002090565b906020600191805184550151910155565b6132fd565b91906109aa565b610f57915060203d602011610c1357610c0481836105de565b38610ebe565b610f7491508d3d8f11610c1357610c0481836105de565b38610ddb565b610f919150823d8411610be457610bd581836105de565b38610d8c565b80610bad610fa492610575565b38610ce8565b60405163725c9c4960e01b815290602090829060049082906001600160a01b03165afa8015610bb957610ff091600091610ff6575b506001600160a01b03163314613c08565b38610998565b61100e915060203d8111610be457610bd581836105de565b38610fdf565b3461024e57602036600319011261024e576004356008548110156110655760086000527ff3f7a9fe364faab93b216da50a3214154f22a0a2b415b23a84c8169e8b636ee30154604051908152602090f35b60405162461bcd60e51b815260206004820152602c60248201527f455243373231456e756d657261626c653a20676c6f62616c20696e646578206f60448201526b7574206f6620626f756e647360a01b6064820152608490fd5b3461024e57602036600319011261024e5760043560005260106020526020604060002054604051908152f35b3461024e57606036600319011261024e5760043560243561110b81610474565b7f3d172f139a404912c8ac9294b8c5629d8e27a95381da174d83481b3f80bcc2ea61119a6044356111466001600160a01b0361088687612868565b6000858152600f602052604090206004810180546001600160a01b0319166001600160a01b038716179055819060050155604080516001600160a01b03909516855260208501919091523393918291820190565b0390a3005b3461024e57602036600319011261024e576020610462600435612868565b3461024e57602036600319011261024e57600480356001600160401b03811161024e576111ed90369083016108cf565b9091600c9261120360ff855460a01c1615612ffc565b6000925b80841061121057005b61121b84828461330c565b3594611225613509565b61124361123e61123a835460ff9060a01c1690565b1590565b612ffc565b6112596112526109e688612868565b3314612fb9565b60005b6001908161127489600052600f602052604060002090565b015481101561136357600e54611294906109e6906001600160a01b031681565b6112c06112b683856112b08d600052600f602052604060002090565b01612e9e565b90549060031b1c90565b90803b1561024e5760408051632142170760e11b815230818b0190815233602082015291820193909352600091839182908490829060600103925af18015610bb95761132f6112b68461134b966112b08e610f329761133f97611350575b50600052600f602052604060002090565b6000526010602052604060002090565b60016000918281550155565b61125c565b80610bad61135d92610575565b3861131e565b505094936113f891946113a36113836109e6600d5460018060a01b031690565b600261139984600052600f602052604060002090565b01549033906138e7565b6113bf6113ba82600052600f602052604060002090565b613891565b6113c881613920565b337fdfdd120ded9b7afc0c23dd5310e93aaa3e1c3b9f75af9b805fab3030842439f2600080a3610f326001600b55565b92611207565b3461024e57602036600319011261024e57602061142560043561142081610474565b6127a5565b604051908152f35b3461024e576000806003193601126104415761144761274d565b600a80546001600160a01b0319811690915581906001600160a01b03167f8be0079c531659141344cd1fd0a4f28419497f9722a3daafe3b4186f6b6457e08280a380f35b3461024e57600036600319011261024e57600e546040516001600160a01b039091168152602090f35b3461024e57600036600319011261024e57600a546040516001600160a01b039091168152602090f35b3461024e57600080600319360112610441576040519080600190815480831c92808216928315611594575b6020928386108514610423578588526020880194908115610402575060011461153b576103a68761039a818903826105de565b600160005294509192917fb10e2d527612073b26eecdfd717e6a320cf44b4afac2b0732d9fcbe2b7fa0cf65b838610611583575050509101905061039a826103a6388061038a565b805485870152948201948101611567565b93607f1693611508565b3461024e57602036600319011261024e5760048035906115bc613509565b6115d261123e61123a600c5460ff9060a01c1690565b6115e16112526109e684612868565b60005b600190816115fc85600052600f602052604060002090565b01548110156116bf57600e5461161c906109e6906001600160a01b031681565b6116386112b683856112b089600052600f602052604060002090565b90803b1561024e5760408051632142170760e11b81523087820190815233602082015291820193909352600091839182908490829060600103925af18015610bb95761132f6112b6846116a796610f329561133f956116ac575b506112b08a600052600f602052604060002090565b6115e4565b80610bad6116b992610575565b38611692565b600d5484906116da90611383906001600160a01b03166109e6565b6116f16113ba82600052600f602052604060002090565b6116fa81613920565b337fdfdd120ded9b7afc0c23dd5310e93aaa3e1c3b9f75af9b805fab3030842439f2600080a36104e06001600b55565b3461024e57604036600319011261024e576004356024356117556001600160a01b0361088684612868565b81600052600f602052806003604060002001556040519081527ff59d29be85d17abec043ede6b5d9714c5ae30886615ec30ea76144293309817560203392a3005b8015150361024e57565b3461024e57604036600319011261024e576004356117bd81610474565b6024356117c981611796565b6001600160a01b0382169133831461184f57816118086118199233600052600560205260406000209060018060a01b0316600052602052604060002090565b9060ff801983541691151516179055565b604051901515815233907f17307eab39ab6107e8899845ad3d59bd9653f200f220920489ca2b5937696c3190806020810161119a565b60405162461bcd60e51b815260206004820152601960248201527f4552433732313a20617070726f766520746f2063616c6c6572000000000000006044820152606490fd5b3461024e57606036600319011261024e576118b0600435610474565b6024356001600160401b03811161024e576118cf9036906004016108cf565b906118d8613509565b600c906118f061123e61123a845460ff9060a01c1690565b6118fb8315156139ee565b60009081611907612ebb565b50805b858110611b3857508261191c9161305e565b9261192b604435851115613ada565b600d5461194f908590611946906001600160a01b03166109e6565b3090339061355f565b600d54611964906001600160a01b03166109e6565b815490919061197b906001600160a01b03166109e6565b9160409485519063c891317360e01b9283835260209485846004818a5afa938415610bb9576004978791600096611b19575b508a5163650a387560e11b815298899182905afa968715610bb957600097611afa575b5088519163a5a4103160e01b8352868360048160018060a01b03809c165afa908115610bb9578795610ac4610abc611a1794611a24986109e698600092611ae2575061338a565b546001600160a01b031690565b91600487518094819382525afa918215610bb957600092611ac5575b5050600d546001600160a01b03169116803b1561024e5783516354b94c2f60e11b81526001600160a01b039290921660048301526000908290602490829084905af18015610bb9576103a6957f0306912acbf130bc61cce94222a394a64e258433196a3d3679a9bbfb8973f773928692610ba05750610b858551928392339684613b3c565b611adb9250803d10610be457610bd581836105de565b3880611a40565b610c0c9192508b3d8d11610c1357610c0481836105de565b611b12919750863d8811610be457610bd581836105de565b95386119d0565b611b31919650823d8411610be457610bd581836105de565b94386119ad565b9290611b48610f1085888661330c565b54936004611b63610d0f87600052600f602052604060002090565b95611b8460018851611b74816124b4565b611b7d816124b4565b1415613a3a565b611b9a610abc606089015160c08a01519061338a565b8854909490611bb1906001600160a01b03166109e6565b94602060409687519586809263650a387560e11b82525afa938415610bb957600494602091600091611e82575b50875163a5a4103160e01b815295869182906001600160a01b03165afa908115610bb957611d19602093611cea888f858f8f90611cde6001611cd8611d6e9f8f90611ce598611d1f9f60609886611ca7610f10611c4e610abc8f96611caf97611cc89a600092611e68575061338a565b9f611c8a6112b68a611c8487610eeb81611c7285600052600f602052604060002090565b0193600052600f602052604060002090565b90612e9e565b9684611ca08b600052600f602052604060002090565b019561330c565b015490612e9e565b90919082549060031b91821b91600019901b1916179055565b600052600f602052604060002090565b01613a9a565b015161305e565b613a8d565b611d0c6002611d0389600052600f602052604060002090565b0191825461305e565b905560608c01519061305e565b9761305e565b6080890151909890611d3b906109e6906001600160a01b031681565b60a06060830151920151918751809681948293635d8b487160e11b84526004840160209093929193604081019481520152565b03915afa918215610bb957600092611e40575b50611d98600391600052600f602052604060002090565b0155611dab61133f610f10838a8861330c565b600e54611dc2906109e6906001600160a01b031681565b91611dce82898761330c565b3590833b1561024e5751632142170760e11b815230600480830191909152356001600160a01b031660248201526044810191909152916000908390606490829084905af1918215610bb957611e2892611e2d575b506132fd565b61190a565b80610bad611e3a92610575565b38611e22565b6003919250611e60611d989160203d602011610c1357610c0481836105de565b929150611d81565b6020610c0c9293503d602011610c1357610c0481836105de565b611e999150823d8411610be457610bd581836105de565b38611bde565b3461024e576104e0611eb036610636565b9291909161299d565b3461024e57600036600319011261024e5760206040516123288152f35b3461024e57602036600319011261024e57600435611ef381611796565b611efb61274d565b600c805460ff60a01b191691151560a01b60ff60a01b16919091179055005b3461024e5761010036600319011261024e576004611f388135610474565b60243590600382101561024e576044356001600160401b03811161024e57611f6390369083016108cf565b909260843592611f7460a435610474565b60e43560c435611f82613509565b600c5496611f9660ff8960a01c1615612ffc565b600d54611fad906109e6906001600160a01b031681565b604080516370a0823160e01b815230878201908152919a90929091602091849182908190850103915afa8015610bb957611ff6602091889460009161242a575b5060643561305e565b8b5163650a387560e11b815293909284919082906001600160a01b03165afa918215610bb957869260209160009161240d575b508b5163a880e68b60e01b815293849182906001600160a01b03165afa908115610bb957612060926000926123ec575b5010613085565b612069856124b4565b8461238d5760643515801590612384575b61208390613182565b87516301ffc9a760e01b8152630b2ac51960e01b85820190815260a4356001600160a01b031691906020908290819083010381855afa8015610bb9576120d191600091612365575b506131dc565b8851638926a2f760e01b81528581018481526020908290819083010381855afa8015610bb95761210991600091612346575b50613234565b602089518092632a1582e360e11b8252818061212c8d8b83019190602083019252565b03915afa8015610bb95761214891600091612317575b50613270565b6121566123288411156132b1565b60005b8681106122695761225f61225a898b8a7f969041d1e007e67e329d9a54fcb219f8d0cd65b2f52eb80be1f55167539302a08b8b6122528c8c8c6121b360643530336121ae6109e6600d5460018060a01b031690565b61355f565b61221e6121be61060e565b6121c88882612ef4565b6121d3368b8561331c565b60208201526064358b820152606081018c90526001600160a01b0360a4351660808201528360a08201528460c0820152612219601154600052600f602052604060002090565b613421565b61222b6011548635613685565b601154985198998a9995356001600160a01b0316989596879660a4359360643592896134bc565b0390a36132fd565b601155565b6104e06001600b55565b600e54612280906109e6906001600160a01b031681565b9061228c81898561330c565b3591803b1561024e578a51632142170760e11b815233888201908152306020820152604081019490945292600091849182908490829060600103925af1918215610bb9576122ff92612304575b50610f326011546122e86105ff565b908152826020820152610f21610f10848c8861330c565b612159565b80610bad61231192610575565b386122d9565b612339915060203d60201161233f575b61233181836105de565b8101906131c7565b38612142565b503d612327565b61235f915060203d60201161233f5761233181836105de565b38612103565b61237e915060203d60201161233f5761233181836105de565b386120cb565b5085151561207a565b612396856124b4565b600185036123bf576064351515806123b7575b6123b29061312b565b612083565b5085156123a9565b6123c8856124b4565b6002850361208357851515806123e2575b6123b2906130e0565b50606435156123d9565b61240691925060203d602011610c1357610c0481836105de565b9038612059565b6124249150823d8411610be457610bd581836105de565b38612029565b6124419150833d8511610c1357610c0481836105de565b38611fed565b3461024e57602036600319011261024e5760043560009081526002602052604090205461247e906001600160a01b0316151561281c565b600060405161248c816105c3565b526103a660405161249c816105c3565b600081526040519182916020835260208301906102e6565b600311156124be57565b634e487b7160e01b600052602160045260246000fd5b9060038210156124be5752565b6020918282526101008201926124fa81840183516124d4565b808201519360e06040850152845180915281610120850195019160005b828110612565575050505060c081604060e0930151606085015260608101516080850152612554608082015160a086019060018060a01b03169052565b60a081015182850152015191015290565b835187529581019592810192600101612517565b3461024e57602036600319011261024e57612592612ebb565b50600435600052600f6020526103a660406000206006604051916125b58361058d565b6125c360ff82541684612ef4565b6125cf60018201612f00565b6020840152600281015460408401526003810154606084015260048101546001600160a01b03166080840152600581015460a0840152015460c0820152604051918291826124e1565b3461024e57604036600319011261024e57602060ff61267460043561263c81610474565b6024359061264982610474565b60018060a01b03166000526005845260406000209060018060a01b0316600052602052604060002090565b54166040519015158152f35b3461024e57602036600319011261024e5760043561269d81610474565b6126a561274d565b6001600160a01b039081169081156126f957600a54826bffffffffffffffffffffffff60a01b821617600a55167f8be0079c531659141344cd1fd0a4f28419497f9722a3daafe3b4186f6b6457e0600080a3005b60405162461bcd60e51b815260206004820152602660248201527f4f776e61626c653a206e6577206f776e657220697320746865207a65726f206160448201526564647265737360d01b6064820152608490fd5b600a546001600160a01b0316330361276157565b606460405162461bcd60e51b815260206004820152602060248201527f4f776e61626c653a2063616c6c6572206973206e6f7420746865206f776e65726044820152fd5b6001600160a01b031680156127c557600052600360205260406000205490565b60405162461bcd60e51b815260206004820152602960248201527f4552433732313a2061646472657373207a65726f206973206e6f7420612076616044820152683634b21037bbb732b960b91b6064820152608490fd5b1561282357565b60405162461bcd60e51b815260206004820152601860248201527f4552433732313a20696e76616c696420746f6b656e20494400000000000000006044820152606490fd5b6000908152600260205260409020546001600160a01b031661033781151561281c565b1561289257565b60405162461bcd60e51b815260206004820152603d60248201527f4552433732313a20617070726f76652063616c6c6572206973206e6f7420746f60448201527f6b656e206f776e6572206f7220617070726f76656420666f7220616c6c0000006064820152608490fd5b600081815260026020526040902054612920906001600160a01b0316151561281c565b6000908152600460205260409020546001600160a01b031690565b1561294257565b60405162461bcd60e51b815260206004820152602d60248201527f4552433732313a2063616c6c6572206973206e6f7420746f6b656e206f776e6560448201526c1c881bdc88185c1c1c9bdd9959609a1b6064820152608490fd5b9161060c93916129c4936129b46107728433612a40565b6129bf838383612b12565b612e4c565b612a1c565b60809060208152603260208201527f4552433732313a207472616e7366657220746f206e6f6e20455243373231526560408201527131b2b4bb32b91034b6b83632b6b2b73a32b960711b60608201520190565b15612a2357565b60405162461bcd60e51b815280612a3c600482016129c9565b0390fd5b6001600160a01b0380612a5284612868565b169281831692848414948515612a88575b50508315612a72575b50505090565b612a7e919293506128fd565b1614388080612a6c565b60009081526005602090815260408083206001600160a01b03949094168352929052205460ff1693503880612a63565b15612abf57565b60405162461bcd60e51b815260206004820152602560248201527f4552433732313a207472616e736665722066726f6d20696e636f72726563742060448201526437bbb732b960d91b6064820152608490fd5b612b3690612b1f84612868565b6001600160a01b0382811693909182168414612ab8565b8316928315612c2957612ba882612b518784612c0296613d73565b612b6785612b616109e68a612868565b14612ab8565b612b8e612b7e886000526004602052604060002090565b80546001600160a01b0319169055565b6001600160a01b0316600090815260036020526040902090565b80546000190190556001600160a01b038116600090815260036020526040902060018154019055612be3856000526002602052604060002090565b80546001600160a01b0319166001600160a01b03909216919091179055565b7fddf252ad1be2c89b69c2b068fc378daa952ba7f163c4a11628f55a4df523b3ef600080a4565b60405162461bcd60e51b8152602060048201526024808201527f4552433732313a207472616e7366657220746f20746865207a65726f206164646044820152637265737360e01b6064820152608490fd5b600082815260046020526040902080546001600160a01b0319166001600160a01b0383161790556001600160a01b0380612cb384612868565b169116907f8c5be1e5ebec7d5bd14f71427d1e84f3dd0314c0f7b2291e5b200ac8c7c3b925600080a4565b9081602091031261024e57516103378161023c565b610337939260809260018060a01b0316825260006020830152604082015281606082015201906102e6565b6001600160a01b039182168152911660208201526040810191909152608060608201819052610337929101906102e6565b6040513d6000823e3d90fd5b3d15612d86573d90612d6c8261061b565b91612d7a60405193846105de565b82523d6000602084013e565b606090565b909190803b15612e4457612dbd602091600093604051948580948193630a85bd0160e11b998a84523360048501612cf3565b03926001600160a01b03165af160009181612e14575b50612e0657612de0612d5b565b80519081612e015760405162461bcd60e51b815280612a3c600482016129c9565b602001fd5b6001600160e01b0319161490565b612e3691925060203d8111612e3d575b612e2e81836105de565b810190612cde565b9038612dd3565b503d612e24565b505050600190565b92909190823b15612e7f57612dbd926020926000604051809681958294630a85bd0160e11b9a8b85523360048601612d1e565b50505050600190565b634e487b7160e01b600052603260045260246000fd5b8054821015612eb65760005260206000200190600090565b612e88565b60405190612ec88261058d565b8160c0600091828152606060208201528260408201528260608201528260808201528260a08201520152565b60038210156124be5752565b9060405191828154918282526020928383019160005283600020936000905b828210612f355750505061060c925003836105de565b855484526001958601958895509381019390910190612f1f565b90604051612f5c8161058d565b60c060068294612f7060ff82541685612ef4565b612f7c60018201612f00565b6020850152600281015460408501526003810154606085015260048101546001600160a01b03166080850152600581015460a08501520154910152565b15612fc057565b60405162461bcd60e51b815260206004820152601460248201527326bab9ba1037bbb7102628103837b9b4ba34b7b760611b6044820152606490fd5b1561300357565b60405162461bcd60e51b815260206004820152600e60248201526d141bdbdb081a5cc81c185d5cd95960921b6044820152606490fd5b9081602091031261024e575190565b634e487b7160e01b600052601160045260246000fd5b9190820180921161306b57565b613048565b9081602091031261024e575161033781610474565b1561308c57565b60405162461bcd60e51b815260206004820152602660248201527f54726164696e6720706f6f6c2065786365656473207361666567756172646564604482015265081b1a5b5a5d60d21b6064820152608490fd5b156130e757565b606460405162461bcd60e51b815260206004820152602060248201527f4465706f7369742073686f756c64206f6e6c7920636f6e7461696e204e4654736044820152fd5b1561313257565b60405162461bcd60e51b815260206004820152602260248201527f4465706f7369742073686f756c64206f6e6c7920636f6e7461696e20746f6b656044820152616e7360f01b6064820152608490fd5b1561318957565b60405162461bcd60e51b81526020600482015260166024820152754465706f7369742063616e277420626520656d70747960501b6044820152606490fd5b9081602091031261024e575161033781611796565b156131e357565b60405162461bcd60e51b8152602060048201526024808201527f4375727665206d75737420626520612076616c696420637572766520636f6e746044820152631c9858dd60e21b6064820152608490fd5b1561323b57565b60405162461bcd60e51b815260206004820152600d60248201526c496e76616c69642064656c746160981b6044820152606490fd5b1561327757565b60405162461bcd60e51b8152602060048201526012602482015271496e76616c69642073706f7420707269636560701b6044820152606490fd5b156132b857565b60405162461bcd60e51b815260206004820152601960248201527f466565206d757374206265206c657373207468616e20393025000000000000006044820152606490fd5b600019811461306b5760010190565b9190811015612eb65760051b0190565b9092916001600160401b038411610588578360051b6040519260208094613345828501826105de565b809781520191810192831161024e57905b8282106133635750505050565b81358152908301908301613356565b9060038110156124be5760ff80198354169116179055565b8181029291811591840414171561306b57565b8151916001600160401b03831161058857600160401b83116105885781548383558084106133f8575b50602080910191600052806000209060005b8481106133e6575050505050565b835183820155928101926001016133d8565b6000838152846020822092830192015b8281106134165750506133c6565b818155600101613408565b90805160038110156124be5760069161343c60c09285613372565b61344d60208201516001860161339d565b604081015160028501556060810151600385015560808101516004850180546001600160a01b0319166001600160a01b0390921691909117905560a081015160058501550151910155565b81835290916001600160fb1b03831161024e5760209260051b809284830137010190565b949160c096936134d4876134e5949c9b9a979c6124d4565b60e0602088015260e0870191613498565b604085019890985260608401526001600160a01b0316608083015260a08201520152565b6002600b541461351a576002600b55565b60405162461bcd60e51b815260206004820152601f60248201527f5265656e7472616e637947756172643a207265656e7472616e742063616c6c006044820152606490fd5b6040516323b872dd60e01b60208201526001600160a01b039283166024820152929091166044830152606482019290925261060c916135ab82608481015b03601f1981018452836105de565b604051613609916001600160a01b03166135c4826105a8565b6000806020958685527f5361666545524332303a206c6f772d6c6576656c2063616c6c206661696c656487860152868151910182855af1613603612d5b565b91613800565b8051908161361657505050565b82806136269383010191016131c7565b1561362e5750565b6084906040519062461bcd60e51b82526004820152602a60248201527f5361666545524332303a204552433230206f7065726174696f6e20646964206e6044820152691bdd081cdd58d8d9595960b21b6064820152fd5b90604051613692816105c3565b600081526001600160a01b0383169182156137705761060c93816129c4946136d86136d283600052600260205260018060a01b0360406000205416151590565b156137b4565b6136e182613e10565b6136eb8284613dd8565b60008281526002602052604090205461370e906001600160a01b031615156136d2565b6001600160a01b03831660009081526003602052604090206001815401905561374583612be3846000526002602052604060002090565b60007fddf252ad1be2c89b69c2b068fc378daa952ba7f163c4a11628f55a4df523b3ef8180a4612d8b565b606460405162461bcd60e51b815260206004820152602060248201527f4552433732313a206d696e7420746f20746865207a65726f20616464726573736044820152fd5b156137bb57565b60405162461bcd60e51b815260206004820152601c60248201527f4552433732313a20746f6b656e20616c7265616479206d696e746564000000006044820152606490fd5b919290156138625750815115613814575090565b3b1561381d5790565b60405162461bcd60e51b815260206004820152601d60248201527f416464726573733a2063616c6c20746f206e6f6e2d636f6e74726163740000006044820152606490fd5b8251909150156138755750805190602001fd5b60405162461bcd60e51b8152908190612a3c9060048301610326565b6000908181556001808201805490848155816138ca575b5050508082600260069301558260038201558260048201558260058201550155565b845260208420908101905b818110156138a85784815582016138d5565b60405163a9059cbb60e01b60208201526001600160a01b039092166024830152604482019290925261060c916135ab826064810161359d565b600061392b82612868565b6001600160a01b0390838183161584146139e0576139499150613e10565b61395283613f22565b61395b83612868565b61396f846000526004602052604060002090565b80546001600160a01b03199081169091556001600160a01b0382166000908152600360205260409020841981540190556139b3856000526002602052604060002090565b908154169055167fddf252ad1be2c89b69c2b068fc378daa952ba7f163c4a11628f55a4df523b3ef8280a4565b6139e991613e68565b613949565b156139f557565b60405162461bcd60e51b815260206004820152601c60248201527f4e65656420746f20627579206174206c65617374206f6e65204e4654000000006044820152606490fd5b15613a4157565b60405162461bcd60e51b8152602060048201526015602482015274043616e2774206275792066726f6d20627579204c5605c1b6044820152606490fd5b60001981019190821161306b57565b9190820391821161306b57565b8054908115613ac45760001991820191613ab48383612e9e565b909182549160031b1b1916905555565b634e487b7160e01b600052603160045260246000fd5b15613ae157565b60405162461bcd60e51b815260206004820152602d60248201527f507269636520686967686572207468616e206d6178696d756d2070726963652060448201526c39b2ba10313c9031b0b63632b960991b6064820152608490fd5b939291602091613b5491604087526040870191613498565b930152565b15613b6057565b60405162461bcd60e51b815260206004820152602e60248201527f4e46547320616e64204c6971756964697479205061697273206d75737420686160448201526d0ecca40e6c2daca40d8cadccee8d60931b6064820152608490fd5b15613bc357565b60405162461bcd60e51b815260206004820152601d60248201527f4e65656420746f2073656c6c206174206c65617374206f6e65204e46540000006044820152606490fd5b15613c0f57565b60405162461bcd60e51b815260206004820152603560248201527f4f6e6c792053776170526f757465722063616e2073656c6c206f6e20626568616044820152746c66206f6620616e6f74686572206164647265737360581b6064820152608490fd5b60405190613c7f826105a8565b601a82527f5472616e73666572696e67204e465420257320746f20706f6f6c0000000000006020830152565b15613cb257565b60405162461bcd60e51b8152602060048201526015602482015274043616e27742073656c6c20746f2073656c6c204c5605c1b6044820152606490fd5b90815491600160401b8310156105885782611caf91600161060c95018155612e9e565b15613d1957565b60405162461bcd60e51b815260206004820152602c60248201527f5072696365206c6f776572207468616e206d696e696d756d207072696365207360448201526b32ba10313c9031b0b63632b960a11b6064820152608490fd5b9091906001600160a01b038082169182613db65750613d9183613e10565b831680613da457505061060c9150613f22565b03613dad575050565b61060c91613dd8565b838286168403613dc8575b5050613d91565b613dd191613e68565b3883613dc1565b604090613de4816127a5565b9260009160018060a01b0316825260066020528282208483526020528083832055815260076020522055565b60085481600052600960205280604060002055600160401b811015610588576001810180600855811015612eb65760086000527ff3f7a9fe364faab93b216da50a3214154f22a0a2b415b23a84c8169e8b636ee30155565b90613e72826127a5565b60001981019190821161306b57613eb292613ecd91600094818692835260076020526040832054868103613eda575b506000526007602052604060002090565b556001600160a01b0316600090815260066020526040902090565b9082526020526040812055565b6001600160a01b0385168085526006602081815260408088208b8952825280882054600094855292825280842085895282528088208390559183526007905290205538613ea1565b600880546000199283820182811161306b576000928284526009602052806040852054921015612eb6578484527ff3f7a9fe364faab93b216da50a3214154f22a0a2b415b23a84c8169e8b636ee2928382015491831015612eb6578492613fbe613fcf9388865280837ff3f7a9fe364faab93b216da50a3214154f22a0a2b415b23a84c8169e8b636ee301556000526009602052604060002090565b556000526009602052604060002090565b558254938415613fec5784019380851015612eb657838352015555565b634e487b7160e01b83526031600452602483fd5b60009190829161404560405180926140316020830195632d839cb360e21b87526040602485015260648401906102e6565b90604483015203601f1981018352826105de565b51906a636f6e736f6c652e6c6f675afa5056fea26469706673582212200fbf24e413d9e9bc45b346f1f24e6c1077684ef477bc855a96b6775a1dbdd40764736f6c63430008130033",
  "linkReferences": {},
  "deployedLinkReferences": {}
}