{
  "_format": "hh-sol-artifact-1",
  "contractName": "TradingGauge",
  "sourceName": "contracts/protocol/Gauges/TradingGauge.sol",
  "abi": [
    {
      "inputs": [
        {
          "internalType": "contract IAddressesProvider",
          "name": "addressProvider",
          "type": "address"
        },
        {
          "internalType": "address",
          "name": "lpToken_",
          "type": "address"
        }
      ],
      "stateMutability": "nonpayable",
      "type": "constructor"
    },
    {
      "anonymous": false,
      "inputs": [
        {
          "indexed": true,
          "internalType": "address",
          "name": "user",
          "type": "address"
        },
        {
          "indexed": false,
          "internalType": "uint256",
          "name": "lpId",
          "type": "uint256"
        }
      ],
      "name": "DepositLP",
      "type": "event"
    },
    {
      "anonymous": false,
      "inputs": [
        {
          "indexed": true,
          "internalType": "address",
          "name": "user",
          "type": "address"
        },
        {
          "indexed": false,
          "internalType": "uint256",
          "name": "lpId",
          "type": "uint256"
        }
      ],
      "name": "WithdrawLP",
      "type": "event"
    },
    {
      "inputs": [
        {
          "internalType": "address",
          "name": "user",
          "type": "address"
        }
      ],
      "name": "balanceOf",
      "outputs": [
        {
          "internalType": "uint256",
          "name": "",
          "type": "uint256"
        }
      ],
      "stateMutability": "view",
      "type": "function"
    },
    {
      "inputs": [
        {
          "internalType": "uint256",
          "name": "nftAmount",
          "type": "uint256"
        },
        {
          "internalType": "uint256",
          "name": "tokenAmount",
          "type": "uint256"
        },
        {
          "internalType": "uint256",
          "name": "spotPrice",
          "type": "uint256"
        }
      ],
      "name": "calculateLpValue",
      "outputs": [
        {
          "internalType": "uint256",
          "name": "",
          "type": "uint256"
        }
      ],
      "stateMutability": "pure",
      "type": "function"
    },
    {
      "inputs": [],
      "name": "claim",
      "outputs": [
        {
          "internalType": "uint256",
          "name": "amountToClaim",
          "type": "uint256"
        }
      ],
      "stateMutability": "nonpayable",
      "type": "function"
    },
    {
      "inputs": [
        {
          "internalType": "uint256",
          "name": "lpId",
          "type": "uint256"
        }
      ],
      "name": "deposit",
      "outputs": [],
      "stateMutability": "nonpayable",
      "type": "function"
    },
    {
      "inputs": [
        {
          "internalType": "uint256",
          "name": "tokenId",
          "type": "uint256"
        }
      ],
      "name": "kick",
      "outputs": [],
      "stateMutability": "nonpayable",
      "type": "function"
    },
    {
      "inputs": [
        {
          "internalType": "address",
          "name": "user",
          "type": "address"
        },
        {
          "internalType": "uint256",
          "name": "index",
          "type": "uint256"
        }
      ],
      "name": "lpOfOwnerByIndex",
      "outputs": [
        {
          "internalType": "uint256",
          "name": "",
          "type": "uint256"
        }
      ],
      "stateMutability": "view",
      "type": "function"
    },
    {
      "inputs": [],
      "name": "lpToken",
      "outputs": [
        {
          "internalType": "address",
          "name": "",
          "type": "address"
        }
      ],
      "stateMutability": "view",
      "type": "function"
    },
    {
      "inputs": [
        {
          "internalType": "address",
          "name": "",
          "type": "address"
        },
        {
          "internalType": "address",
          "name": "",
          "type": "address"
        },
        {
          "internalType": "uint256",
          "name": "",
          "type": "uint256"
        },
        {
          "internalType": "bytes",
          "name": "",
          "type": "bytes"
        }
      ],
      "name": "onERC721Received",
      "outputs": [
        {
          "internalType": "bytes4",
          "name": "",
          "type": "bytes4"
        }
      ],
      "stateMutability": "nonpayable",
      "type": "function"
    },
    {
      "inputs": [
        {
          "internalType": "bytes4",
          "name": "interfaceId",
          "type": "bytes4"
        }
      ],
      "name": "supportsInterface",
      "outputs": [
        {
          "internalType": "bool",
          "name": "",
          "type": "bool"
        }
      ],
      "stateMutability": "view",
      "type": "function"
    },
    {
      "inputs": [],
      "name": "totalLPValue",
      "outputs": [
        {
          "internalType": "uint256",
          "name": "",
          "type": "uint256"
        }
      ],
      "stateMutability": "view",
      "type": "function"
    },
    {
      "inputs": [],
      "name": "totalSupply",
      "outputs": [
        {
          "internalType": "uint256",
          "name": "",
          "type": "uint256"
        }
      ],
      "stateMutability": "view",
      "type": "function"
    },
    {
      "inputs": [
        {
          "internalType": "address",
          "name": "user",
          "type": "address"
        }
      ],
      "name": "userBoost",
      "outputs": [
        {
          "internalType": "uint256",
          "name": "",
          "type": "uint256"
        }
      ],
      "stateMutability": "view",
      "type": "function"
    },
    {
      "inputs": [
        {
          "internalType": "address",
          "name": "user",
          "type": "address"
        }
      ],
      "name": "userLPValue",
      "outputs": [
        {
          "internalType": "uint256",
          "name": "",
          "type": "uint256"
        }
      ],
      "stateMutability": "view",
      "type": "function"
    },
    {
      "inputs": [
        {
          "internalType": "address",
          "name": "user",
          "type": "address"
        }
      ],
      "name": "userMaturityMultiplier",
      "outputs": [
        {
          "internalType": "uint256",
          "name": "",
          "type": "uint256"
        }
      ],
      "stateMutability": "view",
      "type": "function"
    },
    {
      "inputs": [
        {
          "internalType": "uint256",
          "name": "lpId",
          "type": "uint256"
        }
      ],
      "name": "withdraw",
      "outputs": [],
      "stateMutability": "nonpayable",
      "type": "function"
    },
    {
      "inputs": [
        {
          "internalType": "uint256[]",
          "name": "lpIds",
          "type": "uint256[]"
        }
      ],
      "name": "withdrawBatch",
      "outputs": [],
      "stateMutability": "nonpayable",
      "type": "function"
    },
    {
      "inputs": [],
      "name": "writeTotalWeightHistory",
      "outputs": [],
      "stateMutability": "nonpayable",
      "type": "function"
    }
  ],
  "bytecode": "0x60806040523480156200001157600080fd5b50604051620022ef380380620022ef833981016040819052620000349162000110565b6001600081815581546001600160a01b038086166001600160a01b0319928316178455600c80549186169190921617905560408051602081019091529081526200008291600b91906200008b565b5050506200014f565b828054828255906000526020600020908101928215620000ce579160200282015b82811115620000ce578251829060ff16905591602001919060010190620000ac565b50620000dc929150620000e0565b5090565b5b80821115620000dc5760008155600101620000e1565b6001600160a01b03811681146200010d57600080fd5b50565b600080604083850312156200012457600080fd5b82516200013181620000f7565b60208401519092506200014481620000f7565b809150509250929050565b612190806200015f6000396000f3fe608060405234801561001057600080fd5b506004361061010b5760003560e01c80635fcbd285116100a25780638b396623116100715780638b396623146102505780639c8d415614610258578063b6b55f251461026b578063ce0cf1a51461027e578063d02a2bee1461029157600080fd5b80635fcbd285146101db57806370a08231146101f657806378d2f9841461021f57806387da75ef1461024857600080fd5b80632e1a7d4d116100de5780632e1a7d4d146101985780633a631ed8146101ad57806348458f25146101c05780634e71d92d146101d357600080fd5b8063019e06ab1461011057806301ffc9a714610136578063150b7a021461015957806318160ddd14610190575b600080fd5b61012361011e366004611c61565b6102a4565b6040519081526020015b60405180910390f35b610149610144366004611c8d565b6102cf565b604051901515815260200161012d565b610177610167366004611d27565b630a85bd0160e11b949350505050565b6040516001600160e01b0319909116815260200161012d565b600454610123565b6101ab6101a6366004611deb565b610304565b005b6101236101bb366004611e04565b61057d565b6101236101ce366004611e21565b610606565b610123610643565b600c546040516001600160a01b03909116815260200161012d565b610123610204366004611e04565b6001600160a01b031660009081526003602052604090205490565b61012361022d366004611e04565b6001600160a01b03166000908152600e602052604090205490565b6101ab610fda565b600f54610123565b6101ab610266366004611e4d565b611116565b6101ab610279366004611deb565b611159565b6101ab61028c366004611deb565b61144e565b61012361029f366004611e04565b6115a5565b6001600160a01b03821660009081526005602090815260408083208484529091529020545b92915050565b60006001600160e01b03198216635fcbd28560e01b14806102c957506301ffc9a760e01b6001600160e01b03198316146102c9565b61030c611645565b6000818152600260205260409020546001600160a01b031633146103775760405162461bcd60e51b815260206004820152601a60248201527f54473a573a4e4f545f4f574e45525f4f465f4c505f544f4b454e00000000000060448201526064015b60405180910390fd5b6000818152600d6020908152604080832054338452600e90925282208054919290916103a4908490611ed8565b90915550506000818152600d6020526040812054600f8054919290916103cb908490611ed8565b9091555050600081815260026020908152604080832080546001600160a01b0319169055600d90915280822091909155600c549051632142170760e11b8152306004820152336024820152604481018390526001600160a01b03909116906342842e0e90606401600060405180830381600087803b15801561044c57600080fd5b505af1158015610460573d6000803e3d6000fd5b5050336000908152600360205260408120549092506104829150600190611ed8565b6000838152600660205260409020549091508082146104cc573360009081526005602090815260408083208584528252808320548484528184208190558352600690915290208190555b600083815260066020908152604080832083905533808452600583528184208685528352818420849055835260039091528120805460019290610510908490611ed8565b9250508190555060016004600082825461052a9190611ed8565b9091555061053990503361169e565b60405183815233907f45ec0244cf2e0c90546c4aff992398e1505d5ce31338249d7f29066169cfdcea9060200160405180910390a2505061057a6001600055565b50565b6001600160a01b0381166000908152600760205260408120548082036105a65750600092915050565b6001600160a01b03831660009081526007602052604090206105ff906105cd600184611ed8565b815481106105dd576105dd611eeb565b906000526020600020906003020160020154426105fa9190611ed8565b611a4e565b9392505050565b6000806106138386611f01565b9050600083851015610626576000610628565b845b90508082116106375781610639565b805b9695505050505050565b600061064e3361169e565b60015460408051630458184560e11b815290516000926001600160a01b0316916308b0308a9160048083019260209291908290030181865afa158015610698573d6000803e3d6000fd5b505050506040513d601f19601f820116820180604052508101906106bc9190611f28565b90506000600160009054906101000a90046001600160a01b03166001600160a01b03166358de9ade6040518163ffffffff1660e01b8152600401602060405180830381865afa158015610713573d6000803e3d6000fd5b505050506040513d601f19601f820116820180604052508101906107379190611f28565b3360009081526007602052604081205491925081900361075b576000935050505090565b33600090815260096020526040812054900361082d5733600090815260076020526040812080546001600160a01b0386169263bc0bc6ba92916107a0576107a0611eeb565b9060005260206000209060030201600201546040518263ffffffff1660e01b81526004016107d091815260200190565b602060405180830381865afa1580156107ed573d6000803e3d6000fd5b505050506040513d601f19601f820116820180604052508101906108119190611f45565b61081c906001611f5e565b336000908152600960205260409020555b6000805b6032811015610ef2573360009081526009602052604090819020549051635e05e35d60e11b81524260048201529092506001600160a01b0386169063bc0bc6ba90602401602060405180830381865afa158015610892573d6000803e3d6000fd5b505050506040513d601f19601f820116820180604052508101906108b69190611f45565b821015610ef2573360009081526007602090815260408083206008909252822054815481106108e7576108e7611eeb565b90600052602060002090600302016040518060600160405290816000820154815260200160018201548152602001600282015481525050905060018461092d9190611ed8565b3360009081526008602052604090205403610a6c576000600b848154811061095757610957611eeb565b90600052602060002001541115610a4757612710600b848154811061097e5761097e611eeb565b90600052602060002001546109939190611f01565b6109a68260400151426105fa9190611ed8565b60208301516040516315a8752360e31b8152306004820152602481018790526001600160a01b0389169063ad43a918906044016020604051808303816000875af11580156109f8573d6000803e3d6000fd5b505050506040513d601f19601f82011682018060405250810190610a1c9190611f45565b610a269190611f01565b610a309190611f01565b610a3a9190611f71565b610a449088611f5e565b96505b336000908152600960205260408120805491610a6283611f93565b9190505550610edf565b3360009081526007602090815260408083206008909252822054610a91906001611f5e565b81548110610aa157610aa1611eeb565b906000526020600020906003020160405180606001604052908160008201548152602001600182015481526020016002820154815250509050866001600160a01b031663bc0bc6ba83604001516040518263ffffffff1660e01b8152600401610b0c91815260200190565b602060405180830381865afa158015610b29573d6000803e3d6000fd5b505050506040513d601f19601f82011682018060405250810190610b4d9190611f45565b6040828101519051635e05e35d60e11b815260048101919091526001600160a01b0389169063bc0bc6ba90602401602060405180830381865afa158015610b98573d6000803e3d6000fd5b505050506040513d601f19601f82011682018060405250810190610bbc9190611f45565b03610be657336000908152600860205260408120805491610bdc83611f93565b9190505550610edd565b6040808201519051635e05e35d60e11b815285916001600160a01b038a169163bc0bc6ba91610c1b9160040190815260200190565b602060405180830381865afa158015610c38573d6000803e3d6000fd5b505050506040513d601f19601f82011682018060405250810190610c5c9190611f45565b03610db3576000600b8581548110610c7657610c76611eeb565b9060005260206000200154118015610c9057508051825111155b15610d7857612710600b8581548110610cab57610cab611eeb565b9060005260206000200154610cc09190611f01565b8260200151610cdc846040015184604001516105fa9190611ed8565b6040516315a8752360e31b8152306004820152602481018890526001600160a01b038a169063ad43a918906044016020604051808303816000875af1158015610d29573d6000803e3d6000fd5b505050506040513d601f19601f82011682018060405250810190610d4d9190611f45565b610d579190611f01565b610d619190611f01565b610d6b9190611f71565b610d759089611f5e565b97505b336000908152600860205260408120805491610d9383611f93565b9091555050336000908152600960205260408120805491610bdc83611f93565b6000600b8581548110610dc857610dc8611eeb565b90600052602060002001541115610ebc57612710600b8581548110610def57610def611eeb565b9060005260206000200154610e049190611f01565b8260200151610e20846040015184604001516105fa9190611ed8565b6040516315a8752360e31b8152306004820152602481018890526001600160a01b038a169063ad43a918906044016020604051808303816000875af1158015610e6d573d6000803e3d6000fd5b505050506040513d601f19601f82011682018060405250810190610e919190611f45565b610e9b9190611f01565b610ea59190611f01565b610eaf9190611f71565b610eb99089611f5e565b97505b336000908152600960205260408120805491610ed783611f93565b91905055505b505b5080610eea81611f93565b915050610831565b508415610fd357600160009054906101000a90046001600160a01b03166001600160a01b03166315b9ba5d6040518163ffffffff1660e01b8152600401602060405180830381865afa158015610f4c573d6000803e3d6000fd5b505050506040513d601f19601f82011682018060405250810190610f709190611f28565b604051631ec9887760e11b8152336004820152602481018790526001600160a01b039190911690633d9310ee90604401600060405180830381600087803b158015610fba57600080fd5b505af1158015610fce573d6000803e3d6000fd5b505050505b5050505090565b60015460408051630458184560e11b815290516000926001600160a01b0316916308b0308a9160048083019260209291908290030181865afa158015611024573d6000803e3d6000fd5b505050506040513d601f19601f820116820180604052508101906110489190611f28565b604051635e05e35d60e11b81524260048201526001600160a01b03919091169063bc0bc6ba90602401602060405180830381865afa15801561108e573d6000803e3d6000fd5b505050506040513d601f19601f820116820180604052508101906110b29190611f45565b905060005b608081101561111257600b5482111561111257600a54600b80546001810182556000919091527f0175b7a638427703f0dbe7bb9bbf987a2551717b34e79f33b5b1008d1fa01db901558061110a81611f93565b9150506110b7565b5050565b60005b818110156111545761114283838381811061113657611136611eeb565b90506020020135610304565b8061114c81611f93565b915050611119565b505050565b611161611645565b600c546040516319ba7e5360e31b8152600481018390526000916001600160a01b03169063cdd3f29890602401600060405180830381865afa1580156111ab573d6000803e3d6000fd5b505050506040513d6000823e601f3d908101601f191682016040526111d3919081019061203b565b90506000815160048111156111ea576111ea6120f5565b14806112085750600281516004811115611206576112066120f5565b145b806112255750600181516004811115611223576112236120f5565b145b6112685760405162461bcd60e51b815260206004820152601460248201527354473a443a494e56414c49445f4c505f5459504560601b604482015260640161036e565b600061128282602001515183604001518460600151610606565b9050600081116112c95760405162461bcd60e51b815260206004820152601260248201527154473a443a4c505f56414c55455f5a45524f60701b604482015260640161036e565b600083815260026020908152604080832080546001600160a01b03191633908117909155600d83528184208590558352600e90915281208054839290611310908490611f5e565b9250508190555080600f60008282546113299190611f5e565b9091555050600c54604051632142170760e11b8152336004820152306024820152604481018590526001600160a01b03909116906342842e0e90606401600060405180830381600087803b15801561138057600080fd5b505af1158015611394573d6000803e3d6000fd5b505033600081815260036020818152604080842080546005845282862081875284528286208c90558b8652600684529185208290559484529190528254909450600193506113e3908490611f5e565b925050819055506001600460008282546113fd9190611f5e565b9091555061140c90503361169e565b60405184815233907fa76194b11cf7b940f18e866ed3382a795bb09ca684db1b957d595417f63151f89060200160405180910390a250505061057a6001600055565b60015460408051630458184560e11b815290516000926001600160a01b0316916308b0308a9160048083019260209291908290030181865afa158015611498573d6000803e3d6000fd5b505050506040513d601f19601f820116820180604052508101906114bc9190611f28565b60405163d68f4dd160e01b81526004810184905290915042906001600160a01b0383169063d68f4dd1906024016040805180830381865afa158015611505573d6000803e3d6000fd5b505050506040513d601f19601f82011682018060405250810190611529919061210b565b602001511015611112576040516331a9108f60e11b815260048101839052611112906001600160a01b03831690636352211e90602401602060405180830381865afa15801561157c573d6000803e3d6000fd5b505050506040513d601f19601f820116820180604052508101906115a09190611f28565b61169e565b6001600160a01b0381166000908152600e602052604081205481036115cc57506000919050565b6001600160a01b0382166000908152600e602090815260408083205460079092529091208054612710919061160390600190611ed8565b8154811061161357611613611eeb565b90600052602060002090600302016001015460026116319190611f01565b61163b9190611f01565b6102c99190611f71565b6002600054036116975760405162461bcd60e51b815260206004820152601f60248201527f5265656e7472616e637947756172643a207265656e7472616e742063616c6c00604482015260640161036e565b6002600055565b60015460408051630458184560e11b815290516000926001600160a01b0316916308b0308a9160048083019260209291908290030181865afa1580156116e8573d6000803e3d6000fd5b505050506040513d601f19601f8201168201806040525081019061170c9190611f28565b9050806001600160a01b03166387da75ef6040518163ffffffff1660e01b8152600401600060405180830381600087803b15801561174957600080fd5b505af115801561175d573d6000803e3d6000fd5b50506040516301924b8d60e71b81526001600160a01b038581166004830152600093508416915063c925c68090602401602060405180830381865afa1580156117aa573d6000803e3d6000fd5b505050506040513d601f19601f820116820180604052508101906117ce9190611f45565b90506000826001600160a01b03166306aba0e16040518163ffffffff1660e01b81526004016020604051808303816000875af1158015611812573d6000803e3d6000fd5b505050506040513d601f19601f820116820180604052508101906118369190611f45565b90506000611842610fda565b8160000361186957506001600160a01b0384166000908152600e60205260409020546118f1565b6001600160a01b0385166000908152600e6020526040902054600f546118ee919061271090859061189c88611388611f01565b6118a69190611f01565b6118b09190611f71565b6001600160a01b0389166000908152600e60205260409020546118d590611388611f01565b6118df9190611f5e565b6118e99190611f71565b611c36565b90505b61191560405180606001604052806000815260200160008152602001600081525090565b6001600160a01b038616600090815260076020526040902054156119a3576001600160a01b0386166000908152600760205260409020805461195990600190611ed8565b8154811061196957611969611eeb565b9060005260206000209060030201604051806060016040529081600082015481526020016001820154815260200160028201548152505090505b604080516060810182526001600160a01b0388166000908152600e602090815290839020548252808201859052429282019290925290820151600a546119ea908590611f5e565b6119f49190611ed8565b600a556001600160a01b039096166000908152600760209081526040808320805460018181018355918552938390208a51600390950201938455918901519183019190915596909601516002909601959095555050505050565b600080600160009054906101000a90046001600160a01b03166001600160a01b03166308b0308a6040518163ffffffff1660e01b8152600401602060405180830381865afa158015611aa4573d6000803e3d6000fd5b505050506040513d601f19601f82011682018060405250810190611ac89190611f28565b6001600160a01b031663dfb1a4d26040518163ffffffff1660e01b8152600401602060405180830381865afa158015611b05573d6000803e3d6000fd5b505050506040513d601f19601f82011682018060405250810190611b299190611f45565b600160009054906101000a90046001600160a01b03166001600160a01b03166358de9ade6040518163ffffffff1660e01b8152600401602060405180830381865afa158015611b7c573d6000803e3d6000fd5b505050506040513d601f19601f82011682018060405250810190611ba09190611f28565b6001600160a01b031663c057beee6040518163ffffffff1660e01b8152600401602060405180830381865afa158015611bdd573d6000803e3d6000fd5b505050506040513d601f19601f82011682018060405250810190611c019190611f45565b611c0b9190611f01565b905080831115611c1f575061271092915050565b80611c2c84612710611f01565b6105ff9190611f71565b6000818310611c4557816105ff565b5090919050565b6001600160a01b038116811461057a57600080fd5b60008060408385031215611c7457600080fd5b8235611c7f81611c4c565b946020939093013593505050565b600060208284031215611c9f57600080fd5b81356001600160e01b0319811681146105ff57600080fd5b634e487b7160e01b600052604160045260246000fd5b60405160e0810167ffffffffffffffff81118282101715611cf057611cf0611cb7565b60405290565b604051601f8201601f1916810167ffffffffffffffff81118282101715611d1f57611d1f611cb7565b604052919050565b60008060008060808587031215611d3d57600080fd5b8435611d4881611c4c565b9350602085810135611d5981611c4c565b935060408601359250606086013567ffffffffffffffff80821115611d7d57600080fd5b818801915088601f830112611d9157600080fd5b813581811115611da357611da3611cb7565b611db5601f8201601f19168501611cf6565b91508082528984828501011115611dcb57600080fd5b808484018584013760008482840101525080935050505092959194509250565b600060208284031215611dfd57600080fd5b5035919050565b600060208284031215611e1657600080fd5b81356105ff81611c4c565b600080600060608486031215611e3657600080fd5b505081359360208301359350604090920135919050565b60008060208385031215611e6057600080fd5b823567ffffffffffffffff80821115611e7857600080fd5b818501915085601f830112611e8c57600080fd5b813581811115611e9b57600080fd5b8660208260051b8501011115611eb057600080fd5b60209290920196919550909350505050565b634e487b7160e01b600052601160045260246000fd5b818103818111156102c9576102c9611ec2565b634e487b7160e01b600052603260045260246000fd5b80820281158282048414176102c9576102c9611ec2565b8051611f2381611c4c565b919050565b600060208284031215611f3a57600080fd5b81516105ff81611c4c565b600060208284031215611f5757600080fd5b5051919050565b808201808211156102c9576102c9611ec2565b600082611f8e57634e487b7160e01b600052601260045260246000fd5b500490565b600060018201611fa557611fa5611ec2565b5060010190565b805160058110611f2357600080fd5b600082601f830112611fcc57600080fd5b8151602067ffffffffffffffff821115611fe857611fe8611cb7565b8160051b611ff7828201611cf6565b928352848101820192828101908785111561201157600080fd5b83870192505b8483101561203057825182529183019190830190612017565b979650505050505050565b60006020828403121561204d57600080fd5b815167ffffffffffffffff8082111561206557600080fd5b9083019060e0828603121561207957600080fd5b612081611ccd565b61208a83611fac565b815260208301518281111561209e57600080fd5b6120aa87828601611fbb565b60208301525060408301516040820152606083015160608201526120d060808401611f18565b608082015260a083015160a082015260c083015160c082015280935050505092915050565b634e487b7160e01b600052602160045260246000fd5b60006040828403121561211d57600080fd5b6040516040810181811067ffffffffffffffff8211171561214057612140611cb7565b60405282518152602092830151928101929092525091905056fea264697066735822122038a4c955297228d8635801c0647c936d0a2d4f5ea389597c9bf52c13540a53d764736f6c63430008130033",
  "linkReferences": {},
  "deployedLinkReferences": {}
}