{
  "_format": "hh-sol-artifact-1",
  "contractName": "TradingGauge",
  "sourceName": "contracts/protocol/Gauges/TradingGauge.sol",
  "abi": [
    {
      "inputs": [
        {
          "internalType": "contract IAddressProvider",
          "name": "addressProvider",
          "type": "address"
        },
        {
          "internalType": "address",
          "name": "lpToken_",
          "type": "address"
        }
      ],
      "stateMutability": "nonpayable",
      "type": "constructor"
    },
    {
      "anonymous": false,
      "inputs": [
        {
          "indexed": true,
          "internalType": "address",
          "name": "user",
          "type": "address"
        },
        {
          "indexed": false,
          "internalType": "uint256",
          "name": "lpId",
          "type": "uint256"
        }
      ],
      "name": "DepositLP",
      "type": "event"
    },
    {
      "anonymous": false,
      "inputs": [
        {
          "indexed": true,
          "internalType": "address",
          "name": "user",
          "type": "address"
        },
        {
          "indexed": false,
          "internalType": "uint256",
          "name": "lpId",
          "type": "uint256"
        }
      ],
      "name": "WithdrawLP",
      "type": "event"
    },
    {
      "inputs": [
        {
          "internalType": "uint256",
          "name": "nftAmount",
          "type": "uint256"
        },
        {
          "internalType": "uint256",
          "name": "tokenAmount",
          "type": "uint256"
        },
        {
          "internalType": "uint256",
          "name": "spotPrice",
          "type": "uint256"
        }
      ],
      "name": "calculateLpValue",
      "outputs": [
        {
          "internalType": "uint256",
          "name": "",
          "type": "uint256"
        }
      ],
      "stateMutability": "pure",
      "type": "function"
    },
    {
      "inputs": [],
      "name": "claim",
      "outputs": [
        {
          "internalType": "uint256",
          "name": "amountToClaim",
          "type": "uint256"
        }
      ],
      "stateMutability": "nonpayable",
      "type": "function"
    },
    {
      "inputs": [
        {
          "internalType": "uint256",
          "name": "lpId",
          "type": "uint256"
        }
      ],
      "name": "deposit",
      "outputs": [],
      "stateMutability": "nonpayable",
      "type": "function"
    },
    {
      "inputs": [
        {
          "internalType": "address",
          "name": "user",
          "type": "address"
        }
      ],
      "name": "getBalanceOf",
      "outputs": [
        {
          "internalType": "uint256",
          "name": "",
          "type": "uint256"
        }
      ],
      "stateMutability": "view",
      "type": "function"
    },
    {
      "inputs": [
        {
          "internalType": "address",
          "name": "user",
          "type": "address"
        },
        {
          "internalType": "uint256",
          "name": "index",
          "type": "uint256"
        }
      ],
      "name": "getLPOfOwnerByIndex",
      "outputs": [
        {
          "internalType": "uint256",
          "name": "",
          "type": "uint256"
        }
      ],
      "stateMutability": "view",
      "type": "function"
    },
    {
      "inputs": [],
      "name": "getLPToken",
      "outputs": [
        {
          "internalType": "address",
          "name": "",
          "type": "address"
        }
      ],
      "stateMutability": "view",
      "type": "function"
    },
    {
      "inputs": [],
      "name": "getTotalLPValue",
      "outputs": [
        {
          "internalType": "uint256",
          "name": "",
          "type": "uint256"
        }
      ],
      "stateMutability": "view",
      "type": "function"
    },
    {
      "inputs": [],
      "name": "getTotalSupply",
      "outputs": [
        {
          "internalType": "uint256",
          "name": "",
          "type": "uint256"
        }
      ],
      "stateMutability": "view",
      "type": "function"
    },
    {
      "inputs": [
        {
          "internalType": "address",
          "name": "user",
          "type": "address"
        }
      ],
      "name": "getUserBoost",
      "outputs": [
        {
          "internalType": "uint256",
          "name": "",
          "type": "uint256"
        }
      ],
      "stateMutability": "view",
      "type": "function"
    },
    {
      "inputs": [
        {
          "internalType": "address",
          "name": "user",
          "type": "address"
        }
      ],
      "name": "getUserLPValue",
      "outputs": [
        {
          "internalType": "uint256",
          "name": "",
          "type": "uint256"
        }
      ],
      "stateMutability": "view",
      "type": "function"
    },
    {
      "inputs": [
        {
          "internalType": "address",
          "name": "user",
          "type": "address"
        }
      ],
      "name": "getUserMaturityMultiplier",
      "outputs": [
        {
          "internalType": "uint256",
          "name": "",
          "type": "uint256"
        }
      ],
      "stateMutability": "view",
      "type": "function"
    },
    {
      "inputs": [
        {
          "internalType": "uint256",
          "name": "tokenId",
          "type": "uint256"
        }
      ],
      "name": "kick",
      "outputs": [],
      "stateMutability": "nonpayable",
      "type": "function"
    },
    {
      "inputs": [
        {
          "internalType": "address",
          "name": "",
          "type": "address"
        },
        {
          "internalType": "address",
          "name": "",
          "type": "address"
        },
        {
          "internalType": "uint256",
          "name": "",
          "type": "uint256"
        },
        {
          "internalType": "bytes",
          "name": "",
          "type": "bytes"
        }
      ],
      "name": "onERC721Received",
      "outputs": [
        {
          "internalType": "bytes4",
          "name": "",
          "type": "bytes4"
        }
      ],
      "stateMutability": "nonpayable",
      "type": "function"
    },
    {
      "inputs": [
        {
          "internalType": "bytes4",
          "name": "interfaceId",
          "type": "bytes4"
        }
      ],
      "name": "supportsInterface",
      "outputs": [
        {
          "internalType": "bool",
          "name": "",
          "type": "bool"
        }
      ],
      "stateMutability": "view",
      "type": "function"
    },
    {
      "inputs": [
        {
          "internalType": "uint256",
          "name": "lpId",
          "type": "uint256"
        }
      ],
      "name": "withdraw",
      "outputs": [],
      "stateMutability": "nonpayable",
      "type": "function"
    },
    {
      "inputs": [
        {
          "internalType": "uint256[]",
          "name": "lpIds",
          "type": "uint256[]"
        }
      ],
      "name": "withdrawBatch",
      "outputs": [],
      "stateMutability": "nonpayable",
      "type": "function"
    },
    {
      "inputs": [],
      "name": "writeTotalWeightHistory",
      "outputs": [],
      "stateMutability": "nonpayable",
      "type": "function"
    }
  ],
  "bytecode": "0x60c06040523480156200001157600080fd5b506040516200232f3803806200232f8339810160408190526200003491620000f9565b600160008181556001600160a01b03808516608052831660a05260408051602081019091529081526200006b91600a919062000074565b50505062000138565b828054828255906000526020600020908101928215620000b7579160200282015b82811115620000b7578251829060ff1690559160200191906001019062000095565b50620000c5929150620000c9565b5090565b5b80821115620000c55760008155600101620000ca565b6001600160a01b0381168114620000f657600080fd5b50565b600080604083850312156200010d57600080fd5b82516200011a81620000e0565b60208401519092506200012d81620000e0565b809150509250929050565b60805160a0516121926200019d600039600081816101b2015281816104390152818161128d01526114810152600081816106830152818161070901528181610f4d0152818161103b0152818161159f015281816117650152611b2c01526121926000f3fe608060405234801561001057600080fd5b506004361061010b5760003560e01c80635aaa087c116100a25780639c8d4156116100715780639c8d41561461029a578063b6b55f25146102ad578063b86d06cf146102c0578063c4e41b22146102c8578063ce0cf1a5146102d057600080fd5b80635aaa087c1461022057806387da75ef146102565780639581372b1461025e5780639b96eece1461027157600080fd5b80633c1aa925116100de5780633c1aa925146101a55780633eae1483146101dc57806348458f25146102055780634e71d92d1461021857600080fd5b806301ffc9a714610110578063150b7a02146101385780632e1a7d4d1461016f578063320e55a414610184575b600080fd5b61012361011e366004611c4e565b6102e3565b60405190151581526020015b60405180910390f35b610156610146366004611cfd565b630a85bd0160e11b949350505050565b6040516001600160e01b0319909116815260200161012f565b61018261017d366004611dc1565b61031a565b005b610197610192366004611dda565b6105ae565b60405190815260200161012f565b6040516001600160a01b037f000000000000000000000000000000000000000000000000000000000000000016815260200161012f565b6101976101ea366004611dda565b6001600160a01b03166000908152600c602052604090205490565b610197610213366004611df7565b610637565b610197610674565b61019761022e366004611e23565b6001600160a01b03919091166000908152600460209081526040808320938352929052205490565b610182611037565b61019761026c366004611dda565b611189565b61019761027f366004611dda565b6001600160a01b031660009081526002602052604090205490565b6101826102a8366004611e4f565b611229565b6101826102bb366004611dc1565b61126c565b600d54610197565b600354610197565b6101826102de366004611dc1565b61159b565b60006001600160e01b03198216633c1aa92560e01b148061031457506301ffc9a760e01b6001600160e01b03198316145b92915050565b610322611708565b6000818152600160205260409020546001600160a01b0316331461038d5760405162461bcd60e51b815260206004820152601a60248201527f54473a573a4e4f545f4f574e45525f4f465f4c505f544f4b454e00000000000060448201526064015b60405180910390fd5b6000818152600b6020908152604080832054338452600c90925282208054919290916103ba908490611eda565b90915550506000818152600b6020526040812054600d8054919290916103e1908490611eda565b9091555050600081815260016020908152604080832080546001600160a01b0319169055600b9091528082209190915551632142170760e11b8152306004820152336024820152604481018290526001600160a01b037f000000000000000000000000000000000000000000000000000000000000000016906342842e0e90606401600060405180830381600087803b15801561047d57600080fd5b505af1158015610491573d6000803e3d6000fd5b5050336000908152600260205260408120549092506104b39150600190611eda565b6000838152600560205260409020549091508082146104fd573360009081526004602090815260408083208584528252808320548484528184208190558352600590915290208190555b600083815260056020908152604080832083905533808452600483528184208685528352818420849055835260029091528120805460019290610541908490611eda565b9250508190555060016003600082825461055b9190611eda565b9091555061056a905033611761565b60405183815233907f45ec0244cf2e0c90546c4aff992398e1505d5ce31338249d7f29066169cfdcea9060200160405180910390a250506105ab6001600055565b50565b6001600160a01b0381166000908152600660205260408120548082036105d75750600092915050565b6001600160a01b0383166000908152600660205260409020610630906105fe600184611eda565b8154811061060e5761060e611eed565b9060005260206000209060030201600201544261062b9190611eda565b611b27565b9392505050565b6000806106448386611f03565b9050600083851015610657576000610659565b845b9050808211610668578161066a565b805b9695505050505050565b600061067f33611761565b60007f00000000000000000000000000000000000000000000000000000000000000006001600160a01b03166308b0308a6040518163ffffffff1660e01b8152600401602060405180830381865afa1580156106df573d6000803e3d6000fd5b505050506040513d601f19601f820116820180604052508101906107039190611f2a565b905060007f00000000000000000000000000000000000000000000000000000000000000006001600160a01b03166358de9ade6040518163ffffffff1660e01b8152600401602060405180830381865afa158015610765573d6000803e3d6000fd5b505050506040513d601f19601f820116820180604052508101906107899190611f2a565b336000908152600660205260408120549192508190036107ad576000935050505090565b33600090815260086020526040812054900361087f5733600090815260066020526040812080546001600160a01b0386169263bc0bc6ba92916107f2576107f2611eed565b9060005260206000209060030201600201546040518263ffffffff1660e01b815260040161082291815260200190565b602060405180830381865afa15801561083f573d6000803e3d6000fd5b505050506040513d601f19601f820116820180604052508101906108639190611f47565b61086e906001611f60565b336000908152600860205260409020555b6000805b6032811015610f44573360009081526008602052604090819020549051635e05e35d60e11b81524260048201529092506001600160a01b0386169063bc0bc6ba90602401602060405180830381865afa1580156108e4573d6000803e3d6000fd5b505050506040513d601f19601f820116820180604052508101906109089190611f47565b821015610f445733600090815260066020908152604080832060079092528220548154811061093957610939611eed565b90600052602060002090600302016040518060600160405290816000820154815260200160018201548152602001600282015481525050905060018461097f9190611eda565b3360009081526007602052604090205403610abe576000600a84815481106109a9576109a9611eed565b90600052602060002001541115610a9957612710600a84815481106109d0576109d0611eed565b90600052602060002001546109e59190611f03565b6109f882604001514261062b9190611eda565b60208301516040516315a8752360e31b8152306004820152602481018790526001600160a01b0389169063ad43a918906044016020604051808303816000875af1158015610a4a573d6000803e3d6000fd5b505050506040513d601f19601f82011682018060405250810190610a6e9190611f47565b610a789190611f03565b610a829190611f03565b610a8c9190611f73565b610a969088611f60565b96505b336000908152600860205260408120805491610ab483611f95565b9190505550610f31565b3360009081526006602090815260408083206007909252822054610ae3906001611f60565b81548110610af357610af3611eed565b906000526020600020906003020160405180606001604052908160008201548152602001600182015481526020016002820154815250509050866001600160a01b031663bc0bc6ba83604001516040518263ffffffff1660e01b8152600401610b5e91815260200190565b602060405180830381865afa158015610b7b573d6000803e3d6000fd5b505050506040513d601f19601f82011682018060405250810190610b9f9190611f47565b6040828101519051635e05e35d60e11b815260048101919091526001600160a01b0389169063bc0bc6ba90602401602060405180830381865afa158015610bea573d6000803e3d6000fd5b505050506040513d601f19601f82011682018060405250810190610c0e9190611f47565b03610c3857336000908152600760205260408120805491610c2e83611f95565b9190505550610f2f565b6040808201519051635e05e35d60e11b815285916001600160a01b038a169163bc0bc6ba91610c6d9160040190815260200190565b602060405180830381865afa158015610c8a573d6000803e3d6000fd5b505050506040513d601f19601f82011682018060405250810190610cae9190611f47565b03610e05576000600a8581548110610cc857610cc8611eed565b9060005260206000200154118015610ce257508051825111155b15610dca57612710600a8581548110610cfd57610cfd611eed565b9060005260206000200154610d129190611f03565b8260200151610d2e8460400151846040015161062b9190611eda565b6040516315a8752360e31b8152306004820152602481018890526001600160a01b038a169063ad43a918906044016020604051808303816000875af1158015610d7b573d6000803e3d6000fd5b505050506040513d601f19601f82011682018060405250810190610d9f9190611f47565b610da99190611f03565b610db39190611f03565b610dbd9190611f73565b610dc79089611f60565b97505b336000908152600760205260408120805491610de583611f95565b9091555050336000908152600860205260408120805491610c2e83611f95565b6000600a8581548110610e1a57610e1a611eed565b90600052602060002001541115610f0e57612710600a8581548110610e4157610e41611eed565b9060005260206000200154610e569190611f03565b8260200151610e728460400151846040015161062b9190611eda565b6040516315a8752360e31b8152306004820152602481018890526001600160a01b038a169063ad43a918906044016020604051808303816000875af1158015610ebf573d6000803e3d6000fd5b505050506040513d601f19601f82011682018060405250810190610ee39190611f47565b610eed9190611f03565b610ef79190611f03565b610f019190611f73565b610f0b9089611f60565b97505b336000908152600860205260408120805491610f2983611f95565b91905055505b505b5080610f3c81611f95565b915050610883565b508415611030577f00000000000000000000000000000000000000000000000000000000000000006001600160a01b03166315b9ba5d6040518163ffffffff1660e01b8152600401602060405180830381865afa158015610fa9573d6000803e3d6000fd5b505050506040513d601f19601f82011682018060405250810190610fcd9190611f2a565b604051631ec9887760e11b8152336004820152602481018790526001600160a01b039190911690633d9310ee90604401600060405180830381600087803b15801561101757600080fd5b505af115801561102b573d6000803e3d6000fd5b505050505b5050505090565b60007f00000000000000000000000000000000000000000000000000000000000000006001600160a01b03166308b0308a6040518163ffffffff1660e01b8152600401602060405180830381865afa158015611097573d6000803e3d6000fd5b505050506040513d601f19601f820116820180604052508101906110bb9190611f2a565b604051635e05e35d60e11b81524260048201526001600160a01b03919091169063bc0bc6ba90602401602060405180830381865afa158015611101573d6000803e3d6000fd5b505050506040513d601f19601f820116820180604052508101906111259190611f47565b905060005b608081101561118557600a5482111561118557600954600a80546001810182556000919091527fc65a7bb8d6351c1cf70c95a316cc6a92839c986682d98bc35f958f4883f9d2a801558061117d81611f95565b91505061112a565b5050565b6001600160a01b0381166000908152600c602052604081205481036111b057506000919050565b6001600160a01b0382166000908152600c60209081526040808320546006909252909120805461271091906111e790600190611eda565b815481106111f7576111f7611eed565b90600052602060002090600302016001015460026112159190611f03565b61121f9190611f03565b6103149190611f73565b60005b818110156112675761125583838381811061124957611249611eed565b9050602002013561031a565b8061125f81611f95565b91505061122c565b505050565b611274611708565b6040516319ba7e5360e31b8152600481018290526000907f00000000000000000000000000000000000000000000000000000000000000006001600160a01b03169063cdd3f29890602401600060405180830381865afa1580156112dc573d6000803e3d6000fd5b505050506040513d6000823e601f3d908101601f19168201604052611304919081019061203d565b905060008151600481111561131b5761131b6120f7565b14806113395750600281516004811115611337576113376120f7565b145b806113565750600181516004811115611354576113546120f7565b145b6113995760405162461bcd60e51b815260206004820152601460248201527354473a443a494e56414c49445f4c505f5459504560601b6044820152606401610384565b60006113b382602001515183604001518460600151610637565b9050600081116113fa5760405162461bcd60e51b815260206004820152601260248201527154473a443a4c505f56414c55455f5a45524f60701b6044820152606401610384565b600083815260016020908152604080832080546001600160a01b03191633908117909155600b83528184208590558352600c90915281208054839290611441908490611f60565b9250508190555080600d600082825461145a9190611f60565b9091555050604051632142170760e11b8152336004820152306024820152604481018490527f00000000000000000000000000000000000000000000000000000000000000006001600160a01b0316906342842e0e90606401600060405180830381600087803b1580156114cd57600080fd5b505af11580156114e1573d6000803e3d6000fd5b505033600081815260026020818152604080842080546004845282862081875284528286208c90558b865260058452918520829055948452919052825490945060019350611530908490611f60565b9250508190555060016003600082825461154a9190611f60565b90915550611559905033611761565b60405184815233907fa76194b11cf7b940f18e866ed3382a795bb09ca684db1b957d595417f63151f89060200160405180910390a25050506105ab6001600055565b60007f00000000000000000000000000000000000000000000000000000000000000006001600160a01b03166308b0308a6040518163ffffffff1660e01b8152600401602060405180830381865afa1580156115fb573d6000803e3d6000fd5b505050506040513d601f19601f8201168201806040525081019061161f9190611f2a565b60405163d68f4dd160e01b81526004810184905290915042906001600160a01b0383169063d68f4dd1906024016040805180830381865afa158015611668573d6000803e3d6000fd5b505050506040513d601f19601f8201168201806040525081019061168c919061210d565b602001511015611185576040516331a9108f60e11b815260048101839052611185906001600160a01b03831690636352211e90602401602060405180830381865afa1580156116df573d6000803e3d6000fd5b505050506040513d601f19601f820116820180604052508101906117039190611f2a565b611761565b60026000540361175a5760405162461bcd60e51b815260206004820152601f60248201527f5265656e7472616e637947756172643a207265656e7472616e742063616c6c006044820152606401610384565b6002600055565b60007f00000000000000000000000000000000000000000000000000000000000000006001600160a01b03166308b0308a6040518163ffffffff1660e01b8152600401602060405180830381865afa1580156117c1573d6000803e3d6000fd5b505050506040513d601f19601f820116820180604052508101906117e59190611f2a565b9050806001600160a01b03166387da75ef6040518163ffffffff1660e01b8152600401600060405180830381600087803b15801561182257600080fd5b505af1158015611836573d6000803e3d6000fd5b50506040516301924b8d60e71b81526001600160a01b038581166004830152600093508416915063c925c68090602401602060405180830381865afa158015611883573d6000803e3d6000fd5b505050506040513d601f19601f820116820180604052508101906118a79190611f47565b90506000826001600160a01b03166306aba0e16040518163ffffffff1660e01b81526004016020604051808303816000875af11580156118eb573d6000803e3d6000fd5b505050506040513d601f19601f8201168201806040525081019061190f9190611f47565b9050600061191b611037565b8160000361194257506001600160a01b0384166000908152600c60205260409020546119ca565b6001600160a01b0385166000908152600c6020526040902054600d546119c7919061271090859061197588611388611f03565b61197f9190611f03565b6119899190611f73565b6001600160a01b0389166000908152600c60205260409020546119ae90611388611f03565b6119b89190611f60565b6119c29190611f73565b611c38565b90505b6119ee60405180606001604052806000815260200160008152602001600081525090565b6001600160a01b03861660009081526006602052604090205415611a7c576001600160a01b03861660009081526006602052604090208054611a3290600190611eda565b81548110611a4257611a42611eed565b9060005260206000209060030201604051806060016040529081600082015481526020016001820154815260200160028201548152505090505b604080516060810182526001600160a01b0388166000908152600c602090815290839020548252808201859052429282019290925290820151600954611ac3908590611f60565b611acd9190611eda565b6009556001600160a01b039096166000908152600660209081526040808320805460018181018355918552938390208a51600390950201938455918901519183019190915596909601516002909601959095555050505050565b6000807f00000000000000000000000000000000000000000000000000000000000000006001600160a01b03166358de9ade6040518163ffffffff1660e01b8152600401602060405180830381865afa158015611b88573d6000803e3d6000fd5b505050506040513d601f19601f82011682018060405250810190611bac9190611f2a565b6001600160a01b031663c057beee6040518163ffffffff1660e01b8152600401602060405180830381865afa158015611be9573d6000803e3d6000fd5b505050506040513d601f19601f82011682018060405250810190611c0d9190611f47565b905080831115611c21575061271092915050565b80611c2e84612710611f03565b6106309190611f73565b6000818310611c475781610630565b5090919050565b600060208284031215611c6057600080fd5b81356001600160e01b03198116811461063057600080fd5b6001600160a01b03811681146105ab57600080fd5b634e487b7160e01b600052604160045260246000fd5b60405160e0810167ffffffffffffffff81118282101715611cc657611cc6611c8d565b60405290565b604051601f8201601f1916810167ffffffffffffffff81118282101715611cf557611cf5611c8d565b604052919050565b60008060008060808587031215611d1357600080fd5b8435611d1e81611c78565b9350602085810135611d2f81611c78565b935060408601359250606086013567ffffffffffffffff80821115611d5357600080fd5b818801915088601f830112611d6757600080fd5b813581811115611d7957611d79611c8d565b611d8b601f8201601f19168501611ccc565b91508082528984828501011115611da157600080fd5b808484018584013760008482840101525080935050505092959194509250565b600060208284031215611dd357600080fd5b5035919050565b600060208284031215611dec57600080fd5b813561063081611c78565b600080600060608486031215611e0c57600080fd5b505081359360208301359350604090920135919050565b60008060408385031215611e3657600080fd5b8235611e4181611c78565b946020939093013593505050565b60008060208385031215611e6257600080fd5b823567ffffffffffffffff80821115611e7a57600080fd5b818501915085601f830112611e8e57600080fd5b813581811115611e9d57600080fd5b8660208260051b8501011115611eb257600080fd5b60209290920196919550909350505050565b634e487b7160e01b600052601160045260246000fd5b8181038181111561031457610314611ec4565b634e487b7160e01b600052603260045260246000fd5b808202811582820484141761031457610314611ec4565b8051611f2581611c78565b919050565b600060208284031215611f3c57600080fd5b815161063081611c78565b600060208284031215611f5957600080fd5b5051919050565b8082018082111561031457610314611ec4565b600082611f9057634e487b7160e01b600052601260045260246000fd5b500490565b600060018201611fa757611fa7611ec4565b5060010190565b805160058110611f2557600080fd5b600082601f830112611fce57600080fd5b8151602067ffffffffffffffff821115611fea57611fea611c8d565b8160051b611ff9828201611ccc565b928352848101820192828101908785111561201357600080fd5b83870192505b8483101561203257825182529183019190830190612019565b979650505050505050565b60006020828403121561204f57600080fd5b815167ffffffffffffffff8082111561206757600080fd5b9083019060e0828603121561207b57600080fd5b612083611ca3565b61208c83611fae565b81526020830151828111156120a057600080fd5b6120ac87828601611fbd565b60208301525060408301516040820152606083015160608201526120d260808401611f1a565b608082015260a083015160a082015260c083015160c082015280935050505092915050565b634e487b7160e01b600052602160045260246000fd5b60006040828403121561211f57600080fd5b6040516040810181811067ffffffffffffffff8211171561214257612142611c8d565b60405282518152602092830151928101929092525091905056fea26469706673582212207ee1d5f68ec231afb0bb020c3b7feef57c0f6e0012572a4528b328159de31d3a64736f6c63430008130033",
  "linkReferences": {},
  "deployedLinkReferences": {}
}