{
  "_format": "hh-sol-artifact-1",
  "contractName": "TradingGauge",
  "sourceName": "contracts/protocol/Gauges/TradingGauge.sol",
  "abi": [
    {
      "inputs": [
        {
          "internalType": "contract IAddressesProvider",
          "name": "addressProvider",
          "type": "address"
        },
        {
          "internalType": "address",
          "name": "lpToken_",
          "type": "address"
        }
      ],
      "stateMutability": "nonpayable",
      "type": "constructor"
    },
    {
      "anonymous": false,
      "inputs": [
        {
          "indexed": true,
          "internalType": "address",
          "name": "user",
          "type": "address"
        },
        {
          "indexed": false,
          "internalType": "uint256",
          "name": "lpId",
          "type": "uint256"
        }
      ],
      "name": "DepositLP",
      "type": "event"
    },
    {
      "anonymous": false,
      "inputs": [
        {
          "indexed": true,
          "internalType": "address",
          "name": "user",
          "type": "address"
        },
        {
          "indexed": false,
          "internalType": "uint256",
          "name": "lpId",
          "type": "uint256"
        }
      ],
      "name": "WithdrawLP",
      "type": "event"
    },
    {
      "inputs": [],
      "name": "LP_MATURITY_PERIOD",
      "outputs": [
        {
          "internalType": "uint256",
          "name": "",
          "type": "uint256"
        }
      ],
      "stateMutability": "view",
      "type": "function"
    },
    {
      "inputs": [
        {
          "internalType": "address",
          "name": "user",
          "type": "address"
        }
      ],
      "name": "balanceOf",
      "outputs": [
        {
          "internalType": "uint256",
          "name": "",
          "type": "uint256"
        }
      ],
      "stateMutability": "view",
      "type": "function"
    },
    {
      "inputs": [
        {
          "internalType": "uint256",
          "name": "nftAmount",
          "type": "uint256"
        },
        {
          "internalType": "uint256",
          "name": "tokenAmount",
          "type": "uint256"
        },
        {
          "internalType": "uint256",
          "name": "spotPrice",
          "type": "uint256"
        }
      ],
      "name": "calculateLpValue",
      "outputs": [
        {
          "internalType": "uint256",
          "name": "",
          "type": "uint256"
        }
      ],
      "stateMutability": "pure",
      "type": "function"
    },
    {
      "inputs": [],
      "name": "claim",
      "outputs": [
        {
          "internalType": "uint256",
          "name": "",
          "type": "uint256"
        }
      ],
      "stateMutability": "nonpayable",
      "type": "function"
    },
    {
      "inputs": [
        {
          "internalType": "uint256",
          "name": "lpId",
          "type": "uint256"
        }
      ],
      "name": "deposit",
      "outputs": [],
      "stateMutability": "nonpayable",
      "type": "function"
    },
    {
      "inputs": [
        {
          "internalType": "uint256",
          "name": "tokenId",
          "type": "uint256"
        }
      ],
      "name": "kick",
      "outputs": [],
      "stateMutability": "nonpayable",
      "type": "function"
    },
    {
      "inputs": [
        {
          "internalType": "address",
          "name": "user",
          "type": "address"
        },
        {
          "internalType": "uint256",
          "name": "index",
          "type": "uint256"
        }
      ],
      "name": "lpOfOwnerByIndex",
      "outputs": [
        {
          "internalType": "uint256",
          "name": "",
          "type": "uint256"
        }
      ],
      "stateMutability": "view",
      "type": "function"
    },
    {
      "inputs": [],
      "name": "lpToken",
      "outputs": [
        {
          "internalType": "address",
          "name": "",
          "type": "address"
        }
      ],
      "stateMutability": "view",
      "type": "function"
    },
    {
      "inputs": [
        {
          "internalType": "address",
          "name": "",
          "type": "address"
        },
        {
          "internalType": "address",
          "name": "",
          "type": "address"
        },
        {
          "internalType": "uint256",
          "name": "",
          "type": "uint256"
        },
        {
          "internalType": "bytes",
          "name": "",
          "type": "bytes"
        }
      ],
      "name": "onERC721Received",
      "outputs": [
        {
          "internalType": "bytes4",
          "name": "",
          "type": "bytes4"
        }
      ],
      "stateMutability": "nonpayable",
      "type": "function"
    },
    {
      "inputs": [],
      "name": "totalLPValue",
      "outputs": [
        {
          "internalType": "uint256",
          "name": "",
          "type": "uint256"
        }
      ],
      "stateMutability": "view",
      "type": "function"
    },
    {
      "inputs": [],
      "name": "totalSupply",
      "outputs": [
        {
          "internalType": "uint256",
          "name": "",
          "type": "uint256"
        }
      ],
      "stateMutability": "view",
      "type": "function"
    },
    {
      "inputs": [
        {
          "internalType": "address",
          "name": "user",
          "type": "address"
        }
      ],
      "name": "userBoost",
      "outputs": [
        {
          "internalType": "uint256",
          "name": "",
          "type": "uint256"
        }
      ],
      "stateMutability": "view",
      "type": "function"
    },
    {
      "inputs": [
        {
          "internalType": "address",
          "name": "user",
          "type": "address"
        }
      ],
      "name": "userLPValue",
      "outputs": [
        {
          "internalType": "uint256",
          "name": "",
          "type": "uint256"
        }
      ],
      "stateMutability": "view",
      "type": "function"
    },
    {
      "inputs": [
        {
          "internalType": "address",
          "name": "user",
          "type": "address"
        }
      ],
      "name": "userMaturityMultiplier",
      "outputs": [
        {
          "internalType": "uint256",
          "name": "",
          "type": "uint256"
        }
      ],
      "stateMutability": "view",
      "type": "function"
    },
    {
      "inputs": [
        {
          "internalType": "uint256",
          "name": "lpId",
          "type": "uint256"
        }
      ],
      "name": "withdraw",
      "outputs": [],
      "stateMutability": "nonpayable",
      "type": "function"
    },
    {
      "inputs": [
        {
          "internalType": "uint256[]",
          "name": "lpIds",
          "type": "uint256[]"
        }
      ],
      "name": "withdrawBatch",
      "outputs": [],
      "stateMutability": "nonpayable",
      "type": "function"
    },
    {
      "inputs": [],
      "name": "writeTotalWeightHistory",
      "outputs": [],
      "stateMutability": "nonpayable",
      "type": "function"
    }
  ],
  "bytecode": "0x6080346200012a576001600160401b0390601f62001f8c38819003918201601f1916830191848311848410176200012f5780849260409485528339810103126200012a5780516001600160a01b0380821692918390036200012a576020809201519081168091036200012a5760018060a01b031960009381855416178455600b541617600b556040519281840190848210908211176200011657604052818352600a549260019384600a55808510620000eb575b5090600a8352808320925b848110620000d657604051611e469081620001468239f35b825160ff1684820155918101918401620000be565b600a8452848084862092830192015b8281106200010a575050620000b3565b858155018590620000fa565b634e487b7160e01b83526041600452602483fd5b600080fd5b634e487b7160e01b600052604160045260246000fdfe6080604052600436101561001257600080fd5b60003560e01c8063019e06ab14610127578063150b7a021461012257806318160ddd1461011d578063261cd83a146101185780632e1a7d4d146101135780633a631ed81461010e57806348458f25146101095780634e71d92d146101045780635fcbd285146100ff57806370a08231146100fa57806378d2f984146100f557806387da75ef146100f05780638b396623146100eb5780639c8d4156146100e6578063b6b55f25146100e1578063ce0cf1a5146100dc5763d02a2bee146100d757600080fd5b6108d3565b610780565b6104f9565b610483565b610465565b61044c565b61040f565b6103d2565b6103a9565b61038e565b61036a565b61033b565b61031d565b610301565b6102e3565b610245565b610142565b6001600160a01b0381160361013d57565b600080fd5b3461013d57604036600319011261013d5760043561015f8161012c565b60018060a01b0316600052600460205260406000206024356000526020526020604060002054604051908152f35b634e487b7160e01b600052604160045260246000fd5b67ffffffffffffffff81116101b757604052565b61018d565b6060810190811067ffffffffffffffff8211176101b757604052565b90601f8019910116810190811067ffffffffffffffff8211176101b757604052565b60405190610207826101bc565b565b6040519060e0820182811067ffffffffffffffff8211176101b757604052565b67ffffffffffffffff81116101b757601f01601f191660200190565b3461013d57608036600319011261013d5761026160043561012c565b61026c60243561012c565b60643567ffffffffffffffff811161013d573660238201121561013d5780600401359061029882610229565b916102a660405193846101d8565b808352366024828401011161013d576000928160246020940184830137010152604051630a85bd0160e11b8152602090f35b600091031261013d57565b3461013d57600036600319011261013d576020600354604051908152f35b3461013d57600036600319011261013d57602060405160068152f35b3461013d57602036600319011261013d57610339600435611a22565b005b3461013d57602036600319011261013d57602061036260043561035d8161012c565b611cf9565b604051908152f35b3461013d57606036600319011261013d576020610362604435602435600435611d4d565b3461013d57600036600319011261013d576020610362610ac3565b3461013d57600036600319011261013d57600b546040516001600160a01b039091168152602090f35b3461013d57602036600319011261013d576004356103ef8161012c565b60018060a01b031660005260026020526020604060002054604051908152f35b3461013d57602036600319011261013d5760043561042c8161012c565b60018060a01b0316600052600d6020526020604060002054604051908152f35b3461013d57600036600319011261013d57610339611280565b3461013d57600036600319011261013d576020600e54604051908152f35b3461013d57602036600319011261013d5760043567ffffffffffffffff80821161013d573660238301121561013d57816004013590811161013d57600560243683831b850182011161013d5760005b8381106104db57005b806104ef836104f493861b88010135611a22565b6109ba565b6104d2565b3461013d57602036600319011261013d57600b546004359061053190610525906001600160a01b031681565b6001600160a01b031690565b6040516319ba7e5360e31b815260048101839052600092918390829060249082905afa8015610755576105a161062e9161063393869161075e575b5061058a815161057b816118d3565b610584816118d3565b156118f3565b602081015151906060604082015191015191611d4d565b6105b2816105ad61193f565b611d79565b6105bd81151561197e565b6105f4336105d5866000526001602052604060002090565b80546001600160a01b0319166001600160a01b03909216919091179055565b8061060985600052600c602052604060002090565b55336000908152600d602052604090206106248282546109ad565b9055600e546109ad565b600e55565b61063c336114aa565b600b5461065390610525906001600160a01b031681565b803b1561075a57604051632142170760e11b8152336004820152306024820152604481018390529083908290606490829084905af180156107555761073c575b5033600090815260026020908152604080832054600490925290912082906106c79083905b90600052602052604060002090565b556106dc826000526005602052604060002090565b553360009081526002602052604090206106f6815461099a565b905561070b61070660035461099a565b600355565b60405190815233907fa76194b11cf7b940f18e866ed3382a795bb09ca684db1b957d595417f63151f890602090a280f35b8061074961074f926101a3565b806102d8565b38610693565b61091d565b8280fd5b61077a91503d8088833e61077281836101d8565b81019061183e565b3861056c565b3461013d5760208060031936011261013d5760008054909190600435906107af906001600160a01b0316610525565b600483604092835192838092630458184560e11b82525afa9081156107555785916108b6575b508151635a2d1e0760e11b8152600481018490526001600160a01b039190911692908281602481875afa80156107555785918791610889575b500151421161081b578480f35b90516331a9108f60e11b81526004810191909152908290829060249082905afa9081156107555761085492849261085c575b50506114aa565b388080808480f35b61087b9250803d10610882575b61087381836101d8565b810190610905565b388061084d565b503d610869565b6108a99150843d86116108af575b6108a181836101d8565b81019061178f565b3861080e565b503d610897565b6108cd9150843d86116108825761087381836101d8565b386107d5565b3461013d57602036600319011261013d5760206103626004356108f58161012c565b611c76565b51906102078261012c565b9081602091031261013d575161091a8161012c565b90565b6040513d6000823e3d90fd5b634e487b7160e01b600052603260045260246000fd5b80541561095457600052602060002090600090565b610929565b8054821015610954576000526003602060002091020190600090565b9081602091031261013d575190565b634e487b7160e01b600052601160045260246000fd5b90600182018092116109a857565b610984565b919082018092116109a857565b60001981146109a85760010190565b906040516109d6816101bc565b60406002829480548452600181015460208501520154910152565b6000198101919082116109a857565b919082039182116109a857565b600a5481101561095457600a6000527fc65a7bb8d6351c1cf70c95a316cc6a92839c986682d98bc35f958f4883f9d2a80190600090565b90612710918281029281840414901517156109a857565b90816006029160068304036109a857565b9061271091808302928304036109a857565b9061138891808302928304036109a857565b818102929181159184041417156109a857565b8115610aad570490565b634e487b7160e01b600052601260045260246000fd5b610acc336114aa565b600054610ae1906001600160a01b0316610525565b604051630458184560e11b815290602082600481845afa91821561075557600092611213575b50602060049160405192838092632c6f4d6f60e11b82525afa908115610755576000916111f4575b50336000908152600660205260409020549182156111ec573360009081526008602052604090205415611145575b60009260005b60328110610c22575b50506000546004925060209150610b8b906001600160a01b0316610525565b6040516315b9ba5d60e01b815292839182905afa90811561075557600091610c03575b506001600160a01b0316803b1561013d57604051631ec9887760e11b815233600482015260248101839052906000908290604490829084905af1801561075557610bf6575090565b8061074961091a926101a3565b610c1c915060203d6020116108825761087381836101d8565b38610bae565b33600090815260086020526040902054604051635487c57760e01b8152426004820152602081806024810103816001600160a01b0389165afa90811561075557600091611126575b508110610c775750610b6c565b336000908152600660209081526040808320600790925290912054610ca691610ca09190610959565b506109c9565b33600090815260076020526040902054610cbf856109f1565b03610dde57610cda610cd083610a0d565b90549060031b1c90565b610d0c575b5050336000908152600860205260409020610d0791905b610d0081546109ba565b90556109ba565b610b63565b6040516315a8752360e31b8152306004820152602481018390529296909160208460448160006001600160a01b038c165af190811561075557610d9b610d96610cd0610d90610da797610d8a610d856040610d7c610da19a610d079e600091610daf575b50602086015190610a90565b93015142610a00565b611362565b90610a90565b93610a0d565b610a44565b90610aa3565b906109ad565b949038610cdf565b610dd1915060203d602011610dd7575b610dc981836101d8565b810190610975565b38610d70565b503d610dbf565b336000908152600660205260409020610e409190610e1990610ca090336000908152600760205260409020610e13905461099a565b90610959565b926020604085015160405180958192635487c57760e01b8352600483019190602083019252565b03816001600160a01b038b165afa92831561075557600093611105575b50604082810180519151635487c57760e01b81526004810192909252936020826024816001600160a01b038d165afa918215610755576000926110e4575b5003610ebf575050336000908152600760205260409020610d079392509050610cf6565b6040848101519051635487c57760e01b815260048101919091526020816024816001600160a01b038c165afa80156107555782916000916110c5575b500361101857610f0d610cd082610a0d565b15158061100c575b610f58575b5050336000908152600760205260409020610d079392509050610f3d81546109ba565b9055336000908152600860205260409020610d0081546109ba565b6040516315a8752360e31b8152306004820152602481018290529498929360208660448160006001600160a01b038e165af195861561075557610cd0610d90610da1956020610fcd610d079b610fd69b610d9b98610d9698600093610fe0575b50610d8a916040610d85920151905190610a00565b91015190610a90565b9490388080610f1a565b610d85919350916040611002610d8a94883d8a11610dd757610dc981836101d8565b9492505091610fb8565b50815184511015610f15565b611024610cd082610a0d565b611047575b5050336000908152600860205260409020610d079392509050610cf6565b6040516315a8752360e31b8152306004820152602481018290529498929360208660448160006001600160a01b038e165af195861561075557610cd0610d90610da1956020610fcd610d079b6110bb9b610d9b98610d9698600093610fe05750610d8a916040610d85920151905190610a00565b9490388080611029565b6110de915060203d602011610dd757610dc981836101d8565b38610efb565b6110fe91925060203d602011610dd757610dc981836101d8565b9038610e9b565b61111f91935060203d602011610dd757610dc981836101d8565b9138610e5d565b61113f915060203d602011610dd757610dc981836101d8565b38610c6a565b6111926020600261117061116b3360018060a01b03166000526006602052604060002090565b61093f565b50015460405180938192635487c57760e01b8352600483019190602083019252565b03816001600160a01b0386165afa8015610755576111b8916000916111cd575b5061099a565b33600090815260086020526040902055610b5d565b6111e6915060203d602011610dd757610dc981836101d8565b386111b2565b505050600090565b61120d915060203d6020116108825761087381836101d8565b38610b2f565b6004919250611230602091823d84116108825761087381836101d8565b929150610b07565b600a54600160401b8110156101b7576001810180600a5581101561095457600a6000527fc65a7bb8d6351c1cf70c95a316cc6a92839c986682d98bc35f958f4883f9d2a80155565b600054611295906001600160a01b0316610525565b6040518091630458184560e11b825281600460209485935afa90811561075557600091611345575b50604051635487c57760e01b8152426004820152908290829060249082906001600160a01b03165afa91821561075557600092611328575b505060005b60808110611306575050565b81600a5410156113245761131f906104ef600954611238565b6112fa565b5050565b61133e9250803d10610dd757610dc981836101d8565b38806112f5565b61135c9150823d84116108825761087381836101d8565b386112bd565b600054611377906001600160a01b0316610525565b6040518091630458184560e11b825281600460209485935afa90811561075557600491839160009161141a575b50604051632d6de86160e21b815292839182906001600160a01b03165afa908115610755576113dc926000926113fd575b5050610a5b565b808211156113ec57505061271090565b6113f861091a92610a6c565b610aa3565b6114139250803d10610dd757610dc981836101d8565b38806113d5565b6114319150823d84116108825761087381836101d8565b386113a4565b60405190611444826101bc565b60006040838281528260208201520152565b8054600160401b8110156101b75761147391600182018155610959565b91909161149457604081600292518455602081015160018501550151910155565b634e487b7160e01b600052600060045260246000fd5b600080546114c0906001600160a01b0316610525565b916040518093630458184560e11b825281600460209687935afa908115610755578391611760575b506001600160a01b031690813b1561075a576040516387da75ef60e01b8152838160048183875af180156107555761174d575b506040516316275f1560e21b81526001600160a01b0382166004820152918483602481845afa9283156107555784918691839561172e575b506004604051809481936396c82e5760e01b83525af1928315610755576102079561164194846116229361162795899361170f575b50611591611280565b8261169357506001600160a01b03166000908152600d60205260409020905054955b506115bc611437565b6001600160a01b038516600090815260066020526040902090919054611646575b6001600160a01b0385166000908152600d602052604090206116199054976116036101fa565b98895280838a01524260408a01526009546109ad565b91015190610a00565b600955565b6001600160a01b0316600090815260066020526040902090565b611456565b905061168d610ca061166a8660018060a01b03166000526006602052604060002090565b6001600160a01b0387166000908152600660205260409020610e13905b546109f1565b906115dd565b6116fb61170391610da1611709956113f86116f26116ec6116e66116c98a60018060a01b0316600052600d602052604060002090565b546001600160a01b03909a166000908152600d6020526040902090565b54610a7e565b94610a7e565b600e5490610a90565b612710900490565b9061177d565b956115b3565b611727919350843d8611610dd757610dc981836101d8565b9138611588565b611746919550823d8411610dd757610dc981836101d8565b9338611553565b8061074961175a926101a3565b3861151b565b6117779150843d86116108825761087381836101d8565b386114e8565b908082101561178a575090565b905090565b9081604091031261013d5760405190604082019082821067ffffffffffffffff8311176101b757602091604052805183520151602082015290565b5190600382101561013d57565b9080601f8301121561013d5781519067ffffffffffffffff82116101b7578160051b6040519360209361180c858401876101d8565b8552838086019282010192831161013d578301905b82821061182f575050505090565b81518152908301908301611821565b9060208282031261013d57815167ffffffffffffffff9283821161013d570160e08183031261013d5761186f610209565b92611879826117ca565b8452602082015190811161013d5760c0926118959183016117d7565b602084015260408101516040840152606081015160608401526118ba608082016108fa565b608084015260a081015160a0840152015160c082015290565b600311156118dd57565b634e487b7160e01b600052602160045260246000fd5b156118fa57565b60405162461bcd60e51b815260206004820152601c60248201527f4f6e6c79205472616465204c50732063616e206265207374616b6564000000006044820152606490fd5b604051906040820182811067ffffffffffffffff8211176101b75760405260128252716465706f7369744c7056616c75653a20257360701b6020830152565b1561198557565b60405162461bcd60e51b815260206004820152601f60248201527f4c502076616c7565206d7573742062652067726561746572207468616e2030006044820152606490fd5b156119d157565b60405162461bcd60e51b815260206004820152602360248201527f4e6f7420746865206f776e6572206f66206c697175696469747920706f73697460448201526234b7b760e91b6064820152608490fd5b611a59611a49611a3c836000526001602052604060002090565b546001600160a01b031690565b6001600160a01b031633146119ca565b611a6d81600052600c602052604060002090565b54336000908152600d60205260409020611a8990918254610a00565b9055611aae61062e611aa583600052600c602052604060002090565b54600e54610a00565b611ad5611ac5826000526001602052604060002090565b80546001600160a01b0319169055565b600080611aec83600052600c602052604060002090565b55611af6336114aa565b600b54611b0d90610525906001600160a01b031681565b803b15611c7257604051632142170760e11b8152306004820152336024820152604481018490529082908290606490829084905af1801561075557611c5f575b50336000908152600260205260409020611bb290611b6a90611687565b611b7e846000526005602052604060002090565b54818103611c0c575b5082611b9d856000526005602052604060002090565b553360009081526004602052604090206106b8565b55336000908152600260205260409020611bcc81546109f1565b9055611bdc6107066003546109f1565b60405190815233907f45ec0244cf2e0c90546c4aff992398e1505d5ce31338249d7f29066169cfdcea90602090a2565b336000908152600460205260409020611c5890611c2a9084906106b8565b543360009081526004602052604090208190611c479085906106b8565b556000526005602052604060002090565b5538611b87565b80610749611c6c926101a3565b38611b4d565b5080fd5b6001600160a01b0381166000908152600d602052604090205415611cf3576006602052611cab6040600020610e1381546109f1565b5054906001600160ff1b03821682036109a857611cec611cd061091a9360011b610a44565b6001600160a01b039092166000908152600d6020526040902090565b5490610aa3565b50600090565b6001600160a01b031660009081526006602052604090208054908115611d465760001982019182116109a857600291611d3191610959565b50015442034281116109a85761091a90611362565b5050600090565b82611d5791610a90565b91600090821115611d715750905b8181111561178a575090565b905090611d65565b919060405190602090632d839cb360e21b828401526040602484015284519182606485015260005b838110611de15750506102079394508282608492600084611ddc96850101526044830152601f801991011681010360648101845201826101d8565b611df5565b868101820151858201608401528101611da1565b600080916020815191016a636f6e736f6c652e6c6f675afa5056fea2646970667358221220c85e965d59aadf282bb0c3eba68382f1e0a831e325f8088e21601eae199914aa64736f6c63430008130033",
  "linkReferences": {},
  "deployedLinkReferences": {}
}