{
  "_format": "hh-sol-artifact-1",
  "contractName": "TradingGauge",
  "sourceName": "contracts/protocol/Gauges/TradingGauge.sol",
  "abi": [
    {
      "inputs": [
        {
          "internalType": "contract IAddressesProvider",
          "name": "addressProvider",
          "type": "address"
        },
        {
          "internalType": "address",
          "name": "lpToken_",
          "type": "address"
        }
      ],
      "stateMutability": "nonpayable",
      "type": "constructor"
    },
    {
      "anonymous": false,
      "inputs": [
        {
          "indexed": true,
          "internalType": "address",
          "name": "user",
          "type": "address"
        },
        {
          "indexed": false,
          "internalType": "uint256",
          "name": "lpId",
          "type": "uint256"
        }
      ],
      "name": "DepositLP",
      "type": "event"
    },
    {
      "anonymous": false,
      "inputs": [
        {
          "indexed": true,
          "internalType": "address",
          "name": "user",
          "type": "address"
        },
        {
          "indexed": false,
          "internalType": "uint256",
          "name": "lpId",
          "type": "uint256"
        }
      ],
      "name": "WithdrawLP",
      "type": "event"
    },
    {
      "inputs": [
        {
          "internalType": "address",
          "name": "user",
          "type": "address"
        }
      ],
      "name": "balanceOf",
      "outputs": [
        {
          "internalType": "uint256",
          "name": "",
          "type": "uint256"
        }
      ],
      "stateMutability": "view",
      "type": "function"
    },
    {
      "inputs": [
        {
          "internalType": "uint256",
          "name": "nftAmount",
          "type": "uint256"
        },
        {
          "internalType": "uint256",
          "name": "tokenAmount",
          "type": "uint256"
        },
        {
          "internalType": "uint256",
          "name": "spotPrice",
          "type": "uint256"
        }
      ],
      "name": "calculateLpValue",
      "outputs": [
        {
          "internalType": "uint256",
          "name": "",
          "type": "uint256"
        }
      ],
      "stateMutability": "pure",
      "type": "function"
    },
    {
      "inputs": [],
      "name": "claim",
      "outputs": [
        {
          "internalType": "uint256",
          "name": "amountToClaim",
          "type": "uint256"
        }
      ],
      "stateMutability": "nonpayable",
      "type": "function"
    },
    {
      "inputs": [
        {
          "internalType": "uint256",
          "name": "lpId",
          "type": "uint256"
        }
      ],
      "name": "deposit",
      "outputs": [],
      "stateMutability": "nonpayable",
      "type": "function"
    },
    {
      "inputs": [
        {
          "internalType": "uint256",
          "name": "tokenId",
          "type": "uint256"
        }
      ],
      "name": "kick",
      "outputs": [],
      "stateMutability": "nonpayable",
      "type": "function"
    },
    {
      "inputs": [
        {
          "internalType": "address",
          "name": "user",
          "type": "address"
        },
        {
          "internalType": "uint256",
          "name": "index",
          "type": "uint256"
        }
      ],
      "name": "lpOfOwnerByIndex",
      "outputs": [
        {
          "internalType": "uint256",
          "name": "",
          "type": "uint256"
        }
      ],
      "stateMutability": "view",
      "type": "function"
    },
    {
      "inputs": [],
      "name": "lpToken",
      "outputs": [
        {
          "internalType": "address",
          "name": "",
          "type": "address"
        }
      ],
      "stateMutability": "view",
      "type": "function"
    },
    {
      "inputs": [
        {
          "internalType": "address",
          "name": "",
          "type": "address"
        },
        {
          "internalType": "address",
          "name": "",
          "type": "address"
        },
        {
          "internalType": "uint256",
          "name": "",
          "type": "uint256"
        },
        {
          "internalType": "bytes",
          "name": "",
          "type": "bytes"
        }
      ],
      "name": "onERC721Received",
      "outputs": [
        {
          "internalType": "bytes4",
          "name": "",
          "type": "bytes4"
        }
      ],
      "stateMutability": "nonpayable",
      "type": "function"
    },
    {
      "inputs": [],
      "name": "totalLPValue",
      "outputs": [
        {
          "internalType": "uint256",
          "name": "",
          "type": "uint256"
        }
      ],
      "stateMutability": "view",
      "type": "function"
    },
    {
      "inputs": [],
      "name": "totalSupply",
      "outputs": [
        {
          "internalType": "uint256",
          "name": "",
          "type": "uint256"
        }
      ],
      "stateMutability": "view",
      "type": "function"
    },
    {
      "inputs": [
        {
          "internalType": "address",
          "name": "user",
          "type": "address"
        }
      ],
      "name": "userBoost",
      "outputs": [
        {
          "internalType": "uint256",
          "name": "",
          "type": "uint256"
        }
      ],
      "stateMutability": "view",
      "type": "function"
    },
    {
      "inputs": [
        {
          "internalType": "address",
          "name": "user",
          "type": "address"
        }
      ],
      "name": "userLPValue",
      "outputs": [
        {
          "internalType": "uint256",
          "name": "",
          "type": "uint256"
        }
      ],
      "stateMutability": "view",
      "type": "function"
    },
    {
      "inputs": [
        {
          "internalType": "address",
          "name": "user",
          "type": "address"
        }
      ],
      "name": "userMaturityMultiplier",
      "outputs": [
        {
          "internalType": "uint256",
          "name": "",
          "type": "uint256"
        }
      ],
      "stateMutability": "view",
      "type": "function"
    },
    {
      "inputs": [
        {
          "internalType": "uint256",
          "name": "lpId",
          "type": "uint256"
        }
      ],
      "name": "withdraw",
      "outputs": [],
      "stateMutability": "nonpayable",
      "type": "function"
    },
    {
      "inputs": [
        {
          "internalType": "uint256[]",
          "name": "lpIds",
          "type": "uint256[]"
        }
      ],
      "name": "withdrawBatch",
      "outputs": [],
      "stateMutability": "nonpayable",
      "type": "function"
    },
    {
      "inputs": [],
      "name": "writeTotalWeightHistory",
      "outputs": [],
      "stateMutability": "nonpayable",
      "type": "function"
    }
  ],
  "bytecode": "0x60806040523480156200001157600080fd5b506040516200225738038062002257833981016040819052620000349162000110565b6001600081815581546001600160a01b038086166001600160a01b0319928316178455600c80549186169190921617905560408051602081019091529081526200008291600b91906200008b565b5050506200014f565b828054828255906000526020600020908101928215620000ce579160200282015b82811115620000ce578251829060ff16905591602001919060010190620000ac565b50620000dc929150620000e0565b5090565b5b80821115620000dc5760008155600101620000e1565b6001600160a01b03811681146200010d57600080fd5b50565b600080604083850312156200012457600080fd5b82516200013181620000f7565b60208401519092506200014481620000f7565b809150509250929050565b6120f8806200015f6000396000f3fe608060405234801561001057600080fd5b50600436106101005760003560e01c806370a08231116100975780639c8d4156116100665780639c8d41561461022a578063b6b55f251461023d578063ce0cf1a514610250578063d02a2bee1461026357600080fd5b806370a08231146101c857806378d2f984146101f157806387da75ef1461021a5780638b3966231461022257600080fd5b80633a631ed8116100d35780633a631ed81461017f57806348458f25146101925780634e71d92d146101a55780635fcbd285146101ad57600080fd5b8063019e06ab14610105578063150b7a021461012b57806318160ddd146101625780632e1a7d4d1461016a575b600080fd5b610118610113366004611bf3565b610276565b6040519081526020015b60405180910390f35b610149610139366004611c8f565b630a85bd0160e11b949350505050565b6040516001600160e01b03199091168152602001610122565b600454610118565b61017d610178366004611d53565b6102a1565b005b61011861018d366004611d6c565b610516565b6101186101a0366004611d89565b61059f565b6101186105dc565b600c546040516001600160a01b039091168152602001610122565b6101186101d6366004611d6c565b6001600160a01b031660009081526003602052604090205490565b6101186101ff366004611d6c565b6001600160a01b03166000908152600e602052604090205490565b61017d610f6c565b600f54610118565b61017d610238366004611db5565b6110a8565b61017d61024b366004611d53565b6110eb565b61017d61025e366004611d53565b6113e0565b610118610271366004611d6c565b611537565b6001600160a01b03821660009081526005602090815260408083208484529091529020545b92915050565b6102a96115d7565b6000818152600260205260409020546001600160a01b031633146103145760405162461bcd60e51b815260206004820152601a60248201527f54473a573a4e4f545f4f574e45525f4f465f4c505f544f4b454e00000000000060448201526064015b60405180910390fd5b6000818152600d6020908152604080832054338452600e9092528220805491929091610341908490611e40565b90915550506000818152600d6020526040812054600f805491929091610368908490611e40565b9091555050600081815260026020908152604080832080546001600160a01b0319169055600d90915281205561039d33611630565b600c54604051632142170760e11b8152306004820152336024820152604481018390526001600160a01b03909116906342842e0e90606401600060405180830381600087803b1580156103ef57600080fd5b505af1158015610403573d6000803e3d6000fd5b5050336000908152600360205260408120549092506104259150600190611e40565b60008381526006602052604090205490915080821461046f573360009081526005602090815260408083208584528252808320548484528184208190558352600690915290208190555b6000838152600660209081526040808320839055338084526005835281842086855283528184208490558352600390915281208054600192906104b3908490611e40565b925050819055506001600460008282546104cd9190611e40565b909155505060405183815233907f45ec0244cf2e0c90546c4aff992398e1505d5ce31338249d7f29066169cfdcea9060200160405180910390a250506105136001600055565b50565b6001600160a01b03811660009081526007602052604081205480820361053f5750600092915050565b6001600160a01b038316600090815260076020526040902061059890610566600184611e40565b8154811061057657610576611e53565b906000526020600020906003020160020154426105939190611e40565b6119e0565b9392505050565b6000806105ac8386611e69565b90506000838510156105bf5760006105c1565b845b90508082116105d057816105d2565b805b9695505050505050565b60006105e733611630565b60015460408051630458184560e11b815290516000926001600160a01b0316916308b0308a9160048083019260209291908290030181865afa158015610631573d6000803e3d6000fd5b505050506040513d601f19601f820116820180604052508101906106559190611e90565b90506000600160009054906101000a90046001600160a01b03166001600160a01b03166358de9ade6040518163ffffffff1660e01b8152600401602060405180830381865afa1580156106ac573d6000803e3d6000fd5b505050506040513d601f19601f820116820180604052508101906106d09190611e90565b336000908152600760205260408120549192508190036106f4576000935050505090565b3360009081526009602052604081205490036107c65733600090815260076020526040812080546001600160a01b03861692635487c577929161073957610739611e53565b9060005260206000209060030201600201546040518263ffffffff1660e01b815260040161076991815260200190565b602060405180830381865afa158015610786573d6000803e3d6000fd5b505050506040513d601f19601f820116820180604052508101906107aa9190611ead565b6107b5906001611ec6565b336000908152600960205260409020555b6000805b6032811015610e8b573360009081526009602052604090819020549051635487c57760e01b81524260048201529092506001600160a01b03861690635487c57790602401602060405180830381865afa15801561082b573d6000803e3d6000fd5b505050506040513d601f19601f8201168201806040525081019061084f9190611ead565b821015610e8b5733600090815260076020908152604080832060089092528220548154811061088057610880611e53565b9060005260206000209060030201604051806060016040529081600082015481526020016001820154815260200160028201548152505090506001846108c69190611e40565b3360009081526008602052604090205403610a05576000600b84815481106108f0576108f0611e53565b906000526020600020015411156109e057612710600b848154811061091757610917611e53565b906000526020600020015461092c9190611e69565b61093f8260400151426105939190611e40565b60208301516040516315a8752360e31b8152306004820152602481018790526001600160a01b0389169063ad43a918906044016020604051808303816000875af1158015610991573d6000803e3d6000fd5b505050506040513d601f19601f820116820180604052508101906109b59190611ead565b6109bf9190611e69565b6109c99190611e69565b6109d39190611ed9565b6109dd9088611ec6565b96505b3360009081526009602052604081208054916109fb83611efb565b9190505550610e78565b3360009081526007602090815260408083206008909252822054610a2a906001611ec6565b81548110610a3a57610a3a611e53565b906000526020600020906003020160405180606001604052908160008201548152602001600182015481526020016002820154815250509050866001600160a01b0316635487c57783604001516040518263ffffffff1660e01b8152600401610aa591815260200190565b602060405180830381865afa158015610ac2573d6000803e3d6000fd5b505050506040513d601f19601f82011682018060405250810190610ae69190611ead565b6040828101519051635487c57760e01b815260048101919091526001600160a01b03891690635487c57790602401602060405180830381865afa158015610b31573d6000803e3d6000fd5b505050506040513d601f19601f82011682018060405250810190610b559190611ead565b03610b7f57336000908152600860205260408120805491610b7583611efb565b9190505550610e76565b6040808201519051635487c57760e01b815285916001600160a01b038a1691635487c57791610bb49160040190815260200190565b602060405180830381865afa158015610bd1573d6000803e3d6000fd5b505050506040513d601f19601f82011682018060405250810190610bf59190611ead565b03610d4c576000600b8581548110610c0f57610c0f611e53565b9060005260206000200154118015610c2957508051825111155b15610d1157612710600b8581548110610c4457610c44611e53565b9060005260206000200154610c599190611e69565b8260200151610c75846040015184604001516105939190611e40565b6040516315a8752360e31b8152306004820152602481018890526001600160a01b038a169063ad43a918906044016020604051808303816000875af1158015610cc2573d6000803e3d6000fd5b505050506040513d601f19601f82011682018060405250810190610ce69190611ead565b610cf09190611e69565b610cfa9190611e69565b610d049190611ed9565b610d0e9089611ec6565b97505b336000908152600860205260408120805491610d2c83611efb565b9091555050336000908152600960205260408120805491610b7583611efb565b6000600b8581548110610d6157610d61611e53565b90600052602060002001541115610e5557612710600b8581548110610d8857610d88611e53565b9060005260206000200154610d9d9190611e69565b8260200151610db9846040015184604001516105939190611e40565b6040516315a8752360e31b8152306004820152602481018890526001600160a01b038a169063ad43a918906044016020604051808303816000875af1158015610e06573d6000803e3d6000fd5b505050506040513d601f19601f82011682018060405250810190610e2a9190611ead565b610e349190611e69565b610e3e9190611e69565b610e489190611ed9565b610e529089611ec6565b97505b336000908152600960205260408120805491610e7083611efb565b91905055505b505b5080610e8381611efb565b9150506107ca565b50600160009054906101000a90046001600160a01b03166001600160a01b03166315b9ba5d6040518163ffffffff1660e01b8152600401602060405180830381865afa158015610edf573d6000803e3d6000fd5b505050506040513d601f19601f82011682018060405250810190610f039190611e90565b604051631ec9887760e11b8152336004820152602481018790526001600160a01b039190911690633d9310ee90604401600060405180830381600087803b158015610f4d57600080fd5b505af1158015610f61573d6000803e3d6000fd5b505050505050505090565b60015460408051630458184560e11b815290516000926001600160a01b0316916308b0308a9160048083019260209291908290030181865afa158015610fb6573d6000803e3d6000fd5b505050506040513d601f19601f82011682018060405250810190610fda9190611e90565b604051635487c57760e01b81524260048201526001600160a01b039190911690635487c57790602401602060405180830381865afa158015611020573d6000803e3d6000fd5b505050506040513d601f19601f820116820180604052508101906110449190611ead565b905060005b60808110156110a457600b548211156110a457600a54600b80546001810182556000919091527f0175b7a638427703f0dbe7bb9bbf987a2551717b34e79f33b5b1008d1fa01db901558061109c81611efb565b915050611049565b5050565b60005b818110156110e6576110d48383838181106110c8576110c8611e53565b905060200201356102a1565b806110de81611efb565b9150506110ab565b505050565b6110f36115d7565b600c546040516319ba7e5360e31b8152600481018390526000916001600160a01b03169063cdd3f29890602401600060405180830381865afa15801561113d573d6000803e3d6000fd5b505050506040513d6000823e601f3d908101601f191682016040526111659190810190611fa3565b905060008151600481111561117c5761117c61205d565b148061119a57506002815160048111156111985761119861205d565b145b806111b757506001815160048111156111b5576111b561205d565b145b6111fa5760405162461bcd60e51b815260206004820152601460248201527354473a443a494e56414c49445f4c505f5459504560601b604482015260640161030b565b60006112148260200151518360400151846060015161059f565b90506000811161125b5760405162461bcd60e51b815260206004820152601260248201527154473a443a4c505f56414c55455f5a45524f60701b604482015260640161030b565b600083815260026020908152604080832080546001600160a01b03191633908117909155600d83528184208590558352600e909152812080548392906112a2908490611ec6565b9250508190555080600f60008282546112bb9190611ec6565b909155506112ca905033611630565b600c54604051632142170760e11b8152336004820152306024820152604481018590526001600160a01b03909116906342842e0e90606401600060405180830381600087803b15801561131c57600080fd5b505af1158015611330573d6000803e3d6000fd5b505033600081815260036020818152604080842080546005845282862081875284528286208c90558b86526006845291852082905594845291905282549094506001935061137f908490611ec6565b925050819055506001600460008282546113999190611ec6565b909155505060405184815233907fa76194b11cf7b940f18e866ed3382a795bb09ca684db1b957d595417f63151f89060200160405180910390a25050506105136001600055565b60015460408051630458184560e11b815290516000926001600160a01b0316916308b0308a9160048083019260209291908290030181865afa15801561142a573d6000803e3d6000fd5b505050506040513d601f19601f8201168201806040525081019061144e9190611e90565b604051635a2d1e0760e11b81526004810184905290915042906001600160a01b0383169063b45a3c0e906024016040805180830381865afa158015611497573d6000803e3d6000fd5b505050506040513d601f19601f820116820180604052508101906114bb9190612073565b6020015110156110a4576040516331a9108f60e11b8152600481018390526110a4906001600160a01b03831690636352211e90602401602060405180830381865afa15801561150e573d6000803e3d6000fd5b505050506040513d601f19601f820116820180604052508101906115329190611e90565b611630565b6001600160a01b0381166000908152600e6020526040812054810361155e57506000919050565b6001600160a01b0382166000908152600e602090815260408083205460079092529091208054612710919061159590600190611e40565b815481106115a5576115a5611e53565b90600052602060002090600302016000015460026115c39190611e69565b6115cd9190611e69565b61029b9190611ed9565b6002600054036116295760405162461bcd60e51b815260206004820152601f60248201527f5265656e7472616e637947756172643a207265656e7472616e742063616c6c00604482015260640161030b565b6002600055565b60015460408051630458184560e11b815290516000926001600160a01b0316916308b0308a9160048083019260209291908290030181865afa15801561167a573d6000803e3d6000fd5b505050506040513d601f19601f8201168201806040525081019061169e9190611e90565b9050806001600160a01b03166387da75ef6040518163ffffffff1660e01b8152600401600060405180830381600087803b1580156116db57600080fd5b505af11580156116ef573d6000803e3d6000fd5b50506040516316275f1560e21b81526001600160a01b038581166004830152600093508416915063589d7c5490602401602060405180830381865afa15801561173c573d6000803e3d6000fd5b505050506040513d601f19601f820116820180604052508101906117609190611ead565b90506000826001600160a01b03166396c82e576040518163ffffffff1660e01b81526004016020604051808303816000875af11580156117a4573d6000803e3d6000fd5b505050506040513d601f19601f820116820180604052508101906117c89190611ead565b905060006117d4610f6c565b816000036117fb57506001600160a01b0384166000908152600e6020526040902054611883565b6001600160a01b0385166000908152600e6020526040902054600f54611880919061271090859061182e88611388611e69565b6118389190611e69565b6118429190611ed9565b6001600160a01b0389166000908152600e602052604090205461186790611388611e69565b6118719190611ec6565b61187b9190611ed9565b611bc8565b90505b6118a760405180606001604052806000815260200160008152602001600081525090565b6001600160a01b03861660009081526007602052604090205415611935576001600160a01b038616600090815260076020526040902080546118eb90600190611e40565b815481106118fb576118fb611e53565b9060005260206000209060030201604051806060016040529081600082015481526020016001820154815260200160028201548152505090505b604080516060810182526001600160a01b0388166000908152600e602090815290839020548252808201859052429282019290925290820151600a5461197c908590611ec6565b6119869190611e40565b600a556001600160a01b039096166000908152600760209081526040808320805460018181018355918552938390208a51600390950201938455918901519183019190915596909601516002909601959095555050505050565b600080600160009054906101000a90046001600160a01b03166001600160a01b03166308b0308a6040518163ffffffff1660e01b8152600401602060405180830381865afa158015611a36573d6000803e3d6000fd5b505050506040513d601f19601f82011682018060405250810190611a5a9190611e90565b6001600160a01b031663b5b7a1846040518163ffffffff1660e01b8152600401602060405180830381865afa158015611a97573d6000803e3d6000fd5b505050506040513d601f19601f82011682018060405250810190611abb9190611ead565b600160009054906101000a90046001600160a01b03166001600160a01b03166358de9ade6040518163ffffffff1660e01b8152600401602060405180830381865afa158015611b0e573d6000803e3d6000fd5b505050506040513d601f19601f82011682018060405250810190611b329190611e90565b6001600160a01b031663c057beee6040518163ffffffff1660e01b8152600401602060405180830381865afa158015611b6f573d6000803e3d6000fd5b505050506040513d601f19601f82011682018060405250810190611b939190611ead565b611b9d9190611e69565b905080831115611bb1575061271092915050565b80611bbe84612710611e69565b6105989190611ed9565b6000818310611bd75781610598565b5090919050565b6001600160a01b038116811461051357600080fd5b60008060408385031215611c0657600080fd5b8235611c1181611bde565b946020939093013593505050565b634e487b7160e01b600052604160045260246000fd5b60405160e0810167ffffffffffffffff81118282101715611c5857611c58611c1f565b60405290565b604051601f8201601f1916810167ffffffffffffffff81118282101715611c8757611c87611c1f565b604052919050565b60008060008060808587031215611ca557600080fd5b8435611cb081611bde565b9350602085810135611cc181611bde565b935060408601359250606086013567ffffffffffffffff80821115611ce557600080fd5b818801915088601f830112611cf957600080fd5b813581811115611d0b57611d0b611c1f565b611d1d601f8201601f19168501611c5e565b91508082528984828501011115611d3357600080fd5b808484018584013760008482840101525080935050505092959194509250565b600060208284031215611d6557600080fd5b5035919050565b600060208284031215611d7e57600080fd5b813561059881611bde565b600080600060608486031215611d9e57600080fd5b505081359360208301359350604090920135919050565b60008060208385031215611dc857600080fd5b823567ffffffffffffffff80821115611de057600080fd5b818501915085601f830112611df457600080fd5b813581811115611e0357600080fd5b8660208260051b8501011115611e1857600080fd5b60209290920196919550909350505050565b634e487b7160e01b600052601160045260246000fd5b8181038181111561029b5761029b611e2a565b634e487b7160e01b600052603260045260246000fd5b808202811582820484141761029b5761029b611e2a565b8051611e8b81611bde565b919050565b600060208284031215611ea257600080fd5b815161059881611bde565b600060208284031215611ebf57600080fd5b5051919050565b8082018082111561029b5761029b611e2a565b600082611ef657634e487b7160e01b600052601260045260246000fd5b500490565b600060018201611f0d57611f0d611e2a565b5060010190565b805160058110611e8b57600080fd5b600082601f830112611f3457600080fd5b8151602067ffffffffffffffff821115611f5057611f50611c1f565b8160051b611f5f828201611c5e565b9283528481018201928281019087851115611f7957600080fd5b83870192505b84831015611f9857825182529183019190830190611f7f565b979650505050505050565b600060208284031215611fb557600080fd5b815167ffffffffffffffff80821115611fcd57600080fd5b9083019060e08286031215611fe157600080fd5b611fe9611c35565b611ff283611f14565b815260208301518281111561200657600080fd5b61201287828601611f23565b602083015250604083015160408201526060830151606082015261203860808401611e80565b608082015260a083015160a082015260c083015160c082015280935050505092915050565b634e487b7160e01b600052602160045260246000fd5b60006040828403121561208557600080fd5b6040516040810181811067ffffffffffffffff821117156120a8576120a8611c1f565b60405282518152602092830151928101929092525091905056fea2646970667358221220e39884f4730fdd38be0ef9dce652cd2fb9040c439329879ada936df6609a01ac64736f6c63430008130033",
  "linkReferences": {},
  "deployedLinkReferences": {}
}