{
  "_format": "hh-sol-artifact-1",
  "contractName": "TradingGauge",
  "sourceName": "contracts/protocol/Gauges/TradingGauge.sol",
  "abi": [
    {
      "inputs": [
        {
          "internalType": "contract IAddressProvider",
          "name": "addressProvider",
          "type": "address"
        },
        {
          "internalType": "address",
          "name": "lpToken_",
          "type": "address"
        }
      ],
      "stateMutability": "nonpayable",
      "type": "constructor"
    },
    {
      "anonymous": false,
      "inputs": [
        {
          "indexed": true,
          "internalType": "address",
          "name": "user",
          "type": "address"
        },
        {
          "indexed": false,
          "internalType": "uint256",
          "name": "amount",
          "type": "uint256"
        }
      ],
      "name": "Claim",
      "type": "event"
    },
    {
      "anonymous": false,
      "inputs": [
        {
          "indexed": true,
          "internalType": "address",
          "name": "user",
          "type": "address"
        },
        {
          "indexed": false,
          "internalType": "uint256",
          "name": "lpId",
          "type": "uint256"
        }
      ],
      "name": "DepositLP",
      "type": "event"
    },
    {
      "anonymous": false,
      "inputs": [
        {
          "indexed": true,
          "internalType": "address",
          "name": "user",
          "type": "address"
        },
        {
          "indexed": false,
          "internalType": "uint256",
          "name": "lpId",
          "type": "uint256"
        }
      ],
      "name": "WithdrawLP",
      "type": "event"
    },
    {
      "inputs": [
        {
          "internalType": "uint256",
          "name": "nftAmount",
          "type": "uint256"
        },
        {
          "internalType": "uint256",
          "name": "tokenAmount",
          "type": "uint256"
        },
        {
          "internalType": "uint256",
          "name": "spotPrice",
          "type": "uint256"
        }
      ],
      "name": "calculateLpValue",
      "outputs": [
        {
          "internalType": "uint256",
          "name": "",
          "type": "uint256"
        }
      ],
      "stateMutability": "pure",
      "type": "function"
    },
    {
      "inputs": [],
      "name": "claim",
      "outputs": [
        {
          "internalType": "uint256",
          "name": "amountToClaim",
          "type": "uint256"
        }
      ],
      "stateMutability": "nonpayable",
      "type": "function"
    },
    {
      "inputs": [
        {
          "internalType": "uint256",
          "name": "lpId",
          "type": "uint256"
        }
      ],
      "name": "deposit",
      "outputs": [],
      "stateMutability": "nonpayable",
      "type": "function"
    },
    {
      "inputs": [
        {
          "internalType": "address",
          "name": "user",
          "type": "address"
        }
      ],
      "name": "getBalanceOf",
      "outputs": [
        {
          "internalType": "uint256",
          "name": "",
          "type": "uint256"
        }
      ],
      "stateMutability": "view",
      "type": "function"
    },
    {
      "inputs": [
        {
          "internalType": "address",
          "name": "user",
          "type": "address"
        },
        {
          "internalType": "uint256",
          "name": "index",
          "type": "uint256"
        }
      ],
      "name": "getLPOfOwnerByIndex",
      "outputs": [
        {
          "internalType": "uint256",
          "name": "",
          "type": "uint256"
        }
      ],
      "stateMutability": "view",
      "type": "function"
    },
    {
      "inputs": [],
      "name": "getLPToken",
      "outputs": [
        {
          "internalType": "address",
          "name": "",
          "type": "address"
        }
      ],
      "stateMutability": "view",
      "type": "function"
    },
    {
      "inputs": [],
      "name": "getTotalLPValue",
      "outputs": [
        {
          "internalType": "uint256",
          "name": "",
          "type": "uint256"
        }
      ],
      "stateMutability": "view",
      "type": "function"
    },
    {
      "inputs": [],
      "name": "getTotalSupply",
      "outputs": [
        {
          "internalType": "uint256",
          "name": "",
          "type": "uint256"
        }
      ],
      "stateMutability": "view",
      "type": "function"
    },
    {
      "inputs": [
        {
          "internalType": "address",
          "name": "user",
          "type": "address"
        }
      ],
      "name": "getUserBoost",
      "outputs": [
        {
          "internalType": "uint256",
          "name": "",
          "type": "uint256"
        }
      ],
      "stateMutability": "view",
      "type": "function"
    },
    {
      "inputs": [
        {
          "internalType": "address",
          "name": "user",
          "type": "address"
        }
      ],
      "name": "getUserLPValue",
      "outputs": [
        {
          "internalType": "uint256",
          "name": "",
          "type": "uint256"
        }
      ],
      "stateMutability": "view",
      "type": "function"
    },
    {
      "inputs": [
        {
          "internalType": "address",
          "name": "user",
          "type": "address"
        }
      ],
      "name": "getUserMaturityMultiplier",
      "outputs": [
        {
          "internalType": "uint256",
          "name": "",
          "type": "uint256"
        }
      ],
      "stateMutability": "view",
      "type": "function"
    },
    {
      "inputs": [
        {
          "internalType": "uint256",
          "name": "tokenId",
          "type": "uint256"
        }
      ],
      "name": "kick",
      "outputs": [],
      "stateMutability": "nonpayable",
      "type": "function"
    },
    {
      "inputs": [
        {
          "internalType": "address",
          "name": "",
          "type": "address"
        },
        {
          "internalType": "address",
          "name": "",
          "type": "address"
        },
        {
          "internalType": "uint256",
          "name": "",
          "type": "uint256"
        },
        {
          "internalType": "bytes",
          "name": "",
          "type": "bytes"
        }
      ],
      "name": "onERC721Received",
      "outputs": [
        {
          "internalType": "bytes4",
          "name": "",
          "type": "bytes4"
        }
      ],
      "stateMutability": "nonpayable",
      "type": "function"
    },
    {
      "inputs": [
        {
          "internalType": "bytes4",
          "name": "interfaceId",
          "type": "bytes4"
        }
      ],
      "name": "supportsInterface",
      "outputs": [
        {
          "internalType": "bool",
          "name": "",
          "type": "bool"
        }
      ],
      "stateMutability": "view",
      "type": "function"
    },
    {
      "inputs": [
        {
          "internalType": "uint256",
          "name": "lpId",
          "type": "uint256"
        }
      ],
      "name": "withdraw",
      "outputs": [],
      "stateMutability": "nonpayable",
      "type": "function"
    },
    {
      "inputs": [
        {
          "internalType": "uint256[]",
          "name": "lpIds",
          "type": "uint256[]"
        }
      ],
      "name": "withdrawBatch",
      "outputs": [],
      "stateMutability": "nonpayable",
      "type": "function"
    },
    {
      "inputs": [],
      "name": "writeTotalWeightHistory",
      "outputs": [],
      "stateMutability": "nonpayable",
      "type": "function"
    }
  ],
  "bytecode": "0x60c06040523480156200001157600080fd5b5060405162002546380380620025468339810160408190526200003491620000f9565b600160008181556001600160a01b03808516608052831660a05260408051602081019091529081526200006b91600a919062000074565b50505062000138565b828054828255906000526020600020908101928215620000b7579160200282015b82811115620000b7578251829060ff1690559160200191906001019062000095565b50620000c5929150620000c9565b5090565b5b80821115620000c55760008155600101620000ca565b6001600160a01b0381168114620000f657600080fd5b50565b600080604083850312156200010d57600080fd5b82516200011a81620000e0565b60208401519092506200012d81620000e0565b809150509250929050565b60805160a0516123a96200019d600039600081816101b2015281816104ef01528181611320015261152f015260008181610676015281816106fc01528181610f8e015281816110b20152818161163d0152818161180a0152611bfa01526123a96000f3fe608060405234801561001057600080fd5b506004361061010b5760003560e01c80635aaa087c116100a25780639c8d4156116100715780639c8d41561461029a578063b6b55f25146102ad578063b86d06cf146102c0578063c4e41b22146102c8578063ce0cf1a5146102d057600080fd5b80635aaa087c1461022057806387da75ef146102565780639581372b1461025e5780639b96eece1461027157600080fd5b80633c1aa925116100de5780633c1aa925146101a55780633eae1483146101dc57806348458f25146102055780634e71d92d1461021857600080fd5b806301ffc9a714610110578063150b7a02146101385780632e1a7d4d1461016f578063320e55a414610184575b600080fd5b61012361011e366004611dbb565b6102e3565b60405190151581526020015b60405180910390f35b610156610146366004611e6a565b630a85bd0160e11b949350505050565b6040516001600160e01b0319909116815260200161012f565b61018261017d366004611f2e565b61031a565b005b610197610192366004611f47565b610599565b60405190815260200161012f565b6040516001600160a01b037f000000000000000000000000000000000000000000000000000000000000000016815260200161012f565b6101976101ea366004611f47565b6001600160a01b03166000908152600c602052604090205490565b610197610213366004611f64565b61062a565b610197610667565b61019761022e366004611f90565b6001600160a01b03919091166000908152600460209081526040808320938352929052205490565b6101826110ae565b61019761026c366004611f47565b611200565b61019761027f366004611f47565b6001600160a01b031660009081526002602052604090205490565b6101826102a8366004611fbc565b6112bc565b6101826102bb366004611f2e565b6112ff565b600d54610197565b600354610197565b6101826102de366004611f2e565b611639565b60006001600160e01b03198216633c1aa92560e01b148061031457506301ffc9a760e01b6001600160e01b03198316145b92915050565b6103226117ad565b6000818152600160205260409020546001600160a01b0316331461038d5760405162461bcd60e51b815260206004820152601a60248201527f54473a573a4e4f545f4f574e45525f4f465f4c505f544f4b454e00000000000060448201526064015b60405180910390fd5b6000818152600b6020908152604080832054338452600c90925282208054919283926103ba908490612047565b9250508190555080600d60008282546103d39190612047565b9091555050600082815260016020818152604080842080546001600160a01b0319169055600b825280842084905533845260029091528220546104169190612047565b600084815260056020526040902054909150808214610460573360009081526004602090815260408083208584528252808320548484528184208190558352600590915290208190555b6000848152600560209081526040808320839055338084526004835281842086855283528184208490558352600290915281208054600192906104a4908490612047565b925050819055506001600360008282546104be9190612047565b909155506104cd905033611806565b604051632142170760e11b8152306004820152336024820152604481018590527f00000000000000000000000000000000000000000000000000000000000000006001600160a01b0316906342842e0e90606401600060405180830381600087803b15801561053b57600080fd5b505af115801561054f573d6000803e3d6000fd5b50506040518681523392507f45ec0244cf2e0c90546c4aff992398e1505d5ce31338249d7f29066169cfdcea91506020015b60405180910390a25050506105966001600055565b50565b6001600160a01b0381166000908152600660205260408120548082036105c25750600092915050565b6001600160a01b0383166000908152600660205260409020610623906105e9600184612047565b815481106105f9576105f961205a565b600091825260209091206001600290920201015461061e9064ffffffffff1642612047565b611bf5565b9392505050565b6000806106378386612070565b905060008385101561064a57600061064c565b845b905080821161065b578161065d565b805b9695505050505050565b600061067233611806565b60007f00000000000000000000000000000000000000000000000000000000000000006001600160a01b03166308b0308a6040518163ffffffff1660e01b8152600401602060405180830381865afa1580156106d2573d6000803e3d6000fd5b505050506040513d601f19601f820116820180604052508101906106f69190612097565b905060007f00000000000000000000000000000000000000000000000000000000000000006001600160a01b03166358de9ade6040518163ffffffff1660e01b8152600401602060405180830381865afa158015610758573d6000803e3d6000fd5b505050506040513d601f19601f8201168201806040525081019061077c9190612097565b336000908152600660205260408120549192508190036107a0576000935050505090565b33600090815260086020526040812054900361087b5733600090815260066020526040812080546001600160a01b0386169263bc0bc6ba92916107e5576107e561205a565b600091825260209091206002909102016001015460405160e083901b6001600160e01b031916815264ffffffffff9091166004820152602401602060405180830381865afa15801561083b573d6000803e3d6000fd5b505050506040513d601f19601f8201168201806040525081019061085f91906120b4565b61086a9060016120cd565b336000908152600860205260409020555b33600090815260086020526040808220549051635e05e35d60e11b81524260048201529091906001600160a01b0386169063bc0bc6ba90602401602060405180830381865afa1580156108d2573d6000803e3d6000fd5b505050506040513d601f19601f820116820180604052508101906108f691906120b4565b905060005b60328110801561090a57508183105b15610f73573360009081526006602090815260408083206007909252822054815481106109395761093961205a565b600091825260209182902060408051606081018252600290930290910180546001600160801b038082168552600160801b909104169383019390935260019283015464ffffffffff169082015291506109929086612047565b3360009081526007602052604090205403610ad1576000600a85815481106109bc576109bc61205a565b90600052602060002001541115610abf57612710600a85815481106109e3576109e361205a565b90600052602060002001546109f89190612070565b610a12826040015164ffffffffff164261061e9190612047565b60208301516040516315a8752360e31b8152306004820152602481018890526001600160801b03909116906001600160a01b038a169063ad43a918906044016020604051808303816000875af1158015610a70573d6000803e3d6000fd5b505050506040513d601f19601f82011682018060405250810190610a9491906120b4565b610a9e9190612070565b610aa89190612070565b610ab291906120e0565b610abc90896120cd565b97505b83610ac981612102565b945050610f6a565b3360009081526006602090815260408083206007909252822054610af69060016120cd565b81548110610b0657610b0661205a565b60009182526020918290206040805160608101825260029390930290910180546001600160801b038082168552600160801b90910416838501526001015464ffffffffff90811683830152858201518251635e05e35d60e11b81529116600482015290519193506001600160a01b038b169263bc0bc6ba926024808401938290030181865afa158015610b9d573d6000803e3d6000fd5b505050506040513d601f19601f82011682018060405250810190610bc191906120b4565b6040828101519051635e05e35d60e11b815264ffffffffff90911660048201526001600160a01b038a169063bc0bc6ba90602401602060405180830381865afa158015610c12573d6000803e3d6000fd5b505050506040513d601f19601f82011682018060405250810190610c3691906120b4565b03610c6057336000908152600760205260408120805491610c5683612102565b9190505550610f68565b6040818101519051635e05e35d60e11b815264ffffffffff909116600482015285906001600160a01b038a169063bc0bc6ba90602401602060405180830381865afa158015610cb3573d6000803e3d6000fd5b505050506040513d601f19601f82011682018060405250810190610cd791906120b4565b03610e48576000600a8681548110610cf157610cf161205a565b9060005260206000200154118015610d185750805182516001600160801b03918216911611155b15610e1557612710600a8681548110610d3357610d3361205a565b9060005260206000200154610d489190612070565b82602001516001600160801b0316610d7984604001518460400151610d6d919061211b565b64ffffffffff16611bf5565b6040516315a8752360e31b8152306004820152602481018990526001600160a01b038b169063ad43a918906044016020604051808303816000875af1158015610dc6573d6000803e3d6000fd5b505050506040513d601f19601f82011682018060405250810190610dea91906120b4565b610df49190612070565b610dfe9190612070565b610e0891906120e0565b610e12908a6120cd565b98505b336000908152600760205260408120805491610e3083612102565b91905055508480610e4090612102565b955050610f68565b6000600a8681548110610e5d57610e5d61205a565b90600052602060002001541115610f5a57612710600a8681548110610e8457610e8461205a565b9060005260206000200154610e999190612070565b82602001516001600160801b0316610ebe84604001518460400151610d6d919061211b565b6040516315a8752360e31b8152306004820152602481018990526001600160a01b038b169063ad43a918906044016020604051808303816000875af1158015610f0b573d6000803e3d6000fd5b505050506040513d601f19601f82011682018060405250810190610f2f91906120b4565b610f399190612070565b610f439190612070565b610f4d91906120e0565b610f57908a6120cd565b98505b84610f6481612102565b9550505b505b506001016108fb565b5033600090815260086020526040902082905585156110a6577f00000000000000000000000000000000000000000000000000000000000000006001600160a01b03166315b9ba5d6040518163ffffffff1660e01b8152600401602060405180830381865afa158015610fea573d6000803e3d6000fd5b505050506040513d601f19601f8201168201806040525081019061100e9190612097565b604051631ec9887760e11b8152336004820152602481018890526001600160a01b039190911690633d9310ee90604401600060405180830381600087803b15801561105857600080fd5b505af115801561106c573d6000803e3d6000fd5b50506040518881523392507f47cee97cb7acd717b3c0aa1435d004cd5b3c8c57d70dbceb4e4458bbd60e39d4915060200160405180910390a25b505050505090565b60007f00000000000000000000000000000000000000000000000000000000000000006001600160a01b03166308b0308a6040518163ffffffff1660e01b8152600401602060405180830381865afa15801561110e573d6000803e3d6000fd5b505050506040513d601f19601f820116820180604052508101906111329190612097565b604051635e05e35d60e11b81524260048201526001600160a01b03919091169063bc0bc6ba90602401602060405180830381865afa158015611178573d6000803e3d6000fd5b505050506040513d601f19601f8201168201806040525081019061119c91906120b4565b905060005b60808110156111fc57600a548211156111fc57600954600a80546001810182556000919091527fc65a7bb8d6351c1cf70c95a316cc6a92839c986682d98bc35f958f4883f9d2a80155806111f481612102565b9150506111a1565b5050565b6001600160a01b0381166000908152600c6020526040812054810361122757506000919050565b6001600160a01b0382166000908152600c602090815260408083205460069092529091208054612710919061125e90600190612047565b8154811061126e5761126e61205a565b906000526020600020906002020160000160109054906101000a90046001600160801b0316600261129f9190612140565b6001600160801b03166112b29190612070565b61031491906120e0565b60005b818110156112fa576112e88383838181106112dc576112dc61205a565b9050602002013561031a565b806112f281612102565b9150506112bf565b505050565b6113076117ad565b6040516319ba7e5360e31b8152600481018290526000907f00000000000000000000000000000000000000000000000000000000000000006001600160a01b03169063cdd3f29890602401600060405180830381865afa15801561136f573d6000803e3d6000fd5b505050506040513d6000823e601f3d908101601f191682016040526113979190810190612223565b905060008160c0015160048111156113b1576113b16122f6565b14806113d2575060028160c0015160048111156113d0576113d06122f6565b145b806113f2575060018160c0015160048111156113f0576113f06122f6565b145b6114355760405162461bcd60e51b815260206004820152601460248201527354473a443a494e56414c49445f4c505f5459504560601b6044820152606401610384565b600061146182600001515183602001516001600160801b031684604001516001600160801b031661062a565b9050600081116114a85760405162461bcd60e51b815260206004820152601260248201527154473a443a4c505f56414c55455f5a45524f60701b6044820152606401610384565b600083815260016020908152604080832080546001600160a01b03191633908117909155600b83528184208590558352600c909152812080548392906114ef9084906120cd565b9250508190555080600d600082825461150891906120cd565b9091555050604051632142170760e11b8152336004820152306024820152604481018490527f00000000000000000000000000000000000000000000000000000000000000006001600160a01b0316906342842e0e90606401600060405180830381600087803b15801561157b57600080fd5b505af115801561158f573d6000803e3d6000fd5b505033600081815260026020818152604080842080546004845282862081875284528286208c90558b8652600584529185208290559484529190528254909450600193506115de9084906120cd565b925050819055506001600360008282546115f891906120cd565b90915550611607905033611806565b60405184815233907fa76194b11cf7b940f18e866ed3382a795bb09ca684db1b957d595417f63151f890602001610581565b60007f00000000000000000000000000000000000000000000000000000000000000006001600160a01b03166308b0308a6040518163ffffffff1660e01b8152600401602060405180830381865afa158015611699573d6000803e3d6000fd5b505050506040513d601f19601f820116820180604052508101906116bd9190612097565b60405163d68f4dd160e01b81526004810184905290915042906001600160a01b0383169063d68f4dd1906024016040805180830381865afa158015611706573d6000803e3d6000fd5b505050506040513d601f19601f8201168201806040525081019061172a919061230c565b6020015164ffffffffff1610156111fc576040516331a9108f60e11b8152600481018390526111fc906001600160a01b03831690636352211e90602401602060405180830381865afa158015611784573d6000803e3d6000fd5b505050506040513d601f19601f820116820180604052508101906117a89190612097565b611806565b6002600054036117ff5760405162461bcd60e51b815260206004820152601f60248201527f5265656e7472616e637947756172643a207265656e7472616e742063616c6c006044820152606401610384565b6002600055565b60007f00000000000000000000000000000000000000000000000000000000000000006001600160a01b03166308b0308a6040518163ffffffff1660e01b8152600401602060405180830381865afa158015611866573d6000803e3d6000fd5b505050506040513d601f19601f8201168201806040525081019061188a9190612097565b9050806001600160a01b03166387da75ef6040518163ffffffff1660e01b8152600401600060405180830381600087803b1580156118c757600080fd5b505af11580156118db573d6000803e3d6000fd5b50506040516301924b8d60e71b81526001600160a01b038581166004830152600093508416915063c925c68090602401602060405180830381865afa158015611928573d6000803e3d6000fd5b505050506040513d601f19601f8201168201806040525081019061194c91906120b4565b90506000826001600160a01b03166306aba0e16040518163ffffffff1660e01b81526004016020604051808303816000875af1158015611990573d6000803e3d6000fd5b505050506040513d601f19601f820116820180604052508101906119b491906120b4565b905060006119c06110ae565b816000036119e757506001600160a01b0384166000908152600c6020526040902054611a6f565b6001600160a01b0385166000908152600c6020526040902054600d54611a6c9190612710908590611a1a88611388612070565b611a249190612070565b611a2e91906120e0565b6001600160a01b0389166000908152600c6020526040902054611a5390611388612070565b611a5d91906120cd565b611a6791906120e0565b611d06565b90505b6001600160a01b03851660009081526006602052604081205415611ae7576001600160a01b03861660009081526006602052604090208054611ab390600190612047565b81548110611ac357611ac361205a565b6000918252602090912060029091020154600160801b90046001600160801b031690505b604080516060810182526001600160a01b0388166000908152600c602052918220548190611b1490611d1c565b6001600160801b03168152602001611b2b85611d1c565b6001600160801b03168152602001611b4242611d6f565b64ffffffffff1681525090508181602001516001600160801b0316600954611b6a91906120cd565b611b749190612047565b6009556001600160a01b039096166000908152600660209081526040808320805460018181018355918552938390208a51938b01516001600160801b03908116600160801b02941693909317600290940290920192835597909701519601805464ffffffffff90971664ffffffffff19909716969096179095555050505050565b6000807f00000000000000000000000000000000000000000000000000000000000000006001600160a01b03166358de9ade6040518163ffffffff1660e01b8152600401602060405180830381865afa158015611c56573d6000803e3d6000fd5b505050506040513d601f19601f82011682018060405250810190611c7a9190612097565b6001600160a01b031663c057beee6040518163ffffffff1660e01b8152600401602060405180830381865afa158015611cb7573d6000803e3d6000fd5b505050506040513d601f19601f82011682018060405250810190611cdb91906120b4565b905080831115611cef575061271092915050565b80611cfc84612710612070565b61062391906120e0565b6000818310611d155781610623565b5090919050565b60006001600160801b03821115611d6b5760405162461bcd60e51b815260206004820152601360248201527253433a434153543132385f4f564552464c4f5760681b6044820152606401610384565b5090565b600064ffffffffff821115611d6b5760405162461bcd60e51b815260206004820152601260248201527153433a4341535434305f4f564552464c4f5760701b6044820152606401610384565b600060208284031215611dcd57600080fd5b81356001600160e01b03198116811461062357600080fd5b6001600160a01b038116811461059657600080fd5b634e487b7160e01b600052604160045260246000fd5b60405160e0810167ffffffffffffffff81118282101715611e3357611e33611dfa565b60405290565b604051601f8201601f1916810167ffffffffffffffff81118282101715611e6257611e62611dfa565b604052919050565b60008060008060808587031215611e8057600080fd5b8435611e8b81611de5565b9350602085810135611e9c81611de5565b935060408601359250606086013567ffffffffffffffff80821115611ec057600080fd5b818801915088601f830112611ed457600080fd5b813581811115611ee657611ee6611dfa565b611ef8601f8201601f19168501611e39565b91508082528984828501011115611f0e57600080fd5b808484018584013760008482840101525080935050505092959194509250565b600060208284031215611f4057600080fd5b5035919050565b600060208284031215611f5957600080fd5b813561062381611de5565b600080600060608486031215611f7957600080fd5b505081359360208301359350604090920135919050565b60008060408385031215611fa357600080fd5b8235611fae81611de5565b946020939093013593505050565b60008060208385031215611fcf57600080fd5b823567ffffffffffffffff80821115611fe757600080fd5b818501915085601f830112611ffb57600080fd5b81358181111561200a57600080fd5b8660208260051b850101111561201f57600080fd5b60209290920196919550909350505050565b634e487b7160e01b600052601160045260246000fd5b8181038181111561031457610314612031565b634e487b7160e01b600052603260045260246000fd5b808202811582820484141761031457610314612031565b805161209281611de5565b919050565b6000602082840312156120a957600080fd5b815161062381611de5565b6000602082840312156120c657600080fd5b5051919050565b8082018082111561031457610314612031565b6000826120fd57634e487b7160e01b600052601260045260246000fd5b500490565b60006001820161211457612114612031565b5060010190565b64ffffffffff82811682821603908082111561213957612139612031565b5092915050565b6001600160801b0381811683821602808216919082811461216357612163612031565b505092915050565b600082601f83011261217c57600080fd5b8151602067ffffffffffffffff82111561219857612198611dfa565b8160051b6121a7828201611e39565b92835284810182019282810190878511156121c157600080fd5b83870192505b848310156121e0578251825291830191908301906121c7565b979650505050505050565b80516001600160801b038116811461209257600080fd5b805161ffff8116811461209257600080fd5b80516005811061209257600080fd5b60006020828403121561223557600080fd5b815167ffffffffffffffff8082111561224d57600080fd5b9083019060e0828603121561226157600080fd5b612269611e10565b82518281111561227857600080fd5b6122848782860161216b565b825250612293602084016121eb565b60208201526122a4604084016121eb565b60408201526122b5606084016121eb565b60608201526122c660808401612087565b60808201526122d760a08401612202565b60a08201526122e860c08401612214565b60c082015295945050505050565b634e487b7160e01b600052602160045260246000fd5b60006040828403121561231e57600080fd5b6040516040810181811067ffffffffffffffff8211171561234157612341611dfa565b60405261234d836121eb565b8152602083015164ffffffffff8116811461236757600080fd5b6020820152939250505056fea264697066735822122043d6fd18681602e18e75559aba8edcf856e4608f24fc91f2b08046901d19a22864736f6c63430008130033",
  "linkReferences": {},
  "deployedLinkReferences": {}
}