{
  "_format": "hh-sol-artifact-1",
  "contractName": "TradingPoolFactory",
  "sourceName": "contracts/protocol/Trading/TradingPoolFactory.sol",
  "abi": [
    {
      "anonymous": false,
      "inputs": [
        {
          "indexed": true,
          "internalType": "address",
          "name": "pool",
          "type": "address"
        },
        {
          "indexed": true,
          "internalType": "address",
          "name": "nft",
          "type": "address"
        },
        {
          "indexed": true,
          "internalType": "address",
          "name": "token",
          "type": "address"
        }
      ],
      "name": "CreateTradingPool",
      "type": "event"
    },
    {
      "anonymous": false,
      "inputs": [
        {
          "indexed": false,
          "internalType": "uint8",
          "name": "version",
          "type": "uint8"
        }
      ],
      "name": "Initialized",
      "type": "event"
    },
    {
      "anonymous": false,
      "inputs": [
        {
          "indexed": true,
          "internalType": "address",
          "name": "previousOwner",
          "type": "address"
        },
        {
          "indexed": true,
          "internalType": "address",
          "name": "newOwner",
          "type": "address"
        }
      ],
      "name": "OwnershipTransferred",
      "type": "event"
    },
    {
      "inputs": [
        {
          "internalType": "address",
          "name": "nft",
          "type": "address"
        },
        {
          "internalType": "address",
          "name": "token",
          "type": "address"
        }
      ],
      "name": "createTradingPool",
      "outputs": [],
      "stateMutability": "nonpayable",
      "type": "function"
    },
    {
      "inputs": [],
      "name": "getDefaultSwapFee",
      "outputs": [
        {
          "internalType": "uint256",
          "name": "",
          "type": "uint256"
        }
      ],
      "stateMutability": "view",
      "type": "function"
    },
    {
      "inputs": [
        {
          "internalType": "address",
          "name": "nft",
          "type": "address"
        },
        {
          "internalType": "address",
          "name": "token",
          "type": "address"
        }
      ],
      "name": "getTradingPool",
      "outputs": [
        {
          "internalType": "address",
          "name": "",
          "type": "address"
        }
      ],
      "stateMutability": "view",
      "type": "function"
    },
    {
      "inputs": [
        {
          "internalType": "contract IAddressesProvider",
          "name": "addressesProvider",
          "type": "address"
        },
        {
          "internalType": "uint256",
          "name": "defaultSwapFee",
          "type": "uint256"
        }
      ],
      "name": "initialize",
      "outputs": [],
      "stateMutability": "nonpayable",
      "type": "function"
    },
    {
      "inputs": [],
      "name": "owner",
      "outputs": [
        {
          "internalType": "address",
          "name": "",
          "type": "address"
        }
      ],
      "stateMutability": "view",
      "type": "function"
    },
    {
      "inputs": [],
      "name": "renounceOwnership",
      "outputs": [],
      "stateMutability": "nonpayable",
      "type": "function"
    },
    {
      "inputs": [
        {
          "internalType": "uint256",
          "name": "newSwapFee",
          "type": "uint256"
        }
      ],
      "name": "setDefaultSwapFee",
      "outputs": [],
      "stateMutability": "nonpayable",
      "type": "function"
    },
    {
      "inputs": [
        {
          "internalType": "address",
          "name": "newOwner",
          "type": "address"
        }
      ],
      "name": "transferOwnership",
      "outputs": [],
      "stateMutability": "nonpayable",
      "type": "function"
    }
  ],
  "bytecode": "0x608060405234801561001057600080fd5b5061444f806100206000396000f3fe60806040523480156200001157600080fd5b5060043610620000935760003560e01c8063cd6dc6871162000062578063cd6dc68714620000f6578063de151134146200010d578063f2fde38b1462000124578063fb44a156146200013b57600080fd5b8063183c40ac1462000098578063334dc4f314620000ae578063715018a614620000c65780638da5cb5b14620000d0575b600080fd5b6099546040519081526020015b60405180910390f35b620000c4620000bf3660046200090c565b609955565b005b620000c462000176565b6033546001600160a01b03165b6040516001600160a01b039091168152602001620000a5565b620000c4620001073660046200093c565b6200018e565b620000c46200011e3660046200096b565b620002ce565b620000c462000135366004620009a9565b6200067c565b620000dd6200014c3660046200096b565b6001600160a01b039182166000908152609860209081526040808320938516835292905220541690565b62000180620006fb565b6200018c600062000757565b565b600054610100900460ff1615808015620001af5750600054600160ff909116105b80620001cb5750303b158015620001cb575060005460ff166001145b620002345760405162461bcd60e51b815260206004820152602e60248201527f496e697469616c697a61626c653a20636f6e747261637420697320616c72656160448201526d191e481a5b9a5d1a585b1a5e995960921b60648201526084015b60405180910390fd5b6000805460ff19166001179055801562000258576000805461ff0019166101001790555b62000262620007a9565b609780546001600160a01b0319166001600160a01b03851617905560998290558015620002c9576000805461ff0019169055604051600181527f7f26b83ff96e1f2b6a682f133852f6798a09c465da95921460cefb38474024989060200160405180910390a15b505050565b620002ea6001600160a01b0383166380ac58cd60e01b620007dd565b6200034c5760405162461bcd60e51b815260206004820152602b60248201527f436f6c6c656374696f6e2061646472657373206973206e6f742045524337323160448201526a1031b7b6b83634b0b73a1760a91b60648201526084016200022b565b6001600160a01b03828116600090815260986020908152604080832085851684529091529020541615620003c35760405162461bcd60e51b815260206004820152601b60248201527f54726164696e6720506f6f6c20616c726561647920657869737473000000000060448201526064016200022b565b6097546000906001600160a01b0316620003e56033546001600160a01b031690565b8385609954866001600160a01b03166395d89b416040518163ffffffff1660e01b8152600401600060405180830381865afa15801562000429573d6000803e3d6000fd5b505050506040513d6000823e601f3d908101601f1916820160405262000453919081019062000a05565b886001600160a01b03166395d89b416040518163ffffffff1660e01b8152600401600060405180830381865afa15801562000492573d6000803e3d6000fd5b505050506040513d6000823e601f3d908101601f19168201604052620004bc919081019062000a05565b604051602001620004cf92919062000ab3565b604051602081830303815290604052876001600160a01b03166395d89b416040518163ffffffff1660e01b8152600401600060405180830381865afa1580156200051d573d6000803e3d6000fd5b505050506040513d6000823e601f3d908101601f1916820160405262000547919081019062000a05565b896001600160a01b03166395d89b416040518163ffffffff1660e01b8152600401600060405180830381865afa15801562000586573d6000803e3d6000fd5b505050506040513d6000823e601f3d908101601f19168201604052620005b0919081019062000a05565b604051602001620005c392919062000b14565b604051602081830303815290604052604051620005e090620008fe565b620005f2979695949392919062000b91565b604051809103906000f0801580156200060f573d6000803e3d6000fd5b506001600160a01b038481166000818152609860209081526040808320888616808552925280832080546001600160a01b031916958716958617905551949550939192917fa1311e5e3c1c2207844ec9211cb2439ea0bce2a76c6ea09d9343f0d0eaddd9f69190a4505050565b62000686620006fb565b6001600160a01b038116620006ed5760405162461bcd60e51b815260206004820152602660248201527f4f776e61626c653a206e6577206f776e657220697320746865207a65726f206160448201526564647265737360d01b60648201526084016200022b565b620006f88162000757565b50565b6033546001600160a01b031633146200018c5760405162461bcd60e51b815260206004820181905260248201527f4f776e61626c653a2063616c6c6572206973206e6f7420746865206f776e657260448201526064016200022b565b603380546001600160a01b038381166001600160a01b0319831681179093556040519116919082907f8be0079c531659141344cd1fd0a4f28419497f9722a3daafe3b4186f6b6457e090600090a35050565b600054610100900460ff16620007d35760405162461bcd60e51b81526004016200022b9062000bf8565b6200018c62000805565b6000620007ea836200083a565b8015620007fe5750620007fe838362000873565b9392505050565b600054610100900460ff166200082f5760405162461bcd60e51b81526004016200022b9062000bf8565b6200018c3362000757565b60006200084f826301ffc9a760e01b62000873565b80156200086d57506200086b826001600160e01b031962000873565b155b92915050565b604080516001600160e01b03198316602480830191909152825180830390910181526044909101909152602080820180516001600160e01b03166301ffc9a760e01b178152825160009392849283928392918391908a617530fa92503d91506000519050828015620008e6575060208210155b8015620008f35750600081115b979650505050505050565b6137d68062000c4483390190565b6000602082840312156200091f57600080fd5b5035919050565b6001600160a01b0381168114620006f857600080fd5b600080604083850312156200095057600080fd5b82356200095d8162000926565b946020939093013593505050565b600080604083850312156200097f57600080fd5b82356200098c8162000926565b915060208301356200099e8162000926565b809150509250929050565b600060208284031215620009bc57600080fd5b8135620007fe8162000926565b634e487b7160e01b600052604160045260246000fd5b60005b83811015620009fc578181015183820152602001620009e2565b50506000910152565b60006020828403121562000a1857600080fd5b815167ffffffffffffffff8082111562000a3157600080fd5b818401915084601f83011262000a4657600080fd5b81518181111562000a5b5762000a5b620009c9565b604051601f8201601f19908116603f0116810190838211818310171562000a865762000a86620009c9565b8160405282815287602084870101111562000aa057600080fd5b620008f3836020830160208801620009df565b7203632a7232a102a3930b234b733902837b7b61606d1b81526000835162000ae3816013850160208801620009df565b6201016960ed1b601391840191820152835162000b08816016840160208801620009df565b01601601949350505050565b621b195560ea1b81526000835162000b34816003850160208801620009df565b602d60f81b600391840191820152835162000b57816004840160208801620009df565b01600401949350505050565b6000815180845262000b7d816020860160208601620009df565b601f01601f19169290920160200192915050565b6001600160a01b03888116825287811660208301528681166040830152851660608201526080810184905260e060a0820181905260009062000bd69083018562000b63565b82810360c084015262000bea818562000b63565b9a9950505050505050505050565b6020808252602b908201527f496e697469616c697a61626c653a20636f6e7472616374206973206e6f74206960408201526a6e697469616c697a696e6760a81b60608201526080019056fe60806040523480156200001157600080fd5b50604051620037d6380380620037d68339810160408190526200003491620002dd565b8181600062000044838262000436565b50600162000053828262000436565b505050620000706200006a620001a960201b60201c565b620001ad565b866001600160a01b031663ca1470ea6040518163ffffffff1660e01b8152600401602060405180830381865afa158015620000af573d6000803e3d6000fd5b505050506040513d601f19601f82011682018060405250810190620000d5919062000502565b6001600160a01b0316336001600160a01b0316146200014f5760405162461bcd60e51b815260206004820152602c60248201527f54726164696e6720506f6f6c206d75737420626520637265617465642074687260448201526b6f75676820466163746f727960a01b606482015260840160405180910390fd5b600b80546001600160a01b03808a166001600160a01b031992831617909255600c8054888416908316179055600d805492871692909116919091179055600e8390556200019c86620001ad565b5050505050505062000529565b3390565b600a80546001600160a01b038381166001600160a01b0319831681179093556040519116919082907f8be0079c531659141344cd1fd0a4f28419497f9722a3daafe3b4186f6b6457e090600090a35050565b6001600160a01b03811681146200021557600080fd5b50565b634e487b7160e01b600052604160045260246000fd5b600082601f8301126200024057600080fd5b81516001600160401b03808211156200025d576200025d62000218565b604051601f8301601f19908116603f0116810190828211818310171562000288576200028862000218565b81604052838152602092508683858801011115620002a557600080fd5b600091505b83821015620002c95785820183015181830184015290820190620002aa565b600093810190920192909252949350505050565b600080600080600080600060e0888a031215620002f957600080fd5b87516200030681620001ff565b60208901519097506200031981620001ff565b60408901519096506200032c81620001ff565b60608901519095506200033f81620001ff565b608089015160a08a015191955093506001600160401b03808211156200036457600080fd5b620003728b838c016200022e565b935060c08a01519150808211156200038957600080fd5b50620003988a828b016200022e565b91505092959891949750929550565b600181811c90821680620003bc57607f821691505b602082108103620003dd57634e487b7160e01b600052602260045260246000fd5b50919050565b601f8211156200043157600081815260208120601f850160051c810160208610156200040c5750805b601f850160051c820191505b818110156200042d5782815560010162000418565b5050505b505050565b81516001600160401b0381111562000452576200045262000218565b6200046a81620004638454620003a7565b84620003e3565b602080601f831160018114620004a25760008415620004895750858301515b600019600386901b1c1916600185901b1785556200042d565b600085815260208120601f198616915b82811015620004d357888601518255948401946001909101908401620004b2565b5085821015620004f25787850151600019600388901b60f8161c191681555b5050505050600190811b01905550565b6000602082840312156200051557600080fd5b81516200052281620001ff565b9392505050565b61329d80620005396000396000f3fe608060405234801561001057600080fd5b50600436106101da5760003560e01c80636352211e11610104578063a22cb465116100a2578063cdd3f29811610071578063cdd3f29814610407578063d4cadf6814610427578063e985e9c51461042f578063f2fde38b1461046b57600080fd5b8063a22cb465146103bb578063b31f0d62146103ce578063b88d4fde146103e1578063c87b56dd146103f457600080fd5b806388a6360e116100de57806388a6360e1461037e5780638da5cb5b1461038f57806395d89b41146103a05780639c8f9f23146103a857600080fd5b80636352211e1461035057806370a0823114610363578063715018a61461037657600080fd5b806323b872dd1161017c57806349591b511161014b57806349591b51146102f75780634f6ccce71461030a57806350c01fad1461031d5780635460d8491461033057600080fd5b806323b872dd146102ab5780632f745c59146102be57806334e19907146102d157806342842e0e146102e457600080fd5b8063095ea7b3116101b8578063095ea7b314610247578063150b7a021461025c57806318160ddd1461028857806321df0da71461029a57600080fd5b806301ffc9a7146101df57806306fdde0314610207578063081812fc1461021c575b600080fd5b6101f26101ed366004612a0f565b61047e565b60405190151581526020015b60405180910390f35b61020f61048f565b6040516101fe9190612a7c565b61022f61022a366004612a8f565b610521565b6040516001600160a01b0390911681526020016101fe565b61025a610255366004612abd565b610548565b005b61026f61026a366004612b30565b610662565b6040516001600160e01b031990911681526020016101fe565b6008545b6040519081526020016101fe565b600c546001600160a01b031661022f565b61025a6102b9366004612bf4565b610673565b61028c6102cc366004612abd565b6106a4565b61025a6102df366004612a8f565b61073a565b61025a6102f2366004612bf4565b610747565b61028c610305366004612caa565b610762565b61028c610318366004612a8f565b610cfb565b61025a61032b366004612d28565b610d8e565b61028c61033e366004612a8f565b60009081526010602052604090205490565b61022f61035e366004612a8f565b611007565b61028c610371366004612d93565b611067565b61025a6110ed565b600d546001600160a01b031661022f565b600a546001600160a01b031661022f565b61020f611101565b61025a6103b6366004612a8f565b611110565b61025a6103c9366004612dbe565b6112bd565b61028c6103dc366004612df7565b6112cc565b61025a6103ef366004612b30565b611767565b61020f610402366004612a8f565b61179f565b61041a610415366004612a8f565b611813565b6040516101fe9190612e8b565b600e5461028c565b6101f261043d366004612ee3565b6001600160a01b03918216600090815260056020908152604080832093909416825291909152205460ff1690565b61025a610479366004612d93565b6118bc565b600061048982611935565b92915050565b60606000805461049e90612f11565b80601f01602080910402602001604051908101604052809291908181526020018280546104ca90612f11565b80156105175780601f106104ec57610100808354040283529160200191610517565b820191906000526020600020905b8154815290600101906020018083116104fa57829003601f168201915b5050505050905090565b600061052c8261195a565b506000908152600460205260409020546001600160a01b031690565b600061055382611007565b9050806001600160a01b0316836001600160a01b0316036105c55760405162461bcd60e51b815260206004820152602160248201527f4552433732313a20617070726f76616c20746f2063757272656e74206f776e656044820152603960f91b60648201526084015b60405180910390fd5b336001600160a01b03821614806105e157506105e1813361043d565b6106535760405162461bcd60e51b815260206004820152603d60248201527f4552433732313a20617070726f76652063616c6c6572206973206e6f7420746f60448201527f6b656e206f776e6572206f7220617070726f76656420666f7220616c6c00000060648201526084016105bc565b61065d83836119b9565b505050565b630a85bd0160e11b5b949350505050565b61067d3382611a27565b6106995760405162461bcd60e51b81526004016105bc90612f4b565b61065d838383611aa5565b60006106af83611067565b82106107115760405162461bcd60e51b815260206004820152602b60248201527f455243373231456e756d657261626c653a206f776e657220696e646578206f7560448201526a74206f6620626f756e647360a81b60648201526084016105bc565b506001600160a01b03919091166000908152600660209081526040808320938352929052205490565b610742611c16565b600e55565b61065d83838360405180602001604052806000815250611767565b600082518451146107cc5760405162461bcd60e51b815260206004820152602e60248201527f4e46547320616e64204c6971756964697479205061697273206d75737420686160448201526d0ecca40e6c2daca40d8cadccee8d60931b60648201526084016105bc565b600084511161081d5760405162461bcd60e51b815260206004820152601d60248201527f4e65656420746f2073656c6c206174206c65617374206f6e65204e465400000060448201526064016105bc565b6001600160a01b038516331461092257600b60009054906101000a90046001600160a01b03166001600160a01b031663725c9c496040518163ffffffff1660e01b8152600401602060405180830381865afa158015610880573d6000803e3d6000fd5b505050506040513d601f19601f820116820180604052508101906108a49190612f98565b6001600160a01b0316336001600160a01b0316146109225760405162461bcd60e51b815260206004820152603560248201527f4f6e6c792053776170526f757465722063616e2073656c6c206f6e20626568616044820152746c66206f6620616e6f74686572206164647265737360581b60648201526084016105bc565b600080600061092f612947565b60005b8851811015610c3857600d5489516001600160a01b03909116906342842e0e908c9030908d908690811061096857610968612fb5565b60200260200101516040518463ffffffff1660e01b815260040161098e93929190612fcb565b600060405180830381600087803b1580156109a857600080fd5b505af11580156109bc573d6000803e3d6000fd5b505050508781815181106109d2576109d2612fb5565b60200260200101519250600f60008481526020019081526020016000206040518060a001604052908160008201805480602002602001604051908101604052809291908181526020018280548015610a4957602002820191906000526020600020905b815481526020019060010190808311610a35575b50505091835250506001820154602082015260028201546001600160a01b0316604082015260038201546060820152600490910154608091820152810151600e5491935061271091610a9b9083613005565b610aa59190613018565b610aaf919061302f565b9350610abb8486613051565b6000848152600f602052604090208a51919650908a9083908110610ae157610ae1612fb5565b602090810291909101810151825460018181018555600094855283852090910191909155858352600f90915260408220018054869290610b22908490613005565b9091555050604082810151608084015160608501519251633698f96560e11b8152600481019190915260248101929092526001600160a01b031690636d31f2ca90604401602060405180830381865afa158015610b83573d6000803e3d6000fd5b505050506040513d601f19601f82011682018060405250810190610ba79190613064565b6000848152600f60208181526040808420600481019590955580518082019091528781529287905290815291549091820190610be590600190613005565b815250601060008b8481518110610bfe57610bfe612fb5565b6020908102919091018101518252818101929092526040016000208251815591015160019091015580610c308161307d565b915050610932565b50858411610c945760405162461bcd60e51b8152602060048201526024808201527f50726963652071756f7465206c6f776572207468616e206d696e696d756d20706044820152637269636560e01b60648201526084016105bc565b600c54610cab906001600160a01b03163386611c70565b336001600160a01b03167feb3c528adebc70d317bef09706905761642981ebf9def9aafdc40f404e49346a8986604051610ce6929190613096565b60405180910390a25091979650505050505050565b6000610d0660085490565b8210610d695760405162461bcd60e51b815260206004820152602c60248201527f455243373231456e756d657261626c653a20676c6f62616c20696e646578206f60448201526b7574206f6620626f756e647360a01b60648201526084016105bc565b60088281548110610d7c57610d7c612fb5565b90600052602060002001549050919050565b6000841180610d9e575060008551115b610de35760405162461bcd60e51b81526020600482015260166024820152754465706f7369742063616e277420626520656d70747960501b60448201526064016105bc565b60005b8551811015610edb57600d5486516001600160a01b03909116906342842e0e90339030908a9086908110610e1c57610e1c612fb5565b60200260200101516040518463ffffffff1660e01b8152600401610e4293929190612fcb565b600060405180830381600087803b158015610e5c57600080fd5b505af1158015610e70573d6000803e3d6000fd5b50505050604051806040016040528060115481526020018281525060106000888481518110610ea157610ea1612fb5565b6020908102919091018101518252818101929092526040016000208251815591015160019091015580610ed38161307d565b915050610de6565b50600c54610ef4906001600160a01b0316333087611cd3565b6040805160a08101825286815260208082018790526001600160a01b0386168284015260608201859052608082018490526011546000908152600f8252929092208151805192939192610f4a928492019061297f565b506020820151600182015560408201516002820180546001600160a01b0319166001600160a01b0390921691909117905560608201516003820155608090910151600490910155601154610f9f903390611cf4565b601154336001600160a01b03167f3b67bb924a0e01cd52df231e47e53b28799a0f34d0ea653d1778cf3969492c1e8787878787604051610fe39594939291906130b8565b60405180910390a360118054906000610ffb8361307d565b91905055505050505050565b6000818152600260205260408120546001600160a01b0316806104895760405162461bcd60e51b8152602060048201526018602482015277115490cdcc8c4e881a5b9d985b1a59081d1bdad95b88125160421b60448201526064016105bc565b60006001600160a01b0382166110d15760405162461bcd60e51b815260206004820152602960248201527f4552433732313a2061646472657373207a65726f206973206e6f7420612076616044820152683634b21037bbb732b960b91b60648201526084016105bc565b506001600160a01b031660009081526003602052604090205490565b6110f5611c16565b6110ff6000611d0e565b565b60606001805461049e90612f11565b61111981611d60565b60005b6000828152600f602052604090205481101561121e57600d546000838152600f6020526040902080546001600160a01b03909216916342842e0e9130913391908690811061116c5761116c612fb5565b90600052602060002001546040518463ffffffff1660e01b815260040161119593929190612fcb565b600060405180830381600087803b1580156111af57600080fd5b505af11580156111c3573d6000803e3d6000fd5b5050506000838152600f60205260408120805460109350849081106111ea576111ea612fb5565b60009182526020808320909101548352820192909252604001812081815560010155806112168161307d565b91505061111c565b506000818152600f6020526040902060010154600c5461124b916001600160a01b03909116903390611c70565b6000818152600f602052604081209061126482826129ca565b506000600182018190556002820180546001600160a01b0319169055600382018190556004909101819055604051829133917fdfdd120ded9b7afc0c23dd5310e93aaa3e1c3b9f75af9b805fab3030842439f29190a350565b6112c8338383611e03565b5050565b6000806000806000806112dd612947565b600089511161132e5760405162461bcd60e51b815260206004820152601c60248201527f4e65656420746f20627579206174206c65617374206f6e65204e46540000000060448201526064016105bc565b60005b89518110156116a057601060008b838151811061135057611350612fb5565b60200260200101518152602001908152602001600020600001549350601060008b838151811061138257611382612fb5565b60200260200101518152602001908152602001600020600101549250600f60008581526020019081526020016000206040518060a00160405290816000820180548060200260200160405190810160405280929190818152602001828054801561140b57602002820191906000526020600020905b8154815260200190600101908083116113f7575b50505091835250506001820154602082015260028201546001600160a01b0390811660408084019190915260038401546060808501919091526004948501546080948501528582015193860151908601519151635d8b487160e11b81529485015260248401529294509091169063bb1690e290604401602060405180830381865afa15801561149e573d6000803e3d6000fd5b505050506040513d601f19601f820116820180604052508101906114c29190613064565b955061271086600e546127106114d89190613051565b6114e29190613018565b6114ec919061302f565b6000858152600f602052604090206004810188905580549196509061151390600190613005565b8154811061152357611523612fb5565b9060005260206000200154600f6000868152602001908152602001600020600001848154811061155557611555612fb5565b6000918252602080832090910192909255858152600f90915260409020805480611581576115816130f8565b6001900381819060005260206000200160009055905584600f600086815260200190815260200160002060010160008282546115bd9190613051565b909155506115cd90508588613051565b9650601060008b83815181106115e5576115e5612fb5565b6020908102919091018101518252810191909152604001600090812081815560010155600d548a516001600160a01b03909116906342842e0e9030908e908e908690811061163557611635612fb5565b60200260200101516040518463ffffffff1660e01b815260040161165b93929190612fcb565b600060405180830381600087803b15801561167557600080fd5b505af1158015611689573d6000803e3d6000fd5b5050505080806116989061307d565b915050611331565b508786106116fe5760405162461bcd60e51b815260206004820152602560248201527f50726963652071756f746520686967686572207468616e206d6178696d756d20604482015264707269636560d81b60648201526084016105bc565b600c54611716906001600160a01b0316333089611cd3565b336001600160a01b03167f0306912acbf130bc61cce94222a394a64e258433196a3d3679a9bbfb8973f7738a88604051611751929190613096565b60405180910390a2509398975050505050505050565b6117713383611a27565b61178d5760405162461bcd60e51b81526004016105bc90612f4b565b61179984848484611ed1565b50505050565b60606117aa8261195a565b60006117c160408051602081019091526000815290565b905060008151116117e1576040518060200160405280600081525061180c565b806117eb84611f04565b6040516020016117fc92919061310e565b6040516020818303038152906040525b9392505050565b61181b612947565b6000828152600f60209081526040918290208251815460c09381028201840190945260a08101848152909391928492849184018282801561187b57602002820191906000526020600020905b815481526020019060010190808311611867575b50505091835250506001820154602082015260028201546001600160a01b031660408201526003820154606082015260049091015460809091015292915050565b6118c4611c16565b6001600160a01b0381166119295760405162461bcd60e51b815260206004820152602660248201527f4f776e61626c653a206e6577206f776e657220697320746865207a65726f206160448201526564647265737360d01b60648201526084016105bc565b61193281611d0e565b50565b60006001600160e01b0319821663780e9d6360e01b1480610489575061048982611f97565b6000818152600260205260409020546001600160a01b03166119325760405162461bcd60e51b8152602060048201526018602482015277115490cdcc8c4e881a5b9d985b1a59081d1bdad95b88125160421b60448201526064016105bc565b600081815260046020526040902080546001600160a01b0319166001600160a01b03841690811790915581906119ee82611007565b6001600160a01b03167f8c5be1e5ebec7d5bd14f71427d1e84f3dd0314c0f7b2291e5b200ac8c7c3b92560405160405180910390a45050565b600080611a3383611007565b9050806001600160a01b0316846001600160a01b03161480611a7a57506001600160a01b0380821660009081526005602090815260408083209388168352929052205460ff165b8061066b5750836001600160a01b0316611a9384610521565b6001600160a01b031614949350505050565b826001600160a01b0316611ab882611007565b6001600160a01b031614611ade5760405162461bcd60e51b81526004016105bc9061313d565b6001600160a01b038216611b405760405162461bcd60e51b8152602060048201526024808201527f4552433732313a207472616e7366657220746f20746865207a65726f206164646044820152637265737360e01b60648201526084016105bc565b611b4d8383836001611fe7565b826001600160a01b0316611b6082611007565b6001600160a01b031614611b865760405162461bcd60e51b81526004016105bc9061313d565b600081815260046020908152604080832080546001600160a01b03199081169091556001600160a01b0387811680865260038552838620805460001901905590871680865283862080546001019055868652600290945282852080549092168417909155905184937fddf252ad1be2c89b69c2b068fc378daa952ba7f163c4a11628f55a4df523b3ef91a4505050565b600a546001600160a01b031633146110ff5760405162461bcd60e51b815260206004820181905260248201527f4f776e61626c653a2063616c6c6572206973206e6f7420746865206f776e657260448201526064016105bc565b6040516001600160a01b03831660248201526044810182905261065d90849063a9059cbb60e01b906064015b60408051601f198184030181529190526020810180516001600160e01b03166001600160e01b031990931692909217909152611ff3565b611799846323b872dd60e01b858585604051602401611c9c93929190612fcb565b6112c88282604051806020016040528060008152506120c5565b600a80546001600160a01b038381166001600160a01b0319831681179093556040519116919082907f8be0079c531659141344cd1fd0a4f28419497f9722a3daafe3b4186f6b6457e090600090a35050565b6000611d6b82611007565b9050611d7b816000846001611fe7565b611d8482611007565b600083815260046020908152604080832080546001600160a01b03199081169091556001600160a01b0385168085526003845282852080546000190190558785526002909352818420805490911690555192935084927fddf252ad1be2c89b69c2b068fc378daa952ba7f163c4a11628f55a4df523b3ef908390a45050565b816001600160a01b0316836001600160a01b031603611e645760405162461bcd60e51b815260206004820152601960248201527f4552433732313a20617070726f766520746f2063616c6c65720000000000000060448201526064016105bc565b6001600160a01b03838116600081815260056020908152604080832094871680845294825291829020805460ff191686151590811790915591519182527f17307eab39ab6107e8899845ad3d59bd9653f200f220920489ca2b5937696c31910160405180910390a3505050565b611edc848484611aa5565b611ee8848484846120f8565b6117995760405162461bcd60e51b81526004016105bc90613182565b60606000611f11836121f6565b600101905060008167ffffffffffffffff811115611f3157611f31612ae9565b6040519080825280601f01601f191660200182016040528015611f5b576020820181803683370190505b5090508181016020015b600019016f181899199a1a9b1b9c1cb0b131b232b360811b600a86061a8153600a8504945084611f6557509392505050565b60006001600160e01b031982166380ac58cd60e01b1480611fc857506001600160e01b03198216635b5e139f60e01b145b8061048957506301ffc9a760e01b6001600160e01b0319831614610489565b611799848484846122ce565b6000612048826040518060400160405280602081526020017f5361666545524332303a206c6f772d6c6576656c2063616c6c206661696c6564815250856001600160a01b031661240e9092919063ffffffff16565b80519091501561065d578080602001905181019061206691906131d4565b61065d5760405162461bcd60e51b815260206004820152602a60248201527f5361666545524332303a204552433230206f7065726174696f6e20646964206e6044820152691bdd081cdd58d8d9595960b21b60648201526084016105bc565b6120cf838361241d565b6120dc60008484846120f8565b61065d5760405162461bcd60e51b81526004016105bc90613182565b60006001600160a01b0384163b156121ee57604051630a85bd0160e11b81526001600160a01b0385169063150b7a029061213c9033908990889088906004016131f1565b6020604051808303816000875af1925050508015612177575060408051601f3d908101601f191682019092526121749181019061322e565b60015b6121d4573d8080156121a5576040519150601f19603f3d011682016040523d82523d6000602084013e6121aa565b606091505b5080516000036121cc5760405162461bcd60e51b81526004016105bc90613182565b805181602001fd5b6001600160e01b031916630a85bd0160e11b14905061066b565b50600161066b565b60008072184f03e93ff9f4daa797ed6e38ed64bf6a1f0160401b83106122355772184f03e93ff9f4daa797ed6e38ed64bf6a1f0160401b830492506040015b6d04ee2d6d415b85acef81000000008310612261576d04ee2d6d415b85acef8100000000830492506020015b662386f26fc10000831061227f57662386f26fc10000830492506010015b6305f5e1008310612297576305f5e100830492506008015b61271083106122ab57612710830492506004015b606483106122bd576064830492506002015b600a83106104895760010192915050565b6122da848484846125b6565b60018111156123495760405162461bcd60e51b815260206004820152603560248201527f455243373231456e756d657261626c653a20636f6e7365637574697665207472604482015274185b9cd9995c9cc81b9bdd081cdd5c1c1bdc9d1959605a1b60648201526084016105bc565b816001600160a01b0385166123a5576123a081600880546000838152600960205260408120829055600182018355919091527ff3f7a9fe364faab93b216da50a3214154f22a0a2b415b23a84c8169e8b636ee30155565b6123c8565b836001600160a01b0316856001600160a01b0316146123c8576123c8858261263e565b6001600160a01b0384166123e4576123df816126db565b612407565b846001600160a01b0316846001600160a01b03161461240757612407848261278a565b5050505050565b606061066b84846000856127ce565b6001600160a01b0382166124735760405162461bcd60e51b815260206004820181905260248201527f4552433732313a206d696e7420746f20746865207a65726f206164647265737360448201526064016105bc565b6000818152600260205260409020546001600160a01b0316156124d85760405162461bcd60e51b815260206004820152601c60248201527f4552433732313a20746f6b656e20616c7265616479206d696e7465640000000060448201526064016105bc565b6124e6600083836001611fe7565b6000818152600260205260409020546001600160a01b03161561254b5760405162461bcd60e51b815260206004820152601c60248201527f4552433732313a20746f6b656e20616c7265616479206d696e7465640000000060448201526064016105bc565b6001600160a01b038216600081815260036020908152604080832080546001019055848352600290915280822080546001600160a01b0319168417905551839291907fddf252ad1be2c89b69c2b068fc378daa952ba7f163c4a11628f55a4df523b3ef908290a45050565b6001811115611799576001600160a01b038416156125fc576001600160a01b038416600090815260036020526040812080548392906125f6908490613005565b90915550505b6001600160a01b03831615611799576001600160a01b03831660009081526003602052604081208054839290612633908490613051565b909155505050505050565b6000600161264b84611067565b6126559190613005565b6000838152600760205260409020549091508082146126a8576001600160a01b03841660009081526006602090815260408083208584528252808320548484528184208190558352600790915290208190555b5060009182526007602090815260408084208490556001600160a01b039094168352600681528383209183525290812055565b6008546000906126ed90600190613005565b6000838152600960205260408120546008805493945090928490811061271557612715612fb5565b90600052602060002001549050806008838154811061273657612736612fb5565b600091825260208083209091019290925582815260099091526040808220849055858252812055600880548061276e5761276e6130f8565b6001900381819060005260206000200160009055905550505050565b600061279583611067565b6001600160a01b039093166000908152600660209081526040808320868452825280832085905593825260079052919091209190915550565b60608247101561282f5760405162461bcd60e51b815260206004820152602660248201527f416464726573733a20696e73756666696369656e742062616c616e636520666f6044820152651c8818d85b1b60d21b60648201526084016105bc565b600080866001600160a01b0316858760405161284b919061324b565b60006040518083038185875af1925050503d8060008114612888576040519150601f19603f3d011682016040523d82523d6000602084013e61288d565b606091505b509150915061289e878383876128a9565b979650505050505050565b60608315612918578251600003612911576001600160a01b0385163b6129115760405162461bcd60e51b815260206004820152601d60248201527f416464726573733a2063616c6c20746f206e6f6e2d636f6e747261637400000060448201526064016105bc565b508161066b565b61066b838381511561292d5781518083602001fd5b8060405162461bcd60e51b81526004016105bc9190612a7c565b6040518060a00160405280606081526020016000815260200160006001600160a01b0316815260200160008152602001600081525090565b8280548282559060005260206000209081019282156129ba579160200282015b828111156129ba57825182559160200191906001019061299f565b506129c69291506129e4565b5090565b508054600082559060005260206000209081019061193291905b5b808211156129c657600081556001016129e5565b6001600160e01b03198116811461193257600080fd5b600060208284031215612a2157600080fd5b813561180c816129f9565b60005b83811015612a47578181015183820152602001612a2f565b50506000910152565b60008151808452612a68816020860160208601612a2c565b601f01601f19169290920160200192915050565b60208152600061180c6020830184612a50565b600060208284031215612aa157600080fd5b5035919050565b6001600160a01b038116811461193257600080fd5b60008060408385031215612ad057600080fd5b8235612adb81612aa8565b946020939093013593505050565b634e487b7160e01b600052604160045260246000fd5b604051601f8201601f1916810167ffffffffffffffff81118282101715612b2857612b28612ae9565b604052919050565b60008060008060808587031215612b4657600080fd5b8435612b5181612aa8565b9350602085810135612b6281612aa8565b935060408601359250606086013567ffffffffffffffff80821115612b8657600080fd5b818801915088601f830112612b9a57600080fd5b813581811115612bac57612bac612ae9565b612bbe601f8201601f19168501612aff565b91508082528984828501011115612bd457600080fd5b808484018584013760008482840101525080935050505092959194509250565b600080600060608486031215612c0957600080fd5b8335612c1481612aa8565b92506020840135612c2481612aa8565b929592945050506040919091013590565b600082601f830112612c4657600080fd5b8135602067ffffffffffffffff821115612c6257612c62612ae9565b8160051b612c71828201612aff565b9283528481018201928281019087851115612c8b57600080fd5b83870192505b8483101561289e57823582529183019190830190612c91565b60008060008060808587031215612cc057600080fd5b8435612ccb81612aa8565b9350602085013567ffffffffffffffff80821115612ce857600080fd5b612cf488838901612c35565b94506040870135915080821115612d0a57600080fd5b50612d1787828801612c35565b949793965093946060013593505050565b600080600080600060a08688031215612d4057600080fd5b853567ffffffffffffffff811115612d5757600080fd5b612d6388828901612c35565b955050602086013593506040860135612d7b81612aa8565b94979396509394606081013594506080013592915050565b600060208284031215612da557600080fd5b813561180c81612aa8565b801515811461193257600080fd5b60008060408385031215612dd157600080fd5b8235612ddc81612aa8565b91506020830135612dec81612db0565b809150509250929050565b600080600060608486031215612e0c57600080fd5b8335612e1781612aa8565b9250602084013567ffffffffffffffff811115612e3357600080fd5b612e3f86828701612c35565b925050604084013590509250925092565b600081518084526020808501945080840160005b83811015612e8057815187529582019590820190600101612e64565b509495945050505050565b602081526000825160a06020840152612ea760c0840182612e50565b90506020840151604084015260018060a01b03604085015116606084015260608401516080840152608084015160a08401528091505092915050565b60008060408385031215612ef657600080fd5b8235612f0181612aa8565b91506020830135612dec81612aa8565b600181811c90821680612f2557607f821691505b602082108103612f4557634e487b7160e01b600052602260045260246000fd5b50919050565b6020808252602d908201527f4552433732313a2063616c6c6572206973206e6f7420746f6b656e206f776e6560408201526c1c881bdc88185c1c1c9bdd9959609a1b606082015260800190565b600060208284031215612faa57600080fd5b815161180c81612aa8565b634e487b7160e01b600052603260045260246000fd5b6001600160a01b039384168152919092166020820152604081019190915260600190565b634e487b7160e01b600052601160045260246000fd5b8181038181111561048957610489612fef565b808202811582820484141761048957610489612fef565b60008261304c57634e487b7160e01b600052601260045260246000fd5b500490565b8082018082111561048957610489612fef565b60006020828403121561307657600080fd5b5051919050565b60006001820161308f5761308f612fef565b5060010190565b6040815260006130a96040830185612e50565b90508260208301529392505050565b60a0815260006130cb60a0830188612e50565b6020830196909652506001600160a01b039390931660408401526060830191909152608090910152919050565b634e487b7160e01b600052603160045260246000fd5b60008351613120818460208801612a2c565b835190830190613134818360208801612a2c565b01949350505050565b60208082526025908201527f4552433732313a207472616e736665722066726f6d20696e636f72726563742060408201526437bbb732b960d91b606082015260800190565b60208082526032908201527f4552433732313a207472616e7366657220746f206e6f6e20455243373231526560408201527131b2b4bb32b91034b6b83632b6b2b73a32b960711b606082015260800190565b6000602082840312156131e657600080fd5b815161180c81612db0565b6001600160a01b038581168252841660208201526040810183905260806060820181905260009061322490830184612a50565b9695505050505050565b60006020828403121561324057600080fd5b815161180c816129f9565b6000825161325d818460208701612a2c565b919091019291505056fea2646970667358221220545ad744bdd20b9b1889cf06b0cac07a2f6cc384cd4443d818dca9ac04438f3164736f6c63430008110033a2646970667358221220cc0cf353ef4839e64c8a30067d8e278bb78e266d2b60bf16fa484e63377895b064736f6c63430008110033",
  "linkReferences": {},
  "deployedLinkReferences": {}
}