{
  "_format": "hh-sol-artifact-1",
  "contractName": "TradingPool",
  "sourceName": "contracts/protocol/Swap/TradingPool.sol",
  "abi": [
    {
      "inputs": [
        {
          "internalType": "contract IAddressesProvider",
          "name": "addressProvider",
          "type": "address"
        },
        {
          "internalType": "address",
          "name": "owner",
          "type": "address"
        },
        {
          "internalType": "contract IERC20",
          "name": "token",
          "type": "address"
        },
        {
          "internalType": "address",
          "name": "nft",
          "type": "address"
        },
        {
          "internalType": "uint256",
          "name": "defaultSwapFee",
          "type": "uint256"
        },
        {
          "internalType": "string",
          "name": "name",
          "type": "string"
        },
        {
          "internalType": "string",
          "name": "symbol",
          "type": "string"
        }
      ],
      "stateMutability": "nonpayable",
      "type": "constructor"
    },
    {
      "anonymous": false,
      "inputs": [
        {
          "indexed": true,
          "internalType": "address",
          "name": "user",
          "type": "address"
        },
        {
          "indexed": true,
          "internalType": "uint256",
          "name": "id",
          "type": "uint256"
        },
        {
          "indexed": false,
          "internalType": "uint256",
          "name": "tokenAmount",
          "type": "uint256"
        },
        {
          "indexed": false,
          "internalType": "uint256[]",
          "name": "nftIds",
          "type": "uint256[]"
        }
      ],
      "name": "AddLiquidity",
      "type": "event"
    },
    {
      "anonymous": false,
      "inputs": [
        {
          "indexed": true,
          "internalType": "address",
          "name": "owner",
          "type": "address"
        },
        {
          "indexed": true,
          "internalType": "address",
          "name": "approved",
          "type": "address"
        },
        {
          "indexed": true,
          "internalType": "uint256",
          "name": "tokenId",
          "type": "uint256"
        }
      ],
      "name": "Approval",
      "type": "event"
    },
    {
      "anonymous": false,
      "inputs": [
        {
          "indexed": true,
          "internalType": "address",
          "name": "owner",
          "type": "address"
        },
        {
          "indexed": true,
          "internalType": "address",
          "name": "operator",
          "type": "address"
        },
        {
          "indexed": false,
          "internalType": "bool",
          "name": "approved",
          "type": "bool"
        }
      ],
      "name": "ApprovalForAll",
      "type": "event"
    },
    {
      "anonymous": false,
      "inputs": [
        {
          "indexed": true,
          "internalType": "address",
          "name": "user",
          "type": "address"
        },
        {
          "indexed": false,
          "internalType": "uint256[]",
          "name": "nftIds",
          "type": "uint256[]"
        },
        {
          "indexed": false,
          "internalType": "uint256",
          "name": "price",
          "type": "uint256"
        }
      ],
      "name": "Buy",
      "type": "event"
    },
    {
      "anonymous": false,
      "inputs": [
        {
          "indexed": true,
          "internalType": "address",
          "name": "previousOwner",
          "type": "address"
        },
        {
          "indexed": true,
          "internalType": "address",
          "name": "newOwner",
          "type": "address"
        }
      ],
      "name": "OwnershipTransferred",
      "type": "event"
    },
    {
      "anonymous": false,
      "inputs": [
        {
          "indexed": true,
          "internalType": "address",
          "name": "user",
          "type": "address"
        },
        {
          "indexed": true,
          "internalType": "uint256",
          "name": "id",
          "type": "uint256"
        }
      ],
      "name": "RemoveLiquidity",
      "type": "event"
    },
    {
      "anonymous": false,
      "inputs": [
        {
          "indexed": true,
          "internalType": "address",
          "name": "user",
          "type": "address"
        },
        {
          "indexed": false,
          "internalType": "uint256[]",
          "name": "nftIds",
          "type": "uint256[]"
        },
        {
          "indexed": false,
          "internalType": "uint256",
          "name": "price",
          "type": "uint256"
        }
      ],
      "name": "Sell",
      "type": "event"
    },
    {
      "anonymous": false,
      "inputs": [
        {
          "indexed": true,
          "internalType": "address",
          "name": "from",
          "type": "address"
        },
        {
          "indexed": true,
          "internalType": "address",
          "name": "to",
          "type": "address"
        },
        {
          "indexed": true,
          "internalType": "uint256",
          "name": "tokenId",
          "type": "uint256"
        }
      ],
      "name": "Transfer",
      "type": "event"
    },
    {
      "inputs": [
        {
          "internalType": "uint256",
          "name": "tokenAmount",
          "type": "uint256"
        },
        {
          "internalType": "uint256[]",
          "name": "nftIds",
          "type": "uint256[]"
        },
        {
          "internalType": "address",
          "name": "curve",
          "type": "address"
        },
        {
          "internalType": "uint256",
          "name": "delta",
          "type": "uint256"
        },
        {
          "internalType": "uint256",
          "name": "initialPrice",
          "type": "uint256"
        }
      ],
      "name": "addLiquidity",
      "outputs": [],
      "stateMutability": "nonpayable",
      "type": "function"
    },
    {
      "inputs": [
        {
          "internalType": "address",
          "name": "to",
          "type": "address"
        },
        {
          "internalType": "uint256",
          "name": "tokenId",
          "type": "uint256"
        }
      ],
      "name": "approve",
      "outputs": [],
      "stateMutability": "nonpayable",
      "type": "function"
    },
    {
      "inputs": [
        {
          "internalType": "address",
          "name": "owner",
          "type": "address"
        }
      ],
      "name": "balanceOf",
      "outputs": [
        {
          "internalType": "uint256",
          "name": "",
          "type": "uint256"
        }
      ],
      "stateMutability": "view",
      "type": "function"
    },
    {
      "inputs": [
        {
          "internalType": "uint256[]",
          "name": "nftIds",
          "type": "uint256[]"
        }
      ],
      "name": "buy",
      "outputs": [
        {
          "internalType": "uint256",
          "name": "",
          "type": "uint256"
        }
      ],
      "stateMutability": "nonpayable",
      "type": "function"
    },
    {
      "inputs": [
        {
          "internalType": "uint256",
          "name": "tokenId",
          "type": "uint256"
        }
      ],
      "name": "getApproved",
      "outputs": [
        {
          "internalType": "address",
          "name": "",
          "type": "address"
        }
      ],
      "stateMutability": "view",
      "type": "function"
    },
    {
      "inputs": [
        {
          "internalType": "uint256",
          "name": "lpId",
          "type": "uint256"
        }
      ],
      "name": "getLP",
      "outputs": [
        {
          "components": [
            {
              "internalType": "uint256[]",
              "name": "nftIds",
              "type": "uint256[]"
            },
            {
              "internalType": "uint256",
              "name": "tokenAmount",
              "type": "uint256"
            },
            {
              "internalType": "address",
              "name": "curve",
              "type": "address"
            },
            {
              "internalType": "uint256",
              "name": "delta",
              "type": "uint256"
            },
            {
              "internalType": "uint256",
              "name": "price",
              "type": "uint256"
            }
          ],
          "internalType": "struct DataTypes.LiquidityPair",
          "name": "",
          "type": "tuple"
        }
      ],
      "stateMutability": "view",
      "type": "function"
    },
    {
      "inputs": [],
      "name": "getNFT",
      "outputs": [
        {
          "internalType": "address",
          "name": "",
          "type": "address"
        }
      ],
      "stateMutability": "view",
      "type": "function"
    },
    {
      "inputs": [],
      "name": "getSwapFee",
      "outputs": [
        {
          "internalType": "uint256",
          "name": "",
          "type": "uint256"
        }
      ],
      "stateMutability": "view",
      "type": "function"
    },
    {
      "inputs": [],
      "name": "getToken",
      "outputs": [
        {
          "internalType": "address",
          "name": "",
          "type": "address"
        }
      ],
      "stateMutability": "view",
      "type": "function"
    },
    {
      "inputs": [
        {
          "internalType": "address",
          "name": "owner",
          "type": "address"
        },
        {
          "internalType": "address",
          "name": "operator",
          "type": "address"
        }
      ],
      "name": "isApprovedForAll",
      "outputs": [
        {
          "internalType": "bool",
          "name": "",
          "type": "bool"
        }
      ],
      "stateMutability": "view",
      "type": "function"
    },
    {
      "inputs": [],
      "name": "name",
      "outputs": [
        {
          "internalType": "string",
          "name": "",
          "type": "string"
        }
      ],
      "stateMutability": "view",
      "type": "function"
    },
    {
      "inputs": [
        {
          "internalType": "uint256",
          "name": "nftId",
          "type": "uint256"
        }
      ],
      "name": "nftToLp",
      "outputs": [
        {
          "internalType": "uint256",
          "name": "",
          "type": "uint256"
        }
      ],
      "stateMutability": "view",
      "type": "function"
    },
    {
      "inputs": [
        {
          "internalType": "address",
          "name": "",
          "type": "address"
        },
        {
          "internalType": "address",
          "name": "",
          "type": "address"
        },
        {
          "internalType": "uint256",
          "name": "",
          "type": "uint256"
        },
        {
          "internalType": "bytes",
          "name": "",
          "type": "bytes"
        }
      ],
      "name": "onERC721Received",
      "outputs": [
        {
          "internalType": "bytes4",
          "name": "",
          "type": "bytes4"
        }
      ],
      "stateMutability": "nonpayable",
      "type": "function"
    },
    {
      "inputs": [],
      "name": "owner",
      "outputs": [
        {
          "internalType": "address",
          "name": "",
          "type": "address"
        }
      ],
      "stateMutability": "view",
      "type": "function"
    },
    {
      "inputs": [
        {
          "internalType": "uint256",
          "name": "tokenId",
          "type": "uint256"
        }
      ],
      "name": "ownerOf",
      "outputs": [
        {
          "internalType": "address",
          "name": "",
          "type": "address"
        }
      ],
      "stateMutability": "view",
      "type": "function"
    },
    {
      "inputs": [
        {
          "internalType": "uint256",
          "name": "lpId",
          "type": "uint256"
        }
      ],
      "name": "removeLiquidity",
      "outputs": [],
      "stateMutability": "nonpayable",
      "type": "function"
    },
    {
      "inputs": [],
      "name": "renounceOwnership",
      "outputs": [],
      "stateMutability": "nonpayable",
      "type": "function"
    },
    {
      "inputs": [
        {
          "internalType": "address",
          "name": "from",
          "type": "address"
        },
        {
          "internalType": "address",
          "name": "to",
          "type": "address"
        },
        {
          "internalType": "uint256",
          "name": "tokenId",
          "type": "uint256"
        }
      ],
      "name": "safeTransferFrom",
      "outputs": [],
      "stateMutability": "nonpayable",
      "type": "function"
    },
    {
      "inputs": [
        {
          "internalType": "address",
          "name": "from",
          "type": "address"
        },
        {
          "internalType": "address",
          "name": "to",
          "type": "address"
        },
        {
          "internalType": "uint256",
          "name": "tokenId",
          "type": "uint256"
        },
        {
          "internalType": "bytes",
          "name": "data",
          "type": "bytes"
        }
      ],
      "name": "safeTransferFrom",
      "outputs": [],
      "stateMutability": "nonpayable",
      "type": "function"
    },
    {
      "inputs": [
        {
          "internalType": "uint256[]",
          "name": "nftIds",
          "type": "uint256[]"
        },
        {
          "internalType": "uint256[]",
          "name": "liquidityPairs",
          "type": "uint256[]"
        }
      ],
      "name": "sell",
      "outputs": [
        {
          "internalType": "uint256",
          "name": "",
          "type": "uint256"
        }
      ],
      "stateMutability": "nonpayable",
      "type": "function"
    },
    {
      "inputs": [
        {
          "internalType": "address",
          "name": "operator",
          "type": "address"
        },
        {
          "internalType": "bool",
          "name": "approved",
          "type": "bool"
        }
      ],
      "name": "setApprovalForAll",
      "outputs": [],
      "stateMutability": "nonpayable",
      "type": "function"
    },
    {
      "inputs": [
        {
          "internalType": "uint256",
          "name": "newSwapFee",
          "type": "uint256"
        }
      ],
      "name": "setSwapFee",
      "outputs": [],
      "stateMutability": "nonpayable",
      "type": "function"
    },
    {
      "inputs": [
        {
          "internalType": "bytes4",
          "name": "interfaceId",
          "type": "bytes4"
        }
      ],
      "name": "supportsInterface",
      "outputs": [
        {
          "internalType": "bool",
          "name": "",
          "type": "bool"
        }
      ],
      "stateMutability": "view",
      "type": "function"
    },
    {
      "inputs": [],
      "name": "symbol",
      "outputs": [
        {
          "internalType": "string",
          "name": "",
          "type": "string"
        }
      ],
      "stateMutability": "view",
      "type": "function"
    },
    {
      "inputs": [
        {
          "internalType": "uint256",
          "name": "index",
          "type": "uint256"
        }
      ],
      "name": "tokenByIndex",
      "outputs": [
        {
          "internalType": "uint256",
          "name": "",
          "type": "uint256"
        }
      ],
      "stateMutability": "view",
      "type": "function"
    },
    {
      "inputs": [
        {
          "internalType": "address",
          "name": "owner",
          "type": "address"
        },
        {
          "internalType": "uint256",
          "name": "index",
          "type": "uint256"
        }
      ],
      "name": "tokenOfOwnerByIndex",
      "outputs": [
        {
          "internalType": "uint256",
          "name": "",
          "type": "uint256"
        }
      ],
      "stateMutability": "view",
      "type": "function"
    },
    {
      "inputs": [
        {
          "internalType": "uint256",
          "name": "tokenId",
          "type": "uint256"
        }
      ],
      "name": "tokenURI",
      "outputs": [
        {
          "internalType": "string",
          "name": "",
          "type": "string"
        }
      ],
      "stateMutability": "view",
      "type": "function"
    },
    {
      "inputs": [],
      "name": "totalSupply",
      "outputs": [
        {
          "internalType": "uint256",
          "name": "",
          "type": "uint256"
        }
      ],
      "stateMutability": "view",
      "type": "function"
    },
    {
      "inputs": [
        {
          "internalType": "address",
          "name": "from",
          "type": "address"
        },
        {
          "internalType": "address",
          "name": "to",
          "type": "address"
        },
        {
          "internalType": "uint256",
          "name": "tokenId",
          "type": "uint256"
        }
      ],
      "name": "transferFrom",
      "outputs": [],
      "stateMutability": "nonpayable",
      "type": "function"
    },
    {
      "inputs": [
        {
          "internalType": "address",
          "name": "newOwner",
          "type": "address"
        }
      ],
      "name": "transferOwnership",
      "outputs": [],
      "stateMutability": "nonpayable",
      "type": "function"
    }
  ],
  "bytecode": "0x60806040523480156200001157600080fd5b5060405162003471380380620034718339810160408190526200003491620002dd565b8181600062000044838262000436565b50600162000053828262000436565b505050620000706200006a620001a960201b60201c565b620001ad565b866001600160a01b031663ca1470ea6040518163ffffffff1660e01b8152600401602060405180830381865afa158015620000af573d6000803e3d6000fd5b505050506040513d601f19601f82011682018060405250810190620000d5919062000502565b6001600160a01b0316336001600160a01b0316146200014f5760405162461bcd60e51b815260206004820152602c60248201527f54726164696e6720506f6f6c206d75737420626520637265617465642074687260448201526b6f75676820466163746f727960a01b606482015260840160405180910390fd5b600b80546001600160a01b03808a166001600160a01b031992831617909255600c8054888416908316179055600d805492871692909116919091179055600e8390556200019c86620001ad565b5050505050505062000529565b3390565b600a80546001600160a01b038381166001600160a01b0319831681179093556040519116919082907f8be0079c531659141344cd1fd0a4f28419497f9722a3daafe3b4186f6b6457e090600090a35050565b6001600160a01b03811681146200021557600080fd5b50565b634e487b7160e01b600052604160045260246000fd5b600082601f8301126200024057600080fd5b81516001600160401b03808211156200025d576200025d62000218565b604051601f8301601f19908116603f0116810190828211818310171562000288576200028862000218565b81604052838152602092508683858801011115620002a557600080fd5b600091505b83821015620002c95785820183015181830184015290820190620002aa565b600093810190920192909252949350505050565b600080600080600080600060e0888a031215620002f957600080fd5b87516200030681620001ff565b60208901519097506200031981620001ff565b60408901519096506200032c81620001ff565b60608901519095506200033f81620001ff565b608089015160a08a015191955093506001600160401b03808211156200036457600080fd5b620003728b838c016200022e565b935060c08a01519150808211156200038957600080fd5b50620003988a828b016200022e565b91505092959891949750929550565b600181811c90821680620003bc57607f821691505b602082108103620003dd57634e487b7160e01b600052602260045260246000fd5b50919050565b601f8211156200043157600081815260208120601f850160051c810160208610156200040c5750805b601f850160051c820191505b818110156200042d5782815560010162000418565b5050505b505050565b81516001600160401b0381111562000452576200045262000218565b6200046a81620004638454620003a7565b84620003e3565b602080601f831160018114620004a25760008415620004895750858301515b600019600386901b1c1916600185901b1785556200042d565b600085815260208120601f198616915b82811015620004d357888601518255948401946001909101908401620004b2565b5085821015620004f25787850151600019600388901b60f8161c191681555b5050505050600190811b01905550565b6000602082840312156200051557600080fd5b81516200052281620001ff565b9392505050565b612f3880620005396000396000f3fe608060405234801561001057600080fd5b50600436106101da5760003560e01c806370a0823111610104578063b88d4fde116100a2578063d07fd39311610071578063d07fd39314610414578063d4cadf6814610427578063e985e9c51461042f578063f2fde38b1461046b57600080fd5b8063b88d4fde146103bb578063c243c72b146103ce578063c87b56dd146103e1578063cdd3f298146103f457600080fd5b80638da5cb5b116100de5780638da5cb5b1461037c57806395d89b411461038d5780639c8f9f2314610395578063a22cb465146103a857600080fd5b806370a0823114610350578063715018a61461036357806388a6360e1461036b57600080fd5b806323b872dd1161017c5780634f6ccce71161014b5780634f6ccce7146102f75780635460d8491461030a5780636352211e1461032a57806368660cd41461033d57600080fd5b806323b872dd146102ab5780632f745c59146102be57806334e19907146102d157806342842e0e146102e457600080fd5b8063095ea7b3116101b8578063095ea7b314610247578063150b7a021461025c57806318160ddd1461028857806321df0da71461029a57600080fd5b806301ffc9a7146101df57806306fdde0314610207578063081812fc1461021c575b600080fd5b6101f26101ed366004612731565b61047e565b60405190151581526020015b60405180910390f35b61020f61048f565b6040516101fe919061279e565b61022f61022a3660046127b1565b610521565b6040516001600160a01b0390911681526020016101fe565b61025a6102553660046127e6565b610548565b005b61026f61026a366004612857565b610662565b6040516001600160e01b031990911681526020016101fe565b6008545b6040519081526020016101fe565b600c546001600160a01b031661022f565b61025a6102b9366004612917565b610673565b61028c6102cc3660046127e6565b6106a4565b61025a6102df3660046127b1565b61073a565b61025a6102f2366004612917565b610747565b61028c6103053660046127b1565b610762565b61028c6103183660046127b1565b60009081526010602052604090205490565b61022f6103383660046127b1565b6107f5565b61025a61034b3660046129c8565b610855565b61028c61035e366004612a31565b610a73565b61025a610af9565b600d546001600160a01b031661022f565b600a546001600160a01b031661022f565b61020f610b0d565b61025a6103a33660046127b1565b610b1c565b61025a6103b6366004612a5a565b610c85565b61025a6103c9366004612857565b610c94565b61028c6103dc366004612a91565b610ccc565b61020f6103ef3660046127b1565b6110b7565b6104076104023660046127b1565b61112b565b6040516101fe9190612b01565b61028c610422366004612b59565b6111d4565b600e5461028c565b6101f261043d366004612bbd565b6001600160a01b03918216600090815260056020908152604080832093909416825291909152205460ff1690565b61025a610479366004612a31565b6115d6565b60006104898261164f565b92915050565b60606000805461049e90612bf0565b80601f01602080910402602001604051908101604052809291908181526020018280546104ca90612bf0565b80156105175780601f106104ec57610100808354040283529160200191610517565b820191906000526020600020905b8154815290600101906020018083116104fa57829003601f168201915b5050505050905090565b600061052c82611674565b506000908152600460205260409020546001600160a01b031690565b6000610553826107f5565b9050806001600160a01b0316836001600160a01b0316036105c55760405162461bcd60e51b815260206004820152602160248201527f4552433732313a20617070726f76616c20746f2063757272656e74206f776e656044820152603960f91b60648201526084015b60405180910390fd5b336001600160a01b03821614806105e157506105e1813361043d565b6106535760405162461bcd60e51b815260206004820152603d60248201527f4552433732313a20617070726f76652063616c6c6572206973206e6f7420746f60448201527f6b656e206f776e6572206f7220617070726f76656420666f7220616c6c00000060648201526084016105bc565b61065d83836116d3565b505050565b630a85bd0160e11b5b949350505050565b61067d3382611741565b6106995760405162461bcd60e51b81526004016105bc90612c2a565b61065d8383836117bf565b60006106af83610a73565b82106107115760405162461bcd60e51b815260206004820152602b60248201527f455243373231456e756d657261626c653a206f776e657220696e646578206f7560448201526a74206f6620626f756e647360a81b60648201526084016105bc565b506001600160a01b03919091166000908152600660209081526040808320938352929052205490565b610742611930565b600e55565b61065d83838360405180602001604052806000815250610c94565b600061076d60085490565b82106107d05760405162461bcd60e51b815260206004820152602c60248201527f455243373231456e756d657261626c653a20676c6f62616c20696e646578206f60448201526b7574206f6620626f756e647360a01b60648201526084016105bc565b600882815481106107e3576107e3612c77565b90600052602060002001549050919050565b6000818152600260205260408120546001600160a01b0316806104895760405162461bcd60e51b8152602060048201526018602482015277115490cdcc8c4e881a5b9d985b1a59081d1bdad95b88125160421b60448201526064016105bc565b60005b845181101561094d57600d5485516001600160a01b03909116906342842e0e903390309089908690811061088e5761088e612c77565b60200260200101516040518463ffffffff1660e01b81526004016108b493929190612c8d565b600060405180830381600087803b1580156108ce57600080fd5b505af11580156108e2573d6000803e3d6000fd5b5050505060405180604001604052806011548152602001828152506010600087848151811061091357610913612c77565b602090810291909101810151825281810192909252604001600020825181559101516001909101558061094581612cc7565b915050610858565b50600c54610966906001600160a01b031633308861198a565b6040805160a08101825285815260208082018890526001600160a01b0386168284015260608201859052608082018490526011546000908152600f82529290922081518051929391926109bc9284920190612665565b506020820151600182015560408201516002820180546001600160a01b0319166001600160a01b0390921691909117905560608201516003820155608090910151600490910155601154610a119033906119e2565b60118054906000610a2183612cc7565b9190505550601154336001600160a01b03167ff2b8d398085ceadfce4f6fd552acf36e537609826798cb78bcde9fb1cc7cb9138787604051610a64929190612ce0565b60405180910390a35050505050565b60006001600160a01b038216610add5760405162461bcd60e51b815260206004820152602960248201527f4552433732313a2061646472657373207a65726f206973206e6f7420612076616044820152683634b21037bbb732b960b91b60648201526084016105bc565b506001600160a01b031660009081526003602052604090205490565b610b01611930565b610b0b60006119fc565b565b60606001805461049e90612bf0565b610b2581611a4e565b60005b6000828152600f6020526040902054811015610be657600d546000838152600f6020526040902080546001600160a01b03909216916342842e0e91309133919086908110610b7857610b78612c77565b90600052602060002001546040518463ffffffff1660e01b8152600401610ba193929190612c8d565b600060405180830381600087803b158015610bbb57600080fd5b505af1158015610bcf573d6000803e3d6000fd5b505050508080610bde90612cc7565b915050610b28565b506000818152600f6020526040902060010154600c54610c13916001600160a01b03909116903090611af1565b6000818152600f6020526040812090610c2c82826126b0565b506000600182018190556002820180546001600160a01b0319169055600382018190556004909101819055604051829133917fdfdd120ded9b7afc0c23dd5310e93aaa3e1c3b9f75af9b805fab3030842439f29190a350565b610c90338383611b21565b5050565b610c9e3383611741565b610cba5760405162461bcd60e51b81526004016105bc90612c2a565b610cc684848484611bef565b50505050565b600080600080600080610cdd6126ce565b60005b885181101561104f57601060008a8381518110610cff57610cff612c77565b60200260200101518152602001908152602001600020600001549350601060008a8381518110610d3157610d31612c77565b60200260200101518152602001908152602001600020600101549250600f60008581526020019081526020016000206040518060a001604052908160008201805480602002602001604051908101604052809291908181526020018280548015610dba57602002820191906000526020600020905b815481526020019060010190808311610da6575b50505091835250506001820154602082015260028201546001600160a01b0390811660408084019190915260038401546060808501919091526004948501546080948501528582015193860151908601519151635d8b487160e11b81529485015260248401529294509091169063bb1690e290604401602060405180830381865afa158015610e4d573d6000803e3d6000fd5b505050506040513d601f19601f82011682018060405250810190610e719190612cf9565b955061271086600e54612710610e879190612d12565b610e919190612d25565b610e9b9190612d3c565b6000858152600f6020526040902060048101889055805491965090610ec290600190612d5e565b81548110610ed257610ed2612c77565b9060005260206000200154600f60008681526020019081526020016000206000018481548110610f0457610f04612c77565b6000918252602080832090910192909255858152600f90915260409020805480610f3057610f30612d71565b6001900381819060005260206000200160009055905584600f60008681526020019081526020016000206001016000828254610f6c9190612d12565b90915550610f7c90508588612d12565b9650601060008a8381518110610f9457610f94612c77565b6020908102919091018101518252810191909152604001600090812081815560010155600d5489516001600160a01b03909116906342842e0e90309033908d9086908110610fe457610fe4612c77565b60200260200101516040518463ffffffff1660e01b815260040161100a93929190612c8d565b600060405180830381600087803b15801561102457600080fd5b505af1158015611038573d6000803e3d6000fd5b50505050808061104790612cc7565b915050610ce0565b50600c54611068906001600160a01b031633308961198a565b336001600160a01b03167f0306912acbf130bc61cce94222a394a64e258433196a3d3679a9bbfb8973f77389886040516110a3929190612d87565b60405180910390a250939695505050505050565b60606110c282611674565b60006110d960408051602081019091526000815290565b905060008151116110f95760405180602001604052806000815250611124565b8061110384611c22565b604051602001611114929190612da9565b6040516020818303038152906040525b9392505050565b6111336126ce565b6000828152600f60209081526040918290208251815460c09381028201840190945260a08101848152909391928492849184018282801561119357602002820191906000526020600020905b81548152602001906001019080831161117f575b50505091835250506001820154602082015260028201546001600160a01b031660408201526003820154606082015260049091015460809091015292915050565b6000815183511461123e5760405162461bcd60e51b815260206004820152602e60248201527f4e46547320616e64204c6971756964697479205061697273206d75737420686160448201526d0ecca40e6c2daca40d8cadccee8d60931b60648201526084016105bc565b60008060008061124c6126ce565b60005b885181101561156f57600d5489516001600160a01b03909116906342842e0e90339030908d908690811061128557611285612c77565b60200260200101516040518463ffffffff1660e01b81526004016112ab93929190612c8d565b600060405180830381600087803b1580156112c557600080fd5b505af11580156112d9573d6000803e3d6000fd5b50505050601060008a83815181106112f3576112f3612c77565b60200260200101518152602001908152602001600020600001549350601060008a838151811061132557611325612c77565b60200260200101518152602001908152602001600020600101549250600f60008581526020019081526020016000206040518060a0016040529081600082018054806020026020016040519081016040528092919081815260200182805480156113ae57602002820191906000526020600020905b81548152602001906001019080831161139a575b50505091835250506001820154602082015260028201546001600160a01b0316604082015260038201546060820152600490910154608091820152810151600e54919350612710916114009083612d5e565b61140a9190612d25565b6114149190612d3c565b94506114208587612d12565b9550600f60008a838151811061143857611438612c77565b6020026020010151815260200190815260200160002060000189828151811061146357611463612c77565b602090810291909101810151825460018181018555600094855283852090910191909155868352600f909152604082200180548792906114a4908490612d5e565b9091555050604082810151608084015160608501519251633698f96560e11b8152600481019190915260248101929092526001600160a01b031690636d31f2ca90604401602060405180830381865afa158015611505573d6000803e3d6000fd5b505050506040513d601f19601f820116820180604052508101906115299190612cf9565b600f60008b848151811061153f5761153f612c77565b6020026020010151815260200190815260200160002060040181905550808061156790612cc7565b91505061124f565b50600c54611587906001600160a01b03163087611af1565b336001600160a01b03167feb3c528adebc70d317bef09706905761642981ebf9def9aafdc40f404e49346a89876040516115c2929190612d87565b60405180910390a250929695505050505050565b6115de611930565b6001600160a01b0381166116435760405162461bcd60e51b815260206004820152602660248201527f4f776e61626c653a206e6577206f776e657220697320746865207a65726f206160448201526564647265737360d01b60648201526084016105bc565b61164c816119fc565b50565b60006001600160e01b0319821663780e9d6360e01b1480610489575061048982611cb5565b6000818152600260205260409020546001600160a01b031661164c5760405162461bcd60e51b8152602060048201526018602482015277115490cdcc8c4e881a5b9d985b1a59081d1bdad95b88125160421b60448201526064016105bc565b600081815260046020526040902080546001600160a01b0319166001600160a01b0384169081179091558190611708826107f5565b6001600160a01b03167f8c5be1e5ebec7d5bd14f71427d1e84f3dd0314c0f7b2291e5b200ac8c7c3b92560405160405180910390a45050565b60008061174d836107f5565b9050806001600160a01b0316846001600160a01b0316148061179457506001600160a01b0380821660009081526005602090815260408083209388168352929052205460ff165b8061066b5750836001600160a01b03166117ad84610521565b6001600160a01b031614949350505050565b826001600160a01b03166117d2826107f5565b6001600160a01b0316146117f85760405162461bcd60e51b81526004016105bc90612dd8565b6001600160a01b03821661185a5760405162461bcd60e51b8152602060048201526024808201527f4552433732313a207472616e7366657220746f20746865207a65726f206164646044820152637265737360e01b60648201526084016105bc565b6118678383836001611d05565b826001600160a01b031661187a826107f5565b6001600160a01b0316146118a05760405162461bcd60e51b81526004016105bc90612dd8565b600081815260046020908152604080832080546001600160a01b03199081169091556001600160a01b0387811680865260038552838620805460001901905590871680865283862080546001019055868652600290945282852080549092168417909155905184937fddf252ad1be2c89b69c2b068fc378daa952ba7f163c4a11628f55a4df523b3ef91a4505050565b600a546001600160a01b03163314610b0b5760405162461bcd60e51b815260206004820181905260248201527f4f776e61626c653a2063616c6c6572206973206e6f7420746865206f776e657260448201526064016105bc565b610cc6846323b872dd60e01b8585856040516024016119ab93929190612c8d565b60408051601f198184030181529190526020810180516001600160e01b03166001600160e01b031990931692909217909152611d11565b610c90828260405180602001604052806000815250611de3565b600a80546001600160a01b038381166001600160a01b0319831681179093556040519116919082907f8be0079c531659141344cd1fd0a4f28419497f9722a3daafe3b4186f6b6457e090600090a35050565b6000611a59826107f5565b9050611a69816000846001611d05565b611a72826107f5565b600083815260046020908152604080832080546001600160a01b03199081169091556001600160a01b0385168085526003845282852080546000190190558785526002909352818420805490911690555192935084927fddf252ad1be2c89b69c2b068fc378daa952ba7f163c4a11628f55a4df523b3ef908390a45050565b6040516001600160a01b03831660248201526044810182905261065d90849063a9059cbb60e01b906064016119ab565b816001600160a01b0316836001600160a01b031603611b825760405162461bcd60e51b815260206004820152601960248201527f4552433732313a20617070726f766520746f2063616c6c65720000000000000060448201526064016105bc565b6001600160a01b03838116600081815260056020908152604080832094871680845294825291829020805460ff191686151590811790915591519182527f17307eab39ab6107e8899845ad3d59bd9653f200f220920489ca2b5937696c31910160405180910390a3505050565b611bfa8484846117bf565b611c0684848484611e16565b610cc65760405162461bcd60e51b81526004016105bc90612e1d565b60606000611c2f83611f14565b600101905060008167ffffffffffffffff811115611c4f57611c4f612810565b6040519080825280601f01601f191660200182016040528015611c79576020820181803683370190505b5090508181016020015b600019016f181899199a1a9b1b9c1cb0b131b232b360811b600a86061a8153600a8504945084611c8357509392505050565b60006001600160e01b031982166380ac58cd60e01b1480611ce657506001600160e01b03198216635b5e139f60e01b145b8061048957506301ffc9a760e01b6001600160e01b0319831614610489565b610cc684848484611fec565b6000611d66826040518060400160405280602081526020017f5361666545524332303a206c6f772d6c6576656c2063616c6c206661696c6564815250856001600160a01b031661212c9092919063ffffffff16565b80519091501561065d5780806020019051810190611d849190612e6f565b61065d5760405162461bcd60e51b815260206004820152602a60248201527f5361666545524332303a204552433230206f7065726174696f6e20646964206e6044820152691bdd081cdd58d8d9595960b21b60648201526084016105bc565b611ded838361213b565b611dfa6000848484611e16565b61065d5760405162461bcd60e51b81526004016105bc90612e1d565b60006001600160a01b0384163b15611f0c57604051630a85bd0160e11b81526001600160a01b0385169063150b7a0290611e5a903390899088908890600401612e8c565b6020604051808303816000875af1925050508015611e95575060408051601f3d908101601f19168201909252611e9291810190612ec9565b60015b611ef2573d808015611ec3576040519150601f19603f3d011682016040523d82523d6000602084013e611ec8565b606091505b508051600003611eea5760405162461bcd60e51b81526004016105bc90612e1d565b805181602001fd5b6001600160e01b031916630a85bd0160e11b14905061066b565b50600161066b565b60008072184f03e93ff9f4daa797ed6e38ed64bf6a1f0160401b8310611f535772184f03e93ff9f4daa797ed6e38ed64bf6a1f0160401b830492506040015b6d04ee2d6d415b85acef81000000008310611f7f576d04ee2d6d415b85acef8100000000830492506020015b662386f26fc100008310611f9d57662386f26fc10000830492506010015b6305f5e1008310611fb5576305f5e100830492506008015b6127108310611fc957612710830492506004015b60648310611fdb576064830492506002015b600a83106104895760010192915050565b611ff8848484846122d4565b60018111156120675760405162461bcd60e51b815260206004820152603560248201527f455243373231456e756d657261626c653a20636f6e7365637574697665207472604482015274185b9cd9995c9cc81b9bdd081cdd5c1c1bdc9d1959605a1b60648201526084016105bc565b816001600160a01b0385166120c3576120be81600880546000838152600960205260408120829055600182018355919091527ff3f7a9fe364faab93b216da50a3214154f22a0a2b415b23a84c8169e8b636ee30155565b6120e6565b836001600160a01b0316856001600160a01b0316146120e6576120e6858261235c565b6001600160a01b038416612102576120fd816123f9565b612125565b846001600160a01b0316846001600160a01b0316146121255761212584826124a8565b5050505050565b606061066b84846000856124ec565b6001600160a01b0382166121915760405162461bcd60e51b815260206004820181905260248201527f4552433732313a206d696e7420746f20746865207a65726f206164647265737360448201526064016105bc565b6000818152600260205260409020546001600160a01b0316156121f65760405162461bcd60e51b815260206004820152601c60248201527f4552433732313a20746f6b656e20616c7265616479206d696e7465640000000060448201526064016105bc565b612204600083836001611d05565b6000818152600260205260409020546001600160a01b0316156122695760405162461bcd60e51b815260206004820152601c60248201527f4552433732313a20746f6b656e20616c7265616479206d696e7465640000000060448201526064016105bc565b6001600160a01b038216600081815260036020908152604080832080546001019055848352600290915280822080546001600160a01b0319168417905551839291907fddf252ad1be2c89b69c2b068fc378daa952ba7f163c4a11628f55a4df523b3ef908290a45050565b6001811115610cc6576001600160a01b0384161561231a576001600160a01b03841660009081526003602052604081208054839290612314908490612d5e565b90915550505b6001600160a01b03831615610cc6576001600160a01b03831660009081526003602052604081208054839290612351908490612d12565b909155505050505050565b6000600161236984610a73565b6123739190612d5e565b6000838152600760205260409020549091508082146123c6576001600160a01b03841660009081526006602090815260408083208584528252808320548484528184208190558352600790915290208190555b5060009182526007602090815260408084208490556001600160a01b039094168352600681528383209183525290812055565b60085460009061240b90600190612d5e565b6000838152600960205260408120546008805493945090928490811061243357612433612c77565b90600052602060002001549050806008838154811061245457612454612c77565b600091825260208083209091019290925582815260099091526040808220849055858252812055600880548061248c5761248c612d71565b6001900381819060005260206000200160009055905550505050565b60006124b383610a73565b6001600160a01b039093166000908152600660209081526040808320868452825280832085905593825260079052919091209190915550565b60608247101561254d5760405162461bcd60e51b815260206004820152602660248201527f416464726573733a20696e73756666696369656e742062616c616e636520666f6044820152651c8818d85b1b60d21b60648201526084016105bc565b600080866001600160a01b031685876040516125699190612ee6565b60006040518083038185875af1925050503d80600081146125a6576040519150601f19603f3d011682016040523d82523d6000602084013e6125ab565b606091505b50915091506125bc878383876125c7565b979650505050505050565b6060831561263657825160000361262f576001600160a01b0385163b61262f5760405162461bcd60e51b815260206004820152601d60248201527f416464726573733a2063616c6c20746f206e6f6e2d636f6e747261637400000060448201526064016105bc565b508161066b565b61066b838381511561264b5781518083602001fd5b8060405162461bcd60e51b81526004016105bc919061279e565b8280548282559060005260206000209081019282156126a0579160200282015b828111156126a0578251825591602001919060010190612685565b506126ac929150612706565b5090565b508054600082559060005260206000209081019061164c9190612706565b6040518060a00160405280606081526020016000815260200160006001600160a01b0316815260200160008152602001600081525090565b5b808211156126ac5760008155600101612707565b6001600160e01b03198116811461164c57600080fd5b60006020828403121561274357600080fd5b81356111248161271b565b60005b83811015612769578181015183820152602001612751565b50506000910152565b6000815180845261278a81602086016020860161274e565b601f01601f19169290920160200192915050565b6020815260006111246020830184612772565b6000602082840312156127c357600080fd5b5035919050565b80356001600160a01b03811681146127e157600080fd5b919050565b600080604083850312156127f957600080fd5b612802836127ca565b946020939093013593505050565b634e487b7160e01b600052604160045260246000fd5b604051601f8201601f1916810167ffffffffffffffff8111828210171561284f5761284f612810565b604052919050565b6000806000806080858703121561286d57600080fd5b612876856127ca565b935060206128858187016127ca565b935060408601359250606086013567ffffffffffffffff808211156128a957600080fd5b818801915088601f8301126128bd57600080fd5b8135818111156128cf576128cf612810565b6128e1601f8201601f19168501612826565b915080825289848285010111156128f757600080fd5b808484018584013760008482840101525080935050505092959194509250565b60008060006060848603121561292c57600080fd5b612935846127ca565b9250612943602085016127ca565b9150604084013590509250925092565b600082601f83011261296457600080fd5b8135602067ffffffffffffffff82111561298057612980612810565b8160051b61298f828201612826565b92835284810182019282810190878511156129a957600080fd5b83870192505b848310156125bc578235825291830191908301906129af565b600080600080600060a086880312156129e057600080fd5b85359450602086013567ffffffffffffffff8111156129fe57600080fd5b612a0a88828901612953565b945050612a19604087016127ca565b94979396509394606081013594506080013592915050565b600060208284031215612a4357600080fd5b611124826127ca565b801515811461164c57600080fd5b60008060408385031215612a6d57600080fd5b612a76836127ca565b91506020830135612a8681612a4c565b809150509250929050565b600060208284031215612aa357600080fd5b813567ffffffffffffffff811115612aba57600080fd5b61066b84828501612953565b600081518084526020808501945080840160005b83811015612af657815187529582019590820190600101612ada565b509495945050505050565b602081526000825160a06020840152612b1d60c0840182612ac6565b90506020840151604084015260018060a01b03604085015116606084015260608401516080840152608084015160a08401528091505092915050565b60008060408385031215612b6c57600080fd5b823567ffffffffffffffff80821115612b8457600080fd5b612b9086838701612953565b93506020850135915080821115612ba657600080fd5b50612bb385828601612953565b9150509250929050565b60008060408385031215612bd057600080fd5b612bd9836127ca565b9150612be7602084016127ca565b90509250929050565b600181811c90821680612c0457607f821691505b602082108103612c2457634e487b7160e01b600052602260045260246000fd5b50919050565b6020808252602d908201527f4552433732313a2063616c6c6572206973206e6f7420746f6b656e206f776e6560408201526c1c881bdc88185c1c1c9bdd9959609a1b606082015260800190565b634e487b7160e01b600052603260045260246000fd5b6001600160a01b039384168152919092166020820152604081019190915260600190565b634e487b7160e01b600052601160045260246000fd5b600060018201612cd957612cd9612cb1565b5060010190565b82815260406020820152600061066b6040830184612ac6565b600060208284031215612d0b57600080fd5b5051919050565b8082018082111561048957610489612cb1565b808202811582820484141761048957610489612cb1565b600082612d5957634e487b7160e01b600052601260045260246000fd5b500490565b8181038181111561048957610489612cb1565b634e487b7160e01b600052603160045260246000fd5b604081526000612d9a6040830185612ac6565b90508260208301529392505050565b60008351612dbb81846020880161274e565b835190830190612dcf81836020880161274e565b01949350505050565b60208082526025908201527f4552433732313a207472616e736665722066726f6d20696e636f72726563742060408201526437bbb732b960d91b606082015260800190565b60208082526032908201527f4552433732313a207472616e7366657220746f206e6f6e20455243373231526560408201527131b2b4bb32b91034b6b83632b6b2b73a32b960711b606082015260800190565b600060208284031215612e8157600080fd5b815161112481612a4c565b6001600160a01b0385811682528416602082015260408101839052608060608201819052600090612ebf90830184612772565b9695505050505050565b600060208284031215612edb57600080fd5b81516111248161271b565b60008251612ef881846020870161274e565b919091019291505056fea26469706673582212208ffad2ca6224516ac973f781f16d39bb812f7990633713c9a7f57e17b4c017fa64736f6c63430008110033",
  "linkReferences": {},
  "deployedLinkReferences": {}
}