{
  "_format": "hh-sol-artifact-1",
  "contractName": "TradingPoolHelpers",
  "sourceName": "contracts/protocol/Trading/TradingPoolHelpers.sol",
  "abi": [
    {
      "inputs": [
        {
          "internalType": "address",
          "name": "AddressProvider",
          "type": "address"
        }
      ],
      "stateMutability": "nonpayable",
      "type": "constructor"
    },
    {
      "inputs": [
        {
          "internalType": "address",
          "name": "pool",
          "type": "address"
        },
        {
          "internalType": "uint256",
          "name": "amount",
          "type": "uint256"
        }
      ],
      "name": "getSellLiquidityPairs",
      "outputs": [
        {
          "internalType": "uint256[]",
          "name": "sellLiquidityPairs",
          "type": "uint256[]"
        }
      ],
      "stateMutability": "view",
      "type": "function"
    },
    {
      "inputs": [
        {
          "internalType": "address",
          "name": "tradingPool",
          "type": "address"
        },
        {
          "internalType": "uint256[]",
          "name": "nftIds",
          "type": "uint256[]"
        }
      ],
      "name": "simulateBuy",
      "outputs": [
        {
          "internalType": "uint256",
          "name": "finalPrice",
          "type": "uint256"
        }
      ],
      "stateMutability": "view",
      "type": "function"
    },
    {
      "inputs": [
        {
          "internalType": "address",
          "name": "tradingPool",
          "type": "address"
        },
        {
          "internalType": "uint256[]",
          "name": "nftIds",
          "type": "uint256[]"
        },
        {
          "internalType": "uint256[]",
          "name": "liquidityPairs",
          "type": "uint256[]"
        }
      ],
      "name": "simulateSell",
      "outputs": [
        {
          "internalType": "uint256",
          "name": "finalPrice",
          "type": "uint256"
        }
      ],
      "stateMutability": "view",
      "type": "function"
    }
  ],
  "bytecode": "0x60806040523480156200001157600080fd5b50604051620025723803806200257283398101604081905262000034916200005a565b600080546001600160a01b0319166001600160a01b03929092169190911790556200008c565b6000602082840312156200006d57600080fd5b81516001600160a01b03811681146200008557600080fd5b9392505050565b6124d6806200009c6000396000f3fe608060405234801561001057600080fd5b50600436106100415760003560e01c806376674ea01461004657806396b3216b1461006c5780639fcaa4961461008c575b600080fd5b61005961005436600461209c565b61009f565b6040519081526020015b60405180910390f35b61007f61007a3660046120f0565b6109bd565b604051610063919061211c565b61005961009a366004612160565b611758565b6000816100e15760405162461bcd60e51b815260206004820152600b60248201526a054503a423a4e4654535f360ac1b60448201526064015b60405180910390fd5b6000826001600160401b038111156100fb576100fb6121e2565b60405190808252806020026020018201604052801561013457816020015b610121611ff2565b8152602001906001900390816101195790505b5090506000836001600160401b03811115610151576101516121e2565b60405190808252806020026020018201604052801561017a578160200160208202803683370190505b509050600080600061018a611ff2565b6000805b898110156105835760006101a382600161220e565b90505b8a811015610233578b8b828181106101c0576101c0612221565b905060200201358c8c848181106101d9576101d9612221565b90506020020135036102215760405162461bcd60e51b815260206004820152601160248201527015140e908e949154115055115117d39195607a1b60448201526064016100d8565b8061022b81612237565b9150506101a6565b508b6001600160a01b03168c6001600160a01b03166388a6360e6040518163ffffffff1660e01b8152600401602060405180830381865afa15801561027c573d6000803e3d6000fd5b505050506040513d601f19601f820116820180604052508101906102a09190612260565b6001600160a01b0316636352211e8d8d858181106102c0576102c0612221565b905060200201356040518263ffffffff1660e01b81526004016102e591815260200190565b602060405180830381865afa158015610302573d6000803e3d6000fd5b505050506040513d601f19601f820116820180604052508101906103269190612260565b6001600160a01b03161461036d5760405162461bcd60e51b815260206004820152600e60248201526d2a281d211d2727aa2fa7aba722a960911b60448201526064016100d8565b8b6001600160a01b0316635460d8498c8c8481811061038e5761038e612221565b905060200201356040518263ffffffff1660e01b81526004016103b391815260200190565b602060405180830381865afa1580156103d0573d6000803e3d6000fd5b505050506040513d601f19601f820116820180604052508101906103f49190612284565b6040516319ba7e5360e31b8152600481018290529096506001600160a01b038d169063cdd3f29890602401600060405180830381865afa15801561043c573d6000803e3d6000fd5b505050506040513d6000823e601f3d908101601f19168201604052610464919081019061236e565b925060005b848110156104ac578688828151811061048457610484612221565b60200260200101510361049a57600192506104ac565b806104a481612237565b915050610469565b508161050257858785815181106104c5576104c5612221565b602002602001018181525050828885815181106104e4576104e4612221565b602002602001018190525083806104fa90612237565b945050600091505b600388828151811061051657610516612221565b602002602001015160000151600481111561053357610533612427565b036105715760405162461bcd60e51b815260206004820152600e60248201526d054503a423a49535f4255595f4c560941b60448201526064016100d8565b8061057b81612237565b91505061018e565b5060008080805b8c8110156109ab578e6001600160a01b0316635460d8498f8f848181106105b3576105b3612221565b905060200201356040518263ffffffff1660e01b81526004016105d891815260200190565b602060405180830381865afa1580156105f5573d6000803e3d6000fd5b505050506040513d601f19601f820116820180604052508101906106199190612284565b985060005b8781101561066057898b828151811061063957610639612221565b60200260200101510361064e57809850610660565b8061065881612237565b91505061061e565b506127108b898151811061067657610676612221565b602002602001015160c001518c8a8151811061069457610694612221565b6020026020010151606001516106aa919061243d565b6106b49190612454565b935061271060008054906101000a90046001600160a01b03166001600160a01b031663ca1470ea6040518163ffffffff1660e01b8152600401602060405180830381865afa15801561070a573d6000803e3d6000fd5b505050506040513d601f19601f8201168201806040525081019061072e9190612260565b6001600160a01b031663706d9f786040518163ffffffff1660e01b8152600401602060405180830381865afa15801561076b573d6000803e3d6000fd5b505050506040513d601f19601f8201168201806040525081019061078f9190612284565b610799908661243d565b6107a39190612454565b915081848c8a815181106107b9576107b9612221565b6020026020010151606001516107cf919061220e565b6107d99190612476565b8b89815181106107eb576107eb612221565b6020026020010151604001818151610803919061220e565b9052508a5184908c908a90811061081c5761081c612221565b602002602001015160600151610832919061220e565b61083c908d61220e565b9b50610848848461220e565b925060028b898151811061085e5761085e612221565b602002602001015160000151600481111561087b5761087b612427565b14610999578a888151811061089257610892612221565b6020026020010151608001516001600160a01b031663d6c2b8c68c8a815181106108be576108be612221565b6020026020010151606001518d8b815181106108dc576108dc612221565b602002602001015160a001518e8c815181106108fa576108fa612221565b602002602001015160c001516040518463ffffffff1660e01b8152600401610935939291909283526020830191909152604082015260600190565b602060405180830381865afa158015610952573d6000803e3d6000fd5b505050506040513d601f19601f820116820180604052508101906109769190612284565b8b898151811061098857610988612221565b602002602001015160600181815250505b806109a381612237565b91505061058a565b50505050505050505050509392505050565b60606000836001600160a01b031663fc1507b36040518163ffffffff1660e01b8152600401602060405180830381865afa1580156109ff573d6000803e3d6000fd5b505050506040513d601f19601f82011682018060405250810190610a239190612284565b90506000816001600160401b03811115610a3f57610a3f6121e2565b604051908082528060200260200182016040528015610a68578160200160208202803683370190505b5090506000808060008060009054906101000a90046001600160a01b03166001600160a01b031663ca1470ea6040518163ffffffff1660e01b8152600401602060405180830381865afa158015610ac3573d6000803e3d6000fd5b505050506040513d601f19601f82011682018060405250810190610ae79190612260565b6001600160a01b031663706d9f786040518163ffffffff1660e01b8152600401602060405180830381865afa158015610b24573d6000803e3d6000fd5b505050506040513d601f19601f82011682018060405250810190610b489190612284565b9050610b52611ff2565b60005b87811015610d07576040516319ba7e5360e31b8152600481018290526001600160a01b038c169063cdd3f29890602401600060405180830381865afa158015610ba2573d6000803e3d6000fd5b505050506040513d6000823e601f3d908101601f19168201604052610bca919081019061236e565b6040516331a9108f60e11b8152600481018390529092506000906001600160a01b038d1690636352211e90602401602060405180830381865afa158015610c15573d6000803e3d6000fd5b505050506040513d601f19601f82011682018060405250810190610c399190612260565b6001600160a01b031614158015610c635750600482516004811115610c6057610c60612427565b14155b15610cf5576127108260c001518360600151610c7f919061243d565b610c899190612454565b9450612710610c98848761243d565b610ca29190612454565b935083858360600151610cb59190612476565b610cbf919061220e565b826040015110610cf55780878781518110610cdc57610cdc612221565b602090810291909101015285610cf181612237565b9650505b80610cff81612237565b915050610b55565b50886001600160401b03811115610d2057610d206121e2565b604051908082528060200260200182016040528015610d49578160200160208202803683370190505b5097506000896001600160401b03811115610d6657610d666121e2565b604051908082528060200260200182016040528015610d8f578160200160208202803683370190505b50905060005b86811015611079578b6001600160a01b031663cdd3f298898381518110610dbe57610dbe612221565b60200260200101516040518263ffffffff1660e01b8152600401610de491815260200190565b600060405180830381865afa158015610e01573d6000803e3d6000fd5b505050506040513d6000823e601f3d908101601f19168201604052610e29919081019061236e565b925060006127108460c00151612710610e429190612476565b8560600151610e51919061243d565b610e5b9190612454565b905082610e6960018e612476565b81518110610e7957610e79612221565b602002602001015181111561106657818b610e9560018f612476565b81518110610ea557610ea5612221565b60209081029190910101528083610ebd60018f612476565b81518110610ecd57610ecd612221565b60209081029190910101526000610ee560018e612476565b90505b80156110645783610efa600183612476565b81518110610f0a57610f0a612221565b6020026020010151848281518110610f2457610f24612221565b6020026020010151111561104d5760008c8281518110610f4657610f46612221565b602002602001015190508c600183610f5e9190612476565b81518110610f6e57610f6e612221565b60200260200101518d8381518110610f8857610f88612221565b6020908102919091010152808d610fa0600185612476565b81518110610fb057610fb0612221565b6020026020010181815250506000858381518110610fd057610fd0612221565b6020026020010151905085600184610fe89190612476565b81518110610ff857610ff8612221565b602002602001015186848151811061101257611012612221565b6020908102919091010152808661102a600186612476565b8151811061103a5761103a612221565b6020026020010181815250505050611052565b611064565b8061105c81612489565b915050610ee8565b505b508061107181612237565b915050610d95565b506000808b6001600160401b03811115611095576110956121e2565b6040519080825280602002602001820160405280156110ce57816020015b6110bb611ff2565b8152602001906001900390816110b35790505b5090508c6001600160a01b031663cdd3f2988c6000815181106110f3576110f3612221565b60200260200101516040518263ffffffff1660e01b815260040161111991815260200190565b600060405180830381865afa158015611136573d6000803e3d6000fd5b505050506040513d6000823e601f3d908101601f1916820160405261115e919081019061236e565b8160008151811061117157611171612221565b602002602001018190525060005b61118a60018e612476565b811015611650578181815181106111a3576111a3612221565b6020026020010151945084608001516001600160a01b03166394ed03f986606001518760a001518860c001516040518463ffffffff1660e01b81526004016111fe939291909283526020830191909152604082015260600190565b602060405180830381865afa15801561121b573d6000803e3d6000fd5b505050506040513d601f19601f8201168201806040525081019061123f9190612284565b925061271082828151811061125657611256612221565b602002602001015160c001518461126d919061243d565b6112779190612454565b9750612710611286878a61243d565b6112909190612454565b96508361129e60018f612476565b815181106112ae576112ae612221565b602002602001015188846112c29190612476565b1180156113005750866112d58985612476565b6112df919061220e565b8282815181106112f1576112f1612221565b60200260200101516040015110155b1561163e578b818151811061131757611317612221565b60200260200101518c60018f61132d9190612476565b8151811061133d5761133d612221565b60209081029190910101526113528884612476565b8460018f6113609190612476565b8151811061137057611370612221565b602002602001018181525050848260018f61138b9190612476565b8151811061139b5761139b612221565b6020908102919091010152866113b18985612476565b6113bb919061220e565b8260018f6113c99190612476565b815181106113d9576113d9612221565b60200260200101516040018181516113f19190612476565b91508181525050828260018f6114079190612476565b8151811061141757611417612221565b602090810291909101015160600152600061143360018f612476565b90505b801561163c5784611448600183612476565b8151811061145857611458612221565b602002602001015185828151811061147257611472612221565b602002602001015111156116255760008d828151811061149457611494612221565b602002602001015190508d6001836114ac9190612476565b815181106114bc576114bc612221565b60200260200101518e83815181106114d6576114d6612221565b6020908102919091010152808e6114ee600185612476565b815181106114fe576114fe612221565b602002602001018181525050600086838151811061151e5761151e612221565b60200260200101519050866001846115369190612476565b8151811061154657611546612221565b602002602001015187848151811061156057611560612221565b60209081029190910101528087611578600186612476565b8151811061158857611588612221565b60200260200101818152505060008584815181106115a8576115a8612221565b60200260200101519050856001856115c09190612476565b815181106115d0576115d0612221565b60200260200101518685815181106115ea576115ea612221565b60209081029190910101528086611602600187612476565b8151811061161257611612612221565b602002602001018190525050505061162a565b61163c565b8061163481612489565b915050611436565b505b8061164881612237565b91505061117f565b506000805b8d8110156116a857600085828151811061167157611671612221565b60200260200101511115611691578161168981612237565b925050611696565b6116a8565b806116a081612237565b915050611655565b506000816001600160401b038111156116c3576116c36121e2565b6040519080825280602002602001820160405280156116ec578160200160208202803683370190505b50905060005b82811015611743578d818151811061170c5761170c612221565b602002602001015182828151811061172657611726612221565b60209081029190910101528061173b81612237565b9150506116f2565b509b5050505050505050505050505b92915050565b60008382146117a25760405162461bcd60e51b81526020600482015260166024820152750a8a09074a6a6749c8ca8be98a0be9a92a69a82a886960531b60448201526064016100d8565b836117df5760405162461bcd60e51b815260206004820152600d60248201526c05450483a53533a4e4654535f3609c1b60448201526064016100d8565b6000806000806117ed611ff2565b6000896001600160401b03811115611807576118076121e2565b60405190808252806020026020018201604052801561184057816020015b61182d611ff2565b8152602001906001900390816118255790505b50905060008a6001600160401b0381111561185d5761185d6121e2565b604051908082528060200260200182016040528015611886578160200160208202803683370190505b50905060005b89811015611b845760006118a182600161220e565b90505b8c811015611931578d8d828181106118be576118be612221565b905060200201358e8e848181106118d7576118d7612221565b905060200201350361191f5760405162461bcd60e51b815260206004820152601160248201527015140e908e949154115055115117d39195607a1b60448201526064016100d8565b8061192981612237565b9150506118a4565b508a8a8281811061194457611944612221565b90506020020135975060006001600160a01b03168e6001600160a01b0316636352211e8a6040518263ffffffff1660e01b815260040161198691815260200190565b602060405180830381865afa1580156119a3573d6000803e3d6000fd5b505050506040513d601f19601f820116820180604052508101906119c79190612260565b6001600160a01b031603611a135760405162461bcd60e51b81526020600482015260136024820152721514120e94d4ce931417d393d517d193d55391606a1b60448201526064016100d8565b6040516319ba7e5360e31b8152600481018990526001600160a01b038f169063cdd3f29890602401600060405180830381865afa158015611a58573d6000803e3d6000fd5b505050506040513d6000823e601f3d908101601f19168201604052611a80919081019061236e565b9350600484516004811115611a9757611a97612427565b03611ad65760405162461bcd60e51b815260206004820152600f60248201526e054503a533a49535f53454c4c5f4c5608c1b60448201526064016100d8565b60005b87811015611b1c5788838281518110611af457611af4612221565b602002602001015103611b0a5760019550611b1c565b80611b1481612237565b915050611ad9565b5084611b725787828881518110611b3557611b35612221565b60200260200101818152505083838881518110611b5457611b54612221565b60200260200101819052508680611b6a90612237565b975050600094505b80611b7c81612237565b91505061188c565b5060008080805b8e811015611fde578d8d82818110611ba557611ba5612221565b905060200201359a5060005b8a811015611bf3578b868281518110611bcc57611bcc612221565b602002602001015103611be157809950611bf3565b80611beb81612237565b915050611bb1565b50612710868a81518110611c0957611c09612221565b602002602001015160c00151878b81518110611c2757611c27612221565b602002602001015160600151611c3d919061243d565b611c479190612454565b935061271060008054906101000a90046001600160a01b03166001600160a01b031663ca1470ea6040518163ffffffff1660e01b8152600401602060405180830381865afa158015611c9d573d6000803e3d6000fd5b505050506040513d601f19601f82011682018060405250810190611cc19190612260565b6001600160a01b031663706d9f786040518163ffffffff1660e01b8152600401602060405180830381865afa158015611cfe573d6000803e3d6000fd5b505050506040513d601f19601f82011682018060405250810190611d229190612284565b611d2c908661243d565b611d369190612454565b91508184878b81518110611d4c57611d4c612221565b602002602001015160600151611d629190612476565b611d6c919061220e565b868a81518110611d7e57611d7e612221565b6020026020010151604001511015611dd85760405162461bcd60e51b815260206004820152601e60248201527f54503a533a494e53554646494349454e545f544f4b454e535f494e5f4c50000060448201526064016100d8565b8184878d81518110611dec57611dec612221565b602002602001015160600151611e029190612476565b611e0c919061220e565b868a81518110611e1e57611e1e612221565b6020026020010151604001818151611e369190612476565b9052508551849087908b908110611e4f57611e4f612221565b602002602001015160600151611e659190612476565b611e6f908d61220e565b9b50611e7b848461220e565b92506001868a81518110611e9157611e91612221565b6020026020010151600001516004811115611eae57611eae612427565b14611fcc57858981518110611ec557611ec5612221565b6020026020010151608001516001600160a01b03166394ed03f9878b81518110611ef157611ef1612221565b602002602001015160600151888c81518110611f0f57611f0f612221565b602002602001015160a00151898d81518110611f2d57611f2d612221565b602002602001015160c001516040518463ffffffff1660e01b8152600401611f68939291909283526020830191909152604082015260600190565b602060405180830381865afa158015611f85573d6000803e3d6000fd5b505050506040513d601f19601f82011682018060405250810190611fa99190612284565b868a81518110611fbb57611fbb612221565b602002602001015160600181815250505b80611fd681612237565b915050611b8b565b505050505050505050505095945050505050565b6040805160e08101909152806000815260200160608152602001600081526020016000815260200160006001600160a01b0316815260200160008152602001600081525090565b6001600160a01b038116811461204e57600080fd5b50565b60008083601f84011261206357600080fd5b5081356001600160401b0381111561207a57600080fd5b6020830191508360208260051b850101111561209557600080fd5b9250929050565b6000806000604084860312156120b157600080fd5b83356120bc81612039565b925060208401356001600160401b038111156120d757600080fd5b6120e386828701612051565b9497909650939450505050565b6000806040838503121561210357600080fd5b823561210e81612039565b946020939093013593505050565b6020808252825182820181905260009190848201906040850190845b8181101561215457835183529284019291840191600101612138565b50909695505050505050565b60008060008060006060868803121561217857600080fd5b853561218381612039565b945060208601356001600160401b038082111561219f57600080fd5b6121ab89838a01612051565b909650945060408801359150808211156121c457600080fd5b506121d188828901612051565b969995985093965092949392505050565b634e487b7160e01b600052604160045260246000fd5b634e487b7160e01b600052601160045260246000fd5b80820180821115611752576117526121f8565b634e487b7160e01b600052603260045260246000fd5b600060018201612249576122496121f8565b5060010190565b805161225b81612039565b919050565b60006020828403121561227257600080fd5b815161227d81612039565b9392505050565b60006020828403121561229657600080fd5b5051919050565b60405160e081016001600160401b03811182821017156122bf576122bf6121e2565b60405290565b80516005811061225b57600080fd5b600082601f8301126122e557600080fd5b815160206001600160401b0380831115612301576123016121e2565b8260051b604051601f19603f83011681018181108482111715612326576123266121e2565b60405293845285810183019383810192508785111561234457600080fd5b83870191505b848210156123635781518352918301919083019061234a565b979650505050505050565b60006020828403121561238057600080fd5b81516001600160401b038082111561239757600080fd5b9083019060e082860312156123ab57600080fd5b6123b361229d565b6123bc836122c5565b81526020830151828111156123d057600080fd5b6123dc878286016122d4565b602083015250604083015160408201526060830151606082015261240260808401612250565b608082015260a083015160a082015260c083015160c082015280935050505092915050565b634e487b7160e01b600052602160045260246000fd5b8082028115828204841417611752576117526121f8565b60008261247157634e487b7160e01b600052601260045260246000fd5b500490565b81810381811115611752576117526121f8565b600081612498576124986121f8565b50600019019056fea2646970667358221220751faeb87ee92db5798f93bcfd79051971411adc3a233f8bfa0589f1322e899f64736f6c63430008130033",
  "linkReferences": {},
  "deployedLinkReferences": {}
}