{
  "_format": "hh-sol-artifact-1",
  "contractName": "TradingPoolFactory",
  "sourceName": "contracts/protocol/Trading/TradingPoolFactory.sol",
  "abi": [
    {
      "anonymous": false,
      "inputs": [
        {
          "indexed": true,
          "internalType": "address",
          "name": "pool",
          "type": "address"
        },
        {
          "indexed": true,
          "internalType": "address",
          "name": "nft",
          "type": "address"
        },
        {
          "indexed": true,
          "internalType": "address",
          "name": "token",
          "type": "address"
        }
      ],
      "name": "CreateTradingPool",
      "type": "event"
    },
    {
      "anonymous": false,
      "inputs": [
        {
          "indexed": false,
          "internalType": "uint8",
          "name": "version",
          "type": "uint8"
        }
      ],
      "name": "Initialized",
      "type": "event"
    },
    {
      "anonymous": false,
      "inputs": [
        {
          "indexed": true,
          "internalType": "address",
          "name": "previousOwner",
          "type": "address"
        },
        {
          "indexed": true,
          "internalType": "address",
          "name": "newOwner",
          "type": "address"
        }
      ],
      "name": "OwnershipTransferred",
      "type": "event"
    },
    {
      "inputs": [
        {
          "internalType": "address",
          "name": "nft",
          "type": "address"
        },
        {
          "internalType": "address",
          "name": "token",
          "type": "address"
        }
      ],
      "name": "createTradingPool",
      "outputs": [],
      "stateMutability": "nonpayable",
      "type": "function"
    },
    {
      "inputs": [],
      "name": "getDefaultSwapFee",
      "outputs": [
        {
          "internalType": "uint256",
          "name": "",
          "type": "uint256"
        }
      ],
      "stateMutability": "view",
      "type": "function"
    },
    {
      "inputs": [],
      "name": "getProtocolFee",
      "outputs": [
        {
          "internalType": "uint256",
          "name": "",
          "type": "uint256"
        }
      ],
      "stateMutability": "view",
      "type": "function"
    },
    {
      "inputs": [
        {
          "internalType": "address",
          "name": "nft",
          "type": "address"
        },
        {
          "internalType": "address",
          "name": "token",
          "type": "address"
        }
      ],
      "name": "getTradingPool",
      "outputs": [
        {
          "internalType": "address",
          "name": "",
          "type": "address"
        }
      ],
      "stateMutability": "view",
      "type": "function"
    },
    {
      "inputs": [
        {
          "internalType": "contract IAddressesProvider",
          "name": "addressesProvider",
          "type": "address"
        },
        {
          "internalType": "uint256",
          "name": "defaultSwapFee",
          "type": "uint256"
        },
        {
          "internalType": "uint256",
          "name": "protocolFee",
          "type": "uint256"
        }
      ],
      "name": "initialize",
      "outputs": [],
      "stateMutability": "nonpayable",
      "type": "function"
    },
    {
      "inputs": [],
      "name": "owner",
      "outputs": [
        {
          "internalType": "address",
          "name": "",
          "type": "address"
        }
      ],
      "stateMutability": "view",
      "type": "function"
    },
    {
      "inputs": [],
      "name": "renounceOwnership",
      "outputs": [],
      "stateMutability": "nonpayable",
      "type": "function"
    },
    {
      "inputs": [
        {
          "internalType": "uint256",
          "name": "newSwapFee",
          "type": "uint256"
        }
      ],
      "name": "setDefaultSwapFee",
      "outputs": [],
      "stateMutability": "nonpayable",
      "type": "function"
    },
    {
      "inputs": [
        {
          "internalType": "uint256",
          "name": "newProtocolFee",
          "type": "uint256"
        }
      ],
      "name": "setProtocolFee",
      "outputs": [],
      "stateMutability": "nonpayable",
      "type": "function"
    },
    {
      "inputs": [
        {
          "internalType": "address",
          "name": "newOwner",
          "type": "address"
        }
      ],
      "name": "transferOwnership",
      "outputs": [],
      "stateMutability": "nonpayable",
      "type": "function"
    }
  ],
  "bytecode": "0x6080806040523461001657614deb908161001c8239f35b600080fdfe6080604052600436101562000014575b600080fd5b6000803560e01c908163183c40ac14620000fb57508063334dc4f314620000f0578063715018a614620000e5578063787dce3d14620000da5780637a1ac61e14620000cf5780638da5cb5b14620000c4578063a5a4103114620000b9578063de15113414620000ae578063f2fde38b14620000a35763fb44a156146200009957600080fd5b6200000f62000841565b506200000f620007a4565b506200000f6200036e565b506200000f62000320565b506200000f620002f4565b506200000f620001e9565b506200000f620001b1565b506200000f6200014e565b506200000f62000128565b346200011957806003193601126200011957609a5460805260206080f35b80fd5b60009103126200000f57565b50346200000f5760203660031901126200000f57620001466200088c565b600435609a55005b50346200000f5760008060031936011262000119576200016d6200088c565b603380546001600160a01b0319811690915581906001600160a01b03167f8be0079c531659141344cd1fd0a4f28419497f9722a3daafe3b4186f6b6457e08280a380f35b50346200000f5760203660031901126200000f57620001cf6200088c565b600435609955005b6001600160a01b038116036200000f57565b50346200000f5760603660031901126200000f576004356200020b81620001d7565b62000260600054916200023860ff8460081c161580948195620002e5575b8115620002c2575b506200092e565b826200024c600160ff196000541617600055565b620002a7575b604435906024359062000992565b6200026757005b6200027861ff001960005416600055565b604051600181527f7f26b83ff96e1f2b6a682f133852f6798a09c465da95921460cefb384740249890602090a1005b620002bc61010061ff00196000541617600055565b62000252565b303b15915081620002d6575b503862000231565b6001915060ff161438620002ce565b600160ff821610915062000229565b50346200000f5760003660031901126200000f576033546040516001600160a01b039091168152602090f35b50346200000f5760003660031901126200000f576020609954604051908152f35b60409060031901126200000f576004356200035c81620001d7565b906024356200036b81620001d7565b90565b50346200000f57620003803662000341565b620003956200038f8362000d94565b62000a44565b6001600160a01b038281166000908152609860205260409020620003ed9190620003e590620003d89085905b9060018060a01b0316600052602052604060002090565b546001600160a01b031690565b161562000aa5565b6097546001600160a01b03166033546001600160a01b0316609a546040516395d89b4160e01b81526200052a91906200047e906000816004816001600160a01b038b165afa90811562000794575b60009162000775575b506040516395d89b4160e01b8152906000826004816001600160a01b038d165afa91821562000765575b60009262000744575b5062000c22565b6040516395d89b4160e01b8152620004ee906000816004816001600160a01b038c165afa90811562000734575b60009162000715575b506040516395d89b4160e01b8152906000826004816001600160a01b038e165afa91821562000705575b600092620006db575b5062000c99565b9187604051968796613ed3918289019289841067ffffffffffffffff851117620006cb575b62000ee38a396001600160a01b038b169262000d23565b03906000f08015620006bb575b6001600160a01b038381166000908152609860205260409020911691906200058790839062000568908490620003c1565b80546001600160a01b0319166001600160a01b03909216919091179055565b6097546004906020906001600160a01b031660405163725c9c4960e01b815292839182905afa908115620006ab575b60009162000676575b506001600160a01b0316803b156200000f5760405163ea92282760e01b81526001600160a01b03838116600483015284166024820152906000908290604490829084905af1801562000666575b62000648575b506001600160a01b039081169216907fa1311e5e3c1c2207844ec9211cb2439ea0bce2a76c6ea09d9343f0d0eaddd9f6600080a4005b80620006586200065f9262000b09565b806200011c565b3862000612565b6200067062000c15565b6200060c565b6200069c915060203d8111620006a3575b62000693818362000b4a565b81019062000d7c565b38620005bf565b503d62000687565b620006b562000c15565b620005b6565b620006c562000c15565b62000537565b620006d562000af2565b62000513565b620006fd9192503d806000833e620006f4818362000b4a565b81019062000b92565b9038620004e7565b6200070f62000c15565b620004de565b6200072d91503d806000833e620006f4818362000b4a565b38620004b4565b6200073e62000c15565b620004ab565b6200075d9192503d806000833e620006f4818362000b4a565b903862000477565b6200076f62000c15565b6200046e565b6200078d91503d806000833e620006f4818362000b4a565b3862000444565b6200079e62000c15565b6200043b565b50346200000f5760203660031901126200000f57600435620007c681620001d7565b620007d06200088c565b6001600160a01b03811615620007ed57620007eb90620008e5565b005b60405162461bcd60e51b815260206004820152602660248201527f4f776e61626c653a206e6577206f776e657220697320746865207a65726f206160448201526564647265737360d01b6064820152608490fd5b50346200000f57602062000882620008593662000341565b6001600160a01b0391821660009081526098855260408082209284168252602092909252209091565b5416604051908152f35b6033546001600160a01b03163303620008a157565b606460405162461bcd60e51b815260206004820152602060248201527f4f776e61626c653a2063616c6c6572206973206e6f7420746865206f776e65726044820152fd5b603380546001600160a01b039283166001600160a01b0319821681179092559091167f8be0079c531659141344cd1fd0a4f28419497f9722a3daafe3b4186f6b6457e0600080a3565b156200093657565b60405162461bcd60e51b815260206004820152602e60248201527f496e697469616c697a61626c653a20636f6e747261637420697320616c72656160448201526d191e481a5b9a5d1a585b1a5e995960921b6064820152608490fd5b620009b060ff60005460081c16620009aa81620009e3565b620009e3565b620009bb33620008e5565b60018060a01b03166bffffffffffffffffffffffff60a01b6097541617609755609a55609955565b15620009eb57565b60405162461bcd60e51b815260206004820152602b60248201527f496e697469616c697a61626c653a20636f6e7472616374206973206e6f74206960448201526a6e697469616c697a696e6760a81b6064820152608490fd5b1562000a4c57565b60405162461bcd60e51b815260206004820152602b60248201527f436f6c6c656374696f6e2061646472657373206973206e6f742045524337323160448201526a1031b7b6b83634b0b73a1760a91b6064820152608490fd5b1562000aad57565b60405162461bcd60e51b815260206004820152601b60248201527f54726164696e6720506f6f6c20616c72656164792065786973747300000000006044820152606490fd5b50634e487b7160e01b600052604160045260246000fd5b67ffffffffffffffff811162000b1e57604052565b62000b2862000af2565b604052565b6060810190811067ffffffffffffffff82111762000b1e57604052565b90601f8019910116810190811067ffffffffffffffff82111762000b1e57604052565b60005b83811062000b815750506000910152565b818101518382015260200162000b70565b6020818303126200000f57805167ffffffffffffffff918282116200000f57019082601f830112156200000f57815190811162000c05575b6040519262000be4601f8301601f19166020018562000b4a565b818452602082840101116200000f576200036b916020808501910162000b6d565b62000c0f62000af2565b62000bca565b506040513d6000823e3d90fd5b603662000c97919392936040519485917203632a7232a102a3930b234b733902837b7b61606d1b602084015262000c6481518092602060338701910162000b6d565b82016201016960ed1b603382015262000c87825180936020878501910162000b6d565b0103601681018552018362000b4a565b565b602462000c9791939293604051948591621b195560ea1b602084015262000ccb81518092602060238701910162000b6d565b8201602d60f81b602382015262000cec825180936020878501910162000b6d565b0103600481018552018362000b4a565b9060209162000d178151809281855285808601910162000b6d565b601f01601f1916010190565b6001600160a01b0391821681529181166020830152918216604082015291166060820152608081019190915260e060a082018190526200036b93919262000d6d9184019062000cfc565b9160c081840391015262000cfc565b908160209103126200000f57516200036b81620001d7565b6040519060208083018160006301ffc9a760e01b958684528660248201526024815262000dc18162000b2d565b51617530938685fa933d600051908662000e74575b508562000e69575b508462000dff575b5050508162000df3575090565b6200036b915062000e80565b83945090600091839460405185810192835263ffffffff60e01b60248201526024815262000e2d8162000b2d565b5192fa60005190913d8362000e5d575b50508162000e52575b50159038808062000de6565b905015153862000e46565b10159150388062000e3d565b151594503862000dde565b84111595503862000dd6565b6000602091604051838101906301ffc9a760e01b82526380ac58cd60e01b60248201526024815262000eb28162000b2d565b5191617530fa6000513d8262000ed5575b508162000ece575090565b9050151590565b6020111591503862000ec356fe60808060405234620002c45762003ed38038038091620000208285620004ee565b833981019060e081830312620002c45780516001600160a01b0381169190829003620002c457620000546020820162000512565b6040820151939092906001600160a01b0385168503620002c4576200007c6060840162000512565b9060808401519360a081015160018060401b038111620002c45782620000a491830162000527565b60c08201519092906001600160401b038111620002c457620000c7920162000527565b815190916001600160401b038211620003e95760005490600182811c92168015620004e3575b6020831014620003c85781601f84931162000483575b50602090601f83116001146200040b57600092620003ff575b50508160011b916000199060031b1c1916176000555b8051906001600160401b038211620003e95760015490600182811c92168015620003de575b6020831014620003c85781601f84931162000364575b50602090601f8311600114620002ea57600092620002de575b50508160011b916000199060031b1c1916176001555b620001a7336200059e565b60405163650a387560e11b8152602081600481865afa908115620002d2576000916200028b575b506001600160a01b031633036200023157620002219460018060a01b03199283600b541617600b5560018060a01b031682600c541617600c5560018060a01b031690600d541617600d55600e556200059e565b6040516138ab9081620005e88239f35b60405162461bcd60e51b815260206004820152602c60248201527f54726164696e6720506f6f6c206d75737420626520637265617465642074687260448201526b6f75676820466163746f727960a01b6064820152608490fd5b90506020813d602011620002c9575b81620002a960209383620004ee565b81010312620002c457620002bd9062000512565b38620001ce565b600080fd5b3d91506200029a565b6040513d6000823e3d90fd5b01519050388062000186565b6001600090815260008051602062003eb38339815191529350601f198516905b8181106200034b575090846001959493921062000331575b505050811b016001556200019c565b015160001960f88460031b161c1916905538808062000322565b929360206001819287860151815501950193016200030a565b600160005290915060008051602062003eb3833981519152601f840160051c81019160208510620003bd575b90601f859493920160051c01905b818110620003ad57506200016d565b600081558493506001016200039e565b909150819062000390565b634e487b7160e01b600052602260045260246000fd5b91607f169162000157565b634e487b7160e01b600052604160045260246000fd5b0151905038806200011c565b600080805260008051602062003e938339815191529350601f198516905b8181106200046a575090846001959493921062000450575b505050811b0160005562000132565b015160001960f88460031b161c1916905538808062000441565b9293602060018192878601518155019501930162000429565b6000805290915060008051602062003e93833981519152601f840160051c810160208510620004db575b90849392915b601f830160051c82018110620004cb57505062000103565b60008155859450600101620004b3565b5080620004ad565b91607f1691620000ed565b601f909101601f19168101906001600160401b03821190821017620003e957604052565b51906001600160a01b0382168203620002c457565b919080601f84011215620002c4578251906001600160401b038211620003e9576040519160209162000563601f8301601f1916840185620004ee565b818452828287010111620002c45760005b8181106200058a57508260009394955001015290565b858101830151848201840152820162000574565b600a80546001600160a01b039283166001600160a01b0319821681179092559091167f8be0079c531659141344cd1fd0a4f28419497f9722a3daafe3b4186f6b6457e0600080a356fe60806040526004361015610013575b600080fd5b60003560e01c806301ffc9a71461026b57806306fdde0314610262578063081812fc14610259578063095ea7b314610250578063150b7a021461024757806318160ddd1461023e57806321df0da71461023557806323b872dd1461022c5780632f745c591461022357806334e199071461021a57806342842e0e1461021157806349591b51146102085780634f6ccce7146101ff57806350c01fad146101f65780635460d849146101ed5780636352211e146101e457806370a08231146101db578063715018a6146101d257806388a6360e146101c95780638da5cb5b146101c057806395d89b41146101b75780639c8f9f23146101ae578063a22cb465146101a5578063b31f0d621461019c578063b88d4fde14610193578063c87b56dd1461018a578063cdd3f29814610181578063d4cadf6814610178578063e985e9c51461016f5763f2fde38b1461016757600080fd5b61000e612117565b5061000e6120ae565b5061000e61208f565b5061000e611fd2565b5061000e611ee6565b5061000e611ecb565b5061000e611849565b5061000e611758565b5061000e6115a8565b5061000e6114e6565b5061000e6114bc565b5061000e611492565b5061000e611433565b5061000e611403565b5061000e6113e4565b5061000e6113b7565b5061000e611132565b5061000e611086565b5061000e610946565b5061000e6108a9565b5061000e610887565b5061000e6107cf565b5061000e6107a5565b5061000e61074f565b5061000e610730565b5061000e61070c565b5061000e6104bb565b5061000e610479565b5061000e61036e565b5061000e610286565b6001600160e01b031981160361000e57565b503461000e57602036600319011261000e5760206004356102a681610274565b63ffffffff60e01b1663780e9d6360e01b81149081156102cc575b506040519015158152f35b6380ac58cd60e01b8114915081156102fe575b81156102ed575b50386102c1565b6301ffc9a760e01b149050386102e6565b635b5e139f60e01b811491506102df565b600091031261000e57565b919082519283825260005b848110610346575050826000602080949584010152601f8019910116010190565b602081830181015184830182015201610325565b90602061036b92818152019061031a565b90565b503461000e5760008060031936011261047657604051908080549060019180831c9280821692831561046c575b602092838610851461045857858852602088019490811561043757506001146103df575b6103db876103cf8189038261061e565b6040519182918261035a565b0390f35b6000805294509192917f290decd9548b62a8d60345a988386fc84ba6bc95484008f6362f93160ef3e5635b83861061042657505050910190506103cf826103db38806103bf565b80548587015294820194810161040a565b60ff191685525050505090151560051b0190506103cf826103db38806103bf565b634e487b7160e01b82526022600452602482fd5b93607f169361039b565b80fd5b503461000e57602036600319011261000e576020610498600435612395565b6040516001600160a01b039091168152f35b6001600160a01b0381160361000e57565b503461000e57604036600319011261000e576004356104d9816104aa565b6024356104e581612300565b916001600160a01b0380841690821681146105475761051793610512913314908115610519575b50612323565b612712565b005b6001600160a01b0316600090815260056020908152604080832033845290915290205460ff1690503861050c565b60405162461bcd60e51b815260206004820152602160248201527f4552433732313a20617070726f76616c20746f2063757272656e74206f776e656044820152603960f91b6064820152608490fd5b50634e487b7160e01b600052604160045260246000fd5b6001600160401b0381116105c057604052565b6105c8610596565b604052565b60a081019081106001600160401b038211176105c057604052565b604081019081106001600160401b038211176105c057604052565b602081019081106001600160401b038211176105c057604052565b90601f801991011681019081106001600160401b038211176105c057604052565b6040519061064c826105e8565b565b6040519061064c826105cd565b6020906001600160401b038111610678575b601f01601f19160190565b610680610596565b61066d565b90608060031983011261000e5760043561069e816104aa565b916024356106ab816104aa565b91604435916064356001600160401b03811161000e578160238201121561000e578060040135906106db8261065b565b926106e9604051948561061e565b8284526024838301011161000e5781600092602460209301838601378301015290565b503461000e5761071b36610685565b505050506020604051630a85bd0160e11b8152f35b503461000e57600036600319011261000e576020600854604051908152f35b503461000e57600036600319011261000e57600c546040516001600160a01b039091168152602090f35b606090600319011261000e57600435610791816104aa565b9060243561079e816104aa565b9060443590565b503461000e576105176107b736610779565b916107ca6107c584336124d8565b6123d3565b6125aa565b503461000e57604036600319011261000e576004356107ed816104aa565b602435906107fa8161223d565b82101561082e576001600160a01b031660009081526006602090815260408083209383529281529082902054915191825290f35b60405162461bcd60e51b815260206004820152602b60248201527f455243373231456e756d657261626c653a206f776e657220696e646578206f7560448201526a74206f6620626f756e647360a81b6064820152608490fd5b503461000e57602036600319011261000e576108a16121e5565b600435600e55005b503461000e576105176108bb36610779565b90604051926108c984610603565b60008452612435565b9080601f8301121561000e578135906001600160401b038211610939575b8160051b604051936020936109078584018761061e565b8552838086019282010192831161000e578301905b82821061092a575050505090565b8135815290830190830161091c565b610941610596565b6108f0565b503461000e5760808060031936011261000e57600490813590610968826104aa565b6001600160401b039260243584811161000e5761098890369083016108d2565b9360443590811161000e576109a090369083016108d2565b926109ae855185511461330d565b6109ba85511515613370565b6001600160a01b03338282160361100e575b6000936109d761295e565b50845b8751861015610d4b576109fe6109f0878a612b51565b516109f9613426565b6137c9565b600d54610a2190610a15906001600160a01b031681565b6001600160a01b031690565b95610a2c818a612b51565b5191873b1561000e5760408051632142170760e11b81526001600160a01b038816818a01908152306020820152808301959095528b998995600091839182908490829060600103925af18015610d3e575b610d25575b5083610a8e848c612b51565b5191610aa483600052600f602052604060002090565b610aad9061298a565b93878501908151600e54610ac091612b73565b6127109004600b5488906001600160a01b03166001600160a01b03168c8651809c819363650a387560e11b835260209e8f9b8c9485935afa90811594610b3995610d18575b600092610ce9575b50895163a5a4103160e01b81529384928391165afa908115610cdc575b600091610cbf575b5083612b73565b6127109004928451610b4a91613222565b9e610b5f88600052600f602052604060002090565b91610b6991612b51565b51610b739161345f565b825190610b7f916131d5565b90610b8991613222565b610b9d85600052600f602052604060002090565b60010190815490610bad916131d5565b90558185015190516060909501519151633698f96560e11b8152808c01958652602086019290925290938491908290036040019082906001600160a01b03165afa93841594610c7a93610c7f96610cb2575b600091610c85575b5089610c1d84600052600f602052604060002090565b0155610c3c610c3683600052600f602052604060002090565b546131c6565b90610c4561063f565b928352820152610c69610c58848d612b51565b516000526010602052604060002090565b906020600191805184550151910155565b612b35565b946109da565b610ca59150823d8411610cab575b610c9d818361061e565b8101906131a2565b38610c07565b503d610c93565b610cba6127e7565b610bff565b610cd69150883d8a11610cab57610c9d818361061e565b38610b32565b610ce46127e7565b610b2a565b610d0a919250833d8511610d11575b610d02818361061e565b8101906131b1565b9038610b0d565b503d610cf8565b610d206127e7565b610b05565b80610d32610d38926105ad565b8061030f565b38610a82565b610d466127e7565b610a7d565b82859189610d70610d69610d61600e5485612b73565b612710900490565b80936131d5565b92610d7f60643585101561348f565b600c54610d9890859033906001600160a01b031661302c565b600c546001600160a01b0316600b54909390610dbc906001600160a01b0316610a15565b610e5260409586938585519163c891317360e01b958684528c602098828a87848183975afa968715611001575b600097610fcc575b5091808285610d619795610e4c999795519485809263650a387560e11b82525afa928315610fbf575b600093610fa0575b505163a5a4103160e01b81529485928391165afa918215610f93575b600092610f74575b50612b73565b9161302c565b600b548290610e69906001600160a01b0316610a15565b918887518094819382525afa918215610f67575b600092610f4a575b5050600c54911690610e9f906001600160a01b0316610a15565b94813b1561000e5783516354b94c2f60e11b81526001600160a01b039096169086019081526103db959160009183919082908490829060200103925af18015610f3d575b610f2a575b507feb3c528adebc70d317bef09706905761642981ebf9def9aafdc40f404e49346a825180610f19863395836132f1565b0390a2519081529081906020820190565b80610d32610f37926105ad565b84610ee8565b610f456127e7565b610ee3565b610f609250803d10610d1157610d02818361061e565b8680610e85565b610f6f6127e7565b610e7d565b610f8c919250893d8b11610cab57610c9d818361061e565b908e610e46565b610f9b6127e7565b610e3e565b610fb8919350843d8611610d1157610d02818361061e565b9138610e22565b610fc76127e7565b610e1a565b8391975092849283610ff2610d619896610e4c9a983d8411610d1157610d02818361061e565b99939597505092949650610df1565b6110096127e7565b610de9565b61105681846020611029610a15600b5460018060a01b031690565b60405163725c9c4960e01b815292839182905afa908115611079575b60009161105b575b501633146133bc565b6109cc565b611073915060203d8111610d1157610d02818361061e565b3861104d565b6110816127e7565b611045565b503461000e57602036600319011261000e576004356008548110156110d85760086000527ff3f7a9fe364faab93b216da50a3214154f22a0a2b415b23a84c8169e8b636ee30154604051908152602090f35b60405162461bcd60e51b815260206004820152602c60248201527f455243373231456e756d657261626c653a20676c6f62616c20696e646578206f60448201526b7574206f6620626f756e647360a01b6064820152608490fd5b503461000e5760a036600319011261000e57600480356001600160401b03811161000e5761116390369083016108d2565b9060443590602435611174836104aa565b6084359260643582158015906113ad575b61118e90612a14565b611199851515612a59565b6040918251936301ffc9a760e01b85526111ee6020958681806111ca8b8201906020820191631ac4ec4560e31b9052565b03816001600160a01b0388165afa9081156113a0575b600091611373575b50612ac6565b60005b88518110156112b357600d5461121190610a15906001600160a01b031681565b9061121c818b612b51565b51823b1561000e578651632142170760e11b815233818b01908152306020820152604081019290925261128e939091600091839182908490829060600103925af180156112a6575b611293575b50610c7a8a610c69610c58846011549361128161063f565b948552818d860152612b51565b6111f1565b80610d326112a0926105ad565b38611269565b6112ae6127e7565b611264565b507f3b67bb924a0e01cd52df231e47e53b28799a0f34d0ea653d1778cf3969492c1e61136e949289926113668a6113486105179a6113038530336112fe600c5460018060a01b031690565b612cb5565b8461130c61064e565b898152918201526001600160a01b03861689820152896060820152826080820152611343601154600052600f602052604060002090565b612bdf565b61135460115433612dd3565b60115497889751948594339886612c7c565b0390a3612b35565b601155565b6113939150873d8911611399575b61138b818361061e565b810190612ab1565b386111e8565b503d611381565b6113a86127e7565b6111e0565b5085511515611185565b503461000e57602036600319011261000e5760043560005260106020526020604060002054604051908152f35b503461000e57602036600319011261000e576020610498600435612300565b503461000e57602036600319011261000e57602061142b600435611426816104aa565b61223d565b604051908152f35b503461000e576000806003193601126104765761144e6121e5565b600a80546001600160a01b0319811690915581906001600160a01b03167f8be0079c531659141344cd1fd0a4f28419497f9722a3daafe3b4186f6b6457e08280a380f35b503461000e57600036600319011261000e57600d546040516001600160a01b039091168152602090f35b503461000e57600036600319011261000e57600a546040516001600160a01b039091168152602090f35b503461000e57600080600319360112610476576040519080600190815480831c9280821692831561159e575b60209283861085146104585785885260208801949081156104375750600114611545576103db876103cf8189038261061e565b600160005294509192917fb10e2d527612073b26eecdfd717e6a320cf44b4afac2b0732d9fcbe2b7fa0cf65b83861061158d57505050910190506103cf826103db38806103bf565b805485870152948201948101611571565b93607f1693611512565b503461000e57602036600319011261000e5760048035906115c882613088565b60005b6115df83600052600f602052604060002090565b548110156116d857600d546115fe90610a15906001600160a01b031681565b9061162961161f8261161a87600052600f602052604060002090565b612938565b90549060031b1c90565b823b1561000e5760408051632142170760e11b815230868201908152336020820152918201929092526116b39360009183919082908490829060600103925af180156116cb575b6116b8575b50610c7a6116a761169761161f8461161a89600052600f602052604060002090565b6000526010602052604060002090565b60016000918281550155565b6115cb565b80610d326116c5926105ad565b38611675565b6116d36127e7565b611670565b600c54839061170a906001600160a01b0316600161170084600052600f602052604060002090565b015490339061302c565b61172661172182600052600f602052604060002090565b612fdf565b337fdfdd120ded9b7afc0c23dd5310e93aaa3e1c3b9f75af9b805fab3030842439f2600080a3005b8015150361000e57565b503461000e57604036600319011261000e57600435611776816104aa565b6024356117828161174e565b6001600160a01b0382169133831461180457816117c16117d29233600052600560205260406000209060018060a01b0316600052602052604060002090565b9060ff801983541691151516179055565b604051901515815233907f17307eab39ab6107e8899845ad3d59bd9653f200f220920489ca2b5937696c3190602090a3005b60405162461bcd60e51b815260206004820152601960248201527f4552433732313a20617070726f766520746f2063616c6c6572000000000000006044820152606490fd5b503461000e5760608060031936011261000e57600480359161186a836104aa565b6024356001600160401b03811161000e5761188890369084016108d2565b9160009261189461295e565b506118a181511515613156565b835b8151851015611c5757611ac26118bc610c588785612b51565b54916118da6118d584600052600f602052604060002090565b61298a565b906040938887866118f9610a15610a158389015160018060a01b031690565b6080870151968c01518251635d8b487160e11b815284810198895260208981019290925297909182918991908290819060400103915afa968715611c4a575b600097611c0d575b5082611a9c611ab293896119db610d618686611aa198611abb9c9b61196a610d61600e5489612b73565b600b549098908390611984906001600160a01b0316610a15565b825163650a387560e11b815293849182905afa918215611c00575b600092611be1575b505163a5a4103160e01b815292839182906001600160a01b03165afa918215611bd4575b600092611bb7575b505084612b73565b936119f08a600052600f602052604060002090565b0155611a7a8d611a5f611a3161161f8c611a2b610c36611a1a83600052600f602052604060002090565b92600052600f602052604060002090565b90612938565b91611a468c600052600f602052604060002090565b90611a57610c5860019c8d93612b51565b015490612938565b90919082549060031b600019811b9283911b16911916179055565b611a96611a9189600052600f602052604060002090565b6131e2565b89613222565b6131d5565b93600052600f602052604060002090565b01918254613222565b9055613222565b94611adc611ad3610c588386612b51565b546109f961322f565b611aec6116a7610c588386612b51565b611afd87611af8613254565b613827565b611b13611b0a8285612b51565b516109f9613283565b600d54611b2a90610a15906001600160a01b031681565b611b348285612b51565b5192813b1561000e5751632142170760e11b8152308682019081526001600160a01b038a1660208201526040810194909452611b9193909160009183919082908490829060600103925af18015611baa575b611b97575b50612b35565b936118a3565b80610d32611ba4926105ad565b38611b8b565b611bb26127e7565b611b86565b611bcd9250803d10610cab57610c9d818361061e565b38806119d3565b611bdc6127e7565b6119cb565b611bf9919250833d8511610d1157610d02818361061e565b90386119a7565b611c086127e7565b61199f565b610d61975092611a9c611ab293836119db611c3b611abb9998611aa1973d8511610cab57610c9d818361061e565b9b505093509350509293611940565b611c526127e7565b611938565b611c70611c69610d61600e5484612b73565b8092613222565b91611c7f6044358411156132a5565b600c54611c9a9084906001600160a01b031630903390612cb5565b600c5484906001600160a01b0316600b54909390611cc0906001600160a01b0316610a15565b9060409485518463c891317360e01b9384835260208681858581839b5afa948515611ebe575b600095611e9f575b508a5163650a387560e11b815298899182905afa968715611e92575b600097611e61575b50610d61611d50949392610e4c92888c51809363a5a4103160e01b82528160018060a01b03809e165afa918215610f9357600092610f745750612b73565b600b548290611d67906001600160a01b0316610a15565b918887518094819382525afa918215611e54575b600092611e37575b5050600c54911690611d9d906001600160a01b0316610a15565b94813b1561000e5783516354b94c2f60e11b81526001600160a01b039096169086019081526103db959160009183919082908490829060200103925af18015611e2a575b611e17575b507f0306912acbf130bc61cce94222a394a64e258433196a3d3679a9bbfb8973f773825180610f19863395836132f1565b80610d32611e24926105ad565b84611de6565b611e326127e7565b611de1565b611e4d9250803d10610d1157610d02818361061e565b8680611d83565b611e5c6127e7565b611d7b565b610e4c919750611d50949392611e86610d6192893d8b11610d1157610d02818361061e565b98925092939450611d12565b611e9a6127e7565b611d0a565b611eb7919550823d8411610d1157610d02818361061e565b938d611cee565b611ec66127e7565b611ce6565b503461000e57610517611edd36610685565b92919091612435565b503461000e57602036600319011261000e57600435600090815260026020526040902054611f1e906001600160a01b031615156122b4565b6000604051611f2c81610603565b526103db604051611f3c81610603565b6000815260405191829160208352602083019061031a565b90815180825260208080930193019160005b828110611f74575050505090565b835185529381019392810192600101611f66565b6020815260a06080611fa5845183602086015260c0850190611f54565b9360208101516040850152600180841b036040820151166060850152606081015182850152015191015290565b503461000e5760208060031936011261000e57611fed61295e565b50600435600052600f81526040600020906040519061200b826105cd565b6040518082855491828152019085600052836000209060005b81811061207b576103db8760048a8989612040818b038261061e565b845260018201549084015260028101546001600160a01b03166040840152600381015460608401520154608082015260405191829182611f88565b825484529285019260019283019201612024565b503461000e57600036600319011261000e576020600e54604051908152f35b503461000e57604036600319011261000e57602060ff61210b6004356120d3816104aa565b602435906120e0826104aa565b60018060a01b03166000526005845260406000209060018060a01b0316600052602052604060002090565b54166040519015158152f35b503461000e57602036600319011261000e57600435612135816104aa565b61213d6121e5565b6001600160a01b0390811690811561219157600a54826bffffffffffffffffffffffff60a01b821617600a55167f8be0079c531659141344cd1fd0a4f28419497f9722a3daafe3b4186f6b6457e0600080a3005b60405162461bcd60e51b815260206004820152602660248201527f4f776e61626c653a206e6577206f776e657220697320746865207a65726f206160448201526564647265737360d01b6064820152608490fd5b600a546001600160a01b031633036121f957565b606460405162461bcd60e51b815260206004820152602060248201527f4f776e61626c653a2063616c6c6572206973206e6f7420746865206f776e65726044820152fd5b6001600160a01b0316801561225d57600052600360205260406000205490565b60405162461bcd60e51b815260206004820152602960248201527f4552433732313a2061646472657373207a65726f206973206e6f7420612076616044820152683634b21037bbb732b960b91b6064820152608490fd5b156122bb57565b60405162461bcd60e51b815260206004820152601860248201527f4552433732313a20696e76616c696420746f6b656e20494400000000000000006044820152606490fd5b6000908152600260205260409020546001600160a01b031661036b8115156122b4565b1561232a57565b60405162461bcd60e51b815260206004820152603d60248201527f4552433732313a20617070726f76652063616c6c6572206973206e6f7420746f60448201527f6b656e206f776e6572206f7220617070726f76656420666f7220616c6c0000006064820152608490fd5b6000818152600260205260409020546123b8906001600160a01b031615156122b4565b6000908152600460205260409020546001600160a01b031690565b156123da57565b60405162461bcd60e51b815260206004820152602d60248201527f4552433732313a2063616c6c6572206973206e6f7420746f6b656e206f776e6560448201526c1c881bdc88185c1c1c9bdd9959609a1b6064820152608490fd5b9161064c939161245c9361244c6107c584336124d8565b6124578383836125aa565b6128e5565b6124b4565b60809060208152603260208201527f4552433732313a207472616e7366657220746f206e6f6e20455243373231526560408201527131b2b4bb32b91034b6b83632b6b2b73a32b960711b60608201520190565b156124bb57565b60405162461bcd60e51b8152806124d460048201612461565b0390fd5b6001600160a01b03806124ea84612300565b169281831692848414948515612520575b5050831561250a575b50505090565b61251691929350612395565b1614388080612504565b60009081526005602090815260408083206001600160a01b03949094168352929052205460ff16935038806124fb565b1561255757565b60405162461bcd60e51b815260206004820152602560248201527f4552433732313a207472616e736665722066726f6d20696e636f72726563742060448201526437bbb732b960d91b6064820152608490fd5b6125ce906125b784612300565b6001600160a01b0382811693909182168414612550565b83169283156126c157612640826125e9878461269a966134db565b6125ff856125f9610a158a612300565b14612550565b612626612616886000526004602052604060002090565b80546001600160a01b0319169055565b6001600160a01b0316600090815260036020526040902090565b80546000190190556001600160a01b03811660009081526003602052604090206001815401905561267b856000526002602052604060002090565b80546001600160a01b0319166001600160a01b03909216919091179055565b7fddf252ad1be2c89b69c2b068fc378daa952ba7f163c4a11628f55a4df523b3ef600080a4565b60405162461bcd60e51b8152602060048201526024808201527f4552433732313a207472616e7366657220746f20746865207a65726f206164646044820152637265737360e01b6064820152608490fd5b600082815260046020526040902080546001600160a01b0319166001600160a01b0383161790556001600160a01b038061274b84612300565b169116907f8c5be1e5ebec7d5bd14f71427d1e84f3dd0314c0f7b2291e5b200ac8c7c3b925600080a4565b9081602091031261000e575161036b81610274565b61036b939260809260018060a01b03168252600060208301526040820152816060820152019061031a565b6001600160a01b03918216815291166020820152604081019190915260806060820181905261036b9291019061031a565b506040513d6000823e3d90fd5b3d1561281f573d906128058261065b565b91612813604051938461061e565b82523d6000602084013e565b606090565b909190803b156128dd57612856602091600093604051948580948193630a85bd0160e11b998a8452336004850161278b565b03926001600160a01b03165af1600091816128ad575b5061289f576128796127f4565b8051908161289a5760405162461bcd60e51b8152806124d460048201612461565b602001fd5b6001600160e01b0319161490565b6128cf91925060203d81116128d6575b6128c7818361061e565b810190612776565b903861286c565b503d6128bd565b505050600190565b92909190823b1561291857612856926020926000604051809681958294630a85bd0160e11b9a8b855233600486016127b6565b50505050600190565b50634e487b7160e01b600052603260045260246000fd5b8054821015612951575b60005260206000200190600090565b612959612921565b612942565b6040519061296b826105cd565b6000608083606081528260208201528260408201528260608201520152565b90604051612997816105cd565b809260405180825480835260208093019084600052836000209060005b818110612a005750505091816129d160809593600495038261061e565b855260018201549085015260028101546001600160a01b03166040850152600381015460608501520154910152565b8254845292850192600192830192016129b4565b15612a1b57565b60405162461bcd60e51b81526020600482015260166024820152754465706f7369742063616e277420626520656d70747960501b6044820152606490fd5b15612a6057565b60405162461bcd60e51b8152602060048201526024808201527f496e697469616c207072696365206d75737420626520677265617465722074686044820152630616e20360e41b6064820152608490fd5b9081602091031261000e575161036b8161174e565b15612acd57565b60405162461bcd60e51b8152602060048201526024808201527f4375727665206d75737420626520612076616c696420637572766520636f6e746044820152631c9858dd60e21b6064820152608490fd5b50634e487b7160e01b600052601160045260246000fd5b6001906000198114612b45570190565b612b4d612b1e565b0190565b6020918151811015612b66575b60051b010190565b612b6e612921565b612b5e565b81810292918115918404141715612b8657565b61064c612b1e565b600160401b8211612bd2575b805491808255828110612bac57505050565b60009182526020822092830192015b828110612bc757505050565b818155600101612bbb565b612bda610596565b612b9a565b90805180516001600160401b038111612c6f575b612bfd8185612b8e565b6020809201846000528260002060005b838110612c5d5750505050810151600183015560408101516002830180546001600160a01b0319166001600160a01b03909216919091179055600490608090606081015160038501550151910155565b82518282015591840191600101612c0d565b612c77610596565b612bf3565b919594939092612c9660809460a0855260a0850190611f54565b60208401979097526001600160a01b0316604083015260608201520152565b6040516323b872dd60e01b60208201526001600160a01b03928316602482015292909116604483015260648083019390935291815261064c91612cf960848361061e565b604051612d57916001600160a01b0316612d12826105e8565b6000806020958685527f5361666545524332303a206c6f772d6c6576656c2063616c6c206661696c656487860152868151910182855af1612d516127f4565b91612f4e565b80519081612d6457505050565b8280612d74938301019101612ab1565b15612d7c5750565b6084906040519062461bcd60e51b82526004820152602a60248201527f5361666545524332303a204552433230206f7065726174696f6e20646964206e6044820152691bdd081cdd58d8d9595960b21b6064820152fd5b90604051612de081610603565b600081526001600160a01b038316918215612ebe5761064c938161245c94612e26612e2083600052600260205260018060a01b0360406000205416151590565b15612f02565b612e2f82613578565b612e398284613540565b600082815260026020526040902054612e5c906001600160a01b03161515612e20565b6001600160a01b038316600090815260036020526040902060018154019055612e938361267b846000526002602052604060002090565b60007fddf252ad1be2c89b69c2b068fc378daa952ba7f163c4a11628f55a4df523b3ef8180a4612824565b606460405162461bcd60e51b815260206004820152602060248201527f4552433732313a206d696e7420746f20746865207a65726f20616464726573736044820152fd5b15612f0957565b60405162461bcd60e51b815260206004820152601c60248201527f4552433732313a20746f6b656e20616c7265616479206d696e746564000000006044820152606490fd5b91929015612fb05750815115612f62575090565b3b15612f6b5790565b60405162461bcd60e51b815260206004820152601d60248201527f416464726573733a2063616c6c20746f206e6f6e2d636f6e74726163740000006044820152606490fd5b825190915015612fc35750805190602001fd5b60405162461bcd60e51b81529081906124d4906004830161035a565b80549060009182825580613008575b508082600160049301558260028201558260038201550155565b81835260208320908101905b8181106130215750612fee565b838155600101613014565b60405163a9059cbb60e01b60208201526001600160a01b03909216602483015260448083019390935291815261064c91608082016001600160401b0381118382101761307b575b604052612cf9565b613083610596565b613073565b600061309382612300565b6001600160a01b039083818316158414613148576130b19150613578565b6130ba836136b3565b6130c383612300565b6130d7846000526004602052604060002090565b80546001600160a01b03199081169091556001600160a01b03821660009081526003602052604090208419815401905561311b856000526002602052604060002090565b908154169055167fddf252ad1be2c89b69c2b068fc378daa952ba7f163c4a11628f55a4df523b3ef8280a4565b613151916135ec565b6130b1565b1561315d57565b60405162461bcd60e51b815260206004820152601c60248201527f4e65656420746f20627579206174206c65617374206f6e65204e4654000000006044820152606490fd5b9081602091031261000e575190565b9081602091031261000e575161036b816104aa565b600019810191908211612b8657565b91908203918211612b8657565b805490811561320c57600019918201916131fc8383612938565b909182549160031b1b1916905555565b634e487b7160e01b600052603160045260246000fd5b91908201809211612b8657565b6040519061323c826105e8565b600982526804e465420546f204c560bc1b6020830152565b60405190613261826105e8565b601382527229b2b73234b7339027232a103a37903ab9b2b960691b6020830152565b60405190613290826105e8565b600682526513919508125160d21b6020830152565b156132ac57565b60405162461bcd60e51b815260206004820152601f60248201527f507269636520686967686572207468616e206d6178696d756d207072696365006044820152606490fd5b929190613308602091604086526040860190611f54565b930152565b1561331457565b60405162461bcd60e51b815260206004820152602e60248201527f4e46547320616e64204c6971756964697479205061697273206d75737420686160448201526d0ecca40e6c2daca40d8cadccee8d60931b6064820152608490fd5b1561337757565b60405162461bcd60e51b815260206004820152601d60248201527f4e65656420746f2073656c6c206174206c65617374206f6e65204e46540000006044820152606490fd5b156133c357565b60405162461bcd60e51b815260206004820152603560248201527f4f6e6c792053776170526f757465722063616e2073656c6c206f6e20626568616044820152746c66206f6620616e6f74686572206164647265737360581b6064820152608490fd5b60405190613433826105e8565b601a82527f5472616e73666572696e67204e465420257320746f20706f6f6c0000000000006020830152565b90611a5f61064c92805490600160401b821015613482575b600182018155612938565b61348a610596565b613477565b1561349657565b60405162461bcd60e51b815260206004820152601e60248201527f5072696365206c6f776572207468616e206d696e696d756d20707269636500006044820152606490fd5b9091906001600160a01b03808216918261351e57506134f983613578565b83168061350c57505061064c91506136b3565b03613515575050565b61064c91613540565b838286168403613530575b50506134f9565b613539916135ec565b3883613529565b60409061354c8161223d565b9260009160018060a01b0316825260066020528282208483526020528083832055815260076020522055565b60085481600052600960205280604060002055600160401b8110156135df575b60018101806008558110156135d2575b60086000527ff3f7a9fe364faab93b216da50a3214154f22a0a2b415b23a84c8169e8b636ee30155565b6135da612921565b6135a8565b6135e7610596565b613598565b90613651613636926135fd8161223d565b6000198101939084116136a6575b60009481869283526007602052604083205486810361365e575b506000526007602052604060002090565b556001600160a01b0316600090815260066020526040902090565b9082526020526040812055565b6001600160a01b0385168085526006602081815260408088208b8952825280882054600094855292825280842085895282528088208390559183526007905290205538613625565b6136ae612b1e565b61360b565b6008805460001992908381018181116137bc575b613763600093849281845260096020528460408520549110156137af575b8684526137527ff3f7a9fe364faab93b216da50a3214154f22a0a2b415b23a84c8169e8b636ee29586810154908310156137a2575b88865280837ff3f7a9fe364faab93b216da50a3214154f22a0a2b415b23a84c8169e8b636ee301556000526009602052604060002090565b556000526009602052604060002090565b55825493841561378e5784019380851015613781575b838352015555565b613789612921565b613779565b634e487b7160e01b83526031600452602483fd5b6137aa612921565b61371a565b6137b7612921565b6136e5565b6137c4612b1e565b6136c7565b61380c6137f89161064c93604051938492632d839cb360e21b602085015260406024850152606484019061031a565b90604483015203601f19810183528261061e565b600080916020815191016a636f6e736f6c652e6c6f675afa50565b61380c6138569161064c9360405193849263319af33360e01b602085015260406024850152606484019061031a565b6001600160a01b0391909116604483015203601f19810183528261061e56fea2646970667358221220219431bf0316c45945d5e55e3191b3728d0a15ff45fbb9d1a479676af6bfae6664736f6c63430008110033290decd9548b62a8d60345a988386fc84ba6bc95484008f6362f93160ef3e563b10e2d527612073b26eecdfd717e6a320cf44b4afac2b0732d9fcbe2b7fa0cf6a2646970667358221220e9fef782b9a8dc517e72d7b205d170b614ccda26eb87dcadc23335983fa3372364736f6c63430008110033",
  "linkReferences": {},
  "deployedLinkReferences": {}
}