{
  "_format": "hh-sol-artifact-1",
  "contractName": "TradingGauge",
  "sourceName": "contracts/protocol/Gauges/TradingGauge.sol",
  "abi": [
    {
      "inputs": [
        {
          "internalType": "contract IAddressesProvider",
          "name": "addressProvider",
          "type": "address"
        },
        {
          "internalType": "address",
          "name": "lpToken_",
          "type": "address"
        }
      ],
      "stateMutability": "nonpayable",
      "type": "constructor"
    },
    {
      "anonymous": false,
      "inputs": [
        {
          "indexed": true,
          "internalType": "address",
          "name": "user",
          "type": "address"
        },
        {
          "indexed": false,
          "internalType": "uint256",
          "name": "lpId",
          "type": "uint256"
        }
      ],
      "name": "DepositLP",
      "type": "event"
    },
    {
      "anonymous": false,
      "inputs": [
        {
          "indexed": true,
          "internalType": "address",
          "name": "user",
          "type": "address"
        },
        {
          "indexed": false,
          "internalType": "uint256",
          "name": "lpId",
          "type": "uint256"
        }
      ],
      "name": "WithdrawLP",
      "type": "event"
    },
    {
      "inputs": [
        {
          "internalType": "address",
          "name": "user",
          "type": "address"
        }
      ],
      "name": "balanceOf",
      "outputs": [
        {
          "internalType": "uint256",
          "name": "",
          "type": "uint256"
        }
      ],
      "stateMutability": "view",
      "type": "function"
    },
    {
      "inputs": [
        {
          "internalType": "uint256",
          "name": "nftAmount",
          "type": "uint256"
        },
        {
          "internalType": "uint256",
          "name": "tokenAmount",
          "type": "uint256"
        },
        {
          "internalType": "uint256",
          "name": "spotPrice",
          "type": "uint256"
        }
      ],
      "name": "calculateLpValue",
      "outputs": [
        {
          "internalType": "uint256",
          "name": "",
          "type": "uint256"
        }
      ],
      "stateMutability": "pure",
      "type": "function"
    },
    {
      "inputs": [],
      "name": "claim",
      "outputs": [
        {
          "internalType": "uint256",
          "name": "",
          "type": "uint256"
        }
      ],
      "stateMutability": "nonpayable",
      "type": "function"
    },
    {
      "inputs": [
        {
          "internalType": "uint256",
          "name": "lpId",
          "type": "uint256"
        }
      ],
      "name": "deposit",
      "outputs": [],
      "stateMutability": "nonpayable",
      "type": "function"
    },
    {
      "inputs": [
        {
          "internalType": "uint256",
          "name": "tokenId",
          "type": "uint256"
        }
      ],
      "name": "kick",
      "outputs": [],
      "stateMutability": "nonpayable",
      "type": "function"
    },
    {
      "inputs": [
        {
          "internalType": "address",
          "name": "user",
          "type": "address"
        },
        {
          "internalType": "uint256",
          "name": "index",
          "type": "uint256"
        }
      ],
      "name": "lpOfOwnerByIndex",
      "outputs": [
        {
          "internalType": "uint256",
          "name": "",
          "type": "uint256"
        }
      ],
      "stateMutability": "view",
      "type": "function"
    },
    {
      "inputs": [],
      "name": "lpToken",
      "outputs": [
        {
          "internalType": "address",
          "name": "",
          "type": "address"
        }
      ],
      "stateMutability": "view",
      "type": "function"
    },
    {
      "inputs": [
        {
          "internalType": "address",
          "name": "",
          "type": "address"
        },
        {
          "internalType": "address",
          "name": "",
          "type": "address"
        },
        {
          "internalType": "uint256",
          "name": "",
          "type": "uint256"
        },
        {
          "internalType": "bytes",
          "name": "",
          "type": "bytes"
        }
      ],
      "name": "onERC721Received",
      "outputs": [
        {
          "internalType": "bytes4",
          "name": "",
          "type": "bytes4"
        }
      ],
      "stateMutability": "pure",
      "type": "function"
    },
    {
      "inputs": [],
      "name": "totalLPValue",
      "outputs": [
        {
          "internalType": "uint256",
          "name": "",
          "type": "uint256"
        }
      ],
      "stateMutability": "view",
      "type": "function"
    },
    {
      "inputs": [],
      "name": "totalSupply",
      "outputs": [
        {
          "internalType": "uint256",
          "name": "",
          "type": "uint256"
        }
      ],
      "stateMutability": "view",
      "type": "function"
    },
    {
      "inputs": [
        {
          "internalType": "address",
          "name": "user",
          "type": "address"
        }
      ],
      "name": "userBoost",
      "outputs": [
        {
          "internalType": "uint256",
          "name": "",
          "type": "uint256"
        }
      ],
      "stateMutability": "view",
      "type": "function"
    },
    {
      "inputs": [
        {
          "internalType": "address",
          "name": "user",
          "type": "address"
        }
      ],
      "name": "userLPValue",
      "outputs": [
        {
          "internalType": "uint256",
          "name": "",
          "type": "uint256"
        }
      ],
      "stateMutability": "view",
      "type": "function"
    },
    {
      "inputs": [
        {
          "internalType": "uint256",
          "name": "lpId",
          "type": "uint256"
        }
      ],
      "name": "withdraw",
      "outputs": [],
      "stateMutability": "nonpayable",
      "type": "function"
    },
    {
      "inputs": [
        {
          "internalType": "uint256[]",
          "name": "lpIds",
          "type": "uint256[]"
        }
      ],
      "name": "withdrawBatch",
      "outputs": [],
      "stateMutability": "nonpayable",
      "type": "function"
    },
    {
      "inputs": [],
      "name": "writeTotalWeightHistory",
      "outputs": [],
      "stateMutability": "nonpayable",
      "type": "function"
    }
  ],
  "bytecode": "0x6080346200012a576001600160401b0390601f62001bf638819003918201601f1916830191848311848410176200012f5780849260409485528339810103126200012a5780516001600160a01b0380821692918390036200012a576020809201519081168091036200012a5760018060a01b031960009381855416178455600b541617600b556040519281840190848210908211176200011657604052818352600a549260019384600a55808510620000eb575b5090600a8352808320925b848110620000d657604051611ab09081620001468239f35b825160ff1684820155918101918401620000be565b600a8452848084862092830192015b8281106200010a575050620000b3565b858155018590620000fa565b634e487b7160e01b83526041600452602483fd5b600080fd5b634e487b7160e01b600052604160045260246000fdfe6080604052600436101561001257600080fd5b60003560e01c8063019e06ab14610107578063150b7a021461010257806318160ddd146100fd5780632e1a7d4d146100f857806348458f25146100f35780634e71d92d146100ee5780635fcbd285146100e957806370a08231146100e457806378d2f984146100df57806387da75ef146100da5780638b396623146100d55780639c8d4156146100d0578063b6b55f25146100cb578063ce0cf1a5146100c65763d02a2bee146100c157600080fd5b610777565b610624565b6103b9565b610343565b610325565b61030c565b6102cf565b610292565b610269565b61024e565b610222565b610204565b6101e6565b61016d565b610122565b6001600160a01b0381160361011d57565b600080fd5b3461011d57604036600319011261011d5760043561013f8161010c565b60018060a01b0316600052600460205260406000206024356000526020526020604060002054604051908152f35b3461011d57608036600319011261011d5761018960043561010c565b61019460243561010c565b60643567ffffffffffffffff80821161011d573660238301121561011d57816004013590811161011d573691016024011161011d57604051630a85bd0160e11b8152602090f35b600091031261011d57565b3461011d57600036600319011261011d576020600354604051908152f35b3461011d57602036600319011261011d576102206004356116d7565b005b3461011d57606036600319011261011d5760206102466044356024356004356119b7565b604051908152f35b3461011d57600036600319011261011d576020610246610a14565b3461011d57600036600319011261011d57600b546040516001600160a01b039091168152602090f35b3461011d57602036600319011261011d576004356102af8161010c565b60018060a01b031660005260026020526020604060002054604051908152f35b3461011d57602036600319011261011d576004356102ec8161010c565b60018060a01b0316600052600d6020526020604060002054604051908152f35b3461011d57600036600319011261011d576102206110c6565b3461011d57600036600319011261011d576020600e54604051908152f35b3461011d57602036600319011261011d5760043567ffffffffffffffff80821161011d573660238301121561011d57816004013590811161011d57600560243683831b850182011161011d5760005b83811061039b57005b806103af836103b493861b880101356116d7565b6108cd565b610392565b3461011d57602036600319011261011d57600b54600435906103f1906103e5906001600160a01b031681565b6001600160a01b031690565b6040516319ba7e5360e31b815260048101839052600092918390829060249082905afa80156105f9576104986104d2916104d7938691610602575b5061044a815161043b81611613565b61044481611613565b15611633565b61048133610462876000526001602052604060002090565b80546001600160a01b0319166001600160a01b03909216919091179055565b6020810151519060606040820151910151916119b7565b806104ad85600052600c602052604060002090565b55336000908152600d602052604090206104c88282546108c0565b9055600e546108c0565b600e55565b6104e03361120b565b600b546104f7906103e5906001600160a01b031681565b803b156105fe57604051632142170760e11b8152336004820152306024820152604481018390529083908290606490829084905af180156105f9576105e0575b50336000908152600260209081526040808320546004909252909120829061056b9083905b90600052602052604060002090565b55610580826000526005602052604060002090565b5533600090815260026020526040902061059a81546108ad565b90556105af6105aa6003546108ad565b600355565b60405190815233907fa76194b11cf7b940f18e866ed3382a795bb09ca684db1b957d595417f63151f890602090a280f35b806105ed6105f3926107b4565b806101db565b38610537565b610830565b8280fd5b61061e91503d8088833e61061681836107e9565b81019061157e565b3861042c565b3461011d5760208060031936011261011d576000805490919060043590610653906001600160a01b03166103e5565b600483604092835192838092630458184560e11b82525afa9081156105f957859161075a575b508151635a2d1e0760e11b8152600481018490526001600160a01b039190911692908281602481875afa80156105f9578591879161072d575b50015142116106bf578480f35b90516331a9108f60e11b81526004810191909152908290829060249082905afa9081156105f9576106f8928492610700575b505061120b565b388080808480f35b61071f9250803d10610726575b61071781836107e9565b810190610818565b38806106f1565b503d61070d565b61074d9150843d8611610753575b61074581836107e9565b8101906114e2565b386106b2565b503d61073b565b6107719150843d86116107265761071781836107e9565b38610679565b3461011d57602036600319011261011d5760206102466004356107998161010c565b61192b565b634e487b7160e01b600052604160045260246000fd5b67ffffffffffffffff81116107c857604052565b61079e565b6040810190811067ffffffffffffffff8211176107c857604052565b90601f8019910116810190811067ffffffffffffffff8211176107c857604052565b51906108168261010c565b565b9081602091031261011d575161082d8161010c565b90565b6040513d6000823e3d90fd5b634e487b7160e01b600052603260045260246000fd5b80541561086757600052602060002090600090565b61083c565b80548210156108675760005260206000209060011b0190600090565b9081602091031261011d575190565b634e487b7160e01b600052601160045260246000fd5b90600182018092116108bb57565b610897565b919082018092116108bb57565b60001981146108bb5760010190565b60405190610816826107cd565b6040519060e0820182811067ffffffffffffffff8211176107c857604052565b60405190610916826107cd565b601082526f0dccaf0e886d8c2d2dacac88ae0dec6d60831b6020830152565b90604051610942816107cd565b602060018294805484520154910152565b6000198101919082116108bb57565b919082039182116108bb57565b600a5481101561086757600a6000527fc65a7bb8d6351c1cf70c95a316cc6a92839c986682d98bc35f958f4883f9d2a80190600090565b9061138891808302928304036108bb57565b818102929181159184041417156108bb57565b81156109d5570490565b634e487b7160e01b600052601260045260246000fd5b604051906109f8826107cd565b600d82526c616d6f756e74546f436c61696d60981b6020830152565b610a1d3361120b565b60008054610a33906001600160a01b03166103e5565b60408051630458184560e11b8152919291600490602080828481895afa9182156105f957859261105f575b508351632c6f4d6f60e11b81526001600160a01b039283169682908290869082905afa80156105f95783918791611042575b50336000908152600660205260409020911690548015611037573360009081526008602052604090205415610faf575b8697875b60328110610b8c575b50505050610ae286610add6109eb565b6119e3565b845483908290610afa906001600160a01b03166103e5565b86516315b9ba5d60e01b815292839182905afa9182156105f9578692610b6f575b50501691823b15610b6b5751631ec9887760e11b815233918101918252602082018590529291839182908490829060400103925af180156105f957610b5e575090565b806105ed61082d926107b4565b8380fd5b610b859250803d106107265761071781836107e9565b3880610b1b565b33600090815260086020526040902054610ba881610add610909565b8851635487c57760e01b90818152878180610bcb8d429083019190602083019252565b0381885afa9081156105f9578c91610f92575b508210610bec575050610acd565b336000908152600660209081526040808320600790925290912054610c1b91610c15919061086c565b50610935565b33600090815260076020526040902090919054610c3787610953565b03610d2d5750610c53610c498361096f565b90549060031b1c90565b610c85575b5050336000908152600860205260409020610c8091905b610c7981546108cd565b90556108cd565b610ac4565b89516315a8752360e31b8152308a820190815260208101849052939c92939092919088908490819003604001818f8b5af19384156105f957610cea610c49610ce48f97610cf095610cf6988e610c809b93610cfe575b505051906109b8565b9261096f565b906109cb565b906108c0565b999038610c58565b610d1e929350803d10610d26575b610d1681836107e9565b810190610888565b90388e610cdb565b503d610d0c565b9187610d70610c15610d513360018060a01b03166000526006602052604060002090565b336000908152600760205260409020610d6a90546108ad565b9061086c565b0191610d90898d8d8651915193849283928a845283019190602083019252565b03818a5afa80156105f9578a8f8f908f9094610dc79594610f73575b5082860151915194859283928b845283019190602083019252565b03818b5afa9182156105f9578f92610f54575b5003610dfe575050336000908152600760205260409020610c809392509050610c6f565b610e0a610c498361096f565b610eb9575b5050336000908152600860205260409020610e4d939288929091610e3381546108cd565b905551908b51948592839283528c83019190602083019252565b0381865afa9182156105f957610c8092610e6e918c91610e9c575b506108ad565b33600090815260086020526040902054036103af57336000908152600760205260409020610c7981546108cd565b610eb39150883d8a11610d2657610d1681836107e9565b38610e68565b919c610ef89089838f8f8f9099989699518096819482936315a8752360e31b84523090840160209093929193604081019460018060a01b031681520152565b03918d5af180156105f957610e4d968f610c49610ce4610cf0948f99610f2a98610cea9592610f35575b5051906109b8565b9c9181939450610e0f565b610f4d9192508b3d8d11610d2657610d1681836107e9565b9038610f22565b610f6c9192508b3d8d11610d2657610d1681836107e9565b9038610dda565b610f8b919450833d8511610d2657610d1681836107e9565b9238610dac565b610fa99150883d8a11610d2657610d1681836107e9565b38610bde565b336000908152600660205260409020610ff0908490600190610fd090610852565b500154885180938192635487c57760e01b83528a83019190602083019252565b03818c5afa80156105f95761100b91899161102057506108ad565b33600090815260086020526040902055610ac0565b610eb39150853d8711610d2657610d1681836107e9565b505050505050905090565b6110599150833d85116107265761071781836107e9565b38610a90565b816110779293503d84116107265761071781836107e9565b9038610a5e565b600a54600160401b8110156107c8576001810180600a5581101561086757600a6000527fc65a7bb8d6351c1cf70c95a316cc6a92839c986682d98bc35f958f4883f9d2a80155565b6000546110db906001600160a01b03166103e5565b6040518091630458184560e11b825281600460209485935afa9081156105f95760009161118b575b50604051635487c57760e01b8152426004820152908290829060249082906001600160a01b03165afa9182156105f95760009261116e575b505060005b6080811061114c575050565b81600a54101561116a57611165906103af60095461107e565b611140565b5050565b6111849250803d10610d2657610d1681836107e9565b388061113b565b6111a29150823d84116107265761071781836107e9565b38611103565b604051906111b5826107cd565b60006020838281520152565b8054600160401b8110156107c8576111de9160018201815561086c565b9190916111f5576020816001925184550151910155565b634e487b7160e01b600052600060045260246000fd5b60008054909190611224906001600160a01b03166103e5565b906040518092630458184560e11b825281600460209586935afa9081156105f95784916114b3575b506001600160a01b031690813b15610b6b576040516387da75ef60e01b8152848160048183875af180156105f9576114a0575b506040516316275f1560e21b81526001600160a01b03821660048201528381602481865afa9283156105f9578491869461147c575b506040516318160ddd60e01b81529190829060049082905afa9283156105f9578561138594846113669361136b956108169a9361145d575b506112f56110c6565b826113dc57506001600160a01b03166000908152600d60205260409020905054905b506113206111a8565b6001600160a01b03851660009081526006602052604090209091905461138a575b61135e9061134d6108dc565b9781895242908901526009546108c0565b905190610962565b600955565b6001600160a01b0316600090815260066020526040902090565b6111c1565b905061135e6113d4610c156113b18760018060a01b03166000526006602052604060002090565b6001600160a01b0388166000908152600660205260409020610d6a905b54610953565b919050611341565b61144961145191610cf06114579561144461143b61143561142f6114128a60018060a01b0316600052600d602052604060002090565b546001600160a01b03909a166000908152600d6020526040902090565b546109a6565b946109a6565b600e54906109b8565b6109cb565b612710900490565b906114d0565b90611317565b611475919350893d8b11610d2657610d1681836107e9565b91386112ec565b82919450611498906004933d8411610d2657610d1681836107e9565b9390916112b4565b806105ed6114ad926107b4565b3861127f565b6114ca9150833d85116107265761071781836107e9565b3861124c565b90808210156114dd575090565b905090565b9081604091031261011d576020604051916114fc836107cd565b805183520151602082015290565b5190600382101561011d57565b9080601f8301121561011d5781519067ffffffffffffffff82116107c8578160051b6040519360209361154c858401876107e9565b8552838086019282010192831161011d578301905b82821061156f575050505090565b81518152908301908301611561565b9060208282031261011d57815167ffffffffffffffff9283821161011d570160e08183031261011d576115af6108e9565b926115b98261150a565b8452602082015190811161011d5760c0926115d5918301611517565b602084015260408101516040840152606081015160608401526115fa6080820161080b565b608084015260a081015160a0840152015160c082015290565b6003111561161d57565b634e487b7160e01b600052602160045260246000fd5b1561163a57565b60405162461bcd60e51b815260206004820152601c60248201527f4f6e6c79205472616465204c50732063616e206265207374616b6564000000006044820152606490fd5b1561168657565b60405162461bcd60e51b815260206004820152602360248201527f4e6f7420746865206f776e6572206f66206c697175696469747920706f73697460448201526234b7b760e91b6064820152608490fd5b61170e6116fe6116f1836000526001602052604060002090565b546001600160a01b031690565b6001600160a01b0316331461167f565b61172281600052600c602052604060002090565b54336000908152600d6020526040902061173e90918254610962565b90556117636104d261175a83600052600c602052604060002090565b54600e54610962565b61178a61177a826000526001602052604060002090565b80546001600160a01b0319169055565b6000806117a183600052600c602052604060002090565b556117ab3361120b565b600b546117c2906103e5906001600160a01b031681565b803b1561192757604051632142170760e11b8152306004820152336024820152604481018490529082908290606490829084905af180156105f957611914575b503360009081526002602052604090206118679061181f906113ce565b611833846000526005602052604060002090565b548181036118c1575b5082611852856000526005602052604060002090565b5533600090815260046020526040902061055c565b553360009081526002602052604090206118818154610953565b90556118916105aa600354610953565b60405190815233907f45ec0244cf2e0c90546c4aff992398e1505d5ce31338249d7f29066169cfdcea90602090a2565b33600090815260046020526040902061190d906118df90849061055c565b5433600090815260046020526040902081906118fc90859061055c565b556000526005602052604060002090565b553861183c565b806105ed611921926107b4565b38611802565b5080fd5b6001600160a01b0381166000908152600d6020526040902054156119b15760066020526119606040600020610d6a8154610953565b5054600181901b906001600160ff1b038116036108bb57612710908181029181830414901517156108bb576119aa61082d9260018060a01b0316600052600d602052604060002090565b54906109cb565b50600090565b826119c1916109b8565b916000908211156119db5750905b818111156114dd575090565b9050906119cf565b919060405190602090632d839cb360e21b828401526040602484015284519182606485015260005b838110611a4b5750506108169394508282608492600084611a4696850101526044830152601f801991011681010360648101845201826107e9565b611a5f565b868101820151858201608401528101611a0b565b600080916020815191016a636f6e736f6c652e6c6f675afa5056fea264697066735822122025f09d229f8fa57eaad8ecbb6bc2ed6c1f01035916a66681ae68bff48f8ddf4164736f6c63430008130033",
  "linkReferences": {},
  "deployedLinkReferences": {}
}