{
  "_format": "hh-sol-artifact-1",
  "contractName": "TradingGauge",
  "sourceName": "contracts/protocol/Gauges/TradingGauge.sol",
  "abi": [
    {
      "inputs": [
        {
          "internalType": "contract IAddressesProvider",
          "name": "addressProvider",
          "type": "address"
        },
        {
          "internalType": "address",
          "name": "lpToken_",
          "type": "address"
        }
      ],
      "stateMutability": "nonpayable",
      "type": "constructor"
    },
    {
      "anonymous": false,
      "inputs": [
        {
          "indexed": false,
          "internalType": "address",
          "name": "user",
          "type": "address"
        },
        {
          "indexed": false,
          "internalType": "uint256",
          "name": "lpId",
          "type": "uint256"
        }
      ],
      "name": "DepositLP",
      "type": "event"
    },
    {
      "anonymous": false,
      "inputs": [
        {
          "indexed": false,
          "internalType": "address",
          "name": "user",
          "type": "address"
        },
        {
          "indexed": false,
          "internalType": "uint256",
          "name": "lpId",
          "type": "uint256"
        }
      ],
      "name": "WithdrawLP",
      "type": "event"
    },
    {
      "inputs": [
        {
          "internalType": "address",
          "name": "user",
          "type": "address"
        }
      ],
      "name": "balanceOf",
      "outputs": [
        {
          "internalType": "uint256",
          "name": "",
          "type": "uint256"
        }
      ],
      "stateMutability": "view",
      "type": "function"
    },
    {
      "inputs": [],
      "name": "claim",
      "outputs": [
        {
          "internalType": "uint256",
          "name": "",
          "type": "uint256"
        }
      ],
      "stateMutability": "nonpayable",
      "type": "function"
    },
    {
      "inputs": [
        {
          "internalType": "uint256",
          "name": "lpId",
          "type": "uint256"
        }
      ],
      "name": "deposit",
      "outputs": [],
      "stateMutability": "nonpayable",
      "type": "function"
    },
    {
      "inputs": [
        {
          "internalType": "address",
          "name": "user",
          "type": "address"
        }
      ],
      "name": "kick",
      "outputs": [],
      "stateMutability": "nonpayable",
      "type": "function"
    },
    {
      "inputs": [
        {
          "internalType": "address",
          "name": "user",
          "type": "address"
        },
        {
          "internalType": "uint256",
          "name": "index",
          "type": "uint256"
        }
      ],
      "name": "lpOfOwnerByIndex",
      "outputs": [
        {
          "internalType": "uint256",
          "name": "",
          "type": "uint256"
        }
      ],
      "stateMutability": "view",
      "type": "function"
    },
    {
      "inputs": [],
      "name": "lpToken",
      "outputs": [
        {
          "internalType": "address",
          "name": "",
          "type": "address"
        }
      ],
      "stateMutability": "view",
      "type": "function"
    },
    {
      "inputs": [
        {
          "internalType": "uint256",
          "name": "lpId",
          "type": "uint256"
        }
      ],
      "name": "lpValue",
      "outputs": [
        {
          "internalType": "uint256",
          "name": "",
          "type": "uint256"
        }
      ],
      "stateMutability": "view",
      "type": "function"
    },
    {
      "inputs": [
        {
          "internalType": "address",
          "name": "user",
          "type": "address"
        }
      ],
      "name": "userBoost",
      "outputs": [
        {
          "internalType": "uint256",
          "name": "",
          "type": "uint256"
        }
      ],
      "stateMutability": "view",
      "type": "function"
    },
    {
      "inputs": [
        {
          "internalType": "address",
          "name": "user",
          "type": "address"
        }
      ],
      "name": "userLPValue",
      "outputs": [
        {
          "internalType": "uint256",
          "name": "",
          "type": "uint256"
        }
      ],
      "stateMutability": "view",
      "type": "function"
    },
    {
      "inputs": [
        {
          "internalType": "uint256",
          "name": "lpId",
          "type": "uint256"
        }
      ],
      "name": "withdraw",
      "outputs": [],
      "stateMutability": "nonpayable",
      "type": "function"
    },
    {
      "inputs": [],
      "name": "writeTotalWeightHistory",
      "outputs": [],
      "stateMutability": "nonpayable",
      "type": "function"
    }
  ],
  "bytecode": "0x608060405234801561001057600080fd5b5060405161154c38038061154c83398101604081905261002f91610078565b600080546001600160a01b039384166001600160a01b031991821617909155600a80549290931691161790556100b2565b6001600160a01b038116811461007557600080fd5b50565b6000806040838503121561008b57600080fd5b825161009681610060565b60208401519092506100a781610060565b809150509250929050565b61148b806100c16000396000f3fe608060405234801561001057600080fd5b50600436106100a95760003560e01c806378d2f9841161007157806378d2f9841461013557806387da75ef1461015e5780638813bf9e1461016657806396c5517514610179578063b6b55f251461018c578063d02a2bee1461019f57600080fd5b8063019e06ab146100ae5780632e1a7d4d146100d45780634e71d92d146100e95780635fcbd285146100f157806370a082311461010c575b600080fd5b6100c16100bc366004611149565b6101b2565b6040519081526020015b60405180910390f35b6100e76100e2366004611175565b6101dd565b005b6100c1610436565b600a546040516001600160a01b0390911681526020016100cb565b6100c161011a36600461118e565b6001600160a01b031660009081526002602052604090205490565b6100c161014336600461118e565b6001600160a01b03166000908152600c602052604090205490565b6100e76109b3565b6100c1610174366004611175565b610af8565b6100e761018736600461118e565b610bad565b6100e761019a366004611175565b610ca7565b6100c16101ad36600461118e565b610e19565b6001600160a01b03821660009081526003602090815260408083208484529091529020545b92915050565b6000818152600160205260409020546001600160a01b031633146102535760405162461bcd60e51b815260206004820152602360248201527f4e6f7420746865206f776e6572206f66206c697175696469747920706f73697460448201526234b7b760e91b606482015260840160405180910390fd5b6000818152600b6020908152604080832054338452600c90925282208054919290916102809084906111c1565b90915550506000818152600b6020526040812054600d8054919290916102a79084906111c1565b9091555050600081815260016020908152604080832080546001600160a01b0319169055600b9091528120556102dc33610e85565b600a54604051632142170760e11b8152306004820152336024820152604481018390526001600160a01b03909116906342842e0e90606401600060405180830381600087803b15801561032e57600080fd5b505af1158015610342573d6000803e3d6000fd5b50503360009081526002602052604081205490925061036491506001906111c1565b6000838152600460205260409020549091508082146103ae573360009081526003602090815260408083208584528252808320548484528184208190558352600490915290208190555b6000838152600460209081526040808320839055338084526003835281842086855283528184208490558352600290915281208054600192906103f29084906111c1565b909155505060408051338152602081018590527f45ec0244cf2e0c90546c4aff992398e1505d5ce31338249d7f29066169cfdcea91015b60405180910390a1505050565b600061044133610e85565b60008060009054906101000a90046001600160a01b03166001600160a01b03166308b0308a6040518163ffffffff1660e01b8152600401602060405180830381865afa158015610495573d6000803e3d6000fd5b505050506040513d601f19601f820116820180604052508101906104b991906111e4565b905060008060009054906101000a90046001600160a01b03166001600160a01b03166315b9ba5d6040518163ffffffff1660e01b8152600401602060405180830381865afa15801561050f573d6000803e3d6000fd5b505050506040513d601f19601f8201168201806040525081019061053391906111e4565b604051635487c57760e01b81524260048201529091506000906001600160a01b03841690635487c57790602401602060405180830381865afa15801561057d573d6000803e3d6000fd5b505050506040513d601f19601f820116820180604052508101906105a19190611201565b336000908152600560205260408120549192508190036105c657600094505050505090565b6000805b60328110156109a9576105de6001856111c1565b33600090815260076020526040902054146109a95733600090815260056020908152604080832060069092528220548154811061061d5761061d61121a565b600091825260208083206040805180820182526002909402909101805484526001015491830182905251635487c57760e01b81529193506001600160a01b038a1691635487c577916106759160040190815260200190565b602060405180830381865afa158015610692573d6000803e3d6000fd5b505050506040513d601f19601f820116820180604052508101906106b69190611201565b90506106c36001866111c1565b33600090815260066020526040902054036107a857600981815481106106eb576106eb61121a565b60009182526020909120015482516040516373c4680560e01b8152600481018490526001600160a01b038a16906373c4680590602401602060405180830381865afa15801561073e573d6000803e3d6000fd5b505050506040513d601f19601f820116820180604052508101906107629190611201565b61076c9190611230565b6107769190611247565b6107809085611269565b33600090815260076020526040812080549296509061079e8361127c565b9190505550610995565b33600090815260056020908152604080832060069092528220546107cd906001611269565b815481106107dd576107dd61121a565b600091825260208083206040805180820182526002909402909101805484526001015491830182905251635487c57760e01b81529193506001600160a01b038c1691635487c577916108359160040190815260200190565b602060405180830381865afa158015610852573d6000803e3d6000fd5b505050506040513d601f19601f820116820180604052508101906108769190611201565b90508281036108a45733600090815260066020526040812080549161089a8361127c565b9190505550610992565b600983815481106108b7576108b761121a565b60009182526020909120015484516040516373c4680560e01b8152600481018490526001600160a01b038c16906373c4680590602401602060405180830381865afa15801561090a573d6000803e3d6000fd5b505050506040513d601f19601f8201168201806040525081019061092e9190611201565b6109389190611230565b6109429190611247565b61094c9087611269565b336000908152600760205260409020829055955061096b816001611269565b81036109925733600090815260066020526040812080549161098c8361127c565b91905055505b50505b5050806109a18161127c565b9150506105ca565b5095945050505050565b60008060009054906101000a90046001600160a01b03166001600160a01b03166308b0308a6040518163ffffffff1660e01b8152600401602060405180830381865afa158015610a07573d6000803e3d6000fd5b505050506040513d601f19601f82011682018060405250810190610a2b91906111e4565b604051635487c57760e01b81524260048201526001600160a01b039190911690635487c57790602401602060405180830381865afa158015610a71573d6000803e3d6000fd5b505050506040513d601f19601f82011682018060405250810190610a959190611201565b905060005b6080811015610af4576009548211610af457600854600980546001810182556000919091527f6e1540171b6c0c960b71a7020d9f60077f6af931a8bbf590da0223dacf75c7af015580610aec8161127c565b915050610a9a565b5050565b600a546040516319ba7e5360e31b81526004810183905260009182916001600160a01b039091169063cdd3f29890602401600060405180830381865afa158015610b46573d6000803e3d6000fd5b505050506040513d6000823e601f3d908101601f19168201604052610b6e9190810190611305565b905060008160800151826000015151610b879190611230565b905060008260200151821115610ba257506020820151610ba5565b50805b949350505050565b60008060009054906101000a90046001600160a01b03166001600160a01b03166308b0308a6040518163ffffffff1660e01b8152600401602060405180830381865afa158015610c01573d6000803e3d6000fd5b505050506040513d601f19601f82011682018060405250810190610c2591906111e4565b60405163cbf9fe5f60e01b81526001600160a01b038481166004830152919091169063cbf9fe5f906024016040805180830381865afa158015610c6c573d6000803e3d6000fd5b505050506040513d601f19601f82011682018060405250810190610c909190611406565b60200151905042811015610af457610af482610e85565b600081815260016020526040812080546001600160a01b03191633179055610cce82610af8565b6000838152600b60209081526040808320849055338352600c909152812080549293508392909190610d01908490611269565b9250508190555080600d6000828254610d1a9190611269565b90915550610d29905033610e85565b600a54604051632142170760e11b8152336004820152306024820152604481018490526001600160a01b03909116906342842e0e90606401600060405180830381600087803b158015610d7b57600080fd5b505af1158015610d8f573d6000803e3d6000fd5b505033600081815260026020818152604080842080546003845282862081875284528286208b90558a865260048452918520829055948452919052825490945060019350610dde908490611269565b909155505060408051338152602081018590527fa76194b11cf7b940f18e866ed3382a795bb09ca684db1b957d595417f63151f89101610429565b6001600160a01b0381166000908152600c60209081526040808320546005909252822080546127109190610e4f906001906111c1565b81548110610e5f57610e5f61121a565b906000526020600020906002020160000154610e7b9190611230565b6101d79190611247565b60008060009054906101000a90046001600160a01b03166001600160a01b03166308b0308a6040518163ffffffff1660e01b8152600401602060405180830381865afa158015610ed9573d6000803e3d6000fd5b505050506040513d601f19601f82011682018060405250810190610efd91906111e4565b6040516370a0823160e01b81526001600160a01b0384811660048301529192506000918316906370a0823190602401602060405180830381865afa158015610f49573d6000803e3d6000fd5b505050506040513d601f19601f82011682018060405250810190610f6d9190611201565b90506000826001600160a01b03166318160ddd6040518163ffffffff1660e01b81526004016020604051808303816000875af1158015610fb1573d6000803e3d6000fd5b505050506040513d601f19601f82011682018060405250810190610fd59190611201565b90506000604051806040016040528061106b600c6000336001600160a01b03166001600160a01b031681526020019081526020016000205461271086600d54896113886110229190611230565b61102c9190611230565b6110369190611247565b336000908152600c602052604090205461105290611388611230565b61105c9190611269565b6110669190611247565b611119565b815242602091820152336000908152600590915260409020805491925090611095906001906111c1565b815481106110a5576110a561121a565b600091825260209091206002909102015481516110c291906111c1565b600860008282546110d39190611269565b909155506110e190506109b3565b336000908152600560209081526040822080546001818101835591845292829020845160029094020192835592015191015550505050565b6000818310611128578161112a565b825b9392505050565b6001600160a01b038116811461114657600080fd5b50565b6000806040838503121561115c57600080fd5b823561116781611131565b946020939093013593505050565b60006020828403121561118757600080fd5b5035919050565b6000602082840312156111a057600080fd5b813561112a81611131565b634e487b7160e01b600052601160045260246000fd5b818103818111156101d7576101d76111ab565b80516111df81611131565b919050565b6000602082840312156111f657600080fd5b815161112a81611131565b60006020828403121561121357600080fd5b5051919050565b634e487b7160e01b600052603260045260246000fd5b80820281158282048414176101d7576101d76111ab565b60008261126457634e487b7160e01b600052601260045260246000fd5b500490565b808201808211156101d7576101d76111ab565b60006001820161128e5761128e6111ab565b5060010190565b634e487b7160e01b600052604160045260246000fd5b60405160a0810167ffffffffffffffff811182821017156112ce576112ce611295565b60405290565b604051601f8201601f1916810167ffffffffffffffff811182821017156112fd576112fd611295565b604052919050565b6000602080838503121561131857600080fd5b825167ffffffffffffffff8082111561133057600080fd5b9084019060a0828703121561134457600080fd5b61134c6112ab565b82518281111561135b57600080fd5b8301601f8101881361136c57600080fd5b80518381111561137e5761137e611295565b8060051b935061138f8685016112d4565b818152938201860193868101908a8611156113a957600080fd5b928701925b858410156113c7578351825292870192908701906113ae565b845250505082840151848201526113e0604084016111d4565b604082015260608301516060820152608083015160808201528094505050505092915050565b60006040828403121561141857600080fd5b6040516040810181811067ffffffffffffffff8211171561143b5761143b611295565b60405282518152602092830151928101929092525091905056fea2646970667358221220b57248cfda49f27f117555d4aff7028cde236c13fe4809a726acce5dd74035b364736f6c63430008110033",
  "linkReferences": {},
  "deployedLinkReferences": {}
}