{
  "_format": "hh-sol-artifact-1",
  "contractName": "TradingPoolFactory",
  "sourceName": "contracts/protocol/Trading/TradingPoolFactory.sol",
  "abi": [
    {
      "inputs": [],
      "stateMutability": "nonpayable",
      "type": "constructor"
    },
    {
      "anonymous": false,
      "inputs": [
        {
          "indexed": true,
          "internalType": "address",
          "name": "pool",
          "type": "address"
        },
        {
          "indexed": true,
          "internalType": "address",
          "name": "nft",
          "type": "address"
        },
        {
          "indexed": true,
          "internalType": "address",
          "name": "token",
          "type": "address"
        }
      ],
      "name": "CreateTradingPool",
      "type": "event"
    },
    {
      "anonymous": false,
      "inputs": [
        {
          "indexed": false,
          "internalType": "uint8",
          "name": "version",
          "type": "uint8"
        }
      ],
      "name": "Initialized",
      "type": "event"
    },
    {
      "anonymous": false,
      "inputs": [
        {
          "indexed": true,
          "internalType": "address",
          "name": "previousOwner",
          "type": "address"
        },
        {
          "indexed": true,
          "internalType": "address",
          "name": "newOwner",
          "type": "address"
        }
      ],
      "name": "OwnershipTransferred",
      "type": "event"
    },
    {
      "inputs": [
        {
          "internalType": "address",
          "name": "nft",
          "type": "address"
        },
        {
          "internalType": "address",
          "name": "token",
          "type": "address"
        }
      ],
      "name": "createTradingPool",
      "outputs": [],
      "stateMutability": "nonpayable",
      "type": "function"
    },
    {
      "inputs": [],
      "name": "getProtocolFee",
      "outputs": [
        {
          "internalType": "uint256",
          "name": "",
          "type": "uint256"
        }
      ],
      "stateMutability": "view",
      "type": "function"
    },
    {
      "inputs": [],
      "name": "getTVLSafeguard",
      "outputs": [
        {
          "internalType": "uint256",
          "name": "",
          "type": "uint256"
        }
      ],
      "stateMutability": "view",
      "type": "function"
    },
    {
      "inputs": [
        {
          "internalType": "address",
          "name": "nft",
          "type": "address"
        },
        {
          "internalType": "address",
          "name": "token",
          "type": "address"
        }
      ],
      "name": "getTradingPool",
      "outputs": [
        {
          "internalType": "address",
          "name": "",
          "type": "address"
        }
      ],
      "stateMutability": "view",
      "type": "function"
    },
    {
      "inputs": [
        {
          "internalType": "contract IAddressesProvider",
          "name": "addressesProvider",
          "type": "address"
        },
        {
          "internalType": "uint256",
          "name": "protocolFee",
          "type": "uint256"
        },
        {
          "internalType": "uint256",
          "name": "tvlSafeguard",
          "type": "uint256"
        }
      ],
      "name": "initialize",
      "outputs": [],
      "stateMutability": "nonpayable",
      "type": "function"
    },
    {
      "inputs": [],
      "name": "owner",
      "outputs": [
        {
          "internalType": "address",
          "name": "",
          "type": "address"
        }
      ],
      "stateMutability": "view",
      "type": "function"
    },
    {
      "inputs": [],
      "name": "renounceOwnership",
      "outputs": [],
      "stateMutability": "nonpayable",
      "type": "function"
    },
    {
      "inputs": [
        {
          "internalType": "uint256",
          "name": "newProtocolFee",
          "type": "uint256"
        }
      ],
      "name": "setProtocolFee",
      "outputs": [],
      "stateMutability": "nonpayable",
      "type": "function"
    },
    {
      "inputs": [
        {
          "internalType": "uint256",
          "name": "newTVLSafeguard",
          "type": "uint256"
        }
      ],
      "name": "setTVLSafeguard",
      "outputs": [],
      "stateMutability": "nonpayable",
      "type": "function"
    },
    {
      "inputs": [
        {
          "internalType": "address",
          "name": "newOwner",
          "type": "address"
        }
      ],
      "name": "transferOwnership",
      "outputs": [],
      "stateMutability": "nonpayable",
      "type": "function"
    }
  ],
  "bytecode": "0x608060405234801561001057600080fd5b5061001961001e565b6100de565b600054610100900460ff161561008a5760405162461bcd60e51b815260206004820152602760248201527f496e697469616c697a61626c653a20636f6e747261637420697320696e697469604482015266616c697a696e6760c81b606482015260840160405180910390fd5b60005460ff90811610156100dc576000805460ff191660ff9081179091556040519081527f7f26b83ff96e1f2b6a682f133852f6798a09c465da95921460cefb38474024989060200160405180910390a15b565b615765806100ed6000396000f3fe60806040523480156200001157600080fd5b5060043610620000ab5760003560e01c8063a5a41031116200006e578063a5a41031146200012b578063a880e68b146200013e578063de1511341462000147578063f2fde38b146200015e578063fb44a156146200017557600080fd5b806365ec417614620000b0578063715018a614620000c9578063787dce3d14620000d35780637a1ac61e14620000ea5780638da5cb5b1462000101575b600080fd5b620000c7620000c136600462000a50565b620001b0565b005b620000c7620001bf565b620000c7620000e436600462000a50565b620001d7565b620000c7620000fb36600462000a80565b620001e6565b6033546001600160a01b03165b6040516001600160a01b0390911681526020015b60405180910390f35b6099545b60405190815260200162000122565b609a546200012f565b620000c76200015836600462000ab8565b6200032c565b620000c76200016f36600462000af6565b620007c0565b6200010e6200018636600462000ab8565b6001600160a01b039182166000908152609860209081526040808320938516835292905220541690565b620001ba6200083f565b609a55565b620001c96200083f565b620001d560006200089b565b565b620001e16200083f565b609955565b600054610100900460ff1615808015620002075750600054600160ff909116105b80620002235750303b15801562000223575060005460ff166001145b6200028c5760405162461bcd60e51b815260206004820152602e60248201527f496e697469616c697a61626c653a20636f6e747261637420697320616c72656160448201526d191e481a5b9a5d1a585b1a5e995960921b60648201526084015b60405180910390fd5b6000805460ff191660011790558015620002b0576000805461ff0019166101001790555b620002ba620008ed565b609780546001600160a01b0319166001600160a01b0386161790556099839055609a829055801562000326576000805461ff0019169055604051600181527f7f26b83ff96e1f2b6a682f133852f6798a09c465da95921460cefb38474024989060200160405180910390a15b50505050565b620003486001600160a01b0383166380ac58cd60e01b62000921565b620003aa5760405162461bcd60e51b815260206004820152602b60248201527f436f6c6c656374696f6e2061646472657373206973206e6f742045524337323160448201526a1031b7b6b83634b0b73a1760a91b606482015260840162000283565b6001600160a01b03828116600090815260986020908152604080832085851684529091529020541615620004215760405162461bcd60e51b815260206004820152601b60248201527f54726164696e6720506f6f6c20616c7265616479206578697374730000000000604482015260640162000283565b6097546000906001600160a01b0316620004436033546001600160a01b031690565b8385856001600160a01b03166395d89b416040518163ffffffff1660e01b8152600401600060405180830381865afa15801562000484573d6000803e3d6000fd5b505050506040513d6000823e601f3d908101601f19168201604052620004ae919081019062000b52565b876001600160a01b03166395d89b416040518163ffffffff1660e01b8152600401600060405180830381865afa158015620004ed573d6000803e3d6000fd5b505050506040513d6000823e601f3d908101601f1916820160405262000517919081019062000b52565b6040516020016200052a92919062000c00565b604051602081830303815290604052866001600160a01b03166395d89b416040518163ffffffff1660e01b8152600401600060405180830381865afa15801562000578573d6000803e3d6000fd5b505050506040513d6000823e601f3d908101601f19168201604052620005a2919081019062000b52565b886001600160a01b03166395d89b416040518163ffffffff1660e01b8152600401600060405180830381865afa158015620005e1573d6000803e3d6000fd5b505050506040513d6000823e601f3d908101601f191682016040526200060b919081019062000b52565b6040516020016200061e92919062000c61565b6040516020818303038152906040526040516200063b9062000a42565b6200064c9695949392919062000cde565b604051809103906000f08015801562000669573d6000803e3d6000fd5b506001600160a01b038481166000908152609860209081526040808320878516845282529182902080546001600160a01b031916858516179055609754825163725c9c4960e01b815292519495509092169263725c9c49926004808401939192918290030181865afa158015620006e4573d6000803e3d6000fd5b505050506040513d601f19601f820116820180604052508101906200070a919062000d3d565b60405163ea92282760e01b81526001600160a01b0384811660048301528381166024830152919091169063ea92282790604401600060405180830381600087803b1580156200075857600080fd5b505af11580156200076d573d6000803e3d6000fd5b50505050816001600160a01b0316836001600160a01b0316826001600160a01b03167fa1311e5e3c1c2207844ec9211cb2439ea0bce2a76c6ea09d9343f0d0eaddd9f660405160405180910390a4505050565b620007ca6200083f565b6001600160a01b038116620008315760405162461bcd60e51b815260206004820152602660248201527f4f776e61626c653a206e6577206f776e657220697320746865207a65726f206160448201526564647265737360d01b606482015260840162000283565b6200083c816200089b565b50565b6033546001600160a01b03163314620001d55760405162461bcd60e51b815260206004820181905260248201527f4f776e61626c653a2063616c6c6572206973206e6f7420746865206f776e6572604482015260640162000283565b603380546001600160a01b038381166001600160a01b0319831681179093556040519116919082907f8be0079c531659141344cd1fd0a4f28419497f9722a3daafe3b4186f6b6457e090600090a35050565b600054610100900460ff16620009175760405162461bcd60e51b8152600401620002839062000d5d565b620001d562000949565b60006200092e836200097e565b8015620009425750620009428383620009b7565b9392505050565b600054610100900460ff16620009735760405162461bcd60e51b8152600401620002839062000d5d565b620001d5336200089b565b600062000993826301ffc9a760e01b620009b7565b8015620009b15750620009af826001600160e01b0319620009b7565b155b92915050565b604080516001600160e01b03198316602480830191909152825180830390910181526044909101909152602080820180516001600160e01b03166301ffc9a760e01b178152825160009392849283928392918391908a617530fa92503d9150600051905082801562000a2a575060208210155b801562000a375750600081115b979650505050505050565b6149878062000da983390190565b60006020828403121562000a6357600080fd5b5035919050565b6001600160a01b03811681146200083c57600080fd5b60008060006060848603121562000a9657600080fd5b833562000aa38162000a6a565b95602085013595506040909401359392505050565b6000806040838503121562000acc57600080fd5b823562000ad98162000a6a565b9150602083013562000aeb8162000a6a565b809150509250929050565b60006020828403121562000b0957600080fd5b8135620009428162000a6a565b634e487b7160e01b600052604160045260246000fd5b60005b8381101562000b4957818101518382015260200162000b2f565b50506000910152565b60006020828403121562000b6557600080fd5b815167ffffffffffffffff8082111562000b7e57600080fd5b818401915084601f83011262000b9357600080fd5b81518181111562000ba85762000ba862000b16565b604051601f8201601f19908116603f0116810190838211818310171562000bd35762000bd362000b16565b8160405282815287602084870101111562000bed57600080fd5b62000a3783602083016020880162000b2c565b7203632a7232a102a3930b234b733902837b7b61606d1b81526000835162000c3081601385016020880162000b2c565b6201016960ed1b601391840191820152835162000c5581601684016020880162000b2c565b01601601949350505050565b621b195560ea1b81526000835162000c8181600385016020880162000b2c565b602d60f81b600391840191820152835162000ca481600484016020880162000b2c565b01600401949350505050565b6000815180845262000cca81602086016020860162000b2c565b601f01601f19169290920160200192915050565b6001600160a01b038781168252868116602083015285811660408301528416606082015260c06080820181905260009062000d1c9083018562000cb0565b82810360a084015262000d30818562000cb0565b9998505050505050505050565b60006020828403121562000d5057600080fd5b8151620009428162000a6a565b6020808252602b908201527f496e697469616c697a61626c653a20636f6e7472616374206973206e6f74206960408201526a6e697469616c697a696e6760a81b60608201526080019056fe60806040523480156200001157600080fd5b5060405162004987380380620049878339810160408190526200003491620002d7565b8181600062000044838262000425565b50600162000053828262000425565b505050620000706200006a620001a360201b60201c565b620001a7565b856001600160a01b031663ca1470ea6040518163ffffffff1660e01b8152600401602060405180830381865afa158015620000af573d6000803e3d6000fd5b505050506040513d601f19601f82011682018060405250810190620000d59190620004f1565b6001600160a01b0316336001600160a01b0316146200014f5760405162461bcd60e51b815260206004820152602c60248201527f54726164696e6720506f6f6c206d75737420626520637265617465642074687260448201526b6f75676820466163746f727960a01b606482015260840160405180910390fd5b600b80546001600160a01b038089166001600160a01b031992831617909255600c8054878416908316179055600d8054928616929091169190911790556200019785620001a7565b50505050505062000518565b3390565b600a80546001600160a01b038381166001600160a01b0319831681179093556040519116919082907f8be0079c531659141344cd1fd0a4f28419497f9722a3daafe3b4186f6b6457e090600090a35050565b6001600160a01b03811681146200020f57600080fd5b50565b634e487b7160e01b600052604160045260246000fd5b600082601f8301126200023a57600080fd5b81516001600160401b038082111562000257576200025762000212565b604051601f8301601f19908116603f0116810190828211818310171562000282576200028262000212565b816040528381526020925086838588010111156200029f57600080fd5b600091505b83821015620002c35785820183015181830184015290820190620002a4565b600093810190920192909252949350505050565b60008060008060008060c08789031215620002f157600080fd5b8651620002fe81620001f9565b60208801519096506200031181620001f9565b60408801519095506200032481620001f9565b60608801519094506200033781620001f9565b60808801519093506001600160401b03808211156200035557600080fd5b620003638a838b0162000228565b935060a08901519150808211156200037a57600080fd5b506200038989828a0162000228565b9150509295509295509295565b600181811c90821680620003ab57607f821691505b602082108103620003cc57634e487b7160e01b600052602260045260246000fd5b50919050565b601f8211156200042057600081815260208120601f850160051c81016020861015620003fb5750805b601f850160051c820191505b818110156200041c5782815560010162000407565b5050505b505050565b81516001600160401b0381111562000441576200044162000212565b620004598162000452845462000396565b84620003d2565b602080601f831160018114620004915760008415620004785750858301515b600019600386901b1c1916600185901b1785556200041c565b600085815260208120601f198616915b82811015620004c257888601518255948401946001909101908401620004a1565b5085821015620004e15787850151600019600388901b60f8161c191681555b5050505050600190811b01905550565b6000602082840312156200050457600080fd5b81516200051181620001f9565b9392505050565b61445f80620005286000396000f3fe608060405234801561001057600080fd5b50600436106102065760003560e01c806370a082311161011a578063b31f0d62116100ad578063bf02c6541161007c578063bf02c65414610462578063c87b56dd14610475578063cdd3f29814610488578063e985e9c5146104a8578063f2fde38b146104e457600080fd5b8063b31f0d6214610420578063b88d4fde14610433578063bc063e1a14610446578063bedb86fb1461044f57600080fd5b806395d89b41116100e957806395d89b41146103df5780639c8f9f23146103e75780639debf34d146103fa578063a22cb4651461040d57600080fd5b806370a08231146103a2578063715018a6146103b557806388a6360e146103bd5780638da5cb5b146103ce57600080fd5b80632f745c591161019d5780634f6ccce71161016c5780634f6ccce7146103365780635460d8491461034957806356d131ce146103695780636352211e1461037c5780636d207b1a1461038f57600080fd5b80632f745c59146102ea57806342842e0e146102fd5780634765f2451461031057806349591b511461032357600080fd5b8063150b7a02116101d9578063150b7a021461028857806318160ddd146102b457806321df0da7146102c657806323b872dd146102d757600080fd5b806301ffc9a71461020b57806306fdde0314610233578063081812fc14610248578063095ea7b314610273575b600080fd5b61021e610219366004613a75565b6104f7565b60405190151581526020015b60405180910390f35b61023b610508565b60405161022a9190613ae2565b61025b610256366004613af5565b61059a565b6040516001600160a01b03909116815260200161022a565b610286610281366004613b23565b6105c1565b005b61029b610296366004613b96565b6106db565b6040516001600160e01b0319909116815260200161022a565b6008545b60405190815260200161022a565b600c546001600160a01b031661025b565b6102866102e5366004613c5a565b6106ec565b6102b86102f8366004613b23565b61071d565b61028661030b366004613c5a565b6107b3565b61028661031e366004613c9b565b6107ce565b6102b8610331366004613d32565b61085d565b6102b8610344366004613af5565b6111eb565b6102b8610357366004613af5565b6000908152600f602052604090205490565b610286610377366004613db0565b61127e565b61025b61038a366004613af5565b611331565b61028661039d366004613dd7565b611391565b6102b86103b0366004613e0c565b6113ff565b610286611485565b600d546001600160a01b031661025b565b600a546001600160a01b031661025b565b61023b611499565b6102866103f5366004613af5565b6114a8565b610286610408366004613c9b565b6116b5565b61028661041b366004613e37565b611738565b6102b861042e366004613e70565b611743565b610286610441366004613b96565b61202d565b6102b861232881565b61028661045d366004613ec9565b612065565b610286610470366004613ee6565b61208b565b61023b610483366004613af5565b61274d565b61049b610496366004613af5565b6127c1565b60405161022a9190613fab565b61021e6104b636600461400d565b6001600160a01b03918216600090815260056020908152604080832093909416825291909152205460ff1690565b6102866104f2366004613e0c565b612874565b6000610502826128ed565b92915050565b6060600080546105179061403b565b80601f01602080910402602001604051908101604052809291908181526020018280546105439061403b565b80156105905780601f1061056557610100808354040283529160200191610590565b820191906000526020600020905b81548152906001019060200180831161057357829003601f168201915b5050505050905090565b60006105a582612912565b506000908152600460205260409020546001600160a01b031690565b60006105cc82611331565b9050806001600160a01b0316836001600160a01b03160361063e5760405162461bcd60e51b815260206004820152602160248201527f4552433732313a20617070726f76616c20746f2063757272656e74206f776e656044820152603960f91b60648201526084015b60405180910390fd5b336001600160a01b038216148061065a575061065a81336104b6565b6106cc5760405162461bcd60e51b815260206004820152603d60248201527f4552433732313a20617070726f76652063616c6c6572206973206e6f7420746f60448201527f6b656e206f776e6572206f7220617070726f76656420666f7220616c6c0000006064820152608401610635565b6106d68383612971565b505050565b630a85bd0160e11b5b949350505050565b6106f633826129df565b6107125760405162461bcd60e51b815260040161063590614075565b6106d6838383612a5d565b6000610728836113ff565b821061078a5760405162461bcd60e51b815260206004820152602b60248201527f455243373231456e756d657261626c653a206f776e657220696e646578206f7560448201526a74206f6620626f756e647360a81b6064820152608401610635565b506001600160a01b03919091166000908152600660209081526040808320938352929052205490565b6106d68383836040518060200160405280600081525061202d565b6107d782611331565b6001600160a01b0316336001600160a01b0316146108075760405162461bcd60e51b8152600401610635906140c2565b6000828152600e60205260409081902060050182905551829033907f6876b53468ceb1db2a0a6fe84eef2468841e8235b3bbc6d406685e95e190f398906108519085815260200190565b60405180910390a35050565b600b54600090600160a01b900460ff161561088a5760405162461bcd60e51b8152600401610635906140f0565b82518451146108f25760405162461bcd60e51b815260206004820152602e60248201527f4e46547320616e64204c6971756964697479205061697273206d75737420686160448201526d0ecca40e6c2daca40d8cadccee8d60931b6064820152608401610635565b60008451116109435760405162461bcd60e51b815260206004820152601d60248201527f4e65656420746f2073656c6c206174206c65617374206f6e65204e46540000006044820152606401610635565b6001600160a01b0385163314610a4857600b60009054906101000a90046001600160a01b03166001600160a01b031663725c9c496040518163ffffffff1660e01b8152600401602060405180830381865afa1580156109a6573d6000803e3d6000fd5b505050506040513d601f19601f820116820180604052508101906109ca9190614118565b6001600160a01b0316336001600160a01b031614610a485760405162461bcd60e51b815260206004820152603560248201527f4f6e6c792053776170526f757465722063616e2073656c6c206f6e20626568616044820152746c66206f6620616e6f74686572206164647265737360581b6064820152608401610635565b6000806000806000610a586139a2565b60005b8a51811015610ee457610abc6040518060400160405280601a81526020017f5472616e73666572696e67204e465420257320746f20706f6f6c0000000000008152508c8381518110610aaf57610aaf614135565b6020026020010151612bce565b600d548b516001600160a01b03909116906342842e0e908e9030908f9086908110610ae957610ae9614135565b60200260200101516040518463ffffffff1660e01b8152600401610b0f9392919061414b565b600060405180830381600087803b158015610b2957600080fd5b505af1158015610b3d573d6000803e3d6000fd5b5050505060008a8281518110610b5557610b55614135565b60200260200101519050600e60008281526020019081526020016000206040518060c001604052908160008201805480602002602001604051908101604052809291908181526020018280548015610bcc57602002820191906000526020600020905b815481526020019060010190808311610bb8575b505050918352505060018201546020820152600282015460408083019190915260038301546001600160a01b031660608301526004830154608083015260059092015460a0918201528201519082015191945061271091610c2d9190614185565b610c37919061419c565b9650612710600b60009054906101000a90046001600160a01b03166001600160a01b031663ca1470ea6040518163ffffffff1660e01b8152600401602060405180830381865afa158015610c8f573d6000803e3d6000fd5b505050506040513d601f19601f82011682018060405250810190610cb39190614118565b6001600160a01b031663a5a410316040518163ffffffff1660e01b8152600401602060405180830381865afa158015610cf0573d6000803e3d6000fd5b505050506040513d601f19601f82011682018060405250810190610d1491906141be565b610d1e9089614185565b610d28919061419c565b9350826040015188610d3a91906141d7565b9750610d4687876141d7565b6000828152600e602052604090208d51919750908d9084908110610d6c57610d6c614135565b6020908102919091018101518254600181018455600093845291909220015560408301518490610d9d9089906141ea565b610da791906141d7565b6000828152600e602052604081206001018054909190610dc89084906141ea565b9091555050606083015160408085015160808601519151633698f96560e11b81526001600160a01b0390931692636d31f2ca92610e119291600401918252602082015260400190565b602060405180830381865afa158015610e2e573d6000803e3d6000fd5b505050506040513d601f19601f82011682018060405250810190610e5291906141be565b6000828152600e60208181526040808420600281019590955580518082019091528581529285905290815291549091820190610e90906001906141ea565b815250600f60008e8581518110610ea957610ea9614135565b602090810291909101810151825281810192909252604001600020825181559101516001909101555080610edc816141fd565b915050610a5b565b50610eef84876141ea565b925087831015610f415760405162461bcd60e51b815260206004820152601e60248201527f5072696365206c6f776572207468616e206d696e696d756d20707269636500006044820152606401610635565b610f5833600c546001600160a01b03169085612c13565b600b546040805163c891317360e01b815290516110be926001600160a01b03169163c89131739160048083019260209291908290030181865afa158015610fa3573d6000803e3d6000fd5b505050506040513d601f19601f82011682018060405250810190610fc79190614118565b600b546040805163650a387560e11b81529051612710926001600160a01b03169163ca1470ea9160048083019260209291908290030181865afa158015611012573d6000803e3d6000fd5b505050506040513d601f19601f820116820180604052508101906110369190614118565b6001600160a01b031663a5a410316040518163ffffffff1660e01b8152600401602060405180830381865afa158015611073573d6000803e3d6000fd5b505050506040513d601f19601f8201168201806040525081019061109791906141be565b6110a19088614185565b6110ab919061419c565b600c546001600160a01b03169190612c13565b600b60009054906101000a90046001600160a01b03166001600160a01b031663c89131736040518163ffffffff1660e01b8152600401602060405180830381865afa158015611111573d6000803e3d6000fd5b505050506040513d601f19601f820116820180604052508101906111359190614118565b600c546040516354b94c2f60e11b81526001600160a01b03918216600482015291169063a972985e90602401600060405180830381600087803b15801561117b57600080fd5b505af115801561118f573d6000803e3d6000fd5b5050505061119a3390565b6001600160a01b03167feb3c528adebc70d317bef09706905761642981ebf9def9aafdc40f404e49346a8b856040516111d4929190614216565b60405180910390a250909998505050505050505050565b60006111f660085490565b82106112595760405162461bcd60e51b815260206004820152602c60248201527f455243373231456e756d657261626c653a20676c6f62616c20696e646578206f60448201526b7574206f6620626f756e647360a01b6064820152608401610635565b6008828154811061126c5761126c614135565b90600052602060002001549050919050565b61128783611331565b6001600160a01b0316336001600160a01b0316146112b75760405162461bcd60e51b8152600401610635906140c2565b6000838152600e60209081526040918290206003810180546001600160a01b0319166001600160a01b03871690811790915560049091018490558251908152908101839052849133917f3d172f139a404912c8ac9294b8c5629d8e27a95381da174d83481b3f80bcc2ea91015b60405180910390a3505050565b6000818152600260205260408120546001600160a01b0316806105025760405162461bcd60e51b8152602060048201526018602482015277115490cdcc8c4e881a5b9d985b1a59081d1bdad95b88125160421b6044820152606401610635565b600b54600160a01b900460ff16156113bb5760405162461bcd60e51b8152600401610635906140f0565b60005b81518110156113fb576113e98282815181106113dc576113dc614135565b60200260200101516114a8565b806113f3816141fd565b9150506113be565b5050565b60006001600160a01b0382166114695760405162461bcd60e51b815260206004820152602960248201527f4552433732313a2061646472657373207a65726f206973206e6f7420612076616044820152683634b21037bbb732b960b91b6064820152608401610635565b506001600160a01b031660009081526003602052604090205490565b61148d612c76565b6114976000612cd0565b565b6060600180546105179061403b565b600b54600160a01b900460ff16156114d25760405162461bcd60e51b8152600401610635906140f0565b6114db81611331565b6001600160a01b0316336001600160a01b03161461150b5760405162461bcd60e51b8152600401610635906140c2565b60005b6000828152600e602052604090205481101561160957600d546001600160a01b03166342842e0e30336000868152600e6020526040902080548690811061155757611557614135565b90600052602060002001546040518463ffffffff1660e01b81526004016115809392919061414b565b600060405180830381600087803b15801561159a57600080fd5b505af11580156115ae573d6000803e3d6000fd5b5050506000838152600e602052604081208054600f9350849081106115d5576115d5614135565b6000918252602080832090910154835282019290925260400181208181556001015580611601816141fd565b91505061150e565b50611633336000838152600e6020526040902060010154600c546001600160a01b03169190612c13565b6000818152600e602052604081209061164c82826139e1565b50600060018201819055600282018190556003820180546001600160a01b03191690556004820181905560059091015561168581612d22565b604051819033907fdfdd120ded9b7afc0c23dd5310e93aaa3e1c3b9f75af9b805fab3030842439f290600090a350565b6116be82611331565b6001600160a01b0316336001600160a01b0316146116ee5760405162461bcd60e51b8152600401610635906140c2565b6000828152600e60205260409081902060020182905551829033907ff59d29be85d17abec043ede6b5d9714c5ae30886615ec30ea761442933098175906108519085815260200190565b6113fb338383612dc5565b600b54600090600160a01b900460ff16156117705760405162461bcd60e51b8152600401610635906140f0565b60008351116117c15760405162461bcd60e51b815260206004820152601c60248201527f4e65656420746f20627579206174206c65617374206f6e65204e4654000000006044820152606401610635565b6000806000806000806117d26139a2565b60005b8a51811015611d4257600f60008c83815181106117f4576117f4614135565b60200260200101518152602001908152602001600020600001549550600e60008781526020019081526020016000206040518060c00160405290816000820180548060200260200160405190810160405280929190818152602001828054801561187d57602002820191906000526020600020905b815481526020019060010190808311611869575b505050918352505060018201546020820152600282015460408083019190915260038301546001600160a01b031660608301526004830154608083015260059092015460a09182015282015190820151919350612710916118de9190614185565b6118e8919061419c565b9450612710600b60009054906101000a90046001600160a01b03166001600160a01b031663ca1470ea6040518163ffffffff1660e01b8152600401602060405180830381865afa158015611940573d6000803e3d6000fd5b505050506040513d601f19601f820116820180604052508101906119649190614118565b6001600160a01b031663a5a410316040518163ffffffff1660e01b8152600401602060405180830381865afa1580156119a1573d6000803e3d6000fd5b505050506040513d601f19601f820116820180604052508101906119c591906141be565b6119cf9087614185565b6119d9919061419c565b6000878152600e602052604090208054919450906119f9906001906141ea565b81548110611a0957611a09614135565b9060005260206000200154600e6000888152602001908152602001600020600001600f60008e8581518110611a4057611a40614135565b602002602001015181526020019081526020016000206001015481548110611a6a57611a6a614135565b6000918252602080832090910192909255878152600e90915260409020805480611a9657611a96614238565b6001900381819060005260206000200160009055905582858360400151611abd91906141d7565b611ac791906141ea565b6000878152600e602052604081206001018054909190611ae89084906141d7565b90915550506040820151611afc90896141d7565b9750611b0885856141d7565b935081606001516001600160a01b031663bb1690e2836040015184608001516040518363ffffffff1660e01b8152600401611b4d929190918252602082015260400190565b602060405180830381865afa158015611b6a573d6000803e3d6000fd5b505050506040513d601f19601f82011682018060405250810190611b8e91906141be565b600e600088815260200190815260200160002060020181905550611c026040518060400160405280600981526020016804e465420546f204c560bc1b815250600f60008e8581518110611be357611be3614135565b6020026020010151815260200190815260200160002060000154612bce565b600f60008c8381518110611c1857611c18614135565b6020026020010151815260200190815260200160002060008082016000905560018201600090555050611c766040518060400160405280601381526020017229b2b73234b7339027232a103a37903ab9b2b960691b8152508d612e8b565b611caa6040518060400160405280600681526020016513919508125160d21b8152508c8381518110610aaf57610aaf614135565b600d548b516001600160a01b03909116906342842e0e9030908f908f9086908110611cd757611cd7614135565b60200260200101516040518463ffffffff1660e01b8152600401611cfd9392919061414b565b600060405180830381600087803b158015611d1757600080fd5b505af1158015611d2b573d6000803e3d6000fd5b505050508080611d3a906141fd565b9150506117d5565b50611d4d83886141d7565b955088861115611d9f5760405162461bcd60e51b815260206004820152601f60248201527f507269636520686967686572207468616e206d6178696d756d207072696365006044820152606401610635565b611db733600c546001600160a01b0316903089612ed0565b600b546040805163c891317360e01b81529051611f00926001600160a01b03169163c89131739160048083019260209291908290030181865afa158015611e02573d6000803e3d6000fd5b505050506040513d601f19601f82011682018060405250810190611e269190614118565b600b546040805163650a387560e11b81529051612710926001600160a01b03169163ca1470ea9160048083019260209291908290030181865afa158015611e71573d6000803e3d6000fd5b505050506040513d601f19601f82011682018060405250810190611e959190614118565b6001600160a01b031663a5a410316040518163ffffffff1660e01b8152600401602060405180830381865afa158015611ed2573d6000803e3d6000fd5b505050506040513d601f19601f82011682018060405250810190611ef691906141be565b6110a19087614185565b600b60009054906101000a90046001600160a01b03166001600160a01b031663c89131736040518163ffffffff1660e01b8152600401602060405180830381865afa158015611f53573d6000803e3d6000fd5b505050506040513d601f19601f82011682018060405250810190611f779190614118565b600c546040516354b94c2f60e11b81526001600160a01b03918216600482015291169063a972985e90602401600060405180830381600087803b158015611fbd57600080fd5b505af1158015611fd1573d6000803e3d6000fd5b50505050611fdc3390565b6001600160a01b03167f0306912acbf130bc61cce94222a394a64e258433196a3d3679a9bbfb8973f7738b88604051612016929190614216565b60405180910390a250939998505050505050505050565b61203733836129df565b6120535760405162461bcd60e51b815260040161063590614075565b61205f84848484612ef1565b50505050565b61206d612c76565b600b8054911515600160a01b0260ff60a01b19909216919091179055565b600b54600160a01b900460ff16156120b55760405162461bcd60e51b8152600401610635906140f0565b600b60009054906101000a90046001600160a01b03166001600160a01b031663ca1470ea6040518163ffffffff1660e01b8152600401602060405180830381865afa158015612108573d6000803e3d6000fd5b505050506040513d601f19601f8201168201806040525081019061212c9190614118565b6001600160a01b031663a880e68b6040518163ffffffff1660e01b8152600401602060405180830381865afa158015612169573d6000803e3d6000fd5b505050506040513d601f19601f8201168201806040525081019061218d91906141be565b600c546040516370a0823160e01b81523060048201526001600160a01b03909116906370a0823190602401602060405180830381865afa1580156121d5573d6000803e3d6000fd5b505050506040513d601f19601f820116820180604052508101906121f991906141be565b61220390876141d7565b1061225f5760405162461bcd60e51b815260206004820152602660248201527f54726164696e6720706f6f6c2065786365656473207361666567756172646564604482015265081b1a5b5a5d60d21b6064820152608401610635565b600085118061226f575060008651115b6122b45760405162461bcd60e51b81526020600482015260166024820152754465706f7369742063616e277420626520656d70747960501b6044820152606401610635565b6040516301ffc9a760e01b8152630b2ac51960e01b60048201526001600160a01b038416906301ffc9a790602401602060405180830381865afa1580156122ff573d6000803e3d6000fd5b505050506040513d601f19601f82011682018060405250810190612323919061424e565b61237b5760405162461bcd60e51b8152602060048201526024808201527f4375727665206d75737420626520612076616c696420637572766520636f6e746044820152631c9858dd60e21b6064820152608401610635565b604051638926a2f760e01b8152600481018390526001600160a01b03841690638926a2f790602401602060405180830381865afa1580156123c0573d6000803e3d6000fd5b505050506040513d601f19601f820116820180604052508101906123e4919061424e565b6124205760405162461bcd60e51b815260206004820152600d60248201526c496e76616c69642064656c746160981b6044820152606401610635565b604051632a1582e360e11b8152600481018590526001600160a01b0384169063542b05c690602401602060405180830381865afa158015612465573d6000803e3d6000fd5b505050506040513d601f19601f82011682018060405250810190612489919061424e565b6124ca5760405162461bcd60e51b8152602060048201526012602482015271496e76616c69642073706f7420707269636560701b6044820152606401610635565b61232881111561251c5760405162461bcd60e51b815260206004820152601960248201527f466565206d757374206265206c657373207468616e20393025000000000000006044820152606401610635565b60005b865181101561260c57600d546001600160a01b03166342842e0e33308a858151811061254d5761254d614135565b60200260200101516040518463ffffffff1660e01b81526004016125739392919061414b565b600060405180830381600087803b15801561258d57600080fd5b505af11580156125a1573d6000803e3d6000fd5b505050506040518060400160405280601054815260200182815250600f60008984815181106125d2576125d2614135565b6020908102919091018101518252818101929092526040016000208251815591015160019091015580612604816141fd565b91505061251f565b5061262533600c546001600160a01b0316903088612ed0565b6040805160c08101825287815260208082018890528183018790526001600160a01b03861660608301526080820185905260a082018490526010546000908152600e825292909220815180519293919261268292849201906139ff565b50602082015160018201556040820151600282015560608201516003820180546001600160a01b0319166001600160a01b039092169190911790556080820151600482015560a0909101516005909101556010546126e1908890612f24565b601054876001600160a01b03167f3638cde15cf70057c6e625bd7b75808aa739ff9b0d015cf1c02093729926c0628888888888886040516127279695949392919061426b565b60405180910390a36010805490600061273f836141fd565b919050555050505050505050565b606061275882612912565b600061276f60408051602081019091526000815290565b9050600081511161278f57604051806020016040528060008152506127ba565b8061279984612f3e565b6040516020016127aa9291906142b0565b6040516020818303038152906040525b9392505050565b6127c96139a2565b6000828152600e60209081526040918290208251815460e09381028201840190945260c08101848152909391928492849184018282801561282957602002820191906000526020600020905b815481526020019060010190808311612815575b5050509183525050600182015460208201526002820154604082015260038201546001600160a01b031660608201526004820154608082015260059091015460a09091015292915050565b61287c612c76565b6001600160a01b0381166128e15760405162461bcd60e51b815260206004820152602660248201527f4f776e61626c653a206e6577206f776e657220697320746865207a65726f206160448201526564647265737360d01b6064820152608401610635565b6128ea81612cd0565b50565b60006001600160e01b0319821663780e9d6360e01b1480610502575061050282612fd1565b6000818152600260205260409020546001600160a01b03166128ea5760405162461bcd60e51b8152602060048201526018602482015277115490cdcc8c4e881a5b9d985b1a59081d1bdad95b88125160421b6044820152606401610635565b600081815260046020526040902080546001600160a01b0319166001600160a01b03841690811790915581906129a682611331565b6001600160a01b03167f8c5be1e5ebec7d5bd14f71427d1e84f3dd0314c0f7b2291e5b200ac8c7c3b92560405160405180910390a45050565b6000806129eb83611331565b9050806001600160a01b0316846001600160a01b03161480612a3257506001600160a01b0380821660009081526005602090815260408083209388168352929052205460ff165b806106e45750836001600160a01b0316612a4b8461059a565b6001600160a01b031614949350505050565b826001600160a01b0316612a7082611331565b6001600160a01b031614612a965760405162461bcd60e51b8152600401610635906142df565b6001600160a01b038216612af85760405162461bcd60e51b8152602060048201526024808201527f4552433732313a207472616e7366657220746f20746865207a65726f206164646044820152637265737360e01b6064820152608401610635565b612b058383836001613021565b826001600160a01b0316612b1882611331565b6001600160a01b031614612b3e5760405162461bcd60e51b8152600401610635906142df565b600081815260046020908152604080832080546001600160a01b03199081169091556001600160a01b0387811680865260038552838620805460001901905590871680865283862080546001019055868652600290945282852080549092168417909155905184937fddf252ad1be2c89b69c2b068fc378daa952ba7f163c4a11628f55a4df523b3ef91a4505050565b6113fb8282604051602401612be4929190614324565b60408051601f198184030181529190526020810180516001600160e01b0316632d839cb360e21b17905261302d565b6040516001600160a01b0383166024820152604481018290526106d690849063a9059cbb60e01b906064015b60408051601f198184030181529190526020810180516001600160e01b03166001600160e01b03199093169290921790915261304e565b600a546001600160a01b031633146114975760405162461bcd60e51b815260206004820181905260248201527f4f776e61626c653a2063616c6c6572206973206e6f7420746865206f776e65726044820152606401610635565b600a80546001600160a01b038381166001600160a01b0319831681179093556040519116919082907f8be0079c531659141344cd1fd0a4f28419497f9722a3daafe3b4186f6b6457e090600090a35050565b6000612d2d82611331565b9050612d3d816000846001613021565b612d4682611331565b600083815260046020908152604080832080546001600160a01b03199081169091556001600160a01b0385168085526003845282852080546000190190558785526002909352818420805490911690555192935084927fddf252ad1be2c89b69c2b068fc378daa952ba7f163c4a11628f55a4df523b3ef908390a45050565b816001600160a01b0316836001600160a01b031603612e265760405162461bcd60e51b815260206004820152601960248201527f4552433732313a20617070726f766520746f2063616c6c6572000000000000006044820152606401610635565b6001600160a01b03838116600081815260056020908152604080832094871680845294825291829020805460ff191686151590811790915591519182527f17307eab39ab6107e8899845ad3d59bd9653f200f220920489ca2b5937696c319101611324565b6113fb8282604051602401612ea1929190614337565b60408051601f198184030181529190526020810180516001600160e01b031663319af33360e01b17905261302d565b61205f846323b872dd60e01b858585604051602401612c3f9392919061414b565b612efc848484612a5d565b612f0884848484613120565b61205f5760405162461bcd60e51b815260040161063590614361565b6113fb82826040518060200160405280600081525061321e565b60606000612f4b83613251565b600101905060008167ffffffffffffffff811115612f6b57612f6b613b4f565b6040519080825280601f01601f191660200182016040528015612f95576020820181803683370190505b5090508181016020015b600019016f181899199a1a9b1b9c1cb0b131b232b360811b600a86061a8153600a8504945084612f9f57509392505050565b60006001600160e01b031982166380ac58cd60e01b148061300257506001600160e01b03198216635b5e139f60e01b145b8061050257506301ffc9a760e01b6001600160e01b0319831614610502565b61205f84848484613329565b80516a636f6e736f6c652e6c6f67602083016000808483855afa5050505050565b60006130a3826040518060400160405280602081526020017f5361666545524332303a206c6f772d6c6576656c2063616c6c206661696c6564815250856001600160a01b03166134699092919063ffffffff16565b8051909150156106d657808060200190518101906130c1919061424e565b6106d65760405162461bcd60e51b815260206004820152602a60248201527f5361666545524332303a204552433230206f7065726174696f6e20646964206e6044820152691bdd081cdd58d8d9595960b21b6064820152608401610635565b60006001600160a01b0384163b1561321657604051630a85bd0160e11b81526001600160a01b0385169063150b7a02906131649033908990889088906004016143b3565b6020604051808303816000875af192505050801561319f575060408051601f3d908101601f1916820190925261319c918101906143f0565b60015b6131fc573d8080156131cd576040519150601f19603f3d011682016040523d82523d6000602084013e6131d2565b606091505b5080516000036131f45760405162461bcd60e51b815260040161063590614361565b805181602001fd5b6001600160e01b031916630a85bd0160e11b1490506106e4565b5060016106e4565b6132288383613478565b6132356000848484613120565b6106d65760405162461bcd60e51b815260040161063590614361565b60008072184f03e93ff9f4daa797ed6e38ed64bf6a1f0160401b83106132905772184f03e93ff9f4daa797ed6e38ed64bf6a1f0160401b830492506040015b6d04ee2d6d415b85acef810000000083106132bc576d04ee2d6d415b85acef8100000000830492506020015b662386f26fc1000083106132da57662386f26fc10000830492506010015b6305f5e10083106132f2576305f5e100830492506008015b612710831061330657612710830492506004015b60648310613318576064830492506002015b600a83106105025760010192915050565b61333584848484613611565b60018111156133a45760405162461bcd60e51b815260206004820152603560248201527f455243373231456e756d657261626c653a20636f6e7365637574697665207472604482015274185b9cd9995c9cc81b9bdd081cdd5c1c1bdc9d1959605a1b6064820152608401610635565b816001600160a01b038516613400576133fb81600880546000838152600960205260408120829055600182018355919091527ff3f7a9fe364faab93b216da50a3214154f22a0a2b415b23a84c8169e8b636ee30155565b613423565b836001600160a01b0316856001600160a01b031614613423576134238582613699565b6001600160a01b03841661343f5761343a81613736565b613462565b846001600160a01b0316846001600160a01b0316146134625761346284826137e5565b5050505050565b60606106e48484600085613829565b6001600160a01b0382166134ce5760405162461bcd60e51b815260206004820181905260248201527f4552433732313a206d696e7420746f20746865207a65726f20616464726573736044820152606401610635565b6000818152600260205260409020546001600160a01b0316156135335760405162461bcd60e51b815260206004820152601c60248201527f4552433732313a20746f6b656e20616c7265616479206d696e746564000000006044820152606401610635565b613541600083836001613021565b6000818152600260205260409020546001600160a01b0316156135a65760405162461bcd60e51b815260206004820152601c60248201527f4552433732313a20746f6b656e20616c7265616479206d696e746564000000006044820152606401610635565b6001600160a01b038216600081815260036020908152604080832080546001019055848352600290915280822080546001600160a01b0319168417905551839291907fddf252ad1be2c89b69c2b068fc378daa952ba7f163c4a11628f55a4df523b3ef908290a45050565b600181111561205f576001600160a01b03841615613657576001600160a01b038416600090815260036020526040812080548392906136519084906141ea565b90915550505b6001600160a01b0383161561205f576001600160a01b0383166000908152600360205260408120805483929061368e9084906141d7565b909155505050505050565b600060016136a6846113ff565b6136b091906141ea565b600083815260076020526040902054909150808214613703576001600160a01b03841660009081526006602090815260408083208584528252808320548484528184208190558352600790915290208190555b5060009182526007602090815260408084208490556001600160a01b039094168352600681528383209183525290812055565b600854600090613748906001906141ea565b6000838152600960205260408120546008805493945090928490811061377057613770614135565b90600052602060002001549050806008838154811061379157613791614135565b60009182526020808320909101929092558281526009909152604080822084905585825281205560088054806137c9576137c9614238565b6001900381819060005260206000200160009055905550505050565b60006137f0836113ff565b6001600160a01b039093166000908152600660209081526040808320868452825280832085905593825260079052919091209190915550565b60608247101561388a5760405162461bcd60e51b815260206004820152602660248201527f416464726573733a20696e73756666696369656e742062616c616e636520666f6044820152651c8818d85b1b60d21b6064820152608401610635565b600080866001600160a01b031685876040516138a6919061440d565b60006040518083038185875af1925050503d80600081146138e3576040519150601f19603f3d011682016040523d82523d6000602084013e6138e8565b606091505b50915091506138f987838387613904565b979650505050505050565b6060831561397357825160000361396c576001600160a01b0385163b61396c5760405162461bcd60e51b815260206004820152601d60248201527f416464726573733a2063616c6c20746f206e6f6e2d636f6e74726163740000006044820152606401610635565b50816106e4565b6106e483838151156139885781518083602001fd5b8060405162461bcd60e51b81526004016106359190613ae2565b6040518060c0016040528060608152602001600081526020016000815260200160006001600160a01b0316815260200160008152602001600081525090565b50805460008255906000526020600020908101906128ea9190613a4a565b828054828255906000526020600020908101928215613a3a579160200282015b82811115613a3a578251825591602001919060010190613a1f565b50613a46929150613a4a565b5090565b5b80821115613a465760008155600101613a4b565b6001600160e01b0319811681146128ea57600080fd5b600060208284031215613a8757600080fd5b81356127ba81613a5f565b60005b83811015613aad578181015183820152602001613a95565b50506000910152565b60008151808452613ace816020860160208601613a92565b601f01601f19169290920160200192915050565b6020815260006127ba6020830184613ab6565b600060208284031215613b0757600080fd5b5035919050565b6001600160a01b03811681146128ea57600080fd5b60008060408385031215613b3657600080fd5b8235613b4181613b0e565b946020939093013593505050565b634e487b7160e01b600052604160045260246000fd5b604051601f8201601f1916810167ffffffffffffffff81118282101715613b8e57613b8e613b4f565b604052919050565b60008060008060808587031215613bac57600080fd5b8435613bb781613b0e565b9350602085810135613bc881613b0e565b935060408601359250606086013567ffffffffffffffff80821115613bec57600080fd5b818801915088601f830112613c0057600080fd5b813581811115613c1257613c12613b4f565b613c24601f8201601f19168501613b65565b91508082528984828501011115613c3a57600080fd5b808484018584013760008482840101525080935050505092959194509250565b600080600060608486031215613c6f57600080fd5b8335613c7a81613b0e565b92506020840135613c8a81613b0e565b929592945050506040919091013590565b60008060408385031215613cae57600080fd5b50508035926020909101359150565b600082601f830112613cce57600080fd5b8135602067ffffffffffffffff821115613cea57613cea613b4f565b8160051b613cf9828201613b65565b9283528481018201928281019087851115613d1357600080fd5b83870192505b848310156138f957823582529183019190830190613d19565b60008060008060808587031215613d4857600080fd5b8435613d5381613b0e565b9350602085013567ffffffffffffffff80821115613d7057600080fd5b613d7c88838901613cbd565b94506040870135915080821115613d9257600080fd5b50613d9f87828801613cbd565b949793965093946060013593505050565b600080600060608486031215613dc557600080fd5b833592506020840135613c8a81613b0e565b600060208284031215613de957600080fd5b813567ffffffffffffffff811115613e0057600080fd5b6106e484828501613cbd565b600060208284031215613e1e57600080fd5b81356127ba81613b0e565b80151581146128ea57600080fd5b60008060408385031215613e4a57600080fd5b8235613e5581613b0e565b91506020830135613e6581613e29565b809150509250929050565b600080600060608486031215613e8557600080fd5b8335613e9081613b0e565b9250602084013567ffffffffffffffff811115613eac57600080fd5b613eb886828701613cbd565b925050604084013590509250925092565b600060208284031215613edb57600080fd5b81356127ba81613e29565b600080600080600080600060e0888a031215613f0157600080fd5b8735613f0c81613b0e565b9650602088013567ffffffffffffffff811115613f2857600080fd5b613f348a828b01613cbd565b96505060408801359450606088013593506080880135613f5381613b0e565b9699959850939692959460a0840135945060c09093013592915050565b600081518084526020808501945080840160005b83811015613fa057815187529582019590820190600101613f84565b509495945050505050565b602081526000825160c06020840152613fc760e0840182613f70565b9050602084015160408401526040840151606084015260018060a01b036060850151166080840152608084015160a084015260a084015160c08401528091505092915050565b6000806040838503121561402057600080fd5b823561402b81613b0e565b91506020830135613e6581613b0e565b600181811c9082168061404f57607f821691505b60208210810361406f57634e487b7160e01b600052602260045260246000fd5b50919050565b6020808252602d908201527f4552433732313a2063616c6c6572206973206e6f7420746f6b656e206f776e6560408201526c1c881bdc88185c1c1c9bdd9959609a1b606082015260800190565b60208082526014908201527326bab9ba1037bbb7102628103837b9b4ba34b7b760611b604082015260600190565b6020808252600e908201526d141bdbdb081a5cc81c185d5cd95960921b604082015260600190565b60006020828403121561412a57600080fd5b81516127ba81613b0e565b634e487b7160e01b600052603260045260246000fd5b6001600160a01b039384168152919092166020820152604081019190915260600190565b634e487b7160e01b600052601160045260246000fd5b80820281158282048414176105025761050261416f565b6000826141b957634e487b7160e01b600052601260045260246000fd5b500490565b6000602082840312156141d057600080fd5b5051919050565b808201808211156105025761050261416f565b818103818111156105025761050261416f565b60006001820161420f5761420f61416f565b5060010190565b6040815260006142296040830185613f70565b90508260208301529392505050565b634e487b7160e01b600052603160045260246000fd5b60006020828403121561426057600080fd5b81516127ba81613e29565b60c08152600061427e60c0830189613f70565b60208301979097525060408101949094526001600160a01b03929092166060840152608083015260a090910152919050565b600083516142c2818460208801613a92565b8351908301906142d6818360208801613a92565b01949350505050565b60208082526025908201527f4552433732313a207472616e736665722066726f6d20696e636f72726563742060408201526437bbb732b960d91b606082015260800190565b6040815260006142296040830185613ab6565b60408152600061434a6040830185613ab6565b905060018060a01b03831660208301529392505050565b60208082526032908201527f4552433732313a207472616e7366657220746f206e6f6e20455243373231526560408201527131b2b4bb32b91034b6b83632b6b2b73a32b960711b606082015260800190565b6001600160a01b03858116825284166020820152604081018390526080606082018190526000906143e690830184613ab6565b9695505050505050565b60006020828403121561440257600080fd5b81516127ba81613a5f565b6000825161441f818460208701613a92565b919091019291505056fea2646970667358221220acec54e4ae1ca17e671b45f08dfe2b5cc18bca85108146bc8e871d69eea24bd064736f6c63430008110033a2646970667358221220e8df9c7d2e0b995b4302d0fe30d6ffd8ab9021b754a7477a34263f91de8609b664736f6c63430008110033",
  "linkReferences": {},
  "deployedLinkReferences": {}
}