{
  "_format": "hh-sol-artifact-1",
  "contractName": "TradingPool",
  "sourceName": "contracts/protocol/Trading/TradingPool.sol",
  "abi": [
    {
      "inputs": [
        {
          "internalType": "contract IAddressesProvider",
          "name": "addressProvider",
          "type": "address"
        },
        {
          "internalType": "address",
          "name": "owner",
          "type": "address"
        },
        {
          "internalType": "contract IERC20",
          "name": "token",
          "type": "address"
        },
        {
          "internalType": "address",
          "name": "nft",
          "type": "address"
        },
        {
          "internalType": "uint256",
          "name": "defaultSwapFee",
          "type": "uint256"
        },
        {
          "internalType": "string",
          "name": "name",
          "type": "string"
        },
        {
          "internalType": "string",
          "name": "symbol",
          "type": "string"
        }
      ],
      "stateMutability": "nonpayable",
      "type": "constructor"
    },
    {
      "anonymous": false,
      "inputs": [
        {
          "indexed": true,
          "internalType": "address",
          "name": "user",
          "type": "address"
        },
        {
          "indexed": true,
          "internalType": "uint256",
          "name": "id",
          "type": "uint256"
        },
        {
          "indexed": false,
          "internalType": "uint256[]",
          "name": "nftIds",
          "type": "uint256[]"
        },
        {
          "indexed": false,
          "internalType": "uint256",
          "name": "tokenAmount",
          "type": "uint256"
        },
        {
          "indexed": false,
          "internalType": "address",
          "name": "curve",
          "type": "address"
        },
        {
          "indexed": false,
          "internalType": "uint256",
          "name": "delta",
          "type": "uint256"
        },
        {
          "indexed": false,
          "internalType": "uint256",
          "name": "initalPrice",
          "type": "uint256"
        }
      ],
      "name": "AddLiquidity",
      "type": "event"
    },
    {
      "anonymous": false,
      "inputs": [
        {
          "indexed": true,
          "internalType": "address",
          "name": "owner",
          "type": "address"
        },
        {
          "indexed": true,
          "internalType": "address",
          "name": "approved",
          "type": "address"
        },
        {
          "indexed": true,
          "internalType": "uint256",
          "name": "tokenId",
          "type": "uint256"
        }
      ],
      "name": "Approval",
      "type": "event"
    },
    {
      "anonymous": false,
      "inputs": [
        {
          "indexed": true,
          "internalType": "address",
          "name": "owner",
          "type": "address"
        },
        {
          "indexed": true,
          "internalType": "address",
          "name": "operator",
          "type": "address"
        },
        {
          "indexed": false,
          "internalType": "bool",
          "name": "approved",
          "type": "bool"
        }
      ],
      "name": "ApprovalForAll",
      "type": "event"
    },
    {
      "anonymous": false,
      "inputs": [
        {
          "indexed": true,
          "internalType": "address",
          "name": "user",
          "type": "address"
        },
        {
          "indexed": false,
          "internalType": "uint256[]",
          "name": "nftIds",
          "type": "uint256[]"
        },
        {
          "indexed": false,
          "internalType": "uint256",
          "name": "price",
          "type": "uint256"
        }
      ],
      "name": "Buy",
      "type": "event"
    },
    {
      "anonymous": false,
      "inputs": [
        {
          "indexed": true,
          "internalType": "address",
          "name": "previousOwner",
          "type": "address"
        },
        {
          "indexed": true,
          "internalType": "address",
          "name": "newOwner",
          "type": "address"
        }
      ],
      "name": "OwnershipTransferred",
      "type": "event"
    },
    {
      "anonymous": false,
      "inputs": [
        {
          "indexed": true,
          "internalType": "address",
          "name": "user",
          "type": "address"
        },
        {
          "indexed": true,
          "internalType": "uint256",
          "name": "id",
          "type": "uint256"
        }
      ],
      "name": "RemoveLiquidity",
      "type": "event"
    },
    {
      "anonymous": false,
      "inputs": [
        {
          "indexed": true,
          "internalType": "address",
          "name": "user",
          "type": "address"
        },
        {
          "indexed": false,
          "internalType": "uint256[]",
          "name": "nftIds",
          "type": "uint256[]"
        },
        {
          "indexed": false,
          "internalType": "uint256",
          "name": "price",
          "type": "uint256"
        }
      ],
      "name": "Sell",
      "type": "event"
    },
    {
      "anonymous": false,
      "inputs": [
        {
          "indexed": true,
          "internalType": "address",
          "name": "from",
          "type": "address"
        },
        {
          "indexed": true,
          "internalType": "address",
          "name": "to",
          "type": "address"
        },
        {
          "indexed": true,
          "internalType": "uint256",
          "name": "tokenId",
          "type": "uint256"
        }
      ],
      "name": "Transfer",
      "type": "event"
    },
    {
      "inputs": [
        {
          "internalType": "address",
          "name": "receiver",
          "type": "address"
        },
        {
          "internalType": "uint256[]",
          "name": "nftIds",
          "type": "uint256[]"
        },
        {
          "internalType": "uint256",
          "name": "tokenAmount",
          "type": "uint256"
        },
        {
          "internalType": "address",
          "name": "curve",
          "type": "address"
        },
        {
          "internalType": "uint256",
          "name": "delta",
          "type": "uint256"
        },
        {
          "internalType": "uint256",
          "name": "initialPrice",
          "type": "uint256"
        }
      ],
      "name": "addLiquidity",
      "outputs": [],
      "stateMutability": "nonpayable",
      "type": "function"
    },
    {
      "inputs": [
        {
          "internalType": "address",
          "name": "to",
          "type": "address"
        },
        {
          "internalType": "uint256",
          "name": "tokenId",
          "type": "uint256"
        }
      ],
      "name": "approve",
      "outputs": [],
      "stateMutability": "nonpayable",
      "type": "function"
    },
    {
      "inputs": [
        {
          "internalType": "address",
          "name": "owner",
          "type": "address"
        }
      ],
      "name": "balanceOf",
      "outputs": [
        {
          "internalType": "uint256",
          "name": "",
          "type": "uint256"
        }
      ],
      "stateMutability": "view",
      "type": "function"
    },
    {
      "inputs": [
        {
          "internalType": "address",
          "name": "onBehalfOf",
          "type": "address"
        },
        {
          "internalType": "uint256[]",
          "name": "nftIds",
          "type": "uint256[]"
        },
        {
          "internalType": "uint256",
          "name": "maximumPrice",
          "type": "uint256"
        }
      ],
      "name": "buy",
      "outputs": [
        {
          "internalType": "uint256",
          "name": "",
          "type": "uint256"
        }
      ],
      "stateMutability": "nonpayable",
      "type": "function"
    },
    {
      "inputs": [
        {
          "internalType": "uint256",
          "name": "tokenId",
          "type": "uint256"
        }
      ],
      "name": "getApproved",
      "outputs": [
        {
          "internalType": "address",
          "name": "",
          "type": "address"
        }
      ],
      "stateMutability": "view",
      "type": "function"
    },
    {
      "inputs": [
        {
          "internalType": "uint256",
          "name": "lpId",
          "type": "uint256"
        }
      ],
      "name": "getLP",
      "outputs": [
        {
          "components": [
            {
              "internalType": "uint256[]",
              "name": "nftIds",
              "type": "uint256[]"
            },
            {
              "internalType": "uint256",
              "name": "tokenAmount",
              "type": "uint256"
            },
            {
              "internalType": "address",
              "name": "curve",
              "type": "address"
            },
            {
              "internalType": "uint256",
              "name": "delta",
              "type": "uint256"
            },
            {
              "internalType": "uint256",
              "name": "price",
              "type": "uint256"
            }
          ],
          "internalType": "struct DataTypes.LiquidityPair",
          "name": "",
          "type": "tuple"
        }
      ],
      "stateMutability": "view",
      "type": "function"
    },
    {
      "inputs": [],
      "name": "getNFT",
      "outputs": [
        {
          "internalType": "address",
          "name": "",
          "type": "address"
        }
      ],
      "stateMutability": "view",
      "type": "function"
    },
    {
      "inputs": [],
      "name": "getSwapFee",
      "outputs": [
        {
          "internalType": "uint256",
          "name": "",
          "type": "uint256"
        }
      ],
      "stateMutability": "view",
      "type": "function"
    },
    {
      "inputs": [],
      "name": "getToken",
      "outputs": [
        {
          "internalType": "address",
          "name": "",
          "type": "address"
        }
      ],
      "stateMutability": "view",
      "type": "function"
    },
    {
      "inputs": [
        {
          "internalType": "address",
          "name": "owner",
          "type": "address"
        },
        {
          "internalType": "address",
          "name": "operator",
          "type": "address"
        }
      ],
      "name": "isApprovedForAll",
      "outputs": [
        {
          "internalType": "bool",
          "name": "",
          "type": "bool"
        }
      ],
      "stateMutability": "view",
      "type": "function"
    },
    {
      "inputs": [],
      "name": "name",
      "outputs": [
        {
          "internalType": "string",
          "name": "",
          "type": "string"
        }
      ],
      "stateMutability": "view",
      "type": "function"
    },
    {
      "inputs": [
        {
          "internalType": "uint256",
          "name": "nftId",
          "type": "uint256"
        }
      ],
      "name": "nftToLp",
      "outputs": [
        {
          "internalType": "uint256",
          "name": "",
          "type": "uint256"
        }
      ],
      "stateMutability": "view",
      "type": "function"
    },
    {
      "inputs": [
        {
          "internalType": "address",
          "name": "",
          "type": "address"
        },
        {
          "internalType": "address",
          "name": "",
          "type": "address"
        },
        {
          "internalType": "uint256",
          "name": "",
          "type": "uint256"
        },
        {
          "internalType": "bytes",
          "name": "",
          "type": "bytes"
        }
      ],
      "name": "onERC721Received",
      "outputs": [
        {
          "internalType": "bytes4",
          "name": "",
          "type": "bytes4"
        }
      ],
      "stateMutability": "nonpayable",
      "type": "function"
    },
    {
      "inputs": [],
      "name": "owner",
      "outputs": [
        {
          "internalType": "address",
          "name": "",
          "type": "address"
        }
      ],
      "stateMutability": "view",
      "type": "function"
    },
    {
      "inputs": [
        {
          "internalType": "uint256",
          "name": "tokenId",
          "type": "uint256"
        }
      ],
      "name": "ownerOf",
      "outputs": [
        {
          "internalType": "address",
          "name": "",
          "type": "address"
        }
      ],
      "stateMutability": "view",
      "type": "function"
    },
    {
      "inputs": [
        {
          "internalType": "uint256",
          "name": "lpId",
          "type": "uint256"
        }
      ],
      "name": "removeLiquidity",
      "outputs": [],
      "stateMutability": "nonpayable",
      "type": "function"
    },
    {
      "inputs": [],
      "name": "renounceOwnership",
      "outputs": [],
      "stateMutability": "nonpayable",
      "type": "function"
    },
    {
      "inputs": [
        {
          "internalType": "address",
          "name": "from",
          "type": "address"
        },
        {
          "internalType": "address",
          "name": "to",
          "type": "address"
        },
        {
          "internalType": "uint256",
          "name": "tokenId",
          "type": "uint256"
        }
      ],
      "name": "safeTransferFrom",
      "outputs": [],
      "stateMutability": "nonpayable",
      "type": "function"
    },
    {
      "inputs": [
        {
          "internalType": "address",
          "name": "from",
          "type": "address"
        },
        {
          "internalType": "address",
          "name": "to",
          "type": "address"
        },
        {
          "internalType": "uint256",
          "name": "tokenId",
          "type": "uint256"
        },
        {
          "internalType": "bytes",
          "name": "data",
          "type": "bytes"
        }
      ],
      "name": "safeTransferFrom",
      "outputs": [],
      "stateMutability": "nonpayable",
      "type": "function"
    },
    {
      "inputs": [
        {
          "internalType": "address",
          "name": "onBehalfOf",
          "type": "address"
        },
        {
          "internalType": "uint256[]",
          "name": "nftIds",
          "type": "uint256[]"
        },
        {
          "internalType": "uint256[]",
          "name": "liquidityPairs",
          "type": "uint256[]"
        },
        {
          "internalType": "uint256",
          "name": "minimumPrice",
          "type": "uint256"
        }
      ],
      "name": "sell",
      "outputs": [
        {
          "internalType": "uint256",
          "name": "",
          "type": "uint256"
        }
      ],
      "stateMutability": "nonpayable",
      "type": "function"
    },
    {
      "inputs": [
        {
          "internalType": "address",
          "name": "operator",
          "type": "address"
        },
        {
          "internalType": "bool",
          "name": "approved",
          "type": "bool"
        }
      ],
      "name": "setApprovalForAll",
      "outputs": [],
      "stateMutability": "nonpayable",
      "type": "function"
    },
    {
      "inputs": [
        {
          "internalType": "bool",
          "name": "paused",
          "type": "bool"
        }
      ],
      "name": "setPause",
      "outputs": [],
      "stateMutability": "nonpayable",
      "type": "function"
    },
    {
      "inputs": [
        {
          "internalType": "uint256",
          "name": "newSwapFee",
          "type": "uint256"
        }
      ],
      "name": "setSwapFee",
      "outputs": [],
      "stateMutability": "nonpayable",
      "type": "function"
    },
    {
      "inputs": [
        {
          "internalType": "bytes4",
          "name": "interfaceId",
          "type": "bytes4"
        }
      ],
      "name": "supportsInterface",
      "outputs": [
        {
          "internalType": "bool",
          "name": "",
          "type": "bool"
        }
      ],
      "stateMutability": "view",
      "type": "function"
    },
    {
      "inputs": [],
      "name": "symbol",
      "outputs": [
        {
          "internalType": "string",
          "name": "",
          "type": "string"
        }
      ],
      "stateMutability": "view",
      "type": "function"
    },
    {
      "inputs": [
        {
          "internalType": "uint256",
          "name": "index",
          "type": "uint256"
        }
      ],
      "name": "tokenByIndex",
      "outputs": [
        {
          "internalType": "uint256",
          "name": "",
          "type": "uint256"
        }
      ],
      "stateMutability": "view",
      "type": "function"
    },
    {
      "inputs": [
        {
          "internalType": "address",
          "name": "owner",
          "type": "address"
        },
        {
          "internalType": "uint256",
          "name": "index",
          "type": "uint256"
        }
      ],
      "name": "tokenOfOwnerByIndex",
      "outputs": [
        {
          "internalType": "uint256",
          "name": "",
          "type": "uint256"
        }
      ],
      "stateMutability": "view",
      "type": "function"
    },
    {
      "inputs": [
        {
          "internalType": "uint256",
          "name": "tokenId",
          "type": "uint256"
        }
      ],
      "name": "tokenURI",
      "outputs": [
        {
          "internalType": "string",
          "name": "",
          "type": "string"
        }
      ],
      "stateMutability": "view",
      "type": "function"
    },
    {
      "inputs": [],
      "name": "totalSupply",
      "outputs": [
        {
          "internalType": "uint256",
          "name": "",
          "type": "uint256"
        }
      ],
      "stateMutability": "view",
      "type": "function"
    },
    {
      "inputs": [
        {
          "internalType": "address",
          "name": "from",
          "type": "address"
        },
        {
          "internalType": "address",
          "name": "to",
          "type": "address"
        },
        {
          "internalType": "uint256",
          "name": "tokenId",
          "type": "uint256"
        }
      ],
      "name": "transferFrom",
      "outputs": [],
      "stateMutability": "nonpayable",
      "type": "function"
    },
    {
      "inputs": [
        {
          "internalType": "address",
          "name": "newOwner",
          "type": "address"
        }
      ],
      "name": "transferOwnership",
      "outputs": [],
      "stateMutability": "nonpayable",
      "type": "function"
    }
  ],
  "bytecode": "0x60806040523480156200001157600080fd5b506040516200434b3803806200434b8339810160408190526200003491620002dd565b8181600062000044838262000436565b50600162000053828262000436565b505050620000706200006a620001a960201b60201c565b620001ad565b866001600160a01b031663ca1470ea6040518163ffffffff1660e01b8152600401602060405180830381865afa158015620000af573d6000803e3d6000fd5b505050506040513d601f19601f82011682018060405250810190620000d5919062000502565b6001600160a01b0316336001600160a01b0316146200014f5760405162461bcd60e51b815260206004820152602c60248201527f54726164696e6720506f6f6c206d75737420626520637265617465642074687260448201526b6f75676820466163746f727960a01b606482015260840160405180910390fd5b600b80546001600160a01b03808a166001600160a01b031992831617909255600c8054888416908316179055600d805492871692909116919091179055600e8390556200019c86620001ad565b5050505050505062000529565b3390565b600a80546001600160a01b038381166001600160a01b0319831681179093556040519116919082907f8be0079c531659141344cd1fd0a4f28419497f9722a3daafe3b4186f6b6457e090600090a35050565b6001600160a01b03811681146200021557600080fd5b50565b634e487b7160e01b600052604160045260246000fd5b600082601f8301126200024057600080fd5b81516001600160401b03808211156200025d576200025d62000218565b604051601f8301601f19908116603f0116810190828211818310171562000288576200028862000218565b81604052838152602092508683858801011115620002a557600080fd5b600091505b83821015620002c95785820183015181830184015290820190620002aa565b600093810190920192909252949350505050565b600080600080600080600060e0888a031215620002f957600080fd5b87516200030681620001ff565b60208901519097506200031981620001ff565b60408901519096506200032c81620001ff565b60608901519095506200033f81620001ff565b608089015160a08a015191955093506001600160401b03808211156200036457600080fd5b620003728b838c016200022e565b935060c08a01519150808211156200038957600080fd5b50620003988a828b016200022e565b91505092959891949750929550565b600181811c90821680620003bc57607f821691505b602082108103620003dd57634e487b7160e01b600052602260045260246000fd5b50919050565b601f8211156200043157600081815260208120601f850160051c810160208610156200040c5750805b601f850160051c820191505b818110156200042d5782815560010162000418565b5050505b505050565b81516001600160401b0381111562000452576200045262000218565b6200046a81620004638454620003a7565b84620003e3565b602080601f831160018114620004a25760008415620004895750858301515b600019600386901b1c1916600185901b1785556200042d565b600085815260208120601f198616915b82811015620004d357888601518255948401946001909101908401620004b2565b5085821015620004f25787850151600019600388901b60f8161c191681555b5050505050600190811b01905550565b6000602082840312156200051557600080fd5b81516200052281620001ff565b9392505050565b613e1280620005396000396000f3fe608060405234801561001057600080fd5b50600436106101e55760003560e01c806370a082311161010f578063b31f0d62116100a2578063cdd3f29811610071578063cdd3f29814610425578063d4cadf6814610445578063e985e9c51461044d578063f2fde38b1461048957600080fd5b8063b31f0d62146103d9578063b88d4fde146103ec578063bedb86fb146103ff578063c87b56dd1461041257600080fd5b8063954c8f94116100de578063954c8f941461039857806395d89b41146103ab5780639c8f9f23146103b3578063a22cb465146103c657600080fd5b806370a082311461035b578063715018a61461036e57806388a6360e146103765780638da5cb5b1461038757600080fd5b806323b872dd1161018757806349591b511161015657806349591b51146103025780634f6ccce7146103155780635460d849146103285780636352211e1461034857600080fd5b806323b872dd146102b65780632f745c59146102c957806334e19907146102dc57806342842e0e146102ef57600080fd5b8063095ea7b3116101c3578063095ea7b314610252578063150b7a021461026757806318160ddd1461029357806321df0da7146102a557600080fd5b806301ffc9a7146101ea57806306fdde0314610212578063081812fc14610227575b600080fd5b6101fd6101f83660046134ef565b61049c565b60405190151581526020015b60405180910390f35b61021a6104ad565b604051610209919061355c565b61023a61023536600461356f565b61053f565b6040516001600160a01b039091168152602001610209565b61026561026036600461359d565b610566565b005b61027a610275366004613610565b610680565b6040516001600160e01b03199091168152602001610209565b6008545b604051908152602001610209565b600c546001600160a01b031661023a565b6102656102c43660046136d4565b610691565b6102976102d736600461359d565b6106c2565b6102656102ea36600461356f565b610758565b6102656102fd3660046136d4565b610765565b61029761031036600461378a565b610780565b61029761032336600461356f565b61110c565b61029761033636600461356f565b60009081526010602052604090205490565b61023a61035636600461356f565b61119f565b610297610369366004613808565b6111ff565b610265611285565b600d546001600160a01b031661023a565b600a546001600160a01b031661023a565b6102656103a6366004613825565b611299565b61021a611658565b6102656103c136600461356f565b611667565b6102656103d43660046138b1565b611894565b6102976103e73660046138ea565b6118a3565b6102656103fa366004613610565b612176565b61026561040d366004613943565b6121ae565b61021a61042036600461356f565b6121d4565b61043861043336600461356f565b612248565b604051610209919061399b565b600e54610297565b6101fd61045b3660046139f3565b6001600160a01b03918216600090815260056020908152604080832093909416825291909152205460ff1690565b610265610497366004613808565b6122f1565b60006104a78261236a565b92915050565b6060600080546104bc90613a21565b80601f01602080910402602001604051908101604052809291908181526020018280546104e890613a21565b80156105355780601f1061050a57610100808354040283529160200191610535565b820191906000526020600020905b81548152906001019060200180831161051857829003601f168201915b5050505050905090565b600061054a8261238f565b506000908152600460205260409020546001600160a01b031690565b60006105718261119f565b9050806001600160a01b0316836001600160a01b0316036105e35760405162461bcd60e51b815260206004820152602160248201527f4552433732313a20617070726f76616c20746f2063757272656e74206f776e656044820152603960f91b60648201526084015b60405180910390fd5b336001600160a01b03821614806105ff57506105ff813361045b565b6106715760405162461bcd60e51b815260206004820152603d60248201527f4552433732313a20617070726f76652063616c6c6572206973206e6f7420746f60448201527f6b656e206f776e6572206f7220617070726f76656420666f7220616c6c00000060648201526084016105da565b61067b83836123ee565b505050565b630a85bd0160e11b5b949350505050565b61069b338261245c565b6106b75760405162461bcd60e51b81526004016105da90613a5b565b61067b8383836124da565b60006106cd836111ff565b821061072f5760405162461bcd60e51b815260206004820152602b60248201527f455243373231456e756d657261626c653a206f776e657220696e646578206f7560448201526a74206f6620626f756e647360a81b60648201526084016105da565b506001600160a01b03919091166000908152600660209081526040808320938352929052205490565b61076061264b565b600e55565b61067b83838360405180602001604052806000815250612176565b600b54600090600160a01b900460ff16156107ad5760405162461bcd60e51b81526004016105da90613aa8565b82518451146108155760405162461bcd60e51b815260206004820152602e60248201527f4e46547320616e64204c6971756964697479205061697273206d75737420686160448201526d0ecca40e6c2daca40d8cadccee8d60931b60648201526084016105da565b60008451116108665760405162461bcd60e51b815260206004820152601d60248201527f4e65656420746f2073656c6c206174206c65617374206f6e65204e465400000060448201526064016105da565b6001600160a01b038516331461096b57600b60009054906101000a90046001600160a01b03166001600160a01b031663725c9c496040518163ffffffff1660e01b8152600401602060405180830381865afa1580156108c9573d6000803e3d6000fd5b505050506040513d601f19601f820116820180604052508101906108ed9190613ad0565b6001600160a01b0316336001600160a01b03161461096b5760405162461bcd60e51b815260206004820152603560248201527f4f6e6c792053776170526f757465722063616e2073656c6c206f6e20626568616044820152746c66206f6620616e6f74686572206164647265737360581b60648201526084016105da565b600080600080600061097b613427565b60005b8a51811015610de8576109df6040518060400160405280601a81526020017f5472616e73666572696e67204e465420257320746f20706f6f6c0000000000008152508c83815181106109d2576109d2613aed565b60200260200101516126a5565b600d548b516001600160a01b03909116906342842e0e908e9030908f9086908110610a0c57610a0c613aed565b60200260200101516040518463ffffffff1660e01b8152600401610a3293929190613b03565b600060405180830381600087803b158015610a4c57600080fd5b505af1158015610a60573d6000803e3d6000fd5b5050505060008a8281518110610a7857610a78613aed565b60200260200101519050600f60008281526020019081526020016000206040518060a001604052908160008201805480602002602001604051908101604052809291908181526020018280548015610aef57602002820191906000526020600020905b815481526020019060010190808311610adb575b50505091835250506001820154602082015260028201546001600160a01b0316604082015260038201546060820152600490910154608091820152600e549082015191945061271091610b429190613b3d565b610b4c9190613b54565b9650612710600b60009054906101000a90046001600160a01b03166001600160a01b031663ca1470ea6040518163ffffffff1660e01b8152600401602060405180830381865afa158015610ba4573d6000803e3d6000fd5b505050506040513d601f19601f82011682018060405250810190610bc89190613ad0565b6001600160a01b031663a5a410316040518163ffffffff1660e01b8152600401602060405180830381865afa158015610c05573d6000803e3d6000fd5b505050506040513d601f19601f82011682018060405250810190610c299190613b76565b610c339089613b3d565b610c3d9190613b54565b9350826080015188610c4f9190613b8f565b6000828152600f602052604090208d51919950908d9084908110610c7557610c75613aed565b6020908102919091018101518254600181018455600093845291909220015560808301518490610ca6908990613ba2565b610cb09190613b8f565b6000828152600f602052604081206001018054909190610cd1908490613ba2565b9091555050604083810151608085015160608601519251633698f96560e11b8152600481019190915260248101929092526001600160a01b031690636d31f2ca90604401602060405180830381865afa158015610d32573d6000803e3d6000fd5b505050506040513d601f19601f82011682018060405250810190610d569190613b76565b6000828152600f60208181526040808420600481019590955580518082019091528581529285905290815291549091820190610d9490600190613ba2565b815250601060008e8581518110610dad57610dad613aed565b602090810291909101810151825281810192909252604001600020825181559101516001909101555080610de081613bb5565b91505061097e565b50612710600e5487610dfa9190613b3d565b610e049190613b54565b9350610e108487613ba2565b925087831015610e625760405162461bcd60e51b815260206004820152601e60248201527f5072696365206c6f776572207468616e206d696e696d756d207072696365000060448201526064016105da565b610e7933600c546001600160a01b031690856126ea565b600b546040805163c891317360e01b81529051610fdf926001600160a01b03169163c89131739160048083019260209291908290030181865afa158015610ec4573d6000803e3d6000fd5b505050506040513d601f19601f82011682018060405250810190610ee89190613ad0565b600b546040805163650a387560e11b81529051612710926001600160a01b03169163ca1470ea9160048083019260209291908290030181865afa158015610f33573d6000803e3d6000fd5b505050506040513d601f19601f82011682018060405250810190610f579190613ad0565b6001600160a01b031663a5a410316040518163ffffffff1660e01b8152600401602060405180830381865afa158015610f94573d6000803e3d6000fd5b505050506040513d601f19601f82011682018060405250810190610fb89190613b76565b610fc29088613b3d565b610fcc9190613b54565b600c546001600160a01b031691906126ea565b600b60009054906101000a90046001600160a01b03166001600160a01b031663c89131736040518163ffffffff1660e01b8152600401602060405180830381865afa158015611032573d6000803e3d6000fd5b505050506040513d601f19601f820116820180604052508101906110569190613ad0565b600c546040516354b94c2f60e11b81526001600160a01b03918216600482015291169063a972985e90602401600060405180830381600087803b15801561109c57600080fd5b505af11580156110b0573d6000803e3d6000fd5b505050506110bb3390565b6001600160a01b03167feb3c528adebc70d317bef09706905761642981ebf9def9aafdc40f404e49346a8b856040516110f5929190613bce565b60405180910390a250909998505050505050505050565b600061111760085490565b821061117a5760405162461bcd60e51b815260206004820152602c60248201527f455243373231456e756d657261626c653a20676c6f62616c20696e646578206f60448201526b7574206f6620626f756e647360a01b60648201526084016105da565b6008828154811061118d5761118d613aed565b90600052602060002001549050919050565b6000818152600260205260408120546001600160a01b0316806104a75760405162461bcd60e51b8152602060048201526018602482015277115490cdcc8c4e881a5b9d985b1a59081d1bdad95b88125160421b60448201526064016105da565b60006001600160a01b0382166112695760405162461bcd60e51b815260206004820152602960248201527f4552433732313a2061646472657373207a65726f206973206e6f7420612076616044820152683634b21037bbb732b960b91b60648201526084016105da565b506001600160a01b031660009081526003602052604090205490565b61128d61264b565b611297600061274d565b565b600b54600160a01b900460ff16156112c35760405162461bcd60e51b81526004016105da90613aa8565b60008411806112d3575060008551115b6113185760405162461bcd60e51b81526020600482015260166024820152754465706f7369742063616e277420626520656d70747960501b60448201526064016105da565b600081116113745760405162461bcd60e51b8152602060048201526024808201527f496e697469616c207072696365206d75737420626520677265617465722074686044820152630616e20360e41b60648201526084016105da565b6040516301ffc9a760e01b8152631ac4ec4560e31b60048201526001600160a01b038416906301ffc9a790602401602060405180830381865afa1580156113bf573d6000803e3d6000fd5b505050506040513d601f19601f820116820180604052508101906113e39190613bf0565b61143b5760405162461bcd60e51b8152602060048201526024808201527f4375727665206d75737420626520612076616c696420637572766520636f6e746044820152631c9858dd60e21b60648201526084016105da565b60005b855181101561152b57600d546001600160a01b03166342842e0e333089858151811061146c5761146c613aed565b60200260200101516040518463ffffffff1660e01b815260040161149293929190613b03565b600060405180830381600087803b1580156114ac57600080fd5b505af11580156114c0573d6000803e3d6000fd5b505050506040518060400160405280601154815260200182815250601060008884815181106114f1576114f1613aed565b602090810291909101810151825281810192909252604001600020825181559101516001909101558061152381613bb5565b91505061143e565b5061154433600c546001600160a01b031690308761279f565b6040805160a08101825286815260208082018790526001600160a01b0386168284015260608201859052608082018490526011546000908152600f825292909220815180519293919261159a928492019061345f565b506020820151600182015560408201516002820180546001600160a01b0319166001600160a01b03909216919091179055606082015160038201556080909101516004909101556011546115ef9087906127c0565b601154866001600160a01b03167f3b67bb924a0e01cd52df231e47e53b28799a0f34d0ea653d1778cf3969492c1e8787878787604051611633959493929190613c0d565b60405180910390a36011805490600061164b83613bb5565b9190505550505050505050565b6060600180546104bc90613a21565b600b54600160a01b900460ff16156116915760405162461bcd60e51b81526004016105da90613aa8565b61169a8161119f565b6001600160a01b0316336001600160a01b0316146116f15760405162461bcd60e51b815260206004820152601460248201527326bab9ba1037bbb7102628103837b9b4ba34b7b760611b60448201526064016105da565b60005b6000828152600f60205260409020548110156117ef57600d546001600160a01b03166342842e0e30336000868152600f6020526040902080548690811061173d5761173d613aed565b90600052602060002001546040518463ffffffff1660e01b815260040161176693929190613b03565b600060405180830381600087803b15801561178057600080fd5b505af1158015611794573d6000803e3d6000fd5b5050506000838152600f60205260408120805460109350849081106117bb576117bb613aed565b60009182526020808320909101548352820192909252604001812081815560010155806117e781613bb5565b9150506116f4565b50611819336000838152600f6020526040902060010154600c546001600160a01b031691906126ea565b6000818152600f602052604081209061183282826134aa565b506000600182018190556002820180546001600160a01b031916905560038201819055600490910155611864816127da565b604051819033907fdfdd120ded9b7afc0c23dd5310e93aaa3e1c3b9f75af9b805fab3030842439f290600090a350565b61189f33838361287d565b5050565b600b54600090600160a01b900460ff16156118d05760405162461bcd60e51b81526004016105da90613aa8565b60008351116119215760405162461bcd60e51b815260206004820152601c60248201527f4e65656420746f20627579206174206c65617374206f6e65204e46540000000060448201526064016105da565b6000806000806000806000611934613427565b60005b8b51811015611e6d57601060008d838151811061195657611956613aed565b60200260200101518152602001908152602001600020600001549550600f60008781526020019081526020016000206040518060a0016040529081600082018054806020026020016040519081016040528092919081815260200182805480156119df57602002820191906000526020600020905b8154815260200190600101908083116119cb575b50505091835250506001820154602082015260028201546001600160a01b0390811660408084019190915260038401546060808501919091526004948501546080948501528582015193860151908601519151635d8b487160e11b81529485015260248401529294509091169063bb1690e290604401602060405180830381865afa158015611a72573d6000803e3d6000fd5b505050506040513d601f19601f82011682018060405250810190611a969190613b76565b9750612710600e5489611aa99190613b3d565b611ab39190613b54565b9450612710600b60009054906101000a90046001600160a01b03166001600160a01b031663ca1470ea6040518163ffffffff1660e01b8152600401602060405180830381865afa158015611b0b573d6000803e3d6000fd5b505050506040513d601f19601f82011682018060405250810190611b2f9190613ad0565b6001600160a01b031663a5a410316040518163ffffffff1660e01b8152600401602060405180830381865afa158015611b6c573d6000803e3d6000fd5b505050506040513d601f19601f82011682018060405250810190611b909190613b76565b611b9a9087613b3d565b611ba49190613b54565b6000878152600f60205260409020600481018a9055805491945090611bcb90600190613ba2565b81548110611bdb57611bdb613aed565b9060005260206000200154600f6000888152602001908152602001600020600001601060008f8581518110611c1257611c12613aed565b602002602001015181526020019081526020016000206001015481548110611c3c57611c3c613aed565b6000918252602080832090910192909255878152600f90915260409020805480611c6857611c68613c4d565b60019003818190600052602060002001600090559055828589611c8b9190613b8f565b611c959190613ba2565b6000878152600f602052604081206001018054909190611cb6908490613b8f565b90915550611cc69050888a613b8f565b9850611d226040518060400160405280600981526020016804e465420546f204c560bc1b815250601060008f8581518110611d0357611d03613aed565b60200260200101518152602001908152602001600020600001546126a5565b601060008d8381518110611d3857611d38613aed565b6020026020010151815260200190815260200160002060008082016000905560018201600090555050611d966040518060400160405280601381526020017229b2b73234b7339027232a103a37903ab9b2b960691b8152508e61294b565b611dca6040518060400160405280600681526020016513919508125160d21b8152508d83815181106109d2576109d2613aed565b600d60009054906101000a90046001600160a01b03166001600160a01b03166342842e0e308f8f8581518110611e0257611e02613aed565b60200260200101516040518463ffffffff1660e01b8152600401611e2893929190613b03565b600060405180830381600087803b158015611e4257600080fd5b505af1158015611e56573d6000803e3d6000fd5b505050508080611e6590613bb5565b915050611937565b50612710600e5489611e7f9190613b3d565b611e899190613b54565b9250611e958389613b8f565b955089861115611ee75760405162461bcd60e51b815260206004820152601f60248201527f507269636520686967686572207468616e206d6178696d756d2070726963650060448201526064016105da565b611eff33600c546001600160a01b031690308961279f565b600b546040805163c891317360e01b81529051612048926001600160a01b03169163c89131739160048083019260209291908290030181865afa158015611f4a573d6000803e3d6000fd5b505050506040513d601f19601f82011682018060405250810190611f6e9190613ad0565b600b546040805163650a387560e11b81529051612710926001600160a01b03169163ca1470ea9160048083019260209291908290030181865afa158015611fb9573d6000803e3d6000fd5b505050506040513d601f19601f82011682018060405250810190611fdd9190613ad0565b6001600160a01b031663a5a410316040518163ffffffff1660e01b8152600401602060405180830381865afa15801561201a573d6000803e3d6000fd5b505050506040513d601f19601f8201168201806040525081019061203e9190613b76565b610fc29087613b3d565b600b60009054906101000a90046001600160a01b03166001600160a01b031663c89131736040518163ffffffff1660e01b8152600401602060405180830381865afa15801561209b573d6000803e3d6000fd5b505050506040513d601f19601f820116820180604052508101906120bf9190613ad0565b600c546040516354b94c2f60e11b81526001600160a01b03918216600482015291169063a972985e90602401600060405180830381600087803b15801561210557600080fd5b505af1158015612119573d6000803e3d6000fd5b505050506121243390565b6001600160a01b03167f0306912acbf130bc61cce94222a394a64e258433196a3d3679a9bbfb8973f7738c8860405161215e929190613bce565b60405180910390a250939a9950505050505050505050565b612180338361245c565b61219c5760405162461bcd60e51b81526004016105da90613a5b565b6121a884848484612990565b50505050565b6121b661264b565b600b8054911515600160a01b0260ff60a01b19909216919091179055565b60606121df8261238f565b60006121f660408051602081019091526000815290565b905060008151116122165760405180602001604052806000815250612241565b80612220846129c3565b604051602001612231929190613c63565b6040516020818303038152906040525b9392505050565b612250613427565b6000828152600f60209081526040918290208251815460c09381028201840190945260a0810184815290939192849284918401828280156122b057602002820191906000526020600020905b81548152602001906001019080831161229c575b50505091835250506001820154602082015260028201546001600160a01b031660408201526003820154606082015260049091015460809091015292915050565b6122f961264b565b6001600160a01b03811661235e5760405162461bcd60e51b815260206004820152602660248201527f4f776e61626c653a206e6577206f776e657220697320746865207a65726f206160448201526564647265737360d01b60648201526084016105da565b6123678161274d565b50565b60006001600160e01b0319821663780e9d6360e01b14806104a757506104a782612a56565b6000818152600260205260409020546001600160a01b03166123675760405162461bcd60e51b8152602060048201526018602482015277115490cdcc8c4e881a5b9d985b1a59081d1bdad95b88125160421b60448201526064016105da565b600081815260046020526040902080546001600160a01b0319166001600160a01b03841690811790915581906124238261119f565b6001600160a01b03167f8c5be1e5ebec7d5bd14f71427d1e84f3dd0314c0f7b2291e5b200ac8c7c3b92560405160405180910390a45050565b6000806124688361119f565b9050806001600160a01b0316846001600160a01b031614806124af57506001600160a01b0380821660009081526005602090815260408083209388168352929052205460ff165b806106895750836001600160a01b03166124c88461053f565b6001600160a01b031614949350505050565b826001600160a01b03166124ed8261119f565b6001600160a01b0316146125135760405162461bcd60e51b81526004016105da90613c92565b6001600160a01b0382166125755760405162461bcd60e51b8152602060048201526024808201527f4552433732313a207472616e7366657220746f20746865207a65726f206164646044820152637265737360e01b60648201526084016105da565b6125828383836001612aa6565b826001600160a01b03166125958261119f565b6001600160a01b0316146125bb5760405162461bcd60e51b81526004016105da90613c92565b600081815260046020908152604080832080546001600160a01b03199081169091556001600160a01b0387811680865260038552838620805460001901905590871680865283862080546001019055868652600290945282852080549092168417909155905184937fddf252ad1be2c89b69c2b068fc378daa952ba7f163c4a11628f55a4df523b3ef91a4505050565b600a546001600160a01b031633146112975760405162461bcd60e51b815260206004820181905260248201527f4f776e61626c653a2063616c6c6572206973206e6f7420746865206f776e657260448201526064016105da565b61189f82826040516024016126bb929190613cd7565b60408051601f198184030181529190526020810180516001600160e01b0316632d839cb360e21b179052612ab2565b6040516001600160a01b03831660248201526044810182905261067b90849063a9059cbb60e01b906064015b60408051601f198184030181529190526020810180516001600160e01b03166001600160e01b031990931692909217909152612ad3565b600a80546001600160a01b038381166001600160a01b0319831681179093556040519116919082907f8be0079c531659141344cd1fd0a4f28419497f9722a3daafe3b4186f6b6457e090600090a35050565b6121a8846323b872dd60e01b85858560405160240161271693929190613b03565b61189f828260405180602001604052806000815250612ba5565b60006127e58261119f565b90506127f5816000846001612aa6565b6127fe8261119f565b600083815260046020908152604080832080546001600160a01b03199081169091556001600160a01b0385168085526003845282852080546000190190558785526002909352818420805490911690555192935084927fddf252ad1be2c89b69c2b068fc378daa952ba7f163c4a11628f55a4df523b3ef908390a45050565b816001600160a01b0316836001600160a01b0316036128de5760405162461bcd60e51b815260206004820152601960248201527f4552433732313a20617070726f766520746f2063616c6c65720000000000000060448201526064016105da565b6001600160a01b03838116600081815260056020908152604080832094871680845294825291829020805460ff191686151590811790915591519182527f17307eab39ab6107e8899845ad3d59bd9653f200f220920489ca2b5937696c31910160405180910390a3505050565b61189f8282604051602401612961929190613cea565b60408051601f198184030181529190526020810180516001600160e01b031663319af33360e01b179052612ab2565b61299b8484846124da565b6129a784848484612bd8565b6121a85760405162461bcd60e51b81526004016105da90613d14565b606060006129d083612cd6565b600101905060008167ffffffffffffffff8111156129f0576129f06135c9565b6040519080825280601f01601f191660200182016040528015612a1a576020820181803683370190505b5090508181016020015b600019016f181899199a1a9b1b9c1cb0b131b232b360811b600a86061a8153600a8504945084612a2457509392505050565b60006001600160e01b031982166380ac58cd60e01b1480612a8757506001600160e01b03198216635b5e139f60e01b145b806104a757506301ffc9a760e01b6001600160e01b03198316146104a7565b6121a884848484612dae565b80516a636f6e736f6c652e6c6f67602083016000808483855afa5050505050565b6000612b28826040518060400160405280602081526020017f5361666545524332303a206c6f772d6c6576656c2063616c6c206661696c6564815250856001600160a01b0316612eee9092919063ffffffff16565b80519091501561067b5780806020019051810190612b469190613bf0565b61067b5760405162461bcd60e51b815260206004820152602a60248201527f5361666545524332303a204552433230206f7065726174696f6e20646964206e6044820152691bdd081cdd58d8d9595960b21b60648201526084016105da565b612baf8383612efd565b612bbc6000848484612bd8565b61067b5760405162461bcd60e51b81526004016105da90613d14565b60006001600160a01b0384163b15612cce57604051630a85bd0160e11b81526001600160a01b0385169063150b7a0290612c1c903390899088908890600401613d66565b6020604051808303816000875af1925050508015612c57575060408051601f3d908101601f19168201909252612c5491810190613da3565b60015b612cb4573d808015612c85576040519150601f19603f3d011682016040523d82523d6000602084013e612c8a565b606091505b508051600003612cac5760405162461bcd60e51b81526004016105da90613d14565b805181602001fd5b6001600160e01b031916630a85bd0160e11b149050610689565b506001610689565b60008072184f03e93ff9f4daa797ed6e38ed64bf6a1f0160401b8310612d155772184f03e93ff9f4daa797ed6e38ed64bf6a1f0160401b830492506040015b6d04ee2d6d415b85acef81000000008310612d41576d04ee2d6d415b85acef8100000000830492506020015b662386f26fc100008310612d5f57662386f26fc10000830492506010015b6305f5e1008310612d77576305f5e100830492506008015b6127108310612d8b57612710830492506004015b60648310612d9d576064830492506002015b600a83106104a75760010192915050565b612dba84848484613096565b6001811115612e295760405162461bcd60e51b815260206004820152603560248201527f455243373231456e756d657261626c653a20636f6e7365637574697665207472604482015274185b9cd9995c9cc81b9bdd081cdd5c1c1bdc9d1959605a1b60648201526084016105da565b816001600160a01b038516612e8557612e8081600880546000838152600960205260408120829055600182018355919091527ff3f7a9fe364faab93b216da50a3214154f22a0a2b415b23a84c8169e8b636ee30155565b612ea8565b836001600160a01b0316856001600160a01b031614612ea857612ea8858261311e565b6001600160a01b038416612ec457612ebf816131bb565b612ee7565b846001600160a01b0316846001600160a01b031614612ee757612ee7848261326a565b5050505050565b606061068984846000856132ae565b6001600160a01b038216612f535760405162461bcd60e51b815260206004820181905260248201527f4552433732313a206d696e7420746f20746865207a65726f206164647265737360448201526064016105da565b6000818152600260205260409020546001600160a01b031615612fb85760405162461bcd60e51b815260206004820152601c60248201527f4552433732313a20746f6b656e20616c7265616479206d696e7465640000000060448201526064016105da565b612fc6600083836001612aa6565b6000818152600260205260409020546001600160a01b03161561302b5760405162461bcd60e51b815260206004820152601c60248201527f4552433732313a20746f6b656e20616c7265616479206d696e7465640000000060448201526064016105da565b6001600160a01b038216600081815260036020908152604080832080546001019055848352600290915280822080546001600160a01b0319168417905551839291907fddf252ad1be2c89b69c2b068fc378daa952ba7f163c4a11628f55a4df523b3ef908290a45050565b60018111156121a8576001600160a01b038416156130dc576001600160a01b038416600090815260036020526040812080548392906130d6908490613ba2565b90915550505b6001600160a01b038316156121a8576001600160a01b03831660009081526003602052604081208054839290613113908490613b8f565b909155505050505050565b6000600161312b846111ff565b6131359190613ba2565b600083815260076020526040902054909150808214613188576001600160a01b03841660009081526006602090815260408083208584528252808320548484528184208190558352600790915290208190555b5060009182526007602090815260408084208490556001600160a01b039094168352600681528383209183525290812055565b6008546000906131cd90600190613ba2565b600083815260096020526040812054600880549394509092849081106131f5576131f5613aed565b90600052602060002001549050806008838154811061321657613216613aed565b600091825260208083209091019290925582815260099091526040808220849055858252812055600880548061324e5761324e613c4d565b6001900381819060005260206000200160009055905550505050565b6000613275836111ff565b6001600160a01b039093166000908152600660209081526040808320868452825280832085905593825260079052919091209190915550565b60608247101561330f5760405162461bcd60e51b815260206004820152602660248201527f416464726573733a20696e73756666696369656e742062616c616e636520666f6044820152651c8818d85b1b60d21b60648201526084016105da565b600080866001600160a01b0316858760405161332b9190613dc0565b60006040518083038185875af1925050503d8060008114613368576040519150601f19603f3d011682016040523d82523d6000602084013e61336d565b606091505b509150915061337e87838387613389565b979650505050505050565b606083156133f85782516000036133f1576001600160a01b0385163b6133f15760405162461bcd60e51b815260206004820152601d60248201527f416464726573733a2063616c6c20746f206e6f6e2d636f6e747261637400000060448201526064016105da565b5081610689565b610689838381511561340d5781518083602001fd5b8060405162461bcd60e51b81526004016105da919061355c565b6040518060a00160405280606081526020016000815260200160006001600160a01b0316815260200160008152602001600081525090565b82805482825590600052602060002090810192821561349a579160200282015b8281111561349a57825182559160200191906001019061347f565b506134a69291506134c4565b5090565b508054600082559060005260206000209081019061236791905b5b808211156134a657600081556001016134c5565b6001600160e01b03198116811461236757600080fd5b60006020828403121561350157600080fd5b8135612241816134d9565b60005b8381101561352757818101518382015260200161350f565b50506000910152565b6000815180845261354881602086016020860161350c565b601f01601f19169290920160200192915050565b6020815260006122416020830184613530565b60006020828403121561358157600080fd5b5035919050565b6001600160a01b038116811461236757600080fd5b600080604083850312156135b057600080fd5b82356135bb81613588565b946020939093013593505050565b634e487b7160e01b600052604160045260246000fd5b604051601f8201601f1916810167ffffffffffffffff81118282101715613608576136086135c9565b604052919050565b6000806000806080858703121561362657600080fd5b843561363181613588565b935060208581013561364281613588565b935060408601359250606086013567ffffffffffffffff8082111561366657600080fd5b818801915088601f83011261367a57600080fd5b81358181111561368c5761368c6135c9565b61369e601f8201601f191685016135df565b915080825289848285010111156136b457600080fd5b808484018584013760008482840101525080935050505092959194509250565b6000806000606084860312156136e957600080fd5b83356136f481613588565b9250602084013561370481613588565b929592945050506040919091013590565b600082601f83011261372657600080fd5b8135602067ffffffffffffffff821115613742576137426135c9565b8160051b6137518282016135df565b928352848101820192828101908785111561376b57600080fd5b83870192505b8483101561337e57823582529183019190830190613771565b600080600080608085870312156137a057600080fd5b84356137ab81613588565b9350602085013567ffffffffffffffff808211156137c857600080fd5b6137d488838901613715565b945060408701359150808211156137ea57600080fd5b506137f787828801613715565b949793965093946060013593505050565b60006020828403121561381a57600080fd5b813561224181613588565b60008060008060008060c0878903121561383e57600080fd5b863561384981613588565b9550602087013567ffffffffffffffff81111561386557600080fd5b61387189828a01613715565b95505060408701359350606087013561388981613588565b9598949750929560808101359460a0909101359350915050565b801515811461236757600080fd5b600080604083850312156138c457600080fd5b82356138cf81613588565b915060208301356138df816138a3565b809150509250929050565b6000806000606084860312156138ff57600080fd5b833561390a81613588565b9250602084013567ffffffffffffffff81111561392657600080fd5b61393286828701613715565b925050604084013590509250925092565b60006020828403121561395557600080fd5b8135612241816138a3565b600081518084526020808501945080840160005b8381101561399057815187529582019590820190600101613974565b509495945050505050565b602081526000825160a060208401526139b760c0840182613960565b90506020840151604084015260018060a01b03604085015116606084015260608401516080840152608084015160a08401528091505092915050565b60008060408385031215613a0657600080fd5b8235613a1181613588565b915060208301356138df81613588565b600181811c90821680613a3557607f821691505b602082108103613a5557634e487b7160e01b600052602260045260246000fd5b50919050565b6020808252602d908201527f4552433732313a2063616c6c6572206973206e6f7420746f6b656e206f776e6560408201526c1c881bdc88185c1c1c9bdd9959609a1b606082015260800190565b6020808252600e908201526d141bdbdb081a5cc81c185d5cd95960921b604082015260600190565b600060208284031215613ae257600080fd5b815161224181613588565b634e487b7160e01b600052603260045260246000fd5b6001600160a01b039384168152919092166020820152604081019190915260600190565b634e487b7160e01b600052601160045260246000fd5b80820281158282048414176104a7576104a7613b27565b600082613b7157634e487b7160e01b600052601260045260246000fd5b500490565b600060208284031215613b8857600080fd5b5051919050565b808201808211156104a7576104a7613b27565b818103818111156104a7576104a7613b27565b600060018201613bc757613bc7613b27565b5060010190565b604081526000613be16040830185613960565b90508260208301529392505050565b600060208284031215613c0257600080fd5b8151612241816138a3565b60a081526000613c2060a0830188613960565b6020830196909652506001600160a01b039390931660408401526060830191909152608090910152919050565b634e487b7160e01b600052603160045260246000fd5b60008351613c7581846020880161350c565b835190830190613c8981836020880161350c565b01949350505050565b60208082526025908201527f4552433732313a207472616e736665722066726f6d20696e636f72726563742060408201526437bbb732b960d91b606082015260800190565b604081526000613be16040830185613530565b604081526000613cfd6040830185613530565b905060018060a01b03831660208301529392505050565b60208082526032908201527f4552433732313a207472616e7366657220746f206e6f6e20455243373231526560408201527131b2b4bb32b91034b6b83632b6b2b73a32b960711b606082015260800190565b6001600160a01b0385811682528416602082015260408101839052608060608201819052600090613d9990830184613530565b9695505050505050565b600060208284031215613db557600080fd5b8151612241816134d9565b60008251613dd281846020870161350c565b919091019291505056fea26469706673582212202faa558373293af495040dc77379555c1f7e0b3e6357b1154d9f4ffddac4155a64736f6c63430008110033",
  "linkReferences": {},
  "deployedLinkReferences": {}
}