{
  "_format": "hh-sol-artifact-1",
  "contractName": "TradingPoolFactory",
  "sourceName": "contracts/protocol/Trading/TradingPoolFactory.sol",
  "abi": [
    {
      "inputs": [],
      "stateMutability": "nonpayable",
      "type": "constructor"
    },
    {
      "anonymous": false,
      "inputs": [
        {
          "indexed": true,
          "internalType": "address",
          "name": "pool",
          "type": "address"
        },
        {
          "indexed": true,
          "internalType": "address",
          "name": "nft",
          "type": "address"
        },
        {
          "indexed": true,
          "internalType": "address",
          "name": "token",
          "type": "address"
        }
      ],
      "name": "CreateTradingPool",
      "type": "event"
    },
    {
      "anonymous": false,
      "inputs": [
        {
          "indexed": false,
          "internalType": "uint8",
          "name": "version",
          "type": "uint8"
        }
      ],
      "name": "Initialized",
      "type": "event"
    },
    {
      "anonymous": false,
      "inputs": [
        {
          "indexed": true,
          "internalType": "address",
          "name": "previousOwner",
          "type": "address"
        },
        {
          "indexed": true,
          "internalType": "address",
          "name": "newOwner",
          "type": "address"
        }
      ],
      "name": "OwnershipTransferred",
      "type": "event"
    },
    {
      "inputs": [
        {
          "internalType": "address",
          "name": "nft",
          "type": "address"
        },
        {
          "internalType": "address",
          "name": "token",
          "type": "address"
        }
      ],
      "name": "createTradingPool",
      "outputs": [],
      "stateMutability": "nonpayable",
      "type": "function"
    },
    {
      "inputs": [],
      "name": "getProtocolFeePercentage",
      "outputs": [
        {
          "internalType": "uint256",
          "name": "",
          "type": "uint256"
        }
      ],
      "stateMutability": "view",
      "type": "function"
    },
    {
      "inputs": [],
      "name": "getTVLSafeguard",
      "outputs": [
        {
          "internalType": "uint256",
          "name": "",
          "type": "uint256"
        }
      ],
      "stateMutability": "view",
      "type": "function"
    },
    {
      "inputs": [
        {
          "internalType": "address",
          "name": "nft",
          "type": "address"
        },
        {
          "internalType": "address",
          "name": "token",
          "type": "address"
        }
      ],
      "name": "getTradingPool",
      "outputs": [
        {
          "internalType": "address",
          "name": "",
          "type": "address"
        }
      ],
      "stateMutability": "view",
      "type": "function"
    },
    {
      "inputs": [
        {
          "internalType": "contract IAddressProvider",
          "name": "AddressProvider",
          "type": "address"
        },
        {
          "internalType": "uint256",
          "name": "protocolFeePercentage",
          "type": "uint256"
        },
        {
          "internalType": "uint256",
          "name": "tvlSafeguard",
          "type": "uint256"
        }
      ],
      "name": "initialize",
      "outputs": [],
      "stateMutability": "nonpayable",
      "type": "function"
    },
    {
      "inputs": [
        {
          "internalType": "address",
          "name": "priceCurve",
          "type": "address"
        }
      ],
      "name": "isPriceCurve",
      "outputs": [
        {
          "internalType": "bool",
          "name": "",
          "type": "bool"
        }
      ],
      "stateMutability": "view",
      "type": "function"
    },
    {
      "inputs": [
        {
          "internalType": "address",
          "name": "pool",
          "type": "address"
        }
      ],
      "name": "isTradingPool",
      "outputs": [
        {
          "internalType": "bool",
          "name": "",
          "type": "bool"
        }
      ],
      "stateMutability": "view",
      "type": "function"
    },
    {
      "inputs": [],
      "name": "owner",
      "outputs": [
        {
          "internalType": "address",
          "name": "",
          "type": "address"
        }
      ],
      "stateMutability": "view",
      "type": "function"
    },
    {
      "inputs": [],
      "name": "renounceOwnership",
      "outputs": [],
      "stateMutability": "nonpayable",
      "type": "function"
    },
    {
      "inputs": [
        {
          "internalType": "address",
          "name": "priceCurve",
          "type": "address"
        },
        {
          "internalType": "bool",
          "name": "valid",
          "type": "bool"
        }
      ],
      "name": "setPriceCurve",
      "outputs": [],
      "stateMutability": "nonpayable",
      "type": "function"
    },
    {
      "inputs": [
        {
          "internalType": "uint256",
          "name": "newProtocolFeePercentage",
          "type": "uint256"
        }
      ],
      "name": "setProtocolFeePercentage",
      "outputs": [],
      "stateMutability": "nonpayable",
      "type": "function"
    },
    {
      "inputs": [
        {
          "internalType": "uint256",
          "name": "newTVLSafeguard",
          "type": "uint256"
        }
      ],
      "name": "setTVLSafeguard",
      "outputs": [],
      "stateMutability": "nonpayable",
      "type": "function"
    },
    {
      "inputs": [
        {
          "internalType": "address",
          "name": "nft",
          "type": "address"
        },
        {
          "internalType": "address",
          "name": "token",
          "type": "address"
        },
        {
          "internalType": "address",
          "name": "pool",
          "type": "address"
        }
      ],
      "name": "setTradingPool",
      "outputs": [],
      "stateMutability": "nonpayable",
      "type": "function"
    },
    {
      "inputs": [
        {
          "internalType": "address",
          "name": "newOwner",
          "type": "address"
        }
      ],
      "name": "transferOwnership",
      "outputs": [],
      "stateMutability": "nonpayable",
      "type": "function"
    }
  ],
  "bytecode": "0x608060405234801561001057600080fd5b5061001961001e565b6100de565b600054610100900460ff161561008a5760405162461bcd60e51b815260206004820152602760248201527f496e697469616c697a61626c653a20636f6e747261637420697320696e697469604482015266616c697a696e6760c81b606482015260840160405180910390fd5b60005460ff90811610156100dc576000805460ff191660ff9081179091556040519081527f7f26b83ff96e1f2b6a682f133852f6798a09c465da95921460cefb38474024989060200160405180910390a15b565b615e31806100ed6000396000f3fe60806040523480156200001157600080fd5b5060043610620000fd5760003560e01c8063a880e68b1162000097578063ee590fc7116200006e578063ee590fc71462000207578063f1c5bb56146200021e578063f2fde38b146200024d578063fb44a156146200026457600080fd5b8063a880e68b14620001d0578063d8a5e93614620001d9578063de15113414620001f057600080fd5b8063715018a611620000d8578063715018a614620001725780637a1ac61e146200017c5780638da5cb5b14620001935780639def089014620001b957600080fd5b80633650e2c5146200010257806365ec41761462000146578063706d9f78146200015f575b600080fd5b620001316200011336600462000daa565b6001600160a01b03166000908152609a602052604090205460ff1690565b60405190151581526020015b60405180910390f35b6200015d6200015736600462000dca565b6200029f565b005b609b545b6040519081526020016200013d565b6200015d620002ae565b6200015d6200018d36600462000de4565b620002c6565b6033546001600160a01b03165b6040516001600160a01b0390911681526020016200013d565b6200015d620001ca36600462000e1c565b62000420565b609c5462000163565b6200015d620001ea36600462000dca565b620004d6565b6200015d6200020136600462000e6e565b620004e5565b6200015d6200021836600462000eac565b6200098a565b620001316200022f36600462000daa565b6001600160a01b031660009081526099602052604090205460ff1690565b6200015d6200025e36600462000daa565b62000a1a565b620001a06200027536600462000e6e565b6001600160a01b039182166000908152609860209081526040808320938516835292905220541690565b620002a962000a99565b609c55565b620002b862000a99565b620002c4600062000af5565b565b600054610100900460ff1615808015620002e75750600054600160ff909116105b80620003035750303b15801562000303575060005460ff166001145b6200036c5760405162461bcd60e51b815260206004820152602e60248201527f496e697469616c697a61626c653a20636f6e747261637420697320616c72656160448201526d191e481a5b9a5d1a585b1a5e995960921b60648201526084015b60405180910390fd5b6000805460ff19166001179055801562000390576000805461ff0019166101001790555b6200039a62000b47565b620003a462000b7b565b620003ae62000baf565b609780546001600160a01b0319166001600160a01b038616179055609b839055609c82905580156200041a576000805461ff0019169055604051600181527f7f26b83ff96e1f2b6a682f133852f6798a09c465da95921460cefb38474024989060200160405180910390a15b50505050565b6200042a62000a99565b620004456001600160a01b03821662f815c960e21b62000bd9565b806200045857506001600160a01b038116155b620004995760405162461bcd60e51b815260206004820152601060248201526f1514118e94d5140e9393d517d413d3d360821b604482015260640162000363565b6001600160a01b03928316600090815260986020908152604080832094861683529390529190912080546001600160a01b03191691909216179055565b620004e062000a99565b609b55565b620004ef62000c01565b6001600160a01b03828116600090815260986020908152604080832085851684529091529020541615620005665760405162461bcd60e51b815260206004820152601b60248201527f5450463a4354503a504f4f4c5f414c52454144595f4558495354530000000000604482015260640162000363565b620005826001600160a01b038316635b5e139f60e01b62000bd9565b620005c95760405162461bcd60e51b81526020600482015260166024820152755450463a4354503a4e46545f4e4f545f45524337323160501b604482015260640162000363565b6097546000906001600160a01b0316620005eb6033546001600160a01b031690565b8385866001600160a01b03166395d89b416040518163ffffffff1660e01b8152600401600060405180830381865afa1580156200062c573d6000803e3d6000fd5b505050506040513d6000823e601f3d908101601f1916820160405262000656919081019062000f1f565b866001600160a01b03166395d89b416040518163ffffffff1660e01b8152600401600060405180830381865afa15801562000695573d6000803e3d6000fd5b505050506040513d6000823e601f3d908101601f19168201604052620006bf919081019062000f1f565b604051602001620006d292919062000fcd565b604051602081830303815290604052876001600160a01b03166395d89b416040518163ffffffff1660e01b8152600401600060405180830381865afa15801562000720573d6000803e3d6000fd5b505050506040513d6000823e601f3d908101601f191682016040526200074a919081019062000f1f565b876001600160a01b03166395d89b416040518163ffffffff1660e01b8152600401600060405180830381865afa15801562000789573d6000803e3d6000fd5b505050506040513d6000823e601f3d908101601f19168201604052620007b3919081019062000f1f565b604051602001620007c69291906200102e565b604051602081830303815290604052604051620007e39062000d86565b620007f496959493929190620010ab565b604051809103906000f08015801562000811573d6000803e3d6000fd5b506001600160a01b0384811660009081526098602090815260408083208785168452825280832080546001600160a01b03191686861690811790915583526099825291829020805460ff19166001179055609754825163725c9c4960e01b815292519495509092169263725c9c49926004808401939192918290030181865afa158015620008a3573d6000803e3d6000fd5b505050506040513d601f19601f82011682018060405250810190620008c991906200110a565b60405163ea92282760e01b81526001600160a01b0384811660048301528381166024830152919091169063ea92282790604401600060405180830381600087803b1580156200091757600080fd5b505af11580156200092c573d6000803e3d6000fd5b50505050816001600160a01b0316836001600160a01b0316826001600160a01b03167fa1311e5e3c1c2207844ec9211cb2439ea0bce2a76c6ea09d9343f0d0eaddd9f660405160405180910390a450620009866001606555565b5050565b6200099462000a99565b620009b06001600160a01b0383166314f73f3160e11b62000bd9565b620009ef5760405162461bcd60e51b815260206004820152600e60248201526d5450463a5350433a4e4f545f504360901b604482015260640162000363565b6001600160a01b03919091166000908152609a60205260409020805460ff1916911515919091179055565b62000a2462000a99565b6001600160a01b03811662000a8b5760405162461bcd60e51b815260206004820152602660248201527f4f776e61626c653a206e6577206f776e657220697320746865207a65726f206160448201526564647265737360d01b606482015260840162000363565b62000a968162000af5565b50565b6033546001600160a01b03163314620002c45760405162461bcd60e51b815260206004820181905260248201527f4f776e61626c653a2063616c6c6572206973206e6f7420746865206f776e6572604482015260640162000363565b603380546001600160a01b038381166001600160a01b0319831681179093556040519116919082907f8be0079c531659141344cd1fd0a4f28419497f9722a3daafe3b4186f6b6457e090600090a35050565b600054610100900460ff1662000b715760405162461bcd60e51b815260040162000363906200112a565b620002c462000c63565b600054610100900460ff1662000ba55760405162461bcd60e51b815260040162000363906200112a565b620002c462000c98565b600054610100900460ff16620002c45760405162461bcd60e51b815260040162000363906200112a565b600062000be68362000cc2565b801562000bfa575062000bfa838362000cfb565b9392505050565b60026065540362000c555760405162461bcd60e51b815260206004820152601f60248201527f5265656e7472616e637947756172643a207265656e7472616e742063616c6c00604482015260640162000363565b6002606555565b6001606555565b600054610100900460ff1662000c8d5760405162461bcd60e51b815260040162000363906200112a565b620002c43362000af5565b600054610100900460ff1662000c5c5760405162461bcd60e51b815260040162000363906200112a565b600062000cd7826301ffc9a760e01b62000cfb565b801562000cf5575062000cf3826001600160e01b031962000cfb565b155b92915050565b604080516001600160e01b03198316602480830191909152825180830390910181526044909101909152602080820180516001600160e01b03166301ffc9a760e01b178152825160009392849283928392918391908a617530fa92503d9150600051905082801562000d6e575060208210155b801562000d7b5750600081115b979650505050505050565b614c86806200117683390190565b6001600160a01b038116811462000a9657600080fd5b60006020828403121562000dbd57600080fd5b813562000bfa8162000d94565b60006020828403121562000ddd57600080fd5b5035919050565b60008060006060848603121562000dfa57600080fd5b833562000e078162000d94565b95602085013595506040909401359392505050565b60008060006060848603121562000e3257600080fd5b833562000e3f8162000d94565b9250602084013562000e518162000d94565b9150604084013562000e638162000d94565b809150509250925092565b6000806040838503121562000e8257600080fd5b823562000e8f8162000d94565b9150602083013562000ea18162000d94565b809150509250929050565b6000806040838503121562000ec057600080fd5b823562000ecd8162000d94565b91506020830135801515811462000ea157600080fd5b634e487b7160e01b600052604160045260246000fd5b60005b8381101562000f1657818101518382015260200162000efc565b50506000910152565b60006020828403121562000f3257600080fd5b815167ffffffffffffffff8082111562000f4b57600080fd5b818401915084601f83011262000f6057600080fd5b81518181111562000f755762000f7562000ee3565b604051601f8201601f19908116603f0116810190838211818310171562000fa05762000fa062000ee3565b8160405282815287602084870101111562000fba57600080fd5b62000d7b83602083016020880162000ef9565b7203632a7232a102a3930b234b733902837b7b61606d1b81526000835162000ffd81601385016020880162000ef9565b6201016960ed1b60139184019182015283516200102281601684016020880162000ef9565b01601601949350505050565b621b195560ea1b8152600083516200104e81600385016020880162000ef9565b602d60f81b60039184019182015283516200107181600484016020880162000ef9565b01600401949350505050565b600081518084526200109781602086016020860162000ef9565b601f01601f19169290920160200192915050565b6001600160a01b038781168252868116602083015285811660408301528416606082015260c060808201819052600090620010e9908301856200107d565b82810360a0840152620010fd81856200107d565b9998505050505050505050565b6000602082840312156200111d57600080fd5b815162000bfa8162000d94565b6020808252602b908201527f496e697469616c697a61626c653a20636f6e7472616374206973206e6f74206960408201526a6e697469616c697a696e6760a81b60608201526080019056fe60e06040523480156200001157600080fd5b5060405162004c8638038062004c868339810160408190526200003491620002a6565b81816000620000448382620003f4565b506001620000538282620003f4565b505050620000706200006a6200017260201b60201c565b62000176565b6001600b81905550856001600160a01b031663ca1470ea6040518163ffffffff1660e01b8152600401602060405180830381865afa158015620000b7573d6000803e3d6000fd5b505050506040513d601f19601f82011682018060405250810190620000dd9190620004c0565b6001600160a01b0316336001600160a01b031614620001425760405162461bcd60e51b815260206004820152601460248201527f54503a433a4d5553545f42455f464143544f5259000000000000000000000000604482015260640160405180910390fd5b6001600160a01b0380871660805284811660a052831660c052620001668562000176565b505050505050620004e7565b3390565b600a80546001600160a01b038381166001600160a01b0319831681179093556040519116919082907f8be0079c531659141344cd1fd0a4f28419497f9722a3daafe3b4186f6b6457e090600090a35050565b6001600160a01b0381168114620001de57600080fd5b50565b634e487b7160e01b600052604160045260246000fd5b600082601f8301126200020957600080fd5b81516001600160401b0380821115620002265762000226620001e1565b604051601f8301601f19908116603f01168101908282118183101715620002515762000251620001e1565b816040528381526020925086838588010111156200026e57600080fd5b600091505b8382101562000292578582018301518183018401529082019062000273565b600093810190920192909252949350505050565b60008060008060008060c08789031215620002c057600080fd5b8651620002cd81620001c8565b6020880151909650620002e081620001c8565b6040880151909550620002f381620001c8565b60608801519094506200030681620001c8565b60808801519093506001600160401b03808211156200032457600080fd5b620003328a838b01620001f7565b935060a08901519150808211156200034957600080fd5b506200035889828a01620001f7565b9150509295509295509295565b600181811c908216806200037a57607f821691505b6020821081036200039b57634e487b7160e01b600052602260045260246000fd5b50919050565b601f821115620003ef57600081815260208120601f850160051c81016020861015620003ca5750805b601f850160051c820191505b81811015620003eb57828155600101620003d6565b5050505b505050565b81516001600160401b03811115620004105762000410620001e1565b620004288162000421845462000365565b84620003a1565b602080601f831160018114620004605760008415620004475750858301515b600019600386901b1c1916600185901b178555620003eb565b600085815260208120601f198616915b82811015620004915788860151825594840194600190910190840162000470565b5085821015620004b05787850151600019600388901b60f8161c191681555b5050505050600190811b01905550565b600060208284031215620004d357600080fd5b8151620004e081620001c8565b9392505050565b60805160a05160c0516146ce620005b86000396000818161038b01528181610abe01528181611362015281816116090152818161194701528181611e6c015261279a0152600081816102b201528181610f7001528181611128015281816111e80152818161172901528181611f6d015281816120c8015281816122e3015261289c01526000818161087101528181610bd101528181610fa401528181611029015281816111510152818161185601528181611fa201528181612031015281816121ea0152612a9001526146ce6000f3fe608060405234801561001057600080fd5b50600436106101f05760003560e01c8063715018a61161010f578063bc063e1a116100a2578063cdd3f29811610071578063cdd3f29814610456578063e985e9c514610476578063f2fde38b146104b2578063fc1507b3146104c557600080fd5b8063bc063e1a14610414578063bedb86fb1461041d578063c4d6b3e514610430578063c87b56dd1461044357600080fd5b80639c8f9f23116100de5780639c8f9f23146103c8578063a22cb465146103db578063b31f0d62146103ee578063b88d4fde1461040157600080fd5b8063715018a61461038157806388a6360e146103895780638da5cb5b146103af57806395d89b41146103c057600080fd5b80632f745c59116101875780635460d849116101565780635460d849146103355780636352211e146103485780636d207b1a1461035b57806370a082311461036e57600080fd5b80632f745c59146102e957806342842e0e146102fc57806349591b511461030f5780634f6ccce71461032257600080fd5b8063150b7a02116101c3578063150b7a021461027257806318160ddd1461029e57806321df0da7146102b057806323b872dd146102d657600080fd5b806301ffc9a7146101f557806306fdde031461021d578063081812fc14610232578063095ea7b31461025d575b600080fd5b610208610203366004613cdd565b6104cd565b60405190151581526020015b60405180910390f35b610225610506565b6040516102149190613d51565b610245610240366004613d64565b610598565b6040516001600160a01b039091168152602001610214565b61027061026b366004613d92565b6105bf565b005b610285610280366004613e2d565b6106d9565b6040516001600160e01b03199091168152602001610214565b6008545b604051908152602001610214565b7f0000000000000000000000000000000000000000000000000000000000000000610245565b6102706102e4366004613edc565b6106ea565b6102a26102f7366004613d92565b61071b565b61027061030a366004613edc565b6107b1565b6102a261031d366004613f69565b6107cc565b6102a2610330366004613d64565b6112ac565b6102a2610343366004613d64565b61133f565b610245610356366004613d64565b611429565b610270610369366004613ff4565b611489565b6102a261037c366004614036565b6114cf565b610270611555565b7f0000000000000000000000000000000000000000000000000000000000000000610245565b600a546001600160a01b0316610245565b610225611569565b6102706103d6366004613d64565b611578565b6102706103e9366004614061565b6117e8565b6102a26103fc36600461409a565b6117f7565b61027061040f366004613e2d565b612183565b6102a2611f4081565b61027061042b3660046140f6565b6121bb565b61027061043e366004614113565b6121d6565b610225610451366004613d64565b612a82565b610469610464366004613d64565b612b8e565b604051610214919061420b565b6102086104843660046142a1565b6001600160a01b03918216600090815260056020908152604080832093909416825291909152205460ff1690565b6102706104c0366004614036565b612c81565b600f546102a2565b600062f815c960e21b6001600160e01b0319831614806104f157506104f182612cf7565b80610500575061050082612d1c565b92915050565b606060008054610515906142cf565b80601f0160208091040260200160405190810160405280929190818152602001828054610541906142cf565b801561058e5780601f106105635761010080835404028352916020019161058e565b820191906000526020600020905b81548152906001019060200180831161057157829003601f168201915b5050505050905090565b60006105a382612d32565b506000908152600460205260409020546001600160a01b031690565b60006105ca82611429565b9050806001600160a01b0316836001600160a01b03160361063c5760405162461bcd60e51b815260206004820152602160248201527f4552433732313a20617070726f76616c20746f2063757272656e74206f776e656044820152603960f91b60648201526084015b60405180910390fd5b336001600160a01b038216148061065857506106588133610484565b6106ca5760405162461bcd60e51b815260206004820152603d60248201527f4552433732313a20617070726f76652063616c6c6572206973206e6f7420746f60448201527f6b656e206f776e6572206f7220617070726f76656420666f7220616c6c0000006064820152608401610633565b6106d48383612d91565b505050565b630a85bd0160e11b5b949350505050565b6106f43382612dff565b6107105760405162461bcd60e51b815260040161063390614303565b6106d4838383612e7d565b6000610726836114cf565b82106107885760405162461bcd60e51b815260206004820152602b60248201527f455243373231456e756d657261626c653a206f776e657220696e646578206f7560448201526a74206f6620626f756e647360a81b6064820152608401610633565b506001600160a01b03919091166000908152600660209081526040808320938352929052205490565b6106d483838360405180602001604052806000815250612183565b60006107d6612fee565b6107de613047565b8483146108245760405162461bcd60e51b81526020600482015260146024820152730a8a074a6749c8ca8be98a0be9a92a69a82a886960631b6044820152606401610633565b8461085f5760405162461bcd60e51b815260206004820152600b60248201526a054503a533a4e4654535f360ac1b6044820152606401610633565b6001600160a01b0387163314610948577f00000000000000000000000000000000000000000000000000000000000000006001600160a01b031663725c9c496040518163ffffffff1660e01b8152600401602060405180830381865afa1580156108cd573d6000803e3d6000fd5b505050506040513d601f19601f820116820180604052508101906108f19190614350565b6001600160a01b0316336001600160a01b0316146109485760405162461bcd60e51b81526020600482015260146024820152732a281d299d2727aa2fa9aba0a82fa927aaaa22a960611b6044820152606401610633565b6000806000610955613c02565b6000805b8a811015610f1a578989828181106109735761097361436d565b90506020020135915061099d826000908152600260205260409020546001600160a01b0316151590565b6109dd5760405162461bcd60e51b815260206004820152601160248201527015140e94ce931417d393d517d193d55391607a1b6044820152606401610633565b6000828152600d602052604090819020815160e081019092528054829060ff166004811115610a0e57610a0e6141ba565b6004811115610a1f57610a1f6141ba565b815260200160018201805480602002602001604051908101604052809291908181526020018280548015610a7257602002820191906000526020600020905b815481526020019060010190808311610a5e575b5050509183525050600282015460208201526003820154604082015260048201546001600160a01b0390811660608301526005830154608083015260069092015460a0909101529093507f0000000000000000000000000000000000000000000000000000000000000000166342842e0e8e308f8f86818110610af757610af761436d565b905060200201356040518463ffffffff1660e01b8152600401610b1c93929190614383565b600060405180830381600087803b158015610b3657600080fd5b505af1158015610b4a573d6000803e3d6000fd5b5060049250610b57915050565b83516004811115610b6a57610b6a6141ba565b03610ba95760405162461bcd60e51b815260206004820152600f60248201526e054503a533a49535f53454c4c5f4c5608c1b6044820152606401610633565b6127108360c001518460600151610bc091906143bd565b610bca91906143d4565b95506127107f00000000000000000000000000000000000000000000000000000000000000006001600160a01b031663ca1470ea6040518163ffffffff1660e01b8152600401602060405180830381865afa158015610c2d573d6000803e3d6000fd5b505050506040513d601f19601f82011682018060405250810190610c519190614350565b6001600160a01b031663706d9f786040518163ffffffff1660e01b8152600401602060405180830381865afa158015610c8e573d6000803e3d6000fd5b505050506040513d601f19601f82011682018060405250810190610cb291906143f6565b610cbc90886143bd565b610cc691906143d4565b935083868460600151610cd9919061440f565b610ce39190614422565b83604001511015610d365760405162461bcd60e51b815260206004820152601e60248201527f54503a533a494e53554646494349454e545f544f4b454e535f494e5f4c5000006044820152606401610633565b6000828152600d602052604090206001018c8c83818110610d5957610d5961436d565b8354600181810186556000958652602080872093810295909501359290910191909155604080518082018252878152878652600d8552942081015492840192610da2925061440f565b9052600e60008e8e85818110610dba57610dba61436d565b905060200201358152602001908152602001600020600082015181600001556020820151816001015590505083868460600151610df7919061440f565b610e019190614422565b6000838152600d602052604081206002018054909190610e2290849061440f565b90915550506060830151610e3790879061440f565b610e419088614422565b9650610e4d8686614422565b9450600183516004811115610e6457610e646141ba565b14610f08576080830151606084015160a085015160c08601516040516394ed03f960e01b81526004810193909352602483019190915260448201526001600160a01b03909116906394ed03f990606401602060405180830381865afa158015610ed1573d6000803e3d6000fd5b505050506040513d601f19601f82011682018060405250810190610ef591906143f6565b6000838152600d60205260409020600301555b80610f1281614435565b915050610959565b5086861015610f6b5760405162461bcd60e51b815260206004820152601e60248201527f54503a533a4d494e494d554d5f50524943455f4e4f545f5245414348454400006044820152606401610633565b610f9f7f00000000000000000000000000000000000000000000000000000000000000006001600160a01b0316338861308b565b61114f7f00000000000000000000000000000000000000000000000000000000000000006001600160a01b031663c89131736040518163ffffffff1660e01b8152600401602060405180830381865afa158015611000573d6000803e3d6000fd5b505050506040513d601f19601f820116820180604052508101906110249190614350565b6127107f00000000000000000000000000000000000000000000000000000000000000006001600160a01b031663ca1470ea6040518163ffffffff1660e01b8152600401602060405180830381865afa158015611085573d6000803e3d6000fd5b505050506040513d601f19601f820116820180604052508101906110a99190614350565b6001600160a01b031663706d9f786040518163ffffffff1660e01b8152600401602060405180830381865afa1580156110e6573d6000803e3d6000fd5b505050506040513d601f19601f8201168201806040525081019061110a91906143f6565b61111490886143bd565b61111e91906143d4565b6001600160a01b037f000000000000000000000000000000000000000000000000000000000000000016919061308b565b7f00000000000000000000000000000000000000000000000000000000000000006001600160a01b031663c89131736040518163ffffffff1660e01b8152600401602060405180830381865afa1580156111ad573d6000803e3d6000fd5b505050506040513d601f19601f820116820180604052508101906111d19190614350565b6040516354b94c2f60e11b81526001600160a01b037f000000000000000000000000000000000000000000000000000000000000000081166004830152919091169063a972985e90602401600060405180830381600087803b15801561123657600080fd5b505af115801561124a573d6000803e3d6000fd5b505050508b6001600160a01b03167feb3c528adebc70d317bef09706905761642981ebf9def9aafdc40f404e49346a8c8c8960405161128b93929190614480565b60405180910390a250505050506112a26001600b55565b9695505050505050565b60006112b760085490565b821061131a5760405162461bcd60e51b815260206004820152602c60248201527f455243373231456e756d657261626c653a20676c6f62616c20696e646578206f60448201526b7574206f6620626f756e647360a01b6064820152608401610633565b6008828154811061132d5761132d61436d565b90600052602060002001549050919050565b6040516331a9108f60e11b81526004810182905260009030906001600160a01b037f00000000000000000000000000000000000000000000000000000000000000001690636352211e90602401602060405180830381865afa1580156113a9573d6000803e3d6000fd5b505050506040513d601f19601f820116820180604052508101906113cd9190614350565b6001600160a01b0316146114165760405162461bcd60e51b815260206004820152601060248201526f15140e9395130e9393d517d3d5d3915160821b6044820152606401610633565b506000908152600e602052604090205490565b6000818152600260205260408120546001600160a01b0316806105005760405162461bcd60e51b8152602060048201526018602482015277115490cdcc8c4e881a5b9d985b1a59081d1bdad95b88125160421b6044820152606401610633565b611491613047565b60005b818110156106d4576114bd8383838181106114b1576114b161436d565b90506020020135611578565b806114c781614435565b915050611494565b60006001600160a01b0382166115395760405162461bcd60e51b815260206004820152602960248201527f4552433732313a2061646472657373207a65726f206973206e6f7420612076616044820152683634b21037bbb732b960b91b6064820152608401610633565b506001600160a01b031660009081526003602052604090205490565b61155d6130ee565b6115676000613148565b565b606060018054610515906142cf565b611580612fee565b611588613047565b61159181611429565b6001600160a01b0316336001600160a01b0316146115e35760405162461bcd60e51b815260206004820152600f60248201526e2a281d29261d2727aa2fa7aba722a960891b6044820152606401610633565b6000818152600d6020526040812060010154905b81811015611708576001600160a01b037f0000000000000000000000000000000000000000000000000000000000000000166342842e0e30336000878152600d602052604090206001018054869081106116535761165361436d565b90600052602060002001546040518463ffffffff1660e01b815260040161167c93929190614383565b600060405180830381600087803b15801561169657600080fd5b505af11580156116aa573d6000803e3d6000fd5b5050506000848152600d602052604081206001018054600e9350849081106116d4576116d461436d565b600091825260208083209091015483528201929092526040018120818155600101558061170081614435565b9150506115f7565b50611750336000848152600d60205260409020600201546001600160a01b037f000000000000000000000000000000000000000000000000000000000000000016919061308b565b6000828152600d60205260408120805460ff19168155906117746001830182613c49565b50600060028201819055600382018190556004820180546001600160a01b0319169055600582018190556006909101556117ad8261319a565b604051829033907fdfdd120ded9b7afc0c23dd5310e93aaa3e1c3b9f75af9b805fab3030842439f290600090a3506117e56001600b55565b50565b6117f333838361323d565b5050565b6000611801612fee565b611809613047565b826118445760405162461bcd60e51b815260206004820152600b60248201526a054503a423a4e4654535f360ac1b6044820152606401610633565b600080600080611852613c02565b60007f00000000000000000000000000000000000000000000000000000000000000006001600160a01b031663ca1470ea6040518163ffffffff1660e01b8152600401602060405180830381865afa1580156118b2573d6000803e3d6000fd5b505050506040513d601f19601f820116820180604052508101906118d69190614350565b6001600160a01b031663706d9f786040518163ffffffff1660e01b8152600401602060405180830381865afa158015611913573d6000803e3d6000fd5b505050506040513d601f19601f8201168201806040525081019061193791906143f6565b905060005b89811015611f1757307f00000000000000000000000000000000000000000000000000000000000000006001600160a01b0316636352211e8d8d858181106119865761198661436d565b905060200201356040518263ffffffff1660e01b81526004016119ab91815260200190565b602060405180830381865afa1580156119c8573d6000803e3d6000fd5b505050506040513d601f19601f820116820180604052508101906119ec9190614350565b6001600160a01b031614611a335760405162461bcd60e51b815260206004820152600e60248201526d2a281d211d2727aa2fa7aba722a960911b6044820152606401610633565b600e60008c8c84818110611a4957611a4961436d565b60209081029290920135835250818101929092526040908101600090812054808252600d909352819020815160e0810190925280549299509091829060ff166004811115611a9957611a996141ba565b6004811115611aaa57611aaa6141ba565b815260200160018201805480602002602001604051908101604052809291908181526020018280548015611afd57602002820191906000526020600020905b815481526020019060010190808311611ae9575b505050918352505060028201546020820152600380830154604083015260048301546001600160a01b031660608301526005830154608083015260069092015460a09091015290935083516004811115611b5957611b596141ba565b03611b975760405162461bcd60e51b815260206004820152600e60248201526d054503a423a49535f4255595f4c560941b6044820152606401610633565b6127108360c001518460600151611bae91906143bd565b611bb891906143d4565b9550612710611bc783886143bd565b611bd191906143d4565b6020840151805191955090611be89060019061440f565b81518110611bf857611bf861436d565b6020026020010151600d6000898152602001908152602001600020600101600e60008e8e86818110611c2c57611c2c61436d565b9050602002013581526020019081526020016000206001015481548110611c5557611c5561436d565b9060005260206000200181905550600e60008c8c84818110611c7957611c7961436d565b90506020020135815260200190815260200160002060010154600e600085602001516001876020015151611cad919061440f565b81518110611cbd57611cbd61436d565b6020026020010151815260200190815260200160002060010181905550600e60008c8c84818110611cf057611cf061436d565b60209081029290920135835250818101929092526040908101600090812081815560019081018290558a8252600d9093522001805480611d3257611d326144a4565b6001900381819060005260206000200160009055905583868460600151611d599190614422565b611d63919061440f565b6000888152600d602052604081206002018054909190611d84908490614422565b90915550506060830151611d99908790614422565b611da39089614422565b9750611daf8686614422565b9450600283516004811115611dc657611dc66141ba565b14611e6a576080830151606084015160a085015160c0860151604051636b615c6360e11b81526004810193909352602483019190915260448201526001600160a01b039091169063d6c2b8c690606401602060405180830381865afa158015611e33573d6000803e3d6000fd5b505050506040513d601f19601f82011682018060405250810190611e5791906143f6565b6000888152600d60205260409020600301555b7f00000000000000000000000000000000000000000000000000000000000000006001600160a01b03166342842e0e308e8e8e86818110611ead57611ead61436d565b905060200201356040518463ffffffff1660e01b8152600401611ed293929190614383565b600060405180830381600087803b158015611eec57600080fd5b505af1158015611f00573d6000803e3d6000fd5b505050508080611f0f90614435565b91505061193c565b5087871115611f685760405162461bcd60e51b815260206004820152601760248201527f54503a423a4d41585f50524943455f45584345454445440000000000000000006044820152606401610633565b611f9d7f00000000000000000000000000000000000000000000000000000000000000006001600160a01b031633308a61330b565b61202f7f00000000000000000000000000000000000000000000000000000000000000006001600160a01b031663c89131736040518163ffffffff1660e01b8152600401602060405180830381865afa158015611ffe573d6000803e3d6000fd5b505050506040513d601f19601f820116820180604052508101906120229190614350565b61271061111484886143bd565b7f00000000000000000000000000000000000000000000000000000000000000006001600160a01b031663c89131736040518163ffffffff1660e01b8152600401602060405180830381865afa15801561208d573d6000803e3d6000fd5b505050506040513d601f19601f820116820180604052508101906120b19190614350565b6040516354b94c2f60e11b81526001600160a01b037f000000000000000000000000000000000000000000000000000000000000000081166004830152919091169063a972985e90602401600060405180830381600087803b15801561211657600080fd5b505af115801561212a573d6000803e3d6000fd5b505050508a6001600160a01b03167f0306912acbf130bc61cce94222a394a64e258433196a3d3679a9bbfb8973f7738b8b8a60405161216b93929190614480565b60405180910390a25050505050506106e26001600b55565b61218d3383612dff565b6121a95760405162461bcd60e51b815260040161063390614303565b6121b58484848461332c565b50505050565b6121c36130ee565b600c805460ff1916911515919091179055565b6121de612fee565b6121e6613047565b60007f00000000000000000000000000000000000000000000000000000000000000006001600160a01b031663ca1470ea6040518163ffffffff1660e01b8152600401602060405180830381865afa158015612246573d6000803e3d6000fd5b505050506040513d601f19601f8201168201806040525081019061226a9190614350565b9050806001600160a01b031663a880e68b6040518163ffffffff1660e01b8152600401602060405180830381865afa1580156122aa573d6000803e3d6000fd5b505050506040513d601f19601f820116820180604052508101906122ce91906143f6565b6040516370a0823160e01b81523060048201527f00000000000000000000000000000000000000000000000000000000000000006001600160a01b0316906370a0823190602401602060405180830381865afa158015612332573d6000803e3d6000fd5b505050506040513d601f19601f8201168201806040525081019061235691906143f6565b6123609088614422565b106123ad5760405162461bcd60e51b815260206004820152601860248201527f54503a414c3a5341464547554152445f455843454544454400000000000000006044820152606401610633565b60008960048111156123c1576123c16141ba565b14806123de575060018960048111156123dc576123dc6141ba565b145b806123fa575060028960048111156123f8576123f86141ba565b145b1561245757600086118061240d57508615155b6124525760405162461bcd60e51b815260206004820152601660248201527515140e90530e91115413d4d25517d49154555254915160521b6044820152606401610633565b612522565b600389600481111561246b5761246b6141ba565b036124be5760008611801561247e575086155b6124525760405162461bcd60e51b815260206004820152601160248201527054503a414c3a544f4b454e535f4f4e4c5960781b6044820152606401610633565b60048960048111156124d2576124d26141ba565b036125225786158015906124e4575085155b6125225760405162461bcd60e51b815260206004820152600f60248201526e54503a414c3a4e4654535f4f4e4c5960881b6044820152606401610633565b6001896004811115612536576125366141ba565b148061255357506002896004811115612551576125516141ba565b145b1561259857600083116125985760405162461bcd60e51b815260206004820152600d60248201526c054503a414c3a44454c54415f3609c1b6044820152606401610633565b60038960048111156125ac576125ac6141ba565b14806125c9575060048960048111156125c7576125c76141ba565b145b1561262157811561261c5760405162461bcd60e51b815260206004820152601760248201527f54503a414c3a494e56414c49445f4c494d49545f4645450000000000000000006044820152606401610633565b612673565b6000821180156126335750611f408211155b6126735760405162461bcd60e51b815260206004820152601160248201527054503a414c3a494e56414c49445f46454560781b6044820152606401610633565b604051633650e2c560e01b81526001600160a01b038581166004830152821690633650e2c590602401602060405180830381865afa1580156126b9573d6000803e3d6000fd5b505050506040513d601f19601f820116820180604052508101906126dd91906144ba565b61271f5760405162461bcd60e51b815260206004820152601360248201527254503a414c3a494e56414c49445f435552564560681b6044820152606401610633565b604051636bc1c55d60e01b81526004810186905260248101849052604481018390526001600160a01b03851690636bc1c55d9060640160006040518083038186803b15801561276d57600080fd5b505afa158015612781573d6000803e3d6000fd5b5050505060005b87811015612890576001600160a01b037f0000000000000000000000000000000000000000000000000000000000000000166342842e0e33308c8c868181106127d3576127d361436d565b905060200201356040518463ffffffff1660e01b81526004016127f893929190614383565b600060405180830381600087803b15801561281257600080fd5b505af1158015612826573d6000803e3d6000fd5b505050506040518060400160405280600f54815260200182815250600e60008b8b858181106128575761285761436d565b6020908102929092013583525081810192909252604001600020825181559101516001909101558061288881614435565b915050612788565b5085156128cc576128cc7f00000000000000000000000000000000000000000000000000000000000000006001600160a01b031633308961330b565b6040518060e001604052808a60048111156128e9576128e96141ba565b8152602001898980806020026020016040519081016040528093929190818152602001838360200280828437600092018290525093855250505060208083018a905260408084018a90526001600160a01b03891660608501526080840188905260a0909301869052600f548252600d90522081518154829060ff19166001836004811115612979576129796141ba565b021790555060208281015180516129969260018501920190613c67565b50604082015160028201556060820151600382015560808201516004820180546001600160a01b0319166001600160a01b0390921691909117905560a0820151600582015560c090910151600690910155600f546129f5908b9061335f565b886004811115612a0757612a076141ba565b600f548b6001600160a01b03167f969041d1e007e67e329d9a54fcb219f8d0cd65b2f52eb80be1f55167539302a08b8b8b8b8b8b8b604051612a4f97969594939291906144d7565b60405180910390a4600f8054906000612a6783614435565b919050555050612a776001600b55565b505050505050505050565b606081612a8e81613379565b7f00000000000000000000000000000000000000000000000000000000000000006001600160a01b031663605a26c26040518163ffffffff1660e01b8152600401602060405180830381865afa158015612aec573d6000803e3d6000fd5b505050506040513d601f19601f82011682018060405250810190612b109190614350565b60405163e9dc637560e01b8152306004820152602481018590526001600160a01b03919091169063e9dc637590604401600060405180830381865afa158015612b5d573d6000803e3d6000fd5b505050506040513d6000823e601f3d908101601f19168201604052612b85919081019061451e565b91505b50919050565b612b96613c02565b81612ba081613379565b6000838152600d602052604090819020815160e081019092528054829060ff166004811115612bd157612bd16141ba565b6004811115612be257612be26141ba565b815260200160018201805480602002602001604051908101604052809291908181526020018280548015612c3557602002820191906000526020600020905b815481526020019060010190808311612c21575b5050509183525050600282015460208201526003820154604082015260048201546001600160a01b031660608201526005820154608082015260069091015460a0909101529392505050565b612c896130ee565b6001600160a01b038116612cee5760405162461bcd60e51b815260206004820152602660248201527f4f776e61626c653a206e6577206f776e657220697320746865207a65726f206160448201526564647265737360d01b6064820152608401610633565b6117e581613148565b60006001600160e01b0319821663780e9d6360e01b14806105005750610500826133cf565b6001600160e01b0319166301ffc9a760e01b1490565b6000818152600260205260409020546001600160a01b03166117e55760405162461bcd60e51b8152602060048201526018602482015277115490cdcc8c4e881a5b9d985b1a59081d1bdad95b88125160421b6044820152606401610633565b600081815260046020526040902080546001600160a01b0319166001600160a01b0384169081179091558190612dc682611429565b6001600160a01b03167f8c5be1e5ebec7d5bd14f71427d1e84f3dd0314c0f7b2291e5b200ac8c7c3b92560405160405180910390a45050565b600080612e0b83611429565b9050806001600160a01b0316846001600160a01b03161480612e5257506001600160a01b0380821660009081526005602090815260408083209388168352929052205460ff165b806106e25750836001600160a01b0316612e6b84610598565b6001600160a01b031614949350505050565b826001600160a01b0316612e9082611429565b6001600160a01b031614612eb65760405162461bcd60e51b815260040161063390614595565b6001600160a01b038216612f185760405162461bcd60e51b8152602060048201526024808201527f4552433732313a207472616e7366657220746f20746865207a65726f206164646044820152637265737360e01b6064820152608401610633565b612f25838383600161340e565b826001600160a01b0316612f3882611429565b6001600160a01b031614612f5e5760405162461bcd60e51b815260040161063390614595565b600081815260046020908152604080832080546001600160a01b03199081169091556001600160a01b0387811680865260038552838620805460001901905590871680865283862080546001019055868652600290945282852080549092168417909155905184937fddf252ad1be2c89b69c2b068fc378daa952ba7f163c4a11628f55a4df523b3ef91a4505050565b6002600b54036130405760405162461bcd60e51b815260206004820152601f60248201527f5265656e7472616e637947756172643a207265656e7472616e742063616c6c006044820152606401610633565b6002600b55565b600c5460ff16156115675760405162461bcd60e51b815260206004820152600e60248201526d15140e9413d3d317d4105554d15160921b6044820152606401610633565b6040516001600160a01b0383166024820152604481018290526106d490849063a9059cbb60e01b906064015b60408051601f198184030181529190526020810180516001600160e01b03166001600160e01b03199093169290921790915261341a565b600a546001600160a01b031633146115675760405162461bcd60e51b815260206004820181905260248201527f4f776e61626c653a2063616c6c6572206973206e6f7420746865206f776e65726044820152606401610633565b600a80546001600160a01b038381166001600160a01b0319831681179093556040519116919082907f8be0079c531659141344cd1fd0a4f28419497f9722a3daafe3b4186f6b6457e090600090a35050565b60006131a582611429565b90506131b581600084600161340e565b6131be82611429565b600083815260046020908152604080832080546001600160a01b03199081169091556001600160a01b0385168085526003845282852080546000190190558785526002909352818420805490911690555192935084927fddf252ad1be2c89b69c2b068fc378daa952ba7f163c4a11628f55a4df523b3ef908390a45050565b816001600160a01b0316836001600160a01b03160361329e5760405162461bcd60e51b815260206004820152601960248201527f4552433732313a20617070726f766520746f2063616c6c6572000000000000006044820152606401610633565b6001600160a01b03838116600081815260056020908152604080832094871680845294825291829020805460ff191686151590811790915591519182527f17307eab39ab6107e8899845ad3d59bd9653f200f220920489ca2b5937696c31910160405180910390a3505050565b6121b5846323b872dd60e01b8585856040516024016130b793929190614383565b613337848484612e7d565b613343848484846134ec565b6121b55760405162461bcd60e51b8152600401610633906145da565b6117f38282604051806020016040528060008152506135ea565b6000818152600260205260409020546001600160a01b03166117e55760405162461bcd60e51b815260206004820152600f60248201526e15140e931417d393d517d193d55391608a1b6044820152606401610633565b60006001600160e01b031982166380ac58cd60e01b14806104f157506001600160e01b03198216635b5e139f60e01b1480610500575061050082612d1c565b6121b58484848461361d565b600061346f826040518060400160405280602081526020017f5361666545524332303a206c6f772d6c6576656c2063616c6c206661696c6564815250856001600160a01b03166137519092919063ffffffff16565b8051909150156106d4578080602001905181019061348d91906144ba565b6106d45760405162461bcd60e51b815260206004820152602a60248201527f5361666545524332303a204552433230206f7065726174696f6e20646964206e6044820152691bdd081cdd58d8d9595960b21b6064820152608401610633565b60006001600160a01b0384163b156135e257604051630a85bd0160e11b81526001600160a01b0385169063150b7a029061353090339089908890889060040161462c565b6020604051808303816000875af192505050801561356b575060408051601f3d908101601f191682019092526135689181019061465f565b60015b6135c8573d808015613599576040519150601f19603f3d011682016040523d82523d6000602084013e61359e565b606091505b5080516000036135c05760405162461bcd60e51b8152600401610633906145da565b805181602001fd5b6001600160e01b031916630a85bd0160e11b1490506106e2565b5060016106e2565b6135f48383613760565b61360160008484846134ec565b6106d45760405162461bcd60e51b8152600401610633906145da565b600181111561368c5760405162461bcd60e51b815260206004820152603560248201527f455243373231456e756d657261626c653a20636f6e7365637574697665207472604482015274185b9cd9995c9cc81b9bdd081cdd5c1c1bdc9d1959605a1b6064820152608401610633565b816001600160a01b0385166136e8576136e381600880546000838152600960205260408120829055600182018355919091527ff3f7a9fe364faab93b216da50a3214154f22a0a2b415b23a84c8169e8b636ee30155565b61370b565b836001600160a01b0316856001600160a01b03161461370b5761370b85826138f9565b6001600160a01b0384166137275761372281613996565b61374a565b846001600160a01b0316846001600160a01b03161461374a5761374a8482613a45565b5050505050565b60606106e28484600085613a89565b6001600160a01b0382166137b65760405162461bcd60e51b815260206004820181905260248201527f4552433732313a206d696e7420746f20746865207a65726f20616464726573736044820152606401610633565b6000818152600260205260409020546001600160a01b03161561381b5760405162461bcd60e51b815260206004820152601c60248201527f4552433732313a20746f6b656e20616c7265616479206d696e746564000000006044820152606401610633565b61382960008383600161340e565b6000818152600260205260409020546001600160a01b03161561388e5760405162461bcd60e51b815260206004820152601c60248201527f4552433732313a20746f6b656e20616c7265616479206d696e746564000000006044820152606401610633565b6001600160a01b038216600081815260036020908152604080832080546001019055848352600290915280822080546001600160a01b0319168417905551839291907fddf252ad1be2c89b69c2b068fc378daa952ba7f163c4a11628f55a4df523b3ef908290a45050565b60006001613906846114cf565b613910919061440f565b600083815260076020526040902054909150808214613963576001600160a01b03841660009081526006602090815260408083208584528252808320548484528184208190558352600790915290208190555b5060009182526007602090815260408084208490556001600160a01b039094168352600681528383209183525290812055565b6008546000906139a89060019061440f565b600083815260096020526040812054600880549394509092849081106139d0576139d061436d565b9060005260206000200154905080600883815481106139f1576139f161436d565b6000918252602080832090910192909255828152600990915260408082208490558582528120556008805480613a2957613a296144a4565b6001900381819060005260206000200160009055905550505050565b6000613a50836114cf565b6001600160a01b039093166000908152600660209081526040808320868452825280832085905593825260079052919091209190915550565b606082471015613aea5760405162461bcd60e51b815260206004820152602660248201527f416464726573733a20696e73756666696369656e742062616c616e636520666f6044820152651c8818d85b1b60d21b6064820152608401610633565b600080866001600160a01b03168587604051613b06919061467c565b60006040518083038185875af1925050503d8060008114613b43576040519150601f19603f3d011682016040523d82523d6000602084013e613b48565b606091505b5091509150613b5987838387613b64565b979650505050505050565b60608315613bd3578251600003613bcc576001600160a01b0385163b613bcc5760405162461bcd60e51b815260206004820152601d60248201527f416464726573733a2063616c6c20746f206e6f6e2d636f6e74726163740000006044820152606401610633565b50816106e2565b6106e28383815115613be85781518083602001fd5b8060405162461bcd60e51b81526004016106339190613d51565b6040805160e08101909152806000815260200160608152602001600081526020016000815260200160006001600160a01b0316815260200160008152602001600081525090565b50805460008255906000526020600020908101906117e59190613cb2565b828054828255906000526020600020908101928215613ca2579160200282015b82811115613ca2578251825591602001919060010190613c87565b50613cae929150613cb2565b5090565b5b80821115613cae5760008155600101613cb3565b6001600160e01b0319811681146117e557600080fd5b600060208284031215613cef57600080fd5b8135613cfa81613cc7565b9392505050565b60005b83811015613d1c578181015183820152602001613d04565b50506000910152565b60008151808452613d3d816020860160208601613d01565b601f01601f19169290920160200192915050565b602081526000613cfa6020830184613d25565b600060208284031215613d7657600080fd5b5035919050565b6001600160a01b03811681146117e557600080fd5b60008060408385031215613da557600080fd5b8235613db081613d7d565b946020939093013593505050565b634e487b7160e01b600052604160045260246000fd5b604051601f8201601f1916810167ffffffffffffffff81118282101715613dfd57613dfd613dbe565b604052919050565b600067ffffffffffffffff821115613e1f57613e1f613dbe565b50601f01601f191660200190565b60008060008060808587031215613e4357600080fd5b8435613e4e81613d7d565b93506020850135613e5e81613d7d565b925060408501359150606085013567ffffffffffffffff811115613e8157600080fd5b8501601f81018713613e9257600080fd5b8035613ea5613ea082613e05565b613dd4565b818152886020838501011115613eba57600080fd5b8160208401602083013760006020838301015280935050505092959194509250565b600080600060608486031215613ef157600080fd5b8335613efc81613d7d565b92506020840135613f0c81613d7d565b929592945050506040919091013590565b60008083601f840112613f2f57600080fd5b50813567ffffffffffffffff811115613f4757600080fd5b6020830191508360208260051b8501011115613f6257600080fd5b9250929050565b60008060008060008060808789031215613f8257600080fd5b8635613f8d81613d7d565b9550602087013567ffffffffffffffff80821115613faa57600080fd5b613fb68a838b01613f1d565b90975095506040890135915080821115613fcf57600080fd5b50613fdc89828a01613f1d565b979a9699509497949695606090950135949350505050565b6000806020838503121561400757600080fd5b823567ffffffffffffffff81111561401e57600080fd5b61402a85828601613f1d565b90969095509350505050565b60006020828403121561404857600080fd5b8135613cfa81613d7d565b80151581146117e557600080fd5b6000806040838503121561407457600080fd5b823561407f81613d7d565b9150602083013561408f81614053565b809150509250929050565b600080600080606085870312156140b057600080fd5b84356140bb81613d7d565b9350602085013567ffffffffffffffff8111156140d757600080fd5b6140e387828801613f1d565b9598909750949560400135949350505050565b60006020828403121561410857600080fd5b8135613cfa81614053565b60008060008060008060008060006101008a8c03121561413257600080fd5b893561413d81613d7d565b985060208a01356005811061415157600080fd5b975060408a013567ffffffffffffffff81111561416d57600080fd5b6141798c828d01613f1d565b90985096505060608a0135945060808a0135935060a08a013561419b81613d7d565b8093505060c08a0135915060e08a013590509295985092959850929598565b634e487b7160e01b600052602160045260246000fd5b600081518084526020808501945080840160005b83811015614200578151875295820195908201906001016141e4565b509495945050505050565b60208152600082516005811061423157634e487b7160e01b600052602160045260246000fd5b80602084015250602083015160e060408401526142526101008401826141d0565b90506040840151606084015260608401516080840152608084015161428260a08501826001600160a01b03169052565b5060a084015160c084015260c084015160e08401528091505092915050565b600080604083850312156142b457600080fd5b82356142bf81613d7d565b9150602083013561408f81613d7d565b600181811c908216806142e357607f821691505b602082108103612b8857634e487b7160e01b600052602260045260246000fd5b6020808252602d908201527f4552433732313a2063616c6c6572206973206e6f7420746f6b656e206f776e6560408201526c1c881bdc88185c1c1c9bdd9959609a1b606082015260800190565b60006020828403121561436257600080fd5b8151613cfa81613d7d565b634e487b7160e01b600052603260045260246000fd5b6001600160a01b039384168152919092166020820152604081019190915260600190565b634e487b7160e01b600052601160045260246000fd5b8082028115828204841417610500576105006143a7565b6000826143f157634e487b7160e01b600052601260045260246000fd5b500490565b60006020828403121561440857600080fd5b5051919050565b81810381811115610500576105006143a7565b80820180821115610500576105006143a7565b600060018201614447576144476143a7565b5060010190565b81835260006001600160fb1b0383111561446757600080fd5b8260051b80836020870137939093016020019392505050565b60408152600061449460408301858761444e565b9050826020830152949350505050565b634e487b7160e01b600052603160045260246000fd5b6000602082840312156144cc57600080fd5b8151613cfa81614053565b60c0815260006144eb60c08301898b61444e565b60208301979097525060408101949094526001600160a01b03929092166060840152608083015260a09091015292915050565b60006020828403121561453057600080fd5b815167ffffffffffffffff81111561454757600080fd5b8201601f8101841361455857600080fd5b8051614566613ea082613e05565b81815285602083850101111561457b57600080fd5b61458c826020830160208601613d01565b95945050505050565b60208082526025908201527f4552433732313a207472616e736665722066726f6d20696e636f72726563742060408201526437bbb732b960d91b606082015260800190565b60208082526032908201527f4552433732313a207472616e7366657220746f206e6f6e20455243373231526560408201527131b2b4bb32b91034b6b83632b6b2b73a32b960711b606082015260800190565b6001600160a01b03858116825284166020820152604081018390526080606082018190526000906112a290830184613d25565b60006020828403121561467157600080fd5b8151613cfa81613cc7565b6000825161468e818460208701613d01565b919091019291505056fea2646970667358221220a8a30ee55287059b15fddfadeddce857c747b22374b55d65bbc19f3b58cb167764736f6c63430008130033a2646970667358221220f24a33af289e389ca8d1acb6bfb429aca8c2d29d94b8a4fd73f20e90e82ea14864736f6c63430008130033",
  "linkReferences": {},
  "deployedLinkReferences": {}
}