{
  "_format": "hh-sol-artifact-1",
  "contractName": "TradingPool",
  "sourceName": "contracts/protocol/Swap/TradingPool.sol",
  "abi": [
    {
      "inputs": [
        {
          "internalType": "contract IAddressesProvider",
          "name": "addressProvider",
          "type": "address"
        },
        {
          "internalType": "address",
          "name": "owner",
          "type": "address"
        },
        {
          "internalType": "contract IERC20",
          "name": "token",
          "type": "address"
        },
        {
          "internalType": "address",
          "name": "nft",
          "type": "address"
        },
        {
          "internalType": "uint256",
          "name": "defaultSwapFee",
          "type": "uint256"
        },
        {
          "internalType": "string",
          "name": "name",
          "type": "string"
        },
        {
          "internalType": "string",
          "name": "symbol",
          "type": "string"
        }
      ],
      "stateMutability": "nonpayable",
      "type": "constructor"
    },
    {
      "anonymous": false,
      "inputs": [
        {
          "indexed": true,
          "internalType": "address",
          "name": "user",
          "type": "address"
        },
        {
          "indexed": true,
          "internalType": "uint256",
          "name": "id",
          "type": "uint256"
        },
        {
          "indexed": false,
          "internalType": "uint256",
          "name": "tokenAmount",
          "type": "uint256"
        },
        {
          "indexed": false,
          "internalType": "uint256[]",
          "name": "nftIds",
          "type": "uint256[]"
        }
      ],
      "name": "AddLiquidity",
      "type": "event"
    },
    {
      "anonymous": false,
      "inputs": [
        {
          "indexed": true,
          "internalType": "address",
          "name": "owner",
          "type": "address"
        },
        {
          "indexed": true,
          "internalType": "address",
          "name": "approved",
          "type": "address"
        },
        {
          "indexed": true,
          "internalType": "uint256",
          "name": "tokenId",
          "type": "uint256"
        }
      ],
      "name": "Approval",
      "type": "event"
    },
    {
      "anonymous": false,
      "inputs": [
        {
          "indexed": true,
          "internalType": "address",
          "name": "owner",
          "type": "address"
        },
        {
          "indexed": true,
          "internalType": "address",
          "name": "operator",
          "type": "address"
        },
        {
          "indexed": false,
          "internalType": "bool",
          "name": "approved",
          "type": "bool"
        }
      ],
      "name": "ApprovalForAll",
      "type": "event"
    },
    {
      "anonymous": false,
      "inputs": [
        {
          "indexed": true,
          "internalType": "address",
          "name": "user",
          "type": "address"
        },
        {
          "indexed": false,
          "internalType": "uint256[]",
          "name": "nftIds",
          "type": "uint256[]"
        },
        {
          "indexed": false,
          "internalType": "uint256",
          "name": "price",
          "type": "uint256"
        }
      ],
      "name": "Buy",
      "type": "event"
    },
    {
      "anonymous": false,
      "inputs": [
        {
          "indexed": true,
          "internalType": "address",
          "name": "previousOwner",
          "type": "address"
        },
        {
          "indexed": true,
          "internalType": "address",
          "name": "newOwner",
          "type": "address"
        }
      ],
      "name": "OwnershipTransferred",
      "type": "event"
    },
    {
      "anonymous": false,
      "inputs": [
        {
          "indexed": true,
          "internalType": "address",
          "name": "user",
          "type": "address"
        },
        {
          "indexed": true,
          "internalType": "uint256",
          "name": "id",
          "type": "uint256"
        }
      ],
      "name": "RemoveLiquidity",
      "type": "event"
    },
    {
      "anonymous": false,
      "inputs": [
        {
          "indexed": true,
          "internalType": "address",
          "name": "user",
          "type": "address"
        },
        {
          "indexed": false,
          "internalType": "uint256[]",
          "name": "nftIds",
          "type": "uint256[]"
        },
        {
          "indexed": false,
          "internalType": "uint256",
          "name": "price",
          "type": "uint256"
        }
      ],
      "name": "Sell",
      "type": "event"
    },
    {
      "anonymous": false,
      "inputs": [
        {
          "indexed": true,
          "internalType": "address",
          "name": "from",
          "type": "address"
        },
        {
          "indexed": true,
          "internalType": "address",
          "name": "to",
          "type": "address"
        },
        {
          "indexed": true,
          "internalType": "uint256",
          "name": "tokenId",
          "type": "uint256"
        }
      ],
      "name": "Transfer",
      "type": "event"
    },
    {
      "inputs": [
        {
          "internalType": "uint256",
          "name": "tokenAmount",
          "type": "uint256"
        },
        {
          "internalType": "uint256[]",
          "name": "nftIds",
          "type": "uint256[]"
        },
        {
          "internalType": "address",
          "name": "curve",
          "type": "address"
        },
        {
          "internalType": "uint256",
          "name": "delta",
          "type": "uint256"
        },
        {
          "internalType": "uint256",
          "name": "initialPrice",
          "type": "uint256"
        }
      ],
      "name": "addLiquidity",
      "outputs": [],
      "stateMutability": "nonpayable",
      "type": "function"
    },
    {
      "inputs": [
        {
          "internalType": "address",
          "name": "to",
          "type": "address"
        },
        {
          "internalType": "uint256",
          "name": "tokenId",
          "type": "uint256"
        }
      ],
      "name": "approve",
      "outputs": [],
      "stateMutability": "nonpayable",
      "type": "function"
    },
    {
      "inputs": [
        {
          "internalType": "address",
          "name": "owner",
          "type": "address"
        }
      ],
      "name": "balanceOf",
      "outputs": [
        {
          "internalType": "uint256",
          "name": "",
          "type": "uint256"
        }
      ],
      "stateMutability": "view",
      "type": "function"
    },
    {
      "inputs": [
        {
          "internalType": "uint256[]",
          "name": "nftIds",
          "type": "uint256[]"
        }
      ],
      "name": "buy",
      "outputs": [
        {
          "internalType": "uint256",
          "name": "",
          "type": "uint256"
        }
      ],
      "stateMutability": "nonpayable",
      "type": "function"
    },
    {
      "inputs": [
        {
          "internalType": "uint256",
          "name": "tokenId",
          "type": "uint256"
        }
      ],
      "name": "getApproved",
      "outputs": [
        {
          "internalType": "address",
          "name": "",
          "type": "address"
        }
      ],
      "stateMutability": "view",
      "type": "function"
    },
    {
      "inputs": [
        {
          "internalType": "uint256",
          "name": "lpId",
          "type": "uint256"
        }
      ],
      "name": "getLP",
      "outputs": [
        {
          "components": [
            {
              "internalType": "uint256",
              "name": "index",
              "type": "uint256"
            },
            {
              "internalType": "uint256",
              "name": "tokenAmount",
              "type": "uint256"
            },
            {
              "internalType": "uint256[]",
              "name": "nftIds",
              "type": "uint256[]"
            },
            {
              "internalType": "address",
              "name": "curve",
              "type": "address"
            },
            {
              "internalType": "uint256",
              "name": "delta",
              "type": "uint256"
            },
            {
              "internalType": "uint256",
              "name": "price",
              "type": "uint256"
            }
          ],
          "internalType": "struct DataTypes.LiquidityPair",
          "name": "",
          "type": "tuple"
        }
      ],
      "stateMutability": "view",
      "type": "function"
    },
    {
      "inputs": [],
      "name": "getNFT",
      "outputs": [
        {
          "internalType": "address",
          "name": "",
          "type": "address"
        }
      ],
      "stateMutability": "view",
      "type": "function"
    },
    {
      "inputs": [
        {
          "internalType": "uint256",
          "name": "nftId",
          "type": "uint256"
        }
      ],
      "name": "getNftIdLP",
      "outputs": [
        {
          "components": [
            {
              "internalType": "uint256",
              "name": "index",
              "type": "uint256"
            },
            {
              "internalType": "uint256",
              "name": "tokenAmount",
              "type": "uint256"
            },
            {
              "internalType": "uint256[]",
              "name": "nftIds",
              "type": "uint256[]"
            },
            {
              "internalType": "address",
              "name": "curve",
              "type": "address"
            },
            {
              "internalType": "uint256",
              "name": "delta",
              "type": "uint256"
            },
            {
              "internalType": "uint256",
              "name": "price",
              "type": "uint256"
            }
          ],
          "internalType": "struct DataTypes.LiquidityPair",
          "name": "",
          "type": "tuple"
        }
      ],
      "stateMutability": "view",
      "type": "function"
    },
    {
      "inputs": [],
      "name": "getSwapFee",
      "outputs": [
        {
          "internalType": "uint256",
          "name": "",
          "type": "uint256"
        }
      ],
      "stateMutability": "view",
      "type": "function"
    },
    {
      "inputs": [],
      "name": "getToken",
      "outputs": [
        {
          "internalType": "address",
          "name": "",
          "type": "address"
        }
      ],
      "stateMutability": "view",
      "type": "function"
    },
    {
      "inputs": [
        {
          "internalType": "address",
          "name": "owner",
          "type": "address"
        },
        {
          "internalType": "address",
          "name": "operator",
          "type": "address"
        }
      ],
      "name": "isApprovedForAll",
      "outputs": [
        {
          "internalType": "bool",
          "name": "",
          "type": "bool"
        }
      ],
      "stateMutability": "view",
      "type": "function"
    },
    {
      "inputs": [],
      "name": "name",
      "outputs": [
        {
          "internalType": "string",
          "name": "",
          "type": "string"
        }
      ],
      "stateMutability": "view",
      "type": "function"
    },
    {
      "inputs": [
        {
          "internalType": "address",
          "name": "",
          "type": "address"
        },
        {
          "internalType": "address",
          "name": "",
          "type": "address"
        },
        {
          "internalType": "uint256",
          "name": "",
          "type": "uint256"
        },
        {
          "internalType": "bytes",
          "name": "",
          "type": "bytes"
        }
      ],
      "name": "onERC721Received",
      "outputs": [
        {
          "internalType": "bytes4",
          "name": "",
          "type": "bytes4"
        }
      ],
      "stateMutability": "nonpayable",
      "type": "function"
    },
    {
      "inputs": [],
      "name": "owner",
      "outputs": [
        {
          "internalType": "address",
          "name": "",
          "type": "address"
        }
      ],
      "stateMutability": "view",
      "type": "function"
    },
    {
      "inputs": [
        {
          "internalType": "uint256",
          "name": "tokenId",
          "type": "uint256"
        }
      ],
      "name": "ownerOf",
      "outputs": [
        {
          "internalType": "address",
          "name": "",
          "type": "address"
        }
      ],
      "stateMutability": "view",
      "type": "function"
    },
    {
      "inputs": [
        {
          "internalType": "uint256",
          "name": "lpId",
          "type": "uint256"
        }
      ],
      "name": "removeLiquidity",
      "outputs": [],
      "stateMutability": "nonpayable",
      "type": "function"
    },
    {
      "inputs": [],
      "name": "renounceOwnership",
      "outputs": [],
      "stateMutability": "nonpayable",
      "type": "function"
    },
    {
      "inputs": [
        {
          "internalType": "address",
          "name": "from",
          "type": "address"
        },
        {
          "internalType": "address",
          "name": "to",
          "type": "address"
        },
        {
          "internalType": "uint256",
          "name": "tokenId",
          "type": "uint256"
        }
      ],
      "name": "safeTransferFrom",
      "outputs": [],
      "stateMutability": "nonpayable",
      "type": "function"
    },
    {
      "inputs": [
        {
          "internalType": "address",
          "name": "from",
          "type": "address"
        },
        {
          "internalType": "address",
          "name": "to",
          "type": "address"
        },
        {
          "internalType": "uint256",
          "name": "tokenId",
          "type": "uint256"
        },
        {
          "internalType": "bytes",
          "name": "data",
          "type": "bytes"
        }
      ],
      "name": "safeTransferFrom",
      "outputs": [],
      "stateMutability": "nonpayable",
      "type": "function"
    },
    {
      "inputs": [
        {
          "internalType": "uint256[]",
          "name": "nftIds",
          "type": "uint256[]"
        },
        {
          "internalType": "uint256[]",
          "name": "liquidityPairs",
          "type": "uint256[]"
        }
      ],
      "name": "sell",
      "outputs": [
        {
          "internalType": "uint256",
          "name": "",
          "type": "uint256"
        }
      ],
      "stateMutability": "nonpayable",
      "type": "function"
    },
    {
      "inputs": [
        {
          "internalType": "address",
          "name": "operator",
          "type": "address"
        },
        {
          "internalType": "bool",
          "name": "approved",
          "type": "bool"
        }
      ],
      "name": "setApprovalForAll",
      "outputs": [],
      "stateMutability": "nonpayable",
      "type": "function"
    },
    {
      "inputs": [
        {
          "internalType": "uint256",
          "name": "newSwapFee",
          "type": "uint256"
        }
      ],
      "name": "setSwapFee",
      "outputs": [],
      "stateMutability": "nonpayable",
      "type": "function"
    },
    {
      "inputs": [
        {
          "internalType": "bytes4",
          "name": "interfaceId",
          "type": "bytes4"
        }
      ],
      "name": "supportsInterface",
      "outputs": [
        {
          "internalType": "bool",
          "name": "",
          "type": "bool"
        }
      ],
      "stateMutability": "view",
      "type": "function"
    },
    {
      "inputs": [],
      "name": "symbol",
      "outputs": [
        {
          "internalType": "string",
          "name": "",
          "type": "string"
        }
      ],
      "stateMutability": "view",
      "type": "function"
    },
    {
      "inputs": [
        {
          "internalType": "uint256",
          "name": "index",
          "type": "uint256"
        }
      ],
      "name": "tokenByIndex",
      "outputs": [
        {
          "internalType": "uint256",
          "name": "",
          "type": "uint256"
        }
      ],
      "stateMutability": "view",
      "type": "function"
    },
    {
      "inputs": [
        {
          "internalType": "address",
          "name": "owner",
          "type": "address"
        },
        {
          "internalType": "uint256",
          "name": "index",
          "type": "uint256"
        }
      ],
      "name": "tokenOfOwnerByIndex",
      "outputs": [
        {
          "internalType": "uint256",
          "name": "",
          "type": "uint256"
        }
      ],
      "stateMutability": "view",
      "type": "function"
    },
    {
      "inputs": [
        {
          "internalType": "uint256",
          "name": "tokenId",
          "type": "uint256"
        }
      ],
      "name": "tokenURI",
      "outputs": [
        {
          "internalType": "string",
          "name": "",
          "type": "string"
        }
      ],
      "stateMutability": "view",
      "type": "function"
    },
    {
      "inputs": [],
      "name": "totalSupply",
      "outputs": [
        {
          "internalType": "uint256",
          "name": "",
          "type": "uint256"
        }
      ],
      "stateMutability": "view",
      "type": "function"
    },
    {
      "inputs": [
        {
          "internalType": "address",
          "name": "from",
          "type": "address"
        },
        {
          "internalType": "address",
          "name": "to",
          "type": "address"
        },
        {
          "internalType": "uint256",
          "name": "tokenId",
          "type": "uint256"
        }
      ],
      "name": "transferFrom",
      "outputs": [],
      "stateMutability": "nonpayable",
      "type": "function"
    },
    {
      "inputs": [
        {
          "internalType": "address",
          "name": "newOwner",
          "type": "address"
        }
      ],
      "name": "transferOwnership",
      "outputs": [],
      "stateMutability": "nonpayable",
      "type": "function"
    }
  ],
  "bytecode": "0x60806040523480156200001157600080fd5b506040516200356d3803806200356d8339810160408190526200003491620002dd565b8181600062000044838262000436565b50600162000053828262000436565b505050620000706200006a620001a960201b60201c565b620001ad565b866001600160a01b031663ca1470ea6040518163ffffffff1660e01b8152600401602060405180830381865afa158015620000af573d6000803e3d6000fd5b505050506040513d601f19601f82011682018060405250810190620000d5919062000502565b6001600160a01b0316336001600160a01b0316146200014f5760405162461bcd60e51b815260206004820152602c60248201527f54726164696e6720506f6f6c206d75737420626520637265617465642074687260448201526b6f75676820466163746f727960a01b606482015260840160405180910390fd5b600b80546001600160a01b03808a166001600160a01b031992831617909255600c8054888416908316179055600d805492871692909116919091179055600e8390556200019c86620001ad565b5050505050505062000529565b3390565b600a80546001600160a01b038381166001600160a01b0319831681179093556040519116919082907f8be0079c531659141344cd1fd0a4f28419497f9722a3daafe3b4186f6b6457e090600090a35050565b6001600160a01b03811681146200021557600080fd5b50565b634e487b7160e01b600052604160045260246000fd5b600082601f8301126200024057600080fd5b81516001600160401b03808211156200025d576200025d62000218565b604051601f8301601f19908116603f0116810190828211818310171562000288576200028862000218565b81604052838152602092508683858801011115620002a557600080fd5b600091505b83821015620002c95785820183015181830184015290820190620002aa565b600093810190920192909252949350505050565b600080600080600080600060e0888a031215620002f957600080fd5b87516200030681620001ff565b60208901519097506200031981620001ff565b60408901519096506200032c81620001ff565b60608901519095506200033f81620001ff565b608089015160a08a015191955093506001600160401b03808211156200036457600080fd5b620003728b838c016200022e565b935060c08a01519150808211156200038957600080fd5b50620003988a828b016200022e565b91505092959891949750929550565b600181811c90821680620003bc57607f821691505b602082108103620003dd57634e487b7160e01b600052602260045260246000fd5b50919050565b601f8211156200043157600081815260208120601f850160051c810160208610156200040c5750805b601f850160051c820191505b818110156200042d5782815560010162000418565b5050505b505050565b81516001600160401b0381111562000452576200045262000218565b6200046a81620004638454620003a7565b84620003e3565b602080601f831160018114620004a25760008415620004895750858301515b600019600386901b1c1916600185901b1785556200042d565b600085815260208120601f198616915b82811015620004d357888601518255948401946001909101908401620004b2565b5085821015620004f25787850151600019600388901b60f8161c191681555b5050505050600190811b01905550565b6000602082840312156200051557600080fd5b81516200052281620001ff565b9392505050565b61303480620005396000396000f3fe608060405234801561001057600080fd5b50600436106101da5760003560e01c8063715018a611610104578063c243c72b116100a2578063d4cadf6811610071578063d4cadf6814610407578063e4f096c91461040f578063e985e9c514610422578063f2fde38b1461045e57600080fd5b8063c243c72b146103ae578063c87b56dd146103c1578063cdd3f298146103d4578063d07fd393146103f457600080fd5b806395d89b41116100de57806395d89b411461036d5780639c8f9f2314610375578063a22cb46514610388578063b88d4fde1461039b57600080fd5b8063715018a61461034357806388a6360e1461034b5780638da5cb5b1461035c57600080fd5b806323b872dd1161017c5780634f6ccce71161014b5780634f6ccce7146102f75780636352211e1461030a57806368660cd41461031d57806370a082311461033057600080fd5b806323b872dd146102ab5780632f745c59146102be57806334e19907146102d157806342842e0e146102e457600080fd5b8063095ea7b3116101b8578063095ea7b314610247578063150b7a021461025c57806318160ddd1461028857806321df0da71461029a57600080fd5b806301ffc9a7146101df57806306fdde0314610207578063081812fc1461021c575b600080fd5b6101f26101ed366004612823565b610471565b60405190151581526020015b60405180910390f35b61020f610482565b6040516101fe9190612890565b61022f61022a3660046128a3565b610514565b6040516001600160a01b0390911681526020016101fe565b61025a6102553660046128d8565b61053b565b005b61026f61026a366004612949565b610655565b6040516001600160e01b031990911681526020016101fe565b6008545b6040519081526020016101fe565b600c546001600160a01b031661022f565b61025a6102b9366004612a09565b610666565b61028c6102cc3660046128d8565b610697565b61025a6102df3660046128a3565b61072d565b61025a6102f2366004612a09565b61073a565b61028c6103053660046128a3565b610755565b61022f6103183660046128a3565b6107e8565b61025a61032b366004612aba565b610848565b61028c61033e366004612b23565b610a71565b61025a610af7565b600d546001600160a01b031661022f565b600a546001600160a01b031661022f565b61020f610b0b565b61025a6103833660046128a3565b610b1a565b61025a610396366004612b4c565b610c8f565b61025a6103a9366004612949565b610c9e565b61028c6103bc366004612b83565b610cd6565b61020f6103cf3660046128a3565b6110d6565b6103e76103e23660046128a3565b61114a565b6040516101fe9190612bf3565b61028c610402366004612c55565b6111fb565b600e5461028c565b6103e761041d3660046128a3565b611608565b6101f2610430366004612cb9565b6001600160a01b03918216600090815260056020908152604080832093909416825291909152205460ff1690565b61025a61046c366004612b23565b6116c1565b600061047c8261173a565b92915050565b60606000805461049190612cec565b80601f01602080910402602001604051908101604052809291908181526020018280546104bd90612cec565b801561050a5780601f106104df5761010080835404028352916020019161050a565b820191906000526020600020905b8154815290600101906020018083116104ed57829003601f168201915b5050505050905090565b600061051f8261175f565b506000908152600460205260409020546001600160a01b031690565b6000610546826107e8565b9050806001600160a01b0316836001600160a01b0316036105b85760405162461bcd60e51b815260206004820152602160248201527f4552433732313a20617070726f76616c20746f2063757272656e74206f776e656044820152603960f91b60648201526084015b60405180910390fd5b336001600160a01b03821614806105d457506105d48133610430565b6106465760405162461bcd60e51b815260206004820152603d60248201527f4552433732313a20617070726f76652063616c6c6572206973206e6f7420746f60448201527f6b656e206f776e6572206f7220617070726f76656420666f7220616c6c00000060648201526084016105af565b61065083836117be565b505050565b630a85bd0160e11b5b949350505050565b610670338261182c565b61068c5760405162461bcd60e51b81526004016105af90612d26565b6106508383836118aa565b60006106a283610a71565b82106107045760405162461bcd60e51b815260206004820152602b60248201527f455243373231456e756d657261626c653a206f776e657220696e646578206f7560448201526a74206f6620626f756e647360a81b60648201526084016105af565b506001600160a01b03919091166000908152600660209081526040808320938352929052205490565b610735611a1b565b600e55565b61065083838360405180602001604052806000815250610c9e565b600061076060085490565b82106107c35760405162461bcd60e51b815260206004820152602c60248201527f455243373231456e756d657261626c653a20676c6f62616c20696e646578206f60448201526b7574206f6620626f756e647360a01b60648201526084016105af565b600882815481106107d6576107d6612d73565b90600052602060002001549050919050565b6000818152600260205260408120546001600160a01b03168061047c5760405162461bcd60e51b8152602060048201526018602482015277115490cdcc8c4e881a5b9d985b1a59081d1bdad95b88125160421b60448201526064016105af565b60005b845181101561094057600d5485516001600160a01b03909116906342842e0e903390309089908690811061088157610881612d73565b60200260200101516040518463ffffffff1660e01b81526004016108a793929190612d89565b600060405180830381600087803b1580156108c157600080fd5b505af11580156108d5573d6000803e3d6000fd5b5050505060405180604001604052806011548152602001828152506010600087848151811061090657610906612d73565b602090810291909101810151825281810192909252604001600020825181559101516001909101558061093881612dc3565b91505061084b565b50600c54610959906001600160a01b0316333088611a75565b6040805160c08101825260115480825260208083018981528385018981526001600160a01b03891660608601526080850188905260a085018790526000938452600f835294909220835181559151600183015592518051929391926109c49260028501920190612750565b5060608201516003820180546001600160a01b0319166001600160a01b039092169190911790556080820151600482015560a090910151600590910155601154610a0f903390611acd565b60118054906000610a1f83612dc3565b9190505550601154336001600160a01b03167ff2b8d398085ceadfce4f6fd552acf36e537609826798cb78bcde9fb1cc7cb9138787604051610a62929190612ddc565b60405180910390a35050505050565b60006001600160a01b038216610adb5760405162461bcd60e51b815260206004820152602960248201527f4552433732313a2061646472657373207a65726f206973206e6f7420612076616044820152683634b21037bbb732b960b91b60648201526084016105af565b506001600160a01b031660009081526003602052604090205490565b610aff611a1b565b610b096000611ae7565b565b60606001805461049190612cec565b610b2381611b39565b60005b6000828152600f6020526040902060020154811015610bea57600d546000838152600f6020526040902060020180546001600160a01b03909216916342842e0e91309133919086908110610b7c57610b7c612d73565b90600052602060002001546040518463ffffffff1660e01b8152600401610ba593929190612d89565b600060405180830381600087803b158015610bbf57600080fd5b505af1158015610bd3573d6000803e3d6000fd5b505050508080610be290612dc3565b915050610b26565b506000818152600f6020526040902060010154600c54610c17916001600160a01b03909116903090611bdc565b6000818152600f602052604081208181556001810182905590610c3d600283018261279b565b506003810180546001600160a01b03191690556000600482018190556005909101819055604051829133917fdfdd120ded9b7afc0c23dd5310e93aaa3e1c3b9f75af9b805fab3030842439f29190a350565b610c9a338383611c0c565b5050565b610ca8338361182c565b610cc45760405162461bcd60e51b81526004016105af90612d26565b610cd084848484611cda565b50505050565b600080600080600080610ce76127b9565b60005b885181101561106e57601060008a8381518110610d0957610d09612d73565b60200260200101518152602001908152602001600020600001549350601060008a8381518110610d3b57610d3b612d73565b60200260200101518152602001908152602001600020600101549250600f60008581526020019081526020016000206040518060c0016040529081600082015481526020016001820154815260200160028201805480602002602001604051908101604052809291908181526020018280548015610dd857602002820191906000526020600020905b815481526020019060010190808311610dc4575b505050918352505060038201546001600160a01b0390811660208301526004808401546040808501919091526005909401546060938401529184015160a085015160808601519451635d8b487160e11b815293840152602483019390935292945091169063bb1690e290604401602060405180830381865afa158015610e62573d6000803e3d6000fd5b505050506040513d601f19601f82011682018060405250810190610e869190612df5565b955061271086600e54612710610e9c9190612e0e565b610ea69190612e21565b610eb09190612e38565b6000858152600f6020526040902060058101889055600201805491965090610eda90600190612e5a565b81548110610eea57610eea612d73565b9060005260206000200154600f60008681526020019081526020016000206002018481548110610f1c57610f1c612d73565b9060005260206000200181905550600f6000858152602001908152602001600020600201805480610f4f57610f4f612e6d565b6001900381819060005260206000200160009055905584600f60008681526020019081526020016000206001016000828254610f8b9190612e0e565b90915550610f9b90508588612e0e565b9650601060008a8381518110610fb357610fb3612d73565b6020908102919091018101518252810191909152604001600090812081815560010155600d5489516001600160a01b03909116906342842e0e90309033908d908690811061100357611003612d73565b60200260200101516040518463ffffffff1660e01b815260040161102993929190612d89565b600060405180830381600087803b15801561104357600080fd5b505af1158015611057573d6000803e3d6000fd5b50505050808061106690612dc3565b915050610cea565b50600c54611087906001600160a01b0316333089611a75565b336001600160a01b03167f0306912acbf130bc61cce94222a394a64e258433196a3d3679a9bbfb8973f77389886040516110c2929190612e83565b60405180910390a250939695505050505050565b60606110e18261175f565b60006110f860408051602081019091526000815290565b905060008151116111185760405180602001604052806000815250611143565b8061112284611d0d565b604051602001611133929190612ea5565b6040516020818303038152906040525b9392505050565b6111526127b9565b6000828152600f6020908152604091829020825160c08101845281548152600182015481840152600282018054855181860281018601875281815292959394938601938301828280156111c457602002820191906000526020600020905b8154815260200190600101908083116111b0575b505050918352505060038201546001600160a01b031660208201526004820154604082015260059091015460609091015292915050565b600081518351146112655760405162461bcd60e51b815260206004820152602e60248201527f4e46547320616e64204c6971756964697479205061697273206d75737420686160448201526d0ecca40e6c2daca40d8cadccee8d60931b60648201526084016105af565b6000806000806112736127b9565b60005b88518110156115a157600d5489516001600160a01b03909116906342842e0e90339030908d90869081106112ac576112ac612d73565b60200260200101516040518463ffffffff1660e01b81526004016112d293929190612d89565b600060405180830381600087803b1580156112ec57600080fd5b505af1158015611300573d6000803e3d6000fd5b50505050601060008a838151811061131a5761131a612d73565b60200260200101518152602001908152602001600020600001549350601060008a838151811061134c5761134c612d73565b60200260200101518152602001908152602001600020600101549250600f60008581526020019081526020016000206040518060c00160405290816000820154815260200160018201548152602001600282018054806020026020016040519081016040528092919081815260200182805480156113e957602002820191906000526020600020905b8154815260200190600101908083116113d5575b505050918352505060038201546001600160a01b031660208201526004820154604082015260059091015460609091015260a0810151600e54919350612710916114339083612e5a565b61143d9190612e21565b6114479190612e38565b94506114538587612e0e565b9550600f60008a838151811061146b5761146b612d73565b6020026020010151815260200190815260200160002060020189828151811061149657611496612d73565b602090810291909101810151825460018181018555600094855283852090910191909155868352600f909152604082200180548792906114d7908490612e5a565b9091555050606082015160a08301516080840151604051633698f96560e11b8152600481019290925260248201526001600160a01b0390911690636d31f2ca90604401602060405180830381865afa158015611537573d6000803e3d6000fd5b505050506040513d601f19601f8201168201806040525081019061155b9190612df5565b600f60008b848151811061157157611571612d73565b6020026020010151815260200190815260200160002060050181905550808061159990612dc3565b915050611276565b50600c546115b9906001600160a01b03163087611bdc565b336001600160a01b03167feb3c528adebc70d317bef09706905761642981ebf9def9aafdc40f404e49346a89876040516115f4929190612e83565b60405180910390a250929695505050505050565b6116106127b9565b6000828152601060209081526040808320548352600f825291829020825160c08101845281548152600182015481840152600282018054855181860281018601875281815292959394938601938301828280156111c457602002820191906000526020600020908154815260200190600101908083116111b057505050918352505060038201546001600160a01b031660208201526004820154604082015260059091015460609091015292915050565b6116c9611a1b565b6001600160a01b03811661172e5760405162461bcd60e51b815260206004820152602660248201527f4f776e61626c653a206e6577206f776e657220697320746865207a65726f206160448201526564647265737360d01b60648201526084016105af565b61173781611ae7565b50565b60006001600160e01b0319821663780e9d6360e01b148061047c575061047c82611da0565b6000818152600260205260409020546001600160a01b03166117375760405162461bcd60e51b8152602060048201526018602482015277115490cdcc8c4e881a5b9d985b1a59081d1bdad95b88125160421b60448201526064016105af565b600081815260046020526040902080546001600160a01b0319166001600160a01b03841690811790915581906117f3826107e8565b6001600160a01b03167f8c5be1e5ebec7d5bd14f71427d1e84f3dd0314c0f7b2291e5b200ac8c7c3b92560405160405180910390a45050565b600080611838836107e8565b9050806001600160a01b0316846001600160a01b0316148061187f57506001600160a01b0380821660009081526005602090815260408083209388168352929052205460ff165b8061065e5750836001600160a01b031661189884610514565b6001600160a01b031614949350505050565b826001600160a01b03166118bd826107e8565b6001600160a01b0316146118e35760405162461bcd60e51b81526004016105af90612ed4565b6001600160a01b0382166119455760405162461bcd60e51b8152602060048201526024808201527f4552433732313a207472616e7366657220746f20746865207a65726f206164646044820152637265737360e01b60648201526084016105af565b6119528383836001611df0565b826001600160a01b0316611965826107e8565b6001600160a01b03161461198b5760405162461bcd60e51b81526004016105af90612ed4565b600081815260046020908152604080832080546001600160a01b03199081169091556001600160a01b0387811680865260038552838620805460001901905590871680865283862080546001019055868652600290945282852080549092168417909155905184937fddf252ad1be2c89b69c2b068fc378daa952ba7f163c4a11628f55a4df523b3ef91a4505050565b600a546001600160a01b03163314610b095760405162461bcd60e51b815260206004820181905260248201527f4f776e61626c653a2063616c6c6572206973206e6f7420746865206f776e657260448201526064016105af565b610cd0846323b872dd60e01b858585604051602401611a9693929190612d89565b60408051601f198184030181529190526020810180516001600160e01b03166001600160e01b031990931692909217909152611dfc565b610c9a828260405180602001604052806000815250611ece565b600a80546001600160a01b038381166001600160a01b0319831681179093556040519116919082907f8be0079c531659141344cd1fd0a4f28419497f9722a3daafe3b4186f6b6457e090600090a35050565b6000611b44826107e8565b9050611b54816000846001611df0565b611b5d826107e8565b600083815260046020908152604080832080546001600160a01b03199081169091556001600160a01b0385168085526003845282852080546000190190558785526002909352818420805490911690555192935084927fddf252ad1be2c89b69c2b068fc378daa952ba7f163c4a11628f55a4df523b3ef908390a45050565b6040516001600160a01b03831660248201526044810182905261065090849063a9059cbb60e01b90606401611a96565b816001600160a01b0316836001600160a01b031603611c6d5760405162461bcd60e51b815260206004820152601960248201527f4552433732313a20617070726f766520746f2063616c6c65720000000000000060448201526064016105af565b6001600160a01b03838116600081815260056020908152604080832094871680845294825291829020805460ff191686151590811790915591519182527f17307eab39ab6107e8899845ad3d59bd9653f200f220920489ca2b5937696c31910160405180910390a3505050565b611ce58484846118aa565b611cf184848484611f01565b610cd05760405162461bcd60e51b81526004016105af90612f19565b60606000611d1a83611fff565b600101905060008167ffffffffffffffff811115611d3a57611d3a612902565b6040519080825280601f01601f191660200182016040528015611d64576020820181803683370190505b5090508181016020015b600019016f181899199a1a9b1b9c1cb0b131b232b360811b600a86061a8153600a8504945084611d6e57509392505050565b60006001600160e01b031982166380ac58cd60e01b1480611dd157506001600160e01b03198216635b5e139f60e01b145b8061047c57506301ffc9a760e01b6001600160e01b031983161461047c565b610cd0848484846120d7565b6000611e51826040518060400160405280602081526020017f5361666545524332303a206c6f772d6c6576656c2063616c6c206661696c6564815250856001600160a01b03166122179092919063ffffffff16565b8051909150156106505780806020019051810190611e6f9190612f6b565b6106505760405162461bcd60e51b815260206004820152602a60248201527f5361666545524332303a204552433230206f7065726174696f6e20646964206e6044820152691bdd081cdd58d8d9595960b21b60648201526084016105af565b611ed88383612226565b611ee56000848484611f01565b6106505760405162461bcd60e51b81526004016105af90612f19565b60006001600160a01b0384163b15611ff757604051630a85bd0160e11b81526001600160a01b0385169063150b7a0290611f45903390899088908890600401612f88565b6020604051808303816000875af1925050508015611f80575060408051601f3d908101601f19168201909252611f7d91810190612fc5565b60015b611fdd573d808015611fae576040519150601f19603f3d011682016040523d82523d6000602084013e611fb3565b606091505b508051600003611fd55760405162461bcd60e51b81526004016105af90612f19565b805181602001fd5b6001600160e01b031916630a85bd0160e11b14905061065e565b50600161065e565b60008072184f03e93ff9f4daa797ed6e38ed64bf6a1f0160401b831061203e5772184f03e93ff9f4daa797ed6e38ed64bf6a1f0160401b830492506040015b6d04ee2d6d415b85acef8100000000831061206a576d04ee2d6d415b85acef8100000000830492506020015b662386f26fc10000831061208857662386f26fc10000830492506010015b6305f5e10083106120a0576305f5e100830492506008015b61271083106120b457612710830492506004015b606483106120c6576064830492506002015b600a831061047c5760010192915050565b6120e3848484846123bf565b60018111156121525760405162461bcd60e51b815260206004820152603560248201527f455243373231456e756d657261626c653a20636f6e7365637574697665207472604482015274185b9cd9995c9cc81b9bdd081cdd5c1c1bdc9d1959605a1b60648201526084016105af565b816001600160a01b0385166121ae576121a981600880546000838152600960205260408120829055600182018355919091527ff3f7a9fe364faab93b216da50a3214154f22a0a2b415b23a84c8169e8b636ee30155565b6121d1565b836001600160a01b0316856001600160a01b0316146121d1576121d18582612447565b6001600160a01b0384166121ed576121e8816124e4565b612210565b846001600160a01b0316846001600160a01b031614612210576122108482612593565b5050505050565b606061065e84846000856125d7565b6001600160a01b03821661227c5760405162461bcd60e51b815260206004820181905260248201527f4552433732313a206d696e7420746f20746865207a65726f206164647265737360448201526064016105af565b6000818152600260205260409020546001600160a01b0316156122e15760405162461bcd60e51b815260206004820152601c60248201527f4552433732313a20746f6b656e20616c7265616479206d696e7465640000000060448201526064016105af565b6122ef600083836001611df0565b6000818152600260205260409020546001600160a01b0316156123545760405162461bcd60e51b815260206004820152601c60248201527f4552433732313a20746f6b656e20616c7265616479206d696e7465640000000060448201526064016105af565b6001600160a01b038216600081815260036020908152604080832080546001019055848352600290915280822080546001600160a01b0319168417905551839291907fddf252ad1be2c89b69c2b068fc378daa952ba7f163c4a11628f55a4df523b3ef908290a45050565b6001811115610cd0576001600160a01b03841615612405576001600160a01b038416600090815260036020526040812080548392906123ff908490612e5a565b90915550505b6001600160a01b03831615610cd0576001600160a01b0383166000908152600360205260408120805483929061243c908490612e0e565b909155505050505050565b6000600161245484610a71565b61245e9190612e5a565b6000838152600760205260409020549091508082146124b1576001600160a01b03841660009081526006602090815260408083208584528252808320548484528184208190558352600790915290208190555b5060009182526007602090815260408084208490556001600160a01b039094168352600681528383209183525290812055565b6008546000906124f690600190612e5a565b6000838152600960205260408120546008805493945090928490811061251e5761251e612d73565b90600052602060002001549050806008838154811061253f5761253f612d73565b600091825260208083209091019290925582815260099091526040808220849055858252812055600880548061257757612577612e6d565b6001900381819060005260206000200160009055905550505050565b600061259e83610a71565b6001600160a01b039093166000908152600660209081526040808320868452825280832085905593825260079052919091209190915550565b6060824710156126385760405162461bcd60e51b815260206004820152602660248201527f416464726573733a20696e73756666696369656e742062616c616e636520666f6044820152651c8818d85b1b60d21b60648201526084016105af565b600080866001600160a01b031685876040516126549190612fe2565b60006040518083038185875af1925050503d8060008114612691576040519150601f19603f3d011682016040523d82523d6000602084013e612696565b606091505b50915091506126a7878383876126b2565b979650505050505050565b6060831561272157825160000361271a576001600160a01b0385163b61271a5760405162461bcd60e51b815260206004820152601d60248201527f416464726573733a2063616c6c20746f206e6f6e2d636f6e747261637400000060448201526064016105af565b508161065e565b61065e83838151156127365781518083602001fd5b8060405162461bcd60e51b81526004016105af9190612890565b82805482825590600052602060002090810192821561278b579160200282015b8281111561278b578251825591602001919060010190612770565b506127979291506127f8565b5090565b508054600082559060005260206000209081019061173791906127f8565b6040518060c0016040528060008152602001600081526020016060815260200160006001600160a01b0316815260200160008152602001600081525090565b5b8082111561279757600081556001016127f9565b6001600160e01b03198116811461173757600080fd5b60006020828403121561283557600080fd5b81356111438161280d565b60005b8381101561285b578181015183820152602001612843565b50506000910152565b6000815180845261287c816020860160208601612840565b601f01601f19169290920160200192915050565b6020815260006111436020830184612864565b6000602082840312156128b557600080fd5b5035919050565b80356001600160a01b03811681146128d357600080fd5b919050565b600080604083850312156128eb57600080fd5b6128f4836128bc565b946020939093013593505050565b634e487b7160e01b600052604160045260246000fd5b604051601f8201601f1916810167ffffffffffffffff8111828210171561294157612941612902565b604052919050565b6000806000806080858703121561295f57600080fd5b612968856128bc565b935060206129778187016128bc565b935060408601359250606086013567ffffffffffffffff8082111561299b57600080fd5b818801915088601f8301126129af57600080fd5b8135818111156129c1576129c1612902565b6129d3601f8201601f19168501612918565b915080825289848285010111156129e957600080fd5b808484018584013760008482840101525080935050505092959194509250565b600080600060608486031215612a1e57600080fd5b612a27846128bc565b9250612a35602085016128bc565b9150604084013590509250925092565b600082601f830112612a5657600080fd5b8135602067ffffffffffffffff821115612a7257612a72612902565b8160051b612a81828201612918565b9283528481018201928281019087851115612a9b57600080fd5b83870192505b848310156126a757823582529183019190830190612aa1565b600080600080600060a08688031215612ad257600080fd5b85359450602086013567ffffffffffffffff811115612af057600080fd5b612afc88828901612a45565b945050612b0b604087016128bc565b94979396509394606081013594506080013592915050565b600060208284031215612b3557600080fd5b611143826128bc565b801515811461173757600080fd5b60008060408385031215612b5f57600080fd5b612b68836128bc565b91506020830135612b7881612b3e565b809150509250929050565b600060208284031215612b9557600080fd5b813567ffffffffffffffff811115612bac57600080fd5b61065e84828501612a45565b600081518084526020808501945080840160005b83811015612be857815187529582019590820190600101612bcc565b509495945050505050565b6020815281516020820152602082015160408201526000604083015160c06060840152612c2360e0840182612bb8565b905060018060a01b036060850151166080840152608084015160a084015260a084015160c08401528091505092915050565b60008060408385031215612c6857600080fd5b823567ffffffffffffffff80821115612c8057600080fd5b612c8c86838701612a45565b93506020850135915080821115612ca257600080fd5b50612caf85828601612a45565b9150509250929050565b60008060408385031215612ccc57600080fd5b612cd5836128bc565b9150612ce3602084016128bc565b90509250929050565b600181811c90821680612d0057607f821691505b602082108103612d2057634e487b7160e01b600052602260045260246000fd5b50919050565b6020808252602d908201527f4552433732313a2063616c6c6572206973206e6f7420746f6b656e206f776e6560408201526c1c881bdc88185c1c1c9bdd9959609a1b606082015260800190565b634e487b7160e01b600052603260045260246000fd5b6001600160a01b039384168152919092166020820152604081019190915260600190565b634e487b7160e01b600052601160045260246000fd5b600060018201612dd557612dd5612dad565b5060010190565b82815260406020820152600061065e6040830184612bb8565b600060208284031215612e0757600080fd5b5051919050565b8082018082111561047c5761047c612dad565b808202811582820484141761047c5761047c612dad565b600082612e5557634e487b7160e01b600052601260045260246000fd5b500490565b8181038181111561047c5761047c612dad565b634e487b7160e01b600052603160045260246000fd5b604081526000612e966040830185612bb8565b90508260208301529392505050565b60008351612eb7818460208801612840565b835190830190612ecb818360208801612840565b01949350505050565b60208082526025908201527f4552433732313a207472616e736665722066726f6d20696e636f72726563742060408201526437bbb732b960d91b606082015260800190565b60208082526032908201527f4552433732313a207472616e7366657220746f206e6f6e20455243373231526560408201527131b2b4bb32b91034b6b83632b6b2b73a32b960711b606082015260800190565b600060208284031215612f7d57600080fd5b815161114381612b3e565b6001600160a01b0385811682528416602082015260408101839052608060608201819052600090612fbb90830184612864565b9695505050505050565b600060208284031215612fd757600080fd5b81516111438161280d565b60008251612ff4818460208701612840565b919091019291505056fea2646970667358221220276d0c6a537030945406e45c6d7bfc5aa5119cb72f2f99da79eebeaea7b7d0f964736f6c63430008110033",
  "linkReferences": {},
  "deployedLinkReferences": {}
}