{
  "_format": "hh-sol-artifact-1",
  "contractName": "TradingPool",
  "sourceName": "contracts/protocol/Trading/TradingPool.sol",
  "abi": [
    {
      "inputs": [
        {
          "internalType": "contract IAddressesProvider",
          "name": "addressProvider",
          "type": "address"
        },
        {
          "internalType": "address",
          "name": "owner",
          "type": "address"
        },
        {
          "internalType": "address",
          "name": "token",
          "type": "address"
        },
        {
          "internalType": "address",
          "name": "nft",
          "type": "address"
        },
        {
          "internalType": "string",
          "name": "name",
          "type": "string"
        },
        {
          "internalType": "string",
          "name": "symbol",
          "type": "string"
        }
      ],
      "stateMutability": "nonpayable",
      "type": "constructor"
    },
    {
      "anonymous": false,
      "inputs": [
        {
          "indexed": true,
          "internalType": "address",
          "name": "user",
          "type": "address"
        },
        {
          "indexed": true,
          "internalType": "uint256",
          "name": "id",
          "type": "uint256"
        },
        {
          "indexed": true,
          "internalType": "enum DataTypes.LPType",
          "name": "lpType",
          "type": "uint8"
        },
        {
          "indexed": false,
          "internalType": "uint256[]",
          "name": "nftIds",
          "type": "uint256[]"
        },
        {
          "indexed": false,
          "internalType": "uint256",
          "name": "tokenAmount",
          "type": "uint256"
        },
        {
          "indexed": false,
          "internalType": "uint256",
          "name": "spotPrice",
          "type": "uint256"
        },
        {
          "indexed": false,
          "internalType": "address",
          "name": "curve",
          "type": "address"
        },
        {
          "indexed": false,
          "internalType": "uint256",
          "name": "delta",
          "type": "uint256"
        },
        {
          "indexed": false,
          "internalType": "uint256",
          "name": "fee",
          "type": "uint256"
        }
      ],
      "name": "AddLiquidity",
      "type": "event"
    },
    {
      "anonymous": false,
      "inputs": [
        {
          "indexed": true,
          "internalType": "address",
          "name": "owner",
          "type": "address"
        },
        {
          "indexed": true,
          "internalType": "address",
          "name": "approved",
          "type": "address"
        },
        {
          "indexed": true,
          "internalType": "uint256",
          "name": "tokenId",
          "type": "uint256"
        }
      ],
      "name": "Approval",
      "type": "event"
    },
    {
      "anonymous": false,
      "inputs": [
        {
          "indexed": true,
          "internalType": "address",
          "name": "owner",
          "type": "address"
        },
        {
          "indexed": true,
          "internalType": "address",
          "name": "operator",
          "type": "address"
        },
        {
          "indexed": false,
          "internalType": "bool",
          "name": "approved",
          "type": "bool"
        }
      ],
      "name": "ApprovalForAll",
      "type": "event"
    },
    {
      "anonymous": false,
      "inputs": [
        {
          "indexed": true,
          "internalType": "address",
          "name": "user",
          "type": "address"
        },
        {
          "indexed": false,
          "internalType": "uint256[]",
          "name": "nftIds",
          "type": "uint256[]"
        },
        {
          "indexed": false,
          "internalType": "uint256",
          "name": "price",
          "type": "uint256"
        }
      ],
      "name": "Buy",
      "type": "event"
    },
    {
      "anonymous": false,
      "inputs": [
        {
          "indexed": true,
          "internalType": "address",
          "name": "previousOwner",
          "type": "address"
        },
        {
          "indexed": true,
          "internalType": "address",
          "name": "newOwner",
          "type": "address"
        }
      ],
      "name": "OwnershipTransferred",
      "type": "event"
    },
    {
      "anonymous": false,
      "inputs": [
        {
          "indexed": true,
          "internalType": "address",
          "name": "user",
          "type": "address"
        },
        {
          "indexed": true,
          "internalType": "uint256",
          "name": "lpId",
          "type": "uint256"
        }
      ],
      "name": "RemoveLiquidity",
      "type": "event"
    },
    {
      "anonymous": false,
      "inputs": [
        {
          "indexed": true,
          "internalType": "address",
          "name": "user",
          "type": "address"
        },
        {
          "indexed": false,
          "internalType": "uint256[]",
          "name": "nftIds",
          "type": "uint256[]"
        },
        {
          "indexed": false,
          "internalType": "uint256",
          "name": "price",
          "type": "uint256"
        }
      ],
      "name": "Sell",
      "type": "event"
    },
    {
      "anonymous": false,
      "inputs": [
        {
          "indexed": true,
          "internalType": "address",
          "name": "user",
          "type": "address"
        },
        {
          "indexed": true,
          "internalType": "uint256",
          "name": "lpId",
          "type": "uint256"
        },
        {
          "indexed": false,
          "internalType": "uint256",
          "name": "fee",
          "type": "uint256"
        }
      ],
      "name": "SetLpFee",
      "type": "event"
    },
    {
      "anonymous": false,
      "inputs": [
        {
          "indexed": true,
          "internalType": "address",
          "name": "user",
          "type": "address"
        },
        {
          "indexed": true,
          "internalType": "uint256",
          "name": "lpId",
          "type": "uint256"
        },
        {
          "indexed": false,
          "internalType": "address",
          "name": "curve",
          "type": "address"
        },
        {
          "indexed": false,
          "internalType": "uint256",
          "name": "delta",
          "type": "uint256"
        }
      ],
      "name": "SetLpPricingCurve",
      "type": "event"
    },
    {
      "anonymous": false,
      "inputs": [
        {
          "indexed": true,
          "internalType": "address",
          "name": "user",
          "type": "address"
        },
        {
          "indexed": true,
          "internalType": "uint256",
          "name": "lpId",
          "type": "uint256"
        },
        {
          "indexed": false,
          "internalType": "uint256",
          "name": "spotPrice",
          "type": "uint256"
        }
      ],
      "name": "SetLpSpotPrice",
      "type": "event"
    },
    {
      "anonymous": false,
      "inputs": [
        {
          "indexed": true,
          "internalType": "address",
          "name": "from",
          "type": "address"
        },
        {
          "indexed": true,
          "internalType": "address",
          "name": "to",
          "type": "address"
        },
        {
          "indexed": true,
          "internalType": "uint256",
          "name": "tokenId",
          "type": "uint256"
        }
      ],
      "name": "Transfer",
      "type": "event"
    },
    {
      "inputs": [],
      "name": "MAX_FEE",
      "outputs": [
        {
          "internalType": "uint256",
          "name": "",
          "type": "uint256"
        }
      ],
      "stateMutability": "view",
      "type": "function"
    },
    {
      "inputs": [
        {
          "internalType": "address",
          "name": "receiver",
          "type": "address"
        },
        {
          "internalType": "enum DataTypes.LPType",
          "name": "lpType",
          "type": "uint8"
        },
        {
          "internalType": "uint256[]",
          "name": "nftIds",
          "type": "uint256[]"
        },
        {
          "internalType": "uint256",
          "name": "tokenAmount",
          "type": "uint256"
        },
        {
          "internalType": "uint256",
          "name": "spotPrice",
          "type": "uint256"
        },
        {
          "internalType": "address",
          "name": "curve",
          "type": "address"
        },
        {
          "internalType": "uint256",
          "name": "delta",
          "type": "uint256"
        },
        {
          "internalType": "uint256",
          "name": "fee",
          "type": "uint256"
        }
      ],
      "name": "addLiquidity",
      "outputs": [],
      "stateMutability": "nonpayable",
      "type": "function"
    },
    {
      "inputs": [
        {
          "internalType": "address",
          "name": "to",
          "type": "address"
        },
        {
          "internalType": "uint256",
          "name": "tokenId",
          "type": "uint256"
        }
      ],
      "name": "approve",
      "outputs": [],
      "stateMutability": "nonpayable",
      "type": "function"
    },
    {
      "inputs": [
        {
          "internalType": "address",
          "name": "owner",
          "type": "address"
        }
      ],
      "name": "balanceOf",
      "outputs": [
        {
          "internalType": "uint256",
          "name": "",
          "type": "uint256"
        }
      ],
      "stateMutability": "view",
      "type": "function"
    },
    {
      "inputs": [
        {
          "internalType": "address",
          "name": "onBehalfOf",
          "type": "address"
        },
        {
          "internalType": "uint256[]",
          "name": "nftIds",
          "type": "uint256[]"
        },
        {
          "internalType": "uint256",
          "name": "maximumPrice",
          "type": "uint256"
        }
      ],
      "name": "buy",
      "outputs": [
        {
          "internalType": "uint256",
          "name": "finalPrice",
          "type": "uint256"
        }
      ],
      "stateMutability": "nonpayable",
      "type": "function"
    },
    {
      "inputs": [
        {
          "internalType": "uint256",
          "name": "tokenId",
          "type": "uint256"
        }
      ],
      "name": "getApproved",
      "outputs": [
        {
          "internalType": "address",
          "name": "",
          "type": "address"
        }
      ],
      "stateMutability": "view",
      "type": "function"
    },
    {
      "inputs": [
        {
          "internalType": "uint256",
          "name": "lpId",
          "type": "uint256"
        }
      ],
      "name": "getLP",
      "outputs": [
        {
          "components": [
            {
              "internalType": "enum DataTypes.LPType",
              "name": "lpType",
              "type": "uint8"
            },
            {
              "internalType": "uint256[]",
              "name": "nftIds",
              "type": "uint256[]"
            },
            {
              "internalType": "uint256",
              "name": "tokenAmount",
              "type": "uint256"
            },
            {
              "internalType": "uint256",
              "name": "spotPrice",
              "type": "uint256"
            },
            {
              "internalType": "address",
              "name": "curve",
              "type": "address"
            },
            {
              "internalType": "uint256",
              "name": "delta",
              "type": "uint256"
            },
            {
              "internalType": "uint256",
              "name": "fee",
              "type": "uint256"
            }
          ],
          "internalType": "struct DataTypes.LiquidityPair",
          "name": "",
          "type": "tuple"
        }
      ],
      "stateMutability": "view",
      "type": "function"
    },
    {
      "inputs": [],
      "name": "getLpCount",
      "outputs": [
        {
          "internalType": "uint256",
          "name": "",
          "type": "uint256"
        }
      ],
      "stateMutability": "view",
      "type": "function"
    },
    {
      "inputs": [],
      "name": "getNFT",
      "outputs": [
        {
          "internalType": "address",
          "name": "",
          "type": "address"
        }
      ],
      "stateMutability": "view",
      "type": "function"
    },
    {
      "inputs": [],
      "name": "getToken",
      "outputs": [
        {
          "internalType": "address",
          "name": "",
          "type": "address"
        }
      ],
      "stateMutability": "view",
      "type": "function"
    },
    {
      "inputs": [
        {
          "internalType": "address",
          "name": "owner",
          "type": "address"
        },
        {
          "internalType": "address",
          "name": "operator",
          "type": "address"
        }
      ],
      "name": "isApprovedForAll",
      "outputs": [
        {
          "internalType": "bool",
          "name": "",
          "type": "bool"
        }
      ],
      "stateMutability": "view",
      "type": "function"
    },
    {
      "inputs": [],
      "name": "name",
      "outputs": [
        {
          "internalType": "string",
          "name": "",
          "type": "string"
        }
      ],
      "stateMutability": "view",
      "type": "function"
    },
    {
      "inputs": [
        {
          "internalType": "uint256",
          "name": "nftId",
          "type": "uint256"
        }
      ],
      "name": "nftToLp",
      "outputs": [
        {
          "internalType": "uint256",
          "name": "",
          "type": "uint256"
        }
      ],
      "stateMutability": "view",
      "type": "function"
    },
    {
      "inputs": [
        {
          "internalType": "address",
          "name": "",
          "type": "address"
        },
        {
          "internalType": "address",
          "name": "",
          "type": "address"
        },
        {
          "internalType": "uint256",
          "name": "",
          "type": "uint256"
        },
        {
          "internalType": "bytes",
          "name": "",
          "type": "bytes"
        }
      ],
      "name": "onERC721Received",
      "outputs": [
        {
          "internalType": "bytes4",
          "name": "",
          "type": "bytes4"
        }
      ],
      "stateMutability": "nonpayable",
      "type": "function"
    },
    {
      "inputs": [],
      "name": "owner",
      "outputs": [
        {
          "internalType": "address",
          "name": "",
          "type": "address"
        }
      ],
      "stateMutability": "view",
      "type": "function"
    },
    {
      "inputs": [
        {
          "internalType": "uint256",
          "name": "tokenId",
          "type": "uint256"
        }
      ],
      "name": "ownerOf",
      "outputs": [
        {
          "internalType": "address",
          "name": "",
          "type": "address"
        }
      ],
      "stateMutability": "view",
      "type": "function"
    },
    {
      "inputs": [
        {
          "internalType": "uint256",
          "name": "lpId",
          "type": "uint256"
        }
      ],
      "name": "removeLiquidity",
      "outputs": [],
      "stateMutability": "nonpayable",
      "type": "function"
    },
    {
      "inputs": [
        {
          "internalType": "uint256[]",
          "name": "lpIds",
          "type": "uint256[]"
        }
      ],
      "name": "removeLiquidityBatch",
      "outputs": [],
      "stateMutability": "nonpayable",
      "type": "function"
    },
    {
      "inputs": [],
      "name": "renounceOwnership",
      "outputs": [],
      "stateMutability": "nonpayable",
      "type": "function"
    },
    {
      "inputs": [
        {
          "internalType": "address",
          "name": "from",
          "type": "address"
        },
        {
          "internalType": "address",
          "name": "to",
          "type": "address"
        },
        {
          "internalType": "uint256",
          "name": "tokenId",
          "type": "uint256"
        }
      ],
      "name": "safeTransferFrom",
      "outputs": [],
      "stateMutability": "nonpayable",
      "type": "function"
    },
    {
      "inputs": [
        {
          "internalType": "address",
          "name": "from",
          "type": "address"
        },
        {
          "internalType": "address",
          "name": "to",
          "type": "address"
        },
        {
          "internalType": "uint256",
          "name": "tokenId",
          "type": "uint256"
        },
        {
          "internalType": "bytes",
          "name": "data",
          "type": "bytes"
        }
      ],
      "name": "safeTransferFrom",
      "outputs": [],
      "stateMutability": "nonpayable",
      "type": "function"
    },
    {
      "inputs": [
        {
          "internalType": "address",
          "name": "onBehalfOf",
          "type": "address"
        },
        {
          "internalType": "uint256[]",
          "name": "nftIds",
          "type": "uint256[]"
        },
        {
          "internalType": "uint256[]",
          "name": "liquidityPairs",
          "type": "uint256[]"
        },
        {
          "internalType": "uint256",
          "name": "minimumPrice",
          "type": "uint256"
        }
      ],
      "name": "sell",
      "outputs": [
        {
          "internalType": "uint256",
          "name": "finalPrice",
          "type": "uint256"
        }
      ],
      "stateMutability": "nonpayable",
      "type": "function"
    },
    {
      "inputs": [
        {
          "internalType": "address",
          "name": "operator",
          "type": "address"
        },
        {
          "internalType": "bool",
          "name": "approved",
          "type": "bool"
        }
      ],
      "name": "setApprovalForAll",
      "outputs": [],
      "stateMutability": "nonpayable",
      "type": "function"
    },
    {
      "inputs": [
        {
          "internalType": "bool",
          "name": "paused",
          "type": "bool"
        }
      ],
      "name": "setPause",
      "outputs": [],
      "stateMutability": "nonpayable",
      "type": "function"
    },
    {
      "inputs": [
        {
          "internalType": "bytes4",
          "name": "interfaceId",
          "type": "bytes4"
        }
      ],
      "name": "supportsInterface",
      "outputs": [
        {
          "internalType": "bool",
          "name": "",
          "type": "bool"
        }
      ],
      "stateMutability": "view",
      "type": "function"
    },
    {
      "inputs": [],
      "name": "symbol",
      "outputs": [
        {
          "internalType": "string",
          "name": "",
          "type": "string"
        }
      ],
      "stateMutability": "view",
      "type": "function"
    },
    {
      "inputs": [
        {
          "internalType": "uint256",
          "name": "index",
          "type": "uint256"
        }
      ],
      "name": "tokenByIndex",
      "outputs": [
        {
          "internalType": "uint256",
          "name": "",
          "type": "uint256"
        }
      ],
      "stateMutability": "view",
      "type": "function"
    },
    {
      "inputs": [
        {
          "internalType": "address",
          "name": "owner",
          "type": "address"
        },
        {
          "internalType": "uint256",
          "name": "index",
          "type": "uint256"
        }
      ],
      "name": "tokenOfOwnerByIndex",
      "outputs": [
        {
          "internalType": "uint256",
          "name": "",
          "type": "uint256"
        }
      ],
      "stateMutability": "view",
      "type": "function"
    },
    {
      "inputs": [
        {
          "internalType": "uint256",
          "name": "tokenId",
          "type": "uint256"
        }
      ],
      "name": "tokenURI",
      "outputs": [
        {
          "internalType": "string",
          "name": "",
          "type": "string"
        }
      ],
      "stateMutability": "view",
      "type": "function"
    },
    {
      "inputs": [],
      "name": "totalSupply",
      "outputs": [
        {
          "internalType": "uint256",
          "name": "",
          "type": "uint256"
        }
      ],
      "stateMutability": "view",
      "type": "function"
    },
    {
      "inputs": [
        {
          "internalType": "address",
          "name": "from",
          "type": "address"
        },
        {
          "internalType": "address",
          "name": "to",
          "type": "address"
        },
        {
          "internalType": "uint256",
          "name": "tokenId",
          "type": "uint256"
        }
      ],
      "name": "transferFrom",
      "outputs": [],
      "stateMutability": "nonpayable",
      "type": "function"
    },
    {
      "inputs": [
        {
          "internalType": "address",
          "name": "newOwner",
          "type": "address"
        }
      ],
      "name": "transferOwnership",
      "outputs": [],
      "stateMutability": "nonpayable",
      "type": "function"
    }
  ],
  "bytecode": "0x60e06040523480156200001157600080fd5b5060405162004bff38038062004bff8339810160408190526200003491620002a6565b81816000620000448382620003f4565b506001620000538282620003f4565b505050620000706200006a6200017260201b60201c565b62000176565b6001600b81905550856001600160a01b031663ca1470ea6040518163ffffffff1660e01b8152600401602060405180830381865afa158015620000b7573d6000803e3d6000fd5b505050506040513d601f19601f82011682018060405250810190620000dd9190620004c0565b6001600160a01b0316336001600160a01b031614620001425760405162461bcd60e51b815260206004820152601460248201527f54503a433a4d5553545f42455f464143544f5259000000000000000000000000604482015260640160405180910390fd5b6001600160a01b0380871660805284811660a052831660c052620001668562000176565b505050505050620004e7565b3390565b600a80546001600160a01b038381166001600160a01b0319831681179093556040519116919082907f8be0079c531659141344cd1fd0a4f28419497f9722a3daafe3b4186f6b6457e090600090a35050565b6001600160a01b0381168114620001de57600080fd5b50565b634e487b7160e01b600052604160045260246000fd5b600082601f8301126200020957600080fd5b81516001600160401b0380821115620002265762000226620001e1565b604051601f8301601f19908116603f01168101908282118183101715620002515762000251620001e1565b816040528381526020925086838588010111156200026e57600080fd5b600091505b8382101562000292578582018301518183018401529082019062000273565b600093810190920192909252949350505050565b60008060008060008060c08789031215620002c057600080fd5b8651620002cd81620001c8565b6020880151909650620002e081620001c8565b6040880151909550620002f381620001c8565b60608801519094506200030681620001c8565b60808801519093506001600160401b03808211156200032457600080fd5b620003328a838b01620001f7565b935060a08901519150808211156200034957600080fd5b506200035889828a01620001f7565b9150509295509295509295565b600181811c908216806200037a57607f821691505b6020821081036200039b57634e487b7160e01b600052602260045260246000fd5b50919050565b601f821115620003ef57600081815260208120601f850160051c81016020861015620003ca5750805b601f850160051c820191505b81811015620003eb57828155600101620003d6565b5050505b505050565b81516001600160401b03811115620004105762000410620001e1565b620004288162000421845462000365565b84620003a1565b602080601f831160018114620004605760008415620004475750858301515b600019600386901b1c1916600185901b178555620003eb565b600085815260208120601f198616915b82811015620004915788860151825594840194600190910190840162000470565b5085821015620004b05787850151600019600388901b60f8161c191681555b5050505050600190811b01905550565b600060208284031215620004d357600080fd5b8151620004e081620001c8565b9392505050565b60805160a05160c051614647620005b86000396000818161038b01528181610aa501528181611349015281816115f00152818161192e01528181611e5301526127810152600081816102b201528181610f570152818161110f015281816111cf0152818161171001528181611f54015281816120af015281816122ca015261288301526000818161085801528181610bb801528181610f8b01528181611010015281816111380152818161183d01528181611f8901528181612018015281816121d10152612a6d01526146476000f3fe608060405234801561001057600080fd5b50600436106101f05760003560e01c8063715018a61161010f578063bc063e1a116100a2578063cdd3f29811610071578063cdd3f29814610456578063e985e9c514610476578063f2fde38b146104b2578063fc1507b3146104c557600080fd5b8063bc063e1a14610414578063bedb86fb1461041d578063c4d6b3e514610430578063c87b56dd1461044357600080fd5b80639c8f9f23116100de5780639c8f9f23146103c8578063a22cb465146103db578063b31f0d62146103ee578063b88d4fde1461040157600080fd5b8063715018a61461038157806388a6360e146103895780638da5cb5b146103af57806395d89b41146103c057600080fd5b80632f745c59116101875780635460d849116101565780635460d849146103355780636352211e146103485780636d207b1a1461035b57806370a082311461036e57600080fd5b80632f745c59146102e957806342842e0e146102fc57806349591b511461030f5780634f6ccce71461032257600080fd5b8063150b7a02116101c3578063150b7a021461027257806318160ddd1461029e57806321df0da7146102b057806323b872dd146102d657600080fd5b806301ffc9a7146101f557806306fdde031461021d578063081812fc14610232578063095ea7b31461025d575b600080fd5b610208610203366004613c50565b6104cd565b60405190151581526020015b60405180910390f35b6102256104ed565b6040516102149190613cc4565b610245610240366004613cd7565b61057f565b6040516001600160a01b039091168152602001610214565b61027061026b366004613d05565b6105a6565b005b610285610280366004613da0565b6106c0565b6040516001600160e01b03199091168152602001610214565b6008545b604051908152602001610214565b7f0000000000000000000000000000000000000000000000000000000000000000610245565b6102706102e4366004613e4f565b6106d1565b6102a26102f7366004613d05565b610702565b61027061030a366004613e4f565b610798565b6102a261031d366004613edc565b6107b3565b6102a2610330366004613cd7565b611293565b6102a2610343366004613cd7565b611326565b610245610356366004613cd7565b611410565b610270610369366004613f67565b611470565b6102a261037c366004613fa9565b6114b6565b61027061153c565b7f0000000000000000000000000000000000000000000000000000000000000000610245565b600a546001600160a01b0316610245565b610225611550565b6102706103d6366004613cd7565b61155f565b6102706103e9366004613fd4565b6117cf565b6102a26103fc36600461400d565b6117de565b61027061040f366004613da0565b61216a565b6102a2611f4081565b61027061042b366004614069565b6121a2565b61027061043e366004614086565b6121bd565b610225610451366004613cd7565b612a69565b610469610464366004613cd7565b612b62565b604051610214919061417e565b610208610484366004614214565b6001600160a01b03918216600090815260056020908152604080832093909416825291909152205460ff1690565b6102706104c0366004613fa9565b612c4a565b600f546102a2565b60006104d882612cc0565b806104e757506104e782612ce5565b92915050565b6060600080546104fc90614242565b80601f016020809104026020016040519081016040528092919081815260200182805461052890614242565b80156105755780601f1061054a57610100808354040283529160200191610575565b820191906000526020600020905b81548152906001019060200180831161055857829003601f168201915b5050505050905090565b600061058a82612cfb565b506000908152600460205260409020546001600160a01b031690565b60006105b182611410565b9050806001600160a01b0316836001600160a01b0316036106235760405162461bcd60e51b815260206004820152602160248201527f4552433732313a20617070726f76616c20746f2063757272656e74206f776e656044820152603960f91b60648201526084015b60405180910390fd5b336001600160a01b038216148061063f575061063f8133610484565b6106b15760405162461bcd60e51b815260206004820152603d60248201527f4552433732313a20617070726f76652063616c6c6572206973206e6f7420746f60448201527f6b656e206f776e6572206f7220617070726f76656420666f7220616c6c000000606482015260840161061a565b6106bb8383612d5a565b505050565b630a85bd0160e11b5b949350505050565b6106db3382612dc8565b6106f75760405162461bcd60e51b815260040161061a9061427c565b6106bb838383612e46565b600061070d836114b6565b821061076f5760405162461bcd60e51b815260206004820152602b60248201527f455243373231456e756d657261626c653a206f776e657220696e646578206f7560448201526a74206f6620626f756e647360a81b606482015260840161061a565b506001600160a01b03919091166000908152600660209081526040808320938352929052205490565b6106bb8383836040518060200160405280600081525061216a565b60006107bd612fb7565b6107c5613010565b84831461080b5760405162461bcd60e51b81526020600482015260146024820152730a8a074a6749c8ca8be98a0be9a92a69a82a886960631b604482015260640161061a565b846108465760405162461bcd60e51b815260206004820152600b60248201526a054503a533a4e4654535f360ac1b604482015260640161061a565b6001600160a01b038716331461092f577f00000000000000000000000000000000000000000000000000000000000000006001600160a01b031663725c9c496040518163ffffffff1660e01b8152600401602060405180830381865afa1580156108b4573d6000803e3d6000fd5b505050506040513d601f19601f820116820180604052508101906108d891906142c9565b6001600160a01b0316336001600160a01b03161461092f5760405162461bcd60e51b81526020600482015260146024820152732a281d299d2727aa2fa9aba0a82fa927aaaa22a960611b604482015260640161061a565b600080600061093c613b75565b6000805b8a811015610f015789898281811061095a5761095a6142e6565b905060200201359150610984826000908152600260205260409020546001600160a01b0316151590565b6109c45760405162461bcd60e51b815260206004820152601160248201527015140e94ce931417d393d517d193d55391607a1b604482015260640161061a565b6000828152600d602052604090819020815160e081019092528054829060ff1660048111156109f5576109f561412d565b6004811115610a0657610a0661412d565b815260200160018201805480602002602001604051908101604052809291908181526020018280548015610a5957602002820191906000526020600020905b815481526020019060010190808311610a45575b5050509183525050600282015460208201526003820154604082015260048201546001600160a01b0390811660608301526005830154608083015260069092015460a0909101529093507f0000000000000000000000000000000000000000000000000000000000000000166342842e0e8e308f8f86818110610ade57610ade6142e6565b905060200201356040518463ffffffff1660e01b8152600401610b03939291906142fc565b600060405180830381600087803b158015610b1d57600080fd5b505af1158015610b31573d6000803e3d6000fd5b5060049250610b3e915050565b83516004811115610b5157610b5161412d565b03610b905760405162461bcd60e51b815260206004820152600f60248201526e054503a533a49535f53454c4c5f4c5608c1b604482015260640161061a565b6127108360c001518460600151610ba79190614336565b610bb1919061434d565b95506127107f00000000000000000000000000000000000000000000000000000000000000006001600160a01b031663ca1470ea6040518163ffffffff1660e01b8152600401602060405180830381865afa158015610c14573d6000803e3d6000fd5b505050506040513d601f19601f82011682018060405250810190610c3891906142c9565b6001600160a01b031663706d9f786040518163ffffffff1660e01b8152600401602060405180830381865afa158015610c75573d6000803e3d6000fd5b505050506040513d601f19601f82011682018060405250810190610c99919061436f565b610ca39088614336565b610cad919061434d565b935083868460600151610cc09190614388565b610cca919061439b565b83604001511015610d1d5760405162461bcd60e51b815260206004820152601e60248201527f54503a533a494e53554646494349454e545f544f4b454e535f494e5f4c500000604482015260640161061a565b6000828152600d602052604090206001018c8c83818110610d4057610d406142e6565b8354600181810186556000958652602080872093810295909501359290910191909155604080518082018252878152878652600d8552942081015492840192610d899250614388565b9052600e60008e8e85818110610da157610da16142e6565b905060200201358152602001908152602001600020600082015181600001556020820151816001015590505083868460600151610dde9190614388565b610de8919061439b565b6000838152600d602052604081206002018054909190610e09908490614388565b90915550506060830151610e1e908790614388565b610e28908861439b565b9650610e34868661439b565b9450600183516004811115610e4b57610e4b61412d565b14610eef576080830151606084015160a085015160c08601516040516394ed03f960e01b81526004810193909352602483019190915260448201526001600160a01b03909116906394ed03f990606401602060405180830381865afa158015610eb8573d6000803e3d6000fd5b505050506040513d601f19601f82011682018060405250810190610edc919061436f565b6000838152600d60205260409020600301555b80610ef9816143ae565b915050610940565b5086861015610f525760405162461bcd60e51b815260206004820152601e60248201527f54503a533a4d494e494d554d5f50524943455f4e4f545f524541434845440000604482015260640161061a565b610f867f00000000000000000000000000000000000000000000000000000000000000006001600160a01b03163388613054565b6111367f00000000000000000000000000000000000000000000000000000000000000006001600160a01b031663c89131736040518163ffffffff1660e01b8152600401602060405180830381865afa158015610fe7573d6000803e3d6000fd5b505050506040513d601f19601f8201168201806040525081019061100b91906142c9565b6127107f00000000000000000000000000000000000000000000000000000000000000006001600160a01b031663ca1470ea6040518163ffffffff1660e01b8152600401602060405180830381865afa15801561106c573d6000803e3d6000fd5b505050506040513d601f19601f8201168201806040525081019061109091906142c9565b6001600160a01b031663706d9f786040518163ffffffff1660e01b8152600401602060405180830381865afa1580156110cd573d6000803e3d6000fd5b505050506040513d601f19601f820116820180604052508101906110f1919061436f565b6110fb9088614336565b611105919061434d565b6001600160a01b037f0000000000000000000000000000000000000000000000000000000000000000169190613054565b7f00000000000000000000000000000000000000000000000000000000000000006001600160a01b031663c89131736040518163ffffffff1660e01b8152600401602060405180830381865afa158015611194573d6000803e3d6000fd5b505050506040513d601f19601f820116820180604052508101906111b891906142c9565b6040516354b94c2f60e11b81526001600160a01b037f000000000000000000000000000000000000000000000000000000000000000081166004830152919091169063a972985e90602401600060405180830381600087803b15801561121d57600080fd5b505af1158015611231573d6000803e3d6000fd5b505050508b6001600160a01b03167feb3c528adebc70d317bef09706905761642981ebf9def9aafdc40f404e49346a8c8c89604051611272939291906143f9565b60405180910390a250505050506112896001600b55565b9695505050505050565b600061129e60085490565b82106113015760405162461bcd60e51b815260206004820152602c60248201527f455243373231456e756d657261626c653a20676c6f62616c20696e646578206f60448201526b7574206f6620626f756e647360a01b606482015260840161061a565b60088281548110611314576113146142e6565b90600052602060002001549050919050565b6040516331a9108f60e11b81526004810182905260009030906001600160a01b037f00000000000000000000000000000000000000000000000000000000000000001690636352211e90602401602060405180830381865afa158015611390573d6000803e3d6000fd5b505050506040513d601f19601f820116820180604052508101906113b491906142c9565b6001600160a01b0316146113fd5760405162461bcd60e51b815260206004820152601060248201526f15140e9395130e9393d517d3d5d3915160821b604482015260640161061a565b506000908152600e602052604090205490565b6000818152600260205260408120546001600160a01b0316806104e75760405162461bcd60e51b8152602060048201526018602482015277115490cdcc8c4e881a5b9d985b1a59081d1bdad95b88125160421b604482015260640161061a565b611478613010565b60005b818110156106bb576114a4838383818110611498576114986142e6565b9050602002013561155f565b806114ae816143ae565b91505061147b565b60006001600160a01b0382166115205760405162461bcd60e51b815260206004820152602960248201527f4552433732313a2061646472657373207a65726f206973206e6f7420612076616044820152683634b21037bbb732b960b91b606482015260840161061a565b506001600160a01b031660009081526003602052604090205490565b6115446130b7565b61154e6000613111565b565b6060600180546104fc90614242565b611567612fb7565b61156f613010565b61157881611410565b6001600160a01b0316336001600160a01b0316146115ca5760405162461bcd60e51b815260206004820152600f60248201526e2a281d29261d2727aa2fa7aba722a960891b604482015260640161061a565b6000818152600d6020526040812060010154905b818110156116ef576001600160a01b037f0000000000000000000000000000000000000000000000000000000000000000166342842e0e30336000878152600d6020526040902060010180548690811061163a5761163a6142e6565b90600052602060002001546040518463ffffffff1660e01b8152600401611663939291906142fc565b600060405180830381600087803b15801561167d57600080fd5b505af1158015611691573d6000803e3d6000fd5b5050506000848152600d602052604081206001018054600e9350849081106116bb576116bb6142e6565b60009182526020808320909101548352820192909252604001812081815560010155806116e7816143ae565b9150506115de565b50611737336000848152600d60205260409020600201546001600160a01b037f0000000000000000000000000000000000000000000000000000000000000000169190613054565b6000828152600d60205260408120805460ff191681559061175b6001830182613bbc565b50600060028201819055600382018190556004820180546001600160a01b03191690556005820181905560069091015561179482613163565b604051829033907fdfdd120ded9b7afc0c23dd5310e93aaa3e1c3b9f75af9b805fab3030842439f290600090a3506117cc6001600b55565b50565b6117da338383613206565b5050565b60006117e8612fb7565b6117f0613010565b8261182b5760405162461bcd60e51b815260206004820152600b60248201526a054503a423a4e4654535f360ac1b604482015260640161061a565b600080600080611839613b75565b60007f00000000000000000000000000000000000000000000000000000000000000006001600160a01b031663ca1470ea6040518163ffffffff1660e01b8152600401602060405180830381865afa158015611899573d6000803e3d6000fd5b505050506040513d601f19601f820116820180604052508101906118bd91906142c9565b6001600160a01b031663706d9f786040518163ffffffff1660e01b8152600401602060405180830381865afa1580156118fa573d6000803e3d6000fd5b505050506040513d601f19601f8201168201806040525081019061191e919061436f565b905060005b89811015611efe57307f00000000000000000000000000000000000000000000000000000000000000006001600160a01b0316636352211e8d8d8581811061196d5761196d6142e6565b905060200201356040518263ffffffff1660e01b815260040161199291815260200190565b602060405180830381865afa1580156119af573d6000803e3d6000fd5b505050506040513d601f19601f820116820180604052508101906119d391906142c9565b6001600160a01b031614611a1a5760405162461bcd60e51b815260206004820152600e60248201526d2a281d211d2727aa2fa7aba722a960911b604482015260640161061a565b600e60008c8c84818110611a3057611a306142e6565b60209081029290920135835250818101929092526040908101600090812054808252600d909352819020815160e0810190925280549299509091829060ff166004811115611a8057611a8061412d565b6004811115611a9157611a9161412d565b815260200160018201805480602002602001604051908101604052809291908181526020018280548015611ae457602002820191906000526020600020905b815481526020019060010190808311611ad0575b505050918352505060028201546020820152600380830154604083015260048301546001600160a01b031660608301526005830154608083015260069092015460a09091015290935083516004811115611b4057611b4061412d565b03611b7e5760405162461bcd60e51b815260206004820152600e60248201526d054503a423a49535f4255595f4c560941b604482015260640161061a565b6127108360c001518460600151611b959190614336565b611b9f919061434d565b9550612710611bae8388614336565b611bb8919061434d565b6020840151805191955090611bcf90600190614388565b81518110611bdf57611bdf6142e6565b6020026020010151600d6000898152602001908152602001600020600101600e60008e8e86818110611c1357611c136142e6565b9050602002013581526020019081526020016000206001015481548110611c3c57611c3c6142e6565b9060005260206000200181905550600e60008c8c84818110611c6057611c606142e6565b90506020020135815260200190815260200160002060010154600e600085602001516001876020015151611c949190614388565b81518110611ca457611ca46142e6565b6020026020010151815260200190815260200160002060010181905550600e60008c8c84818110611cd757611cd76142e6565b60209081029290920135835250818101929092526040908101600090812081815560019081018290558a8252600d9093522001805480611d1957611d1961441d565b6001900381819060005260206000200160009055905583868460600151611d40919061439b565b611d4a9190614388565b6000888152600d602052604081206002018054909190611d6b90849061439b565b90915550506060830151611d8090879061439b565b611d8a908961439b565b9750611d96868661439b565b9450600283516004811115611dad57611dad61412d565b14611e51576080830151606084015160a085015160c0860151604051636b615c6360e11b81526004810193909352602483019190915260448201526001600160a01b039091169063d6c2b8c690606401602060405180830381865afa158015611e1a573d6000803e3d6000fd5b505050506040513d601f19601f82011682018060405250810190611e3e919061436f565b6000888152600d60205260409020600301555b7f00000000000000000000000000000000000000000000000000000000000000006001600160a01b03166342842e0e308e8e8e86818110611e9457611e946142e6565b905060200201356040518463ffffffff1660e01b8152600401611eb9939291906142fc565b600060405180830381600087803b158015611ed357600080fd5b505af1158015611ee7573d6000803e3d6000fd5b505050508080611ef6906143ae565b915050611923565b5087871115611f4f5760405162461bcd60e51b815260206004820152601760248201527f54503a423a4d41585f50524943455f4558434545444544000000000000000000604482015260640161061a565b611f847f00000000000000000000000000000000000000000000000000000000000000006001600160a01b031633308a6132d4565b6120167f00000000000000000000000000000000000000000000000000000000000000006001600160a01b031663c89131736040518163ffffffff1660e01b8152600401602060405180830381865afa158015611fe5573d6000803e3d6000fd5b505050506040513d601f19601f8201168201806040525081019061200991906142c9565b6127106110fb8488614336565b7f00000000000000000000000000000000000000000000000000000000000000006001600160a01b031663c89131736040518163ffffffff1660e01b8152600401602060405180830381865afa158015612074573d6000803e3d6000fd5b505050506040513d601f19601f8201168201806040525081019061209891906142c9565b6040516354b94c2f60e11b81526001600160a01b037f000000000000000000000000000000000000000000000000000000000000000081166004830152919091169063a972985e90602401600060405180830381600087803b1580156120fd57600080fd5b505af1158015612111573d6000803e3d6000fd5b505050508a6001600160a01b03167f0306912acbf130bc61cce94222a394a64e258433196a3d3679a9bbfb8973f7738b8b8a604051612152939291906143f9565b60405180910390a25050505050506106c96001600b55565b6121743383612dc8565b6121905760405162461bcd60e51b815260040161061a9061427c565b61219c848484846132f5565b50505050565b6121aa6130b7565b600c805460ff1916911515919091179055565b6121c5612fb7565b6121cd613010565b60007f00000000000000000000000000000000000000000000000000000000000000006001600160a01b031663ca1470ea6040518163ffffffff1660e01b8152600401602060405180830381865afa15801561222d573d6000803e3d6000fd5b505050506040513d601f19601f8201168201806040525081019061225191906142c9565b9050806001600160a01b031663a880e68b6040518163ffffffff1660e01b8152600401602060405180830381865afa158015612291573d6000803e3d6000fd5b505050506040513d601f19601f820116820180604052508101906122b5919061436f565b6040516370a0823160e01b81523060048201527f00000000000000000000000000000000000000000000000000000000000000006001600160a01b0316906370a0823190602401602060405180830381865afa158015612319573d6000803e3d6000fd5b505050506040513d601f19601f8201168201806040525081019061233d919061436f565b612347908861439b565b106123945760405162461bcd60e51b815260206004820152601860248201527f54503a414c3a5341464547554152445f45584345454445440000000000000000604482015260640161061a565b60008960048111156123a8576123a861412d565b14806123c5575060018960048111156123c3576123c361412d565b145b806123e1575060028960048111156123df576123df61412d565b145b1561243e5760008611806123f457508615155b6124395760405162461bcd60e51b815260206004820152601660248201527515140e90530e91115413d4d25517d49154555254915160521b604482015260640161061a565b612509565b60038960048111156124525761245261412d565b036124a557600086118015612465575086155b6124395760405162461bcd60e51b815260206004820152601160248201527054503a414c3a544f4b454e535f4f4e4c5960781b604482015260640161061a565b60048960048111156124b9576124b961412d565b036125095786158015906124cb575085155b6125095760405162461bcd60e51b815260206004820152600f60248201526e54503a414c3a4e4654535f4f4e4c5960881b604482015260640161061a565b600189600481111561251d5761251d61412d565b148061253a575060028960048111156125385761253861412d565b145b1561257f576000831161257f5760405162461bcd60e51b815260206004820152600d60248201526c054503a414c3a44454c54415f3609c1b604482015260640161061a565b60038960048111156125935761259361412d565b14806125b0575060048960048111156125ae576125ae61412d565b145b156126085781156126035760405162461bcd60e51b815260206004820152601760248201527f54503a414c3a494e56414c49445f4c494d49545f464545000000000000000000604482015260640161061a565b61265a565b60008211801561261a5750611f408211155b61265a5760405162461bcd60e51b815260206004820152601160248201527054503a414c3a494e56414c49445f46454560781b604482015260640161061a565b604051633650e2c560e01b81526001600160a01b038581166004830152821690633650e2c590602401602060405180830381865afa1580156126a0573d6000803e3d6000fd5b505050506040513d601f19601f820116820180604052508101906126c49190614433565b6127065760405162461bcd60e51b815260206004820152601360248201527254503a414c3a494e56414c49445f435552564560681b604482015260640161061a565b604051636bc1c55d60e01b81526004810186905260248101849052604481018390526001600160a01b03851690636bc1c55d9060640160006040518083038186803b15801561275457600080fd5b505afa158015612768573d6000803e3d6000fd5b5050505060005b87811015612877576001600160a01b037f0000000000000000000000000000000000000000000000000000000000000000166342842e0e33308c8c868181106127ba576127ba6142e6565b905060200201356040518463ffffffff1660e01b81526004016127df939291906142fc565b600060405180830381600087803b1580156127f957600080fd5b505af115801561280d573d6000803e3d6000fd5b505050506040518060400160405280600f54815260200182815250600e60008b8b8581811061283e5761283e6142e6565b6020908102929092013583525081810192909252604001600020825181559101516001909101558061286f816143ae565b91505061276f565b5085156128b3576128b37f00000000000000000000000000000000000000000000000000000000000000006001600160a01b03163330896132d4565b6040518060e001604052808a60048111156128d0576128d061412d565b8152602001898980806020026020016040519081016040528093929190818152602001838360200280828437600092018290525093855250505060208083018a905260408084018a90526001600160a01b03891660608501526080840188905260a0909301869052600f548252600d90522081518154829060ff191660018360048111156129605761296061412d565b0217905550602082810151805161297d9260018501920190613bda565b50604082015160028201556060820151600382015560808201516004820180546001600160a01b0319166001600160a01b0390921691909117905560a0820151600582015560c090910151600690910155600f546129dc908b90613328565b8860048111156129ee576129ee61412d565b600f548b6001600160a01b03167f969041d1e007e67e329d9a54fcb219f8d0cd65b2f52eb80be1f55167539302a08b8b8b8b8b8b8b604051612a369796959493929190614450565b60405180910390a4600f8054906000612a4e836143ae565b919050555050612a5e6001600b55565b505050505050505050565b60607f00000000000000000000000000000000000000000000000000000000000000006001600160a01b031663605a26c26040518163ffffffff1660e01b8152600401602060405180830381865afa158015612ac9573d6000803e3d6000fd5b505050506040513d601f19601f82011682018060405250810190612aed91906142c9565b60405163e9dc637560e01b8152306004820152602481018490526001600160a01b03919091169063e9dc637590604401600060405180830381865afa158015612b3a573d6000803e3d6000fd5b505050506040513d6000823e601f3d908101601f191682016040526104e79190810190614497565b612b6a613b75565b6000828152600d602052604090819020815160e081019092528054829060ff166004811115612b9b57612b9b61412d565b6004811115612bac57612bac61412d565b815260200160018201805480602002602001604051908101604052809291908181526020018280548015612bff57602002820191906000526020600020905b815481526020019060010190808311612beb575b5050509183525050600282015460208201526003820154604082015260048201546001600160a01b031660608201526005820154608082015260069091015460a09091015292915050565b612c526130b7565b6001600160a01b038116612cb75760405162461bcd60e51b815260206004820152602660248201527f4f776e61626c653a206e6577206f776e657220697320746865207a65726f206160448201526564647265737360d01b606482015260840161061a565b6117cc81613111565b60006001600160e01b0319821663780e9d6360e01b14806104e757506104e782613342565b6001600160e01b0319166301ffc9a760e01b1490565b6000818152600260205260409020546001600160a01b03166117cc5760405162461bcd60e51b8152602060048201526018602482015277115490cdcc8c4e881a5b9d985b1a59081d1bdad95b88125160421b604482015260640161061a565b600081815260046020526040902080546001600160a01b0319166001600160a01b0384169081179091558190612d8f82611410565b6001600160a01b03167f8c5be1e5ebec7d5bd14f71427d1e84f3dd0314c0f7b2291e5b200ac8c7c3b92560405160405180910390a45050565b600080612dd483611410565b9050806001600160a01b0316846001600160a01b03161480612e1b57506001600160a01b0380821660009081526005602090815260408083209388168352929052205460ff165b806106c95750836001600160a01b0316612e348461057f565b6001600160a01b031614949350505050565b826001600160a01b0316612e5982611410565b6001600160a01b031614612e7f5760405162461bcd60e51b815260040161061a9061450e565b6001600160a01b038216612ee15760405162461bcd60e51b8152602060048201526024808201527f4552433732313a207472616e7366657220746f20746865207a65726f206164646044820152637265737360e01b606482015260840161061a565b612eee8383836001613381565b826001600160a01b0316612f0182611410565b6001600160a01b031614612f275760405162461bcd60e51b815260040161061a9061450e565b600081815260046020908152604080832080546001600160a01b03199081169091556001600160a01b0387811680865260038552838620805460001901905590871680865283862080546001019055868652600290945282852080549092168417909155905184937fddf252ad1be2c89b69c2b068fc378daa952ba7f163c4a11628f55a4df523b3ef91a4505050565b6002600b54036130095760405162461bcd60e51b815260206004820152601f60248201527f5265656e7472616e637947756172643a207265656e7472616e742063616c6c00604482015260640161061a565b6002600b55565b600c5460ff161561154e5760405162461bcd60e51b815260206004820152600e60248201526d15140e9413d3d317d4105554d15160921b604482015260640161061a565b6040516001600160a01b0383166024820152604481018290526106bb90849063a9059cbb60e01b906064015b60408051601f198184030181529190526020810180516001600160e01b03166001600160e01b03199093169290921790915261338d565b600a546001600160a01b0316331461154e5760405162461bcd60e51b815260206004820181905260248201527f4f776e61626c653a2063616c6c6572206973206e6f7420746865206f776e6572604482015260640161061a565b600a80546001600160a01b038381166001600160a01b0319831681179093556040519116919082907f8be0079c531659141344cd1fd0a4f28419497f9722a3daafe3b4186f6b6457e090600090a35050565b600061316e82611410565b905061317e816000846001613381565b61318782611410565b600083815260046020908152604080832080546001600160a01b03199081169091556001600160a01b0385168085526003845282852080546000190190558785526002909352818420805490911690555192935084927fddf252ad1be2c89b69c2b068fc378daa952ba7f163c4a11628f55a4df523b3ef908390a45050565b816001600160a01b0316836001600160a01b0316036132675760405162461bcd60e51b815260206004820152601960248201527f4552433732313a20617070726f766520746f2063616c6c657200000000000000604482015260640161061a565b6001600160a01b03838116600081815260056020908152604080832094871680845294825291829020805460ff191686151590811790915591519182527f17307eab39ab6107e8899845ad3d59bd9653f200f220920489ca2b5937696c31910160405180910390a3505050565b61219c846323b872dd60e01b858585604051602401613080939291906142fc565b613300848484612e46565b61330c8484848461345f565b61219c5760405162461bcd60e51b815260040161061a90614553565b6117da82826040518060200160405280600081525061355d565b60006001600160e01b031982166380ac58cd60e01b14806104d857506001600160e01b03198216635b5e139f60e01b14806104e757506104e782612ce5565b61219c84848484613590565b60006133e2826040518060400160405280602081526020017f5361666545524332303a206c6f772d6c6576656c2063616c6c206661696c6564815250856001600160a01b03166136c49092919063ffffffff16565b8051909150156106bb57808060200190518101906134009190614433565b6106bb5760405162461bcd60e51b815260206004820152602a60248201527f5361666545524332303a204552433230206f7065726174696f6e20646964206e6044820152691bdd081cdd58d8d9595960b21b606482015260840161061a565b60006001600160a01b0384163b1561355557604051630a85bd0160e11b81526001600160a01b0385169063150b7a02906134a39033908990889088906004016145a5565b6020604051808303816000875af19250505080156134de575060408051601f3d908101601f191682019092526134db918101906145d8565b60015b61353b573d80801561350c576040519150601f19603f3d011682016040523d82523d6000602084013e613511565b606091505b5080516000036135335760405162461bcd60e51b815260040161061a90614553565b805181602001fd5b6001600160e01b031916630a85bd0160e11b1490506106c9565b5060016106c9565b61356783836136d3565b613574600084848461345f565b6106bb5760405162461bcd60e51b815260040161061a90614553565b60018111156135ff5760405162461bcd60e51b815260206004820152603560248201527f455243373231456e756d657261626c653a20636f6e7365637574697665207472604482015274185b9cd9995c9cc81b9bdd081cdd5c1c1bdc9d1959605a1b606482015260840161061a565b816001600160a01b03851661365b5761365681600880546000838152600960205260408120829055600182018355919091527ff3f7a9fe364faab93b216da50a3214154f22a0a2b415b23a84c8169e8b636ee30155565b61367e565b836001600160a01b0316856001600160a01b03161461367e5761367e858261386c565b6001600160a01b03841661369a5761369581613909565b6136bd565b846001600160a01b0316846001600160a01b0316146136bd576136bd84826139b8565b5050505050565b60606106c984846000856139fc565b6001600160a01b0382166137295760405162461bcd60e51b815260206004820181905260248201527f4552433732313a206d696e7420746f20746865207a65726f2061646472657373604482015260640161061a565b6000818152600260205260409020546001600160a01b03161561378e5760405162461bcd60e51b815260206004820152601c60248201527f4552433732313a20746f6b656e20616c7265616479206d696e74656400000000604482015260640161061a565b61379c600083836001613381565b6000818152600260205260409020546001600160a01b0316156138015760405162461bcd60e51b815260206004820152601c60248201527f4552433732313a20746f6b656e20616c7265616479206d696e74656400000000604482015260640161061a565b6001600160a01b038216600081815260036020908152604080832080546001019055848352600290915280822080546001600160a01b0319168417905551839291907fddf252ad1be2c89b69c2b068fc378daa952ba7f163c4a11628f55a4df523b3ef908290a45050565b60006001613879846114b6565b6138839190614388565b6000838152600760205260409020549091508082146138d6576001600160a01b03841660009081526006602090815260408083208584528252808320548484528184208190558352600790915290208190555b5060009182526007602090815260408084208490556001600160a01b039094168352600681528383209183525290812055565b60085460009061391b90600190614388565b60008381526009602052604081205460088054939450909284908110613943576139436142e6565b906000526020600020015490508060088381548110613964576139646142e6565b600091825260208083209091019290925582815260099091526040808220849055858252812055600880548061399c5761399c61441d565b6001900381819060005260206000200160009055905550505050565b60006139c3836114b6565b6001600160a01b039093166000908152600660209081526040808320868452825280832085905593825260079052919091209190915550565b606082471015613a5d5760405162461bcd60e51b815260206004820152602660248201527f416464726573733a20696e73756666696369656e742062616c616e636520666f6044820152651c8818d85b1b60d21b606482015260840161061a565b600080866001600160a01b03168587604051613a7991906145f5565b60006040518083038185875af1925050503d8060008114613ab6576040519150601f19603f3d011682016040523d82523d6000602084013e613abb565b606091505b5091509150613acc87838387613ad7565b979650505050505050565b60608315613b46578251600003613b3f576001600160a01b0385163b613b3f5760405162461bcd60e51b815260206004820152601d60248201527f416464726573733a2063616c6c20746f206e6f6e2d636f6e7472616374000000604482015260640161061a565b50816106c9565b6106c98383815115613b5b5781518083602001fd5b8060405162461bcd60e51b815260040161061a9190613cc4565b6040805160e08101909152806000815260200160608152602001600081526020016000815260200160006001600160a01b0316815260200160008152602001600081525090565b50805460008255906000526020600020908101906117cc9190613c25565b828054828255906000526020600020908101928215613c15579160200282015b82811115613c15578251825591602001919060010190613bfa565b50613c21929150613c25565b5090565b5b80821115613c215760008155600101613c26565b6001600160e01b0319811681146117cc57600080fd5b600060208284031215613c6257600080fd5b8135613c6d81613c3a565b9392505050565b60005b83811015613c8f578181015183820152602001613c77565b50506000910152565b60008151808452613cb0816020860160208601613c74565b601f01601f19169290920160200192915050565b602081526000613c6d6020830184613c98565b600060208284031215613ce957600080fd5b5035919050565b6001600160a01b03811681146117cc57600080fd5b60008060408385031215613d1857600080fd5b8235613d2381613cf0565b946020939093013593505050565b634e487b7160e01b600052604160045260246000fd5b604051601f8201601f1916810167ffffffffffffffff81118282101715613d7057613d70613d31565b604052919050565b600067ffffffffffffffff821115613d9257613d92613d31565b50601f01601f191660200190565b60008060008060808587031215613db657600080fd5b8435613dc181613cf0565b93506020850135613dd181613cf0565b925060408501359150606085013567ffffffffffffffff811115613df457600080fd5b8501601f81018713613e0557600080fd5b8035613e18613e1382613d78565b613d47565b818152886020838501011115613e2d57600080fd5b8160208401602083013760006020838301015280935050505092959194509250565b600080600060608486031215613e6457600080fd5b8335613e6f81613cf0565b92506020840135613e7f81613cf0565b929592945050506040919091013590565b60008083601f840112613ea257600080fd5b50813567ffffffffffffffff811115613eba57600080fd5b6020830191508360208260051b8501011115613ed557600080fd5b9250929050565b60008060008060008060808789031215613ef557600080fd5b8635613f0081613cf0565b9550602087013567ffffffffffffffff80821115613f1d57600080fd5b613f298a838b01613e90565b90975095506040890135915080821115613f4257600080fd5b50613f4f89828a01613e90565b979a9699509497949695606090950135949350505050565b60008060208385031215613f7a57600080fd5b823567ffffffffffffffff811115613f9157600080fd5b613f9d85828601613e90565b90969095509350505050565b600060208284031215613fbb57600080fd5b8135613c6d81613cf0565b80151581146117cc57600080fd5b60008060408385031215613fe757600080fd5b8235613ff281613cf0565b9150602083013561400281613fc6565b809150509250929050565b6000806000806060858703121561402357600080fd5b843561402e81613cf0565b9350602085013567ffffffffffffffff81111561404a57600080fd5b61405687828801613e90565b9598909750949560400135949350505050565b60006020828403121561407b57600080fd5b8135613c6d81613fc6565b60008060008060008060008060006101008a8c0312156140a557600080fd5b89356140b081613cf0565b985060208a0135600581106140c457600080fd5b975060408a013567ffffffffffffffff8111156140e057600080fd5b6140ec8c828d01613e90565b90985096505060608a0135945060808a0135935060a08a013561410e81613cf0565b8093505060c08a0135915060e08a013590509295985092959850929598565b634e487b7160e01b600052602160045260246000fd5b600081518084526020808501945080840160005b8381101561417357815187529582019590820190600101614157565b509495945050505050565b6020815260008251600581106141a457634e487b7160e01b600052602160045260246000fd5b80602084015250602083015160e060408401526141c5610100840182614143565b9050604084015160608401526060840151608084015260808401516141f560a08501826001600160a01b03169052565b5060a084015160c084015260c084015160e08401528091505092915050565b6000806040838503121561422757600080fd5b823561423281613cf0565b9150602083013561400281613cf0565b600181811c9082168061425657607f821691505b60208210810361427657634e487b7160e01b600052602260045260246000fd5b50919050565b6020808252602d908201527f4552433732313a2063616c6c6572206973206e6f7420746f6b656e206f776e6560408201526c1c881bdc88185c1c1c9bdd9959609a1b606082015260800190565b6000602082840312156142db57600080fd5b8151613c6d81613cf0565b634e487b7160e01b600052603260045260246000fd5b6001600160a01b039384168152919092166020820152604081019190915260600190565b634e487b7160e01b600052601160045260246000fd5b80820281158282048414176104e7576104e7614320565b60008261436a57634e487b7160e01b600052601260045260246000fd5b500490565b60006020828403121561438157600080fd5b5051919050565b818103818111156104e7576104e7614320565b808201808211156104e7576104e7614320565b6000600182016143c0576143c0614320565b5060010190565b81835260006001600160fb1b038311156143e057600080fd5b8260051b80836020870137939093016020019392505050565b60408152600061440d6040830185876143c7565b9050826020830152949350505050565b634e487b7160e01b600052603160045260246000fd5b60006020828403121561444557600080fd5b8151613c6d81613fc6565b60c08152600061446460c08301898b6143c7565b60208301979097525060408101949094526001600160a01b03929092166060840152608083015260a09091015292915050565b6000602082840312156144a957600080fd5b815167ffffffffffffffff8111156144c057600080fd5b8201601f810184136144d157600080fd5b80516144df613e1382613d78565b8181528560208385010111156144f457600080fd5b614505826020830160208601613c74565b95945050505050565b60208082526025908201527f4552433732313a207472616e736665722066726f6d20696e636f72726563742060408201526437bbb732b960d91b606082015260800190565b60208082526032908201527f4552433732313a207472616e7366657220746f206e6f6e20455243373231526560408201527131b2b4bb32b91034b6b83632b6b2b73a32b960711b606082015260800190565b6001600160a01b038581168252841660208201526040810183905260806060820181905260009061128990830184613c98565b6000602082840312156145ea57600080fd5b8151613c6d81613c3a565b60008251614607818460208701613c74565b919091019291505056fea2646970667358221220a86604a7da1d2d78e46d3362ea1b45f42add9ae4765b95b9a998b64e8a97388064736f6c63430008130033",
  "linkReferences": {},
  "deployedLinkReferences": {}
}