{
  "_format": "hh-sol-artifact-1",
  "contractName": "VotingEscrow",
  "sourceName": "contracts/protocol/VotingEscrow.sol",
  "abi": [
    {
      "inputs": [],
      "stateMutability": "nonpayable",
      "type": "constructor"
    },
    {
      "anonymous": false,
      "inputs": [
        {
          "indexed": false,
          "internalType": "uint8",
          "name": "version",
          "type": "uint8"
        }
      ],
      "name": "Initialized",
      "type": "event"
    },
    {
      "anonymous": false,
      "inputs": [
        {
          "indexed": true,
          "internalType": "address",
          "name": "previousOwner",
          "type": "address"
        },
        {
          "indexed": true,
          "internalType": "address",
          "name": "newOwner",
          "type": "address"
        }
      ],
      "name": "OwnershipTransferred",
      "type": "event"
    },
    {
      "inputs": [],
      "name": "EPOCH_PERIOD",
      "outputs": [
        {
          "internalType": "uint256",
          "name": "",
          "type": "uint256"
        }
      ],
      "stateMutability": "view",
      "type": "function"
    },
    {
      "inputs": [],
      "name": "LOCK_FACTOR",
      "outputs": [
        {
          "internalType": "uint256",
          "name": "",
          "type": "uint256"
        }
      ],
      "stateMutability": "view",
      "type": "function"
    },
    {
      "inputs": [],
      "name": "MAXLOCKTIME",
      "outputs": [
        {
          "internalType": "uint256",
          "name": "",
          "type": "uint256"
        }
      ],
      "stateMutability": "view",
      "type": "function"
    },
    {
      "inputs": [],
      "name": "MINLOCKTIME",
      "outputs": [
        {
          "internalType": "uint256",
          "name": "",
          "type": "uint256"
        }
      ],
      "stateMutability": "view",
      "type": "function"
    },
    {
      "inputs": [
        {
          "internalType": "address",
          "name": "user",
          "type": "address"
        }
      ],
      "name": "balanceOf",
      "outputs": [
        {
          "internalType": "uint256",
          "name": "",
          "type": "uint256"
        }
      ],
      "stateMutability": "view",
      "type": "function"
    },
    {
      "inputs": [
        {
          "internalType": "address",
          "name": "receiver",
          "type": "address"
        },
        {
          "internalType": "uint256",
          "name": "amount",
          "type": "uint256"
        },
        {
          "internalType": "uint256",
          "name": "unlockTime",
          "type": "uint256"
        }
      ],
      "name": "createLock",
      "outputs": [],
      "stateMutability": "nonpayable",
      "type": "function"
    },
    {
      "inputs": [
        {
          "internalType": "uint256",
          "name": "timestamp",
          "type": "uint256"
        }
      ],
      "name": "epoch",
      "outputs": [
        {
          "internalType": "uint256",
          "name": "",
          "type": "uint256"
        }
      ],
      "stateMutability": "view",
      "type": "function"
    },
    {
      "inputs": [],
      "name": "epochPeriod",
      "outputs": [
        {
          "internalType": "uint256",
          "name": "",
          "type": "uint256"
        }
      ],
      "stateMutability": "pure",
      "type": "function"
    },
    {
      "inputs": [
        {
          "internalType": "uint256",
          "name": "_epoch",
          "type": "uint256"
        }
      ],
      "name": "epochTimestamp",
      "outputs": [
        {
          "internalType": "uint256",
          "name": "",
          "type": "uint256"
        }
      ],
      "stateMutability": "view",
      "type": "function"
    },
    {
      "inputs": [
        {
          "internalType": "address",
          "name": "user",
          "type": "address"
        },
        {
          "internalType": "uint256",
          "name": "index",
          "type": "uint256"
        }
      ],
      "name": "getUserHistoryPoint",
      "outputs": [
        {
          "components": [
            {
              "internalType": "uint256",
              "name": "bias",
              "type": "uint256"
            },
            {
              "internalType": "uint256",
              "name": "slope",
              "type": "uint256"
            },
            {
              "internalType": "uint256",
              "name": "timestamp",
              "type": "uint256"
            }
          ],
          "internalType": "struct DataTypes.Point",
          "name": "",
          "type": "tuple"
        }
      ],
      "stateMutability": "view",
      "type": "function"
    },
    {
      "inputs": [
        {
          "internalType": "uint256",
          "name": "amount",
          "type": "uint256"
        }
      ],
      "name": "increaseAmount",
      "outputs": [],
      "stateMutability": "nonpayable",
      "type": "function"
    },
    {
      "inputs": [
        {
          "internalType": "uint256",
          "name": "newUnlockTime",
          "type": "uint256"
        }
      ],
      "name": "increaseUnlockTime",
      "outputs": [],
      "stateMutability": "nonpayable",
      "type": "function"
    },
    {
      "inputs": [
        {
          "internalType": "contract IAddressesProvider",
          "name": "addressProvider",
          "type": "address"
        }
      ],
      "name": "initialize",
      "outputs": [],
      "stateMutability": "nonpayable",
      "type": "function"
    },
    {
      "inputs": [
        {
          "internalType": "address",
          "name": "user",
          "type": "address"
        }
      ],
      "name": "locked",
      "outputs": [
        {
          "components": [
            {
              "internalType": "uint256",
              "name": "amount",
              "type": "uint256"
            },
            {
              "internalType": "uint256",
              "name": "end",
              "type": "uint256"
            }
          ],
          "internalType": "struct DataTypes.LockedBalance",
          "name": "",
          "type": "tuple"
        }
      ],
      "stateMutability": "view",
      "type": "function"
    },
    {
      "inputs": [],
      "name": "owner",
      "outputs": [
        {
          "internalType": "address",
          "name": "",
          "type": "address"
        }
      ],
      "stateMutability": "view",
      "type": "function"
    },
    {
      "inputs": [],
      "name": "renounceOwnership",
      "outputs": [],
      "stateMutability": "nonpayable",
      "type": "function"
    },
    {
      "inputs": [
        {
          "internalType": "uint256",
          "name": "amount",
          "type": "uint256"
        },
        {
          "internalType": "uint256",
          "name": "end",
          "type": "uint256"
        }
      ],
      "name": "simulateLock",
      "outputs": [
        {
          "internalType": "uint256",
          "name": "",
          "type": "uint256"
        }
      ],
      "stateMutability": "view",
      "type": "function"
    },
    {
      "inputs": [],
      "name": "totalSupply",
      "outputs": [
        {
          "internalType": "uint256",
          "name": "",
          "type": "uint256"
        }
      ],
      "stateMutability": "nonpayable",
      "type": "function"
    },
    {
      "inputs": [
        {
          "internalType": "uint256",
          "name": "_epoch",
          "type": "uint256"
        }
      ],
      "name": "totalSupplyAt",
      "outputs": [
        {
          "internalType": "uint256",
          "name": "",
          "type": "uint256"
        }
      ],
      "stateMutability": "nonpayable",
      "type": "function"
    },
    {
      "inputs": [
        {
          "internalType": "address",
          "name": "newOwner",
          "type": "address"
        }
      ],
      "name": "transferOwnership",
      "outputs": [],
      "stateMutability": "nonpayable",
      "type": "function"
    },
    {
      "inputs": [
        {
          "internalType": "address",
          "name": "user",
          "type": "address"
        }
      ],
      "name": "userHistoryLength",
      "outputs": [
        {
          "internalType": "uint256",
          "name": "",
          "type": "uint256"
        }
      ],
      "stateMutability": "view",
      "type": "function"
    },
    {
      "inputs": [],
      "name": "withdraw",
      "outputs": [],
      "stateMutability": "nonpayable",
      "type": "function"
    },
    {
      "inputs": [],
      "name": "writeTotalWeightHistory",
      "outputs": [],
      "stateMutability": "nonpayable",
      "type": "function"
    }
  ],
  "bytecode": "0x608060405234801561001057600080fd5b5061001961001e565b6100de565b600054610100900460ff161561008a5760405162461bcd60e51b815260206004820152602760248201527f496e697469616c697a61626c653a20636f6e747261637420697320696e697469604482015266616c697a696e6760c81b606482015260840160405180910390fd5b60005460ff90811610156100dc576000805460ff191660ff9081179091556040519081527f7f26b83ff96e1f2b6a682f133852f6798a09c465da95921460cefb38474024989060200160405180910390a15b565b61197a806100ed6000396000f3fe608060405234801561001057600080fd5b506004361061014d5760003560e01c80637c616fe6116100c3578063c4d66de81161007c578063c4d66de81461027f578063cbf9fe5f14610292578063d7c6eaaf14610302578063d897658614610337578063e8d0bec714610341578063f2fde38b1461034957600080fd5b80637c616fe61461022557806387da75ef146102385780638da5cb5b14610240578063981b24d01461025b5780639c511ad41461026e578063b5b7a1841461027757600080fd5b80634ba4146c116101155780634ba4146c146101c65780635487c577146101d9578063650e1505146101ec57806370a08231146101ff57806370be219114610212578063715018a61461021d57600080fd5b806315456eba1461015257806318160ddd1461016757806332da089e146101825780633ccfd60b146101955780634a9617301461019d575b600080fd5b610165610160366004611631565b61035c565b005b61016f6104c5565b6040519081526020015b60405180910390f35b61016f610190366004611631565b6104fb565b61016561052b565b61016f6101ab36600461165f565b6001600160a01b03166000908152609a602052604090205490565b61016f6101d436600461167c565b6107d7565b61016f6101e7366004611631565b610877565b6101656101fa36600461169e565b6108fc565b61016f61020d36600461165f565b610aa4565b61016f630784ce0081565b610165610b70565b610165610233366004611631565b610b84565b610165610ccb565b6033546040516001600160a01b039091168152602001610179565b61016f610269366004611631565b610da1565b61016f610e1081565b610e1061016f565b61016561028d36600461165f565b610dd0565b6102e76102a036600461165f565b6040805180820190915260008082526020820152506001600160a01b0316600090815260996020908152604091829020825180840190935280548352600101549082015290565b60408051825181526020928301519281019290925201610179565b6103156103103660046116d3565b610f59565b6040805182518152602080840151908201529181015190820152606001610179565b61016f62093a8081565b61016f600481565b61016561035736600461165f565b610fe6565b3360009081526099602052604090206001015442106103bc5760405162461bcd60e51b81526020600482015260176024820152765573657220686173206e6f20616374697665206c6f636b60481b60448201526064015b60405180910390fd5b3360008181526099602081815260408084208151808301909252805480835260018201548385015295855292909152928492906103fa908490611715565b909155506104339050335b336000908152609960209081526040918290208251808401909352805483526001015490820152839061105c565b6104c1333084609760009054906101000a90046001600160a01b03166001600160a01b03166315b9ba5d6040518163ffffffff1660e01b8152600401602060405180830381865afa15801561048c573d6000803e3d6000fd5b505050506040513d601f19601f820116820180604052508101906104b09190611728565b6001600160a01b0316929190611290565b5050565b60006104cf610ccb565b609e546104dc9042611745565b609d546104e99190611758565b609c546104f69190611745565b905090565b6000610e1082610e10609854610511919061176f565b61051b9190611715565b6105259190611758565b92915050565b3360009081526099602052604090205461057d5760405162461bcd60e51b81526020600482015260136024820152724e6f7468696e6720746f20776974686472617760681b60448201526064016103b3565b3360009081526099602052604090206001015442116105d55760405162461bcd60e51b81526020600482015260146024820152732637b1b5ba34b6b29034b9903737ba1037bb32b960611b60448201526064016103b3565b609760009054906101000a90046001600160a01b03166001600160a01b03166358de9ade6040518163ffffffff1660e01b8152600401602060405180830381865afa158015610628573d6000803e3d6000fd5b505050506040513d601f19601f8201168201806040525081019061064c9190611728565b6001600160a01b0316635e1cfd30336040516001600160e01b031960e084901b1681526001600160a01b039091166004820152602401602060405180830381865afa15801561069f573d6000803e3d6000fd5b505050506040513d601f19601f820116820180604052508101906106c39190611791565b156107105760405162461bcd60e51b815260206004820152601c60248201527f5573657220686173206163746976652020676175676520766f7465730000000060448201526064016103b3565b3360008181526099602081815260408084208151808301909252805482526001810180548385015286865293909252908390559190559061075090610405565b6107d4338251609754604080516315b9ba5d60e01b815290516001600160a01b03909216916315b9ba5d916004808201926020929091908290030181865afa1580156107a0573d6000803e3d6000fd5b505050506040513d601f19601f820116820180604052508101906107c49190611728565b6001600160a01b03169190611301565b50565b600080610e106107e7818561176f565b6107f19190611758565b90506108004262093a80611715565b81101561081f5760405162461bcd60e51b81526004016103b3906117aa565b61082d42630784ce00611715565b81111561084c5760405162461bcd60e51b81526004016103b3906117f0565b630784ce0061085b4283611745565b610865919061176f565b61086f9085611758565b949350505050565b600060985482116108d65760405162461bcd60e51b8152602060048201526024808201527f54696d657374616d70206265666f726520636f6e7472616374206465706c6f796044820152631b595b9d60e21b60648201526084016103b3565b610e106098546108e6919061176f565b6108f2610e108461176f565b6105259190611745565b6000610e1061090b818461176f565b6109159190611758565b90506109244262093a80611715565b8110156109435760405162461bcd60e51b81526004016103b3906117aa565b61095142630784ce00611715565b8111156109705760405162461bcd60e51b81526004016103b3906117f0565b6001600160a01b038416600090815260996020526040902054156109e65760405162461bcd60e51b815260206004820152602760248201527f526563656976657220686173206c6f636b2077697468206e6f6e2d7a65726f2060448201526662616c616e636560c81b60648201526084016103b3565b6001600160a01b0384166000818152609960208181526040808420815180830183528154815260018201805482860152969095529282529187905592849055805180820190915285815291820183905290610a44908690839061105c565b610a9d333086609760009054906101000a90046001600160a01b03166001600160a01b03166315b9ba5d6040518163ffffffff1660e01b8152600401602060405180830381865afa15801561048c573d6000803e3d6000fd5b5050505050565b6001600160a01b038116600090815260996020526040812060010154421115610acf57506000919050565b6001600160a01b0382166000908152609a602052604081208054610af590600190611745565b81548110610b0557610b05611835565b906000526020600020906003020160405180606001604052908160008201548152602001600182015481526020016002820154815250509050806040015142610b4e9190611745565b8160200151610b5d9190611758565b8151610b699190611745565b9392505050565b610b78611331565b610b82600061138b565b565b6000610e10610b93818461176f565b610b9d9190611758565b336000908152609960205260409020600101549091504210610bfb5760405162461bcd60e51b81526020600482015260176024820152765573657220686173206e6f20616374697665206c6f636b60481b60448201526064016103b3565b33600090815260996020526040902060010154811015610c5d5760405162461bcd60e51b815260206004820152601b60248201527f4c6f636b2074696d652063616e206f6e6c7920696e637265617365000000000060448201526064016103b3565b610c6b42630784ce00611715565b811115610c8a5760405162461bcd60e51b81526004016103b3906117f0565b336000818152609960208181526040808420815180830190925280548252600101805482840152938590529190529083905590610cc690610405565b505050565b609b54600090610cda906104fb565b905060005b60808110156104c1574282116104c157609e54600090610cff9084611745565b609d54610d0c9190611758565b609c54610d199190611745565b609b8054600181019091557fbba9db4cdbea0a37c207bbb83e20f828cd4441c49891101dc94fd20dc8efc34901819055609c819055609e8490556000848152609f6020526040812054609d80549394509092909190610d79908490611745565b90915550610d8b9050610e1084611715565b9250508080610d999061184b565b915050610cdf565b6000610dab610ccb565b609b8281548110610dbe57610dbe611835565b90600052602060002001549050919050565b600054610100900460ff1615808015610df05750600054600160ff909116105b80610e0a5750303b158015610e0a575060005460ff166001145b610e6d5760405162461bcd60e51b815260206004820152602e60248201527f496e697469616c697a61626c653a20636f6e747261637420697320616c72656160448201526d191e481a5b9a5d1a585b1a5e995960921b60648201526084016103b3565b6000805460ff191660011790558015610e90576000805461ff0019166101001790555b610e986113dd565b609780546001600160a01b0319166001600160a01b038416179055426098819055609b805460018101825560009182527fbba9db4cdbea0a37c207bbb83e20f828cd4441c49891101dc94fd20dc8efc34901819055604080516060810182528281526020810183905201829052609c819055609d55609e5580156104c1576000805461ff0019169055604051600181527f7f26b83ff96e1f2b6a682f133852f6798a09c465da95921460cefb38474024989060200160405180910390a15050565b610f7d60405180606001604052806000815260200160008152602001600081525090565b6001600160a01b0383166000908152609a60205260409020805483908110610fa757610fa7611835565b90600052602060002090600302016040518060600160405290816000820154815260200160018201548152602001600282015481525050905092915050565b610fee611331565b6001600160a01b0381166110535760405162461bcd60e51b815260206004820152602660248201527f4f776e61626c653a206e6577206f776e657220697320746865207a65726f206160448201526564647265737360d01b60648201526084016103b3565b6107d48161138b565b61108060405180606001604052806000815260200160008152602001600081525090565b6110a460405180606001604052806000815260200160008152602001600081525090565b6110ac610ccb565b4284602001511180156110bf5750835115155b156110fe5783516110d590630784ce009061176f565b6020808401919091528401516110ec904290611745565b82602001516110fb9190611758565b82525b4283602001511180156111115750825115155b1561115657825161112790630784ce009061176f565b60208083019190915283015161113e904290611745565b816020015161114d9190611758565b81524260408201525b81518151609e546111679042611745565b609d546111749190611758565b609c546111819190611745565b61118b9190611715565b6111959190611745565b609c5560208083015190820151609d546111af9190611715565b6111b99190611745565b609d5542609e819055602085015111156111fe578160200151609f60008660200151815260200190815260200160002060008282546111f89190611745565b90915550505b428360200151111561123b578060200151609f60008560200151815260200190815260200160002060008282546112359190611715565b90915550505b6001600160a01b039094166000908152609a6020908152604080832080546001818101835591855293839020885160039095020193845591870151918301919091559490940151600290940193909355505050565b6040516001600160a01b03808516602483015283166044820152606481018290526112fb9085906323b872dd60e01b906084015b60408051601f198184030181529190526020810180516001600160e01b03166001600160e01b03199093169290921790915261140c565b50505050565b6040516001600160a01b038316602482015260448101829052610cc690849063a9059cbb60e01b906064016112c4565b6033546001600160a01b03163314610b825760405162461bcd60e51b815260206004820181905260248201527f4f776e61626c653a2063616c6c6572206973206e6f7420746865206f776e657260448201526064016103b3565b603380546001600160a01b038381166001600160a01b0319831681179093556040519116919082907f8be0079c531659141344cd1fd0a4f28419497f9722a3daafe3b4186f6b6457e090600090a35050565b600054610100900460ff166114045760405162461bcd60e51b81526004016103b390611864565b610b826114de565b6000611461826040518060400160405280602081526020017f5361666545524332303a206c6f772d6c6576656c2063616c6c206661696c6564815250856001600160a01b031661150e9092919063ffffffff16565b805190915015610cc6578080602001905181019061147f91906118af565b610cc65760405162461bcd60e51b815260206004820152602a60248201527f5361666545524332303a204552433230206f7065726174696f6e20646964206e6044820152691bdd081cdd58d8d9595960b21b60648201526084016103b3565b600054610100900460ff166115055760405162461bcd60e51b81526004016103b390611864565b610b823361138b565b606061086f848460008585600080866001600160a01b0316858760405161153591906118f5565b60006040518083038185875af1925050503d8060008114611572576040519150601f19603f3d011682016040523d82523d6000602084013e611577565b606091505b509150915061158887838387611593565b979650505050505050565b606083156116025782516000036115fb576001600160a01b0385163b6115fb5760405162461bcd60e51b815260206004820152601d60248201527f416464726573733a2063616c6c20746f206e6f6e2d636f6e747261637400000060448201526064016103b3565b508161086f565b61086f83838151156116175781518083602001fd5b8060405162461bcd60e51b81526004016103b39190611911565b60006020828403121561164357600080fd5b5035919050565b6001600160a01b03811681146107d457600080fd5b60006020828403121561167157600080fd5b8135610b698161164a565b6000806040838503121561168f57600080fd5b50508035926020909101359150565b6000806000606084860312156116b357600080fd5b83356116be8161164a565b95602085013595506040909401359392505050565b600080604083850312156116e657600080fd5b82356116f18161164a565b946020939093013593505050565b634e487b7160e01b600052601160045260246000fd5b80820180821115610525576105256116ff565b60006020828403121561173a57600080fd5b8151610b698161164a565b81810381811115610525576105256116ff565b8082028115828204841417610525576105256116ff565b60008261178c57634e487b7160e01b600052601260045260246000fd5b500490565b6000602082840312156117a357600080fd5b5051919050565b60208082526026908201527f4c6f636b74696d6520736d616c6c6572207468616e206d696e696d756d206c6f604082015265636b74696d6560d01b606082015260800190565b60208082526025908201527f4c6f636b74696d6520686967686572207468616e206d6178696d756d206c6f636040820152646b74696d6560d81b606082015260800190565b634e487b7160e01b600052603260045260246000fd5b60006001820161185d5761185d6116ff565b5060010190565b6020808252602b908201527f496e697469616c697a61626c653a20636f6e7472616374206973206e6f74206960408201526a6e697469616c697a696e6760a81b606082015260800190565b6000602082840312156118c157600080fd5b81518015158114610b6957600080fd5b60005b838110156118ec5781810151838201526020016118d4565b50506000910152565b600082516119078184602087016118d1565b9190910192915050565b60208152600082518060208401526119308160408501602087016118d1565b601f01601f1916919091016040019291505056fea2646970667358221220f0145c10e4ec1cd7de182b4bfa71e5a384cc54ef376c82b4057b0ae6195f473764736f6c63430008110033",
  "linkReferences": {},
  "deployedLinkReferences": {}
}