{
  "_format": "hh-sol-artifact-1",
  "contractName": "VotingEscrow",
  "sourceName": "contracts/protocol/VotingEscrow.sol",
  "abi": [
    {
      "anonymous": false,
      "inputs": [
        {
          "indexed": false,
          "internalType": "uint8",
          "name": "version",
          "type": "uint8"
        }
      ],
      "name": "Initialized",
      "type": "event"
    },
    {
      "anonymous": false,
      "inputs": [
        {
          "indexed": true,
          "internalType": "address",
          "name": "previousOwner",
          "type": "address"
        },
        {
          "indexed": true,
          "internalType": "address",
          "name": "newOwner",
          "type": "address"
        }
      ],
      "name": "OwnershipTransferred",
      "type": "event"
    },
    {
      "inputs": [],
      "name": "LOCK_FACTOR",
      "outputs": [
        {
          "internalType": "uint256",
          "name": "",
          "type": "uint256"
        }
      ],
      "stateMutability": "view",
      "type": "function"
    },
    {
      "inputs": [],
      "name": "MAXLOCKTIME",
      "outputs": [
        {
          "internalType": "uint256",
          "name": "",
          "type": "uint256"
        }
      ],
      "stateMutability": "view",
      "type": "function"
    },
    {
      "inputs": [],
      "name": "MINLOCKTIME",
      "outputs": [
        {
          "internalType": "uint256",
          "name": "",
          "type": "uint256"
        }
      ],
      "stateMutability": "view",
      "type": "function"
    },
    {
      "inputs": [
        {
          "internalType": "address",
          "name": "user",
          "type": "address"
        }
      ],
      "name": "balanceOf",
      "outputs": [
        {
          "internalType": "uint256",
          "name": "",
          "type": "uint256"
        }
      ],
      "stateMutability": "view",
      "type": "function"
    },
    {
      "inputs": [
        {
          "internalType": "uint256",
          "name": "amount",
          "type": "uint256"
        },
        {
          "internalType": "uint256",
          "name": "unlockTime",
          "type": "uint256"
        }
      ],
      "name": "createLock",
      "outputs": [],
      "stateMutability": "nonpayable",
      "type": "function"
    },
    {
      "inputs": [
        {
          "internalType": "uint256",
          "name": "timestamp",
          "type": "uint256"
        }
      ],
      "name": "epoch",
      "outputs": [
        {
          "internalType": "uint256",
          "name": "",
          "type": "uint256"
        }
      ],
      "stateMutability": "view",
      "type": "function"
    },
    {
      "inputs": [
        {
          "internalType": "uint256",
          "name": "epoch_",
          "type": "uint256"
        }
      ],
      "name": "epochTimestamp",
      "outputs": [
        {
          "internalType": "uint256",
          "name": "",
          "type": "uint256"
        }
      ],
      "stateMutability": "view",
      "type": "function"
    },
    {
      "inputs": [
        {
          "internalType": "address",
          "name": "user",
          "type": "address"
        },
        {
          "internalType": "uint256",
          "name": "index",
          "type": "uint256"
        }
      ],
      "name": "getUserHistoryPoint",
      "outputs": [
        {
          "components": [
            {
              "internalType": "uint256",
              "name": "bias",
              "type": "uint256"
            },
            {
              "internalType": "uint256",
              "name": "slope",
              "type": "uint256"
            },
            {
              "internalType": "uint256",
              "name": "timestamp",
              "type": "uint256"
            }
          ],
          "internalType": "struct DataTypes.Point",
          "name": "",
          "type": "tuple"
        }
      ],
      "stateMutability": "view",
      "type": "function"
    },
    {
      "inputs": [
        {
          "internalType": "uint256",
          "name": "amount",
          "type": "uint256"
        }
      ],
      "name": "increaseAmount",
      "outputs": [],
      "stateMutability": "nonpayable",
      "type": "function"
    },
    {
      "inputs": [
        {
          "internalType": "uint256",
          "name": "newUnlockTime",
          "type": "uint256"
        }
      ],
      "name": "increaseUnlockTime",
      "outputs": [],
      "stateMutability": "nonpayable",
      "type": "function"
    },
    {
      "inputs": [
        {
          "internalType": "contract IAddressesProvider",
          "name": "addressProvider",
          "type": "address"
        }
      ],
      "name": "initialize",
      "outputs": [],
      "stateMutability": "nonpayable",
      "type": "function"
    },
    {
      "inputs": [
        {
          "internalType": "address",
          "name": "user",
          "type": "address"
        }
      ],
      "name": "locked",
      "outputs": [
        {
          "components": [
            {
              "internalType": "uint256",
              "name": "amount",
              "type": "uint256"
            },
            {
              "internalType": "uint256",
              "name": "end",
              "type": "uint256"
            }
          ],
          "internalType": "struct DataTypes.LockedBalance",
          "name": "",
          "type": "tuple"
        }
      ],
      "stateMutability": "view",
      "type": "function"
    },
    {
      "inputs": [],
      "name": "owner",
      "outputs": [
        {
          "internalType": "address",
          "name": "",
          "type": "address"
        }
      ],
      "stateMutability": "view",
      "type": "function"
    },
    {
      "inputs": [],
      "name": "renounceOwnership",
      "outputs": [],
      "stateMutability": "nonpayable",
      "type": "function"
    },
    {
      "inputs": [],
      "name": "totalSupply",
      "outputs": [
        {
          "internalType": "uint256",
          "name": "",
          "type": "uint256"
        }
      ],
      "stateMutability": "nonpayable",
      "type": "function"
    },
    {
      "inputs": [
        {
          "internalType": "uint256",
          "name": "epoch_",
          "type": "uint256"
        }
      ],
      "name": "totalSupplyAt",
      "outputs": [
        {
          "internalType": "uint256",
          "name": "",
          "type": "uint256"
        }
      ],
      "stateMutability": "nonpayable",
      "type": "function"
    },
    {
      "inputs": [
        {
          "internalType": "address",
          "name": "newOwner",
          "type": "address"
        }
      ],
      "name": "transferOwnership",
      "outputs": [],
      "stateMutability": "nonpayable",
      "type": "function"
    },
    {
      "inputs": [
        {
          "internalType": "address",
          "name": "user",
          "type": "address"
        }
      ],
      "name": "userHistoryLength",
      "outputs": [
        {
          "internalType": "uint256",
          "name": "",
          "type": "uint256"
        }
      ],
      "stateMutability": "view",
      "type": "function"
    },
    {
      "inputs": [],
      "name": "withdraw",
      "outputs": [],
      "stateMutability": "nonpayable",
      "type": "function"
    },
    {
      "inputs": [],
      "name": "writeTotalWeightHistory",
      "outputs": [],
      "stateMutability": "nonpayable",
      "type": "function"
    }
  ],
  "bytecode": "0x608060405234801561001057600080fd5b506117d9806100206000396000f3fe608060405234801561001057600080fd5b506004361061012c5760003560e01c806387da75ef116100ad578063cbf9fe5f11610071578063cbf9fe5f1461024a578063d7c6eaaf146102ba578063d8976586146102ef578063e8d0bec7146102f7578063f2fde38b146102ff57600080fd5b806387da75ef146101ee5780638da5cb5b146101f6578063981b24d014610211578063b52c05fe14610224578063c4d66de81461023757600080fd5b80635487c577116100f45780635487c577146101a557806370a08231146101b857806370be2191146101cb578063715018a6146101d35780637c616fe6146101db57600080fd5b806315456eba1461013157806318160ddd1461014657806332da089e146101615780633ccfd60b146101745780634a9617301461017c575b600080fd5b61014461013f366004611524565b610312565b005b61014e6104eb565b6040519081526020015b60405180910390f35b61014e61016f366004611524565b610521565b61014461057e565b61014e61018a366004611552565b6001600160a01b03166000908152609a602052604090205490565b61014e6101b3366004611524565b610619565b61014e6101c6366004611552565b610681565b61014e61074d565b61014461076a565b6101446101e9366004611524565b61077e565b6101446108f0565b6033546040516001600160a01b039091168152602001610158565b61014e61021f366004611524565b6109d2565b61014461023236600461156f565b610a12565b610144610245366004611552565b610c48565b61029f610258366004611552565b6040805180820190915260008082526020820152506001600160a01b0316600090815260996020908152604091829020825180840190935280548352600101549082015290565b60408051825181526020928301519281019290925201610158565b6102cd6102c8366004611591565b610d78565b6040805182518152602080840151908201529181015190820152606001610158565b61014e610e05565b61014e600481565b61014461030d366004611552565b610e1e565b3360009081526099602052604090206001015442116103725760405162461bcd60e51b81526020600482015260176024820152765573657220686173206e6f20616374697665206c6f636b60481b60448201526064015b60405180910390fd5b3360008181526099602081815260408084208151808301909252805480835260018201548385015295855292909152928492906103b09084906115d3565b909155506103e99050335b3360009081526099602090815260409182902082518084019093528054835260010154908201528390610e94565b609760009054906101000a90046001600160a01b03166001600160a01b03166315b9ba5d6040518163ffffffff1660e01b8152600401602060405180830381865afa15801561043c573d6000803e3d6000fd5b505050506040513d601f19601f8201168201806040525081019061046091906115e6565b6001600160a01b03166323b872dd336040516001600160e01b031960e084901b1681526001600160a01b039091166004820152306024820152604481018590526064016020604051808303816000875af11580156104c2573d6000803e3d6000fd5b505050506040513d601f19601f820116820180604052508101906104e69190611603565b505050565b60006104f56108f0565b609e546105029042611625565b609d5461050f9190611638565b609c5461051c9190611625565b905090565b6000610531620151806007611638565b61053f620151806007611638565b60985461054c919061164f565b6105569190611638565b610564620151806007611638565b61056e9084611638565b61057891906115d3565b92915050565b3360009081526099602052604090206001015442116105d65760405162461bcd60e51b81526020600482015260146024820152732637b1b5ba34b6b29034b9903737ba1037bb32b960611b6044820152606401610369565b33600081815260996020818152604080842081518083019092528054825260018101805483850152868652939092529083905591905590610616906103bb565b50565b600060985482116106785760405162461bcd60e51b8152602060048201526024808201527f54696d657374616d70206265666f726520636f6e7472616374206465706c6f796044820152631b595b9d60e21b6064820152608401610369565b6105788261111e565b6001600160a01b0381166000908152609960205260408120600101544211156106ac57506000919050565b6001600160a01b0382166000908152609a6020526040812080546106d290600190611625565b815481106106e2576106e2611671565b90600052602060002090600302016040518060600160405290816000820154815260200160018201548152602001600282015481525050905080604001514261072b9190611625565b816020015161073a9190611638565b81516107469190611625565b9392505050565b61075c6201518061016d611638565b610767906004611638565b81565b61077261115d565b61077c60006111b7565b565b600061078e620151806007611638565b61079c620151806007611638565b6107a6908461164f565b6107b09190611638565b33600090815260996020526040902060010154909150421161080e5760405162461bcd60e51b81526020600482015260176024820152765573657220686173206e6f20616374697665206c6f636b60481b6044820152606401610369565b336000908152609960205260409020600101548110156108705760405162461bcd60e51b815260206004820152601b60248201527f4c6f636b2074696d652063616e206f6e6c7920696e63726561736500000000006044820152606401610369565b426108806201518061016d611638565b61088b906004611638565b61089591906115d3565b8111156108b45760405162461bcd60e51b815260040161036990611687565b3360008181526099602081815260408084208151808301909252805482526001018054828401529385905291905290839055906104e6906103bb565b6000610900620151806007611638565b61090e620151806007611638565b609e5461091b919061164f565b6109259190611638565b905060005b60808110156109ce57610941620151806007611638565b61094b90836115d3565b91504282116109ce57609e54609b906109649042611625565b609d546109719190611638565b609c5461097e9190611625565b81546001810183556000928352602080842090910191909155838252609f90526040812054609d8054919290916109b69084906115d3565b909155508190506109c6816116cc565b91505061092a565b5050565b60006109dc6108f0565b609b5482106109ed57506000919050565b609b8281548110610a0057610a00611671565b90600052602060002001549050919050565b6000610a22620151806007611638565b610a30620151806007611638565b610a3a908461164f565b610a449190611638565b905042610a55620151806007611638565b610a60906001611638565b610a6a91906115d3565b811015610ac85760405162461bcd60e51b815260206004820152602660248201527f4c6f636b74696d6520736d616c6c6572207468616e206d696e696d756d206c6f604482015265636b74696d6560d01b6064820152608401610369565b42610ad86201518061016d611638565b610ae3906004611638565b610aed91906115d3565b811115610b0c5760405162461bcd60e51b815260040161036990611687565b3360009081526099602052604090205415610b745760405162461bcd60e51b815260206004820152602260248201527f5573657220686173206c6f636b2077697468206e6f6e2d7a65726f20616d6f756044820152611b9d60f21b6064820152608401610369565b33600081815260996020818152604080842081518083019092528054825260018101805483850152959094529190529085905590829055610bb4336103bb565b610c42333086609760009054906101000a90046001600160a01b03166001600160a01b03166315b9ba5d6040518163ffffffff1660e01b8152600401602060405180830381865afa158015610c0d573d6000803e3d6000fd5b505050506040513d601f19601f82011682018060405250810190610c3191906115e6565b6001600160a01b0316929190611209565b50505050565b600054610100900460ff1615808015610c685750600054600160ff909116105b80610c825750303b158015610c82575060005460ff166001145b610ce55760405162461bcd60e51b815260206004820152602e60248201527f496e697469616c697a61626c653a20636f6e747261637420697320616c72656160448201526d191e481a5b9a5d1a585b1a5e995960921b6064820152608401610369565b6000805460ff191660011790558015610d08576000805461ff0019166101001790555b610d10611263565b609780546001600160a01b0319166001600160a01b0384161790554260985580156109ce576000805461ff0019169055604051600181527f7f26b83ff96e1f2b6a682f133852f6798a09c465da95921460cefb38474024989060200160405180910390a15050565b610d9c60405180606001604052806000815260200160008152602001600081525090565b6001600160a01b0383166000908152609a60205260409020805483908110610dc657610dc6611671565b90600052602060002090600302016040518060600160405290816000820154815260200160018201548152602001600282015481525050905092915050565b610e13620151806007611638565b610767906001611638565b610e2661115d565b6001600160a01b038116610e8b5760405162461bcd60e51b815260206004820152602660248201527f4f776e61626c653a206e6577206f776e657220697320746865207a65726f206160448201526564647265737360d01b6064820152608401610369565b610616816111b7565b610eb860405180606001604052806000815260200160008152602001600081525090565b610edc60405180606001604052806000815260200160008152602001600081525090565b600080428660200151118015610ef25750855115155b15610f4657610f066201518061016d611638565b610f11906004611638565b8651610f1d919061164f565b602080860191909152860151610f34904290611625565b8460200151610f439190611638565b84525b428560200151118015610f595750845115155b15610fad57610f6d6201518061016d611638565b610f78906004611638565b8551610f84919061164f565b602080850191909152850151610f9b904290611625565b8360200151610faa9190611638565b83525b610fb56108f0565b83518351610fc39190611625565b609c8054600090610fd59084906115d3565b909155505060208085015190840151610fee9190611625565b609d80546000906110009084906115d3565b909155505042609e556020808701516000908152609f909152604090205485519092501561105557856020015185602001510361103e575080611055565b506020808501516000908152609f90915260409020545b428660200151111561108e5781609f60008860200151815260200190815260200160002060008282546110889190611625565b90915550505b42856020015111156110c75780609f60008760200151815260200190815260200160002060008282546110c191906115d3565b90915550505b50506001600160a01b039094166000908152609a6020908152604080832080546001818101835591855293839020885160039095020193845591870151918301919091559490940151600290940193909355505050565b600061112e620151806007611638565b60985461113b919061164f565b611149620151806007611638565b611153908461164f565b6105789190611625565b6033546001600160a01b0316331461077c5760405162461bcd60e51b815260206004820181905260248201527f4f776e61626c653a2063616c6c6572206973206e6f7420746865206f776e65726044820152606401610369565b603380546001600160a01b038381166001600160a01b0319831681179093556040519116919082907f8be0079c531659141344cd1fd0a4f28419497f9722a3daafe3b4186f6b6457e090600090a35050565b604080516001600160a01b0385811660248301528416604482015260648082018490528251808303909101815260849091019091526020810180516001600160e01b03166323b872dd60e01b179052610c42908590611292565b600054610100900460ff1661128a5760405162461bcd60e51b8152600401610369906116e5565b61077c611364565b60006112e7826040518060400160405280602081526020017f5361666545524332303a206c6f772d6c6576656c2063616c6c206661696c6564815250856001600160a01b03166113949092919063ffffffff16565b8051909150156104e657808060200190518101906113059190611603565b6104e65760405162461bcd60e51b815260206004820152602a60248201527f5361666545524332303a204552433230206f7065726174696f6e20646964206e6044820152691bdd081cdd58d8d9595960b21b6064820152608401610369565b600054610100900460ff1661138b5760405162461bcd60e51b8152600401610369906116e5565b61077c336111b7565b60606113a384846000856113ab565b949350505050565b60608247101561140c5760405162461bcd60e51b815260206004820152602660248201527f416464726573733a20696e73756666696369656e742062616c616e636520666f6044820152651c8818d85b1b60d21b6064820152608401610369565b600080866001600160a01b031685876040516114289190611754565b60006040518083038185875af1925050503d8060008114611465576040519150601f19603f3d011682016040523d82523d6000602084013e61146a565b606091505b509150915061147b87838387611486565b979650505050505050565b606083156114f55782516000036114ee576001600160a01b0385163b6114ee5760405162461bcd60e51b815260206004820152601d60248201527f416464726573733a2063616c6c20746f206e6f6e2d636f6e74726163740000006044820152606401610369565b50816113a3565b6113a3838381511561150a5781518083602001fd5b8060405162461bcd60e51b81526004016103699190611770565b60006020828403121561153657600080fd5b5035919050565b6001600160a01b038116811461061657600080fd5b60006020828403121561156457600080fd5b81356107468161153d565b6000806040838503121561158257600080fd5b50508035926020909101359150565b600080604083850312156115a457600080fd5b82356115af8161153d565b946020939093013593505050565b634e487b7160e01b600052601160045260246000fd5b80820180821115610578576105786115bd565b6000602082840312156115f857600080fd5b81516107468161153d565b60006020828403121561161557600080fd5b8151801515811461074657600080fd5b81810381811115610578576105786115bd565b8082028115828204841417610578576105786115bd565b60008261166c57634e487b7160e01b600052601260045260246000fd5b500490565b634e487b7160e01b600052603260045260246000fd5b60208082526025908201527f4c6f636b74696d6520686967686572207468616e206d6178696d756d206c6f636040820152646b74696d6560d81b606082015260800190565b6000600182016116de576116de6115bd565b5060010190565b6020808252602b908201527f496e697469616c697a61626c653a20636f6e7472616374206973206e6f74206960408201526a6e697469616c697a696e6760a81b606082015260800190565b60005b8381101561174b578181015183820152602001611733565b50506000910152565b60008251611766818460208701611730565b9190910192915050565b602081526000825180602084015261178f816040850160208701611730565b601f01601f1916919091016040019291505056fea2646970667358221220c03e98ad148e41bd42804e3f6eb766450689524a000c0a8c7e36b97ab6687d3d64736f6c63430008110033",
  "linkReferences": {},
  "deployedLinkReferences": {}
}