{
  "_format": "hh-sol-artifact-1",
  "contractName": "VotingEscrow",
  "sourceName": "contracts/protocol/VotingEscrow.sol",
  "abi": [
    {
      "inputs": [],
      "stateMutability": "nonpayable",
      "type": "constructor"
    },
    {
      "anonymous": false,
      "inputs": [
        {
          "indexed": false,
          "internalType": "uint8",
          "name": "version",
          "type": "uint8"
        }
      ],
      "name": "Initialized",
      "type": "event"
    },
    {
      "anonymous": false,
      "inputs": [
        {
          "indexed": true,
          "internalType": "address",
          "name": "previousOwner",
          "type": "address"
        },
        {
          "indexed": true,
          "internalType": "address",
          "name": "newOwner",
          "type": "address"
        }
      ],
      "name": "OwnershipTransferred",
      "type": "event"
    },
    {
      "inputs": [],
      "name": "LOCK_FACTOR",
      "outputs": [
        {
          "internalType": "uint256",
          "name": "",
          "type": "uint256"
        }
      ],
      "stateMutability": "view",
      "type": "function"
    },
    {
      "inputs": [],
      "name": "MAXLOCKTIME",
      "outputs": [
        {
          "internalType": "uint256",
          "name": "",
          "type": "uint256"
        }
      ],
      "stateMutability": "view",
      "type": "function"
    },
    {
      "inputs": [],
      "name": "MINLOCKTIME",
      "outputs": [
        {
          "internalType": "uint256",
          "name": "",
          "type": "uint256"
        }
      ],
      "stateMutability": "view",
      "type": "function"
    },
    {
      "inputs": [
        {
          "internalType": "address",
          "name": "user",
          "type": "address"
        }
      ],
      "name": "balanceOf",
      "outputs": [
        {
          "internalType": "uint256",
          "name": "",
          "type": "uint256"
        }
      ],
      "stateMutability": "view",
      "type": "function"
    },
    {
      "inputs": [
        {
          "internalType": "uint256",
          "name": "amount",
          "type": "uint256"
        },
        {
          "internalType": "uint256",
          "name": "unlockTime",
          "type": "uint256"
        }
      ],
      "name": "createLock",
      "outputs": [],
      "stateMutability": "nonpayable",
      "type": "function"
    },
    {
      "inputs": [
        {
          "internalType": "uint256",
          "name": "timestamp",
          "type": "uint256"
        }
      ],
      "name": "epoch",
      "outputs": [
        {
          "internalType": "uint256",
          "name": "",
          "type": "uint256"
        }
      ],
      "stateMutability": "view",
      "type": "function"
    },
    {
      "inputs": [
        {
          "internalType": "uint256",
          "name": "_epoch",
          "type": "uint256"
        }
      ],
      "name": "epochTimestamp",
      "outputs": [
        {
          "internalType": "uint256",
          "name": "",
          "type": "uint256"
        }
      ],
      "stateMutability": "view",
      "type": "function"
    },
    {
      "inputs": [
        {
          "internalType": "address",
          "name": "user",
          "type": "address"
        },
        {
          "internalType": "uint256",
          "name": "index",
          "type": "uint256"
        }
      ],
      "name": "getUserHistoryPoint",
      "outputs": [
        {
          "components": [
            {
              "internalType": "uint256",
              "name": "bias",
              "type": "uint256"
            },
            {
              "internalType": "uint256",
              "name": "slope",
              "type": "uint256"
            },
            {
              "internalType": "uint256",
              "name": "timestamp",
              "type": "uint256"
            }
          ],
          "internalType": "struct DataTypes.Point",
          "name": "",
          "type": "tuple"
        }
      ],
      "stateMutability": "view",
      "type": "function"
    },
    {
      "inputs": [
        {
          "internalType": "uint256",
          "name": "amount",
          "type": "uint256"
        }
      ],
      "name": "increaseAmount",
      "outputs": [],
      "stateMutability": "nonpayable",
      "type": "function"
    },
    {
      "inputs": [
        {
          "internalType": "uint256",
          "name": "newUnlockTime",
          "type": "uint256"
        }
      ],
      "name": "increaseUnlockTime",
      "outputs": [],
      "stateMutability": "nonpayable",
      "type": "function"
    },
    {
      "inputs": [
        {
          "internalType": "contract IAddressesProvider",
          "name": "addressProvider",
          "type": "address"
        }
      ],
      "name": "initialize",
      "outputs": [],
      "stateMutability": "nonpayable",
      "type": "function"
    },
    {
      "inputs": [
        {
          "internalType": "address",
          "name": "user",
          "type": "address"
        }
      ],
      "name": "locked",
      "outputs": [
        {
          "components": [
            {
              "internalType": "uint256",
              "name": "amount",
              "type": "uint256"
            },
            {
              "internalType": "uint256",
              "name": "end",
              "type": "uint256"
            }
          ],
          "internalType": "struct DataTypes.LockedBalance",
          "name": "",
          "type": "tuple"
        }
      ],
      "stateMutability": "view",
      "type": "function"
    },
    {
      "inputs": [],
      "name": "owner",
      "outputs": [
        {
          "internalType": "address",
          "name": "",
          "type": "address"
        }
      ],
      "stateMutability": "view",
      "type": "function"
    },
    {
      "inputs": [],
      "name": "renounceOwnership",
      "outputs": [],
      "stateMutability": "nonpayable",
      "type": "function"
    },
    {
      "inputs": [],
      "name": "totalSupply",
      "outputs": [
        {
          "internalType": "uint256",
          "name": "",
          "type": "uint256"
        }
      ],
      "stateMutability": "nonpayable",
      "type": "function"
    },
    {
      "inputs": [
        {
          "internalType": "uint256",
          "name": "_epoch",
          "type": "uint256"
        }
      ],
      "name": "totalSupplyAt",
      "outputs": [
        {
          "internalType": "uint256",
          "name": "",
          "type": "uint256"
        }
      ],
      "stateMutability": "nonpayable",
      "type": "function"
    },
    {
      "inputs": [
        {
          "internalType": "address",
          "name": "newOwner",
          "type": "address"
        }
      ],
      "name": "transferOwnership",
      "outputs": [],
      "stateMutability": "nonpayable",
      "type": "function"
    },
    {
      "inputs": [
        {
          "internalType": "address",
          "name": "user",
          "type": "address"
        }
      ],
      "name": "userHistoryLength",
      "outputs": [
        {
          "internalType": "uint256",
          "name": "",
          "type": "uint256"
        }
      ],
      "stateMutability": "view",
      "type": "function"
    },
    {
      "inputs": [],
      "name": "withdraw",
      "outputs": [],
      "stateMutability": "nonpayable",
      "type": "function"
    },
    {
      "inputs": [],
      "name": "writeTotalWeightHistory",
      "outputs": [],
      "stateMutability": "nonpayable",
      "type": "function"
    }
  ],
  "bytecode": "0x608060405234801561001057600080fd5b5061001961001e565b6100de565b600054610100900460ff161561008a5760405162461bcd60e51b815260206004820152602760248201527f496e697469616c697a61626c653a20636f6e747261637420697320696e697469604482015266616c697a696e6760c81b606482015260840160405180910390fd5b60005460ff90811610156100dc576000805460ff191660ff9081179091556040519081527f7f26b83ff96e1f2b6a682f133852f6798a09c465da95921460cefb38474024989060200160405180910390a15b565b6119a6806100ed6000396000f3fe608060405234801561001057600080fd5b506004361061012c5760003560e01c806387da75ef116100ad578063cbf9fe5f11610071578063cbf9fe5f1461024a578063d7c6eaaf146102ba578063d8976586146102ef578063e8d0bec7146102f7578063f2fde38b146102ff57600080fd5b806387da75ef146101ee5780638da5cb5b146101f6578063981b24d014610211578063b52c05fe14610224578063c4d66de81461023757600080fd5b80635487c577116100f45780635487c577146101a557806370a08231146101b857806370be2191146101cb578063715018a6146101d35780637c616fe6146101db57600080fd5b806315456eba1461013157806318160ddd1461014657806332da089e146101615780633ccfd60b146101745780634a9617301461017c575b600080fd5b61014461013f3660046116d8565b610312565b005b61014e61047b565b6040519081526020015b60405180910390f35b61014e61016f3660046116d8565b6104b1565b6101446104f7565b61014e61018a366004611706565b6001600160a01b03166000908152609a602052604090205490565b61014e6101b33660046116d8565b6107a3565b61014e6101c6366004611706565b61083f565b61014e61090b565b610144610928565b6101446101e93660046116d8565b61093c565b610144610ab3565b6033546040516001600160a01b039091168152602001610158565b61014e61021f3660046116d8565b610b95565b610144610232366004611723565b610bc4565b610144610245366004611706565b610dc6565b61029f610258366004611706565b6040805180820190915260008082526020820152506001600160a01b0316600090815260996020908152604091829020825180840190935280548352600101549082015290565b60408051825181526020928301519281019290925201610158565b6102cd6102c8366004611745565b610f4f565b6040805182518152602080840151908201529181015190820152606001610158565b61014e610fdc565b61014e600481565b61014461030d366004611706565b610ff5565b3360009081526099602052604090206001015442116103725760405162461bcd60e51b81526020600482015260176024820152765573657220686173206e6f20616374697665206c6f636b60481b60448201526064015b60405180910390fd5b3360008181526099602081815260408084208151808301909252805480835260018201548385015295855292909152928492906103b0908490611787565b909155506103e99050335b336000908152609960209081526040918290208251808401909352805483526001015490820152839061106b565b610477333084609760009054906101000a90046001600160a01b03166001600160a01b03166315b9ba5d6040518163ffffffff1660e01b8152600401602060405180830381865afa158015610442573d6000803e3d6000fd5b505050506040513d601f19601f82011682018060405250810190610466919061179a565b6001600160a01b03169291906112d0565b5050565b6000610485610ab3565b609e5461049290426117b7565b609d5461049f91906117ca565b609c546104ac91906117b7565b905090565b60006104c16201518060076117ca565b826104d06201518060076117ca565b6098546104dd91906117e1565b6104e79190611787565b6104f191906117ca565b92915050565b336000908152609960205260409020546105495760405162461bcd60e51b81526020600482015260136024820152724e6f7468696e6720746f20776974686472617760681b6044820152606401610369565b3360009081526099602052604090206001015442116105a15760405162461bcd60e51b81526020600482015260146024820152732637b1b5ba34b6b29034b9903737ba1037bb32b960611b6044820152606401610369565b609760009054906101000a90046001600160a01b03166001600160a01b03166358de9ade6040518163ffffffff1660e01b8152600401602060405180830381865afa1580156105f4573d6000803e3d6000fd5b505050506040513d601f19601f82011682018060405250810190610618919061179a565b6001600160a01b0316635e1cfd30336040516001600160e01b031960e084901b1681526001600160a01b039091166004820152602401602060405180830381865afa15801561066b573d6000803e3d6000fd5b505050506040513d601f19601f8201168201806040525081019061068f9190611803565b156106dc5760405162461bcd60e51b815260206004820152601c60248201527f5573657220686173206163746976652020676175676520766f746573000000006044820152606401610369565b3360008181526099602081815260408084208151808301909252805482526001810180548385015286865293909252908390559190559061071c906103bb565b6107a0338251609754604080516315b9ba5d60e01b815290516001600160a01b03909216916315b9ba5d916004808201926020929091908290030181865afa15801561076c573d6000803e3d6000fd5b505050506040513d601f19601f82011682018060405250810190610790919061179a565b6001600160a01b0316919061133b565b50565b600060985482116108025760405162461bcd60e51b8152602060048201526024808201527f54696d657374616d70206265666f726520636f6e7472616374206465706c6f796044820152631b595b9d60e21b6064820152608401610369565b6108106201518060076117ca565b60985461081d91906117e1565b61082b6201518060076117ca565b61083590846117e1565b6104f191906117b7565b6001600160a01b03811660009081526099602052604081206001015442111561086a57506000919050565b6001600160a01b0382166000908152609a602052604081208054610890906001906117b7565b815481106108a0576108a061181c565b9060005260206000209060030201604051806060016040529081600082015481526020016001820154815260200160028201548152505090508060400151426108e991906117b7565b81602001516108f891906117ca565b815161090491906117b7565b9392505050565b61091a6201518061016d6117ca565b6109259060046117ca565b81565b61093061136b565b61093a60006113c5565b565b600061094c6201518060076117ca565b61095a6201518060076117ca565b61096490846117e1565b61096e91906117ca565b3360009081526099602052604090206001015490915042116109cc5760405162461bcd60e51b81526020600482015260176024820152765573657220686173206e6f20616374697665206c6f636b60481b6044820152606401610369565b33600090815260996020526040902060010154811015610a2e5760405162461bcd60e51b815260206004820152601b60248201527f4c6f636b2074696d652063616e206f6e6c7920696e63726561736500000000006044820152606401610369565b42610a3e6201518061016d6117ca565b610a499060046117ca565b610a539190611787565b811115610a725760405162461bcd60e51b815260040161036990611832565b336000818152609960208181526040808420815180830190925280548252600101805482840152938590529190529083905590610aae906103bb565b505050565b609b54600090610ac2906104b1565b905060005b60808110156104775742821161047757609e54600090610ae790846117b7565b609d54610af491906117ca565b609c54610b0191906117b7565b609b8054600181019091557fbba9db4cdbea0a37c207bbb83e20f828cd4441c49891101dc94fd20dc8efc34901819055609c819055609e8490556000848152609f6020526040812054609d80549394509092909190610b619084906117b7565b90915550610b7590506201518060076117ca565b610b7f9084611787565b9250508080610b8d90611877565b915050610ac7565b6000610b9f610ab3565b609b8281548110610bb257610bb261181c565b90600052602060002001549050919050565b6000610bd46201518060076117ca565b610be26201518060076117ca565b610bec90846117e1565b610bf691906117ca565b905042610c076201518060076117ca565b610c129060016117ca565b610c1c9190611787565b811015610c7a5760405162461bcd60e51b815260206004820152602660248201527f4c6f636b74696d6520736d616c6c6572207468616e206d696e696d756d206c6f604482015265636b74696d6560d01b6064820152608401610369565b42610c8a6201518061016d6117ca565b610c959060046117ca565b610c9f9190611787565b811115610cbe5760405162461bcd60e51b815260040161036990611832565b3360009081526099602052604090205415610d275760405162461bcd60e51b815260206004820152602360248201527f5573657220686173206c6f636b2077697468206e6f6e2d7a65726f2062616c616044820152626e636560e81b6064820152608401610369565b33600081815260996020818152604080842081518083019092528054825260018101805483850152959094529190529085905590829055610d67336103bb565b610dc0333086609760009054906101000a90046001600160a01b03166001600160a01b03166315b9ba5d6040518163ffffffff1660e01b8152600401602060405180830381865afa158015610442573d6000803e3d6000fd5b50505050565b600054610100900460ff1615808015610de65750600054600160ff909116105b80610e005750303b158015610e00575060005460ff166001145b610e635760405162461bcd60e51b815260206004820152602e60248201527f496e697469616c697a61626c653a20636f6e747261637420697320616c72656160448201526d191e481a5b9a5d1a585b1a5e995960921b6064820152608401610369565b6000805460ff191660011790558015610e86576000805461ff0019166101001790555b610e8e611417565b609780546001600160a01b0319166001600160a01b038416179055426098819055609b805460018101825560009182527fbba9db4cdbea0a37c207bbb83e20f828cd4441c49891101dc94fd20dc8efc34901819055604080516060810182528281526020810183905201829052609c819055609d55609e558015610477576000805461ff0019169055604051600181527f7f26b83ff96e1f2b6a682f133852f6798a09c465da95921460cefb38474024989060200160405180910390a15050565b610f7360405180606001604052806000815260200160008152602001600081525090565b6001600160a01b0383166000908152609a60205260409020805483908110610f9d57610f9d61181c565b90600052602060002090600302016040518060600160405290816000820154815260200160018201548152602001600282015481525050905092915050565b610fea6201518060076117ca565b6109259060016117ca565b610ffd61136b565b6001600160a01b0381166110625760405162461bcd60e51b815260206004820152602660248201527f4f776e61626c653a206e6577206f776e657220697320746865207a65726f206160448201526564647265737360d01b6064820152608401610369565b6107a0816113c5565b61108f60405180606001604052806000815260200160008152602001600081525090565b6110b360405180606001604052806000815260200160008152602001600081525090565b6110bb610ab3565b4284602001511180156110ce5750835115155b15611122576110e26201518061016d6117ca565b6110ed9060046117ca565b84516110f991906117e1565b6020808401919091528401516111109042906117b7565b826020015161111f91906117ca565b82525b4283602001511180156111355750825115155b1561118f576111496201518061016d6117ca565b6111549060046117ca565b835161116091906117e1565b6020808301919091528301516111779042906117b7565b816020015161118691906117ca565b81524260408201525b81518151609e546111a090426117b7565b609d546111ad91906117ca565b609c546111ba91906117b7565b6111c49190611787565b6111ce91906117b7565b609c55602080830151908201516111e591906117b7565b609d80546000906111f7908490611787565b909155505042609e8190556020850151111561123e578160200151609f600086602001518152602001908152602001600020600082825461123891906117b7565b90915550505b428360200151111561127b578060200151609f60008560200151815260200190815260200160002060008282546112759190611787565b90915550505b6001600160a01b039094166000908152609a6020908152604080832080546001818101835591855293839020885160039095020193845591870151918301919091559490940151600290940193909355505050565b6040516001600160a01b0380851660248301528316604482015260648101829052610dc09085906323b872dd60e01b906084015b60408051601f198184030181529190526020810180516001600160e01b03166001600160e01b031990931692909217909152611446565b6040516001600160a01b038316602482015260448101829052610aae90849063a9059cbb60e01b90606401611304565b6033546001600160a01b0316331461093a5760405162461bcd60e51b815260206004820181905260248201527f4f776e61626c653a2063616c6c6572206973206e6f7420746865206f776e65726044820152606401610369565b603380546001600160a01b038381166001600160a01b0319831681179093556040519116919082907f8be0079c531659141344cd1fd0a4f28419497f9722a3daafe3b4186f6b6457e090600090a35050565b600054610100900460ff1661143e5760405162461bcd60e51b815260040161036990611890565b61093a611518565b600061149b826040518060400160405280602081526020017f5361666545524332303a206c6f772d6c6576656c2063616c6c206661696c6564815250856001600160a01b03166115489092919063ffffffff16565b805190915015610aae57808060200190518101906114b991906118db565b610aae5760405162461bcd60e51b815260206004820152602a60248201527f5361666545524332303a204552433230206f7065726174696f6e20646964206e6044820152691bdd081cdd58d8d9595960b21b6064820152608401610369565b600054610100900460ff1661153f5760405162461bcd60e51b815260040161036990611890565b61093a336113c5565b6060611557848460008561155f565b949350505050565b6060824710156115c05760405162461bcd60e51b815260206004820152602660248201527f416464726573733a20696e73756666696369656e742062616c616e636520666f6044820152651c8818d85b1b60d21b6064820152608401610369565b600080866001600160a01b031685876040516115dc9190611921565b60006040518083038185875af1925050503d8060008114611619576040519150601f19603f3d011682016040523d82523d6000602084013e61161e565b606091505b509150915061162f8783838761163a565b979650505050505050565b606083156116a95782516000036116a2576001600160a01b0385163b6116a25760405162461bcd60e51b815260206004820152601d60248201527f416464726573733a2063616c6c20746f206e6f6e2d636f6e74726163740000006044820152606401610369565b5081611557565b61155783838151156116be5781518083602001fd5b8060405162461bcd60e51b8152600401610369919061193d565b6000602082840312156116ea57600080fd5b5035919050565b6001600160a01b03811681146107a057600080fd5b60006020828403121561171857600080fd5b8135610904816116f1565b6000806040838503121561173657600080fd5b50508035926020909101359150565b6000806040838503121561175857600080fd5b8235611763816116f1565b946020939093013593505050565b634e487b7160e01b600052601160045260246000fd5b808201808211156104f1576104f1611771565b6000602082840312156117ac57600080fd5b8151610904816116f1565b818103818111156104f1576104f1611771565b80820281158282048414176104f1576104f1611771565b6000826117fe57634e487b7160e01b600052601260045260246000fd5b500490565b60006020828403121561181557600080fd5b5051919050565b634e487b7160e01b600052603260045260246000fd5b60208082526025908201527f4c6f636b74696d6520686967686572207468616e206d6178696d756d206c6f636040820152646b74696d6560d81b606082015260800190565b60006001820161188957611889611771565b5060010190565b6020808252602b908201527f496e697469616c697a61626c653a20636f6e7472616374206973206e6f74206960408201526a6e697469616c697a696e6760a81b606082015260800190565b6000602082840312156118ed57600080fd5b8151801515811461090457600080fd5b60005b83811015611918578181015183820152602001611900565b50506000910152565b600082516119338184602087016118fd565b9190910192915050565b602081526000825180602084015261195c8160408501602087016118fd565b601f01601f1916919091016040019291505056fea264697066735822122029c5891e43d900edb72563859a87996a4609a6c724ef8f1559ec7c16b25607ce64736f6c63430008110033",
  "linkReferences": {},
  "deployedLinkReferences": {}
}