{
  "_format": "hh-sol-artifact-1",
  "contractName": "VotingEscrow",
  "sourceName": "contracts/protocol/VotingEscrow.sol",
  "abi": [
    {
      "inputs": [],
      "stateMutability": "nonpayable",
      "type": "constructor"
    },
    {
      "anonymous": false,
      "inputs": [
        {
          "indexed": true,
          "internalType": "address",
          "name": "owner",
          "type": "address"
        },
        {
          "indexed": true,
          "internalType": "address",
          "name": "approved",
          "type": "address"
        },
        {
          "indexed": true,
          "internalType": "uint256",
          "name": "tokenId",
          "type": "uint256"
        }
      ],
      "name": "Approval",
      "type": "event"
    },
    {
      "anonymous": false,
      "inputs": [
        {
          "indexed": true,
          "internalType": "address",
          "name": "owner",
          "type": "address"
        },
        {
          "indexed": true,
          "internalType": "address",
          "name": "operator",
          "type": "address"
        },
        {
          "indexed": false,
          "internalType": "bool",
          "name": "approved",
          "type": "bool"
        }
      ],
      "name": "ApprovalForAll",
      "type": "event"
    },
    {
      "anonymous": false,
      "inputs": [
        {
          "indexed": false,
          "internalType": "uint8",
          "name": "version",
          "type": "uint8"
        }
      ],
      "name": "Initialized",
      "type": "event"
    },
    {
      "anonymous": false,
      "inputs": [
        {
          "indexed": true,
          "internalType": "address",
          "name": "previousOwner",
          "type": "address"
        },
        {
          "indexed": true,
          "internalType": "address",
          "name": "newOwner",
          "type": "address"
        }
      ],
      "name": "OwnershipTransferred",
      "type": "event"
    },
    {
      "anonymous": false,
      "inputs": [
        {
          "indexed": true,
          "internalType": "address",
          "name": "from",
          "type": "address"
        },
        {
          "indexed": true,
          "internalType": "address",
          "name": "to",
          "type": "address"
        },
        {
          "indexed": true,
          "internalType": "uint256",
          "name": "tokenId",
          "type": "uint256"
        }
      ],
      "name": "Transfer",
      "type": "event"
    },
    {
      "inputs": [],
      "name": "EPOCH_PERIOD",
      "outputs": [
        {
          "internalType": "uint256",
          "name": "",
          "type": "uint256"
        }
      ],
      "stateMutability": "view",
      "type": "function"
    },
    {
      "inputs": [],
      "name": "MAXLOCKTIME",
      "outputs": [
        {
          "internalType": "uint256",
          "name": "",
          "type": "uint256"
        }
      ],
      "stateMutability": "view",
      "type": "function"
    },
    {
      "inputs": [],
      "name": "MINLOCKTIME",
      "outputs": [
        {
          "internalType": "uint256",
          "name": "",
          "type": "uint256"
        }
      ],
      "stateMutability": "view",
      "type": "function"
    },
    {
      "inputs": [
        {
          "internalType": "address",
          "name": "to",
          "type": "address"
        },
        {
          "internalType": "uint256",
          "name": "tokenId",
          "type": "uint256"
        }
      ],
      "name": "approve",
      "outputs": [],
      "stateMutability": "nonpayable",
      "type": "function"
    },
    {
      "inputs": [
        {
          "internalType": "address",
          "name": "owner",
          "type": "address"
        }
      ],
      "name": "balanceOf",
      "outputs": [
        {
          "internalType": "uint256",
          "name": "",
          "type": "uint256"
        }
      ],
      "stateMutability": "view",
      "type": "function"
    },
    {
      "inputs": [
        {
          "internalType": "uint256",
          "name": "tokenId",
          "type": "uint256"
        }
      ],
      "name": "claimRebates",
      "outputs": [
        {
          "internalType": "uint256",
          "name": "amountToClaim",
          "type": "uint256"
        }
      ],
      "stateMutability": "nonpayable",
      "type": "function"
    },
    {
      "inputs": [
        {
          "internalType": "uint256[]",
          "name": "tokensIds",
          "type": "uint256[]"
        }
      ],
      "name": "claimRebatesBatch",
      "outputs": [],
      "stateMutability": "nonpayable",
      "type": "function"
    },
    {
      "inputs": [
        {
          "internalType": "address",
          "name": "receiver",
          "type": "address"
        },
        {
          "internalType": "uint256",
          "name": "amount",
          "type": "uint256"
        },
        {
          "internalType": "uint256",
          "name": "unlockTime",
          "type": "uint256"
        }
      ],
      "name": "createLock",
      "outputs": [],
      "stateMutability": "nonpayable",
      "type": "function"
    },
    {
      "inputs": [
        {
          "internalType": "uint256",
          "name": "tokenId",
          "type": "uint256"
        }
      ],
      "name": "getApproved",
      "outputs": [
        {
          "internalType": "address",
          "name": "",
          "type": "address"
        }
      ],
      "stateMutability": "view",
      "type": "function"
    },
    {
      "inputs": [
        {
          "internalType": "uint256",
          "name": "timestamp",
          "type": "uint256"
        }
      ],
      "name": "getEpoch",
      "outputs": [
        {
          "internalType": "uint256",
          "name": "",
          "type": "uint256"
        }
      ],
      "stateMutability": "view",
      "type": "function"
    },
    {
      "inputs": [],
      "name": "getEpochPeriod",
      "outputs": [
        {
          "internalType": "uint256",
          "name": "",
          "type": "uint256"
        }
      ],
      "stateMutability": "pure",
      "type": "function"
    },
    {
      "inputs": [
        {
          "internalType": "uint256",
          "name": "_epoch",
          "type": "uint256"
        }
      ],
      "name": "getEpochTimestamp",
      "outputs": [
        {
          "internalType": "uint256",
          "name": "",
          "type": "uint256"
        }
      ],
      "stateMutability": "view",
      "type": "function"
    },
    {
      "inputs": [
        {
          "internalType": "uint256",
          "name": "tokenId",
          "type": "uint256"
        }
      ],
      "name": "getLock",
      "outputs": [
        {
          "components": [
            {
              "internalType": "uint256",
              "name": "amount",
              "type": "uint256"
            },
            {
              "internalType": "uint256",
              "name": "end",
              "type": "uint256"
            }
          ],
          "internalType": "struct DataTypes.LockedBalance",
          "name": "",
          "type": "tuple"
        }
      ],
      "stateMutability": "view",
      "type": "function"
    },
    {
      "inputs": [
        {
          "internalType": "uint256",
          "name": "tokenId",
          "type": "uint256"
        }
      ],
      "name": "getLockHistoryLength",
      "outputs": [
        {
          "internalType": "uint256",
          "name": "",
          "type": "uint256"
        }
      ],
      "stateMutability": "view",
      "type": "function"
    },
    {
      "inputs": [
        {
          "internalType": "uint256",
          "name": "tokenId",
          "type": "uint256"
        },
        {
          "internalType": "uint256",
          "name": "index",
          "type": "uint256"
        }
      ],
      "name": "getLockHistoryPoint",
      "outputs": [
        {
          "components": [
            {
              "internalType": "uint256",
              "name": "bias",
              "type": "uint256"
            },
            {
              "internalType": "uint256",
              "name": "slope",
              "type": "uint256"
            },
            {
              "internalType": "uint256",
              "name": "timestamp",
              "type": "uint256"
            }
          ],
          "internalType": "struct DataTypes.Point",
          "name": "",
          "type": "tuple"
        }
      ],
      "stateMutability": "view",
      "type": "function"
    },
    {
      "inputs": [
        {
          "internalType": "uint256",
          "name": "tokenId",
          "type": "uint256"
        }
      ],
      "name": "getLockWeight",
      "outputs": [
        {
          "internalType": "uint256",
          "name": "",
          "type": "uint256"
        }
      ],
      "stateMutability": "view",
      "type": "function"
    },
    {
      "inputs": [
        {
          "internalType": "uint256",
          "name": "_epoch",
          "type": "uint256"
        }
      ],
      "name": "getLockedRatioAt",
      "outputs": [
        {
          "internalType": "uint256",
          "name": "",
          "type": "uint256"
        }
      ],
      "stateMutability": "nonpayable",
      "type": "function"
    },
    {
      "inputs": [],
      "name": "getTotalWeight",
      "outputs": [
        {
          "internalType": "uint256",
          "name": "",
          "type": "uint256"
        }
      ],
      "stateMutability": "nonpayable",
      "type": "function"
    },
    {
      "inputs": [
        {
          "internalType": "uint256",
          "name": "_epoch",
          "type": "uint256"
        }
      ],
      "name": "getTotalWeightAt",
      "outputs": [
        {
          "internalType": "uint256",
          "name": "",
          "type": "uint256"
        }
      ],
      "stateMutability": "nonpayable",
      "type": "function"
    },
    {
      "inputs": [
        {
          "internalType": "address",
          "name": "user",
          "type": "address"
        }
      ],
      "name": "getUserWeight",
      "outputs": [
        {
          "internalType": "uint256",
          "name": "weight",
          "type": "uint256"
        }
      ],
      "stateMutability": "view",
      "type": "function"
    },
    {
      "inputs": [
        {
          "internalType": "uint256",
          "name": "tokenId",
          "type": "uint256"
        },
        {
          "internalType": "uint256",
          "name": "amount",
          "type": "uint256"
        }
      ],
      "name": "increaseAmount",
      "outputs": [],
      "stateMutability": "nonpayable",
      "type": "function"
    },
    {
      "inputs": [
        {
          "internalType": "uint256",
          "name": "tokenId",
          "type": "uint256"
        },
        {
          "internalType": "uint256",
          "name": "newUnlockTime",
          "type": "uint256"
        }
      ],
      "name": "increaseUnlockTime",
      "outputs": [],
      "stateMutability": "nonpayable",
      "type": "function"
    },
    {
      "inputs": [
        {
          "internalType": "contract IAddressesProvider",
          "name": "addressProvider",
          "type": "address"
        },
        {
          "internalType": "string",
          "name": "name",
          "type": "string"
        },
        {
          "internalType": "string",
          "name": "symbol",
          "type": "string"
        }
      ],
      "name": "initialize",
      "outputs": [],
      "stateMutability": "nonpayable",
      "type": "function"
    },
    {
      "inputs": [
        {
          "internalType": "address",
          "name": "owner",
          "type": "address"
        },
        {
          "internalType": "address",
          "name": "operator",
          "type": "address"
        }
      ],
      "name": "isApprovedForAll",
      "outputs": [
        {
          "internalType": "bool",
          "name": "",
          "type": "bool"
        }
      ],
      "stateMutability": "view",
      "type": "function"
    },
    {
      "inputs": [],
      "name": "name",
      "outputs": [
        {
          "internalType": "string",
          "name": "",
          "type": "string"
        }
      ],
      "stateMutability": "view",
      "type": "function"
    },
    {
      "inputs": [],
      "name": "owner",
      "outputs": [
        {
          "internalType": "address",
          "name": "",
          "type": "address"
        }
      ],
      "stateMutability": "view",
      "type": "function"
    },
    {
      "inputs": [
        {
          "internalType": "uint256",
          "name": "tokenId",
          "type": "uint256"
        }
      ],
      "name": "ownerOf",
      "outputs": [
        {
          "internalType": "address",
          "name": "",
          "type": "address"
        }
      ],
      "stateMutability": "view",
      "type": "function"
    },
    {
      "inputs": [],
      "name": "renounceOwnership",
      "outputs": [],
      "stateMutability": "nonpayable",
      "type": "function"
    },
    {
      "inputs": [
        {
          "internalType": "address",
          "name": "from",
          "type": "address"
        },
        {
          "internalType": "address",
          "name": "to",
          "type": "address"
        },
        {
          "internalType": "uint256",
          "name": "tokenId",
          "type": "uint256"
        }
      ],
      "name": "safeTransferFrom",
      "outputs": [],
      "stateMutability": "nonpayable",
      "type": "function"
    },
    {
      "inputs": [
        {
          "internalType": "address",
          "name": "from",
          "type": "address"
        },
        {
          "internalType": "address",
          "name": "to",
          "type": "address"
        },
        {
          "internalType": "uint256",
          "name": "tokenId",
          "type": "uint256"
        },
        {
          "internalType": "bytes",
          "name": "data",
          "type": "bytes"
        }
      ],
      "name": "safeTransferFrom",
      "outputs": [],
      "stateMutability": "nonpayable",
      "type": "function"
    },
    {
      "inputs": [
        {
          "internalType": "address",
          "name": "operator",
          "type": "address"
        },
        {
          "internalType": "bool",
          "name": "approved",
          "type": "bool"
        }
      ],
      "name": "setApprovalForAll",
      "outputs": [],
      "stateMutability": "nonpayable",
      "type": "function"
    },
    {
      "inputs": [
        {
          "internalType": "uint256",
          "name": "amount",
          "type": "uint256"
        },
        {
          "internalType": "uint256",
          "name": "end",
          "type": "uint256"
        }
      ],
      "name": "simulateLock",
      "outputs": [
        {
          "internalType": "uint256",
          "name": "",
          "type": "uint256"
        }
      ],
      "stateMutability": "view",
      "type": "function"
    },
    {
      "inputs": [
        {
          "internalType": "bytes4",
          "name": "interfaceId",
          "type": "bytes4"
        }
      ],
      "name": "supportsInterface",
      "outputs": [
        {
          "internalType": "bool",
          "name": "",
          "type": "bool"
        }
      ],
      "stateMutability": "view",
      "type": "function"
    },
    {
      "inputs": [
        {
          "internalType": "uint256",
          "name": "tokenId",
          "type": "uint256"
        }
      ],
      "name": "svg",
      "outputs": [
        {
          "internalType": "bytes",
          "name": "",
          "type": "bytes"
        }
      ],
      "stateMutability": "view",
      "type": "function"
    },
    {
      "inputs": [],
      "name": "symbol",
      "outputs": [
        {
          "internalType": "string",
          "name": "",
          "type": "string"
        }
      ],
      "stateMutability": "view",
      "type": "function"
    },
    {
      "inputs": [
        {
          "internalType": "uint256",
          "name": "index",
          "type": "uint256"
        }
      ],
      "name": "tokenByIndex",
      "outputs": [
        {
          "internalType": "uint256",
          "name": "",
          "type": "uint256"
        }
      ],
      "stateMutability": "view",
      "type": "function"
    },
    {
      "inputs": [
        {
          "internalType": "address",
          "name": "owner",
          "type": "address"
        },
        {
          "internalType": "uint256",
          "name": "index",
          "type": "uint256"
        }
      ],
      "name": "tokenOfOwnerByIndex",
      "outputs": [
        {
          "internalType": "uint256",
          "name": "",
          "type": "uint256"
        }
      ],
      "stateMutability": "view",
      "type": "function"
    },
    {
      "inputs": [
        {
          "internalType": "uint256",
          "name": "tokenId",
          "type": "uint256"
        }
      ],
      "name": "tokenURI",
      "outputs": [
        {
          "internalType": "string",
          "name": "",
          "type": "string"
        }
      ],
      "stateMutability": "view",
      "type": "function"
    },
    {
      "inputs": [],
      "name": "totalSupply",
      "outputs": [
        {
          "internalType": "uint256",
          "name": "",
          "type": "uint256"
        }
      ],
      "stateMutability": "view",
      "type": "function"
    },
    {
      "inputs": [
        {
          "internalType": "address",
          "name": "from",
          "type": "address"
        },
        {
          "internalType": "address",
          "name": "to",
          "type": "address"
        },
        {
          "internalType": "uint256",
          "name": "tokenId",
          "type": "uint256"
        }
      ],
      "name": "transferFrom",
      "outputs": [],
      "stateMutability": "nonpayable",
      "type": "function"
    },
    {
      "inputs": [
        {
          "internalType": "address",
          "name": "newOwner",
          "type": "address"
        }
      ],
      "name": "transferOwnership",
      "outputs": [],
      "stateMutability": "nonpayable",
      "type": "function"
    },
    {
      "inputs": [
        {
          "internalType": "uint256",
          "name": "tokenId",
          "type": "uint256"
        }
      ],
      "name": "withdraw",
      "outputs": [],
      "stateMutability": "nonpayable",
      "type": "function"
    },
    {
      "inputs": [],
      "name": "writeTotalWeightHistory",
      "outputs": [],
      "stateMutability": "nonpayable",
      "type": "function"
    }
  ],
  "bytecode": "0x60806040523480156200001157600080fd5b506200001c62000022565b620000e4565b600054610100900460ff16156200008f5760405162461bcd60e51b815260206004820152602760248201527f496e697469616c697a61626c653a20636f6e747261637420697320696e697469604482015266616c697a696e6760c81b606482015260840160405180910390fd5b60005460ff9081161015620000e2576000805460ff191660ff9081179091556040519081527f7f26b83ff96e1f2b6a682f133852f6798a09c465da95921460cefb38474024989060200160405180910390a15b565b6144ab80620000f46000396000f3fe608060405234801561001057600080fd5b50600436106102695760003560e01c806387da75ef11610151578063b291824f116100c3578063c925c68011610087578063c925c68014610543578063d68f4dd114610556578063d897658614610584578063dfb1a4d21461058e578063e985e9c514610596578063f2fde38b146105d257600080fd5b8063b291824f146104e4578063b88d4fde146104f7578063bc0bc6ba1461050a578063c489cef31461051d578063c87b56dd1461053057600080fd5b80639c511ad4116101155780639c511ad41461047c5780639d507b8b14610485578063a22cb46514610498578063acb4cbdd146104ab578063b2383e55146104be578063b263bb3b146104d157600080fd5b806387da75ef146104355780638da5cb5b1461043d578063906571471461044e57806395d89b4114610461578063980ae9fd1461046957600080fd5b806344b285db116101ea57806364a1b95b116101ae57806364a1b95b146103b4578063650e1505146103e957806370a08231146103fc57806370be21911461040f578063715018a61461041a57806386b749d61461042257600080fd5b806344b285db146103555780634ba4146c146103685780634f6ccce71461037b57806350735f6f1461038e5780636352211e146103a157600080fd5b806318160ddd1161023157806318160ddd1461030157806323b872dd146103095780632e1a7d4d1461031c5780632f745c591461032f57806342842e0e1461034257600080fd5b806301ffc9a71461026e57806306aba0e11461029657806306fdde03146102ac578063081812fc146102c1578063095ea7b3146102ec575b600080fd5b61028161027c3660046137bf565b6105e5565b60405190151581526020015b60405180910390f35b61029e610605565b60405190815260200161028d565b6102b461063e565b60405161028d919061382c565b6102d46102cf36600461383f565b6106d0565b6040516001600160a01b03909116815260200161028d565b6102ff6102fa36600461386d565b6106f7565b005b60995461029e565b6102ff610317366004613899565b610811565b6102ff61032a36600461383f565b610842565b61029e61033d36600461386d565b610b1d565b6102ff610350366004613899565b610bb3565b6102b461036336600461383f565b610bce565b61029e6103763660046138da565b610c25565b61029e61038936600461383f565b610d1e565b61029e61039c36600461383f565b610db1565b6102d46103af36600461383f565b610dec565b6103c76103c23660046138da565b610e4c565b604080518251815260208084015190820152918101519082015260600161028d565b6102ff6103f73660046138fc565b610f32565b61029e61040a366004613931565b611183565b61029e630784ce0081565b6102ff611209565b61029e61043036600461383f565b61121d565b6102ff61123e565b60c9546001600160a01b03166102d4565b6102ff61045c366004613997565b6114f4565b6102b4611780565b6102ff610477366004613a1a565b61178f565b61029e61546081565b6102ff6104933660046138da565b6117ce565b6102ff6104a6366004613a9d565b611939565b61029e6104b936600461383f565b611944565b6102ff6104cc3660046138da565b611cda565b61029e6104df36600461383f565b611d97565b61029e6104f236600461383f565b611e36565b6102ff610505366004613aec565b611e61565b61029e61051836600461383f565b611e93565b61029e61052b36600461383f565b611f06565b6102b461053e36600461383f565b611fc6565b61029e610551366004613931565b61208a565b61056961056436600461383f565b6120d5565b6040805182518152602092830151928101929092520161028d565b61029e6212750081565b61546061029e565b6102816105a4366004613bcc565b6001600160a01b039182166000908152606a6020908152604080832093909416825291909152205460ff1690565b6102ff6105e0366004613931565b61211f565b60006105f082612198565b806105ff57506105ff826121bd565b92915050565b600061060f61123e565b6101375461061d9042613c10565b6101365461062b9190613c23565b610135546106399190613c10565b905090565b60606065805461064d90613c3a565b80601f016020809104026020016040519081016040528092919081815260200182805461067990613c3a565b80156106c65780601f1061069b576101008083540402835291602001916106c6565b820191906000526020600020905b8154815290600101906020018083116106a957829003601f168201915b5050505050905090565b60006106db826121d3565b506000908152606960205260409020546001600160a01b031690565b600061070282610dec565b9050806001600160a01b0316836001600160a01b0316036107745760405162461bcd60e51b815260206004820152602160248201527f4552433732313a20617070726f76616c20746f2063757272656e74206f776e656044820152603960f91b60648201526084015b60405180910390fd5b336001600160a01b0382161480610790575061079081336105a4565b6108025760405162461bcd60e51b815260206004820152603d60248201527f4552433732313a20617070726f76652063616c6c6572206973206e6f7420746f60448201527f6b656e206f776e6572206f7220617070726f76656420666f7220616c6c000000606482015260840161076b565b61080c8383612232565b505050565b61081b33826122a0565b6108375760405162461bcd60e51b815260040161076b90613c6e565b61080c83838361231e565b8061084c8161248f565b81610856816124e7565b600083815261012f60205260409020546108a65760405162461bcd60e51b815260206004820152601160248201527056453a573a5a45524f5f42414c414e434560781b604482015260640161076b565b600083815261012f602052604090206001015442116108ff5760405162461bcd60e51b815260206004820152601560248201527415914e95ce9313d0d2d7d393d517d1561412549151605a1b604482015260640161076b565b61012d60009054906101000a90046001600160a01b03166001600160a01b03166358de9ade6040518163ffffffff1660e01b8152600401602060405180830381865afa158015610953573d6000803e3d6000fd5b505050506040513d601f19601f820116820180604052508101906109779190613cbb565b6001600160a01b031663bebb4171846040518263ffffffff1660e01b81526004016109a491815260200190565b602060405180830381865afa1580156109c1573d6000803e3d6000fd5b505050506040513d601f19601f820116820180604052508101906109e59190613cd8565b15610a2a5760405162461bcd60e51b815260206004820152601560248201527456453a573a4841535f4143544956455f564f54455360581b604482015260640161076b565b610a3383611944565b50600083815261012f60208181526040808420815180830183528154815260018201805482860152898752948452908590559284905580518082019091528381529081019290925290610a899085908390612536565b610b0e33825161012d54604080516315b9ba5d60e01b815290516001600160a01b03909216916315b9ba5d916004808201926020929091908290030181865afa158015610ada573d6000803e3d6000fd5b505050506040513d601f19601f82011682018060405250810190610afe9190613cbb565b6001600160a01b03169190612766565b610b17846127c9565b50505050565b6000610b2883611183565b8210610b8a5760405162461bcd60e51b815260206004820152602b60248201527f455243373231456e756d657261626c653a206f776e657220696e646578206f7560448201526a74206f6620626f756e647360a81b606482015260840161076b565b506001600160a01b03919091166000908152609760209081526040808320938352929052205490565b61080c83838360405180602001604052806000815250611e61565b606081610bda8161248f565b610be38361286c565b600084815261012f6020526040902054610bfc9061286c565b604051602001610c0d929190613d0d565b60405160208183030381529060405291505b50919050565b600080615460610c358185613ede565b610c3f9190613c23565b9050610c4e4262127500613f00565b811015610c965760405162461bcd60e51b815260206004820152601660248201527556453a534c3a4c4f434b54494d455f544f4f5f4c4f5760501b604482015260640161076b565b610ca442630784ce00613f00565b811115610cf35760405162461bcd60e51b815260206004820152601760248201527f56453a534c3a4c4f434b54494d455f544f4f5f48494748000000000000000000604482015260640161076b565b630784ce00610d024283613c10565b610d0c9086613c23565b610d169190613ede565b949350505050565b6000610d2960995490565b8210610d8c5760405162461bcd60e51b815260206004820152602c60248201527f455243373231456e756d657261626c653a20676c6f62616c20696e646578206f60448201526b7574206f6620626f756e647360a01b606482015260840161076b565b60998281548110610d9f57610d9f613f13565b90600052602060002001549050919050565b600081610dbd816128ff565b610dc561123e565b6101328381548110610dd957610dd9613f13565b9060005260206000200154915050919050565b6000818152606760205260408120546001600160a01b0316806105ff5760405162461bcd60e51b8152602060048201526018602482015277115490cdcc8c4e881a5b9d985b1a59081d1bdad95b88125160421b604482015260640161076b565b610e7060405180606001604052806000815260200160008152602001600081525090565b82610e7a8161248f565b600084815261013160205260409020548310610ed15760405162461bcd60e51b81526020600482015260166024820152750ac8a748e9890a074929c888ab0bea89e9ebe90928e960531b604482015260640161076b565b600084815261013160205260409020805484908110610ef257610ef2613f13565b9060005260206000209060030201604051806060016040529081600082015481526020016001820154815260200160028201548152505091505092915050565b610f3a612949565b6000615460610f498184613ede565b610f539190613c23565b905060008311610f995760405162461bcd60e51b815260206004820152601160248201527056453a434c3a414d4f554e545f5a45524f60781b604482015260640161076b565b610fa64262127500613f00565b811015610fee5760405162461bcd60e51b815260206004820152601660248201527556453a434c3a4c4f434b54494d455f544f4f5f4c4f5760501b604482015260640161076b565b610ffc42630784ce00613f00565b81111561104b5760405162461bcd60e51b815260206004820152601760248201527f56453a434c3a4c4f434b54494d455f544f4f5f48494748000000000000000000604482015260640161076b565b60006110576101395490565b905061106385826129a2565b61107261013980546001019055565b61107b42611e93565b611086906001613f00565b6000828152610130602090815260408083209390935561012f808252838320845180860186528154815260018201805482860152948790529183528890559185905582518084019093528683528201849052906110e69083908390612536565b611176335b308761012d60009054906101000a90046001600160a01b03166001600160a01b03166315b9ba5d6040518163ffffffff1660e01b8152600401602060405180830381865afa158015611141573d6000803e3d6000fd5b505050506040513d601f19601f820116820180604052508101906111659190613cbb565b6001600160a01b03169291906129bc565b50505061080c600160fb55565b60006001600160a01b0382166111ed5760405162461bcd60e51b815260206004820152602960248201527f4552433732313a2061646472657373207a65726f206973206e6f7420612076616044820152683634b21037bbb732b960b91b606482015260840161076b565b506001600160a01b031660009081526068602052604090205490565b6112116129fb565b61121b6000612a55565b565b6000816112298161248f565b50506000908152610131602052604090205490565b6101325460009061124e90611e36565b905060005b60808110156114f0574282116114f057610137546000906112749084613c10565b610136546112829190613c23565b610135546112909190613c10565b6101328054600181019091557fc53bdfd4aa1ab65dfdaf681ca6bda958ae4a123d4ed68c4277796592280e78350181905561013581905561013784905560008481526101386020526040812054610136805493945090929091906112f5908490613c10565b909155505061012d54604080516315b9ba5d60e01b81529051610134926001600160a01b0316916315b9ba5d9160048083019260209291908290030181865afa158015611346573d6000803e3d6000fd5b505050506040513d601f19601f8201168201806040525081019061136a9190613cbb565b6040516370a0823160e01b81523060048201526001600160a01b0391909116906370a0823190602401602060405180830381865afa1580156113b0573d6000803e3d6000fd5b505050506040513d601f19601f820116820180604052508101906113d49190613cd8565b81546001810183556000928352602092839020015561012d54604080516315b9ba5d60e01b81529051610133936001600160a01b03909316926315b9ba5d92600480820193918290030181865afa158015611433573d6000803e3d6000fd5b505050506040513d601f19601f820116820180604052508101906114579190613cbb565b6001600160a01b03166318160ddd6040518163ffffffff1660e01b8152600401602060405180830381865afa158015611494573d6000803e3d6000fd5b505050506040513d601f19601f820116820180604052508101906114b89190613cd8565b815460018101835560009283526020909220909101556114da61546084613f00565b92505080806114e890613f29565b915050611253565b5050565b600054610100900460ff16158080156115145750600054600160ff909116105b8061152e5750303b15801561152e575060005460ff166001145b6115915760405162461bcd60e51b815260206004820152602e60248201527f496e697469616c697a61626c653a20636f6e747261637420697320616c72656160448201526d191e481a5b9a5d1a585b1a5e995960921b606482015260840161076b565b6000805460ff1916600117905580156115b4576000805461ff0019166101001790555b61162785858080601f01602080910402602001604051908101604052809392919081815260200183838082843760009201919091525050604080516020601f89018190048102820181019092528781529250879150869081908401838280828437600092019190915250612aa792505050565b61162f612ad8565b611637612ad8565b61163f612ad8565b611647612aff565b61164f612b2e565b61012d80546001600160a01b0319166001600160a01b0388161790554261012e8190556101328054600181810190925560007fc53bdfd4aa1ab65dfdaf681ca6bda958ae4a123d4ed68c4277796592280e78359091018190556040805160608101825282815260208101839052018390526101358190556101368190556101379290925561013380548083019091557f92e985329fb94cc1b424ebb0f7f2929b6d27383ca94c0ec71c44fb48bdf96d2c018290556101348054918201815582527fe1c588fe1269da19c317f679b04e226f5e48296f9b2c8351127eb010907c472f01558015611778576000805461ff0019169055604051600181527f7f26b83ff96e1f2b6a682f133852f6798a09c465da95921460cefb38474024989060200160405180910390a15b505050505050565b60606066805461064d90613c3a565b60005b8181101561080c576117bb8383838181106117af576117af613f13565b90506020020135611944565b50806117c681613f29565b915050611792565b6117d6612949565b816117e08161248f565b826117ea816124e7565b836117f481612b5d565b60006154606118038187613ede565b61180d9190613c23565b600087815261012f602052604090206001015490915081116118715760405162461bcd60e51b815260206004820152601960248201527f56453a4955543a54494d455f4e4f545f494e4352454153454400000000000000604482015260640161076b565b61187f42630784ce00613f00565b8111156118ce5760405162461bcd60e51b815260206004820152601860248201527f56453a4955543a4c4f434b54494d455f544f4f5f484947480000000000000000604482015260640161076b565b6118d786611944565b50600086815261012f602081815260408084208151808301835281548082526001909201805482860152958c905293835293859055805180820190915292835282018390529061192a9088908390612536565b50505050506114f0600160fb55565b6114f0338383612bb0565b6000816119508161248f565b8261195a816124e7565b61196261123e565b600080600061197042611e93565b905060005b6032811015611be15760008881526101306020526040902054925081831015806119b85750600088815261012f60205260409020600101546119b684611e36565b115b611be157600061013384815481106119d2576119d2613f13565b90600052602060002001541115611bae5761013383815481106119f7576119f7613f13565b906000526020600020015461012d60009054906101000a90046001600160a01b03166001600160a01b03166358de9ade6040518163ffffffff1660e01b8152600401602060405180830381865afa158015611a56573d6000803e3d6000fd5b505050506040513d601f19601f82011682018060405250810190611a7a9190613cbb565b6001600160a01b0316635f0c0f2b856040518263ffffffff1660e01b8152600401611aa791815260200190565b6020604051808303816000875af1158015611ac6573d6000803e3d6000fd5b505050506040513d601f19601f82011682018060405250810190611aea9190613cd8565b6101348581548110611afe57611afe613f13565b9060005260206000200154611b139190613c23565b611b1d9190613ede565b9350630784ce006101348481548110611b3857611b38613f13565b9060005260206000200154611b4d9190613c23565b611b5684611e36565b60008a815261012f6020526040902060010154611b739190613c10565b60008a815261012f6020526040902054611b8d9087613c23565b611b979190613c23565b611ba19190613ede565b611bab9088613f00565b96505b600088815261013060205260408120805491611bc983613f29565b91905055508080611bd990613f29565b915050611975565b508515611cd05761012d60009054906101000a90046001600160a01b03166001600160a01b03166315b9ba5d6040518163ffffffff1660e01b8152600401602060405180830381865afa158015611c3c573d6000803e3d6000fd5b505050506040513d601f19601f82011682018060405250810190611c609190613cbb565b6001600160a01b031663aa6e24ba336040516001600160e01b031960e084901b1681526001600160a01b03909116600482015260248101899052604401600060405180830381600087803b158015611cb757600080fd5b505af1158015611ccb573d6000803e3d6000fd5b505050505b5050505050919050565b611ce2612949565b81611cec8161248f565b82611cf6816124e7565b83611d0081612b5d565b611d0985611944565b50600085815261012f60208181526040808420815180830190925280548083526001820154838501528a865293909252928792611d47908490613f00565b9091555050600086815261012f60209081526040918290208251808401909352805483526001015490820152611d809087908390612536565b611d89336110eb565b505050506114f0600160fb55565b600081611da3816128ff565b611dab61123e565b6101338381548110611dbf57611dbf613f13565b9060005260206000200154600003611dda5760009150610c1f565b6101338381548110611dee57611dee613f13565b90600052602060002001546127106101348581548110611e1057611e10613f13565b9060005260206000200154611e259190613c23565b611e2f9190613ede565b9392505050565b60006154608261546061012e54611e4d9190613ede565b611e579190613f00565b6105ff9190613c23565b611e6b33836122a0565b611e875760405162461bcd60e51b815260040161076b90613c6e565b610b1784848484612c7e565b600061012e548211611edf5760405162461bcd60e51b8152602060048201526015602482015274056453a453a4655545552455f54494d455354414d5605c1b604482015260640161076b565b61546061012e54611ef09190613ede565b611efc61546084613ede565b6105ff9190613c10565b600081611f128161248f565b600083815261012f6020526040902060010154421115611f355760009150610c1f565b6000838152610131602052604081208054611f5290600190613c10565b81548110611f6257611f62613f13565b906000526020600020906003020160405180606001604052908160008201548152602001600182015481526020016002820154815250509050806040015142611fab9190613c10565b8160200151611fba9190613c23565b8151610d169190613c10565b606081611fd28161248f565b61207a611fde8461286c565b611fef611fea86610bce565b612cb1565b600086815261012f602052604090206001015461200b9061286c565b61201c61201788611f06565b61286c565b600088815261012f60205260409020546120359061286c565b60405160200161204793929190613f42565b60408051601f1981840301815290829052612066939291602001614040565b604051602081830303815290604052612cb1565b604051602001610c0d9190614169565b60008061209683611183565b905060005b818110156120ce576120b061052b8583610b1d565b6120ba9084613f00565b9250806120c681613f29565b91505061209b565b5050919050565b6040805180820190915260008082526020820152816120f38161248f565b5050600090815261012f6020908152604091829020825180840190935280548352600101549082015290565b6121276129fb565b6001600160a01b03811661218c5760405162461bcd60e51b815260206004820152602660248201527f4f776e61626c653a206e6577206f776e657220697320746865207a65726f206160448201526564647265737360d01b606482015260840161076b565b61219581612a55565b50565b60006001600160e01b0319821663780e9d6360e01b14806105ff57506105ff82612e04565b6001600160e01b0319166301ffc9a760e01b1490565b6000818152606760205260409020546001600160a01b03166121955760405162461bcd60e51b8152602060048201526018602482015277115490cdcc8c4e881a5b9d985b1a59081d1bdad95b88125160421b604482015260640161076b565b600081815260696020526040902080546001600160a01b0319166001600160a01b038416908117909155819061226782610dec565b6001600160a01b03167f8c5be1e5ebec7d5bd14f71427d1e84f3dd0314c0f7b2291e5b200ac8c7c3b92560405160405180910390a45050565b6000806122ac83610dec565b9050806001600160a01b0316846001600160a01b031614806122f357506001600160a01b038082166000908152606a602090815260408083209388168352929052205460ff165b80610d165750836001600160a01b031661230c846106d0565b6001600160a01b031614949350505050565b826001600160a01b031661233182610dec565b6001600160a01b0316146123575760405162461bcd60e51b815260040161076b906141ae565b6001600160a01b0382166123b95760405162461bcd60e51b8152602060048201526024808201527f4552433732313a207472616e7366657220746f20746865207a65726f206164646044820152637265737360e01b606482015260840161076b565b6123c68383836001612e43565b826001600160a01b03166123d982610dec565b6001600160a01b0316146123ff5760405162461bcd60e51b815260040161076b906141ae565b600081815260696020908152604080832080546001600160a01b03199081169091556001600160a01b0387811680865260688552838620805460001901905590871680865283862080546001019055868652606790945282852080549092168417909155905184937fddf252ad1be2c89b69c2b068fc378daa952ba7f163c4a11628f55a4df523b3ef91a4505050565b6000818152606760205260409020546001600160a01b03166121955760405162461bcd60e51b815260206004820152601160248201527015914e9313d0d2d7d393d517d193d55391607a1b604482015260640161076b565b336124f182610dec565b6001600160a01b0316146121955760405162461bcd60e51b815260206004820152600c60248201526b2b229d2727aa2fa7aba722a960a11b604482015260640161076b565b61255a60405180606001604052806000815260200160008152602001600081525090565b61257e60405180606001604052806000815260200160008152602001600081525090565b61258661123e565b4284602001511180156125995750835115155b156125d85783516125af90630784ce0090613ede565b6020808401919091528401516125c6904290613c10565b82602001516125d59190613c23565b82525b4283602001511180156125eb5750825115155b1561263057825161260190630784ce0090613ede565b602080830191909152830151612618904290613c10565b81602001516126279190613c23565b81524260408201525b81518151610137546126429042613c10565b610136546126509190613c23565b6101355461265e9190613c10565b6126689190613f00565b6126729190613c10565b61013555602080830151908201516101365461268e9190613f00565b6126989190613c10565b6101365542610137819055602085015111156126e057816020015161013860008660200151815260200190815260200160002060008282546126da9190613c10565b90915550505b428360200151111561271e57806020015161013860008560200151815260200190815260200160002060008282546127189190613f00565b90915550505b60009485526101316020908152604080872080546001818101835591895297839020845160039099020197885591830151918701919091550151600290940193909355505050565b6040516001600160a01b03831660248201526044810182905261080c90849063a9059cbb60e01b906064015b60408051601f198184030181529190526020810180516001600160e01b03166001600160e01b031990931692909217909152612e4f565b60006127d482610dec565b90506127e4816000846001612e43565b6127ed82610dec565b600083815260696020908152604080832080546001600160a01b03199081169091556001600160a01b0385168085526068845282852080546000190190558785526067909352818420805490911690555192935084927fddf252ad1be2c89b69c2b068fc378daa952ba7f163c4a11628f55a4df523b3ef908390a45050565b6060600061287983612f21565b600101905060008167ffffffffffffffff81111561289957612899613ad6565b6040519080825280601f01601f1916602001820160405280156128c3576020820181803683370190505b5090508181016020015b600019016f181899199a1a9b1b9c1cb0b131b232b360811b600a86061a8153600a85049450846128cd57509392505050565b61290842611e93565b8111156121955760405162461bcd60e51b815260206004820152600f60248201526e0ac8a748caaa8aaa48abe8aa09e869608b1b604482015260640161076b565b600260fb540361299b5760405162461bcd60e51b815260206004820152601f60248201527f5265656e7472616e637947756172643a207265656e7472616e742063616c6c00604482015260640161076b565b600260fb55565b6114f0828260405180602001604052806000815250612ff9565b6040516001600160a01b0380851660248301528316604482015260648101829052610b179085906323b872dd60e01b90608401612792565b600160fb55565b60c9546001600160a01b0316331461121b5760405162461bcd60e51b815260206004820181905260248201527f4f776e61626c653a2063616c6c6572206973206e6f7420746865206f776e6572604482015260640161076b565b60c980546001600160a01b038381166001600160a01b0319831681179093556040519116919082907f8be0079c531659141344cd1fd0a4f28419497f9722a3daafe3b4186f6b6457e090600090a35050565b600054610100900460ff16612ace5760405162461bcd60e51b815260040161076b906141f3565b6114f0828261302c565b600054610100900460ff1661121b5760405162461bcd60e51b815260040161076b906141f3565b600054610100900460ff16612b265760405162461bcd60e51b815260040161076b906141f3565b61121b61306c565b600054610100900460ff16612b555760405162461bcd60e51b815260040161076b906141f3565b61121b61309c565b600081815261012f602052604090206001015442106121955760405162461bcd60e51b815260206004820152600f60248201526e15914e9313d0d2d7d1561412549151608a1b604482015260640161076b565b816001600160a01b0316836001600160a01b031603612c115760405162461bcd60e51b815260206004820152601960248201527f4552433732313a20617070726f766520746f2063616c6c657200000000000000604482015260640161076b565b6001600160a01b038381166000818152606a6020908152604080832094871680845294825291829020805460ff191686151590811790915591519182527f17307eab39ab6107e8899845ad3d59bd9653f200f220920489ca2b5937696c31910160405180910390a3505050565b612c8984848461231e565b612c95848484846130c3565b610b175760405162461bcd60e51b815260040161076b9061423e565b60608151600003612cd057505060408051602081019091526000815290565b60006040518060600160405280604081526020016144366040913990506000600384516002612cff9190613f00565b612d099190613ede565b612d14906004613c23565b67ffffffffffffffff811115612d2c57612d2c613ad6565b6040519080825280601f01601f191660200182016040528015612d56576020820181803683370190505b509050600182016020820185865187015b80821015612dc2576003820191508151603f8160121c168501518453600184019350603f81600c1c168501518453600184019350603f8160061c168501518453600184019350603f8116850151845350600183019250612d67565b5050600386510660018114612dde5760028114612df157612df9565b603d6001830353603d6002830353612df9565b603d60018303535b509195945050505050565b60006001600160e01b031982166380ac58cd60e01b14806105f057506001600160e01b03198216635b5e139f60e01b14806105ff57506105ff826121bd565b610b17848484846131c4565b6000612ea4826040518060400160405280602081526020017f5361666545524332303a206c6f772d6c6576656c2063616c6c206661696c6564815250856001600160a01b03166132f89092919063ffffffff16565b80519091501561080c5780806020019051810190612ec29190614290565b61080c5760405162461bcd60e51b815260206004820152602a60248201527f5361666545524332303a204552433230206f7065726174696f6e20646964206e6044820152691bdd081cdd58d8d9595960b21b606482015260840161076b565b60008072184f03e93ff9f4daa797ed6e38ed64bf6a1f0160401b8310612f605772184f03e93ff9f4daa797ed6e38ed64bf6a1f0160401b830492506040015b6d04ee2d6d415b85acef81000000008310612f8c576d04ee2d6d415b85acef8100000000830492506020015b662386f26fc100008310612faa57662386f26fc10000830492506010015b6305f5e1008310612fc2576305f5e100830492506008015b6127108310612fd657612710830492506004015b60648310612fe8576064830492506002015b600a83106105ff5760010192915050565b6130038383613307565b61301060008484846130c3565b61080c5760405162461bcd60e51b815260040161076b9061423e565b600054610100900460ff166130535760405162461bcd60e51b815260040161076b906141f3565b606561305f83826142f3565b50606661080c82826142f3565b600054610100900460ff166130935760405162461bcd60e51b815260040161076b906141f3565b61121b33612a55565b600054610100900460ff166129f45760405162461bcd60e51b815260040161076b906141f3565b60006001600160a01b0384163b156131b957604051630a85bd0160e11b81526001600160a01b0385169063150b7a02906131079033908990889088906004016143b3565b6020604051808303816000875af1925050508015613142575060408051601f3d908101601f1916820190925261313f918101906143e6565b60015b61319f573d808015613170576040519150601f19603f3d011682016040523d82523d6000602084013e613175565b606091505b5080516000036131975760405162461bcd60e51b815260040161076b9061423e565b805181602001fd5b6001600160e01b031916630a85bd0160e11b149050610d16565b506001949350505050565b60018111156132335760405162461bcd60e51b815260206004820152603560248201527f455243373231456e756d657261626c653a20636f6e7365637574697665207472604482015274185b9cd9995c9cc81b9bdd081cdd5c1c1bdc9d1959605a1b606482015260840161076b565b816001600160a01b03851661328f5761328a81609980546000838152609a60205260408120829055600182018355919091527f72a152ddfb8e864297c917af52ea6c1c68aead0fee1a62673fcc7e0c94979d000155565b6132b2565b836001600160a01b0316856001600160a01b0316146132b2576132b285826134a0565b6001600160a01b0384166132ce576132c98161353d565b6132f1565b846001600160a01b0316846001600160a01b0316146132f1576132f184826135ec565b5050505050565b6060610d168484600085613630565b6001600160a01b03821661335d5760405162461bcd60e51b815260206004820181905260248201527f4552433732313a206d696e7420746f20746865207a65726f2061646472657373604482015260640161076b565b6000818152606760205260409020546001600160a01b0316156133c25760405162461bcd60e51b815260206004820152601c60248201527f4552433732313a20746f6b656e20616c7265616479206d696e74656400000000604482015260640161076b565b6133d0600083836001612e43565b6000818152606760205260409020546001600160a01b0316156134355760405162461bcd60e51b815260206004820152601c60248201527f4552433732313a20746f6b656e20616c7265616479206d696e74656400000000604482015260640161076b565b6001600160a01b038216600081815260686020908152604080832080546001019055848352606790915280822080546001600160a01b0319168417905551839291907fddf252ad1be2c89b69c2b068fc378daa952ba7f163c4a11628f55a4df523b3ef908290a45050565b600060016134ad84611183565b6134b79190613c10565b60008381526098602052604090205490915080821461350a576001600160a01b03841660009081526097602090815260408083208584528252808320548484528184208190558352609890915290208190555b5060009182526098602090815260408084208490556001600160a01b039094168352609781528383209183525290812055565b60995460009061354f90600190613c10565b6000838152609a60205260408120546099805493945090928490811061357757613577613f13565b90600052602060002001549050806099838154811061359857613598613f13565b6000918252602080832090910192909255828152609a909152604080822084905585825281205560998054806135d0576135d0614403565b6001900381819060005260206000200160009055905550505050565b60006135f783611183565b6001600160a01b039093166000908152609760209081526040808320868452825280832085905593825260989052919091209190915550565b6060824710156136915760405162461bcd60e51b815260206004820152602660248201527f416464726573733a20696e73756666696369656e742062616c616e636520666f6044820152651c8818d85b1b60d21b606482015260840161076b565b600080866001600160a01b031685876040516136ad9190614419565b60006040518083038185875af1925050503d80600081146136ea576040519150601f19603f3d011682016040523d82523d6000602084013e6136ef565b606091505b50915091506137008783838761370b565b979650505050505050565b6060831561377a578251600003613773576001600160a01b0385163b6137735760405162461bcd60e51b815260206004820152601d60248201527f416464726573733a2063616c6c20746f206e6f6e2d636f6e7472616374000000604482015260640161076b565b5081610d16565b610d16838381511561378f5781518083602001fd5b8060405162461bcd60e51b815260040161076b919061382c565b6001600160e01b03198116811461219557600080fd5b6000602082840312156137d157600080fd5b8135611e2f816137a9565b60005b838110156137f75781810151838201526020016137df565b50506000910152565b600081518084526138188160208601602086016137dc565b601f01601f19169290920160200192915050565b602081526000611e2f6020830184613800565b60006020828403121561385157600080fd5b5035919050565b6001600160a01b038116811461219557600080fd5b6000806040838503121561388057600080fd5b823561388b81613858565b946020939093013593505050565b6000806000606084860312156138ae57600080fd5b83356138b981613858565b925060208401356138c981613858565b929592945050506040919091013590565b600080604083850312156138ed57600080fd5b50508035926020909101359150565b60008060006060848603121561391157600080fd5b833561391c81613858565b95602085013595506040909401359392505050565b60006020828403121561394357600080fd5b8135611e2f81613858565b60008083601f84011261396057600080fd5b50813567ffffffffffffffff81111561397857600080fd5b60208301915083602082850101111561399057600080fd5b9250929050565b6000806000806000606086880312156139af57600080fd5b85356139ba81613858565b9450602086013567ffffffffffffffff808211156139d757600080fd5b6139e389838a0161394e565b909650945060408801359150808211156139fc57600080fd5b50613a098882890161394e565b969995985093965092949392505050565b60008060208385031215613a2d57600080fd5b823567ffffffffffffffff80821115613a4557600080fd5b818501915085601f830112613a5957600080fd5b813581811115613a6857600080fd5b8660208260051b8501011115613a7d57600080fd5b60209290920196919550909350505050565b801515811461219557600080fd5b60008060408385031215613ab057600080fd5b8235613abb81613858565b91506020830135613acb81613a8f565b809150509250929050565b634e487b7160e01b600052604160045260246000fd5b60008060008060808587031215613b0257600080fd5b8435613b0d81613858565b93506020850135613b1d81613858565b925060408501359150606085013567ffffffffffffffff80821115613b4157600080fd5b818701915087601f830112613b5557600080fd5b813581811115613b6757613b67613ad6565b604051601f8201601f19908116603f01168101908382118183101715613b8f57613b8f613ad6565b816040528281528a6020848701011115613ba857600080fd5b82602086016020830137600060208483010152809550505050505092959194509250565b60008060408385031215613bdf57600080fd5b8235613bea81613858565b91506020830135613acb81613858565b634e487b7160e01b600052601160045260246000fd5b818103818111156105ff576105ff613bfa565b80820281158282048414176105ff576105ff613bfa565b600181811c90821680613c4e57607f821691505b602082108103610c1f57634e487b7160e01b600052602260045260246000fd5b6020808252602d908201527f4552433732313a2063616c6c6572206973206e6f7420746f6b656e206f776e6560408201526c1c881bdc88185c1c1c9bdd9959609a1b606082015260800190565b600060208284031215613ccd57600080fd5b8151611e2f81613858565b600060208284031215613cea57600080fd5b5051919050565b60008151613d038185602086016137dc565b9290920192915050565b7f3c73766720786d6c6e733d22687474703a2f2f7777772e77332e6f72672f323081527f30302f737667222076696577426f783d2230203020343030203430302220737460208201527f796c653d2277696474683a313030253b6261636b67726f756e643a236561656160408201527f65613b66696c6c3a626c61636b3b666f6e742d66616d696c793a6d6f6e6f737060608201526430b1b2911f60d91b60808201527f3c7465787420783d223530252220793d223330252220746578742d616e63686f60858201527f723d226d6964646c652220666f6e742d73697a653d223138223e00000000000060a58201526a76654c45204c6f636b202360a81b60bf82015260008351613e258160ca8501602088016137dc565b661e17ba32bc3a1f60c91b60ca91840191820152613ed5613ec3613eb0613ea1613e9b60d186017f3c7465787420783d223530252220793d223530252220746578742d616e63686f81527f723d226d6964646c652220666f6e742d73697a653d223134223e0000000000006020820152603a0190565b88613cf1565b62204c4560e81b815260030190565b661e17ba32bc3a1f60c91b815260070190565b651e17b9bb339f60d11b815260060190565b95945050505050565b600082613efb57634e487b7160e01b600052601260045260246000fd5b500490565b808201808211156105ff576105ff613bfa565b634e487b7160e01b600052603260045260246000fd5b600060018201613f3b57613f3b613bfa565b5060010190565b7f7b202274726169745f74797065223a2022656e64222c202276616c7565223a208152601160f91b602082015260008451613f848160218501602089016137dc565b6308881f4b60e21b60219184019182018190527f7b202274726169745f74797065223a2022776569676874222c202276616c7565602583015263111d101160e11b604583018190528651613fdf816049860160208b016137dc565b60499301928301919091527f7b202274726169745f74797065223a2022616d6f756e74222c202276616c7565604d830152606d82015283516140288160718401602088016137dc565b6137006071828401016222207d60e81b815260030190565b607b60f81b815273226e616d65223a202276654c45204c6f636b202360601b6001820152835160009061407a8160158501602089016137dc565b61088b60f21b60159184019182018190527f226465736372697074696f6e223a2022566f746520457363726f776564204c4560178301526608131bd8dac88b60ca1b60378301526801134b6b0b3b2911d160bd1b603e8301527f22646174613a696d6167652f7376672b786d6c3b6261736536342c00000000006047830152855161410c816062850160208a016137dc565b606292019182015261415f61415261414561413f606485016e2261747472696275746573223a205b60881b8152600f0190565b87613cf1565b605d60f81b815260010190565b607d60f81b815260010190565b9695505050505050565b7f646174613a6170706c69636174696f6e2f6a736f6e3b6261736536342c0000008152600082516141a181601d8501602087016137dc565b91909101601d0192915050565b60208082526025908201527f4552433732313a207472616e736665722066726f6d20696e636f72726563742060408201526437bbb732b960d91b606082015260800190565b6020808252602b908201527f496e697469616c697a61626c653a20636f6e7472616374206973206e6f74206960408201526a6e697469616c697a696e6760a81b606082015260800190565b60208082526032908201527f4552433732313a207472616e7366657220746f206e6f6e20455243373231526560408201527131b2b4bb32b91034b6b83632b6b2b73a32b960711b606082015260800190565b6000602082840312156142a257600080fd5b8151611e2f81613a8f565b601f82111561080c57600081815260208120601f850160051c810160208610156142d45750805b601f850160051c820191505b81811015611778578281556001016142e0565b815167ffffffffffffffff81111561430d5761430d613ad6565b6143218161431b8454613c3a565b846142ad565b602080601f831160018114614356576000841561433e5750858301515b600019600386901b1c1916600185901b178555611778565b600085815260208120601f198616915b8281101561438557888601518255948401946001909101908401614366565b50858210156143a35787850151600019600388901b60f8161c191681555b5050505050600190811b01905550565b6001600160a01b038581168252841660208201526040810183905260806060820181905260009061415f90830184613800565b6000602082840312156143f857600080fd5b8151611e2f816137a9565b634e487b7160e01b600052603160045260246000fd5b6000825161442b8184602087016137dc565b919091019291505056fe4142434445464748494a4b4c4d4e4f505152535455565758595a6162636465666768696a6b6c6d6e6f707172737475767778797a303132333435363738392b2fa2646970667358221220057ee18b9f56ac68f1e5bef07b75a43757affa8e86ea1576b5a54e720f79bfa664736f6c63430008130033",
  "linkReferences": {},
  "deployedLinkReferences": {}
}