{
  "_format": "hh-sol-artifact-1",
  "contractName": "VotingEscrow",
  "sourceName": "contracts/protocol/VotingEscrow.sol",
  "abi": [
    {
      "inputs": [],
      "stateMutability": "nonpayable",
      "type": "constructor"
    },
    {
      "anonymous": false,
      "inputs": [
        {
          "indexed": true,
          "internalType": "address",
          "name": "owner",
          "type": "address"
        },
        {
          "indexed": true,
          "internalType": "address",
          "name": "approved",
          "type": "address"
        },
        {
          "indexed": true,
          "internalType": "uint256",
          "name": "tokenId",
          "type": "uint256"
        }
      ],
      "name": "Approval",
      "type": "event"
    },
    {
      "anonymous": false,
      "inputs": [
        {
          "indexed": true,
          "internalType": "address",
          "name": "owner",
          "type": "address"
        },
        {
          "indexed": true,
          "internalType": "address",
          "name": "operator",
          "type": "address"
        },
        {
          "indexed": false,
          "internalType": "bool",
          "name": "approved",
          "type": "bool"
        }
      ],
      "name": "ApprovalForAll",
      "type": "event"
    },
    {
      "anonymous": false,
      "inputs": [
        {
          "indexed": false,
          "internalType": "uint8",
          "name": "version",
          "type": "uint8"
        }
      ],
      "name": "Initialized",
      "type": "event"
    },
    {
      "anonymous": false,
      "inputs": [
        {
          "indexed": true,
          "internalType": "address",
          "name": "previousOwner",
          "type": "address"
        },
        {
          "indexed": true,
          "internalType": "address",
          "name": "newOwner",
          "type": "address"
        }
      ],
      "name": "OwnershipTransferred",
      "type": "event"
    },
    {
      "anonymous": false,
      "inputs": [
        {
          "indexed": true,
          "internalType": "address",
          "name": "from",
          "type": "address"
        },
        {
          "indexed": true,
          "internalType": "address",
          "name": "to",
          "type": "address"
        },
        {
          "indexed": true,
          "internalType": "uint256",
          "name": "tokenId",
          "type": "uint256"
        }
      ],
      "name": "Transfer",
      "type": "event"
    },
    {
      "inputs": [],
      "name": "EPOCH_PERIOD",
      "outputs": [
        {
          "internalType": "uint256",
          "name": "",
          "type": "uint256"
        }
      ],
      "stateMutability": "view",
      "type": "function"
    },
    {
      "inputs": [],
      "name": "LOCK_FACTOR",
      "outputs": [
        {
          "internalType": "uint256",
          "name": "",
          "type": "uint256"
        }
      ],
      "stateMutability": "view",
      "type": "function"
    },
    {
      "inputs": [],
      "name": "MAXLOCKTIME",
      "outputs": [
        {
          "internalType": "uint256",
          "name": "",
          "type": "uint256"
        }
      ],
      "stateMutability": "view",
      "type": "function"
    },
    {
      "inputs": [],
      "name": "MINLOCKTIME",
      "outputs": [
        {
          "internalType": "uint256",
          "name": "",
          "type": "uint256"
        }
      ],
      "stateMutability": "view",
      "type": "function"
    },
    {
      "inputs": [
        {
          "internalType": "address",
          "name": "to",
          "type": "address"
        },
        {
          "internalType": "uint256",
          "name": "tokenId",
          "type": "uint256"
        }
      ],
      "name": "approve",
      "outputs": [],
      "stateMutability": "nonpayable",
      "type": "function"
    },
    {
      "inputs": [
        {
          "internalType": "address",
          "name": "owner",
          "type": "address"
        }
      ],
      "name": "balanceOf",
      "outputs": [
        {
          "internalType": "uint256",
          "name": "",
          "type": "uint256"
        }
      ],
      "stateMutability": "view",
      "type": "function"
    },
    {
      "inputs": [
        {
          "internalType": "address",
          "name": "receiver",
          "type": "address"
        },
        {
          "internalType": "uint256",
          "name": "amount",
          "type": "uint256"
        },
        {
          "internalType": "uint256",
          "name": "unlockTime",
          "type": "uint256"
        }
      ],
      "name": "createLock",
      "outputs": [],
      "stateMutability": "nonpayable",
      "type": "function"
    },
    {
      "inputs": [
        {
          "internalType": "uint256",
          "name": "timestamp",
          "type": "uint256"
        }
      ],
      "name": "epoch",
      "outputs": [
        {
          "internalType": "uint256",
          "name": "",
          "type": "uint256"
        }
      ],
      "stateMutability": "view",
      "type": "function"
    },
    {
      "inputs": [],
      "name": "epochPeriod",
      "outputs": [
        {
          "internalType": "uint256",
          "name": "",
          "type": "uint256"
        }
      ],
      "stateMutability": "pure",
      "type": "function"
    },
    {
      "inputs": [
        {
          "internalType": "uint256",
          "name": "_epoch",
          "type": "uint256"
        }
      ],
      "name": "epochTimestamp",
      "outputs": [
        {
          "internalType": "uint256",
          "name": "",
          "type": "uint256"
        }
      ],
      "stateMutability": "view",
      "type": "function"
    },
    {
      "inputs": [
        {
          "internalType": "uint256",
          "name": "tokenId",
          "type": "uint256"
        }
      ],
      "name": "getApproved",
      "outputs": [
        {
          "internalType": "address",
          "name": "",
          "type": "address"
        }
      ],
      "stateMutability": "view",
      "type": "function"
    },
    {
      "inputs": [
        {
          "internalType": "uint256",
          "name": "tokenId",
          "type": "uint256"
        },
        {
          "internalType": "uint256",
          "name": "index",
          "type": "uint256"
        }
      ],
      "name": "getLockHistoryPoint",
      "outputs": [
        {
          "components": [
            {
              "internalType": "uint256",
              "name": "bias",
              "type": "uint256"
            },
            {
              "internalType": "uint256",
              "name": "slope",
              "type": "uint256"
            },
            {
              "internalType": "uint256",
              "name": "timestamp",
              "type": "uint256"
            }
          ],
          "internalType": "struct DataTypes.Point",
          "name": "",
          "type": "tuple"
        }
      ],
      "stateMutability": "view",
      "type": "function"
    },
    {
      "inputs": [
        {
          "internalType": "uint256",
          "name": "_epoch",
          "type": "uint256"
        }
      ],
      "name": "getLockedRatioAt",
      "outputs": [
        {
          "internalType": "uint256",
          "name": "",
          "type": "uint256"
        }
      ],
      "stateMutability": "view",
      "type": "function"
    },
    {
      "inputs": [
        {
          "internalType": "uint256",
          "name": "tokenId",
          "type": "uint256"
        },
        {
          "internalType": "uint256",
          "name": "amount",
          "type": "uint256"
        }
      ],
      "name": "increaseAmount",
      "outputs": [],
      "stateMutability": "nonpayable",
      "type": "function"
    },
    {
      "inputs": [
        {
          "internalType": "uint256",
          "name": "tokenId",
          "type": "uint256"
        },
        {
          "internalType": "uint256",
          "name": "newUnlockTime",
          "type": "uint256"
        }
      ],
      "name": "increaseUnlockTime",
      "outputs": [],
      "stateMutability": "nonpayable",
      "type": "function"
    },
    {
      "inputs": [
        {
          "internalType": "contract IAddressesProvider",
          "name": "addressProvider",
          "type": "address"
        },
        {
          "internalType": "string",
          "name": "name",
          "type": "string"
        },
        {
          "internalType": "string",
          "name": "symbol",
          "type": "string"
        }
      ],
      "name": "initialize",
      "outputs": [],
      "stateMutability": "nonpayable",
      "type": "function"
    },
    {
      "inputs": [
        {
          "internalType": "address",
          "name": "owner",
          "type": "address"
        },
        {
          "internalType": "address",
          "name": "operator",
          "type": "address"
        }
      ],
      "name": "isApprovedForAll",
      "outputs": [
        {
          "internalType": "bool",
          "name": "",
          "type": "bool"
        }
      ],
      "stateMutability": "view",
      "type": "function"
    },
    {
      "inputs": [
        {
          "internalType": "uint256",
          "name": "tokenId",
          "type": "uint256"
        }
      ],
      "name": "lockHistoryLength",
      "outputs": [
        {
          "internalType": "uint256",
          "name": "",
          "type": "uint256"
        }
      ],
      "stateMutability": "view",
      "type": "function"
    },
    {
      "inputs": [
        {
          "internalType": "uint256",
          "name": "tokenId",
          "type": "uint256"
        }
      ],
      "name": "lockWeight",
      "outputs": [
        {
          "internalType": "uint256",
          "name": "",
          "type": "uint256"
        }
      ],
      "stateMutability": "view",
      "type": "function"
    },
    {
      "inputs": [
        {
          "internalType": "uint256",
          "name": "tokenId",
          "type": "uint256"
        }
      ],
      "name": "locked",
      "outputs": [
        {
          "components": [
            {
              "internalType": "uint256",
              "name": "amount",
              "type": "uint256"
            },
            {
              "internalType": "uint256",
              "name": "end",
              "type": "uint256"
            }
          ],
          "internalType": "struct DataTypes.LockedBalance",
          "name": "",
          "type": "tuple"
        }
      ],
      "stateMutability": "view",
      "type": "function"
    },
    {
      "inputs": [],
      "name": "name",
      "outputs": [
        {
          "internalType": "string",
          "name": "",
          "type": "string"
        }
      ],
      "stateMutability": "view",
      "type": "function"
    },
    {
      "inputs": [],
      "name": "owner",
      "outputs": [
        {
          "internalType": "address",
          "name": "",
          "type": "address"
        }
      ],
      "stateMutability": "view",
      "type": "function"
    },
    {
      "inputs": [
        {
          "internalType": "uint256",
          "name": "tokenId",
          "type": "uint256"
        }
      ],
      "name": "ownerOf",
      "outputs": [
        {
          "internalType": "address",
          "name": "",
          "type": "address"
        }
      ],
      "stateMutability": "view",
      "type": "function"
    },
    {
      "inputs": [],
      "name": "renounceOwnership",
      "outputs": [],
      "stateMutability": "nonpayable",
      "type": "function"
    },
    {
      "inputs": [
        {
          "internalType": "address",
          "name": "from",
          "type": "address"
        },
        {
          "internalType": "address",
          "name": "to",
          "type": "address"
        },
        {
          "internalType": "uint256",
          "name": "tokenId",
          "type": "uint256"
        }
      ],
      "name": "safeTransferFrom",
      "outputs": [],
      "stateMutability": "nonpayable",
      "type": "function"
    },
    {
      "inputs": [
        {
          "internalType": "address",
          "name": "from",
          "type": "address"
        },
        {
          "internalType": "address",
          "name": "to",
          "type": "address"
        },
        {
          "internalType": "uint256",
          "name": "tokenId",
          "type": "uint256"
        },
        {
          "internalType": "bytes",
          "name": "data",
          "type": "bytes"
        }
      ],
      "name": "safeTransferFrom",
      "outputs": [],
      "stateMutability": "nonpayable",
      "type": "function"
    },
    {
      "inputs": [
        {
          "internalType": "address",
          "name": "operator",
          "type": "address"
        },
        {
          "internalType": "bool",
          "name": "approved",
          "type": "bool"
        }
      ],
      "name": "setApprovalForAll",
      "outputs": [],
      "stateMutability": "nonpayable",
      "type": "function"
    },
    {
      "inputs": [
        {
          "internalType": "uint256",
          "name": "amount",
          "type": "uint256"
        },
        {
          "internalType": "uint256",
          "name": "end",
          "type": "uint256"
        }
      ],
      "name": "simulateLock",
      "outputs": [
        {
          "internalType": "uint256",
          "name": "",
          "type": "uint256"
        }
      ],
      "stateMutability": "view",
      "type": "function"
    },
    {
      "inputs": [
        {
          "internalType": "bytes4",
          "name": "interfaceId",
          "type": "bytes4"
        }
      ],
      "name": "supportsInterface",
      "outputs": [
        {
          "internalType": "bool",
          "name": "",
          "type": "bool"
        }
      ],
      "stateMutability": "view",
      "type": "function"
    },
    {
      "inputs": [],
      "name": "symbol",
      "outputs": [
        {
          "internalType": "string",
          "name": "",
          "type": "string"
        }
      ],
      "stateMutability": "view",
      "type": "function"
    },
    {
      "inputs": [
        {
          "internalType": "uint256",
          "name": "index",
          "type": "uint256"
        }
      ],
      "name": "tokenByIndex",
      "outputs": [
        {
          "internalType": "uint256",
          "name": "",
          "type": "uint256"
        }
      ],
      "stateMutability": "view",
      "type": "function"
    },
    {
      "inputs": [
        {
          "internalType": "address",
          "name": "owner",
          "type": "address"
        },
        {
          "internalType": "uint256",
          "name": "index",
          "type": "uint256"
        }
      ],
      "name": "tokenOfOwnerByIndex",
      "outputs": [
        {
          "internalType": "uint256",
          "name": "",
          "type": "uint256"
        }
      ],
      "stateMutability": "view",
      "type": "function"
    },
    {
      "inputs": [
        {
          "internalType": "uint256",
          "name": "tokenId",
          "type": "uint256"
        }
      ],
      "name": "tokenURI",
      "outputs": [
        {
          "internalType": "string",
          "name": "",
          "type": "string"
        }
      ],
      "stateMutability": "view",
      "type": "function"
    },
    {
      "inputs": [],
      "name": "totalSupply",
      "outputs": [
        {
          "internalType": "uint256",
          "name": "",
          "type": "uint256"
        }
      ],
      "stateMutability": "view",
      "type": "function"
    },
    {
      "inputs": [],
      "name": "totalWeight",
      "outputs": [
        {
          "internalType": "uint256",
          "name": "",
          "type": "uint256"
        }
      ],
      "stateMutability": "view",
      "type": "function"
    },
    {
      "inputs": [
        {
          "internalType": "uint256",
          "name": "_epoch",
          "type": "uint256"
        }
      ],
      "name": "totalWeightAt",
      "outputs": [
        {
          "internalType": "uint256",
          "name": "",
          "type": "uint256"
        }
      ],
      "stateMutability": "nonpayable",
      "type": "function"
    },
    {
      "inputs": [
        {
          "internalType": "address",
          "name": "from",
          "type": "address"
        },
        {
          "internalType": "address",
          "name": "to",
          "type": "address"
        },
        {
          "internalType": "uint256",
          "name": "tokenId",
          "type": "uint256"
        }
      ],
      "name": "transferFrom",
      "outputs": [],
      "stateMutability": "nonpayable",
      "type": "function"
    },
    {
      "inputs": [
        {
          "internalType": "address",
          "name": "newOwner",
          "type": "address"
        }
      ],
      "name": "transferOwnership",
      "outputs": [],
      "stateMutability": "nonpayable",
      "type": "function"
    },
    {
      "inputs": [
        {
          "internalType": "address",
          "name": "user",
          "type": "address"
        }
      ],
      "name": "userWeight",
      "outputs": [
        {
          "internalType": "uint256",
          "name": "",
          "type": "uint256"
        }
      ],
      "stateMutability": "view",
      "type": "function"
    },
    {
      "inputs": [
        {
          "internalType": "uint256",
          "name": "tokenId",
          "type": "uint256"
        }
      ],
      "name": "withdraw",
      "outputs": [],
      "stateMutability": "nonpayable",
      "type": "function"
    },
    {
      "inputs": [],
      "name": "writeTotalWeightHistory",
      "outputs": [],
      "stateMutability": "nonpayable",
      "type": "function"
    }
  ],
  "bytecode": "0x608080604052346100c2576000549060ff8260081c16610070575060ff80821610610035575b6040516131ed9081620000c88239f35b60ff90811916176000557f7f26b83ff96e1f2b6a682f133852f6798a09c465da95921460cefb3847402498602060405160ff8152a138610025565b62461bcd60e51b815260206004820152602760248201527f496e697469616c697a61626c653a20636f6e747261637420697320696e697469604482015266616c697a696e6760c81b6064820152608490fd5b600080fdfe6080604081815260048036101561001557600080fd5b600092833560e01c90816301ffc9a714611c8e5750806306fdde0314611be4578063081812fc14611bc4578063095ea7b314611a5457806318160ddd14611a3557806323b872dd14611a105780632e1a7d4d146115615780632f745c591461153857806332da089e1461151857806342842e0e146114e45780634ba4146c146114325780634f6ccce71461139f57806353be568d146113455780635487c577146112bb578063589d7c54146112575780636352211e1461122657806364a1b95b146111d2578063650e150514610f765780636a7e330414610f5657806370a0823114610f3057806370be219114610f11578063715018a614610eb45780637442148614610e8c57806387da75ef14610e735780638da5cb5b14610e4a578063906571471461095657806395d89b411461087157806396c82e571461082e5780639c511ad4146104015780639d507b8b146106e0578063a22cb46514610611578063b2383e55146104e2578063b263bb3b1461047a578063b45a3c0e1461041f578063b5b7a18414610401578063b88d4fde14610376578063c87b56dd14610306578063d8976586146102e8578063e8d0bec7146102cc578063e985e9c51461027a5763f2fde38b146101e657600080fd5b34610276576020366003190112610276576101ff611d69565b91610208611ef2565b6001600160a01b03831615610224578361022184611f4a565b80f35b906020608492519162461bcd60e51b8352820152602660248201527f4f776e61626c653a206e6577206f776e657220697320746865207a65726f206160448201526564647265737360d01b6064820152fd5b8280fd5b5050346102c857806003193601126102c85760ff8160209361029a611d69565b6102a2611d84565b6001600160a01b039182168352606a875283832091168252855220549151911615158152f35b5080fd5b5090346102765782600319360112610276576020925051908152f35b5050346102c857816003193601126102c8576020905162093a808152f35b509190346102c85760203660031901126102c8576103456103406103729435600052606760205260018060a01b0360406000205416151590565b61200a565b81815161035181611e61565b5280519161035e83611e61565b825251918291602083526020830190611d29565b0390f35b8382346102c85760803660031901126102c857610391611d69565b9061039a611d84565b916044356064359367ffffffffffffffff85116103fd57366023860112156103fd576103d56103f89486602461022198369301359101611ebb565b926103e86103e384336121cd565b6120f4565b6103f3838383612295565b6125e4565b6121a9565b8580fd5b5050346102c857816003193601126102c85760209051620151808152f35b503461027657602036600319011261027657918192816020845161044281611e13565b828152015235815261012f60205220815161045c81611e13565b60206001835493848452015491019081528251918252516020820152f35b5091346104df5760203660031901126104df578235906101329081548310156104cc5760209450527fc53bdfd4aa1ab65dfdaf681ca6bda958ae4a123d4ed68c4277796592280e783501549051908152f35b634e487b7160e01b815260328552602490fd5b80fd5b5034610276576104f136611dcf565b91906104fb612ce3565b80855261012f9161059a60209284845261051c6001888a200154421061312f565b61052581612056565b6001600160a01b03959061053c908716331461316b565b81895280855287892090600189519261055484611e13565b80548452015486830152828a52808652888a20610572898254612803565b9055828a52855287892091600189519361058b85611e13565b80548552015486840152612f5d565b818361012d54168651928380926315b9ba5d60e01b82525afa918215610607576105d2955086926105da575b50503091339116612d39565b600160fb5580f35b6105f99250803d10610600575b6105f18183611e7d565b810190612858565b38806105c6565b503d6105e7565b85513d88823e3d90fd5b50903461027657806003193601126102765761062b611d69565b90602435918215158093036106dc576001600160a01b03169233841461069a5750338452606a60205280842083855260205280842060ff1981541660ff8416179055519081527f17307eab39ab6107e8899845ad3d59bd9653f200f220920489ca2b5937696c3160203392a380f35b6020606492519162461bcd60e51b8352820152601960248201527f4552433732313a20617070726f766520746f2063616c6c6572000000000000006044820152fd5b8480fd5b509190346102c8576106f136611dcf565b906106fa612ce3565b6201518080920482810292818404149015171561081b5761072d61071d82612056565b6001600160a01b0316331461316b565b80845261012f91602083815261074a60018688200154421061312f565b828652838152600185872001548211156107d957630784ce004281018091116107c6576105d296975061077f90831115612bb6565b82875283815284872093600186519561079787611e13565b8054875201548286015283885281528487209482600187015551946107bb86611e13565b548552840152612f5d565b634e487b7160e01b875260118852602487fd5b8660649186519162461bcd60e51b8352820152601b60248201527f4c6f636b2074696d652063616e206f6e6c7920696e63726561736500000000006044820152fd5b634e487b7160e01b845260118552602484fd5b5050346102c857816003193601126102c85760209061086a610133546108646101345461085e61013554426127f6565b90612810565b906127f6565b9051908152f35b5050346102c857816003193601126102c857805190826066546108938161207c565b8085529160019180831690811561092e57506001146108d1575b5050506108bf82610372940383611e7d565b51918291602083526020830190611d29565b9450606685527f46501879b8ca8525e8c2fd519e2fbfcfa2ebea26501294aa02cbfcfb12e943545b828610610916575050506108bf82602061037295820101946108ad565b805460208787018101919091529095019481016108f9565b6103729750869350602092506108bf94915060ff191682840152151560051b820101946108ad565b509190346102c85760603660031901126102c85782356001600160a01b038116908190036102765767ffffffffffffffff936024358581116106dc5761099f9036908301611de5565b929095604435818111610e46576109b99036908501611de5565b909787549560ff8760081c161596878098610e39575b8015610e22575b15610dc857610a08928a9b92610a00928a60019d8e60ff198416179055610db7575b503691611ebb565b923691611ebb565b610a2160ff8a5460081c16610a1c81612796565b612796565b8151838111610da45780610a3660655461207c565b93601f94858111610d36575b50602090858311600114610cb7578c92610cac575b5050600019600383901b1c191690891b176065555b8051928311610c9957908291610a8360665461207c565b828111610c29575b506020918311600114610baa578992610b9f575b5050600019600383901b1c191690861b176066555b610ad160ff875460081c16610ac881612796565b610a1c81612796565b610ada33611f4a565b61012d80546001600160a01b03191690911790554261012e55610131805491600160401b831015610b8c57508482019055610b149061273a565b8154906000199060031b1b191690558151610b2e81611e45565b8481528460208201528242910152836101335583610134554261013555610b53578280f35b825461ff0019168355519081527f7f26b83ff96e1f2b6a682f133852f6798a09c465da95921460cefb384740249890602090a138808280f35b634e487b7160e01b875260419052602486fd5b015190503880610a9f565b60668a528893507f46501879b8ca8525e8c2fd519e2fbfcfa2ebea26501294aa02cbfcfb12e943549190601f1984168b5b818110610c1157508411610bf8575b505050811b01606655610ab4565b015160001960f88460031b161c19169055388080610bea565b8284015185558b969094019360209384019301610bdb565b9091925060668a527f46501879b8ca8525e8c2fd519e2fbfcfa2ebea26501294aa02cbfcfb12e943548380860160051c82019260208710610c90575b9186958c929594930160051c01915b828110610c82575050610a8b565b8c81558695508b9101610c74565b92508192610c65565b634e487b7160e01b895260418552602489fd5b015190503880610a57565b60658d528b93507f8ff97419363ffd7000167f130ef7168fbea05faf9251824ca5043f113cc6a7c79190601f1984168e5b818110610d1e57508411610d05575b505050811b01606555610a6c565b015160001960f88460031b161c19169055388080610cf7565b8284015185558e969094019360209384019301610ce8565b90915060658c527f8ff97419363ffd7000167f130ef7168fbea05faf9251824ca5043f113cc6a7c78580850160051c82019260208610610d9b575b918d91869594930160051c01915b828110610d8d575050610a42565b8e81558594508d9101610d7f565b92508192610d71565b634e487b7160e01b8a526041865260248afd5b61ffff1916610101178d55386109f8565b885162461bcd60e51b8152602081890152602e60248201527f496e697469616c697a61626c653a20636f6e747261637420697320616c72656160448201526d191e481a5b9a5d1a585b1a5e995960921b6064820152608490fd5b50303b1580156109d65750600160ff8216146109d6565b50600160ff8216106109cf565b8680fd5b5050346102c857816003193601126102c85760c95490516001600160a01b039091168152602090f35b83346104df57806003193601126104df57610221612877565b5034610276576020366003190112610276576020928291358152610130845220549051908152f35b83346104df57806003193601126104df57610ecd611ef2565b60c980546001600160a01b0319811690915581906001600160a01b03167f8be0079c531659141344cd1fd0a4f28419497f9722a3daafe3b4186f6b6457e08280a380f35b5050346102c857816003193601126102c85760209051630784ce008152f35b5050346102c85760203660031901126102c85760209061086a610f51611d69565b611f93565b5091346104df5760203660031901126104df575061086a60209235612c73565b509190346102c85760603660031901126102c857610f92611d69565b60243590610f9e612ce3565b620151809485604435048681029681880414901517156111bf5762093a804281018091116111ac57610fd290871015612b5b565b630784ce004281018091116111ac57610fed90871115612bb6565b6101379586549085519761100089611e61565b8789526001600160a01b03858116999095908a156111695784808b9c611040829d9a9b9c9d600052606760205260018060a01b0360406000205416151590565b1561104a90612e78565b8c6099549a83815260209b609a8d528282205561106684612771565b61106f87611f93565b83825260978d528282208183528d5282822085905584825260988d52828220556000848152606760205260409020546110b1906001600160a01b031615612e78565b82815260688c528181208054600101905583815260678c522080546001600160a01b031916821790558d7fddf252ad1be2c89b69c2b068fc378daa952ba7f163c4a11628f55a4df523b3ef8180a4611108926124f0565b611111906121a9565b8054600101905581885261012f8085528789209088519161113183611e13565b805483526001015486830152838a52855281888a208881556001015587519161115983611e13565b8783528583015261059a92612f5d565b885162461bcd60e51b8152602081880181905260248201527f4552433732313a206d696e7420746f20746865207a65726f20616464726573736044820152606490fd5b634e487b7160e01b865260118252602486fd5b634e487b7160e01b855260119052602484fd5b5050346102c85761120b611205606093836111ec36611dcf565b92906111f6612c10565b50815261013060205220612c2f565b50612c4b565b90808051928051845260208101516020850152015190820152f35b5091346104df5760203660031901126104df575061124660209235612056565b90516001600160a01b039091168152f35b8284346104df5760203660031901126104df57611272611d69565b918161127d84611f93565b80821061128e576020848451908152f35b90926112af6112b5916112a96112a4878961265f565b612c73565b90612803565b93612849565b9061127d565b5082346104df5760203660031901126104df575061012e54813591818311156112f35760208461086a620151808086049087046127f6565b608490602085519162461bcd60e51b8352820152602660248201527f54696d657374616d70207072696f7220746f20636f6e7472616374206465706c6044820152651bde5b595b9d60d21b6064820152fd5b5091346104df5760203660031901126104df57823590611363612877565b6101319081548310156104cc5760209450527fbd987ad6ccdb7c7567f7335ea839f95dc944431abcf935b6924f70215963db7301549051908152f35b5082346104df5760203660031901126104df57508035906099548210156113da576020836113cc846126ed565b91905490519160031b1c8152f35b608490602084519162461bcd60e51b8352820152602c60248201527f455243373231456e756d657261626c653a20676c6f62616c20696e646578206f60448201526b7574206f6620626f756e647360a01b6064820152fd5b5091346104df5761144236611dcf565b620151808091048181029181830414901517156114d15762093a804281018091116114be5761147390821015612b5b565b630784ce0092428401908185116114ab57602086866114a38761085e8861149c89821115612bb6565b42906127f6565b049051908152f35b634e487b7160e01b815260118752602490fd5b634e487b7160e01b845260118652602484fd5b634e487b7160e01b835260118552602483fd5b5050346102c8576103f8610221916114fb36611d9a565b9192519261150884611e61565b8684526103e86103e384336121cd565b5091346104df5760203660031901126104df575061086a60209235612823565b5050346102c857806003193601126102c85760209061086a611558611d69565b6024359061265f565b5091346104df57602091826003193601126102c85783359061158282612056565b6001600160a01b039190611599908316331461316b565b82845261012f80865281852054156119d7578385528086526001828620015442111561199d57869061012d878582541685519a8b8092632c6f4d6f60e11b82525afa80156119935787989986979891611976575b508985518092631065956f60e31b82528a878301528160249a8b92165afa90811561196c57899161193b575b506118f9579088858493898b52838352868b2093600188519561163b87611e13565b805487520154848601528a8c5283528a60018882208281550155611672875161166381611e13565b8c81528c85820152858c612f5d565b54168551938480926315b9ba5d60e01b82525afa9182156118ef5788926118d0575b50519083519163a9059cbb60e01b8a84015233878401526044830152604482526080820182811067ffffffffffffffff8211176118be5784526116d991908516612d8e565b6116e285612056565b808416908161182b575050609954858752609a88528287205561170485612771565b609954600019949085810190811161181957868852609a895261172a84892054916126ed565b90549060031b1c6117578161173e846126ed565b90919082549060031b91821b91600019901b1916179055565b8852609a895283882055858752868381205560995491821561180857505085968460679297969701611788816126ed565b8782549160031b1b191690556099556117a087612056565b9387875260698252838720946bffffffffffffffffffffffff60a01b958681541690551694858752606882528387209081540190558686525283209081541690557fddf252ad1be2c89b69c2b068fc378daa952ba7f163c4a11628f55a4df523b3ef8280a480f35b634e487b7160e01b88526031905286fd5b50634e487b7160e01b87526011825286fd5b61183490611f93565b6000198101919082116118ac578688526098895283882054828103611875575b50868852878481205587526097885282872090875287528582812055611704565b81895260978a52848920838a528a5284892054828a5260978b52858a20828b528b5280868b2055895260988a528489205538611854565b634e487b7160e01b8852601183528588fd5b634e487b7160e01b8952604184528689fd5b6118e8919250893d8b11610600576105f18183611e7d565b9038611694565b84513d8a823e3d90fd5b835162461bcd60e51b81528084018a9052601b818801527f55736572206861732061637469766520676175676520766f74657300000000006044820152606490fd5b90508981813d8311611965575b6119528183611e7d565b81010312611961575138611619565b8880fd5b503d611948565b85513d8b823e3d90fd5b61198d91508a3d8c11610600576105f18183611e7d565b386115ed565b84513d89823e3d90fd5b815162461bcd60e51b815280880187905260146024820152732637b1b5ba34b6b29034b9903737ba1037bb32b960611b6044820152606490fd5b815162461bcd60e51b815280880187905260136024820152724e6f7468696e6720746f20776974686472617760681b6044820152606490fd5b83346104df57610221611a2236611d9a565b91611a306103e384336121cd565b612295565b5050346102c857816003193601126102c8576020906099549051908152f35b5034610276578160031936011261027657611a6d611d69565b6024359290916001600160a01b0391908280611a8887612056565b16941693808514611b7757803314908115611b58575b5015611af057508385526069602052842080546001600160a01b03191683179055611ac883612056565b167f8c5be1e5ebec7d5bd14f71427d1e84f3dd0314c0f7b2291e5b200ac8c7c3b9258480a480f35b6020608492519162461bcd60e51b8352820152603d60248201527f4552433732313a20617070726f76652063616c6c6572206973206e6f7420746f60448201527f6b656e206f776e6572206f7220617070726f76656420666f7220616c6c0000006064820152fd5b90508652606a60205281862033875260205260ff828720541638611a9e565b506020608492519162461bcd60e51b8352820152602160248201527f4552433732313a20617070726f76616c20746f2063757272656e74206f776e656044820152603960f91b6064820152fd5b5091346104df5760203660031901126104df5750611246602092356120b6565b5050346102c857816003193601126102c85780519082606554611c068161207c565b8085529160019180831690811561092e5750600114611c31575050506108bf82610372940383611e7d565b9450606585527f8ff97419363ffd7000167f130ef7168fbea05faf9251824ca5043f113cc6a7c75b828610611c76575050506108bf82602061037295820101946108ad565b80546020878701810191909152909501948101611c59565b92505034610276576020366003190112610276573563ffffffff60e01b8116809103610276576020925063780e9d6360e01b8114908115611ce9575b8115611cd8575b5015158152f35b6301ffc9a760e01b14905038611cd1565b90506380ac58cd60e01b81148015611d19575b8015611d09575b90611cca565b506301ffc9a760e01b8114611d03565b50635b5e139f60e01b8114611cfc565b919082519283825260005b848110611d55575050826000602080949584010152601f8019910116010190565b602081830181015184830182015201611d34565b600435906001600160a01b0382168203611d7f57565b600080fd5b602435906001600160a01b0382168203611d7f57565b6060906003190112611d7f576001600160a01b03906004358281168103611d7f57916024359081168103611d7f579060443590565b6040906003190112611d7f576004359060243590565b9181601f84011215611d7f5782359167ffffffffffffffff8311611d7f5760208381860195010111611d7f57565b6040810190811067ffffffffffffffff821117611e2f57604052565b634e487b7160e01b600052604160045260246000fd5b6060810190811067ffffffffffffffff821117611e2f57604052565b6020810190811067ffffffffffffffff821117611e2f57604052565b90601f8019910116810190811067ffffffffffffffff821117611e2f57604052565b67ffffffffffffffff8111611e2f57601f01601f191660200190565b929192611ec782611e9f565b91611ed56040519384611e7d565b829481845281830111611d7f578281602093846000960137010152565b60c9546001600160a01b03163303611f0657565b606460405162461bcd60e51b815260206004820152602060248201527f4f776e61626c653a2063616c6c6572206973206e6f7420746865206f776e65726044820152fd5b60c980546001600160a01b039283166001600160a01b0319821681179092559091167f8be0079c531659141344cd1fd0a4f28419497f9722a3daafe3b4186f6b6457e0600080a3565b6001600160a01b03168015611fb357600052606860205260406000205490565b60405162461bcd60e51b815260206004820152602960248201527f4552433732313a2061646472657373207a65726f206973206e6f7420612076616044820152683634b21037bbb732b960b91b6064820152608490fd5b1561201157565b60405162461bcd60e51b815260206004820152601860248201527f4552433732313a20696e76616c696420746f6b656e20494400000000000000006044820152606490fd5b6000908152606760205260409020546001600160a01b031661207981151561200a565b90565b90600182811c921680156120ac575b602083101461209657565b634e487b7160e01b600052602260045260246000fd5b91607f169161208b565b6000818152606760205260409020546120d9906001600160a01b0316151561200a565b6000908152606960205260409020546001600160a01b031690565b156120fb57565b60405162461bcd60e51b815260206004820152602d60248201527f4552433732313a2063616c6c6572206973206e6f7420746f6b656e206f776e6560448201526c1c881bdc88185c1c1c9bdd9959609a1b6064820152608490fd5b60809060208152603260208201527f4552433732313a207472616e7366657220746f206e6f6e20455243373231526560408201527131b2b4bb32b91034b6b83632b6b2b73a32b960711b60608201520190565b156121b057565b60405162461bcd60e51b8152806121c960048201612156565b0390fd5b906001600160a01b0380806121e184612056565b16931691838314938415612214575b5083156121fe575b50505090565b61220a919293506120b6565b16143880806121f8565b909350600052606a60205260406000208260005260205260ff6040600020541692386121f0565b1561224257565b60405162461bcd60e51b815260206004820152602560248201527f4552433732313a207472616e736665722066726f6d20696e636f72726563742060448201526437bbb732b960d91b6064820152608490fd5b6122b9916122a284612056565b6001600160a01b039384841693918516841461223b565b83821693841561246f578391826123b657506123039260995487600052609a6020526040600020556122ea87612771565b828603612383575b506122fc86612056565b161461223b565b7fddf252ad1be2c89b69c2b068fc378daa952ba7f163c4a11628f55a4df523b3ef60008481526069602052604081206bffffffffffffffffffffffff60a01b9081815416905583825260686020526040822060001981540190558482526040822060018154019055858252606760205284604083209182541617905580a4565b61238c90611f93565b604060008781526097602052818120838252602052888282205588815260986020522055386122f2565b8583036123c8575b50612303926122ea565b6123d3919250611f93565b600019810191908211612459576123039284926000908882526020906098825260409182842054828103612422575b508a845283838120558684526097815282842091845252812055926123be565b8785526097825283852083865282528385205488865260978352848620828752835280858720558552609882528385205538612402565b634e487b7160e01b600052601160045260246000fd5b60405162461bcd60e51b8152602060048201526024808201527f4552433732313a207472616e7366657220746f20746865207a65726f206164646044820152637265737360e01b6064820152608490fd5b3d156124eb573d906124d182611e9f565b916124df6040519384611e7d565b82523d6000602084013e565b606090565b9091600091803b156125db5761253b6020918493604051948580948193630a85bd0160e11b9a8b84523360048501528460248501526044840152608060648401526084830190611d29565b03926001600160a01b03165af190829082612593575b50506125855761255f6124c0565b805190816125805760405162461bcd60e51b8152806121c960048201612156565b602001fd5b6001600160e01b0319161490565b909192506020813d82116125d3575b816125af60209383611e7d565b810103126102c85751906001600160e01b0319821682036104df5750903880612551565b3d91506125a2565b50505050600190565b91926000929190813b156126555760209161263a9185604051958680958194630a85bd0160e11b9b8c845233600485015260018060a01b0380951660248501526044840152608060648401526084830190611d29565b0393165af1908290826125935750506125855761255f6124c0565b5050505050600190565b61266881611f93565b8210156126945760018060a01b0316600052609760205260406000209060005260205260406000205490565b60405162461bcd60e51b815260206004820152602b60248201527f455243373231456e756d657261626c653a206f776e657220696e646578206f7560448201526a74206f6620626f756e647360a81b6064820152608490fd5b6099548110156127245760996000527f72a152ddfb8e864297c917af52ea6c1c68aead0fee1a62673fcc7e0c94979d000190600090565b634e487b7160e01b600052603260045260246000fd5b6101318054821015612724576000527fbd987ad6ccdb7c7567f7335ea839f95dc944431abcf935b6924f70215963db730190600090565b60995490600160401b821015611e2f5761173e82600161279494016099556126ed565b565b1561279d57565b60405162461bcd60e51b815260206004820152602b60248201527f496e697469616c697a61626c653a20636f6e7472616374206973206e6f74206960448201526a6e697469616c697a696e6760a81b6064820152608490fd5b9190820391821161245957565b9190820180921161245957565b8181029291811591840414171561245957565b61283662015180918261012e5404612803565b8181029181830414901517156124595790565b60001981146124595760010190565b90816020910312611d7f57516001600160a01b0381168103611d7f5790565b6101316128848154612823565b6000905b6080821061289557505050565b428111612b56576101338054610134916128bd8354926108646101359461085e8654896127f6565b90865492600160401b9283851015611e2f5786926128e68261173e6001988d8a8201905561273a565b5555836000526020926101368452604090612906826000205482546127f6565b905561012d5481516315b9ba5d60e01b8082526001600160a01b0396600496929390919088169082858981855afa948515612ade579089939291600096612b37575b5082875180976370a0823160e01b8252308c8301528160249d8e92165afa958615612b2c57600096612afd575b5061271095868102968188041490151715612ae95782908988518094819382525afa908115612ade57908291600091612ac1575b50888751809581936318160ddd60e01b8352165afa948515612ab75750600094612a86575b50508215612a725761013290815494851015612a5e578401808255841015612a4a5760005204907fc53bdfd4aa1ab65dfdaf681ca6bda958ae4a123d4ed68c4277796592280e78350155620151808301809311612a37575050612a319091612849565b90612888565b601190634e487b7160e01b600052526000fd5b85603286634e487b7160e01b600052526000fd5b86604187634e487b7160e01b600052526000fd5b85601286634e487b7160e01b600052526000fd5b8181959293953d8311612ab0575b612a9e8183611e7d565b810103126104df5750519138806129ce565b503d612a94565b513d6000823e3d90fd5b612ad89150823d8411610600576105f18183611e7d565b386129a9565b86513d6000823e3d90fd5b8960118a634e487b7160e01b600052526000fd5b90958382813d8311612b25575b612b148183611e7d565b810103126104df5750519438612975565b503d612b0a565b87513d6000823e3d90fd5b612b4f919650833d8511610600576105f18183611e7d565b9438612948565b505050565b15612b6257565b60405162461bcd60e51b815260206004820152602660248201527f4c6f636b74696d6520736d616c6c6572207468616e206d696e696d756d206c6f604482015265636b74696d6560d01b6064820152608490fd5b15612bbd57565b60405162461bcd60e51b815260206004820152602560248201527f4c6f636b74696d6520686967686572207468616e206d6178696d756d206c6f636044820152646b74696d6560d81b6064820152608490fd5b60405190612c1d82611e45565b60006040838281528260208201520152565b8054821015612724576000526003602060002091020190600090565b90604051612c5881611e45565b60406002829480548452600181015460208501520154910152565b600090815261012f6020526001604082200154421161207957610130602052604081208054600019810192908311612ccf575061120561207992612cb692612c2f565b61086481519161085e60406020830151920151426127f6565b634e487b7160e01b81526011600452602490fd5b600260fb5414612cf457600260fb55565b60405162461bcd60e51b815260206004820152601f60248201527f5265656e7472616e637947756172643a207265656e7472616e742063616c6c006044820152606490fd5b6040516323b872dd60e01b60208201526001600160a01b03928316602482015292909116604483015260648083019390935291815260a081019181831067ffffffffffffffff841117611e2f57612794926040525b60018060a01b031690612ded604051612da681611e13565b6020938482527f5361666545524332303a206c6f772d6c6576656c2063616c6c206661696c6564858301526000808587829751910182855af1612de76124c0565b91612ec4565b805180612dfb575b50505050565b818491810103126102c857820151908115918215036104df5750612e2157808080612df5565b6084906040519062461bcd60e51b82526004820152602a60248201527f5361666545524332303a204552433230206f7065726174696f6e20646964206e6044820152691bdd081cdd58d8d9595960b21b6064820152fd5b15612e7f57565b60405162461bcd60e51b815260206004820152601c60248201527f4552433732313a20746f6b656e20616c7265616479206d696e746564000000006044820152606490fd5b91929015612f265750815115612ed8575090565b3b15612ee15790565b60405162461bcd60e51b815260206004820152601d60248201527f416464726573733a2063616c6c20746f206e6f6e2d636f6e74726163740000006044820152606490fd5b825190915015612f395750805190602001fd5b60405162461bcd60e51b8152602060048201529081906121c9906024830190611d29565b9190610130612f6a612c10565b612f72612c10565b93612f7b612877565b602091828501948551421080613125575b613102575b508282019142835111806130f8575b6130cf575b50610133948554610134805497612fde612fd6612fce610135956108648d61085e8954426127f6565b8c5190612803565b8651906127f6565b9055612ffe86612ff3818c019a8b5190612803565b9501948551906127f6565b905542905551904282116130ac575b505051428111613089575b5060009485525260408320805490600160401b821015613075579061304291600182018155612c2f565b9390936130615750816040916002935185555160018501550151910155565b634e487b7160e01b81526004819052602490fd5b634e487b7160e01b85526041600452602485fd5b83519060005261013682526130a46040600020918254612803565b905538613018565b519060005261013683526130c660406000209182546127f6565b9055388061300d565b630784ce006130ea915104808589015261085e4285516127f6565b865242604087015238612fa5565b5080511515612fa0565b630784ce0061311d915104808584015261085e4288516127f6565b815238612f91565b5080511515612f8c565b1561313657565b60405162461bcd60e51b815260206004820152600d60248201526c496e616374697665204c6f636b60981b6044820152606490fd5b1561317257565b60405162461bcd60e51b815260206004820152601960248201527f4e6f7420746865206f776e6572206f6620746865206c6f636b000000000000006044820152606490fdfea2646970667358221220cc662dd11892f8279fdddda6e072608328a94672ffeb1ae1e11e2ebb8fd0f76364736f6c63430008130033",
  "linkReferences": {},
  "deployedLinkReferences": {}
}