{
  "_format": "hh-sol-artifact-1",
  "contractName": "VotingEscrow",
  "sourceName": "contracts/protocol/VotingEscrow.sol",
  "abi": [
    {
      "inputs": [],
      "stateMutability": "nonpayable",
      "type": "constructor"
    },
    {
      "anonymous": false,
      "inputs": [
        {
          "indexed": true,
          "internalType": "address",
          "name": "owner",
          "type": "address"
        },
        {
          "indexed": true,
          "internalType": "address",
          "name": "approved",
          "type": "address"
        },
        {
          "indexed": true,
          "internalType": "uint256",
          "name": "tokenId",
          "type": "uint256"
        }
      ],
      "name": "Approval",
      "type": "event"
    },
    {
      "anonymous": false,
      "inputs": [
        {
          "indexed": true,
          "internalType": "address",
          "name": "owner",
          "type": "address"
        },
        {
          "indexed": true,
          "internalType": "address",
          "name": "operator",
          "type": "address"
        },
        {
          "indexed": false,
          "internalType": "bool",
          "name": "approved",
          "type": "bool"
        }
      ],
      "name": "ApprovalForAll",
      "type": "event"
    },
    {
      "anonymous": false,
      "inputs": [
        {
          "indexed": false,
          "internalType": "uint8",
          "name": "version",
          "type": "uint8"
        }
      ],
      "name": "Initialized",
      "type": "event"
    },
    {
      "anonymous": false,
      "inputs": [
        {
          "indexed": true,
          "internalType": "address",
          "name": "previousOwner",
          "type": "address"
        },
        {
          "indexed": true,
          "internalType": "address",
          "name": "newOwner",
          "type": "address"
        }
      ],
      "name": "OwnershipTransferred",
      "type": "event"
    },
    {
      "anonymous": false,
      "inputs": [
        {
          "indexed": true,
          "internalType": "address",
          "name": "from",
          "type": "address"
        },
        {
          "indexed": true,
          "internalType": "address",
          "name": "to",
          "type": "address"
        },
        {
          "indexed": true,
          "internalType": "uint256",
          "name": "tokenId",
          "type": "uint256"
        }
      ],
      "name": "Transfer",
      "type": "event"
    },
    {
      "inputs": [],
      "name": "EPOCH_PERIOD",
      "outputs": [
        {
          "internalType": "uint256",
          "name": "",
          "type": "uint256"
        }
      ],
      "stateMutability": "view",
      "type": "function"
    },
    {
      "inputs": [],
      "name": "LOCK_FACTOR",
      "outputs": [
        {
          "internalType": "uint256",
          "name": "",
          "type": "uint256"
        }
      ],
      "stateMutability": "view",
      "type": "function"
    },
    {
      "inputs": [],
      "name": "MAXLOCKTIME",
      "outputs": [
        {
          "internalType": "uint256",
          "name": "",
          "type": "uint256"
        }
      ],
      "stateMutability": "view",
      "type": "function"
    },
    {
      "inputs": [],
      "name": "MINLOCKTIME",
      "outputs": [
        {
          "internalType": "uint256",
          "name": "",
          "type": "uint256"
        }
      ],
      "stateMutability": "view",
      "type": "function"
    },
    {
      "inputs": [
        {
          "internalType": "address",
          "name": "to",
          "type": "address"
        },
        {
          "internalType": "uint256",
          "name": "tokenId",
          "type": "uint256"
        }
      ],
      "name": "approve",
      "outputs": [],
      "stateMutability": "nonpayable",
      "type": "function"
    },
    {
      "inputs": [
        {
          "internalType": "address",
          "name": "owner",
          "type": "address"
        }
      ],
      "name": "balanceOf",
      "outputs": [
        {
          "internalType": "uint256",
          "name": "",
          "type": "uint256"
        }
      ],
      "stateMutability": "view",
      "type": "function"
    },
    {
      "inputs": [
        {
          "internalType": "address",
          "name": "receiver",
          "type": "address"
        },
        {
          "internalType": "uint256",
          "name": "amount",
          "type": "uint256"
        },
        {
          "internalType": "uint256",
          "name": "unlockTime",
          "type": "uint256"
        }
      ],
      "name": "createLock",
      "outputs": [],
      "stateMutability": "nonpayable",
      "type": "function"
    },
    {
      "inputs": [
        {
          "internalType": "uint256",
          "name": "timestamp",
          "type": "uint256"
        }
      ],
      "name": "epoch",
      "outputs": [
        {
          "internalType": "uint256",
          "name": "",
          "type": "uint256"
        }
      ],
      "stateMutability": "view",
      "type": "function"
    },
    {
      "inputs": [],
      "name": "epochPeriod",
      "outputs": [
        {
          "internalType": "uint256",
          "name": "",
          "type": "uint256"
        }
      ],
      "stateMutability": "pure",
      "type": "function"
    },
    {
      "inputs": [
        {
          "internalType": "uint256",
          "name": "_epoch",
          "type": "uint256"
        }
      ],
      "name": "epochTimestamp",
      "outputs": [
        {
          "internalType": "uint256",
          "name": "",
          "type": "uint256"
        }
      ],
      "stateMutability": "view",
      "type": "function"
    },
    {
      "inputs": [
        {
          "internalType": "uint256",
          "name": "tokenId",
          "type": "uint256"
        }
      ],
      "name": "getApproved",
      "outputs": [
        {
          "internalType": "address",
          "name": "",
          "type": "address"
        }
      ],
      "stateMutability": "view",
      "type": "function"
    },
    {
      "inputs": [
        {
          "internalType": "uint256",
          "name": "tokenId",
          "type": "uint256"
        },
        {
          "internalType": "uint256",
          "name": "index",
          "type": "uint256"
        }
      ],
      "name": "getLockHistoryPoint",
      "outputs": [
        {
          "components": [
            {
              "internalType": "uint256",
              "name": "bias",
              "type": "uint256"
            },
            {
              "internalType": "uint256",
              "name": "slope",
              "type": "uint256"
            },
            {
              "internalType": "uint256",
              "name": "timestamp",
              "type": "uint256"
            }
          ],
          "internalType": "struct DataTypes.Point",
          "name": "",
          "type": "tuple"
        }
      ],
      "stateMutability": "view",
      "type": "function"
    },
    {
      "inputs": [
        {
          "internalType": "uint256",
          "name": "_epoch",
          "type": "uint256"
        }
      ],
      "name": "getLockedRatioAt",
      "outputs": [
        {
          "internalType": "uint256",
          "name": "",
          "type": "uint256"
        }
      ],
      "stateMutability": "nonpayable",
      "type": "function"
    },
    {
      "inputs": [
        {
          "internalType": "uint256",
          "name": "tokenId",
          "type": "uint256"
        },
        {
          "internalType": "uint256",
          "name": "amount",
          "type": "uint256"
        }
      ],
      "name": "increaseAmount",
      "outputs": [],
      "stateMutability": "nonpayable",
      "type": "function"
    },
    {
      "inputs": [
        {
          "internalType": "uint256",
          "name": "tokenId",
          "type": "uint256"
        },
        {
          "internalType": "uint256",
          "name": "newUnlockTime",
          "type": "uint256"
        }
      ],
      "name": "increaseUnlockTime",
      "outputs": [],
      "stateMutability": "nonpayable",
      "type": "function"
    },
    {
      "inputs": [
        {
          "internalType": "contract IAddressesProvider",
          "name": "addressProvider",
          "type": "address"
        },
        {
          "internalType": "string",
          "name": "name",
          "type": "string"
        },
        {
          "internalType": "string",
          "name": "symbol",
          "type": "string"
        }
      ],
      "name": "initialize",
      "outputs": [],
      "stateMutability": "nonpayable",
      "type": "function"
    },
    {
      "inputs": [
        {
          "internalType": "address",
          "name": "owner",
          "type": "address"
        },
        {
          "internalType": "address",
          "name": "operator",
          "type": "address"
        }
      ],
      "name": "isApprovedForAll",
      "outputs": [
        {
          "internalType": "bool",
          "name": "",
          "type": "bool"
        }
      ],
      "stateMutability": "view",
      "type": "function"
    },
    {
      "inputs": [
        {
          "internalType": "uint256",
          "name": "tokenId",
          "type": "uint256"
        }
      ],
      "name": "lockHistoryLength",
      "outputs": [
        {
          "internalType": "uint256",
          "name": "",
          "type": "uint256"
        }
      ],
      "stateMutability": "view",
      "type": "function"
    },
    {
      "inputs": [
        {
          "internalType": "uint256",
          "name": "tokenId",
          "type": "uint256"
        }
      ],
      "name": "lockWeight",
      "outputs": [
        {
          "internalType": "uint256",
          "name": "",
          "type": "uint256"
        }
      ],
      "stateMutability": "view",
      "type": "function"
    },
    {
      "inputs": [
        {
          "internalType": "uint256",
          "name": "tokenId",
          "type": "uint256"
        }
      ],
      "name": "locked",
      "outputs": [
        {
          "components": [
            {
              "internalType": "uint256",
              "name": "amount",
              "type": "uint256"
            },
            {
              "internalType": "uint256",
              "name": "end",
              "type": "uint256"
            }
          ],
          "internalType": "struct DataTypes.LockedBalance",
          "name": "",
          "type": "tuple"
        }
      ],
      "stateMutability": "view",
      "type": "function"
    },
    {
      "inputs": [],
      "name": "name",
      "outputs": [
        {
          "internalType": "string",
          "name": "",
          "type": "string"
        }
      ],
      "stateMutability": "view",
      "type": "function"
    },
    {
      "inputs": [],
      "name": "owner",
      "outputs": [
        {
          "internalType": "address",
          "name": "",
          "type": "address"
        }
      ],
      "stateMutability": "view",
      "type": "function"
    },
    {
      "inputs": [
        {
          "internalType": "uint256",
          "name": "tokenId",
          "type": "uint256"
        }
      ],
      "name": "ownerOf",
      "outputs": [
        {
          "internalType": "address",
          "name": "",
          "type": "address"
        }
      ],
      "stateMutability": "view",
      "type": "function"
    },
    {
      "inputs": [],
      "name": "renounceOwnership",
      "outputs": [],
      "stateMutability": "nonpayable",
      "type": "function"
    },
    {
      "inputs": [
        {
          "internalType": "address",
          "name": "from",
          "type": "address"
        },
        {
          "internalType": "address",
          "name": "to",
          "type": "address"
        },
        {
          "internalType": "uint256",
          "name": "tokenId",
          "type": "uint256"
        }
      ],
      "name": "safeTransferFrom",
      "outputs": [],
      "stateMutability": "nonpayable",
      "type": "function"
    },
    {
      "inputs": [
        {
          "internalType": "address",
          "name": "from",
          "type": "address"
        },
        {
          "internalType": "address",
          "name": "to",
          "type": "address"
        },
        {
          "internalType": "uint256",
          "name": "tokenId",
          "type": "uint256"
        },
        {
          "internalType": "bytes",
          "name": "data",
          "type": "bytes"
        }
      ],
      "name": "safeTransferFrom",
      "outputs": [],
      "stateMutability": "nonpayable",
      "type": "function"
    },
    {
      "inputs": [
        {
          "internalType": "address",
          "name": "operator",
          "type": "address"
        },
        {
          "internalType": "bool",
          "name": "approved",
          "type": "bool"
        }
      ],
      "name": "setApprovalForAll",
      "outputs": [],
      "stateMutability": "nonpayable",
      "type": "function"
    },
    {
      "inputs": [
        {
          "internalType": "uint256",
          "name": "amount",
          "type": "uint256"
        },
        {
          "internalType": "uint256",
          "name": "end",
          "type": "uint256"
        }
      ],
      "name": "simulateLock",
      "outputs": [
        {
          "internalType": "uint256",
          "name": "",
          "type": "uint256"
        }
      ],
      "stateMutability": "view",
      "type": "function"
    },
    {
      "inputs": [
        {
          "internalType": "bytes4",
          "name": "interfaceId",
          "type": "bytes4"
        }
      ],
      "name": "supportsInterface",
      "outputs": [
        {
          "internalType": "bool",
          "name": "",
          "type": "bool"
        }
      ],
      "stateMutability": "view",
      "type": "function"
    },
    {
      "inputs": [],
      "name": "symbol",
      "outputs": [
        {
          "internalType": "string",
          "name": "",
          "type": "string"
        }
      ],
      "stateMutability": "view",
      "type": "function"
    },
    {
      "inputs": [
        {
          "internalType": "uint256",
          "name": "index",
          "type": "uint256"
        }
      ],
      "name": "tokenByIndex",
      "outputs": [
        {
          "internalType": "uint256",
          "name": "",
          "type": "uint256"
        }
      ],
      "stateMutability": "view",
      "type": "function"
    },
    {
      "inputs": [
        {
          "internalType": "address",
          "name": "owner",
          "type": "address"
        },
        {
          "internalType": "uint256",
          "name": "index",
          "type": "uint256"
        }
      ],
      "name": "tokenOfOwnerByIndex",
      "outputs": [
        {
          "internalType": "uint256",
          "name": "",
          "type": "uint256"
        }
      ],
      "stateMutability": "view",
      "type": "function"
    },
    {
      "inputs": [
        {
          "internalType": "uint256",
          "name": "tokenId",
          "type": "uint256"
        }
      ],
      "name": "tokenURI",
      "outputs": [
        {
          "internalType": "string",
          "name": "",
          "type": "string"
        }
      ],
      "stateMutability": "view",
      "type": "function"
    },
    {
      "inputs": [],
      "name": "totalSupply",
      "outputs": [
        {
          "internalType": "uint256",
          "name": "",
          "type": "uint256"
        }
      ],
      "stateMutability": "view",
      "type": "function"
    },
    {
      "inputs": [],
      "name": "totalWeight",
      "outputs": [
        {
          "internalType": "uint256",
          "name": "",
          "type": "uint256"
        }
      ],
      "stateMutability": "nonpayable",
      "type": "function"
    },
    {
      "inputs": [
        {
          "internalType": "uint256",
          "name": "_epoch",
          "type": "uint256"
        }
      ],
      "name": "totalWeightAt",
      "outputs": [
        {
          "internalType": "uint256",
          "name": "",
          "type": "uint256"
        }
      ],
      "stateMutability": "nonpayable",
      "type": "function"
    },
    {
      "inputs": [
        {
          "internalType": "address",
          "name": "from",
          "type": "address"
        },
        {
          "internalType": "address",
          "name": "to",
          "type": "address"
        },
        {
          "internalType": "uint256",
          "name": "tokenId",
          "type": "uint256"
        }
      ],
      "name": "transferFrom",
      "outputs": [],
      "stateMutability": "nonpayable",
      "type": "function"
    },
    {
      "inputs": [
        {
          "internalType": "address",
          "name": "newOwner",
          "type": "address"
        }
      ],
      "name": "transferOwnership",
      "outputs": [],
      "stateMutability": "nonpayable",
      "type": "function"
    },
    {
      "inputs": [
        {
          "internalType": "address",
          "name": "user",
          "type": "address"
        }
      ],
      "name": "userWeight",
      "outputs": [
        {
          "internalType": "uint256",
          "name": "",
          "type": "uint256"
        }
      ],
      "stateMutability": "view",
      "type": "function"
    },
    {
      "inputs": [
        {
          "internalType": "uint256",
          "name": "tokenId",
          "type": "uint256"
        }
      ],
      "name": "withdraw",
      "outputs": [],
      "stateMutability": "nonpayable",
      "type": "function"
    },
    {
      "inputs": [],
      "name": "writeTotalWeightHistory",
      "outputs": [],
      "stateMutability": "nonpayable",
      "type": "function"
    }
  ],
  "bytecode": "0x608080604052346100c2576000549060ff8260081c16610070575060ff80821610610035575b60405161325b9081620000c88239f35b60ff90811916176000557f7f26b83ff96e1f2b6a682f133852f6798a09c465da95921460cefb3847402498602060405160ff8152a138610025565b62461bcd60e51b815260206004820152602760248201527f496e697469616c697a61626c653a20636f6e747261637420697320696e697469604482015266616c697a696e6760c81b6064820152608490fd5b600080fdfe6080604081815260048036101561001557600080fd5b600092833560e01c90816301ffc9a714611c505750806306fdde0314611ba6578063081812fc14611b86578063095ea7b314611a1657806318160ddd146119f757806323b872dd146119d25780632e1a7d4d146115235780632f745c59146114fa57806332da089e146114da57806342842e0e146114a65780634ba4146c146113f55780634f6ccce71461136257806353be568d146112fc5780635487c577146112dc578063589d7c54146112785780636352211e1461124757806364a1b95b146111f3578063650e150514610f985780636a7e330414610f7857806370a0823114610f5257806370be219114610f33578063715018a614610ed65780637442148614610eae57806387da75ef14610e955780638da5cb5b14610e6c578063906571471461097857806395d89b411461089357806396c82e57146108485780639c511ad4146104015780639d507b8b146106fb578063a22cb4651461062c578063b2383e55146104fd578063b263bb3b14610479578063b45a3c0e1461041e578063b5b7a18414610401578063b88d4fde14610376578063c87b56dd14610306578063d8976586146102e8578063e8d0bec7146102cc578063e985e9c51461027a5763f2fde38b146101e657600080fd5b34610276576020366003190112610276576101ff611d2b565b91610208611eb4565b6001600160a01b03831615610224578361022184611f0c565b80f35b906020608492519162461bcd60e51b8352820152602660248201527f4f776e61626c653a206e6577206f776e657220697320746865207a65726f206160448201526564647265737360d01b6064820152fd5b8280fd5b5050346102c857806003193601126102c85760ff8160209361029a611d2b565b6102a2611d46565b6001600160a01b039182168352606a875283832091168252855220549151911615158152f35b5080fd5b5090346102765782600319360112610276576020925051908152f35b5050346102c857816003193601126102c85760209051621275008152f35b509190346102c85760203660031901126102c8576103456103406103729435600052606760205260018060a01b0360406000205416151590565b611fcc565b81815161035181611e23565b5280519161035e83611e23565b825251918291602083526020830190611ceb565b0390f35b8382346102c85760803660031901126102c857610391611d2b565b9061039a611d46565b916044356064359367ffffffffffffffff85116103fd57366023860112156103fd576103d56103f89486602461022198369301359101611e7d565b926103e86103e3843361218f565b6120b6565b6103f3838383612257565b6125a6565b61216b565b8580fd5b5050346102c857816003193601126102c85760209051611c208152f35b503461027657602036600319011261027657918192816020845161044181611dd5565b828152015235815261012f60205220815161045b81611dd5565b60206001835493848452015491019081528251918252516020820152f35b5091346104fa5760203660031901126104fa578235906104a361049b426127c5565b831115612ca5565b6104ab6128aa565b6101329081548310156104e75760209450527fc53bdfd4aa1ab65dfdaf681ca6bda958ae4a123d4ed68c4277796592280e783501549051908152f35b634e487b7160e01b815260328552602490fd5b80fd5b50346102765761050c36611d91565b9190610516612d51565b80855261012f916105b56020928484526105376001888a200154421061319d565b61054081612018565b6001600160a01b03959061055790871633146131d9565b81895280855287892090600189519261056f84611dd5565b80548452015486830152828a52808652888a2061058d898254612837565b9055828a5285528789209160018951936105a685611dd5565b80548552015486840152612fcb565b818361012d54168651928380926315b9ba5d60e01b82525afa918215610622576105ed955086926105f5575b50503091339116612da7565b600160fb5580f35b6106149250803d1061061b575b61060c8183611e3f565b81019061288b565b38806105e1565b503d610602565b85513d88823e3d90fd5b509034610276578060031936011261027657610646611d2b565b90602435918215158093036106f7576001600160a01b0316923384146106b55750338452606a60205280842083855260205280842060ff1981541660ff8416179055519081527f17307eab39ab6107e8899845ad3d59bd9653f200f220920489ca2b5937696c3160203392a380f35b6020606492519162461bcd60e51b8352820152601960248201527f4552433732313a20617070726f766520746f2063616c6c6572000000000000006044820152fd5b8480fd5b509190346102c85761070c36611d91565b90610715612d51565b61073161072182612018565b6001600160a01b031633146131d9565b80845261012f91602083815261074e60018688200154421061319d565b611c2080920482810292818404149015171561083557828652838152600185872001548211156107f357630784ce004281018091116107e0576105ed96975061079990831115612be8565b8287528381528487209360018651956107b187611dd5565b8054875201548286015283885281528487209482600187015551946107d586611dd5565b548552840152612fcb565b634e487b7160e01b875260118852602487fd5b8660649186519162461bcd60e51b8352820152601b60248201527f4c6f636b2074696d652063616e206f6e6c7920696e63726561736500000000006044820152fd5b634e487b7160e01b865260118752602486fd5b5050346102c857816003193601126102c8576020906108656128aa565b61088c610133546108866101345461088061013554426127b8565b90612844565b906127b8565b9051908152f35b5050346102c857816003193601126102c857805190826066546108b58161203e565b8085529160019180831690811561095057506001146108f3575b5050506108e182610372940383611e3f565b51918291602083526020830190611ceb565b9450606685527f46501879b8ca8525e8c2fd519e2fbfcfa2ebea26501294aa02cbfcfb12e943545b828610610938575050506108e182602061037295820101946108cf565b8054602087870181019190915290950194810161091b565b6103729750869350602092506108e194915060ff191682840152151560051b820101946108cf565b509190346102c85760603660031901126102c85782356001600160a01b038116908190036102765767ffffffffffffffff936024358581116106f7576109c19036908301611da7565b929095604435818111610e68576109db9036908501611da7565b909787549560ff8760081c161596878098610e5b575b8015610e44575b15610dea57610a2a928a9b92610a22928a60019d8e60ff198416179055610dd9575b503691611e7d565b923691611e7d565b610a4360ff8a5460081c16610a3e81612758565b612758565b8151838111610dc65780610a5860655461203e565b93601f94858111610d58575b50602090858311600114610cd9578c92610cce575b5050600019600383901b1c191690891b176065555b8051928311610cbb57908291610aa560665461203e565b828111610c4b575b506020918311600114610bcc578992610bc1575b5050600019600383901b1c191690861b176066555b610af360ff875460081c16610aea81612758565b610a3e81612758565b610afc33611f0c565b61012d80546001600160a01b03191690911790554261012e55610131805491600160401b831015610bae57508482019055610b36906126fc565b8154906000199060031b1b191690558151610b5081611e07565b8481528460208201528242910152836101335583610134554261013555610b75578280f35b825461ff0019168355519081527f7f26b83ff96e1f2b6a682f133852f6798a09c465da95921460cefb384740249890602090a138808280f35b634e487b7160e01b875260419052602486fd5b015190503880610ac1565b60668a528893507f46501879b8ca8525e8c2fd519e2fbfcfa2ebea26501294aa02cbfcfb12e943549190601f1984168b5b818110610c3357508411610c1a575b505050811b01606655610ad6565b015160001960f88460031b161c19169055388080610c0c565b8284015185558b969094019360209384019301610bfd565b9091925060668a527f46501879b8ca8525e8c2fd519e2fbfcfa2ebea26501294aa02cbfcfb12e943548380860160051c82019260208710610cb2575b9186958c929594930160051c01915b828110610ca4575050610aad565b8c81558695508b9101610c96565b92508192610c87565b634e487b7160e01b895260418552602489fd5b015190503880610a79565b60658d528b93507f8ff97419363ffd7000167f130ef7168fbea05faf9251824ca5043f113cc6a7c79190601f1984168e5b818110610d4057508411610d27575b505050811b01606555610a8e565b015160001960f88460031b161c19169055388080610d19565b8284015185558e969094019360209384019301610d0a565b90915060658c527f8ff97419363ffd7000167f130ef7168fbea05faf9251824ca5043f113cc6a7c78580850160051c82019260208610610dbd575b918d91869594930160051c01915b828110610daf575050610a64565b8e81558594508d9101610da1565b92508192610d93565b634e487b7160e01b8a526041865260248afd5b61ffff1916610101178d5538610a1a565b885162461bcd60e51b8152602081890152602e60248201527f496e697469616c697a61626c653a20636f6e747261637420697320616c72656160448201526d191e481a5b9a5d1a585b1a5e995960921b6064820152608490fd5b50303b1580156109f85750600160ff8216146109f8565b50600160ff8216106109f1565b8680fd5b5050346102c857816003193601126102c85760c95490516001600160a01b039091168152602090f35b83346104fa57806003193601126104fa576102216128aa565b5034610276576020366003190112610276576020928291358152610130845220549051908152f35b83346104fa57806003193601126104fa57610eef611eb4565b60c980546001600160a01b0319811690915581906001600160a01b03167f8be0079c531659141344cd1fd0a4f28419497f9722a3daafe3b4186f6b6457e08280a380f35b5050346102c857816003193601126102c85760209051630784ce008152f35b5050346102c85760203660031901126102c85760209061088c610f73611d2b565b611f55565b5091346104fa5760203660031901126104fa575061088c60209235612ce1565b509190346102c85760603660031901126102c857610fb4611d2b565b60243590610fc0612d51565b611c209485604435048681029681880414901517156111e057621275004281018091116111cd57610ff390871015612b8d565b630784ce004281018091116111cd5761100e90871115612be8565b6101379586549085519761102189611e23565b8789526001600160a01b03858116999095908a1561118a5784808b9c611061829d9a9b9c9d600052606760205260018060a01b0360406000205416151590565b1561106b90612ee6565b8c6099549a83815260209b609a8d528282205561108784612733565b61109087611f55565b83825260978d528282208183528d5282822085905584825260988d52828220556000848152606760205260409020546110d2906001600160a01b031615612ee6565b82815260688c528181208054600101905583815260678c522080546001600160a01b031916821790558d7fddf252ad1be2c89b69c2b068fc378daa952ba7f163c4a11628f55a4df523b3ef8180a4611129926124b2565b6111329061216b565b8054600101905581885261012f8085528789209088519161115283611dd5565b805483526001015486830152838a52855281888a208881556001015587519161117a83611dd5565b878352858301526105b592612fcb565b885162461bcd60e51b8152602081880181905260248201527f4552433732313a206d696e7420746f20746865207a65726f20616464726573736044820152606490fd5b634e487b7160e01b865260118252602486fd5b634e487b7160e01b855260119052602484fd5b5050346102c85761122c6112266060938361120d36611d91565b9290611217612c42565b50815261013060205220612c61565b50612c7d565b90808051928051845260208101516020850152015190820152f35b5091346104fa5760203660031901126104fa575061126760209235612018565b90516001600160a01b039091168152f35b8284346104fa5760203660031901126104fa57611293611d2b565b918161129e84611f55565b8082106112af576020848451908152f35b90926112d06112d6916112ca6112c58789612621565b612ce1565b90612837565b9361287c565b9061129e565b5091346104fa5760203660031901126104fa575061088c602092356127c5565b5091346104fa5760203660031901126104fa5782359061131e61049b426127c5565b6113266128aa565b6101319081548310156104e75760209450527fbd987ad6ccdb7c7567f7335ea839f95dc944431abcf935b6924f70215963db7301549051908152f35b5082346104fa5760203660031901126104fa575080359060995482101561139d5760208361138f846126af565b91905490519160031b1c8152f35b608490602084519162461bcd60e51b8352820152602c60248201527f455243373231456e756d657261626c653a20676c6f62616c20696e646578206f60448201526b7574206f6620626f756e647360a01b6064820152fd5b5091346104fa5761140536611d91565b611c2080910481810291818304149015171561149357621275004281018091116114805761143590821015612b8d565b630784ce00924284019081851161146d5760208686611465876108808861145e89821115612be8565b42906127b8565b049051908152f35b634e487b7160e01b815260118752602490fd5b634e487b7160e01b845260118652602484fd5b634e487b7160e01b835260118552602483fd5b5050346102c8576103f8610221916114bd36611d5c565b919251926114ca84611e23565b8684526103e86103e3843361218f565b5091346104fa5760203660031901126104fa575061088c60209235612857565b5050346102c857806003193601126102c85760209061088c61151a611d2b565b60243590612621565b5091346104fa57602091826003193601126102c85783359061154482612018565b6001600160a01b03919061155b90831633146131d9565b82845261012f8086528185205415611999578385528086526001828620015442111561195f57869061012d878582541685519a8b8092632c6f4d6f60e11b82525afa80156119555787989986979891611938575b508985518092631065956f60e31b82528a878301528160249a8b92165afa90811561192e5789916118fd575b506118bb579088858493898b52838352868b209360018851956115fd87611dd5565b805487520154848601528a8c5283528a60018882208281550155611634875161162581611dd5565b8c81528c85820152858c612fcb565b54168551938480926315b9ba5d60e01b82525afa9182156118b1578892611892575b50519083519163a9059cbb60e01b8a84015233878401526044830152604482526080820182811067ffffffffffffffff82111761188057845261169b91908516612dfc565b6116a485612018565b80841690816117ed575050609954858752609a8852828720556116c685612733565b60995460001994908581019081116117db57868852609a89526116ec84892054916126af565b90549060031b1c61171981611700846126af565b90919082549060031b91821b91600019901b1916179055565b8852609a89528388205585875286838120556099549182156117ca5750508596846067929796970161174a816126af565b8782549160031b1b1916905560995561176287612018565b9387875260698252838720946bffffffffffffffffffffffff60a01b958681541690551694858752606882528387209081540190558686525283209081541690557fddf252ad1be2c89b69c2b068fc378daa952ba7f163c4a11628f55a4df523b3ef8280a480f35b634e487b7160e01b88526031905286fd5b50634e487b7160e01b87526011825286fd5b6117f690611f55565b60001981019190821161186e578688526098895283882054828103611837575b508688528784812055875260978852828720908752875285828120556116c6565b81895260978a52848920838a528a5284892054828a5260978b52858a20828b528b5280868b2055895260988a528489205538611816565b634e487b7160e01b8852601183528588fd5b634e487b7160e01b8952604184528689fd5b6118aa919250893d8b1161061b5761060c8183611e3f565b9038611656565b84513d8a823e3d90fd5b835162461bcd60e51b81528084018a9052601b818801527f4c6f636b206861732061637469766520676175676520766f74657300000000006044820152606490fd5b90508981813d8311611927575b6119148183611e3f565b810103126119235751386115db565b8880fd5b503d61190a565b85513d8b823e3d90fd5b61194f91508a3d8c1161061b5761060c8183611e3f565b386115af565b84513d89823e3d90fd5b815162461bcd60e51b815280880187905260146024820152732637b1b5ba34b6b29034b9903737ba1037bb32b960611b6044820152606490fd5b815162461bcd60e51b815280880187905260136024820152724e6f7468696e6720746f20776974686472617760681b6044820152606490fd5b83346104fa576102216119e436611d5c565b916119f26103e3843361218f565b612257565b5050346102c857816003193601126102c8576020906099549051908152f35b5034610276578160031936011261027657611a2f611d2b565b6024359290916001600160a01b0391908280611a4a87612018565b16941693808514611b3957803314908115611b1a575b5015611ab257508385526069602052842080546001600160a01b03191683179055611a8a83612018565b167f8c5be1e5ebec7d5bd14f71427d1e84f3dd0314c0f7b2291e5b200ac8c7c3b9258480a480f35b6020608492519162461bcd60e51b8352820152603d60248201527f4552433732313a20617070726f76652063616c6c6572206973206e6f7420746f60448201527f6b656e206f776e6572206f7220617070726f76656420666f7220616c6c0000006064820152fd5b90508652606a60205281862033875260205260ff828720541638611a60565b506020608492519162461bcd60e51b8352820152602160248201527f4552433732313a20617070726f76616c20746f2063757272656e74206f776e656044820152603960f91b6064820152fd5b5091346104fa5760203660031901126104fa575061126760209235612078565b5050346102c857816003193601126102c85780519082606554611bc88161203e565b808552916001918083169081156109505750600114611bf3575050506108e182610372940383611e3f565b9450606585527f8ff97419363ffd7000167f130ef7168fbea05faf9251824ca5043f113cc6a7c75b828610611c38575050506108e182602061037295820101946108cf565b80546020878701810191909152909501948101611c1b565b92505034610276576020366003190112610276573563ffffffff60e01b8116809103610276576020925063780e9d6360e01b8114908115611cab575b8115611c9a575b5015158152f35b6301ffc9a760e01b14905038611c93565b90506380ac58cd60e01b81148015611cdb575b8015611ccb575b90611c8c565b506301ffc9a760e01b8114611cc5565b50635b5e139f60e01b8114611cbe565b919082519283825260005b848110611d17575050826000602080949584010152601f8019910116010190565b602081830181015184830182015201611cf6565b600435906001600160a01b0382168203611d4157565b600080fd5b602435906001600160a01b0382168203611d4157565b6060906003190112611d41576001600160a01b03906004358281168103611d4157916024359081168103611d41579060443590565b6040906003190112611d41576004359060243590565b9181601f84011215611d415782359167ffffffffffffffff8311611d415760208381860195010111611d4157565b6040810190811067ffffffffffffffff821117611df157604052565b634e487b7160e01b600052604160045260246000fd5b6060810190811067ffffffffffffffff821117611df157604052565b6020810190811067ffffffffffffffff821117611df157604052565b90601f8019910116810190811067ffffffffffffffff821117611df157604052565b67ffffffffffffffff8111611df157601f01601f191660200190565b929192611e8982611e61565b91611e976040519384611e3f565b829481845281830111611d41578281602093846000960137010152565b60c9546001600160a01b03163303611ec857565b606460405162461bcd60e51b815260206004820152602060248201527f4f776e61626c653a2063616c6c6572206973206e6f7420746865206f776e65726044820152fd5b60c980546001600160a01b039283166001600160a01b0319821681179092559091167f8be0079c531659141344cd1fd0a4f28419497f9722a3daafe3b4186f6b6457e0600080a3565b6001600160a01b03168015611f7557600052606860205260406000205490565b60405162461bcd60e51b815260206004820152602960248201527f4552433732313a2061646472657373207a65726f206973206e6f7420612076616044820152683634b21037bbb732b960b91b6064820152608490fd5b15611fd357565b60405162461bcd60e51b815260206004820152601860248201527f4552433732313a20696e76616c696420746f6b656e20494400000000000000006044820152606490fd5b6000908152606760205260409020546001600160a01b031661203b811515611fcc565b90565b90600182811c9216801561206e575b602083101461205857565b634e487b7160e01b600052602260045260246000fd5b91607f169161204d565b60008181526067602052604090205461209b906001600160a01b03161515611fcc565b6000908152606960205260409020546001600160a01b031690565b156120bd57565b60405162461bcd60e51b815260206004820152602d60248201527f4552433732313a2063616c6c6572206973206e6f7420746f6b656e206f776e6560448201526c1c881bdc88185c1c1c9bdd9959609a1b6064820152608490fd5b60809060208152603260208201527f4552433732313a207472616e7366657220746f206e6f6e20455243373231526560408201527131b2b4bb32b91034b6b83632b6b2b73a32b960711b60608201520190565b1561217257565b60405162461bcd60e51b81528061218b60048201612118565b0390fd5b906001600160a01b0380806121a384612018565b169316918383149384156121d6575b5083156121c0575b50505090565b6121cc91929350612078565b16143880806121ba565b909350600052606a60205260406000208260005260205260ff6040600020541692386121b2565b1561220457565b60405162461bcd60e51b815260206004820152602560248201527f4552433732313a207472616e736665722066726f6d20696e636f72726563742060448201526437bbb732b960d91b6064820152608490fd5b61227b9161226484612018565b6001600160a01b03938484169391851684146121fd565b8382169384156124315783918261237857506122c59260995487600052609a6020526040600020556122ac87612733565b828603612345575b506122be86612018565b16146121fd565b7fddf252ad1be2c89b69c2b068fc378daa952ba7f163c4a11628f55a4df523b3ef60008481526069602052604081206bffffffffffffffffffffffff60a01b9081815416905583825260686020526040822060001981540190558482526040822060018154019055858252606760205284604083209182541617905580a4565b61234e90611f55565b604060008781526097602052818120838252602052888282205588815260986020522055386122b4565b85830361238a575b506122c5926122ac565b612395919250611f55565b60001981019190821161241b576122c592849260009088825260209060988252604091828420548281036123e4575b508a84528383812055868452609781528284209184525281205592612380565b87855260978252838520838652825283852054888652609783528486208287528352808587205585526098825283852055386123c4565b634e487b7160e01b600052601160045260246000fd5b60405162461bcd60e51b8152602060048201526024808201527f4552433732313a207472616e7366657220746f20746865207a65726f206164646044820152637265737360e01b6064820152608490fd5b3d156124ad573d9061249382611e61565b916124a16040519384611e3f565b82523d6000602084013e565b606090565b9091600091803b1561259d576124fd6020918493604051948580948193630a85bd0160e11b9a8b84523360048501528460248501526044840152608060648401526084830190611ceb565b03926001600160a01b03165af190829082612555575b505061254757612521612482565b805190816125425760405162461bcd60e51b81528061218b60048201612118565b602001fd5b6001600160e01b0319161490565b909192506020813d8211612595575b8161257160209383611e3f565b810103126102c85751906001600160e01b0319821682036104fa5750903880612513565b3d9150612564565b50505050600190565b91926000929190813b15612617576020916125fc9185604051958680958194630a85bd0160e11b9b8c845233600485015260018060a01b0380951660248501526044840152608060648401526084830190611ceb565b0393165af19082908261255557505061254757612521612482565b5050505050600190565b61262a81611f55565b8210156126565760018060a01b0316600052609760205260406000209060005260205260406000205490565b60405162461bcd60e51b815260206004820152602b60248201527f455243373231456e756d657261626c653a206f776e657220696e646578206f7560448201526a74206f6620626f756e647360a81b6064820152608490fd5b6099548110156126e65760996000527f72a152ddfb8e864297c917af52ea6c1c68aead0fee1a62673fcc7e0c94979d000190600090565b634e487b7160e01b600052603260045260246000fd5b61013180548210156126e6576000527fbd987ad6ccdb7c7567f7335ea839f95dc944431abcf935b6924f70215963db730190600090565b60995490600160401b821015611df15761170082600161275694016099556126af565b565b1561275f57565b60405162461bcd60e51b815260206004820152602b60248201527f496e697469616c697a61626c653a20636f6e7472616374206973206e6f74206960448201526a6e697469616c697a696e6760a81b6064820152608490fd5b9190820391821161241b57565b61012e5490818111156127e35761203b91611c2080910491046127b8565b60405162461bcd60e51b815260206004820152602660248201527f54696d657374616d70207072696f7220746f20636f6e7472616374206465706c6044820152651bde5b595b9d60d21b6064820152608490fd5b9190820180921161241b57565b8181029291811591840414171561241b57565b612869611c20918261012e5404612837565b81810291818304149015171561241b5790565b600019811461241b5760010190565b90816020910312611d4157516001600160a01b0381168103611d415790565b6101316128b78154612857565b6000905b608082106128c857505050565b428111612b88576101338054610134916128f0835492610886610135946108808654896127b8565b90865492600160401b9283851015611df1578692612919826117006001988d8a820190556126fc565b5555836000526020926101368452604090612939826000205482546127b8565b905561012d5481516315b9ba5d60e01b8082526001600160a01b0396600496929390919088169082858981855afa948515612b10579089939291600096612b69575b5082875180976370a0823160e01b8252308c8301528160249d8e92165afa958615612b5e57600096612b2f575b5061271095868102968188041490151715612b1b5782908988518094819382525afa908115612b1057908291600091612af3575b50888751809581936318160ddd60e01b8352165afa948515612ae95750600094612ab8575b50508215612aa45761013290815494851015612a90578401808255841015612a7c5760005204907fc53bdfd4aa1ab65dfdaf681ca6bda958ae4a123d4ed68c4277796592280e78350155611c208301809311612a69575050612a63909161287c565b906128bb565b601190634e487b7160e01b600052526000fd5b85603286634e487b7160e01b600052526000fd5b86604187634e487b7160e01b600052526000fd5b85601286634e487b7160e01b600052526000fd5b8181959293953d8311612ae2575b612ad08183611e3f565b810103126104fa575051913880612a01565b503d612ac6565b513d6000823e3d90fd5b612b0a9150823d841161061b5761060c8183611e3f565b386129dc565b86513d6000823e3d90fd5b8960118a634e487b7160e01b600052526000fd5b90958382813d8311612b57575b612b468183611e3f565b810103126104fa57505194386129a8565b503d612b3c565b87513d6000823e3d90fd5b612b81919650833d851161061b5761060c8183611e3f565b943861297b565b505050565b15612b9457565b60405162461bcd60e51b815260206004820152602660248201527f4c6f636b74696d6520736d616c6c6572207468616e206d696e696d756d206c6f604482015265636b74696d6560d01b6064820152608490fd5b15612bef57565b60405162461bcd60e51b815260206004820152602560248201527f4c6f636b74696d6520686967686572207468616e206d6178696d756d206c6f636044820152646b74696d6560d81b6064820152608490fd5b60405190612c4f82611e07565b60006040838281528260208201520152565b80548210156126e6576000526003602060002091020190600090565b90604051612c8a81611e07565b60406002829480548452600181015460208501520154910152565b15612cac57565b60405162461bcd60e51b815260206004820152600d60248201526c092dcecc2d8d2c840cae0dec6d609b1b6044820152606490fd5b600090815261012f6020526001604082200154421161203b57610130602052604081208054600019810192908311612d3d575061122661203b92612d2492612c61565b61088681519161088060406020830151920151426127b8565b634e487b7160e01b81526011600452602490fd5b600260fb5414612d6257600260fb55565b60405162461bcd60e51b815260206004820152601f60248201527f5265656e7472616e637947756172643a207265656e7472616e742063616c6c006044820152606490fd5b6040516323b872dd60e01b60208201526001600160a01b03928316602482015292909116604483015260648083019390935291815260a081019181831067ffffffffffffffff841117611df157612756926040525b60018060a01b031690612e5b604051612e1481611dd5565b6020938482527f5361666545524332303a206c6f772d6c6576656c2063616c6c206661696c6564858301526000808587829751910182855af1612e55612482565b91612f32565b805180612e69575b50505050565b818491810103126102c857820151908115918215036104fa5750612e8f57808080612e63565b6084906040519062461bcd60e51b82526004820152602a60248201527f5361666545524332303a204552433230206f7065726174696f6e20646964206e6044820152691bdd081cdd58d8d9595960b21b6064820152fd5b15612eed57565b60405162461bcd60e51b815260206004820152601c60248201527f4552433732313a20746f6b656e20616c7265616479206d696e746564000000006044820152606490fd5b91929015612f945750815115612f46575090565b3b15612f4f5790565b60405162461bcd60e51b815260206004820152601d60248201527f416464726573733a2063616c6c20746f206e6f6e2d636f6e74726163740000006044820152606490fd5b825190915015612fa75750805190602001fd5b60405162461bcd60e51b81526020600482015290819061218b906024830190611ceb565b9190610130612fd8612c42565b612fe0612c42565b93612fe96128aa565b602091828501948551421080613193575b613170575b50828201914283511180613166575b61313d575b5061013394855461013480549761304c61304461303c610135956108868d6108808954426127b8565b8c5190612837565b8651906127b8565b905561306c86613061818c019a8b5190612837565b9501948551906127b8565b9055429055519042821161311a575b5050514281116130f7575b5060009485525260408320805490600160401b8210156130e357906130b091600182018155612c61565b9390936130cf5750816040916002935185555160018501550151910155565b634e487b7160e01b81526004819052602490fd5b634e487b7160e01b85526041600452602485fd5b83519060005261013682526131126040600020918254612837565b905538613086565b5190600052610136835261313460406000209182546127b8565b9055388061307b565b630784ce0061315891510480858901526108804285516127b8565b865242604087015238613013565b508051151561300e565b630784ce0061318b91510480858401526108804288516127b8565b815238612fff565b5080511515612ffa565b156131a457565b60405162461bcd60e51b815260206004820152600d60248201526c496e616374697665204c6f636b60981b6044820152606490fd5b156131e057565b60405162461bcd60e51b815260206004820152601960248201527f4e6f7420746865206f776e6572206f6620746865206c6f636b000000000000006044820152606490fdfea2646970667358221220bd4ff554ed8119f98c64810e91f2cc12dd88acfbbf6487e7d6632e43de9d56ad64736f6c63430008130033",
  "linkReferences": {},
  "deployedLinkReferences": {}
}