{
  "_format": "hh-sol-artifact-1",
  "contractName": "VotingEscrow",
  "sourceName": "contracts/protocol/VotingEscrow.sol",
  "abi": [
    {
      "inputs": [],
      "stateMutability": "nonpayable",
      "type": "constructor"
    },
    {
      "anonymous": false,
      "inputs": [
        {
          "indexed": true,
          "internalType": "address",
          "name": "owner",
          "type": "address"
        },
        {
          "indexed": true,
          "internalType": "address",
          "name": "approved",
          "type": "address"
        },
        {
          "indexed": true,
          "internalType": "uint256",
          "name": "tokenId",
          "type": "uint256"
        }
      ],
      "name": "Approval",
      "type": "event"
    },
    {
      "anonymous": false,
      "inputs": [
        {
          "indexed": true,
          "internalType": "address",
          "name": "owner",
          "type": "address"
        },
        {
          "indexed": true,
          "internalType": "address",
          "name": "operator",
          "type": "address"
        },
        {
          "indexed": false,
          "internalType": "bool",
          "name": "approved",
          "type": "bool"
        }
      ],
      "name": "ApprovalForAll",
      "type": "event"
    },
    {
      "anonymous": false,
      "inputs": [
        {
          "indexed": false,
          "internalType": "uint8",
          "name": "version",
          "type": "uint8"
        }
      ],
      "name": "Initialized",
      "type": "event"
    },
    {
      "anonymous": false,
      "inputs": [
        {
          "indexed": true,
          "internalType": "address",
          "name": "previousOwner",
          "type": "address"
        },
        {
          "indexed": true,
          "internalType": "address",
          "name": "newOwner",
          "type": "address"
        }
      ],
      "name": "OwnershipTransferred",
      "type": "event"
    },
    {
      "anonymous": false,
      "inputs": [
        {
          "indexed": true,
          "internalType": "address",
          "name": "from",
          "type": "address"
        },
        {
          "indexed": true,
          "internalType": "address",
          "name": "to",
          "type": "address"
        },
        {
          "indexed": true,
          "internalType": "uint256",
          "name": "tokenId",
          "type": "uint256"
        }
      ],
      "name": "Transfer",
      "type": "event"
    },
    {
      "inputs": [],
      "name": "EPOCH_PERIOD",
      "outputs": [
        {
          "internalType": "uint256",
          "name": "",
          "type": "uint256"
        }
      ],
      "stateMutability": "view",
      "type": "function"
    },
    {
      "inputs": [],
      "name": "MAXLOCKTIME",
      "outputs": [
        {
          "internalType": "uint256",
          "name": "",
          "type": "uint256"
        }
      ],
      "stateMutability": "view",
      "type": "function"
    },
    {
      "inputs": [],
      "name": "MINLOCKTIME",
      "outputs": [
        {
          "internalType": "uint256",
          "name": "",
          "type": "uint256"
        }
      ],
      "stateMutability": "view",
      "type": "function"
    },
    {
      "inputs": [
        {
          "internalType": "address",
          "name": "to",
          "type": "address"
        },
        {
          "internalType": "uint256",
          "name": "tokenId",
          "type": "uint256"
        }
      ],
      "name": "approve",
      "outputs": [],
      "stateMutability": "nonpayable",
      "type": "function"
    },
    {
      "inputs": [
        {
          "internalType": "address",
          "name": "owner",
          "type": "address"
        }
      ],
      "name": "balanceOf",
      "outputs": [
        {
          "internalType": "uint256",
          "name": "",
          "type": "uint256"
        }
      ],
      "stateMutability": "view",
      "type": "function"
    },
    {
      "inputs": [
        {
          "internalType": "uint256",
          "name": "tokenId",
          "type": "uint256"
        }
      ],
      "name": "claimRebates",
      "outputs": [
        {
          "internalType": "uint256",
          "name": "",
          "type": "uint256"
        }
      ],
      "stateMutability": "nonpayable",
      "type": "function"
    },
    {
      "inputs": [
        {
          "internalType": "address",
          "name": "receiver",
          "type": "address"
        },
        {
          "internalType": "uint256",
          "name": "amount",
          "type": "uint256"
        },
        {
          "internalType": "uint256",
          "name": "unlockTime",
          "type": "uint256"
        }
      ],
      "name": "createLock",
      "outputs": [],
      "stateMutability": "nonpayable",
      "type": "function"
    },
    {
      "inputs": [
        {
          "internalType": "uint256",
          "name": "timestamp",
          "type": "uint256"
        }
      ],
      "name": "epoch",
      "outputs": [
        {
          "internalType": "uint256",
          "name": "",
          "type": "uint256"
        }
      ],
      "stateMutability": "view",
      "type": "function"
    },
    {
      "inputs": [],
      "name": "epochPeriod",
      "outputs": [
        {
          "internalType": "uint256",
          "name": "",
          "type": "uint256"
        }
      ],
      "stateMutability": "pure",
      "type": "function"
    },
    {
      "inputs": [
        {
          "internalType": "uint256",
          "name": "_epoch",
          "type": "uint256"
        }
      ],
      "name": "epochTimestamp",
      "outputs": [
        {
          "internalType": "uint256",
          "name": "",
          "type": "uint256"
        }
      ],
      "stateMutability": "view",
      "type": "function"
    },
    {
      "inputs": [
        {
          "internalType": "uint256",
          "name": "tokenId",
          "type": "uint256"
        }
      ],
      "name": "getApproved",
      "outputs": [
        {
          "internalType": "address",
          "name": "",
          "type": "address"
        }
      ],
      "stateMutability": "view",
      "type": "function"
    },
    {
      "inputs": [
        {
          "internalType": "uint256",
          "name": "tokenId",
          "type": "uint256"
        },
        {
          "internalType": "uint256",
          "name": "index",
          "type": "uint256"
        }
      ],
      "name": "getLockHistoryPoint",
      "outputs": [
        {
          "components": [
            {
              "internalType": "uint256",
              "name": "bias",
              "type": "uint256"
            },
            {
              "internalType": "uint256",
              "name": "slope",
              "type": "uint256"
            },
            {
              "internalType": "uint256",
              "name": "timestamp",
              "type": "uint256"
            }
          ],
          "internalType": "struct DataTypes.Point",
          "name": "",
          "type": "tuple"
        }
      ],
      "stateMutability": "view",
      "type": "function"
    },
    {
      "inputs": [
        {
          "internalType": "uint256",
          "name": "_epoch",
          "type": "uint256"
        }
      ],
      "name": "getLockedRatioAt",
      "outputs": [
        {
          "internalType": "uint256",
          "name": "",
          "type": "uint256"
        }
      ],
      "stateMutability": "nonpayable",
      "type": "function"
    },
    {
      "inputs": [
        {
          "internalType": "uint256",
          "name": "tokenId",
          "type": "uint256"
        },
        {
          "internalType": "uint256",
          "name": "amount",
          "type": "uint256"
        }
      ],
      "name": "increaseAmount",
      "outputs": [],
      "stateMutability": "nonpayable",
      "type": "function"
    },
    {
      "inputs": [
        {
          "internalType": "uint256",
          "name": "tokenId",
          "type": "uint256"
        },
        {
          "internalType": "uint256",
          "name": "newUnlockTime",
          "type": "uint256"
        }
      ],
      "name": "increaseUnlockTime",
      "outputs": [],
      "stateMutability": "nonpayable",
      "type": "function"
    },
    {
      "inputs": [
        {
          "internalType": "contract IAddressesProvider",
          "name": "addressProvider",
          "type": "address"
        },
        {
          "internalType": "string",
          "name": "name",
          "type": "string"
        },
        {
          "internalType": "string",
          "name": "symbol",
          "type": "string"
        }
      ],
      "name": "initialize",
      "outputs": [],
      "stateMutability": "nonpayable",
      "type": "function"
    },
    {
      "inputs": [
        {
          "internalType": "address",
          "name": "owner",
          "type": "address"
        },
        {
          "internalType": "address",
          "name": "operator",
          "type": "address"
        }
      ],
      "name": "isApprovedForAll",
      "outputs": [
        {
          "internalType": "bool",
          "name": "",
          "type": "bool"
        }
      ],
      "stateMutability": "view",
      "type": "function"
    },
    {
      "inputs": [
        {
          "internalType": "uint256",
          "name": "tokenId",
          "type": "uint256"
        }
      ],
      "name": "lockHistoryLength",
      "outputs": [
        {
          "internalType": "uint256",
          "name": "",
          "type": "uint256"
        }
      ],
      "stateMutability": "view",
      "type": "function"
    },
    {
      "inputs": [
        {
          "internalType": "uint256",
          "name": "tokenId",
          "type": "uint256"
        }
      ],
      "name": "lockWeight",
      "outputs": [
        {
          "internalType": "uint256",
          "name": "",
          "type": "uint256"
        }
      ],
      "stateMutability": "view",
      "type": "function"
    },
    {
      "inputs": [
        {
          "internalType": "uint256",
          "name": "tokenId",
          "type": "uint256"
        }
      ],
      "name": "locked",
      "outputs": [
        {
          "components": [
            {
              "internalType": "uint256",
              "name": "amount",
              "type": "uint256"
            },
            {
              "internalType": "uint256",
              "name": "end",
              "type": "uint256"
            }
          ],
          "internalType": "struct DataTypes.LockedBalance",
          "name": "",
          "type": "tuple"
        }
      ],
      "stateMutability": "view",
      "type": "function"
    },
    {
      "inputs": [],
      "name": "name",
      "outputs": [
        {
          "internalType": "string",
          "name": "",
          "type": "string"
        }
      ],
      "stateMutability": "view",
      "type": "function"
    },
    {
      "inputs": [],
      "name": "owner",
      "outputs": [
        {
          "internalType": "address",
          "name": "",
          "type": "address"
        }
      ],
      "stateMutability": "view",
      "type": "function"
    },
    {
      "inputs": [
        {
          "internalType": "uint256",
          "name": "tokenId",
          "type": "uint256"
        }
      ],
      "name": "ownerOf",
      "outputs": [
        {
          "internalType": "address",
          "name": "",
          "type": "address"
        }
      ],
      "stateMutability": "view",
      "type": "function"
    },
    {
      "inputs": [],
      "name": "renounceOwnership",
      "outputs": [],
      "stateMutability": "nonpayable",
      "type": "function"
    },
    {
      "inputs": [
        {
          "internalType": "address",
          "name": "from",
          "type": "address"
        },
        {
          "internalType": "address",
          "name": "to",
          "type": "address"
        },
        {
          "internalType": "uint256",
          "name": "tokenId",
          "type": "uint256"
        }
      ],
      "name": "safeTransferFrom",
      "outputs": [],
      "stateMutability": "nonpayable",
      "type": "function"
    },
    {
      "inputs": [
        {
          "internalType": "address",
          "name": "from",
          "type": "address"
        },
        {
          "internalType": "address",
          "name": "to",
          "type": "address"
        },
        {
          "internalType": "uint256",
          "name": "tokenId",
          "type": "uint256"
        },
        {
          "internalType": "bytes",
          "name": "data",
          "type": "bytes"
        }
      ],
      "name": "safeTransferFrom",
      "outputs": [],
      "stateMutability": "nonpayable",
      "type": "function"
    },
    {
      "inputs": [
        {
          "internalType": "address",
          "name": "operator",
          "type": "address"
        },
        {
          "internalType": "bool",
          "name": "approved",
          "type": "bool"
        }
      ],
      "name": "setApprovalForAll",
      "outputs": [],
      "stateMutability": "nonpayable",
      "type": "function"
    },
    {
      "inputs": [
        {
          "internalType": "uint256",
          "name": "amount",
          "type": "uint256"
        },
        {
          "internalType": "uint256",
          "name": "end",
          "type": "uint256"
        }
      ],
      "name": "simulateLock",
      "outputs": [
        {
          "internalType": "uint256",
          "name": "",
          "type": "uint256"
        }
      ],
      "stateMutability": "view",
      "type": "function"
    },
    {
      "inputs": [
        {
          "internalType": "bytes4",
          "name": "interfaceId",
          "type": "bytes4"
        }
      ],
      "name": "supportsInterface",
      "outputs": [
        {
          "internalType": "bool",
          "name": "",
          "type": "bool"
        }
      ],
      "stateMutability": "view",
      "type": "function"
    },
    {
      "inputs": [],
      "name": "symbol",
      "outputs": [
        {
          "internalType": "string",
          "name": "",
          "type": "string"
        }
      ],
      "stateMutability": "view",
      "type": "function"
    },
    {
      "inputs": [
        {
          "internalType": "uint256",
          "name": "index",
          "type": "uint256"
        }
      ],
      "name": "tokenByIndex",
      "outputs": [
        {
          "internalType": "uint256",
          "name": "",
          "type": "uint256"
        }
      ],
      "stateMutability": "view",
      "type": "function"
    },
    {
      "inputs": [
        {
          "internalType": "address",
          "name": "owner",
          "type": "address"
        },
        {
          "internalType": "uint256",
          "name": "index",
          "type": "uint256"
        }
      ],
      "name": "tokenOfOwnerByIndex",
      "outputs": [
        {
          "internalType": "uint256",
          "name": "",
          "type": "uint256"
        }
      ],
      "stateMutability": "view",
      "type": "function"
    },
    {
      "inputs": [
        {
          "internalType": "uint256",
          "name": "tokenId",
          "type": "uint256"
        }
      ],
      "name": "tokenURI",
      "outputs": [
        {
          "internalType": "string",
          "name": "",
          "type": "string"
        }
      ],
      "stateMutability": "view",
      "type": "function"
    },
    {
      "inputs": [],
      "name": "totalSupply",
      "outputs": [
        {
          "internalType": "uint256",
          "name": "",
          "type": "uint256"
        }
      ],
      "stateMutability": "view",
      "type": "function"
    },
    {
      "inputs": [],
      "name": "totalWeight",
      "outputs": [
        {
          "internalType": "uint256",
          "name": "",
          "type": "uint256"
        }
      ],
      "stateMutability": "nonpayable",
      "type": "function"
    },
    {
      "inputs": [
        {
          "internalType": "uint256",
          "name": "_epoch",
          "type": "uint256"
        }
      ],
      "name": "totalWeightAt",
      "outputs": [
        {
          "internalType": "uint256",
          "name": "",
          "type": "uint256"
        }
      ],
      "stateMutability": "nonpayable",
      "type": "function"
    },
    {
      "inputs": [
        {
          "internalType": "address",
          "name": "from",
          "type": "address"
        },
        {
          "internalType": "address",
          "name": "to",
          "type": "address"
        },
        {
          "internalType": "uint256",
          "name": "tokenId",
          "type": "uint256"
        }
      ],
      "name": "transferFrom",
      "outputs": [],
      "stateMutability": "nonpayable",
      "type": "function"
    },
    {
      "inputs": [
        {
          "internalType": "address",
          "name": "newOwner",
          "type": "address"
        }
      ],
      "name": "transferOwnership",
      "outputs": [],
      "stateMutability": "nonpayable",
      "type": "function"
    },
    {
      "inputs": [
        {
          "internalType": "address",
          "name": "user",
          "type": "address"
        }
      ],
      "name": "userWeight",
      "outputs": [
        {
          "internalType": "uint256",
          "name": "",
          "type": "uint256"
        }
      ],
      "stateMutability": "view",
      "type": "function"
    },
    {
      "inputs": [
        {
          "internalType": "uint256",
          "name": "tokenId",
          "type": "uint256"
        }
      ],
      "name": "withdraw",
      "outputs": [],
      "stateMutability": "nonpayable",
      "type": "function"
    },
    {
      "inputs": [],
      "name": "writeTotalWeightHistory",
      "outputs": [],
      "stateMutability": "nonpayable",
      "type": "function"
    }
  ],
  "bytecode": "0x60808060405234620000c6576000549060ff8260081c1662000074575060ff8082161062000038575b604051613e729081620000cc8239f35b60ff90811916176000557f7f26b83ff96e1f2b6a682f133852f6798a09c465da95921460cefb3847402498602060405160ff8152a13862000028565b62461bcd60e51b815260206004820152602760248201527f496e697469616c697a61626c653a20636f6e747261637420697320696e697469604482015266616c697a696e6760c81b6064820152608490fd5b600080fdfe608080604052600436101561001357600080fd5b60003560e01c90816301ffc9a71461225d5750806306fdde03146121b7578063081812fc14612199578063095ea7b31461201f57806318160ddd1461200157806323b872dd14611fdd5780632e1a7d4d14611b065780632f745c5914611adf57806332da089e14611ac157806342842e0e14611a8e5780634ba4146c14611a1a5780634f6ccce71461198957806353be568d1461190d5780635487c577146118ef578063589d7c54146118865780636352211e1461185657806364a1b95b14611801578063650e1505146114bc5780636a7e33041461149e57806370a082311461147b57806370be21911461145c578063715018a6146113ff57806374421486146113d257806387da75ef146113b95780638da5cb5b146113905780639065714714610e0a57806395d89b4114610d2857806396c82e5714610ce65780639c511ad4146108645780639d507b8b14610ba8578063a22cb46514610ad6578063acb4cbdd14610ab8578063b2383e5514610971578063b263bb3b146108e2578063b45a3c0e14610881578063b5b7a18414610864578063b88d4fde146107de578063c87b56dd146102ea578063d8976586146102cc578063e985e9c5146102765763f2fde38b146101e257600080fd5b34610271576020366003190112610271576101fb61233f565b6102036124c3565b6001600160a01b0381161561021d5761021b9061251b565b005b60405162461bcd60e51b815260206004820152602660248201527f4f776e61626c653a206e6577206f776e657220697320746865207a65726f206160448201526564647265737360d01b6064820152608490fd5b600080fd5b346102715760403660031901126102715761028f61233f565b610297612355565b9060018060a01b03809116600052606a60205260406000209116600052602052602060ff604060002054166040519015158152f35b34610271576000366003190112610271576020604051621275008152f35b34610271576020806003193601126102715761077460043561050260956103108361306c565b6103198461306c565b8460005261050762204c4560e81b61050261013b61012f94858c528b61034360406000205461306c565b6040519586937f3c73766720786d6c6e733d22687474703a2f2f7777772e77332e6f72672f3230848601527f30302f737667222076696577426f783d2230203020343030203430302220737460408601527f796c653d2277696474683a313030253b6261636b67726f756e643a236561656160608601527f65613b66696c6c3a626c61636b3b666f6e742d66616d696c793a6d6f6e6f737060808601526430b1b2911f60d91b60a08601527f3c7465787420783d223530252220793d223330252220746578742d616e63686f60a58601527f723d226d6964646c652220666f6e742d73697a653d223138223e00000000000060c58601526a76654c45204c6f636b202360a81b60df860152610461815180928660ea890191016122f7565b840191661e17ba32bc3a1f60c91b928360ea8201527f3c7465787420783d223530252220793d223530252220746578742d616e63686f60f18201527f723d226d6964646c652220666f6e742d73697a653d223134223e0000000000006101118201526104d88251809361012b9788850191016122f7565b019283015261012e820152651e17b9bb339f60d11b6101358201520361011b81018452018261244e565b612f26565b8560005281885261051f60016040600020015461306c565b9161053161052c886135f5565b61306c565b966000528852610651609461054a60406000205461306c565b976040519889918c808401977f7b202274726169745f74797065223a2022656e64222c202276616c7565223a208952601160f91b604086015261059681518092846041890191016122f7565b8401916308881f4b60e21b928360418201527f7b202274726169745f74797065223a2022776569676874222c202276616c756560458201526105f063111d101160e11b9384606584015283519384916069850191016122f7565b019160698301527f7b202274726169745f74797065223a2022616d6f756e74222c202276616c7565606d830152608d8201526106368d83519384916091850191016122f7565b016222207d60e81b609182015203607481018952018761244e565b610751604051968794607b60f81b8b87015273226e616d65223a202276654c45204c6f636b202360601b6021870152610693815180928d60358a0191016122f7565b85019261088b60f21b938460358201527f226465736372697074696f6e223a2022566f746520457363726f776564204c4560378201526608131bd8dac88b60ca1b60578201526801134b6b0b3b2911d160bd1b605e8201527f22646174613a696d6167652f7376672b786d6c3b6261736536342c000000000060678201526107258c83519384916082850191016122f7565b019260828401526e2261747472696275746573223a205b60881b608484015251809360938401906122f7565b01605d60f81b6093820152607d60f81b609482015203607581018452018261244e565b906107c6603d60405180947f646174613a6170706c69636174696f6e2f6a736f6e3b6261736536342c000000858301526107b6815180928786860191016122f7565b810103601d81018552018361244e565b6107da60405192828493845283019061231a565b0390f35b34610271576080366003190112610271576107f761233f565b6107ff612355565b906064359060443567ffffffffffffffff831161027157366023840112156102715761021b9361083c61085f94369060248160040135910161248c565b9261084f61084a843361279e565b6126c5565b61085a838383612866565b612ba6565b61277a565b34610271576000366003190112610271576020604051610e108152f35b3461027157602036600319011261027157600060206040516108a2816123e4565b828152015260043560005261012f60205260408060002081516108c4816123e4565b60206001835493848452015491019081528251918252516020820152f35b346102715760203660031901126102715760043561090a61090242612e3d565b82111561359e565b6109126131dd565b61091b81612ce6565b90549060031b1c906127109182810292818404149015171561095b5760209161094661095392612d1d565b90549060031b1c90612e10565b604051908152f35b634e487b7160e01b600052601160045260246000fd5b346102715761097f366123a0565b610987613665565b8160005261012f610a3d6020938285526109aa6001604060002001544210613ab1565b6109b381612627565b6001600160a01b0393906109ca9085163314613aed565b6109d382613b39565b50816000528086526040600020906001604051926109f0846123e4565b80548452015487830152826000528087526040600020610a11878254612eaf565b9055826000528652604060002091600160405193610a2e856123e4565b805485520154878401526138df565b6004838261012d5416604051928380926315b9ba5d60e01b82525afa908115610aac57610a7894600092610a7f575b505030913391166136bb565b600160fb55005b610a9e9250803d10610aa5575b610a96818361244e565b8101906131be565b8480610a6c565b503d610a8c565b6040513d6000823e3d90fd5b34610271576020366003190112610271576020610953600435613b39565b3461027157604036600319011261027157610aef61233f565b60243590811515809203610271576001600160a01b031690338214610b635733600052606a602052604060002082600052602052604060002060ff1981541660ff83161790556040519081527f17307eab39ab6107e8899845ad3d59bd9653f200f220920489ca2b5937696c3160203392a3005b60405162461bcd60e51b815260206004820152601960248201527f4552433732313a20617070726f766520746f2063616c6c6572000000000000006044820152606490fd5b3461027157610bb6366123a0565b90610bbf613665565b610bdb610bcb82612627565b6001600160a01b03163314613aed565b8060005261012f602091818352610bfb6001604060002001544210613ab1565b610e1080940484810294818604149015171561095b5780600052818352600160406000200154841115610ca157630784ce009342850180951161095b57610c47610a78958211156134e1565b610c5082613b39565b5081600052828452604060002092600160405194610c6d866123e4565b8054865201548585015282600052845260406000209381600186015560405194610c96866123e4565b5485528401526138df565b60405162461bcd60e51b815260048101849052601b60248201527f4c6f636b2074696d652063616e206f6e6c7920696e63726561736500000000006044820152606490fd5b3461027157600036600319011261027157610cff6131dd565b602061095361013554610d2261013654610d1c6101375442612e30565b90612ebc565b90612e30565b34610271576000366003190112610271576040516000606654610d4a8161264d565b80845290600190818116908115610de35750600114610d88575b6107da84610d748186038261244e565b60405191829160208352602083019061231a565b6066600090815292507f46501879b8ca8525e8c2fd519e2fbfcfa2ebea26501294aa02cbfcfb12e943545b828410610dcb575050508101602001610d7482610d64565b80546020858701810191909152909301928101610db3565b60ff191660208087019190915292151560051b85019092019250610d749150839050610d64565b34610271576060366003190112610271576004356001600160a01b038116908190036102715767ffffffffffffffff906024803583811161027157610e539036906004016123b6565b92909360443581811161027157610e6e9036906004016123b6565b906000549660ff8860081c161596878098611383575b801561136c575b1561131157610ebc9291610eb49160019a8a8c60ff198316176000556112ff575b50369161248c565b92369161248c565b610ed660ff60005460081c16610ed181612db0565b612db0565b81518381116112ea5780610eeb60655461264d565b93601f9485811161127a575b506020908583116001146111f8576000926111ed575b5050600019600383901b1c191690881b176065555b80519283116111d857908291610f3960665461264d565b828111611166575b5060209183116001146110e4576000926110d9575b5050600019600383901b1c191690851b176066555b610f8960ff60005460081c16610f8081612db0565b610ed181612db0565b610f923361251b565b61012d80546001600160a01b03191690911790554261012e556101328054600160401b91828210156110c4578582019055610fcc90612d54565b92908054600019809560031b1b19169055604051610fe981612416565b60008152600060208201526040429101526000610135556000610136554261013755610133805490838210156110af57868201905561102790612d1d565b8482549160031b1b191690556101349081549283101561109b5750848201905561105090612ce6565b909182549160031b1b1916905561106357005b60207f7f26b83ff96e1f2b6a682f133852f6798a09c465da95921460cefb38474024989161ff001960005416600055604051908152a1005b634e487b7160e01b60009081526041600452fd5b82634e487b7160e01b60005260416004526000fd5b83634e487b7160e01b60005260416004526000fd5b015190508680610f56565b90879350601f1983169160666000527f46501879b8ca8525e8c2fd519e2fbfcfa2ebea26501294aa02cbfcfb12e943549260005b81811061114e57508411611135575b505050811b01606655610f6b565b015160001960f88460031b161c19169055868080611127565b8284015185558a969094019360209384019301611118565b9091925060666000527f46501879b8ca8525e8c2fd519e2fbfcfa2ebea26501294aa02cbfcfb12e943548380860160051c820192602087106111cf575b9186958b929594930160051c01915b8281106111c0575050610f41565b600081558695508a91016111b2565b925081926111a3565b84634e487b7160e01b60005260416004526000fd5b015190508980610f0d565b908a9350601f1983169160656000527f8ff97419363ffd7000167f130ef7168fbea05faf9251824ca5043f113cc6a7c79260005b81811061126257508411611249575b505050811b01606555610f22565b015160001960f88460031b161c1916905589808061123b565b8284015185558d96909401936020938401930161122c565b90915060656000527f8ff97419363ffd7000167f130ef7168fbea05faf9251824ca5043f113cc6a7c78580850160051c820192602086106112e1575b918c91869594930160051c01915b8281106112d2575050610ef7565b600081558594508c91016112c4565b925081926112b6565b85634e487b7160e01b60005260416004526000fd5b61ffff1916610101176000558b610eac565b60405162461bcd60e51b815260206004820152602e818901527f496e697469616c697a61626c653a20636f6e747261637420697320616c72656160448201526d191e481a5b9a5d1a585b1a5e995960921b6064820152608490fd5b50303b158015610e8b5750600160ff8a1614610e8b565b50600160ff8a1610610e84565b346102715760003660031901126102715760c9546040516001600160a01b039091168152602090f35b346102715760003660031901126102715761021b6131dd565b34610271576020366003190112610271576004356000526101316020526020604060002054604051908152f35b34610271576000366003190112610271576114186124c3565b60c980546001600160a01b031981169091556000906001600160a01b03167f8be0079c531659141344cd1fd0a4f28419497f9722a3daafe3b4186f6b6457e08280a3005b34610271576000366003190112610271576020604051630784ce008152f35b3461027157602036600319011261027157602061095361149961233f565b612564565b346102715760203660031901126102715760206109536004356135f5565b34610271576060366003190112610271576114d561233f565b6114dd613665565b610e10806044350490818181020481148215171561095b576024928335156117bd57621275004281018091116117645761151b908385021015613486565b630784ce00428101809111611764576115389083850211156134e1565b6101398054916040519061154b82612432565b600082526001600160a01b0381161561177957611665918461085f9261158f61158983600052606760205260018060a01b0360406000205416151590565b156137fa565b60995482600052609a6020526040600020556115aa82612d8b565b6115b381612564565b6001600160a01b038281166000908152609760209081526040808320858452825280832087905586835260988252808320949094556067905291909120546115fd91161515611589565b6001600160a01b0381166000818152606860209081526040808320805460010190558583526067909152812080546001600160a01b031916831790558391907fddf252ad1be2c89b69c2b068fc378daa952ba7f163c4a11628f55a4df523b3ef8180a4612aab565b6001815401905561167542612e3d565b600181018091116117645791816116f693600496959360005261013060205260406000205561012f91826020526040600020926001604051946116b7866123e4565b8054865201546020850152826000526020526040600020863581556001828602910155604051936116e7856123e4565b863585520260208401526138df565b61012d546040516315b9ba5d60e01b81529260209184919082906001600160a01b03165afa908115610aac57610a7892600092611743575b503590309033906001600160a01b03166136bb565b61175d91925060203d602011610aa557610a96818361244e565b908361172e565b84634e487b7160e01b60005260116004526000fd5b60405162461bcd60e51b8152602060048201819052818901527f4552433732313a206d696e7420746f20746865207a65726f20616464726573736044820152606490fd5b60405162461bcd60e51b815260206004820152601d818601527f416d6f756e74206d7573742062652067726561746572207468616e20300000006044820152606490fd5b3461027157606061183a611834611817366123a0565b9061182061353b565b50600052610131602052604060002061355a565b50613576565b6040805191805183526020810151602084015201516040820152f35b34610271576020366003190112610271576020611874600435612627565b6040516001600160a01b039091168152f35b346102715760203660031901126102715761189f61233f565b60006118aa82612564565b6000925b8184106118c057602083604051908152f35b90916118e16118e7916118db6118d68786612c21565b6135f5565b90612eaf565b936131af565b9291906118ae565b34610271576020366003190112610271576020610953600435612e3d565b346102715760203660031901126102715760043561192d61090242612e3d565b6119356131dd565b610132908154811015611973576020916000527fc53bdfd4aa1ab65dfdaf681ca6bda958ae4a123d4ed68c4277796592280e78350154604051908152f35b634e487b7160e01b600052603260045260246000fd5b34610271576020366003190112610271576004356099548110156119c0576119b2602091612caf565b90546040519160031b1c8152f35b60405162461bcd60e51b815260206004820152602c60248201527f455243373231456e756d657261626c653a20676c6f62616c20696e646578206f60448201526b7574206f6620626f756e647360a01b6064820152608490fd5b3461027157611a28366123a0565b610e1080910481810291818304149015171561095b576212750042810180911161095b57611a5890821015613486565b630784ce00904282019283831161095b57610d1c82611a7e602096611a859511156134e1565b4290612e30565b04604051908152f35b346102715761021b61085f611aa23661236b565b9060405192611ab084612432565b6000845261084f61084a843361279e565b34610271576020366003190112610271576020610953600435612ecf565b34610271576040366003190112610271576020610953611afd61233f565b60243590612c21565b346102715760208060031936011261027157600435611b2481612627565b6001600160a01b0390611b3a9082163314613aed565b8160005261012f80845260406000205415611fa25782600052808452600160406000200154421115611f665760049061012d858482541660405194858092632c6f4d6f60e11b82525afa8015610aac578493600091611f49575b50866040518092631065956f60e31b8252886004830152816024988992165afa908115610aac57600091611f1c575b50611ed857908583600493611bd788613b39565b5087600052838352604060002093600160405195611bf4876123e4565b8054875201548486015288600052835260006001604082208281550155611c31604051611c20816123e4565b60008152600085820152858a6138df565b5416604051938480926315b9ba5d60e01b82525afa918215610aac57611c9f92611c8b928592600092611eb5575b50516040805163a9059cbb60e01b8b82015233898201908152602081019390935294611c999286920190565b03601f19810185528461244e565b16613710565b611ca883612627565b8082169081611e0457505060995483600052609a8552604060002055611ccd83612d8b565b6099546000199290838101908111611def5784600052609a8652611cf660406000205491612caf565b90549060031b1c611d2381611d0a84612caf565b90919082549060031b91821b91600019901b1916179055565b600052609a86526040600020558360005260006040812055609954908115611ddb5750600093948360679201611d5881612caf565b8682549160031b1b19169055609955611d7086612627565b928686526069825260408620936bffffffffffffffffffffffff60a01b948581541690551693848652606882526040862090815401905585855252604083209081541690557fddf252ad1be2c89b69c2b068fc378daa952ba7f163c4a11628f55a4df523b3ef8280a4005b634e487b7160e01b60009081526031600452fd5b50634e487b7160e01b60009081526011600452fd5b611e0d90612564565b600019810191908211611ea0578460005260988652604060002054828103611e5a575b50846000526000604081205560005260978552604060002090600052845260006040812055611ccd565b8160005260978752604060002083600052875260406000205482600052609788526040600020826000528852806040600020556000526098875260406000205586611e30565b83634e487b7160e01b60005260116004526000fd5b611c99919250611ed1908a3d8c11610aa557610a96818361244e565b9190611c5f565b60405162461bcd60e51b815260048101879052601b818601527f4c6f636b206861732061637469766520676175676520766f74657300000000006044820152606490fd5b90508681813d8311611f42575b611f33818361244e565b81010312610271575187611bc3565b503d611f29565b611f609150873d8911610aa557610a96818361244e565b87611b94565b60405162461bcd60e51b81526004810185905260146024820152732637b1b5ba34b6b29034b9903737ba1037bb32b960611b6044820152606490fd5b60405162461bcd60e51b81526004810185905260136024820152724e6f7468696e6720746f20776974686472617760681b6044820152606490fd5b346102715761021b611fee3661236b565b91611ffc61084a843361279e565b612866565b34610271576000366003190112610271576020609954604051908152f35b346102715760403660031901126102715761203861233f565b602435906001600160a01b03808061204f85612627565b1692169180831461214a57803314908115612125575b50156120ba57600083815260696020526040902080546001600160a01b0319168317905561209283612627565b167f8c5be1e5ebec7d5bd14f71427d1e84f3dd0314c0f7b2291e5b200ac8c7c3b925600080a4005b60405162461bcd60e51b815260206004820152603d60248201527f4552433732313a20617070726f76652063616c6c6572206973206e6f7420746f60448201527f6b656e206f776e6572206f7220617070726f76656420666f7220616c6c0000006064820152608490fd5b9050600052606a60205260406000203360005260205260ff6040600020541684612065565b60405162461bcd60e51b815260206004820152602160248201527f4552433732313a20617070726f76616c20746f2063757272656e74206f776e656044820152603960f91b6064820152608490fd5b34610271576020366003190112610271576020611874600435612687565b346102715760003660031901126102715760405160006065546121d98161264d565b80845290600190818116908115610de35750600114612202576107da84610d748186038261244e565b6065600090815292507f8ff97419363ffd7000167f130ef7168fbea05faf9251824ca5043f113cc6a7c75b828410612245575050508101602001610d7482610d64565b8054602085870181019190915290930192810161222d565b34610271576020366003190112610271576004359063ffffffff60e01b82168092036102715760209163780e9d6360e01b81149081156122b7575b81156122a6575b5015158152f35b6301ffc9a760e01b1490508361229f565b90506380ac58cd60e01b811480156122e7575b80156122d7575b90612298565b506301ffc9a760e01b81146122d1565b50635b5e139f60e01b81146122ca565b60005b83811061230a5750506000910152565b81810151838201526020016122fa565b90602091612333815180928185528580860191016122f7565b601f01601f1916010190565b600435906001600160a01b038216820361027157565b602435906001600160a01b038216820361027157565b6060906003190112610271576001600160a01b0390600435828116810361027157916024359081168103610271579060443590565b6040906003190112610271576004359060243590565b9181601f840112156102715782359167ffffffffffffffff8311610271576020838186019501011161027157565b6040810190811067ffffffffffffffff82111761240057604052565b634e487b7160e01b600052604160045260246000fd5b6060810190811067ffffffffffffffff82111761240057604052565b6020810190811067ffffffffffffffff82111761240057604052565b90601f8019910116810190811067ffffffffffffffff82111761240057604052565b67ffffffffffffffff811161240057601f01601f191660200190565b92919261249882612470565b916124a6604051938461244e565b829481845281830111610271578281602093846000960137010152565b60c9546001600160a01b031633036124d757565b606460405162461bcd60e51b815260206004820152602060248201527f4f776e61626c653a2063616c6c6572206973206e6f7420746865206f776e65726044820152fd5b60c980546001600160a01b039283166001600160a01b0319821681179092559091167f8be0079c531659141344cd1fd0a4f28419497f9722a3daafe3b4186f6b6457e0600080a3565b6001600160a01b0316801561258457600052606860205260406000205490565b60405162461bcd60e51b815260206004820152602960248201527f4552433732313a2061646472657373207a65726f206973206e6f7420612076616044820152683634b21037bbb732b960b91b6064820152608490fd5b156125e257565b60405162461bcd60e51b815260206004820152601860248201527f4552433732313a20696e76616c696420746f6b656e20494400000000000000006044820152606490fd5b6000908152606760205260409020546001600160a01b031661264a8115156125db565b90565b90600182811c9216801561267d575b602083101461266757565b634e487b7160e01b600052602260045260246000fd5b91607f169161265c565b6000818152606760205260409020546126aa906001600160a01b031615156125db565b6000908152606960205260409020546001600160a01b031690565b156126cc57565b60405162461bcd60e51b815260206004820152602d60248201527f4552433732313a2063616c6c6572206973206e6f7420746f6b656e206f776e6560448201526c1c881bdc88185c1c1c9bdd9959609a1b6064820152608490fd5b60809060208152603260208201527f4552433732313a207472616e7366657220746f206e6f6e20455243373231526560408201527131b2b4bb32b91034b6b83632b6b2b73a32b960711b60608201520190565b1561278157565b60405162461bcd60e51b81528061279a60048201612727565b0390fd5b906001600160a01b0380806127b284612627565b169316918383149384156127e5575b5083156127cf575b50505090565b6127db91929350612687565b16143880806127c9565b909350600052606a60205260406000208260005260205260ff6040600020541692386127c1565b1561281357565b60405162461bcd60e51b815260206004820152602560248201527f4552433732313a207472616e736665722066726f6d20696e636f72726563742060448201526437bbb732b960d91b6064820152608490fd5b61288a9161287384612627565b6001600160a01b039384841693918516841461280c565b838216938415612a2a5783918261298757506128d49260995487600052609a6020526040600020556128bb87612d8b565b828603612954575b506128cd86612627565b161461280c565b7fddf252ad1be2c89b69c2b068fc378daa952ba7f163c4a11628f55a4df523b3ef60008481526069602052604081206bffffffffffffffffffffffff60a01b9081815416905583825260686020526040822060001981540190558482526040822060018154019055858252606760205284604083209182541617905580a4565b61295d90612564565b604060008781526097602052818120838252602052888282205588815260986020522055386128c3565b858303612999575b506128d4926128bb565b6129a4919250612564565b60001981019190821161095b576128d492849260009088825260209060988252604091828420548281036129f3575b508a8452838381205586845260978152828420918452528120559261298f565b87855260978252838520838652825283852054888652609783528486208287528352808587205585526098825283852055386129d3565b60405162461bcd60e51b8152602060048201526024808201527f4552433732313a207472616e7366657220746f20746865207a65726f206164646044820152637265737360e01b6064820152608490fd5b3d15612aa6573d90612a8c82612470565b91612a9a604051938461244e565b82523d6000602084013e565b606090565b9091600091803b15612b9d57612af66020918493604051948580948193630a85bd0160e11b9a8b8452336004850152846024850152604484015260806064840152608483019061231a565b03926001600160a01b03165af190829082612b4e575b5050612b4057612b1a612a7b565b80519081612b3b5760405162461bcd60e51b81528061279a60048201612727565b602001fd5b6001600160e01b0319161490565b909192506020813d8211612b95575b81612b6a6020938361244e565b81010312612b915751906001600160e01b031982168203612b8e5750903880612b0c565b80fd5b5080fd5b3d9150612b5d565b50505050600190565b91926000929190813b15612c1757602091612bfc9185604051958680958194630a85bd0160e11b9b8c845233600485015260018060a01b038095166024850152604484015260806064840152608483019061231a565b0393165af190829082612b4e575050612b4057612b1a612a7b565b5050505050600190565b612c2a81612564565b821015612c565760018060a01b0316600052609760205260406000209060005260205260406000205490565b60405162461bcd60e51b815260206004820152602b60248201527f455243373231456e756d657261626c653a206f776e657220696e646578206f7560448201526a74206f6620626f756e647360a81b6064820152608490fd5b6099548110156119735760996000527f72a152ddfb8e864297c917af52ea6c1c68aead0fee1a62673fcc7e0c94979d000190600090565b6101348054821015611973576000527fe1c588fe1269da19c317f679b04e226f5e48296f9b2c8351127eb010907c472f0190600090565b6101338054821015611973576000527f92e985329fb94cc1b424ebb0f7f2929b6d27383ca94c0ec71c44fb48bdf96d2c0190600090565b6101328054821015611973576000527fc53bdfd4aa1ab65dfdaf681ca6bda958ae4a123d4ed68c4277796592280e78350190600090565b60995490600160401b82101561240057611d0a826001612dae9401609955612caf565b565b15612db757565b60405162461bcd60e51b815260206004820152602b60248201527f496e697469616c697a61626c653a20636f6e7472616374206973206e6f74206960448201526a6e697469616c697a696e6760a81b6064820152608490fd5b8115612e1a570490565b634e487b7160e01b600052601260045260246000fd5b9190820391821161095b57565b61012e549081811115612e5b5761264a91610e108091049104612e30565b60405162461bcd60e51b815260206004820152602660248201527f54696d657374616d70207072696f7220746f20636f6e7472616374206465706c6044820152651bde5b595b9d60d21b6064820152608490fd5b9190820180921161095b57565b8181029291811591840414171561095b57565b612ee1610e10918261012e5404612eaf565b81810291818304149015171561095b5790565b90612efe82612470565b612f0b604051918261244e565b8281528092612f1c601f1991612470565b0190602036910137565b80511561305857604051612f3981612416565b604081527f4142434445464748494a4b4c4d4e4f505152535455565758595a61626364656660208201527f6768696a6b6c6d6e6f707172737475767778797a303132333435363738392b2f6040820152815160029283820180921161095b576003918290046001600160fe1b038116810361095b57612fbb908594951b612ef4565b936020850193829183518401925b8381106130075750505050510680600114612ff457600214612fe9575090565b603d90600019015390565b50603d9081600019820153600119015390565b85600491979293949701918251600190603f9082828260121c16880101518453828282600c1c16880101518385015382828260061c1688010151888501531685010151878201530195929190612fc9565b5060405161306581612432565b6000815290565b806000917a184f03e93ff9f4daa797ed6e38ed64bf6a1f010000000000000000808210156131a1575b506d04ee2d6d415b85acef810000000080831015613192575b50662386f26fc1000080831015613183575b506305f5e10080831015613174575b5061271080831015613165575b506064821015613155575b600a8092101561314b575b600190816021613103828701612ef4565b95860101905b613115575b5050505090565b600019019083906f181899199a1a9b1b9c1cb0b131b232b360811b8282061a83530491821561314657919082613109565b61310e565b91600101916130f2565b91906064600291049101916130e7565b600491939204910191386130dc565b600891939204910191386130cf565b601091939204910191386130c0565b602091939204910191386130ae565b604093508104915038613095565b600019811461095b5760010190565b9081602091031261027157516001600160a01b03811681036102715790565b6101326131ea8154612ecf565b6000905b608082106131fb57505050565b42811161348157610135805490610136613223815493610d2261013795610d1c875489612e30565b91865493600160401b938486101561240057869261324c82611d0a6001998d8b82019055612d54565b555583600052602091610138835260409161326c83600020548254612e30565b905560018060a01b039361012d93858554168451958683816315b9ba5d60e01b9485825260049a8b915afa90811561347657908994939291600091613459575b5083885180926370a0823160e01b8252308c8301528160249d8e92165afa90811561344e57600091613421575b506101348054908882101561340d578692611d0a836132fe938b8a9896019055612ce6565b5416918888518094819382525afa908115613402579082916000916133e5575b50878751809581936318160ddd60e01b8352165afa9485156133db57506000946133aa575b50506101339081549283101561339657820190556133659190611d0a90612d1d565b610e10830180931161338357505061337d90916131af565b906131ee565b601190634e487b7160e01b600052526000fd5b85604186634e487b7160e01b600052526000fd5b8181959293953d83116133d4575b6133c2818361244e565b81010312612b8e575051913880613343565b503d6133b8565b513d6000823e3d90fd5b6133fc9150823d8411610aa557610a96818361244e565b3861331e565b86513d6000823e3d90fd5b8b60418c634e487b7160e01b600052526000fd5b908482813d8311613447575b613437818361244e565b81010312612b8e575051386132d9565b503d61342d565b88513d6000823e3d90fd5b6134709150843d8611610aa557610a96818361244e565b386132ac565b87513d6000823e3d90fd5b505050565b1561348d57565b60405162461bcd60e51b815260206004820152602660248201527f4c6f636b74696d6520736d616c6c6572207468616e206d696e696d756d206c6f604482015265636b74696d6560d01b6064820152608490fd5b156134e857565b60405162461bcd60e51b815260206004820152602560248201527f4c6f636b74696d6520686967686572207468616e206d6178696d756d206c6f636044820152646b74696d6560d81b6064820152608490fd5b6040519061354882612416565b60006040838281528260208201520152565b8054821015611973576000526003602060002091020190600090565b9060405161358381612416565b60406002829480548452600181015460208501520154910152565b156135a557565b60405162461bcd60e51b815260206004820152602260248201527f496e76616c69642065706f63683a2045706f636820696e207468652066757475604482015261726560f01b6064820152608490fd5b600090815261012f6020526001604082200154421161264a57610131602052604081208054600019810192908311613651575061183461264a926136389261355a565b610d22815191610d1c6040602083015192015142612e30565b634e487b7160e01b81526011600452602490fd5b600260fb541461367657600260fb55565b60405162461bcd60e51b815260206004820152601f60248201527f5265656e7472616e637947756172643a207265656e7472616e742063616c6c006044820152606490fd5b6040516323b872dd60e01b60208201526001600160a01b03928316602482015292909116604483015260648083019390935291815260a081019181831067ffffffffffffffff84111761240057612dae926040525b60018060a01b03169061376f604051613728816123e4565b6020938482527f5361666545524332303a206c6f772d6c6576656c2063616c6c206661696c6564858301526000808587829751910182855af1613769612a7b565b91613846565b80518061377d575b50505050565b81849181010312612b915782015190811591821503612b8e57506137a357808080613777565b6084906040519062461bcd60e51b82526004820152602a60248201527f5361666545524332303a204552433230206f7065726174696f6e20646964206e6044820152691bdd081cdd58d8d9595960b21b6064820152fd5b1561380157565b60405162461bcd60e51b815260206004820152601c60248201527f4552433732313a20746f6b656e20616c7265616479206d696e746564000000006044820152606490fd5b919290156138a8575081511561385a575090565b3b156138635790565b60405162461bcd60e51b815260206004820152601d60248201527f416464726573733a2063616c6c20746f206e6f6e2d636f6e74726163740000006044820152606490fd5b8251909150156138bb5750805190602001fd5b60405162461bcd60e51b81526020600482015290819061279a90602483019061231a565b91906101316138ec61353b565b6138f461353b565b936138fd6131dd565b602091828501948551421080613aa7575b613a84575b50828201914283511180613a7a575b613a51575b5061013594855461013680549761396061395861395061013795610d228d610d1c895442612e30565b8c5190612eaf565b865190612e30565b905561398086613975818c019a8b5190612eaf565b950194855190612e30565b90554290555190428211613a2e575b505051428111613a0b575b5060009485525260408320805490600160401b8210156139f757906139c49160018201815561355a565b9390936139e35750816040916002935185555160018501550151910155565b634e487b7160e01b81526004819052602490fd5b634e487b7160e01b85526041600452602485fd5b8351906000526101388252613a266040600020918254612eaf565b90553861399a565b51906000526101388352613a486040600020918254612e30565b9055388061398f565b630784ce00613a6c9151048085890152610d1c428551612e30565b865242604087015238613927565b5080511515613922565b630784ce00613a9f9151048085840152610d1c428851612e30565b815238613913565b508051151561390e565b15613ab857565b60405162461bcd60e51b815260206004820152600d60248201526c496e616374697665204c6f636b60981b6044820152606490fd5b15613af457565b60405162461bcd60e51b815260206004820152601960248201527f4e6f7420746865206f776e6572206f6620746865206c6f636b000000000000006044820152606490fd5b613b4281612627565b6001600160a01b03903390821603613e0257613b5c6131dd565b600091613b6842612e3d565b835b60328110613c1e575b50505081613b7f575090565b600460208261012d5416604051928380926315b9ba5d60e01b82525afa908115610aac57600091613c00575b5016803b1561027157604051635537125d60e11b815233600482015260248101839052906000908290604490829084905af18015610aac57613beb575090565b67ffffffffffffffff81116124005760405290565b613c18915060203d8111610aa557610a96818361244e565b38613bab565b82600052610130602090808252604091826000205485811115613df957613c4481612ce6565b9054600391821b1c151580613dd4575b613c80575b505090613c7b9392918660005252600020613c7481546131af565b90556131af565b613b6a565b82613c8d839b949b612ce6565b905490831b1c8a61012d5416875192838092632c6f4d6f60e11b825260049384915afa92831561344e578d918d8792600096613dad575b509060006024928c519788958694635f0c0f2b60e01b8652850152165af191821561347657918c918b93600092613d77575b50613d5b6118db9461012f613d6c9895613d4b613d1e613c7b9f9e9d9c9a97613d6197612ebc565b613d45613d2a8a612d1d565b9054908a1b1c613d398b612ce6565b9054908b1b1c90612e30565b90612e10565b9260005252896000205490612ebc565b92612ce6565b9054911b1c90612e10565b979091929338613c59565b8381949295503d8311613da6575b613d8f818361244e565b81010312612b8e57505189918c9190613d5b613cf6565b503d613d85565b602492919650613dcb600091863d8811610aa557610a96818361244e565b96919250613cc4565b50613dde82612d1d565b905490821b1c613ded83612ce6565b905490831b1c10613c54565b50505050613b73565b60405162461bcd60e51b81526020600482015260126024820152712737ba1037bbb732b91037b3103a37b5b2b760711b6044820152606490fdfea2646970667358221220f40fcb989ca1e6313a5131a4498ef43e948fc7857abce2925ac02245c1cc6d6364736f6c63430008130033",
  "linkReferences": {},
  "deployedLinkReferences": {}
}