{
  "_format": "hh-sol-artifact-1",
  "contractName": "WETHGateway",
  "sourceName": "contracts/protocol/WETHGateway.sol",
  "abi": [
    {
      "inputs": [
        {
          "internalType": "contract IAddressesProvider",
          "name": "addressesProvider",
          "type": "address"
        },
        {
          "internalType": "contract IWETH",
          "name": "weth",
          "type": "address"
        }
      ],
      "stateMutability": "nonpayable",
      "type": "constructor"
    },
    {
      "stateMutability": "payable",
      "type": "fallback"
    },
    {
      "inputs": [
        {
          "internalType": "uint256",
          "name": "amount",
          "type": "uint256"
        },
        {
          "internalType": "address",
          "name": "nftAddress",
          "type": "address"
        },
        {
          "internalType": "uint256[]",
          "name": "nftTokenIds",
          "type": "uint256[]"
        },
        {
          "internalType": "uint256",
          "name": "genesisNFTId",
          "type": "uint256"
        },
        {
          "internalType": "bytes32",
          "name": "request",
          "type": "bytes32"
        },
        {
          "components": [
            {
              "internalType": "uint8",
              "name": "v",
              "type": "uint8"
            },
            {
              "internalType": "bytes32",
              "name": "r",
              "type": "bytes32"
            },
            {
              "internalType": "bytes32",
              "name": "s",
              "type": "bytes32"
            },
            {
              "internalType": "bytes32",
              "name": "request",
              "type": "bytes32"
            },
            {
              "internalType": "uint256",
              "name": "deadline",
              "type": "uint256"
            },
            {
              "internalType": "bytes",
              "name": "payload",
              "type": "bytes"
            }
          ],
          "internalType": "struct Trustus.TrustusPacket",
          "name": "packet",
          "type": "tuple"
        }
      ],
      "name": "borrow",
      "outputs": [],
      "stateMutability": "nonpayable",
      "type": "function"
    },
    {
      "inputs": [
        {
          "internalType": "address",
          "name": "pool",
          "type": "address"
        },
        {
          "internalType": "uint256[]",
          "name": "nftIds",
          "type": "uint256[]"
        },
        {
          "internalType": "uint256",
          "name": "maximumPrice",
          "type": "uint256"
        }
      ],
      "name": "buy",
      "outputs": [],
      "stateMutability": "payable",
      "type": "function"
    },
    {
      "inputs": [
        {
          "internalType": "address",
          "name": "gauge",
          "type": "address"
        },
        {
          "internalType": "uint256",
          "name": "amount",
          "type": "uint256"
        }
      ],
      "name": "depositBribe",
      "outputs": [],
      "stateMutability": "nonpayable",
      "type": "function"
    },
    {
      "inputs": [
        {
          "internalType": "address",
          "name": "lendingPool",
          "type": "address"
        }
      ],
      "name": "depositLendingPool",
      "outputs": [],
      "stateMutability": "payable",
      "type": "function"
    },
    {
      "inputs": [
        {
          "internalType": "address",
          "name": "pool",
          "type": "address"
        },
        {
          "internalType": "enum DataTypes.LPType",
          "name": "lpType",
          "type": "uint8"
        },
        {
          "internalType": "uint256[]",
          "name": "nftIds",
          "type": "uint256[]"
        },
        {
          "internalType": "uint256",
          "name": "initialPrice",
          "type": "uint256"
        },
        {
          "internalType": "address",
          "name": "curve",
          "type": "address"
        },
        {
          "internalType": "uint256",
          "name": "delta",
          "type": "uint256"
        },
        {
          "internalType": "uint256",
          "name": "fee",
          "type": "uint256"
        }
      ],
      "name": "depositTradingPool",
      "outputs": [],
      "stateMutability": "payable",
      "type": "function"
    },
    {
      "inputs": [
        {
          "internalType": "address",
          "name": "",
          "type": "address"
        },
        {
          "internalType": "address",
          "name": "",
          "type": "address"
        },
        {
          "internalType": "uint256",
          "name": "",
          "type": "uint256"
        },
        {
          "internalType": "bytes",
          "name": "",
          "type": "bytes"
        }
      ],
      "name": "onERC721Received",
      "outputs": [
        {
          "internalType": "bytes4",
          "name": "",
          "type": "bytes4"
        }
      ],
      "stateMutability": "pure",
      "type": "function"
    },
    {
      "inputs": [
        {
          "internalType": "uint256",
          "name": "loanId",
          "type": "uint256"
        }
      ],
      "name": "repay",
      "outputs": [],
      "stateMutability": "payable",
      "type": "function"
    },
    {
      "inputs": [
        {
          "internalType": "address",
          "name": "pool",
          "type": "address"
        },
        {
          "internalType": "uint256[]",
          "name": "nftIds",
          "type": "uint256[]"
        },
        {
          "internalType": "uint256[]",
          "name": "liquidityPairs",
          "type": "uint256[]"
        },
        {
          "internalType": "uint256",
          "name": "minimumPrice",
          "type": "uint256"
        }
      ],
      "name": "sell",
      "outputs": [],
      "stateMutability": "nonpayable",
      "type": "function"
    },
    {
      "inputs": [
        {
          "internalType": "contract ITradingPool",
          "name": "buyPool",
          "type": "address"
        },
        {
          "internalType": "contract ITradingPool",
          "name": "sellPool",
          "type": "address"
        },
        {
          "internalType": "uint256[]",
          "name": "buyNftIds",
          "type": "uint256[]"
        },
        {
          "internalType": "uint256",
          "name": "maximumBuyPrice",
          "type": "uint256"
        },
        {
          "internalType": "uint256[]",
          "name": "sellNftIds",
          "type": "uint256[]"
        },
        {
          "internalType": "uint256[]",
          "name": "sellLps",
          "type": "uint256[]"
        },
        {
          "internalType": "uint256",
          "name": "minimumSellPrice",
          "type": "uint256"
        }
      ],
      "name": "swap",
      "outputs": [],
      "stateMutability": "payable",
      "type": "function"
    },
    {
      "inputs": [
        {
          "internalType": "address",
          "name": "pool",
          "type": "address"
        },
        {
          "internalType": "uint256[]",
          "name": "lpIds",
          "type": "uint256[]"
        }
      ],
      "name": "withdrawBatchTradingPool",
      "outputs": [],
      "stateMutability": "nonpayable",
      "type": "function"
    },
    {
      "inputs": [
        {
          "internalType": "address",
          "name": "lendingPool",
          "type": "address"
        },
        {
          "internalType": "uint256",
          "name": "amount",
          "type": "uint256"
        }
      ],
      "name": "withdrawLendingPool",
      "outputs": [],
      "stateMutability": "nonpayable",
      "type": "function"
    },
    {
      "inputs": [
        {
          "internalType": "address",
          "name": "pool",
          "type": "address"
        },
        {
          "internalType": "uint256",
          "name": "lpId",
          "type": "uint256"
        }
      ],
      "name": "withdrawTradingPool",
      "outputs": [],
      "stateMutability": "nonpayable",
      "type": "function"
    },
    {
      "stateMutability": "payable",
      "type": "receive"
    }
  ],
  "bytecode": "0x60803461009157601f620028b038819003918201601f19168301916001600160401b038311848410176100965780849260409485528339810103126100915780516001600160a01b039182821691829003610091576020015191821680920361009157600160005560018060a01b03199081600154161760015560025416176002556040516128039081620000ad8239f35b600080fd5b634e487b7160e01b600052604160045260246000fdfe608060405260043610156100be575b36156100505760405162461bcd60e51b815260206004820152601460248201527311985b1b189858dac81b9bdd08185b1b1bddd95960621b6044820152606490fd5b6002546001600160a01b0316330361006457005b60405162461bcd60e51b815260206004820152602c60248201527f5265636569766564204554482066726f6d20756e6b6e6f776e20736f7572636560448201526b081b9bdd08185b1b1bddd95960a21b6064820152608490fd5b60003560e01c806301d0e3da146120665780630f19bee014611e15578063150b7a0214611dac5780633168cf4f14611c55578063371fd8e61461196757806349591b511461163b5780636a5086061461148f5780636bc365f414611138578063b31f0d6214610e65578063b967f110146106f8578063cc36e337146103665763d17994c30361000e57346102b25760403660031901126102b257610160612453565b60243561016b61255b565b6002546001600160a01b0392908316803b156102b25760008391600460405180948193630d0e30db60e41b83525af180156102a657610357575b508260025416836001541660405180926315ce667760e01b9283835282600460209687935afa80156102a6578491879160009061031c575b60405163095ea7b360e01b81526001600160a01b0390911660048201526024810192909252909250829081600081604481015b03925af180156102a6576102ef575b508185600154169160046040518094819382525afa9081156102a65785926000926102b7575b5050168360025416813b156102b2576000608492819560405197889687956394f2522f60e01b8752336004880152602487015216604485015260648401525af180156102a657610297575b6001600055005b6102a090612499565b38610290565b6040513d6000823e3d90fd5b600080fd5b8193508092503d83116102e8575b6102cf81836124c2565b810103126102b2576102e184916124e3565b3880610245565b503d6102c5565b61030e90833d8511610315575b61030681836124c2565b810190612543565b503861021f565b503d6102fc565b5091905082813d8311610350575b61033481836124c2565b810103126102b25785849161034b610210946124e3565b6101dd565b503d61032a565b61036090612499565b386101a5565b60e03660031901126102b25761037a612453565b60243560038110156102b2576044356001600160401b0381116102b2576103a5903690600401612469565b6084356001600160a01b03818116959092918690036102b2576103c661255b565b6040516321df0da760e01b81528184169360209290918381600481895afa80156102a6576000906106c2575b61040591508380600254169116146124f7565b60005b8481106105f557506040516344531b0760e11b81528381600481895afa80156102a65783916000916105bd575b5016803b156102b2576000809160446040518094819363a22cb46560e01b83528b6004840152600160248401525af180156102a6576105ae575b50816002541690813b156102b257600060049260405193848092630d0e30db60e41b825234905af19081156102a65760009385936104e79361059f575b5060025460405163095ea7b360e01b81526001600160a01b039093166004840152346024840152919485939190921691839182906044820190565b03925af180156102a657610581575b5050813b156102b25760008094610539966040519788968795869463c4d6b3e560e01b86523360048701526024860152610100604486015261010485019161267e565b90346064840152606435608484015260a483015260a43560c483015260c43560e483015203925af180156102a657610572576001600055005b61057b90612499565b80610290565b8161059792903d106103155761030681836124c2565b5085806104f6565b6105a890612499565b8b6104ac565b6105b790612499565b8861046f565b809250858092503d83116105ee575b6105d681836124c2565b810103126102b2576105e883916124e3565b8a610435565b503d6105cc565b6040516344531b0760e11b815284816004818a5afa80156102a657849160009161068a575b50169061062881878a612658565b3591803b156102b257604051632142170760e11b815233600482015230602482015260448101939093526000908390606490829084905af19182156102a6576106769261067b575b50612633565b610408565b61068490612499565b8a610670565b809250868092503d83116106bb575b6106a381836124c2565b810103126102b2576106b584916124e3565b8b61061a565b503d610699565b508381813d83116106f1575b6106d881836124c2565b810103126102b2576106ec610405916124e3565b6103f2565b503d6106ce565b60e03660031901126102b25761070c612453565b61071461243d565b906001600160401b03906044358281116102b257610736903690600401612469565b90926084358181116102b257610750903690600401612469565b909560a4359283116102b25761076b60049336908501612469565b61077361255b565b60015460405163725c9c4960e01b81529560209187919082906001600160a01b03165afa9485156102a657600095610e29575b506040516321df0da760e01b81526020816004816001600160a01b038c165afa9081156102a657600091610def575b506002546001600160a01b039081169116819003610daa576040516321df0da760e01b81526020816004816001600160a01b0389165afa80156102a6578291600091610d6e575b506001600160a01b031603610d2a5760c43560643511610c22575b5060005b848110610b4357506040516344531b0760e11b81526020816004816001600160a01b0388165afa9081156102a657600091610b09575b506001600160a01b0316803b156102b25760405163a22cb46560e01b81526001600160a01b038516600482015260016024820152906000908290604490829084905af180156102a657610afa575b50604051630b967f1160e41b81526001600160a01b038881166004830152909316602484015260e06044840152919788938493919061090260e48601898c61267e565b9060643560648701526003198683030160848701526109209261267e565b906003198483030160a48501526109369261267e565b60c48035908301526001600160a01b039093169203815a602094600091f19384156102a657600094610ac6575b5060005b8181106109e757848061097b576001600055005b6002546001600160a01b031690813b156102b25760008092602460405180958193632e1a7d4d60e01b83528660048401525af19081156102a65760008080939261057b9582946109d8575b50335af16109d26125b1565b506125f0565b6109e190612499565b866109c6565b6040516344531b0760e11b81526020816004816001600160a01b0388165afa9081156102a657600091610a8c575b506001600160a01b031690610a2b818487612658565b3591803b156102b257604051632142170760e11b815230600482015233602482015260448101939093526000908390606490829084905af19182156102a657610a7892610a7d5750612633565b610967565b610a8690612499565b86610670565b90506020813d602011610abe575b81610aa7602093836124c2565b810103126102b257610ab8906124e3565b86610a15565b3d9150610a9a565b9093506020813d602011610af2575b81610ae2602093836124c2565b810103126102b257519284610963565b3d9150610ad5565b610b0390612499565b896108bf565b90506020813d602011610b3b575b81610b24602093836124c2565b810103126102b257610b35906124e3565b8a610871565b3d9150610b17565b6040516344531b0760e11b81526020816004816001600160a01b0389165afa9081156102a657600091610be8575b506001600160a01b031690610b8781878d612658565b3591803b156102b257604051632142170760e11b815233600482015230602482015260448101939093526000908390606490829084905af19182156102a657610bd492610bd95750612633565b61083b565b610be290612499565b8b610670565b90506020813d602011610c1a575b81610c03602093836124c2565b810103126102b257610c14906124e3565b8b610b71565b3d9150610bf6565b610c3060c4356064356127c0565b3403610cd457803b156102b257600060049160405192838092630d0e30db60e41b825234905af180156102a657610cc5575b5060025460405163095ea7b360e01b81526001600160a01b038781166004830152346024830152909160209183916044918391600091165af180156102a6571561083757610cbe9060203d6020116103155761030681836124c2565b5089610837565b610cce90612499565b89610c62565b60405162461bcd60e51b815260206004820152602860248201527f4e6f7420656e6f756768204554482073656e7420746f20636f7665722073776160448201526770206368616e676560c01b6064820152608490fd5b606460405162461bcd60e51b815260206004820152602060248201527f53656c6c20706f6f6c20756e6465726c79696e67206973206e6f7420574554486044820152fd5b9150506020813d602011610da2575b81610d8a602093836124c2565b810103126102b257610d9c82916124e3565b8c61081c565b3d9150610d7d565b60405162461bcd60e51b815260206004820152601f60248201527f42757920706f6f6c20756e6465726c79696e67206973206e6f742057455448006044820152606490fd5b90506020813d602011610e21575b81610e0a602093836124c2565b810103126102b257610e1b906124e3565b8a6107d5565b3d9150610dfd565b9094506020813d602011610e5d575b81610e45602093836124c2565b810103126102b257610e56906124e3565b93896107a6565b3d9150610e38565b60603660031901126102b257610e79612453565b6024356001600160401b0381116102b257610e98903690600401612469565b60449291923590610ea761255b565b6040516321df0da760e01b81526020946001600160a01b03949182861691908781600481865afa80156102a65787916000916110fd575b50600254821691610ef1911682146124f7565b8534036110a757803b156102b257600060049160405192838092630d0e30db60e41b825234905af180156102a6576000948992610f6892611098575b5060025460405163095ea7b360e01b81526001600160a01b03909216600483015234602483015290958692918a169183919082906044820190565b03925af180156102a6578794610fac9460009261107b575b5060405163598f86b160e11b81523360048201526060602482015296879586948593606485019161267e565b90604483015203925af19283156102a65760009361104b575b5050813411610fd5576001600055005b60025416610fe382346127c0565b813b156102b257600091602483926040519485938492632e1a7d4d60e01b845260048401525af180156102a65760008061102a611035958295839561103c575b50346127c0565b335af16109d26125b1565b8080610290565b61104590612499565b87611023565b9080929350813d8311611074575b61106381836124c2565b810103126102b25751908280610fc5565b503d611059565b61109190873d89116103155761030681836124c2565b5089610f80565b6110a190612499565b8a610f2d565b60405162461bcd60e51b815260048101899052602860248201527f53656e742076616c7565206973206e6f7420657175616c20746f206d6178696d604482015267756d20707269636560c01b6064820152608490fd5b809250898092503d8311611131575b61111681836124c2565b810103126102b257610ef161112b88926124e3565b90610ede565b503d61110c565b346102b25760403660031901126102b257611151612453565b60249081356001600160401b0381116102b25761117383913690600401612469565b92909161117e61255b565b6000611189856126a2565b9361119760405195866124c2565b858552601f196111a6876126a2565b0160005b81811061147c5750506040516321df0da760e01b81526001600160a01b039485169660209182816004818c5afa80156102a657600090611446575b6111f891508780600254169116146124f7565b60005b81811061134a5750873b156102b25760009161123060405194859384936336903d8d60e11b855260048501528884019161267e565b0381838a5af180156102a65761133b575b5090916000925b84518410156112ed5760005b61125e85876127ac565b51518110156112d85761127b8161127587896127ac565b516127ac565b5190873b156102b257604051632142170760e11b81523060048201523360248201526044810192909252600082606481838c5af19182156102a6576112c4926112c95750612633565b611254565b6112d290612499565b88610670565b509190926112e590612633565b929091611248565b92506002541691823b156102b257600092839160405180958193632e1a7d4d60e01b83528660048401525af19081156102a65760008080809386610290966109d85750335af16109d26125b1565b61134490612499565b85611241565b611355818386612658565b35893b156102b257604051632142170760e11b81523360048201523060248201526044810191909152600081606481838e5af180156102a657611437575b5061139f818386612658565b6040516319ba7e5360e31b8152903560048201529460008688818d5afa9586156102a657600096611412575b50604086015181018091116113fd5790836113f8929601516113ed828b6127ac565b52610670818a6127ac565b6111fb565b86634e487b7160e01b60005260116004526000fd5b6114309196503d806000833e61142881836124c2565b8101906126b9565b948a6113cb565b61144090612499565b89611393565b508281813d8311611475575b61145c81836124c2565b810103126102b2576114706111f8916124e3565b6111e5565b503d611452565b60606020828901810191909152016111aa565b6020806003193601126102b2576114a4612453565b6114ac61255b565b6040516338d52e0f60e01b81526001600160a01b039180831691908482600481865afa80156102a6578492600091611600575b506002548316926114f2911683146124f7565b813b156102b257600060049260405193848092630d0e30db60e41b825234905af19081156102a6576000948693611563936115f1575b5060025460405163095ea7b360e01b81526001600160a01b039093166004840152346024840152919586939190921691839182906044820190565b03925af19081156102a65760009284926115d4575b50604460405180948193636e553f6560e01b83523460048401523360248401525af180156102a6576115ab576001600055005b813d83116115cd575b6115be81836124c2565b810103126102b2578080610290565b503d6115b4565b6115ea90833d85116103155761030681836124c2565b5084611578565b6115fa90612499565b87611528565b809350868092503d8311611634575b61161981836124c2565b810103126102b2576114f261162e85936124e3565b906114df565b503d61160f565b346102b2576003196080368201126102b257611655612453565b6001600160401b036024358181116102b257611675903690600401612469565b9390916044359081116102b257611690903690600401612469565b909261169a61255b565b6040516321df0da760e01b81526020966001600160a01b0396871692918881600481875afa80156102a657600090611931575b6116e091508880600254169116146124f7565b60005b81811061187457506040516344531b0760e11b81528881600481875afa80156102a657889160009161183c575b501690813b156102b2576000809260446040518095819363a22cb46560e01b8352896004840152600160248401525af180156102a6578996611784966000946117939361182d575b506040516349591b5160e01b815230600482015260806024820152998a9889978896608488019161267e565b9285840301604486015261267e565b606435606483015203925af19283156102a6576000936117fd575b50506002541690813b156102b25760008092602460405180958193632e1a7d4d60e01b83528660048401525af19081156102a65760008080809386610290966109d85750335af16109d26125b1565b9080929350813d8311611826575b61181581836124c2565b810103126102b257519082806117ae565b503d61180b565b61183690612499565b8c611758565b8092508a8092503d831161186d575b61185581836124c2565b810103126102b25761186788916124e3565b8a611710565b503d61184b565b6040516344531b0760e11b81528981600481885afa80156102a65789916000916118f9575b5016906118a7818486612658565b3591803b156102b257604051632142170760e11b815233600482015230602482015260448101939093526000908390606490829084905af19182156102a6576118f49261067b5750612633565b6116e3565b8092508b8092503d831161192a575b61191281836124c2565b810103126102b25761192489916124e3565b8b611899565b503d611908565b508881813d8311611960575b61194781836124c2565b810103126102b25761195b6116e0916124e3565b6116cd565b503d61193d565b6020806003193601126102b25760043561197f61255b565b6001546040516314d888d960e21b81526001600160a01b03939184168282600481845afa9182156102a65785928491600091611c1e575b5060246040518098819363ccff44f160e01b8352896004840152165afa9485156102a657600095611be3575b5082600491604051928380926302690e7760e11b82525afa80156102a6578291600091611bab575b506040516338d52e0f60e01b815291169483826004818685165afa80156102a6578392600091611b73575b5082600254169283911603611b3057813b156102b257600060049260405193848092630d0e30db60e41b825234905af19081156102a6576000938593611ab493611b21575060025460405163095ea7b360e01b81526001600160a01b039093166004840152346024840152919485939190921691839182906044820190565b03925af180156102a657611b03575b5050813b156102b25760009160448392604051948593849263d8aed14560e01b845260048401523460248401525af180156102a657610572576001600055005b81611b1992903d106103155761030681836124c2565b508280611ac3565b611b2a90612499565b886104ac565b6064846040519062461bcd60e51b825280600483015260248201527f4c6f616e20706f6f6c20756e6465726c79696e67206973206e6f7420574554486044820152fd5b809350858092503d8311611ba4575b611b8c81836124c2565b810103126102b257611b9e83926124e3565b87611a35565b503d611b82565b809250848092503d8311611bdc575b611bc481836124c2565b810103126102b257611bd682916124e3565b86611a0a565b503d611bba565b9094508281813d8311611c17575b611bfb81836124c2565b810103126102b25782611c0f6004926124e3565b9591506119e2565b503d611bf1565b93505082813d8311611c4e575b611c3581836124c2565b810103126102b25782611c4886936124e3565b876119b6565b503d611c2b565b346102b25760403660031901126102b257611c6e612453565b60243590611c7a61255b565b6040516338d52e0f60e01b81526001600160a01b0391602091908316908281600481855afa80156102a6578391600091611d6e575b5091611cc56000938680600254169116146124f7565b606460405180948193632d182be560e21b83528960048401523060248401523360448401525af180156102a657611d455750506002541690813b156102b25760008092602460405180958193632e1a7d4d60e01b83528660048401525af19081156102a65760008080809386610290966109d85750335af16109d26125b1565b813d8311611d67575b611d5881836124c2565b810103126102b25782806117ae565b503d611d4e565b82819392503d8311611da5575b611d8581836124c2565b810103126102b257600091611cc5611d9d85936124e3565b919350611caf565b503d611d7b565b346102b25760803660031901126102b257611dc5612453565b50611dce61243d565b506064356001600160401b038082116102b257366023830112156102b25781600401359081116102b257369101602401116102b257604051630a85bd0160e11b8152602090f35b346102b25760403660031901126102b257611e2e612453565b60243590611e3a61255b565b6040516321df0da760e01b81526001600160a01b039182169260209290918381600481885afa80156102a657600090612030575b611e8191508280600254169116146124f7565b833b156102b257604051632142170760e11b808252336004830152306024830152604482018490529290600081606481838a5af180156102a657612021575b506040516319ba7e5360e31b81526004810182905290600082602481895afa9182156102a657600092612004575b50853b156102b25760405190639c8f9f2360e01b82526004820152600081602481838a5af180156102a657611ff5575b5060005b848201518051821015611f8f5781611f39916127ac565b5190863b156102b2576040518581523060048201523360248201526044810192909252600082606481838b5af19182156102a657611f7b92611f805750612633565b611f22565b611f8990612499565b87610670565b826040856002541691018051823b156102b257600092602484926040519586938492632e1a7d4d60e01b845260048401525af19081156102a6576000808080938661029096611fe6575b5051335af16109d26125b1565b611fef90612499565b86611fd9565b611ffe90612499565b85611f1e565b61201a9192503d806000833e61142881836124c2565b9086611eee565b61202a90612499565b85611ec0565b508381813d831161205f575b61204681836124c2565b810103126102b25761205a611e81916124e3565b611e6e565b503d61203c565b346102b25760c03660031901126102b25761207f61243d565b6044356001600160401b0381116102b25761209e903690600401612469565b6001600160401b0360a435116102b25760a43536039060c06003198301126102b2576004906120cb61255b565b6001546040516302690e7760e11b81529260209184919082906001600160a01b03165afa9182156102a657600092612401575b5060005b81811061232457506002546001600160a01b03908116949083163b156102b2576121699160405195636c6911b760e01b875233600488015260248701526004359687604488015260018060a01b03166064870152610100608487015261010486019161267e565b9160643560a485015260843560c48501526003198484030160e485015260a4356004013560ff81168091036102b257835260a4803560248101356020860152604481013560408601526064810135606086015260848101356080860152013590602219018112156102b25760a43501906024600483013592016001600160401b0383116102b25782360381136102b257600060e08686868297839660c060a0889c01528160c0850152858401378181018401859052601f01601f1916010301926001600160a01b03165af180156102a657612315575b506002546040516370a0823160e01b81523060048201526001600160a01b039091169190602081602481865afa80156102a65782916000916122e0575b50036122ca57813b156102b25760008092602460405180958193632e1a7d4d60e01b83528660048401525af19081156102a65760008080809386610290966109d85750335af16109d26125b1565b634e487b7160e01b600052600160045260246000fd5b9150506020813d60201161230d575b816122fc602093836124c2565b810103126102b2578190518461227c565b3d91506122ef565b61231e90612499565b8161223f565b61232f818387612658565b356001600160a01b0387163b156102b257604051632142170760e11b81523360048201523060248201526044810191909152600081606481836001600160a01b038c165af180156102a6576123f2575b5061238b818387612658565b35906001600160a01b0387163b156102b25760405163095ea7b360e01b81526001600160a01b0385166004820152602481019290925260008280604481010381836001600160a01b038c165af19182156102a6576123ed92611f805750612633565b612102565b6123fb90612499565b8661237f565b9091506020813d602011612435575b8161241d602093836124c2565b810103126102b25761242e906124e3565b90856120fe565b3d9150612410565b602435906001600160a01b03821682036102b257565b600435906001600160a01b03821682036102b257565b9181601f840112156102b2578235916001600160401b0383116102b2576020808501948460051b0101116102b257565b6001600160401b0381116124ac57604052565b634e487b7160e01b600052604160045260246000fd5b90601f801991011681019081106001600160401b038211176124ac57604052565b51906001600160a01b03821682036102b257565b156124fe57565b60405162461bcd60e51b815260206004820152601b60248201527f506f6f6c20756e6465726c79696e67206973206e6f74205745544800000000006044820152606490fd5b908160209103126102b2575180151581036102b25790565b60026000541461256c576002600055565b60405162461bcd60e51b815260206004820152601f60248201527f5265656e7472616e637947756172643a207265656e7472616e742063616c6c006044820152606490fd5b3d156125eb573d906001600160401b0382116124ac57604051916125df601f8201601f1916602001846124c2565b82523d6000602084013e565b606090565b156125f757565b60405162461bcd60e51b81526020600482015260146024820152732330b4b632b2103a379039b2b7321022ba3432b960611b6044820152606490fd5b60001981146126425760010190565b634e487b7160e01b600052601160045260246000fd5b91908110156126685760051b0190565b634e487b7160e01b600052603260045260246000fd5b81835290916001600160fb1b0383116102b25760209260051b809284830137010190565b6001600160401b0381116124ac5760051b60200190565b6020929181810384136102b25781516001600160401b03928382116102b257019060e0828203126102b2576040519260e08401848110828211176124ac57604052825160038110156102b2578452858301519081116102b25782019080601f830112156102b257815161272b816126a2565b9261273960405194856124c2565b818452878085019260051b8201019283116102b2578701905b82821061279d5750505082939460c09301526040810151604084015260608101516060840152612784608082016124e3565b608084015260a081015160a0840152015160c082015290565b81518152908701908701612752565b80518210156126685760209160051b010190565b919082039182116126425756fea2646970667358221220d16becba0c942ae5802e2c1dc6398e059cc707ad5a3de221b77ad3fe97b8e67d64736f6c63430008130033",
  "linkReferences": {},
  "deployedLinkReferences": {}
}