{
  "_format": "hh-sol-artifact-1",
  "contractName": "WETHGateway",
  "sourceName": "contracts/protocol/WETHGateway.sol",
  "abi": [
    {
      "inputs": [
        {
          "internalType": "contract IAddressesProvider",
          "name": "addressesProvider",
          "type": "address"
        },
        {
          "internalType": "contract IWETH",
          "name": "weth",
          "type": "address"
        }
      ],
      "stateMutability": "nonpayable",
      "type": "constructor"
    },
    {
      "stateMutability": "payable",
      "type": "fallback"
    },
    {
      "inputs": [
        {
          "internalType": "uint256",
          "name": "amount",
          "type": "uint256"
        },
        {
          "internalType": "address",
          "name": "nftAddress",
          "type": "address"
        },
        {
          "internalType": "uint256[]",
          "name": "nftTokenIds",
          "type": "uint256[]"
        },
        {
          "internalType": "uint256",
          "name": "genesisNFTId",
          "type": "uint256"
        },
        {
          "internalType": "bytes32",
          "name": "request",
          "type": "bytes32"
        },
        {
          "components": [
            {
              "internalType": "uint8",
              "name": "v",
              "type": "uint8"
            },
            {
              "internalType": "bytes32",
              "name": "r",
              "type": "bytes32"
            },
            {
              "internalType": "bytes32",
              "name": "s",
              "type": "bytes32"
            },
            {
              "internalType": "bytes32",
              "name": "request",
              "type": "bytes32"
            },
            {
              "internalType": "uint256",
              "name": "deadline",
              "type": "uint256"
            },
            {
              "internalType": "bytes",
              "name": "payload",
              "type": "bytes"
            }
          ],
          "internalType": "struct Trustus.TrustusPacket",
          "name": "packet",
          "type": "tuple"
        }
      ],
      "name": "borrow",
      "outputs": [],
      "stateMutability": "nonpayable",
      "type": "function"
    },
    {
      "inputs": [
        {
          "internalType": "address",
          "name": "pool",
          "type": "address"
        },
        {
          "internalType": "uint256[]",
          "name": "nftIds",
          "type": "uint256[]"
        },
        {
          "internalType": "uint256",
          "name": "maximumPrice",
          "type": "uint256"
        }
      ],
      "name": "buy",
      "outputs": [],
      "stateMutability": "payable",
      "type": "function"
    },
    {
      "inputs": [
        {
          "internalType": "address",
          "name": "lendingPool",
          "type": "address"
        }
      ],
      "name": "depositLendingPool",
      "outputs": [],
      "stateMutability": "payable",
      "type": "function"
    },
    {
      "inputs": [
        {
          "internalType": "address",
          "name": "pool",
          "type": "address"
        },
        {
          "internalType": "enum DataTypes.LPType",
          "name": "lpType",
          "type": "uint8"
        },
        {
          "internalType": "uint256[]",
          "name": "nftIds",
          "type": "uint256[]"
        },
        {
          "internalType": "uint256",
          "name": "initialPrice",
          "type": "uint256"
        },
        {
          "internalType": "address",
          "name": "curve",
          "type": "address"
        },
        {
          "internalType": "uint256",
          "name": "delta",
          "type": "uint256"
        },
        {
          "internalType": "uint256",
          "name": "fee",
          "type": "uint256"
        }
      ],
      "name": "depositTradingPool",
      "outputs": [],
      "stateMutability": "payable",
      "type": "function"
    },
    {
      "inputs": [
        {
          "internalType": "address",
          "name": "",
          "type": "address"
        },
        {
          "internalType": "address",
          "name": "",
          "type": "address"
        },
        {
          "internalType": "uint256",
          "name": "",
          "type": "uint256"
        },
        {
          "internalType": "bytes",
          "name": "",
          "type": "bytes"
        }
      ],
      "name": "onERC721Received",
      "outputs": [
        {
          "internalType": "bytes4",
          "name": "",
          "type": "bytes4"
        }
      ],
      "stateMutability": "pure",
      "type": "function"
    },
    {
      "inputs": [
        {
          "internalType": "uint256",
          "name": "loanId",
          "type": "uint256"
        }
      ],
      "name": "repay",
      "outputs": [],
      "stateMutability": "payable",
      "type": "function"
    },
    {
      "inputs": [
        {
          "internalType": "address",
          "name": "pool",
          "type": "address"
        },
        {
          "internalType": "uint256[]",
          "name": "nftIds",
          "type": "uint256[]"
        },
        {
          "internalType": "uint256[]",
          "name": "liquidityPairs",
          "type": "uint256[]"
        },
        {
          "internalType": "uint256",
          "name": "minimumPrice",
          "type": "uint256"
        }
      ],
      "name": "sell",
      "outputs": [],
      "stateMutability": "nonpayable",
      "type": "function"
    },
    {
      "inputs": [
        {
          "internalType": "contract ITradingPool",
          "name": "buyPool",
          "type": "address"
        },
        {
          "internalType": "contract ITradingPool",
          "name": "sellPool",
          "type": "address"
        },
        {
          "internalType": "uint256[]",
          "name": "buyNftIds",
          "type": "uint256[]"
        },
        {
          "internalType": "uint256",
          "name": "maximumBuyPrice",
          "type": "uint256"
        },
        {
          "internalType": "uint256[]",
          "name": "sellNftIds",
          "type": "uint256[]"
        },
        {
          "internalType": "uint256[]",
          "name": "sellLps",
          "type": "uint256[]"
        },
        {
          "internalType": "uint256",
          "name": "minimumSellPrice",
          "type": "uint256"
        }
      ],
      "name": "swap",
      "outputs": [],
      "stateMutability": "payable",
      "type": "function"
    },
    {
      "inputs": [
        {
          "internalType": "address",
          "name": "pool",
          "type": "address"
        },
        {
          "internalType": "uint256[]",
          "name": "lpIds",
          "type": "uint256[]"
        }
      ],
      "name": "withdrawBatchTradingPool",
      "outputs": [],
      "stateMutability": "nonpayable",
      "type": "function"
    },
    {
      "inputs": [
        {
          "internalType": "address",
          "name": "lendingPool",
          "type": "address"
        },
        {
          "internalType": "uint256",
          "name": "amount",
          "type": "uint256"
        }
      ],
      "name": "withdrawLendingPool",
      "outputs": [],
      "stateMutability": "nonpayable",
      "type": "function"
    },
    {
      "inputs": [
        {
          "internalType": "address",
          "name": "pool",
          "type": "address"
        },
        {
          "internalType": "uint256",
          "name": "lpId",
          "type": "uint256"
        }
      ],
      "name": "withdrawTradingPool",
      "outputs": [],
      "stateMutability": "nonpayable",
      "type": "function"
    },
    {
      "stateMutability": "payable",
      "type": "receive"
    }
  ],
  "bytecode": "0x60803461009157601f620026c638819003918201601f19168301916001600160401b038311848410176100965780849260409485528339810103126100915780516001600160a01b039182821691829003610091576020015191821680920361009157600160005560018060a01b03199081600154161760015560025416176002556040516126199081620000ad8239f35b600080fd5b634e487b7160e01b600052604160045260246000fdfe608060405260043610156100be575b36156100505760405162461bcd60e51b815260206004820152601460248201527311985b1b189858dac81b9bdd08185b1b1bddd95960621b6044820152606490fd5b6002546001600160a01b0316330361006457005b60405162461bcd60e51b815260206004820152602c60248201527f5265636569766564204554482066726f6d20756e6b6e6f776e20736f7572636560448201526b081b9bdd08185b1b1bddd95960a21b6064820152608490fd5b60003560e01c806301d0e3da14611e7c5780630f19bee014611c2b578063150b7a0214611bc25780633168cf4f14611a6b578063371fd8e61461177457806349591b51146114395780636a5086061461128d5780636bc365f414610f36578063b31f0d6214610c63578063b967f110146104f05763cc36e3370361000e5760e036600319011261036457610150612269565b6024356003811015610364576044356001600160401b0381116103645761017b90369060040161227f565b6084356001600160a01b03818116959092918690036103645761019c612371565b6040516321df0da760e01b81528184169360209290918381600481895afa8015610358576000906104ba575b6101db915083806002541691161461230d565b60005b8481106103ed57506040516344531b0760e11b81528381600481895afa80156103585783916000916103b5575b5016803b15610364576000809160446040518094819363a22cb46560e01b83528b6004840152600160248401525af18015610358576103a6575b50816002541690813b1561036457600060049260405193848092630d0e30db60e41b825234905af19081156103585760009385936102bd93610397575b5060025460405163095ea7b360e01b81526001600160a01b039093166004840152346024840152919485939190921691839182906044820190565b03925af1801561035857610369575b5050813b15610364576000809461030f966040519788968795869463c4d6b3e560e01b865233600487015260248601526101006044860152610104850191612494565b90346064840152606435608484015260a483015260a43560c483015260c43560e483015203925af1801561035857610349575b6001600055005b610352906122af565b38610342565b6040513d6000823e3d90fd5b600080fd5b8161038892903d10610390575b61038081836122d8565b810190612359565b5038806102cc565b503d610376565b6103a0906122af565b38610282565b6103af906122af565b38610245565b809250858092503d83116103e6575b6103ce81836122d8565b81010312610364576103e083916122f9565b3861020b565b503d6103c4565b6040516344531b0760e11b815284816004818a5afa8015610358578491600091610482575b50169061042081878a61246e565b3591803b1561036457604051632142170760e11b815233600482015230602482015260448101939093526000908390606490829084905af19182156103585761046e92610473575b50612449565b6101de565b61047c906122af565b38610468565b809250868092503d83116104b3575b61049b81836122d8565b81010312610364576104ad84916122f9565b38610412565b503d610491565b508381813d83116104e9575b6104d081836122d8565b81010312610364576104e46101db916122f9565b6101c8565b503d6104c6565b60e036600319011261036457610504612269565b61050c612253565b906001600160401b03906044358281116103645761052e90369060040161227f565b90926084358181116103645761054890369060040161227f565b909560a435928311610364576105636004933690850161227f565b61056b612371565b60015460405163725c9c4960e01b81529560209187919082906001600160a01b03165afa94851561035857600095610c27575b506040516321df0da760e01b81526020816004816001600160a01b038c165afa90811561035857600091610bed575b506002546001600160a01b039081169116819003610ba8576040516321df0da760e01b81526020816004816001600160a01b0389165afa8015610358578291600091610b6c575b506001600160a01b031603610b285760c43560643511610a20575b5060005b84811061094157506040516344531b0760e11b81526020816004816001600160a01b0388165afa90811561035857600091610907575b506001600160a01b0316803b156103645760405163a22cb46560e01b81526001600160a01b038516600482015260016024820152906000908290604490829084905af18015610358576108f8575b50604051630b967f1160e41b81526001600160a01b038881166004830152909316602484015260e0604484015291978893849391906106fa60e48601898c612494565b90606435606487015260031986830301608487015261071892612494565b906003198483030160a485015261072e92612494565b60c48035908301526001600160a01b039093169203815a602094600091f1938415610358576000946108c4575b5060005b8181106107e5578480610773576001600055005b6002546001600160a01b031690813b156103645760008092602460405180958193632e1a7d4d60e01b83528660048401525af1908115610358576000808093926107d09582946107d6575b50335af16107ca6123c7565b50612406565b80610342565b6107df906122af565b866107be565b6040516344531b0760e11b81526020816004816001600160a01b0388165afa9081156103585760009161088a575b506001600160a01b03169061082981848761246e565b3591803b1561036457604051632142170760e11b815230600482015233602482015260448101939093526000908390606490829084905af1918215610358576108769261087b5750612449565b61075f565b610884906122af565b86610468565b90506020813d6020116108bc575b816108a5602093836122d8565b81010312610364576108b6906122f9565b86610813565b3d9150610898565b9093506020813d6020116108f0575b816108e0602093836122d8565b810103126103645751928461075b565b3d91506108d3565b610901906122af565b896106b7565b90506020813d602011610939575b81610922602093836122d8565b8101031261036457610933906122f9565b8a610669565b3d9150610915565b6040516344531b0760e11b81526020816004816001600160a01b0389165afa908115610358576000916109e6575b506001600160a01b03169061098581878d61246e565b3591803b1561036457604051632142170760e11b815233600482015230602482015260448101939093526000908390606490829084905af1918215610358576109d2926109d75750612449565b610633565b6109e0906122af565b8b610468565b90506020813d602011610a18575b81610a01602093836122d8565b8101031261036457610a12906122f9565b8b61096f565b3d91506109f4565b610a2e60c4356064356125d6565b3403610ad257803b1561036457600060049160405192838092630d0e30db60e41b825234905af1801561035857610ac3575b5060025460405163095ea7b360e01b81526001600160a01b038781166004830152346024830152909160209183916044918391600091165af18015610358571561062f57610abc9060203d6020116103905761038081836122d8565b508961062f565b610acc906122af565b89610a60565b60405162461bcd60e51b815260206004820152602860248201527f4e6f7420656e6f756768204554482073656e7420746f20636f7665722073776160448201526770206368616e676560c01b6064820152608490fd5b606460405162461bcd60e51b815260206004820152602060248201527f53656c6c20706f6f6c20756e6465726c79696e67206973206e6f7420574554486044820152fd5b9150506020813d602011610ba0575b81610b88602093836122d8565b8101031261036457610b9a82916122f9565b8c610614565b3d9150610b7b565b60405162461bcd60e51b815260206004820152601f60248201527f42757920706f6f6c20756e6465726c79696e67206973206e6f742057455448006044820152606490fd5b90506020813d602011610c1f575b81610c08602093836122d8565b8101031261036457610c19906122f9565b8a6105cd565b3d9150610bfb565b9094506020813d602011610c5b575b81610c43602093836122d8565b8101031261036457610c54906122f9565b938961059e565b3d9150610c36565b606036600319011261036457610c77612269565b6024356001600160401b03811161036457610c9690369060040161227f565b60449291923590610ca5612371565b6040516321df0da760e01b81526020946001600160a01b03949182861691908781600481865afa8015610358578791600091610efb575b50600254821691610cef9116821461230d565b853403610ea557803b1561036457600060049160405192838092630d0e30db60e41b825234905af18015610358576000948992610d6692610e96575b5060025460405163095ea7b360e01b81526001600160a01b03909216600483015234602483015290958692918a169183919082906044820190565b03925af18015610358578794610daa94600092610e79575b5060405163598f86b160e11b815233600482015260606024820152968795869485936064850191612494565b90604483015203925af192831561035857600093610e49575b5050813411610dd3576001600055005b60025416610de182346125d6565b813b1561036457600091602483926040519485938492632e1a7d4d60e01b845260048401525af1801561035857600080610e28610e339582958395610e3a575b50346125d6565b335af16107ca6123c7565b8080610342565b610e43906122af565b87610e21565b9080929350813d8311610e72575b610e6181836122d8565b810103126103645751908280610dc3565b503d610e57565b610e8f90873d89116103905761038081836122d8565b5089610d7e565b610e9f906122af565b8a610d2b565b60405162461bcd60e51b815260048101899052602860248201527f53656e742076616c7565206973206e6f7420657175616c20746f206d6178696d604482015267756d20707269636560c01b6064820152608490fd5b809250898092503d8311610f2f575b610f1481836122d8565b8101031261036457610cef610f2988926122f9565b90610cdc565b503d610f0a565b3461036457604036600319011261036457610f4f612269565b60249081356001600160401b03811161036457610f718391369060040161227f565b929091610f7c612371565b6000610f87856124b8565b93610f9560405195866122d8565b858552601f19610fa4876124b8565b0160005b81811061127a5750506040516321df0da760e01b81526001600160a01b039485169660209182816004818c5afa801561035857600090611244575b610ff6915087806002541691161461230d565b60005b8181106111485750873b156103645760009161102e60405194859384936336903d8d60e11b8552600485015288840191612494565b0381838a5af1801561035857611139575b5090916000925b84518410156110eb5760005b61105c85876125c2565b51518110156110d6576110798161107387896125c2565b516125c2565b5190873b1561036457604051632142170760e11b81523060048201523360248201526044810192909252600082606481838c5af1918215610358576110c2926110c75750612449565b611052565b6110d0906122af565b88610468565b509190926110e390612449565b929091611046565b92506002541691823b1561036457600092839160405180958193632e1a7d4d60e01b83528660048401525af19081156103585760008080809386610342966107d65750335af16107ca6123c7565b611142906122af565b8561103f565b61115381838661246e565b35893b1561036457604051632142170760e11b81523360048201523060248201526044810191909152600081606481838e5af1801561035857611235575b5061119d81838661246e565b6040516319ba7e5360e31b8152903560048201529460008688818d5afa95861561035857600096611210575b50604086015181018091116111fb5790836111f6929601516111eb828b6125c2565b52610468818a6125c2565b610ff9565b86634e487b7160e01b60005260116004526000fd5b61122e9196503d806000833e61122681836122d8565b8101906124cf565b948a6111c9565b61123e906122af565b89611191565b508281813d8311611273575b61125a81836122d8565b810103126103645761126e610ff6916122f9565b610fe3565b503d611250565b6060602082890181019190915201610fa8565b602080600319360112610364576112a2612269565b6112aa612371565b6040516338d52e0f60e01b81526001600160a01b039180831691908482600481865afa80156103585784926000916113fe575b506002548316926112f09116831461230d565b813b1561036457600060049260405193848092630d0e30db60e41b825234905af1908115610358576000948693611361936113ef575b5060025460405163095ea7b360e01b81526001600160a01b039093166004840152346024840152919586939190921691839182906044820190565b03925af19081156103585760009284926113d2575b50604460405180948193636e553f6560e01b83523460048401523360248401525af18015610358576113a9576001600055005b813d83116113cb575b6113bc81836122d8565b81010312610364578080610342565b503d6113b2565b6113e890833d85116103905761038081836122d8565b5084611376565b6113f8906122af565b87611326565b809350868092503d8311611432575b61141781836122d8565b81010312610364576112f061142c85936122f9565b906112dd565b503d61140d565b346103645760031960803682011261036457611453612269565b6001600160401b036024358181116103645761147390369060040161227f565b9390916044359081116103645761148e90369060040161227f565b9092611498612371565b6040516321df0da760e01b81526020966001600160a01b0396871692918881600481875afa80156103585760009061173e575b6114de915088806002541691161461230d565b60005b81811061167257506040516344531b0760e11b81528881600481875afa801561035857889160009161163a575b501690813b15610364576000809260446040518095819363a22cb46560e01b8352896004840152600160248401525af18015610358578996611582966000946115919361162b575b506040516349591b5160e01b815230600482015260806024820152998a98899788966084880191612494565b92858403016044860152612494565b606435606483015203925af1928315610358576000936115fb575b50506002541690813b156103645760008092602460405180958193632e1a7d4d60e01b83528660048401525af19081156103585760008080809386610342966107d65750335af16107ca6123c7565b9080929350813d8311611624575b61161381836122d8565b8101031261036457519082806115ac565b503d611609565b611634906122af565b8c611556565b8092508a8092503d831161166b575b61165381836122d8565b810103126103645761166588916122f9565b8a61150e565b503d611649565b6040516344531b0760e11b81528981600481885afa8015610358578991600091611706575b5016906116a581848661246e565b3591803b1561036457604051632142170760e11b815233600482015230602482015260448101939093526000908390606490829084905af1918215610358576116f2926116f75750612449565b6114e1565b611700906122af565b8a610468565b8092508b8092503d8311611737575b61171f81836122d8565b810103126103645761173189916122f9565b8b611697565b503d611715565b508881813d831161176d575b61175481836122d8565b81010312610364576117686114de916122f9565b6114cb565b503d61174a565b6020806003193601126103645760043561178c612371565b6001546040516314d888d960e21b81526001600160a01b03939184168282600481845afa9182156103585785928491600091611a34575b5060246040518098819363ccff44f160e01b8352896004840152165afa948515610358576000956119f9575b5082600491604051928380926302690e7760e11b82525afa80156103585782916000916119c1575b506040516338d52e0f60e01b815291169483826004818685165afa8015610358578392600091611989575b508260025416928391160361194657813b1561036457600060049260405193848092630d0e30db60e41b825234905af19081156103585760009385936118c193611937575060025460405163095ea7b360e01b81526001600160a01b039093166004840152346024840152919485939190921691839182906044820190565b03925af1801561035857611919575b5050813b156103645760009160448392604051948593849263d8aed14560e01b845260048401523460248401525af1801561035857611910576001600055005b6107d0906122af565b8161192f92903d106103905761038081836122d8565b5082806118d0565b611940906122af565b88610282565b6064846040519062461bcd60e51b825280600483015260248201527f4c6f616e20706f6f6c20756e6465726c79696e67206973206e6f7420574554486044820152fd5b809350858092503d83116119ba575b6119a281836122d8565b81010312610364576119b483926122f9565b87611842565b503d611998565b809250848092503d83116119f2575b6119da81836122d8565b81010312610364576119ec82916122f9565b86611817565b503d6119d0565b9094508281813d8311611a2d575b611a1181836122d8565b810103126103645782611a256004926122f9565b9591506117ef565b503d611a07565b93505082813d8311611a64575b611a4b81836122d8565b810103126103645782611a5e86936122f9565b876117c3565b503d611a41565b3461036457604036600319011261036457611a84612269565b60243590611a90612371565b6040516338d52e0f60e01b81526001600160a01b0391602091908316908281600481855afa8015610358578391600091611b84575b5091611adb60009386806002541691161461230d565b606460405180948193632d182be560e21b83528960048401523060248401523360448401525af1801561035857611b5b5750506002541690813b156103645760008092602460405180958193632e1a7d4d60e01b83528660048401525af19081156103585760008080809386610342966107d65750335af16107ca6123c7565b813d8311611b7d575b611b6e81836122d8565b810103126103645782806115ac565b503d611b64565b82819392503d8311611bbb575b611b9b81836122d8565b8101031261036457600091611adb611bb385936122f9565b919350611ac5565b503d611b91565b3461036457608036600319011261036457611bdb612269565b50611be4612253565b506064356001600160401b038082116103645736602383011215610364578160040135908111610364573691016024011161036457604051630a85bd0160e11b8152602090f35b3461036457604036600319011261036457611c44612269565b60243590611c50612371565b6040516321df0da760e01b81526001600160a01b039182169260209290918381600481885afa801561035857600090611e46575b611c97915082806002541691161461230d565b833b1561036457604051632142170760e11b808252336004830152306024830152604482018490529290600081606481838a5af1801561035857611e37575b506040516319ba7e5360e31b81526004810182905290600082602481895afa91821561035857600092611e1a575b50853b156103645760405190639c8f9f2360e01b82526004820152600081602481838a5af1801561035857611e0b575b5060005b848201518051821015611da55781611d4f916125c2565b5190863b15610364576040518581523060048201523360248201526044810192909252600082606481838b5af191821561035857611d9192611d965750612449565b611d38565b611d9f906122af565b87610468565b826040856002541691018051823b1561036457600092602484926040519586938492632e1a7d4d60e01b845260048401525af1908115610358576000808080938661034296611dfc575b5051335af16107ca6123c7565b611e05906122af565b86611def565b611e14906122af565b85611d34565b611e309192503d806000833e61122681836122d8565b9086611d04565b611e40906122af565b85611cd6565b508381813d8311611e75575b611e5c81836122d8565b8101031261036457611e70611c97916122f9565b611c84565b503d611e52565b346103645760c036600319011261036457611e95612253565b6044356001600160401b03811161036457611eb490369060040161227f565b6001600160401b0360a435116103645760a43536039060c060031983011261036457600490611ee1612371565b6001546040516302690e7760e11b81529260209184919082906001600160a01b03165afa91821561035857600092612217575b5060005b81811061213a57506002546001600160a01b03908116949083163b1561036457611f7f9160405195636c6911b760e01b875233600488015260248701526004359687604488015260018060a01b031660648701526101006084870152610104860191612494565b9160643560a485015260843560c48501526003198484030160e485015260a4356004013560ff811680910361036457835260a4803560248101356020860152604481013560408601526064810135606086015260848101356080860152013590602219018112156103645760a43501906024600483013592016001600160401b03831161036457823603811361036457600060e08686868297839660c060a0889c01528160c0850152858401378181018401859052601f01601f1916010301926001600160a01b03165af180156103585761212b575b506002546040516370a0823160e01b81523060048201526001600160a01b039091169190602081602481865afa80156103585782916000916120f6575b50036120e057813b156103645760008092602460405180958193632e1a7d4d60e01b83528660048401525af19081156103585760008080809386610342966107d65750335af16107ca6123c7565b634e487b7160e01b600052600160045260246000fd5b9150506020813d602011612123575b81612112602093836122d8565b810103126103645781905184612092565b3d9150612105565b612134906122af565b81612055565b61214581838761246e565b356001600160a01b0387163b1561036457604051632142170760e11b81523360048201523060248201526044810191909152600081606481836001600160a01b038c165af1801561035857612208575b506121a181838761246e565b35906001600160a01b0387163b156103645760405163095ea7b360e01b81526001600160a01b0385166004820152602481019290925260008280604481010381836001600160a01b038c165af19182156103585761220392611d965750612449565b611f18565b612211906122af565b86612195565b9091506020813d60201161224b575b81612233602093836122d8565b8101031261036457612244906122f9565b9085611f14565b3d9150612226565b602435906001600160a01b038216820361036457565b600435906001600160a01b038216820361036457565b9181601f84011215610364578235916001600160401b038311610364576020808501948460051b01011161036457565b6001600160401b0381116122c257604052565b634e487b7160e01b600052604160045260246000fd5b90601f801991011681019081106001600160401b038211176122c257604052565b51906001600160a01b038216820361036457565b1561231457565b60405162461bcd60e51b815260206004820152601b60248201527f506f6f6c20756e6465726c79696e67206973206e6f74205745544800000000006044820152606490fd5b90816020910312610364575180151581036103645790565b600260005414612382576002600055565b60405162461bcd60e51b815260206004820152601f60248201527f5265656e7472616e637947756172643a207265656e7472616e742063616c6c006044820152606490fd5b3d15612401573d906001600160401b0382116122c257604051916123f5601f8201601f1916602001846122d8565b82523d6000602084013e565b606090565b1561240d57565b60405162461bcd60e51b81526020600482015260146024820152732330b4b632b2103a379039b2b7321022ba3432b960611b6044820152606490fd5b60001981146124585760010190565b634e487b7160e01b600052601160045260246000fd5b919081101561247e5760051b0190565b634e487b7160e01b600052603260045260246000fd5b81835290916001600160fb1b0383116103645760209260051b809284830137010190565b6001600160401b0381116122c25760051b60200190565b6020929181810384136103645781516001600160401b039283821161036457019060e082820312610364576040519260e08401848110828211176122c25760405282516003811015610364578452858301519081116103645782019080601f83011215610364578151612541816124b8565b9261254f60405194856122d8565b818452878085019260051b820101928311610364578701905b8282106125b35750505082939460c0930152604081015160408401526060810151606084015261259a608082016122f9565b608084015260a081015160a0840152015160c082015290565b81518152908701908701612568565b805182101561247e5760209160051b010190565b919082039182116124585756fea264697066735822122064613b81a8c845288da067ddfdb2757131edcc1263d9e583ec7fdf59ef8004bd64736f6c63430008130033",
  "linkReferences": {},
  "deployedLinkReferences": {}
}