{
  "_format": "hh-sol-artifact-1",
  "contractName": "WETHGateway",
  "sourceName": "contracts/protocol/WETHGateway.sol",
  "abi": [
    {
      "inputs": [
        {
          "internalType": "contract IAddressesProvider",
          "name": "addressesProvider",
          "type": "address"
        }
      ],
      "stateMutability": "nonpayable",
      "type": "constructor"
    },
    {
      "stateMutability": "payable",
      "type": "fallback"
    },
    {
      "inputs": [
        {
          "internalType": "uint256",
          "name": "amount",
          "type": "uint256"
        },
        {
          "internalType": "address",
          "name": "nftAddress",
          "type": "address"
        },
        {
          "internalType": "uint256",
          "name": "nftTokenId",
          "type": "uint256"
        },
        {
          "internalType": "uint256",
          "name": "genesisNFTId",
          "type": "uint256"
        },
        {
          "internalType": "bytes32",
          "name": "request",
          "type": "bytes32"
        },
        {
          "components": [
            {
              "internalType": "uint8",
              "name": "v",
              "type": "uint8"
            },
            {
              "internalType": "bytes32",
              "name": "r",
              "type": "bytes32"
            },
            {
              "internalType": "bytes32",
              "name": "s",
              "type": "bytes32"
            },
            {
              "internalType": "bytes32",
              "name": "request",
              "type": "bytes32"
            },
            {
              "internalType": "uint256",
              "name": "deadline",
              "type": "uint256"
            },
            {
              "internalType": "bytes",
              "name": "payload",
              "type": "bytes"
            }
          ],
          "internalType": "struct Trustus.TrustusPacket",
          "name": "packet",
          "type": "tuple"
        }
      ],
      "name": "borrow",
      "outputs": [],
      "stateMutability": "nonpayable",
      "type": "function"
    },
    {
      "inputs": [
        {
          "internalType": "address",
          "name": "pool",
          "type": "address"
        },
        {
          "internalType": "uint256[]",
          "name": "nftIds",
          "type": "uint256[]"
        },
        {
          "internalType": "uint256",
          "name": "maximumPrice",
          "type": "uint256"
        }
      ],
      "name": "buy",
      "outputs": [],
      "stateMutability": "payable",
      "type": "function"
    },
    {
      "inputs": [
        {
          "internalType": "address",
          "name": "lendingPool",
          "type": "address"
        }
      ],
      "name": "depositLendingPool",
      "outputs": [],
      "stateMutability": "payable",
      "type": "function"
    },
    {
      "inputs": [
        {
          "internalType": "address",
          "name": "pool",
          "type": "address"
        },
        {
          "internalType": "uint256[]",
          "name": "nftIds",
          "type": "uint256[]"
        },
        {
          "internalType": "uint256",
          "name": "initialPrice",
          "type": "uint256"
        },
        {
          "internalType": "address",
          "name": "curve",
          "type": "address"
        },
        {
          "internalType": "uint256",
          "name": "delta",
          "type": "uint256"
        },
        {
          "internalType": "uint256",
          "name": "fee",
          "type": "uint256"
        }
      ],
      "name": "depositTradingPool",
      "outputs": [],
      "stateMutability": "payable",
      "type": "function"
    },
    {
      "inputs": [
        {
          "internalType": "address",
          "name": "",
          "type": "address"
        },
        {
          "internalType": "address",
          "name": "",
          "type": "address"
        },
        {
          "internalType": "uint256",
          "name": "",
          "type": "uint256"
        },
        {
          "internalType": "bytes",
          "name": "",
          "type": "bytes"
        }
      ],
      "name": "onERC721Received",
      "outputs": [
        {
          "internalType": "bytes4",
          "name": "",
          "type": "bytes4"
        }
      ],
      "stateMutability": "pure",
      "type": "function"
    },
    {
      "inputs": [
        {
          "internalType": "uint256",
          "name": "loanId",
          "type": "uint256"
        }
      ],
      "name": "repay",
      "outputs": [],
      "stateMutability": "payable",
      "type": "function"
    },
    {
      "inputs": [
        {
          "internalType": "address",
          "name": "pool",
          "type": "address"
        },
        {
          "internalType": "uint256[]",
          "name": "nftIds",
          "type": "uint256[]"
        },
        {
          "internalType": "uint256[]",
          "name": "liquidityPairs",
          "type": "uint256[]"
        },
        {
          "internalType": "uint256",
          "name": "minimumPrice",
          "type": "uint256"
        }
      ],
      "name": "sell",
      "outputs": [],
      "stateMutability": "nonpayable",
      "type": "function"
    },
    {
      "inputs": [
        {
          "internalType": "contract ITradingPool",
          "name": "buyPool",
          "type": "address"
        },
        {
          "internalType": "contract ITradingPool",
          "name": "sellPool",
          "type": "address"
        },
        {
          "internalType": "uint256[]",
          "name": "buyNftIds",
          "type": "uint256[]"
        },
        {
          "internalType": "uint256",
          "name": "maximumBuyPrice",
          "type": "uint256"
        },
        {
          "internalType": "uint256[]",
          "name": "sellNftIds",
          "type": "uint256[]"
        },
        {
          "internalType": "uint256[]",
          "name": "sellLps",
          "type": "uint256[]"
        },
        {
          "internalType": "uint256",
          "name": "minimumSellPrice",
          "type": "uint256"
        }
      ],
      "name": "swap",
      "outputs": [],
      "stateMutability": "payable",
      "type": "function"
    },
    {
      "inputs": [
        {
          "internalType": "address",
          "name": "pool",
          "type": "address"
        },
        {
          "internalType": "uint256[]",
          "name": "lpIds",
          "type": "uint256[]"
        }
      ],
      "name": "withdrawBatchTradingPool",
      "outputs": [],
      "stateMutability": "nonpayable",
      "type": "function"
    },
    {
      "inputs": [
        {
          "internalType": "address",
          "name": "lendingPool",
          "type": "address"
        },
        {
          "internalType": "uint256",
          "name": "amount",
          "type": "uint256"
        }
      ],
      "name": "withdrawLendingPool",
      "outputs": [],
      "stateMutability": "nonpayable",
      "type": "function"
    },
    {
      "inputs": [
        {
          "internalType": "address",
          "name": "pool",
          "type": "address"
        },
        {
          "internalType": "uint256",
          "name": "lpId",
          "type": "uint256"
        }
      ],
      "name": "withdrawTradingPool",
      "outputs": [],
      "stateMutability": "nonpayable",
      "type": "function"
    },
    {
      "stateMutability": "payable",
      "type": "receive"
    }
  ],
  "bytecode": "0x60806040523480156200001157600080fd5b50604051620037003803806200370083398101604081905262000034916200005f565b6001600081905580546001600160a01b0319166001600160a01b039290921691909117905562000091565b6000602082840312156200007257600080fd5b81516001600160a01b03811681146200008a57600080fd5b9392505050565b61365f80620000a16000396000f3fe6080604052600436106100a05760003560e01c806349591b511161006457806349591b5114610280578063558ab47c146102a05780636a508606146102c05780636bc365f4146102d3578063b31f0d62146102f3578063b967f1101461030657610179565b80630480358d146101b85780630f19bee0146101cb578063150b7a02146101eb5780633168cf4f1461024d578063371fd8e61461026d57610179565b3661017957600160009054906101000a90046001600160a01b03166001600160a01b031663cae5f11e6040518163ffffffff1660e01b8152600401602060405180830381865afa1580156100f8573d6000803e3d6000fd5b505050506040513d601f19601f8201168201806040525081019061011c9190612c63565b6001600160a01b0316336001600160a01b0316146101775760405162461bcd60e51b8152602060048201526013602482015272149958d95a5d99481b9bdd08185b1b1bddd959606a1b60448201526064015b60405180910390fd5b005b60405162461bcd60e51b815260206004820152601460248201527311985b1b189858dac81b9bdd08185b1b1bddd95960621b604482015260640161016e565b6101776101c6366004612d83565b610319565b3480156101d757600080fd5b506101776101e6366004612e00565b61072a565b3480156101f757600080fd5b50610230610206366004612e2c565b7f150b7a023d4804d13e8c85fb27262cb750cf6ba9f9dd3bb30d90f482ceeb4b1f95945050505050565b6040516001600160e01b0319909116815260200160405180910390f35b34801561025957600080fd5b50610177610268366004612e00565b610aef565b61017761027b366004612eca565b610d57565b34801561028c57600080fd5b5061017761029b366004612ee3565b61112d565b3480156102ac57600080fd5b506101776102bb366004612f60565b61155a565b6101776102ce366004612fdb565b61191b565b3480156102df57600080fd5b506101776102ee366004612ff8565b611b7a565b610177610301366004613047565b612061565b61017761031436600461309f565b61240d565b610321612be5565b60015460408051636572f88f60e11b815290516000926001600160a01b03169163cae5f11e9160048083019260209291908290030181865afa15801561036b573d6000803e3d6000fd5b505050506040513d601f19601f8201168201806040525081019061038f9190612c63565b9050806001600160a01b0316876001600160a01b03166321df0da76040518163ffffffff1660e01b8152600401602060405180830381865afa1580156103d9573d6000803e3d6000fd5b505050506040513d601f19601f820116820180604052508101906103fd9190612c63565b6001600160a01b0316146104235760405162461bcd60e51b815260040161016e9061315f565b60005b865181101561051e57876001600160a01b03166388a6360e6040518163ffffffff1660e01b8152600401602060405180830381865afa15801561046d573d6000803e3d6000fd5b505050506040513d601f19601f820116820180604052508101906104919190612c63565b6001600160a01b03166342842e0e33308a85815181106104b3576104b3613196565b60200260200101516040518463ffffffff1660e01b81526004016104d9939291906131ac565b600060405180830381600087803b1580156104f357600080fd5b505af1158015610507573d6000803e3d6000fd5b505050508080610516906131e6565b915050610426565b50866001600160a01b03166388a6360e6040518163ffffffff1660e01b8152600401602060405180830381865afa15801561055d573d6000803e3d6000fd5b505050506040513d601f19601f820116820180604052508101906105819190612c63565b60405163a22cb46560e01b81526001600160a01b03898116600483015260016024830152919091169063a22cb46590604401600060405180830381600087803b1580156105cd57600080fd5b505af11580156105e1573d6000803e3d6000fd5b50505050806001600160a01b031663d0e30db0346040518263ffffffff1660e01b81526004016000604051808303818588803b15801561062057600080fd5b505af1158015610634573d6000803e3d6000fd5b505060405163095ea7b360e01b81526001600160a01b038b811660048301523460248301528516935063095ea7b3925060440190506020604051808303816000875af1158015610688573d6000803e3d6000fd5b505050506040513d601f19601f820116820180604052508101906106ac91906131ff565b50604051632fc0b19560e21b81526001600160a01b0388169063bf02c654906106e59033908a9034908b908b908b908b9060040161325c565b600060405180830381600087803b1580156106ff57600080fd5b505af1158015610713573d6000803e3d6000fd5b50505050506107226001600055565b505050505050565b610732612be5565b60015460408051636572f88f60e11b815290516000926001600160a01b03169163cae5f11e9160048083019260209291908290030181865afa15801561077c573d6000803e3d6000fd5b505050506040513d601f19601f820116820180604052508101906107a09190612c63565b9050806001600160a01b0316836001600160a01b03166321df0da76040518163ffffffff1660e01b8152600401602060405180830381865afa1580156107ea573d6000803e3d6000fd5b505050506040513d601f19601f8201168201806040525081019061080e9190612c63565b6001600160a01b0316146108345760405162461bcd60e51b815260040161016e9061315f565b604051632142170760e11b81526001600160a01b038416906342842e0e90610864903390309087906004016131ac565b600060405180830381600087803b15801561087e57600080fd5b505af1158015610892573d6000803e3d6000fd5b50506040516319ba7e5360e31b815260048101859052600092506001600160a01b038616915063cdd3f29890602401600060405180830381865afa1580156108de573d6000803e3d6000fd5b505050506040513d6000823e601f3d908101601f1916820160405261090691908101906132a7565b604051639c8f9f2360e01b8152600481018590529091506001600160a01b03851690639c8f9f2390602401600060405180830381600087803b15801561094b57600080fd5b505af115801561095f573d6000803e3d6000fd5b5050505060005b815151811015610a00576001600160a01b0385166342842e0e3033855180518690811061099557610995613196565b60200260200101516040518463ffffffff1660e01b81526004016109bb939291906131ac565b600060405180830381600087803b1580156109d557600080fd5b505af11580156109e9573d6000803e3d6000fd5b5050505080806109f8906131e6565b915050610966565b506020810151604051632e1a7d4d60e01b815260048101919091526001600160a01b03831690632e1a7d4d90602401600060405180830381600087803b158015610a4957600080fd5b505af1158015610a5d573d6000803e3d6000fd5b505050506000610a6a3390565b6001600160a01b0316826020015160405160006040518083038185875af1925050503d8060008114610ab8576040519150601f19603f3d011682016040523d82523d6000602084013e610abd565b606091505b5050905080610ade5760405162461bcd60e51b815260040161016e906133a2565b505050610aeb6001600055565b5050565b610af7612be5565b60015460408051636572f88f60e11b815290516000926001600160a01b03169163cae5f11e9160048083019260209291908290030181865afa158015610b41573d6000803e3d6000fd5b505050506040513d601f19601f82011682018060405250810190610b659190612c63565b9050806001600160a01b0316836001600160a01b03166338d52e0f6040518163ffffffff1660e01b8152600401602060405180830381865afa158015610baf573d6000803e3d6000fd5b505050506040513d601f19601f82011682018060405250810190610bd39190612c63565b6001600160a01b031614610bf95760405162461bcd60e51b815260040161016e9061315f565b60408051632d182be560e21b81526004810184905230602482015233604482015290516001600160a01b0385169163b460af9491606480830192602092919082900301816000875af1158015610c53573d6000803e3d6000fd5b505050506040513d601f19601f82011682018060405250810190610c7791906133d0565b50604051632e1a7d4d60e01b8152600481018390526001600160a01b03821690632e1a7d4d90602401600060405180830381600087803b158015610cba57600080fd5b505af1158015610cce573d6000803e3d6000fd5b505050506000610cdb3390565b6001600160a01b03168360405160006040518083038185875af1925050503d8060008114610d25576040519150601f19603f3d011682016040523d82523d6000602084013e610d2a565b606091505b5050905080610d4b5760405162461bcd60e51b815260040161016e906133a2565b5050610aeb6001600055565b610d5f612be5565b600154604080516314d888d960e21b815290516000926001600160a01b03169163536223649160048083019260209291908290030181865afa158015610da9573d6000803e3d6000fd5b505050506040513d601f19601f82011682018060405250810190610dcd9190612c63565b6001600160a01b031663ccff44f1836040518263ffffffff1660e01b8152600401610dfa91815260200190565b602060405180830381865afa158015610e17573d6000803e3d6000fd5b505050506040513d601f19601f82011682018060405250810190610e3b9190612c63565b90506000600160009054906101000a90046001600160a01b03166001600160a01b03166304d21cee6040518163ffffffff1660e01b8152600401602060405180830381865afa158015610e92573d6000803e3d6000fd5b505050506040513d601f19601f82011682018060405250810190610eb69190612c63565b90506000600160009054906101000a90046001600160a01b03166001600160a01b031663cae5f11e6040518163ffffffff1660e01b8152600401602060405180830381865afa158015610f0d573d6000803e3d6000fd5b505050506040513d601f19601f82011682018060405250810190610f319190612c63565b9050806001600160a01b0316836001600160a01b03166338d52e0f6040518163ffffffff1660e01b8152600401602060405180830381865afa158015610f7b573d6000803e3d6000fd5b505050506040513d601f19601f82011682018060405250810190610f9f9190612c63565b6001600160a01b031614610ff55760405162461bcd60e51b815260206004820181905260248201527f4c6f616e20706f6f6c20756e6465726c79696e67206973206e6f742057455448604482015260640161016e565b806001600160a01b031663d0e30db0346040518263ffffffff1660e01b81526004016000604051808303818588803b15801561103057600080fd5b505af1158015611044573d6000803e3d6000fd5b505060405163095ea7b360e01b81526001600160a01b0387811660048301523460248301528516935063095ea7b3925060440190506020604051808303816000875af1158015611098573d6000803e3d6000fd5b505050506040513d601f19601f820116820180604052508101906110bc91906131ff565b5060405163d8aed14560e01b8152600481018590523460248201526001600160a01b0383169063d8aed14590604401600060405180830381600087803b15801561110557600080fd5b505af1158015611119573d6000803e3d6000fd5b5050505050505061112a6001600055565b50565b611135612be5565b60015460408051636572f88f60e11b815290516000926001600160a01b03169163cae5f11e9160048083019260209291908290030181865afa15801561117f573d6000803e3d6000fd5b505050506040513d601f19601f820116820180604052508101906111a39190612c63565b9050806001600160a01b0316856001600160a01b03166321df0da76040518163ffffffff1660e01b8152600401602060405180830381865afa1580156111ed573d6000803e3d6000fd5b505050506040513d601f19601f820116820180604052508101906112119190612c63565b6001600160a01b0316146112375760405162461bcd60e51b815260040161016e9061315f565b60005b845181101561133257856001600160a01b03166388a6360e6040518163ffffffff1660e01b8152600401602060405180830381865afa158015611281573d6000803e3d6000fd5b505050506040513d601f19601f820116820180604052508101906112a59190612c63565b6001600160a01b03166342842e0e33308885815181106112c7576112c7613196565b60200260200101516040518463ffffffff1660e01b81526004016112ed939291906131ac565b600060405180830381600087803b15801561130757600080fd5b505af115801561131b573d6000803e3d6000fd5b50505050808061132a906131e6565b91505061123a565b50846001600160a01b03166388a6360e6040518163ffffffff1660e01b8152600401602060405180830381865afa158015611371573d6000803e3d6000fd5b505050506040513d601f19601f820116820180604052508101906113959190612c63565b60405163a22cb46560e01b81526001600160a01b03878116600483015260016024830152919091169063a22cb46590604401600060405180830381600087803b1580156113e157600080fd5b505af11580156113f5573d6000803e3d6000fd5b50506040516349591b5160e01b8152600092506001600160a01b03881691506349591b519061142e9030908990899089906004016133e9565b6020604051808303816000875af115801561144d573d6000803e3d6000fd5b505050506040513d601f19601f8201168201806040525081019061147191906133d0565b604051632e1a7d4d60e01b8152600481018290529091506001600160a01b03831690632e1a7d4d90602401600060405180830381600087803b1580156114b657600080fd5b505af11580156114ca573d6000803e3d6000fd5b5050505060006114d73390565b6001600160a01b03168260405160006040518083038185875af1925050503d8060008114611521576040519150601f19603f3d011682016040523d82523d6000602084013e611526565b606091505b50509050806115475760405162461bcd60e51b815260040161016e906133a2565b5050506115546001600055565b50505050565b611562612be5565b600154604080516302690e7760e11b815290516000926001600160a01b0316916304d21cee9160048083019260209291908290030181865afa1580156115ac573d6000803e3d6000fd5b505050506040513d601f19601f820116820180604052508101906115d09190612c63565b90506000600160009054906101000a90046001600160a01b03166001600160a01b031663cae5f11e6040518163ffffffff1660e01b8152600401602060405180830381865afa158015611627573d6000803e3d6000fd5b505050506040513d601f19601f8201168201806040525081019061164b9190612c63565b604051632142170760e11b81529091506001600160a01b038816906342842e0e9061167e90339030908b906004016131ac565b600060405180830381600087803b15801561169857600080fd5b505af11580156116ac573d6000803e3d6000fd5b505060405163095ea7b360e01b81526001600160a01b038581166004830152602482018a90528a16925063095ea7b39150604401600060405180830381600087803b1580156116fa57600080fd5b505af115801561170e573d6000803e3d6000fd5b50505050816001600160a01b031663f3b313256117283390565b838b8b8b8b8b8b6040518963ffffffff1660e01b815260040161175298979695949392919061345a565b600060405180830381600087803b15801561176c57600080fd5b505af1158015611780573d6000803e3d6000fd5b50506040516370a0823160e01b81523060048201528a92506001600160a01b03841691506370a0823190602401602060405180830381865afa1580156117ca573d6000803e3d6000fd5b505050506040513d601f19601f820116820180604052508101906117ee91906133d0565b1461183b5760405162461bcd60e51b815260206004820152601960248201527f4e6f7420656e6f75676820574554482072656365697665642e00000000000000604482015260640161016e565b604051632e1a7d4d60e01b8152600481018990526001600160a01b03821690632e1a7d4d90602401600060405180830381600087803b15801561187d57600080fd5b505af1158015611891573d6000803e3d6000fd5b50505050600061189e3390565b6001600160a01b03168960405160006040518083038185875af1925050503d80600081146118e8576040519150601f19603f3d011682016040523d82523d6000602084013e6118ed565b606091505b505090508061190e5760405162461bcd60e51b815260040161016e906133a2565b5050506107226001600055565b611923612be5565b60015460408051636572f88f60e11b815290516000926001600160a01b03169163cae5f11e9160048083019260209291908290030181865afa15801561196d573d6000803e3d6000fd5b505050506040513d601f19601f820116820180604052508101906119919190612c63565b9050806001600160a01b0316826001600160a01b03166338d52e0f6040518163ffffffff1660e01b8152600401602060405180830381865afa1580156119db573d6000803e3d6000fd5b505050506040513d601f19601f820116820180604052508101906119ff9190612c63565b6001600160a01b031614611a255760405162461bcd60e51b815260040161016e9061315f565b806001600160a01b031663d0e30db0346040518263ffffffff1660e01b81526004016000604051808303818588803b158015611a6057600080fd5b505af1158015611a74573d6000803e3d6000fd5b505060405163095ea7b360e01b81526001600160a01b0386811660048301523460248301528516935063095ea7b3925060440190506020604051808303816000875af1158015611ac8573d6000803e3d6000fd5b505050506040513d601f19601f82011682018060405250810190611aec91906131ff565b506001600160a01b038216636e553f6534336040516001600160e01b031960e085901b16815260048101929092526001600160a01b031660248201526044016020604051808303816000875af1158015611b4a573d6000803e3d6000fd5b505050506040513d601f19601f82011682018060405250810190611b6e91906133d0565b505061112a6001600055565b611b82612be5565b60015460408051636572f88f60e11b815290516000926001600160a01b03169163cae5f11e9160048083019260209291908290030181865afa158015611bcc573d6000803e3d6000fd5b505050506040513d601f19601f82011682018060405250810190611bf09190612c63565b905060008083516001600160401b03811115611c0e57611c0e612c87565b604051908082528060200260200182016040528015611c4157816020015b6060815260200190600190039081611c2c5790505b509050826001600160a01b0316856001600160a01b03166321df0da76040518163ffffffff1660e01b8152600401602060405180830381865afa158015611c8c573d6000803e3d6000fd5b505050506040513d601f19601f82011682018060405250810190611cb09190612c63565b6001600160a01b031614611cd65760405162461bcd60e51b815260040161016e9061315f565b60005b8451811015611e35576001600160a01b0386166342842e0e3330888581518110611d0557611d05613196565b60200260200101516040518463ffffffff1660e01b8152600401611d2b939291906131ac565b600060405180830381600087803b158015611d4557600080fd5b505af1158015611d59573d6000803e3d6000fd5b505050506000866001600160a01b031663cdd3f298878481518110611d8057611d80613196565b60200260200101516040518263ffffffff1660e01b8152600401611da691815260200190565b600060405180830381865afa158015611dc3573d6000803e3d6000fd5b505050506040513d6000823e601f3d908101601f19168201604052611deb91908101906132a7565b9050806020015184611dfd9190613549565b93508060000151838381518110611e1657611e16613196565b6020026020010181905250508080611e2d906131e6565b915050611cd9565b506040516336903d8d60e11b81526001600160a01b03861690636d207b1a90611e62908790600401613562565b600060405180830381600087803b158015611e7c57600080fd5b505af1158015611e90573d6000803e3d6000fd5b5050505060005b8151811015611f7f5760005b828281518110611eb557611eb5613196565b602002602001015151811015611f6c576001600160a01b0387166342842e0e3033868681518110611ee857611ee8613196565b60200260200101518581518110611f0157611f01613196565b60200260200101516040518463ffffffff1660e01b8152600401611f27939291906131ac565b600060405180830381600087803b158015611f4157600080fd5b505af1158015611f55573d6000803e3d6000fd5b505050508080611f64906131e6565b915050611ea3565b5080611f77816131e6565b915050611e97565b50604051632e1a7d4d60e01b8152600481018390526001600160a01b03841690632e1a7d4d90602401600060405180830381600087803b158015611fc257600080fd5b505af1158015611fd6573d6000803e3d6000fd5b505050506000611fe33390565b6001600160a01b03168360405160006040518083038185875af1925050503d806000811461202d576040519150601f19603f3d011682016040523d82523d6000602084013e612032565b606091505b50509050806120535760405162461bcd60e51b815260040161016e906133a2565b50505050610aeb6001600055565b612069612be5565b60015460408051636572f88f60e11b815290516000926001600160a01b03169163cae5f11e9160048083019260209291908290030181865afa1580156120b3573d6000803e3d6000fd5b505050506040513d601f19601f820116820180604052508101906120d79190612c63565b9050806001600160a01b0316846001600160a01b03166321df0da76040518163ffffffff1660e01b8152600401602060405180830381865afa158015612121573d6000803e3d6000fd5b505050506040513d601f19601f820116820180604052508101906121459190612c63565b6001600160a01b03161461216b5760405162461bcd60e51b815260040161016e9061315f565b8134146121cb5760405162461bcd60e51b815260206004820152602860248201527f53656e742076616c7565206973206e6f7420657175616c20746f206d6178696d604482015267756d20707269636560c01b606482015260840161016e565b806001600160a01b031663d0e30db0346040518263ffffffff1660e01b81526004016000604051808303818588803b15801561220657600080fd5b505af115801561221a573d6000803e3d6000fd5b505060405163095ea7b360e01b81526001600160a01b0388811660048301523460248301528516935063095ea7b3925060440190506020604051808303816000875af115801561226e573d6000803e3d6000fd5b505050506040513d601f19601f8201168201806040525081019061229291906131ff565b5060405163598f86b160e11b81526000906001600160a01b0386169063b31f0d62906122c690339088908890600401613575565b6020604051808303816000875af11580156122e5573d6000803e3d6000fd5b505050506040513d601f19601f8201168201806040525081019061230991906133d0565b9050803411156123fc576001600160a01b038216632e1a7d4d61232c83346135a9565b6040518263ffffffff1660e01b815260040161234a91815260200190565b600060405180830381600087803b15801561236457600080fd5b505af1158015612378573d6000803e3d6000fd5b5050505060006123853390565b6001600160a01b031661239883346135a9565b604051600081818185875af1925050503d80600081146123d4576040519150601f19603f3d011682016040523d82523d6000602084013e6123d9565b606091505b50509050806123fa5760405162461bcd60e51b815260040161016e906133a2565b505b50506124086001600055565b505050565b612415612be5565b60015460408051636572f88f60e11b815290516000926001600160a01b03169163cae5f11e9160048083019260209291908290030181865afa15801561245f573d6000803e3d6000fd5b505050506040513d601f19601f820116820180604052508101906124839190612c63565b90506000600160009054906101000a90046001600160a01b03166001600160a01b031663725c9c496040518163ffffffff1660e01b8152600401602060405180830381865afa1580156124da573d6000803e3d6000fd5b505050506040513d601f19601f820116820180604052508101906124fe9190612c63565b9050816001600160a01b0316896001600160a01b03166321df0da76040518163ffffffff1660e01b8152600401602060405180830381865afa158015612548573d6000803e3d6000fd5b505050506040513d601f19601f8201168201806040525081019061256c9190612c63565b6001600160a01b0316146125c25760405162461bcd60e51b815260206004820152601f60248201527f42757920706f6f6c20756e6465726c79696e67206973206e6f74205745544800604482015260640161016e565b816001600160a01b0316886001600160a01b03166321df0da76040518163ffffffff1660e01b8152600401602060405180830381865afa15801561260a573d6000803e3d6000fd5b505050506040513d601f19601f8201168201806040525081019061262e9190612c63565b6001600160a01b0316146126845760405162461bcd60e51b815260206004820181905260248201527f53656c6c20706f6f6c20756e6465726c79696e67206973206e6f742057455448604482015260640161016e565b828611156126f55761269683876135a9565b34146126f55760405162461bcd60e51b815260206004820152602860248201527f4e6f7420656e6f756768204554482073656e7420746f20636f7665722073776160448201526770206368616e676560c01b606482015260840161016e565b60005b85518110156127f057886001600160a01b03166388a6360e6040518163ffffffff1660e01b8152600401602060405180830381865afa15801561273f573d6000803e3d6000fd5b505050506040513d601f19601f820116820180604052508101906127639190612c63565b6001600160a01b03166342842e0e333089858151811061278557612785613196565b60200260200101516040518463ffffffff1660e01b81526004016127ab939291906131ac565b600060405180830381600087803b1580156127c557600080fd5b505af11580156127d9573d6000803e3d6000fd5b5050505080806127e8906131e6565b9150506126f8565b50876001600160a01b03166388a6360e6040518163ffffffff1660e01b8152600401602060405180830381865afa15801561282f573d6000803e3d6000fd5b505050506040513d601f19601f820116820180604052508101906128539190612c63565b60405163a22cb46560e01b81526001600160a01b038a8116600483015260016024830152919091169063a22cb46590604401600060405180830381600087803b15801561289f57600080fd5b505af11580156128b3573d6000803e3d6000fd5b50505050816001600160a01b031663d0e30db0346040518263ffffffff1660e01b81526004016000604051808303818588803b1580156128f257600080fd5b505af1158015612906573d6000803e3d6000fd5b505060405163095ea7b360e01b81526001600160a01b0385811660048301523460248301528616935063095ea7b3925060440190506020604051808303816000875af115801561295a573d6000803e3d6000fd5b505050506040513d601f19601f8201168201806040525081019061297e91906131ff565b50604051630b967f1160e41b81526000906001600160a01b0383169063b967f110906129ba908d908d908d908d908d908d908d906004016135bc565b6020604051808303816000875af11580156129d9573d6000803e3d6000fd5b505050506040513d601f19601f820116820180604052508101906129fd91906133d0565b905060005b8851811015612afa578a6001600160a01b03166388a6360e6040518163ffffffff1660e01b8152600401602060405180830381865afa158015612a49573d6000803e3d6000fd5b505050506040513d601f19601f82011682018060405250810190612a6d9190612c63565b6001600160a01b03166342842e0e30338c8581518110612a8f57612a8f613196565b60200260200101516040518463ffffffff1660e01b8152600401612ab5939291906131ac565b600060405180830381600087803b158015612acf57600080fd5b505af1158015612ae3573d6000803e3d6000fd5b505050508080612af2906131e6565b915050612a02565b50604051632e1a7d4d60e01b8152600481018290526001600160a01b03841690632e1a7d4d90602401600060405180830381600087803b158015612b3d57600080fd5b505af1158015612b51573d6000803e3d6000fd5b505050506000612b5e3390565b6001600160a01b03168260405160006040518083038185875af1925050503d8060008114612ba8576040519150601f19603f3d011682016040523d82523d6000602084013e612bad565b606091505b5050905080612bce5760405162461bcd60e51b815260040161016e906133a2565b50505050612bdc6001600055565b50505050505050565b600260005403612c375760405162461bcd60e51b815260206004820152601f60248201527f5265656e7472616e637947756172643a207265656e7472616e742063616c6c00604482015260640161016e565b6002600055565b6001600160a01b038116811461112a57600080fd5b8051612c5e81612c3e565b919050565b600060208284031215612c7557600080fd5b8151612c8081612c3e565b9392505050565b634e487b7160e01b600052604160045260246000fd5b60405160c081016001600160401b0381118282101715612cbf57612cbf612c87565b60405290565b604051601f8201601f191681016001600160401b0381118282101715612ced57612ced612c87565b604052919050565b60006001600160401b03821115612d0e57612d0e612c87565b5060051b60200190565b600082601f830112612d2957600080fd5b81356020612d3e612d3983612cf5565b612cc5565b82815260059290921b84018101918181019086841115612d5d57600080fd5b8286015b84811015612d785780358352918301918301612d61565b509695505050505050565b60008060008060008060c08789031215612d9c57600080fd5b8635612da781612c3e565b955060208701356001600160401b03811115612dc257600080fd5b612dce89828a01612d18565b955050604087013593506060870135612de681612c3e565b9598949750929560808101359460a0909101359350915050565b60008060408385031215612e1357600080fd5b8235612e1e81612c3e565b946020939093013593505050565b600080600080600060808688031215612e4457600080fd5b8535612e4f81612c3e565b94506020860135612e5f81612c3e565b93506040860135925060608601356001600160401b0380821115612e8257600080fd5b818801915088601f830112612e9657600080fd5b813581811115612ea557600080fd5b896020828501011115612eb757600080fd5b9699959850939650602001949392505050565b600060208284031215612edc57600080fd5b5035919050565b60008060008060808587031215612ef957600080fd5b8435612f0481612c3e565b935060208501356001600160401b0380821115612f2057600080fd5b612f2c88838901612d18565b94506040870135915080821115612f4257600080fd5b50612f4f87828801612d18565b949793965093946060013593505050565b60008060008060008060c08789031215612f7957600080fd5b863595506020870135612f8b81612c3e565b945060408701359350606087013592506080870135915060a08701356001600160401b03811115612fbb57600080fd5b870160c0818a031215612fcd57600080fd5b809150509295509295509295565b600060208284031215612fed57600080fd5b8135612c8081612c3e565b6000806040838503121561300b57600080fd5b823561301681612c3e565b915060208301356001600160401b0381111561303157600080fd5b61303d85828601612d18565b9150509250929050565b60008060006060848603121561305c57600080fd5b833561306781612c3e565b925060208401356001600160401b0381111561308257600080fd5b61308e86828701612d18565b925050604084013590509250925092565b600080600080600080600060e0888a0312156130ba57600080fd5b87356130c581612c3e565b965060208801356130d581612c3e565b955060408801356001600160401b03808211156130f157600080fd5b6130fd8b838c01612d18565b965060608a0135955060808a013591508082111561311a57600080fd5b6131268b838c01612d18565b945060a08a013591508082111561313c57600080fd5b506131498a828b01612d18565b92505060c0880135905092959891949750929550565b6020808252601b908201527f506f6f6c20756e6465726c79696e67206973206e6f7420574554480000000000604082015260600190565b634e487b7160e01b600052603260045260246000fd5b6001600160a01b039384168152919092166020820152604081019190915260600190565b634e487b7160e01b600052601160045260246000fd5b6000600182016131f8576131f86131d0565b5060010190565b60006020828403121561321157600080fd5b81518015158114612c8057600080fd5b600081518084526020808501945080840160005b8381101561325157815187529582019590820190600101613235565b509495945050505050565b600060018060a01b03808a16835260e0602084015261327e60e084018a613221565b604084019890985260608301969096525092909316608083015260a082015260c0015292915050565b600060208083850312156132ba57600080fd5b82516001600160401b03808211156132d157600080fd5b9084019060c082870312156132e557600080fd5b6132ed612c9d565b8251828111156132fc57600080fd5b83019150601f8201871361330f57600080fd5b815161331d612d3982612cf5565b81815260059190911b8301850190858101908983111561333c57600080fd5b938601935b8285101561335a57845182529386019390860190613341565b8352505082840151848201526040808401519082015261337c60608401612c53565b60608201526080830151608082015260a083015160a08201528094505050505092915050565b6020808252601490820152732330b4b632b2103a379039b2b7321022ba3432b960611b604082015260600190565b6000602082840312156133e257600080fd5b5051919050565b6001600160a01b038516815260806020820181905260009061340d90830186613221565b828103604084015261341f8186613221565b91505082606083015295945050505050565b81835281816020850137506000828201602090810191909152601f909101601f19169091010190565b600061010060018060a01b03808c168452808b1660208501528960408501528089166060850152508660808401528560a08401528460c08401528060e0840152833560ff81168082146134ac57600080fd5b8083860152505050602083013561012083015260408301356101408301526060830135610160830152608083013561018083015260a0830135601e198436030181126134f757600080fd5b83016020810190356001600160401b0381111561351357600080fd5b80360382131561352257600080fd5b60c06101a08501526135396101c085018284613431565b9c9b505050505050505050505050565b8082018082111561355c5761355c6131d0565b92915050565b602081526000612c806020830184613221565b6001600160a01b038416815260606020820181905260009061359990830185613221565b9050826040830152949350505050565b8181038181111561355c5761355c6131d0565b6001600160a01b0388811682528716602082015260e0604082018190526000906135e890830188613221565b86606084015282810360808401526136008187613221565b905082810360a08401526136148186613221565b9150508260c08301529897505050505050505056fea2646970667358221220e73bcaca18f8282cf57aa40bc73556114e3ed105f3925e098917aff60f5e1d9464736f6c63430008110033",
  "linkReferences": {},
  "deployedLinkReferences": {}
}