{
  "_format": "hh-sol-artifact-1",
  "contractName": "WETHGateway",
  "sourceName": "contracts/protocol/WETHGateway.sol",
  "abi": [
    {
      "inputs": [
        {
          "internalType": "contract IAddressesProvider",
          "name": "addressesProvider",
          "type": "address"
        },
        {
          "internalType": "address",
          "name": "weth",
          "type": "address"
        }
      ],
      "stateMutability": "nonpayable",
      "type": "constructor"
    },
    {
      "stateMutability": "payable",
      "type": "fallback"
    },
    {
      "inputs": [
        {
          "internalType": "uint256",
          "name": "amount",
          "type": "uint256"
        },
        {
          "internalType": "address",
          "name": "nftAddress",
          "type": "address"
        },
        {
          "internalType": "uint256[]",
          "name": "nftTokenIds",
          "type": "uint256[]"
        },
        {
          "internalType": "uint256",
          "name": "genesisNFTId",
          "type": "uint256"
        },
        {
          "internalType": "bytes32",
          "name": "request",
          "type": "bytes32"
        },
        {
          "components": [
            {
              "internalType": "uint8",
              "name": "v",
              "type": "uint8"
            },
            {
              "internalType": "bytes32",
              "name": "r",
              "type": "bytes32"
            },
            {
              "internalType": "bytes32",
              "name": "s",
              "type": "bytes32"
            },
            {
              "internalType": "bytes32",
              "name": "request",
              "type": "bytes32"
            },
            {
              "internalType": "uint256",
              "name": "deadline",
              "type": "uint256"
            },
            {
              "internalType": "bytes",
              "name": "payload",
              "type": "bytes"
            }
          ],
          "internalType": "struct Trustus.TrustusPacket",
          "name": "packet",
          "type": "tuple"
        }
      ],
      "name": "borrow",
      "outputs": [],
      "stateMutability": "nonpayable",
      "type": "function"
    },
    {
      "inputs": [
        {
          "internalType": "address",
          "name": "pool",
          "type": "address"
        },
        {
          "internalType": "uint256[]",
          "name": "nftIds",
          "type": "uint256[]"
        },
        {
          "internalType": "uint256",
          "name": "maximumPrice",
          "type": "uint256"
        }
      ],
      "name": "buy",
      "outputs": [],
      "stateMutability": "payable",
      "type": "function"
    },
    {
      "inputs": [
        {
          "internalType": "address",
          "name": "lendingPool",
          "type": "address"
        }
      ],
      "name": "depositLendingPool",
      "outputs": [],
      "stateMutability": "payable",
      "type": "function"
    },
    {
      "inputs": [
        {
          "internalType": "address",
          "name": "pool",
          "type": "address"
        },
        {
          "internalType": "uint256[]",
          "name": "nftIds",
          "type": "uint256[]"
        },
        {
          "internalType": "uint256",
          "name": "initialPrice",
          "type": "uint256"
        },
        {
          "internalType": "address",
          "name": "curve",
          "type": "address"
        },
        {
          "internalType": "uint256",
          "name": "delta",
          "type": "uint256"
        },
        {
          "internalType": "uint256",
          "name": "fee",
          "type": "uint256"
        }
      ],
      "name": "depositTradingPool",
      "outputs": [],
      "stateMutability": "payable",
      "type": "function"
    },
    {
      "inputs": [
        {
          "internalType": "address",
          "name": "",
          "type": "address"
        },
        {
          "internalType": "address",
          "name": "",
          "type": "address"
        },
        {
          "internalType": "uint256",
          "name": "",
          "type": "uint256"
        },
        {
          "internalType": "bytes",
          "name": "",
          "type": "bytes"
        }
      ],
      "name": "onERC721Received",
      "outputs": [
        {
          "internalType": "bytes4",
          "name": "",
          "type": "bytes4"
        }
      ],
      "stateMutability": "pure",
      "type": "function"
    },
    {
      "inputs": [
        {
          "internalType": "uint256",
          "name": "loanId",
          "type": "uint256"
        }
      ],
      "name": "repay",
      "outputs": [],
      "stateMutability": "payable",
      "type": "function"
    },
    {
      "inputs": [
        {
          "internalType": "address",
          "name": "pool",
          "type": "address"
        },
        {
          "internalType": "uint256[]",
          "name": "nftIds",
          "type": "uint256[]"
        },
        {
          "internalType": "uint256[]",
          "name": "liquidityPairs",
          "type": "uint256[]"
        },
        {
          "internalType": "uint256",
          "name": "minimumPrice",
          "type": "uint256"
        }
      ],
      "name": "sell",
      "outputs": [],
      "stateMutability": "nonpayable",
      "type": "function"
    },
    {
      "inputs": [
        {
          "internalType": "contract ITradingPool",
          "name": "buyPool",
          "type": "address"
        },
        {
          "internalType": "contract ITradingPool",
          "name": "sellPool",
          "type": "address"
        },
        {
          "internalType": "uint256[]",
          "name": "buyNftIds",
          "type": "uint256[]"
        },
        {
          "internalType": "uint256",
          "name": "maximumBuyPrice",
          "type": "uint256"
        },
        {
          "internalType": "uint256[]",
          "name": "sellNftIds",
          "type": "uint256[]"
        },
        {
          "internalType": "uint256[]",
          "name": "sellLps",
          "type": "uint256[]"
        },
        {
          "internalType": "uint256",
          "name": "minimumSellPrice",
          "type": "uint256"
        }
      ],
      "name": "swap",
      "outputs": [],
      "stateMutability": "payable",
      "type": "function"
    },
    {
      "inputs": [
        {
          "internalType": "address",
          "name": "pool",
          "type": "address"
        },
        {
          "internalType": "uint256[]",
          "name": "lpIds",
          "type": "uint256[]"
        }
      ],
      "name": "withdrawBatchTradingPool",
      "outputs": [],
      "stateMutability": "nonpayable",
      "type": "function"
    },
    {
      "inputs": [
        {
          "internalType": "address",
          "name": "lendingPool",
          "type": "address"
        },
        {
          "internalType": "uint256",
          "name": "amount",
          "type": "uint256"
        }
      ],
      "name": "withdrawLendingPool",
      "outputs": [],
      "stateMutability": "nonpayable",
      "type": "function"
    },
    {
      "inputs": [
        {
          "internalType": "address",
          "name": "pool",
          "type": "address"
        },
        {
          "internalType": "uint256",
          "name": "lpId",
          "type": "uint256"
        }
      ],
      "name": "withdrawTradingPool",
      "outputs": [],
      "stateMutability": "nonpayable",
      "type": "function"
    },
    {
      "stateMutability": "payable",
      "type": "receive"
    }
  ],
  "bytecode": "0x60803461009157601f62002b3338819003918201601f19168301916001600160401b038311848410176100965780849260409485528339810103126100915780516001600160a01b039182821691829003610091576020015191821680920361009157600160005560018060a01b0319908160015416176001556002541617600255604051612a869081620000ad8239f35b600080fd5b634e487b7160e01b600052604160045260246000fdfe60806040526004361015610026575b361561001e5761001c6129f8565b005b61001c6128f6565b60003560e01c806301d0e3da146101025780630480358d146100f95780630f19bee0146100f0578063150b7a02146100e75780633168cf4f146100de578063371fd8e6146100d557806349591b51146100cc5780636a508606146100c35780636bc365f4146100ba578063b31f0d62146100b15763b967f1100361000e576100ac611af7565b61000e565b506100ac61182e565b506100ac6114bf565b506100ac6112db565b506100ac610fde565b506100ac610d18565b506100ac610bc6565b506100ac610b58565b506100ac6108a3565b506100ac6104e3565b506100ac610151565b6001600160a01b0381160361011c57565b600080fd5b9181601f8401121561011c578235916001600160401b03831161011c576020808501948460051b01011161011c57565b503461011c5760031960c03682011261011c576004803590602435906101768261010b565b6001600160401b0360443581811161011c576101959036908401610121565b91909560a43591821161011c5760c090823603011261011c576101b6612247565b6001546101d3906001600160a01b03165b6001600160a01b031690565b9560409687519586916302690e7760e11b835282876020998a935afa9182156104d6575b6000926104a7575b506001600160a01b0391821691811660005b8681106103b157505060025461022f906001600160a01b03166101c7565b823b1561011c576000946102678a87938a8e519a8b998a988997636c6911b760e01b8952840195608435956064359533908b016123da565b03925af180156103a4575b610391575b506002546102cf908490610293906001600160a01b03166101c7565b86516370a0823160e01b8152308582019081529195918290829081906020010381895afa918215610384575b600092610357575b5050146124a4565b813b1561011c5760008361030582809681968296836103279b51809681958294632e1a7d4d60e01b845283019190602083019252565b03925af1801561034a575b610331575b50335af161032161229d565b506122ea565b61001c6001600055565b8061033e61034492612120565b80612215565b38610315565b6103526121bc565b610310565b6103769250803d1061037d575b61036e8183612176565b810190612238565b38806102c7565b503d610364565b61038c6121bc565b6102bf565b8061033e61039e92612120565b38610277565b6103ac6121bc565b610272565b6103bc818887612377565b35823b1561011c578b51632142170760e11b8152338a820190815230602082015260408101929092529060009082908190606001038183875af1801561049a575b610487575b5061040e818887612377565b3590823b1561011c578b5163095ea7b360e01b81526001600160a01b038616818b01908152602081019390935261046292600090829081906040015b038183885af1801561047a575b610467575b50612344565b610211565b8061033e61047492612120565b3861045c565b6104826121bc565b610457565b8061033e61049492612120565b38610402565b6104a26121bc565b6103fd565b6104c8919250873d89116104cf575b6104c08183612176565b8101906121a4565b90386101ff565b503d6104b6565b6104de6121bc565b6101f7565b5060c036600319011261011c57600480356104fd8161010b565b6024356001600160401b03811161011c5761051b9036908401610121565b90916064356105298161010b565b610531612247565b604080516321df0da760e01b81526001600160a01b038481169460209290919061058e9084818c818b5afa908115610896575b600091610879575b506002548390610586906101c7906001600160a01b031681565b9116146121c9565b60005b8781106107c5575083516344531b0760e11b815283818b818a5afa9081156107b8575b60009161079b575b5016803b1561011c57835163a22cb46560e01b81526001600160a01b038316818b0190815260016020820152909160009183919082908490829060400103925af1801561078e575b61077b575b5060025461061f906001600160a01b03166101c7565b90813b1561011c5788839181600061069d95885192838092630d0e30db60e41b825234905af1801561076e575b61075b575b50600254610667906001600160a01b03166101c7565b865163095ea7b360e01b81526001600160a01b039092169282019283523460208401529093849283916000918391604090910190565b03925af1801561074e575b610720575b5050823b1561011c576000946106e786925197889687958694632fc0b19560e21b865260a435936084359360443592349233908a0161250c565b03925af18015610713575b6107005761001c6001600055565b8061033e61070d92612120565b38610327565b61071b6121bc565b6106f2565b8161073f92903d10610747575b6107378183612176565b810190612220565b5038806106ad565b503d61072d565b6107566121bc565b6106a8565b8061033e61076892612120565b38610651565b6107766121bc565b61064c565b8061033e61078892612120565b38610609565b6107966121bc565b610604565b6107b29150843d86116104cf576104c08183612176565b386105bc565b6107c06121bc565b6105b4565b84516344531b0760e11b8152829085818d818c5afa90811561086c575b60009161084f575b5016906107f8818a8c612377565b35823b1561011c578651632142170760e11b815233818e01908152306020820152604081019290925261084a93909160009183918290849082906060015b03925af1801561047a576104675750612344565b610591565b6108669150863d88116104cf576104c08183612176565b386107ea565b6108746121bc565b6107e2565b6108909150853d87116104cf576104c08183612176565b3861056c565b61089e6121bc565b610564565b503461011c5760408060031936011261011c576004908135906108c58261010b565b602435916108d1612247565b81516321df0da760e01b81526001600160a01b039182169161091e91906020828881875afa918215610b4b575b600092610b2b575b50600254610586906101c7906001600160a01b031681565b803b1561011c578151632142170760e11b80825233868301908152306020820152604081018690529092919060009082908190606001038183865af18015610b1e575b610b0b575b508251936319ba7e5360e31b855260008580610989848a83019190602083019252565b0381855afa948515610afe575b600095610adb575b50813b1561011c578351639c8f9f2360e01b81528681019182529060009082908190602001038183865af18015610ace575b610abb575b5060005b84518051821015610a2957816109ee91612648565b5190823b1561011c578451848152308882019081523360208201526040810193909352610a24926000908290819060600161044a565b6109d9565b8587866020610a426101c760025460018060a01b031690565b930192835190803b1561011c5760008086610a7e82809681968a836103279b51809681958294632e1a7d4d60e01b845283019190602083019252565b03925af18015610aae575b610a9b575b5051335af161032161229d565b8061033e610aa892612120565b86610a8e565b610ab66121bc565b610a89565b8061033e610ac892612120565b386109d5565b610ad66121bc565b6109d0565b610af791953d8091833e610aef8183612176565b810190612573565b933861099e565b610b066121bc565b610996565b8061033e610b1892612120565b38610966565b610b266121bc565b610961565b610b4491925060203d81116104cf576104c08183612176565b9038610906565b610b536121bc565b6108fe565b503461011c57608036600319011261011c57610b7560043561010b565b610b8060243561010b565b6064356001600160401b0380821161011c573660238301121561011c57816004013590811161011c573691016024011161011c57604051630a85bd0160e11b8152602090f35b503461011c57604036600319011261011c57600435610be48161010b565b60243590610bf0612247565b6040516338d52e0f60e01b81526020916001600160a01b0390811691610c3f918482600481875afa918215610d0b575b600092610cf35750600254610586906101c7906001600160a01b031681565b604051632d182be560e21b815260048101849052306024820152336044820152908290829060649082906000905af18015610ce6575b610cc8575b5050600254610c91906001600160a01b03166101c7565b90813b1561011c5760008080809361032795826040518092632e1a7d4d60e01b825281838161030588600483019190602083019252565b81610cde92903d1061037d5761036e8183612176565b503880610c7a565b610cee6121bc565b610c75565b610b44919250853d87116104cf576104c08183612176565b610d136121bc565b610c20565b5060208060031936011261011c57600490813591610d34612247565b600154610d49906001600160a01b03166101c7565b60409283516314d888d960e21b815281818581865afa908115610fd1575b600091610fb4575b508385519363ccff44f160e01b8552838580610d928b8683019190602083019252565b038160018060a01b038097165afa948515610fa7575b600095610f82575b50908383928851928380926302690e7760e11b82525afa908115610f75575b600091610f58575b501692610e2486516338d52e0f60e01b8152848188818787165afa908115610f4b575b600091610f2e575b50600254610e18906001600160a01b03166101c7565b938085169116146124c1565b813b1561011c57610e9e839186600080958a5192838092630d0e30db60e41b825234905af18015610f21575b610f0e575b50600254610e6b906001600160a01b03166101c7565b885163095ea7b360e01b81526001600160a01b039092168883019081523460208201529194859391928492839160400190565b03925af18015610f01575b610ee3575b5050803b1561011c57915163d8aed14560e01b81529081019283523460208401529160009183918290849082906040016106e7565b81610ef992903d10610747576107378183612176565b503880610eae565b610f096121bc565b610ea9565b8061033e610f1b92612120565b38610e55565b610f296121bc565b610e50565b610f459150853d87116104cf576104c08183612176565b38610e02565b610f536121bc565b610dfa565b610f6f9150843d86116104cf576104c08183612176565b38610dd7565b610f7d6121bc565b610dcf565b8392919550610f9e8591823d84116104cf576104c08183612176565b95919250610db0565b610faf6121bc565b610da8565b610fcb9150823d84116104cf576104c08183612176565b38610d6f565b610fd96121bc565b610d67565b503461011c57608036600319011261011c5760048035610ffd8161010b565b6001600160401b039160243583811161011c5761101d9036908301610121565b9360443590811161011c576110359036908401610121565b611040949194612247565b604080516321df0da760e01b815290966020966001600160a01b0385811693919291611096908a818b81895afa9081156112ce575b6000916112b757506002548390610586906101c7906001600160a01b031681565b60005b828110611213575089516344531b0760e11b815289818a81885afa908115611206575b6000916111e9575b501690813b1561011c57895163a22cb46560e01b81526001600160a01b0390961686890190815260016020820152899660009390918491839182908490829060400103925af180156111dc575b6111c9575b5061113b8a51978896879586946349591b5160e01b8652606435938d3090880161276f565b03925af19283156111bc575b60009361119d575b5050600254611166906001600160a01b03166101c7565b90813b1561011c5760008361030582809681968296836103279b51809681958294632e1a7d4d60e01b845283019190602083019252565b6111b4929350803d1061037d5761036e8183612176565b90388061114f565b6111c46121bc565b611147565b8061033e6111d692612120565b38611116565b6111e46121bc565b611111565b61120091508a3d8c116104cf576104c08183612176565b386110c4565b61120e6121bc565b6110bc565b8a516344531b0760e11b815282908b818c818a5afa9081156112aa575b60009161128d575b50169061124681858b612377565b35823b1561011c578c51632142170760e11b815233818d0190815230602082015260408101929092526112889390916000918391829084908290606001610836565b611099565b6112a491508c8d3d106104cf576104c08183612176565b38611238565b6112b26121bc565b611230565b61089091508b3d8d116104cf576104c08183612176565b6112d66121bc565b611075565b5060208060031936011261011c576004356112f58161010b565b6112fd612247565b6040516338d52e0f60e01b81526001600160a01b03828116929091611356908581600481885afa9081156114b2575b600091611495575b5060025461134a906001600160a01b03166101c7565b938085169116146121c9565b813b1561011c576113d2849160046000809560405192838092630d0e30db60e41b825234905af18015611488575b611475575b5060025461139f906001600160a01b03166101c7565b60405163095ea7b360e01b81526001600160a01b0390921660048301523460248301529093849283919082906044820190565b03925af18015611468575b61144b575b50604051636e553f6560e01b8152346004820152336024820152908290829060449082906000905af1801561143e575b6114205761001c6001600055565b8161143692903d1061037d5761036e8183612176565b503880610327565b6114466121bc565b611412565b61146190833d8511610747576107378183612176565b50386113e2565b6114706121bc565b6113dd565b8061033e61148292612120565b38611389565b6114906121bc565b611384565b6114ac9150863d88116104cf576104c08183612176565b38611334565b6114ba6121bc565b61132c565b503461011c5760408060031936011261011c576004908135916114e18361010b565b6024356001600160401b03811161011c576114ff9036908301610121565b61150a939193612247565b6000906115168161266a565b83516321df0da760e01b81526001600160a01b03978816979196916020916115659183828a818e5afa918215611821575b87926118095750600254610586906101c7906001600160a01b031681565b835b8381106116f2575050863b1561011c5783516336903d8d60e11b8152916000918391829161159891908984016126c9565b0381838a5af180156116e5575b6116d2575b506000905b84518210156116465760005b6115c58387612648565b5151811015611635576115e2816115dc8589612648565b51612648565b5190873b1561011c578451632142170760e11b815230878201908152336020820152604081019390935261163092600090829081906060010381838d5af1801561047a576104675750612344565b6115bb565b509061164090612344565b906115af565b6002549091508390611660906001600160a01b03166101c7565b90813b1561011c5760008361169782809681968296836103279b51809681958294632e1a7d4d60e01b845283019190602083019252565b03925af180156116c5575b6116b25750335af161032161229d565b8061033e6116bf92612120565b86610315565b6116cd6121bc565b6116a2565b8061033e6116df92612120565b386115aa565b6116ed6121bc565b6115a5565b6116fd818585612377565b3594893b1561011c578651632142170760e11b815233898201908152306020820152604081019790975261177396600090829081900360600181838f5af180156117fc575b6117e9575b506000611755838787612377565b358851809881926319ba7e5360e31b83528c83019190602083019252565b03818d5afa9586156117dc575b6000966117b7575b509061179b6117b29284880151906126b4565b95516117a7828b612648565b5261045c818a612648565b611567565b6117d361179b916117b29493983d8091833e610aef8183612176565b96919250611788565b6117e46121bc565b611780565b8061033e6117f692612120565b38611747565b6118046121bc565b611742565b610b44919250843d86116104cf576104c08183612176565b6118296121bc565b611547565b50606036600319011261011c57600480356118488161010b565b6024356001600160401b03811161011c576118669036908401610121565b604435611871612247565b6040516321df0da760e01b81526020946001600160a01b0393818516929091906118ce9088818b81885afa908115611aea575b600091611acd575b506002546118c2906001600160a01b03166101c7565b968088169116146121c9565b6118d98434146126da565b843b1561011c5761198d9561195f888a6000948186849b60405192838092630d0e30db60e41b825234905af18015611ac0575b611aad575b50600254611927906001600160a01b03166101c7565b6040805163095ea7b360e01b81526001600160a01b039093169383019384523460208501529194859391928492899284929190910190565b03925af18015611aa0575b611a83575b5060405163598f86b160e11b815296879586948593338d8601612737565b03925af1918215611a76575b600092611a59575b50508034116119b45761001c6001600055565b6002546119c9906001600160a01b03166101c7565b906119d48134612762565b91803b1561011c576000611a27819493611a108380968196611a329a83604051809681958294632e1a7d4d60e01b845283019190602083019252565b03925af18015611a4c575b611a39575b5034612762565b335af161032161229d565b3880610327565b8061033e611a4692612120565b38611a20565b611a546121bc565b611a1b565b611a6f9250803d1061037d5761036e8183612176565b38806119a1565b611a7e6121bc565b611999565b611a9990873d8911610747576107378183612176565b503861196f565b611aa86121bc565b61196a565b8061033e611aba92612120565b38611911565b611ac86121bc565b61190c565b611ae49150893d8b116104cf576104c08183612176565b386118ac565b611af26121bc565b6118a4565b5060e036600319011261011c57611b0f60043561010b565b611b1a60243561010b565b6001600160401b0360443581811161011c57611b3a903690600401610121565b60843583811161011c57611b52903690600401610121565b909360a43590811161011c57611b6d60049136908301610121565b9190611b77612247565b600154602090611b8f906001600160a01b03166101c7565b60405163725c9c4960e01b815293849182905afa9182156120fc575b6000926120db575b506040516321df0da760e01b815260208160048181356001600160a01b03165afa9081156120ce575b6000916120af575b50600254611c1290611bfe906001600160a01b03166101c7565b916001600160a01b038084169116146127a8565b6040516321df0da760e01b8152611c5b906020816004816024356001600160a01b03165afa9081156120a2575b600091612083575b506001600160a01b038381169116146127f4565b60c43560643511611f9e575b5060005b848110611ee857506040516344531b0760e11b81526020816004816024356001600160a01b03165afa908115611edb575b600091611ebc575b506001600160a01b0316803b1561011c5760405163a22cb46560e01b8152602480356001600160a01b03166004830152600190820152602095600092909190839082908183816044810103925af18015611eaf575b611e9c575b50611d2f604051998a9687958694630b967f1160e41b865260c435938d8d6064359160243560043560048c0161289c565b03926001600160a01b03165af1928315611e8f575b600093611e6e575b5060005b818110611db9578380611d675761001c6001600055565b600254611d7c906001600160a01b03166101c7565b90813b1561011c57600080808093611db395826040518092632e1a7d4d60e01b825281838161169788600483019190602083019252565b80610327565b6040516344531b0760e11b815260208160048181356001600160a01b03165afa908115611e61575b600091611e42575b506001600160a01b031690611dff818486612377565b35823b1561011c57604051632142170760e11b81523060048201523360248201526044810191909152611e3d92600090829081838160648101610836565b611d50565b611e5b915060203d6020116104cf576104c08183612176565b38611de9565b611e696121bc565b611de1565b611e8891935060203d60201161037d5761036e8183612176565b9138611d4c565b611e976121bc565b611d44565b8061033e611ea992612120565b38611cfe565b611eb76121bc565b611cf9565b611ed5915060203d6020116104cf576104c08183612176565b38611ca4565b611ee36121bc565b611c9c565b6040516344531b0760e11b81526020816004816024356001600160a01b03165afa908115611f91575b600091611f72575b506001600160a01b031690611f2f81878b612377565b35823b1561011c57604051632142170760e11b81523360048201523060248201526044810191909152611f6d92600090829081838160648101610836565b611c6b565b611f8b915060203d6020116104cf576104c08183612176565b38611f19565b611f996121bc565b611f11565b611fb6611faf60c435606435612762565b341461283f565b803b1561011c57600060049160405192838092630d0e30db60e41b825234905af18015612076575b612063575b50600254611ff9906001600160a01b03166101c7565b60405163095ea7b360e01b81526001600160a01b038416600482015234602482015290602090829060449082906000905af18015612056575b15611c675761204f9060203d602011610747576107378183612176565b5038611c67565b61205e6121bc565b612032565b8061033e61207092612120565b38611fe3565b61207e6121bc565b611fde565b61209c915060203d6020116104cf576104c08183612176565b38611c47565b6120aa6121bc565b611c3f565b6120c8915060203d6020116104cf576104c08183612176565b38611be4565b6120d66121bc565b611bdc565b6120f591925060203d6020116104cf576104c08183612176565b9038611bb3565b6121046121bc565b611bab565b50634e487b7160e01b600052604160045260246000fd5b6001600160401b03811161213357604052565b61213b612109565b604052565b60c081019081106001600160401b0382111761213357604052565b604081019081106001600160401b0382111761213357604052565b90601f801991011681019081106001600160401b0382111761213357604052565b51906121a28261010b565b565b9081602091031261011c57516121b98161010b565b90565b506040513d6000823e3d90fd5b156121d057565b60405162461bcd60e51b815260206004820152601b60248201527f506f6f6c20756e6465726c79696e67206973206e6f74205745544800000000006044820152606490fd5b600091031261011c57565b9081602091031261011c5751801515810361011c5790565b9081602091031261011c575190565b600260005414612258576002600055565b60405162461bcd60e51b815260206004820152601f60248201527f5265656e7472616e637947756172643a207265656e7472616e742063616c6c006044820152606490fd5b3d156122e5573d906001600160401b0382116122d8575b604051916122cc601f8201601f191660200184612176565b82523d6000602084013e565b6122e0612109565b6122b4565b606090565b156122f157565b60405162461bcd60e51b81526020600482015260146024820152732330b4b632b2103a379039b2b7321022ba3432b960611b6044820152606490fd5b50634e487b7160e01b600052601160045260246000fd5b6001906000198114612354570190565b61235c61232d565b0190565b50634e487b7160e01b600052603260045260246000fd5b9190811015612388575b60051b0190565b612390612360565b612381565b81835290916001600160fb1b03831161011c5760209260051b809284830137010190565b908060209392818452848401376000828201840152601f01601f1916010190565b969897959261241595949160018060a01b0393848092168a521660208901526040880152166060860152610100806080870152850191612395565b9360a083015260c082015260e0818403910152803560ff811680910361011c5782526020810135602083015260408101356040830152606081013560608301526080810135608083015260a0810135601e198236030181121561011c5701602081359101906001600160401b03811161011c57803603821361011c5760c0838160a06121b996015201916123b9565b156124ab57565b634e487b7160e01b600052600160045260246000fd5b156124c857565b606460405162461bcd60e51b815260206004820152602060248201527f4c6f616e20706f6f6c20756e6465726c79696e67206973206e6f7420574554486044820152fd5b94909260c09692612539919a9998959a60018060a01b03809616885260e0602089015260e0880191612395565b986040860152606085015216608083015260a08201520152565b6020906001600160401b03811161256b5760051b0190565b612390612109565b906020808383031261011c5782516001600160401b039384821161011c57019160c08382031261011c57604051936125aa85612140565b835190811161011c5783019080601f8301121561011c5781516125cc81612553565b926125da6040519485612176565b818452848085019260051b82010192831161011c578401905b82821061263957505050835281810151908301526040808201519083015260a09061262060608201612197565b606084015260808101516080840152015160a082015290565b815181529084019084016125f3565b602091815181101561265d575b60051b010190565b612665612360565b612655565b9061267482612553565b6126816040519182612176565b8281528092612692601f1991612553565b019060005b8281106126a357505050565b806060602080938501015201612697565b919082018092116126c157565b6121a261232d565b9160206121b9938181520191612395565b156126e157565b60405162461bcd60e51b815260206004820152602860248201527f53656e742076616c7565206973206e6f7420657175616c20746f206d6178696d604482015267756d20707269636560c01b6064820152608490fd5b9493929160409261275d9260018060a01b03168752606060208801526060870191612395565b930152565b919082039182116126c157565b969594906060949261275d9461279a9260018060a01b03168a52608060208b015260808a0191612395565b918783036040890152612395565b156127af57565b60405162461bcd60e51b815260206004820152601f60248201527f42757920706f6f6c20756e6465726c79696e67206973206e6f742057455448006044820152606490fd5b156127fb57565b606460405162461bcd60e51b815260206004820152602060248201527f53656c6c20706f6f6c20756e6465726c79696e67206973206e6f7420574554486044820152fd5b1561284657565b60405162461bcd60e51b815260206004820152602860248201527f4e6f7420656e6f756768204554482073656e7420746f20636f7665722073776160448201526770206368616e676560c01b6064820152608490fd5b9a999894926128d5906128e89560e08e60c09c9a9561275d9c9760018060a01b0380921683521660208201528160408201520191612395565b9260608c01528a830360808c0152612395565b9187830360a0890152612395565b6002546001600160a01b0316330361299e57604051906129158261215b565b600c825260206b0a4cac6cad2eccac8408aa8960a31b818401526040519063104c13eb60e21b8183015280602483015283519384604484015260005b85811061298a57505050612985606482856000836121a2979884010152601f80199101168101036044810184520182612176565b612a35565b818101830151848201606401528201612951565b60405162461bcd60e51b815260206004820152602c60248201527f5265636569766564204554482066726f6d20756e6b6e6f776e20736f7572636560448201526b081b9bdd08185b1b1bddd95960a21b6064820152608490fd5b5060405162461bcd60e51b815260206004820152601460248201527311985b1b189858dac81b9bdd08185b1b1bddd95960621b6044820152606490fd5b600080916020815191016a636f6e736f6c652e6c6f675afa5056fea2646970667358221220bab3c7e52cf9727c8d1f9da32bf197f6d005ccf67fe084de532075d8fb98237864736f6c63430008110033",
  "linkReferences": {},
  "deployedLinkReferences": {}
}