{
  "_format": "hh-sol-artifact-1",
  "contractName": "WETHGateway",
  "sourceName": "contracts/protocol/WETHGateway.sol",
  "abi": [
    {
      "inputs": [
        {
          "internalType": "contract IAddressesProvider",
          "name": "addressesProvider",
          "type": "address"
        }
      ],
      "stateMutability": "nonpayable",
      "type": "constructor"
    },
    {
      "stateMutability": "payable",
      "type": "fallback"
    },
    {
      "inputs": [
        {
          "internalType": "uint256",
          "name": "amount",
          "type": "uint256"
        },
        {
          "internalType": "address",
          "name": "nftAddress",
          "type": "address"
        },
        {
          "internalType": "uint256",
          "name": "nftTokenId",
          "type": "uint256"
        },
        {
          "internalType": "uint256",
          "name": "genesisNFTId",
          "type": "uint256"
        },
        {
          "internalType": "bytes32",
          "name": "request",
          "type": "bytes32"
        },
        {
          "components": [
            {
              "internalType": "uint8",
              "name": "v",
              "type": "uint8"
            },
            {
              "internalType": "bytes32",
              "name": "r",
              "type": "bytes32"
            },
            {
              "internalType": "bytes32",
              "name": "s",
              "type": "bytes32"
            },
            {
              "internalType": "bytes32",
              "name": "request",
              "type": "bytes32"
            },
            {
              "internalType": "uint256",
              "name": "deadline",
              "type": "uint256"
            },
            {
              "internalType": "bytes",
              "name": "payload",
              "type": "bytes"
            }
          ],
          "internalType": "struct Trustus.TrustusPacket",
          "name": "packet",
          "type": "tuple"
        }
      ],
      "name": "borrowETH",
      "outputs": [],
      "stateMutability": "nonpayable",
      "type": "function"
    },
    {
      "inputs": [
        {
          "internalType": "address",
          "name": "lendingVault",
          "type": "address"
        }
      ],
      "name": "depositETH",
      "outputs": [],
      "stateMutability": "payable",
      "type": "function"
    },
    {
      "inputs": [
        {
          "internalType": "address",
          "name": "",
          "type": "address"
        },
        {
          "internalType": "address",
          "name": "",
          "type": "address"
        },
        {
          "internalType": "uint256",
          "name": "",
          "type": "uint256"
        },
        {
          "internalType": "bytes",
          "name": "",
          "type": "bytes"
        }
      ],
      "name": "onERC721Received",
      "outputs": [
        {
          "internalType": "bytes4",
          "name": "",
          "type": "bytes4"
        }
      ],
      "stateMutability": "pure",
      "type": "function"
    },
    {
      "inputs": [
        {
          "internalType": "uint256",
          "name": "loanId",
          "type": "uint256"
        }
      ],
      "name": "repayETH",
      "outputs": [],
      "stateMutability": "payable",
      "type": "function"
    },
    {
      "inputs": [
        {
          "internalType": "address",
          "name": "reserve",
          "type": "address"
        },
        {
          "internalType": "uint256",
          "name": "amount",
          "type": "uint256"
        }
      ],
      "name": "withdrawETH",
      "outputs": [],
      "stateMutability": "nonpayable",
      "type": "function"
    },
    {
      "stateMutability": "payable",
      "type": "receive"
    }
  ],
  "bytecode": "0x60803461007557601f610e4338819003918201601f19168301916001600160401b0383118484101761007a5780849260209460405283398101031261007557516001600160a01b0381169081900361007557600160005560018060a01b03196001541617600155604051610db290816100918239f35b600080fd5b634e487b7160e01b600052604160045260246000fdfe6040608081526004803610156100fe575b361561004f576020606492519162461bcd60e51b8352820152601460248201527311985b1b189858dac81b9bdd08185b1b1bddd95960621b6044820152fd5b6001548251636572f88f60e11b81526001600160a01b039160209082908590829086165afa9081156100f3576000916100c5575b5016330361008d57005b6020606492519162461bcd60e51b83528201526013602482015272149958d95a5d99481b9bdd08185b1b1bddd959606a1b6044820152fd5b6100e6915060203d81116100ec575b6100de8183610bfe565b810190610c20565b38610083565b503d6100d4565b84513d6000823e3d90fd5b6000803560e01c806204c4fd14610874578063150b7a02146108095780632247463e146105225780632d2da8061461030f57634782f779146101405750610010565b80923461030b578060031936011261030b5761015a610bbe565b9060243593610167610ca3565b6001548251636572f88f60e11b81526020916001600160a01b039190839082908690829086165afa908115610301578291829189916102e4575b501695169084516338d52e0f60e01b815283818681865afa9081156102da578785938a95936101d99387916102bd575b501614610c3f565b6064865180948193632d182be560e21b83528c898401523060248401523360448401525af180156102b35761027f575b5050823b1561027b5784602485928385519687948593632e1a7d4d60e01b85528401525af1908115610272575061025b575b5080808061025494335af161024e610cf9565b50610d39565b6001815580f35b6102658291610bd4565b61026f573861023b565b80fd5b513d84823e3d90fd5b8380fd5b90809295503d83116102ac575b6102968183610bfe565b810103126102a75784923880610209565b600080fd5b503d61028c565b84513d88823e3d90fd5b6102d49150863d88116100ec576100de8183610bfe565b386101d1565b86513d8a823e3d90fd5b6102fb9150853d87116100ec576100de8183610bfe565b386101a1565b85513d89823e3d90fd5b5080fd5b5080926020928360031936011261051e57610328610bbe565b90610331610ca3565b6001548351636572f88f60e11b81526001600160a01b039391879082908590829088165afa9081156105145790849187916104f7575b5016908381169385516338d52e0f60e01b815288818681895afa9081156104ed5791849161039d938a916104d657501614610c3f565b813b156104c8578451630d0e30db60e41b81528681858134875af180156104cc579187939189936104ad575b50865163095ea7b360e01b81526001600160a01b039091168582019081523460208201529093849291839190829060400103925af180156104a35791604491879493610476575b5084519586938492636e553f6560e01b845234908401523360248401525af190811561046d5750610444575b826001815580f35b813d8311610466575b6104578183610bfe565b810103126102a757388061043c565b503d61044d565b513d85823e3d90fd5b61049590853d871161049c575b61048d8183610bfe565b810190610c8b565b5038610410565b503d610483565b84513d87823e3d90fd5b6104ba9194929350610bd4565b6104c85786908692386103c9565b8580fd5b86513d89823e3d90fd5b6102d491508b3d8d116100ec576100de8183610bfe565b87513d8a823e3d90fd5b61050e9150883d8a116100ec576100de8183610bfe565b38610367565b85513d88823e3d90fd5b8280fd5b506020833660031901821361051e5783359361053c610ca3565b60015482516314d888d960e21b81526001600160a01b0396918716949081818581895afa908115610301578891839189916107ec575b5060248751809b819363ccff44f160e01b8352888a840152165afa9788156103015787986107cd575b5084516302690e7760e11b8152828186818a5afa9081156102da5782869285928b916107b0575b501697875192838092636572f88f60e11b82525afa9081156102da579082918991610793575b5086516338d52e0f60e01b815291169190838187818d86165afa90811561071d57908392918a91610776575b501603610727578697813b15610719578551630d0e30db60e41b81528881878134875af1801561071d579189939185936106fe575b50875163095ea7b360e01b81526001600160a01b039091168782019081523460208201529093849291839190829060400103925af18015610301576106e0575b5050833b156106dc5760448592838551968794859363d8aed14560e01b85528401523460248401525af190811561027257506106c8575b506001905580f35b6106d190610bd4565b61026f5780826106c0565b8480fd5b816106f692903d1061049c5761048d8183610bfe565b508680610689565b61070b9194929350610bd4565b61071957829088928b610649565b8780fd5b87513d8b823e3d90fd5b845162461bcd60e51b8152808501839052602360248201527f4c6f616e207265736572766520756e6465726c79696e67206973206e6f74205760448201526208aa8960eb1b6064820152608490fd5b61078d9150853d87116100ec576100de8183610bfe565b8b610614565b6107aa9150843d86116100ec576100de8183610bfe565b8a6105e8565b6107c79150833d85116100ec576100de8183610bfe565b8c6105c2565b6107e5919850823d84116100ec576100de8183610bfe565b968861059b565b6108039150823d84116100ec576100de8183610bfe565b8a610572565b5091903461051e57608036600319011261051e57610825610bbe565b5061082e610ba8565b506064359067ffffffffffffffff908183116106dc57366023840112156106dc5782013590811161027b573691016024011161030b5751630a85bd0160e11b8152602090f35b50823461030b576003199260c03685011261051e57803591610894610ba8565b916044359560a43567ffffffffffffffff908181116107195760c081360393840112610719576108c2610ca3565b60015485516302690e7760e11b81526001600160a01b0391821692919060209081818981885afa908115610b815783899284928f91610b8b575b5016958a5192838092636572f88f60e11b82525afa918215610b8157908392918d92610b64575b505016971693843b15610b22578651632142170760e11b81523387820152306024820152604481018c90529a8a8c606481838a5af18015610b5a57610b44575b8a9b50859a999a3b15610b2257875163095ea7b360e01b81526001600160a01b038516888201908152602081018390528b90829081906040010381838b5af18015610b3a57908b91610b26575b5050833b15610b225787519563f3b3132560e01b875233888801528960248801528b60448801526064870152608486015260643560a486015260843560c486015261010060e48601528186013560ff8116809103610b2257610104860152602482013561012486015260448201356101448601526064820135610164860152608482013561018486015260a48201359060221901811215610b1e5701906024858301359201928211610719578136038313610719578388809482809560c06101a4830152806101c4830152806101e493848401378181018301849052601f01601f191681010301925af18015610b1457908591610b00575b5050823b1561027b5784602485928385519687948593632e1a7d4d60e01b85528401525af19081156102725750610aec575080808061025494335af161024e610cf9565b610af68291610bd4565b61026f578361023b565b610b0990610bd4565b61027b578387610aa8565b83513d87823e3d90fd5b8880fd5b8980fd5b610b2f90610bd4565b610b2257898d6109b0565b89513d8d823e3d90fd5b9899909a610b5190610bd4565b98978a90610963565b88513d8d823e3d90fd5b610b7a9250803d106100ec576100de8183610bfe565b8d80610923565b89513d8e823e3d90fd5b610ba29150833d85116100ec576100de8183610bfe565b386108fc565b602435906001600160a01b03821682036102a757565b600435906001600160a01b03821682036102a757565b67ffffffffffffffff8111610be857604052565b634e487b7160e01b600052604160045260246000fd5b90601f8019910116810190811067ffffffffffffffff821117610be857604052565b908160209103126102a757516001600160a01b03811681036102a75790565b15610c4657565b60405162461bcd60e51b815260206004820152601e60248201527f5265736572766520756e6465726c79696e67206973206e6f74205745544800006044820152606490fd5b908160209103126102a7575180151581036102a75790565b600260005414610cb4576002600055565b60405162461bcd60e51b815260206004820152601f60248201527f5265656e7472616e637947756172643a207265656e7472616e742063616c6c006044820152606490fd5b3d15610d34573d9067ffffffffffffffff8211610be85760405191610d28601f8201601f191660200184610bfe565b82523d6000602084013e565b606090565b15610d4057565b60405162461bcd60e51b81526020600482015260146024820152732330b4b632b2103a379039b2b7321022ba3432b960611b6044820152606490fdfea2646970667358221220c81585569829d3973bfb3bd61dbcdd5b4a5e78c9530b5f4770785be29c4ccbc664736f6c63430008110033",
  "linkReferences": {},
  "deployedLinkReferences": {}
}