{
  "_format": "hh-sol-artifact-1",
  "contractName": "WETHGateway",
  "sourceName": "contracts/protocol/WETHGateway.sol",
  "abi": [
    {
      "inputs": [
        {
          "internalType": "contract IAddressesProvider",
          "name": "addressesProvider",
          "type": "address"
        }
      ],
      "stateMutability": "nonpayable",
      "type": "constructor"
    },
    {
      "stateMutability": "payable",
      "type": "fallback"
    },
    {
      "inputs": [
        {
          "internalType": "uint256",
          "name": "amount",
          "type": "uint256"
        },
        {
          "internalType": "address",
          "name": "nftAddress",
          "type": "address"
        },
        {
          "internalType": "uint256",
          "name": "nftTokenId",
          "type": "uint256"
        },
        {
          "internalType": "uint256",
          "name": "genesisNFTId",
          "type": "uint256"
        },
        {
          "internalType": "bytes32",
          "name": "request",
          "type": "bytes32"
        },
        {
          "components": [
            {
              "internalType": "uint8",
              "name": "v",
              "type": "uint8"
            },
            {
              "internalType": "bytes32",
              "name": "r",
              "type": "bytes32"
            },
            {
              "internalType": "bytes32",
              "name": "s",
              "type": "bytes32"
            },
            {
              "internalType": "bytes32",
              "name": "request",
              "type": "bytes32"
            },
            {
              "internalType": "uint256",
              "name": "deadline",
              "type": "uint256"
            },
            {
              "internalType": "bytes",
              "name": "payload",
              "type": "bytes"
            }
          ],
          "internalType": "struct Trustus.TrustusPacket",
          "name": "packet",
          "type": "tuple"
        }
      ],
      "name": "borrow",
      "outputs": [],
      "stateMutability": "nonpayable",
      "type": "function"
    },
    {
      "inputs": [
        {
          "internalType": "address",
          "name": "pool",
          "type": "address"
        },
        {
          "internalType": "uint256[]",
          "name": "nftIds",
          "type": "uint256[]"
        },
        {
          "internalType": "uint256",
          "name": "maximumPrice",
          "type": "uint256"
        }
      ],
      "name": "buy",
      "outputs": [],
      "stateMutability": "payable",
      "type": "function"
    },
    {
      "inputs": [
        {
          "internalType": "address",
          "name": "lendingPool",
          "type": "address"
        }
      ],
      "name": "depositLendingPool",
      "outputs": [],
      "stateMutability": "payable",
      "type": "function"
    },
    {
      "inputs": [
        {
          "internalType": "address",
          "name": "pool",
          "type": "address"
        },
        {
          "internalType": "uint256[]",
          "name": "nftIds",
          "type": "uint256[]"
        },
        {
          "internalType": "address",
          "name": "curve",
          "type": "address"
        },
        {
          "internalType": "uint256",
          "name": "delta",
          "type": "uint256"
        },
        {
          "internalType": "uint256",
          "name": "initialPrice",
          "type": "uint256"
        }
      ],
      "name": "depositTradingPool",
      "outputs": [],
      "stateMutability": "payable",
      "type": "function"
    },
    {
      "inputs": [
        {
          "internalType": "address",
          "name": "",
          "type": "address"
        },
        {
          "internalType": "address",
          "name": "",
          "type": "address"
        },
        {
          "internalType": "uint256",
          "name": "",
          "type": "uint256"
        },
        {
          "internalType": "bytes",
          "name": "",
          "type": "bytes"
        }
      ],
      "name": "onERC721Received",
      "outputs": [
        {
          "internalType": "bytes4",
          "name": "",
          "type": "bytes4"
        }
      ],
      "stateMutability": "pure",
      "type": "function"
    },
    {
      "inputs": [
        {
          "internalType": "uint256",
          "name": "loanId",
          "type": "uint256"
        }
      ],
      "name": "repay",
      "outputs": [],
      "stateMutability": "payable",
      "type": "function"
    },
    {
      "inputs": [
        {
          "internalType": "address",
          "name": "pool",
          "type": "address"
        },
        {
          "internalType": "uint256[]",
          "name": "nftIds",
          "type": "uint256[]"
        },
        {
          "internalType": "uint256[]",
          "name": "liquidityPairs",
          "type": "uint256[]"
        },
        {
          "internalType": "uint256",
          "name": "minimumPrice",
          "type": "uint256"
        }
      ],
      "name": "sell",
      "outputs": [],
      "stateMutability": "nonpayable",
      "type": "function"
    },
    {
      "inputs": [
        {
          "internalType": "contract ITradingPool",
          "name": "buyPool",
          "type": "address"
        },
        {
          "internalType": "contract ITradingPool",
          "name": "sellPool",
          "type": "address"
        },
        {
          "internalType": "uint256[]",
          "name": "buyNftIds",
          "type": "uint256[]"
        },
        {
          "internalType": "uint256",
          "name": "maximumBuyPrice",
          "type": "uint256"
        },
        {
          "internalType": "uint256[]",
          "name": "sellNftIds",
          "type": "uint256[]"
        },
        {
          "internalType": "uint256[]",
          "name": "sellLps",
          "type": "uint256[]"
        },
        {
          "internalType": "uint256",
          "name": "minimumSellPrice",
          "type": "uint256"
        }
      ],
      "name": "swap",
      "outputs": [],
      "stateMutability": "payable",
      "type": "function"
    },
    {
      "inputs": [
        {
          "internalType": "address",
          "name": "lendingPool",
          "type": "address"
        },
        {
          "internalType": "uint256",
          "name": "amount",
          "type": "uint256"
        }
      ],
      "name": "withdrawLendingPool",
      "outputs": [],
      "stateMutability": "nonpayable",
      "type": "function"
    },
    {
      "inputs": [
        {
          "internalType": "address",
          "name": "pool",
          "type": "address"
        },
        {
          "internalType": "uint256",
          "name": "lpId",
          "type": "uint256"
        }
      ],
      "name": "withdrawTradingPool",
      "outputs": [],
      "stateMutability": "nonpayable",
      "type": "function"
    },
    {
      "stateMutability": "payable",
      "type": "receive"
    }
  ],
  "bytecode": "0x60806040523480156200001157600080fd5b5060405162002c7a38038062002c7a83398101604081905262000034916200005f565b6001600081905580546001600160a01b0319166001600160a01b039290921691909117905562000091565b6000602082840312156200007257600080fd5b81516001600160a01b03811681146200008a57600080fd5b9392505050565b612bd980620000a16000396000f3fe6080604052600436106100955760003560e01c806349591b511161005957806349591b5114610275578063558ab47c146102955780636a508606146102b5578063b31f0d62146102c8578063b967f110146102db5761016e565b80630f19bee0146101ad578063150b7a02146101cd5780632ddd147b1461022f5780633168cf4f14610242578063371fd8e6146102625761016e565b3661016e57600160009054906101000a90046001600160a01b03166001600160a01b031663cae5f11e6040518163ffffffff1660e01b8152600401602060405180830381865afa1580156100ed573d6000803e3d6000fd5b505050506040513d601f19601f82011682018060405250810190610111919061225e565b6001600160a01b0316336001600160a01b03161461016c5760405162461bcd60e51b8152602060048201526013602482015272149958d95a5d99481b9bdd08185b1b1bddd959606a1b60448201526064015b60405180910390fd5b005b60405162461bcd60e51b815260206004820152601460248201527311985b1b189858dac81b9bdd08185b1b1bddd95960621b6044820152606401610163565b3480156101b957600080fd5b5061016c6101c8366004612282565b6102ee565b3480156101d957600080fd5b506102126101e83660046122ae565b7f150b7a023d4804d13e8c85fb27262cb750cf6ba9f9dd3bb30d90f482ceeb4b1f95945050505050565b6040516001600160e01b0319909116815260200160405180910390f35b61016c61023d36600461244c565b6106b3565b34801561024e57600080fd5b5061016c61025d366004612282565b6109fb565b61016c6102703660046124c0565b610c63565b34801561028157600080fd5b5061016c6102903660046124d9565b611039565b3480156102a157600080fd5b5061016c6102b0366004612557565b6113a0565b61016c6102c33660046125d3565b611769565b61016c6102d63660046125f0565b6119c8565b61016c6102e9366004612649565b611d14565b6102f66121e0565b60015460408051636572f88f60e11b815290516000926001600160a01b03169163cae5f11e9160048083019260209291908290030181865afa158015610340573d6000803e3d6000fd5b505050506040513d601f19601f82011682018060405250810190610364919061225e565b9050806001600160a01b0316836001600160a01b03166321df0da76040518163ffffffff1660e01b8152600401602060405180830381865afa1580156103ae573d6000803e3d6000fd5b505050506040513d601f19601f820116820180604052508101906103d2919061225e565b6001600160a01b0316146103f85760405162461bcd60e51b81526004016101639061270a565b604051632142170760e11b81526001600160a01b038416906342842e0e9061042890339030908790600401612741565b600060405180830381600087803b15801561044257600080fd5b505af1158015610456573d6000803e3d6000fd5b50506040516319ba7e5360e31b815260048101859052600092506001600160a01b038616915063cdd3f29890602401600060405180830381865afa1580156104a2573d6000803e3d6000fd5b505050506040513d6000823e601f3d908101601f191682016040526104ca9190810190612765565b604051639c8f9f2360e01b8152600481018590529091506001600160a01b03851690639c8f9f2390602401600060405180830381600087803b15801561050f57600080fd5b505af1158015610523573d6000803e3d6000fd5b5050505060005b8151518110156105c4576001600160a01b0385166342842e0e3033855180518690811061055957610559612857565b60200260200101516040518463ffffffff1660e01b815260040161057f93929190612741565b600060405180830381600087803b15801561059957600080fd5b505af11580156105ad573d6000803e3d6000fd5b5050505080806105bc90612883565b91505061052a565b506020810151604051632e1a7d4d60e01b815260048101919091526001600160a01b03831690632e1a7d4d90602401600060405180830381600087803b15801561060d57600080fd5b505af1158015610621573d6000803e3d6000fd5b50505050600061062e3390565b6001600160a01b0316826020015160405160006040518083038185875af1925050503d806000811461067c576040519150601f19603f3d011682016040523d82523d6000602084013e610681565b606091505b50509050806106a25760405162461bcd60e51b81526004016101639061289c565b5050506106af6001600055565b5050565b6106bb6121e0565b60015460408051636572f88f60e11b815290516000926001600160a01b03169163cae5f11e9160048083019260209291908290030181865afa158015610705573d6000803e3d6000fd5b505050506040513d601f19601f82011682018060405250810190610729919061225e565b9050806001600160a01b0316866001600160a01b03166321df0da76040518163ffffffff1660e01b8152600401602060405180830381865afa158015610773573d6000803e3d6000fd5b505050506040513d601f19601f82011682018060405250810190610797919061225e565b6001600160a01b0316146107bd5760405162461bcd60e51b81526004016101639061270a565b60005b85518110156108b857866001600160a01b03166388a6360e6040518163ffffffff1660e01b8152600401602060405180830381865afa158015610807573d6000803e3d6000fd5b505050506040513d601f19601f8201168201806040525081019061082b919061225e565b6001600160a01b03166342842e0e333089858151811061084d5761084d612857565b60200260200101516040518463ffffffff1660e01b815260040161087393929190612741565b600060405180830381600087803b15801561088d57600080fd5b505af11580156108a1573d6000803e3d6000fd5b5050505080806108b090612883565b9150506107c0565b50806001600160a01b031663d0e30db0346040518263ffffffff1660e01b81526004016000604051808303818588803b1580156108f457600080fd5b505af1158015610908573d6000803e3d6000fd5b505060405163095ea7b360e01b81526001600160a01b038a811660048301523460248301528516935063095ea7b3925060440190506020604051808303816000875af115801561095c573d6000803e3d6000fd5b505050506040513d601f19601f8201168201806040525081019061098091906128ca565b5060405163255323e560e21b81526001600160a01b0387169063954c8f94906109b7903390899034908a908a908a90600401612927565b600060405180830381600087803b1580156109d157600080fd5b505af11580156109e5573d6000803e3d6000fd5b50505050506109f46001600055565b5050505050565b610a036121e0565b60015460408051636572f88f60e11b815290516000926001600160a01b03169163cae5f11e9160048083019260209291908290030181865afa158015610a4d573d6000803e3d6000fd5b505050506040513d601f19601f82011682018060405250810190610a71919061225e565b9050806001600160a01b0316836001600160a01b03166338d52e0f6040518163ffffffff1660e01b8152600401602060405180830381865afa158015610abb573d6000803e3d6000fd5b505050506040513d601f19601f82011682018060405250810190610adf919061225e565b6001600160a01b031614610b055760405162461bcd60e51b81526004016101639061270a565b60408051632d182be560e21b81526004810184905230602482015233604482015290516001600160a01b0385169163b460af9491606480830192602092919082900301816000875af1158015610b5f573d6000803e3d6000fd5b505050506040513d601f19601f82011682018060405250810190610b83919061296f565b50604051632e1a7d4d60e01b8152600481018390526001600160a01b03821690632e1a7d4d90602401600060405180830381600087803b158015610bc657600080fd5b505af1158015610bda573d6000803e3d6000fd5b505050506000610be73390565b6001600160a01b03168360405160006040518083038185875af1925050503d8060008114610c31576040519150601f19603f3d011682016040523d82523d6000602084013e610c36565b606091505b5050905080610c575760405162461bcd60e51b81526004016101639061289c565b50506106af6001600055565b610c6b6121e0565b600154604080516314d888d960e21b815290516000926001600160a01b03169163536223649160048083019260209291908290030181865afa158015610cb5573d6000803e3d6000fd5b505050506040513d601f19601f82011682018060405250810190610cd9919061225e565b6001600160a01b031663ccff44f1836040518263ffffffff1660e01b8152600401610d0691815260200190565b602060405180830381865afa158015610d23573d6000803e3d6000fd5b505050506040513d601f19601f82011682018060405250810190610d47919061225e565b90506000600160009054906101000a90046001600160a01b03166001600160a01b03166304d21cee6040518163ffffffff1660e01b8152600401602060405180830381865afa158015610d9e573d6000803e3d6000fd5b505050506040513d601f19601f82011682018060405250810190610dc2919061225e565b90506000600160009054906101000a90046001600160a01b03166001600160a01b031663cae5f11e6040518163ffffffff1660e01b8152600401602060405180830381865afa158015610e19573d6000803e3d6000fd5b505050506040513d601f19601f82011682018060405250810190610e3d919061225e565b9050806001600160a01b0316836001600160a01b03166338d52e0f6040518163ffffffff1660e01b8152600401602060405180830381865afa158015610e87573d6000803e3d6000fd5b505050506040513d601f19601f82011682018060405250810190610eab919061225e565b6001600160a01b031614610f015760405162461bcd60e51b815260206004820181905260248201527f4c6f616e20706f6f6c20756e6465726c79696e67206973206e6f7420574554486044820152606401610163565b806001600160a01b031663d0e30db0346040518263ffffffff1660e01b81526004016000604051808303818588803b158015610f3c57600080fd5b505af1158015610f50573d6000803e3d6000fd5b505060405163095ea7b360e01b81526001600160a01b0387811660048301523460248301528516935063095ea7b3925060440190506020604051808303816000875af1158015610fa4573d6000803e3d6000fd5b505050506040513d601f19601f82011682018060405250810190610fc891906128ca565b5060405163d8aed14560e01b8152600481018590523460248201526001600160a01b0383169063d8aed14590604401600060405180830381600087803b15801561101157600080fd5b505af1158015611025573d6000803e3d6000fd5b505050505050506110366001600055565b50565b6110416121e0565b60015460408051636572f88f60e11b815290516000926001600160a01b03169163cae5f11e9160048083019260209291908290030181865afa15801561108b573d6000803e3d6000fd5b505050506040513d601f19601f820116820180604052508101906110af919061225e565b9050806001600160a01b0316856001600160a01b03166321df0da76040518163ffffffff1660e01b8152600401602060405180830381865afa1580156110f9573d6000803e3d6000fd5b505050506040513d601f19601f8201168201806040525081019061111d919061225e565b6001600160a01b0316146111435760405162461bcd60e51b81526004016101639061270a565b60005b845181101561123e57856001600160a01b03166388a6360e6040518163ffffffff1660e01b8152600401602060405180830381865afa15801561118d573d6000803e3d6000fd5b505050506040513d601f19601f820116820180604052508101906111b1919061225e565b6001600160a01b03166342842e0e30338885815181106111d3576111d3612857565b60200260200101516040518463ffffffff1660e01b81526004016111f993929190612741565b600060405180830381600087803b15801561121357600080fd5b505af1158015611227573d6000803e3d6000fd5b50505050808061123690612883565b915050611146565b506040516349591b5160e01b81526000906001600160a01b038716906349591b5190611274903090899089908990600401612988565b6020604051808303816000875af1158015611293573d6000803e3d6000fd5b505050506040513d601f19601f820116820180604052508101906112b7919061296f565b604051632e1a7d4d60e01b8152600481018290529091506001600160a01b03831690632e1a7d4d90602401600060405180830381600087803b1580156112fc57600080fd5b505af1158015611310573d6000803e3d6000fd5b50505050600061131d3390565b6001600160a01b03168260405160006040518083038185875af1925050503d8060008114611367576040519150601f19603f3d011682016040523d82523d6000602084013e61136c565b606091505b505090508061138d5760405162461bcd60e51b81526004016101639061289c565b50505061139a6001600055565b50505050565b6113a86121e0565b600154604080516302690e7760e11b815290516000926001600160a01b0316916304d21cee9160048083019260209291908290030181865afa1580156113f2573d6000803e3d6000fd5b505050506040513d601f19601f82011682018060405250810190611416919061225e565b90506000600160009054906101000a90046001600160a01b03166001600160a01b031663cae5f11e6040518163ffffffff1660e01b8152600401602060405180830381865afa15801561146d573d6000803e3d6000fd5b505050506040513d601f19601f82011682018060405250810190611491919061225e565b604051632142170760e11b81529091506001600160a01b038816906342842e0e906114c490339030908b90600401612741565b600060405180830381600087803b1580156114de57600080fd5b505af11580156114f2573d6000803e3d6000fd5b505060405163095ea7b360e01b81526001600160a01b038581166004830152602482018a90528a16925063095ea7b39150604401600060405180830381600087803b15801561154057600080fd5b505af1158015611554573d6000803e3d6000fd5b50505050816001600160a01b031663f3b3132561156e3390565b838b8b8b8b8b8b6040518963ffffffff1660e01b81526004016115989897969594939291906129f9565b600060405180830381600087803b1580156115b257600080fd5b505af11580156115c6573d6000803e3d6000fd5b50506040516370a0823160e01b81523060048201528a92506001600160a01b03841691506370a0823190602401602060405180830381865afa158015611610573d6000803e3d6000fd5b505050506040513d601f19601f82011682018060405250810190611634919061296f565b146116815760405162461bcd60e51b815260206004820152601960248201527f4e6f7420656e6f75676820574554482072656365697665642e000000000000006044820152606401610163565b604051632e1a7d4d60e01b8152600481018990526001600160a01b03821690632e1a7d4d90602401600060405180830381600087803b1580156116c357600080fd5b505af11580156116d7573d6000803e3d6000fd5b5050505060006116e43390565b6001600160a01b03168960405160006040518083038185875af1925050503d806000811461172e576040519150601f19603f3d011682016040523d82523d6000602084013e611733565b606091505b50509050806117545760405162461bcd60e51b81526004016101639061289c565b5050506117616001600055565b505050505050565b6117716121e0565b60015460408051636572f88f60e11b815290516000926001600160a01b03169163cae5f11e9160048083019260209291908290030181865afa1580156117bb573d6000803e3d6000fd5b505050506040513d601f19601f820116820180604052508101906117df919061225e565b9050806001600160a01b0316826001600160a01b03166338d52e0f6040518163ffffffff1660e01b8152600401602060405180830381865afa158015611829573d6000803e3d6000fd5b505050506040513d601f19601f8201168201806040525081019061184d919061225e565b6001600160a01b0316146118735760405162461bcd60e51b81526004016101639061270a565b806001600160a01b031663d0e30db0346040518263ffffffff1660e01b81526004016000604051808303818588803b1580156118ae57600080fd5b505af11580156118c2573d6000803e3d6000fd5b505060405163095ea7b360e01b81526001600160a01b0386811660048301523460248301528516935063095ea7b3925060440190506020604051808303816000875af1158015611916573d6000803e3d6000fd5b505050506040513d601f19601f8201168201806040525081019061193a91906128ca565b506001600160a01b038216636e553f6534336040516001600160e01b031960e085901b16815260048101929092526001600160a01b031660248201526044016020604051808303816000875af1158015611998573d6000803e3d6000fd5b505050506040513d601f19601f820116820180604052508101906119bc919061296f565b50506110366001600055565b6119d06121e0565b60015460408051636572f88f60e11b815290516000926001600160a01b03169163cae5f11e9160048083019260209291908290030181865afa158015611a1a573d6000803e3d6000fd5b505050506040513d601f19601f82011682018060405250810190611a3e919061225e565b9050806001600160a01b0316846001600160a01b03166321df0da76040518163ffffffff1660e01b8152600401602060405180830381865afa158015611a88573d6000803e3d6000fd5b505050506040513d601f19601f82011682018060405250810190611aac919061225e565b6001600160a01b031614611ad25760405162461bcd60e51b81526004016101639061270a565b806001600160a01b031663d0e30db0346040518263ffffffff1660e01b81526004016000604051808303818588803b158015611b0d57600080fd5b505af1158015611b21573d6000803e3d6000fd5b505060405163095ea7b360e01b81526001600160a01b0388811660048301523460248301528516935063095ea7b3925060440190506020604051808303816000875af1158015611b75573d6000803e3d6000fd5b505050506040513d601f19601f82011682018060405250810190611b9991906128ca565b5060405163598f86b160e11b81526000906001600160a01b0386169063b31f0d6290611bcd90339088908890600401612ae9565b6020604051808303816000875af1158015611bec573d6000803e3d6000fd5b505050506040513d601f19601f82011682018060405250810190611c10919061296f565b905080341115611d03576001600160a01b038216632e1a7d4d611c338334612b1d565b6040518263ffffffff1660e01b8152600401611c5191815260200190565b600060405180830381600087803b158015611c6b57600080fd5b505af1158015611c7f573d6000803e3d6000fd5b505050506000611c8c3390565b6001600160a01b0316611c9f8334612b1d565b604051600081818185875af1925050503d8060008114611cdb576040519150601f19603f3d011682016040523d82523d6000602084013e611ce0565b606091505b5050905080611d015760405162461bcd60e51b81526004016101639061289c565b505b5050611d0f6001600055565b505050565b611d1c6121e0565b60015460408051636572f88f60e11b815290516000926001600160a01b03169163cae5f11e9160048083019260209291908290030181865afa158015611d66573d6000803e3d6000fd5b505050506040513d601f19601f82011682018060405250810190611d8a919061225e565b9050806001600160a01b0316886001600160a01b03166321df0da76040518163ffffffff1660e01b8152600401602060405180830381865afa158015611dd4573d6000803e3d6000fd5b505050506040513d601f19601f82011682018060405250810190611df8919061225e565b6001600160a01b031614611e4e5760405162461bcd60e51b815260206004820152601f60248201527f42757920706f6f6c20756e6465726c79696e67206973206e6f742057455448006044820152606401610163565b806001600160a01b0316876001600160a01b03166321df0da76040518163ffffffff1660e01b8152600401602060405180830381865afa158015611e96573d6000803e3d6000fd5b505050506040513d601f19601f82011682018060405250810190611eba919061225e565b6001600160a01b031614611f105760405162461bcd60e51b815260206004820181905260248201527f53656c6c20706f6f6c20756e6465726c79696e67206973206e6f7420574554486044820152606401610163565b60005b845181101561200b57876001600160a01b03166388a6360e6040518163ffffffff1660e01b8152600401602060405180830381865afa158015611f5a573d6000803e3d6000fd5b505050506040513d601f19601f82011682018060405250810190611f7e919061225e565b6001600160a01b03166342842e0e3033888581518110611fa057611fa0612857565b60200260200101516040518463ffffffff1660e01b8152600401611fc693929190612741565b600060405180830381600087803b158015611fe057600080fd5b505af1158015611ff4573d6000803e3d6000fd5b50505050808061200390612883565b915050611f13565b506001546040805163725c9c4960e01b815290516000926001600160a01b03169163725c9c499160048083019260209291908290030181865afa158015612056573d6000803e3d6000fd5b505050506040513d601f19601f8201168201806040525081019061207a919061225e565b6001600160a01b031663b967f1108a8a8a8a8a8a8a6040518863ffffffff1660e01b81526004016120b19796959493929190612b36565b6020604051808303816000875af11580156120d0573d6000803e3d6000fd5b505050506040513d601f19601f820116820180604052508101906120f4919061296f565b604051632e1a7d4d60e01b8152600481018290529091506001600160a01b03831690632e1a7d4d90602401600060405180830381600087803b15801561213957600080fd5b505af115801561214d573d6000803e3d6000fd5b50505050600061215a3390565b6001600160a01b03168260405160006040518083038185875af1925050503d80600081146121a4576040519150601f19603f3d011682016040523d82523d6000602084013e6121a9565b606091505b50509050806121ca5760405162461bcd60e51b81526004016101639061289c565b5050506121d76001600055565b50505050505050565b6002600054036122325760405162461bcd60e51b815260206004820152601f60248201527f5265656e7472616e637947756172643a207265656e7472616e742063616c6c006044820152606401610163565b6002600055565b6001600160a01b038116811461103657600080fd5b805161225981612239565b919050565b60006020828403121561227057600080fd5b815161227b81612239565b9392505050565b6000806040838503121561229557600080fd5b82356122a081612239565b946020939093013593505050565b6000806000806000608086880312156122c657600080fd5b85356122d181612239565b945060208601356122e181612239565b935060408601359250606086013567ffffffffffffffff8082111561230557600080fd5b818801915088601f83011261231957600080fd5b81358181111561232857600080fd5b89602082850101111561233a57600080fd5b9699959850939650602001949392505050565b634e487b7160e01b600052604160045260246000fd5b60405160a0810167ffffffffffffffff811182821017156123865761238661234d565b60405290565b604051601f8201601f1916810167ffffffffffffffff811182821017156123b5576123b561234d565b604052919050565b600067ffffffffffffffff8211156123d7576123d761234d565b5060051b60200190565b600082601f8301126123f257600080fd5b81356020612407612402836123bd565b61238c565b82815260059290921b8401810191818101908684111561242657600080fd5b8286015b84811015612441578035835291830191830161242a565b509695505050505050565b600080600080600060a0868803121561246457600080fd5b853561246f81612239565b9450602086013567ffffffffffffffff81111561248b57600080fd5b612497888289016123e1565b94505060408601356124a881612239565b94979396509394606081013594506080013592915050565b6000602082840312156124d257600080fd5b5035919050565b600080600080608085870312156124ef57600080fd5b84356124fa81612239565b9350602085013567ffffffffffffffff8082111561251757600080fd5b612523888389016123e1565b9450604087013591508082111561253957600080fd5b50612546878288016123e1565b949793965093946060013593505050565b60008060008060008060c0878903121561257057600080fd5b86359550602087013561258281612239565b945060408701359350606087013592506080870135915060a087013567ffffffffffffffff8111156125b357600080fd5b870160c0818a0312156125c557600080fd5b809150509295509295509295565b6000602082840312156125e557600080fd5b813561227b81612239565b60008060006060848603121561260557600080fd5b833561261081612239565b9250602084013567ffffffffffffffff81111561262c57600080fd5b612638868287016123e1565b925050604084013590509250925092565b600080600080600080600060e0888a03121561266457600080fd5b873561266f81612239565b9650602088013561267f81612239565b9550604088013567ffffffffffffffff8082111561269c57600080fd5b6126a88b838c016123e1565b965060608a0135955060808a01359150808211156126c557600080fd5b6126d18b838c016123e1565b945060a08a01359150808211156126e757600080fd5b506126f48a828b016123e1565b92505060c0880135905092959891949750929550565b6020808252601b908201527f506f6f6c20756e6465726c79696e67206973206e6f7420574554480000000000604082015260600190565b6001600160a01b039384168152919092166020820152604081019190915260600190565b6000602080838503121561277857600080fd5b825167ffffffffffffffff8082111561279057600080fd5b9084019060a082870312156127a457600080fd5b6127ac612363565b8251828111156127bb57600080fd5b83019150601f820187136127ce57600080fd5b81516127dc612402826123bd565b81815260059190911b830185019085810190898311156127fb57600080fd5b938601935b8285101561281957845182529386019390860190612800565b8352505082840151848201526128316040840161224e565b604082015260608301516060820152608083015160808201528094505050505092915050565b634e487b7160e01b600052603260045260246000fd5b634e487b7160e01b600052601160045260246000fd5b6000600182016128955761289561286d565b5060010190565b6020808252601490820152732330b4b632b2103a379039b2b7321022ba3432b960611b604082015260600190565b6000602082840312156128dc57600080fd5b8151801515811461227b57600080fd5b600081518084526020808501945080840160005b8381101561291c57815187529582019590820190600101612900565b509495945050505050565b600060018060a01b03808916835260c0602084015261294960c08401896128ec565b6040840197909752949094166060820152608081019290925260a0909101525092915050565b60006020828403121561298157600080fd5b5051919050565b6001600160a01b03851681526080602082018190526000906129ac908301866128ec565b82810360408401526129be81866128ec565b91505082606083015295945050505050565b81835281816020850137506000828201602090810191909152601f909101601f19169091010190565b600061010060018060a01b03808c168452808b1660208501528960408501528089166060850152508660808401528560a08401528460c08401528060e0840152833560ff8116808214612a4b57600080fd5b8083860152505050602083013561012083015260408301356101408301526060830135610160830152608083013561018083015260a0830135601e19843603018112612a9657600080fd5b830160208101903567ffffffffffffffff811115612ab357600080fd5b803603821315612ac257600080fd5b60c06101a0850152612ad96101c0850182846129d0565b9c9b505050505050505050505050565b6001600160a01b0384168152606060208201819052600090612b0d908301856128ec565b9050826040830152949350505050565b81810381811115612b3057612b3061286d565b92915050565b6001600160a01b0388811682528716602082015260e060408201819052600090612b62908301886128ec565b8660608401528281036080840152612b7a81876128ec565b905082810360a0840152612b8e81866128ec565b9150508260c08301529897505050505050505056fea2646970667358221220bcd7207c6853cf37e4d176b334b9d48be770552fb209844545623da38b5dac0364736f6c63430008110033",
  "linkReferences": {},
  "deployedLinkReferences": {}
}