{
  "_format": "hh-sol-artifact-1",
  "contractName": "WETHGateway",
  "sourceName": "contracts/protocol/WETHGateway.sol",
  "abi": [
    {
      "inputs": [
        {
          "internalType": "contract IAddressesProvider",
          "name": "addressesProvider",
          "type": "address"
        }
      ],
      "stateMutability": "nonpayable",
      "type": "constructor"
    },
    {
      "stateMutability": "payable",
      "type": "fallback"
    },
    {
      "inputs": [
        {
          "internalType": "uint256",
          "name": "amount",
          "type": "uint256"
        },
        {
          "internalType": "address",
          "name": "nftAddress",
          "type": "address"
        },
        {
          "internalType": "uint256",
          "name": "nftTokenId",
          "type": "uint256"
        },
        {
          "internalType": "uint256",
          "name": "genesisNFTId",
          "type": "uint256"
        },
        {
          "internalType": "bytes32",
          "name": "request",
          "type": "bytes32"
        },
        {
          "components": [
            {
              "internalType": "uint8",
              "name": "v",
              "type": "uint8"
            },
            {
              "internalType": "bytes32",
              "name": "r",
              "type": "bytes32"
            },
            {
              "internalType": "bytes32",
              "name": "s",
              "type": "bytes32"
            },
            {
              "internalType": "bytes32",
              "name": "request",
              "type": "bytes32"
            },
            {
              "internalType": "uint256",
              "name": "deadline",
              "type": "uint256"
            },
            {
              "internalType": "bytes",
              "name": "payload",
              "type": "bytes"
            }
          ],
          "internalType": "struct Trustus.TrustusPacket",
          "name": "packet",
          "type": "tuple"
        }
      ],
      "name": "borrowETH",
      "outputs": [],
      "stateMutability": "nonpayable",
      "type": "function"
    },
    {
      "inputs": [
        {
          "internalType": "address",
          "name": "reserve",
          "type": "address"
        }
      ],
      "name": "depositETH",
      "outputs": [],
      "stateMutability": "payable",
      "type": "function"
    },
    {
      "inputs": [
        {
          "internalType": "uint256",
          "name": "loanId",
          "type": "uint256"
        }
      ],
      "name": "repayETH",
      "outputs": [],
      "stateMutability": "payable",
      "type": "function"
    },
    {
      "inputs": [
        {
          "internalType": "address",
          "name": "reserve",
          "type": "address"
        },
        {
          "internalType": "uint256",
          "name": "amount",
          "type": "uint256"
        }
      ],
      "name": "withdrawETH",
      "outputs": [],
      "stateMutability": "nonpayable",
      "type": "function"
    },
    {
      "stateMutability": "payable",
      "type": "receive"
    }
  ],
  "bytecode": "0x608060405234801561001057600080fd5b50604051610eb5380380610eb583398101604081905261002f91610059565b6001600081905580546001600160a01b0319166001600160a01b0392909216919091179055610089565b60006020828403121561006b57600080fd5b81516001600160a01b038116811461008257600080fd5b9392505050565b610e1d806100986000396000f3fe6080604052600436106100425760003560e01c806204c4fd1461015a5780632247463e1461017a5780632d2da8061461018d5780634782f779146101a05761011b565b3661011b57600160009054906101000a90046001600160a01b03166001600160a01b031663cae5f11e6040518163ffffffff1660e01b8152600401602060405180830381865afa15801561009a573d6000803e3d6000fd5b505050506040513d601f19601f820116820180604052508101906100be9190610bb3565b6001600160a01b0316336001600160a01b0316146101195760405162461bcd60e51b8152602060048201526013602482015272149958d95a5d99481b9bdd08185b1b1bddd959606a1b60448201526064015b60405180910390fd5b005b60405162461bcd60e51b815260206004820152601460248201527311985b1b189858dac81b9bdd08185b1b1bddd95960621b6044820152606401610110565b34801561016657600080fd5b50610119610175366004610bd7565b6101c0565b610119610188366004610c53565b6104aa565b61011961019b366004610c6c565b610661565b3480156101ac57600080fd5b506101196101bb366004610c89565b610882565b6101c8610b45565b6001546040805163f1be167960e01b815290516000926001600160a01b03169163f1be16799160048083019260209291908290030181865afa158015610212573d6000803e3d6000fd5b505050506040513d601f19601f820116820180604052508101906102369190610bb3565b90506000600160009054906101000a90046001600160a01b03166001600160a01b031663cae5f11e6040518163ffffffff1660e01b8152600401602060405180830381865afa15801561028d573d6000803e3d6000fd5b505050506040513d601f19601f820116820180604052508101906102b19190610bb3565b90506001600160a01b0387166342842e0e336040516001600160e01b031960e084901b1681526001600160a01b03909116600482015230602482015260448101899052606401600060405180830381600087803b15801561031157600080fd5b505af1158015610325573d6000803e3d6000fd5b50505050816001600160a01b031663f3b3132561033f3390565b838b8b8b8b8b8b6040518963ffffffff1660e01b8152600401610369989796959493929190610cde565b600060405180830381600087803b15801561038357600080fd5b505af1158015610397573d6000803e3d6000fd5b5050604051632e1a7d4d60e01b8152600481018b90526001600160a01b0384169250632e1a7d4d9150602401600060405180830381600087803b1580156103dd57600080fd5b505af11580156103f1573d6000803e3d6000fd5b5050505060006103fe3390565b6001600160a01b03168960405160006040518083038185875af1925050503d8060008114610448576040519150601f19603f3d011682016040523d82523d6000602084013e61044d565b606091505b50509050806104955760405162461bcd60e51b81526020600482015260146024820152732330b4b632b2103a379039b2b7321022ba3432b960611b6044820152606401610110565b5050506104a26001600055565b505050505050565b6104b2610b45565b6001546040805163f1be167960e01b815290516000926001600160a01b03169163f1be16799160048083019260209291908290030181865afa1580156104fc573d6000803e3d6000fd5b505050506040513d601f19601f820116820180604052508101906105209190610bb3565b90506000600160009054906101000a90046001600160a01b03166001600160a01b031663cae5f11e6040518163ffffffff1660e01b8152600401602060405180830381865afa158015610577573d6000803e3d6000fd5b505050506040513d601f19601f8201168201806040525081019061059b9190610bb3565b9050806001600160a01b031663d0e30db0346040518263ffffffff1660e01b81526004016000604051808303818588803b1580156105d857600080fd5b505af11580156105ec573d6000803e3d6000fd5b505060405163d8aed14560e01b8152600481018790523460248201526001600160a01b038616935063d8aed14592506044019050600060405180830381600087803b15801561063a57600080fd5b505af115801561064e573d6000803e3d6000fd5b50505050505061065e6001600055565b50565b610669610b45565b60015460408051636572f88f60e11b815290516000926001600160a01b03169163cae5f11e9160048083019260209291908290030181865afa1580156106b3573d6000803e3d6000fd5b505050506040513d601f19601f820116820180604052508101906106d79190610bb3565b9050806001600160a01b0316826001600160a01b03166338d52e0f6040518163ffffffff1660e01b8152600401602060405180830381865afa158015610721573d6000803e3d6000fd5b505050506040513d601f19601f820116820180604052508101906107459190610bb3565b6001600160a01b03161461079b5760405162461bcd60e51b815260206004820152601e60248201527f5265736572766520756e6465726c79696e67206973206e6f74205745544800006044820152606401610110565b806001600160a01b031663d0e30db0346040518263ffffffff1660e01b81526004016000604051808303818588803b1580156107d657600080fd5b505af11580156107ea573d6000803e3d6000fd5b5050505050816001600160a01b0316636e553f65346108063390565b6040516001600160e01b031960e085901b16815260048101929092526001600160a01b031660248201526044016020604051808303816000875af1158015610852573d6000803e3d6000fd5b505050506040513d601f19601f820116820180604052508101906108769190610dce565b505061065e6001600055565b61088a610b45565b60015460408051636572f88f60e11b815290516000926001600160a01b03169163cae5f11e9160048083019260209291908290030181865afa1580156108d4573d6000803e3d6000fd5b505050506040513d601f19601f820116820180604052508101906108f89190610bb3565b9050806001600160a01b0316836001600160a01b03166338d52e0f6040518163ffffffff1660e01b8152600401602060405180830381865afa158015610942573d6000803e3d6000fd5b505050506040513d601f19601f820116820180604052508101906109669190610bb3565b6001600160a01b0316146109bc5760405162461bcd60e51b815260206004820152601e60248201527f5265736572766520756e6465726c79696e67206973206e6f74205745544800006044820152606401610110565b60408051632d182be560e21b81526004810184905230602482015233604482015290516001600160a01b0385169163b460af9491606480830192602092919082900301816000875af1158015610a16573d6000803e3d6000fd5b505050506040513d601f19601f82011682018060405250810190610a3a9190610dce565b50604051632e1a7d4d60e01b8152600481018390526001600160a01b03821690632e1a7d4d90602401600060405180830381600087803b158015610a7d57600080fd5b505af1158015610a91573d6000803e3d6000fd5b505050506000610a9e3390565b6001600160a01b03168360405160006040518083038185875af1925050503d8060008114610ae8576040519150601f19603f3d011682016040523d82523d6000602084013e610aed565b606091505b5050905080610b355760405162461bcd60e51b81526020600482015260146024820152732330b4b632b2103a379039b2b7321022ba3432b960611b6044820152606401610110565b5050610b416001600055565b5050565b600260005403610b975760405162461bcd60e51b815260206004820152601f60248201527f5265656e7472616e637947756172643a207265656e7472616e742063616c6c006044820152606401610110565b6002600055565b6001600160a01b038116811461065e57600080fd5b600060208284031215610bc557600080fd5b8151610bd081610b9e565b9392505050565b60008060008060008060c08789031215610bf057600080fd5b863595506020870135610c0281610b9e565b945060408701359350606087013592506080870135915060a087013567ffffffffffffffff811115610c3357600080fd5b870160c0818a031215610c4557600080fd5b809150509295509295509295565b600060208284031215610c6557600080fd5b5035919050565b600060208284031215610c7e57600080fd5b8135610bd081610b9e565b60008060408385031215610c9c57600080fd5b8235610ca781610b9e565b946020939093013593505050565b81835281816020850137506000828201602090810191909152601f909101601f19169091010190565b600061010060018060a01b03808c168452808b1660208501528960408501528089166060850152508660808401528560a08401528460c08401528060e0840152833560ff8116808214610d3057600080fd5b8083860152505050602083013561012083015260408301356101408301526060830135610160830152608083013561018083015260a0830135601e19843603018112610d7b57600080fd5b830160208101903567ffffffffffffffff811115610d9857600080fd5b803603821315610da757600080fd5b60c06101a0850152610dbe6101c085018284610cb5565b9c9b505050505050505050505050565b600060208284031215610de057600080fd5b505191905056fea2646970667358221220eca7806084d592d30495745533ab1ef6871bb54e017f3469bcf7ebe9c9d7540264736f6c63430008110033",
  "linkReferences": {},
  "deployedLinkReferences": {}
}