{
  "_format": "hh-sol-artifact-1",
  "contractName": "WETHGateway",
  "sourceName": "contracts/protocol/WETHGateway.sol",
  "abi": [
    {
      "inputs": [
        {
          "internalType": "contract IAddressesProvider",
          "name": "addressesProvider",
          "type": "address"
        },
        {
          "internalType": "contract IWETH",
          "name": "weth",
          "type": "address"
        }
      ],
      "stateMutability": "nonpayable",
      "type": "constructor"
    },
    {
      "stateMutability": "payable",
      "type": "fallback"
    },
    {
      "inputs": [
        {
          "internalType": "uint256",
          "name": "amount",
          "type": "uint256"
        },
        {
          "internalType": "address",
          "name": "nftAddress",
          "type": "address"
        },
        {
          "internalType": "uint256[]",
          "name": "nftTokenIds",
          "type": "uint256[]"
        },
        {
          "internalType": "uint256",
          "name": "genesisNFTId",
          "type": "uint256"
        },
        {
          "internalType": "bytes32",
          "name": "request",
          "type": "bytes32"
        },
        {
          "components": [
            {
              "internalType": "uint8",
              "name": "v",
              "type": "uint8"
            },
            {
              "internalType": "bytes32",
              "name": "r",
              "type": "bytes32"
            },
            {
              "internalType": "bytes32",
              "name": "s",
              "type": "bytes32"
            },
            {
              "internalType": "bytes32",
              "name": "request",
              "type": "bytes32"
            },
            {
              "internalType": "uint256",
              "name": "deadline",
              "type": "uint256"
            },
            {
              "internalType": "bytes",
              "name": "payload",
              "type": "bytes"
            }
          ],
          "internalType": "struct Trustus.TrustusPacket",
          "name": "packet",
          "type": "tuple"
        }
      ],
      "name": "borrow",
      "outputs": [],
      "stateMutability": "nonpayable",
      "type": "function"
    },
    {
      "inputs": [
        {
          "internalType": "address",
          "name": "pool",
          "type": "address"
        },
        {
          "internalType": "uint256[]",
          "name": "nftIds",
          "type": "uint256[]"
        },
        {
          "internalType": "uint256",
          "name": "maximumPrice",
          "type": "uint256"
        }
      ],
      "name": "buy",
      "outputs": [],
      "stateMutability": "payable",
      "type": "function"
    },
    {
      "inputs": [
        {
          "internalType": "address",
          "name": "gauge",
          "type": "address"
        }
      ],
      "name": "depositBribe",
      "outputs": [],
      "stateMutability": "payable",
      "type": "function"
    },
    {
      "inputs": [
        {
          "internalType": "address",
          "name": "lendingPool",
          "type": "address"
        }
      ],
      "name": "depositLendingPool",
      "outputs": [],
      "stateMutability": "payable",
      "type": "function"
    },
    {
      "inputs": [
        {
          "internalType": "address",
          "name": "pool",
          "type": "address"
        },
        {
          "internalType": "enum DataTypes.LPType",
          "name": "lpType",
          "type": "uint8"
        },
        {
          "internalType": "uint256[]",
          "name": "nftIds",
          "type": "uint256[]"
        },
        {
          "internalType": "uint256",
          "name": "initialPrice",
          "type": "uint256"
        },
        {
          "internalType": "address",
          "name": "curve",
          "type": "address"
        },
        {
          "internalType": "uint256",
          "name": "delta",
          "type": "uint256"
        },
        {
          "internalType": "uint256",
          "name": "fee",
          "type": "uint256"
        }
      ],
      "name": "depositTradingPool",
      "outputs": [],
      "stateMutability": "payable",
      "type": "function"
    },
    {
      "inputs": [
        {
          "internalType": "address",
          "name": "",
          "type": "address"
        },
        {
          "internalType": "address",
          "name": "",
          "type": "address"
        },
        {
          "internalType": "uint256",
          "name": "",
          "type": "uint256"
        },
        {
          "internalType": "bytes",
          "name": "",
          "type": "bytes"
        }
      ],
      "name": "onERC721Received",
      "outputs": [
        {
          "internalType": "bytes4",
          "name": "",
          "type": "bytes4"
        }
      ],
      "stateMutability": "pure",
      "type": "function"
    },
    {
      "inputs": [
        {
          "internalType": "uint256",
          "name": "loanId",
          "type": "uint256"
        }
      ],
      "name": "repay",
      "outputs": [],
      "stateMutability": "payable",
      "type": "function"
    },
    {
      "inputs": [
        {
          "internalType": "address",
          "name": "pool",
          "type": "address"
        },
        {
          "internalType": "uint256[]",
          "name": "nftIds",
          "type": "uint256[]"
        },
        {
          "internalType": "uint256[]",
          "name": "liquidityPairs",
          "type": "uint256[]"
        },
        {
          "internalType": "uint256",
          "name": "minimumPrice",
          "type": "uint256"
        }
      ],
      "name": "sell",
      "outputs": [],
      "stateMutability": "nonpayable",
      "type": "function"
    },
    {
      "inputs": [
        {
          "internalType": "contract ITradingPool",
          "name": "buyPool",
          "type": "address"
        },
        {
          "internalType": "contract ITradingPool",
          "name": "sellPool",
          "type": "address"
        },
        {
          "internalType": "uint256[]",
          "name": "buyNftIds",
          "type": "uint256[]"
        },
        {
          "internalType": "uint256",
          "name": "maximumBuyPrice",
          "type": "uint256"
        },
        {
          "internalType": "uint256[]",
          "name": "sellNftIds",
          "type": "uint256[]"
        },
        {
          "internalType": "uint256[]",
          "name": "sellLps",
          "type": "uint256[]"
        },
        {
          "internalType": "uint256",
          "name": "minimumSellPrice",
          "type": "uint256"
        }
      ],
      "name": "swap",
      "outputs": [],
      "stateMutability": "payable",
      "type": "function"
    },
    {
      "inputs": [
        {
          "internalType": "address",
          "name": "pool",
          "type": "address"
        },
        {
          "internalType": "uint256[]",
          "name": "lpIds",
          "type": "uint256[]"
        }
      ],
      "name": "withdrawBatchTradingPool",
      "outputs": [],
      "stateMutability": "nonpayable",
      "type": "function"
    },
    {
      "inputs": [
        {
          "internalType": "address",
          "name": "lendingPool",
          "type": "address"
        },
        {
          "internalType": "uint256",
          "name": "amount",
          "type": "uint256"
        }
      ],
      "name": "withdrawLendingPool",
      "outputs": [],
      "stateMutability": "nonpayable",
      "type": "function"
    },
    {
      "inputs": [
        {
          "internalType": "address",
          "name": "pool",
          "type": "address"
        },
        {
          "internalType": "uint256",
          "name": "lpId",
          "type": "uint256"
        }
      ],
      "name": "withdrawTradingPool",
      "outputs": [],
      "stateMutability": "nonpayable",
      "type": "function"
    },
    {
      "stateMutability": "payable",
      "type": "receive"
    }
  ],
  "bytecode": "0x60803461009157601f620028b938819003918201601f19168301916001600160401b038311848410176100965780849260409485528339810103126100915780516001600160a01b039182821691829003610091576020015191821680920361009157600160005560018060a01b031990816001541617600155600254161760025560405161280c9081620000ad8239f35b600080fd5b634e487b7160e01b600052604160045260246000fdfe608060405260043610156100be575b36156100505760405162461bcd60e51b815260206004820152601460248201527311985b1b189858dac81b9bdd08185b1b1bddd95960621b6044820152606490fd5b6002546001600160a01b0316330361006457005b60405162461bcd60e51b815260206004820152602c60248201527f5265636569766564204554482066726f6d20756e6b6e6f776e20736f7572636560448201526b081b9bdd08185b1b1bddd95960a21b6064820152608490fd5b60003560e01c806301d0e3da1461206f5780630f19bee014611e1e578063150b7a0214611db55780633168cf4f14611c5e578063371fd8e61461197057806349591b51146116355780636a508606146114895780636bc365f414611132578063b31f0d6214610e5f578063b967f110146106f2578063bd3cd549146104fb5763cc36e3370361000e5760e036600319011261036f5761015b61245c565b602435600381101561036f576044356001600160401b03811161036f57610186903690600401612472565b6084356001600160a01b038181169590929186900361036f576101a7612564565b6040516321df0da760e01b81528184169360209290918381600481895afa8015610363576000906104c5575b6101e69150838060025416911614612500565b60005b8481106103f857506040516344531b0760e11b81528381600481895afa80156103635783916000916103c0575b5016803b1561036f576000809160446040518094819363a22cb46560e01b83528b6004840152600160248401525af18015610363576103b1575b50816002541690813b1561036f57600060049260405193848092630d0e30db60e41b825234905af19081156103635760009385936102c8936103a2575b5060025460405163095ea7b360e01b81526001600160a01b039093166004840152346024840152919485939190921691839182906044820190565b03925af1801561036357610374575b5050813b1561036f576000809461031a966040519788968795869463c4d6b3e560e01b865233600487015260248601526101006044860152610104850191612687565b90346064840152606435608484015260a483015260a43560c483015260c43560e483015203925af1801561036357610354575b6001600055005b61035d906124a2565b3861034d565b6040513d6000823e3d90fd5b600080fd5b8161039392903d1061039b575b61038b81836124cb565b81019061254c565b5038806102d7565b503d610381565b6103ab906124a2565b3861028d565b6103ba906124a2565b38610250565b809250858092503d83116103f1575b6103d981836124cb565b8101031261036f576103eb83916124ec565b38610216565b503d6103cf565b6040516344531b0760e11b815284816004818a5afa801561036357849160009161048d575b50169061042b81878a612661565b3591803b1561036f57604051632142170760e11b815233600482015230602482015260448101939093526000908390606490829084905af1918215610363576104799261047e575b5061263c565b6101e9565b610487906124a2565b38610473565b809250868092503d83116104be575b6104a681836124cb565b8101031261036f576104b884916124ec565b3861041d565b503d61049c565b508381813d83116104f4575b6104db81836124cb565b8101031261036f576104ef6101e6916124ec565b6101d3565b503d6104d1565b60208060031936011261036f5761051061245c565b610518612564565b6002546001600160a01b0392908316803b1561036f57600060049160405192838092630d0e30db60e41b825234905af18015610363576106e3575b5082600254168360015416906040519083826004816315ce667760e01b968782525afa80156103635784926000916106a4575b5060405163095ea7b360e01b81526001600160a01b0390911660048201523460248201529190829081600081604481015b03925af1801561036357610687575b508184600154169160046040518094819382525afa90811561036357849260009261064f575b50501690826002541691803b1561036f576000928360849260405196879586946394f2522f60e01b865233600487015260248601521660448401523460648401525af1801561036357610640576001600055005b610649906124a2565b8061034d565b8193508092503d8311610680575b61066781836124cb565b8101031261036f5761067983916124ec565b84806105ec565b503d61065d565b61069d90833d851161039b5761038b81836124cb565b50846105c6565b83819492503d83116106dc575b6106bb81836124cb565b8101031261036f576105b784916106d36000946124ec565b91509192610586565b503d6106b1565b6106ec906124a2565b83610553565b60e036600319011261036f5761070661245c565b61070e612446565b906001600160401b039060443582811161036f57610730903690600401612472565b909260843581811161036f5761074a903690600401612472565b909560a43592831161036f5761076560049336908501612472565b61076d612564565b60015460405163725c9c4960e01b81529560209187919082906001600160a01b03165afa94851561036357600095610e23575b506040516321df0da760e01b81526020816004816001600160a01b038c165afa90811561036357600091610de9575b506002546001600160a01b039081169116819003610da4576040516321df0da760e01b81526020816004816001600160a01b0389165afa8015610363578291600091610d68575b506001600160a01b031603610d245760c43560643511610c1c575b5060005b848110610b3d57506040516344531b0760e11b81526020816004816001600160a01b0388165afa90811561036357600091610b03575b506001600160a01b0316803b1561036f5760405163a22cb46560e01b81526001600160a01b038516600482015260016024820152906000908290604490829084905af1801561036357610af4575b50604051630b967f1160e41b81526001600160a01b038881166004830152909316602484015260e0604484015291978893849391906108fc60e48601898c612687565b90606435606487015260031986830301608487015261091a92612687565b906003198483030160a485015261093092612687565b60c48035908301526001600160a01b039093169203815a602094600091f193841561036357600094610ac0575b5060005b8181106109e1578480610975576001600055005b6002546001600160a01b031690813b1561036f5760008092602460405180958193632e1a7d4d60e01b83528660048401525af1908115610363576000808093926106499582946109d2575b50335af16109cc6125ba565b506125f9565b6109db906124a2565b866109c0565b6040516344531b0760e11b81526020816004816001600160a01b0388165afa90811561036357600091610a86575b506001600160a01b031690610a25818487612661565b3591803b1561036f57604051632142170760e11b815230600482015233602482015260448101939093526000908390606490829084905af191821561036357610a7292610a77575061263c565b610961565b610a80906124a2565b86610473565b90506020813d602011610ab8575b81610aa1602093836124cb565b8101031261036f57610ab2906124ec565b86610a0f565b3d9150610a94565b9093506020813d602011610aec575b81610adc602093836124cb565b8101031261036f5751928461095d565b3d9150610acf565b610afd906124a2565b896108b9565b90506020813d602011610b35575b81610b1e602093836124cb565b8101031261036f57610b2f906124ec565b8a61086b565b3d9150610b11565b6040516344531b0760e11b81526020816004816001600160a01b0389165afa90811561036357600091610be2575b506001600160a01b031690610b8181878d612661565b3591803b1561036f57604051632142170760e11b815233600482015230602482015260448101939093526000908390606490829084905af191821561036357610bce92610bd3575061263c565b610835565b610bdc906124a2565b8b610473565b90506020813d602011610c14575b81610bfd602093836124cb565b8101031261036f57610c0e906124ec565b8b610b6b565b3d9150610bf0565b610c2a60c4356064356127c9565b3403610cce57803b1561036f57600060049160405192838092630d0e30db60e41b825234905af1801561036357610cbf575b5060025460405163095ea7b360e01b81526001600160a01b038781166004830152346024830152909160209183916044918391600091165af18015610363571561083157610cb89060203d60201161039b5761038b81836124cb565b5089610831565b610cc8906124a2565b89610c5c565b60405162461bcd60e51b815260206004820152602860248201527f4e6f7420656e6f756768204554482073656e7420746f20636f7665722073776160448201526770206368616e676560c01b6064820152608490fd5b606460405162461bcd60e51b815260206004820152602060248201527f53656c6c20706f6f6c20756e6465726c79696e67206973206e6f7420574554486044820152fd5b9150506020813d602011610d9c575b81610d84602093836124cb565b8101031261036f57610d9682916124ec565b8c610816565b3d9150610d77565b60405162461bcd60e51b815260206004820152601f60248201527f42757920706f6f6c20756e6465726c79696e67206973206e6f742057455448006044820152606490fd5b90506020813d602011610e1b575b81610e04602093836124cb565b8101031261036f57610e15906124ec565b8a6107cf565b3d9150610df7565b9094506020813d602011610e57575b81610e3f602093836124cb565b8101031261036f57610e50906124ec565b93896107a0565b3d9150610e32565b606036600319011261036f57610e7361245c565b6024356001600160401b03811161036f57610e92903690600401612472565b60449291923590610ea1612564565b6040516321df0da760e01b81526020946001600160a01b03949182861691908781600481865afa80156103635787916000916110f7575b50600254821691610eeb91168214612500565b8534036110a157803b1561036f57600060049160405192838092630d0e30db60e41b825234905af18015610363576000948992610f6292611092575b5060025460405163095ea7b360e01b81526001600160a01b03909216600483015234602483015290958692918a169183919082906044820190565b03925af18015610363578794610fa694600092611075575b5060405163598f86b160e11b815233600482015260606024820152968795869485936064850191612687565b90604483015203925af192831561036357600093611045575b5050813411610fcf576001600055005b60025416610fdd82346127c9565b813b1561036f57600091602483926040519485938492632e1a7d4d60e01b845260048401525af180156103635760008061102461102f9582958395611036575b50346127c9565b335af16109cc6125ba565b808061034d565b61103f906124a2565b8761101d565b9080929350813d831161106e575b61105d81836124cb565b8101031261036f5751908280610fbf565b503d611053565b61108b90873d891161039b5761038b81836124cb565b5089610f7a565b61109b906124a2565b8a610f27565b60405162461bcd60e51b815260048101899052602860248201527f53656e742076616c7565206973206e6f7420657175616c20746f206d6178696d604482015267756d20707269636560c01b6064820152608490fd5b809250898092503d831161112b575b61111081836124cb565b8101031261036f57610eeb61112588926124ec565b90610ed8565b503d611106565b3461036f57604036600319011261036f5761114b61245c565b60249081356001600160401b03811161036f5761116d83913690600401612472565b929091611178612564565b6000611183856126ab565b9361119160405195866124cb565b858552601f196111a0876126ab565b0160005b8181106114765750506040516321df0da760e01b81526001600160a01b039485169660209182816004818c5afa801561036357600090611440575b6111f29150878060025416911614612500565b60005b8181106113445750873b1561036f5760009161122a60405194859384936336903d8d60e11b8552600485015288840191612687565b0381838a5af1801561036357611335575b5090916000925b84518410156112e75760005b61125885876127b5565b51518110156112d2576112758161126f87896127b5565b516127b5565b5190873b1561036f57604051632142170760e11b81523060048201523360248201526044810192909252600082606481838c5af1918215610363576112be926112c3575061263c565b61124e565b6112cc906124a2565b88610473565b509190926112df9061263c565b929091611242565b92506002541691823b1561036f57600092839160405180958193632e1a7d4d60e01b83528660048401525af1908115610363576000808080938661034d966109d25750335af16109cc6125ba565b61133e906124a2565b8561123b565b61134f818386612661565b35893b1561036f57604051632142170760e11b81523360048201523060248201526044810191909152600081606481838e5af1801561036357611431575b50611399818386612661565b6040516319ba7e5360e31b8152903560048201529460008688818d5afa9586156103635760009661140c575b50604086015181018091116113f75790836113f2929601516113e7828b6127b5565b52610473818a6127b5565b6111f5565b86634e487b7160e01b60005260116004526000fd5b61142a9196503d806000833e61142281836124cb565b8101906126c2565b948a6113c5565b61143a906124a2565b8961138d565b508281813d831161146f575b61145681836124cb565b8101031261036f5761146a6111f2916124ec565b6111df565b503d61144c565b60606020828901810191909152016111a4565b60208060031936011261036f5761149e61245c565b6114a6612564565b6040516338d52e0f60e01b81526001600160a01b039180831691908482600481865afa80156103635784926000916115fa575b506002548316926114ec91168314612500565b813b1561036f57600060049260405193848092630d0e30db60e41b825234905af190811561036357600094869361155d936115eb575b5060025460405163095ea7b360e01b81526001600160a01b039093166004840152346024840152919586939190921691839182906044820190565b03925af19081156103635760009284926115ce575b50604460405180948193636e553f6560e01b83523460048401523360248401525af18015610363576115a5576001600055005b813d83116115c7575b6115b881836124cb565b8101031261036f57808061034d565b503d6115ae565b6115e490833d851161039b5761038b81836124cb565b5084611572565b6115f4906124a2565b87611522565b809350868092503d831161162e575b61161381836124cb565b8101031261036f576114ec61162885936124ec565b906114d9565b503d611609565b3461036f5760031960803682011261036f5761164f61245c565b6001600160401b0360243581811161036f5761166f903690600401612472565b93909160443590811161036f5761168a903690600401612472565b9092611694612564565b6040516321df0da760e01b81526020966001600160a01b0396871692918881600481875afa80156103635760009061193a575b6116da9150888060025416911614612500565b60005b81811061186e57506040516344531b0760e11b81528881600481875afa8015610363578891600091611836575b501690813b1561036f576000809260446040518095819363a22cb46560e01b8352896004840152600160248401525af1801561036357899661177e9660009461178d93611827575b506040516349591b5160e01b815230600482015260806024820152998a98899788966084880191612687565b92858403016044860152612687565b606435606483015203925af1928315610363576000936117f7575b50506002541690813b1561036f5760008092602460405180958193632e1a7d4d60e01b83528660048401525af1908115610363576000808080938661034d966109d25750335af16109cc6125ba565b9080929350813d8311611820575b61180f81836124cb565b8101031261036f57519082806117a8565b503d611805565b611830906124a2565b8c611752565b8092508a8092503d8311611867575b61184f81836124cb565b8101031261036f5761186188916124ec565b8a61170a565b503d611845565b6040516344531b0760e11b81528981600481885afa8015610363578991600091611902575b5016906118a1818486612661565b3591803b1561036f57604051632142170760e11b815233600482015230602482015260448101939093526000908390606490829084905af1918215610363576118ee926118f3575061263c565b6116dd565b6118fc906124a2565b8a610473565b8092508b8092503d8311611933575b61191b81836124cb565b8101031261036f5761192d89916124ec565b8b611893565b503d611911565b508881813d8311611969575b61195081836124cb565b8101031261036f576119646116da916124ec565b6116c7565b503d611946565b60208060031936011261036f57600435611988612564565b6001546040516314d888d960e21b81526001600160a01b03939184168282600481845afa9182156103635785928491600091611c27575b5060246040518098819363ccff44f160e01b8352896004840152165afa94851561036357600095611bec575b5082600491604051928380926302690e7760e11b82525afa8015610363578291600091611bb4575b506040516338d52e0f60e01b815291169483826004818685165afa8015610363578392600091611b7c575b5082600254169283911603611b3957813b1561036f57600060049260405193848092630d0e30db60e41b825234905af1908115610363576000938593611abd93611b2a575060025460405163095ea7b360e01b81526001600160a01b039093166004840152346024840152919485939190921691839182906044820190565b03925af1801561036357611b0c575b5050813b1561036f5760009160448392604051948593849263d8aed14560e01b845260048401523460248401525af1801561036357610640576001600055005b81611b2292903d1061039b5761038b81836124cb565b508280611acc565b611b33906124a2565b8861028d565b6064846040519062461bcd60e51b825280600483015260248201527f4c6f616e20706f6f6c20756e6465726c79696e67206973206e6f7420574554486044820152fd5b809350858092503d8311611bad575b611b9581836124cb565b8101031261036f57611ba783926124ec565b87611a3e565b503d611b8b565b809250848092503d8311611be5575b611bcd81836124cb565b8101031261036f57611bdf82916124ec565b86611a13565b503d611bc3565b9094508281813d8311611c20575b611c0481836124cb565b8101031261036f5782611c186004926124ec565b9591506119eb565b503d611bfa565b93505082813d8311611c57575b611c3e81836124cb565b8101031261036f5782611c5186936124ec565b876119bf565b503d611c34565b3461036f57604036600319011261036f57611c7761245c565b60243590611c83612564565b6040516338d52e0f60e01b81526001600160a01b0391602091908316908281600481855afa8015610363578391600091611d77575b5091611cce600093868060025416911614612500565b606460405180948193632d182be560e21b83528960048401523060248401523360448401525af1801561036357611d4e5750506002541690813b1561036f5760008092602460405180958193632e1a7d4d60e01b83528660048401525af1908115610363576000808080938661034d966109d25750335af16109cc6125ba565b813d8311611d70575b611d6181836124cb565b8101031261036f5782806117a8565b503d611d57565b82819392503d8311611dae575b611d8e81836124cb565b8101031261036f57600091611cce611da685936124ec565b919350611cb8565b503d611d84565b3461036f57608036600319011261036f57611dce61245c565b50611dd7612446565b506064356001600160401b0380821161036f573660238301121561036f57816004013590811161036f573691016024011161036f57604051630a85bd0160e11b8152602090f35b3461036f57604036600319011261036f57611e3761245c565b60243590611e43612564565b6040516321df0da760e01b81526001600160a01b039182169260209290918381600481885afa801561036357600090612039575b611e8a9150828060025416911614612500565b833b1561036f57604051632142170760e11b808252336004830152306024830152604482018490529290600081606481838a5af180156103635761202a575b506040516319ba7e5360e31b81526004810182905290600082602481895afa9182156103635760009261200d575b50853b1561036f5760405190639c8f9f2360e01b82526004820152600081602481838a5af1801561036357611ffe575b5060005b848201518051821015611f985781611f42916127b5565b5190863b1561036f576040518581523060048201523360248201526044810192909252600082606481838b5af191821561036357611f8492611f89575061263c565b611f2b565b611f92906124a2565b87610473565b826040856002541691018051823b1561036f57600092602484926040519586938492632e1a7d4d60e01b845260048401525af1908115610363576000808080938661034d96611fef575b5051335af16109cc6125ba565b611ff8906124a2565b86611fe2565b612007906124a2565b85611f27565b6120239192503d806000833e61142281836124cb565b9086611ef7565b612033906124a2565b85611ec9565b508381813d8311612068575b61204f81836124cb565b8101031261036f57612063611e8a916124ec565b611e77565b503d612045565b3461036f5760c036600319011261036f57612088612446565b6044356001600160401b03811161036f576120a7903690600401612472565b6001600160401b0360a4351161036f5760a43536039060c060031983011261036f576004906120d4612564565b6001546040516302690e7760e11b81529260209184919082906001600160a01b03165afa9182156103635760009261240a575b5060005b81811061232d57506002546001600160a01b03908116949083163b1561036f576121729160405195636c6911b760e01b875233600488015260248701526004359687604488015260018060a01b031660648701526101006084870152610104860191612687565b9160643560a485015260843560c48501526003198484030160e485015260a4356004013560ff811680910361036f57835260a48035602481013560208601526044810135604086015260648101356060860152608481013560808601520135906022190181121561036f5760a43501906024600483013592016001600160401b03831161036f57823603811361036f57600060e08686868297839660c060a0889c01528160c0850152858401378181018401859052601f01601f1916010301926001600160a01b03165af180156103635761231e575b506002546040516370a0823160e01b81523060048201526001600160a01b039091169190602081602481865afa80156103635782916000916122e9575b50036122d357813b1561036f5760008092602460405180958193632e1a7d4d60e01b83528660048401525af1908115610363576000808080938661034d966109d25750335af16109cc6125ba565b634e487b7160e01b600052600160045260246000fd5b9150506020813d602011612316575b81612305602093836124cb565b8101031261036f5781905184612285565b3d91506122f8565b612327906124a2565b81612248565b612338818387612661565b356001600160a01b0387163b1561036f57604051632142170760e11b81523360048201523060248201526044810191909152600081606481836001600160a01b038c165af18015610363576123fb575b50612394818387612661565b35906001600160a01b0387163b1561036f5760405163095ea7b360e01b81526001600160a01b0385166004820152602481019290925260008280604481010381836001600160a01b038c165af1918215610363576123f692611f89575061263c565b61210b565b612404906124a2565b86612388565b9091506020813d60201161243e575b81612426602093836124cb565b8101031261036f57612437906124ec565b9085612107565b3d9150612419565b602435906001600160a01b038216820361036f57565b600435906001600160a01b038216820361036f57565b9181601f8401121561036f578235916001600160401b03831161036f576020808501948460051b01011161036f57565b6001600160401b0381116124b557604052565b634e487b7160e01b600052604160045260246000fd5b90601f801991011681019081106001600160401b038211176124b557604052565b51906001600160a01b038216820361036f57565b1561250757565b60405162461bcd60e51b815260206004820152601b60248201527f506f6f6c20756e6465726c79696e67206973206e6f74205745544800000000006044820152606490fd5b9081602091031261036f5751801515810361036f5790565b600260005414612575576002600055565b60405162461bcd60e51b815260206004820152601f60248201527f5265656e7472616e637947756172643a207265656e7472616e742063616c6c006044820152606490fd5b3d156125f4573d906001600160401b0382116124b557604051916125e8601f8201601f1916602001846124cb565b82523d6000602084013e565b606090565b1561260057565b60405162461bcd60e51b81526020600482015260146024820152732330b4b632b2103a379039b2b7321022ba3432b960611b6044820152606490fd5b600019811461264b5760010190565b634e487b7160e01b600052601160045260246000fd5b91908110156126715760051b0190565b634e487b7160e01b600052603260045260246000fd5b81835290916001600160fb1b03831161036f5760209260051b809284830137010190565b6001600160401b0381116124b55760051b60200190565b60209291818103841361036f5781516001600160401b039283821161036f57019060e08282031261036f576040519260e08401848110828211176124b5576040528251600381101561036f5784528583015190811161036f5782019080601f8301121561036f578151612734816126ab565b9261274260405194856124cb565b818452878085019260051b82010192831161036f578701905b8282106127a65750505082939460c0930152604081015160408401526060810151606084015261278d608082016124ec565b608084015260a081015160a0840152015160c082015290565b8151815290870190870161275b565b80518210156126715760209160051b010190565b9190820391821161264b5756fea26469706673582212200645448275b94b3dc2560bf3f5ec9acd7012ad0c6ef709b85b27e1423684e16d64736f6c63430008130033",
  "linkReferences": {},
  "deployedLinkReferences": {}
}