{
  "_format": "hh-sol-artifact-1",
  "contractName": "WETHGateway",
  "sourceName": "contracts/protocol/WETHGateway.sol",
  "abi": [
    {
      "inputs": [
        {
          "internalType": "contract IAddressesProvider",
          "name": "addressesProvider",
          "type": "address"
        }
      ],
      "stateMutability": "nonpayable",
      "type": "constructor"
    },
    {
      "stateMutability": "payable",
      "type": "fallback"
    },
    {
      "inputs": [
        {
          "internalType": "uint256",
          "name": "amount",
          "type": "uint256"
        },
        {
          "internalType": "address",
          "name": "nftAddress",
          "type": "address"
        },
        {
          "internalType": "uint256[]",
          "name": "nftTokenIds",
          "type": "uint256[]"
        },
        {
          "internalType": "uint256",
          "name": "genesisNFTId",
          "type": "uint256"
        },
        {
          "internalType": "bytes32",
          "name": "request",
          "type": "bytes32"
        },
        {
          "components": [
            {
              "internalType": "uint8",
              "name": "v",
              "type": "uint8"
            },
            {
              "internalType": "bytes32",
              "name": "r",
              "type": "bytes32"
            },
            {
              "internalType": "bytes32",
              "name": "s",
              "type": "bytes32"
            },
            {
              "internalType": "bytes32",
              "name": "request",
              "type": "bytes32"
            },
            {
              "internalType": "uint256",
              "name": "deadline",
              "type": "uint256"
            },
            {
              "internalType": "bytes",
              "name": "payload",
              "type": "bytes"
            }
          ],
          "internalType": "struct Trustus.TrustusPacket",
          "name": "packet",
          "type": "tuple"
        }
      ],
      "name": "borrow",
      "outputs": [],
      "stateMutability": "nonpayable",
      "type": "function"
    },
    {
      "inputs": [
        {
          "internalType": "address",
          "name": "pool",
          "type": "address"
        },
        {
          "internalType": "uint256[]",
          "name": "nftIds",
          "type": "uint256[]"
        },
        {
          "internalType": "uint256",
          "name": "maximumPrice",
          "type": "uint256"
        }
      ],
      "name": "buy",
      "outputs": [],
      "stateMutability": "payable",
      "type": "function"
    },
    {
      "inputs": [
        {
          "internalType": "address",
          "name": "lendingPool",
          "type": "address"
        }
      ],
      "name": "depositLendingPool",
      "outputs": [],
      "stateMutability": "payable",
      "type": "function"
    },
    {
      "inputs": [
        {
          "internalType": "address",
          "name": "pool",
          "type": "address"
        },
        {
          "internalType": "uint256[]",
          "name": "nftIds",
          "type": "uint256[]"
        },
        {
          "internalType": "uint256",
          "name": "initialPrice",
          "type": "uint256"
        },
        {
          "internalType": "address",
          "name": "curve",
          "type": "address"
        },
        {
          "internalType": "uint256",
          "name": "delta",
          "type": "uint256"
        },
        {
          "internalType": "uint256",
          "name": "fee",
          "type": "uint256"
        }
      ],
      "name": "depositTradingPool",
      "outputs": [],
      "stateMutability": "payable",
      "type": "function"
    },
    {
      "inputs": [
        {
          "internalType": "address",
          "name": "",
          "type": "address"
        },
        {
          "internalType": "address",
          "name": "",
          "type": "address"
        },
        {
          "internalType": "uint256",
          "name": "",
          "type": "uint256"
        },
        {
          "internalType": "bytes",
          "name": "",
          "type": "bytes"
        }
      ],
      "name": "onERC721Received",
      "outputs": [
        {
          "internalType": "bytes4",
          "name": "",
          "type": "bytes4"
        }
      ],
      "stateMutability": "pure",
      "type": "function"
    },
    {
      "inputs": [
        {
          "internalType": "uint256",
          "name": "loanId",
          "type": "uint256"
        }
      ],
      "name": "repay",
      "outputs": [],
      "stateMutability": "payable",
      "type": "function"
    },
    {
      "inputs": [
        {
          "internalType": "address",
          "name": "pool",
          "type": "address"
        },
        {
          "internalType": "uint256[]",
          "name": "nftIds",
          "type": "uint256[]"
        },
        {
          "internalType": "uint256[]",
          "name": "liquidityPairs",
          "type": "uint256[]"
        },
        {
          "internalType": "uint256",
          "name": "minimumPrice",
          "type": "uint256"
        }
      ],
      "name": "sell",
      "outputs": [],
      "stateMutability": "nonpayable",
      "type": "function"
    },
    {
      "inputs": [
        {
          "internalType": "contract ITradingPool",
          "name": "buyPool",
          "type": "address"
        },
        {
          "internalType": "contract ITradingPool",
          "name": "sellPool",
          "type": "address"
        },
        {
          "internalType": "uint256[]",
          "name": "buyNftIds",
          "type": "uint256[]"
        },
        {
          "internalType": "uint256",
          "name": "maximumBuyPrice",
          "type": "uint256"
        },
        {
          "internalType": "uint256[]",
          "name": "sellNftIds",
          "type": "uint256[]"
        },
        {
          "internalType": "uint256[]",
          "name": "sellLps",
          "type": "uint256[]"
        },
        {
          "internalType": "uint256",
          "name": "minimumSellPrice",
          "type": "uint256"
        }
      ],
      "name": "swap",
      "outputs": [],
      "stateMutability": "payable",
      "type": "function"
    },
    {
      "inputs": [
        {
          "internalType": "address",
          "name": "pool",
          "type": "address"
        },
        {
          "internalType": "uint256[]",
          "name": "lpIds",
          "type": "uint256[]"
        }
      ],
      "name": "withdrawBatchTradingPool",
      "outputs": [],
      "stateMutability": "nonpayable",
      "type": "function"
    },
    {
      "inputs": [
        {
          "internalType": "address",
          "name": "lendingPool",
          "type": "address"
        },
        {
          "internalType": "uint256",
          "name": "amount",
          "type": "uint256"
        }
      ],
      "name": "withdrawLendingPool",
      "outputs": [],
      "stateMutability": "nonpayable",
      "type": "function"
    },
    {
      "inputs": [
        {
          "internalType": "address",
          "name": "pool",
          "type": "address"
        },
        {
          "internalType": "uint256",
          "name": "lpId",
          "type": "uint256"
        }
      ],
      "name": "withdrawTradingPool",
      "outputs": [],
      "stateMutability": "nonpayable",
      "type": "function"
    },
    {
      "stateMutability": "payable",
      "type": "receive"
    }
  ],
  "bytecode": "0x60806040523480156200001157600080fd5b50604051620037843803806200378483398101604081905262000034916200005f565b6001600081905580546001600160a01b0319166001600160a01b039290921691909117905562000091565b6000602082840312156200007257600080fd5b81516001600160a01b03811681146200008a57600080fd5b9392505050565b6136e380620000a16000396000f3fe6080604052600436106100a05760003560e01c8063371fd8e611610064578063371fd8e61461028d57806349591b51146102a05780636a508606146102c05780636bc365f4146102d3578063b31f0d62146102f3578063b967f1101461030657610179565b806301d0e3da146101b85780630480358d146101d85780630f19bee0146101eb578063150b7a021461020b5780633168cf4f1461026d57610179565b3661017957600160009054906101000a90046001600160a01b03166001600160a01b031663cae5f11e6040518163ffffffff1660e01b8152600401602060405180830381865afa1580156100f8573d6000803e3d6000fd5b505050506040513d601f19601f8201168201806040525081019061011c9190612cc0565b6001600160a01b0316336001600160a01b0316146101775760405162461bcd60e51b8152602060048201526013602482015272149958d95a5d99481b9bdd08185b1b1bddd959606a1b60448201526064015b60405180910390fd5b005b60405162461bcd60e51b815260206004820152601460248201527311985b1b189858dac81b9bdd08185b1b1bddd95960621b604482015260640161016e565b3480156101c457600080fd5b506101776101d3366004612de0565b610319565b6101776101e6366004612e78565b61073f565b3480156101f757600080fd5b50610177610206366004612ef5565b610b48565b34801561021757600080fd5b50610250610226366004612f21565b7f150b7a023d4804d13e8c85fb27262cb750cf6ba9f9dd3bb30d90f482ceeb4b1f95945050505050565b6040516001600160e01b0319909116815260200160405180910390f35b34801561027957600080fd5b50610177610288366004612ef5565b610f0d565b61017761029b366004612fbf565b611175565b3480156102ac57600080fd5b506101776102bb366004612fd8565b61154b565b6101776102ce366004613055565b611978565b3480156102df57600080fd5b506101776102ee366004613072565b611bd7565b6101776103013660046130c1565b6120be565b610177610314366004613119565b61246a565b610321612c42565b600154604080516302690e7760e11b815290516000926001600160a01b0316916304d21cee9160048083019260209291908290030181865afa15801561036b573d6000803e3d6000fd5b505050506040513d601f19601f8201168201806040525081019061038f9190612cc0565b90506000600160009054906101000a90046001600160a01b03166001600160a01b031663cae5f11e6040518163ffffffff1660e01b8152600401602060405180830381865afa1580156103e6573d6000803e3d6000fd5b505050506040513d601f19601f8201168201806040525081019061040a9190612cc0565b905060005b8651811015610533576001600160a01b0388166342842e0e33308a858151811061043b5761043b6131d9565b60200260200101516040518463ffffffff1660e01b8152600401610461939291906131ef565b600060405180830381600087803b15801561047b57600080fd5b505af115801561048f573d6000803e3d6000fd5b50505050876001600160a01b031663095ea7b3848984815181106104b5576104b56131d9565b60200260200101516040518363ffffffff1660e01b81526004016104ee9291906001600160a01b03929092168252602082015260400190565b600060405180830381600087803b15801561050857600080fd5b505af115801561051c573d6000803e3d6000fd5b50505050808061052b90613229565b91505061040f565b50604051636c6911b760e01b81526001600160a01b03831690636c6911b79061056e90339085908d908d908d908d908d908d906004016132a6565b600060405180830381600087803b15801561058857600080fd5b505af115801561059c573d6000803e3d6000fd5b50506040516370a0823160e01b81523060048201528a92506001600160a01b03841691506370a0823190602401602060405180830381865afa1580156105e6573d6000803e3d6000fd5b505050506040513d601f19601f8201168201806040525081019061060a919061339f565b146106575760405162461bcd60e51b815260206004820152601960248201527f4e6f7420656e6f75676820574554482072656365697665642e00000000000000604482015260640161016e565b604051632e1a7d4d60e01b8152600481018990526001600160a01b03821690632e1a7d4d90602401600060405180830381600087803b15801561069957600080fd5b505af11580156106ad573d6000803e3d6000fd5b5050505060006106ba3390565b6001600160a01b03168960405160006040518083038185875af1925050503d8060008114610704576040519150601f19603f3d011682016040523d82523d6000602084013e610709565b606091505b505090508061072a5760405162461bcd60e51b815260040161016e906133b8565b5050506107376001600055565b505050505050565b610747612c42565b60015460408051636572f88f60e11b815290516000926001600160a01b03169163cae5f11e9160048083019260209291908290030181865afa158015610791573d6000803e3d6000fd5b505050506040513d601f19601f820116820180604052508101906107b59190612cc0565b9050806001600160a01b0316876001600160a01b03166321df0da76040518163ffffffff1660e01b8152600401602060405180830381865afa1580156107ff573d6000803e3d6000fd5b505050506040513d601f19601f820116820180604052508101906108239190612cc0565b6001600160a01b0316146108495760405162461bcd60e51b815260040161016e906133e6565b60005b865181101561094457876001600160a01b03166388a6360e6040518163ffffffff1660e01b8152600401602060405180830381865afa158015610893573d6000803e3d6000fd5b505050506040513d601f19601f820116820180604052508101906108b79190612cc0565b6001600160a01b03166342842e0e33308a85815181106108d9576108d96131d9565b60200260200101516040518463ffffffff1660e01b81526004016108ff939291906131ef565b600060405180830381600087803b15801561091957600080fd5b505af115801561092d573d6000803e3d6000fd5b50505050808061093c90613229565b91505061084c565b50866001600160a01b03166388a6360e6040518163ffffffff1660e01b8152600401602060405180830381865afa158015610983573d6000803e3d6000fd5b505050506040513d601f19601f820116820180604052508101906109a79190612cc0565b60405163a22cb46560e01b81526001600160a01b03898116600483015260016024830152919091169063a22cb46590604401600060405180830381600087803b1580156109f357600080fd5b505af1158015610a07573d6000803e3d6000fd5b50505050806001600160a01b031663d0e30db0346040518263ffffffff1660e01b81526004016000604051808303818588803b158015610a4657600080fd5b505af1158015610a5a573d6000803e3d6000fd5b505060405163095ea7b360e01b81526001600160a01b038b811660048301523460248301528516935063095ea7b3925060440190506020604051808303816000875af1158015610aae573d6000803e3d6000fd5b505050506040513d601f19601f82011682018060405250810190610ad2919061341d565b50604051632fc0b19560e21b81526001600160a01b0388169063bf02c65490610b0b9033908a9034908b908b908b908b9060040161343f565b600060405180830381600087803b158015610b2557600080fd5b505af1158015610b39573d6000803e3d6000fd5b50505050506107376001600055565b610b50612c42565b60015460408051636572f88f60e11b815290516000926001600160a01b03169163cae5f11e9160048083019260209291908290030181865afa158015610b9a573d6000803e3d6000fd5b505050506040513d601f19601f82011682018060405250810190610bbe9190612cc0565b9050806001600160a01b0316836001600160a01b03166321df0da76040518163ffffffff1660e01b8152600401602060405180830381865afa158015610c08573d6000803e3d6000fd5b505050506040513d601f19601f82011682018060405250810190610c2c9190612cc0565b6001600160a01b031614610c525760405162461bcd60e51b815260040161016e906133e6565b604051632142170760e11b81526001600160a01b038416906342842e0e90610c82903390309087906004016131ef565b600060405180830381600087803b158015610c9c57600080fd5b505af1158015610cb0573d6000803e3d6000fd5b50506040516319ba7e5360e31b815260048101859052600092506001600160a01b038616915063cdd3f29890602401600060405180830381865afa158015610cfc573d6000803e3d6000fd5b505050506040513d6000823e601f3d908101601f19168201604052610d24919081019061348a565b604051639c8f9f2360e01b8152600481018590529091506001600160a01b03851690639c8f9f2390602401600060405180830381600087803b158015610d6957600080fd5b505af1158015610d7d573d6000803e3d6000fd5b5050505060005b815151811015610e1e576001600160a01b0385166342842e0e30338551805186908110610db357610db36131d9565b60200260200101516040518463ffffffff1660e01b8152600401610dd9939291906131ef565b600060405180830381600087803b158015610df357600080fd5b505af1158015610e07573d6000803e3d6000fd5b505050508080610e1690613229565b915050610d84565b506020810151604051632e1a7d4d60e01b815260048101919091526001600160a01b03831690632e1a7d4d90602401600060405180830381600087803b158015610e6757600080fd5b505af1158015610e7b573d6000803e3d6000fd5b505050506000610e883390565b6001600160a01b0316826020015160405160006040518083038185875af1925050503d8060008114610ed6576040519150601f19603f3d011682016040523d82523d6000602084013e610edb565b606091505b5050905080610efc5760405162461bcd60e51b815260040161016e906133b8565b505050610f096001600055565b5050565b610f15612c42565b60015460408051636572f88f60e11b815290516000926001600160a01b03169163cae5f11e9160048083019260209291908290030181865afa158015610f5f573d6000803e3d6000fd5b505050506040513d601f19601f82011682018060405250810190610f839190612cc0565b9050806001600160a01b0316836001600160a01b03166338d52e0f6040518163ffffffff1660e01b8152600401602060405180830381865afa158015610fcd573d6000803e3d6000fd5b505050506040513d601f19601f82011682018060405250810190610ff19190612cc0565b6001600160a01b0316146110175760405162461bcd60e51b815260040161016e906133e6565b60408051632d182be560e21b81526004810184905230602482015233604482015290516001600160a01b0385169163b460af9491606480830192602092919082900301816000875af1158015611071573d6000803e3d6000fd5b505050506040513d601f19601f82011682018060405250810190611095919061339f565b50604051632e1a7d4d60e01b8152600481018390526001600160a01b03821690632e1a7d4d90602401600060405180830381600087803b1580156110d857600080fd5b505af11580156110ec573d6000803e3d6000fd5b5050505060006110f93390565b6001600160a01b03168360405160006040518083038185875af1925050503d8060008114611143576040519150601f19603f3d011682016040523d82523d6000602084013e611148565b606091505b50509050806111695760405162461bcd60e51b815260040161016e906133b8565b5050610f096001600055565b61117d612c42565b600154604080516314d888d960e21b815290516000926001600160a01b03169163536223649160048083019260209291908290030181865afa1580156111c7573d6000803e3d6000fd5b505050506040513d601f19601f820116820180604052508101906111eb9190612cc0565b6001600160a01b031663ccff44f1836040518263ffffffff1660e01b815260040161121891815260200190565b602060405180830381865afa158015611235573d6000803e3d6000fd5b505050506040513d601f19601f820116820180604052508101906112599190612cc0565b90506000600160009054906101000a90046001600160a01b03166001600160a01b03166304d21cee6040518163ffffffff1660e01b8152600401602060405180830381865afa1580156112b0573d6000803e3d6000fd5b505050506040513d601f19601f820116820180604052508101906112d49190612cc0565b90506000600160009054906101000a90046001600160a01b03166001600160a01b031663cae5f11e6040518163ffffffff1660e01b8152600401602060405180830381865afa15801561132b573d6000803e3d6000fd5b505050506040513d601f19601f8201168201806040525081019061134f9190612cc0565b9050806001600160a01b0316836001600160a01b03166338d52e0f6040518163ffffffff1660e01b8152600401602060405180830381865afa158015611399573d6000803e3d6000fd5b505050506040513d601f19601f820116820180604052508101906113bd9190612cc0565b6001600160a01b0316146114135760405162461bcd60e51b815260206004820181905260248201527f4c6f616e20706f6f6c20756e6465726c79696e67206973206e6f742057455448604482015260640161016e565b806001600160a01b031663d0e30db0346040518263ffffffff1660e01b81526004016000604051808303818588803b15801561144e57600080fd5b505af1158015611462573d6000803e3d6000fd5b505060405163095ea7b360e01b81526001600160a01b0387811660048301523460248301528516935063095ea7b3925060440190506020604051808303816000875af11580156114b6573d6000803e3d6000fd5b505050506040513d601f19601f820116820180604052508101906114da919061341d565b5060405163d8aed14560e01b8152600481018590523460248201526001600160a01b0383169063d8aed14590604401600060405180830381600087803b15801561152357600080fd5b505af1158015611537573d6000803e3d6000fd5b505050505050506115486001600055565b50565b611553612c42565b60015460408051636572f88f60e11b815290516000926001600160a01b03169163cae5f11e9160048083019260209291908290030181865afa15801561159d573d6000803e3d6000fd5b505050506040513d601f19601f820116820180604052508101906115c19190612cc0565b9050806001600160a01b0316856001600160a01b03166321df0da76040518163ffffffff1660e01b8152600401602060405180830381865afa15801561160b573d6000803e3d6000fd5b505050506040513d601f19601f8201168201806040525081019061162f9190612cc0565b6001600160a01b0316146116555760405162461bcd60e51b815260040161016e906133e6565b60005b845181101561175057856001600160a01b03166388a6360e6040518163ffffffff1660e01b8152600401602060405180830381865afa15801561169f573d6000803e3d6000fd5b505050506040513d601f19601f820116820180604052508101906116c39190612cc0565b6001600160a01b03166342842e0e33308885815181106116e5576116e56131d9565b60200260200101516040518463ffffffff1660e01b815260040161170b939291906131ef565b600060405180830381600087803b15801561172557600080fd5b505af1158015611739573d6000803e3d6000fd5b50505050808061174890613229565b915050611658565b50846001600160a01b03166388a6360e6040518163ffffffff1660e01b8152600401602060405180830381865afa15801561178f573d6000803e3d6000fd5b505050506040513d601f19601f820116820180604052508101906117b39190612cc0565b60405163a22cb46560e01b81526001600160a01b03878116600483015260016024830152919091169063a22cb46590604401600060405180830381600087803b1580156117ff57600080fd5b505af1158015611813573d6000803e3d6000fd5b50506040516349591b5160e01b8152600092506001600160a01b03881691506349591b519061184c903090899089908990600401613585565b6020604051808303816000875af115801561186b573d6000803e3d6000fd5b505050506040513d601f19601f8201168201806040525081019061188f919061339f565b604051632e1a7d4d60e01b8152600481018290529091506001600160a01b03831690632e1a7d4d90602401600060405180830381600087803b1580156118d457600080fd5b505af11580156118e8573d6000803e3d6000fd5b5050505060006118f53390565b6001600160a01b03168260405160006040518083038185875af1925050503d806000811461193f576040519150601f19603f3d011682016040523d82523d6000602084013e611944565b606091505b50509050806119655760405162461bcd60e51b815260040161016e906133b8565b5050506119726001600055565b50505050565b611980612c42565b60015460408051636572f88f60e11b815290516000926001600160a01b03169163cae5f11e9160048083019260209291908290030181865afa1580156119ca573d6000803e3d6000fd5b505050506040513d601f19601f820116820180604052508101906119ee9190612cc0565b9050806001600160a01b0316826001600160a01b03166338d52e0f6040518163ffffffff1660e01b8152600401602060405180830381865afa158015611a38573d6000803e3d6000fd5b505050506040513d601f19601f82011682018060405250810190611a5c9190612cc0565b6001600160a01b031614611a825760405162461bcd60e51b815260040161016e906133e6565b806001600160a01b031663d0e30db0346040518263ffffffff1660e01b81526004016000604051808303818588803b158015611abd57600080fd5b505af1158015611ad1573d6000803e3d6000fd5b505060405163095ea7b360e01b81526001600160a01b0386811660048301523460248301528516935063095ea7b3925060440190506020604051808303816000875af1158015611b25573d6000803e3d6000fd5b505050506040513d601f19601f82011682018060405250810190611b49919061341d565b506001600160a01b038216636e553f6534336040516001600160e01b031960e085901b16815260048101929092526001600160a01b031660248201526044016020604051808303816000875af1158015611ba7573d6000803e3d6000fd5b505050506040513d601f19601f82011682018060405250810190611bcb919061339f565b50506115486001600055565b611bdf612c42565b60015460408051636572f88f60e11b815290516000926001600160a01b03169163cae5f11e9160048083019260209291908290030181865afa158015611c29573d6000803e3d6000fd5b505050506040513d601f19601f82011682018060405250810190611c4d9190612cc0565b905060008083516001600160401b03811115611c6b57611c6b612ce4565b604051908082528060200260200182016040528015611c9e57816020015b6060815260200190600190039081611c895790505b509050826001600160a01b0316856001600160a01b03166321df0da76040518163ffffffff1660e01b8152600401602060405180830381865afa158015611ce9573d6000803e3d6000fd5b505050506040513d601f19601f82011682018060405250810190611d0d9190612cc0565b6001600160a01b031614611d335760405162461bcd60e51b815260040161016e906133e6565b60005b8451811015611e92576001600160a01b0386166342842e0e3330888581518110611d6257611d626131d9565b60200260200101516040518463ffffffff1660e01b8152600401611d88939291906131ef565b600060405180830381600087803b158015611da257600080fd5b505af1158015611db6573d6000803e3d6000fd5b505050506000866001600160a01b031663cdd3f298878481518110611ddd57611ddd6131d9565b60200260200101516040518263ffffffff1660e01b8152600401611e0391815260200190565b600060405180830381865afa158015611e20573d6000803e3d6000fd5b505050506040513d6000823e601f3d908101601f19168201604052611e48919081019061348a565b9050806020015184611e5a91906135cd565b93508060000151838381518110611e7357611e736131d9565b6020026020010181905250508080611e8a90613229565b915050611d36565b506040516336903d8d60e11b81526001600160a01b03861690636d207b1a90611ebf9087906004016135e6565b600060405180830381600087803b158015611ed957600080fd5b505af1158015611eed573d6000803e3d6000fd5b5050505060005b8151811015611fdc5760005b828281518110611f1257611f126131d9565b602002602001015151811015611fc9576001600160a01b0387166342842e0e3033868681518110611f4557611f456131d9565b60200260200101518581518110611f5e57611f5e6131d9565b60200260200101516040518463ffffffff1660e01b8152600401611f84939291906131ef565b600060405180830381600087803b158015611f9e57600080fd5b505af1158015611fb2573d6000803e3d6000fd5b505050508080611fc190613229565b915050611f00565b5080611fd481613229565b915050611ef4565b50604051632e1a7d4d60e01b8152600481018390526001600160a01b03841690632e1a7d4d90602401600060405180830381600087803b15801561201f57600080fd5b505af1158015612033573d6000803e3d6000fd5b5050505060006120403390565b6001600160a01b03168360405160006040518083038185875af1925050503d806000811461208a576040519150601f19603f3d011682016040523d82523d6000602084013e61208f565b606091505b50509050806120b05760405162461bcd60e51b815260040161016e906133b8565b50505050610f096001600055565b6120c6612c42565b60015460408051636572f88f60e11b815290516000926001600160a01b03169163cae5f11e9160048083019260209291908290030181865afa158015612110573d6000803e3d6000fd5b505050506040513d601f19601f820116820180604052508101906121349190612cc0565b9050806001600160a01b0316846001600160a01b03166321df0da76040518163ffffffff1660e01b8152600401602060405180830381865afa15801561217e573d6000803e3d6000fd5b505050506040513d601f19601f820116820180604052508101906121a29190612cc0565b6001600160a01b0316146121c85760405162461bcd60e51b815260040161016e906133e6565b8134146122285760405162461bcd60e51b815260206004820152602860248201527f53656e742076616c7565206973206e6f7420657175616c20746f206d6178696d604482015267756d20707269636560c01b606482015260840161016e565b806001600160a01b031663d0e30db0346040518263ffffffff1660e01b81526004016000604051808303818588803b15801561226357600080fd5b505af1158015612277573d6000803e3d6000fd5b505060405163095ea7b360e01b81526001600160a01b0388811660048301523460248301528516935063095ea7b3925060440190506020604051808303816000875af11580156122cb573d6000803e3d6000fd5b505050506040513d601f19601f820116820180604052508101906122ef919061341d565b5060405163598f86b160e11b81526000906001600160a01b0386169063b31f0d6290612323903390889088906004016135f9565b6020604051808303816000875af1158015612342573d6000803e3d6000fd5b505050506040513d601f19601f82011682018060405250810190612366919061339f565b905080341115612459576001600160a01b038216632e1a7d4d612389833461362d565b6040518263ffffffff1660e01b81526004016123a791815260200190565b600060405180830381600087803b1580156123c157600080fd5b505af11580156123d5573d6000803e3d6000fd5b5050505060006123e23390565b6001600160a01b03166123f5833461362d565b604051600081818185875af1925050503d8060008114612431576040519150601f19603f3d011682016040523d82523d6000602084013e612436565b606091505b50509050806124575760405162461bcd60e51b815260040161016e906133b8565b505b50506124656001600055565b505050565b612472612c42565b60015460408051636572f88f60e11b815290516000926001600160a01b03169163cae5f11e9160048083019260209291908290030181865afa1580156124bc573d6000803e3d6000fd5b505050506040513d601f19601f820116820180604052508101906124e09190612cc0565b90506000600160009054906101000a90046001600160a01b03166001600160a01b031663725c9c496040518163ffffffff1660e01b8152600401602060405180830381865afa158015612537573d6000803e3d6000fd5b505050506040513d601f19601f8201168201806040525081019061255b9190612cc0565b9050816001600160a01b0316896001600160a01b03166321df0da76040518163ffffffff1660e01b8152600401602060405180830381865afa1580156125a5573d6000803e3d6000fd5b505050506040513d601f19601f820116820180604052508101906125c99190612cc0565b6001600160a01b03161461261f5760405162461bcd60e51b815260206004820152601f60248201527f42757920706f6f6c20756e6465726c79696e67206973206e6f74205745544800604482015260640161016e565b816001600160a01b0316886001600160a01b03166321df0da76040518163ffffffff1660e01b8152600401602060405180830381865afa158015612667573d6000803e3d6000fd5b505050506040513d601f19601f8201168201806040525081019061268b9190612cc0565b6001600160a01b0316146126e15760405162461bcd60e51b815260206004820181905260248201527f53656c6c20706f6f6c20756e6465726c79696e67206973206e6f742057455448604482015260640161016e565b82861115612752576126f3838761362d565b34146127525760405162461bcd60e51b815260206004820152602860248201527f4e6f7420656e6f756768204554482073656e7420746f20636f7665722073776160448201526770206368616e676560c01b606482015260840161016e565b60005b855181101561284d57886001600160a01b03166388a6360e6040518163ffffffff1660e01b8152600401602060405180830381865afa15801561279c573d6000803e3d6000fd5b505050506040513d601f19601f820116820180604052508101906127c09190612cc0565b6001600160a01b03166342842e0e33308985815181106127e2576127e26131d9565b60200260200101516040518463ffffffff1660e01b8152600401612808939291906131ef565b600060405180830381600087803b15801561282257600080fd5b505af1158015612836573d6000803e3d6000fd5b50505050808061284590613229565b915050612755565b50876001600160a01b03166388a6360e6040518163ffffffff1660e01b8152600401602060405180830381865afa15801561288c573d6000803e3d6000fd5b505050506040513d601f19601f820116820180604052508101906128b09190612cc0565b60405163a22cb46560e01b81526001600160a01b038a8116600483015260016024830152919091169063a22cb46590604401600060405180830381600087803b1580156128fc57600080fd5b505af1158015612910573d6000803e3d6000fd5b50505050816001600160a01b031663d0e30db0346040518263ffffffff1660e01b81526004016000604051808303818588803b15801561294f57600080fd5b505af1158015612963573d6000803e3d6000fd5b505060405163095ea7b360e01b81526001600160a01b0385811660048301523460248301528616935063095ea7b3925060440190506020604051808303816000875af11580156129b7573d6000803e3d6000fd5b505050506040513d601f19601f820116820180604052508101906129db919061341d565b50604051630b967f1160e41b81526000906001600160a01b0383169063b967f11090612a17908d908d908d908d908d908d908d90600401613640565b6020604051808303816000875af1158015612a36573d6000803e3d6000fd5b505050506040513d601f19601f82011682018060405250810190612a5a919061339f565b905060005b8851811015612b57578a6001600160a01b03166388a6360e6040518163ffffffff1660e01b8152600401602060405180830381865afa158015612aa6573d6000803e3d6000fd5b505050506040513d601f19601f82011682018060405250810190612aca9190612cc0565b6001600160a01b03166342842e0e30338c8581518110612aec57612aec6131d9565b60200260200101516040518463ffffffff1660e01b8152600401612b12939291906131ef565b600060405180830381600087803b158015612b2c57600080fd5b505af1158015612b40573d6000803e3d6000fd5b505050508080612b4f90613229565b915050612a5f565b50604051632e1a7d4d60e01b8152600481018290526001600160a01b03841690632e1a7d4d90602401600060405180830381600087803b158015612b9a57600080fd5b505af1158015612bae573d6000803e3d6000fd5b505050506000612bbb3390565b6001600160a01b03168260405160006040518083038185875af1925050503d8060008114612c05576040519150601f19603f3d011682016040523d82523d6000602084013e612c0a565b606091505b5050905080612c2b5760405162461bcd60e51b815260040161016e906133b8565b50505050612c396001600055565b50505050505050565b600260005403612c945760405162461bcd60e51b815260206004820152601f60248201527f5265656e7472616e637947756172643a207265656e7472616e742063616c6c00604482015260640161016e565b6002600055565b6001600160a01b038116811461154857600080fd5b8051612cbb81612c9b565b919050565b600060208284031215612cd257600080fd5b8151612cdd81612c9b565b9392505050565b634e487b7160e01b600052604160045260246000fd5b60405160c081016001600160401b0381118282101715612d1c57612d1c612ce4565b60405290565b604051601f8201601f191681016001600160401b0381118282101715612d4a57612d4a612ce4565b604052919050565b60006001600160401b03821115612d6b57612d6b612ce4565b5060051b60200190565b600082601f830112612d8657600080fd5b81356020612d9b612d9683612d52565b612d22565b82815260059290921b84018101918181019086841115612dba57600080fd5b8286015b84811015612dd55780358352918301918301612dbe565b509695505050505050565b60008060008060008060c08789031215612df957600080fd5b863595506020870135612e0b81612c9b565b945060408701356001600160401b0380821115612e2757600080fd5b612e338a838b01612d75565b9550606089013594506080890135935060a0890135915080821115612e5757600080fd5b50870160c0818a031215612e6a57600080fd5b809150509295509295509295565b60008060008060008060c08789031215612e9157600080fd5b8635612e9c81612c9b565b955060208701356001600160401b03811115612eb757600080fd5b612ec389828a01612d75565b955050604087013593506060870135612edb81612c9b565b9598949750929560808101359460a0909101359350915050565b60008060408385031215612f0857600080fd5b8235612f1381612c9b565b946020939093013593505050565b600080600080600060808688031215612f3957600080fd5b8535612f4481612c9b565b94506020860135612f5481612c9b565b93506040860135925060608601356001600160401b0380821115612f7757600080fd5b818801915088601f830112612f8b57600080fd5b813581811115612f9a57600080fd5b896020828501011115612fac57600080fd5b9699959850939650602001949392505050565b600060208284031215612fd157600080fd5b5035919050565b60008060008060808587031215612fee57600080fd5b8435612ff981612c9b565b935060208501356001600160401b038082111561301557600080fd5b61302188838901612d75565b9450604087013591508082111561303757600080fd5b5061304487828801612d75565b949793965093946060013593505050565b60006020828403121561306757600080fd5b8135612cdd81612c9b565b6000806040838503121561308557600080fd5b823561309081612c9b565b915060208301356001600160401b038111156130ab57600080fd5b6130b785828601612d75565b9150509250929050565b6000806000606084860312156130d657600080fd5b83356130e181612c9b565b925060208401356001600160401b038111156130fc57600080fd5b61310886828701612d75565b925050604084013590509250925092565b600080600080600080600060e0888a03121561313457600080fd5b873561313f81612c9b565b9650602088013561314f81612c9b565b955060408801356001600160401b038082111561316b57600080fd5b6131778b838c01612d75565b965060608a0135955060808a013591508082111561319457600080fd5b6131a08b838c01612d75565b945060a08a01359150808211156131b657600080fd5b506131c38a828b01612d75565b92505060c0880135905092959891949750929550565b634e487b7160e01b600052603260045260246000fd5b6001600160a01b039384168152919092166020820152604081019190915260600190565b634e487b7160e01b600052601160045260246000fd5b60006001820161323b5761323b613213565b5060010190565b600081518084526020808501945080840160005b8381101561327257815187529582019590820190600101613256565b509495945050505050565b81835281816020850137506000828201602090810191909152601f909101601f19169091010190565b6001600160a01b03898116825288811660208301526040820188905286166060820152610100608082018190526000906132e283820188613242565b90508560a08401528460c084015282810360e0840152833560ff811680821461330a57600080fd5b80835250506020840135602082015260408401356040820152606084013560608201526080840135608082015260a0840135601e1985360301811261334e57600080fd5b84016020810190356001600160401b0381111561336a57600080fd5b80360382131561337957600080fd5b60c060a084015261338e60c08401828461327d565b9d9c50505050505050505050505050565b6000602082840312156133b157600080fd5b5051919050565b6020808252601490820152732330b4b632b2103a379039b2b7321022ba3432b960611b604082015260600190565b6020808252601b908201527f506f6f6c20756e6465726c79696e67206973206e6f7420574554480000000000604082015260600190565b60006020828403121561342f57600080fd5b81518015158114612cdd57600080fd5b600060018060a01b03808a16835260e0602084015261346160e084018a613242565b604084019890985260608301969096525092909316608083015260a082015260c0015292915050565b6000602080838503121561349d57600080fd5b82516001600160401b03808211156134b457600080fd5b9084019060c082870312156134c857600080fd5b6134d0612cfa565b8251828111156134df57600080fd5b83019150601f820187136134f257600080fd5b8151613500612d9682612d52565b81815260059190911b8301850190858101908983111561351f57600080fd5b938601935b8285101561353d57845182529386019390860190613524565b8352505082840151848201526040808401519082015261355f60608401612cb0565b60608201526080830151608082015260a083015160a08201528094505050505092915050565b6001600160a01b03851681526080602082018190526000906135a990830186613242565b82810360408401526135bb8186613242565b91505082606083015295945050505050565b808201808211156135e0576135e0613213565b92915050565b602081526000612cdd6020830184613242565b6001600160a01b038416815260606020820181905260009061361d90830185613242565b9050826040830152949350505050565b818103818111156135e0576135e0613213565b6001600160a01b0388811682528716602082015260e06040820181905260009061366c90830188613242565b86606084015282810360808401526136848187613242565b905082810360a08401526136988186613242565b9150508260c08301529897505050505050505056fea2646970667358221220b9263d8770c0583d523c677b520a6014ec2a5fe4fc2c71ddad6f1e483e259ed664736f6c63430008110033",
  "linkReferences": {},
  "deployedLinkReferences": {}
}