{
  "_format": "hh-sol-artifact-1",
  "contractName": "WETHGateway",
  "sourceName": "contracts/protocol/WETHGateway.sol",
  "abi": [
    {
      "inputs": [
        {
          "internalType": "contract IAddressesProvider",
          "name": "addressesProvider",
          "type": "address"
        }
      ],
      "stateMutability": "nonpayable",
      "type": "constructor"
    },
    {
      "stateMutability": "payable",
      "type": "fallback"
    },
    {
      "inputs": [
        {
          "internalType": "uint256",
          "name": "amount",
          "type": "uint256"
        },
        {
          "internalType": "address",
          "name": "nftAddress",
          "type": "address"
        },
        {
          "internalType": "uint256",
          "name": "nftTokenId",
          "type": "uint256"
        },
        {
          "internalType": "uint256",
          "name": "genesisNFTId",
          "type": "uint256"
        },
        {
          "internalType": "bytes32",
          "name": "request",
          "type": "bytes32"
        },
        {
          "components": [
            {
              "internalType": "uint8",
              "name": "v",
              "type": "uint8"
            },
            {
              "internalType": "bytes32",
              "name": "r",
              "type": "bytes32"
            },
            {
              "internalType": "bytes32",
              "name": "s",
              "type": "bytes32"
            },
            {
              "internalType": "bytes32",
              "name": "request",
              "type": "bytes32"
            },
            {
              "internalType": "uint256",
              "name": "deadline",
              "type": "uint256"
            },
            {
              "internalType": "bytes",
              "name": "payload",
              "type": "bytes"
            }
          ],
          "internalType": "struct Trustus.TrustusPacket",
          "name": "packet",
          "type": "tuple"
        }
      ],
      "name": "borrowETH",
      "outputs": [],
      "stateMutability": "nonpayable",
      "type": "function"
    },
    {
      "inputs": [
        {
          "internalType": "address",
          "name": "lendingPool",
          "type": "address"
        }
      ],
      "name": "depositETH",
      "outputs": [],
      "stateMutability": "payable",
      "type": "function"
    },
    {
      "inputs": [
        {
          "internalType": "address",
          "name": "",
          "type": "address"
        },
        {
          "internalType": "address",
          "name": "",
          "type": "address"
        },
        {
          "internalType": "uint256",
          "name": "",
          "type": "uint256"
        },
        {
          "internalType": "bytes",
          "name": "",
          "type": "bytes"
        }
      ],
      "name": "onERC721Received",
      "outputs": [
        {
          "internalType": "bytes4",
          "name": "",
          "type": "bytes4"
        }
      ],
      "stateMutability": "pure",
      "type": "function"
    },
    {
      "inputs": [
        {
          "internalType": "uint256",
          "name": "loanId",
          "type": "uint256"
        }
      ],
      "name": "repayETH",
      "outputs": [],
      "stateMutability": "payable",
      "type": "function"
    },
    {
      "inputs": [
        {
          "internalType": "address",
          "name": "lendingPool",
          "type": "address"
        },
        {
          "internalType": "uint256",
          "name": "amount",
          "type": "uint256"
        }
      ],
      "name": "withdrawETH",
      "outputs": [],
      "stateMutability": "nonpayable",
      "type": "function"
    },
    {
      "stateMutability": "payable",
      "type": "receive"
    }
  ],
  "bytecode": "0x60803461007557601f610eda38819003918201601f19168301916001600160401b0383118484101761007a5780849260209460405283398101031261007557516001600160a01b0381169081900361007557600160005560018060a01b03196001541617600155604051610e4990816100918239f35b600080fd5b634e487b7160e01b600052604160045260246000fdfe6040608081526004803610156100fe575b361561004f576020606492519162461bcd60e51b8352820152601460248201527311985b1b189858dac81b9bdd08185b1b1bddd95960621b6044820152fd5b6001548251636572f88f60e11b81526001600160a01b039160209082908590829086165afa9081156100f3576000916100c5575b5016330361008d57005b6020606492519162461bcd60e51b83528201526013602482015272149958d95a5d99481b9bdd08185b1b1bddd959606a1b6044820152fd5b6100e6915060203d81116100ec575b6100de8183610c95565b810190610cb7565b38610083565b503d6100d4565b84513d6000823e3d90fd5b6000803560e01c806204c4fd14610874578063150b7a02146108095780632247463e146105225780632d2da8061461030f57634782f779146101405750610010565b80923461030b578060031936011261030b5761015a610c55565b9060243593610167610d3a565b6001548251636572f88f60e11b81526020916001600160a01b039190839082908690829086165afa908115610301578291829189916102e4575b501695169084516338d52e0f60e01b815283818681865afa9081156102da578785938a95936101d99387916102bd575b501614610cd6565b6064865180948193632d182be560e21b83528c898401523060248401523360448401525af180156102b35761027f575b5050823b1561027b5784602485928385519687948593632e1a7d4d60e01b85528401525af1908115610272575061025b575b5080808061025494335af161024e610d90565b50610dd0565b6001815580f35b6102658291610c6b565b61026f573861023b565b80fd5b513d84823e3d90fd5b8380fd5b90809295503d83116102ac575b6102968183610c95565b810103126102a75784923880610209565b600080fd5b503d61028c565b84513d88823e3d90fd5b6102d49150863d88116100ec576100de8183610c95565b386101d1565b86513d8a823e3d90fd5b6102fb9150853d87116100ec576100de8183610c95565b386101a1565b85513d89823e3d90fd5b5080fd5b5080926020928360031936011261051e57610328610c55565b90610331610d3a565b6001548351636572f88f60e11b81526001600160a01b039391879082908590829088165afa9081156105145790849187916104f7575b5016908381169385516338d52e0f60e01b815288818681895afa9081156104ed5791849161039d938a916104d657501614610cd6565b813b156104c8578451630d0e30db60e41b81528681858134875af180156104cc579187939189936104ad575b50865163095ea7b360e01b81526001600160a01b039091168582019081523460208201529093849291839190829060400103925af180156104a35791604491879493610476575b5084519586938492636e553f6560e01b845234908401523360248401525af190811561046d5750610444575b826001815580f35b813d8311610466575b6104578183610c95565b810103126102a757388061043c565b503d61044d565b513d85823e3d90fd5b61049590853d871161049c575b61048d8183610c95565b810190610d22565b5038610410565b503d610483565b84513d87823e3d90fd5b6104ba9194929350610c6b565b6104c85786908692386103c9565b8580fd5b86513d89823e3d90fd5b6102d491508b3d8d116100ec576100de8183610c95565b87513d8a823e3d90fd5b61050e9150883d8a116100ec576100de8183610c95565b38610367565b85513d88823e3d90fd5b8280fd5b506020833660031901821361051e5783359361053c610d3a565b60015482516314d888d960e21b81526001600160a01b0396918716949081818581895afa908115610301578891839189916107ec575b5060248751809b819363ccff44f160e01b8352888a840152165afa9788156103015787986107cd575b5084516302690e7760e11b8152828186818a5afa9081156102da5782869285928b916107b0575b501697875192838092636572f88f60e11b82525afa9081156102da579082918991610793575b5086516338d52e0f60e01b815291169190838187818d86165afa90811561071d57908392918a91610776575b501603610727578697813b15610719578551630d0e30db60e41b81528881878134875af1801561071d579189939185936106fe575b50875163095ea7b360e01b81526001600160a01b039091168782019081523460208201529093849291839190829060400103925af18015610301576106e0575b5050833b156106dc5760448592838551968794859363d8aed14560e01b85528401523460248401525af190811561027257506106c8575b506001905580f35b6106d190610c6b565b61026f5780826106c0565b8480fd5b816106f692903d1061049c5761048d8183610c95565b508680610689565b61070b9194929350610c6b565b61071957829088928b610649565b8780fd5b87513d8b823e3d90fd5b845162461bcd60e51b8152808501839052602360248201527f4c6f616e207265736572766520756e6465726c79696e67206973206e6f74205760448201526208aa8960eb1b6064820152608490fd5b61078d9150853d87116100ec576100de8183610c95565b8b610614565b6107aa9150843d86116100ec576100de8183610c95565b8a6105e8565b6107c79150833d85116100ec576100de8183610c95565b8c6105c2565b6107e5919850823d84116100ec576100de8183610c95565b968861059b565b6108039150823d84116100ec576100de8183610c95565b8a610572565b5091903461051e57608036600319011261051e57610825610c55565b5061082e610c3f565b506064359067ffffffffffffffff908183116106dc57366023840112156106dc5782013590811161027b573691016024011161030b5751630a85bd0160e11b8152602090f35b50823461030b576003199260c03685011261051e57803591610894610c3f565b916044359060a4359667ffffffffffffffff978881116107195760c081360392830112610719576108c3610d3a565b60015485516302690e7760e11b815260209a6001600160a01b0392831693909290918c818881885afa908115610c18578288928f928f91610c22575b5016958a5192838092636572f88f60e11b82525afa908115610c18579082918e8e92610bfb575b505016981693843b15610bc257875196632142170760e11b8852338789015260249730898201528160448201528c81606481838b5af18015610bde57610be8575b50853b15610bc657885163095ea7b360e01b81526001600160a01b038616888201908152602081018390528d90829081906040010381838b5af18015610bde57908d91610bca575b5050843b15610bc65788519563f3b3132560e01b875233888801528a898801528b60448801526064870152608486015260643560a486015260843560c486015261010060e48601528186013560ff8116809103610bc6576101048601528187013561012486015260448201356101448601526064820135610164860152608482013561018486015260a48201359060221901811215610bc2570185858201359101918111610bbe578036038213610bbe5791838a819382829660c06101a4830152806101c4830152806101e493848401378181018301849052601f01601f191681010301925af18015610ba057908791610baa575b505082516370a0823160e01b8152308282015287818481885afa908115610ba0579086918891610b6f575b5003610b2f579083929186943b156106dc57849186918385519687948593632e1a7d4d60e01b85528401525af19081156102725750610b1b575080808061025494335af161024e610d90565b610b258291610c6b565b61026f578361023b565b60196064928885519362461bcd60e51b85528401528201527f4e6f7420656e6f75676820574554482072656365697665642e000000000000006044820152fd5b809250898092503d8311610b99575b610b888183610c95565b810103126102a75785905189610acf565b503d610b7e565b84513d89823e3d90fd5b610bb390610c6b565b6104c8578588610aa4565b8980fd5b8a80fd5b8b80fd5b610bd390610c6b565b610bc6578b8e6109af565b8a513d8f823e3d90fd5b610bf4909c919c610c6b565b9a8d610967565b610c119250803d106100ec576100de8183610c95565b8e8e610926565b89513d8e823e3d90fd5b610c399150833d85116100ec576100de8183610c95565b386108ff565b602435906001600160a01b03821682036102a757565b600435906001600160a01b03821682036102a757565b67ffffffffffffffff8111610c7f57604052565b634e487b7160e01b600052604160045260246000fd5b90601f8019910116810190811067ffffffffffffffff821117610c7f57604052565b908160209103126102a757516001600160a01b03811681036102a75790565b15610cdd57565b60405162461bcd60e51b815260206004820152601e60248201527f5265736572766520756e6465726c79696e67206973206e6f74205745544800006044820152606490fd5b908160209103126102a7575180151581036102a75790565b600260005414610d4b576002600055565b60405162461bcd60e51b815260206004820152601f60248201527f5265656e7472616e637947756172643a207265656e7472616e742063616c6c006044820152606490fd5b3d15610dcb573d9067ffffffffffffffff8211610c7f5760405191610dbf601f8201601f191660200184610c95565b82523d6000602084013e565b606090565b15610dd757565b60405162461bcd60e51b81526020600482015260146024820152732330b4b632b2103a379039b2b7321022ba3432b960611b6044820152606490fdfea2646970667358221220d2616c95509d58f4296b1b56ee7787a76cab0185495d3c92af90d8837ab6a5f064736f6c63430008110033",
  "linkReferences": {},
  "deployedLinkReferences": {}
}